{
  "_format": "hh-sol-artifact-1",
  "contractName": "AirdropBroker",
  "sourceName": "contracts/option-airdrop/AirdropBroker.sol",
  "abi": [
    {
      "inputs": [
        {
          "internalType": "address",
          "name": "_aoTAP",
          "type": "address"
        },
        {
          "internalType": "address payable",
          "name": "_tapOFT",
          "type": "address"
        },
        {
          "internalType": "address",
          "name": "_pcnft",
          "type": "address"
        },
        {
          "internalType": "address",
          "name": "_paymentTokenBeneficiary",
          "type": "address"
        },
        {
          "internalType": "address",
          "name": "_owner",
          "type": "address"
        }
      ],
      "stateMutability": "nonpayable",
      "type": "constructor"
    },
    {
      "inputs": [],
      "name": "AlreadyParticipated",
      "type": "error"
    },
    {
      "inputs": [],
      "name": "Ended",
      "type": "error"
    },
    {
      "inputs": [],
      "name": "Failed",
      "type": "error"
    },
    {
      "inputs": [],
      "name": "NotAuthorized",
      "type": "error"
    },
    {
      "inputs": [],
      "name": "NotEligible",
      "type": "error"
    },
    {
      "inputs": [],
      "name": "NotStarted",
      "type": "error"
    },
    {
      "inputs": [],
      "name": "NotValid",
      "type": "error"
    },
    {
      "inputs": [],
      "name": "OptionExpired",
      "type": "error"
    },
    {
      "inputs": [],
      "name": "PaymentAmountNotValid",
      "type": "error"
    },
    {
      "inputs": [],
      "name": "PaymentTokenNotValid",
      "type": "error"
    },
    {
      "inputs": [],
      "name": "PaymentTokenValuationNotValid",
      "type": "error"
    },
    {
      "inputs": [],
      "name": "TapAmountNotValid",
      "type": "error"
    },
    {
      "inputs": [],
      "name": "TokenBeneficiaryNotSet",
      "type": "error"
    },
    {
      "inputs": [],
      "name": "TooHigh",
      "type": "error"
    },
    {
      "inputs": [],
      "name": "TooLow",
      "type": "error"
    },
    {
      "inputs": [],
      "name": "TooSoon",
      "type": "error"
    },
    {
      "anonymous": false,
      "inputs": [
        {
          "indexed": true,
          "internalType": "uint256",
          "name": "epoch",
          "type": "uint256"
        },
        {
          "indexed": true,
          "internalType": "address",
          "name": "to",
          "type": "address"
        },
        {
          "indexed": true,
          "internalType": "contract ERC20",
          "name": "paymentToken",
          "type": "address"
        },
        {
          "indexed": false,
          "internalType": "uint256",
          "name": "aoTapTokenID",
          "type": "uint256"
        },
        {
          "indexed": false,
          "internalType": "uint256",
          "name": "amount",
          "type": "uint256"
        }
      ],
      "name": "ExerciseOption",
      "type": "event"
    },
    {
      "anonymous": false,
      "inputs": [
        {
          "indexed": true,
          "internalType": "uint256",
          "name": "epoch",
          "type": "uint256"
        },
        {
          "indexed": false,
          "internalType": "uint256",
          "name": "epochTAPValuation",
          "type": "uint256"
        }
      ],
      "name": "NewEpoch",
      "type": "event"
    },
    {
      "anonymous": false,
      "inputs": [
        {
          "indexed": true,
          "internalType": "address",
          "name": "previousOwner",
          "type": "address"
        },
        {
          "indexed": true,
          "internalType": "address",
          "name": "newOwner",
          "type": "address"
        }
      ],
      "name": "OwnershipTransferred",
      "type": "event"
    },
    {
      "anonymous": false,
      "inputs": [
        {
          "indexed": true,
          "internalType": "uint256",
          "name": "epoch",
          "type": "uint256"
        },
        {
          "indexed": false,
          "internalType": "uint256",
          "name": "aoTAPTokenID",
          "type": "uint256"
        }
      ],
      "name": "Participate",
      "type": "event"
    },
    {
      "anonymous": false,
      "inputs": [
        {
          "indexed": false,
          "internalType": "address",
          "name": "account",
          "type": "address"
        }
      ],
      "name": "Paused",
      "type": "event"
    },
    {
      "anonymous": false,
      "inputs": [],
      "name": "Phase2MerkleRootsUpdated",
      "type": "event"
    },
    {
      "anonymous": false,
      "inputs": [
        {
          "indexed": false,
          "internalType": "contract ERC20",
          "name": "paymentToken",
          "type": "address"
        },
        {
          "indexed": false,
          "internalType": "contract IOracle",
          "name": "oracle",
          "type": "address"
        },
        {
          "indexed": false,
          "internalType": "bytes",
          "name": "oracleData",
          "type": "bytes"
        }
      ],
      "name": "SetPaymentToken",
      "type": "event"
    },
    {
      "anonymous": false,
      "inputs": [
        {
          "indexed": false,
          "internalType": "contract IOracle",
          "name": "oracle",
          "type": "address"
        },
        {
          "indexed": false,
          "internalType": "bytes",
          "name": "oracleData",
          "type": "bytes"
        }
      ],
      "name": "SetTapOracle",
      "type": "event"
    },
    {
      "anonymous": false,
      "inputs": [
        {
          "indexed": false,
          "internalType": "address",
          "name": "account",
          "type": "address"
        }
      ],
      "name": "Unpaused",
      "type": "event"
    },
    {
      "inputs": [],
      "name": "EPOCH_DURATION",
      "outputs": [
        {
          "internalType": "uint256",
          "name": "",
          "type": "uint256"
        }
      ],
      "stateMutability": "view",
      "type": "function"
    },
    {
      "inputs": [],
      "name": "LAST_EPOCH",
      "outputs": [
        {
          "internalType": "uint256",
          "name": "",
          "type": "uint256"
        }
      ],
      "stateMutability": "view",
      "type": "function"
    },
    {
      "inputs": [],
      "name": "PCNFT",
      "outputs": [
        {
          "internalType": "contract IERC721",
          "name": "",
          "type": "address"
        }
      ],
      "stateMutability": "view",
      "type": "function"
    },
    {
      "inputs": [],
      "name": "PHASE_1_DISCOUNT",
      "outputs": [
        {
          "internalType": "uint256",
          "name": "",
          "type": "uint256"
        }
      ],
      "stateMutability": "view",
      "type": "function"
    },
    {
      "inputs": [
        {
          "internalType": "uint256",
          "name": "",
          "type": "uint256"
        }
      ],
      "name": "PHASE_2_AMOUNT_PER_USER",
      "outputs": [
        {
          "internalType": "uint8",
          "name": "",
          "type": "uint8"
        }
      ],
      "stateMutability": "view",
      "type": "function"
    },
    {
      "inputs": [
        {
          "internalType": "uint256",
          "name": "",
          "type": "uint256"
        }
      ],
      "name": "PHASE_2_DISCOUNT_PER_USER",
      "outputs": [
        {
          "internalType": "uint8",
          "name": "",
          "type": "uint8"
        }
      ],
      "stateMutability": "view",
      "type": "function"
    },
    {
      "inputs": [],
      "name": "PHASE_3_AMOUNT_PER_USER",
      "outputs": [
        {
          "internalType": "uint256",
          "name": "",
          "type": "uint256"
        }
      ],
      "stateMutability": "view",
      "type": "function"
    },
    {
      "inputs": [],
      "name": "PHASE_3_DISCOUNT",
      "outputs": [
        {
          "internalType": "uint256",
          "name": "",
          "type": "uint256"
        }
      ],
      "stateMutability": "view",
      "type": "function"
    },
    {
      "inputs": [],
      "name": "PHASE_4_DISCOUNT",
      "outputs": [
        {
          "internalType": "uint256",
          "name": "",
          "type": "uint256"
        }
      ],
      "stateMutability": "view",
      "type": "function"
    },
    {
      "inputs": [],
      "name": "aoTAP",
      "outputs": [
        {
          "internalType": "contract AOTAP",
          "name": "",
          "type": "address"
        }
      ],
      "stateMutability": "view",
      "type": "function"
    },
    {
      "inputs": [],
      "name": "aoTAPBrokerClaim",
      "outputs": [],
      "stateMutability": "nonpayable",
      "type": "function"
    },
    {
      "inputs": [
        {
          "internalType": "uint256",
          "name": "",
          "type": "uint256"
        },
        {
          "internalType": "uint256",
          "name": "",
          "type": "uint256"
        }
      ],
      "name": "aoTAPCalls",
      "outputs": [
        {
          "internalType": "uint256",
          "name": "",
          "type": "uint256"
        }
      ],
      "stateMutability": "view",
      "type": "function"
    },
    {
      "inputs": [],
      "name": "claimOwnership",
      "outputs": [],
      "stateMutability": "nonpayable",
      "type": "function"
    },
    {
      "inputs": [
        {
          "internalType": "address[]",
          "name": "_paymentTokens",
          "type": "address[]"
        }
      ],
      "name": "collectPaymentTokens",
      "outputs": [],
      "stateMutability": "nonpayable",
      "type": "function"
    },
    {
      "inputs": [],
      "name": "daoRecoverTAP",
      "outputs": [],
      "stateMutability": "nonpayable",
      "type": "function"
    },
    {
      "inputs": [],
      "name": "epoch",
      "outputs": [
        {
          "internalType": "uint64",
          "name": "",
          "type": "uint64"
        }
      ],
      "stateMutability": "view",
      "type": "function"
    },
    {
      "inputs": [],
      "name": "epochTAPValuation",
      "outputs": [
        {
          "internalType": "uint128",
          "name": "",
          "type": "uint128"
        }
      ],
      "stateMutability": "view",
      "type": "function"
    },
    {
      "inputs": [
        {
          "internalType": "uint256",
          "name": "_aoTAPTokenID",
          "type": "uint256"
        },
        {
          "internalType": "contract ERC20",
          "name": "_paymentToken",
          "type": "address"
        },
        {
          "internalType": "uint256",
          "name": "_tapAmount",
          "type": "uint256"
        }
      ],
      "name": "exerciseOption",
      "outputs": [],
      "stateMutability": "nonpayable",
      "type": "function"
    },
    {
      "inputs": [
        {
          "internalType": "uint256",
          "name": "_aoTAPTokenID",
          "type": "uint256"
        },
        {
          "internalType": "contract ERC20",
          "name": "_paymentToken",
          "type": "address"
        },
        {
          "internalType": "uint256",
          "name": "_tapAmount",
          "type": "uint256"
        }
      ],
      "name": "getOTCDealDetails",
      "outputs": [
        {
          "internalType": "uint256",
          "name": "eligibleTapAmount",
          "type": "uint256"
        },
        {
          "internalType": "uint256",
          "name": "paymentTokenAmount",
          "type": "uint256"
        },
        {
          "internalType": "uint256",
          "name": "tapAmount",
          "type": "uint256"
        }
      ],
      "stateMutability": "view",
      "type": "function"
    },
    {
      "inputs": [],
      "name": "lastEpochUpdate",
      "outputs": [
        {
          "internalType": "uint64",
          "name": "",
          "type": "uint64"
        }
      ],
      "stateMutability": "view",
      "type": "function"
    },
    {
      "inputs": [],
      "name": "newEpoch",
      "outputs": [],
      "stateMutability": "nonpayable",
      "type": "function"
    },
    {
      "inputs": [],
      "name": "owner",
      "outputs": [
        {
          "internalType": "address",
          "name": "",
          "type": "address"
        }
      ],
      "stateMutability": "view",
      "type": "function"
    },
    {
      "inputs": [
        {
          "internalType": "bytes",
          "name": "_data",
          "type": "bytes"
        }
      ],
      "name": "participate",
      "outputs": [
        {
          "internalType": "uint256",
          "name": "aoTAPTokenID",
          "type": "uint256"
        }
      ],
      "stateMutability": "nonpayable",
      "type": "function"
    },
    {
      "inputs": [],
      "name": "paused",
      "outputs": [
        {
          "internalType": "bool",
          "name": "",
          "type": "bool"
        }
      ],
      "stateMutability": "view",
      "type": "function"
    },
    {
      "inputs": [],
      "name": "paymentTokenBeneficiary",
      "outputs": [
        {
          "internalType": "address",
          "name": "",
          "type": "address"
        }
      ],
      "stateMutability": "view",
      "type": "function"
    },
    {
      "inputs": [
        {
          "internalType": "contract ERC20",
          "name": "",
          "type": "address"
        }
      ],
      "name": "paymentTokens",
      "outputs": [
        {
          "internalType": "contract IOracle",
          "name": "oracle",
          "type": "address"
        },
        {
          "internalType": "bytes",
          "name": "oracleData",
          "type": "bytes"
        }
      ],
      "stateMutability": "view",
      "type": "function"
    },
    {
      "inputs": [],
      "name": "pendingOwner",
      "outputs": [
        {
          "internalType": "address",
          "name": "",
          "type": "address"
        }
      ],
      "stateMutability": "view",
      "type": "function"
    },
    {
      "inputs": [
        {
          "internalType": "address",
          "name": "",
          "type": "address"
        }
      ],
      "name": "phase1Users",
      "outputs": [
        {
          "internalType": "uint256",
          "name": "",
          "type": "uint256"
        }
      ],
      "stateMutability": "view",
      "type": "function"
    },
    {
      "inputs": [
        {
          "internalType": "uint256",
          "name": "",
          "type": "uint256"
        }
      ],
      "name": "phase2MerkleRoots",
      "outputs": [
        {
          "internalType": "bytes32",
          "name": "",
          "type": "bytes32"
        }
      ],
      "stateMutability": "view",
      "type": "function"
    },
    {
      "inputs": [
        {
          "internalType": "address",
          "name": "",
          "type": "address"
        }
      ],
      "name": "phase4Users",
      "outputs": [
        {
          "internalType": "uint256",
          "name": "",
          "type": "uint256"
        }
      ],
      "stateMutability": "view",
      "type": "function"
    },
    {
      "inputs": [
        {
          "internalType": "uint256",
          "name": "_phase",
          "type": "uint256"
        },
        {
          "internalType": "address[]",
          "name": "_users",
          "type": "address[]"
        },
        {
          "internalType": "uint256[]",
          "name": "_amounts",
          "type": "uint256[]"
        }
      ],
      "name": "registerUsersForPhase",
      "outputs": [],
      "stateMutability": "nonpayable",
      "type": "function"
    },
    {
      "inputs": [
        {
          "internalType": "contract ERC20",
          "name": "_paymentToken",
          "type": "address"
        },
        {
          "internalType": "contract IOracle",
          "name": "_oracle",
          "type": "address"
        },
        {
          "internalType": "bytes",
          "name": "_oracleData",
          "type": "bytes"
        }
      ],
      "name": "setPaymentToken",
      "outputs": [],
      "stateMutability": "nonpayable",
      "type": "function"
    },
    {
      "inputs": [
        {
          "internalType": "address",
          "name": "_paymentTokenBeneficiary",
          "type": "address"
        }
      ],
      "name": "setPaymentTokenBeneficiary",
      "outputs": [],
      "stateMutability": "nonpayable",
      "type": "function"
    },
    {
      "inputs": [
        {
          "internalType": "bytes32[4]",
          "name": "_merkleRoots",
          "type": "bytes32[4]"
        }
      ],
      "name": "setPhase2MerkleRoots",
      "outputs": [],
      "stateMutability": "nonpayable",
      "type": "function"
    },
    {
      "inputs": [
        {
          "internalType": "contract IOracle",
          "name": "_tapOracle",
          "type": "address"
        },
        {
          "internalType": "bytes",
          "name": "_tapOracleData",
          "type": "bytes"
        }
      ],
      "name": "setTapOracle",
      "outputs": [],
      "stateMutability": "nonpayable",
      "type": "function"
    },
    {
      "inputs": [],
      "name": "tapOFT",
      "outputs": [
        {
          "internalType": "contract TapOFT",
          "name": "",
          "type": "address"
        }
      ],
      "stateMutability": "view",
      "type": "function"
    },
    {
      "inputs": [],
      "name": "tapOracle",
      "outputs": [
        {
          "internalType": "contract IOracle",
          "name": "",
          "type": "address"
        }
      ],
      "stateMutability": "view",
      "type": "function"
    },
    {
      "inputs": [],
      "name": "tapOracleData",
      "outputs": [
        {
          "internalType": "bytes",
          "name": "",
          "type": "bytes"
        }
      ],
      "stateMutability": "view",
      "type": "function"
    },
    {
      "inputs": [
        {
          "internalType": "address",
          "name": "newOwner",
          "type": "address"
        },
        {
          "internalType": "bool",
          "name": "direct",
          "type": "bool"
        },
        {
          "internalType": "bool",
          "name": "renounce",
          "type": "bool"
        }
      ],
      "name": "transferOwnership",
      "outputs": [],
      "stateMutability": "nonpayable",
      "type": "function"
    },
    {
      "inputs": [
        {
          "internalType": "address",
          "name": "",
          "type": "address"
        },
        {
          "internalType": "uint256",
          "name": "",
          "type": "uint256"
        }
      ],
      "name": "userParticipation",
      "outputs": [
        {
          "internalType": "bool",
          "name": "",
          "type": "bool"
        }
      ],
      "stateMutability": "view",
      "type": "function"
    }
  ],
  "bytecode": "0x60e0346200026c57601f62002f8a38819003918201601f19168301916001600160401b03831184841017620002715780849260a0946040528339810103126200026c576200004d81620002a7565b60208281015190916001600160a01b03808316929091908390036200026c57816200007b60408701620002a7565b916200009860806200009060608a01620002a7565b9801620002a7565b94600097885497338a7f8be0079c531659141344cd1fd0a4f28419497f9722a3daafe3b4186f6b6457e08180a3600180600255620000d562000287565b60c8815260be8382015260c8604082015260be60608201528b908c5b600481106200022e575050600f556200010962000287565b603281526028838201526028604082015260216060820152908b928c905b60048210620001f357505050601091909155506202a300601255600780546001600160a01b0319169185169190911790556080521660a0521660c0526001600160a81b031990911660089190911b610100600160a81b0316179055604051612ccd9081620002bd82396080518181816102520152818161128901526117c5015260a0518181816106e70152818161092501528181610b9301528181610db101528181610fd2015281816118ef01528181611b160152611ef9015260c051818181610ae60152610ef30152f35b8395969798506200021d83958360ff849695975116919060ff809160031b9316831b921b19161790565b950192018997969594939162000127565b91849596979850936200025984958460ff8597955116919060ff809160031b9316831b921b19161790565b93019101908997969594939291620000f1565b600080fd5b634e487b7160e01b600052604160045260246000fd5b60405190608082016001600160401b038111838210176200027157604052565b51906001600160a01b03821682036200026c5756fe6040608081526004908136101561001557600080fd5b6000803560e01c8063078dfbe7146123a85780630edb93ca1461237757806310f95fbe146121815780631595cef31461216457806318f5e0ab14611f8857806319b657df14611ee35780631fe8023714611e0257806320b86b8314611dd957806325b6ac1b14611dbb5780632d0012c314611d91578063422007c214611d595780634e71e0c814611c905780635c975abb14611c6e578063753fff1014611b455780637932431a146102135780637a8541b714611b015780638590f413146118b4578063862dae991461183b5780638676950f14611810578063870ff7b3146117f45780638b0c2dfc146117b05780638da5cb5b14611784578063900cf0cf1461176257806392e038ef1461172a578063933f6da51461170257806397d63d4314611553578063a1bef73414610f99578063a70b9f0c14610f7a578063c3b88b4214610f22578063c44ea57514610ede578063c707ea3f14610e97578063c9eed54614610e50578063d7d4912314610621578063e30c3978146105f8578063e4ed31f8146103ea578063f044f623146103be578063f13d177414610395578063f52f1e0414610218578063fae7e997146102135763fb4aaaac146101d857600080fd5b3461021057602036600319011261021057823592831015610210575060ff6102016020936126b0565b92905490519260031b1c168152f35b80fd5b6126f8565b50913461039157826003193601126103915760018060a01b0361024281855460081c163314612740565b600860055460c01c111561035e577f0000000000000000000000000000000000000000000000000000000000000000169180516370a0823160e01b815230838201526020928382602481885afa91821561035457869261031e575b50825163a9059cbb60e01b8152339181019182526020820192909252909383918591908290889082906040015b03925af190811561031557506102de578280f35b81813d831161030e575b6102f2818361257b565b8101031261030a5761030390612855565b5038808280f35b5080fd5b503d6102e8565b513d85823e3d90fd5b91508382813d831161034d575b610335818361257b565b81010312610348579051906102ca61029d565b600080fd5b503d61032b565b83513d88823e3d90fd5b506020606492519162461bcd60e51b8352820152600d60248201526c30b2311d103a37b79039b7b7b760991b6044820152fd5b8280fd5b50903461030a578160031936011261030a5760075490516001600160a01b039091168152602090f35b509134610391576020366003190112610391578035908110156103915760209250600b01549051908152f35b50823461030a57606036600319011261030a576104056124cd565b926001600160a01b036024358181169290839003610348576001600160401b03926044358481116105f45761043d90369087016124e3565b93909761045182895460081c163314612740565b168087526006602090815283882080546001600160a01b03191684178155909691956001918201929086116105e1575061048b8254612510565b601f811161059a575b5087601f8611600114610511579260609286808b9c979461050099977fd70ea94304204d2530588b0d70f2ee633331140b793571367a494b7709768a629d93610506575b501b906000198760031b1c19161790555b8151978897885287015285015260608401916128e9565b0390a180f35b89013592508e6104d8565b82895287892090601f1987168a5b81811061058557509287959260609592610500997fd70ea94304204d2530588b0d70f2ee633331140b793571367a494b7709768a629d9e99961061056b575b505085811b0190556104e9565b880135600019600389901b60f8161c191690558c8061055e565b8c830135845592840192918a01918a0161051f565b828952878920601f870160051c8101918988106105d7575b601f0160051c019082905b8281106105cb575050610494565b600081550182906105bd565b90915081906105b2565b634e487b7160e01b895260419052602488fd5b8680fd5b50903461030a578160031936011261030a5760015490516001600160a01b039091168152602090f35b509190346103915760209283600319360112610210576001600160401b0383358181116103915761065590369086016124e3565b949091610660612898565b8392600593845460c01c978815610e405760088911610e30576001918983036107975750505050338452600a8752848420549283156107875790879291338652600a845285878120555460801c166106c260018060801b0391601254906128dc565b865163048e609360e21b815294859384936106e293169033908501612b1c565b0381857f00000000000000000000000000000000000000000000000000000000000000006001600160a01b03165af191821561077c579161074f575b50915b7fc1f179f14f884c05fb311c81504f038c245915305130f066c96a1a3ae9a4e4e7848351858152a251908152f35b90508381813d8311610775575b610766818361257b565b8101031261034857513861071e565b503d61075c565b8351903d90823e3d90fd5b8551637c75aa6f60e11b81528390fd5b9495929460028a03610a695750840187858203126105f4578435948a81013590858211610a6557019080601f83011215610a615781356107d681612b50565b926107e38b51948561257b565b8184528c80850192871b820101928311610a5d57908c809201905b838210610a4e575050505087518a8101903360601b8252601481526108228161254a565b5190209086861015610a3b57828087600b015493928a925b6109e9575b505050036109d95783601401806014116109c65733875260098a528787208188528a5260ff88882054166109b65733875260098a528787209087528952868620805460ff19169091179055546012546001600160801b039283926108aa929160809190911c166128dc565b1660ff6108b684612682565b90549060031b1c1692670de0b6b3a7640000938481029481860414901517156109a35760ff6108e7612710926126b0565b90549060031b1c160291821691820361099057855163048e609360e21b815233948101949094526024840152604483015260648201528481608481857f00000000000000000000000000000000000000000000000000000000000000006001600160a01b03165af191821561077c5791610963575b5091610721565b90508381813d8311610989575b61097a818361257b565b8101031261034857513861095c565b503d610970565b634e487b7160e01b855260118452602485fd5b634e487b7160e01b865260118552602486fd5b87516322ce1a0760e01b81528690fd5b634e487b7160e01b875260118652602487fd5b8651637c75aa6f60e11b81528590fd5b9091928151841015610a32576109ff8483612b67565b519081811015610a22578b528d52610a1a8b8b205b9361290a565b91908161083a565b908b528d52610a1a8b8b20610a14565b9282915061083f565b634e487b7160e01b885260328752602488fd5b813581529082019082016107fe565b8980fd5b8780fd5b8880fd5b60039694939291908a8803610d2757508501948a81870312610a6157803590848211610a6557019480601f87011215610a61578535610aa781612b50565b96610ab48b51988961257b565b8188528c80890192861b820101928311610a5d57908c809201905b838210610d185750508651976001600160a01b03977f000000000000000000000000000000000000000000000000000000000000000089169350909150895b898110610bee5750505050505460801c16610b3360018060801b0391601254906128dc565b16906102ca93848102948186041481151715610bdb576826b4bd9110dce800000293808504670de0b6b3a76400001490151715610bc85791610b8f939185899488519687958694859363048e609360e21b855233908501612b1c565b03927f0000000000000000000000000000000000000000000000000000000000000000165af191821561077c5791610963575091610721565b634e487b7160e01b855260119052602484fd5b634e487b7160e01b865260118252602486fd5b610bf88183612b67565b51158015610d03575b610cf3578d610c108284612b67565b51908d51916331a9108f60e11b83528a83015281602481885afa908115610ce9578f8d92610caf575b50508933911603610c9f578d8b60ff8e8c610c548688612b67565b5116928381526009948581528282209089835252205416610c8f578c528e528b8b20838c528e528b8b20805460ff1916861790558401610b0e565b8d516322ce1a0760e01b81528a90fd5b8b51637c75aa6f60e11b81528890fd5b90809250813d8311610ce2575b610cc6818361257b565b81010312610cde57610cd79061278b565b388f610c39565b8b80fd5b503d610cbc565b8d513d8e823e3d90fd5b8b5163f1640ae160e01b81528890fd5b506102bc610d118284612b67565b5111610c01565b81358152908201908201610acf565b99979650505091809350851015610d42575b50505050610721565b9091929395503384526011875284842054918215610e205733855260118852858520859055546012546001600160801b0392610d819260801c166128dc565b855163048e609360e21b8152339481019490945216602483015262050910604483015260648201528481608481857f00000000000000000000000000000000000000000000000000000000000000006001600160a01b03165af191821561077c5791610df3575b509138808080610d39565b90508381813d8311610e19575b610e0a818361257b565b81010312610348575138610de8565b503d610e00565b8551637c75aa6f60e11b81528490fd5b875163477383f360e01b81528590fd5b8751636f312cbd60e01b81528590fd5b503461021057602036600319011261021057610e6a6124cd565b60018060a01b0390610e8382845460081c163314612740565b1660018060a01b0319600754161760075580f35b50903461030a578060031936011261030a5760209160ff9082906001600160a01b03610ec16124cd565b168152600985528181206024358252855220541690519015158152f35b50903461030a578160031936011261030a57517f00000000000000000000000000000000000000000000000000000000000000006001600160a01b03168152602090f35b503461021057602036600319011261021057610f76610f61600184818060a01b039485610f4d6124cd565b16815260066020522093845416930161259c565b83519384938452806020850152830190612642565b0390f35b50903461030a578160031936011261030a576020906012549051908152f35b50913461039157610fa936612716565b93909192610fb5612898565b815163682ee63560e11b8152818101859052906001600160a01b037f000000000000000000000000000000000000000000000000000000000000000081169160246080858281875afa948515611549578a95611517575b5084516001600160801b0399908a164211611507578360055460c01c9816998a8c5260209560068752888d209261105660018b519561104a8761254a565b8981541687520161259c565b9188850192835287855116156114f75761109f8f918e8b918a8f5180958194829363430c208160e01b84523390840160209093929193604081019460018060a01b031681520152565b03915afa9182156114ec57916114b3575b50156114a3576110d98c8f8c908e828e015193825260088d528282209082528c5220549061281f565b90808210611493578061148b5750975b670de0b6b3a7640000891061147b578961115f928f926111378f8f8c938f8f928b948a5260088452888a20908a528352611127888a209182546128dc565b905501511696600554168d612842565b9651169051908a848a85519788958694859363d6d7d52560e01b85528401528c830190612642565b03925af191821561146f57819261143f575b501561142f578c85888e8c519283809263313ce56760e01b82525afa918215611424576111ac9594939260ff92906113f7575b501692612b9b565b9081156113e75786516370a0823160e01b80825230858301529091868382818f5afa9283156113dd578d936113ae575b5088516323b872dd60e01b8882015233828201523060448201526064808201869052815260a081016001600160401b0381118282101761139a57916112288e9594928a948d528661293d565b8a5180958193825230898301525afa8015611390578c90611361575b61124e925061281f565b0361135357831561134557845163a9059cbb60e01b8152339181019182526020820185905294939291829186919082908c90829060400103927f0000000000000000000000000000000000000000000000000000000000000000165af1801561133b576112e7575b7fad9eeb6ac9c439fe4e01f186d3a05d5d27ec1f2449bd4042ec40224b5894b8dd935082519586528501523393a480f35b8084813d8311611334575b6112fc818361257b565b81010312610a615761132e7fad9eeb6ac9c439fe4e01f186d3a05d5d27ec1f2449bd4042ec40224b5894b8dd94612855565b506112b6565b503d6112f2565b83513d8a823e3d90fd5b84516307a830cd60e41b8152fd5b845163312d207360e11b8152fd5b508582813d8311611389575b611377818361257b565b810103126103485761124e9151611244565b503d61136d565b88513d8e823e3d90fd5b82604188634e487b7160e01b600052526000fd5b9092508681813d83116113d6575b6113c6818361257b565b81010312610348575191386111dc565b503d6113bc565b89513d8f823e3d90fd5b8651631111df8f60e21b81528390fd5b61141791508a3d8c1161141d575b61140f818361257b565b81019061287f565b386111a4565b503d611405565b8b51903d90823e3d90fd5b885163312d207360e11b81528590fd5b90506114619150893d8b11611468575b611459818361257b565b810190612862565b9038611171565b503d61144f565b508951903d90823e3d90fd5b8951631e52aa2160e11b81528690fd5b9050976110e9565b8a51637901a5a760e11b81528790fd5b895163ea8e4eb560e01b81528690fd5b90508881813d83116114e5575b6114ca818361257b565b810103126114e1576114db90612855565b386110b0565b8e80fd5b503d6114c0565b8c51903d90823e3d90fd5b8a51637b72c17b60e01b81528790fd5b8651637676819d60e01b81528390fd5b61153991955060803d8111611542575b611531818361257b565b8101906127b3565b9050933861100c565b503d611527565b86513d8c823e3d90fd5b5091903461039157602091826003193601126116fe5780356001600160401b0381116116fa5761158690369083016126c8565b93909260018060a01b036115a181885460081c163314612740565b60028054146116b8576002805560079581875416156116a857875b8181106115cc5788600160025580f35b826115e06115db83858b612919565b612929565b1690838954169185516370a0823160e01b8152308982015260249388828681865afa918d831561169d57908a93929192611665575b50885163a9059cbb60e01b938101939093526001600160a01b0316948201948552602085015260019361165f929061165a90839060400103601f19810184528361257b565b61293d565b016115bc565b83819794929593503d8311611696575b61167f818361257b565b810103126103485793519093918891906001611615565b503d611675565b8951903d90823e3d90fd5b82516335d21c3560e21b81528590fd5b505162461bcd60e51b815291820152601f60248201527f5265656e7472616e637947756172643a207265656e7472616e742063616c6c00604482015260649150fd5b8480fd5b8380fd5b5091346103915782600319360112610391575490516001600160a01b03909116815260209150f35b50903461030a57602036600319011261030a5760209181906001600160a01b036117526124cd565b1681526011845220549051908152f35b50903461030a578160031936011261030a5760209060055460c01c9051908152f35b50903461030a578160031936011261030a579054905160089190911c6001600160a01b03168152602090f35b50903461030a578160031936011261030a57517f00000000000000000000000000000000000000000000000000000000000000006001600160a01b03168152602090f35b50903461030a578160031936011261030a576020905160088152f35b50903461030a578160031936011261030a576020906001600160401b0360055460801c169051908152f35b50823461030a57608036600319011261030a573660841161030a5761186d60018060a01b03835460081c163314612740565b80825b82811061189f57837fd2c1eba6c6a6a1904598e9fe121812b21f0f0b774e18d805b654591ee976d08f8180a180f35b6001906020833593019281600b015501611870565b509134610391576118c436612716565b845163682ee63560e11b8152808501849052909491939192916001600160a01b0391906080826024817f000000000000000000000000000000000000000000000000000000000000000087165afa918215611af7578892611ad5575b5081516001600160801b039081164211611ac65783600554971692838a5260209560068752878b209561196660018a519861195a8a61254a565b838154168a520161259c565b918888019283528188511615611ab657838a0151908d5260088952898d2060c08c901c8e528952898d205461199a9161281f565b9a808c10611aa65780611aa057508a995b670de0b6b3a76400008b1061147b579189916119cf866119f598979695168d612842565b9851169051908251808098819463eeb8a8d360e01b83528d8a8401526024830190612642565b03915afa938415611a9657908792918c95611a73575b50820151169387519283809263313ce56760e01b82525afa908115611a6957611a449493929160ff9160609b91611a5257501692612b9b565b908251948552840152820152f35b6114179150873d891161141d5761140f818361257b565b86513d8b823e3d90fd5b83919550611a8d908a3d8c1161146857611459818361257b565b90509490611a0b565b88513d8d823e3d90fd5b996119ab565b8951637901a5a760e11b81528690fd5b8951637b72c17b60e01b81528690fd5b508451637676819d60e01b8152fd5b611aee91925060803d811161154257611531818361257b565b90509038611920565b85513d8a823e3d90fd5b50903461030a578160031936011261030a57517f00000000000000000000000000000000000000000000000000000000000000006001600160a01b03168152602090f35b50919034610391576060366003190112610391576001600160401b03908235602435838111611c6a57611b7b90369086016126c8565b90936044359081116105f457611b9490369087016126c8565b909560018060a01b0393611baf858a5460081c163314612740565b828403611c5b5760018103611c08575050865b828110611bd3575050505050505080f35b80611be2611c0392848a612919565b3585611bf26115db84888c612919565b168a52600a602052868a205561290a565b611bc2565b14611c17575b50505050505080f35b865b828110611c265750611c0e565b80611c35611c5692848a612919565b3585611c456115db84888c612919565b168a526011602052868a205561290a565b611c19565b50845163f1640ae160e01b8152fd5b8580fd5b50903461030a578160031936011261030a5760ff602092541690519015158152f35b509134610391578260031936011261039157600154916001600160a01b03918284169133839003611d165750508354918260081c167f8be0079c531659141344cd1fd0a4f28419497f9722a3daafe3b4186f6b6457e08580a3610100600160a81b031916600882901b610100600160a81b03161782556001600160a01b03191660015580f35b906020606492519162461bcd60e51b8352820152602060248201527f4f776e61626c653a2063616c6c657220213d2070656e64696e67206f776e65726044820152fd5b50903461030a57602036600319011261030a5760209181906001600160a01b03611d816124cd565b168152600a845220549051908152f35b503461021057602036600319011261021057823592831015610210575060ff610201602093612682565b50903461030a578160031936011261030a5760209051620509108152f35b50903461030a578160031936011261030a5760055490516001600160801b039091168152602090f35b5034610210578060031936011261021057508051600091600354611e2581612510565b808452600191808316908115611ebb5750600114611e61575b5050611e4f82610f7694038361257b565b51918291602083526020830190612642565b6003600090815260209550917fc2575a0e9e593c00f959f8c92f12db2869c3395a3b0502d05e2516446f71f85b5b828410611ea857505050820190920191611e4f82611e3e565b8054868501880152928601928101611e8f565b610f769650611e4f93506020915091859260ff191682840152151560051b8201019450611e3e565b5080918334611f845782600319360112611f84577f00000000000000000000000000000000000000000000000000000000000000006001600160a01b0316803b15611f7f578390828451809681936307ab01c760e21b83525af18015611f7557611f4b578380f35b6001600160401b038311611f625750528180808380f35b634e487b7160e01b845260419052602483fd5b82513d86823e3d90fd5b505050fd5b5050fd5b50903461030a578060031936011261030a57611fa26124cd565b6001600160401b03906024358281116116fa57611fc290369087016124e3565b95909160018060a01b0390611fde82885460081c163314612740565b82546001600160a01b03191691169081178255928611612151575060036120058154612510565b601f811161210c575b5084601f871160011461207f579561050092918187987f9b50fe786df475d101ca932bdbd73b94ccd27d5ca5677a776bca1d6dc52afb769891612074575b5060001983831b1c1916600183901b1790555b845194859485528060208601528401916128e9565b90508301353861204c565b81865260208087209190601f1989169088905b8282106120f457505091610500949391897f9b50fe786df475d101ca932bdbd73b94ccd27d5ca5677a776bca1d6dc52afb76999a94106120dc575b5050600182811b01905561205f565b84013560001984841b60f8161c1916905538806120cd565b80600185968294968a01358155019501930190612092565b81865260208620601f880160051c81019160208910612147575b601f0160051c01905b81811061213c575061200e565b86815560010161212f565b9091508190612126565b634e487b7160e01b855260419052602484fd5b50903461030a578160031936011261030a57602090516102ca8152f35b50913461039157826003193601126103915760055490601254906121b26001600160401b0392838560801c166128dc565b4210612369574260801b67ffffffffffffffff60801b169267ffffffffffffffff60801b198116841760c01c928314610bdb57819060019460018060801b038095876001600160401b0360c01b910160c01b16921617178060055560c01c1461235d575b60018060a01b0381541690848051809363d6d7d52560e01b825288602097888685015281906003549061224882612510565b9182602488015286828216918260001461233a5750506001146122f8575b50509083809203925af19182156122ee57869087936122cc575b50156113535750907f3ef85928df9ae51bdb3eb4c00ec73b92b82307f319ac1b029de14796a0972609929116928360018060801b0319600554161790816005555193845260c01c92a280f35b90506122e6919250853d871161146857611459818361257b565b919038612280565b85513d88823e3d90fd5b600384528a84208493508b905b83851061231c575050505083016044018380612266565b80548b8601604401528d98508a97508e95509301928b908201612305565b90959450604492508593915060ff191682840152151560051b8201019192612266565b62093a80601255612216565b8351636fed7d8560e01b8152fd5b5091346103915781600319360112610391576020928291358152600884528181206024358252845220549051908152f35b50919034610391576060366003190112610391576123c46124cd565b906024359283151584036116fa57604435918215158303611c6a5760018060a01b03946123f886885460081c163314612740565b156124b657848416928315908115916124ae575b50156124735750508354928360081c167f8be0079c531659141344cd1fd0a4f28419497f9722a3daafe3b4186f6b6457e08580a3610100600160a81b031990911660089190911b610100600160a81b0316178155600180546001600160a01b031916905580f35b906020606492519162461bcd60e51b835282015260156024820152744f776e61626c653a207a65726f206164647265737360581b6044820152fd5b90503861240c565b5050501660018060a01b0319600154161760015580f35b600435906001600160a01b038216820361034857565b9181601f84011215610348578235916001600160401b038311610348576020838186019501011161034857565b90600182811c92168015612540575b602083101461252a57565b634e487b7160e01b600052602260045260246000fd5b91607f169161251f565b604081019081106001600160401b0382111761256557604052565b634e487b7160e01b600052604160045260246000fd5b90601f801991011681019081106001600160401b0382111761256557604052565b90604051918260008254926125b084612510565b90818452600194858116908160001461261f57506001146125dc575b50506125da9250038361257b565b565b9093915060005260209081600020936000915b8183106126075750506125da935082010138806125cc565b855488840185015294850194879450918301916125ef565b9150506125da94506020925060ff191682840152151560051b82010138806125cc565b919082519283825260005b84811061266e575050826000602080949584010152601f8019910116010190565b60208183018101518483018201520161264d565b90600482101561269a57601f8260051c600f01921690565b634e487b7160e01b600052603260045260246000fd5b90600482101561269a57601f8260051c601001921690565b9181601f84011215610348578235916001600160401b038311610348576020808501948460051b01011161034857565b346103485760003660031901126103485760206040516207a1208152f35b606090600319011261034857600435906024356001600160a01b0381168103610348579060443590565b1561274757565b606460405162461bcd60e51b815260206004820152602060248201527f4f776e61626c653a2063616c6c6572206973206e6f7420746865206f776e65726044820152fd5b51906001600160a01b038216820361034857565b51906001600160801b038216820361034857565b8092910391608083126103485760606127cb8261278b565b93601f190112610348576040519060608201908282106001600160401b03831117612565576060916040526128026020820161279f565b83526128106040820161279f565b60208401520151604082015290565b9190820391821161282c57565b634e487b7160e01b600052601160045260246000fd5b8181029291811591840414171561282c57565b5190811515820361034857565b919082604091031261034857602061287983612855565b92015190565b90816020910312610348575160ff811681036103485790565b60ff600054166128a457565b60405162461bcd60e51b815260206004820152601060248201526f14185d5cd8589b194e881c185d5cd95960821b6044820152606490fd5b9190820180921161282c57565b908060209392818452848401376000828201840152601f01601f1916010190565b600019811461282c5760010190565b919081101561269a5760051b0190565b356001600160a01b03811681036103485790565b60018060a01b0316906040516129528161254a565b6020928382527f5361666545524332303a206c6f772d6c6576656c2063616c6c206661696c6564848301526000808486829651910182855af13d15612a75573d916001600160401b038311612a6157906129cc939291604051926129bf88601f19601f840116018561257b565b83523d868885013e612a7f565b90815190838215928315612a3f575b5050509050156129e85750565b6084906040519062461bcd60e51b82526004820152602a60248201527f5361666545524332303a204552433230206f7065726174696f6e20646964206e6044820152691bdd081cdd58d8d9595960b21b6064820152fd5b848092939450010312610210575081612a589101612855565b803883816129db565b634e487b7160e01b85526041600452602485fd5b906129cc92916060915b91929015612ae15750815115612a93575090565b3b15612a9c5790565b60405162461bcd60e51b815260206004820152601d60248201527f416464726573733a2063616c6c20746f206e6f6e2d636f6e74726163740000006044820152606490fd5b825190915015612af45750805190602001fd5b60405162461bcd60e51b815260206004820152908190612b18906024830190612642565b0390fd5b6001600160a01b0390911681526001600160801b0390911660208201526207a1206040820152606081019190915260800190565b6001600160401b0381116125655760051b60200190565b805182101561269a5760209160051b010190565b8115612b85570490565b634e487b7160e01b600052601260045260246000fd5b91908015612c1b57612bb3612bba91612bc094612b7b565b9182612c2d565b9061281f565b9060006012821115612bf35750601119810190811161282c57905b604d821161282c57612bf091600a0a90612b7b565b90565b906012039060128211612c07575090612bdb565b634e487b7160e01b81526011600452602490fd5b604051636023516560e01b8152600490fd5b9060001981830981830291828083109203918083039214612c8b57620f42409081831015610348577fde8f6cefed634549b62c77574f722e1ac57e23f24d8fd5cb790fb65668c26139940990828211900360fa1b910360061c170290565b5050620f42409150049056fea2646970667358221220edba5ad60d3374f8dfb783025a013c1a128bdfd94b3113b1a6177b70c903c5ab64736f6c63430008130033",
  "linkReferences": {},
  "deployedLinkReferences": {}
}