{
  "_format": "hh-sol-artifact-1",
  "contractName": "AOTAP",
  "sourceName": "contracts/option-airdrop/aoTAP.sol",
  "abi": [
    {
      "inputs": [
        {
          "internalType": "address",
          "name": "_owner",
          "type": "address"
        }
      ],
      "stateMutability": "nonpayable",
      "type": "constructor"
    },
    {
      "inputs": [],
      "name": "NotAuthorized",
      "type": "error"
    },
    {
      "inputs": [],
      "name": "OnlyBroker",
      "type": "error"
    },
    {
      "inputs": [],
      "name": "OnlyOnce",
      "type": "error"
    },
    {
      "anonymous": false,
      "inputs": [
        {
          "indexed": true,
          "internalType": "address",
          "name": "owner",
          "type": "address"
        },
        {
          "indexed": true,
          "internalType": "address",
          "name": "approved",
          "type": "address"
        },
        {
          "indexed": true,
          "internalType": "uint256",
          "name": "tokenId",
          "type": "uint256"
        }
      ],
      "name": "Approval",
      "type": "event"
    },
    {
      "anonymous": false,
      "inputs": [
        {
          "indexed": true,
          "internalType": "address",
          "name": "owner",
          "type": "address"
        },
        {
          "indexed": true,
          "internalType": "address",
          "name": "operator",
          "type": "address"
        },
        {
          "indexed": false,
          "internalType": "bool",
          "name": "approved",
          "type": "bool"
        }
      ],
      "name": "ApprovalForAll",
      "type": "event"
    },
    {
      "anonymous": false,
      "inputs": [
        {
          "indexed": true,
          "internalType": "address",
          "name": "from",
          "type": "address"
        },
        {
          "indexed": true,
          "internalType": "uint256",
          "name": "tokenId",
          "type": "uint256"
        },
        {
          "components": [
            {
              "internalType": "uint128",
              "name": "expiry",
              "type": "uint128"
            },
            {
              "internalType": "uint128",
              "name": "discount",
              "type": "uint128"
            },
            {
              "internalType": "uint256",
              "name": "amount",
              "type": "uint256"
            }
          ],
          "indexed": true,
          "internalType": "struct AirdropTapOption",
          "name": "option",
          "type": "tuple"
        }
      ],
      "name": "Burn",
      "type": "event"
    },
    {
      "anonymous": false,
      "inputs": [
        {
          "indexed": true,
          "internalType": "address",
          "name": "to",
          "type": "address"
        },
        {
          "indexed": true,
          "internalType": "uint256",
          "name": "tokenId",
          "type": "uint256"
        },
        {
          "components": [
            {
              "internalType": "uint128",
              "name": "expiry",
              "type": "uint128"
            },
            {
              "internalType": "uint128",
              "name": "discount",
              "type": "uint128"
            },
            {
              "internalType": "uint256",
              "name": "amount",
              "type": "uint256"
            }
          ],
          "indexed": true,
          "internalType": "struct AirdropTapOption",
          "name": "option",
          "type": "tuple"
        }
      ],
      "name": "Mint",
      "type": "event"
    },
    {
      "anonymous": false,
      "inputs": [
        {
          "indexed": true,
          "internalType": "address",
          "name": "previousOwner",
          "type": "address"
        },
        {
          "indexed": true,
          "internalType": "address",
          "name": "newOwner",
          "type": "address"
        }
      ],
      "name": "OwnershipTransferred",
      "type": "event"
    },
    {
      "anonymous": false,
      "inputs": [
        {
          "indexed": true,
          "internalType": "address",
          "name": "from",
          "type": "address"
        },
        {
          "indexed": true,
          "internalType": "address",
          "name": "to",
          "type": "address"
        },
        {
          "indexed": true,
          "internalType": "uint256",
          "name": "tokenId",
          "type": "uint256"
        }
      ],
      "name": "Transfer",
      "type": "event"
    },
    {
      "inputs": [],
      "name": "DOMAIN_SEPARATOR",
      "outputs": [
        {
          "internalType": "bytes32",
          "name": "",
          "type": "bytes32"
        }
      ],
      "stateMutability": "view",
      "type": "function"
    },
    {
      "inputs": [
        {
          "internalType": "address",
          "name": "to",
          "type": "address"
        },
        {
          "internalType": "uint256",
          "name": "tokenId",
          "type": "uint256"
        }
      ],
      "name": "approve",
      "outputs": [],
      "stateMutability": "nonpayable",
      "type": "function"
    },
    {
      "inputs": [
        {
          "internalType": "uint256",
          "name": "_tokenId",
          "type": "uint256"
        }
      ],
      "name": "attributes",
      "outputs": [
        {
          "internalType": "address",
          "name": "",
          "type": "address"
        },
        {
          "components": [
            {
              "internalType": "uint128",
              "name": "expiry",
              "type": "uint128"
            },
            {
              "internalType": "uint128",
              "name": "discount",
              "type": "uint128"
            },
            {
              "internalType": "uint256",
              "name": "amount",
              "type": "uint256"
            }
          ],
          "internalType": "struct AirdropTapOption",
          "name": "",
          "type": "tuple"
        }
      ],
      "stateMutability": "view",
      "type": "function"
    },
    {
      "inputs": [
        {
          "internalType": "address",
          "name": "owner",
          "type": "address"
        }
      ],
      "name": "balanceOf",
      "outputs": [
        {
          "internalType": "uint256",
          "name": "",
          "type": "uint256"
        }
      ],
      "stateMutability": "view",
      "type": "function"
    },
    {
      "inputs": [
        {
          "internalType": "bytes[]",
          "name": "calls",
          "type": "bytes[]"
        },
        {
          "internalType": "bool",
          "name": "revertOnFail",
          "type": "bool"
        }
      ],
      "name": "batch",
      "outputs": [],
      "stateMutability": "payable",
      "type": "function"
    },
    {
      "inputs": [],
      "name": "broker",
      "outputs": [
        {
          "internalType": "address",
          "name": "",
          "type": "address"
        }
      ],
      "stateMutability": "view",
      "type": "function"
    },
    {
      "inputs": [],
      "name": "brokerClaim",
      "outputs": [],
      "stateMutability": "nonpayable",
      "type": "function"
    },
    {
      "inputs": [
        {
          "internalType": "uint256",
          "name": "_tokenId",
          "type": "uint256"
        }
      ],
      "name": "burn",
      "outputs": [],
      "stateMutability": "nonpayable",
      "type": "function"
    },
    {
      "inputs": [],
      "name": "claimOwnership",
      "outputs": [],
      "stateMutability": "nonpayable",
      "type": "function"
    },
    {
      "inputs": [
        {
          "internalType": "uint256",
          "name": "_tokenId",
          "type": "uint256"
        }
      ],
      "name": "exists",
      "outputs": [
        {
          "internalType": "bool",
          "name": "",
          "type": "bool"
        }
      ],
      "stateMutability": "view",
      "type": "function"
    },
    {
      "inputs": [
        {
          "internalType": "uint256",
          "name": "tokenId",
          "type": "uint256"
        }
      ],
      "name": "getApproved",
      "outputs": [
        {
          "internalType": "address",
          "name": "",
          "type": "address"
        }
      ],
      "stateMutability": "view",
      "type": "function"
    },
    {
      "inputs": [
        {
          "internalType": "address",
          "name": "owner",
          "type": "address"
        },
        {
          "internalType": "address",
          "name": "operator",
          "type": "address"
        }
      ],
      "name": "isApprovedForAll",
      "outputs": [
        {
          "internalType": "bool",
          "name": "",
          "type": "bool"
        }
      ],
      "stateMutability": "view",
      "type": "function"
    },
    {
      "inputs": [
        {
          "internalType": "address",
          "name": "_spender",
          "type": "address"
        },
        {
          "internalType": "uint256",
          "name": "_tokenId",
          "type": "uint256"
        }
      ],
      "name": "isApprovedOrOwner",
      "outputs": [
        {
          "internalType": "bool",
          "name": "",
          "type": "bool"
        }
      ],
      "stateMutability": "view",
      "type": "function"
    },
    {
      "inputs": [
        {
          "internalType": "address",
          "name": "_to",
          "type": "address"
        },
        {
          "internalType": "uint128",
          "name": "_expiry",
          "type": "uint128"
        },
        {
          "internalType": "uint128",
          "name": "_discount",
          "type": "uint128"
        },
        {
          "internalType": "uint256",
          "name": "_amount",
          "type": "uint256"
        }
      ],
      "name": "mint",
      "outputs": [
        {
          "internalType": "uint256",
          "name": "tokenId",
          "type": "uint256"
        }
      ],
      "stateMutability": "nonpayable",
      "type": "function"
    },
    {
      "inputs": [],
      "name": "mintedAOTAP",
      "outputs": [
        {
          "internalType": "uint256",
          "name": "",
          "type": "uint256"
        }
      ],
      "stateMutability": "view",
      "type": "function"
    },
    {
      "inputs": [],
      "name": "name",
      "outputs": [
        {
          "internalType": "string",
          "name": "",
          "type": "string"
        }
      ],
      "stateMutability": "view",
      "type": "function"
    },
    {
      "inputs": [
        {
          "internalType": "address",
          "name": "owner",
          "type": "address"
        }
      ],
      "name": "nonces",
      "outputs": [
        {
          "internalType": "uint256",
          "name": "",
          "type": "uint256"
        }
      ],
      "stateMutability": "view",
      "type": "function"
    },
    {
      "inputs": [
        {
          "internalType": "uint256",
          "name": "",
          "type": "uint256"
        }
      ],
      "name": "options",
      "outputs": [
        {
          "internalType": "uint128",
          "name": "expiry",
          "type": "uint128"
        },
        {
          "internalType": "uint128",
          "name": "discount",
          "type": "uint128"
        },
        {
          "internalType": "uint256",
          "name": "amount",
          "type": "uint256"
        }
      ],
      "stateMutability": "view",
      "type": "function"
    },
    {
      "inputs": [],
      "name": "owner",
      "outputs": [
        {
          "internalType": "address",
          "name": "",
          "type": "address"
        }
      ],
      "stateMutability": "view",
      "type": "function"
    },
    {
      "inputs": [
        {
          "internalType": "uint256",
          "name": "tokenId",
          "type": "uint256"
        }
      ],
      "name": "ownerOf",
      "outputs": [
        {
          "internalType": "address",
          "name": "",
          "type": "address"
        }
      ],
      "stateMutability": "view",
      "type": "function"
    },
    {
      "inputs": [],
      "name": "pendingOwner",
      "outputs": [
        {
          "internalType": "address",
          "name": "",
          "type": "address"
        }
      ],
      "stateMutability": "view",
      "type": "function"
    },
    {
      "inputs": [
        {
          "internalType": "address",
          "name": "spender",
          "type": "address"
        },
        {
          "internalType": "uint256",
          "name": "tokenId",
          "type": "uint256"
        },
        {
          "internalType": "uint256",
          "name": "deadline",
          "type": "uint256"
        },
        {
          "internalType": "uint8",
          "name": "v",
          "type": "uint8"
        },
        {
          "internalType": "bytes32",
          "name": "r",
          "type": "bytes32"
        },
        {
          "internalType": "bytes32",
          "name": "s",
          "type": "bytes32"
        }
      ],
      "name": "permit",
      "outputs": [],
      "stateMutability": "nonpayable",
      "type": "function"
    },
    {
      "inputs": [
        {
          "internalType": "address",
          "name": "from",
          "type": "address"
        },
        {
          "internalType": "address",
          "name": "to",
          "type": "address"
        },
        {
          "internalType": "uint256",
          "name": "tokenId",
          "type": "uint256"
        }
      ],
      "name": "safeTransferFrom",
      "outputs": [],
      "stateMutability": "nonpayable",
      "type": "function"
    },
    {
      "inputs": [
        {
          "internalType": "address",
          "name": "from",
          "type": "address"
        },
        {
          "internalType": "address",
          "name": "to",
          "type": "address"
        },
        {
          "internalType": "uint256",
          "name": "tokenId",
          "type": "uint256"
        },
        {
          "internalType": "bytes",
          "name": "data",
          "type": "bytes"
        }
      ],
      "name": "safeTransferFrom",
      "outputs": [],
      "stateMutability": "nonpayable",
      "type": "function"
    },
    {
      "inputs": [
        {
          "internalType": "address",
          "name": "operator",
          "type": "address"
        },
        {
          "internalType": "bool",
          "name": "approved",
          "type": "bool"
        }
      ],
      "name": "setApprovalForAll",
      "outputs": [],
      "stateMutability": "nonpayable",
      "type": "function"
    },
    {
      "inputs": [
        {
          "internalType": "uint256",
          "name": "_tokenId",
          "type": "uint256"
        },
        {
          "internalType": "string",
          "name": "_tokenURI",
          "type": "string"
        }
      ],
      "name": "setTokenURI",
      "outputs": [],
      "stateMutability": "nonpayable",
      "type": "function"
    },
    {
      "inputs": [
        {
          "internalType": "bytes4",
          "name": "interfaceId",
          "type": "bytes4"
        }
      ],
      "name": "supportsInterface",
      "outputs": [
        {
          "internalType": "bool",
          "name": "",
          "type": "bool"
        }
      ],
      "stateMutability": "view",
      "type": "function"
    },
    {
      "inputs": [],
      "name": "symbol",
      "outputs": [
        {
          "internalType": "string",
          "name": "",
          "type": "string"
        }
      ],
      "stateMutability": "view",
      "type": "function"
    },
    {
      "inputs": [
        {
          "internalType": "uint256",
          "name": "_tokenId",
          "type": "uint256"
        }
      ],
      "name": "tokenURI",
      "outputs": [
        {
          "internalType": "string",
          "name": "",
          "type": "string"
        }
      ],
      "stateMutability": "view",
      "type": "function"
    },
    {
      "inputs": [
        {
          "internalType": "uint256",
          "name": "",
          "type": "uint256"
        }
      ],
      "name": "tokenURIs",
      "outputs": [
        {
          "internalType": "string",
          "name": "",
          "type": "string"
        }
      ],
      "stateMutability": "view",
      "type": "function"
    },
    {
      "inputs": [
        {
          "internalType": "address",
          "name": "from",
          "type": "address"
        },
        {
          "internalType": "address",
          "name": "to",
          "type": "address"
        },
        {
          "internalType": "uint256",
          "name": "tokenId",
          "type": "uint256"
        }
      ],
      "name": "transferFrom",
      "outputs": [],
      "stateMutability": "nonpayable",
      "type": "function"
    },
    {
      "inputs": [
        {
          "internalType": "address",
          "name": "newOwner",
          "type": "address"
        },
        {
          "internalType": "bool",
          "name": "direct",
          "type": "bool"
        },
        {
          "internalType": "bool",
          "name": "renounce",
          "type": "bool"
        }
      ],
      "name": "transferOwnership",
      "outputs": [],
      "stateMutability": "nonpayable",
      "type": "function"
    }
  ],
  "bytecode": "0x610140346200049a57601f196200279638819003601f81810184168501946001600160401b0394939092838710868811176200048457808492604098895283396020938491810103126200049a57516001600160a01b03811692908390036200049a5785519162000070836200049f565b6012835281830171041697264726f70204f7074696f6e205441560741b938482528851946200009f866200049f565b6012865284860152885192620000b5846200049f565b60058452640616f5441560dc1b85850152895197620000d4896200049f565b600191828a52868a0195603160f81b875288518c811162000484576000998a548681811c9116801562000479575b8b821014620004655790818584931162000412575b508a90858311600114620003af578c92620003a3575b5050600019600383901b1c191690851b1789555b8051928c84116200038f5784548581811c9116801562000384575b8a8210146200037057908184869594931162000319575b5089928411600114620002b857508992620002ac575b5050600019600383901b1c191690821b1790555b51902094519020908460e052610100968288524660a0528051918201927f8b73c3c69bb8fe3d512ecc4cf759cc79239f7b179b0ffacaa9a75d522b39400f968785528284015260608301524660808301523060a083015260a0825260c08201968288109088111762000298578690525190206080523060c0526101209283526008546001600160a01b03199081169133907f8be0079c531659141344cd1fd0a4f28419497f9722a3daafe3b4186f6b6457e08180a3331617176008556122da9283620004bc8439608051836121c3015260a0518361227e015260c05183612194015260e0518361221201525182612238015251816121ef0152f35b634e487b7160e01b84526041600452602484fd5b01519050388062000189565b858b52898b20869590939291168b5b8b828210620003025750508411620002e8575b505050811b0190556200019d565b015160001960f88460031b161c19169055388080620002da565b8385015186558897909501949384019301620002c7565b9091929350858b52898b208480870160051c8201928c881062000366575b9187968992969594930160051c01915b8281106200035757505062000173565b8d815587965088910162000347565b9250819262000337565b634e487b7160e01b8b52602260045260248bfd5b90607f16906200015c565b634e487b7160e01b8a52604160045260248afd5b0151905038806200012d565b908c91878995168380528d80852094905b828210620003fa5750508411620003e0575b505050811b01895562000141565b015160001960f88460031b161c19169055388080620003d2565b8385015186558b979095019493840193018e620003c0565b9091508b80528a8c208580850160051c8201928d86106200045b575b918991869594930160051c01915b8281106200044c57505062000117565b8e81558594508991016200043c565b925081926200042e565b634e487b7160e01b8c52602260045260248cfd5b90607f169062000102565b634e487b7160e01b600052604160045260246000fd5b600080fd5b604081019081106001600160401b03821117620004845760405256fe6080604052600436101561001257600080fd5b60003560e01c806301ffc9a71461021257806306fdde031461020d578063078dfbe714610208578063081812fc14610203578063095ea7b3146101fe5780631239824c146101f9578063162094c4146101f45780631eac071c146101ef57806323b872dd146101ea5780633644e515146101e5578063409e2205146101e057806342842e0e146101db57806342966c68146101d6578063430c2081146101d15780634e71e0c8146101cc5780634f558e79146101c75780636352211e146101c25780636c8b703f1461019057806370a08231146101bd5780637ac2ff7b146101b85780637ecebe00146101b35780638da5cb5b146101ae57806395d89b41146101a9578063a22cb465146101a4578063a287c3401461019f578063abff01101461019a578063b88d4fde14610195578063c87b56dd14610190578063d05dcc6a1461018b578063d2423b5114610186578063e30c3978146101815763e985e9c51461017c57600080fd5b6116b5565b61168e565b611592565b6114df565b610f41565b611456565b611413565b6113f5565b61130c565b611267565b611240565b611206565b6110b8565b611017565b610e3c565b610e07565b610d2c565b610cfb565b610bd9565b610bb1565b610b68565b610b45565b610b1c565b610aa2565b610962565b6106f1565b6105d3565b6105a4565b610425565b6102f8565b61022e565b6001600160e01b031981160361022957565b600080fd5b3461022957602036600319011261022957602060043561024d81610217565b63ffffffff60e01b166380ac58cd60e01b811490811561028b575b811561027a575b506040519015158152f35b6301ffc9a760e01b1490503861026f565b635b5e139f60e01b81149150610268565b60005b8381106102af5750506000910152565b818101518382015260200161029f565b906020916102d88151809281855285808601910161029c565b601f01601f1916010190565b9060206102f59281815201906102bf565b90565b34610229576000806003193601126103d8576040519080805461031a81610e5a565b808552916001918083169081156103ae5750600114610354575b6103508561034481870382610f1f565b604051918291826102e4565b0390f35b80809450527f290decd9548b62a8d60345a988386fc84ba6bc95484008f6362f93160ef3e5635b82841061039657505050810160200161034482610350610334565b8054602085870181019190915290930192810161037b565b8695506103509693506020925061034494915060ff191682840152151560051b8201019293610334565b80fd5b600435906001600160a01b038216820361022957565b602435906001600160a01b038216820361022957565b60243590811515820361022957565b60443590811515820361022957565b346102295760603660031901126102295761043e6103db565b610446610407565b9061044f610416565b916001600160a01b03908160085416330361056057156105475781169182159081159161053f575b50156104fa576104e3916104a26104966008546001600160a01b031690565b6001600160a01b031690565b7f8be0079c531659141344cd1fd0a4f28419497f9722a3daafe3b4186f6b6457e0600080a36001600160a01b03166001600160a01b03196008541617600855565b6104f86001600160a01b031960095416600955565b005b60405162461bcd60e51b815260206004820152601560248201527f4f776e61626c653a207a65726f206164647265737300000000000000000000006044820152606490fd5b905038610477565b9150166001600160a01b03196009541617600955600080f35b606460405162461bcd60e51b815260206004820152602060248201527f4f776e61626c653a2063616c6c6572206973206e6f7420746865206f776e65726044820152fd5b346102295760203660031901126102295760206105c260043561190f565b6001600160a01b0360405191168152f35b34610229576040366003190112610229576105ec6103db565b6024356105f88161187b565b916001600160a01b038084168091831614610676576104f89361062591331490811561062a575b5061189d565b611c50565b61067091506106699061065133916001600160a01b03166000526005602052604060002090565b906001600160a01b0316600052602052604060002090565b5460ff1690565b3861061f565b60405162461bcd60e51b815260206004820152602160248201527f4552433732313a20617070726f76616c20746f2063757272656e74206f776e656044820152603960f91b6064820152608490fd5b602435906001600160801b038216820361022957565b604435906001600160801b038216820361022957565b346102295760803660031901126102295761070a6103db565b6107126106c5565b9061071b6106db565b906001600160a01b039182600b541633036109505761073b600a54611717565b9081600a556040519061074d82610ecb565b600094858352841691821561090c577ff85fc5db92230761a679201cf357af068b25f3ca445054bcf465e9bc61383920966108cc859361086f61086a6108fa95876103509b818b8f6107c46107bf6107bb8560005260026020526001600160a01b0360406000205416151590565b1590565b611ec4565b6107ea6107bf6107bb8560005260026020526001600160a01b0360406000205416151590565b610807846001600160a01b03166000526003602052604060002090565b6001815401905561084184610826856000526002602052604060002090565b906001600160a01b03166001600160a01b0319825416179055565b7fddf252ad1be2c89b69c2b068fc378daa952ba7f163c4a11628f55a4df523b3ef8180a4611d24565b6119dc565b6108a361088686600052600c602052604060002090565b9384906001600160801b03166001600160801b0319825416179055565b82546001600160801b031660809190911b6fffffffffffffffffffffffffffffffff1916178255565b606435600182018190556040805192546001600160801b038116845260801c60208401528201526060902090565b9160405196868897a482526020820190565b606460405162461bcd60e51b815260206004820152602060248201527f4552433732313a206d696e7420746f20746865207a65726f20616464726573736044820152fd5b6040516301fe46d760e21b8152600490fd5b34610229576040366003190112610229576024600435813567ffffffffffffffff80821161022957366023830112156102295781600401359081116102295736848284010111610229576109b68333611a43565b15610a90576000928352602093600d855260408420926109e0836109da8654610e5a565b86611e70565b8495601f8411600114610a1f575094849583949593610a12575b5050508160011b916000199060031b1c191617905580f35b01013590503880806109fa565b91601f19841696610a3586600052602060002090565b9387905b898210610a7657505084600196979810610a5a575b50505050811b01905580f35b60001960f88660031b161c199201013516905538808080610a4e565b806001849786839596890101358155019601920190610a39565b60405163ea8e4eb560e01b8152600490fd5b3461022957600036600319011261022957600b546001600160a01b038116610ad5576001600160a01b0319163317600b55005b60405163041d6a9760e51b8152600490fd5b6060906003190112610229576001600160a01b0390600435828116810361022957916024359081168103610229579060443590565b34610229576104f8610b2d36610ae7565b91610b40610b3b8433611a43565b611951565b611b1e565b34610229576000366003190112610229576020610b6061218a565b604051908152f35b3461022957602036600319011261022957600435600052600c6020526060604060002060018154910154604051916001600160801b038116835260801c60208301526040820152f35b34610229576104f8610bc236610ae7565b9060405192610bd084610ecb565b600084526119b3565b3461022957602036600319011261022957600435610bf78133611a43565b15610a905780610c0e6001600160a01b039261187b565b5080610c198161187b565b600093849183835260046020526040832082198154169055168082526003602052604082206000198154019055610c6d610c5d846000526002602052604060002090565b80546001600160a01b0319169055565b7fddf252ad1be2c89b69c2b068fc378daa952ba7f163c4a11628f55a4df523b3ef8280a4610cd2610ca882600052600c602052604060002090565b60609060016040519180546001600160801b038116845260801c6020840152015460408201522090565b90337f0f3b9092d3439c7f5326f5648434eeaea09fe55519bc9331f2a1dc2bc1e542458480a480f35b34610229576040366003190112610229576020610d22610d196103db565b60243590611a43565b6040519015158152f35b34610229576000806003193601126103d8576001600160a01b0360095416803303610dc35780610dab91610d6b6104966008546001600160a01b031690565b7f8be0079c531659141344cd1fd0a4f28419497f9722a3daafe3b4186f6b6457e08580a36001600160a01b03166001600160a01b03196008541617600855565b610dc06001600160a01b031960095416600955565b80f35b606460405162461bcd60e51b815260206004820152602060248201527f4f776e61626c653a2063616c6c657220213d2070656e64696e67206f776e65726044820152fd5b34610229576020366003190112610229576020610d2260043560005260026020526001600160a01b0360406000205416151590565b346102295760203660031901126102295760206105c260043561187b565b90600182811c92168015610e8a575b6020831014610e7457565b634e487b7160e01b600052602260045260246000fd5b91607f1691610e69565b634e487b7160e01b600052604160045260246000fd5b6060810190811067ffffffffffffffff821117610ec657604052565b610e94565b6020810190811067ffffffffffffffff821117610ec657604052565b6040810190811067ffffffffffffffff821117610ec657604052565b60c0810190811067ffffffffffffffff821117610ec657604052565b90601f8019910116810190811067ffffffffffffffff821117610ec657604052565b3461022957602080600319360112610229576000906004358252600d81526040822060405183819490835490610f7682610e5a565b94858552600192878482169182600014610ff3575050600114610fb7575b505050610fa392500383610f1f565b6103506040519282849384528301906102bf565b869350819291528282205b858310610fdb575050610fa39350820101388080610f94565b80548389018501528794508693909201918101610fc2565b935094505050610fa394915060ff191682840152151560051b820101388080610f94565b34610229576020366003190112610229576001600160a01b036110386103db565b168015611061576000526003602052610350604060002054604051918291829190602083019252565b60405162461bcd60e51b815260206004820152602960248201527f4552433732313a2061646472657373207a65726f206973206e6f7420612076616044820152683634b21037bbb732b960b91b6064820152608490fd5b346102295760c0366003190112610229576110d16103db565b602435604435916064359260ff84168403610229578042116111c1576104f8936111ae610625926111886111048761187b565b9361119661112e866001600160a01b03166000526006602052604060002090815491600183019055565b9360405193849160208301968c8c89909493926080926001600160a01b0360a08401977f49ecf333e5b8c95c40fdafc95c1ad136e8914a8fb55e9dc8bb01eaa83a2df9ad8552166020840152604083015260608201520152565b03601f198101845283610f1f565b6111a960a4359360843593519020612142565b611f5c565b6001600160a01b03908116911614611f10565b60405162461bcd60e51b815260206004820152601e60248201527f4552433732315065726d69743a206578706972656420646561646c696e6500006044820152606490fd5b34610229576020366003190112610229576001600160a01b036112276103db565b1660005260066020526020604060002054604051908152f35b346102295760003660031901126102295760206001600160a01b0360085416604051908152f35b34610229576000806003193601126103d8576040519080600180549161128c83610e5a565b808652928281169081156103ae57506001146112b2576103508561034481870382610f1f565b92508083527fb10e2d527612073b26eecdfd717e6a320cf44b4afac2b0732d9fcbe2b7fa0cf65b8284106112f457505050810160200161034482610350610334565b805460208587018101919091529093019281016112d9565b34610229576040366003190112610229576113256103db565b61132d610407565b6001600160a01b038216918233146113b0578161136d61137e923360005260056020526040600020906001600160a01b0316600052602052604060002090565b9060ff801983541691151516179055565b604051901515815233907f17307eab39ab6107e8899845ad3d59bd9653f200f220920489ca2b5937696c3190602090a3005b60405162461bcd60e51b815260206004820152601960248201527f4552433732313a20617070726f766520746f2063616c6c6572000000000000006044820152606490fd5b34610229576000366003190112610229576020600a54604051908152f35b346102295760003660031901126102295760206001600160a01b03600b5416604051908152f35b67ffffffffffffffff8111610ec657601f01601f191660200190565b346102295760803660031901126102295761146f6103db565b6114776103f1565b6064359167ffffffffffffffff83116102295736602384011215610229578260040135916114a48361143a565b926114b26040519485610f1f565b80845236602482870101116102295760208160009260246104f898018388013785010152604435916119b3565b3461022957602036600319011261022957600435604090600082805161150481610eaa565b82815282602082015201526115188161187b565b90600052600c6020526103508260002092600181519461153786610eaa565b80546001600160801b038116875260801c6020870152015481850152519283928390929160406060916001600160a01b0360808501961684526001600160801b03808251166020860152602082015116828501520151910152565b6040806003193601126102295767ffffffffffffffff600480358281116102295736602382011215610229578082013592808411610229576024600594368282881b8601011161022957946115e5610407565b9336819003604219019160005b8881106115fb57005b8481831b840101358481121561022957830185810135908782116102295760440181360381136102295760009182916116388e518093819361173c565b0390305af461164561174a565b901580611687575b611660575061165b90611717565b6115f2565b8861168361166e8d9361177a565b925162461bcd60e51b815292839283016102e4565b0390fd5b508761164d565b346102295760003660031901126102295760206001600160a01b0360095416604051908152f35b3461022957604036600319011261022957602060ff61170b6116d56103db565b6001600160a01b036116e56103f1565b9116600052600584526040600020906001600160a01b0316600052602052604060002090565b54166040519015158152f35b60001981146117265760010190565b634e487b7160e01b600052601160045260246000fd5b908092918237016000815290565b3d15611775573d9061175b8261143a565b916117696040519384610f1f565b82523d6000602084013e565b606090565b60448151106117f5576004810151810190602081602484019303126102295760248101519067ffffffffffffffff82116102295701816043820112156102295760248101516117c88161143a565b926117d66040519485610f1f565b81845260448284010111610229576102f591604460208501910161029c565b5060405161180281610ee7565b601d81527f5472616e73616374696f6e2072657665727465642073696c656e746c79000000602082015290565b1561183657565b60405162461bcd60e51b815260206004820152601860248201527f4552433732313a20696e76616c696420746f6b656e20494400000000000000006044820152606490fd5b60005260026020526001600160a01b03604060002054166102f581151561182f565b156118a457565b60405162461bcd60e51b815260206004820152603d60248201527f4552433732313a20617070726f76652063616c6c6572206973206e6f7420746f60448201527f6b656e206f776e6572206f7220617070726f76656420666f7220616c6c0000006064820152608490fd5b6119376119328260005260026020526001600160a01b0360406000205416151590565b61182f565b60005260046020526001600160a01b036040600020541690565b1561195857565b60405162461bcd60e51b815260206004820152602d60248201527f4552433732313a2063616c6c6572206973206e6f7420746f6b656e206f776e6560448201526c1c881bdc88185c1c1c9bdd9959609a1b6064820152608490fd5b916119da939161086a936119ca610b3b8433611a43565b6119d5838383611b1e565b611e2c565b565b156119e357565b60405162461bcd60e51b815260206004820152603260248201527f4552433732313a207472616e7366657220746f206e6f6e20455243373231526560448201527131b2b4bb32b91034b6b83632b6b2b73a32b960711b6064820152608490fd5b6001600160a01b0380611a558461187b565b169281831692848414948515611a8b575b50508315611a75575b50505090565b611a819192935061190f565b1614388080611a6f565b60ff92955090611aba9160005260056020526040600020906001600160a01b0316600052602052604060002090565b5416923880611a66565b15611acb57565b60405162461bcd60e51b815260206004820152602560248201527f4552433732313a207472616e736665722066726f6d20696e636f72726563742060448201526437bbb732b960d91b6064820152608490fd5b611b4290611b2b8461187b565b6001600160a01b0382811693909182168414611ac4565b8316928315611bff57611b98611bd892611b6885611b626104968a61187b565b14611ac4565b611b7f610c5d886000526004602052604060002090565b6001600160a01b03166000526003602052604060002090565b6000198154019055611bbd816001600160a01b03166000526003602052604060002090565b60018154019055610826856000526002602052604060002090565b7fddf252ad1be2c89b69c2b068fc378daa952ba7f163c4a11628f55a4df523b3ef600080a4565b60405162461bcd60e51b8152602060048201526024808201527f4552433732313a207472616e7366657220746f20746865207a65726f206164646044820152637265737360e01b6064820152608490fd5b600082815260046020526040902080546001600160a01b0319166001600160a01b0383161790556001600160a01b0380611c898461187b565b169116907f8c5be1e5ebec7d5bd14f71427d1e84f3dd0314c0f7b2291e5b200ac8c7c3b925600080a4565b9081602091031261022957516102f581610217565b6102f593926001600160a01b0360809316825260006020830152604082015281606082015201906102bf565b90926102f594936080936001600160a01b038092168452166020830152604082015281606082015201906102bf565b909190803b15611e2457611d5e6020916001600160a01b03936000604051958680958194630a85bd0160e11b9a8b84523360048501611cc9565b0393165af160009181611df4575b50611de657611d7961174a565b80519081611de15760405162461bcd60e51b815260206004820152603260248201527f4552433732313a207472616e7366657220746f206e6f6e20455243373231526560448201527131b2b4bb32b91034b6b83632b6b2b73a32b960711b6064820152608490fd5b602001fd5b6001600160e01b0319161490565b611e1691925060203d8111611e1d575b611e0e8183610f1f565b810190611cb4565b9038611d6c565b503d611e04565b505050600190565b92909190823b15611e6757611d5e9260209260006001600160a01b03604051809781968295630a85bd0160e11b9b8c85523360048601611cf5565b50505050600190565b90601f8111611e7e57505050565b600091825260208220906020601f850160051c83019410611eba575b601f0160051c01915b828110611eaf57505050565b818155600101611ea3565b9092508290611e9a565b15611ecb57565b60405162461bcd60e51b815260206004820152601c60248201527f4552433732313a20746f6b656e20616c7265616479206d696e746564000000006044820152606490fd5b15611f1757565b60405162461bcd60e51b815260206004820152601f60248201527f4552433732315065726d69743a20696e76616c6964207369676e6174757265006044820152606490fd5b916102f59391611f6b936120b3565b919091611f93565b60051115611f7d57565b634e487b7160e01b600052602160045260246000fd5b611f9c81611f73565b80611fa45750565b611fad81611f73565b60018103611ffa5760405162461bcd60e51b815260206004820152601860248201527f45434453413a20696e76616c6964207369676e617475726500000000000000006044820152606490fd5b61200381611f73565b600281036120505760405162461bcd60e51b815260206004820152601f60248201527f45434453413a20696e76616c6964207369676e6174757265206c656e677468006044820152606490fd5b8061205c600392611f73565b1461206357565b60405162461bcd60e51b815260206004820152602260248201527f45434453413a20696e76616c6964207369676e6174757265202773272076616c604482015261756560f01b6064820152608490fd5b9291907f7fffffffffffffffffffffffffffffff5d576e7357a4501ddfe92f46681b20a083116121365791608094939160ff602094604051948552168484015260408301526060820152600093849182805260015afa156121295781516001600160a01b03811615612123579190565b50600190565b50604051903d90823e3d90fd5b50505050600090600390565b61214a61218a565b9060405190602082019261190160f01b845260228301526042820152604281526080810181811067ffffffffffffffff821117610ec65760405251902090565b6001600160a01b037f00000000000000000000000000000000000000000000000000000000000000001630148061227b575b156121e5577f000000000000000000000000000000000000000000000000000000000000000090565b60405160208101907f000000000000000000000000000000000000000000000000000000000000000082527f000000000000000000000000000000000000000000000000000000000000000060408201527f000000000000000000000000000000000000000000000000000000000000000060608201524660808201523060a082015260a0815261227581610f03565b51902090565b507f000000000000000000000000000000000000000000000000000000000000000046146121bc56fea2646970667358221220adbc3d7edef926333d49672ac85b1d1ffe3520bd3a3e7c8d3e1029ec901cd05264736f6c63430008120033",
  "linkReferences": {},
  "deployedLinkReferences": {}
}