{
  "_format": "hh-sol-artifact-1",
  "contractName": "TapiocaOptionLiquidityProvision",
  "sourceName": "contracts/options/TapiocaOptionLiquidityProvision.sol",
  "abi": [
    {
      "inputs": [
        {
          "internalType": "address",
          "name": "_yieldBox",
          "type": "address"
        },
        {
          "internalType": "address",
          "name": "_owner",
          "type": "address"
        }
      ],
      "stateMutability": "nonpayable",
      "type": "constructor"
    },
    {
      "inputs": [],
      "name": "AlreadyActive",
      "type": "error"
    },
    {
      "inputs": [],
      "name": "AlreadyRegistered",
      "type": "error"
    },
    {
      "inputs": [],
      "name": "AssetIdNotValid",
      "type": "error"
    },
    {
      "inputs": [],
      "name": "DuplicateAssetId",
      "type": "error"
    },
    {
      "inputs": [],
      "name": "InvalidShortString",
      "type": "error"
    },
    {
      "inputs": [],
      "name": "InvalidSingularity",
      "type": "error"
    },
    {
      "inputs": [],
      "name": "LockDurationNotValid",
      "type": "error"
    },
    {
      "inputs": [],
      "name": "LockNotExpired",
      "type": "error"
    },
    {
      "inputs": [],
      "name": "NotAuthorized",
      "type": "error"
    },
    {
      "inputs": [],
      "name": "NotRegistered",
      "type": "error"
    },
    {
      "inputs": [],
      "name": "PositionExpired",
      "type": "error"
    },
    {
      "inputs": [],
      "name": "SharesNotValid",
      "type": "error"
    },
    {
      "inputs": [],
      "name": "SingularityInRescueMode",
      "type": "error"
    },
    {
      "inputs": [],
      "name": "SingularityNotActive",
      "type": "error"
    },
    {
      "inputs": [
        {
          "internalType": "string",
          "name": "str",
          "type": "string"
        }
      ],
      "name": "StringTooLong",
      "type": "error"
    },
    {
      "anonymous": false,
      "inputs": [
        {
          "indexed": false,
          "internalType": "address",
          "name": "sgl",
          "type": "address"
        }
      ],
      "name": "ActivateSGLPoolRescue",
      "type": "event"
    },
    {
      "anonymous": false,
      "inputs": [
        {
          "indexed": true,
          "internalType": "address",
          "name": "owner",
          "type": "address"
        },
        {
          "indexed": true,
          "internalType": "address",
          "name": "approved",
          "type": "address"
        },
        {
          "indexed": true,
          "internalType": "uint256",
          "name": "tokenId",
          "type": "uint256"
        }
      ],
      "name": "Approval",
      "type": "event"
    },
    {
      "anonymous": false,
      "inputs": [
        {
          "indexed": true,
          "internalType": "address",
          "name": "owner",
          "type": "address"
        },
        {
          "indexed": true,
          "internalType": "address",
          "name": "operator",
          "type": "address"
        },
        {
          "indexed": false,
          "internalType": "bool",
          "name": "approved",
          "type": "bool"
        }
      ],
      "name": "ApprovalForAll",
      "type": "event"
    },
    {
      "anonymous": false,
      "inputs": [
        {
          "indexed": true,
          "internalType": "address",
          "name": "to",
          "type": "address"
        },
        {
          "indexed": true,
          "internalType": "uint128",
          "name": "sglAssetID",
          "type": "uint128"
        },
        {
          "components": [
            {
              "internalType": "uint128",
              "name": "sglAssetID",
              "type": "uint128"
            },
            {
              "internalType": "uint128",
              "name": "ybShares",
              "type": "uint128"
            },
            {
              "internalType": "uint128",
              "name": "lockTime",
              "type": "uint128"
            },
            {
              "internalType": "uint128",
              "name": "lockDuration",
              "type": "uint128"
            }
          ],
          "indexed": false,
          "internalType": "struct LockPosition",
          "name": "lockPosition",
          "type": "tuple"
        }
      ],
      "name": "Burn",
      "type": "event"
    },
    {
      "anonymous": false,
      "inputs": [],
      "name": "EIP712DomainChanged",
      "type": "event"
    },
    {
      "anonymous": false,
      "inputs": [
        {
          "indexed": true,
          "internalType": "address",
          "name": "to",
          "type": "address"
        },
        {
          "indexed": true,
          "internalType": "uint128",
          "name": "sglAssetID",
          "type": "uint128"
        },
        {
          "components": [
            {
              "internalType": "uint128",
              "name": "sglAssetID",
              "type": "uint128"
            },
            {
              "internalType": "uint128",
              "name": "ybShares",
              "type": "uint128"
            },
            {
              "internalType": "uint128",
              "name": "lockTime",
              "type": "uint128"
            },
            {
              "internalType": "uint128",
              "name": "lockDuration",
              "type": "uint128"
            }
          ],
          "indexed": false,
          "internalType": "struct LockPosition",
          "name": "lockPosition",
          "type": "tuple"
        }
      ],
      "name": "Mint",
      "type": "event"
    },
    {
      "anonymous": false,
      "inputs": [
        {
          "indexed": true,
          "internalType": "address",
          "name": "previousOwner",
          "type": "address"
        },
        {
          "indexed": true,
          "internalType": "address",
          "name": "newOwner",
          "type": "address"
        }
      ],
      "name": "OwnershipTransferred",
      "type": "event"
    },
    {
      "anonymous": false,
      "inputs": [
        {
          "indexed": false,
          "internalType": "address",
          "name": "account",
          "type": "address"
        }
      ],
      "name": "Paused",
      "type": "event"
    },
    {
      "anonymous": false,
      "inputs": [
        {
          "indexed": false,
          "internalType": "address",
          "name": "sgl",
          "type": "address"
        },
        {
          "indexed": false,
          "internalType": "uint256",
          "name": "assetID",
          "type": "uint256"
        }
      ],
      "name": "RegisterSingularity",
      "type": "event"
    },
    {
      "anonymous": false,
      "inputs": [
        {
          "indexed": true,
          "internalType": "address",
          "name": "sgl",
          "type": "address"
        },
        {
          "indexed": false,
          "internalType": "uint256",
          "name": "poolWeight",
          "type": "uint256"
        }
      ],
      "name": "SetSGLPoolWeight",
      "type": "event"
    },
    {
      "anonymous": false,
      "inputs": [
        {
          "indexed": true,
          "internalType": "address",
          "name": "from",
          "type": "address"
        },
        {
          "indexed": true,
          "internalType": "address",
          "name": "to",
          "type": "address"
        },
        {
          "indexed": true,
          "internalType": "uint256",
          "name": "tokenId",
          "type": "uint256"
        }
      ],
      "name": "Transfer",
      "type": "event"
    },
    {
      "anonymous": false,
      "inputs": [
        {
          "indexed": false,
          "internalType": "address",
          "name": "account",
          "type": "address"
        }
      ],
      "name": "Unpaused",
      "type": "event"
    },
    {
      "anonymous": false,
      "inputs": [
        {
          "indexed": false,
          "internalType": "address",
          "name": "sgl",
          "type": "address"
        },
        {
          "indexed": false,
          "internalType": "uint256",
          "name": "assetID",
          "type": "uint256"
        }
      ],
      "name": "UnregisterSingularity",
      "type": "event"
    },
    {
      "anonymous": false,
      "inputs": [
        {
          "indexed": false,
          "internalType": "uint256",
          "name": "totalSingularityPoolWeights",
          "type": "uint256"
        }
      ],
      "name": "UpdateTotalSingularityPoolWeights",
      "type": "event"
    },
    {
      "inputs": [],
      "name": "DOMAIN_SEPARATOR",
      "outputs": [
        {
          "internalType": "bytes32",
          "name": "",
          "type": "bytes32"
        }
      ],
      "stateMutability": "view",
      "type": "function"
    },
    {
      "inputs": [
        {
          "internalType": "contract IERC20",
          "name": "singularity",
          "type": "address"
        }
      ],
      "name": "activateSGLPoolRescue",
      "outputs": [],
      "stateMutability": "nonpayable",
      "type": "function"
    },
    {
      "inputs": [
        {
          "internalType": "contract IERC20",
          "name": "",
          "type": "address"
        }
      ],
      "name": "activeSingularities",
      "outputs": [
        {
          "internalType": "uint256",
          "name": "sglAssetID",
          "type": "uint256"
        },
        {
          "internalType": "uint256",
          "name": "totalDeposited",
          "type": "uint256"
        },
        {
          "internalType": "uint256",
          "name": "poolWeight",
          "type": "uint256"
        },
        {
          "internalType": "bool",
          "name": "rescue",
          "type": "bool"
        }
      ],
      "stateMutability": "view",
      "type": "function"
    },
    {
      "inputs": [
        {
          "internalType": "address",
          "name": "to",
          "type": "address"
        },
        {
          "internalType": "uint256",
          "name": "tokenId",
          "type": "uint256"
        }
      ],
      "name": "approve",
      "outputs": [],
      "stateMutability": "nonpayable",
      "type": "function"
    },
    {
      "inputs": [
        {
          "internalType": "address",
          "name": "owner",
          "type": "address"
        }
      ],
      "name": "balanceOf",
      "outputs": [
        {
          "internalType": "uint256",
          "name": "",
          "type": "uint256"
        }
      ],
      "stateMutability": "view",
      "type": "function"
    },
    {
      "inputs": [
        {
          "internalType": "bytes[]",
          "name": "calls",
          "type": "bytes[]"
        },
        {
          "internalType": "bool",
          "name": "revertOnFail",
          "type": "bool"
        }
      ],
      "name": "batch",
      "outputs": [],
      "stateMutability": "payable",
      "type": "function"
    },
    {
      "inputs": [],
      "name": "claimOwnership",
      "outputs": [],
      "stateMutability": "nonpayable",
      "type": "function"
    },
    {
      "inputs": [],
      "name": "eip712Domain",
      "outputs": [
        {
          "internalType": "bytes1",
          "name": "fields",
          "type": "bytes1"
        },
        {
          "internalType": "string",
          "name": "name",
          "type": "string"
        },
        {
          "internalType": "string",
          "name": "version",
          "type": "string"
        },
        {
          "internalType": "uint256",
          "name": "chainId",
          "type": "uint256"
        },
        {
          "internalType": "address",
          "name": "verifyingContract",
          "type": "address"
        },
        {
          "internalType": "bytes32",
          "name": "salt",
          "type": "bytes32"
        },
        {
          "internalType": "uint256[]",
          "name": "extensions",
          "type": "uint256[]"
        }
      ],
      "stateMutability": "view",
      "type": "function"
    },
    {
      "inputs": [
        {
          "internalType": "uint256",
          "name": "tokenId",
          "type": "uint256"
        }
      ],
      "name": "getApproved",
      "outputs": [
        {
          "internalType": "address",
          "name": "",
          "type": "address"
        }
      ],
      "stateMutability": "view",
      "type": "function"
    },
    {
      "inputs": [
        {
          "internalType": "uint256",
          "name": "_tokenId",
          "type": "uint256"
        }
      ],
      "name": "getLock",
      "outputs": [
        {
          "components": [
            {
              "internalType": "uint128",
              "name": "sglAssetID",
              "type": "uint128"
            },
            {
              "internalType": "uint128",
              "name": "ybShares",
              "type": "uint128"
            },
            {
              "internalType": "uint128",
              "name": "lockTime",
              "type": "uint128"
            },
            {
              "internalType": "uint128",
              "name": "lockDuration",
              "type": "uint128"
            }
          ],
          "internalType": "struct LockPosition",
          "name": "",
          "type": "tuple"
        }
      ],
      "stateMutability": "view",
      "type": "function"
    },
    {
      "inputs": [],
      "name": "getSingularities",
      "outputs": [
        {
          "internalType": "uint256[]",
          "name": "",
          "type": "uint256[]"
        }
      ],
      "stateMutability": "view",
      "type": "function"
    },
    {
      "inputs": [],
      "name": "getSingularityPools",
      "outputs": [
        {
          "components": [
            {
              "internalType": "uint256",
              "name": "sglAssetID",
              "type": "uint256"
            },
            {
              "internalType": "uint256",
              "name": "totalDeposited",
              "type": "uint256"
            },
            {
              "internalType": "uint256",
              "name": "poolWeight",
              "type": "uint256"
            },
            {
              "internalType": "bool",
              "name": "rescue",
              "type": "bool"
            }
          ],
          "internalType": "struct SingularityPool[]",
          "name": "",
          "type": "tuple[]"
        }
      ],
      "stateMutability": "view",
      "type": "function"
    },
    {
      "inputs": [
        {
          "internalType": "uint256",
          "name": "_sglAssetId",
          "type": "uint256"
        }
      ],
      "name": "getTotalPoolDeposited",
      "outputs": [
        {
          "internalType": "uint256",
          "name": "shares",
          "type": "uint256"
        },
        {
          "internalType": "uint256",
          "name": "amount",
          "type": "uint256"
        }
      ],
      "stateMutability": "view",
      "type": "function"
    },
    {
      "inputs": [
        {
          "internalType": "address",
          "name": "owner",
          "type": "address"
        },
        {
          "internalType": "address",
          "name": "operator",
          "type": "address"
        }
      ],
      "name": "isApprovedForAll",
      "outputs": [
        {
          "internalType": "bool",
          "name": "",
          "type": "bool"
        }
      ],
      "stateMutability": "view",
      "type": "function"
    },
    {
      "inputs": [
        {
          "internalType": "address",
          "name": "_spender",
          "type": "address"
        },
        {
          "internalType": "uint256",
          "name": "_tokenId",
          "type": "uint256"
        }
      ],
      "name": "isApprovedOrOwner",
      "outputs": [
        {
          "internalType": "bool",
          "name": "",
          "type": "bool"
        }
      ],
      "stateMutability": "view",
      "type": "function"
    },
    {
      "inputs": [
        {
          "internalType": "address",
          "name": "_to",
          "type": "address"
        },
        {
          "internalType": "contract IERC20",
          "name": "_singularity",
          "type": "address"
        },
        {
          "internalType": "uint128",
          "name": "_lockDuration",
          "type": "uint128"
        },
        {
          "internalType": "uint128",
          "name": "_ybShares",
          "type": "uint128"
        }
      ],
      "name": "lock",
      "outputs": [
        {
          "internalType": "uint256",
          "name": "tokenId",
          "type": "uint256"
        }
      ],
      "stateMutability": "nonpayable",
      "type": "function"
    },
    {
      "inputs": [
        {
          "internalType": "uint256",
          "name": "",
          "type": "uint256"
        }
      ],
      "name": "lockPositions",
      "outputs": [
        {
          "internalType": "uint128",
          "name": "sglAssetID",
          "type": "uint128"
        },
        {
          "internalType": "uint128",
          "name": "ybShares",
          "type": "uint128"
        },
        {
          "internalType": "uint128",
          "name": "lockTime",
          "type": "uint128"
        },
        {
          "internalType": "uint128",
          "name": "lockDuration",
          "type": "uint128"
        }
      ],
      "stateMutability": "view",
      "type": "function"
    },
    {
      "inputs": [],
      "name": "name",
      "outputs": [
        {
          "internalType": "string",
          "name": "",
          "type": "string"
        }
      ],
      "stateMutability": "view",
      "type": "function"
    },
    {
      "inputs": [
        {
          "internalType": "address",
          "name": "owner",
          "type": "address"
        }
      ],
      "name": "nonces",
      "outputs": [
        {
          "internalType": "uint256",
          "name": "",
          "type": "uint256"
        }
      ],
      "stateMutability": "view",
      "type": "function"
    },
    {
      "inputs": [],
      "name": "owner",
      "outputs": [
        {
          "internalType": "address",
          "name": "",
          "type": "address"
        }
      ],
      "stateMutability": "view",
      "type": "function"
    },
    {
      "inputs": [
        {
          "internalType": "uint256",
          "name": "tokenId",
          "type": "uint256"
        }
      ],
      "name": "ownerOf",
      "outputs": [
        {
          "internalType": "address",
          "name": "",
          "type": "address"
        }
      ],
      "stateMutability": "view",
      "type": "function"
    },
    {
      "inputs": [],
      "name": "paused",
      "outputs": [
        {
          "internalType": "bool",
          "name": "",
          "type": "bool"
        }
      ],
      "stateMutability": "view",
      "type": "function"
    },
    {
      "inputs": [],
      "name": "pendingOwner",
      "outputs": [
        {
          "internalType": "address",
          "name": "",
          "type": "address"
        }
      ],
      "stateMutability": "view",
      "type": "function"
    },
    {
      "inputs": [
        {
          "internalType": "address",
          "name": "spender",
          "type": "address"
        },
        {
          "internalType": "uint256",
          "name": "tokenId",
          "type": "uint256"
        },
        {
          "internalType": "uint256",
          "name": "deadline",
          "type": "uint256"
        },
        {
          "internalType": "uint8",
          "name": "v",
          "type": "uint8"
        },
        {
          "internalType": "bytes32",
          "name": "r",
          "type": "bytes32"
        },
        {
          "internalType": "bytes32",
          "name": "s",
          "type": "bytes32"
        }
      ],
      "name": "permit",
      "outputs": [],
      "stateMutability": "nonpayable",
      "type": "function"
    },
    {
      "inputs": [
        {
          "internalType": "contract IERC20",
          "name": "singularity",
          "type": "address"
        },
        {
          "internalType": "uint256",
          "name": "assetID",
          "type": "uint256"
        },
        {
          "internalType": "uint256",
          "name": "weight",
          "type": "uint256"
        }
      ],
      "name": "registerSingularity",
      "outputs": [],
      "stateMutability": "nonpayable",
      "type": "function"
    },
    {
      "inputs": [
        {
          "internalType": "address",
          "name": "from",
          "type": "address"
        },
        {
          "internalType": "address",
          "name": "to",
          "type": "address"
        },
        {
          "internalType": "uint256",
          "name": "tokenId",
          "type": "uint256"
        }
      ],
      "name": "safeTransferFrom",
      "outputs": [],
      "stateMutability": "nonpayable",
      "type": "function"
    },
    {
      "inputs": [
        {
          "internalType": "address",
          "name": "from",
          "type": "address"
        },
        {
          "internalType": "address",
          "name": "to",
          "type": "address"
        },
        {
          "internalType": "uint256",
          "name": "tokenId",
          "type": "uint256"
        },
        {
          "internalType": "bytes",
          "name": "data",
          "type": "bytes"
        }
      ],
      "name": "safeTransferFrom",
      "outputs": [],
      "stateMutability": "nonpayable",
      "type": "function"
    },
    {
      "inputs": [
        {
          "internalType": "address",
          "name": "operator",
          "type": "address"
        },
        {
          "internalType": "bool",
          "name": "approved",
          "type": "bool"
        }
      ],
      "name": "setApprovalForAll",
      "outputs": [],
      "stateMutability": "nonpayable",
      "type": "function"
    },
    {
      "inputs": [
        {
          "internalType": "contract IERC20",
          "name": "singularity",
          "type": "address"
        },
        {
          "internalType": "uint256",
          "name": "weight",
          "type": "uint256"
        }
      ],
      "name": "setSGLPoolWEight",
      "outputs": [],
      "stateMutability": "nonpayable",
      "type": "function"
    },
    {
      "inputs": [
        {
          "internalType": "uint256",
          "name": "",
          "type": "uint256"
        }
      ],
      "name": "sglAssetIDToAddress",
      "outputs": [
        {
          "internalType": "contract IERC20",
          "name": "",
          "type": "address"
        }
      ],
      "stateMutability": "view",
      "type": "function"
    },
    {
      "inputs": [
        {
          "internalType": "uint256",
          "name": "",
          "type": "uint256"
        }
      ],
      "name": "singularities",
      "outputs": [
        {
          "internalType": "uint256",
          "name": "",
          "type": "uint256"
        }
      ],
      "stateMutability": "view",
      "type": "function"
    },
    {
      "inputs": [
        {
          "internalType": "bytes4",
          "name": "interfaceId",
          "type": "bytes4"
        }
      ],
      "name": "supportsInterface",
      "outputs": [
        {
          "internalType": "bool",
          "name": "",
          "type": "bool"
        }
      ],
      "stateMutability": "view",
      "type": "function"
    },
    {
      "inputs": [],
      "name": "symbol",
      "outputs": [
        {
          "internalType": "string",
          "name": "",
          "type": "string"
        }
      ],
      "stateMutability": "view",
      "type": "function"
    },
    {
      "inputs": [],
      "name": "tokenCounter",
      "outputs": [
        {
          "internalType": "uint256",
          "name": "",
          "type": "uint256"
        }
      ],
      "stateMutability": "view",
      "type": "function"
    },
    {
      "inputs": [
        {
          "internalType": "uint256",
          "name": "tokenId",
          "type": "uint256"
        }
      ],
      "name": "tokenURI",
      "outputs": [
        {
          "internalType": "string",
          "name": "",
          "type": "string"
        }
      ],
      "stateMutability": "view",
      "type": "function"
    },
    {
      "inputs": [],
      "name": "totalSingularityPoolWeights",
      "outputs": [
        {
          "internalType": "uint256",
          "name": "",
          "type": "uint256"
        }
      ],
      "stateMutability": "view",
      "type": "function"
    },
    {
      "inputs": [
        {
          "internalType": "address",
          "name": "from",
          "type": "address"
        },
        {
          "internalType": "address",
          "name": "to",
          "type": "address"
        },
        {
          "internalType": "uint256",
          "name": "tokenId",
          "type": "uint256"
        }
      ],
      "name": "transferFrom",
      "outputs": [],
      "stateMutability": "nonpayable",
      "type": "function"
    },
    {
      "inputs": [
        {
          "internalType": "address",
          "name": "newOwner",
          "type": "address"
        },
        {
          "internalType": "bool",
          "name": "direct",
          "type": "bool"
        },
        {
          "internalType": "bool",
          "name": "renounce",
          "type": "bool"
        }
      ],
      "name": "transferOwnership",
      "outputs": [],
      "stateMutability": "nonpayable",
      "type": "function"
    },
    {
      "inputs": [
        {
          "internalType": "uint256",
          "name": "_tokenId",
          "type": "uint256"
        },
        {
          "internalType": "contract IERC20",
          "name": "_singularity",
          "type": "address"
        },
        {
          "internalType": "address",
          "name": "_to",
          "type": "address"
        }
      ],
      "name": "unlock",
      "outputs": [],
      "stateMutability": "nonpayable",
      "type": "function"
    },
    {
      "inputs": [
        {
          "internalType": "contract IERC20",
          "name": "singularity",
          "type": "address"
        }
      ],
      "name": "unregisterSingularity",
      "outputs": [],
      "stateMutability": "nonpayable",
      "type": "function"
    },
    {
      "inputs": [],
      "name": "yieldBox",
      "outputs": [
        {
          "internalType": "contract IYieldBox",
          "name": "",
          "type": "address"
        }
      ],
      "stateMutability": "view",
      "type": "function"
    }
  ],
  "bytecode": "0x610180346200058757601f62003eb138819003918201601f19168301916001600160401b038311848410176200058c57808492604094855283398101031262000587576200005b60206200005383620005be565b9201620005be565b604051916200006a83620005a2565b601f83527f546170696f63614f7074696f6e4c697175696469747950726f766973696f6e009283602082015260405193620000a585620005a2565b601f8552602085015260405192620000bd84620005a2565b600493848152630744f4c560e41b602082015260405195620000df87620005a2565b60018752603160f81b60208801528051906001600160401b0382116200057257600054600181811c9116801562000567575b602082101462000552579081601f849311620004f2575b50602090601f831160011462000476576000926200046a575b50508160011b916000199060031b1c1916176000555b8051906001600160401b0382116200045557600154600181811c911680156200044a575b602082101462000435579081601f849311620003d1575b50602090601f831160011462000357576000926200034b575b50508160011b916000199060031b1c1916176001555b620001cc82620005d3565b90610120918252620001de86620007b0565b9261014093845260208151910120958660e0526020815191012095610100968088524660a0526040519060208201927f8b73c3c69bb8fe3d512ecc4cf759cc79239f7b179b0ffacaa9a75d522b39400f8452604083015260608201524660808201523060a082015260a0815260c081019681881060018060401b03891117620003365750866040525190206080523060c052600a54903360007f8be0079c531659141344cd1fd0a4f28419497f9722a3daafe3b4186f6b6457e08180a36001600c556001600160a01b039094166101609081526001600160a81b031990911660089490941b610100600160a81b031693909317600a556135089485620009698639608051856133f1015260a051856134ac015260c051856133c2015260e0518561344001525184613466015251836113e501525182611411015251818181610e9501528181611a8701528181611bcb015261223a0152f35b604190634e487b7160e01b6000525260246000fd5b015190503880620001ab565b6001600090815260008051602062003e918339815191529350601f198516905b818110620003b857509084600195949392106200039e575b505050811b01600155620001c1565b015160001960f88460031b161c191690553880806200038f565b9293602060018192878601518155019501930162000377565b600160005290915060008051602062003e91833981519152601f840160051c810191602085106200042a575b90601f859493920160051c01905b8181106200041a575062000192565b600081558493506001016200040b565b9091508190620003fd565b602287634e487b7160e01b6000525260246000fd5b90607f16906200017b565b604186634e487b7160e01b6000525260246000fd5b01519050388062000141565b6000808052935060008051602062003e7183398151915291905b601f1984168510620004d6576001945083601f19811610620004bc575b505050811b0160005562000157565b015160001960f88460031b161c19169055388080620004ad565b8181015183556020948501946001909301929091019062000490565b6000805290915060008051602062003e71833981519152601f840160051c8101602085106200054a575b90849392915b601f830160051c820181106200053a57505062000128565b6000815585945060010162000522565b50806200051c565b602288634e487b7160e01b6000525260246000fd5b90607f169062000111565b604187634e487b7160e01b6000525260246000fd5b600080fd5b634e487b7160e01b600052604160045260246000fd5b604081019081106001600160401b038211176200058c57604052565b51906001600160a01b03821682036200058757565b805160209081811015620006705750601f8251116200060f57808251920151908083106200060057501790565b82600019910360031b1b161790565b90604051809263305a27a960e01b82528060048301528251908160248401526000935b82851062000656575050604492506000838284010152601f80199101168101030190fd5b848101820151868601604401529381019385935062000632565b906001600160401b0382116200058c57600654926001938481811c91168015620007a5575b838210146200078f57601f811162000755575b5081601f8411600114620006e95750928293918392600094620006dd575b50501b916000199060031b1c19161760065560ff90565b015192503880620006c6565b919083601f198116600660005284600020946000905b888383106200073a575050501062000720575b505050811b0160065560ff90565b015160001960f88460031b161c1916905538808062000712565b858701518855909601959485019487935090810190620006ff565b600660005284601f84600020920160051c820191601f860160051c015b82811062000782575050620006a8565b6000815501859062000772565b634e487b7160e01b600052602260045260246000fd5b90607f169062000695565b8051602090818110156200083e5750601f825111620007dd57808251920151908083106200060057501790565b90604051809263305a27a960e01b82528060048301528251908160248401526000935b82851062000824575050604492506000838284010152601f80199101168101030190fd5b848101820151868601604401529381019385935062000800565b906001600160401b0382116200058c57600754926001938481811c911680156200095d575b838210146200078f57601f811162000923575b5081601f8411600114620008b75750928293918392600094620008ab575b50501b916000199060031b1c19161760075560ff90565b01519250388062000894565b919083601f198116600760005284600020946000905b88838310620009085750505010620008ee575b505050811b0160075560ff90565b015160001960f88460031b161c19169055388080620008e0565b858701518855909601959485019487935090810190620008cd565b600760005284601f84600020920160051c820191601f860160051c015b8281106200095057505062000876565b6000815501859062000940565b90607f16906200086356fe6080604052600436101561001257600080fd5b60003560e01c806301ffc9a7146102a757806306fdde03146102a2578063078dfbe71461029d578063081812fc14610298578063095ea7b3146102935780631678e4f61461028e57806317655090146102895780631b7567101461028457806323b872dd1461027f5780633644e5151461027a5780633873b0cd1461027557806342842e0e14610270578063430c20811461026b5780634e71e0c8146102665780635c975abb146102615780635d9b9bba1461025c57806361b9cd1e146102575780636352211e1461025257806363ef67b11461024d57806370a08231146102485780637ac2ff7b146102435780637ecebe001461023e57806384b0196e1461023957806389fd3970146102345780638da5cb5b1461022f57806395d89b411461022a578063a22cb46514610225578063a7bffffc14610220578063ab9a70931461021b578063b222e09514610216578063b88d4fde14610211578063bf3497041461020c578063c5d1e7b614610207578063c87b56dd14610202578063d082e381146101fd578063d2423b51146101f8578063d487206f146101f3578063d68f4dd1146101ee578063de406577146101e9578063e30c3978146101e45763e985e9c5146101df57600080fd5b612285565b61225e565b61221a565b612172565b611fe3565b611ee7565b611ec9565b611e58565b611b26565b6119fe565b61196d565b61179b565b6116bb565b61168b565b61159a565b6114f5565b6114cb565b611496565b6113cc565b61135a565b611208565b611163565b611112565b6110a2565b610d7c565b610c7e565b610bfa565b610b14565b610adf565b610ab7565b610a52565b610a2f565b610a06565b610791565b61073e565b610720565b61062a565b6105fb565b6104aa565b610398565b6102c3565b6001600160e01b03198116036102be57565b600080fd5b346102be5760203660031901126102be5760206004356102e2816102ac565b63ffffffff60e01b166380ac58cd60e01b8114908115610320575b811561030f575b506040519015158152f35b6301ffc9a760e01b14905038610304565b635b5e139f60e01b811491506102fd565b60009103126102be57565b60005b83811061034f5750506000910152565b818101518382015260200161033f565b906020916103788151809281855285808601910161033c565b601f01601f1916010190565b90602061039592818152019061035f565b90565b346102be5760008060031936011261047857604051908080546103ba816124c5565b8085529160019180831690811561044e57506001146103f4575b6103f0856103e48187038261192f565b60405191829182610384565b0390f35b80809450527f290decd9548b62a8d60345a988386fc84ba6bc95484008f6362f93160ef3e5635b8284106104365750505081016020016103e4826103f06103d4565b8054602085870181019190915290930192810161041b565b8695506103f0969350602092506103e494915060ff191682840152151560051b82010192936103d4565b80fd5b6001600160a01b038116036102be57565b6024359081151582036102be57565b6044359081151582036102be57565b346102be5760603660031901126102be576004356104c78161047b565b6104cf61048c565b906104d861049b565b916001600160a01b03906104f482600a5460081c16331461240c565b156105e2578116918215908115916105da575b50156105955761057e9161053661052a600a546001600160a01b039060081c1690565b6001600160a01b031690565b7f8be0079c531659141344cd1fd0a4f28419497f9722a3daafe3b4186f6b6457e0600080a3610100600160a81b03600a549160081b1690610100600160a81b03191617600a55565b6105936001600160a01b0319600b5416600b55565b005b60405162461bcd60e51b815260206004820152601560248201527f4f776e61626c653a207a65726f206164647265737300000000000000000000006044820152606490fd5b905038610507565b9150166001600160a01b0319600b541617600b55600080f35b346102be5760203660031901126102be576020610619600435612571565b6001600160a01b0360405191168152f35b346102be5760403660031901126102be576004356106478161047b565b602435610653816124a3565b916001600160a01b0380841680918316146106d15761059393610680913314908115610685575b506124ff565b6128b2565b6106cb91506106c4906106ac33916001600160a01b03166000526005602052604060002090565b906001600160a01b0316600052602052604060002090565b5460ff1690565b3861067a565b60405162461bcd60e51b815260206004820152602160248201527f4552433732313a20617070726f76616c20746f2063757272656e74206f776e656044820152603960f91b6064820152608490fd5b346102be5760003660031901126102be576020601254604051908152f35b346102be5760203660031901126102be57600435600052600e6020526080604060002060018154910154604051916001600160801b03908181168452841c602084015281166040830152821c6060820152f35b346102be5760203660031901126102be576004356107ae8161047b565b6001600160a01b036107c881600a5460081c16331461240c565b6107e5826001600160a01b0316600052600f602052604060002090565b549182156109c8576107f5612d29565b80519060001982019060005b83811061088d575b604080516001600160a01b03878916168152602081018990527f650727fb147d404992e2dd3fc82d96fd303e09a64075e7d5092d1361bb7befd191819081015b0390a161085c6108576130be565b601255565b6012546040519081527f1ef56a7764f084304233be079eb668c64baf9aaeb0348be5e25c356ce11353c790602090a1005b808303610911576001906108cf6108b7876001600160a01b0316600052600f602052604060002090565b60036000918281558260018201558260028201550155565b6109036108e6896000526010602052604060002090565b805473ffffffffffffffffffffffffffffffffffffffff19169055565b61090b613062565b01610801565b8661091c8284612d96565b511461092a5760019061090b565b610849935061099f6109987f650727fb147d404992e2dd3fc82d96fd303e09a64075e7d5092d1361bb7befd198946109b89461097c6108b78a6001600160a01b0316600052600f602052604060002090565b6109936108e6886000526010602052604060002090565b612d96565b51916110d6565b90919082549060031b91821b91600019901b1916179055565b6109c0613062565b933880610809565b60405163aba4733960e01b8152600490fd5b60609060031901126102be576004356109f28161047b565b906024356109ff8161047b565b9060443590565b346102be57610593610a17366109da565b91610a2a610a2584336126a5565b6125ae565b612780565b346102be5760003660031901126102be576020610a4a6133b8565b604051908152f35b346102be5760203660031901126102be576001600160a01b03600435610a778161047b565b16600052600f6020526080604060002080549060018101549060ff6003600283015492015416916040519384526020840152604083015215156060820152f35b346102be57610593610ac8366109da565b9060405192610ad6846118db565b60008452612610565b346102be5760403660031901126102be576020610b0a600435610b018161047b565b602435906126a5565b6040519015158152f35b346102be57600080600319360112610478576001600160a01b03600b5416803303610bb65780610b9e91610b5761052a600a546001600160a01b039060081c1690565b7f8be0079c531659141344cd1fd0a4f28419497f9722a3daafe3b4186f6b6457e08580a3610100600160a81b03600a549160081b1690610100600160a81b03191617600a55565b610bb36001600160a01b0319600b5416600b55565b80f35b606460405162461bcd60e51b815260206004820152602060248201527f4f776e61626c653a2063616c6c657220213d2070656e64696e67206f776e65726044820152fd5b346102be5760003660031901126102be57602060ff600a54166040519015158152f35b60208082019080835283518092528060408094019401926000905b838210610c4757505050505090565b8451805187528084015187850152808201518783015260609081015115159087015260809095019493820193600190910190610c38565b346102be5760003660031901126102be57610c97612d29565b8051610ca281612b04565b91610cb0604051938461192f565b818352601f19610cbf83612b04565b0160005b818110610d6557505060005b828110610ce457604051806103f08682610c1d565b80610d39610d34610d1b610d0e610cfd60019688612d96565b516000526010602052604060002090565b546001600160a01b031690565b6001600160a01b0316600052600f602052604060002090565b612daa565b6060810151610d5f57610d4c8287612d96565b52610d578186612d96565b505b01610ccf565b50610d59565b602090610d70612cc6565b82828801015201610cc3565b346102be5760603660031901126102be5760048035602435610d9d8161047b565b60443592610daa8461047b565b610dd1610dcd8460005260026020526001600160a01b0360406000205416151590565b1590565b61109357610df1610dec84600052600e602052604060002090565b612ceb565b92610e12610d34846001600160a01b0316600052600f602052604060002090565b610e22610dcd6060830151151590565b61104d575b51610e48610e3c86516001600160801b031690565b6001600160801b031690565b0361103e57610e5a610dcd82336126a5565b61102e57610e7e81610e6e610e8a93612f93565b600052600e602052604060002090565b60016000918281550155565b6001600160a01b03807f00000000000000000000000000000000000000000000000000000000000000001692610ec785516001600160801b031690565b926020860193610ede85516001600160801b031690565b95803b156102be5760408051630208d92960e11b8152309481019485526001600160a01b038b1660208601526001600160801b039384169185019190915296909116606083015260009186919082908490829060800103925af1938415611029576001610fa6610f8c610e3c6001600160801b0397610faf957f49a51d755b4ec7c1bd939eabd0addff55713d7d5d146dc35b9781f0ca704131c9a611010575b50516001600160801b031690565b936001600160a01b0316600052600f602052604060002090565b01918254612f86565b905561100b610fc585516001600160801b031690565b91604051938493169616948291909160606080820193816001600160801b0391828151168552826020820151166020860152826040820151166040860152015116910152565b0390a3005b8061101d611023926118a6565b80610331565b38610f7e565b612993565b5060405163ea8e4eb560e01b8152fd5b5060405162ba8e6560e51b8152fd5b61107b610e3c61106760408801516001600160801b031690565b60608801516001600160801b031690612f6b565b421015610e275760405163342ad40160e11b81528390fd5b6040516315ff94d360e11b8152fd5b346102be5760203660031901126102be5760206106196004356124a3565b634e487b7160e01b600052603260045260246000fd5b60115481101561110d5760116000527f31ecc21a745e3968a04e9570e4425bc18fa8019c68028196b546d1669c200c680190600090565b6110c0565b346102be5760203660031901126102be576004356011548110156102be5760209060116000527f31ecc21a745e3968a04e9570e4425bc18fa8019c68028196b546d1669c200c680154604051908152f35b346102be5760203660031901126102be576001600160a01b036004356111888161047b565b1680156111b15760005260036020526103f0604060002054604051918291829190602083019252565b60405162461bcd60e51b815260206004820152602960248201527f4552433732313a2061646472657373207a65726f206973206e6f7420612076616044820152683634b21037bbb732b960b91b6064820152608490fd5b346102be5760c03660031901126102be576004356112258161047b565b602435604435916064359260ff841684036102be578042116113155761059393611302610680926112dc611258876124a3565b936112ea611282866001600160a01b03166000526008602052604060002090815491600183019055565b9360405193849160208301968c8c89909493926080926001600160a01b0360a08401977f49ecf333e5b8c95c40fdafc95c1ad136e8914a8fb55e9dc8bb01eaa83a2df9ad8552166020840152604083015260608201520152565b03601f19810184528361192f565b6112fd60a4359360843593519020613392565b6131b9565b6001600160a01b0390811691161461316d565b60405162461bcd60e51b815260206004820152601e60248201527f4552433732315065726d69743a206578706972656420646561646c696e6500006044820152606490fd5b346102be5760203660031901126102be576001600160a01b0360043561137f8161047b565b1660005260086020526020604060002054604051908152f35b90815180825260208080930193019160005b8281106113b8575050505090565b8351855293810193928101926001016113aa565b346102be5760003660031901126102be576114676114097f0000000000000000000000000000000000000000000000000000000000000000612b1c565b6103f06114357f0000000000000000000000000000000000000000000000000000000000000000612c11565b61147560405191611445836118db565b60008352604051958695600f60f81b875260e0602088015260e087019061035f565b90858203604087015261035f565b90466060850152306080850152600060a085015283820360c0850152611398565b346102be5760203660031901126102be57600435600052601060205260206001600160a01b0360406000205416604051908152f35b346102be5760003660031901126102be5760206001600160a01b03600a5460081c16604051908152f35b346102be57600080600319360112610478576040519080600180549161151a836124c5565b8086529282811690811561044e5750600114611540576103f0856103e48187038261192f565b92508083527fb10e2d527612073b26eecdfd717e6a320cf44b4afac2b0732d9fcbe2b7fa0cf65b8284106115825750505081016020016103e4826103f06103d4565b80546020858701810191909152909301928101611567565b346102be5760403660031901126102be576004356115b78161047b565b6115bf61048c565b6001600160a01b0382169182331461164657816115ff611610923360005260056020526040600020906001600160a01b0316600052602052604060002090565b9060ff801983541691151516179055565b604051901515815233907f17307eab39ab6107e8899845ad3d59bd9653f200f220920489ca2b5937696c3190806020810161100b565b60405162461bcd60e51b815260206004820152601960248201527f4552433732313a20617070726f766520746f2063616c6c6572000000000000006044820152606490fd5b346102be5760003660031901126102be576103f06116a7612d29565b604051918291602083526020830190611398565b346102be5760203660031901126102be576004356116d88161047b565b6001600160a01b036116f281600a5460081c16331461240c565b81169081600052600f60205261170b6040600020612daa565b8051156109c85760600151611789577f54eb4eace2715ad9277435983fc3556692875003c11e83716df290ec2b2740a59161176f6003611761610849946001600160a01b0316600052600f602052604060002090565b01805460ff19166001179055565b6040516001600160a01b0390911681529081906020820190565b604051637cdf305160e11b8152600490fd5b346102be576040806003193601126102be57600435906117ba8261047b565b602435916001600160a01b03906117d982600a5460081c16331461240c565b16600092818452600f602052828420541561187f5791817f0c1acb72620e2739824c28ca1a4d6ff1c976623c0cb1b55718c00ba54d6b58d26118597f1ef56a7764f084304233be079eb668c64baf9aaeb0348be5e25c356ce11353c795611879958852600f602052806002868a2001558451918291829190602083019252565b0390a26118676108576130be565b60125490519081529081906020820190565b0390a180f35b825163aba4733960e01b8152600490fd5b634e487b7160e01b600052604160045260246000fd5b67ffffffffffffffff81116118ba57604052565b611890565b6080810190811067ffffffffffffffff8211176118ba57604052565b6020810190811067ffffffffffffffff8211176118ba57604052565b6040810190811067ffffffffffffffff8211176118ba57604052565b60c0810190811067ffffffffffffffff8211176118ba57604052565b90601f8019910116810190811067ffffffffffffffff8211176118ba57604052565b67ffffffffffffffff81116118ba57601f01601f191660200190565b346102be5760803660031901126102be5760043561198a8161047b565b6024356119968161047b565b6064359167ffffffffffffffff83116102be57366023840112156102be578260040135916119c383611951565b926119d1604051948561192f565b80845236602482870101116102be5760208160009260246105939801838801378501015260443591612610565b346102be5760203660031901126102be57611a8360043580600052601060205260206001600160a01b03916001611a4f84604060002054166001600160a01b0316600052600f602052604060002090565b015492839160405180968194829363442c159960e01b84526004840160409060009294936060820195825260208201520152565b03917f0000000000000000000000000000000000000000000000000000000000000000165afa91821561102957600092611aca575b50604080519182526020820192909252f35b611aec91925060203d8111611af3575b611ae4818361192f565b810190612de1565b9038611ab8565b503d611ada565b604435906001600160801b03821682036102be57565b606435906001600160801b03821682036102be57565b346102be5760803660031901126102be576004803590611b458261047b565b60243591611b528361047b565b611b5a611afa565b91611b63611b10565b906002600c5414611e14576002600c556001600160801b039182851615611e0457828116938415611df357611bae610d34886001600160a01b0316600052600f602052604060002090565b6060810151611de25751948515611dd1576001600160a01b0392837f000000000000000000000000000000000000000000000000000000000000000016803b156102be5760408051630208d92960e11b8152339781019788523060208901529087018990526001600160801b038316606088015295600091879182908490829060800103925af191821561102957611c966001611c8d6103f09c7f0ecba5daa08a4b1cbd80676383ad5fdb38bd304cfb87375527c23e841f21f70799611d5e97611dbe575b506001600160a01b0316600052600f602052604060002090565b01918254612df0565b9055611d35611ca6600d54612305565b98611cb08a600d55565b611cba8a86612dfd565b611cce8a600052600e602052604060002090565b6001810180546fffffffffffffffffffffffffffffffff19166001600160801b03428c16161781559990981698611d1b8a8a906001600160801b03166001600160801b0319825416179055565b906001600160801b0382549181199060801b169116179055565b85546001600160801b031660809190911b6fffffffffffffffffffffffffffffffff1916178555565b611da16040519283921694829190916060608082019360018154916001600160801b0392838116865260801c60208601520154908116604084015260801c910152565b0390a3611dae6001600c55565b6040519081529081906020820190565b8061101d611dcb926118a6565b38611c73565b604051635ff9c7eb60e01b81528490fd5b604051631eea2bfb60e11b81528490fd5b6040516362fb7bcb60e11b81528390fd5b5060405163bb7c64af60e01b8152fd5b60649060206040519162461bcd60e51b8352820152601f60248201527f5265656e7472616e637947756172643a207265656e7472616e742063616c6c006044820152fd5b346102be5760203660031901126102be57611e93611e8e60043560005260026020526001600160a01b0360406000205416151590565b612457565b6000604051611ea1816118db565b526103f0604051611eb1816118db565b6000815260405191829160208352602083019061035f565b346102be5760003660031901126102be576020600d54604051908152f35b6040806003193601126102be5767ffffffffffffffff600480358281116102be57366023820112156102be5780820135928084116102be576024600594368282881b860101116102be5794611f3a61048c565b9336819003604219019160005b888110611f5057005b8481831b84010135848112156102be57830185810135908782116102be5760440181360381136102be576000918291611f8d8e5180938193612319565b0390305af4611f9a612327565b901580611fdc575b611fb55750611fb090612305565b611f47565b88611fd8611fc38d93612357565b925162461bcd60e51b81529283928301610384565b0390fd5b5087611fa2565b346102be5760603660031901126102be576004356120008161047b565b60243590604435906001600160a01b039161202383600a5460081c16331461240c565b83156121605782612041610d0e866000526010602052604060002090565b1661214e57612063826001600160a01b0316600052600f602052604060002090565b5461213c5783610849917ff7c8e4ce85d8395b55ee446757029d0926764b38025301b06b35bb4abd9cd9b6956120ac856001600160a01b0316600052600f602052604060002090565b558015612134575b60026120d3856001600160a01b0316600052600f602052604060002090565b0155612108836120ed836000526010602052604060002090565b906001600160a01b03166001600160a01b0319825416179055565b61211181613015565b6040519384931683602090939291936001600160a01b0360408201951681520152565b5060016120b4565b604051630ea075bf60e21b8152600490fd5b60405163cf0825c960e01b8152600490fd5b604051631557954d60e01b8152600490fd5b346102be5760203660031901126102be5761218b612cc6565b50600435600052600e6020526103f06040600020604051906121ac826118bf565b60018154916001600160801b0392838116855260801c60208501520154908116604083015260801c60608201526040519182918291909160606080820193816001600160801b0391828151168552826020820151166020860152826040820151166040860152015116910152565b346102be5760003660031901126102be5760206040516001600160a01b037f0000000000000000000000000000000000000000000000000000000000000000168152f35b346102be5760003660031901126102be5760206001600160a01b03600b5416604051908152f35b346102be5760403660031901126102be57602060ff6122e36004356122a98161047b565b6001600160a01b03602435916122be8361047b565b16600052600584526040600020906001600160a01b0316600052602052604060002090565b54166040519015158152f35b634e487b7160e01b600052601160045260246000fd5b60001981146123145760010190565b6122ef565b908092918237016000815290565b3d15612352573d9061233882611951565b91612346604051938461192f565b82523d6000602084013e565b606090565b60448151106123d2576004810151810190602081602484019303126102be5760248101519067ffffffffffffffff82116102be5701816043820112156102be5760248101516123a581611951565b926123b3604051948561192f565b818452604482840101116102be5761039591604460208501910161033c565b506040516123df816118f7565b601d81527f5472616e73616374696f6e2072657665727465642073696c656e746c79000000602082015290565b1561241357565b606460405162461bcd60e51b815260206004820152602060248201527f4f776e61626c653a2063616c6c6572206973206e6f7420746865206f776e65726044820152fd5b1561245e57565b60405162461bcd60e51b815260206004820152601860248201527f4552433732313a20696e76616c696420746f6b656e20494400000000000000006044820152606490fd5b60005260026020526001600160a01b0360406000205416610395811515612457565b90600182811c921680156124f5575b60208310146124df57565b634e487b7160e01b600052602260045260246000fd5b91607f16916124d4565b1561250657565b60405162461bcd60e51b815260206004820152603d60248201527f4552433732313a20617070726f76652063616c6c6572206973206e6f7420746f60448201527f6b656e206f776e6572206f7220617070726f76656420666f7220616c6c0000006064820152608490fd5b612594611e8e8260005260026020526001600160a01b0360406000205416151590565b60005260046020526001600160a01b036040600020541690565b156125b557565b60405162461bcd60e51b815260206004820152602d60248201527f4552433732313a2063616c6c6572206973206e6f7420746f6b656e206f776e6560448201526c1c881bdc88185c1c1c9bdd9959609a1b6064820152608490fd5b9161263c939161263793612627610a2584336126a5565b612632838383612780565b612aa7565b61263e565b565b1561264557565b60405162461bcd60e51b815260206004820152603260248201527f4552433732313a207472616e7366657220746f206e6f6e20455243373231526560448201527131b2b4bb32b91034b6b83632b6b2b73a32b960711b6064820152608490fd5b6001600160a01b03806126b7846124a3565b1692818316928484149485156126ed575b505083156126d7575b50505090565b6126e391929350612571565b16143880806126d1565b60ff9295509061271c9160005260056020526040600020906001600160a01b0316600052602052604060002090565b54169238806126c8565b1561272d57565b60405162461bcd60e51b815260206004820152602560248201527f4552433732313a207472616e736665722066726f6d20696e636f72726563742060448201526437bbb732b960d91b6064820152608490fd5b6127a49061278d846124a3565b6001600160a01b0382811693909182168414612726565b8316928315612861576127fa61283a926127ca856127c461052a8a6124a3565b14612726565b6127e16108e6886000526004602052604060002090565b6001600160a01b03166000526003602052604060002090565b600019815401905561281f816001600160a01b03166000526003602052604060002090565b600181540190556120ed856000526002602052604060002090565b7fddf252ad1be2c89b69c2b068fc378daa952ba7f163c4a11628f55a4df523b3ef600080a4565b60405162461bcd60e51b8152602060048201526024808201527f4552433732313a207472616e7366657220746f20746865207a65726f206164646044820152637265737360e01b6064820152608490fd5b6000828152600460205260409020805473ffffffffffffffffffffffffffffffffffffffff19166001600160a01b0383161790556001600160a01b03806128f8846124a3565b169116907f8c5be1e5ebec7d5bd14f71427d1e84f3dd0314c0f7b2291e5b200ac8c7c3b925600080a4565b908160209103126102be5751610395816102ac565b61039593926001600160a01b03608093168252600060208301526040820152816060820152019061035f565b909261039594936080936001600160a01b0380921684521660208301526040820152816060820152019061035f565b6040513d6000823e3d90fd5b909190803b15612a9f576129d96020916001600160a01b03936000604051958680958194630a85bd0160e11b9a8b84523360048501612938565b0393165af160009181612a6f575b50612a61576129f4612327565b80519081612a5c5760405162461bcd60e51b815260206004820152603260248201527f4552433732313a207472616e7366657220746f206e6f6e20455243373231526560448201527131b2b4bb32b91034b6b83632b6b2b73a32b960711b6064820152608490fd5b602001fd5b6001600160e01b0319161490565b612a9191925060203d8111612a98575b612a89818361192f565b810190612923565b90386129e7565b503d612a7f565b505050600190565b92909190823b15612ae2576129d99260209260006001600160a01b03604051809781968295630a85bd0160e11b9b8c85523360048601612964565b50505050600190565b60405190612af8826118f7565b60208083523683820137565b67ffffffffffffffff81116118ba5760051b60200190565b60ff8114612b565760ff811690601f8211612b4457612b39612aeb565b918252602082015290565b604051632cd44ac360e21b8152600490fd5b50604051600654816000612b69836124c5565b80835292600190818116908115612bef5750600114612b90575b506103959250038261192f565b6006600090815291507ff652222313e28459528d920b65115c16c04f3efc82aaedc97be59f3f377c0d3f5b848310612bd45750610395935050810160200138612b83565b81935090816020925483858901015201910190918492612bbb565b90506020925061039594915060ff191682840152151560051b82010138612b83565b60ff8114612c2e5760ff811690601f8211612b4457612b39612aeb565b50604051600754816000612c41836124c5565b80835292600190818116908115612bef5750600114612c6757506103959250038261192f565b6007600090815291507fa66cc928b5edb82af9bd49922954155ab7b0942694bea4ce44661d9a8736c6885b848310612cab5750610395935050810160200138612b83565b81935090816020925483858901015201910190918492612c92565b60405190612cd3826118bf565b60006060838281528260208201528260408201520152565b90604051612cf8816118bf565b6060819360018154916001600160801b0392838116865260801c60208601520154908116604084015260801c910152565b60405190601154808352826020918282019060116000527f31ecc21a745e3968a04e9570e4425bc18fa8019c68028196b546d1669c200c68936000905b828210612d7c5750505061263c9250038361192f565b855484526001958601958895509381019390910190612d66565b805182101561110d5760209160051b010190565b90604051612db7816118bf565b606060ff600383958054855260018101546020860152600281015460408601520154161515910152565b908160209103126102be575190565b9190820180921161231457565b90604051612e0a816118db565b600081526001600160a01b038316918215612edb5761263c938161263794612e51612e4b8360005260026020526001600160a01b0360406000205416151590565b15612f1f565b612e74612e4b8360005260026020526001600160a01b0360406000205416151590565b612e91836001600160a01b03166000526003602052604060002090565b60018154019055612eb0836120ed846000526002602052604060002090565b60007fddf252ad1be2c89b69c2b068fc378daa952ba7f163c4a11628f55a4df523b3ef8180a461299f565b606460405162461bcd60e51b815260206004820152602060248201527f4552433732313a206d696e7420746f20746865207a65726f20616464726573736044820152fd5b15612f2657565b60405162461bcd60e51b815260206004820152601c60248201527f4552433732313a20746f6b656e20616c7265616479206d696e746564000000006044820152606490fd5b9190916001600160801b038080941691160191821161231457565b9190820391821161231457565b612f9c816124a3565b50612fa6816124a3565b60009082825260046020526001600160a01b036040832091811992838154169055169081835260036020526040832060001981540190558383526002602052604083209081541690557fddf252ad1be2c89b69c2b068fc378daa952ba7f163c4a11628f55a4df523b3ef8280a4565b601154680100000000000000008110156118ba57600181018060115581101561110d5760116000527f31ecc21a745e3968a04e9570e4425bc18fa8019c68028196b546d1669c200c680155565b60115480156130a8576000198101908082101561110d577f31ecc21a745e3968a04e9570e4425bc18fa8019c68028196b546d1669c200c67600091601183520155601155565b634e487b7160e01b600052603160045260246000fd5b6000806011805491805b8381106130d6575050505090565b828252613139610d346001600160a01b0361311e847f31ecc21a745e3968a04e9570e4425bc18fa8019c68028196b546d1669c200c6801546000526010602052604060002090565b54166001600160a01b0316600052600f602052604060002090565b606081015115613153575b5061314e90612305565b6130c8565b60409095919501518101809111612314579361314e613144565b1561317457565b60405162461bcd60e51b815260206004820152601f60248201527f4552433732315065726d69743a20696e76616c6964207369676e6174757265006044820152606490fd5b9161039593916131c893613310565b9190916131f0565b600511156131da57565b634e487b7160e01b600052602160045260246000fd5b6131f9816131d0565b806132015750565b61320a816131d0565b600181036132575760405162461bcd60e51b815260206004820152601860248201527f45434453413a20696e76616c6964207369676e617475726500000000000000006044820152606490fd5b613260816131d0565b600281036132ad5760405162461bcd60e51b815260206004820152601f60248201527f45434453413a20696e76616c6964207369676e6174757265206c656e677468006044820152606490fd5b806132b96003926131d0565b146132c057565b60405162461bcd60e51b815260206004820152602260248201527f45434453413a20696e76616c6964207369676e6174757265202773272076616c604482015261756560f01b6064820152608490fd5b9291907f7fffffffffffffffffffffffffffffff5d576e7357a4501ddfe92f46681b20a083116133865791608094939160ff602094604051948552168484015260408301526060820152600093849182805260015afa156110295781516001600160a01b03811615613380579190565b50600190565b50505050600090600390565b60429061339d6133b8565b906040519161190160f01b8352600283015260228201522090565b6001600160a01b037f0000000000000000000000000000000000000000000000000000000000000000163014806134a9575b15613413577f000000000000000000000000000000000000000000000000000000000000000090565b60405160208101907f8b73c3c69bb8fe3d512ecc4cf759cc79239f7b179b0ffacaa9a75d522b39400f82527f000000000000000000000000000000000000000000000000000000000000000060408201527f000000000000000000000000000000000000000000000000000000000000000060608201524660808201523060a082015260a081526134a381611913565b51902090565b507f000000000000000000000000000000000000000000000000000000000000000046146133ea56fea26469706673582212201c330fc52f6ade5d21da21c1b707d4892c1123544eb4b450503964ca6efe04ce64736f6c63430008130033290decd9548b62a8d60345a988386fc84ba6bc95484008f6362f93160ef3e563b10e2d527612073b26eecdfd717e6a320cf44b4afac2b0732d9fcbe2b7fa0cf6",
  "linkReferences": {},
  "deployedLinkReferences": {}
}