{
  "_format": "hh-sol-artifact-1",
  "contractName": "TapiocaOptionBroker",
  "sourceName": "contracts/options/TapiocaOptionBroker.sol",
  "abi": [
    {
      "inputs": [
        {
          "internalType": "address",
          "name": "_tOLP",
          "type": "address"
        },
        {
          "internalType": "address",
          "name": "_oTAP",
          "type": "address"
        },
        {
          "internalType": "address payable",
          "name": "_tapOFT",
          "type": "address"
        },
        {
          "internalType": "address",
          "name": "_paymentTokenBeneficiary",
          "type": "address"
        },
        {
          "internalType": "uint256",
          "name": "_epochDuration",
          "type": "uint256"
        },
        {
          "internalType": "address",
          "name": "_owner",
          "type": "address"
        }
      ],
      "stateMutability": "nonpayable",
      "type": "constructor"
    },
    {
      "inputs": [],
      "name": "DurationTooShort",
      "type": "error"
    },
    {
      "inputs": [],
      "name": "Failed",
      "type": "error"
    },
    {
      "inputs": [],
      "name": "LockNotExpired",
      "type": "error"
    },
    {
      "inputs": [],
      "name": "NoActiveSingularities",
      "type": "error"
    },
    {
      "inputs": [],
      "name": "NoLiquidity",
      "type": "error"
    },
    {
      "inputs": [],
      "name": "NotAuthorized",
      "type": "error"
    },
    {
      "inputs": [],
      "name": "NotEqualDurations",
      "type": "error"
    },
    {
      "inputs": [],
      "name": "OneEpochCooldown",
      "type": "error"
    },
    {
      "inputs": [],
      "name": "OptionExpired",
      "type": "error"
    },
    {
      "inputs": [],
      "name": "PaymentTokenNotSupported",
      "type": "error"
    },
    {
      "inputs": [],
      "name": "PaymentTokenValuationNotValid",
      "type": "error"
    },
    {
      "inputs": [],
      "name": "PositionNotValid",
      "type": "error"
    },
    {
      "inputs": [],
      "name": "SingularityInRescueMode",
      "type": "error"
    },
    {
      "inputs": [],
      "name": "TooHigh",
      "type": "error"
    },
    {
      "inputs": [],
      "name": "TooLong",
      "type": "error"
    },
    {
      "inputs": [],
      "name": "TooLow",
      "type": "error"
    },
    {
      "inputs": [],
      "name": "TooSoon",
      "type": "error"
    },
    {
      "inputs": [],
      "name": "TransferFailed",
      "type": "error"
    },
    {
      "anonymous": false,
      "inputs": [
        {
          "indexed": true,
          "internalType": "uint256",
          "name": "epoch",
          "type": "uint256"
        },
        {
          "indexed": true,
          "internalType": "uint256",
          "name": "cumulative",
          "type": "uint256"
        },
        {
          "indexed": true,
          "internalType": "uint256",
          "name": "averageMagnitude",
          "type": "uint256"
        },
        {
          "indexed": false,
          "internalType": "uint256",
          "name": "totalParticipants",
          "type": "uint256"
        }
      ],
      "name": "AMLDivergence",
      "type": "event"
    },
    {
      "anonymous": false,
      "inputs": [
        {
          "indexed": true,
          "internalType": "uint256",
          "name": "epoch",
          "type": "uint256"
        },
        {
          "indexed": true,
          "internalType": "address",
          "name": "to",
          "type": "address"
        },
        {
          "indexed": true,
          "internalType": "contract ERC20",
          "name": "paymentToken",
          "type": "address"
        },
        {
          "indexed": false,
          "internalType": "uint256",
          "name": "oTapTokenID",
          "type": "uint256"
        },
        {
          "indexed": false,
          "internalType": "uint256",
          "name": "amount",
          "type": "uint256"
        }
      ],
      "name": "ExerciseOption",
      "type": "event"
    },
    {
      "anonymous": false,
      "inputs": [
        {
          "indexed": true,
          "internalType": "uint256",
          "name": "epoch",
          "type": "uint256"
        },
        {
          "indexed": true,
          "internalType": "uint256",
          "name": "tokenId",
          "type": "uint256"
        },
        {
          "indexed": true,
          "internalType": "uint256",
          "name": "amount",
          "type": "uint256"
        }
      ],
      "name": "ExitPosition",
      "type": "event"
    },
    {
      "anonymous": false,
      "inputs": [
        {
          "indexed": true,
          "internalType": "uint256",
          "name": "epoch",
          "type": "uint256"
        },
        {
          "indexed": true,
          "internalType": "uint256",
          "name": "extractedTAP",
          "type": "uint256"
        },
        {
          "indexed": true,
          "internalType": "uint256",
          "name": "epochTAPValuation",
          "type": "uint256"
        }
      ],
      "name": "NewEpoch",
      "type": "event"
    },
    {
      "anonymous": false,
      "inputs": [
        {
          "indexed": true,
          "internalType": "address",
          "name": "previousOwner",
          "type": "address"
        },
        {
          "indexed": true,
          "internalType": "address",
          "name": "newOwner",
          "type": "address"
        }
      ],
      "name": "OwnershipTransferred",
      "type": "event"
    },
    {
      "anonymous": false,
      "inputs": [
        {
          "indexed": true,
          "internalType": "uint256",
          "name": "epoch",
          "type": "uint256"
        },
        {
          "indexed": true,
          "internalType": "uint256",
          "name": "sglAssetID",
          "type": "uint256"
        },
        {
          "indexed": true,
          "internalType": "uint256",
          "name": "totalDeposited",
          "type": "uint256"
        },
        {
          "components": [
            {
              "internalType": "uint128",
              "name": "sglAssetID",
              "type": "uint128"
            },
            {
              "internalType": "uint128",
              "name": "ybShares",
              "type": "uint128"
            },
            {
              "internalType": "uint128",
              "name": "lockTime",
              "type": "uint128"
            },
            {
              "internalType": "uint128",
              "name": "lockDuration",
              "type": "uint128"
            }
          ],
          "indexed": false,
          "internalType": "struct LockPosition",
          "name": "lock",
          "type": "tuple"
        },
        {
          "indexed": false,
          "internalType": "uint256",
          "name": "discount",
          "type": "uint256"
        }
      ],
      "name": "Participate",
      "type": "event"
    },
    {
      "anonymous": false,
      "inputs": [
        {
          "indexed": false,
          "internalType": "address",
          "name": "account",
          "type": "address"
        }
      ],
      "name": "Paused",
      "type": "event"
    },
    {
      "anonymous": false,
      "inputs": [
        {
          "indexed": true,
          "internalType": "contract ERC20",
          "name": "paymentToken",
          "type": "address"
        },
        {
          "indexed": true,
          "internalType": "contract IOracle",
          "name": "oracle",
          "type": "address"
        },
        {
          "indexed": true,
          "internalType": "bytes",
          "name": "oracleData",
          "type": "bytes"
        }
      ],
      "name": "SetPaymentToken",
      "type": "event"
    },
    {
      "anonymous": false,
      "inputs": [
        {
          "indexed": true,
          "internalType": "contract IOracle",
          "name": "oracle",
          "type": "address"
        },
        {
          "indexed": true,
          "internalType": "bytes",
          "name": "oracleData",
          "type": "bytes"
        }
      ],
      "name": "SetTapOracle",
      "type": "event"
    },
    {
      "anonymous": false,
      "inputs": [
        {
          "indexed": false,
          "internalType": "address",
          "name": "account",
          "type": "address"
        }
      ],
      "name": "Unpaused",
      "type": "event"
    },
    {
      "inputs": [],
      "name": "EPOCH_DURATION",
      "outputs": [
        {
          "internalType": "uint256",
          "name": "",
          "type": "uint256"
        }
      ],
      "stateMutability": "view",
      "type": "function"
    },
    {
      "inputs": [],
      "name": "MIN_WEIGHT_FACTOR",
      "outputs": [
        {
          "internalType": "uint256",
          "name": "",
          "type": "uint256"
        }
      ],
      "stateMutability": "view",
      "type": "function"
    },
    {
      "inputs": [],
      "name": "claimOwnership",
      "outputs": [],
      "stateMutability": "nonpayable",
      "type": "function"
    },
    {
      "inputs": [
        {
          "internalType": "address[]",
          "name": "_paymentTokens",
          "type": "address[]"
        }
      ],
      "name": "collectPaymentTokens",
      "outputs": [],
      "stateMutability": "nonpayable",
      "type": "function"
    },
    {
      "inputs": [],
      "name": "emissionsStartTime",
      "outputs": [
        {
          "internalType": "uint256",
          "name": "",
          "type": "uint256"
        }
      ],
      "stateMutability": "view",
      "type": "function"
    },
    {
      "inputs": [],
      "name": "epoch",
      "outputs": [
        {
          "internalType": "uint256",
          "name": "",
          "type": "uint256"
        }
      ],
      "stateMutability": "view",
      "type": "function"
    },
    {
      "inputs": [],
      "name": "epochTAPValuation",
      "outputs": [
        {
          "internalType": "uint256",
          "name": "",
          "type": "uint256"
        }
      ],
      "stateMutability": "view",
      "type": "function"
    },
    {
      "inputs": [
        {
          "internalType": "uint256",
          "name": "_oTAPTokenID",
          "type": "uint256"
        },
        {
          "internalType": "contract ERC20",
          "name": "_paymentToken",
          "type": "address"
        },
        {
          "internalType": "uint256",
          "name": "_tapAmount",
          "type": "uint256"
        }
      ],
      "name": "exerciseOption",
      "outputs": [],
      "stateMutability": "nonpayable",
      "type": "function"
    },
    {
      "inputs": [
        {
          "internalType": "uint256",
          "name": "_oTAPTokenID",
          "type": "uint256"
        }
      ],
      "name": "exitPosition",
      "outputs": [],
      "stateMutability": "nonpayable",
      "type": "function"
    },
    {
      "inputs": [],
      "name": "getCurrentWeek",
      "outputs": [
        {
          "internalType": "uint256",
          "name": "",
          "type": "uint256"
        }
      ],
      "stateMutability": "view",
      "type": "function"
    },
    {
      "inputs": [
        {
          "internalType": "uint256",
          "name": "_oTAPTokenID",
          "type": "uint256"
        },
        {
          "internalType": "contract ERC20",
          "name": "_paymentToken",
          "type": "address"
        },
        {
          "internalType": "uint256",
          "name": "_tapAmount",
          "type": "uint256"
        }
      ],
      "name": "getOTCDealDetails",
      "outputs": [
        {
          "internalType": "uint256",
          "name": "eligibleTapAmount",
          "type": "uint256"
        },
        {
          "internalType": "uint256",
          "name": "paymentTokenAmount",
          "type": "uint256"
        },
        {
          "internalType": "uint256",
          "name": "tapAmount",
          "type": "uint256"
        }
      ],
      "stateMutability": "view",
      "type": "function"
    },
    {
      "inputs": [
        {
          "internalType": "uint256",
          "name": "epoch",
          "type": "uint256"
        },
        {
          "internalType": "uint256",
          "name": "sglAssetID",
          "type": "uint256"
        }
      ],
      "name": "netDepositedForEpoch",
      "outputs": [
        {
          "internalType": "int256",
          "name": "netAmount",
          "type": "int256"
        }
      ],
      "stateMutability": "view",
      "type": "function"
    },
    {
      "inputs": [],
      "name": "newEpoch",
      "outputs": [],
      "stateMutability": "nonpayable",
      "type": "function"
    },
    {
      "inputs": [],
      "name": "oTAP",
      "outputs": [
        {
          "internalType": "contract OTAP",
          "name": "",
          "type": "address"
        }
      ],
      "stateMutability": "view",
      "type": "function"
    },
    {
      "inputs": [],
      "name": "oTAPBrokerClaim",
      "outputs": [],
      "stateMutability": "nonpayable",
      "type": "function"
    },
    {
      "inputs": [
        {
          "internalType": "uint256",
          "name": "",
          "type": "uint256"
        },
        {
          "internalType": "uint256",
          "name": "",
          "type": "uint256"
        }
      ],
      "name": "oTAPCalls",
      "outputs": [
        {
          "internalType": "uint256",
          "name": "",
          "type": "uint256"
        }
      ],
      "stateMutability": "view",
      "type": "function"
    },
    {
      "inputs": [],
      "name": "owner",
      "outputs": [
        {
          "internalType": "address",
          "name": "",
          "type": "address"
        }
      ],
      "stateMutability": "view",
      "type": "function"
    },
    {
      "inputs": [
        {
          "internalType": "uint256",
          "name": "",
          "type": "uint256"
        }
      ],
      "name": "participants",
      "outputs": [
        {
          "internalType": "bool",
          "name": "hasVotingPower",
          "type": "bool"
        },
        {
          "internalType": "bool",
          "name": "divergenceForce",
          "type": "bool"
        },
        {
          "internalType": "uint256",
          "name": "averageMagnitude",
          "type": "uint256"
        }
      ],
      "stateMutability": "view",
      "type": "function"
    },
    {
      "inputs": [
        {
          "internalType": "uint256",
          "name": "_tOLPTokenID",
          "type": "uint256"
        }
      ],
      "name": "participate",
      "outputs": [
        {
          "internalType": "uint256",
          "name": "oTAPTokenID",
          "type": "uint256"
        }
      ],
      "stateMutability": "nonpayable",
      "type": "function"
    },
    {
      "inputs": [],
      "name": "paused",
      "outputs": [
        {
          "internalType": "bool",
          "name": "",
          "type": "bool"
        }
      ],
      "stateMutability": "view",
      "type": "function"
    },
    {
      "inputs": [],
      "name": "paymentTokenBeneficiary",
      "outputs": [
        {
          "internalType": "address",
          "name": "",
          "type": "address"
        }
      ],
      "stateMutability": "view",
      "type": "function"
    },
    {
      "inputs": [
        {
          "internalType": "contract ERC20",
          "name": "",
          "type": "address"
        }
      ],
      "name": "paymentTokens",
      "outputs": [
        {
          "internalType": "contract IOracle",
          "name": "oracle",
          "type": "address"
        },
        {
          "internalType": "bytes",
          "name": "oracleData",
          "type": "bytes"
        }
      ],
      "stateMutability": "view",
      "type": "function"
    },
    {
      "inputs": [],
      "name": "pendingOwner",
      "outputs": [
        {
          "internalType": "address",
          "name": "",
          "type": "address"
        }
      ],
      "stateMutability": "view",
      "type": "function"
    },
    {
      "inputs": [
        {
          "internalType": "uint256",
          "name": "_minWeightFactor",
          "type": "uint256"
        }
      ],
      "name": "setMinWeightFactor",
      "outputs": [],
      "stateMutability": "nonpayable",
      "type": "function"
    },
    {
      "inputs": [
        {
          "internalType": "contract ERC20",
          "name": "_paymentToken",
          "type": "address"
        },
        {
          "internalType": "contract IOracle",
          "name": "_oracle",
          "type": "address"
        },
        {
          "internalType": "bytes",
          "name": "_oracleData",
          "type": "bytes"
        }
      ],
      "name": "setPaymentToken",
      "outputs": [],
      "stateMutability": "nonpayable",
      "type": "function"
    },
    {
      "inputs": [
        {
          "internalType": "address",
          "name": "_paymentTokenBeneficiary",
          "type": "address"
        }
      ],
      "name": "setPaymentTokenBeneficiary",
      "outputs": [],
      "stateMutability": "nonpayable",
      "type": "function"
    },
    {
      "inputs": [
        {
          "internalType": "contract IOracle",
          "name": "_tapOracle",
          "type": "address"
        },
        {
          "internalType": "bytes",
          "name": "_tapOracleData",
          "type": "bytes"
        }
      ],
      "name": "setTapOracle",
      "outputs": [],
      "stateMutability": "nonpayable",
      "type": "function"
    },
    {
      "inputs": [
        {
          "internalType": "uint256",
          "name": "",
          "type": "uint256"
        },
        {
          "internalType": "uint256",
          "name": "",
          "type": "uint256"
        }
      ],
      "name": "singularityGauges",
      "outputs": [
        {
          "internalType": "uint256",
          "name": "",
          "type": "uint256"
        }
      ],
      "stateMutability": "view",
      "type": "function"
    },
    {
      "inputs": [],
      "name": "tOLP",
      "outputs": [
        {
          "internalType": "contract TapiocaOptionLiquidityProvision",
          "name": "",
          "type": "address"
        }
      ],
      "stateMutability": "view",
      "type": "function"
    },
    {
      "inputs": [],
      "name": "tapOFT",
      "outputs": [
        {
          "internalType": "contract TapOFT",
          "name": "",
          "type": "address"
        }
      ],
      "stateMutability": "view",
      "type": "function"
    },
    {
      "inputs": [],
      "name": "tapOracle",
      "outputs": [
        {
          "internalType": "contract IOracle",
          "name": "",
          "type": "address"
        }
      ],
      "stateMutability": "view",
      "type": "function"
    },
    {
      "inputs": [],
      "name": "tapOracleData",
      "outputs": [
        {
          "internalType": "bytes",
          "name": "",
          "type": "bytes"
        }
      ],
      "stateMutability": "view",
      "type": "function"
    },
    {
      "inputs": [
        {
          "internalType": "uint256",
          "name": "timestamp",
          "type": "uint256"
        }
      ],
      "name": "timestampToWeek",
      "outputs": [
        {
          "internalType": "uint256",
          "name": "",
          "type": "uint256"
        }
      ],
      "stateMutability": "view",
      "type": "function"
    },
    {
      "inputs": [
        {
          "internalType": "address",
          "name": "newOwner",
          "type": "address"
        },
        {
          "internalType": "bool",
          "name": "direct",
          "type": "bool"
        },
        {
          "internalType": "bool",
          "name": "renounce",
          "type": "bool"
        }
      ],
      "name": "transferOwnership",
      "outputs": [],
      "stateMutability": "nonpayable",
      "type": "function"
    },
    {
      "inputs": [
        {
          "internalType": "uint256",
          "name": "",
          "type": "uint256"
        }
      ],
      "name": "twAML",
      "outputs": [
        {
          "internalType": "uint256",
          "name": "totalParticipants",
          "type": "uint256"
        },
        {
          "internalType": "uint256",
          "name": "averageMagnitude",
          "type": "uint256"
        },
        {
          "internalType": "uint256",
          "name": "totalDeposited",
          "type": "uint256"
        },
        {
          "internalType": "uint256",
          "name": "cumulative",
          "type": "uint256"
        }
      ],
      "stateMutability": "view",
      "type": "function"
    }
  ],
  "bytecode": "0x610120346200022757601f620037d838819003918201601f19168301916001600160401b038311848410176200022c5780849260c09460405283398101031262000227576200004e8162000242565b6200005c6020830162000242565b604083015190926001600160a01b03808316928390036200022757620000856060830162000242565b946200009960a06080850151940162000242565b93826000549681604051993360007f8be0079c531659141344cd1fd0a4f28419497f9722a3daafe3b4186f6b6457e08180a360016002556103e8600d55600b80546001600160a01b031916929091169190911790551660805260a0521660c05260e0526001600160a81b031990911660089190911b610100600160a81b031617600055426101009081526135809190826200025883396080518281816103c5015281816105c801528181610ea60152818161114e015281816112430152818161127b015281816112cf0152818161199e015281816121d0015281816124e701526131ec015260a0518281816108ff01528181610dea015261254d015260c05182818161056601528181610e54015281816115b40152818161192801528181611e66015261222c015260e0518281816104df015281816106a701528181610f3f015281816111a5015281816114b00152818161189201528181611e0101526122040152518181816114d201528181611dda01528181611f8f0152818161249e01528181612d27015261331b0152f35b600080fd5b634e487b7160e01b600052604160045260246000fd5b51906001600160a01b0382168203620002275756fe6080604052600436101561001257600080fd5b6000803560e01c8063078dfbe71461297657806309b489fd1461295757806310f95fbe1461248557806318f5e0ab146122d55780631b8fb9f5146121a15780631bcc9091146121745780631f767581146121275780631fe802371461204557806320b86b831461202757806335c1d34914611fdf578063376e08bd14611fb257806348b0daa614611f775780634e378fbd14611f595780634e71e0c814611e955780635ad7038714611e505780635c975abb14611e2e5780636eb227ce14611dbf578063752dcf8314611d9257806378dc9059146118eb578063845c93061461110f5780638590f41314610e195780638b0c2dfc14610dd45780638da5cb5b14610da9578063900cf0cf14610d8b578063933f6da514610d6257806397d63d4314610bf9578063a1bef73414610534578063a2774a9314610502578063a70b9f0c146104c7578063c3b88b4214610464578063c9eed5461461041d578063e30c3978146103f4578063e4821200146103af578063e4ed31f8146101c95763f13d17741461019e57600080fd5b346101c657806003193601126101c657600b546040516001600160a01b039091168152602090f35b80fd5b50346101c65760603660031901126101c6576101e3612a95565b6024356001600160a01b03818116918290036103aa576001600160401b03926044358481116103a65761021a903690600401612aab565b92909161022e82885460081c163314612cd3565b16808652600a60209081526040872080546001600160a01b031916861781559195600192830192919085116103925784906102698454612aee565b601f8111610342575b508890601f83116001146102e05750889290826102d5575b501b906000198560031b1c19161790555b816040519283928337810160008152039020917fd70ea94304204d2530588b0d70f2ee633331140b793571367a494b7709768a628480a480f35b85013592503861028a565b91601f198116858b52838b20938b905b86838310610328575050501061030e575b505083811b01905561029b565b840135600019600387901b60f8161c191690553880610301565b8986013587559095019493840193899350908101906102f0565b909150838952818920601f870160051c810191838810610388575b87939291601f86920160051c01915b82811061037a575050610272565b8b815588945085910161036c565b909150819061035d565b634e487b7160e01b88526041600452602488fd5b8580fd5b600080fd5b50346101c657806003193601126101c6576040517f00000000000000000000000000000000000000000000000000000000000000006001600160a01b03168152602090f35b50346101c657806003193601126101c6576001546040516001600160a01b039091168152602090f35b50346101c65760203660031901126101c657610437612a95565b60018060a01b039061045082845460081c163314612cd3565b1660018060a01b0319600b541617600b5580f35b50346101c65760203660031901126101c6576001600160a01b03906104a69060019060409084610492612a95565b168152600a60205220928354169201612bc3565b906104c36040519283928352604060208401526040830190612c69565b0390f35b50346101c657806003193601126101c65760206040517f00000000000000000000000000000000000000000000000000000000000000008152f35b50346101c65760203660031901126101c65761052b60018060a01b03825460081c163314612cd3565b600435600d5580f35b50346101c65761054336612ca9565b919061054d612f36565b60405163682ee63560e11b8152600481018390526080937f00000000000000000000000000000000000000000000000000000000000000006001600160a01b031691908582602481865afa918215610bee578792610bbd575b50604082810151905163d68f4dd160e01b8152600481019190915286816024817f00000000000000000000000000000000000000000000000000000000000000006001600160a01b03165afa968715610a0d578897610b8e575b505061060b866132d7565b15610b7c576006549560018060a01b0385168852600a602052604088209361064c60016040519661063b88612b87565b818060a01b03815416885201612bc3565b602086015284516001600160a01b031615610b6a5760405163430c208160e01b81523360048201526024810188905290602090829060449082905afa908115610a79578991610b2c575b5015610b1a5760408101516106d5907f0000000000000000000000000000000000000000000000000000000000000000906001600160801b0316612e46565b4210610b085786885260096020526040882060018060801b038251168952602052604088205490878952600e6020526040892060018060801b038251168a5260205260408920548015610af65760209091015161075c9261073f92916001600160801b0316613472565b868952600860205260408920888a52602052604089205490612e69565b90808210610ae45780610adc5750915b670de0b6b3a76400008310610aca5786918583526008602052604083208784526020526040832061079e858254612e46565b9055602060018060801b039101511660406107f16107be60055487612e76565b93602060018060a01b03825116910151835196878094819363d6d7d52560e01b8352602060048401526024830190612c69565b03925af1928315610a0d5788908994610a96575b5015610a845760405163313ce56760e01b8152926020846004816001600160a01b038a165afa938415610a79576108489460ff918b91610a4a575b501692613368565b6040516370a0823160e01b808252306004830152906020816024816001600160a01b0389165afa908115610a0d578891610a18575b506040516323b872dd60e01b60208201526108c2906108b3816108a587303360248501612ecc565b03601f198101835282612ba2565b6001600160a01b038716612fe5565b6040519182523060048301526020826024816001600160a01b0389165afa8015610a0d5788906109d9575b6108f79250612e69565b036109c757847f00000000000000000000000000000000000000000000000000000000000000006001600160a01b0316803b156109c3576040516309d7186160e31b8152336004820152602481018490529082908290604490829084905af180156109b8576109a0575b5050604051928352602083015260018060a01b0316917fad9eeb6ac9c439fe4e01f186d3a05d5d27ec1f2449bd4042ec40224b5894b8dd60403393a480f35b6109a990612b59565b6109b4578438610961565b8480fd5b6040513d84823e3d90fd5b5080fd5b6040516312171d8360e31b8152600490fd5b506020823d602011610a05575b816109f360209383612ba2565b810103126103aa576108f791516108ed565b3d91506109e6565b6040513d8a823e3d90fd5b90506020813d602011610a42575b81610a3360209383612ba2565b810103126103aa57513861087d565b3d9150610a26565b610a6c915060203d602011610a72575b610a648183612ba2565b810190612eb3565b38610840565b503d610a5a565b6040513d8b823e3d90fd5b60405163312d207360e11b8152600490fd5b9050610abb91935060403d604011610ac3575b610ab38183612ba2565b810190612e96565b929038610805565b503d610aa9565b604051631e52aa2160e11b8152600490fd5b90509161076c565b604051637901a5a760e11b8152600490fd5b604051636180f03f60e11b8152600490fd5b60405163730280b360e11b8152600490fd5b60405163ea8e4eb560e01b8152600490fd5b90506020813d602011610b62575b81610b4760209383612ba2565b81010312610b5e57610b5890612e89565b38610696565b8880fd5b3d9150610b3a565b60405163915a973d60e01b8152600490fd5b604051637676819d60e01b8152600490fd5b610bae929750803d10610bb6575b610ba68183612ba2565b810190612dee565b943880610600565b503d610b9c565b610bde919250863d8811610be7575b610bd68183612ba2565b810190612d94565b905090386105a6565b503d610bcc565b6040513d89823e3d90fd5b50346101c6576020806003193601126109c3576001600160401b03600435818111610d5e5736602382011215610d5e578060040135918211610d5e576024906005368385831b840101116103a65760018060a01b0391610c6083885460081c163314612cd3565b610c68612f7a565b82600b5416918215610b6a57875b868110610c865788600160025580f35b8581831b8401013590858216809203610d5a576040516370a0823160e01b81523060048201529189838981845afa928315610d4f5788938b918d91610d1a575b506040805163a9059cbb60e01b938101939093526001600160a01b0389169583019586526020860191909152600194610d149391610d0f9184910103601f198101845283612ba2565b612fe5565b01610c76565b94505083813d8311610d48575b610d318183612ba2565b810103126103aa5791518792908a90610d0f610cc6565b503d610d27565b6040513d8d823e3d90fd5b8980fd5b8380fd5b50346101c657806003193601126101c6576004546040516001600160a01b039091168152602090f35b50346101c657806003193601126101c6576020600654604051908152f35b50346101c657806003193601126101c6575460405160089190911c6001600160a01b03168152602090f35b50346101c657806003193601126101c6576040517f00000000000000000000000000000000000000000000000000000000000000006001600160a01b03168152602090f35b50346101c657610e2836612ca9565b60405163682ee63560e11b81526004810184905290926001600160a01b039290916080919082816024817f000000000000000000000000000000000000000000000000000000000000000089165afa908115610bee5787916110f0575b5060408101516040519063d68f4dd160e01b825260048201528381602481897f0000000000000000000000000000000000000000000000000000000000000000165afa938415610a0d5788946110d1575b5050610ee1836132d7565b15610b7c5784600654921691828852602094600a86526040892094610f1a600160405197610f0e89612b87565b8a815416895201612bc3565b918787019283528887511615610b6a5760408201516001600160801b039490610f66907f0000000000000000000000000000000000000000000000000000000000000000908716612e46565b4210610b0857808c526009895260408c20858451168d52895260408c205492818d52600e8a5260408d208d8783511690528a5260408d20548015610af657610fd194878c610fb694015116613472565b918c526008895260408c20908c52885260408b205490612e69565b97808910610ae457806110cb575087965b670de0b6b3a76400008810610aca5761102b916040916110046005548b612e76565b9751169051908251808095819463eeb8a8d360e01b83528c60048401526024830190612c69565b03915afa918215610a795786918a936110a5575b508160049394015116936040519283809263313ce56760e01b82525afa908115610a0d5761107d9493929160ff9160609a9161108e57501692613368565b906040519384528301526040820152f35b610a6c9150873d8911610a7257610a648183612ba2565b600493506110c2839160403d604011610ac357610ab38183612ba2565b9050935061103f565b96610fe2565b6110e8929450803d10610bb657610ba68183612ba2565b913880610ed6565b6111079150833d8511610be757610bd68183612ba2565b905038610e85565b50346101c65760203660031901126101c657611129612f36565b611131612f7a565b60405163d68f4dd160e01b815260048035908201526080816024817f00000000000000000000000000000000000000000000000000000000000000006001600160a01b03165afa9081156109b85782916118cd575b50611190816132d7565b15610b7c5760608101516001600160801b03167f0000000000000000000000000000000000000000000000000000000000000000116118bb5780516001600160801b03168252600c6020526040808320905192906003906111f085612b28565b805485526001810154602086015260028101546040860152015480606085015215611890575b60405163430c208160e01b8152336004808301919091523560248201526020816044816001600160a01b037f0000000000000000000000000000000000000000000000000000000000000000165afa9081156109b8578291611856575b5015610b1a577f00000000000000000000000000000000000000000000000000000000000000006001600160a01b03163b156101c6576040516323b872dd60e01b81528181806112ca600435303360048501612ecc565b0381837f00000000000000000000000000000000000000000000000000000000000000006001600160a01b03165af180156109b857908291611842575b505060608281015190840151939061133c9061132c906001600160801b031680612e76565b6113368680612e76565b90612e46565b9382600386111561182e5750848560011c600181018091116116c3575b818110611811575061136e9293949550612e69565b9061137d6060820151836134f6565b9160608201518060021b90808204600414901517156116c35781116117ff5760018491818060801b036020880151169260408501516113be600d5482612e76565b612710918282106117f6575004915b828510156116d7575b50602085015191604051946113ea86612b6c565b10158452602084019015158152604084019182526004358752600760205260408720935115159060ff61ff0086549251151560081b1692169061ffff1916171783555191015560018060801b036020850151166006546001810181116116c3576001018452600e6020526040842060018060801b0386511685526020526040842080548583820193841291129080158216911516176116c35755604084015160608501516114fc916001600160801b03916114aa91908316908316612f1d565b166114f77f0000000000000000000000000000000000000000000000000000000000000000917f000000000000000000000000000000000000000000000000000000000000000090612e69565b612efd565b60208501516001600160801b0316906001810181116116c3576001018452600e6020526040842060018060801b0386511685526020526040842090815485821281838103128116908284810313901516176116af5703905560408401516060850151611574916001600160801b039182169116612f1d565b60405163048e609360e21b8152336004808301919091526001600160801b03928316602483015291841660448201529035606482015293602085608481877f00000000000000000000000000000000000000000000000000000000000000006001600160a01b03165af19384156116a3579361166e575b600654815160409384015184516001600160801b0392831680825260208681015185168382015287870151851697830197909752606095860151909316948101949094526080840195909552929550907fa3d578f3f93b76c208e2ce5b52fc1c1293b97a982af8f900c3d04f924fad02f69060a090a46001600255604051908152f35b92506020843d60201161169b575b8161168960209383612ba2565b810103126103aa5760209351926115eb565b3d915061167c565b604051903d90823e3d90fd5b634e487b7160e01b86526011600452602486fd5b634e487b7160e01b85526011600452602485fd5b6116fe91506116f6906116ea8751612eee565b87526020870151612e46565b855190612efd565b806020860152828060801b036060890151169060608601518092101591826000146117c957505061173760208601516060870151612e46565b60608601525b611756838060801b0360208a0151166040870151612e46565b6040860152828060801b038851168752600c6020526040872060038651808355602088015192838782015560408901516002820155606089015192839101557f879d967178645d9838c4868b727eeb76eac7b58b1704a13c79003756f09f0993602060065492604051908152a4386113d6565b11156117eb576117e160208601516060870151612e69565b606086015261173d565b86606086015261173d565b915050916113cd565b6040516327722dab60e11b8152600490fd5b9050611826816118218189612efd565b612e46565b60011c611359565b61136e9293949515612e6957506001612e69565b61184b90612b59565b6101c6578038611307565b90506020813d602011611888575b8161187160209383612ba2565b810103126109c35761188290612e89565b38611273565b3d9150611864565b7f00000000000000000000000000000000000000000000000000000000000000006060840152611216565b6040516325c3636760e01b8152600490fd5b6118e5915060803d8111610bb657610ba68183612ba2565b38611186565b50346101c6576020806003193601126109c3576004359061190a612f36565b604051634f558e7960e01b8152600481018390526001600160a01b037f000000000000000000000000000000000000000000000000000000000000000081169390918381602481885afa908115611d87578691611d52575b5015611d405760405163682ee63560e11b81526004810182905260809286929084836024818a5afa928315611b65578493611d1c575b506040907f00000000000000000000000000000000000000000000000000000000000000001692019586516040519063d68f4dd160e01b825260048201528581602481875afa958615611ba7578596611cfd575b50506119f7856131c4565b1580611cbd575b8751855260078752604085209060405190611a1882612b6c565b8254926040600160ff861615159283865260ff8d87019760081c16151587520154930192835281611cb5575b50611bb2575b50506040516331a9108f60e11b815260048101839052918683602481855afa928315611ba7578593611b70575b508751855260078752846001604082208281550155813b156109b4578491602483926040519485938492630852cd8d60e31b845260048401525af1908115611b65578491611b4d575b50508551823b15610d5e57611aef928492836040518096819582946323b872dd60e01b84523060048501612ecc565b03925af180156109b857611b39575b505060065492519101516001600160801b0316917f074ff0268facdff7c3074627a72c36bcf0f19d46cea0f1fc395ae81dffcc3e688480a480f35b611b4290612b59565b610d5e578338611afe565b611b5690612b59565b611b61578238611ac0565b8280fd5b6040513d86823e3d90fd5b9092508681813d8311611ba0575b611b888183612ba2565b810103126109b457611b9990612d6c565b9138611a77565b503d611b7e565b6040513d87823e3d90fd5b86516001600160801b039081168752600c895260408088209051909360039392611bdb83612b28565b8554835260018601548c84019081526002870154604085019081529686015460608501818152935191959115611ca35750825181511015611c9a57611c2290518351612e69565b82525b611c35818d8d0151168751612e69565b865260001983510183528a51168952600c8b526040892091519283835551948560018401555160028301555192839101557f879d967178645d9838c4868b727eeb76eac7b58b1704a13c79003756f09f09938960065492604051908152a43880611a4a565b50898252611c25565b611cae915190612e46565b8252611c25565b905038611a44565b935060018060801b03611cdd816040880151168260608901511690612f1d565b164210611ceb5787936119fe565b60405163342ad40160e11b8152600490fd5b611d14929650803d10610bb657610ba68183612ba2565b9338806119ec565b6040919350611d3790863d8811610be757610bd68183612ba2565b90509290611998565b604051634c672b8560e11b8152600490fd5b90508381813d8311611d80575b611d698183612ba2565b810103126103a657611d7a90612e89565b38611962565b503d611d5f565b6040513d88823e3d90fd5b50346101c6576040602091611da636612ad8565b9082526008845282822090825283522054604051908152f35b50346101c657806003193601126101c6576020611e26611dff7f000000000000000000000000000000000000000000000000000000000000000042612e69565b7f000000000000000000000000000000000000000000000000000000000000000090612efd565b604051908152f35b50346101c657806003193601126101c65760ff60209154166040519015158152f35b50346101c657806003193601126101c6576040517f00000000000000000000000000000000000000000000000000000000000000006001600160a01b03168152602090f35b50346101c657806003193601126101c6576001546001600160a01b0380821633819003611f15578354918260081c167f8be0079c531659141344cd1fd0a4f28419497f9722a3daafe3b4186f6b6457e08580a3610100600160a81b031916600882901b610100600160a81b03161782556001600160a01b03191660015580f35b606460405162461bcd60e51b815260206004820152602060248201527f4f776e61626c653a2063616c6c657220213d2070656e64696e67206f776e65726044820152fd5b50346101c657806003193601126101c6576020600d54604051908152f35b50346101c657806003193601126101c65760206040517f00000000000000000000000000000000000000000000000000000000000000008152f35b50346101c6576040602091611fc636612ad8565b9082526009845282822090825283522054604051908152f35b50346101c65760203660031901126101c657604060609160043581526007602052206001815491015460ff604051928181161515845260081c16151560208301526040820152f35b50346101c657806003193601126101c6576020600554604051908152f35b50346101c657806003193601126101c65760405160009060035461206881612aee565b8083526001918083169081156120ff57506001146120a5575b6104c38361209181870382612ba2565b604051918291602083526020830190612c69565b6003600090815260209450917fc2575a0e9e593c00f959f8c92f12db2869c3395a3b0502d05e2516446f71f85b5b8284106120ec5750505081019091019061209181612081565b80548585018701529285019281016120d3565b6104c3955061209193506020915091849260ff191682840152151560051b8201019350612081565b50346101c65760203660031901126101c65760406080916004358152600c602052208054906001810154906003600282015491015491604051938452602084015260408301526060820152f35b50346101c657604060209161218836612ad8565b908252600e845282822090825283522054604051908152f35b50346101c657806003193601126101c6576040516329c2e7c360e21b81526001600160a01b03906020816004817f000000000000000000000000000000000000000000000000000000000000000086165afa9081156122ca578391612299575b507f0000000000000000000000000000000000000000000000000000000000000000036122875781907f000000000000000000000000000000000000000000000000000000000000000016803b156122845781906004604051809481936307ab01c760e21b83525af180156109b857612278575080f35b61228190612b59565b80f35b50fd5b6040516333d2a5dd60e21b8152600490fd5b90506020813d82116122c2575b816122b360209383612ba2565b81010312611b61575138612201565b3d91506122a6565b6040513d85823e3d90fd5b50346101c65760403660031901126101c6576122ef612a95565b6001600160401b0390602435828111610d5e57612310903690600401612aab565b9160018060a01b039061232a82875460081c163314612cd3565b16928360018060a01b03196004541617600455821161247157600361234f8154612aee565b601f811161242c575b508285601f82116001146123c45786916123b9575b5060001984831b1c1916600184901b1790555b8160405192839283378101848152039020907f9b50fe786df475d101ca932bdbd73b94ccd27d5ca5677a776bca1d6dc52afb768380a380f35b90508201353861236d565b828752602080882092508590601f1982169089905b82821061240f575050106123f7575b5050600183811b019055612380565b83013560001985841b60f8161c1916905538806123e8565b80929350600185968293968a0135815501950193018792916123d9565b81865260208620601f850160051c81019160208610612467575b601f0160051c01905b81811061245c5750612358565b86815560010161244f565b9091508190612446565b634e487b7160e01b84526041600452602484fd5b50346101c657806003193601126101c6576124c3611dff7f000000000000000000000000000000000000000000000000000000000000000042612e69565b906006805480931115612945576040516329efffff60e21b81526001600160a01b037f00000000000000000000000000000000000000000000000000000000000000008116949092918481600481895afa908115611ba75785916128b5575b5051156128a35761253290612eee565b815560405163a2a4b99b60e01b8152916020908184600481887f000000000000000000000000000000000000000000000000000000000000000086165af1938415611ba7578594612874575b50604051632ecdcddd60e11b8152958587600481845afa968715611d875786976127a2575b50958260049760405198898092630b3c727b60e11b82525afa968715611d87578697612773575b50805190865b8281106126ff57505050849550600454169060405194859163d6d7d52560e01b835280600484015281906003549061260782612aee565b9182602487015260019081811690816000146126d7575060011461269a575b5050506040939183809203925af1928315611b655784908594612676575b508360055515610a8457547f3bb7b347508b7c148ec2094ac60d2e3d8b7595421025643f08b45cb78b326b588480a480f35b905061269291935060403d604011610ac357610ab38183612ba2565b929038612644565b600385528185208594505b8385106126bd57505050508201604401818380612626565b80548b8601604401528a96508b95509382019381016126a5565b60ff191660448089019190915293151560051b87019093019350849250859150819050612626565b8061271b8a896040612713600196886133de565b510151613472565b61272582856133de565b51519088548b526009885260408b20828c52885260408b2055875460001981018b52600e885260408b20908b5260408b20918b52875260408a205490875260408a20908154019055016125d0565b9096508281813d831161279b575b61278b8183612ba2565b810103126103a6575195386125ca565b503d612781565b96503d8087893e6127b38189612ba2565b870196838189031261286c578051906001600160401b038211612870570187601f8201121561286c5780516127e781612fce565b986127f56040519a8b612ba2565b818a5285808b019260071b84010192818411610d5a578601915b8383106128205750505050826125a3565b608083830312610d5a578660809160405161283a81612b28565b85518152828601518382015260408601516040820152606061285d818801612e89565b9082015281520192019161280f565b8680fd5b8780fd5b9093508181813d831161289c575b61288c8183612ba2565b810103126109b45751923861257e565b503d612882565b60405163fb83203960e01b8152600490fd5b90503d8086833e6128c68183612ba2565b810190602090818184031261286c578051906001600160401b03821161287057019180601f8401121561286c5782516128fe81612fce565b9361290c6040519586612ba2565b818552838086019260051b820101928311610b5e578301905b828210612936575050505038612522565b81518152908301908301612925565b604051636fed7d8560e01b8152600490fd5b50346101c65760203660031901126101c6576020611e26600435612d1e565b50346101c65760603660031901126101c657612990612a95565b602435908115158203611b61576044358015158103610d5e5760018060a01b03926129c284865460081c163314612cd3565b15612a805782821690811590811591612a78575b5015612a3b578354928360081c167f8be0079c531659141344cd1fd0a4f28419497f9722a3daafe3b4186f6b6457e08580a3610100600160a81b031990911660089190911b610100600160a81b0316178155600180546001600160a01b031916905580f35b60405162461bcd60e51b81526020600482015260156024820152744f776e61626c653a207a65726f206164647265737360581b6044820152606490fd5b9050386129d6565b501660018060a01b0319600154161760015580f35b600435906001600160a01b03821682036103aa57565b9181601f840112156103aa578235916001600160401b0383116103aa57602083818601950101116103aa57565b60409060031901126103aa576004359060243590565b90600182811c92168015612b1e575b6020831014612b0857565b634e487b7160e01b600052602260045260246000fd5b91607f1691612afd565b608081019081106001600160401b03821117612b4357604052565b634e487b7160e01b600052604160045260246000fd5b6001600160401b038111612b4357604052565b606081019081106001600160401b03821117612b4357604052565b604081019081106001600160401b03821117612b4357604052565b90601f801991011681019081106001600160401b03821117612b4357604052565b9060405191826000825492612bd784612aee565b908184526001948581169081600014612c465750600114612c03575b5050612c0192500383612ba2565b565b9093915060005260209081600020936000915b818310612c2e575050612c0193508201013880612bf3565b85548884018501529485019487945091830191612c16565b915050612c0194506020925060ff191682840152151560051b8201013880612bf3565b919082519283825260005b848110612c95575050826000602080949584010152601f8019910116010190565b602081830181015184830182015201612c74565b60609060031901126103aa57600435906024356001600160a01b03811681036103aa579060443590565b15612cda57565b606460405162461bcd60e51b815260206004820152602060248201527f4f776e61626c653a2063616c6c6572206973206e6f7420746865206f776e65726044820152fd5b8015612d65575b7f000000000000000000000000000000000000000000000000000000000000000090818110612d5e57612d5b91611dff91612e69565b90565b5050600090565b5042612d25565b51906001600160a01b03821682036103aa57565b51906001600160801b03821682036103aa57565b8092910391608083126103aa576060612dac82612d6c565b93601f1901126103aa57606060405191612dc583612b6c565b612dd160208201612d80565b8352612ddf60408201612d80565b60208401520151604082015290565b908160809103126103aa57612e3e606060405192612e0b84612b28565b612e1481612d80565b8452612e2260208201612d80565b6020850152612e3360408201612d80565b604085015201612d80565b606082015290565b91908201809211612e5357565b634e487b7160e01b600052601160045260246000fd5b91908203918211612e5357565b81810292918115918404141715612e5357565b519081151582036103aa57565b91908260409103126103aa576020612ead83612e89565b92015190565b908160209103126103aa575160ff811681036103aa5790565b6001600160a01b03918216815291166020820152604081019190915260600190565b6000198114612e535760010190565b8115612f07570490565b634e487b7160e01b600052601260045260246000fd5b6001600160801b039182169082160191908211612e5357565b60ff60005416612f4257565b60405162461bcd60e51b815260206004820152601060248201526f14185d5cd8589b194e881c185d5cd95960821b6044820152606490fd5b6002805414612f895760028055565b60405162461bcd60e51b815260206004820152601f60248201527f5265656e7472616e637947756172643a207265656e7472616e742063616c6c006044820152606490fd5b6001600160401b038111612b435760051b60200190565b60018060a01b031690604051612ffa81612b87565b6020928382527f5361666545524332303a206c6f772d6c6576656c2063616c6c206661696c6564848301526000808486829651910182855af13d1561311d573d916001600160401b03831161310957906130749392916040519261306788601f19601f8401160185612ba2565b83523d868885013e613127565b908151908382159283156130e7575b5050509050156130905750565b6084906040519062461bcd60e51b82526004820152602a60248201527f5361666545524332303a204552433230206f7065726174696f6e20646964206e6044820152691bdd081cdd58d8d9595960b21b6064820152fd5b8480929394500103126101c65750816131009101612e89565b80388381613083565b634e487b7160e01b85526041600452602485fd5b9061307492916060915b91929015613189575081511561313b575090565b3b156131445790565b60405162461bcd60e51b815260206004820152601d60248201527f416464726573733a2063616c6c20746f206e6f6e2d636f6e74726163740000006044820152606490fd5b82519091501561319c5750805190602001fd5b60405162461bcd60e51b8152602060048201529081906131c0906024830190612c69565b0390fd5b5160405163089fd39760e41b81526001600160801b0390911660048201526001600160a01b037f0000000000000000000000000000000000000000000000000000000000000000811691602081602481865afa9081156132905760009161329c575b50604051633873b0cd60e01b81529116600482015290608090829060249082905afa9081156132905760009161325a575090565b906080823d8211613288575b8161327360809383612ba2565b810103126101c657506060612d5b9101612e89565b3d9150613266565b6040513d6000823e3d90fd5b6020813d82116132cf575b816132b460209383612ba2565b810103126109c357519082821682036101c657506024613226565b3d91506132a7565b6040810180519091906001600160801b0390811615611d40576132f9826131c4565b61334857613318611dff92826060816133409751169201511690612f1d565b167f000000000000000000000000000000000000000000000000000000000000000090612e69565b600654111590565b604051631eea2bfb60e11b8152600490fd5b604d8111612e5357600a0a90565b9181156133cc57826133806114f79261338695613408565b90612e69565b90601281116133ad576012039060128211612e53576133a7612d5b9261335a565b90612efd565b601119810191908211612e53576133c6612d5b9261335a565b90612e76565b604051636023516560e01b8152600490fd5b80518210156133f25760209160051b010190565b634e487b7160e01b600052603260045260246000fd5b906000198183098183029182808310920391808303921461346657620f424090818310156103aa577fde8f6cefed634549b62c77574f722e1ac57e23f24d8fd5cb790fb65668c26139940990828211900360fa1b910360061c170290565b5050620f424091500490565b9180156103aa5760001982840992828102928380861095039480860395146134ee57828510156103aa578291096001821901821680920460028082600302188083028203028083028203028083028203028083028203028083028203028092029003029360018380600003040190848311900302920304170290565b505091500490565b8115613541576207a1209182820291808304841490151715612e535761351b91612efd565b60008282111561352a57505090565b5061c35091508181101561353c575090565b905090565b50506207a1209056fea26469706673582212203113cfd83f2e68b802940f188acfa393b1e9af23e59ffaba47a8e07f2a33e07964736f6c63430008130033",
  "linkReferences": {},
  "deployedLinkReferences": {}
}