{
  "_format": "hh-sol-artifact-1",
  "contractName": "TapOFT",
  "sourceName": "contracts/tokens/TapOFT.sol",
  "abi": [
    {
      "inputs": [
        {
          "internalType": "address",
          "name": "_lzEndpoint",
          "type": "address"
        },
        {
          "internalType": "address",
          "name": "_contributors",
          "type": "address"
        },
        {
          "internalType": "address",
          "name": "_earlySupporters",
          "type": "address"
        },
        {
          "internalType": "address",
          "name": "_supporters",
          "type": "address"
        },
        {
          "internalType": "address",
          "name": "_lbp",
          "type": "address"
        },
        {
          "internalType": "address",
          "name": "_dao",
          "type": "address"
        },
        {
          "internalType": "address",
          "name": "_airdrop",
          "type": "address"
        },
        {
          "internalType": "uint256",
          "name": "_governanceChainId",
          "type": "uint256"
        },
        {
          "internalType": "address",
          "name": "_conservator",
          "type": "address"
        }
      ],
      "stateMutability": "nonpayable",
      "type": "constructor"
    },
    {
      "anonymous": false,
      "inputs": [
        {
          "indexed": true,
          "internalType": "address",
          "name": "owner",
          "type": "address"
        },
        {
          "indexed": true,
          "internalType": "address",
          "name": "spender",
          "type": "address"
        },
        {
          "indexed": false,
          "internalType": "uint256",
          "name": "value",
          "type": "uint256"
        }
      ],
      "name": "Approval",
      "type": "event"
    },
    {
      "anonymous": false,
      "inputs": [
        {
          "indexed": true,
          "internalType": "address",
          "name": "_from",
          "type": "address"
        },
        {
          "indexed": true,
          "internalType": "uint256",
          "name": "_amount",
          "type": "uint256"
        }
      ],
      "name": "Burned",
      "type": "event"
    },
    {
      "anonymous": false,
      "inputs": [
        {
          "indexed": true,
          "internalType": "uint16",
          "name": "_srcChainId",
          "type": "uint16"
        },
        {
          "indexed": true,
          "internalType": "bytes",
          "name": "_payload",
          "type": "bytes"
        },
        {
          "indexed": true,
          "internalType": "bytes",
          "name": "_reason",
          "type": "bytes"
        }
      ],
      "name": "CallFailedBytes",
      "type": "event"
    },
    {
      "anonymous": false,
      "inputs": [
        {
          "indexed": true,
          "internalType": "uint16",
          "name": "_srcChainId",
          "type": "uint16"
        },
        {
          "indexed": true,
          "internalType": "bytes",
          "name": "_payload",
          "type": "bytes"
        },
        {
          "indexed": true,
          "internalType": "string",
          "name": "_reason",
          "type": "string"
        }
      ],
      "name": "CallFailedStr",
      "type": "event"
    },
    {
      "anonymous": false,
      "inputs": [
        {
          "indexed": true,
          "internalType": "uint16",
          "name": "_srcChainId",
          "type": "uint16"
        },
        {
          "indexed": false,
          "internalType": "bytes",
          "name": "_srcAddress",
          "type": "bytes"
        },
        {
          "indexed": false,
          "internalType": "uint64",
          "name": "_nonce",
          "type": "uint64"
        },
        {
          "indexed": false,
          "internalType": "bytes32",
          "name": "_hash",
          "type": "bytes32"
        }
      ],
      "name": "CallOFTReceivedSuccess",
      "type": "event"
    },
    {
      "anonymous": false,
      "inputs": [
        {
          "indexed": true,
          "internalType": "uint256",
          "name": "week",
          "type": "uint256"
        },
        {
          "indexed": true,
          "internalType": "uint256",
          "name": "amount",
          "type": "uint256"
        }
      ],
      "name": "Emitted",
      "type": "event"
    },
    {
      "anonymous": false,
      "inputs": [
        {
          "indexed": true,
          "internalType": "uint256",
          "name": "_old",
          "type": "uint256"
        },
        {
          "indexed": true,
          "internalType": "uint256",
          "name": "_new",
          "type": "uint256"
        }
      ],
      "name": "GovernanceChainIdentifierUpdated",
      "type": "event"
    },
    {
      "anonymous": false,
      "inputs": [
        {
          "indexed": false,
          "internalType": "uint16",
          "name": "_srcChainId",
          "type": "uint16"
        },
        {
          "indexed": false,
          "internalType": "bytes",
          "name": "_srcAddress",
          "type": "bytes"
        },
        {
          "indexed": false,
          "internalType": "uint64",
          "name": "_nonce",
          "type": "uint64"
        },
        {
          "indexed": false,
          "internalType": "bytes",
          "name": "_payload",
          "type": "bytes"
        },
        {
          "indexed": false,
          "internalType": "bytes",
          "name": "_reason",
          "type": "bytes"
        }
      ],
      "name": "MessageFailed",
      "type": "event"
    },
    {
      "anonymous": false,
      "inputs": [
        {
          "indexed": true,
          "internalType": "address",
          "name": "_by",
          "type": "address"
        },
        {
          "indexed": true,
          "internalType": "address",
          "name": "_to",
          "type": "address"
        },
        {
          "indexed": true,
          "internalType": "uint256",
          "name": "_amount",
          "type": "uint256"
        }
      ],
      "name": "Minted",
      "type": "event"
    },
    {
      "anonymous": false,
      "inputs": [
        {
          "indexed": true,
          "internalType": "address",
          "name": "_old",
          "type": "address"
        },
        {
          "indexed": true,
          "internalType": "address",
          "name": "_new",
          "type": "address"
        }
      ],
      "name": "MinterUpdated",
      "type": "event"
    },
    {
      "anonymous": false,
      "inputs": [
        {
          "indexed": false,
          "internalType": "address",
          "name": "_address",
          "type": "address"
        }
      ],
      "name": "NonContractAddress",
      "type": "event"
    },
    {
      "anonymous": false,
      "inputs": [
        {
          "indexed": true,
          "internalType": "address",
          "name": "previousOwner",
          "type": "address"
        },
        {
          "indexed": true,
          "internalType": "address",
          "name": "newOwner",
          "type": "address"
        }
      ],
      "name": "OwnershipTransferred",
      "type": "event"
    },
    {
      "anonymous": false,
      "inputs": [
        {
          "indexed": true,
          "internalType": "bool",
          "name": "oldState",
          "type": "bool"
        },
        {
          "indexed": true,
          "internalType": "bool",
          "name": "newState",
          "type": "bool"
        }
      ],
      "name": "PausedUpdated",
      "type": "event"
    },
    {
      "anonymous": false,
      "inputs": [
        {
          "indexed": true,
          "internalType": "uint16",
          "name": "_srcChainId",
          "type": "uint16"
        },
        {
          "indexed": true,
          "internalType": "address",
          "name": "_to",
          "type": "address"
        },
        {
          "indexed": false,
          "internalType": "uint256",
          "name": "_amount",
          "type": "uint256"
        }
      ],
      "name": "ReceiveFromChain",
      "type": "event"
    },
    {
      "anonymous": false,
      "inputs": [
        {
          "indexed": false,
          "internalType": "uint16",
          "name": "_srcChainId",
          "type": "uint16"
        },
        {
          "indexed": false,
          "internalType": "bytes",
          "name": "_srcAddress",
          "type": "bytes"
        },
        {
          "indexed": false,
          "internalType": "uint64",
          "name": "_nonce",
          "type": "uint64"
        },
        {
          "indexed": false,
          "internalType": "bytes32",
          "name": "_payloadHash",
          "type": "bytes32"
        }
      ],
      "name": "RetryMessageSuccess",
      "type": "event"
    },
    {
      "anonymous": false,
      "inputs": [
        {
          "indexed": true,
          "internalType": "uint16",
          "name": "_dstChainId",
          "type": "uint16"
        },
        {
          "indexed": true,
          "internalType": "address",
          "name": "_from",
          "type": "address"
        },
        {
          "indexed": true,
          "internalType": "bytes32",
          "name": "_toAddress",
          "type": "bytes32"
        },
        {
          "indexed": false,
          "internalType": "uint256",
          "name": "_amount",
          "type": "uint256"
        }
      ],
      "name": "SendToChain",
      "type": "event"
    },
    {
      "anonymous": false,
      "inputs": [
        {
          "indexed": false,
          "internalType": "uint16",
          "name": "_dstChainId",
          "type": "uint16"
        },
        {
          "indexed": false,
          "internalType": "uint16",
          "name": "_type",
          "type": "uint16"
        },
        {
          "indexed": false,
          "internalType": "uint256",
          "name": "_minDstGas",
          "type": "uint256"
        }
      ],
      "name": "SetMinDstGas",
      "type": "event"
    },
    {
      "anonymous": false,
      "inputs": [
        {
          "indexed": false,
          "internalType": "address",
          "name": "precrime",
          "type": "address"
        }
      ],
      "name": "SetPrecrime",
      "type": "event"
    },
    {
      "anonymous": false,
      "inputs": [
        {
          "indexed": false,
          "internalType": "uint16",
          "name": "_remoteChainId",
          "type": "uint16"
        },
        {
          "indexed": false,
          "internalType": "bytes",
          "name": "_path",
          "type": "bytes"
        }
      ],
      "name": "SetTrustedRemote",
      "type": "event"
    },
    {
      "anonymous": false,
      "inputs": [
        {
          "indexed": false,
          "internalType": "uint16",
          "name": "_remoteChainId",
          "type": "uint16"
        },
        {
          "indexed": false,
          "internalType": "bytes",
          "name": "_remoteAddress",
          "type": "bytes"
        }
      ],
      "name": "SetTrustedRemoteAddress",
      "type": "event"
    },
    {
      "anonymous": false,
      "inputs": [
        {
          "indexed": false,
          "internalType": "bool",
          "name": "_useCustomAdapterParams",
          "type": "bool"
        }
      ],
      "name": "SetUseCustomAdapterParams",
      "type": "event"
    },
    {
      "anonymous": false,
      "inputs": [
        {
          "indexed": true,
          "internalType": "address",
          "name": "from",
          "type": "address"
        },
        {
          "indexed": true,
          "internalType": "address",
          "name": "to",
          "type": "address"
        },
        {
          "indexed": false,
          "internalType": "uint256",
          "name": "value",
          "type": "uint256"
        }
      ],
      "name": "Transfer",
      "type": "event"
    },
    {
      "inputs": [],
      "name": "DEFAULT_PAYLOAD_SIZE_LIMIT",
      "outputs": [
        {
          "internalType": "uint256",
          "name": "",
          "type": "uint256"
        }
      ],
      "stateMutability": "view",
      "type": "function"
    },
    {
      "inputs": [],
      "name": "DOMAIN_SEPARATOR",
      "outputs": [
        {
          "internalType": "bytes32",
          "name": "",
          "type": "bytes32"
        }
      ],
      "stateMutability": "view",
      "type": "function"
    },
    {
      "inputs": [],
      "name": "INITIAL_SUPPLY",
      "outputs": [
        {
          "internalType": "uint256",
          "name": "",
          "type": "uint256"
        }
      ],
      "stateMutability": "view",
      "type": "function"
    },
    {
      "inputs": [],
      "name": "NO_EXTRA_GAS",
      "outputs": [
        {
          "internalType": "uint256",
          "name": "",
          "type": "uint256"
        }
      ],
      "stateMutability": "view",
      "type": "function"
    },
    {
      "inputs": [],
      "name": "PT_SEND",
      "outputs": [
        {
          "internalType": "uint8",
          "name": "",
          "type": "uint8"
        }
      ],
      "stateMutability": "view",
      "type": "function"
    },
    {
      "inputs": [],
      "name": "PT_SEND_AND_CALL",
      "outputs": [
        {
          "internalType": "uint8",
          "name": "",
          "type": "uint8"
        }
      ],
      "stateMutability": "view",
      "type": "function"
    },
    {
      "inputs": [],
      "name": "WEEK",
      "outputs": [
        {
          "internalType": "uint256",
          "name": "",
          "type": "uint256"
        }
      ],
      "stateMutability": "view",
      "type": "function"
    },
    {
      "inputs": [
        {
          "internalType": "address",
          "name": "owner",
          "type": "address"
        },
        {
          "internalType": "address",
          "name": "spender",
          "type": "address"
        }
      ],
      "name": "allowance",
      "outputs": [
        {
          "internalType": "uint256",
          "name": "",
          "type": "uint256"
        }
      ],
      "stateMutability": "view",
      "type": "function"
    },
    {
      "inputs": [
        {
          "internalType": "address",
          "name": "spender",
          "type": "address"
        },
        {
          "internalType": "uint256",
          "name": "amount",
          "type": "uint256"
        }
      ],
      "name": "approve",
      "outputs": [
        {
          "internalType": "bool",
          "name": "",
          "type": "bool"
        }
      ],
      "stateMutability": "nonpayable",
      "type": "function"
    },
    {
      "inputs": [
        {
          "internalType": "address",
          "name": "account",
          "type": "address"
        }
      ],
      "name": "balanceOf",
      "outputs": [
        {
          "internalType": "uint256",
          "name": "",
          "type": "uint256"
        }
      ],
      "stateMutability": "view",
      "type": "function"
    },
    {
      "inputs": [
        {
          "internalType": "uint16",
          "name": "_srcChainId",
          "type": "uint16"
        },
        {
          "internalType": "bytes",
          "name": "_srcAddress",
          "type": "bytes"
        },
        {
          "internalType": "uint64",
          "name": "_nonce",
          "type": "uint64"
        },
        {
          "internalType": "bytes32",
          "name": "_from",
          "type": "bytes32"
        },
        {
          "internalType": "address",
          "name": "_to",
          "type": "address"
        },
        {
          "internalType": "uint256",
          "name": "_amount",
          "type": "uint256"
        },
        {
          "internalType": "bytes",
          "name": "_payload",
          "type": "bytes"
        },
        {
          "internalType": "uint256",
          "name": "_gasForCall",
          "type": "uint256"
        }
      ],
      "name": "callOnOFTReceived",
      "outputs": [],
      "stateMutability": "nonpayable",
      "type": "function"
    },
    {
      "inputs": [],
      "name": "circulatingSupply",
      "outputs": [
        {
          "internalType": "uint256",
          "name": "",
          "type": "uint256"
        }
      ],
      "stateMutability": "view",
      "type": "function"
    },
    {
      "inputs": [
        {
          "internalType": "address",
          "name": "to",
          "type": "address"
        },
        {
          "internalType": "uint256",
          "name": "tokenID",
          "type": "uint256"
        },
        {
          "internalType": "address[]",
          "name": "rewardTokens",
          "type": "address[]"
        },
        {
          "internalType": "uint16",
          "name": "lzDstChainId",
          "type": "uint16"
        },
        {
          "internalType": "address",
          "name": "zroPaymentAddress",
          "type": "address"
        },
        {
          "internalType": "bytes",
          "name": "adapterParams",
          "type": "bytes"
        },
        {
          "components": [
            {
              "internalType": "uint256",
              "name": "ethValue",
              "type": "uint256"
            },
            {
              "components": [
                {
                  "internalType": "address payable",
                  "name": "refundAddress",
                  "type": "address"
                },
                {
                  "internalType": "address",
                  "name": "zroPaymentAddress",
                  "type": "address"
                },
                {
                  "internalType": "bytes",
                  "name": "adapterParams",
                  "type": "bytes"
                }
              ],
              "internalType": "struct ICommonOFT.LzCallParams",
              "name": "callParams",
              "type": "tuple"
            }
          ],
          "internalType": "struct IRewardClaimSendFromParams[]",
          "name": "rewardClaimSendParams",
          "type": "tuple[]"
        }
      ],
      "name": "claimRewards",
      "outputs": [],
      "stateMutability": "payable",
      "type": "function"
    },
    {
      "inputs": [
        {
          "internalType": "uint16",
          "name": "",
          "type": "uint16"
        },
        {
          "internalType": "bytes",
          "name": "",
          "type": "bytes"
        },
        {
          "internalType": "uint64",
          "name": "",
          "type": "uint64"
        }
      ],
      "name": "creditedPackets",
      "outputs": [
        {
          "internalType": "bool",
          "name": "",
          "type": "bool"
        }
      ],
      "stateMutability": "view",
      "type": "function"
    },
    {
      "inputs": [],
      "name": "decimals",
      "outputs": [
        {
          "internalType": "uint8",
          "name": "",
          "type": "uint8"
        }
      ],
      "stateMutability": "pure",
      "type": "function"
    },
    {
      "inputs": [
        {
          "internalType": "address",
          "name": "spender",
          "type": "address"
        },
        {
          "internalType": "uint256",
          "name": "subtractedValue",
          "type": "uint256"
        }
      ],
      "name": "decreaseAllowance",
      "outputs": [
        {
          "internalType": "bool",
          "name": "",
          "type": "bool"
        }
      ],
      "stateMutability": "nonpayable",
      "type": "function"
    },
    {
      "inputs": [],
      "name": "dso_supply",
      "outputs": [
        {
          "internalType": "uint256",
          "name": "",
          "type": "uint256"
        }
      ],
      "stateMutability": "view",
      "type": "function"
    },
    {
      "inputs": [
        {
          "internalType": "uint256",
          "name": "",
          "type": "uint256"
        }
      ],
      "name": "emissionForWeek",
      "outputs": [
        {
          "internalType": "uint256",
          "name": "",
          "type": "uint256"
        }
      ],
      "stateMutability": "view",
      "type": "function"
    },
    {
      "inputs": [],
      "name": "emissionsStartTime",
      "outputs": [
        {
          "internalType": "uint256",
          "name": "",
          "type": "uint256"
        }
      ],
      "stateMutability": "view",
      "type": "function"
    },
    {
      "inputs": [],
      "name": "emitForWeek",
      "outputs": [
        {
          "internalType": "uint256",
          "name": "",
          "type": "uint256"
        }
      ],
      "stateMutability": "nonpayable",
      "type": "function"
    },
    {
      "inputs": [
        {
          "internalType": "uint16",
          "name": "_dstChainId",
          "type": "uint16"
        },
        {
          "internalType": "bytes32",
          "name": "_toAddress",
          "type": "bytes32"
        },
        {
          "internalType": "uint256",
          "name": "_amount",
          "type": "uint256"
        },
        {
          "internalType": "bytes",
          "name": "_payload",
          "type": "bytes"
        },
        {
          "internalType": "uint64",
          "name": "_dstGasForCall",
          "type": "uint64"
        },
        {
          "internalType": "bool",
          "name": "_useZro",
          "type": "bool"
        },
        {
          "internalType": "bytes",
          "name": "_adapterParams",
          "type": "bytes"
        }
      ],
      "name": "estimateSendAndCallFee",
      "outputs": [
        {
          "internalType": "uint256",
          "name": "nativeFee",
          "type": "uint256"
        },
        {
          "internalType": "uint256",
          "name": "zroFee",
          "type": "uint256"
        }
      ],
      "stateMutability": "view",
      "type": "function"
    },
    {
      "inputs": [
        {
          "internalType": "uint16",
          "name": "_dstChainId",
          "type": "uint16"
        },
        {
          "internalType": "bytes32",
          "name": "_toAddress",
          "type": "bytes32"
        },
        {
          "internalType": "uint256",
          "name": "_amount",
          "type": "uint256"
        },
        {
          "internalType": "bool",
          "name": "_useZro",
          "type": "bool"
        },
        {
          "internalType": "bytes",
          "name": "_adapterParams",
          "type": "bytes"
        }
      ],
      "name": "estimateSendFee",
      "outputs": [
        {
          "internalType": "uint256",
          "name": "nativeFee",
          "type": "uint256"
        },
        {
          "internalType": "uint256",
          "name": "zroFee",
          "type": "uint256"
        }
      ],
      "stateMutability": "view",
      "type": "function"
    },
    {
      "inputs": [
        {
          "internalType": "address",
          "name": "_to",
          "type": "address"
        },
        {
          "internalType": "uint256",
          "name": "_amount",
          "type": "uint256"
        }
      ],
      "name": "extractTAP",
      "outputs": [],
      "stateMutability": "nonpayable",
      "type": "function"
    },
    {
      "inputs": [
        {
          "internalType": "uint16",
          "name": "",
          "type": "uint16"
        },
        {
          "internalType": "bytes",
          "name": "",
          "type": "bytes"
        },
        {
          "internalType": "uint64",
          "name": "",
          "type": "uint64"
        }
      ],
      "name": "failedMessages",
      "outputs": [
        {
          "internalType": "bytes32",
          "name": "",
          "type": "bytes32"
        }
      ],
      "stateMutability": "view",
      "type": "function"
    },
    {
      "inputs": [
        {
          "internalType": "uint16",
          "name": "_srcChainId",
          "type": "uint16"
        },
        {
          "internalType": "bytes",
          "name": "_srcAddress",
          "type": "bytes"
        }
      ],
      "name": "forceResumeReceive",
      "outputs": [],
      "stateMutability": "nonpayable",
      "type": "function"
    },
    {
      "inputs": [
        {
          "internalType": "uint16",
          "name": "_version",
          "type": "uint16"
        },
        {
          "internalType": "uint16",
          "name": "_chainId",
          "type": "uint16"
        },
        {
          "internalType": "address",
          "name": "",
          "type": "address"
        },
        {
          "internalType": "uint256",
          "name": "_configType",
          "type": "uint256"
        }
      ],
      "name": "getConfig",
      "outputs": [
        {
          "internalType": "bytes",
          "name": "",
          "type": "bytes"
        }
      ],
      "stateMutability": "view",
      "type": "function"
    },
    {
      "inputs": [],
      "name": "getCurrentWeek",
      "outputs": [
        {
          "internalType": "uint256",
          "name": "",
          "type": "uint256"
        }
      ],
      "stateMutability": "view",
      "type": "function"
    },
    {
      "inputs": [],
      "name": "getCurrentWeekEmission",
      "outputs": [
        {
          "internalType": "uint256",
          "name": "",
          "type": "uint256"
        }
      ],
      "stateMutability": "view",
      "type": "function"
    },
    {
      "inputs": [
        {
          "internalType": "uint16",
          "name": "_remoteChainId",
          "type": "uint16"
        }
      ],
      "name": "getTrustedRemoteAddress",
      "outputs": [
        {
          "internalType": "bytes",
          "name": "",
          "type": "bytes"
        }
      ],
      "stateMutability": "view",
      "type": "function"
    },
    {
      "inputs": [],
      "name": "governanceChainIdentifier",
      "outputs": [
        {
          "internalType": "uint256",
          "name": "",
          "type": "uint256"
        }
      ],
      "stateMutability": "view",
      "type": "function"
    },
    {
      "inputs": [
        {
          "internalType": "address",
          "name": "spender",
          "type": "address"
        },
        {
          "internalType": "uint256",
          "name": "addedValue",
          "type": "uint256"
        }
      ],
      "name": "increaseAllowance",
      "outputs": [
        {
          "internalType": "bool",
          "name": "",
          "type": "bool"
        }
      ],
      "stateMutability": "nonpayable",
      "type": "function"
    },
    {
      "inputs": [
        {
          "internalType": "uint16",
          "name": "_srcChainId",
          "type": "uint16"
        },
        {
          "internalType": "bytes",
          "name": "_srcAddress",
          "type": "bytes"
        }
      ],
      "name": "isTrustedRemote",
      "outputs": [
        {
          "internalType": "bool",
          "name": "",
          "type": "bool"
        }
      ],
      "stateMutability": "view",
      "type": "function"
    },
    {
      "inputs": [
        {
          "internalType": "address",
          "name": "to",
          "type": "address"
        },
        {
          "internalType": "uint256",
          "name": "amount",
          "type": "uint256"
        },
        {
          "internalType": "uint256",
          "name": "duration",
          "type": "uint256"
        },
        {
          "internalType": "uint16",
          "name": "lzDstChainId",
          "type": "uint16"
        },
        {
          "internalType": "address",
          "name": "zroPaymentAddress",
          "type": "address"
        },
        {
          "internalType": "bytes",
          "name": "adapterParams",
          "type": "bytes"
        }
      ],
      "name": "lockTwTapPosition",
      "outputs": [],
      "stateMutability": "payable",
      "type": "function"
    },
    {
      "inputs": [],
      "name": "lzEndpoint",
      "outputs": [
        {
          "internalType": "contract ILayerZeroEndpoint",
          "name": "",
          "type": "address"
        }
      ],
      "stateMutability": "view",
      "type": "function"
    },
    {
      "inputs": [
        {
          "internalType": "uint16",
          "name": "_srcChainId",
          "type": "uint16"
        },
        {
          "internalType": "bytes",
          "name": "_srcAddress",
          "type": "bytes"
        },
        {
          "internalType": "uint64",
          "name": "_nonce",
          "type": "uint64"
        },
        {
          "internalType": "bytes",
          "name": "_payload",
          "type": "bytes"
        }
      ],
      "name": "lzReceive",
      "outputs": [],
      "stateMutability": "nonpayable",
      "type": "function"
    },
    {
      "inputs": [
        {
          "internalType": "uint16",
          "name": "",
          "type": "uint16"
        },
        {
          "internalType": "uint16",
          "name": "",
          "type": "uint16"
        }
      ],
      "name": "minDstGasLookup",
      "outputs": [
        {
          "internalType": "uint256",
          "name": "",
          "type": "uint256"
        }
      ],
      "stateMutability": "view",
      "type": "function"
    },
    {
      "inputs": [
        {
          "internalType": "uint256",
          "name": "",
          "type": "uint256"
        }
      ],
      "name": "mintedInWeek",
      "outputs": [
        {
          "internalType": "uint256",
          "name": "",
          "type": "uint256"
        }
      ],
      "stateMutability": "view",
      "type": "function"
    },
    {
      "inputs": [],
      "name": "minter",
      "outputs": [
        {
          "internalType": "address",
          "name": "",
          "type": "address"
        }
      ],
      "stateMutability": "view",
      "type": "function"
    },
    {
      "inputs": [],
      "name": "name",
      "outputs": [
        {
          "internalType": "string",
          "name": "",
          "type": "string"
        }
      ],
      "stateMutability": "view",
      "type": "function"
    },
    {
      "inputs": [
        {
          "internalType": "uint16",
          "name": "_srcChainId",
          "type": "uint16"
        },
        {
          "internalType": "bytes",
          "name": "_srcAddress",
          "type": "bytes"
        },
        {
          "internalType": "uint64",
          "name": "_nonce",
          "type": "uint64"
        },
        {
          "internalType": "bytes",
          "name": "_payload",
          "type": "bytes"
        }
      ],
      "name": "nonblockingLzReceive",
      "outputs": [],
      "stateMutability": "nonpayable",
      "type": "function"
    },
    {
      "inputs": [
        {
          "internalType": "address",
          "name": "owner",
          "type": "address"
        }
      ],
      "name": "nonces",
      "outputs": [
        {
          "internalType": "uint256",
          "name": "",
          "type": "uint256"
        }
      ],
      "stateMutability": "view",
      "type": "function"
    },
    {
      "inputs": [],
      "name": "owner",
      "outputs": [
        {
          "internalType": "address",
          "name": "",
          "type": "address"
        }
      ],
      "stateMutability": "view",
      "type": "function"
    },
    {
      "inputs": [],
      "name": "paused",
      "outputs": [
        {
          "internalType": "bool",
          "name": "",
          "type": "bool"
        }
      ],
      "stateMutability": "view",
      "type": "function"
    },
    {
      "inputs": [
        {
          "internalType": "uint16",
          "name": "",
          "type": "uint16"
        }
      ],
      "name": "payloadSizeLimitLookup",
      "outputs": [
        {
          "internalType": "uint256",
          "name": "",
          "type": "uint256"
        }
      ],
      "stateMutability": "view",
      "type": "function"
    },
    {
      "inputs": [
        {
          "internalType": "address",
          "name": "owner",
          "type": "address"
        },
        {
          "internalType": "address",
          "name": "spender",
          "type": "address"
        },
        {
          "internalType": "uint256",
          "name": "value",
          "type": "uint256"
        },
        {
          "internalType": "uint256",
          "name": "deadline",
          "type": "uint256"
        },
        {
          "internalType": "uint8",
          "name": "v",
          "type": "uint8"
        },
        {
          "internalType": "bytes32",
          "name": "r",
          "type": "bytes32"
        },
        {
          "internalType": "bytes32",
          "name": "s",
          "type": "bytes32"
        }
      ],
      "name": "permit",
      "outputs": [],
      "stateMutability": "nonpayable",
      "type": "function"
    },
    {
      "inputs": [],
      "name": "precrime",
      "outputs": [
        {
          "internalType": "address",
          "name": "",
          "type": "address"
        }
      ],
      "stateMutability": "view",
      "type": "function"
    },
    {
      "inputs": [
        {
          "internalType": "uint256",
          "name": "_amount",
          "type": "uint256"
        }
      ],
      "name": "removeTAP",
      "outputs": [],
      "stateMutability": "nonpayable",
      "type": "function"
    },
    {
      "inputs": [],
      "name": "renounceOwnership",
      "outputs": [],
      "stateMutability": "nonpayable",
      "type": "function"
    },
    {
      "inputs": [
        {
          "internalType": "uint256",
          "name": "amount",
          "type": "uint256"
        },
        {
          "internalType": "address",
          "name": "to",
          "type": "address"
        }
      ],
      "name": "rescueEth",
      "outputs": [],
      "stateMutability": "nonpayable",
      "type": "function"
    },
    {
      "inputs": [
        {
          "internalType": "uint16",
          "name": "_srcChainId",
          "type": "uint16"
        },
        {
          "internalType": "bytes",
          "name": "_srcAddress",
          "type": "bytes"
        },
        {
          "internalType": "uint64",
          "name": "_nonce",
          "type": "uint64"
        },
        {
          "internalType": "bytes",
          "name": "_payload",
          "type": "bytes"
        }
      ],
      "name": "retryMessage",
      "outputs": [],
      "stateMutability": "payable",
      "type": "function"
    },
    {
      "inputs": [
        {
          "internalType": "address",
          "name": "_from",
          "type": "address"
        },
        {
          "internalType": "uint16",
          "name": "_dstChainId",
          "type": "uint16"
        },
        {
          "internalType": "bytes32",
          "name": "_toAddress",
          "type": "bytes32"
        },
        {
          "internalType": "uint256",
          "name": "_amount",
          "type": "uint256"
        },
        {
          "internalType": "bytes",
          "name": "_payload",
          "type": "bytes"
        },
        {
          "internalType": "uint64",
          "name": "_dstGasForCall",
          "type": "uint64"
        },
        {
          "components": [
            {
              "internalType": "address payable",
              "name": "refundAddress",
              "type": "address"
            },
            {
              "internalType": "address",
              "name": "zroPaymentAddress",
              "type": "address"
            },
            {
              "internalType": "bytes",
              "name": "adapterParams",
              "type": "bytes"
            }
          ],
          "internalType": "struct ICommonOFT.LzCallParams",
          "name": "_callParams",
          "type": "tuple"
        }
      ],
      "name": "sendAndCall",
      "outputs": [],
      "stateMutability": "payable",
      "type": "function"
    },
    {
      "inputs": [
        {
          "internalType": "address",
          "name": "_from",
          "type": "address"
        },
        {
          "internalType": "uint16",
          "name": "_dstChainId",
          "type": "uint16"
        },
        {
          "internalType": "bytes32",
          "name": "_toAddress",
          "type": "bytes32"
        },
        {
          "internalType": "uint256",
          "name": "_amount",
          "type": "uint256"
        },
        {
          "components": [
            {
              "internalType": "address payable",
              "name": "refundAddress",
              "type": "address"
            },
            {
              "internalType": "address",
              "name": "zroPaymentAddress",
              "type": "address"
            },
            {
              "internalType": "bytes",
              "name": "adapterParams",
              "type": "bytes"
            }
          ],
          "internalType": "struct ICommonOFT.LzCallParams",
          "name": "_callParams",
          "type": "tuple"
        }
      ],
      "name": "sendFrom",
      "outputs": [],
      "stateMutability": "payable",
      "type": "function"
    },
    {
      "inputs": [
        {
          "internalType": "uint16",
          "name": "_version",
          "type": "uint16"
        },
        {
          "internalType": "uint16",
          "name": "_chainId",
          "type": "uint16"
        },
        {
          "internalType": "uint256",
          "name": "_configType",
          "type": "uint256"
        },
        {
          "internalType": "bytes",
          "name": "_config",
          "type": "bytes"
        }
      ],
      "name": "setConfig",
      "outputs": [],
      "stateMutability": "nonpayable",
      "type": "function"
    },
    {
      "inputs": [
        {
          "internalType": "uint256",
          "name": "_identifier",
          "type": "uint256"
        }
      ],
      "name": "setGovernanceChainIdentifier",
      "outputs": [],
      "stateMutability": "nonpayable",
      "type": "function"
    },
    {
      "inputs": [
        {
          "internalType": "uint16",
          "name": "_dstChainId",
          "type": "uint16"
        },
        {
          "internalType": "uint16",
          "name": "_packetType",
          "type": "uint16"
        },
        {
          "internalType": "uint256",
          "name": "_minGas",
          "type": "uint256"
        }
      ],
      "name": "setMinDstGas",
      "outputs": [],
      "stateMutability": "nonpayable",
      "type": "function"
    },
    {
      "inputs": [
        {
          "internalType": "address",
          "name": "_minter",
          "type": "address"
        }
      ],
      "name": "setMinter",
      "outputs": [],
      "stateMutability": "nonpayable",
      "type": "function"
    },
    {
      "inputs": [
        {
          "internalType": "uint16",
          "name": "_dstChainId",
          "type": "uint16"
        },
        {
          "internalType": "uint256",
          "name": "_size",
          "type": "uint256"
        }
      ],
      "name": "setPayloadSizeLimit",
      "outputs": [],
      "stateMutability": "nonpayable",
      "type": "function"
    },
    {
      "inputs": [
        {
          "internalType": "address",
          "name": "_precrime",
          "type": "address"
        }
      ],
      "name": "setPrecrime",
      "outputs": [],
      "stateMutability": "nonpayable",
      "type": "function"
    },
    {
      "inputs": [
        {
          "internalType": "uint16",
          "name": "_version",
          "type": "uint16"
        }
      ],
      "name": "setReceiveVersion",
      "outputs": [],
      "stateMutability": "nonpayable",
      "type": "function"
    },
    {
      "inputs": [
        {
          "internalType": "uint16",
          "name": "_version",
          "type": "uint16"
        }
      ],
      "name": "setSendVersion",
      "outputs": [],
      "stateMutability": "nonpayable",
      "type": "function"
    },
    {
      "inputs": [
        {
          "internalType": "uint16",
          "name": "_srcChainId",
          "type": "uint16"
        },
        {
          "internalType": "bytes",
          "name": "_path",
          "type": "bytes"
        }
      ],
      "name": "setTrustedRemote",
      "outputs": [],
      "stateMutability": "nonpayable",
      "type": "function"
    },
    {
      "inputs": [
        {
          "internalType": "uint16",
          "name": "_remoteChainId",
          "type": "uint16"
        },
        {
          "internalType": "bytes",
          "name": "_remoteAddress",
          "type": "bytes"
        }
      ],
      "name": "setTrustedRemoteAddress",
      "outputs": [],
      "stateMutability": "nonpayable",
      "type": "function"
    },
    {
      "inputs": [
        {
          "internalType": "address",
          "name": "_twTap",
          "type": "address"
        }
      ],
      "name": "setTwTap",
      "outputs": [],
      "stateMutability": "nonpayable",
      "type": "function"
    },
    {
      "inputs": [
        {
          "internalType": "bool",
          "name": "_useCustomAdapterParams",
          "type": "bool"
        }
      ],
      "name": "setUseCustomAdapterParams",
      "outputs": [],
      "stateMutability": "nonpayable",
      "type": "function"
    },
    {
      "inputs": [],
      "name": "sharedDecimals",
      "outputs": [
        {
          "internalType": "uint8",
          "name": "",
          "type": "uint8"
        }
      ],
      "stateMutability": "view",
      "type": "function"
    },
    {
      "inputs": [
        {
          "internalType": "bytes4",
          "name": "interfaceId",
          "type": "bytes4"
        }
      ],
      "name": "supportsInterface",
      "outputs": [
        {
          "internalType": "bool",
          "name": "",
          "type": "bool"
        }
      ],
      "stateMutability": "view",
      "type": "function"
    },
    {
      "inputs": [],
      "name": "symbol",
      "outputs": [
        {
          "internalType": "string",
          "name": "",
          "type": "string"
        }
      ],
      "stateMutability": "view",
      "type": "function"
    },
    {
      "inputs": [
        {
          "internalType": "uint256",
          "name": "timestamp",
          "type": "uint256"
        }
      ],
      "name": "timestampToWeek",
      "outputs": [
        {
          "internalType": "uint256",
          "name": "",
          "type": "uint256"
        }
      ],
      "stateMutability": "view",
      "type": "function"
    },
    {
      "inputs": [],
      "name": "token",
      "outputs": [
        {
          "internalType": "address",
          "name": "",
          "type": "address"
        }
      ],
      "stateMutability": "view",
      "type": "function"
    },
    {
      "inputs": [],
      "name": "totalSupply",
      "outputs": [
        {
          "internalType": "uint256",
          "name": "",
          "type": "uint256"
        }
      ],
      "stateMutability": "view",
      "type": "function"
    },
    {
      "inputs": [
        {
          "internalType": "address",
          "name": "to",
          "type": "address"
        },
        {
          "internalType": "uint256",
          "name": "amount",
          "type": "uint256"
        }
      ],
      "name": "transfer",
      "outputs": [
        {
          "internalType": "bool",
          "name": "",
          "type": "bool"
        }
      ],
      "stateMutability": "nonpayable",
      "type": "function"
    },
    {
      "inputs": [
        {
          "internalType": "address",
          "name": "from",
          "type": "address"
        },
        {
          "internalType": "address",
          "name": "to",
          "type": "address"
        },
        {
          "internalType": "uint256",
          "name": "amount",
          "type": "uint256"
        }
      ],
      "name": "transferFrom",
      "outputs": [
        {
          "internalType": "bool",
          "name": "",
          "type": "bool"
        }
      ],
      "stateMutability": "nonpayable",
      "type": "function"
    },
    {
      "inputs": [
        {
          "internalType": "address",
          "name": "newOwner",
          "type": "address"
        }
      ],
      "name": "transferOwnership",
      "outputs": [],
      "stateMutability": "nonpayable",
      "type": "function"
    },
    {
      "inputs": [
        {
          "internalType": "uint16",
          "name": "",
          "type": "uint16"
        }
      ],
      "name": "trustedRemoteLookup",
      "outputs": [
        {
          "internalType": "bytes",
          "name": "",
          "type": "bytes"
        }
      ],
      "stateMutability": "view",
      "type": "function"
    },
    {
      "inputs": [],
      "name": "twTap",
      "outputs": [
        {
          "internalType": "contract TwTAP",
          "name": "",
          "type": "address"
        }
      ],
      "stateMutability": "view",
      "type": "function"
    },
    {
      "inputs": [
        {
          "internalType": "address",
          "name": "to",
          "type": "address"
        },
        {
          "internalType": "uint256",
          "name": "tokenID",
          "type": "uint256"
        },
        {
          "internalType": "uint16",
          "name": "lzDstChainId",
          "type": "uint16"
        },
        {
          "internalType": "address",
          "name": "zroPaymentAddress",
          "type": "address"
        },
        {
          "internalType": "bytes",
          "name": "adapterParams",
          "type": "bytes"
        },
        {
          "components": [
            {
              "internalType": "address payable",
              "name": "refundAddress",
              "type": "address"
            },
            {
              "internalType": "address",
              "name": "zroPaymentAddress",
              "type": "address"
            },
            {
              "internalType": "bytes",
              "name": "adapterParams",
              "type": "bytes"
            }
          ],
          "internalType": "struct ICommonOFT.LzCallParams",
          "name": "twTapSendBackAdapterParams",
          "type": "tuple"
        }
      ],
      "name": "unlockTwTapPosition",
      "outputs": [],
      "stateMutability": "payable",
      "type": "function"
    },
    {
      "inputs": [
        {
          "internalType": "bool",
          "name": "val",
          "type": "bool"
        }
      ],
      "name": "updatePause",
      "outputs": [],
      "stateMutability": "nonpayable",
      "type": "function"
    },
    {
      "inputs": [],
      "name": "useCustomAdapterParams",
      "outputs": [
        {
          "internalType": "bool",
          "name": "",
          "type": "bool"
        }
      ],
      "stateMutability": "view",
      "type": "function"
    },
    {
      "stateMutability": "payable",
      "type": "receive"
    }
  ],
  "bytecode": "0x6101c03462000a3d57601f62006a9638819003918201601f19168301916001600160401b03831184841017620007e1578084926101209460405283398101031262000a3d576200004f8162000a5e565b906200005e6020820162000a5e565b6200006c6040830162000a5e565b6200007a6060840162000a5e565b620000886080850162000a5e565b916200009760a0860162000a5e565b93620000a660c0870162000a5e565b95620000bb61010060e0830151920162000a5e565b9760405190620000cb8262000a42565b600682526515185c13d19560d21b9182602082015260405192620000ef8462000a42565b600684526020840152604051620001068162000a42565b600381526205441560ec1b602082015260405193620001258562000a42565b60018552603160f81b60208601526200013e3362000a73565b6001600160a01b038416608052600860a0528051906001600160401b038211620007e157600b5490600182811c9216801562000a32575b6020831014620009045781601f849311620009c0575b50602090601f8311600114620009315760009262000925575b50508160011b916000199060031b1c191617600b555b8051906001600160401b038211620007e157600c5490600182811c921680156200091a575b6020831014620009045781601f84931162000892575b50602090601f83116001146200080357600092620007f7575b50508160011b916000199060031b1c191617600c555b6402540be40060c0526020815191012091602081519101208261014052806101605246610100526040519260008051602062006a768339815191526020850152604084015260608301524660808301523060a083015260a082528160c081011060018060401b0360c084011117620007e15760c082016040528151602083012060e052306101205260008051602062006a76833981519152610180526a2c198d79e6ee5757d400006010556001600160a01b0316156200079957508060145546146200049a575b5050505050506101a0904282523360018060a01b03600054160362000456576001600160a01b038116156200040257620003259062000a73565b604051615f9b918262000abb83396080518281816105c6015281816108b6015281816109ff01528181610c5201528181610edd01528181610fce015281816120340152818161216901528181612c1f01528181613f5501526153dc015260a0518261199d015260c05182818161462f0152818161567e015281816157ac0152818161596901526159f0015260e05182613521015261010051826135dc015261012051826134f201526101405182613570015261016051826135960152610180518261354d01525181818161108d0152818161395c0152613dd80152f35b60405162461bcd60e51b815260206004820152602660248201527f4f776e61626c653a206e6577206f776e657220697320746865207a65726f206160448201526564647265737360d01b6064820152608490fd5b606460405162461bcd60e51b815260206004820152602060248201527f4f776e61626c653a2063616c6c6572206973206e6f7420746865206f776e65726044820152fd5b6001600160a01b031680156200075457600a546a0c685fa11e01ec6f0000008082018092116200073e57602060008051602062006a5683398151915291600093600a558484526008825260408420818154019055604051908152a36001600160a01b031680156200075457600a546a030caab724b291812c00008082018092116200073e57602060008051602062006a5683398151915291600093600a558484526008825260408420818154019055604051908152a36001600160a01b038116156200075457600a546a0a56fa5b99019a5c800000810181116200073e576a0a56fa5b99019a5c800000908101600a556001600160a01b03919091166000818152600860209081526040808320805486019055519384529192909160008051602062006a5683398151915291a36001600160a01b031680156200075457600a546a0422ca8b0a00a4250000008082018092116200073e57602060008051602062006a5683398151915291600093600a558484526008825260408420818154019055604051908152a36001600160a01b031680156200075457600a546a069e10de76676d080000008082018092116200073e57602060008051602062006a5683398151915291600093600a558484526008825260408420818154019055604051908152a36001600160a01b031680156200075457600a546a02116545850052128000008082018092116200073e57602060008051602062006a5683398151915291600093600a558484526008825260408420818154019055604051908152a36a269e4562e11e7b8c2c0000600a5403620006f957388080808080620002eb565b60405162461bcd60e51b815260206004820152601860248201527f696e697469616c20737570706c79206e6f742076616c696400000000000000006044820152606490fd5b634e487b7160e01b600052601160045260246000fd5b60405162461bcd60e51b815260206004820152601f60248201527f45524332303a206d696e7420746f20746865207a65726f2061646472657373006044820152606490fd5b60c060649162461bcd60e51b82820152602060c4820152601560e48201527f4c5a20656e64706f696e74206e6f742076616c6964000000000000000000000061010482015201fd5b634e487b7160e01b600052604160045260246000fd5b0151905038806200020e565b600c600090815293507fdf6966c971051c3d54ec59162606531493a51404a002842f56009d7e5cf4a8c791905b601f198416851062000876576001945083601f198116106200085c575b505050811b01600c5562000224565b015160001960f88460031b161c191690553880806200084d565b8181015183556020948501946001909301929091019062000830565b600c6000529091507fdf6966c971051c3d54ec59162606531493a51404a002842f56009d7e5cf4a8c7601f840160051c810160208510620008fc575b90849392915b601f830160051c82018110620008ec575050620001f5565b60008155859450600101620008d4565b5080620008ce565b634e487b7160e01b600052602260045260246000fd5b91607f1691620001df565b015190503880620001a4565b600b600090815293507f0175b7a638427703f0dbe7bb9bbf987a2551717b34e79f33b5b1008d1fa01db991905b601f1984168510620009a4576001945083601f198116106200098a575b505050811b01600b55620001ba565b015160001960f88460031b161c191690553880806200097b565b818101518355602094850194600190930192909101906200095e565b600b6000529091507f0175b7a638427703f0dbe7bb9bbf987a2551717b34e79f33b5b1008d1fa01db9601f840160051c81016020851062000a2a575b90849392915b601f830160051c8201811062000a1a5750506200018b565b6000815585945060010162000a02565b5080620009fc565b91607f169162000175565b600080fd5b604081019081106001600160401b03821117620007e157604052565b51906001600160a01b038216820362000a3d57565b600080546001600160a01b039283166001600160a01b03198216811783559216907f8be0079c531659141344cd1fd0a4f28419497f9722a3daafe3b4186f6b6457e09080a356fe6080604052600436101561001b575b361561001957600080fd5b005b60003560e01c80621d3567146104f057806301ffc9a7146104eb57806306fdde03146104e657806307546172146104e157806307e0db17146104dc578063095ea7b3146104d757806309b489fd146104d25780630df37483146104cd57806310ddb137146104c857806318160ddd146104235780631ed2bdb8146104c357806323b872dd146104be57806328d7eb97146104b95780632930fc77146104b45780632ff2e9dc146104af578063313ce567146104aa5780633644e515146104a5578063365260b4146104a0578063395093511461049b5780633d8b38f6146104965780633f1f4fa4146104915780633f8799ec1461048c57806342d65a8d1461048757806342e32e2514610482578063447705151461047857806348b0daa61461047d5780634c42899a146104785780634eb8c308146104735780635b8c41e61461046e5780635c975abb146104695780635d32a9541461046457806366ad5c8a1461045f578063695ef6bf1461045a5780636eb227ce1461045557806370a0823114610450578063715018a61461044b5780637533d7881461044657806376203b48146104415780637ecebe001461043c578063857749b01461043757806387f00abc146104325780638cfd8f5c1461042d5780638da5cb5b146104285780639358928b14610423578063950c8a741461041e57806395d89b41146104195780639bdb9812146104145780639f38369a1461040f578063a2a4b99b1461040a578063a457c2d714610405578063a4c51df514610400578063a6c3d165146103fb578063a76975cd146103f6578063a9059cbb146103f1578063b25ea8fb146103ec578063b353aaa7146103e7578063baf3292d146103e2578063bf9ff529146103dd578063c4461834146103d8578063cbed8b9c146103d3578063d1deba1f146103ce578063d505accf146103c9578063dd62ed3e146103c4578063df2a5b3b146103bf578063e6a20ae6146103ba578063eab45d9c146103b5578063eaffd49a146103b0578063eb8d72b7146103ab578063ed43dd3d146103a6578063ed629c5c146103a1578063f0c46fba1461039c578063f2fde38b14610397578063f4359ce514610392578063f5ecbdbc1461038d578063f8974de014610388578063fb98faf414610383578063fc0c546a1461037e5763fca3b5aa0361000e57612da6565b612d8b565b612d41565b612c89565b612bb5565b612b97565b612ad1565b612a3a565b6129e7565b612845565b6126fb565b612672565b612610565b6125f4565b6124ff565b6124a3565b61235c565b6121f9565b61210d565b6120f0565b6120c4565b612058565b612014565b611f8c565b611f62565b611f1e565b611d9b565b611d04565b611c45565b611c14565b611b71565b611b26565b611a7f565b611a58565b610a56565b611a31565b6119df565b6119c1565b611983565b611945565b611775565b61171e565b6115de565b6115a0565b611584565b61148f565b6113fb565b6113d4565b6113b1565b61134a565b6110b0565b611059565b611075565b61102d565b610fac565b610df8565b610dbf565b610d63565b610cc8565b610bc0565b610b9b565b610b7f565b610b59565b610b04565b610ae6565b610aa6565b610a74565b6109cd565b61098e565b610968565b610933565b610884565b61085d565b610778565b6106bb565b6105a9565b61ffff81160361050157565b600080fd5b9181601f84011215610501578235916001600160401b038311610501576020838186019501011161050157565b6001600160401b0381160361050157565b9060806003198301126105015760043561055d816104f5565b916001600160401b0390602435828111610501578161057e91600401610506565b9390939260443561058e81610533565b92606435918211610501576105a591600401610506565b9091565b34610501576105b736610544565b91929493906001600160a01b037f00000000000000000000000000000000000000000000000000000000000000001633036106765761063b610643926100199761063461061a6106158a61ffff166000526001602052604060002090565b611701565b805190818414918261066c575b5081610649575b50613e57565b3691611297565b923691611297565b92614316565b9050610656368486611297565b602081519101209060208151910120143861062e565b1515915038610627565b60405162461bcd60e51b815260206004820152601e60248201527f4c7a4170703a20696e76616c696420656e64706f696e742063616c6c657200006044820152606490fd5b346105015760203660031901126105015760043563ffffffff60e01b811680910361050157602090631f7ecdf760e01b8114908115610700575b506040519015158152f35b6301ffc9a760e01b149050386106f5565b600091031261050157565b60005b83811061072f5750506000910152565b818101518382015260200161071f565b906020916107588151809281855285808601910161071c565b601f01601f1916010190565b90602061077592818152019061073f565b90565b346105015760008060031936011261085a576040519080600b5461079b81611631565b8085529160019180831690811561083057506001146107d5575b6107d1856107c58187038261125b565b60405191829182610764565b0390f35b9250600b83527f0175b7a638427703f0dbe7bb9bbf987a2551717b34e79f33b5b1008d1fa01db95b8284106108185750505081016020016107c5826107d16107b5565b805460208587018101919091529093019281016107fd565b8695506107d1969350602092506107c594915060ff191682840152151560051b82010192936107b5565b80fd5b346105015760003660031901126105015760206001600160a01b0360135416604051908152f35b34610501576000602036600319011261085a576004356108a3816104f5565b6108ab612e6b565b816001600160a01b037f00000000000000000000000000000000000000000000000000000000000000001691823b1561091e57602461ffff918360405195869485936307e0db1760e01b85521660048401525af180156109195761090d575080f35b610916906111f2565b80f35b61345a565b5080fd5b6001600160a01b0381160361050157565b346105015760403660031901126105015761095d60043561095381610922565b60243590336130e2565b602060405160018152f35b34610501576020366003190112610501576020610986600435613953565b604051908152f35b346105015760403660031901126105015761ffff6004356109ae816104f5565b6109b6612e6b565b166000526003602052602435604060002055600080f35b34610501576000602036600319011261085a576004356109ec816104f5565b6109f4612e6b565b816001600160a01b037f00000000000000000000000000000000000000000000000000000000000000001691823b1561091e57602461ffff918360405195869485936310ddb13760e01b85521660048401525af180156109195761090d575080f35b34610501576000366003190112610501576020600a54604051908152f35b3461050157600036600319011261050157610a8e42613dd6565b60005260116020526020604060002054604051908152f35b346105015760603660031901126105015761095d600435610ac681610922565b602435610ad281610922565b60443591610ae183338361320f565b612fc5565b34610501576000366003190112610501576020601454604051908152f35b3461050157602036600319011261050157600435610b2760ff6015541615613b44565b610b318133613c85565b337f696de425f79f4a40bc6d2122ca50507f0efbeabbff86a84871b7196ab8ea8df7600080a3005b346105015760003660031901126105015760206040516a269e4562e11e7b8c2c00008152f35b3461050157600036600319011261050157602060405160128152f35b346105015760003660031901126105015760206109866134e8565b8015150361050157565b346105015760a036600319011261050157600435610bdd816104f5565b60643590610bea82610bb6565b608435906001600160401b03821161050157610c0f6106346040933690600401610506565b90610c46610c29610c21604435615967565b602435615a25565b928451958694859463040a7bb160e41b8652309060048701615577565b03816001600160a01b037f0000000000000000000000000000000000000000000000000000000000000000165afa908115610919576000908192610c97575b50604080519182526020820192909252f35b9050610cba915060403d8111610cc1575b610cb2818361125b565b810190615561565b9038610c85565b503d610ca8565b3461050157604036600319011261050157600435610ce581610922565b336000526009602052610d0f816040600020906001600160a01b0316600052602052604060002090565b546024358101809111610d265761095d91336130e2565b612ed3565b90604060031983011261050157600435610d44816104f5565b91602435906001600160401b038211610501576105a591600401610506565b3461050157602061ffff610db0610d7936610d2b565b9390911660005260018452610d9b610da260406000206040519283809261166b565b038261125b565b848151910120923691611297565b82815191012014604051908152f35b346105015760203660031901126105015761ffff600435610ddf816104f5565b1660005260036020526020604060002054604051908152f35b60c036600319011261050157600435610e1081610922565b606435604435610e1f826104f5565b608435610e2b81610922565b60a4356001600160401b03811161050157610e4a903690600401610506565b9092610e57811515613633565b610e626024356159ee565b5092610ebf610e7085615967565b60408051610366602082015233918101919091526001600160a01b038a1660608201526001600160401b03909116608082015260a08101939093528260c081015b03601f19810184528361125b565b6040516303408e4760e41b81526001600160a01b03956020826004817f00000000000000000000000000000000000000000000000000000000000000008b165afa801561091957610f4596610f3c93610f1e92610f7e575b5033615c0f565b50610f33610f2d368784611297565b896140c1565b34943691611297565b91339087613f09565b60405160008152921691339161ffff16907fd81fc9b8523134ed613870ed029d6170cbb73aa6a6bc311b9a642689fb9df59a90602090a4005b610f9e9060203d8111610fa5575b610f96818361125b565b81019061367f565b5038610f17565b503d610f8c565b3461050157610fba36610d2b565b9190610fc4612e6b565b6001600160a01b037f00000000000000000000000000000000000000000000000000000000000000001691823b1561050157604051928380926342d65a8d60e01b82528161101b60009889978894600485016142a7565b03925af180156109195761090d575080f35b346105015760203660031901126105015760043560005260126020526020604060002054604051908152f35b3461050157600036600319011261050157602060405160008152f35b346105015760003660031901126105015760206040517f00000000000000000000000000000000000000000000000000000000000000008152f35b34610501576040366003190112610501576004356110cd81610922565b602435906001600160a01b03906110e982601354163314613997565b6110f860ff6015541615613b44565b82156111975761116161110a42613dd6565b611147611121826000526011602052604060002090565b546111408761113a856000526012602052604060002090565b54612f05565b1115613b7e565b6111518584613bca565b6000526012602052604060002090565b61116c848254612f05565b905516337f9d228d69b5fdb8d273a2336f8fb8612d039631024ea9bf09c424a9503aa078f0600080a4005b60405162461bcd60e51b815260206004820152601560248201527f5441503a20416d6f756e74206e6f742076616c696400000000000000000000006044820152606490fd5b634e487b7160e01b600052604160045260246000fd5b6001600160401b03811161120557604052565b6111dc565b604081019081106001600160401b0382111761120557604052565b60c081019081106001600160401b0382111761120557604052565b608081019081106001600160401b0382111761120557604052565b90601f801991011681019081106001600160401b0382111761120557604052565b6001600160401b03811161120557601f01601f191660200190565b9291926112a38261127c565b916112b1604051938461125b565b829481845281830111610501578281602093846000960137010152565b906060600319830112610501576004356112e7816104f5565b91602435906001600160401b03821161050157806023830112156105015781602461131793600401359101611297565b9060443561077581610533565b60209061133e92826040519483868095519384920161071c565b82019081520301902090565b346105015760206113a861ffff61138783611364366112ce565b94909116600052600582526040600020826040519483868095519384920161071c565b820190815203019020906001600160401b0316600052602052604060002090565b54604051908152f35b3461050157600036600319011261050157602060ff601554166040519015158152f35b346105015760003660031901126105015760206001600160a01b03600d5416604051908152f35b346105015761140936610544565b919294939030330361142d5761063b61142792610019973691611297565b9261444c565b60405162461bcd60e51b815260206004820152602660248201527f4e6f6e626c6f636b696e674c7a4170703a2063616c6c6572206d7573742062656044820152650204c7a4170760d41b6064820152608490fd5b908160609103126105015790565b60a0366003190112610501576004356114a781610922565b6024356114b3816104f5565b604435916084356001600160401b03811161050157602061ffff6001600160a01b036115047fd81fc9b8523134ed613870ed029d6170cbb73aa6a6bc311b9a642689fb9df59a943690600401611481565b94611577863561151381610922565b611531610634878a0135996115278b610922565b604081019061535a565b61153b818b615918565b6115506115496064356159ee565b5085615c0f565b9861155c8a15156155bc565b61156e6115688b615967565b8d615a25565b9234938c613f09565b60405195865216941692a4005b3461050157600036600319011261050157602061098642613dd6565b34610501576020366003190112610501576001600160a01b036004356115c581610922565b1660005260086020526020604060002054604051908152f35b346105015760008060031936011261085a576115f8612e6b565b806001600160a01b038154811981168355167f8be0079c531659141344cd1fd0a4f28419497f9722a3daafe3b4186f6b6457e08280a380f35b90600182811c92168015611661575b602083101461164b57565b634e487b7160e01b600052602260045260246000fd5b91607f1691611640565b906000929180549161167c83611631565b9182825260019384811690816000146116de575060011461169e575b50505050565b90919394506000526020928360002092846000945b8386106116ca575050505001019038808080611698565b8054858701830152940193859082016116b3565b9294505050602093945060ff191683830152151560051b01019038808080611698565b9061171c611715926040519384809261166b565b038361125b565b565b346105015760203660031901126105015761ffff60043561173e816104f5565b1660005260016020526107d1610d9b61176160406000206040519283809261166b565b60405191829160208352602083019061073f565b60e03660031901126105015760043561178d81610922565b602435611799816104f5565b604435916001600160401b03608435818111610501576117bd903690600401610506565b919060a4356117cb81610533565b60c435838111610501576117e3903690600401611481565b91878761181c8535976117f589610922565b61181461180a6020890135986115278a610922565b9690923691611297565b943691611297565b9560ff600654166000146118a4579561ffff9561156e8661189d9b96611577966118767fd81fc9b8523134ed613870ed029d6170cbb73aa6a6bc311b9a642689fb9df59a9d978760209e6001600160a01b039d1691614182565b61188b6118846064356159ee565b508a615c0f565b9d8e6118988115156155bc565b615967565b9033615ab7565b505050909483516118f1576115777fd81fc9b8523134ed613870ed029d6170cbb73aa6a6bc311b9a642689fb9df59a9560209561ffff9561156e61189d9a6001600160a01b03978e611876565b60405162461bcd60e51b815260206004820152602660248201527f4f4654436f72653a205f61646170746572506172616d73206d7573742062652060448201526532b6b83a3c9760d11b6064820152608490fd5b34610501576020366003190112610501576001600160a01b0360043561196a81610922565b16600052600e6020526020604060002054604051908152f35b3461050157600036600319011261050157602060405160ff7f0000000000000000000000000000000000000000000000000000000000000000168152f35b34610501576000366003190112610501576020601054604051908152f35b346105015760403660031901126105015760206113a8600435611a01816104f5565b61ffff60243591611a11836104f5565b166000526002835260406000209061ffff16600052602052604060002090565b346105015760003660031901126105015760206001600160a01b0360005416604051908152f35b346105015760003660031901126105015760206001600160a01b0360045416604051908152f35b346105015760008060031936011261085a576040519080600c54611aa281611631565b808552916001918083169081156108305750600114611acb576107d1856107c58187038261125b565b9250600c83527fdf6966c971051c3d54ec59162606531493a51404a002842f56009d7e5cf4a8c75b828410611b0e5750505081016020016107c5826107d16107b5565b80546020858701810191909152909301928101611af3565b3461050157602060ff611b6561ffff61138784611b42366112ce565b94909116600052600782526040600020826040519483868095519384920161071c565b54166040519015158152f35b346105015760203660031901126105015761ffff600435611b91816104f5565b166000526001602052610d9b611bb160406000206040519283809261166b565b805115611bcf576107c581611bc96107d193516139e3565b90615d04565b60405162461bcd60e51b815260206004820152601d60248201527f4c7a4170703a206e6f20747275737465642070617468207265636f72640000006044820152606490fd5b3461050157600036600319011261050157611c3b6001600160a01b03601354163314613997565b6020610986613a1d565b3461050157604036600319011261050157600435611c6281610922565b60243590336000526009602052611c90816040600020906001600160a01b0316600052602052604060002090565b5491808310611cb157611ca5920390336130e2565b60405160018152602090f35b60405162461bcd60e51b815260206004820152602560248201527f45524332303a2064656372656173656420616c6c6f77616e63652062656c6f77604482015264207a65726f60d81b6064820152608490fd5b346105015760e036600319011261050157600435611d21816104f5565b6001600160401b039060643582811161050157611d42903690600401610506565b608492919235611d5181610533565b60a43591611d5e83610bb6565b60c43595861161050157611d79611d89963690600401610506565b959094604435906024359061538c565b60408051928352602083019190915290f35b3461050157611da936610d2b565b90611db2612e6b565b60405192602092808385870137611dde6034868381013060601b8882015203601481018852018661125b565b60009361ffff8316855260019081815260408620918751916001600160401b03831161120557611e1883611e128654611631565b866142c2565b80601f8411600114611e88575091808092611e779695948a9b7f8c0400cfe2d1199b1a725c78960bcc2a344d869b80590d0f2bd005db15a572ce9b94611e7d575b50501b916000199060031b1c19161790555b604051938493846142a7565b0390a180f35b015192503880611e59565b91939498601f198416611ea087600052602060002090565b938a905b828210611f07575050917f8c0400cfe2d1199b1a725c78960bcc2a344d869b80590d0f2bd005db15a572ce999a95939185611e7798969410611eee575b505050811b019055611e6b565b015160001960f88460031b161c19169055388080611ee1565b808886978294978701518155019601940190611ea4565b34610501576020366003190112610501576001600160a01b03600435611f4381610922565b611f4b612e6b565b166001600160a01b0319600d541617600d55600080f35b346105015760403660031901126105015761095d600435611f8281610922565b6024359033612fc5565b3461050157604036600319011261050157602435611fa981610922565b611fb1612e6b565b60008080808094600435905af1611fc6613923565b5015611fcf5780f35b60405162461bcd60e51b815260206004820152601860248201527f5461704f46543a206661696c656420746f2072657363756500000000000000006044820152606490fd5b346105015760003660031901126105015760206040516001600160a01b037f0000000000000000000000000000000000000000000000000000000000000000168152f35b34610501576020366003190112610501577f5db758e995a17ec1ad84bdef7e8c3293a0bd6179bcce400dff5d4c3d87db726b60206001600160a01b036004356120a081610922565b6120a8612e6b565b16806001600160a01b03196004541617600455604051908152a1005b346105015760203660031901126105015760043560005260116020526020604060002054604051908152f35b346105015760003660031901126105015760206040516127108152f35b346105015760803660031901126105015760043561212a816104f5565b602435612136816104f5565b6064356001600160401b03811161050157612155903690600401610506565b909261215f612e6b565b6001600160a01b037f00000000000000000000000000000000000000000000000000000000000000001690813b1561050157600080946121d6604051978896879586946332fb62e760e21b865261ffff80921660048701521660248501526044356044850152608060648501526084840191613694565b03925af18015610919576121e657005b806121f3610019926111f2565b80610711565b61220236610544565b9161ffff8694929616600052600560205261224981604060002060206040518092878b833787820190815203019020906001600160401b0316600052602052604060002090565b5491821561230b576122fa84836122f37fc264d91f3adc5588250e1551f547752ca0cfa8f6b530d243b9f9f4cab10ea8e59a60006122df846122c78e8a8f6123069f908f6122ad906122a06122c19436908d611297565b60208151910120146152cd565b61ffff166000526005602052604060002090565b916152b4565b906001600160401b0316600052602052604060002090565b556122eb36878d611297565b933691611297565b918861444c565b60405195869586615323565b0390a1005b60405162461bcd60e51b815260206004820152602360248201527f4e6f6e626c6f636b696e674c7a4170703a206e6f2073746f726564206d65737360448201526261676560e81b6064820152608490fd5b346105015760e03660031901126105015760043561237981610922565b60243561238581610922565b604435906064359260843560ff811681036105015784421161245e57610019946124599161245284876001600160a01b039361243a89610eb18786169889600052600e602052604060002080549060018201905560405196879460208601998a91959493909260a09360c08401977f6e71edae12b1b97f4d1f60370fef10105fa2faae0126114a169c64845d6126c985526001600160a01b038092166020860152166040840152606083015260808201520152565b61244d60c4359360a43593519020613602565b6132ff565b16146132b3565b6130e2565b60405162461bcd60e51b815260206004820152601d60248201527f45524332305065726d69743a206578706972656420646561646c696e650000006044820152606490fd5b346105015760403660031901126105015760206113a86004356124c581610922565b6001600160a01b03602435916124da83610922565b16600052600983526040600020906001600160a01b0316600052602052604060002090565b346105015760603660031901126105015760043561251c816104f5565b602435612528816104f5565b60443591612534612e6b565b82156125af576123067f9d5c7c0b934da8fefa9c7760c98383778a12dfbfc0c3b3106518f43fb9508ac09361ffff83166000526002602052806125898560406000209061ffff16600052602052604060002090565b556040519384938460409194939294606082019561ffff80921683521660208201520152565b60405162461bcd60e51b815260206004820152601560248201527f4c7a4170703a20696e76616c6964206d696e47617300000000000000000000006044820152606490fd5b3461050157600036600319011261050157602060405160018152f35b34610501576020366003190112610501577f1584ad594a70cbe1e6515592e1272a987d922b097ead875069cebe8b40c004a4602060043561265081610bb6565b612658612e6b565b151560ff196006541660ff821617600655604051908152a1005b346105015761010036600319011261050157600435612690816104f5565b6001600160401b0390602435828111610501576126b1903690600401610506565b9190604435906126c082610533565b6084356126cc81610922565b60c435958611610501576126e7610019963690600401610506565b94909360e4359660a435946064359361547a565b346105015761270936610d2b565b9190612713612e6b565b60009161ffff81168352600160209080825260408520916001600160401b0387116112055761274c876127468554611631565b856142c2565b8590601f88116001146127b35750918680879893611e77957ffa41487ad5d6728f0b19276fa1eddc16558578f5109fc39d2dc33c3230470dab99936127a8575b501b906000198460031b1c1916179055604051938493846142a7565b88013592503861278c565b90601f1988166127c885600052602060002090565b9288905b82821061282e575050918893917ffa41487ad5d6728f0b19276fa1eddc16558578f5109fc39d2dc33c3230470dab9899611e77969410612814575b505082811b019055611e6b565b870135600019600386901b60f8161c191690553880612807565b808685968294968c013581550195019301906127cc565b60c03660031901126105015760043561285d81610922565b604435612869816104f5565b60643561287581610922565b6001600160401b039060843582811161050157612896903690600401610506565b909260a435908111610501576128b0903690600401611481565b93604092835191612909836128fb6001600160a01b036103679b8c6020850152338a85015216998a606084015233608084015260243560a084015260c08084015260e08301906136b5565b03601f19810185528461125b565b612914368588611297565b60228151106129a3579061296a60226129729695949301519761296161ffff8416996000809d8c825260026020528b82209152602052898d20549061295a821515614029565b1015614075565b34953691611297565b923391613f09565b51600081523391907fd81fc9b8523134ed613870ed029d6170cbb73aa6a6bc311b9a642689fb9df59a90602090a480f35b855162461bcd60e51b815260206004820152601c60248201527f4c7a4170703a20696e76616c69642061646170746572506172616d73000000006044820152606490fd5b3461050157600036600319011261050157602060ff600654166040519015158152f35b9181601f84011215610501578235916001600160401b038311610501576020808501948460051b01011161050157565b60e036600319011261050157600435612a5281610922565b6001600160401b039060443582811161050157612a73903690600401612a0a565b60649291923590612a83826104f5565b608435612a8f81610922565b60a43586811161050157612aa7903690600401610506565b93909260c43597881161050157612ac5610019983690600401612a0a565b97909660243590613835565b3461050157602036600319011261050157600435612aee81610922565b612af6612e6b565b6001600160a01b038091168015612b43576000918254826001600160a01b03198216178455167f8be0079c531659141344cd1fd0a4f28419497f9722a3daafe3b4186f6b6457e08380a380f35b60405162461bcd60e51b815260206004820152602660248201527f4f776e61626c653a206e6577206f776e657220697320746865207a65726f206160448201526564647265737360d01b6064820152608490fd5b3461050157600036600319011261050157602060405162093a808152f35b3461050157608036600319011261050157600435612bd2816104f5565b60243590612bdf826104f5565b612bea604435610922565b604051633d7b2f6f60e21b815261ffff91821660048201529116602482015230604482015260648035908201526000816084817f00000000000000000000000000000000000000000000000000000000000000006001600160a01b03165afa8015610919576107d191600091612c68575b5060405191829182610764565b612c83913d8091833e612c7b818361125b565b810190614282565b38612c5b565b3461050157602036600319011261050157600435612ca681610bb6565b612cae612e6b565b60ff60155416151590801515828114612cfc57610019927f9c13c5f6c628c1c82eb2b3fd8714da5c2857dbd0ad8ab6b2074abcf81015d396600080a360ff8019601554169115151617601555565b60405162461bcd60e51b815260206004820152600f60248201527f5441503a2073616d6520737461746500000000000000000000000000000000006044820152606490fd5b3461050157602036600319011261050157600435612d5d612e6b565b806014547fffaac11a2568645519512c4cc04c5052f579642fd6e2236b58ced0451e215dc4600080a3601455005b34610501576000366003190112610501576020604051308152f35b3461050157602036600319011261050157600435612dc381610922565b612dcb612e6b565b6001600160a01b03809116908115612e2657816013549182167f1cf2de25c5bf439ac0287061c3a0fa69b3b02867d0ccfd2ded34e42577050b73600080a373ffffffffffffffffffffffffffffffffffffffff191617601355005b60405162461bcd60e51b815260206004820152601660248201527f5441503a2041646472657373206e6f742076616c6964000000000000000000006044820152606490fd5b6001600160a01b03600054163303612e7f57565b606460405162461bcd60e51b815260206004820152602060248201527f4f776e61626c653a2063616c6c6572206973206e6f7420746865206f776e65726044820152fd5b90612ece91336130e2565b600190565b634e487b7160e01b600052601160045260246000fd5b90601f8201809211610d2657565b6051019081605111610d2657565b91908201809211610d2657565b15612f1957565b60405162461bcd60e51b815260206004820152602360248201527f45524332303a207472616e7366657220746f20746865207a65726f206164647260448201526265737360e81b6064820152608490fd5b15612f7157565b60405162461bcd60e51b815260206004820152602660248201527f45524332303a207472616e7366657220616d6f756e7420657863656564732062604482015265616c616e636560d01b6064820152608490fd5b91906001600160a01b039081841692831561308f57613074827fddf252ad1be2c89b69c2b068fc378daa952ba7f163c4a11628f55a4df523b3ef9461308a941696613011881515612f12565b61305a84613032836001600160a01b03166000526008602052604060002090565b5461303f82821015612f6a565b03916001600160a01b03166000526008602052604060002090565b556001600160a01b03166000526008602052604060002090565b8054820190556040519081529081906020820190565b0390a3565b60405162461bcd60e51b815260206004820152602560248201527f45524332303a207472616e736665722066726f6d20746865207a65726f206164604482015264647265737360d81b6064820152608490fd5b906001600160a01b03918281169283156131be57821693841561316e578061315d7f8c5be1e5ebec7d5bd14f71427d1e84f3dd0314c0f7b2291e5b200ac8c7c3b9259461314561308a956001600160a01b03166000526009602052604060002090565b906001600160a01b0316600052602052604060002090565b556040519081529081906020820190565b60405162461bcd60e51b815260206004820152602260248201527f45524332303a20617070726f766520746f20746865207a65726f206164647265604482015261737360f01b6064820152608490fd5b60405162461bcd60e51b8152602060048201526024808201527f45524332303a20617070726f76652066726f6d20746865207a65726f206164646044820152637265737360e01b6064820152608490fd5b906001600160a01b0382166000526009602052613243816040600020906001600160a01b0316600052602052604060002090565b5492600184016132535750505050565b80841061326e576132659303916130e2565b38808080611698565b60405162461bcd60e51b815260206004820152601d60248201527f45524332303a20696e73756666696369656e7420616c6c6f77616e63650000006044820152606490fd5b156132ba57565b60405162461bcd60e51b815260206004820152601e60248201527f45524332305065726d69743a20696e76616c6964207369676e617475726500006044820152606490fd5b91610775939161330e93613466565b919091613336565b6005111561332057565b634e487b7160e01b600052602160045260246000fd5b61333f81613316565b806133475750565b61335081613316565b600181036133a15760405162461bcd60e51b815260206004820152601860248201527f45434453413a20696e76616c6964207369676e617475726500000000000000006044820152606490fd5b0390fd5b6133aa81613316565b600281036133f75760405162461bcd60e51b815260206004820152601f60248201527f45434453413a20696e76616c6964207369676e6174757265206c656e677468006044820152606490fd5b80613403600392613316565b1461340a57565b60405162461bcd60e51b815260206004820152602260248201527f45434453413a20696e76616c6964207369676e6174757265202773272076616c604482015261756560f01b6064820152608490fd5b6040513d6000823e3d90fd5b9291907f7fffffffffffffffffffffffffffffff5d576e7357a4501ddfe92f46681b20a083116134dc5791608094939160ff602094604051948552168484015260408301526060820152600093849182805260015afa156109195781516001600160a01b038116156134d6579190565b50600190565b50505050600090600390565b6001600160a01b037f0000000000000000000000000000000000000000000000000000000000000000163014806135d9575b15613543577f000000000000000000000000000000000000000000000000000000000000000090565b60405160208101907f000000000000000000000000000000000000000000000000000000000000000082527f000000000000000000000000000000000000000000000000000000000000000060408201527f000000000000000000000000000000000000000000000000000000000000000060608201524660808201523060a082015260a081526135d381611225565b51902090565b507f0000000000000000000000000000000000000000000000000000000000000000461461351a565b61360a6134e8565b9060405190602082019261190160f01b845260228301526042820152604281526135d381611240565b1561363a57565b60405162461bcd60e51b815260206004820152601660248201527f5461704f46543a20536d616c6c206475726174696f6e000000000000000000006044820152606490fd5b908160209103126105015751610775816104f5565b908060209392818452848401376000828201840152601f01601f1916010190565b80356136c081610922565b6001600160a01b03809116835260208201356136db81610922565b1660208301526040810135601e19823603018112156105015701602081359101906001600160401b038111610501578036038213610501576060838160406107759601520191613694565b919694939290938060c0840161036885526001600160a01b03938460209816888701528460409b168b870152606086015260c060808601525260e0830193916000905b828210613807575050505060a081830391015282815281810194828460051b83010195856000935b8685106137a357505050505050505090565b9091929394959697601f198282030184528835603e1984360301811215610501578301803582528781013590605e1981360301821215610501576137f5899283928986818660019901520191016136b5565b9a019401950193929695949190613791565b90919295969798948780600192848a3561382081610922565b168152979b9a99989701960193920190613769565b98929790949397969591968381036138de5761386861388a94613876938c936138939b6040519a8b963360208901613726565b03601f19810186528561125b565b610f33613884368784611297565b88614144565b91339086613f09565b6001600160a01b036040519216917fd81fc9b8523134ed613870ed029d6170cbb73aa6a6bc311b9a642689fb9df59a61ffff33931691806138d981906000602083019252565b0390a4565b60405162461bcd60e51b815260206004820152601760248201527f5461704f46543a206c656e677468206d69736d617463680000000000000000006044820152606490fd5b3d1561394e573d906139348261127c565b91613942604051938461125b565b82523d6000602084013e565b606090565b8015613990575b7f0000000000000000000000000000000000000000000000000000000000000000811061398a5761077590613dd6565b50600090565b504261395a565b1561399e57565b60405162461bcd60e51b815260206004820152601060248201527f5441503a206f6e6c79206d696e746572000000000000000000000000000000006044820152606490fd5b601319810191908211610d2657565b600019810191908211610d2657565b605019810191908211610d2657565b91908203918211610d2657565b6014544603613aff57613a2f42613dd6565b613a43816000526011602052604060002090565b5461398a57600081613aa1575b613a6190613a5c613e2d565b612f05565b8181613a7881946000526011602052604060002090565b557f50f1c5d928feed1018925d3fa59901275ddbeaf4a20a5a52bb174b5381c4fa57600080a390565b50613ac2613abd613ab4611151846139f2565b54601054613a10565b601055565b613a61613af8613ae4613ad4846139f2565b6000526011602052604060002090565b54613af1611151856139f2565b5490613a10565b9050613a50565b60405162461bcd60e51b815260206004820152601460248201527f5441503a20436861696e206e6f742076616c69640000000000000000000000006044820152606490fd5b15613b4b57565b60405162461bcd60e51b815260206004820152600b60248201526a1510540e881c185d5cd95960aa1b6044820152606490fd5b15613b8557565b60405162461bcd60e51b815260206004820152601d60248201527f5441503a204578636565647320616c6c6f7761626c6520616d6f756e740000006044820152606490fd5b906001600160a01b038216918215613c4057600a5490828201809211610d2657600092613c316020927fddf252ad1be2c89b69c2b068fc378daa952ba7f163c4a11628f55a4df523b3ef94600a556001600160a01b03166000526008602052604060002090565b818154019055604051908152a3565b60405162461bcd60e51b815260206004820152601f60248201527f45524332303a206d696e7420746f20746865207a65726f2061646472657373006044820152606490fd5b6001600160a01b038116908115613d7157613cb3816001600160a01b03166000526008602052604060002090565b54838110613d2157837fddf252ad1be2c89b69c2b068fc378daa952ba7f163c4a11628f55a4df523b3ef92613d0360009661308a9403916001600160a01b03166000526008602052604060002090565b55613d1181600a5403600a55565b6040519081529081906020820190565b60405162461bcd60e51b815260206004820152602260248201527f45524332303a206275726e20616d6f756e7420657863656564732062616c616e604482015261636560f01b6064820152608490fd5b60405162461bcd60e51b815260206004820152602160248201527f45524332303a206275726e2066726f6d20746865207a65726f206164647265736044820152607360f81b6064820152608490fd5b634e487b7160e01b600052601260045260246000fd5b7f00000000000000000000000000000000000000000000000000000000000000008103908111610d265762093a80900490565b9081156001838004141715610d2657565b81810292918115918404141715610d2657565b601054661f438daa06000090818102918183041490151715610d2657670de0b6b3a7640000900490565b15613e5e57565b60405162461bcd60e51b815260206004820152602660248201527f4c7a4170703a20696e76616c696420736f757263652073656e64696e6720636f6044820152651b9d1c9858dd60d21b6064820152608490fd5b92613ed761077597959361ffff613ee59416865260c0602087015260c086019061073f565b90848203604086015261073f565b936001600160a01b03809216606084015216608082015260a081840391015261073f565b94613f329193929561ffff81166000526001602052613f3960406000206040519485809261166b565b038461125b565b825115613fbe57613f4b8551826141d1565b6001600160a01b037f00000000000000000000000000000000000000000000000000000000000000001693843b1561050157600096613fa091604051998a988997889662c5803160e81b885260048801613eb2565b03925af1801561091957613fb15750565b806121f361171c926111f2565b60405162461bcd60e51b815260206004820152603060248201527f4c7a4170703a2064657374696e6174696f6e20636861696e206973206e6f742060448201527f61207472757374656420736f75726365000000000000000000000000000000006064820152608490fd5b1561403057565b60405162461bcd60e51b815260206004820152601a60248201527f4c7a4170703a206d696e4761734c696d6974206e6f74207365740000000000006044820152606490fd5b1561407c57565b60405162461bcd60e51b815260206004820152601b60248201527f4c7a4170703a20676173206c696d697420697320746f6f206c6f7700000000006044820152606490fd5b60228251106140ff5761ffff602261171c9301519116600052600260205260406000206103666000526020526040600020549061295a821515614029565b60405162461bcd60e51b815260206004820152601c60248201527f4c7a4170703a20696e76616c69642061646170746572506172616d73000000006044820152606490fd5b60228251106140ff5761ffff602261171c9301519116600052600260205260406000206103686000526020526040600020549061295a821515614029565b919060228151106140ff57602261ffff910151921660005260026020526141b760406000206001600052602052604060002090565b54908101809111610d265761171c9161295a821515614029565b61ffff166000526003602052604060002054908115614236575b116141f257565b606460405162461bcd60e51b815260206004820152602060248201527f4c7a4170703a207061796c6f61642073697a6520697320746f6f206c617267656044820152fd5b61271091506141eb565b81601f820112156105015780516142568161127c565b92614264604051948561125b565b8184526020828401011161050157610775916020808501910161071c565b906020828203126105015781516001600160401b038111610501576107759201614240565b60409061ffff61077595931681528160208201520191613694565b90601f81116142d057505050565b600091825260208220906020601f850160051c8301941061430c575b601f0160051c01915b82811061430157505050565b8181556001016142f5565b90925082906142ec565b92909161437a5a604051633356ae4560e11b602082015261ffff87166024820152608060448201529061437482610eb161435360a483018a61073f565b6001600160401b03881660648401528281036023190160848401528861073f565b30615f1a565b939015614389575b5050505050565b6143929461439c565b3880808080614382565b91936144397fe183f33de2837795525b4792ca4cd60535bd77c53b7e7030060bfcf5734d6b0c95614447939561ffff815160208301209616958660005260056020526144008361138760208b6040600020826040519483868095519384920161071c565b556001600160401b03614425604051988998895260a060208a015260a089019061073f565b92166040870152858203606087015261073f565b90838203608085015261073f565b0390a1565b92919061445883615ec5565b610366810361446b575061171c936145fb565b610367810361447e575061171c93615140565b6103680361448f5761171c93614b90565b6144a161449b84615e60565b60ff1690565b806144b25750505061171c91615608565b6001036144c25761171c93615760565b60405162461bcd60e51b815260206004820152600b60248201526a1513d19517dc1858dad95d60aa1b6044820152606490fd5b908160a091031261050157805161450b816104f5565b91602082015161451a81610922565b91604081015161452981610922565b916080606083015161453a81610533565b92015190565b90816020910312610501575190565b60009060033d1161455c57565b905060046000803e60005160e01c90565b600060443d1061077557604051600319913d83016004833e81516001600160401b03918282113d6024840111176145ca578184019485519384116145d2573d850101602084870101116145ca57506107759291016020019061125b565b949350505050565b50949350505050565b6145f39060206040519282848094519384920161071c565b810103902090565b916001600160a01b0393916146559361461d60208551860101602086016144f5565b98935098915016966001600160401b037f00000000000000000000000000000000000000000000000000000000000000009116613e1a565b956146608730613bca565b61468a87614685614679600d546001600160a01b031690565b6001600160a01b031690565b612ec3565b506146dd60206146a5614679600d546001600160a01b031690565b60405163488c9c1d60e01b81526001600160a01b0385166004820152602481018b905260448101999099529791829081906064820190565b03816000809b6204baf0f190816147e1575b5061470e5760016146fe61454f565b6308c379a01461477c575b614717575b50505050505050565b6147709661476a91614727613923565b97614731886145db565b61473a8a6145db565b917f574bdbcbc11b0000d0ef23e948d3f9351a7a81eb5a6e064cff5ac3b6c1e310d361ffff88169180a430615c35565b5061439c565b3880808080808061470e565b61478461456d565b80614790575b50614709565b8791506147a561479f886145db565b916145db565b9061ffff85167fb37a1812fafae90276da44877c4a85d68886da845852047d47a816ae20b8d4478a80a46147da888330615c35565b503861478a565b6148019060203d8111614808575b6147f9818361125b565b810190614540565b50386146ef565b503d6147ef565b6001600160401b0381116112055760051b60200190565b91909160608184031261050157604051906001600160401b03906060830182811184821017611205576040528294815161485f81610922565b8452602082015161486f81610922565b602085015260408201519283116105015760409261488d9201614240565b910152565b81601f82011215610501578051906148a98261480f565b926040926148b98451958661125b565b808552602093848087019260051b8501019383851161050157858101925b8584106148e8575050505050505090565b83516001600160401b03908181116105015783019184601f1984890301126105015784516149158161120a565b8984015181528584015192831161050157614937888b80969581960101614826565b838201528152019301926148d7565b91909160c08184031261050157805161495e816104f5565b9260208083015161496e81610922565b93604084015161497d81610922565b936060810151936080820151936001600160401b03948581116105015783019082601f83011215610501578151916149b48361480f565b926149c2604051948561125b565b808452828085019160051b83010191858311610501578301905b8282106149fe57505050509360a0830151908111610501576107759201614892565b8380918351614a0c81610922565b8152019101906149dc565b90816020910312610501575161077581610922565b15614a3357565b60405162461bcd60e51b815260206004820152601160248201527f5461704f46543a204e6f74206f776e65720000000000000000000000000000006044820152606490fd5b60405190614a858261120a565b601682527f5461704f66743a20676173206e6f7420656e6f756768000000000000000000006020830152565b9060609160408101918152602092816040858094015285518094520193019160005b828110614ae1575050505090565b83516001600160a01b031685529381019392810192600101614ad3565b8051821015614b125760209160051b010190565b634e487b7160e01b600052603260045260246000fd5b939061077595916101009461ffff6040956001600160a01b03809516895216602088015284870152606086015260a060808601528082511660a086015260208201511660c0850152015191606060e0820152019061073f565b6000198114610d265760010190565b919290926020614ba7818451850101828501614946565b9095918095506001600160a01b0394939480951693614bd1614679600d546001600160a01b031690565b9060409685885180946331a9108f60e11b82528180614bf960049e8f83019190602083019252565b03915afa91821561091957614c1b93600093614f0a575b508116911614614a2c565b620186a0614c31614c2b5a613e09565b60061c90565b10614ef157614c4b614679600d546001600160a01b031690565b803b156105015787600091614c7693838a8a51968795869485936377eceed560e01b85528401614ab1565b03925af19081614ede575b50614d61575050505050506001614c9661454f565b6308c379a014614cfa575b614cab5750505050565b61326593614cb7613923565b93614cc1846145db565b614cca866145db565b9061ffff83167f574bdbcbc11b0000d0ef23e948d3f9351a7a81eb5a6e064cff5ac3b6c1e310d3600080a461439c565b614d0261456d565b80614d0e575b50614ca1565b9050614d5b600091614d1f856145db565b614d28826145db565b9061ffff88167fb37a1812fafae90276da44877c4a85d68886da845852047d47a816ae20b8d4478680a48484888861439c565b38614d08565b929650939750935086959195519560005b878110614d8457505050505050505050565b614da1614679614d94838c614afe565b516001600160a01b031690565b87516370a0823160e01b81523084820190815290929187918491908290819060200103915afa918215610919578a90600093614ea9575b50614679614679614679614d9485614e05958d614df48a6159ee565b5099808b10614e81575b5050614afe565b91614e108286614afe565b51519087614e1e8488614afe565b51015193803b15610501578a5163695ef6bf60e01b815294600093869384928391614e4f91908f8e308e8701614b28565b03925af191821561091957614e6992614e6e575b50614b81565b614d72565b806121f3614e7b926111f2565b38614e63565b614ea291614e9c8c614e96614d948888614afe565b93613a10565b91614f3b565b8d38614dfe565b614e05919350614679614679614d9485614ed2614679958d803d10614808576147f9818361125b565b97955050505050614dd8565b806121f3614eeb926111f2565b38614c81565b5050505050505061171c93614f04614a78565b9361439c565b82919350614f2d90883d8a11614f34575b614f25818361125b565b810190614a17565b9290614c10565b503d614f1b565b9190614fc691600080604051936020968786019463a9059cbb60e01b86526001600160a01b038093166024880152604487015260448652614f7b86611240565b169260405194614f8a8661120a565b8786527f5361666545524332303a206c6f772d6c6576656c2063616c6c206661696c656488870152519082855af1614fc0613923565b91615048565b805180614fd257505050565b8183918101031261050157810151614fe981610bb6565b15614ff15750565b6084906040519062461bcd60e51b82526004820152602a60248201527f5361666545524332303a204552433230206f7065726174696f6e20646964206e6044820152691bdd081cdd58d8d9595960b21b6064820152fd5b919290156150aa575081511561505c575090565b3b156150655790565b60405162461bcd60e51b815260206004820152601d60248201527f416464726573733a2063616c6c20746f206e6f6e2d636f6e74726163740000006044820152606490fd5b8251909150156150bd5750805190602001fd5b60405162461bcd60e51b815290819061339d9060048301610764565b9160c0838303126105015782516150ef816104f5565b9260208101516150fe81610922565b92604082015161510d81610922565b92606083015161511c81610922565b9260808101519260a08201516001600160401b038111610501576107759201614826565b9192909260206151578184518501018285016150d9565b959291935093506001600160a01b038091169261517f614679600d546001600160a01b031690565b6040516331a9108f60e11b815260048101879052958487602481855afa9687156109195760009786956151e2956151c1938b9361529a57508116911614614a2c565b604051968780948193631015a27f60e11b8352600483019190602083019252565b03925af192839160009461527b575b5050615204575050506001614c9661454f565b92506152149195508093506159ee565b508281938210615260575b50504790303b156105015760009361524e6040519687958694859463695ef6bf60e01b86523060048701614b28565b0391305af1801561091957613fb15750565b6152749161526d91613a10565b8230614f3b565b813861521f565b615292929450803d10614808576147f9818361125b565b9138806151f1565b82919350614f2d90893d8b11614f3457614f25818361125b565b6020919283604051948593843782019081520301902090565b156152d457565b60405162461bcd60e51b815260206004820152602160248201527f4e6f6e626c6f636b696e674c7a4170703a20696e76616c6964207061796c6f616044820152601960fa1b6064820152608490fd5b9161534f9060609461ffff6001600160401b039499989799168552608060208601526080850191613694565b951660408201520152565b903590601e198136030182121561050157018035906001600160401b0382116105015760200191813603831361050157565b94919598979061189d6153ad6040996118146153b3976153d0993691611297565b97615967565b928451968794859463040a7bb160e41b8652309060048701615577565b03816001600160a01b037f0000000000000000000000000000000000000000000000000000000000000000165afa91821561091957600090819361541357509190565b90506105a591925060403d8111610cc157610cb2818361125b565b9396949161545c9061077599979461ffff6001600160401b039416875260c0602088015260c0870191613694565b961660408401526060830152608082015260a0818503910152613694565b9196979298959493909430330361551c5761549e6001600160a01b03918630615c35565b941692836040517fbf551ec93859b170f9b2141bd9298bf3f64322c6f7beb2543a0cb669834118bf61ffff861691806154dc8a829190602083019252565b0390a3833b1561050157600098899561550c936040519c8d9b8c9a8b98633fe79aed60e11b8a5260048a0161542e565b0393f1801561091957613fb15750565b60405162461bcd60e51b815260206004820152601f60248201527f4f4654436f72653a2063616c6c6572206d757374206265204f4654436f7265006044820152606490fd5b9190826040910312610501576020825192015190565b91926001600160a01b03610775969461ffff6155a79416855216602084015260a0604084015260a083019061073f565b9215156060820152608081840391015261073f565b156155c357565b60405162461bcd60e51b815260206004820152601960248201527f4f4654436f72653a20616d6f756e7420746f6f20736d616c6c000000000000006044820152606490fd5b9060ff61561482615e60565b1615806156c6575b61562590615a6b565b61563761563182615e08565b91615eb5565b6001600160a01b0390818316156156bc575b61ffff7fbf551ec93859b170f9b2141bd9298bf3f64322c6f7beb2543a0cb669834118bf926156a46020936001600160401b037f00000000000000000000000000000000000000000000000000000000000000009116613e1a565b946156af8682613bca565b60405195865216941692a3565b61dead9250615649565b50805160291461561c565b989796929394615730956001600160401b0361570c60e099958d61ffff6001600160a01b03971690528d61010090816020820152019061073f565b961660408c015260608b015216608089015260a088015286820360c088015261073f565b930152565b6001600160401b036157556040939695949660608452606084019061073f565b951660208201520152565b909161576b84615b25565b909161579c615795876122c761578f8b61ffff166000526007602052604060002090565b8c611324565b5460ff1690565b916157d26001600160401b0392837f00000000000000000000000000000000000000000000000000000000000000009116613e1a565b9288888b83156158ce575b505050853b1561588357946158249694614374948a94610eb1948d9960001461587c5750505a925b5a978b6040519a8b9863757fea4d60e11b60208b015260248a016156d1565b901561587157509061586c61ffff928560207fb8890edbfc1c74692f527444645f95489c3703cc2df42e4a366f5d06fa6cd88496975191012090604051948594169684615735565b0390a2565b9261171c949261439c565b1692615805565b50506040516001600160a01b039094168452507f9aedf5fdba8716db3b6705ca00150643309995d4f818a249ed6dde6677e7792d975091955085945050602084019250614447915050565b906122c7615903926158fd896158e8615910979b30613bca565b9961ffff166000526007602052604060002090565b90611324565b805460ff19166001179055565b88888b6157dd565b60065460ff161561595f5760228251106140ff5761ffff602261171c930151911660005260026020526040600020600080526020526040600020549061295a821515614029565b50516118f157565b7f00000000000000000000000000000000000000000000000000000000000000009081156159e957046001600160401b03908181116159a4571690565b60405162461bcd60e51b815260206004820152601a60248201527f4f4654436f72653a20616d6f756e745344206f766572666c6f770000000000006044820152606490fd5b613dc0565b7f000000000000000000000000000000000000000000000000000000000000000080156159e957810690818103908111610d265791565b90604051916000602084015260218301526001600160401b0360c01b9060c01b16604182015260298152606081018181106001600160401b038211176112055760405290565b15615a7257565b60405162461bcd60e51b815260206004820152601860248201527f4f4654436f72653a20696e76616c6964207061796c6f616400000000000000006044820152606490fd5b9392607192610775946001600160a01b03604051978895600160f81b602088015260218701526001600160401b0360c01b809460c01b16604187015216604985015260c01b166069830152615b15815180926020868601910161071c565b810103605181018452018261125b565b90615b3d600160ff615b3685615e60565b1614615a6b565b615b4682615e08565b90615b5083615eb5565b906049845110615bca576049840151936051815110615b8557615b82605182015191615b7c8151613a01565b90615d84565b91565b60405162461bcd60e51b815260206004820152601460248201527f746f55696e7436345f6f75744f66426f756e64730000000000000000000000006044820152606490fd5b60405162461bcd60e51b815260206004820152601560248201527f746f427974657333325f6f75744f66426f756e647300000000000000000000006044820152606490fd5b8161077591336001600160a01b0382160315613c8557615c3082338361320f565b613c85565b6107759183916001600160a01b038116308114159081615c61575b5015612fc557610ae183338361320f565b905033141538615c50565b15615c7357565b60405162461bcd60e51b815260206004820152600e60248201527f736c6963655f6f766572666c6f770000000000000000000000000000000000006044820152606490fd5b15615cbf57565b60405162461bcd60e51b815260206004820152601160248201527f736c6963655f6f75744f66426f756e64730000000000000000000000000000006044820152606490fd5b615d1882615d1181612ee9565b1015615c6c565b615d258282511015615cb8565b81615d3d575050604051600081526020810160405290565b60405191601f811691821560051b808486010193838501920101905b808410615d715750508252601f01601f191660405290565b9092835181526020809101930190615d59565b615d9182615d1181612ee9565b615da68151615d9f84612ef7565b1115615cb8565b81615dbe575050604051600081526020810160405290565b60405191601f8116916051831560051b80858701019484860193010101905b808410615df55750508252601f01601f191660405290565b9092835181526020809101930190615ddd565b6021815110615e1b57602d015160601c90565b60405162461bcd60e51b815260206004820152601560248201527f746f416464726573735f6f75744f66426f756e647300000000000000000000006044820152606490fd5b6001815110615e70576001015190565b60405162461bcd60e51b815260206004820152601360248201527f746f55696e74385f6f75744f66426f756e6473000000000000000000000000006044820152606490fd5b6029815110615b85576029015190565b6020815110615ed5576020015190565b60405162461bcd60e51b815260206004820152601560248201527f746f55696e743235365f6f75744f66426f756e647300000000000000000000006044820152606490fd5b9092916000809160405195615f2e87611225565b6096875282602088019560a036883760208451940192f1903d9060968211615f5c575b6000908286523e9190565b60969150615f5156fea2646970667358221220ade38d826ba4c2f4fc6290235629e44c3227a2c392941afcd0c469b7e54f4e4964736f6c63430008120033ddf252ad1be2c89b69c2b068fc378daa952ba7f163c4a11628f55a4df523b3ef8b73c3c69bb8fe3d512ecc4cf759cc79239f7b179b0ffacaa9a75d522b39400f",
  "linkReferences": {},
  "deployedLinkReferences": {}
}