{
  "_format": "hh-sol-artifact-1",
  "contractName": "TapOFT",
  "sourceName": "contracts/tokens/TapOFT.sol",
  "abi": [
    {
      "inputs": [
        {
          "internalType": "address",
          "name": "_lzEndpoint",
          "type": "address"
        },
        {
          "internalType": "address",
          "name": "_contributors",
          "type": "address"
        },
        {
          "internalType": "address",
          "name": "_earlySupporters",
          "type": "address"
        },
        {
          "internalType": "address",
          "name": "_supporters",
          "type": "address"
        },
        {
          "internalType": "address",
          "name": "_lbp",
          "type": "address"
        },
        {
          "internalType": "address",
          "name": "_dao",
          "type": "address"
        },
        {
          "internalType": "address",
          "name": "_airdrop",
          "type": "address"
        },
        {
          "internalType": "uint256",
          "name": "_governanceChainId",
          "type": "uint256"
        },
        {
          "internalType": "address",
          "name": "_conservator",
          "type": "address"
        }
      ],
      "stateMutability": "nonpayable",
      "type": "constructor"
    },
    {
      "inputs": [],
      "name": "AllowanceNotValid",
      "type": "error"
    },
    {
      "inputs": [],
      "name": "Failed",
      "type": "error"
    },
    {
      "inputs": [],
      "name": "InvalidShortString",
      "type": "error"
    },
    {
      "inputs": [],
      "name": "LengthMismatch",
      "type": "error"
    },
    {
      "inputs": [],
      "name": "NotAuthorized",
      "type": "error"
    },
    {
      "inputs": [],
      "name": "NotValid",
      "type": "error"
    },
    {
      "inputs": [],
      "name": "OnlyMinter",
      "type": "error"
    },
    {
      "inputs": [],
      "name": "Paused",
      "type": "error"
    },
    {
      "inputs": [
        {
          "internalType": "string",
          "name": "str",
          "type": "string"
        }
      ],
      "name": "StringTooLong",
      "type": "error"
    },
    {
      "inputs": [],
      "name": "SupplyNotValid",
      "type": "error"
    },
    {
      "inputs": [],
      "name": "TooSmall",
      "type": "error"
    },
    {
      "anonymous": false,
      "inputs": [
        {
          "indexed": true,
          "internalType": "address",
          "name": "owner",
          "type": "address"
        },
        {
          "indexed": true,
          "internalType": "address",
          "name": "spender",
          "type": "address"
        },
        {
          "indexed": false,
          "internalType": "uint256",
          "name": "value",
          "type": "uint256"
        }
      ],
      "name": "Approval",
      "type": "event"
    },
    {
      "anonymous": false,
      "inputs": [
        {
          "indexed": true,
          "internalType": "uint256",
          "name": "_amount",
          "type": "uint256"
        }
      ],
      "name": "BoostedTAP",
      "type": "event"
    },
    {
      "anonymous": false,
      "inputs": [
        {
          "indexed": true,
          "internalType": "address",
          "name": "_from",
          "type": "address"
        },
        {
          "indexed": true,
          "internalType": "uint256",
          "name": "_amount",
          "type": "uint256"
        }
      ],
      "name": "Burned",
      "type": "event"
    },
    {
      "anonymous": false,
      "inputs": [
        {
          "indexed": true,
          "internalType": "uint16",
          "name": "_srcChainId",
          "type": "uint16"
        },
        {
          "indexed": true,
          "internalType": "bytes",
          "name": "_payload",
          "type": "bytes"
        },
        {
          "indexed": true,
          "internalType": "bytes",
          "name": "_reason",
          "type": "bytes"
        }
      ],
      "name": "CallFailedBytes",
      "type": "event"
    },
    {
      "anonymous": false,
      "inputs": [
        {
          "indexed": true,
          "internalType": "uint16",
          "name": "_srcChainId",
          "type": "uint16"
        },
        {
          "indexed": true,
          "internalType": "bytes",
          "name": "_payload",
          "type": "bytes"
        },
        {
          "indexed": true,
          "internalType": "string",
          "name": "_reason",
          "type": "string"
        }
      ],
      "name": "CallFailedStr",
      "type": "event"
    },
    {
      "anonymous": false,
      "inputs": [
        {
          "indexed": true,
          "internalType": "uint16",
          "name": "_srcChainId",
          "type": "uint16"
        },
        {
          "indexed": false,
          "internalType": "bytes",
          "name": "_srcAddress",
          "type": "bytes"
        },
        {
          "indexed": false,
          "internalType": "uint64",
          "name": "_nonce",
          "type": "uint64"
        },
        {
          "indexed": false,
          "internalType": "bytes32",
          "name": "_hash",
          "type": "bytes32"
        }
      ],
      "name": "CallOFTReceivedSuccess",
      "type": "event"
    },
    {
      "anonymous": false,
      "inputs": [],
      "name": "EIP712DomainChanged",
      "type": "event"
    },
    {
      "anonymous": false,
      "inputs": [
        {
          "indexed": true,
          "internalType": "uint256",
          "name": "week",
          "type": "uint256"
        },
        {
          "indexed": true,
          "internalType": "uint256",
          "name": "amount",
          "type": "uint256"
        }
      ],
      "name": "Emitted",
      "type": "event"
    },
    {
      "anonymous": false,
      "inputs": [
        {
          "indexed": true,
          "internalType": "uint256",
          "name": "_old",
          "type": "uint256"
        },
        {
          "indexed": true,
          "internalType": "uint256",
          "name": "_new",
          "type": "uint256"
        }
      ],
      "name": "GovernanceChainIdentifierUpdated",
      "type": "event"
    },
    {
      "anonymous": false,
      "inputs": [
        {
          "indexed": false,
          "internalType": "uint16",
          "name": "_srcChainId",
          "type": "uint16"
        },
        {
          "indexed": false,
          "internalType": "bytes",
          "name": "_srcAddress",
          "type": "bytes"
        },
        {
          "indexed": false,
          "internalType": "uint64",
          "name": "_nonce",
          "type": "uint64"
        },
        {
          "indexed": false,
          "internalType": "bytes",
          "name": "_payload",
          "type": "bytes"
        },
        {
          "indexed": false,
          "internalType": "bytes",
          "name": "_reason",
          "type": "bytes"
        }
      ],
      "name": "MessageFailed",
      "type": "event"
    },
    {
      "anonymous": false,
      "inputs": [
        {
          "indexed": true,
          "internalType": "address",
          "name": "_by",
          "type": "address"
        },
        {
          "indexed": true,
          "internalType": "address",
          "name": "_to",
          "type": "address"
        },
        {
          "indexed": true,
          "internalType": "uint256",
          "name": "_amount",
          "type": "uint256"
        }
      ],
      "name": "Minted",
      "type": "event"
    },
    {
      "anonymous": false,
      "inputs": [
        {
          "indexed": true,
          "internalType": "address",
          "name": "_old",
          "type": "address"
        },
        {
          "indexed": true,
          "internalType": "address",
          "name": "_new",
          "type": "address"
        }
      ],
      "name": "MinterUpdated",
      "type": "event"
    },
    {
      "anonymous": false,
      "inputs": [
        {
          "indexed": false,
          "internalType": "address",
          "name": "_address",
          "type": "address"
        }
      ],
      "name": "NonContractAddress",
      "type": "event"
    },
    {
      "anonymous": false,
      "inputs": [
        {
          "indexed": true,
          "internalType": "address",
          "name": "previousOwner",
          "type": "address"
        },
        {
          "indexed": true,
          "internalType": "address",
          "name": "newOwner",
          "type": "address"
        }
      ],
      "name": "OwnershipTransferred",
      "type": "event"
    },
    {
      "anonymous": false,
      "inputs": [
        {
          "indexed": true,
          "internalType": "bool",
          "name": "oldState",
          "type": "bool"
        },
        {
          "indexed": true,
          "internalType": "bool",
          "name": "newState",
          "type": "bool"
        }
      ],
      "name": "PausedUpdated",
      "type": "event"
    },
    {
      "anonymous": false,
      "inputs": [
        {
          "indexed": true,
          "internalType": "uint16",
          "name": "_srcChainId",
          "type": "uint16"
        },
        {
          "indexed": true,
          "internalType": "address",
          "name": "_to",
          "type": "address"
        },
        {
          "indexed": false,
          "internalType": "uint256",
          "name": "_amount",
          "type": "uint256"
        }
      ],
      "name": "ReceiveFromChain",
      "type": "event"
    },
    {
      "anonymous": false,
      "inputs": [
        {
          "indexed": false,
          "internalType": "uint16",
          "name": "_srcChainId",
          "type": "uint16"
        },
        {
          "indexed": false,
          "internalType": "bytes",
          "name": "_srcAddress",
          "type": "bytes"
        },
        {
          "indexed": false,
          "internalType": "uint64",
          "name": "_nonce",
          "type": "uint64"
        },
        {
          "indexed": false,
          "internalType": "bytes32",
          "name": "_payloadHash",
          "type": "bytes32"
        }
      ],
      "name": "RetryMessageSuccess",
      "type": "event"
    },
    {
      "anonymous": false,
      "inputs": [
        {
          "indexed": true,
          "internalType": "uint16",
          "name": "_dstChainId",
          "type": "uint16"
        },
        {
          "indexed": true,
          "internalType": "address",
          "name": "_from",
          "type": "address"
        },
        {
          "indexed": true,
          "internalType": "bytes32",
          "name": "_toAddress",
          "type": "bytes32"
        },
        {
          "indexed": false,
          "internalType": "uint256",
          "name": "_amount",
          "type": "uint256"
        }
      ],
      "name": "SendToChain",
      "type": "event"
    },
    {
      "anonymous": false,
      "inputs": [
        {
          "indexed": false,
          "internalType": "uint16",
          "name": "_dstChainId",
          "type": "uint16"
        },
        {
          "indexed": false,
          "internalType": "uint16",
          "name": "_type",
          "type": "uint16"
        },
        {
          "indexed": false,
          "internalType": "uint256",
          "name": "_minDstGas",
          "type": "uint256"
        }
      ],
      "name": "SetMinDstGas",
      "type": "event"
    },
    {
      "anonymous": false,
      "inputs": [
        {
          "indexed": false,
          "internalType": "address",
          "name": "precrime",
          "type": "address"
        }
      ],
      "name": "SetPrecrime",
      "type": "event"
    },
    {
      "anonymous": false,
      "inputs": [
        {
          "indexed": false,
          "internalType": "uint16",
          "name": "_remoteChainId",
          "type": "uint16"
        },
        {
          "indexed": false,
          "internalType": "bytes",
          "name": "_path",
          "type": "bytes"
        }
      ],
      "name": "SetTrustedRemote",
      "type": "event"
    },
    {
      "anonymous": false,
      "inputs": [
        {
          "indexed": false,
          "internalType": "uint16",
          "name": "_remoteChainId",
          "type": "uint16"
        },
        {
          "indexed": false,
          "internalType": "bytes",
          "name": "_remoteAddress",
          "type": "bytes"
        }
      ],
      "name": "SetTrustedRemoteAddress",
      "type": "event"
    },
    {
      "anonymous": false,
      "inputs": [
        {
          "indexed": false,
          "internalType": "bool",
          "name": "_useCustomAdapterParams",
          "type": "bool"
        }
      ],
      "name": "SetUseCustomAdapterParams",
      "type": "event"
    },
    {
      "anonymous": false,
      "inputs": [
        {
          "indexed": true,
          "internalType": "address",
          "name": "from",
          "type": "address"
        },
        {
          "indexed": true,
          "internalType": "address",
          "name": "to",
          "type": "address"
        },
        {
          "indexed": false,
          "internalType": "uint256",
          "name": "value",
          "type": "uint256"
        }
      ],
      "name": "Transfer",
      "type": "event"
    },
    {
      "inputs": [],
      "name": "DEFAULT_PAYLOAD_SIZE_LIMIT",
      "outputs": [
        {
          "internalType": "uint256",
          "name": "",
          "type": "uint256"
        }
      ],
      "stateMutability": "view",
      "type": "function"
    },
    {
      "inputs": [],
      "name": "DOMAIN_SEPARATOR",
      "outputs": [
        {
          "internalType": "bytes32",
          "name": "",
          "type": "bytes32"
        }
      ],
      "stateMutability": "view",
      "type": "function"
    },
    {
      "inputs": [],
      "name": "INITIAL_SUPPLY",
      "outputs": [
        {
          "internalType": "uint256",
          "name": "",
          "type": "uint256"
        }
      ],
      "stateMutability": "view",
      "type": "function"
    },
    {
      "inputs": [],
      "name": "NO_EXTRA_GAS",
      "outputs": [
        {
          "internalType": "uint256",
          "name": "",
          "type": "uint256"
        }
      ],
      "stateMutability": "view",
      "type": "function"
    },
    {
      "inputs": [],
      "name": "PT_SEND",
      "outputs": [
        {
          "internalType": "uint8",
          "name": "",
          "type": "uint8"
        }
      ],
      "stateMutability": "view",
      "type": "function"
    },
    {
      "inputs": [],
      "name": "PT_SEND_AND_CALL",
      "outputs": [
        {
          "internalType": "uint8",
          "name": "",
          "type": "uint8"
        }
      ],
      "stateMutability": "view",
      "type": "function"
    },
    {
      "inputs": [],
      "name": "WEEK",
      "outputs": [
        {
          "internalType": "uint256",
          "name": "",
          "type": "uint256"
        }
      ],
      "stateMutability": "view",
      "type": "function"
    },
    {
      "inputs": [
        {
          "internalType": "address",
          "name": "owner",
          "type": "address"
        },
        {
          "internalType": "address",
          "name": "spender",
          "type": "address"
        }
      ],
      "name": "allowance",
      "outputs": [
        {
          "internalType": "uint256",
          "name": "",
          "type": "uint256"
        }
      ],
      "stateMutability": "view",
      "type": "function"
    },
    {
      "inputs": [
        {
          "internalType": "address",
          "name": "spender",
          "type": "address"
        },
        {
          "internalType": "uint256",
          "name": "amount",
          "type": "uint256"
        }
      ],
      "name": "approve",
      "outputs": [
        {
          "internalType": "bool",
          "name": "",
          "type": "bool"
        }
      ],
      "stateMutability": "nonpayable",
      "type": "function"
    },
    {
      "inputs": [
        {
          "internalType": "address",
          "name": "account",
          "type": "address"
        }
      ],
      "name": "balanceOf",
      "outputs": [
        {
          "internalType": "uint256",
          "name": "",
          "type": "uint256"
        }
      ],
      "stateMutability": "view",
      "type": "function"
    },
    {
      "inputs": [
        {
          "internalType": "uint16",
          "name": "_srcChainId",
          "type": "uint16"
        },
        {
          "internalType": "bytes",
          "name": "_srcAddress",
          "type": "bytes"
        },
        {
          "internalType": "uint64",
          "name": "_nonce",
          "type": "uint64"
        },
        {
          "internalType": "bytes32",
          "name": "_from",
          "type": "bytes32"
        },
        {
          "internalType": "address",
          "name": "_to",
          "type": "address"
        },
        {
          "internalType": "uint256",
          "name": "_amount",
          "type": "uint256"
        },
        {
          "internalType": "bytes",
          "name": "_payload",
          "type": "bytes"
        },
        {
          "internalType": "uint256",
          "name": "_gasForCall",
          "type": "uint256"
        }
      ],
      "name": "callOnOFTReceived",
      "outputs": [],
      "stateMutability": "nonpayable",
      "type": "function"
    },
    {
      "inputs": [],
      "name": "circulatingSupply",
      "outputs": [
        {
          "internalType": "uint256",
          "name": "",
          "type": "uint256"
        }
      ],
      "stateMutability": "view",
      "type": "function"
    },
    {
      "inputs": [
        {
          "internalType": "address",
          "name": "to",
          "type": "address"
        },
        {
          "internalType": "uint256",
          "name": "tokenID",
          "type": "uint256"
        },
        {
          "internalType": "address[]",
          "name": "rewardTokens",
          "type": "address[]"
        },
        {
          "internalType": "uint16",
          "name": "lzDstChainId",
          "type": "uint16"
        },
        {
          "internalType": "address",
          "name": "zroPaymentAddress",
          "type": "address"
        },
        {
          "internalType": "bytes",
          "name": "adapterParams",
          "type": "bytes"
        },
        {
          "components": [
            {
              "internalType": "uint256",
              "name": "ethValue",
              "type": "uint256"
            },
            {
              "components": [
                {
                  "internalType": "address payable",
                  "name": "refundAddress",
                  "type": "address"
                },
                {
                  "internalType": "address",
                  "name": "zroPaymentAddress",
                  "type": "address"
                },
                {
                  "internalType": "bytes",
                  "name": "adapterParams",
                  "type": "bytes"
                }
              ],
              "internalType": "struct ICommonOFT.LzCallParams",
              "name": "callParams",
              "type": "tuple"
            }
          ],
          "internalType": "struct IRewardClaimSendFromParams[]",
          "name": "rewardClaimSendParams",
          "type": "tuple[]"
        }
      ],
      "name": "claimRewards",
      "outputs": [],
      "stateMutability": "payable",
      "type": "function"
    },
    {
      "inputs": [
        {
          "internalType": "uint16",
          "name": "",
          "type": "uint16"
        },
        {
          "internalType": "bytes",
          "name": "",
          "type": "bytes"
        },
        {
          "internalType": "uint64",
          "name": "",
          "type": "uint64"
        }
      ],
      "name": "creditedPackets",
      "outputs": [
        {
          "internalType": "bool",
          "name": "",
          "type": "bool"
        }
      ],
      "stateMutability": "view",
      "type": "function"
    },
    {
      "inputs": [],
      "name": "decimals",
      "outputs": [
        {
          "internalType": "uint8",
          "name": "",
          "type": "uint8"
        }
      ],
      "stateMutability": "pure",
      "type": "function"
    },
    {
      "inputs": [
        {
          "internalType": "address",
          "name": "spender",
          "type": "address"
        },
        {
          "internalType": "uint256",
          "name": "subtractedValue",
          "type": "uint256"
        }
      ],
      "name": "decreaseAllowance",
      "outputs": [
        {
          "internalType": "bool",
          "name": "",
          "type": "bool"
        }
      ],
      "stateMutability": "nonpayable",
      "type": "function"
    },
    {
      "inputs": [],
      "name": "dso_supply",
      "outputs": [
        {
          "internalType": "uint256",
          "name": "",
          "type": "uint256"
        }
      ],
      "stateMutability": "view",
      "type": "function"
    },
    {
      "inputs": [],
      "name": "eip712Domain",
      "outputs": [
        {
          "internalType": "bytes1",
          "name": "fields",
          "type": "bytes1"
        },
        {
          "internalType": "string",
          "name": "name",
          "type": "string"
        },
        {
          "internalType": "string",
          "name": "version",
          "type": "string"
        },
        {
          "internalType": "uint256",
          "name": "chainId",
          "type": "uint256"
        },
        {
          "internalType": "address",
          "name": "verifyingContract",
          "type": "address"
        },
        {
          "internalType": "bytes32",
          "name": "salt",
          "type": "bytes32"
        },
        {
          "internalType": "uint256[]",
          "name": "extensions",
          "type": "uint256[]"
        }
      ],
      "stateMutability": "view",
      "type": "function"
    },
    {
      "inputs": [
        {
          "internalType": "uint256",
          "name": "",
          "type": "uint256"
        }
      ],
      "name": "emissionForWeek",
      "outputs": [
        {
          "internalType": "uint256",
          "name": "",
          "type": "uint256"
        }
      ],
      "stateMutability": "view",
      "type": "function"
    },
    {
      "inputs": [],
      "name": "emissionsStartTime",
      "outputs": [
        {
          "internalType": "uint256",
          "name": "",
          "type": "uint256"
        }
      ],
      "stateMutability": "view",
      "type": "function"
    },
    {
      "inputs": [],
      "name": "emitForWeek",
      "outputs": [
        {
          "internalType": "uint256",
          "name": "",
          "type": "uint256"
        }
      ],
      "stateMutability": "nonpayable",
      "type": "function"
    },
    {
      "inputs": [
        {
          "internalType": "uint16",
          "name": "_dstChainId",
          "type": "uint16"
        },
        {
          "internalType": "bytes32",
          "name": "_toAddress",
          "type": "bytes32"
        },
        {
          "internalType": "uint256",
          "name": "_amount",
          "type": "uint256"
        },
        {
          "internalType": "bytes",
          "name": "_payload",
          "type": "bytes"
        },
        {
          "internalType": "uint64",
          "name": "_dstGasForCall",
          "type": "uint64"
        },
        {
          "internalType": "bool",
          "name": "_useZro",
          "type": "bool"
        },
        {
          "internalType": "bytes",
          "name": "_adapterParams",
          "type": "bytes"
        }
      ],
      "name": "estimateSendAndCallFee",
      "outputs": [
        {
          "internalType": "uint256",
          "name": "nativeFee",
          "type": "uint256"
        },
        {
          "internalType": "uint256",
          "name": "zroFee",
          "type": "uint256"
        }
      ],
      "stateMutability": "view",
      "type": "function"
    },
    {
      "inputs": [
        {
          "internalType": "uint16",
          "name": "_dstChainId",
          "type": "uint16"
        },
        {
          "internalType": "bytes32",
          "name": "_toAddress",
          "type": "bytes32"
        },
        {
          "internalType": "uint256",
          "name": "_amount",
          "type": "uint256"
        },
        {
          "internalType": "bool",
          "name": "_useZro",
          "type": "bool"
        },
        {
          "internalType": "bytes",
          "name": "_adapterParams",
          "type": "bytes"
        }
      ],
      "name": "estimateSendFee",
      "outputs": [
        {
          "internalType": "uint256",
          "name": "nativeFee",
          "type": "uint256"
        },
        {
          "internalType": "uint256",
          "name": "zroFee",
          "type": "uint256"
        }
      ],
      "stateMutability": "view",
      "type": "function"
    },
    {
      "inputs": [
        {
          "internalType": "address",
          "name": "_to",
          "type": "address"
        },
        {
          "internalType": "uint256",
          "name": "_amount",
          "type": "uint256"
        }
      ],
      "name": "extractTAP",
      "outputs": [],
      "stateMutability": "nonpayable",
      "type": "function"
    },
    {
      "inputs": [
        {
          "internalType": "uint16",
          "name": "",
          "type": "uint16"
        },
        {
          "internalType": "bytes",
          "name": "",
          "type": "bytes"
        },
        {
          "internalType": "uint64",
          "name": "",
          "type": "uint64"
        }
      ],
      "name": "failedMessages",
      "outputs": [
        {
          "internalType": "bytes32",
          "name": "",
          "type": "bytes32"
        }
      ],
      "stateMutability": "view",
      "type": "function"
    },
    {
      "inputs": [
        {
          "internalType": "uint16",
          "name": "_srcChainId",
          "type": "uint16"
        },
        {
          "internalType": "bytes",
          "name": "_srcAddress",
          "type": "bytes"
        }
      ],
      "name": "forceResumeReceive",
      "outputs": [],
      "stateMutability": "nonpayable",
      "type": "function"
    },
    {
      "inputs": [
        {
          "internalType": "uint16",
          "name": "_version",
          "type": "uint16"
        },
        {
          "internalType": "uint16",
          "name": "_chainId",
          "type": "uint16"
        },
        {
          "internalType": "address",
          "name": "",
          "type": "address"
        },
        {
          "internalType": "uint256",
          "name": "_configType",
          "type": "uint256"
        }
      ],
      "name": "getConfig",
      "outputs": [
        {
          "internalType": "bytes",
          "name": "",
          "type": "bytes"
        }
      ],
      "stateMutability": "view",
      "type": "function"
    },
    {
      "inputs": [],
      "name": "getCurrentWeek",
      "outputs": [
        {
          "internalType": "uint256",
          "name": "",
          "type": "uint256"
        }
      ],
      "stateMutability": "view",
      "type": "function"
    },
    {
      "inputs": [],
      "name": "getCurrentWeekEmission",
      "outputs": [
        {
          "internalType": "uint256",
          "name": "",
          "type": "uint256"
        }
      ],
      "stateMutability": "view",
      "type": "function"
    },
    {
      "inputs": [
        {
          "internalType": "uint16",
          "name": "_remoteChainId",
          "type": "uint16"
        }
      ],
      "name": "getTrustedRemoteAddress",
      "outputs": [
        {
          "internalType": "bytes",
          "name": "",
          "type": "bytes"
        }
      ],
      "stateMutability": "view",
      "type": "function"
    },
    {
      "inputs": [],
      "name": "governanceChainIdentifier",
      "outputs": [
        {
          "internalType": "uint256",
          "name": "",
          "type": "uint256"
        }
      ],
      "stateMutability": "view",
      "type": "function"
    },
    {
      "inputs": [
        {
          "internalType": "address",
          "name": "spender",
          "type": "address"
        },
        {
          "internalType": "uint256",
          "name": "addedValue",
          "type": "uint256"
        }
      ],
      "name": "increaseAllowance",
      "outputs": [
        {
          "internalType": "bool",
          "name": "",
          "type": "bool"
        }
      ],
      "stateMutability": "nonpayable",
      "type": "function"
    },
    {
      "inputs": [
        {
          "internalType": "uint16",
          "name": "_srcChainId",
          "type": "uint16"
        },
        {
          "internalType": "bytes",
          "name": "_srcAddress",
          "type": "bytes"
        }
      ],
      "name": "isTrustedRemote",
      "outputs": [
        {
          "internalType": "bool",
          "name": "",
          "type": "bool"
        }
      ],
      "stateMutability": "view",
      "type": "function"
    },
    {
      "inputs": [
        {
          "internalType": "address",
          "name": "to",
          "type": "address"
        },
        {
          "internalType": "uint256",
          "name": "amount",
          "type": "uint256"
        },
        {
          "internalType": "uint256",
          "name": "duration",
          "type": "uint256"
        },
        {
          "internalType": "uint16",
          "name": "lzDstChainId",
          "type": "uint16"
        },
        {
          "internalType": "address",
          "name": "zroPaymentAddress",
          "type": "address"
        },
        {
          "internalType": "bytes",
          "name": "adapterParams",
          "type": "bytes"
        }
      ],
      "name": "lockTwTapPosition",
      "outputs": [],
      "stateMutability": "payable",
      "type": "function"
    },
    {
      "inputs": [],
      "name": "lzEndpoint",
      "outputs": [
        {
          "internalType": "contract ILayerZeroEndpoint",
          "name": "",
          "type": "address"
        }
      ],
      "stateMutability": "view",
      "type": "function"
    },
    {
      "inputs": [
        {
          "internalType": "uint16",
          "name": "_srcChainId",
          "type": "uint16"
        },
        {
          "internalType": "bytes",
          "name": "_srcAddress",
          "type": "bytes"
        },
        {
          "internalType": "uint64",
          "name": "_nonce",
          "type": "uint64"
        },
        {
          "internalType": "bytes",
          "name": "_payload",
          "type": "bytes"
        }
      ],
      "name": "lzReceive",
      "outputs": [],
      "stateMutability": "nonpayable",
      "type": "function"
    },
    {
      "inputs": [
        {
          "internalType": "uint16",
          "name": "",
          "type": "uint16"
        },
        {
          "internalType": "uint16",
          "name": "",
          "type": "uint16"
        }
      ],
      "name": "minDstGasLookup",
      "outputs": [
        {
          "internalType": "uint256",
          "name": "",
          "type": "uint256"
        }
      ],
      "stateMutability": "view",
      "type": "function"
    },
    {
      "inputs": [
        {
          "internalType": "uint256",
          "name": "",
          "type": "uint256"
        }
      ],
      "name": "mintedInWeek",
      "outputs": [
        {
          "internalType": "uint256",
          "name": "",
          "type": "uint256"
        }
      ],
      "stateMutability": "view",
      "type": "function"
    },
    {
      "inputs": [],
      "name": "minter",
      "outputs": [
        {
          "internalType": "address",
          "name": "",
          "type": "address"
        }
      ],
      "stateMutability": "view",
      "type": "function"
    },
    {
      "inputs": [],
      "name": "name",
      "outputs": [
        {
          "internalType": "string",
          "name": "",
          "type": "string"
        }
      ],
      "stateMutability": "view",
      "type": "function"
    },
    {
      "inputs": [
        {
          "internalType": "uint16",
          "name": "_srcChainId",
          "type": "uint16"
        },
        {
          "internalType": "bytes",
          "name": "_srcAddress",
          "type": "bytes"
        },
        {
          "internalType": "uint64",
          "name": "_nonce",
          "type": "uint64"
        },
        {
          "internalType": "bytes",
          "name": "_payload",
          "type": "bytes"
        }
      ],
      "name": "nonblockingLzReceive",
      "outputs": [],
      "stateMutability": "nonpayable",
      "type": "function"
    },
    {
      "inputs": [
        {
          "internalType": "address",
          "name": "owner",
          "type": "address"
        }
      ],
      "name": "nonces",
      "outputs": [
        {
          "internalType": "uint256",
          "name": "",
          "type": "uint256"
        }
      ],
      "stateMutability": "view",
      "type": "function"
    },
    {
      "inputs": [],
      "name": "owner",
      "outputs": [
        {
          "internalType": "address",
          "name": "",
          "type": "address"
        }
      ],
      "stateMutability": "view",
      "type": "function"
    },
    {
      "inputs": [],
      "name": "paused",
      "outputs": [
        {
          "internalType": "bool",
          "name": "",
          "type": "bool"
        }
      ],
      "stateMutability": "view",
      "type": "function"
    },
    {
      "inputs": [
        {
          "internalType": "uint16",
          "name": "",
          "type": "uint16"
        }
      ],
      "name": "payloadSizeLimitLookup",
      "outputs": [
        {
          "internalType": "uint256",
          "name": "",
          "type": "uint256"
        }
      ],
      "stateMutability": "view",
      "type": "function"
    },
    {
      "inputs": [
        {
          "internalType": "address",
          "name": "owner",
          "type": "address"
        },
        {
          "internalType": "address",
          "name": "spender",
          "type": "address"
        },
        {
          "internalType": "uint256",
          "name": "value",
          "type": "uint256"
        },
        {
          "internalType": "uint256",
          "name": "deadline",
          "type": "uint256"
        },
        {
          "internalType": "uint8",
          "name": "v",
          "type": "uint8"
        },
        {
          "internalType": "bytes32",
          "name": "r",
          "type": "bytes32"
        },
        {
          "internalType": "bytes32",
          "name": "s",
          "type": "bytes32"
        }
      ],
      "name": "permit",
      "outputs": [],
      "stateMutability": "nonpayable",
      "type": "function"
    },
    {
      "inputs": [],
      "name": "precrime",
      "outputs": [
        {
          "internalType": "address",
          "name": "",
          "type": "address"
        }
      ],
      "stateMutability": "view",
      "type": "function"
    },
    {
      "inputs": [
        {
          "internalType": "uint256",
          "name": "_amount",
          "type": "uint256"
        }
      ],
      "name": "removeTAP",
      "outputs": [],
      "stateMutability": "nonpayable",
      "type": "function"
    },
    {
      "inputs": [],
      "name": "renounceOwnership",
      "outputs": [],
      "stateMutability": "nonpayable",
      "type": "function"
    },
    {
      "inputs": [
        {
          "internalType": "uint256",
          "name": "amount",
          "type": "uint256"
        },
        {
          "internalType": "address",
          "name": "to",
          "type": "address"
        }
      ],
      "name": "rescueEth",
      "outputs": [],
      "stateMutability": "nonpayable",
      "type": "function"
    },
    {
      "inputs": [
        {
          "internalType": "uint16",
          "name": "_srcChainId",
          "type": "uint16"
        },
        {
          "internalType": "bytes",
          "name": "_srcAddress",
          "type": "bytes"
        },
        {
          "internalType": "uint64",
          "name": "_nonce",
          "type": "uint64"
        },
        {
          "internalType": "bytes",
          "name": "_payload",
          "type": "bytes"
        }
      ],
      "name": "retryMessage",
      "outputs": [],
      "stateMutability": "payable",
      "type": "function"
    },
    {
      "inputs": [
        {
          "internalType": "address",
          "name": "_from",
          "type": "address"
        },
        {
          "internalType": "uint16",
          "name": "_dstChainId",
          "type": "uint16"
        },
        {
          "internalType": "bytes32",
          "name": "_toAddress",
          "type": "bytes32"
        },
        {
          "internalType": "uint256",
          "name": "_amount",
          "type": "uint256"
        },
        {
          "internalType": "bytes",
          "name": "_payload",
          "type": "bytes"
        },
        {
          "internalType": "uint64",
          "name": "_dstGasForCall",
          "type": "uint64"
        },
        {
          "components": [
            {
              "internalType": "address payable",
              "name": "refundAddress",
              "type": "address"
            },
            {
              "internalType": "address",
              "name": "zroPaymentAddress",
              "type": "address"
            },
            {
              "internalType": "bytes",
              "name": "adapterParams",
              "type": "bytes"
            }
          ],
          "internalType": "struct ICommonOFT.LzCallParams",
          "name": "_callParams",
          "type": "tuple"
        }
      ],
      "name": "sendAndCall",
      "outputs": [],
      "stateMutability": "payable",
      "type": "function"
    },
    {
      "inputs": [
        {
          "internalType": "address",
          "name": "_from",
          "type": "address"
        },
        {
          "internalType": "uint16",
          "name": "_dstChainId",
          "type": "uint16"
        },
        {
          "internalType": "bytes32",
          "name": "_toAddress",
          "type": "bytes32"
        },
        {
          "internalType": "uint256",
          "name": "_amount",
          "type": "uint256"
        },
        {
          "components": [
            {
              "internalType": "address payable",
              "name": "refundAddress",
              "type": "address"
            },
            {
              "internalType": "address",
              "name": "zroPaymentAddress",
              "type": "address"
            },
            {
              "internalType": "bytes",
              "name": "adapterParams",
              "type": "bytes"
            }
          ],
          "internalType": "struct ICommonOFT.LzCallParams",
          "name": "_callParams",
          "type": "tuple"
        }
      ],
      "name": "sendFrom",
      "outputs": [],
      "stateMutability": "payable",
      "type": "function"
    },
    {
      "inputs": [
        {
          "internalType": "uint16",
          "name": "_version",
          "type": "uint16"
        },
        {
          "internalType": "uint16",
          "name": "_chainId",
          "type": "uint16"
        },
        {
          "internalType": "uint256",
          "name": "_configType",
          "type": "uint256"
        },
        {
          "internalType": "bytes",
          "name": "_config",
          "type": "bytes"
        }
      ],
      "name": "setConfig",
      "outputs": [],
      "stateMutability": "nonpayable",
      "type": "function"
    },
    {
      "inputs": [
        {
          "internalType": "uint256",
          "name": "_identifier",
          "type": "uint256"
        }
      ],
      "name": "setGovernanceChainIdentifier",
      "outputs": [],
      "stateMutability": "nonpayable",
      "type": "function"
    },
    {
      "inputs": [
        {
          "internalType": "uint16",
          "name": "_dstChainId",
          "type": "uint16"
        },
        {
          "internalType": "uint16",
          "name": "_packetType",
          "type": "uint16"
        },
        {
          "internalType": "uint256",
          "name": "_minGas",
          "type": "uint256"
        }
      ],
      "name": "setMinDstGas",
      "outputs": [],
      "stateMutability": "nonpayable",
      "type": "function"
    },
    {
      "inputs": [
        {
          "internalType": "address",
          "name": "_minter",
          "type": "address"
        }
      ],
      "name": "setMinter",
      "outputs": [],
      "stateMutability": "nonpayable",
      "type": "function"
    },
    {
      "inputs": [
        {
          "internalType": "uint16",
          "name": "_dstChainId",
          "type": "uint16"
        },
        {
          "internalType": "uint256",
          "name": "_size",
          "type": "uint256"
        }
      ],
      "name": "setPayloadSizeLimit",
      "outputs": [],
      "stateMutability": "nonpayable",
      "type": "function"
    },
    {
      "inputs": [
        {
          "internalType": "address",
          "name": "_precrime",
          "type": "address"
        }
      ],
      "name": "setPrecrime",
      "outputs": [],
      "stateMutability": "nonpayable",
      "type": "function"
    },
    {
      "inputs": [
        {
          "internalType": "uint16",
          "name": "_version",
          "type": "uint16"
        }
      ],
      "name": "setReceiveVersion",
      "outputs": [],
      "stateMutability": "nonpayable",
      "type": "function"
    },
    {
      "inputs": [
        {
          "internalType": "uint16",
          "name": "_version",
          "type": "uint16"
        }
      ],
      "name": "setSendVersion",
      "outputs": [],
      "stateMutability": "nonpayable",
      "type": "function"
    },
    {
      "inputs": [
        {
          "internalType": "uint16",
          "name": "_srcChainId",
          "type": "uint16"
        },
        {
          "internalType": "bytes",
          "name": "_path",
          "type": "bytes"
        }
      ],
      "name": "setTrustedRemote",
      "outputs": [],
      "stateMutability": "nonpayable",
      "type": "function"
    },
    {
      "inputs": [
        {
          "internalType": "uint16",
          "name": "_remoteChainId",
          "type": "uint16"
        },
        {
          "internalType": "bytes",
          "name": "_remoteAddress",
          "type": "bytes"
        }
      ],
      "name": "setTrustedRemoteAddress",
      "outputs": [],
      "stateMutability": "nonpayable",
      "type": "function"
    },
    {
      "inputs": [
        {
          "internalType": "address",
          "name": "_twTap",
          "type": "address"
        }
      ],
      "name": "setTwTap",
      "outputs": [],
      "stateMutability": "nonpayable",
      "type": "function"
    },
    {
      "inputs": [
        {
          "internalType": "bool",
          "name": "_useCustomAdapterParams",
          "type": "bool"
        }
      ],
      "name": "setUseCustomAdapterParams",
      "outputs": [],
      "stateMutability": "nonpayable",
      "type": "function"
    },
    {
      "inputs": [],
      "name": "sharedDecimals",
      "outputs": [
        {
          "internalType": "uint8",
          "name": "",
          "type": "uint8"
        }
      ],
      "stateMutability": "view",
      "type": "function"
    },
    {
      "inputs": [
        {
          "internalType": "bytes4",
          "name": "interfaceId",
          "type": "bytes4"
        }
      ],
      "name": "supportsInterface",
      "outputs": [
        {
          "internalType": "bool",
          "name": "",
          "type": "bool"
        }
      ],
      "stateMutability": "view",
      "type": "function"
    },
    {
      "inputs": [],
      "name": "symbol",
      "outputs": [
        {
          "internalType": "string",
          "name": "",
          "type": "string"
        }
      ],
      "stateMutability": "view",
      "type": "function"
    },
    {
      "inputs": [
        {
          "internalType": "uint256",
          "name": "timestamp",
          "type": "uint256"
        }
      ],
      "name": "timestampToWeek",
      "outputs": [
        {
          "internalType": "uint256",
          "name": "",
          "type": "uint256"
        }
      ],
      "stateMutability": "view",
      "type": "function"
    },
    {
      "inputs": [],
      "name": "token",
      "outputs": [
        {
          "internalType": "address",
          "name": "",
          "type": "address"
        }
      ],
      "stateMutability": "view",
      "type": "function"
    },
    {
      "inputs": [],
      "name": "totalSupply",
      "outputs": [
        {
          "internalType": "uint256",
          "name": "",
          "type": "uint256"
        }
      ],
      "stateMutability": "view",
      "type": "function"
    },
    {
      "inputs": [
        {
          "internalType": "address",
          "name": "to",
          "type": "address"
        },
        {
          "internalType": "uint256",
          "name": "amount",
          "type": "uint256"
        }
      ],
      "name": "transfer",
      "outputs": [
        {
          "internalType": "bool",
          "name": "",
          "type": "bool"
        }
      ],
      "stateMutability": "nonpayable",
      "type": "function"
    },
    {
      "inputs": [
        {
          "internalType": "address",
          "name": "from",
          "type": "address"
        },
        {
          "internalType": "address",
          "name": "to",
          "type": "address"
        },
        {
          "internalType": "uint256",
          "name": "amount",
          "type": "uint256"
        }
      ],
      "name": "transferFrom",
      "outputs": [
        {
          "internalType": "bool",
          "name": "",
          "type": "bool"
        }
      ],
      "stateMutability": "nonpayable",
      "type": "function"
    },
    {
      "inputs": [
        {
          "internalType": "address",
          "name": "newOwner",
          "type": "address"
        }
      ],
      "name": "transferOwnership",
      "outputs": [],
      "stateMutability": "nonpayable",
      "type": "function"
    },
    {
      "inputs": [
        {
          "internalType": "uint16",
          "name": "",
          "type": "uint16"
        }
      ],
      "name": "trustedRemoteLookup",
      "outputs": [
        {
          "internalType": "bytes",
          "name": "",
          "type": "bytes"
        }
      ],
      "stateMutability": "view",
      "type": "function"
    },
    {
      "inputs": [],
      "name": "twTap",
      "outputs": [
        {
          "internalType": "contract TwTAP",
          "name": "",
          "type": "address"
        }
      ],
      "stateMutability": "view",
      "type": "function"
    },
    {
      "inputs": [
        {
          "internalType": "address",
          "name": "to",
          "type": "address"
        },
        {
          "internalType": "uint256",
          "name": "tokenID",
          "type": "uint256"
        },
        {
          "internalType": "uint16",
          "name": "lzDstChainId",
          "type": "uint16"
        },
        {
          "internalType": "address",
          "name": "zroPaymentAddress",
          "type": "address"
        },
        {
          "internalType": "bytes",
          "name": "adapterParams",
          "type": "bytes"
        },
        {
          "components": [
            {
              "internalType": "address payable",
              "name": "refundAddress",
              "type": "address"
            },
            {
              "internalType": "address",
              "name": "zroPaymentAddress",
              "type": "address"
            },
            {
              "internalType": "bytes",
              "name": "adapterParams",
              "type": "bytes"
            }
          ],
          "internalType": "struct ICommonOFT.LzCallParams",
          "name": "twTapSendBackAdapterParams",
          "type": "tuple"
        }
      ],
      "name": "unlockTwTapPosition",
      "outputs": [],
      "stateMutability": "payable",
      "type": "function"
    },
    {
      "inputs": [
        {
          "internalType": "bool",
          "name": "val",
          "type": "bool"
        }
      ],
      "name": "updatePause",
      "outputs": [],
      "stateMutability": "nonpayable",
      "type": "function"
    },
    {
      "inputs": [],
      "name": "useCustomAdapterParams",
      "outputs": [
        {
          "internalType": "bool",
          "name": "",
          "type": "bool"
        }
      ],
      "stateMutability": "view",
      "type": "function"
    },
    {
      "stateMutability": "payable",
      "type": "receive"
    }
  ],
  "bytecode": "0x6101e03462000a1357601f62006da238819003918201601f19168301916001600160401b03831184841017620007b7578084926101209460405283398101031262000a13576200004f8162000a34565b906200005e6020820162000a34565b6200006c6040830162000a34565b6200007a6060840162000a34565b620000886080850162000a34565b916200009760a0860162000a34565b93620000a660c0870162000a34565b95620000bb61010060e0830151920162000a34565b9760405190620000cb8262000a18565b600682526515185c13d19560d21b602083015260405191620000ed8362000a18565b600683526515185c13d19560d21b60208401526040516200010e8162000a18565b600381526205441560ec1b6020820152604051936200012d8562000a18565b60018552603160f81b6020860152620001463362000a49565b6001600160a01b038416608052600860a0528051906001600160401b038211620007b757600b5490600182811c9216801562000a08575b6020831014620008da5781601f84931162000996575b50602090601f83116001146200090757600092620008fb575b50508160011b916000199060031b1c191617600b555b8051906001600160401b038211620007b757600c5490600182811c92168015620008f0575b6020831014620008da5781601f84931162000868575b50602090601f8311600114620007d957600092620007cd575b50508160011b916000199060031b1c191617600c555b6402540be40060c052620002408162000a90565b610180526200024f8362000c57565b6101a052602081519101209182610140526020815191012080610160524661010052604051927f8b73c3c69bb8fe3d512ecc4cf759cc79239f7b179b0ffacaa9a75d522b39400f6020850152604084015260608301524660808301523060a083015260a082528160c081011060018060401b0360c084011117620007b75760c082016040528151602083012060e05230610120526a2c198d79e6ee5757d400006012556001600160a01b031615620007a35750806016554614620004c7575b5050505050506101c0904282523360018060a01b03600054160362000483576001600160a01b038116156200042f57620003489062000a49565b604051615f72918262000e1083396080518281816105d0015281816108bc01528181610a0601528181610c6801528181610ef401528181610fde015281816120b1015281816121ed01528181612c8401528181613f0301526153c5015260a05182611a4e015260c0518281816145ff015281816156620152818161578f0152818161594c01526159d3015260e051826134ba0152610100518261357501526101205182613484015261014051826135090152610160518261352f0152610180518261195701526101a051826119800152518181816110a5015281816139fe0152613d8d0152f35b60405162461bcd60e51b815260206004820152602660248201527f4f776e61626c653a206e6577206f776e657220697320746865207a65726f206160448201526564647265737360d01b6064820152608490fd5b606460405162461bcd60e51b815260206004820152602060248201527f4f776e61626c653a2063616c6c6572206973206e6f7420746865206f776e65726044820152fd5b6001600160a01b031680156200075e57600a546a0c685fa11e01ec6f0000008082018092116200074857602060008051602062006d8283398151915291600093600a558484526008825260408420818154019055604051908152a36001600160a01b038116156200075e57600a546a030caab724b291812c0000918282018092116200074857600a919091556001600160a01b03166000818152600860209081526040808320805486019055519384529192909160008051602062006d8283398151915291a36001600160a01b031680156200075e57600a546a0a56fa5b99019a5c8000008082018092116200074857602060008051602062006d8283398151915291600093600a558484526008825260408420818154019055604051908152a36001600160a01b038116156200075e57600a546a0422ca8b0a00a4250000008101811162000748576a0422ca8b0a00a425000000908101600a556001600160a01b03919091166000818152600860209081526040808320805486019055519384529192909160008051602062006d8283398151915291a36001600160a01b031680156200075e57600a546a069e10de76676d080000008082018092116200074857602060008051602062006d8283398151915291600093600a558484526008825260408420818154019055604051908152a36001600160a01b031680156200075e57600a546a02116545850052128000008082018092116200074857602060008051602062006d8283398151915291600093600a558484526008825260408420818154019055604051908152a36a269e4562e11e7b8c2c0000600a540362000736573880808080806200030e565b60405163af4b218960e01b8152600490fd5b634e487b7160e01b600052601160045260246000fd5b60405162461bcd60e51b815260206004820152601f60248201527f45524332303a206d696e7420746f20746865207a65726f2061646472657373006044820152606490fd5b60c060049163f1640ae160e01b8282015201fd5b634e487b7160e01b600052604160045260246000fd5b01519050388062000216565b600c600090815293507fdf6966c971051c3d54ec59162606531493a51404a002842f56009d7e5cf4a8c791905b601f19841685106200084c576001945083601f1981161062000832575b505050811b01600c556200022c565b015160001960f88460031b161c1916905538808062000823565b8181015183556020948501946001909301929091019062000806565b600c6000529091507fdf6966c971051c3d54ec59162606531493a51404a002842f56009d7e5cf4a8c7601f840160051c810160208510620008d2575b90849392915b601f830160051c82018110620008c2575050620001fd565b60008155859450600101620008aa565b5080620008a4565b634e487b7160e01b600052602260045260246000fd5b91607f1691620001e7565b015190503880620001ac565b600b600090815293507f0175b7a638427703f0dbe7bb9bbf987a2551717b34e79f33b5b1008d1fa01db991905b601f19841685106200097a576001945083601f1981161062000960575b505050811b01600b55620001c2565b015160001960f88460031b161c1916905538808062000951565b8181015183556020948501946001909301929091019062000934565b600b6000529091507f0175b7a638427703f0dbe7bb9bbf987a2551717b34e79f33b5b1008d1fa01db9601f840160051c81016020851062000a00575b90849392915b601f830160051c82018110620009f057505062000193565b60008155859450600101620009d8565b5080620009d2565b91607f16916200017d565b600080fd5b604081019081106001600160401b03821117620007b757604052565b51906001600160a01b038216820362000a1357565b600080546001600160a01b039283166001600160a01b03198216811783559216907f8be0079c531659141344cd1fd0a4f28419497f9722a3daafe3b4186f6b6457e09080a3565b80516020908181101562000b2d5750601f82511162000acc578082519201519080831062000abd57501790565b82600019910360031b1b161790565b90604051809263305a27a960e01b82528060048301528251908160248401526000935b82851062000b13575050604492506000838284010152601f80199101168101030190fd5b848101820151868601604401529381019385935062000aef565b906001600160401b038211620007b757600e54926001938481811c9116801562000c4c575b83821014620008da57601f811162000c12575b5081601f841160011462000ba6575092829391839260009462000b9a575b50501b916000199060031b1c191617600e5560ff90565b01519250388062000b83565b919083601f198116600e60005284600020946000905b8883831062000bf7575050501062000bdd575b505050811b01600e5560ff90565b015160001960f88460031b161c1916905538808062000bcf565b85870151885590960195948501948793509081019062000bbc565b600e60005284601f84600020920160051c820191601f860160051c015b82811062000c3f57505062000b65565b6000815501859062000c2f565b90607f169062000b52565b80516020908181101562000ce55750601f82511162000c84578082519201519080831062000abd57501790565b90604051809263305a27a960e01b82528060048301528251908160248401526000935b82851062000ccb575050604492506000838284010152601f80199101168101030190fd5b848101820151868601604401529381019385935062000ca7565b906001600160401b038211620007b757600f54926001938481811c9116801562000e04575b83821014620008da57601f811162000dca575b5081601f841160011462000d5e575092829391839260009462000d52575b50501b916000199060031b1c191617600f5560ff90565b01519250388062000d3b565b919083601f198116600f60005284600020946000905b8883831062000daf575050501062000d95575b505050811b01600f5560ff90565b015160001960f88460031b161c1916905538808062000d87565b85870151885590960195948501948793509081019062000d74565b600f60005284601f84600020920160051c820191601f860160051c015b82811062000df757505062000d1d565b6000815501859062000de7565b90607f169062000d0a56fe6080604052600436101561001b575b361561001957600080fd5b005b60003560e01c80621d35671461050057806301ffc9a7146104fb57806306fdde03146104f657806307546172146104f157806307e0db17146104ec578063095ea7b3146104e757806309b489fd146104e25780630df37483146104dd57806310ddb137146104d857806318160ddd1461042e5780631ed2bdb8146104d357806323b872dd146104ce57806328d7eb97146104c95780632930fc77146104c45780632ff2e9dc146104bf578063313ce567146104ba5780633644e515146104b5578063365260b4146104b057806339509351146104ab5780633d8b38f6146104a65780633f1f4fa4146104a15780633f8799ec1461049c57806342d65a8d1461049757806342e32e2514610492578063447705151461048857806348b0daa61461048d5780634c42899a146104885780634eb8c308146104835780635b8c41e61461047e5780635c975abb146104795780635d32a9541461047457806366ad5c8a1461046f578063695ef6bf1461046a5780636eb227ce1461046557806370a0823114610460578063715018a61461045b5780637533d7881461045657806376203b48146104515780637ecebe001461044c57806384b0196e14610447578063857749b01461044257806387f00abc1461043d5780638cfd8f5c146104385780638da5cb5b146104335780639358928b1461042e578063950c8a741461042957806395d89b41146104245780639bdb98121461041f5780639f38369a1461041a578063a2a4b99b14610415578063a457c2d714610410578063a4c51df51461040b578063a6c3d16514610406578063a76975cd14610401578063a9059cbb146103fc578063b25ea8fb146103f7578063b353aaa7146103f2578063baf3292d146103ed578063bf9ff529146103e8578063c4461834146103e3578063cbed8b9c146103de578063d1deba1f146103d9578063d505accf146103d4578063dd62ed3e146103cf578063df2a5b3b146103ca578063e6a20ae6146103c5578063eab45d9c146103c0578063eaffd49a146103bb578063eb8d72b7146103b6578063ed43dd3d146103b1578063ed629c5c146103ac578063f0c46fba146103a7578063f2fde38b146103a2578063f4359ce51461039d578063f5ecbdbc14610398578063f8974de014610393578063fb98faf41461038e578063fc0c546a146103895763fca3b5aa0361000e57612dc3565b612da8565b612d5e565b612cee565b612c1a565b612bfc565b612b35565b612a9e565b612a4b565b6128bc565b612772565b6126e9565b612687565b61266b565b61257e565b612524565b6123e8565b612285565b612199565b61217c565b612150565b6120e0565b61209b565b612046565b61201c565b611fd5565b611e52565b611dbb565b611cfd565b611cc6565b611c23565b611bd8565b611b34565b611b0b565b610a67565b611ae2565b611a90565b611a72565b611a34565b61193c565b6118ff565b611768565b611711565b6115c9565b61158c565b611570565b61148d565b6113f9565b6113d0565b6113ad565b611346565b6110c8565b611071565b61108d565b611045565b610fc4565b610e0f565b610dd6565b610d7a565b610ce6565b610bde565b610bb9565b610b9d565b610b77565b610b15565b610af7565b610ab7565b610a85565b6109dd565b61099e565b610978565b610943565b610893565b61086a565b61078a565b6106cd565b6105b9565b61ffff81160361051157565b600080fd5b9181601f84011215610511578235916001600160401b038311610511576020838186019501011161051157565b6001600160401b0381160361051157565b9060806003198301126105115760043561056d81610505565b916001600160401b0390602435828111610511578161058e91600401610516565b9390939260443561059e81610543565b92606435918211610511576105b591600401610516565b9091565b34610511576105c736610554565b929493919291907f00000000000000000000000000000000000000000000000000000000000000006001600160a01b031633036106885761064d610655926100199761064661062c6106278a61ffff166000526001602052604060002090565b6116f4565b805190818414918261067e575b508161065b575b50613e0c565b3691611293565b923691611293565b926142bf565b9050610668368486611293565b6020815191012090602081519101201438610640565b1515915038610639565b60405162461bcd60e51b815260206004820152601e60248201527f4c7a4170703a20696e76616c696420656e64706f696e742063616c6c657200006044820152606490fd5b346105115760203660031901126105115760043563ffffffff60e01b811680910361051157602090631f7ecdf760e01b8114908115610712575b506040519015158152f35b6301ffc9a760e01b14905038610707565b600091031261051157565b60005b8381106107415750506000910152565b8181015183820152602001610731565b9060209161076a8151809281855285808601910161072e565b601f01601f1916010190565b906020610787928181520190610751565b90565b34610511576000806003193601126108675760405181600b546107ac81611624565b8084529060019081811690811561083f57506001146107e6575b6107e2846107d681880382611257565b60405191829182610776565b0390f35b600b8352602094507f0175b7a638427703f0dbe7bb9bbf987a2551717b34e79f33b5b1008d1fa01db95b82841061082c57505050816107e2936107d692820101936107c6565b8054858501870152928501928101610810565b6107e296506107d69450602092508593915060ff191682840152151560051b820101936107c6565b80fd5b34610511576000366003190112610511576015546040516001600160a01b039091168152602090f35b346105115760006020366003190112610867576004356108b281610505565b6108ba612e36565b7f00000000000000000000000000000000000000000000000000000000000000006001600160a01b0316908290823b1561092e57602461ffff918360405195869485936307e0db1760e01b85521660048401525af180156109295761091d575080f35b610926906111ee565b80f35b6133fd565b5080fd5b6001600160a01b0381160361051157565b346105115760403660031901126105115761096d60043561096381610932565b6024359033613098565b602060405160018152f35b346105115760203660031901126105115760206109966004356139f5565b604051908152f35b346105115760403660031901126105115761ffff6004356109be81610505565b6109c6612e36565b166000526003602052602435604060002055600080f35b346105115760006020366003190112610867576004356109fc81610505565b610a04612e36565b7f00000000000000000000000000000000000000000000000000000000000000006001600160a01b0316908290823b1561092e57602461ffff918360405195869485936310ddb13760e01b85521660048401525af180156109295761091d575080f35b34610511576000366003190112610511576020600a54604051908152f35b3461051157600036600319011261051157610a9f42613d8b565b60005260136020526020604060002054604051908152f35b346105115760603660031901126105115761096d600435610ad781610932565b602435610ae381610932565b60443591610af28333836131c3565b612f90565b34610511576000366003190112610511576020601654604051908152f35b346105115760203660031901126105115760043560ff60175416610b6557610b3d8133613baa565b337f696de425f79f4a40bc6d2122ca50507f0efbeabbff86a84871b7196ab8ea8df7600080a3005b6040516313d0ff5960e31b8152600490fd5b346105115760003660031901126105115760206040516a269e4562e11e7b8c2c00008152f35b3461051157600036600319011261051157602060405160128152f35b34610511576000366003190112610511576020610996613481565b8015150361051157565b346105115760a036600319011261051157600435610bfb81610505565b60643590610c0882610bd4565b608435906001600160401b03821161051157610c2d6106466040933690600401610516565b90610c64610c47610c3f60443561594a565b602435615a08565b928451958694859463040a7bb160e41b8652309060048701615560565b03817f00000000000000000000000000000000000000000000000000000000000000006001600160a01b03165afa908115610929576000908192610cb5575b50604080519182526020820192909252f35b9050610cd8915060403d8111610cdf575b610cd08183611257565b81019061554a565b9038610ca3565b503d610cc6565b3461051157604036600319011261051157600435610d0381610932565b3360009081526009602090815260408083206001600160a01b03851684529091529020546024358101809111610d3d5761096d9133613098565b612e9e565b90604060031983011261051157600435610d5b81610505565b91602435906001600160401b038211610511576105b591600401610516565b3461051157602061ffff610dc7610d9036610d42565b9390911660005260018452610db2610db960406000206040519283809261165e565b0382611257565b848151910120923691611293565b82815191012014604051908152f35b346105115760203660031901126105115761ffff600435610df681610505565b1660005260036020526020604060002054604051908152f35b60c036600319011261051157600435610e2781610932565b606435604435610e3682610505565b60843590610e4382610932565b60a4356001600160401b03811161051157610e62903690600401610516565b9290918015610fb257610e766024356159d1565b5093610ed3610e848661594a565b60408051610366602082015233918101919091526001600160a01b038a1660608201526001600160401b03909116608082015260a08101939093528260c081015b03601f198101845283611257565b6040516303408e4760e41b81526001600160a01b03939092906020846004817f000000000000000000000000000000000000000000000000000000000000000089165afa801561092957600080516020615efd83398151915296610f6c95610f6392610f84575b50610f458933615bdb565b50610f5a610f54368784611293565b8b61406a565b34943691611293565b91339089613ebf565b6040519283529390931692339261ffff1691602090a4005b610fa49060203d8111610fab575b610f9c8183611257565b81019061378a565b5038610f3a565b503d610f92565b604051636989e9d160e11b8152600490fd5b3461051157610fd236610d42565b9190610fdc612e36565b7f00000000000000000000000000000000000000000000000000000000000000006001600160a01b031691823b1561051157604051928380926342d65a8d60e01b8252816110336000988997889460048501614250565b03925af180156109295761091d575080f35b346105115760203660031901126105115760043560005260146020526020604060002054604051908152f35b3461051157600036600319011261051157602060405160008152f35b346105115760003660031901126105115760206040517f00000000000000000000000000000000000000000000000000000000000000008152f35b34610511576040366003190112610511576004356110e581610932565b601554602435916001600160a01b0391821633036111c65760ff60175416610b655782156111b45761111642613d8b565b61112a816000526013602052604060002090565b5461114985611143846000526014602052604060002090565b54612ed0565b116111a25761116c9061115c8584613ccd565b6000526014602052604060002090565b611177848254612ed0565b905516337f9d228d69b5fdb8d273a2336f8fb8612d039631024ea9bf09c424a9503aa078f0600080a4005b60405163fb165f2360e01b8152600490fd5b60405163f1640ae160e01b8152600490fd5b604051639cdc2ed560e01b8152600490fd5b634e487b7160e01b600052604160045260246000fd5b6001600160401b03811161120157604052565b6111d8565b604081019081106001600160401b0382111761120157604052565b602081019081106001600160401b0382111761120157604052565b60c081019081106001600160401b0382111761120157604052565b90601f801991011681019081106001600160401b0382111761120157604052565b6001600160401b03811161120157601f01601f191660200190565b92919261129f82611278565b916112ad6040519384611257565b829481845281830111610511578281602093846000960137010152565b906060600319830112610511576004356112e381610505565b91602435906001600160401b03821161051157806023830112156105115781602461131393600401359101611293565b9060443561078781610543565b60209061133a92826040519483868095519384920161072e565b82019081520301902090565b346105115760206113a461ffff61138383611360366112ca565b94909116600052600582526040600020826040519483868095519384920161072e565b820190815203019020906001600160401b0316600052602052604060002090565b54604051908152f35b3461051157600036600319011261051157602060ff601754166040519015158152f35b3461051157600036600319011261051157600d546040516001600160a01b039091168152602090f35b346105115761140736610554565b919294939030330361142b5761064d61142592610019973691611293565b926143f5565b60405162461bcd60e51b815260206004820152602660248201527f4e6f6e626c6f636b696e674c7a4170703a2063616c6c6572206d7573742062656044820152650204c7a4170760d41b6064820152608490fd5b908160609103126105115790565b60a0366003190112610511576004356114a581610932565b6024356114b181610505565b604435916084356001600160401b03811161051157602061ffff6114e8600080516020615efd83398151915293369060040161147f565b9361155b85356114f781610932565b611515610646868901359861150b8a610932565b6040810190615343565b61151f818a6158fb565b61153461152d6064356159d1565b5085615bdb565b976115408915156155a4565b61155261154c8a61594a565b8c615a08565b9234938b613ebf565b6040519485526001600160a01b0316941692a4005b3461051157600036600319011261051157602061099642613d8b565b34610511576020366003190112610511576004356115a981610932565b60018060a01b031660005260086020526020604060002054604051908152f35b3461051157600080600319360112610867576115e3612e36565b80546001600160a01b03198116825581906001600160a01b03167f8be0079c531659141344cd1fd0a4f28419497f9722a3daafe3b4186f6b6457e08280a380f35b90600182811c92168015611654575b602083101461163e57565b634e487b7160e01b600052602260045260246000fd5b91607f1691611633565b906000929180549161166f83611624565b9182825260019384811690816000146116d15750600114611691575b50505050565b90919394506000526020928360002092846000945b8386106116bd57505050500101903880808061168b565b8054858701830152940193859082016116a6565b9294505050602093945060ff191683830152151560051b0101903880808061168b565b9061170f611708926040519384809261165e565b0383611257565b565b346105115760203660031901126105115761ffff60043561173181610505565b1660005260016020526107e2610db261175460406000206040519283809261165e565b604051918291602083526020830190610751565b60e03660031901126105115760043561178081610932565b60243561178c81610505565b604435916001600160401b0390608435828111610511576117b1903690600401610516565b91909260a4356117c081610543565b60c435828111610511576117d890369060040161147f565b90866118108335966117e988610932565b6118086117fe60208701359661150b88610932565b9a90923691611293565b983691611293565b9360ff6006541660001461187d5793602095936115528461184b600080516020615efd8339815191529a958561ffff9a61155b99169161412b565b6118606118596064356159d1565b5088615bdb565b9a61186c8c15156155a4565b8d6118768d61594a565b9033615a95565b505082939192516118ab57600080516020615efd8339815191529460209461ffff9461155261155b9461184b565b60405162461bcd60e51b815260206004820152602660248201527f4f4654436f72653a205f61646170746572506172616d73206d7573742062652060448201526532b6b83a3c9760d11b6064820152608490fd5b346105115760203660031901126105115760043561191c81610932565b60018060a01b031660005260106020526020604060002054604051908152f35b3461051157600080600319360112610867576119e69061197b7f00000000000000000000000000000000000000000000000000000000000000006135d8565b6119a47f00000000000000000000000000000000000000000000000000000000000000006136d0565b91604051916119b283611221565b818352604051948594600f60f81b86526119d860209360e08589015260e0880190610751565b908682036040880152610751565b904660608601523060808601528260a086015284820360c08601528080855193848152019401925b828110611a1d57505050500390f35b835185528695509381019392810192600101611a0e565b3461051157600036600319011261051157602060405160ff7f0000000000000000000000000000000000000000000000000000000000000000168152f35b34610511576000366003190112610511576020601254604051908152f35b346105115760403660031901126105115760206113a4600435611ab281610505565b61ffff60243591611ac283610505565b166000526002835260406000209061ffff16600052602052604060002090565b34610511576000366003190112610511576000546040516001600160a01b039091168152602090f35b34610511576000366003190112610511576004546040516001600160a01b039091168152602090f35b34610511576000806003193601126108675760405181600c54611b5681611624565b8084529060019081811690811561083f5750600114611b7f576107e2846107d681880382611257565b600c8352602094507fdf6966c971051c3d54ec59162606531493a51404a002842f56009d7e5cf4a8c75b828410611bc557505050816107e2936107d692820101936107c6565b8054858501870152928501928101611ba9565b3461051157602060ff611c1761ffff61138384611bf4366112ca565b94909116600052600782526040600020826040519483868095519384920161072e565b54166040519015158152f35b346105115760203660031901126105115761ffff600435611c4381610505565b166000526001602052610db2611c6360406000206040519283809261165e565b805115611c81576107d681611c7b6107e29351613a39565b90615cb5565b60405162461bcd60e51b815260206004820152601d60248201527f4c7a4170703a206e6f20747275737465642070617468207265636f72640000006044820152606490fd5b34610511576000366003190112610511576015546001600160a01b031633036111c65760ff60175416610b65576020610996613a73565b3461051157604036600319011261051157600435611d1a81610932565b60243590336000526009602052611d478160406000209060018060a01b0316600052602052604060002090565b5491808310611d6857611d5c92039033613098565b60405160018152602090f35b60405162461bcd60e51b815260206004820152602560248201527f45524332303a2064656372656173656420616c6c6f77616e63652062656c6f77604482015264207a65726f60d81b6064820152608490fd5b346105115760e036600319011261051157600435611dd881610505565b6001600160401b039060643582811161051157611df9903690600401610516565b608492919235611e0881610543565b60a43591611e1583610bd4565b60c43595861161051157611e30611e40963690600401610516565b9590946044359060243590615375565b60408051928352602083019190915290f35b3461051157611e6036610d42565b90611e69612e36565b60405192602092808385870137611e956034868381013060601b88820152036014810188520186611257565b60009361ffff8316855260019081815260408620918751916001600160401b03831161120157611ecf83611ec98654611624565b8661426b565b80601f8411600114611f3f575091808092611f2e9695948a9b7f8c0400cfe2d1199b1a725c78960bcc2a344d869b80590d0f2bd005db15a572ce9b94611f34575b50501b916000199060031b1c19161790555b60405193849384614250565b0390a180f35b015192503880611f10565b91939498601f198416611f5787600052602060002090565b938a905b828210611fbe575050917f8c0400cfe2d1199b1a725c78960bcc2a344d869b80590d0f2bd005db15a572ce999a95939185611f2e98969410611fa5575b505050811b019055611f22565b015160001960f88460031b161c19169055388080611f98565b808886978294978701518155019601940190611f5b565b3461051157602036600319011261051157600435611ff281610932565b611ffa612e36565b600d80546001600160a01b0319166001600160a01b0392909216919091179055005b346105115760403660031901126105115761096d60043561203c81610932565b6024359033612f90565b346105115760403660031901126105115760243561206381610932565b61206b612e36565b60008080808094600435905af16120806139c5565b50156120895780f35b60405163312d207360e11b8152600490fd5b34610511576000366003190112610511576040517f00000000000000000000000000000000000000000000000000000000000000006001600160a01b03168152602090f35b34610511576020366003190112610511577f5db758e995a17ec1ad84bdef7e8c3293a0bd6179bcce400dff5d4c3d87db726b602060043561212081610932565b612128612e36565b600480546001600160a01b0319166001600160a01b03929092169182179055604051908152a1005b346105115760203660031901126105115760043560005260136020526020604060002054604051908152f35b346105115760003660031901126105115760206040516127108152f35b34610511576080366003190112610511576004356121b681610505565b6024356121c281610505565b6064356001600160401b038111610511576121e1903690600401610516565b90926121eb612e36565b7f00000000000000000000000000000000000000000000000000000000000000006001600160a01b031690813b156105115760008094612262604051978896879586946332fb62e760e21b865261ffff8092166004870152166024850152604435604485015260806064850152608484019161379f565b03925af180156109295761227257005b8061227f610019926111ee565b80610723565b61228e36610554565b9161ffff869492961660005260056020526122d581604060002060206040518092878b833787820190815203019020906001600160401b0316600052602052604060002090565b5491821561239757612386848361237f7fc264d91f3adc5588250e1551f547752ca0cfa8f6b530d243b9f9f4cab10ea8e59a600061236b846123538e8a8f6123929f908f6123399061232c61234d9436908d611293565b60208151910120146152b6565b61ffff166000526005602052604060002090565b9161529d565b906001600160401b0316600052602052604060002090565b5561237736878d611293565b933691611293565b91886143f5565b6040519586958661530c565b0390a1005b60405162461bcd60e51b815260206004820152602360248201527f4e6f6e626c6f636b696e674c7a4170703a206e6f2073746f726564206d65737360448201526261676560e81b6064820152608490fd5b346105115760e03660031901126105115760043561240581610932565b60243561241181610932565b604435906064359260843560ff81168103610511578442116124df576001600160a01b0380831660008181526010602090815260409182902080546001810190915582517f6e71edae12b1b97f4d1f60370fef10105fa2faae0126114a169c64845d6126c992810192835292830184905287851660608401526080830189905260a083015260c0820198909852610019976124da949293926124d392906124bb8260e08101610ec5565b6124ce60c4359360a4359351902061359b565b6132a7565b161461325b565b613098565b60405162461bcd60e51b815260206004820152601d60248201527f45524332305065726d69743a206578706972656420646561646c696e650000006044820152606490fd5b346105115760403660031901126105115760206113a460043561254681610932565b6024359061255382610932565b60018060a01b03166000526009835260406000209060018060a01b0316600052602052604060002090565b346105115760603660031901126105115760043561259b81610505565b6024356125a781610505565b604435916125b3612e36565b821561262e576123927f9d5c7c0b934da8fefa9c7760c98383778a12dfbfc0c3b3106518f43fb9508ac09361ffff83166000526002602052806126088560406000209061ffff16600052602052604060002090565b556040519384938460409194939294606082019561ffff80921683521660208201520152565b60405162461bcd60e51b81526020600482015260156024820152744c7a4170703a20696e76616c6964206d696e47617360581b6044820152606490fd5b3461051157600036600319011261051157602060405160018152f35b34610511576020366003190112610511577f1584ad594a70cbe1e6515592e1272a987d922b097ead875069cebe8b40c004a460206004356126c781610bd4565b6126cf612e36565b151560ff196006541660ff821617600655604051908152a1005b34610511576101003660031901126105115760043561270781610505565b6001600160401b039060243582811161051157612728903690600401610516565b91906044359061273782610543565b60843561274381610932565b60c4359586116105115761275e610019963690600401610516565b94909360e4359660a435946064359361546b565b346105115761278036610d42565b919061278a612e36565b60009161ffff81168352600160209080825260408520916001600160401b038711611201576127c3876127bd8554611624565b8561426b565b8590601f881160011461282a5750918680879893611f2e957ffa41487ad5d6728f0b19276fa1eddc16558578f5109fc39d2dc33c3230470dab999361281f575b501b906000198460031b1c191617905560405193849384614250565b880135925038612803565b90601f19881661283f85600052602060002090565b9288905b8282106128a5575050918893917ffa41487ad5d6728f0b19276fa1eddc16558578f5109fc39d2dc33c3230470dab9899611f2e96941061288b575b505082811b019055611f22565b870135600019600386901b60f8161c19169055388061287e565b808685968294968c01358155019501930190612843565b60c0366003190112610511576004356128d481610932565b6044356128e081610505565b6064356128ec81610932565b6001600160401b03906084358281116105115761290d903690600401610516565b909260a4359081116105115761292790369060040161147f565b9360409283519161297f836129716103679a8b6020840152338984015260018060a01b0316998a606084015233608084015260243560a084015260c08084015260e08301906137c0565b03601f198101855284611257565b61298a368588611293565b6022815110612a0757906129e060226129e8969594930151976129d761ffff8416996000809d8c825260026020528b82209152602052898d2054906129d0821515613fd2565b101561401e565b34953691611293565b923391613ebf565b5160008152339190600080516020615efd83398151915290602090a480f35b855162461bcd60e51b815260206004820152601c60248201527f4c7a4170703a20696e76616c69642061646170746572506172616d73000000006044820152606490fd5b3461051157600036600319011261051157602060ff600654166040519015158152f35b9181601f84011215610511578235916001600160401b038311610511576020808501948460051b01011161051157565b60e036600319011261051157600435612ab681610932565b6001600160401b039060443582811161051157612ad7903690600401612a6e565b60649291923590612ae782610505565b608435612af381610932565b60a43586811161051157612b0b903690600401610516565b93909260c43597881161051157612b29610019983690600401612a6e565b979096602435906138b9565b3461051157602036600319011261051157600435612b5281610932565b612b5a612e36565b6001600160a01b039081168015612ba857600080546001600160a01b03198116831782559092167f8be0079c531659141344cd1fd0a4f28419497f9722a3daafe3b4186f6b6457e08380a380f35b60405162461bcd60e51b815260206004820152602660248201527f4f776e61626c653a206e6577206f776e657220697320746865207a65726f206160448201526564647265737360d01b6064820152608490fd5b3461051157600036600319011261051157602060405162093a808152f35b3461051157608036600319011261051157600435612c3781610505565b60243590612c4482610505565b612c4f604435610932565b604051633d7b2f6f60e21b815261ffff91821660048201529116602482015230604482015260648035908201526000816084817f00000000000000000000000000000000000000000000000000000000000000006001600160a01b03165afa8015610929576107e291600091612ccd575b5060405191829182610776565b612ce8913d8091833e612ce08183611257565b81019061422b565b38612cc0565b3461051157602036600319011261051157600435612d0b81610bd4565b612d13612e36565b6017549060ff821615159015158181146111b4578060ff927f9c13c5f6c628c1c82eb2b3fd8714da5c2857dbd0ad8ab6b2074abcf81015d396600080a360ff19909216911617601755005b3461051157602036600319011261051157600435612d7a612e36565b806016547fffaac11a2568645519512c4cc04c5052f579642fd6e2236b58ced0451e215dc4600080a3601655005b34610511576000366003190112610511576020604051308152f35b3461051157602036600319011261051157600435612de081610932565b612de8612e36565b6001600160a01b039081169081156111b457816015549182167f1cf2de25c5bf439ac0287061c3a0fa69b3b02867d0ccfd2ded34e42577050b73600080a36001600160a01b03191617601555005b6000546001600160a01b03163303612e4a57565b606460405162461bcd60e51b815260206004820152602060248201527f4f776e61626c653a2063616c6c6572206973206e6f7420746865206f776e65726044820152fd5b90612e999133613098565b600190565b634e487b7160e01b600052601160045260246000fd5b90601f8201809211610d3d57565b6051019081605111610d3d57565b91908201809211610d3d57565b15612ee457565b60405162461bcd60e51b815260206004820152602360248201527f45524332303a207472616e7366657220746f20746865207a65726f206164647260448201526265737360e81b6064820152608490fd5b15612f3c57565b60405162461bcd60e51b815260206004820152602660248201527f45524332303a207472616e7366657220616d6f756e7420657863656564732062604482015265616c616e636560d01b6064820152608490fd5b916001600160a01b0380841692909183156130455761302a82600080516020615f1d83398151915294613040941696612fca881515612edd565b6001600160a01b038116600090815260086020526040902061300f90859054612ff582821015612f35565b039160018060a01b03166000526008602052604060002090565b556001600160a01b0316600090815260086020526040902090565b8054820190556040519081529081906020820190565b0390a3565b60405162461bcd60e51b815260206004820152602560248201527f45524332303a207472616e736665722066726f6d20746865207a65726f206164604482015264647265737360d81b6064820152608490fd5b6001600160a01b03808216929190831561317257821693841561312257806131117f8c5be1e5ebec7d5bd14f71427d1e84f3dd0314c0f7b2291e5b200ac8c7c3b925946130fa6130409560018060a01b03166000526009602052604060002090565b9060018060a01b0316600052602052604060002090565b556040519081529081906020820190565b60405162461bcd60e51b815260206004820152602260248201527f45524332303a20617070726f766520746f20746865207a65726f206164647265604482015261737360f01b6064820152608490fd5b60405162461bcd60e51b8152602060048201526024808201527f45524332303a20617070726f76652066726f6d20746865207a65726f206164646044820152637265737360e01b6064820152608490fd5b6001600160a01b0380821660009081526009602090815260408083209386168352929052209091905492600184016131fb5750505050565b8084106132165761320d930391613098565b3880808061168b565b60405162461bcd60e51b815260206004820152601d60248201527f45524332303a20696e73756666696369656e7420616c6c6f77616e63650000006044820152606490fd5b1561326257565b60405162461bcd60e51b815260206004820152601e60248201527f45524332305065726d69743a20696e76616c6964207369676e617475726500006044820152606490fd5b9161078793916132b693613409565b9190916132de565b600511156132c857565b634e487b7160e01b600052602160045260246000fd5b6132e7816132be565b806132ef5750565b6132f8816132be565b600181036133445760405162461bcd60e51b815260206004820152601860248201527745434453413a20696e76616c6964207369676e617475726560401b6044820152606490fd5b0390fd5b61334d816132be565b6002810361339a5760405162461bcd60e51b815260206004820152601f60248201527f45434453413a20696e76616c6964207369676e6174757265206c656e677468006044820152606490fd5b806133a66003926132be565b146133ad57565b60405162461bcd60e51b815260206004820152602260248201527f45434453413a20696e76616c6964207369676e6174757265202773272076616c604482015261756560f01b6064820152608490fd5b6040513d6000823e3d90fd5b9291906fa2a8918ca85bafe22016d0b997e4df60600160ff1b0383116134755791608094939160ff602094604051948552168484015260408301526060820152600093849182805260015afa156109295781516001600160a01b0381161561346f579190565b50600190565b50505050600090600390565b307f00000000000000000000000000000000000000000000000000000000000000006001600160a01b03161480613572575b156134dc577f000000000000000000000000000000000000000000000000000000000000000090565b60405160208101907f8b73c3c69bb8fe3d512ecc4cf759cc79239f7b179b0ffacaa9a75d522b39400f82527f000000000000000000000000000000000000000000000000000000000000000060408201527f000000000000000000000000000000000000000000000000000000000000000060608201524660808201523060a082015260a0815261356c8161123c565b51902090565b507f000000000000000000000000000000000000000000000000000000000000000046146134b3565b6042906135a6613481565b906040519161190160f01b8352600283015260228201522090565b6001600160401b0381116112015760051b60200190565b60ff81146136165760ff811690601f821161360457604051916135fa83611206565b8252602082015290565b604051632cd44ac360e21b8152600490fd5b50604051600e5481600061362983611624565b8083526001938085169081156136af575060011461364f575b5061078792500382611257565b600e60009081527fbb7b4a454dc3493923482f07822329ed19e8244eff582cc204f8554c3620c3fd94602093509091905b818310613697575050610787935082010138613642565b85548784018501529485019486945091830191613680565b905061078794506020925060ff191682840152151560051b82010138613642565b60ff81146136f25760ff811690601f821161360457604051916135fa83611206565b50604051600f5481600061370583611624565b8083526001938085169081156136af575060011461372a575061078792500382611257565b600f60009081527f8d1108e10bcb7c27dddfc02ed9d693a074039d026cf4ea4240b40f7d581ac80294602093509091905b818310613772575050610787935082010138613642565b8554878401850152948501948694509183019161375b565b90816020910312610511575161078781610505565b908060209392818452848401376000828201840152601f01601f1916010190565b80356137cb81610932565b6001600160a01b03908116835260208201356137e681610932565b1660208301526040810135601e19823603018112156105115701602081359101906001600160401b03811161051157803603821361051157606083816040610787960152019161379f565b90808352602080930192838260051b850194846000925b858410613859575050505050505090565b9091929394959681810384528735603e1984360301811215610511578301803582528681013590605e1981360301821215610511576138a88892839260019560409081868201520191016137c0565b990194019401929594939190613848565b959397929890988181036139b057956040519660e0880181602091610368838c01523360408c015260018060a01b038095169d8e60608d015260808c015260c060a08c015252610100890194926000905b83821061398a57505050505061395d928661393d613966999897969461394994601f1994858584030160c0860152613831565b03908101865285611257565b610f5a613957368784611293565b886140ed565b91339086613ebf565b60405160008152339161ffff1690600080516020615efd83398151915290602090a4565b90919293958380600192848a356139a081610932565b168152019701949392019061390a565b6040516001621398b960e31b03198152600490fd5b3d156139f0573d906139d682611278565b916139e46040519384611257565b82523d6000602084013e565b606090565b8015613a32575b7f00000000000000000000000000000000000000000000000000000000000000008110613a2c5761078790613d8b565b50600090565b50426139fc565b601319810191908211610d3d57565b600019810191908211610d3d57565b605019810191908211610d3d57565b91908203918211610d3d57565b60165446036111b457613a8542613d8b565b613a99816000526013602052604060002090565b54613a2c57600081613b4c575b613ab790613ab2613de2565b612ed0565b3060009081526008602052604090205480613b0e575b508181613ae581946000526013602052604060002090565b557f50f1c5d928feed1018925d3fa59901275ddbeaf4a20a5a52bb174b5381c4fa57600080a390565b9081613b1e91613ab28230613baa565b9182917f2dc0631b0b7c823a8fa80aca575184eef879cd15e865b730472af1a1aee747b6600080a291613acd565b50613b6d613b68613b5f61115c84613a48565b54601254613a66565b601255565b613ab7613ba3613b8f613b7f84613a48565b6000526013602052604060002090565b54613b9c61115c85613a48565b5490613a66565b9050613aa6565b6001600160a01b038116908115613c7e576001600160a01b038116600090815260086020526040902054838110613c2e5783600080516020615f1d83398151915292613c1060009661304094039160018060a01b03166000526008602052604060002090565b55613c1e81600a5403600a55565b6040519081529081906020820190565b60405162461bcd60e51b815260206004820152602260248201527f45524332303a206275726e20616d6f756e7420657863656564732062616c616e604482015261636560f01b6064820152608490fd5b60405162461bcd60e51b815260206004820152602160248201527f45524332303a206275726e2066726f6d20746865207a65726f206164647265736044820152607360f81b6064820152608490fd5b6001600160a01b03811691908215613d3057600a5490828201809211610d3d57600092613d21602092600080516020615f1d83398151915294600a5560018060a01b03166000526008602052604060002090565b818154019055604051908152a3565b60405162461bcd60e51b815260206004820152601f60248201527f45524332303a206d696e7420746f20746865207a65726f2061646472657373006044820152606490fd5b634e487b7160e01b600052601260045260246000fd5b7f00000000000000000000000000000000000000000000000000000000000000008103908111610d3d5762093a80900490565b9081156001838004141715610d3d57565b81810292918115918404141715610d3d57565b601254661f438daa06000090818102918183041490151715610d3d57670de0b6b3a7640000900490565b15613e1357565b60405162461bcd60e51b815260206004820152602660248201527f4c7a4170703a20696e76616c696420736f757263652073656e64696e6720636f6044820152651b9d1c9858dd60d21b6064820152608490fd5b92613e8c61078797959361ffff613e9a9416865260c0602087015260c0860190610751565b908482036040860152610751565b6001600160a01b0391821660608401529316608082015280830360a090910152610751565b94613ee89193929561ffff81166000526001602052613eef60406000206040519485809261165e565b0384611257565b825115613f7457613f0185518261417a565b7f00000000000000000000000000000000000000000000000000000000000000006001600160a01b031693843b1561051157600096613f5691604051998a988997889662c5803160e81b885260048801613e67565b03925af1801561092957613f675750565b8061227f61170f926111ee565b60405162461bcd60e51b815260206004820152603060248201527f4c7a4170703a2064657374696e6174696f6e20636861696e206973206e6f742060448201526f61207472757374656420736f7572636560801b6064820152608490fd5b15613fd957565b60405162461bcd60e51b815260206004820152601a60248201527f4c7a4170703a206d696e4761734c696d6974206e6f74207365740000000000006044820152606490fd5b1561402557565b60405162461bcd60e51b815260206004820152601b60248201527f4c7a4170703a20676173206c696d697420697320746f6f206c6f7700000000006044820152606490fd5b60228251106140a85761ffff602261170f930151911660005260026020526040600020610366600052602052604060002054906129d0821515613fd2565b60405162461bcd60e51b815260206004820152601c60248201527f4c7a4170703a20696e76616c69642061646170746572506172616d73000000006044820152606490fd5b60228251106140a85761ffff602261170f930151911660005260026020526040600020610368600052602052604060002054906129d0821515613fd2565b919060228151106140a857602261ffff9101519216600052600260205261416060406000206001600052602052604060002090565b54908101809111610d3d5761170f916129d0821515613fd2565b61ffff1660005260036020526040600020549081156141df575b1161419b57565b606460405162461bcd60e51b815260206004820152602060248201527f4c7a4170703a207061796c6f61642073697a6520697320746f6f206c617267656044820152fd5b6127109150614194565b81601f820112156105115780516141ff81611278565b9261420d6040519485611257565b8184526020828401011161051157610787916020808501910161072e565b906020828203126105115781516001600160401b0381116105115761078792016141e9565b60409061ffff6107879593168152816020820152019161379f565b90601f811161427957505050565b600091825260208220906020601f850160051c830194106142b5575b601f0160051c01915b8281106142aa57505050565b81815560010161429e565b9092508290614295565b9290916143235a604051633356ae4560e11b602082015261ffff87166024820152608060448201529061431d82610ec56142fc60a483018a610751565b6001600160401b038816606484015282810360231901608484015288610751565b30615eb1565b939015614332575b5050505050565b61433b94614345565b388080808061432b565b91936143e27fe183f33de2837795525b4792ca4cd60535bd77c53b7e7030060bfcf5734d6b0c956143f0939561ffff815160208301209616958660005260056020526143a98361138360208b6040600020826040519483868095519384920161072e565b556001600160401b036143ce604051988998895260a060208a015260a0890190610751565b921660408701528582036060870152610751565b908382036080850152610751565b0390a1565b92919061440183615e64565b6103668103614414575061170f936145cf565b6103678103614427575061170f9361511f565b610368036144385761170f93614b24565b61444a61444484615e09565b60ff1690565b8061445b5750505061170f916155ec565b60010361446b5761170f93615743565b60405162461bcd60e51b815260206004820152600b60248201526a1513d19517dc1858dad95d60aa1b6044820152606490fd5b908160a09103126105115780516144b481610505565b9160208201516144c381610932565b9160408101516144d281610932565b91608060608301516144e381610543565b92015190565b90816020910312610511575190565b60009060033d1161450557565b905060046000803e60005160e01c90565b600060443d1061078757604051600319913d83016004833e81516001600160401b03918282113d6024840111176145735781840194855193841161457b573d85010160208487010111614573575061078792910160200190611257565b949350505050565b50949350505050565b61459c9060206040519282848094519384920161072e565b810103902090565b604051906145b182611206565b600f82526e526561736f6e20746f6f206c6f6e6760881b6020830152565b919290926145e6602083518401016020840161449e565b6001600160a01b03938416989450919060209061462d907f0000000000000000000000000000000000000000000000000000000000000000906001600160401b0316613dcf565b93849261463a8430613ccd565b600d5461466290859061465d906001600160a01b03165b6001600160a01b031690565b612e8e565b50600d546146b29061467c906001600160a01b0316614651565b95604051958694859463488c9c1d60e01b86521660048501604091949392606082019560018060a01b0316825260208201520152565b03816000809662064190f190816147e0575b506146e35760016146d36144f8565b6308c379a014614781575b6146ec575b50505050505050565b61476f966147556146fb6139c5565b936103e8928386511160001461477b576147136145a4565b61472561471f8b614584565b91614584565b9061ffff8c167f574bdbcbc11b0000d0ef23e948d3f9351a7a81eb5a6e064cff5ac3b6c1e310d38880a430615c01565b5082511115905061476957506147696145a4565b93614345565b388080808080806146e3565b85614713565b614789614516565b80614795575b506146de565b8291506147a461471f88614584565b9061ffff89167fb37a1812fafae90276da44877c4a85d68886da845852047d47a816ae20b8d4478580a46147d9838930615c01565b503861478f565b6148009060203d8111614807575b6147f88183611257565b8101906144e9565b50386146c4565b503d6147ee565b91909160608184031261051157604051906001600160401b03906060830182811184821017611201576040528294815161484781610932565b8452602082015161485781610932565b602085015260408201519283116105115760409261487592016141e9565b910152565b81601f8201121561051157805190614891826135c1565b926040926148a184519586611257565b808552602093848087019260051b8501019383851161051157858101925b8584106148d0575050505050505090565b83516001600160401b03908181116105115783019184601f1984890301126105115784516148fd81611206565b898401518152858401519283116105115761491f888b8096958196010161480e565b838201528152019301926148bf565b91909160c08184031261051157805161494681610505565b9260208083015161495681610932565b93604084015161496581610932565b936060810151936080820151936001600160401b03948581116105115783019082601f830112156105115781519161499c836135c1565b926149aa6040519485611257565b808452828085019160051b83010191858311610511578301905b8282106149e657505050509360a083015190811161051157610787920161487a565b83809183516149f481610932565b8152019101906149c4565b90816020910312610511575161078781610932565b60405190614a2182611206565b60168252750a8c2e09ecce87440cec2e640dcdee840cadcdeeaced60531b6020830152565b9060609160408101918152602092816040858094015285518094520193019160005b828110614a76575050505090565b83516001600160a01b031685529381019392810192600101614a68565b8051821015614aa75760209160051b010190565b634e487b7160e01b600052603260045260246000fd5b939061078795916101009461ffff60409560018060a01b03809516895216602088015284870152606086015260a060808601528082511660a086015260208201511660c0850152015191606060e08201520190610751565b6000198114610d3d5760010190565b919290926020614b3b81845185010182850161492e565b600d5491969295506001600160a01b03938416939091869190614b5f908216614651565b9060409685885180946331a9108f60e11b82528180614b8760049e8f83019190602083019252565b03915afa92831561092957600093614ebe575b508116911603614eae57620186a0614bba614bb45a613dbe565b60061c90565b10614e9b57600d54614bd4906001600160a01b0316614651565b803b156105115787600091614bff93838a8a51968795869485936377eceed560e01b85528401614a46565b03925af19081614e88575b50614d0b575050505050506001614c1f6144f8565b6308c379a014614ca4575b614c345750505050565b61320d93614c406139c5565b6103e880825111600014614c9e57614c566145a4565b614c6261471f87614584565b9061ffff88167f574bdbcbc11b0000d0ef23e948d3f9351a7a81eb5a6e064cff5ac3b6c1e310d3600080a48151111561476957506147696145a4565b81614c56565b614cac614516565b80614cb8575b50614c2a565b9050614d05600091614cc985614584565b614cd282614584565b9061ffff88167fb37a1812fafae90276da44877c4a85d68886da845852047d47a816ae20b8d4478680a484848888614345565b38614cb2565b929650939750935086959195519560005b878110614d2e57505050505050505050565b614d4b614651614d3e838c614a93565b516001600160a01b031690565b87516370a0823160e01b81523084820190815290929187918491908290819060200103915afa918215610929578a90600093614e53575b50614651614651614651614d3e85614daf958d614d9e8a6159d1565b5099808b10614e2b575b5050614a93565b91614dba8286614a93565b51519087614dc88488614a93565b51015193803b15610511578a5163695ef6bf60e01b815294600093869384928391614df991908f8e308e8701614abd565b03925af191821561092957614e1392614e18575b50614b15565b614d1c565b8061227f614e25926111ee565b38614e0d565b614e4c91614e468c614e40614d3e8888614a93565b93613a66565b91614eef565b8d38614da8565b614daf919350614651614651614d3e85614e7c614651958d803d10614807576147f88183611257565b97955050505050614d82565b8061227f614e95926111ee565b38614c0a565b5050505050505061170f93614769614a14565b845163ea8e4eb560e01b81528690fd5b82919350614ee190873d8911614ee8575b614ed98183611257565b8101906149ff565b9290614b9a565b503d614ecf565b60405163a9059cbb60e01b602082019081526001600160a01b039384166024830152604480830195909552938152608081019290916001600160401b0384118385101761120157614f8c946000928392866040521693614f4e86611206565b602086527f5361666545524332303a206c6f772d6c6576656c2063616c6c206661696c656460a0820152519082855af1614f866139c5565b91615027565b80518015908115614fa3575b5061170f9150614fc8565b6020915082908101031261051157602061170f910151614fc281610bd4565b38614f98565b15614fcf57565b60405162461bcd60e51b815260206004820152602a60248201527f5361666545524332303a204552433230206f7065726174696f6e20646964206e6044820152691bdd081cdd58d8d9595960b21b6064820152608490fd5b91929015615089575081511561503b575090565b3b156150445790565b60405162461bcd60e51b815260206004820152601d60248201527f416464726573733a2063616c6c20746f206e6f6e2d636f6e74726163740000006044820152606490fd5b82519091501561509c5750805190602001fd5b60405162461bcd60e51b81529081906133409060048301610776565b9160c0838303126105115782516150ce81610505565b9260208101516150dd81610932565b9260408201516150ec81610932565b9260608301516150fb81610932565b9260808101519260a08201516001600160401b03811161051157610787920161480e565b9192909260206151368184518501018285016150b8565b600d5490969195506001600160a01b0393841694509092919061515a908316614651565b6040516331a9108f60e11b815260048101879052909290918483602481875afa9283156109295760009361527c575b50811691160361526a57604051631015a27f60e11b815260048101949094528190849060249082906000905af192839160009461524b575b50506151d4575050506001614c1f6144f8565b92506151e49195508093506159d1565b508281938210615230575b50504790303b156105115760009361521e6040519687958694859463695ef6bf60e01b86523060048701614abd565b0391305af1801561092957613f675750565b6152449161523d91613a66565b8230614eef565b81386151ef565b615262929450803d10614807576147f88183611257565b9138806151c1565b60405163ea8e4eb560e01b8152600490fd5b8291935061529690863d8811614ee857614ed98183611257565b9290615189565b6020919283604051948593843782019081520301902090565b156152bd57565b60405162461bcd60e51b815260206004820152602160248201527f4e6f6e626c6f636b696e674c7a4170703a20696e76616c6964207061796c6f616044820152601960fa1b6064820152608490fd5b916153389060609461ffff6001600160401b03949998979916855260806020860152608085019161379f565b951660408201520152565b903590601e198136030182121561051157018035906001600160401b0382116105115760200191813603831361051157565b94919598979061187661539e6040996153966153a4976153c1993691611293565b943691611293565b9761594a565b928451968794859463040a7bb160e41b8652309060048701615560565b03817f00000000000000000000000000000000000000000000000000000000000000006001600160a01b03165afa91821561092957600090819361540457509190565b90506105b591925060403d8111610cdf57610cd08183611257565b9396949161544d9061078799979461ffff6001600160401b039416875260c0602088015260c087019161379f565b961660408401526060830152608082015260a081850391015261379f565b9196979298959493909430330361550557615487908530615c01565b60405181815290946001600160a01b03169390849061ffff8516907fbf551ec93859b170f9b2141bd9298bf3f64322c6f7beb2543a0cb669834118bf90602090a3833b156105115760009889956154f5936040519c8d9b8c9a8b98633fe79aed60e11b8a5260048a0161541f565b0393f1801561092957613f675750565b60405162461bcd60e51b815260206004820152601f60248201527f4f4654436f72653a2063616c6c6572206d757374206265204f4654436f7265006044820152606490fd5b9190826040910312610511576020825192015190565b9192610787959361ffff61558f9316845260018060a01b0316602084015260a0604084015260a0830190610751565b92151560608201526080818403910152610751565b156155ab57565b60405162461bcd60e51b815260206004820152601960248201527813d19510dbdc994e88185b5bdd5b9d081d1bdbc81cdb585b1b603a1b6044820152606490fd5b9060ff6155f882615e09565b1615806156aa575b61560990615a4e565b61561b61561582615db9565b91615e54565b6001600160a01b0390818316156156a0575b61ffff7fbf551ec93859b170f9b2141bd9298bf3f64322c6f7beb2543a0cb669834118bf926156886020936001600160401b037f00000000000000000000000000000000000000000000000000000000000000009116613dcf565b946156938682613ccd565b60405195865216941692a3565b61dead925061562d565b508051602914615600565b98979692936001600160401b036156e760e0989461ffff6157139995168d5260208d61010091829101528d0190610751565b951660408b015260608a01526001600160a01b0316608089015260a088015286820360c0880152610751565b930152565b6001600160401b0361573860409396959496606084526060840190610751565b951660208201520152565b909161574e84615b02565b909161577f615778876123536157728b61ffff166000526007602052604060002090565b8c611320565b5460ff1690565b916157b56001600160401b0392837f00000000000000000000000000000000000000000000000000000000000000009116613dcf565b9288888b83156158b1575b505050853b156158665794615807969461431d948a94610ec5948d9960001461585f5750505a925b5a978b6040519a8b9863757fea4d60e11b60208b015260248a016156b5565b901561585457509061584f61ffff928560207fb8890edbfc1c74692f527444645f95489c3703cc2df42e4a366f5d06fa6cd88496975191012090604051948594169684615718565b0390a2565b9261170f9492614345565b16926157e8565b50506040516001600160a01b039094168452507f9aedf5fdba8716db3b6705ca00150643309995d4f818a249ed6dde6677e7792d9750919550859450506020840192506143f0915050565b906123536158e6926158e0896158cb6158f3979b30613ccd565b9961ffff166000526007602052604060002090565b90611320565b805460ff19166001179055565b88888b6157c0565b60065460ff16156159425760228251106140a85761ffff602261170f93015191166000526002602052604060002060008052602052604060002054906129d0821515613fd2565b50516118ab57565b7f00000000000000000000000000000000000000000000000000000000000000009081156159cc57046001600160401b0390818111615987571690565b60405162461bcd60e51b815260206004820152601a60248201527f4f4654436f72653a20616d6f756e745344206f766572666c6f770000000000006044820152606490fd5b613d75565b7f000000000000000000000000000000000000000000000000000000000000000080156159cc57810690818103908111610d3d5791565b90604051916000602084015260218301526001600160401b0360c01b9060c01b16604182015260298152606081018181106001600160401b038211176112015760405290565b15615a5557565b60405162461bcd60e51b815260206004820152601860248201527713d19510dbdc994e881a5b9d985b1a59081c185e5b1bd85960421b6044820152606490fd5b939260719261078794604051968794600160f81b602087015260218601526001600160401b0360c01b809360c01b16604186015260018060a01b0316604985015260c01b166069830152615af2815180926020868601910161072e565b8101036051810184520182611257565b90615b1a600160ff615b1385615e09565b1614615a4e565b615b2382615db9565b90615b2d83615e54565b906049845110615b9e576049840151936051815110615b6257615b5f605182015191615b598151613a57565b90615d35565b91565b60405162461bcd60e51b8152602060048201526014602482015273746f55696e7436345f6f75744f66426f756e647360601b6044820152606490fd5b60405162461bcd60e51b8152602060048201526015602482015274746f427974657333325f6f75744f66426f756e647360581b6044820152606490fd5b6107879082906001600160a01b0381163314613baa57615bfc8233836131c3565b613baa565b6107879183916001600160a01b038116308114159081615c2d575b5015612f9057610af28333836131c3565b905033141538615c1c565b15615c3f57565b60405162461bcd60e51b815260206004820152600e60248201526d736c6963655f6f766572666c6f7760901b6044820152606490fd5b15615c7c57565b60405162461bcd60e51b8152602060048201526011602482015270736c6963655f6f75744f66426f756e647360781b6044820152606490fd5b615cc982615cc281612eb4565b1015615c38565b615cd68282511015615c75565b81615cee575050604051600081526020810160405290565b60405191601f811691821560051b808486010193838501920101905b808410615d225750508252601f01601f191660405290565b9092835181526020809101930190615d0a565b615d4282615cc281612eb4565b615d578151615d5084612ec2565b1115615c75565b81615d6f575050604051600081526020810160405290565b60405191601f8116916051831560051b80858701019484860193010101905b808410615da65750508252601f01601f191660405290565b9092835181526020809101930190615d8e565b6021815110615dcc57602d015160601c90565b60405162461bcd60e51b8152602060048201526015602482015274746f416464726573735f6f75744f66426f756e647360581b6044820152606490fd5b6001815110615e19576001015190565b60405162461bcd60e51b8152602060048201526013602482015272746f55696e74385f6f75744f66426f756e647360681b6044820152606490fd5b6029815110615b62576029015190565b6020815110615e74576020015190565b60405162461bcd60e51b8152602060048201526015602482015274746f55696e743235365f6f75744f66426f756e647360581b6044820152606490fd5b9092916000809160405195615ec58761123c565b6096875282602088019560a036883760208451940192f1903d9060968211615ef3575b6000908286523e9190565b60969150615ee856fed81fc9b8523134ed613870ed029d6170cbb73aa6a6bc311b9a642689fb9df59addf252ad1be2c89b69c2b068fc378daa952ba7f163c4a11628f55a4df523b3efa264697066735822122045daf2c2346ca08e265ccf886a64da15d26936fdb016bb0c0bcc6dcb7079852b64736f6c63430008130033ddf252ad1be2c89b69c2b068fc378daa952ba7f163c4a11628f55a4df523b3ef",
  "linkReferences": {},
  "deployedLinkReferences": {}
}