{
  "_format": "hh-sol-artifact-1",
  "contractName": "TapOFT",
  "sourceName": "contracts/tokens/TapOFT.sol",
  "abi": [
    {
      "inputs": [
        {
          "internalType": "address",
          "name": "_lzEndpoint",
          "type": "address"
        },
        {
          "internalType": "address",
          "name": "_contributors",
          "type": "address"
        },
        {
          "internalType": "address",
          "name": "_earlySupporters",
          "type": "address"
        },
        {
          "internalType": "address",
          "name": "_supporters",
          "type": "address"
        },
        {
          "internalType": "address",
          "name": "_lbp",
          "type": "address"
        },
        {
          "internalType": "address",
          "name": "_dao",
          "type": "address"
        },
        {
          "internalType": "address",
          "name": "_airdrop",
          "type": "address"
        },
        {
          "internalType": "uint256",
          "name": "_governanceChainId",
          "type": "uint256"
        },
        {
          "internalType": "address",
          "name": "_conservator",
          "type": "address"
        }
      ],
      "stateMutability": "nonpayable",
      "type": "constructor"
    },
    {
      "anonymous": false,
      "inputs": [
        {
          "indexed": true,
          "internalType": "address",
          "name": "owner",
          "type": "address"
        },
        {
          "indexed": true,
          "internalType": "address",
          "name": "spender",
          "type": "address"
        },
        {
          "indexed": false,
          "internalType": "uint256",
          "name": "value",
          "type": "uint256"
        }
      ],
      "name": "Approval",
      "type": "event"
    },
    {
      "anonymous": false,
      "inputs": [
        {
          "indexed": true,
          "internalType": "address",
          "name": "_from",
          "type": "address"
        },
        {
          "indexed": false,
          "internalType": "uint256",
          "name": "_amount",
          "type": "uint256"
        }
      ],
      "name": "Burned",
      "type": "event"
    },
    {
      "anonymous": false,
      "inputs": [
        {
          "indexed": false,
          "internalType": "uint16",
          "name": "_srcChainId",
          "type": "uint16"
        },
        {
          "indexed": false,
          "internalType": "bytes",
          "name": "_payload",
          "type": "bytes"
        },
        {
          "indexed": false,
          "internalType": "bytes",
          "name": "_reason",
          "type": "bytes"
        }
      ],
      "name": "CallFailedBytes",
      "type": "event"
    },
    {
      "anonymous": false,
      "inputs": [
        {
          "indexed": false,
          "internalType": "uint16",
          "name": "_srcChainId",
          "type": "uint16"
        },
        {
          "indexed": false,
          "internalType": "bytes",
          "name": "_payload",
          "type": "bytes"
        },
        {
          "indexed": false,
          "internalType": "string",
          "name": "_reason",
          "type": "string"
        }
      ],
      "name": "CallFailedStr",
      "type": "event"
    },
    {
      "anonymous": false,
      "inputs": [
        {
          "indexed": true,
          "internalType": "uint16",
          "name": "_srcChainId",
          "type": "uint16"
        },
        {
          "indexed": false,
          "internalType": "bytes",
          "name": "_srcAddress",
          "type": "bytes"
        },
        {
          "indexed": false,
          "internalType": "uint64",
          "name": "_nonce",
          "type": "uint64"
        },
        {
          "indexed": false,
          "internalType": "bytes32",
          "name": "_hash",
          "type": "bytes32"
        }
      ],
      "name": "CallOFTReceivedSuccess",
      "type": "event"
    },
    {
      "anonymous": false,
      "inputs": [
        {
          "indexed": false,
          "internalType": "uint256",
          "name": "week",
          "type": "uint256"
        },
        {
          "indexed": false,
          "internalType": "uint256",
          "name": "amount",
          "type": "uint256"
        }
      ],
      "name": "Emitted",
      "type": "event"
    },
    {
      "anonymous": false,
      "inputs": [
        {
          "indexed": false,
          "internalType": "uint256",
          "name": "_old",
          "type": "uint256"
        },
        {
          "indexed": false,
          "internalType": "uint256",
          "name": "_new",
          "type": "uint256"
        }
      ],
      "name": "GovernanceChainIdentifierUpdated",
      "type": "event"
    },
    {
      "anonymous": false,
      "inputs": [
        {
          "indexed": false,
          "internalType": "uint16",
          "name": "_srcChainId",
          "type": "uint16"
        },
        {
          "indexed": false,
          "internalType": "bytes",
          "name": "_srcAddress",
          "type": "bytes"
        },
        {
          "indexed": false,
          "internalType": "uint64",
          "name": "_nonce",
          "type": "uint64"
        },
        {
          "indexed": false,
          "internalType": "bytes",
          "name": "_payload",
          "type": "bytes"
        },
        {
          "indexed": false,
          "internalType": "bytes",
          "name": "_reason",
          "type": "bytes"
        }
      ],
      "name": "MessageFailed",
      "type": "event"
    },
    {
      "anonymous": false,
      "inputs": [
        {
          "indexed": true,
          "internalType": "address",
          "name": "_by",
          "type": "address"
        },
        {
          "indexed": true,
          "internalType": "address",
          "name": "_to",
          "type": "address"
        },
        {
          "indexed": false,
          "internalType": "uint256",
          "name": "_amount",
          "type": "uint256"
        }
      ],
      "name": "Minted",
      "type": "event"
    },
    {
      "anonymous": false,
      "inputs": [
        {
          "indexed": true,
          "internalType": "address",
          "name": "_old",
          "type": "address"
        },
        {
          "indexed": true,
          "internalType": "address",
          "name": "_new",
          "type": "address"
        }
      ],
      "name": "MinterUpdated",
      "type": "event"
    },
    {
      "anonymous": false,
      "inputs": [
        {
          "indexed": false,
          "internalType": "address",
          "name": "_address",
          "type": "address"
        }
      ],
      "name": "NonContractAddress",
      "type": "event"
    },
    {
      "anonymous": false,
      "inputs": [
        {
          "indexed": true,
          "internalType": "address",
          "name": "previousOwner",
          "type": "address"
        },
        {
          "indexed": true,
          "internalType": "address",
          "name": "newOwner",
          "type": "address"
        }
      ],
      "name": "OwnershipTransferred",
      "type": "event"
    },
    {
      "anonymous": false,
      "inputs": [
        {
          "indexed": false,
          "internalType": "bool",
          "name": "oldState",
          "type": "bool"
        },
        {
          "indexed": false,
          "internalType": "bool",
          "name": "newState",
          "type": "bool"
        }
      ],
      "name": "PausedUpdated",
      "type": "event"
    },
    {
      "anonymous": false,
      "inputs": [
        {
          "indexed": true,
          "internalType": "uint16",
          "name": "_srcChainId",
          "type": "uint16"
        },
        {
          "indexed": true,
          "internalType": "address",
          "name": "_to",
          "type": "address"
        },
        {
          "indexed": false,
          "internalType": "uint256",
          "name": "_amount",
          "type": "uint256"
        }
      ],
      "name": "ReceiveFromChain",
      "type": "event"
    },
    {
      "anonymous": false,
      "inputs": [
        {
          "indexed": false,
          "internalType": "uint16",
          "name": "_srcChainId",
          "type": "uint16"
        },
        {
          "indexed": false,
          "internalType": "bytes",
          "name": "_srcAddress",
          "type": "bytes"
        },
        {
          "indexed": false,
          "internalType": "uint64",
          "name": "_nonce",
          "type": "uint64"
        },
        {
          "indexed": false,
          "internalType": "bytes32",
          "name": "_payloadHash",
          "type": "bytes32"
        }
      ],
      "name": "RetryMessageSuccess",
      "type": "event"
    },
    {
      "anonymous": false,
      "inputs": [
        {
          "indexed": true,
          "internalType": "uint16",
          "name": "_dstChainId",
          "type": "uint16"
        },
        {
          "indexed": true,
          "internalType": "address",
          "name": "_from",
          "type": "address"
        },
        {
          "indexed": true,
          "internalType": "bytes32",
          "name": "_toAddress",
          "type": "bytes32"
        },
        {
          "indexed": false,
          "internalType": "uint256",
          "name": "_amount",
          "type": "uint256"
        }
      ],
      "name": "SendToChain",
      "type": "event"
    },
    {
      "anonymous": false,
      "inputs": [
        {
          "indexed": false,
          "internalType": "uint16",
          "name": "_dstChainId",
          "type": "uint16"
        },
        {
          "indexed": false,
          "internalType": "uint16",
          "name": "_type",
          "type": "uint16"
        },
        {
          "indexed": false,
          "internalType": "uint256",
          "name": "_minDstGas",
          "type": "uint256"
        }
      ],
      "name": "SetMinDstGas",
      "type": "event"
    },
    {
      "anonymous": false,
      "inputs": [
        {
          "indexed": false,
          "internalType": "address",
          "name": "precrime",
          "type": "address"
        }
      ],
      "name": "SetPrecrime",
      "type": "event"
    },
    {
      "anonymous": false,
      "inputs": [
        {
          "indexed": false,
          "internalType": "uint16",
          "name": "_remoteChainId",
          "type": "uint16"
        },
        {
          "indexed": false,
          "internalType": "bytes",
          "name": "_path",
          "type": "bytes"
        }
      ],
      "name": "SetTrustedRemote",
      "type": "event"
    },
    {
      "anonymous": false,
      "inputs": [
        {
          "indexed": false,
          "internalType": "uint16",
          "name": "_remoteChainId",
          "type": "uint16"
        },
        {
          "indexed": false,
          "internalType": "bytes",
          "name": "_remoteAddress",
          "type": "bytes"
        }
      ],
      "name": "SetTrustedRemoteAddress",
      "type": "event"
    },
    {
      "anonymous": false,
      "inputs": [
        {
          "indexed": false,
          "internalType": "bool",
          "name": "_useCustomAdapterParams",
          "type": "bool"
        }
      ],
      "name": "SetUseCustomAdapterParams",
      "type": "event"
    },
    {
      "anonymous": false,
      "inputs": [
        {
          "indexed": true,
          "internalType": "address",
          "name": "from",
          "type": "address"
        },
        {
          "indexed": true,
          "internalType": "address",
          "name": "to",
          "type": "address"
        },
        {
          "indexed": false,
          "internalType": "uint256",
          "name": "value",
          "type": "uint256"
        }
      ],
      "name": "Transfer",
      "type": "event"
    },
    {
      "inputs": [],
      "name": "DEFAULT_PAYLOAD_SIZE_LIMIT",
      "outputs": [
        {
          "internalType": "uint256",
          "name": "",
          "type": "uint256"
        }
      ],
      "stateMutability": "view",
      "type": "function"
    },
    {
      "inputs": [],
      "name": "DOMAIN_SEPARATOR",
      "outputs": [
        {
          "internalType": "bytes32",
          "name": "",
          "type": "bytes32"
        }
      ],
      "stateMutability": "view",
      "type": "function"
    },
    {
      "inputs": [],
      "name": "INITIAL_SUPPLY",
      "outputs": [
        {
          "internalType": "uint256",
          "name": "",
          "type": "uint256"
        }
      ],
      "stateMutability": "view",
      "type": "function"
    },
    {
      "inputs": [],
      "name": "NO_EXTRA_GAS",
      "outputs": [
        {
          "internalType": "uint256",
          "name": "",
          "type": "uint256"
        }
      ],
      "stateMutability": "view",
      "type": "function"
    },
    {
      "inputs": [],
      "name": "PT_SEND",
      "outputs": [
        {
          "internalType": "uint8",
          "name": "",
          "type": "uint8"
        }
      ],
      "stateMutability": "view",
      "type": "function"
    },
    {
      "inputs": [],
      "name": "PT_SEND_AND_CALL",
      "outputs": [
        {
          "internalType": "uint8",
          "name": "",
          "type": "uint8"
        }
      ],
      "stateMutability": "view",
      "type": "function"
    },
    {
      "inputs": [],
      "name": "WEEK",
      "outputs": [
        {
          "internalType": "uint256",
          "name": "",
          "type": "uint256"
        }
      ],
      "stateMutability": "view",
      "type": "function"
    },
    {
      "inputs": [
        {
          "internalType": "address",
          "name": "owner",
          "type": "address"
        },
        {
          "internalType": "address",
          "name": "spender",
          "type": "address"
        }
      ],
      "name": "allowance",
      "outputs": [
        {
          "internalType": "uint256",
          "name": "",
          "type": "uint256"
        }
      ],
      "stateMutability": "view",
      "type": "function"
    },
    {
      "inputs": [
        {
          "internalType": "address",
          "name": "spender",
          "type": "address"
        },
        {
          "internalType": "uint256",
          "name": "amount",
          "type": "uint256"
        }
      ],
      "name": "approve",
      "outputs": [
        {
          "internalType": "bool",
          "name": "",
          "type": "bool"
        }
      ],
      "stateMutability": "nonpayable",
      "type": "function"
    },
    {
      "inputs": [
        {
          "internalType": "address",
          "name": "account",
          "type": "address"
        }
      ],
      "name": "balanceOf",
      "outputs": [
        {
          "internalType": "uint256",
          "name": "",
          "type": "uint256"
        }
      ],
      "stateMutability": "view",
      "type": "function"
    },
    {
      "inputs": [
        {
          "internalType": "uint16",
          "name": "_srcChainId",
          "type": "uint16"
        },
        {
          "internalType": "bytes",
          "name": "_srcAddress",
          "type": "bytes"
        },
        {
          "internalType": "uint64",
          "name": "_nonce",
          "type": "uint64"
        },
        {
          "internalType": "bytes32",
          "name": "_from",
          "type": "bytes32"
        },
        {
          "internalType": "address",
          "name": "_to",
          "type": "address"
        },
        {
          "internalType": "uint256",
          "name": "_amount",
          "type": "uint256"
        },
        {
          "internalType": "bytes",
          "name": "_payload",
          "type": "bytes"
        },
        {
          "internalType": "uint256",
          "name": "_gasForCall",
          "type": "uint256"
        }
      ],
      "name": "callOnOFTReceived",
      "outputs": [],
      "stateMutability": "nonpayable",
      "type": "function"
    },
    {
      "inputs": [],
      "name": "circulatingSupply",
      "outputs": [
        {
          "internalType": "uint256",
          "name": "",
          "type": "uint256"
        }
      ],
      "stateMutability": "view",
      "type": "function"
    },
    {
      "inputs": [
        {
          "internalType": "address",
          "name": "to",
          "type": "address"
        },
        {
          "internalType": "uint256",
          "name": "tokenID",
          "type": "uint256"
        },
        {
          "internalType": "address[]",
          "name": "rewardTokens",
          "type": "address[]"
        },
        {
          "internalType": "uint16",
          "name": "lzDstChainId",
          "type": "uint16"
        },
        {
          "internalType": "address",
          "name": "zroPaymentAddress",
          "type": "address"
        },
        {
          "internalType": "bytes",
          "name": "adapterParams",
          "type": "bytes"
        },
        {
          "components": [
            {
              "internalType": "uint256",
              "name": "ethValue",
              "type": "uint256"
            },
            {
              "components": [
                {
                  "internalType": "address payable",
                  "name": "refundAddress",
                  "type": "address"
                },
                {
                  "internalType": "address",
                  "name": "zroPaymentAddress",
                  "type": "address"
                },
                {
                  "internalType": "bytes",
                  "name": "adapterParams",
                  "type": "bytes"
                }
              ],
              "internalType": "struct ISendFrom.LzCallParams",
              "name": "callParams",
              "type": "tuple"
            }
          ],
          "internalType": "struct IRewardClaimSendFromParams[]",
          "name": "rewardClaimSendParams",
          "type": "tuple[]"
        }
      ],
      "name": "claimRewards",
      "outputs": [],
      "stateMutability": "payable",
      "type": "function"
    },
    {
      "inputs": [
        {
          "internalType": "uint16",
          "name": "",
          "type": "uint16"
        },
        {
          "internalType": "bytes",
          "name": "",
          "type": "bytes"
        },
        {
          "internalType": "uint64",
          "name": "",
          "type": "uint64"
        }
      ],
      "name": "creditedPackets",
      "outputs": [
        {
          "internalType": "bool",
          "name": "",
          "type": "bool"
        }
      ],
      "stateMutability": "view",
      "type": "function"
    },
    {
      "inputs": [],
      "name": "decimals",
      "outputs": [
        {
          "internalType": "uint8",
          "name": "",
          "type": "uint8"
        }
      ],
      "stateMutability": "pure",
      "type": "function"
    },
    {
      "inputs": [
        {
          "internalType": "address",
          "name": "spender",
          "type": "address"
        },
        {
          "internalType": "uint256",
          "name": "subtractedValue",
          "type": "uint256"
        }
      ],
      "name": "decreaseAllowance",
      "outputs": [
        {
          "internalType": "bool",
          "name": "",
          "type": "bool"
        }
      ],
      "stateMutability": "nonpayable",
      "type": "function"
    },
    {
      "inputs": [],
      "name": "dso_supply",
      "outputs": [
        {
          "internalType": "uint256",
          "name": "",
          "type": "uint256"
        }
      ],
      "stateMutability": "view",
      "type": "function"
    },
    {
      "inputs": [
        {
          "internalType": "uint256",
          "name": "",
          "type": "uint256"
        }
      ],
      "name": "emissionForWeek",
      "outputs": [
        {
          "internalType": "uint256",
          "name": "",
          "type": "uint256"
        }
      ],
      "stateMutability": "view",
      "type": "function"
    },
    {
      "inputs": [],
      "name": "emissionsStartTime",
      "outputs": [
        {
          "internalType": "uint256",
          "name": "",
          "type": "uint256"
        }
      ],
      "stateMutability": "view",
      "type": "function"
    },
    {
      "inputs": [],
      "name": "emitForWeek",
      "outputs": [
        {
          "internalType": "uint256",
          "name": "",
          "type": "uint256"
        }
      ],
      "stateMutability": "nonpayable",
      "type": "function"
    },
    {
      "inputs": [
        {
          "internalType": "uint16",
          "name": "_dstChainId",
          "type": "uint16"
        },
        {
          "internalType": "bytes32",
          "name": "_toAddress",
          "type": "bytes32"
        },
        {
          "internalType": "uint256",
          "name": "_amount",
          "type": "uint256"
        },
        {
          "internalType": "bytes",
          "name": "_payload",
          "type": "bytes"
        },
        {
          "internalType": "uint64",
          "name": "_dstGasForCall",
          "type": "uint64"
        },
        {
          "internalType": "bool",
          "name": "_useZro",
          "type": "bool"
        },
        {
          "internalType": "bytes",
          "name": "_adapterParams",
          "type": "bytes"
        }
      ],
      "name": "estimateSendAndCallFee",
      "outputs": [
        {
          "internalType": "uint256",
          "name": "nativeFee",
          "type": "uint256"
        },
        {
          "internalType": "uint256",
          "name": "zroFee",
          "type": "uint256"
        }
      ],
      "stateMutability": "view",
      "type": "function"
    },
    {
      "inputs": [
        {
          "internalType": "uint16",
          "name": "_dstChainId",
          "type": "uint16"
        },
        {
          "internalType": "bytes32",
          "name": "_toAddress",
          "type": "bytes32"
        },
        {
          "internalType": "uint256",
          "name": "_amount",
          "type": "uint256"
        },
        {
          "internalType": "bool",
          "name": "_useZro",
          "type": "bool"
        },
        {
          "internalType": "bytes",
          "name": "_adapterParams",
          "type": "bytes"
        }
      ],
      "name": "estimateSendFee",
      "outputs": [
        {
          "internalType": "uint256",
          "name": "nativeFee",
          "type": "uint256"
        },
        {
          "internalType": "uint256",
          "name": "zroFee",
          "type": "uint256"
        }
      ],
      "stateMutability": "view",
      "type": "function"
    },
    {
      "inputs": [
        {
          "internalType": "address",
          "name": "_to",
          "type": "address"
        },
        {
          "internalType": "uint256",
          "name": "_amount",
          "type": "uint256"
        }
      ],
      "name": "extractTAP",
      "outputs": [],
      "stateMutability": "nonpayable",
      "type": "function"
    },
    {
      "inputs": [
        {
          "internalType": "uint16",
          "name": "",
          "type": "uint16"
        },
        {
          "internalType": "bytes",
          "name": "",
          "type": "bytes"
        },
        {
          "internalType": "uint64",
          "name": "",
          "type": "uint64"
        }
      ],
      "name": "failedMessages",
      "outputs": [
        {
          "internalType": "bytes32",
          "name": "",
          "type": "bytes32"
        }
      ],
      "stateMutability": "view",
      "type": "function"
    },
    {
      "inputs": [
        {
          "internalType": "uint16",
          "name": "_srcChainId",
          "type": "uint16"
        },
        {
          "internalType": "bytes",
          "name": "_srcAddress",
          "type": "bytes"
        }
      ],
      "name": "forceResumeReceive",
      "outputs": [],
      "stateMutability": "nonpayable",
      "type": "function"
    },
    {
      "inputs": [
        {
          "internalType": "uint16",
          "name": "_version",
          "type": "uint16"
        },
        {
          "internalType": "uint16",
          "name": "_chainId",
          "type": "uint16"
        },
        {
          "internalType": "address",
          "name": "",
          "type": "address"
        },
        {
          "internalType": "uint256",
          "name": "_configType",
          "type": "uint256"
        }
      ],
      "name": "getConfig",
      "outputs": [
        {
          "internalType": "bytes",
          "name": "",
          "type": "bytes"
        }
      ],
      "stateMutability": "view",
      "type": "function"
    },
    {
      "inputs": [],
      "name": "getCurrentWeek",
      "outputs": [
        {
          "internalType": "uint256",
          "name": "",
          "type": "uint256"
        }
      ],
      "stateMutability": "view",
      "type": "function"
    },
    {
      "inputs": [],
      "name": "getCurrentWeekEmission",
      "outputs": [
        {
          "internalType": "uint256",
          "name": "",
          "type": "uint256"
        }
      ],
      "stateMutability": "view",
      "type": "function"
    },
    {
      "inputs": [
        {
          "internalType": "uint16",
          "name": "_remoteChainId",
          "type": "uint16"
        }
      ],
      "name": "getTrustedRemoteAddress",
      "outputs": [
        {
          "internalType": "bytes",
          "name": "",
          "type": "bytes"
        }
      ],
      "stateMutability": "view",
      "type": "function"
    },
    {
      "inputs": [],
      "name": "governanceChainIdentifier",
      "outputs": [
        {
          "internalType": "uint256",
          "name": "",
          "type": "uint256"
        }
      ],
      "stateMutability": "view",
      "type": "function"
    },
    {
      "inputs": [
        {
          "internalType": "address",
          "name": "spender",
          "type": "address"
        },
        {
          "internalType": "uint256",
          "name": "addedValue",
          "type": "uint256"
        }
      ],
      "name": "increaseAllowance",
      "outputs": [
        {
          "internalType": "bool",
          "name": "",
          "type": "bool"
        }
      ],
      "stateMutability": "nonpayable",
      "type": "function"
    },
    {
      "inputs": [
        {
          "internalType": "uint16",
          "name": "",
          "type": "uint16"
        }
      ],
      "name": "isLdChain",
      "outputs": [
        {
          "internalType": "bool",
          "name": "",
          "type": "bool"
        }
      ],
      "stateMutability": "view",
      "type": "function"
    },
    {
      "inputs": [
        {
          "internalType": "uint16",
          "name": "_srcChainId",
          "type": "uint16"
        },
        {
          "internalType": "bytes",
          "name": "_srcAddress",
          "type": "bytes"
        }
      ],
      "name": "isTrustedRemote",
      "outputs": [
        {
          "internalType": "bool",
          "name": "",
          "type": "bool"
        }
      ],
      "stateMutability": "view",
      "type": "function"
    },
    {
      "inputs": [
        {
          "internalType": "address",
          "name": "to",
          "type": "address"
        },
        {
          "internalType": "uint256",
          "name": "amount",
          "type": "uint256"
        },
        {
          "internalType": "uint256",
          "name": "duration",
          "type": "uint256"
        },
        {
          "internalType": "uint16",
          "name": "lzDstChainId",
          "type": "uint16"
        },
        {
          "internalType": "address",
          "name": "zroPaymentAddress",
          "type": "address"
        },
        {
          "internalType": "bytes",
          "name": "adapterParams",
          "type": "bytes"
        }
      ],
      "name": "lockTwTapPosition",
      "outputs": [],
      "stateMutability": "payable",
      "type": "function"
    },
    {
      "inputs": [],
      "name": "lzEndpoint",
      "outputs": [
        {
          "internalType": "contract ILayerZeroEndpoint",
          "name": "",
          "type": "address"
        }
      ],
      "stateMutability": "view",
      "type": "function"
    },
    {
      "inputs": [
        {
          "internalType": "uint16",
          "name": "_srcChainId",
          "type": "uint16"
        },
        {
          "internalType": "bytes",
          "name": "_srcAddress",
          "type": "bytes"
        },
        {
          "internalType": "uint64",
          "name": "_nonce",
          "type": "uint64"
        },
        {
          "internalType": "bytes",
          "name": "_payload",
          "type": "bytes"
        }
      ],
      "name": "lzReceive",
      "outputs": [],
      "stateMutability": "nonpayable",
      "type": "function"
    },
    {
      "inputs": [
        {
          "internalType": "uint16",
          "name": "",
          "type": "uint16"
        },
        {
          "internalType": "uint16",
          "name": "",
          "type": "uint16"
        }
      ],
      "name": "minDstGasLookup",
      "outputs": [
        {
          "internalType": "uint256",
          "name": "",
          "type": "uint256"
        }
      ],
      "stateMutability": "view",
      "type": "function"
    },
    {
      "inputs": [
        {
          "internalType": "uint256",
          "name": "",
          "type": "uint256"
        }
      ],
      "name": "mintedInWeek",
      "outputs": [
        {
          "internalType": "uint256",
          "name": "",
          "type": "uint256"
        }
      ],
      "stateMutability": "view",
      "type": "function"
    },
    {
      "inputs": [],
      "name": "minter",
      "outputs": [
        {
          "internalType": "address",
          "name": "",
          "type": "address"
        }
      ],
      "stateMutability": "view",
      "type": "function"
    },
    {
      "inputs": [],
      "name": "name",
      "outputs": [
        {
          "internalType": "string",
          "name": "",
          "type": "string"
        }
      ],
      "stateMutability": "view",
      "type": "function"
    },
    {
      "inputs": [
        {
          "internalType": "uint16",
          "name": "_srcChainId",
          "type": "uint16"
        },
        {
          "internalType": "bytes",
          "name": "_srcAddress",
          "type": "bytes"
        },
        {
          "internalType": "uint64",
          "name": "_nonce",
          "type": "uint64"
        },
        {
          "internalType": "bytes",
          "name": "_payload",
          "type": "bytes"
        }
      ],
      "name": "nonblockingLzReceive",
      "outputs": [],
      "stateMutability": "nonpayable",
      "type": "function"
    },
    {
      "inputs": [
        {
          "internalType": "address",
          "name": "owner",
          "type": "address"
        }
      ],
      "name": "nonces",
      "outputs": [
        {
          "internalType": "uint256",
          "name": "",
          "type": "uint256"
        }
      ],
      "stateMutability": "view",
      "type": "function"
    },
    {
      "inputs": [],
      "name": "owner",
      "outputs": [
        {
          "internalType": "address",
          "name": "",
          "type": "address"
        }
      ],
      "stateMutability": "view",
      "type": "function"
    },
    {
      "inputs": [],
      "name": "paused",
      "outputs": [
        {
          "internalType": "bool",
          "name": "",
          "type": "bool"
        }
      ],
      "stateMutability": "view",
      "type": "function"
    },
    {
      "inputs": [
        {
          "internalType": "uint16",
          "name": "",
          "type": "uint16"
        }
      ],
      "name": "payloadSizeLimitLookup",
      "outputs": [
        {
          "internalType": "uint256",
          "name": "",
          "type": "uint256"
        }
      ],
      "stateMutability": "view",
      "type": "function"
    },
    {
      "inputs": [
        {
          "internalType": "address",
          "name": "owner",
          "type": "address"
        },
        {
          "internalType": "address",
          "name": "spender",
          "type": "address"
        },
        {
          "internalType": "uint256",
          "name": "value",
          "type": "uint256"
        },
        {
          "internalType": "uint256",
          "name": "deadline",
          "type": "uint256"
        },
        {
          "internalType": "uint8",
          "name": "v",
          "type": "uint8"
        },
        {
          "internalType": "bytes32",
          "name": "r",
          "type": "bytes32"
        },
        {
          "internalType": "bytes32",
          "name": "s",
          "type": "bytes32"
        }
      ],
      "name": "permit",
      "outputs": [],
      "stateMutability": "nonpayable",
      "type": "function"
    },
    {
      "inputs": [],
      "name": "precrime",
      "outputs": [
        {
          "internalType": "address",
          "name": "",
          "type": "address"
        }
      ],
      "stateMutability": "view",
      "type": "function"
    },
    {
      "inputs": [
        {
          "internalType": "uint256",
          "name": "_amount",
          "type": "uint256"
        }
      ],
      "name": "removeTAP",
      "outputs": [],
      "stateMutability": "nonpayable",
      "type": "function"
    },
    {
      "inputs": [],
      "name": "renounceOwnership",
      "outputs": [],
      "stateMutability": "nonpayable",
      "type": "function"
    },
    {
      "inputs": [
        {
          "internalType": "uint16",
          "name": "_srcChainId",
          "type": "uint16"
        },
        {
          "internalType": "bytes",
          "name": "_srcAddress",
          "type": "bytes"
        },
        {
          "internalType": "uint64",
          "name": "_nonce",
          "type": "uint64"
        },
        {
          "internalType": "bytes",
          "name": "_payload",
          "type": "bytes"
        }
      ],
      "name": "retryMessage",
      "outputs": [],
      "stateMutability": "payable",
      "type": "function"
    },
    {
      "inputs": [
        {
          "internalType": "address",
          "name": "_from",
          "type": "address"
        },
        {
          "internalType": "uint16",
          "name": "_dstChainId",
          "type": "uint16"
        },
        {
          "internalType": "bytes32",
          "name": "_toAddress",
          "type": "bytes32"
        },
        {
          "internalType": "uint256",
          "name": "_amount",
          "type": "uint256"
        },
        {
          "internalType": "bytes",
          "name": "_payload",
          "type": "bytes"
        },
        {
          "internalType": "uint64",
          "name": "_dstGasForCall",
          "type": "uint64"
        },
        {
          "components": [
            {
              "internalType": "address payable",
              "name": "refundAddress",
              "type": "address"
            },
            {
              "internalType": "address",
              "name": "zroPaymentAddress",
              "type": "address"
            },
            {
              "internalType": "bytes",
              "name": "adapterParams",
              "type": "bytes"
            }
          ],
          "internalType": "struct ICommonOFT.LzCallParams",
          "name": "_callParams",
          "type": "tuple"
        }
      ],
      "name": "sendAndCall",
      "outputs": [],
      "stateMutability": "payable",
      "type": "function"
    },
    {
      "inputs": [
        {
          "internalType": "address",
          "name": "_from",
          "type": "address"
        },
        {
          "internalType": "uint16",
          "name": "_dstChainId",
          "type": "uint16"
        },
        {
          "internalType": "bytes32",
          "name": "_toAddress",
          "type": "bytes32"
        },
        {
          "internalType": "uint256",
          "name": "_amount",
          "type": "uint256"
        },
        {
          "components": [
            {
              "internalType": "address payable",
              "name": "refundAddress",
              "type": "address"
            },
            {
              "internalType": "address",
              "name": "zroPaymentAddress",
              "type": "address"
            },
            {
              "internalType": "bytes",
              "name": "adapterParams",
              "type": "bytes"
            }
          ],
          "internalType": "struct ICommonOFT.LzCallParams",
          "name": "_callParams",
          "type": "tuple"
        }
      ],
      "name": "sendFrom",
      "outputs": [],
      "stateMutability": "payable",
      "type": "function"
    },
    {
      "inputs": [
        {
          "internalType": "uint16",
          "name": "_version",
          "type": "uint16"
        },
        {
          "internalType": "uint16",
          "name": "_chainId",
          "type": "uint16"
        },
        {
          "internalType": "uint256",
          "name": "_configType",
          "type": "uint256"
        },
        {
          "internalType": "bytes",
          "name": "_config",
          "type": "bytes"
        }
      ],
      "name": "setConfig",
      "outputs": [],
      "stateMutability": "nonpayable",
      "type": "function"
    },
    {
      "inputs": [
        {
          "internalType": "uint256",
          "name": "_identifier",
          "type": "uint256"
        }
      ],
      "name": "setGovernanceChainIdentifier",
      "outputs": [],
      "stateMutability": "nonpayable",
      "type": "function"
    },
    {
      "inputs": [
        {
          "internalType": "uint16",
          "name": "_chainId",
          "type": "uint16"
        },
        {
          "internalType": "bool",
          "name": "_isLdChain",
          "type": "bool"
        }
      ],
      "name": "setLdChain",
      "outputs": [],
      "stateMutability": "nonpayable",
      "type": "function"
    },
    {
      "inputs": [
        {
          "internalType": "uint16",
          "name": "_dstChainId",
          "type": "uint16"
        },
        {
          "internalType": "uint16",
          "name": "_packetType",
          "type": "uint16"
        },
        {
          "internalType": "uint256",
          "name": "_minGas",
          "type": "uint256"
        }
      ],
      "name": "setMinDstGas",
      "outputs": [],
      "stateMutability": "nonpayable",
      "type": "function"
    },
    {
      "inputs": [
        {
          "internalType": "address",
          "name": "_minter",
          "type": "address"
        }
      ],
      "name": "setMinter",
      "outputs": [],
      "stateMutability": "nonpayable",
      "type": "function"
    },
    {
      "inputs": [
        {
          "internalType": "uint16",
          "name": "_dstChainId",
          "type": "uint16"
        },
        {
          "internalType": "uint256",
          "name": "_size",
          "type": "uint256"
        }
      ],
      "name": "setPayloadSizeLimit",
      "outputs": [],
      "stateMutability": "nonpayable",
      "type": "function"
    },
    {
      "inputs": [
        {
          "internalType": "address",
          "name": "_precrime",
          "type": "address"
        }
      ],
      "name": "setPrecrime",
      "outputs": [],
      "stateMutability": "nonpayable",
      "type": "function"
    },
    {
      "inputs": [
        {
          "internalType": "uint16",
          "name": "_version",
          "type": "uint16"
        }
      ],
      "name": "setReceiveVersion",
      "outputs": [],
      "stateMutability": "nonpayable",
      "type": "function"
    },
    {
      "inputs": [
        {
          "internalType": "uint16",
          "name": "_version",
          "type": "uint16"
        }
      ],
      "name": "setSendVersion",
      "outputs": [],
      "stateMutability": "nonpayable",
      "type": "function"
    },
    {
      "inputs": [
        {
          "internalType": "uint16",
          "name": "_srcChainId",
          "type": "uint16"
        },
        {
          "internalType": "bytes",
          "name": "_path",
          "type": "bytes"
        }
      ],
      "name": "setTrustedRemote",
      "outputs": [],
      "stateMutability": "nonpayable",
      "type": "function"
    },
    {
      "inputs": [
        {
          "internalType": "uint16",
          "name": "_remoteChainId",
          "type": "uint16"
        },
        {
          "internalType": "bytes",
          "name": "_remoteAddress",
          "type": "bytes"
        }
      ],
      "name": "setTrustedRemoteAddress",
      "outputs": [],
      "stateMutability": "nonpayable",
      "type": "function"
    },
    {
      "inputs": [
        {
          "internalType": "address",
          "name": "_twTap",
          "type": "address"
        }
      ],
      "name": "setTwTap",
      "outputs": [],
      "stateMutability": "nonpayable",
      "type": "function"
    },
    {
      "inputs": [
        {
          "internalType": "bool",
          "name": "_useCustomAdapterParams",
          "type": "bool"
        }
      ],
      "name": "setUseCustomAdapterParams",
      "outputs": [],
      "stateMutability": "nonpayable",
      "type": "function"
    },
    {
      "inputs": [],
      "name": "sharedDecimals",
      "outputs": [
        {
          "internalType": "uint8",
          "name": "",
          "type": "uint8"
        }
      ],
      "stateMutability": "view",
      "type": "function"
    },
    {
      "inputs": [
        {
          "internalType": "bytes4",
          "name": "interfaceId",
          "type": "bytes4"
        }
      ],
      "name": "supportsInterface",
      "outputs": [
        {
          "internalType": "bool",
          "name": "",
          "type": "bool"
        }
      ],
      "stateMutability": "view",
      "type": "function"
    },
    {
      "inputs": [],
      "name": "symbol",
      "outputs": [
        {
          "internalType": "string",
          "name": "",
          "type": "string"
        }
      ],
      "stateMutability": "view",
      "type": "function"
    },
    {
      "inputs": [
        {
          "internalType": "uint256",
          "name": "timestamp",
          "type": "uint256"
        }
      ],
      "name": "timestampToWeek",
      "outputs": [
        {
          "internalType": "uint256",
          "name": "",
          "type": "uint256"
        }
      ],
      "stateMutability": "view",
      "type": "function"
    },
    {
      "inputs": [],
      "name": "token",
      "outputs": [
        {
          "internalType": "address",
          "name": "",
          "type": "address"
        }
      ],
      "stateMutability": "view",
      "type": "function"
    },
    {
      "inputs": [],
      "name": "totalSupply",
      "outputs": [
        {
          "internalType": "uint256",
          "name": "",
          "type": "uint256"
        }
      ],
      "stateMutability": "view",
      "type": "function"
    },
    {
      "inputs": [
        {
          "internalType": "address",
          "name": "to",
          "type": "address"
        },
        {
          "internalType": "uint256",
          "name": "amount",
          "type": "uint256"
        }
      ],
      "name": "transfer",
      "outputs": [
        {
          "internalType": "bool",
          "name": "",
          "type": "bool"
        }
      ],
      "stateMutability": "nonpayable",
      "type": "function"
    },
    {
      "inputs": [
        {
          "internalType": "address",
          "name": "from",
          "type": "address"
        },
        {
          "internalType": "address",
          "name": "to",
          "type": "address"
        },
        {
          "internalType": "uint256",
          "name": "amount",
          "type": "uint256"
        }
      ],
      "name": "transferFrom",
      "outputs": [
        {
          "internalType": "bool",
          "name": "",
          "type": "bool"
        }
      ],
      "stateMutability": "nonpayable",
      "type": "function"
    },
    {
      "inputs": [
        {
          "internalType": "address",
          "name": "newOwner",
          "type": "address"
        }
      ],
      "name": "transferOwnership",
      "outputs": [],
      "stateMutability": "nonpayable",
      "type": "function"
    },
    {
      "inputs": [
        {
          "internalType": "uint16",
          "name": "",
          "type": "uint16"
        }
      ],
      "name": "trustedRemoteLookup",
      "outputs": [
        {
          "internalType": "bytes",
          "name": "",
          "type": "bytes"
        }
      ],
      "stateMutability": "view",
      "type": "function"
    },
    {
      "inputs": [],
      "name": "twTap",
      "outputs": [
        {
          "internalType": "contract TwTAP",
          "name": "",
          "type": "address"
        }
      ],
      "stateMutability": "view",
      "type": "function"
    },
    {
      "inputs": [
        {
          "internalType": "address",
          "name": "to",
          "type": "address"
        },
        {
          "internalType": "uint256",
          "name": "tokenID",
          "type": "uint256"
        },
        {
          "internalType": "uint16",
          "name": "lzDstChainId",
          "type": "uint16"
        },
        {
          "internalType": "address",
          "name": "zroPaymentAddress",
          "type": "address"
        },
        {
          "internalType": "bytes",
          "name": "adapterParams",
          "type": "bytes"
        },
        {
          "components": [
            {
              "internalType": "address payable",
              "name": "refundAddress",
              "type": "address"
            },
            {
              "internalType": "address",
              "name": "zroPaymentAddress",
              "type": "address"
            },
            {
              "internalType": "bytes",
              "name": "adapterParams",
              "type": "bytes"
            }
          ],
          "internalType": "struct ICommonOFT.LzCallParams",
          "name": "twTapSendBackAdapterParams",
          "type": "tuple"
        }
      ],
      "name": "unlockTwTapPosition",
      "outputs": [],
      "stateMutability": "payable",
      "type": "function"
    },
    {
      "inputs": [
        {
          "internalType": "bool",
          "name": "val",
          "type": "bool"
        }
      ],
      "name": "updatePause",
      "outputs": [],
      "stateMutability": "nonpayable",
      "type": "function"
    },
    {
      "inputs": [],
      "name": "useCustomAdapterParams",
      "outputs": [
        {
          "internalType": "bool",
          "name": "",
          "type": "bool"
        }
      ],
      "stateMutability": "view",
      "type": "function"
    },
    {
      "stateMutability": "payable",
      "type": "receive"
    }
  ],
  "bytecode": "0x6101c03462000a7c57601f6200655f38819003918201601f19168301916001600160401b0383118484101762000820578084926101209460405283398101031262000a7c576200004f8162000a9d565b906200005e6020820162000a9d565b6200006c6040830162000a9d565b6200007a6060840162000a9d565b620000886080850162000a9d565b916200009760a0860162000a9d565b93620000a660c0870162000a9d565b95620000bb61010060e0830151920162000a9d565b9760405190620000cb8262000a81565b600682526515185c13d19560d21b9182602082015260405192620000ef8462000a81565b600684526020840152604051620001068162000a81565b600381526205441560ec1b602082015260405193620001258562000a81565b60018552603160f81b60208601526200013e3362000ab2565b6001600160a01b038416608052600860a0528051906001600160401b0382116200082057600b5490600182811c9216801562000a71575b6020831014620009435781601f849311620009ff575b50602090601f8311600114620009705760009262000964575b50508160011b916000199060031b1c191617600b555b8051906001600160401b0382116200082057600c5490600182811c9216801562000959575b6020831014620009435781601f849311620008d1575b50602090601f8311600114620008425760009262000836575b50508160011b916000199060031b1c191617600c555b6402540be40060c052602081519101209160208151910120826101405280610160524661010052604051926000805160206200653f8339815191526020850152604084015260608301524660808301523060a083015260a082528160c081011060018060401b0360c084011117620008205760c082016040528151602083012060e05230610120526000805160206200653f833981519152610180526a2c198d79e6ee5757d400006011556001600160a01b031615620007d8575080601555461462000485575b5050505050506101a0904282523360018060a01b03600054160362000441576001600160a01b03811615620003ed57620003259062000ab2565b604051615a25918262000afa83396080518281816105ce015281816108ba01528181610a1101528181610c8b01528181610f5401528181611017015281816120310152818161216d01528181612bca01528181613d8b01528181614d500152615611015260a051826119f6015260c0518261566b015260e05182613485015261010051826135400152610120518261344f015261014051826134d4015261016051826134fa015261018051826134b10152518181816110de015281816137f20152613c1b0152f35b60405162461bcd60e51b815260206004820152602660248201527f4f776e61626c653a206e6577206f776e657220697320746865207a65726f206160448201526564647265737360d01b6064820152608490fd5b606460405162461bcd60e51b815260206004820152602060248201527f4f776e61626c653a2063616c6c6572206973206e6f7420746865206f776e65726044820152fd5b6001600160a01b038116156200079357600a546a0c685fa11e01ec6f000000810181116200077d576a0c685fa11e01ec6f000000908101600a556001600160a01b0391909116600081815260086020908152604080832080548601905551938452919290916000805160206200651f83398151915291a36001600160a01b038116156200079357600a546a030caab724b291812c0000810181116200077d576a030caab724b291812c0000908101600a556001600160a01b0391909116600081815260086020908152604080832080548601905551938452919290916000805160206200651f83398151915291a36001600160a01b038116156200079357600a546a0a56fa5b99019a5c800000810181116200077d576a0a56fa5b99019a5c800000908101600a556001600160a01b0391909116600081815260086020908152604080832080548601905551938452919290916000805160206200651f83398151915291a36001600160a01b038116156200079357600a546a0422ca8b0a00a425000000810181116200077d576a0422ca8b0a00a425000000908101600a556001600160a01b0391909116600081815260086020908152604080832080548601905551938452919290916000805160206200651f83398151915291a36001600160a01b031680156200079357600a546a069e10de76676d080000008082018092116200077d5760206000805160206200651f83398151915291600093600a558484526008825260408420818154019055604051908152a36001600160a01b031680156200079357600a546a02116545850052128000008082018092116200077d5760206000805160206200651f83398151915291600093600a558484526008825260408420818154019055604051908152a36a269e4562e11e7b8c2c0000600a54036200073857388080808080620002eb565b60405162461bcd60e51b815260206004820152601860248201527f696e697469616c20737570706c79206e6f742076616c696400000000000000006044820152606490fd5b634e487b7160e01b600052601160045260246000fd5b60405162461bcd60e51b815260206004820152601f60248201527f45524332303a206d696e7420746f20746865207a65726f2061646472657373006044820152606490fd5b60c060649162461bcd60e51b82820152602060c4820152601560e48201527f4c5a20656e64706f696e74206e6f742076616c6964000000000000000000000061010482015201fd5b634e487b7160e01b600052604160045260246000fd5b0151905038806200020e565b600c600090815293507fdf6966c971051c3d54ec59162606531493a51404a002842f56009d7e5cf4a8c791905b601f1984168510620008b5576001945083601f198116106200089b575b505050811b01600c5562000224565b015160001960f88460031b161c191690553880806200088c565b818101518355602094850194600190930192909101906200086f565b600c6000529091507fdf6966c971051c3d54ec59162606531493a51404a002842f56009d7e5cf4a8c7601f840160051c8101602085106200093b575b90849392915b601f830160051c820181106200092b575050620001f5565b6000815585945060010162000913565b50806200090d565b634e487b7160e01b600052602260045260246000fd5b91607f1691620001df565b015190503880620001a4565b600b600090815293507f0175b7a638427703f0dbe7bb9bbf987a2551717b34e79f33b5b1008d1fa01db991905b601f1984168510620009e3576001945083601f19811610620009c9575b505050811b01600b55620001ba565b015160001960f88460031b161c19169055388080620009ba565b818101518355602094850194600190930192909101906200099d565b600b6000529091507f0175b7a638427703f0dbe7bb9bbf987a2551717b34e79f33b5b1008d1fa01db9601f840160051c81016020851062000a69575b90849392915b601f830160051c8201811062000a595750506200018b565b6000815585945060010162000a41565b508062000a3b565b91607f169162000175565b600080fd5b604081019081106001600160401b038211176200082057604052565b51906001600160a01b038216820362000a7c57565b600080546001600160a01b039283166001600160a01b03198216811783559216907f8be0079c531659141344cd1fd0a4f28419497f9722a3daafe3b4186f6b6457e09080a356fe6080604052600436101561001b575b361561001957600080fd5b005b60003560e01c80621d35671461050057806301ffc9a7146104fb57806306fdde03146104f657806307546172146104f157806307e0db17146104ec578063095ea7b3146104e757806309b489fd146104e25780630df37483146104dd57806310ddb137146104d857806318160ddd146104295780631ed2bdb8146104d357806323b872dd146104ce57806328d7eb97146104c95780632930fc77146104c45780632ff2e9dc146104bf578063313ce567146104ba5780633644e515146104b5578063365260b4146104b057806339509351146104ab5780633b597150146104a65780633d8b38f6146104a15780633f1f4fa41461049c5780633f8799ec1461049757806342d65a8d1461049257806342e32e251461048d578063447705151461048357806348b0daa6146104885780634c42899a146104835780634eb8c3081461047e5780635b8c41e6146104795780635c975abb146104745780635d32a9541461046f57806366ad5c8a1461046a578063695ef6bf146104655780636eb227ce1461046057806370a082311461045b578063715018a6146104565780637533d7881461045157806376203b481461044c5780637ecebe0014610447578063857749b014610442578063862635681461043d57806387f00abc146104385780638cfd8f5c146104335780638da5cb5b1461042e5780639358928b14610429578063950c8a741461042457806395d89b411461041f5780639bdb98121461041a5780639f38369a14610415578063a2a4b99b14610410578063a457c2d71461040b578063a4c51df514610406578063a6c3d16514610401578063a76975cd146103fc578063a9059cbb146103f7578063b353aaa7146103f2578063baf3292d146103ed578063bf9ff529146103e8578063c4461834146103e3578063cbed8b9c146103de578063d1deba1f146103d9578063d505accf146103d4578063dd62ed3e146103cf578063df2a5b3b146103ca578063e6a20ae6146103c5578063eab45d9c146103c0578063eaffd49a146103bb578063eb8d72b7146103b6578063ed43dd3d146103b1578063ed629c5c146103ac578063f0c46fba146103a7578063f2fde38b146103a2578063f4359ce51461039d578063f5ecbdbc14610398578063f8974de014610393578063fb98faf41461038e578063fc0c546a146103895763fca3b5aa0361000e57612d59565b612d3e565b612ce9565b612c34565b612b60565b612b42565b612a7b565b612993565b612929565b612842565b6126f8565b61266f565b612611565b6125f5565b612508565b6124ae565b612368565b612205565b612119565b6120fc565b6120d0565b612060565b61201b565b611ff1565b611faa565b611e27565b611d94565b611cd6565b611cac565b611c09565b611bbe565b611b1a565b611af1565b610a72565b611ac8565b611a76565b611a58565b611a1a565b6119dc565b61199f565b611781565b61172a565b6115e4565b6115a7565b61158b565b6114a8565b611414565b6113eb565b6113c8565b611361565b611101565b6110aa565b6110c6565b61107e565b610ffd565b610e89565b610e50565b610df4565b610d65565b610d09565b610c05565b610bbd565b610ba1565b610b7b565b610b20565b610b02565b610ac2565b610a90565b6109e8565b6109a9565b610983565b61094e565b610891565b610868565b610788565b6106cb565b6105b7565b61ffff81160361051157565b600080fd5b6064359061052382610505565b565b9181601f84011215610511578235916001600160401b038311610511576020838186019501011161051157565b9060806003198301126105115760043561056b81610505565b916001600160401b0390602435828111610511578161058c91600401610525565b9390939260443581811681036105115792606435918211610511576105b391600401610525565b9091565b34610511576105c536610552565b929493919291907f00000000000000000000000000000000000000000000000000000000000000006001600160a01b031633036106865761064b610653926100199761064461062a6106258a61ffff166000526001602052604060002090565b61170f565b805190818414918261067c575b5081610659575b50613c94565b36916112ab565b9236916112ab565b92613f9f565b90506106663684866112ab565b602081519101209060208151910120143861063e565b1515915038610637565b60405162461bcd60e51b815260206004820152601e60248201527f4c7a4170703a20696e76616c696420656e64706f696e742063616c6c657200006044820152606490fd5b346105115760203660031901126105115760043563ffffffff60e01b811680910361051157602090631f7ecdf760e01b8114908115610710575b506040519015158152f35b6301ffc9a760e01b14905038610705565b600091031261051157565b60005b83811061073f5750506000910152565b818101518382015260200161072f565b906020916107688151809281855285808601910161072c565b601f01601f1916010190565b90602061078592818152019061074f565b90565b34610511576000806003193601126108655760405181600b546107aa8161163f565b8084529060019081811690811561083d57506001146107e4575b6107e0846107d48188038261126f565b60405191829182610774565b0390f35b600b8352602094507f0175b7a638427703f0dbe7bb9bbf987a2551717b34e79f33b5b1008d1fa01db95b82841061082a57505050816107e0936107d492820101936107c4565b805485850187015292850192810161080e565b6107e096506107d49450602092508593915060ff191682840152151560051b820101936107c4565b80fd5b34610511576000366003190112610511576014546040516001600160a01b039091168152602090f35b346105115760006020366003190112610865576004356108b081610505565b6108b8612e05565b7f00000000000000000000000000000000000000000000000000000000000000006001600160a01b0316908290823b1561092c57602461ffff918360405195869485936307e0db1760e01b85521660048401525af180156109275761091b575080f35b61092490611221565b80f35b6133c8565b5080fd5b6001600160a01b0381160361051157565b6084359061052382610930565b346105115760403660031901126105115761097860043561096e81610930565b6024359033613067565b602060405160018152f35b346105115760203660031901126105115760206109a16004356137e9565b604051908152f35b346105115760403660031901126105115761ffff6004356109c981610505565b6109d1612e05565b166000526003602052602435604060002055600080f35b34610511576000602036600319011261086557600435610a0781610505565b610a0f612e05565b7f00000000000000000000000000000000000000000000000000000000000000006001600160a01b0316908290823b1561092c57602461ffff918360405195869485936310ddb13760e01b85521660048401525af180156109275761091b575080f35b34610511576000366003190112610511576020600a54604051908152f35b3461051157600036600319011261051157610aaa42613c19565b60005260126020526020604060002054604051908152f35b3461051157606036600319011261051157610978600435610ae281610930565b602435610aee81610930565b60443591610afd833383613192565b612f5f565b34610511576000366003190112610511576020601554604051908152f35b3461051157602036600319011261051157600435610b4360ff601654161561382d565b610b4d8133613ae0565b6040519081527f696de425f79f4a40bc6d2122ca50507f0efbeabbff86a84871b7196ab8ea8df760203392a2005b346105115760003660031901126105115760206040516a269e4562e11e7b8c2c00008152f35b3461051157600036600319011261051157602060405160128152f35b346105115760003660031901126105115760206109a161344c565b60643590811515820361051157565b60a43590811515820361051157565b60043590811515820361051157565b346105115760a036600319011261051157600435610c2281610505565b610c2a610bd8565b90608435906001600160401b03821161051157610c506106446040933690600401610525565b90610c87610c6a610c62604435615340565b6024356153cc565b928451958694859463040a7bb160e41b8652309060048701614eeb565b03817f00000000000000000000000000000000000000000000000000000000000000006001600160a01b03165afa908115610927576000908192610cd8575b50604080519182526020820192909252f35b9050610cfb915060403d8111610d02575b610cf3818361126f565b810190614ed5565b9038610cc6565b503d610ce9565b3461051157604036600319011261051157600435610d2681610930565b3360009081526009602090815260408083206001600160a01b03851684529091529020546024358101809111610d60576109789133613067565b612e6d565b3461051157604036600319011261051157600435610d8281610505565b602435908115158092036105115761ffff90610d9c612e05565b16600052600d60205260406000209060ff80198354169116179055600080f35b90604060031983011261051157600435610dd581610505565b91602435906001600160401b038211610511576105b391600401610525565b3461051157602061ffff610e41610e0a36610dbc565b9390911660005260018452610e2c610e33604060002060405192838092611679565b038261126f565b8481519101209236916112ab565b82815191012014604051908152f35b346105115760203660031901126105115761ffff600435610e7081610505565b1660005260036020526020604060002054604051908152f35b60c036600319011261051157600435610ea181610930565b606435604435602435610eb383610505565b60843591610ec083610930565b60a4356001600160401b03811161051157610edf903690600401610525565b60408051610366602082015233918101919091526001600160a01b03881660608201526080810185905260a0810184905291949092610f3690610f2f8460c081015b03601f19810186528561126f565b15156135ad565b6040516303408e4760e41b81526001600160a01b03956020826004817f00000000000000000000000000000000000000000000000000000000000000008b165afa801561092757610fa896610f9f93610f9592610fcf575b503361559f565b50349436916112ab565b91339087613d47565b60405160008152921691339161ffff169060008051602061597083398151915290602090a4005b610fef9060203d8111610ff6575b610fe7818361126f565b8101906135f2565b5038610f8e565b503d610fdd565b346105115761100b36610dbc565b9190611015612e05565b7f00000000000000000000000000000000000000000000000000000000000000006001600160a01b031691823b1561051157604051928380926342d65a8d60e01b82528161106c6000988997889460048501613f30565b03925af180156109275761091b575080f35b346105115760203660031901126105115760043560005260136020526020604060002054604051908152f35b3461051157600036600319011261051157602060405160008152f35b346105115760003660031901126105115760206040517f00000000000000000000000000000000000000000000000000000000000000008152f35b346105115760403660031901126105115760043561111e81610930565b60243561113060ff601654161561382d565b6014546001600160a01b0390811633036111d7577f9d228d69b5fdb8d273a2336f8fb8612d039631024ea9bf09c424a9503aa078f0906111718315156139b2565b6111b761117d42613c19565b61119d85611195836000526012602052604060002090565b5410156139f1565b6111a78587613a38565b6000526013602052604060002090565b6111c2848254612e9f565b905560405192835292909216913391602090a3005b60405162461bcd60e51b815260206004820152600c60248201526b1d5b985d5d1a1bdc9a5e995960a21b6044820152606490fd5b634e487b7160e01b600052604160045260246000fd5b6001600160401b03811161123457604052565b61120b565b604081019081106001600160401b0382111761123457604052565b60c081019081106001600160401b0382111761123457604052565b90601f801991011681019081106001600160401b0382111761123457604052565b6001600160401b03811161123457601f01601f191660200190565b9291926112b782611290565b916112c5604051938461126f565b829481845281830111610511578281602093846000960137010152565b6060600319820112610511576004356112fa81610505565b916024356001600160401b039283821161051157806023830112156105115781602461132b936004013591016112ab565b9160443590811681036105115790565b60209061135592826040519483868095519384920161072c565b82019081520301902090565b346105115760206113bf61ffff61139e8361137b366112e2565b94909116600052600582526040600020826040519483868095519384920161072c565b820190815203019020906001600160401b0316600052602052604060002090565b54604051908152f35b3461051157600036600319011261051157602060ff601654166040519015158152f35b3461051157600036600319011261051157600e546040516001600160a01b039091168152602090f35b346105115761142236610552565b91929493903033036114465761064b611440926100199736916112ab565b926140d5565b60405162461bcd60e51b815260206004820152602660248201527f4e6f6e626c6f636b696e674c7a4170703a2063616c6c6572206d7573742062656044820152650204c7a4170760d41b6064820152608490fd5b908160609103126105115790565b60a0366003190112610511576004356114c081610930565b6024356114cc81610505565b604435916084356001600160401b03811161051157602061ffff61150360008051602061597083398151915293369060040161149a565b93611576853561151281610930565b61153061064486890135986115268a610930565b6040810190614cce565b61153a818a615253565b61154f6115486064356153ae565b508561559f565b9761155b891515614f2f565b61156d6115678a615340565b8c6153cc565b9234938b613d47565b6040519485526001600160a01b0316941692a4005b346105115760003660031901126105115760206109a142613c19565b34610511576020366003190112610511576004356115c481610930565b60018060a01b031660005260086020526020604060002054604051908152f35b3461051157600080600319360112610865576115fe612e05565b80546001600160a01b03198116825581906001600160a01b03167f8be0079c531659141344cd1fd0a4f28419497f9722a3daafe3b4186f6b6457e08280a380f35b90600182811c9216801561166f575b602083101461165957565b634e487b7160e01b600052602260045260246000fd5b91607f169161164e565b906000929180549161168a8361163f565b9182825260019384811690816000146116ec57506001146116ac575b50505050565b90919394506000526020928360002092846000945b8386106116d85750505050010190388080806116a6565b8054858701830152940193859082016116c1565b9294505050602093945060ff191683830152151560051b010190388080806116a6565b906105236117239260405193848092611679565b038361126f565b346105115760203660031901126105115761ffff60043561174a81610505565b1660005260016020526107e0610e2c61176d604060002060405192838092611679565b60405191829160208352602083019061074f565b60e03660031901126105115760043561179981610930565b6024356117a581610505565b604435916001600160401b0390608435828111610511576117ca903690600401610525565b91909260a43591818316918284036105115760c435908111610511576117f490369060040161149a565b9261182b84359561180487610930565b61182361181960208801359761152689610930565b99909236916112ab565b9736916112ab565b9460ff6006541660001461191e5760228651106118d9578560209561156d611576946118a78c61189461ffff9a8b60226000805160206159708339815191529f0151931660005260028d5261188e60406000206001600052602052604060002090565b54612e9f565b906118a08215156152a8565b10156152f4565b6118bc6118b56064356153ae565b508861559f565b9a6118c88c1515614f2f565b8d6118d28d615340565b9033615459565b60405162461bcd60e51b815260206004820152601c60248201527f4c7a4170703a20696e76616c69642061646170746572506172616d73000000006044820152606490fd5b94809493505161194b576000805160206159708339815191529460209461ffff9461156d611576946118a7565b60405162461bcd60e51b815260206004820152602660248201527f4f4654436f72653a205f61646170746572506172616d73206d7573742062652060448201526532b6b83a3c9760d11b6064820152608490fd5b34610511576020366003190112610511576004356119bc81610930565b60018060a01b0316600052600f6020526020604060002054604051908152f35b3461051157600036600319011261051157602060405160ff7f0000000000000000000000000000000000000000000000000000000000000000168152f35b346105115760203660031901126105115761ffff600435611a3a81610505565b16600052600d602052602060ff604060002054166040519015158152f35b34610511576000366003190112610511576020601154604051908152f35b346105115760403660031901126105115760206113bf600435611a9881610505565b61ffff60243591611aa883610505565b166000526002835260406000209061ffff16600052602052604060002090565b34610511576000366003190112610511576000546040516001600160a01b039091168152602090f35b34610511576000366003190112610511576004546040516001600160a01b039091168152602090f35b34610511576000806003193601126108655760405181600c54611b3c8161163f565b8084529060019081811690811561083d5750600114611b65576107e0846107d48188038261126f565b600c8352602094507fdf6966c971051c3d54ec59162606531493a51404a002842f56009d7e5cf4a8c75b828410611bab57505050816107e0936107d492820101936107c4565b8054858501870152928501928101611b8f565b3461051157602060ff611bfd61ffff61139e84611bda366112e2565b94909116600052600782526040600020826040519483868095519384920161072c565b54166040519015158152f35b346105115760203660031901126105115761ffff600435611c2981610505565b166000526001602052610e2c611c49604060002060405192838092611679565b805115611c67576107d481611c616107e09351613867565b90615728565b60405162461bcd60e51b815260206004820152601d60248201527f4c7a4170703a206e6f20747275737465642070617468207265636f72640000006044820152606490fd5b3461051157600036600319011261051157611ccc60ff601654161561382d565b60206109a16138a1565b3461051157604036600319011261051157600435611cf381610930565b60243590336000526009602052611d208160406000209060018060a01b0316600052602052604060002090565b5491808310611d4157611d3592039033613067565b60405160018152602090f35b60405162461bcd60e51b815260206004820152602560248201527f45524332303a2064656372656173656420616c6c6f77616e63652062656c6f77604482015264207a65726f60d81b6064820152608490fd5b346105115760e036600319011261051157600435611db181610505565b6001600160401b039060643582811161051157611dd2903690600401610525565b608492919235848116810361051157611de9610be7565b9160c43595861161051157611e05611e15963690600401610525565b9590946044359060243590614d00565b60408051928352602083019190915290f35b3461051157611e3536610dbc565b90611e3e612e05565b60405192602092808385870137611e6a6034868381013060601b8882015203601481018852018661126f565b60009361ffff8316855260019081815260408620918751916001600160401b03831161123457611ea483611e9e865461163f565b86613f4b565b80601f8411600114611f14575091808092611f039695948a9b7f8c0400cfe2d1199b1a725c78960bcc2a344d869b80590d0f2bd005db15a572ce9b94611f09575b50501b916000199060031b1c19161790555b60405193849384613f30565b0390a180f35b015192503880611ee5565b91939498601f198416611f2c87600052602060002090565b938a905b828210611f93575050917f8c0400cfe2d1199b1a725c78960bcc2a344d869b80590d0f2bd005db15a572ce999a95939185611f0398969410611f7a575b505050811b019055611ef7565b015160001960f88460031b161c19169055388080611f6d565b808886978294978701518155019601940190611f30565b3461051157602036600319011261051157600435611fc781610930565b611fcf612e05565b600e80546001600160a01b0319166001600160a01b0392909216919091179055005b346105115760403660031901126105115761097860043561201181610930565b6024359033612f5f565b34610511576000366003190112610511576040517f00000000000000000000000000000000000000000000000000000000000000006001600160a01b03168152602090f35b34610511576020366003190112610511577f5db758e995a17ec1ad84bdef7e8c3293a0bd6179bcce400dff5d4c3d87db726b60206004356120a081610930565b6120a8612e05565b600480546001600160a01b0319166001600160a01b03929092169182179055604051908152a1005b346105115760203660031901126105115760043560005260126020526020604060002054604051908152f35b346105115760003660031901126105115760206040516127108152f35b346105115760803660031901126105115760043561213681610505565b60243561214281610505565b6064356001600160401b03811161051157612161903690600401610525565b909261216b612e05565b7f00000000000000000000000000000000000000000000000000000000000000006001600160a01b031690813b1561051157600080946121e2604051978896879586946332fb62e760e21b865261ffff80921660048701521660248501526044356044850152608060648501526084840191613607565b03925af18015610927576121f257005b806121ff61001992611221565b80610721565b61220e36610552565b9161ffff8694929616600052600560205261225581604060002060206040518092878b833787820190815203019020906001600160401b0316600052602052604060002090565b549182156123175761230684836122ff7fc264d91f3adc5588250e1551f547752ca0cfa8f6b530d243b9f9f4cab10ea8e59a60006122eb846122d38e8a8f6123129f908f6122b9906122ac6122cd9436908d6112ab565b6020815191012014614c41565b61ffff166000526005602052604060002090565b91614c28565b906001600160401b0316600052602052604060002090565b556122f736878d6112ab565b9336916112ab565b91886140d5565b60405195869586614c97565b0390a1005b60405162461bcd60e51b815260206004820152602360248201527f4e6f6e626c6f636b696e674c7a4170703a206e6f2073746f726564206d65737360448201526261676560e81b6064820152608490fd5b346105115760e03660031901126105115760043561238581610930565b60243561239181610930565b604435906064359260843560ff8116810361051157844211612469576001600160a01b038083166000818152600f602090815260409182902080546001810190915582517f6e71edae12b1b97f4d1f60370fef10105fa2faae0126114a169c64845d6126c992810192835292830184905287851660608401526080830189905260a083015260c0820198909852610019976124649492939261245d92906124458260e081015b03601f19810184528361126f565b61245860c4359360a43593519020613566565b613276565b161461322a565b613067565b60405162461bcd60e51b815260206004820152601d60248201527f45524332305065726d69743a206578706972656420646561646c696e650000006044820152606490fd5b346105115760403660031901126105115760206113bf6004356124d081610930565b602435906124dd82610930565b60018060a01b03166000526009835260406000209060018060a01b0316600052602052604060002090565b346105115760603660031901126105115760043561252581610505565b60243561253181610505565b6044359161253d612e05565b82156125b8576123127f9d5c7c0b934da8fefa9c7760c98383778a12dfbfc0c3b3106518f43fb9508ac09361ffff83166000526002602052806125928560406000209061ffff16600052602052604060002090565b556040519384938460409194939294606082019561ffff80921683521660208201520152565b60405162461bcd60e51b81526020600482015260156024820152744c7a4170703a20696e76616c6964206d696e47617360581b6044820152606490fd5b3461051157600036600319011261051157602060405160018152f35b34610511576020366003190112610511577f1584ad594a70cbe1e6515592e1272a987d922b097ead875069cebe8b40c004a4602061264d610bf6565b612655612e05565b151560ff196006541660ff821617600655604051908152a1005b34610511576101003660031901126105115760043561268d81610505565b6001600160401b0390602435828111610511576126ae903690600401610525565b9190604435908482168203610511576084356126c981610930565b60c435958611610511576126e4610019963690600401610525565b94909360e4359660a4359460643593614df6565b346105115761270636610dbc565b9190612710612e05565b60009161ffff81168352600160209080825260408520916001600160401b0387116112345761274987612743855461163f565b85613f4b565b8590601f88116001146127b05750918680879893611f03957ffa41487ad5d6728f0b19276fa1eddc16558578f5109fc39d2dc33c3230470dab99936127a5575b501b906000198460031b1c191617905560405193849384613f30565b880135925038612789565b90601f1988166127c585600052602060002090565b9288905b82821061282b575050918893917ffa41487ad5d6728f0b19276fa1eddc16558578f5109fc39d2dc33c3230470dab9899611f03969410612811575b505082811b019055611ef7565b870135600019600386901b60f8161c191690553880612804565b808685968294968c013581550195019301906127c9565b60c03660031901126105115760043561285a81610930565b60443561286681610505565b60643561287281610930565b6001600160401b039060843582811161051157612893903690600401610525565b9160a435938411610511576128fe610f21926128f56128b961290797369060040161149a565b98604051958691610367602084015233604084015260018060a01b03169a8b6060840152602435608084015260a08084015260c0830190613628565b349436916112ab565b91339086613d47565b60405160008152600080516020615970833981519152602061ffff33941692a4005b3461051157600036600319011261051157602060ff600654166040519015158152f35b6001600160401b0381116112345760051b60200190565b9181601f84011215610511578235916001600160401b038311610511576020808501948460051b01011161051157565b60e0366003190112610511576004356129ab81610930565b6044356001600160401b039182821161051157366023830112156105115781600401356129d78161294c565b926129e5604051948561126f565b81845260209160248386019160051b8301019136831161051157602401905b828210612a625750505050612a17610516565b612a1f610941565b9060a43585811161051157612a38903690600401610525565b92909160c43596871161051157612a56610019973690600401612963565b96909560243590613721565b8380918335612a7081610930565b815201910190612a04565b3461051157602036600319011261051157600435612a9881610930565b612aa0612e05565b6001600160a01b039081168015612aee57600080546001600160a01b03198116831782559092167f8be0079c531659141344cd1fd0a4f28419497f9722a3daafe3b4186f6b6457e08380a380f35b60405162461bcd60e51b815260206004820152602660248201527f4f776e61626c653a206e6577206f776e657220697320746865207a65726f206160448201526564647265737360d01b6064820152608490fd5b3461051157600036600319011261051157602060405162093a808152f35b3461051157608036600319011261051157600435612b7d81610505565b60243590612b8a82610505565b612b95604435610930565b604051633d7b2f6f60e21b815261ffff91821660048201529116602482015230604482015260648035908201526000816084817f00000000000000000000000000000000000000000000000000000000000000006001600160a01b03165afa8015610927576107e091600091612c13575b5060405191829182610774565b612c2e913d8091833e612c26818361126f565b810190613f0b565b38612c06565b3461051157602036600319011261051157612c4d610bf6565b612c55612e05565b60ff601654169081151581151514612cb2576040805192151583528115156020840152610019927f9c13c5f6c628c1c82eb2b3fd8714da5c2857dbd0ad8ab6b2074abcf81015d3969190a160ff8019601654169115151617601655565b60405162461bcd60e51b815260206004820152600f60248201526e5441503a2073616d6520737461746560881b6044820152606490fd5b3461051157602036600319011261051157600435612d05612e05565b60155460408051918252602082018390527fffaac11a2568645519512c4cc04c5052f579642fd6e2236b58ced0451e215dc491a1601555005b34610511576000366003190112610511576020604051308152f35b3461051157602036600319011261051157600435612d7681610930565b612d7e612e05565b6001600160a01b03908116908115612dcc57816014549182167f1cf2de25c5bf439ac0287061c3a0fa69b3b02867d0ccfd2ded34e42577050b73600080a36001600160a01b03191617601455005b60405162461bcd60e51b81526020600482015260116024820152701859191c995cdcc81b9bdd081d985b1a59607a1b6044820152606490fd5b6000546001600160a01b03163303612e1957565b606460405162461bcd60e51b815260206004820152602060248201527f4f776e61626c653a2063616c6c6572206973206e6f7420746865206f776e65726044820152fd5b90612e689133613067565b600190565b634e487b7160e01b600052601160045260246000fd5b90601f8201809211610d6057565b6051019081605111610d6057565b91908201809211610d6057565b15612eb357565b60405162461bcd60e51b815260206004820152602360248201527f45524332303a207472616e7366657220746f20746865207a65726f206164647260448201526265737360e81b6064820152608490fd5b15612f0b57565b60405162461bcd60e51b815260206004820152602660248201527f45524332303a207472616e7366657220616d6f756e7420657863656564732062604482015265616c616e636560d01b6064820152608490fd5b916001600160a01b03808416929091831561301457612ff9826000805160206159908339815191529461300f941696612f99881515612eac565b6001600160a01b0381166000908152600860205260409020612fde90859054612fc482821015612f04565b039160018060a01b03166000526008602052604060002090565b556001600160a01b0316600090815260086020526040902090565b8054820190556040519081529081906020820190565b0390a3565b60405162461bcd60e51b815260206004820152602560248201527f45524332303a207472616e736665722066726f6d20746865207a65726f206164604482015264647265737360d81b6064820152608490fd5b6001600160a01b0380821692919083156131415782169384156130f157806130e07f8c5be1e5ebec7d5bd14f71427d1e84f3dd0314c0f7b2291e5b200ac8c7c3b925946130c961300f9560018060a01b03166000526009602052604060002090565b9060018060a01b0316600052602052604060002090565b556040519081529081906020820190565b60405162461bcd60e51b815260206004820152602260248201527f45524332303a20617070726f766520746f20746865207a65726f206164647265604482015261737360f01b6064820152608490fd5b60405162461bcd60e51b8152602060048201526024808201527f45524332303a20617070726f76652066726f6d20746865207a65726f206164646044820152637265737360e01b6064820152608490fd5b6001600160a01b0380821660009081526009602090815260408083209386168352929052209091905492600184016131ca5750505050565b8084106131e5576131dc930391613067565b388080806116a6565b60405162461bcd60e51b815260206004820152601d60248201527f45524332303a20696e73756666696369656e7420616c6c6f77616e63650000006044820152606490fd5b1561323157565b60405162461bcd60e51b815260206004820152601e60248201527f45524332305065726d69743a20696e76616c6964207369676e617475726500006044820152606490fd5b916107859391613285936133d4565b9190916132ad565b6005111561329757565b634e487b7160e01b600052602160045260246000fd5b6132b68161328d565b806132be5750565b6132c78161328d565b6001810361330f5760405162461bcd60e51b815260206004820152601860248201527745434453413a20696e76616c6964207369676e617475726560401b6044820152606490fd5b6133188161328d565b600281036133655760405162461bcd60e51b815260206004820152601f60248201527f45434453413a20696e76616c6964207369676e6174757265206c656e677468006044820152606490fd5b8061337160039261328d565b1461337857565b60405162461bcd60e51b815260206004820152602260248201527f45434453413a20696e76616c6964207369676e6174757265202773272076616c604482015261756560f01b6064820152608490fd5b6040513d6000823e3d90fd5b9291906fa2a8918ca85bafe22016d0b997e4df60600160ff1b0383116134405791608094939160ff602094604051948552168484015260408301526060820152600093849182805260015afa156109275781516001600160a01b0381161561343a579190565b50600190565b50505050600090600390565b307f00000000000000000000000000000000000000000000000000000000000000006001600160a01b0316148061353d575b156134a7577f000000000000000000000000000000000000000000000000000000000000000090565b60405160208101907f000000000000000000000000000000000000000000000000000000000000000082527f000000000000000000000000000000000000000000000000000000000000000060408201527f000000000000000000000000000000000000000000000000000000000000000060608201524660808201523060a082015260a0815261353781611254565b51902090565b507f0000000000000000000000000000000000000000000000000000000000000000461461347e565b61356e61344c565b9060405190602082019261190160f01b84526022830152604282015260428152608081018181106001600160401b038211176112345760405251902090565b156135b457565b60405162461bcd60e51b81526020600482015260166024820152752a30b827a32a1d1029b6b0b63610323ab930ba34b7b760511b6044820152606490fd5b90816020910312610511575161078581610505565b908060209392818452848401376000828201840152601f01601f1916010190565b803561363381610930565b6001600160a01b039081168352602082013561364e81610930565b1660208301526040810135601e19823603018112156105115701602081359101906001600160401b038111610511578036038213610511576060838160406107859601520191613607565b90808352602080930192838260051b850194846000925b8584106136c1575050505050505090565b9091929394959681810384528735603e1984360301811215610511578301803582528681013590605e198136030182121561051157613710889283926001956040908186820152019101613628565b9901940194019295949391906136b0565b9492969190976040519560e087016020610368818a01523360408a015260018060a01b038093169b8c60608b015260808a015260c060a08a01528451809252806101008a019501926000905b8382106137d05750505050506128fe92866137a06137ac99989796946128f594601f1994858584030160c0860152613699565b0390810186528561126f565b60405160008152339161ffff169060008051602061597083398151915290602090a4565b845181168752958201959382019360019091019061376d565b8015613826575b7f000000000000000000000000000000000000000000000000000000000000000081106138205761078590613c19565b50600090565b50426137f0565b1561383457565b60405162461bcd60e51b815260206004820152600b60248201526a1510540e881c185d5cd95960aa1b6044820152606490fd5b601319810191908211610d6057565b600019810191908211610d6057565b605019810191908211610d6057565b91908203918211610d6057565b601554460361397b576138b342613c19565b6138c7816000526012602052604060002090565b54613820576138ec6138e76138de6111a784613876565b54601154613894565b601155565b7f50f1c5d928feed1018925d3fa59901275ddbeaf4a20a5a52bb174b5381c4fa5761395061394361392f61391f85613876565b6000526012602052604060002090565b5461393c6111a786613876565b5490613894565b61394b613c6a565b612e9f565b828161396781956000526012602052604060002090565b55604080519182526020820192909252a190565b60405162461bcd60e51b815260206004820152600f60248201526e18da185a5b881b9bdd081d985b1a59608a1b6044820152606490fd5b156139b957565b60405162461bcd60e51b815260206004820152601060248201526f185b5bdd5b9d081b9bdd081d985b1a5960821b6044820152606490fd5b156139f857565b60405162461bcd60e51b8152602060048201526018602482015277195e18d959591cc8185b1b1bddd8589b1948185b5bdd5b9d60421b6044820152606490fd5b6001600160a01b03811691908215613a9b57600a5490828201809211610d6057600092613a8c60209260008051602061599083398151915294600a5560018060a01b03166000526008602052604060002090565b818154019055604051908152a3565b60405162461bcd60e51b815260206004820152601f60248201527f45524332303a206d696e7420746f20746865207a65726f2061646472657373006044820152606490fd5b6001600160a01b038116908115613bb4576001600160a01b038116600090815260086020526040902054838110613b64578360008051602061599083398151915292613b4660009661300f94039160018060a01b03166000526008602052604060002090565b55613b5481600a5403600a55565b6040519081529081906020820190565b60405162461bcd60e51b815260206004820152602260248201527f45524332303a206275726e20616d6f756e7420657863656564732062616c616e604482015261636560f01b6064820152608490fd5b60405162461bcd60e51b815260206004820152602160248201527f45524332303a206275726e2066726f6d20746865207a65726f206164647265736044820152607360f81b6064820152608490fd5b634e487b7160e01b600052601260045260246000fd5b7f00000000000000000000000000000000000000000000000000000000000000008103908111610d605762093a80900460018101809111610d605790565b81810292918115918404141715610d6057565b601154661f438daa06000090818102918183041490151715610d6057670de0b6b3a7640000900490565b15613c9b57565b60405162461bcd60e51b815260206004820152602660248201527f4c7a4170703a20696e76616c696420736f757263652073656e64696e6720636f6044820152651b9d1c9858dd60d21b6064820152608490fd5b92613d1461078597959361ffff613d229416865260c0602087015260c086019061074f565b90848203604086015261074f565b6001600160a01b0391821660608401529316608082015280830360a09091015261074f565b94613d709193929561ffff81166000526001602052613d77604060002060405194858092611679565b038461126f565b825115613dfc57613d89855182613e5a565b7f00000000000000000000000000000000000000000000000000000000000000006001600160a01b031693843b1561051157600096613dde91604051998a988997889662c5803160e81b885260048801613cef565b03925af1801561092757613def5750565b806121ff61052392611221565b60405162461bcd60e51b815260206004820152603060248201527f4c7a4170703a2064657374696e6174696f6e20636861696e206973206e6f742060448201526f61207472757374656420736f7572636560801b6064820152608490fd5b61ffff166000526003602052604060002054908115613ebf575b11613e7b57565b606460405162461bcd60e51b815260206004820152602060248201527f4c7a4170703a207061796c6f61642073697a6520697320746f6f206c617267656044820152fd5b6127109150613e74565b81601f82011215610511578051613edf81611290565b92613eed604051948561126f565b8184526020828401011161051157610785916020808501910161072c565b906020828203126105115781516001600160401b038111610511576107859201613ec9565b60409061ffff61078595931681528160208201520191613607565b90601f8111613f5957505050565b600091825260208220906020601f850160051c83019410613f95575b601f0160051c01915b828110613f8a57505050565b818155600101613f7e565b9092508290613f75565b9290916140035a604051633356ae4560e11b602082015261ffff871660248201526080604482015290613ffd82612437613fdc60a483018a61074f565b6001600160401b03881660648401528281036023190160848401528861074f565b30615924565b939015614012575b5050505050565b61401b94614025565b388080808061400b565b91936140c27fe183f33de2837795525b4792ca4cd60535bd77c53b7e7030060bfcf5734d6b0c956140d0939561ffff815160208301209616958660005260056020526140898361139e60208b6040600020826040519483868095519384920161072c565b556001600160401b036140ae604051988998895260a060208a015260a089019061074f565b92166040870152858203606087015261074f565b90838203608085015261074f565b0390a1565b9291906140e1836158d7565b61036681036140f657505050610523916142c0565b610367810361410b5750505061052391614a84565b6103680361411e57505061052391614778565b61413061412a8461587c565b60ff1690565b806141415750505061052391614f77565b60010361415157610523936150b5565b60405162461bcd60e51b815260206004820152600b60248201526a1513d19517dc1858dad95d60aa1b6044820152606490fd5b908160a091031261051157805161419a81610505565b9160208201516141a981610930565b9160408101516141b881610930565b916080606083015192015190565b90816020910312610511575190565b60009060033d116141e257565b905060046000803e60005160e01c90565b600060443d1061078557604051600319913d83016004833e81516001600160401b03918282113d60248401111761425057818401948551938411614258573d8501016020848701011161425057506107859291016020019061126f565b949350505050565b50949350505050565b916142829061ffff610785959316845260606020850152606084019061074f565b91604081840391015261074f565b3d156142bb573d906142a182611290565b916142af604051938461126f565b82523d6000602084013e565b606090565b602061436b9160006142d9838651870101848701614184565b96935096915060018060a01b0316946142f28730613a38565b600e5461431a908890614315906001600160a01b03165b6001600160a01b031690565b612e5d565b50600e54614330906001600160a01b0316614309565b60405163488c9c1d60e01b81526001600160a01b03881660048201526024810189905260448101929092529093849283919082906064820190565b03925af19081614426575b506116a65760016143856141d5565b6308c379a0146143d8575b61439a5750505050565b6143ce936000805160206159b0833981519152916143c56143b9614290565b60405193849384614261565b0390a1306155c5565b50388080806116a6565b6143e06141f3565b806143ec575b50614390565b90506000805160206159d0833981519152614411600092604051918291898784614261565b0390a161441f8484306155c5565b50386143e6565b6144469060203d811161444d575b61443e818361126f565b8101906141c6565b5038614376565b503d614434565b91909160608184031261051157604051906001600160401b03906060830182811184821017611234576040528294815161448d81610930565b8452602082015161449d81610930565b60208501526040820151928311610511576040926144bb9201613ec9565b910152565b81601f82011215610511578051906144d78261294c565b926040926144e78451958661126f565b808552602093848087019260051b8501019383851161051157858101925b858410614516575050505050505090565b83516001600160401b03908181116105115783019184601f19848903011261051157845161454381611239565b8984015181528584015192831161051157614565888b80969581960101614454565b83820152815201930192614505565b91909160c08184031261051157805161458c81610505565b9260208083015161459c81610930565b9360408401516145ab81610930565b936060810151936080820151936001600160401b03948581116105115783019082601f83011215610511578151916145e28361294c565b926145f0604051948561126f565b808452828085019160051b83010191858311610511578301905b82821061462c57505050509360a08301519081116105115761078592016144c0565b838091835161463a81610930565b81520191019061460a565b90816020910312610511575161078581610930565b1561466157565b60405162461bcd60e51b81526020600482015260116024820152702a30b827a32a1d102737ba1037bbb732b960791b6044820152606490fd5b9060609160408101918152602092816040858094015285518094520193019160005b8281106146ca575050505090565b83516001600160a01b0316855293810193928101926001016146bc565b80518210156146fb5760209160051b010190565b634e487b7160e01b600052603260045260246000fd5b939061078595916101009461ffff60409560018060a01b03809516895216602088015284870152606086015260a060808601528082511660a086015260208201511660c0850152015191606060e0820152019061074f565b6000198114610d605760010190565b9060209161478d838351840101848401614574565b600e54929890955093506001600160a01b039283169290916147b0908216614309565b976040988951926331a9108f60e11b84526004938781806147d8878983019190602083019252565b0381865afa918215610927576147fa9288926000916149fd575b50161461465a565b803b15610511578360009161482493838d518096819582946377eceed560e01b84528a840161469a565b03925af190816149ea575b506148be57505050505060016148436141d5565b6308c379a01461487d575b61485757505050565b6140d06000805160206159b083398151915293614872614290565b905193849384614261565b6148856141f3565b80614891575b5061484e565b90506000805160206159d08339815191526148b56000928651918291878784614261565b0390a13861488b565b908092949795939650519560005b8781106148de57505050505050505050565b6149016143096143096143096148f485896146e7565b516001600160a01b031690565b9061490c818b6146e7565b51519161491f6143096148f484896146e7565b89516370a0823160e01b81523087820190815290949186918691908290819060200103915afa938415610927578c86916000966149c5575b5084614962916146e7565b51015191803b1561051157888a92886149936000968f51998a978896879563695ef6bf60e01b875230908701614711565b03925af1918215610927576149ad926149b2575b50614769565b6148cc565b806121ff6149bf92611221565b386149a7565b6149629196506149e28691843d861161444d5761443e818361126f565b969150614957565b806121ff6149f792611221565b3861482f565b614a1d91508a3d8c11614a23575b614a15818361126f565b810190614645565b386147f2565b503d614a0b565b91909160a081840312610511578051614a4281610505565b926020820151614a5181610930565b926040830151614a6081610930565b9260608101519260808201516001600160401b038111610511576107859201614454565b906020614a98818351840101828401614a2a565b600e5490959194506001600160a01b039283169350909190614abb908216614309565b6040516331a9108f60e11b81526004810186905291908383602481845afa95861561092757614afb86614b1c9460009988978b91614c115750161461465a565b604051968780948193631015a27f60e11b8352600483019190602083019252565b03925af1928391600094614bf2575b5050614bae575050506001614b3e6141d5565b6308c379a014614b6c575b614b51575050565b6000805160206159b0833981519152916140d06143b9614290565b614b746141f3565b80614b80575b50614b49565b90506000805160206159d0833981519152614ba5600092604051918291868884614261565b0390a138614b7a565b90919392504790303b1561051157600093614be06040519687958694859463695ef6bf60e01b86523060048701614711565b0391305af1801561092757613def5750565b614c09929450803d1061444d5761443e818361126f565b913880614b2b565b614a1d9150883d8a11614a2357614a15818361126f565b6020919283604051948593843782019081520301902090565b15614c4857565b60405162461bcd60e51b815260206004820152602160248201527f4e6f6e626c6f636b696e674c7a4170703a20696e76616c6964207061796c6f616044820152601960fa1b6064820152608490fd5b91614cc39060609461ffff6001600160401b039499989799168552608060208601526080850191613607565b951660408201520152565b903590601e198136030182121561051157018035906001600160401b0382116105115760200191813603831361051157565b9491959897906118d2614d29604099614d21614d2f97614d4c9936916112ab565b9436916112ab565b97615340565b928451968794859463040a7bb160e41b8652309060048701614eeb565b03817f00000000000000000000000000000000000000000000000000000000000000006001600160a01b03165afa918215610927576000908193614d8f57509190565b90506105b391925060403d8111610d0257610cf3818361126f565b93969491614dd89061078599979461ffff6001600160401b039416875260c0602088015260c0870191613607565b961660408401526060830152608082015260a0818503910152613607565b91969792989594939094303303614e9057614e129085306155c5565b60405181815290946001600160a01b03169390849061ffff8516907fbf551ec93859b170f9b2141bd9298bf3f64322c6f7beb2543a0cb669834118bf90602090a3833b15610511576000988995614e80936040519c8d9b8c9a8b98633fe79aed60e11b8a5260048a01614daa565b0393f1801561092757613def5750565b60405162461bcd60e51b815260206004820152601f60248201527f4f4654436f72653a2063616c6c6572206d757374206265204f4654436f7265006044820152606490fd5b9190826040910312610511576020825192015190565b9192610785959361ffff614f1a9316845260018060a01b0316602084015260a0604084015260a083019061074f565b9215156060820152608081840391015261074f565b15614f3657565b60405162461bcd60e51b815260206004820152601960248201527813d19510dbdc994e88185b5bdd5b9d081d1bdbc81cdb585b1b603a1b6044820152606490fd5b9060ff614f838261587c565b16158061501c575b614f9490615412565b614fa6614fa08261582c565b916158c7565b6001600160a01b039081831615615012575b61ffff7fbf551ec93859b170f9b2141bd9298bf3f64322c6f7beb2543a0cb669834118bf92614ffa6020936001600160401b03614ff36155fc565b9116613c57565b946150058682613a38565b60405195865216941692a3565b61dead9250614fb8565b508051602914614f8b565b98979692936001600160401b0361505960e0989461ffff6150859995168d5260208d61010091829101528d019061074f565b951660408b015260608a01526001600160a01b0316608089015260a088015286820360c088015261074f565b930152565b6001600160401b036150aa6040939695949660608452606084019061074f565b951660208201520152565b90916150c0846154c6565b90916150f16150ea876122d36150e48b61ffff166000526007602052604060002090565b8c61133b565b5460ff1690565b9161510d6150fd6155fc565b6001600160401b03809416613c57565b9288888b8315615209575b505050853b156151be579461515f9694613ffd948a94612437948d996000146151b75750505a925b5a978b6040519a8b9863757fea4d60e11b60208b015260248a01615027565b90156151ac5750906151a761ffff928560207fb8890edbfc1c74692f527444645f95489c3703cc2df42e4a366f5d06fa6cd8849697519101209060405194859416968461508a565b0390a2565b926105239492614025565b1692615140565b50506040516001600160a01b039094168452507f9aedf5fdba8716db3b6705ca00150643309995d4f818a249ed6dde6677e7792d9750919550859450506020840192506140d0915050565b906122d361523e926152388961522361524b979b30613a38565b9961ffff166000526007602052604060002090565b9061133b565b805460ff19166001179055565b88888b615118565b60065460ff16156152a05760228251106118d95761ffff602261052393015191166000526002602052615293604060002060008052602052604060002090565b54906118a08215156152a8565b505161194b57565b156152af57565b60405162461bcd60e51b815260206004820152601a60248201527f4c7a4170703a206d696e4761734c696d6974206e6f74207365740000000000006044820152606490fd5b156152fb57565b60405162461bcd60e51b815260206004820152601b60248201527f4c7a4170703a20676173206c696d697420697320746f6f206c6f7700000000006044820152606490fd5b6153486155fc565b9081156153a957046001600160401b0390818111615364571690565b60405162461bcd60e51b815260206004820152601a60248201527f4f4654436f72653a20616d6f756e745344206f766572666c6f770000000000006044820152606490fd5b613c03565b6153b66155fc565b80156153a957810690818103908111610d605791565b90604051916000602084015260218301526001600160401b0360c01b9060c01b16604182015260298152606081018181106001600160401b038211176112345760405290565b1561541957565b60405162461bcd60e51b815260206004820152601860248201527713d19510dbdc994e881a5b9d985b1a59081c185e5b1bd85960421b6044820152606490fd5b939260719261078594604051968794600160f81b602087015260218601526001600160401b0360c01b809360c01b16604186015260018060a01b0316604985015260c01b1660698301526154b6815180926020868601910161072c565b810103605181018452018261126f565b906154de600160ff6154d78561587c565b1614615412565b6154e78261582c565b906154f1836158c7565b9060498451106155625760498401519360518151106155265761552360518201519161551d8151613885565b906157a8565b91565b60405162461bcd60e51b8152602060048201526014602482015273746f55696e7436345f6f75744f66426f756e647360601b6044820152606490fd5b60405162461bcd60e51b8152602060048201526015602482015274746f427974657333325f6f75744f66426f756e647360581b6044820152606490fd5b6107859082906001600160a01b0381163314613ae0576155c0823383613192565b613ae0565b6107859183916001600160a01b0381163081141590816155f1575b5015612f5f57610afd833383613192565b9050331415386155e0565b6040516303408e4760e41b81526020816004817f00000000000000000000000000000000000000000000000000000000000000006001600160a01b03165afa80156109275761ffff9160009161568d575b5016600052600d60205260ff6040600020541661566957600190565b7f000000000000000000000000000000000000000000000000000000000000000090565b6156a5915060203d8111610ff657610fe7818361126f565b3861564d565b156156b257565b60405162461bcd60e51b815260206004820152600e60248201526d736c6963655f6f766572666c6f7760901b6044820152606490fd5b156156ef57565b60405162461bcd60e51b8152602060048201526011602482015270736c6963655f6f75744f66426f756e647360781b6044820152606490fd5b61573c8261573581612e83565b10156156ab565b61574982825110156156e8565b81615761575050604051600081526020810160405290565b60405191601f811691821560051b808486010193838501920101905b8084106157955750508252601f01601f191660405290565b909283518152602080910193019061577d565b6157b58261573581612e83565b6157ca81516157c384612e91565b11156156e8565b816157e2575050604051600081526020810160405290565b60405191601f8116916051831560051b80858701019484860193010101905b8084106158195750508252601f01601f191660405290565b9092835181526020809101930190615801565b602181511061583f57602d015160601c90565b60405162461bcd60e51b8152602060048201526015602482015274746f416464726573735f6f75744f66426f756e647360581b6044820152606490fd5b600181511061588c576001015190565b60405162461bcd60e51b8152602060048201526013602482015272746f55696e74385f6f75744f66426f756e647360681b6044820152606490fd5b6029815110615526576029015190565b60208151106158e7576020015190565b60405162461bcd60e51b8152602060048201526015602482015274746f55696e743235365f6f75744f66426f756e647360581b6044820152606490fd5b909291600080916040519561593887611254565b6096875282602088019560a036883760208451940192f1903d9060968211615966575b6000908286523e9190565b6096915061595b56fed81fc9b8523134ed613870ed029d6170cbb73aa6a6bc311b9a642689fb9df59addf252ad1be2c89b69c2b068fc378daa952ba7f163c4a11628f55a4df523b3ef574bdbcbc11b0000d0ef23e948d3f9351a7a81eb5a6e064cff5ac3b6c1e310d3b37a1812fafae90276da44877c4a85d68886da845852047d47a816ae20b8d447a2646970667358221220f04d30b6f82aaec40a3cecd94ba31b7d156b7cba0b2dff07b08e2fc5fc275a8164736f6c63430008120033ddf252ad1be2c89b69c2b068fc378daa952ba7f163c4a11628f55a4df523b3ef8b73c3c69bb8fe3d512ecc4cf759cc79239f7b179b0ffacaa9a75d522b39400f",
  "linkReferences": {},
  "deployedLinkReferences": {}
}