{
  "_format": "hh-sol-artifact-1",
  "contractName": "TwTAP",
  "sourceName": "contracts/governance/twTAP.sol",
  "abi": [
    {
      "inputs": [
        {
          "internalType": "address payable",
          "name": "_tapOFT",
          "type": "address"
        },
        {
          "internalType": "address",
          "name": "_owner",
          "type": "address"
        }
      ],
      "stateMutability": "nonpayable",
      "type": "constructor"
    },
    {
      "inputs": [],
      "name": "AdvanceWeekFirst",
      "type": "error"
    },
    {
      "inputs": [],
      "name": "CannotClaim",
      "type": "error"
    },
    {
      "inputs": [],
      "name": "Duplicate",
      "type": "error"
    },
    {
      "inputs": [],
      "name": "InvalidShortString",
      "type": "error"
    },
    {
      "inputs": [],
      "name": "LockNotAWeek",
      "type": "error"
    },
    {
      "inputs": [],
      "name": "LockNotExpired",
      "type": "error"
    },
    {
      "inputs": [],
      "name": "NotAuthorized",
      "type": "error"
    },
    {
      "inputs": [],
      "name": "NotValid",
      "type": "error"
    },
    {
      "inputs": [],
      "name": "Registered",
      "type": "error"
    },
    {
      "inputs": [
        {
          "internalType": "string",
          "name": "str",
          "type": "string"
        }
      ],
      "name": "StringTooLong",
      "type": "error"
    },
    {
      "inputs": [],
      "name": "TokenLimitReached",
      "type": "error"
    },
    {
      "anonymous": false,
      "inputs": [
        {
          "indexed": true,
          "internalType": "uint256",
          "name": "cumulative",
          "type": "uint256"
        },
        {
          "indexed": true,
          "internalType": "uint256",
          "name": "averageMagnitude",
          "type": "uint256"
        },
        {
          "indexed": true,
          "internalType": "uint256",
          "name": "totalParticipants",
          "type": "uint256"
        }
      ],
      "name": "AMLDivergence",
      "type": "event"
    },
    {
      "anonymous": false,
      "inputs": [
        {
          "indexed": true,
          "internalType": "address",
          "name": "owner",
          "type": "address"
        },
        {
          "indexed": true,
          "internalType": "address",
          "name": "approved",
          "type": "address"
        },
        {
          "indexed": true,
          "internalType": "uint256",
          "name": "tokenId",
          "type": "uint256"
        }
      ],
      "name": "Approval",
      "type": "event"
    },
    {
      "anonymous": false,
      "inputs": [
        {
          "indexed": true,
          "internalType": "address",
          "name": "owner",
          "type": "address"
        },
        {
          "indexed": true,
          "internalType": "address",
          "name": "operator",
          "type": "address"
        },
        {
          "indexed": false,
          "internalType": "bool",
          "name": "approved",
          "type": "bool"
        }
      ],
      "name": "ApprovalForAll",
      "type": "event"
    },
    {
      "anonymous": false,
      "inputs": [],
      "name": "EIP712DomainChanged",
      "type": "event"
    },
    {
      "anonymous": false,
      "inputs": [
        {
          "indexed": true,
          "internalType": "uint256",
          "name": "tokenId",
          "type": "uint256"
        },
        {
          "indexed": true,
          "internalType": "uint256",
          "name": "amount",
          "type": "uint256"
        }
      ],
      "name": "ExitPosition",
      "type": "event"
    },
    {
      "anonymous": false,
      "inputs": [
        {
          "indexed": true,
          "internalType": "uint256",
          "name": "_oldLength",
          "type": "uint256"
        },
        {
          "indexed": true,
          "internalType": "uint256",
          "name": "_newLength",
          "type": "uint256"
        },
        {
          "indexed": true,
          "internalType": "uint256",
          "name": "_currentLength",
          "type": "uint256"
        }
      ],
      "name": "LogMaxRewardsLength",
      "type": "event"
    },
    {
      "anonymous": false,
      "inputs": [
        {
          "indexed": true,
          "internalType": "address",
          "name": "previousOwner",
          "type": "address"
        },
        {
          "indexed": true,
          "internalType": "address",
          "name": "newOwner",
          "type": "address"
        }
      ],
      "name": "OwnershipTransferred",
      "type": "event"
    },
    {
      "anonymous": false,
      "inputs": [
        {
          "indexed": true,
          "internalType": "address",
          "name": "participant",
          "type": "address"
        },
        {
          "indexed": true,
          "internalType": "uint256",
          "name": "tapAmount",
          "type": "uint256"
        },
        {
          "indexed": true,
          "internalType": "uint256",
          "name": "multiplier",
          "type": "uint256"
        }
      ],
      "name": "Participate",
      "type": "event"
    },
    {
      "anonymous": false,
      "inputs": [
        {
          "indexed": false,
          "internalType": "address",
          "name": "account",
          "type": "address"
        }
      ],
      "name": "Paused",
      "type": "event"
    },
    {
      "anonymous": false,
      "inputs": [
        {
          "indexed": true,
          "internalType": "address",
          "name": "from",
          "type": "address"
        },
        {
          "indexed": true,
          "internalType": "address",
          "name": "to",
          "type": "address"
        },
        {
          "indexed": true,
          "internalType": "uint256",
          "name": "tokenId",
          "type": "uint256"
        }
      ],
      "name": "Transfer",
      "type": "event"
    },
    {
      "anonymous": false,
      "inputs": [
        {
          "indexed": false,
          "internalType": "address",
          "name": "account",
          "type": "address"
        }
      ],
      "name": "Unpaused",
      "type": "event"
    },
    {
      "inputs": [],
      "name": "DOMAIN_SEPARATOR",
      "outputs": [
        {
          "internalType": "bytes32",
          "name": "",
          "type": "bytes32"
        }
      ],
      "stateMutability": "view",
      "type": "function"
    },
    {
      "inputs": [],
      "name": "EPOCH_DURATION",
      "outputs": [
        {
          "internalType": "uint256",
          "name": "",
          "type": "uint256"
        }
      ],
      "stateMutability": "view",
      "type": "function"
    },
    {
      "inputs": [
        {
          "internalType": "contract IERC20",
          "name": "token",
          "type": "address"
        }
      ],
      "name": "addRewardToken",
      "outputs": [
        {
          "internalType": "uint256",
          "name": "",
          "type": "uint256"
        }
      ],
      "stateMutability": "nonpayable",
      "type": "function"
    },
    {
      "inputs": [
        {
          "internalType": "uint256",
          "name": "_limit",
          "type": "uint256"
        }
      ],
      "name": "advanceWeek",
      "outputs": [],
      "stateMutability": "nonpayable",
      "type": "function"
    },
    {
      "inputs": [
        {
          "internalType": "address",
          "name": "to",
          "type": "address"
        },
        {
          "internalType": "uint256",
          "name": "tokenId",
          "type": "uint256"
        }
      ],
      "name": "approve",
      "outputs": [],
      "stateMutability": "nonpayable",
      "type": "function"
    },
    {
      "inputs": [
        {
          "internalType": "address",
          "name": "owner",
          "type": "address"
        }
      ],
      "name": "balanceOf",
      "outputs": [
        {
          "internalType": "uint256",
          "name": "",
          "type": "uint256"
        }
      ],
      "stateMutability": "view",
      "type": "function"
    },
    {
      "inputs": [
        {
          "internalType": "uint256",
          "name": "_tokenId",
          "type": "uint256"
        },
        {
          "internalType": "contract IERC20[]",
          "name": "_rewardTokens",
          "type": "address[]"
        }
      ],
      "name": "claimAndSendRewards",
      "outputs": [],
      "stateMutability": "nonpayable",
      "type": "function"
    },
    {
      "inputs": [],
      "name": "claimOwnership",
      "outputs": [],
      "stateMutability": "nonpayable",
      "type": "function"
    },
    {
      "inputs": [
        {
          "internalType": "uint256",
          "name": "_tokenId",
          "type": "uint256"
        },
        {
          "internalType": "address",
          "name": "_to",
          "type": "address"
        }
      ],
      "name": "claimRewards",
      "outputs": [],
      "stateMutability": "nonpayable",
      "type": "function"
    },
    {
      "inputs": [
        {
          "internalType": "uint256",
          "name": "_tokenId",
          "type": "uint256"
        }
      ],
      "name": "claimable",
      "outputs": [
        {
          "internalType": "uint256[]",
          "name": "",
          "type": "uint256[]"
        }
      ],
      "stateMutability": "view",
      "type": "function"
    },
    {
      "inputs": [
        {
          "internalType": "uint256",
          "name": "",
          "type": "uint256"
        },
        {
          "internalType": "uint256",
          "name": "",
          "type": "uint256"
        }
      ],
      "name": "claimed",
      "outputs": [
        {
          "internalType": "uint256",
          "name": "",
          "type": "uint256"
        }
      ],
      "stateMutability": "view",
      "type": "function"
    },
    {
      "inputs": [],
      "name": "creation",
      "outputs": [
        {
          "internalType": "uint256",
          "name": "",
          "type": "uint256"
        }
      ],
      "stateMutability": "view",
      "type": "function"
    },
    {
      "inputs": [],
      "name": "currentWeek",
      "outputs": [
        {
          "internalType": "uint256",
          "name": "",
          "type": "uint256"
        }
      ],
      "stateMutability": "view",
      "type": "function"
    },
    {
      "inputs": [
        {
          "internalType": "uint256",
          "name": "_rewardTokenId",
          "type": "uint256"
        },
        {
          "internalType": "uint256",
          "name": "_amount",
          "type": "uint256"
        }
      ],
      "name": "distributeReward",
      "outputs": [],
      "stateMutability": "nonpayable",
      "type": "function"
    },
    {
      "inputs": [],
      "name": "eip712Domain",
      "outputs": [
        {
          "internalType": "bytes1",
          "name": "fields",
          "type": "bytes1"
        },
        {
          "internalType": "string",
          "name": "name",
          "type": "string"
        },
        {
          "internalType": "string",
          "name": "version",
          "type": "string"
        },
        {
          "internalType": "uint256",
          "name": "chainId",
          "type": "uint256"
        },
        {
          "internalType": "address",
          "name": "verifyingContract",
          "type": "address"
        },
        {
          "internalType": "bytes32",
          "name": "salt",
          "type": "bytes32"
        },
        {
          "internalType": "uint256[]",
          "name": "extensions",
          "type": "uint256[]"
        }
      ],
      "stateMutability": "view",
      "type": "function"
    },
    {
      "inputs": [
        {
          "internalType": "uint256",
          "name": "_tokenId",
          "type": "uint256"
        }
      ],
      "name": "exitPosition",
      "outputs": [],
      "stateMutability": "nonpayable",
      "type": "function"
    },
    {
      "inputs": [
        {
          "internalType": "uint256",
          "name": "_tokenId",
          "type": "uint256"
        }
      ],
      "name": "exitPositionAndSendTap",
      "outputs": [
        {
          "internalType": "uint256",
          "name": "",
          "type": "uint256"
        }
      ],
      "stateMutability": "nonpayable",
      "type": "function"
    },
    {
      "inputs": [
        {
          "internalType": "uint256",
          "name": "tokenId",
          "type": "uint256"
        }
      ],
      "name": "getApproved",
      "outputs": [
        {
          "internalType": "address",
          "name": "",
          "type": "address"
        }
      ],
      "stateMutability": "view",
      "type": "function"
    },
    {
      "inputs": [
        {
          "internalType": "uint256",
          "name": "_tokenId",
          "type": "uint256"
        }
      ],
      "name": "getParticipation",
      "outputs": [
        {
          "components": [
            {
              "internalType": "uint256",
              "name": "averageMagnitude",
              "type": "uint256"
            },
            {
              "internalType": "bool",
              "name": "hasVotingPower",
              "type": "bool"
            },
            {
              "internalType": "bool",
              "name": "divergenceForce",
              "type": "bool"
            },
            {
              "internalType": "bool",
              "name": "tapReleased",
              "type": "bool"
            },
            {
              "internalType": "uint56",
              "name": "expiry",
              "type": "uint56"
            },
            {
              "internalType": "uint88",
              "name": "tapAmount",
              "type": "uint88"
            },
            {
              "internalType": "uint24",
              "name": "multiplier",
              "type": "uint24"
            },
            {
              "internalType": "uint40",
              "name": "lastInactive",
              "type": "uint40"
            },
            {
              "internalType": "uint40",
              "name": "lastActive",
              "type": "uint40"
            }
          ],
          "internalType": "struct Participation",
          "name": "participant",
          "type": "tuple"
        }
      ],
      "stateMutability": "view",
      "type": "function"
    },
    {
      "inputs": [
        {
          "internalType": "address",
          "name": "owner",
          "type": "address"
        },
        {
          "internalType": "address",
          "name": "operator",
          "type": "address"
        }
      ],
      "name": "isApprovedForAll",
      "outputs": [
        {
          "internalType": "bool",
          "name": "",
          "type": "bool"
        }
      ],
      "stateMutability": "view",
      "type": "function"
    },
    {
      "inputs": [],
      "name": "lastProcessedWeek",
      "outputs": [
        {
          "internalType": "uint256",
          "name": "",
          "type": "uint256"
        }
      ],
      "stateMutability": "view",
      "type": "function"
    },
    {
      "inputs": [],
      "name": "maxRewardTokens",
      "outputs": [
        {
          "internalType": "uint256",
          "name": "",
          "type": "uint256"
        }
      ],
      "stateMutability": "view",
      "type": "function"
    },
    {
      "inputs": [],
      "name": "mintedTWTap",
      "outputs": [
        {
          "internalType": "uint256",
          "name": "",
          "type": "uint256"
        }
      ],
      "stateMutability": "view",
      "type": "function"
    },
    {
      "inputs": [],
      "name": "name",
      "outputs": [
        {
          "internalType": "string",
          "name": "",
          "type": "string"
        }
      ],
      "stateMutability": "view",
      "type": "function"
    },
    {
      "inputs": [
        {
          "internalType": "address",
          "name": "owner",
          "type": "address"
        }
      ],
      "name": "nonces",
      "outputs": [
        {
          "internalType": "uint256",
          "name": "",
          "type": "uint256"
        }
      ],
      "stateMutability": "view",
      "type": "function"
    },
    {
      "inputs": [],
      "name": "owner",
      "outputs": [
        {
          "internalType": "address",
          "name": "",
          "type": "address"
        }
      ],
      "stateMutability": "view",
      "type": "function"
    },
    {
      "inputs": [
        {
          "internalType": "uint256",
          "name": "tokenId",
          "type": "uint256"
        }
      ],
      "name": "ownerOf",
      "outputs": [
        {
          "internalType": "address",
          "name": "",
          "type": "address"
        }
      ],
      "stateMutability": "view",
      "type": "function"
    },
    {
      "inputs": [
        {
          "internalType": "uint256",
          "name": "",
          "type": "uint256"
        }
      ],
      "name": "participants",
      "outputs": [
        {
          "internalType": "uint256",
          "name": "averageMagnitude",
          "type": "uint256"
        },
        {
          "internalType": "bool",
          "name": "hasVotingPower",
          "type": "bool"
        },
        {
          "internalType": "bool",
          "name": "divergenceForce",
          "type": "bool"
        },
        {
          "internalType": "bool",
          "name": "tapReleased",
          "type": "bool"
        },
        {
          "internalType": "uint56",
          "name": "expiry",
          "type": "uint56"
        },
        {
          "internalType": "uint88",
          "name": "tapAmount",
          "type": "uint88"
        },
        {
          "internalType": "uint24",
          "name": "multiplier",
          "type": "uint24"
        },
        {
          "internalType": "uint40",
          "name": "lastInactive",
          "type": "uint40"
        },
        {
          "internalType": "uint40",
          "name": "lastActive",
          "type": "uint40"
        }
      ],
      "stateMutability": "view",
      "type": "function"
    },
    {
      "inputs": [
        {
          "internalType": "address",
          "name": "_participant",
          "type": "address"
        },
        {
          "internalType": "uint256",
          "name": "_amount",
          "type": "uint256"
        },
        {
          "internalType": "uint256",
          "name": "_duration",
          "type": "uint256"
        }
      ],
      "name": "participate",
      "outputs": [
        {
          "internalType": "uint256",
          "name": "tokenId",
          "type": "uint256"
        }
      ],
      "stateMutability": "nonpayable",
      "type": "function"
    },
    {
      "inputs": [],
      "name": "paused",
      "outputs": [
        {
          "internalType": "bool",
          "name": "",
          "type": "bool"
        }
      ],
      "stateMutability": "view",
      "type": "function"
    },
    {
      "inputs": [],
      "name": "pendingOwner",
      "outputs": [
        {
          "internalType": "address",
          "name": "",
          "type": "address"
        }
      ],
      "stateMutability": "view",
      "type": "function"
    },
    {
      "inputs": [
        {
          "internalType": "address",
          "name": "spender",
          "type": "address"
        },
        {
          "internalType": "uint256",
          "name": "tokenId",
          "type": "uint256"
        },
        {
          "internalType": "uint256",
          "name": "deadline",
          "type": "uint256"
        },
        {
          "internalType": "uint8",
          "name": "v",
          "type": "uint8"
        },
        {
          "internalType": "bytes32",
          "name": "r",
          "type": "bytes32"
        },
        {
          "internalType": "bytes32",
          "name": "s",
          "type": "bytes32"
        }
      ],
      "name": "permit",
      "outputs": [],
      "stateMutability": "nonpayable",
      "type": "function"
    },
    {
      "inputs": [
        {
          "internalType": "uint256",
          "name": "_tokenId",
          "type": "uint256"
        },
        {
          "internalType": "address",
          "name": "_to",
          "type": "address"
        }
      ],
      "name": "releaseTap",
      "outputs": [],
      "stateMutability": "nonpayable",
      "type": "function"
    },
    {
      "inputs": [
        {
          "internalType": "contract IERC20",
          "name": "",
          "type": "address"
        }
      ],
      "name": "rewardTokenIndex",
      "outputs": [
        {
          "internalType": "uint256",
          "name": "",
          "type": "uint256"
        }
      ],
      "stateMutability": "view",
      "type": "function"
    },
    {
      "inputs": [
        {
          "internalType": "uint256",
          "name": "",
          "type": "uint256"
        }
      ],
      "name": "rewardTokens",
      "outputs": [
        {
          "internalType": "contract IERC20",
          "name": "",
          "type": "address"
        }
      ],
      "stateMutability": "view",
      "type": "function"
    },
    {
      "inputs": [
        {
          "internalType": "address",
          "name": "from",
          "type": "address"
        },
        {
          "internalType": "address",
          "name": "to",
          "type": "address"
        },
        {
          "internalType": "uint256",
          "name": "tokenId",
          "type": "uint256"
        }
      ],
      "name": "safeTransferFrom",
      "outputs": [],
      "stateMutability": "nonpayable",
      "type": "function"
    },
    {
      "inputs": [
        {
          "internalType": "address",
          "name": "from",
          "type": "address"
        },
        {
          "internalType": "address",
          "name": "to",
          "type": "address"
        },
        {
          "internalType": "uint256",
          "name": "tokenId",
          "type": "uint256"
        },
        {
          "internalType": "bytes",
          "name": "data",
          "type": "bytes"
        }
      ],
      "name": "safeTransferFrom",
      "outputs": [],
      "stateMutability": "nonpayable",
      "type": "function"
    },
    {
      "inputs": [
        {
          "internalType": "address",
          "name": "operator",
          "type": "address"
        },
        {
          "internalType": "bool",
          "name": "approved",
          "type": "bool"
        }
      ],
      "name": "setApprovalForAll",
      "outputs": [],
      "stateMutability": "nonpayable",
      "type": "function"
    },
    {
      "inputs": [
        {
          "internalType": "uint256",
          "name": "_length",
          "type": "uint256"
        }
      ],
      "name": "setMaxRewardTokensLength",
      "outputs": [],
      "stateMutability": "nonpayable",
      "type": "function"
    },
    {
      "inputs": [
        {
          "internalType": "bytes4",
          "name": "interfaceId",
          "type": "bytes4"
        }
      ],
      "name": "supportsInterface",
      "outputs": [
        {
          "internalType": "bool",
          "name": "",
          "type": "bool"
        }
      ],
      "stateMutability": "view",
      "type": "function"
    },
    {
      "inputs": [],
      "name": "symbol",
      "outputs": [
        {
          "internalType": "string",
          "name": "",
          "type": "string"
        }
      ],
      "stateMutability": "view",
      "type": "function"
    },
    {
      "inputs": [],
      "name": "tapOFT",
      "outputs": [
        {
          "internalType": "contract TapOFT",
          "name": "",
          "type": "address"
        }
      ],
      "stateMutability": "view",
      "type": "function"
    },
    {
      "inputs": [
        {
          "internalType": "uint256",
          "name": "tokenId",
          "type": "uint256"
        }
      ],
      "name": "tokenURI",
      "outputs": [
        {
          "internalType": "string",
          "name": "",
          "type": "string"
        }
      ],
      "stateMutability": "view",
      "type": "function"
    },
    {
      "inputs": [
        {
          "internalType": "address",
          "name": "from",
          "type": "address"
        },
        {
          "internalType": "address",
          "name": "to",
          "type": "address"
        },
        {
          "internalType": "uint256",
          "name": "tokenId",
          "type": "uint256"
        }
      ],
      "name": "transferFrom",
      "outputs": [],
      "stateMutability": "nonpayable",
      "type": "function"
    },
    {
      "inputs": [
        {
          "internalType": "address",
          "name": "newOwner",
          "type": "address"
        },
        {
          "internalType": "bool",
          "name": "direct",
          "type": "bool"
        },
        {
          "internalType": "bool",
          "name": "renounce",
          "type": "bool"
        }
      ],
      "name": "transferOwnership",
      "outputs": [],
      "stateMutability": "nonpayable",
      "type": "function"
    },
    {
      "inputs": [],
      "name": "twAML",
      "outputs": [
        {
          "internalType": "uint256",
          "name": "totalParticipants",
          "type": "uint256"
        },
        {
          "internalType": "uint256",
          "name": "averageMagnitude",
          "type": "uint256"
        },
        {
          "internalType": "uint256",
          "name": "totalDeposited",
          "type": "uint256"
        },
        {
          "internalType": "uint256",
          "name": "cumulative",
          "type": "uint256"
        }
      ],
      "stateMutability": "view",
      "type": "function"
    },
    {
      "inputs": [
        {
          "internalType": "uint256",
          "name": "",
          "type": "uint256"
        }
      ],
      "name": "weekTotals",
      "outputs": [
        {
          "internalType": "int256",
          "name": "netActiveVotes",
          "type": "int256"
        }
      ],
      "stateMutability": "view",
      "type": "function"
    }
  ],
  "bytecode": "0x610180346200056b5762003e18906001600160401b0390601f90601f19388590038381018216830190858211848310176200055557808491604098899485528339810103126200056b5781516001600160a01b038082169490918590036200056b576020809401519182168092036200056b57865193620000808562000570565b601185528085019370054696d652057656967687465642054415607c1b90818652895191620000af8362000570565b60118352838301528951620000c48162000570565b6005815264074775441560dc1b848201528a5191620000e38362000570565b60019586845285840192603160f81b845285518d8111620005555760009687548a81811c911680156200054a575b8a8210146200053657908185849311620004e3575b5089908583116001146200048257899262000476575b5050600019600383901b1c191690891b1786555b8051928d8411620004625788548981811c9116801562000457575b8982101462000443579081848695949311620003ec575b50889284116001146200038b575086926200037f575b5050600019600383901b1c191690861b1785555b620001b7886200058c565b96610120978852620001c98362000769565b98610140998a52519020918260e0525190206101009a818c524660a052805191858301937f8b73c3c69bb8fe3d512ecc4cf759cc79239f7b179b0ffacaa9a75d522b39400f85528284015260608301524660808301523060a083015260a0825260c082019a828c10908c11176200036b578a90525190206080523060c052600a546001600160a01b03199490851633837f8be0079c531659141344cd1fd0a4f28419497f9722a3daafe3b4186f6b6457e08180a384600c5560ff19600d5416600d556101609889528533161717600a55426018556013549268010000000000000000841015620003575783018060135583101562000343576013815220019081541690556103e860155562093a806011556134f69485620009228639608051856133df015260a0518561349a015260c051856133b0015260e0518561342e01525184613454015251836109490152518261097501525181818161090c01528181610ca7015281816112d301528181611a3201526130170152f35b634e487b7160e01b81526032600452602490fd5b634e487b7160e01b82526041600452602482fd5b634e487b7160e01b84526041600452602484fd5b01519050388062000198565b8988528888208a959093929116885b8a828210620003d55750508411620003bb575b505050811b018555620001ac565b015160001960f88460031b161c19169055388080620003ad565b8385015186558c979095019493840193016200039a565b90919293508988528888208480870160051c8201928b881062000439575b9187968d92969594930160051c01915b8281106200042a57505062000182565b8a81558796508c91016200041a565b925081926200040a565b634e487b7160e01b88526022600452602488fd5b90607f16906200016b565b634e487b7160e01b87526041600452602487fd5b0151905038806200013c565b90868c9416918a80528b8b20928b5b8d828210620004cc5750508411620004b2575b505050811b01865562000150565b015160001960f88460031b161c19169055388080620004a4565b8385015186558f9790950194938401930162000491565b9091508880528989208580850160051c8201928c86106200052c575b918d91869594930160051c01915b8281106200051d57505062000126565b8b81558594508d91016200050d565b92508192620004ff565b634e487b7160e01b89526022600452602489fd5b90607f169062000111565b634e487b7160e01b600052604160045260246000fd5b600080fd5b604081019081106001600160401b038211176200055557604052565b805160209081811015620006295750601f825111620005c85780825192015190808310620005b957501790565b82600019910360031b1b161790565b90604051809263305a27a960e01b82528060048301528251908160248401526000935b8285106200060f575050604492506000838284010152601f80199101168101030190fd5b8481018201518686016044015293810193859350620005eb565b906001600160401b0382116200055557600654926001938481811c911680156200075e575b838210146200074857601f81116200070e575b5081601f8411600114620006a2575092829391839260009462000696575b50501b916000199060031b1c19161760065560ff90565b0151925038806200067f565b919083601f198116600660005284600020946000905b88838310620006f35750505010620006d9575b505050811b0160065560ff90565b015160001960f88460031b161c19169055388080620006cb565b858701518855909601959485019487935090810190620006b8565b600660005284601f84600020920160051c820191601f860160051c015b8281106200073b57505062000661565b600081550185906200072b565b634e487b7160e01b600052602260045260246000fd5b90607f16906200064e565b805160209081811015620007f75750601f825111620007965780825192015190808310620005b957501790565b90604051809263305a27a960e01b82528060048301528251908160248401526000935b828510620007dd575050604492506000838284010152601f80199101168101030190fd5b8481018201518686016044015293810193859350620007b9565b906001600160401b0382116200055557600754926001938481811c9116801562000916575b838210146200074857601f8111620008dc575b5081601f841160011462000870575092829391839260009462000864575b50501b916000199060031b1c19161760075560ff90565b0151925038806200084d565b919083601f198116600760005284600020946000905b88838310620008c15750505010620008a7575b505050811b0160075560ff90565b015160001960f88460031b161c1916905538808062000899565b85870151885590960195948501948793509081019062000886565b600760005284601f84600020920160051c820191601f860160051c015b828110620009095750506200082f565b60008155018590620008f9565b90607f16906200081c56fe608080604052600436101561001357600080fd5b60003560e01c90816301ffc9a714611eee5750806306575c8914611ec257806306fdde0314611e1f578063078dfbe714611d10578063081812fc14611cf2578063095ea7b314611bc15780631143c69514611b8257806313845d2f14611b645780631c03e6cc14611a74578063202b44fe14611a0757806323b872dd146119e357806335c1d349146119335780633644e51514611910578063415be3b5146118d657806342842e0e146118a3578063488c9c1d14611271578063499006c7146110df5780634e71e0c8146110255780635c975abb146110025780636352211e14610fd35780636b63096014610f775780636c7b69cb14610ecc57806370a0823114610e3557806377eceed514610c3d57806378dc905914610bff5780637ac2ff7b14610a755780637bb7bed114610a345780637ecebe00146109fa57806384b0196e146109305780638b0c2dfc146108ec5780638da5cb5b146108c557806391bdc4e8146108a757806395d89b41146107c8578063a22cb465146106f1578063a54ab457146106be578063a70b9f0c146106a0578063a86968a514610674578063b88d4fde146105c4578063c2b37edd1461058d578063c7d91b501461056f578063c87b56dd146104fe578063d1d58b25146104c7578063dca24d7c146103ee578063e30c3978146103c7578063e358d03a146103a9578063e3bcd27c146102805763e985e9c51461022457600080fd5b3461027b57604036600319011261027b5761023d611f99565b610245611faf565b906001600160a01b03809116600052600560205260406000209116600052602052602060ff604060002054166040519015158152f35b600080fd5b3461027b5761028e3661208a565b610296612bf5565b60195462093a806102a960185442612940565b04810361039757600052601a6020526040600020906102c783612009565b929054938260801b83159284820470010000000000000000000000000000000014841715610381576102fd600192825490612755565b92600052016020526103156040600020918254612b7b565b905561036f576040516323b872dd60e01b60208201523360248201523060448201526064808201929092529081526103689290916001600160a01b03919061035e608485612111565b60031b1c16612c97565b6001600c55005b60405163f1640ae160e01b8152600490fd5b634e487b7160e01b600052601160045260246000fd5b604051638ec7642b60e01b8152600490fd5b3461027b57600036600319011261027b576020601554604051908152f35b3461027b57600036600319011261027b5760206001600160a01b03600b5416604051908152f35b3461027b5760208060031936011261027b576004359061040c612bf5565b6019549062093a8061042060185442612940565b049280838503116104bd575b50601354905b8383106104455760198490556001600c55005b82600052601a9283825261045d604060002091612b6c565b93846000528252604060002061047582548254612b88565b815560019190820190820160005b8581106104935750505050610432565b8084916000528286526040600020548487526104b56040600020918254612b7b565b905501610483565b820192508361042c565b3461027b57602036600319011261027b576104fa6104e6600435612974565b604051918291602083526020830190612056565b0390f35b3461027b57602036600319011261027b5761053961053460043560005260026020526001600160a01b0360406000205416151590565b61219a565b6000604051610547816120bd565b526104fa604051610557816120bd565b60008152604051918291602083526020830190611f59565b3461027b57600036600319011261027b576020601754604051908152f35b3461027b57600036600319011261027b576080600e54600f5460105460115491604051938452602084015260408301526060820152f35b3461027b57608036600319011261027b576105dd611f99565b6105e5611faf565b906064359060443567ffffffffffffffff831161027b573660238401121561027b5782600401359361061685612133565b926106246040519485612111565b858452366024878701011161027b57600060208761067298602461066d9901838901378601015261065d610658843361234f565b612282565b610668838383612417565b6126f4565b6122e4565b005b3461027b57602036600319011261027b57600435600052601a6020526020604060002054604051908152f35b3461027b57600036600319011261027b57602060405162093a808152f35b3461027b576106cc3661208a565b9060005260166020526040600020906000526020526020604060002054604051908152f35b3461027b57604036600319011261027b5761070a611f99565b6001600160a01b0361071a611fc5565b911690813314610783573360005260056020526040600020826000526020526107538160406000209060ff801983541691151516179055565b60405190151581527f17307eab39ab6107e8899845ad3d59bd9653f200f220920489ca2b5937696c3160203392a3005b60405162461bcd60e51b815260206004820152601960248201527f4552433732313a20617070726f766520746f2063616c6c6572000000000000006044820152606490fd5b3461027b57600036600319011261027b57604051600060018054906107ec8261220b565b808552918181169081156108805750600114610827575b6104fa8461081381860382612111565b604051918291602083526020830190611f59565b600081815292507fb10e2d527612073b26eecdfd717e6a320cf44b4afac2b0732d9fcbe2b7fa0cf65b82841061086857505050810160200161081382610803565b80546020858701810191909152909301928101610850565b60ff191660208087019190915292151560051b850190920192506108139150839050610803565b3461027b57600036600319011261027b576020601954604051908152f35b3461027b57600036600319011261027b5760206001600160a01b03600a5416604051908152f35b3461027b57600036600319011261027b5760206040516001600160a01b037f0000000000000000000000000000000000000000000000000000000000000000168152f35b3461027b57600036600319011261027b576109cb61096d7f000000000000000000000000000000000000000000000000000000000000000061278d565b6104fa6109997f0000000000000000000000000000000000000000000000000000000000000000612886565b6109d9604051916109a9836120bd565b60008352604051958695600f60f81b875260e0602088015260e0870190611f59565b908582036040870152611f59565b90466060850152306080850152600060a085015283820360c0850152612056565b3461027b57602036600319011261027b576001600160a01b03610a1b611f99565b1660005260086020526020604060002054604051908152f35b3461027b57602036600319011261027b5760043560135481101561027b576001600160a01b03610a65602092612009565b9190546040519260031b1c168152f35b3461027b5760c036600319011261027b57610a8e611f99565b60243560443560643560ff8116810361027b57814211610bba57610b66610b5e6001600160a01b039283610ac1876121e6565b16948560005260086020526040600020908154916001830190556040519060208201927f49ecf333e5b8c95c40fdafc95c1ad136e8914a8fb55e9dc8bb01eaa83a2df9ad8452878b166040840152896060840152608083015260a082015260a08152610b2c816120d9565b519020610b376133a6565b906040519161190160f01b83526002830152602282015260a4359160426084359220613317565b9190916131fd565b1603610b755761067291612526565b60405162461bcd60e51b815260206004820152601f60248201527f4552433732315065726d69743a20696e76616c6964207369676e6174757265006044820152606490fd5b60405162461bcd60e51b815260206004820152601e60248201527f4552433732315065726d69743a206578706972656420646561646c696e6500006044820152606490fd5b3461027b57602036600319011261027b57610c35600435610c1e612bf5565b610c26612ba4565b610c2f816121e6565b90612eec565b506001600c55005b3461027b57604036600319011261027b5767ffffffffffffffff60043560243582811161027b573660238201121561027b57806004013592831161027b5760248360051b82010136811161027b57610c93612bf5565b610c9b612ba4565b6001600160a01b0390817f00000000000000000000000000000000000000000000000000000000000000001690813303610e2357610cd886612775565b95610ce66040519788612111565b86526020936024018487015b828210610e0b57505050610d0584612974565b91855194610d1286612775565b95610d206040519788612111565b808752610d2f601f1991612775565b01368688013786519560005b878110610d49576001600c55005b610d5f8285610d58848d612960565b511661316d565b610df9578084610d716001938c612960565b5116610d7d8285612960565b5284610d89828c612960565b511660005260148852604060002054610da28189612960565b5187878b83610db7575b505050505001610d3b565b610def946016610de2928b600052528d60406000209082600052526040600020858154019055612009565b90549060031b1c16612ea9565b8a8087878b610dac565b6040516306ca7a9d60e21b8152600490fd5b8135858116810361027b578152908501908501610cf2565b60405163ea8e4eb560e01b8152600490fd5b3461027b57602036600319011261027b576001600160a01b03610e56611f99565b168015610e755760005260036020526020604060002054604051908152f35b60405162461bcd60e51b815260206004820152602960248201527f4552433732313a2061646472657373207a65726f206973206e6f7420612076616044820152683634b21037bbb732b960b91b6064820152608490fd5b3461027b57604036600319011261027b57600435610ee8611faf565b610ef0612bf5565b610ef8612ba4565b610f028282612e16565b610f0b82612974565b9182519160005b838110610f20576001600c55005b80610f2d60019287612960565b5180610f3b575b5001610f12565b610f71908560005260206016815260406000209084600052526040600020818154019055846001600160a01b03610de285612009565b86610f34565b3461027b57602036600319011261027b57600435610fa16001600160a01b03600a5416331461214f565b60155481601354917fc2bb8fe39c8991ae620ca35ae3348dc9f95238515d5193d076e2a4b4ba6c013c600080a4601555005b3461027b57602036600319011261027b576020610ff16004356121e6565b6001600160a01b0360405191168152f35b3461027b57600036600319011261027b57602060ff600d54166040519015158152f35b3461027b57600036600319011261027b57600b546001600160a01b039081811680330361109b5780600a549384167f8be0079c531659141344cd1fd0a4f28419497f9722a3daafe3b4186f6b6457e0600080a373ffffffffffffffffffffffffffffffffffffffff1992831617600a5516600b55005b606460405162461bcd60e51b815260206004820152602060248201527f4f776e61626c653a2063616c6c657220213d2070656e64696e67206f776e65726044820152fd5b3461027b57602036600319011261027b576000610100604051611101816120a0565b8281528260208201528260408201528260608201528260808201528260a08201528260c08201528260e082015201526004356000526012602052610120604060002064ffffffffff610100604051611158816120a0565b83549384825283600260018301549260ff84161515602086015260ff8460081c161515604086015260ff8460101c161515606086015266ffffffffffffff8460181c1660808601526affffffffffffffffffffff8460501c1660a086015262ffffff8460a81c1660c0860152828460c01c1660e08601520154168383015266ffffffffffffff429160181c161115611265575b60405193845260208101511515602085015260408101511515604085015260608101511515606085015266ffffffffffffff60808201511660808501526affffffffffffffffffffff60a08201511660a085015262ffffff60c08201511660c08501528260e08201511660e0850152015116610100820152f35b600060c08201526111eb565b3461027b57606036600319011261027b5761128a611f99565b611292612ba4565b61129a612bf5565b62093a8060443510611891576040516323b872dd60e01b81523360048201523060248083019190915235604482015260208160648160007f00000000000000000000000000000000000000000000000000000000000000006001600160a01b03165af1801561188557611856575b50611311612b2e565b90606082015161133861132860443560443561294d565b611332838061294d565b90612b7b565b6000600382111561184457508060019080821c82810180911161038157909392915b82821061182257505061136d9250612940565b60608301518060021b90808204600414901517156103815781101561036f5761139a6060840151826131a8565b600091604085015180600a810204600a14811517156103815761271090600a8102821161181a57600a0204905b81602435101561173d575b506113de601754612b6c565b92836017556040516113ef816120bd565b600081526001600160a01b038616156116f95761066d6114d29161143261142c8860005260026020526001600160a01b0360406000205416151590565b15612c4b565b61145561142c8860005260026020526001600160a01b0360406000205416151590565b6001600160a01b038816600052600360205260406000206001815401905586600052600260205260406000206001600160a01b0389166001600160a01b0319825416179055866001600160a01b03891660007fddf252ad1be2c89b69c2b068fc378daa952ba7f163c4a11628f55a4df523b3ef8180a486886125b2565b6114de60443542612b7b565b8460026018549362093a806114ff816114f78842612940565b049686612940565b0495869460206115118a60243561294d565b9c01519260405193611522856120a0565b845260208401926024351015835260408401901515815260608401916000835266ffffffffffffff608086019116815260a085016affffffffffffffffffffff60243516815260c086019162ffffff8d16835260e087019364ffffffffff998a8d1686528a6101008a019c168c5260005260126020526040600020975188556115be6001890197511515889060ff801983541691151516179055565b511515947fffffff00000000000000000000000000000000000000000000000000000000ff61ff0074ffffffffffffffffffffff0000000000000000000069ffffffffffffff00000062ff00008b549551151560101b16955160181b16955160501b169562ffffff60a81b905160a81b169664ffffffffff60c01b905160c01b169760081b16911617171717171790550191511664ffffffffff198254161790556001810180911161038157600052601a6020526040600020611682868254612b88565b90556001810180911161038157600052601a6020526040600020938454600082820392128183128116918313901516176103815760209455604051926001600160a01b0360243591167ffe85789374f996e0a134e187beae4b2d8ff423bb23269afd8b092e6e23598654600080a46001600c558152f35b606460405162461bcd60e51b815260206004820152602060248201527f4552433732313a206d696e7420746f20746865207a65726f20616464726573736044820152fd5b92506117498551612b6c565b855261176561175d60208701948551612b7b565b865190612755565b9283815260608601519384604435101594856000146117ef57505061178f81516060880151612b7b565b60608701525b6117a56024356040880151612b7b565b80604088015286519182600e55519081600f556010556060870151806011557f1eaa66f91a9905cd5092dc826d75bb659d1f728928eda66d609c05e43dbd0bc0600080a4856113d2565b111561180e5761180481516060880151612940565b6060870152611795565b60006060870152611795565b9050906113c7565b91509192611839836118348184612755565b612b7b565b821c9093929161135a565b61136d92911561294057506001612940565b6118779060203d60201161187e575b61186f8183612111565b810190612b16565b5081611308565b503d611865565b6040513d6000823e3d90fd5b604051631b6eddb160e11b8152600490fd5b3461027b5761067261066d6118b736611fd4565b90604051926118c5846120bd565b6000845261065d610658843361234f565b3461027b57602036600319011261027b576001600160a01b036118f7611f99565b1660005260146020526020604060002054604051908152f35b3461027b57600036600319011261027b57602061192b6133a6565b604051908152f35b3461027b57602036600319011261027b5760043560005260126020526101206040600020805490600260018201549164ffffffffff9182910154169160405193845260ff81161515602085015260ff8160081c161515604085015260ff8160101c161515606085015266ffffffffffffff8160181c1660808501526affffffffffffffffffffff8160501c1660a085015262ffffff8160a81c1660c085015260c01c1660e0830152610100820152f35b3461027b576106726119f436611fd4565b91611a02610658843361234f565b612417565b3461027b57602036600319011261027b57611a20612bf5565b611a28612ba4565b6001600160a01b037f000000000000000000000000000000000000000000000000000000000000000016803303610e2357611a67602091600435612eec565b6001600c55604051908152f35b3461027b57602036600319011261027b57611a8d611f99565b6001600160a01b038091611aa682600a5416331461214f565b1690816000526014602052604060002054611b53576013546001810190818111610381576015548211611b415768010000000000000000811015611b2b57611af091601355612009565b819291549060031b9184831b921b19161790556013546000198101908111610381576020916000526014825280604060002055604051908152f35b634e487b7160e01b600052604160045260246000fd5b6040516353bb24f960e01b8152600490fd5b6040516228d40360e81b8152600490fd5b3461027b57600036600319011261027b576020601854604051908152f35b3461027b57604036600319011261027b57610c35600435611ba1611faf565b90611baa612bf5565b611bb2612ba4565b611bbc8183612e16565b612eec565b3461027b57604036600319011261027b57611bda611f99565b6024356001600160a01b0380611bef836121e6565b168091841614611ca357803314908115611c7e575b5015611c135761067291612526565b60405162461bcd60e51b815260206004820152603d60248201527f4552433732313a20617070726f76652063616c6c6572206973206e6f7420746f60448201527f6b656e206f776e6572206f7220617070726f76656420666f7220616c6c0000006064820152608490fd5b9050600052600560205260406000203360005260205260ff6040600020541683611c04565b60405162461bcd60e51b815260206004820152602160248201527f4552433732313a20617070726f76616c20746f2063757272656e74206f776e656044820152603960f91b6064820152608490fd5b3461027b57602036600319011261027b576020610ff1600435612245565b3461027b57606036600319011261027b57611d29611f99565b611d31611fc5565b60443590811515820361027b576001600160a01b03928391611d5883600a5416331461214f565b15611e05571690811590811591611dfd575b5015611db85780600a549283167f8be0079c531659141344cd1fd0a4f28419497f9722a3daafe3b4186f6b6457e0600080a36001600160a01b031980921617600a55600b5416600b55600080f35b60405162461bcd60e51b815260206004820152601560248201527f4f776e61626c653a207a65726f206164647265737300000000000000000000006044820152606490fd5b905083611d6a565b915050166001600160a01b0319600b541617600b55600080f35b3461027b57600036600319011261027b5760405160008054611e408161220b565b808452906001908181169081156108805750600114611e69576104fa8461081381860382612111565b600080805292507f290decd9548b62a8d60345a988386fc84ba6bc95484008f6362f93160ef3e5635b828410611eaa57505050810160200161081382610803565b80546020858701810191909152909301928101611e92565b3461027b57600036600319011261027b57602062093a80611ee560185442612940565b04604051908152f35b3461027b57602036600319011261027b576004359063ffffffff60e01b821680920361027b576020916380ac58cd60e01b8114908115611f48575b8115611f37575b5015158152f35b6301ffc9a760e01b14905083611f30565b635b5e139f60e01b81149150611f29565b919082519283825260005b848110611f85575050826000602080949584010152601f8019910116010190565b602081830181015184830182015201611f64565b600435906001600160a01b038216820361027b57565b602435906001600160a01b038216820361027b57565b60243590811515820361027b57565b606090600319011261027b576001600160a01b0390600435828116810361027b5791602435908116810361027b579060443590565b6013548110156120405760136000527f66de8ffda797e3de9c05e8fc57b3bf0ec28a930d40b0d285d93c06501cf6a0900190600090565b634e487b7160e01b600052603260045260246000fd5b90815180825260208080930193019160005b828110612076575050505090565b835185529381019392810192600101612068565b604090600319011261027b576004359060243590565b610120810190811067ffffffffffffffff821117611b2b57604052565b6020810190811067ffffffffffffffff821117611b2b57604052565b60c0810190811067ffffffffffffffff821117611b2b57604052565b6040810190811067ffffffffffffffff821117611b2b57604052565b90601f8019910116810190811067ffffffffffffffff821117611b2b57604052565b67ffffffffffffffff8111611b2b57601f01601f191660200190565b1561215657565b606460405162461bcd60e51b815260206004820152602060248201527f4f776e61626c653a2063616c6c6572206973206e6f7420746865206f776e65726044820152fd5b156121a157565b60405162461bcd60e51b815260206004820152601860248201527f4552433732313a20696e76616c696420746f6b656e20494400000000000000006044820152606490fd5b60005260026020526001600160a01b036040600020541661220881151561219a565b90565b90600182811c9216801561223b575b602083101461222557565b634e487b7160e01b600052602260045260246000fd5b91607f169161221a565b6122686105348260005260026020526001600160a01b0360406000205416151590565b60005260046020526001600160a01b036040600020541690565b1561228957565b60405162461bcd60e51b815260206004820152602d60248201527f4552433732313a2063616c6c6572206973206e6f7420746f6b656e206f776e6560448201526c1c881bdc88185c1c1c9bdd9959609a1b6064820152608490fd5b156122eb57565b60405162461bcd60e51b815260206004820152603260248201527f4552433732313a207472616e7366657220746f206e6f6e20455243373231526560448201527131b2b4bb32b91034b6b83632b6b2b73a32b960711b6064820152608490fd5b0390fd5b906001600160a01b038080612363846121e6565b16931691838314938415612396575b508315612380575b50505090565b61238c91929350612245565b161438808061237a565b909350600052600560205260406000208260005260205260ff604060002054169238612372565b156123c457565b60405162461bcd60e51b815260206004820152602560248201527f4552433732313a207472616e736665722066726f6d20696e636f72726563742060448201526437bbb732b960d91b6064820152608490fd5b9061243f91612425846121e6565b916001600160a01b039384938480941694859116146123bd565b169182156124d5578161245c91612455866121e6565b16146123bd565b7fddf252ad1be2c89b69c2b068fc378daa952ba7f163c4a11628f55a4df523b3ef60008481526004602052604081206001600160a01b03199081815416905583825260036020526040822060001981540190558482526040822060018154019055858252600260205284604083209182541617905580a4565b60405162461bcd60e51b8152602060048201526024808201527f4552433732313a207472616e7366657220746f20746865207a65726f206164646044820152637265737360e01b6064820152608490fd5b8160005260046020526040600020906001600160a01b0380911691826001600160a01b031982541617905561255a836121e6565b167f8c5be1e5ebec7d5bd14f71427d1e84f3dd0314c0f7b2291e5b200ac8c7c3b925600080a4565b3d156125ad573d9061259382612133565b916125a16040519384612111565b82523d6000602084013e565b606090565b9091600091803b156126eb576126056020916001600160a01b039385604051958680958194630a85bd0160e11b9b8c84523360048501528560248501526044840152608060648401526084830190611f59565b0393165af19082908261269c575b505061268e57612621612582565b805190816126895760405162461bcd60e51b815260206004820152603260248201527f4552433732313a207472616e7366657220746f206e6f6e20455243373231526560448201527131b2b4bb32b91034b6b83632b6b2b73a32b960711b6064820152608490fd5b602001fd5b6001600160e01b0319161490565b909192506020813d82116126e3575b816126b860209383612111565b810103126126df5751906001600160e01b0319821682036126dc5750903880612613565b80fd5b5080fd5b3d91506126ab565b50505050600190565b91926000929190813b1561274b576020916126059185604051958680958194630a85bd0160e11b9b8c84523360048501526001600160a01b0380951660248501526044840152608060648401526084830190611f59565b5050505050600190565b811561275f570490565b634e487b7160e01b600052601260045260246000fd5b67ffffffffffffffff8111611b2b5760051b60200190565b60ff81146127cb5760ff811690601f82116127b957604051916127af836120f5565b8252602082015290565b604051632cd44ac360e21b8152600490fd5b506040516006548160006127de8361220b565b808352926001908181169081156128645750600114612805575b5061220892500382612111565b6006600090815291507ff652222313e28459528d920b65115c16c04f3efc82aaedc97be59f3f377c0d3f5b84831061284957506122089350508101602001386127f8565b81935090816020925483858901015201910190918492612830565b90506020925061220894915060ff191682840152151560051b820101386127f8565b60ff81146128a85760ff811690601f82116127b957604051916127af836120f5565b506040516007548160006128bb8361220b565b8083529260019081811690811561286457506001146128e1575061220892500382612111565b6007600090815291507fa66cc928b5edb82af9bd49922954155ab7b0942694bea4ce44661d9a8736c6885b84831061292557506122089350508101602001386127f8565b8193509081602092548385890101520191019091849261290c565b9190820391821161038157565b8181029291811591840414171561038157565b80518210156120405760209160051b010190565b60135461298081612775565b916040908151936129919085612111565b828452601f196129a084612775565b01916020923684870137600082815260128452818120938251956129c3876120a0565b85548752600196878701549160ff83161515848301528260081c60ff161515868301528260101c60ff16151560608301526080928060181c66ffffffffffffff16848401528060501c6affffffffffffffffffffff16988960a08501528160a81c62ffffff168060c086015264ffffffffff9a8b809460c01c169b8c9360e088019d8e5260020154166101008197015202938415612b075760195491821115612b0757818110612aff575b508652601a8552868620985116855285852090979089019089018a865b8a8110612aa15750505050505050505050505090565b8b91612af682612af08d8c838f60168f8f8f8f908f612ada92612ad491898b528652878a2054908652878a205490612940565b9061294d565b901c95855252822091528c528d8d205490612940565b92612960565b52018b90612a8b565b905038612a6e565b50505050505050505050505090565b9081602091031261027b5751801515810361027b5790565b604051906080820182811067ffffffffffffffff821117611b2b5760405281600e548152600f54602082015260105460408201526060601154910152565b60001981146103815760010190565b9190820180921161038157565b9190916000838201938412911290801582169115161761038157565b60ff600d5416612bb057565b60405162461bcd60e51b815260206004820152601060248201527f5061757361626c653a20706175736564000000000000000000000000000000006044820152606490fd5b6002600c5414612c06576002600c55565b60405162461bcd60e51b815260206004820152601f60248201527f5265656e7472616e637947756172643a207265656e7472616e742063616c6c006044820152606490fd5b15612c5257565b60405162461bcd60e51b815260206004820152601c60248201527f4552433732313a20746f6b656e20616c7265616479206d696e746564000000006044820152606490fd5b604051612cf5916001600160a01b0316612cb0826120f5565b6000806020958685527f5361666545524332303a206c6f772d6c6576656c2063616c6c206661696c656487860152868151910182855af1612cef612582565b91612d7d565b805190828215928315612d65575b50505015612d0e5750565b6084906040519062461bcd60e51b82526004820152602a60248201527f5361666545524332303a204552433230206f7065726174696f6e20646964206e6044820152691bdd081cdd58d8d9595960b21b6064820152fd5b612d759350820181019101612b16565b388281612d03565b91929015612ddf5750815115612d91575090565b3b15612d9a5790565b60405162461bcd60e51b815260206004820152601d60248201527f416464726573733a2063616c6c20746f206e6f6e2d636f6e74726163740000006044820152606490fd5b825190915015612df25750805190602001fd5b60405162461bcd60e51b81526020600482015290819061234b906024830190611f59565b906001600160a01b0380612e29836121e6565b16803314159384612e9c575b5083612e74575b5082612e5d575b5050612e4b57565b6040516371f1e92160e11b8152600490fd5b909150612e6a3392612245565b1614153880612e43565b909250600052600560205260406000203360005260205260ff60406000205416159138612e3c565b8216811415935038612e35565b60405163a9059cbb60e01b60208201526001600160a01b03929092166024830152604480830193909352918152612eea91612ee5606483612111565b612c97565b565b600081815260126020908152604080832081519695612f0a886120a0565b8154885260018201548489019260ff821615158452848a019160ff8160081c161515835260608b0160ff8260101c161515815260808c66ffffffffffffff8460181c1691829101528c61010060a082019460026affffffffffffffffffffff97888360501c16885262ffffff8360a81c1660c086015264ffffffffff809360c01c1660e0860152015416910152421061315c575161314f579181838989969461300a99989651169d8e965161309a575b508b905250506012845250838720600101805462ff0000191662010000179055835163a9059cbb60e01b81526001600160a01b039091166004820152602481019190915292839081906044820190565b0381876001600160a01b037f0000000000000000000000000000000000000000000000000000000000000000165af1908115613091575091869493917fe6563b2b3cf5e4a3af9b8f687d1a3b3ccd0e99893277bcc8804b1353f084ef7a93613073575b505080a3565b8161308992903d1061187e5761186f8183612111565b50388061306d565b513d85823e3d90fd5b6130a2612b2e565b8051600019018152945115613136576060850190815181511060001461312f576130d0919250518251612940565b90525b51166130e3868301918251612940565b809152606082519283600e55868101519283600f556010550151806011557f1eaa66f91a9905cd5092dc826d75bb659d1f728928eda66d609c05e43dbd0bc08a80a43880808981612fba565b50526130d3565b90505161314860608501918251612b7b565b90526130d3565b5095985050505050505050565b865163342ad40160e11b8152600490fd5b81519160005b8381106131835750505050600090565b6001600160a01b03806131968385612960565b5116908416146126eb57600101613173565b81156131f457620f42409182820291808304841490151715610381576131cd91612755565b6000828211156131dc57505090565b50620186a09150818110156131ef575090565b905090565b5050620f424090565b6005811015613301578061320e5750565b6001810361325b5760405162461bcd60e51b815260206004820152601860248201527f45434453413a20696e76616c6964207369676e617475726500000000000000006044820152606490fd5b600281036132a85760405162461bcd60e51b815260206004820152601f60248201527f45434453413a20696e76616c6964207369676e6174757265206c656e677468006044820152606490fd5b6003146132b157565b60405162461bcd60e51b815260206004820152602260248201527f45434453413a20696e76616c6964207369676e6174757265202773272076616c604482015261756560f01b6064820152608490fd5b634e487b7160e01b600052602160045260246000fd5b9291907f7fffffffffffffffffffffffffffffff5d576e7357a4501ddfe92f46681b20a0831161339a5791608094939160ff602094604051948552168484015260408301526060820152600093849182805260015afa1561338d5781516001600160a01b03811615613387579190565b50600190565b50604051903d90823e3d90fd5b50505050600090600390565b6001600160a01b037f000000000000000000000000000000000000000000000000000000000000000016301480613497575b15613401577f000000000000000000000000000000000000000000000000000000000000000090565b60405160208101907f8b73c3c69bb8fe3d512ecc4cf759cc79239f7b179b0ffacaa9a75d522b39400f82527f000000000000000000000000000000000000000000000000000000000000000060408201527f000000000000000000000000000000000000000000000000000000000000000060608201524660808201523060a082015260a08152613491816120d9565b51902090565b507f000000000000000000000000000000000000000000000000000000000000000046146133d856fea2646970667358221220a757c8a2410c9b95c994ab2208c6c0204181731a8b5671c9a395eb2527a24f3f64736f6c63430008130033",
  "linkReferences": {},
  "deployedLinkReferences": {}
}