{
  "_format": "hh-sol-artifact-1",
  "contractName": "MarketsHelper",
  "sourceName": "contracts/MarketsHelper.sol",
  "abi": [
    {
      "inputs": [
        {
          "internalType": "address",
          "name": "who",
          "type": "address"
        },
        {
          "internalType": "contract IBigBang[]",
          "name": "markets",
          "type": "address[]"
        }
      ],
      "name": "bigBangMarketInfo",
      "outputs": [
        {
          "components": [
            {
              "components": [
                {
                  "internalType": "address",
                  "name": "collateral",
                  "type": "address"
                },
                {
                  "internalType": "uint256",
                  "name": "collateralId",
                  "type": "uint256"
                },
                {
                  "internalType": "address",
                  "name": "asset",
                  "type": "address"
                },
                {
                  "internalType": "uint256",
                  "name": "assetId",
                  "type": "uint256"
                },
                {
                  "internalType": "contract IOracle",
                  "name": "oracle",
                  "type": "address"
                },
                {
                  "internalType": "bytes",
                  "name": "oracleData",
                  "type": "bytes"
                },
                {
                  "internalType": "uint256",
                  "name": "totalCollateralShare",
                  "type": "uint256"
                },
                {
                  "internalType": "uint256",
                  "name": "userCollateralShare",
                  "type": "uint256"
                },
                {
                  "components": [
                    {
                      "internalType": "uint128",
                      "name": "elastic",
                      "type": "uint128"
                    },
                    {
                      "internalType": "uint128",
                      "name": "base",
                      "type": "uint128"
                    }
                  ],
                  "internalType": "struct Rebase",
                  "name": "totalBorrow",
                  "type": "tuple"
                },
                {
                  "internalType": "uint256",
                  "name": "userBorrowPart",
                  "type": "uint256"
                },
                {
                  "internalType": "uint256",
                  "name": "currentExchangeRate",
                  "type": "uint256"
                },
                {
                  "internalType": "uint256",
                  "name": "spotExchangeRate",
                  "type": "uint256"
                },
                {
                  "internalType": "uint256",
                  "name": "oracleExchangeRate",
                  "type": "uint256"
                },
                {
                  "internalType": "uint256",
                  "name": "totalBorrowCap",
                  "type": "uint256"
                }
              ],
              "internalType": "struct MarketsHelper.MarketInfo",
              "name": "market",
              "type": "tuple"
            },
            {
              "components": [
                {
                  "internalType": "uint64",
                  "name": "debtRate",
                  "type": "uint64"
                },
                {
                  "internalType": "uint64",
                  "name": "lastAccrued",
                  "type": "uint64"
                }
              ],
              "internalType": "struct IBigBang.AccrueInfo",
              "name": "accrueInfo",
              "type": "tuple"
            }
          ],
          "internalType": "struct MarketsHelper.BigBangInfo[]",
          "name": "",
          "type": "tuple[]"
        }
      ],
      "stateMutability": "view",
      "type": "function"
    },
    {
      "inputs": [
        {
          "internalType": "contract IMarket",
          "name": "market",
          "type": "address"
        },
        {
          "internalType": "address",
          "name": "_user",
          "type": "address"
        },
        {
          "internalType": "uint256",
          "name": "_collateralAmount",
          "type": "uint256"
        },
        {
          "internalType": "uint256",
          "name": "_borrowAmount",
          "type": "uint256"
        },
        {
          "internalType": "bool",
          "name": "extractFromSender",
          "type": "bool"
        },
        {
          "internalType": "bool",
          "name": "deposit_",
          "type": "bool"
        },
        {
          "internalType": "bool",
          "name": "withdraw_",
          "type": "bool"
        },
        {
          "internalType": "bytes",
          "name": "_withdrawData",
          "type": "bytes"
        }
      ],
      "name": "depositAddCollateralAndBorrow",
      "outputs": [],
      "stateMutability": "payable",
      "type": "function"
    },
    {
      "inputs": [
        {
          "internalType": "contract ISingularity",
          "name": "singularity",
          "type": "address"
        },
        {
          "internalType": "address",
          "name": "_user",
          "type": "address"
        },
        {
          "internalType": "uint256",
          "name": "_amount",
          "type": "uint256"
        },
        {
          "internalType": "bool",
          "name": "deposit_",
          "type": "bool"
        },
        {
          "internalType": "bool",
          "name": "extractFromSender",
          "type": "bool"
        }
      ],
      "name": "depositAndAddAsset",
      "outputs": [],
      "stateMutability": "nonpayable",
      "type": "function"
    },
    {
      "inputs": [
        {
          "internalType": "contract IMarket",
          "name": "market",
          "type": "address"
        },
        {
          "internalType": "uint256",
          "name": "_depositAmount",
          "type": "uint256"
        },
        {
          "internalType": "uint256",
          "name": "_repayAmount",
          "type": "uint256"
        },
        {
          "internalType": "bool",
          "name": "deposit_",
          "type": "bool"
        }
      ],
      "name": "depositAndRepay",
      "outputs": [],
      "stateMutability": "nonpayable",
      "type": "function"
    },
    {
      "inputs": [
        {
          "internalType": "contract IMarket",
          "name": "market",
          "type": "address"
        },
        {
          "internalType": "uint256",
          "name": "_depositAmount",
          "type": "uint256"
        },
        {
          "internalType": "uint256",
          "name": "_repayAmount",
          "type": "uint256"
        },
        {
          "internalType": "uint256",
          "name": "_collateralAmount",
          "type": "uint256"
        },
        {
          "internalType": "bool",
          "name": "deposit_",
          "type": "bool"
        },
        {
          "internalType": "bool",
          "name": "withdraw_",
          "type": "bool"
        }
      ],
      "name": "depositRepayAndRemoveCollateral",
      "outputs": [],
      "stateMutability": "nonpayable",
      "type": "function"
    },
    {
      "inputs": [
        {
          "internalType": "contract ISingularity",
          "name": "singularity",
          "type": "address"
        },
        {
          "internalType": "uint256",
          "name": "fraction",
          "type": "uint256"
        }
      ],
      "name": "getAmountForAssetFraction",
      "outputs": [
        {
          "internalType": "uint256",
          "name": "amount",
          "type": "uint256"
        }
      ],
      "stateMutability": "view",
      "type": "function"
    },
    {
      "inputs": [
        {
          "internalType": "contract IMarket",
          "name": "market",
          "type": "address"
        },
        {
          "internalType": "uint256",
          "name": "borrowPart",
          "type": "uint256"
        }
      ],
      "name": "getAmountForBorrowPart",
      "outputs": [
        {
          "internalType": "uint256",
          "name": "amount",
          "type": "uint256"
        }
      ],
      "stateMutability": "view",
      "type": "function"
    },
    {
      "inputs": [
        {
          "internalType": "contract IMarket",
          "name": "market",
          "type": "address"
        },
        {
          "internalType": "uint256",
          "name": "share",
          "type": "uint256"
        }
      ],
      "name": "getCollateralAmountForShare",
      "outputs": [
        {
          "internalType": "uint256",
          "name": "amount",
          "type": "uint256"
        }
      ],
      "stateMutability": "view",
      "type": "function"
    },
    {
      "inputs": [
        {
          "internalType": "contract IMarket",
          "name": "market",
          "type": "address"
        },
        {
          "internalType": "uint256",
          "name": "borrowPart",
          "type": "uint256"
        },
        {
          "internalType": "uint256",
          "name": "liquidationMultiplierPrecision",
          "type": "uint256"
        },
        {
          "internalType": "uint256",
          "name": "exchangeRatePrecision",
          "type": "uint256"
        }
      ],
      "name": "getCollateralSharesForBorrowPart",
      "outputs": [
        {
          "internalType": "uint256",
          "name": "collateralShares",
          "type": "uint256"
        }
      ],
      "stateMutability": "view",
      "type": "function"
    },
    {
      "inputs": [
        {
          "internalType": "contract ISingularity",
          "name": "singularity",
          "type": "address"
        },
        {
          "internalType": "contract IMarket",
          "name": "bingBang",
          "type": "address"
        },
        {
          "internalType": "uint256",
          "name": "_collateralAmount",
          "type": "uint256"
        },
        {
          "internalType": "uint256",
          "name": "_borrowAmount",
          "type": "uint256"
        },
        {
          "internalType": "bool",
          "name": "deposit_",
          "type": "bool"
        }
      ],
      "name": "mintAndLend",
      "outputs": [],
      "stateMutability": "nonpayable",
      "type": "function"
    },
    {
      "inputs": [
        {
          "internalType": "contract ISingularity",
          "name": "singularity",
          "type": "address"
        },
        {
          "internalType": "contract IMarket",
          "name": "bingBang",
          "type": "address"
        },
        {
          "internalType": "uint256",
          "name": "_removeShare",
          "type": "uint256"
        },
        {
          "internalType": "uint256",
          "name": "_repayAmount",
          "type": "uint256"
        },
        {
          "internalType": "uint256",
          "name": "_collateralShare",
          "type": "uint256"
        },
        {
          "internalType": "bool",
          "name": "withdraw_",
          "type": "bool"
        },
        {
          "internalType": "bytes",
          "name": "withdrawData_",
          "type": "bytes"
        }
      ],
      "name": "removeAssetAndRepay",
      "outputs": [],
      "stateMutability": "nonpayable",
      "type": "function"
    },
    {
      "inputs": [
        {
          "internalType": "address",
          "name": "who",
          "type": "address"
        },
        {
          "internalType": "contract ISingularity[]",
          "name": "markets",
          "type": "address[]"
        }
      ],
      "name": "singularityMarketInfo",
      "outputs": [
        {
          "components": [
            {
              "components": [
                {
                  "internalType": "address",
                  "name": "collateral",
                  "type": "address"
                },
                {
                  "internalType": "uint256",
                  "name": "collateralId",
                  "type": "uint256"
                },
                {
                  "internalType": "address",
                  "name": "asset",
                  "type": "address"
                },
                {
                  "internalType": "uint256",
                  "name": "assetId",
                  "type": "uint256"
                },
                {
                  "internalType": "contract IOracle",
                  "name": "oracle",
                  "type": "address"
                },
                {
                  "internalType": "bytes",
                  "name": "oracleData",
                  "type": "bytes"
                },
                {
                  "internalType": "uint256",
                  "name": "totalCollateralShare",
                  "type": "uint256"
                },
                {
                  "internalType": "uint256",
                  "name": "userCollateralShare",
                  "type": "uint256"
                },
                {
                  "components": [
                    {
                      "internalType": "uint128",
                      "name": "elastic",
                      "type": "uint128"
                    },
                    {
                      "internalType": "uint128",
                      "name": "base",
                      "type": "uint128"
                    }
                  ],
                  "internalType": "struct Rebase",
                  "name": "totalBorrow",
                  "type": "tuple"
                },
                {
                  "internalType": "uint256",
                  "name": "userBorrowPart",
                  "type": "uint256"
                },
                {
                  "internalType": "uint256",
                  "name": "currentExchangeRate",
                  "type": "uint256"
                },
                {
                  "internalType": "uint256",
                  "name": "spotExchangeRate",
                  "type": "uint256"
                },
                {
                  "internalType": "uint256",
                  "name": "oracleExchangeRate",
                  "type": "uint256"
                },
                {
                  "internalType": "uint256",
                  "name": "totalBorrowCap",
                  "type": "uint256"
                }
              ],
              "internalType": "struct MarketsHelper.MarketInfo",
              "name": "market",
              "type": "tuple"
            },
            {
              "components": [
                {
                  "internalType": "uint128",
                  "name": "elastic",
                  "type": "uint128"
                },
                {
                  "internalType": "uint128",
                  "name": "base",
                  "type": "uint128"
                }
              ],
              "internalType": "struct Rebase",
              "name": "totalAsset",
              "type": "tuple"
            },
            {
              "internalType": "uint256",
              "name": "userAssetFraction",
              "type": "uint256"
            },
            {
              "components": [
                {
                  "internalType": "uint64",
                  "name": "interestPerSecond",
                  "type": "uint64"
                },
                {
                  "internalType": "uint64",
                  "name": "lastAccrued",
                  "type": "uint64"
                },
                {
                  "internalType": "uint128",
                  "name": "feesEarnedFraction",
                  "type": "uint128"
                }
              ],
              "internalType": "struct ISingularity.AccrueInfo",
              "name": "accrueInfo",
              "type": "tuple"
            }
          ],
          "internalType": "struct MarketsHelper.SingularityInfo[]",
          "name": "",
          "type": "tuple[]"
        }
      ],
      "stateMutability": "view",
      "type": "function"
    },
    {
      "stateMutability": "payable",
      "type": "receive"
    }
  ],
  "bytecode": "0x60808060405234610016576136d0908161001c8239f35b600080fdfe608080604052600436101561001d575b50361561001b57600080fd5b005b600090813560e01c90816314ecf5a814611fa95750806326dd79a614611bec578063411628d914611769578063443c73a7146114f45780634b96e5711461104c5780636dd55c0b14610dc2578063700ea12414610b31578063a306dfd514610a7a578063dedd6b80146106d2578063e4e802e814610248578063e552cb41146102125763ea881c180361000f573461020f57604036600319011261020f576001600160a01b0390816100cd61215b565b16916040519263de40657760e01b84526020938481600481855afa9081156101d457859085926101df575b506040516377607a1760e11b81529192829060049082905afa9081156101d4579085929185916101a3575b50606490604051948593849263442c159960e01b845260048401526024356024840152876044840152165afa9182156101975791610165575b50604051908152f35b90508181813d8311610190575b61017c818361223b565b8101031261018b57513861015c565b600080fd5b503d610172565b604051903d90823e3d90fd5b83819492503d83116101cd575b6101ba818361223b565b8101031261018b57606485925190610123565b503d6101b0565b6040513d86823e3d90fd5b6004925061020290823d8411610208575b6101fa818361223b565b8101906124d3565b916100f8565b503d6101f0565b80fd5b503461020f57608036600319011261020f5761024561022f61215b565b6102376121a5565b9060443590602435906125d9565b80f35b503461020f57604036600319011261020f5761026261215b565b6024359067ffffffffffffffff82116106ce57366023830112156106ce57816004013561028e8161225d565b9261029c604051948561223b565b8184526024602085019260051b820101903682116106ca57602401915b8183106106aa575050508151906102cf8261225d565b926102dd604051948561223b565b828452601f196102ec8461225d565b01855b81811061062f5750506000602060405161030881612203565b8281520152610315612418565b50845b8381106103fd5784866040519182916020830160208452825180915260408401602060408360051b870101940192905b82821061035757505050500390f35b919360019193955060208091603f1989820301855287519060c06001600160801b03604061038e855160e0865260e08601906122bd565b946103b58782015188870190602090816001600160801b0391828151168552015116910152565b818101519060609182870152015167ffffffffffffffff815116608086015267ffffffffffffffff878201511660a08601520151169101529601920192018594939192610348565b6001600160a01b0361040f828461245c565b51169061041c8285612958565b610426828861245c565b51526040805163f9557ccb60e01b81529081600481865afa80156105ea57889189916105f5575b506001600160801b0390816040519361046585612203565b168352166020820152602061047a838961245c565b5101526040516370a0823160e01b81526001600160a01b0385166004820152602081602481865afa9081156105ea5788916105b7575b5060049260609160406104c3858b61245c565b510152604051632c9f039d60e21b815293849182905afa9182156105ac57879088908994610539575b506105349367ffffffffffffffff6001600160801b039281604051956105118761221f565b168552166020840152166040820152606061052c838961245c565b510152612437565b610318565b935050506060823d6060116105a4575b816105566060938361223b565b810103126105a057816001600160801b03610573610534946124be565b67ffffffffffffffff610594604061058d602087016124be565b9501612486565b919391955050906104ec565b8680fd5b3d9150610549565b6040513d89823e3d90fd5b90506020813d6020116105e2575b816105d26020938361223b565b8101031261018b575160046104b0565b3d91506105c5565b6040513d8a823e3d90fd5b6001600160801b039250610621915060403d604011610628575b610619818361223b565b81019061249a565b909161044d565b503d61060f565b60405190608082019180831067ffffffffffffffff84111761069457602092604052610659612389565b815260405161066781612203565b6000815260008482015283820152886040820152610683612418565b6060820152828289010152016102ef565b634e487b7160e01b600052604160045260246000fd5b82356001600160a01b038116810361018b578152602092830192016102b9565b8580fd5b8280fd5b503461020f5760a036600319011261020f576106ec61215b565b6106f4612171565b604435916107006121a5565b610708612196565b926001600160a01b038093169060405163226f120560e11b81526020968782600481875afa918215610a6f578992610a40575b5060405163de40657760e01b81528881600481885afa8015610a355787918b91610a18575b5016968960405197630cf35bdd60e41b89528460048a01526080896024818d5afa928315610a0d5760649983946109d9575b508b8b6040519b8c8092638eb22cdd60e01b82528a60048301528960248301528760448301525afa988915610861578c9a849a6109a5575b5061086c575b5050505050506107e3610827958361345a565b604051630cb0f5b760e31b81523060048201526001600160a01b03909116602482015260006044820152606481019290925290928391908290879082906084820190565b03925af1801561086157610839578280f35b813d831161085a575b61084c818361223b565b8101031261018b5738808280f35b503d610842565b6040513d85823e3d90fd5b918a916108bb969a95949360001461099a576108898585336135be565b60405180978196829563095ea7b360e01b845260048401602090939291936001600160a01b0360408201951681520152565b0393165af180156105ea57610958575b5060408051634d4d7cbd60e11b81526004810195909552306024860181905260448601526000606486015260848501849052848060a481015b03818a895af180156105ac576108279587956107e39261092a575b8197508981806107d0565b61094b9060403d604011610951575b610943818361223b565b8101906125c3565b5061091f565b503d610939565b938685813d8311610993575b61096e818361223b565b8101031261098f5783604091610986610904976125b6565b509550506108cb565b8780fd5b503d610964565b61088985858a6135be565b935098509882813d83116109d2575b6109be818361223b565b8101031261018b578a988c925198386107ca565b503d6109b4565b6109fb91945060803d8111610a06575b6109f3818361223b565b810190612573565b505090509238610792565b503d6109e9565b6040513d84823e3d90fd5b610a2f91508a3d8c11610208576101fa818361223b565b38610760565b6040513d8c823e3d90fd5b9091508781813d8311610a68575b610a58818361223b565b8101031261018b5751903861073b565b503d610a4e565b6040513d8b823e3d90fd5b503461020f57604036600319011261020f576001600160a01b036040610a9e61215b565b600060208351610aad81612203565b8281520152600482518094819363020a17bd60e61b8352165afa908115610a0d579082610b07926020949192610b0f575b5060405191610aec83612203565b6001600160801b038092168352168382015260243590612525565b604051908152f35b9050610b2a915060403d60401161062857610619818361223b565b9038610ade565b503461020f5760c036600319011261020f57610b4b61215b565b606435610b56612196565b610b5e612187565b60405163de40657760e01b81526020926001600160a01b03868116939291908583600481885afa8015610a6f57610ba6938a91610da5575b50169660443590602435906125d9565b8015610d9e5730905b866040516377607a1760e11b938482528682600481895afa918215610861578392610d6c575b5060405191638eb22cdd60e01b8352600483015287602483015282604483015286826064818c5afa918215610861578392610d3a575b50853b156106ce5760405163cce19f8160e01b81523360048201526001600160a01b039190911660248201526044810191909152818160648183895af18015610a0d57610d26575b5050610c5d578580f35b829060046040518094819382525afa918215610d1b578592610cea575b5050604080516311a5cc7760e31b8152600481019290925230602483015233604483015260648201929092526000608482015291829060a490829086905af18015610a0d57610ccc575b808080808580f35b610ce49060403d60401161095157610943818361223b565b50610cc4565b9080939250813d8311610d14575b610d02818361223b565b8101031261018b579051826040610c7a565b503d610cf8565b6040513d87823e3d90fd5b610d2f906121ef565b6105a0578638610c53565b925090508582813d8111610d65575b610d53818361223b565b8101031261018b578891519038610c0b565b503d610d49565b925090508582813d8111610d97575b610d85818361223b565b8101031261018b578891519038610bd5565b503d610d7b565b3390610baf565b610dbc9150873d8911610208576101fa818361223b565b38610b96565b503461020f57604036600319011261020f57610ddc61215b565b60243567ffffffffffffffff9283821161020f573660238301121561020f57816004013592610e0a8461225d565b92610e18604051948561223b565b84845260209460248686019160051b8301019136831161104857602401905b82821061102957505050825190610e4d8261225d565b93610e5b604051958661223b565b828552601f19610e6a8461225d565b0186855b828110610feb575060009150604051610e8681612203565b8281520152835b838110610f17575050505060405192808401908085528351809252604085018160408460051b880101950193965b838810610ec85786860387f35b90919293948380600192603f198a82030186528851906040868480610ef5865160608088528701906122bd565b9501518281511682860152015116910152970193019701969093929193610ebb565b8060406001600160a01b03610f2e6004948661245c565b5116610f3a8187612958565b610f44848b61245c565b51528151632c9f039d60e21b815293849182905afa8015610fe0578987918890610f94575b610f8f94508160405193610f7c85612203565b16835216898201528861052c838a61245c565b610e8d565b505050906040813d604011610fd8575b81610fb16040938361223b565b810103126106ca57908189610fd38a610fcc610f8f966124be565b93016124be565b610f69565b3d9150610fa4565b6040513d88823e3d90fd5b604051610ff781612203565b610fff612389565b815260405161100d81612203565b600081526000848201528382015282828a010152018790610e6e565b81356001600160a01b03811681036106ca578152908601908601610e37565b8480fd5b503461020f5760a036600319011261020f5761106661215b565b8161106f612171565b91611078612196565b6040516377607a1760e11b81526020946001600160a01b0392818416918784600481865afa9384156105ac5787946114c2575b5060405163de40657760e01b8152958516948887600481895afa9687156105ea5788976114a3575b50604051630cf35bdd60e41b81526004810186905296811694608088602481895afa978815610a6f57899861147f575b50604051638eb22cdd60e01b98898252826004830152604435938460248401528b60448401528c836064818c5afa968715611474578d938d98611435575b508995949392918d91611324575b50505050506112bb575b5050604080516314890dcb60e21b815233600482018190526024820152606480356044830181905294919350839182908a905af18015610fe05761129d575b5060405163226f120560e11b81528681600481875afa908115610fe057869161126c575b50604051948552600485015260248401528360448401528483606481845afa9081156101d45785938592611233575b50906111fb83926108279461345a565b604051630cb0f5b760e31b81523360048201819052602482015260006044820152606481019190915293849283919082906084820190565b92945092905081813d8311611265575b61124d818361223b565b8101031261018b5751849284929091906111fb6111eb565b503d611243565b809650878092503d8311611296575b611285818361223b565b8101031261018b57869451386111bc565b503d61127b565b6112b59060403d60401161095157610943818361223b565b50611198565b6112c49161345a565b813b156106ca5760405163096f9e0960e21b8152306004820152336024820152600060448201526064810191909152858160848183865af1908115610fe0578691611310575b83611159565b611319906121ef565b61104857843861130a565b95829161136997611337888096336135be565b60405180998196829563095ea7b360e01b845260048401602090939291936001600160a01b0360408201951681520152565b0393165af1928315610a355785936113f2575b5060408051634d4d7cbd60e11b815260048101929092523060248301819052604483015260006064830152608482019390935291828060a481015b03818c8a5af1918215610a6f5786926113d4575b8a818b8161114f565b6113ec9060403d60401161095157610943818361223b565b506113cb565b92508a83813d831161142e575b611409818361223b565b8101031261142a57846040916114216113b7956125b6565b5091509261137c565b8980fd5b503d6113ff565b929c5096509093929184813d811161146d575b611452818361223b565b8101031261018b5792518c9a9095929391928c929089611141565b503d611448565b6040513d8e823e3d90fd5b61149891985060803d8111610a06576109f3818361223b565b505090509638611103565b6114bb919750893d8b11610208576101fa818361223b565b95386110d3565b965092508686813d81116114ed575b6114db818361223b565b8101031261018b5787955192386110ab565b503d6114d1565b503461020f57608036600319011261020f5761150e61215b565b906040519161151c83612203565b60008084526020938401526040805163020a17bd60e61b8152916001600160a01b03919082169083600481845afa9283156101d45784908594611745575b506040519361156885612203565b6001600160801b039182168552168584015260405163de40657760e01b8152928584600481855afa938415610d1b578594611722575b506115ac9060243590612525565b6040516377607a1760e11b8152918683600481845afa928315610fe05786936116f3575b5060405163294c4c7960e11b8152918783600481855afa9283156105ac5790889188946116c0575b50600493611605916124f2565b9160405193848092633ba0b9a960e01b82525afa918215610fe057908794939291879261168c575b5061163e60649392611651926124f2565b61164b84356044356124f2565b90612505565b926040519586948593638eb22cdd60e01b855260048501526024840152876044840152165afa91821561019757916101655750604051908152f35b809392508591953d83116116b9575b6116a5818361223b565b8101031261018b579051869361163e61162d565b503d61169b565b93509083813d81116116ec575b6116d7818361223b565b8101031261018b5791519187906116056115f8565b503d6116cd565b9092508681813d831161171b575b61170b818361223b565b8101031261018b575191386115d0565b503d611701565b6115ac91945061173e90873d8911610208576101fa818361223b565b939061159e565b905061176191935060403d60401161062857610619818361223b565b92903861155a565b5061010036600319011261020f5761177f61215b565b611787612171565b90611790612196565b91611799612187565b9160c435151560c4350361018b578460e43567ffffffffffffffff8111611be8576117c89036906004016121c1565b9190956040519563de40657760e01b87526020876004816001600160a01b0389165afa968715610861578397611bc7575b506040516377607a1760e11b8152916020836004816001600160a01b038a165afa9283156101d4578493611b90575b50604051630cf35bdd60e41b815260048101849052926080846024816001600160a01b038d165afa8015610d1b576001600160a01b03948691611b6e575b5060208a606460405180988193638eb22cdd60e01b835287600484015260443560248401528b6044840152165afa948515610fe0578695611b35575b50836119ff575b5050506118bf6001600160a01b0388168661345a565b156119f957305b6001600160a01b0385163b156106ce5760405163096f9e0960e21b81526001600160a01b0391821660048201529086166024820152600060448201526064810191909152818180608481010381836001600160a01b0389165af18015610a0d576119e5575b505060c435156119da57611976604030945b81516314890dcb60e21b81526001600160a01b039182166004820152908616602482015260648035604483015290928391829190820190565b03818a6001600160a01b0388165af180156105ac576119bc575b5060c43561199c578580f35b6119b3946001600160a01b03606435951693613236565b38808080808580f35b6119d49060403d60401161095157610943818361223b565b50611990565b61197660408461193d565b6119ee906121ef565b6106ca57853861192b565b846118c6565b611a5b6020916001600160a01b0394600014611b2c57611a24335b82604435916135be565b60405163095ea7b360e01b81526001600160a01b03868e161660048201526044803560248301529095869384928b92918491820190565b0393165af1918215610d1b578492611ae8575b5060408051634d4d7cbd60e11b815260048101929092523060248301819052604483015260006064830152608482019290925290818060a481015b0381876001600160a01b038d165af180156101d457611aca575b80806118a9565b611ae29060403d60401161095157610943818361223b565b50611ac3565b91506020823d602011611b24575b81611b036020938361223b565b810103126110485783604091611b1b611aa9946125b6565b50915091611a6e565b3d9150611af6565b611a248b611a1a565b93945094506020833d602011611b66575b81611b536020938361223b565b8101031261018b578a94849351946118a2565b3d9150611b46565b611b86915060803d8111610a06576109f3818361223b565b5050905038611866565b935091506020833d602011611bbf575b81611bad6020938361223b565b8101031261018b578892519138611828565b3d9150611ba0565b611be191975060203d602011610208576101fa818361223b565b95386117f9565b5080fd5b503461020f5760e036600319011261020f57611c0661215b565b611c0e612171565b6084359060443584611c1e612187565b60c43567ffffffffffffffff81116106ce57611c3e9036906004016121c1565b9290966001600160a01b03809116946040519163de40657760e01b835260209283816004818b5afa8015610d1b5782918691611f8c575b50169716916040519163226f120560e11b83528183600481875afa928315610d1b578593611f5d575b5060405163442c159960e01b815283600482015281602482015285604482015282816064818d5afa908115610fe05783908792611f2e575b5060405163f4d9375360e01b815233600482015230602482015260448101939093529091908180606481015b0381898d5af1908115610fe0578391611f05575b505060405163cd0211eb60e01b8152306004820152336024820152600060448201526064803590820152828160848189895af1908115610fe0578691611ed8575b50818110611de8575b5050505082600014611de15730905b803b156106ce5760405163cce19f8160e01b81523360048201526001600160a01b039290921660248301526044820188905282908290606490829084905af18015610a0d57611dcd575b5050611dc3578580f35b6119b39430612fc4565b611dd6906121ef565b6105a0578638611db9565b3390611d6f565b9080929394955003908111611ec45760405190638eb22cdd60e01b825283600483015260248201528a604482015281816064818b5afa918215611eb9578b92611e8b575b5050863b1561142a5760405191630208d92960e11b8352306004840152336024840152604483015260648201528881608481838a5af18015610a6f57611e78575b908180808b94611d60565b611e84909891986121ef565b9638611e6d565b90809250813d8311611eb2575b611ea2818361223b565b8101031261142a57513880611e2c565b503d611e98565b6040513d8d823e3d90fd5b634e487b7160e01b8b52601160045260248bfd5b90508281813d8311611efe575b611eef818361223b565b810103126106ca575138611d57565b503d611ee5565b813d8311611f27575b611f18818361223b565b81010312611048578138611d16565b503d611f0e565b809250813d8311611f56575b611f44818361223b565b810103126106ca575182611d02611cd6565b503d611f3a565b9092508181813d8311611f85575b611f75818361223b565b8101031261104857519138611c9e565b503d611f6b565b611fa39150853d8711610208576101fa818361223b565b38611c75565b823461020f57604036600319011261020f576001600160a01b0380611fcc61215b565b63f9557ccb60e01b85521690604084600481855afa9081156108615783948492612137575b506040519163de40657760e01b83526020958684600481885afa938415610fe05787908795612115575b5060049394956040519485809263226f120560e11b82525afa928315610fe05790879493929187936120dd575b506064929161206f916120676001600160801b038092166024356124f2565b911690612505565b92604051958694859363442c159960e01b855260048501526024840152876044840152165afa9182156101975780926120ad575b5050604051908152f35b9091508282813d83116120d6575b6120c5818361223b565b8101031261020f57505182806120a3565b503d6120bb565b80929350859194953d831161210e575b6120f7818361223b565b810103126106ca575186939290919061206f612048565b503d6120ed565b600494955061213090823d8411610208576101fa818361223b565b949361201b565b909450612153915060403d60401161062857610619818361223b565b909385611ff1565b600435906001600160a01b038216820361018b57565b602435906001600160a01b038216820361018b57565b60a43590811515820361018b57565b60843590811515820361018b57565b60643590811515820361018b57565b3590811515820361018b57565b9181601f8401121561018b5782359167ffffffffffffffff831161018b576020838186019501011161018b57565b67ffffffffffffffff811161069457604052565b6040810190811067ffffffffffffffff82111761069457604052565b6060810190811067ffffffffffffffff82111761069457604052565b90601f8019910116810190811067ffffffffffffffff82111761069457604052565b67ffffffffffffffff81116106945760051b60200190565b60005b8381106122885750506000910152565b8181015183820152602001612278565b906020916122b181518092818552858086019101612275565b601f01601f1916010190565b906001600160a01b03808351168252602083015160208301528060408401511660408301526060830151606083015260808301511660808201526101c061231360a08401516101e08060a0860152840190612298565b9260c081015160c084015260e081015160e08401526123516101008083015190850190602090816001600160801b0391828151168552015116910152565b610120810151610140908185015281015161016090818501528101516101809081850152810151906101a09182850152015191015290565b604051906101c0820182811067ffffffffffffffff82111761069457604052816101a0600091828152826020820152826040820152826060820152826080820152606060a08201528260c08201528260e08201526040516123e981612203565b838152836020820152610100820152826101208201528261014082015282610160820152826101808201520152565b604051906124258261221f565b60006040838281528260208201520152565b60001981146124465760010190565b634e487b7160e01b600052601160045260246000fd5b80518210156124705760209160051b010190565b634e487b7160e01b600052603260045260246000fd5b51906001600160801b038216820361018b57565b919082604091031261018b576124bb60206124b484612486565b9301612486565b90565b519067ffffffffffffffff8216820361018b57565b9081602091031261018b57516001600160a01b038116810361018b5790565b8181029291811591840414171561244657565b811561250f570490565b634e487b7160e01b600052601260045260246000fd5b60208101906001600160801b039081835116156000146125455750505090565b6124bb9382612556925116906124f2565b91511690612505565b51906001600160a01b038216820361018b57565b919082608091031261018b578151600581101561018b57916125976020820161255f565b9160408201516001600160a01b038116810361018b5760609092015190565b5190811515820361018b57565b919082604091031261018b576020825192015190565b6040805163226f120560e11b8152600496956020956001600160a01b039593949093868216939088828c81885afa9182156128d2576000926128a3575b50865163de40657760e01b815289818d81895afa908115612806578c95949392918a91600091612886575b508951630cf35bdd60e41b81529d8e01849052169860808d6024818d5afa90811561287b57858c9d9e60009d9b9c9d93612857575b50612722575b505050506126d89761268d9161345a565b1561271a576000305b865163cd0211eb60e01b81526001600160a01b039091169281019283523360208401526000604084015260608301949094529295869384929091839160800190565b03925af190811561271057506126ec575050565b813d8311612709575b6126ff818361223b565b8101031261018b57565b503d6126f5565b513d6000823e3d90fd5b600033612696565b91818c6000612772958e9f9a809d9f86999a9b9d9f978761274391336135be565b519788968795869363095ea7b360e01b85528401602090939291936001600160a01b0360408201951681520152565b0393165af1801561284c57908a9291612811575b508151634d4d7cbd60e11b815287810193845230602085018190526040850152606084019190915260006080840152918290819060a0015b03816000875af1801561280657928996949261268d926126d89a9997956127ea575b829a82945061267c565b612800908a3d8c1161095157610943818361223b565b506127e0565b88513d6000823e3d90fd5b91508a82813d8311612845575b612828818361223b565b8101031261018b576127be9261283e8b936125b6565b5092612786565b503d61281e565b8a513d6000823e3d90fd5b61287091935060803d8111610a06576109f3818361223b565b505090509138612676565b89513d6000823e3d90fd5b61289d91508c8d3d10610208576101fa818361223b565b38612641565b90918982813d83116128cb575b6128ba818361223b565b8101031261020f5750519038612616565b503d6128b0565b87513d6000823e3d90fd5b67ffffffffffffffff811161069457601f01601f191660200190565b60208183031261018b5780519067ffffffffffffffff821161018b570181601f8201121561018b57805161292c816128dd565b9261293a604051948561223b565b8184526020828401011161018b576124bb9160208085019101612275565b612960612389565b5060409081519061297082612203565b600080835280602080940152612984612389565b845163d8dfeb4560e01b815290956004936001600160a01b039182169286818781875afa908115612d99579083918691612f8c575b5016885286516338d52e0f60e01b815286818781875afa908115612d99579083918691612f54575b50168888015286516307dc0d1d60e41b808252919087818881885afa908115612dfc579084918791612f37575b501660808a015287516374645ff360e01b808252919086818981895afa908115612e22578791612f1d575b5060a08b0152885163473e3ce760e01b815288818981895afa908115612e22578791612ef0575b5060c08b01528851631c9e379b60e01b8152908416878201819052908881602481895afa908115612e22578791612ec3575b5060e08b0152885163020a17bd60e61b815289818981895afa908115612e225787908892612ea3575b508a5191612ac883612203565b6001600160801b03809216835216898201526101008b01528851906324720b1f60e11b8252878201528781602481885afa908115612dfc578691612e76575b506101208a01528751633ba0b9a960e01b815287818881885afa908115612dfc578691612e49575b506101408a0152875182815287818881885afa908115612dfc578691612e2c575b5088519082825286828981895afa918215612e2257918a91612b97938992612e06575b508a878b85519687958694859363eeb8a8d360e01b85528401526024830190612298565b0392165afa908115612dfc578691612dc2575b506101808a0152875191825286828781875afa918215612d99578592612da3575b50875190815284818781875afa908115612d995791612c0f9188938791612d77575b508951948580948193630d39bbef60e41b8352878c8401526024830190612298565b0392165afa908115612d13578391612d4a575b5061016087015284516340626d8b60e01b815284818581855afa908115612d13578391612d1d575b506101a0870152845163226f120560e11b815284818581855afa908115612d1357908592918491612ce2575b50606088015285516377607a1760e11b815293849182905afa938415612cd857508093612ca6575b505082015290565b909180935082813d8311612cd1575b612cbf818361223b565b8101031261020f575051903880612c9e565b503d612cb5565b51903d90823e3d90fd5b8381939492503d8311612d0c575b612cfa818361223b565b810103126106ce579084915138612c76565b503d612cf0565b86513d85823e3d90fd5b90508481813d8311612d43575b612d34818361223b565b810103126106ce575138612c4a565b503d612d2a565b90508481813d8311612d70575b612d61818361223b565b810103126106ce575138612c22565b503d612d57565b612d9391503d8089833e612d8b818361223b565b8101906128f9565b38612bed565b88513d87823e3d90fd5b612dbb919250873d8911610208576101fa818361223b565b9038612bcb565b90508881813d8311612df5575b612dd9818361223b565b810103126106ca5780612dec89926125b6565b50015138612baa565b503d612dcf565b89513d88823e3d90fd5b612e1b9192503d808b833e612d8b818361223b565b9038612b73565b8a513d89823e3d90fd5b612e439150883d8a11610208576101fa818361223b565b38612b50565b90508781813d8311612e6f575b612e60818361223b565b810103126106ca575138612b2f565b503d612e56565b90508781813d8311612e9c575b612e8d818361223b565b810103126106ca575138612b07565b503d612e83565b9050612ebc91508a3d8c1161062857610619818361223b565b9038612abb565b90508881813d8311612ee9575b612eda818361223b565b810103126105a0575138612a92565b503d612ed0565b90508881813d8311612f16575b612f07818361223b565b810103126105a0575138612a60565b503d612efd565b612f3191503d8089833e612d8b818361223b565b38612a39565b612f4e9150893d8b11610208576101fa818361223b565b38612a0e565b809250888092503d8311612f85575b612f6d818361223b565b8101031261104857612f7f839161255f565b386129e1565b503d612f63565b809250888092503d8311612fbd575b612fa5818361223b565b8101031261104857612fb7839161255f565b386129b9565b503d612f9b565b93929095949180156131e55786019360808786031261018b57612fe6876121b4565b91602093848901359361ffff851680950361018b57604096878b01359a60608101359067ffffffffffffffff821161018b57019189601f8401121561018b578235613030816128dd565b9a61303d8b519c8d61223b565b818c5289828601011161018b578089809501858d013760009889918c010152156130f1575050506001600160a01b039081169134156130ea5734905b833b156106ca5786979899836130c48899519b8c98899788966307e76fc160e21b8852166004870152602486015283604486015289606486015260c0608486015260c4850190612298565b911660a483015203925af1918215612cd85750506130df5750565b6130e8906121ef565b565b4790613079565b929750925093948097989350516377607a1760e11b815282816004816001600160a01b03809b165afa9283156131db578894939287928992849561319c575b5050859660a4959651998a9788966311a5cc7760e31b885260048801523060248801521660448601528360648601526084850152165af19081156131915750613177575050565b8161318d92903d1061095157610943818361223b565b5050565b8351903d90823e3d90fd5b93509350939594505081813d83116131d4575b6131b9818361223b565b8101031261104857519192869290918590879060a438613130565b503d6131af565b88513d88823e3d90fd5b60405162461bcd60e51b815260206004820152602360248201527f4d61726b657448656c7065723a2077697468647261774461746120697320656d60448201526270747960e81b6064820152608490fd5b959492959390919360009480156131e5578301966080848903126106ca5761325d846121b4565b9360208101359361ffff851680950361098f57604095868301359260608101359067ffffffffffffffff821161345657018b601f8201121561142a578035906132a5826128dd565b9c828a519e8f906132b6908261223b565b528282016020011161345657818b928e6020808095019101378d0101521561337957506001600160a01b039182169234156133725734915b843b1561336e57836133398a9b9c899a9b99519b8c998a9889976307e76fc160e21b89521660048801526024870152846044870152606486015260c0608486015260c4850190612298565b911660a483015203925af19081156133655750613354575050565b61335e82916121ef565b61020f5750565b513d84823e3d90fd5b8880fd5b47916132ee565b935094939697509490505084519163226f120560e11b83526020836004816001600160a01b038099165afa92831561344b579185918795949360009461340c575b509160009160a49493875198899788966311a5cc7760e31b885260048801523060248801521660448601526064850152826084850152165af1801561340157613177575050565b82513d6000823e3d90fd5b9250939450916020823d602011613443575b8161342b6020938361223b565b8101031261020f5750518593929091859160006133ba565b3d915061341e565b86513d6000823e3d90fd5b8a80fd5b6040805163e985e9c560e01b8082523060048301526001600160a01b0393841660248301819052909594919360209392168385604481845afa80156135b357600095869161357e575b5015613518575b82519687523060048801526001600160a01b039091166024870152939493829085908180604481015b03915afa90811561336557506134e857505050565b82813d8311613511575b6134fc818361223b565b8101031261020f575061350e906125b6565b50565b503d6134f2565b803b1561104857825163a22cb46560e01b8152600481018390526001602482015296858860448183865af1978815613574576134d3979861355d575b509695506134aa565b9561356b86949392976121ef565b95909192613554565b84513d88823e3d90fd5b90508481813d83116135ac575b613595818361223b565b810103126106ca576135a6906125b6565b386134a3565b503d61358b565b83513d6000823e3d90fd5b6040516323b872dd60e01b81526001600160a01b039182166004820152306024820152604481019390935260209183916064918391600091165af190811561368e57600091613655575b501561361057565b60405162461bcd60e51b815260206004820152600f60248201527f7472616e73666572206661696c656400000000000000000000000000000000006044820152606490fd5b906020823d8211613686575b8161366e6020938361223b565b8101031261020f5750613680906125b6565b38613608565b3d9150613661565b6040513d6000823e3d90fdfea2646970667358221220799d15004c4d794964de8724805e438057be4eea57575eee728cf301e5ca5c0064736f6c63430008120033",
  "linkReferences": {},
  "deployedLinkReferences": {}
}