{
  "_format": "hh-sol-artifact-1",
  "contractName": "StargateRouterMock",
  "sourceName": "contracts/mocks/StargateRouterMock.sol",
  "abi": [
    {
      "inputs": [
        {
          "internalType": "contract IERC20",
          "name": "_token",
          "type": "address"
        }
      ],
      "stateMutability": "nonpayable",
      "type": "constructor"
    },
    {
      "inputs": [
        {
          "internalType": "uint16",
          "name": "",
          "type": "uint16"
        },
        {
          "internalType": "uint256",
          "name": "",
          "type": "uint256"
        },
        {
          "internalType": "uint256",
          "name": "",
          "type": "uint256"
        },
        {
          "internalType": "address payable",
          "name": "_refundAddress",
          "type": "address"
        },
        {
          "internalType": "uint256",
          "name": "_amountLD",
          "type": "uint256"
        },
        {
          "internalType": "uint256",
          "name": "",
          "type": "uint256"
        },
        {
          "components": [
            {
              "internalType": "uint256",
              "name": "dstGasForCall",
              "type": "uint256"
            },
            {
              "internalType": "uint256",
              "name": "dstNativeAmount",
              "type": "uint256"
            },
            {
              "internalType": "bytes",
              "name": "dstNativeAddr",
              "type": "bytes"
            }
          ],
          "internalType": "struct IStargateRouterBase.lzTxObj",
          "name": "",
          "type": "tuple"
        },
        {
          "internalType": "bytes",
          "name": "_to",
          "type": "bytes"
        },
        {
          "internalType": "bytes",
          "name": "",
          "type": "bytes"
        }
      ],
      "name": "swap",
      "outputs": [],
      "stateMutability": "payable",
      "type": "function"
    },
    {
      "inputs": [],
      "name": "token",
      "outputs": [
        {
          "internalType": "contract IERC20",
          "name": "",
          "type": "address"
        }
      ],
      "stateMutability": "view",
      "type": "function"
    }
  ],
  "bytecode": "0x60803461007457601f6104d238819003918201601f19168301916001600160401b038311848410176100795780849260209460405283398101031261007457516001600160a01b0381169081900361007457600080546001600160a01b03191691909117905560405161044290816100908239f35b600080fd5b634e487b7160e01b600052604160045260246000fdfe6080604081815260048036101561001557600080fd5b600092833560e01c9182639fbf10fc1461006f57505063fc0c546a1461003a57600080fd5b3461006b578160031936011261006b5773ffffffffffffffffffffffffffffffffffffffff60209254169051908152f35b5080fd5b915091600319926101208436011261038557823561ffff811603610385576064359373ffffffffffffffffffffffffffffffffffffffff918286168096036103815760843560c4359667ffffffffffffffff9384891161035057606090893603011261037d57606083018381108582111761036a578652878701358352602492602098848101358a8301526044810135908682116103665701903660238301121561034c578882013590868211610354578b8951936101378d601f19601f8701160186610389565b8385523688858301011161006b57838b94898f93018388013785010152015260e4358481116103505761016d90369089016103c1565b9190946101043590811161034c576101889036908a016103c1565b5050821561030b57156102a4579088929188116102a05782888682541660648951809481937f23b872dd0000000000000000000000000000000000000000000000000000000083528d339084015230898401528760448401525af180156102965791899695939160449593610279575b5085835416918851998a9788967fa9059cbb0000000000000000000000000000000000000000000000000000000088523516908601528401525af19081156102705750610243578280f35b8161026292903d10610269575b61025a8183610389565b8101906103f4565b5038808280f35b503d610250565b513d85823e3d90fd5b61028f90883d8a116102695761025a8183610389565b50386101f8565b87513d86823e3d90fd5b8280fd5b6084876026858b8a519362461bcd60e51b85528401528201527f53746172676174653a205f726566756e64416464726573732063616e6e6f742060448201527f62652030783000000000000000000000000000000000000000000000000000006064820152fd5b6064886017868c8b519362461bcd60e51b85528401528201527f53746172676174653a2063616e6e6f74207377617020300000000000000000006044820152fd5b8a80fd5b8980fd5b858c60418c634e487b7160e01b835252fd5b8b80fd5b60248a60418a634e487b7160e01b835252fd5b8880fd5b8680fd5b8480fd5b90601f8019910116810190811067ffffffffffffffff8211176103ab57604052565b634e487b7160e01b600052604160045260246000fd5b9181601f840112156103ef5782359167ffffffffffffffff83116103ef57602083818601950101116103ef57565b600080fd5b908160209103126103ef575180151581036103ef579056fea26469706673582212200afd4a3624965b4eb746276ec8b1d9db462249a7658fbafee9163b0a776bbe7564736f6c63430008120033",
  "linkReferences": {},
  "deployedLinkReferences": {}
}