{
  "_format": "hh-sol-artifact-1",
  "contractName": "ERC20WithoutStrategy",
  "sourceName": "contracts/strategies/ERC20WithoutStrategy.sol",
  "abi": [
    {
      "inputs": [
        {
          "internalType": "contract IYieldBox",
          "name": "_yieldBox",
          "type": "address"
        },
        {
          "internalType": "contract IERC20",
          "name": "token",
          "type": "address"
        }
      ],
      "stateMutability": "nonpayable",
      "type": "constructor"
    },
    {
      "inputs": [],
      "name": "cheapWithdrawable",
      "outputs": [
        {
          "internalType": "uint256",
          "name": "amount",
          "type": "uint256"
        }
      ],
      "stateMutability": "view",
      "type": "function"
    },
    {
      "inputs": [],
      "name": "contractAddress",
      "outputs": [
        {
          "internalType": "address",
          "name": "",
          "type": "address"
        }
      ],
      "stateMutability": "view",
      "type": "function"
    },
    {
      "inputs": [],
      "name": "currentBalance",
      "outputs": [
        {
          "internalType": "uint256",
          "name": "amount",
          "type": "uint256"
        }
      ],
      "stateMutability": "view",
      "type": "function"
    },
    {
      "inputs": [
        {
          "internalType": "uint256",
          "name": "amount",
          "type": "uint256"
        }
      ],
      "name": "deposited",
      "outputs": [],
      "stateMutability": "nonpayable",
      "type": "function"
    },
    {
      "inputs": [],
      "name": "description",
      "outputs": [
        {
          "internalType": "string",
          "name": "",
          "type": "string"
        }
      ],
      "stateMutability": "view",
      "type": "function"
    },
    {
      "inputs": [],
      "name": "name",
      "outputs": [
        {
          "internalType": "string",
          "name": "",
          "type": "string"
        }
      ],
      "stateMutability": "view",
      "type": "function"
    },
    {
      "inputs": [],
      "name": "tokenId",
      "outputs": [
        {
          "internalType": "uint256",
          "name": "",
          "type": "uint256"
        }
      ],
      "stateMutability": "view",
      "type": "function"
    },
    {
      "inputs": [],
      "name": "tokenType",
      "outputs": [
        {
          "internalType": "enum TokenType",
          "name": "",
          "type": "uint8"
        }
      ],
      "stateMutability": "view",
      "type": "function"
    },
    {
      "inputs": [
        {
          "internalType": "address",
          "name": "to",
          "type": "address"
        },
        {
          "internalType": "uint256",
          "name": "amount",
          "type": "uint256"
        }
      ],
      "name": "withdraw",
      "outputs": [],
      "stateMutability": "nonpayable",
      "type": "function"
    },
    {
      "inputs": [],
      "name": "withdrawable",
      "outputs": [
        {
          "internalType": "uint256",
          "name": "amount",
          "type": "uint256"
        }
      ],
      "stateMutability": "view",
      "type": "function"
    },
    {
      "inputs": [],
      "name": "yieldBox",
      "outputs": [
        {
          "internalType": "contract IYieldBox",
          "name": "",
          "type": "address"
        }
      ],
      "stateMutability": "view",
      "type": "function"
    }
  ],
  "bytecode": "0x60c060405234801561001057600080fd5b5060405161093d38038061093d83398101604081905261002f9161005e565b6001600160a01b039182166080521660a052610098565b6001600160a01b038116811461005b57600080fd5b50565b6000806040838503121561007157600080fd5b825161007c81610046565b602084015190925061008d81610046565b809150509250929050565b60805160a0516108646100d9600039600081816101cc0152818161036d01526103ad01526000818161016d0152818161021501526102bc01526108646000f3fe608060405234801561001057600080fd5b50600436106100c95760003560e01c8063afa91cc611610081578063e3575f051161005b578063e3575f051461014b578063f3fef3a3146101b4578063f6b4dfb4146101c757600080fd5b8063afa91cc614610153578063ce845d1d1461014b578063de4065771461016857600080fd5b806330fa738c116100b257806330fa738c14610136578063501883011461014b5780637284e416146100ce57600080fd5b806306fdde03146100ce57806317d70f7c14610120575b600080fd5b61010a6040518060400160405280600b81526020017f4e6f20737472617465677900000000000000000000000000000000000000000081525081565b60405161011791906106e0565b60405180910390f35b610128600081565b604051908152602001610117565b61013e600181565b6040516101179190610731565b6101286101ee565b610166610161366004610772565b6101fd565b005b61018f7f000000000000000000000000000000000000000000000000000000000000000081565b60405173ffffffffffffffffffffffffffffffffffffffff9091168152602001610117565b6101666101c236600461078b565b6102a4565b61018f7f000000000000000000000000000000000000000000000000000000000000000081565b60006101f8610351565b905090565b3373ffffffffffffffffffffffffffffffffffffffff7f000000000000000000000000000000000000000000000000000000000000000016146102a1576040517f08c379a000000000000000000000000000000000000000000000000000000000815260206004820152600c60248201527f4e6f74205969656c64426f78000000000000000000000000000000000000000060448201526064015b60405180910390fd5b50565b3373ffffffffffffffffffffffffffffffffffffffff7f00000000000000000000000000000000000000000000000000000000000000001614610343576040517f08c379a000000000000000000000000000000000000000000000000000000000815260206004820152600c60248201527f4e6f74205969656c64426f7800000000000000000000000000000000000000006044820152606401610298565b61034d8282610393565b5050565b60006101f873ffffffffffffffffffffffffffffffffffffffff7f000000000000000000000000000000000000000000000000000000000000000016306103d4565b61034d73ffffffffffffffffffffffffffffffffffffffff7f0000000000000000000000000000000000000000000000000000000000000000168383610540565b6040805173ffffffffffffffffffffffffffffffffffffffff83811660248084019190915283518084039091018152604490920183526020820180517bffffffffffffffffffffffffffffffffffffffffffffffffffffffff167f70a08231000000000000000000000000000000000000000000000000000000001790529151600092839283929187169161046991906107d0565b600060405180830381855afa9150503d80600081146104a4576040519150601f19603f3d011682016040523d82523d6000602084013e6104a9565b606091505b50915091508180156104bd57506020815110155b610523576040517f08c379a000000000000000000000000000000000000000000000000000000000815260206004820152601d60248201527f426f72696e6745524332303a2042616c616e63654f66206661696c65640000006044820152606401610298565b8080602001905181019061053791906107ec565b95945050505050565b6040805173ffffffffffffffffffffffffffffffffffffffff8481166024830152604480830185905283518084039091018152606490920183526020820180517bffffffffffffffffffffffffffffffffffffffffffffffffffffffff167fa9059cbb0000000000000000000000000000000000000000000000000000000017905291516000928392908716916105d791906107d0565b6000604051808303816000865af19150503d8060008114610614576040519150601f19603f3d011682016040523d82523d6000602084013e610619565b606091505b50915091508180156106435750805115806106435750808060200190518101906106439190610805565b6106a9576040517f08c379a000000000000000000000000000000000000000000000000000000000815260206004820152601c60248201527f426f72696e6745524332303a205472616e73666572206661696c6564000000006044820152606401610298565b5050505050565b60005b838110156106cb5781810151838201526020016106b3565b838111156106da576000848401525b50505050565b60208152600082518060208401526106ff8160408501602087016106b0565b601f017fffffffffffffffffffffffffffffffffffffffffffffffffffffffffffffffe0169190910160400192915050565b602081016005831061076c577f4e487b7100000000000000000000000000000000000000000000000000000000600052602160045260246000fd5b91905290565b60006020828403121561078457600080fd5b5035919050565b6000806040838503121561079e57600080fd5b823573ffffffffffffffffffffffffffffffffffffffff811681146107c257600080fd5b946020939093013593505050565b600082516107e28184602087016106b0565b9190910192915050565b6000602082840312156107fe57600080fd5b5051919050565b60006020828403121561081757600080fd5b8151801515811461082757600080fd5b939250505056fea2646970667358221220ba51350e3be8f4c0f4504228e5702cb1dd816634cc71871ca67a9e88dc90229264736f6c63430008090033",
  "linkReferences": {},
  "deployedLinkReferences": {}
}