{
  "_format": "hh-sol-artifact-1",
  "contractName": "AssetTotsDaiLeverageExecutor",
  "sourceName": "contracts/markets/leverage/AssetTotsDaiLeverageExecutor.sol",
  "abi": [
    {
      "inputs": [
        {
          "internalType": "contract YieldBox",
          "name": "_yb",
          "type": "address"
        },
        {
          "internalType": "contract ISwapper",
          "name": "_swapper",
          "type": "address"
        },
        {
          "internalType": "contract ICluster",
          "name": "_cluster",
          "type": "address"
        }
      ],
      "stateMutability": "nonpayable",
      "type": "constructor"
    },
    {
      "inputs": [
        {
          "internalType": "address",
          "name": "token",
          "type": "address"
        }
      ],
      "name": "NotEnough",
      "type": "error"
    },
    {
      "inputs": [],
      "name": "SenderNotValid",
      "type": "error"
    },
    {
      "inputs": [],
      "name": "SwapperNotAuthorized",
      "type": "error"
    },
    {
      "inputs": [],
      "name": "SwapperNotValid",
      "type": "error"
    },
    {
      "inputs": [],
      "name": "TokenNotValid",
      "type": "error"
    },
    {
      "anonymous": false,
      "inputs": [
        {
          "indexed": true,
          "internalType": "address",
          "name": "previousOwner",
          "type": "address"
        },
        {
          "indexed": true,
          "internalType": "address",
          "name": "newOwner",
          "type": "address"
        }
      ],
      "name": "OwnershipTransferred",
      "type": "event"
    },
    {
      "inputs": [
        {
          "internalType": "address",
          "name": "tokenIn",
          "type": "address"
        },
        {
          "internalType": "address",
          "name": "tokenOut",
          "type": "address"
        },
        {
          "internalType": "uint256",
          "name": "amountIn",
          "type": "uint256"
        }
      ],
      "name": "buildSwapDefaultData",
      "outputs": [
        {
          "internalType": "bytes",
          "name": "",
          "type": "bytes"
        }
      ],
      "stateMutability": "view",
      "type": "function"
    },
    {
      "inputs": [],
      "name": "claimOwnership",
      "outputs": [],
      "stateMutability": "nonpayable",
      "type": "function"
    },
    {
      "inputs": [],
      "name": "cluster",
      "outputs": [
        {
          "internalType": "contract ICluster",
          "name": "",
          "type": "address"
        }
      ],
      "stateMutability": "view",
      "type": "function"
    },
    {
      "inputs": [
        {
          "internalType": "uint256",
          "name": "assetId",
          "type": "uint256"
        },
        {
          "internalType": "address",
          "name": "collateralAddress",
          "type": "address"
        },
        {
          "internalType": "address",
          "name": "assetAddress",
          "type": "address"
        },
        {
          "internalType": "uint256",
          "name": "collateralAmountIn",
          "type": "uint256"
        },
        {
          "internalType": "address",
          "name": "from",
          "type": "address"
        },
        {
          "internalType": "bytes",
          "name": "data",
          "type": "bytes"
        }
      ],
      "name": "getAsset",
      "outputs": [
        {
          "internalType": "uint256",
          "name": "assetAmountOut",
          "type": "uint256"
        }
      ],
      "stateMutability": "nonpayable",
      "type": "function"
    },
    {
      "inputs": [
        {
          "internalType": "uint256",
          "name": "collateralId",
          "type": "uint256"
        },
        {
          "internalType": "address",
          "name": "assetAddress",
          "type": "address"
        },
        {
          "internalType": "address",
          "name": "collateralAddress",
          "type": "address"
        },
        {
          "internalType": "uint256",
          "name": "assetAmountIn",
          "type": "uint256"
        },
        {
          "internalType": "address",
          "name": "from",
          "type": "address"
        },
        {
          "internalType": "bytes",
          "name": "data",
          "type": "bytes"
        }
      ],
      "name": "getCollateral",
      "outputs": [
        {
          "internalType": "uint256",
          "name": "collateralAmountOut",
          "type": "uint256"
        }
      ],
      "stateMutability": "payable",
      "type": "function"
    },
    {
      "inputs": [],
      "name": "owner",
      "outputs": [
        {
          "internalType": "address",
          "name": "",
          "type": "address"
        }
      ],
      "stateMutability": "view",
      "type": "function"
    },
    {
      "inputs": [],
      "name": "pendingOwner",
      "outputs": [
        {
          "internalType": "address",
          "name": "",
          "type": "address"
        }
      ],
      "stateMutability": "view",
      "type": "function"
    },
    {
      "inputs": [
        {
          "internalType": "contract ICluster",
          "name": "_cluster",
          "type": "address"
        }
      ],
      "name": "setCluster",
      "outputs": [],
      "stateMutability": "nonpayable",
      "type": "function"
    },
    {
      "inputs": [
        {
          "internalType": "contract ISwapper",
          "name": "_swapper",
          "type": "address"
        }
      ],
      "name": "setSwapper",
      "outputs": [],
      "stateMutability": "nonpayable",
      "type": "function"
    },
    {
      "inputs": [],
      "name": "swapper",
      "outputs": [
        {
          "internalType": "contract ISwapper",
          "name": "",
          "type": "address"
        }
      ],
      "stateMutability": "view",
      "type": "function"
    },
    {
      "inputs": [
        {
          "internalType": "address",
          "name": "newOwner",
          "type": "address"
        },
        {
          "internalType": "bool",
          "name": "direct",
          "type": "bool"
        },
        {
          "internalType": "bool",
          "name": "renounce",
          "type": "bool"
        }
      ],
      "name": "transferOwnership",
      "outputs": [],
      "stateMutability": "nonpayable",
      "type": "function"
    },
    {
      "inputs": [],
      "name": "yieldBox",
      "outputs": [
        {
          "internalType": "contract YieldBox",
          "name": "",
          "type": "address"
        }
      ],
      "stateMutability": "view",
      "type": "function"
    }
  ],
  "bytecode": "0x60a0346100e957601f61165438819003918201601f19168301916001600160401b038311848410176100ee578084926060946040528339810103126100e9578051906001600160a01b039081831683036100e9576020810151908282168092036100e957604001519182168092036100e95760008054604051946001600160a01b03199491851693919233907f8be0079c531659141344cd1fd0a4f28419497f9722a3daafe3b4186f6b6457e08180a360805283600354161760035582600254161760025533913316171760005561154f908161010582396080518181816102a40152610df70152f35b600080fd5b634e487b7160e01b600052604160045260246000fdfe6040608081526004908136101561001557600080fd5b600091823560e01c908163078dfbe714610ac05781630fb5d60d146108745781632b3297f91461084b578163437be622146107ff5781634e71e0c81461074c5781638da5cb5b146107245781639c82f2a4146106d8578163c990ad1c146102fc578163dbd01de1146102d3578163de4065771461028f578163e2211658146100d2575063e30c3978146100a757600080fd5b346100ce57816003193601126100ce5760015490516001600160a01b039091168152602090f35b5080fd5b9050823461028c57606036600319011261028c576100ee610bce565b602435936001600160a01b03939091908486168603610227578251958387018781106001600160401b038211176102775784526002875260209561060f60f31b878901526003541690845190631fd177af60e11b8252818061015b6101409788946044359189850161119b565b0381855afa93841561026d579087939291879561023e575b505061018f8551948593630b7ecdc960e31b85528401906111d2565b61016061014483015281806101a861016482018b610c64565b03915afa92831561023357926101fd575b506101ea6101f9926101dc83519687928784015284808401526060830190610c64565b03601f198101865285610d33565b51928284938452830190610c64565b0390f35b91508282813d831161022c575b6102148183610d33565b81010312610227579051906101ea6101b9565b600080fd5b503d61020a565b8251903d90823e3d90fd5b61025e929550803d10610266575b6102568183610d33565b8101906110a7565b928880610173565b503d61024c565b85513d88823e3d90fd5b604183634e487b7160e01b6000525260246000fd5b80fd5b5050346100ce57816003193601126100ce57517f00000000000000000000000000000000000000000000000000000000000000006001600160a01b03168152602090f35b5050346100ce57816003193601126100ce5760025490516001600160a01b039091168152602090f35b838361030736610be4565b979193929098600160a09796971b600190039687600254169289519a633a304d8b60e21b8c5285848d01528b602495338783015260209d8e91815a91604492fa9081156106ce578791610695575b50156106855761038a9b9c6103749161036c611467565b810190610d61565b81610381899e939e610fb1565b8095919661123e565b9a8b1061066c57895163095ea7b360e01b8082528a84168583018190528683018890529390928b16918e816044818b875af1801561066257928f928f928f95908b9161061a575b5094518681526001600160a01b03909116888201908152602081019390935293849283919082906040015b03925af180156105a3576105e6575b5089519a636e553f6560e01b8c52838c015230848c01528b8b60448188865af19a8b156105dc57859b6105ad575b50895198818a52861698898482015285858201528c8160448189875af180156105a357918c918e93610560575b508b519081526001600160a01b03881685820190815260208101929092529283918290889082906040015b03925af180156105565761051e575b50863b1561051a579060648392838a51998a948593630c46aac760e31b8552309085015230908401528c60448401525af1801561050e57908792916104f1575b506104eb9450610de7565b51908152f35b91509192936105008291610cef565b61028c5783929186916104e0565b508551903d90823e3d90fd5b8280fd5b8a81813d831161054f575b6105338183610d33565b8101031261054b5761054490610d54565b508a6104a0565b8380fd5b503d610529565b89513d86823e3d90fd5b8092508391933d831161059c575b6105788183610d33565b8101031261059857610491928d926105908e93610d54565b509093610466565b8580fd5b503d61056e565b8b513d88823e3d90fd5b909a508b81813d83116105d5575b6105c58183610d33565b810103126102275751998c610439565b503d6105bb565b8a513d87823e3d90fd5b8c81813d8311610613575b6105fb8183610d33565b810103126105985761060c90610d54565b508c61040b565b503d6105f1565b9350509290935081813d831161065b575b6106358183610d33565b81010312610657576103fc928f928f928f6106508c92610d54565b50956103d1565b8780fd5b503d61062b565b8d513d8a823e3d90fd5b89516328e217f560e01b81529089169281019290925250fd5b8a516303482c7160e21b81528490fd5b90508c81813d83116106c7575b6106ac8183610d33565b810103126106c3576106bd90610d54565b8e610355565b8680fd5b503d6106a2565b8c513d89823e3d90fd5b8390346100ce5760203660031901126100ce57356001600160a01b038181169182900361051a5761070d908354163314610ca4565b600380546001600160a01b03191691909117905580f35b5050346100ce57816003193601126100ce57905490516001600160a01b039091168152602090f35b9190503461051a578260031936011261051a576001546001600160a01b039290918383169190338390036107bc5750508084549384167f8be0079c531659141344cd1fd0a4f28419497f9722a3daafe3b4186f6b6457e08680a36001600160a01b03199283161783551660015580f35b906020606492519162461bcd60e51b8352820152602060248201527f4f776e61626c653a2063616c6c657220213d2070656e64696e67206f776e65726044820152fd5b8390346100ce5760203660031901126100ce57356001600160a01b038181169182900361051a57610834908354163314610ca4565b600280546001600160a01b03191691909117905580f35b5050346100ce57816003193601126100ce5760035490516001600160a01b039091168152602090f35b8383346100ce5761088436610be4565b989290919497600160a01b600190039283600254169a8951809c633a304d8b60e21b8252848883015233602483015260209d8e91815a91604492fa908115610ab6578491610a81575b5015610a7157849392916108e39161036c611467565b92909a6108ef81610fb1565b95909116803b1561054b578b516339f4769360e01b815230818a01908152602081018590529091859183919082908490829060400103925af18015610a675790879291610a54575b5016908a51906363737ac960e11b8252878201528c81602481855afa908115610a4a57918d9184938491610a15575b506064908d519485938492635d043b2960e11b84528c8401523060248401523060448401525af1918215610a0a578b92918891926109d6575b506109a99461123e565b9687106109be57505090846104eb9392610de7565b85516328e217f560e01b815292169082015260249150fd5b925050508a81813d8311610a03575b6109ef8183610d33565b8101031261022757518990866109a961099f565b503d6109e5565b8a51903d90823e3d90fd5b92809294508391503d8311610a43575b610a2f8183610d33565b81010312610227575182918d916064610966565b503d610a25565b8b513d85823e3d90fd5b610a6090949194610cef565b928e610937565b8c513d86823e3d90fd5b89516303482c7160e21b81528690fd5b90508c81813d8311610aaf575b610a988183610d33565b8101031261054b57610aa990610d54565b8d6108cd565b503d610a8e565b8b513d86823e3d90fd5b9190503461051a57606036600319011261051a57610adc610bce565b91602435918215158303610bca576044359283151584036105985760018060a01b03948591610b0f838954163314610ca4565b15610bb1571692831590811591610ba9575b5015610b6e5750508083549283167f8be0079c531659141344cd1fd0a4f28419497f9722a3daafe3b4186f6b6457e08580a36001600160a01b031991821617825560018054909116905580f35b906020606492519162461bcd60e51b835282015260156024820152744f776e61626c653a207a65726f206164647265737360581b6044820152fd5b905038610b21565b93505050501660018060a01b0319600154161760015580f35b8480fd5b600435906001600160a01b038216820361022757565b9060c060031983011261022757600435916001600160a01b036024358181168103610227579260443582811681036102275792606435926084359081168103610227579160a4356001600160401b039283821161022757806023830112156102275781600401359384116102275760248483010111610227576024019190565b919082519283825260005b848110610c90575050826000602080949584010152601f8019910116010190565b602081830181015184830182015201610c6f565b15610cab57565b606460405162461bcd60e51b815260206004820152602060248201527f4f776e61626c653a2063616c6c6572206973206e6f7420746865206f776e65726044820152fd5b6001600160401b038111610d0257604052565b634e487b7160e01b600052604160045260246000fd5b608081019081106001600160401b03821117610d0257604052565b90601f801991011681019081106001600160401b03821117610d0257604052565b5190811515820361022757565b9190604083820312610227578235926020808201356001600160401b039283821161022757019183601f84011215610227578235908111610d025760405193610db3601f8301601f1916840186610d33565b81855282828501011161022757808260009401838601378301015290565b9190826040910312610227576020825192015190565b919060018060a01b0380931691837f0000000000000000000000000000000000000000000000000000000000000000169460409586519363095ea7b360e01b9586865282600487015260009687602488015260209687816044818c875af18015610f935790889291610f58575b508a519081526001600160a01b03851660048201526024810184905291829060449082908b905af18015610f4e579189959493918893610f0a575b508560a495969750519889968795634d4d7cbd60e11b8752600487015230602487015216604485015260648401528160848401525af1908115610eff5750610ed5575050565b81610ef492903d10610ef8575b610eec8183610d33565b810190610dd1565b5050565b503d610ee2565b8351903d90823e3d90fd5b9250929450929481813d8311610f47575b610f258183610d33565b810103126105985760a49288959492610f3e8893610d54565b50869594610e8f565b503d610f1b565b89513d89823e3d90fd5b909181813d8311610f8c575b610f6e8183610d33565b81010312610f885790610f818892610d54565b5038610e54565b8880fd5b503d610f64565b8b513d8b823e3d90fd5b51906001600160a01b038216820361022757565b604051633c2f4f4360e11b815291906020906001600160a01b039082908590600490829085165afa93841561105257600094611070575b50831690811561105e57806004926040519384809263f4b9fa7560e01b82525afa9081156110525760009161101e575b50905090565b82813d831161104b575b6110328183610d33565b8101031261028c575061104490610f9d565b8038611018565b503d611028565b6040513d6000823e3d90fd5b6040516358700a0160e11b8152600490fd5b90938282813d83116110a0575b6110878183610d33565b8101031261028c575061109990610f9d565b9238610fe8565b503d61107d565b80910361014081126102275760408051926001600160401b03926060850184811186821017610d025780845260808212610227576110e481610d18565b6110ed83610f9d565b815260208301516080870152611104848401610f9d565b60a0870152606083015160c087015285526080607f19820112610227578290815161112e81610d18565b6080840151815260a0840151602082015260c08401518382015260e08401516060820152602087015260ff1901126102275781519283830190811184821017610d0257611190916101209184526111886101008201610d54565b855201610d54565b602083015282015290565b6001600160a01b0391821681529116602082015260408101919091526000606082018190526080820181905260a082015260c00190565b60206040610120926060815160018060a01b03808251168852858201518689015284820151168488015201516060860152606083820151805160808801528481015160a08801528381015160c0880152015160e086015201518051151561010085015201511515910152565b918095949293919360018060a01b0390816003541690604096875190631fd177af60e11b82528180611279610140988994876004850161119b565b0381865afa94851561145c57600095611439575b505082169788611328575b50508495965060006112cc9160039695965416926112ed86519788968795869463efa84c6d60e01b865260048601906111d2565b610144840152306101648401526101a06101848401526101a4830190610c64565b03925af191821561131e5760009261130457505090565b61131a9250803d10610ef857610eec8183610d33565b5090565b513d6000823e3d90fd5b86519863095ea7b360e01b92838b5260048b0152600060248b01526020998a816044816000865af1801561142e57908b9392916113f5575b50600354895194855285166001600160a01b031660048501526024840191909152829081600081604481015b03925af19788156113ea578697989695966113ad575b889750959495611298565b90809550813d83116113e3575b6113c48183610d33565b810103126102275760006112cc916113dc8896610d54565b50916113a2565b503d6113ba565b86513d6000823e3d90fd5b9283813d8311611427575b61140a8183610d33565b810103126102275761138c936114208c94610d54565b5093611360565b503d611400565b89513d6000823e3d90fd5b84929550908161145492903d10610266576102568183610d33565b93903861128d565b88513d6000823e3d90fd5b6003546001600160a01b03908116908115611507576020906002541691604460405180948193633a304d8b60e21b83526000600484015260248301525afa908115611052576000916114ce575b50156114bc57565b60405163086a95e160e21b8152600490fd5b906020823d82116114ff575b816114e760209383610d33565b8101031261028c57506114f990610d54565b386114b4565b3d91506114da565b604051631da137b560e01b8152600490fdfea2646970667358221220736451cf363e5524213830d6b2588525159c2b792545304225a7cd678ca8fc3a64736f6c63430008120033",
  "linkReferences": {},
  "deployedLinkReferences": {}
}