{
  "_format": "hh-sol-artifact-1",
  "contractName": "AssetToWstethLeverageExecutor",
  "sourceName": "contracts/markets/leverage/AssetToWstethLeverageExecutor.sol",
  "abi": [
    {
      "inputs": [
        {
          "internalType": "contract YieldBox",
          "name": "_yb",
          "type": "address"
        },
        {
          "internalType": "contract ISwapper",
          "name": "_swapper",
          "type": "address"
        },
        {
          "internalType": "contract ICluster",
          "name": "_cluster",
          "type": "address"
        },
        {
          "internalType": "address",
          "name": "_weth",
          "type": "address"
        },
        {
          "internalType": "address",
          "name": "_balancerVault",
          "type": "address"
        },
        {
          "internalType": "bytes32",
          "name": "_balancerPoolId",
          "type": "bytes32"
        }
      ],
      "stateMutability": "nonpayable",
      "type": "constructor"
    },
    {
      "inputs": [],
      "name": "Failed",
      "type": "error"
    },
    {
      "inputs": [
        {
          "internalType": "address",
          "name": "token",
          "type": "address"
        }
      ],
      "name": "NotEnough",
      "type": "error"
    },
    {
      "inputs": [],
      "name": "SenderNotValid",
      "type": "error"
    },
    {
      "inputs": [],
      "name": "SwapperNotAuthorized",
      "type": "error"
    },
    {
      "inputs": [],
      "name": "SwapperNotValid",
      "type": "error"
    },
    {
      "inputs": [],
      "name": "TokenNotValid",
      "type": "error"
    },
    {
      "anonymous": false,
      "inputs": [
        {
          "indexed": true,
          "internalType": "address",
          "name": "previousOwner",
          "type": "address"
        },
        {
          "indexed": true,
          "internalType": "address",
          "name": "newOwner",
          "type": "address"
        }
      ],
      "name": "OwnershipTransferred",
      "type": "event"
    },
    {
      "inputs": [
        {
          "internalType": "address",
          "name": "tokenIn",
          "type": "address"
        },
        {
          "internalType": "address",
          "name": "tokenOut",
          "type": "address"
        },
        {
          "internalType": "uint256",
          "name": "amountIn",
          "type": "uint256"
        }
      ],
      "name": "buildSwapDefaultData",
      "outputs": [
        {
          "internalType": "bytes",
          "name": "",
          "type": "bytes"
        }
      ],
      "stateMutability": "view",
      "type": "function"
    },
    {
      "inputs": [],
      "name": "claimOwnership",
      "outputs": [],
      "stateMutability": "nonpayable",
      "type": "function"
    },
    {
      "inputs": [],
      "name": "cluster",
      "outputs": [
        {
          "internalType": "contract ICluster",
          "name": "",
          "type": "address"
        }
      ],
      "stateMutability": "view",
      "type": "function"
    },
    {
      "inputs": [
        {
          "internalType": "uint256",
          "name": "assetId",
          "type": "uint256"
        },
        {
          "internalType": "address",
          "name": "collateralAddress",
          "type": "address"
        },
        {
          "internalType": "address",
          "name": "assetAddress",
          "type": "address"
        },
        {
          "internalType": "uint256",
          "name": "collateralAmountIn",
          "type": "uint256"
        },
        {
          "internalType": "address",
          "name": "to",
          "type": "address"
        },
        {
          "internalType": "bytes",
          "name": "data",
          "type": "bytes"
        }
      ],
      "name": "getAsset",
      "outputs": [
        {
          "internalType": "uint256",
          "name": "assetAmountOut",
          "type": "uint256"
        }
      ],
      "stateMutability": "nonpayable",
      "type": "function"
    },
    {
      "inputs": [
        {
          "internalType": "uint256",
          "name": "collateralId",
          "type": "uint256"
        },
        {
          "internalType": "address",
          "name": "assetAddress",
          "type": "address"
        },
        {
          "internalType": "address",
          "name": "collateralAddress",
          "type": "address"
        },
        {
          "internalType": "uint256",
          "name": "assetAmountIn",
          "type": "uint256"
        },
        {
          "internalType": "address",
          "name": "to",
          "type": "address"
        },
        {
          "internalType": "bytes",
          "name": "data",
          "type": "bytes"
        }
      ],
      "name": "getCollateral",
      "outputs": [
        {
          "internalType": "uint256",
          "name": "collateralAmountOut",
          "type": "uint256"
        }
      ],
      "stateMutability": "payable",
      "type": "function"
    },
    {
      "inputs": [],
      "name": "owner",
      "outputs": [
        {
          "internalType": "address",
          "name": "",
          "type": "address"
        }
      ],
      "stateMutability": "view",
      "type": "function"
    },
    {
      "inputs": [],
      "name": "pendingOwner",
      "outputs": [
        {
          "internalType": "address",
          "name": "",
          "type": "address"
        }
      ],
      "stateMutability": "view",
      "type": "function"
    },
    {
      "inputs": [],
      "name": "poolId",
      "outputs": [
        {
          "internalType": "bytes32",
          "name": "",
          "type": "bytes32"
        }
      ],
      "stateMutability": "view",
      "type": "function"
    },
    {
      "inputs": [
        {
          "internalType": "contract ICluster",
          "name": "_cluster",
          "type": "address"
        }
      ],
      "name": "setCluster",
      "outputs": [],
      "stateMutability": "nonpayable",
      "type": "function"
    },
    {
      "inputs": [
        {
          "internalType": "contract ISwapper",
          "name": "_swapper",
          "type": "address"
        }
      ],
      "name": "setSwapper",
      "outputs": [],
      "stateMutability": "nonpayable",
      "type": "function"
    },
    {
      "inputs": [],
      "name": "swapper",
      "outputs": [
        {
          "internalType": "contract ISwapper",
          "name": "",
          "type": "address"
        }
      ],
      "stateMutability": "view",
      "type": "function"
    },
    {
      "inputs": [
        {
          "internalType": "address",
          "name": "newOwner",
          "type": "address"
        },
        {
          "internalType": "bool",
          "name": "direct",
          "type": "bool"
        },
        {
          "internalType": "bool",
          "name": "renounce",
          "type": "bool"
        }
      ],
      "name": "transferOwnership",
      "outputs": [],
      "stateMutability": "nonpayable",
      "type": "function"
    },
    {
      "inputs": [],
      "name": "vault",
      "outputs": [
        {
          "internalType": "contract IBalancerVault",
          "name": "",
          "type": "address"
        }
      ],
      "stateMutability": "view",
      "type": "function"
    },
    {
      "inputs": [],
      "name": "weth",
      "outputs": [
        {
          "internalType": "address",
          "name": "",
          "type": "address"
        }
      ],
      "stateMutability": "view",
      "type": "function"
    },
    {
      "inputs": [],
      "name": "yieldBox",
      "outputs": [
        {
          "internalType": "contract YieldBox",
          "name": "",
          "type": "address"
        }
      ],
      "stateMutability": "view",
      "type": "function"
    },
    {
      "stateMutability": "payable",
      "type": "receive"
    }
  ],
  "bytecode": "0x60c0346200013957601f6200171a38819003918201601f19168301916001600160401b038311848410176200013e5780849260c09460405283398101031262000139578051906001600160a01b03908183168303620001395760208101519180831680930362000139576040820151918183168093036200013957620000886060820162000154565b60a0620000986080840162000154565b9201519460018060a01b031994856000541691604051983360007f8be0079c531659141344cd1fd0a4f28419497f9722a3daafe3b4186f6b6457e08180a36080528660035416176003558560025416176002553390853316171760005560a052169060045416176004556005556115b090816200016a82396080518181816102e201526112e5015260a0518181816103d20152818161074201526108c80152f35b600080fd5b634e487b7160e01b600052604160045260246000fd5b51906001600160a01b0382168203620001395756fe60406080815260049081361015610020575b5050361561001e57600080fd5b005b600091823560e01c8063078dfbe714610a0b5780630fb5d60d146107b95780632b3297f9146107905780633e0dc34e146107715780633fc8cef31461072d578063437be622146106e15780634e71e0c81461062f5780638da5cb5b146106075780639c82f2a4146105bb578063c990ad1c1461033a578063dbd01de114610311578063de406577146102cd578063e221165814610129578063e30c3978146100fc5763fbfa77cf146100d25750610011565b346100f857826003193601126100f8575490516001600160a01b03909116815260209150f35b8280fd5b50503461012557816003193601126101255760015490516001600160a01b039091168152602090f35b5080fd5b5091346102ca5760603660031901126102ca57610144610b18565b6001600160a01b0393909290602435858116810361027a57610164610d21565b600354845163678a252760e11b81526001600160a01b039788168582019081529390971660208401526044356040840152600060608401529096610140969116918690829081906080010381855afa9586156102c0578596610291575b50506101dd8351958693630b7ecdc960e31b855284019061103f565b610160610144830152602094859181806101fb61016482018b610bae565b03915afa9283156102865792610250575b5061023d61024c9261022f83519687928784015284808401526060830190610bae565b03601f198101865285610c7d565b51928284938452830190610bae565b0390f35b91508282813d831161027f575b6102678183610c7d565b8101031261027a5790519061023d61020c565b600080fd5b503d61025d565b8251903d90823e3d90fd5b6102b1929650803d106102b9575b6102a98183610c7d565b810190610f4b565b9338806101c1565b503d61029f565b84513d87823e3d90fd5b80fd5b505034610125578160031936011261012557517f00000000000000000000000000000000000000000000000000000000000000006001600160a01b03168152602090f35b50503461012557816003193601126101255760025490516001600160a01b039091168152602090f35b509061034536610b2e565b9895939791949290600160a01b600190039182600254169a8951809c633a304d8b60e21b82528a8783015233602483015260209d8e91815a91604492fa90811561054c578a91610586575b50156105765761039e61121a565b820194606083870312610572578235958c8401356001600160401b03811161056e576103f9916103cf918601610cc6565b877f00000000000000000000000000000000000000000000000000000000000000009485856110c1565b95861061055657508851633c2f4f4360e11b81528a84169590938c8587818a5afa94851561054c578a95610511575b5080851615610501578161043f91875416846113df565b6102584201928342116104ee57928492610464928d9897968d61046c97013592610d4f565b998a916113df565b813b156104ea5785916064839289519889938492630c46aac760e31b845230908401523060248401528c60448401525af180156104de579087949392916104c1575b506104bb945030916112cc565b51908152f35b91935091936104d08291610c39565b6102ca5791839186936104ae565b508551903d90823e3d90fd5b8580fd5b634e487b7160e01b8a526011865260248afd5b8a516358700a0160e11b81528690fd5b9094508c81813d8311610545575b6105298183610c7d565b810103126105415761053a90610d0d565b9338610428565b8980fd5b503d61051f565b8b513d8c823e3d90fd5b89516328e217f560e01b815290841681860152602490fd5b8a80fd5b8880fd5b89516303482c7160e21b81528590fd5b90508c81813d83116105b4575b61059d8183610c7d565b81010312610541576105ae90610c9e565b38610390565b503d610593565b83823461012557602036600319011261012557356001600160a01b03818116918290036100f8576105f0908354163314610bee565b600380546001600160a01b03191691909117905580f35b505034610125578160031936011261012557905490516001600160a01b039091168152602090f35b5090346100f857826003193601126100f8576001546001600160a01b0392909183831691903383900361069e5750508084549384167f8be0079c531659141344cd1fd0a4f28419497f9722a3daafe3b4186f6b6457e08680a36001600160a01b03199283161783551660015580f35b906020606492519162461bcd60e51b8352820152602060248201527f4f776e61626c653a2063616c6c657220213d2070656e64696e67206f776e65726044820152fd5b83823461012557602036600319011261012557356001600160a01b03818116918290036100f857610716908354163314610bee565b600280546001600160a01b03191691909117905580f35b505034610125578160031936011261012557517f00000000000000000000000000000000000000000000000000000000000000006001600160a01b03168152602090f35b5050346101255781600319360112610125576020906005549051908152f35b50503461012557816003193601126101255760035490516001600160a01b039091168152602090f35b50919034610125576107ca36610b2e565b6002548851633a304d8b60e21b8152808c018b905233602482015260209b959a9498976001600160a01b039590949390929091908d9082908816815a91604492fa90811561099b5783916109d6575b50156109c65761082761121a565b8201996060838c0312610125578b8301359a8a8401356001600160401b0381116109c2578691610858918601610cc6565b9416803b156100f8578a516339f4769360e01b81523088820190815260208101849052849082908190604001038183865af180156109b857918e918994936109a5575b508c51633c2f4f4360e11b815293849182905afa91821561099b578392610964575b5085821615610954577f00000000000000000000000000000000000000000000000000000000000000009361025842019384421161094157508c9385938a93610912989761090c943592610d4f565b916110c1565b9687106109295750509184916104bb9330916112cc565b85516328e217f560e01b815292169082015260249150fd5b634e487b7160e01b815260118952602490fd5b8a516358700a0160e11b81528790fd5b9091508c81813d8311610994575b61097c8183610c7d565b810103126100f85761098d90610d0d565b90386108bd565b503d610972565b8b513d85823e3d90fd5b6109b190959195610c39565b933861089b565b8c513d86823e3d90fd5b8380fd5b89516303482c7160e21b81528690fd5b90508c81813d8311610a04575b6109ed8183610c7d565b810103126100f8576109fe90610c9e565b38610819565b503d6109e3565b5090346100f85760603660031901126100f857610a26610b18565b91602435918215158303610b14576044359283151584036104ea5760018060a01b03948591610a59838954163314610bee565b15610afb571692831590811591610af3575b5015610ab85750508083549283167f8be0079c531659141344cd1fd0a4f28419497f9722a3daafe3b4186f6b6457e08580a36001600160a01b031991821617825560018054909116905580f35b906020606492519162461bcd60e51b835282015260156024820152744f776e61626c653a207a65726f206164647265737360581b6044820152fd5b905038610a6b565b93505050501660018060a01b0319600154161760015580f35b8480fd5b600435906001600160a01b038216820361027a57565b9060c060031983011261027a57600435916001600160a01b03602435818116810361027a5792604435828116810361027a579260643592608435908116810361027a579160a4356001600160401b039283821161027a578060238301121561027a57816004013593841161027a576024848301011161027a576024019190565b919082519283825260005b848110610bda575050826000602080949584010152601f8019910116010190565b602081830181015184830182015201610bb9565b15610bf557565b606460405162461bcd60e51b815260206004820152602060248201527f4f776e61626c653a2063616c6c6572206973206e6f7420746865206f776e65726044820152fd5b6001600160401b038111610c4c57604052565b634e487b7160e01b600052604160045260246000fd5b608081019081106001600160401b03821117610c4c57604052565b90601f801991011681019081106001600160401b03821117610c4c57604052565b5190811515820361027a57565b6001600160401b038111610c4c57601f01601f191660200190565b81601f8201121561027a57803590610cdd82610cab565b92610ceb6040519485610c7d565b8284526020838301011161027a57816000926020809301838601378301015290565b51906001600160a01b038216820361027a57565b60405190604082018281106001600160401b03821117610c4c576040526002825261060f60f31b6020830152565b909194939460405190610d6182610c62565b3082526020820193600085526040830193308552606084019360008552600554996040519560c087019b8c6001600160401b03898210911117610c4c5760e49c604052875260208701976000895260018060a01b0385169860408901958a875260608a019760018060a01b0316885260808a0198808a52610de0610d21565b9b60a08c019c8d52610f2c575b505060018060a01b0360045416986040519e8f916352bbbe2960e01b835260e0600484015251910152519960028b1015610f1657610e718e9a8b996000998b9960209f6101048c015260018060a01b039051166101248b015260018060a01b039051166101448a0152516101648901525160c06101848901526101a4880190610bae565b94516001600160a01b0390811660248801529051151560448701529051166064850152511515608484015260a4830189905260c483015203925af1928315610f0a57600093610ed6575b508210610ec457565b60405163312d207360e11b8152600490fd5b9092506020813d602011610f02575b81610ef260209383610c7d565b8101031261027a57519138610ebb565b3d9150610ee5565b6040513d6000823e3d90fd5b634e487b7160e01b600052602160045260246000fd5b600454610f44926001600160a01b03909116906113df565b3880610ded565b809103610140811261027a5760408051926001600160401b03926060850184811186821017610c4c578084526080821261027a57610f8881610c62565b610f9183610d0d565b815260208301516080870152610fa8848401610d0d565b60a0870152606083015160c087015285526080607f1982011261027a5782908151610fd281610c62565b6080840151815260a0840151602082015260c08401518382015260e08401516060820152602087015260ff19011261027a5781519283830190811184821017610c4c576110349161012091845261102c6101008201610c9e565b855201610c9e565b602083015282015290565b60206040610120926060815160018060a01b03808251168852858201518689015284820151168488015201516060860152606083820151805160808801528481015160a08801528381015160c0880152015160e086015201518051151561010085015201511515910152565b919082604091031261027a576020825192015190565b6003546040805163678a252760e11b81526001600160a01b0384811660048301529485166024820152604481018690526000606482015261014098979196919591949093909290919083168985608481845afa94851561120f5788999a6000999899966111e1575b50509183916000936111649583166111d0575b505050600354169261118586519788968795869463efa84c6d60e01b8652600486019061103f565b610144840152306101648401526101a06101848401526101a4830190610bae565b03925af19182156111c65760009261119c57505090565b6111bb9250803d106111bf575b6111b38183610c7d565b8101906110ab565b5090565b503d6111a9565b513d6000823e3d90fd5b6111d9926113df565b38808061113c565b6000949296506111649593918161120392903d106102b9576102a98183610c7d565b95919381939550611129565b88513d6000823e3d90fd5b6003546001600160a01b039081169081156112ba576020906002541691604460405180948193633a304d8b60e21b83526000600484015260248301525afa908115610f0a57600091611281575b501561126f57565b60405163086a95e160e21b8152600490fd5b906020823d82116112b2575b8161129a60209383610c7d565b810103126102ca57506112ac90610c9e565b38611267565b3d915061128d565b604051631da137b560e01b8152600490fd5b600060a4926040959660018060a01b03809861130c83837f00000000000000000000000000000000000000000000000000000000000000001680966113df565b8851998a988997634d4d7cbd60e11b8952600489015216602487015216604485015260648401528160848401525af18015610f0a576113485750565b61135f9060403d81116111bf576111b38183610c7d565b5050565b3d1561138e573d9061137482610cab565b916113826040519384610c7d565b82523d6000602084013e565b606090565b1561139a57565b60405162461bcd60e51b815260206004820152601b60248201527f53616665417070726f76653a20617070726f7665206661696c656400000000006044820152606490fd5b9190823b1561153a5760405163095ea7b360e01b60208083018281526001600160a01b038516602485015260006044808601829052855291969195939192918691829161142b81610c62565b519082865af1611439611363565b90806114ff575b61144a9150611393565b82611458575b505050505050565b6040518681019182526001600160a01b0394909416602485015260448085019390935291835283928392908390611490606482610c7d565b51925af19061149d611363565b826114ba575b50506114af9150611393565b388080808080611450565b80919250519182159283156114d9575b5050506114af915038806114a3565b82935091849192810103126102ca57506114af916114f79101610c9e565b3880806114ca565b508051878115918215611519575b505061144a9150611440565b83809293500103126104ea576115338761144a9201610c9e565b873861150d565b60405162461bcd60e51b815260206004820152601860248201527714d85999505c1c1c9bdd994e881b9bc818dbdb9d1c9858dd60421b6044820152606490fdfea26469706673582212200daeceec77fd4db84784ad6c3975ac56888177652fe4fc6aec8f3da7c855a40d64736f6c63430008130033",
  "linkReferences": {},
  "deployedLinkReferences": {}
}