{
  "_format": "hh-sol-artifact-1",
  "contractName": "BaseUSDOStorage",
  "sourceName": "contracts/usd0/BaseUSDOStorage.sol",
  "abi": [
    {
      "inputs": [
        {
          "internalType": "address",
          "name": "_lzEndpoint",
          "type": "address"
        },
        {
          "internalType": "contract IYieldBoxBase",
          "name": "_yieldBox",
          "type": "address"
        }
      ],
      "stateMutability": "nonpayable",
      "type": "constructor"
    },
    {
      "anonymous": false,
      "inputs": [
        {
          "indexed": true,
          "internalType": "address",
          "name": "owner",
          "type": "address"
        },
        {
          "indexed": true,
          "internalType": "address",
          "name": "spender",
          "type": "address"
        },
        {
          "indexed": false,
          "internalType": "uint256",
          "name": "value",
          "type": "uint256"
        }
      ],
      "name": "Approval",
      "type": "event"
    },
    {
      "anonymous": false,
      "inputs": [
        {
          "indexed": true,
          "internalType": "uint16",
          "name": "_srcChainId",
          "type": "uint16"
        },
        {
          "indexed": false,
          "internalType": "bytes",
          "name": "_srcAddress",
          "type": "bytes"
        },
        {
          "indexed": false,
          "internalType": "uint64",
          "name": "_nonce",
          "type": "uint64"
        },
        {
          "indexed": false,
          "internalType": "bytes32",
          "name": "_hash",
          "type": "bytes32"
        }
      ],
      "name": "CallOFTReceivedSuccess",
      "type": "event"
    },
    {
      "anonymous": false,
      "inputs": [
        {
          "indexed": true,
          "internalType": "address",
          "name": "old",
          "type": "address"
        },
        {
          "indexed": true,
          "internalType": "address",
          "name": "_new",
          "type": "address"
        }
      ],
      "name": "ConservatorUpdated",
      "type": "event"
    },
    {
      "anonymous": false,
      "inputs": [
        {
          "indexed": false,
          "internalType": "uint256",
          "name": "_old",
          "type": "uint256"
        },
        {
          "indexed": false,
          "internalType": "uint256",
          "name": "_new",
          "type": "uint256"
        }
      ],
      "name": "FlashMintFeeUpdated",
      "type": "event"
    },
    {
      "anonymous": false,
      "inputs": [
        {
          "indexed": false,
          "internalType": "uint256",
          "name": "_old",
          "type": "uint256"
        },
        {
          "indexed": false,
          "internalType": "uint256",
          "name": "_new",
          "type": "uint256"
        }
      ],
      "name": "MaxFlashMintUpdated",
      "type": "event"
    },
    {
      "anonymous": false,
      "inputs": [
        {
          "indexed": false,
          "internalType": "uint16",
          "name": "_srcChainId",
          "type": "uint16"
        },
        {
          "indexed": false,
          "internalType": "bytes",
          "name": "_srcAddress",
          "type": "bytes"
        },
        {
          "indexed": false,
          "internalType": "uint64",
          "name": "_nonce",
          "type": "uint64"
        },
        {
          "indexed": false,
          "internalType": "bytes",
          "name": "_payload",
          "type": "bytes"
        },
        {
          "indexed": false,
          "internalType": "bytes",
          "name": "_reason",
          "type": "bytes"
        }
      ],
      "name": "MessageFailed",
      "type": "event"
    },
    {
      "anonymous": false,
      "inputs": [
        {
          "indexed": false,
          "internalType": "address",
          "name": "_address",
          "type": "address"
        }
      ],
      "name": "NonContractAddress",
      "type": "event"
    },
    {
      "anonymous": false,
      "inputs": [
        {
          "indexed": true,
          "internalType": "address",
          "name": "previousOwner",
          "type": "address"
        },
        {
          "indexed": true,
          "internalType": "address",
          "name": "newOwner",
          "type": "address"
        }
      ],
      "name": "OwnershipTransferred",
      "type": "event"
    },
    {
      "anonymous": false,
      "inputs": [
        {
          "indexed": false,
          "internalType": "bool",
          "name": "oldState",
          "type": "bool"
        },
        {
          "indexed": false,
          "internalType": "bool",
          "name": "newState",
          "type": "bool"
        }
      ],
      "name": "PausedUpdated",
      "type": "event"
    },
    {
      "anonymous": false,
      "inputs": [
        {
          "indexed": true,
          "internalType": "uint16",
          "name": "_srcChainId",
          "type": "uint16"
        },
        {
          "indexed": true,
          "internalType": "address",
          "name": "_to",
          "type": "address"
        },
        {
          "indexed": false,
          "internalType": "uint256",
          "name": "_amount",
          "type": "uint256"
        }
      ],
      "name": "ReceiveFromChain",
      "type": "event"
    },
    {
      "anonymous": false,
      "inputs": [
        {
          "indexed": false,
          "internalType": "uint16",
          "name": "_srcChainId",
          "type": "uint16"
        },
        {
          "indexed": false,
          "internalType": "bytes",
          "name": "_srcAddress",
          "type": "bytes"
        },
        {
          "indexed": false,
          "internalType": "uint64",
          "name": "_nonce",
          "type": "uint64"
        },
        {
          "indexed": false,
          "internalType": "bytes32",
          "name": "_payloadHash",
          "type": "bytes32"
        }
      ],
      "name": "RetryMessageSuccess",
      "type": "event"
    },
    {
      "anonymous": false,
      "inputs": [
        {
          "indexed": true,
          "internalType": "uint16",
          "name": "_dstChainId",
          "type": "uint16"
        },
        {
          "indexed": true,
          "internalType": "address",
          "name": "_from",
          "type": "address"
        },
        {
          "indexed": true,
          "internalType": "bytes32",
          "name": "_toAddress",
          "type": "bytes32"
        },
        {
          "indexed": false,
          "internalType": "uint256",
          "name": "_amount",
          "type": "uint256"
        }
      ],
      "name": "SendToChain",
      "type": "event"
    },
    {
      "anonymous": false,
      "inputs": [
        {
          "indexed": true,
          "internalType": "address",
          "name": "_for",
          "type": "address"
        },
        {
          "indexed": false,
          "internalType": "bool",
          "name": "_status",
          "type": "bool"
        }
      ],
      "name": "SetBurnerStatus",
      "type": "event"
    },
    {
      "anonymous": false,
      "inputs": [
        {
          "indexed": false,
          "internalType": "uint16",
          "name": "_dstChainId",
          "type": "uint16"
        },
        {
          "indexed": false,
          "internalType": "uint16",
          "name": "_type",
          "type": "uint16"
        },
        {
          "indexed": false,
          "internalType": "uint256",
          "name": "_minDstGas",
          "type": "uint256"
        }
      ],
      "name": "SetMinDstGas",
      "type": "event"
    },
    {
      "anonymous": false,
      "inputs": [
        {
          "indexed": true,
          "internalType": "address",
          "name": "_for",
          "type": "address"
        },
        {
          "indexed": false,
          "internalType": "bool",
          "name": "_status",
          "type": "bool"
        }
      ],
      "name": "SetMinterStatus",
      "type": "event"
    },
    {
      "anonymous": false,
      "inputs": [
        {
          "indexed": false,
          "internalType": "address",
          "name": "precrime",
          "type": "address"
        }
      ],
      "name": "SetPrecrime",
      "type": "event"
    },
    {
      "anonymous": false,
      "inputs": [
        {
          "indexed": false,
          "internalType": "uint16",
          "name": "_remoteChainId",
          "type": "uint16"
        },
        {
          "indexed": false,
          "internalType": "bytes",
          "name": "_path",
          "type": "bytes"
        }
      ],
      "name": "SetTrustedRemote",
      "type": "event"
    },
    {
      "anonymous": false,
      "inputs": [
        {
          "indexed": false,
          "internalType": "uint16",
          "name": "_remoteChainId",
          "type": "uint16"
        },
        {
          "indexed": false,
          "internalType": "bytes",
          "name": "_remoteAddress",
          "type": "bytes"
        }
      ],
      "name": "SetTrustedRemoteAddress",
      "type": "event"
    },
    {
      "anonymous": false,
      "inputs": [
        {
          "indexed": false,
          "internalType": "bool",
          "name": "_useCustomAdapterParams",
          "type": "bool"
        }
      ],
      "name": "SetUseCustomAdapterParams",
      "type": "event"
    },
    {
      "anonymous": false,
      "inputs": [
        {
          "indexed": true,
          "internalType": "address",
          "name": "from",
          "type": "address"
        },
        {
          "indexed": true,
          "internalType": "address",
          "name": "to",
          "type": "address"
        },
        {
          "indexed": false,
          "internalType": "uint256",
          "name": "value",
          "type": "uint256"
        }
      ],
      "name": "Transfer",
      "type": "event"
    },
    {
      "inputs": [],
      "name": "DEFAULT_PAYLOAD_SIZE_LIMIT",
      "outputs": [
        {
          "internalType": "uint256",
          "name": "",
          "type": "uint256"
        }
      ],
      "stateMutability": "view",
      "type": "function"
    },
    {
      "inputs": [],
      "name": "NO_EXTRA_GAS",
      "outputs": [
        {
          "internalType": "uint256",
          "name": "",
          "type": "uint256"
        }
      ],
      "stateMutability": "view",
      "type": "function"
    },
    {
      "inputs": [],
      "name": "PT_SEND",
      "outputs": [
        {
          "internalType": "uint8",
          "name": "",
          "type": "uint8"
        }
      ],
      "stateMutability": "view",
      "type": "function"
    },
    {
      "inputs": [],
      "name": "PT_SEND_AND_CALL",
      "outputs": [
        {
          "internalType": "uint8",
          "name": "",
          "type": "uint8"
        }
      ],
      "stateMutability": "view",
      "type": "function"
    },
    {
      "inputs": [
        {
          "internalType": "address",
          "name": "owner",
          "type": "address"
        },
        {
          "internalType": "address",
          "name": "spender",
          "type": "address"
        }
      ],
      "name": "allowance",
      "outputs": [
        {
          "internalType": "uint256",
          "name": "",
          "type": "uint256"
        }
      ],
      "stateMutability": "view",
      "type": "function"
    },
    {
      "inputs": [
        {
          "internalType": "uint256",
          "name": "",
          "type": "uint256"
        },
        {
          "internalType": "address",
          "name": "",
          "type": "address"
        }
      ],
      "name": "allowedBurner",
      "outputs": [
        {
          "internalType": "bool",
          "name": "",
          "type": "bool"
        }
      ],
      "stateMutability": "view",
      "type": "function"
    },
    {
      "inputs": [
        {
          "internalType": "uint256",
          "name": "",
          "type": "uint256"
        },
        {
          "internalType": "address",
          "name": "",
          "type": "address"
        }
      ],
      "name": "allowedMinter",
      "outputs": [
        {
          "internalType": "bool",
          "name": "",
          "type": "bool"
        }
      ],
      "stateMutability": "view",
      "type": "function"
    },
    {
      "inputs": [
        {
          "internalType": "address",
          "name": "spender",
          "type": "address"
        },
        {
          "internalType": "uint256",
          "name": "amount",
          "type": "uint256"
        }
      ],
      "name": "approve",
      "outputs": [
        {
          "internalType": "bool",
          "name": "",
          "type": "bool"
        }
      ],
      "stateMutability": "nonpayable",
      "type": "function"
    },
    {
      "inputs": [
        {
          "internalType": "address",
          "name": "account",
          "type": "address"
        }
      ],
      "name": "balanceOf",
      "outputs": [
        {
          "internalType": "uint256",
          "name": "",
          "type": "uint256"
        }
      ],
      "stateMutability": "view",
      "type": "function"
    },
    {
      "inputs": [
        {
          "internalType": "uint16",
          "name": "_srcChainId",
          "type": "uint16"
        },
        {
          "internalType": "bytes",
          "name": "_srcAddress",
          "type": "bytes"
        },
        {
          "internalType": "uint64",
          "name": "_nonce",
          "type": "uint64"
        },
        {
          "internalType": "bytes32",
          "name": "_from",
          "type": "bytes32"
        },
        {
          "internalType": "address",
          "name": "_to",
          "type": "address"
        },
        {
          "internalType": "uint256",
          "name": "_amount",
          "type": "uint256"
        },
        {
          "internalType": "bytes",
          "name": "_payload",
          "type": "bytes"
        },
        {
          "internalType": "uint256",
          "name": "_gasForCall",
          "type": "uint256"
        }
      ],
      "name": "callOnOFTReceived",
      "outputs": [],
      "stateMutability": "nonpayable",
      "type": "function"
    },
    {
      "inputs": [],
      "name": "circulatingSupply",
      "outputs": [
        {
          "internalType": "uint256",
          "name": "",
          "type": "uint256"
        }
      ],
      "stateMutability": "view",
      "type": "function"
    },
    {
      "inputs": [],
      "name": "conservator",
      "outputs": [
        {
          "internalType": "address",
          "name": "",
          "type": "address"
        }
      ],
      "stateMutability": "view",
      "type": "function"
    },
    {
      "inputs": [
        {
          "internalType": "uint16",
          "name": "",
          "type": "uint16"
        },
        {
          "internalType": "bytes",
          "name": "",
          "type": "bytes"
        },
        {
          "internalType": "uint64",
          "name": "",
          "type": "uint64"
        }
      ],
      "name": "creditedPackets",
      "outputs": [
        {
          "internalType": "bool",
          "name": "",
          "type": "bool"
        }
      ],
      "stateMutability": "view",
      "type": "function"
    },
    {
      "inputs": [],
      "name": "decimals",
      "outputs": [
        {
          "internalType": "uint8",
          "name": "",
          "type": "uint8"
        }
      ],
      "stateMutability": "view",
      "type": "function"
    },
    {
      "inputs": [
        {
          "internalType": "address",
          "name": "spender",
          "type": "address"
        },
        {
          "internalType": "uint256",
          "name": "subtractedValue",
          "type": "uint256"
        }
      ],
      "name": "decreaseAllowance",
      "outputs": [
        {
          "internalType": "bool",
          "name": "",
          "type": "bool"
        }
      ],
      "stateMutability": "nonpayable",
      "type": "function"
    },
    {
      "inputs": [
        {
          "internalType": "uint16",
          "name": "_dstChainId",
          "type": "uint16"
        },
        {
          "internalType": "bytes32",
          "name": "_toAddress",
          "type": "bytes32"
        },
        {
          "internalType": "uint256",
          "name": "_amount",
          "type": "uint256"
        },
        {
          "internalType": "bytes",
          "name": "_payload",
          "type": "bytes"
        },
        {
          "internalType": "uint64",
          "name": "_dstGasForCall",
          "type": "uint64"
        },
        {
          "internalType": "bool",
          "name": "_useZro",
          "type": "bool"
        },
        {
          "internalType": "bytes",
          "name": "_adapterParams",
          "type": "bytes"
        }
      ],
      "name": "estimateSendAndCallFee",
      "outputs": [
        {
          "internalType": "uint256",
          "name": "nativeFee",
          "type": "uint256"
        },
        {
          "internalType": "uint256",
          "name": "zroFee",
          "type": "uint256"
        }
      ],
      "stateMutability": "view",
      "type": "function"
    },
    {
      "inputs": [
        {
          "internalType": "uint16",
          "name": "_dstChainId",
          "type": "uint16"
        },
        {
          "internalType": "bytes32",
          "name": "_toAddress",
          "type": "bytes32"
        },
        {
          "internalType": "uint256",
          "name": "_amount",
          "type": "uint256"
        },
        {
          "internalType": "bool",
          "name": "_useZro",
          "type": "bool"
        },
        {
          "internalType": "bytes",
          "name": "_adapterParams",
          "type": "bytes"
        }
      ],
      "name": "estimateSendFee",
      "outputs": [
        {
          "internalType": "uint256",
          "name": "nativeFee",
          "type": "uint256"
        },
        {
          "internalType": "uint256",
          "name": "zroFee",
          "type": "uint256"
        }
      ],
      "stateMutability": "view",
      "type": "function"
    },
    {
      "inputs": [
        {
          "internalType": "uint16",
          "name": "",
          "type": "uint16"
        },
        {
          "internalType": "bytes",
          "name": "",
          "type": "bytes"
        },
        {
          "internalType": "uint64",
          "name": "",
          "type": "uint64"
        }
      ],
      "name": "failedMessages",
      "outputs": [
        {
          "internalType": "bytes32",
          "name": "",
          "type": "bytes32"
        }
      ],
      "stateMutability": "view",
      "type": "function"
    },
    {
      "inputs": [],
      "name": "flashMintFee",
      "outputs": [
        {
          "internalType": "uint256",
          "name": "",
          "type": "uint256"
        }
      ],
      "stateMutability": "view",
      "type": "function"
    },
    {
      "inputs": [
        {
          "internalType": "uint16",
          "name": "_srcChainId",
          "type": "uint16"
        },
        {
          "internalType": "bytes",
          "name": "_srcAddress",
          "type": "bytes"
        }
      ],
      "name": "forceResumeReceive",
      "outputs": [],
      "stateMutability": "nonpayable",
      "type": "function"
    },
    {
      "inputs": [
        {
          "internalType": "uint16",
          "name": "_version",
          "type": "uint16"
        },
        {
          "internalType": "uint16",
          "name": "_chainId",
          "type": "uint16"
        },
        {
          "internalType": "address",
          "name": "",
          "type": "address"
        },
        {
          "internalType": "uint256",
          "name": "_configType",
          "type": "uint256"
        }
      ],
      "name": "getConfig",
      "outputs": [
        {
          "internalType": "bytes",
          "name": "",
          "type": "bytes"
        }
      ],
      "stateMutability": "view",
      "type": "function"
    },
    {
      "inputs": [
        {
          "internalType": "uint16",
          "name": "_remoteChainId",
          "type": "uint16"
        }
      ],
      "name": "getTrustedRemoteAddress",
      "outputs": [
        {
          "internalType": "bytes",
          "name": "",
          "type": "bytes"
        }
      ],
      "stateMutability": "view",
      "type": "function"
    },
    {
      "inputs": [
        {
          "internalType": "address",
          "name": "spender",
          "type": "address"
        },
        {
          "internalType": "uint256",
          "name": "addedValue",
          "type": "uint256"
        }
      ],
      "name": "increaseAllowance",
      "outputs": [
        {
          "internalType": "bool",
          "name": "",
          "type": "bool"
        }
      ],
      "stateMutability": "nonpayable",
      "type": "function"
    },
    {
      "inputs": [
        {
          "internalType": "uint16",
          "name": "",
          "type": "uint16"
        }
      ],
      "name": "isLdChain",
      "outputs": [
        {
          "internalType": "bool",
          "name": "",
          "type": "bool"
        }
      ],
      "stateMutability": "view",
      "type": "function"
    },
    {
      "inputs": [
        {
          "internalType": "uint16",
          "name": "_srcChainId",
          "type": "uint16"
        },
        {
          "internalType": "bytes",
          "name": "_srcAddress",
          "type": "bytes"
        }
      ],
      "name": "isTrustedRemote",
      "outputs": [
        {
          "internalType": "bool",
          "name": "",
          "type": "bool"
        }
      ],
      "stateMutability": "view",
      "type": "function"
    },
    {
      "inputs": [],
      "name": "lzEndpoint",
      "outputs": [
        {
          "internalType": "contract ILayerZeroEndpoint",
          "name": "",
          "type": "address"
        }
      ],
      "stateMutability": "view",
      "type": "function"
    },
    {
      "inputs": [
        {
          "internalType": "uint16",
          "name": "_srcChainId",
          "type": "uint16"
        },
        {
          "internalType": "bytes",
          "name": "_srcAddress",
          "type": "bytes"
        },
        {
          "internalType": "uint64",
          "name": "_nonce",
          "type": "uint64"
        },
        {
          "internalType": "bytes",
          "name": "_payload",
          "type": "bytes"
        }
      ],
      "name": "lzReceive",
      "outputs": [],
      "stateMutability": "nonpayable",
      "type": "function"
    },
    {
      "inputs": [],
      "name": "maxFlashMint",
      "outputs": [
        {
          "internalType": "uint256",
          "name": "",
          "type": "uint256"
        }
      ],
      "stateMutability": "view",
      "type": "function"
    },
    {
      "inputs": [
        {
          "internalType": "uint16",
          "name": "",
          "type": "uint16"
        },
        {
          "internalType": "uint16",
          "name": "",
          "type": "uint16"
        }
      ],
      "name": "minDstGasLookup",
      "outputs": [
        {
          "internalType": "uint256",
          "name": "",
          "type": "uint256"
        }
      ],
      "stateMutability": "view",
      "type": "function"
    },
    {
      "inputs": [],
      "name": "name",
      "outputs": [
        {
          "internalType": "string",
          "name": "",
          "type": "string"
        }
      ],
      "stateMutability": "view",
      "type": "function"
    },
    {
      "inputs": [
        {
          "internalType": "uint16",
          "name": "_srcChainId",
          "type": "uint16"
        },
        {
          "internalType": "bytes",
          "name": "_srcAddress",
          "type": "bytes"
        },
        {
          "internalType": "uint64",
          "name": "_nonce",
          "type": "uint64"
        },
        {
          "internalType": "bytes",
          "name": "_payload",
          "type": "bytes"
        }
      ],
      "name": "nonblockingLzReceive",
      "outputs": [],
      "stateMutability": "nonpayable",
      "type": "function"
    },
    {
      "inputs": [],
      "name": "owner",
      "outputs": [
        {
          "internalType": "address",
          "name": "",
          "type": "address"
        }
      ],
      "stateMutability": "view",
      "type": "function"
    },
    {
      "inputs": [],
      "name": "paused",
      "outputs": [
        {
          "internalType": "bool",
          "name": "",
          "type": "bool"
        }
      ],
      "stateMutability": "view",
      "type": "function"
    },
    {
      "inputs": [
        {
          "internalType": "uint16",
          "name": "",
          "type": "uint16"
        }
      ],
      "name": "payloadSizeLimitLookup",
      "outputs": [
        {
          "internalType": "uint256",
          "name": "",
          "type": "uint256"
        }
      ],
      "stateMutability": "view",
      "type": "function"
    },
    {
      "inputs": [],
      "name": "precrime",
      "outputs": [
        {
          "internalType": "address",
          "name": "",
          "type": "address"
        }
      ],
      "stateMutability": "view",
      "type": "function"
    },
    {
      "inputs": [],
      "name": "renounceOwnership",
      "outputs": [],
      "stateMutability": "nonpayable",
      "type": "function"
    },
    {
      "inputs": [
        {
          "internalType": "uint16",
          "name": "_srcChainId",
          "type": "uint16"
        },
        {
          "internalType": "bytes",
          "name": "_srcAddress",
          "type": "bytes"
        },
        {
          "internalType": "uint64",
          "name": "_nonce",
          "type": "uint64"
        },
        {
          "internalType": "bytes",
          "name": "_payload",
          "type": "bytes"
        }
      ],
      "name": "retryMessage",
      "outputs": [],
      "stateMutability": "payable",
      "type": "function"
    },
    {
      "inputs": [
        {
          "internalType": "address",
          "name": "_from",
          "type": "address"
        },
        {
          "internalType": "uint16",
          "name": "_dstChainId",
          "type": "uint16"
        },
        {
          "internalType": "bytes32",
          "name": "_toAddress",
          "type": "bytes32"
        },
        {
          "internalType": "uint256",
          "name": "_amount",
          "type": "uint256"
        },
        {
          "internalType": "bytes",
          "name": "_payload",
          "type": "bytes"
        },
        {
          "internalType": "uint64",
          "name": "_dstGasForCall",
          "type": "uint64"
        },
        {
          "components": [
            {
              "internalType": "address payable",
              "name": "refundAddress",
              "type": "address"
            },
            {
              "internalType": "address",
              "name": "zroPaymentAddress",
              "type": "address"
            },
            {
              "internalType": "bytes",
              "name": "adapterParams",
              "type": "bytes"
            }
          ],
          "internalType": "struct ICommonOFT.LzCallParams",
          "name": "_callParams",
          "type": "tuple"
        }
      ],
      "name": "sendAndCall",
      "outputs": [],
      "stateMutability": "payable",
      "type": "function"
    },
    {
      "inputs": [
        {
          "internalType": "address",
          "name": "_from",
          "type": "address"
        },
        {
          "internalType": "uint16",
          "name": "_dstChainId",
          "type": "uint16"
        },
        {
          "internalType": "bytes32",
          "name": "_toAddress",
          "type": "bytes32"
        },
        {
          "internalType": "uint256",
          "name": "_amount",
          "type": "uint256"
        },
        {
          "components": [
            {
              "internalType": "address payable",
              "name": "refundAddress",
              "type": "address"
            },
            {
              "internalType": "address",
              "name": "zroPaymentAddress",
              "type": "address"
            },
            {
              "internalType": "bytes",
              "name": "adapterParams",
              "type": "bytes"
            }
          ],
          "internalType": "struct ICommonOFT.LzCallParams",
          "name": "_callParams",
          "type": "tuple"
        }
      ],
      "name": "sendFrom",
      "outputs": [],
      "stateMutability": "payable",
      "type": "function"
    },
    {
      "inputs": [
        {
          "internalType": "uint16",
          "name": "_version",
          "type": "uint16"
        },
        {
          "internalType": "uint16",
          "name": "_chainId",
          "type": "uint16"
        },
        {
          "internalType": "uint256",
          "name": "_configType",
          "type": "uint256"
        },
        {
          "internalType": "bytes",
          "name": "_config",
          "type": "bytes"
        }
      ],
      "name": "setConfig",
      "outputs": [],
      "stateMutability": "nonpayable",
      "type": "function"
    },
    {
      "inputs": [
        {
          "internalType": "uint16",
          "name": "_chainId",
          "type": "uint16"
        },
        {
          "internalType": "bool",
          "name": "_isLdChain",
          "type": "bool"
        }
      ],
      "name": "setLdChain",
      "outputs": [],
      "stateMutability": "nonpayable",
      "type": "function"
    },
    {
      "inputs": [
        {
          "internalType": "uint16",
          "name": "_dstChainId",
          "type": "uint16"
        },
        {
          "internalType": "uint16",
          "name": "_packetType",
          "type": "uint16"
        },
        {
          "internalType": "uint256",
          "name": "_minGas",
          "type": "uint256"
        }
      ],
      "name": "setMinDstGas",
      "outputs": [],
      "stateMutability": "nonpayable",
      "type": "function"
    },
    {
      "inputs": [
        {
          "internalType": "uint16",
          "name": "_dstChainId",
          "type": "uint16"
        },
        {
          "internalType": "uint256",
          "name": "_size",
          "type": "uint256"
        }
      ],
      "name": "setPayloadSizeLimit",
      "outputs": [],
      "stateMutability": "nonpayable",
      "type": "function"
    },
    {
      "inputs": [
        {
          "internalType": "address",
          "name": "_precrime",
          "type": "address"
        }
      ],
      "name": "setPrecrime",
      "outputs": [],
      "stateMutability": "nonpayable",
      "type": "function"
    },
    {
      "inputs": [
        {
          "internalType": "uint16",
          "name": "_version",
          "type": "uint16"
        }
      ],
      "name": "setReceiveVersion",
      "outputs": [],
      "stateMutability": "nonpayable",
      "type": "function"
    },
    {
      "inputs": [
        {
          "internalType": "uint16",
          "name": "_version",
          "type": "uint16"
        }
      ],
      "name": "setSendVersion",
      "outputs": [],
      "stateMutability": "nonpayable",
      "type": "function"
    },
    {
      "inputs": [
        {
          "internalType": "uint16",
          "name": "_srcChainId",
          "type": "uint16"
        },
        {
          "internalType": "bytes",
          "name": "_path",
          "type": "bytes"
        }
      ],
      "name": "setTrustedRemote",
      "outputs": [],
      "stateMutability": "nonpayable",
      "type": "function"
    },
    {
      "inputs": [
        {
          "internalType": "uint16",
          "name": "_remoteChainId",
          "type": "uint16"
        },
        {
          "internalType": "bytes",
          "name": "_remoteAddress",
          "type": "bytes"
        }
      ],
      "name": "setTrustedRemoteAddress",
      "outputs": [],
      "stateMutability": "nonpayable",
      "type": "function"
    },
    {
      "inputs": [
        {
          "internalType": "bool",
          "name": "_useCustomAdapterParams",
          "type": "bool"
        }
      ],
      "name": "setUseCustomAdapterParams",
      "outputs": [],
      "stateMutability": "nonpayable",
      "type": "function"
    },
    {
      "inputs": [],
      "name": "sharedDecimals",
      "outputs": [
        {
          "internalType": "uint8",
          "name": "",
          "type": "uint8"
        }
      ],
      "stateMutability": "view",
      "type": "function"
    },
    {
      "inputs": [
        {
          "internalType": "bytes4",
          "name": "interfaceId",
          "type": "bytes4"
        }
      ],
      "name": "supportsInterface",
      "outputs": [
        {
          "internalType": "bool",
          "name": "",
          "type": "bool"
        }
      ],
      "stateMutability": "view",
      "type": "function"
    },
    {
      "inputs": [],
      "name": "symbol",
      "outputs": [
        {
          "internalType": "string",
          "name": "",
          "type": "string"
        }
      ],
      "stateMutability": "view",
      "type": "function"
    },
    {
      "inputs": [],
      "name": "token",
      "outputs": [
        {
          "internalType": "address",
          "name": "",
          "type": "address"
        }
      ],
      "stateMutability": "view",
      "type": "function"
    },
    {
      "inputs": [],
      "name": "totalSupply",
      "outputs": [
        {
          "internalType": "uint256",
          "name": "",
          "type": "uint256"
        }
      ],
      "stateMutability": "view",
      "type": "function"
    },
    {
      "inputs": [
        {
          "internalType": "address",
          "name": "to",
          "type": "address"
        },
        {
          "internalType": "uint256",
          "name": "amount",
          "type": "uint256"
        }
      ],
      "name": "transfer",
      "outputs": [
        {
          "internalType": "bool",
          "name": "",
          "type": "bool"
        }
      ],
      "stateMutability": "nonpayable",
      "type": "function"
    },
    {
      "inputs": [
        {
          "internalType": "address",
          "name": "from",
          "type": "address"
        },
        {
          "internalType": "address",
          "name": "to",
          "type": "address"
        },
        {
          "internalType": "uint256",
          "name": "amount",
          "type": "uint256"
        }
      ],
      "name": "transferFrom",
      "outputs": [
        {
          "internalType": "bool",
          "name": "",
          "type": "bool"
        }
      ],
      "stateMutability": "nonpayable",
      "type": "function"
    },
    {
      "inputs": [
        {
          "internalType": "address",
          "name": "newOwner",
          "type": "address"
        }
      ],
      "name": "transferOwnership",
      "outputs": [],
      "stateMutability": "nonpayable",
      "type": "function"
    },
    {
      "inputs": [
        {
          "internalType": "uint16",
          "name": "",
          "type": "uint16"
        }
      ],
      "name": "trustedRemoteLookup",
      "outputs": [
        {
          "internalType": "bytes",
          "name": "",
          "type": "bytes"
        }
      ],
      "stateMutability": "view",
      "type": "function"
    },
    {
      "inputs": [],
      "name": "useCustomAdapterParams",
      "outputs": [
        {
          "internalType": "bool",
          "name": "",
          "type": "bool"
        }
      ],
      "stateMutability": "view",
      "type": "function"
    },
    {
      "inputs": [],
      "name": "yieldBox",
      "outputs": [
        {
          "internalType": "contract IYieldBoxBase",
          "name": "",
          "type": "address"
        }
      ],
      "stateMutability": "view",
      "type": "function"
    },
    {
      "stateMutability": "payable",
      "type": "receive"
    }
  ],
  "bytecode": "0x61010060409080825234620004b7578181620040618038038091620000258285620004bc565b833981010312620004b75780516001600160a01b038082169291839003620004b757602080920151928184168403620004b75762000062620004f6565b916200006d620004f6565b60008054336001600160a01b03198216811783559194919084167f8be0079c531659141344cd1fd0a4f28419497f9722a3daafe3b4186f6b6457e08680a3608052600860a05283516001600160401b0391828211620003be57600b54916001968784811c94168015620004ac575b8985101462000498578190601f9485811162000444575b508990858311600114620003de578892620003d2575b5050600019600383901b1c191690871b17600b555b8051928311620003be57600c548681811c91168015620003b3575b888210146200039f57908183899594931162000347575b5083918311600114620002dc576004949291869183620002d0575b5050600019600383901b1c191690861b17600c555b6402540be40060c052608051168751928380926303408e4760e41b82525afa908115620002c6579082918793916200027b575b5061ffff1693848252600f815282822033835281528282209460ff1995858782541617905582526010815282822090338352522091825416179055600a60125569152d02c7e14af680000060135560e05251613b39908162000528823960805181818161048f0152818161075201528181610876015281816109f501528181610c010152818161196201528181611adb015281816121ff01528181612a2601528181612e8101526136fb015260a051816113ad015260c0518161375c015260e05181611d390152f35b80929350858092503d8311620002be575b620002988183620004bc565b81010312620002ba575161ffff81168103620002ba5785919061ffff620001b2565b5080fd5b503d6200028c565b86513d84823e3d90fd5b0151905038806200016a565b93918691601f19821690600c885285882091885b8181106200032e575096836004981062000314575b505050811b01600c556200017f565b015160001960f88460031b161c1916905538808062000305565b8289015184558b978b96909401939283019201620002f0565b9091929350600c86528786208380860160051c8201928a871062000395575b9189918b97969594930160051c01915b828110620003865750506200014f565b8881558a965089910162000376565b9250819262000366565b634e487b7160e01b86526022600452602486fd5b90607f169062000138565b634e487b7160e01b85526041600452602485fd5b01519050388062000108565b600b89528a89208a94509190601f1984168a5b8d8282106200042d575050841162000413575b505050811b01600b556200011d565b015160001960f88460031b161c1916905538808062000404565b8385015186558d97909501949384019301620003f1565b909150600b88528988208580850160051c8201928c86106200048e575b918b91869594930160051c01915b8281106200047f575050620000f2565b8a81558594508b91016200046f565b9250819262000461565b634e487b7160e01b87526022600452602487fd5b93607f1693620000db565b600080fd5b601f909101601f19168101906001600160401b03821190821017620004e057604052565b634e487b7160e01b600052604160045260246000fd5b60408051919082016001600160401b03811183821017620004e05760405260048252635553444f60e01b602083015256fe6080604052600436101561001b575b361561001957600080fd5b005b60003560e01c80621d3567146103d057806301ffc9a7146103cb57806306fdde03146103c657806307e0db17146103c1578063095ea7b3146103bc5780630df37483146103b757806310ddb137146103b257806318160ddd1461034457806323b872dd146103ad578063313ce567146103a8578063365260b4146103a3578063395093511461039e5780633b597150146103995780633d8b38f6146103945780633f1f4fa41461038f57806342d65a8d1461038a57806344770515146103855780634c42899a146103855780635b8c41e6146103805780635c975abb1461037b57806366ad5c8a14610376578063695ef6bf1461037157806370a082311461036c578063715018a6146103675780637533d7881461036257806376203b481461035d578063857749b01461035857806386263568146103535780638cfd8f5c1461034e5780638da5cb5b146103495780639358928b14610344578063940a1dc01461033f578063950c8a741461033a57806395d89b41146103355780639bdb9812146103305780639d3f4d1a1461032b5780639f38369a14610326578063a457c2d714610321578063a4c51df51461031c578063a6c3d16514610317578063a9059cbb14610312578063b353aaa71461030d578063ba03a8d714610308578063baf3292d14610303578063c4461834146102fe578063cbed8b9c146102f9578063ce8849ed146102f4578063d1deba1f146102ef578063dd62ed3e146102ea578063de406577146102e5578063df2a5b3b146102e0578063e6a20ae6146102db578063eab45d9c146102d6578063eaffd49a146102d1578063eb8d72b7146102cc578063ec6d062b146102c7578063ed629c5c146102c2578063f2fde38b146102bd578063f5ecbdbc146102b85763fc0c546a0361000e57612269565b612195565b6120e0565b6120bd565b612085565b611f5c565b611ed3565b611e71565b611e55565b611d68565b611d23565b611cd9565b611b9c565b611b73565b611a87565b611a6a565b6119fa565b6119c2565b61194c565b611922565b6117c0565b61172d565b611681565b6115de565b6115c0565b611575565b6114d1565b6114a8565b61148a565b6108d7565b611461565b61140f565b6113d1565b611393565b611176565b61111f565b610fe9565b610fac565b610ec9565b610e35565b610e12565b610dbe565b610c68565b610be7565b610bae565b610b52565b610ac3565b610a73565b61096f565b610935565b6108f5565b61084d565b61080e565b6107d9565b610729565b610649565b61058c565b610478565b61ffff8116036103e157565b600080fd5b9181601f840112156103e1578235916001600160401b0383116103e157602083818601950101116103e157565b9060806003198301126103e15760043561042c816103d5565b916001600160401b03906024358281116103e1578161044d916004016103e6565b9390939260443581811681036103e157926064359182116103e157610474916004016103e6565b9091565b346103e15761048636610413565b929493919291907f00000000000000000000000000000000000000000000000000000000000000006001600160a01b031633036105475761050c61051492610019976105056104eb6104e68a61ffff166000526001602052604060002090565b611102565b805190818414918261053d575b508161051a575b50612646565b3691610cf0565b923691610cf0565b926127b9565b9050610527368486610cf0565b60208151910120906020815191012014386104ff565b15159150386104f8565b60405162461bcd60e51b815260206004820152601e60248201527f4c7a4170703a20696e76616c696420656e64706f696e742063616c6c657200006044820152606490fd5b346103e15760203660031901126103e15760043563ffffffff60e01b81168091036103e157602090631f7ecdf760e01b81149081156105d1575b506040519015158152f35b6301ffc9a760e01b149050386105c6565b60009103126103e157565b60005b8381106106005750506000910152565b81810151838201526020016105f0565b90602091610629815180928185528580860191016105ed565b601f01601f1916010190565b906020610646928181520190610610565b90565b346103e1576000806003193601126107265760405181600b5461066b81611032565b808452906001908181169081156106fe57506001146106a5575b6106a18461069581880382610cb2565b60405191829182610635565b0390f35b600b8352602094507f0175b7a638427703f0dbe7bb9bbf987a2551717b34e79f33b5b1008d1fa01db95b8284106106eb57505050816106a1936106959282010193610685565b80548585018701529285019281016106cf565b6106a196506106959450602092508593915060ff191682840152151560051b82010193610685565b80fd5b346103e1576000602036600319011261072657600435610748816103d5565b610750612284565b7f00000000000000000000000000000000000000000000000000000000000000006001600160a01b0316908290823b156107c457602461ffff918360405195869485936307e0db1760e01b85521660048401525af180156107bf576107b3575080f35b6107bc90610c9a565b80f35b6126ff565b5080fd5b6001600160a01b038116036103e157565b346103e15760403660031901126103e1576108036004356107f9816107c8565b602435903361249d565b602060405160018152f35b346103e15760403660031901126103e15761ffff60043561082e816103d5565b610836612284565b166000526003602052602435604060002055600080f35b346103e157600060203660031901126107265760043561086c816103d5565b610874612284565b7f00000000000000000000000000000000000000000000000000000000000000006001600160a01b0316908290823b156107c457602461ffff918360405195869485936310ddb13760e01b85521660048401525af180156107bf576107b3575080f35b346103e15760003660031901126103e1576020600a54604051908152f35b346103e15760603660031901126103e157610803600435610915816107c8565b602435610921816107c8565b604435916109308333836125b6565b6123ce565b346103e15760003660031901126103e157602060405160128152f35b6064359081151582036103e157565b60a4359081151582036103e157565b346103e15760a03660031901126103e15760043561098c816103d5565b610994610951565b90608435906001600160401b0382116103e1576109ba61050560409336906004016103e6565b906109f16109d46109cc6044356132db565b602435613378565b928451958694859463040a7bb160e41b8652309060048701612bbd565b03817f00000000000000000000000000000000000000000000000000000000000000006001600160a01b03165afa9081156107bf576000908192610a42575b50604080519182526020820192909252f35b9050610a65915060403d8111610a6c575b610a5d8183610cb2565b810190612ba7565b9038610a30565b503d610a53565b346103e15760403660031901126103e157600435610a90816107c8565b336000526009602052610aa78160406000206119ab565b546024358101809111610abe57610803913361249d565b6122dc565b346103e15760403660031901126103e157600435610ae0816103d5565b602435908115158092036103e15761ffff90610afa612284565b16600052600d60205260406000209060ff80198354169116179055600080f35b9060406003198301126103e157600435610b33816103d5565b91602435906001600160401b0382116103e157610474916004016103e6565b346103e157602061ffff610b9f610b6836610b1a565b9390911660005260018452610b8a610b9160406000206040519283809261106c565b0382610cb2565b848151910120923691610cf0565b82815191012014604051908152f35b346103e15760203660031901126103e15761ffff600435610bce816103d5565b1660005260036020526020604060002054604051908152f35b346103e157610bf536610b1a565b9190610bff612284565b7f00000000000000000000000000000000000000000000000000000000000000006001600160a01b031691823b156103e157604051928380926342d65a8d60e01b825281610c56600098899788946004850161272c565b03925af180156107bf576107b3575080f35b346103e15760003660031901126103e157602060405160008152f35b634e487b7160e01b600052604160045260246000fd5b6001600160401b038111610cad57604052565b610c84565b601f909101601f19168101906001600160401b03821190821017610cad57604052565b6001600160401b038111610cad57601f01601f191660200190565b929192610cfc82610cd5565b91610d0a6040519384610cb2565b8294818452818301116103e1578281602093846000960137010152565b60606003198201126103e157600435610d3f816103d5565b916001600160401b0391602435908382116103e157806023830112156103e157816024610d7193600401359101610cf0565b9160443590811681036103e15790565b602090610d9b9282604051948386809551938492016105ed565b82019081520301902090565b9060018060401b0316600052602052604060002090565b346103e1576020610e0961ffff610dfb83610dd836610d27565b9490911660005260058252604060002082604051948386809551938492016105ed565b820190815203019020610da7565b54604051908152f35b346103e15760003660031901126103e157602060ff601154166040519015158152f35b346103e157610e4336610413565b9192949390303303610e675761050c610e6192610019973691610cf0565b92612c01565b60405162461bcd60e51b815260206004820152602660248201527f4e6f6e626c6f636b696e674c7a4170703a2063616c6c6572206d7573742062656044820152650204c7a4170760d41b6064820152608490fd5b908160609103126103e15790565b60a03660031901126103e157600435610ee1816107c8565b602435610eed816103d5565b604435916084356001600160401b0381116103e157602061ffff610f24600080516020613a44833981519152933690600401610ebb565b93610f978535610f33816107c8565b610f516105058689013598610f478a6107c8565b60408101906129a4565b610f5b818a6131dd565b610f70610f6960643561335a565b5085613549565b97610f7c891515612d9d565b610f8e610f888a6132db565b8c613378565b9234938b612e3d565b6040519485526001600160a01b0316941692a4005b346103e15760203660031901126103e157600435610fc9816107c8565b60018060a01b031660005260086020526020604060002054604051908152f35b346103e15760008060031936011261072657611003612284565b80546001600160a01b03198116825581906001600160a01b0316600080516020613aa48339815191528280a380f35b90600182811c92168015611062575b602083101461104c57565b634e487b7160e01b600052602260045260246000fd5b91607f1691611041565b906000929180549161107d83611032565b9182825260019384811690816000146110df575060011461109f575b50505050565b90919394506000526020928360002092846000945b8386106110cb575050505001019038808080611099565b8054858701830152940193859082016110b4565b9294505050602093945060ff191683830152151560051b01019038808080611099565b9061111d611116926040519384809261106c565b0383610cb2565b565b346103e15760203660031901126103e15761ffff60043561113f816103d5565b1660005260016020526106a1610b8a61116260406000206040519283809261106c565b604051918291602083526020830190610610565b60e03660031901126103e15760043561118e816107c8565b60243561119a816103d5565b604435916001600160401b03906084358281116103e1576111bf9036906004016103e6565b91909260a43591818316918284036103e15760c4359081116103e1576111e9903690600401610ebb565b926112208435956111f9876107c8565b61121861120e602088013597610f47896107c8565b9990923691610cf0565b973691610cf0565b9460ff600654166000146113125760228651106112ce5785602095610f8e610f979461129c8c61128961ffff9a8b6022600080516020613a448339815191529f0151931660005260028d5261128360406000206001600052602052604060002090565b5461230e565b90611295821515613232565b101561327b565b6112b16112aa60643561335a565b5088613549565b9a6112bd8c1515612d9d565b8d6112c78d6132db565b9033613406565b60405162461bcd60e51b815260206004820152601c60248201527b4c7a4170703a20696e76616c69642061646170746572506172616d7360201b6044820152606490fd5b94809493505161133f57600080516020613a448339815191529460209461ffff94610f8e610f979461129c565b60405162461bcd60e51b815260206004820152602660248201527f4f4654436f72653a205f61646170746572506172616d73206d7573742062652060448201526532b6b83a3c9760d11b6064820152608490fd5b346103e15760003660031901126103e157602060405160ff7f0000000000000000000000000000000000000000000000000000000000000000168152f35b346103e15760203660031901126103e15761ffff6004356113f1816103d5565b16600052600d602052602060ff604060002054166040519015158152f35b346103e15760403660031901126103e1576020610e09600435611431816103d5565b61ffff60243591611441836103d5565b166000526002835260406000209061ffff16600052602052604060002090565b346103e15760003660031901126103e1576000546040516001600160a01b039091168152602090f35b346103e15760003660031901126103e1576020601254604051908152f35b346103e15760003660031901126103e1576004546040516001600160a01b039091168152602090f35b346103e1576000806003193601126107265760405181600c546114f381611032565b808452906001908181169081156106fe575060011461151c576106a18461069581880382610cb2565b600c8352602094507fdf6966c971051c3d54ec59162606531493a51404a002842f56009d7e5cf4a8c75b82841061156257505050816106a1936106959282010193610685565b8054858501870152928501928101611546565b346103e157602060ff6115b461ffff610dfb8461159136610d27565b9490911660005260078252604060002082604051948386809551938492016105ed565b54166040519015158152f35b346103e15760003660031901126103e1576020601354604051908152f35b346103e15760203660031901126103e15761ffff6004356115fe816103d5565b166000526001602052610b8a61161e60406000206040519283809261106c565b80511561163c57610695816116366106a1935161279b565b90613837565b60405162461bcd60e51b815260206004820152601d60248201527f4c7a4170703a206e6f20747275737465642070617468207265636f72640000006044820152606490fd5b346103e15760403660031901126103e15760043561169e816107c8565b602435903360005260096020526116b98160406000206119ab565b54918083106116da576116ce9203903361249d565b60405160018152602090f35b60405162461bcd60e51b815260206004820152602560248201527f45524332303a2064656372656173656420616c6c6f77616e63652062656c6f77604482015264207a65726f60d81b6064820152608490fd5b346103e15760e03660031901126103e15760043561174a816103d5565b6001600160401b03906064358281116103e15761176b9036906004016103e6565b60849291923584811681036103e157611782610960565b9160c4359586116103e15761179e6117ae9636906004016103e6565b95909460443590602435906129d6565b60408051928352602083019190915290f35b346103e1576117ce36610b1a565b906117d7612284565b604051926020928083858701376118036034868381013060601b88820152036014810188520186610cb2565b61ffff8216600090815260018086526040822087519296909291906001600160401b038311610cad576118408361183a8654611032565b86612747565b80601f841160011461189e57509180809261188d9695948a9b600080516020613a648339815191529b94611893575b50501b916000199060031b1c19161790555b6040519384938461272c565b0390a180f35b01519250388061186f565b91939498601f1984166118b687600052602060002090565b938a905b82821061190b57505091600080516020613a64833981519152999a9593918561188d989694106118f2575b505050811b019055611881565b015160001960f88460031b161c191690553880806118e5565b8088869782949787015181550196019401906118ba565b346103e15760403660031901126103e157610803600435611942816107c8565b60243590336123ce565b346103e15760003660031901126103e1576040517f00000000000000000000000000000000000000000000000000000000000000006001600160a01b03168152602090f35b6001600160a01b0316600090815260086020526040902090565b9060018060a01b0316600052602052604060002090565b346103e15760403660031901126103e157602060ff6115b46024356119e6816107c8565b600435600052600f845260406000206119ab565b346103e15760203660031901126103e1577f5db758e995a17ec1ad84bdef7e8c3293a0bd6179bcce400dff5d4c3d87db726b6020600435611a3a816107c8565b611a42612284565b600480546001600160a01b0319166001600160a01b03929092169182179055604051908152a1005b346103e15760003660031901126103e15760206040516127108152f35b346103e15760803660031901126103e157600435611aa4816103d5565b602435611ab0816103d5565b6064356001600160401b0381116103e157611acf9036906004016103e6565b9092611ad9612284565b7f00000000000000000000000000000000000000000000000000000000000000006001600160a01b031690813b156103e15760008094611b50604051978896879586946332fb62e760e21b865261ffff8092166004870152166024850152604435604485015260806064850152608484019161270b565b03925af180156107bf57611b6057005b80611b6d61001992610c9a565b806105e2565b346103e15760003660031901126103e157600e546040516001600160a01b039091168152602090f35b611ba536610413565b9161ffff86949296166000526005602052611bd981604060002060206040518092878b833787820190815203019020610da7565b54918215611c8857611c778483611c707fc264d91f3adc5588250e1551f547752ca0cfa8f6b530d243b9f9f4cab10ea8e59a6000611c5c84611c578e8a8f611c839f908f611c3d90611c30611c519436908d610cf0565b6020815191012014612917565b61ffff166000526005602052604060002090565b916128fe565b610da7565b55611c6836878d610cf0565b933691610cf0565b9188612c01565b6040519586958661296d565b0390a1005b60405162461bcd60e51b815260206004820152602360248201527f4e6f6e626c6f636b696e674c7a4170703a206e6f2073746f726564206d65737360448201526261676560e81b6064820152608490fd5b346103e15760403660031901126103e1576020610e09600435611cfb816107c8565b60243590611d08826107c8565b6001600160a01b0316600090815260098452604090206119ab565b346103e15760003660031901126103e1576040517f00000000000000000000000000000000000000000000000000000000000000006001600160a01b03168152602090f35b346103e15760603660031901126103e157600435611d85816103d5565b602435611d91816103d5565b60443591611d9d612284565b8215611e1857611c837f9d5c7c0b934da8fefa9c7760c98383778a12dfbfc0c3b3106518f43fb9508ac09361ffff8316600052600260205280611df28560406000209061ffff16600052602052604060002090565b556040519384938460409194939294606082019561ffff80921683521660208201520152565b60405162461bcd60e51b81526020600482015260156024820152744c7a4170703a20696e76616c6964206d696e47617360581b6044820152606490fd5b346103e15760003660031901126103e157602060405160018152f35b346103e15760203660031901126103e1576004358015158091036103e15760207f1584ad594a70cbe1e6515592e1272a987d922b097ead875069cebe8b40c004a491611ebb612284565b60ff196006541660ff821617600655604051908152a1005b346103e1576101003660031901126103e157600435611ef1816103d5565b6001600160401b03906024358281116103e157611f129036906004016103e6565b91906044359084821682036103e157608435611f2d816107c8565b60c4359586116103e157611f486100199636906004016103e6565b94909360e4359660a4359460643593612acd565b346103e157611f6a36610b1a565b9190611f74612284565b61ffff82166000908152600160208181526040832092949291906001600160401b038711610cad57611fb087611faa8554611032565b85612747565b8590601f8811600114612005575091868087989361188d95600080516020613ae48339815191529993611ffa575b501b906000198460031b1c19161790556040519384938461272c565b880135925038611fde565b90601f19881661201a85600052602060002090565b9288905b82821061206e57505091889391600080516020613ae4833981519152989961188d969410612054575b505082811b019055611881565b870135600019600386901b60f8161c191690553880612047565b808685968294968c0135815501950193019061201e565b346103e15760403660031901126103e157602060ff6115b46024356120a9816107c8565b6004356000526010845260406000206119ab565b346103e15760003660031901126103e157602060ff600654166040519015158152f35b346103e15760203660031901126103e1576004356120fd816107c8565b612105612284565b6001600160a01b03908116801561214157600080546001600160a01b0319811683178255909216600080516020613aa48339815191528380a380f35b60405162461bcd60e51b815260206004820152602660248201527f4f776e61626c653a206e6577206f776e657220697320746865207a65726f206160448201526564647265737360d01b6064820152608490fd5b346103e15760803660031901126103e1576004356121b2816103d5565b602435906121bf826103d5565b6121ca6044356107c8565b604051633d7b2f6f60e21b815261ffff91821660048201529116602482015230604482015260648035908201526000816084817f00000000000000000000000000000000000000000000000000000000000000006001600160a01b03165afa80156107bf576106a191600091612248575b5060405191829182610635565b612263913d8091833e61225b8183610cb2565b8101906126a1565b3861223b565b346103e15760003660031901126103e1576020604051308152f35b6000546001600160a01b0316330361229857565b606460405162461bcd60e51b815260206004820152602060248201527f4f776e61626c653a2063616c6c6572206973206e6f7420746865206f776e65726044820152fd5b634e487b7160e01b600052601160045260246000fd5b90601f8201809211610abe57565b6051019081605111610abe57565b91908201809211610abe57565b1561232257565b60405162461bcd60e51b815260206004820152602360248201527f45524332303a207472616e7366657220746f20746865207a65726f206164647260448201526265737360e81b6064820152608490fd5b1561237a57565b60405162461bcd60e51b815260206004820152602660248201527f45524332303a207472616e7366657220616d6f756e7420657863656564732062604482015265616c616e636560d01b6064820152608490fd5b916001600160a01b03808416929091831561244a5761242f82600080516020613ac48339815191529461244594169661240888151561231b565b6124298461241583611991565b5461242282821015612373565b0391611991565b55611991565b8054820190556040519081529081906020820190565b0390a3565b60405162461bcd60e51b815260206004820152602560248201527f45524332303a207472616e736665722066726f6d20746865207a65726f206164604482015264647265737360d81b6064820152608490fd5b6001600160a01b03808216929190831561256557821693841561251557806125047f8c5be1e5ebec7d5bd14f71427d1e84f3dd0314c0f7b2291e5b200ac8c7c3b925946124ff6124459560018060a01b03166000526009602052604060002090565b6119ab565b556040519081529081906020820190565b60405162461bcd60e51b815260206004820152602260248201527f45524332303a20617070726f766520746f20746865207a65726f206164647265604482015261737360f01b6064820152608490fd5b60405162461bcd60e51b8152602060048201526024808201527f45524332303a20617070726f76652066726f6d20746865207a65726f206164646044820152637265737360e01b6064820152608490fd5b9060018060a01b03821660005260096020526125d68160406000206119ab565b5492600184016125e65750505050565b808410612601576125f893039161249d565b38808080611099565b60405162461bcd60e51b815260206004820152601d60248201527f45524332303a20696e73756666696369656e7420616c6c6f77616e63650000006044820152606490fd5b1561264d57565b60405162461bcd60e51b815260206004820152602660248201527f4c7a4170703a20696e76616c696420736f757263652073656e64696e6720636f6044820152651b9d1c9858dd60d21b6064820152608490fd5b6020818303126103e1578051906001600160401b0382116103e1570181601f820112156103e15780516126d381610cd5565b926126e16040519485610cb2565b818452602082840101116103e15761064691602080850191016105ed565b6040513d6000823e3d90fd5b908060209392818452848401376000828201840152601f01601f1916010190565b60409061ffff6106469593168152816020820152019161270b565b90601f811161275557505050565b600091825260208220906020601f850160051c83019410612791575b601f0160051c01915b82811061278657505050565b81815560010161277a565b9092508290612771565b601319810191908211610abe57565b605019810191908211610abe57565b92909161282b5a604051633356ae4560e11b602082015261ffff871660248201526080604482015290612825826128176127f660a483018a610610565b6001600160401b038816606484015282810360231901608484015288610610565b03601f198101845283610cb2565b306139e6565b93901561283a575b5050505050565b6128439461284d565b3880808080612833565b91936128eb7fe183f33de2837795525b4792ca4cd60535bd77c53b7e7030060bfcf5734d6b0c956128f9939561ffff815160208301209616958660005260056020526128b183610dfb60208b604060002082604051948386809551938492016105ed565b556128ce604051978897885260a0602089015260a0880190610610565b6001600160401b0390921660408701528582036060870152610610565b908382036080850152610610565b0390a1565b6020919283604051948593843782019081520301902090565b1561291e57565b60405162461bcd60e51b815260206004820152602160248201527f4e6f6e626c6f636b696e674c7a4170703a20696e76616c6964207061796c6f616044820152601960fa1b6064820152608490fd5b9160609361ffff612990939897969816845260806020850152608084019161270b565b6001600160401b0390951660408201520152565b903590601e19813603018212156103e157018035906001600160401b0382116103e1576020019181360383136103e157565b9491959897906112c76129ff6040996129f7612a0597612a22993691610cf0565b943691610cf0565b976132db565b928451968794859463040a7bb160e41b8652309060048701612bbd565b03817f00000000000000000000000000000000000000000000000000000000000000006001600160a01b03165afa9182156107bf576000908193612a6557509190565b905061047491925060403d8111610a6c57610a5d8183610cb2565b9396949161064698969361ffff612aa59316865260c0602087015260c086019161270b565b6001600160401b0390961660408401526060830152608082015280840360a09091015261270b565b91969792989594939094303303612b6257612ae99085306136af565b60405181815290946001600160a01b03169390849061ffff851690600080516020613a8483398151915290602090a3833b156103e1576000988995612b45936040519c8d9b8c9a8b98633fe79aed60e11b8a5260048a01612a80565b0393f180156107bf57612b555750565b80611b6d61111d92610c9a565b60405162461bcd60e51b815260206004820152601f60248201527f4f4654436f72653a2063616c6c6572206d757374206265204f4654436f7265006044820152606490fd5b91908260409103126103e1576020825192015190565b9192610646959361ffff612bec9316845260018060a01b0316602084015260a0604084015260a0830190610610565b92151560608201526080818403910152610610565b92919060ff612c0f8461398b565b1680612d495750505060ff612c238261398b565b161580612d3e575b612c34906133bf565b612c46612c408261393b565b916139d6565b90916001600160a01b039182841615612d34575b612c7590612c666136e6565b906001600160401b0316613347565b918316928315612cef57600080516020613a8483398151915291612caf61ffff92612caa612ca587600a5461230e565b600a55565b611991565b848154019055846000600080516020613ac483398151915260405180612cda89829190602083019252565b0390a360405193845216918060208101612445565b60405162461bcd60e51b815260206004820152601f60248201527f45524332303a206d696e7420746f20746865207a65726f2061646472657373006044820152606490fd5b61dead9350612c5a565b508051602914612c2b565b600103612d595761111d9361303f565b60405162461bcd60e51b815260206004820152601c60248201527b4f4654436f72653a20756e6b6e6f776e207061636b6574207479706560201b6044820152606490fd5b15612da457565b60405162461bcd60e51b815260206004820152601960248201527813d19510dbdc994e88185b5bdd5b9d081d1bdbc81cdb585b1b603a1b6044820152606490fd5b92612e0a61064697959361ffff612e189416865260c0602087015260c0860190610610565b908482036040860152610610565b6001600160a01b0391821660608401529316608082015280830360a090910152610610565b94612e669193929561ffff81166000526001602052612e6d60406000206040519485809261106c565b0384610cb2565b825115612ee557612e7f855182612f43565b7f00000000000000000000000000000000000000000000000000000000000000006001600160a01b031693843b156103e157600096612ed491604051998a988997889662c5803160e81b885260048801612de5565b03925af180156107bf57612b555750565b60405162461bcd60e51b815260206004820152603060248201527f4c7a4170703a2064657374696e6174696f6e20636861696e206973206e6f742060448201526f61207472757374656420736f7572636560801b6064820152608490fd5b61ffff166000526003602052604060002054908115612fa8575b11612f6457565b606460405162461bcd60e51b815260206004820152602060248201527f4c7a4170703a207061796c6f61642073697a6520697320746f6f206c617267656044820152fd5b6127109150612f5d565b9897969293612fdc60e0979361ffff6130119894168c5260208c61010091829101528c0190610610565b6001600160401b0390951660408b015260608a01526001600160a01b0316608089015260a088015286820360c0880152610610565b930152565b61302e60409295949395606083526060830190610610565b94600180841b031660208201520152565b909161304a84613470565b909161307b61307487611c5761306e8b61ffff166000526007602052604060002090565b8c610d81565b5460ff1690565b916130976130876136e6565b6001600160401b03938416613347565b9288888b8315613193575b505050853b1561314857946130e99694612825948a94612817948d996000146131415750505a925b5a978b6040519a8b9863757fea4d60e11b60208b015260248a01612fb2565b901561313657509061313161ffff928560207fb8890edbfc1c74692f527444645f95489c3703cc2df42e4a366f5d06fa6cd88496975191012090604051948594169684613016565b0390a2565b9261111d949261284d565b16926130ca565b50506040516001600160a01b039094168452507f9aedf5fdba8716db3b6705ca00150643309995d4f818a249ed6dde6677e7792d9750919550859450506020840192506128f9915050565b90611c576131c8926131c2896131ad6131d5979b3061365f565b9961ffff166000526007602052604060002090565b90610d81565b805460ff19166001179055565b88888b6130a2565b60065460ff161561322a5760228251106112ce5761ffff602261111d9301519116600052600260205261321d604060002060008052602052604060002090565b5490611295821515613232565b505161133f57565b1561323957565b60405162461bcd60e51b815260206004820152601a602482015279131e905c1c0e881b5a5b91d85cd31a5b5a5d081b9bdd081cd95d60321b6044820152606490fd5b1561328257565b60405162461bcd60e51b815260206004820152601b60248201527a4c7a4170703a20676173206c696d697420697320746f6f206c6f7760281b6044820152606490fd5b634e487b7160e01b600052601260045260246000fd5b6132e36136e6565b908115613342576001600160401b03919004818111613300571690565b60405162461bcd60e51b815260206004820152601a6024820152794f4654436f72653a20616d6f756e745344206f766572666c6f7760301b6044820152606490fd5b6132c5565b81810292918115918404141715610abe57565b6133626136e6565b801561334257810690818103908111610abe5791565b60405160006020820152602181019190915260c09190911b6001600160c01b031916604182015260298152606081016001600160401b03811182821017610cad5760405290565b156133c657565b60405162461bcd60e51b815260206004820152601860248201527713d19510dbdc994e881a5b9d985b1a59081c185e5b1bd85960421b6044820152606490fd5b939260719261064694604051968794600160f81b6020870152602186015260018060c01b0319809360c01b16604186015260018060a01b0316604985015260c01b16606983015261346081518092602086860191016105ed565b8101036051810184520182610cb2565b90613488600160ff6134818561398b565b16146133bf565b6134918261393b565b9061349b836139d6565b90604984511061350c5760498401519360518151106134d0576134cd6051820151916134c781516127aa565b906138b7565b91565b60405162461bcd60e51b8152602060048201526014602482015273746f55696e7436345f6f75744f66426f756e647360601b6044820152606490fd5b60405162461bcd60e51b8152602060048201526015602482015274746f427974657333325f6f75744f66426f756e647360581b6044820152606490fd5b6001600160a01b0381163381036135f8575b80156135a9578161357e84613571600095611991565b5461242282821015613608565b5561358c83600a5403600a55565b604051838152600080516020613ac483398151915290602090a390565b60405162461bcd60e51b815260206004820152602160248201527f45524332303a206275726e2066726f6d20746865207a65726f206164647265736044820152607360f81b6064820152608490fd5b6136038333846125b6565b61355b565b1561360f57565b60405162461bcd60e51b815260206004820152602260248201527f45524332303a206275726e20616d6f756e7420657863656564732062616c616e604482015261636560f01b6064820152608490fd5b6001600160a01b03811691908215612cef57600a5490828201809211610abe576000926136a0602092600080516020613ac483398151915294600a55611991565b818154019055604051908152a3565b6106469183916001600160a01b0381163081141590816136db575b50156123ce576109308333836125b6565b9050331415386136ca565b6040516303408e4760e41b81526020816004817f00000000000000000000000000000000000000000000000000000000000000006001600160a01b03165afa80156107bf5760009061377e575b61ffff915016600052600d602052613751604060002060ff90541690565b61375a57600190565b7f000000000000000000000000000000000000000000000000000000000000000090565b6020823d82116137b2575b8161379660209383610cb2565b81010312610726575061ffff90516137ad816103d5565b613733565b3d9150613789565b156137c157565b60405162461bcd60e51b815260206004820152600e60248201526d736c6963655f6f766572666c6f7760901b6044820152606490fd5b156137fe57565b60405162461bcd60e51b8152602060048201526011602482015270736c6963655f6f75744f66426f756e647360781b6044820152606490fd5b61384b82613844816122f2565b10156137ba565b61385882825110156137f7565b81613870575050604051600081526020810160405290565b60405191601f811691821560051b808486010193838501920101905b8084106138a45750508252601f01601f191660405290565b909283518152602080910193019061388c565b6138c482613844816122f2565b6138d981516138d284612300565b11156137f7565b816138f1575050604051600081526020810160405290565b60405191601f8116916051831560051b80858701019484860193010101905b8084106139285750508252601f01601f191660405290565b9092835181526020809101930190613910565b602181511061394e57602d015160601c90565b60405162461bcd60e51b8152602060048201526015602482015274746f416464726573735f6f75744f66426f756e647360581b6044820152606490fd5b600181511061399b576001015190565b60405162461bcd60e51b8152602060048201526013602482015272746f55696e74385f6f75744f66426f756e647360681b6044820152606490fd5b60298151106134d0576029015190565b6040519392909160009160c08601916001600160401b03831187841017610cad5783926040526096875282602088019560a036883760208451940192f1903d9060968211613a3a575b6000908286523e9190565b60969150613a2f56fed81fc9b8523134ed613870ed029d6170cbb73aa6a6bc311b9a642689fb9df59a8c0400cfe2d1199b1a725c78960bcc2a344d869b80590d0f2bd005db15a572cebf551ec93859b170f9b2141bd9298bf3f64322c6f7beb2543a0cb669834118bf8be0079c531659141344cd1fd0a4f28419497f9722a3daafe3b4186f6b6457e0ddf252ad1be2c89b69c2b068fc378daa952ba7f163c4a11628f55a4df523b3effa41487ad5d6728f0b19276fa1eddc16558578f5109fc39d2dc33c3230470daba2646970667358221220c2427655c648a7e9ae2fc9905014c3e76ebb7d02079146ae3b74213b337ac0f764736f6c63430008120033",
  "linkReferences": {},
  "deployedLinkReferences": {}
}