{
  "_format": "hh-sol-artifact-1",
  "contractName": "BBBorrow",
  "sourceName": "contracts/markets/bigBang/BBBorrow.sol",
  "abi": [
    {
      "anonymous": false,
      "inputs": [
        {
          "indexed": true,
          "internalType": "address",
          "name": "owner",
          "type": "address"
        },
        {
          "indexed": true,
          "internalType": "address",
          "name": "spender",
          "type": "address"
        },
        {
          "indexed": false,
          "internalType": "uint256",
          "name": "value",
          "type": "uint256"
        }
      ],
      "name": "Approval",
      "type": "event"
    },
    {
      "anonymous": false,
      "inputs": [
        {
          "indexed": true,
          "internalType": "address",
          "name": "owner",
          "type": "address"
        },
        {
          "indexed": true,
          "internalType": "address",
          "name": "spender",
          "type": "address"
        },
        {
          "indexed": true,
          "internalType": "uint256",
          "name": "value",
          "type": "uint256"
        }
      ],
      "name": "ApprovalBorrow",
      "type": "event"
    },
    {
      "anonymous": false,
      "inputs": [
        {
          "indexed": true,
          "internalType": "address",
          "name": "old",
          "type": "address"
        },
        {
          "indexed": true,
          "internalType": "address",
          "name": "_new",
          "type": "address"
        }
      ],
      "name": "ConservatorUpdated",
      "type": "event"
    },
    {
      "anonymous": false,
      "inputs": [
        {
          "indexed": true,
          "internalType": "uint256",
          "name": "oldVal",
          "type": "uint256"
        },
        {
          "indexed": true,
          "internalType": "uint256",
          "name": "newVal",
          "type": "uint256"
        }
      ],
      "name": "DebtRateAgainstEthUpdated",
      "type": "event"
    },
    {
      "anonymous": false,
      "inputs": [
        {
          "indexed": false,
          "internalType": "uint256",
          "name": "_oldVal",
          "type": "uint256"
        },
        {
          "indexed": false,
          "internalType": "uint256",
          "name": "_newVal",
          "type": "uint256"
        }
      ],
      "name": "ExchangeRateDurationUpdated",
      "type": "event"
    },
    {
      "anonymous": false,
      "inputs": [
        {
          "indexed": true,
          "internalType": "address",
          "name": "liquidator",
          "type": "address"
        },
        {
          "indexed": true,
          "internalType": "address[]",
          "name": "users",
          "type": "address[]"
        },
        {
          "indexed": true,
          "internalType": "uint256",
          "name": "liquidatorReward",
          "type": "uint256"
        },
        {
          "indexed": false,
          "internalType": "uint256",
          "name": "protocolReward",
          "type": "uint256"
        },
        {
          "indexed": false,
          "internalType": "uint256",
          "name": "repayedAmount",
          "type": "uint256"
        },
        {
          "indexed": false,
          "internalType": "uint256",
          "name": "collateralShareRemoved",
          "type": "uint256"
        }
      ],
      "name": "Liquidated",
      "type": "event"
    },
    {
      "anonymous": false,
      "inputs": [
        {
          "indexed": true,
          "internalType": "uint256",
          "name": "oldVal",
          "type": "uint256"
        },
        {
          "indexed": true,
          "internalType": "uint256",
          "name": "newVal",
          "type": "uint256"
        }
      ],
      "name": "LiquidationMultiplierUpdated",
      "type": "event"
    },
    {
      "anonymous": false,
      "inputs": [
        {
          "indexed": true,
          "internalType": "uint256",
          "name": "accruedAmount",
          "type": "uint256"
        },
        {
          "indexed": true,
          "internalType": "uint64",
          "name": "rate",
          "type": "uint64"
        }
      ],
      "name": "LogAccrue",
      "type": "event"
    },
    {
      "anonymous": false,
      "inputs": [
        {
          "indexed": true,
          "internalType": "address",
          "name": "from",
          "type": "address"
        },
        {
          "indexed": true,
          "internalType": "address",
          "name": "to",
          "type": "address"
        },
        {
          "indexed": true,
          "internalType": "uint256",
          "name": "share",
          "type": "uint256"
        }
      ],
      "name": "LogAddCollateral",
      "type": "event"
    },
    {
      "anonymous": false,
      "inputs": [
        {
          "indexed": true,
          "internalType": "address",
          "name": "from",
          "type": "address"
        },
        {
          "indexed": true,
          "internalType": "address",
          "name": "to",
          "type": "address"
        },
        {
          "indexed": true,
          "internalType": "uint256",
          "name": "amount",
          "type": "uint256"
        },
        {
          "indexed": false,
          "internalType": "uint256",
          "name": "feeAmount",
          "type": "uint256"
        },
        {
          "indexed": false,
          "internalType": "uint256",
          "name": "part",
          "type": "uint256"
        }
      ],
      "name": "LogBorrow",
      "type": "event"
    },
    {
      "anonymous": false,
      "inputs": [
        {
          "indexed": true,
          "internalType": "uint256",
          "name": "_oldVal",
          "type": "uint256"
        },
        {
          "indexed": true,
          "internalType": "uint256",
          "name": "_newVal",
          "type": "uint256"
        }
      ],
      "name": "LogBorrowCapUpdated",
      "type": "event"
    },
    {
      "anonymous": false,
      "inputs": [
        {
          "indexed": true,
          "internalType": "uint256",
          "name": "_oldVal",
          "type": "uint256"
        },
        {
          "indexed": true,
          "internalType": "uint256",
          "name": "_newVal",
          "type": "uint256"
        }
      ],
      "name": "LogBorrowingFee",
      "type": "event"
    },
    {
      "anonymous": false,
      "inputs": [
        {
          "indexed": true,
          "internalType": "uint256",
          "name": "rate",
          "type": "uint256"
        }
      ],
      "name": "LogExchangeRate",
      "type": "event"
    },
    {
      "anonymous": false,
      "inputs": [
        {
          "indexed": true,
          "internalType": "address",
          "name": "from",
          "type": "address"
        },
        {
          "indexed": true,
          "internalType": "address",
          "name": "to",
          "type": "address"
        },
        {
          "indexed": true,
          "internalType": "uint256",
          "name": "share",
          "type": "uint256"
        }
      ],
      "name": "LogRemoveCollateral",
      "type": "event"
    },
    {
      "anonymous": false,
      "inputs": [
        {
          "indexed": true,
          "internalType": "address",
          "name": "from",
          "type": "address"
        },
        {
          "indexed": true,
          "internalType": "address",
          "name": "to",
          "type": "address"
        },
        {
          "indexed": true,
          "internalType": "uint256",
          "name": "amount",
          "type": "uint256"
        },
        {
          "indexed": false,
          "internalType": "uint256",
          "name": "part",
          "type": "uint256"
        }
      ],
      "name": "LogRepay",
      "type": "event"
    },
    {
      "anonymous": false,
      "inputs": [
        {
          "indexed": true,
          "internalType": "uint256",
          "name": "oldVal",
          "type": "uint256"
        },
        {
          "indexed": true,
          "internalType": "uint256",
          "name": "newVal",
          "type": "uint256"
        }
      ],
      "name": "MaxDebtRateUpdated",
      "type": "event"
    },
    {
      "anonymous": false,
      "inputs": [
        {
          "indexed": true,
          "internalType": "uint256",
          "name": "oldVal",
          "type": "uint256"
        },
        {
          "indexed": true,
          "internalType": "uint256",
          "name": "newVal",
          "type": "uint256"
        }
      ],
      "name": "MinDebtRateUpdated",
      "type": "event"
    },
    {
      "anonymous": false,
      "inputs": [],
      "name": "OracleDataUpdated",
      "type": "event"
    },
    {
      "anonymous": false,
      "inputs": [],
      "name": "OracleUpdated",
      "type": "event"
    },
    {
      "anonymous": false,
      "inputs": [
        {
          "indexed": true,
          "internalType": "address",
          "name": "previousOwner",
          "type": "address"
        },
        {
          "indexed": true,
          "internalType": "address",
          "name": "newOwner",
          "type": "address"
        }
      ],
      "name": "OwnershipTransferred",
      "type": "event"
    },
    {
      "anonymous": false,
      "inputs": [
        {
          "indexed": true,
          "internalType": "enum Market.PauseType",
          "name": "_type",
          "type": "uint8"
        },
        {
          "indexed": true,
          "internalType": "bool",
          "name": "oldState",
          "type": "bool"
        },
        {
          "indexed": true,
          "internalType": "bool",
          "name": "newState",
          "type": "bool"
        }
      ],
      "name": "PausedUpdated",
      "type": "event"
    },
    {
      "anonymous": false,
      "inputs": [
        {
          "indexed": true,
          "internalType": "address",
          "name": "from",
          "type": "address"
        },
        {
          "indexed": true,
          "internalType": "address",
          "name": "to",
          "type": "address"
        },
        {
          "indexed": false,
          "internalType": "uint256",
          "name": "value",
          "type": "uint256"
        }
      ],
      "name": "Transfer",
      "type": "event"
    },
    {
      "inputs": [],
      "name": "DOMAIN_SEPARATOR",
      "outputs": [
        {
          "internalType": "bytes32",
          "name": "",
          "type": "bytes32"
        }
      ],
      "stateMutability": "view",
      "type": "function"
    },
    {
      "inputs": [],
      "name": "accrue",
      "outputs": [],
      "stateMutability": "nonpayable",
      "type": "function"
    },
    {
      "inputs": [],
      "name": "accrueInfo",
      "outputs": [
        {
          "internalType": "uint64",
          "name": "debtRate",
          "type": "uint64"
        },
        {
          "internalType": "uint64",
          "name": "lastAccrued",
          "type": "uint64"
        }
      ],
      "stateMutability": "view",
      "type": "function"
    },
    {
      "inputs": [
        {
          "internalType": "address",
          "name": "",
          "type": "address"
        },
        {
          "internalType": "address",
          "name": "",
          "type": "address"
        }
      ],
      "name": "allowance",
      "outputs": [
        {
          "internalType": "uint256",
          "name": "",
          "type": "uint256"
        }
      ],
      "stateMutability": "view",
      "type": "function"
    },
    {
      "inputs": [
        {
          "internalType": "address",
          "name": "",
          "type": "address"
        },
        {
          "internalType": "address",
          "name": "",
          "type": "address"
        }
      ],
      "name": "allowanceBorrow",
      "outputs": [
        {
          "internalType": "uint256",
          "name": "",
          "type": "uint256"
        }
      ],
      "stateMutability": "view",
      "type": "function"
    },
    {
      "inputs": [
        {
          "internalType": "address",
          "name": "spender",
          "type": "address"
        },
        {
          "internalType": "uint256",
          "name": "amount",
          "type": "uint256"
        }
      ],
      "name": "approve",
      "outputs": [
        {
          "internalType": "bool",
          "name": "",
          "type": "bool"
        }
      ],
      "stateMutability": "nonpayable",
      "type": "function"
    },
    {
      "inputs": [
        {
          "internalType": "address",
          "name": "spender",
          "type": "address"
        },
        {
          "internalType": "uint256",
          "name": "amount",
          "type": "uint256"
        }
      ],
      "name": "approveBorrow",
      "outputs": [
        {
          "internalType": "bool",
          "name": "",
          "type": "bool"
        }
      ],
      "stateMutability": "nonpayable",
      "type": "function"
    },
    {
      "inputs": [],
      "name": "asset",
      "outputs": [
        {
          "internalType": "contract IERC20",
          "name": "",
          "type": "address"
        }
      ],
      "stateMutability": "view",
      "type": "function"
    },
    {
      "inputs": [],
      "name": "assetId",
      "outputs": [
        {
          "internalType": "uint256",
          "name": "",
          "type": "uint256"
        }
      ],
      "stateMutability": "view",
      "type": "function"
    },
    {
      "inputs": [
        {
          "internalType": "address",
          "name": "",
          "type": "address"
        }
      ],
      "name": "balanceOf",
      "outputs": [
        {
          "internalType": "uint256",
          "name": "",
          "type": "uint256"
        }
      ],
      "stateMutability": "view",
      "type": "function"
    },
    {
      "inputs": [
        {
          "internalType": "address",
          "name": "from",
          "type": "address"
        },
        {
          "internalType": "address",
          "name": "to",
          "type": "address"
        },
        {
          "internalType": "uint256",
          "name": "amount",
          "type": "uint256"
        }
      ],
      "name": "borrow",
      "outputs": [
        {
          "internalType": "uint256",
          "name": "part",
          "type": "uint256"
        },
        {
          "internalType": "uint256",
          "name": "share",
          "type": "uint256"
        }
      ],
      "stateMutability": "nonpayable",
      "type": "function"
    },
    {
      "inputs": [],
      "name": "borrowOpeningFee",
      "outputs": [
        {
          "internalType": "uint256",
          "name": "",
          "type": "uint256"
        }
      ],
      "stateMutability": "view",
      "type": "function"
    },
    {
      "inputs": [],
      "name": "callerFee",
      "outputs": [
        {
          "internalType": "uint256",
          "name": "",
          "type": "uint256"
        }
      ],
      "stateMutability": "view",
      "type": "function"
    },
    {
      "inputs": [],
      "name": "claimOwnership",
      "outputs": [],
      "stateMutability": "nonpayable",
      "type": "function"
    },
    {
      "inputs": [],
      "name": "collateral",
      "outputs": [
        {
          "internalType": "contract IERC20",
          "name": "",
          "type": "address"
        }
      ],
      "stateMutability": "view",
      "type": "function"
    },
    {
      "inputs": [],
      "name": "collateralId",
      "outputs": [
        {
          "internalType": "uint256",
          "name": "",
          "type": "uint256"
        }
      ],
      "stateMutability": "view",
      "type": "function"
    },
    {
      "inputs": [],
      "name": "collateralizationRate",
      "outputs": [
        {
          "internalType": "uint256",
          "name": "",
          "type": "uint256"
        }
      ],
      "stateMutability": "view",
      "type": "function"
    },
    {
      "inputs": [
        {
          "internalType": "uint256",
          "name": "borrowPart",
          "type": "uint256"
        },
        {
          "internalType": "uint256",
          "name": "collateralPartInAsset",
          "type": "uint256"
        },
        {
          "internalType": "uint256",
          "name": "ratesPrecision",
          "type": "uint256"
        }
      ],
      "name": "computeClosingFactor",
      "outputs": [
        {
          "internalType": "uint256",
          "name": "",
          "type": "uint256"
        }
      ],
      "stateMutability": "view",
      "type": "function"
    },
    {
      "inputs": [
        {
          "internalType": "address",
          "name": "user",
          "type": "address"
        },
        {
          "internalType": "uint256",
          "name": "_exchangeRate",
          "type": "uint256"
        }
      ],
      "name": "computeLiquidatorReward",
      "outputs": [
        {
          "internalType": "uint256",
          "name": "",
          "type": "uint256"
        }
      ],
      "stateMutability": "view",
      "type": "function"
    },
    {
      "inputs": [
        {
          "internalType": "address",
          "name": "user",
          "type": "address"
        },
        {
          "internalType": "uint256",
          "name": "_exchangeRate",
          "type": "uint256"
        }
      ],
      "name": "computeTVLInfo",
      "outputs": [
        {
          "internalType": "uint256",
          "name": "amountToSolvency",
          "type": "uint256"
        },
        {
          "internalType": "uint256",
          "name": "minTVL",
          "type": "uint256"
        },
        {
          "internalType": "uint256",
          "name": "maxTVL",
          "type": "uint256"
        }
      ],
      "stateMutability": "view",
      "type": "function"
    },
    {
      "inputs": [],
      "name": "conservator",
      "outputs": [
        {
          "internalType": "address",
          "name": "",
          "type": "address"
        }
      ],
      "stateMutability": "view",
      "type": "function"
    },
    {
      "inputs": [],
      "name": "debtRateAgainstEthMarket",
      "outputs": [
        {
          "internalType": "uint256",
          "name": "",
          "type": "uint256"
        }
      ],
      "stateMutability": "view",
      "type": "function"
    },
    {
      "inputs": [],
      "name": "debtStartPoint",
      "outputs": [
        {
          "internalType": "uint256",
          "name": "",
          "type": "uint256"
        }
      ],
      "stateMutability": "view",
      "type": "function"
    },
    {
      "inputs": [],
      "name": "exchangeRate",
      "outputs": [
        {
          "internalType": "uint256",
          "name": "",
          "type": "uint256"
        }
      ],
      "stateMutability": "view",
      "type": "function"
    },
    {
      "inputs": [],
      "name": "getDebtRate",
      "outputs": [
        {
          "internalType": "uint256",
          "name": "",
          "type": "uint256"
        }
      ],
      "stateMutability": "view",
      "type": "function"
    },
    {
      "inputs": [],
      "name": "getTotalDebt",
      "outputs": [
        {
          "internalType": "uint256",
          "name": "",
          "type": "uint256"
        }
      ],
      "stateMutability": "view",
      "type": "function"
    },
    {
      "inputs": [],
      "name": "isMainMarket",
      "outputs": [
        {
          "internalType": "bool",
          "name": "",
          "type": "bool"
        }
      ],
      "stateMutability": "view",
      "type": "function"
    },
    {
      "inputs": [],
      "name": "liquidationBonusAmount",
      "outputs": [
        {
          "internalType": "uint256",
          "name": "",
          "type": "uint256"
        }
      ],
      "stateMutability": "view",
      "type": "function"
    },
    {
      "inputs": [],
      "name": "liquidationCollateralizationRate",
      "outputs": [
        {
          "internalType": "uint256",
          "name": "",
          "type": "uint256"
        }
      ],
      "stateMutability": "view",
      "type": "function"
    },
    {
      "inputs": [],
      "name": "liquidationMultiplier",
      "outputs": [
        {
          "internalType": "uint256",
          "name": "",
          "type": "uint256"
        }
      ],
      "stateMutability": "view",
      "type": "function"
    },
    {
      "inputs": [],
      "name": "maxDebtRate",
      "outputs": [
        {
          "internalType": "uint256",
          "name": "",
          "type": "uint256"
        }
      ],
      "stateMutability": "view",
      "type": "function"
    },
    {
      "inputs": [],
      "name": "maxLiquidatorReward",
      "outputs": [
        {
          "internalType": "uint256",
          "name": "",
          "type": "uint256"
        }
      ],
      "stateMutability": "view",
      "type": "function"
    },
    {
      "inputs": [],
      "name": "minDebtRate",
      "outputs": [
        {
          "internalType": "uint256",
          "name": "",
          "type": "uint256"
        }
      ],
      "stateMutability": "view",
      "type": "function"
    },
    {
      "inputs": [],
      "name": "minLiquidatorReward",
      "outputs": [
        {
          "internalType": "uint256",
          "name": "",
          "type": "uint256"
        }
      ],
      "stateMutability": "view",
      "type": "function"
    },
    {
      "inputs": [
        {
          "internalType": "address",
          "name": "owner",
          "type": "address"
        }
      ],
      "name": "nonces",
      "outputs": [
        {
          "internalType": "uint256",
          "name": "",
          "type": "uint256"
        }
      ],
      "stateMutability": "view",
      "type": "function"
    },
    {
      "inputs": [
        {
          "internalType": "address",
          "name": "user",
          "type": "address"
        }
      ],
      "name": "openingFees",
      "outputs": [
        {
          "internalType": "uint256",
          "name": "fee",
          "type": "uint256"
        }
      ],
      "stateMutability": "view",
      "type": "function"
    },
    {
      "inputs": [],
      "name": "oracle",
      "outputs": [
        {
          "internalType": "contract IOracle",
          "name": "",
          "type": "address"
        }
      ],
      "stateMutability": "view",
      "type": "function"
    },
    {
      "inputs": [],
      "name": "oracleData",
      "outputs": [
        {
          "internalType": "bytes",
          "name": "",
          "type": "bytes"
        }
      ],
      "stateMutability": "view",
      "type": "function"
    },
    {
      "inputs": [],
      "name": "owner",
      "outputs": [
        {
          "internalType": "address",
          "name": "",
          "type": "address"
        }
      ],
      "stateMutability": "view",
      "type": "function"
    },
    {
      "inputs": [
        {
          "internalType": "enum Market.PauseType",
          "name": "pauseProp",
          "type": "uint8"
        }
      ],
      "name": "pauseOptions",
      "outputs": [
        {
          "internalType": "bool",
          "name": "pauseStatus",
          "type": "bool"
        }
      ],
      "stateMutability": "view",
      "type": "function"
    },
    {
      "inputs": [],
      "name": "pendingOwner",
      "outputs": [
        {
          "internalType": "address",
          "name": "",
          "type": "address"
        }
      ],
      "stateMutability": "view",
      "type": "function"
    },
    {
      "inputs": [],
      "name": "penrose",
      "outputs": [
        {
          "internalType": "contract IPenrose",
          "name": "",
          "type": "address"
        }
      ],
      "stateMutability": "view",
      "type": "function"
    },
    {
      "inputs": [
        {
          "internalType": "address",
          "name": "owner",
          "type": "address"
        },
        {
          "internalType": "address",
          "name": "spender",
          "type": "address"
        },
        {
          "internalType": "uint256",
          "name": "value",
          "type": "uint256"
        },
        {
          "internalType": "uint256",
          "name": "deadline",
          "type": "uint256"
        },
        {
          "internalType": "uint8",
          "name": "v",
          "type": "uint8"
        },
        {
          "internalType": "bytes32",
          "name": "r",
          "type": "bytes32"
        },
        {
          "internalType": "bytes32",
          "name": "s",
          "type": "bytes32"
        }
      ],
      "name": "permit",
      "outputs": [],
      "stateMutability": "nonpayable",
      "type": "function"
    },
    {
      "inputs": [
        {
          "internalType": "bytes",
          "name": "data",
          "type": "bytes"
        },
        {
          "internalType": "uint16",
          "name": "actionType",
          "type": "uint16"
        }
      ],
      "name": "permitAction",
      "outputs": [],
      "stateMutability": "nonpayable",
      "type": "function"
    },
    {
      "inputs": [
        {
          "internalType": "address",
          "name": "owner",
          "type": "address"
        },
        {
          "internalType": "address",
          "name": "spender",
          "type": "address"
        },
        {
          "internalType": "uint256",
          "name": "value",
          "type": "uint256"
        },
        {
          "internalType": "uint256",
          "name": "deadline",
          "type": "uint256"
        },
        {
          "internalType": "uint8",
          "name": "v",
          "type": "uint8"
        },
        {
          "internalType": "bytes32",
          "name": "r",
          "type": "bytes32"
        },
        {
          "internalType": "bytes32",
          "name": "s",
          "type": "bytes32"
        }
      ],
      "name": "permitBorrow",
      "outputs": [],
      "stateMutability": "nonpayable",
      "type": "function"
    },
    {
      "inputs": [],
      "name": "protocolFee",
      "outputs": [
        {
          "internalType": "uint256",
          "name": "",
          "type": "uint256"
        }
      ],
      "stateMutability": "view",
      "type": "function"
    },
    {
      "inputs": [],
      "name": "rateTimestamp",
      "outputs": [
        {
          "internalType": "uint256",
          "name": "",
          "type": "uint256"
        }
      ],
      "stateMutability": "view",
      "type": "function"
    },
    {
      "inputs": [],
      "name": "rateValidDuration",
      "outputs": [
        {
          "internalType": "uint256",
          "name": "",
          "type": "uint256"
        }
      ],
      "stateMutability": "view",
      "type": "function"
    },
    {
      "inputs": [
        {
          "internalType": "address",
          "name": "from",
          "type": "address"
        },
        {
          "internalType": "address",
          "name": "to",
          "type": "address"
        },
        {
          "internalType": "bool",
          "name": "",
          "type": "bool"
        },
        {
          "internalType": "uint256",
          "name": "part",
          "type": "uint256"
        }
      ],
      "name": "repay",
      "outputs": [
        {
          "internalType": "uint256",
          "name": "amount",
          "type": "uint256"
        }
      ],
      "stateMutability": "nonpayable",
      "type": "function"
    },
    {
      "inputs": [
        {
          "internalType": "uint256",
          "name": "_borrowOpeningFee",
          "type": "uint256"
        },
        {
          "internalType": "contract IOracle",
          "name": "_oracle",
          "type": "address"
        },
        {
          "internalType": "bytes",
          "name": "_oracleData",
          "type": "bytes"
        },
        {
          "internalType": "address",
          "name": "_conservator",
          "type": "address"
        },
        {
          "internalType": "uint256",
          "name": "_callerFee",
          "type": "uint256"
        },
        {
          "internalType": "uint256",
          "name": "_protocolFee",
          "type": "uint256"
        },
        {
          "internalType": "uint256",
          "name": "_liquidationBonusAmount",
          "type": "uint256"
        },
        {
          "internalType": "uint256",
          "name": "_minLiquidatorReward",
          "type": "uint256"
        },
        {
          "internalType": "uint256",
          "name": "_maxLiquidatorReward",
          "type": "uint256"
        },
        {
          "internalType": "uint256",
          "name": "_totalBorrowCap",
          "type": "uint256"
        },
        {
          "internalType": "uint256",
          "name": "_collateralizationRate",
          "type": "uint256"
        },
        {
          "internalType": "uint256",
          "name": "_liquidationCollateralizationRate",
          "type": "uint256"
        }
      ],
      "name": "setMarketConfig",
      "outputs": [],
      "stateMutability": "nonpayable",
      "type": "function"
    },
    {
      "inputs": [],
      "name": "totalBorrow",
      "outputs": [
        {
          "internalType": "uint128",
          "name": "elastic",
          "type": "uint128"
        },
        {
          "internalType": "uint128",
          "name": "base",
          "type": "uint128"
        }
      ],
      "stateMutability": "view",
      "type": "function"
    },
    {
      "inputs": [],
      "name": "totalBorrowCap",
      "outputs": [
        {
          "internalType": "uint256",
          "name": "",
          "type": "uint256"
        }
      ],
      "stateMutability": "view",
      "type": "function"
    },
    {
      "inputs": [],
      "name": "totalCollateralShare",
      "outputs": [
        {
          "internalType": "uint256",
          "name": "",
          "type": "uint256"
        }
      ],
      "stateMutability": "view",
      "type": "function"
    },
    {
      "inputs": [],
      "name": "totalSupply",
      "outputs": [
        {
          "internalType": "uint256",
          "name": "",
          "type": "uint256"
        }
      ],
      "stateMutability": "view",
      "type": "function"
    },
    {
      "inputs": [
        {
          "internalType": "address",
          "name": "to",
          "type": "address"
        },
        {
          "internalType": "uint256",
          "name": "amount",
          "type": "uint256"
        }
      ],
      "name": "transfer",
      "outputs": [
        {
          "internalType": "bool",
          "name": "",
          "type": "bool"
        }
      ],
      "stateMutability": "nonpayable",
      "type": "function"
    },
    {
      "inputs": [
        {
          "internalType": "address",
          "name": "from",
          "type": "address"
        },
        {
          "internalType": "address",
          "name": "to",
          "type": "address"
        },
        {
          "internalType": "uint256",
          "name": "amount",
          "type": "uint256"
        }
      ],
      "name": "transferFrom",
      "outputs": [
        {
          "internalType": "bool",
          "name": "",
          "type": "bool"
        }
      ],
      "stateMutability": "nonpayable",
      "type": "function"
    },
    {
      "inputs": [
        {
          "internalType": "address",
          "name": "newOwner",
          "type": "address"
        },
        {
          "internalType": "bool",
          "name": "direct",
          "type": "bool"
        },
        {
          "internalType": "bool",
          "name": "renounce",
          "type": "bool"
        }
      ],
      "name": "transferOwnership",
      "outputs": [],
      "stateMutability": "nonpayable",
      "type": "function"
    },
    {
      "inputs": [],
      "name": "updateExchangeRate",
      "outputs": [
        {
          "internalType": "bool",
          "name": "updated",
          "type": "bool"
        },
        {
          "internalType": "uint256",
          "name": "rate",
          "type": "uint256"
        }
      ],
      "stateMutability": "nonpayable",
      "type": "function"
    },
    {
      "inputs": [
        {
          "internalType": "enum Market.PauseType",
          "name": "_type",
          "type": "uint8"
        },
        {
          "internalType": "bool",
          "name": "val",
          "type": "bool"
        }
      ],
      "name": "updatePause",
      "outputs": [],
      "stateMutability": "nonpayable",
      "type": "function"
    },
    {
      "inputs": [
        {
          "internalType": "address",
          "name": "",
          "type": "address"
        }
      ],
      "name": "userBorrowPart",
      "outputs": [
        {
          "internalType": "uint256",
          "name": "",
          "type": "uint256"
        }
      ],
      "stateMutability": "view",
      "type": "function"
    },
    {
      "inputs": [
        {
          "internalType": "address",
          "name": "",
          "type": "address"
        }
      ],
      "name": "userCollateralShare",
      "outputs": [
        {
          "internalType": "uint256",
          "name": "",
          "type": "uint256"
        }
      ],
      "stateMutability": "view",
      "type": "function"
    },
    {
      "inputs": [],
      "name": "yieldBox",
      "outputs": [
        {
          "internalType": "contract YieldBox",
          "name": "",
          "type": "address"
        }
      ],
      "stateMutability": "view",
      "type": "function"
    }
  ],
  "bytecode": "0x6101408060405234620001895762000017816200018e565b600f81526001602082016e546170696f63612042696742616e6760881b8152602060405162000046816200018e565b8381520192603160f81b845251902091208160e052610100918183524660a0526040519160208301907f8b73c3c69bb8fe3d512ecc4cf759cc79239f7b179b0ffacaa9a75d522b39400f92838352604085015260608401524660808401523060a084015260a0835260c083019280841060018060401b03851117620001735760408490525190206080523060c052610120908152600580546001600160a01b0319163390811790915560007f8be0079c531659141344cd1fd0a4f28419497f9722a3daafe3b4186f6b6457e08180a362013880601b5562015f90601c55612710601d556032602055612ee0602155613a8c9283620001ab8439608051836127cf015260a05183612899015260c05183612799015260e0518361281e01525182612844015251816127fb0152f35b634e487b7160e01b600052604160045260246000fd5b600080fd5b604081019081106001600160401b03821117620001735760405256fe60806040908082526004918236101561001757600080fd5b60009260e08435811c938462a02a2014611d865750836302ce728f14611d5d578363078dfbe714611c6a578363095ea7b314611c405783630996efb71461178a5783630c4e84f01461167357836318160ddd146116585783631c9e379b146116205783631da8bf10146115785783631fb8f81a1461155957836323b872dd146113d1578363331960ff146113b257836334ce998a1461138957836334d441d01461136a5783633644e5151461134d57836337b6b7b91461132e57836338d52e0f146113055783633ba0b9a9146112e65783633f741adb146112bd57836340626d8b1461129e57836344de240a1461127f578363473e3ce71461126057836348e4163e146112285783634e71e0c8146111855783635224372c146110ce578363529898f2146110af57836357935462146110905783636b19ad16146110715783636c3d8b8f1461104857836370a08231146110105783637277854714610fd857836374645ff314610ed95783637dc0d1d014610eb05783637ecebe0014610e795783637fa0b84e14610e485783638285ef4014610e1757836387b2793714610ddf5783638c5d0ed314610dc05783638da5cb5b14610d97578363910dd7c814610b62578363959916dc14610b4457836399a9702814610b1b5783639e15e89f14610ae0578363a9059cbb14610a05578363b0e21e8a146109e6578363b27c0e74146109b4578363b7113f1914610990578363bb4cfe3b14610971578363bde39c5d14610952578363c1ad5c8d1461092e578363cd0211eb146105b3578363ce8849ed1461058a578363d505accf146104395750508163d8dfeb4514610410578163dd62ed3e146103c2578163de40657714610399578163e0996cb61461037a578163e30c397814610351578163ea64dd5614610332578163eec0f42e14610313578163f791395d146102f0575063f8ba4cff146102d257600080fd5b346102ed57806003193601126102ed576102ea61376b565b80f35b80fd5b90503461030f578160031936011261030f576020906028549051908152f35b5080fd5b90503461030f578160031936011261030f57602090600c549051908152f35b90503461030f578160031936011261030f57602090601f549051908152f35b90503461030f578160031936011261030f5760065490516001600160a01b039091168152602090f35b90503461030f578160031936011261030f57602090601d549051908152f35b90503461030f578160031936011261030f5760095490516001600160a01b039091168152602090f35b90503461030f578060031936011261030f576020916103df611dcd565b826103e8611de8565b6001600160a01b03928316845260028652922091166000908152908352819020549051908152f35b90503461030f578160031936011261030f57600b5490516001600160a01b039091168152602090f35b908491346105865761044a36611e1c565b918394989597934211610555579161050a91610512938c8b8b60018060a01b0398898d169a8b93846000528d602052856000209081549161048a83612aef565b90558c8751956020870197600080516020613997833981519152895260008a890152606088015216608086015260a085015260c08401528183015281526104d081611f4d565b5190206104db612796565b915190602082019261190160f01b8452602283015260428201526042815261050281611f69565b519020612a6a565b91909161296b565b160361052457506102ea939450612b4c565b606490602087519162461bcd60e51b8352820152601e60248201526000805160206139778339815191526044820152fd5b8a5162461bcd60e51b8152602081880152601d60248201526000805160206139578339815191526044820152606490fd5b8280fd5b84833461030f578160031936011261030f5760085490516001600160a01b039091168152602090f35b5083823461030f57608036600319011261030f576105cf611dcd565b916105d8611de8565b936105e1611e0d565b50606435600183526020956007875261060060ff868620541615612ba3565b6001600160a01b03918183169161061930841415612be0565b610621612297565b505061062b61376b565b61067061065f6106428461063d6131be565b613434565b90506011549060ff61065789600d5416613121565b1691856132e1565b61066a811515612c2b565b89613364565b8286526017895286862054808311610926575b5081156108eb5781610694916138c2565b96818810156108b057828652602489528686206106b28982546120a4565b90556106c08261063d6131be565b9890899060018060801b03815116908c60018060801b031991015160801b161760145584885260178b528888206106f88582546120a4565b90558989888860095416868c600e546107268651978896879586946311a5cc7760e31b865230928601613893565b03925af180156108a6578c9388938c8e9998979461075b94610878575b505061074f878a6120a4565b80610855575b506120a4565b806107cf575b50895193845216916000805160206139b78339815191529190a4600a541690813b15610586578351632ebe913360e21b81529183918391829084905af180156107c5576107b1575b505051908152f35b6107bb8291611f09565b6102ed57806107a9565b83513d84823e3d90fd5b925092939450600d541690813b1561085157610804889283928b51948580948193632770a7eb60e21b83528d30908401613862565b03925af1801561084757918a918a959493610822575b908691610761565b6000805160206139b783398151915292919861083e8892611f09565b9891925061081a565b88513d89823e3d90fd5b8780fd5b610872915061086b620186a091601a549061204d565b04896120a4565b8f610755565b8161089792903d1061089f575b61088f8183611f84565b81019061387d565b8e9150610743565b503d610885565b8a513d8b823e3d90fd5b865162461bcd60e51b81528086018a9052601560248201527442423a2072657061796d656e7420746f6f206c6f7760581b6044820152606490fd5b865162461bcd60e51b81528086018a9052601560248201527453474c3a206e6f7468696e6720746f20726570617960581b6044820152606490fd5b915089610683565b84833461030f578160031936011261030f5760209061094b6134e8565b9051908152f35b84833461030f578160031936011261030f576020906029549051908152f35b84833461030f578160031936011261030f57602090601e549051908152f35b84833461030f578160031936011261030f5760209060ff6026541690519015158152f35b8285346102ed57806003193601126102ed575060255481516001600160401b03808316825291831c9091166020820152f35b84833461030f578160031936011261030f57602090601a549051908152f35b84833461030f578060031936011261030f57602091610a22611dcd565b82602435928315801590610ace575b610a61575b50519182526001600160a01b0316903390600080516020613a17833981519152908590a35160018152f35b3381526001865281812054610a78858210156128bf565b6001600160a01b038416908533839003610a95575b505050610a36565b610aa991610aa4841515612904565b6120a4565b3383526001885283832055815220610ac28382546120b1565b90558285808085610a8d565b50336001600160a01b03841614610a31565b84833461030f578060031936011261030f57606090610b09610b00611dcd565b602435906121f0565b91929081519384526020840152820152f35b84833461030f578060031936011261030f5760209061094b610b3b611dcd565b60243590612664565b84833461030f578160031936011261030f5760209081549051908152f35b92509034610d935780600319360112610d93578135926001600160401b038411610d8f5736602385011215610d8f578383013592610b9f84611fa7565b94610bac84519687611f84565b84865286602091828801963660248284010111610586578060248593018937880101526024359361ffff851680950361085157610100958688805181010312610d8b57610bf89061228a565b93610c04828901612949565b90610c1160608a01612949565b9860808101519860a082015192610c2a60c0840161295d565b91818401519301519360018060a01b03808097169d169a814211610d5a57928d8f819897948f948f8f968f918f959a8f8c8195610cf49f9c61050a9f50600014610d45576000805160206139978339815191529a5b825289522093845494610c9186612aef565b905580519788019889528701528d6060870152608086015260a085015260c0840152818301528152610cc281611f4d565b519020610ccd612796565b908951908b82019261190160f01b8452602283015260428201526042815261050281611f69565b1603610d1657505050600014610d0d576102ea92612b4c565b6102ea92612afe565b5162461bcd60e51b815291820152601e6024820152600080516020613977833981519152604482015260649150fd5b6000805160206139f78339815191529a610c7f565b875162461bcd60e51b8152808b018a9052601d60248201526000805160206139578339815191526044820152606490fd5b8880fd5b8480fd5b8380fd5b84833461030f578160031936011261030f5760055490516001600160a01b039091168152602090f35b84833461030f578160031936011261030f57602090601b549051908152f35b84833461030f57602036600319011261030f5760209181906001600160a01b03610e07611dcd565b1681526024845220549051908152f35b8285346102ed57806003193601126102ed575060145481516001600160801b038216815260809190911c6020820152f35b84833461030f578060031936011261030f57602090610e72610e68611dcd565b6024359033612afe565b5160018152f35b848383346105865760203660031901126105865760209282916001600160a01b03610ea2611dcd565b168252845220549051908152f35b84833461030f578160031936011261030f57600f5490516001600160a01b039091168152602090f35b84833461030f578160031936011261030f5780516010548184610efb83611ecf565b808352600193808516908115610fb75750600114610f6c575b50610f2492509492940384611f84565b815192839160208084528251928382860152825b848110610f5657505050828201840152601f01601f19168101030190f35b8181018301518882018801528795508201610f38565b60108752600080516020613a3783398151915293602092508791905b818310610f9f575050610f24935082010186610f14565b85548784018501529485019486945091830191610f88565b9050610f2494506020925060ff191682840152151560051b82010186610f14565b8483833461058657602036600319011261058657359160098310156102ed575060ff611005602093611ea0565b541690519015158152f35b84833461030f57602036600319011261030f5760209181906001600160a01b03611038611dcd565b1681526001845220549051908152f35b84833461030f578160031936011261030f57600a5490516001600160a01b039091168152602090f35b84833461030f578160031936011261030f576020906027549051908152f35b84833461030f578160031936011261030f57602090601c549051908152f35b84833461030f578160031936011261030f576020906021549051908152f35b848383346105865761113c9061113060ff84956111036110ed36611e6b565b9491989093808052600760205220541615612ba3565b6111186001600160a01b038216301415612be0565b611120612297565b505061112a61376b565b85612c81565b929093601154906131e4565b1561114e575082519182526020820152f35b606490602085519162461bcd60e51b8352820152601160248201527013585c9ad95d0e881a5b9cdbdb1d995b9d607a1b6044820152fd5b509150346105865782600319360112610586576006546001600160a01b039290918383169190338390036111e5575050806005549384166000805160206139d78339815191528680a36001600160a01b0319928316176005551660065580f35b906020606492519162461bcd60e51b8352820152602060248201527f4f776e61626c653a2063616c6c657220213d2070656e64696e67206f776e65726044820152fd5b84833461030f57602036600319011261030f5760209181906001600160a01b03611250611dcd565b1681526017845220549051908152f35b84833461030f578160031936011261030f576020906015549051908152f35b84833461030f578160031936011261030f57602090600e549051908152f35b84833461030f578160031936011261030f576020906016549051908152f35b509083346102ed5760603660031901126102ed575061094b6020926044359060243590356120d7565b84833461030f578160031936011261030f576020906011549051908152f35b84833461030f578160031936011261030f57600d5490516001600160a01b039091168152602090f35b84833461030f578160031936011261030f576020906012549051908152f35b84833461030f578160031936011261030f5760209061094b612796565b84833461030f578160031936011261030f576020906019549051908152f35b84833461030f578160031936011261030f5760145490516001600160801b039091168152602090f35b84833461030f578160031936011261030f576020906013549051908152f35b509083346102ed576113e236611e6b565b91928261141c575b508351918252602094506001600160a01b03908116921690600080516020613a17833981519152908590a35160018152f35b6001600160a01b038481168083526001602090815287842054919892909190611447878310156128bf565b851692838a0361145b575b505050506113ea565b8985526002835288852033865283528885205490600182016114c5575b5050928260209960018a946114a48a8e99610aa4600080516020613a178339815191529c9a1515612904565b92855252838320558152206114ba8582546120b1565b905591878080611452565b87821061151b57509260209960018a946114a48a8e99966114f682600080516020613a178339815191529d9b6120a4565b86895260028552898920338a5285528989205596995050509450509981949650611478565b895162461bcd60e51b8152908101849052601860248201527745524332303a20616c6c6f77616e636520746f6f206c6f7760401b6044820152606490fd5b84833461030f578160031936011261030f57602090602a549051908152f35b908491346105865761158936611e1c565b9397949690928042116105555793869361160e938c8c8961050a968e9a8e60018060a01b03809c169c8d948587526020528c878720928354936115cb85612aef565b905588519660208801986000805160206139f78339815191528a528a890152606088015216608086015260a085015260c08401528183015281526104d081611f4d565b160361052457506102ea939450612afe565b84833461030f57602036600319011261030f5760209181906001600160a01b03611648611dcd565b1681526018845220549051908152f35b84833461030f578160031936011261030f5751908152602090f35b848383346105865781600319360112610586578035906009821015610d935761169a611dfe565b6008549093906001600160a01b031633036117505760ff6116ba84611ea0565b54161515931515938414611718575050808260ff6116da61170894611ea0565b54161515827feeec81de25875ce1725479bb76f720a8defdb43dea041919ae37bb4aae9847c08780a4611ea0565b9060ff8019835416911617905580f35b906020606492519162461bcd60e51b835282015260126024820152714d61726b65743a2073616d6520737461746560701b6044820152fd5b906020606492519162461bcd60e51b8352820152601460248201527313585c9ad95d0e881d5b985d5d1a1bdc9a5e995960621b6044820152fd5b848383346105865761018036600319011261058657602480356001600160a01b0381811691829003611c3c576001600160401b036044358181116108515736602382011215610851578086013591821161085157368583830101116108515760643593838516809503610d8b5761180684600554163314611fc2565b863580611bfc575b5080611bbe575b508482611a64575b50505081611a24575b505060843580611a0c575b5060a435806119f4575b5060c435806119dd575b5060e435806119b9575b506101043580611995575b506101243580611964575b5061014435806118f3575b5061016435928361187f578480f35b601e54841061189657505050601f55818080808480f35b608492916020603292519362461bcd60e51b85528401528201527f4d61726b65743a206c69717569646174696f6e436f6c6c61746572616c697a616044820152711d1a5bdb94985d19481d1bdbc81cdb585b1b60721b6064820152fd5b611902620186a082111561200d565b601f54811161191457601e5584611870565b506025906020608494519362461bcd60e51b85528401528201527f4d61726b65743a20636f6c6c61746572616c697a6174696f6e5261746520746f6044820152646f2062696760d81b6064820152fd5b806016547fae6e0ab3b95f0a53ff9660a390ccedcbbf1f2355dce974a9841af106fddcfaba8780a360165584611865565b6119a3620186a0821061200d565b6119b0601b54821161200d565b601c558461185a565b6119c7620186a0821061200d565b6119d4601c54821061200d565b601b558461184f565b6119eb620186a0821061200d565b601d5584611845565b611a03620186a082111561200d565b601a558461183b565b611a1b620186a082111561200d565b60195584611831565b816008549182167f5a62d22209e370e38eea92cfddcd228e656e6ec139243392a760a7769f5877fd8880a36001600160a01b031916176008558480611826565b8291611a71601054611ecf565b601f8111611b5f575b508990601f8411600114611adf578a93611ad2575b5050508160011b916000199060031b1c1916176010555b7fa6f004921c944d4b8bf6e38462b00f36a58d62495d56b51f571ab78f732c98158680a186808461181d565b0101359050848980611a8f565b60108b52601f1984169450600080516020613a3783398151915292509087908b60205b878210611b405750508460019610611b24575b50505050811b01601055611aa6565b60001960f88660031b161c199201013516905588808681611b15565b8285019093013585556001949094019389929182019190810190611b02565b60108b529092509050600080516020613a37833981519152601f840160051c810160208510611bb7575b91849391601f8994920160051c01905b818110611ba65750611a7a565b8b8155859450889350600101611b99565b5080611b89565b600f80546001600160a01b0319169190911790557f0b2d6eb667d0522c3eb86e4288afecae6c11591ffd1345d4d12407e0598bca9b8880a188611815565b611c0b620186a082111561200d565b806020547fc353b09af857951dccce61b43a5854fc45beceed36c50e5d4cc2e71858a8e0df8c80a36020558961180e565b8580fd5b84833461030f578060031936011261030f57602090610e72611c60611dcd565b6024359033612b4c565b5091503461058657606036600319011261058657611c86611dcd565b91611c8f611dfe565b91611c98611e0d565b9260018060a01b03948591611cb283600554163314611fc2565b15611d44571692831590811591611d3c575b5015611d01575050806005549283166000805160206139d78339815191528580a36001600160a01b03199182161760055560068054909116905580f35b906020606492519162461bcd60e51b835282015260156024820152744f776e61626c653a207a65726f206164647265737360581b6044820152fd5b905038611cc4565b93505050501660018060a01b0319600654161760065580f35b8285346102ed57806003193601126102ed5750611d78612297565b825191151582526020820152f35b9350505034610586578060031936011261058657602092611da5611dcd565b611dad611de8565b6001600160a01b0391821683526003865283832091168252845220548152f35b600435906001600160a01b0382168203611de357565b600080fd5b602435906001600160a01b0382168203611de357565b602435908115158203611de357565b604435908115158203611de357565b60e0906003190112611de3576001600160a01b03906004358281168103611de357916024359081168103611de35790604435906064359060843560ff81168103611de3579060a4359060c43590565b6060906003190112611de3576001600160a01b03906004358281168103611de357916024359081168103611de3579060443590565b6009811015611eb9576000526007602052604060002090565b634e487b7160e01b600052602160045260246000fd5b90600182811c92168015611eff575b6020831014611ee957565b634e487b7160e01b600052602260045260246000fd5b91607f1691611ede565b6001600160401b038111611f1c57604052565b634e487b7160e01b600052604160045260246000fd5b604081019081106001600160401b03821117611f1c57604052565b61010081019081106001600160401b03821117611f1c57604052565b608081019081106001600160401b03821117611f1c57604052565b601f909101601f19168101906001600160401b03821190821017611f1c57604052565b6001600160401b038111611f1c57601f01601f191660200190565b15611fc957565b606460405162461bcd60e51b815260206004820152602060248201527f4f776e61626c653a2063616c6c6572206973206e6f7420746865206f776e65726044820152fd5b1561201457565b60405162461bcd60e51b815260206004820152601160248201527013585c9ad95d0e881b9bdd081d985b1a59607a1b6044820152606490fd5b8181029291811591840414171561206057565b634e487b7160e01b600052601160045260246000fd5b8115612080570490565b634e487b7160e01b600052601260045260246000fd5b604d811161206057600a0a90565b9190820391821161206057565b9190820180921161206057565b8181039291600013801582851316918412161761206057565b6014549192916121209161211191612107916120fd906001600160801b0383169061204d565b9060801c90612076565b93601f549061204d565b61211a83612096565b90612076565b8083106121e85761213461217091846120a4565b9161216b61216561215c601e5461215661214d86612096565b602154906120b1565b9061204d565b61211a84612096565b91612096565b6120be565b6509184e72a0009081810291818305149015171561206057670de0b6b3a76400009182810292818405149015171561206057801561208057600160ff1b9180831460001983141661206057059060008212156121e157811461206057600003905b8082116121dc575090565b905090565b50906121d1565b505050600090565b6001600160a01b03811660008181526017602052604081205491949392909190811561227e579160409161225a85946122346122729761222e6136d8565b926124db565b815190936001600160801b03916020916122509184169061204d565b9201511690612076565b81811061227657035b958152601860205220546125ad565b9091565b505080612263565b50509192505080918190565b51908115158203611de357565b60018060a01b03600f54169060409081519263d6d7d52560e01b8452828460209283600483015260006010546122cc81611ecf565b9081602486015260019085828216918260001461246b575050600114612427575b5050600083809203925af1801561241c5760009485916123e1575b5092841561238357831561234957505081601155817f9f9192b5edb17356c524e08d9e025c8e2f6307e6ea52fb7968faa3081f51c3c8600080a25b42601355565b60649250519062461bcd60e51b8252600482015260146024820152734d61726b65743a20696e76616c6964207261746560601b6044820152fd5b90919250612396601354601254906120b1565b42116123a757505060115490612343565b60649250519062461bcd60e51b82526004820152601460248201527313585c9ad95d0e881c985d19481d1bdbc81bdb1960621b6044820152fd5b9490508385813d8311612415575b6123f98183611f84565b810103126102ed57508061240c8561228a565b94015138612308565b503d6123ef565b83513d6000823e3d90fd5b915060106000528560002091866000935b838510612450575050505082016044016000836122ed565b80548c8601604401528a97508b965093019287908201612438565b8195506000949193506044925060ff191682840152151560051b82010192506122ed565b1561249657565b60405162461bcd60e51b815260206004820152601e60248201527f4d61726b65743a2065786368616e676552617465206e6f742076616c696400006044820152606490fd5b6124e682151561248f565b60018060a01b036020816009541691600c5490600094168452601882526064604085205491604051948593849263442c159960e01b8452600484015260248301528660448301525afa9182156125a1578092612569575b50509061256161255861256693620186a0602254049061204d565b601e549061204d565b612076565b90565b9091506020823d8211612599575b8161258460209383611f84565b810103126102ed57505161256161255861253d565b3d9150612577565b604051903d90823e3d90fd5b6125b882151561248f565b602060018060a01b0360095416916064600c54604051948593849263442c159960e01b845260048401526024830152600060448301525afa90811561265857600091612625575b5090612561612611926022549061204d565b620186a0612621601e548361204d565b0491565b906020823d8211612650575b8161263e60209383611f84565b810103126102ed5750516125616125ff565b3d9150612631565b6040513d6000823e3d90fd5b6001600160a01b03166000818152601860205260408120549092612687916125ad565b918352601760205260408320548015612790578115612790578181106127905782811015612786576014546126d0918391610aa4916120fd906001600160801b0383169061204d565b90620186a09283830292808404851490151715612772576126f5929161211a916120a4565b91601b5491601c549361270885856120be565b80820291848212600160ff1b82141661277257818305149015171561275e570581848201948512911290801582169115161761274a57508082126121dc575090565b634e487b7160e01b81526011600452602490fd5b634e487b7160e01b83526011600452602483fd5b634e487b7160e01b85526011600452602485fd5b50505050601b5490565b50505090565b307f00000000000000000000000000000000000000000000000000000000000000006001600160a01b03161480612896575b156127f1577f000000000000000000000000000000000000000000000000000000000000000090565b60405160208101907f000000000000000000000000000000000000000000000000000000000000000082527f000000000000000000000000000000000000000000000000000000000000000060408201527f000000000000000000000000000000000000000000000000000000000000000060608201524660808201523060a082015260a0815260c0810181811060018060401b03821117611f1c5760405251902090565b507f000000000000000000000000000000000000000000000000000000000000000046146127c8565b156128c657565b60405162461bcd60e51b815260206004820152601660248201527545524332303a2062616c616e636520746f6f206c6f7760501b6044820152606490fd5b1561290b57565b60405162461bcd60e51b815260206004820152601660248201527545524332303a206e6f207a65726f206164647265737360501b6044820152606490fd5b51906001600160a01b0382168203611de357565b519060ff82168203611de357565b6005811015611eb9578061297c5750565b600181036129c45760405162461bcd60e51b815260206004820152601860248201527745434453413a20696e76616c6964207369676e617475726560401b6044820152606490fd5b60028103612a115760405162461bcd60e51b815260206004820152601f60248201527f45434453413a20696e76616c6964207369676e6174757265206c656e677468006044820152606490fd5b600314612a1a57565b60405162461bcd60e51b815260206004820152602260248201527f45434453413a20696e76616c6964207369676e6174757265202773272076616c604482015261756560f01b6064820152608490fd5b9291906fa2a8918ca85bafe22016d0b997e4df60600160ff1b038311612ae35791608094939160ff602094604051948552168484015260408301526060820152600093849182805260015afa15612ad65781516001600160a01b03811615612ad0579190565b50600190565b50604051903d90823e3d90fd5b50505050600090600390565b60001981146120605760010190565b7fe50de2333c10a9502fcb1d8ae13a51bbf423153dfc63c2b8997665b32154afc360018060a01b038092169160009083825260036020526040822094169384825260205284604082205580a4565b909160207f8c5be1e5ebec7d5bd14f71427d1e84f3dd0314c0f7b2291e5b200ac8c7c3b9259160018060a01b03809416938460005260028352604060002095169485600052825280604060002055604051908152a3565b15612baa57565b60405162461bcd60e51b815260206004820152600e60248201526d13585c9ad95d0e881c185d5cd95960921b6044820152606490fd5b15612be757565b606460405162461bcd60e51b815260206004820152602060248201527f4d61726b65743a2063616e6e6f742065786563757465206f6e20697473656c666044820152fd5b15612c3257565b60405162461bcd60e51b815260206004820152602160248201527f42696742616e673a20616c6c6f77616e63655368617265206e6f742076616c696044820152601960fa1b6064820152608490fd5b919290600090602a5485106130dd5784156130d557620186a09460209086612caa83548361204d565b0496612cf4612ce3612cbf6011549a856120b1565b600d546001600160a01b039b919060ff90612cdb908e16613121565b16918b6132e1565b612cee811515612c2b565b88613364565b612cff83548361204d565b049287811680865260248452604094858720612d1c8282546120b1565b9055612d266131be565b98612d3182866120b1565b88878951612d3e81611f32565b82815201528a516001600160801b039b8c9182166130695781612d69849e8f955b16828451166136bf565b168152612d7e828a83019416838551166136bf565b8281169093525160809290921b6001600160801b0319169116908117601455601654801591821561305e575b50501561301c57907f3a5151e57d3bc9798e7853034ac52293d1a0e12a2b44725e75b03b21f86477a6878c8795941692838b52601789528c612df0838d209182546120b1565b905581519081528c89820152a487600d5416803b15611c3c5785855180926340c10f1960e01b8252818381612e29893060048401613862565b03925af1801561301257612fff575b5087600d541690600e54918960095416865163095ea7b360e01b91828252600482015288602482015286816044818c875af18015612ff5579287928a88938f96612fb2575b50612e9b9560095416918b5196879586948593845260048401613862565b03925af18015612fa857908694939291612f68575b50612edb9450868a6009541692855196879586948593634d4d7cbd60e11b8552309060048601613893565b03925af1908115612f5c578391612f3d575b509394600a5416803b1561058657908280926004835180958193632ebe913360e21b83525af1908115612f345750612f23575050565b612f2d8291611f09565b6102ed5750565b513d84823e3d90fd5b612f549150823d841161089f5761088f8183611f84565b905038612eed565b505051903d90823e3d90fd5b80929450859193953d8311612fa1575b612f828183611f84565b81010312611c3c5791612edb9391612f9a869461228a565b5038612eb0565b503d612f78565b86513d89823e3d90fd5b9350509290935081813d8311612fee575b612fcd8183611f84565b81010312610d8b57612e9b9287928a8e612fe78a9561228a565b5095612e7d565b503d612fc3565b88513d8b823e3d90fd5b61300b90959195611f09565b9338612e38565b85513d88823e3d90fd5b865162461bcd60e51b815260048101879052601b60248201527a109a59d0985b99ce88189bdc9c9bddc818d85c081c995858da1959602a1b6044820152606490fd5b111590503880612daa565b9091808983018481511661307d908361204d565b8585511661308a91612076565b9e8f818651166130999161204d565b9151166130a591612076565b106130b9575b9082612d69818f9594612d5f565b919b908c612d696130ca8294612aef565b9e50505090916130ab565b509250829150565b606460405162461bcd60e51b815260206004820152602060248201527f42696742616e673a20626f72726f7720616d6f756e7420746f6f20736d616c6c6044820152fd5b60405163313ce56760e01b60208201908152600482529061314181611f32565b5160009283928392916001600160a01b03165afa903d156131b6573d9161316783611fa7565b926131756040519485611f84565b83523d82602085013e5b806131ab575b156131a4576020828051810103126102ed57506020612566910161295d565b5050601290565b506020825114613185565b60609161317f565b604051906131cb82611f32565b6014546001600160801b038116835260801c6020830152565b919060018060a01b038060009416845260206017815260408520549081156132d75760188152604086205480156132d0578161321e6131be565b9460095416916064600c54604051948593849263442c159960e01b8452600484015260248301528b60448301525afa9687156125a157809761329a575b505061225061327a612558613295969798620186a0602254049061204d565b9561329060018060801b0394858751169061204d565b61204d565b111590565b9096508187813d83116132c9575b6132b28183611f84565b810103126102ed575094519461225061327a61325b565b503d6132a8565b5050505050565b5060019450505050565b612165906133018561256696956132fb61211a96856124db565b90613321565b6001600160a01b039091166000908152601860205260409020549061204d565b918215801561335c575b6121e857600181018091116120605761334a9261215661256192612096565b6005810180911161206057600a900490565b50811561332b565b6001600160a01b0316338103613378575050565b60008181526020906003825260409182822033835281528483832054106133e157838252600381528282203383528152828220546001016133ba575050505050565b6133d5938252600381528282209033835252209182546120a4565b905538808080806132d0565b60649083519062461bcd60e51b82526004820152601460248201527313585c9ad95d0e881b9bdd08185c1c1c9bdd995960621b6044820152fd5b6001600160801b03918216908216039190821161206057565b9190916000602060405161344781611f32565b82815201526020810180516001600160801b0390811661348b5761348481865b81613477818a168289511661341b565b168652168284511661341b565b1690529190565b6134a561349b828551168761204d565b8284511690612076565b94806134c16134b7848651168961204d565b8487511690612076565b106134d1575b8161348491613467565b94816134df61348492612aef565b969150506134c7565b60ff60265416613659576014546001600160801b031690811561365257600a54604051631848f2bf60e31b8152602093916001600160a01b03919085908290600490829086165afa8015612658578591600091613619575b50600460405180948193631a674cc560e11b8352165afa938415612658576000946135ea575b50506135829192670de0b6b3a76400009283916029549061204d565b0490818110156135e157613599602a5480926120a4565b838102908082048514901517156120605761211a6135ba926135d5946120a4565b602754926135cf6028549261329084876120a4565b046120b1565b908082116121dc575090565b50505060275490565b81813d8311613612575b6135fe8183611f84565b81010312610d935751925061358238613566565b503d6135f4565b909181813d831161364b575b61362f8183611f84565b8101031261030f57519082821682036102ed5750849038613540565b503d613625565b6028549150565b600a5460405163e6abad4960e01b815290602090829060049082906001600160a01b03165afa90811561265857600091613691575090565b906020823d82116136b7575b816136aa60209383611f84565b810103126102ed57505190565b3d915061369d565b6001600160801b03918216908216019190821161206057565b600060206040516136e881611f32565b82815201526025546001600160401b0391906137099060401c8316426120a4565b9182156137605761375b61329091670de0b6b3a764000061375061372b6131be565b9660018060801b03958694858a5116906301e133806137486134e8565b04169061204d565b0416828551166136bf565b168252565b5090506125666131be565b60405161377781611f32565b60255460018060401b03908181168352818160401c1661379e6020850191808352426120a4565b9283156132d057602094816301e133806137b66134e8565b0416815281421683526137c76131be565b670de0b6b3a76400006137ec60018060801b039761329089855116878751169061204d565b04956137fd818816828451166136bf565b1680825296015160801b6001600160801b031990811690961760145551915192909416931692831760409190911b600160401b600160801b0316176025557f7484db546dcd57af0104c73c8a6968dfbaf5767f047cee0dadd0499ad7df81a0600080a3565b6001600160a01b039091168152602081019190915260400190565b9190826040910312611de3576020825192015190565b9081526001600160a01b0391821660208201529116604082015260608101919091526000608082015260a00190565b6001600160a01b0390811660008181526017602052604081205491939092828214613945579060ff6138fa61390393600d5416613121565b16928391613321565b801561393e57829161211a6121656139299387604097526024602052868620549061204d565b928152602460205220548082116121dc575090565b5050905090565b50505060409150602460205220549056fe45524332305065726d69743a206578706972656420646561646c696e6500000045524332305065726d69743a20696e76616c6964207369676e617475726500009cc5629bbe7baa98a89f6f8c2c396b83ab62dbb6cbb12f17f1d6ba7e6f53e266c8e512d8f188ca059984b5853d2bf653da902696b8512785b182b2c813789a6e8be0079c531659141344cd1fd0a4f28419497f9722a3daafe3b4186f6b6457e05c9ba5f0d101616843d7918f48ea857d6da95e04ac6d719e105e50a355e7c5d6ddf252ad1be2c89b69c2b068fc378daa952ba7f163c4a11628f55a4df523b3ef1b6847dc741a1b0cd08d278845f9d819d87b734759afb55fe2de5cb82a9ae672a26469706673582212208064b1bee219a2b912ba3e674f04004779a412608590810bbf597fb53363587764736f6c63430008120033",
  "linkReferences": {},
  "deployedLinkReferences": {}
}