{
  "_format": "hh-sol-artifact-1",
  "contractName": "BBBorrow",
  "sourceName": "contracts/markets/bigBang/BBBorrow.sol",
  "abi": [
    {
      "anonymous": false,
      "inputs": [
        {
          "indexed": true,
          "internalType": "address",
          "name": "owner",
          "type": "address"
        },
        {
          "indexed": true,
          "internalType": "address",
          "name": "spender",
          "type": "address"
        },
        {
          "indexed": false,
          "internalType": "uint256",
          "name": "value",
          "type": "uint256"
        }
      ],
      "name": "Approval",
      "type": "event"
    },
    {
      "anonymous": false,
      "inputs": [
        {
          "indexed": true,
          "internalType": "address",
          "name": "owner",
          "type": "address"
        },
        {
          "indexed": true,
          "internalType": "address",
          "name": "spender",
          "type": "address"
        },
        {
          "indexed": false,
          "internalType": "uint256",
          "name": "value",
          "type": "uint256"
        }
      ],
      "name": "ApprovalBorrow",
      "type": "event"
    },
    {
      "anonymous": false,
      "inputs": [
        {
          "indexed": true,
          "internalType": "address",
          "name": "old",
          "type": "address"
        },
        {
          "indexed": true,
          "internalType": "address",
          "name": "_new",
          "type": "address"
        }
      ],
      "name": "ConservatorUpdated",
      "type": "event"
    },
    {
      "anonymous": false,
      "inputs": [
        {
          "indexed": false,
          "internalType": "uint256",
          "name": "oldVal",
          "type": "uint256"
        },
        {
          "indexed": false,
          "internalType": "uint256",
          "name": "newVal",
          "type": "uint256"
        }
      ],
      "name": "DebtRateAgainstEthUpdated",
      "type": "event"
    },
    {
      "anonymous": false,
      "inputs": [
        {
          "indexed": true,
          "internalType": "address",
          "name": "liquidator",
          "type": "address"
        },
        {
          "indexed": false,
          "internalType": "address[]",
          "name": "users",
          "type": "address[]"
        },
        {
          "indexed": false,
          "internalType": "uint256",
          "name": "liquidatorReward",
          "type": "uint256"
        },
        {
          "indexed": false,
          "internalType": "uint256",
          "name": "protocolReward",
          "type": "uint256"
        },
        {
          "indexed": false,
          "internalType": "uint256",
          "name": "repayedAmount",
          "type": "uint256"
        },
        {
          "indexed": false,
          "internalType": "uint256",
          "name": "collateralShareRemoved",
          "type": "uint256"
        }
      ],
      "name": "Liquidated",
      "type": "event"
    },
    {
      "anonymous": false,
      "inputs": [
        {
          "indexed": false,
          "internalType": "uint256",
          "name": "oldVal",
          "type": "uint256"
        },
        {
          "indexed": false,
          "internalType": "uint256",
          "name": "newVal",
          "type": "uint256"
        }
      ],
      "name": "LiquidationMultiplierUpdated",
      "type": "event"
    },
    {
      "anonymous": false,
      "inputs": [
        {
          "indexed": false,
          "internalType": "uint256",
          "name": "accruedAmount",
          "type": "uint256"
        },
        {
          "indexed": false,
          "internalType": "uint64",
          "name": "rate",
          "type": "uint64"
        }
      ],
      "name": "LogAccrue",
      "type": "event"
    },
    {
      "anonymous": false,
      "inputs": [
        {
          "indexed": true,
          "internalType": "address",
          "name": "from",
          "type": "address"
        },
        {
          "indexed": true,
          "internalType": "address",
          "name": "to",
          "type": "address"
        },
        {
          "indexed": false,
          "internalType": "uint256",
          "name": "share",
          "type": "uint256"
        }
      ],
      "name": "LogAddCollateral",
      "type": "event"
    },
    {
      "anonymous": false,
      "inputs": [
        {
          "indexed": true,
          "internalType": "address",
          "name": "from",
          "type": "address"
        },
        {
          "indexed": true,
          "internalType": "address",
          "name": "to",
          "type": "address"
        },
        {
          "indexed": false,
          "internalType": "uint256",
          "name": "amount",
          "type": "uint256"
        },
        {
          "indexed": false,
          "internalType": "uint256",
          "name": "feeAmount",
          "type": "uint256"
        },
        {
          "indexed": false,
          "internalType": "uint256",
          "name": "part",
          "type": "uint256"
        }
      ],
      "name": "LogBorrow",
      "type": "event"
    },
    {
      "anonymous": false,
      "inputs": [
        {
          "indexed": false,
          "internalType": "uint256",
          "name": "_oldVal",
          "type": "uint256"
        },
        {
          "indexed": false,
          "internalType": "uint256",
          "name": "_newVal",
          "type": "uint256"
        }
      ],
      "name": "LogBorrowCapUpdated",
      "type": "event"
    },
    {
      "anonymous": false,
      "inputs": [
        {
          "indexed": false,
          "internalType": "uint256",
          "name": "_oldVal",
          "type": "uint256"
        },
        {
          "indexed": false,
          "internalType": "uint256",
          "name": "_newVal",
          "type": "uint256"
        }
      ],
      "name": "LogBorrowingFee",
      "type": "event"
    },
    {
      "anonymous": false,
      "inputs": [
        {
          "indexed": false,
          "internalType": "uint256",
          "name": "rate",
          "type": "uint256"
        }
      ],
      "name": "LogExchangeRate",
      "type": "event"
    },
    {
      "anonymous": false,
      "inputs": [
        {
          "indexed": true,
          "internalType": "address",
          "name": "from",
          "type": "address"
        },
        {
          "indexed": true,
          "internalType": "address",
          "name": "to",
          "type": "address"
        },
        {
          "indexed": false,
          "internalType": "uint256",
          "name": "share",
          "type": "uint256"
        }
      ],
      "name": "LogRemoveCollateral",
      "type": "event"
    },
    {
      "anonymous": false,
      "inputs": [
        {
          "indexed": true,
          "internalType": "address",
          "name": "from",
          "type": "address"
        },
        {
          "indexed": true,
          "internalType": "address",
          "name": "to",
          "type": "address"
        },
        {
          "indexed": false,
          "internalType": "uint256",
          "name": "amount",
          "type": "uint256"
        },
        {
          "indexed": false,
          "internalType": "uint256",
          "name": "part",
          "type": "uint256"
        }
      ],
      "name": "LogRepay",
      "type": "event"
    },
    {
      "anonymous": false,
      "inputs": [
        {
          "indexed": false,
          "internalType": "uint256",
          "name": "oldVal",
          "type": "uint256"
        },
        {
          "indexed": false,
          "internalType": "uint256",
          "name": "newVal",
          "type": "uint256"
        }
      ],
      "name": "MaxDebtRateUpdated",
      "type": "event"
    },
    {
      "anonymous": false,
      "inputs": [
        {
          "indexed": false,
          "internalType": "uint256",
          "name": "oldVal",
          "type": "uint256"
        },
        {
          "indexed": false,
          "internalType": "uint256",
          "name": "newVal",
          "type": "uint256"
        }
      ],
      "name": "MinDebtRateUpdated",
      "type": "event"
    },
    {
      "anonymous": false,
      "inputs": [],
      "name": "OracleDataUpdated",
      "type": "event"
    },
    {
      "anonymous": false,
      "inputs": [],
      "name": "OracleUpdated",
      "type": "event"
    },
    {
      "anonymous": false,
      "inputs": [
        {
          "indexed": true,
          "internalType": "address",
          "name": "previousOwner",
          "type": "address"
        },
        {
          "indexed": true,
          "internalType": "address",
          "name": "newOwner",
          "type": "address"
        }
      ],
      "name": "OwnershipTransferred",
      "type": "event"
    },
    {
      "anonymous": false,
      "inputs": [
        {
          "indexed": false,
          "internalType": "bool",
          "name": "oldState",
          "type": "bool"
        },
        {
          "indexed": false,
          "internalType": "bool",
          "name": "newState",
          "type": "bool"
        }
      ],
      "name": "PausedUpdated",
      "type": "event"
    },
    {
      "anonymous": false,
      "inputs": [
        {
          "indexed": true,
          "internalType": "address",
          "name": "from",
          "type": "address"
        },
        {
          "indexed": true,
          "internalType": "address",
          "name": "to",
          "type": "address"
        },
        {
          "indexed": false,
          "internalType": "uint256",
          "name": "value",
          "type": "uint256"
        }
      ],
      "name": "Transfer",
      "type": "event"
    },
    {
      "inputs": [],
      "name": "DOMAIN_SEPARATOR",
      "outputs": [
        {
          "internalType": "bytes32",
          "name": "",
          "type": "bytes32"
        }
      ],
      "stateMutability": "view",
      "type": "function"
    },
    {
      "inputs": [],
      "name": "accrue",
      "outputs": [],
      "stateMutability": "nonpayable",
      "type": "function"
    },
    {
      "inputs": [],
      "name": "accrueInfo",
      "outputs": [
        {
          "internalType": "uint64",
          "name": "debtRate",
          "type": "uint64"
        },
        {
          "internalType": "uint64",
          "name": "lastAccrued",
          "type": "uint64"
        }
      ],
      "stateMutability": "view",
      "type": "function"
    },
    {
      "inputs": [
        {
          "internalType": "address",
          "name": "",
          "type": "address"
        },
        {
          "internalType": "address",
          "name": "",
          "type": "address"
        }
      ],
      "name": "allowance",
      "outputs": [
        {
          "internalType": "uint256",
          "name": "",
          "type": "uint256"
        }
      ],
      "stateMutability": "view",
      "type": "function"
    },
    {
      "inputs": [
        {
          "internalType": "address",
          "name": "",
          "type": "address"
        },
        {
          "internalType": "address",
          "name": "",
          "type": "address"
        }
      ],
      "name": "allowanceBorrow",
      "outputs": [
        {
          "internalType": "uint256",
          "name": "",
          "type": "uint256"
        }
      ],
      "stateMutability": "view",
      "type": "function"
    },
    {
      "inputs": [
        {
          "internalType": "address",
          "name": "spender",
          "type": "address"
        },
        {
          "internalType": "uint256",
          "name": "amount",
          "type": "uint256"
        }
      ],
      "name": "approve",
      "outputs": [
        {
          "internalType": "bool",
          "name": "",
          "type": "bool"
        }
      ],
      "stateMutability": "nonpayable",
      "type": "function"
    },
    {
      "inputs": [
        {
          "internalType": "address",
          "name": "spender",
          "type": "address"
        },
        {
          "internalType": "uint256",
          "name": "amount",
          "type": "uint256"
        }
      ],
      "name": "approveBorrow",
      "outputs": [
        {
          "internalType": "bool",
          "name": "",
          "type": "bool"
        }
      ],
      "stateMutability": "nonpayable",
      "type": "function"
    },
    {
      "inputs": [],
      "name": "asset",
      "outputs": [
        {
          "internalType": "contract IERC20",
          "name": "",
          "type": "address"
        }
      ],
      "stateMutability": "view",
      "type": "function"
    },
    {
      "inputs": [],
      "name": "assetId",
      "outputs": [
        {
          "internalType": "uint256",
          "name": "",
          "type": "uint256"
        }
      ],
      "stateMutability": "view",
      "type": "function"
    },
    {
      "inputs": [
        {
          "internalType": "address",
          "name": "",
          "type": "address"
        }
      ],
      "name": "balanceOf",
      "outputs": [
        {
          "internalType": "uint256",
          "name": "",
          "type": "uint256"
        }
      ],
      "stateMutability": "view",
      "type": "function"
    },
    {
      "inputs": [
        {
          "internalType": "address",
          "name": "from",
          "type": "address"
        },
        {
          "internalType": "address",
          "name": "to",
          "type": "address"
        },
        {
          "internalType": "uint256",
          "name": "amount",
          "type": "uint256"
        }
      ],
      "name": "borrow",
      "outputs": [
        {
          "internalType": "uint256",
          "name": "part",
          "type": "uint256"
        },
        {
          "internalType": "uint256",
          "name": "share",
          "type": "uint256"
        }
      ],
      "stateMutability": "nonpayable",
      "type": "function"
    },
    {
      "inputs": [],
      "name": "borrowOpeningFee",
      "outputs": [
        {
          "internalType": "uint256",
          "name": "",
          "type": "uint256"
        }
      ],
      "stateMutability": "view",
      "type": "function"
    },
    {
      "inputs": [],
      "name": "callerFee",
      "outputs": [
        {
          "internalType": "uint256",
          "name": "",
          "type": "uint256"
        }
      ],
      "stateMutability": "view",
      "type": "function"
    },
    {
      "inputs": [],
      "name": "claimOwnership",
      "outputs": [],
      "stateMutability": "nonpayable",
      "type": "function"
    },
    {
      "inputs": [],
      "name": "collateral",
      "outputs": [
        {
          "internalType": "contract IERC20",
          "name": "",
          "type": "address"
        }
      ],
      "stateMutability": "view",
      "type": "function"
    },
    {
      "inputs": [],
      "name": "collateralId",
      "outputs": [
        {
          "internalType": "uint256",
          "name": "",
          "type": "uint256"
        }
      ],
      "stateMutability": "view",
      "type": "function"
    },
    {
      "inputs": [],
      "name": "collateralizationRate",
      "outputs": [
        {
          "internalType": "uint256",
          "name": "",
          "type": "uint256"
        }
      ],
      "stateMutability": "view",
      "type": "function"
    },
    {
      "inputs": [
        {
          "internalType": "uint256",
          "name": "borrowPart",
          "type": "uint256"
        },
        {
          "internalType": "uint256",
          "name": "collateralPartInAsset",
          "type": "uint256"
        },
        {
          "internalType": "uint256",
          "name": "ratesPrecision",
          "type": "uint256"
        }
      ],
      "name": "computeClosingFactor",
      "outputs": [
        {
          "internalType": "uint256",
          "name": "",
          "type": "uint256"
        }
      ],
      "stateMutability": "view",
      "type": "function"
    },
    {
      "inputs": [
        {
          "internalType": "address",
          "name": "user",
          "type": "address"
        },
        {
          "internalType": "uint256",
          "name": "_exchangeRate",
          "type": "uint256"
        }
      ],
      "name": "computeLiquidatorReward",
      "outputs": [
        {
          "internalType": "uint256",
          "name": "",
          "type": "uint256"
        }
      ],
      "stateMutability": "view",
      "type": "function"
    },
    {
      "inputs": [
        {
          "internalType": "address",
          "name": "user",
          "type": "address"
        },
        {
          "internalType": "uint256",
          "name": "_exchangeRate",
          "type": "uint256"
        }
      ],
      "name": "computeTVLInfo",
      "outputs": [
        {
          "internalType": "uint256",
          "name": "amountToSolvency",
          "type": "uint256"
        },
        {
          "internalType": "uint256",
          "name": "minTVL",
          "type": "uint256"
        },
        {
          "internalType": "uint256",
          "name": "maxTVL",
          "type": "uint256"
        }
      ],
      "stateMutability": "view",
      "type": "function"
    },
    {
      "inputs": [],
      "name": "conservator",
      "outputs": [
        {
          "internalType": "address",
          "name": "",
          "type": "address"
        }
      ],
      "stateMutability": "view",
      "type": "function"
    },
    {
      "inputs": [],
      "name": "debtRateAgainstEthMarket",
      "outputs": [
        {
          "internalType": "uint256",
          "name": "",
          "type": "uint256"
        }
      ],
      "stateMutability": "view",
      "type": "function"
    },
    {
      "inputs": [],
      "name": "debtStartPoint",
      "outputs": [
        {
          "internalType": "uint256",
          "name": "",
          "type": "uint256"
        }
      ],
      "stateMutability": "view",
      "type": "function"
    },
    {
      "inputs": [],
      "name": "exchangeRate",
      "outputs": [
        {
          "internalType": "uint256",
          "name": "",
          "type": "uint256"
        }
      ],
      "stateMutability": "view",
      "type": "function"
    },
    {
      "inputs": [],
      "name": "getDebtRate",
      "outputs": [
        {
          "internalType": "uint256",
          "name": "",
          "type": "uint256"
        }
      ],
      "stateMutability": "view",
      "type": "function"
    },
    {
      "inputs": [],
      "name": "getTotalDebt",
      "outputs": [
        {
          "internalType": "uint256",
          "name": "",
          "type": "uint256"
        }
      ],
      "stateMutability": "view",
      "type": "function"
    },
    {
      "inputs": [],
      "name": "isMainMarket",
      "outputs": [
        {
          "internalType": "bool",
          "name": "",
          "type": "bool"
        }
      ],
      "stateMutability": "view",
      "type": "function"
    },
    {
      "inputs": [],
      "name": "liquidationBonusAmount",
      "outputs": [
        {
          "internalType": "uint256",
          "name": "",
          "type": "uint256"
        }
      ],
      "stateMutability": "view",
      "type": "function"
    },
    {
      "inputs": [],
      "name": "liquidationMultiplier",
      "outputs": [
        {
          "internalType": "uint256",
          "name": "",
          "type": "uint256"
        }
      ],
      "stateMutability": "view",
      "type": "function"
    },
    {
      "inputs": [],
      "name": "maxDebtRate",
      "outputs": [
        {
          "internalType": "uint256",
          "name": "",
          "type": "uint256"
        }
      ],
      "stateMutability": "view",
      "type": "function"
    },
    {
      "inputs": [],
      "name": "maxLiquidatorReward",
      "outputs": [
        {
          "internalType": "uint256",
          "name": "",
          "type": "uint256"
        }
      ],
      "stateMutability": "view",
      "type": "function"
    },
    {
      "inputs": [],
      "name": "minDebtRate",
      "outputs": [
        {
          "internalType": "uint256",
          "name": "",
          "type": "uint256"
        }
      ],
      "stateMutability": "view",
      "type": "function"
    },
    {
      "inputs": [],
      "name": "minLiquidatorReward",
      "outputs": [
        {
          "internalType": "uint256",
          "name": "",
          "type": "uint256"
        }
      ],
      "stateMutability": "view",
      "type": "function"
    },
    {
      "inputs": [
        {
          "internalType": "address",
          "name": "owner",
          "type": "address"
        }
      ],
      "name": "nonces",
      "outputs": [
        {
          "internalType": "uint256",
          "name": "",
          "type": "uint256"
        }
      ],
      "stateMutability": "view",
      "type": "function"
    },
    {
      "inputs": [
        {
          "internalType": "address",
          "name": "user",
          "type": "address"
        }
      ],
      "name": "openingFees",
      "outputs": [
        {
          "internalType": "uint256",
          "name": "fee",
          "type": "uint256"
        }
      ],
      "stateMutability": "view",
      "type": "function"
    },
    {
      "inputs": [],
      "name": "oracle",
      "outputs": [
        {
          "internalType": "contract IOracle",
          "name": "",
          "type": "address"
        }
      ],
      "stateMutability": "view",
      "type": "function"
    },
    {
      "inputs": [],
      "name": "oracleData",
      "outputs": [
        {
          "internalType": "bytes",
          "name": "",
          "type": "bytes"
        }
      ],
      "stateMutability": "view",
      "type": "function"
    },
    {
      "inputs": [],
      "name": "owner",
      "outputs": [
        {
          "internalType": "address",
          "name": "",
          "type": "address"
        }
      ],
      "stateMutability": "view",
      "type": "function"
    },
    {
      "inputs": [],
      "name": "paused",
      "outputs": [
        {
          "internalType": "bool",
          "name": "",
          "type": "bool"
        }
      ],
      "stateMutability": "view",
      "type": "function"
    },
    {
      "inputs": [],
      "name": "pendingOwner",
      "outputs": [
        {
          "internalType": "address",
          "name": "",
          "type": "address"
        }
      ],
      "stateMutability": "view",
      "type": "function"
    },
    {
      "inputs": [],
      "name": "penrose",
      "outputs": [
        {
          "internalType": "contract IPenrose",
          "name": "",
          "type": "address"
        }
      ],
      "stateMutability": "view",
      "type": "function"
    },
    {
      "inputs": [
        {
          "internalType": "address",
          "name": "owner",
          "type": "address"
        },
        {
          "internalType": "address",
          "name": "spender",
          "type": "address"
        },
        {
          "internalType": "uint256",
          "name": "value",
          "type": "uint256"
        },
        {
          "internalType": "uint256",
          "name": "deadline",
          "type": "uint256"
        },
        {
          "internalType": "uint8",
          "name": "v",
          "type": "uint8"
        },
        {
          "internalType": "bytes32",
          "name": "r",
          "type": "bytes32"
        },
        {
          "internalType": "bytes32",
          "name": "s",
          "type": "bytes32"
        }
      ],
      "name": "permit",
      "outputs": [],
      "stateMutability": "nonpayable",
      "type": "function"
    },
    {
      "inputs": [
        {
          "internalType": "address",
          "name": "owner",
          "type": "address"
        },
        {
          "internalType": "address",
          "name": "spender",
          "type": "address"
        },
        {
          "internalType": "uint256",
          "name": "value",
          "type": "uint256"
        },
        {
          "internalType": "uint256",
          "name": "deadline",
          "type": "uint256"
        },
        {
          "internalType": "uint8",
          "name": "v",
          "type": "uint8"
        },
        {
          "internalType": "bytes32",
          "name": "r",
          "type": "bytes32"
        },
        {
          "internalType": "bytes32",
          "name": "s",
          "type": "bytes32"
        }
      ],
      "name": "permitBorrow",
      "outputs": [],
      "stateMutability": "nonpayable",
      "type": "function"
    },
    {
      "inputs": [],
      "name": "protocolFee",
      "outputs": [
        {
          "internalType": "uint256",
          "name": "",
          "type": "uint256"
        }
      ],
      "stateMutability": "view",
      "type": "function"
    },
    {
      "inputs": [
        {
          "internalType": "address",
          "name": "from",
          "type": "address"
        },
        {
          "internalType": "address",
          "name": "to",
          "type": "address"
        },
        {
          "internalType": "bool",
          "name": "",
          "type": "bool"
        },
        {
          "internalType": "uint256",
          "name": "part",
          "type": "uint256"
        }
      ],
      "name": "repay",
      "outputs": [
        {
          "internalType": "uint256",
          "name": "amount",
          "type": "uint256"
        }
      ],
      "stateMutability": "nonpayable",
      "type": "function"
    },
    {
      "inputs": [
        {
          "internalType": "uint256",
          "name": "_cap",
          "type": "uint256"
        }
      ],
      "name": "setBorrowCap",
      "outputs": [],
      "stateMutability": "nonpayable",
      "type": "function"
    },
    {
      "inputs": [
        {
          "internalType": "uint256",
          "name": "_val",
          "type": "uint256"
        }
      ],
      "name": "setBorrowOpeningFee",
      "outputs": [],
      "stateMutability": "nonpayable",
      "type": "function"
    },
    {
      "inputs": [
        {
          "internalType": "uint256",
          "name": "_borrowOpeningFee",
          "type": "uint256"
        },
        {
          "internalType": "contract IOracle",
          "name": "_oracle",
          "type": "address"
        },
        {
          "internalType": "bytes",
          "name": "_oracleData",
          "type": "bytes"
        },
        {
          "internalType": "address",
          "name": "_conservator",
          "type": "address"
        },
        {
          "internalType": "uint256",
          "name": "_callerFee",
          "type": "uint256"
        },
        {
          "internalType": "uint256",
          "name": "_protocolFee",
          "type": "uint256"
        },
        {
          "internalType": "uint256",
          "name": "_liquidationBonusAmount",
          "type": "uint256"
        },
        {
          "internalType": "uint256",
          "name": "_minLiquidatorReward",
          "type": "uint256"
        },
        {
          "internalType": "uint256",
          "name": "_maxLiquidatorReward",
          "type": "uint256"
        },
        {
          "internalType": "uint256",
          "name": "_totalBorrowCap",
          "type": "uint256"
        },
        {
          "internalType": "uint256",
          "name": "_collateralizationRate",
          "type": "uint256"
        }
      ],
      "name": "setMarketConfig",
      "outputs": [],
      "stateMutability": "nonpayable",
      "type": "function"
    },
    {
      "inputs": [],
      "name": "totalBorrow",
      "outputs": [
        {
          "internalType": "uint128",
          "name": "elastic",
          "type": "uint128"
        },
        {
          "internalType": "uint128",
          "name": "base",
          "type": "uint128"
        }
      ],
      "stateMutability": "view",
      "type": "function"
    },
    {
      "inputs": [],
      "name": "totalBorrowCap",
      "outputs": [
        {
          "internalType": "uint256",
          "name": "",
          "type": "uint256"
        }
      ],
      "stateMutability": "view",
      "type": "function"
    },
    {
      "inputs": [],
      "name": "totalCollateralShare",
      "outputs": [
        {
          "internalType": "uint256",
          "name": "",
          "type": "uint256"
        }
      ],
      "stateMutability": "view",
      "type": "function"
    },
    {
      "inputs": [],
      "name": "totalFees",
      "outputs": [
        {
          "internalType": "uint256",
          "name": "",
          "type": "uint256"
        }
      ],
      "stateMutability": "view",
      "type": "function"
    },
    {
      "inputs": [],
      "name": "totalSupply",
      "outputs": [
        {
          "internalType": "uint256",
          "name": "",
          "type": "uint256"
        }
      ],
      "stateMutability": "view",
      "type": "function"
    },
    {
      "inputs": [
        {
          "internalType": "address",
          "name": "to",
          "type": "address"
        },
        {
          "internalType": "uint256",
          "name": "amount",
          "type": "uint256"
        }
      ],
      "name": "transfer",
      "outputs": [
        {
          "internalType": "bool",
          "name": "",
          "type": "bool"
        }
      ],
      "stateMutability": "nonpayable",
      "type": "function"
    },
    {
      "inputs": [
        {
          "internalType": "address",
          "name": "from",
          "type": "address"
        },
        {
          "internalType": "address",
          "name": "to",
          "type": "address"
        },
        {
          "internalType": "uint256",
          "name": "amount",
          "type": "uint256"
        }
      ],
      "name": "transferFrom",
      "outputs": [
        {
          "internalType": "bool",
          "name": "",
          "type": "bool"
        }
      ],
      "stateMutability": "nonpayable",
      "type": "function"
    },
    {
      "inputs": [
        {
          "internalType": "address",
          "name": "newOwner",
          "type": "address"
        },
        {
          "internalType": "bool",
          "name": "direct",
          "type": "bool"
        },
        {
          "internalType": "bool",
          "name": "renounce",
          "type": "bool"
        }
      ],
      "name": "transferOwnership",
      "outputs": [],
      "stateMutability": "nonpayable",
      "type": "function"
    },
    {
      "inputs": [],
      "name": "updateExchangeRate",
      "outputs": [
        {
          "internalType": "bool",
          "name": "updated",
          "type": "bool"
        },
        {
          "internalType": "uint256",
          "name": "rate",
          "type": "uint256"
        }
      ],
      "stateMutability": "nonpayable",
      "type": "function"
    },
    {
      "inputs": [
        {
          "internalType": "bool",
          "name": "val",
          "type": "bool"
        }
      ],
      "name": "updatePause",
      "outputs": [],
      "stateMutability": "nonpayable",
      "type": "function"
    },
    {
      "inputs": [
        {
          "internalType": "address",
          "name": "",
          "type": "address"
        }
      ],
      "name": "userBorrowPart",
      "outputs": [
        {
          "internalType": "uint256",
          "name": "",
          "type": "uint256"
        }
      ],
      "stateMutability": "view",
      "type": "function"
    },
    {
      "inputs": [
        {
          "internalType": "address",
          "name": "",
          "type": "address"
        }
      ],
      "name": "userCollateralShare",
      "outputs": [
        {
          "internalType": "uint256",
          "name": "",
          "type": "uint256"
        }
      ],
      "stateMutability": "view",
      "type": "function"
    },
    {
      "inputs": [],
      "name": "yieldBox",
      "outputs": [
        {
          "internalType": "contract YieldBox",
          "name": "",
          "type": "address"
        }
      ],
      "stateMutability": "view",
      "type": "function"
    }
  ],
  "bytecode": "0x6101408060405234620001855762000017816200018a565b600f81526001602082016e546170696f63612042696742616e6760881b8152602060405162000046816200018a565b8381520192603160f81b845251902091208160e052610100918183524660a0526040519160208301907f8b73c3c69bb8fe3d512ecc4cf759cc79239f7b179b0ffacaa9a75d522b39400f92838352604085015260608401524660808401523060a084015260a0835260c083019280841060018060401b038511176200016f5760408490525190206080523060c052610120908152600580546001600160a01b0319163390811790915560007f8be0079c531659141344cd1fd0a4f28419497f9722a3daafe3b4186f6b6457e08180a36103e860185561271080601955601a556032601c55612ee0601d556133a39283620001a7843960805183612846015260a05183612910015260c05183612810015260e05183612895015251826128bb015251816128720152f35b634e487b7160e01b600052604160045260246000fd5b600080fd5b604081019081106001600160401b038211176200016f5760405256fe6080604090808252600436101561001557600080fd5b600091823560e01c918262a02a2014611f415750816302ce728f14611f19578163078dfbe714611e21578163095ea7b314611df757816313114a9d14611dd857816318160ddd14611dbd5781631c9e379b14611d855781631da8bf1014611cd75781631fb8f81a14611cb857816323b872dd14611b3457816334ce998a14611b0b57816334d441d014611aec5781633644e51514611acf57816338d52e0f14611aa65781633ba0b9a914611a875781633f741adb14611a6057816340626d8b14611a4157816344de240a14611a22578163473e3ce714611a0357816348e4163e146119cb5781634e71e0c81461192d5781635100b567146118ce5781635224372c14611363578163529898f21461134457816357935462146113255781635c975abb146113015781636b19ad16146112e25781636c3d8b8f146112b957816370a0823114611281578163717186d11461122257816374645ff3146111235781637dc0d1d0146110fa5781637ecebe00146110c25781637fa0b84e146110915781638285ef401461106157816387b279371461102a5781638c5d0ed31461100b5781638da5cb5b14610fe2578163959916dc14610fc35781639675937214610be257816399a9702814610bb95781639e15e89f14610b6f578163a9059cbb14610a94578163b0e21e8a14610a75578163b27c0e7414610a44578163b7113f1914610a20578163bb4cfe3b14610a01578163bde39c5d146109e2578163c1ad5c8d146109be578163cd0211eb146106ae578163ce8849ed14610681578163d505accf14610506578163d8dfeb45146104dd578163dd62ed3e1461048f578163de40657714610466578163e0996cb614610447578163e30c39781461041e578163eec0f42e146103ff578163f791395d146103e0578163f8974de0146102e0575063f8ba4cff146102c257600080fd5b346102dd57806003193601126102dd576102da6130bb565b80f35b80fd5b9050346103dc5760203660031901126103dc576004358015158091036103d757600d5491600883901c6001600160a01b0316330361039d5760ff8316151580831461036457817f9c13c5f6c628c1c82eb2b3fd8714da5c2857dbd0ad8ab6b2074abcf81015d3969160ff949351908152836020820152a1169060ff191617600d5580f35b815162461bcd60e51b81526020600482015260126024820152714d61726b65743a2073616d6520737461746560701b6044820152606490fd5b5162461bcd60e51b815260206004820152601460248201527313585c9ad95d0e881d5b985d5d1a1bdc9a5e995960621b6044820152606490fd5b600080fd5b5080fd5b9050346103dc57816003193601126103dc576020906025549051908152f35b9050346103dc57816003193601126103dc57602090600a549051908152f35b9050346103dc57816003193601126103dc5760065490516001600160a01b039091168152602090f35b9050346103dc57816003193601126103dc57602090601a549051908152f35b9050346103dc57816003193601126103dc5760075490516001600160a01b039091168152602090f35b9050346103dc57806003193601126103dc576020916104ac611f86565b826104b5611f9c565b6001600160a01b03928316845260028652922091166000908152908352819020549051908152f35b9050346103dc57816003193601126103dc5760095490516001600160a01b039091168152602090f35b82346102dd5761051536611fc1565b9083969496421161063d576105e8916105e09160018060a01b03948b86891697886000526004602052816000209081549161054f83612b5a565b90558251918a60208401947f6e71edae12b1b97f4d1f60370fef10105fa2faae0126114a169c64845d6126c98652840152898d1660608401528d608084015260a083015260c082015260c081526105a5816120c3565b5190206105b061280d565b908d5190602082019261190160f01b845260228301526042820152604281526105d8816120de565b519020612ad5565b9190916129c0565b16036105f9576102da939450612bc0565b845162461bcd60e51b815260206004820152601e60248201527f45524332305065726d69743a20696e76616c6964207369676e617475726500006044820152606490fd5b885162461bcd60e51b815260206004820152601d60248201527f45524332305065726d69743a206578706972656420646561646c696e650000006044820152606490fd5b9050346103dc57816003193601126103dc57600d54905160089190911c6001600160a01b03168152602090f35b9050346103dc5760803660031901126103dc576106c9611f86565b906106d2611f9c565b916106db611fb2565b506064356106ee60ff600d5416156121a7565b6106f88183612e32565b6107006123de565b505061070a6130bb565b610714818561323a565b93818510156109825760018060a01b038091169283875260209687805285812061073f88825461223b565b9055610749612309565b966000898851610758816120a8565b828152015287890180516001600160801b039991908a166109355786995b80610786818d1682865116613221565b16835261079881891682845116613221565b9181831690528a925116846011549260018060801b03199060801b169216171760115586835260148a528783206107d087825461223b565b90556107fe888a8760075416600c548784518096819582946311a5cc7760e31b84528d3091600486016131f2565b03925af1801561092b5791899594939161082e936108ff575b50610822888c61223b565b806108dc575b5061223b565b8061086c575b5050917fc8e512d8f188ca059984b5853d2bf653da902696b8512785b182b2c813789a6e92825194888652898601521692a351908152f35b9091925083600b541690813b156108d8576108a0839283928a51948580948193632770a7eb60e21b835230600484016131c1565b03925af180156108ce5790879392911561083457819293506108c19061207f565b6102dd5790818692610834565b87513d84823e3d90fd5b8280fd5b6108f991506108f2620186a091601754906121e4565b048b61223b565b38610828565b61091e90873d8911610924575b61091681836120f9565b8101906131dc565b50610817565b503d61090c565b89513d86823e3d90fd5b61094f6109458b845116896121e4565b8b8351169061221b565b998761096c6109628d84865116906121e4565b838651169061221b565b1015610776579961097c90612b5a565b99610776565b835162461bcd60e51b815260206004820152601560248201527442423a2072657061796d656e7420746f6f206c6f7760581b6044820152606490fd5b9050346103dc57816003193601126103dc576020906109db612ec6565b9051908152f35b9050346103dc57816003193601126103dc576020906026549051908152f35b9050346103dc57816003193601126103dc57602090601b549051908152f35b9050346103dc57816003193601126103dc5760209060ff6023541690519015158152f35b82346102dd57806003193601126102dd575060215481516001600160401b03808316825291831c9091166020820152f35b9050346103dc57816003193601126103dc576020906017549051908152f35b9050346103dc57806003193601126103dc57602091610ab1611f86565b82602435928315801590610b5d575b610af0575b50519182526001600160a01b031690339060008051602061332e833981519152908590a35160018152f35b3381526001865281812054610b0785821015612936565b6001600160a01b038416908533839003610b24575b505050610ac5565b610b3891610b3384151561297b565b61223b565b3383526001885283832055815220610b51838254612248565b90558238808085610b1c565b50336001600160a01b03841614610ac0565b9050346103dc57806003193601126103dc57610bb590610b99610b90611f86565b6024359061232f565b9251918252602082015260408101919091529081906060820190565b0390f35b9050346103dc57806003193601126103dc576020906109db610bd9611f86565b602435906126c5565b9050346103dc576101603660031901126103dc576001600160a01b03602480358281169160043591839003610fbf576001600160401b039060443590828211610fbb5736602383011215610fbb578160040135928311610fbb5736818484010111610fbb5760643594868616948587036103d757610c658860055416331461211c565b80610f84575b5080610f46575b5082610df5575b50505080610d9f575b50505060843580610d87575b5060a43580610d6f575b5060c43580610d58575b5060e43580610d34575b506101043580610d10575b50610124359081610ce7575b50506101443580610cd2575080f35b610ce1620186a0821115612167565b601b5580f35b6000805160206132ce833981519152906013548151908152836020820152a16013553880610cc3565b610d1e620186a08210612167565b610d2b6018548211612167565b60195538610cb7565b610d42620186a08210612167565b610d4f6019548210612167565b60185538610cac565b610d66620186a08210612167565b601a5538610ca2565b610d7e620186a0821115612167565b60175538610c98565b610d96620186a0821115612167565b60165538610c8e565b600d54928360081c167f5a62d22209e370e38eea92cfddcd228e656e6ec139243392a760a7769f5877fd8680a3610100600160a81b031990911660089190911b610100600160a81b031617600d55388080610c82565b8291610e02600f54612045565b601f8111610eed575b508890601f8411600114610e70578993610e63575b5050508160011b916000199060031b1c191617600f555b7fa6f004921c944d4b8bf6e38462b00f36a58d62495d56b51f571ab78f732c98158580a1388080610c79565b0101359050388080610e20565b600f8a5260008051602061334e83398151915293509190601f1985168a60205b828210610ed357505090856001969594939210610eb7575b50505050811b01600f55610e37565b60001960f88660031b161c199201013516905538808080610ea8565b8060018598878395978a0101358155019701930190610e90565b600f8a529192509060008051602061334e833981519152601f850160051c810160208610610f3f575b90601f869594930160051c01905b818110610f315750610e0b565b8a8155859450600101610f24565b5080610f16565b600e80546001600160a01b0319169190911790557f0b2d6eb667d0522c3eb86e4288afecae6c11591ffd1345d4d12407e0598bca9b8880a138610c72565b610f93620186a0821115612167565b6000805160206132ee83398151915289601c548151908152836020820152a1601c5538610c6b565b8780fd5b8580fd5b9050346103dc57816003193601126103dc57602090601c549051908152f35b9050346103dc57816003193601126103dc5760055490516001600160a01b039091168152602090f35b9050346103dc57816003193601126103dc576020906018549051908152f35b9050346103dc5760203660031901126103dc5760209181906001600160a01b03611052611f86565b16815283805220549051908152f35b82346102dd57806003193601126102dd575060115481516001600160801b038216815260809190911c6020820152f35b9050346103dc57806003193601126103dc576020906110bb6110b1611f86565b6024359033612b69565b5160018152f35b9050346103dc5760203660031901126103dc5760209181906001600160a01b036110ea611f86565b1681526004845220549051908152f35b9050346103dc57816003193601126103dc57600e5490516001600160a01b039091168152602090f35b9050346103dc57816003193601126103dc578051600f54818461114583612045565b80835260019380851690811561120157506001146111b6575b5061116e925094929403846120f9565b815192839160208084528251928382860152825b8481106111a057505050828201840152601f01601f19168101030190f35b8181018301518882018801528795508201611182565b600f875260008051602061334e83398151915293602092508791905b8183106111e957505061116e93508201013861115e565b855487840185015294850194869450918301916111d2565b905061116e94506020925060ff191682840152151560051b8201013861115e565b9050346103dc5760203660031901126103dc576000805160206132ce8339815191526004359161125760ff600d5416156121a7565b61126c60018060a01b0360055416331461211c565b6013548151908152836020820152a160135580f35b9050346103dc5760203660031901126103dc5760209181906001600160a01b036112a9611f86565b1681526001845220549051908152f35b9050346103dc57816003193601126103dc5760085490516001600160a01b039091168152602090f35b9050346103dc57816003193601126103dc576020906024549051908152f35b9050346103dc57816003193601126103dc5760209060ff600d541690519015158152f35b9050346103dc57816003193601126103dc576020906019549051908152f35b9050346103dc57816003193601126103dc57602090601d549051908152f35b82346102dd5761137236612010565b61138560ff600d959493955416156121a7565b61138d6123de565b50506113976130bb565b6113fe6113f86113cb6113f26113ec6113d160105460ff6113c160018060a01b03600b5416612c17565b169485918a612539565b88612de7565b6001600160a01b038816895260156020528a892054906121e4565b9161220d565b9061221b565b83612e32565b620186a061140e601c54836121e4565b049360018060a01b03811684526020805285842061142d868254612248565b9055611437612309565b946114428184612248565b958560208951611451816120a8565b828152015280516001600160801b031661185f57865b81516001600160801b0391611481919083169083166130a2565b1681526020810180519091906114a3906001600160801b038a811691166130a2565b6001600160801b03808216909352905160809190911b6001600160801b03191691169081176011556013548015918215611854575b505015611812576001600160a01b038416855260146020528685208054611500908890612248565b905586518381526020810191909152604081018690526001600160a01b0382811691908516907f3a5151e57d3bc9798e7853034ac52293d1a0e12a2b44725e75b03b21f86477a690606090a3600b546001600160a01b0316803b1561179b5784875180926340c10f1960e01b825281838161157f8930600484016131c1565b03925af180156117a7576117ff575b50600b54600754875163095ea7b360e01b8082526001600160a01b03928316600483015260248201889052929091602091839160449183918b91165af180156117f5579084916117b1575b50600b54600754895193845260209284926001600160a01b039081169284928b92849261160b929116600484016131c1565b03925af180156117a75787918491611761575b506116519260018060a01b03600754169087600c54855196879586948593634d4d7cbd60e11b85523090600486016131f2565b03925af180156117575761173b575b50602060018060a01b0360075416916064600c5488519485938492638eb22cdd60e01b8452600484015260248301528760448301525afa92831561173057926116fa575b506010546116b191612cd8565b156116c25782519182526020820152f35b825162461bcd60e51b815260206004820152601160248201527013585c9ad95d0e881a5b9cdbdb1d995b9d607a1b6044820152606490fd5b9091506020813d602011611728575b81611716602093836120f9565b810103126103d75751906116b16116a4565b3d9150611709565b8551903d90823e3d90fd5b61175190863d88116109245761091681836120f9565b50611660565b86513d86823e3d90fd5b9150506020813d60201161179f575b8161177d602093836120f9565b8101031261179b57826116519261179489936123d1565b509261161e565b8480fd5b3d9150611770565b87513d87823e3d90fd5b90506020813d6020116117ed575b816117cc602093836120f9565b81010312610fbf578361160b926117e46020936123d1565b509250906115d9565b3d91506117bf565b88513d88823e3d90fd5b61180b9094919461207f565b928661158e565b865162461bcd60e51b815260206004820152601b60248201527a109a59d0985b99ce88189bdc9c9bddc818d85c081c995858da1959602a1b6044820152606490fd5b1115905088806114d8565b6020810196806118b861188f61187e60018060801b038c5116846121e4565b85516001600160801b03169061221b565b8451909a906118a7906001600160801b03168c6121e4565b90516001600160801b03169061221b565b101561146757966118c890612b5a565b96611467565b9050346103dc5760203660031901126103dc576000805160206132ee8339815191526004359161190960018060a01b0360055416331461211c565b611918620186a0841115612167565b601c548151908152836020820152a1601c5580f35b9050346103dc57816003193601126103dc576006546001600160a01b0391828216903382900361198857508060055493841660008051602061330e8339815191528680a36001600160a01b0319928316176005551660065580f35b5162461bcd60e51b815260206004820181905260248201527f4f776e61626c653a2063616c6c657220213d2070656e64696e67206f776e65726044820152606490fd5b9050346103dc5760203660031901126103dc5760209181906001600160a01b036119f3611f86565b1681526014845220549051908152f35b9050346103dc57816003193601126103dc576020906012549051908152f35b9050346103dc57816003193601126103dc57602090600c549051908152f35b9050346103dc57816003193601126103dc576020906013549051908152f35b9050346103dc5760603660031901126103dc576020906109db604435602435600435612255565b9050346103dc57816003193601126103dc576020906010549051908152f35b9050346103dc57816003193601126103dc57600b5490516001600160a01b039091168152602090f35b9050346103dc57816003193601126103dc576020906109db61280d565b9050346103dc57816003193601126103dc576020906016549051908152f35b9050346103dc57816003193601126103dc5760115490516001600160801b039091168152602090f35b9050346103dc57611b4436612010565b909381611b7d575b5082519081526020936001600160a01b0390811692169060008051602061332e833981519152908590a35160018152f35b6001600160a01b03838116808352600160209081528684205490979392909190611ba986841015612936565b841691828203611bbe575b5050505093611b4c565b8184526002895287842033855289528784205460018101611c25575b5092828892600160209b611c058a8e99610b3360008051602061332e8339815191529c9a151561297b565b9285525283832055815220611c1b858254612248565b9055913880611bb4565b868110611c7957928892600160209b611c058a8e9996611c558260008051602061332e8339815191529d9b61223b565b86895260028552898920338a5285528989205596995050509b505092509294611bda565b885162461bcd60e51b8152600481018b9052601860248201527745524332303a20616c6c6f77616e636520746f6f206c6f7760401b6044820152606490fd5b9050346103dc57816003193601126103dc576020906027549051908152f35b82346102dd57611ce636611fc1565b9083969496421161063d57611d74916105e09160018060a01b03948b86891697888d526004602052818d2090815491611d1e83612b5a565b90558251918a60208401947fe9685ff6d48c617fe4f692c50e602cce27cbad0290beb93cfa77eac43968d58c8652840152898d1660608401528d608084015260a083015260c082015260c081526105a5816120c3565b16036105f9576102da939450612b69565b9050346103dc5760203660031901126103dc5760209181906001600160a01b03611dad611f86565b1681526015845220549051908152f35b9050346103dc57816003193601126103dc5751908152602090f35b9050346103dc57816003193601126103dc576020906022549051908152f35b9050346103dc57806003193601126103dc576020906110bb611e17611f86565b6024359033612bc0565b9050346103dc5760603660031901126103dc57611e3c611f86565b90602435908115158203611f1557611e52611fb2565b9160018060a01b03938491611e6c8360055416331461211c565b15611efd571691821590811591611ef5575b5015611eba57508060055492831660008051602061330e8339815191528580a36001600160a01b03199182161760055560068054909116905580f35b5162461bcd60e51b81526020600482015260156024820152744f776e61626c653a207a65726f206164647265737360581b6044820152606490fd5b905038611e7e565b925050501660018060a01b0319600654161760065580f35b8380fd5b82346102dd57806003193601126102dd5750611f336123de565b825191151582526020820152f35b9150346108d857806003193601126108d857602092611f5e611f86565b611f66611f9c565b6001600160a01b0391821683526003865283832091168252845220548152f35b600435906001600160a01b03821682036103d757565b602435906001600160a01b03821682036103d757565b6044359081151582036103d757565b60e09060031901126103d7576001600160a01b039060043582811681036103d7579160243590811681036103d75790604435906064359060843560ff811681036103d7579060a4359060c43590565b60609060031901126103d7576001600160a01b039060043582811681036103d7579160243590811681036103d7579060443590565b90600182811c92168015612075575b602083101461205f57565b634e487b7160e01b600052602260045260246000fd5b91607f1691612054565b6001600160401b03811161209257604052565b634e487b7160e01b600052604160045260246000fd5b604081019081106001600160401b0382111761209257604052565b60e081019081106001600160401b0382111761209257604052565b608081019081106001600160401b0382111761209257604052565b601f909101601f19168101906001600160401b0382119082101761209257604052565b1561212357565b606460405162461bcd60e51b815260206004820152602060248201527f4f776e61626c653a2063616c6c6572206973206e6f7420746865206f776e65726044820152fd5b1561216e57565b60405162461bcd60e51b815260206004820152601160248201527013585c9ad95d0e881b9bdd081d985b1a59607a1b6044820152606490fd5b156121ae57565b60405162461bcd60e51b815260206004820152600e60248201526d13585c9ad95d0e881c185d5cd95960921b6044820152606490fd5b818102929181159184041417156121f757565b634e487b7160e01b600052601160045260246000fd5b604d81116121f757600a0a90565b8115612225570490565b634e487b7160e01b600052601260045260246000fd5b919082039182116121f757565b919082018092116121f757565b919091612271612268601b5480956121e4565b6113f28461220d565b90818110612300576122c1916122869161223b565b926122bb6122b26122968561220d565b926122ac6122a38761220d565b601d5490612248565b906121e4565b6113f28561220d565b9061223b565b9060120390601282116121f7576122ac6122da9261220d565b670de0b6b3a7640000918281029281840414901517156121f7576122fd9161221b565b90565b50505050600090565b60405190612316826120a8565b6011546001600160801b038116835260801c6020830152565b6001600160a01b0381166000818152601460205260408120549194939290919081156123c5579160409161239985946123736123b99761236d612309565b92612539565b815190936001600160801b039160209161238f918416906121e4565b920151169061221b565b908082106123bd576123aa9161223b565b95815260156020522054612609565b9091565b5050806123aa565b50509192505080918190565b519081151582036103d757565b60018060a01b03600e541690604090815163d6d7d52560e01b8152602060048201528281604481600080988160248401525af19081156124e0578480926124a2575b5050918360001461249a5782156124605760207f9f9192b5edb17356c524e08d9e025c8e2f6307e6ea52fb7968faa3081f51c3c8918460105551848152a1565b5162461bcd60e51b81526020600482015260146024820152734d61726b65743a20696e76616c6964207261746560601b6044820152606490fd5b506010549150565b915093508284813d83116124d9575b6124bb81836120f9565b810103126102dd575060206124cf846123d1565b9301513880612420565b503d6124b1565b50505051903d90823e3d90fd5b156124f457565b60405162461bcd60e51b815260206004820152601e60248201527f4d61726b65743a2065786368616e676552617465206e6f742076616c696400006044820152606490fd5b91906125468115156124ed565b60018060a01b036020816007541691600a549060009616865260158252606461258761257e6040892054620186a0601e5404906121e4565b601b54906121e4565b91604051948593849263442c159960e01b8452600484015260248301528860448301525afa9081156125fe5784916125c6575b506122fd92935061221b565b90506020813d82116125f6575b816125e0602093836120f9565b81010312611f15576122fd9293505183926125ba565b3d91506125d3565b6040513d86823e3d90fd5b6126148215156124ed565b602060018060a01b0360075416916064600a54604051948593849263442c159960e01b845260048401526024830152600060448301525afa9081156126b957600091612686575b509061266d61267292601e54906121e4565b61221b565b620186a0612682601b54836121e4565b0491565b906020823d82116126b1575b8161269f602093836120f9565b810103126102dd57505161266d61265b565b3d9150612692565b6040513d6000823e3d90fd5b60018060a01b0316906126e660009183835260156020526040832054612609565b9282526014602052604082205480156128065781156128065781811061280657838110156127fc57816127189161223b565b90620186a093848302928084048614901517156127e85761273d92916113f29161223b565b91601854926019549384810391848612828412811690838513901516176127d45782810292858112600160ff1b8314166127c05783051490851417156127ac5705818382019384129112908015821691151617612798575090565b634e487b7160e01b81526011600452602490fd5b634e487b7160e01b83526011600452602483fd5b634e487b7160e01b86526011600452602486fd5b634e487b7160e01b85526011600452602485fd5b634e487b7160e01b84526011600452602484fd5b5050505060185490565b5050905090565b307f00000000000000000000000000000000000000000000000000000000000000006001600160a01b0316148061290d575b15612868577f000000000000000000000000000000000000000000000000000000000000000090565b60405160208101907f000000000000000000000000000000000000000000000000000000000000000082527f000000000000000000000000000000000000000000000000000000000000000060408201527f000000000000000000000000000000000000000000000000000000000000000060608201524660808201523060a082015260a0815260c0810181811060018060401b038211176120925760405251902090565b507f0000000000000000000000000000000000000000000000000000000000000000461461283f565b1561293d57565b60405162461bcd60e51b815260206004820152601660248201527545524332303a2062616c616e636520746f6f206c6f7760501b6044820152606490fd5b1561298257565b60405162461bcd60e51b815260206004820152601660248201527545524332303a206e6f207a65726f206164647265737360501b6044820152606490fd5b6005811015612abf57806129d15750565b60018103612a195760405162461bcd60e51b815260206004820152601860248201527745434453413a20696e76616c6964207369676e617475726560401b6044820152606490fd5b60028103612a665760405162461bcd60e51b815260206004820152601f60248201527f45434453413a20696e76616c6964207369676e6174757265206c656e677468006044820152606490fd5b600314612a6f57565b60405162461bcd60e51b815260206004820152602260248201527f45434453413a20696e76616c6964207369676e6174757265202773272076616c604482015261756560f01b6064820152608490fd5b634e487b7160e01b600052602160045260246000fd5b9291906fa2a8918ca85bafe22016d0b997e4df60600160ff1b038311612b4e5791608094939160ff602094604051948552168484015260408301526060820152600093849182805260015afa15612b415781516001600160a01b03811615612b3b579190565b50600190565b50604051903d90823e3d90fd5b50505050600090600390565b60001981146121f75760010190565b909160207fe50de2333c10a9502fcb1d8ae13a51bbf423153dfc63c2b8997665b32154afc39160018060a01b03809416938460005260038352604060002095169485600052825280604060002055604051908152a3565b909160207f8c5be1e5ebec7d5bd14f71427d1e84f3dd0314c0f7b2291e5b200ac8c7c3b9259160018060a01b03809416938460005260028352604060002095169485600052825280604060002055604051908152a3565b60405163313ce56760e01b60208083019182526004835291612c38816120a8565b5160009384928392916001600160a01b03165afa3d15612cd0573d906001600160401b038211612cbc5760405191612c79601f8201601f19168501846120f9565b82523d848484013e5b80612cb2575b15612caa5781818051810103126108d85701519060ff821682036102dd575090565b505050601290565b5081815114612c88565b634e487b7160e01b84526041600452602484fd5b606090612c82565b91909160018060a01b03806000921682526020601481526040832054908115612ddd576015815260408420548015612dd45781612d13612309565b9460075416916064612d3361257e600a5493620186a0601e5404906121e4565b91604051948593849263442c159960e01b8452600484015260248301528960448301525afa948515612dc8578095612d90575b505061238f612d8b949596612d8660018060801b039485875116906121e4565b6121e4565b111590565b909694508187813d8311612dc1575b612da981836120f9565b810103126102dd57509451929461238f612d8b612d66565b503d612d9f565b604051903d90823e3d90fd5b50929450505050565b5060019450505050565b9182158015612e2a575b612e2257600181018091116121f757612e10926122ac61266d9261220d565b600581018091116121f757600a900490565b505050600090565b508115612df1565b6001600160a01b0316338103612e46575050565b60009080825260036020526040822033835260205282604083205410612e8a5781604091612e86935260036020528181203382526020522091825461223b565b9055565b60405162461bcd60e51b815260206004820152601460248201527313585c9ad95d0e881b9bdd08185c1c1c9bdd995960621b6044820152606490fd5b60ff6023541661303c576011546001600160801b031690811561303557600854604051631848f2bf60e31b8152602093916001600160a01b03919085908290600490829086165afa80156126b9578591600091612ffc575b50600460405180948193631a674cc560e11b8352165afa9384156126b957600094612fcd575b5050612f609192670de0b6b3a7640000928391602654906121e4565b049081811015612fc457612f77602754809261223b565b838102908082048514901517156121f7576113f2612f9892612fb39461223b565b60245492612fad60255492612d86848761223b565b04612248565b90808211612fbf575090565b905090565b50505060245490565b81813d8311612ff5575b612fe181836120f9565b81010312611f1557519250612f6038612f44565b503d612fd7565b909181813d831161302e575b61301281836120f9565b810103126103dc57519082821682036102dd5750849038612f1e565b503d613008565b6025549150565b60085460405163e6abad4960e01b815290602090829060049082906001600160a01b03165afa9081156126b957600091613074575090565b906020823d821161309a575b8161308d602093836120f9565b810103126102dd57505190565b3d9150613080565b6001600160801b0391821690821601919082116121f757565b6040516130c7816120a8565b60215460018060401b03908181168352818160401c16926130ef60208201948086524261223b565b9182156131ba577f7484db546dcd57af0104c73c8a6968dfbaf5767f047cee0dadd0499ad7df81a094846020936040966301e1338061312c612ec6565b04168152814216835261313d612309565b670de0b6b3a764000061316260018060801b0398612d868a85511687875116906121e4565b0496613173818916828451166130a2565b1680825295015160801b6001600160801b031990811690951760115551915192909316921691821790841b6001851b600160801b03161760215582519182526020820152a1565b5050505050565b6001600160a01b039091168152602081019190915260400190565b91908260409103126103d7576020825192015190565b9081526001600160a01b0391821660208201529116604082015260608101919091526000608082015260a00190565b6001600160801b0391821690821603919082116121f757565b6001600160a01b039081166000818152601460209081526040822054949293919290918582146132be579060ff61327761328093600b5416612c17565b16958691612de7565b80156132b65783946113f26113ec6132a493604097875285805287872054906121e4565b93825280522054808211612fbf575090565b505091505090565b5050805260409020549291505056feae6e0ab3b95f0a53ff9660a390ccedcbbf1f2355dce974a9841af106fddcfabac353b09af857951dccce61b43a5854fc45beceed36c50e5d4cc2e71858a8e0df8be0079c531659141344cd1fd0a4f28419497f9722a3daafe3b4186f6b6457e0ddf252ad1be2c89b69c2b068fc378daa952ba7f163c4a11628f55a4df523b3ef8d1108e10bcb7c27dddfc02ed9d693a074039d026cf4ea4240b40f7d581ac802a2646970667358221220b75a397692da68eed7d5ce742772eeb67ba302ccee9f193817667744a7448dd464736f6c63430008120033",
  "linkReferences": {},
  "deployedLinkReferences": {}
}