{
  "_format": "hh-sol-artifact-1",
  "contractName": "BBCollateral",
  "sourceName": "contracts/markets/bigBang/BBCollateral.sol",
  "abi": [
    {
      "anonymous": false,
      "inputs": [
        {
          "indexed": true,
          "internalType": "address",
          "name": "owner",
          "type": "address"
        },
        {
          "indexed": true,
          "internalType": "address",
          "name": "spender",
          "type": "address"
        },
        {
          "indexed": false,
          "internalType": "uint256",
          "name": "value",
          "type": "uint256"
        }
      ],
      "name": "Approval",
      "type": "event"
    },
    {
      "anonymous": false,
      "inputs": [
        {
          "indexed": true,
          "internalType": "address",
          "name": "owner",
          "type": "address"
        },
        {
          "indexed": true,
          "internalType": "address",
          "name": "spender",
          "type": "address"
        },
        {
          "indexed": true,
          "internalType": "uint256",
          "name": "value",
          "type": "uint256"
        }
      ],
      "name": "ApprovalBorrow",
      "type": "event"
    },
    {
      "anonymous": false,
      "inputs": [],
      "name": "AssetOracleDataUpdated",
      "type": "event"
    },
    {
      "anonymous": false,
      "inputs": [
        {
          "indexed": true,
          "internalType": "address",
          "name": "_oldVal",
          "type": "address"
        },
        {
          "indexed": true,
          "internalType": "address",
          "name": "_newVal",
          "type": "address"
        }
      ],
      "name": "AssetOracleUpdated",
      "type": "event"
    },
    {
      "anonymous": false,
      "inputs": [
        {
          "indexed": true,
          "internalType": "address",
          "name": "old",
          "type": "address"
        },
        {
          "indexed": true,
          "internalType": "address",
          "name": "_new",
          "type": "address"
        }
      ],
      "name": "ConservatorUpdated",
      "type": "event"
    },
    {
      "anonymous": false,
      "inputs": [
        {
          "indexed": true,
          "internalType": "uint256",
          "name": "oldVal",
          "type": "uint256"
        },
        {
          "indexed": true,
          "internalType": "uint256",
          "name": "newVal",
          "type": "uint256"
        }
      ],
      "name": "DebtRateAgainstEthUpdated",
      "type": "event"
    },
    {
      "anonymous": false,
      "inputs": [
        {
          "indexed": false,
          "internalType": "uint256",
          "name": "_oldVal",
          "type": "uint256"
        },
        {
          "indexed": false,
          "internalType": "uint256",
          "name": "_newVal",
          "type": "uint256"
        }
      ],
      "name": "ExchangeRateDurationUpdated",
      "type": "event"
    },
    {
      "anonymous": false,
      "inputs": [
        {
          "indexed": true,
          "internalType": "address",
          "name": "liquidator",
          "type": "address"
        },
        {
          "indexed": true,
          "internalType": "address[]",
          "name": "users",
          "type": "address[]"
        },
        {
          "indexed": true,
          "internalType": "uint256",
          "name": "liquidatorReward",
          "type": "uint256"
        },
        {
          "indexed": false,
          "internalType": "uint256",
          "name": "protocolReward",
          "type": "uint256"
        },
        {
          "indexed": false,
          "internalType": "uint256",
          "name": "repayedAmount",
          "type": "uint256"
        },
        {
          "indexed": false,
          "internalType": "uint256",
          "name": "collateralShareRemoved",
          "type": "uint256"
        }
      ],
      "name": "Liquidated",
      "type": "event"
    },
    {
      "anonymous": false,
      "inputs": [
        {
          "indexed": true,
          "internalType": "uint256",
          "name": "oldVal",
          "type": "uint256"
        },
        {
          "indexed": true,
          "internalType": "uint256",
          "name": "newVal",
          "type": "uint256"
        }
      ],
      "name": "LiquidationMultiplierUpdated",
      "type": "event"
    },
    {
      "anonymous": false,
      "inputs": [
        {
          "indexed": true,
          "internalType": "uint256",
          "name": "accruedAmount",
          "type": "uint256"
        },
        {
          "indexed": true,
          "internalType": "uint64",
          "name": "rate",
          "type": "uint64"
        }
      ],
      "name": "LogAccrue",
      "type": "event"
    },
    {
      "anonymous": false,
      "inputs": [
        {
          "indexed": true,
          "internalType": "address",
          "name": "from",
          "type": "address"
        },
        {
          "indexed": true,
          "internalType": "address",
          "name": "to",
          "type": "address"
        },
        {
          "indexed": true,
          "internalType": "uint256",
          "name": "share",
          "type": "uint256"
        }
      ],
      "name": "LogAddCollateral",
      "type": "event"
    },
    {
      "anonymous": false,
      "inputs": [
        {
          "indexed": true,
          "internalType": "address",
          "name": "from",
          "type": "address"
        },
        {
          "indexed": true,
          "internalType": "address",
          "name": "to",
          "type": "address"
        },
        {
          "indexed": true,
          "internalType": "uint256",
          "name": "amount",
          "type": "uint256"
        },
        {
          "indexed": false,
          "internalType": "uint256",
          "name": "feeAmount",
          "type": "uint256"
        },
        {
          "indexed": false,
          "internalType": "uint256",
          "name": "part",
          "type": "uint256"
        }
      ],
      "name": "LogBorrow",
      "type": "event"
    },
    {
      "anonymous": false,
      "inputs": [
        {
          "indexed": true,
          "internalType": "uint256",
          "name": "_oldVal",
          "type": "uint256"
        },
        {
          "indexed": true,
          "internalType": "uint256",
          "name": "_newVal",
          "type": "uint256"
        }
      ],
      "name": "LogBorrowCapUpdated",
      "type": "event"
    },
    {
      "anonymous": false,
      "inputs": [
        {
          "indexed": true,
          "internalType": "uint256",
          "name": "rate",
          "type": "uint256"
        }
      ],
      "name": "LogExchangeRate",
      "type": "event"
    },
    {
      "anonymous": false,
      "inputs": [
        {
          "indexed": true,
          "internalType": "address",
          "name": "from",
          "type": "address"
        },
        {
          "indexed": true,
          "internalType": "address",
          "name": "to",
          "type": "address"
        },
        {
          "indexed": true,
          "internalType": "uint256",
          "name": "share",
          "type": "uint256"
        }
      ],
      "name": "LogRemoveCollateral",
      "type": "event"
    },
    {
      "anonymous": false,
      "inputs": [
        {
          "indexed": true,
          "internalType": "address",
          "name": "from",
          "type": "address"
        },
        {
          "indexed": true,
          "internalType": "address",
          "name": "to",
          "type": "address"
        },
        {
          "indexed": true,
          "internalType": "uint256",
          "name": "amount",
          "type": "uint256"
        },
        {
          "indexed": false,
          "internalType": "uint256",
          "name": "part",
          "type": "uint256"
        }
      ],
      "name": "LogRepay",
      "type": "event"
    },
    {
      "anonymous": false,
      "inputs": [
        {
          "indexed": true,
          "internalType": "uint256",
          "name": "oldVal",
          "type": "uint256"
        },
        {
          "indexed": true,
          "internalType": "uint256",
          "name": "newVal",
          "type": "uint256"
        }
      ],
      "name": "MaxDebtRateUpdated",
      "type": "event"
    },
    {
      "anonymous": false,
      "inputs": [
        {
          "indexed": true,
          "internalType": "uint256",
          "name": "oldVal",
          "type": "uint256"
        },
        {
          "indexed": true,
          "internalType": "uint256",
          "name": "newVal",
          "type": "uint256"
        }
      ],
      "name": "MinDebtRateUpdated",
      "type": "event"
    },
    {
      "anonymous": false,
      "inputs": [],
      "name": "OracleDataUpdated",
      "type": "event"
    },
    {
      "anonymous": false,
      "inputs": [],
      "name": "OracleUpdated",
      "type": "event"
    },
    {
      "anonymous": false,
      "inputs": [
        {
          "indexed": true,
          "internalType": "address",
          "name": "previousOwner",
          "type": "address"
        },
        {
          "indexed": true,
          "internalType": "address",
          "name": "newOwner",
          "type": "address"
        }
      ],
      "name": "OwnershipTransferred",
      "type": "event"
    },
    {
      "anonymous": false,
      "inputs": [
        {
          "indexed": true,
          "internalType": "enum Market.PauseType",
          "name": "_type",
          "type": "uint8"
        },
        {
          "indexed": true,
          "internalType": "bool",
          "name": "oldState",
          "type": "bool"
        },
        {
          "indexed": true,
          "internalType": "bool",
          "name": "newState",
          "type": "bool"
        }
      ],
      "name": "PausedUpdated",
      "type": "event"
    },
    {
      "anonymous": false,
      "inputs": [
        {
          "indexed": true,
          "internalType": "address",
          "name": "from",
          "type": "address"
        },
        {
          "indexed": true,
          "internalType": "address",
          "name": "to",
          "type": "address"
        },
        {
          "indexed": false,
          "internalType": "uint256",
          "name": "value",
          "type": "uint256"
        }
      ],
      "name": "Transfer",
      "type": "event"
    },
    {
      "anonymous": false,
      "inputs": [
        {
          "indexed": true,
          "internalType": "uint256",
          "name": "oldMin",
          "type": "uint256"
        },
        {
          "indexed": true,
          "internalType": "uint256",
          "name": "newMin",
          "type": "uint256"
        },
        {
          "indexed": true,
          "internalType": "uint256",
          "name": "oldMax",
          "type": "uint256"
        },
        {
          "indexed": false,
          "internalType": "uint256",
          "name": "newMax",
          "type": "uint256"
        }
      ],
      "name": "UpdateMinMaxMintFee",
      "type": "event"
    },
    {
      "inputs": [],
      "name": "DOMAIN_SEPARATOR",
      "outputs": [
        {
          "internalType": "bytes32",
          "name": "",
          "type": "bytes32"
        }
      ],
      "stateMutability": "view",
      "type": "function"
    },
    {
      "inputs": [],
      "name": "accrue",
      "outputs": [],
      "stateMutability": "nonpayable",
      "type": "function"
    },
    {
      "inputs": [],
      "name": "accrueInfo",
      "outputs": [
        {
          "internalType": "uint64",
          "name": "debtRate",
          "type": "uint64"
        },
        {
          "internalType": "uint64",
          "name": "lastAccrued",
          "type": "uint64"
        }
      ],
      "stateMutability": "view",
      "type": "function"
    },
    {
      "inputs": [
        {
          "internalType": "address",
          "name": "from",
          "type": "address"
        },
        {
          "internalType": "address",
          "name": "to",
          "type": "address"
        },
        {
          "internalType": "bool",
          "name": "skim",
          "type": "bool"
        },
        {
          "internalType": "uint256",
          "name": "amount",
          "type": "uint256"
        },
        {
          "internalType": "uint256",
          "name": "share",
          "type": "uint256"
        }
      ],
      "name": "addCollateral",
      "outputs": [],
      "stateMutability": "nonpayable",
      "type": "function"
    },
    {
      "inputs": [
        {
          "internalType": "address",
          "name": "",
          "type": "address"
        },
        {
          "internalType": "address",
          "name": "",
          "type": "address"
        }
      ],
      "name": "allowance",
      "outputs": [
        {
          "internalType": "uint256",
          "name": "",
          "type": "uint256"
        }
      ],
      "stateMutability": "view",
      "type": "function"
    },
    {
      "inputs": [
        {
          "internalType": "address",
          "name": "",
          "type": "address"
        },
        {
          "internalType": "address",
          "name": "",
          "type": "address"
        }
      ],
      "name": "allowanceBorrow",
      "outputs": [
        {
          "internalType": "uint256",
          "name": "",
          "type": "uint256"
        }
      ],
      "stateMutability": "view",
      "type": "function"
    },
    {
      "inputs": [
        {
          "internalType": "address",
          "name": "spender",
          "type": "address"
        },
        {
          "internalType": "uint256",
          "name": "amount",
          "type": "uint256"
        }
      ],
      "name": "approve",
      "outputs": [
        {
          "internalType": "bool",
          "name": "",
          "type": "bool"
        }
      ],
      "stateMutability": "nonpayable",
      "type": "function"
    },
    {
      "inputs": [
        {
          "internalType": "address",
          "name": "spender",
          "type": "address"
        },
        {
          "internalType": "uint256",
          "name": "amount",
          "type": "uint256"
        }
      ],
      "name": "approveBorrow",
      "outputs": [
        {
          "internalType": "bool",
          "name": "",
          "type": "bool"
        }
      ],
      "stateMutability": "nonpayable",
      "type": "function"
    },
    {
      "inputs": [],
      "name": "asset",
      "outputs": [
        {
          "internalType": "contract IERC20",
          "name": "",
          "type": "address"
        }
      ],
      "stateMutability": "view",
      "type": "function"
    },
    {
      "inputs": [],
      "name": "assetId",
      "outputs": [
        {
          "internalType": "uint256",
          "name": "",
          "type": "uint256"
        }
      ],
      "stateMutability": "view",
      "type": "function"
    },
    {
      "inputs": [],
      "name": "assetOracle",
      "outputs": [
        {
          "internalType": "contract IOracle",
          "name": "",
          "type": "address"
        }
      ],
      "stateMutability": "view",
      "type": "function"
    },
    {
      "inputs": [],
      "name": "assetOracleData",
      "outputs": [
        {
          "internalType": "bytes",
          "name": "",
          "type": "bytes"
        }
      ],
      "stateMutability": "view",
      "type": "function"
    },
    {
      "inputs": [
        {
          "internalType": "address",
          "name": "",
          "type": "address"
        }
      ],
      "name": "balanceOf",
      "outputs": [
        {
          "internalType": "uint256",
          "name": "",
          "type": "uint256"
        }
      ],
      "stateMutability": "view",
      "type": "function"
    },
    {
      "inputs": [],
      "name": "callerFee",
      "outputs": [
        {
          "internalType": "uint256",
          "name": "",
          "type": "uint256"
        }
      ],
      "stateMutability": "view",
      "type": "function"
    },
    {
      "inputs": [],
      "name": "claimOwnership",
      "outputs": [],
      "stateMutability": "nonpayable",
      "type": "function"
    },
    {
      "inputs": [],
      "name": "collateral",
      "outputs": [
        {
          "internalType": "contract IERC20",
          "name": "",
          "type": "address"
        }
      ],
      "stateMutability": "view",
      "type": "function"
    },
    {
      "inputs": [],
      "name": "collateralId",
      "outputs": [
        {
          "internalType": "uint256",
          "name": "",
          "type": "uint256"
        }
      ],
      "stateMutability": "view",
      "type": "function"
    },
    {
      "inputs": [],
      "name": "collateralizationRate",
      "outputs": [
        {
          "internalType": "uint256",
          "name": "",
          "type": "uint256"
        }
      ],
      "stateMutability": "view",
      "type": "function"
    },
    {
      "inputs": [
        {
          "internalType": "uint256",
          "name": "borrowPart",
          "type": "uint256"
        },
        {
          "internalType": "uint256",
          "name": "collateralPartInAsset",
          "type": "uint256"
        },
        {
          "internalType": "uint256",
          "name": "ratesPrecision",
          "type": "uint256"
        }
      ],
      "name": "computeClosingFactor",
      "outputs": [
        {
          "internalType": "uint256",
          "name": "",
          "type": "uint256"
        }
      ],
      "stateMutability": "view",
      "type": "function"
    },
    {
      "inputs": [
        {
          "internalType": "address",
          "name": "user",
          "type": "address"
        },
        {
          "internalType": "uint256",
          "name": "_exchangeRate",
          "type": "uint256"
        }
      ],
      "name": "computeLiquidatorReward",
      "outputs": [
        {
          "internalType": "uint256",
          "name": "",
          "type": "uint256"
        }
      ],
      "stateMutability": "view",
      "type": "function"
    },
    {
      "inputs": [
        {
          "internalType": "address",
          "name": "user",
          "type": "address"
        },
        {
          "internalType": "uint256",
          "name": "_exchangeRate",
          "type": "uint256"
        }
      ],
      "name": "computeTVLInfo",
      "outputs": [
        {
          "internalType": "uint256",
          "name": "amountToSolvency",
          "type": "uint256"
        },
        {
          "internalType": "uint256",
          "name": "minTVL",
          "type": "uint256"
        },
        {
          "internalType": "uint256",
          "name": "maxTVL",
          "type": "uint256"
        }
      ],
      "stateMutability": "view",
      "type": "function"
    },
    {
      "inputs": [],
      "name": "conservator",
      "outputs": [
        {
          "internalType": "address",
          "name": "",
          "type": "address"
        }
      ],
      "stateMutability": "view",
      "type": "function"
    },
    {
      "inputs": [],
      "name": "debtRateAgainstEthMarket",
      "outputs": [
        {
          "internalType": "uint256",
          "name": "",
          "type": "uint256"
        }
      ],
      "stateMutability": "view",
      "type": "function"
    },
    {
      "inputs": [],
      "name": "debtStartPoint",
      "outputs": [
        {
          "internalType": "uint256",
          "name": "",
          "type": "uint256"
        }
      ],
      "stateMutability": "view",
      "type": "function"
    },
    {
      "inputs": [],
      "name": "exchangeRate",
      "outputs": [
        {
          "internalType": "uint256",
          "name": "",
          "type": "uint256"
        }
      ],
      "stateMutability": "view",
      "type": "function"
    },
    {
      "inputs": [],
      "name": "getDebtRate",
      "outputs": [
        {
          "internalType": "uint256",
          "name": "",
          "type": "uint256"
        }
      ],
      "stateMutability": "view",
      "type": "function"
    },
    {
      "inputs": [],
      "name": "getTotalDebt",
      "outputs": [
        {
          "internalType": "uint256",
          "name": "",
          "type": "uint256"
        }
      ],
      "stateMutability": "view",
      "type": "function"
    },
    {
      "inputs": [],
      "name": "isMainMarket",
      "outputs": [
        {
          "internalType": "bool",
          "name": "",
          "type": "bool"
        }
      ],
      "stateMutability": "view",
      "type": "function"
    },
    {
      "inputs": [],
      "name": "liquidationBonusAmount",
      "outputs": [
        {
          "internalType": "uint256",
          "name": "",
          "type": "uint256"
        }
      ],
      "stateMutability": "view",
      "type": "function"
    },
    {
      "inputs": [],
      "name": "liquidationCollateralizationRate",
      "outputs": [
        {
          "internalType": "uint256",
          "name": "",
          "type": "uint256"
        }
      ],
      "stateMutability": "view",
      "type": "function"
    },
    {
      "inputs": [],
      "name": "liquidationMultiplier",
      "outputs": [
        {
          "internalType": "uint256",
          "name": "",
          "type": "uint256"
        }
      ],
      "stateMutability": "view",
      "type": "function"
    },
    {
      "inputs": [],
      "name": "maxDebtRate",
      "outputs": [
        {
          "internalType": "uint256",
          "name": "",
          "type": "uint256"
        }
      ],
      "stateMutability": "view",
      "type": "function"
    },
    {
      "inputs": [],
      "name": "maxLiquidatorReward",
      "outputs": [
        {
          "internalType": "uint256",
          "name": "",
          "type": "uint256"
        }
      ],
      "stateMutability": "view",
      "type": "function"
    },
    {
      "inputs": [],
      "name": "maxMintFee",
      "outputs": [
        {
          "internalType": "uint256",
          "name": "",
          "type": "uint256"
        }
      ],
      "stateMutability": "view",
      "type": "function"
    },
    {
      "inputs": [],
      "name": "minDebtRate",
      "outputs": [
        {
          "internalType": "uint256",
          "name": "",
          "type": "uint256"
        }
      ],
      "stateMutability": "view",
      "type": "function"
    },
    {
      "inputs": [],
      "name": "minLiquidatorReward",
      "outputs": [
        {
          "internalType": "uint256",
          "name": "",
          "type": "uint256"
        }
      ],
      "stateMutability": "view",
      "type": "function"
    },
    {
      "inputs": [],
      "name": "minMintFee",
      "outputs": [
        {
          "internalType": "uint256",
          "name": "",
          "type": "uint256"
        }
      ],
      "stateMutability": "view",
      "type": "function"
    },
    {
      "inputs": [
        {
          "internalType": "address",
          "name": "owner",
          "type": "address"
        }
      ],
      "name": "nonces",
      "outputs": [
        {
          "internalType": "uint256",
          "name": "",
          "type": "uint256"
        }
      ],
      "stateMutability": "view",
      "type": "function"
    },
    {
      "inputs": [
        {
          "internalType": "address",
          "name": "user",
          "type": "address"
        }
      ],
      "name": "openingFees",
      "outputs": [
        {
          "internalType": "uint256",
          "name": "fee",
          "type": "uint256"
        }
      ],
      "stateMutability": "view",
      "type": "function"
    },
    {
      "inputs": [],
      "name": "oracle",
      "outputs": [
        {
          "internalType": "contract IOracle",
          "name": "",
          "type": "address"
        }
      ],
      "stateMutability": "view",
      "type": "function"
    },
    {
      "inputs": [],
      "name": "oracleData",
      "outputs": [
        {
          "internalType": "bytes",
          "name": "",
          "type": "bytes"
        }
      ],
      "stateMutability": "view",
      "type": "function"
    },
    {
      "inputs": [],
      "name": "owner",
      "outputs": [
        {
          "internalType": "address",
          "name": "",
          "type": "address"
        }
      ],
      "stateMutability": "view",
      "type": "function"
    },
    {
      "inputs": [
        {
          "internalType": "enum Market.PauseType",
          "name": "pauseProp",
          "type": "uint8"
        }
      ],
      "name": "pauseOptions",
      "outputs": [
        {
          "internalType": "bool",
          "name": "pauseStatus",
          "type": "bool"
        }
      ],
      "stateMutability": "view",
      "type": "function"
    },
    {
      "inputs": [],
      "name": "pendingOwner",
      "outputs": [
        {
          "internalType": "address",
          "name": "",
          "type": "address"
        }
      ],
      "stateMutability": "view",
      "type": "function"
    },
    {
      "inputs": [],
      "name": "penrose",
      "outputs": [
        {
          "internalType": "contract IPenrose",
          "name": "",
          "type": "address"
        }
      ],
      "stateMutability": "view",
      "type": "function"
    },
    {
      "inputs": [
        {
          "internalType": "address",
          "name": "owner",
          "type": "address"
        },
        {
          "internalType": "address",
          "name": "spender",
          "type": "address"
        },
        {
          "internalType": "uint256",
          "name": "value",
          "type": "uint256"
        },
        {
          "internalType": "uint256",
          "name": "deadline",
          "type": "uint256"
        },
        {
          "internalType": "uint8",
          "name": "v",
          "type": "uint8"
        },
        {
          "internalType": "bytes32",
          "name": "r",
          "type": "bytes32"
        },
        {
          "internalType": "bytes32",
          "name": "s",
          "type": "bytes32"
        }
      ],
      "name": "permit",
      "outputs": [],
      "stateMutability": "nonpayable",
      "type": "function"
    },
    {
      "inputs": [
        {
          "internalType": "bytes",
          "name": "data",
          "type": "bytes"
        },
        {
          "internalType": "uint16",
          "name": "actionType",
          "type": "uint16"
        }
      ],
      "name": "permitAction",
      "outputs": [],
      "stateMutability": "nonpayable",
      "type": "function"
    },
    {
      "inputs": [
        {
          "internalType": "address",
          "name": "owner",
          "type": "address"
        },
        {
          "internalType": "address",
          "name": "spender",
          "type": "address"
        },
        {
          "internalType": "uint256",
          "name": "value",
          "type": "uint256"
        },
        {
          "internalType": "uint256",
          "name": "deadline",
          "type": "uint256"
        },
        {
          "internalType": "uint8",
          "name": "v",
          "type": "uint8"
        },
        {
          "internalType": "bytes32",
          "name": "r",
          "type": "bytes32"
        },
        {
          "internalType": "bytes32",
          "name": "s",
          "type": "bytes32"
        }
      ],
      "name": "permitBorrow",
      "outputs": [],
      "stateMutability": "nonpayable",
      "type": "function"
    },
    {
      "inputs": [],
      "name": "protocolFee",
      "outputs": [
        {
          "internalType": "uint256",
          "name": "",
          "type": "uint256"
        }
      ],
      "stateMutability": "view",
      "type": "function"
    },
    {
      "inputs": [],
      "name": "rateTimestamp",
      "outputs": [
        {
          "internalType": "uint256",
          "name": "",
          "type": "uint256"
        }
      ],
      "stateMutability": "view",
      "type": "function"
    },
    {
      "inputs": [],
      "name": "rateValidDuration",
      "outputs": [
        {
          "internalType": "uint256",
          "name": "",
          "type": "uint256"
        }
      ],
      "stateMutability": "view",
      "type": "function"
    },
    {
      "inputs": [
        {
          "internalType": "address",
          "name": "from",
          "type": "address"
        },
        {
          "internalType": "address",
          "name": "to",
          "type": "address"
        },
        {
          "internalType": "uint256",
          "name": "share",
          "type": "uint256"
        }
      ],
      "name": "removeCollateral",
      "outputs": [],
      "stateMutability": "nonpayable",
      "type": "function"
    },
    {
      "inputs": [
        {
          "internalType": "contract IOracle",
          "name": "_oracle",
          "type": "address"
        },
        {
          "internalType": "bytes",
          "name": "_oracleData",
          "type": "bytes"
        },
        {
          "internalType": "address",
          "name": "_conservator",
          "type": "address"
        },
        {
          "internalType": "uint256",
          "name": "_callerFee",
          "type": "uint256"
        },
        {
          "internalType": "uint256",
          "name": "_protocolFee",
          "type": "uint256"
        },
        {
          "internalType": "uint256",
          "name": "_liquidationBonusAmount",
          "type": "uint256"
        },
        {
          "internalType": "uint256",
          "name": "_minLiquidatorReward",
          "type": "uint256"
        },
        {
          "internalType": "uint256",
          "name": "_maxLiquidatorReward",
          "type": "uint256"
        },
        {
          "internalType": "uint256",
          "name": "_totalBorrowCap",
          "type": "uint256"
        },
        {
          "internalType": "uint256",
          "name": "_collateralizationRate",
          "type": "uint256"
        },
        {
          "internalType": "uint256",
          "name": "_liquidationCollateralizationRate",
          "type": "uint256"
        }
      ],
      "name": "setMarketConfig",
      "outputs": [],
      "stateMutability": "nonpayable",
      "type": "function"
    },
    {
      "inputs": [],
      "name": "totalBorrow",
      "outputs": [
        {
          "internalType": "uint128",
          "name": "elastic",
          "type": "uint128"
        },
        {
          "internalType": "uint128",
          "name": "base",
          "type": "uint128"
        }
      ],
      "stateMutability": "view",
      "type": "function"
    },
    {
      "inputs": [],
      "name": "totalBorrowCap",
      "outputs": [
        {
          "internalType": "uint256",
          "name": "",
          "type": "uint256"
        }
      ],
      "stateMutability": "view",
      "type": "function"
    },
    {
      "inputs": [],
      "name": "totalCollateralShare",
      "outputs": [
        {
          "internalType": "uint256",
          "name": "",
          "type": "uint256"
        }
      ],
      "stateMutability": "view",
      "type": "function"
    },
    {
      "inputs": [],
      "name": "totalSupply",
      "outputs": [
        {
          "internalType": "uint256",
          "name": "",
          "type": "uint256"
        }
      ],
      "stateMutability": "view",
      "type": "function"
    },
    {
      "inputs": [
        {
          "internalType": "address",
          "name": "to",
          "type": "address"
        },
        {
          "internalType": "uint256",
          "name": "amount",
          "type": "uint256"
        }
      ],
      "name": "transfer",
      "outputs": [
        {
          "internalType": "bool",
          "name": "",
          "type": "bool"
        }
      ],
      "stateMutability": "nonpayable",
      "type": "function"
    },
    {
      "inputs": [
        {
          "internalType": "address",
          "name": "from",
          "type": "address"
        },
        {
          "internalType": "address",
          "name": "to",
          "type": "address"
        },
        {
          "internalType": "uint256",
          "name": "amount",
          "type": "uint256"
        }
      ],
      "name": "transferFrom",
      "outputs": [
        {
          "internalType": "bool",
          "name": "",
          "type": "bool"
        }
      ],
      "stateMutability": "nonpayable",
      "type": "function"
    },
    {
      "inputs": [
        {
          "internalType": "address",
          "name": "newOwner",
          "type": "address"
        },
        {
          "internalType": "bool",
          "name": "direct",
          "type": "bool"
        },
        {
          "internalType": "bool",
          "name": "renounce",
          "type": "bool"
        }
      ],
      "name": "transferOwnership",
      "outputs": [],
      "stateMutability": "nonpayable",
      "type": "function"
    },
    {
      "inputs": [],
      "name": "updateExchangeRate",
      "outputs": [
        {
          "internalType": "bool",
          "name": "updated",
          "type": "bool"
        },
        {
          "internalType": "uint256",
          "name": "rate",
          "type": "uint256"
        }
      ],
      "stateMutability": "nonpayable",
      "type": "function"
    },
    {
      "inputs": [
        {
          "internalType": "enum Market.PauseType",
          "name": "_type",
          "type": "uint8"
        },
        {
          "internalType": "bool",
          "name": "val",
          "type": "bool"
        }
      ],
      "name": "updatePause",
      "outputs": [],
      "stateMutability": "nonpayable",
      "type": "function"
    },
    {
      "inputs": [
        {
          "internalType": "address",
          "name": "",
          "type": "address"
        }
      ],
      "name": "userBorrowPart",
      "outputs": [
        {
          "internalType": "uint256",
          "name": "",
          "type": "uint256"
        }
      ],
      "stateMutability": "view",
      "type": "function"
    },
    {
      "inputs": [
        {
          "internalType": "address",
          "name": "",
          "type": "address"
        }
      ],
      "name": "userCollateralShare",
      "outputs": [
        {
          "internalType": "uint256",
          "name": "",
          "type": "uint256"
        }
      ],
      "stateMutability": "view",
      "type": "function"
    },
    {
      "inputs": [],
      "name": "yieldBox",
      "outputs": [
        {
          "internalType": "contract YieldBox",
          "name": "",
          "type": "address"
        }
      ],
      "stateMutability": "view",
      "type": "function"
    }
  ],
  "bytecode": "0x61014080604052346200018a5762000017816200018f565b600f81526001602082016e546170696f63612042696742616e6760881b8152602060405162000046816200018f565b8381520192603160f81b845251902091208160e052610100918183524660a0526040519160208301907f8b73c3c69bb8fe3d512ecc4cf759cc79239f7b179b0ffacaa9a75d522b39400f92838352604085015260608401524660808401523060a084015260a0835260c083019280841060018060401b03851117620001745760408490525190206080523060c052610120908152600580546001600160a01b0319163390811790915560007f8be0079c531659141344cd1fd0a4f28419497f9722a3daafe3b4186f6b6457e08180a362013880601b5562015f90601c55612710601d55612ee06020556103e8602d556133559283620001ac843960805183612942015260a05183612a0d015260c0518361290c015260e05183612991015251826129b70152518161296e0152f35b634e487b7160e01b600052604160045260246000fd5b600080fd5b604081019081106001600160401b03821117620001745760405256fe608080604052600436101561001357600080fd5b600090813560e01c908162a02a2014611f095750806302ce728f14611ee0578063078dfbe714611de1578063095ea7b314611dba5780630c4e84f014611c9e57806318160ddd14611c825780631c9e379b14611c495780631d4d3a5d14611c205780631da8bf1014611b4c5780631fb8f81a14611b2e57806323b872dd146119a7578063331960ff1461198957806334ce998a1461196057806334d441d0146119425780633644e5151461192757806337b6b7b91461190957806338d52e0f146118e05780633ba0b9a9146118c25780633f741adb1461189d57806340626d8b1461187f57806344de240a14611861578063473e3ce71461184357806348e4163e1461180a5780634e71e0c81461175c578063529898f21461173f578063542afda31461172157806357935462146117035780636b19ad16146116e55780636c3d8b8f146116bc57806370a0823114611683578063727785471461164b57806374645ff3146115ba57806374c9e4811461159c5780637dc0d1d0146115735780637ecebe001461153a5780637fa0b84e146115085780638285ef40146114d657806387b279371461149d5780638c5d0ed31461147f5780638da5cb5b14611456578063910dd7c814611221578063932bc4f81461114557806399a970281461111d5780639e15e89f146110e2578063a9059cbb14610fff578063b0e21e8a14610fe1578063b27c0e7414610fb0578063b7113f1914610f8d578063bb4cfe3b14610f6f578063bde39c5d14610f51578063c1ad5c8d14610f2e578063cce19f8114610dae578063ce8849ed14610d85578063d3fb2a381461091d578063d505accf1461077c578063d8dfeb4514610753578063dd62ed3e14610704578063de406577146106db578063e0996cb6146106bd578063e30c397814610694578063e9a4925214610363578063ea64dd5614610345578063eec0f42e14610327578063f791395d146103095763f8ba4cff146102eb57600080fd5b346103065780600319360112610306576103036131e6565b80f35b80fd5b50346103065780600319360112610306576020602754604051908152f35b50346103065780600319360112610306576020600c54604051908152f35b50346103065780600319360112610306576020601f54604051908152f35b50346103065760a03660031901126103065761037d611f51565b610385611f67565b9061038e611f8c565b608435926001600160a01b039081169290916064356103af30861415612cfa565b6002600052602090600782526103cd60ff6040600020541615612d45565b8615610616575b6103de8785612d82565b8615610595575b5084875260188152604087206103fc878254612246565b905560155461040b8782612246565b601555600c549088841561050f575082866009541692604460405180958193627eeac760e11b835230600484015260248301525afa80156105045789906104d0575b6104579250612239565b861161049857505b15610493575080600954165b167f9ed03113de523cebfe5e49d5f8e12894b1c0d42ce805990461726444c90eab878480a480f35b61046b565b6064906040519062461bcd60e51b825260048201526011602482015270084d2ce84c2dcce7440e8dede40daeac6d607b1b6044820152fd5b508282813d83116104fd575b6104e68183612103565b810103126104f857610457915161044d565b600080fd5b503d6104dc565b6040513d8b823e3d90fd5b9250508460095416803b1561059157604051630208d92960e11b81526001600160a01b038616600482015230602482015260448101929092526064820188905282908290608490829084905af180156105865761056e575b505061045f565b61057790612088565b610582578538610567565b8580fd5b6040513d84823e3d90fd5b8280fd5b908096508460095416916064600c546040519485938492638eb22cdd60e01b8452600484015260248301528b60448301525afa90811561060b5787916105de575b5094386103e5565b90508581813d8311610604575b6105f58183612103565b810103126104f85751386105d6565b503d6105eb565b6040513d89823e3d90fd5b9550836009541681600c54606460405180948193638eb22cdd60e01b835260048301528b60248301528c60448301525afa90811561068957889161065c575b50956103d4565b90508181813d8311610682575b6106738183612103565b810103126104f8575138610655565b503d610669565b6040513d8a823e3d90fd5b50346103065780600319360112610306576006546040516001600160a01b039091168152602090f35b50346103065780600319360112610306576020601d54604051908152f35b50346103065780600319360112610306576009546040516001600160a01b039091168152602090f35b50346103065760403660031901126103065761071e611f51565b6040610728611f67565b9260018060a01b03809316815260026020522091166000526020526020604060002054604051908152f35b5034610306578060031936011261030657600b546040516001600160a01b039091168152602090f35b50346103065761078b36611f9b565b9183919395949542116108d85760018060a01b039283881694856000526004602052604060002092835460001981146108c25761086e95610866956001830190556040519060208201927f9cc5629bbe7baa98a89f6f8c2c396b83ab62dbb6cbb12f17f1d6ba7e6f53e2668452600060408401528a6060840152898c1660808401528c60a084015260c083015260e082015260e0815261082a816120cc565b519020610835612909565b9060405190602082019261190160f01b8452602283015260428201526042815261085e816120e8565b519020612bd0565b919091612ad1565b160361087d5761030392612ca3565b60405162461bcd60e51b815260206004820152601e60248201527f45524332305065726d69743a20696e76616c6964207369676e617475726500006044820152606490fd5b634e487b7160e01b600052601160045260246000fd5b60405162461bcd60e51b815260206004820152601d60248201527f45524332305065726d69743a206578706972656420646561646c696e650000006044820152606490fd5b503461030657610160366003190112610306576001600160a01b0360043581811690819003610591576024916001600160401b0383358181116105825736602382011215610582578060040135918211610582573685838301011161058257604435938385168095036104f8576109998460055416331461216d565b80610d47575b508482610bed575b50505081610bad575b505060643580610b95575b5060843580610b7d575b5060a43580610b66575b5060c43580610b42575b5060e43580610b1e575b506101043580610aed575b506101243580610a7a575b50610144359081610a08578280f35b601e548210610a1b5750601f5538808280f35b60849060326040519162461bcd60e51b8352602060048401528201527f4d61726b65743a206c69717569646174696f6e436f6c6c61746572616c697a616044820152711d1a5bdb94985d19481d1bdbc81cdb585b1b60721b6064820152fd5b610a89620186a08211156121b8565b601f548111610a9b57601e55386109f9565b60405162461bcd60e51b8152602060048201526025818401527f4d61726b65743a20636f6c6c61746572616c697a6174696f6e5261746520746f6044820152646f2062696760d81b6064820152608490fd5b806016547fae6e0ab3b95f0a53ff9660a390ccedcbbf1f2355dce974a9841af106fddcfaba8580a3601655386109ee565b610b2c620186a082106121b8565b610b39601b5482116121b8565b601c55386109e3565b610b50620186a082106121b8565b610b5d601c5482106121b8565b601b55386109d9565b610b74620186a082106121b8565b601d55386109cf565b610b8c620186a08211156121b8565b601a55386109c5565b610ba4620186a08211156121b8565b601955386109bb565b816008549182167f5a62d22209e370e38eea92cfddcd228e656e6ec139243392a760a7769f5877fd8680a36001600160a01b0319161760085538806109b0565b8291610bfa60105461204e565b601f8111610ce8575b508790601f8411600114610c68578893610c5b575b5050508160011b916000199060031b1c1916176010555b7fa6f004921c944d4b8bf6e38462b00f36a58d62495d56b51f571ab78f732c98158480a13880846109a7565b0101359050843880610c18565b60108952601f198416945060008051602061330083398151915292509087908960205b878210610cc95750508460019610610cad575b50505050811b01601055610c2f565b60001960f88660031b161c199201013516905538808681610c9e565b8285019093013585556001949094019389929182019190810190610c8b565b601089529092509050600080516020613300833981519152601f840160051c810160208510610d40575b91849391601f8994920160051c01905b818110610d2f5750610c03565b898155859450889350600101610d22565b5080610d12565b600f80546001600160a01b0319169190911790557f0b2d6eb667d0522c3eb86e4288afecae6c11591ffd1345d4d12407e0598bca9b8680a13861099f565b50346103065780600319360112610306576008546040516001600160a01b039091168152602090f35b50346103065780610dbe36611fea565b600384929394526007602052610ddb60ff60408420541615612d45565b610de36124dc565b5050610ded6131e6565b6001600160a01b038381169390610e0630861415612cfa565b610e108387612d82565b8281871695868652601860205260408620610e2c838254612239565b9055610e3a82601554612239565b601555604051967f8ad4d3ff00da092c7ad9a573ea4f5f6a3dffc6712dc06d3f78f49b862297c4028780a46009541690600c5492823b15610f2a57630208d92960e11b86523060048701526001600160a01b03919091166024860152604485019290925260648401919091528290608490829084905af18015610f1f57610f0a575b50601154610ec991612e60565b15610ed15780f35b60405162461bcd60e51b815260206004820152601160248201527013585c9ad95d0e881a5b9cdbdb1d995b9d607a1b6044820152606490fd5b91610f18610ec99293612088565b9190610ebc565b6040513d85823e3d90fd5b8480fd5b50346103065780600319360112610306576020610f49612f62565b604051908152f35b50346103065780600319360112610306576020602854604051908152f35b50346103065780600319360112610306576020601e54604051908152f35b5034610306578060031936011261030657602060ff602554166040519015158152f35b503461030657806003193601126103065760406024548151906001600160401b03908181168352831c166020820152f35b50346103065780600319360112610306576020601a54604051908152f35b503461030657604036600319011261030657611019611f51565b602435809281158015906110d0575b611060575b50506040519182526001600160a01b03169033906000805160206132e083398151915290602090a3602060405160018152f35b3381526001602052604081205461107983821015612a33565b6001600160a01b0384169033829003611094575b505061102d565b6040936110ab916110a6841515612a78565b612239565b3383526001602052838320558152206110c5838254612246565b90558138808061108d565b50336001600160a01b03841614611028565b503461030657604036600319011261030657606061110a611101611f51565b60243590612385565b9060405192835260208301526040820152f35b5034610306576040366003190112610306576020610f4961113c611f51565b602435906127d7565b503461030657806003193601126103065760405181602b546111668161204e565b808452906001908181169081156111f957506001146111a0575b61119c8461119081880382612103565b60405191829182612124565b0390f35b602b8352602094507f11c44e4875b74d31ff9fd779bf2566af7bd15b87fc985d01f5094b89e3669e4f5b8284106111e6575050508161119c936111909282010193611180565b80548585018701529285019281016111ca565b61119c96506111909450602092508593915060ff191682840152151560051b82010193611180565b5034610306576040366003190112610306576004356001600160401b0380821161059157366023830112156105915781600401359081116114425782604051926112756020601f19601f8601160185612103565b82845260208401923660248284010111610591578060246020930185378401015260243561ffff8116810361143e57610100918284805181010312610f2a576112bd906124cf565b6112c960408501612abd565b916112d660608601612abd565b9460808101519460a08201519260c08301519160ff8316830361143a5760e0840151930151938042116108d8578515611413577f9cc5629bbe7baa98a89f6f8c2c396b83ab62dbb6cbb12f17f1d6ba7e6f53e266915b6001600160a01b0388168b52600460205260408b208054919060001983146113ff579161ffff6113bc9896949261086698969460018401905560405194602086015216604084015260018060a01b038a16606084015260018060a01b038c1660808401528a60a084015260c083015260e082015260e081526113ad816120cc565b60208151910120610835612909565b6001600160a01b0383811691160361087d57156113e957610303926001600160a01b039081169116612ca3565b610303926001600160a01b039081169116612c55565b634e487b7160e01b8d52601160045260248dfd5b7f5c9ba5f0d101616843d7918f48ea857d6da95e04ac6d719e105e50a355e7c5d69161132c565b8980fd5b8380fd5b634e487b7160e01b83526041600452602483fd5b50346103065780600319360112610306576005546040516001600160a01b039091168152602090f35b50346103065780600319360112610306576020601b54604051908152f35b5034610306576020366003190112610306576020906040906001600160a01b036114c5611f51565b168152602383522054604051908152f35b5034610306578060031936011261030657601454604080516001600160801b038316815260809290921c602083015290f35b50346103065760403660031901126103065761152f611525611f51565b6024359033612c55565b602060405160018152f35b5034610306576020366003190112610306576020906040906001600160a01b03611562611f51565b168152600483522054604051908152f35b5034610306578060031936011261030657600f546040516001600160a01b039091168152602090f35b50346103065780600319360112610306576020602d54604051908152f35b5034610306578060031936011261030657604051816010546115db8161204e565b808452906001908181169081156111f957506001146116045761119c8461119081880382612103565b60108352602094506000805160206133008339815191525b828410611638575050508161119c936111909282010193611180565b805485850187015292850192810161161c565b50346103065760203660031901126103065760043590600982101561030657602060ff6116778461201f565b54166040519015158152f35b5034610306576020366003190112610306576020906040906001600160a01b036116ab611f51565b168152600183522054604051908152f35b5034610306578060031936011261030657600a546040516001600160a01b039091168152602090f35b50346103065780600319360112610306576020602654604051908152f35b50346103065780600319360112610306576020601c54604051908152f35b50346103065780600319360112610306576020602c54604051908152f35b503461030657806003193601126103065760208054604051908152f35b50346103065780600319360112610306576006546001600160a01b0390818116338190036117c657806005549384167f8be0079c531659141344cd1fd0a4f28419497f9722a3daafe3b4186f6b6457e08680a36001600160a01b0319928316176005551660065580f35b606460405162461bcd60e51b815260206004820152602060248201527f4f776e61626c653a2063616c6c657220213d2070656e64696e67206f776e65726044820152fd5b5034610306576020366003190112610306576020906040906001600160a01b03611832611f51565b168152601783522054604051908152f35b50346103065780600319360112610306576020601554604051908152f35b50346103065780600319360112610306576020600e54604051908152f35b50346103065780600319360112610306576020601654604051908152f35b5034610306576060366003190112610306576020610f4960443560243560043561226c565b50346103065780600319360112610306576020601154604051908152f35b5034610306578060031936011261030657600d546040516001600160a01b039091168152602090f35b50346103065780600319360112610306576020601254604051908152f35b50346103065780600319360112610306576020610f49612909565b50346103065780600319360112610306576020601954604051908152f35b50346103065780600319360112610306576014546040516001600160801b039091168152602090f35b50346103065780600319360112610306576020601354604051908152f35b5034610306576119b636611fea565b9192826119f2575b506040519182526001600160a01b039081169216906000805160206132e083398151915290602090a3602060405160018152f35b6001600160a01b03848116808352600160209081526040842054928690611a1b82861015612a33565b861693848403611a30575b50505050506119be565b838652600283526040808720338852845286205460018101611a9a575b5092600160209693611a7887946040976110a66000805160206132e08339815191529c9a1515612a78565b9285525283832055815220611a8e858254612246565b90559138808581611a26565b90918110611aee5792600160209693611a788a6000805160206132e08339815191529a9895611acb8260409a612239565b86895260028552898920338a528552898920559497509497995050939650611a4d565b60405162461bcd60e51b815260048101849052601860248201527745524332303a20616c6c6f77616e636520746f6f206c6f7760401b6044820152606490fd5b50346103065780600319360112610306576020602954604051908152f35b503461030657611b5b36611f9b565b908395949542116108d8576001600160a01b03878116808a52600460205260408a2080549196929592906000198314611c0c5782611bfd9694928d92600161086698960190556040519160208301937f5c9ba5f0d101616843d7918f48ea857d6da95e04ac6d719e105e50a355e7c5d6855260408401528a6060840152898c1660808401528c60a084015260c083015260e082015260e0815261082a816120cc565b160361087d5761030392612c55565b634e487b7160e01b8c52601160045260248cfd5b5034610306578060031936011261030657602a546040516001600160a01b039091168152602090f35b5034610306576020366003190112610306576020906040906001600160a01b03611c71611f51565b168152601883522054604051908152f35b5034610306578060031936011261030657602090604051908152f35b5034610306576040366003190112610306576004356009811015611db657611cc4611f7d565b6008549091906001600160a01b03163303611d7a5760ff611ce48261201f565b54161515911515918214611d4057808260ff611d02611d309461201f565b54161515827feeec81de25875ce1725479bb76f720a8defdb43dea041919ae37bb4aae9847c08780a461201f565b9060ff8019835416911617905580f35b60405162461bcd60e51b81526020600482015260126024820152714d61726b65743a2073616d6520737461746560701b6044820152606490fd5b60405162461bcd60e51b815260206004820152601460248201527313585c9ad95d0e881d5b985d5d1a1bdc9a5e995960621b6044820152606490fd5b5080fd5b50346103065760403660031901126103065761152f611dd7611f51565b6024359033612ca3565b503461030657606036600319011261030657611dfb611f51565b611e03611f7d565b611e0b611f8c565b9060018060a01b03928391611e258360055416331461216d565b15611ec9571690811590811591611ec1575b5015611e8457806005549283167f8be0079c531659141344cd1fd0a4f28419497f9722a3daafe3b4186f6b6457e08580a36001600160a01b03199182161760055560068054909116905580f35b60405162461bcd60e51b81526020600482015260156024820152744f776e61626c653a207a65726f206164647265737360581b6044820152606490fd5b905038611e37565b9150501660018060a01b0319600654161760065580f35b50346103065780600319360112610306576040611efb6124dc565b825191151582526020820152f35b905034611db6576040366003190112611db6576040602092611f29611f51565b611f31611f67565b6001600160a01b0391821683526003865283832091168252845220548152f35b600435906001600160a01b03821682036104f857565b602435906001600160a01b03821682036104f857565b6024359081151582036104f857565b6044359081151582036104f857565b60e09060031901126104f8576001600160a01b039060043582811681036104f8579160243590811681036104f85790604435906064359060843560ff811681036104f8579060a4359060c43590565b60609060031901126104f8576001600160a01b039060043582811681036104f8579160243590811681036104f8579060443590565b6009811015612038576000526007602052604060002090565b634e487b7160e01b600052602160045260246000fd5b90600182811c9216801561207e575b602083101461206857565b634e487b7160e01b600052602260045260246000fd5b91607f169161205d565b6001600160401b03811161209b57604052565b634e487b7160e01b600052604160045260246000fd5b604081019081106001600160401b0382111761209b57604052565b61010081019081106001600160401b0382111761209b57604052565b608081019081106001600160401b0382111761209b57604052565b90601f801991011681019081106001600160401b0382111761209b57604052565b6020808252825181830181905290939260005b82811061215957505060409293506000838284010152601f8019910116010190565b818101860151848201604001528501612137565b1561217457565b606460405162461bcd60e51b815260206004820152602060248201527f4f776e61626c653a2063616c6c6572206973206e6f7420746865206f776e65726044820152fd5b156121bf57565b60405162461bcd60e51b815260206004820152601160248201527013585c9ad95d0e881b9bdd081d985b1a59607a1b6044820152606490fd5b818102929181159184041417156108c257565b8115612215570490565b634e487b7160e01b600052601260045260246000fd5b604d81116108c257600a0a90565b919082039182116108c257565b919082018092116108c257565b818103929160001380158285131691841216176108c257565b6014549192916122b5916122a69161229c91612292906001600160801b038316906121f8565b9060801c9061220b565b93601f54906121f8565b6122af8361222b565b9061220b565b80831061237d576122c96123059184612239565b916123006122fa6122f1601e546122eb6122e28661222b565b60205490612246565b906121f8565b6122af8461222b565b9161222b565b612253565b6509184e72a000908181029181830514901517156108c257670de0b6b3a7640000918281029281840514901517156108c257801561221557600160ff1b918083146000198314166108c257059060008212156123765781146108c257600003905b808211612371575090565b905090565b5090612366565b505050600090565b6001600160a01b039081166000818152601760209081526040822054929594939192909181156124c2576123b7613152565b906123c38615156126d4565b6009541683600c54898752601882526064604088205491604051948593849263442c159960e01b8452600484015260248301528960448301525afa9081156124b7578591612488575b509285949261246860189361244361247c9961243e61243560409a620186a060215404906121f8565b601e54906121f8565b61220b565b815190936001600160801b0391869161245e918416906121f8565b920151169061220b565b81811061248057035b978352522054612720565b9091565b505082612471565b90508381813d83116124b0575b61249f8183612103565b81010312610f2a575161247c61240c565b503d612495565b6040513d87823e3d90fd5b5050509192505080918190565b519081151582036104f857565b60018060a01b03600f54169060409081519263d6d7d52560e01b8452828460209283600483015260006010546125118161204e565b908160248601526001908582821691826000146126b057505060011461266c575b5050600083809203925af18015612661576000948591612626575b509284156125c857831561258e57505081601155817f9f9192b5edb17356c524e08d9e025c8e2f6307e6ea52fb7968faa3081f51c3c8600080a25b42601355565b60649250519062461bcd60e51b8252600482015260146024820152734d61726b65743a20696e76616c6964207261746560601b6044820152fd5b909192506125db60135460125490612246565b42116125ec57505060115490612588565b60649250519062461bcd60e51b82526004820152601460248201527313585c9ad95d0e881c985d19481d1bdbc81bdb1960621b6044820152fd5b9490508385813d831161265a575b61263e8183612103565b81010312610306575080612651856124cf565b9401513861254d565b503d612634565b83513d6000823e3d90fd5b915060106000528560002091866000935b83851061269557505050508201604401600083612532565b80548c8601604401528a97508b96509301928790820161267d565b8195506000949193506044925060ff191682840152151560051b8201019250612532565b156126db57565b60405162461bcd60e51b815260206004820152601e60248201527f4d61726b65743a2065786368616e676552617465206e6f742076616c696400006044820152606490fd5b61272b8215156126d4565b602060018060a01b0360095416916064600c54604051948593849263442c159960e01b845260048401526024830152600060448301525afa9081156127cb57600091612798575b509061243e61278492602154906121f8565b620186a0612794601e54836121f8565b0491565b906020823d82116127c3575b816127b160209383612103565b8101031261030657505161243e612772565b3d91506127a4565b6040513d6000823e3d90fd5b6001600160a01b031660008181526018602052604081205490926127fa91612720565b9183526017602052604083205480156129035781156129035781811061290357828110156128f9576014546128439183916110a691612292906001600160801b038316906121f8565b90620186a092838302928084048514901517156128e55761286892916122af91612239565b91601b5491601c549361287b8585612253565b80820291848212600160ff1b8214166128e55781830514901517156128d157058184820194851291129080158216911516176128bd5750808212612371575090565b634e487b7160e01b81526011600452602490fd5b634e487b7160e01b83526011600452602483fd5b634e487b7160e01b85526011600452602485fd5b50505050601b5490565b50505090565b307f00000000000000000000000000000000000000000000000000000000000000006001600160a01b03161480612a0a575b15612964577f000000000000000000000000000000000000000000000000000000000000000090565b60405160208101907f000000000000000000000000000000000000000000000000000000000000000082527f000000000000000000000000000000000000000000000000000000000000000060408201527f000000000000000000000000000000000000000000000000000000000000000060608201524660808201523060a082015260a0815260c081018181106001600160401b0382111761209b5760405251902090565b507f0000000000000000000000000000000000000000000000000000000000000000461461293b565b15612a3a57565b60405162461bcd60e51b815260206004820152601660248201527545524332303a2062616c616e636520746f6f206c6f7760501b6044820152606490fd5b15612a7f57565b60405162461bcd60e51b815260206004820152601660248201527545524332303a206e6f207a65726f206164647265737360501b6044820152606490fd5b51906001600160a01b03821682036104f857565b60058110156120385780612ae25750565b60018103612b2a5760405162461bcd60e51b815260206004820152601860248201527745434453413a20696e76616c6964207369676e617475726560401b6044820152606490fd5b60028103612b775760405162461bcd60e51b815260206004820152601f60248201527f45434453413a20696e76616c6964207369676e6174757265206c656e677468006044820152606490fd5b600314612b8057565b60405162461bcd60e51b815260206004820152602260248201527f45434453413a20696e76616c6964207369676e6174757265202773272076616c604482015261756560f01b6064820152608490fd5b9291906fa2a8918ca85bafe22016d0b997e4df60600160ff1b038311612c495791608094939160ff602094604051948552168484015260408301526060820152600093849182805260015afa15612c3c5781516001600160a01b03811615612c36579190565b50600190565b50604051903d90823e3d90fd5b50505050600090600390565b7fe50de2333c10a9502fcb1d8ae13a51bbf423153dfc63c2b8997665b32154afc360018060a01b038092169160009083825260036020526040822094169384825260205284604082205580a4565b909160207f8c5be1e5ebec7d5bd14f71427d1e84f3dd0314c0f7b2291e5b200ac8c7c3b9259160018060a01b03809416938460005260028352604060002095169485600052825280604060002055604051908152a3565b15612d0157565b606460405162461bcd60e51b815260206004820152602060248201527f4d61726b65743a2063616e6e6f742065786563757465206f6e20697473656c666044820152fd5b15612d4c57565b60405162461bcd60e51b815260206004820152600e60248201526d13585c9ad95d0e881c185d5cd95960921b6044820152606490fd5b6001600160a01b0316338103612d96575050565b6000818152602090600382526040918282203383528152848383205410612e005783825260038152828220338352815282822054600101612dd9575b5050505050565b612df493825260038152828220903383525220918254612239565b90553880808080612dd2565b60649083519062461bcd60e51b82526004820152601460248201527313585c9ad95d0e881b9bdd08185c1c1c9bdd995960621b6044820152fd5b60405190612e47826120b1565b6014546001600160801b038116835260801c6020830152565b919060018060a01b03806000941684526020601781526040852054908115612f58576018815260408620548015612dd25781612e9a612e3a565b9460095416916064600c54604051948593849263442c159960e01b8452600484015260248301528b60448301525afa968715612f4c578097612f16575b505061245e612ef6612435612f11969798620186a060215404906121f8565b95612f0c60018060801b039485875116906121f8565b6121f8565b111590565b9096508187813d8311612f45575b612f2e8183612103565b81010312610306575094519461245e612ef6612ed7565b503d612f24565b604051903d90823e3d90fd5b5060019450505050565b60ff602554166130d3576014546001600160801b03169081156130cc57600a54604051631848f2bf60e31b8152602093916001600160a01b03919085908290600490829086165afa80156127cb578591600091613093575b50600460405180948193631a674cc560e11b8352165afa9384156127cb57600094613064575b5050612ffc9192670de0b6b3a7640000928391602854906121f8565b04908181101561305b576130136029548092612239565b838102908082048514901517156108c2576122af6130349261304f94612239565b6026549261304960275492612f0c8487612239565b04612246565b90808211612371575090565b50505060265490565b81813d831161308c575b6130788183612103565b8101031261143e57519250612ffc38612fe0565b503d61306e565b909181813d83116130c5575b6130a98183612103565b81010312611db657519082821682036103065750849038612fba565b503d61309f565b6027549150565b600a5460405163e6abad4960e01b815290602090829060049082906001600160a01b03165afa9081156127cb5760009161310b575090565b906020823d8211613131575b8161312460209383612103565b8101031261030657505190565b3d9150613117565b6001600160801b0391821690821601919082116108c257565b60006020604051613162816120b1565b82815201526001600160401b03906131818260245460401c1642612239565b9182156131d8576131d3612f0c91670de0b6b3a76400006131c86131a3612e3a565b9660018060801b03958694858a5116906301e133806131c0612f62565b0416906121f8565b041682855116613139565b168252565b5090506131e3612e3a565b90565b6040516131f2816120b1565b6024546001600160401b03908181168352818160401c1661321a602085019180835242612239565b928315612dd257602094816301e13380613232612f62565b041681528142168352613243612e3a565b670de0b6b3a764000061326860018060801b0397612f0c8985511687875116906121f8565b049561327981881682845116613139565b1680825296015160801b6001600160801b031990811690961760145551915192909416931692831760409190911b67ffffffffffffffff60401b16176024557f7484db546dcd57af0104c73c8a6968dfbaf5767f047cee0dadd0499ad7df81a0600080a356feddf252ad1be2c89b69c2b068fc378daa952ba7f163c4a11628f55a4df523b3ef1b6847dc741a1b0cd08d278845f9d819d87b734759afb55fe2de5cb82a9ae672a2646970667358221220bef39f6b490096eaa1e8d926eac411159da5d2d4f5f5ff5f896ffa34eabf6b2b64736f6c63430008120033",
  "linkReferences": {},
  "deployedLinkReferences": {}
}