{
  "_format": "hh-sol-artifact-1",
  "contractName": "BBCollateral",
  "sourceName": "contracts/markets/bigBang/BBCollateral.sol",
  "abi": [
    {
      "inputs": [],
      "name": "BorrowCapReached",
      "type": "error"
    },
    {
      "inputs": [],
      "name": "InvalidShortString",
      "type": "error"
    },
    {
      "inputs": [],
      "name": "NotEnough",
      "type": "error"
    },
    {
      "inputs": [],
      "name": "NothingToRepay",
      "type": "error"
    },
    {
      "inputs": [],
      "name": "OracleCallFailed",
      "type": "error"
    },
    {
      "inputs": [],
      "name": "RepayAmountNotValid",
      "type": "error"
    },
    {
      "inputs": [
        {
          "internalType": "string",
          "name": "str",
          "type": "string"
        }
      ],
      "name": "StringTooLong",
      "type": "error"
    },
    {
      "anonymous": false,
      "inputs": [
        {
          "indexed": true,
          "internalType": "address",
          "name": "owner",
          "type": "address"
        },
        {
          "indexed": true,
          "internalType": "address",
          "name": "spender",
          "type": "address"
        },
        {
          "indexed": false,
          "internalType": "uint256",
          "name": "value",
          "type": "uint256"
        }
      ],
      "name": "Approval",
      "type": "event"
    },
    {
      "anonymous": false,
      "inputs": [
        {
          "indexed": true,
          "internalType": "address",
          "name": "owner",
          "type": "address"
        },
        {
          "indexed": true,
          "internalType": "address",
          "name": "spender",
          "type": "address"
        },
        {
          "indexed": true,
          "internalType": "uint256",
          "name": "value",
          "type": "uint256"
        }
      ],
      "name": "ApprovalBorrow",
      "type": "event"
    },
    {
      "anonymous": false,
      "inputs": [],
      "name": "AssetOracleDataUpdated",
      "type": "event"
    },
    {
      "anonymous": false,
      "inputs": [
        {
          "indexed": true,
          "internalType": "address",
          "name": "oldVal",
          "type": "address"
        },
        {
          "indexed": true,
          "internalType": "address",
          "name": "newVal",
          "type": "address"
        }
      ],
      "name": "AssetOracleUpdated",
      "type": "event"
    },
    {
      "anonymous": false,
      "inputs": [
        {
          "indexed": true,
          "internalType": "address",
          "name": "old",
          "type": "address"
        },
        {
          "indexed": true,
          "internalType": "address",
          "name": "_new",
          "type": "address"
        }
      ],
      "name": "ConservatorUpdated",
      "type": "event"
    },
    {
      "anonymous": false,
      "inputs": [
        {
          "indexed": true,
          "internalType": "uint256",
          "name": "oldVal",
          "type": "uint256"
        },
        {
          "indexed": true,
          "internalType": "uint256",
          "name": "newVal",
          "type": "uint256"
        }
      ],
      "name": "DebtRateAgainstEthUpdated",
      "type": "event"
    },
    {
      "anonymous": false,
      "inputs": [],
      "name": "EIP712DomainChanged",
      "type": "event"
    },
    {
      "anonymous": false,
      "inputs": [
        {
          "indexed": false,
          "internalType": "uint256",
          "name": "_oldVal",
          "type": "uint256"
        },
        {
          "indexed": false,
          "internalType": "uint256",
          "name": "_newVal",
          "type": "uint256"
        }
      ],
      "name": "ExchangeRateDurationUpdated",
      "type": "event"
    },
    {
      "anonymous": false,
      "inputs": [
        {
          "indexed": true,
          "internalType": "address",
          "name": "oldVal",
          "type": "address"
        },
        {
          "indexed": true,
          "internalType": "address",
          "name": "newVal",
          "type": "address"
        }
      ],
      "name": "LeverageExecutorSet",
      "type": "event"
    },
    {
      "anonymous": false,
      "inputs": [
        {
          "indexed": true,
          "internalType": "address",
          "name": "liquidator",
          "type": "address"
        },
        {
          "indexed": true,
          "internalType": "address[]",
          "name": "users",
          "type": "address[]"
        },
        {
          "indexed": true,
          "internalType": "uint256",
          "name": "liquidatorReward",
          "type": "uint256"
        },
        {
          "indexed": false,
          "internalType": "uint256",
          "name": "protocolReward",
          "type": "uint256"
        },
        {
          "indexed": false,
          "internalType": "uint256",
          "name": "repayedAmount",
          "type": "uint256"
        },
        {
          "indexed": false,
          "internalType": "uint256",
          "name": "collateralShareRemoved",
          "type": "uint256"
        }
      ],
      "name": "Liquidated",
      "type": "event"
    },
    {
      "anonymous": false,
      "inputs": [
        {
          "indexed": true,
          "internalType": "uint256",
          "name": "oldVal",
          "type": "uint256"
        },
        {
          "indexed": true,
          "internalType": "uint256",
          "name": "newVal",
          "type": "uint256"
        }
      ],
      "name": "LiquidationMultiplierUpdated",
      "type": "event"
    },
    {
      "anonymous": false,
      "inputs": [
        {
          "indexed": true,
          "internalType": "uint256",
          "name": "accruedAmount",
          "type": "uint256"
        },
        {
          "indexed": true,
          "internalType": "uint64",
          "name": "rate",
          "type": "uint64"
        }
      ],
      "name": "LogAccrue",
      "type": "event"
    },
    {
      "anonymous": false,
      "inputs": [
        {
          "indexed": true,
          "internalType": "address",
          "name": "from",
          "type": "address"
        },
        {
          "indexed": true,
          "internalType": "address",
          "name": "to",
          "type": "address"
        },
        {
          "indexed": true,
          "internalType": "uint256",
          "name": "share",
          "type": "uint256"
        }
      ],
      "name": "LogAddCollateral",
      "type": "event"
    },
    {
      "anonymous": false,
      "inputs": [
        {
          "indexed": true,
          "internalType": "address",
          "name": "from",
          "type": "address"
        },
        {
          "indexed": true,
          "internalType": "address",
          "name": "to",
          "type": "address"
        },
        {
          "indexed": true,
          "internalType": "uint256",
          "name": "amount",
          "type": "uint256"
        },
        {
          "indexed": false,
          "internalType": "uint256",
          "name": "feeAmount",
          "type": "uint256"
        },
        {
          "indexed": false,
          "internalType": "uint256",
          "name": "part",
          "type": "uint256"
        }
      ],
      "name": "LogBorrow",
      "type": "event"
    },
    {
      "anonymous": false,
      "inputs": [
        {
          "indexed": true,
          "internalType": "uint256",
          "name": "_oldVal",
          "type": "uint256"
        },
        {
          "indexed": true,
          "internalType": "uint256",
          "name": "_newVal",
          "type": "uint256"
        }
      ],
      "name": "LogBorrowCapUpdated",
      "type": "event"
    },
    {
      "anonymous": false,
      "inputs": [
        {
          "indexed": true,
          "internalType": "uint256",
          "name": "rate",
          "type": "uint256"
        }
      ],
      "name": "LogExchangeRate",
      "type": "event"
    },
    {
      "anonymous": false,
      "inputs": [
        {
          "indexed": true,
          "internalType": "address",
          "name": "from",
          "type": "address"
        },
        {
          "indexed": true,
          "internalType": "address",
          "name": "to",
          "type": "address"
        },
        {
          "indexed": true,
          "internalType": "uint256",
          "name": "share",
          "type": "uint256"
        }
      ],
      "name": "LogRemoveCollateral",
      "type": "event"
    },
    {
      "anonymous": false,
      "inputs": [
        {
          "indexed": true,
          "internalType": "address",
          "name": "from",
          "type": "address"
        },
        {
          "indexed": true,
          "internalType": "address",
          "name": "to",
          "type": "address"
        },
        {
          "indexed": true,
          "internalType": "uint256",
          "name": "amount",
          "type": "uint256"
        },
        {
          "indexed": false,
          "internalType": "uint256",
          "name": "part",
          "type": "uint256"
        }
      ],
      "name": "LogRepay",
      "type": "event"
    },
    {
      "anonymous": false,
      "inputs": [
        {
          "indexed": true,
          "internalType": "uint256",
          "name": "oldVal",
          "type": "uint256"
        },
        {
          "indexed": true,
          "internalType": "uint256",
          "name": "newVal",
          "type": "uint256"
        }
      ],
      "name": "MaxDebtRateUpdated",
      "type": "event"
    },
    {
      "anonymous": false,
      "inputs": [
        {
          "indexed": true,
          "internalType": "uint256",
          "name": "oldVal",
          "type": "uint256"
        },
        {
          "indexed": true,
          "internalType": "uint256",
          "name": "newVal",
          "type": "uint256"
        }
      ],
      "name": "MinDebtRateUpdated",
      "type": "event"
    },
    {
      "anonymous": false,
      "inputs": [],
      "name": "OracleDataUpdated",
      "type": "event"
    },
    {
      "anonymous": false,
      "inputs": [
        {
          "indexed": false,
          "internalType": "address",
          "name": "newAddr",
          "type": "address"
        }
      ],
      "name": "OracleUpdated",
      "type": "event"
    },
    {
      "anonymous": false,
      "inputs": [
        {
          "indexed": true,
          "internalType": "address",
          "name": "previousOwner",
          "type": "address"
        },
        {
          "indexed": true,
          "internalType": "address",
          "name": "newOwner",
          "type": "address"
        }
      ],
      "name": "OwnershipTransferred",
      "type": "event"
    },
    {
      "anonymous": false,
      "inputs": [
        {
          "indexed": true,
          "internalType": "enum Market.PauseType",
          "name": "_type",
          "type": "uint8"
        },
        {
          "indexed": true,
          "internalType": "bool",
          "name": "oldState",
          "type": "bool"
        },
        {
          "indexed": true,
          "internalType": "bool",
          "name": "newState",
          "type": "bool"
        }
      ],
      "name": "PausedUpdated",
      "type": "event"
    },
    {
      "anonymous": false,
      "inputs": [
        {
          "indexed": true,
          "internalType": "address",
          "name": "from",
          "type": "address"
        },
        {
          "indexed": true,
          "internalType": "address",
          "name": "to",
          "type": "address"
        },
        {
          "indexed": false,
          "internalType": "uint256",
          "name": "value",
          "type": "uint256"
        }
      ],
      "name": "Transfer",
      "type": "event"
    },
    {
      "anonymous": false,
      "inputs": [
        {
          "indexed": true,
          "internalType": "uint256",
          "name": "oldMin",
          "type": "uint256"
        },
        {
          "indexed": true,
          "internalType": "uint256",
          "name": "newMin",
          "type": "uint256"
        },
        {
          "indexed": true,
          "internalType": "uint256",
          "name": "oldMax",
          "type": "uint256"
        },
        {
          "indexed": false,
          "internalType": "uint256",
          "name": "newMax",
          "type": "uint256"
        }
      ],
      "name": "UpdateMinMaxMintFee",
      "type": "event"
    },
    {
      "anonymous": false,
      "inputs": [
        {
          "indexed": true,
          "internalType": "uint256",
          "name": "oldMin",
          "type": "uint256"
        },
        {
          "indexed": true,
          "internalType": "uint256",
          "name": "newMin",
          "type": "uint256"
        },
        {
          "indexed": true,
          "internalType": "uint256",
          "name": "oldMax",
          "type": "uint256"
        },
        {
          "indexed": false,
          "internalType": "uint256",
          "name": "newMax",
          "type": "uint256"
        }
      ],
      "name": "UpdateMinMaxMintRange",
      "type": "event"
    },
    {
      "anonymous": false,
      "inputs": [
        {
          "indexed": true,
          "internalType": "uint256",
          "name": "valType",
          "type": "uint256"
        },
        {
          "indexed": true,
          "internalType": "uint256",
          "name": "_newVal",
          "type": "uint256"
        }
      ],
      "name": "ValueUpdated",
      "type": "event"
    },
    {
      "inputs": [],
      "name": "DOMAIN_SEPARATOR",
      "outputs": [
        {
          "internalType": "bytes32",
          "name": "",
          "type": "bytes32"
        }
      ],
      "stateMutability": "view",
      "type": "function"
    },
    {
      "inputs": [],
      "name": "accrue",
      "outputs": [],
      "stateMutability": "nonpayable",
      "type": "function"
    },
    {
      "inputs": [],
      "name": "accrueInfo",
      "outputs": [
        {
          "internalType": "uint64",
          "name": "debtRate",
          "type": "uint64"
        },
        {
          "internalType": "uint64",
          "name": "lastAccrued",
          "type": "uint64"
        }
      ],
      "stateMutability": "view",
      "type": "function"
    },
    {
      "inputs": [
        {
          "internalType": "address",
          "name": "from",
          "type": "address"
        },
        {
          "internalType": "address",
          "name": "to",
          "type": "address"
        },
        {
          "internalType": "bool",
          "name": "skim",
          "type": "bool"
        },
        {
          "internalType": "uint256",
          "name": "amount",
          "type": "uint256"
        },
        {
          "internalType": "uint256",
          "name": "share",
          "type": "uint256"
        }
      ],
      "name": "addCollateral",
      "outputs": [],
      "stateMutability": "nonpayable",
      "type": "function"
    },
    {
      "inputs": [
        {
          "internalType": "address",
          "name": "",
          "type": "address"
        },
        {
          "internalType": "address",
          "name": "",
          "type": "address"
        }
      ],
      "name": "allowance",
      "outputs": [
        {
          "internalType": "uint256",
          "name": "",
          "type": "uint256"
        }
      ],
      "stateMutability": "view",
      "type": "function"
    },
    {
      "inputs": [
        {
          "internalType": "address",
          "name": "",
          "type": "address"
        },
        {
          "internalType": "address",
          "name": "",
          "type": "address"
        }
      ],
      "name": "allowanceBorrow",
      "outputs": [
        {
          "internalType": "uint256",
          "name": "",
          "type": "uint256"
        }
      ],
      "stateMutability": "view",
      "type": "function"
    },
    {
      "inputs": [
        {
          "internalType": "address",
          "name": "spender",
          "type": "address"
        },
        {
          "internalType": "uint256",
          "name": "amount",
          "type": "uint256"
        }
      ],
      "name": "approve",
      "outputs": [
        {
          "internalType": "bool",
          "name": "",
          "type": "bool"
        }
      ],
      "stateMutability": "nonpayable",
      "type": "function"
    },
    {
      "inputs": [
        {
          "internalType": "address",
          "name": "spender",
          "type": "address"
        },
        {
          "internalType": "uint256",
          "name": "amount",
          "type": "uint256"
        }
      ],
      "name": "approveBorrow",
      "outputs": [
        {
          "internalType": "bool",
          "name": "",
          "type": "bool"
        }
      ],
      "stateMutability": "nonpayable",
      "type": "function"
    },
    {
      "inputs": [],
      "name": "asset",
      "outputs": [
        {
          "internalType": "contract IERC20",
          "name": "",
          "type": "address"
        }
      ],
      "stateMutability": "view",
      "type": "function"
    },
    {
      "inputs": [],
      "name": "assetId",
      "outputs": [
        {
          "internalType": "uint256",
          "name": "",
          "type": "uint256"
        }
      ],
      "stateMutability": "view",
      "type": "function"
    },
    {
      "inputs": [],
      "name": "assetOracle",
      "outputs": [
        {
          "internalType": "contract IOracle",
          "name": "",
          "type": "address"
        }
      ],
      "stateMutability": "view",
      "type": "function"
    },
    {
      "inputs": [],
      "name": "assetOracleData",
      "outputs": [
        {
          "internalType": "bytes",
          "name": "",
          "type": "bytes"
        }
      ],
      "stateMutability": "view",
      "type": "function"
    },
    {
      "inputs": [
        {
          "internalType": "address",
          "name": "",
          "type": "address"
        }
      ],
      "name": "balanceOf",
      "outputs": [
        {
          "internalType": "uint256",
          "name": "",
          "type": "uint256"
        }
      ],
      "stateMutability": "view",
      "type": "function"
    },
    {
      "inputs": [],
      "name": "callerFee",
      "outputs": [
        {
          "internalType": "uint256",
          "name": "",
          "type": "uint256"
        }
      ],
      "stateMutability": "view",
      "type": "function"
    },
    {
      "inputs": [],
      "name": "claimOwnership",
      "outputs": [],
      "stateMutability": "nonpayable",
      "type": "function"
    },
    {
      "inputs": [],
      "name": "collateral",
      "outputs": [
        {
          "internalType": "contract IERC20",
          "name": "",
          "type": "address"
        }
      ],
      "stateMutability": "view",
      "type": "function"
    },
    {
      "inputs": [],
      "name": "collateralId",
      "outputs": [
        {
          "internalType": "uint256",
          "name": "",
          "type": "uint256"
        }
      ],
      "stateMutability": "view",
      "type": "function"
    },
    {
      "inputs": [],
      "name": "collateralizationRate",
      "outputs": [
        {
          "internalType": "uint256",
          "name": "",
          "type": "uint256"
        }
      ],
      "stateMutability": "view",
      "type": "function"
    },
    {
      "inputs": [
        {
          "internalType": "uint256",
          "name": "borrowPart",
          "type": "uint256"
        },
        {
          "internalType": "uint256",
          "name": "collateralPartInAsset",
          "type": "uint256"
        },
        {
          "internalType": "uint256",
          "name": "ratesPrecision",
          "type": "uint256"
        }
      ],
      "name": "computeClosingFactor",
      "outputs": [
        {
          "internalType": "uint256",
          "name": "",
          "type": "uint256"
        }
      ],
      "stateMutability": "view",
      "type": "function"
    },
    {
      "inputs": [
        {
          "internalType": "address",
          "name": "user",
          "type": "address"
        },
        {
          "internalType": "uint256",
          "name": "_exchangeRate",
          "type": "uint256"
        }
      ],
      "name": "computeLiquidatorReward",
      "outputs": [
        {
          "internalType": "uint256",
          "name": "",
          "type": "uint256"
        }
      ],
      "stateMutability": "view",
      "type": "function"
    },
    {
      "inputs": [
        {
          "internalType": "address",
          "name": "user",
          "type": "address"
        },
        {
          "internalType": "uint256",
          "name": "_exchangeRate",
          "type": "uint256"
        }
      ],
      "name": "computeTVLInfo",
      "outputs": [
        {
          "internalType": "uint256",
          "name": "amountToSolvency",
          "type": "uint256"
        },
        {
          "internalType": "uint256",
          "name": "minTVL",
          "type": "uint256"
        },
        {
          "internalType": "uint256",
          "name": "maxTVL",
          "type": "uint256"
        }
      ],
      "stateMutability": "view",
      "type": "function"
    },
    {
      "inputs": [],
      "name": "conservator",
      "outputs": [
        {
          "internalType": "address",
          "name": "",
          "type": "address"
        }
      ],
      "stateMutability": "view",
      "type": "function"
    },
    {
      "inputs": [],
      "name": "debtRateAgainstEthMarket",
      "outputs": [
        {
          "internalType": "uint256",
          "name": "",
          "type": "uint256"
        }
      ],
      "stateMutability": "view",
      "type": "function"
    },
    {
      "inputs": [],
      "name": "eip712Domain",
      "outputs": [
        {
          "internalType": "bytes1",
          "name": "fields",
          "type": "bytes1"
        },
        {
          "internalType": "string",
          "name": "name",
          "type": "string"
        },
        {
          "internalType": "string",
          "name": "version",
          "type": "string"
        },
        {
          "internalType": "uint256",
          "name": "chainId",
          "type": "uint256"
        },
        {
          "internalType": "address",
          "name": "verifyingContract",
          "type": "address"
        },
        {
          "internalType": "bytes32",
          "name": "salt",
          "type": "bytes32"
        },
        {
          "internalType": "uint256[]",
          "name": "extensions",
          "type": "uint256[]"
        }
      ],
      "stateMutability": "view",
      "type": "function"
    },
    {
      "inputs": [],
      "name": "exchangeRate",
      "outputs": [
        {
          "internalType": "uint256",
          "name": "",
          "type": "uint256"
        }
      ],
      "stateMutability": "view",
      "type": "function"
    },
    {
      "inputs": [],
      "name": "getDebtRate",
      "outputs": [
        {
          "internalType": "uint256",
          "name": "",
          "type": "uint256"
        }
      ],
      "stateMutability": "view",
      "type": "function"
    },
    {
      "inputs": [],
      "name": "getTotalDebt",
      "outputs": [
        {
          "internalType": "uint256",
          "name": "",
          "type": "uint256"
        }
      ],
      "stateMutability": "view",
      "type": "function"
    },
    {
      "inputs": [],
      "name": "isMainMarket",
      "outputs": [
        {
          "internalType": "bool",
          "name": "",
          "type": "bool"
        }
      ],
      "stateMutability": "view",
      "type": "function"
    },
    {
      "inputs": [],
      "name": "leverageExecutor",
      "outputs": [
        {
          "internalType": "contract ILeverageExecutor",
          "name": "",
          "type": "address"
        }
      ],
      "stateMutability": "view",
      "type": "function"
    },
    {
      "inputs": [],
      "name": "liquidationBonusAmount",
      "outputs": [
        {
          "internalType": "uint256",
          "name": "",
          "type": "uint256"
        }
      ],
      "stateMutability": "view",
      "type": "function"
    },
    {
      "inputs": [],
      "name": "liquidationCollateralizationRate",
      "outputs": [
        {
          "internalType": "uint256",
          "name": "",
          "type": "uint256"
        }
      ],
      "stateMutability": "view",
      "type": "function"
    },
    {
      "inputs": [],
      "name": "liquidationMultiplier",
      "outputs": [
        {
          "internalType": "uint256",
          "name": "",
          "type": "uint256"
        }
      ],
      "stateMutability": "view",
      "type": "function"
    },
    {
      "inputs": [],
      "name": "maxDebtRate",
      "outputs": [
        {
          "internalType": "uint256",
          "name": "",
          "type": "uint256"
        }
      ],
      "stateMutability": "view",
      "type": "function"
    },
    {
      "inputs": [],
      "name": "maxLiquidatorReward",
      "outputs": [
        {
          "internalType": "uint256",
          "name": "",
          "type": "uint256"
        }
      ],
      "stateMutability": "view",
      "type": "function"
    },
    {
      "inputs": [],
      "name": "maxMintFee",
      "outputs": [
        {
          "internalType": "uint256",
          "name": "",
          "type": "uint256"
        }
      ],
      "stateMutability": "view",
      "type": "function"
    },
    {
      "inputs": [],
      "name": "maxMintFeeStart",
      "outputs": [
        {
          "internalType": "uint256",
          "name": "",
          "type": "uint256"
        }
      ],
      "stateMutability": "view",
      "type": "function"
    },
    {
      "inputs": [],
      "name": "minDebtRate",
      "outputs": [
        {
          "internalType": "uint256",
          "name": "",
          "type": "uint256"
        }
      ],
      "stateMutability": "view",
      "type": "function"
    },
    {
      "inputs": [],
      "name": "minLiquidatorReward",
      "outputs": [
        {
          "internalType": "uint256",
          "name": "",
          "type": "uint256"
        }
      ],
      "stateMutability": "view",
      "type": "function"
    },
    {
      "inputs": [],
      "name": "minMintFee",
      "outputs": [
        {
          "internalType": "uint256",
          "name": "",
          "type": "uint256"
        }
      ],
      "stateMutability": "view",
      "type": "function"
    },
    {
      "inputs": [],
      "name": "minMintFeeStart",
      "outputs": [
        {
          "internalType": "uint256",
          "name": "",
          "type": "uint256"
        }
      ],
      "stateMutability": "view",
      "type": "function"
    },
    {
      "inputs": [
        {
          "internalType": "address",
          "name": "owner",
          "type": "address"
        }
      ],
      "name": "nonces",
      "outputs": [
        {
          "internalType": "uint256",
          "name": "",
          "type": "uint256"
        }
      ],
      "stateMutability": "view",
      "type": "function"
    },
    {
      "inputs": [],
      "name": "oracle",
      "outputs": [
        {
          "internalType": "contract IOracle",
          "name": "",
          "type": "address"
        }
      ],
      "stateMutability": "view",
      "type": "function"
    },
    {
      "inputs": [],
      "name": "oracleData",
      "outputs": [
        {
          "internalType": "bytes",
          "name": "",
          "type": "bytes"
        }
      ],
      "stateMutability": "view",
      "type": "function"
    },
    {
      "inputs": [],
      "name": "owner",
      "outputs": [
        {
          "internalType": "address",
          "name": "",
          "type": "address"
        }
      ],
      "stateMutability": "view",
      "type": "function"
    },
    {
      "inputs": [
        {
          "internalType": "enum Market.PauseType",
          "name": "pauseProp",
          "type": "uint8"
        }
      ],
      "name": "pauseOptions",
      "outputs": [
        {
          "internalType": "bool",
          "name": "pauseStatus",
          "type": "bool"
        }
      ],
      "stateMutability": "view",
      "type": "function"
    },
    {
      "inputs": [],
      "name": "pendingOwner",
      "outputs": [
        {
          "internalType": "address",
          "name": "",
          "type": "address"
        }
      ],
      "stateMutability": "view",
      "type": "function"
    },
    {
      "inputs": [],
      "name": "penrose",
      "outputs": [
        {
          "internalType": "contract IPenrose",
          "name": "",
          "type": "address"
        }
      ],
      "stateMutability": "view",
      "type": "function"
    },
    {
      "inputs": [
        {
          "internalType": "address",
          "name": "owner",
          "type": "address"
        },
        {
          "internalType": "address",
          "name": "spender",
          "type": "address"
        },
        {
          "internalType": "uint256",
          "name": "value",
          "type": "uint256"
        },
        {
          "internalType": "uint256",
          "name": "deadline",
          "type": "uint256"
        },
        {
          "internalType": "uint8",
          "name": "v",
          "type": "uint8"
        },
        {
          "internalType": "bytes32",
          "name": "r",
          "type": "bytes32"
        },
        {
          "internalType": "bytes32",
          "name": "s",
          "type": "bytes32"
        }
      ],
      "name": "permit",
      "outputs": [],
      "stateMutability": "nonpayable",
      "type": "function"
    },
    {
      "inputs": [
        {
          "internalType": "bytes",
          "name": "data",
          "type": "bytes"
        },
        {
          "internalType": "uint16",
          "name": "actionType",
          "type": "uint16"
        }
      ],
      "name": "permitAction",
      "outputs": [],
      "stateMutability": "nonpayable",
      "type": "function"
    },
    {
      "inputs": [
        {
          "internalType": "address",
          "name": "owner",
          "type": "address"
        },
        {
          "internalType": "address",
          "name": "spender",
          "type": "address"
        },
        {
          "internalType": "uint256",
          "name": "value",
          "type": "uint256"
        },
        {
          "internalType": "uint256",
          "name": "deadline",
          "type": "uint256"
        },
        {
          "internalType": "uint8",
          "name": "v",
          "type": "uint8"
        },
        {
          "internalType": "bytes32",
          "name": "r",
          "type": "bytes32"
        },
        {
          "internalType": "bytes32",
          "name": "s",
          "type": "bytes32"
        }
      ],
      "name": "permitBorrow",
      "outputs": [],
      "stateMutability": "nonpayable",
      "type": "function"
    },
    {
      "inputs": [],
      "name": "protocolFee",
      "outputs": [
        {
          "internalType": "uint256",
          "name": "",
          "type": "uint256"
        }
      ],
      "stateMutability": "view",
      "type": "function"
    },
    {
      "inputs": [],
      "name": "rateTimestamp",
      "outputs": [
        {
          "internalType": "uint256",
          "name": "",
          "type": "uint256"
        }
      ],
      "stateMutability": "view",
      "type": "function"
    },
    {
      "inputs": [],
      "name": "rateValidDuration",
      "outputs": [
        {
          "internalType": "uint256",
          "name": "",
          "type": "uint256"
        }
      ],
      "stateMutability": "view",
      "type": "function"
    },
    {
      "inputs": [
        {
          "internalType": "address",
          "name": "from",
          "type": "address"
        },
        {
          "internalType": "address",
          "name": "to",
          "type": "address"
        },
        {
          "internalType": "uint256",
          "name": "share",
          "type": "uint256"
        }
      ],
      "name": "removeCollateral",
      "outputs": [],
      "stateMutability": "nonpayable",
      "type": "function"
    },
    {
      "inputs": [
        {
          "internalType": "contract ILeverageExecutor",
          "name": "_executor",
          "type": "address"
        }
      ],
      "name": "setLeverageExecutor",
      "outputs": [],
      "stateMutability": "nonpayable",
      "type": "function"
    },
    {
      "inputs": [
        {
          "internalType": "contract IOracle",
          "name": "_oracle",
          "type": "address"
        },
        {
          "internalType": "bytes",
          "name": "_oracleData",
          "type": "bytes"
        },
        {
          "internalType": "address",
          "name": "_conservator",
          "type": "address"
        },
        {
          "internalType": "uint256",
          "name": "_callerFee",
          "type": "uint256"
        },
        {
          "internalType": "uint256",
          "name": "_protocolFee",
          "type": "uint256"
        },
        {
          "internalType": "uint256",
          "name": "_liquidationBonusAmount",
          "type": "uint256"
        },
        {
          "internalType": "uint256",
          "name": "_minLiquidatorReward",
          "type": "uint256"
        },
        {
          "internalType": "uint256",
          "name": "_maxLiquidatorReward",
          "type": "uint256"
        },
        {
          "internalType": "uint256",
          "name": "_totalBorrowCap",
          "type": "uint256"
        },
        {
          "internalType": "uint256",
          "name": "_collateralizationRate",
          "type": "uint256"
        },
        {
          "internalType": "uint256",
          "name": "_liquidationCollateralizationRate",
          "type": "uint256"
        }
      ],
      "name": "setMarketConfig",
      "outputs": [],
      "stateMutability": "nonpayable",
      "type": "function"
    },
    {
      "inputs": [],
      "name": "totalBorrow",
      "outputs": [
        {
          "internalType": "uint128",
          "name": "elastic",
          "type": "uint128"
        },
        {
          "internalType": "uint128",
          "name": "base",
          "type": "uint128"
        }
      ],
      "stateMutability": "view",
      "type": "function"
    },
    {
      "inputs": [],
      "name": "totalBorrowCap",
      "outputs": [
        {
          "internalType": "uint256",
          "name": "",
          "type": "uint256"
        }
      ],
      "stateMutability": "view",
      "type": "function"
    },
    {
      "inputs": [],
      "name": "totalCollateralShare",
      "outputs": [
        {
          "internalType": "uint256",
          "name": "",
          "type": "uint256"
        }
      ],
      "stateMutability": "view",
      "type": "function"
    },
    {
      "inputs": [],
      "name": "totalSupply",
      "outputs": [
        {
          "internalType": "uint256",
          "name": "",
          "type": "uint256"
        }
      ],
      "stateMutability": "view",
      "type": "function"
    },
    {
      "inputs": [
        {
          "internalType": "address",
          "name": "to",
          "type": "address"
        },
        {
          "internalType": "uint256",
          "name": "amount",
          "type": "uint256"
        }
      ],
      "name": "transfer",
      "outputs": [
        {
          "internalType": "bool",
          "name": "",
          "type": "bool"
        }
      ],
      "stateMutability": "nonpayable",
      "type": "function"
    },
    {
      "inputs": [
        {
          "internalType": "address",
          "name": "from",
          "type": "address"
        },
        {
          "internalType": "address",
          "name": "to",
          "type": "address"
        },
        {
          "internalType": "uint256",
          "name": "amount",
          "type": "uint256"
        }
      ],
      "name": "transferFrom",
      "outputs": [
        {
          "internalType": "bool",
          "name": "",
          "type": "bool"
        }
      ],
      "stateMutability": "nonpayable",
      "type": "function"
    },
    {
      "inputs": [
        {
          "internalType": "address",
          "name": "newOwner",
          "type": "address"
        },
        {
          "internalType": "bool",
          "name": "direct",
          "type": "bool"
        },
        {
          "internalType": "bool",
          "name": "renounce",
          "type": "bool"
        }
      ],
      "name": "transferOwnership",
      "outputs": [],
      "stateMutability": "nonpayable",
      "type": "function"
    },
    {
      "inputs": [],
      "name": "updateExchangeRate",
      "outputs": [
        {
          "internalType": "bool",
          "name": "updated",
          "type": "bool"
        },
        {
          "internalType": "uint256",
          "name": "rate",
          "type": "uint256"
        }
      ],
      "stateMutability": "nonpayable",
      "type": "function"
    },
    {
      "inputs": [
        {
          "internalType": "address",
          "name": "",
          "type": "address"
        }
      ],
      "name": "userBorrowPart",
      "outputs": [
        {
          "internalType": "uint256",
          "name": "",
          "type": "uint256"
        }
      ],
      "stateMutability": "view",
      "type": "function"
    },
    {
      "inputs": [
        {
          "internalType": "address",
          "name": "",
          "type": "address"
        }
      ],
      "name": "userCollateralShare",
      "outputs": [
        {
          "internalType": "uint256",
          "name": "",
          "type": "uint256"
        }
      ],
      "stateMutability": "view",
      "type": "function"
    },
    {
      "inputs": [],
      "name": "yieldBox",
      "outputs": [
        {
          "internalType": "contract YieldBox",
          "name": "",
          "type": "address"
        }
      ],
      "stateMutability": "view",
      "type": "function"
    }
  ],
  "bytecode": "0x6101608060405234620001ba576200001781620001bf565b600f8152602081016e546170696f63612042696742616e6760881b8152604051916200004383620001bf565b6001835260208301603160f81b81526200005d82620001db565b926101209384526200006f85620003ae565b92610140938452519020938460e05251902091610100938385524660a0526040519360208501917f8b73c3c69bb8fe3d512ecc4cf759cc79239f7b179b0ffacaa9a75d522b39400f8352604086015260608501524660808501523060a085015260a0845260c084019380851060018060401b03861117620001a45760408590525190206080523060c052600780546001600160a01b0319163390811790915560007f8be0079c531659141344cd1fd0a4f28419497f9722a3daafe3b4186f6b6457e08180a362013880601d5562015f90601e55612710601f55612ee060225560016026556000602e556103e8602f556136f093846200055c853960805184612bca015260a05184612c95015260c05184612b94015260e05184612c1901525183612c3f01525182611616015251816116400152f35b634e487b7160e01b600052604160045260246000fd5b600080fd5b604081019081106001600160401b03821117620001a457604052565b805160209190828110156200027a575090601f8251116200021957808251920151908083106200020a57501790565b82600019910360031b1b161790565b90604051809263305a27a960e01b82528060048301528251908160248401526000935b82851062000260575050604492506000838284010152601f80199101168101030190fd5b84810182015186860160440152938101938593506200023c565b6001600160401b038111620001a4576000928354926001938481811c91168015620003a3575b838210146200038f57601f811162000359575b5081601f8411600114620002f257509282939183928694620002e6575b50501b916000199060031b1c191617905560ff90565b015192503880620002d0565b919083601f1981168780528488209488905b888383106200033e575050501062000324575b505050811b01905560ff90565b015160001960f88460031b161c1916905538808062000317565b85870151885590960195948501948793509081019062000304565b85805284601f848820920160051c820191601f860160051c015b82811062000383575050620002b3565b87815501859062000373565b634e487b7160e01b86526022600452602486fd5b90607f1690620002a0565b8051602090818110156200043c5750601f825111620003db57808251920151908083106200020a57501790565b90604051809263305a27a960e01b82528060048301528251908160248401526000935b82851062000422575050604492506000838284010152601f80199101168101030190fd5b8481018201518686016044015293810193859350620003fe565b9192916001600160401b038111620001a45760019182548381811c9116801562000550575b828210146200053a57601f811162000501575b5080601f8311600114620004b4575081929394600092620004a8575b5050600019600383901b1c191690821b17905560ff90565b01519050388062000490565b90601f198316958460005282600020926000905b888210620004e957505083859697106200032457505050811b01905560ff90565b808785968294968601518155019501930190620004c8565b8360005283601f83600020920160051c820191601f850160051c015b8281106200052d57505062000474565b600081550184906200051d565b634e487b7160e01b600052602260045260246000fd5b90607f16906200046156fe608080604052600436101561001357600080fd5b600090813560e01c908162a02a201461205f5750806302ce728f14612036578063078dfbe714611f33578063095ea7b314611f0c5780630f8b29ea14611eee57806318160ddd14611ed25780631c9e379b14611e995780631d4d3a5d14611e705780631da8bf1014611d9a57806323b872dd14611c13578063331960ff14611bf557806334ce998a14611bcc57806334d441d014611bae5780633644e51514611b9357806337b6b7b914611b7557806338d52e0f14611b4c5780633ba0b9a914611b2e5780633f741adb14611b0957806340626d8b14611aeb57806344de240a14611acd578063473e3ce714611aaf57806348e4163e14611a765780634e71e0c8146119c8578063529898f2146119aa578063542afda31461198c578063579354621461196e5780636b19ad16146119505780636c3d8b8f1461192757806370a08231146118ee57806372778547146118b157806374645ff31461182057806374c9e48114611802578063790c8467146117e45780637dc0d1d0146117bb5780637ecebe00146117825780637fa0b84e146117505780638285ef401461171e57806384b0196e146116005780638c5d0ed3146115e25780638da5cb5b146115b9578063910dd7c814611382578063932bc4f81461129e57806399a97028146112765780639e15e89f1461123b578063a9059cbb14611158578063b0e21e8a1461113a578063b27c0e7414611109578063b7113f19146110e6578063bb4cfe3b146110c9578063bde39c5d146110ab578063c1ad5c8d14611088578063cce19f8114610f08578063ce8849ed14610edf578063d3fb2a38146109ba578063d505accf14610829578063d8dfeb4514610800578063da863f0e146107d7578063dd62ed3e14610788578063de4065771461075f578063e0996cb614610741578063e30c397814610718578063e9a49252146103f0578063ea64dd56146103d2578063eec0f42e146103b4578063ef2b234a1461033d578063f791395d1461031f5763f8ba4cff1461030157600080fd5b3461031c578060031936011261031c57610319613551565b80f35b80fd5b503461031c578060031936011261031c576020602a54604051908152f35b503461031c57602036600319011261031c576004356001600160a01b03818116918290036103b05761037481600754163314612261565b816023549182167ffb4fd7114609dd603b57adbc2082205bfbbcabf9265c4b437b472f5c592b8cd78580a36001600160a01b0319161760235580f35b8280fd5b503461031c578060031936011261031c576020600e54604051908152f35b503461031c578060031936011261031c576020602154604051908152f35b503461031c5760a036600319011261031c5761040a6120a7565b6104126120bd565b9061041b6120d3565b608435926001600160a01b0390811692909160643561043c30861415612f98565b60026000526020906009825261045a60ff6040600020541615612fe3565b861561069a575b61046b8785613020565b8615610619575b50848752601a8152604087206104898782546124cf565b905560175461049887826124cf565b601755600e549088841561059757508286600b541692604460405180958193627eeac760e11b835230600484015260248301525afa801561058c578990610558575b6104e492506124c2565b861161052557505b15610520575080600b54165b167f9ed03113de523cebfe5e49d5f8e12894b1c0d42ce805990461726444c90eab878480a480f35b6104f8565b6064906040519062461bcd60e51b82526004820152600c60248201526b084847440e8dede40daeac6d60a31b6044820152fd5b508282813d8311610585575b61056e8183612200565b81010312610580576104e491516104da565b600080fd5b503d610564565b6040513d8b823e3d90fd5b92505084600b5416803b156103b057604051630208d92960e11b81526001600160a01b038616600482015230602482015260448101929092526064820188905282908290608490829084905af1801561060e576105f6575b50506104ec565b6105ff906121a0565b61060a5785386105ef565b8580fd5b6040513d84823e3d90fd5b9080965084600b5416916064600e546040519485938492638eb22cdd60e01b8452600484015260248301528b60448301525afa90811561068f578791610662575b509438610472565b90508581813d8311610688575b6106798183612200565b8101031261058057513861065a565b503d61066f565b6040513d89823e3d90fd5b955083600b541681600e54606460405180948193638eb22cdd60e01b835260048301528b60248301528c60448301525afa90811561070d5788916106e0575b5095610461565b90508181813d8311610706575b6106f78183612200565b810103126105805751386106d9565b503d6106ed565b6040513d8a823e3d90fd5b503461031c578060031936011261031c576008546040516001600160a01b039091168152602090f35b503461031c578060031936011261031c576020601f54604051908152f35b503461031c578060031936011261031c57600b546040516001600160a01b039091168152602090f35b503461031c57604036600319011261031c576107a26120a7565b60406107ac6120bd565b9260018060a01b03809316815260046020522091166000526020526020604060002054604051908152f35b503461031c578060031936011261031c576023546040516001600160a01b039091168152602090f35b503461031c578060031936011261031c57600d546040516001600160a01b039091168152602090f35b503461031c57610838366120e2565b9190928095949542116109755760018060a01b039283881694856000526006602052604060002093845494600019861461095f578561090395604292600161090b990190556040519060208201927f9cc5629bbe7baa98a89f6f8c2c396b83ab62dbb6cbb12f17f1d6ba7e6f53e2668452600060408401528b60608401528a8d1660808401528d60a084015260c083015260e082015260e081526108db816121e4565b5190206108e6612b91565b906040519161190160f01b83526002830152602282015220612e6e565b919091612d59565b160361091a5761031992612f41565b60405162461bcd60e51b815260206004820152601e60248201527f45524332305065726d69743a20696e76616c6964207369676e617475726500006044820152606490fd5b634e487b7160e01b600052601160045260246000fd5b60405162461bcd60e51b815260206004820152601d60248201527f45524332305065726d69743a206578706972656420646561646c696e650000006044820152606490fd5b503461031c5761016036600319011261031c576001600160a01b03600435818116908190036103b0576024916001600160401b03833581811161060a573660238201121561060a57806004013591821161060a573685838301011161060a576044359383851680950361058057610a3684600754163314612261565b80610e9b575b508482610d41575b50505081610d01575b505060643580610cd4575b5060843580610ca7575b5060a43580610c7b575b5060c43580610c42575b5060e43580610c09575b506101043580610bc3575b506101243580610b3b575b50610144359081610aa5578280f35b6020548210610adc5750610abe620186a0821115612441565b80602155600860008051602061367b8339815191528380a338808280f35b60849060326040519162461bcd60e51b8352602060048401528201527f4d61726b65743a206c69717569646174696f6e436f6c6c61746572616c697a616044820152711d1a5bdb94985d19481d1bdbc81cdb585b1b60721b6064820152fd5b610b4a620186a0821115612441565b6021548111610b715780602055600760008051602061367b8339815191528480a338610a96565b60405162461bcd60e51b8152602060048201526025818401527f4d61726b65743a20636f6c6c61746572616c697a6174696f6e5261746520746f6044820152646f2062696760d81b6064820152608490fd5b806018547fae6e0ab3b95f0a53ff9660a390ccedcbbf1f2355dce974a9841af106fddcfaba8580a380601855600660008051602061367b8339815191528480a338610a8b565b610c17620186a08210612441565b610c24601d548211612441565b80601e55600560008051602061367b8339815191528480a338610a80565b610c50620186a08210612441565b610c5d601e548210612441565b80601d55600460008051602061367b8339815191528480a338610a76565b610c89620186a08210612441565b80601f55600360008051602061367b8339815191528480a338610a6c565b610cb6620186a0821115612441565b80601c55600260008051602061367b8339815191528480a338610a62565b610ce3620186a0821115612441565b80601b55600160008051602061367b8339815191528480a338610a58565b81600a549182167f5a62d22209e370e38eea92cfddcd228e656e6ec139243392a760a7769f5877fd8680a36001600160a01b03191617600a553880610a4d565b8291610d4e601254612166565b601f8111610e3c575b508790601f8411600114610dbc578893610daf575b5050508160011b916000199060031b1c1916176012555b7fa6f004921c944d4b8bf6e38462b00f36a58d62495d56b51f571ab78f732c98158480a1388084610a44565b0101359050843880610d6c565b60128952601f198416945060008051602061365b83398151915292509087908960205b878210610e1d5750508460019610610e01575b50505050811b01601255610d83565b60001960f88660031b161c199201013516905538808681610df2565b8285019093013585556001949094019389929182019190810190610ddf565b60128952909250905060008051602061365b833981519152601f840160051c810160208510610e94575b91849391601f8994920160051c01905b818110610e835750610d57565b898155859450889350600101610e76565b5080610e66565b601180546001600160a01b031916821790556040519081527f3df77beb5db05fcdd70a30fc8adf3f83f9501b68579455adbd100b818094039490602090a138610a3c565b503461031c578060031936011261031c57600a546040516001600160a01b039091168152602090f35b503461031c5780610f1836612131565b600384929394526009602052610f3560ff60408420541615612fe3565b610f3d612764565b5050610f47613551565b6001600160a01b038381169390610f6030861415612f98565b610f6a8387613020565b8281871695868652601a60205260408620610f868382546124c2565b9055610f94826017546124c2565b601755604051967f8ad4d3ff00da092c7ad9a573ea4f5f6a3dffc6712dc06d3f78f49b862297c4028780a4600b541690600e5492823b1561108457630208d92960e11b86523060048701526001600160a01b03919091166024860152604485019290925260648401919091528290608490829084905af1801561107957611064575b50601354611023916130fe565b1561102b5780f35b60405162461bcd60e51b815260206004820152601160248201527013585c9ad95d0e881a5b9cdbdb1d995b9d607a1b6044820152606490fd5b9161107261102392936121a0565b9190611016565b6040513d85823e3d90fd5b8480fd5b503461031c578060031936011261031c5760206110a3613208565b604051908152f35b503461031c578060031936011261031c576020602b54604051908152f35b503461031c578060031936011261031c5760208054604051908152f35b503461031c578060031936011261031c57602060ff602854166040519015158152f35b503461031c578060031936011261031c5760406027548151906001600160401b03908181168352831c166020820152f35b503461031c578060031936011261031c576020601c54604051908152f35b503461031c57604036600319011261031c576111726120a7565b60243580928115801590611229575b6111b9575b50506040519182526001600160a01b031690339060008051602061369b83398151915290602090a3602060405160018152f35b338152600360205260408120546111d283821015612cbb565b6001600160a01b03841690338290036111ed575b5050611186565b604093611204916111ff841515612d00565b6124c2565b33835260036020528383205581522061121e8382546124cf565b9055813880806111e6565b50336001600160a01b03841614611181565b503461031c57604036600319011261031c57606061126361125a6120a7565b6024359061260e565b9060405192835260208301526040820152f35b503461031c57604036600319011261031c5760206110a36112956120a7565b60243590612a5b565b503461031c578060031936011261031c5760405181602d546112bf81612166565b8084529060019081811690811561135a5750600114611301575b6112fd846112e981880382612200565b604051918291602083526020830190612221565b0390f35b602d8352602094507f4a2cc91ee622da3bc833a54c37ffcb6f3ec23b7793efc5eaf5e71b7b406c5c065b82841061134757505050816112fd936112e992820101936112d9565b805485850187015292850192810161132b565b6112fd96506112e99450602092508593915060ff191682840152151560051b820101936112d9565b503461031c57604036600319011261031c576004356001600160401b038082116103b057366023830112156103b05781600401359081116115a55782604051926113d66020601f19601f8601160185612200565b828452602084019236602482840101116103b0578060246020930185378401015260243561ffff811681036115a1576101009182848051810103126110845761141e90612757565b61142a60408501612d45565b9161143760608601612d45565b9460808101519460a08201519260c08301519160ff8316830361159d5760e084015193015193804211610975578515611576577f9cc5629bbe7baa98a89f6f8c2c396b83ab62dbb6cbb12f17f1d6ba7e6f53e266915b6001600160a01b0388168b52600660205260408b2080549190600019831461156257928261ffff61090398969361151f9a9896600160429701905560405194602086015216604084015260018060a01b038b16606084015260018060a01b038d1660808401528b60a084015260c083015260e082015260e08152611510816121e4565b602081519101206108e6612b91565b6001600160a01b0383811691160361091a571561154c57610319926001600160a01b039081169116612f41565b610319926001600160a01b039081169116612ef3565b634e487b7160e01b8d52601160045260248dfd5b7f5c9ba5f0d101616843d7918f48ea857d6da95e04ac6d719e105e50a355e7c5d69161148d565b8980fd5b8380fd5b634e487b7160e01b83526041600452602483fd5b503461031c578060031936011261031c576007546040516001600160a01b039091168152602090f35b503461031c578060031936011261031c576020601d54604051908152f35b503461031c578060031936011261031c5761163a7f00000000000000000000000000000000000000000000000000000000000000006122ac565b906116647f00000000000000000000000000000000000000000000000000000000000000006123a5565b9060405190602090818301938385106001600160401b0386111761170a57928285936116c088966116b298604052858552604051988998600f60f81b8a5260e0858b015260e08a0190612221565b9088820360408a0152612221565b924660608801523060808801528460a088015286840360c088015251928381520193925b8281106116f357505050500390f35b8351855286955093810193928101926001016116e4565b634e487b7160e01b82526041600452602482fd5b503461031c578060031936011261031c57601654604080516001600160801b038316815260809290921c602083015290f35b503461031c57604036600319011261031c5761177761176d6120a7565b6024359033612ef3565b602060405160018152f35b503461031c57602036600319011261031c576020906040906001600160a01b036117aa6120a7565b168152600683522054604051908152f35b503461031c578060031936011261031c576011546040516001600160a01b039091168152602090f35b503461031c578060031936011261031c576020603154604051908152f35b503461031c578060031936011261031c576020602f54604051908152f35b503461031c578060031936011261031c576040518160125461184181612166565b8084529060019081811690811561135a575060011461186a576112fd846112e981880382612200565b601283526020945060008051602061365b8339815191525b82841061189e57505050816112fd936112e992820101936112d9565b8054858501870152928501928101611882565b503461031c57602036600319011261031c5760043560098110156118ea5760408260ff9260209452600984522054166040519015158152f35b5080fd5b503461031c57602036600319011261031c576020906040906001600160a01b036119166120a7565b168152600383522054604051908152f35b503461031c578060031936011261031c57600c546040516001600160a01b039091168152602090f35b503461031c578060031936011261031c576020602954604051908152f35b503461031c578060031936011261031c576020601e54604051908152f35b503461031c578060031936011261031c576020602e54604051908152f35b503461031c578060031936011261031c576020602254604051908152f35b503461031c578060031936011261031c576008546001600160a01b039081811633819003611a3257806007549384167f8be0079c531659141344cd1fd0a4f28419497f9722a3daafe3b4186f6b6457e08680a36001600160a01b0319928316176007551660085580f35b606460405162461bcd60e51b815260206004820152602060248201527f4f776e61626c653a2063616c6c657220213d2070656e64696e67206f776e65726044820152fd5b503461031c57602036600319011261031c576020906040906001600160a01b03611a9e6120a7565b168152601983522054604051908152f35b503461031c578060031936011261031c576020601754604051908152f35b503461031c578060031936011261031c576020601054604051908152f35b503461031c578060031936011261031c576020601854604051908152f35b503461031c57606036600319011261031c5760206110a36044356024356004356124f5565b503461031c578060031936011261031c576020601354604051908152f35b503461031c578060031936011261031c57600f546040516001600160a01b039091168152602090f35b503461031c578060031936011261031c576020601454604051908152f35b503461031c578060031936011261031c5760206110a3612b91565b503461031c578060031936011261031c576020601b54604051908152f35b503461031c578060031936011261031c576016546040516001600160801b039091168152602090f35b503461031c578060031936011261031c576020601554604051908152f35b503461031c57611c2236612131565b919282611c5e575b506040519182526001600160a01b0390811692169060008051602061369b83398151915290602090a3602060405160018152f35b6001600160a01b03848116808352600360209081526040842054928690611c8782861015612cbb565b861693848403611c9c575b5050505050611c2a565b838652600483526040808720338852845286205460018101611d06575b5092600360209693611ce487946040976111ff60008051602061369b8339815191529c9a1515612d00565b9285525283832055815220611cfa8582546124cf565b90559138808581611c92565b90918110611d5a5792600360209693611ce48a60008051602061369b8339815191529a9895611d378260409a6124c2565b86895260048552898920338a528552898920559497509497995050939650611cb9565b60405162461bcd60e51b815260048101849052601860248201527745524332303a20616c6c6f77616e636520746f6f206c6f7760401b6044820152606490fd5b503461031c57611da9366120e2565b90839594954211610975576001600160a01b03878116808a52600660205260408a2080549196929592906000198314611e5c578b83611e4d979593604293600161090399970190556040519160208301937f5c9ba5f0d101616843d7918f48ea857d6da95e04ac6d719e105e50a355e7c5d6855260408401528b60608401528a8d1660808401528d60a084015260c083015260e082015260e081526108db816121e4565b160361091a5761031992612ef3565b634e487b7160e01b8c52601160045260248cfd5b503461031c578060031936011261031c57602c546040516001600160a01b039091168152602090f35b503461031c57602036600319011261031c576020906040906001600160a01b03611ec16120a7565b168152601a83522054604051908152f35b503461031c578060031936011261031c57602090604051908152f35b503461031c578060031936011261031c576020603054604051908152f35b503461031c57604036600319011261031c57611777611f296120a7565b6024359033612f41565b503461031c57606036600319011261031c57611f4d6120a7565b60243580151581036103b057611f616120d3565b9060018060a01b03928391611f7b83600754163314612261565b1561201f571690811590811591612017575b5015611fda57806007549283167f8be0079c531659141344cd1fd0a4f28419497f9722a3daafe3b4186f6b6457e08580a36001600160a01b03199182161760075560088054909116905580f35b60405162461bcd60e51b81526020600482015260156024820152744f776e61626c653a207a65726f206164647265737360581b6044820152606490fd5b905038611f8d565b9150501660018060a01b0319600854161760085580f35b503461031c578060031936011261031c576040612051612764565b825191151582526020820152f35b9050346118ea5760403660031901126118ea57604060209261207f6120a7565b6120876120bd565b6001600160a01b0391821683526005865283832091168252845220548152f35b600435906001600160a01b038216820361058057565b602435906001600160a01b038216820361058057565b60443590811515820361058057565b60e0906003190112610580576001600160a01b03906004358281168103610580579160243590811681036105805790604435906064359060843560ff81168103610580579060a4359060c43590565b6060906003190112610580576001600160a01b0390600435828116810361058057916024359081168103610580579060443590565b90600182811c92168015612196575b602083101461218057565b634e487b7160e01b600052602260045260246000fd5b91607f1691612175565b6001600160401b0381116121b357604052565b634e487b7160e01b600052604160045260246000fd5b604081019081106001600160401b038211176121b357604052565b61010081019081106001600160401b038211176121b357604052565b90601f801991011681019081106001600160401b038211176121b357604052565b919082519283825260005b84811061224d575050826000602080949584010152601f8019910116010190565b60208183018101518483018201520161222c565b1561226857565b606460405162461bcd60e51b815260206004820152602060248201527f4f776e61626c653a2063616c6c6572206973206e6f7420746865206f776e65726044820152fd5b60ff81146122ea5760ff811690601f82116122d857604051916122ce836121c9565b8252602082015290565b604051632cd44ac360e21b8152600490fd5b506040516000818154916122fd83612166565b8083526001938085169081156123845750600114612326575b5061232392500382612200565b90565b60008080527f290decd9548b62a8d60345a988386fc84ba6bc95484008f6362f93160ef3e56394602093509091905b81831061236c575050612323935082010138612316565b85548784018501529485019486945091830191612355565b905061232394506020925060ff191682840152151560051b82010138612316565b60ff81146123c75760ff811690601f82116122d857604051916122ce836121c9565b5060405160008160019182546123dc81612166565b8084529084811690811561238457506001146123ff575061232392500382612200565b9280915060005260209081600020936000915b818310612429575050612323935082010138612316565b85548784018501529485019486945091830191612412565b1561244857565b60405162461bcd60e51b815260206004820152601160248201527013585c9ad95d0e881b9bdd081d985b1a59607a1b6044820152606490fd5b8181029291811591840414171561095f57565b811561249e570490565b634e487b7160e01b600052601260045260246000fd5b604d811161095f57600a0a90565b9190820391821161095f57565b9190820180921161095f57565b8181039291600013801582851316918412161761095f57565b60165491929161253e9161252f916125259161251b906001600160801b03831690612481565b9060801c90612494565b9360215490612481565b612538836124b4565b90612494565b8083106126065761255261258e91846124c2565b9161258961258361257a60205461257461256b866124b4565b602254906124cf565b90612481565b612538846124b4565b916124b4565b6124dc565b6509184e72a0009081810291818305149015171561095f57670de0b6b3a76400009182810292818405149015171561095f57801561249e57600160ff1b9180831460001983141661095f57059060008212156125ff57811461095f57600003905b8082116125fa575090565b905090565b50906125ef565b505050600090565b6001600160a01b0390811660008181526019602090815260408220549295949391929091811561274a576126406133e3565b9061264c861515612958565b600b541683600e54898752601a82526064604088205491604051948593849263442c159960e01b8452600484015260248301528960448301525afa90811561273f578591612710575b50928594926126f0601a936126cb612704996126c66126be60409a620186a06024540490612481565b875490612481565b612494565b815190936001600160801b039186916126e691841690612481565b9201511690612494565b81811061270857035b9783525220546129a4565b9091565b5050826126f9565b90508381813d8311612738575b6127278183612200565b810103126110845751612704612695565b503d61271d565b6040513d87823e3d90fd5b5050509192505080918190565b5190811515820361058057565b60018060a01b03601154169060409081519263d6d7d52560e01b84528284602092836004830152600060125461279981612166565b908160248601526001908582821691826000146129345750506001146128f0575b5050600083809203925af180156128e55760009485916128aa575b5092841561284f5783156128155750508160135542601555817f9f9192b5edb17356c524e08d9e025c8e2f6307e6ea52fb7968faa3081f51c3c8600080a2565b60649250519062461bcd60e51b8252600482015260146024820152734d61726b65743a20696e76616c6964207261746560601b6044820152fd5b90919250612862601554601454906124cf565b421161287057505060135490565b60649250519062461bcd60e51b82526004820152601460248201527313585c9ad95d0e881c985d19481d1bdbc81bdb1960621b6044820152fd5b9490508385813d83116128de575b6128c28183612200565b8101031261031c5750806128d585612757565b940151386127d5565b503d6128b8565b83513d6000823e3d90fd5b915060126000528560002091866000935b838510612919575050505082016044016000836127ba565b80548c8601604401528a97508b965093019287908201612901565b8195506000949193506044925060ff191682840152151560051b82010192506127ba565b1561295f57565b60405162461bcd60e51b815260206004820152601e60248201527f4d61726b65743a2065786368616e676552617465206e6f742076616c696400006044820152606490fd5b6129af821515612958565b602060018060a01b03600b5416916064600e54604051948593849263442c159960e01b845260048401526024830152600060448301525afa908115612a4f57600091612a1c575b50906126c6612a089260245490612481565b620186a0612a1860205483612481565b0491565b906020823d8211612a47575b81612a3560209383612200565b8101031261031c5750516126c66129f6565b3d9150612a28565b6040513d6000823e3d90fd5b6001600160a01b03166000818152601a60205260408120549092612a7e916129a4565b918352601960205260408320548015612b8b578115612b8b57601654612ab29161251b906001600160801b03831690612481565b818110612b8b5782811015612b815781612acb916124c2565b90620186a09283830292808404851490151715612b6d57612af09291612538916124c2565b91601d5491601e5493612b0385856124dc565b80820291848212600160ff1b821416612b6d578183051490151715612b595705818482019485129112908015821691151617612b4557508082126125fa575090565b634e487b7160e01b81526011600452602490fd5b634e487b7160e01b83526011600452602483fd5b634e487b7160e01b85526011600452602485fd5b50505050601d5490565b50505090565b307f00000000000000000000000000000000000000000000000000000000000000006001600160a01b03161480612c92575b15612bec577f000000000000000000000000000000000000000000000000000000000000000090565b60405160208101907f8b73c3c69bb8fe3d512ecc4cf759cc79239f7b179b0ffacaa9a75d522b39400f82527f000000000000000000000000000000000000000000000000000000000000000060408201527f000000000000000000000000000000000000000000000000000000000000000060608201524660808201523060a082015260a0815260c081018181106001600160401b038211176121b35760405251902090565b507f00000000000000000000000000000000000000000000000000000000000000004614612bc3565b15612cc257565b60405162461bcd60e51b815260206004820152601660248201527545524332303a2062616c616e636520746f6f206c6f7760501b6044820152606490fd5b15612d0757565b60405162461bcd60e51b815260206004820152601660248201527545524332303a206e6f207a65726f206164647265737360501b6044820152606490fd5b51906001600160a01b038216820361058057565b6005811015612e585780612d6a5750565b60018103612db25760405162461bcd60e51b815260206004820152601860248201527745434453413a20696e76616c6964207369676e617475726560401b6044820152606490fd5b60028103612dff5760405162461bcd60e51b815260206004820152601f60248201527f45434453413a20696e76616c6964207369676e6174757265206c656e677468006044820152606490fd5b600314612e0857565b60405162461bcd60e51b815260206004820152602260248201527f45434453413a20696e76616c6964207369676e6174757265202773272076616c604482015261756560f01b6064820152608490fd5b634e487b7160e01b600052602160045260246000fd5b9291906fa2a8918ca85bafe22016d0b997e4df60600160ff1b038311612ee75791608094939160ff602094604051948552168484015260408301526060820152600093849182805260015afa15612eda5781516001600160a01b03811615612ed4579190565b50600190565b50604051903d90823e3d90fd5b50505050600090600390565b7fe50de2333c10a9502fcb1d8ae13a51bbf423153dfc63c2b8997665b32154afc360018060a01b038092169160009083825260056020526040822094169384825260205284604082205580a4565b909160207f8c5be1e5ebec7d5bd14f71427d1e84f3dd0314c0f7b2291e5b200ac8c7c3b9259160018060a01b03809416938460005260048352604060002095169485600052825280604060002055604051908152a3565b15612f9f57565b606460405162461bcd60e51b815260206004820152602060248201527f4d61726b65743a2063616e6e6f742065786563757465206f6e20697473656c666044820152fd5b15612fea57565b60405162461bcd60e51b815260206004820152600e60248201526d13585c9ad95d0e881c185d5cd95960921b6044820152606490fd5b6001600160a01b0316338103613034575050565b600081815260209060058252604091828220338352815284838320541061309e5783825260058152828220338352815282822054600101613077575b5050505050565b613092938252600581528282209033835252209182546124c2565b90553880808080613070565b60649083519062461bcd60e51b82526004820152601460248201527313585c9ad95d0e881b9bdd08185c1c1c9bdd995960621b6044820152fd5b604051906130e5826121c9565b6016546001600160801b038116835260801c6020830152565b919060018060a01b038060009416845260206019815260408520549081156131fe57601a81526040862054801561307057816131386130d8565b94600b5416916064600e54604051948593849263442c159960e01b8452600484015260248301528b60448301525afa9687156131f25780976131bc575b50506126e661319c6131946131b7969798620186a06024540490612481565b835490612481565b956131b260018060801b03948587511690612481565b612481565b111590565b9096508187813d83116131eb575b6131d48183612200565b8101031261031c57509451946126e661319c613175565b503d6131ca565b604051903d90823e3d90fd5b5060019450505050565b60ff60285416613364576016546001600160801b031690811561335d57600c54604051631848f2bf60e31b8152602093916001600160a01b03919085908290600490829086165afa8015612a4f578591600091613324575b50600460405180948193631a674cc560e11b8352165afa938415612a4f576000946132f5575b50506132a29192670de0b6b3a7640000928391602b5490612481565b0490818110156132ec57828102908104830361095f576132e0916132c591612494565b602954926132da602a54926131b284876124c2565b046124cf565b908082116125fa575090565b50505060295490565b81813d831161331d575b6133098183612200565b810103126115a1575192506132a238613286565b503d6132ff565b909181813d8311613356575b61333a8183612200565b810103126118ea575190828216820361031c5750849038613260565b503d613330565b602a549150565b600c5460405163e6abad4960e01b815290602090829060049082906001600160a01b03165afa908115612a4f5760009161339c575090565b906020823d82116133c2575b816133b560209383612200565b8101031261031c57505190565b3d91506133a8565b6001600160801b03918216908216019190821161095f57565b600060206040516133f3816121c9565b82815201526001600160401b03906134128260275460401c16426124c2565b91821561347557613470613467670de0b6b3a76400006134616134336130d8565b966131b260018060801b0396878a51169061345a6301e13380613454613208565b046134e9565b1690612481565b04613480565b828551166133ca565b168252565b5090506123236130d8565b6001600160801b0390818111613494571690565b60405162461bcd60e51b815260206004820152602760248201527f53616665436173743a2076616c756520646f65736e27742066697420696e20316044820152663238206269747360c81b6064820152608490fd5b6001600160401b03908181116134fd571690565b60405162461bcd60e51b815260206004820152602660248201527f53616665436173743a2076616c756520646f65736e27742066697420696e203660448201526534206269747360d01b6064820152608490fd5b60405161355d816121c9565b6027546001600160401b03908181168352818160401c166135856020850191808352426124c2565b92831561307057602094816135a06301e13380613454613208565b168152816135ad426134e9565b1683526135b86130d8565b670de0b6b3a76400006135dd60018060801b03976131b2898551168787511690612481565b04956135f46135eb88613480565b828451166133ca565b1680825296015160801b6001600160801b031990811690961760165551915192909416931692831760409190911b67ffffffffffffffff60401b16176027557f7484db546dcd57af0104c73c8a6968dfbaf5767f047cee0dadd0499ad7df81a0600080a356febb8a6a4669ba250d26cd7a459eca9d215f8307e33aebe50379bc5a3617ec3444253ac2c290fb3c37b20cfd60899ed86c0c8313905edc8ca53ec8d2b69d9919adddf252ad1be2c89b69c2b068fc378daa952ba7f163c4a11628f55a4df523b3efa2646970667358221220b90000ad877531957be4d6e6c608e81b4a341378b1d686e35f3166d82f96694b64736f6c63430008130033",
  "linkReferences": {},
  "deployedLinkReferences": {}
}