{
  "_format": "hh-sol-artifact-1",
  "contractName": "BBCommon",
  "sourceName": "contracts/markets/bigBang/BBCommon.sol",
  "abi": [
    {
      "inputs": [],
      "name": "NotEnough",
      "type": "error"
    },
    {
      "anonymous": false,
      "inputs": [
        {
          "indexed": true,
          "internalType": "address",
          "name": "owner",
          "type": "address"
        },
        {
          "indexed": true,
          "internalType": "address",
          "name": "spender",
          "type": "address"
        },
        {
          "indexed": false,
          "internalType": "uint256",
          "name": "value",
          "type": "uint256"
        }
      ],
      "name": "Approval",
      "type": "event"
    },
    {
      "anonymous": false,
      "inputs": [
        {
          "indexed": true,
          "internalType": "address",
          "name": "owner",
          "type": "address"
        },
        {
          "indexed": true,
          "internalType": "address",
          "name": "spender",
          "type": "address"
        },
        {
          "indexed": true,
          "internalType": "uint256",
          "name": "value",
          "type": "uint256"
        }
      ],
      "name": "ApprovalBorrow",
      "type": "event"
    },
    {
      "anonymous": false,
      "inputs": [],
      "name": "AssetOracleDataUpdated",
      "type": "event"
    },
    {
      "anonymous": false,
      "inputs": [
        {
          "indexed": true,
          "internalType": "address",
          "name": "oldVal",
          "type": "address"
        },
        {
          "indexed": true,
          "internalType": "address",
          "name": "newVal",
          "type": "address"
        }
      ],
      "name": "AssetOracleUpdated",
      "type": "event"
    },
    {
      "anonymous": false,
      "inputs": [
        {
          "indexed": true,
          "internalType": "address",
          "name": "old",
          "type": "address"
        },
        {
          "indexed": true,
          "internalType": "address",
          "name": "_new",
          "type": "address"
        }
      ],
      "name": "ConservatorUpdated",
      "type": "event"
    },
    {
      "anonymous": false,
      "inputs": [
        {
          "indexed": true,
          "internalType": "uint256",
          "name": "oldVal",
          "type": "uint256"
        },
        {
          "indexed": true,
          "internalType": "uint256",
          "name": "newVal",
          "type": "uint256"
        }
      ],
      "name": "DebtRateAgainstEthUpdated",
      "type": "event"
    },
    {
      "anonymous": false,
      "inputs": [
        {
          "indexed": false,
          "internalType": "uint256",
          "name": "_oldVal",
          "type": "uint256"
        },
        {
          "indexed": false,
          "internalType": "uint256",
          "name": "_newVal",
          "type": "uint256"
        }
      ],
      "name": "ExchangeRateDurationUpdated",
      "type": "event"
    },
    {
      "anonymous": false,
      "inputs": [
        {
          "indexed": true,
          "internalType": "address",
          "name": "oldVal",
          "type": "address"
        },
        {
          "indexed": true,
          "internalType": "address",
          "name": "newVal",
          "type": "address"
        }
      ],
      "name": "LeverageExecutorSet",
      "type": "event"
    },
    {
      "anonymous": false,
      "inputs": [
        {
          "indexed": true,
          "internalType": "address",
          "name": "liquidator",
          "type": "address"
        },
        {
          "indexed": true,
          "internalType": "address[]",
          "name": "users",
          "type": "address[]"
        },
        {
          "indexed": true,
          "internalType": "uint256",
          "name": "liquidatorReward",
          "type": "uint256"
        },
        {
          "indexed": false,
          "internalType": "uint256",
          "name": "protocolReward",
          "type": "uint256"
        },
        {
          "indexed": false,
          "internalType": "uint256",
          "name": "repayedAmount",
          "type": "uint256"
        },
        {
          "indexed": false,
          "internalType": "uint256",
          "name": "collateralShareRemoved",
          "type": "uint256"
        }
      ],
      "name": "Liquidated",
      "type": "event"
    },
    {
      "anonymous": false,
      "inputs": [
        {
          "indexed": true,
          "internalType": "uint256",
          "name": "oldVal",
          "type": "uint256"
        },
        {
          "indexed": true,
          "internalType": "uint256",
          "name": "newVal",
          "type": "uint256"
        }
      ],
      "name": "LiquidationMultiplierUpdated",
      "type": "event"
    },
    {
      "anonymous": false,
      "inputs": [
        {
          "indexed": true,
          "internalType": "uint256",
          "name": "accruedAmount",
          "type": "uint256"
        },
        {
          "indexed": true,
          "internalType": "uint64",
          "name": "rate",
          "type": "uint64"
        }
      ],
      "name": "LogAccrue",
      "type": "event"
    },
    {
      "anonymous": false,
      "inputs": [
        {
          "indexed": true,
          "internalType": "address",
          "name": "from",
          "type": "address"
        },
        {
          "indexed": true,
          "internalType": "address",
          "name": "to",
          "type": "address"
        },
        {
          "indexed": true,
          "internalType": "uint256",
          "name": "share",
          "type": "uint256"
        }
      ],
      "name": "LogAddCollateral",
      "type": "event"
    },
    {
      "anonymous": false,
      "inputs": [
        {
          "indexed": true,
          "internalType": "address",
          "name": "from",
          "type": "address"
        },
        {
          "indexed": true,
          "internalType": "address",
          "name": "to",
          "type": "address"
        },
        {
          "indexed": true,
          "internalType": "uint256",
          "name": "amount",
          "type": "uint256"
        },
        {
          "indexed": false,
          "internalType": "uint256",
          "name": "feeAmount",
          "type": "uint256"
        },
        {
          "indexed": false,
          "internalType": "uint256",
          "name": "part",
          "type": "uint256"
        }
      ],
      "name": "LogBorrow",
      "type": "event"
    },
    {
      "anonymous": false,
      "inputs": [
        {
          "indexed": true,
          "internalType": "uint256",
          "name": "_oldVal",
          "type": "uint256"
        },
        {
          "indexed": true,
          "internalType": "uint256",
          "name": "_newVal",
          "type": "uint256"
        }
      ],
      "name": "LogBorrowCapUpdated",
      "type": "event"
    },
    {
      "anonymous": false,
      "inputs": [
        {
          "indexed": true,
          "internalType": "uint256",
          "name": "rate",
          "type": "uint256"
        }
      ],
      "name": "LogExchangeRate",
      "type": "event"
    },
    {
      "anonymous": false,
      "inputs": [
        {
          "indexed": true,
          "internalType": "address",
          "name": "from",
          "type": "address"
        },
        {
          "indexed": true,
          "internalType": "address",
          "name": "to",
          "type": "address"
        },
        {
          "indexed": true,
          "internalType": "uint256",
          "name": "share",
          "type": "uint256"
        }
      ],
      "name": "LogRemoveCollateral",
      "type": "event"
    },
    {
      "anonymous": false,
      "inputs": [
        {
          "indexed": true,
          "internalType": "address",
          "name": "from",
          "type": "address"
        },
        {
          "indexed": true,
          "internalType": "address",
          "name": "to",
          "type": "address"
        },
        {
          "indexed": true,
          "internalType": "uint256",
          "name": "amount",
          "type": "uint256"
        },
        {
          "indexed": false,
          "internalType": "uint256",
          "name": "part",
          "type": "uint256"
        }
      ],
      "name": "LogRepay",
      "type": "event"
    },
    {
      "anonymous": false,
      "inputs": [
        {
          "indexed": true,
          "internalType": "uint256",
          "name": "oldVal",
          "type": "uint256"
        },
        {
          "indexed": true,
          "internalType": "uint256",
          "name": "newVal",
          "type": "uint256"
        }
      ],
      "name": "MaxDebtRateUpdated",
      "type": "event"
    },
    {
      "anonymous": false,
      "inputs": [
        {
          "indexed": true,
          "internalType": "uint256",
          "name": "oldVal",
          "type": "uint256"
        },
        {
          "indexed": true,
          "internalType": "uint256",
          "name": "newVal",
          "type": "uint256"
        }
      ],
      "name": "MinDebtRateUpdated",
      "type": "event"
    },
    {
      "anonymous": false,
      "inputs": [],
      "name": "OracleDataUpdated",
      "type": "event"
    },
    {
      "anonymous": false,
      "inputs": [],
      "name": "OracleUpdated",
      "type": "event"
    },
    {
      "anonymous": false,
      "inputs": [
        {
          "indexed": true,
          "internalType": "address",
          "name": "previousOwner",
          "type": "address"
        },
        {
          "indexed": true,
          "internalType": "address",
          "name": "newOwner",
          "type": "address"
        }
      ],
      "name": "OwnershipTransferred",
      "type": "event"
    },
    {
      "anonymous": false,
      "inputs": [
        {
          "indexed": true,
          "internalType": "enum Market.PauseType",
          "name": "_type",
          "type": "uint8"
        },
        {
          "indexed": true,
          "internalType": "bool",
          "name": "oldState",
          "type": "bool"
        },
        {
          "indexed": true,
          "internalType": "bool",
          "name": "newState",
          "type": "bool"
        }
      ],
      "name": "PausedUpdated",
      "type": "event"
    },
    {
      "anonymous": false,
      "inputs": [
        {
          "indexed": true,
          "internalType": "address",
          "name": "from",
          "type": "address"
        },
        {
          "indexed": true,
          "internalType": "address",
          "name": "to",
          "type": "address"
        },
        {
          "indexed": false,
          "internalType": "uint256",
          "name": "value",
          "type": "uint256"
        }
      ],
      "name": "Transfer",
      "type": "event"
    },
    {
      "anonymous": false,
      "inputs": [
        {
          "indexed": true,
          "internalType": "uint256",
          "name": "oldMin",
          "type": "uint256"
        },
        {
          "indexed": true,
          "internalType": "uint256",
          "name": "newMin",
          "type": "uint256"
        },
        {
          "indexed": true,
          "internalType": "uint256",
          "name": "oldMax",
          "type": "uint256"
        },
        {
          "indexed": false,
          "internalType": "uint256",
          "name": "newMax",
          "type": "uint256"
        }
      ],
      "name": "UpdateMinMaxMintFee",
      "type": "event"
    },
    {
      "anonymous": false,
      "inputs": [
        {
          "indexed": true,
          "internalType": "uint256",
          "name": "oldMin",
          "type": "uint256"
        },
        {
          "indexed": true,
          "internalType": "uint256",
          "name": "newMin",
          "type": "uint256"
        },
        {
          "indexed": true,
          "internalType": "uint256",
          "name": "oldMax",
          "type": "uint256"
        },
        {
          "indexed": false,
          "internalType": "uint256",
          "name": "newMax",
          "type": "uint256"
        }
      ],
      "name": "UpdateMinMaxMintRange",
      "type": "event"
    },
    {
      "inputs": [],
      "name": "DOMAIN_SEPARATOR",
      "outputs": [
        {
          "internalType": "bytes32",
          "name": "",
          "type": "bytes32"
        }
      ],
      "stateMutability": "view",
      "type": "function"
    },
    {
      "inputs": [],
      "name": "accrue",
      "outputs": [],
      "stateMutability": "nonpayable",
      "type": "function"
    },
    {
      "inputs": [],
      "name": "accrueInfo",
      "outputs": [
        {
          "internalType": "uint64",
          "name": "debtRate",
          "type": "uint64"
        },
        {
          "internalType": "uint64",
          "name": "lastAccrued",
          "type": "uint64"
        }
      ],
      "stateMutability": "view",
      "type": "function"
    },
    {
      "inputs": [
        {
          "internalType": "address",
          "name": "",
          "type": "address"
        },
        {
          "internalType": "address",
          "name": "",
          "type": "address"
        }
      ],
      "name": "allowance",
      "outputs": [
        {
          "internalType": "uint256",
          "name": "",
          "type": "uint256"
        }
      ],
      "stateMutability": "view",
      "type": "function"
    },
    {
      "inputs": [
        {
          "internalType": "address",
          "name": "",
          "type": "address"
        },
        {
          "internalType": "address",
          "name": "",
          "type": "address"
        }
      ],
      "name": "allowanceBorrow",
      "outputs": [
        {
          "internalType": "uint256",
          "name": "",
          "type": "uint256"
        }
      ],
      "stateMutability": "view",
      "type": "function"
    },
    {
      "inputs": [
        {
          "internalType": "address",
          "name": "spender",
          "type": "address"
        },
        {
          "internalType": "uint256",
          "name": "amount",
          "type": "uint256"
        }
      ],
      "name": "approve",
      "outputs": [
        {
          "internalType": "bool",
          "name": "",
          "type": "bool"
        }
      ],
      "stateMutability": "nonpayable",
      "type": "function"
    },
    {
      "inputs": [
        {
          "internalType": "address",
          "name": "spender",
          "type": "address"
        },
        {
          "internalType": "uint256",
          "name": "amount",
          "type": "uint256"
        }
      ],
      "name": "approveBorrow",
      "outputs": [
        {
          "internalType": "bool",
          "name": "",
          "type": "bool"
        }
      ],
      "stateMutability": "nonpayable",
      "type": "function"
    },
    {
      "inputs": [],
      "name": "asset",
      "outputs": [
        {
          "internalType": "contract IERC20",
          "name": "",
          "type": "address"
        }
      ],
      "stateMutability": "view",
      "type": "function"
    },
    {
      "inputs": [],
      "name": "assetId",
      "outputs": [
        {
          "internalType": "uint256",
          "name": "",
          "type": "uint256"
        }
      ],
      "stateMutability": "view",
      "type": "function"
    },
    {
      "inputs": [],
      "name": "assetOracle",
      "outputs": [
        {
          "internalType": "contract IOracle",
          "name": "",
          "type": "address"
        }
      ],
      "stateMutability": "view",
      "type": "function"
    },
    {
      "inputs": [],
      "name": "assetOracleData",
      "outputs": [
        {
          "internalType": "bytes",
          "name": "",
          "type": "bytes"
        }
      ],
      "stateMutability": "view",
      "type": "function"
    },
    {
      "inputs": [
        {
          "internalType": "address",
          "name": "",
          "type": "address"
        }
      ],
      "name": "balanceOf",
      "outputs": [
        {
          "internalType": "uint256",
          "name": "",
          "type": "uint256"
        }
      ],
      "stateMutability": "view",
      "type": "function"
    },
    {
      "inputs": [],
      "name": "callerFee",
      "outputs": [
        {
          "internalType": "uint256",
          "name": "",
          "type": "uint256"
        }
      ],
      "stateMutability": "view",
      "type": "function"
    },
    {
      "inputs": [],
      "name": "claimOwnership",
      "outputs": [],
      "stateMutability": "nonpayable",
      "type": "function"
    },
    {
      "inputs": [],
      "name": "collateral",
      "outputs": [
        {
          "internalType": "contract IERC20",
          "name": "",
          "type": "address"
        }
      ],
      "stateMutability": "view",
      "type": "function"
    },
    {
      "inputs": [],
      "name": "collateralId",
      "outputs": [
        {
          "internalType": "uint256",
          "name": "",
          "type": "uint256"
        }
      ],
      "stateMutability": "view",
      "type": "function"
    },
    {
      "inputs": [],
      "name": "collateralizationRate",
      "outputs": [
        {
          "internalType": "uint256",
          "name": "",
          "type": "uint256"
        }
      ],
      "stateMutability": "view",
      "type": "function"
    },
    {
      "inputs": [
        {
          "internalType": "uint256",
          "name": "borrowPart",
          "type": "uint256"
        },
        {
          "internalType": "uint256",
          "name": "collateralPartInAsset",
          "type": "uint256"
        },
        {
          "internalType": "uint256",
          "name": "ratesPrecision",
          "type": "uint256"
        }
      ],
      "name": "computeClosingFactor",
      "outputs": [
        {
          "internalType": "uint256",
          "name": "",
          "type": "uint256"
        }
      ],
      "stateMutability": "view",
      "type": "function"
    },
    {
      "inputs": [
        {
          "internalType": "address",
          "name": "user",
          "type": "address"
        },
        {
          "internalType": "uint256",
          "name": "_exchangeRate",
          "type": "uint256"
        }
      ],
      "name": "computeLiquidatorReward",
      "outputs": [
        {
          "internalType": "uint256",
          "name": "",
          "type": "uint256"
        }
      ],
      "stateMutability": "view",
      "type": "function"
    },
    {
      "inputs": [
        {
          "internalType": "address",
          "name": "user",
          "type": "address"
        },
        {
          "internalType": "uint256",
          "name": "_exchangeRate",
          "type": "uint256"
        }
      ],
      "name": "computeTVLInfo",
      "outputs": [
        {
          "internalType": "uint256",
          "name": "amountToSolvency",
          "type": "uint256"
        },
        {
          "internalType": "uint256",
          "name": "minTVL",
          "type": "uint256"
        },
        {
          "internalType": "uint256",
          "name": "maxTVL",
          "type": "uint256"
        }
      ],
      "stateMutability": "view",
      "type": "function"
    },
    {
      "inputs": [],
      "name": "conservator",
      "outputs": [
        {
          "internalType": "address",
          "name": "",
          "type": "address"
        }
      ],
      "stateMutability": "view",
      "type": "function"
    },
    {
      "inputs": [],
      "name": "debtRateAgainstEthMarket",
      "outputs": [
        {
          "internalType": "uint256",
          "name": "",
          "type": "uint256"
        }
      ],
      "stateMutability": "view",
      "type": "function"
    },
    {
      "inputs": [],
      "name": "debtStartPoint",
      "outputs": [
        {
          "internalType": "uint256",
          "name": "",
          "type": "uint256"
        }
      ],
      "stateMutability": "view",
      "type": "function"
    },
    {
      "inputs": [],
      "name": "exchangeRate",
      "outputs": [
        {
          "internalType": "uint256",
          "name": "",
          "type": "uint256"
        }
      ],
      "stateMutability": "view",
      "type": "function"
    },
    {
      "inputs": [],
      "name": "getDebtRate",
      "outputs": [
        {
          "internalType": "uint256",
          "name": "",
          "type": "uint256"
        }
      ],
      "stateMutability": "view",
      "type": "function"
    },
    {
      "inputs": [],
      "name": "getTotalDebt",
      "outputs": [
        {
          "internalType": "uint256",
          "name": "",
          "type": "uint256"
        }
      ],
      "stateMutability": "view",
      "type": "function"
    },
    {
      "inputs": [],
      "name": "isMainMarket",
      "outputs": [
        {
          "internalType": "bool",
          "name": "",
          "type": "bool"
        }
      ],
      "stateMutability": "view",
      "type": "function"
    },
    {
      "inputs": [],
      "name": "leverageExecutor",
      "outputs": [
        {
          "internalType": "contract ILeverageExecutor",
          "name": "",
          "type": "address"
        }
      ],
      "stateMutability": "view",
      "type": "function"
    },
    {
      "inputs": [],
      "name": "liquidationBonusAmount",
      "outputs": [
        {
          "internalType": "uint256",
          "name": "",
          "type": "uint256"
        }
      ],
      "stateMutability": "view",
      "type": "function"
    },
    {
      "inputs": [],
      "name": "liquidationCollateralizationRate",
      "outputs": [
        {
          "internalType": "uint256",
          "name": "",
          "type": "uint256"
        }
      ],
      "stateMutability": "view",
      "type": "function"
    },
    {
      "inputs": [],
      "name": "liquidationMultiplier",
      "outputs": [
        {
          "internalType": "uint256",
          "name": "",
          "type": "uint256"
        }
      ],
      "stateMutability": "view",
      "type": "function"
    },
    {
      "inputs": [],
      "name": "maxDebtRate",
      "outputs": [
        {
          "internalType": "uint256",
          "name": "",
          "type": "uint256"
        }
      ],
      "stateMutability": "view",
      "type": "function"
    },
    {
      "inputs": [],
      "name": "maxLiquidatorReward",
      "outputs": [
        {
          "internalType": "uint256",
          "name": "",
          "type": "uint256"
        }
      ],
      "stateMutability": "view",
      "type": "function"
    },
    {
      "inputs": [],
      "name": "maxMintFee",
      "outputs": [
        {
          "internalType": "uint256",
          "name": "",
          "type": "uint256"
        }
      ],
      "stateMutability": "view",
      "type": "function"
    },
    {
      "inputs": [],
      "name": "maxMintFeeStart",
      "outputs": [
        {
          "internalType": "uint256",
          "name": "",
          "type": "uint256"
        }
      ],
      "stateMutability": "view",
      "type": "function"
    },
    {
      "inputs": [],
      "name": "minDebtRate",
      "outputs": [
        {
          "internalType": "uint256",
          "name": "",
          "type": "uint256"
        }
      ],
      "stateMutability": "view",
      "type": "function"
    },
    {
      "inputs": [],
      "name": "minLiquidatorReward",
      "outputs": [
        {
          "internalType": "uint256",
          "name": "",
          "type": "uint256"
        }
      ],
      "stateMutability": "view",
      "type": "function"
    },
    {
      "inputs": [],
      "name": "minMintFee",
      "outputs": [
        {
          "internalType": "uint256",
          "name": "",
          "type": "uint256"
        }
      ],
      "stateMutability": "view",
      "type": "function"
    },
    {
      "inputs": [],
      "name": "minMintFeeStart",
      "outputs": [
        {
          "internalType": "uint256",
          "name": "",
          "type": "uint256"
        }
      ],
      "stateMutability": "view",
      "type": "function"
    },
    {
      "inputs": [
        {
          "internalType": "address",
          "name": "owner",
          "type": "address"
        }
      ],
      "name": "nonces",
      "outputs": [
        {
          "internalType": "uint256",
          "name": "",
          "type": "uint256"
        }
      ],
      "stateMutability": "view",
      "type": "function"
    },
    {
      "inputs": [
        {
          "internalType": "address",
          "name": "user",
          "type": "address"
        }
      ],
      "name": "openingFees",
      "outputs": [
        {
          "internalType": "uint256",
          "name": "fee",
          "type": "uint256"
        }
      ],
      "stateMutability": "view",
      "type": "function"
    },
    {
      "inputs": [],
      "name": "oracle",
      "outputs": [
        {
          "internalType": "contract IOracle",
          "name": "",
          "type": "address"
        }
      ],
      "stateMutability": "view",
      "type": "function"
    },
    {
      "inputs": [],
      "name": "oracleData",
      "outputs": [
        {
          "internalType": "bytes",
          "name": "",
          "type": "bytes"
        }
      ],
      "stateMutability": "view",
      "type": "function"
    },
    {
      "inputs": [],
      "name": "owner",
      "outputs": [
        {
          "internalType": "address",
          "name": "",
          "type": "address"
        }
      ],
      "stateMutability": "view",
      "type": "function"
    },
    {
      "inputs": [
        {
          "internalType": "enum Market.PauseType",
          "name": "pauseProp",
          "type": "uint8"
        }
      ],
      "name": "pauseOptions",
      "outputs": [
        {
          "internalType": "bool",
          "name": "pauseStatus",
          "type": "bool"
        }
      ],
      "stateMutability": "view",
      "type": "function"
    },
    {
      "inputs": [],
      "name": "pendingOwner",
      "outputs": [
        {
          "internalType": "address",
          "name": "",
          "type": "address"
        }
      ],
      "stateMutability": "view",
      "type": "function"
    },
    {
      "inputs": [],
      "name": "penrose",
      "outputs": [
        {
          "internalType": "contract IPenrose",
          "name": "",
          "type": "address"
        }
      ],
      "stateMutability": "view",
      "type": "function"
    },
    {
      "inputs": [
        {
          "internalType": "address",
          "name": "owner",
          "type": "address"
        },
        {
          "internalType": "address",
          "name": "spender",
          "type": "address"
        },
        {
          "internalType": "uint256",
          "name": "value",
          "type": "uint256"
        },
        {
          "internalType": "uint256",
          "name": "deadline",
          "type": "uint256"
        },
        {
          "internalType": "uint8",
          "name": "v",
          "type": "uint8"
        },
        {
          "internalType": "bytes32",
          "name": "r",
          "type": "bytes32"
        },
        {
          "internalType": "bytes32",
          "name": "s",
          "type": "bytes32"
        }
      ],
      "name": "permit",
      "outputs": [],
      "stateMutability": "nonpayable",
      "type": "function"
    },
    {
      "inputs": [
        {
          "internalType": "bytes",
          "name": "data",
          "type": "bytes"
        },
        {
          "internalType": "uint16",
          "name": "actionType",
          "type": "uint16"
        }
      ],
      "name": "permitAction",
      "outputs": [],
      "stateMutability": "nonpayable",
      "type": "function"
    },
    {
      "inputs": [
        {
          "internalType": "address",
          "name": "owner",
          "type": "address"
        },
        {
          "internalType": "address",
          "name": "spender",
          "type": "address"
        },
        {
          "internalType": "uint256",
          "name": "value",
          "type": "uint256"
        },
        {
          "internalType": "uint256",
          "name": "deadline",
          "type": "uint256"
        },
        {
          "internalType": "uint8",
          "name": "v",
          "type": "uint8"
        },
        {
          "internalType": "bytes32",
          "name": "r",
          "type": "bytes32"
        },
        {
          "internalType": "bytes32",
          "name": "s",
          "type": "bytes32"
        }
      ],
      "name": "permitBorrow",
      "outputs": [],
      "stateMutability": "nonpayable",
      "type": "function"
    },
    {
      "inputs": [],
      "name": "protocolFee",
      "outputs": [
        {
          "internalType": "uint256",
          "name": "",
          "type": "uint256"
        }
      ],
      "stateMutability": "view",
      "type": "function"
    },
    {
      "inputs": [],
      "name": "rateTimestamp",
      "outputs": [
        {
          "internalType": "uint256",
          "name": "",
          "type": "uint256"
        }
      ],
      "stateMutability": "view",
      "type": "function"
    },
    {
      "inputs": [],
      "name": "rateValidDuration",
      "outputs": [
        {
          "internalType": "uint256",
          "name": "",
          "type": "uint256"
        }
      ],
      "stateMutability": "view",
      "type": "function"
    },
    {
      "inputs": [
        {
          "internalType": "contract ILeverageExecutor",
          "name": "_executor",
          "type": "address"
        }
      ],
      "name": "setLeverageExecutor",
      "outputs": [],
      "stateMutability": "nonpayable",
      "type": "function"
    },
    {
      "inputs": [
        {
          "internalType": "contract IOracle",
          "name": "_oracle",
          "type": "address"
        },
        {
          "internalType": "bytes",
          "name": "_oracleData",
          "type": "bytes"
        },
        {
          "internalType": "address",
          "name": "_conservator",
          "type": "address"
        },
        {
          "internalType": "uint256",
          "name": "_callerFee",
          "type": "uint256"
        },
        {
          "internalType": "uint256",
          "name": "_protocolFee",
          "type": "uint256"
        },
        {
          "internalType": "uint256",
          "name": "_liquidationBonusAmount",
          "type": "uint256"
        },
        {
          "internalType": "uint256",
          "name": "_minLiquidatorReward",
          "type": "uint256"
        },
        {
          "internalType": "uint256",
          "name": "_maxLiquidatorReward",
          "type": "uint256"
        },
        {
          "internalType": "uint256",
          "name": "_totalBorrowCap",
          "type": "uint256"
        },
        {
          "internalType": "uint256",
          "name": "_collateralizationRate",
          "type": "uint256"
        },
        {
          "internalType": "uint256",
          "name": "_liquidationCollateralizationRate",
          "type": "uint256"
        }
      ],
      "name": "setMarketConfig",
      "outputs": [],
      "stateMutability": "nonpayable",
      "type": "function"
    },
    {
      "inputs": [],
      "name": "totalBorrow",
      "outputs": [
        {
          "internalType": "uint128",
          "name": "elastic",
          "type": "uint128"
        },
        {
          "internalType": "uint128",
          "name": "base",
          "type": "uint128"
        }
      ],
      "stateMutability": "view",
      "type": "function"
    },
    {
      "inputs": [],
      "name": "totalBorrowCap",
      "outputs": [
        {
          "internalType": "uint256",
          "name": "",
          "type": "uint256"
        }
      ],
      "stateMutability": "view",
      "type": "function"
    },
    {
      "inputs": [],
      "name": "totalCollateralShare",
      "outputs": [
        {
          "internalType": "uint256",
          "name": "",
          "type": "uint256"
        }
      ],
      "stateMutability": "view",
      "type": "function"
    },
    {
      "inputs": [],
      "name": "totalSupply",
      "outputs": [
        {
          "internalType": "uint256",
          "name": "",
          "type": "uint256"
        }
      ],
      "stateMutability": "view",
      "type": "function"
    },
    {
      "inputs": [
        {
          "internalType": "address",
          "name": "to",
          "type": "address"
        },
        {
          "internalType": "uint256",
          "name": "amount",
          "type": "uint256"
        }
      ],
      "name": "transfer",
      "outputs": [
        {
          "internalType": "bool",
          "name": "",
          "type": "bool"
        }
      ],
      "stateMutability": "nonpayable",
      "type": "function"
    },
    {
      "inputs": [
        {
          "internalType": "address",
          "name": "from",
          "type": "address"
        },
        {
          "internalType": "address",
          "name": "to",
          "type": "address"
        },
        {
          "internalType": "uint256",
          "name": "amount",
          "type": "uint256"
        }
      ],
      "name": "transferFrom",
      "outputs": [
        {
          "internalType": "bool",
          "name": "",
          "type": "bool"
        }
      ],
      "stateMutability": "nonpayable",
      "type": "function"
    },
    {
      "inputs": [
        {
          "internalType": "address",
          "name": "newOwner",
          "type": "address"
        },
        {
          "internalType": "bool",
          "name": "direct",
          "type": "bool"
        },
        {
          "internalType": "bool",
          "name": "renounce",
          "type": "bool"
        }
      ],
      "name": "transferOwnership",
      "outputs": [],
      "stateMutability": "nonpayable",
      "type": "function"
    },
    {
      "inputs": [],
      "name": "updateExchangeRate",
      "outputs": [
        {
          "internalType": "bool",
          "name": "updated",
          "type": "bool"
        },
        {
          "internalType": "uint256",
          "name": "rate",
          "type": "uint256"
        }
      ],
      "stateMutability": "nonpayable",
      "type": "function"
    },
    {
      "inputs": [
        {
          "internalType": "enum Market.PauseType",
          "name": "_type",
          "type": "uint8"
        },
        {
          "internalType": "bool",
          "name": "val",
          "type": "bool"
        }
      ],
      "name": "updatePause",
      "outputs": [],
      "stateMutability": "nonpayable",
      "type": "function"
    },
    {
      "inputs": [
        {
          "internalType": "address",
          "name": "",
          "type": "address"
        }
      ],
      "name": "userBorrowPart",
      "outputs": [
        {
          "internalType": "uint256",
          "name": "",
          "type": "uint256"
        }
      ],
      "stateMutability": "view",
      "type": "function"
    },
    {
      "inputs": [
        {
          "internalType": "address",
          "name": "",
          "type": "address"
        }
      ],
      "name": "userCollateralShare",
      "outputs": [
        {
          "internalType": "uint256",
          "name": "",
          "type": "uint256"
        }
      ],
      "stateMutability": "view",
      "type": "function"
    },
    {
      "inputs": [],
      "name": "yieldBox",
      "outputs": [
        {
          "internalType": "contract YieldBox",
          "name": "",
          "type": "address"
        }
      ],
      "stateMutability": "view",
      "type": "function"
    }
  ],
  "bytecode": "0x61014080604052346200018f57620000178162000194565b600f81526001602082016e546170696f63612042696742616e6760881b81526020604051620000468162000194565b8381520192603160f81b845251902091208160e052610100918183524660a0526040519160208301907f8b73c3c69bb8fe3d512ecc4cf759cc79239f7b179b0ffacaa9a75d522b39400f92838352604085015260608401524660808401523060a084015260a0835260c083019280841060018060401b03851117620001795760408490525190206080523060c052610120908152600580546001600160a01b0319163390811790915560007f8be0079c531659141344cd1fd0a4f28419497f9722a3daafe3b4186f6b6457e08180a362013880601b5562015f90601c55612710601d55612ee06020556000602d556103e8602e55612ce29283620001b18439608051836124fd015260a051836125c8015260c051836124c7015260e0518361254c01525182612572015251816125290152f35b634e487b7160e01b600052604160045260246000fd5b600080fd5b604081019081106001600160401b03821117620001795760405256fe608080604052600436101561001357600080fd5b60003560e01c908162a02a2014611d2a5750806302ce728f14611b13578063078dfbe714611a0f578063095ea7b3146119e95780630c4e84f0146118cf5780630f8b29ea146118b157806318160ddd146118955780631c9e379b1461185b5780631d4d3a5d146118325780631da8bf10146117765780631fb8f81a1461175857806323b872dd146115b4578063331960ff1461159657806334ce998a1461156d57806334d441d01461154f5780633644e5151461153457806337b6b7b91461151657806338d52e0f146114ed5780633ba0b9a9146114cf5780633f741adb146114ab57806340626d8b1461148d57806344de240a1461146f578063473e3ce71461145157806348e4163e146114175780634e71e0c814611369578063529898f21461134c578063542afda31461132e57806357935462146113105780636b19ad16146112f25780636c3d8b8f146112c957806370a082311461128f578063727785471461125957806374645ff3146111c657806374c9e481146111a8578063790c84671461118a5780637dc0d1d0146111615780637ecebe00146111275780637fa0b84e146110f65780638285ef40146110c457806387b279371461108a5780638c5d0ed31461106c5780638da5cb5b14611043578063910dd7c814610e2a578063932bc4f814610d4c57806399a9702814610d255780639e15e89f14610ceb578063a9059cbb14610c04578063b0e21e8a14610be6578063b27c0e7414610bb5578063b7113f1914610b92578063bb4cfe3b14610b74578063bde39c5d14610b56578063c1ad5c8d14610b33578063ce8849ed14610b0a578063d3fb2a381461069e578063d505accf146104fe578063d8dfeb45146104d5578063da863f0e146104ac578063dd62ed3e1461045b578063de40657714610432578063e0996cb614610414578063e30c3978146103eb578063ea64dd56146103cd578063eec0f42e146103af578063ef2b234a1461033d578063f791395d1461031f5763f8ba4cff146102ff57600080fd5b3461031a57600036600319011261031a57610318612b6c565b005b600080fd5b3461031a57600036600319011261031a576020602854604051908152f35b3461031a57602036600319011261031a576004356001600160a01b038181169182900361031a5761037381600554163314611f25565b816021549182167ffb4fd7114609dd603b57adbc2082205bfbbcabf9265c4b437b472f5c592b8cd7600080a36001600160a01b03191617602155005b3461031a57600036600319011261031a576020600c54604051908152f35b3461031a57600036600319011261031a576020601f54604051908152f35b3461031a57600036600319011261031a576006546040516001600160a01b039091168152602090f35b3461031a57600036600319011261031a576020601d54604051908152f35b3461031a57600036600319011261031a576009546040516001600160a01b039091168152602090f35b3461031a57604036600319011261031a57610474611d76565b61047c611d8c565b9060018060a01b038091166000526002602052604060002091166000526020526020604060002054604051908152f35b3461031a57600036600319011261031a576021546040516001600160a01b039091168152602090f35b3461031a57600036600319011261031a57600b546040516001600160a01b039091168152602090f35b3461031a5761050c36611db1565b9183919395949542116106595760018060a01b03928388169485600052600460205260406000209283546000198114610643576105ef956105e7956001830190556040519060208201927f9cc5629bbe7baa98a89f6f8c2c396b83ab62dbb6cbb12f17f1d6ba7e6f53e2668452600060408401528a6060840152898c1660808401528c60a084015260c083015260e082015260e081526105ab81611e84565b5190206105b66124c4565b9060405190602082019261190160f01b845260228301526042820152604281526105df81611ea0565b51902061278b565b91909161268c565b16036105fe576103189261285e565b60405162461bcd60e51b815260206004820152601e60248201527f45524332305065726d69743a20696e76616c6964207369676e617475726500006044820152606490fd5b634e487b7160e01b600052601160045260246000fd5b60405162461bcd60e51b815260206004820152601d60248201527f45524332305065726d69743a206578706972656420646561646c696e650000006044820152606490fd5b3461031a5761016036600319011261031a576001600160a01b036004358181169081900361031a576024916001600160401b03833581811161031a573660238201121561031a57806004013591821161031a573685838301011161031a576044359383851680950361031a5761071984600554163314611f25565b80610acb575b508482610969575b50505081610928575b505060643580610910575b50608435806108f8575b5060a435806108e1575b5060c435806108bd575b5060e43580610899575b506101043580610867575b5061012435806107f4575b5061014435908161078657005b601e5482106107955750601f55005b60849060326040519162461bcd60e51b8352602060048401528201527f4d61726b65743a206c69717569646174696f6e436f6c6c61746572616c697a616044820152711d1a5bdb94985d19481d1bdbc81cdb585b1b60721b6064820152fd5b610803620186a0821115611f70565b601f54811161081557601e5581610779565b60405162461bcd60e51b8152602060048201526025818401527f4d61726b65743a20636f6c6c61746572616c697a6174696f6e5261746520746f6044820152646f2062696760d81b6064820152608490fd5b806016547fae6e0ab3b95f0a53ff9660a390ccedcbbf1f2355dce974a9841af106fddcfaba600080a36016558161076e565b6108a7620186a08210611f70565b6108b4601b548211611f70565b601c5581610763565b6108cb620186a08210611f70565b6108d8601c548210611f70565b601b5581610759565b6108ef620186a08210611f70565b601d558161074f565b610907620186a0821115611f70565b601a5581610745565b61091f620186a0821115611f70565b6019558161073b565b816008549182167f5a62d22209e370e38eea92cfddcd228e656e6ec139243392a760a7769f5877fd600080a36001600160a01b031916176008558180610730565b8291610976601054611e2f565b601f8111610a6a575b50600090601f84116001146109e7576000936109da575b5050508160011b916000199060031b1c1916176010555b7fa6f004921c944d4b8bf6e38462b00f36a58d62495d56b51f571ab78f732c9815600080a1838084610727565b0101359050848680610996565b60106000908152601f1985169550600080516020612c8d83398151915293509091889160205b878210610a4b5750508460019610610a2f575b50505050811b016010556109ad565b60001960f88660031b161c199201013516905585808681610a20565b8285019093013585556001949094019389929182019190810190610a0d565b60106000529092509050600080516020612c8d833981519152601f840160051c810160208510610ac4575b91849391601f8994920160051c01905b818110610ab2575061097f565b60008155859450889350600101610aa5565b5080610a95565b600f80546001600160a01b0319169190911790557f0b2d6eb667d0522c3eb86e4288afecae6c11591ffd1345d4d12407e0598bca9b600080a18561071f565b3461031a57600036600319011261031a576008546040516001600160a01b039091168152602090f35b3461031a57600036600319011261031a576020610b4e6128b5565b604051908152f35b3461031a57600036600319011261031a576020602954604051908152f35b3461031a57600036600319011261031a576020601e54604051908152f35b3461031a57600036600319011261031a57602060ff602654166040519015158152f35b3461031a57600036600319011261031a5760406025548151906001600160401b03908181168352831c166020820152f35b3461031a57600036600319011261031a576020601a54604051908152f35b3461031a57604036600319011261031a57610c1d611d76565b602435908115801590610cd9575b610c61575b6040519182526001600160a01b0316903390600080516020612c6d83398151915290602090a3602060405160018152f35b336000526001602052604060002054610c7c838210156125ee565b6001600160a01b038216908333839003610c99575b505050610c30565b610cad91610ca8841515612633565b611ff1565b3360005260016020526040600020556000526040600020610ccf838254611ffe565b9055828083610c91565b50336001600160a01b03821614610c2b565b3461031a57604036600319011261031a576060610d12610d09611d76565b6024359061213d565b9060405192835260208301526040820152f35b3461031a57604036600319011261031a576020610b4e610d43611d76565b60243590612392565b3461031a57600036600319011261031a57604051600090602c54610d6f81611e2f565b808352600191808316908115610e025750600114610da8575b610da483610d9881870382611ebb565b60405191829182611edc565b0390f35b602c600090815260209450917f7416c943b4a09859521022fd2e90eac0dd9026dad28fa317782a135f28a860915b828410610def57505050810190910190610d9881610d88565b8054858501870152928501928101610dd6565b610da49550610d9893506020915091849260ff191682840152151560051b8201019350610d88565b3461031a57604036600319011261031a576001600160401b0360043581811161031a573660238201121561031a57806004013591821161102d5760405191610e7c601f8201601f191660200184611ebb565b8083526020830191366024838301011161031a57816000926024602093018537840101526024359161ffff8316830361031a5761010091828280518101031261031a57610ec89061228b565b610ed460408301612678565b91610ee160608201612678565b9460808201519460a08301519260c08101519160ff8316830361031a5760e082015191015191844211610659578515611007577f9cc5629bbe7baa98a89f6f8c2c396b83ab62dbb6cbb12f17f1d6ba7e6f53e2665b6001600160a01b0388166000908152600460205260409020805490969060001981146106435761ffff6105e797610fc49960018401905560405194602086015216604084015260018060a01b038a16606084015260018060a01b038c1660808401528a60a084015260c083015260e082015260e08152610fb581611e84565b602081519101206105b66124c4565b6001600160a01b038381169116036105fe5715610ff157610318926001600160a01b03908116911661285e565b610318926001600160a01b039081169116612810565b7f5c9ba5f0d101616843d7918f48ea857d6da95e04ac6d719e105e50a355e7c5d6610f36565b634e487b7160e01b600052604160045260246000fd5b3461031a57600036600319011261031a576005546040516001600160a01b039091168152602090f35b3461031a57600036600319011261031a576020601b54604051908152f35b3461031a57602036600319011261031a576001600160a01b036110ab611d76565b1660005260246020526020604060002054604051908152f35b3461031a57600036600319011261031a57601454604080516001600160801b038316815260809290921c602083015290f35b3461031a57604036600319011261031a5761111c611112611d76565b6024359033612810565b602060405160018152f35b3461031a57602036600319011261031a576001600160a01b03611148611d76565b1660005260046020526020604060002054604051908152f35b3461031a57600036600319011261031a57600f546040516001600160a01b039091168152602090f35b3461031a57600036600319011261031a576020603054604051908152f35b3461031a57600036600319011261031a576020602e54604051908152f35b3461031a57600036600319011261031a576040516000906010546111e981611e2f565b808352600191808316908115610e02575060011461121157610da483610d9881870382611ebb565b601060009081526020945091600080516020612c8d8339815191525b82841061124657505050810190910190610d9881610d88565b805485850187015292850192810161122d565b3461031a57602036600319011261031a57600435600981101561031a5760ff611283602092611e00565b54166040519015158152f35b3461031a57602036600319011261031a576001600160a01b036112b0611d76565b1660005260016020526020604060002054604051908152f35b3461031a57600036600319011261031a57600a546040516001600160a01b039091168152602090f35b3461031a57600036600319011261031a576020602754604051908152f35b3461031a57600036600319011261031a576020601c54604051908152f35b3461031a57600036600319011261031a576020602d54604051908152f35b3461031a57600036600319011261031a5760208054604051908152f35b3461031a57600036600319011261031a576006546001600160a01b0390818116338190036113d357806005549384167f8be0079c531659141344cd1fd0a4f28419497f9722a3daafe3b4186f6b6457e0600080a36001600160a01b03199283161760055516600655005b606460405162461bcd60e51b815260206004820152602060248201527f4f776e61626c653a2063616c6c657220213d2070656e64696e67206f776e65726044820152fd5b3461031a57602036600319011261031a576001600160a01b03611438611d76565b1660005260176020526020604060002054604051908152f35b3461031a57600036600319011261031a576020601554604051908152f35b3461031a57600036600319011261031a576020600e54604051908152f35b3461031a57600036600319011261031a576020601654604051908152f35b3461031a57606036600319011261031a576020610b4e604435602435600435612024565b3461031a57600036600319011261031a576020601154604051908152f35b3461031a57600036600319011261031a57600d546040516001600160a01b039091168152602090f35b3461031a57600036600319011261031a576020601254604051908152f35b3461031a57600036600319011261031a576020610b4e6124c4565b3461031a57600036600319011261031a576020601954604051908152f35b3461031a57600036600319011261031a576014546040516001600160801b039091168152602090f35b3461031a57600036600319011261031a576020601354604051908152f35b3461031a57606036600319011261031a576115cd611d76565b6115d5611d8c565b6044359081611612575b6040519182526001600160a01b03908116921690600080516020612c6d83398151915290602090a3602060405160018152f35b60018060a01b0380841680600052602060018152846040600020549361163a828610156125ee565b85169384840361164f575b50505050506115df565b8360005260028352604060002033600052835260406000205460001981036116c3575b50849261169a600080516020612c6d833981519152979593600193610ca86020991515612633565b926000525260406000205560005260406000206116b8858254611ffe565b905591858481611645565b90918110611718576020949261169a88600080516020612c6d8339815191529896946116f182600196611ff1565b86600052600285526040600020336000528552604060002055935093959750509294611672565b60405162461bcd60e51b815260048101849052601860248201527745524332303a20616c6c6f77616e636520746f6f206c6f7760401b6044820152606490fd5b3461031a57600036600319011261031a576020602a54604051908152f35b3461031a5761178436611db1565b9183919395949542116106595760018060a01b0392838816948560005260046020526040600020928354600019811461064357611823956105e7956001830190556040519060208201927f5c9ba5f0d101616843d7918f48ea857d6da95e04ac6d719e105e50a355e7c5d68452600060408401528a6060840152898c1660808401528c60a084015260c083015260e082015260e081526105ab81611e84565b16036105fe5761031892612810565b3461031a57600036600319011261031a57602b546040516001600160a01b039091168152602090f35b3461031a57602036600319011261031a576001600160a01b0361187c611d76565b1660005260186020526020604060002054604051908152f35b3461031a57600036600319011261031a57602060405160008152f35b3461031a57600036600319011261031a576020602f54604051908152f35b3461031a57604036600319011261031a57600435600981101561031a576118f4611da2565b6008549091906001600160a01b031633036119ad5760ff61191482611e00565b5416151591151591821461197357808260ff61193261196194611e00565b54161515827feeec81de25875ce1725479bb76f720a8defdb43dea041919ae37bb4aae9847c0600080a4611e00565b9060ff80198354169116179055600080f35b60405162461bcd60e51b81526020600482015260126024820152714d61726b65743a2073616d6520737461746560701b6044820152606490fd5b60405162461bcd60e51b815260206004820152601460248201527313585c9ad95d0e881d5b985d5d1a1bdc9a5e995960621b6044820152606490fd5b3461031a57604036600319011261031a5761111c611a05611d76565b602435903361285e565b3461031a57606036600319011261031a57611a28611d76565b611a30611da2565b60443590811515820361031a5760018060a01b03928391611a5683600554163314611f25565b15611afa571690811590811591611af2575b5015611ab557806005549283167f8be0079c531659141344cd1fd0a4f28419497f9722a3daafe3b4186f6b6457e0600080a36001600160a01b031991821617600555600680549091169055005b60405162461bcd60e51b81526020600482015260156024820152744f776e61626c653a207a65726f206164647265737360581b6044820152606490fd5b905083611a68565b9150501660018060a01b03196006541617600655600080f35b3461031a57600036600319011261031a5760018060a01b03600f54166040519063d6d7d52560e01b8252602091826004820152600091601054611b5581611e2f565b908160248501526001908181169081600014611d045750600114611cc4575b50509060409181600081809603925af18015611cb857600091600091611c79575b508115611c1c578015611be05760409281601155817f9f9192b5edb17356c524e08d9e025c8e2f6307e6ea52fb7968faa3081f51c3c8600080a25b4260135583519215158352820152f35b60405162461bcd60e51b81526004810184905260146024820152734d61726b65743a20696e76616c6964207261746560601b6044820152606490fd5b50611c2c60135460125490611ffe565b4211611c3d57601154604092611bd0565b60405162461bcd60e51b815260048101839052601460248201527313585c9ad95d0e881c985d19481d1bdbc81bdb1960621b6044820152606490fd5b9150506040813d604011611cb0575b81611c9560409383611ebb565b8101031261031a5781611ca78261228b565b91015183611b95565b3d9150611c88565b6040513d6000823e3d90fd5b935060106000528460002093856000955b838710611cef575050505091810160440191806040611b74565b80548688016044015295019486908201611cd5565b60ff191660448087019190915292151560051b8501909201945082915060409050611b74565b3461031a57604036600319011261031a57602090611d46611d76565b611d4e611d8c565b9060018060a01b03809116600052600384526040600020911660005282526040600020548152f35b600435906001600160a01b038216820361031a57565b602435906001600160a01b038216820361031a57565b60243590811515820361031a57565b60e090600319011261031a576001600160a01b0390600435828116810361031a5791602435908116810361031a5790604435906064359060843560ff8116810361031a579060a4359060c43590565b6009811015611e19576000526007602052604060002090565b634e487b7160e01b600052602160045260246000fd5b90600182811c92168015611e5f575b6020831014611e4957565b634e487b7160e01b600052602260045260246000fd5b91607f1691611e3e565b604081019081106001600160401b0382111761102d57604052565b61010081019081106001600160401b0382111761102d57604052565b608081019081106001600160401b0382111761102d57604052565b90601f801991011681019081106001600160401b0382111761102d57604052565b6020808252825181830181905290939260005b828110611f1157505060409293506000838284010152601f8019910116010190565b818101860151848201604001528501611eef565b15611f2c57565b606460405162461bcd60e51b815260206004820152602060248201527f4f776e61626c653a2063616c6c6572206973206e6f7420746865206f776e65726044820152fd5b15611f7757565b60405162461bcd60e51b815260206004820152601160248201527013585c9ad95d0e881b9bdd081d985b1a59607a1b6044820152606490fd5b8181029291811591840414171561064357565b8115611fcd570490565b634e487b7160e01b600052601260045260246000fd5b604d811161064357600a0a90565b9190820391821161064357565b9190820180921161064357565b8181039291600013801582851316918412161761064357565b60145491929161206d9161205e916120549161204a906001600160801b03831690611fb0565b9060801c90611fc3565b93601f5490611fb0565b61206783611fe3565b90611fc3565b808310612135576120816120bd9184611ff1565b916120b86120b26120a9601e546120a361209a86611fe3565b60205490611ffe565b90611fb0565b61206784611fe3565b91611fe3565b61200b565b6509184e72a0009081810291818305149015171561064357670de0b6b3a764000091828102928184051490151715610643578015611fcd57600160ff1b91808314600019831416610643570590600082121561212e57811461064357600003905b808211612129575090565b905090565b509061211e565b505050600090565b6001600160a01b0390811660008181526017602090815260408220549295949391929091811561227e5761216f612ad8565b9061217b861515612298565b6009541683600c54898752601882526064604088205491604051948593849263442c159960e01b8452600484015260248301528960448301525afa908115612273578591612240575b50928594926122206018936121fb612234996121f66121ed60409a620186a06022540490611fb0565b601e5490611fb0565b611fc3565b815190936001600160801b0391869161221691841690611fb0565b9201511690611fc3565b81811061223857035b9783525220546122e4565b9091565b505082612229565b90508381813d831161226c575b6122578183611ebb565b8101031261226857516122346121c4565b8480fd5b503d61224d565b6040513d87823e3d90fd5b5050509192505080918190565b5190811515820361031a57565b1561229f57565b60405162461bcd60e51b815260206004820152601e60248201527f4d61726b65743a2065786368616e676552617465206e6f742076616c696400006044820152606490fd5b6122ef821515612298565b602060018060a01b0360095416916064600c54604051948593849263442c159960e01b845260048401526024830152600060448301525afa908115611cb85760009161235c575b50906121f66123489260225490611fb0565b620186a0612358601e5483611fb0565b0491565b906020823d821161238a575b8161237560209383611ebb565b810103126123875750516121f6612336565b80fd5b3d9150612368565b6001600160a01b031660008181526018602052604081205490926123b5916122e4565b9183526017602052604083205480156124be5781156124be578181106124be57828110156124b4576014546123fe918391610ca89161204a906001600160801b03831690611fb0565b90620186a092838302928084048514901517156124a057612423929161206791611ff1565b91601b5491601c5493612436858561200b565b80820291848212600160ff1b8214166124a057818305149015171561248c57058184820194851291129080158216911516176124785750808212612129575090565b634e487b7160e01b81526011600452602490fd5b634e487b7160e01b83526011600452602483fd5b634e487b7160e01b85526011600452602485fd5b50505050601b5490565b50505090565b307f00000000000000000000000000000000000000000000000000000000000000006001600160a01b031614806125c5575b1561251f577f000000000000000000000000000000000000000000000000000000000000000090565b60405160208101907f000000000000000000000000000000000000000000000000000000000000000082527f000000000000000000000000000000000000000000000000000000000000000060408201527f000000000000000000000000000000000000000000000000000000000000000060608201524660808201523060a082015260a0815260c081018181106001600160401b0382111761102d5760405251902090565b507f000000000000000000000000000000000000000000000000000000000000000046146124f6565b156125f557565b60405162461bcd60e51b815260206004820152601660248201527545524332303a2062616c616e636520746f6f206c6f7760501b6044820152606490fd5b1561263a57565b60405162461bcd60e51b815260206004820152601660248201527545524332303a206e6f207a65726f206164647265737360501b6044820152606490fd5b51906001600160a01b038216820361031a57565b6005811015611e19578061269d5750565b600181036126e55760405162461bcd60e51b815260206004820152601860248201527745434453413a20696e76616c6964207369676e617475726560401b6044820152606490fd5b600281036127325760405162461bcd60e51b815260206004820152601f60248201527f45434453413a20696e76616c6964207369676e6174757265206c656e677468006044820152606490fd5b60031461273b57565b60405162461bcd60e51b815260206004820152602260248201527f45434453413a20696e76616c6964207369676e6174757265202773272076616c604482015261756560f01b6064820152608490fd5b9291906fa2a8918ca85bafe22016d0b997e4df60600160ff1b0383116128045791608094939160ff602094604051948552168484015260408301526060820152600093849182805260015afa156127f75781516001600160a01b038116156127f1579190565b50600190565b50604051903d90823e3d90fd5b50505050600090600390565b7fe50de2333c10a9502fcb1d8ae13a51bbf423153dfc63c2b8997665b32154afc360018060a01b038092169160009083825260036020526040822094169384825260205284604082205580a4565b909160207f8c5be1e5ebec7d5bd14f71427d1e84f3dd0314c0f7b2291e5b200ac8c7c3b9259160018060a01b03809416938460005260028352604060002095169485600052825280604060002055604051908152a3565b60ff60265416612a33576014546001600160801b0316908115612a2c57600a54604051631848f2bf60e31b8152602093916001600160a01b03919085908290600490829086165afa8015611cb85785916000916129ef575b50600460405180948193631a674cc560e11b8352165afa938415611cb8576000946129bc575b505061294f9192670de0b6b3a764000092839160295490611fb0565b0490818110156129b357612966602a548092611ff1565b8381029080820485149015171561064357612067612987926129a794611ff1565b602754926129a16028549261299c8487611ff1565b611fb0565b04611ffe565b90808211612129575090565b50505060275490565b81813d83116129e8575b6129d08183611ebb565b810103126129e45751925061294f38612933565b8380fd5b503d6129c6565b909181813d8311612a25575b612a058183611ebb565b81010312612a215751908282168203612387575084903861290d565b5080fd5b503d6129fb565b6028549150565b600a5460405163e6abad4960e01b815290602090829060049082906001600160a01b03165afa908115611cb857600091612a6b575090565b906020823d8211612a91575b81612a8460209383611ebb565b8101031261238757505190565b3d9150612a77565b60405190612aa682611e69565b6014546001600160801b038116835260801c6020830152565b6001600160801b03918216908216019190821161064357565b60006020604051612ae881611e69565b82815201526001600160401b0390612b078260255460401c1642611ff1565b918215612b5e57612b5961299c91670de0b6b3a7640000612b4e612b29612a99565b9660018060801b03958694858a5116906301e13380612b466128b5565b041690611fb0565b041682855116612abf565b168252565b509050612b69612a99565b90565b604051612b7881611e69565b6025546001600160401b03908181168352818160401c16612ba0602085019180835242611ff1565b928315612c6557602094816301e13380612bb86128b5565b041681528142168352612bc9612a99565b670de0b6b3a7640000612bee60018060801b039761299c898551168787511690611fb0565b0495612bff81881682845116612abf565b1680825296015160801b6001600160801b031990811690961760145551915192909416931692831760409190911b67ffffffffffffffff60401b16176025557f7484db546dcd57af0104c73c8a6968dfbaf5767f047cee0dadd0499ad7df81a0600080a3565b505050505056feddf252ad1be2c89b69c2b068fc378daa952ba7f163c4a11628f55a4df523b3ef1b6847dc741a1b0cd08d278845f9d819d87b734759afb55fe2de5cb82a9ae672a2646970667358221220635b381d00f580ec0ccf6cf934a14738f384604088c2a01e8390f1a6c81e19d164736f6c63430008120033",
  "linkReferences": {},
  "deployedLinkReferences": {}
}