{
  "_format": "hh-sol-artifact-1",
  "contractName": "BBLeverage",
  "sourceName": "contracts/markets/bigBang/BBLeverage.sol",
  "abi": [
    {
      "inputs": [],
      "name": "BorrowCapReached",
      "type": "error"
    },
    {
      "inputs": [],
      "name": "InvalidShortString",
      "type": "error"
    },
    {
      "inputs": [],
      "name": "LeverageExecutorNotValid",
      "type": "error"
    },
    {
      "inputs": [],
      "name": "NotEnough",
      "type": "error"
    },
    {
      "inputs": [],
      "name": "NothingToRepay",
      "type": "error"
    },
    {
      "inputs": [],
      "name": "OracleCallFailed",
      "type": "error"
    },
    {
      "inputs": [],
      "name": "RepayAmountNotValid",
      "type": "error"
    },
    {
      "inputs": [
        {
          "internalType": "string",
          "name": "str",
          "type": "string"
        }
      ],
      "name": "StringTooLong",
      "type": "error"
    },
    {
      "anonymous": false,
      "inputs": [
        {
          "indexed": true,
          "internalType": "address",
          "name": "owner",
          "type": "address"
        },
        {
          "indexed": true,
          "internalType": "address",
          "name": "spender",
          "type": "address"
        },
        {
          "indexed": false,
          "internalType": "uint256",
          "name": "value",
          "type": "uint256"
        }
      ],
      "name": "Approval",
      "type": "event"
    },
    {
      "anonymous": false,
      "inputs": [
        {
          "indexed": true,
          "internalType": "address",
          "name": "owner",
          "type": "address"
        },
        {
          "indexed": true,
          "internalType": "address",
          "name": "spender",
          "type": "address"
        },
        {
          "indexed": true,
          "internalType": "uint256",
          "name": "value",
          "type": "uint256"
        }
      ],
      "name": "ApprovalBorrow",
      "type": "event"
    },
    {
      "anonymous": false,
      "inputs": [],
      "name": "AssetOracleDataUpdated",
      "type": "event"
    },
    {
      "anonymous": false,
      "inputs": [
        {
          "indexed": true,
          "internalType": "address",
          "name": "oldVal",
          "type": "address"
        },
        {
          "indexed": true,
          "internalType": "address",
          "name": "newVal",
          "type": "address"
        }
      ],
      "name": "AssetOracleUpdated",
      "type": "event"
    },
    {
      "anonymous": false,
      "inputs": [
        {
          "indexed": true,
          "internalType": "address",
          "name": "old",
          "type": "address"
        },
        {
          "indexed": true,
          "internalType": "address",
          "name": "_new",
          "type": "address"
        }
      ],
      "name": "ConservatorUpdated",
      "type": "event"
    },
    {
      "anonymous": false,
      "inputs": [
        {
          "indexed": true,
          "internalType": "uint256",
          "name": "oldVal",
          "type": "uint256"
        },
        {
          "indexed": true,
          "internalType": "uint256",
          "name": "newVal",
          "type": "uint256"
        }
      ],
      "name": "DebtRateAgainstEthUpdated",
      "type": "event"
    },
    {
      "anonymous": false,
      "inputs": [],
      "name": "EIP712DomainChanged",
      "type": "event"
    },
    {
      "anonymous": false,
      "inputs": [
        {
          "indexed": false,
          "internalType": "uint256",
          "name": "_oldVal",
          "type": "uint256"
        },
        {
          "indexed": false,
          "internalType": "uint256",
          "name": "_newVal",
          "type": "uint256"
        }
      ],
      "name": "ExchangeRateDurationUpdated",
      "type": "event"
    },
    {
      "anonymous": false,
      "inputs": [
        {
          "indexed": true,
          "internalType": "address",
          "name": "oldVal",
          "type": "address"
        },
        {
          "indexed": true,
          "internalType": "address",
          "name": "newVal",
          "type": "address"
        }
      ],
      "name": "LeverageExecutorSet",
      "type": "event"
    },
    {
      "anonymous": false,
      "inputs": [
        {
          "indexed": true,
          "internalType": "address",
          "name": "liquidator",
          "type": "address"
        },
        {
          "indexed": true,
          "internalType": "address[]",
          "name": "users",
          "type": "address[]"
        },
        {
          "indexed": true,
          "internalType": "uint256",
          "name": "liquidatorReward",
          "type": "uint256"
        },
        {
          "indexed": false,
          "internalType": "uint256",
          "name": "protocolReward",
          "type": "uint256"
        },
        {
          "indexed": false,
          "internalType": "uint256",
          "name": "repayedAmount",
          "type": "uint256"
        },
        {
          "indexed": false,
          "internalType": "uint256",
          "name": "collateralShareRemoved",
          "type": "uint256"
        }
      ],
      "name": "Liquidated",
      "type": "event"
    },
    {
      "anonymous": false,
      "inputs": [
        {
          "indexed": true,
          "internalType": "uint256",
          "name": "oldVal",
          "type": "uint256"
        },
        {
          "indexed": true,
          "internalType": "uint256",
          "name": "newVal",
          "type": "uint256"
        }
      ],
      "name": "LiquidationMultiplierUpdated",
      "type": "event"
    },
    {
      "anonymous": false,
      "inputs": [
        {
          "indexed": true,
          "internalType": "uint256",
          "name": "accruedAmount",
          "type": "uint256"
        },
        {
          "indexed": true,
          "internalType": "uint64",
          "name": "rate",
          "type": "uint64"
        }
      ],
      "name": "LogAccrue",
      "type": "event"
    },
    {
      "anonymous": false,
      "inputs": [
        {
          "indexed": true,
          "internalType": "address",
          "name": "from",
          "type": "address"
        },
        {
          "indexed": true,
          "internalType": "address",
          "name": "to",
          "type": "address"
        },
        {
          "indexed": true,
          "internalType": "uint256",
          "name": "share",
          "type": "uint256"
        }
      ],
      "name": "LogAddCollateral",
      "type": "event"
    },
    {
      "anonymous": false,
      "inputs": [
        {
          "indexed": true,
          "internalType": "address",
          "name": "from",
          "type": "address"
        },
        {
          "indexed": true,
          "internalType": "address",
          "name": "to",
          "type": "address"
        },
        {
          "indexed": true,
          "internalType": "uint256",
          "name": "amount",
          "type": "uint256"
        },
        {
          "indexed": false,
          "internalType": "uint256",
          "name": "feeAmount",
          "type": "uint256"
        },
        {
          "indexed": false,
          "internalType": "uint256",
          "name": "part",
          "type": "uint256"
        }
      ],
      "name": "LogBorrow",
      "type": "event"
    },
    {
      "anonymous": false,
      "inputs": [
        {
          "indexed": true,
          "internalType": "uint256",
          "name": "_oldVal",
          "type": "uint256"
        },
        {
          "indexed": true,
          "internalType": "uint256",
          "name": "_newVal",
          "type": "uint256"
        }
      ],
      "name": "LogBorrowCapUpdated",
      "type": "event"
    },
    {
      "anonymous": false,
      "inputs": [
        {
          "indexed": true,
          "internalType": "uint256",
          "name": "rate",
          "type": "uint256"
        }
      ],
      "name": "LogExchangeRate",
      "type": "event"
    },
    {
      "anonymous": false,
      "inputs": [
        {
          "indexed": true,
          "internalType": "address",
          "name": "from",
          "type": "address"
        },
        {
          "indexed": true,
          "internalType": "address",
          "name": "to",
          "type": "address"
        },
        {
          "indexed": true,
          "internalType": "uint256",
          "name": "share",
          "type": "uint256"
        }
      ],
      "name": "LogRemoveCollateral",
      "type": "event"
    },
    {
      "anonymous": false,
      "inputs": [
        {
          "indexed": true,
          "internalType": "address",
          "name": "from",
          "type": "address"
        },
        {
          "indexed": true,
          "internalType": "address",
          "name": "to",
          "type": "address"
        },
        {
          "indexed": true,
          "internalType": "uint256",
          "name": "amount",
          "type": "uint256"
        },
        {
          "indexed": false,
          "internalType": "uint256",
          "name": "part",
          "type": "uint256"
        }
      ],
      "name": "LogRepay",
      "type": "event"
    },
    {
      "anonymous": false,
      "inputs": [
        {
          "indexed": true,
          "internalType": "uint256",
          "name": "oldVal",
          "type": "uint256"
        },
        {
          "indexed": true,
          "internalType": "uint256",
          "name": "newVal",
          "type": "uint256"
        }
      ],
      "name": "MaxDebtRateUpdated",
      "type": "event"
    },
    {
      "anonymous": false,
      "inputs": [
        {
          "indexed": true,
          "internalType": "uint256",
          "name": "oldVal",
          "type": "uint256"
        },
        {
          "indexed": true,
          "internalType": "uint256",
          "name": "newVal",
          "type": "uint256"
        }
      ],
      "name": "MinDebtRateUpdated",
      "type": "event"
    },
    {
      "anonymous": false,
      "inputs": [],
      "name": "OracleDataUpdated",
      "type": "event"
    },
    {
      "anonymous": false,
      "inputs": [
        {
          "indexed": false,
          "internalType": "address",
          "name": "newAddr",
          "type": "address"
        }
      ],
      "name": "OracleUpdated",
      "type": "event"
    },
    {
      "anonymous": false,
      "inputs": [
        {
          "indexed": true,
          "internalType": "address",
          "name": "previousOwner",
          "type": "address"
        },
        {
          "indexed": true,
          "internalType": "address",
          "name": "newOwner",
          "type": "address"
        }
      ],
      "name": "OwnershipTransferred",
      "type": "event"
    },
    {
      "anonymous": false,
      "inputs": [
        {
          "indexed": true,
          "internalType": "enum Market.PauseType",
          "name": "_type",
          "type": "uint8"
        },
        {
          "indexed": true,
          "internalType": "bool",
          "name": "oldState",
          "type": "bool"
        },
        {
          "indexed": true,
          "internalType": "bool",
          "name": "newState",
          "type": "bool"
        }
      ],
      "name": "PausedUpdated",
      "type": "event"
    },
    {
      "anonymous": false,
      "inputs": [
        {
          "indexed": true,
          "internalType": "address",
          "name": "from",
          "type": "address"
        },
        {
          "indexed": true,
          "internalType": "address",
          "name": "to",
          "type": "address"
        },
        {
          "indexed": false,
          "internalType": "uint256",
          "name": "value",
          "type": "uint256"
        }
      ],
      "name": "Transfer",
      "type": "event"
    },
    {
      "anonymous": false,
      "inputs": [
        {
          "indexed": true,
          "internalType": "uint256",
          "name": "oldMin",
          "type": "uint256"
        },
        {
          "indexed": true,
          "internalType": "uint256",
          "name": "newMin",
          "type": "uint256"
        },
        {
          "indexed": true,
          "internalType": "uint256",
          "name": "oldMax",
          "type": "uint256"
        },
        {
          "indexed": false,
          "internalType": "uint256",
          "name": "newMax",
          "type": "uint256"
        }
      ],
      "name": "UpdateMinMaxMintFee",
      "type": "event"
    },
    {
      "anonymous": false,
      "inputs": [
        {
          "indexed": true,
          "internalType": "uint256",
          "name": "oldMin",
          "type": "uint256"
        },
        {
          "indexed": true,
          "internalType": "uint256",
          "name": "newMin",
          "type": "uint256"
        },
        {
          "indexed": true,
          "internalType": "uint256",
          "name": "oldMax",
          "type": "uint256"
        },
        {
          "indexed": false,
          "internalType": "uint256",
          "name": "newMax",
          "type": "uint256"
        }
      ],
      "name": "UpdateMinMaxMintRange",
      "type": "event"
    },
    {
      "anonymous": false,
      "inputs": [
        {
          "indexed": true,
          "internalType": "uint256",
          "name": "valType",
          "type": "uint256"
        },
        {
          "indexed": true,
          "internalType": "uint256",
          "name": "_newVal",
          "type": "uint256"
        }
      ],
      "name": "ValueUpdated",
      "type": "event"
    },
    {
      "inputs": [],
      "name": "DOMAIN_SEPARATOR",
      "outputs": [
        {
          "internalType": "bytes32",
          "name": "",
          "type": "bytes32"
        }
      ],
      "stateMutability": "view",
      "type": "function"
    },
    {
      "inputs": [],
      "name": "accrue",
      "outputs": [],
      "stateMutability": "nonpayable",
      "type": "function"
    },
    {
      "inputs": [],
      "name": "accrueInfo",
      "outputs": [
        {
          "internalType": "uint64",
          "name": "debtRate",
          "type": "uint64"
        },
        {
          "internalType": "uint64",
          "name": "lastAccrued",
          "type": "uint64"
        }
      ],
      "stateMutability": "view",
      "type": "function"
    },
    {
      "inputs": [
        {
          "internalType": "address",
          "name": "",
          "type": "address"
        },
        {
          "internalType": "address",
          "name": "",
          "type": "address"
        }
      ],
      "name": "allowance",
      "outputs": [
        {
          "internalType": "uint256",
          "name": "",
          "type": "uint256"
        }
      ],
      "stateMutability": "view",
      "type": "function"
    },
    {
      "inputs": [
        {
          "internalType": "address",
          "name": "",
          "type": "address"
        },
        {
          "internalType": "address",
          "name": "",
          "type": "address"
        }
      ],
      "name": "allowanceBorrow",
      "outputs": [
        {
          "internalType": "uint256",
          "name": "",
          "type": "uint256"
        }
      ],
      "stateMutability": "view",
      "type": "function"
    },
    {
      "inputs": [
        {
          "internalType": "address",
          "name": "spender",
          "type": "address"
        },
        {
          "internalType": "uint256",
          "name": "amount",
          "type": "uint256"
        }
      ],
      "name": "approve",
      "outputs": [
        {
          "internalType": "bool",
          "name": "",
          "type": "bool"
        }
      ],
      "stateMutability": "nonpayable",
      "type": "function"
    },
    {
      "inputs": [
        {
          "internalType": "address",
          "name": "spender",
          "type": "address"
        },
        {
          "internalType": "uint256",
          "name": "amount",
          "type": "uint256"
        }
      ],
      "name": "approveBorrow",
      "outputs": [
        {
          "internalType": "bool",
          "name": "",
          "type": "bool"
        }
      ],
      "stateMutability": "nonpayable",
      "type": "function"
    },
    {
      "inputs": [],
      "name": "asset",
      "outputs": [
        {
          "internalType": "contract IERC20",
          "name": "",
          "type": "address"
        }
      ],
      "stateMutability": "view",
      "type": "function"
    },
    {
      "inputs": [],
      "name": "assetId",
      "outputs": [
        {
          "internalType": "uint256",
          "name": "",
          "type": "uint256"
        }
      ],
      "stateMutability": "view",
      "type": "function"
    },
    {
      "inputs": [],
      "name": "assetOracle",
      "outputs": [
        {
          "internalType": "contract IOracle",
          "name": "",
          "type": "address"
        }
      ],
      "stateMutability": "view",
      "type": "function"
    },
    {
      "inputs": [],
      "name": "assetOracleData",
      "outputs": [
        {
          "internalType": "bytes",
          "name": "",
          "type": "bytes"
        }
      ],
      "stateMutability": "view",
      "type": "function"
    },
    {
      "inputs": [
        {
          "internalType": "address",
          "name": "",
          "type": "address"
        }
      ],
      "name": "balanceOf",
      "outputs": [
        {
          "internalType": "uint256",
          "name": "",
          "type": "uint256"
        }
      ],
      "stateMutability": "view",
      "type": "function"
    },
    {
      "inputs": [
        {
          "internalType": "address",
          "name": "from",
          "type": "address"
        },
        {
          "internalType": "uint256",
          "name": "borrowAmount",
          "type": "uint256"
        },
        {
          "internalType": "uint256",
          "name": "supplyAmount",
          "type": "uint256"
        },
        {
          "internalType": "bytes",
          "name": "data",
          "type": "bytes"
        }
      ],
      "name": "buyCollateral",
      "outputs": [
        {
          "internalType": "uint256",
          "name": "amountOut",
          "type": "uint256"
        }
      ],
      "stateMutability": "nonpayable",
      "type": "function"
    },
    {
      "inputs": [],
      "name": "callerFee",
      "outputs": [
        {
          "internalType": "uint256",
          "name": "",
          "type": "uint256"
        }
      ],
      "stateMutability": "view",
      "type": "function"
    },
    {
      "inputs": [],
      "name": "claimOwnership",
      "outputs": [],
      "stateMutability": "nonpayable",
      "type": "function"
    },
    {
      "inputs": [],
      "name": "collateral",
      "outputs": [
        {
          "internalType": "contract IERC20",
          "name": "",
          "type": "address"
        }
      ],
      "stateMutability": "view",
      "type": "function"
    },
    {
      "inputs": [],
      "name": "collateralId",
      "outputs": [
        {
          "internalType": "uint256",
          "name": "",
          "type": "uint256"
        }
      ],
      "stateMutability": "view",
      "type": "function"
    },
    {
      "inputs": [],
      "name": "collateralizationRate",
      "outputs": [
        {
          "internalType": "uint256",
          "name": "",
          "type": "uint256"
        }
      ],
      "stateMutability": "view",
      "type": "function"
    },
    {
      "inputs": [
        {
          "internalType": "uint256",
          "name": "borrowPart",
          "type": "uint256"
        },
        {
          "internalType": "uint256",
          "name": "collateralPartInAsset",
          "type": "uint256"
        },
        {
          "internalType": "uint256",
          "name": "ratesPrecision",
          "type": "uint256"
        }
      ],
      "name": "computeClosingFactor",
      "outputs": [
        {
          "internalType": "uint256",
          "name": "",
          "type": "uint256"
        }
      ],
      "stateMutability": "view",
      "type": "function"
    },
    {
      "inputs": [
        {
          "internalType": "address",
          "name": "user",
          "type": "address"
        },
        {
          "internalType": "uint256",
          "name": "_exchangeRate",
          "type": "uint256"
        }
      ],
      "name": "computeLiquidatorReward",
      "outputs": [
        {
          "internalType": "uint256",
          "name": "",
          "type": "uint256"
        }
      ],
      "stateMutability": "view",
      "type": "function"
    },
    {
      "inputs": [
        {
          "internalType": "address",
          "name": "user",
          "type": "address"
        },
        {
          "internalType": "uint256",
          "name": "_exchangeRate",
          "type": "uint256"
        }
      ],
      "name": "computeTVLInfo",
      "outputs": [
        {
          "internalType": "uint256",
          "name": "amountToSolvency",
          "type": "uint256"
        },
        {
          "internalType": "uint256",
          "name": "minTVL",
          "type": "uint256"
        },
        {
          "internalType": "uint256",
          "name": "maxTVL",
          "type": "uint256"
        }
      ],
      "stateMutability": "view",
      "type": "function"
    },
    {
      "inputs": [],
      "name": "conservator",
      "outputs": [
        {
          "internalType": "address",
          "name": "",
          "type": "address"
        }
      ],
      "stateMutability": "view",
      "type": "function"
    },
    {
      "inputs": [],
      "name": "debtRateAgainstEthMarket",
      "outputs": [
        {
          "internalType": "uint256",
          "name": "",
          "type": "uint256"
        }
      ],
      "stateMutability": "view",
      "type": "function"
    },
    {
      "inputs": [],
      "name": "eip712Domain",
      "outputs": [
        {
          "internalType": "bytes1",
          "name": "fields",
          "type": "bytes1"
        },
        {
          "internalType": "string",
          "name": "name",
          "type": "string"
        },
        {
          "internalType": "string",
          "name": "version",
          "type": "string"
        },
        {
          "internalType": "uint256",
          "name": "chainId",
          "type": "uint256"
        },
        {
          "internalType": "address",
          "name": "verifyingContract",
          "type": "address"
        },
        {
          "internalType": "bytes32",
          "name": "salt",
          "type": "bytes32"
        },
        {
          "internalType": "uint256[]",
          "name": "extensions",
          "type": "uint256[]"
        }
      ],
      "stateMutability": "view",
      "type": "function"
    },
    {
      "inputs": [],
      "name": "exchangeRate",
      "outputs": [
        {
          "internalType": "uint256",
          "name": "",
          "type": "uint256"
        }
      ],
      "stateMutability": "view",
      "type": "function"
    },
    {
      "inputs": [],
      "name": "getDebtRate",
      "outputs": [
        {
          "internalType": "uint256",
          "name": "",
          "type": "uint256"
        }
      ],
      "stateMutability": "view",
      "type": "function"
    },
    {
      "inputs": [],
      "name": "getTotalDebt",
      "outputs": [
        {
          "internalType": "uint256",
          "name": "",
          "type": "uint256"
        }
      ],
      "stateMutability": "view",
      "type": "function"
    },
    {
      "inputs": [],
      "name": "isMainMarket",
      "outputs": [
        {
          "internalType": "bool",
          "name": "",
          "type": "bool"
        }
      ],
      "stateMutability": "view",
      "type": "function"
    },
    {
      "inputs": [],
      "name": "leverageExecutor",
      "outputs": [
        {
          "internalType": "contract ILeverageExecutor",
          "name": "",
          "type": "address"
        }
      ],
      "stateMutability": "view",
      "type": "function"
    },
    {
      "inputs": [],
      "name": "liquidationBonusAmount",
      "outputs": [
        {
          "internalType": "uint256",
          "name": "",
          "type": "uint256"
        }
      ],
      "stateMutability": "view",
      "type": "function"
    },
    {
      "inputs": [],
      "name": "liquidationCollateralizationRate",
      "outputs": [
        {
          "internalType": "uint256",
          "name": "",
          "type": "uint256"
        }
      ],
      "stateMutability": "view",
      "type": "function"
    },
    {
      "inputs": [],
      "name": "liquidationMultiplier",
      "outputs": [
        {
          "internalType": "uint256",
          "name": "",
          "type": "uint256"
        }
      ],
      "stateMutability": "view",
      "type": "function"
    },
    {
      "inputs": [],
      "name": "maxDebtRate",
      "outputs": [
        {
          "internalType": "uint256",
          "name": "",
          "type": "uint256"
        }
      ],
      "stateMutability": "view",
      "type": "function"
    },
    {
      "inputs": [],
      "name": "maxLiquidatorReward",
      "outputs": [
        {
          "internalType": "uint256",
          "name": "",
          "type": "uint256"
        }
      ],
      "stateMutability": "view",
      "type": "function"
    },
    {
      "inputs": [],
      "name": "maxMintFee",
      "outputs": [
        {
          "internalType": "uint256",
          "name": "",
          "type": "uint256"
        }
      ],
      "stateMutability": "view",
      "type": "function"
    },
    {
      "inputs": [],
      "name": "maxMintFeeStart",
      "outputs": [
        {
          "internalType": "uint256",
          "name": "",
          "type": "uint256"
        }
      ],
      "stateMutability": "view",
      "type": "function"
    },
    {
      "inputs": [],
      "name": "minDebtRate",
      "outputs": [
        {
          "internalType": "uint256",
          "name": "",
          "type": "uint256"
        }
      ],
      "stateMutability": "view",
      "type": "function"
    },
    {
      "inputs": [],
      "name": "minLiquidatorReward",
      "outputs": [
        {
          "internalType": "uint256",
          "name": "",
          "type": "uint256"
        }
      ],
      "stateMutability": "view",
      "type": "function"
    },
    {
      "inputs": [],
      "name": "minMintFee",
      "outputs": [
        {
          "internalType": "uint256",
          "name": "",
          "type": "uint256"
        }
      ],
      "stateMutability": "view",
      "type": "function"
    },
    {
      "inputs": [],
      "name": "minMintFeeStart",
      "outputs": [
        {
          "internalType": "uint256",
          "name": "",
          "type": "uint256"
        }
      ],
      "stateMutability": "view",
      "type": "function"
    },
    {
      "inputs": [
        {
          "internalType": "address",
          "name": "owner",
          "type": "address"
        }
      ],
      "name": "nonces",
      "outputs": [
        {
          "internalType": "uint256",
          "name": "",
          "type": "uint256"
        }
      ],
      "stateMutability": "view",
      "type": "function"
    },
    {
      "inputs": [],
      "name": "oracle",
      "outputs": [
        {
          "internalType": "contract IOracle",
          "name": "",
          "type": "address"
        }
      ],
      "stateMutability": "view",
      "type": "function"
    },
    {
      "inputs": [],
      "name": "oracleData",
      "outputs": [
        {
          "internalType": "bytes",
          "name": "",
          "type": "bytes"
        }
      ],
      "stateMutability": "view",
      "type": "function"
    },
    {
      "inputs": [],
      "name": "owner",
      "outputs": [
        {
          "internalType": "address",
          "name": "",
          "type": "address"
        }
      ],
      "stateMutability": "view",
      "type": "function"
    },
    {
      "inputs": [
        {
          "internalType": "enum Market.PauseType",
          "name": "pauseProp",
          "type": "uint8"
        }
      ],
      "name": "pauseOptions",
      "outputs": [
        {
          "internalType": "bool",
          "name": "pauseStatus",
          "type": "bool"
        }
      ],
      "stateMutability": "view",
      "type": "function"
    },
    {
      "inputs": [],
      "name": "pendingOwner",
      "outputs": [
        {
          "internalType": "address",
          "name": "",
          "type": "address"
        }
      ],
      "stateMutability": "view",
      "type": "function"
    },
    {
      "inputs": [],
      "name": "penrose",
      "outputs": [
        {
          "internalType": "contract IPenrose",
          "name": "",
          "type": "address"
        }
      ],
      "stateMutability": "view",
      "type": "function"
    },
    {
      "inputs": [
        {
          "internalType": "address",
          "name": "owner",
          "type": "address"
        },
        {
          "internalType": "address",
          "name": "spender",
          "type": "address"
        },
        {
          "internalType": "uint256",
          "name": "value",
          "type": "uint256"
        },
        {
          "internalType": "uint256",
          "name": "deadline",
          "type": "uint256"
        },
        {
          "internalType": "uint8",
          "name": "v",
          "type": "uint8"
        },
        {
          "internalType": "bytes32",
          "name": "r",
          "type": "bytes32"
        },
        {
          "internalType": "bytes32",
          "name": "s",
          "type": "bytes32"
        }
      ],
      "name": "permit",
      "outputs": [],
      "stateMutability": "nonpayable",
      "type": "function"
    },
    {
      "inputs": [
        {
          "internalType": "bytes",
          "name": "data",
          "type": "bytes"
        },
        {
          "internalType": "uint16",
          "name": "actionType",
          "type": "uint16"
        }
      ],
      "name": "permitAction",
      "outputs": [],
      "stateMutability": "nonpayable",
      "type": "function"
    },
    {
      "inputs": [
        {
          "internalType": "address",
          "name": "owner",
          "type": "address"
        },
        {
          "internalType": "address",
          "name": "spender",
          "type": "address"
        },
        {
          "internalType": "uint256",
          "name": "value",
          "type": "uint256"
        },
        {
          "internalType": "uint256",
          "name": "deadline",
          "type": "uint256"
        },
        {
          "internalType": "uint8",
          "name": "v",
          "type": "uint8"
        },
        {
          "internalType": "bytes32",
          "name": "r",
          "type": "bytes32"
        },
        {
          "internalType": "bytes32",
          "name": "s",
          "type": "bytes32"
        }
      ],
      "name": "permitBorrow",
      "outputs": [],
      "stateMutability": "nonpayable",
      "type": "function"
    },
    {
      "inputs": [],
      "name": "protocolFee",
      "outputs": [
        {
          "internalType": "uint256",
          "name": "",
          "type": "uint256"
        }
      ],
      "stateMutability": "view",
      "type": "function"
    },
    {
      "inputs": [],
      "name": "rateTimestamp",
      "outputs": [
        {
          "internalType": "uint256",
          "name": "",
          "type": "uint256"
        }
      ],
      "stateMutability": "view",
      "type": "function"
    },
    {
      "inputs": [],
      "name": "rateValidDuration",
      "outputs": [
        {
          "internalType": "uint256",
          "name": "",
          "type": "uint256"
        }
      ],
      "stateMutability": "view",
      "type": "function"
    },
    {
      "inputs": [
        {
          "internalType": "address",
          "name": "from",
          "type": "address"
        },
        {
          "internalType": "uint256",
          "name": "share",
          "type": "uint256"
        },
        {
          "internalType": "bytes",
          "name": "data",
          "type": "bytes"
        }
      ],
      "name": "sellCollateral",
      "outputs": [
        {
          "internalType": "uint256",
          "name": "amountOut",
          "type": "uint256"
        }
      ],
      "stateMutability": "nonpayable",
      "type": "function"
    },
    {
      "inputs": [
        {
          "internalType": "contract ILeverageExecutor",
          "name": "_executor",
          "type": "address"
        }
      ],
      "name": "setLeverageExecutor",
      "outputs": [],
      "stateMutability": "nonpayable",
      "type": "function"
    },
    {
      "inputs": [
        {
          "internalType": "contract IOracle",
          "name": "_oracle",
          "type": "address"
        },
        {
          "internalType": "bytes",
          "name": "_oracleData",
          "type": "bytes"
        },
        {
          "internalType": "address",
          "name": "_conservator",
          "type": "address"
        },
        {
          "internalType": "uint256",
          "name": "_callerFee",
          "type": "uint256"
        },
        {
          "internalType": "uint256",
          "name": "_protocolFee",
          "type": "uint256"
        },
        {
          "internalType": "uint256",
          "name": "_liquidationBonusAmount",
          "type": "uint256"
        },
        {
          "internalType": "uint256",
          "name": "_minLiquidatorReward",
          "type": "uint256"
        },
        {
          "internalType": "uint256",
          "name": "_maxLiquidatorReward",
          "type": "uint256"
        },
        {
          "internalType": "uint256",
          "name": "_totalBorrowCap",
          "type": "uint256"
        },
        {
          "internalType": "uint256",
          "name": "_collateralizationRate",
          "type": "uint256"
        },
        {
          "internalType": "uint256",
          "name": "_liquidationCollateralizationRate",
          "type": "uint256"
        }
      ],
      "name": "setMarketConfig",
      "outputs": [],
      "stateMutability": "nonpayable",
      "type": "function"
    },
    {
      "inputs": [],
      "name": "totalBorrow",
      "outputs": [
        {
          "internalType": "uint128",
          "name": "elastic",
          "type": "uint128"
        },
        {
          "internalType": "uint128",
          "name": "base",
          "type": "uint128"
        }
      ],
      "stateMutability": "view",
      "type": "function"
    },
    {
      "inputs": [],
      "name": "totalBorrowCap",
      "outputs": [
        {
          "internalType": "uint256",
          "name": "",
          "type": "uint256"
        }
      ],
      "stateMutability": "view",
      "type": "function"
    },
    {
      "inputs": [],
      "name": "totalCollateralShare",
      "outputs": [
        {
          "internalType": "uint256",
          "name": "",
          "type": "uint256"
        }
      ],
      "stateMutability": "view",
      "type": "function"
    },
    {
      "inputs": [],
      "name": "totalSupply",
      "outputs": [
        {
          "internalType": "uint256",
          "name": "",
          "type": "uint256"
        }
      ],
      "stateMutability": "view",
      "type": "function"
    },
    {
      "inputs": [
        {
          "internalType": "address",
          "name": "to",
          "type": "address"
        },
        {
          "internalType": "uint256",
          "name": "amount",
          "type": "uint256"
        }
      ],
      "name": "transfer",
      "outputs": [
        {
          "internalType": "bool",
          "name": "",
          "type": "bool"
        }
      ],
      "stateMutability": "nonpayable",
      "type": "function"
    },
    {
      "inputs": [
        {
          "internalType": "address",
          "name": "from",
          "type": "address"
        },
        {
          "internalType": "address",
          "name": "to",
          "type": "address"
        },
        {
          "internalType": "uint256",
          "name": "amount",
          "type": "uint256"
        }
      ],
      "name": "transferFrom",
      "outputs": [
        {
          "internalType": "bool",
          "name": "",
          "type": "bool"
        }
      ],
      "stateMutability": "nonpayable",
      "type": "function"
    },
    {
      "inputs": [
        {
          "internalType": "address",
          "name": "newOwner",
          "type": "address"
        },
        {
          "internalType": "bool",
          "name": "direct",
          "type": "bool"
        },
        {
          "internalType": "bool",
          "name": "renounce",
          "type": "bool"
        }
      ],
      "name": "transferOwnership",
      "outputs": [],
      "stateMutability": "nonpayable",
      "type": "function"
    },
    {
      "inputs": [],
      "name": "updateExchangeRate",
      "outputs": [
        {
          "internalType": "bool",
          "name": "updated",
          "type": "bool"
        },
        {
          "internalType": "uint256",
          "name": "rate",
          "type": "uint256"
        }
      ],
      "stateMutability": "nonpayable",
      "type": "function"
    },
    {
      "inputs": [
        {
          "internalType": "address",
          "name": "",
          "type": "address"
        }
      ],
      "name": "userBorrowPart",
      "outputs": [
        {
          "internalType": "uint256",
          "name": "",
          "type": "uint256"
        }
      ],
      "stateMutability": "view",
      "type": "function"
    },
    {
      "inputs": [
        {
          "internalType": "address",
          "name": "",
          "type": "address"
        }
      ],
      "name": "userCollateralShare",
      "outputs": [
        {
          "internalType": "uint256",
          "name": "",
          "type": "uint256"
        }
      ],
      "stateMutability": "view",
      "type": "function"
    },
    {
      "inputs": [],
      "name": "yieldBox",
      "outputs": [
        {
          "internalType": "contract YieldBox",
          "name": "",
          "type": "address"
        }
      ],
      "stateMutability": "view",
      "type": "function"
    }
  ],
  "bytecode": "0x6101608060405234620001ba576200001781620001bf565b600f8152602081016e546170696f63612042696742616e6760881b8152604051916200004383620001bf565b6001835260208301603160f81b81526200005d82620001db565b926101209384526200006f85620003ae565b92610140938452519020938460e05251902091610100938385524660a0526040519360208501917f8b73c3c69bb8fe3d512ecc4cf759cc79239f7b179b0ffacaa9a75d522b39400f8352604086015260608501524660808501523060a085015260a0845260c084019380851060018060401b03861117620001a45760408590525190206080523060c052600780546001600160a01b0319163390811790915560007f8be0079c531659141344cd1fd0a4f28419497f9722a3daafe3b4186f6b6457e08180a362013880601d5562015f90601e55612710601f55612ee060225560016026556000602e556103e8602f5561456793846200055c853960805184613517015260a051846135e2015260c051846134e1015260e051846135660152518361358c01525182611f6a01525181611f940152f35b634e487b7160e01b600052604160045260246000fd5b600080fd5b604081019081106001600160401b03821117620001a457604052565b805160209190828110156200027a575090601f8251116200021957808251920151908083106200020a57501790565b82600019910360031b1b161790565b90604051809263305a27a960e01b82528060048301528251908160248401526000935b82851062000260575050604492506000838284010152601f80199101168101030190fd5b84810182015186860160440152938101938593506200023c565b6001600160401b038111620001a4576000928354926001938481811c91168015620003a3575b838210146200038f57601f811162000359575b5081601f8411600114620002f257509282939183928694620002e6575b50501b916000199060031b1c191617905560ff90565b015192503880620002d0565b919083601f1981168780528488209488905b888383106200033e575050501062000324575b505050811b01905560ff90565b015160001960f88460031b161c1916905538808062000317565b85870151885590960195948501948793509081019062000304565b85805284601f848820920160051c820191601f860160051c015b82811062000383575050620002b3565b87815501859062000373565b634e487b7160e01b86526022600452602486fd5b90607f1690620002a0565b8051602090818110156200043c5750601f825111620003db57808251920151908083106200020a57501790565b90604051809263305a27a960e01b82528060048301528251908160248401526000935b82851062000422575050604492506000838284010152601f80199101168101030190fd5b8481018201518686016044015293810193859350620003fe565b9192916001600160401b038111620001a45760019182548381811c9116801562000550575b828210146200053a57601f811162000501575b5080601f8311600114620004b4575081929394600092620004a8575b5050600019600383901b1c191690821b17905560ff90565b01519050388062000490565b90601f198316958460005282600020926000905b888210620004e957505083859697106200032457505050811b01905560ff90565b808785968294968601518155019501930190620004c8565b8360005283601f83600020920160051c820191601f850160051c015b8281106200052d57505062000474565b600081550184906200051d565b634e487b7160e01b600052602260045260246000fd5b90607f16906200046156fe608080604052600436101561001357600080fd5b60009060e08235811c918262a02a20146129aa5750816302ce728f14612981578163078dfbe71461287a578163095ea7b3146128535781630f8b29ea1461283557816318160ddd146128195781631c9e379b146127e05781631d4d3a5d146127b75781631da8bf10146126fc57816323b872dd1461255f578163331960ff1461254157816334ce998a1461251857816334d441d0146124fa5781633644e515146124df57816337b6b7b9146124c157816338d52e0f146124985781633ba0b9a91461247a5781633f741adb1461245557816340626d8b1461243757816344de240a14612419578163473e3ce7146123fb57816348e4163e146123c25781634e71e0c814612314578163529898f2146122f6578163542afda3146122d857816357935462146122ba5781636b19ad161461229c5781636c3d8b8f1461227357816370a082311461223a578163727785471461220157816374645ff31461217057816374c9e48114612152578163790c8467146121345781637dc0d1d01461210b5781637ecebe00146120d25781637fa0b84e146120a05781638285ef401461206e57816384b0196e14611f545781638c5d0ed314611f365781638da5cb5b14611f0d578163910dd7c814611cbd578163932bc4f814611bd957816399a9702814611bb15781639e15e89f14611b76578163a9059cbb14611a93578163b0e21e8a14611a75578163b27c0e7414611a44578163b7113f1914611a21578163bb4cfe3b14611a04578163bde39c5d146119e6578163c1ad5c8d146119cb578163ce8849ed146119a2578163d3fb2a3814611491578163d4e4534e14610b7b578163d505accf14610a0157508063d8dfeb45146109d8578063da863f0e146109af578063dd62ed3e14610960578063de40657714610937578063e0996cb614610919578063e30c3978146108f0578063e7d6de80146103f2578063ea64dd56146103d4578063eec0f42e146103b6578063ef2b234a1461033f578063f791395d146103215763f8ba4cff1461030357600080fd5b3461031e578060031936011261031e5761031b613c68565b80f35b80fd5b503461031e578060031936011261031e576020602a54604051908152f35b503461031e57602036600319011261031e576004356001600160a01b03818116918290036103b25761037681600754163314612b9a565b816023549182167ffb4fd7114609dd603b57adbc2082205bfbbcabf9265c4b437b472f5c592b8cd78580a36001600160a01b0319161760235580f35b8280fd5b503461031e578060031936011261031e576020600e54604051908152f35b503461031e578060031936011261031e576020602154604051908152f35b503461031e57606036600319011261031e5761040c6129f2565b602435906044356001600160401b0381116108da5761042f903690600401612b6d565b600660005260096020527fbb6daa0c283751197dfdc76590680f9005e97d6f23870deb1164ab60b28b9f5f546104689060ff1615613d78565b61047061314a565b505061047a613c68565b61048f6001600160a01b038416301415613df5565b6023546001600160a01b0316156108de576104aa8484613fd5565b6001600160a01b0383168552601a6020526040852080546104cc908690612e96565b90556104da84601754612e96565b601755604051859085306001600160a01b0387167f8ad4d3ff00da092c7ad9a573ea4f5f6a3dffc6712dc06d3f78f49b862297c4028580a460018060a01b03600b5416600e54813b156108da57630208d92960e11b83523060048401819052602484015260448301526064820187905282908290608490829084905af180156108cf576108b7575b5050600b54600e54602354604080516311a5cc7760e31b815297909388936001600160a01b039182169385938c9385936105a59390911690309060048601613e56565b03925af1938415610879578594610884575b50602060018060a01b03600b5416946064600e54604051978893849263442c159960e01b8452600484015260248301528960448301525afa938415610879578594610842575b50602354601054600d54600f54604051630fb5d60d60e01b81529760209689966001600160a01b039687169688968d968896610649969495948e94909391811692169060048901613e85565b03925af191821561080357839261080e575b5060018060a01b03600b54166010549360405191638eb22cdd60e01b95868452806004850152856024850152826044850152602084606481855afa9384156108035783946107ce575b5060209060018060a01b03861684526019825260646040852054986106d08a6106cb613abb565b614219565b946040519586948593845260048401526024830152600160448301525afa9182156107c25791610784575b50602094610729936107249390921161073157610719908280614277565b505b60135490613edc565b613db5565b604051908152f35b5061073a613abb565b80516001600160801b0390811661075f575050610759845b8280614277565b5061071b565b818161077661077f938a6107599601511689612e3f565b91511690612e68565b610752565b919290506020823d6020116107ba575b816107a160209383612af1565b810103126107b557905190919060206106fb565b600080fd5b3d9150610794565b604051903d90823e3d90fd5b9093506020813d6020116107fb575b816107ea60209383612af1565b810103126107b557519260206106a4565b3d91506107dd565b6040513d85823e3d90fd5b9091506020813d60201161083a575b8161082a60209383612af1565b810103126107b55751903861065b565b3d915061081d565b919093506020823d602011610871575b8161085f60209383612af1565b810103126107b55790519260206105fd565b3d9150610852565b6040513d87823e3d90fd5b6108a791945060403d6040116108b0575b61089f8183612af1565b810190613e40565b905092386105b7565b503d610895565b6108c090612aa7565b6108cb578438610562565b8480fd5b6040513d84823e3d90fd5b8380fd5b6040516317ca80f360e11b8152600490fd5b503461031e578060031936011261031e576008546040516001600160a01b039091168152602090f35b503461031e578060031936011261031e576020601f54604051908152f35b503461031e578060031936011261031e57600b546040516001600160a01b039091168152602090f35b503461031e57604036600319011261031e5761097a6129f2565b6040610984612a08565b9260018060a01b03809316815260046020522091166000526020526020604060002054604051908152f35b503461031e578060031936011261031e576023546040516001600160a01b039091168152602090f35b503461031e578060031936011261031e57600d546040516001600160a01b039091168152602090f35b905034610b7757610a1136612a1e565b83979496979291924211610b3257610ade92610ad692604260018060a01b039689888d16998a928360005260066020528d604060002090815491610a5483613840565b90558c6040519560208701977f9cc5629bbe7baa98a89f6f8c2c396b83ab62dbb6cbb12f17f1d6ba7e6f53e266895260006040890152606088015216608086015260a085015260c0840152818301528152610aae81612ad5565b519020610ab96134de565b906040519161190160f01b835260028301526022820152206137bb565b9190916136a6565b1603610aed5761031b9261389d565b60405162461bcd60e51b815260206004820152601e60248201527f45524332305065726d69743a20696e76616c6964207369676e617475726500006044820152606490fd5b60405162461bcd60e51b815260206004820152601d60248201527f45524332305065726d69743a206578706972656420646561646c696e650000006044820152606490fd5b5080fd5b823461031e57608036600319011261031e57610b956129f2565b6064356001600160401b0381116103b257610bb4903690600401612b6d565b600584939293526009602052610bd160ff60408620541615613d78565b610bd961314a565b5050610be3613c68565b610bf86001600160a01b038316301415613df5565b6023546001600160a01b031680156108de57600b54601054604051638eb22cdd60e01b815260048101829052604480356024830152600190820152909290916001600160a01b0316602083606481845afa92831561148657889361144e575b5085888095856113ec575b505050505050610c736024356140bb565b610c7b613abb565b610c8782602435612ea3565b90876020604051610c9781612aba565b828152015280516001600160801b039081166113905780610cbe81855b1682855116613ae1565b1682526020820191610cd582851683855116613ae1565b8281169093525160809290921b6001600160801b031916911690811760165560185490811580159081611386575b156113485761132a575b50506001600160a01b03851687526019602052604087208054610d31908390612ea3565b905560405191825260208201526024359030907f3a5151e57d3bc9798e7853034ac52293d1a0e12a2b44725e75b03b21f86477a6604060018060a01b03881692a4600f546001600160a01b0316803b15611326576040516340c10f1960e01b815230600482015260248035908201529086908290604490829084905af1801561119e57611313575b50600f54601054600b546001600160a01b03908116949216803b156112d3576040519063095ea7b360e01b6020830152856024830152886044830152604482528160808101106001600160401b036080840111176112bd578895868084608082960160405260208151910182865af1610e30614455565b908061127a575b610e419150614485565b6024356111c8575b505050610e8160409160018060a01b03600b5416908351968780948193634d4d7cbd60e11b835260243590309030906004860161408c565b03925af192831561119e57610ed49360409188916111a9575b50600b5460105460235484516311a5cc7760e31b81529788946001600160a01b039485169486948e94869493921690309060048601613e56565b03925af1801561119e57602093879161117e575b50602354600e54600f54600d546001600160a01b0390811696938116959116938a93610f379291610f1891612ea3565b99896040519b8c998a9889976332642b4760e21b895260048901613e85565b03925af191821561080357839261114a575b5060018060a01b03600b54166020600e54606460405180948193638eb22cdd60e01b835260048301528760248301528860448301525afa90811561110d578491611118575b50610f998183613fd5565b8015611090575b6001600160a01b0382168452601a602052604084208054610fc2908390612ea3565b9055610fd081601754612ea3565b601755600e54600b546001600160a01b0316908590823b15610b7757604051630208d92960e11b81526001600160a01b0386166004820152306024820152604481019190915260648101849052918290608490829084905af180156108795761107c575b50602093610729926107249290916001600160a01b0383169081907f9ed03113de523cebfe5e49d5f8e12894b1c0d42ce805990461726444c90eab879080a460135490613edc565b6110868591612aa7565b6108da5784611034565b5060018060a01b03600b54166020600e54606460405180948193638eb22cdd60e01b835260048301528860248301528860448301525afa90811561110d5784916110db575b50610fa0565b90506020813d602011611105575b816110f660209383612af1565b810103126107b55751846110d5565b3d91506110e9565b6040513d86823e3d90fd5b90506020813d602011611142575b8161113360209383612af1565b810103126107b5575184610f8e565b3d9150611126565b9091506020813d602011611176575b8161116660209383612af1565b810103126107b557519083610f49565b3d9150611159565b611197915060403d6040116108b05761089f8183612af1565b5087610ee8565b6040513d88823e3d90fd5b6111c09150823d84116108b05761089f8183612af1565b905088610e9a565b60405163095ea7b360e01b602082019081526001600160a01b039290921660248083019190915235604480830191909152815283929190839061120c606482612af1565b51925af1611218614455565b81611236575b5060409161122e610e8192614485565b918591610e49565b805180159250821561124c575b5050604061121e565b81925090602091810103126108cb5760409161122e6112706020610e819401613120565b9250819350611243565b508051908115918215611293575b5050610e4190610e37565b81809650602093500103126112b957610e416112b26020899501613120565b908c611288565b8680fd5b634e487b7160e01b600052604160045260246000fd5b60405162461bcd60e51b815260206004820152601860248201527714d85999505c1c1c9bdd994e881b9bc818dbdb9d1c9858dd60421b6044820152606490fd5b61131f90959195612aa7565b9385610db9565b8580fd5b11611336578780610d0d565b6040516353977d1f60e01b8152600490fd5b60405162461bcd60e51b815260206004820152601660248201527510908e88189bdc9c9bddc818d85c081c995858da195960521b6044820152606490fd5b5082821115610d03565b6020820192806113c26113b36113a98588511684612e3f565b8587511690612e68565b95846107768188511689612e3f565b106113d3575b610cbe828092610cb4565b92610cbe826113e28193613840565b95925050506113c8565b60409596506114108651978896879586946311a5cc7760e31b865260048601613e56565b03925af190811561087957859161142e575b50858080858882610c62565b611447915060403d6040116108b05761089f8183612af1565b5085611422565b9092506020813d60201161147e575b8161146a60209383612af1565b8101031261147a57519188610c57565b8780fd5b3d915061145d565b6040513d8a823e3d90fd5b823461031e5761016036600319011261031e576001600160a01b039060043582811690819003610b77576001600160401b03926024358481116108da576114dc903690600401612b6d565b909460443593838516809503611326576114fb84600754163314612b9a565b8061195e575b5081611805575b505090809293506117c5575b505060643580611798575b506084358061176b575b5060a4358061173f575b5060c43580611706575b5060e435806116cd575b506101043580611687575b5061012435806115fe575b50610144358061156b575080f35b602054811061159e57611583620186a0821115612dff565b8060215560086000805160206144f28339815191528380a380f35b60405162461bcd60e51b815260206004820152603260248201527f4d61726b65743a206c69717569646174696f6e436f6c6c61746572616c697a616044820152711d1a5bdb94985d19481d1bdbc81cdb585b1b60721b6064820152608490fd5b61160d620186a0821115612dff565b6021548111611634578060205560076000805160206144f28339815191528380a38161155d565b60405162461bcd60e51b815260206004820152602560248201527f4d61726b65743a20636f6c6c61746572616c697a6174696f6e5261746520746f6044820152646f2062696760d81b6064820152608490fd5b806018547fae6e0ab3b95f0a53ff9660a390ccedcbbf1f2355dce974a9841af106fddcfaba8480a38060185560066000805160206144f28339815191528380a381611552565b6116db620186a08210612dff565b6116e8601d548211612dff565b80601e5560056000805160206144f28339815191528380a381611547565b611714620186a08210612dff565b611721601e548210612dff565b80601d5560046000805160206144f28339815191528380a38161153d565b61174d620186a08210612dff565b80601f5560036000805160206144f28339815191528380a381611533565b61177a620186a0821115612dff565b80601c5560026000805160206144f28339815191528380a381611529565b6117a7620186a0821115612dff565b80601b5560016000805160206144f28339815191528380a38161151f565b81600a549182167f5a62d22209e370e38eea92cfddcd228e656e6ec139243392a760a7769f5877fd8580a36001600160a01b03191617600a558180611514565b811161194a57611816601254612a6d565b601f81116118fb575b5083601f8211600114611887578495829394959261187c575b50508160011b916000199060031b1c1916176012555b7fa6f004921c944d4b8bf6e38462b00f36a58d62495d56b51f571ab78f732c98158380a19082918480611508565b013590508580611838565b60128552601f198216956000805160206144d2833981519152918660205b8982106118e357505083600195969798106118c9575b505050811b0160125561184e565b0135600019600384901b60f8161c191690558580806118bb565b806001849682949587013581550195019201906118a5565b601285526000805160206144d2833981519152601f830160051c810160208410611943575b601f90920160051c01905b818110611938575061181f565b85815560010161192b565b5080611920565b634e487b7160e01b84526041600452602484fd5b601180546001600160a01b031916821790556040519081527f3df77beb5db05fcdd70a30fc8adf3f83f9501b68579455adbd100b818094039490602090a186611501565b823461031e578060031936011261031e57600a546040516001600160a01b039091168152602090f35b823461031e578060031936011261031e5760206107296138f4565b823461031e578060031936011261031e576020602b54604051908152f35b823461031e578060031936011261031e5760208054604051908152f35b823461031e578060031936011261031e57602060ff602854166040519015158152f35b823461031e578060031936011261031e5760406027548151906001600160401b03908181168352831c166020820152f35b823461031e578060031936011261031e576020601c54604051908152f35b823461031e57604036600319011261031e57611aad6129f2565b60243580928115801590611b64575b611af4575b50506040519182526001600160a01b031690339060008051602061451283398151915290602090a3602060405160018152f35b33815260036020526040812054611b0d83821015613608565b6001600160a01b0384169033829003611b28575b5050611ac1565b604093611b3f91611b3a84151561364d565b612e96565b338352600360205283832055815220611b59838254612ea3565b905581838080611b21565b50336001600160a01b03841614611abc565b823461031e57604036600319011261031e576060611b9e611b956129f2565b60243590612fe2565b9060405192835260208301526040820152f35b823461031e57604036600319011261031e576020610729611bd06129f2565b602435906133a8565b823461031e578060031936011261031e5760405181602d54611bfa81612a6d565b80845290600190818116908115611c955750600114611c3c575b611c3884611c2481880382612af1565b604051918291602083526020830190612b12565b0390f35b602d8352602094507f4a2cc91ee622da3bc833a54c37ffcb6f3ec23b7793efc5eaf5e71b7b406c5c065b828410611c825750505081611c3893611c249282010193611c14565b8054858501870152928501928101611c66565b611c389650611c249450602092508593915060ff191682840152151560051b82010193611c14565b905034610b77576040366003190112610b77576004356001600160401b0381116103b257366023820112156103b257806004013590611cfb82612b52565b92611d096040519485612af1565b828452846020928386019436602482840101116103b2578060248693018737860101526024359161ffff8316809303611326576101009384868051810103126112b957611d5590613120565b91611d6260408701613692565b90611d6f60608801613692565b9660808101519660a08201519260c08301519160ff83168303611f0957838201519301516001600160a01b039586169a861698909490428210611ec4579260428d898e999895611e3998958f988f998f9a8e610ad69c600014611e9b5760407f9cc5629bbe7baa98a89f6f8c2c396b83ab62dbb6cbb12f17f1d6ba7e6f53e266985b828152600689522093845494611e0686613840565b905560405197880198895260408801526060870152608086015260a085015260c0840152818301528152610aae81612ad5565b1603611e57575015611e4e5761031b9261389d565b61031b9261384f565b6064906040519062461bcd60e51b82526004820152601e60248201527f45524332305065726d69743a20696e76616c6964207369676e617475726500006044820152fd5b60407f5c9ba5f0d101616843d7918f48ea857d6da95e04ac6d719e105e50a355e7c5d698611df1565b60405162461bcd60e51b815260048101899052601d60248201527f45524332305065726d69743a206578706972656420646561646c696e650000006044820152606490fd5b8b80fd5b823461031e578060031936011261031e576007546040516001600160a01b039091168152602090f35b823461031e578060031936011261031e576020601d54604051908152f35b823461031e578060031936011261031e57611f8e7f0000000000000000000000000000000000000000000000000000000000000000612c6a565b90611fb87f0000000000000000000000000000000000000000000000000000000000000000612d63565b60405191602091828401948486106001600160401b0387111761205a5794928061201088969386604052858552612002604051998a99600f60f81b8b5280868c01528a0190612b12565b9088820360408a0152612b12565b924660608801523060808801528460a088015286840360c088015251928381520193925b82811061204357505050500390f35b835185528695509381019392810192600101612034565b634e487b7160e01b83526041600452602483fd5b823461031e578060031936011261031e57601654604080516001600160801b038316815260809290921c602083015290f35b823461031e57604036600319011261031e576120c76120bd6129f2565b602435903361384f565b602060405160018152f35b823461031e57602036600319011261031e576020906040906001600160a01b036120fa6129f2565b168152600683522054604051908152f35b823461031e578060031936011261031e576011546040516001600160a01b039091168152602090f35b823461031e578060031936011261031e576020603154604051908152f35b823461031e578060031936011261031e576020602f54604051908152f35b823461031e578060031936011261031e576040518160125461219181612a6d565b80845290600190818116908115611c9557506001146121ba57611c3884611c2481880382612af1565b60128352602094506000805160206144d28339815191525b8284106121ee5750505081611c3893611c249282010193611c14565b80548585018701529285019281016121d2565b823461031e57602036600319011261031e576004356009811015610b775760408260ff9260209452600984522054166040519015158152f35b823461031e57602036600319011261031e576020906040906001600160a01b036122626129f2565b168152600383522054604051908152f35b823461031e578060031936011261031e57600c546040516001600160a01b039091168152602090f35b823461031e578060031936011261031e576020602954604051908152f35b823461031e578060031936011261031e576020601e54604051908152f35b823461031e578060031936011261031e576020602e54604051908152f35b823461031e578060031936011261031e576020602254604051908152f35b823461031e578060031936011261031e576008546001600160a01b03908181163381900361237e57806007549384167f8be0079c531659141344cd1fd0a4f28419497f9722a3daafe3b4186f6b6457e08680a36001600160a01b0319928316176007551660085580f35b606460405162461bcd60e51b815260206004820152602060248201527f4f776e61626c653a2063616c6c657220213d2070656e64696e67206f776e65726044820152fd5b823461031e57602036600319011261031e576020906040906001600160a01b036123ea6129f2565b168152601983522054604051908152f35b823461031e578060031936011261031e576020601754604051908152f35b823461031e578060031936011261031e576020601054604051908152f35b823461031e578060031936011261031e576020601854604051908152f35b823461031e57606036600319011261031e576020610729604435602435600435612ec9565b823461031e578060031936011261031e576020601354604051908152f35b823461031e578060031936011261031e57600f546040516001600160a01b039091168152602090f35b823461031e578060031936011261031e576020601454604051908152f35b823461031e578060031936011261031e5760206107296134de565b823461031e578060031936011261031e576020601b54604051908152f35b823461031e578060031936011261031e576016546040516001600160801b039091168152602090f35b823461031e578060031936011261031e576020601554604051908152f35b823461031e57606036600319011261031e576125796129f2565b90612582612a08565b60443591826125c0575b506040519182526001600160a01b0390811692169060008051602061451283398151915290602090a3602060405160018152f35b6001600160a01b038481168083526003602090815260408420549286906125e982861015613608565b8616938484036125fe575b505050505061258c565b838652600483526040808720338852845286205460018101612668575b50926003602096936126468794604097611b3a6000805160206145128339815191529c9a151561364d565b928552528383205581522061265c858254612ea3565b905591858085816125f4565b909181106126bc57926003602096936126468a6000805160206145128339815191529a98956126998260409a612e96565b86895260048552898920338a52855289892055949750949799505093965061261b565b60405162461bcd60e51b815260048101849052601860248201527745524332303a20616c6c6f77616e636520746f6f206c6f7760401b6044820152606490fd5b905034610b775761270c36612a1e565b83929397919496974211610b32578594889460428b8a610ad6966127a89860018060a01b03809b169b8c9384865260066020528c604087209283549361275185613840565b90556040519660208801987f5c9ba5f0d101616843d7918f48ea857d6da95e04ac6d719e105e50a355e7c5d68a526040890152606088015216608086015260a085015260c0840152818301528152610aae81612ad5565b1603610aed5761031b9261384f565b823461031e578060031936011261031e57602c546040516001600160a01b039091168152602090f35b823461031e57602036600319011261031e576020906040906001600160a01b036128086129f2565b168152601a83522054604051908152f35b823461031e578060031936011261031e57602090604051908152f35b823461031e578060031936011261031e576020603054604051908152f35b823461031e57604036600319011261031e576120c76128706129f2565b602435903361389d565b823461031e57606036600319011261031e576128946129f2565b60243580151581036103b2576044359081151582036108da5760018060a01b039283916128c683600754163314612b9a565b1561296a571690811590811591612962575b501561292557806007549283167f8be0079c531659141344cd1fd0a4f28419497f9722a3daafe3b4186f6b6457e08580a36001600160a01b03199182161760075560088054909116905580f35b60405162461bcd60e51b81526020600482015260156024820152744f776e61626c653a207a65726f206164647265737360581b6044820152606490fd5b9050846128d8565b9150501660018060a01b0319600854161760085580f35b823461031e578060031936011261031e57604061299c61314a565b825191151582526020820152f35b839034610b77576040366003190112610b775760406020926129ca6129f2565b6129d2612a08565b6001600160a01b0391821683526005865283832091168252845220548152f35b600435906001600160a01b03821682036107b557565b602435906001600160a01b03821682036107b557565b60e09060031901126107b5576001600160a01b039060043582811681036107b5579160243590811681036107b55790604435906064359060843560ff811681036107b5579060a4359060c43590565b90600182811c92168015612a9d575b6020831014612a8757565b634e487b7160e01b600052602260045260246000fd5b91607f1691612a7c565b6001600160401b0381116112bd57604052565b604081019081106001600160401b038211176112bd57604052565b61010081019081106001600160401b038211176112bd57604052565b90601f801991011681019081106001600160401b038211176112bd57604052565b919082519283825260005b848110612b3e575050826000602080949584010152601f8019910116010190565b602081830181015184830182015201612b1d565b6001600160401b0381116112bd57601f01601f191660200190565b9181601f840112156107b5578235916001600160401b0383116107b557602083818601950101116107b557565b15612ba157565b606460405162461bcd60e51b815260206004820152602060248201527f4f776e61626c653a2063616c6c6572206973206e6f7420746865206f776e65726044820152fd5b60125460009291612bf582612a6d565b908181526001928381169081600014612c4f5750600114612c1557505050565b9092935060126000526020928360002092846000945b838610612c3b5750505050010190565b805485870183015294019385908201612c2b565b91935050602093945060ff191683830152151560051b010190565b60ff8114612ca85760ff811690601f8211612c965760405191612c8c83612aba565b8252602082015290565b604051632cd44ac360e21b8152600490fd5b50604051600081815491612cbb83612a6d565b808352600193808516908115612d425750600114612ce4575b50612ce192500382612af1565b90565b60008080527f290decd9548b62a8d60345a988386fc84ba6bc95484008f6362f93160ef3e56394602093509091905b818310612d2a575050612ce1935082010138612cd4565b85548784018501529485019486945091830191612d13565b9050612ce194506020925060ff191682840152151560051b82010138612cd4565b60ff8114612d855760ff811690601f8211612c965760405191612c8c83612aba565b506040516000816001918254612d9a81612a6d565b80845290848116908115612d425750600114612dbd5750612ce192500382612af1565b9280915060005260209081600020936000915b818310612de7575050612ce1935082010138612cd4565b85548784018501529485019486945091830191612dd0565b15612e0657565b60405162461bcd60e51b815260206004820152601160248201527013585c9ad95d0e881b9bdd081d985b1a59607a1b6044820152606490fd5b81810292918115918404141715612e5257565b634e487b7160e01b600052601160045260246000fd5b8115612e72570490565b634e487b7160e01b600052601260045260246000fd5b604d8111612e5257600a0a90565b91908203918211612e5257565b91908201809211612e5257565b81810392916000138015828513169184121617612e5257565b601654919291612f1291612f0391612ef991612eef906001600160801b03831690612e3f565b9060801c90612e68565b9360215490612e3f565b612f0c83612e88565b90612e68565b808310612fda57612f26612f629184612e96565b91612f5d612f57612f4e602054612f48612f3f86612e88565b60225490612ea3565b90612e3f565b612f0c84612e88565b91612e88565b612eb0565b6509184e72a00090818102918183051490151715612e5257670de0b6b3a764000091828102928184051490151715612e52578015612e7257600160ff1b91808314600019831416612e525705906000821215612fd3578114612e5257600003905b808211612fce575090565b905090565b5090612fc3565b505050600090565b6001600160a01b0390811660008181526019602090815260408220549295949391929091811561311357613014613afa565b906130208615156132a5565b600b541683600e54898752601a82526064604088205491604051948593849263442c159960e01b8452600484015260248301528960448301525afa9081156108795785916130e4575b50928594926130c4601a9361309f6130d89961309a61309260409a620186a06024540490612e3f565b875490612e3f565b612e68565b815190936001600160801b039186916130ba91841690612e3f565b9201511690612e68565b8181106130dc57035b9783525220546132f1565b9091565b5050826130cd565b90508381813d831161310c575b6130fb8183612af1565b810103126108cb57516130d8613069565b503d6130f1565b5050509192505080918190565b519081151582036107b557565b91908260409103126107b557602061314483613120565b92015190565b6011546040805163d6d7d52560e01b8152602060048201529290916001600160a01b031682848061317d60248201612be5565b0381600080955af180156132995781948291613266575b5092841561320c5783156131d257507f9f9192b5edb17356c524e08d9e025c8e2f6307e6ea52fb7968faa3081f51c3c88391826013554260155580a2565b5162461bcd60e51b81526020600482015260146024820152734d61726b65743a20696e76616c6964207261746560601b6044820152606490fd5b9192505061321f60155460145490612ea3565b421161322c575060135490565b5162461bcd60e51b815260206004820152601460248201527313585c9ad95d0e881c985d19481d1bdbc81bdb1960621b6044820152606490fd5b9050613289919450833d8511613292575b6132818183612af1565b81019061312d565b93909338613194565b503d613277565b508251903d90823e3d90fd5b156132ac57565b60405162461bcd60e51b815260206004820152601e60248201527f4d61726b65743a2065786368616e676552617465206e6f742076616c696400006044820152606490fd5b6132fc8215156132a5565b602060018060a01b03600b5416916064600e54604051948593849263442c159960e01b845260048401526024830152600060448301525afa90811561339c57600091613369575b509061309a6133559260245490612e3f565b620186a061336560205483612e3f565b0491565b906020823d8211613394575b8161338260209383612af1565b8101031261031e57505161309a613343565b3d9150613375565b6040513d6000823e3d90fd5b6001600160a01b03166000818152601a602052604081205490926133cb916132f1565b9183526019602052604083205480156134d85781156134d8576016546133ff91612eef906001600160801b03831690612e3f565b8181106134d857828110156134ce578161341891612e96565b90620186a092838302928084048514901517156134ba5761343d9291612f0c91612e96565b91601d5491601e54936134508585612eb0565b80820291848212600160ff1b8214166134ba5781830514901517156134a657058184820194851291129080158216911516176134925750808212612fce575090565b634e487b7160e01b81526011600452602490fd5b634e487b7160e01b83526011600452602483fd5b634e487b7160e01b85526011600452602485fd5b50505050601d5490565b50505090565b307f00000000000000000000000000000000000000000000000000000000000000006001600160a01b031614806135df575b15613539577f000000000000000000000000000000000000000000000000000000000000000090565b60405160208101907f8b73c3c69bb8fe3d512ecc4cf759cc79239f7b179b0ffacaa9a75d522b39400f82527f000000000000000000000000000000000000000000000000000000000000000060408201527f000000000000000000000000000000000000000000000000000000000000000060608201524660808201523060a082015260a0815260c081018181106001600160401b038211176112bd5760405251902090565b507f00000000000000000000000000000000000000000000000000000000000000004614613510565b1561360f57565b60405162461bcd60e51b815260206004820152601660248201527545524332303a2062616c616e636520746f6f206c6f7760501b6044820152606490fd5b1561365457565b60405162461bcd60e51b815260206004820152601660248201527545524332303a206e6f207a65726f206164647265737360501b6044820152606490fd5b51906001600160a01b03821682036107b557565b60058110156137a557806136b75750565b600181036136ff5760405162461bcd60e51b815260206004820152601860248201527745434453413a20696e76616c6964207369676e617475726560401b6044820152606490fd5b6002810361374c5760405162461bcd60e51b815260206004820152601f60248201527f45434453413a20696e76616c6964207369676e6174757265206c656e677468006044820152606490fd5b60031461375557565b60405162461bcd60e51b815260206004820152602260248201527f45434453413a20696e76616c6964207369676e6174757265202773272076616c604482015261756560f01b6064820152608490fd5b634e487b7160e01b600052602160045260246000fd5b9291906fa2a8918ca85bafe22016d0b997e4df60600160ff1b0383116138345791608094939160ff602094604051948552168484015260408301526060820152600093849182805260015afa156138275781516001600160a01b03811615613821579190565b50600190565b50604051903d90823e3d90fd5b50505050600090600390565b6000198114612e525760010190565b7fe50de2333c10a9502fcb1d8ae13a51bbf423153dfc63c2b8997665b32154afc360018060a01b038092169160009083825260056020526040822094169384825260205284604082205580a4565b909160207f8c5be1e5ebec7d5bd14f71427d1e84f3dd0314c0f7b2291e5b200ac8c7c3b9259160018060a01b03809416938460005260048352604060002095169485600052825280604060002055604051908152a3565b60ff60285416613a55576016546001600160801b0316908115613a4e57600c54604051631848f2bf60e31b8152602093916001600160a01b03919085908290600490829086165afa801561339c578591600091613a15575b50600460405180948193631a674cc560e11b8352165afa93841561339c576000946139e6575b505061398e9192670de0b6b3a7640000928391602b5490612e3f565b0490818110156139dd578281029081048303612e52576139d1916139b191612e68565b602954926139cb602a54926139c68487612e96565b612e3f565b04612ea3565b90808211612fce575090565b50505060295490565b81813d8311613a0e575b6139fa8183612af1565b810103126108da5751925061398e38613972565b503d6139f0565b909181813d8311613a47575b613a2b8183612af1565b81010312610b77575190828216820361031e575084903861394c565b503d613a21565b602a549150565b600c5460405163e6abad4960e01b815290602090829060049082906001600160a01b03165afa90811561339c57600091613a8d575090565b906020823d8211613ab3575b81613aa660209383612af1565b8101031261031e57505190565b3d9150613a99565b60405190613ac882612aba565b6016546001600160801b038116835260801c6020830152565b6001600160801b039182169082160191908211612e5257565b60006020604051613b0a81612aba565b82815201526001600160401b0390613b298260275460401c1642612e96565b918215613b8c57613b87613b7e670de0b6b3a7640000613b78613b4a613abb565b966139c660018060801b0396878a511690613b716301e13380613b6b6138f4565b04613c00565b1690612e3f565b04613b97565b82855116613ae1565b168252565b509050612ce1613abb565b6001600160801b0390818111613bab571690565b60405162461bcd60e51b815260206004820152602760248201527f53616665436173743a2076616c756520646f65736e27742066697420696e20316044820152663238206269747360c81b6064820152608490fd5b6001600160401b0390818111613c14571690565b60405162461bcd60e51b815260206004820152602660248201527f53616665436173743a2076616c756520646f65736e27742066697420696e203660448201526534206269747360d01b6064820152608490fd5b604051613c7481612aba565b6027546001600160401b03908181168352818160401c16613c9c602085019180835242612e96565b928315613d715760209481613cb76301e13380613b6b6138f4565b16815281613cc442613c00565b168352613ccf613abb565b670de0b6b3a7640000613cf460018060801b03976139c6898551168787511690612e3f565b0495613d0b613d0288613b97565b82845116613ae1565b1680825296015160801b6001600160801b031990811690961760165551915192909416931692831760409190911b67ffffffffffffffff60401b16176027557f7484db546dcd57af0104c73c8a6968dfbaf5767f047cee0dadd0499ad7df81a0600080a3565b5050505050565b15613d7f57565b60405162461bcd60e51b815260206004820152600e60248201526d13585c9ad95d0e881c185d5cd95960921b6044820152606490fd5b15613dbc57565b60405162461bcd60e51b815260206004820152601160248201527013585c9ad95d0e881a5b9cdbdb1d995b9d607a1b6044820152606490fd5b15613dfc57565b606460405162461bcd60e51b815260206004820152602060248201527f4d61726b65743a2063616e6e6f742065786563757465206f6e20697473656c666044820152fd5b91908260409103126107b5576020825192015190565b9081526001600160a01b0391821660208201529116604082015260006060820152608081019190915260a00190565b9081526001600160a01b039182166020820152918116604083015260608201929092529116608082015260c060a08201819052810183905260e09290918190848401376000828201840152601f01601f1916010190565b919060018060a01b03806000941684526020601981526040852054908115613fcb57601a815260408620548015613d715781613f16613abb565b94600b5416916064600e54604051948593849263442c159960e01b8452600484015260248301528b60448301525afa9687156107c2578097613f95575b50506130ba613f7a613f72613f90969798620186a06024540490612e3f565b835490612e3f565b956139c660018060801b03948587511690612e3f565b111590565b9096508187813d8311613fc4575b613fad8183612af1565b8101031261031e57509451946130ba613f7a613f53565b503d613fa3565b5060019450505050565b6001600160a01b0316338103613fe9575050565b6000818152602090600582526040918282203383528152848383205410614052578382526005815282822033835281528282205460010161402b575050505050565b61404693825260058152828220903383525220918254612e96565b90553880808080613d71565b60649083519062461bcd60e51b82526004820152601460248201527313585c9ad95d0e881b9bdd08185c1c1c9bdd995960621b6044820152fd5b9081526001600160a01b0391821660208201529116604082015260608101919091526000608082015260a00190565b801561421357602c546040805163d6d7d52560e01b8152602060048201529291819084906001600160a01b0316816000816140f860248201612be5565b03925af19283156142085760009081946141e6575b50156141d65750603154808310156141c35760305490818411156141af5761415a61416091612f0c61414285602f5498612e96565b94614154602e5496612f48888b612e96565b92612e96565b84612e96565b9280841161419e575080831061418f57508161417d575050600090565b620186a09161418b91612e3f565b0490565b620186a0925061418b91612e3f565b9050620186a0925061418b91612e3f565b5050602f54620186a0925061418b91612e3f565b50602e54620186a0925061418b91612e3f565b51638390524960e01b8152600490fd5b9050816142009294503d8511613292576132818183612af1565b92903861410d565b50513d6000823e3d90fd5b50600090565b60208101805190939291906001600160801b0390811661423a575090925050565b90816107768161425d6142536142669686511688612e3f565b828a511690612e68565b97511687612e3f565b1061426d57565b90612ce190613840565b90929160018060a01b0380941690600094828652601960205260409384872054808411614434575b508215614423576142ae613abb565b9487602082516142bd81612aba565b82815201526142cc8487614219565b9560018060801b03806142e4818a168285511661443c565b16825260208201916142fb8288168385511661443c565b8281169093525160809290921b6001600160801b03191691161760165584885260196020528088208054614330908690612e96565b90558597614360828886600b54166010548584518096819582946311a5cc7760e31b84528c30916004860161408c565b03925af18015614419576143fd575b5083600f5416803b15610b77578251632770a7eb60e21b815230600482015260248101899052919081908390604490829084905af19081156143f2575091602093917fc8e512d8f188ca059984b5853d2bf653da902696b8512785b182b2c813789a6e95936143e3575b50519485521692a4565b6143ec90612aa7565b386143d9565b8351903d90823e3d90fd5b61441390833d85116108b05761089f8183612af1565b5061436f565b83513d84823e3d90fd5b84516369973fe360e11b8152600490fd5b92503861429f565b6001600160801b039182169082160391908211612e5257565b3d15614480573d9061446682612b52565b916144746040519384612af1565b82523d6000602084013e565b606090565b1561448c57565b60405162461bcd60e51b815260206004820152601b60248201527f53616665417070726f76653a20617070726f7665206661696c656400000000006044820152606490fdfebb8a6a4669ba250d26cd7a459eca9d215f8307e33aebe50379bc5a3617ec3444253ac2c290fb3c37b20cfd60899ed86c0c8313905edc8ca53ec8d2b69d9919adddf252ad1be2c89b69c2b068fc378daa952ba7f163c4a11628f55a4df523b3efa2646970667358221220843120864a4488401dd9d06c0c3837b6835f4d4feffe53815cb33cec96a4142764736f6c63430008130033",
  "linkReferences": {},
  "deployedLinkReferences": {}
}