{
  "_format": "hh-sol-artifact-1",
  "contractName": "BBLeverage",
  "sourceName": "contracts/markets/bigBang/BBLeverage.sol",
  "abi": [
    {
      "inputs": [],
      "name": "BorrowCapReached",
      "type": "error"
    },
    {
      "inputs": [],
      "name": "LeverageExecutorNotValid",
      "type": "error"
    },
    {
      "inputs": [],
      "name": "NotEnough",
      "type": "error"
    },
    {
      "inputs": [],
      "name": "NothingToRepay",
      "type": "error"
    },
    {
      "inputs": [],
      "name": "OracleCallFailed",
      "type": "error"
    },
    {
      "inputs": [],
      "name": "RepayAmountNotValid",
      "type": "error"
    },
    {
      "anonymous": false,
      "inputs": [
        {
          "indexed": true,
          "internalType": "address",
          "name": "owner",
          "type": "address"
        },
        {
          "indexed": true,
          "internalType": "address",
          "name": "spender",
          "type": "address"
        },
        {
          "indexed": false,
          "internalType": "uint256",
          "name": "value",
          "type": "uint256"
        }
      ],
      "name": "Approval",
      "type": "event"
    },
    {
      "anonymous": false,
      "inputs": [
        {
          "indexed": true,
          "internalType": "address",
          "name": "owner",
          "type": "address"
        },
        {
          "indexed": true,
          "internalType": "address",
          "name": "spender",
          "type": "address"
        },
        {
          "indexed": true,
          "internalType": "uint256",
          "name": "value",
          "type": "uint256"
        }
      ],
      "name": "ApprovalBorrow",
      "type": "event"
    },
    {
      "anonymous": false,
      "inputs": [],
      "name": "AssetOracleDataUpdated",
      "type": "event"
    },
    {
      "anonymous": false,
      "inputs": [
        {
          "indexed": true,
          "internalType": "address",
          "name": "oldVal",
          "type": "address"
        },
        {
          "indexed": true,
          "internalType": "address",
          "name": "newVal",
          "type": "address"
        }
      ],
      "name": "AssetOracleUpdated",
      "type": "event"
    },
    {
      "anonymous": false,
      "inputs": [
        {
          "indexed": true,
          "internalType": "address",
          "name": "old",
          "type": "address"
        },
        {
          "indexed": true,
          "internalType": "address",
          "name": "_new",
          "type": "address"
        }
      ],
      "name": "ConservatorUpdated",
      "type": "event"
    },
    {
      "anonymous": false,
      "inputs": [
        {
          "indexed": true,
          "internalType": "uint256",
          "name": "oldVal",
          "type": "uint256"
        },
        {
          "indexed": true,
          "internalType": "uint256",
          "name": "newVal",
          "type": "uint256"
        }
      ],
      "name": "DebtRateAgainstEthUpdated",
      "type": "event"
    },
    {
      "anonymous": false,
      "inputs": [
        {
          "indexed": false,
          "internalType": "uint256",
          "name": "_oldVal",
          "type": "uint256"
        },
        {
          "indexed": false,
          "internalType": "uint256",
          "name": "_newVal",
          "type": "uint256"
        }
      ],
      "name": "ExchangeRateDurationUpdated",
      "type": "event"
    },
    {
      "anonymous": false,
      "inputs": [
        {
          "indexed": true,
          "internalType": "address",
          "name": "oldVal",
          "type": "address"
        },
        {
          "indexed": true,
          "internalType": "address",
          "name": "newVal",
          "type": "address"
        }
      ],
      "name": "LeverageExecutorSet",
      "type": "event"
    },
    {
      "anonymous": false,
      "inputs": [
        {
          "indexed": true,
          "internalType": "address",
          "name": "liquidator",
          "type": "address"
        },
        {
          "indexed": true,
          "internalType": "address[]",
          "name": "users",
          "type": "address[]"
        },
        {
          "indexed": true,
          "internalType": "uint256",
          "name": "liquidatorReward",
          "type": "uint256"
        },
        {
          "indexed": false,
          "internalType": "uint256",
          "name": "protocolReward",
          "type": "uint256"
        },
        {
          "indexed": false,
          "internalType": "uint256",
          "name": "repayedAmount",
          "type": "uint256"
        },
        {
          "indexed": false,
          "internalType": "uint256",
          "name": "collateralShareRemoved",
          "type": "uint256"
        }
      ],
      "name": "Liquidated",
      "type": "event"
    },
    {
      "anonymous": false,
      "inputs": [
        {
          "indexed": true,
          "internalType": "uint256",
          "name": "oldVal",
          "type": "uint256"
        },
        {
          "indexed": true,
          "internalType": "uint256",
          "name": "newVal",
          "type": "uint256"
        }
      ],
      "name": "LiquidationMultiplierUpdated",
      "type": "event"
    },
    {
      "anonymous": false,
      "inputs": [
        {
          "indexed": true,
          "internalType": "uint256",
          "name": "accruedAmount",
          "type": "uint256"
        },
        {
          "indexed": true,
          "internalType": "uint64",
          "name": "rate",
          "type": "uint64"
        }
      ],
      "name": "LogAccrue",
      "type": "event"
    },
    {
      "anonymous": false,
      "inputs": [
        {
          "indexed": true,
          "internalType": "address",
          "name": "from",
          "type": "address"
        },
        {
          "indexed": true,
          "internalType": "address",
          "name": "to",
          "type": "address"
        },
        {
          "indexed": true,
          "internalType": "uint256",
          "name": "share",
          "type": "uint256"
        }
      ],
      "name": "LogAddCollateral",
      "type": "event"
    },
    {
      "anonymous": false,
      "inputs": [
        {
          "indexed": true,
          "internalType": "address",
          "name": "from",
          "type": "address"
        },
        {
          "indexed": true,
          "internalType": "address",
          "name": "to",
          "type": "address"
        },
        {
          "indexed": true,
          "internalType": "uint256",
          "name": "amount",
          "type": "uint256"
        },
        {
          "indexed": false,
          "internalType": "uint256",
          "name": "feeAmount",
          "type": "uint256"
        },
        {
          "indexed": false,
          "internalType": "uint256",
          "name": "part",
          "type": "uint256"
        }
      ],
      "name": "LogBorrow",
      "type": "event"
    },
    {
      "anonymous": false,
      "inputs": [
        {
          "indexed": true,
          "internalType": "uint256",
          "name": "_oldVal",
          "type": "uint256"
        },
        {
          "indexed": true,
          "internalType": "uint256",
          "name": "_newVal",
          "type": "uint256"
        }
      ],
      "name": "LogBorrowCapUpdated",
      "type": "event"
    },
    {
      "anonymous": false,
      "inputs": [
        {
          "indexed": true,
          "internalType": "uint256",
          "name": "rate",
          "type": "uint256"
        }
      ],
      "name": "LogExchangeRate",
      "type": "event"
    },
    {
      "anonymous": false,
      "inputs": [
        {
          "indexed": true,
          "internalType": "address",
          "name": "from",
          "type": "address"
        },
        {
          "indexed": true,
          "internalType": "address",
          "name": "to",
          "type": "address"
        },
        {
          "indexed": true,
          "internalType": "uint256",
          "name": "share",
          "type": "uint256"
        }
      ],
      "name": "LogRemoveCollateral",
      "type": "event"
    },
    {
      "anonymous": false,
      "inputs": [
        {
          "indexed": true,
          "internalType": "address",
          "name": "from",
          "type": "address"
        },
        {
          "indexed": true,
          "internalType": "address",
          "name": "to",
          "type": "address"
        },
        {
          "indexed": true,
          "internalType": "uint256",
          "name": "amount",
          "type": "uint256"
        },
        {
          "indexed": false,
          "internalType": "uint256",
          "name": "part",
          "type": "uint256"
        }
      ],
      "name": "LogRepay",
      "type": "event"
    },
    {
      "anonymous": false,
      "inputs": [
        {
          "indexed": true,
          "internalType": "uint256",
          "name": "oldVal",
          "type": "uint256"
        },
        {
          "indexed": true,
          "internalType": "uint256",
          "name": "newVal",
          "type": "uint256"
        }
      ],
      "name": "MaxDebtRateUpdated",
      "type": "event"
    },
    {
      "anonymous": false,
      "inputs": [
        {
          "indexed": true,
          "internalType": "uint256",
          "name": "oldVal",
          "type": "uint256"
        },
        {
          "indexed": true,
          "internalType": "uint256",
          "name": "newVal",
          "type": "uint256"
        }
      ],
      "name": "MinDebtRateUpdated",
      "type": "event"
    },
    {
      "anonymous": false,
      "inputs": [],
      "name": "OracleDataUpdated",
      "type": "event"
    },
    {
      "anonymous": false,
      "inputs": [],
      "name": "OracleUpdated",
      "type": "event"
    },
    {
      "anonymous": false,
      "inputs": [
        {
          "indexed": true,
          "internalType": "address",
          "name": "previousOwner",
          "type": "address"
        },
        {
          "indexed": true,
          "internalType": "address",
          "name": "newOwner",
          "type": "address"
        }
      ],
      "name": "OwnershipTransferred",
      "type": "event"
    },
    {
      "anonymous": false,
      "inputs": [
        {
          "indexed": true,
          "internalType": "enum Market.PauseType",
          "name": "_type",
          "type": "uint8"
        },
        {
          "indexed": true,
          "internalType": "bool",
          "name": "oldState",
          "type": "bool"
        },
        {
          "indexed": true,
          "internalType": "bool",
          "name": "newState",
          "type": "bool"
        }
      ],
      "name": "PausedUpdated",
      "type": "event"
    },
    {
      "anonymous": false,
      "inputs": [
        {
          "indexed": true,
          "internalType": "address",
          "name": "from",
          "type": "address"
        },
        {
          "indexed": true,
          "internalType": "address",
          "name": "to",
          "type": "address"
        },
        {
          "indexed": false,
          "internalType": "uint256",
          "name": "value",
          "type": "uint256"
        }
      ],
      "name": "Transfer",
      "type": "event"
    },
    {
      "anonymous": false,
      "inputs": [
        {
          "indexed": true,
          "internalType": "uint256",
          "name": "oldMin",
          "type": "uint256"
        },
        {
          "indexed": true,
          "internalType": "uint256",
          "name": "newMin",
          "type": "uint256"
        },
        {
          "indexed": true,
          "internalType": "uint256",
          "name": "oldMax",
          "type": "uint256"
        },
        {
          "indexed": false,
          "internalType": "uint256",
          "name": "newMax",
          "type": "uint256"
        }
      ],
      "name": "UpdateMinMaxMintFee",
      "type": "event"
    },
    {
      "anonymous": false,
      "inputs": [
        {
          "indexed": true,
          "internalType": "uint256",
          "name": "oldMin",
          "type": "uint256"
        },
        {
          "indexed": true,
          "internalType": "uint256",
          "name": "newMin",
          "type": "uint256"
        },
        {
          "indexed": true,
          "internalType": "uint256",
          "name": "oldMax",
          "type": "uint256"
        },
        {
          "indexed": false,
          "internalType": "uint256",
          "name": "newMax",
          "type": "uint256"
        }
      ],
      "name": "UpdateMinMaxMintRange",
      "type": "event"
    },
    {
      "inputs": [],
      "name": "DOMAIN_SEPARATOR",
      "outputs": [
        {
          "internalType": "bytes32",
          "name": "",
          "type": "bytes32"
        }
      ],
      "stateMutability": "view",
      "type": "function"
    },
    {
      "inputs": [],
      "name": "accrue",
      "outputs": [],
      "stateMutability": "nonpayable",
      "type": "function"
    },
    {
      "inputs": [],
      "name": "accrueInfo",
      "outputs": [
        {
          "internalType": "uint64",
          "name": "debtRate",
          "type": "uint64"
        },
        {
          "internalType": "uint64",
          "name": "lastAccrued",
          "type": "uint64"
        }
      ],
      "stateMutability": "view",
      "type": "function"
    },
    {
      "inputs": [
        {
          "internalType": "address",
          "name": "",
          "type": "address"
        },
        {
          "internalType": "address",
          "name": "",
          "type": "address"
        }
      ],
      "name": "allowance",
      "outputs": [
        {
          "internalType": "uint256",
          "name": "",
          "type": "uint256"
        }
      ],
      "stateMutability": "view",
      "type": "function"
    },
    {
      "inputs": [
        {
          "internalType": "address",
          "name": "",
          "type": "address"
        },
        {
          "internalType": "address",
          "name": "",
          "type": "address"
        }
      ],
      "name": "allowanceBorrow",
      "outputs": [
        {
          "internalType": "uint256",
          "name": "",
          "type": "uint256"
        }
      ],
      "stateMutability": "view",
      "type": "function"
    },
    {
      "inputs": [
        {
          "internalType": "address",
          "name": "spender",
          "type": "address"
        },
        {
          "internalType": "uint256",
          "name": "amount",
          "type": "uint256"
        }
      ],
      "name": "approve",
      "outputs": [
        {
          "internalType": "bool",
          "name": "",
          "type": "bool"
        }
      ],
      "stateMutability": "nonpayable",
      "type": "function"
    },
    {
      "inputs": [
        {
          "internalType": "address",
          "name": "spender",
          "type": "address"
        },
        {
          "internalType": "uint256",
          "name": "amount",
          "type": "uint256"
        }
      ],
      "name": "approveBorrow",
      "outputs": [
        {
          "internalType": "bool",
          "name": "",
          "type": "bool"
        }
      ],
      "stateMutability": "nonpayable",
      "type": "function"
    },
    {
      "inputs": [],
      "name": "asset",
      "outputs": [
        {
          "internalType": "contract IERC20",
          "name": "",
          "type": "address"
        }
      ],
      "stateMutability": "view",
      "type": "function"
    },
    {
      "inputs": [],
      "name": "assetId",
      "outputs": [
        {
          "internalType": "uint256",
          "name": "",
          "type": "uint256"
        }
      ],
      "stateMutability": "view",
      "type": "function"
    },
    {
      "inputs": [],
      "name": "assetOracle",
      "outputs": [
        {
          "internalType": "contract IOracle",
          "name": "",
          "type": "address"
        }
      ],
      "stateMutability": "view",
      "type": "function"
    },
    {
      "inputs": [],
      "name": "assetOracleData",
      "outputs": [
        {
          "internalType": "bytes",
          "name": "",
          "type": "bytes"
        }
      ],
      "stateMutability": "view",
      "type": "function"
    },
    {
      "inputs": [
        {
          "internalType": "address",
          "name": "",
          "type": "address"
        }
      ],
      "name": "balanceOf",
      "outputs": [
        {
          "internalType": "uint256",
          "name": "",
          "type": "uint256"
        }
      ],
      "stateMutability": "view",
      "type": "function"
    },
    {
      "inputs": [
        {
          "internalType": "address",
          "name": "from",
          "type": "address"
        },
        {
          "internalType": "uint256",
          "name": "borrowAmount",
          "type": "uint256"
        },
        {
          "internalType": "uint256",
          "name": "supplyAmount",
          "type": "uint256"
        },
        {
          "internalType": "bytes",
          "name": "data",
          "type": "bytes"
        }
      ],
      "name": "buyCollateral",
      "outputs": [
        {
          "internalType": "uint256",
          "name": "amountOut",
          "type": "uint256"
        }
      ],
      "stateMutability": "nonpayable",
      "type": "function"
    },
    {
      "inputs": [],
      "name": "callerFee",
      "outputs": [
        {
          "internalType": "uint256",
          "name": "",
          "type": "uint256"
        }
      ],
      "stateMutability": "view",
      "type": "function"
    },
    {
      "inputs": [],
      "name": "claimOwnership",
      "outputs": [],
      "stateMutability": "nonpayable",
      "type": "function"
    },
    {
      "inputs": [],
      "name": "collateral",
      "outputs": [
        {
          "internalType": "contract IERC20",
          "name": "",
          "type": "address"
        }
      ],
      "stateMutability": "view",
      "type": "function"
    },
    {
      "inputs": [],
      "name": "collateralId",
      "outputs": [
        {
          "internalType": "uint256",
          "name": "",
          "type": "uint256"
        }
      ],
      "stateMutability": "view",
      "type": "function"
    },
    {
      "inputs": [],
      "name": "collateralizationRate",
      "outputs": [
        {
          "internalType": "uint256",
          "name": "",
          "type": "uint256"
        }
      ],
      "stateMutability": "view",
      "type": "function"
    },
    {
      "inputs": [
        {
          "internalType": "uint256",
          "name": "borrowPart",
          "type": "uint256"
        },
        {
          "internalType": "uint256",
          "name": "collateralPartInAsset",
          "type": "uint256"
        },
        {
          "internalType": "uint256",
          "name": "ratesPrecision",
          "type": "uint256"
        }
      ],
      "name": "computeClosingFactor",
      "outputs": [
        {
          "internalType": "uint256",
          "name": "",
          "type": "uint256"
        }
      ],
      "stateMutability": "view",
      "type": "function"
    },
    {
      "inputs": [
        {
          "internalType": "address",
          "name": "user",
          "type": "address"
        },
        {
          "internalType": "uint256",
          "name": "_exchangeRate",
          "type": "uint256"
        }
      ],
      "name": "computeLiquidatorReward",
      "outputs": [
        {
          "internalType": "uint256",
          "name": "",
          "type": "uint256"
        }
      ],
      "stateMutability": "view",
      "type": "function"
    },
    {
      "inputs": [
        {
          "internalType": "address",
          "name": "user",
          "type": "address"
        },
        {
          "internalType": "uint256",
          "name": "_exchangeRate",
          "type": "uint256"
        }
      ],
      "name": "computeTVLInfo",
      "outputs": [
        {
          "internalType": "uint256",
          "name": "amountToSolvency",
          "type": "uint256"
        },
        {
          "internalType": "uint256",
          "name": "minTVL",
          "type": "uint256"
        },
        {
          "internalType": "uint256",
          "name": "maxTVL",
          "type": "uint256"
        }
      ],
      "stateMutability": "view",
      "type": "function"
    },
    {
      "inputs": [],
      "name": "conservator",
      "outputs": [
        {
          "internalType": "address",
          "name": "",
          "type": "address"
        }
      ],
      "stateMutability": "view",
      "type": "function"
    },
    {
      "inputs": [],
      "name": "debtRateAgainstEthMarket",
      "outputs": [
        {
          "internalType": "uint256",
          "name": "",
          "type": "uint256"
        }
      ],
      "stateMutability": "view",
      "type": "function"
    },
    {
      "inputs": [],
      "name": "debtStartPoint",
      "outputs": [
        {
          "internalType": "uint256",
          "name": "",
          "type": "uint256"
        }
      ],
      "stateMutability": "view",
      "type": "function"
    },
    {
      "inputs": [],
      "name": "exchangeRate",
      "outputs": [
        {
          "internalType": "uint256",
          "name": "",
          "type": "uint256"
        }
      ],
      "stateMutability": "view",
      "type": "function"
    },
    {
      "inputs": [],
      "name": "getDebtRate",
      "outputs": [
        {
          "internalType": "uint256",
          "name": "",
          "type": "uint256"
        }
      ],
      "stateMutability": "view",
      "type": "function"
    },
    {
      "inputs": [],
      "name": "getTotalDebt",
      "outputs": [
        {
          "internalType": "uint256",
          "name": "",
          "type": "uint256"
        }
      ],
      "stateMutability": "view",
      "type": "function"
    },
    {
      "inputs": [],
      "name": "isMainMarket",
      "outputs": [
        {
          "internalType": "bool",
          "name": "",
          "type": "bool"
        }
      ],
      "stateMutability": "view",
      "type": "function"
    },
    {
      "inputs": [],
      "name": "leverageExecutor",
      "outputs": [
        {
          "internalType": "contract ILeverageExecutor",
          "name": "",
          "type": "address"
        }
      ],
      "stateMutability": "view",
      "type": "function"
    },
    {
      "inputs": [],
      "name": "liquidationBonusAmount",
      "outputs": [
        {
          "internalType": "uint256",
          "name": "",
          "type": "uint256"
        }
      ],
      "stateMutability": "view",
      "type": "function"
    },
    {
      "inputs": [],
      "name": "liquidationCollateralizationRate",
      "outputs": [
        {
          "internalType": "uint256",
          "name": "",
          "type": "uint256"
        }
      ],
      "stateMutability": "view",
      "type": "function"
    },
    {
      "inputs": [],
      "name": "liquidationMultiplier",
      "outputs": [
        {
          "internalType": "uint256",
          "name": "",
          "type": "uint256"
        }
      ],
      "stateMutability": "view",
      "type": "function"
    },
    {
      "inputs": [],
      "name": "maxDebtRate",
      "outputs": [
        {
          "internalType": "uint256",
          "name": "",
          "type": "uint256"
        }
      ],
      "stateMutability": "view",
      "type": "function"
    },
    {
      "inputs": [],
      "name": "maxLiquidatorReward",
      "outputs": [
        {
          "internalType": "uint256",
          "name": "",
          "type": "uint256"
        }
      ],
      "stateMutability": "view",
      "type": "function"
    },
    {
      "inputs": [],
      "name": "maxMintFee",
      "outputs": [
        {
          "internalType": "uint256",
          "name": "",
          "type": "uint256"
        }
      ],
      "stateMutability": "view",
      "type": "function"
    },
    {
      "inputs": [],
      "name": "maxMintFeeStart",
      "outputs": [
        {
          "internalType": "uint256",
          "name": "",
          "type": "uint256"
        }
      ],
      "stateMutability": "view",
      "type": "function"
    },
    {
      "inputs": [],
      "name": "minDebtRate",
      "outputs": [
        {
          "internalType": "uint256",
          "name": "",
          "type": "uint256"
        }
      ],
      "stateMutability": "view",
      "type": "function"
    },
    {
      "inputs": [],
      "name": "minLiquidatorReward",
      "outputs": [
        {
          "internalType": "uint256",
          "name": "",
          "type": "uint256"
        }
      ],
      "stateMutability": "view",
      "type": "function"
    },
    {
      "inputs": [],
      "name": "minMintFee",
      "outputs": [
        {
          "internalType": "uint256",
          "name": "",
          "type": "uint256"
        }
      ],
      "stateMutability": "view",
      "type": "function"
    },
    {
      "inputs": [],
      "name": "minMintFeeStart",
      "outputs": [
        {
          "internalType": "uint256",
          "name": "",
          "type": "uint256"
        }
      ],
      "stateMutability": "view",
      "type": "function"
    },
    {
      "inputs": [
        {
          "internalType": "address",
          "name": "owner",
          "type": "address"
        }
      ],
      "name": "nonces",
      "outputs": [
        {
          "internalType": "uint256",
          "name": "",
          "type": "uint256"
        }
      ],
      "stateMutability": "view",
      "type": "function"
    },
    {
      "inputs": [
        {
          "internalType": "address",
          "name": "user",
          "type": "address"
        }
      ],
      "name": "openingFees",
      "outputs": [
        {
          "internalType": "uint256",
          "name": "fee",
          "type": "uint256"
        }
      ],
      "stateMutability": "view",
      "type": "function"
    },
    {
      "inputs": [],
      "name": "oracle",
      "outputs": [
        {
          "internalType": "contract IOracle",
          "name": "",
          "type": "address"
        }
      ],
      "stateMutability": "view",
      "type": "function"
    },
    {
      "inputs": [],
      "name": "oracleData",
      "outputs": [
        {
          "internalType": "bytes",
          "name": "",
          "type": "bytes"
        }
      ],
      "stateMutability": "view",
      "type": "function"
    },
    {
      "inputs": [],
      "name": "owner",
      "outputs": [
        {
          "internalType": "address",
          "name": "",
          "type": "address"
        }
      ],
      "stateMutability": "view",
      "type": "function"
    },
    {
      "inputs": [
        {
          "internalType": "enum Market.PauseType",
          "name": "pauseProp",
          "type": "uint8"
        }
      ],
      "name": "pauseOptions",
      "outputs": [
        {
          "internalType": "bool",
          "name": "pauseStatus",
          "type": "bool"
        }
      ],
      "stateMutability": "view",
      "type": "function"
    },
    {
      "inputs": [],
      "name": "pendingOwner",
      "outputs": [
        {
          "internalType": "address",
          "name": "",
          "type": "address"
        }
      ],
      "stateMutability": "view",
      "type": "function"
    },
    {
      "inputs": [],
      "name": "penrose",
      "outputs": [
        {
          "internalType": "contract IPenrose",
          "name": "",
          "type": "address"
        }
      ],
      "stateMutability": "view",
      "type": "function"
    },
    {
      "inputs": [
        {
          "internalType": "address",
          "name": "owner",
          "type": "address"
        },
        {
          "internalType": "address",
          "name": "spender",
          "type": "address"
        },
        {
          "internalType": "uint256",
          "name": "value",
          "type": "uint256"
        },
        {
          "internalType": "uint256",
          "name": "deadline",
          "type": "uint256"
        },
        {
          "internalType": "uint8",
          "name": "v",
          "type": "uint8"
        },
        {
          "internalType": "bytes32",
          "name": "r",
          "type": "bytes32"
        },
        {
          "internalType": "bytes32",
          "name": "s",
          "type": "bytes32"
        }
      ],
      "name": "permit",
      "outputs": [],
      "stateMutability": "nonpayable",
      "type": "function"
    },
    {
      "inputs": [
        {
          "internalType": "bytes",
          "name": "data",
          "type": "bytes"
        },
        {
          "internalType": "uint16",
          "name": "actionType",
          "type": "uint16"
        }
      ],
      "name": "permitAction",
      "outputs": [],
      "stateMutability": "nonpayable",
      "type": "function"
    },
    {
      "inputs": [
        {
          "internalType": "address",
          "name": "owner",
          "type": "address"
        },
        {
          "internalType": "address",
          "name": "spender",
          "type": "address"
        },
        {
          "internalType": "uint256",
          "name": "value",
          "type": "uint256"
        },
        {
          "internalType": "uint256",
          "name": "deadline",
          "type": "uint256"
        },
        {
          "internalType": "uint8",
          "name": "v",
          "type": "uint8"
        },
        {
          "internalType": "bytes32",
          "name": "r",
          "type": "bytes32"
        },
        {
          "internalType": "bytes32",
          "name": "s",
          "type": "bytes32"
        }
      ],
      "name": "permitBorrow",
      "outputs": [],
      "stateMutability": "nonpayable",
      "type": "function"
    },
    {
      "inputs": [],
      "name": "protocolFee",
      "outputs": [
        {
          "internalType": "uint256",
          "name": "",
          "type": "uint256"
        }
      ],
      "stateMutability": "view",
      "type": "function"
    },
    {
      "inputs": [],
      "name": "rateTimestamp",
      "outputs": [
        {
          "internalType": "uint256",
          "name": "",
          "type": "uint256"
        }
      ],
      "stateMutability": "view",
      "type": "function"
    },
    {
      "inputs": [],
      "name": "rateValidDuration",
      "outputs": [
        {
          "internalType": "uint256",
          "name": "",
          "type": "uint256"
        }
      ],
      "stateMutability": "view",
      "type": "function"
    },
    {
      "inputs": [
        {
          "internalType": "address",
          "name": "from",
          "type": "address"
        },
        {
          "internalType": "uint256",
          "name": "share",
          "type": "uint256"
        },
        {
          "internalType": "bytes",
          "name": "data",
          "type": "bytes"
        }
      ],
      "name": "sellCollateral",
      "outputs": [
        {
          "internalType": "uint256",
          "name": "amountOut",
          "type": "uint256"
        }
      ],
      "stateMutability": "nonpayable",
      "type": "function"
    },
    {
      "inputs": [
        {
          "internalType": "contract ILeverageExecutor",
          "name": "_executor",
          "type": "address"
        }
      ],
      "name": "setLeverageExecutor",
      "outputs": [],
      "stateMutability": "nonpayable",
      "type": "function"
    },
    {
      "inputs": [
        {
          "internalType": "contract IOracle",
          "name": "_oracle",
          "type": "address"
        },
        {
          "internalType": "bytes",
          "name": "_oracleData",
          "type": "bytes"
        },
        {
          "internalType": "address",
          "name": "_conservator",
          "type": "address"
        },
        {
          "internalType": "uint256",
          "name": "_callerFee",
          "type": "uint256"
        },
        {
          "internalType": "uint256",
          "name": "_protocolFee",
          "type": "uint256"
        },
        {
          "internalType": "uint256",
          "name": "_liquidationBonusAmount",
          "type": "uint256"
        },
        {
          "internalType": "uint256",
          "name": "_minLiquidatorReward",
          "type": "uint256"
        },
        {
          "internalType": "uint256",
          "name": "_maxLiquidatorReward",
          "type": "uint256"
        },
        {
          "internalType": "uint256",
          "name": "_totalBorrowCap",
          "type": "uint256"
        },
        {
          "internalType": "uint256",
          "name": "_collateralizationRate",
          "type": "uint256"
        },
        {
          "internalType": "uint256",
          "name": "_liquidationCollateralizationRate",
          "type": "uint256"
        }
      ],
      "name": "setMarketConfig",
      "outputs": [],
      "stateMutability": "nonpayable",
      "type": "function"
    },
    {
      "inputs": [],
      "name": "totalBorrow",
      "outputs": [
        {
          "internalType": "uint128",
          "name": "elastic",
          "type": "uint128"
        },
        {
          "internalType": "uint128",
          "name": "base",
          "type": "uint128"
        }
      ],
      "stateMutability": "view",
      "type": "function"
    },
    {
      "inputs": [],
      "name": "totalBorrowCap",
      "outputs": [
        {
          "internalType": "uint256",
          "name": "",
          "type": "uint256"
        }
      ],
      "stateMutability": "view",
      "type": "function"
    },
    {
      "inputs": [],
      "name": "totalCollateralShare",
      "outputs": [
        {
          "internalType": "uint256",
          "name": "",
          "type": "uint256"
        }
      ],
      "stateMutability": "view",
      "type": "function"
    },
    {
      "inputs": [],
      "name": "totalSupply",
      "outputs": [
        {
          "internalType": "uint256",
          "name": "",
          "type": "uint256"
        }
      ],
      "stateMutability": "view",
      "type": "function"
    },
    {
      "inputs": [
        {
          "internalType": "address",
          "name": "to",
          "type": "address"
        },
        {
          "internalType": "uint256",
          "name": "amount",
          "type": "uint256"
        }
      ],
      "name": "transfer",
      "outputs": [
        {
          "internalType": "bool",
          "name": "",
          "type": "bool"
        }
      ],
      "stateMutability": "nonpayable",
      "type": "function"
    },
    {
      "inputs": [
        {
          "internalType": "address",
          "name": "from",
          "type": "address"
        },
        {
          "internalType": "address",
          "name": "to",
          "type": "address"
        },
        {
          "internalType": "uint256",
          "name": "amount",
          "type": "uint256"
        }
      ],
      "name": "transferFrom",
      "outputs": [
        {
          "internalType": "bool",
          "name": "",
          "type": "bool"
        }
      ],
      "stateMutability": "nonpayable",
      "type": "function"
    },
    {
      "inputs": [
        {
          "internalType": "address",
          "name": "newOwner",
          "type": "address"
        },
        {
          "internalType": "bool",
          "name": "direct",
          "type": "bool"
        },
        {
          "internalType": "bool",
          "name": "renounce",
          "type": "bool"
        }
      ],
      "name": "transferOwnership",
      "outputs": [],
      "stateMutability": "nonpayable",
      "type": "function"
    },
    {
      "inputs": [],
      "name": "updateExchangeRate",
      "outputs": [
        {
          "internalType": "bool",
          "name": "updated",
          "type": "bool"
        },
        {
          "internalType": "uint256",
          "name": "rate",
          "type": "uint256"
        }
      ],
      "stateMutability": "nonpayable",
      "type": "function"
    },
    {
      "inputs": [
        {
          "internalType": "enum Market.PauseType",
          "name": "_type",
          "type": "uint8"
        },
        {
          "internalType": "bool",
          "name": "val",
          "type": "bool"
        }
      ],
      "name": "updatePause",
      "outputs": [],
      "stateMutability": "nonpayable",
      "type": "function"
    },
    {
      "inputs": [
        {
          "internalType": "address",
          "name": "",
          "type": "address"
        }
      ],
      "name": "userBorrowPart",
      "outputs": [
        {
          "internalType": "uint256",
          "name": "",
          "type": "uint256"
        }
      ],
      "stateMutability": "view",
      "type": "function"
    },
    {
      "inputs": [
        {
          "internalType": "address",
          "name": "",
          "type": "address"
        }
      ],
      "name": "userCollateralShare",
      "outputs": [
        {
          "internalType": "uint256",
          "name": "",
          "type": "uint256"
        }
      ],
      "stateMutability": "view",
      "type": "function"
    },
    {
      "inputs": [],
      "name": "yieldBox",
      "outputs": [
        {
          "internalType": "contract YieldBox",
          "name": "",
          "type": "address"
        }
      ],
      "stateMutability": "view",
      "type": "function"
    }
  ],
  "bytecode": "0x61014080604052346200018f57620000178162000194565b600f81526001602082016e546170696f63612042696742616e6760881b81526020604051620000468162000194565b8381520192603160f81b845251902091208160e052610100918183524660a0526040519160208301907f8b73c3c69bb8fe3d512ecc4cf759cc79239f7b179b0ffacaa9a75d522b39400f92838352604085015260608401524660808401523060a084015260a0835260c083019280841060018060401b03851117620001795760408490525190206080523060c052610120908152600580546001600160a01b0319163390811790915560007f8be0079c531659141344cd1fd0a4f28419497f9722a3daafe3b4186f6b6457e08180a362013880601b5562015f90601c55612710601d55612ee06020556000602d556103e8602e556143ee9283620001b184396080518361333d015260a05183613408015260c05183613307015260e0518361338c015251826133b2015251816133690152f35b634e487b7160e01b600052604160045260246000fd5b600080fd5b604081019081106001600160401b03821117620001795760405256fe608080604052600436101561001357600080fd5b60009060e08235811c918262a02a20146128dd5750816302ce728f146128b4578163078dfbe7146127b1578163095ea7b31461278a5781630c4e84f0146126725781630f8b29ea1461265457816318160ddd146126385781631c9e379b146125ff5781631d4d3a5d146125d65781631da8bf10146125205781631fb8f81a1461250257816323b872dd14612365578163331960ff1461234757816334ce998a1461231e57816334d441d0146123005781633644e515146122e557816337b6b7b9146122c757816338d52e0f1461229e5781633ba0b9a9146122805781633f741adb1461225b57816340626d8b1461223d57816344de240a1461221f578163473e3ce71461220157816348e4163e146121c85781634e71e0c81461211a578163529898f2146120fd578163542afda3146120df57816357935462146120c15781636b19ad16146120a35781636c3d8b8f1461207a57816370a0823114612041578163727785471461200957816374645ff314611f7857816374c9e48114611f5a578163790c846714611f3c5781637dc0d1d014611f135781637ecebe0014611eda5781637fa0b84e14611ea85781638285ef4014611e7657816387b2793714611e3d5781638c5d0ed314611e1f5781638da5cb5b14611df6578163910dd7c814611b7c578163932bc4f814611aa057816399a9702814611a785781639e15e89f14611a3d578163a9059cbb1461195a578163b0e21e8a1461193c578163b27c0e741461190b578163b7113f19146118e8578163bb4cfe3b146118ca578163bde39c5d146118ac578163c1ad5c8d14611891578163ce8849ed14611868578163d3fb2a3814611414578163d4e4534e14610ba2578163d505accf14610a1757508063d8dfeb45146109ee578063da863f0e146109c5578063dd62ed3e14610976578063de4065771461094d578063e0996cb61461092f578063e30c397814610906578063e7d6de8014610408578063ea64dd56146103ea578063eec0f42e146103cc578063ef2b234a14610355578063f791395d146103375763f8ba4cff1461031957600080fd5b346103345780600319360112610334576103316139c1565b80f35b80fd5b50346103345780600319360112610334576020602854604051908152f35b5034610334576020366003190112610334576004356001600160a01b03818116918290036103c85761038c81600554163314612b45565b816021549182167ffb4fd7114609dd603b57adbc2082205bfbbcabf9265c4b437b472f5c592b8cd78580a36001600160a01b0319161760215580f35b8280fd5b50346103345780600319360112610334576020600c54604051908152f35b50346103345780600319360112610334576020601f54604051908152f35b503461033457606036600319011261033457610422612925565b602435906044356001600160401b0381116108f057610445903690600401612b18565b600660005260076020527f55c5b153ab560fcde54a63b18c7f53d75501706907cef8767fbded79ab9997c75461047e9060ff1615613ac1565b610486612f77565b50506104906139c1565b6104a56001600160a01b038416301415613b3e565b6021546001600160a01b0316156108f4576104c08484613d16565b6001600160a01b038316855260186020526040852080546104e2908690612c27565b90556104f084601554612c27565b601555604051859085306001600160a01b0387167f8ad4d3ff00da092c7ad9a573ea4f5f6a3dffc6712dc06d3f78f49b862297c4028580a460018060a01b0360095416600c54813b156108f057630208d92960e11b83523060048401819052602484015260448301526064820187905282908290608490829084905af180156108e5576108cd575b5050600954600c54602154604080516311a5cc7760e31b815297909388936001600160a01b039182169385938c9385936105bb9390911690309060048601613b9f565b03925af193841561088f57859461089a575b50602060018060a01b0360095416946064600c54604051978893849263442c159960e01b8452600484015260248301528960448301525afa93841561088f578594610858575b50602154600e54600b54600d54604051630fb5d60d60e01b81529760209689966001600160a01b039687169688968d96889661065f969495948e94909391811692169060048901613bce565b03925af1918215610819578392610824575b5060018060a01b0360095416600e549360405191638eb22cdd60e01b95868452806004850152856024850152826044850152602084606481855afa9384156108195783946107e4575b5060209060018060a01b03861684526017825260646040852054986106e68a6106e16138ee565b613f2c565b946040519586948593845260048401526024830152600160448301525afa9182156107d8579161079a575b5060209461073f9361073a939092116107475761072f908280613f8a565b505b60115490613c25565b613afe565b604051908152f35b506107506138ee565b80516001600160801b0390811661077557505061076f845b8280613f8a565b50610731565b818161078c610795938a61076f9601511689612bd0565b91511690612bf9565b610768565b919290506020823d6020116107d0575b816107b760209383612a93565b810103126107cb5790519091906020610711565b600080fd5b3d91506107aa565b604051903d90823e3d90fd5b9093506020813d602011610811575b8161080060209383612a93565b810103126107cb57519260206106ba565b3d91506107f3565b6040513d85823e3d90fd5b9091506020813d602011610850575b8161084060209383612a93565b810103126107cb57519038610671565b3d9150610833565b919093506020823d602011610887575b8161087560209383612a93565b810103126107cb579051926020610613565b3d9150610868565b6040513d87823e3d90fd5b6108bd91945060403d6040116108c6575b6108b58183612a93565b810190613b89565b905092386105cd565b503d6108ab565b6108d690612a18565b6108e1578438610578565b8480fd5b6040513d84823e3d90fd5b8380fd5b6040516317ca80f360e11b8152600490fd5b50346103345780600319360112610334576006546040516001600160a01b039091168152602090f35b50346103345780600319360112610334576020601d54604051908152f35b50346103345780600319360112610334576009546040516001600160a01b039091168152602090f35b503461033457604036600319011261033457610990612925565b604061099a61293b565b9260018060a01b03809316815260026020522091166000526020526020604060002054604051908152f35b50346103345780600319360112610334576021546040516001600160a01b039091168152602090f35b5034610334578060031936011261033457600b546040516001600160a01b039091168152602090f35b905034610b9e57610a2736612960565b83949697939291924211610b5957610b0592610afd9260018060a01b0395868b1697886000526004602052604060002091825492610a648461365e565b90556040519160208301937f9cc5629bbe7baa98a89f6f8c2c396b83ab62dbb6cbb12f17f1d6ba7e6f53e2668552600060408501528b60608501528a8d1660808501528d60a085015260c0840152818301528152610ac181612a5c565b519020610acc613304565b9060405190602082019261190160f01b84526022830152604282015260428152610af581612a78565b5190206135d9565b9190916134da565b1603610b1457610331926136bb565b60405162461bcd60e51b815260206004820152601e60248201527f45524332305065726d69743a20696e76616c6964207369676e617475726500006044820152606490fd5b60405162461bcd60e51b815260206004820152601d60248201527f45524332305065726d69743a206578706972656420646561646c696e650000006044820152606490fd5b5080fd5b823461033457608036600319011261033457610bbc612925565b6064356001600160401b0381116103c857610bdb903690600401612b18565b600584939293526007602052610bf860ff60408620541615613ac1565b610c00612f77565b5050610c0a6139c1565b610c1f6001600160a01b038316301415613b3e565b6021546001600160a01b03169081156108f457600954600e54604051638eb22cdd60e01b815260048101829052604480356024830152600190820152909390916001600160a01b0316602083606481845afa9283156114095788936113d1575b50858880968561136d575b505050505050610c9b602435613dfc565b308652602460205260408620610cb2828254612c34565b9055610cbc6138ee565b610cc882602435612c34565b90876020604051610cd881612a41565b828152015280516001600160801b039081166113115780610cff81855b1682855116613914565b1682526020820191610d1682851683855116613914565b8281169093525160809290921b6001600160801b031916911690811760145560165490811580159081611307575b156112c9576112aa575b50506001600160a01b03851687526017602052604087208054610d72908390612c34565b905560405191825260208201526024359030907f3a5151e57d3bc9798e7853034ac52293d1a0e12a2b44725e75b03b21f86477a6604060018060a01b03881692a4600d546001600160a01b0316803b15611289576040516340c10f1960e01b815230600482015260248035908201529086908290604490829084905af180156111e457611295575b50600d54600e5460095460405163095ea7b360e01b81526001600160a01b039182166004820152602481018990528895949390911660208260448189855af19182156111e457869261124e575b5060095460405163095ea7b360e01b81526001600160a01b0390911660048201526024803590820152916020918391829081604481015b03925af1801561088f5761120e575b5060095460408051634d4d7cbd60e11b815295909286926001600160a01b03169183918290610ec790602435903090819060048601613dcd565b03925af19283156111e457610f1a9360409188916111ef575b50600954600e5460215484516311a5cc7760e31b81529788946001600160a01b039485169486948e94869493921690309060048601613b9f565b03925af180156111e45760209387916111c4575b50602154600c54600d54600b546001600160a01b0390811696938116959116938a93610f7d9291610f5e91612c34565b99896040519b8c998a9889976332642b4760e21b895260048901613bce565b03925af1918215610819578392611190575b5060018060a01b03600954166020600c54606460405180948193638eb22cdd60e01b835260048301528760248301528860448301525afa90811561115357849161115e575b50610fdf8183613d16565b80156110d6575b6001600160a01b03821684526018602052604084208054611008908390612c34565b905561101681601554612c34565b601555600c546009546001600160a01b0316908590823b15610b9e57604051630208d92960e11b81526001600160a01b0386166004820152306024820152604481019190915260648101849052918290608490829084905af1801561088f576110c2575b5060209361073f9261073a9290916001600160a01b0383169081907f9ed03113de523cebfe5e49d5f8e12894b1c0d42ce805990461726444c90eab879080a460115490613c25565b6110cc8591612a18565b6108f0578461107a565b5060018060a01b03600954166020600c54606460405180948193638eb22cdd60e01b835260048301528860248301528860448301525afa908115611153578491611121575b50610fe6565b90506020813d60201161114b575b8161113c60209383612a93565b810103126107cb57518461111b565b3d915061112f565b6040513d86823e3d90fd5b90506020813d602011611188575b8161117960209383612a93565b810103126107cb575184610fd4565b3d915061116c565b9091506020813d6020116111bc575b816111ac60209383612a93565b810103126107cb57519083610f8f565b3d915061119f565b6111dd915060403d6040116108c6576108b58183612a93565b5087610f2e565b6040513d88823e3d90fd5b6112069150823d84116108c6576108b58183612a93565b905088610ee0565b6020813d602011611246575b8161122760209383612a93565b810103126108e15760409161123e610ec792612eb2565b509150610e8d565b3d915061121a565b91506020823d60201161128d575b8161126960209383612a93565b8101031261128957610e7e6020916112818894612eb2565b509150610e47565b8580fd5b3d915061125c565b6112a29095919295612a18565b939085610dfa565b11156112b7578780610d4e565b6040516353977d1f60e01b8152600490fd5b60405162461bcd60e51b815260206004820152601660248201527510908e88189bdc9c9bddc818d85c081c995858da195960521b6044820152606490fd5b5082821115610d44565b60208201928061134361133461132a8588511684612bd0565b8587511690612bf9565b958461078c8188511689612bd0565b10611354575b610cff828092610cf5565b92610cff82611363819361365e565b9592505050611349565b6040959697506113928651978896879586946311a5cc7760e31b865260048601613b9f565b03925af190811561088f5785916113b1575b5090858080858882610c8a565b6113ca915060403d6040116108c6576108b58183612a93565b50856113a4565b9092506020813d602011611401575b816113ed60209383612a93565b810103126113fd57519188610c7f565b8780fd5b3d91506113e0565b6040513d8a823e3d90fd5b823461033457610160366003190112610334576001600160a01b039060043582811690819003610b9e576001600160401b03926024358481116108f05761145f903690600401612b18565b9094604435938385168095036112895761147e84600554163314612b45565b8061182a575b50816116d1575b50509080929350611691575b505060643580611679575b5060843580611661575b5060a4358061164a575b5060c43580611626575b5060e43580611602575b5061010435806115d1575b50610124358061155d575b5061014435806114ee575080f35b601e5481106114fd57601f5580f35b60405162461bcd60e51b815260206004820152603260248201527f4d61726b65743a206c69717569646174696f6e436f6c6c61746572616c697a616044820152711d1a5bdb94985d19481d1bdbc81cdb585b1b60721b6064820152608490fd5b61156c620186a0821115612b90565b601f54811161157e57601e55816114e0565b60405162461bcd60e51b815260206004820152602560248201527f4d61726b65743a20636f6c6c61746572616c697a6174696f6e5261746520746f6044820152646f2062696760d81b6064820152608490fd5b806016547fae6e0ab3b95f0a53ff9660a390ccedcbbf1f2355dce974a9841af106fddcfaba8480a3601655816114d5565b611610620186a08210612b90565b61161d601b548211612b90565b601c55816114ca565b611634620186a08210612b90565b611641601c548210612b90565b601b55816114c0565b611658620186a08210612b90565b601d55816114b6565b611670620186a0821115612b90565b601a55816114ac565b611688620186a0821115612b90565b601955816114a2565b816008549182167f5a62d22209e370e38eea92cfddcd228e656e6ec139243392a760a7769f5877fd8580a36001600160a01b031916176008558180611497565b8111611816576116e26010546129de565b601f81116117c7575b5083601f82116001146117535784958293949592611748575b50508160011b916000199060031b1c1916176010555b7fa6f004921c944d4b8bf6e38462b00f36a58d62495d56b51f571ab78f732c98158380a1908291848061148b565b013590508580611704565b60108552601f19821695600080516020614399833981519152918660205b8982106117af5750508360019596979810611795575b505050811b0160105561171a565b0135600019600384901b60f8161c19169055858080611787565b80600184968294958701358155019501920190611771565b60108552600080516020614399833981519152601f830160051c81016020841061180f575b601f90920160051c01905b81811061180457506116eb565b8581556001016117f7565b50806117ec565b634e487b7160e01b84526041600452602484fd5b600f80546001600160a01b0319169190911790557f0b2d6eb667d0522c3eb86e4288afecae6c11591ffd1345d4d12407e0598bca9b8580a186611484565b82346103345780600319360112610334576008546040516001600160a01b039091168152602090f35b8234610334578060031936011261033457602061073f613712565b82346103345780600319360112610334576020602954604051908152f35b82346103345780600319360112610334576020601e54604051908152f35b8234610334578060031936011261033457602060ff602654166040519015158152f35b823461033457806003193601126103345760406025548151906001600160401b03908181168352831c166020820152f35b82346103345780600319360112610334576020601a54604051908152f35b823461033457604036600319011261033457611974612925565b60243580928115801590611a2b575b6119bb575b50506040519182526001600160a01b031690339060008051602061437983398151915290602090a3602060405160018152f35b338152600160205260408120546119d48382101561342e565b6001600160a01b03841690338290036119ef575b5050611988565b604093611a0691611a01841515613473565b612c27565b338352600160205283832055815220611a20838254612c34565b9055818380806119e8565b50336001600160a01b03841614611983565b8234610334576040366003190112610334576060611a65611a5c612925565b60243590612d73565b9060405192835260208301526040820152f35b823461033457604036600319011261033457602061073f611a97612925565b602435906131d2565b823461033457806003193601126103345760405181602c54611ac1816129de565b80845290600190818116908115611b545750600114611afb575b611af784611aeb81880382612a93565b60405191829182612ab4565b0390f35b602c8352602094507f7416c943b4a09859521022fd2e90eac0dd9026dad28fa317782a135f28a860915b828410611b415750505081611af793611aeb9282010193611adb565b8054858501870152928501928101611b25565b611af79650611aeb9450602092508593915060ff191682840152151560051b82010193611adb565b905034610b9e576040366003190112610b9e576004356001600160401b0381116103c857366023820112156103c857806004013590611bba82612afd565b92611bc86040519485612a93565b828452846020928386019436602482840101116103c8578060248693018737860101526024359161ffff831680930361128957610100938486805181010312611df257611c1490612eb2565b91611c21604087016134b8565b90611c2e606088016134b8565b9660808101519660a082015192611c4760c084016134cc565b91818401519301519360018060a01b03808097169b1698814211611dad57928b88819897948f94610afd978f8f8f89604091611d249e9b50600014611d86577f9cc5629bbe7baa98a89f6f8c2c396b83ab62dbb6cbb12f17f1d6ba7e6f53e266985b8152600488522092835493611cbd8561365e565b905560405196870197885260408701528d6060870152608086015260a085015260c0840152818301528152611cf181612a5c565b519020611cfc613304565b90604051908a82019261190160f01b84526022830152604282015260428152610af581612a78565b1603611d42575015611d3957610331926136bb565b6103319261366d565b6064906040519062461bcd60e51b82526004820152601e60248201527f45524332305065726d69743a20696e76616c6964207369676e617475726500006044820152fd5b7f5c9ba5f0d101616843d7918f48ea857d6da95e04ac6d719e105e50a355e7c5d698611ca9565b60405162461bcd60e51b815260048101899052601d60248201527f45524332305065726d69743a206578706972656420646561646c696e650000006044820152606490fd5b8680fd5b82346103345780600319360112610334576005546040516001600160a01b039091168152602090f35b82346103345780600319360112610334576020601b54604051908152f35b8234610334576020366003190112610334576020906040906001600160a01b03611e65612925565b168152602483522054604051908152f35b8234610334578060031936011261033457601454604080516001600160801b038316815260809290921c602083015290f35b823461033457604036600319011261033457611ecf611ec5612925565b602435903361366d565b602060405160018152f35b8234610334576020366003190112610334576020906040906001600160a01b03611f02612925565b168152600483522054604051908152f35b8234610334578060031936011261033457600f546040516001600160a01b039091168152602090f35b82346103345780600319360112610334576020603054604051908152f35b82346103345780600319360112610334576020602e54604051908152f35b823461033457806003193601126103345760405181601054611f99816129de565b80845290600190818116908115611b545750600114611fc257611af784611aeb81880382612a93565b60108352602094506000805160206143998339815191525b828410611ff65750505081611af793611aeb9282010193611adb565b8054858501870152928501928101611fda565b82346103345760203660031901126103345760043590600982101561033457602060ff612035846129af565b54166040519015158152f35b8234610334576020366003190112610334576020906040906001600160a01b03612069612925565b168152600183522054604051908152f35b8234610334578060031936011261033457600a546040516001600160a01b039091168152602090f35b82346103345780600319360112610334576020602754604051908152f35b82346103345780600319360112610334576020601c54604051908152f35b82346103345780600319360112610334576020602d54604051908152f35b823461033457806003193601126103345760208054604051908152f35b82346103345780600319360112610334576006546001600160a01b03908181163381900361218457806005549384167f8be0079c531659141344cd1fd0a4f28419497f9722a3daafe3b4186f6b6457e08680a36001600160a01b0319928316176005551660065580f35b606460405162461bcd60e51b815260206004820152602060248201527f4f776e61626c653a2063616c6c657220213d2070656e64696e67206f776e65726044820152fd5b8234610334576020366003190112610334576020906040906001600160a01b036121f0612925565b168152601783522054604051908152f35b82346103345780600319360112610334576020601554604051908152f35b82346103345780600319360112610334576020600e54604051908152f35b82346103345780600319360112610334576020601654604051908152f35b823461033457606036600319011261033457602061073f604435602435600435612c5a565b82346103345780600319360112610334576020601154604051908152f35b8234610334578060031936011261033457600d546040516001600160a01b039091168152602090f35b82346103345780600319360112610334576020601254604051908152f35b8234610334578060031936011261033457602061073f613304565b82346103345780600319360112610334576020601954604051908152f35b82346103345780600319360112610334576014546040516001600160801b039091168152602090f35b82346103345780600319360112610334576020601354604051908152f35b82346103345760603660031901126103345761237f612925565b9061238861293b565b60443591826123c6575b506040519182526001600160a01b0390811692169060008051602061437983398151915290602090a3602060405160018152f35b6001600160a01b038481168083526001602090815260408420549286906123ef8286101561342e565b861693848403612404575b5050505050612392565b83865260028352604080872033885284528620546001810161246e575b509260016020969361244c8794604097611a016000805160206143798339815191529c9a1515613473565b9285525283832055815220612462858254612c34565b905591858085816123fa565b909181106124c2579260016020969361244c8a6000805160206143798339815191529a989561249f8260409a612c27565b86895260028552898920338a528552898920559497509497995050939650612421565b60405162461bcd60e51b815260048101849052601860248201527745524332303a20616c6c6f77616e636520746f6f206c6f7760401b6044820152606490fd5b82346103345780600319360112610334576020602a54604051908152f35b905034610b9e5761253036612960565b83979496979291924211610b59576125c792610afd928a60018060a01b0396878c16988983526004602052604083209182549261256c8461365e565b90556040519260208401947f5c9ba5f0d101616843d7918f48ea857d6da95e04ac6d719e105e50a355e7c5d6865260408501528b60608501528a8d1660808501528d60a085015260c0840152818301528152610ac181612a5c565b1603610b14576103319261366d565b8234610334578060031936011261033457602b546040516001600160a01b039091168152602090f35b8234610334576020366003190112610334576020906040906001600160a01b03612627612925565b168152601883522054604051908152f35b8234610334578060031936011261033457602090604051908152f35b82346103345780600319360112610334576020602f54604051908152f35b8234610334576040366003190112610334576004356009811015610b9e57612698612951565b6008549091906001600160a01b0316330361274e5760ff6126b8826129af565b5416151591151591821461271457808260ff6126d6612704946129af565b54161515827feeec81de25875ce1725479bb76f720a8defdb43dea041919ae37bb4aae9847c08780a46129af565b9060ff8019835416911617905580f35b60405162461bcd60e51b81526020600482015260126024820152714d61726b65743a2073616d6520737461746560701b6044820152606490fd5b60405162461bcd60e51b815260206004820152601460248201527313585c9ad95d0e881d5b985d5d1a1bdc9a5e995960621b6044820152606490fd5b823461033457604036600319011261033457611ecf6127a7612925565b60243590336136bb565b8234610334576060366003190112610334576127cb612925565b6127d3612951565b6044359081151582036108f05760018060a01b039283916127f983600554163314612b45565b1561289d571690811590811591612895575b501561285857806005549283167f8be0079c531659141344cd1fd0a4f28419497f9722a3daafe3b4186f6b6457e08580a36001600160a01b03199182161760055560068054909116905580f35b60405162461bcd60e51b81526020600482015260156024820152744f776e61626c653a207a65726f206164647265737360581b6044820152606490fd5b90508461280b565b9150501660018060a01b0319600654161760065580f35b823461033457806003193601126103345760406128cf612f77565b825191151582526020820152f35b839034610b9e576040366003190112610b9e5760406020926128fd612925565b61290561293b565b6001600160a01b0391821683526003865283832091168252845220548152f35b600435906001600160a01b03821682036107cb57565b602435906001600160a01b03821682036107cb57565b6024359081151582036107cb57565b60e09060031901126107cb576001600160a01b039060043582811681036107cb579160243590811681036107cb5790604435906064359060843560ff811681036107cb579060a4359060c43590565b60098110156129c8576000526007602052604060002090565b634e487b7160e01b600052602160045260246000fd5b90600182811c92168015612a0e575b60208310146129f857565b634e487b7160e01b600052602260045260246000fd5b91607f16916129ed565b6001600160401b038111612a2b57604052565b634e487b7160e01b600052604160045260246000fd5b604081019081106001600160401b03821117612a2b57604052565b61010081019081106001600160401b03821117612a2b57604052565b608081019081106001600160401b03821117612a2b57604052565b90601f801991011681019081106001600160401b03821117612a2b57604052565b6020808252825181830181905290939260005b828110612ae957505060409293506000838284010152601f8019910116010190565b818101860151848201604001528501612ac7565b6001600160401b038111612a2b57601f01601f191660200190565b9181601f840112156107cb578235916001600160401b0383116107cb57602083818601950101116107cb57565b15612b4c57565b606460405162461bcd60e51b815260206004820152602060248201527f4f776e61626c653a2063616c6c6572206973206e6f7420746865206f776e65726044820152fd5b15612b9757565b60405162461bcd60e51b815260206004820152601160248201527013585c9ad95d0e881b9bdd081d985b1a59607a1b6044820152606490fd5b81810292918115918404141715612be357565b634e487b7160e01b600052601160045260246000fd5b8115612c03570490565b634e487b7160e01b600052601260045260246000fd5b604d8111612be357600a0a90565b91908203918211612be357565b91908201809211612be357565b81810392916000138015828513169184121617612be357565b601454919291612ca391612c9491612c8a91612c80906001600160801b03831690612bd0565b9060801c90612bf9565b93601f5490612bd0565b612c9d83612c19565b90612bf9565b808310612d6b57612cb7612cf39184612c27565b91612cee612ce8612cdf601e54612cd9612cd086612c19565b60205490612c34565b90612bd0565b612c9d84612c19565b91612c19565b612c41565b6509184e72a00090818102918183051490151715612be357670de0b6b3a764000091828102928184051490151715612be3578015612c0357600160ff1b91808314600019831416612be35705906000821215612d64578114612be357600003905b808211612d5f575090565b905090565b5090612d54565b505050600090565b6001600160a01b03908116600081815260176020908152604082205492959493919290918115612ea557612da561392d565b90612db18615156130cf565b6009541683600c54898752601882526064604088205491604051948593849263442c159960e01b8452600484015260248301528960448301525afa90811561088f578591612e76575b5092859492612e56601893612e31612e6a99612e2c612e2360409a620186a06022540490612bd0565b601e5490612bd0565b612bf9565b815190936001600160801b03918691612e4c91841690612bd0565b9201511690612bf9565b818110612e6e57035b97835252205461311b565b9091565b505082612e5f565b90508381813d8311612e9e575b612e8d8183612a93565b810103126108e15751612e6a612dfa565b503d612e83565b5050509192505080918190565b519081151582036107cb57565b91908260409103126107cb576020612ed683612eb2565b92015190565b602080825260009160105491612ef1836129de565b9283828401526001908181169081600014612f545750600114612f16575b5050505090565b929350601060005280600020926000935b858510612f405750505060409250010138808080612f0f565b805485850160400152938201938101612f27565b925050506040935060ff929192191683830152151560051b010138808080612f0f565b600f546040805163d6d7d52560e01b81529290916001600160a01b0316828480612fa360048201612edc565b0381600080955af180156130c35781948291613090575b50928415613033578315612ff957507f9f9192b5edb17356c524e08d9e025c8e2f6307e6ea52fb7968faa3081f51c3c883918260115580a25b42601355565b5162461bcd60e51b81526020600482015260146024820152734d61726b65743a20696e76616c6964207261746560601b6044820152606490fd5b9192505061304660135460125490612c34565b4211613056575060115490612ff3565b5162461bcd60e51b815260206004820152601460248201527313585c9ad95d0e881c985d19481d1bdbc81bdb1960621b6044820152606490fd5b90506130b3919450833d85116130bc575b6130ab8183612a93565b810190612ebf565b93909338612fba565b503d6130a1565b508251903d90823e3d90fd5b156130d657565b60405162461bcd60e51b815260206004820152601e60248201527f4d61726b65743a2065786368616e676552617465206e6f742076616c696400006044820152606490fd5b6131268215156130cf565b602060018060a01b0360095416916064600c54604051948593849263442c159960e01b845260048401526024830152600060448301525afa9081156131c657600091613193575b5090612e2c61317f9260225490612bd0565b620186a061318f601e5483612bd0565b0491565b906020823d82116131be575b816131ac60209383612a93565b81010312610334575051612e2c61316d565b3d915061319f565b6040513d6000823e3d90fd5b6001600160a01b031660008181526018602052604081205490926131f59161311b565b9183526017602052604083205480156132fe5781156132fe578181106132fe57828110156132f45760145461323e918391611a0191612c80906001600160801b03831690612bd0565b90620186a092838302928084048514901517156132e0576132639291612c9d91612c27565b91601b5491601c54936132768585612c41565b80820291848212600160ff1b8214166132e05781830514901517156132cc57058184820194851291129080158216911516176132b85750808212612d5f575090565b634e487b7160e01b81526011600452602490fd5b634e487b7160e01b83526011600452602483fd5b634e487b7160e01b85526011600452602485fd5b50505050601b5490565b50505090565b307f00000000000000000000000000000000000000000000000000000000000000006001600160a01b03161480613405575b1561335f577f000000000000000000000000000000000000000000000000000000000000000090565b60405160208101907f000000000000000000000000000000000000000000000000000000000000000082527f000000000000000000000000000000000000000000000000000000000000000060408201527f000000000000000000000000000000000000000000000000000000000000000060608201524660808201523060a082015260a0815260c081018181106001600160401b03821117612a2b5760405251902090565b507f00000000000000000000000000000000000000000000000000000000000000004614613336565b1561343557565b60405162461bcd60e51b815260206004820152601660248201527545524332303a2062616c616e636520746f6f206c6f7760501b6044820152606490fd5b1561347a57565b60405162461bcd60e51b815260206004820152601660248201527545524332303a206e6f207a65726f206164647265737360501b6044820152606490fd5b51906001600160a01b03821682036107cb57565b519060ff821682036107cb57565b60058110156129c857806134eb5750565b600181036135335760405162461bcd60e51b815260206004820152601860248201527745434453413a20696e76616c6964207369676e617475726560401b6044820152606490fd5b600281036135805760405162461bcd60e51b815260206004820152601f60248201527f45434453413a20696e76616c6964207369676e6174757265206c656e677468006044820152606490fd5b60031461358957565b60405162461bcd60e51b815260206004820152602260248201527f45434453413a20696e76616c6964207369676e6174757265202773272076616c604482015261756560f01b6064820152608490fd5b9291906fa2a8918ca85bafe22016d0b997e4df60600160ff1b0383116136525791608094939160ff602094604051948552168484015260408301526060820152600093849182805260015afa156136455781516001600160a01b0381161561363f579190565b50600190565b50604051903d90823e3d90fd5b50505050600090600390565b6000198114612be35760010190565b7fe50de2333c10a9502fcb1d8ae13a51bbf423153dfc63c2b8997665b32154afc360018060a01b038092169160009083825260036020526040822094169384825260205284604082205580a4565b909160207f8c5be1e5ebec7d5bd14f71427d1e84f3dd0314c0f7b2291e5b200ac8c7c3b9259160018060a01b03809416938460005260028352604060002095169485600052825280604060002055604051908152a3565b60ff60265416613888576014546001600160801b031690811561388157600a54604051631848f2bf60e31b8152602093916001600160a01b03919085908290600490829086165afa80156131c6578591600091613848575b50600460405180948193631a674cc560e11b8352165afa9384156131c657600094613819575b50506137ac9192670de0b6b3a764000092839160295490612bd0565b049081811015613810576137c3602a548092612c27565b83810290808204851490151715612be357612c9d6137e49261380494612c27565b602754926137fe602854926137f98487612c27565b612bd0565b04612c34565b90808211612d5f575090565b50505060275490565b81813d8311613841575b61382d8183612a93565b810103126108f0575192506137ac38613790565b503d613823565b909181813d831161387a575b61385e8183612a93565b81010312610b9e5751908282168203610334575084903861376a565b503d613854565b6028549150565b600a5460405163e6abad4960e01b815290602090829060049082906001600160a01b03165afa9081156131c6576000916138c0575090565b906020823d82116138e6575b816138d960209383612a93565b8101031261033457505190565b3d91506138cc565b604051906138fb82612a41565b6014546001600160801b038116835260801c6020830152565b6001600160801b039182169082160191908211612be357565b6000602060405161393d81612a41565b82815201526001600160401b039061395c8260255460401c1642612c27565b9182156139b3576139ae6137f991670de0b6b3a76400006139a361397e6138ee565b9660018060801b03958694858a5116906301e1338061399b613712565b041690612bd0565b041682855116613914565b168252565b5090506139be6138ee565b90565b6040516139cd81612a41565b6025546001600160401b03908181168352818160401c166139f5602085019180835242612c27565b928315613aba57602094816301e13380613a0d613712565b041681528142168352613a1e6138ee565b670de0b6b3a7640000613a4360018060801b03976137f9898551168787511690612bd0565b0495613a5481881682845116613914565b1680825296015160801b6001600160801b031990811690961760145551915192909416931692831760409190911b67ffffffffffffffff60401b16176025557f7484db546dcd57af0104c73c8a6968dfbaf5767f047cee0dadd0499ad7df81a0600080a3565b5050505050565b15613ac857565b60405162461bcd60e51b815260206004820152600e60248201526d13585c9ad95d0e881c185d5cd95960921b6044820152606490fd5b15613b0557565b60405162461bcd60e51b815260206004820152601160248201527013585c9ad95d0e881a5b9cdbdb1d995b9d607a1b6044820152606490fd5b15613b4557565b606460405162461bcd60e51b815260206004820152602060248201527f4d61726b65743a2063616e6e6f742065786563757465206f6e20697473656c666044820152fd5b91908260409103126107cb576020825192015190565b9081526001600160a01b0391821660208201529116604082015260006060820152608081019190915260a00190565b9081526001600160a01b039182166020820152918116604083015260608201929092529116608082015260c060a08201819052810183905260e09290918190848401376000828201840152601f01601f1916010190565b919060018060a01b03806000941684526020601781526040852054908115613d0c576018815260408620548015613aba5781613c5f6138ee565b9460095416916064600c54604051948593849263442c159960e01b8452600484015260248301528b60448301525afa9687156107d8578097613cd6575b5050612e4c613cbb612e23613cd1969798620186a06022540490612bd0565b956137f960018060801b03948587511690612bd0565b111590565b9096508187813d8311613d05575b613cee8183612a93565b810103126103345750945194612e4c613cbb613c9c565b503d613ce4565b5060019450505050565b6001600160a01b0316338103613d2a575050565b6000818152602090600382526040918282203383528152848383205410613d935783825260038152828220338352815282822054600101613d6c575050505050565b613d8793825260038152828220903383525220918254612c27565b90553880808080613aba565b60649083519062461bcd60e51b82526004820152601460248201527313585c9ad95d0e881b9bdd08185c1c1c9bdd995960621b6044820152fd5b9081526001600160a01b0391821660208201529116604082015260608101919091526000608082015260a00190565b8015613f2657602b546040805163d6d7d52560e01b81529291819084906001600160a01b031681600081613e3260048201612edc565b03925af1928315613f1b576000908194613ef9575b5015613ee9575060305480831015613ee057602f549081841115613ed657613e94613e9a91612c9d613e7c85602e5498612c27565b94613e8e602d5496612cd9888b612c27565b92612c27565b84612c27565b92808411613ecf5750808310613ec9575081613eb7575050600090565b620186a091613ec591612bd0565b0490565b91505090565b9250505090565b50505050602e5490565b505050602d5490565b51638390524960e01b8152600490fd5b905081613f139294503d85116130bc576130ab8183612a93565b929038613e47565b50513d6000823e3d90fd5b50600090565b60208101805190939291906001600160801b03908116613f4d575090925050565b908161078c81613f70613f66613f799686511688612bd0565b828a511690612bf9565b97511687612bd0565b10613f8057565b906139be9061365e565b92909260018060a01b03928385169060009482865260209060178252604097888820548085116141fb575b5083156141ea5783613fc69161421c565b94838610156141d957879885895260248452808920613fe6888254612c27565b9055613ff06138ee565b9689858351613ffe81612a41565b828152015261400d8689613f2c565b9760018060801b0380614025818c1682855116614203565b1682528682019061403b818a1682845116614203565b9181831690528a9251169060018060801b03199060801b1617601455878b5260178652828b2061406c888254612c27565b905561409d838a809d886009541690600e549084518096819582946311a5cc7760e31b84528d309160048601613dcd565b03925af180156141cf57906140ca9392916141b3575b506140be888b612c27565b80614190575b50612c27565b80614102575b507fc8e512d8f188ca059984b5853d2bf653da902696b8512785b182b2c813789a6e94959697989950519485521692a4565b8a9084600d541690813b156103c8578351632770a7eb60e21b8152306004820152602481019190915291908290604490829084905af18015614186577fc8e512d8f188ca059984b5853d2bf653da902696b8512785b182b2c813789a6e969798999a9b50614177575b8a9998979695506140d0565b61418090612a18565b3861416b565b82513d8d823e3d90fd5b6141ad91506141a6620186a091601a5490612bd0565b048a612c27565b386140c4565b6141c990853d87116108c6576108b58183612a93565b506140b3565b84513d8f823e3d90fd5b8851631c5022c560e21b8152600490fd5b88516369973fe360e11b8152600490fd5b935038613fb5565b6001600160801b039182169082160391908211612be357565b6001600160a01b03908116600081815260176020908152604080832054939590949293919282821461432657848091600d541687518681019063313ce56760e01b82526004815261426c81612a41565b51915afa3d1561431e573d9061428182612afd565b9161428e88519384612a93565b82523d868684013e5b80614314575b156143065783818051810103126108e1579060ff6142bf856142c894016134cc565b16928391614335565b80156142fd5760249291612c9d612ce86142ec938988528686528888205490612bd0565b948352522054808211612d5f575090565b50505091505090565b506142c89060ff60126142bf565b508381511461429d565b606090614297565b50505060249192935052205490565b9182158015614370575b612d6b5760018101809111612be35761435e92612cd9612e2c92612c19565b60058101809111612be357600a900490565b50811561433f56feddf252ad1be2c89b69c2b068fc378daa952ba7f163c4a11628f55a4df523b3ef1b6847dc741a1b0cd08d278845f9d819d87b734759afb55fe2de5cb82a9ae672a2646970667358221220a0c3e2eb0dd8c193e4084d1c3ba619b04f173f372b13662a828e7d773df1843f64736f6c63430008120033",
  "linkReferences": {},
  "deployedLinkReferences": {}
}