{
  "_format": "hh-sol-artifact-1",
  "contractName": "BBLeverage",
  "sourceName": "contracts/markets/bigBang/BBLeverage.sol",
  "abi": [
    {
      "anonymous": false,
      "inputs": [
        {
          "indexed": true,
          "internalType": "address",
          "name": "owner",
          "type": "address"
        },
        {
          "indexed": true,
          "internalType": "address",
          "name": "spender",
          "type": "address"
        },
        {
          "indexed": false,
          "internalType": "uint256",
          "name": "value",
          "type": "uint256"
        }
      ],
      "name": "Approval",
      "type": "event"
    },
    {
      "anonymous": false,
      "inputs": [
        {
          "indexed": true,
          "internalType": "address",
          "name": "owner",
          "type": "address"
        },
        {
          "indexed": true,
          "internalType": "address",
          "name": "spender",
          "type": "address"
        },
        {
          "indexed": false,
          "internalType": "uint256",
          "name": "value",
          "type": "uint256"
        }
      ],
      "name": "ApprovalBorrow",
      "type": "event"
    },
    {
      "anonymous": false,
      "inputs": [
        {
          "indexed": true,
          "internalType": "address",
          "name": "old",
          "type": "address"
        },
        {
          "indexed": true,
          "internalType": "address",
          "name": "_new",
          "type": "address"
        }
      ],
      "name": "ConservatorUpdated",
      "type": "event"
    },
    {
      "anonymous": false,
      "inputs": [
        {
          "indexed": false,
          "internalType": "uint256",
          "name": "oldVal",
          "type": "uint256"
        },
        {
          "indexed": false,
          "internalType": "uint256",
          "name": "newVal",
          "type": "uint256"
        }
      ],
      "name": "DebtRateAgainstEthUpdated",
      "type": "event"
    },
    {
      "anonymous": false,
      "inputs": [
        {
          "indexed": true,
          "internalType": "address",
          "name": "liquidator",
          "type": "address"
        },
        {
          "indexed": false,
          "internalType": "address[]",
          "name": "users",
          "type": "address[]"
        },
        {
          "indexed": false,
          "internalType": "uint256",
          "name": "liquidatorReward",
          "type": "uint256"
        },
        {
          "indexed": false,
          "internalType": "uint256",
          "name": "protocolReward",
          "type": "uint256"
        },
        {
          "indexed": false,
          "internalType": "uint256",
          "name": "repayedAmount",
          "type": "uint256"
        },
        {
          "indexed": false,
          "internalType": "uint256",
          "name": "collateralShareRemoved",
          "type": "uint256"
        }
      ],
      "name": "Liquidated",
      "type": "event"
    },
    {
      "anonymous": false,
      "inputs": [
        {
          "indexed": false,
          "internalType": "uint256",
          "name": "oldVal",
          "type": "uint256"
        },
        {
          "indexed": false,
          "internalType": "uint256",
          "name": "newVal",
          "type": "uint256"
        }
      ],
      "name": "LiquidationMultiplierUpdated",
      "type": "event"
    },
    {
      "anonymous": false,
      "inputs": [
        {
          "indexed": false,
          "internalType": "uint256",
          "name": "accruedAmount",
          "type": "uint256"
        },
        {
          "indexed": false,
          "internalType": "uint64",
          "name": "rate",
          "type": "uint64"
        }
      ],
      "name": "LogAccrue",
      "type": "event"
    },
    {
      "anonymous": false,
      "inputs": [
        {
          "indexed": true,
          "internalType": "address",
          "name": "from",
          "type": "address"
        },
        {
          "indexed": true,
          "internalType": "address",
          "name": "to",
          "type": "address"
        },
        {
          "indexed": false,
          "internalType": "uint256",
          "name": "share",
          "type": "uint256"
        }
      ],
      "name": "LogAddCollateral",
      "type": "event"
    },
    {
      "anonymous": false,
      "inputs": [
        {
          "indexed": true,
          "internalType": "address",
          "name": "from",
          "type": "address"
        },
        {
          "indexed": true,
          "internalType": "address",
          "name": "to",
          "type": "address"
        },
        {
          "indexed": false,
          "internalType": "uint256",
          "name": "amount",
          "type": "uint256"
        },
        {
          "indexed": false,
          "internalType": "uint256",
          "name": "feeAmount",
          "type": "uint256"
        },
        {
          "indexed": false,
          "internalType": "uint256",
          "name": "part",
          "type": "uint256"
        }
      ],
      "name": "LogBorrow",
      "type": "event"
    },
    {
      "anonymous": false,
      "inputs": [
        {
          "indexed": false,
          "internalType": "uint256",
          "name": "_oldVal",
          "type": "uint256"
        },
        {
          "indexed": false,
          "internalType": "uint256",
          "name": "_newVal",
          "type": "uint256"
        }
      ],
      "name": "LogBorrowCapUpdated",
      "type": "event"
    },
    {
      "anonymous": false,
      "inputs": [
        {
          "indexed": false,
          "internalType": "uint256",
          "name": "_oldVal",
          "type": "uint256"
        },
        {
          "indexed": false,
          "internalType": "uint256",
          "name": "_newVal",
          "type": "uint256"
        }
      ],
      "name": "LogBorrowingFee",
      "type": "event"
    },
    {
      "anonymous": false,
      "inputs": [
        {
          "indexed": false,
          "internalType": "uint256",
          "name": "rate",
          "type": "uint256"
        }
      ],
      "name": "LogExchangeRate",
      "type": "event"
    },
    {
      "anonymous": false,
      "inputs": [
        {
          "indexed": true,
          "internalType": "address",
          "name": "from",
          "type": "address"
        },
        {
          "indexed": true,
          "internalType": "address",
          "name": "to",
          "type": "address"
        },
        {
          "indexed": false,
          "internalType": "uint256",
          "name": "share",
          "type": "uint256"
        }
      ],
      "name": "LogRemoveCollateral",
      "type": "event"
    },
    {
      "anonymous": false,
      "inputs": [
        {
          "indexed": true,
          "internalType": "address",
          "name": "from",
          "type": "address"
        },
        {
          "indexed": true,
          "internalType": "address",
          "name": "to",
          "type": "address"
        },
        {
          "indexed": false,
          "internalType": "uint256",
          "name": "amount",
          "type": "uint256"
        },
        {
          "indexed": false,
          "internalType": "uint256",
          "name": "part",
          "type": "uint256"
        }
      ],
      "name": "LogRepay",
      "type": "event"
    },
    {
      "anonymous": false,
      "inputs": [
        {
          "indexed": false,
          "internalType": "uint256",
          "name": "oldVal",
          "type": "uint256"
        },
        {
          "indexed": false,
          "internalType": "uint256",
          "name": "newVal",
          "type": "uint256"
        }
      ],
      "name": "MaxDebtRateUpdated",
      "type": "event"
    },
    {
      "anonymous": false,
      "inputs": [
        {
          "indexed": false,
          "internalType": "uint256",
          "name": "oldVal",
          "type": "uint256"
        },
        {
          "indexed": false,
          "internalType": "uint256",
          "name": "newVal",
          "type": "uint256"
        }
      ],
      "name": "MinDebtRateUpdated",
      "type": "event"
    },
    {
      "anonymous": false,
      "inputs": [],
      "name": "OracleDataUpdated",
      "type": "event"
    },
    {
      "anonymous": false,
      "inputs": [],
      "name": "OracleUpdated",
      "type": "event"
    },
    {
      "anonymous": false,
      "inputs": [
        {
          "indexed": true,
          "internalType": "address",
          "name": "previousOwner",
          "type": "address"
        },
        {
          "indexed": true,
          "internalType": "address",
          "name": "newOwner",
          "type": "address"
        }
      ],
      "name": "OwnershipTransferred",
      "type": "event"
    },
    {
      "anonymous": false,
      "inputs": [
        {
          "indexed": false,
          "internalType": "enum Market.PauseType",
          "name": "_type",
          "type": "uint8"
        },
        {
          "indexed": false,
          "internalType": "bool",
          "name": "oldState",
          "type": "bool"
        },
        {
          "indexed": false,
          "internalType": "bool",
          "name": "newState",
          "type": "bool"
        }
      ],
      "name": "PausedUpdated",
      "type": "event"
    },
    {
      "anonymous": false,
      "inputs": [
        {
          "indexed": true,
          "internalType": "address",
          "name": "from",
          "type": "address"
        },
        {
          "indexed": true,
          "internalType": "address",
          "name": "to",
          "type": "address"
        },
        {
          "indexed": false,
          "internalType": "uint256",
          "name": "value",
          "type": "uint256"
        }
      ],
      "name": "Transfer",
      "type": "event"
    },
    {
      "inputs": [],
      "name": "DOMAIN_SEPARATOR",
      "outputs": [
        {
          "internalType": "bytes32",
          "name": "",
          "type": "bytes32"
        }
      ],
      "stateMutability": "view",
      "type": "function"
    },
    {
      "inputs": [],
      "name": "accrue",
      "outputs": [],
      "stateMutability": "nonpayable",
      "type": "function"
    },
    {
      "inputs": [],
      "name": "accrueInfo",
      "outputs": [
        {
          "internalType": "uint64",
          "name": "debtRate",
          "type": "uint64"
        },
        {
          "internalType": "uint64",
          "name": "lastAccrued",
          "type": "uint64"
        }
      ],
      "stateMutability": "view",
      "type": "function"
    },
    {
      "inputs": [
        {
          "internalType": "address",
          "name": "",
          "type": "address"
        },
        {
          "internalType": "address",
          "name": "",
          "type": "address"
        }
      ],
      "name": "allowance",
      "outputs": [
        {
          "internalType": "uint256",
          "name": "",
          "type": "uint256"
        }
      ],
      "stateMutability": "view",
      "type": "function"
    },
    {
      "inputs": [
        {
          "internalType": "address",
          "name": "",
          "type": "address"
        },
        {
          "internalType": "address",
          "name": "",
          "type": "address"
        }
      ],
      "name": "allowanceBorrow",
      "outputs": [
        {
          "internalType": "uint256",
          "name": "",
          "type": "uint256"
        }
      ],
      "stateMutability": "view",
      "type": "function"
    },
    {
      "inputs": [
        {
          "internalType": "address",
          "name": "spender",
          "type": "address"
        },
        {
          "internalType": "uint256",
          "name": "amount",
          "type": "uint256"
        }
      ],
      "name": "approve",
      "outputs": [
        {
          "internalType": "bool",
          "name": "",
          "type": "bool"
        }
      ],
      "stateMutability": "nonpayable",
      "type": "function"
    },
    {
      "inputs": [
        {
          "internalType": "address",
          "name": "spender",
          "type": "address"
        },
        {
          "internalType": "uint256",
          "name": "amount",
          "type": "uint256"
        }
      ],
      "name": "approveBorrow",
      "outputs": [
        {
          "internalType": "bool",
          "name": "",
          "type": "bool"
        }
      ],
      "stateMutability": "nonpayable",
      "type": "function"
    },
    {
      "inputs": [],
      "name": "asset",
      "outputs": [
        {
          "internalType": "contract IERC20",
          "name": "",
          "type": "address"
        }
      ],
      "stateMutability": "view",
      "type": "function"
    },
    {
      "inputs": [],
      "name": "assetId",
      "outputs": [
        {
          "internalType": "uint256",
          "name": "",
          "type": "uint256"
        }
      ],
      "stateMutability": "view",
      "type": "function"
    },
    {
      "inputs": [
        {
          "internalType": "address",
          "name": "",
          "type": "address"
        }
      ],
      "name": "balanceOf",
      "outputs": [
        {
          "internalType": "uint256",
          "name": "",
          "type": "uint256"
        }
      ],
      "stateMutability": "view",
      "type": "function"
    },
    {
      "inputs": [],
      "name": "borrowOpeningFee",
      "outputs": [
        {
          "internalType": "uint256",
          "name": "",
          "type": "uint256"
        }
      ],
      "stateMutability": "view",
      "type": "function"
    },
    {
      "inputs": [
        {
          "internalType": "address",
          "name": "from",
          "type": "address"
        },
        {
          "internalType": "uint256",
          "name": "borrowAmount",
          "type": "uint256"
        },
        {
          "internalType": "uint256",
          "name": "supplyAmount",
          "type": "uint256"
        },
        {
          "internalType": "uint256",
          "name": "minAmountOut",
          "type": "uint256"
        },
        {
          "internalType": "contract ISwapper",
          "name": "swapper",
          "type": "address"
        },
        {
          "internalType": "bytes",
          "name": "dexData",
          "type": "bytes"
        }
      ],
      "name": "buyCollateral",
      "outputs": [
        {
          "internalType": "uint256",
          "name": "amountOut",
          "type": "uint256"
        }
      ],
      "stateMutability": "nonpayable",
      "type": "function"
    },
    {
      "inputs": [],
      "name": "callerFee",
      "outputs": [
        {
          "internalType": "uint256",
          "name": "",
          "type": "uint256"
        }
      ],
      "stateMutability": "view",
      "type": "function"
    },
    {
      "inputs": [],
      "name": "claimOwnership",
      "outputs": [],
      "stateMutability": "nonpayable",
      "type": "function"
    },
    {
      "inputs": [],
      "name": "collateral",
      "outputs": [
        {
          "internalType": "contract IERC20",
          "name": "",
          "type": "address"
        }
      ],
      "stateMutability": "view",
      "type": "function"
    },
    {
      "inputs": [],
      "name": "collateralId",
      "outputs": [
        {
          "internalType": "uint256",
          "name": "",
          "type": "uint256"
        }
      ],
      "stateMutability": "view",
      "type": "function"
    },
    {
      "inputs": [],
      "name": "collateralizationRate",
      "outputs": [
        {
          "internalType": "uint256",
          "name": "",
          "type": "uint256"
        }
      ],
      "stateMutability": "view",
      "type": "function"
    },
    {
      "inputs": [
        {
          "internalType": "uint256",
          "name": "borrowPart",
          "type": "uint256"
        },
        {
          "internalType": "uint256",
          "name": "collateralPartInAsset",
          "type": "uint256"
        },
        {
          "internalType": "uint256",
          "name": "ratesPrecision",
          "type": "uint256"
        }
      ],
      "name": "computeClosingFactor",
      "outputs": [
        {
          "internalType": "uint256",
          "name": "",
          "type": "uint256"
        }
      ],
      "stateMutability": "view",
      "type": "function"
    },
    {
      "inputs": [
        {
          "internalType": "address",
          "name": "user",
          "type": "address"
        },
        {
          "internalType": "uint256",
          "name": "_exchangeRate",
          "type": "uint256"
        }
      ],
      "name": "computeLiquidatorReward",
      "outputs": [
        {
          "internalType": "uint256",
          "name": "",
          "type": "uint256"
        }
      ],
      "stateMutability": "view",
      "type": "function"
    },
    {
      "inputs": [
        {
          "internalType": "address",
          "name": "user",
          "type": "address"
        },
        {
          "internalType": "uint256",
          "name": "_exchangeRate",
          "type": "uint256"
        }
      ],
      "name": "computeTVLInfo",
      "outputs": [
        {
          "internalType": "uint256",
          "name": "amountToSolvency",
          "type": "uint256"
        },
        {
          "internalType": "uint256",
          "name": "minTVL",
          "type": "uint256"
        },
        {
          "internalType": "uint256",
          "name": "maxTVL",
          "type": "uint256"
        }
      ],
      "stateMutability": "view",
      "type": "function"
    },
    {
      "inputs": [],
      "name": "conservator",
      "outputs": [
        {
          "internalType": "address",
          "name": "",
          "type": "address"
        }
      ],
      "stateMutability": "view",
      "type": "function"
    },
    {
      "inputs": [],
      "name": "debtRateAgainstEthMarket",
      "outputs": [
        {
          "internalType": "uint256",
          "name": "",
          "type": "uint256"
        }
      ],
      "stateMutability": "view",
      "type": "function"
    },
    {
      "inputs": [],
      "name": "debtStartPoint",
      "outputs": [
        {
          "internalType": "uint256",
          "name": "",
          "type": "uint256"
        }
      ],
      "stateMutability": "view",
      "type": "function"
    },
    {
      "inputs": [],
      "name": "exchangeRate",
      "outputs": [
        {
          "internalType": "uint256",
          "name": "",
          "type": "uint256"
        }
      ],
      "stateMutability": "view",
      "type": "function"
    },
    {
      "inputs": [],
      "name": "getDebtRate",
      "outputs": [
        {
          "internalType": "uint256",
          "name": "",
          "type": "uint256"
        }
      ],
      "stateMutability": "view",
      "type": "function"
    },
    {
      "inputs": [],
      "name": "getTotalDebt",
      "outputs": [
        {
          "internalType": "uint256",
          "name": "",
          "type": "uint256"
        }
      ],
      "stateMutability": "view",
      "type": "function"
    },
    {
      "inputs": [],
      "name": "isMainMarket",
      "outputs": [
        {
          "internalType": "bool",
          "name": "",
          "type": "bool"
        }
      ],
      "stateMutability": "view",
      "type": "function"
    },
    {
      "inputs": [],
      "name": "liquidationBonusAmount",
      "outputs": [
        {
          "internalType": "uint256",
          "name": "",
          "type": "uint256"
        }
      ],
      "stateMutability": "view",
      "type": "function"
    },
    {
      "inputs": [],
      "name": "liquidationMultiplier",
      "outputs": [
        {
          "internalType": "uint256",
          "name": "",
          "type": "uint256"
        }
      ],
      "stateMutability": "view",
      "type": "function"
    },
    {
      "inputs": [],
      "name": "maxDebtRate",
      "outputs": [
        {
          "internalType": "uint256",
          "name": "",
          "type": "uint256"
        }
      ],
      "stateMutability": "view",
      "type": "function"
    },
    {
      "inputs": [],
      "name": "maxLiquidatorReward",
      "outputs": [
        {
          "internalType": "uint256",
          "name": "",
          "type": "uint256"
        }
      ],
      "stateMutability": "view",
      "type": "function"
    },
    {
      "inputs": [],
      "name": "minDebtRate",
      "outputs": [
        {
          "internalType": "uint256",
          "name": "",
          "type": "uint256"
        }
      ],
      "stateMutability": "view",
      "type": "function"
    },
    {
      "inputs": [],
      "name": "minLiquidatorReward",
      "outputs": [
        {
          "internalType": "uint256",
          "name": "",
          "type": "uint256"
        }
      ],
      "stateMutability": "view",
      "type": "function"
    },
    {
      "inputs": [
        {
          "internalType": "address",
          "name": "owner",
          "type": "address"
        }
      ],
      "name": "nonces",
      "outputs": [
        {
          "internalType": "uint256",
          "name": "",
          "type": "uint256"
        }
      ],
      "stateMutability": "view",
      "type": "function"
    },
    {
      "inputs": [
        {
          "internalType": "address",
          "name": "user",
          "type": "address"
        }
      ],
      "name": "openingFees",
      "outputs": [
        {
          "internalType": "uint256",
          "name": "fee",
          "type": "uint256"
        }
      ],
      "stateMutability": "view",
      "type": "function"
    },
    {
      "inputs": [],
      "name": "oracle",
      "outputs": [
        {
          "internalType": "contract IOracle",
          "name": "",
          "type": "address"
        }
      ],
      "stateMutability": "view",
      "type": "function"
    },
    {
      "inputs": [],
      "name": "oracleData",
      "outputs": [
        {
          "internalType": "bytes",
          "name": "",
          "type": "bytes"
        }
      ],
      "stateMutability": "view",
      "type": "function"
    },
    {
      "inputs": [],
      "name": "owner",
      "outputs": [
        {
          "internalType": "address",
          "name": "",
          "type": "address"
        }
      ],
      "stateMutability": "view",
      "type": "function"
    },
    {
      "inputs": [
        {
          "internalType": "enum Market.PauseType",
          "name": "pauseProp",
          "type": "uint8"
        }
      ],
      "name": "pauseOptions",
      "outputs": [
        {
          "internalType": "bool",
          "name": "pauseStatus",
          "type": "bool"
        }
      ],
      "stateMutability": "view",
      "type": "function"
    },
    {
      "inputs": [],
      "name": "pendingOwner",
      "outputs": [
        {
          "internalType": "address",
          "name": "",
          "type": "address"
        }
      ],
      "stateMutability": "view",
      "type": "function"
    },
    {
      "inputs": [],
      "name": "penrose",
      "outputs": [
        {
          "internalType": "contract IPenrose",
          "name": "",
          "type": "address"
        }
      ],
      "stateMutability": "view",
      "type": "function"
    },
    {
      "inputs": [
        {
          "internalType": "address",
          "name": "owner",
          "type": "address"
        },
        {
          "internalType": "address",
          "name": "spender",
          "type": "address"
        },
        {
          "internalType": "uint256",
          "name": "value",
          "type": "uint256"
        },
        {
          "internalType": "uint256",
          "name": "deadline",
          "type": "uint256"
        },
        {
          "internalType": "uint8",
          "name": "v",
          "type": "uint8"
        },
        {
          "internalType": "bytes32",
          "name": "r",
          "type": "bytes32"
        },
        {
          "internalType": "bytes32",
          "name": "s",
          "type": "bytes32"
        }
      ],
      "name": "permit",
      "outputs": [],
      "stateMutability": "nonpayable",
      "type": "function"
    },
    {
      "inputs": [
        {
          "internalType": "address",
          "name": "owner",
          "type": "address"
        },
        {
          "internalType": "address",
          "name": "spender",
          "type": "address"
        },
        {
          "internalType": "uint256",
          "name": "value",
          "type": "uint256"
        },
        {
          "internalType": "uint256",
          "name": "deadline",
          "type": "uint256"
        },
        {
          "internalType": "uint8",
          "name": "v",
          "type": "uint8"
        },
        {
          "internalType": "bytes32",
          "name": "r",
          "type": "bytes32"
        },
        {
          "internalType": "bytes32",
          "name": "s",
          "type": "bytes32"
        }
      ],
      "name": "permitBorrow",
      "outputs": [],
      "stateMutability": "nonpayable",
      "type": "function"
    },
    {
      "inputs": [],
      "name": "protocolFee",
      "outputs": [
        {
          "internalType": "uint256",
          "name": "",
          "type": "uint256"
        }
      ],
      "stateMutability": "view",
      "type": "function"
    },
    {
      "inputs": [
        {
          "internalType": "address",
          "name": "from",
          "type": "address"
        },
        {
          "internalType": "uint256",
          "name": "share",
          "type": "uint256"
        },
        {
          "internalType": "uint256",
          "name": "minAmountOut",
          "type": "uint256"
        },
        {
          "internalType": "contract ISwapper",
          "name": "swapper",
          "type": "address"
        },
        {
          "internalType": "bytes",
          "name": "dexData",
          "type": "bytes"
        }
      ],
      "name": "sellCollateral",
      "outputs": [
        {
          "internalType": "uint256",
          "name": "amountOut",
          "type": "uint256"
        }
      ],
      "stateMutability": "nonpayable",
      "type": "function"
    },
    {
      "inputs": [
        {
          "internalType": "uint256",
          "name": "_cap",
          "type": "uint256"
        }
      ],
      "name": "setBorrowCap",
      "outputs": [],
      "stateMutability": "nonpayable",
      "type": "function"
    },
    {
      "inputs": [
        {
          "internalType": "uint256",
          "name": "_val",
          "type": "uint256"
        }
      ],
      "name": "setBorrowOpeningFee",
      "outputs": [],
      "stateMutability": "nonpayable",
      "type": "function"
    },
    {
      "inputs": [
        {
          "internalType": "uint256",
          "name": "_borrowOpeningFee",
          "type": "uint256"
        },
        {
          "internalType": "contract IOracle",
          "name": "_oracle",
          "type": "address"
        },
        {
          "internalType": "bytes",
          "name": "_oracleData",
          "type": "bytes"
        },
        {
          "internalType": "address",
          "name": "_conservator",
          "type": "address"
        },
        {
          "internalType": "uint256",
          "name": "_callerFee",
          "type": "uint256"
        },
        {
          "internalType": "uint256",
          "name": "_protocolFee",
          "type": "uint256"
        },
        {
          "internalType": "uint256",
          "name": "_liquidationBonusAmount",
          "type": "uint256"
        },
        {
          "internalType": "uint256",
          "name": "_minLiquidatorReward",
          "type": "uint256"
        },
        {
          "internalType": "uint256",
          "name": "_maxLiquidatorReward",
          "type": "uint256"
        },
        {
          "internalType": "uint256",
          "name": "_totalBorrowCap",
          "type": "uint256"
        },
        {
          "internalType": "uint256",
          "name": "_collateralizationRate",
          "type": "uint256"
        }
      ],
      "name": "setMarketConfig",
      "outputs": [],
      "stateMutability": "nonpayable",
      "type": "function"
    },
    {
      "inputs": [],
      "name": "totalBorrow",
      "outputs": [
        {
          "internalType": "uint128",
          "name": "elastic",
          "type": "uint128"
        },
        {
          "internalType": "uint128",
          "name": "base",
          "type": "uint128"
        }
      ],
      "stateMutability": "view",
      "type": "function"
    },
    {
      "inputs": [],
      "name": "totalBorrowCap",
      "outputs": [
        {
          "internalType": "uint256",
          "name": "",
          "type": "uint256"
        }
      ],
      "stateMutability": "view",
      "type": "function"
    },
    {
      "inputs": [],
      "name": "totalCollateralShare",
      "outputs": [
        {
          "internalType": "uint256",
          "name": "",
          "type": "uint256"
        }
      ],
      "stateMutability": "view",
      "type": "function"
    },
    {
      "inputs": [],
      "name": "totalSupply",
      "outputs": [
        {
          "internalType": "uint256",
          "name": "",
          "type": "uint256"
        }
      ],
      "stateMutability": "view",
      "type": "function"
    },
    {
      "inputs": [
        {
          "internalType": "address",
          "name": "to",
          "type": "address"
        },
        {
          "internalType": "uint256",
          "name": "amount",
          "type": "uint256"
        }
      ],
      "name": "transfer",
      "outputs": [
        {
          "internalType": "bool",
          "name": "",
          "type": "bool"
        }
      ],
      "stateMutability": "nonpayable",
      "type": "function"
    },
    {
      "inputs": [
        {
          "internalType": "address",
          "name": "from",
          "type": "address"
        },
        {
          "internalType": "address",
          "name": "to",
          "type": "address"
        },
        {
          "internalType": "uint256",
          "name": "amount",
          "type": "uint256"
        }
      ],
      "name": "transferFrom",
      "outputs": [
        {
          "internalType": "bool",
          "name": "",
          "type": "bool"
        }
      ],
      "stateMutability": "nonpayable",
      "type": "function"
    },
    {
      "inputs": [
        {
          "internalType": "address",
          "name": "newOwner",
          "type": "address"
        },
        {
          "internalType": "bool",
          "name": "direct",
          "type": "bool"
        },
        {
          "internalType": "bool",
          "name": "renounce",
          "type": "bool"
        }
      ],
      "name": "transferOwnership",
      "outputs": [],
      "stateMutability": "nonpayable",
      "type": "function"
    },
    {
      "inputs": [],
      "name": "updateExchangeRate",
      "outputs": [
        {
          "internalType": "bool",
          "name": "updated",
          "type": "bool"
        },
        {
          "internalType": "uint256",
          "name": "rate",
          "type": "uint256"
        }
      ],
      "stateMutability": "nonpayable",
      "type": "function"
    },
    {
      "inputs": [
        {
          "internalType": "enum Market.PauseType",
          "name": "_type",
          "type": "uint8"
        },
        {
          "internalType": "bool",
          "name": "val",
          "type": "bool"
        }
      ],
      "name": "updatePause",
      "outputs": [],
      "stateMutability": "nonpayable",
      "type": "function"
    },
    {
      "inputs": [
        {
          "internalType": "address",
          "name": "",
          "type": "address"
        }
      ],
      "name": "userBorrowPart",
      "outputs": [
        {
          "internalType": "uint256",
          "name": "",
          "type": "uint256"
        }
      ],
      "stateMutability": "view",
      "type": "function"
    },
    {
      "inputs": [
        {
          "internalType": "address",
          "name": "",
          "type": "address"
        }
      ],
      "name": "userCollateralShare",
      "outputs": [
        {
          "internalType": "uint256",
          "name": "",
          "type": "uint256"
        }
      ],
      "stateMutability": "view",
      "type": "function"
    },
    {
      "inputs": [],
      "name": "yieldBox",
      "outputs": [
        {
          "internalType": "contract YieldBox",
          "name": "",
          "type": "address"
        }
      ],
      "stateMutability": "view",
      "type": "function"
    }
  ],
  "bytecode": "0x6101408060405234620001855762000017816200018a565b600f81526001602082016e546170696f63612042696742616e6760881b8152602060405162000046816200018a565b8381520192603160f81b845251902091208160e052610100918183524660a0526040519160208301907f8b73c3c69bb8fe3d512ecc4cf759cc79239f7b179b0ffacaa9a75d522b39400f92838352604085015260608401524660808401523060a084015260a0835260c083019280841060018060401b038511176200016f5760408490525190206080523060c052610120908152600580546001600160a01b0319163390811790915560007f8be0079c531659141344cd1fd0a4f28419497f9722a3daafe3b4186f6b6457e08180a36103e860195561271080601a55601b556032601d55612ee0601e55613f5f9283620001a7843960805183612cc0015260a05183612d8a015260c05183612c8a015260e05183612d0f01525182612d3501525181612cec0152f35b634e487b7160e01b600052604160045260246000fd5b600080fd5b604081019081106001600160401b038211176200016f5760405256fe608080604052600436101561001357600080fd5b600090813560e01c908162a02a20146123c25750806302ce728f14612399578063078dfbe7146122a8578063095ea7b3146122815780630c4e84f01461215957806318160ddd1461213d5780631c9e379b146121045780631da8bf10146120555780631ee9c8f2146117aa5780631fb8f81a1461178c57806323b872dd146115e957806334ce998a146115c057806334d441d0146115a25780633644e5151461158757806338d52e0f1461155e5780633ba0b9a9146115405780633f741adb1461151b57806340626d8b146114fd57806344de240a146114df578063473e3ce7146114c157806348e4163e146114885780634e71e0c8146113ec5780635100b5671461138d578063529898f21461136f578063579354621461135157806358db9afe14610f0c5780636b19ad1614610eee5780636c3d8b8f14610ec557806370a0823114610e8c578063717186d114610e3c5780637277854714610e0457806374645ff314610d035780637dc0d1d014610cda5780637ecebe0014610ca15780637fa0b84e14610c6f5780638285ef4014610c3d57806387b2793714610c045780638c5d0ed314610be65780638da5cb5b14610bbd578063959916dc14610b9f57806396759372146107c657806399a970281461079e5780639e15e89f14610754578063a9059cbb14610671578063b0e21e8a14610653578063b27c0e7414610620578063b7113f19146105fd578063bb4cfe3b146105df578063bde39c5d146105c1578063c1ad5c8d1461059e578063ce8849ed14610575578063d505accf146103f6578063d8dfeb45146103cd578063dd62ed3e1461037e578063de40657714610355578063e0996cb614610337578063e30c39781461030e578063eec0f42e146102f0578063f791395d146102d25763f8ba4cff146102b457600080fd5b346102cf57806003193601126102cf576102cc613280565b80f35b80fd5b50346102cf57806003193601126102cf576020602554604051908152f35b50346102cf57806003193601126102cf576020600c54604051908152f35b50346102cf57806003193601126102cf576006546040516001600160a01b039091168152602090f35b50346102cf57806003193601126102cf576020601b54604051908152f35b50346102cf57806003193601126102cf576009546040516001600160a01b039091168152602090f35b50346102cf5760403660031901126102cf5761039861240a565b60406103a2612420565b9260018060a01b03809316815260026020522091166000526020526020604060002054604051908152f35b50346102cf57806003193601126102cf57600b546040516001600160a01b039091168152602090f35b50346102cf576104053661245b565b90839594954211610530576104dc916104d49160018060a01b0394858a169687600052600460205260406000209081549161043f83612fbe565b90556040519060208201927f6e71edae12b1b97f4d1f60370fef10105fa2faae0126114a169c64845d6126c984528a6040840152898c1660608401528c608084015260a083015260c082015260c081526104988161259f565b5190206104a3612c87565b9060405190602082019261190160f01b845260228301526042820152604281526104cc81612584565b519020612f39565b919091612e3a565b16036104eb576102cc92613024565b60405162461bcd60e51b815260206004820152601e60248201527f45524332305065726d69743a20696e76616c6964207369676e617475726500006044820152606490fd5b60405162461bcd60e51b815260206004820152601d60248201527f45524332305065726d69743a206578706972656420646561646c696e650000006044820152606490fd5b50346102cf57806003193601126102cf576008546040516001600160a01b039091168152602090f35b50346102cf57806003193601126102cf5760206105b961308f565b604051908152f35b50346102cf57806003193601126102cf576020602654604051908152f35b50346102cf57806003193601126102cf576020601c54604051908152f35b50346102cf57806003193601126102cf57602060ff602354166040519015158152f35b50346102cf57806003193601126102cf57602254604080516001600160401b03808416825292821c909216602083015290f35b50346102cf57806003193601126102cf576020601854604051908152f35b50346102cf5760403660031901126102cf5761068b61240a565b60243580928115801590610742575b6106d2575b50506040519182526001600160a01b0316903390600080516020613eea83398151915290602090a3602060405160018152f35b338152600160205260408120546106eb83821015612db0565b6001600160a01b0384169033829003610706575b505061069f565b60409361071d91610718841515612df5565b6126bf565b3383526001602052838320558152206107378382546126cc565b9055813880806106ff565b50336001600160a01b0384161461069a565b50346102cf5760403660031901126102cf5761079a61077d61077461240a565b602435906127b9565b604080519384526020840192909252908201529081906060820190565b0390f35b50346102cf5760403660031901126102cf5760206105b96107bd61240a565b60243590612b24565b50346102cf576101603660031901126102cf576024356001600160a01b0381811691829003610b9b576001600160401b0390604435828111610b9757610811829136906004016124aa565b61081c939193612436565b906084359460a4359660c43598610838866005541633146125dd565b60043580610b5f575b5080610b21575b50826109ab575b50505016908161096b575b505080610953575b508061093b575b5080610924575b5060e43580610900575b5061010435806108dc575b5061012435806108b3575b50610144358061089e575080f35b6108ad620186a0821115612628565b601c5580f35b600080516020613e8a83398151915260406014548151908152836020820152a160145538610890565b6108ea620186a08210612628565b6108f76019548211612628565b601a5538610885565b61090e620186a08210612628565b61091b601a548210612628565b6019553861087a565b610932620186a08210612628565b601b5538610870565b61094a620186a0821115612628565b60185538610869565b610962620186a0821115612628565b60175538610862565b816008549182167f5a62d22209e370e38eea92cfddcd228e656e6ec139243392a760a7769f5877fd8880a36001600160a01b03191617600855388061085a565b90918093945011610b0d57908392916109c5601054612506565b601f8111610aad575b508890601f8311600114610a325789919083610a27575b50508160011b916000199060031b1c1916176010555b7fa6f004921c944d4b8bf6e38462b00f36a58d62495d56b51f571ab78f732c98158780a138808061084f565b0135905038806109e5565b60108a52601f19831694939291600080516020613f0a83398151915291908b60205b888210610a9157505083600195969710610a77575b505050811b016010556109fb565b0135600019600384901b60f8161c19169055388080610a69565b8383013585558997506001909401939182019190810190610a54565b60108a529293509091600080516020613f0a833981519152601f840160051c81019160208510610b03575b90601f8796959493920160051c01905b818110610af557506109ce565b8a8155869550600101610ae8565b9091508190610ad8565b634e487b7160e01b88526041600452602488fd5b600f80546001600160a01b0319169190911790557f0b2d6eb667d0522c3eb86e4288afecae6c11591ffd1345d4d12407e0598bca9b8a80a138610848565b610b6e620186a0821115612628565b600080516020613eaa8339815191526040601d548151908152836020820152a1601d5538610841565b8480fd5b8280fd5b50346102cf57806003193601126102cf576020601d54604051908152f35b50346102cf57806003193601126102cf576005546040516001600160a01b039091168152602090f35b50346102cf57806003193601126102cf576020601954604051908152f35b50346102cf5760203660031901126102cf576020906040906001600160a01b03610c2c61240a565b168152602183522054604051908152f35b50346102cf57806003193601126102cf57601254604080516001600160801b038316815260809290921c602083015290f35b50346102cf5760403660031901126102cf57610c96610c8c61240a565b6024359033612fcd565b602060405160018152f35b50346102cf5760203660031901126102cf576020906040906001600160a01b03610cc961240a565b168152600483522054604051908152f35b50346102cf57806003193601126102cf57600f546040516001600160a01b039091168152602090f35b50346102cf57806003193601126102cf576040516010548183610d2583612506565b808352600193808516908115610de35750600114610d98575b50610d4b925003826125ba565b60405180926020908183528351918281850152815b838110610d8157505060408094508284010152601f80199101168101030190f35b808601820151878201604001528694508101610d60565b60108652600080516020613f0a83398151915293602092508691905b818310610dcb575050610d4b935082010138610d3e565b85548784018501529485019486945091830191610db4565b9050610d4b94506020925060ff191682840152151560051b82010138610d3e565b50346102cf5760203660031901126102cf576004359060098210156102cf57602060ff610e30846124d7565b54166040519015158152f35b50346102cf5760203660031901126102cf57600435610e6660018060a01b036005541633146125dd565b600080516020613e8a83398151915260406014548151908152836020820152a160145580f35b50346102cf5760203660031901126102cf576020906040906001600160a01b03610eb461240a565b168152600183522054604051908152f35b50346102cf57806003193601126102cf57600a546040516001600160a01b039091168152602090f35b50346102cf57806003193601126102cf576020602454604051908152f35b50346102cf5760a03660031901126102cf57610f2661240a565b610f2e612436565b916084356001600160401b03811161134d57610f4e9036906004016124aa565b9290600660005260209460078652610f6e60ff6040600020541615613386565b610f7661290d565b5050610f80613280565b610f956001600160a01b038416301415613403565b600a5460405163433e762d60e01b8152908790829060049082906001600160a01b03165afa9081156112f957610fe691610fe1918791611320575b506001600160a01b038416906135d7565b613468565b610ff2602435846138d9565b6001600160a01b03831684526016865260408420805461101590602435906126bf565b90556110256024356013546126bf565b60135560405160243581526001600160a01b0382811691908516907f8ad4d3ff00da092c7ad9a573ea4f5f6a3dffc6712dc06d3f78f49b862297c402908990a360018060a01b0360095416600c54813b1561131c57604051630208d92960e11b81529186918391908290849082906110af90602435906001600160a01b038b1630600486016134af565b03925af180156112f957908591611304575b50506110ee610140600c54600e546040519384928392633d9545e960e11b845260243591600485016137ae565b03816001600160a01b0386165afa9081156112f957856040949392869282916112c8575b506111368651998a968795869463efa84c6d60e01b865260443590600487016137ee565b03926001600160a01b03165af19182156112855780938193611291575b50611162604435851015613897565b6001600160a01b03821681526015855260408120549061118982611184612793565b6139b7565b8660018060a01b0360095416916064600e546040519485938492638eb22cdd60e01b845260048401526024830152600160448301525afa918215611285579161124b575b506105b9936111f3939291116111f8576111e8908280613a15565b505b601154906134d9565b6133c3565b50611201612793565b80516001600160801b03908116611226575050611220845b8280613a15565b506111ea565b818161123d611246938a6112209601511689612668565b9151169061269f565b611219565b929190508583813d831161127e575b61126481836125ba565b810103126112795791519091906105b96111cd565b600080fd5b503d61125a565b604051903d90823e3d90fd5b9092506112b791935060403d6040116112c1575b6112af81836125ba565b8101906137d8565b9290929138611153565b503d6112a5565b6112ec91506101403d610140116112f2575b6112e481836125ba565b8101906136c4565b38611112565b503d6112da565b6040513d87823e3d90fd5b61130d90612540565b6113185783386110c1565b8380fd5b8580fd5b6113409150893d8b11611346575b61133881836125ba565b81019061344e565b38610fd0565b503d61132e565b5080fd5b50346102cf57806003193601126102cf576020601a54604051908152f35b50346102cf57806003193601126102cf576020601e54604051908152f35b50346102cf5760203660031901126102cf576004356113b760018060a01b036005541633146125dd565b6113c6620186a0821115612628565b600080516020613eaa8339815191526040601d548151908152836020820152a1601d5580f35b50346102cf57806003193601126102cf576006546001600160a01b0390818116338190036114445780600554938416600080516020613eca8339815191528680a36001600160a01b0319928316176005551660065580f35b606460405162461bcd60e51b815260206004820152602060248201527f4f776e61626c653a2063616c6c657220213d2070656e64696e67206f776e65726044820152fd5b50346102cf5760203660031901126102cf576020906040906001600160a01b036114b061240a565b168152601583522054604051908152f35b50346102cf57806003193601126102cf576020601354604051908152f35b50346102cf57806003193601126102cf576020600e54604051908152f35b50346102cf57806003193601126102cf576020601454604051908152f35b50346102cf5760603660031901126102cf5760206105b96044356024356004356126d9565b50346102cf57806003193601126102cf576020601154604051908152f35b50346102cf57806003193601126102cf57600d546040516001600160a01b039091168152602090f35b50346102cf57806003193601126102cf5760206105b9612c87565b50346102cf57806003193601126102cf576020601754604051908152f35b50346102cf57806003193601126102cf576012546040516001600160801b039091168152602090f35b50346102cf5760603660031901126102cf5761160361240a565b9061160c612420565b604435918261164a575b506040519182526001600160a01b03908116921690600080516020613eea83398151915290602090a3602060405160018152f35b6001600160a01b0384811680835260016020908152604084205492869061167382861015612db0565b861693848403611688575b5050505050611616565b838652600283526040862033600052835260406000205460001981036116f6575b50926001602096936116d48794604097610718600080516020613eea8339815191529c9a1515612df5565b92855252838320558152206116ea8582546126cc565b9055913880858161167e565b9091811061174c57926001602096936116d48a600080516020613eea8339815191529a98956117278260409a6126bf565b86895260028552898920336000528552896000205594975094979950509396506116a9565b60405162461bcd60e51b815260048101849052601860248201527745524332303a20616c6c6f77616e636520746f6f206c6f7760401b6044820152606490fd5b50346102cf57806003193601126102cf576020602754604051908152f35b50346102cf5760c03660031901126102cf576117c461240a565b90608435906001600160a01b03821682036102cf5760a4356001600160401b03811161134d576117f89036906004016124aa565b9260058352600760205261181360ff60408520541615613386565b61181b61290d565b5050611825613280565b61183a6001600160a01b038616301415613403565b600a5460405163433e762d60e01b815290602090829060049082906001600160a01b03165afa908115611e045761188691610fe191869161203c57506001600160a01b038416906135d7565b600954600e54604051638eb22cdd60e01b815260048101829052604480356024830152600190820152916001600160a01b031690602083606481855afa928315611e45578693612008575b5082611fa9575b5050620186a06118ec601d54602435612668565b0460018060a01b038316855260216020526040852061190c8282546126cc565b9055611916612793565b90611923816024356126cc565b916000602060405161193481612569565b828152015280516001600160801b03908116611f4d578061195b81865b1682855116613267565b16825280602083019261197382871683865116613267565b938285169052511691886012549160801b9116928960018060801b03199182841681871717601255601454948515968715611f37575b5050505050505015611ef4576001600160a01b038816865260156020526040862080546119d79084906126cc565b905560408051602435815260208101929092528101919091526001600160a01b0383811691908816907f3a5151e57d3bc9798e7853034ac52293d1a0e12a2b44725e75b03b21f86477a690606090a3600d546001600160a01b0316803b15610b97578460405180926340c10f1960e01b8252818381611a5c602435306004840161396d565b03925af180156112f957908591611ee0575b50600d5460095460405163095ea7b360e01b81526001600160a01b0391821660048201526024810184905292602092849260449284929091165af180156112f957611ea7575b50600d5460095460405163095ea7b360e01b81529160209183916001600160a01b039081169183918a918391611af29160243591166004840161396d565b03925af180156112f957611e6e575b50600954600e5460408051634d4d7cbd60e11b815292909183916001600160a01b039081169183918a918391611b4391602435918c1690309060048601613988565b03925af180156112f957611e50575b50606460018060a01b0360095416916020600e549360405193848092638eb22cdd60e01b825287600483015260243560248301528a60448301525afa918215611e45578692611e0f575b50611bad61014092600c54926126cc565b92611bcc6040519485938493633d9545e960e11b8552600485016137ae565b03816001600160a01b0386165afa908115611e045784604094939288928291611de3575b50611c1486519889968795869463efa84c6d60e01b865260643590600487016137ee565b03926001600160a01b03165af19081156112855780928192611dbf575b50611c40606435841015613897565b611c4a82856138d9565b8115611d40575b6001600160a01b03841681526016602052604081208054611c739084906126cc565b9055611c81826013546126cc565b601355600c546009546001600160a01b031690813b15610b9b5783611cc292849283604051809681958294630208d92960e11b84528d3090600486016134af565b03925af18015611d3557611d21575b60405183815260209085906105b9906111f39089906001600160a01b0382169081907f9ed03113de523cebfe5e49d5f8e12894b1c0d42ce805990461726444c90eab87908890a3601154906134d9565b611d2b8291612540565b6102cf5780611cd1565b6040513d84823e3d90fd5b905060018060a01b03600954166020600c54606460405180948193638eb22cdd60e01b835260048301528660248301528660448301525afa908115611d35578291611d8d575b5090611c51565b90506020813d602011611db7575b81611da8602093836125ba565b81010312611279575138611d86565b3d9150611d9b565b909250611ddb915060403d6040116112c1576112af81836125ba565b909138611c31565b611dfe91506101403d610140116112f2576112e481836125ba565b38611bf0565b6040513d86823e3d90fd5b91506020823d602011611e3d575b81611e2a602093836125ba565b8101031261127957905190611bad611b9c565b3d9150611e1d565b6040513d88823e3d90fd5b611e689060403d6040116112c1576112af81836125ba565b50611b52565b6020813d602011611e9f575b81611e87602093836125ba565b81010312610b9757611e9890612900565b5038611b01565b3d9150611e7a565b6020813d602011611ed8575b81611ec0602093836125ba565b81010312610b9757611ed190612900565b5038611ab4565b3d9150611eb3565b611ee990612540565b611318578338611a6e565b60405162461bcd60e51b815260206004820152601b60248201527a109a59d0985b99ce88189bdc9c9bddc818d85c081c995858da1959602a1b6044820152606490fd5b16179216161711159050388080898180806119a9565b602082019380611f7f611f70611f668589511684612668565b858751169061269f565b968461123d818851168a612668565b10611f90575b61195b828092611951565b9361195b82611f9f8193612fbe565b9692505050611f85565b813b1561131c5782611fe0928792838b60405196879586948593630208d92960e11b855260018060a01b038d1690600486016134af565b03925af180156112f957611ff5575b806118d8565b61200190949194612540565b9238611fef565b9092506020813d602011612034575b81612024602093836125ba565b8101031261131c575191386118d1565b3d9150612017565b611340915060203d6020116113465761133881836125ba565b50346102cf576120643661245b565b90839594954211610530576120f5916104d49160018060a01b0394858a1696878c52600460205260408c209081549161209c83612fbe565b90556040519060208201927fe9685ff6d48c617fe4f692c50e602cce27cbad0290beb93cfa77eac43968d58c84528a6040840152898c1660608401528c608084015260a083015260c082015260c081526104988161259f565b16036104eb576102cc92612fcd565b50346102cf5760203660031901126102cf576020906040906001600160a01b0361212c61240a565b168152601683522054604051908152f35b50346102cf57806003193601126102cf57602090604051908152f35b50346102cf5760403660031901126102cf57600435600981101561134d5761217f61244c565b6008549091906001600160a01b031633036122455760ff61219f826124d7565b5416151591151591821461220b57807feeec81de25875ce1725479bb76f720a8defdb43dea041919ae37bb4aae9847c0606060ff6121df6121fb956124d7565b54166040519084825215156020820152856040820152a16124d7565b9060ff8019835416911617905580f35b60405162461bcd60e51b81526020600482015260126024820152714d61726b65743a2073616d6520737461746560701b6044820152606490fd5b60405162461bcd60e51b815260206004820152601460248201527313585c9ad95d0e881d5b985d5d1a1bdc9a5e995960621b6044820152606490fd5b50346102cf5760403660031901126102cf57610c9661229e61240a565b6024359033613024565b50346102cf5760603660031901126102cf576122c261240a565b6122ca61244c565b6044359081151582036113185760018060a01b039283916122f0836005541633146125dd565b1561238257169081159081159161237a575b501561233d5780600554928316600080516020613eca8339815191528580a36001600160a01b03199182161760055560068054909116905580f35b60405162461bcd60e51b81526020600482015260156024820152744f776e61626c653a207a65726f206164647265737360581b6044820152606490fd5b905038612302565b9150501660018060a01b0319600654161760065580f35b50346102cf57806003193601126102cf5760406123b461290d565b825191151582526020820152f35b90503461134d57604036600319011261134d5760406020926123e261240a565b6123ea612420565b6001600160a01b0391821683526003865283832091168252845220548152f35b600435906001600160a01b038216820361127957565b602435906001600160a01b038216820361127957565b606435906001600160a01b038216820361127957565b60243590811515820361127957565b60e0906003190112611279576001600160a01b03906004358281168103611279579160243590811681036112795790604435906064359060843560ff81168103611279579060a4359060c43590565b9181601f84011215611279578235916001600160401b038311611279576020838186019501011161127957565b60098110156124f0576000526007602052604060002090565b634e487b7160e01b600052602160045260246000fd5b90600182811c92168015612536575b602083101461252057565b634e487b7160e01b600052602260045260246000fd5b91607f1691612515565b6001600160401b03811161255357604052565b634e487b7160e01b600052604160045260246000fd5b604081019081106001600160401b0382111761255357604052565b608081019081106001600160401b0382111761255357604052565b60e081019081106001600160401b0382111761255357604052565b601f909101601f19168101906001600160401b0382119082101761255357604052565b156125e457565b606460405162461bcd60e51b815260206004820152602060248201527f4f776e61626c653a2063616c6c6572206973206e6f7420746865206f776e65726044820152fd5b1561262f57565b60405162461bcd60e51b815260206004820152601160248201527013585c9ad95d0e881b9bdd081d985b1a59607a1b6044820152606490fd5b8181029291811591840414171561267b57565b634e487b7160e01b600052601160045260246000fd5b604d811161267b57600a0a90565b81156126a9570490565b634e487b7160e01b600052601260045260246000fd5b9190820391821161267b57565b9190820180921161267b57565b9190916126fb6126ec601c548095612668565b6126f584612691565b9061269f565b9081811061278a5761274b91612710916126bf565b9261274561273c61272085612691565b9261273661272d87612691565b601e54906126cc565b90612668565b6126f585612691565b906126bf565b90601203906012821161267b5761273661276492612691565b670de0b6b3a76400009182810292818404149015171561267b576127879161269f565b90565b50505050600090565b604051906127a082612569565b6012546001600160801b038116835260801c6020830152565b6001600160a01b039081166000818152601560209081526040822054929594939192909181156128f3576127eb612793565b906127f7861515612a1c565b6009541683600c5489875260168252606461282a61282160408a2054620186a0601f540490612668565b601c5490612668565b91604051948593849263442c159960e01b8452600484015260248301528960448301525afa9081156112f95785916128c4575b509285949261289c6016936128776128b89960409861269f565b815190936001600160801b0391869161289291841690612668565b920151169061269f565b908082106128bc576128ad916126bf565b978352522054612a68565b9091565b5050826128ad565b90508381813d83116128ec575b6128db81836125ba565b81010312610b9757516128b861285d565b503d6128d1565b5050509192505080918190565b5190811515820361127957565b60018060a01b03600f541690604090815163d6d7d52560e01b8152602060048201528281604481600080988160248401525af1908115612a0f578480926129d1575b505091836000146129c957821561298f5760207f9f9192b5edb17356c524e08d9e025c8e2f6307e6ea52fb7968faa3081f51c3c8918460115551848152a1565b5162461bcd60e51b81526020600482015260146024820152734d61726b65743a20696e76616c6964207261746560601b6044820152606490fd5b506011549150565b915093508284813d8311612a08575b6129ea81836125ba565b810103126102cf575060206129fe84612900565b930151388061294f565b503d6129e0565b50505051903d90823e3d90fd5b15612a2357565b60405162461bcd60e51b815260206004820152601e60248201527f4d61726b65743a2065786368616e676552617465206e6f742076616c696400006044820152606490fd5b612a73821515612a1c565b602060018060a01b0360095416916064600c54604051948593849263442c159960e01b845260048401526024830152600060448301525afa908115612b1857600091612ae5575b5090612acc612ad192601f5490612668565b61269f565b620186a0612ae1601c5483612668565b0491565b906020823d8211612b10575b81612afe602093836125ba565b810103126102cf575051612acc612aba565b3d9150612af1565b6040513d6000823e3d90fd5b6001600160a01b03166000818152601660205260408120549092612b4791612a68565b918352601560205260408320548015612c81578115612c8157818110612c815782811015612c7757601254612b9a91839161071891612b90906001600160801b03831690612668565b9060801c9061269f565b90620186a09283830292808404851490151715612c4f57612bbf92916126f5916126bf565b9160195491601a54938484039083861285831281169086841390151617612c635781810291848112600160ff1b831416612c4f578205148585141715612c3b5705818482019485129112908015821691151617612c275750808212612c22575090565b905090565b634e487b7160e01b81526011600452602490fd5b634e487b7160e01b83526011600452602483fd5b634e487b7160e01b85526011600452602485fd5b634e487b7160e01b84526011600452602484fd5b5050505060195490565b50505090565b307f00000000000000000000000000000000000000000000000000000000000000006001600160a01b03161480612d87575b15612ce2577f000000000000000000000000000000000000000000000000000000000000000090565b60405160208101907f000000000000000000000000000000000000000000000000000000000000000082527f000000000000000000000000000000000000000000000000000000000000000060408201527f000000000000000000000000000000000000000000000000000000000000000060608201524660808201523060a082015260a0815260c0810181811060018060401b038211176125535760405251902090565b507f00000000000000000000000000000000000000000000000000000000000000004614612cb9565b15612db757565b60405162461bcd60e51b815260206004820152601660248201527545524332303a2062616c616e636520746f6f206c6f7760501b6044820152606490fd5b15612dfc57565b60405162461bcd60e51b815260206004820152601660248201527545524332303a206e6f207a65726f206164647265737360501b6044820152606490fd5b60058110156124f05780612e4b5750565b60018103612e935760405162461bcd60e51b815260206004820152601860248201527745434453413a20696e76616c6964207369676e617475726560401b6044820152606490fd5b60028103612ee05760405162461bcd60e51b815260206004820152601f60248201527f45434453413a20696e76616c6964207369676e6174757265206c656e677468006044820152606490fd5b600314612ee957565b60405162461bcd60e51b815260206004820152602260248201527f45434453413a20696e76616c6964207369676e6174757265202773272076616c604482015261756560f01b6064820152608490fd5b9291906fa2a8918ca85bafe22016d0b997e4df60600160ff1b038311612fb25791608094939160ff602094604051948552168484015260408301526060820152600093849182805260015afa15612fa55781516001600160a01b03811615612f9f579190565b50600190565b50604051903d90823e3d90fd5b50505050600090600390565b600019811461267b5760010190565b909160207fe50de2333c10a9502fcb1d8ae13a51bbf423153dfc63c2b8997665b32154afc39160018060a01b03809416938460005260038352604060002095169485600052825280604060002055604051908152a3565b909160207f8c5be1e5ebec7d5bd14f71427d1e84f3dd0314c0f7b2291e5b200ac8c7c3b9259160018060a01b03809416938460005260028352604060002095169485600052825280604060002055604051908152a3565b51906001600160a01b038216820361127957565b60ff60235416613201576012546001600160801b03169081156131fa57600a54604051631848f2bf60e31b8152602093916001600160a01b03919085908290600490829086165afa8015612b185785916000916131c5575b50600460405180948193631a674cc560e11b8352165afa938415612b1857600094613196575b50506131299192670de0b6b3a764000092839160265490612668565b04908181101561318d5761314060275480926126bf565b8381029080820485149015171561267b576126f561316192613181946126bf565b6024549261317b6025549261317684876126bf565b612668565b046126cc565b90808211612c22575090565b50505060245490565b81813d83116131be575b6131aa81836125ba565b81010312611318575192506131293861310d565b503d6131a0565b9182813d83116131f3575b6131da81836125ba565b810103126102cf57506131ed859161307b565b386130e7565b503d6131d0565b6025549150565b600a5460405163e6abad4960e01b815290602090829060049082906001600160a01b03165afa908115612b1857600091613239575090565b906020823d821161325f575b81613252602093836125ba565b810103126102cf57505190565b3d9150613245565b6001600160801b03918216908216019190821161267b57565b60405161328c81612569565b60225460018060401b03908181168352818160401c16926132b46020820194808652426126bf565b91821561337f577f7484db546dcd57af0104c73c8a6968dfbaf5767f047cee0dadd0499ad7df81a094846020936040966301e133806132f161308f565b041681528142168352613302612793565b670de0b6b3a764000061332760018060801b03986131768a8551168787511690612668565b049661333881891682845116613267565b1680825295015160801b6001600160801b031990811690951760125551915192909316921691821790841b6001851b600160801b03161760225582519182526020820152a1565b5050505050565b1561338d57565b60405162461bcd60e51b815260206004820152600e60248201526d13585c9ad95d0e881c185d5cd95960921b6044820152606490fd5b156133ca57565b60405162461bcd60e51b815260206004820152601160248201527013585c9ad95d0e881a5b9cdbdb1d995b9d607a1b6044820152606490fd5b1561340a57565b606460405162461bcd60e51b815260206004820152602060248201527f4d61726b65743a2063616e6e6f742065786563757465206f6e20697473656c666044820152fd5b90816020910312611279575161ffff811681036112795790565b1561346f57565b60405162461bcd60e51b81526020600482015260186024820152772134b3a130b7339d1024b73b30b634b21039bbb0b83832b960411b6044820152606490fd5b6001600160a01b039182168152911660208201526040810191909152606081019190915260800190565b91909160018060a01b038060009216825260206015815260408320549081156135cd5760168152604084205480156135c45781613514612793565b9460095416916064613534612821600c5493620186a0601f540490612668565b91604051948593849263442c159960e01b8452600484015260248301528960448301525afa94851561128557809561358c575b505061289261358794959661317660018060801b03948587511690612668565b111590565b909694508187813d83116135bd575b6135a581836125ba565b810103126102cf575094519294612892613587613567565b503d61359b565b50929450505050565b5060019450505050565b600a5460405163dbd01de160e01b815260209290916001600160a01b039084908490600490829085165afa8015612b18578493600091613686575b50918161ffff936044936040519889968795633a304d8b60e21b8752166004860152166024840152165afa908115612b1857600091613652575b50905090565b82813d831161367f575b61366681836125ba565b810103126102cf575061367890612900565b803861364c565b503d61365c565b9091929381813d83116136bd575b61369e81836125ba565b8101031261134d57519082821682036102cf5750839291906044613612565b503d613694565b809103906101408212611279576040805192606084016001600160401b0381118582101761255357808352608082126112795761370081612584565b6137098461307b565b81526020840151608086015261372083850161307b565b60a0860152606084015160c086015284526080607f19820112611279578190815161374a81612584565b6080850151815260a0850151602082015260c08501518382015260e08501516060820152602086015260ff190112611279576137a361012082519361378e85612569565b61379b6101008201612900565b855201612900565b602083015282015290565b60a091949360019360c0830196835260208301526000604083015260608201528260808201520152565b9190826040910312611279576020825192015190565b939492909160206040845194606060018060a01b0396878151168a5284810151858b0152878482015116848b015201516060890152606083820151805160808b01528481015160a08b01528381015160c08b0152015160e08901520151805115156101008801520151151561012086015261014085015216610160830152806101a080610180850152830152806101c093848401376000828201840152601f01601f1916010190565b1561389e57565b60405162461bcd60e51b8152602060048201526013602482015272084d2ce84c2dcce7440dcdee840cadcdeeaced606b1b6044820152606490fd5b6001600160a01b03163381036138ed575050565b60009080825260036020526040822033835260205282604083205410613931578160409161392d93526003602052818120338252602052209182546126bf565b9055565b60405162461bcd60e51b815260206004820152601460248201527313585c9ad95d0e881b9bdd08185c1c1c9bdd995960621b6044820152606490fd5b6001600160a01b039091168152602081019190915260400190565b9081526001600160a01b0391821660208201529116604082015260608101919091526000608082015260a00190565b60208101805190939291906001600160801b039081166139d8575090925050565b908161123d816139fb6139f1613a049686511688612668565b828a51169061269f565b97511687612668565b10613a0b57565b9061278790612fbe565b929060018060a01b0392838216916000948386526020966015885260409283882054808611613cb8575b508415613c7c5784613a5091613cd9565b9380851015613c4057879886895260218152848920613a708782546126bf565b9055613a7a612793565b9589828751613a8881612569565b8281520152613a9783886139b7565b9660018060801b0380613aaf818b1682855116613cc0565b16825283820190613ac581871682845116613cc0565b918183169052899251169060018060801b03199060801b1617601255888b5260158352868b20613af68582546126bf565b9055613b288789809d896009541690600e54908a8551968795869485936311a5cc7760e31b8552309160048601613988565b03925af18015613c365790613b55939291613c1a575b50613b49858a6126bf565b80613bf7575b506126bf565b80613b7e575b50600080516020613e6a83398151915295969798995084519687528601521692a3565b8a9085600d541690813b15610b9b578291613baf918951948580948193632770a7eb60e21b8352306004840161396d565b03925af18015613bed57600080516020613e6a8339815191529798999a9b50613bde575b8a9998979650613b5b565b613be790612540565b38613bd3565b86513d8d823e3d90fd5b613c149150613c0d620186a09160185490612668565b04896126bf565b38613b4f565b613c3090893d8b116112c1576112af81836125ba565b50613b3e565b88513d8f823e3d90fd5b835162461bcd60e51b8152600481018a9052601560248201527442423a2072657061796d656e7420746f6f206c6f7760581b6044820152606490fd5b835162461bcd60e51b8152600481018a9052601560248201527453474c3a206e6f7468696e6720746f20726570617960581b6044820152606490fd5b945038613a3f565b6001600160801b03918216908216039190821161267b57565b6001600160a01b039081166000818152601560209081526040808320549395909492939192828214613e0f57848091600d541687518681019063313ce56760e01b825260048152613d2981612569565b51915afa3d15613e07573d906001600160401b038211613df357865191613d59601f8201601f19168701846125ba565b82523d868684013e5b80613de9575b15613ddb578381805181010312610b975783015160ff81168103610b97579060ff613d97925b16928391613e1e565b8015613dd257602192916126f5613dbb613dc1938988528686528888205490612668565b91612691565b948352522054808211612c22575090565b50505091505090565b50613d979060ff6012613d8e565b5083815114613d68565b634e487b7160e01b86526041600452602486fd5b606090613d62565b50505060219192935052205490565b9182158015613e61575b613e59576001810180911161267b57613e4792612736612acc92612691565b6005810180911161267b57600a900490565b505050600090565b508115613e2856fec8e512d8f188ca059984b5853d2bf653da902696b8512785b182b2c813789a6eae6e0ab3b95f0a53ff9660a390ccedcbbf1f2355dce974a9841af106fddcfabac353b09af857951dccce61b43a5854fc45beceed36c50e5d4cc2e71858a8e0df8be0079c531659141344cd1fd0a4f28419497f9722a3daafe3b4186f6b6457e0ddf252ad1be2c89b69c2b068fc378daa952ba7f163c4a11628f55a4df523b3ef1b6847dc741a1b0cd08d278845f9d819d87b734759afb55fe2de5cb82a9ae672a26469706673582212201b11ac75b88e6f87910f5c3c9ef2e9ceda31771b79471853ca32bebe6f46b16564736f6c63430008120033",
  "linkReferences": {},
  "deployedLinkReferences": {}
}