{
  "_format": "hh-sol-artifact-1",
  "contractName": "BBLiquidation",
  "sourceName": "contracts/markets/bigBang/BBLiquidation.sol",
  "abi": [
    {
      "anonymous": false,
      "inputs": [
        {
          "indexed": true,
          "internalType": "address",
          "name": "owner",
          "type": "address"
        },
        {
          "indexed": true,
          "internalType": "address",
          "name": "spender",
          "type": "address"
        },
        {
          "indexed": false,
          "internalType": "uint256",
          "name": "value",
          "type": "uint256"
        }
      ],
      "name": "Approval",
      "type": "event"
    },
    {
      "anonymous": false,
      "inputs": [
        {
          "indexed": true,
          "internalType": "address",
          "name": "owner",
          "type": "address"
        },
        {
          "indexed": true,
          "internalType": "address",
          "name": "spender",
          "type": "address"
        },
        {
          "indexed": false,
          "internalType": "uint256",
          "name": "value",
          "type": "uint256"
        }
      ],
      "name": "ApprovalBorrow",
      "type": "event"
    },
    {
      "anonymous": false,
      "inputs": [
        {
          "indexed": true,
          "internalType": "address",
          "name": "old",
          "type": "address"
        },
        {
          "indexed": true,
          "internalType": "address",
          "name": "_new",
          "type": "address"
        }
      ],
      "name": "ConservatorUpdated",
      "type": "event"
    },
    {
      "anonymous": false,
      "inputs": [
        {
          "indexed": false,
          "internalType": "uint256",
          "name": "oldVal",
          "type": "uint256"
        },
        {
          "indexed": false,
          "internalType": "uint256",
          "name": "newVal",
          "type": "uint256"
        }
      ],
      "name": "DebtRateAgainstEthUpdated",
      "type": "event"
    },
    {
      "anonymous": false,
      "inputs": [
        {
          "indexed": true,
          "internalType": "address",
          "name": "liquidator",
          "type": "address"
        },
        {
          "indexed": false,
          "internalType": "address[]",
          "name": "users",
          "type": "address[]"
        },
        {
          "indexed": false,
          "internalType": "uint256",
          "name": "liquidatorReward",
          "type": "uint256"
        },
        {
          "indexed": false,
          "internalType": "uint256",
          "name": "protocolReward",
          "type": "uint256"
        },
        {
          "indexed": false,
          "internalType": "uint256",
          "name": "repayedAmount",
          "type": "uint256"
        },
        {
          "indexed": false,
          "internalType": "uint256",
          "name": "collateralShareRemoved",
          "type": "uint256"
        }
      ],
      "name": "Liquidated",
      "type": "event"
    },
    {
      "anonymous": false,
      "inputs": [
        {
          "indexed": false,
          "internalType": "uint256",
          "name": "oldVal",
          "type": "uint256"
        },
        {
          "indexed": false,
          "internalType": "uint256",
          "name": "newVal",
          "type": "uint256"
        }
      ],
      "name": "LiquidationMultiplierUpdated",
      "type": "event"
    },
    {
      "anonymous": false,
      "inputs": [
        {
          "indexed": false,
          "internalType": "uint256",
          "name": "accruedAmount",
          "type": "uint256"
        },
        {
          "indexed": false,
          "internalType": "uint64",
          "name": "rate",
          "type": "uint64"
        }
      ],
      "name": "LogAccrue",
      "type": "event"
    },
    {
      "anonymous": false,
      "inputs": [
        {
          "indexed": true,
          "internalType": "address",
          "name": "from",
          "type": "address"
        },
        {
          "indexed": true,
          "internalType": "address",
          "name": "to",
          "type": "address"
        },
        {
          "indexed": false,
          "internalType": "uint256",
          "name": "share",
          "type": "uint256"
        }
      ],
      "name": "LogAddCollateral",
      "type": "event"
    },
    {
      "anonymous": false,
      "inputs": [
        {
          "indexed": true,
          "internalType": "address",
          "name": "from",
          "type": "address"
        },
        {
          "indexed": true,
          "internalType": "address",
          "name": "to",
          "type": "address"
        },
        {
          "indexed": false,
          "internalType": "uint256",
          "name": "amount",
          "type": "uint256"
        },
        {
          "indexed": false,
          "internalType": "uint256",
          "name": "feeAmount",
          "type": "uint256"
        },
        {
          "indexed": false,
          "internalType": "uint256",
          "name": "part",
          "type": "uint256"
        }
      ],
      "name": "LogBorrow",
      "type": "event"
    },
    {
      "anonymous": false,
      "inputs": [
        {
          "indexed": false,
          "internalType": "uint256",
          "name": "_oldVal",
          "type": "uint256"
        },
        {
          "indexed": false,
          "internalType": "uint256",
          "name": "_newVal",
          "type": "uint256"
        }
      ],
      "name": "LogBorrowCapUpdated",
      "type": "event"
    },
    {
      "anonymous": false,
      "inputs": [
        {
          "indexed": false,
          "internalType": "uint256",
          "name": "_oldVal",
          "type": "uint256"
        },
        {
          "indexed": false,
          "internalType": "uint256",
          "name": "_newVal",
          "type": "uint256"
        }
      ],
      "name": "LogBorrowingFee",
      "type": "event"
    },
    {
      "anonymous": false,
      "inputs": [
        {
          "indexed": false,
          "internalType": "uint256",
          "name": "rate",
          "type": "uint256"
        }
      ],
      "name": "LogExchangeRate",
      "type": "event"
    },
    {
      "anonymous": false,
      "inputs": [
        {
          "indexed": true,
          "internalType": "address",
          "name": "from",
          "type": "address"
        },
        {
          "indexed": true,
          "internalType": "address",
          "name": "to",
          "type": "address"
        },
        {
          "indexed": false,
          "internalType": "uint256",
          "name": "share",
          "type": "uint256"
        }
      ],
      "name": "LogRemoveCollateral",
      "type": "event"
    },
    {
      "anonymous": false,
      "inputs": [
        {
          "indexed": true,
          "internalType": "address",
          "name": "from",
          "type": "address"
        },
        {
          "indexed": true,
          "internalType": "address",
          "name": "to",
          "type": "address"
        },
        {
          "indexed": false,
          "internalType": "uint256",
          "name": "amount",
          "type": "uint256"
        },
        {
          "indexed": false,
          "internalType": "uint256",
          "name": "part",
          "type": "uint256"
        }
      ],
      "name": "LogRepay",
      "type": "event"
    },
    {
      "anonymous": false,
      "inputs": [
        {
          "indexed": false,
          "internalType": "uint256",
          "name": "oldVal",
          "type": "uint256"
        },
        {
          "indexed": false,
          "internalType": "uint256",
          "name": "newVal",
          "type": "uint256"
        }
      ],
      "name": "MaxDebtRateUpdated",
      "type": "event"
    },
    {
      "anonymous": false,
      "inputs": [
        {
          "indexed": false,
          "internalType": "uint256",
          "name": "oldVal",
          "type": "uint256"
        },
        {
          "indexed": false,
          "internalType": "uint256",
          "name": "newVal",
          "type": "uint256"
        }
      ],
      "name": "MinDebtRateUpdated",
      "type": "event"
    },
    {
      "anonymous": false,
      "inputs": [],
      "name": "OracleDataUpdated",
      "type": "event"
    },
    {
      "anonymous": false,
      "inputs": [],
      "name": "OracleUpdated",
      "type": "event"
    },
    {
      "anonymous": false,
      "inputs": [
        {
          "indexed": true,
          "internalType": "address",
          "name": "previousOwner",
          "type": "address"
        },
        {
          "indexed": true,
          "internalType": "address",
          "name": "newOwner",
          "type": "address"
        }
      ],
      "name": "OwnershipTransferred",
      "type": "event"
    },
    {
      "anonymous": false,
      "inputs": [
        {
          "indexed": false,
          "internalType": "enum Market.PauseType",
          "name": "_type",
          "type": "uint8"
        },
        {
          "indexed": false,
          "internalType": "bool",
          "name": "oldState",
          "type": "bool"
        },
        {
          "indexed": false,
          "internalType": "bool",
          "name": "newState",
          "type": "bool"
        }
      ],
      "name": "PausedUpdated",
      "type": "event"
    },
    {
      "anonymous": false,
      "inputs": [
        {
          "indexed": true,
          "internalType": "address",
          "name": "from",
          "type": "address"
        },
        {
          "indexed": true,
          "internalType": "address",
          "name": "to",
          "type": "address"
        },
        {
          "indexed": false,
          "internalType": "uint256",
          "name": "value",
          "type": "uint256"
        }
      ],
      "name": "Transfer",
      "type": "event"
    },
    {
      "inputs": [],
      "name": "DOMAIN_SEPARATOR",
      "outputs": [
        {
          "internalType": "bytes32",
          "name": "",
          "type": "bytes32"
        }
      ],
      "stateMutability": "view",
      "type": "function"
    },
    {
      "inputs": [],
      "name": "accrue",
      "outputs": [],
      "stateMutability": "nonpayable",
      "type": "function"
    },
    {
      "inputs": [],
      "name": "accrueInfo",
      "outputs": [
        {
          "internalType": "uint64",
          "name": "debtRate",
          "type": "uint64"
        },
        {
          "internalType": "uint64",
          "name": "lastAccrued",
          "type": "uint64"
        }
      ],
      "stateMutability": "view",
      "type": "function"
    },
    {
      "inputs": [
        {
          "internalType": "address",
          "name": "",
          "type": "address"
        },
        {
          "internalType": "address",
          "name": "",
          "type": "address"
        }
      ],
      "name": "allowance",
      "outputs": [
        {
          "internalType": "uint256",
          "name": "",
          "type": "uint256"
        }
      ],
      "stateMutability": "view",
      "type": "function"
    },
    {
      "inputs": [
        {
          "internalType": "address",
          "name": "",
          "type": "address"
        },
        {
          "internalType": "address",
          "name": "",
          "type": "address"
        }
      ],
      "name": "allowanceBorrow",
      "outputs": [
        {
          "internalType": "uint256",
          "name": "",
          "type": "uint256"
        }
      ],
      "stateMutability": "view",
      "type": "function"
    },
    {
      "inputs": [
        {
          "internalType": "address",
          "name": "spender",
          "type": "address"
        },
        {
          "internalType": "uint256",
          "name": "amount",
          "type": "uint256"
        }
      ],
      "name": "approve",
      "outputs": [
        {
          "internalType": "bool",
          "name": "",
          "type": "bool"
        }
      ],
      "stateMutability": "nonpayable",
      "type": "function"
    },
    {
      "inputs": [
        {
          "internalType": "address",
          "name": "spender",
          "type": "address"
        },
        {
          "internalType": "uint256",
          "name": "amount",
          "type": "uint256"
        }
      ],
      "name": "approveBorrow",
      "outputs": [
        {
          "internalType": "bool",
          "name": "",
          "type": "bool"
        }
      ],
      "stateMutability": "nonpayable",
      "type": "function"
    },
    {
      "inputs": [],
      "name": "asset",
      "outputs": [
        {
          "internalType": "contract IERC20",
          "name": "",
          "type": "address"
        }
      ],
      "stateMutability": "view",
      "type": "function"
    },
    {
      "inputs": [],
      "name": "assetId",
      "outputs": [
        {
          "internalType": "uint256",
          "name": "",
          "type": "uint256"
        }
      ],
      "stateMutability": "view",
      "type": "function"
    },
    {
      "inputs": [
        {
          "internalType": "address",
          "name": "",
          "type": "address"
        }
      ],
      "name": "balanceOf",
      "outputs": [
        {
          "internalType": "uint256",
          "name": "",
          "type": "uint256"
        }
      ],
      "stateMutability": "view",
      "type": "function"
    },
    {
      "inputs": [],
      "name": "borrowOpeningFee",
      "outputs": [
        {
          "internalType": "uint256",
          "name": "",
          "type": "uint256"
        }
      ],
      "stateMutability": "view",
      "type": "function"
    },
    {
      "inputs": [],
      "name": "callerFee",
      "outputs": [
        {
          "internalType": "uint256",
          "name": "",
          "type": "uint256"
        }
      ],
      "stateMutability": "view",
      "type": "function"
    },
    {
      "inputs": [],
      "name": "claimOwnership",
      "outputs": [],
      "stateMutability": "nonpayable",
      "type": "function"
    },
    {
      "inputs": [],
      "name": "collateral",
      "outputs": [
        {
          "internalType": "contract IERC20",
          "name": "",
          "type": "address"
        }
      ],
      "stateMutability": "view",
      "type": "function"
    },
    {
      "inputs": [],
      "name": "collateralId",
      "outputs": [
        {
          "internalType": "uint256",
          "name": "",
          "type": "uint256"
        }
      ],
      "stateMutability": "view",
      "type": "function"
    },
    {
      "inputs": [],
      "name": "collateralizationRate",
      "outputs": [
        {
          "internalType": "uint256",
          "name": "",
          "type": "uint256"
        }
      ],
      "stateMutability": "view",
      "type": "function"
    },
    {
      "inputs": [
        {
          "internalType": "uint256",
          "name": "borrowPart",
          "type": "uint256"
        },
        {
          "internalType": "uint256",
          "name": "collateralPartInAsset",
          "type": "uint256"
        },
        {
          "internalType": "uint256",
          "name": "ratesPrecision",
          "type": "uint256"
        }
      ],
      "name": "computeClosingFactor",
      "outputs": [
        {
          "internalType": "uint256",
          "name": "",
          "type": "uint256"
        }
      ],
      "stateMutability": "view",
      "type": "function"
    },
    {
      "inputs": [
        {
          "internalType": "address",
          "name": "user",
          "type": "address"
        },
        {
          "internalType": "uint256",
          "name": "_exchangeRate",
          "type": "uint256"
        }
      ],
      "name": "computeLiquidatorReward",
      "outputs": [
        {
          "internalType": "uint256",
          "name": "",
          "type": "uint256"
        }
      ],
      "stateMutability": "view",
      "type": "function"
    },
    {
      "inputs": [
        {
          "internalType": "address",
          "name": "user",
          "type": "address"
        },
        {
          "internalType": "uint256",
          "name": "_exchangeRate",
          "type": "uint256"
        }
      ],
      "name": "computeTVLInfo",
      "outputs": [
        {
          "internalType": "uint256",
          "name": "amountToSolvency",
          "type": "uint256"
        },
        {
          "internalType": "uint256",
          "name": "minTVL",
          "type": "uint256"
        },
        {
          "internalType": "uint256",
          "name": "maxTVL",
          "type": "uint256"
        }
      ],
      "stateMutability": "view",
      "type": "function"
    },
    {
      "inputs": [],
      "name": "conservator",
      "outputs": [
        {
          "internalType": "address",
          "name": "",
          "type": "address"
        }
      ],
      "stateMutability": "view",
      "type": "function"
    },
    {
      "inputs": [],
      "name": "debtRateAgainstEthMarket",
      "outputs": [
        {
          "internalType": "uint256",
          "name": "",
          "type": "uint256"
        }
      ],
      "stateMutability": "view",
      "type": "function"
    },
    {
      "inputs": [],
      "name": "debtStartPoint",
      "outputs": [
        {
          "internalType": "uint256",
          "name": "",
          "type": "uint256"
        }
      ],
      "stateMutability": "view",
      "type": "function"
    },
    {
      "inputs": [],
      "name": "exchangeRate",
      "outputs": [
        {
          "internalType": "uint256",
          "name": "",
          "type": "uint256"
        }
      ],
      "stateMutability": "view",
      "type": "function"
    },
    {
      "inputs": [],
      "name": "getDebtRate",
      "outputs": [
        {
          "internalType": "uint256",
          "name": "",
          "type": "uint256"
        }
      ],
      "stateMutability": "view",
      "type": "function"
    },
    {
      "inputs": [],
      "name": "getTotalDebt",
      "outputs": [
        {
          "internalType": "uint256",
          "name": "",
          "type": "uint256"
        }
      ],
      "stateMutability": "view",
      "type": "function"
    },
    {
      "inputs": [],
      "name": "isMainMarket",
      "outputs": [
        {
          "internalType": "bool",
          "name": "",
          "type": "bool"
        }
      ],
      "stateMutability": "view",
      "type": "function"
    },
    {
      "inputs": [
        {
          "internalType": "address[]",
          "name": "users",
          "type": "address[]"
        },
        {
          "internalType": "uint256[]",
          "name": "maxBorrowParts",
          "type": "uint256[]"
        },
        {
          "internalType": "bytes[]",
          "name": "collateralToAssetSwapDatas",
          "type": "bytes[]"
        },
        {
          "internalType": "contract ISwapper",
          "name": "swapper",
          "type": "address"
        }
      ],
      "name": "liquidate",
      "outputs": [],
      "stateMutability": "nonpayable",
      "type": "function"
    },
    {
      "inputs": [
        {
          "internalType": "address",
          "name": "user",
          "type": "address"
        },
        {
          "internalType": "address",
          "name": "receiver",
          "type": "address"
        },
        {
          "internalType": "contract ISwapper",
          "name": "swapper",
          "type": "address"
        },
        {
          "internalType": "bytes",
          "name": "collateralToAssetSwapData",
          "type": "bytes"
        }
      ],
      "name": "liquidateBadDebt",
      "outputs": [],
      "stateMutability": "nonpayable",
      "type": "function"
    },
    {
      "inputs": [],
      "name": "liquidationBonusAmount",
      "outputs": [
        {
          "internalType": "uint256",
          "name": "",
          "type": "uint256"
        }
      ],
      "stateMutability": "view",
      "type": "function"
    },
    {
      "inputs": [],
      "name": "liquidationMultiplier",
      "outputs": [
        {
          "internalType": "uint256",
          "name": "",
          "type": "uint256"
        }
      ],
      "stateMutability": "view",
      "type": "function"
    },
    {
      "inputs": [],
      "name": "maxDebtRate",
      "outputs": [
        {
          "internalType": "uint256",
          "name": "",
          "type": "uint256"
        }
      ],
      "stateMutability": "view",
      "type": "function"
    },
    {
      "inputs": [],
      "name": "maxLiquidatorReward",
      "outputs": [
        {
          "internalType": "uint256",
          "name": "",
          "type": "uint256"
        }
      ],
      "stateMutability": "view",
      "type": "function"
    },
    {
      "inputs": [],
      "name": "minDebtRate",
      "outputs": [
        {
          "internalType": "uint256",
          "name": "",
          "type": "uint256"
        }
      ],
      "stateMutability": "view",
      "type": "function"
    },
    {
      "inputs": [],
      "name": "minLiquidatorReward",
      "outputs": [
        {
          "internalType": "uint256",
          "name": "",
          "type": "uint256"
        }
      ],
      "stateMutability": "view",
      "type": "function"
    },
    {
      "inputs": [
        {
          "internalType": "address",
          "name": "owner",
          "type": "address"
        }
      ],
      "name": "nonces",
      "outputs": [
        {
          "internalType": "uint256",
          "name": "",
          "type": "uint256"
        }
      ],
      "stateMutability": "view",
      "type": "function"
    },
    {
      "inputs": [
        {
          "internalType": "address",
          "name": "user",
          "type": "address"
        }
      ],
      "name": "openingFees",
      "outputs": [
        {
          "internalType": "uint256",
          "name": "fee",
          "type": "uint256"
        }
      ],
      "stateMutability": "view",
      "type": "function"
    },
    {
      "inputs": [],
      "name": "oracle",
      "outputs": [
        {
          "internalType": "contract IOracle",
          "name": "",
          "type": "address"
        }
      ],
      "stateMutability": "view",
      "type": "function"
    },
    {
      "inputs": [],
      "name": "oracleData",
      "outputs": [
        {
          "internalType": "bytes",
          "name": "",
          "type": "bytes"
        }
      ],
      "stateMutability": "view",
      "type": "function"
    },
    {
      "inputs": [],
      "name": "owner",
      "outputs": [
        {
          "internalType": "address",
          "name": "",
          "type": "address"
        }
      ],
      "stateMutability": "view",
      "type": "function"
    },
    {
      "inputs": [
        {
          "internalType": "enum Market.PauseType",
          "name": "pauseProp",
          "type": "uint8"
        }
      ],
      "name": "pauseOptions",
      "outputs": [
        {
          "internalType": "bool",
          "name": "pauseStatus",
          "type": "bool"
        }
      ],
      "stateMutability": "view",
      "type": "function"
    },
    {
      "inputs": [],
      "name": "pendingOwner",
      "outputs": [
        {
          "internalType": "address",
          "name": "",
          "type": "address"
        }
      ],
      "stateMutability": "view",
      "type": "function"
    },
    {
      "inputs": [],
      "name": "penrose",
      "outputs": [
        {
          "internalType": "contract IPenrose",
          "name": "",
          "type": "address"
        }
      ],
      "stateMutability": "view",
      "type": "function"
    },
    {
      "inputs": [
        {
          "internalType": "address",
          "name": "owner",
          "type": "address"
        },
        {
          "internalType": "address",
          "name": "spender",
          "type": "address"
        },
        {
          "internalType": "uint256",
          "name": "value",
          "type": "uint256"
        },
        {
          "internalType": "uint256",
          "name": "deadline",
          "type": "uint256"
        },
        {
          "internalType": "uint8",
          "name": "v",
          "type": "uint8"
        },
        {
          "internalType": "bytes32",
          "name": "r",
          "type": "bytes32"
        },
        {
          "internalType": "bytes32",
          "name": "s",
          "type": "bytes32"
        }
      ],
      "name": "permit",
      "outputs": [],
      "stateMutability": "nonpayable",
      "type": "function"
    },
    {
      "inputs": [
        {
          "internalType": "address",
          "name": "owner",
          "type": "address"
        },
        {
          "internalType": "address",
          "name": "spender",
          "type": "address"
        },
        {
          "internalType": "uint256",
          "name": "value",
          "type": "uint256"
        },
        {
          "internalType": "uint256",
          "name": "deadline",
          "type": "uint256"
        },
        {
          "internalType": "uint8",
          "name": "v",
          "type": "uint8"
        },
        {
          "internalType": "bytes32",
          "name": "r",
          "type": "bytes32"
        },
        {
          "internalType": "bytes32",
          "name": "s",
          "type": "bytes32"
        }
      ],
      "name": "permitBorrow",
      "outputs": [],
      "stateMutability": "nonpayable",
      "type": "function"
    },
    {
      "inputs": [],
      "name": "protocolFee",
      "outputs": [
        {
          "internalType": "uint256",
          "name": "",
          "type": "uint256"
        }
      ],
      "stateMutability": "view",
      "type": "function"
    },
    {
      "inputs": [
        {
          "internalType": "uint256",
          "name": "_cap",
          "type": "uint256"
        }
      ],
      "name": "setBorrowCap",
      "outputs": [],
      "stateMutability": "nonpayable",
      "type": "function"
    },
    {
      "inputs": [
        {
          "internalType": "uint256",
          "name": "_val",
          "type": "uint256"
        }
      ],
      "name": "setBorrowOpeningFee",
      "outputs": [],
      "stateMutability": "nonpayable",
      "type": "function"
    },
    {
      "inputs": [
        {
          "internalType": "uint256",
          "name": "_borrowOpeningFee",
          "type": "uint256"
        },
        {
          "internalType": "contract IOracle",
          "name": "_oracle",
          "type": "address"
        },
        {
          "internalType": "bytes",
          "name": "_oracleData",
          "type": "bytes"
        },
        {
          "internalType": "address",
          "name": "_conservator",
          "type": "address"
        },
        {
          "internalType": "uint256",
          "name": "_callerFee",
          "type": "uint256"
        },
        {
          "internalType": "uint256",
          "name": "_protocolFee",
          "type": "uint256"
        },
        {
          "internalType": "uint256",
          "name": "_liquidationBonusAmount",
          "type": "uint256"
        },
        {
          "internalType": "uint256",
          "name": "_minLiquidatorReward",
          "type": "uint256"
        },
        {
          "internalType": "uint256",
          "name": "_maxLiquidatorReward",
          "type": "uint256"
        },
        {
          "internalType": "uint256",
          "name": "_totalBorrowCap",
          "type": "uint256"
        },
        {
          "internalType": "uint256",
          "name": "_collateralizationRate",
          "type": "uint256"
        }
      ],
      "name": "setMarketConfig",
      "outputs": [],
      "stateMutability": "nonpayable",
      "type": "function"
    },
    {
      "inputs": [],
      "name": "totalBorrow",
      "outputs": [
        {
          "internalType": "uint128",
          "name": "elastic",
          "type": "uint128"
        },
        {
          "internalType": "uint128",
          "name": "base",
          "type": "uint128"
        }
      ],
      "stateMutability": "view",
      "type": "function"
    },
    {
      "inputs": [],
      "name": "totalBorrowCap",
      "outputs": [
        {
          "internalType": "uint256",
          "name": "",
          "type": "uint256"
        }
      ],
      "stateMutability": "view",
      "type": "function"
    },
    {
      "inputs": [],
      "name": "totalCollateralShare",
      "outputs": [
        {
          "internalType": "uint256",
          "name": "",
          "type": "uint256"
        }
      ],
      "stateMutability": "view",
      "type": "function"
    },
    {
      "inputs": [],
      "name": "totalSupply",
      "outputs": [
        {
          "internalType": "uint256",
          "name": "",
          "type": "uint256"
        }
      ],
      "stateMutability": "view",
      "type": "function"
    },
    {
      "inputs": [
        {
          "internalType": "address",
          "name": "to",
          "type": "address"
        },
        {
          "internalType": "uint256",
          "name": "amount",
          "type": "uint256"
        }
      ],
      "name": "transfer",
      "outputs": [
        {
          "internalType": "bool",
          "name": "",
          "type": "bool"
        }
      ],
      "stateMutability": "nonpayable",
      "type": "function"
    },
    {
      "inputs": [
        {
          "internalType": "address",
          "name": "from",
          "type": "address"
        },
        {
          "internalType": "address",
          "name": "to",
          "type": "address"
        },
        {
          "internalType": "uint256",
          "name": "amount",
          "type": "uint256"
        }
      ],
      "name": "transferFrom",
      "outputs": [
        {
          "internalType": "bool",
          "name": "",
          "type": "bool"
        }
      ],
      "stateMutability": "nonpayable",
      "type": "function"
    },
    {
      "inputs": [
        {
          "internalType": "address",
          "name": "newOwner",
          "type": "address"
        },
        {
          "internalType": "bool",
          "name": "direct",
          "type": "bool"
        },
        {
          "internalType": "bool",
          "name": "renounce",
          "type": "bool"
        }
      ],
      "name": "transferOwnership",
      "outputs": [],
      "stateMutability": "nonpayable",
      "type": "function"
    },
    {
      "inputs": [],
      "name": "updateExchangeRate",
      "outputs": [
        {
          "internalType": "bool",
          "name": "updated",
          "type": "bool"
        },
        {
          "internalType": "uint256",
          "name": "rate",
          "type": "uint256"
        }
      ],
      "stateMutability": "nonpayable",
      "type": "function"
    },
    {
      "inputs": [
        {
          "internalType": "enum Market.PauseType",
          "name": "_type",
          "type": "uint8"
        },
        {
          "internalType": "bool",
          "name": "val",
          "type": "bool"
        }
      ],
      "name": "updatePause",
      "outputs": [],
      "stateMutability": "nonpayable",
      "type": "function"
    },
    {
      "inputs": [
        {
          "internalType": "address",
          "name": "",
          "type": "address"
        }
      ],
      "name": "userBorrowPart",
      "outputs": [
        {
          "internalType": "uint256",
          "name": "",
          "type": "uint256"
        }
      ],
      "stateMutability": "view",
      "type": "function"
    },
    {
      "inputs": [
        {
          "internalType": "address",
          "name": "",
          "type": "address"
        }
      ],
      "name": "userCollateralShare",
      "outputs": [
        {
          "internalType": "uint256",
          "name": "",
          "type": "uint256"
        }
      ],
      "stateMutability": "view",
      "type": "function"
    },
    {
      "inputs": [],
      "name": "yieldBox",
      "outputs": [
        {
          "internalType": "contract YieldBox",
          "name": "",
          "type": "address"
        }
      ],
      "stateMutability": "view",
      "type": "function"
    }
  ],
  "bytecode": "0x6101408060405234620001855762000017816200018a565b600f81526001602082016e546170696f63612042696742616e6760881b8152602060405162000046816200018a565b8381520192603160f81b845251902091208160e052610100918183524660a0526040519160208301907f8b73c3c69bb8fe3d512ecc4cf759cc79239f7b179b0ffacaa9a75d522b39400f92838352604085015260608401524660808401523060a084015260a0835260c083019280841060018060401b038511176200016f5760408490525190206080523060c052610120908152600580546001600160a01b0319163390811790915560007f8be0079c531659141344cd1fd0a4f28419497f9722a3daafe3b4186f6b6457e08180a36103e860195561271080601a55601b556032601d55612ee0601e556141899283620001a784396080518361280c015260a051836128d6015260c051836127d6015260e0518361285b01525182612881015251816128380152f35b634e487b7160e01b600052604160045260246000fd5b600080fd5b604081019081106001600160401b038211176200016f5760405256fe6080806040526004908136101561001557600080fd5b600091823560e01c918262a02a2014611eca5750816302ce728f14611dbb578163078dfbe714611cc6578163095ea7b314611c9f5781630c4e84f014611b7857816318160ddd14611b5c5781631c9e379b14611b235781631da8bf1014611a735781631fb8f81a14611a5557816323b872dd146118af57816334ce998a1461188657816334d441d0146118685781633644e5151461184d57816338d52e0f146118245781633ba0b9a9146118065781633f741adb146117e257816340626d8b146117c457816344de240a146117a6578163473e3ce71461178857816348e4163e1461174f5781634e71e0c8146116b05781635100b56714611652578163529898f21461163457816357935462146116165781636b19ad16146115f85781636c3d8b8f146115cf57816370a0823114611596578163717186d114611547578163727785471461151057816374645ff31461140f5781637dc0d1d0146113e65781637ecebe00146113ae5781637fa0b84e1461137c5781638285ef401461134a57816387b27937146113115781638c5d0ed3146112f35781638da5cb5b146112ca578163959916dc146112ac5781639675937214610edd57816399a9702814610eb55781639e15e89f14610e7a578163a28e6b8214610aca578163a9059cbb146109e7578163b0e21e8a146109c9578163b27c0e7414610996578163b7113f1914610973578163bb4cfe3b14610955578163bde39c5d14610937578163c1ad5c8d14610914578163cb7940e11461059a578163ce8849ed14610571578163d505accf146103f557508063d8dfeb45146103cc578063dd62ed3e14610381578063de40657714610358578063e0996cb61461033a578063e30c397814610311578063eec0f42e146102f3578063f791395d146102d55763f8ba4cff146102b757600080fd5b346102d257806003193601126102d2576102cf612ecc565b80f35b80fd5b50346102d257806003193601126102d2576020602554604051908152f35b50346102d257806003193601126102d2576020600c54604051908152f35b50346102d257806003193601126102d2576006546040516001600160a01b039091168152602090f35b50346102d257806003193601126102d2576020601b54604051908152f35b50346102d257806003193601126102d2576009546040516001600160a01b039091168152602090f35b50346102d25760403660031901126102d25760406020916103a0611f12565b6103a8611f2d565b6001600160a01b039182168352600285528383209116825283522054604051908152f35b50346102d257806003193601126102d257600b546040516001600160a01b039091168152602090f35b82346102d25761040436611f68565b9083969496421161052d576104d8916104d09160018060a01b039485881696878c528c60205260408c209081549161043b83612b0a565b90556040519060208201927f6e71edae12b1b97f4d1f60370fef10105fa2faae0126114a169c64845d6126c984528a6040840152898d1660608401528d608084015260a083015260c082015260c081526104948161207f565b51902061049f6127d3565b9060405190602082019261190160f01b845260228301526042820152604281526104c881612064565b519020612a85565b919091612986565b16036104e9576102cf939450612b70565b60405162461bcd60e51b8152602081870152601e60248201527f45524332305065726d69743a20696e76616c6964207369676e617475726500006044820152606490fd5b60405162461bcd60e51b81526020818b0152601d60248201527f45524332305065726d69743a206578706972656420646561646c696e650000006044820152606490fd5b82346102d257806003193601126102d2576008546040516001600160a01b039091168152602090f35b905034610910576080366003190112610910576001600160401b03813581811161090c576105cb90369084016120ea565b91602435818111610908576105e390369086016120ea565b604492919235828111610904576105fd90369088016120ea565b929091610608611f43565b94888a52600760205260ff60408b2054166108cf57871561089057818803610856578488036108175790899594939291604061066260018060a01b03600f54168c83519a8b8094819363d6d7d52560e01b835282016124d2565b03925af196871561080c578b908c986107d8575b5087816107ce575b50156107c457866011555b610694871515612fd4565b61069c612ecc565b8a988b5b8181106106ec578c8c8c156106b3575080f35b60649060206040519162461bcd60e51b8352820152601260248201527110908e881b9bc81d5cd95c9cc8199bdd5b9960721b6044820152fd5b6106f781838c613691565b356001600160a01b03811681036107c0576107128a826136b7565b15610727575b5061072290612b0a565b6106a0565b909a61073290612b0a565b9a61073e818686613691565b35888210156107ac57601e19883603018260051b89013512156107a857868260051b890135890135116107a857600582901b880135880160208101939035360384136107a457610722938c8c61079e948660051b8d01358d0135946137bb565b90610718565b8f80fd5b8e80fd5b50634e487b7160e01b8e5260328d5260248efd5b8d80fd5b6011549650610689565b905015153861067e565b90506107fd91975060403d604011610805575b6107f5818361209a565b8101906124b5565b969038610676565b503d6107eb565b6040513d8d823e3d90fd5b60405162461bcd60e51b81526020818b01526018602482015277084d2ce84c2dcce7440d8cadccee8d040dad2e6dac2e8c6d60431b6044820152606490fd5b60405162461bcd60e51b81526020818b01526013602482015272084847440d8cadccee8d040dad2e6dac2e8c6d606b1b6044820152606490fd5b60405162461bcd60e51b81526020818b0152601860248201527742423a206e6f7468696e6720746f206c697175696461746560401b6044820152606490fd5b60405162461bcd60e51b81526020818b0152600e60248201526d13585c9ad95d0e881c185d5cd95960921b6044820152606490fd5b8780fd5b8580fd5b8380fd5b5080fd5b82346102d257806003193601126102d257602061092f612bdb565b604051908152f35b82346102d257806003193601126102d2576020602654604051908152f35b82346102d257806003193601126102d2576020601c54604051908152f35b82346102d257806003193601126102d257602060ff602354166040519015158152f35b82346102d257806003193601126102d257602254604080516001600160401b03808416825292821c909216602083015290f35b82346102d257806003193601126102d2576020601854604051908152f35b82346102d25760403660031901126102d257610a01611f12565b60243580928115801590610ab8575b610a48575b50506040519182526001600160a01b031690339060008051602061411483398151915290602090a3602060405160018152f35b33815260016020526040812054610a61838210156128fc565b6001600160a01b0384169033829003610a7c575b5050610a15565b604093610a9391610a8e841515612941565b6121fc565b338352600160205283832055815220610aad838254612209565b905581838080610a75565b50336001600160a01b03841614610a10565b82346102d25760803660031901126102d257610ae4611f12565b91610aed611f2d565b6001600160a01b0391604435838116929190839003610e76576064356001600160401b03811161090857610b2490369083016120bd565b9091610b358660055416331461211a565b600f546040805163d6d7d52560e01b81529182908916818b81610b598882016124d2565b03925af1908115610dfb5788908992610e54575b508181610e4a575b5015610e3e5780610b8b916011555b1515612fd4565b610b93612ecc565b85600a541697604051809963433e762d60e01b8252818460209c8d935afa908115610e3357610bd2888a9493610bd7938e8e92610e06575b50506130f0565b61304a565b16958688526015895288610c0060408a2054620186a0610bf9601e54836121a5565b0490612209565b9160095416916064610c24610c1b600c5493601154906121a5565b601f54906121dc565b916040519485938492638eb22cdd60e01b84528884015260248301528c60448301525afa908115610dfb578891610dce575b5086885260168952604088205411610d8c575090610d35916016879887610d3b995281815260408a205497610d028b610cfd610cf2610c93612db3565b858452601587526040842054938088604051610cae81612020565b8281520152508681019360018060801b03928382818094868a8381511615600014610d3f57505081610ce5915b16828851166130d7565b16855216828751166130d7565b168094525116612e85565b612ea7565b808b52601582528a6040812055828252610d2260408c20546013546121fc565b6013558a52528760408120553691613091565b9261320e565b5080f35b610ce592610d78610d6e86610d65610d5b8280985116866121a5565b82875116906121dc565b945116846121a5565b848c5116906121dc565b1015610cdb57610d8790612b0a565b610cdb565b60649088806040519262461bcd60e51b845283015260248201527f42696742616e673a2043616e6e6f7420666f726365206c6971756964617465646044820152fd5b90508881813d8311610df4575b610de5818361209a565b81010312610904575189610c56565b503d610ddb565b6040513d8a823e3d90fd5b610e259250803d10610e2c575b610e1d818361209a565b810190613030565b8e8e610bcb565b503d610e13565b6040513d8b823e3d90fd5b50610b8b601154610b84565b905015158a610b75565b9050610e6f915060403d604011610805576107f5818361209a565b908a610b6d565b8480fd5b82346102d25760403660031901126102d2576060610ea2610e99611f12565b60243590612356565b9060405192835260208301526040820152f35b82346102d25760403660031901126102d257602061092f610ed4611f12565b60243590612670565b82346102d2576101603660031901126102d2576024356001600160a01b03818116918290036112a8576001600160401b03604435818111610e7657610f2590369087016120bd565b90610f2e611f43565b9260843595610f428660055416331461211a565b883580611270575b5080611232575b50826110bf575b505050819293945016908161107f575b505080611067575b5060a4358061104f575b5060c43580611038575b5060e43580611014575b506101043580610ff0575b506101243580610fc7575b506101443580610fb2575080f35b610fc1620186a0821115612165565b601c5580f35b6000805160206140b483398151915260406014548151908152836020820152a160145581610fa4565b610ffe620186a08210612165565b61100b6019548211612165565b601a5581610f99565b611022620186a08210612165565b61102f601a548210612165565b60195581610f8e565b611046620186a08210612165565b601b5581610f84565b61105e620186a0821115612165565b60185581610f7a565b611076620186a0821115612165565b60175581610f70565b816008549182167f5a62d22209e370e38eea92cfddcd228e656e6ec139243392a760a7769f5877fd8680a36001600160a01b031916176008558280610f68565b821161121f5783949596506110d5601054611fe6565b601f81116111bf575b508690601f83116001146111445787919083611139575b50508160011b916000199060031b1c1916176010555b7fa6f004921c944d4b8bf6e38462b00f36a58d62495d56b51f571ab78f732c98158580a18493928680610f58565b0135905087806110f5565b60108852601f1983169493929160008051602061413483398151915291908960205b8882106111a357505083600195969710611189575b505050811b0160105561110b565b0135600019600384901b60f8161c1916905587808061117b565b8383013585558997506001909401939182019190810190611166565b601088529293509091600080516020614134833981519152601f840160051c81019160208510611215575b90601f8796959493920160051c01905b81811061120757506110de565b8881558695506001016111fa565b90915081906111ea565b634e487b7160e01b865260418752602486fd5b600f80546001600160a01b0319169190911790557f0b2d6eb667d0522c3eb86e4288afecae6c11591ffd1345d4d12407e0598bca9b8780a188610f51565b61127f620186a0821115612165565b6000805160206140d48339815191526040601d548151908152836020820152a1601d5589610f4a565b8280fd5b82346102d257806003193601126102d2576020601d54604051908152f35b82346102d257806003193601126102d2576005546040516001600160a01b039091168152602090f35b82346102d257806003193601126102d2576020601954604051908152f35b82346102d25760203660031901126102d2576020906040906001600160a01b03611339611f12565b168152602183522054604051908152f35b82346102d257806003193601126102d257601254604080516001600160801b038316815260809290921c602083015290f35b82346102d25760403660031901126102d2576113a3611399611f12565b6024359033612b19565b602060405160018152f35b905034610910576020366003190112610910576020916040916001600160a01b036113d7611f12565b16825283522054604051908152f35b82346102d257806003193601126102d257600f546040516001600160a01b039091168152602090f35b82346102d257806003193601126102d257604051601054818361143183611fe6565b8083526001938085169081156114ef57506001146114a4575b506114579250038261209a565b60405180926020908183528351918281850152815b83811061148d57505060408094508284010152601f80199101168101030190f35b80860182015187820160400152869450810161146c565b6010865260008051602061413483398151915293602092508691905b8183106114d757505061145793508201018561144a565b855487840185015294850194869450918301916114c0565b905061145794506020925060ff191682840152151560051b8201018561144a565b90503461091057602036600319011261091057359060098210156102d257602060ff61153b84611fb7565b54166040519015158152f35b905034610910576020366003190112610910573561157060018060a01b0360055416331461211a565b6000805160206140b483398151915260406014548151908152836020820152a160145580f35b82346102d25760203660031901126102d2576020906040906001600160a01b036115be611f12565b168152600183522054604051908152f35b82346102d257806003193601126102d257600a546040516001600160a01b039091168152602090f35b82346102d257806003193601126102d2576020602454604051908152f35b82346102d257806003193601126102d2576020601a54604051908152f35b82346102d257806003193601126102d2576020601e54604051908152f35b905034610910576020366003190112610910573561167b60018060a01b0360055416331461211a565b61168a620186a0821115612165565b6000805160206140d48339815191526040601d548151908152836020820152a1601d5580f35b9050346109105781600319360112610910576006546001600160a01b0391828216903382900361170b5750806005549384166000805160206140f48339815191528680a36001600160a01b0319928316176005551660065580f35b60649060206040519162461bcd60e51b8352820152602060248201527f4f776e61626c653a2063616c6c657220213d2070656e64696e67206f776e65726044820152fd5b82346102d25760203660031901126102d2576020906040906001600160a01b03611777611f12565b168152601583522054604051908152f35b82346102d257806003193601126102d2576020601354604051908152f35b82346102d257806003193601126102d2576020600e54604051908152f35b82346102d257806003193601126102d2576020601454604051908152f35b82346102d25760603660031901126102d257602061092f60443560243585356122a8565b82346102d257806003193601126102d2576020601154604051908152f35b82346102d257806003193601126102d257600d546040516001600160a01b039091168152602090f35b82346102d257806003193601126102d257602061092f6127d3565b82346102d257806003193601126102d2576020601754604051908152f35b82346102d257806003193601126102d2576012546040516001600160801b039091168152602090f35b905034610910576060366003190112610910576118ca611f12565b916118d3611f2d565b906044359283611913575b50506040519182526001600160a01b0390811692169060008051602061411483398151915290602090a3602060405160018152f35b6001600160a01b0385811680845260016020908152604085205491929091879161193f838310156128fc565b871694858503611954575b50505050506118de565b848752600284526040808820338952855287205490600182016119c1575b50509260016020969361199e8794604097610a8e6000805160206141148339815191529c9a1515612941565b92855252838320558152206119b4858254612209565b905591388085818061194a565b9091928210611a1657509260016020969361199e8a6000805160206141148339815191529a98956119f48260409a6121fc565b86895260028552898920338a5285528989205594975094979950509396611972565b60405162461bcd60e51b8152908101849052601860248201527745524332303a20616c6c6f77616e636520746f6f206c6f7760401b6044820152606490fd5b82346102d257806003193601126102d2576020602754604051908152f35b82346102d257611a8236611f68565b9083969496421161052d57611b12916104d09160018060a01b039485881696878c528c60205260408c2090815491611ab983612b0a565b90556040519060208201927fe9685ff6d48c617fe4f692c50e602cce27cbad0290beb93cfa77eac43968d58c84528a6040840152898d1660608401528d608084015260a083015260c082015260c081526104948161207f565b16036104e9576102cf939450612b19565b82346102d25760203660031901126102d2576020906040906001600160a01b03611b4b611f12565b168152601683522054604051908152f35b82346102d257806003193601126102d257602090604051908152f35b90503461091057604036600319011261091057803560098110156112a857611b9e611f59565b6008549092906001600160a01b03163303611c645760ff611bbe83611fb7565b54161515921515928314611c2b5750807feeec81de25875ce1725479bb76f720a8defdb43dea041919ae37bb4aae9847c0606060ff611bff611c1b95611fb7565b54166040519084825215156020820152856040820152a1611fb7565b9060ff8019835416911617905580f35b60649060206040519162461bcd60e51b835282015260126024820152714d61726b65743a2073616d6520737461746560701b6044820152fd5b60649060206040519162461bcd60e51b8352820152601460248201527313585c9ad95d0e881d5b985d5d1a1bdc9a5e995960621b6044820152fd5b82346102d25760403660031901126102d2576113a3611cbc611f12565b6024359033612b70565b90503461091057606036600319011261091057611ce1611f12565b90611cea611f59565b90604435918215158303610e765760018060a01b03938491611d118360055416331461211a565b15611da3571691821590811591611d9b575b5015611d5f5750806005549283166000805160206140f48339815191528580a36001600160a01b03199182161760055560068054909116905580f35b60649060206040519162461bcd60e51b835282015260156024820152744f776e61626c653a207a65726f206164647265737360581b6044820152fd5b905038611d23565b925050501660018060a01b0319600654161760065580f35b82346102d257806003193601126102d257600f546040805163d6d7d52560e01b81529182906001600160a01b0316818581611df78982016124d2565b03925af1908115611ebf578291611e9e575b508115611e91578015611e565760409250806011557f9f9192b5edb17356c524e08d9e025c8e2f6307e6ea52fb7968faa3081f51c3c860208451838152a15b825191151582526020820152f35b60405162461bcd60e51b815260208185015260146024820152734d61726b65743a20696e76616c6964207261746560601b6044820152606490fd5b5060409150601154611e48565b9050611eb9915060403d604011610805576107f5818361209a565b83611e09565b6040513d84823e3d90fd5b839034610910576040366003190112610910576040602092611eea611f12565b611ef2611f2d565b6001600160a01b0391821683526003865283832091168252845220548152f35b600435906001600160a01b0382168203611f2857565b600080fd5b602435906001600160a01b0382168203611f2857565b606435906001600160a01b0382168203611f2857565b602435908115158203611f2857565b60e0906003190112611f28576001600160a01b03906004358281168103611f2857916024359081168103611f285790604435906064359060843560ff81168103611f28579060a4359060c43590565b6009811015611fd0576000526007602052604060002090565b634e487b7160e01b600052602160045260246000fd5b90600182811c92168015612016575b602083101461200057565b634e487b7160e01b600052602260045260246000fd5b91607f1691611ff5565b604081019081106001600160401b0382111761203b57604052565b634e487b7160e01b600052604160045260246000fd5b6001600160401b03811161203b57604052565b608081019081106001600160401b0382111761203b57604052565b60e081019081106001600160401b0382111761203b57604052565b601f909101601f19168101906001600160401b0382119082101761203b57604052565b9181601f84011215611f28578235916001600160401b038311611f285760208381860195010111611f2857565b9181601f84011215611f28578235916001600160401b038311611f28576020808501948460051b010111611f2857565b1561212157565b606460405162461bcd60e51b815260206004820152602060248201527f4f776e61626c653a2063616c6c6572206973206e6f7420746865206f776e65726044820152fd5b1561216c57565b60405162461bcd60e51b815260206004820152601160248201527013585c9ad95d0e881b9bdd081d985b1a59607a1b6044820152606490fd5b818102929181159184041417156121b857565b634e487b7160e01b600052601160045260246000fd5b604d81116121b857600a0a90565b81156121e6570490565b634e487b7160e01b600052601260045260246000fd5b919082039182116121b857565b919082018092116121b857565b90601c5491829161222c620186a09384926121a5565b0480821061229f5761223d916121fc565b91601e548201908183116121b8578291612256916121a5565b0490818103918183116121b8576509184e72a00080840293840414911417156121b857670de0b6b3a7640000918281029281840414901517156121b85761229c916121dc565b90565b50505050600090565b9190916122ca6122bb601c5480956121a5565b6122c4846121ce565b906121dc565b9081811061229f5761231a916122df916121fc565b9261231461230b6122ef856121ce565b926123056122fc876121ce565b601e5490612209565b906121a5565b6122c4856121ce565b906121fc565b9060120390601282116121b857612305612333926121ce565b670de0b6b3a7640000918281029281840414901517156121b85761229c916121dc565b6001600160a01b0390811660008181526015602090815260408220549295949391929091811561249b57612388612df2565b9061239486151561256d565b6009541683600c54898752601682526064604088205491604051948593849263442c159960e01b8452600484015260248301528960448301525afa908115612490578591612461575b50928594926124396016936124146124559961240f61240660409a620186a0601f5404906121a5565b601c54906121a5565b6121dc565b815190936001600160801b0391869161242f918416906121a5565b92015116906121dc565b908082106124595761244a916121fc565b9783525220546125b9565b9091565b50508261244a565b90508381813d8311612489575b612478818361209a565b81010312610e7657516124556123dd565b503d61246e565b6040513d87823e3d90fd5b5050509192505080918190565b51908115158203611f2857565b9190826040910312611f285760206124cc836124a8565b92015190565b6020808252600091601054916124e783611fe6565b928382840152600190818116908160001461254a575060011461250c575b5050505090565b929350601060005280600020926000935b8585106125365750505060409250010138808080612505565b80548585016040015293820193810161251d565b925050506040935060ff929192191683830152151560051b010138808080612505565b1561257457565b60405162461bcd60e51b815260206004820152601e60248201527f4d61726b65743a2065786368616e676552617465206e6f742076616c696400006044820152606490fd5b6125c482151561256d565b602060018060a01b0360095416916064600c54604051948593849263442c159960e01b845260048401526024830152600060448301525afa90811561266457600091612631575b509061240f61261d92601f54906121a5565b620186a061262d601c54836121a5565b0491565b906020823d821161265c575b8161264a6020938361209a565b810103126102d257505161240f61260b565b3d915061263d565b6040513d6000823e3d90fd5b6001600160a01b03166000818152601660205260408120549092612693916125b9565b9183526015602052604083205480156127cd5781156127cd578181106127cd57828110156127c3576012546126e6918391610a8e916126dc906001600160801b038316906121a5565b9060801c906121dc565b90620186a0928383029280840485149015171561279b5761270b92916122c4916121fc565b9160195491601a549384840390838612858312811690868413901516176127af5781810291848112600160ff1b83141661279b5782051485851417156127875705818482019485129112908015821691151617612773575080821261276e575090565b905090565b634e487b7160e01b81526011600452602490fd5b634e487b7160e01b83526011600452602483fd5b634e487b7160e01b85526011600452602485fd5b634e487b7160e01b84526011600452602484fd5b5050505060195490565b50505090565b307f00000000000000000000000000000000000000000000000000000000000000006001600160a01b031614806128d3575b1561282e577f000000000000000000000000000000000000000000000000000000000000000090565b60405160208101907f000000000000000000000000000000000000000000000000000000000000000082527f000000000000000000000000000000000000000000000000000000000000000060408201527f000000000000000000000000000000000000000000000000000000000000000060608201524660808201523060a082015260a0815260c0810181811060018060401b0382111761203b5760405251902090565b507f00000000000000000000000000000000000000000000000000000000000000004614612805565b1561290357565b60405162461bcd60e51b815260206004820152601660248201527545524332303a2062616c616e636520746f6f206c6f7760501b6044820152606490fd5b1561294857565b60405162461bcd60e51b815260206004820152601660248201527545524332303a206e6f207a65726f206164647265737360501b6044820152606490fd5b6005811015611fd057806129975750565b600181036129df5760405162461bcd60e51b815260206004820152601860248201527745434453413a20696e76616c6964207369676e617475726560401b6044820152606490fd5b60028103612a2c5760405162461bcd60e51b815260206004820152601f60248201527f45434453413a20696e76616c6964207369676e6174757265206c656e677468006044820152606490fd5b600314612a3557565b60405162461bcd60e51b815260206004820152602260248201527f45434453413a20696e76616c6964207369676e6174757265202773272076616c604482015261756560f01b6064820152608490fd5b9291906fa2a8918ca85bafe22016d0b997e4df60600160ff1b038311612afe5791608094939160ff602094604051948552168484015260408301526060820152600093849182805260015afa15612af15781516001600160a01b03811615612aeb579190565b50600190565b50604051903d90823e3d90fd5b50505050600090600390565b60001981146121b85760010190565b909160207fe50de2333c10a9502fcb1d8ae13a51bbf423153dfc63c2b8997665b32154afc39160018060a01b03809416938460005260038352604060002095169485600052825280604060002055604051908152a3565b909160207f8c5be1e5ebec7d5bd14f71427d1e84f3dd0314c0f7b2291e5b200ac8c7c3b9259160018060a01b03809416938460005260028352604060002095169485600052825280604060002055604051908152a3565b51906001600160a01b0382168203611f2857565b60ff60235416612d4d576012546001600160801b0316908115612d4657600a54604051631848f2bf60e31b8152602093916001600160a01b03919085908290600490829086165afa8015612664578591600091612d11575b50600460405180948193631a674cc560e11b8352165afa93841561266457600094612ce2575b5050612c759192670de0b6b3a7640000928391602654906121a5565b049081811015612cd957612c8c60275480926121fc565b838102908082048514901517156121b8576122c4612cad92612ccd946121fc565b60245492612cc760255492612cc284876121fc565b6121a5565b04612209565b9080821161276e575090565b50505060245490565b81813d8311612d0a575b612cf6818361209a565b8101031261090c57519250612c7538612c59565b503d612cec565b9182813d8311612d3f575b612d26818361209a565b810103126102d25750612d398591612bc7565b38612c33565b503d612d1c565b6025549150565b600a5460405163e6abad4960e01b815290602090829060049082906001600160a01b03165afa90811561266457600091612d85575090565b906020823d8211612dab575b81612d9e6020938361209a565b810103126102d257505190565b3d9150612d91565b60405190612dc082612020565b6012546001600160801b038116835260801c6020830152565b6001600160801b0391821690821601919082116121b857565b60006020604051612e0281612020565b82815201526022546001600160401b039190612e239060401c8316426121fc565b918215612e7a57612e75612cc291670de0b6b3a7640000612e6a612e45612db3565b9660018060801b03958694858a5116906301e13380612e62612bdb565b0416906121a5565b041682855116612dd9565b168252565b50905061229c612db3565b601280546001600160801b0319166001600160801b0392909216919091179055565b601280546001600160801b031660809290921b6001600160801b031916919091179055565b604051612ed881612020565b6022549060018060401b038281809416835260401c16612eff6020830191808352426121fc565b908115612fce57836040937f7484db546dcd57af0104c73c8a6968dfbaf5767f047cee0dadd0499ad7df81a0956301e13380612f39612bdb565b041681528142168352612f9b612f4d612db3565b946020670de0b6b3a7640000612f7560018060801b0393612cc2858b511689895116906121a5565b0496612f9383612f8a818b1682855116612dd9565b16808352612e85565b015116612ea7565b51169081602254916001861b600160801b039051861b169160018060801b031916171760225582519182526020820152a1565b50505050565b15612fdb57565b60405162461bcd60e51b815260206004820152602760248201527f42696742616e673a2063757272656e742065786368616e676552617465206e6f6044820152661d081d985b1a5960ca1b6064820152608490fd5b90816020910312611f28575161ffff81168103611f285790565b1561305157565b60405162461bcd60e51b81526020600482015260186024820152772134b3a130b7339d1024b73b30b634b21039bbb0b83832b960411b6044820152606490fd5b9192916001600160401b03821161203b57604051916130ba601f8201601f19166020018461209a565b829481845281830111611f28578281602093846000960137010152565b6001600160801b0391821690821603919082116121b857565b600a5460405163dbd01de160e01b815260209290916001600160a01b039084908490600490829085165afa801561266457849360009161319f575b50918161ffff936044936040519889968795633a304d8b60e21b8752166004860152166024840152165afa9081156126645760009161316b575b50905090565b82813d8311613198575b61317f818361209a565b810103126102d25750613191906124a8565b8038613165565b503d613175565b9091929381813d83116131d6575b6131b7818361209a565b8101031261091057519082821682036102d2575083929190604461312b565b503d6131ad565b6001600160a01b039091168152602081019190915260400190565b9190826040910312611f28576020825192015190565b600954600c5495946001600160a01b039182169390929160009190853b156112a8576040988951630208d92960e11b81528481608481838760049e8f3090850152169c8d9760249e8f85015260448401528b60648401525af180156134bc5761367e575b506020958681805181010312611f2857860151801561363f5790829189949360095416968c89600e549151809a81806132b8868c627eeac760e11b9e8f855284016131dd565b03915afa98891561360257908e94939291899a61360c575b50600c54945194633d9545e960e11b86528d8601528b850152876044850152606484015260016084840152600160a4840152610140808460c481865afa93841561360257888f939487958f938f958f91859a6134c6575b50508680989960606101c49899519b8c9a8b9963efa84c6d60e01b8b52845192835116908b015285820151908a01528d848201511660448a015201516064880152606083820151805160848a01528481015160a48a01528381015160c48a0152015160e4880152015180511515610104870152015115156101248501526101448401528789166101648401526101a0610184840152816101a48401525af180156134bc57918793916133f897969593613490575b506009541690600e54928c519788948593849384528d84016131dd565b03915afa9081156134855790613456575b61341392506121fc565b9485156134205750505050565b5162461bcd60e51b81529283015260149082015273109a59d0985b99ce8814ddd85c0819985a5b195960621b6044820152606490fd5b508282813d831161347e575b61346c818361209a565b81010312611f28576134139151613409565b503d613462565b8851903d90823e3d90fd5b6134af908d803d106134b5575b6134a7818361209a565b8101906131f8565b506133db565b503d61349d565b8b513d87823e3d90fd5b965096505095509550505080823d84116135fb575b6134e5818361209a565b810103918212610904578d5191606083016001600160401b038111848210176135e7578f819052608082126135e3578f61353d9061352283612064565b61352b85612bc7565b83528d85015160808701528401612bc7565b60a0850152606083015160c085015283526080607f198201126135df578e90815161356781612064565b6080840151815260a08401518d82015260c08401518382015260e08401516060820152848d015260ff190112610904578b888f949587968d8f9688906101c4976135ce6101208451926135b984612020565b6135c661010082016124a8565b8452016124a8565b848201528282015299989796613327565b8880fd5b8980fd5b8c60418f634e487b7160e01b600052526000fd5b503d6134db565b8e513d8a823e3d90fd5b8b80929b508196503d8311613638575b613626818361209a565b81010312611f28578d935198386132d0565b503d61361c565b8a5162461bcd60e51b8152808a01889052601a818a015279084d2ce84c2dcce7440e6d8d2e0e0c2ceca40e8dede40d0d2ced60331b6044820152606490fd5b61368a90949194612051565b9238613272565b91908110156136a15760051b0190565b634e487b7160e01b600052603260045260246000fd5b919060018060a01b038060009416845260206015815260408520549081156137b15760168152604086205480156137aa57816136f1612db3565b9460095416916064600c54604051948593849263442c159960e01b8452600484015260248301528b60448301525afa96871561379e578097613768575b505061242f61374d612406613763969798620186a0601f5404906121a5565b95612cc260018060801b039485875116906121a5565b111590565b9096508187813d8311613797575b613780818361209a565b810103126102d2575094519461242f61374d61372e565b503d613776565b604051903d90823e3d90fd5b5050505050565b5060019450505050565b939594929091926137cc82866136b7565b61407b57600a5460405163433e762d60e01b815260009891602090829060049082906001600160a01b03165afa908115610e335761382091610bd2918b9161405c575b506001600160a01b038816906130f0565b61382a8387612670565b94831561401757600954600c546001600160a01b038981168c52601660209081526040808e2054905163442c159960e01b815260048101949094526024840152604483018d9052919283916064918391165afa908115613e945785908b92613fe1575b5061240f61389e92601f54906121a5565b6001600160a01b0388168a52601560205260408a20546138bf908290612216565b601b5480613fc9575b5080911115613f9057899581811115613f8957505b6001600160a01b038816865260156020526040862054808211613f81575b81613905916121fc565b6001600160a01b038916875260156020526040872055613923612db3565b6020810180519091906001600160801b0316613f4f575050602081955b606461395c620186a0613955601e548b6121a5565b0489612209565b613977610c1b60018060a01b036009541694600c54936121a5565b926040519a8b948593638eb22cdd60e01b85526004850152602484015260448301525afa958615613e94578a96613f1b575b506001600160a01b0388168a52601660205260408a20548611613eda576001600160a01b0388168a52601660205260408a2080546139e89088906121fc565b90558415613ea75760125490613a2f6001600160801b03613a0d8882168286166130d7565b16926001600160801b0319926001600160801b0316908316841760801c6130d7565b60801b16176012556013548580821115613e9f57613a4c916121fc565b60135560018060a01b0360095416916020600e54606460405180968193638eb22cdd60e01b83526004830152896024830152600160448301525afa928315613e94578a93613e5e575b50613aa690613ab793943691613091565b906001600160a01b0316308661320e565b90613aec60408360018060a01b0360095416600e548c84518096819582946311a5cc7760e31b84523090309060048601614084565b03925af18015610e3357613e40575b5080821115613e3057613b15613b2b91620186a0936121fc565b945b82613b24601854886121a5565b04956121a5565b049283613ccf575b600d5460095460405163095ea7b360e01b81526001600160a01b039182166004820152602481018a905291602091839160449183918d91165af18015610dfb57613c96575b50600d546001600160a01b0316803b1561090457876040518092632770a7eb60e21b8252818381613bad8930600484016131dd565b03925af18015610dfb57613c83575b5060405193613bca85612020565b6001855260208501956020368837855115613c6f576001600160a01b0316865260405160a0808252955195810186905260c081019690955b808a10613c4c5750507f85b91d472e69b2cfe848ed50eb5d8582ae96c22057b6e46250255dd6f6c351929596975060208501526040840152606083015260808201528033930390a2565b81516001600160a01b031688526001999099019860209788019790910190613c02565b634e487b7160e01b89526032600452602489fd5b613c8f90979197612051565b9538613bbc565b6020813d602011613cc7575b81613caf6020938361209a565b8101031261090457613cc0906124a8565b5038613b78565b3d9150613ca2565b600d5460095460405163095ea7b360e01b8082526001600160a01b039283166004830152602482018b9052929091602091839160449183918e91165af18015610e3357613df7575b50600d546009546040519283526001600160a01b0390811660048401526000196024840152602091839160449183918d91165af18015610dfb57613dbe575b50613d8b60408560018060a01b0360095416600e548b8451809681958294634d4d7cbd60e11b84523390309060048601614084565b03925af18015610dfb57613da0575b50613b33565b613db89060403d6040116134b5576134a7818361209a565b50613d9a565b6020813d602011613def575b81613dd76020938361209a565b8101031261090457613de8906124a8565b5038613d56565b3d9150613dca565b6020813d602011613e28575b81613e106020938361209a565b810103126135df57613e21906124a8565b5038613d17565b3d9150613e03565b5050620186a0613b2b8794613b17565b613e589060403d6040116134b5576134a7818361209a565b50613afb565b9092506020813d602011613e8c575b81613e7a6020938361209a565b810103126135e3575191613aa6613a95565b3d9150613e6d565b6040513d8c823e3d90fd5b505088613a4c565b60405162461bcd60e51b815260206004820152600b60248201526a10908e881cdbdb1d995b9d60aa1b6044820152606490fd5b60405162461bcd60e51b815260206004820152601960248201527810908e881b9bdd08195b9bdd59da0818dbdb1b185d195c985b603a1b6044820152606490fd5b9095506020813d602011613f47575b81613f376020938361209a565b810103126135e3575194386139a9565b3d9150613f2a565b51602091613f7b91613f6a906001600160801b0316856121a5565b90516001600160801b0316906121dc565b95613940565b9050806138fb565b90506138dd565b60405162461bcd60e51b8152602060048201526011602482015270109a59d0985b99ce88189859081919589d607a1b6044820152606490fd5b90620186a0610bf9613fdb93836121a5565b386138c8565b9150506020813d60201161400f575b81613ffd6020938361209a565b810103126135e357518461240f61388d565b3d9150613ff0565b60405162461bcd60e51b815260206004820152601f60248201527f42696742616e673a2065786368616e676552617465206e6f742076616c6964006044820152606490fd5b614075915060203d602011610e2c57610e1d818361209a565b3861380f565b50505050509050565b9081526001600160a01b0391821660208201529116604082015260006060820152608081019190915260a0019056feae6e0ab3b95f0a53ff9660a390ccedcbbf1f2355dce974a9841af106fddcfabac353b09af857951dccce61b43a5854fc45beceed36c50e5d4cc2e71858a8e0df8be0079c531659141344cd1fd0a4f28419497f9722a3daafe3b4186f6b6457e0ddf252ad1be2c89b69c2b068fc378daa952ba7f163c4a11628f55a4df523b3ef1b6847dc741a1b0cd08d278845f9d819d87b734759afb55fe2de5cb82a9ae672a26469706673582212207fc0c3ee693393d05efdbb543966956f945794a2f822571caa58b5916902986264736f6c63430008120033",
  "linkReferences": {},
  "deployedLinkReferences": {}
}