{
  "_format": "hh-sol-artifact-1",
  "contractName": "BBLiquidation",
  "sourceName": "contracts/markets/bigBang/BBLiquidation.sol",
  "abi": [
    {
      "inputs": [],
      "name": "AmountNotValid",
      "type": "error"
    },
    {
      "inputs": [],
      "name": "BadDebt",
      "type": "error"
    },
    {
      "inputs": [],
      "name": "ExchangeRateNotValid",
      "type": "error"
    },
    {
      "inputs": [],
      "name": "ForbiddenAction",
      "type": "error"
    },
    {
      "inputs": [],
      "name": "LengthMismatch",
      "type": "error"
    },
    {
      "inputs": [],
      "name": "NotEnough",
      "type": "error"
    },
    {
      "inputs": [],
      "name": "NotEnoughCollateral",
      "type": "error"
    },
    {
      "inputs": [],
      "name": "NothingToLiquidate",
      "type": "error"
    },
    {
      "inputs": [],
      "name": "OnCollateralReceiverFailed",
      "type": "error"
    },
    {
      "inputs": [],
      "name": "Solvent",
      "type": "error"
    },
    {
      "anonymous": false,
      "inputs": [
        {
          "indexed": true,
          "internalType": "address",
          "name": "owner",
          "type": "address"
        },
        {
          "indexed": true,
          "internalType": "address",
          "name": "spender",
          "type": "address"
        },
        {
          "indexed": false,
          "internalType": "uint256",
          "name": "value",
          "type": "uint256"
        }
      ],
      "name": "Approval",
      "type": "event"
    },
    {
      "anonymous": false,
      "inputs": [
        {
          "indexed": true,
          "internalType": "address",
          "name": "owner",
          "type": "address"
        },
        {
          "indexed": true,
          "internalType": "address",
          "name": "spender",
          "type": "address"
        },
        {
          "indexed": true,
          "internalType": "uint256",
          "name": "value",
          "type": "uint256"
        }
      ],
      "name": "ApprovalBorrow",
      "type": "event"
    },
    {
      "anonymous": false,
      "inputs": [],
      "name": "AssetOracleDataUpdated",
      "type": "event"
    },
    {
      "anonymous": false,
      "inputs": [
        {
          "indexed": true,
          "internalType": "address",
          "name": "oldVal",
          "type": "address"
        },
        {
          "indexed": true,
          "internalType": "address",
          "name": "newVal",
          "type": "address"
        }
      ],
      "name": "AssetOracleUpdated",
      "type": "event"
    },
    {
      "anonymous": false,
      "inputs": [
        {
          "indexed": true,
          "internalType": "address",
          "name": "old",
          "type": "address"
        },
        {
          "indexed": true,
          "internalType": "address",
          "name": "_new",
          "type": "address"
        }
      ],
      "name": "ConservatorUpdated",
      "type": "event"
    },
    {
      "anonymous": false,
      "inputs": [
        {
          "indexed": true,
          "internalType": "uint256",
          "name": "oldVal",
          "type": "uint256"
        },
        {
          "indexed": true,
          "internalType": "uint256",
          "name": "newVal",
          "type": "uint256"
        }
      ],
      "name": "DebtRateAgainstEthUpdated",
      "type": "event"
    },
    {
      "anonymous": false,
      "inputs": [
        {
          "indexed": false,
          "internalType": "uint256",
          "name": "_oldVal",
          "type": "uint256"
        },
        {
          "indexed": false,
          "internalType": "uint256",
          "name": "_newVal",
          "type": "uint256"
        }
      ],
      "name": "ExchangeRateDurationUpdated",
      "type": "event"
    },
    {
      "anonymous": false,
      "inputs": [
        {
          "indexed": true,
          "internalType": "address",
          "name": "oldVal",
          "type": "address"
        },
        {
          "indexed": true,
          "internalType": "address",
          "name": "newVal",
          "type": "address"
        }
      ],
      "name": "LeverageExecutorSet",
      "type": "event"
    },
    {
      "anonymous": false,
      "inputs": [
        {
          "indexed": true,
          "internalType": "address",
          "name": "liquidator",
          "type": "address"
        },
        {
          "indexed": true,
          "internalType": "address[]",
          "name": "users",
          "type": "address[]"
        },
        {
          "indexed": true,
          "internalType": "uint256",
          "name": "liquidatorReward",
          "type": "uint256"
        },
        {
          "indexed": false,
          "internalType": "uint256",
          "name": "protocolReward",
          "type": "uint256"
        },
        {
          "indexed": false,
          "internalType": "uint256",
          "name": "repayedAmount",
          "type": "uint256"
        },
        {
          "indexed": false,
          "internalType": "uint256",
          "name": "collateralShareRemoved",
          "type": "uint256"
        }
      ],
      "name": "Liquidated",
      "type": "event"
    },
    {
      "anonymous": false,
      "inputs": [
        {
          "indexed": true,
          "internalType": "uint256",
          "name": "oldVal",
          "type": "uint256"
        },
        {
          "indexed": true,
          "internalType": "uint256",
          "name": "newVal",
          "type": "uint256"
        }
      ],
      "name": "LiquidationMultiplierUpdated",
      "type": "event"
    },
    {
      "anonymous": false,
      "inputs": [
        {
          "indexed": true,
          "internalType": "uint256",
          "name": "accruedAmount",
          "type": "uint256"
        },
        {
          "indexed": true,
          "internalType": "uint64",
          "name": "rate",
          "type": "uint64"
        }
      ],
      "name": "LogAccrue",
      "type": "event"
    },
    {
      "anonymous": false,
      "inputs": [
        {
          "indexed": true,
          "internalType": "address",
          "name": "from",
          "type": "address"
        },
        {
          "indexed": true,
          "internalType": "address",
          "name": "to",
          "type": "address"
        },
        {
          "indexed": true,
          "internalType": "uint256",
          "name": "share",
          "type": "uint256"
        }
      ],
      "name": "LogAddCollateral",
      "type": "event"
    },
    {
      "anonymous": false,
      "inputs": [
        {
          "indexed": true,
          "internalType": "address",
          "name": "from",
          "type": "address"
        },
        {
          "indexed": true,
          "internalType": "address",
          "name": "to",
          "type": "address"
        },
        {
          "indexed": true,
          "internalType": "uint256",
          "name": "amount",
          "type": "uint256"
        },
        {
          "indexed": false,
          "internalType": "uint256",
          "name": "feeAmount",
          "type": "uint256"
        },
        {
          "indexed": false,
          "internalType": "uint256",
          "name": "part",
          "type": "uint256"
        }
      ],
      "name": "LogBorrow",
      "type": "event"
    },
    {
      "anonymous": false,
      "inputs": [
        {
          "indexed": true,
          "internalType": "uint256",
          "name": "_oldVal",
          "type": "uint256"
        },
        {
          "indexed": true,
          "internalType": "uint256",
          "name": "_newVal",
          "type": "uint256"
        }
      ],
      "name": "LogBorrowCapUpdated",
      "type": "event"
    },
    {
      "anonymous": false,
      "inputs": [
        {
          "indexed": true,
          "internalType": "uint256",
          "name": "rate",
          "type": "uint256"
        }
      ],
      "name": "LogExchangeRate",
      "type": "event"
    },
    {
      "anonymous": false,
      "inputs": [
        {
          "indexed": true,
          "internalType": "address",
          "name": "from",
          "type": "address"
        },
        {
          "indexed": true,
          "internalType": "address",
          "name": "to",
          "type": "address"
        },
        {
          "indexed": true,
          "internalType": "uint256",
          "name": "share",
          "type": "uint256"
        }
      ],
      "name": "LogRemoveCollateral",
      "type": "event"
    },
    {
      "anonymous": false,
      "inputs": [
        {
          "indexed": true,
          "internalType": "address",
          "name": "from",
          "type": "address"
        },
        {
          "indexed": true,
          "internalType": "address",
          "name": "to",
          "type": "address"
        },
        {
          "indexed": true,
          "internalType": "uint256",
          "name": "amount",
          "type": "uint256"
        },
        {
          "indexed": false,
          "internalType": "uint256",
          "name": "part",
          "type": "uint256"
        }
      ],
      "name": "LogRepay",
      "type": "event"
    },
    {
      "anonymous": false,
      "inputs": [
        {
          "indexed": true,
          "internalType": "uint256",
          "name": "oldVal",
          "type": "uint256"
        },
        {
          "indexed": true,
          "internalType": "uint256",
          "name": "newVal",
          "type": "uint256"
        }
      ],
      "name": "MaxDebtRateUpdated",
      "type": "event"
    },
    {
      "anonymous": false,
      "inputs": [
        {
          "indexed": true,
          "internalType": "uint256",
          "name": "oldVal",
          "type": "uint256"
        },
        {
          "indexed": true,
          "internalType": "uint256",
          "name": "newVal",
          "type": "uint256"
        }
      ],
      "name": "MinDebtRateUpdated",
      "type": "event"
    },
    {
      "anonymous": false,
      "inputs": [],
      "name": "OracleDataUpdated",
      "type": "event"
    },
    {
      "anonymous": false,
      "inputs": [],
      "name": "OracleUpdated",
      "type": "event"
    },
    {
      "anonymous": false,
      "inputs": [
        {
          "indexed": true,
          "internalType": "address",
          "name": "previousOwner",
          "type": "address"
        },
        {
          "indexed": true,
          "internalType": "address",
          "name": "newOwner",
          "type": "address"
        }
      ],
      "name": "OwnershipTransferred",
      "type": "event"
    },
    {
      "anonymous": false,
      "inputs": [
        {
          "indexed": true,
          "internalType": "enum Market.PauseType",
          "name": "_type",
          "type": "uint8"
        },
        {
          "indexed": true,
          "internalType": "bool",
          "name": "oldState",
          "type": "bool"
        },
        {
          "indexed": true,
          "internalType": "bool",
          "name": "newState",
          "type": "bool"
        }
      ],
      "name": "PausedUpdated",
      "type": "event"
    },
    {
      "anonymous": false,
      "inputs": [
        {
          "indexed": true,
          "internalType": "address",
          "name": "from",
          "type": "address"
        },
        {
          "indexed": true,
          "internalType": "address",
          "name": "to",
          "type": "address"
        },
        {
          "indexed": false,
          "internalType": "uint256",
          "name": "value",
          "type": "uint256"
        }
      ],
      "name": "Transfer",
      "type": "event"
    },
    {
      "anonymous": false,
      "inputs": [
        {
          "indexed": true,
          "internalType": "uint256",
          "name": "oldMin",
          "type": "uint256"
        },
        {
          "indexed": true,
          "internalType": "uint256",
          "name": "newMin",
          "type": "uint256"
        },
        {
          "indexed": true,
          "internalType": "uint256",
          "name": "oldMax",
          "type": "uint256"
        },
        {
          "indexed": false,
          "internalType": "uint256",
          "name": "newMax",
          "type": "uint256"
        }
      ],
      "name": "UpdateMinMaxMintFee",
      "type": "event"
    },
    {
      "anonymous": false,
      "inputs": [
        {
          "indexed": true,
          "internalType": "uint256",
          "name": "oldMin",
          "type": "uint256"
        },
        {
          "indexed": true,
          "internalType": "uint256",
          "name": "newMin",
          "type": "uint256"
        },
        {
          "indexed": true,
          "internalType": "uint256",
          "name": "oldMax",
          "type": "uint256"
        },
        {
          "indexed": false,
          "internalType": "uint256",
          "name": "newMax",
          "type": "uint256"
        }
      ],
      "name": "UpdateMinMaxMintRange",
      "type": "event"
    },
    {
      "inputs": [],
      "name": "DOMAIN_SEPARATOR",
      "outputs": [
        {
          "internalType": "bytes32",
          "name": "",
          "type": "bytes32"
        }
      ],
      "stateMutability": "view",
      "type": "function"
    },
    {
      "inputs": [],
      "name": "accrue",
      "outputs": [],
      "stateMutability": "nonpayable",
      "type": "function"
    },
    {
      "inputs": [],
      "name": "accrueInfo",
      "outputs": [
        {
          "internalType": "uint64",
          "name": "debtRate",
          "type": "uint64"
        },
        {
          "internalType": "uint64",
          "name": "lastAccrued",
          "type": "uint64"
        }
      ],
      "stateMutability": "view",
      "type": "function"
    },
    {
      "inputs": [
        {
          "internalType": "address",
          "name": "",
          "type": "address"
        },
        {
          "internalType": "address",
          "name": "",
          "type": "address"
        }
      ],
      "name": "allowance",
      "outputs": [
        {
          "internalType": "uint256",
          "name": "",
          "type": "uint256"
        }
      ],
      "stateMutability": "view",
      "type": "function"
    },
    {
      "inputs": [
        {
          "internalType": "address",
          "name": "",
          "type": "address"
        },
        {
          "internalType": "address",
          "name": "",
          "type": "address"
        }
      ],
      "name": "allowanceBorrow",
      "outputs": [
        {
          "internalType": "uint256",
          "name": "",
          "type": "uint256"
        }
      ],
      "stateMutability": "view",
      "type": "function"
    },
    {
      "inputs": [
        {
          "internalType": "address",
          "name": "spender",
          "type": "address"
        },
        {
          "internalType": "uint256",
          "name": "amount",
          "type": "uint256"
        }
      ],
      "name": "approve",
      "outputs": [
        {
          "internalType": "bool",
          "name": "",
          "type": "bool"
        }
      ],
      "stateMutability": "nonpayable",
      "type": "function"
    },
    {
      "inputs": [
        {
          "internalType": "address",
          "name": "spender",
          "type": "address"
        },
        {
          "internalType": "uint256",
          "name": "amount",
          "type": "uint256"
        }
      ],
      "name": "approveBorrow",
      "outputs": [
        {
          "internalType": "bool",
          "name": "",
          "type": "bool"
        }
      ],
      "stateMutability": "nonpayable",
      "type": "function"
    },
    {
      "inputs": [],
      "name": "asset",
      "outputs": [
        {
          "internalType": "contract IERC20",
          "name": "",
          "type": "address"
        }
      ],
      "stateMutability": "view",
      "type": "function"
    },
    {
      "inputs": [],
      "name": "assetId",
      "outputs": [
        {
          "internalType": "uint256",
          "name": "",
          "type": "uint256"
        }
      ],
      "stateMutability": "view",
      "type": "function"
    },
    {
      "inputs": [],
      "name": "assetOracle",
      "outputs": [
        {
          "internalType": "contract IOracle",
          "name": "",
          "type": "address"
        }
      ],
      "stateMutability": "view",
      "type": "function"
    },
    {
      "inputs": [],
      "name": "assetOracleData",
      "outputs": [
        {
          "internalType": "bytes",
          "name": "",
          "type": "bytes"
        }
      ],
      "stateMutability": "view",
      "type": "function"
    },
    {
      "inputs": [
        {
          "internalType": "address",
          "name": "",
          "type": "address"
        }
      ],
      "name": "balanceOf",
      "outputs": [
        {
          "internalType": "uint256",
          "name": "",
          "type": "uint256"
        }
      ],
      "stateMutability": "view",
      "type": "function"
    },
    {
      "inputs": [],
      "name": "callerFee",
      "outputs": [
        {
          "internalType": "uint256",
          "name": "",
          "type": "uint256"
        }
      ],
      "stateMutability": "view",
      "type": "function"
    },
    {
      "inputs": [],
      "name": "claimOwnership",
      "outputs": [],
      "stateMutability": "nonpayable",
      "type": "function"
    },
    {
      "inputs": [],
      "name": "collateral",
      "outputs": [
        {
          "internalType": "contract IERC20",
          "name": "",
          "type": "address"
        }
      ],
      "stateMutability": "view",
      "type": "function"
    },
    {
      "inputs": [],
      "name": "collateralId",
      "outputs": [
        {
          "internalType": "uint256",
          "name": "",
          "type": "uint256"
        }
      ],
      "stateMutability": "view",
      "type": "function"
    },
    {
      "inputs": [],
      "name": "collateralizationRate",
      "outputs": [
        {
          "internalType": "uint256",
          "name": "",
          "type": "uint256"
        }
      ],
      "stateMutability": "view",
      "type": "function"
    },
    {
      "inputs": [
        {
          "internalType": "uint256",
          "name": "borrowPart",
          "type": "uint256"
        },
        {
          "internalType": "uint256",
          "name": "collateralPartInAsset",
          "type": "uint256"
        },
        {
          "internalType": "uint256",
          "name": "ratesPrecision",
          "type": "uint256"
        }
      ],
      "name": "computeClosingFactor",
      "outputs": [
        {
          "internalType": "uint256",
          "name": "",
          "type": "uint256"
        }
      ],
      "stateMutability": "view",
      "type": "function"
    },
    {
      "inputs": [
        {
          "internalType": "address",
          "name": "user",
          "type": "address"
        },
        {
          "internalType": "uint256",
          "name": "_exchangeRate",
          "type": "uint256"
        }
      ],
      "name": "computeLiquidatorReward",
      "outputs": [
        {
          "internalType": "uint256",
          "name": "",
          "type": "uint256"
        }
      ],
      "stateMutability": "view",
      "type": "function"
    },
    {
      "inputs": [
        {
          "internalType": "address",
          "name": "user",
          "type": "address"
        },
        {
          "internalType": "uint256",
          "name": "_exchangeRate",
          "type": "uint256"
        }
      ],
      "name": "computeTVLInfo",
      "outputs": [
        {
          "internalType": "uint256",
          "name": "amountToSolvency",
          "type": "uint256"
        },
        {
          "internalType": "uint256",
          "name": "minTVL",
          "type": "uint256"
        },
        {
          "internalType": "uint256",
          "name": "maxTVL",
          "type": "uint256"
        }
      ],
      "stateMutability": "view",
      "type": "function"
    },
    {
      "inputs": [],
      "name": "conservator",
      "outputs": [
        {
          "internalType": "address",
          "name": "",
          "type": "address"
        }
      ],
      "stateMutability": "view",
      "type": "function"
    },
    {
      "inputs": [],
      "name": "debtRateAgainstEthMarket",
      "outputs": [
        {
          "internalType": "uint256",
          "name": "",
          "type": "uint256"
        }
      ],
      "stateMutability": "view",
      "type": "function"
    },
    {
      "inputs": [],
      "name": "debtStartPoint",
      "outputs": [
        {
          "internalType": "uint256",
          "name": "",
          "type": "uint256"
        }
      ],
      "stateMutability": "view",
      "type": "function"
    },
    {
      "inputs": [],
      "name": "exchangeRate",
      "outputs": [
        {
          "internalType": "uint256",
          "name": "",
          "type": "uint256"
        }
      ],
      "stateMutability": "view",
      "type": "function"
    },
    {
      "inputs": [],
      "name": "getDebtRate",
      "outputs": [
        {
          "internalType": "uint256",
          "name": "",
          "type": "uint256"
        }
      ],
      "stateMutability": "view",
      "type": "function"
    },
    {
      "inputs": [],
      "name": "getTotalDebt",
      "outputs": [
        {
          "internalType": "uint256",
          "name": "",
          "type": "uint256"
        }
      ],
      "stateMutability": "view",
      "type": "function"
    },
    {
      "inputs": [],
      "name": "isMainMarket",
      "outputs": [
        {
          "internalType": "bool",
          "name": "",
          "type": "bool"
        }
      ],
      "stateMutability": "view",
      "type": "function"
    },
    {
      "inputs": [],
      "name": "leverageExecutor",
      "outputs": [
        {
          "internalType": "contract ILeverageExecutor",
          "name": "",
          "type": "address"
        }
      ],
      "stateMutability": "view",
      "type": "function"
    },
    {
      "inputs": [
        {
          "internalType": "address[]",
          "name": "users",
          "type": "address[]"
        },
        {
          "internalType": "uint256[]",
          "name": "maxBorrowParts",
          "type": "uint256[]"
        },
        {
          "internalType": "contract IMarketLiquidatorReceiver[]",
          "name": "liquidatorReceivers",
          "type": "address[]"
        },
        {
          "internalType": "bytes[]",
          "name": "liquidatorReceiverDatas",
          "type": "bytes[]"
        }
      ],
      "name": "liquidate",
      "outputs": [],
      "stateMutability": "nonpayable",
      "type": "function"
    },
    {
      "inputs": [
        {
          "internalType": "address",
          "name": "user",
          "type": "address"
        },
        {
          "internalType": "address",
          "name": "receiver",
          "type": "address"
        },
        {
          "internalType": "contract IMarketLiquidatorReceiver",
          "name": "liquidatorReceiver",
          "type": "address"
        },
        {
          "internalType": "bytes",
          "name": "liquidatorReceiverData",
          "type": "bytes"
        }
      ],
      "name": "liquidateBadDebt",
      "outputs": [],
      "stateMutability": "nonpayable",
      "type": "function"
    },
    {
      "inputs": [],
      "name": "liquidationBonusAmount",
      "outputs": [
        {
          "internalType": "uint256",
          "name": "",
          "type": "uint256"
        }
      ],
      "stateMutability": "view",
      "type": "function"
    },
    {
      "inputs": [],
      "name": "liquidationCollateralizationRate",
      "outputs": [
        {
          "internalType": "uint256",
          "name": "",
          "type": "uint256"
        }
      ],
      "stateMutability": "view",
      "type": "function"
    },
    {
      "inputs": [],
      "name": "liquidationMultiplier",
      "outputs": [
        {
          "internalType": "uint256",
          "name": "",
          "type": "uint256"
        }
      ],
      "stateMutability": "view",
      "type": "function"
    },
    {
      "inputs": [],
      "name": "maxDebtRate",
      "outputs": [
        {
          "internalType": "uint256",
          "name": "",
          "type": "uint256"
        }
      ],
      "stateMutability": "view",
      "type": "function"
    },
    {
      "inputs": [],
      "name": "maxLiquidatorReward",
      "outputs": [
        {
          "internalType": "uint256",
          "name": "",
          "type": "uint256"
        }
      ],
      "stateMutability": "view",
      "type": "function"
    },
    {
      "inputs": [],
      "name": "maxMintFee",
      "outputs": [
        {
          "internalType": "uint256",
          "name": "",
          "type": "uint256"
        }
      ],
      "stateMutability": "view",
      "type": "function"
    },
    {
      "inputs": [],
      "name": "maxMintFeeStart",
      "outputs": [
        {
          "internalType": "uint256",
          "name": "",
          "type": "uint256"
        }
      ],
      "stateMutability": "view",
      "type": "function"
    },
    {
      "inputs": [],
      "name": "minDebtRate",
      "outputs": [
        {
          "internalType": "uint256",
          "name": "",
          "type": "uint256"
        }
      ],
      "stateMutability": "view",
      "type": "function"
    },
    {
      "inputs": [],
      "name": "minLiquidatorReward",
      "outputs": [
        {
          "internalType": "uint256",
          "name": "",
          "type": "uint256"
        }
      ],
      "stateMutability": "view",
      "type": "function"
    },
    {
      "inputs": [],
      "name": "minMintFee",
      "outputs": [
        {
          "internalType": "uint256",
          "name": "",
          "type": "uint256"
        }
      ],
      "stateMutability": "view",
      "type": "function"
    },
    {
      "inputs": [],
      "name": "minMintFeeStart",
      "outputs": [
        {
          "internalType": "uint256",
          "name": "",
          "type": "uint256"
        }
      ],
      "stateMutability": "view",
      "type": "function"
    },
    {
      "inputs": [
        {
          "internalType": "address",
          "name": "owner",
          "type": "address"
        }
      ],
      "name": "nonces",
      "outputs": [
        {
          "internalType": "uint256",
          "name": "",
          "type": "uint256"
        }
      ],
      "stateMutability": "view",
      "type": "function"
    },
    {
      "inputs": [
        {
          "internalType": "address",
          "name": "user",
          "type": "address"
        }
      ],
      "name": "openingFees",
      "outputs": [
        {
          "internalType": "uint256",
          "name": "fee",
          "type": "uint256"
        }
      ],
      "stateMutability": "view",
      "type": "function"
    },
    {
      "inputs": [],
      "name": "oracle",
      "outputs": [
        {
          "internalType": "contract IOracle",
          "name": "",
          "type": "address"
        }
      ],
      "stateMutability": "view",
      "type": "function"
    },
    {
      "inputs": [],
      "name": "oracleData",
      "outputs": [
        {
          "internalType": "bytes",
          "name": "",
          "type": "bytes"
        }
      ],
      "stateMutability": "view",
      "type": "function"
    },
    {
      "inputs": [],
      "name": "owner",
      "outputs": [
        {
          "internalType": "address",
          "name": "",
          "type": "address"
        }
      ],
      "stateMutability": "view",
      "type": "function"
    },
    {
      "inputs": [
        {
          "internalType": "enum Market.PauseType",
          "name": "pauseProp",
          "type": "uint8"
        }
      ],
      "name": "pauseOptions",
      "outputs": [
        {
          "internalType": "bool",
          "name": "pauseStatus",
          "type": "bool"
        }
      ],
      "stateMutability": "view",
      "type": "function"
    },
    {
      "inputs": [],
      "name": "pendingOwner",
      "outputs": [
        {
          "internalType": "address",
          "name": "",
          "type": "address"
        }
      ],
      "stateMutability": "view",
      "type": "function"
    },
    {
      "inputs": [],
      "name": "penrose",
      "outputs": [
        {
          "internalType": "contract IPenrose",
          "name": "",
          "type": "address"
        }
      ],
      "stateMutability": "view",
      "type": "function"
    },
    {
      "inputs": [
        {
          "internalType": "address",
          "name": "owner",
          "type": "address"
        },
        {
          "internalType": "address",
          "name": "spender",
          "type": "address"
        },
        {
          "internalType": "uint256",
          "name": "value",
          "type": "uint256"
        },
        {
          "internalType": "uint256",
          "name": "deadline",
          "type": "uint256"
        },
        {
          "internalType": "uint8",
          "name": "v",
          "type": "uint8"
        },
        {
          "internalType": "bytes32",
          "name": "r",
          "type": "bytes32"
        },
        {
          "internalType": "bytes32",
          "name": "s",
          "type": "bytes32"
        }
      ],
      "name": "permit",
      "outputs": [],
      "stateMutability": "nonpayable",
      "type": "function"
    },
    {
      "inputs": [
        {
          "internalType": "bytes",
          "name": "data",
          "type": "bytes"
        },
        {
          "internalType": "uint16",
          "name": "actionType",
          "type": "uint16"
        }
      ],
      "name": "permitAction",
      "outputs": [],
      "stateMutability": "nonpayable",
      "type": "function"
    },
    {
      "inputs": [
        {
          "internalType": "address",
          "name": "owner",
          "type": "address"
        },
        {
          "internalType": "address",
          "name": "spender",
          "type": "address"
        },
        {
          "internalType": "uint256",
          "name": "value",
          "type": "uint256"
        },
        {
          "internalType": "uint256",
          "name": "deadline",
          "type": "uint256"
        },
        {
          "internalType": "uint8",
          "name": "v",
          "type": "uint8"
        },
        {
          "internalType": "bytes32",
          "name": "r",
          "type": "bytes32"
        },
        {
          "internalType": "bytes32",
          "name": "s",
          "type": "bytes32"
        }
      ],
      "name": "permitBorrow",
      "outputs": [],
      "stateMutability": "nonpayable",
      "type": "function"
    },
    {
      "inputs": [],
      "name": "protocolFee",
      "outputs": [
        {
          "internalType": "uint256",
          "name": "",
          "type": "uint256"
        }
      ],
      "stateMutability": "view",
      "type": "function"
    },
    {
      "inputs": [],
      "name": "rateTimestamp",
      "outputs": [
        {
          "internalType": "uint256",
          "name": "",
          "type": "uint256"
        }
      ],
      "stateMutability": "view",
      "type": "function"
    },
    {
      "inputs": [],
      "name": "rateValidDuration",
      "outputs": [
        {
          "internalType": "uint256",
          "name": "",
          "type": "uint256"
        }
      ],
      "stateMutability": "view",
      "type": "function"
    },
    {
      "inputs": [
        {
          "internalType": "contract ILeverageExecutor",
          "name": "_executor",
          "type": "address"
        }
      ],
      "name": "setLeverageExecutor",
      "outputs": [],
      "stateMutability": "nonpayable",
      "type": "function"
    },
    {
      "inputs": [
        {
          "internalType": "contract IOracle",
          "name": "_oracle",
          "type": "address"
        },
        {
          "internalType": "bytes",
          "name": "_oracleData",
          "type": "bytes"
        },
        {
          "internalType": "address",
          "name": "_conservator",
          "type": "address"
        },
        {
          "internalType": "uint256",
          "name": "_callerFee",
          "type": "uint256"
        },
        {
          "internalType": "uint256",
          "name": "_protocolFee",
          "type": "uint256"
        },
        {
          "internalType": "uint256",
          "name": "_liquidationBonusAmount",
          "type": "uint256"
        },
        {
          "internalType": "uint256",
          "name": "_minLiquidatorReward",
          "type": "uint256"
        },
        {
          "internalType": "uint256",
          "name": "_maxLiquidatorReward",
          "type": "uint256"
        },
        {
          "internalType": "uint256",
          "name": "_totalBorrowCap",
          "type": "uint256"
        },
        {
          "internalType": "uint256",
          "name": "_collateralizationRate",
          "type": "uint256"
        },
        {
          "internalType": "uint256",
          "name": "_liquidationCollateralizationRate",
          "type": "uint256"
        }
      ],
      "name": "setMarketConfig",
      "outputs": [],
      "stateMutability": "nonpayable",
      "type": "function"
    },
    {
      "inputs": [],
      "name": "totalBorrow",
      "outputs": [
        {
          "internalType": "uint128",
          "name": "elastic",
          "type": "uint128"
        },
        {
          "internalType": "uint128",
          "name": "base",
          "type": "uint128"
        }
      ],
      "stateMutability": "view",
      "type": "function"
    },
    {
      "inputs": [],
      "name": "totalBorrowCap",
      "outputs": [
        {
          "internalType": "uint256",
          "name": "",
          "type": "uint256"
        }
      ],
      "stateMutability": "view",
      "type": "function"
    },
    {
      "inputs": [],
      "name": "totalCollateralShare",
      "outputs": [
        {
          "internalType": "uint256",
          "name": "",
          "type": "uint256"
        }
      ],
      "stateMutability": "view",
      "type": "function"
    },
    {
      "inputs": [],
      "name": "totalSupply",
      "outputs": [
        {
          "internalType": "uint256",
          "name": "",
          "type": "uint256"
        }
      ],
      "stateMutability": "view",
      "type": "function"
    },
    {
      "inputs": [
        {
          "internalType": "address",
          "name": "to",
          "type": "address"
        },
        {
          "internalType": "uint256",
          "name": "amount",
          "type": "uint256"
        }
      ],
      "name": "transfer",
      "outputs": [
        {
          "internalType": "bool",
          "name": "",
          "type": "bool"
        }
      ],
      "stateMutability": "nonpayable",
      "type": "function"
    },
    {
      "inputs": [
        {
          "internalType": "address",
          "name": "from",
          "type": "address"
        },
        {
          "internalType": "address",
          "name": "to",
          "type": "address"
        },
        {
          "internalType": "uint256",
          "name": "amount",
          "type": "uint256"
        }
      ],
      "name": "transferFrom",
      "outputs": [
        {
          "internalType": "bool",
          "name": "",
          "type": "bool"
        }
      ],
      "stateMutability": "nonpayable",
      "type": "function"
    },
    {
      "inputs": [
        {
          "internalType": "address",
          "name": "newOwner",
          "type": "address"
        },
        {
          "internalType": "bool",
          "name": "direct",
          "type": "bool"
        },
        {
          "internalType": "bool",
          "name": "renounce",
          "type": "bool"
        }
      ],
      "name": "transferOwnership",
      "outputs": [],
      "stateMutability": "nonpayable",
      "type": "function"
    },
    {
      "inputs": [],
      "name": "updateExchangeRate",
      "outputs": [
        {
          "internalType": "bool",
          "name": "updated",
          "type": "bool"
        },
        {
          "internalType": "uint256",
          "name": "rate",
          "type": "uint256"
        }
      ],
      "stateMutability": "nonpayable",
      "type": "function"
    },
    {
      "inputs": [
        {
          "internalType": "enum Market.PauseType",
          "name": "_type",
          "type": "uint8"
        },
        {
          "internalType": "bool",
          "name": "val",
          "type": "bool"
        }
      ],
      "name": "updatePause",
      "outputs": [],
      "stateMutability": "nonpayable",
      "type": "function"
    },
    {
      "inputs": [
        {
          "internalType": "address",
          "name": "",
          "type": "address"
        }
      ],
      "name": "userBorrowPart",
      "outputs": [
        {
          "internalType": "uint256",
          "name": "",
          "type": "uint256"
        }
      ],
      "stateMutability": "view",
      "type": "function"
    },
    {
      "inputs": [
        {
          "internalType": "address",
          "name": "",
          "type": "address"
        }
      ],
      "name": "userCollateralShare",
      "outputs": [
        {
          "internalType": "uint256",
          "name": "",
          "type": "uint256"
        }
      ],
      "stateMutability": "view",
      "type": "function"
    },
    {
      "inputs": [],
      "name": "yieldBox",
      "outputs": [
        {
          "internalType": "contract YieldBox",
          "name": "",
          "type": "address"
        }
      ],
      "stateMutability": "view",
      "type": "function"
    }
  ],
  "bytecode": "0x61014080604052346200018f57620000178162000194565b600f81526001602082016e546170696f63612042696742616e6760881b81526020604051620000468162000194565b8381520192603160f81b845251902091208160e052610100918183524660a0526040519160208301907f8b73c3c69bb8fe3d512ecc4cf759cc79239f7b179b0ffacaa9a75d522b39400f92838352604085015260608401524660808401523060a084015260a0835260c083019280841060018060401b03851117620001795760408490525190206080523060c052610120908152600580546001600160a01b0319163390811790915560007f8be0079c531659141344cd1fd0a4f28419497f9722a3daafe3b4186f6b6457e08180a362013880601b5562015f90601c55612710601d55612ee06020556000602d556103e8602e5561421f9283620001b1843960805183613576015260a05183613641015260c05183613540015260e051836135c5015251826135eb015251816135a20152f35b634e487b7160e01b600052604160045260246000fd5b600080fd5b604081019081106001600160401b03821117620001795760405256fe608080604052600436101561001357600080fd5b60e0600035811c918262a02a2014612b5f5750816302ce728f14612a03578163078dfbe7146128ff578163095ea7b3146128d95781630c4e84f0146127bf5781630f8b29ea146127a157816318160ddd146127855781631c9e379b1461274b5781631d4d3a5d146127225781631da8bf101461266b5781631fb8f81a1461264d57816323b872dd146124a9578163331960ff1461248b57816334ce998a1461246257816334d441d0146124445781633644e5151461242957816337b6b7b91461240b57816338d52e0f146123e25781633ba0b9a9146123c45781633f741adb146123a057816340626d8b1461238257816344de240a14612364578163473e3ce71461234657816348e4163e1461230c5781634e71e0c81461225e578163529898f214612241578163542afda31461222357816357935462146122055781636b19ad16146121e75781636c3d8b8f146121be57816370a0823114612184578163727785471461214e57816374645ff3146120bb57816374c9e4811461209d578163790c84671461207f5781637dc0d1d0146120565781637ecebe001461201c5781637fa0b84e14611feb5781638285ef4014611fb957816387b2793714611f7f5781638c5d0ed314611f615781638da5cb5b14611f38578163910dd7c814611ce8578163932bc4f814611c0657816399a9702814611bdf5781639e15e89f14611b96578163a28e6b8214611765578163a9059cbb1461167e578163b0e21e8a14611660578163b27c0e741461162f578163b7113f191461160c578163bb4cfe3b146115ee578163bde39c5d146115d0578163c1ad5c8d146115ad578163ce8849ed14611584578163d3fb2a3814611141578163d505accf14610fbc57508063d8dfeb4514610f93578063da863f0e14610f6a578063dd62ed3e14610f19578063de40657714610ef0578063e0996cb614610ed2578063e30c397814610ea9578063e5644d8b14610403578063ea64dd56146103e5578063eec0f42e146103c7578063ef2b234a14610355578063f791395d146103375763f8ba4cff1461031757600080fd5b3461033257600036600319011261033257610330613bf4565b005b600080fd5b34610332576000366003190112610332576020602854604051908152f35b34610332576020366003190112610332576004356001600160a01b03818116918290036103325761038b81600554163314612e00565b816021549182167ffb4fd7114609dd603b57adbc2082205bfbbcabf9265c4b437b472f5c592b8cd7600080a36001600160a01b03191617602155005b34610332576000366003190112610332576020600c54604051908152f35b34610332576000366003190112610332576020601f54604051908152f35b34610332576080366003190112610332576004356001600160401b03811161033257610433903690600401612dd0565b906024356001600160401b03811161033257610453903690600401612dd0565b6044356001600160401b03811161033257610472903690600401612dd0565b9290916064356001600160401b03811161033257610494903690600401612dd0565b9490916004600052600760205260ff60406000205416610e73578715610e6157808803610e4c57818803610e4c57818603610e4c57600f546040805163d6d7d52560e01b8152959186906001600160a01b0316816000816104f76004820161329e565b03925af1948515610ab157600090600096610e18575b508581610e0e575b5015610e0457846011555b8415610df25761052e613bf4565b60009860005b81811061057d578a1561054357005b60405162461bcd60e51b815260206004820152601260248201527110908e881b9bc81d5cd95c9cc8199bdd5b9960721b6044820152606490fd5b61058881838c61408c565b356001600160a01b0381168103610332576105a3888261409c565b156105b8575b506105b390613889565b610534565b9a6105c290613889565b9a6105ce82868661408c565b35906105db83888c61408c565b35906001600160a01b0382168203610332578b841015610a6e578360051b890135601e198a360301811215610332578901926001600160401b0384351161033257833536036020850113610332576106338b83613433565b938b15610df25760018060a01b03600954166020600c5460018060a01b03861660005260188252606460406000205491604051948593849263442c159960e01b845260048401526024830152600060448301525afa908115610ab1578d90600092610dbc575b506106aa6106af9260225490612e8b565b612eb4565b9360018060a01b03841660005260176020526106d085604060002054612f68565b80601d5480610d9d575b5080851115610d96575b6001600160a01b0386166000908152601760205260409020549081811115610d8d575080965b1115610d7b578d9381811115610d7457505b6001600160a01b0385166000908152601760205260409020549081811115610d6957506107498180612ee2565b6001600160a01b03861660009081526017602052604090205561076a613b21565b6020810180519091906001600160801b0316610d37575050602081965b60646107ad6107a460018060a01b036009541698600c5494612e8b565b60225490612eb4565b916040519788938492638eb22cdd60e01b845260048401526024830152600060448301525afa938415610ab157600094610d03575b506001600160a01b0385166000908152601860205260409020548411610cf25760018060a01b03851660005260186020526040600020610823858254612ee2565b90558515610ce05760148054909161086c6001600160801b0361084a8a8216828616613d31565b16926001600160801b0319926001600160801b0316908316841760801c613d31565b60801b16179055601580548480821115610cd65761088991612ee2565b905b5560018060a01b0360095416906020600e54606460405180958193638eb22cdd60e01b835260048301528a6024830152600160448301525afa918215610ab157600092610ca0575b506108e96108f092933690602081359101612d6c565b9084613d60565b50818110610c8e5781811115610c7a5761091c61091461092493620186a093612ee2565b965b87612e8b565b048095612ee2565b9184610af6575b600d5460095460405163095ea7b360e01b81526001600160a01b039182166004820152600060248201819052909260209284926044928492165af18015610ab157610abd575b50600d546001600160a01b0316803b1561033257604051632770a7eb60e21b815230600482015260248101869052906000908290604490829084905af18015610ab157610a84575b50604051906109c782612c9e565b6001825260203681840137815115610a6e576001600160a01b03166020820190815260405191518291906000905b808210610a4c575050508190039020604080519384526020840194909452928201526105b39392919033907f85b91d472e69b2cfe848ed50eb5d8582ae96c22057b6e46250255dd6f6c3519290606090a4906105a9565b82516001600160a01b03168452602093840193909201916001909101906109f5565b634e487b7160e01b600052603260045260246000fd5b6001600160401b038111610a9b57604052386109b9565b634e487b7160e01b600052604160045260246000fd5b6040513d6000823e3d90fd5b6020813d602011610aee575b81610ad660209383612cf0565b8101031261033257610ae790613274565b5038610971565b3d9150610ac9565b600d5460095460405163095ea7b360e01b81526001600160a01b039182166004820152600060248201819052909260209284926044928492165af18015610ab157610c41575b50600d5460095460405163095ea7b360e01b81526001600160a01b03918216600482015260001960248201529160209183916044918391600091165af18015610ab157610c08575b506000604060018060a01b036009541660a4600e5483519485938492634d4d7cbd60e11b845260048401523060248401523360448401528160648401528b60848401525af18015610ab157610bda575b5061092b565b610bfb9060403d604011610c01575b610bf38183612cf0565b810190613d4a565b50610bd4565b503d610be9565b6020813d602011610c39575b81610c2160209383612cf0565b8101031261033257610c3290613274565b5038610b84565b3d9150610c14565b6020813d602011610c72575b81610c5a60209383612cf0565b8101031261033257610c6b90613274565b5038610b3c565b3d9150610c4d565b5050610924620186a061091c600096610916565b6040516332457ad960e21b8152600490fd5b91506020823d602011610cce575b81610cbb60209383612cf0565b81010312610332579051906108e96108d3565b3d9150610cae565b505060009061088b565b6040516351f0c00360e01b8152600490fd5b60405162d11df360e61b8152600490fd5b9093506020813d602011610d2f575b81610d1f60209383612cf0565b81010312610332575192386107e2565b3d9150610d12565b51602091610d6391610d52906001600160801b031685612e8b565b90516001600160801b031690612eb4565b96610787565b610749908092612ee2565b905061071c565b6040516331607f7760e21b8152600490fd5b9050809661070a565b50836106e4565b90620186a0610daf610db69383612e8b565b0490612eef565b386106da565b9150506020813d602011610dea575b81610dd860209383612cf0565b8101031261033257518c6106aa610699565b3d9150610dcb565b6040516331b705ed60e11b8152600490fd5b6011549450610520565b905015158a610515565b9050610e3d91955060403d604011610e45575b610e358183612cf0565b810190613281565b94908a61050d565b503d610e2b565b6040516001621398b960e31b03198152600490fd5b604051638c20998d60e01b8152600490fd5b60405162461bcd60e51b815260206004820152600e60248201526d13585c9ad95d0e881c185d5cd95960921b6044820152606490fd5b34610332576000366003190112610332576006546040516001600160a01b039091168152602090f35b34610332576000366003190112610332576020601d54604051908152f35b34610332576000366003190112610332576009546040516001600160a01b039091168152602090f35b3461033257604036600319011261033257610f32612bab565b610f3a612bc1565b9060018060a01b038091166000526002602052604060002091166000526020526020604060002054604051908152f35b34610332576000366003190112610332576021546040516001600160a01b039091168152602090f35b3461033257600036600319011261033257600b546040516001600160a01b039091168152602090f35b3461033257610fca36612be6565b839496979392919242116110fc576110a8926110a09260018060a01b0395868b169788600052600460205260406000209182549261100784613889565b90556040519160208301937f9cc5629bbe7baa98a89f6f8c2c396b83ab62dbb6cbb12f17f1d6ba7e6f53e2668552600060408501528b60608501528a8d1660808501528d60a085015260c084015281830152815261106481612cb9565b51902061106f61353d565b9060405190602082019261190160f01b8452602283015260428201526042815261109881612cd5565b519020613804565b919091613705565b16036110b757610330926138e6565b60405162461bcd60e51b815260206004820152601e60248201527f45524332305065726d69743a20696e76616c6964207369676e617475726500006044820152606490fd5b60405162461bcd60e51b815260206004820152601d60248201527f45524332305065726d69743a206578706972656420646561646c696e650000006044820152606490fd5b3461033257610160366003190112610332576001600160a01b0360043581811690819003610332576001600160401b03916024358381116103325761118a903690600401612da3565b909360443593838516809503610332576111a984600554163314612e00565b80611545575b50816113fa575b5050908092506113b9575b5050606435806113a1575b5060843580611389575b5060a43580611372575b5060c4358061134e575b5060e4358061132a575b5061010435806112f8575b506101243580611284575b50610144358061121657005b601e54811061122457601f55005b60405162461bcd60e51b815260206004820152603260248201527f4d61726b65743a206c69717569646174696f6e436f6c6c61746572616c697a616044820152711d1a5bdb94985d19481d1bdbc81cdb585b1b60721b6064820152608490fd5b611293620186a0821115612e4b565b601f5481116112a557601e558061120a565b60405162461bcd60e51b815260206004820152602560248201527f4d61726b65743a20636f6c6c61746572616c697a6174696f6e5261746520746f6044820152646f2062696760d81b6064820152608490fd5b806016547fae6e0ab3b95f0a53ff9660a390ccedcbbf1f2355dce974a9841af106fddcfaba600080a3601655806111ff565b611338620186a08210612e4b565b611345601b548211612e4b565b601c55806111f4565b61135c620186a08210612e4b565b611369601c548210612e4b565b601b55806111ea565b611380620186a08210612e4b565b601d55806111e0565b611398620186a0821115612e4b565b601a55806111d6565b6113b0620186a0821115612e4b565b601955806111cc565b816008549182167f5a62d22209e370e38eea92cfddcd228e656e6ec139243392a760a7769f5877fd600080a36001600160a01b0319161760085580806111c1565b8111610a9b5761140b601054612c64565b601f81116114f4575b506000601f821160011461147d5781929394600092611472575b50508160011b916000199060031b1c1916176010555b7fa6f004921c944d4b8bf6e38462b00f36a58d62495d56b51f571ab78f732c9815600080a1819083806111b6565b01359050848061142e565b60106000908152601f198316956000805160206141ca83398151915292909160205b8882106114dc575050836001959697106114c2575b505050811b01601055611444565b0135600019600384901b60f8161c191690558480806114b4565b8060018496829495870135815501950192019061149f565b60106000526000805160206141ca833981519152601f830160051c81016020841061153e575b601f90920160051c01905b8181106115325750611414565b60008155600101611525565b508061151a565b600f80546001600160a01b0319169190911790557f0b2d6eb667d0522c3eb86e4288afecae6c11591ffd1345d4d12407e0598bca9b600080a1856111af565b34610332576000366003190112610332576008546040516001600160a01b039091168152602090f35b346103325760003660031901126103325760206115c861393d565b604051908152f35b34610332576000366003190112610332576020602954604051908152f35b34610332576000366003190112610332576020601e54604051908152f35b3461033257600036600319011261033257602060ff602654166040519015158152f35b346103325760003660031901126103325760406025548151906001600160401b03908181168352831c166020820152f35b34610332576000366003190112610332576020601a54604051908152f35b3461033257604036600319011261033257611697612bab565b602435908115801590611753575b6116db575b6040519182526001600160a01b03169033906000805160206141aa83398151915290602090a3602060405160018152f35b3360005260016020526040600020546116f683821015613667565b6001600160a01b038216908333839003611713575b5050506116aa565b611727916117228415156136ac565b612ee2565b3360005260016020526040600020556000526040600020611749838254612eef565b905582808361170b565b50336001600160a01b038216146116a5565b346103325760803660031901126103325761177e612bab565b611786612bc1565b604435916001600160a01b038084168403610332576064356001600160401b038111610332576117ba903690600401612da3565b9390926117cc83600554163314612e00565b600f546040805163d6d7d52560e01b81529182908616816000816117f26004820161329e565b03925af1908115610ab157600090600092611b74575b508181611b6a575b5015611b6157806011555b15610df257829061182a613bf4565b16806000526020956017875261184e604060002054620186a0610daf8a5483612e8b565b87856009541691606461186a6107a4600c549360115490612e8b565b916040519485938492638eb22cdd60e01b845260048401526024830152600060448301525afa908115610ab157600091611b34575b50826000526018885260406000205411611b2257611a186119cf83611a0a936119c960009a998b9a60188e8d9a8b5281815260408b2054966119966118e2613b21565b828e52601784526119716119488f60409020549260008760405161190581612c9e565b82815201528681019360018060801b03928382818094868a8381511615600014611ad55750508161193b915b1682885116613d31565b1685521682875116613d31565b169384905251601480546001600160801b0319166001600160801b039390921692909216179055565b601480546001600160801b031660809290921b6001600160801b031916919091179055565b808c52601782528b60408120558282526119b660408d2054601554612ee2565b6015558b52528860408120553691612d6c565b91613d60565b600d5460405163a9059cbb60e01b8c82019081526001600160a01b039098166024820152604481019290925290961695928391506064820190565b03601f198101835282612cf0565b51925af13d15611ace573d611a2c81612d51565b90611a3a6040519283612cf0565b81523d60008483013e5b81611a96575b5015611a5257005b6064906040519062461bcd60e51b82526004820152601c60248201527f426f72696e6745524332303a205472616e73666572206661696c6564000000006044820152fd5b80915051828115918215611aaf575b5050905082611a4a565b83809293500103126103325781611ac69101613274565b808284611aa5565b6060611a44565b61193b92611b0e611b0486611afb611af1828098511686612e8b565b8287511690612eb4565b94511684612e8b565b848c511690612eb4565b101561193157611b1d90613889565b611931565b604051632893247960e01b8152600490fd5b90508781813d8311611b5a575b611b4b8183612cf0565b8101031261033257518861189f565b503d611b41565b5060115461181b565b9050151588611810565b9050611b8f915060403d604011610e4557610e358183612cf0565b9088611808565b3461033257604036600319011261033257611bdb611bbe611bb5612bab565b6024359061312b565b604080519384526020840192909252908201529081906060820190565b0390f35b346103325760403660031901126103325760206115c8611bfd612bab565b60243590613433565b3461033257600036600319011261033257604051600090602c54611c2981612c64565b808352600191808316908115611cc05750600114611c66575b611bdb83611c5281870382612cf0565b604051918291602083526020830190612d11565b602c600090815260209450917f7416c943b4a09859521022fd2e90eac0dd9026dad28fa317782a135f28a860915b828410611cad57505050810190910190611c5281611c42565b8054858501870152928501928101611c94565b611bdb9550611c5293506020915091849260ff191682840152151560051b8201019350611c42565b34610332576040366003190112610332576004356001600160401b038111610332573660238201121561033257611d29903690602481600401359101612d6c565b9060243561ffff811680910361033257610100918284805181010312610332576020611d56818601613274565b91611d63604087016136f1565b90611d70606088016136f1565b9660808101519660a08201519260c08301519160ff8316830361033257838201519301516001600160a01b039586169a861698909490428210611ef3579289888d989794611e6a97946110a0978f8e600014611ecc577f9cc5629bbe7baa98a89f6f8c2c396b83ab62dbb6cbb12f17f1d6ba7e6f53e266955b8d60005260048652604060002092835493611e0385613889565b905560405196870197885260408701528d6060870152608086015260a085015260c0840152818301528152611e3781612cb9565b519020611e4261353d565b90604051908a82019261190160f01b8452602283015260428201526042815261109881612cd5565b1603611e88575015611e7f57610330926138e6565b61033092613898565b6064906040519062461bcd60e51b82526004820152601e60248201527f45524332305065726d69743a20696e76616c6964207369676e617475726500006044820152fd5b7f5c9ba5f0d101616843d7918f48ea857d6da95e04ac6d719e105e50a355e7c5d695611de9565b60405162461bcd60e51b815260048101899052601d60248201527f45524332305065726d69743a206578706972656420646561646c696e650000006044820152606490fd5b34610332576000366003190112610332576005546040516001600160a01b039091168152602090f35b34610332576000366003190112610332576020601b54604051908152f35b34610332576020366003190112610332576001600160a01b03611fa0612bab565b1660005260246020526020604060002054604051908152f35b3461033257600036600319011261033257601454604080516001600160801b038316815260809290921c602083015290f35b3461033257604036600319011261033257612011612007612bab565b6024359033613898565b602060405160018152f35b34610332576020366003190112610332576001600160a01b0361203d612bab565b1660005260046020526020604060002054604051908152f35b3461033257600036600319011261033257600f546040516001600160a01b039091168152602090f35b34610332576000366003190112610332576020603054604051908152f35b34610332576000366003190112610332576020602e54604051908152f35b34610332576000366003190112610332576040516000906010546120de81612c64565b808352600191808316908115611cc0575060011461210657611bdb83611c5281870382612cf0565b6010600090815260209450916000805160206141ca8339815191525b82841061213b57505050810190910190611c5281611c42565b8054858501870152928501928101612122565b346103325760203660031901126103325760043560098110156103325760ff612178602092612c35565b54166040519015158152f35b34610332576020366003190112610332576001600160a01b036121a5612bab565b1660005260016020526020604060002054604051908152f35b3461033257600036600319011261033257600a546040516001600160a01b039091168152602090f35b34610332576000366003190112610332576020602754604051908152f35b34610332576000366003190112610332576020601c54604051908152f35b34610332576000366003190112610332576020602d54604051908152f35b346103325760003660031901126103325760208054604051908152f35b34610332576000366003190112610332576006546001600160a01b0390818116338190036122c857806005549384167f8be0079c531659141344cd1fd0a4f28419497f9722a3daafe3b4186f6b6457e0600080a36001600160a01b03199283161760055516600655005b606460405162461bcd60e51b815260206004820152602060248201527f4f776e61626c653a2063616c6c657220213d2070656e64696e67206f776e65726044820152fd5b34610332576020366003190112610332576001600160a01b0361232d612bab565b1660005260176020526020604060002054604051908152f35b34610332576000366003190112610332576020601554604051908152f35b34610332576000366003190112610332576020600e54604051908152f35b34610332576000366003190112610332576020601654604051908152f35b346103325760603660031901126103325760206115c8604435602435600435613064565b34610332576000366003190112610332576020601154604051908152f35b3461033257600036600319011261033257600d546040516001600160a01b039091168152602090f35b34610332576000366003190112610332576020601254604051908152f35b346103325760003660031901126103325760206115c861353d565b34610332576000366003190112610332576020601954604051908152f35b34610332576000366003190112610332576014546040516001600160801b039091168152602090f35b34610332576000366003190112610332576020601354604051908152f35b34610332576060366003190112610332576124c2612bab565b6124ca612bc1565b6044359081612507575b6040519182526001600160a01b039081169216906000805160206141aa83398151915290602090a3602060405160018152f35b60018060a01b0380841680600052602060018152846040600020549361252f82861015613667565b851693848403612544575b50505050506124d4565b8360005260028352604060002033600052835260406000205460001981036125b8575b50849261258f6000805160206141aa83398151915297959360019361172260209915156136ac565b926000525260406000205560005260406000206125ad858254612eef565b90559185848161253a565b9091811061260d576020949261258f886000805160206141aa8339815191529896946125e682600196612ee2565b86600052600285526040600020336000528552604060002055935093959750509294612567565b60405162461bcd60e51b815260048101849052601860248201527745524332303a20616c6c6f77616e636520746f6f206c6f7760401b6044820152606490fd5b34610332576000366003190112610332576020602a54604051908152f35b346103325761267936612be6565b839496979392919242116110fc57612713926110a09260018060a01b0395868b16978860005260046020526040600020918254926126b684613889565b90556040519160208301937f5c9ba5f0d101616843d7918f48ea857d6da95e04ac6d719e105e50a355e7c5d68552600060408501528b60608501528a8d1660808501528d60a085015260c084015281830152815261106481612cb9565b16036110b75761033092613898565b3461033257600036600319011261033257602b546040516001600160a01b039091168152602090f35b34610332576020366003190112610332576001600160a01b0361276c612bab565b1660005260186020526020604060002054604051908152f35b3461033257600036600319011261033257602060405160008152f35b34610332576000366003190112610332576020602f54604051908152f35b34610332576040366003190112610332576004356009811015610332576127e4612bd7565b6008549091906001600160a01b0316330361289d5760ff61280482612c35565b5416151591151591821461286357808260ff61282261285194612c35565b54161515827feeec81de25875ce1725479bb76f720a8defdb43dea041919ae37bb4aae9847c0600080a4612c35565b9060ff80198354169116179055600080f35b60405162461bcd60e51b81526020600482015260126024820152714d61726b65743a2073616d6520737461746560701b6044820152606490fd5b60405162461bcd60e51b815260206004820152601460248201527313585c9ad95d0e881d5b985d5d1a1bdc9a5e995960621b6044820152606490fd5b34610332576040366003190112610332576120116128f5612bab565b60243590336138e6565b3461033257606036600319011261033257612918612bab565b612920612bd7565b6044359081151582036103325760018060a01b0392839161294683600554163314612e00565b156129ea5716908115908115916129e2575b50156129a557806005549283167f8be0079c531659141344cd1fd0a4f28419497f9722a3daafe3b4186f6b6457e0600080a36001600160a01b031991821617600555600680549091169055005b60405162461bcd60e51b81526020600482015260156024820152744f776e61626c653a207a65726f206164647265737360581b6044820152606490fd5b905083612958565b9150501660018060a01b03196006541617600655600080f35b3461033257600036600319011261033257600f546040805163d6d7d52560e01b81529182906001600160a01b031681600081612a416004820161329e565b03925af18015610ab157600091600091612b3e575b50908015612ae0578115612aa45781604092601155807f9f9192b5edb17356c524e08d9e025c8e2f6307e6ea52fb7968faa3081f51c3c8600080a25b42601355825191151582526020820152f35b60405162461bcd60e51b81526020600482015260146024820152734d61726b65743a20696e76616c6964207261746560601b6044820152606490fd5b9050612af160135460125490612eef565b4211612b0257604090601154612a92565b60405162461bcd60e51b815260206004820152601460248201527313585c9ad95d0e881c985d19481d1bdbc81bdb1960621b6044820152606490fd5b9050612b59915060403d604011610e4557610e358183612cf0565b82612a56565b3461033257604036600319011261033257602090612b7b612bab565b612b83612bc1565b9060018060a01b03809116600052600384526040600020911660005282526040600020548152f35b600435906001600160a01b038216820361033257565b602435906001600160a01b038216820361033257565b60243590811515820361033257565b60e0906003190112610332576001600160a01b03906004358281168103610332579160243590811681036103325790604435906064359060843560ff81168103610332579060a4359060c43590565b6009811015612c4e576000526007602052604060002090565b634e487b7160e01b600052602160045260246000fd5b90600182811c92168015612c94575b6020831014612c7e57565b634e487b7160e01b600052602260045260246000fd5b91607f1691612c73565b604081019081106001600160401b03821117610a9b57604052565b61010081019081106001600160401b03821117610a9b57604052565b608081019081106001600160401b03821117610a9b57604052565b90601f801991011681019081106001600160401b03821117610a9b57604052565b919082519283825260005b848110612d3d575050826000602080949584010152601f8019910116010190565b602081830181015184830182015201612d1c565b6001600160401b038111610a9b57601f01601f191660200190565b929192612d7882612d51565b91612d866040519384612cf0565b829481845281830111610332578281602093846000960137010152565b9181601f84011215610332578235916001600160401b038311610332576020838186019501011161033257565b9181601f84011215610332578235916001600160401b038311610332576020808501948460051b01011161033257565b15612e0757565b606460405162461bcd60e51b815260206004820152602060248201527f4f776e61626c653a2063616c6c6572206973206e6f7420746865206f776e65726044820152fd5b15612e5257565b60405162461bcd60e51b815260206004820152601160248201527013585c9ad95d0e881b9bdd081d985b1a59607a1b6044820152606490fd5b81810292918115918404141715612e9e57565b634e487b7160e01b600052601160045260246000fd5b8115612ebe570490565b634e487b7160e01b600052601260045260246000fd5b604d8111612e9e57600a0a90565b91908203918211612e9e57565b91908201809211612e9e57565b81810392916000138015828513169184121617612e9e57565b906509184e72a00091828102928184051490151715612e9e57565b90670de0b6b3a764000091828102928184051490151715612e9e57565b8115612ebe57600160ff1b8114600019831416612e9e570590565b601454612fa391612f929190612f88906001600160801b03831690612e8b565b9060801c90612eb4565b91620186a0918291601f5490612e8b565b0480831061305c57612fb59083612ee2565b601e54602054830190818411612e9e578391612fd091612e8b565b04918281039060008094128183128116918313901516176130485790613001612ffb61300693612f15565b91612f30565b612f4d565b908082121561304157600160ff1b821461302d5703905b808211613028575090565b905090565b634e487b7160e01b81526011600452602490fd5b509061301d565b634e487b7160e01b83526011600452602483fd5b505050600090565b6014549192916130a3916130949161308a91612f88906001600160801b03831690612e8b565b93601f5490612e8b565b61309d83612ed4565b90612eb4565b9081831061305c57613001612ffb6130fd6130c16131029587612ee2565b936130f86130f26130e9601e546130e36130da86612ed4565b60205490612eef565b90612e8b565b61309d84612ed4565b91612ed4565b612efc565b612f15565b600081121561312557600160ff1b8114612e9e5760000390808211613028575090565b9061301d565b6001600160a01b039081166000818152601760209081526040822054929594939192909181156132675761315d613b60565b90613169861515613339565b6009541683600c54898752601882526064604088205491604051948593849263442c159960e01b8452600484015260248301528960448301525afa90811561325c578591613229575b50928594926132096018936131e461321d996106aa6131db60409a620186a06022540490612e8b565b601e5490612e8b565b815190936001600160801b039186916131ff91841690612e8b565b9201511690612eb4565b81811061322157035b978352522054613385565b9091565b505082613212565b90508381813d8311613255575b6132408183612cf0565b81010312613251575161321d6131b2565b8480fd5b503d613236565b6040513d87823e3d90fd5b5050509192505080918190565b5190811515820361033257565b919082604091031261033257602061329883613274565b92015190565b6020808252600091601054916132b383612c64565b928382840152600190818116908160001461331657506001146132d8575b5050505090565b929350601060005280600020926000935b85851061330257505050604092500101388080806132d1565b8054858501604001529382019381016132e9565b925050506040935060ff929192191683830152151560051b0101388080806132d1565b1561334057565b60405162461bcd60e51b815260206004820152601e60248201527f4d61726b65743a2065786368616e676552617465206e6f742076616c696400006044820152606490fd5b613390821515613339565b602060018060a01b0360095416916064600c54604051948593849263442c159960e01b845260048401526024830152600060448301525afa908115610ab1576000916133fd575b50906106aa6133e99260225490612e8b565b620186a06133f9601e5483612e8b565b0491565b906020823d821161342b575b8161341660209383612cf0565b810103126134285750516106aa6133d7565b80fd5b3d9150613409565b6001600160a01b0316600081815260186020526040812054909261345691613385565b91835260176020526040832054801561353757811561353757818110613537578281101561352d5760145461349f91839161172291612f88906001600160801b03831690612e8b565b90620186a09283830292808404851490151715613519576134c4929161309d91612ee2565b91601b5491601c54936134d78585612efc565b80820291848212600160ff1b821416613519578183051490151715613048570581848201948512911290801582169115161761302d5750808212613028575090565b634e487b7160e01b85526011600452602485fd5b50505050601b5490565b50505090565b307f00000000000000000000000000000000000000000000000000000000000000006001600160a01b0316148061363e575b15613598577f000000000000000000000000000000000000000000000000000000000000000090565b60405160208101907f000000000000000000000000000000000000000000000000000000000000000082527f000000000000000000000000000000000000000000000000000000000000000060408201527f000000000000000000000000000000000000000000000000000000000000000060608201524660808201523060a082015260a0815260c081018181106001600160401b03821117610a9b5760405251902090565b507f0000000000000000000000000000000000000000000000000000000000000000461461356f565b1561366e57565b60405162461bcd60e51b815260206004820152601660248201527545524332303a2062616c616e636520746f6f206c6f7760501b6044820152606490fd5b156136b357565b60405162461bcd60e51b815260206004820152601660248201527545524332303a206e6f207a65726f206164647265737360501b6044820152606490fd5b51906001600160a01b038216820361033257565b6005811015612c4e57806137165750565b6001810361375e5760405162461bcd60e51b815260206004820152601860248201527745434453413a20696e76616c6964207369676e617475726560401b6044820152606490fd5b600281036137ab5760405162461bcd60e51b815260206004820152601f60248201527f45434453413a20696e76616c6964207369676e6174757265206c656e677468006044820152606490fd5b6003146137b457565b60405162461bcd60e51b815260206004820152602260248201527f45434453413a20696e76616c6964207369676e6174757265202773272076616c604482015261756560f01b6064820152608490fd5b9291906fa2a8918ca85bafe22016d0b997e4df60600160ff1b03831161387d5791608094939160ff602094604051948552168484015260408301526060820152600093849182805260015afa156138705781516001600160a01b0381161561386a579190565b50600190565b50604051903d90823e3d90fd5b50505050600090600390565b6000198114612e9e5760010190565b7fe50de2333c10a9502fcb1d8ae13a51bbf423153dfc63c2b8997665b32154afc360018060a01b038092169160009083825260036020526040822094169384825260205284604082205580a4565b909160207f8c5be1e5ebec7d5bd14f71427d1e84f3dd0314c0f7b2291e5b200ac8c7c3b9259160018060a01b03809416938460005260028352604060002095169485600052825280604060002055604051908152a3565b60ff60265416613abb576014546001600160801b0316908115613ab457600a54604051631848f2bf60e31b8152602093916001600160a01b03919085908290600490829086165afa8015610ab1578591600091613a77575b50600460405180948193631a674cc560e11b8352165afa938415610ab157600094613a44575b50506139d79192670de0b6b3a764000092839160295490612e8b565b049081811015613a3b576139ee602a548092612ee2565b83810290808204851490151715612e9e5761309d613a0f92613a2f94612ee2565b60275492613a2960285492613a248487612ee2565b612e8b565b04612eef565b90808211613028575090565b50505060275490565b81813d8311613a70575b613a588183612cf0565b81010312613a6c575192506139d7386139bb565b8380fd5b503d613a4e565b909181813d8311613aad575b613a8d8183612cf0565b81010312613aa957519082821682036134285750849038613995565b5080fd5b503d613a83565b6028549150565b600a5460405163e6abad4960e01b815290602090829060049082906001600160a01b03165afa908115610ab157600091613af3575090565b906020823d8211613b19575b81613b0c60209383612cf0565b8101031261342857505190565b3d9150613aff565b60405190613b2e82612c9e565b6014546001600160801b038116835260801c6020830152565b6001600160801b039182169082160191908211612e9e57565b60006020604051613b7081612c9e565b82815201526001600160401b0390613b8f8260255460401c1642612ee2565b918215613be657613be1613a2491670de0b6b3a7640000613bd6613bb1613b21565b9660018060801b03958694858a5116906301e13380613bce61393d565b041690612e8b565b041682855116613b47565b168252565b509050613bf1613b21565b90565b604051613c0081612c9e565b602554906001600160401b038281809416835260401c1691613c29602083019380855242612ee2565b918215613d2b57816301e13380613c3e61393d565b041681528142168452613cdc613c52613b21565b936020670de0b6b3a7640000613c7a60018060801b0393613a24858a51168989511690612e8b565b0495613cb483613c8f818a1682855116613b47565b16808352601480546001600160801b0319166001600160801b03909216919091179055565b0151601480546001600160801b03169290911660801b6001600160801b031916919091179055565b51169182602554916001600160401b0360401b905160401b169160018060801b03191617176025557f7484db546dcd57af0104c73c8a6968dfbaf5767f047cee0dadd0499ad7df81a0600080a3565b50505050565b6001600160801b039182169082160391908211612e9e57565b9190826040910312610332576020825192015190565b91909160018060a01b0392836009541690600c5460409485519063442c159960e01b82526004928084840152602496878401526000958660448501526020958685606481855afa94851561408257918b8b928a948598614044575b509060a4911694835194859384926311a5cc7760e31b84528b8401528d30908401528760448401528960648401528160848401525af1801561403a5761401e575b5088600d5416908851926370a0823160e01b94858552308786015287858b81875afa9485156140145789888d948f948c97958f95859b613fc8575b5090613e789291600b54169751998a9889978896635cd3dc1560e01b885233908801528601526044850152606484015260a0608484015260a4830190612d11565b03925af18015613fbe57613f86575b508388600d54169287895180958193825230888301525afa8015613f7c578590613f4b575b613eb69250612ee2565b958615613f3c5790606483926009541691600e54928989519889958694638eb22cdd60e01b86528501528301528660448301525afa938415613f3157508193613f00575b50505091565b9091809350813d8311613f2a575b613f188183612cf0565b81010312613428575051388080613efa565b503d613f0e565b51913d9150823e3d90fd5b50845163801ccdb560e01b8152fd5b50908381813d8311613f75575b613f628183612cf0565b810103126132515790613eb69151613eac565b503d613f58565b87513d87823e3d90fd5b8481813d8311613fb7575b613f9b8183612cf0565b81010312613fb357613fac90613274565b5038613e87565b8580fd5b503d613f91565b88513d88823e3d90fd5b96999a50509550959250505081813d831161400d575b613fe88183612cf0565b810103126140095792898988613e788f9897968f968d98519a909192613e37565b8880fd5b503d613fde565b8b513d8b823e3d90fd5b61403490893d8b11610c0157610bf38183612cf0565b50613dfc565b89513d89823e3d90fd5b935096505091508681813d831161407b575b6140608183612cf0565b8101031261407757519387918a918c9060a4613dbb565b8780fd5b503d614056565b8a513d8a823e3d90fd5b9190811015610a6e5760051b0190565b919060018060a01b0380600094168452602060178152604085205490811561419f57601881526040862054801561419857816140d6613b21565b9460095416916064600c54604051948593849263442c159960e01b8452600484015260248301528b60448301525afa96871561418c578097614156575b50506131ff61413b614132614151969798620186a06022540490612e8b565b601f5490612e8b565b95613a2460018060801b03948587511690612e8b565b111590565b9096508187813d8311614185575b61416e8183612cf0565b8101031261342857509451946131ff61413b614113565b503d614164565b604051903d90823e3d90fd5b5050505050565b506001945050505056feddf252ad1be2c89b69c2b068fc378daa952ba7f163c4a11628f55a4df523b3ef1b6847dc741a1b0cd08d278845f9d819d87b734759afb55fe2de5cb82a9ae672a2646970667358221220fcc4ad23b2a96ba55acdda16c195848d426a520ff20219b3d096b6fa0ef1135064736f6c63430008120033",
  "linkReferences": {},
  "deployedLinkReferences": {}
}