{
  "_format": "hh-sol-artifact-1",
  "contractName": "BBLiquidation",
  "sourceName": "contracts/markets/bigBang/BBLiquidation.sol",
  "abi": [
    {
      "inputs": [],
      "name": "AmountNotValid",
      "type": "error"
    },
    {
      "inputs": [],
      "name": "BadDebt",
      "type": "error"
    },
    {
      "inputs": [],
      "name": "ExchangeRateNotValid",
      "type": "error"
    },
    {
      "inputs": [],
      "name": "ForbiddenAction",
      "type": "error"
    },
    {
      "inputs": [],
      "name": "InsufficientLiquidationBonus",
      "type": "error"
    },
    {
      "inputs": [],
      "name": "InvalidShortString",
      "type": "error"
    },
    {
      "inputs": [],
      "name": "LengthMismatch",
      "type": "error"
    },
    {
      "inputs": [],
      "name": "NotEnough",
      "type": "error"
    },
    {
      "inputs": [],
      "name": "NotEnoughCollateral",
      "type": "error"
    },
    {
      "inputs": [],
      "name": "NothingToLiquidate",
      "type": "error"
    },
    {
      "inputs": [],
      "name": "OnCollateralReceiverFailed",
      "type": "error"
    },
    {
      "inputs": [],
      "name": "Solvent",
      "type": "error"
    },
    {
      "inputs": [
        {
          "internalType": "string",
          "name": "str",
          "type": "string"
        }
      ],
      "name": "StringTooLong",
      "type": "error"
    },
    {
      "anonymous": false,
      "inputs": [
        {
          "indexed": true,
          "internalType": "address",
          "name": "owner",
          "type": "address"
        },
        {
          "indexed": true,
          "internalType": "address",
          "name": "spender",
          "type": "address"
        },
        {
          "indexed": false,
          "internalType": "uint256",
          "name": "value",
          "type": "uint256"
        }
      ],
      "name": "Approval",
      "type": "event"
    },
    {
      "anonymous": false,
      "inputs": [
        {
          "indexed": true,
          "internalType": "address",
          "name": "owner",
          "type": "address"
        },
        {
          "indexed": true,
          "internalType": "address",
          "name": "spender",
          "type": "address"
        },
        {
          "indexed": true,
          "internalType": "uint256",
          "name": "value",
          "type": "uint256"
        }
      ],
      "name": "ApprovalBorrow",
      "type": "event"
    },
    {
      "anonymous": false,
      "inputs": [],
      "name": "AssetOracleDataUpdated",
      "type": "event"
    },
    {
      "anonymous": false,
      "inputs": [
        {
          "indexed": true,
          "internalType": "address",
          "name": "oldVal",
          "type": "address"
        },
        {
          "indexed": true,
          "internalType": "address",
          "name": "newVal",
          "type": "address"
        }
      ],
      "name": "AssetOracleUpdated",
      "type": "event"
    },
    {
      "anonymous": false,
      "inputs": [
        {
          "indexed": true,
          "internalType": "address",
          "name": "old",
          "type": "address"
        },
        {
          "indexed": true,
          "internalType": "address",
          "name": "_new",
          "type": "address"
        }
      ],
      "name": "ConservatorUpdated",
      "type": "event"
    },
    {
      "anonymous": false,
      "inputs": [
        {
          "indexed": true,
          "internalType": "uint256",
          "name": "oldVal",
          "type": "uint256"
        },
        {
          "indexed": true,
          "internalType": "uint256",
          "name": "newVal",
          "type": "uint256"
        }
      ],
      "name": "DebtRateAgainstEthUpdated",
      "type": "event"
    },
    {
      "anonymous": false,
      "inputs": [],
      "name": "EIP712DomainChanged",
      "type": "event"
    },
    {
      "anonymous": false,
      "inputs": [
        {
          "indexed": false,
          "internalType": "uint256",
          "name": "_oldVal",
          "type": "uint256"
        },
        {
          "indexed": false,
          "internalType": "uint256",
          "name": "_newVal",
          "type": "uint256"
        }
      ],
      "name": "ExchangeRateDurationUpdated",
      "type": "event"
    },
    {
      "anonymous": false,
      "inputs": [
        {
          "indexed": true,
          "internalType": "address",
          "name": "oldVal",
          "type": "address"
        },
        {
          "indexed": true,
          "internalType": "address",
          "name": "newVal",
          "type": "address"
        }
      ],
      "name": "LeverageExecutorSet",
      "type": "event"
    },
    {
      "anonymous": false,
      "inputs": [
        {
          "indexed": true,
          "internalType": "address",
          "name": "liquidator",
          "type": "address"
        },
        {
          "indexed": true,
          "internalType": "address[]",
          "name": "users",
          "type": "address[]"
        },
        {
          "indexed": true,
          "internalType": "uint256",
          "name": "liquidatorReward",
          "type": "uint256"
        },
        {
          "indexed": false,
          "internalType": "uint256",
          "name": "protocolReward",
          "type": "uint256"
        },
        {
          "indexed": false,
          "internalType": "uint256",
          "name": "repayedAmount",
          "type": "uint256"
        },
        {
          "indexed": false,
          "internalType": "uint256",
          "name": "collateralShareRemoved",
          "type": "uint256"
        }
      ],
      "name": "Liquidated",
      "type": "event"
    },
    {
      "anonymous": false,
      "inputs": [
        {
          "indexed": true,
          "internalType": "uint256",
          "name": "oldVal",
          "type": "uint256"
        },
        {
          "indexed": true,
          "internalType": "uint256",
          "name": "newVal",
          "type": "uint256"
        }
      ],
      "name": "LiquidationMultiplierUpdated",
      "type": "event"
    },
    {
      "anonymous": false,
      "inputs": [
        {
          "indexed": true,
          "internalType": "uint256",
          "name": "accruedAmount",
          "type": "uint256"
        },
        {
          "indexed": true,
          "internalType": "uint64",
          "name": "rate",
          "type": "uint64"
        }
      ],
      "name": "LogAccrue",
      "type": "event"
    },
    {
      "anonymous": false,
      "inputs": [
        {
          "indexed": true,
          "internalType": "address",
          "name": "from",
          "type": "address"
        },
        {
          "indexed": true,
          "internalType": "address",
          "name": "to",
          "type": "address"
        },
        {
          "indexed": true,
          "internalType": "uint256",
          "name": "share",
          "type": "uint256"
        }
      ],
      "name": "LogAddCollateral",
      "type": "event"
    },
    {
      "anonymous": false,
      "inputs": [
        {
          "indexed": true,
          "internalType": "address",
          "name": "from",
          "type": "address"
        },
        {
          "indexed": true,
          "internalType": "address",
          "name": "to",
          "type": "address"
        },
        {
          "indexed": true,
          "internalType": "uint256",
          "name": "amount",
          "type": "uint256"
        },
        {
          "indexed": false,
          "internalType": "uint256",
          "name": "feeAmount",
          "type": "uint256"
        },
        {
          "indexed": false,
          "internalType": "uint256",
          "name": "part",
          "type": "uint256"
        }
      ],
      "name": "LogBorrow",
      "type": "event"
    },
    {
      "anonymous": false,
      "inputs": [
        {
          "indexed": true,
          "internalType": "uint256",
          "name": "_oldVal",
          "type": "uint256"
        },
        {
          "indexed": true,
          "internalType": "uint256",
          "name": "_newVal",
          "type": "uint256"
        }
      ],
      "name": "LogBorrowCapUpdated",
      "type": "event"
    },
    {
      "anonymous": false,
      "inputs": [
        {
          "indexed": true,
          "internalType": "uint256",
          "name": "rate",
          "type": "uint256"
        }
      ],
      "name": "LogExchangeRate",
      "type": "event"
    },
    {
      "anonymous": false,
      "inputs": [
        {
          "indexed": true,
          "internalType": "address",
          "name": "from",
          "type": "address"
        },
        {
          "indexed": true,
          "internalType": "address",
          "name": "to",
          "type": "address"
        },
        {
          "indexed": true,
          "internalType": "uint256",
          "name": "share",
          "type": "uint256"
        }
      ],
      "name": "LogRemoveCollateral",
      "type": "event"
    },
    {
      "anonymous": false,
      "inputs": [
        {
          "indexed": true,
          "internalType": "address",
          "name": "from",
          "type": "address"
        },
        {
          "indexed": true,
          "internalType": "address",
          "name": "to",
          "type": "address"
        },
        {
          "indexed": true,
          "internalType": "uint256",
          "name": "amount",
          "type": "uint256"
        },
        {
          "indexed": false,
          "internalType": "uint256",
          "name": "part",
          "type": "uint256"
        }
      ],
      "name": "LogRepay",
      "type": "event"
    },
    {
      "anonymous": false,
      "inputs": [
        {
          "indexed": true,
          "internalType": "uint256",
          "name": "oldVal",
          "type": "uint256"
        },
        {
          "indexed": true,
          "internalType": "uint256",
          "name": "newVal",
          "type": "uint256"
        }
      ],
      "name": "MaxDebtRateUpdated",
      "type": "event"
    },
    {
      "anonymous": false,
      "inputs": [
        {
          "indexed": true,
          "internalType": "uint256",
          "name": "oldVal",
          "type": "uint256"
        },
        {
          "indexed": true,
          "internalType": "uint256",
          "name": "newVal",
          "type": "uint256"
        }
      ],
      "name": "MinDebtRateUpdated",
      "type": "event"
    },
    {
      "anonymous": false,
      "inputs": [],
      "name": "OracleDataUpdated",
      "type": "event"
    },
    {
      "anonymous": false,
      "inputs": [
        {
          "indexed": false,
          "internalType": "address",
          "name": "newAddr",
          "type": "address"
        }
      ],
      "name": "OracleUpdated",
      "type": "event"
    },
    {
      "anonymous": false,
      "inputs": [
        {
          "indexed": true,
          "internalType": "address",
          "name": "previousOwner",
          "type": "address"
        },
        {
          "indexed": true,
          "internalType": "address",
          "name": "newOwner",
          "type": "address"
        }
      ],
      "name": "OwnershipTransferred",
      "type": "event"
    },
    {
      "anonymous": false,
      "inputs": [
        {
          "indexed": true,
          "internalType": "enum Market.PauseType",
          "name": "_type",
          "type": "uint8"
        },
        {
          "indexed": true,
          "internalType": "bool",
          "name": "oldState",
          "type": "bool"
        },
        {
          "indexed": true,
          "internalType": "bool",
          "name": "newState",
          "type": "bool"
        }
      ],
      "name": "PausedUpdated",
      "type": "event"
    },
    {
      "anonymous": false,
      "inputs": [
        {
          "indexed": true,
          "internalType": "address",
          "name": "from",
          "type": "address"
        },
        {
          "indexed": true,
          "internalType": "address",
          "name": "to",
          "type": "address"
        },
        {
          "indexed": false,
          "internalType": "uint256",
          "name": "value",
          "type": "uint256"
        }
      ],
      "name": "Transfer",
      "type": "event"
    },
    {
      "anonymous": false,
      "inputs": [
        {
          "indexed": true,
          "internalType": "uint256",
          "name": "oldMin",
          "type": "uint256"
        },
        {
          "indexed": true,
          "internalType": "uint256",
          "name": "newMin",
          "type": "uint256"
        },
        {
          "indexed": true,
          "internalType": "uint256",
          "name": "oldMax",
          "type": "uint256"
        },
        {
          "indexed": false,
          "internalType": "uint256",
          "name": "newMax",
          "type": "uint256"
        }
      ],
      "name": "UpdateMinMaxMintFee",
      "type": "event"
    },
    {
      "anonymous": false,
      "inputs": [
        {
          "indexed": true,
          "internalType": "uint256",
          "name": "oldMin",
          "type": "uint256"
        },
        {
          "indexed": true,
          "internalType": "uint256",
          "name": "newMin",
          "type": "uint256"
        },
        {
          "indexed": true,
          "internalType": "uint256",
          "name": "oldMax",
          "type": "uint256"
        },
        {
          "indexed": false,
          "internalType": "uint256",
          "name": "newMax",
          "type": "uint256"
        }
      ],
      "name": "UpdateMinMaxMintRange",
      "type": "event"
    },
    {
      "anonymous": false,
      "inputs": [
        {
          "indexed": true,
          "internalType": "uint256",
          "name": "valType",
          "type": "uint256"
        },
        {
          "indexed": true,
          "internalType": "uint256",
          "name": "_newVal",
          "type": "uint256"
        }
      ],
      "name": "ValueUpdated",
      "type": "event"
    },
    {
      "inputs": [],
      "name": "DOMAIN_SEPARATOR",
      "outputs": [
        {
          "internalType": "bytes32",
          "name": "",
          "type": "bytes32"
        }
      ],
      "stateMutability": "view",
      "type": "function"
    },
    {
      "inputs": [],
      "name": "accrue",
      "outputs": [],
      "stateMutability": "nonpayable",
      "type": "function"
    },
    {
      "inputs": [],
      "name": "accrueInfo",
      "outputs": [
        {
          "internalType": "uint64",
          "name": "debtRate",
          "type": "uint64"
        },
        {
          "internalType": "uint64",
          "name": "lastAccrued",
          "type": "uint64"
        }
      ],
      "stateMutability": "view",
      "type": "function"
    },
    {
      "inputs": [
        {
          "internalType": "address",
          "name": "",
          "type": "address"
        },
        {
          "internalType": "address",
          "name": "",
          "type": "address"
        }
      ],
      "name": "allowance",
      "outputs": [
        {
          "internalType": "uint256",
          "name": "",
          "type": "uint256"
        }
      ],
      "stateMutability": "view",
      "type": "function"
    },
    {
      "inputs": [
        {
          "internalType": "address",
          "name": "",
          "type": "address"
        },
        {
          "internalType": "address",
          "name": "",
          "type": "address"
        }
      ],
      "name": "allowanceBorrow",
      "outputs": [
        {
          "internalType": "uint256",
          "name": "",
          "type": "uint256"
        }
      ],
      "stateMutability": "view",
      "type": "function"
    },
    {
      "inputs": [
        {
          "internalType": "address",
          "name": "spender",
          "type": "address"
        },
        {
          "internalType": "uint256",
          "name": "amount",
          "type": "uint256"
        }
      ],
      "name": "approve",
      "outputs": [
        {
          "internalType": "bool",
          "name": "",
          "type": "bool"
        }
      ],
      "stateMutability": "nonpayable",
      "type": "function"
    },
    {
      "inputs": [
        {
          "internalType": "address",
          "name": "spender",
          "type": "address"
        },
        {
          "internalType": "uint256",
          "name": "amount",
          "type": "uint256"
        }
      ],
      "name": "approveBorrow",
      "outputs": [
        {
          "internalType": "bool",
          "name": "",
          "type": "bool"
        }
      ],
      "stateMutability": "nonpayable",
      "type": "function"
    },
    {
      "inputs": [],
      "name": "asset",
      "outputs": [
        {
          "internalType": "contract IERC20",
          "name": "",
          "type": "address"
        }
      ],
      "stateMutability": "view",
      "type": "function"
    },
    {
      "inputs": [],
      "name": "assetId",
      "outputs": [
        {
          "internalType": "uint256",
          "name": "",
          "type": "uint256"
        }
      ],
      "stateMutability": "view",
      "type": "function"
    },
    {
      "inputs": [],
      "name": "assetOracle",
      "outputs": [
        {
          "internalType": "contract IOracle",
          "name": "",
          "type": "address"
        }
      ],
      "stateMutability": "view",
      "type": "function"
    },
    {
      "inputs": [],
      "name": "assetOracleData",
      "outputs": [
        {
          "internalType": "bytes",
          "name": "",
          "type": "bytes"
        }
      ],
      "stateMutability": "view",
      "type": "function"
    },
    {
      "inputs": [
        {
          "internalType": "address",
          "name": "",
          "type": "address"
        }
      ],
      "name": "balanceOf",
      "outputs": [
        {
          "internalType": "uint256",
          "name": "",
          "type": "uint256"
        }
      ],
      "stateMutability": "view",
      "type": "function"
    },
    {
      "inputs": [],
      "name": "callerFee",
      "outputs": [
        {
          "internalType": "uint256",
          "name": "",
          "type": "uint256"
        }
      ],
      "stateMutability": "view",
      "type": "function"
    },
    {
      "inputs": [],
      "name": "claimOwnership",
      "outputs": [],
      "stateMutability": "nonpayable",
      "type": "function"
    },
    {
      "inputs": [],
      "name": "collateral",
      "outputs": [
        {
          "internalType": "contract IERC20",
          "name": "",
          "type": "address"
        }
      ],
      "stateMutability": "view",
      "type": "function"
    },
    {
      "inputs": [],
      "name": "collateralId",
      "outputs": [
        {
          "internalType": "uint256",
          "name": "",
          "type": "uint256"
        }
      ],
      "stateMutability": "view",
      "type": "function"
    },
    {
      "inputs": [],
      "name": "collateralizationRate",
      "outputs": [
        {
          "internalType": "uint256",
          "name": "",
          "type": "uint256"
        }
      ],
      "stateMutability": "view",
      "type": "function"
    },
    {
      "inputs": [
        {
          "internalType": "uint256",
          "name": "borrowPart",
          "type": "uint256"
        },
        {
          "internalType": "uint256",
          "name": "collateralPartInAsset",
          "type": "uint256"
        },
        {
          "internalType": "uint256",
          "name": "ratesPrecision",
          "type": "uint256"
        }
      ],
      "name": "computeClosingFactor",
      "outputs": [
        {
          "internalType": "uint256",
          "name": "",
          "type": "uint256"
        }
      ],
      "stateMutability": "view",
      "type": "function"
    },
    {
      "inputs": [
        {
          "internalType": "address",
          "name": "user",
          "type": "address"
        },
        {
          "internalType": "uint256",
          "name": "_exchangeRate",
          "type": "uint256"
        }
      ],
      "name": "computeLiquidatorReward",
      "outputs": [
        {
          "internalType": "uint256",
          "name": "",
          "type": "uint256"
        }
      ],
      "stateMutability": "view",
      "type": "function"
    },
    {
      "inputs": [
        {
          "internalType": "address",
          "name": "user",
          "type": "address"
        },
        {
          "internalType": "uint256",
          "name": "_exchangeRate",
          "type": "uint256"
        }
      ],
      "name": "computeTVLInfo",
      "outputs": [
        {
          "internalType": "uint256",
          "name": "amountToSolvency",
          "type": "uint256"
        },
        {
          "internalType": "uint256",
          "name": "minTVL",
          "type": "uint256"
        },
        {
          "internalType": "uint256",
          "name": "maxTVL",
          "type": "uint256"
        }
      ],
      "stateMutability": "view",
      "type": "function"
    },
    {
      "inputs": [],
      "name": "conservator",
      "outputs": [
        {
          "internalType": "address",
          "name": "",
          "type": "address"
        }
      ],
      "stateMutability": "view",
      "type": "function"
    },
    {
      "inputs": [],
      "name": "debtRateAgainstEthMarket",
      "outputs": [
        {
          "internalType": "uint256",
          "name": "",
          "type": "uint256"
        }
      ],
      "stateMutability": "view",
      "type": "function"
    },
    {
      "inputs": [],
      "name": "eip712Domain",
      "outputs": [
        {
          "internalType": "bytes1",
          "name": "fields",
          "type": "bytes1"
        },
        {
          "internalType": "string",
          "name": "name",
          "type": "string"
        },
        {
          "internalType": "string",
          "name": "version",
          "type": "string"
        },
        {
          "internalType": "uint256",
          "name": "chainId",
          "type": "uint256"
        },
        {
          "internalType": "address",
          "name": "verifyingContract",
          "type": "address"
        },
        {
          "internalType": "bytes32",
          "name": "salt",
          "type": "bytes32"
        },
        {
          "internalType": "uint256[]",
          "name": "extensions",
          "type": "uint256[]"
        }
      ],
      "stateMutability": "view",
      "type": "function"
    },
    {
      "inputs": [],
      "name": "exchangeRate",
      "outputs": [
        {
          "internalType": "uint256",
          "name": "",
          "type": "uint256"
        }
      ],
      "stateMutability": "view",
      "type": "function"
    },
    {
      "inputs": [],
      "name": "getDebtRate",
      "outputs": [
        {
          "internalType": "uint256",
          "name": "",
          "type": "uint256"
        }
      ],
      "stateMutability": "view",
      "type": "function"
    },
    {
      "inputs": [],
      "name": "getTotalDebt",
      "outputs": [
        {
          "internalType": "uint256",
          "name": "",
          "type": "uint256"
        }
      ],
      "stateMutability": "view",
      "type": "function"
    },
    {
      "inputs": [],
      "name": "isMainMarket",
      "outputs": [
        {
          "internalType": "bool",
          "name": "",
          "type": "bool"
        }
      ],
      "stateMutability": "view",
      "type": "function"
    },
    {
      "inputs": [],
      "name": "leverageExecutor",
      "outputs": [
        {
          "internalType": "contract ILeverageExecutor",
          "name": "",
          "type": "address"
        }
      ],
      "stateMutability": "view",
      "type": "function"
    },
    {
      "inputs": [
        {
          "internalType": "address[]",
          "name": "users",
          "type": "address[]"
        },
        {
          "internalType": "uint256[]",
          "name": "maxBorrowParts",
          "type": "uint256[]"
        },
        {
          "internalType": "uint256[]",
          "name": "minLiquidationBonuses",
          "type": "uint256[]"
        },
        {
          "internalType": "contract IMarketLiquidatorReceiver[]",
          "name": "liquidatorReceivers",
          "type": "address[]"
        },
        {
          "internalType": "bytes[]",
          "name": "liquidatorReceiverDatas",
          "type": "bytes[]"
        }
      ],
      "name": "liquidate",
      "outputs": [],
      "stateMutability": "nonpayable",
      "type": "function"
    },
    {
      "inputs": [
        {
          "internalType": "address",
          "name": "user",
          "type": "address"
        },
        {
          "internalType": "address",
          "name": "receiver",
          "type": "address"
        },
        {
          "internalType": "contract IMarketLiquidatorReceiver",
          "name": "liquidatorReceiver",
          "type": "address"
        },
        {
          "internalType": "bytes",
          "name": "liquidatorReceiverData",
          "type": "bytes"
        },
        {
          "internalType": "bool",
          "name": "swapCollateral",
          "type": "bool"
        }
      ],
      "name": "liquidateBadDebt",
      "outputs": [],
      "stateMutability": "nonpayable",
      "type": "function"
    },
    {
      "inputs": [],
      "name": "liquidationBonusAmount",
      "outputs": [
        {
          "internalType": "uint256",
          "name": "",
          "type": "uint256"
        }
      ],
      "stateMutability": "view",
      "type": "function"
    },
    {
      "inputs": [],
      "name": "liquidationCollateralizationRate",
      "outputs": [
        {
          "internalType": "uint256",
          "name": "",
          "type": "uint256"
        }
      ],
      "stateMutability": "view",
      "type": "function"
    },
    {
      "inputs": [],
      "name": "liquidationMultiplier",
      "outputs": [
        {
          "internalType": "uint256",
          "name": "",
          "type": "uint256"
        }
      ],
      "stateMutability": "view",
      "type": "function"
    },
    {
      "inputs": [],
      "name": "maxDebtRate",
      "outputs": [
        {
          "internalType": "uint256",
          "name": "",
          "type": "uint256"
        }
      ],
      "stateMutability": "view",
      "type": "function"
    },
    {
      "inputs": [],
      "name": "maxLiquidatorReward",
      "outputs": [
        {
          "internalType": "uint256",
          "name": "",
          "type": "uint256"
        }
      ],
      "stateMutability": "view",
      "type": "function"
    },
    {
      "inputs": [],
      "name": "maxMintFee",
      "outputs": [
        {
          "internalType": "uint256",
          "name": "",
          "type": "uint256"
        }
      ],
      "stateMutability": "view",
      "type": "function"
    },
    {
      "inputs": [],
      "name": "maxMintFeeStart",
      "outputs": [
        {
          "internalType": "uint256",
          "name": "",
          "type": "uint256"
        }
      ],
      "stateMutability": "view",
      "type": "function"
    },
    {
      "inputs": [],
      "name": "minDebtRate",
      "outputs": [
        {
          "internalType": "uint256",
          "name": "",
          "type": "uint256"
        }
      ],
      "stateMutability": "view",
      "type": "function"
    },
    {
      "inputs": [],
      "name": "minLiquidatorReward",
      "outputs": [
        {
          "internalType": "uint256",
          "name": "",
          "type": "uint256"
        }
      ],
      "stateMutability": "view",
      "type": "function"
    },
    {
      "inputs": [],
      "name": "minMintFee",
      "outputs": [
        {
          "internalType": "uint256",
          "name": "",
          "type": "uint256"
        }
      ],
      "stateMutability": "view",
      "type": "function"
    },
    {
      "inputs": [],
      "name": "minMintFeeStart",
      "outputs": [
        {
          "internalType": "uint256",
          "name": "",
          "type": "uint256"
        }
      ],
      "stateMutability": "view",
      "type": "function"
    },
    {
      "inputs": [
        {
          "internalType": "address",
          "name": "owner",
          "type": "address"
        }
      ],
      "name": "nonces",
      "outputs": [
        {
          "internalType": "uint256",
          "name": "",
          "type": "uint256"
        }
      ],
      "stateMutability": "view",
      "type": "function"
    },
    {
      "inputs": [],
      "name": "oracle",
      "outputs": [
        {
          "internalType": "contract IOracle",
          "name": "",
          "type": "address"
        }
      ],
      "stateMutability": "view",
      "type": "function"
    },
    {
      "inputs": [],
      "name": "oracleData",
      "outputs": [
        {
          "internalType": "bytes",
          "name": "",
          "type": "bytes"
        }
      ],
      "stateMutability": "view",
      "type": "function"
    },
    {
      "inputs": [],
      "name": "owner",
      "outputs": [
        {
          "internalType": "address",
          "name": "",
          "type": "address"
        }
      ],
      "stateMutability": "view",
      "type": "function"
    },
    {
      "inputs": [
        {
          "internalType": "enum Market.PauseType",
          "name": "pauseProp",
          "type": "uint8"
        }
      ],
      "name": "pauseOptions",
      "outputs": [
        {
          "internalType": "bool",
          "name": "pauseStatus",
          "type": "bool"
        }
      ],
      "stateMutability": "view",
      "type": "function"
    },
    {
      "inputs": [],
      "name": "pendingOwner",
      "outputs": [
        {
          "internalType": "address",
          "name": "",
          "type": "address"
        }
      ],
      "stateMutability": "view",
      "type": "function"
    },
    {
      "inputs": [],
      "name": "penrose",
      "outputs": [
        {
          "internalType": "contract IPenrose",
          "name": "",
          "type": "address"
        }
      ],
      "stateMutability": "view",
      "type": "function"
    },
    {
      "inputs": [
        {
          "internalType": "address",
          "name": "owner",
          "type": "address"
        },
        {
          "internalType": "address",
          "name": "spender",
          "type": "address"
        },
        {
          "internalType": "uint256",
          "name": "value",
          "type": "uint256"
        },
        {
          "internalType": "uint256",
          "name": "deadline",
          "type": "uint256"
        },
        {
          "internalType": "uint8",
          "name": "v",
          "type": "uint8"
        },
        {
          "internalType": "bytes32",
          "name": "r",
          "type": "bytes32"
        },
        {
          "internalType": "bytes32",
          "name": "s",
          "type": "bytes32"
        }
      ],
      "name": "permit",
      "outputs": [],
      "stateMutability": "nonpayable",
      "type": "function"
    },
    {
      "inputs": [
        {
          "internalType": "bytes",
          "name": "data",
          "type": "bytes"
        },
        {
          "internalType": "uint16",
          "name": "actionType",
          "type": "uint16"
        }
      ],
      "name": "permitAction",
      "outputs": [],
      "stateMutability": "nonpayable",
      "type": "function"
    },
    {
      "inputs": [
        {
          "internalType": "address",
          "name": "owner",
          "type": "address"
        },
        {
          "internalType": "address",
          "name": "spender",
          "type": "address"
        },
        {
          "internalType": "uint256",
          "name": "value",
          "type": "uint256"
        },
        {
          "internalType": "uint256",
          "name": "deadline",
          "type": "uint256"
        },
        {
          "internalType": "uint8",
          "name": "v",
          "type": "uint8"
        },
        {
          "internalType": "bytes32",
          "name": "r",
          "type": "bytes32"
        },
        {
          "internalType": "bytes32",
          "name": "s",
          "type": "bytes32"
        }
      ],
      "name": "permitBorrow",
      "outputs": [],
      "stateMutability": "nonpayable",
      "type": "function"
    },
    {
      "inputs": [],
      "name": "protocolFee",
      "outputs": [
        {
          "internalType": "uint256",
          "name": "",
          "type": "uint256"
        }
      ],
      "stateMutability": "view",
      "type": "function"
    },
    {
      "inputs": [],
      "name": "rateTimestamp",
      "outputs": [
        {
          "internalType": "uint256",
          "name": "",
          "type": "uint256"
        }
      ],
      "stateMutability": "view",
      "type": "function"
    },
    {
      "inputs": [],
      "name": "rateValidDuration",
      "outputs": [
        {
          "internalType": "uint256",
          "name": "",
          "type": "uint256"
        }
      ],
      "stateMutability": "view",
      "type": "function"
    },
    {
      "inputs": [
        {
          "internalType": "contract ILeverageExecutor",
          "name": "_executor",
          "type": "address"
        }
      ],
      "name": "setLeverageExecutor",
      "outputs": [],
      "stateMutability": "nonpayable",
      "type": "function"
    },
    {
      "inputs": [
        {
          "internalType": "contract IOracle",
          "name": "_oracle",
          "type": "address"
        },
        {
          "internalType": "bytes",
          "name": "_oracleData",
          "type": "bytes"
        },
        {
          "internalType": "address",
          "name": "_conservator",
          "type": "address"
        },
        {
          "internalType": "uint256",
          "name": "_callerFee",
          "type": "uint256"
        },
        {
          "internalType": "uint256",
          "name": "_protocolFee",
          "type": "uint256"
        },
        {
          "internalType": "uint256",
          "name": "_liquidationBonusAmount",
          "type": "uint256"
        },
        {
          "internalType": "uint256",
          "name": "_minLiquidatorReward",
          "type": "uint256"
        },
        {
          "internalType": "uint256",
          "name": "_maxLiquidatorReward",
          "type": "uint256"
        },
        {
          "internalType": "uint256",
          "name": "_totalBorrowCap",
          "type": "uint256"
        },
        {
          "internalType": "uint256",
          "name": "_collateralizationRate",
          "type": "uint256"
        },
        {
          "internalType": "uint256",
          "name": "_liquidationCollateralizationRate",
          "type": "uint256"
        }
      ],
      "name": "setMarketConfig",
      "outputs": [],
      "stateMutability": "nonpayable",
      "type": "function"
    },
    {
      "inputs": [],
      "name": "totalBorrow",
      "outputs": [
        {
          "internalType": "uint128",
          "name": "elastic",
          "type": "uint128"
        },
        {
          "internalType": "uint128",
          "name": "base",
          "type": "uint128"
        }
      ],
      "stateMutability": "view",
      "type": "function"
    },
    {
      "inputs": [],
      "name": "totalBorrowCap",
      "outputs": [
        {
          "internalType": "uint256",
          "name": "",
          "type": "uint256"
        }
      ],
      "stateMutability": "view",
      "type": "function"
    },
    {
      "inputs": [],
      "name": "totalCollateralShare",
      "outputs": [
        {
          "internalType": "uint256",
          "name": "",
          "type": "uint256"
        }
      ],
      "stateMutability": "view",
      "type": "function"
    },
    {
      "inputs": [],
      "name": "totalSupply",
      "outputs": [
        {
          "internalType": "uint256",
          "name": "",
          "type": "uint256"
        }
      ],
      "stateMutability": "view",
      "type": "function"
    },
    {
      "inputs": [
        {
          "internalType": "address",
          "name": "to",
          "type": "address"
        },
        {
          "internalType": "uint256",
          "name": "amount",
          "type": "uint256"
        }
      ],
      "name": "transfer",
      "outputs": [
        {
          "internalType": "bool",
          "name": "",
          "type": "bool"
        }
      ],
      "stateMutability": "nonpayable",
      "type": "function"
    },
    {
      "inputs": [
        {
          "internalType": "address",
          "name": "from",
          "type": "address"
        },
        {
          "internalType": "address",
          "name": "to",
          "type": "address"
        },
        {
          "internalType": "uint256",
          "name": "amount",
          "type": "uint256"
        }
      ],
      "name": "transferFrom",
      "outputs": [
        {
          "internalType": "bool",
          "name": "",
          "type": "bool"
        }
      ],
      "stateMutability": "nonpayable",
      "type": "function"
    },
    {
      "inputs": [
        {
          "internalType": "address",
          "name": "newOwner",
          "type": "address"
        },
        {
          "internalType": "bool",
          "name": "direct",
          "type": "bool"
        },
        {
          "internalType": "bool",
          "name": "renounce",
          "type": "bool"
        }
      ],
      "name": "transferOwnership",
      "outputs": [],
      "stateMutability": "nonpayable",
      "type": "function"
    },
    {
      "inputs": [],
      "name": "updateExchangeRate",
      "outputs": [
        {
          "internalType": "bool",
          "name": "updated",
          "type": "bool"
        },
        {
          "internalType": "uint256",
          "name": "rate",
          "type": "uint256"
        }
      ],
      "stateMutability": "nonpayable",
      "type": "function"
    },
    {
      "inputs": [
        {
          "internalType": "address",
          "name": "",
          "type": "address"
        }
      ],
      "name": "userBorrowPart",
      "outputs": [
        {
          "internalType": "uint256",
          "name": "",
          "type": "uint256"
        }
      ],
      "stateMutability": "view",
      "type": "function"
    },
    {
      "inputs": [
        {
          "internalType": "address",
          "name": "",
          "type": "address"
        }
      ],
      "name": "userCollateralShare",
      "outputs": [
        {
          "internalType": "uint256",
          "name": "",
          "type": "uint256"
        }
      ],
      "stateMutability": "view",
      "type": "function"
    },
    {
      "inputs": [],
      "name": "yieldBox",
      "outputs": [
        {
          "internalType": "contract YieldBox",
          "name": "",
          "type": "address"
        }
      ],
      "stateMutability": "view",
      "type": "function"
    }
  ],
  "bytecode": "0x6101608060405234620001ba576200001781620001bf565b600f8152602081016e546170696f63612042696742616e6760881b8152604051916200004383620001bf565b6001835260208301603160f81b81526200005d82620001db565b926101209384526200006f85620003ae565b92610140938452519020938460e05251902091610100938385524660a0526040519360208501917f8b73c3c69bb8fe3d512ecc4cf759cc79239f7b179b0ffacaa9a75d522b39400f8352604086015260608501524660808501523060a085015260a0845260c084019380851060018060401b03861117620001a45760408590525190206080523060c052600780546001600160a01b0319163390811790915560007f8be0079c531659141344cd1fd0a4f28419497f9722a3daafe3b4186f6b6457e08180a362013880601d5562015f90601e55612710601f55612ee060225560016026556000602e556103e8602f556146f593846200055c85396080518461386e015260a05184613939015260c05184613838015260e051846138bd015251836138e3015251826116250152518161164e0152f35b634e487b7160e01b600052604160045260246000fd5b600080fd5b604081019081106001600160401b03821117620001a457604052565b805160209190828110156200027a575090601f8251116200021957808251920151908083106200020a57501790565b82600019910360031b1b161790565b90604051809263305a27a960e01b82528060048301528251908160248401526000935b82851062000260575050604492506000838284010152601f80199101168101030190fd5b84810182015186860160440152938101938593506200023c565b6001600160401b038111620001a4576000928354926001938481811c91168015620003a3575b838210146200038f57601f811162000359575b5081601f8411600114620002f257509282939183928694620002e6575b50501b916000199060031b1c191617905560ff90565b015192503880620002d0565b919083601f1981168780528488209488905b888383106200033e575050501062000324575b505050811b01905560ff90565b015160001960f88460031b161c1916905538808062000317565b85870151885590960195948501948793509081019062000304565b85805284601f848820920160051c820191601f860160051c015b82811062000383575050620002b3565b87815501859062000373565b634e487b7160e01b86526022600452602486fd5b90607f1690620002a0565b8051602090818110156200043c5750601f825111620003db57808251920151908083106200020a57501790565b90604051809263305a27a960e01b82528060048301528251908160248401526000935b82851062000422575050604492506000838284010152601f80199101168101030190fd5b8481018201518686016044015293810193859350620003fe565b9192916001600160401b038111620001a45760019182548381811c9116801562000550575b828210146200053a57601f811162000501575b5080601f8311600114620004b4575081929394600092620004a8575b5050600019600383901b1c191690821b17905560ff90565b01519050388062000490565b90601f198316958460005282600020926000905b888210620004e957505083859697106200032457505050811b01905560ff90565b808785968294968601518155019501930190620004c8565b8360005283601f83600020920160051c820191601f850160051c015b8281106200052d57505062000474565b600081550184906200051d565b634e487b7160e01b600052602260045260246000fd5b90607f16906200046156fe608080604052600436101561001357600080fd5b60e0600035811c918262a02a2014612d165750816302ce728f14612bb3578163078dfbe714612aab578163095ea7b314612a855781630f8b29ea14612a6757816318160ddd14612a4b5781631c9e379b14612a115781631d4d3a5d146129e85781631da8bf101461292e57816323b872dd1461278a578163331960ff1461276c57816334ce998a1461274357816334d441d0146127255781633644e5151461270a578163364b78ca14611b8d57816337b6b7b914611b6f57816338d52e0f14611b465781633ba0b9a914611b285781633f741adb14611b0457816340626d8b14611ae657816344de240a14611ac8578163473e3ce714611aaa57816348e4163e14611a705781634e71e0c8146119c2578163529898f2146119a4578163542afda31461198657816357935462146119685781636b19ad161461194a5781636c3d8b8f1461192157816370a08231146118e757816372778547146118ad57816374645ff31461181a57816374c9e481146117fc578163790c8467146117de5781637dc0d1d0146117b55781637ecebe001461177b5781637fa0b84e1461174a5781638285ef401461171857816384b0196e1461160f5781638c5d0ed3146115f15781638da5cb5b146115c8578163910dd7c814611436578163932bc4f81461135457816399a970281461132d5781639e15e89f146112e4578163a9059cbb146111fd578163b0e21e8a146111df578163b27c0e74146111ae578163b7113f191461118b578163bb4cfe3b1461116e578163bc52d15f14610bfb578163bde39c5d14610bdd578163c1ad5c8d14610bba578163ce8849ed14610b91578163d3fb2a3814610674578163d505accf1461050057508063d8dfeb45146104d7578063da863f0e146104ae578063dd62ed3e1461045d578063de40657714610434578063e0996cb614610416578063e30c3978146103ed578063ea64dd56146103cf578063eec0f42e146103b1578063ef2b234a1461033f578063f791395d146103215763f8ba4cff1461030157600080fd5b3461031c57600036600319011261031c5761031a613fc7565b005b600080fd5b3461031c57600036600319011261031c576020602a54604051908152f35b3461031c57602036600319011261031c576004356001600160a01b038181169182900361031c5761037581600754163314612f8c565b816023549182167ffb4fd7114609dd603b57adbc2082205bfbbcabf9265c4b437b472f5c592b8cd7600080a36001600160a01b03191617602355005b3461031c57600036600319011261031c576020600e54604051908152f35b3461031c57600036600319011261031c576020602154604051908152f35b3461031c57600036600319011261031c576008546040516001600160a01b039091168152602090f35b3461031c57600036600319011261031c576020601f54604051908152f35b3461031c57600036600319011261031c57600b546040516001600160a01b039091168152602090f35b3461031c57604036600319011261031c57610476612d62565b61047e612d78565b9060018060a01b038091166000526004602052604060002091166000526020526020604060002054604051908152f35b3461031c57600036600319011261031c576023546040516001600160a01b039091168152602090f35b3461031c57600036600319011261031c57600d546040516001600160a01b039091168152602090f35b3461031c5761050e36612d8e565b8397949697929192421161062f576105db926105d392604260018060a01b039689888d16998a928360005260066020528d60406000209081549161055183613b97565b90558c6040519560208701977f9cc5629bbe7baa98a89f6f8c2c396b83ab62dbb6cbb12f17f1d6ba7e6f53e266895260006040890152606088015216608086015260a085015260c08401528183015281526105ab81612e75565b5190206105b6613835565b906040519161190160f01b83526002830152602282015220613b12565b9190916139fd565b16036105ea5761031a92613bf4565b60405162461bcd60e51b815260206004820152601e60248201527f45524332305065726d69743a20696e76616c6964207369676e617475726500006044820152606490fd5b60405162461bcd60e51b815260206004820152601d60248201527f45524332305065726d69743a206578706972656420646561646c696e650000006044820152606490fd5b3461031c5761016036600319011261031c576001600160a01b036004358181169081900361031c576001600160401b039160243583811161031c576106bd903690600401612f5f565b90936044359383851680950361031c576106dc84600754163314612f8c565b80610b4d575b50816109ec575b5050908092506109ab575b50506064358061097d575b506084358061094f575b5060a43580610922575b5060c435806108e8575b5060e435806108ae575b506101043580610866575b5061012435806107dc575b50610144358061074957005b602054811061077c57610761620186a08211156131f1565b806021556008600080516020614680833981519152600080a3005b60405162461bcd60e51b815260206004820152603260248201527f4d61726b65743a206c69717569646174696f6e436f6c6c61746572616c697a616044820152711d1a5bdb94985d19481d1bdbc81cdb585b1b60721b6064820152608490fd5b6107eb620186a08211156131f1565b602154811161081357806020556007600080516020614680833981519152600080a38061073d565b60405162461bcd60e51b815260206004820152602560248201527f4d61726b65743a20636f6c6c61746572616c697a6174696f6e5261746520746f6044820152646f2062696760d81b6064820152608490fd5b806018547fae6e0ab3b95f0a53ff9660a390ccedcbbf1f2355dce974a9841af106fddcfaba600080a3806018556006600080516020614680833981519152600080a380610732565b6108bc620186a082106131f1565b6108c9601d5482116131f1565b80601e556005600080516020614680833981519152600080a380610727565b6108f6620186a082106131f1565b610903601e5482106131f1565b80601d556004600080516020614680833981519152600080a38061071d565b610930620186a082106131f1565b80601f556003600080516020614680833981519152600080a380610713565b61095e620186a08211156131f1565b80601c556002600080516020614680833981519152600080a380610709565b61098c620186a08211156131f1565b80601b556001600080516020614680833981519152600080a3806106ff565b81600a549182167f5a62d22209e370e38eea92cfddcd228e656e6ec139243392a760a7769f5877fd600080a36001600160a01b03191617600a5580806106f4565b8111610b37576109fd601254612e0d565b601f8111610ae6575b506000601f8211600114610a6f5781929394600092610a64575b50508160011b916000199060031b1c1916176012555b7fa6f004921c944d4b8bf6e38462b00f36a58d62495d56b51f571ab78f732c9815600080a1819083806106e9565b013590508480610a20565b60126000908152601f1983169560008051602061466083398151915292909160205b888210610ace57505083600195969710610ab4575b505050811b01601255610a36565b0135600019600384901b60f8161c19169055848080610aa6565b80600184968294958701358155019501920190610a91565b6012600052600080516020614660833981519152601f830160051c810160208410610b30575b601f90920160051c01905b818110610b245750610a06565b60008155600101610b17565b5080610b0c565b634e487b7160e01b600052604160045260246000fd5b601180546001600160a01b031916821790556040519081527f3df77beb5db05fcdd70a30fc8adf3f83f9501b68579455adbd100b818094039490602090a1856106e2565b3461031c57600036600319011261031c57600a546040516001600160a01b039091168152602090f35b3461031c57600036600319011261031c576020610bd5613c4b565b604051908152f35b3461031c57600036600319011261031c576020602b54604051908152f35b3461031c5760a036600319011261031c57610c14612d62565b610c1c612d78565b906044356001600160a01b038116900361031c576064356001600160401b03811161031c57610c4f903690600401612f5f565b60843515156084350361031c57610c7160018060a01b03600754163314612f8c565b6011546040805163d6d7d52560e01b8152602060048201529182906001600160a01b031681600081610ca560248201612fd7565b03925af190811561105f5760009060009261113c575b508181611132575b501561112957806013555b1561111757610cdb613fc7565b610ce3613e1a565b60018060a01b0384166000526019602052610d316040600020546020830160018060801b03809481835116156000146110f8575050505b620186a0610d2a60225483613231565b049061327f565b93602060018060a01b03600b5416956064610d5e610d55600e549360135490613231565b60245490613244565b916040519889938492638eb22cdd60e01b845260048401526024830152600060448301525afa94851561105f576000956110c4575b506001600160a01b0381166000908152601a60205260409020549485116110b257610dde610dbf613e1a565b6001600160a01b03831660009081526019602052604090205490614185565b91610de883613ef6565b90610df8601654928284166140f7565b1690610e368260018060801b0319809316178060165560018060a01b0385166000526019602052610e2d604060002054613ef6565b9060801c6140f7565b60801b1617601655610e4a85601754613272565b6017556001600160a01b039081166000908152601a602090815260408083208390556019909152812055600f5416803b1561031c57604051632770a7eb60e21b815233600482015260248101929092526000908290604490829084905af1801561105f576110a3575b5060843515610fb5576000939192610ed18594610edb933691612f28565b90604435906141e3565b600f5460405163a9059cbb60e01b602082019081526001600160a01b0395861660248301526044808301949094529281529316929091508390610f1f606482612eac565b51925af1610f2b614155565b81610f7e575b5015610f3957005b60405162461bcd60e51b815260206004820152601c60248201527f426f72696e6745524332303a205472616e73666572206661696c6564000000006044820152606490fd5b8051801592508215610f93575b505081610f31565b819250906020918101031261031c576020610fae9101613603565b8180610f8b565b505060018060a01b03600b5416600e546040519263442c159960e01b8452816004850152602484015260006044840152602083606481855afa92831561105f5760009361106b575b5090611027936000604094938551968795869485936311a5cc7760e31b8552309060048601614126565b03925af1801561105f5761103757005b61031a9060403d604011611058575b6110508183612eac565b810190614110565b503d611046565b6040513d6000823e3d90fd5b9250906020833d60201161109b575b8161108760209383612eac565b8101031261031c5791519190611027610ffd565b3d915061107a565b6110ac90612e47565b84610eb3565b604051632893247960e01b8152600490fd5b9094506020813d6020116110f0575b816110e060209383612eac565b8101031261031c57519386610d93565b3d91506110d3565b611112938261110992511690613231565b91511690613244565b610d1a565b6040516331b705ed60e11b8152600490fd5b50601354610cce565b9050151586610cc3565b9050611160915060403d604011611167575b6111588183612eac565b810190613610565b9086610cbb565b503d61114e565b3461031c57600036600319011261031c5760208054604051908152f35b3461031c57600036600319011261031c57602060ff602854166040519015158152f35b3461031c57600036600319011261031c5760406027548151906001600160401b03908181168352831c166020820152f35b3461031c57600036600319011261031c576020601c54604051908152f35b3461031c57604036600319011261031c57611216612d62565b6024359081158015906112d2575b61125a575b6040519182526001600160a01b03169033906000805160206146a083398151915290602090a3602060405160018152f35b3360005260036020526040600020546112758382101561395f565b6001600160a01b038216908333839003611292575b505050611229565b6112a6916112a18415156139a4565b613272565b33600052600360205260406000205560005260406000206112c883825461327f565b905582808361128a565b50336001600160a01b03821614611224565b3461031c57604036600319011261031c5761132961130c611303612d62565b602435906134bb565b604080519384526020840192909252908201529081906060820190565b0390f35b3461031c57604036600319011261031c576020610bd561134b612d62565b60243590613727565b3461031c57600036600319011261031c57604051600090602d5461137781612e0d565b80835260019180831690811561140e57506001146113b4575b611329836113a081870382612eac565b604051918291602083526020830190612ecd565b602d600090815260209450917f4a2cc91ee622da3bc833a54c37ffcb6f3ec23b7793efc5eaf5e71b7b406c5c065b8284106113fb575050508101909101906113a081611390565b80548585018701529285019281016113e2565b61132995506113a093506020915091849260ff191682840152151560051b8201019350611390565b3461031c57604036600319011261031c576004356001600160401b03811161031c573660238201121561031c57611477903690602481600401359101612f28565b906024359061ffff821680920361031c5761010090818480518101031261031c576114a460208501613603565b906114b1604086016139e9565b6114bd606087016139e9565b9560808101519560a08201519160c08101519660ff8816880361031c57818601519101516001600160a01b039485169985169790919042851061062f576042896105d3958d99611584988b8f8e6000146115a1577f9cc5629bbe7baa98a89f6f8c2c396b83ab62dbb6cbb12f17f1d6ba7e6f53e266955b82600052600660205260406000209283549361154f85613b97565b9055604051966020880198895260408801526060870152608086015260a085015260c08401528183015281526105ab81612e75565b16036105ea57156115985761031a92613bf4565b61031a92613ba6565b7f5c9ba5f0d101616843d7918f48ea857d6da95e04ac6d719e105e50a355e7c5d695611534565b3461031c57600036600319011261031c576007546040516001600160a01b039091168152602090f35b3461031c57600036600319011261031c576020601d54604051908152f35b3461031c57600036600319011261031c576116497f000000000000000000000000000000000000000000000000000000000000000061305c565b6116727f0000000000000000000000000000000000000000000000000000000000000000613155565b60405190602090818301938385106001600160401b03861117610b3757949392906116cb839185604052600084526116bd604051988998600f60f81b8a5280868b0152890190612ecd565b908782036040890152612ecd565b91466060870152306080870152600060a087015285830360c0870152519182815201929160005b82811061170157505050500390f35b8351855286955093810193928101926001016116f2565b3461031c57600036600319011261031c57601654604080516001600160801b038316815260809290921c602083015290f35b3461031c57604036600319011261031c57611770611766612d62565b6024359033613ba6565b602060405160018152f35b3461031c57602036600319011261031c576001600160a01b0361179c612d62565b1660005260066020526020604060002054604051908152f35b3461031c57600036600319011261031c576011546040516001600160a01b039091168152602090f35b3461031c57600036600319011261031c576020603154604051908152f35b3461031c57600036600319011261031c576020602f54604051908152f35b3461031c57600036600319011261031c5760405160009060125461183d81612e0d565b80835260019180831690811561140e575060011461186557611329836113a081870382612eac565b6012600090815260209450916000805160206146608339815191525b82841061189a575050508101909101906113a081611390565b8054858501870152928501928101611881565b3461031c57602036600319011261031c57600435600981101561031c576000526009602052602060ff604060002054166040519015158152f35b3461031c57602036600319011261031c576001600160a01b03611908612d62565b1660005260036020526020604060002054604051908152f35b3461031c57600036600319011261031c57600c546040516001600160a01b039091168152602090f35b3461031c57600036600319011261031c576020602954604051908152f35b3461031c57600036600319011261031c576020601e54604051908152f35b3461031c57600036600319011261031c576020602e54604051908152f35b3461031c57600036600319011261031c576020602254604051908152f35b3461031c57600036600319011261031c576008546001600160a01b039081811633819003611a2c57806007549384167f8be0079c531659141344cd1fd0a4f28419497f9722a3daafe3b4186f6b6457e0600080a36001600160a01b03199283161760075516600855005b606460405162461bcd60e51b815260206004820152602060248201527f4f776e61626c653a2063616c6c657220213d2070656e64696e67206f776e65726044820152fd5b3461031c57602036600319011261031c576001600160a01b03611a91612d62565b1660005260196020526020604060002054604051908152f35b3461031c57600036600319011261031c576020601754604051908152f35b3461031c57600036600319011261031c576020601054604051908152f35b3461031c57600036600319011261031c576020601854604051908152f35b3461031c57606036600319011261031c576020610bd56044356024356004356133f4565b3461031c57600036600319011261031c576020601354604051908152f35b3461031c57600036600319011261031c57600f546040516001600160a01b039091168152602090f35b3461031c57600036600319011261031c576020601454604051908152f35b3461031c5760a036600319011261031c576004356001600160401b03811161031c57611bbd903690600401612ddd565b906024356001600160401b03811161031c57611bdd903690600401612ddd565b6044356001600160401b03811161031c57611bfc903690600401612ddd565b92906064356001600160401b03811161031c57611c1d903690600401612ddd565b9490936084356001600160401b03811161031c57611c3f903690600401612ddd565b9690916004600052600960205260ff604060002054166126d45760026026541461268f576002602655891561267d57808a0361266857818a0361266857818803612668576011546040805163d6d7d52560e01b815260206004820152979188906001600160a01b031681600081611cb860248201612fd7565b03925af196871561105f57600090600098612644575b50878161263a575b501561263057866013555b861561111757611cef613fc7565b60009a60005b818110611d43578c15611d09576001602655005b60405162461bcd60e51b815260206004820152601260248201527110908e881b9bc81d5cd95c9cc8199bdd5b9960721b6044820152606490fd5b611d4e81838e6144fd565b356001600160a01b038116810361031c57611d698a8261450d565b15611d7e575b50611d7990613b97565b611cf5565b9c611d8890613b97565b9c8a611da18388611d9a828a8a6144fd565b35936144fd565b35916001600160a01b038316830361031c578d8410156121e4578360051b890135601e198a36030181121561031c578901926001600160401b0384351161031c5783353603602085011361031c578c93611dfc868d8f6144fd565b3591611e088685613727565b9515611117578e9260018060a01b03600b541695600e549060018060a01b038716600052601a602052604060002054976040519863442c159960e01b8a528360048b015260248a0152600060448a0152602089606481845afa98891561105f576000996125fc575b50611e8787611e82602454809c613231565b613244565b9260018060a01b0389166000526019602052611ea8846040600020546132f8565b92611ed3611eb4613e1a565b6001600160a01b038c1660009081526019602052604090205490614185565b93848111156125f75750835b818111156125ef5750995b8a98848a036125b3576001600160a01b038b16600090815260196020526040902054995b8a156125a157601f548d81612580575b5050808710156124cb5750505050508111156124b95781156124915786611f4491613272565b620186a0908181029181830414901517156124a35786611f6391613244565b10612491576001600160a01b0384166000908152601a6020526040902054925b60018060a01b0385166000526019602052611fa46040600020918254613272565b905560018060a01b038416600052601a6020526040600020611fc7848254613272565b905560178054848082111561248757611fdf91613272565b905b5560018060a01b03600b5416906020601054606460405180958193638eb22cdd60e01b835260048301528a6024830152600160448301525afa91821561105f57600092612451575b5061203f61204692933690602081359101612f28565b90846141e3565b5081811061243f578181111561242b5761207261206a61207a93620186a093613272565b965b87613231565b048095613272565b9184612284575b600f54600b546001600160a01b039182169116813b1561224457600091829182604051602081019263095ea7b360e01b84526024820152816044820152604481526120cb81612e91565b51925af16120d7614155565b9080612209575b6120e89150614613565b600f546001600160a01b0316803b1561031c57604051632770a7eb60e21b815230600482015260248101869052906000908290604490829084905af1801561105f576121fa575b506040519061213d82612e5a565b60018252602036818401378151156121e4576001600160a01b03166020820190815260405191518291906000905b8082106121c257505050819003902060408051938452602084019490945292820152611d799392919033907f85b91d472e69b2cfe848ed50eb5d8582ae96c22057b6e46250255dd6f6c3519290606090a490611d6f565b82516001600160a01b031684526020938401939092019160019091019061216b565b634e487b7160e01b600052603260045260246000fd5b61220390612e47565b3861212f565b5080518015908115612221575b506120e891506120de565b6020915082908101031261031c5761223e60206120e89201613603565b38612216565b60405162461bcd60e51b815260206004820152601860248201527714d85999505c1c1c9bdd994e881b9bc818dbdb9d1c9858dd60421b6044820152606490fd5b600f54600b546001600160a01b039182169116813b1561224457604051906000806020840163095ea7b360e01b94858252846024820152826044820152604481526122ce81612e91565b519082875af16122dc614155565b816123e2575b509160008094926122f38295614613565b60405190602082019384526024820152811960448201526044815261231781612e91565b51925af1612323614155565b90806123a7575b6123349150614613565b6000604060018060a01b03600b541660a460105483519485938492634d4d7cbd60e11b845260048401523060248401523360448401528160648401528b60848401525af1801561105f57612389575b50612081565b6123a19060403d604011611058576110508183612eac565b50612383565b50805180159081156123bf575b50612334915061232a565b6020915082908101031261031c576123dc60206123349201613603565b386123b4565b80518015925082156123f9575b50600090506122e2565b819593949250906020918101031261031c5760008094936122f36124206020849701613603565b9395505092946123ef565b505061207a620186a061207260009661206c565b6040516332457ad960e21b8152600490fd5b91506020823d60201161247f575b8161246c60209383612eac565b8101031261031c5790519061203f612029565b3d915061245f565b5050600090611fe1565b6040516345abf0cf60e11b8152600490fd5b634e487b7160e01b600052601160045260246000fd5b6040516331607f7760e21b8152600490fd5b6064949a9750602096506124e593955090611e8291613231565b916040519788938492638eb22cdd60e01b845260048401526024830152600060448301525afa93841561105f5760009461254c575b506001600160a01b0385166000908152601a6020526040902054841115611f835760405162d11df360e61b8152600490fd5b9093506020813d602011612578575b8161256860209383612eac565b8101031261031c5751923861251a565b3d915061255b565b61259a9250620186a09161259391613231565b048d61327f565b388d611f1e565b6040516351f0c00360e01b8152600490fd5b8b6125bc613e1a565b80516001600160801b039081166125d65750505b99611f0e565b6111096125ea938260208501511690613231565b6125d0565b905099611eea565b611edf565b9098506020813d602011612628575b8161261860209383612eac565b8101031261031c57519738611e70565b3d915061260b565b6013549650611ce1565b905015158c611cd6565b905061266091975060403d604011611167576111588183612eac565b96908c611cce565b6040516001621398b960e31b03198152600490fd5b604051638c20998d60e01b8152600490fd5b60405162461bcd60e51b815260206004820152601f60248201527f5265656e7472616e637947756172643a207265656e7472616e742063616c6c006044820152606490fd5b60405162461bcd60e51b815260206004820152600e60248201526d13585c9ad95d0e881c185d5cd95960921b6044820152606490fd5b3461031c57600036600319011261031c576020610bd5613835565b3461031c57600036600319011261031c576020601b54604051908152f35b3461031c57600036600319011261031c576016546040516001600160801b039091168152602090f35b3461031c57600036600319011261031c576020601554604051908152f35b3461031c57606036600319011261031c576127a3612d62565b6127ab612d78565b60443590816127e8575b6040519182526001600160a01b039081169216906000805160206146a083398151915290602090a3602060405160018152f35b60018060a01b038084168060005260206003815284604060002054936128108286101561395f565b851693848403612825575b50505050506127b5565b836000526004835260406000203360005283526040600020546000198103612899575b5084926128706000805160206146a08339815191529795936003936112a160209915156139a4565b9260005252604060002055600052604060002061288e85825461327f565b90559185848161281b565b909181106128ee5760209492612870886000805160206146a08339815191529896946128c782600396613272565b86600052600485526040600020336000528552604060002055935093959750509294612848565b60405162461bcd60e51b815260048101849052601860248201527745524332303a20616c6c6f77616e636520746f6f206c6f7760401b6044820152606490fd5b3461031c5761293c36612d8e565b8397949697929192421161062f576129d9926105d392604260018060a01b039689888d16998a928360005260066020528d60406000209081549161297f83613b97565b90558c6040519560208701977f5c9ba5f0d101616843d7918f48ea857d6da95e04ac6d719e105e50a355e7c5d6895260006040890152606088015216608086015260a085015260c08401528183015281526105ab81612e75565b16036105ea5761031a92613ba6565b3461031c57600036600319011261031c57602c546040516001600160a01b039091168152602090f35b3461031c57602036600319011261031c576001600160a01b03612a32612d62565b16600052601a6020526020604060002054604051908152f35b3461031c57600036600319011261031c57602060405160008152f35b3461031c57600036600319011261031c576020603054604051908152f35b3461031c57604036600319011261031c57611770612aa1612d62565b6024359033613bf4565b3461031c57606036600319011261031c57612ac4612d62565b602435801515810361031c5760443590811515820361031c5760018060a01b03928391612af683600754163314612f8c565b15612b9a571690811590811591612b92575b5015612b5557806007549283167f8be0079c531659141344cd1fd0a4f28419497f9722a3daafe3b4186f6b6457e0600080a36001600160a01b031991821617600755600880549091169055005b60405162461bcd60e51b81526020600482015260156024820152744f776e61626c653a207a65726f206164647265737360581b6044820152606490fd5b905083612b08565b9150501660018060a01b03196008541617600855600080f35b3461031c57600036600319011261031c576011546040805163d6d7d52560e01b8152602060048201529182906001600160a01b031681600081612bf860248201612fd7565b03925af1801561105f57600091600091612cf5575b50908015612c97578115612c5b578160409260135542601555807f9f9192b5edb17356c524e08d9e025c8e2f6307e6ea52fb7968faa3081f51c3c8600080a25b825191151582526020820152f35b60405162461bcd60e51b81526020600482015260146024820152734d61726b65743a20696e76616c6964207261746560601b6044820152606490fd5b9050612ca86015546014549061327f565b4211612cb957604090601354612c4d565b60405162461bcd60e51b815260206004820152601460248201527313585c9ad95d0e881c985d19481d1bdbc81bdb1960621b6044820152606490fd5b9050612d10915060403d604011611167576111588183612eac565b82612c0d565b3461031c57604036600319011261031c57602090612d32612d62565b612d3a612d78565b9060018060a01b03809116600052600584526040600020911660005282526040600020548152f35b600435906001600160a01b038216820361031c57565b602435906001600160a01b038216820361031c57565b60e090600319011261031c576001600160a01b0390600435828116810361031c5791602435908116810361031c5790604435906064359060843560ff8116810361031c579060a4359060c43590565b9181601f8401121561031c578235916001600160401b03831161031c576020808501948460051b01011161031c57565b90600182811c92168015612e3d575b6020831014612e2757565b634e487b7160e01b600052602260045260246000fd5b91607f1691612e1c565b6001600160401b038111610b3757604052565b604081019081106001600160401b03821117610b3757604052565b61010081019081106001600160401b03821117610b3757604052565b608081019081106001600160401b03821117610b3757604052565b90601f801991011681019081106001600160401b03821117610b3757604052565b919082519283825260005b848110612ef9575050826000602080949584010152601f8019910116010190565b602081830181015184830182015201612ed8565b6001600160401b038111610b3757601f01601f191660200190565b929192612f3482612f0d565b91612f426040519384612eac565b82948184528183011161031c578281602093846000960137010152565b9181601f8401121561031c578235916001600160401b03831161031c576020838186019501011161031c57565b15612f9357565b606460405162461bcd60e51b815260206004820152602060248201527f4f776e61626c653a2063616c6c6572206973206e6f7420746865206f776e65726044820152fd5b60125460009291612fe782612e0d565b908181526001928381169081600014613041575060011461300757505050565b9092935060126000526020928360002092846000945b83861061302d5750505050010190565b80548587018301529401938590820161301d565b91935050602093945060ff191683830152151560051b010190565b60ff811461309a5760ff811690601f8211613088576040519161307e83612e5a565b8252602082015290565b604051632cd44ac360e21b8152600490fd5b506040516000818154916130ad83612e0d565b80835260019380851690811561313457506001146130d6575b506130d392500382612eac565b90565b60008080527f290decd9548b62a8d60345a988386fc84ba6bc95484008f6362f93160ef3e56394602093509091905b81831061311c5750506130d39350820101386130c6565b85548784018501529485019486945091830191613105565b90506130d394506020925060ff191682840152151560051b820101386130c6565b60ff81146131775760ff811690601f8211613088576040519161307e83612e5a565b50604051600081600191825461318c81612e0d565b8084529084811690811561313457506001146131af57506130d392500382612eac565b9280915060005260209081600020936000915b8183106131d95750506130d39350820101386130c6565b855487840185015294850194869450918301916131c2565b156131f857565b60405162461bcd60e51b815260206004820152601160248201527013585c9ad95d0e881b9bdd081d985b1a59607a1b6044820152606490fd5b818102929181159184041417156124a357565b811561324e570490565b634e487b7160e01b600052601260045260246000fd5b604d81116124a357600a0a90565b919082039182116124a357565b919082018092116124a357565b818103929160001380158285131691841216176124a357565b906509184e72a000918281029281840514901517156124a357565b90670de0b6b3a7640000918281029281840514901517156124a357565b811561324e57600160ff1b81146000198314166124a3570590565b601654613333916133229190613318906001600160801b03831690613231565b9060801c90613244565b91620186a091829160215490613231565b048083106133ec576133459083613272565b6020546022548301908184116124a357839161336091613231565b04918281039060008094128183128116918313901516176133d8579061339161338b613396936132a5565b916132c0565b6132dd565b90808212156133d157600160ff1b82146133bd5703905b8082116133b8575090565b905090565b634e487b7160e01b81526011600452602490fd5b50906133ad565b634e487b7160e01b83526011600452602483fd5b505050600090565b601654919291613433916134249161341a91613318906001600160801b03831690613231565b9360215490613231565b61342d83613264565b90613244565b908183106133ec5761339161338b61348d6134516134929587613272565b9361348861348261347960205461347361346a86613264565b6022549061327f565b90613231565b61342d84613264565b91613264565b61328c565b6132a5565b60008112156134b557600160ff1b81146124a357600003908082116133b8575090565b906133ad565b6001600160a01b039081166000818152601960209081526040822054929594939192909181156135f6576134ed613e59565b906134f986151561362d565b600b541683600e54898752601a82526064604088205491604051948593849263442c159960e01b8452600484015260248301528960448301525afa9081156135eb5785916135b8575b5092859492613598601a936135736135ac99611e8261356b60409a620186a06024540490613231565b875490613231565b815190936001600160801b0391869161358e91841690613231565b9201511690613244565b8181106135b057035b978352522054613679565b9091565b5050826135a1565b90508381813d83116135e4575b6135cf8183612eac565b810103126135e057516135ac613542565b8480fd5b503d6135c5565b6040513d87823e3d90fd5b5050509192505080918190565b5190811515820361031c57565b919082604091031261031c57602061362783613603565b92015190565b1561363457565b60405162461bcd60e51b815260206004820152601e60248201527f4d61726b65743a2065786368616e676552617465206e6f742076616c696400006044820152606490fd5b61368482151561362d565b602060018060a01b03600b5416916064600e54604051948593849263442c159960e01b845260048401526024830152600060448301525afa90811561105f576000916136f1575b5090611e826136dd9260245490613231565b620186a06136ed60205483613231565b0491565b906020823d821161371f575b8161370a60209383612eac565b8101031261371c575051611e826136cb565b80fd5b3d91506136fd565b6001600160a01b03166000818152601a6020526040812054909261374a91613679565b91835260196020526040832054801561382f57811561382f5760165461377e91613318906001600160801b03831690613231565b81811061382f5782811015613825578161379791613272565b90620186a09283830292808404851490151715613811576137bc929161342d91613272565b91601d5491601e54936137cf858561328c565b80820291848212600160ff1b8214166138115781830514901517156133d857058184820194851291129080158216911516176133bd57508082126133b8575090565b634e487b7160e01b85526011600452602485fd5b50505050601d5490565b50505090565b307f00000000000000000000000000000000000000000000000000000000000000006001600160a01b03161480613936575b15613890577f000000000000000000000000000000000000000000000000000000000000000090565b60405160208101907f8b73c3c69bb8fe3d512ecc4cf759cc79239f7b179b0ffacaa9a75d522b39400f82527f000000000000000000000000000000000000000000000000000000000000000060408201527f000000000000000000000000000000000000000000000000000000000000000060608201524660808201523060a082015260a0815260c081018181106001600160401b03821117610b375760405251902090565b507f00000000000000000000000000000000000000000000000000000000000000004614613867565b1561396657565b60405162461bcd60e51b815260206004820152601660248201527545524332303a2062616c616e636520746f6f206c6f7760501b6044820152606490fd5b156139ab57565b60405162461bcd60e51b815260206004820152601660248201527545524332303a206e6f207a65726f206164647265737360501b6044820152606490fd5b51906001600160a01b038216820361031c57565b6005811015613afc5780613a0e5750565b60018103613a565760405162461bcd60e51b815260206004820152601860248201527745434453413a20696e76616c6964207369676e617475726560401b6044820152606490fd5b60028103613aa35760405162461bcd60e51b815260206004820152601f60248201527f45434453413a20696e76616c6964207369676e6174757265206c656e677468006044820152606490fd5b600314613aac57565b60405162461bcd60e51b815260206004820152602260248201527f45434453413a20696e76616c6964207369676e6174757265202773272076616c604482015261756560f01b6064820152608490fd5b634e487b7160e01b600052602160045260246000fd5b9291906fa2a8918ca85bafe22016d0b997e4df60600160ff1b038311613b8b5791608094939160ff602094604051948552168484015260408301526060820152600093849182805260015afa15613b7e5781516001600160a01b03811615613b78579190565b50600190565b50604051903d90823e3d90fd5b50505050600090600390565b60001981146124a35760010190565b7fe50de2333c10a9502fcb1d8ae13a51bbf423153dfc63c2b8997665b32154afc360018060a01b038092169160009083825260056020526040822094169384825260205284604082205580a4565b909160207f8c5be1e5ebec7d5bd14f71427d1e84f3dd0314c0f7b2291e5b200ac8c7c3b9259160018060a01b03809416938460005260048352604060002095169485600052825280604060002055604051908152a3565b60ff60285416613db4576016546001600160801b0316908115613dad57600c54604051631848f2bf60e31b8152602093916001600160a01b03919085908290600490829086165afa801561105f578591600091613d70575b50600460405180948193631a674cc560e11b8352165afa93841561105f57600094613d3d575b5050613ce59192670de0b6b3a7640000928391602b5490613231565b049081811015613d345782810290810483036124a357613d2891613d0891613244565b60295492613d22602a5492613d1d8487613272565b613231565b0461327f565b908082116133b8575090565b50505060295490565b81813d8311613d69575b613d518183612eac565b81010312613d6557519250613ce538613cc9565b8380fd5b503d613d47565b909181813d8311613da6575b613d868183612eac565b81010312613da2575190828216820361371c5750849038613ca3565b5080fd5b503d613d7c565b602a549150565b600c5460405163e6abad4960e01b815290602090829060049082906001600160a01b03165afa90811561105f57600091613dec575090565b906020823d8211613e12575b81613e0560209383612eac565b8101031261371c57505190565b3d9150613df8565b60405190613e2782612e5a565b6016546001600160801b038116835260801c6020830152565b6001600160801b0391821690821601919082116124a357565b60006020604051613e6981612e5a565b82815201526001600160401b0390613e888260275460401c1642613272565b918215613eeb57613ee6613edd670de0b6b3a7640000613ed7613ea9613e1a565b96613d1d60018060801b0396878a511690613ed06301e13380613eca613c4b565b04613f5f565b1690613231565b04613ef6565b82855116613e40565b168252565b5090506130d3613e1a565b6001600160801b0390818111613f0a571690565b60405162461bcd60e51b815260206004820152602760248201527f53616665436173743a2076616c756520646f65736e27742066697420696e20316044820152663238206269747360c81b6064820152608490fd5b6001600160401b0390818111613f73571690565b60405162461bcd60e51b815260206004820152602660248201527f53616665436173743a2076616c756520646f65736e27742066697420696e203660448201526534206269747360d01b6064820152608490fd5b604051613fd381612e5a565b602754906001600160401b03918281168252828160401c16613ffc602084019180835242613272565b9384156140f057806140146301e13380613eca613c4b565b1684528061402142613f5f565b16825261402c613e1a565b93670de0b6b3a764000061405260018060801b0397613d1d898951168686511690613231565b04946018548703968088116124a3578760209888116140e8575b5061408261407988613ef6565b82845116613e40565b1680825296015160801b6001600160801b031990811690961760165551915192909416931692831760409190911b67ffffffffffffffff60401b16176027557f7484db546dcd57af0104c73c8a6968dfbaf5767f047cee0dadd0499ad7df81a0600080a3565b96503861406c565b5050505050565b6001600160801b0391821690821603919082116124a357565b919082604091031261031c576020825192015190565b9081526001600160a01b0391821660208201529116604082015260608101919091526000608082015260a00190565b3d15614180573d9061416682612f0d565b916141746040519384612eac565b82523d6000602084013e565b606090565b60208101805190939291906001600160801b039081166141a6575090925050565b9081611109816141c96141bf6141d29686511688613231565b828a511690613244565b97511687613231565b106141d957565b906130d390613b97565b60018060a01b039283600b5416600e5491604094855163442c159960e01b8152600495858783015260248201526000948560448301526020948583606481845afa9283156144f357918991898c8a969587966144b3575b50859697169687936142618651978896879586946311a5cc7760e31b865230918601614126565b03925af180156144a95761448d575b5087600f54168751926370a0823160e01b9485855230898601528685602481865afa94851561448357888a899594938e8e94849a61443b575b50906142eb91600d5416945198899788968795635cd3dc1560e01b8752339087015260248601526044850152606484015260a0608484015260a4830190612ecd565b03925af18015614431576143fd575b508287600f54169260248851809581938252308a8301525afa80156143f35784906143c2575b61432a9250613272565b9485156143b257600b546010548651638eb22cdd60e01b8152958601526024850187905260448501849052829185916064918391165afa9384156143a757508193614376575b50505091565b9091809350813d83116143a0575b61438e8183612eac565b8101031261371c575051388080614370565b503d614384565b51913d9150823e3d90fd5b845163801ccdb560e01b81528490fd5b50908281813d83116143ec575b6143d98183612eac565b81010312613d65579061432a9151614320565b503d6143cf565b86513d86823e3d90fd5b8381813d831161442a575b6144128183612eac565b810103126135e05761442390613603565b50386142fa565b503d614408565b87513d87823e3d90fd5b959794505094969750505081813d831161447c575b61445a8183612eac565b81010312614478579189888a6142eb8e9897958b97519990916142a9565b8780fd5b503d614450565b8a513d8a823e3d90fd5b6144a390883d8a11611058576110508183612eac565b50614270565b88513d88823e3d90fd5b94505050925092508581813d83116144ec575b6144d08183612eac565b810103126144e8575186929091899190898c3861423a565b8680fd5b503d6144c6565b89513d89823e3d90fd5b91908110156121e45760051b0190565b919060018060a01b0380600094168452602060198152604085205490811561460957601a8152604086205480156140f05781614547613e1a565b94600b5416916064600e54604051948593849263442c159960e01b8452600484015260248301528b60448301525afa9687156145fd5780976145c7575b505061358e6145ac6145a36145c2969798620186a06024540490613231565b60215490613231565b95613d1d60018060801b03948587511690613231565b111590565b9096508187813d83116145f6575b6145df8183612eac565b8101031261371c575094519461358e6145ac614584565b503d6145d5565b604051903d90823e3d90fd5b5060019450505050565b1561461a57565b60405162461bcd60e51b815260206004820152601b60248201527f53616665417070726f76653a20617070726f7665206661696c656400000000006044820152606490fdfebb8a6a4669ba250d26cd7a459eca9d215f8307e33aebe50379bc5a3617ec3444253ac2c290fb3c37b20cfd60899ed86c0c8313905edc8ca53ec8d2b69d9919adddf252ad1be2c89b69c2b068fc378daa952ba7f163c4a11628f55a4df523b3efa2646970667358221220936d3d498efc7ed0c905378bf9f992d3f2972647395ec41a9485a96a2318e0df64736f6c63430008130033",
  "linkReferences": {},
  "deployedLinkReferences": {}
}