{
  "_format": "hh-sol-artifact-1",
  "contractName": "BBLiquidation",
  "sourceName": "contracts/markets/bigBang/BBLiquidation.sol",
  "abi": [
    {
      "anonymous": false,
      "inputs": [
        {
          "indexed": true,
          "internalType": "address",
          "name": "owner",
          "type": "address"
        },
        {
          "indexed": true,
          "internalType": "address",
          "name": "spender",
          "type": "address"
        },
        {
          "indexed": false,
          "internalType": "uint256",
          "name": "value",
          "type": "uint256"
        }
      ],
      "name": "Approval",
      "type": "event"
    },
    {
      "anonymous": false,
      "inputs": [
        {
          "indexed": true,
          "internalType": "address",
          "name": "owner",
          "type": "address"
        },
        {
          "indexed": true,
          "internalType": "address",
          "name": "spender",
          "type": "address"
        },
        {
          "indexed": false,
          "internalType": "uint256",
          "name": "value",
          "type": "uint256"
        }
      ],
      "name": "ApprovalBorrow",
      "type": "event"
    },
    {
      "anonymous": false,
      "inputs": [
        {
          "indexed": true,
          "internalType": "address",
          "name": "old",
          "type": "address"
        },
        {
          "indexed": true,
          "internalType": "address",
          "name": "_new",
          "type": "address"
        }
      ],
      "name": "ConservatorUpdated",
      "type": "event"
    },
    {
      "anonymous": false,
      "inputs": [
        {
          "indexed": false,
          "internalType": "uint256",
          "name": "oldVal",
          "type": "uint256"
        },
        {
          "indexed": false,
          "internalType": "uint256",
          "name": "newVal",
          "type": "uint256"
        }
      ],
      "name": "DebtRateAgainstEthUpdated",
      "type": "event"
    },
    {
      "anonymous": false,
      "inputs": [
        {
          "indexed": true,
          "internalType": "address",
          "name": "liquidator",
          "type": "address"
        },
        {
          "indexed": false,
          "internalType": "address[]",
          "name": "users",
          "type": "address[]"
        },
        {
          "indexed": false,
          "internalType": "uint256",
          "name": "liquidatorReward",
          "type": "uint256"
        },
        {
          "indexed": false,
          "internalType": "uint256",
          "name": "protocolReward",
          "type": "uint256"
        },
        {
          "indexed": false,
          "internalType": "uint256",
          "name": "repayedAmount",
          "type": "uint256"
        },
        {
          "indexed": false,
          "internalType": "uint256",
          "name": "collateralShareRemoved",
          "type": "uint256"
        }
      ],
      "name": "Liquidated",
      "type": "event"
    },
    {
      "anonymous": false,
      "inputs": [
        {
          "indexed": false,
          "internalType": "uint256",
          "name": "oldVal",
          "type": "uint256"
        },
        {
          "indexed": false,
          "internalType": "uint256",
          "name": "newVal",
          "type": "uint256"
        }
      ],
      "name": "LiquidationMultiplierUpdated",
      "type": "event"
    },
    {
      "anonymous": false,
      "inputs": [
        {
          "indexed": false,
          "internalType": "uint256",
          "name": "accruedAmount",
          "type": "uint256"
        },
        {
          "indexed": false,
          "internalType": "uint64",
          "name": "rate",
          "type": "uint64"
        }
      ],
      "name": "LogAccrue",
      "type": "event"
    },
    {
      "anonymous": false,
      "inputs": [
        {
          "indexed": true,
          "internalType": "address",
          "name": "from",
          "type": "address"
        },
        {
          "indexed": true,
          "internalType": "address",
          "name": "to",
          "type": "address"
        },
        {
          "indexed": false,
          "internalType": "uint256",
          "name": "share",
          "type": "uint256"
        }
      ],
      "name": "LogAddCollateral",
      "type": "event"
    },
    {
      "anonymous": false,
      "inputs": [
        {
          "indexed": true,
          "internalType": "address",
          "name": "from",
          "type": "address"
        },
        {
          "indexed": true,
          "internalType": "address",
          "name": "to",
          "type": "address"
        },
        {
          "indexed": false,
          "internalType": "uint256",
          "name": "amount",
          "type": "uint256"
        },
        {
          "indexed": false,
          "internalType": "uint256",
          "name": "feeAmount",
          "type": "uint256"
        },
        {
          "indexed": false,
          "internalType": "uint256",
          "name": "part",
          "type": "uint256"
        }
      ],
      "name": "LogBorrow",
      "type": "event"
    },
    {
      "anonymous": false,
      "inputs": [
        {
          "indexed": false,
          "internalType": "uint256",
          "name": "_oldVal",
          "type": "uint256"
        },
        {
          "indexed": false,
          "internalType": "uint256",
          "name": "_newVal",
          "type": "uint256"
        }
      ],
      "name": "LogBorrowCapUpdated",
      "type": "event"
    },
    {
      "anonymous": false,
      "inputs": [
        {
          "indexed": false,
          "internalType": "uint256",
          "name": "_oldVal",
          "type": "uint256"
        },
        {
          "indexed": false,
          "internalType": "uint256",
          "name": "_newVal",
          "type": "uint256"
        }
      ],
      "name": "LogBorrowingFee",
      "type": "event"
    },
    {
      "anonymous": false,
      "inputs": [
        {
          "indexed": false,
          "internalType": "uint256",
          "name": "rate",
          "type": "uint256"
        }
      ],
      "name": "LogExchangeRate",
      "type": "event"
    },
    {
      "anonymous": false,
      "inputs": [
        {
          "indexed": true,
          "internalType": "address",
          "name": "from",
          "type": "address"
        },
        {
          "indexed": true,
          "internalType": "address",
          "name": "to",
          "type": "address"
        },
        {
          "indexed": false,
          "internalType": "uint256",
          "name": "share",
          "type": "uint256"
        }
      ],
      "name": "LogRemoveCollateral",
      "type": "event"
    },
    {
      "anonymous": false,
      "inputs": [
        {
          "indexed": true,
          "internalType": "address",
          "name": "from",
          "type": "address"
        },
        {
          "indexed": true,
          "internalType": "address",
          "name": "to",
          "type": "address"
        },
        {
          "indexed": false,
          "internalType": "uint256",
          "name": "amount",
          "type": "uint256"
        },
        {
          "indexed": false,
          "internalType": "uint256",
          "name": "part",
          "type": "uint256"
        }
      ],
      "name": "LogRepay",
      "type": "event"
    },
    {
      "anonymous": false,
      "inputs": [
        {
          "indexed": false,
          "internalType": "uint256",
          "name": "oldVal",
          "type": "uint256"
        },
        {
          "indexed": false,
          "internalType": "uint256",
          "name": "newVal",
          "type": "uint256"
        }
      ],
      "name": "MaxDebtRateUpdated",
      "type": "event"
    },
    {
      "anonymous": false,
      "inputs": [
        {
          "indexed": false,
          "internalType": "uint256",
          "name": "oldVal",
          "type": "uint256"
        },
        {
          "indexed": false,
          "internalType": "uint256",
          "name": "newVal",
          "type": "uint256"
        }
      ],
      "name": "MinDebtRateUpdated",
      "type": "event"
    },
    {
      "anonymous": false,
      "inputs": [],
      "name": "OracleDataUpdated",
      "type": "event"
    },
    {
      "anonymous": false,
      "inputs": [],
      "name": "OracleUpdated",
      "type": "event"
    },
    {
      "anonymous": false,
      "inputs": [
        {
          "indexed": true,
          "internalType": "address",
          "name": "previousOwner",
          "type": "address"
        },
        {
          "indexed": true,
          "internalType": "address",
          "name": "newOwner",
          "type": "address"
        }
      ],
      "name": "OwnershipTransferred",
      "type": "event"
    },
    {
      "anonymous": false,
      "inputs": [
        {
          "indexed": false,
          "internalType": "enum Market.PauseType",
          "name": "_type",
          "type": "uint8"
        },
        {
          "indexed": false,
          "internalType": "bool",
          "name": "oldState",
          "type": "bool"
        },
        {
          "indexed": false,
          "internalType": "bool",
          "name": "newState",
          "type": "bool"
        }
      ],
      "name": "PausedUpdated",
      "type": "event"
    },
    {
      "anonymous": false,
      "inputs": [
        {
          "indexed": true,
          "internalType": "address",
          "name": "from",
          "type": "address"
        },
        {
          "indexed": true,
          "internalType": "address",
          "name": "to",
          "type": "address"
        },
        {
          "indexed": false,
          "internalType": "uint256",
          "name": "value",
          "type": "uint256"
        }
      ],
      "name": "Transfer",
      "type": "event"
    },
    {
      "inputs": [],
      "name": "DOMAIN_SEPARATOR",
      "outputs": [
        {
          "internalType": "bytes32",
          "name": "",
          "type": "bytes32"
        }
      ],
      "stateMutability": "view",
      "type": "function"
    },
    {
      "inputs": [],
      "name": "accrue",
      "outputs": [],
      "stateMutability": "nonpayable",
      "type": "function"
    },
    {
      "inputs": [],
      "name": "accrueInfo",
      "outputs": [
        {
          "internalType": "uint64",
          "name": "debtRate",
          "type": "uint64"
        },
        {
          "internalType": "uint64",
          "name": "lastAccrued",
          "type": "uint64"
        }
      ],
      "stateMutability": "view",
      "type": "function"
    },
    {
      "inputs": [
        {
          "internalType": "address",
          "name": "",
          "type": "address"
        },
        {
          "internalType": "address",
          "name": "",
          "type": "address"
        }
      ],
      "name": "allowance",
      "outputs": [
        {
          "internalType": "uint256",
          "name": "",
          "type": "uint256"
        }
      ],
      "stateMutability": "view",
      "type": "function"
    },
    {
      "inputs": [
        {
          "internalType": "address",
          "name": "",
          "type": "address"
        },
        {
          "internalType": "address",
          "name": "",
          "type": "address"
        }
      ],
      "name": "allowanceBorrow",
      "outputs": [
        {
          "internalType": "uint256",
          "name": "",
          "type": "uint256"
        }
      ],
      "stateMutability": "view",
      "type": "function"
    },
    {
      "inputs": [
        {
          "internalType": "address",
          "name": "spender",
          "type": "address"
        },
        {
          "internalType": "uint256",
          "name": "amount",
          "type": "uint256"
        }
      ],
      "name": "approve",
      "outputs": [
        {
          "internalType": "bool",
          "name": "",
          "type": "bool"
        }
      ],
      "stateMutability": "nonpayable",
      "type": "function"
    },
    {
      "inputs": [
        {
          "internalType": "address",
          "name": "spender",
          "type": "address"
        },
        {
          "internalType": "uint256",
          "name": "amount",
          "type": "uint256"
        }
      ],
      "name": "approveBorrow",
      "outputs": [
        {
          "internalType": "bool",
          "name": "",
          "type": "bool"
        }
      ],
      "stateMutability": "nonpayable",
      "type": "function"
    },
    {
      "inputs": [],
      "name": "asset",
      "outputs": [
        {
          "internalType": "contract IERC20",
          "name": "",
          "type": "address"
        }
      ],
      "stateMutability": "view",
      "type": "function"
    },
    {
      "inputs": [],
      "name": "assetId",
      "outputs": [
        {
          "internalType": "uint256",
          "name": "",
          "type": "uint256"
        }
      ],
      "stateMutability": "view",
      "type": "function"
    },
    {
      "inputs": [
        {
          "internalType": "address",
          "name": "",
          "type": "address"
        }
      ],
      "name": "balanceOf",
      "outputs": [
        {
          "internalType": "uint256",
          "name": "",
          "type": "uint256"
        }
      ],
      "stateMutability": "view",
      "type": "function"
    },
    {
      "inputs": [],
      "name": "borrowOpeningFee",
      "outputs": [
        {
          "internalType": "uint256",
          "name": "",
          "type": "uint256"
        }
      ],
      "stateMutability": "view",
      "type": "function"
    },
    {
      "inputs": [],
      "name": "callerFee",
      "outputs": [
        {
          "internalType": "uint256",
          "name": "",
          "type": "uint256"
        }
      ],
      "stateMutability": "view",
      "type": "function"
    },
    {
      "inputs": [],
      "name": "claimOwnership",
      "outputs": [],
      "stateMutability": "nonpayable",
      "type": "function"
    },
    {
      "inputs": [],
      "name": "collateral",
      "outputs": [
        {
          "internalType": "contract IERC20",
          "name": "",
          "type": "address"
        }
      ],
      "stateMutability": "view",
      "type": "function"
    },
    {
      "inputs": [],
      "name": "collateralId",
      "outputs": [
        {
          "internalType": "uint256",
          "name": "",
          "type": "uint256"
        }
      ],
      "stateMutability": "view",
      "type": "function"
    },
    {
      "inputs": [],
      "name": "collateralizationRate",
      "outputs": [
        {
          "internalType": "uint256",
          "name": "",
          "type": "uint256"
        }
      ],
      "stateMutability": "view",
      "type": "function"
    },
    {
      "inputs": [
        {
          "internalType": "uint256",
          "name": "borrowPart",
          "type": "uint256"
        },
        {
          "internalType": "uint256",
          "name": "collateralPartInAsset",
          "type": "uint256"
        },
        {
          "internalType": "uint256",
          "name": "ratesPrecision",
          "type": "uint256"
        }
      ],
      "name": "computeClosingFactor",
      "outputs": [
        {
          "internalType": "uint256",
          "name": "",
          "type": "uint256"
        }
      ],
      "stateMutability": "view",
      "type": "function"
    },
    {
      "inputs": [
        {
          "internalType": "address",
          "name": "user",
          "type": "address"
        },
        {
          "internalType": "uint256",
          "name": "_exchangeRate",
          "type": "uint256"
        }
      ],
      "name": "computeLiquidatorReward",
      "outputs": [
        {
          "internalType": "uint256",
          "name": "",
          "type": "uint256"
        }
      ],
      "stateMutability": "view",
      "type": "function"
    },
    {
      "inputs": [
        {
          "internalType": "address",
          "name": "user",
          "type": "address"
        },
        {
          "internalType": "uint256",
          "name": "_exchangeRate",
          "type": "uint256"
        }
      ],
      "name": "computeTVLInfo",
      "outputs": [
        {
          "internalType": "uint256",
          "name": "amountToSolvency",
          "type": "uint256"
        },
        {
          "internalType": "uint256",
          "name": "minTVL",
          "type": "uint256"
        },
        {
          "internalType": "uint256",
          "name": "maxTVL",
          "type": "uint256"
        }
      ],
      "stateMutability": "view",
      "type": "function"
    },
    {
      "inputs": [],
      "name": "conservator",
      "outputs": [
        {
          "internalType": "address",
          "name": "",
          "type": "address"
        }
      ],
      "stateMutability": "view",
      "type": "function"
    },
    {
      "inputs": [],
      "name": "debtRateAgainstEthMarket",
      "outputs": [
        {
          "internalType": "uint256",
          "name": "",
          "type": "uint256"
        }
      ],
      "stateMutability": "view",
      "type": "function"
    },
    {
      "inputs": [],
      "name": "debtStartPoint",
      "outputs": [
        {
          "internalType": "uint256",
          "name": "",
          "type": "uint256"
        }
      ],
      "stateMutability": "view",
      "type": "function"
    },
    {
      "inputs": [],
      "name": "exchangeRate",
      "outputs": [
        {
          "internalType": "uint256",
          "name": "",
          "type": "uint256"
        }
      ],
      "stateMutability": "view",
      "type": "function"
    },
    {
      "inputs": [],
      "name": "getDebtRate",
      "outputs": [
        {
          "internalType": "uint256",
          "name": "",
          "type": "uint256"
        }
      ],
      "stateMutability": "view",
      "type": "function"
    },
    {
      "inputs": [],
      "name": "getTotalDebt",
      "outputs": [
        {
          "internalType": "uint256",
          "name": "",
          "type": "uint256"
        }
      ],
      "stateMutability": "view",
      "type": "function"
    },
    {
      "inputs": [],
      "name": "isMainMarket",
      "outputs": [
        {
          "internalType": "bool",
          "name": "",
          "type": "bool"
        }
      ],
      "stateMutability": "view",
      "type": "function"
    },
    {
      "inputs": [
        {
          "internalType": "address[]",
          "name": "users",
          "type": "address[]"
        },
        {
          "internalType": "uint256[]",
          "name": "maxBorrowParts",
          "type": "uint256[]"
        },
        {
          "internalType": "bytes[]",
          "name": "collateralToAssetSwapDatas",
          "type": "bytes[]"
        },
        {
          "internalType": "contract ISwapper",
          "name": "swapper",
          "type": "address"
        }
      ],
      "name": "liquidate",
      "outputs": [],
      "stateMutability": "nonpayable",
      "type": "function"
    },
    {
      "inputs": [
        {
          "internalType": "address",
          "name": "user",
          "type": "address"
        },
        {
          "internalType": "address",
          "name": "receiver",
          "type": "address"
        },
        {
          "internalType": "contract ISwapper",
          "name": "swapper",
          "type": "address"
        },
        {
          "internalType": "bytes",
          "name": "collateralToAssetSwapData",
          "type": "bytes"
        }
      ],
      "name": "liquidateBadDebt",
      "outputs": [],
      "stateMutability": "nonpayable",
      "type": "function"
    },
    {
      "inputs": [],
      "name": "liquidationBonusAmount",
      "outputs": [
        {
          "internalType": "uint256",
          "name": "",
          "type": "uint256"
        }
      ],
      "stateMutability": "view",
      "type": "function"
    },
    {
      "inputs": [],
      "name": "liquidationMultiplier",
      "outputs": [
        {
          "internalType": "uint256",
          "name": "",
          "type": "uint256"
        }
      ],
      "stateMutability": "view",
      "type": "function"
    },
    {
      "inputs": [],
      "name": "maxDebtRate",
      "outputs": [
        {
          "internalType": "uint256",
          "name": "",
          "type": "uint256"
        }
      ],
      "stateMutability": "view",
      "type": "function"
    },
    {
      "inputs": [],
      "name": "maxLiquidatorReward",
      "outputs": [
        {
          "internalType": "uint256",
          "name": "",
          "type": "uint256"
        }
      ],
      "stateMutability": "view",
      "type": "function"
    },
    {
      "inputs": [],
      "name": "minDebtRate",
      "outputs": [
        {
          "internalType": "uint256",
          "name": "",
          "type": "uint256"
        }
      ],
      "stateMutability": "view",
      "type": "function"
    },
    {
      "inputs": [],
      "name": "minLiquidatorReward",
      "outputs": [
        {
          "internalType": "uint256",
          "name": "",
          "type": "uint256"
        }
      ],
      "stateMutability": "view",
      "type": "function"
    },
    {
      "inputs": [
        {
          "internalType": "address",
          "name": "owner",
          "type": "address"
        }
      ],
      "name": "nonces",
      "outputs": [
        {
          "internalType": "uint256",
          "name": "",
          "type": "uint256"
        }
      ],
      "stateMutability": "view",
      "type": "function"
    },
    {
      "inputs": [
        {
          "internalType": "address",
          "name": "user",
          "type": "address"
        }
      ],
      "name": "openingFees",
      "outputs": [
        {
          "internalType": "uint256",
          "name": "fee",
          "type": "uint256"
        }
      ],
      "stateMutability": "view",
      "type": "function"
    },
    {
      "inputs": [],
      "name": "oracle",
      "outputs": [
        {
          "internalType": "contract IOracle",
          "name": "",
          "type": "address"
        }
      ],
      "stateMutability": "view",
      "type": "function"
    },
    {
      "inputs": [],
      "name": "oracleData",
      "outputs": [
        {
          "internalType": "bytes",
          "name": "",
          "type": "bytes"
        }
      ],
      "stateMutability": "view",
      "type": "function"
    },
    {
      "inputs": [],
      "name": "owner",
      "outputs": [
        {
          "internalType": "address",
          "name": "",
          "type": "address"
        }
      ],
      "stateMutability": "view",
      "type": "function"
    },
    {
      "inputs": [
        {
          "internalType": "enum Market.PauseType",
          "name": "pauseProp",
          "type": "uint8"
        }
      ],
      "name": "pauseOptions",
      "outputs": [
        {
          "internalType": "bool",
          "name": "pauseStatus",
          "type": "bool"
        }
      ],
      "stateMutability": "view",
      "type": "function"
    },
    {
      "inputs": [],
      "name": "pendingOwner",
      "outputs": [
        {
          "internalType": "address",
          "name": "",
          "type": "address"
        }
      ],
      "stateMutability": "view",
      "type": "function"
    },
    {
      "inputs": [],
      "name": "penrose",
      "outputs": [
        {
          "internalType": "contract IPenrose",
          "name": "",
          "type": "address"
        }
      ],
      "stateMutability": "view",
      "type": "function"
    },
    {
      "inputs": [
        {
          "internalType": "address",
          "name": "owner",
          "type": "address"
        },
        {
          "internalType": "address",
          "name": "spender",
          "type": "address"
        },
        {
          "internalType": "uint256",
          "name": "value",
          "type": "uint256"
        },
        {
          "internalType": "uint256",
          "name": "deadline",
          "type": "uint256"
        },
        {
          "internalType": "uint8",
          "name": "v",
          "type": "uint8"
        },
        {
          "internalType": "bytes32",
          "name": "r",
          "type": "bytes32"
        },
        {
          "internalType": "bytes32",
          "name": "s",
          "type": "bytes32"
        }
      ],
      "name": "permit",
      "outputs": [],
      "stateMutability": "nonpayable",
      "type": "function"
    },
    {
      "inputs": [
        {
          "internalType": "address",
          "name": "owner",
          "type": "address"
        },
        {
          "internalType": "address",
          "name": "spender",
          "type": "address"
        },
        {
          "internalType": "uint256",
          "name": "value",
          "type": "uint256"
        },
        {
          "internalType": "uint256",
          "name": "deadline",
          "type": "uint256"
        },
        {
          "internalType": "uint8",
          "name": "v",
          "type": "uint8"
        },
        {
          "internalType": "bytes32",
          "name": "r",
          "type": "bytes32"
        },
        {
          "internalType": "bytes32",
          "name": "s",
          "type": "bytes32"
        }
      ],
      "name": "permitBorrow",
      "outputs": [],
      "stateMutability": "nonpayable",
      "type": "function"
    },
    {
      "inputs": [],
      "name": "protocolFee",
      "outputs": [
        {
          "internalType": "uint256",
          "name": "",
          "type": "uint256"
        }
      ],
      "stateMutability": "view",
      "type": "function"
    },
    {
      "inputs": [
        {
          "internalType": "uint256",
          "name": "_cap",
          "type": "uint256"
        }
      ],
      "name": "setBorrowCap",
      "outputs": [],
      "stateMutability": "nonpayable",
      "type": "function"
    },
    {
      "inputs": [
        {
          "internalType": "uint256",
          "name": "_val",
          "type": "uint256"
        }
      ],
      "name": "setBorrowOpeningFee",
      "outputs": [],
      "stateMutability": "nonpayable",
      "type": "function"
    },
    {
      "inputs": [
        {
          "internalType": "uint256",
          "name": "_borrowOpeningFee",
          "type": "uint256"
        },
        {
          "internalType": "contract IOracle",
          "name": "_oracle",
          "type": "address"
        },
        {
          "internalType": "bytes",
          "name": "_oracleData",
          "type": "bytes"
        },
        {
          "internalType": "address",
          "name": "_conservator",
          "type": "address"
        },
        {
          "internalType": "uint256",
          "name": "_callerFee",
          "type": "uint256"
        },
        {
          "internalType": "uint256",
          "name": "_protocolFee",
          "type": "uint256"
        },
        {
          "internalType": "uint256",
          "name": "_liquidationBonusAmount",
          "type": "uint256"
        },
        {
          "internalType": "uint256",
          "name": "_minLiquidatorReward",
          "type": "uint256"
        },
        {
          "internalType": "uint256",
          "name": "_maxLiquidatorReward",
          "type": "uint256"
        },
        {
          "internalType": "uint256",
          "name": "_totalBorrowCap",
          "type": "uint256"
        },
        {
          "internalType": "uint256",
          "name": "_collateralizationRate",
          "type": "uint256"
        }
      ],
      "name": "setMarketConfig",
      "outputs": [],
      "stateMutability": "nonpayable",
      "type": "function"
    },
    {
      "inputs": [],
      "name": "totalBorrow",
      "outputs": [
        {
          "internalType": "uint128",
          "name": "elastic",
          "type": "uint128"
        },
        {
          "internalType": "uint128",
          "name": "base",
          "type": "uint128"
        }
      ],
      "stateMutability": "view",
      "type": "function"
    },
    {
      "inputs": [],
      "name": "totalBorrowCap",
      "outputs": [
        {
          "internalType": "uint256",
          "name": "",
          "type": "uint256"
        }
      ],
      "stateMutability": "view",
      "type": "function"
    },
    {
      "inputs": [],
      "name": "totalCollateralShare",
      "outputs": [
        {
          "internalType": "uint256",
          "name": "",
          "type": "uint256"
        }
      ],
      "stateMutability": "view",
      "type": "function"
    },
    {
      "inputs": [],
      "name": "totalSupply",
      "outputs": [
        {
          "internalType": "uint256",
          "name": "",
          "type": "uint256"
        }
      ],
      "stateMutability": "view",
      "type": "function"
    },
    {
      "inputs": [
        {
          "internalType": "address",
          "name": "to",
          "type": "address"
        },
        {
          "internalType": "uint256",
          "name": "amount",
          "type": "uint256"
        }
      ],
      "name": "transfer",
      "outputs": [
        {
          "internalType": "bool",
          "name": "",
          "type": "bool"
        }
      ],
      "stateMutability": "nonpayable",
      "type": "function"
    },
    {
      "inputs": [
        {
          "internalType": "address",
          "name": "from",
          "type": "address"
        },
        {
          "internalType": "address",
          "name": "to",
          "type": "address"
        },
        {
          "internalType": "uint256",
          "name": "amount",
          "type": "uint256"
        }
      ],
      "name": "transferFrom",
      "outputs": [
        {
          "internalType": "bool",
          "name": "",
          "type": "bool"
        }
      ],
      "stateMutability": "nonpayable",
      "type": "function"
    },
    {
      "inputs": [
        {
          "internalType": "address",
          "name": "newOwner",
          "type": "address"
        },
        {
          "internalType": "bool",
          "name": "direct",
          "type": "bool"
        },
        {
          "internalType": "bool",
          "name": "renounce",
          "type": "bool"
        }
      ],
      "name": "transferOwnership",
      "outputs": [],
      "stateMutability": "nonpayable",
      "type": "function"
    },
    {
      "inputs": [],
      "name": "updateExchangeRate",
      "outputs": [
        {
          "internalType": "bool",
          "name": "updated",
          "type": "bool"
        },
        {
          "internalType": "uint256",
          "name": "rate",
          "type": "uint256"
        }
      ],
      "stateMutability": "nonpayable",
      "type": "function"
    },
    {
      "inputs": [
        {
          "internalType": "enum Market.PauseType",
          "name": "_type",
          "type": "uint8"
        },
        {
          "internalType": "bool",
          "name": "val",
          "type": "bool"
        }
      ],
      "name": "updatePause",
      "outputs": [],
      "stateMutability": "nonpayable",
      "type": "function"
    },
    {
      "inputs": [
        {
          "internalType": "address",
          "name": "",
          "type": "address"
        }
      ],
      "name": "userBorrowPart",
      "outputs": [
        {
          "internalType": "uint256",
          "name": "",
          "type": "uint256"
        }
      ],
      "stateMutability": "view",
      "type": "function"
    },
    {
      "inputs": [
        {
          "internalType": "address",
          "name": "",
          "type": "address"
        }
      ],
      "name": "userCollateralShare",
      "outputs": [
        {
          "internalType": "uint256",
          "name": "",
          "type": "uint256"
        }
      ],
      "stateMutability": "view",
      "type": "function"
    },
    {
      "inputs": [],
      "name": "yieldBox",
      "outputs": [
        {
          "internalType": "contract YieldBox",
          "name": "",
          "type": "address"
        }
      ],
      "stateMutability": "view",
      "type": "function"
    }
  ],
  "bytecode": "0x6101408060405234620001855762000017816200018a565b600f81526001602082016e546170696f63612042696742616e6760881b8152602060405162000046816200018a565b8381520192603160f81b845251902091208160e052610100918183524660a0526040519160208301907f8b73c3c69bb8fe3d512ecc4cf759cc79239f7b179b0ffacaa9a75d522b39400f92838352604085015260608401524660808401523060a084015260a0835260c083019280841060018060401b038511176200016f5760408490525190206080523060c052610120908152600580546001600160a01b0319163390811790915560007f8be0079c531659141344cd1fd0a4f28419497f9722a3daafe3b4186f6b6457e08180a36103e860195561271080601a55601b556032601d55612ee0601e55613fc89283620001a7843960805183612670015260a0518361273a015260c0518361263a015260e051836126bf015251826126e50152518161269c0152f35b634e487b7160e01b600052604160045260246000fd5b600080fd5b604081019081106001600160401b038211176200016f5760405256fe60806040908082526004918236101561001757600080fd5b600092833560e01c928362a02a2014611c4a5750826302ce728f14611c21578263078dfbe714611b2b578263095ea7b314611b015782630c4e84f0146119df57826318160ddd146119c45782631c9e379b1461198c5782631da8bf10146118d35782631fb8f81a146118b457826323b872dd1461171757826334ce998a146116ee57826334d441d0146116cf5782633644e515146116b257826338d52e0f146116895782633ba0b9a91461166a5782633f741adb1461164257826340626d8b1461162357826344de240a14611604578263473e3ce7146115e557826348e4163e146115ad5782634e71e0c81461150b5782635100b567146114ac578263529898f21461148d578263579354621461146e5782636b19ad161461144f5782636c3d8b8f1461142657826370a08231146113ee578263717186d11461139e578263727785471461136657826374645ff3146112675782637dc0d1d01461123e5782637ecebe00146112075782637fa0b84e146111d65782638285ef40146111a557826387b279371461116d5782638c5d0ed31461114e5782638da5cb5b14611125578263959916dc146111065782639675937214610d3257826399a9702814610d095782639e15e89f14610cce578263a28e6b821461099d578263a9059cbb146108c2578263b0e21e8a146108a3578263b27c0e7414610871578263b7113f191461084d578263bb4cfe3b1461082e578263bde39c5d1461080f578263c1ad5c8d146107eb578263cb7940e1146105a7578263ce8849ed1461057e578263d505accf146103fd57508163d8dfeb45146103d4578163dd62ed3e1461038b578163de40657714610362578163e0996cb614610343578163e30c39781461031a578163eec0f42e146102fb578163f791395d146102d8575063f8ba4cff146102ba57600080fd5b346102d557806003193601126102d5576102d2612d30565b80f35b80fd5b9050346102f757816003193601126102f7576020906025549051908152f35b5080fd5b9050346102f757816003193601126102f757602090600c549051908152f35b9050346102f757816003193601126102f75760065490516001600160a01b039091168152602090f35b9050346102f757816003193601126102f757602090601b549051908152f35b9050346102f757816003193601126102f75760095490516001600160a01b039091168152602090f35b9050346102f757806003193601126102f757806020926103a9611c90565b6103b1611cab565b6001600160a01b0391821683526002865283832091168252845220549051908152f35b9050346102f757816003193601126102f757600b5490516001600160a01b039091168152602090f35b8390346102f75761040d36611ce6565b9280979497969596929192421161053b57889386936104e6938c888b6104de968e8460018060a01b03809c169c8d9586825260205220908154916104508361296e565b90558b86519460208601967f6e71edae12b1b97f4d1f60370fef10105fa2faae0126114a169c64845d6126c9885288870152166060850152608084015260a083015260c082015260c081526104a481611dfd565b5190206104af612637565b915190602082019261190160f01b845260228301526042820152604281526104d681611de2565b5190206128e9565b9190916127ea565b16036104f857506102d29394506129d4565b606490602087519162461bcd60e51b8352820152601e60248201527f45524332305065726d69743a20696e76616c6964207369676e617475726500006044820152fd5b895162461bcd60e51b8152602081870152601d60248201527f45524332305065726d69743a206578706972656420646561646c696e650000006044820152606490fd5b8382346102f757816003193601126102f75760085490516001600160a01b039091168152602090f35b9150346107e75760803660031901126107e7576001600160401b039082358281116107e3576105d99036908501611e68565b909260249384358281116107df576105f49036908801611e68565b6044358481116107db5761060b9036908a01611e68565b90610614611cc1565b928a8c52600760205260ff898d2054166107a857871561076b57610639818914613031565b610644838914613031565b61064c612233565b959050610657612d30565b8c988d5b8181106106a7578e8e8e8e8e15610670578380f35b606492916020601292519362461bcd60e51b85528401528201527110908e881b9bc81d5cd95c9cc8199bdd5b9960721b6044820152fd5b6106b281838b61351a565b356001600160a01b0381168103610767576106cd8982613540565b156106e2575b506106dd9061296e565b61065b565b909a6106ed9061296e565b9a6106f981868661351a565b359187821015610752578160051b870135601e198836030181121561074c5787018035908d8211610745576020018136038113610745578b8b6106dd9661073f95613644565b906106d3565b5050508f80fd5b50508f80fd5b5050634e487b7160e01b8f525060328d528b8efd5b8f80fd5b885162461bcd60e51b81526020818d01526018818c01527742423a206e6f7468696e6720746f206c697175696461746560401b6044820152606490fd5b885162461bcd60e51b81526020818d0152600e818c01526d13585c9ad95d0e881c185d5cd95960921b6044820152606490fd5b8980fd5b8780fd5b8480fd5b8280fd5b8382346102f757816003193601126102f757602090610808612a3f565b9051908152f35b8382346102f757816003193601126102f7576020906026549051908152f35b8382346102f757816003193601126102f757602090601c549051908152f35b8382346102f757816003193601126102f75760209060ff6023541690519015158152f35b5082346102d557806003193601126102d5575060225481516001600160401b03808316825291831c9091166020820152f35b8382346102f757816003193601126102f7576020906018549051908152f35b8382346102f757806003193601126102f7576020916108df611c90565b8260243592831580159061098b575b61091e575b50519182526001600160a01b0316903390600080516020613f53833981519152908590a35160018152f35b338152600186528181205461093585821015612760565b6001600160a01b038416908533839003610952575b5050506108f3565b610966916109618415156127a5565b611f7a565b338352600188528383205581522061097f838254611f87565b9055828580808561094a565b50336001600160a01b038416146108ee565b8390346102f75760803660031901126102f7576109b8611c90565b906109c1611cab565b6001600160a01b0392604435848116939190849003610cca576064356001600160401b038111610cc6576109f89036908401611e3b565b919092610a0a87600554163314611e98565b610a12612233565b5050610a216011541515612e38565b610a29612d30565b86600a5416918951809363433e762d60e01b8252818460209687935afa908115610cbc57610a65898b9493610a6a938e91610c8f575b50612f44565b612e9e565b16968789526015835282610a928b8b2054620186a0610a8b601e5483611f23565b0490611f87565b9160095416916064610ab6610aad600c549360115490611f23565b601f5490611f5a565b918d519485938492638eb22cdd60e01b84528884015260248301528d60448301525afa908115610c85578991610c54575b50878952601683528989205411610c145750908680986016610bbd959489610bc39b528181528284205499610b8f610b1d612c17565b82875260158452610b8a610b7f878920549289878a51610b3c81611d9e565b82815201528681019360018060801b03928382818094868a8381511615600014610bc757505081610b72915b1682885116612f2b565b1685521682875116612f2b565b168094525116612ce9565b612d0b565b808552601582528484812055828252610bad84862054601354611f7a565b6013558452528120553691612ee5565b926130a4565b5080f35b610b7292610c00610bf686610bed610be3828098511686611f23565b8287511690611f5a565b94511684611f23565b848c511690611f5a565b1015610b6857610c0f9061296e565b610b68565b816064928a519262461bcd60e51b845283015260248201527f42696742616e673a2043616e6e6f7420666f726365206c6971756964617465646044820152fd5b90508281813d8311610c7e575b610c6b8183611e18565b81010312610c7a57518a610ae7565b8880fd5b503d610c61565b8a513d8b823e3d90fd5b610caf9150883d8a11610cb5575b610ca78183611e18565b810190612e84565b8f610a5f565b503d610c9d565b8b513d8c823e3d90fd5b8680fd5b8580fd5b8382346102f757806003193601126102f757606090610cf7610cee611c90565b602435906120d4565b91929081519384526020840152820152f35b8382346102f757806003193601126102f757602090610808610d29611c90565b602435906124d4565b8382346102f7576101603660031901126102f7576024356001600160a01b0381811691829003611102576001600160401b03604435818111610cca57610d7b9036908801611e3b565b90610d84611cc1565b9260843595610d9886600554163314611e98565b8935806110cb575b508061108d575b5082610f18575b505050819293949550169081610ed8575b505080610ec0575b5060a43580610ea8575b5060c43580610e91575b5060e43580610e6d575b506101043580610e49575b50610124359081610e20575b50506101443580610e0b575080f35b610e1a620186a0821115611ee3565b601c5580f35b600080516020613ef3833981519152906014548151908152836020820152a16014558180610dfc565b610e57620186a08210611ee3565b610e646019548211611ee3565b601a5582610df0565b610e7b620186a08210611ee3565b610e88601a548210611ee3565b60195582610de5565b610e9f620186a08210611ee3565b601b5582610ddb565b610eb7620186a0821115611ee3565b60185582610dd1565b610ecf620186a0821115611ee3565b60175582610dc7565b816008549182167f5a62d22209e370e38eea92cfddcd228e656e6ec139243392a760a7769f5877fd8780a36001600160a01b031916176008558380610dbf565b821161107a57839495969750610f2f601054611d64565b601f811161101a575b508790601f8311600114610f9f5788919083610f94575b50508160011b916000199060031b1c1916176010555b7fa6f004921c944d4b8bf6e38462b00f36a58d62495d56b51f571ab78f732c98158680a1859493928780610dae565b013590508880610f4f565b60108952601f19831694939291600080516020613f7383398151915291908a60205b888210610ffe57505083600195969710610fe4575b505050811b01601055610f65565b0135600019600384901b60f8161c19169055888080610fd6565b8383013585558997506001909401939182019190810190610fc1565b601089529293509091600080516020613f73833981519152601f840160051c81019160208510611070575b90601f8796959493920160051c01905b8181106110625750610f38565b898155869550600101611055565b9091508190611045565b634e487b7160e01b875260418852602487fd5b600f80546001600160a01b0319169190911790557f0b2d6eb667d0522c3eb86e4288afecae6c11591ffd1345d4d12407e0598bca9b8880a189610da7565b6110da620186a0821115611ee3565b600080516020613f1383398151915289601d548151908152836020820152a1601d558a610da0565b8380fd5b8382346102f757816003193601126102f757602090601d549051908152f35b8382346102f757816003193601126102f75760055490516001600160a01b039091168152602090f35b8382346102f757816003193601126102f7576020906019549051908152f35b8382346102f75760203660031901126102f75760209181906001600160a01b03611195611c90565b1681526021845220549051908152f35b5082346102d557806003193601126102d5575060125481516001600160801b038216815260809190911c6020820152f35b8382346102f757806003193601126102f7576020906112006111f6611c90565b602435903361297d565b5160018152f35b909150346107e75760203660031901126107e75760209282916001600160a01b03611230611c90565b168252845220549051908152f35b8382346102f757816003193601126102f757600f5490516001600160a01b039091168152602090f35b8382346102f757816003193601126102f7578051601054818461128983611d64565b80835260019380851690811561134557506001146112fa575b506112b292509492940384611e18565b815192839160208084528251928382860152825b8481106112e457505050828201840152601f01601f19168101030190f35b81810183015188820188015287955082016112c6565b60108752600080516020613f7383398151915293602092508791905b81831061132d5750506112b29350820101866112a2565b85548784018501529485019486945091830191611316565b90506112b294506020925060ff191682840152151560051b820101866112a2565b909150346107e75760203660031901126107e757359160098310156102d5575060ff611393602093611d35565b541690519015158152f35b909150346107e75760203660031901126107e757600080516020613ef38339815191529035916113d960018060a01b03600554163314611e98565b6014548151908152836020820152a160145580f35b8382346102f75760203660031901126102f75760209181906001600160a01b03611416611c90565b1681526001845220549051908152f35b8382346102f757816003193601126102f757600a5490516001600160a01b039091168152602090f35b8382346102f757816003193601126102f7576020906024549051908152f35b8382346102f757816003193601126102f757602090601a549051908152f35b8382346102f757816003193601126102f757602090601e549051908152f35b909150346107e75760203660031901126107e757600080516020613f138339815191529035916114e760018060a01b03600554163314611e98565b6114f6620186a0841115611ee3565b601d548151908152836020820152a1601d5580f35b9150346107e757826003193601126107e7576006546001600160a01b0392909183831691903383900361156a57505080600554938416600080516020613f338339815191528680a36001600160a01b0319928316176005551660065580f35b906020606492519162461bcd60e51b8352820152602060248201527f4f776e61626c653a2063616c6c657220213d2070656e64696e67206f776e65726044820152fd5b8382346102f75760203660031901126102f75760209181906001600160a01b036115d5611c90565b1681526015845220549051908152f35b8382346102f757816003193601126102f7576020906013549051908152f35b8382346102f757816003193601126102f757602090600e549051908152f35b8382346102f757816003193601126102f7576020906014549051908152f35b9083346102d55760603660031901126102d55750610808602092604435906024359035612026565b8382346102f757816003193601126102f7576020906011549051908152f35b8382346102f757816003193601126102f757600d5490516001600160a01b039091168152602090f35b8382346102f757816003193601126102f757602090610808612637565b8382346102f757816003193601126102f7576020906017549051908152f35b8382346102f757816003193601126102f75760125490516001600160801b039091168152602090f35b9083346102d55760603660031901126102d557611732611c90565b9061173b611cab565b6044359182611777575b508351918252602094506001600160a01b03908116921690600080516020613f53833981519152908590a35160018152f35b6001600160a01b0384811680835260016020908152878420549198929091906117a287831015612760565b851692838a036117b6575b50505050611745565b898552600283528885203386528352888520549060018201611820575b5050928260209960018a946117ff8a8e99610961600080516020613f538339815191529c9a15156127a5565b9285525283832055815220611815858254611f87565b9055918780806117ad565b87821061187657509260209960018a946117ff8a8e999661185182600080516020613f538339815191529d9b611f7a565b86895260028552898920338a52855289892055969950505094505099819496506117d3565b895162461bcd60e51b8152908101849052601860248201527745524332303a20616c6c6f77616e636520746f6f206c6f7760401b6044820152606490fd5b8382346102f757816003193601126102f7576020906027549051908152f35b8390346102f7576118e336611ce6565b9280979497969596929192421161053b578893869361197a938c888b6104de968e8460018060a01b03809c169c8d9586825260205220908154916119268361296e565b90558b86519460208601967fe9685ff6d48c617fe4f692c50e602cce27cbad0290beb93cfa77eac43968d58c885288870152166060850152608084015260a083015260c082015260c081526104a481611dfd565b16036104f857506102d293945061297d565b8382346102f75760203660031901126102f75760209181906001600160a01b036119b4611c90565b1681526016845220549051908152f35b8382346102f757816003193601126102f75751908152602090f35b9150346107e757806003193601126107e757813590600982101561110257611a05611cd7565b6008549093906001600160a01b03163303611ac85760ff611a2584611d35565b54161515931515938414611a915750907feeec81de25875ce1725479bb76f720a8defdb43dea041919ae37bb4aae9847c06060611a81938560ff611a6886611d35565b54169180519286845215156020840152820152a1611d35565b9060ff8019835416911617905580f35b6020606492519162461bcd60e51b835282015260126024820152714d61726b65743a2073616d6520737461746560701b6044820152fd5b6020606492519162461bcd60e51b8352820152601460248201527313585c9ad95d0e881d5b985d5d1a1bdc9a5e995960621b6044820152fd5b8382346102f757806003193601126102f757602090611200611b21611c90565b60243590336129d4565b9150346107e75760603660031901126107e757611b46611c90565b91611b4f611cd7565b91604435928315158403610cca5760018060a01b03948591611b7683600554163314611e98565b15611c08571692831590811591611c00575b5015611bc557505080600554928316600080516020613f338339815191528580a36001600160a01b03199182161760055560068054909116905580f35b906020606492519162461bcd60e51b835282015260156024820152744f776e61626c653a207a65726f206164647265737360581b6044820152fd5b905038611b88565b93505050501660018060a01b0319600654161760065580f35b5082346102d557806003193601126102d55750611c3c612233565b825191151582526020820152f35b925050346107e757806003193601126107e757602092611c68611c90565b611c70611cab565b6001600160a01b0391821683526003865283832091168252845220548152f35b600435906001600160a01b0382168203611ca657565b600080fd5b602435906001600160a01b0382168203611ca657565b606435906001600160a01b0382168203611ca657565b602435908115158203611ca657565b60e0906003190112611ca6576001600160a01b03906004358281168103611ca657916024359081168103611ca65790604435906064359060843560ff81168103611ca6579060a4359060c43590565b6009811015611d4e576000526007602052604060002090565b634e487b7160e01b600052602160045260246000fd5b90600182811c92168015611d94575b6020831014611d7e57565b634e487b7160e01b600052602260045260246000fd5b91607f1691611d73565b604081019081106001600160401b03821117611db957604052565b634e487b7160e01b600052604160045260246000fd5b6001600160401b038111611db957604052565b608081019081106001600160401b03821117611db957604052565b60e081019081106001600160401b03821117611db957604052565b601f909101601f19168101906001600160401b03821190821017611db957604052565b9181601f84011215611ca6578235916001600160401b038311611ca65760208381860195010111611ca657565b9181601f84011215611ca6578235916001600160401b038311611ca6576020808501948460051b010111611ca657565b15611e9f57565b606460405162461bcd60e51b815260206004820152602060248201527f4f776e61626c653a2063616c6c6572206973206e6f7420746865206f776e65726044820152fd5b15611eea57565b60405162461bcd60e51b815260206004820152601160248201527013585c9ad95d0e881b9bdd081d985b1a59607a1b6044820152606490fd5b81810292918115918404141715611f3657565b634e487b7160e01b600052601160045260246000fd5b604d8111611f3657600a0a90565b8115611f64570490565b634e487b7160e01b600052601260045260246000fd5b91908203918211611f3657565b91908201809211611f3657565b90601c54918291611faa620186a0938492611f23565b0480821061201d57611fbb91611f7a565b91601e54820190818311611f36578291611fd491611f23565b049081810391818311611f36576509184e72a0008084029384041491141715611f3657670de0b6b3a764000091828102928184041490151715611f365761201a91611f5a565b90565b50505050600090565b919091612048612039601c548095611f23565b61204284611f4c565b90611f5a565b9081811061201d576120989161205d91611f7a565b9261209261208961206d85611f4c565b9261208361207a87611f4c565b601e5490611f87565b90611f23565b61204285611f4c565b90611f7a565b906012039060128211611f36576120836120b192611f4c565b670de0b6b3a764000091828102928184041490151715611f365761201a91611f5a565b6001600160a01b0390811660008181526015602090815260408220549295949391929091811561221957612106612c56565b906121128615156123d1565b6009541683600c54898752601682526064604088205491604051948593849263442c159960e01b8452600484015260248301528960448301525afa90811561220e5785916121df575b50928594926121b76016936121926121d39961218d61218460409a620186a0601f540490611f23565b601c5490611f23565b611f5a565b815190936001600160801b039186916121ad91841690611f23565b9201511690611f5a565b908082106121d7576121c891611f7a565b97835252205461241d565b9091565b5050826121c8565b90508381813d8311612207575b6121f68183611e18565b810103126107e357516121d361215b565b503d6121ec565b6040513d87823e3d90fd5b5050509192505080918190565b51908115158203611ca657565b60018060a01b03600f54169060409081519263d6d7d52560e01b84528284602092836004830152600060105461226881611d64565b908160248601526001908582821691826000146123ad575050600114612369575b5050600083809203925af1801561235e576000948591612323575b5092841561231a5783156122e057907f9f9192b5edb17356c524e08d9e025c8e2f6307e6ea52fb7968faa3081f51c3c8918460115551848152a1565b60649250519062461bcd60e51b8252600482015260146024820152734d61726b65743a20696e76616c6964207261746560601b6044820152fd5b50506011549150565b9490508385813d8311612357575b61233b8183611e18565b810103126102d557508061234e85612226565b940151386122a4565b503d612331565b83513d6000823e3d90fd5b915060106000528560002091866000935b83851061239257505050508201604401600083612289565b80548c8601604401528a97508b96509301928790820161237a565b8195506000949193506044925060ff191682840152151560051b8201019250612289565b156123d857565b60405162461bcd60e51b815260206004820152601e60248201527f4d61726b65743a2065786368616e676552617465206e6f742076616c696400006044820152606490fd5b6124288215156123d1565b602060018060a01b0360095416916064600c54604051948593849263442c159960e01b845260048401526024830152600060448301525afa9081156124c857600091612495575b509061218d61248192601f5490611f23565b620186a0612491601c5483611f23565b0491565b906020823d82116124c0575b816124ae60209383611e18565b810103126102d557505161218d61246f565b3d91506124a1565b6040513d6000823e3d90fd5b6001600160a01b031660008181526016602052604081205490926124f79161241d565b9183526015602052604083205480156126315781156126315781811061263157828110156126275760125461254a91839161096191612540906001600160801b03831690611f23565b9060801c90611f5a565b90620186a092838302928084048514901517156125ff5761256f929161204291611f7a565b9160195491601a549384840390838612858312811690868413901516176126135781810291848112600160ff1b8314166125ff5782051485851417156125eb57058184820194851291129080158216911516176125d757508082126125d2575090565b905090565b634e487b7160e01b81526011600452602490fd5b634e487b7160e01b83526011600452602483fd5b634e487b7160e01b85526011600452602485fd5b634e487b7160e01b84526011600452602484fd5b5050505060195490565b50505090565b307f00000000000000000000000000000000000000000000000000000000000000006001600160a01b03161480612737575b15612692577f000000000000000000000000000000000000000000000000000000000000000090565b60405160208101907f000000000000000000000000000000000000000000000000000000000000000082527f000000000000000000000000000000000000000000000000000000000000000060408201527f000000000000000000000000000000000000000000000000000000000000000060608201524660808201523060a082015260a0815260c0810181811060018060401b03821117611db95760405251902090565b507f00000000000000000000000000000000000000000000000000000000000000004614612669565b1561276757565b60405162461bcd60e51b815260206004820152601660248201527545524332303a2062616c616e636520746f6f206c6f7760501b6044820152606490fd5b156127ac57565b60405162461bcd60e51b815260206004820152601660248201527545524332303a206e6f207a65726f206164647265737360501b6044820152606490fd5b6005811015611d4e57806127fb5750565b600181036128435760405162461bcd60e51b815260206004820152601860248201527745434453413a20696e76616c6964207369676e617475726560401b6044820152606490fd5b600281036128905760405162461bcd60e51b815260206004820152601f60248201527f45434453413a20696e76616c6964207369676e6174757265206c656e677468006044820152606490fd5b60031461289957565b60405162461bcd60e51b815260206004820152602260248201527f45434453413a20696e76616c6964207369676e6174757265202773272076616c604482015261756560f01b6064820152608490fd5b9291906fa2a8918ca85bafe22016d0b997e4df60600160ff1b0383116129625791608094939160ff602094604051948552168484015260408301526060820152600093849182805260015afa156129555781516001600160a01b0381161561294f579190565b50600190565b50604051903d90823e3d90fd5b50505050600090600390565b6000198114611f365760010190565b909160207fe50de2333c10a9502fcb1d8ae13a51bbf423153dfc63c2b8997665b32154afc39160018060a01b03809416938460005260038352604060002095169485600052825280604060002055604051908152a3565b909160207f8c5be1e5ebec7d5bd14f71427d1e84f3dd0314c0f7b2291e5b200ac8c7c3b9259160018060a01b03809416938460005260028352604060002095169485600052825280604060002055604051908152a3565b51906001600160a01b0382168203611ca657565b60ff60235416612bb1576012546001600160801b0316908115612baa57600a54604051631848f2bf60e31b8152602093916001600160a01b03919085908290600490829086165afa80156124c8578591600091612b75575b50600460405180948193631a674cc560e11b8352165afa9384156124c857600094612b46575b5050612ad99192670de0b6b3a764000092839160265490611f23565b049081811015612b3d57612af06027548092611f7a565b83810290808204851490151715611f3657612042612b1192612b3194611f7a565b60245492612b2b60255492612b268487611f7a565b611f23565b04611f87565b908082116125d2575090565b50505060245490565b81813d8311612b6e575b612b5a8183611e18565b8101031261110257519250612ad938612abd565b503d612b50565b9182813d8311612ba3575b612b8a8183611e18565b810103126102d55750612b9d8591612a2b565b38612a97565b503d612b80565b6025549150565b600a5460405163e6abad4960e01b815290602090829060049082906001600160a01b03165afa9081156124c857600091612be9575090565b906020823d8211612c0f575b81612c0260209383611e18565b810103126102d557505190565b3d9150612bf5565b60405190612c2482611d9e565b6012546001600160801b038116835260801c6020830152565b6001600160801b039182169082160191908211611f3657565b60006020604051612c6681611d9e565b82815201526022546001600160401b039190612c879060401c831642611f7a565b918215612cde57612cd9612b2691670de0b6b3a7640000612cce612ca9612c17565b9660018060801b03958694858a5116906301e13380612cc6612a3f565b041690611f23565b041682855116612c3d565b168252565b50905061201a612c17565b601280546001600160801b0319166001600160801b0392909216919091179055565b601280546001600160801b031660809290921b6001600160801b031916919091179055565b604051612d3c81611d9e565b6022549060018060401b038281809416835260401c16612d63602083019180835242611f7a565b908115612e3257836040937f7484db546dcd57af0104c73c8a6968dfbaf5767f047cee0dadd0499ad7df81a0956301e13380612d9d612a3f565b041681528142168352612dff612db1612c17565b946020670de0b6b3a7640000612dd960018060801b0393612b26858b51168989511690611f23565b0496612df783612dee818b1682855116612c3d565b16808352612ce9565b015116612d0b565b51169081602254916001861b600160801b039051861b169160018060801b031916171760225582519182526020820152a1565b50505050565b15612e3f57565b60405162461bcd60e51b815260206004820152601f60248201527f42696742616e673a2065786368616e676552617465206e6f742076616c6964006044820152606490fd5b90816020910312611ca6575161ffff81168103611ca65790565b15612ea557565b60405162461bcd60e51b81526020600482015260186024820152772134b3a130b7339d1024b73b30b634b21039bbb0b83832b960411b6044820152606490fd5b9192916001600160401b038211611db95760405191612f0e601f8201601f191660200184611e18565b829481845281830111611ca6578281602093846000960137010152565b6001600160801b039182169082160391908211611f3657565b600a5460405163dbd01de160e01b815260209290916001600160a01b039084908490600490829085165afa80156124c8578493600091612ff3575b50918161ffff936044936040519889968795633a304d8b60e21b8752166004860152166024840152165afa9081156124c857600091612fbf575b50905090565b82813d8311612fec575b612fd38183611e18565b810103126102d55750612fe590612226565b8038612fb9565b503d612fc9565b9091929381813d831161302a575b61300b8183611e18565b810103126102f757519082821682036102d55750839291906044612f7f565b503d613001565b1561303857565b60405162461bcd60e51b8152602060048201526013602482015272084847440d8cadccee8d040dad2e6dac2e8c6d606b1b6044820152606490fd5b6001600160a01b039091168152602081019190915260400190565b9190826040910312611ca6576020825192015190565b600954600c5495946001600160a01b039182169390929160009190853b156107e7576040988951630208d92960e11b81528481608481838760049e8f3090850152169c8d9760249e8f85015260448401528b60648401525af1801561335257613507575b506020958681805181010312611ca65786015180156134cd5790829189949360095416968c89600e549151809a818061314e868c627eeac760e11b9e8f85528401613073565b03915afa98891561349057908e94939291899a61349a575b50600c54945194633d9545e960e11b86528d8601528b850152876044850152606484015260016084840152600160a4840152610140808460c481865afa93841561349057888f939487958f938f958f91859a61335c575b50508680989960606101c49899519b8c9a8b9963efa84c6d60e01b8b52845192835116908b015285820151908a01528d848201511660448a015201516064880152606083820151805160848a01528481015160a48a01528381015160c48a0152015160e4880152015180511515610104870152015115156101248501526101448401528789166101648401526101a0610184840152816101a48401525af18015613352579187939161328e97969593613326575b506009541690600e54928c519788948593849384528d8401613073565b03915afa90811561331b57906132ec575b6132a99250611f7a565b9485156132b65750505050565b5162461bcd60e51b81529283015260149082015273109a59d0985b99ce8814ddd85c0819985a5b195960621b6044820152606490fd5b508282813d8311613314575b6133028183611e18565b81010312611ca6576132a9915161329f565b503d6132f8565b8851903d90823e3d90fd5b613345908d803d1061334b575b61333d8183611e18565b81019061308e565b50613271565b503d613333565b8b513d87823e3d90fd5b965096505095509550505080823d8411613489575b61337b8183611e18565b8101039182126107df578d5191606083016001600160401b03811184821017613475578f819052608082126107db578f6133d3906133b883611de2565b6133c185612a2b565b83528d85015160808701528401612a2b565b60a0850152606083015160c085015283526080607f19820112610c7a578e9081516133fd81611de2565b6080840151815260a08401518d82015260c08401518382015260e08401516060820152848d015260ff1901126107df578b888f949587968d8f9688906101c49761346461012084519261344f84611d9e565b61345c6101008201612226565b845201612226565b8482015282820152999897966131bd565b8c60418f634e487b7160e01b600052526000fd5b503d613371565b8e513d8a823e3d90fd5b8b80929b508196503d83116134c6575b6134b48183611e18565b81010312611ca6578d93519838613166565b503d6134aa565b8a5162461bcd60e51b8152808a018890526015818a015274084847440e6d8d2e0e0c2ceca40e8dede40d0d2ced605b1b6044820152606490fd5b61351390949194611dcf565b9238613108565b919081101561352a5760051b0190565b634e487b7160e01b600052603260045260246000fd5b919060018060a01b0380600094168452602060158152604085205490811561363a576016815260408620548015613633578161357a612c17565b9460095416916064600c54604051948593849263442c159960e01b8452600484015260248301528b60448301525afa9687156136275780976135f1575b50506121ad6135d66121846135ec969798620186a0601f540490611f23565b95612b2660018060801b03948587511690611f23565b111590565b9096508187813d8311613620575b6136098183611e18565b810103126102d557509451946121ad6135d66135b7565b503d6135ff565b604051903d90823e3d90fd5b5050505050565b5060019450505050565b939594929091926136558286613540565b613eba57600a5460405163433e762d60e01b815260009891602090829060049082906001600160a01b03165afa908115613cb1576136a991610a65918b91613e9b575b506001600160a01b03881690612f44565b6136b383876124d4565b946136bf841515612e38565b600954600c546001600160a01b038981168c52601660209081526040808e2054905163442c159960e01b815260048101949094526024840152604483018d9052919283916064918391165afa908115613d205785908b92613e65575b5061218d61372c92601f5490611f23565b6001600160a01b0388168a52601560205260408a205461374d908290611f94565b601b5480613e4d575b5080911115613e1457899581811115613e0d57505b6001600160a01b038816865260156020526040862054808211613e05575b8161379391611f7a565b6001600160a01b0389168752601560205260408720556137b1612c17565b6020810180519091906001600160801b0316613dd3575050602081955b60646137ea620186a06137e3601e548b611f23565b0489611f87565b613805610aad60018060a01b036009541694600c5493611f23565b926040519a8b948593638eb22cdd60e01b85526004850152602484015260448301525afa958615613d20578a96613d9f575b506001600160a01b0388168a52601660205260408a20548611613d5e576001600160a01b0388168a52601660205260408a208054613876908890611f7a565b90558415613d2b57601254906138bd6001600160801b0361389b888216828616612f2b565b16926001600160801b0319926001600160801b0316908316841760801c612f2b565b60801b161760125560018060a01b0360095416916020600e54606460405180968193638eb22cdd60e01b83526004830152896024830152600160448301525afa928315613d20578a93613cea575b5061391c9061392d93943691612ee5565b906001600160a01b031630866130a4565b9061396260408360018060a01b0360095416600e548c84518096819582946311a5cc7760e31b84523090309060048601613ec3565b03925af18015613cb157613ccc575b5080821115613cbc5761398b6139a191620186a093611f7a565b945b8261399a60185488611f23565b0495611f23565b049283613b50575b600d5460095460405163095ea7b360e01b81526001600160a01b039182166004820152602481018a905291602091839160449183918d91165af18015613b0c57613b17575b50600d546001600160a01b0316803b156107df57876040518092632770a7eb60e21b8252818381613a23893060048401613073565b03925af18015613b0c57613af9575b5060405193613a4085611d9e565b6001855260208501956020368837855115613ae5576001600160a01b0316865260405160a0808252955195810186905260c081019690955b808a10613ac25750507f85b91d472e69b2cfe848ed50eb5d8582ae96c22057b6e46250255dd6f6c351929596975060208501526040840152606083015260808201528033930390a2565b81516001600160a01b031688526001999099019860209788019790910190613a78565b634e487b7160e01b89526032600452602489fd5b613b0590979197611dcf565b9538613a32565b6040513d8a823e3d90fd5b6020813d602011613b48575b81613b3060209383611e18565b810103126107df57613b4190612226565b50386139ee565b3d9150613b23565b600d5460095460405163095ea7b360e01b8082526001600160a01b039283166004830152602482018b9052929091602091839160449183918e91165af18015613cb157613c78575b50600d546009546040519283526001600160a01b0390811660048401526000196024840152602091839160449183918d91165af18015613b0c57613c3f575b50613c0c60408560018060a01b0360095416600e548b8451809681958294634d4d7cbd60e11b84523390309060048601613ec3565b03925af18015613b0c57613c21575b506139a9565b613c399060403d60401161334b5761333d8183611e18565b50613c1b565b6020813d602011613c70575b81613c5860209383611e18565b810103126107df57613c6990612226565b5038613bd7565b3d9150613c4b565b6020813d602011613ca9575b81613c9160209383611e18565b81010312610c7a57613ca290612226565b5038613b98565b3d9150613c84565b6040513d8b823e3d90fd5b5050620186a06139a1879461398d565b613ce49060403d60401161334b5761333d8183611e18565b50613971565b9092506020813d602011613d18575b81613d0660209383611e18565b810103126107db57519161391c61390b565b3d9150613cf9565b6040513d8c823e3d90fd5b60405162461bcd60e51b815260206004820152600b60248201526a10908e881cdbdb1d995b9d60aa1b6044820152606490fd5b60405162461bcd60e51b815260206004820152601960248201527810908e881b9bdd08195b9bdd59da0818dbdb1b185d195c985b603a1b6044820152606490fd5b9095506020813d602011613dcb575b81613dbb60209383611e18565b810103126107db57519438613837565b3d9150613dae565b51602091613dff91613dee906001600160801b031685611f23565b90516001600160801b031690611f5a565b956137ce565b905080613789565b905061376b565b60405162461bcd60e51b8152602060048201526011602482015270109a59d0985b99ce88189859081919589d607a1b6044820152606490fd5b90620186a0610a8b613e5f9383611f23565b38613756565b9150506020813d602011613e93575b81613e8160209383611e18565b810103126107db57518461218d61371b565b3d9150613e74565b613eb4915060203d602011610cb557610ca78183611e18565b38613698565b50505050509050565b9081526001600160a01b0391821660208201529116604082015260006060820152608081019190915260a0019056feae6e0ab3b95f0a53ff9660a390ccedcbbf1f2355dce974a9841af106fddcfabac353b09af857951dccce61b43a5854fc45beceed36c50e5d4cc2e71858a8e0df8be0079c531659141344cd1fd0a4f28419497f9722a3daafe3b4186f6b6457e0ddf252ad1be2c89b69c2b068fc378daa952ba7f163c4a11628f55a4df523b3ef1b6847dc741a1b0cd08d278845f9d819d87b734759afb55fe2de5cb82a9ae672a2646970667358221220d7c41bf952331b5a0be7fcc013dbef1935080641403a51244c447a6c976c8eb764736f6c63430008120033",
  "linkReferences": {},
  "deployedLinkReferences": {}
}