{
  "_format": "hh-sol-artifact-1",
  "contractName": "BBStorage",
  "sourceName": "contracts/markets/bigBang/BBStorage.sol",
  "abi": [
    {
      "inputs": [],
      "stateMutability": "nonpayable",
      "type": "constructor"
    },
    {
      "anonymous": false,
      "inputs": [
        {
          "indexed": true,
          "internalType": "address",
          "name": "owner",
          "type": "address"
        },
        {
          "indexed": true,
          "internalType": "address",
          "name": "spender",
          "type": "address"
        },
        {
          "indexed": false,
          "internalType": "uint256",
          "name": "value",
          "type": "uint256"
        }
      ],
      "name": "Approval",
      "type": "event"
    },
    {
      "anonymous": false,
      "inputs": [
        {
          "indexed": true,
          "internalType": "address",
          "name": "owner",
          "type": "address"
        },
        {
          "indexed": true,
          "internalType": "address",
          "name": "spender",
          "type": "address"
        },
        {
          "indexed": false,
          "internalType": "uint256",
          "name": "value",
          "type": "uint256"
        }
      ],
      "name": "ApprovalBorrow",
      "type": "event"
    },
    {
      "anonymous": false,
      "inputs": [
        {
          "indexed": true,
          "internalType": "address",
          "name": "old",
          "type": "address"
        },
        {
          "indexed": true,
          "internalType": "address",
          "name": "_new",
          "type": "address"
        }
      ],
      "name": "ConservatorUpdated",
      "type": "event"
    },
    {
      "anonymous": false,
      "inputs": [
        {
          "indexed": false,
          "internalType": "uint256",
          "name": "oldVal",
          "type": "uint256"
        },
        {
          "indexed": false,
          "internalType": "uint256",
          "name": "newVal",
          "type": "uint256"
        }
      ],
      "name": "DebtRateAgainstEthUpdated",
      "type": "event"
    },
    {
      "anonymous": false,
      "inputs": [
        {
          "indexed": true,
          "internalType": "address",
          "name": "liquidator",
          "type": "address"
        },
        {
          "indexed": false,
          "internalType": "address[]",
          "name": "users",
          "type": "address[]"
        },
        {
          "indexed": false,
          "internalType": "uint256",
          "name": "liquidatorReward",
          "type": "uint256"
        },
        {
          "indexed": false,
          "internalType": "uint256",
          "name": "protocolReward",
          "type": "uint256"
        },
        {
          "indexed": false,
          "internalType": "uint256",
          "name": "repayedAmount",
          "type": "uint256"
        },
        {
          "indexed": false,
          "internalType": "uint256",
          "name": "collateralShareRemoved",
          "type": "uint256"
        }
      ],
      "name": "Liquidated",
      "type": "event"
    },
    {
      "anonymous": false,
      "inputs": [
        {
          "indexed": false,
          "internalType": "uint256",
          "name": "oldVal",
          "type": "uint256"
        },
        {
          "indexed": false,
          "internalType": "uint256",
          "name": "newVal",
          "type": "uint256"
        }
      ],
      "name": "LiquidationMultiplierUpdated",
      "type": "event"
    },
    {
      "anonymous": false,
      "inputs": [
        {
          "indexed": false,
          "internalType": "uint256",
          "name": "accruedAmount",
          "type": "uint256"
        },
        {
          "indexed": false,
          "internalType": "uint64",
          "name": "rate",
          "type": "uint64"
        }
      ],
      "name": "LogAccrue",
      "type": "event"
    },
    {
      "anonymous": false,
      "inputs": [
        {
          "indexed": true,
          "internalType": "address",
          "name": "from",
          "type": "address"
        },
        {
          "indexed": true,
          "internalType": "address",
          "name": "to",
          "type": "address"
        },
        {
          "indexed": false,
          "internalType": "uint256",
          "name": "share",
          "type": "uint256"
        }
      ],
      "name": "LogAddCollateral",
      "type": "event"
    },
    {
      "anonymous": false,
      "inputs": [
        {
          "indexed": true,
          "internalType": "address",
          "name": "from",
          "type": "address"
        },
        {
          "indexed": true,
          "internalType": "address",
          "name": "to",
          "type": "address"
        },
        {
          "indexed": false,
          "internalType": "uint256",
          "name": "amount",
          "type": "uint256"
        },
        {
          "indexed": false,
          "internalType": "uint256",
          "name": "feeAmount",
          "type": "uint256"
        },
        {
          "indexed": false,
          "internalType": "uint256",
          "name": "part",
          "type": "uint256"
        }
      ],
      "name": "LogBorrow",
      "type": "event"
    },
    {
      "anonymous": false,
      "inputs": [
        {
          "indexed": false,
          "internalType": "uint256",
          "name": "_oldVal",
          "type": "uint256"
        },
        {
          "indexed": false,
          "internalType": "uint256",
          "name": "_newVal",
          "type": "uint256"
        }
      ],
      "name": "LogBorrowCapUpdated",
      "type": "event"
    },
    {
      "anonymous": false,
      "inputs": [
        {
          "indexed": false,
          "internalType": "uint256",
          "name": "_oldVal",
          "type": "uint256"
        },
        {
          "indexed": false,
          "internalType": "uint256",
          "name": "_newVal",
          "type": "uint256"
        }
      ],
      "name": "LogBorrowingFee",
      "type": "event"
    },
    {
      "anonymous": false,
      "inputs": [
        {
          "indexed": false,
          "internalType": "uint256",
          "name": "rate",
          "type": "uint256"
        }
      ],
      "name": "LogExchangeRate",
      "type": "event"
    },
    {
      "anonymous": false,
      "inputs": [
        {
          "indexed": true,
          "internalType": "address",
          "name": "from",
          "type": "address"
        },
        {
          "indexed": true,
          "internalType": "address",
          "name": "to",
          "type": "address"
        },
        {
          "indexed": false,
          "internalType": "uint256",
          "name": "share",
          "type": "uint256"
        }
      ],
      "name": "LogRemoveCollateral",
      "type": "event"
    },
    {
      "anonymous": false,
      "inputs": [
        {
          "indexed": true,
          "internalType": "address",
          "name": "from",
          "type": "address"
        },
        {
          "indexed": true,
          "internalType": "address",
          "name": "to",
          "type": "address"
        },
        {
          "indexed": false,
          "internalType": "uint256",
          "name": "amount",
          "type": "uint256"
        },
        {
          "indexed": false,
          "internalType": "uint256",
          "name": "part",
          "type": "uint256"
        }
      ],
      "name": "LogRepay",
      "type": "event"
    },
    {
      "anonymous": false,
      "inputs": [
        {
          "indexed": false,
          "internalType": "uint256",
          "name": "oldVal",
          "type": "uint256"
        },
        {
          "indexed": false,
          "internalType": "uint256",
          "name": "newVal",
          "type": "uint256"
        }
      ],
      "name": "MaxDebtRateUpdated",
      "type": "event"
    },
    {
      "anonymous": false,
      "inputs": [
        {
          "indexed": false,
          "internalType": "uint256",
          "name": "oldVal",
          "type": "uint256"
        },
        {
          "indexed": false,
          "internalType": "uint256",
          "name": "newVal",
          "type": "uint256"
        }
      ],
      "name": "MinDebtRateUpdated",
      "type": "event"
    },
    {
      "anonymous": false,
      "inputs": [],
      "name": "OracleDataUpdated",
      "type": "event"
    },
    {
      "anonymous": false,
      "inputs": [],
      "name": "OracleUpdated",
      "type": "event"
    },
    {
      "anonymous": false,
      "inputs": [
        {
          "indexed": true,
          "internalType": "address",
          "name": "previousOwner",
          "type": "address"
        },
        {
          "indexed": true,
          "internalType": "address",
          "name": "newOwner",
          "type": "address"
        }
      ],
      "name": "OwnershipTransferred",
      "type": "event"
    },
    {
      "anonymous": false,
      "inputs": [
        {
          "indexed": false,
          "internalType": "enum Market.PauseType",
          "name": "_type",
          "type": "uint8"
        },
        {
          "indexed": false,
          "internalType": "bool",
          "name": "oldState",
          "type": "bool"
        },
        {
          "indexed": false,
          "internalType": "bool",
          "name": "newState",
          "type": "bool"
        }
      ],
      "name": "PausedUpdated",
      "type": "event"
    },
    {
      "anonymous": false,
      "inputs": [
        {
          "indexed": true,
          "internalType": "address",
          "name": "from",
          "type": "address"
        },
        {
          "indexed": true,
          "internalType": "address",
          "name": "to",
          "type": "address"
        },
        {
          "indexed": false,
          "internalType": "uint256",
          "name": "value",
          "type": "uint256"
        }
      ],
      "name": "Transfer",
      "type": "event"
    },
    {
      "inputs": [],
      "name": "DOMAIN_SEPARATOR",
      "outputs": [
        {
          "internalType": "bytes32",
          "name": "",
          "type": "bytes32"
        }
      ],
      "stateMutability": "view",
      "type": "function"
    },
    {
      "inputs": [],
      "name": "accrueInfo",
      "outputs": [
        {
          "internalType": "uint64",
          "name": "debtRate",
          "type": "uint64"
        },
        {
          "internalType": "uint64",
          "name": "lastAccrued",
          "type": "uint64"
        }
      ],
      "stateMutability": "view",
      "type": "function"
    },
    {
      "inputs": [
        {
          "internalType": "address",
          "name": "",
          "type": "address"
        },
        {
          "internalType": "address",
          "name": "",
          "type": "address"
        }
      ],
      "name": "allowance",
      "outputs": [
        {
          "internalType": "uint256",
          "name": "",
          "type": "uint256"
        }
      ],
      "stateMutability": "view",
      "type": "function"
    },
    {
      "inputs": [
        {
          "internalType": "address",
          "name": "",
          "type": "address"
        },
        {
          "internalType": "address",
          "name": "",
          "type": "address"
        }
      ],
      "name": "allowanceBorrow",
      "outputs": [
        {
          "internalType": "uint256",
          "name": "",
          "type": "uint256"
        }
      ],
      "stateMutability": "view",
      "type": "function"
    },
    {
      "inputs": [
        {
          "internalType": "address",
          "name": "spender",
          "type": "address"
        },
        {
          "internalType": "uint256",
          "name": "amount",
          "type": "uint256"
        }
      ],
      "name": "approve",
      "outputs": [
        {
          "internalType": "bool",
          "name": "",
          "type": "bool"
        }
      ],
      "stateMutability": "nonpayable",
      "type": "function"
    },
    {
      "inputs": [
        {
          "internalType": "address",
          "name": "spender",
          "type": "address"
        },
        {
          "internalType": "uint256",
          "name": "amount",
          "type": "uint256"
        }
      ],
      "name": "approveBorrow",
      "outputs": [
        {
          "internalType": "bool",
          "name": "",
          "type": "bool"
        }
      ],
      "stateMutability": "nonpayable",
      "type": "function"
    },
    {
      "inputs": [],
      "name": "asset",
      "outputs": [
        {
          "internalType": "contract IERC20",
          "name": "",
          "type": "address"
        }
      ],
      "stateMutability": "view",
      "type": "function"
    },
    {
      "inputs": [],
      "name": "assetId",
      "outputs": [
        {
          "internalType": "uint256",
          "name": "",
          "type": "uint256"
        }
      ],
      "stateMutability": "view",
      "type": "function"
    },
    {
      "inputs": [
        {
          "internalType": "address",
          "name": "",
          "type": "address"
        }
      ],
      "name": "balanceOf",
      "outputs": [
        {
          "internalType": "uint256",
          "name": "",
          "type": "uint256"
        }
      ],
      "stateMutability": "view",
      "type": "function"
    },
    {
      "inputs": [],
      "name": "borrowOpeningFee",
      "outputs": [
        {
          "internalType": "uint256",
          "name": "",
          "type": "uint256"
        }
      ],
      "stateMutability": "view",
      "type": "function"
    },
    {
      "inputs": [],
      "name": "callerFee",
      "outputs": [
        {
          "internalType": "uint256",
          "name": "",
          "type": "uint256"
        }
      ],
      "stateMutability": "view",
      "type": "function"
    },
    {
      "inputs": [],
      "name": "claimOwnership",
      "outputs": [],
      "stateMutability": "nonpayable",
      "type": "function"
    },
    {
      "inputs": [],
      "name": "collateral",
      "outputs": [
        {
          "internalType": "contract IERC20",
          "name": "",
          "type": "address"
        }
      ],
      "stateMutability": "view",
      "type": "function"
    },
    {
      "inputs": [],
      "name": "collateralId",
      "outputs": [
        {
          "internalType": "uint256",
          "name": "",
          "type": "uint256"
        }
      ],
      "stateMutability": "view",
      "type": "function"
    },
    {
      "inputs": [],
      "name": "collateralizationRate",
      "outputs": [
        {
          "internalType": "uint256",
          "name": "",
          "type": "uint256"
        }
      ],
      "stateMutability": "view",
      "type": "function"
    },
    {
      "inputs": [
        {
          "internalType": "uint256",
          "name": "borrowPart",
          "type": "uint256"
        },
        {
          "internalType": "uint256",
          "name": "collateralPartInAsset",
          "type": "uint256"
        },
        {
          "internalType": "uint256",
          "name": "ratesPrecision",
          "type": "uint256"
        }
      ],
      "name": "computeClosingFactor",
      "outputs": [
        {
          "internalType": "uint256",
          "name": "",
          "type": "uint256"
        }
      ],
      "stateMutability": "view",
      "type": "function"
    },
    {
      "inputs": [
        {
          "internalType": "address",
          "name": "user",
          "type": "address"
        },
        {
          "internalType": "uint256",
          "name": "_exchangeRate",
          "type": "uint256"
        }
      ],
      "name": "computeLiquidatorReward",
      "outputs": [
        {
          "internalType": "uint256",
          "name": "",
          "type": "uint256"
        }
      ],
      "stateMutability": "view",
      "type": "function"
    },
    {
      "inputs": [
        {
          "internalType": "address",
          "name": "user",
          "type": "address"
        },
        {
          "internalType": "uint256",
          "name": "_exchangeRate",
          "type": "uint256"
        }
      ],
      "name": "computeTVLInfo",
      "outputs": [
        {
          "internalType": "uint256",
          "name": "amountToSolvency",
          "type": "uint256"
        },
        {
          "internalType": "uint256",
          "name": "minTVL",
          "type": "uint256"
        },
        {
          "internalType": "uint256",
          "name": "maxTVL",
          "type": "uint256"
        }
      ],
      "stateMutability": "view",
      "type": "function"
    },
    {
      "inputs": [],
      "name": "conservator",
      "outputs": [
        {
          "internalType": "address",
          "name": "",
          "type": "address"
        }
      ],
      "stateMutability": "view",
      "type": "function"
    },
    {
      "inputs": [],
      "name": "debtRateAgainstEthMarket",
      "outputs": [
        {
          "internalType": "uint256",
          "name": "",
          "type": "uint256"
        }
      ],
      "stateMutability": "view",
      "type": "function"
    },
    {
      "inputs": [],
      "name": "debtStartPoint",
      "outputs": [
        {
          "internalType": "uint256",
          "name": "",
          "type": "uint256"
        }
      ],
      "stateMutability": "view",
      "type": "function"
    },
    {
      "inputs": [],
      "name": "exchangeRate",
      "outputs": [
        {
          "internalType": "uint256",
          "name": "",
          "type": "uint256"
        }
      ],
      "stateMutability": "view",
      "type": "function"
    },
    {
      "inputs": [],
      "name": "isMainMarket",
      "outputs": [
        {
          "internalType": "bool",
          "name": "",
          "type": "bool"
        }
      ],
      "stateMutability": "view",
      "type": "function"
    },
    {
      "inputs": [],
      "name": "liquidationBonusAmount",
      "outputs": [
        {
          "internalType": "uint256",
          "name": "",
          "type": "uint256"
        }
      ],
      "stateMutability": "view",
      "type": "function"
    },
    {
      "inputs": [],
      "name": "liquidationMultiplier",
      "outputs": [
        {
          "internalType": "uint256",
          "name": "",
          "type": "uint256"
        }
      ],
      "stateMutability": "view",
      "type": "function"
    },
    {
      "inputs": [],
      "name": "maxDebtRate",
      "outputs": [
        {
          "internalType": "uint256",
          "name": "",
          "type": "uint256"
        }
      ],
      "stateMutability": "view",
      "type": "function"
    },
    {
      "inputs": [],
      "name": "maxLiquidatorReward",
      "outputs": [
        {
          "internalType": "uint256",
          "name": "",
          "type": "uint256"
        }
      ],
      "stateMutability": "view",
      "type": "function"
    },
    {
      "inputs": [],
      "name": "minDebtRate",
      "outputs": [
        {
          "internalType": "uint256",
          "name": "",
          "type": "uint256"
        }
      ],
      "stateMutability": "view",
      "type": "function"
    },
    {
      "inputs": [],
      "name": "minLiquidatorReward",
      "outputs": [
        {
          "internalType": "uint256",
          "name": "",
          "type": "uint256"
        }
      ],
      "stateMutability": "view",
      "type": "function"
    },
    {
      "inputs": [
        {
          "internalType": "address",
          "name": "owner",
          "type": "address"
        }
      ],
      "name": "nonces",
      "outputs": [
        {
          "internalType": "uint256",
          "name": "",
          "type": "uint256"
        }
      ],
      "stateMutability": "view",
      "type": "function"
    },
    {
      "inputs": [
        {
          "internalType": "address",
          "name": "user",
          "type": "address"
        }
      ],
      "name": "openingFees",
      "outputs": [
        {
          "internalType": "uint256",
          "name": "fee",
          "type": "uint256"
        }
      ],
      "stateMutability": "view",
      "type": "function"
    },
    {
      "inputs": [],
      "name": "oracle",
      "outputs": [
        {
          "internalType": "contract IOracle",
          "name": "",
          "type": "address"
        }
      ],
      "stateMutability": "view",
      "type": "function"
    },
    {
      "inputs": [],
      "name": "oracleData",
      "outputs": [
        {
          "internalType": "bytes",
          "name": "",
          "type": "bytes"
        }
      ],
      "stateMutability": "view",
      "type": "function"
    },
    {
      "inputs": [],
      "name": "owner",
      "outputs": [
        {
          "internalType": "address",
          "name": "",
          "type": "address"
        }
      ],
      "stateMutability": "view",
      "type": "function"
    },
    {
      "inputs": [
        {
          "internalType": "enum Market.PauseType",
          "name": "pauseProp",
          "type": "uint8"
        }
      ],
      "name": "pauseOptions",
      "outputs": [
        {
          "internalType": "bool",
          "name": "pauseStatus",
          "type": "bool"
        }
      ],
      "stateMutability": "view",
      "type": "function"
    },
    {
      "inputs": [],
      "name": "pendingOwner",
      "outputs": [
        {
          "internalType": "address",
          "name": "",
          "type": "address"
        }
      ],
      "stateMutability": "view",
      "type": "function"
    },
    {
      "inputs": [],
      "name": "penrose",
      "outputs": [
        {
          "internalType": "contract IPenrose",
          "name": "",
          "type": "address"
        }
      ],
      "stateMutability": "view",
      "type": "function"
    },
    {
      "inputs": [
        {
          "internalType": "address",
          "name": "owner",
          "type": "address"
        },
        {
          "internalType": "address",
          "name": "spender",
          "type": "address"
        },
        {
          "internalType": "uint256",
          "name": "value",
          "type": "uint256"
        },
        {
          "internalType": "uint256",
          "name": "deadline",
          "type": "uint256"
        },
        {
          "internalType": "uint8",
          "name": "v",
          "type": "uint8"
        },
        {
          "internalType": "bytes32",
          "name": "r",
          "type": "bytes32"
        },
        {
          "internalType": "bytes32",
          "name": "s",
          "type": "bytes32"
        }
      ],
      "name": "permit",
      "outputs": [],
      "stateMutability": "nonpayable",
      "type": "function"
    },
    {
      "inputs": [
        {
          "internalType": "address",
          "name": "owner",
          "type": "address"
        },
        {
          "internalType": "address",
          "name": "spender",
          "type": "address"
        },
        {
          "internalType": "uint256",
          "name": "value",
          "type": "uint256"
        },
        {
          "internalType": "uint256",
          "name": "deadline",
          "type": "uint256"
        },
        {
          "internalType": "uint8",
          "name": "v",
          "type": "uint8"
        },
        {
          "internalType": "bytes32",
          "name": "r",
          "type": "bytes32"
        },
        {
          "internalType": "bytes32",
          "name": "s",
          "type": "bytes32"
        }
      ],
      "name": "permitBorrow",
      "outputs": [],
      "stateMutability": "nonpayable",
      "type": "function"
    },
    {
      "inputs": [],
      "name": "protocolFee",
      "outputs": [
        {
          "internalType": "uint256",
          "name": "",
          "type": "uint256"
        }
      ],
      "stateMutability": "view",
      "type": "function"
    },
    {
      "inputs": [
        {
          "internalType": "uint256",
          "name": "_cap",
          "type": "uint256"
        }
      ],
      "name": "setBorrowCap",
      "outputs": [],
      "stateMutability": "nonpayable",
      "type": "function"
    },
    {
      "inputs": [
        {
          "internalType": "uint256",
          "name": "_val",
          "type": "uint256"
        }
      ],
      "name": "setBorrowOpeningFee",
      "outputs": [],
      "stateMutability": "nonpayable",
      "type": "function"
    },
    {
      "inputs": [
        {
          "internalType": "uint256",
          "name": "_borrowOpeningFee",
          "type": "uint256"
        },
        {
          "internalType": "contract IOracle",
          "name": "_oracle",
          "type": "address"
        },
        {
          "internalType": "bytes",
          "name": "_oracleData",
          "type": "bytes"
        },
        {
          "internalType": "address",
          "name": "_conservator",
          "type": "address"
        },
        {
          "internalType": "uint256",
          "name": "_callerFee",
          "type": "uint256"
        },
        {
          "internalType": "uint256",
          "name": "_protocolFee",
          "type": "uint256"
        },
        {
          "internalType": "uint256",
          "name": "_liquidationBonusAmount",
          "type": "uint256"
        },
        {
          "internalType": "uint256",
          "name": "_minLiquidatorReward",
          "type": "uint256"
        },
        {
          "internalType": "uint256",
          "name": "_maxLiquidatorReward",
          "type": "uint256"
        },
        {
          "internalType": "uint256",
          "name": "_totalBorrowCap",
          "type": "uint256"
        },
        {
          "internalType": "uint256",
          "name": "_collateralizationRate",
          "type": "uint256"
        }
      ],
      "name": "setMarketConfig",
      "outputs": [],
      "stateMutability": "nonpayable",
      "type": "function"
    },
    {
      "inputs": [],
      "name": "totalBorrow",
      "outputs": [
        {
          "internalType": "uint128",
          "name": "elastic",
          "type": "uint128"
        },
        {
          "internalType": "uint128",
          "name": "base",
          "type": "uint128"
        }
      ],
      "stateMutability": "view",
      "type": "function"
    },
    {
      "inputs": [],
      "name": "totalBorrowCap",
      "outputs": [
        {
          "internalType": "uint256",
          "name": "",
          "type": "uint256"
        }
      ],
      "stateMutability": "view",
      "type": "function"
    },
    {
      "inputs": [],
      "name": "totalCollateralShare",
      "outputs": [
        {
          "internalType": "uint256",
          "name": "",
          "type": "uint256"
        }
      ],
      "stateMutability": "view",
      "type": "function"
    },
    {
      "inputs": [],
      "name": "totalSupply",
      "outputs": [
        {
          "internalType": "uint256",
          "name": "",
          "type": "uint256"
        }
      ],
      "stateMutability": "view",
      "type": "function"
    },
    {
      "inputs": [
        {
          "internalType": "address",
          "name": "to",
          "type": "address"
        },
        {
          "internalType": "uint256",
          "name": "amount",
          "type": "uint256"
        }
      ],
      "name": "transfer",
      "outputs": [
        {
          "internalType": "bool",
          "name": "",
          "type": "bool"
        }
      ],
      "stateMutability": "nonpayable",
      "type": "function"
    },
    {
      "inputs": [
        {
          "internalType": "address",
          "name": "from",
          "type": "address"
        },
        {
          "internalType": "address",
          "name": "to",
          "type": "address"
        },
        {
          "internalType": "uint256",
          "name": "amount",
          "type": "uint256"
        }
      ],
      "name": "transferFrom",
      "outputs": [
        {
          "internalType": "bool",
          "name": "",
          "type": "bool"
        }
      ],
      "stateMutability": "nonpayable",
      "type": "function"
    },
    {
      "inputs": [
        {
          "internalType": "address",
          "name": "newOwner",
          "type": "address"
        },
        {
          "internalType": "bool",
          "name": "direct",
          "type": "bool"
        },
        {
          "internalType": "bool",
          "name": "renounce",
          "type": "bool"
        }
      ],
      "name": "transferOwnership",
      "outputs": [],
      "stateMutability": "nonpayable",
      "type": "function"
    },
    {
      "inputs": [],
      "name": "updateExchangeRate",
      "outputs": [
        {
          "internalType": "bool",
          "name": "updated",
          "type": "bool"
        },
        {
          "internalType": "uint256",
          "name": "rate",
          "type": "uint256"
        }
      ],
      "stateMutability": "nonpayable",
      "type": "function"
    },
    {
      "inputs": [
        {
          "internalType": "enum Market.PauseType",
          "name": "_type",
          "type": "uint8"
        },
        {
          "internalType": "bool",
          "name": "val",
          "type": "bool"
        }
      ],
      "name": "updatePause",
      "outputs": [],
      "stateMutability": "nonpayable",
      "type": "function"
    },
    {
      "inputs": [
        {
          "internalType": "address",
          "name": "",
          "type": "address"
        }
      ],
      "name": "userBorrowPart",
      "outputs": [
        {
          "internalType": "uint256",
          "name": "",
          "type": "uint256"
        }
      ],
      "stateMutability": "view",
      "type": "function"
    },
    {
      "inputs": [
        {
          "internalType": "address",
          "name": "",
          "type": "address"
        }
      ],
      "name": "userCollateralShare",
      "outputs": [
        {
          "internalType": "uint256",
          "name": "",
          "type": "uint256"
        }
      ],
      "stateMutability": "view",
      "type": "function"
    },
    {
      "inputs": [],
      "name": "yieldBox",
      "outputs": [
        {
          "internalType": "contract YieldBox",
          "name": "",
          "type": "address"
        }
      ],
      "stateMutability": "view",
      "type": "function"
    }
  ],
  "bytecode": "0x6101408060405234620001855762000017816200018a565b600f81526001602082016e546170696f63612042696742616e6760881b8152602060405162000046816200018a565b8381520192603160f81b845251902091208160e052610100918183524660a0526040519160208301907f8b73c3c69bb8fe3d512ecc4cf759cc79239f7b179b0ffacaa9a75d522b39400f92838352604085015260608401524660808401523060a084015260a0835260c083019280841060018060401b038511176200016f5760408490525190206080523060c052610120908152600580546001600160a01b0319163390811790915560007f8be0079c531659141344cd1fd0a4f28419497f9722a3daafe3b4186f6b6457e08180a36103e860195561271080601a55601b556032601d55612ee0601e556123e89283620001a7843960805183611f66015260a05183612030015260c05183611f30015260e05183611fb501525182611fdb01525181611f920152f35b634e487b7160e01b600052604160045260246000fd5b600080fd5b604081019081106001600160401b038211176200016f5760405256fe608060408181526004918236101561001657600080fd5b600092833560e01c918262a02a20146117eb5750816302ce728f1461162f578163078dfbe714611538578163095ea7b31461150e5781630c4e84f0146113e757816318160ddd146113cc5781631c9e379b146113945781631da8bf10146112d85781631fb8f81a146112b957816323b872dd1461111c57816334d441d0146110fd5781633644e515146110e057816338d52e0f146110b75781633ba0b9a9146110985781633f741adb1461107057816340626d8b1461105157816344de240a14611032578163473e3ce71461101357816348e4163e14610fdb5781634e71e0c814610f385781635100b56714610eda578163529898f214610ebb5781635793546214610e9c5781636b19ad1614610e7d5781636c3d8b8f14610e5457816370a0823114610e1c578163717186d114610dcd5781637277854714610d9657816374645ff314610c975781637dc0d1d014610c6e5781637ecebe0014610c385781637fa0b84e14610c075781638285ef4014610bd657816387b2793714610b9e5781638c5d0ed314610b7f5781638da5cb5b14610b56578163959916dc14610b37578163967593721461075d57816399a970281461072d5781639e15e89f146106f2578163a9059cbb14610617578163b0e21e8a146105f8578163b27c0e74146105c3578163b7113f191461059f578163bb4cfe3b14610580578163bde39c5d14610561578163ce8849ed14610538578163d505accf1461039e57508063d8dfeb4514610376578063dd62ed3e1461032e578063de40657714610306578063e0996cb6146102e8578063e30c3978146102c0578063eec0f42e146102a25763f791395d1461028157600080fd5b3461029e578160031936011261029e576020906025549051908152f35b5080fd5b503461029e578160031936011261029e57602090600c549051908152f35b503461029e578160031936011261029e5760065490516001600160a01b039091168152602090f35b503461029e578160031936011261029e57602090601b549051908152f35b503461029e578160031936011261029e5760095490516001600160a01b039091168152602090f35b503461029e578060031936011261029e578060209261034b611831565b61035361184c565b6001600160a01b0391821683526002865283832091168252845220549051908152f35b503461029e578160031936011261029e57600b5490516001600160a01b039091168152602090f35b8391503461029e576103af36611871565b908397949796959642116104f55760018060a01b039283871694858b52866020528b8b2080549060001982146104e257878b8f9294848f6104829997600161048a9c9a980190558b86519460208601967f6e71edae12b1b97f4d1f60370fef10105fa2faae0126114a169c64845d6126c9885288870152166060850152608084015260a083015260c082015260c0815261044881611929565b519020610453611f2d565b915190602082019261190160f01b8452602283015260428201526042815261047a8161195a565b5190206121df565b9190916120e0565b160361049f575061049c9394506122bb565b80f35b606490602087519162461bcd60e51b8352820152601e60248201527f45524332305065726d69743a20696e76616c6964207369676e617475726500006044820152fd5b634e487b7160e01b8d526011895260248dfd5b895162461bcd60e51b8152602081870152601d60248201527f45524332305065726d69743a206578706972656420646561646c696e650000006044820152606490fd5b50503461029e578160031936011261029e5760085490516001600160a01b039091168152602090f35b50503461029e578160031936011261029e576020906026549051908152f35b50503461029e578160031936011261029e57602090601c549051908152f35b50503461029e578160031936011261029e5760209060ff6023541690519015158152f35b8284346105f557806003193601126105f5575060225481516001600160401b03808316825291831c9091166020820152f35b80fd5b50503461029e578160031936011261029e576020906018549051908152f35b50503461029e578060031936011261029e57602091610634611831565b826024359283158015906106e0575b610673575b50519182526001600160a01b0316903390600080516020612373833981519152908590a35160018152f35b338152600186528181205461068a85821015612056565b6001600160a01b0384169085338390036106a7575b505050610648565b6106bb916106b684151561209b565b611a7a565b33835260018852838320558152206106d4838254611a87565b9055823880808561069f565b50336001600160a01b03841614610643565b50503461029e578060031936011261029e5760609061071b610712611831565b60243590611b4e565b91929081519384526020840152820152f35b50503461029e578060031936011261029e5760209061075661074d611831565b60243590611dca565b9051908152f35b905034610b3357610160366003190112610b33578035916001600160a01b036024358181169390849003610b2f57604435916001600160401b0391828411610b275736602385011215610b2757830135918211610b2b573660248385010111610b2b57606435818116809103610b275760843560a4359160c4359360e435956101043597610124359a610144359c6107fa85600554163314611998565b80610af0575b5080610ab2575b508c8261095b575b5050508161091b575b505080610903575b50806108eb575b50806108d4575b50806108b0575b508061088c575b5081610863575b50508061084e575080f35b61085d620186a08211156119e3565b601c5580f35b600080516020612313833981519152906014548151908152836020820152a16014553880610843565b61089a620186a082106119e3565b6108a760195482116119e3565b601a553861083c565b6108be620186a082106119e3565b6108cb601a5482106119e3565b60195538610835565b6108e2620186a082106119e3565b601b553861082e565b6108fa620186a08211156119e3565b60185538610827565b610912620186a08211156119e3565b60175538610820565b816008549182167f5a62d22209e370e38eea92cfddcd228e656e6ec139243392a760a7769f5877fd8d80a36001600160a01b031916176008553880610818565b82916109686010546118ef565b601f8111610a52575b5081601f84116001146109d457926109c6575b50508160011b916000199060031b1c1916176010555b7fa6f004921c944d4b8bf6e38462b00f36a58d62495d56b51f571ab78f732c98158b80a138808c61080f565b602492500101353880610984565b601081526000805160206123938339815191529350909190601f1985169060205b828210610a37575050908460019594939210610a1a575b505050811b0160105561099a565b0160240135600019600384901b60f8161c19169055388080610a0c565b806001859760248395978901013581550196019301906109f5565b60109092529150600080516020612393833981519152601f840160051c81019160208510610aa8575b918f9291601f8695930160051c01905b818110610a985750610971565b9283558493508f92600101610a8b565b9091508190610a7b565b600f80546001600160a01b0319169190911790557f0b2d6eb667d0522c3eb86e4288afecae6c11591ffd1345d4d12407e0598bca9b8d80a138610807565b610aff620186a08211156119e3565b6000805160206123338339815191528c601d548151908152836020820152a1601d5538610800565b8780fd5b8680fd5b8580fd5b8280fd5b50503461029e578160031936011261029e57602090601d549051908152f35b50503461029e578160031936011261029e5760055490516001600160a01b039091168152602090f35b50503461029e578160031936011261029e576020906019549051908152f35b50503461029e57602036600319011261029e5760209181906001600160a01b03610bc6611831565b1681526021845220549051908152f35b8284346105f557806003193601126105f5575060125481516001600160801b038216815260809190911c6020820152f35b50503461029e578060031936011261029e57602090610c31610c27611831565b6024359033612264565b5160018152f35b905034610b33576020366003190112610b335760209282916001600160a01b03610c60611831565b168252845220549051908152f35b50503461029e578160031936011261029e57600f5490516001600160a01b039091168152602090f35b50503461029e578160031936011261029e5780516010548184610cb9836118ef565b808352600193808516908115610d755750600114610d2a575b50610ce292509492940384611975565b815192839160208084528251928382860152825b848110610d1457505050828201840152601f01601f19168101030190f35b8181018301518882018801528795508201610cf6565b6010875260008051602061239383398151915293602092508791905b818310610d5d575050610ce2935082010138610cd2565b85548784018501529485019486945091830191610d46565b9050610ce294506020925060ff191682840152151560051b82010138610cd2565b905034610b33576020366003190112610b3357359160098310156105f5575060ff610dc26020936118c0565b541690519015158152f35b905034610b33576020366003190112610b3357600080516020612313833981519152903591610e0760018060a01b03600554163314611998565b6014548151908152836020820152a160145580f35b50503461029e57602036600319011261029e5760209181906001600160a01b03610e44611831565b1681526001845220549051908152f35b50503461029e578160031936011261029e57600a5490516001600160a01b039091168152602090f35b50503461029e578160031936011261029e576020906024549051908152f35b50503461029e578160031936011261029e57602090601a549051908152f35b50503461029e578160031936011261029e57602090601e549051908152f35b905034610b33576020366003190112610b3357600080516020612333833981519152903591610f1460018060a01b03600554163314611998565b610f23620186a08411156119e3565b601d548151908152836020820152a1601d5580f35b91905034610b335782600319360112610b33576006546001600160a01b03929091838316919033839003610f98575050806005549384166000805160206123538339815191528680a36001600160a01b0319928316176005551660065580f35b906020606492519162461bcd60e51b8352820152602060248201527f4f776e61626c653a2063616c6c657220213d2070656e64696e67206f776e65726044820152fd5b50503461029e57602036600319011261029e5760209181906001600160a01b03611003611831565b1681526015845220549051908152f35b50503461029e578160031936011261029e576020906013549051908152f35b50503461029e578160031936011261029e57602090600e549051908152f35b50503461029e578160031936011261029e576020906014549051908152f35b8284346105f55760603660031901126105f55750610756602092604435906024359035611a94565b50503461029e578160031936011261029e576020906011549051908152f35b50503461029e578160031936011261029e57600d5490516001600160a01b039091168152602090f35b50503461029e578160031936011261029e57602090610756611f2d565b50503461029e578160031936011261029e576020906017549051908152f35b8284346105f55760603660031901126105f557611137611831565b9061114061184c565b604435918261117c575b508351918252602094506001600160a01b03908116921690600080516020612373833981519152908590a35160018152f35b6001600160a01b0384811680835260016020908152878420549198929091906111a787831015612056565b851692838a036111bb575b5050505061114a565b898552600283528885203386528352888520549060018201611225575b5050928260209960018a946112048a8e996106b66000805160206123738339815191529c9a151561209b565b928552528383205581522061121a858254611a87565b9055918780806111b2565b87821061127b57509260209960018a946112048a8e9996611256826000805160206123738339815191529d9b611a7a565b86895260028552898920338a52855289892055969950505094505099819496506111d8565b895162461bcd60e51b8152908101849052601860248201527745524332303a20616c6c6f77616e636520746f6f206c6f7760401b6044820152606490fd5b50503461029e578160031936011261029e576020906027549051908152f35b8391503461029e576112e936611871565b908397949796959642116104f55760018060a01b039283871694858b52866020528b8b2080549060001982146104e257878b8f9294848f610482999760016113829c9a980190558b86519460208601967fe9685ff6d48c617fe4f692c50e602cce27cbad0290beb93cfa77eac43968d58c885288870152166060850152608084015260a083015260c082015260c0815261044881611929565b160361049f575061049c939450612264565b50503461029e57602036600319011261029e5760209181906001600160a01b036113bc611831565b1681526016845220549051908152f35b50503461029e578160031936011261029e5751908152602090f35b91905034610b335780600319360112610b3357813590600982101561150a5761140e611862565b6008549093906001600160a01b031633036114d15760ff61142e846118c0565b5416151593151593841461149a5750907feeec81de25875ce1725479bb76f720a8defdb43dea041919ae37bb4aae9847c0606061148a938560ff611471866118c0565b54169180519286845215156020840152820152a16118c0565b9060ff8019835416911617905580f35b6020606492519162461bcd60e51b835282015260126024820152714d61726b65743a2073616d6520737461746560701b6044820152fd5b6020606492519162461bcd60e51b8352820152601460248201527313585c9ad95d0e881d5b985d5d1a1bdc9a5e995960621b6044820152fd5b8380fd5b50503461029e578060031936011261029e57602090610c3161152e611831565b60243590336122bb565b91905034610b33576060366003190112610b3357611554611831565b9161155d611862565b91604435928315158403610b2f5760018060a01b0394859161158483600554163314611998565b1561161657169283159081159161160e575b50156115d3575050806005549283166000805160206123538339815191528580a36001600160a01b03199182161760055560068054909116905580f35b906020606492519162461bcd60e51b835282015260156024820152744f776e61626c653a207a65726f206164647265737360581b6044820152fd5b905038611596565b93505050501660018060a01b0319600654161760065580f35b8391503461029e578160031936011261029e5760018060a01b03600f541683519263d6d7d52560e01b8452848460209384868301528380601054611672816118ef565b908160248701526001908682821691826000146117c8575050600114611786575b50509083809203925af190811561177b578094819261173b575b505091836000146117305782156116f85750816011557f9f9192b5edb17356c524e08d9e025c8e2f6307e6ea52fb7968faa3081f51c3c8818551848152a15b83519215158352820152f35b60649185519162461bcd60e51b835282015260146024820152734d61726b65743a20696e76616c6964207261746560601b6044820152fd5b5060115491506116ec565b86809296508193503d8311611774575b6117558183611975565b8101031261150a5780519384151585036105f5575081015185806116ad565b503d61174b565b8551903d90823e3d90fd5b6010845288842084935089905b8385106117aa575050505083016044018380611693565b80548d8601604401528d98508c975089955093019289908201611793565b90959450604492508593915060ff191682840152151560051b8201019192611693565b84908434610b335780600319360112610b3357602092611809611831565b61181161184c565b6001600160a01b0391821683526003865283832091168252845220548152f35b600435906001600160a01b038216820361184757565b600080fd5b602435906001600160a01b038216820361184757565b60243590811515820361184757565b60e0906003190112611847576001600160a01b03906004358281168103611847579160243590811681036118475790604435906064359060843560ff81168103611847579060a4359060c43590565b60098110156118d9576000526007602052604060002090565b634e487b7160e01b600052602160045260246000fd5b90600182811c9216801561191f575b602083101461190957565b634e487b7160e01b600052602260045260246000fd5b91607f16916118fe565b60e081019081106001600160401b0382111761194457604052565b634e487b7160e01b600052604160045260246000fd5b608081019081106001600160401b0382111761194457604052565b601f909101601f19168101906001600160401b0382119082101761194457604052565b1561199f57565b606460405162461bcd60e51b815260206004820152602060248201527f4f776e61626c653a2063616c6c6572206973206e6f7420746865206f776e65726044820152fd5b156119ea57565b60405162461bcd60e51b815260206004820152601160248201527013585c9ad95d0e881b9bdd081d985b1a59607a1b6044820152606490fd5b81810292918115918404141715611a3657565b634e487b7160e01b600052601160045260246000fd5b604d8111611a3657600a0a90565b8115611a64570490565b634e487b7160e01b600052601260045260246000fd5b91908203918211611a3657565b91908201809211611a3657565b919091611ab6611aa7601c548095611a23565b611ab084611a4c565b90611a5a565b90818110611b4557611b0691611acb91611a7a565b92611b00611af7611adb85611a4c565b92611af1611ae887611a4c565b601e5490611a87565b90611a23565b611ab085611a4c565b90611a7a565b906012039060128211611a3657611af1611b1f92611a4c565b670de0b6b3a764000091828102928184041490151715611a3657611b4291611a5a565b90565b50505050600090565b9160018060a01b0380931691600083815260209060158252604091828220548015611cb9578351978885016001600160401b0381118a821017611ca55785526012549160018060801b03918284168b52848b019360801c8452611bb2881515611cc7565b6009541684600c548b885260168252606489892054918a51948593849263442c159960e01b8452600484015260248301528a60448301525afa908115611c9b578691611c6e575b509282611c3d611c4693611c629b9c9d95611c348c611c2f611c2660169c9b620186a0601f540490611a23565b601c5490611a23565b611a5a565b96511690611a23565b91511690611a5a565b90808210611c6657611c5791611a7a565b978352522054611d13565b9091565b505082611c57565b90508481813d8311611c94575b611c858183611975565b81010312610b2f575182611bf9565b503d611c7b565b87513d88823e3d90fd5b634e487b7160e01b85526041600452602485fd5b505093505050915080918190565b15611cce57565b60405162461bcd60e51b815260206004820152601e60248201527f4d61726b65743a2065786368616e676552617465206e6f742076616c696400006044820152606490fd5b611d1e821515611cc7565b602060018060a01b0360095416916064600c54604051948593849263442c159960e01b845260048401526024830152600060448301525afa908115611dbe57600091611d8b575b5090611c2f611d7792601f5490611a23565b620186a0611d87601c5483611a23565b0491565b906020823d8211611db6575b81611da460209383611975565b810103126105f5575051611c2f611d65565b3d9150611d97565b6040513d6000823e3d90fd5b6001600160a01b03166000818152601660205260408120549092611ded91611d13565b918352601560205260408320548015611f27578115611f2757818110611f275782811015611f1d57601254611e409183916106b691611e36906001600160801b03831690611a23565b9060801c90611a5a565b90620186a09283830292808404851490151715611ef557611e659291611ab091611a7a565b9160195491601a54938484039083861285831281169086841390151617611f095781810291848112600160ff1b831416611ef5578205148585141715611ee15705818482019485129112908015821691151617611ecd5750808212611ec8575090565b905090565b634e487b7160e01b81526011600452602490fd5b634e487b7160e01b83526011600452602483fd5b634e487b7160e01b85526011600452602485fd5b634e487b7160e01b84526011600452602484fd5b5050505060195490565b50505090565b307f00000000000000000000000000000000000000000000000000000000000000006001600160a01b0316148061202d575b15611f88577f000000000000000000000000000000000000000000000000000000000000000090565b60405160208101907f000000000000000000000000000000000000000000000000000000000000000082527f000000000000000000000000000000000000000000000000000000000000000060408201527f000000000000000000000000000000000000000000000000000000000000000060608201524660808201523060a082015260a0815260c0810181811060018060401b038211176119445760405251902090565b507f00000000000000000000000000000000000000000000000000000000000000004614611f5f565b1561205d57565b60405162461bcd60e51b815260206004820152601660248201527545524332303a2062616c616e636520746f6f206c6f7760501b6044820152606490fd5b156120a257565b60405162461bcd60e51b815260206004820152601660248201527545524332303a206e6f207a65726f206164647265737360501b6044820152606490fd5b60058110156118d957806120f15750565b600181036121395760405162461bcd60e51b815260206004820152601860248201527745434453413a20696e76616c6964207369676e617475726560401b6044820152606490fd5b600281036121865760405162461bcd60e51b815260206004820152601f60248201527f45434453413a20696e76616c6964207369676e6174757265206c656e677468006044820152606490fd5b60031461218f57565b60405162461bcd60e51b815260206004820152602260248201527f45434453413a20696e76616c6964207369676e6174757265202773272076616c604482015261756560f01b6064820152608490fd5b9291906fa2a8918ca85bafe22016d0b997e4df60600160ff1b0383116122585791608094939160ff602094604051948552168484015260408301526060820152600093849182805260015afa1561224b5781516001600160a01b03811615612245579190565b50600190565b50604051903d90823e3d90fd5b50505050600090600390565b909160207fe50de2333c10a9502fcb1d8ae13a51bbf423153dfc63c2b8997665b32154afc39160018060a01b03809416938460005260038352604060002095169485600052825280604060002055604051908152a3565b909160207f8c5be1e5ebec7d5bd14f71427d1e84f3dd0314c0f7b2291e5b200ac8c7c3b9259160018060a01b03809416938460005260028352604060002095169485600052825280604060002055604051908152a356feae6e0ab3b95f0a53ff9660a390ccedcbbf1f2355dce974a9841af106fddcfabac353b09af857951dccce61b43a5854fc45beceed36c50e5d4cc2e71858a8e0df8be0079c531659141344cd1fd0a4f28419497f9722a3daafe3b4186f6b6457e0ddf252ad1be2c89b69c2b068fc378daa952ba7f163c4a11628f55a4df523b3ef1b6847dc741a1b0cd08d278845f9d819d87b734759afb55fe2de5cb82a9ae672a264697066735822122086b2412cc4f01cf301bfbaf441a5ec4f533330f107dc402a19314652f3d8607e64736f6c63430008120033",
  "linkReferences": {},
  "deployedLinkReferences": {}
}