{
  "_format": "hh-sol-artifact-1",
  "contractName": "BBStorage",
  "sourceName": "contracts/markets/bigBang/BBStorage.sol",
  "abi": [
    {
      "inputs": [],
      "stateMutability": "nonpayable",
      "type": "constructor"
    },
    {
      "anonymous": false,
      "inputs": [
        {
          "indexed": true,
          "internalType": "address",
          "name": "owner",
          "type": "address"
        },
        {
          "indexed": true,
          "internalType": "address",
          "name": "spender",
          "type": "address"
        },
        {
          "indexed": false,
          "internalType": "uint256",
          "name": "value",
          "type": "uint256"
        }
      ],
      "name": "Approval",
      "type": "event"
    },
    {
      "anonymous": false,
      "inputs": [
        {
          "indexed": true,
          "internalType": "address",
          "name": "owner",
          "type": "address"
        },
        {
          "indexed": true,
          "internalType": "address",
          "name": "spender",
          "type": "address"
        },
        {
          "indexed": true,
          "internalType": "uint256",
          "name": "value",
          "type": "uint256"
        }
      ],
      "name": "ApprovalBorrow",
      "type": "event"
    },
    {
      "anonymous": false,
      "inputs": [],
      "name": "AssetOracleDataUpdated",
      "type": "event"
    },
    {
      "anonymous": false,
      "inputs": [
        {
          "indexed": true,
          "internalType": "address",
          "name": "_oldVal",
          "type": "address"
        },
        {
          "indexed": true,
          "internalType": "address",
          "name": "_newVal",
          "type": "address"
        }
      ],
      "name": "AssetOracleUpdated",
      "type": "event"
    },
    {
      "anonymous": false,
      "inputs": [
        {
          "indexed": true,
          "internalType": "address",
          "name": "old",
          "type": "address"
        },
        {
          "indexed": true,
          "internalType": "address",
          "name": "_new",
          "type": "address"
        }
      ],
      "name": "ConservatorUpdated",
      "type": "event"
    },
    {
      "anonymous": false,
      "inputs": [
        {
          "indexed": true,
          "internalType": "uint256",
          "name": "oldVal",
          "type": "uint256"
        },
        {
          "indexed": true,
          "internalType": "uint256",
          "name": "newVal",
          "type": "uint256"
        }
      ],
      "name": "DebtRateAgainstEthUpdated",
      "type": "event"
    },
    {
      "anonymous": false,
      "inputs": [
        {
          "indexed": false,
          "internalType": "uint256",
          "name": "_oldVal",
          "type": "uint256"
        },
        {
          "indexed": false,
          "internalType": "uint256",
          "name": "_newVal",
          "type": "uint256"
        }
      ],
      "name": "ExchangeRateDurationUpdated",
      "type": "event"
    },
    {
      "anonymous": false,
      "inputs": [
        {
          "indexed": true,
          "internalType": "address",
          "name": "liquidator",
          "type": "address"
        },
        {
          "indexed": true,
          "internalType": "address[]",
          "name": "users",
          "type": "address[]"
        },
        {
          "indexed": true,
          "internalType": "uint256",
          "name": "liquidatorReward",
          "type": "uint256"
        },
        {
          "indexed": false,
          "internalType": "uint256",
          "name": "protocolReward",
          "type": "uint256"
        },
        {
          "indexed": false,
          "internalType": "uint256",
          "name": "repayedAmount",
          "type": "uint256"
        },
        {
          "indexed": false,
          "internalType": "uint256",
          "name": "collateralShareRemoved",
          "type": "uint256"
        }
      ],
      "name": "Liquidated",
      "type": "event"
    },
    {
      "anonymous": false,
      "inputs": [
        {
          "indexed": true,
          "internalType": "uint256",
          "name": "oldVal",
          "type": "uint256"
        },
        {
          "indexed": true,
          "internalType": "uint256",
          "name": "newVal",
          "type": "uint256"
        }
      ],
      "name": "LiquidationMultiplierUpdated",
      "type": "event"
    },
    {
      "anonymous": false,
      "inputs": [
        {
          "indexed": true,
          "internalType": "uint256",
          "name": "accruedAmount",
          "type": "uint256"
        },
        {
          "indexed": true,
          "internalType": "uint64",
          "name": "rate",
          "type": "uint64"
        }
      ],
      "name": "LogAccrue",
      "type": "event"
    },
    {
      "anonymous": false,
      "inputs": [
        {
          "indexed": true,
          "internalType": "address",
          "name": "from",
          "type": "address"
        },
        {
          "indexed": true,
          "internalType": "address",
          "name": "to",
          "type": "address"
        },
        {
          "indexed": true,
          "internalType": "uint256",
          "name": "share",
          "type": "uint256"
        }
      ],
      "name": "LogAddCollateral",
      "type": "event"
    },
    {
      "anonymous": false,
      "inputs": [
        {
          "indexed": true,
          "internalType": "address",
          "name": "from",
          "type": "address"
        },
        {
          "indexed": true,
          "internalType": "address",
          "name": "to",
          "type": "address"
        },
        {
          "indexed": true,
          "internalType": "uint256",
          "name": "amount",
          "type": "uint256"
        },
        {
          "indexed": false,
          "internalType": "uint256",
          "name": "feeAmount",
          "type": "uint256"
        },
        {
          "indexed": false,
          "internalType": "uint256",
          "name": "part",
          "type": "uint256"
        }
      ],
      "name": "LogBorrow",
      "type": "event"
    },
    {
      "anonymous": false,
      "inputs": [
        {
          "indexed": true,
          "internalType": "uint256",
          "name": "_oldVal",
          "type": "uint256"
        },
        {
          "indexed": true,
          "internalType": "uint256",
          "name": "_newVal",
          "type": "uint256"
        }
      ],
      "name": "LogBorrowCapUpdated",
      "type": "event"
    },
    {
      "anonymous": false,
      "inputs": [
        {
          "indexed": true,
          "internalType": "uint256",
          "name": "rate",
          "type": "uint256"
        }
      ],
      "name": "LogExchangeRate",
      "type": "event"
    },
    {
      "anonymous": false,
      "inputs": [
        {
          "indexed": true,
          "internalType": "address",
          "name": "from",
          "type": "address"
        },
        {
          "indexed": true,
          "internalType": "address",
          "name": "to",
          "type": "address"
        },
        {
          "indexed": true,
          "internalType": "uint256",
          "name": "share",
          "type": "uint256"
        }
      ],
      "name": "LogRemoveCollateral",
      "type": "event"
    },
    {
      "anonymous": false,
      "inputs": [
        {
          "indexed": true,
          "internalType": "address",
          "name": "from",
          "type": "address"
        },
        {
          "indexed": true,
          "internalType": "address",
          "name": "to",
          "type": "address"
        },
        {
          "indexed": true,
          "internalType": "uint256",
          "name": "amount",
          "type": "uint256"
        },
        {
          "indexed": false,
          "internalType": "uint256",
          "name": "part",
          "type": "uint256"
        }
      ],
      "name": "LogRepay",
      "type": "event"
    },
    {
      "anonymous": false,
      "inputs": [
        {
          "indexed": true,
          "internalType": "uint256",
          "name": "oldVal",
          "type": "uint256"
        },
        {
          "indexed": true,
          "internalType": "uint256",
          "name": "newVal",
          "type": "uint256"
        }
      ],
      "name": "MaxDebtRateUpdated",
      "type": "event"
    },
    {
      "anonymous": false,
      "inputs": [
        {
          "indexed": true,
          "internalType": "uint256",
          "name": "oldVal",
          "type": "uint256"
        },
        {
          "indexed": true,
          "internalType": "uint256",
          "name": "newVal",
          "type": "uint256"
        }
      ],
      "name": "MinDebtRateUpdated",
      "type": "event"
    },
    {
      "anonymous": false,
      "inputs": [],
      "name": "OracleDataUpdated",
      "type": "event"
    },
    {
      "anonymous": false,
      "inputs": [],
      "name": "OracleUpdated",
      "type": "event"
    },
    {
      "anonymous": false,
      "inputs": [
        {
          "indexed": true,
          "internalType": "address",
          "name": "previousOwner",
          "type": "address"
        },
        {
          "indexed": true,
          "internalType": "address",
          "name": "newOwner",
          "type": "address"
        }
      ],
      "name": "OwnershipTransferred",
      "type": "event"
    },
    {
      "anonymous": false,
      "inputs": [
        {
          "indexed": true,
          "internalType": "enum Market.PauseType",
          "name": "_type",
          "type": "uint8"
        },
        {
          "indexed": true,
          "internalType": "bool",
          "name": "oldState",
          "type": "bool"
        },
        {
          "indexed": true,
          "internalType": "bool",
          "name": "newState",
          "type": "bool"
        }
      ],
      "name": "PausedUpdated",
      "type": "event"
    },
    {
      "anonymous": false,
      "inputs": [
        {
          "indexed": true,
          "internalType": "address",
          "name": "from",
          "type": "address"
        },
        {
          "indexed": true,
          "internalType": "address",
          "name": "to",
          "type": "address"
        },
        {
          "indexed": false,
          "internalType": "uint256",
          "name": "value",
          "type": "uint256"
        }
      ],
      "name": "Transfer",
      "type": "event"
    },
    {
      "anonymous": false,
      "inputs": [
        {
          "indexed": true,
          "internalType": "uint256",
          "name": "oldMin",
          "type": "uint256"
        },
        {
          "indexed": true,
          "internalType": "uint256",
          "name": "newMin",
          "type": "uint256"
        },
        {
          "indexed": true,
          "internalType": "uint256",
          "name": "oldMax",
          "type": "uint256"
        },
        {
          "indexed": false,
          "internalType": "uint256",
          "name": "newMax",
          "type": "uint256"
        }
      ],
      "name": "UpdateMinMaxMintFee",
      "type": "event"
    },
    {
      "inputs": [],
      "name": "DOMAIN_SEPARATOR",
      "outputs": [
        {
          "internalType": "bytes32",
          "name": "",
          "type": "bytes32"
        }
      ],
      "stateMutability": "view",
      "type": "function"
    },
    {
      "inputs": [],
      "name": "accrueInfo",
      "outputs": [
        {
          "internalType": "uint64",
          "name": "debtRate",
          "type": "uint64"
        },
        {
          "internalType": "uint64",
          "name": "lastAccrued",
          "type": "uint64"
        }
      ],
      "stateMutability": "view",
      "type": "function"
    },
    {
      "inputs": [
        {
          "internalType": "address",
          "name": "",
          "type": "address"
        },
        {
          "internalType": "address",
          "name": "",
          "type": "address"
        }
      ],
      "name": "allowance",
      "outputs": [
        {
          "internalType": "uint256",
          "name": "",
          "type": "uint256"
        }
      ],
      "stateMutability": "view",
      "type": "function"
    },
    {
      "inputs": [
        {
          "internalType": "address",
          "name": "",
          "type": "address"
        },
        {
          "internalType": "address",
          "name": "",
          "type": "address"
        }
      ],
      "name": "allowanceBorrow",
      "outputs": [
        {
          "internalType": "uint256",
          "name": "",
          "type": "uint256"
        }
      ],
      "stateMutability": "view",
      "type": "function"
    },
    {
      "inputs": [
        {
          "internalType": "address",
          "name": "spender",
          "type": "address"
        },
        {
          "internalType": "uint256",
          "name": "amount",
          "type": "uint256"
        }
      ],
      "name": "approve",
      "outputs": [
        {
          "internalType": "bool",
          "name": "",
          "type": "bool"
        }
      ],
      "stateMutability": "nonpayable",
      "type": "function"
    },
    {
      "inputs": [
        {
          "internalType": "address",
          "name": "spender",
          "type": "address"
        },
        {
          "internalType": "uint256",
          "name": "amount",
          "type": "uint256"
        }
      ],
      "name": "approveBorrow",
      "outputs": [
        {
          "internalType": "bool",
          "name": "",
          "type": "bool"
        }
      ],
      "stateMutability": "nonpayable",
      "type": "function"
    },
    {
      "inputs": [],
      "name": "asset",
      "outputs": [
        {
          "internalType": "contract IERC20",
          "name": "",
          "type": "address"
        }
      ],
      "stateMutability": "view",
      "type": "function"
    },
    {
      "inputs": [],
      "name": "assetId",
      "outputs": [
        {
          "internalType": "uint256",
          "name": "",
          "type": "uint256"
        }
      ],
      "stateMutability": "view",
      "type": "function"
    },
    {
      "inputs": [],
      "name": "assetOracle",
      "outputs": [
        {
          "internalType": "contract IOracle",
          "name": "",
          "type": "address"
        }
      ],
      "stateMutability": "view",
      "type": "function"
    },
    {
      "inputs": [],
      "name": "assetOracleData",
      "outputs": [
        {
          "internalType": "bytes",
          "name": "",
          "type": "bytes"
        }
      ],
      "stateMutability": "view",
      "type": "function"
    },
    {
      "inputs": [
        {
          "internalType": "address",
          "name": "",
          "type": "address"
        }
      ],
      "name": "balanceOf",
      "outputs": [
        {
          "internalType": "uint256",
          "name": "",
          "type": "uint256"
        }
      ],
      "stateMutability": "view",
      "type": "function"
    },
    {
      "inputs": [],
      "name": "callerFee",
      "outputs": [
        {
          "internalType": "uint256",
          "name": "",
          "type": "uint256"
        }
      ],
      "stateMutability": "view",
      "type": "function"
    },
    {
      "inputs": [],
      "name": "claimOwnership",
      "outputs": [],
      "stateMutability": "nonpayable",
      "type": "function"
    },
    {
      "inputs": [],
      "name": "collateral",
      "outputs": [
        {
          "internalType": "contract IERC20",
          "name": "",
          "type": "address"
        }
      ],
      "stateMutability": "view",
      "type": "function"
    },
    {
      "inputs": [],
      "name": "collateralId",
      "outputs": [
        {
          "internalType": "uint256",
          "name": "",
          "type": "uint256"
        }
      ],
      "stateMutability": "view",
      "type": "function"
    },
    {
      "inputs": [],
      "name": "collateralizationRate",
      "outputs": [
        {
          "internalType": "uint256",
          "name": "",
          "type": "uint256"
        }
      ],
      "stateMutability": "view",
      "type": "function"
    },
    {
      "inputs": [
        {
          "internalType": "uint256",
          "name": "borrowPart",
          "type": "uint256"
        },
        {
          "internalType": "uint256",
          "name": "collateralPartInAsset",
          "type": "uint256"
        },
        {
          "internalType": "uint256",
          "name": "ratesPrecision",
          "type": "uint256"
        }
      ],
      "name": "computeClosingFactor",
      "outputs": [
        {
          "internalType": "uint256",
          "name": "",
          "type": "uint256"
        }
      ],
      "stateMutability": "view",
      "type": "function"
    },
    {
      "inputs": [
        {
          "internalType": "address",
          "name": "user",
          "type": "address"
        },
        {
          "internalType": "uint256",
          "name": "_exchangeRate",
          "type": "uint256"
        }
      ],
      "name": "computeLiquidatorReward",
      "outputs": [
        {
          "internalType": "uint256",
          "name": "",
          "type": "uint256"
        }
      ],
      "stateMutability": "view",
      "type": "function"
    },
    {
      "inputs": [
        {
          "internalType": "address",
          "name": "user",
          "type": "address"
        },
        {
          "internalType": "uint256",
          "name": "_exchangeRate",
          "type": "uint256"
        }
      ],
      "name": "computeTVLInfo",
      "outputs": [
        {
          "internalType": "uint256",
          "name": "amountToSolvency",
          "type": "uint256"
        },
        {
          "internalType": "uint256",
          "name": "minTVL",
          "type": "uint256"
        },
        {
          "internalType": "uint256",
          "name": "maxTVL",
          "type": "uint256"
        }
      ],
      "stateMutability": "view",
      "type": "function"
    },
    {
      "inputs": [],
      "name": "conservator",
      "outputs": [
        {
          "internalType": "address",
          "name": "",
          "type": "address"
        }
      ],
      "stateMutability": "view",
      "type": "function"
    },
    {
      "inputs": [],
      "name": "debtRateAgainstEthMarket",
      "outputs": [
        {
          "internalType": "uint256",
          "name": "",
          "type": "uint256"
        }
      ],
      "stateMutability": "view",
      "type": "function"
    },
    {
      "inputs": [],
      "name": "debtStartPoint",
      "outputs": [
        {
          "internalType": "uint256",
          "name": "",
          "type": "uint256"
        }
      ],
      "stateMutability": "view",
      "type": "function"
    },
    {
      "inputs": [],
      "name": "exchangeRate",
      "outputs": [
        {
          "internalType": "uint256",
          "name": "",
          "type": "uint256"
        }
      ],
      "stateMutability": "view",
      "type": "function"
    },
    {
      "inputs": [],
      "name": "isMainMarket",
      "outputs": [
        {
          "internalType": "bool",
          "name": "",
          "type": "bool"
        }
      ],
      "stateMutability": "view",
      "type": "function"
    },
    {
      "inputs": [],
      "name": "liquidationBonusAmount",
      "outputs": [
        {
          "internalType": "uint256",
          "name": "",
          "type": "uint256"
        }
      ],
      "stateMutability": "view",
      "type": "function"
    },
    {
      "inputs": [],
      "name": "liquidationCollateralizationRate",
      "outputs": [
        {
          "internalType": "uint256",
          "name": "",
          "type": "uint256"
        }
      ],
      "stateMutability": "view",
      "type": "function"
    },
    {
      "inputs": [],
      "name": "liquidationMultiplier",
      "outputs": [
        {
          "internalType": "uint256",
          "name": "",
          "type": "uint256"
        }
      ],
      "stateMutability": "view",
      "type": "function"
    },
    {
      "inputs": [],
      "name": "maxDebtRate",
      "outputs": [
        {
          "internalType": "uint256",
          "name": "",
          "type": "uint256"
        }
      ],
      "stateMutability": "view",
      "type": "function"
    },
    {
      "inputs": [],
      "name": "maxLiquidatorReward",
      "outputs": [
        {
          "internalType": "uint256",
          "name": "",
          "type": "uint256"
        }
      ],
      "stateMutability": "view",
      "type": "function"
    },
    {
      "inputs": [],
      "name": "maxMintFee",
      "outputs": [
        {
          "internalType": "uint256",
          "name": "",
          "type": "uint256"
        }
      ],
      "stateMutability": "view",
      "type": "function"
    },
    {
      "inputs": [],
      "name": "minDebtRate",
      "outputs": [
        {
          "internalType": "uint256",
          "name": "",
          "type": "uint256"
        }
      ],
      "stateMutability": "view",
      "type": "function"
    },
    {
      "inputs": [],
      "name": "minLiquidatorReward",
      "outputs": [
        {
          "internalType": "uint256",
          "name": "",
          "type": "uint256"
        }
      ],
      "stateMutability": "view",
      "type": "function"
    },
    {
      "inputs": [],
      "name": "minMintFee",
      "outputs": [
        {
          "internalType": "uint256",
          "name": "",
          "type": "uint256"
        }
      ],
      "stateMutability": "view",
      "type": "function"
    },
    {
      "inputs": [
        {
          "internalType": "address",
          "name": "owner",
          "type": "address"
        }
      ],
      "name": "nonces",
      "outputs": [
        {
          "internalType": "uint256",
          "name": "",
          "type": "uint256"
        }
      ],
      "stateMutability": "view",
      "type": "function"
    },
    {
      "inputs": [
        {
          "internalType": "address",
          "name": "user",
          "type": "address"
        }
      ],
      "name": "openingFees",
      "outputs": [
        {
          "internalType": "uint256",
          "name": "fee",
          "type": "uint256"
        }
      ],
      "stateMutability": "view",
      "type": "function"
    },
    {
      "inputs": [],
      "name": "oracle",
      "outputs": [
        {
          "internalType": "contract IOracle",
          "name": "",
          "type": "address"
        }
      ],
      "stateMutability": "view",
      "type": "function"
    },
    {
      "inputs": [],
      "name": "oracleData",
      "outputs": [
        {
          "internalType": "bytes",
          "name": "",
          "type": "bytes"
        }
      ],
      "stateMutability": "view",
      "type": "function"
    },
    {
      "inputs": [],
      "name": "owner",
      "outputs": [
        {
          "internalType": "address",
          "name": "",
          "type": "address"
        }
      ],
      "stateMutability": "view",
      "type": "function"
    },
    {
      "inputs": [
        {
          "internalType": "enum Market.PauseType",
          "name": "pauseProp",
          "type": "uint8"
        }
      ],
      "name": "pauseOptions",
      "outputs": [
        {
          "internalType": "bool",
          "name": "pauseStatus",
          "type": "bool"
        }
      ],
      "stateMutability": "view",
      "type": "function"
    },
    {
      "inputs": [],
      "name": "pendingOwner",
      "outputs": [
        {
          "internalType": "address",
          "name": "",
          "type": "address"
        }
      ],
      "stateMutability": "view",
      "type": "function"
    },
    {
      "inputs": [],
      "name": "penrose",
      "outputs": [
        {
          "internalType": "contract IPenrose",
          "name": "",
          "type": "address"
        }
      ],
      "stateMutability": "view",
      "type": "function"
    },
    {
      "inputs": [
        {
          "internalType": "address",
          "name": "owner",
          "type": "address"
        },
        {
          "internalType": "address",
          "name": "spender",
          "type": "address"
        },
        {
          "internalType": "uint256",
          "name": "value",
          "type": "uint256"
        },
        {
          "internalType": "uint256",
          "name": "deadline",
          "type": "uint256"
        },
        {
          "internalType": "uint8",
          "name": "v",
          "type": "uint8"
        },
        {
          "internalType": "bytes32",
          "name": "r",
          "type": "bytes32"
        },
        {
          "internalType": "bytes32",
          "name": "s",
          "type": "bytes32"
        }
      ],
      "name": "permit",
      "outputs": [],
      "stateMutability": "nonpayable",
      "type": "function"
    },
    {
      "inputs": [
        {
          "internalType": "bytes",
          "name": "data",
          "type": "bytes"
        },
        {
          "internalType": "uint16",
          "name": "actionType",
          "type": "uint16"
        }
      ],
      "name": "permitAction",
      "outputs": [],
      "stateMutability": "nonpayable",
      "type": "function"
    },
    {
      "inputs": [
        {
          "internalType": "address",
          "name": "owner",
          "type": "address"
        },
        {
          "internalType": "address",
          "name": "spender",
          "type": "address"
        },
        {
          "internalType": "uint256",
          "name": "value",
          "type": "uint256"
        },
        {
          "internalType": "uint256",
          "name": "deadline",
          "type": "uint256"
        },
        {
          "internalType": "uint8",
          "name": "v",
          "type": "uint8"
        },
        {
          "internalType": "bytes32",
          "name": "r",
          "type": "bytes32"
        },
        {
          "internalType": "bytes32",
          "name": "s",
          "type": "bytes32"
        }
      ],
      "name": "permitBorrow",
      "outputs": [],
      "stateMutability": "nonpayable",
      "type": "function"
    },
    {
      "inputs": [],
      "name": "protocolFee",
      "outputs": [
        {
          "internalType": "uint256",
          "name": "",
          "type": "uint256"
        }
      ],
      "stateMutability": "view",
      "type": "function"
    },
    {
      "inputs": [],
      "name": "rateTimestamp",
      "outputs": [
        {
          "internalType": "uint256",
          "name": "",
          "type": "uint256"
        }
      ],
      "stateMutability": "view",
      "type": "function"
    },
    {
      "inputs": [],
      "name": "rateValidDuration",
      "outputs": [
        {
          "internalType": "uint256",
          "name": "",
          "type": "uint256"
        }
      ],
      "stateMutability": "view",
      "type": "function"
    },
    {
      "inputs": [
        {
          "internalType": "contract IOracle",
          "name": "_oracle",
          "type": "address"
        },
        {
          "internalType": "bytes",
          "name": "_oracleData",
          "type": "bytes"
        },
        {
          "internalType": "address",
          "name": "_conservator",
          "type": "address"
        },
        {
          "internalType": "uint256",
          "name": "_callerFee",
          "type": "uint256"
        },
        {
          "internalType": "uint256",
          "name": "_protocolFee",
          "type": "uint256"
        },
        {
          "internalType": "uint256",
          "name": "_liquidationBonusAmount",
          "type": "uint256"
        },
        {
          "internalType": "uint256",
          "name": "_minLiquidatorReward",
          "type": "uint256"
        },
        {
          "internalType": "uint256",
          "name": "_maxLiquidatorReward",
          "type": "uint256"
        },
        {
          "internalType": "uint256",
          "name": "_totalBorrowCap",
          "type": "uint256"
        },
        {
          "internalType": "uint256",
          "name": "_collateralizationRate",
          "type": "uint256"
        },
        {
          "internalType": "uint256",
          "name": "_liquidationCollateralizationRate",
          "type": "uint256"
        }
      ],
      "name": "setMarketConfig",
      "outputs": [],
      "stateMutability": "nonpayable",
      "type": "function"
    },
    {
      "inputs": [],
      "name": "totalBorrow",
      "outputs": [
        {
          "internalType": "uint128",
          "name": "elastic",
          "type": "uint128"
        },
        {
          "internalType": "uint128",
          "name": "base",
          "type": "uint128"
        }
      ],
      "stateMutability": "view",
      "type": "function"
    },
    {
      "inputs": [],
      "name": "totalBorrowCap",
      "outputs": [
        {
          "internalType": "uint256",
          "name": "",
          "type": "uint256"
        }
      ],
      "stateMutability": "view",
      "type": "function"
    },
    {
      "inputs": [],
      "name": "totalCollateralShare",
      "outputs": [
        {
          "internalType": "uint256",
          "name": "",
          "type": "uint256"
        }
      ],
      "stateMutability": "view",
      "type": "function"
    },
    {
      "inputs": [],
      "name": "totalSupply",
      "outputs": [
        {
          "internalType": "uint256",
          "name": "",
          "type": "uint256"
        }
      ],
      "stateMutability": "view",
      "type": "function"
    },
    {
      "inputs": [
        {
          "internalType": "address",
          "name": "to",
          "type": "address"
        },
        {
          "internalType": "uint256",
          "name": "amount",
          "type": "uint256"
        }
      ],
      "name": "transfer",
      "outputs": [
        {
          "internalType": "bool",
          "name": "",
          "type": "bool"
        }
      ],
      "stateMutability": "nonpayable",
      "type": "function"
    },
    {
      "inputs": [
        {
          "internalType": "address",
          "name": "from",
          "type": "address"
        },
        {
          "internalType": "address",
          "name": "to",
          "type": "address"
        },
        {
          "internalType": "uint256",
          "name": "amount",
          "type": "uint256"
        }
      ],
      "name": "transferFrom",
      "outputs": [
        {
          "internalType": "bool",
          "name": "",
          "type": "bool"
        }
      ],
      "stateMutability": "nonpayable",
      "type": "function"
    },
    {
      "inputs": [
        {
          "internalType": "address",
          "name": "newOwner",
          "type": "address"
        },
        {
          "internalType": "bool",
          "name": "direct",
          "type": "bool"
        },
        {
          "internalType": "bool",
          "name": "renounce",
          "type": "bool"
        }
      ],
      "name": "transferOwnership",
      "outputs": [],
      "stateMutability": "nonpayable",
      "type": "function"
    },
    {
      "inputs": [],
      "name": "updateExchangeRate",
      "outputs": [
        {
          "internalType": "bool",
          "name": "updated",
          "type": "bool"
        },
        {
          "internalType": "uint256",
          "name": "rate",
          "type": "uint256"
        }
      ],
      "stateMutability": "nonpayable",
      "type": "function"
    },
    {
      "inputs": [
        {
          "internalType": "enum Market.PauseType",
          "name": "_type",
          "type": "uint8"
        },
        {
          "internalType": "bool",
          "name": "val",
          "type": "bool"
        }
      ],
      "name": "updatePause",
      "outputs": [],
      "stateMutability": "nonpayable",
      "type": "function"
    },
    {
      "inputs": [
        {
          "internalType": "address",
          "name": "",
          "type": "address"
        }
      ],
      "name": "userBorrowPart",
      "outputs": [
        {
          "internalType": "uint256",
          "name": "",
          "type": "uint256"
        }
      ],
      "stateMutability": "view",
      "type": "function"
    },
    {
      "inputs": [
        {
          "internalType": "address",
          "name": "",
          "type": "address"
        }
      ],
      "name": "userCollateralShare",
      "outputs": [
        {
          "internalType": "uint256",
          "name": "",
          "type": "uint256"
        }
      ],
      "stateMutability": "view",
      "type": "function"
    },
    {
      "inputs": [],
      "name": "yieldBox",
      "outputs": [
        {
          "internalType": "contract YieldBox",
          "name": "",
          "type": "address"
        }
      ],
      "stateMutability": "view",
      "type": "function"
    }
  ],
  "bytecode": "0x61014080604052346200018a5762000017816200018f565b600f81526001602082016e546170696f63612042696742616e6760881b8152602060405162000046816200018f565b8381520192603160f81b845251902091208160e052610100918183524660a0526040519160208301907f8b73c3c69bb8fe3d512ecc4cf759cc79239f7b179b0ffacaa9a75d522b39400f92838352604085015260608401524660808401523060a084015260a0835260c083019280841060018060401b03851117620001745760408490525190206080523060c052610120908152600580546001600160a01b0319163390811790915560007f8be0079c531659141344cd1fd0a4f28419497f9722a3daafe3b4186f6b6457e08180a362013880601b5562015f90601c55612710601d55612ee06020556103e8602d556127b29283620001ac843960805183612384015260a0518361244f015260c0518361234e015260e051836123d3015251826123f9015251816123b00152f35b634e487b7160e01b600052604160045260246000fd5b600080fd5b604081019081106001600160401b03821117620001745760405256fe608080604052600436101561001357600080fd5b60003560e01c908162a02a2014611ba95750806302ce728f14611992578063078dfbe71461188e578063095ea7b3146118685780630c4e84f01461174e57806318160ddd146117325780631c9e379b146116f85780631d4d3a5d146116cf5780631da8bf10146116135780631fb8f81a146115f557806323b872dd14611451578063331960ff1461143357806334d441d0146114155780633644e515146113fa57806337b6b7b9146113dc57806338d52e0f146113b35780633ba0b9a9146113955780633f741adb1461137157806340626d8b1461135357806344de240a14611335578063473e3ce71461131757806348e4163e146112dd5780634e71e0c81461122f578063529898f214611212578063542afda3146111f457806357935462146111d65780636b19ad16146111b85780636c3d8b8f1461118f57806370a0823114611155578063727785471461111f57806374645ff31461108c57806374c9e4811461106e5780637dc0d1d0146110455780637ecebe001461100b5780637fa0b84e14610fda5780638285ef4014610fa857806387b2793714610f6e5780638c5d0ed314610f505780638da5cb5b14610f27578063910dd7c814610d0e578063932bc4f814610c3057806399a9702814610c015780639e15e89f14610bc7578063a9059cbb14610ae0578063b0e21e8a14610ac2578063b27c0e7414610a91578063b7113f1914610a6e578063bb4cfe3b14610a50578063bde39c5d14610a32578063ce8849ed14610a09578063d3fb2a381461059d578063d505accf146103fb578063d8dfeb45146103d2578063dd62ed3e14610381578063de40657714610358578063e0996cb61461033a578063e30c397814610311578063ea64dd56146102f3578063eec0f42e146102d55763f791395d146102b257600080fd5b346102d05760003660031901126102d0576020602754604051908152f35b600080fd5b346102d05760003660031901126102d0576020600c54604051908152f35b346102d05760003660031901126102d0576020601f54604051908152f35b346102d05760003660031901126102d0576006546040516001600160a01b039091168152602090f35b346102d05760003660031901126102d0576020601d54604051908152f35b346102d05760003660031901126102d0576009546040516001600160a01b039091168152602090f35b346102d05760403660031901126102d05761039a611bf5565b6103a2611c0b565b9060018060a01b038091166000526002602052604060002091166000526020526020604060002054604051908152f35b346102d05760003660031901126102d057600b546040516001600160a01b039091168152602090f35b346102d05761040936611c30565b9183919395949542116105585760018060a01b03928388169485600052600460205260406000209283546000198114610542576104ec956104e4956001830190556040519060208201927f9cc5629bbe7baa98a89f6f8c2c396b83ab62dbb6cbb12f17f1d6ba7e6f53e2668452600060408401528a6060840152898c1660808401528c60a084015260c083015260e082015260e081526104a881611ce8565b5190206104b361234b565b9060405190602082019261190160f01b845260228301526042820152604281526104dc81611d04565b519020612612565b919091612513565b16036104fd576104fb926126e5565b005b60405162461bcd60e51b815260206004820152601e60248201527f45524332305065726d69743a20696e76616c6964207369676e617475726500006044820152606490fd5b634e487b7160e01b600052601160045260246000fd5b60405162461bcd60e51b815260206004820152601d60248201527f45524332305065726d69743a206578706972656420646561646c696e650000006044820152606490fd5b346102d0576101603660031901126102d0576001600160a01b03600435818116908190036102d0576024916001600160401b0383358181116102d057366023820112156102d05780600401359182116102d057368583830101116102d057604435938385168095036102d05761061884600554163314611d89565b806109ca575b508482610868575b50505081610827575b50506064358061080f575b50608435806107f7575b5060a435806107e0575b5060c435806107bc575b5060e43580610798575b506101043580610766575b5061012435806106f3575b5061014435908161068557005b601e5482106106945750601f55005b60849060326040519162461bcd60e51b8352602060048401528201527f4d61726b65743a206c69717569646174696f6e436f6c6c61746572616c697a616044820152711d1a5bdb94985d19481d1bdbc81cdb585b1b60721b6064820152fd5b610702620186a0821115611dd4565b601f54811161071457601e5581610678565b60405162461bcd60e51b8152602060048201526025818401527f4d61726b65743a20636f6c6c61746572616c697a6174696f6e5261746520746f6044820152646f2062696760d81b6064820152608490fd5b806016547fae6e0ab3b95f0a53ff9660a390ccedcbbf1f2355dce974a9841af106fddcfaba600080a36016558161066d565b6107a6620186a08210611dd4565b6107b3601b548211611dd4565b601c5581610662565b6107ca620186a08210611dd4565b6107d7601c548210611dd4565b601b5581610658565b6107ee620186a08210611dd4565b601d558161064e565b610806620186a0821115611dd4565b601a5581610644565b61081e620186a0821115611dd4565b6019558161063a565b816008549182167f5a62d22209e370e38eea92cfddcd228e656e6ec139243392a760a7769f5877fd600080a36001600160a01b03191617600855818061062f565b8291610875601054611cae565b601f8111610969575b50600090601f84116001146108e6576000936108d9575b5050508160011b916000199060031b1c1916176010555b7fa6f004921c944d4b8bf6e38462b00f36a58d62495d56b51f571ab78f732c9815600080a1838084610626565b0101359050848680610895565b60106000908152601f198516955060008051602061275d83398151915293509091889160205b87821061094a575050846001961061092e575b50505050811b016010556108ac565b60001960f88660031b161c19920101351690558580868161091f565b828501909301358555600194909401938992918201919081019061090c565b6010600052909250905060008051602061275d833981519152601f840160051c8101602085106109c3575b91849391601f8994920160051c01905b8181106109b1575061087e565b600081558594508893506001016109a4565b5080610994565b600f80546001600160a01b0319169190911790557f0b2d6eb667d0522c3eb86e4288afecae6c11591ffd1345d4d12407e0598bca9b600080a18561061e565b346102d05760003660031901126102d0576008546040516001600160a01b039091168152602090f35b346102d05760003660031901126102d0576020602854604051908152f35b346102d05760003660031901126102d0576020601e54604051908152f35b346102d05760003660031901126102d057602060ff602554166040519015158152f35b346102d05760003660031901126102d05760406024548151906001600160401b03908181168352831c166020820152f35b346102d05760003660031901126102d0576020601a54604051908152f35b346102d05760403660031901126102d057610af9611bf5565b602435908115801590610bb5575b610b3d575b6040519182526001600160a01b031690339060008051602061273d83398151915290602090a3602060405160018152f35b336000526001602052604060002054610b5883821015612475565b6001600160a01b038216908333839003610b75575b505050610b0c565b610b8991610b848415156124ba565b611e55565b3360005260016020526040600020556000526040600020610bab838254611e62565b9055828083610b6d565b50336001600160a01b03821614610b07565b346102d05760403660031901126102d0576060610bee610be5611bf5565b60243590611fa1565b9060405192835260208301526040820152f35b346102d05760403660031901126102d0576020610c28610c1f611bf5565b60243590612219565b604051908152f35b346102d05760003660031901126102d057604051600090602b54610c5381611cae565b808352600191808316908115610ce65750600114610c8c575b610c8883610c7c81870382611d1f565b60405191829182611d40565b0390f35b602b600090815260209450917f11c44e4875b74d31ff9fd779bf2566af7bd15b87fc985d01f5094b89e3669e4f5b828410610cd357505050810190910190610c7c81610c6c565b8054858501870152928501928101610cba565b610c889550610c7c93506020915091849260ff191682840152151560051b8201019350610c6c565b346102d05760403660031901126102d0576001600160401b036004358181116102d057366023820112156102d0578060040135918211610f115760405191610d60601f8201601f191660200184611d1f565b808352602083019136602483830101116102d057816000926024602093018537840101526024359161ffff831683036102d0576101009182828051810103126102d057610dac90612112565b610db8604083016124ff565b91610dc5606082016124ff565b9460808201519460a08301519260c08101519160ff831683036102d05760e082015191015191844211610558578515610eeb577f9cc5629bbe7baa98a89f6f8c2c396b83ab62dbb6cbb12f17f1d6ba7e6f53e2665b6001600160a01b0388166000908152600460205260409020805490969060001981146105425761ffff6104e497610ea89960018401905560405194602086015216604084015260018060a01b038a16606084015260018060a01b038c1660808401528a60a084015260c083015260e082015260e08152610e9981611ce8565b602081519101206104b361234b565b6001600160a01b038381169116036104fd5715610ed5576104fb926001600160a01b0390811691166126e5565b6104fb926001600160a01b039081169116612697565b7f5c9ba5f0d101616843d7918f48ea857d6da95e04ac6d719e105e50a355e7c5d6610e1a565b634e487b7160e01b600052604160045260246000fd5b346102d05760003660031901126102d0576005546040516001600160a01b039091168152602090f35b346102d05760003660031901126102d0576020601b54604051908152f35b346102d05760203660031901126102d0576001600160a01b03610f8f611bf5565b1660005260236020526020604060002054604051908152f35b346102d05760003660031901126102d057601454604080516001600160801b038316815260809290921c602083015290f35b346102d05760403660031901126102d057611000610ff6611bf5565b6024359033612697565b602060405160018152f35b346102d05760203660031901126102d0576001600160a01b0361102c611bf5565b1660005260046020526020604060002054604051908152f35b346102d05760003660031901126102d057600f546040516001600160a01b039091168152602090f35b346102d05760003660031901126102d0576020602d54604051908152f35b346102d05760003660031901126102d0576040516000906010546110af81611cae565b808352600191808316908115610ce657506001146110d757610c8883610c7c81870382611d1f565b60106000908152602094509160008051602061275d8339815191525b82841061110c57505050810190910190610c7c81610c6c565b80548585018701529285019281016110f3565b346102d05760203660031901126102d05760043560098110156102d05760ff611149602092611c7f565b54166040519015158152f35b346102d05760203660031901126102d0576001600160a01b03611176611bf5565b1660005260016020526020604060002054604051908152f35b346102d05760003660031901126102d057600a546040516001600160a01b039091168152602090f35b346102d05760003660031901126102d0576020602654604051908152f35b346102d05760003660031901126102d0576020601c54604051908152f35b346102d05760003660031901126102d0576020602c54604051908152f35b346102d05760003660031901126102d05760208054604051908152f35b346102d05760003660031901126102d0576006546001600160a01b03908181163381900361129957806005549384167f8be0079c531659141344cd1fd0a4f28419497f9722a3daafe3b4186f6b6457e0600080a36001600160a01b03199283161760055516600655005b606460405162461bcd60e51b815260206004820152602060248201527f4f776e61626c653a2063616c6c657220213d2070656e64696e67206f776e65726044820152fd5b346102d05760203660031901126102d0576001600160a01b036112fe611bf5565b1660005260176020526020604060002054604051908152f35b346102d05760003660031901126102d0576020601554604051908152f35b346102d05760003660031901126102d0576020600e54604051908152f35b346102d05760003660031901126102d0576020601654604051908152f35b346102d05760603660031901126102d0576020610c28604435602435600435611e88565b346102d05760003660031901126102d0576020601154604051908152f35b346102d05760003660031901126102d057600d546040516001600160a01b039091168152602090f35b346102d05760003660031901126102d0576020601254604051908152f35b346102d05760003660031901126102d0576020610c2861234b565b346102d05760003660031901126102d0576020601954604051908152f35b346102d05760003660031901126102d0576020601354604051908152f35b346102d05760603660031901126102d05761146a611bf5565b611472611c0b565b60443590816114af575b6040519182526001600160a01b0390811692169060008051602061273d83398151915290602090a3602060405160018152f35b60018060a01b038084168060005260206001815284604060002054936114d782861015612475565b8516938484036114ec575b505050505061147c565b836000526002835260406000203360005283526040600020546000198103611560575b50849261153760008051602061273d833981519152979593600193610b8460209915156124ba565b92600052526040600020556000526040600020611555858254611e62565b9055918584816114e2565b909181106115b557602094926115378860008051602061273d83398151915298969461158e82600196611e55565b8660005260028552604060002033600052855260406000205593509395975050929461150f565b60405162461bcd60e51b815260048101849052601860248201527745524332303a20616c6c6f77616e636520746f6f206c6f7760401b6044820152606490fd5b346102d05760003660031901126102d0576020602954604051908152f35b346102d05761162136611c30565b9183919395949542116105585760018060a01b03928388169485600052600460205260406000209283546000198114610542576116c0956104e4956001830190556040519060208201927f5c9ba5f0d101616843d7918f48ea857d6da95e04ac6d719e105e50a355e7c5d68452600060408401528a6060840152898c1660808401528c60a084015260c083015260e082015260e081526104a881611ce8565b16036104fd576104fb92612697565b346102d05760003660031901126102d057602a546040516001600160a01b039091168152602090f35b346102d05760203660031901126102d0576001600160a01b03611719611bf5565b1660005260186020526020604060002054604051908152f35b346102d05760003660031901126102d057602060405160008152f35b346102d05760403660031901126102d05760043560098110156102d057611773611c21565b6008549091906001600160a01b0316330361182c5760ff61179382611c7f565b541615159115159182146117f257808260ff6117b16117e094611c7f565b54161515827feeec81de25875ce1725479bb76f720a8defdb43dea041919ae37bb4aae9847c0600080a4611c7f565b9060ff80198354169116179055600080f35b60405162461bcd60e51b81526020600482015260126024820152714d61726b65743a2073616d6520737461746560701b6044820152606490fd5b60405162461bcd60e51b815260206004820152601460248201527313585c9ad95d0e881d5b985d5d1a1bdc9a5e995960621b6044820152606490fd5b346102d05760403660031901126102d057611000611884611bf5565b60243590336126e5565b346102d05760603660031901126102d0576118a7611bf5565b6118af611c21565b6044359081151582036102d05760018060a01b039283916118d583600554163314611d89565b15611979571690811590811591611971575b501561193457806005549283167f8be0079c531659141344cd1fd0a4f28419497f9722a3daafe3b4186f6b6457e0600080a36001600160a01b031991821617600555600680549091169055005b60405162461bcd60e51b81526020600482015260156024820152744f776e61626c653a207a65726f206164647265737360581b6044820152606490fd5b9050836118e7565b9150501660018060a01b03196006541617600655600080f35b346102d05760003660031901126102d05760018060a01b03600f54166040519063d6d7d52560e01b82526020918260048201526000916010546119d481611cae565b908160248501526001908181169081600014611b835750600114611b43575b50509060409181600081809603925af18015611b3757600091600091611af8575b508115611a9b578015611a5f5760409281601155817f9f9192b5edb17356c524e08d9e025c8e2f6307e6ea52fb7968faa3081f51c3c8600080a25b4260135583519215158352820152f35b60405162461bcd60e51b81526004810184905260146024820152734d61726b65743a20696e76616c6964207261746560601b6044820152606490fd5b50611aab60135460125490611e62565b4211611abc57601154604092611a4f565b60405162461bcd60e51b815260048101839052601460248201527313585c9ad95d0e881c985d19481d1bdbc81bdb1960621b6044820152606490fd5b9150506040813d604011611b2f575b81611b1460409383611d1f565b810103126102d05781611b2682612112565b91015183611a14565b3d9150611b07565b6040513d6000823e3d90fd5b935060106000528460002093856000955b838710611b6e5750505050918101604401918060406119f3565b80548688016044015295019486908201611b54565b60ff191660448087019190915292151560051b85019092019450829150604090506119f3565b346102d05760403660031901126102d057602090611bc5611bf5565b611bcd611c0b565b9060018060a01b03809116600052600384526040600020911660005282526040600020548152f35b600435906001600160a01b03821682036102d057565b602435906001600160a01b03821682036102d057565b6024359081151582036102d057565b60e09060031901126102d0576001600160a01b039060043582811681036102d0579160243590811681036102d05790604435906064359060843560ff811681036102d0579060a4359060c43590565b6009811015611c98576000526007602052604060002090565b634e487b7160e01b600052602160045260246000fd5b90600182811c92168015611cde575b6020831014611cc857565b634e487b7160e01b600052602260045260246000fd5b91607f1691611cbd565b61010081019081106001600160401b03821117610f1157604052565b608081019081106001600160401b03821117610f1157604052565b90601f801991011681019081106001600160401b03821117610f1157604052565b6020808252825181830181905290939260005b828110611d7557505060409293506000838284010152601f8019910116010190565b818101860151848201604001528501611d53565b15611d9057565b606460405162461bcd60e51b815260206004820152602060248201527f4f776e61626c653a2063616c6c6572206973206e6f7420746865206f776e65726044820152fd5b15611ddb57565b60405162461bcd60e51b815260206004820152601160248201527013585c9ad95d0e881b9bdd081d985b1a59607a1b6044820152606490fd5b8181029291811591840414171561054257565b8115611e31570490565b634e487b7160e01b600052601260045260246000fd5b604d811161054257600a0a90565b9190820391821161054257565b9190820180921161054257565b8181039291600013801582851316918412161761054257565b601454919291611ed191611ec291611eb891611eae906001600160801b03831690611e14565b9060801c90611e27565b93601f5490611e14565b611ecb83611e47565b90611e27565b808310611f9957611ee5611f219184611e55565b91611f1c611f16611f0d601e54611f07611efe86611e47565b60205490611e62565b90611e14565b611ecb84611e47565b91611e47565b611e6f565b6509184e72a0009081810291818305149015171561054257670de0b6b3a764000091828102928184051490151715610542578015611e3157600160ff1b918083146000198314166105425705906000821215611f9257811461054257600003905b808211611f8d575090565b905090565b5090611f82565b505050600090565b9160018060a01b0380931691600093838552602060178152604091828720549081156121055783518481018181106001600160401b038211176120f1578552888152888480830193828552611ff789151561211f565b600954166064600c548c85526018845289852054928a51958694859363442c159960e01b85526004850152602484015260448301525afa9081156120e7578a916120b4575b506120a897989994926018949261208b6120768a61207161206861209497620186a06021540490611e14565b601e5490611e14565b611e27565b915191946001600160801b0392831690611e14565b91511690611e27565b8181106120ac57035b97835252205461216b565b9091565b50508261209d565b90508481813d83116120e0575b6120cb8183611d1f565b810103126120dc57516120a861203c565b8980fd5b503d6120c1565b86513d8c823e3d90fd5b634e487b7160e01b8a52604160045260248afd5b5086955085949350505050565b519081151582036102d057565b1561212657565b60405162461bcd60e51b815260206004820152601e60248201527f4d61726b65743a2065786368616e676552617465206e6f742076616c696400006044820152606490fd5b61217682151561211f565b602060018060a01b0360095416916064600c54604051948593849263442c159960e01b845260048401526024830152600060448301525afa908115611b37576000916121e3575b50906120716121cf9260215490611e14565b620186a06121df601e5483611e14565b0491565b906020823d8211612211575b816121fc60209383611d1f565b8101031261220e5750516120716121bd565b80fd5b3d91506121ef565b6001600160a01b0316600081815260186020526040812054909261223c9161216b565b91835260176020526040832054801561234557811561234557818110612345578281101561233b57601454612285918391610b8491611eae906001600160801b03831690611e14565b90620186a09283830292808404851490151715612327576122aa9291611ecb91611e55565b91601b5491601c54936122bd8585611e6f565b80820291848212600160ff1b82141661232757818305149015171561231357058184820194851291129080158216911516176122ff5750808212611f8d575090565b634e487b7160e01b81526011600452602490fd5b634e487b7160e01b83526011600452602483fd5b634e487b7160e01b85526011600452602485fd5b50505050601b5490565b50505090565b307f00000000000000000000000000000000000000000000000000000000000000006001600160a01b0316148061244c575b156123a6577f000000000000000000000000000000000000000000000000000000000000000090565b60405160208101907f000000000000000000000000000000000000000000000000000000000000000082527f000000000000000000000000000000000000000000000000000000000000000060408201527f000000000000000000000000000000000000000000000000000000000000000060608201524660808201523060a082015260a0815260c081018181106001600160401b03821117610f115760405251902090565b507f0000000000000000000000000000000000000000000000000000000000000000461461237d565b1561247c57565b60405162461bcd60e51b815260206004820152601660248201527545524332303a2062616c616e636520746f6f206c6f7760501b6044820152606490fd5b156124c157565b60405162461bcd60e51b815260206004820152601660248201527545524332303a206e6f207a65726f206164647265737360501b6044820152606490fd5b51906001600160a01b03821682036102d057565b6005811015611c9857806125245750565b6001810361256c5760405162461bcd60e51b815260206004820152601860248201527745434453413a20696e76616c6964207369676e617475726560401b6044820152606490fd5b600281036125b95760405162461bcd60e51b815260206004820152601f60248201527f45434453413a20696e76616c6964207369676e6174757265206c656e677468006044820152606490fd5b6003146125c257565b60405162461bcd60e51b815260206004820152602260248201527f45434453413a20696e76616c6964207369676e6174757265202773272076616c604482015261756560f01b6064820152608490fd5b9291906fa2a8918ca85bafe22016d0b997e4df60600160ff1b03831161268b5791608094939160ff602094604051948552168484015260408301526060820152600093849182805260015afa1561267e5781516001600160a01b03811615612678579190565b50600190565b50604051903d90823e3d90fd5b50505050600090600390565b7fe50de2333c10a9502fcb1d8ae13a51bbf423153dfc63c2b8997665b32154afc360018060a01b038092169160009083825260036020526040822094169384825260205284604082205580a4565b909160207f8c5be1e5ebec7d5bd14f71427d1e84f3dd0314c0f7b2291e5b200ac8c7c3b9259160018060a01b03809416938460005260028352604060002095169485600052825280604060002055604051908152a356feddf252ad1be2c89b69c2b068fc378daa952ba7f163c4a11628f55a4df523b3ef1b6847dc741a1b0cd08d278845f9d819d87b734759afb55fe2de5cb82a9ae672a2646970667358221220a1f57aa74ba0e0d61c5f384052bbd0214403e2555455c840b50acfdc9c6ed70b64736f6c63430008120033",
  "linkReferences": {},
  "deployedLinkReferences": {}
}