{
  "_format": "hh-sol-artifact-1",
  "contractName": "BigBang",
  "sourceName": "contracts/markets/bigBang/BigBang.sol",
  "abi": [
    {
      "inputs": [],
      "name": "BadPair",
      "type": "error"
    },
    {
      "inputs": [],
      "name": "DebtRatesNotValid",
      "type": "error"
    },
    {
      "inputs": [],
      "name": "InvalidShortString",
      "type": "error"
    },
    {
      "inputs": [],
      "name": "MaxDebtRateNotValid",
      "type": "error"
    },
    {
      "inputs": [],
      "name": "ModuleNotSet",
      "type": "error"
    },
    {
      "inputs": [],
      "name": "NotEnough",
      "type": "error"
    },
    {
      "inputs": [],
      "name": "NotValid",
      "type": "error"
    },
    {
      "inputs": [
        {
          "internalType": "string",
          "name": "str",
          "type": "string"
        }
      ],
      "name": "StringTooLong",
      "type": "error"
    },
    {
      "inputs": [],
      "name": "TransferFailed",
      "type": "error"
    },
    {
      "anonymous": false,
      "inputs": [
        {
          "indexed": true,
          "internalType": "address",
          "name": "owner",
          "type": "address"
        },
        {
          "indexed": true,
          "internalType": "address",
          "name": "spender",
          "type": "address"
        },
        {
          "indexed": false,
          "internalType": "uint256",
          "name": "value",
          "type": "uint256"
        }
      ],
      "name": "Approval",
      "type": "event"
    },
    {
      "anonymous": false,
      "inputs": [
        {
          "indexed": true,
          "internalType": "address",
          "name": "owner",
          "type": "address"
        },
        {
          "indexed": true,
          "internalType": "address",
          "name": "spender",
          "type": "address"
        },
        {
          "indexed": true,
          "internalType": "uint256",
          "name": "value",
          "type": "uint256"
        }
      ],
      "name": "ApprovalBorrow",
      "type": "event"
    },
    {
      "anonymous": false,
      "inputs": [],
      "name": "AssetOracleDataUpdated",
      "type": "event"
    },
    {
      "anonymous": false,
      "inputs": [
        {
          "indexed": true,
          "internalType": "address",
          "name": "oldVal",
          "type": "address"
        },
        {
          "indexed": true,
          "internalType": "address",
          "name": "newVal",
          "type": "address"
        }
      ],
      "name": "AssetOracleUpdated",
      "type": "event"
    },
    {
      "anonymous": false,
      "inputs": [
        {
          "indexed": true,
          "internalType": "address",
          "name": "old",
          "type": "address"
        },
        {
          "indexed": true,
          "internalType": "address",
          "name": "_new",
          "type": "address"
        }
      ],
      "name": "ConservatorUpdated",
      "type": "event"
    },
    {
      "anonymous": false,
      "inputs": [
        {
          "indexed": true,
          "internalType": "uint256",
          "name": "oldVal",
          "type": "uint256"
        },
        {
          "indexed": true,
          "internalType": "uint256",
          "name": "newVal",
          "type": "uint256"
        }
      ],
      "name": "DebtRateAgainstEthUpdated",
      "type": "event"
    },
    {
      "anonymous": false,
      "inputs": [],
      "name": "EIP712DomainChanged",
      "type": "event"
    },
    {
      "anonymous": false,
      "inputs": [
        {
          "indexed": false,
          "internalType": "uint256",
          "name": "_oldVal",
          "type": "uint256"
        },
        {
          "indexed": false,
          "internalType": "uint256",
          "name": "_newVal",
          "type": "uint256"
        }
      ],
      "name": "ExchangeRateDurationUpdated",
      "type": "event"
    },
    {
      "anonymous": false,
      "inputs": [
        {
          "indexed": true,
          "internalType": "address",
          "name": "oldVal",
          "type": "address"
        },
        {
          "indexed": true,
          "internalType": "address",
          "name": "newVal",
          "type": "address"
        }
      ],
      "name": "LeverageExecutorSet",
      "type": "event"
    },
    {
      "anonymous": false,
      "inputs": [
        {
          "indexed": true,
          "internalType": "address",
          "name": "liquidator",
          "type": "address"
        },
        {
          "indexed": true,
          "internalType": "address[]",
          "name": "users",
          "type": "address[]"
        },
        {
          "indexed": true,
          "internalType": "uint256",
          "name": "liquidatorReward",
          "type": "uint256"
        },
        {
          "indexed": false,
          "internalType": "uint256",
          "name": "protocolReward",
          "type": "uint256"
        },
        {
          "indexed": false,
          "internalType": "uint256",
          "name": "repayedAmount",
          "type": "uint256"
        },
        {
          "indexed": false,
          "internalType": "uint256",
          "name": "collateralShareRemoved",
          "type": "uint256"
        }
      ],
      "name": "Liquidated",
      "type": "event"
    },
    {
      "anonymous": false,
      "inputs": [
        {
          "indexed": true,
          "internalType": "uint256",
          "name": "oldVal",
          "type": "uint256"
        },
        {
          "indexed": true,
          "internalType": "uint256",
          "name": "newVal",
          "type": "uint256"
        }
      ],
      "name": "LiquidationMultiplierUpdated",
      "type": "event"
    },
    {
      "anonymous": false,
      "inputs": [
        {
          "indexed": true,
          "internalType": "uint256",
          "name": "accruedAmount",
          "type": "uint256"
        },
        {
          "indexed": true,
          "internalType": "uint64",
          "name": "rate",
          "type": "uint64"
        }
      ],
      "name": "LogAccrue",
      "type": "event"
    },
    {
      "anonymous": false,
      "inputs": [
        {
          "indexed": true,
          "internalType": "address",
          "name": "from",
          "type": "address"
        },
        {
          "indexed": true,
          "internalType": "address",
          "name": "to",
          "type": "address"
        },
        {
          "indexed": true,
          "internalType": "uint256",
          "name": "share",
          "type": "uint256"
        }
      ],
      "name": "LogAddCollateral",
      "type": "event"
    },
    {
      "anonymous": false,
      "inputs": [
        {
          "indexed": true,
          "internalType": "address",
          "name": "from",
          "type": "address"
        },
        {
          "indexed": true,
          "internalType": "address",
          "name": "to",
          "type": "address"
        },
        {
          "indexed": true,
          "internalType": "uint256",
          "name": "amount",
          "type": "uint256"
        },
        {
          "indexed": false,
          "internalType": "uint256",
          "name": "feeAmount",
          "type": "uint256"
        },
        {
          "indexed": false,
          "internalType": "uint256",
          "name": "part",
          "type": "uint256"
        }
      ],
      "name": "LogBorrow",
      "type": "event"
    },
    {
      "anonymous": false,
      "inputs": [
        {
          "indexed": true,
          "internalType": "uint256",
          "name": "_oldVal",
          "type": "uint256"
        },
        {
          "indexed": true,
          "internalType": "uint256",
          "name": "_newVal",
          "type": "uint256"
        }
      ],
      "name": "LogBorrowCapUpdated",
      "type": "event"
    },
    {
      "anonymous": false,
      "inputs": [
        {
          "indexed": true,
          "internalType": "uint256",
          "name": "rate",
          "type": "uint256"
        }
      ],
      "name": "LogExchangeRate",
      "type": "event"
    },
    {
      "anonymous": false,
      "inputs": [
        {
          "indexed": true,
          "internalType": "address",
          "name": "from",
          "type": "address"
        },
        {
          "indexed": true,
          "internalType": "address",
          "name": "to",
          "type": "address"
        },
        {
          "indexed": true,
          "internalType": "uint256",
          "name": "share",
          "type": "uint256"
        }
      ],
      "name": "LogRemoveCollateral",
      "type": "event"
    },
    {
      "anonymous": false,
      "inputs": [
        {
          "indexed": true,
          "internalType": "address",
          "name": "from",
          "type": "address"
        },
        {
          "indexed": true,
          "internalType": "address",
          "name": "to",
          "type": "address"
        },
        {
          "indexed": true,
          "internalType": "uint256",
          "name": "amount",
          "type": "uint256"
        },
        {
          "indexed": false,
          "internalType": "uint256",
          "name": "part",
          "type": "uint256"
        }
      ],
      "name": "LogRepay",
      "type": "event"
    },
    {
      "anonymous": false,
      "inputs": [
        {
          "indexed": true,
          "internalType": "uint256",
          "name": "oldVal",
          "type": "uint256"
        },
        {
          "indexed": true,
          "internalType": "uint256",
          "name": "newVal",
          "type": "uint256"
        }
      ],
      "name": "MaxDebtRateUpdated",
      "type": "event"
    },
    {
      "anonymous": false,
      "inputs": [
        {
          "indexed": true,
          "internalType": "uint256",
          "name": "oldVal",
          "type": "uint256"
        },
        {
          "indexed": true,
          "internalType": "uint256",
          "name": "newVal",
          "type": "uint256"
        }
      ],
      "name": "MinDebtRateUpdated",
      "type": "event"
    },
    {
      "anonymous": false,
      "inputs": [],
      "name": "OracleDataUpdated",
      "type": "event"
    },
    {
      "anonymous": false,
      "inputs": [
        {
          "indexed": false,
          "internalType": "address",
          "name": "newAddr",
          "type": "address"
        }
      ],
      "name": "OracleUpdated",
      "type": "event"
    },
    {
      "anonymous": false,
      "inputs": [
        {
          "indexed": true,
          "internalType": "address",
          "name": "previousOwner",
          "type": "address"
        },
        {
          "indexed": true,
          "internalType": "address",
          "name": "newOwner",
          "type": "address"
        }
      ],
      "name": "OwnershipTransferred",
      "type": "event"
    },
    {
      "anonymous": false,
      "inputs": [
        {
          "indexed": true,
          "internalType": "enum Market.PauseType",
          "name": "_type",
          "type": "uint8"
        },
        {
          "indexed": true,
          "internalType": "bool",
          "name": "oldState",
          "type": "bool"
        },
        {
          "indexed": true,
          "internalType": "bool",
          "name": "newState",
          "type": "bool"
        }
      ],
      "name": "PausedUpdated",
      "type": "event"
    },
    {
      "anonymous": false,
      "inputs": [
        {
          "indexed": true,
          "internalType": "address",
          "name": "from",
          "type": "address"
        },
        {
          "indexed": true,
          "internalType": "address",
          "name": "to",
          "type": "address"
        },
        {
          "indexed": false,
          "internalType": "uint256",
          "name": "value",
          "type": "uint256"
        }
      ],
      "name": "Transfer",
      "type": "event"
    },
    {
      "anonymous": false,
      "inputs": [
        {
          "indexed": true,
          "internalType": "uint256",
          "name": "oldMin",
          "type": "uint256"
        },
        {
          "indexed": true,
          "internalType": "uint256",
          "name": "newMin",
          "type": "uint256"
        },
        {
          "indexed": true,
          "internalType": "uint256",
          "name": "oldMax",
          "type": "uint256"
        },
        {
          "indexed": false,
          "internalType": "uint256",
          "name": "newMax",
          "type": "uint256"
        }
      ],
      "name": "UpdateMinMaxMintFee",
      "type": "event"
    },
    {
      "anonymous": false,
      "inputs": [
        {
          "indexed": true,
          "internalType": "uint256",
          "name": "oldMin",
          "type": "uint256"
        },
        {
          "indexed": true,
          "internalType": "uint256",
          "name": "newMin",
          "type": "uint256"
        },
        {
          "indexed": true,
          "internalType": "uint256",
          "name": "oldMax",
          "type": "uint256"
        },
        {
          "indexed": false,
          "internalType": "uint256",
          "name": "newMax",
          "type": "uint256"
        }
      ],
      "name": "UpdateMinMaxMintRange",
      "type": "event"
    },
    {
      "anonymous": false,
      "inputs": [
        {
          "indexed": true,
          "internalType": "uint256",
          "name": "valType",
          "type": "uint256"
        },
        {
          "indexed": true,
          "internalType": "uint256",
          "name": "_newVal",
          "type": "uint256"
        }
      ],
      "name": "ValueUpdated",
      "type": "event"
    },
    {
      "inputs": [],
      "name": "DOMAIN_SEPARATOR",
      "outputs": [
        {
          "internalType": "bytes32",
          "name": "",
          "type": "bytes32"
        }
      ],
      "stateMutability": "view",
      "type": "function"
    },
    {
      "inputs": [],
      "name": "accrue",
      "outputs": [],
      "stateMutability": "nonpayable",
      "type": "function"
    },
    {
      "inputs": [],
      "name": "accrueInfo",
      "outputs": [
        {
          "internalType": "uint64",
          "name": "debtRate",
          "type": "uint64"
        },
        {
          "internalType": "uint64",
          "name": "lastAccrued",
          "type": "uint64"
        }
      ],
      "stateMutability": "view",
      "type": "function"
    },
    {
      "inputs": [
        {
          "internalType": "address",
          "name": "from",
          "type": "address"
        },
        {
          "internalType": "address",
          "name": "to",
          "type": "address"
        },
        {
          "internalType": "bool",
          "name": "skim",
          "type": "bool"
        },
        {
          "internalType": "uint256",
          "name": "amount",
          "type": "uint256"
        },
        {
          "internalType": "uint256",
          "name": "share",
          "type": "uint256"
        }
      ],
      "name": "addCollateral",
      "outputs": [],
      "stateMutability": "nonpayable",
      "type": "function"
    },
    {
      "inputs": [
        {
          "internalType": "address",
          "name": "",
          "type": "address"
        },
        {
          "internalType": "address",
          "name": "",
          "type": "address"
        }
      ],
      "name": "allowance",
      "outputs": [
        {
          "internalType": "uint256",
          "name": "",
          "type": "uint256"
        }
      ],
      "stateMutability": "view",
      "type": "function"
    },
    {
      "inputs": [
        {
          "internalType": "address",
          "name": "",
          "type": "address"
        },
        {
          "internalType": "address",
          "name": "",
          "type": "address"
        }
      ],
      "name": "allowanceBorrow",
      "outputs": [
        {
          "internalType": "uint256",
          "name": "",
          "type": "uint256"
        }
      ],
      "stateMutability": "view",
      "type": "function"
    },
    {
      "inputs": [
        {
          "internalType": "address",
          "name": "spender",
          "type": "address"
        },
        {
          "internalType": "uint256",
          "name": "amount",
          "type": "uint256"
        }
      ],
      "name": "approve",
      "outputs": [
        {
          "internalType": "bool",
          "name": "",
          "type": "bool"
        }
      ],
      "stateMutability": "nonpayable",
      "type": "function"
    },
    {
      "inputs": [
        {
          "internalType": "address",
          "name": "spender",
          "type": "address"
        },
        {
          "internalType": "uint256",
          "name": "amount",
          "type": "uint256"
        }
      ],
      "name": "approveBorrow",
      "outputs": [
        {
          "internalType": "bool",
          "name": "",
          "type": "bool"
        }
      ],
      "stateMutability": "nonpayable",
      "type": "function"
    },
    {
      "inputs": [],
      "name": "asset",
      "outputs": [
        {
          "internalType": "contract IERC20",
          "name": "",
          "type": "address"
        }
      ],
      "stateMutability": "view",
      "type": "function"
    },
    {
      "inputs": [],
      "name": "assetId",
      "outputs": [
        {
          "internalType": "uint256",
          "name": "",
          "type": "uint256"
        }
      ],
      "stateMutability": "view",
      "type": "function"
    },
    {
      "inputs": [],
      "name": "assetOracle",
      "outputs": [
        {
          "internalType": "contract ITapiocaOracle",
          "name": "",
          "type": "address"
        }
      ],
      "stateMutability": "view",
      "type": "function"
    },
    {
      "inputs": [],
      "name": "assetOracleData",
      "outputs": [
        {
          "internalType": "bytes",
          "name": "",
          "type": "bytes"
        }
      ],
      "stateMutability": "view",
      "type": "function"
    },
    {
      "inputs": [
        {
          "internalType": "address",
          "name": "",
          "type": "address"
        }
      ],
      "name": "balanceOf",
      "outputs": [
        {
          "internalType": "uint256",
          "name": "",
          "type": "uint256"
        }
      ],
      "stateMutability": "view",
      "type": "function"
    },
    {
      "inputs": [
        {
          "internalType": "address",
          "name": "from",
          "type": "address"
        },
        {
          "internalType": "address",
          "name": "to",
          "type": "address"
        },
        {
          "internalType": "uint256",
          "name": "amount",
          "type": "uint256"
        }
      ],
      "name": "borrow",
      "outputs": [
        {
          "internalType": "uint256",
          "name": "part",
          "type": "uint256"
        },
        {
          "internalType": "uint256",
          "name": "share",
          "type": "uint256"
        }
      ],
      "stateMutability": "nonpayable",
      "type": "function"
    },
    {
      "inputs": [],
      "name": "borrowModule",
      "outputs": [
        {
          "internalType": "contract BBBorrow",
          "name": "",
          "type": "address"
        }
      ],
      "stateMutability": "view",
      "type": "function"
    },
    {
      "inputs": [
        {
          "internalType": "address",
          "name": "from",
          "type": "address"
        },
        {
          "internalType": "uint256",
          "name": "borrowAmount",
          "type": "uint256"
        },
        {
          "internalType": "uint256",
          "name": "supplyAmount",
          "type": "uint256"
        },
        {
          "internalType": "bytes",
          "name": "data",
          "type": "bytes"
        }
      ],
      "name": "buyCollateral",
      "outputs": [
        {
          "internalType": "uint256",
          "name": "amountOut",
          "type": "uint256"
        }
      ],
      "stateMutability": "nonpayable",
      "type": "function"
    },
    {
      "inputs": [],
      "name": "callerFee",
      "outputs": [
        {
          "internalType": "uint256",
          "name": "",
          "type": "uint256"
        }
      ],
      "stateMutability": "view",
      "type": "function"
    },
    {
      "inputs": [],
      "name": "claimOwnership",
      "outputs": [],
      "stateMutability": "nonpayable",
      "type": "function"
    },
    {
      "inputs": [],
      "name": "collateral",
      "outputs": [
        {
          "internalType": "contract IERC20",
          "name": "",
          "type": "address"
        }
      ],
      "stateMutability": "view",
      "type": "function"
    },
    {
      "inputs": [],
      "name": "collateralId",
      "outputs": [
        {
          "internalType": "uint256",
          "name": "",
          "type": "uint256"
        }
      ],
      "stateMutability": "view",
      "type": "function"
    },
    {
      "inputs": [],
      "name": "collateralModule",
      "outputs": [
        {
          "internalType": "contract BBCollateral",
          "name": "",
          "type": "address"
        }
      ],
      "stateMutability": "view",
      "type": "function"
    },
    {
      "inputs": [],
      "name": "collateralizationRate",
      "outputs": [
        {
          "internalType": "uint256",
          "name": "",
          "type": "uint256"
        }
      ],
      "stateMutability": "view",
      "type": "function"
    },
    {
      "inputs": [
        {
          "internalType": "uint256",
          "name": "borrowPart",
          "type": "uint256"
        },
        {
          "internalType": "uint256",
          "name": "collateralPartInAsset",
          "type": "uint256"
        },
        {
          "internalType": "uint256",
          "name": "ratesPrecision",
          "type": "uint256"
        }
      ],
      "name": "computeClosingFactor",
      "outputs": [
        {
          "internalType": "uint256",
          "name": "",
          "type": "uint256"
        }
      ],
      "stateMutability": "view",
      "type": "function"
    },
    {
      "inputs": [
        {
          "internalType": "address",
          "name": "user",
          "type": "address"
        },
        {
          "internalType": "uint256",
          "name": "_exchangeRate",
          "type": "uint256"
        }
      ],
      "name": "computeLiquidatorReward",
      "outputs": [
        {
          "internalType": "uint256",
          "name": "",
          "type": "uint256"
        }
      ],
      "stateMutability": "view",
      "type": "function"
    },
    {
      "inputs": [
        {
          "internalType": "address",
          "name": "user",
          "type": "address"
        },
        {
          "internalType": "uint256",
          "name": "_exchangeRate",
          "type": "uint256"
        }
      ],
      "name": "computeTVLInfo",
      "outputs": [
        {
          "internalType": "uint256",
          "name": "amountToSolvency",
          "type": "uint256"
        },
        {
          "internalType": "uint256",
          "name": "minTVL",
          "type": "uint256"
        },
        {
          "internalType": "uint256",
          "name": "maxTVL",
          "type": "uint256"
        }
      ],
      "stateMutability": "view",
      "type": "function"
    },
    {
      "inputs": [],
      "name": "conservator",
      "outputs": [
        {
          "internalType": "address",
          "name": "",
          "type": "address"
        }
      ],
      "stateMutability": "view",
      "type": "function"
    },
    {
      "inputs": [],
      "name": "debtRateAgainstEthMarket",
      "outputs": [
        {
          "internalType": "uint256",
          "name": "",
          "type": "uint256"
        }
      ],
      "stateMutability": "view",
      "type": "function"
    },
    {
      "inputs": [],
      "name": "eip712Domain",
      "outputs": [
        {
          "internalType": "bytes1",
          "name": "fields",
          "type": "bytes1"
        },
        {
          "internalType": "string",
          "name": "name",
          "type": "string"
        },
        {
          "internalType": "string",
          "name": "version",
          "type": "string"
        },
        {
          "internalType": "uint256",
          "name": "chainId",
          "type": "uint256"
        },
        {
          "internalType": "address",
          "name": "verifyingContract",
          "type": "address"
        },
        {
          "internalType": "bytes32",
          "name": "salt",
          "type": "bytes32"
        },
        {
          "internalType": "uint256[]",
          "name": "extensions",
          "type": "uint256[]"
        }
      ],
      "stateMutability": "view",
      "type": "function"
    },
    {
      "inputs": [],
      "name": "exchangeRate",
      "outputs": [
        {
          "internalType": "uint256",
          "name": "",
          "type": "uint256"
        }
      ],
      "stateMutability": "view",
      "type": "function"
    },
    {
      "inputs": [
        {
          "internalType": "bytes[]",
          "name": "calls",
          "type": "bytes[]"
        },
        {
          "internalType": "bool",
          "name": "revertOnFail",
          "type": "bool"
        }
      ],
      "name": "execute",
      "outputs": [
        {
          "internalType": "bool[]",
          "name": "successes",
          "type": "bool[]"
        },
        {
          "internalType": "string[]",
          "name": "results",
          "type": "string[]"
        }
      ],
      "stateMutability": "nonpayable",
      "type": "function"
    },
    {
      "inputs": [],
      "name": "getDebtRate",
      "outputs": [
        {
          "internalType": "uint256",
          "name": "",
          "type": "uint256"
        }
      ],
      "stateMutability": "view",
      "type": "function"
    },
    {
      "inputs": [],
      "name": "getTotalDebt",
      "outputs": [
        {
          "internalType": "uint256",
          "name": "",
          "type": "uint256"
        }
      ],
      "stateMutability": "view",
      "type": "function"
    },
    {
      "inputs": [
        {
          "internalType": "bytes",
          "name": "data",
          "type": "bytes"
        }
      ],
      "name": "init",
      "outputs": [],
      "stateMutability": "nonpayable",
      "type": "function"
    },
    {
      "inputs": [],
      "name": "isMainMarket",
      "outputs": [
        {
          "internalType": "bool",
          "name": "",
          "type": "bool"
        }
      ],
      "stateMutability": "view",
      "type": "function"
    },
    {
      "inputs": [],
      "name": "leverageExecutor",
      "outputs": [
        {
          "internalType": "contract ILeverageExecutor",
          "name": "",
          "type": "address"
        }
      ],
      "stateMutability": "view",
      "type": "function"
    },
    {
      "inputs": [],
      "name": "leverageModule",
      "outputs": [
        {
          "internalType": "contract BBLeverage",
          "name": "",
          "type": "address"
        }
      ],
      "stateMutability": "view",
      "type": "function"
    },
    {
      "inputs": [
        {
          "internalType": "address[]",
          "name": "users",
          "type": "address[]"
        },
        {
          "internalType": "uint256[]",
          "name": "maxBorrowParts",
          "type": "uint256[]"
        },
        {
          "internalType": "uint256[]",
          "name": "minLiquidationBonuses",
          "type": "uint256[]"
        },
        {
          "internalType": "contract IMarketLiquidatorReceiver[]",
          "name": "liquidatorReceivers",
          "type": "address[]"
        },
        {
          "internalType": "bytes[]",
          "name": "liquidatorReceiverDatas",
          "type": "bytes[]"
        }
      ],
      "name": "liquidate",
      "outputs": [],
      "stateMutability": "nonpayable",
      "type": "function"
    },
    {
      "inputs": [
        {
          "internalType": "address",
          "name": "user",
          "type": "address"
        },
        {
          "internalType": "address",
          "name": "from",
          "type": "address"
        },
        {
          "internalType": "address",
          "name": "receiver",
          "type": "address"
        },
        {
          "internalType": "contract IMarketLiquidatorReceiver",
          "name": "liquidatorReceiver",
          "type": "address"
        },
        {
          "internalType": "bytes",
          "name": "liquidatorReceiverData",
          "type": "bytes"
        },
        {
          "internalType": "bool",
          "name": "swapCollateral",
          "type": "bool"
        }
      ],
      "name": "liquidateBadDebt",
      "outputs": [],
      "stateMutability": "nonpayable",
      "type": "function"
    },
    {
      "inputs": [],
      "name": "liquidationBonusAmount",
      "outputs": [
        {
          "internalType": "uint256",
          "name": "",
          "type": "uint256"
        }
      ],
      "stateMutability": "view",
      "type": "function"
    },
    {
      "inputs": [],
      "name": "liquidationCollateralizationRate",
      "outputs": [
        {
          "internalType": "uint256",
          "name": "",
          "type": "uint256"
        }
      ],
      "stateMutability": "view",
      "type": "function"
    },
    {
      "inputs": [],
      "name": "liquidationModule",
      "outputs": [
        {
          "internalType": "contract BBLiquidation",
          "name": "",
          "type": "address"
        }
      ],
      "stateMutability": "view",
      "type": "function"
    },
    {
      "inputs": [],
      "name": "liquidationMultiplier",
      "outputs": [
        {
          "internalType": "uint256",
          "name": "",
          "type": "uint256"
        }
      ],
      "stateMutability": "view",
      "type": "function"
    },
    {
      "inputs": [],
      "name": "maxDebtRate",
      "outputs": [
        {
          "internalType": "uint256",
          "name": "",
          "type": "uint256"
        }
      ],
      "stateMutability": "view",
      "type": "function"
    },
    {
      "inputs": [],
      "name": "maxLiquidatorReward",
      "outputs": [
        {
          "internalType": "uint256",
          "name": "",
          "type": "uint256"
        }
      ],
      "stateMutability": "view",
      "type": "function"
    },
    {
      "inputs": [],
      "name": "maxMintFee",
      "outputs": [
        {
          "internalType": "uint256",
          "name": "",
          "type": "uint256"
        }
      ],
      "stateMutability": "view",
      "type": "function"
    },
    {
      "inputs": [],
      "name": "maxMintFeeStart",
      "outputs": [
        {
          "internalType": "uint256",
          "name": "",
          "type": "uint256"
        }
      ],
      "stateMutability": "view",
      "type": "function"
    },
    {
      "inputs": [],
      "name": "minDebtRate",
      "outputs": [
        {
          "internalType": "uint256",
          "name": "",
          "type": "uint256"
        }
      ],
      "stateMutability": "view",
      "type": "function"
    },
    {
      "inputs": [],
      "name": "minLiquidatorReward",
      "outputs": [
        {
          "internalType": "uint256",
          "name": "",
          "type": "uint256"
        }
      ],
      "stateMutability": "view",
      "type": "function"
    },
    {
      "inputs": [],
      "name": "minMintFee",
      "outputs": [
        {
          "internalType": "uint256",
          "name": "",
          "type": "uint256"
        }
      ],
      "stateMutability": "view",
      "type": "function"
    },
    {
      "inputs": [],
      "name": "minMintFeeStart",
      "outputs": [
        {
          "internalType": "uint256",
          "name": "",
          "type": "uint256"
        }
      ],
      "stateMutability": "view",
      "type": "function"
    },
    {
      "inputs": [
        {
          "internalType": "address",
          "name": "owner",
          "type": "address"
        }
      ],
      "name": "nonces",
      "outputs": [
        {
          "internalType": "uint256",
          "name": "",
          "type": "uint256"
        }
      ],
      "stateMutability": "view",
      "type": "function"
    },
    {
      "inputs": [],
      "name": "oracle",
      "outputs": [
        {
          "internalType": "contract ITapiocaOracle",
          "name": "",
          "type": "address"
        }
      ],
      "stateMutability": "view",
      "type": "function"
    },
    {
      "inputs": [],
      "name": "oracleData",
      "outputs": [
        {
          "internalType": "bytes",
          "name": "",
          "type": "bytes"
        }
      ],
      "stateMutability": "view",
      "type": "function"
    },
    {
      "inputs": [],
      "name": "owner",
      "outputs": [
        {
          "internalType": "address",
          "name": "",
          "type": "address"
        }
      ],
      "stateMutability": "view",
      "type": "function"
    },
    {
      "inputs": [
        {
          "internalType": "enum Market.PauseType",
          "name": "pauseProp",
          "type": "uint8"
        }
      ],
      "name": "pauseOptions",
      "outputs": [
        {
          "internalType": "bool",
          "name": "pauseStatus",
          "type": "bool"
        }
      ],
      "stateMutability": "view",
      "type": "function"
    },
    {
      "inputs": [],
      "name": "pendingOwner",
      "outputs": [
        {
          "internalType": "address",
          "name": "",
          "type": "address"
        }
      ],
      "stateMutability": "view",
      "type": "function"
    },
    {
      "inputs": [],
      "name": "penrose",
      "outputs": [
        {
          "internalType": "contract IPenrose",
          "name": "",
          "type": "address"
        }
      ],
      "stateMutability": "view",
      "type": "function"
    },
    {
      "inputs": [
        {
          "internalType": "address",
          "name": "owner",
          "type": "address"
        },
        {
          "internalType": "address",
          "name": "spender",
          "type": "address"
        },
        {
          "internalType": "uint256",
          "name": "value",
          "type": "uint256"
        },
        {
          "internalType": "uint256",
          "name": "deadline",
          "type": "uint256"
        },
        {
          "internalType": "uint8",
          "name": "v",
          "type": "uint8"
        },
        {
          "internalType": "bytes32",
          "name": "r",
          "type": "bytes32"
        },
        {
          "internalType": "bytes32",
          "name": "s",
          "type": "bytes32"
        }
      ],
      "name": "permit",
      "outputs": [],
      "stateMutability": "nonpayable",
      "type": "function"
    },
    {
      "inputs": [
        {
          "internalType": "bytes",
          "name": "data",
          "type": "bytes"
        },
        {
          "internalType": "uint16",
          "name": "actionType",
          "type": "uint16"
        }
      ],
      "name": "permitAction",
      "outputs": [],
      "stateMutability": "nonpayable",
      "type": "function"
    },
    {
      "inputs": [
        {
          "internalType": "address",
          "name": "owner",
          "type": "address"
        },
        {
          "internalType": "address",
          "name": "spender",
          "type": "address"
        },
        {
          "internalType": "uint256",
          "name": "value",
          "type": "uint256"
        },
        {
          "internalType": "uint256",
          "name": "deadline",
          "type": "uint256"
        },
        {
          "internalType": "uint8",
          "name": "v",
          "type": "uint8"
        },
        {
          "internalType": "bytes32",
          "name": "r",
          "type": "bytes32"
        },
        {
          "internalType": "bytes32",
          "name": "s",
          "type": "bytes32"
        }
      ],
      "name": "permitBorrow",
      "outputs": [],
      "stateMutability": "nonpayable",
      "type": "function"
    },
    {
      "inputs": [],
      "name": "protocolFee",
      "outputs": [
        {
          "internalType": "uint256",
          "name": "",
          "type": "uint256"
        }
      ],
      "stateMutability": "view",
      "type": "function"
    },
    {
      "inputs": [],
      "name": "rateTimestamp",
      "outputs": [
        {
          "internalType": "uint256",
          "name": "",
          "type": "uint256"
        }
      ],
      "stateMutability": "view",
      "type": "function"
    },
    {
      "inputs": [],
      "name": "rateValidDuration",
      "outputs": [
        {
          "internalType": "uint256",
          "name": "",
          "type": "uint256"
        }
      ],
      "stateMutability": "view",
      "type": "function"
    },
    {
      "inputs": [],
      "name": "refreshPenroseFees",
      "outputs": [
        {
          "internalType": "uint256",
          "name": "feeShares",
          "type": "uint256"
        }
      ],
      "stateMutability": "nonpayable",
      "type": "function"
    },
    {
      "inputs": [
        {
          "internalType": "address",
          "name": "from",
          "type": "address"
        },
        {
          "internalType": "address",
          "name": "to",
          "type": "address"
        },
        {
          "internalType": "uint256",
          "name": "share",
          "type": "uint256"
        }
      ],
      "name": "removeCollateral",
      "outputs": [],
      "stateMutability": "nonpayable",
      "type": "function"
    },
    {
      "inputs": [
        {
          "internalType": "address",
          "name": "from",
          "type": "address"
        },
        {
          "internalType": "address",
          "name": "to",
          "type": "address"
        },
        {
          "internalType": "bool",
          "name": "skim",
          "type": "bool"
        },
        {
          "internalType": "uint256",
          "name": "part",
          "type": "uint256"
        }
      ],
      "name": "repay",
      "outputs": [
        {
          "internalType": "uint256",
          "name": "amount",
          "type": "uint256"
        }
      ],
      "stateMutability": "nonpayable",
      "type": "function"
    },
    {
      "inputs": [
        {
          "internalType": "uint256",
          "name": "amount",
          "type": "uint256"
        },
        {
          "internalType": "address",
          "name": "to",
          "type": "address"
        }
      ],
      "name": "rescueEth",
      "outputs": [],
      "stateMutability": "nonpayable",
      "type": "function"
    },
    {
      "inputs": [
        {
          "internalType": "address",
          "name": "from",
          "type": "address"
        },
        {
          "internalType": "uint256",
          "name": "share",
          "type": "uint256"
        },
        {
          "internalType": "bytes",
          "name": "data",
          "type": "bytes"
        }
      ],
      "name": "sellCollateral",
      "outputs": [
        {
          "internalType": "uint256",
          "name": "amountOut",
          "type": "uint256"
        }
      ],
      "stateMutability": "nonpayable",
      "type": "function"
    },
    {
      "inputs": [
        {
          "internalType": "address",
          "name": "_oracle",
          "type": "address"
        },
        {
          "internalType": "bytes",
          "name": "_oracleData",
          "type": "bytes"
        }
      ],
      "name": "setAssetOracle",
      "outputs": [],
      "stateMutability": "nonpayable",
      "type": "function"
    },
    {
      "inputs": [
        {
          "internalType": "uint256",
          "name": "_minDebtRate",
          "type": "uint256"
        },
        {
          "internalType": "uint256",
          "name": "_maxDebtRate",
          "type": "uint256"
        },
        {
          "internalType": "uint256",
          "name": "_debtRateAgainstEthMarket",
          "type": "uint256"
        },
        {
          "internalType": "uint256",
          "name": "_liquidationMultiplier",
          "type": "uint256"
        }
      ],
      "name": "setBigBangConfig",
      "outputs": [],
      "stateMutability": "nonpayable",
      "type": "function"
    },
    {
      "inputs": [
        {
          "internalType": "contract ILeverageExecutor",
          "name": "_executor",
          "type": "address"
        }
      ],
      "name": "setLeverageExecutor",
      "outputs": [],
      "stateMutability": "nonpayable",
      "type": "function"
    },
    {
      "inputs": [
        {
          "internalType": "contract ITapiocaOracle",
          "name": "_oracle",
          "type": "address"
        },
        {
          "internalType": "bytes",
          "name": "_oracleData",
          "type": "bytes"
        },
        {
          "internalType": "address",
          "name": "_conservator",
          "type": "address"
        },
        {
          "internalType": "uint256",
          "name": "_callerFee",
          "type": "uint256"
        },
        {
          "internalType": "uint256",
          "name": "_protocolFee",
          "type": "uint256"
        },
        {
          "internalType": "uint256",
          "name": "_liquidationBonusAmount",
          "type": "uint256"
        },
        {
          "internalType": "uint256",
          "name": "_minLiquidatorReward",
          "type": "uint256"
        },
        {
          "internalType": "uint256",
          "name": "_maxLiquidatorReward",
          "type": "uint256"
        },
        {
          "internalType": "uint256",
          "name": "_totalBorrowCap",
          "type": "uint256"
        },
        {
          "internalType": "uint256",
          "name": "_collateralizationRate",
          "type": "uint256"
        },
        {
          "internalType": "uint256",
          "name": "_liquidationCollateralizationRate",
          "type": "uint256"
        }
      ],
      "name": "setMarketConfig",
      "outputs": [],
      "stateMutability": "nonpayable",
      "type": "function"
    },
    {
      "inputs": [
        {
          "internalType": "uint256",
          "name": "_min",
          "type": "uint256"
        },
        {
          "internalType": "uint256",
          "name": "_max",
          "type": "uint256"
        }
      ],
      "name": "setMinAndMaxMintFee",
      "outputs": [],
      "stateMutability": "nonpayable",
      "type": "function"
    },
    {
      "inputs": [
        {
          "internalType": "uint256",
          "name": "_min",
          "type": "uint256"
        },
        {
          "internalType": "uint256",
          "name": "_max",
          "type": "uint256"
        }
      ],
      "name": "setMinAndMaxMintRange",
      "outputs": [],
      "stateMutability": "nonpayable",
      "type": "function"
    },
    {
      "inputs": [],
      "name": "totalBorrow",
      "outputs": [
        {
          "internalType": "uint128",
          "name": "elastic",
          "type": "uint128"
        },
        {
          "internalType": "uint128",
          "name": "base",
          "type": "uint128"
        }
      ],
      "stateMutability": "view",
      "type": "function"
    },
    {
      "inputs": [],
      "name": "totalBorrowCap",
      "outputs": [
        {
          "internalType": "uint256",
          "name": "",
          "type": "uint256"
        }
      ],
      "stateMutability": "view",
      "type": "function"
    },
    {
      "inputs": [],
      "name": "totalCollateralShare",
      "outputs": [
        {
          "internalType": "uint256",
          "name": "",
          "type": "uint256"
        }
      ],
      "stateMutability": "view",
      "type": "function"
    },
    {
      "inputs": [],
      "name": "totalSupply",
      "outputs": [
        {
          "internalType": "uint256",
          "name": "",
          "type": "uint256"
        }
      ],
      "stateMutability": "view",
      "type": "function"
    },
    {
      "inputs": [
        {
          "internalType": "address",
          "name": "",
          "type": "address"
        },
        {
          "internalType": "uint256",
          "name": "",
          "type": "uint256"
        }
      ],
      "name": "transfer",
      "outputs": [
        {
          "internalType": "bool",
          "name": "",
          "type": "bool"
        }
      ],
      "stateMutability": "pure",
      "type": "function"
    },
    {
      "inputs": [
        {
          "internalType": "address",
          "name": "",
          "type": "address"
        },
        {
          "internalType": "address",
          "name": "",
          "type": "address"
        },
        {
          "internalType": "uint256",
          "name": "",
          "type": "uint256"
        }
      ],
      "name": "transferFrom",
      "outputs": [
        {
          "internalType": "bool",
          "name": "",
          "type": "bool"
        }
      ],
      "stateMutability": "pure",
      "type": "function"
    },
    {
      "inputs": [
        {
          "internalType": "address",
          "name": "newOwner",
          "type": "address"
        },
        {
          "internalType": "bool",
          "name": "direct",
          "type": "bool"
        },
        {
          "internalType": "bool",
          "name": "renounce",
          "type": "bool"
        }
      ],
      "name": "transferOwnership",
      "outputs": [],
      "stateMutability": "nonpayable",
      "type": "function"
    },
    {
      "inputs": [],
      "name": "updateExchangeRate",
      "outputs": [
        {
          "internalType": "bool",
          "name": "updated",
          "type": "bool"
        },
        {
          "internalType": "uint256",
          "name": "rate",
          "type": "uint256"
        }
      ],
      "stateMutability": "nonpayable",
      "type": "function"
    },
    {
      "inputs": [
        {
          "internalType": "enum Market.PauseType",
          "name": "_type",
          "type": "uint8"
        },
        {
          "internalType": "bool",
          "name": "val",
          "type": "bool"
        }
      ],
      "name": "updatePause",
      "outputs": [],
      "stateMutability": "nonpayable",
      "type": "function"
    },
    {
      "inputs": [
        {
          "internalType": "bool",
          "name": "val",
          "type": "bool"
        }
      ],
      "name": "updatePauseAll",
      "outputs": [],
      "stateMutability": "nonpayable",
      "type": "function"
    },
    {
      "inputs": [
        {
          "internalType": "address",
          "name": "",
          "type": "address"
        }
      ],
      "name": "userBorrowPart",
      "outputs": [
        {
          "internalType": "uint256",
          "name": "",
          "type": "uint256"
        }
      ],
      "stateMutability": "view",
      "type": "function"
    },
    {
      "inputs": [
        {
          "internalType": "address",
          "name": "",
          "type": "address"
        }
      ],
      "name": "userCollateralShare",
      "outputs": [
        {
          "internalType": "uint256",
          "name": "",
          "type": "uint256"
        }
      ],
      "stateMutability": "view",
      "type": "function"
    },
    {
      "inputs": [],
      "name": "yieldBox",
      "outputs": [
        {
          "internalType": "contract IYieldBox",
          "name": "",
          "type": "address"
        }
      ],
      "stateMutability": "view",
      "type": "function"
    },
    {
      "stateMutability": "payable",
      "type": "receive"
    }
  ],
  "bytecode": "0x61016060405262013880601d5562015f90601e55612710601f55612ee06022556000602e556103e8602f553480156200003757600080fd5b50604080518082018252600f81526e546170696f63612042696742616e6760881b602080830191909152825180840190935260018352603160f81b90830152908190620000868260006200017a565b61012052620000978160016200017a565b61014052815160208084019190912060e052815190820120610100524660a0526200012560e05161010051604080517f8b73c3c69bb8fe3d512ecc4cf759cc79239f7b179b0ffacaa9a75d522b39400f60208201529081019290925260608201524660808201523060a082015260009060c00160405160208183030381529060405280519060200120905090565b60805250503060c05250600780546001600160a01b031916339081179091556040516000907f8be0079c531659141344cd1fd0a4f28419497f9722a3daafe3b4186f6b6457e0908290a36001602655620003e8565b60006020835110156200019a576200019283620001b3565b9050620001ad565b81620001a78482620002a6565b5060ff90505b92915050565b600080829050601f81511115620001ea578260405163305a27a960e01b8152600401620001e1919062000372565b60405180910390fd5b8051620001f782620003c3565b179392505050565b634e487b7160e01b600052604160045260246000fd5b600181811c908216806200022a57607f821691505b6020821081036200024b57634e487b7160e01b600052602260045260246000fd5b50919050565b601f821115620002a1576000816000526020600020601f850160051c810160208610156200027c5750805b601f850160051c820191505b818110156200029d5782815560010162000288565b5050505b505050565b81516001600160401b03811115620002c257620002c2620001ff565b620002da81620002d3845462000215565b8462000251565b602080601f831160018114620003125760008415620002f95750858301515b600019600386901b1c1916600185901b1785556200029d565b600085815260208120601f198616915b82811015620003435788860151825594840194600190910190840162000322565b5085821015620003625787850151600019600388901b60f8161c191681555b5050505050600190811b01905550565b60006020808352835180602085015260005b81811015620003a25785810183015185820160400152820162000384565b506000604082860101526040601f19601f8301168501019250505092915050565b805160208083015191908110156200024b5760001960209190910360031b1b16919050565b60805160a05160c05160e051610100516101205161014051616a3f6200044360003960006122800152600061225601526000613da301526000613d7b01526000613cd601526000613d0001526000613d2a0152616a3f6000f3fe6080604052600436106105c35760003560e01c80637fa0b84e116102f6578063c9c7d8371161018f578063e0996cb6116100e1578063eec0f42e11610095578063f791395d1161006f578063f791395d146110c0578063f88188cb146110d6578063f8ba4cff146110f657600080fd5b8063eec0f42e1461106a578063ef2b234a14611080578063f5b33dfa146110a057600080fd5b8063e7d6de80116100c6578063e7d6de8014611014578063e9a4925214611034578063ea64dd561461105457600080fd5b8063e0996cb614610fde578063e30c397814610ff457600080fd5b8063d4e4534e11610143578063da863f0e1161011d578063da863f0e14610f66578063dd62ed3e14610f86578063de40657714610fbe57600080fd5b8063d4e4534e14610f06578063d505accf14610f26578063d8dfeb4514610f4657600080fd5b8063cd0211eb11610174578063cd0211eb14610ea6578063ce8849ed14610ec6578063d3fb2a3814610ee657600080fd5b8063c9c7d83714610e66578063cce19f8114610e8657600080fd5b8063af1827c411610248578063b31f346d116101fc578063bde39c5d116101d6578063bde39c5d14610e1b578063c1ad5c8d14610e31578063c861a52614610e4657600080fd5b8063b31f346d14610dcb578063b7113f1914610deb578063bb4cfe3b14610e0557600080fd5b8063b0e21e8a1161022d578063b0e21e8a14610d43578063b25ea8fb14610d59578063b27c0e7414610d7957600080fd5b8063af1827c414610d0e578063af405b4c14610d2e57600080fd5b8063910dd7c8116102aa5780639e15e89f116102845780639e15e89f14610c8a578063a9059cbb14610cc5578063aa7d966514610ce057600080fd5b8063910dd7c814610c35578063932bc4f814610c5557806399a9702814610c6a57600080fd5b806384b0196e116102db57806384b0196e14610bd75780638c5d0ed314610bff5780638da5cb5b14610c1557600080fd5b80637fa0b84e14610b4d5780638285ef4014610b6d57600080fd5b80633ba0b9a91161046857806357935462116103ba578063727785471161036e578063790c846711610348578063790c846714610ae15780637dc0d1d014610af75780637ecebe0014610b1757600080fd5b80637277854714610a7957806374645ff314610aa957806374c9e48114610acb57600080fd5b80636b19ad161161039f5780636b19ad1614610a165780636c3d8b8f14610a2c57806370a0823114610a4c57600080fd5b806357935462146109e05780635d5f73ef146109f657600080fd5b806348e4163e1161041c5780635224372c116103f65780635224372c1461097f578063529898f2146109b4578063542afda3146109ca57600080fd5b806348e4163e1461091d5780634ddf47d41461094a5780634e71e0c81461096a57600080fd5b806340626d8b1161044d57806340626d8b146108db57806344de240a146108f1578063473e3ce71461090757600080fd5b80633ba0b9a9146108a55780633f741adb146108bb57600080fd5b80631da8bf101161052157806334ce998a116104d5578063364b78ca116104af578063364b78ca1461084f57806337b6b7b91461086f57806338d52e0f1461088557600080fd5b806334ce998a146107fd57806334d441d0146108245780633644e5151461083a57600080fd5b806325384fd81161050657806325384fd8146107a757806327c811a8146107c7578063331960ff146107e757600080fd5b80631da8bf101461076757806323b872dd1461078757600080fd5b80630c4e84f01161057857806318160ddd1161055d57806318160ddd146106ee5780631c9e379b146107025780631d4d3a5d1461072f57600080fd5b80630c4e84f0146106b85780630f8b29ea146106d857600080fd5b8063078dfbe7116105a9578063078dfbe714610646578063095ea7b31461066857806309d040381461069857600080fd5b8062a02a20146105cf57806302ce728f1461061a57600080fd5b366105ca57005b600080fd5b3480156105db57600080fd5b506106076105ea366004615414565b600560209081526000928352604080842090915290825290205481565b6040519081526020015b60405180910390f35b34801561062657600080fd5b5061062f61110b565b604080519215158352602083019190915201610611565b34801561065257600080fd5b5061066661066136600461545b565b61129b565b005b34801561067457600080fd5b506106886106833660046154a6565b611412565b6040519015158152602001610611565b3480156106a457600080fd5b506106666106b33660046154d2565b611429565b3480156106c457600080fd5b506106666106d33660046154fe565b611828565b3480156106e457600080fd5b5061060760305481565b3480156106fa57600080fd5b506000610607565b34801561070e57600080fd5b5061060761071d36600461552a565b601a6020526000908152604090205481565b34801561073b57600080fd5b50602c5461074f906001600160a01b031681565b6040516001600160a01b039091168152602001610611565b34801561077357600080fd5b50610666610782366004615556565b6119d5565b34801561079357600080fd5b506106886107a23660046155c7565b6119f0565b3480156107b357600080fd5b5060335461074f906001600160a01b031681565b3480156107d357600080fd5b506106666107e2366004615608565b611a3b565b3480156107f357600080fd5b5061060760155481565b34801561080957600080fd5b506016546fffffffffffffffffffffffffffffffff16610607565b34801561083057600080fd5b50610607601b5481565b34801561084657600080fd5b50610607611d15565b34801561085b57600080fd5b5061066661086a366004615686565b611d24565b34801561087b57600080fd5b5061060760145481565b34801561089157600080fd5b50600f5461074f906001600160a01b031681565b3480156108b157600080fd5b5061060760135481565b3480156108c757600080fd5b506106076108d6366004615777565b611dc5565b3480156108e757600080fd5b5061060760185481565b3480156108fd57600080fd5b5061060760105481565b34801561091357600080fd5b5061060760175481565b34801561092957600080fd5b5061060761093836600461552a565b60196020526000908152604090205481565b34801561095657600080fd5b506106666109653660046157e5565b611f19565b34801561097657600080fd5b5061066661205b565b34801561098b57600080fd5b5061099f61099a3660046155c7565b612131565b60408051928352602083019190915201610611565b3480156109c057600080fd5b5061060760225481565b3480156109d657600080fd5b50610607602e5481565b3480156109ec57600080fd5b50610607601e5481565b348015610a0257600080fd5b5060325461074f906001600160a01b031681565b348015610a2257600080fd5b5061060760295481565b348015610a3857600080fd5b50600c5461074f906001600160a01b031681565b348015610a5857600080fd5b50610607610a6736600461552a565b60036020526000908152604090205481565b348015610a8557600080fd5b50610688610a94366004615827565b60096020526000908152604090205460ff1681565b348015610ab557600080fd5b50610abe6121ad565b6040516106119190615892565b348015610ad757600080fd5b50610607602f5481565b348015610aed57600080fd5b5061060760315481565b348015610b0357600080fd5b5060115461074f906001600160a01b031681565b348015610b2357600080fd5b50610607610b3236600461552a565b6001600160a01b031660009081526006602052604090205490565b348015610b5957600080fd5b50610688610b683660046154a6565b61223b565b348015610b7957600080fd5b50601654610bae906fffffffffffffffffffffffffffffffff8082169170010000000000000000000000000000000090041682565b604080516fffffffffffffffffffffffffffffffff938416815292909116602083015201610611565b348015610be357600080fd5b50610bec612248565b60405161061197969594939291906158a5565b348015610c0b57600080fd5b50610607601d5481565b348015610c2157600080fd5b5060075461074f906001600160a01b031681565b348015610c4157600080fd5b50610666610c50366004615a0c565b6122ec565b348015610c6157600080fd5b50610abe612339565b348015610c7657600080fd5b50610607610c853660046154a6565b612346565b348015610c9657600080fd5b50610caa610ca53660046154a6565b612352565b60408051938452602084019290925290820152606001610611565b348015610cd157600080fd5b506106886107a23660046154a6565b348015610cec57600080fd5b50610d00610cfb366004615a9d565b61242f565b604051610611929190615ae9565b348015610d1a57600080fd5b50610666610d29366004615b83565b6125ec565b348015610d3a57600080fd5b50610607612691565b348015610d4f57600080fd5b50610607601c5481565b348015610d6557600080fd5b50610666610d74366004615ba5565b6128de565b348015610d8557600080fd5b50602754610daa9067ffffffffffffffff808216916801000000000000000090041682565b6040805167ffffffffffffffff938416815292909116602083015201610611565b348015610dd757600080fd5b50610666610de6366004615bca565b6129c5565b348015610df757600080fd5b506028546106889060ff1681565b348015610e1157600080fd5b5061060760205481565b348015610e2757600080fd5b50610607602b5481565b348015610e3d57600080fd5b506106076129f9565b348015610e5257600080fd5b5060345461074f906001600160a01b031681565b348015610e7257600080fd5b50610666610e81366004615c6c565b612c5a565b348015610e9257600080fd5b50610666610ea13660046155c7565b612d73565b348015610eb257600080fd5b50610607610ec1366004615cc1565b612dc5565b348015610ed257600080fd5b50600a5461074f906001600160a01b031681565b348015610ef257600080fd5b50610666610f01366004615d12565b612e44565b348015610f1257600080fd5b50610607610f21366004615dc6565b61363e565b348015610f3257600080fd5b50610666610f41366004615556565b613688565b348015610f5257600080fd5b50600d5461074f906001600160a01b031681565b348015610f7257600080fd5b5060235461074f906001600160a01b031681565b348015610f9257600080fd5b50610607610fa1366004615414565b600460209081526000928352604080842090915290825290205481565b348015610fca57600080fd5b50600b5461074f906001600160a01b031681565b348015610fea57600080fd5b50610607601f5481565b34801561100057600080fd5b5060085461074f906001600160a01b031681565b34801561102057600080fd5b5061060761102f366004615e30565b61369b565b34801561104057600080fd5b5061066661104f366004615e8c565b6136c2565b34801561106057600080fd5b5061060760215481565b34801561107657600080fd5b50610607600e5481565b34801561108c57600080fd5b5061066661109b36600461552a565b61372b565b3480156110ac57600080fd5b5060355461074f906001600160a01b031681565b3480156110cc57600080fd5b50610607602a5481565b3480156110e257600080fd5b506106666110f1366004615b83565b6137f9565b34801561110257600080fd5b5061066661389e565b6011546040517fd6d7d52500000000000000000000000000000000000000000000000000000000815260009182916001600160a01b039091169063d6d7d5259061115a90601290600401615f3a565b60408051808303816000875af1158015611178573d6000803e3d6000fd5b505050506040513d601f19601f8201168201806040525081019061119c9190615fca565b9092509050811561123457806000036111fc5760405162461bcd60e51b815260206004820152601460248201527f4d61726b65743a20696e76616c6964207261746500000000000000000000000060448201526064015b60405180910390fd5b60138190554260155560405181907f9f9192b5edb17356c524e08d9e025c8e2f6307e6ea52fb7968faa3081f51c3c890600090a29091565b426014546015546112459190616027565b10156112935760405162461bcd60e51b815260206004820152601460248201527f4d61726b65743a207261746520746f6f206f6c6400000000000000000000000060448201526064016111f3565b506013549091565b6007546001600160a01b031633146112f55760405162461bcd60e51b815260206004820181905260248201527f4f776e61626c653a2063616c6c6572206973206e6f7420746865206f776e657260448201526064016111f3565b81156113d9576001600160a01b03831615158061130f5750805b61135b5760405162461bcd60e51b815260206004820152601560248201527f4f776e61626c653a207a65726f2061646472657373000000000000000000000060448201526064016111f3565b6007546040516001600160a01b038086169216907f8be0079c531659141344cd1fd0a4f28419497f9722a3daafe3b4186f6b6457e090600090a3600780546001600160a01b0385167fffffffffffffffffffffffff000000000000000000000000000000000000000091821617909155600880549091169055505050565b600880547fffffffffffffffffffffffff0000000000000000000000000000000000000000166001600160a01b0385161790555b505050565b600061141f3384846138a8565b5060015b92915050565b600a546001600160a01b031633146114835760405162461bcd60e51b815260206004820152601460248201527f4d61726b65743a20756e617574686f72697a656400000000000000000000000060448201526064016111f3565b60096020527fec8156718a8372b1db44bb411437d0870f3e3790d4a08526d024ce1b0b668f6b805482151560ff1991821681179092557f92e85d02570a8092d09a6e3a57665bc3815a2699a4074001bf1ccabf660f5a3680548216831790557f6cde3cea4b3a3fb2488b2808bae7556f4a405e50f65e1794383bc026131b13c380548216831790557fc575c31fea594a6eb97c8e9d3f9caee4c16218c6ef37e923234c0fe9014a61e780548216831790557f8dc18c4ccfd75f5c815b63770fa542fd953e8fef7e0e44bbdd4913470ce7e9cb80548216831790557f74b05292d1d4b2b48b65261b07099d24244bcb069f138d9a6bfdcf776becac4c80548216831790557fbb6daa0c283751197dfdc76590680f9005e97d6f23870deb1164ab60b28b9f5f805490911682179055600080805260405160ff8316151591907feeec81de25875ce1725479bb76f720a8defdb43dea041919ae37bb4aae9847c0908290a46001600081815260096020527f92e85d02570a8092d09a6e3a57665bc3815a2699a4074001bf1ccabf660f5a36546040518415159360ff9092161515927feeec81de25875ce1725479bb76f720a8defdb43dea041919ae37bb4aae9847c091a46002600081815260096020527f6cde3cea4b3a3fb2488b2808bae7556f4a405e50f65e1794383bc026131b13c3546040518415159360ff9092161515927feeec81de25875ce1725479bb76f720a8defdb43dea041919ae37bb4aae9847c091a46003600081815260096020527fc575c31fea594a6eb97c8e9d3f9caee4c16218c6ef37e923234c0fe9014a61e7546040518415159360ff9092161515927feeec81de25875ce1725479bb76f720a8defdb43dea041919ae37bb4aae9847c091a46004600081815260096020527f8dc18c4ccfd75f5c815b63770fa542fd953e8fef7e0e44bbdd4913470ce7e9cb546040518415159360ff9092161515927feeec81de25875ce1725479bb76f720a8defdb43dea041919ae37bb4aae9847c091a46005600081815260096020527f74b05292d1d4b2b48b65261b07099d24244bcb069f138d9a6bfdcf776becac4c546040518415159360ff9092161515927feeec81de25875ce1725479bb76f720a8defdb43dea041919ae37bb4aae9847c091a46006600081815260096020527fbb6daa0c283751197dfdc76590680f9005e97d6f23870deb1164ab60b28b9f5f546040518415159360ff9092161515927feeec81de25875ce1725479bb76f720a8defdb43dea041919ae37bb4aae9847c091a450565b600a546001600160a01b031633146118825760405162461bcd60e51b815260206004820152601460248201527f4d61726b65743a20756e617574686f72697a656400000000000000000000000060448201526064016111f3565b600960008360088111156118985761189861603a565b60088111156118a9576118a961603a565b815260208101919091526040016000205460ff1615158115150361190f5760405162461bcd60e51b815260206004820152601260248201527f4d61726b65743a2073616d65207374617465000000000000000000000000000060448201526064016111f3565b801515600960008460088111156119285761192861603a565b60088111156119395761193961603a565b815260208101919091526040016000205460ff1615158360088111156119615761196161603a565b6040517feeec81de25875ce1725479bb76f720a8defdb43dea041919ae37bb4aae9847c090600090a480600960008460088111156119a1576119a161603a565b60088111156119b2576119b261603a565b81526020810191909152604001600020805460ff19169115159190911790555050565b6119e760008089898989898989613909565b50505050505050565b60405162461bcd60e51b815260206004820152600f60248201527f42423a206e6f7420616c6c6f776564000000000000000000000000000000000060448201526000906064016111f3565b6007546001600160a01b03163314611a955760405162461bcd60e51b815260206004820181905260248201527f4f776e61626c653a2063616c6c6572206973206e6f7420746865206f776e657260448201526064016111f3565b600c60009054906101000a90046001600160a01b03166001600160a01b031663c99fb76e6040518163ffffffff1660e01b8152600401602060405180830381865afa158015611ae8573d6000803e3d6000fd5b505050506040513d601f19601f82011682018060405250810190611b0c9190616069565b600e546028805460ff191692909114918217905560ff16611d0f57611b2f613ab1565b8315611ba5576029548410611b70576040517fdefda01700000000000000000000000000000000000000000000000000000000815260040160405180910390fd5b602a546040518591907fa54af2279046b0207f426565497319c4e274479ce71cb53598ec2391459be3f390600090a3602a8490555b8215611c5d57602a548311611be6576040517fdefda01700000000000000000000000000000000000000000000000000000000815260040160405180910390fd5b670de0b6b3a7640000831115611c28576040517fdefda01700000000000000000000000000000000000000000000000000000000815260040160405180910390fd5b6029546040518491907f5391ae26cacff12a54d10d45f0f04678de8bb9c9b2f784eb7074dac7cc0f8fd990600090a360298390555b8115611c9857602b546040518391907fd00c912c9d1f75ac893827b7bb73eb82874daea46c2eaa6d2bd89f0c8ee5736690600090a3602b8290555b8015611d0f57620186a08110611cda576040517ff1640ae100000000000000000000000000000000000000000000000000000000815260040160405180910390fd5b6022546040518291907f1f1d0e9e5e3fd195010504141e7472fc7f53e44d7cd3f236f0892778039c632690600090a360228190555b50505050565b6000611d1f613cc9565b905090565b611db8600363364b78ca60e01b8c8c8c8c8c8c8c8c8c8c604051602401611d549a999897969594939291906161f5565b60408051601f198184030181529190526020810180517bffffffffffffffffffffffffffffffffffffffffffffffffffffffff167fffffffff0000000000000000000000000000000000000000000000000000000090931692909217909152613df4565b5050505050505050505050565b6016546000906fffffffffffffffffffffffffffffffff7001000000000000000000000000000000008204811691611dfe91168661629d565b611e0891906162e3565b93506000611e1783600a6163db565b602154611e24908661629d565b611e2e91906162e3565b905080851015611e42576000915050611f12565b6000611e4e82876163e7565b90506000611e5d85600a6163db565b602254611e6b87600a6163db565b611e759190616027565b602054611e82919061629d565b611e8c91906162e3565b905060006509184e72a00082611ea388600a6163db565b611ead91906163fa565b611eb7919061641a565b9050600081611ece670de0b6b3a76400008661641a565b611ed89190616466565b90506000808212611ee95781611ef2565b611ef2826164b0565b905089811115611f0a57899650505050505050611f12565b955050505050505b9392505050565b60255460ff1615611f6c5760405162461bcd60e51b815260206004820152601360248201527f4d61726b65743a20696e697469616c697a65640000000000000000000000000060448201526064016111f3565b6000611f7a828401846164e8565b9050611ffb8160000151826020015183604001518460600151603280546001600160a01b039586167fffffffffffffffffffffffff0000000000000000000000000000000000000000918216179091556034805493861693821693909317909255603380549385169383169390931790925560358054929093169116179055565b61202f81608001518260a001518360c001518460e00151856101000151866101800151876101a00151886101c00151613e72565b612049816101200151826101400151836101600151614350565b50506025805460ff1916600117905550565b6008546001600160a01b03163381146120b65760405162461bcd60e51b815260206004820181905260248201527f4f776e61626c653a2063616c6c657220213d2070656e64696e67206f776e657260448201526064016111f3565b6007546040516001600160a01b038084169216907f8be0079c531659141344cd1fd0a4f28419497f9722a3daafe3b4186f6b6457e090600090a3600780546001600160a01b039092167fffffffffffffffffffffffff0000000000000000000000000000000000000000928316179055600880549091169055565b6040516001600160a01b03808516602483015283166044820152606481018290526000908190819061218a906001907f5224372c0000000000000000000000000000000000000000000000000000000090608401611d54565b9050808060200190518101906121a091906165d9565b9097909650945050505050565b601280546121ba90615ee7565b80601f01602080910402602001604051908101604052809291908181526020018280546121e690615ee7565b80156122335780601f1061220857610100808354040283529160200191612233565b820191906000526020600020905b81548152906001019060200180831161221657829003601f168201915b505050505081565b600061141f338484614485565b60006060808280808361227b7f0000000000000000000000000000000000000000000000000000000000000000836144de565b6122a67f000000000000000000000000000000000000000000000000000000000000000060016144de565b604080516000808252602082019092527f0f000000000000000000000000000000000000000000000000000000000000009b939a50919850469750309650945092509050565b6000806000806000806000808980602001905181019061230c91906165fd565b9750975097509750975097509750975061232d898989898989898989613909565b50505050505050505050565b602d80546121ba90615ee7565b6000611f128383614589565b6001600160a01b0382166000908152601960205260408120548190819080820361238757600080600093509350935050612428565b60006123916146ea565b9050600061239f888861486c565b905081602001516fffffffffffffffffffffffffffffffff1682600001516fffffffffffffffffffffffffffffffff16846123da919061629d565b6123e491906162e3565b9250808310156123f55760006123f9565b8083035b6001600160a01b0389166000908152601a602052604090205490965061241f90886149a1565b90955093505050505b9250925092565b60608061243a614ad0565b8367ffffffffffffffff8111156124535761245361595a565b60405190808252806020026020018201604052801561247c578160200160208202803683370190505b5091508367ffffffffffffffff8111156124985761249861595a565b6040519080825280602002602001820160405280156124cb57816020015b60608152602001906001900390816124b65790505b50905060005b848110156125d957600080308888858181106124ef576124ef616683565b905060200281019061250191906166b2565b60405161250f929190616717565b600060405180830381855af49150503d806000811461254a576040519150601f19603f3d011682016040523d82523d6000602084013e61254f565b606091505b50915091508115801561255f5750855b156125865761256d81614b29565b60405162461bcd60e51b81526004016111f39190615892565b8185848151811061259957612599616683565b911515602092830291909101909101526125b281614b29565b8484815181106125c4576125c4616683565b602090810291909101015250506001016124d1565b506125e46001602655565b935093915050565b6007546001600160a01b031633146126465760405162461bcd60e51b815260206004820181905260248201527f4f776e61626c653a2063616c6c6572206973206e6f7420746865206f776e657260448201526064016111f3565b603054826031547f9ba515d5ad02a934b077fb0eba07a4ec79463a8dc735c8b4ad44a434abc8607a8460405161267e91815260200190565b60405180910390a4603191909155603055565b6007546000906001600160a01b031633146126ee5760405162461bcd60e51b815260206004820181905260248201527f4f776e61626c653a2063616c6c6572206973206e6f7420746865206f776e657260448201526064016111f3565b600f546040517f70a082310000000000000000000000000000000000000000000000000000000081523060048201526000916001600160a01b0316906370a0823190602401602060405180830381865afa158015612750573d6000803e3d6000fd5b505050506040513d601f19601f820116820180604052508101906127749190616069565b600b546010546040517f8eb22cdd000000000000000000000000000000000000000000000000000000008152600481019190915260248101839052600060448201529192506001600160a01b031690638eb22cdd90606401602060405180830381865afa1580156127e9573d6000803e3d6000fd5b505050506040513d601f19601f8201168201806040525081019061280d9190616069565b915081156128da57600b54600f54612832916001600160a01b03918216911683614bcc565b600b546010546040517f9a9af97a000000000000000000000000000000000000000000000000000000008152600481019190915230602482015233604482015260006064820152608481018490526001600160a01b0390911690639a9af97a9060a40160408051808303816000875af11580156128b3573d6000803e3d6000fd5b505050506040513d601f19601f820116820180604052508101906128d791906165d9565b50505b5090565b6007546001600160a01b031633146129385760405162461bcd60e51b815260206004820181905260248201527f4f776e61626c653a2063616c6c6572206973206e6f7420746865206f776e657260448201526064016111f3565b6000816001600160a01b03168360405160006040518083038185875af1925050503d8060008114612985576040519150601f19603f3d011682016040523d82523d6000602084013e61298a565b606091505b505090508061140d576040517f90b8ec1800000000000000000000000000000000000000000000000000000000815260040160405180910390fd5b6129ef600363b31f346d60e01b89898989898989604051602401611d549796959493929190616727565b5050505050505050565b60285460009060ff1615612a7e57600c60009054906101000a90046001600160a01b03166001600160a01b031663e6abad496040518163ffffffff1660e01b8152600401602060405180830381865afa158015612a5a573d6000803e3d6000fd5b505050506040513d601f19601f82011682018060405250810190611d1f9190616069565b6016546fffffffffffffffffffffffffffffffff16600003612aa15750602a5490565b600c54604080517fc24795f800000000000000000000000000000000000000000000000000000000815290516000926001600160a01b03169163c24795f89160048083019260209291908290030181865afa158015612b04573d6000803e3d6000fd5b505050506040513d601f19601f82011682018060405250810190612b28919061677a565b6001600160a01b03166334ce998a6040518163ffffffff1660e01b8152600401602060405180830381865afa158015612b65573d6000803e3d6000fd5b505050506040513d601f19601f82011682018060405250810190612b899190616069565b601654602b549192506fffffffffffffffffffffffffffffffff1690600090670de0b6b3a764000090612bbc908561629d565b612bc691906162e3565b9050808210612bda57602954935050505090565b600081612bef670de0b6b3a76400008561629d565b612bf991906162e3565b90506000602a54670de0b6b3a764000083602a54602954612c1a91906163e7565b612c24919061629d565b612c2e91906162e3565b612c389190616027565b9050602954811115612c51576029549550505050505090565b95945050505050565b6007546001600160a01b03163314612cb45760405162461bcd60e51b815260206004820181905260248201527f4f776e61626c653a2063616c6c6572206973206e6f7420746865206f776e657260448201526064016111f3565b6001600160a01b03831615612d3157602c546040516001600160a01b038086169216907f126a75207b8b11156ec1f4a0ad246f458582451fc5bee4b8a729a1a68886e13290600090a3602c80547fffffffffffffffffffffffff0000000000000000000000000000000000000000166001600160a01b0385161790555b801561140d57602d612d448284836167df565b506040517f01ac0e23e087c4b2e9f1a163db44f946de9dd51461fe7a401c523fc8d5db1c2990600090a1505050565b6040516001600160a01b0380851660248301528316604482015260648101829052611d0f906002907fcce19f810000000000000000000000000000000000000000000000000000000090608401611d54565b6040516001600160a01b038086166024830152841660448201528215156064820152608481018290526000908190612e24906001907fcd0211eb000000000000000000000000000000000000000000000000000000009060a401611d54565b905080806020019051810190612e3a9190616069565b9695505050505050565b6007546001600160a01b03163314612e9e5760405162461bcd60e51b815260206004820181905260248201527f4f776e61626c653a2063616c6c6572206973206e6f7420746865206f776e657260448201526064016111f3565b6001600160a01b038c1615612f1757601180547fffffffffffffffffffffffff0000000000000000000000000000000000000000166001600160a01b038e169081179091556040519081527f3df77beb5db05fcdd70a30fc8adf3f83f9501b68579455adbd100b81809403949060200160405180910390a15b8915612f55576012612f2a8b8d836167df565b506040517fa6f004921c944d4b8bf6e38462b00f36a58d62495d56b51f571ab78f732c981590600090a15b6001600160a01b03891615612fd257600a546040516001600160a01b03808c169216907f5a62d22209e370e38eea92cfddcd228e656e6ec139243392a760a7769f5877fd90600090a3600a80547fffffffffffffffffffffffff0000000000000000000000000000000000000000166001600160a01b038b161790555b871561305f57620186a088111561302b5760405162461bcd60e51b815260206004820152601160248201527f4d61726b65743a206e6f742076616c696400000000000000000000000000000060448201526064016111f3565b601b88905560405188906001907f253ac2c290fb3c37b20cfd60899ed86c0c8313905edc8ca53ec8d2b69d9919ad90600090a35b86156130ec57620186a08711156130b85760405162461bcd60e51b815260206004820152601160248201527f4d61726b65743a206e6f742076616c696400000000000000000000000000000060448201526064016111f3565b601c87905560405187906002907f253ac2c290fb3c37b20cfd60899ed86c0c8313905edc8ca53ec8d2b69d9919ad90600090a35b851561317857620186a086106131445760405162461bcd60e51b815260206004820152601160248201527f4d61726b65743a206e6f742076616c696400000000000000000000000000000060448201526064016111f3565b601f86905560405186906003907f253ac2c290fb3c37b20cfd60899ed86c0c8313905edc8ca53ec8d2b69d9919ad90600090a35b841561325557620186a085106131d05760405162461bcd60e51b815260206004820152601160248201527f4d61726b65743a206e6f742076616c696400000000000000000000000000000060448201526064016111f3565b601e5485106132215760405162461bcd60e51b815260206004820152601160248201527f4d61726b65743a206e6f742076616c696400000000000000000000000000000060448201526064016111f3565b601d85905560405185906004907f253ac2c290fb3c37b20cfd60899ed86c0c8313905edc8ca53ec8d2b69d9919ad90600090a35b831561333257620186a084106132ad5760405162461bcd60e51b815260206004820152601160248201527f4d61726b65743a206e6f742076616c696400000000000000000000000000000060448201526064016111f3565b601d5484116132fe5760405162461bcd60e51b815260206004820152601160248201527f4d61726b65743a206e6f742076616c696400000000000000000000000000000060448201526064016111f3565b601e84905560405184906005907f253ac2c290fb3c37b20cfd60899ed86c0c8313905edc8ca53ec8d2b69d9919ad90600090a35b821561339b576018546040518491907fae6e0ab3b95f0a53ff9660a390ccedcbbf1f2355dce974a9841af106fddcfaba90600090a3601883905560405183906006907f253ac2c290fb3c37b20cfd60899ed86c0c8313905edc8ca53ec8d2b69d9919ad90600090a35b811561352b57620186a08211156133f45760405162461bcd60e51b815260206004820152601160248201527f4d61726b65743a206e6f742076616c696400000000000000000000000000000060448201526064016111f3565b60215482111561346c5760405162461bcd60e51b815260206004820152602560248201527f4d61726b65743a20636f6c6c61746572616c697a6174696f6e5261746520746f60448201527f6f2062696700000000000000000000000000000000000000000000000000000060648201526084016111f3565b61347a620186a0600261629d565b61348590600a6163db565b602254613496620186a0600a6163db565b6134a09190616027565b6134aa908461629d565b106134f75760405162461bcd60e51b815260206004820152601a60248201527f4d61726b65743a204352202a202831202b204c4d29203e3d203100000000000060448201526064016111f3565b602082905560405182906007907f253ac2c290fb3c37b20cfd60899ed86c0c8313905edc8ca53ec8d2b69d9919ad90600090a35b8015613630576020548110156135a95760405162461bcd60e51b815260206004820152603260248201527f4d61726b65743a206c69717569646174696f6e436f6c6c61746572616c697a6160448201527f74696f6e5261746520746f6f20736d616c6c000000000000000000000000000060648201526084016111f3565b620186a08111156135fc5760405162461bcd60e51b815260206004820152601160248201527f4d61726b65743a206e6f742076616c696400000000000000000000000000000060448201526064016111f3565b602181905560405181906008907f253ac2c290fb3c37b20cfd60899ed86c0c8313905edc8ca53ec8d2b69d9919ad90600090a35b505050505050505050505050565b600080613667600463d4e4534e60e01b8989898989604051602401611d5495949392919061689f565b90508080602001905181019061367d9190616069565b979650505050505050565b6119e76000600189898989898989613909565b600080612e24600463e7d6de8060e01b88888888604051602401611d5494939291906168ce565b6040516001600160a01b0380871660248301528516604482015283151560648201526084810183905260a48101829052613723906002907fe9a49252000000000000000000000000000000000000000000000000000000009060c401611d54565b505050505050565b6007546001600160a01b031633146137855760405162461bcd60e51b815260206004820181905260248201527f4f776e61626c653a2063616c6c6572206973206e6f7420746865206f776e657260448201526064016111f3565b6023546040516001600160a01b038084169216907ffb4fd7114609dd603b57adbc2082205bfbbcabf9265c4b437b472f5c592b8cd790600090a3602380547fffffffffffffffffffffffff0000000000000000000000000000000000000000166001600160a01b0392909216919091179055565b6007546001600160a01b031633146138535760405162461bcd60e51b815260206004820181905260248201527f4f776e61626c653a2063616c6c6572206973206e6f7420746865206f776e657260448201526064016111f3565b602f5482602e547f1eafaac7ca8c5e231c2378dbf01de74321ec7c0c9b113ecc54b2cbd513ec6b5e8460405161388b91815260200190565b60405180910390a4602e91909155602f55565b6138a6613ab1565b565b6001600160a01b0383811660008181526004602090815260408083209487168084529482529182902085905590518481527f8c5be1e5ebec7d5bd14f71427d1e84f3dd0314c0f7b2291e5b200ac8c7c3b925910160405180910390a3505050565b834211156139595760405162461bcd60e51b815260206004820152601d60248201527f45524332305065726d69743a206578706972656420646561646c696e6500000060448201526064016111f3565b600088613986577f5c9ba5f0d101616843d7918f48ea857d6da95e04ac6d719e105e50a355e7c5d66139a8565b7f9cc5629bbe7baa98a89f6f8c2c396b83ab62dbb6cbb12f17f1d6ba7e6f53e2665b8a8989896139b58d614eb1565b60408051602081019790975261ffff909516948601949094526001600160a01b0392831660608601529116608084015260a083015260c082015260e08101869052610100016040516020818303038152906040528051906020012090506000613a1d82614ee0565b90506000613a2d82878787614f28565b9050896001600160a01b0316816001600160a01b031614613a905760405162461bcd60e51b815260206004820152601e60248201527f45524332305065726d69743a20696e76616c6964207369676e6174757265000060448201526064016111f3565b8a15613aa657613aa18a8a8a6138a8565b613630565b6136308a8a8a614485565b6040805180820190915260275467ffffffffffffffff8082168352680100000000000000009091041660208201819052600090613aee90426163e7565b905080600003613afc575050565b6000613b066129f9565b9050613b1e613b196301e13380836162e3565b614f50565b67ffffffffffffffff168352613b3342614f50565b67ffffffffffffffff908116602080860191909152604080518082019091526016546fffffffffffffffffffffffffffffffff808216808452700100000000000000000000000000000000909204169282019290925285519092600092670de0b6b3a7640000928792613ba89291169061629d565b613bb2919061629d565b613bbc91906162e3565b601854909150600090613bdf906fffffffffffffffffffffffffffffffff6163e7565b905080821115613bed578091505b613bf682614fd0565b83518490613c059083906168f7565b6fffffffffffffffffffffffffffffffff90811690915284516020808701518316700100000000000000000000000000000000029190921617601655875160278054928a015167ffffffffffffffff90811668010000000000000000027fffffffffffffffffffffffffffffffff000000000000000000000000000000009490941692169182179290921790915560405190915083907f7484db546dcd57af0104c73c8a6968dfbaf5767f047cee0dadd0499ad7df81a090600090a3505050505050565b6000306001600160a01b037f000000000000000000000000000000000000000000000000000000000000000016148015613d2257507f000000000000000000000000000000000000000000000000000000000000000046145b15613d4c57507f000000000000000000000000000000000000000000000000000000000000000090565b611d1f604080517f8b73c3c69bb8fe3d512ecc4cf759cc79239f7b179b0ffacaa9a75d522b39400f60208201527f0000000000000000000000000000000000000000000000000000000000000000918101919091527f000000000000000000000000000000000000000000000000000000000000000060608201524660808201523060a082015260009060c00160405160208183030381529060405280519060200120905090565b60606001613e0184615058565b6001600160a01b031683604051613e189190616920565b600060405180830381855af49150503d8060008114613e53576040519150601f19603f3d011682016040523d82523d6000602084013e613e58565b606091505b509250905080613e6b5761256d82614b29565b5092915050565b600c80547fffffffffffffffffffffffff0000000000000000000000000000000000000000166001600160a01b038a16908117909155604080517fde406577000000000000000000000000000000000000000000000000000000008152905163de406577916004808201926020929091908290030181865afa158015613efc573d6000803e3d6000fd5b505050506040513d601f19601f82011682018060405250810190613f20919061677a565b600b80546001600160a01b039283167fffffffffffffffffffffffff000000000000000000000000000000000000000091821617909155600c546007805490921692169182179055604080517f2324248e000000000000000000000000000000000000000000000000000000008152905160009291632324248e9160048281019260209291908290030181865afa158015613fbf573d6000803e3d6000fd5b505050506040513d601f19601f82011682018060405250810190613fe3919061677a565b90506001600160a01b038816614025576040517f2da573da00000000000000000000000000000000000000000000000000000000815260040160405180910390fd5b6001600160a01b038116614065576040517f2da573da00000000000000000000000000000000000000000000000000000000815260040160405180910390fd5b6001600160a01b0386166140a5576040517f2da573da00000000000000000000000000000000000000000000000000000000815260040160405180910390fd5b620186a08411156140e2576040517ff1640ae100000000000000000000000000000000000000000000000000000000815260040160405180910390fd5b620186a083111561411f576040517ff1640ae100000000000000000000000000000000000000000000000000000000815260040160405180910390fd5b600f80547fffffffffffffffffffffffff0000000000000000000000000000000000000000166001600160a01b0383811691909117909155600c54604080517f86c8e21d000000000000000000000000000000000000000000000000000000008152905191909216916386c8e21d9160048083019260209291908290030181865afa1580156141b2573d6000803e3d6000fd5b505050506040513d601f19601f820116820180604052508101906141d69190616069565b601055600d80546001600160a01b03808b167fffffffffffffffffffffffff000000000000000000000000000000000000000092831617909255600e899055601180549289169290911691909117905561422e61110b565b505062015f90601b55612710601c558361424b57620124f861424d565b835b6020558261425e5762013880614260565b825b602181905560205411156142a0576040517ff1640ae100000000000000000000000000000000000000000000000000000000815260040160405180910390fd5b600085116142b657670de0b6b3a76400006142b8565b845b6024555062013880601d5562015f90601e55612710601f55612ee0602255620151806014556000602e556103e8602f55670d87e55590018000603055670de0b6b3a7640000603155602380547fffffffffffffffffffffffff00000000000000000000000000000000000000009081166001600160a01b0393841617909155600754600a805491909316911617905550505050505050565b600c60009054906101000a90046001600160a01b03166001600160a01b031663c99fb76e6040518163ffffffff1660e01b8152600401602060405180830381865afa1580156143a3573d6000803e3d6000fd5b505050506040513d601f19601f820116820180604052508101906143c79190616069565b600e546028805460ff191692909114918217905560ff1661140d57602a54158015906143f4575060295415155b1561447457808210614432576040517fdefda01700000000000000000000000000000000000000000000000000000000815260040160405180910390fd5b670de0b6b3a7640000811115614474576040517f7871af0d00000000000000000000000000000000000000000000000000000000815260040160405180910390fd5b602b92909255602991909155602a55565b6001600160a01b0380841660008181526005602090815260408083209487168084529490915280822085905551849392917fe50de2333c10a9502fcb1d8ae13a51bbf423153dfc63c2b8997665b32154afc391a4505050565b606060ff83146144f8576144f183615143565b9050611423565b81805461450490615ee7565b80601f016020809104026020016040519081016040528092919081815260200182805461453090615ee7565b801561457d5780601f106145525761010080835404028352916020019161457d565b820191906000526020600020905b81548152906001019060200180831161456057829003601f168201915b50505050509050611423565b6001600160a01b0382166000908152601a6020526040812054819081906145b090856149a1565b6001600160a01b0387166000908152601960205260408120549294509092508190036145e25760009350505050611423565b826000036145f65760009350505050611423565b6016546fffffffffffffffffffffffffffffffff700100000000000000000000000000000000820481169161462c91168361629d565b61463691906162e3565b90508281101561464c5760009350505050611423565b81811061466057601d549350505050611423565b600061466c84846163e7565b620186a061467a86856163e7565b614684919061629d565b61468e91906162e3565b90506000601e54601d546146a291906163fa565b90506000601e54620186a084846146b9919061641a565b6146c39190616466565b6146cd919061693c565b9050601d548112156146de5750601d545b98975050505050505050565b60408051808201909152600080825260208201526027546000906147249068010000000000000000900467ffffffffffffffff16426163e7565b905080600003614771575050604080518082019091526016546fffffffffffffffffffffffffffffffff808216835270010000000000000000000000000000000090910416602082015290565b604080518082019091526016546fffffffffffffffffffffffffffffffff808216835270010000000000000000000000000000000090910416602082015291506000670de0b6b3a7640000826301e133806147ca6129f9565b6147d491906162e3565b85516147f291906fffffffffffffffffffffffffffffffff1661629d565b6147fc919061629d565b61480691906162e3565b601854909150600090614829906fffffffffffffffffffffffffffffffff6163e7565b905080821115614837578091505b61484082614fd0565b8451859061484f9083906168f7565b6fffffffffffffffffffffffffffffffff16905250929392505050565b60008082116148bd5760405162461bcd60e51b815260206004820152601e60248201527f4d61726b65743a2065786368616e676552617465206e6f742076616c6964000060448201526064016111f3565b600b54600e546001600160a01b038581166000908152601a60205260408082205490517f442c1599000000000000000000000000000000000000000000000000000000008152600481019490945260248401526044830181905292169063442c159990606401602060405180830381865afa158015614940573d6000803e3d6000fd5b505050506040513d601f19601f820116820180604052508101906149649190616069565b905082602054620186a060245461497b91906162e3565b614985908461629d565b61498f919061629d565b61499991906162e3565b949350505050565b600080600083116149f45760405162461bcd60e51b815260206004820152601e60248201527f4d61726b65743a2065786368616e676552617465206e6f742076616c6964000060448201526064016111f3565b600b54600e546040517f442c1599000000000000000000000000000000000000000000000000000000008152600481019190915260248101869052600060448201819052916001600160a01b03169063442c159990606401602060405180830381865afa158015614a69573d6000803e3d6000fd5b505050506040513d601f19601f82011682018060405250810190614a8d9190616069565b90508360245482614a9e919061629d565b614aa891906162e3565b9150620186a060205483614abc919061629d565b614ac691906162e3565b9250509250929050565b600260265403614b225760405162461bcd60e51b815260206004820152601f60248201527f5265656e7472616e637947756172643a207265656e7472616e742063616c6c0060448201526064016111f3565b6002602655565b60606103e882511115614b6f57505060408051808201909152601781527f4d61726b65743a20726561736f6e20746f6f206c6f6e67000000000000000000602082015290565b604482511015614bb257505060408051808201909152601681527f4d61726b65743a206e6f2072657475726e206461746100000000000000000000602082015290565b600482019150818060200190518101906114239190616964565b6000836001600160a01b03163b11614c265760405162461bcd60e51b815260206004820152601860248201527f53616665417070726f76653a206e6f20636f6e7472616374000000000000000060448201526064016111f3565b6040516001600160a01b0383811660248301526000604483018190529160609186169060640160408051601f198184030181529181526020820180517bffffffffffffffffffffffffffffffffffffffffffffffffffffffff167f095ea7b30000000000000000000000000000000000000000000000000000000017905251614caf9190616920565b6000604051808303816000865af19150503d8060008114614cec576040519150601f19603f3d011682016040523d82523d6000602084013e614cf1565b606091505b509092509050818015614d1c575080511580614d1c575080806020019051810190614d1c91906169d2565b614d685760405162461bcd60e51b815260206004820152601b60248201527f53616665417070726f76653a20617070726f7665206661696c6564000000000060448201526064016111f3565b8215614eaa576040516001600160a01b0385811660248301526044820185905286169060640160408051601f198184030181529181526020820180517bffffffffffffffffffffffffffffffffffffffffffffffffffffffff167f095ea7b30000000000000000000000000000000000000000000000000000000017905251614df19190616920565b6000604051808303816000865af19150503d8060008114614e2e576040519150601f19603f3d011682016040523d82523d6000602084013e614e33565b606091505b509092509050818015614e5e575080511580614e5e575080806020019051810190614e5e91906169d2565b614eaa5760405162461bcd60e51b815260206004820152601b60248201527f53616665417070726f76653a20617070726f7665206661696c6564000000000060448201526064016111f3565b5050505050565b6001600160a01b038116600090815260066020526040812080549082614ed6836169ef565b9091555092915050565b6000611423614eed613cc9565b836040517f19010000000000000000000000000000000000000000000000000000000000008152600281019290925260228201526042902090565b6000806000614f3987878787615182565b91509150614f4681615246565b5095945050505050565b600067ffffffffffffffff8211156128da5760405162461bcd60e51b815260206004820152602660248201527f53616665436173743a2076616c756520646f65736e27742066697420696e203660448201527f342062697473000000000000000000000000000000000000000000000000000060648201526084016111f3565b60006fffffffffffffffffffffffffffffffff8211156128da5760405162461bcd60e51b815260206004820152602760248201527f53616665436173743a2076616c756520646f65736e27742066697420696e203160448201527f323820626974730000000000000000000000000000000000000000000000000060648201526084016111f3565b600080600183600481111561506f5761506f61603a565b0361508657506033546001600160a01b0316615103565b600283600481111561509a5761509a61603a565b036150b157506034546001600160a01b0316615103565b60038360048111156150c5576150c561603a565b036150dc57506032546001600160a01b0316615103565b60048360048111156150f0576150f061603a565b0361510357506035546001600160a01b03165b6001600160a01b038116611423576040517f03bca7b700000000000000000000000000000000000000000000000000000000815260040160405180910390fd5b60606000615150836153ae565b604080516020808252818301909252919250600091906020820181803683375050509182525060208101929092525090565b6000807f7fffffffffffffffffffffffffffffff5d576e7357a4501ddfe92f46681b20a08311156151b9575060009050600361523d565b6040805160008082526020820180845289905260ff881692820192909252606081018690526080810185905260019060a0016020604051602081039080840390855afa15801561520d573d6000803e3d6000fd5b5050604051601f1901519150506001600160a01b0381166152365760006001925092505061523d565b9150600090505b94509492505050565b600081600481111561525a5761525a61603a565b036152625750565b60018160048111156152765761527661603a565b036152c35760405162461bcd60e51b815260206004820152601860248201527f45434453413a20696e76616c6964207369676e6174757265000000000000000060448201526064016111f3565b60028160048111156152d7576152d761603a565b036153245760405162461bcd60e51b815260206004820152601f60248201527f45434453413a20696e76616c6964207369676e6174757265206c656e6774680060448201526064016111f3565b60038160048111156153385761533861603a565b036153ab5760405162461bcd60e51b815260206004820152602260248201527f45434453413a20696e76616c6964207369676e6174757265202773272076616c60448201527f756500000000000000000000000000000000000000000000000000000000000060648201526084016111f3565b50565b600060ff8216601f811115611423576040517fb3512b0c00000000000000000000000000000000000000000000000000000000815260040160405180910390fd5b6001600160a01b03811681146153ab57600080fd5b803561540f816153ef565b919050565b6000806040838503121561542757600080fd5b8235615432816153ef565b91506020830135615442816153ef565b809150509250929050565b80151581146153ab57600080fd5b60008060006060848603121561547057600080fd5b833561547b816153ef565b9250602084013561548b8161544d565b9150604084013561549b8161544d565b809150509250925092565b600080604083850312156154b957600080fd5b82356154c4816153ef565b946020939093013593505050565b6000602082840312156154e457600080fd5b8135611f128161544d565b80356009811061540f57600080fd5b6000806040838503121561551157600080fd5b61551a836154ef565b915060208301356154428161544d565b60006020828403121561553c57600080fd5b8135611f12816153ef565b60ff811681146153ab57600080fd5b600080600080600080600060e0888a03121561557157600080fd5b873561557c816153ef565b9650602088013561558c816153ef565b9550604088013594506060880135935060808801356155aa81615547565b9699959850939692959460a0840135945060c09093013592915050565b6000806000606084860312156155dc57600080fd5b83356155e7816153ef565b925060208401356155f7816153ef565b929592945050506040919091013590565b6000806000806080858703121561561e57600080fd5b5050823594602084013594506040840135936060013592509050565b60008083601f84011261564c57600080fd5b50813567ffffffffffffffff81111561566457600080fd5b6020830191508360208260051b850101111561567f57600080fd5b9250929050565b60008060008060008060008060008060a08b8d0312156156a557600080fd5b8a3567ffffffffffffffff808211156156bd57600080fd5b6156c98e838f0161563a565b909c509a5060208d01359150808211156156e257600080fd5b6156ee8e838f0161563a565b909a50985060408d013591508082111561570757600080fd5b6157138e838f0161563a565b909850965060608d013591508082111561572c57600080fd5b6157388e838f0161563a565b909650945060808d013591508082111561575157600080fd5b5061575e8d828e0161563a565b915080935050809150509295989b9194979a5092959850565b60008060006060848603121561578c57600080fd5b505081359360208301359350604090920135919050565b60008083601f8401126157b557600080fd5b50813567ffffffffffffffff8111156157cd57600080fd5b60208301915083602082850101111561567f57600080fd5b600080602083850312156157f857600080fd5b823567ffffffffffffffff81111561580f57600080fd5b61581b858286016157a3565b90969095509350505050565b60006020828403121561583957600080fd5b611f12826154ef565b60005b8381101561585d578181015183820152602001615845565b50506000910152565b6000815180845261587e816020860160208601615842565b601f01601f19169290920160200192915050565b602081526000611f126020830184615866565b7fff00000000000000000000000000000000000000000000000000000000000000881681526000602060e060208401526158e260e084018a615866565b83810360408501526158f4818a615866565b606085018990526001600160a01b038816608086015260a0850187905284810360c08601528551808252602080880193509091019060005b818110156159485783518352928401929184019160010161592c565b50909c9b505050505050505050505050565b7f4e487b7100000000000000000000000000000000000000000000000000000000600052604160045260246000fd5b6040516101e0810167ffffffffffffffff811182821017156159ad576159ad61595a565b60405290565b604051601f8201601f1916810167ffffffffffffffff811182821017156159dc576159dc61595a565b604052919050565b600067ffffffffffffffff8211156159fe576159fe61595a565b50601f01601f191660200190565b60008060408385031215615a1f57600080fd5b823567ffffffffffffffff811115615a3657600080fd5b8301601f81018513615a4757600080fd5b8035615a5a615a55826159e4565b6159b3565b818152866020838501011115615a6f57600080fd5b81602084016020830137600060208383010152809450505050602083013561ffff8116811461544257600080fd5b600080600060408486031215615ab257600080fd5b833567ffffffffffffffff811115615ac957600080fd5b615ad58682870161563a565b909450925050602084013561549b8161544d565b604080825283519082018190526000906020906060840190828701845b82811015615b24578151151584529284019290840190600101615b06565b50505083810382850152845180825282820190600581901b8301840187850160005b83811015615b7457601f19868403018552615b62838351615866565b94870194925090860190600101615b46565b50909998505050505050505050565b60008060408385031215615b9657600080fd5b50508035926020909101359150565b60008060408385031215615bb857600080fd5b823591506020830135615442816153ef565b600080600080600080600060c0888a031215615be557600080fd5b8735615bf0816153ef565b96506020880135615c00816153ef565b95506040880135615c10816153ef565b94506060880135615c20816153ef565b9350608088013567ffffffffffffffff811115615c3c57600080fd5b615c488a828b016157a3565b90945092505060a0880135615c5c8161544d565b8091505092959891949750929550565b600080600060408486031215615c8157600080fd5b8335615c8c816153ef565b9250602084013567ffffffffffffffff811115615ca857600080fd5b615cb4868287016157a3565b9497909650939450505050565b60008060008060808587031215615cd757600080fd5b8435615ce2816153ef565b93506020850135615cf2816153ef565b92506040850135615d028161544d565b9396929550929360600135925050565b6000806000806000806000806000806000806101608d8f031215615d3557600080fd5b615d3f8d356153ef565b8c359b5067ffffffffffffffff60208e01351115615d5c57600080fd5b615d6c8e60208f01358f016157a3565b909b50995060408d0135615d7f816153ef565b9b9e9a9d50989b60608101359a60808201359a5060a0820135995060c0820135985060e0820135975061010082013596506101208201359550610140909101359350915050565b600080600080600060808688031215615dde57600080fd5b8535615de9816153ef565b94506020860135935060408601359250606086013567ffffffffffffffff811115615e1357600080fd5b615e1f888289016157a3565b969995985093965092949392505050565b60008060008060608587031215615e4657600080fd5b8435615e51816153ef565b935060208501359250604085013567ffffffffffffffff811115615e7457600080fd5b615e80878288016157a3565b95989497509550505050565b600080600080600060a08688031215615ea457600080fd5b8535615eaf816153ef565b94506020860135615ebf816153ef565b93506040860135615ecf8161544d565b94979396509394606081013594506080013592915050565b600181811c90821680615efb57607f821691505b602082108103615f34577f4e487b7100000000000000000000000000000000000000000000000000000000600052602260045260246000fd5b50919050565b6000602080835260008454615f4e81615ee7565b8060208701526040600180841660008114615f705760018114615f8c57615fbc565b60ff19851660408a0152604084151560051b8a01019550615fbc565b89600052602060002060005b85811015615fb35781548b8201860152908301908801615f98565b8a016040019650505b509398975050505050505050565b60008060408385031215615fdd57600080fd5b8251615fe88161544d565b6020939093015192949293505050565b7f4e487b7100000000000000000000000000000000000000000000000000000000600052601160045260246000fd5b8082018082111561142357611423615ff8565b7f4e487b7100000000000000000000000000000000000000000000000000000000600052602160045260246000fd5b60006020828403121561607b57600080fd5b5051919050565b81835260007f07ffffffffffffffffffffffffffffffffffffffffffffffffffffffffffffff8311156160b457600080fd5b8260051b80836020870137939093016020019392505050565b8183526000602080850194508260005b8581101561610b5781356160f0816153ef565b6001600160a01b0316875295820195908201906001016160dd565b509495945050505050565b818352818160208501375060006020828401015260006020601f19601f840116840101905092915050565b6000838385526020808601955060208560051b8301018460005b878110156161e857601f1985840301895281357fffffffffffffffffffffffffffffffffffffffffffffffffffffffffffffffe188360301811261619e57600080fd5b8701848101903567ffffffffffffffff8111156161ba57600080fd5b8036038213156161c957600080fd5b6161d4858284616116565b9a86019a945050509083019060010161615b565b5090979650505050505050565b60a080825281018a905260008b60c08301825b8d81101561623857823561621b816153ef565b6001600160a01b0316825260209283019290910190600101616208565b50838103602085015261624c818c8e616082565b915050828103604084015261626281898b616082565b905082810360608401526162778187896160cd565b9050828103608084015261628c818587616141565b9d9c50505050505050505050505050565b808202811582820484141761142357611423615ff8565b7f4e487b7100000000000000000000000000000000000000000000000000000000600052601260045260246000fd5b6000826162f2576162f26162b4565b500490565b600181815b8085111561633257816000190482111561631857616318615ff8565b8085161561632557918102915b93841c93908002906162fc565b509250929050565b60008261634957506001611423565b8161635657506000611423565b816001811461636c576002811461637657616392565b6001915050611423565b60ff84111561638757616387615ff8565b50506001821b611423565b5060208310610133831016604e8410600b84101617156163b5575081810a611423565b6163bf83836162f7565b80600019048211156163d3576163d3615ff8565b029392505050565b6000611f12838361633a565b8181038181111561142357611423615ff8565b8181036000831280158383131683831282161715613e6b57613e6b615ff8565b808202600082127f80000000000000000000000000000000000000000000000000000000000000008414161561645257616452615ff8565b818105831482151761142357611423615ff8565b600082616475576164756162b4565b60001983147f8000000000000000000000000000000000000000000000000000000000000000831416156164ab576164ab615ff8565b500590565b60007f800000000000000000000000000000000000000000000000000000000000000082036164e1576164e1615ff8565b5060000390565b60006101e082840312156164fb57600080fd5b616503615989565b61650c83615404565b815261651a60208401615404565b602082015261652b60408401615404565b604082015261653c60608401615404565b606082015261654d60808401615404565b608082015261655e60a08401615404565b60a082015260c083013560c082015261657960e08401615404565b60e0820152610100838101359082015261012080840135908201526101408084013590820152610160808401359082015261018080840135908201526101a080840135908201526101c06165ce818501615404565b908201529392505050565b600080604083850312156165ec57600080fd5b505080516020909101519092909150565b600080600080600080600080610100898b03121561661a57600080fd5b88516166258161544d565b60208a0151909850616636816153ef565b60408a0151909750616647816153ef565b80965050606089015194506080890151935060a089015161666781615547565b60c08a015160e0909a0151989b979a5095989497939692505050565b7f4e487b7100000000000000000000000000000000000000000000000000000000600052603260045260246000fd5b60008083357fffffffffffffffffffffffffffffffffffffffffffffffffffffffffffffffe18436030181126166e757600080fd5b83018035915067ffffffffffffffff82111561670257600080fd5b60200191503681900382131561567f57600080fd5b8183823760009101908152919050565b60006001600160a01b03808a1683528089166020840152808816604084015280871660608401525060c0608083015261676460c083018587616116565b905082151560a083015298975050505050505050565b60006020828403121561678c57600080fd5b8151611f12816153ef565b601f82111561140d576000816000526020600020601f850160051c810160208610156167c05750805b601f850160051c820191505b81811015613723578281556001016167cc565b67ffffffffffffffff8311156167f7576167f761595a565b61680b836168058354615ee7565b83616797565b6000601f84116001811461683f57600085156168275750838201355b600019600387901b1c1916600186901b178355614eaa565b600083815260209020601f19861690835b828110156168705786850135825560209485019460019092019101616850565b508682101561688d5760001960f88860031b161c19848701351681555b505060018560011b0183555050505050565b6001600160a01b038616815284602082015283604082015260806060820152600061367d608083018486616116565b6001600160a01b0385168152836020820152606060408201526000612e3a606083018486616116565b6fffffffffffffffffffffffffffffffff818116838216019080821115613e6b57613e6b615ff8565b60008251616932818460208701615842565b9190910192915050565b808201828112600083128015821682158216171561695c5761695c615ff8565b505092915050565b60006020828403121561697657600080fd5b815167ffffffffffffffff81111561698d57600080fd5b8201601f8101841361699e57600080fd5b80516169ac615a55826159e4565b8181528560208385010111156169c157600080fd5b612c51826020830160208601615842565b6000602082840312156169e457600080fd5b8151611f128161544d565b60006000198203616a0257616a02615ff8565b506001019056fea26469706673582212200ec6062e1e954dbb6193af747238cd4c08ac3560b3a2e308c738b5521ca03da764736f6c63430008160033",
  "linkReferences": {},
  "deployedLinkReferences": {}
}