{
  "_format": "hh-sol-artifact-1",
  "contractName": "BigBang",
  "sourceName": "contracts/markets/bigBang/BigBang.sol",
  "abi": [
    {
      "inputs": [],
      "stateMutability": "nonpayable",
      "type": "constructor"
    },
    {
      "inputs": [
        {
          "internalType": "address",
          "name": "_from",
          "type": "address"
        },
        {
          "internalType": "address",
          "name": "_operator",
          "type": "address"
        }
      ],
      "name": "NotApproved",
      "type": "error"
    },
    {
      "anonymous": false,
      "inputs": [
        {
          "indexed": true,
          "internalType": "address",
          "name": "owner",
          "type": "address"
        },
        {
          "indexed": true,
          "internalType": "address",
          "name": "spender",
          "type": "address"
        },
        {
          "indexed": false,
          "internalType": "uint256",
          "name": "value",
          "type": "uint256"
        }
      ],
      "name": "Approval",
      "type": "event"
    },
    {
      "anonymous": false,
      "inputs": [
        {
          "indexed": true,
          "internalType": "address",
          "name": "owner",
          "type": "address"
        },
        {
          "indexed": true,
          "internalType": "address",
          "name": "spender",
          "type": "address"
        },
        {
          "indexed": false,
          "internalType": "uint256",
          "name": "value",
          "type": "uint256"
        }
      ],
      "name": "ApprovalBorrow",
      "type": "event"
    },
    {
      "anonymous": false,
      "inputs": [
        {
          "indexed": true,
          "internalType": "address",
          "name": "old",
          "type": "address"
        },
        {
          "indexed": true,
          "internalType": "address",
          "name": "_new",
          "type": "address"
        }
      ],
      "name": "ConservatorUpdated",
      "type": "event"
    },
    {
      "anonymous": false,
      "inputs": [
        {
          "indexed": false,
          "internalType": "uint256",
          "name": "accruedAmount",
          "type": "uint256"
        },
        {
          "indexed": false,
          "internalType": "uint64",
          "name": "rate",
          "type": "uint64"
        }
      ],
      "name": "LogAccrue",
      "type": "event"
    },
    {
      "anonymous": false,
      "inputs": [
        {
          "indexed": true,
          "internalType": "address",
          "name": "from",
          "type": "address"
        },
        {
          "indexed": true,
          "internalType": "address",
          "name": "to",
          "type": "address"
        },
        {
          "indexed": false,
          "internalType": "uint256",
          "name": "share",
          "type": "uint256"
        }
      ],
      "name": "LogAddCollateral",
      "type": "event"
    },
    {
      "anonymous": false,
      "inputs": [
        {
          "indexed": true,
          "internalType": "address",
          "name": "from",
          "type": "address"
        },
        {
          "indexed": true,
          "internalType": "address",
          "name": "to",
          "type": "address"
        },
        {
          "indexed": false,
          "internalType": "uint256",
          "name": "amount",
          "type": "uint256"
        },
        {
          "indexed": false,
          "internalType": "uint256",
          "name": "feeAmount",
          "type": "uint256"
        },
        {
          "indexed": false,
          "internalType": "uint256",
          "name": "part",
          "type": "uint256"
        }
      ],
      "name": "LogBorrow",
      "type": "event"
    },
    {
      "anonymous": false,
      "inputs": [
        {
          "indexed": false,
          "internalType": "uint256",
          "name": "_oldVal",
          "type": "uint256"
        },
        {
          "indexed": false,
          "internalType": "uint256",
          "name": "_newVal",
          "type": "uint256"
        }
      ],
      "name": "LogBorrowCapUpdated",
      "type": "event"
    },
    {
      "anonymous": false,
      "inputs": [
        {
          "indexed": false,
          "internalType": "uint256",
          "name": "_oldVal",
          "type": "uint256"
        },
        {
          "indexed": false,
          "internalType": "uint256",
          "name": "_newVal",
          "type": "uint256"
        }
      ],
      "name": "LogBorrowingFee",
      "type": "event"
    },
    {
      "anonymous": false,
      "inputs": [
        {
          "indexed": false,
          "internalType": "uint256",
          "name": "rate",
          "type": "uint256"
        }
      ],
      "name": "LogExchangeRate",
      "type": "event"
    },
    {
      "anonymous": false,
      "inputs": [
        {
          "indexed": true,
          "internalType": "address",
          "name": "from",
          "type": "address"
        },
        {
          "indexed": true,
          "internalType": "address",
          "name": "to",
          "type": "address"
        },
        {
          "indexed": false,
          "internalType": "uint256",
          "name": "share",
          "type": "uint256"
        }
      ],
      "name": "LogRemoveCollateral",
      "type": "event"
    },
    {
      "anonymous": false,
      "inputs": [
        {
          "indexed": true,
          "internalType": "address",
          "name": "from",
          "type": "address"
        },
        {
          "indexed": true,
          "internalType": "address",
          "name": "to",
          "type": "address"
        },
        {
          "indexed": false,
          "internalType": "uint256",
          "name": "amount",
          "type": "uint256"
        },
        {
          "indexed": false,
          "internalType": "uint256",
          "name": "part",
          "type": "uint256"
        }
      ],
      "name": "LogRepay",
      "type": "event"
    },
    {
      "anonymous": false,
      "inputs": [],
      "name": "OracleDataUpdated",
      "type": "event"
    },
    {
      "anonymous": false,
      "inputs": [
        {
          "indexed": true,
          "internalType": "address",
          "name": "previousOwner",
          "type": "address"
        },
        {
          "indexed": true,
          "internalType": "address",
          "name": "newOwner",
          "type": "address"
        }
      ],
      "name": "OwnershipTransferred",
      "type": "event"
    },
    {
      "anonymous": false,
      "inputs": [
        {
          "indexed": false,
          "internalType": "bool",
          "name": "oldState",
          "type": "bool"
        },
        {
          "indexed": false,
          "internalType": "bool",
          "name": "newState",
          "type": "bool"
        }
      ],
      "name": "PausedUpdated",
      "type": "event"
    },
    {
      "anonymous": false,
      "inputs": [
        {
          "indexed": true,
          "internalType": "address",
          "name": "from",
          "type": "address"
        },
        {
          "indexed": true,
          "internalType": "address",
          "name": "to",
          "type": "address"
        },
        {
          "indexed": false,
          "internalType": "uint256",
          "name": "value",
          "type": "uint256"
        }
      ],
      "name": "Transfer",
      "type": "event"
    },
    {
      "inputs": [],
      "name": "DOMAIN_SEPARATOR",
      "outputs": [
        {
          "internalType": "bytes32",
          "name": "",
          "type": "bytes32"
        }
      ],
      "stateMutability": "view",
      "type": "function"
    },
    {
      "inputs": [],
      "name": "accrue",
      "outputs": [],
      "stateMutability": "nonpayable",
      "type": "function"
    },
    {
      "inputs": [],
      "name": "accrueInfo",
      "outputs": [
        {
          "internalType": "uint64",
          "name": "debtRate",
          "type": "uint64"
        },
        {
          "internalType": "uint64",
          "name": "lastAccrued",
          "type": "uint64"
        }
      ],
      "stateMutability": "view",
      "type": "function"
    },
    {
      "inputs": [
        {
          "internalType": "address",
          "name": "from",
          "type": "address"
        },
        {
          "internalType": "address",
          "name": "to",
          "type": "address"
        },
        {
          "internalType": "bool",
          "name": "skim",
          "type": "bool"
        },
        {
          "internalType": "uint256",
          "name": "share",
          "type": "uint256"
        }
      ],
      "name": "addCollateral",
      "outputs": [],
      "stateMutability": "nonpayable",
      "type": "function"
    },
    {
      "inputs": [
        {
          "internalType": "address",
          "name": "",
          "type": "address"
        },
        {
          "internalType": "address",
          "name": "",
          "type": "address"
        }
      ],
      "name": "allowance",
      "outputs": [
        {
          "internalType": "uint256",
          "name": "",
          "type": "uint256"
        }
      ],
      "stateMutability": "view",
      "type": "function"
    },
    {
      "inputs": [
        {
          "internalType": "address",
          "name": "",
          "type": "address"
        },
        {
          "internalType": "address",
          "name": "",
          "type": "address"
        }
      ],
      "name": "allowanceBorrow",
      "outputs": [
        {
          "internalType": "uint256",
          "name": "",
          "type": "uint256"
        }
      ],
      "stateMutability": "view",
      "type": "function"
    },
    {
      "inputs": [
        {
          "internalType": "address",
          "name": "spender",
          "type": "address"
        },
        {
          "internalType": "uint256",
          "name": "amount",
          "type": "uint256"
        }
      ],
      "name": "approve",
      "outputs": [
        {
          "internalType": "bool",
          "name": "",
          "type": "bool"
        }
      ],
      "stateMutability": "nonpayable",
      "type": "function"
    },
    {
      "inputs": [
        {
          "internalType": "address",
          "name": "spender",
          "type": "address"
        },
        {
          "internalType": "uint256",
          "name": "amount",
          "type": "uint256"
        }
      ],
      "name": "approveBorrow",
      "outputs": [
        {
          "internalType": "bool",
          "name": "",
          "type": "bool"
        }
      ],
      "stateMutability": "nonpayable",
      "type": "function"
    },
    {
      "inputs": [],
      "name": "asset",
      "outputs": [
        {
          "internalType": "contract IERC20",
          "name": "",
          "type": "address"
        }
      ],
      "stateMutability": "view",
      "type": "function"
    },
    {
      "inputs": [],
      "name": "assetId",
      "outputs": [
        {
          "internalType": "uint256",
          "name": "",
          "type": "uint256"
        }
      ],
      "stateMutability": "view",
      "type": "function"
    },
    {
      "inputs": [
        {
          "internalType": "address",
          "name": "",
          "type": "address"
        }
      ],
      "name": "balanceOf",
      "outputs": [
        {
          "internalType": "uint256",
          "name": "",
          "type": "uint256"
        }
      ],
      "stateMutability": "view",
      "type": "function"
    },
    {
      "inputs": [
        {
          "internalType": "address",
          "name": "from",
          "type": "address"
        },
        {
          "internalType": "address",
          "name": "to",
          "type": "address"
        },
        {
          "internalType": "uint256",
          "name": "amount",
          "type": "uint256"
        }
      ],
      "name": "borrow",
      "outputs": [
        {
          "internalType": "uint256",
          "name": "part",
          "type": "uint256"
        },
        {
          "internalType": "uint256",
          "name": "share",
          "type": "uint256"
        }
      ],
      "stateMutability": "nonpayable",
      "type": "function"
    },
    {
      "inputs": [],
      "name": "borrowingFee",
      "outputs": [
        {
          "internalType": "uint256",
          "name": "",
          "type": "uint256"
        }
      ],
      "stateMutability": "view",
      "type": "function"
    },
    {
      "inputs": [],
      "name": "callerFee",
      "outputs": [
        {
          "internalType": "uint256",
          "name": "",
          "type": "uint256"
        }
      ],
      "stateMutability": "view",
      "type": "function"
    },
    {
      "inputs": [],
      "name": "claimOwnership",
      "outputs": [],
      "stateMutability": "nonpayable",
      "type": "function"
    },
    {
      "inputs": [],
      "name": "collateral",
      "outputs": [
        {
          "internalType": "contract IERC20",
          "name": "",
          "type": "address"
        }
      ],
      "stateMutability": "view",
      "type": "function"
    },
    {
      "inputs": [],
      "name": "collateralId",
      "outputs": [
        {
          "internalType": "uint256",
          "name": "",
          "type": "uint256"
        }
      ],
      "stateMutability": "view",
      "type": "function"
    },
    {
      "inputs": [],
      "name": "collateralizationRate",
      "outputs": [
        {
          "internalType": "uint256",
          "name": "",
          "type": "uint256"
        }
      ],
      "stateMutability": "view",
      "type": "function"
    },
    {
      "inputs": [
        {
          "internalType": "address",
          "name": "user",
          "type": "address"
        },
        {
          "internalType": "uint256",
          "name": "_exchangeRate",
          "type": "uint256"
        }
      ],
      "name": "computeClosingFactor",
      "outputs": [
        {
          "internalType": "uint256",
          "name": "",
          "type": "uint256"
        }
      ],
      "stateMutability": "view",
      "type": "function"
    },
    {
      "inputs": [
        {
          "internalType": "address",
          "name": "user",
          "type": "address"
        },
        {
          "internalType": "uint256",
          "name": "_exchangeRate",
          "type": "uint256"
        }
      ],
      "name": "computeLiquidatorReward",
      "outputs": [
        {
          "internalType": "uint256",
          "name": "",
          "type": "uint256"
        }
      ],
      "stateMutability": "view",
      "type": "function"
    },
    {
      "inputs": [
        {
          "internalType": "address",
          "name": "user",
          "type": "address"
        },
        {
          "internalType": "uint256",
          "name": "_exchangeRate",
          "type": "uint256"
        }
      ],
      "name": "computeTVLInfo",
      "outputs": [
        {
          "internalType": "uint256",
          "name": "amountToSolvency",
          "type": "uint256"
        },
        {
          "internalType": "uint256",
          "name": "minTVL",
          "type": "uint256"
        },
        {
          "internalType": "uint256",
          "name": "maxTVL",
          "type": "uint256"
        }
      ],
      "stateMutability": "view",
      "type": "function"
    },
    {
      "inputs": [],
      "name": "conservator",
      "outputs": [
        {
          "internalType": "address",
          "name": "",
          "type": "address"
        }
      ],
      "stateMutability": "view",
      "type": "function"
    },
    {
      "inputs": [],
      "name": "debtRateAgainstEthMarket",
      "outputs": [
        {
          "internalType": "uint256",
          "name": "",
          "type": "uint256"
        }
      ],
      "stateMutability": "view",
      "type": "function"
    },
    {
      "inputs": [],
      "name": "debtStartPoint",
      "outputs": [
        {
          "internalType": "uint256",
          "name": "",
          "type": "uint256"
        }
      ],
      "stateMutability": "view",
      "type": "function"
    },
    {
      "inputs": [],
      "name": "exchangeRate",
      "outputs": [
        {
          "internalType": "uint256",
          "name": "",
          "type": "uint256"
        }
      ],
      "stateMutability": "view",
      "type": "function"
    },
    {
      "inputs": [
        {
          "internalType": "bytes[]",
          "name": "calls",
          "type": "bytes[]"
        },
        {
          "internalType": "bool",
          "name": "revertOnFail",
          "type": "bool"
        }
      ],
      "name": "execute",
      "outputs": [
        {
          "internalType": "bool[]",
          "name": "successes",
          "type": "bool[]"
        },
        {
          "internalType": "string[]",
          "name": "results",
          "type": "string[]"
        }
      ],
      "stateMutability": "nonpayable",
      "type": "function"
    },
    {
      "inputs": [],
      "name": "getDebtRate",
      "outputs": [
        {
          "internalType": "uint256",
          "name": "",
          "type": "uint256"
        }
      ],
      "stateMutability": "view",
      "type": "function"
    },
    {
      "inputs": [],
      "name": "getTotalDebt",
      "outputs": [
        {
          "internalType": "uint256",
          "name": "",
          "type": "uint256"
        }
      ],
      "stateMutability": "view",
      "type": "function"
    },
    {
      "inputs": [
        {
          "internalType": "bytes",
          "name": "data",
          "type": "bytes"
        }
      ],
      "name": "init",
      "outputs": [],
      "stateMutability": "nonpayable",
      "type": "function"
    },
    {
      "inputs": [
        {
          "internalType": "address[]",
          "name": "users",
          "type": "address[]"
        },
        {
          "internalType": "uint256[]",
          "name": "maxBorrowParts",
          "type": "uint256[]"
        },
        {
          "internalType": "contract ISwapper",
          "name": "swapper",
          "type": "address"
        },
        {
          "internalType": "bytes",
          "name": "collateralToAssetSwapData",
          "type": "bytes"
        }
      ],
      "name": "liquidate",
      "outputs": [],
      "stateMutability": "nonpayable",
      "type": "function"
    },
    {
      "inputs": [],
      "name": "liquidationBonusAmount",
      "outputs": [
        {
          "internalType": "uint256",
          "name": "",
          "type": "uint256"
        }
      ],
      "stateMutability": "view",
      "type": "function"
    },
    {
      "inputs": [],
      "name": "maxDebtRate",
      "outputs": [
        {
          "internalType": "uint256",
          "name": "",
          "type": "uint256"
        }
      ],
      "stateMutability": "view",
      "type": "function"
    },
    {
      "inputs": [],
      "name": "maxLiquidatorReward",
      "outputs": [
        {
          "internalType": "uint256",
          "name": "",
          "type": "uint256"
        }
      ],
      "stateMutability": "view",
      "type": "function"
    },
    {
      "inputs": [],
      "name": "minDebtRate",
      "outputs": [
        {
          "internalType": "uint256",
          "name": "",
          "type": "uint256"
        }
      ],
      "stateMutability": "view",
      "type": "function"
    },
    {
      "inputs": [],
      "name": "minLiquidatorReward",
      "outputs": [
        {
          "internalType": "uint256",
          "name": "",
          "type": "uint256"
        }
      ],
      "stateMutability": "view",
      "type": "function"
    },
    {
      "inputs": [
        {
          "internalType": "address",
          "name": "owner",
          "type": "address"
        }
      ],
      "name": "nonces",
      "outputs": [
        {
          "internalType": "uint256",
          "name": "",
          "type": "uint256"
        }
      ],
      "stateMutability": "view",
      "type": "function"
    },
    {
      "inputs": [
        {
          "internalType": "address",
          "name": "",
          "type": "address"
        },
        {
          "internalType": "address",
          "name": "",
          "type": "address"
        }
      ],
      "name": "operators",
      "outputs": [
        {
          "internalType": "bool",
          "name": "",
          "type": "bool"
        }
      ],
      "stateMutability": "view",
      "type": "function"
    },
    {
      "inputs": [],
      "name": "oracle",
      "outputs": [
        {
          "internalType": "contract IOracle",
          "name": "",
          "type": "address"
        }
      ],
      "stateMutability": "view",
      "type": "function"
    },
    {
      "inputs": [],
      "name": "oracleData",
      "outputs": [
        {
          "internalType": "bytes",
          "name": "",
          "type": "bytes"
        }
      ],
      "stateMutability": "view",
      "type": "function"
    },
    {
      "inputs": [],
      "name": "owner",
      "outputs": [
        {
          "internalType": "address",
          "name": "",
          "type": "address"
        }
      ],
      "stateMutability": "view",
      "type": "function"
    },
    {
      "inputs": [],
      "name": "paused",
      "outputs": [
        {
          "internalType": "bool",
          "name": "",
          "type": "bool"
        }
      ],
      "stateMutability": "view",
      "type": "function"
    },
    {
      "inputs": [],
      "name": "pendingOwner",
      "outputs": [
        {
          "internalType": "address",
          "name": "",
          "type": "address"
        }
      ],
      "stateMutability": "view",
      "type": "function"
    },
    {
      "inputs": [],
      "name": "penrose",
      "outputs": [
        {
          "internalType": "contract IPenrose",
          "name": "",
          "type": "address"
        }
      ],
      "stateMutability": "view",
      "type": "function"
    },
    {
      "inputs": [
        {
          "internalType": "address",
          "name": "owner",
          "type": "address"
        },
        {
          "internalType": "address",
          "name": "spender",
          "type": "address"
        },
        {
          "internalType": "uint256",
          "name": "value",
          "type": "uint256"
        },
        {
          "internalType": "uint256",
          "name": "deadline",
          "type": "uint256"
        },
        {
          "internalType": "uint8",
          "name": "v",
          "type": "uint8"
        },
        {
          "internalType": "bytes32",
          "name": "r",
          "type": "bytes32"
        },
        {
          "internalType": "bytes32",
          "name": "s",
          "type": "bytes32"
        }
      ],
      "name": "permit",
      "outputs": [],
      "stateMutability": "nonpayable",
      "type": "function"
    },
    {
      "inputs": [
        {
          "internalType": "address",
          "name": "owner",
          "type": "address"
        },
        {
          "internalType": "address",
          "name": "spender",
          "type": "address"
        },
        {
          "internalType": "uint256",
          "name": "value",
          "type": "uint256"
        },
        {
          "internalType": "uint256",
          "name": "deadline",
          "type": "uint256"
        },
        {
          "internalType": "uint8",
          "name": "v",
          "type": "uint8"
        },
        {
          "internalType": "bytes32",
          "name": "r",
          "type": "bytes32"
        },
        {
          "internalType": "bytes32",
          "name": "s",
          "type": "bytes32"
        }
      ],
      "name": "permitBorrow",
      "outputs": [],
      "stateMutability": "nonpayable",
      "type": "function"
    },
    {
      "inputs": [],
      "name": "protocolFee",
      "outputs": [
        {
          "internalType": "uint256",
          "name": "",
          "type": "uint256"
        }
      ],
      "stateMutability": "view",
      "type": "function"
    },
    {
      "inputs": [
        {
          "internalType": "address",
          "name": "",
          "type": "address"
        }
      ],
      "name": "refreshPenroseFees",
      "outputs": [
        {
          "internalType": "uint256",
          "name": "feeShares",
          "type": "uint256"
        }
      ],
      "stateMutability": "nonpayable",
      "type": "function"
    },
    {
      "inputs": [
        {
          "internalType": "address",
          "name": "from",
          "type": "address"
        },
        {
          "internalType": "address",
          "name": "to",
          "type": "address"
        },
        {
          "internalType": "uint256",
          "name": "share",
          "type": "uint256"
        }
      ],
      "name": "removeCollateral",
      "outputs": [],
      "stateMutability": "nonpayable",
      "type": "function"
    },
    {
      "inputs": [
        {
          "internalType": "address",
          "name": "from",
          "type": "address"
        },
        {
          "internalType": "address",
          "name": "to",
          "type": "address"
        },
        {
          "internalType": "bool",
          "name": "",
          "type": "bool"
        },
        {
          "internalType": "uint256",
          "name": "part",
          "type": "uint256"
        }
      ],
      "name": "repay",
      "outputs": [
        {
          "internalType": "uint256",
          "name": "amount",
          "type": "uint256"
        }
      ],
      "stateMutability": "nonpayable",
      "type": "function"
    },
    {
      "inputs": [
        {
          "internalType": "uint256",
          "name": "_cap",
          "type": "uint256"
        }
      ],
      "name": "setBorrowCap",
      "outputs": [],
      "stateMutability": "nonpayable",
      "type": "function"
    },
    {
      "inputs": [
        {
          "internalType": "uint256",
          "name": "_val",
          "type": "uint256"
        }
      ],
      "name": "setCallerFee",
      "outputs": [],
      "stateMutability": "nonpayable",
      "type": "function"
    },
    {
      "inputs": [
        {
          "internalType": "uint256",
          "name": "_val",
          "type": "uint256"
        }
      ],
      "name": "setCollateralizationRate",
      "outputs": [],
      "stateMutability": "nonpayable",
      "type": "function"
    },
    {
      "inputs": [
        {
          "internalType": "address",
          "name": "_conservator",
          "type": "address"
        }
      ],
      "name": "setConservator",
      "outputs": [],
      "stateMutability": "nonpayable",
      "type": "function"
    },
    {
      "inputs": [
        {
          "internalType": "uint256",
          "name": "_val",
          "type": "uint256"
        }
      ],
      "name": "setLiquidationBonusAmount",
      "outputs": [],
      "stateMutability": "nonpayable",
      "type": "function"
    },
    {
      "inputs": [
        {
          "internalType": "uint256",
          "name": "_val",
          "type": "uint256"
        }
      ],
      "name": "setMaxLiquidatorReward",
      "outputs": [],
      "stateMutability": "nonpayable",
      "type": "function"
    },
    {
      "inputs": [
        {
          "internalType": "uint256",
          "name": "_val",
          "type": "uint256"
        }
      ],
      "name": "setMinLiquidatorReward",
      "outputs": [],
      "stateMutability": "nonpayable",
      "type": "function"
    },
    {
      "inputs": [
        {
          "internalType": "bytes",
          "name": "_oracleData",
          "type": "bytes"
        }
      ],
      "name": "setOracleData",
      "outputs": [],
      "stateMutability": "nonpayable",
      "type": "function"
    },
    {
      "inputs": [
        {
          "internalType": "uint256",
          "name": "_val",
          "type": "uint256"
        }
      ],
      "name": "setProtocolFee",
      "outputs": [],
      "stateMutability": "nonpayable",
      "type": "function"
    },
    {
      "inputs": [],
      "name": "totalBorrow",
      "outputs": [
        {
          "internalType": "uint128",
          "name": "elastic",
          "type": "uint128"
        },
        {
          "internalType": "uint128",
          "name": "base",
          "type": "uint128"
        }
      ],
      "stateMutability": "view",
      "type": "function"
    },
    {
      "inputs": [],
      "name": "totalBorrowCap",
      "outputs": [
        {
          "internalType": "uint256",
          "name": "",
          "type": "uint256"
        }
      ],
      "stateMutability": "view",
      "type": "function"
    },
    {
      "inputs": [],
      "name": "totalCollateralShare",
      "outputs": [
        {
          "internalType": "uint256",
          "name": "",
          "type": "uint256"
        }
      ],
      "stateMutability": "view",
      "type": "function"
    },
    {
      "inputs": [],
      "name": "totalFees",
      "outputs": [
        {
          "internalType": "uint256",
          "name": "",
          "type": "uint256"
        }
      ],
      "stateMutability": "view",
      "type": "function"
    },
    {
      "inputs": [],
      "name": "totalSupply",
      "outputs": [
        {
          "internalType": "uint256",
          "name": "",
          "type": "uint256"
        }
      ],
      "stateMutability": "view",
      "type": "function"
    },
    {
      "inputs": [
        {
          "internalType": "address",
          "name": "to",
          "type": "address"
        },
        {
          "internalType": "uint256",
          "name": "amount",
          "type": "uint256"
        }
      ],
      "name": "transfer",
      "outputs": [
        {
          "internalType": "bool",
          "name": "",
          "type": "bool"
        }
      ],
      "stateMutability": "nonpayable",
      "type": "function"
    },
    {
      "inputs": [
        {
          "internalType": "address",
          "name": "from",
          "type": "address"
        },
        {
          "internalType": "address",
          "name": "to",
          "type": "address"
        },
        {
          "internalType": "uint256",
          "name": "amount",
          "type": "uint256"
        }
      ],
      "name": "transferFrom",
      "outputs": [
        {
          "internalType": "bool",
          "name": "",
          "type": "bool"
        }
      ],
      "stateMutability": "nonpayable",
      "type": "function"
    },
    {
      "inputs": [
        {
          "internalType": "address",
          "name": "newOwner",
          "type": "address"
        },
        {
          "internalType": "bool",
          "name": "direct",
          "type": "bool"
        },
        {
          "internalType": "bool",
          "name": "renounce",
          "type": "bool"
        }
      ],
      "name": "transferOwnership",
      "outputs": [],
      "stateMutability": "nonpayable",
      "type": "function"
    },
    {
      "inputs": [
        {
          "internalType": "uint256",
          "name": "_borrowingFee",
          "type": "uint256"
        }
      ],
      "name": "updateBorrowingFee",
      "outputs": [],
      "stateMutability": "nonpayable",
      "type": "function"
    },
    {
      "inputs": [],
      "name": "updateExchangeRate",
      "outputs": [
        {
          "internalType": "bool",
          "name": "updated",
          "type": "bool"
        },
        {
          "internalType": "uint256",
          "name": "rate",
          "type": "uint256"
        }
      ],
      "stateMutability": "nonpayable",
      "type": "function"
    },
    {
      "inputs": [
        {
          "internalType": "address",
          "name": "operator",
          "type": "address"
        },
        {
          "internalType": "bool",
          "name": "status",
          "type": "bool"
        }
      ],
      "name": "updateOperator",
      "outputs": [],
      "stateMutability": "nonpayable",
      "type": "function"
    },
    {
      "inputs": [
        {
          "internalType": "bool",
          "name": "val",
          "type": "bool"
        }
      ],
      "name": "updatePause",
      "outputs": [],
      "stateMutability": "nonpayable",
      "type": "function"
    },
    {
      "inputs": [
        {
          "internalType": "address",
          "name": "",
          "type": "address"
        }
      ],
      "name": "userBorrowPart",
      "outputs": [
        {
          "internalType": "uint256",
          "name": "",
          "type": "uint256"
        }
      ],
      "stateMutability": "view",
      "type": "function"
    },
    {
      "inputs": [
        {
          "internalType": "address",
          "name": "",
          "type": "address"
        }
      ],
      "name": "userCollateralShare",
      "outputs": [
        {
          "internalType": "uint256",
          "name": "",
          "type": "uint256"
        }
      ],
      "stateMutability": "view",
      "type": "function"
    },
    {
      "inputs": [],
      "name": "yieldBox",
      "outputs": [
        {
          "internalType": "contract YieldBox",
          "name": "",
          "type": "address"
        }
      ],
      "stateMutability": "view",
      "type": "function"
    }
  ],
  "bytecode": "0x61014080604052346200017a5762000017816200017f565b600f81526001602082016e546170696f63612042696742616e6760881b8152602060405162000046816200017f565b8381520192603160f81b845251902091208160e052610100918183524660a0526040519160208301907f8b73c3c69bb8fe3d512ecc4cf759cc79239f7b179b0ffacaa9a75d522b39400f92838352604085015260608401524660808401523060a084015260a0835260c083019280841060018060401b03851117620001645760408490525190206080523060c052610120908152600580546001600160a01b0319163390811790915560007f8be0079c531659141344cd1fd0a4f28419497f9722a3daafe3b4186f6b6457e08180a36103e860185561271080601955601a55614e4492836200019c843960805183613134015260a051836131ef015260c05183613105015260e05183613183015251826131a9015251816131600152f35b634e487b7160e01b600052604160045260246000fd5b600080fd5b604081019081106001600160401b03821117620001645760405256fe6080604052600436101561001257600080fd5b60003560e01c8062a02a20146104a657806302ce728f146104a1578063078dfbe71461049c578063095ea7b31461049757806313114a9d1461049257806318160ddd1461048d5780631c9e379b146104885780631da8bf10146104835780631e35078e1461047e5780631fb8f81a14610479578063224d763a1461047457806323b872dd1461046f57806325be78241461046a5780632637588e146104655780632a685acd146104605780632cc2470d1461045b57806334ce998a1461045657806334d441d0146104515780633644e5151461044c57806338d52e0f146104475780633ba0b9a91461044257806340626d8b1461043d57806344de240a14610438578063473e3ce71461043357806348e4163e1461042e5780634ddf47d4146104295780634e71e0c8146104245780635224372c1461041f57806353aa7dcd1461041a57806357935462146104155780635c975abb146104105780636b19ad161461040b5780636c3d8b8f146104065780636d44a3b21461040157806370a08231146103fc578063717186d1146103f757806374645ff3146103f2578063787dce3d146103ed5780637a4d973b146103e85780637dc0d1d0146103e35780637ecebe00146103de5780637fa0b84e146103d95780638285ef40146103d45780638377be50146103cf5780638c5d0ed3146103ca5780638da5cb5b146103c557806399a97028146103c05780639c50aac8146103bb5780639e15e89f146103b6578063a9059cbb146103b1578063a96be18e146103ac578063aa7d9665146103a7578063b0e21e8a146103a2578063b27c0e741461039d578063b6b113d814610398578063bb4cfe3b14610393578063bde39c5d1461038e578063c1ad5c8d14610389578063cce19f8114610384578063cd0211eb1461037f578063ce8849ed1461037a578063d272bd0914610375578063d505accf14610370578063d8dfeb451461036b578063dd62ed3e14610366578063de40657714610361578063e0996cb61461035c578063e30c397814610357578063eec0f42e14610352578063f791395d1461034d578063f8974de014610348578063f8ba4cff146103435763fa74f0b51461033e57600080fd5b6127d1565b6127b8565b6126e2565b6126c4565b6126a6565b61267f565b612661565b61263a565b6125f9565b6125d2565b61252a565b6124ed565b6124c3565b61228a565b612142565b612127565b612109565b6120eb565b6120c0565b61208f565b612071565b611f55565b611d93565b611d6c565b611d23565b611a98565b611a41565b611a1a565b6119fc565b6119df565b6119b0565b611986565b611948565b611921565b6118d7565b611899565b6117bb565b611616565b6115d8565b611571565b61154a565b61152c565b611509565b6114eb565b6114ad565b61139f565b6112c4565b610ef2565b610e86565b610e68565b610e4a565b610e2c565b610e0e565b610de7565b610dc4565b610da6565b610d7f565b610ccc565b610c82565b610c33565b610b6b565b610b16565b6109a5565b61092a565b6108ec565b6107ba565b61072c565b610710565b6106f2565b6106bd565b610571565b61053e565b6104e9565b6001600160a01b038116036104bc57565b600080fd5b60409060031901126104bc576004356104d9816104ab565b906024356104e6816104ab565b90565b346104bc57602061052a6001600160a01b03610504366104c1565b9116600052600383526040600020906001600160a01b0316600052602052604060002090565b54604051908152f35b60009103126104bc57565b346104bc5760003660031901126104bc576040610559612c8f565b825191151582526020820152f35b801515036104bc57565b346104bc5760603660031901126104bc5760043561058e816104ab565b6024359061059b82610567565b604435916105a883610567565b6001600160a01b03906105c0826005541633146128b6565b156106a25781169182159081159161069a575b501561065557610641916105fe6105f26005546001600160a01b031690565b6001600160a01b031690565b7f8be0079c531659141344cd1fd0a4f28419497f9722a3daafe3b4186f6b6457e0600080a36001600160a01b03166001600160601b0360a01b6005541617600555565b600680546001600160a01b0319169055005b005b60405162461bcd60e51b815260206004820152601560248201527f4f776e61626c653a207a65726f206164647265737300000000000000000000006044820152606490fd5b9050386105d3565b9150166001600160601b0360a01b6006541617600655600080f35b346104bc5760403660031901126104bc576106e76004356106dd816104ab565b60243590336134f4565b602060405160018152f35b346104bc5760003660031901126104bc576020602154604051908152f35b346104bc5760003660031901126104bc57602060405160008152f35b346104bc5760203660031901126104bc576001600160a01b03600435610751816104ab565b1660005260156020526020604060002054604051908152f35b60ff8116036104bc57565b60e09060031901126104bc5760043561078d816104ab565b9060243561079a816104ab565b9060443590606435906084356107af8161076a565b9060a4359060c43590565b346104bc576107c836610775565b959280959495929192421161089857610653966108939361088093610873878a61086b8b61085d610878996107fc86613467565b60405195869460208601988991959493909260a09360c08401977fe9685ff6d48c617fe4f692c50e602cce27cbad0290beb93cfa77eac43968d58c85526001600160a01b038092166020860152166040840152606083015260808201520152565b03601f198101835282611741565b519020613427565b6133a5565b919091613281565b6001600160a01b03808416911614613215565b61348e565b60405162461bcd60e51b815260206004820152601d60248201527f45524332305065726d69743a206578706972656420646561646c696e650000006044820152606490fd5b908160209103126104bc573590565b346104bc5760203660031901126104bc576004356109166001600160a01b036005541633146128b6565b610925620186a0821115612972565b601b55005b346104bc5760003660031901126104bc576020602654604051908152f35b9181601f840112156104bc578235916001600160401b0383116104bc576020808501948460051b0101116104bc57565b9181601f840112156104bc578235916001600160401b0383116104bc57602083818601950101116104bc57565b346104bc5760803660031901126104bc576001600160401b036004358181116104bc576109d6903690600401610948565b916024358181116104bc576109ef903690600401610948565b916109fb6044356104ab565b6064359081116104bc57610a13903690600401610978565b91610a2360ff600d5416156129f3565b610a2b612c8f565b919050610a36613b98565b600096875b818110610a85578815610a4a57005b60405162461bcd60e51b815260206004820152601360248201527214d1d30e881b9bc81d5cd95c9cc8199bdd5b99606a1b6044820152606490fd5b610a9081838a613d38565b35610a9a816104ab565b610aa48582612e27565b15610ab9575b50610ab490613458565b610a3b565b9890610ae48787878b610ace610ab497613458565b9e610add87604435938c613d38565b3590613f51565b90610aaa565b60609060031901126104bc57600435610b02816104ab565b90602435610b0f816104ab565b9060443590565b346104bc57610b2436610aea565b505050602060405160008152f35b60809060031901126104bc57600435610b4a816104ab565b90602435610b57816104ab565b90604435610b6481610567565b9060643590565b346104bc57610b7936610b32565b91610b848385613a8d565b610b9360ff600d5416156129f3565b6001600160a01b03809116938460005260156020526040600020928354858101809111610c2e577f9ed03113de523cebfe5e49d5f8e12894b1c0d42ce805990461726444c90eab879455610c0081601254610bf6610bf18983612ac6565b601255565b87600a548661457c565b15610c295750610c1b6105f26007546001600160a01b031690565b6040519384521691602090a3005b610c1b565b612a30565b346104bc57602060ff610c766001600160a01b03610c50366104c1565b9116600052601e84526040600020906001600160a01b0316600052602052604060002090565b54166040519015158152f35b346104bc5760203660031901126104bc57600435610cac6001600160a01b036005541633146128b6565b610cba620186a08210612972565b610cc76018548211612972565b601955005b346104bc5760203660031901126104bc57600435610cf66001600160a01b036005541633146128b6565b620138808111610d3a5760208054604080519182529181018390527fc353b09af857951dccce61b43a5854fc45beceed36c50e5d4cc2e71858a8e0df9190a1602055005b60405162461bcd60e51b815260206004820152601860248201527f42696742616e673a2076616c7565206e6f742076616c696400000000000000006044820152606490fd5b346104bc5760003660031901126104bc5760206001600160801b0360115416604051908152f35b346104bc5760003660031901126104bc576020601654604051908152f35b346104bc5760003660031901126104bc576020610ddf6130fb565b604051908152f35b346104bc5760003660031901126104bc5760206001600160a01b03600b5416604051908152f35b346104bc5760003660031901126104bc576020601054604051908152f35b346104bc5760003660031901126104bc576020601354604051908152f35b346104bc5760003660031901126104bc576020600c54604051908152f35b346104bc5760003660031901126104bc576020601254604051908152f35b346104bc5760203660031901126104bc576001600160a01b03600435610eab816104ab565b1660005260146020526020604060002054604051908152f35b60206003198201126104bc57600435906001600160401b0382116104bc57610eee91600401610978565b9091565b346104bc57610f0036610ec4565b9060ff601d541661128957610f179181019061354e565b9690959297939194610f41856001600160a01b03166001600160601b0360a01b6008541617600855565b60405163de40657760e01b815260209586826004816001600160a01b038095165afa80156112075781610f999160049460009161126c575b50166001600160a01b03166001600160601b0360a01b6007541617600755565b610fcf610fb16105f26008546001600160a01b031690565b6001600160a01b03166001600160601b0360a01b6005541617600555565b86610fe56105f26008546001600160a01b031690565b604051631192124760e11b815293849182905afa8015611207576110459260009161123f575b50818516151580611234575b80611229575b611026906135bf565b166001600160a01b03166001600160601b0360a01b600b541617600b55565b60048561105d6105f26008546001600160a01b031690565b6040516386c8e21d60e01b815292839182905afa948515611207576110b66110d99461109861110b986110bb9560009161120c575b50600c55565b6001600160a01b03166001600160601b0360a01b6009541617600955565b600a55565b6001600160a01b03166001600160601b0360a01b600e541617600e55565b6110e1612c8f565b50506110ef62015f90601655565b6110fa612710601755565b611106620124f8601b55565b601c55565b6004600a54826111266105f26008546001600160a01b031690565b60405163017ae8d160e11b815293849182905afa91821561120757611162936000936111d8575b50501460ff8019602254169115151617602255565b61117561117160225460ff1690565b1590565b6111ad575b6111856103e8601855565b611190612710601955565b61119b612710601a55565b610653600160ff19601d541617601d55565b6111c56111ca926111c06111cf96602555565b602355565b602455565b602655565b3880808061117a565b6111f8929350803d10611200575b6111f08183611741565b810190612d5b565b90388061114d565b503d6111e6565b612c37565b61122391508b3d8d11611200576111f08183611741565b38611092565b50838216151561101d565b508181161515611017565b61125f9150883d8a11611265575b6112578183611741565b8101906135aa565b3861100b565b503d61124d565b61128391508a3d8c11611265576112578183611741565b38610f79565b60405162461bcd60e51b815260206004820152601360248201527213585c9ad95d0e881a5b9a5d1a585b1a5e9959606a1b6044820152606490fd5b346104bc5760008060031936011261139c576001600160a01b03600654168033036113585780611345916113036105f26005546001600160a01b031690565b7f8be0079c531659141344cd1fd0a4f28419497f9722a3daafe3b4186f6b6457e08580a36001600160a01b03166001600160601b0360a01b6005541617600555565b600680546001600160a01b031916905580f35b606460405162461bcd60e51b815260206004820152602060248201527f4f776e61626c653a2063616c6c657220213d2070656e64696e67206f776e65726044820152fd5b80fd5b346104bc576113ad36610aea565b6113bf60ff600d9493945416156129f3565b6113c7612c8f565b50506113d1613b98565b601054906000806001600160a01b03600b5416604051602081019063313ce56760e01b825260048152611403816116f0565b51915afa90611410613889565b91806114a2575b15611485576020828051810103126104bc5761146b94611459611453611470958460ff602061145f98015161144b8161076a565b1691896139fb565b86613a8d565b846147e5565b93909260105490612e27565b6139ad565b604080519182526020820192909252f35b0390f35b61145f915061146b94611459611453611470958460ff601261144b565b506020825114611417565b346104bc5760203660031901126104bc576004356114d76001600160a01b036005541633146128b6565b6114e6620186a0821115612972565b601655005b346104bc5760003660031901126104bc576020601954604051908152f35b346104bc5760003660031901126104bc57602060ff600d54166040519015158152f35b346104bc5760003660031901126104bc576020602354604051908152f35b346104bc5760003660031901126104bc5760206001600160a01b0360085416604051908152f35b346104bc5760403660031901126104bc5760043561158e816104ab565b6115c46024359161159e83610567565b33600052601e6020526040600020906001600160a01b0316600052602052604060002090565b9060ff801983541691151516179055600080f35b346104bc5760203660031901126104bc576001600160a01b036004356115fd816104ab565b1660005260016020526020604060002054604051908152f35b346104bc5760203660031901126104bc5760043561163960ff600d5416156129f3565b61164f6001600160a01b036005541633146128b6565b60135460408051918252602082018390527fae6e0ab3b95f0a53ff9660a390ccedcbbf1f2355dce974a9841af106fddcfaba91a1601355005b90600182811c921680156116b8575b60208310146116a257565b634e487b7160e01b600052602260045260246000fd5b91607f1691611697565b634e487b7160e01b600052604160045260246000fd5b6001600160401b0381116116eb57604052565b6116c2565b604081019081106001600160401b038211176116eb57604052565b608081019081106001600160401b038211176116eb57604052565b60c081019081106001600160401b038211176116eb57604052565b90601f801991011681019081106001600160401b038211176116eb57604052565b60005b8381106117755750506000910152565b8181015183820152602001611765565b9060209161179e81518092818552858086019101611762565b601f01601f1916010190565b9060206104e6928181520190611785565b346104bc5760008060031936011261139c576040519080600f546117de81611688565b8085529160019180831690811561186f5750600114611814575b6114818561180881870382611741565b604051918291826117aa565b9250600f83527f8d1108e10bcb7c27dddfc02ed9d693a074039d026cf4ea4240b40f7d581ac8025b828410611857575050508101602001611808826114816117f8565b8054602085870181019190915290930192810161183c565b8695506114819693506020925061180894915060ff191682840152151560051b82010192936117f8565b346104bc5760203660031901126104bc576004356118c36001600160a01b036005541633146128b6565b6118d2620186a0821115612972565b601755005b346104bc5760203660031901126104bc576004356119016001600160a01b036005541633146128b6565b61190f620186a08210612972565b61191c6019548210612972565b601855005b346104bc5760003660031901126104bc5760206001600160a01b03600e5416604051908152f35b346104bc5760203660031901126104bc576001600160a01b0360043561196d816104ab565b1660005260046020526020604060002054604051908152f35b346104bc5760403660031901126104bc576106e76004356119a6816104ab565b602435903361348e565b346104bc5760003660031901126104bc5760406011548151906001600160801b038116825260801c6020820152f35b346104bc5760003660031901126104bc5760208054604051908152f35b346104bc5760003660031901126104bc576020601854604051908152f35b346104bc5760003660031901126104bc5760206001600160a01b0360055416604051908152f35b346104bc5760403660031901126104bc576020610ddf6001600160a01b03600435611a6b816104ab565b168060005260158352611a85602435604060002054612f92565b916000526014845260406000205461307e565b346104bc576020806003193601126104bc57611ab56004356104ab565b611acb6001600160a01b036005541633146128b6565b611ada60ff600d5416156129f3565b611aef6105f2600b546001600160a01b031690565b604080516370a0823160e01b8152306004820152918390839060249082905afa801561120757611b31611b3691611b8394600091611d06575b50602154612ac6565b602155565b611b4b6105f26007546001600160a01b031690565b92600c549381602154809685519687928392638eb22cdd60e01b84526004840160409060009294936060820195825260208201520152565b0381845afa93841561120757600094611ce7575b5084611ba8575b8251848152602090f35b611bf7948291611bc36105f2600b546001600160a01b031690565b906000865180998195829463095ea7b360e01b845260048401602090939291936001600160a01b0360408201951681520152565b03925af193841561120757611c6794611cb9575b505080611c236105f26007546001600160a01b031690565b600c546021548351634d4d7cbd60e11b81526004810192909252306024830152336044830152606482015260006084820181905290958692918391829060a4820190565b03925af19283156112075761148193611c8d575b50611c866000602155565b3880611b9e565b611cac90823d8411611cb2575b611ca48183611741565b810190613b3d565b50611c7b565b503d611c9a565b81611cd892903d10611ce0575b611cd08183611741565b810190613b28565b503880611c0b565b503d611cc6565b611cff919450823d8411611200576111f08183611741565b9238611b97565b611d1d9150863d8811611200576111f08183611741565b38611b28565b346104bc5760403660031901126104bc57611481611d4f600435611d46816104ab565b60243590612b6c565b604080519384526020840192909252908201529081906060820190565b346104bc5760403660031901126104bc57611d886004356104ab565b602060405160008152f35b346104bc57611da136610ec4565b611db76001600160a01b036005541633146128b6565b6001600160401b0381116116eb57611dd981611dd4600f54611688565b612901565b6000601f8211600114611e38578192600092611e2d575b50508160011b916000199060031b1c191617600f555b7fa6f004921c944d4b8bf6e38462b00f36a58d62495d56b51f571ab78f732c9815600080a1005b013590503880611df0565b600f600052601f198216927f8d1108e10bcb7c27dddfc02ed9d693a074039d026cf4ea4240b40f7d581ac80291805b858110611ea157508360019510611e87575b505050811b01600f55611e06565b0135600019600384901b60f8161c19169055388080611e79565b90926020600181928686013581550194019101611e67565b906040820191604081528151809352606081019260208093019060005b818110611f3f57505050818184039101528251908183528083019281808460051b8301019501936000915b848310611f115750505050505090565b9091929394958480611f2f600193601f198682030187528a51611785565b9801930193019194939290611f01565b8251151586529484019491840191600101611ed6565b346104bc576040806003193601126104bc576004356001600160401b0381116104bc57611f86903690600401610948565b9160243591611f9483610567565b611f9d846137a3565b92611faa83519485611741565b848452601f19611fb9866137a3565b01366020860137611fc9856137ba565b94600090815b818110611fe4578551806114818a8a83611eb9565b806120498480611ff861206495878b61381a565b906120078c5180938193613860565b0390305af4612044612017613889565b91808115612069575b6120339061202d856138f9565b906138b9565b61203d858d6138e5565b9015159052565b6138f9565b612053828b6138e5565b5261205e818a6138e5565b50613458565b611fcf565b508815612020565b346104bc5760003660031901126104bc576020601754604051908152f35b346104bc5760003660031901126104bc576040601f548151906001600160401b03908181168352831c166020820152f35b346104bc5760403660031901126104bc576020610ddf6004356120e2816104ab565b60243590612ad3565b346104bc5760003660031901126104bc576020601b54604051908152f35b346104bc5760003660031901126104bc576020602554604051908152f35b346104bc5760003660031901126104bc576020610ddf6135ff565b346104bc5761215036610aea565b919061216160ff600d5416156129f3565b612169612c8f565b5050612173613b98565b61217d8383613a8d565b61219a826001600160a01b03166000526015602052604060002090565b6121a5848254612b5f565b90556121b6610bf184601254612b5f565b6040518381526001600160a01b0382811691908416907f8ad4d3ff00da092c7ad9a573ea4f5f6a3dffc6712dc06d3f78f49b862297c40290602090a36122076105f26007546001600160a01b031690565b92600a5493803b156104bc57604051630208d92960e11b81523060048201526001600160a01b0393909316602484015260448301949094526064820152916000908390608490829084905af1908115611207576106539261146b92612271575b5060105490612e27565b8061227e612284926116d8565b80610533565b38612267565b346104bc5761230261229b36610b32565b91939290506122af60ff600d5416156129f3565b6122b98282613a8d565b6122c1612c8f565b50506122cb613b98565b6122dc826122d7612b39565b6146b2565b93906001600160801b038151169060206001600160801b031991015160801b1617601155565b61231f846001600160a01b03166000526014602052604060002090565b61232a838254612b5f565b905561233f6123398385612b5f565b84612b5f565b916123556105f26007546001600160a01b031690565b600c54604080516311a5cc7760e31b815260048101929092526001600160a01b0385166024830152306044830152606482018790526000608483018190529095928691839160a49183915af18015611207576124a7575b508061240c575b5082518481526020810191909152611481946001600160a01b039081169216907fc8e512d8f188ca059984b5853d2bf653da902696b8512785b182b2c813789a6e9080604081015b0390a3519081529081906020820190565b6124276105f26105f26105f2600b546001600160a01b031690565b803b156104bc578451632770a7eb60e21b815230600482015260248101929092526000908290604490829084905af1801561120757611481967fc8e512d8f188ca059984b5853d2bf653da902696b8512785b182b2c813789a6e926123fb92612494575b509650506123b3565b8061227e6124a1926116d8565b3861248b565b6124bd90853d8711611cb257611ca48183611741565b506123ac565b346104bc5760003660031901126104bc5760206001600160a01b03600d5460081c16604051908152f35b346104bc5760203660031901126104bc576004356125176001600160a01b036005541633146128b6565b612525620186a08210612972565b601a55005b346104bc5761253836610775565b959280959495929192421161089857610653966125cd9361088093610873878a61086b8b61085d6108789961256c86613467565b60405195869460208601988991959493909260a09360c08401977f6e71edae12b1b97f4d1f60370fef10105fa2faae0126114a169c64845d6126c985526001600160a01b038092166020860152166040840152606083015260808201520152565b6134f4565b346104bc5760003660031901126104bc5760206001600160a01b0360095416604051908152f35b346104bc57602061052a6001600160a01b03612614366104c1565b9116600052600283526040600020906001600160a01b0316600052602052604060002090565b346104bc5760003660031901126104bc5760206001600160a01b0360075416604051908152f35b346104bc5760003660031901126104bc576020601a54604051908152f35b346104bc5760003660031901126104bc5760206001600160a01b0360065416604051908152f35b346104bc5760003660031901126104bc576020600a54604051908152f35b346104bc5760003660031901126104bc576020602454604051908152f35b346104bc5760203660031901126104bc576004356126ff81610567565b600d54906001600160a01b038260081c163303612773577f9c13c5f6c628c1c82eb2b3fd8714da5c2857dbd0ad8ab6b2074abcf81015d3968160ff610653941661274f81151583151514156129b2565b6040805191151582529115156020820152a160ff8019600d54169115151617600d55565b60405162461bcd60e51b815260206004820152601460248201527f4d61726b65743a20756e617574686f72697a65640000000000000000000000006044820152606490fd5b346104bc5760003660031901126104bc57610653613b98565b346104bc5760203660031901126104bc576004356127ee816104ab565b6001600160a01b0390612806826005541633146128b6565b81811680156128715761282961065393600d5460081c166001600160a01b031690565b7f5a62d22209e370e38eea92cfddcd228e656e6ec139243392a760a7769f5877fd600080a3610100600160a81b03600d549160081b1690610100600160a81b03191617600d55565b60405162461bcd60e51b815260206004820152601960248201527f4d61726b65743a2061646472657373206e6f742076616c6964000000000000006044820152606490fd5b156128bd57565b606460405162461bcd60e51b815260206004820152602060248201527f4f776e61626c653a2063616c6c6572206973206e6f7420746865206f776e65726044820152fd5b601f811161290d575050565b600090600f82527f8d1108e10bcb7c27dddfc02ed9d693a074039d026cf4ea4240b40f7d581ac802906020601f850160051c83019410612968575b601f0160051c01915b82811061295d57505050565b818155600101612951565b9092508290612948565b1561297957565b60405162461bcd60e51b815260206004820152601160248201527013585c9ad95d0e881b9bdd081d985b1a59607a1b6044820152606490fd5b156129b957565b60405162461bcd60e51b81526020600482015260126024820152714d61726b65743a2073616d6520737461746560701b6044820152606490fd5b156129fa57565b60405162461bcd60e51b815260206004820152600e60248201526d13585c9ad95d0e881c185d5cd95960921b6044820152606490fd5b634e487b7160e01b600052601160045260246000fd5b90670de0b6b3a764000091828102928184041490151715610c2e57565b906201b58091828102928184041490151715610c2e57565b90620186a09180830292830403610c2e57565b81810292918115918404141715610c2e57565b634e487b7160e01b600052601260045260246000fd5b8115612ac1570490565b612aa1565b91908201809211610c2e57565b90612ade8183612e27565b612b3257612af46001600160a01b039183612b6c565b929193905016600052601460205260406000205490811015612b2d57612b20620186a091601a54612a8e565b048101809111610c2e5790565b905090565b5050600090565b60405190612b46826116f0565b6011546001600160801b038116835260801c6020830152565b91908203918211610c2e57565b91906000906001600160a01b0384168252601460205260408220548015612c0d57612b95612b39565b612b9f8387612d6a565b916020612bb86001600160801b03928385511690612a8e565b92015116908115612ac1570492818410612bfe57508203918211610c2e57612bf8610eee925b946001600160a01b03166000526015602052604060002090565b54612f92565b610eee9350612bf89150612bde565b505080919250918190565b91908260409103126104bc5760208251612c3181610567565b92015190565b6040513d6000823e3d90fd5b15612c4a57565b60405162461bcd60e51b815260206004820152601460248201527f4d61726b65743a20696e76616c696420726174650000000000000000000000006044820152606490fd5b60009060406001600160a01b03600e5416604482518095819363d6d7d52560e01b8352602060048401528160248401525af18015611207576000928391612d27575b50908215612d2057612ce4821515612c43565b612ced82601055565b6040518281527f9f9192b5edb17356c524e08d9e025c8e2f6307e6ea52fb7968faa3081f51c3c89080602081015b0390a1565b6010549150565b9050612d4b91925060403d8111612d54575b612d438183611741565b810190612c18565b91909138612cd1565b503d612d39565b908160209103126104bc575190565b6020612deb916001600160a01b0360075416612dba612db1612da2600a54946001600160a01b03166000526015602052604060002090565b54620186a0601c540490612a8e565b601b5490612a8e565b60405163442c159960e01b815260048101939093526024830152600060448301529092839190829081906064820190565b03915afa90811561120757600091612e09575b508115612ac1570490565b612e21915060203d8111611200576111f08183611741565b38612dfe565b90612e45826001600160a01b03166000526014602052604060002090565b54918215612f8a57612e6a906001600160a01b03166000526015602052604060002090565b548015612f8257612ee5916020612e7f612b39565b92612e956105f26007546001600160a01b031690565b612eb4612db1600a5493612eae601c54620186a0900490565b90612a8e565b60405163442c159960e01b815260048101939093526024830152600060448301529094859190829081906064820190565b03915afa92831561120757600093612f4c575b50612f216020612f32612f4193612f2d612f479798612eae612f2189516001600160801b031690565b6001600160801b031690565b612a8e565b9301516001600160801b031690565b90612ab7565b111590565b612f4793506020612f32612f4193612f2d612f76612f2195853d8111611200576111f08183611741565b97505093505050612ef8565b505050600090565b505050600190565b600754600a5460405163442c159960e01b81526004810191909152602481019290925260006044830152602090829060649082906001600160a01b03165afa801561120757612fed91600091613008575b50601c5490612a8e565b8115612ac15704620186a0613004601b5483612a8e565b0491565b613020915060203d8111611200576111f08183611741565b38612fe3565b81810392916000138015828513169184121617610c2e57565b818102929160008212600160ff1b821416610c2e578184051490151715610c2e57565b91909160008382019384129112908015821691151617610c2e57565b8015612f82578115612f8257818110612f8257828110156130f25781810390808211610c2e5782620186a08084029384041491141715610c2e57612f416130c8926104e694612b5f565b6130ed6130e4601854926130df6019548095613026565b61303f565b620186a0900590565b613062565b50505060185490565b6001600160a01b037f0000000000000000000000000000000000000000000000000000000000000000163014806131ec575b15613156577f000000000000000000000000000000000000000000000000000000000000000090565b60405160208101907f000000000000000000000000000000000000000000000000000000000000000082527f000000000000000000000000000000000000000000000000000000000000000060408201527f000000000000000000000000000000000000000000000000000000000000000060608201524660808201523060a082015260a081526131e681611726565b51902090565b507f0000000000000000000000000000000000000000000000000000000000000000461461312d565b1561321c57565b60405162461bcd60e51b815260206004820152601e60248201527f45524332305065726d69743a20696e76616c6964207369676e617475726500006044820152606490fd5b6005111561326b57565b634e487b7160e01b600052602160045260246000fd5b61328a81613261565b806132925750565b61329b81613261565b600181036132ec5760405162461bcd60e51b815260206004820152601860248201527f45434453413a20696e76616c6964207369676e617475726500000000000000006044820152606490fd5b0390fd5b6132f581613261565b600281036133425760405162461bcd60e51b815260206004820152601f60248201527f45434453413a20696e76616c6964207369676e6174757265206c656e677468006044820152606490fd5b8061334e600392613261565b1461335557565b60405162461bcd60e51b815260206004820152602260248201527f45434453413a20696e76616c6964207369676e6174757265202773272076616c604482015261756560f01b6064820152608490fd5b9291907f7fffffffffffffffffffffffffffffff5d576e7357a4501ddfe92f46681b20a0831161341b5791608094939160ff602094604051948552168484015260408301526060820152600093849182805260015afa156112075781516001600160a01b03811615613415579190565b50600190565b50505050600090600390565b61342f6130fb565b9060405190602082019261190160f01b845260228301526042820152604281526131e68161170b565b6000198114610c2e5760010190565b6001600160a01b03166000526004602052604060002080549061348982613458565b905590565b60207fe50de2333c10a9502fcb1d8ae13a51bbf423153dfc63c2b8997665b32154afc3916001600160a01b03809116938460005260038352856134e8826040600020906001600160a01b0316600052602052604060002090565b556040519586521693a3565b60207f8c5be1e5ebec7d5bd14f71427d1e84f3dd0314c0f7b2291e5b200ac8c7c3b925916001600160a01b03809116938460005260028352856134e8826040600020906001600160a01b0316600052602052604060002090565b90816101209103126104bc578035613565816104ab565b916020820135613574816104ab565b916040810135916060820135613589816104ab565b9160808101359160a08201359160c08101359161010060e083013592013590565b908160209103126104bc57516104e6816104ab565b156135c657565b60405162461bcd60e51b81526020600482015260116024820152702134b3a130b7339d103130b2103830b4b960791b6044820152606490fd5b60225460ff1661374c576001600160801b036136236011546001600160801b031690565b1680156137455761363f6105f26008546001600160a01b031690565b6040518091631848f2bf60e31b825281600460209384935afa918215611207576001600160a01b03928291600091613728575b50600460405180958193631a674cc560e11b8352165afa8015611207576136b8926136aa9260009261370b575b505060255490612a8e565b670de0b6b3a7640000900490565b9081811015613703576104e691612f416136e7926136e16136dc6026548093612b5f565b612a46565b92612b5f565b6136fe6136aa60235492612f2d6024548095612b5f565b612ac6565b505060235490565b6137219250803d10611200576111f08183611741565b388061369f565b61373f9150823d8411611265576112578183611741565b38613672565b5060245490565b600460206137656105f26008546001600160a01b031690565b60405163e6abad4960e01b815292839182905afa9081156112075760009161378b575090565b6104e6915060203d8111611200576111f08183611741565b6001600160401b0381116116eb5760051b60200190565b906137c4826137a3565b6137d16040519182611741565b82815280926137e2601f19916137a3565b019060005b8281106137f357505050565b8060606020809385010152016137e7565b634e487b7160e01b600052603260045260246000fd5b919081101561385b5760051b81013590601e19813603018212156104bc5701908135916001600160401b0383116104bc5760200182360381136104bc579190565b613804565b908092918237016000815290565b6001600160401b0381116116eb57601f01601f191660200190565b3d156138b4573d9061389a8261386e565b916138a86040519384611741565b82523d6000602084013e565b606090565b156138c15750565b60405162461bcd60e51b8152602060048201529081906132e8906024830190611785565b805182101561385b5760209160051b010190565b6044815110613973576004810151810190602081602484019303126104bc576024810151906001600160401b0382116104bc5701816043820112156104bc5760248101516139468161386e565b926139546040519485611741565b818452604482840101116104bc576104e6916044602085019101611762565b50604051613980816116f0565b601681527f4d61726b65743a206e6f2072657475726e206461746100000000000000000000602082015290565b156139b457565b60405162461bcd60e51b815260206004820152601160248201527013585c9ad95d0e881a5b9cdbdb1d995b9d607a1b6044820152606490fd5b604d8111610c2e57600a0a90565b6001600160a01b03613a1e85613a3a95613a18613a349686612d6a565b90613a45565b9116600052601560205260406000205490612a8e565b916139ed565b908115612ac1570490565b91909180158015613a85575b612f825760018201809211610c2e57612eae613a6c926139ed565b8115612ac1570460058101809111610c2e57600a900490565b508215613a51565b6001600160a01b0316338103613aa1575050565b80600052600360205281613acc336040600020906001600160a01b0316600052602052604060002090565b5410613b0a576000526003602052613afb336040600020906001600160a01b0316600052602052604060002090565b8054918203918211610c2e5755565b60449060405190630ca03e9b60e11b82526004820152336024820152fd5b908160209103126104bc57516104e681610567565b91908260409103126104bc576020825192015190565b60405190613b60826116f0565b816020601f546001600160401b0390818116845260401c16910152565b9190916001600160801b0380809416911601918211610c2e57565b613ba0613b53565b60208101613bcd613bc7613bbb83516001600160401b031690565b6001600160401b031690565b42612b5f565b908115613d33577f7484db546dcd57af0104c73c8a6968dfbaf5767f047cee0dadd0499ad7df81a092613c33613d1392613c25613c18613bbb613c0e6135ff565b6301e13380900490565b6001600160401b03168452565b426001600160401b03169052565b613cc8613c706136aa613c44612b39565b95612f2d613c5c612f2189516001600160801b031690565b612eae613bbb88516001600160401b031690565b93613ca4613c976001600160801b038716613c9284516001600160801b031690565b613b7d565b6001600160801b03168252565b6001600160801b038151169060206001600160801b031991015160801b1617601155565b613d06816001600160401b038151166fffffffffffffffff00000000000000006020601f5493015160401b16916001600160801b0319161717601f55565b516001600160401b031690565b604080519283526001600160401b03909116602083015281908101612d1b565b505050565b919081101561385b5760051b0190565b15613d4f57565b60405162461bcd60e51b815260206004820152601860248201527f42696742616e673a20496e76616c6964207377617070657200000000000000006044820152606490fd5b91908260809103126104bc57604051613dac8161170b565b60608082948051845260208101516020850152604081015160408501520151910152565b91908260409103126104bc57604051613de8816116f0565b60208082948051613df881610567565b8452015191613e0683610567565b0152565b8082039161014083126104bc576040519260608401908482106001600160401b038311176116eb5760809082604052126104bc57613e9d9281613e4f6101009361170b565b8151613e5a816104ab565b8152602082015160808701526040820151613e74816104ab565b60a0870152606082015160c08701528552613e928360808301613d94565b602086015201613dd0565b604082015290565b91926104e693613f236040613f3a94606081516001600160a01b03808251168a52602082015160208b01528482015116848a01520151606088015260606020820151805160808a0152602081015160a08a01528381015160c08a0152015160e088015201516101008601906020809180511515845201511515910152565b6101408401526001600160a01b0316610160830152565b6101a0908161018082015201602090600081520190565b9490939291613f608387612e27565b6143be57613fba83613fb3613f8f61409296612bf88b6001600160a01b03166000526015602052604060002090565b90613fad8b6001600160a01b03166000526014602052604060002090565b5461307e565b9688614c4e565b939091956001600160a01b038085169916897fc8e512d8f188ca059984b5853d2bf653da902696b8512785b182b2c813789a6e61404460409683857f8ad4d3ff00da092c7ad9a573ea4f5f6a3dffc6712dc06d3f78f49b862297c40261402a8d8c51918291829190602083019252565b0390a387518c815260208101919091529081906040820190565b0390a361405c6105f26007546001600160a01b031690565b600c5494845198638eb22cdd60e01b8a52898060209a8b9360049a8b840160409060019294936060820195825260208201520152565b0381855afa98891561120757600099614399575b50876140ea916140c16105f26008546001600160a01b031690565b87518080958194634656bfdf60e11b83528c83019190916001600160a01b036020820193169052565b03915afa8015611207576141069160009161437c575b50613d48565b600a5490803b156104bc578451630208d92960e11b8152308188019081526001600160a01b038d16602082015260408101939093526060830188905291600091839182908490829060800103925af1801561120757614369575b5060009180614355575b50506141816105f26007546001600160a01b031690565b90600c5490835199878b627eeac760e11b9586825281806141bb88308d8401602090939291936001600160a01b0360408201951681520152565b03915afa9687156112075761421a9b600098614336575b50600a54908651809d8192633d9545e960e11b83526101409788958c850160a091949360019360c0830196835260208301526000604083015260608201528260808201520152565b0381845afa918215611207576142549b8694600094614307575b505060008451809d8195829463efa84c6d60e01b845230918c8501613ea5565b03925af1928315611207576142a69886946142eb575b506142806105f26007546001600160a01b031690565b600c54935192835230918301918252602082019390935290978892918391829160400190565b03915afa8015611207576142cc956142c7936000926142ce575b5050612b5f565b6143c6565b565b6142e49250803d10611200576111f08183611741565b38806142c0565b61430190843d8611611cb257611ca48183611741565b5061426a565b614327929450803d1061432f575b61431f8183611741565b810190613e0a565b913880614234565b503d614315565b61434e919850893d8b11611200576111f08183611741565b96386141d2565b61436292508101906108dd565b388061416a565b8061227e614376926116d8565b38614160565b6143939150893d8b11611ce057611cd08183611741565b38614100565b6140ea9199506143b68991823d8411611200576111f08183611741565b9991506140a6565b505050505050565b6143e86143d86004936143f793612b5f565b936143f16143e860175487612a8e565b620186a0900490565b94612a8e565b9161440d6105f26007546001600160a01b031690565b9060206144256105f26008546001600160a01b031690565b604051622fcfcb60e31b815294859182905afa9283156112075760009361451c575b50600c5490823b156104bc57604051630208d92960e11b8082523060048301526001600160a01b0395909516602482015260448101929092526064820152906000908290608490829084905af1801561120757614509575b506144b56105f26007546001600160a01b031690565b91600c5492803b156104bc5760405192835230600484015233602484015260448301939093526064820152906000908290608490829084905af18015611207576144fc5750565b8061227e6142cc926116d8565b8061227e614516926116d8565b3861449f565b61453591935060203d8111611265576112578183611741565b9138614447565b1561454357565b60405162461bcd60e51b8152602060048201526011602482015270084d2ce84c2dcce7440e8dede40daeac6d607b1b6044820152606490fd5b90919293600014614613575060206145cd916145a36105f26007546001600160a01b031690565b604051627eeac760e11b815230600482015260248101929092529092839190829081906044820190565b03915afa928315611207576142cc936145ee926000916145f5575b50612b5f565b101561453c565b61460d915060203d8111611200576111f08183611741565b386145e8565b9190925061462c6105f26007546001600160a01b031690565b803b156104bc57604051630208d92960e11b81526001600160a01b0393909316600484015230602484015260448301939093526064820152906000908290608490829084905af18015611207576144fc5750565b6040519061468d826116f0565b60006020838281520152565b6001600160801b039182169082160391908211610c2e57565b9190916146bd614680565b50602081016001600160801b038082511615600014614700576146f981865b816146ec818a1682895116614699565b1686521682845116614699565b1690529190565b61470d8184511686612a8e565b81835116908115612ac15704946147278284511687612a8e565b828551168015612ac15782910410614744575b816146f9916146dc565b94816147526146f992613458565b9691505061473a565b60208101906001600160801b0390818351161560001461477b5750505090565b928161478b929394511690612a8e565b915116908115612ac1570490565b156147a057565b60405162461bcd60e51b815260206004820152601b60248201527f42696742616e673a20626f72726f7720636170207265616368656400000000006044820152606490fd5b9290926020926147f96143e8855483612a8e565b93614815614805612b39565b61480f8785612ac6565b90614b0d565b95909661484187986001600160801b038151169060206001600160801b031991015160801b1617601155565b6148576013548015908115614ae8575b50614799565b614874856001600160a01b03166000526014602052604060002090565b61487f888254612ac6565b905561489c6105f26105f26105f2600b546001600160a01b031690565b92833b156104bc57604080516340c10f1960e01b815230600482015260248101879052909890946000908690604490829084905af19485156112075761494195614ad5575b5081866148f96105f2600b546001600160a01b031690565b61490e6105f26007546001600160a01b031690565b60008d51809a8195829463095ea7b360e01b845260048401602090939291936001600160a01b0360408201951681520152565b03925af1948515611207576149b995614ab8575b50888661496d6105f26007546001600160a01b031690565b600c548351634d4d7cbd60e11b815260048101919091523060248201526001600160a01b03871660448201526064810192909252600060848301819052919788928391829060a4820190565b03925af194851561120757614a1695614a9c575b5081866149e56105f26007546001600160a01b031690565b600c548c51809981948293638eb22cdd60e01b84526004840160409060009294936060820195825260208201520152565b03915afa8015611207577f3a5151e57d3bc9798e7853034ac52293d1a0e12a2b44725e75b03b21f86477a695614a7a93600092614a7f575b505098519384936001600160a01b03809116981696846040919493926060820195825260208201520152565b0390a3565b614a959250803d10611200576111f08183611741565b3880614a4e565b614ab2908a3d8c11611cb257611ca48183611741565b506149cd565b614ace90833d8511611ce057611cd08183611741565b5038614955565b8061227e614ae2926116d8565b386148e1565b90506001600160801b03614b046011546001600160801b031690565b16111538614851565b919091614b18614680565b506001600160801b038082511615600014614b855780614b59614b4c614b8193875b16613c9286516001600160801b031690565b6001600160801b03168452565b614b7460208401918616613c9283516001600160801b031690565b6001600160801b03169052565b9190565b6020820193614b978286511682612a8e565b82845116908115612ac1578291614bdb910496612f41612f21614bcd614bc7612f218a516001600160801b031690565b8b612a8e565b92516001600160801b031690565b10614bf2575b90614b59614b4c82614b8194614b3a565b9390614b59614b4c82614c07614b8195613458565b97935093505050614be1565b15614c1a57565b60405162461bcd60e51b815260206004820152600c60248201526b14d1d30e881cdbdb1d995b9d60a21b6044820152606490fd5b90929192614c5c8483612ad3565b9081811115614e065750915b82614c9081614c8a856001600160a01b03166000526014602052604060002090565b54612b5f565b614cad846001600160a01b03166000526014602052604060002090565b55614d296020614cc483614cbf612b39565b61475b565b96614cda6105f26007546001600160a01b031690565b614cf8614ced600a5493612f2d8c612a63565b612f41601c54612a7b565b604051638eb22cdd60e01b815260048101939093526024830152600060448301529092839190829081906064820190565b03915afa918215611207576142cc92614dcd92600091614de8575b50614d6e614d6682976001600160a01b03166000526015602052604060002090565b918254612b5f565b9055614d7b871515614c13565b6001600160801b0390614dc0614da4838a16614d9f6011546001600160801b031690565b614699565b6001600160801b03166001600160801b03196011541617601155565b16614d9f60115460801c90565b6001600160801b036011549181199060801b16911617601155565b614e00915060203d8111611200576111f08183611741565b38614d44565b905091614c6856fea2646970667358221220c33280ab8f215956cd73cbda51a50366176f790bb4fba1d0c0df61202bd4016464736f6c63430008120033",
  "linkReferences": {},
  "deployedLinkReferences": {}
}