{
  "_format": "hh-sol-artifact-1",
  "contractName": "BigBang",
  "sourceName": "contracts/markets/bigBang/BigBang.sol",
  "abi": [
    {
      "anonymous": false,
      "inputs": [
        {
          "indexed": true,
          "internalType": "address",
          "name": "owner",
          "type": "address"
        },
        {
          "indexed": true,
          "internalType": "address",
          "name": "spender",
          "type": "address"
        },
        {
          "indexed": false,
          "internalType": "uint256",
          "name": "value",
          "type": "uint256"
        }
      ],
      "name": "Approval",
      "type": "event"
    },
    {
      "anonymous": false,
      "inputs": [
        {
          "indexed": true,
          "internalType": "address",
          "name": "owner",
          "type": "address"
        },
        {
          "indexed": true,
          "internalType": "address",
          "name": "spender",
          "type": "address"
        },
        {
          "indexed": false,
          "internalType": "uint256",
          "name": "value",
          "type": "uint256"
        }
      ],
      "name": "ApprovalBorrow",
      "type": "event"
    },
    {
      "anonymous": false,
      "inputs": [
        {
          "indexed": true,
          "internalType": "address",
          "name": "old",
          "type": "address"
        },
        {
          "indexed": true,
          "internalType": "address",
          "name": "_new",
          "type": "address"
        }
      ],
      "name": "ConservatorUpdated",
      "type": "event"
    },
    {
      "anonymous": false,
      "inputs": [
        {
          "indexed": false,
          "internalType": "uint256",
          "name": "oldVal",
          "type": "uint256"
        },
        {
          "indexed": false,
          "internalType": "uint256",
          "name": "newVal",
          "type": "uint256"
        }
      ],
      "name": "DebtRateAgainstEthUpdated",
      "type": "event"
    },
    {
      "anonymous": false,
      "inputs": [
        {
          "indexed": true,
          "internalType": "address",
          "name": "liquidator",
          "type": "address"
        },
        {
          "indexed": false,
          "internalType": "address[]",
          "name": "users",
          "type": "address[]"
        },
        {
          "indexed": false,
          "internalType": "uint256",
          "name": "liquidatorReward",
          "type": "uint256"
        },
        {
          "indexed": false,
          "internalType": "uint256",
          "name": "protocolReward",
          "type": "uint256"
        },
        {
          "indexed": false,
          "internalType": "uint256",
          "name": "repayedAmount",
          "type": "uint256"
        },
        {
          "indexed": false,
          "internalType": "uint256",
          "name": "collateralShareRemoved",
          "type": "uint256"
        }
      ],
      "name": "Liquidated",
      "type": "event"
    },
    {
      "anonymous": false,
      "inputs": [
        {
          "indexed": false,
          "internalType": "uint256",
          "name": "oldVal",
          "type": "uint256"
        },
        {
          "indexed": false,
          "internalType": "uint256",
          "name": "newVal",
          "type": "uint256"
        }
      ],
      "name": "LiquidationMultiplierUpdated",
      "type": "event"
    },
    {
      "anonymous": false,
      "inputs": [
        {
          "indexed": false,
          "internalType": "uint256",
          "name": "accruedAmount",
          "type": "uint256"
        },
        {
          "indexed": false,
          "internalType": "uint64",
          "name": "rate",
          "type": "uint64"
        }
      ],
      "name": "LogAccrue",
      "type": "event"
    },
    {
      "anonymous": false,
      "inputs": [
        {
          "indexed": true,
          "internalType": "address",
          "name": "from",
          "type": "address"
        },
        {
          "indexed": true,
          "internalType": "address",
          "name": "to",
          "type": "address"
        },
        {
          "indexed": false,
          "internalType": "uint256",
          "name": "share",
          "type": "uint256"
        }
      ],
      "name": "LogAddCollateral",
      "type": "event"
    },
    {
      "anonymous": false,
      "inputs": [
        {
          "indexed": true,
          "internalType": "address",
          "name": "from",
          "type": "address"
        },
        {
          "indexed": true,
          "internalType": "address",
          "name": "to",
          "type": "address"
        },
        {
          "indexed": false,
          "internalType": "uint256",
          "name": "amount",
          "type": "uint256"
        },
        {
          "indexed": false,
          "internalType": "uint256",
          "name": "feeAmount",
          "type": "uint256"
        },
        {
          "indexed": false,
          "internalType": "uint256",
          "name": "part",
          "type": "uint256"
        }
      ],
      "name": "LogBorrow",
      "type": "event"
    },
    {
      "anonymous": false,
      "inputs": [
        {
          "indexed": false,
          "internalType": "uint256",
          "name": "_oldVal",
          "type": "uint256"
        },
        {
          "indexed": false,
          "internalType": "uint256",
          "name": "_newVal",
          "type": "uint256"
        }
      ],
      "name": "LogBorrowCapUpdated",
      "type": "event"
    },
    {
      "anonymous": false,
      "inputs": [
        {
          "indexed": false,
          "internalType": "uint256",
          "name": "_oldVal",
          "type": "uint256"
        },
        {
          "indexed": false,
          "internalType": "uint256",
          "name": "_newVal",
          "type": "uint256"
        }
      ],
      "name": "LogBorrowingFee",
      "type": "event"
    },
    {
      "anonymous": false,
      "inputs": [
        {
          "indexed": false,
          "internalType": "uint256",
          "name": "rate",
          "type": "uint256"
        }
      ],
      "name": "LogExchangeRate",
      "type": "event"
    },
    {
      "anonymous": false,
      "inputs": [
        {
          "indexed": true,
          "internalType": "address",
          "name": "from",
          "type": "address"
        },
        {
          "indexed": true,
          "internalType": "address",
          "name": "to",
          "type": "address"
        },
        {
          "indexed": false,
          "internalType": "uint256",
          "name": "share",
          "type": "uint256"
        }
      ],
      "name": "LogRemoveCollateral",
      "type": "event"
    },
    {
      "anonymous": false,
      "inputs": [
        {
          "indexed": true,
          "internalType": "address",
          "name": "from",
          "type": "address"
        },
        {
          "indexed": true,
          "internalType": "address",
          "name": "to",
          "type": "address"
        },
        {
          "indexed": false,
          "internalType": "uint256",
          "name": "amount",
          "type": "uint256"
        },
        {
          "indexed": false,
          "internalType": "uint256",
          "name": "part",
          "type": "uint256"
        }
      ],
      "name": "LogRepay",
      "type": "event"
    },
    {
      "anonymous": false,
      "inputs": [
        {
          "indexed": false,
          "internalType": "uint256",
          "name": "oldVal",
          "type": "uint256"
        },
        {
          "indexed": false,
          "internalType": "uint256",
          "name": "newVal",
          "type": "uint256"
        }
      ],
      "name": "MaxDebtRateUpdated",
      "type": "event"
    },
    {
      "anonymous": false,
      "inputs": [
        {
          "indexed": false,
          "internalType": "uint256",
          "name": "oldVal",
          "type": "uint256"
        },
        {
          "indexed": false,
          "internalType": "uint256",
          "name": "newVal",
          "type": "uint256"
        }
      ],
      "name": "MinDebtRateUpdated",
      "type": "event"
    },
    {
      "anonymous": false,
      "inputs": [],
      "name": "OracleDataUpdated",
      "type": "event"
    },
    {
      "anonymous": false,
      "inputs": [],
      "name": "OracleUpdated",
      "type": "event"
    },
    {
      "anonymous": false,
      "inputs": [
        {
          "indexed": true,
          "internalType": "address",
          "name": "previousOwner",
          "type": "address"
        },
        {
          "indexed": true,
          "internalType": "address",
          "name": "newOwner",
          "type": "address"
        }
      ],
      "name": "OwnershipTransferred",
      "type": "event"
    },
    {
      "anonymous": false,
      "inputs": [
        {
          "indexed": false,
          "internalType": "enum Market.PauseType",
          "name": "_type",
          "type": "uint8"
        },
        {
          "indexed": false,
          "internalType": "bool",
          "name": "oldState",
          "type": "bool"
        },
        {
          "indexed": false,
          "internalType": "bool",
          "name": "newState",
          "type": "bool"
        }
      ],
      "name": "PausedUpdated",
      "type": "event"
    },
    {
      "anonymous": false,
      "inputs": [
        {
          "indexed": true,
          "internalType": "address",
          "name": "from",
          "type": "address"
        },
        {
          "indexed": true,
          "internalType": "address",
          "name": "to",
          "type": "address"
        },
        {
          "indexed": false,
          "internalType": "uint256",
          "name": "value",
          "type": "uint256"
        }
      ],
      "name": "Transfer",
      "type": "event"
    },
    {
      "inputs": [],
      "name": "DOMAIN_SEPARATOR",
      "outputs": [
        {
          "internalType": "bytes32",
          "name": "",
          "type": "bytes32"
        }
      ],
      "stateMutability": "view",
      "type": "function"
    },
    {
      "inputs": [],
      "name": "accrue",
      "outputs": [],
      "stateMutability": "nonpayable",
      "type": "function"
    },
    {
      "inputs": [],
      "name": "accrueInfo",
      "outputs": [
        {
          "internalType": "uint64",
          "name": "debtRate",
          "type": "uint64"
        },
        {
          "internalType": "uint64",
          "name": "lastAccrued",
          "type": "uint64"
        }
      ],
      "stateMutability": "view",
      "type": "function"
    },
    {
      "inputs": [
        {
          "internalType": "address",
          "name": "from",
          "type": "address"
        },
        {
          "internalType": "address",
          "name": "to",
          "type": "address"
        },
        {
          "internalType": "bool",
          "name": "skim",
          "type": "bool"
        },
        {
          "internalType": "uint256",
          "name": "amount",
          "type": "uint256"
        },
        {
          "internalType": "uint256",
          "name": "share",
          "type": "uint256"
        }
      ],
      "name": "addCollateral",
      "outputs": [],
      "stateMutability": "nonpayable",
      "type": "function"
    },
    {
      "inputs": [
        {
          "internalType": "address",
          "name": "",
          "type": "address"
        },
        {
          "internalType": "address",
          "name": "",
          "type": "address"
        }
      ],
      "name": "allowance",
      "outputs": [
        {
          "internalType": "uint256",
          "name": "",
          "type": "uint256"
        }
      ],
      "stateMutability": "view",
      "type": "function"
    },
    {
      "inputs": [
        {
          "internalType": "address",
          "name": "",
          "type": "address"
        },
        {
          "internalType": "address",
          "name": "",
          "type": "address"
        }
      ],
      "name": "allowanceBorrow",
      "outputs": [
        {
          "internalType": "uint256",
          "name": "",
          "type": "uint256"
        }
      ],
      "stateMutability": "view",
      "type": "function"
    },
    {
      "inputs": [
        {
          "internalType": "address",
          "name": "spender",
          "type": "address"
        },
        {
          "internalType": "uint256",
          "name": "amount",
          "type": "uint256"
        }
      ],
      "name": "approve",
      "outputs": [
        {
          "internalType": "bool",
          "name": "",
          "type": "bool"
        }
      ],
      "stateMutability": "nonpayable",
      "type": "function"
    },
    {
      "inputs": [
        {
          "internalType": "address",
          "name": "spender",
          "type": "address"
        },
        {
          "internalType": "uint256",
          "name": "amount",
          "type": "uint256"
        }
      ],
      "name": "approveBorrow",
      "outputs": [
        {
          "internalType": "bool",
          "name": "",
          "type": "bool"
        }
      ],
      "stateMutability": "nonpayable",
      "type": "function"
    },
    {
      "inputs": [],
      "name": "asset",
      "outputs": [
        {
          "internalType": "contract IERC20",
          "name": "",
          "type": "address"
        }
      ],
      "stateMutability": "view",
      "type": "function"
    },
    {
      "inputs": [],
      "name": "assetId",
      "outputs": [
        {
          "internalType": "uint256",
          "name": "",
          "type": "uint256"
        }
      ],
      "stateMutability": "view",
      "type": "function"
    },
    {
      "inputs": [
        {
          "internalType": "address",
          "name": "",
          "type": "address"
        }
      ],
      "name": "balanceOf",
      "outputs": [
        {
          "internalType": "uint256",
          "name": "",
          "type": "uint256"
        }
      ],
      "stateMutability": "view",
      "type": "function"
    },
    {
      "inputs": [
        {
          "internalType": "address",
          "name": "from",
          "type": "address"
        },
        {
          "internalType": "address",
          "name": "to",
          "type": "address"
        },
        {
          "internalType": "uint256",
          "name": "amount",
          "type": "uint256"
        }
      ],
      "name": "borrow",
      "outputs": [
        {
          "internalType": "uint256",
          "name": "part",
          "type": "uint256"
        },
        {
          "internalType": "uint256",
          "name": "share",
          "type": "uint256"
        }
      ],
      "stateMutability": "nonpayable",
      "type": "function"
    },
    {
      "inputs": [],
      "name": "borrowModule",
      "outputs": [
        {
          "internalType": "contract BBBorrow",
          "name": "",
          "type": "address"
        }
      ],
      "stateMutability": "view",
      "type": "function"
    },
    {
      "inputs": [],
      "name": "borrowOpeningFee",
      "outputs": [
        {
          "internalType": "uint256",
          "name": "",
          "type": "uint256"
        }
      ],
      "stateMutability": "view",
      "type": "function"
    },
    {
      "inputs": [
        {
          "internalType": "address",
          "name": "from",
          "type": "address"
        },
        {
          "internalType": "uint256",
          "name": "borrowAmount",
          "type": "uint256"
        },
        {
          "internalType": "uint256",
          "name": "supplyAmount",
          "type": "uint256"
        },
        {
          "internalType": "uint256",
          "name": "minAmountOut",
          "type": "uint256"
        },
        {
          "internalType": "contract ISwapper",
          "name": "swapper",
          "type": "address"
        },
        {
          "internalType": "bytes",
          "name": "dexData",
          "type": "bytes"
        }
      ],
      "name": "buyCollateral",
      "outputs": [
        {
          "internalType": "uint256",
          "name": "amountOut",
          "type": "uint256"
        }
      ],
      "stateMutability": "nonpayable",
      "type": "function"
    },
    {
      "inputs": [],
      "name": "callerFee",
      "outputs": [
        {
          "internalType": "uint256",
          "name": "",
          "type": "uint256"
        }
      ],
      "stateMutability": "view",
      "type": "function"
    },
    {
      "inputs": [],
      "name": "claimOwnership",
      "outputs": [],
      "stateMutability": "nonpayable",
      "type": "function"
    },
    {
      "inputs": [],
      "name": "collateral",
      "outputs": [
        {
          "internalType": "contract IERC20",
          "name": "",
          "type": "address"
        }
      ],
      "stateMutability": "view",
      "type": "function"
    },
    {
      "inputs": [],
      "name": "collateralId",
      "outputs": [
        {
          "internalType": "uint256",
          "name": "",
          "type": "uint256"
        }
      ],
      "stateMutability": "view",
      "type": "function"
    },
    {
      "inputs": [],
      "name": "collateralModule",
      "outputs": [
        {
          "internalType": "contract BBCollateral",
          "name": "",
          "type": "address"
        }
      ],
      "stateMutability": "view",
      "type": "function"
    },
    {
      "inputs": [],
      "name": "collateralizationRate",
      "outputs": [
        {
          "internalType": "uint256",
          "name": "",
          "type": "uint256"
        }
      ],
      "stateMutability": "view",
      "type": "function"
    },
    {
      "inputs": [
        {
          "internalType": "uint256",
          "name": "borrowPart",
          "type": "uint256"
        },
        {
          "internalType": "uint256",
          "name": "collateralPartInAsset",
          "type": "uint256"
        },
        {
          "internalType": "uint256",
          "name": "ratesPrecision",
          "type": "uint256"
        }
      ],
      "name": "computeClosingFactor",
      "outputs": [
        {
          "internalType": "uint256",
          "name": "",
          "type": "uint256"
        }
      ],
      "stateMutability": "view",
      "type": "function"
    },
    {
      "inputs": [
        {
          "internalType": "address",
          "name": "user",
          "type": "address"
        },
        {
          "internalType": "uint256",
          "name": "_exchangeRate",
          "type": "uint256"
        }
      ],
      "name": "computeLiquidatorReward",
      "outputs": [
        {
          "internalType": "uint256",
          "name": "",
          "type": "uint256"
        }
      ],
      "stateMutability": "view",
      "type": "function"
    },
    {
      "inputs": [
        {
          "internalType": "address",
          "name": "user",
          "type": "address"
        },
        {
          "internalType": "uint256",
          "name": "_exchangeRate",
          "type": "uint256"
        }
      ],
      "name": "computeTVLInfo",
      "outputs": [
        {
          "internalType": "uint256",
          "name": "amountToSolvency",
          "type": "uint256"
        },
        {
          "internalType": "uint256",
          "name": "minTVL",
          "type": "uint256"
        },
        {
          "internalType": "uint256",
          "name": "maxTVL",
          "type": "uint256"
        }
      ],
      "stateMutability": "view",
      "type": "function"
    },
    {
      "inputs": [],
      "name": "conservator",
      "outputs": [
        {
          "internalType": "address",
          "name": "",
          "type": "address"
        }
      ],
      "stateMutability": "view",
      "type": "function"
    },
    {
      "inputs": [],
      "name": "debtRateAgainstEthMarket",
      "outputs": [
        {
          "internalType": "uint256",
          "name": "",
          "type": "uint256"
        }
      ],
      "stateMutability": "view",
      "type": "function"
    },
    {
      "inputs": [],
      "name": "debtStartPoint",
      "outputs": [
        {
          "internalType": "uint256",
          "name": "",
          "type": "uint256"
        }
      ],
      "stateMutability": "view",
      "type": "function"
    },
    {
      "inputs": [],
      "name": "exchangeRate",
      "outputs": [
        {
          "internalType": "uint256",
          "name": "",
          "type": "uint256"
        }
      ],
      "stateMutability": "view",
      "type": "function"
    },
    {
      "inputs": [
        {
          "internalType": "bytes[]",
          "name": "calls",
          "type": "bytes[]"
        },
        {
          "internalType": "bool",
          "name": "revertOnFail",
          "type": "bool"
        }
      ],
      "name": "execute",
      "outputs": [
        {
          "internalType": "bool[]",
          "name": "successes",
          "type": "bool[]"
        },
        {
          "internalType": "string[]",
          "name": "results",
          "type": "string[]"
        }
      ],
      "stateMutability": "nonpayable",
      "type": "function"
    },
    {
      "inputs": [],
      "name": "getDebtRate",
      "outputs": [
        {
          "internalType": "uint256",
          "name": "",
          "type": "uint256"
        }
      ],
      "stateMutability": "view",
      "type": "function"
    },
    {
      "inputs": [],
      "name": "getTotalDebt",
      "outputs": [
        {
          "internalType": "uint256",
          "name": "",
          "type": "uint256"
        }
      ],
      "stateMutability": "view",
      "type": "function"
    },
    {
      "inputs": [
        {
          "internalType": "bytes",
          "name": "data",
          "type": "bytes"
        }
      ],
      "name": "init",
      "outputs": [],
      "stateMutability": "nonpayable",
      "type": "function"
    },
    {
      "inputs": [],
      "name": "isMainMarket",
      "outputs": [
        {
          "internalType": "bool",
          "name": "",
          "type": "bool"
        }
      ],
      "stateMutability": "view",
      "type": "function"
    },
    {
      "inputs": [],
      "name": "leverageModule",
      "outputs": [
        {
          "internalType": "contract BBLeverage",
          "name": "",
          "type": "address"
        }
      ],
      "stateMutability": "view",
      "type": "function"
    },
    {
      "inputs": [
        {
          "internalType": "address[]",
          "name": "users",
          "type": "address[]"
        },
        {
          "internalType": "uint256[]",
          "name": "maxBorrowParts",
          "type": "uint256[]"
        },
        {
          "internalType": "bytes[]",
          "name": "collateralToAssetSwapDatas",
          "type": "bytes[]"
        },
        {
          "internalType": "contract ISwapper",
          "name": "swapper",
          "type": "address"
        }
      ],
      "name": "liquidate",
      "outputs": [],
      "stateMutability": "nonpayable",
      "type": "function"
    },
    {
      "inputs": [
        {
          "internalType": "address",
          "name": "user",
          "type": "address"
        },
        {
          "internalType": "address",
          "name": "receiver",
          "type": "address"
        },
        {
          "internalType": "contract ISwapper",
          "name": "swapper",
          "type": "address"
        },
        {
          "internalType": "bytes",
          "name": "collateralToAssetSwapData",
          "type": "bytes"
        }
      ],
      "name": "liquidateBadDebt",
      "outputs": [],
      "stateMutability": "nonpayable",
      "type": "function"
    },
    {
      "inputs": [],
      "name": "liquidationBonusAmount",
      "outputs": [
        {
          "internalType": "uint256",
          "name": "",
          "type": "uint256"
        }
      ],
      "stateMutability": "view",
      "type": "function"
    },
    {
      "inputs": [],
      "name": "liquidationModule",
      "outputs": [
        {
          "internalType": "contract BBLiquidation",
          "name": "",
          "type": "address"
        }
      ],
      "stateMutability": "view",
      "type": "function"
    },
    {
      "inputs": [],
      "name": "liquidationMultiplier",
      "outputs": [
        {
          "internalType": "uint256",
          "name": "",
          "type": "uint256"
        }
      ],
      "stateMutability": "view",
      "type": "function"
    },
    {
      "inputs": [],
      "name": "maxDebtRate",
      "outputs": [
        {
          "internalType": "uint256",
          "name": "",
          "type": "uint256"
        }
      ],
      "stateMutability": "view",
      "type": "function"
    },
    {
      "inputs": [],
      "name": "maxLiquidatorReward",
      "outputs": [
        {
          "internalType": "uint256",
          "name": "",
          "type": "uint256"
        }
      ],
      "stateMutability": "view",
      "type": "function"
    },
    {
      "inputs": [],
      "name": "minDebtRate",
      "outputs": [
        {
          "internalType": "uint256",
          "name": "",
          "type": "uint256"
        }
      ],
      "stateMutability": "view",
      "type": "function"
    },
    {
      "inputs": [],
      "name": "minLiquidatorReward",
      "outputs": [
        {
          "internalType": "uint256",
          "name": "",
          "type": "uint256"
        }
      ],
      "stateMutability": "view",
      "type": "function"
    },
    {
      "inputs": [
        {
          "internalType": "address",
          "name": "owner",
          "type": "address"
        }
      ],
      "name": "nonces",
      "outputs": [
        {
          "internalType": "uint256",
          "name": "",
          "type": "uint256"
        }
      ],
      "stateMutability": "view",
      "type": "function"
    },
    {
      "inputs": [
        {
          "internalType": "address",
          "name": "user",
          "type": "address"
        }
      ],
      "name": "openingFees",
      "outputs": [
        {
          "internalType": "uint256",
          "name": "fee",
          "type": "uint256"
        }
      ],
      "stateMutability": "view",
      "type": "function"
    },
    {
      "inputs": [],
      "name": "oracle",
      "outputs": [
        {
          "internalType": "contract IOracle",
          "name": "",
          "type": "address"
        }
      ],
      "stateMutability": "view",
      "type": "function"
    },
    {
      "inputs": [],
      "name": "oracleData",
      "outputs": [
        {
          "internalType": "bytes",
          "name": "",
          "type": "bytes"
        }
      ],
      "stateMutability": "view",
      "type": "function"
    },
    {
      "inputs": [],
      "name": "owner",
      "outputs": [
        {
          "internalType": "address",
          "name": "",
          "type": "address"
        }
      ],
      "stateMutability": "view",
      "type": "function"
    },
    {
      "inputs": [
        {
          "internalType": "enum Market.PauseType",
          "name": "pauseProp",
          "type": "uint8"
        }
      ],
      "name": "pauseOptions",
      "outputs": [
        {
          "internalType": "bool",
          "name": "pauseStatus",
          "type": "bool"
        }
      ],
      "stateMutability": "view",
      "type": "function"
    },
    {
      "inputs": [],
      "name": "pendingOwner",
      "outputs": [
        {
          "internalType": "address",
          "name": "",
          "type": "address"
        }
      ],
      "stateMutability": "view",
      "type": "function"
    },
    {
      "inputs": [],
      "name": "penrose",
      "outputs": [
        {
          "internalType": "contract IPenrose",
          "name": "",
          "type": "address"
        }
      ],
      "stateMutability": "view",
      "type": "function"
    },
    {
      "inputs": [
        {
          "internalType": "address",
          "name": "owner",
          "type": "address"
        },
        {
          "internalType": "address",
          "name": "spender",
          "type": "address"
        },
        {
          "internalType": "uint256",
          "name": "value",
          "type": "uint256"
        },
        {
          "internalType": "uint256",
          "name": "deadline",
          "type": "uint256"
        },
        {
          "internalType": "uint8",
          "name": "v",
          "type": "uint8"
        },
        {
          "internalType": "bytes32",
          "name": "r",
          "type": "bytes32"
        },
        {
          "internalType": "bytes32",
          "name": "s",
          "type": "bytes32"
        }
      ],
      "name": "permit",
      "outputs": [],
      "stateMutability": "nonpayable",
      "type": "function"
    },
    {
      "inputs": [
        {
          "internalType": "bytes",
          "name": "data",
          "type": "bytes"
        },
        {
          "internalType": "uint16",
          "name": "actionType",
          "type": "uint16"
        }
      ],
      "name": "permitAction",
      "outputs": [],
      "stateMutability": "nonpayable",
      "type": "function"
    },
    {
      "inputs": [
        {
          "internalType": "address",
          "name": "owner",
          "type": "address"
        },
        {
          "internalType": "address",
          "name": "spender",
          "type": "address"
        },
        {
          "internalType": "uint256",
          "name": "value",
          "type": "uint256"
        },
        {
          "internalType": "uint256",
          "name": "deadline",
          "type": "uint256"
        },
        {
          "internalType": "uint8",
          "name": "v",
          "type": "uint8"
        },
        {
          "internalType": "bytes32",
          "name": "r",
          "type": "bytes32"
        },
        {
          "internalType": "bytes32",
          "name": "s",
          "type": "bytes32"
        }
      ],
      "name": "permitBorrow",
      "outputs": [],
      "stateMutability": "nonpayable",
      "type": "function"
    },
    {
      "inputs": [],
      "name": "protocolFee",
      "outputs": [
        {
          "internalType": "uint256",
          "name": "",
          "type": "uint256"
        }
      ],
      "stateMutability": "view",
      "type": "function"
    },
    {
      "inputs": [],
      "name": "refreshPenroseFees",
      "outputs": [
        {
          "internalType": "uint256",
          "name": "feeShares",
          "type": "uint256"
        }
      ],
      "stateMutability": "nonpayable",
      "type": "function"
    },
    {
      "inputs": [
        {
          "internalType": "address",
          "name": "from",
          "type": "address"
        },
        {
          "internalType": "address",
          "name": "to",
          "type": "address"
        },
        {
          "internalType": "uint256",
          "name": "share",
          "type": "uint256"
        }
      ],
      "name": "removeCollateral",
      "outputs": [],
      "stateMutability": "nonpayable",
      "type": "function"
    },
    {
      "inputs": [
        {
          "internalType": "address",
          "name": "from",
          "type": "address"
        },
        {
          "internalType": "address",
          "name": "to",
          "type": "address"
        },
        {
          "internalType": "bool",
          "name": "skim",
          "type": "bool"
        },
        {
          "internalType": "uint256",
          "name": "part",
          "type": "uint256"
        }
      ],
      "name": "repay",
      "outputs": [
        {
          "internalType": "uint256",
          "name": "amount",
          "type": "uint256"
        }
      ],
      "stateMutability": "nonpayable",
      "type": "function"
    },
    {
      "inputs": [
        {
          "internalType": "uint256",
          "name": "amount",
          "type": "uint256"
        },
        {
          "internalType": "address",
          "name": "to",
          "type": "address"
        }
      ],
      "name": "rescueEth",
      "outputs": [],
      "stateMutability": "nonpayable",
      "type": "function"
    },
    {
      "inputs": [
        {
          "internalType": "address",
          "name": "from",
          "type": "address"
        },
        {
          "internalType": "uint256",
          "name": "share",
          "type": "uint256"
        },
        {
          "internalType": "uint256",
          "name": "minAmountOut",
          "type": "uint256"
        },
        {
          "internalType": "contract ISwapper",
          "name": "swapper",
          "type": "address"
        },
        {
          "internalType": "bytes",
          "name": "dexData",
          "type": "bytes"
        }
      ],
      "name": "sellCollateral",
      "outputs": [
        {
          "internalType": "uint256",
          "name": "amountOut",
          "type": "uint256"
        }
      ],
      "stateMutability": "nonpayable",
      "type": "function"
    },
    {
      "inputs": [
        {
          "internalType": "uint256",
          "name": "_minDebtRate",
          "type": "uint256"
        },
        {
          "internalType": "uint256",
          "name": "_maxDebtRate",
          "type": "uint256"
        },
        {
          "internalType": "uint256",
          "name": "_debtRateAgainstEthMarket",
          "type": "uint256"
        },
        {
          "internalType": "uint256",
          "name": "_liquidationMultiplier",
          "type": "uint256"
        }
      ],
      "name": "setBigBangConfig",
      "outputs": [],
      "stateMutability": "nonpayable",
      "type": "function"
    },
    {
      "inputs": [
        {
          "internalType": "uint256",
          "name": "_cap",
          "type": "uint256"
        }
      ],
      "name": "setBorrowCap",
      "outputs": [],
      "stateMutability": "nonpayable",
      "type": "function"
    },
    {
      "inputs": [
        {
          "internalType": "uint256",
          "name": "_val",
          "type": "uint256"
        }
      ],
      "name": "setBorrowOpeningFee",
      "outputs": [],
      "stateMutability": "nonpayable",
      "type": "function"
    },
    {
      "inputs": [
        {
          "internalType": "uint256",
          "name": "_borrowOpeningFee",
          "type": "uint256"
        },
        {
          "internalType": "contract IOracle",
          "name": "_oracle",
          "type": "address"
        },
        {
          "internalType": "bytes",
          "name": "_oracleData",
          "type": "bytes"
        },
        {
          "internalType": "address",
          "name": "_conservator",
          "type": "address"
        },
        {
          "internalType": "uint256",
          "name": "_callerFee",
          "type": "uint256"
        },
        {
          "internalType": "uint256",
          "name": "_protocolFee",
          "type": "uint256"
        },
        {
          "internalType": "uint256",
          "name": "_liquidationBonusAmount",
          "type": "uint256"
        },
        {
          "internalType": "uint256",
          "name": "_minLiquidatorReward",
          "type": "uint256"
        },
        {
          "internalType": "uint256",
          "name": "_maxLiquidatorReward",
          "type": "uint256"
        },
        {
          "internalType": "uint256",
          "name": "_totalBorrowCap",
          "type": "uint256"
        },
        {
          "internalType": "uint256",
          "name": "_collateralizationRate",
          "type": "uint256"
        }
      ],
      "name": "setMarketConfig",
      "outputs": [],
      "stateMutability": "nonpayable",
      "type": "function"
    },
    {
      "inputs": [],
      "name": "totalBorrow",
      "outputs": [
        {
          "internalType": "uint128",
          "name": "elastic",
          "type": "uint128"
        },
        {
          "internalType": "uint128",
          "name": "base",
          "type": "uint128"
        }
      ],
      "stateMutability": "view",
      "type": "function"
    },
    {
      "inputs": [],
      "name": "totalBorrowCap",
      "outputs": [
        {
          "internalType": "uint256",
          "name": "",
          "type": "uint256"
        }
      ],
      "stateMutability": "view",
      "type": "function"
    },
    {
      "inputs": [],
      "name": "totalCollateralShare",
      "outputs": [
        {
          "internalType": "uint256",
          "name": "",
          "type": "uint256"
        }
      ],
      "stateMutability": "view",
      "type": "function"
    },
    {
      "inputs": [],
      "name": "totalSupply",
      "outputs": [
        {
          "internalType": "uint256",
          "name": "",
          "type": "uint256"
        }
      ],
      "stateMutability": "view",
      "type": "function"
    },
    {
      "inputs": [
        {
          "internalType": "address",
          "name": "",
          "type": "address"
        },
        {
          "internalType": "uint256",
          "name": "",
          "type": "uint256"
        }
      ],
      "name": "transfer",
      "outputs": [
        {
          "internalType": "bool",
          "name": "",
          "type": "bool"
        }
      ],
      "stateMutability": "pure",
      "type": "function"
    },
    {
      "inputs": [
        {
          "internalType": "address",
          "name": "",
          "type": "address"
        },
        {
          "internalType": "address",
          "name": "",
          "type": "address"
        },
        {
          "internalType": "uint256",
          "name": "",
          "type": "uint256"
        }
      ],
      "name": "transferFrom",
      "outputs": [
        {
          "internalType": "bool",
          "name": "",
          "type": "bool"
        }
      ],
      "stateMutability": "pure",
      "type": "function"
    },
    {
      "inputs": [
        {
          "internalType": "address",
          "name": "newOwner",
          "type": "address"
        },
        {
          "internalType": "bool",
          "name": "direct",
          "type": "bool"
        },
        {
          "internalType": "bool",
          "name": "renounce",
          "type": "bool"
        }
      ],
      "name": "transferOwnership",
      "outputs": [],
      "stateMutability": "nonpayable",
      "type": "function"
    },
    {
      "inputs": [],
      "name": "updateExchangeRate",
      "outputs": [
        {
          "internalType": "bool",
          "name": "updated",
          "type": "bool"
        },
        {
          "internalType": "uint256",
          "name": "rate",
          "type": "uint256"
        }
      ],
      "stateMutability": "nonpayable",
      "type": "function"
    },
    {
      "inputs": [
        {
          "internalType": "enum Market.PauseType",
          "name": "_type",
          "type": "uint8"
        },
        {
          "internalType": "bool",
          "name": "val",
          "type": "bool"
        }
      ],
      "name": "updatePause",
      "outputs": [],
      "stateMutability": "nonpayable",
      "type": "function"
    },
    {
      "inputs": [
        {
          "internalType": "address",
          "name": "",
          "type": "address"
        }
      ],
      "name": "userBorrowPart",
      "outputs": [
        {
          "internalType": "uint256",
          "name": "",
          "type": "uint256"
        }
      ],
      "stateMutability": "view",
      "type": "function"
    },
    {
      "inputs": [
        {
          "internalType": "address",
          "name": "",
          "type": "address"
        }
      ],
      "name": "userCollateralShare",
      "outputs": [
        {
          "internalType": "uint256",
          "name": "",
          "type": "uint256"
        }
      ],
      "stateMutability": "view",
      "type": "function"
    },
    {
      "inputs": [],
      "name": "yieldBox",
      "outputs": [
        {
          "internalType": "contract YieldBox",
          "name": "",
          "type": "address"
        }
      ],
      "stateMutability": "view",
      "type": "function"
    },
    {
      "stateMutability": "payable",
      "type": "receive"
    }
  ],
  "bytecode": "0x6101408060405234620001855762000017816200018a565b600f81526001602082016e546170696f63612042696742616e6760881b8152602060405162000046816200018a565b8381520192603160f81b845251902091208160e052610100918183524660a0526040519160208301907f8b73c3c69bb8fe3d512ecc4cf759cc79239f7b179b0ffacaa9a75d522b39400f92838352604085015260608401524660808401523060a084015260a0835260c083019280841060018060401b038511176200016f5760408490525190206080523060c052610120908152600580546001600160a01b0319163390811790915560007f8be0079c531659141344cd1fd0a4f28419497f9722a3daafe3b4186f6b6457e08180a36103e860195561271080601a55601b556032601d55612ee0601e556142899283620001a7843960805183612f6a015260a05183613025015260c05183612f34015260e05183612fb901525182612fdf01525181612f960152f35b634e487b7160e01b600052604160045260246000fd5b600080fd5b604081019081106001600160401b038211176200016f5760405256fe6080604052600436101561001b575b361561001957600080fd5b005b60003560e01c8062a02a20146104da57806302ce728f146104d5578063078dfbe7146104d0578063095ea7b3146104cb5780630c4e84f0146104c657806318160ddd146104c15780631c9e379b146104bc5780631da8bf10146104b75780631ee9c8f2146104b25780631fb8f81a146104ad57806323b872dd146104a857806325384fd8146104a357806327c811a81461049e57806334ce998a1461049957806334d441d0146104945780633644e5151461048f57806338d52e0f1461048a5780633ba0b9a9146104855780633f741adb1461048057806340626d8b1461047b57806344de240a14610476578063473e3ce71461047157806348e4163e1461046c5780634ddf47d4146104675780634e71e0c8146104625780635100b5671461045d5780635224372c14610458578063529898f214610453578063579354621461044e57806358db9afe146104495780635d5f73ef146104445780636b19ad161461043f5780636c3d8b8f1461043a57806370a0823114610435578063717186d114610430578063727785471461042b57806374645ff3146104265780637dc0d1d0146104215780637ecebe001461041c5780637fa0b84e146104175780638285ef401461041257806387b279371461040d5780638c5d0ed3146104085780638da5cb5b14610403578063910dd7c8146103fe578063959916dc146103f957806396759372146103f457806399a97028146103ef5780639e15e89f146103ea578063a28e6b82146103e5578063a9059cbb146103e0578063aa7d9665146103db578063af405b4c146103d6578063b0e21e8a146103d1578063b25ea8fb146103cc578063b27c0e74146103c7578063b7113f19146103c2578063bb4cfe3b146103bd578063bde39c5d146103b8578063c1ad5c8d146103b3578063c861a526146103ae578063cb7940e1146103a9578063cce19f81146103a4578063cd0211eb1461039f578063ce8849ed1461039a578063d505accf14610395578063d8dfeb4514610390578063dd62ed3e1461038b578063de40657714610386578063e0996cb614610381578063e30c39781461037c578063e9a4925214610377578063eec0f42e14610372578063f5b33dfa1461036d578063f791395d146103685763f8ba4cff0361000e57612609565b6125eb565b6125c2565b6125a4565b612520565b6124f7565b6124d9565b6124b0565b612480565b612457565b6123bb565b612392565b612310565b6122d5565b6121a5565b61217c565b612161565b612143565b612125565b612102565b6120cf565b612043565b612025565b611e1c565b611d09565b611c1c565b611b72565b611b34565b611b09565b61182e565b611803565b611782565b61173e565b611720565b6116e3565b6116b1565b611687565b61164a565b611621565b61155a565b6113f9565b611372565b611335565b61130c565b6112ee565b6112c5565b611222565b611204565b6111e6565b611189565b611116565b61106c565b610ef1565b610eb4565b610e96565b610e78565b610e5a565b610e36565b610e18565b610def565b610dcc565b610dae565b610d85565b610b55565b610b2c565b610b16565b610acc565b6109f9565b6108b5565b610828565b61080c565b610713565b6106cf565b6105c6565b610593565b61055a565b6001600160a01b031690565b6001600160a01b038116036104fc57565b600080fd5b60409060031901126104fc57600435610519816104eb565b90602435610526816104eb565b90565b6001600160a01b0316600090815260166020526040902090565b9060018060a01b0316600052602052604060002090565b346104fc57602061058a61056d36610501565b6001600160a01b0390911660009081526003845260409020610543565b54604051908152f35b346104fc5760003660031901126104fc5760406105ae612b84565b825191151582526020820152f35b801515036104fc57565b346104fc5760603660031901126104fc576004356105e3816104eb565b602435906105f0826105bc565b604435916105fd836105bc565b6005546001600160a01b0391906106179083163314612622565b156106b6578116918215908115916106ae575b50156106715761065f916106476106426005546104df565b6104df565b6000805160206141f4833981519152600080a361266d565b600680546001600160a01b0319169055005b60405162461bcd60e51b81526020600482015260156024820152744f776e61626c653a207a65726f206164647265737360581b6044820152606490fd5b90503861062a565b60068054919092166001600160a01b0319909116179055005b346104fc5760403660031901126104fc576106f96004356106ef816104eb565b6024359033613444565b602060405160018152f35b6004359060098210156104fc57565b346104fc5760403660031901126104fc5761072c610704565b602435610738816105bc565b6008546001600160a01b031633036107d0576107bf8261077961076f61076a610763610019976113db565b5460ff1690565b151590565b8415151415612810565b7feeec81de25875ce1725479bb76f720a8defdb43dea041919ae37bb4aae9847c0836107a7610763846113db565b6107b76040519283928684612851565b0390a16113db565b9060ff801983541691151516179055565b60405162461bcd60e51b815260206004820152601460248201527313585c9ad95d0e881d5b985d5d1a1bdc9a5e995960621b6044820152606490fd5b346104fc5760003660031901126104fc57602060405160008152f35b346104fc5760203660031901126104fc57600435610845816104eb565b60018060a01b031660005260166020526020604060002054604051908152f35b60ff8116036104fc57565b60e09060031901126104fc57600435610888816104eb565b90602435610895816104eb565b9060443590606435906084356108aa81610865565b9060a4359060c43590565b346104fc576108c336610870565b959280959495929192421161098757610019966109829361096f93610962878a61095a8b61094c610967996108f7866133ca565b60405195869460208601988991959493909260c09360e084019760008051602061421483398151915285526000602086015260018060a01b038092166040860152166060840152608083015260a08201520152565b03601f1981018352826114de565b519020613375565b6132fd565b9190916131e2565b6001600160a01b0383811691161461317d565b6133f2565b60405162461bcd60e51b815260206004820152601d60248201527f45524332305065726d69743a206578706972656420646561646c696e650000006044820152606490fd5b9181601f840112156104fc578235916001600160401b0383116104fc57602083818601950101116104fc57565b346104fc5760c03660031901126104fc57600435610a16816104eb565b608435610a22816104eb565b60a435906001600160401b0382116104fc57610ac892610aa4610aa99261094c610a53610ab89636906004016109cc565b604051958694630f74e47960e11b602087015260018060a01b0380921660248701526024356044870152604435606487015260643560848701521660a485015260c060c485015260e4840191613f51565b61407d565b60208082518301019101612d41565b6040519081529081906020820190565b0390f35b346104fc5760003660031901126104fc576020602754604051908152f35b60609060031901126104fc57600435610b02816104eb565b90602435610b0f816104eb565b9060443590565b346104fc57610b2436610aea565b505050613ff5565b346104fc5760003660031901126104fc576029546040516001600160a01b039091168152602090f35b346104fc5760803660031901126104fc576004356024356044359060643592610b8960018060a01b03600554163314612622565b6004600c546020610b9e610642600a546104df565b6040516364cfdbb760e11b815293849182905afa908115610d8057610bd992600092610d50575b501460ff8019602354169115151617602355565b610bec610be860235460ff1690565b1590565b610bf257005b610bfa613740565b80610cfd575b5080610caa575b5080610c64575b5080610c1657005b80610c28620186a06100199310614041565b7f1f1d0e9e5e3fd195010504141e7472fc7f53e44d7cd3f236f0892778039c632681601e54610c5c60405192839283611178565b0390a1601e55565b807fd00c912c9d1f75ac893827b7bb73eb82874daea46c2eaa6d2bd89f0c8ee57366610ca492602654610c9c60405192839283611178565b0390a1602655565b38610c0e565b610cf790610cbb6025548211614041565b7f5391ae26cacff12a54d10d45f0f04678de8bb9c9b2f784eb7074dac7cc0f8fd981602454610cef60405192839283611178565b0390a1602455565b38610c07565b610d4a90610d0e6024548210614041565b7fa54af2279046b0207f426565497319c4e274479ce71cb53598ec2391459be3f381602554610d4260405192839283611178565b0390a1602555565b38610c00565b610d7291925060203d8111610d79575b610d6a81836114de565b810190612d41565b9038610bc5565b503d610d60565b612b35565b346104fc5760003660031901126104fc576012546040516001600160801b039091168152602090f35b346104fc5760003660031901126104fc576020601754604051908152f35b346104fc5760003660031901126104fc576020610de7612f31565b604051908152f35b346104fc5760003660031901126104fc57600d546040516001600160a01b039091168152602090f35b346104fc5760003660031901126104fc576020601154604051908152f35b346104fc5760603660031901126104fc576020610de7604435602435600435612925565b346104fc5760003660031901126104fc576020601454604051908152f35b346104fc5760003660031901126104fc576020600e54604051908152f35b346104fc5760003660031901126104fc576020601354604051908152f35b346104fc5760203660031901126104fc57600435610ed1816104eb565b60018060a01b031660005260156020526020604060002054604051908152f35b346104fc5760203660031901126104fc576004356001600160401b0381116104fc57610f219036906004016109cc565b60ff6020541661103157816101c091810103126104fc5780611000610f4861101f93611821565b610f5460208401611821565b90610f6160408501611821565b610fe7610f7060608701611821565b91610f7d60808801611821565b94610f8a60a08901611821565b94610f9760e08a01611821565b602880546001600160a01b03199081166001600160a01b0394851617909155602a805482169584169590951790945560298054851693831693909317909255602b80549093169416939093179055565b6101a0850135926101008601359260c087013591613a79565b6101808101359061016081013590610120610140820135910135613969565b610019600160ff196020541617602055565b60405162461bcd60e51b815260206004820152601360248201527213585c9ad95d0e881a5b9a5d1a585b1a5e9959606a1b6044820152606490fd5b346104fc57600080600319360112611113576006546001600160a01b0316338190036110cf57806110bc916110a56106426005546104df565b6000805160206141f48339815191528580a361266d565b600680546001600160a01b031916905580f35b606460405162461bcd60e51b815260206004820152602060248201527f4f776e61626c653a2063616c6c657220213d2070656e64696e67206f776e65726044820152fd5b80fd5b346104fc5760203660031901126104fc5760043561113f60018060a01b03600554163314612622565b61114e620186a08211156126b1565b6000805160206141d483398151915281601d5461117060405192839283611178565b0390a1601d55005b908152602081019190915260400190565b346104fc576111d66111c761094c6111c26111a336610aea565b6040516314890dcb60e21b602082015294859390929060248501613f19565b614115565b60208082518301019101613f3b565b90610ac860405192839283611178565b346104fc5760003660031901126104fc576020601e54604051908152f35b346104fc5760003660031901126104fc576020601a54604051908152f35b346104fc5760a03660031901126104fc5760043561123f816104eb565b60643561124b816104eb565b608435906001600160401b0382116104fc57610ac892610aa4610aa99261094c61127c610ab89636906004016109cc565b604051958694632c6dcd7f60e11b602087015260018060a01b0380921660248701526024356044870152604435606487015216608485015260a060a485015260c4840191613f51565b346104fc5760003660031901126104fc576028546040516001600160a01b039091168152602090f35b346104fc5760003660031901126104fc576020602454604051908152f35b346104fc5760003660031901126104fc57600a546040516001600160a01b039091168152602090f35b346104fc5760203660031901126104fc57600435611352816104eb565b60018060a01b031660005260016020526020604060002054604051908152f35b346104fc5760203660031901126104fc5760043561139b60018060a01b03600554163314612622565b6000805160206141b4833981519152816014546113bd60405192839283611178565b0390a1601455005b634e487b7160e01b600052602160045260246000fd5b60098110156113f4576000526007602052604060002090565b6113c5565b346104fc5760203660031901126104fc57611412610704565b60098110156113f4576000526007602052602060ff604060002054166040519015158152f35b90600182811c92168015611468575b602083101461145257565b634e487b7160e01b600052602260045260246000fd5b91607f1691611447565b634e487b7160e01b600052604160045260246000fd5b604081019081106001600160401b038211176114a357604052565b611472565b60c081019081106001600160401b038211176114a357604052565b60e081019081106001600160401b038211176114a357604052565b601f909101601f19168101906001600160401b038211908210176114a357604052565b60005b8381106115145750506000910152565b8181015183820152602001611504565b9060209161153d81518092818552858086019101611501565b601f01601f1916010190565b906020610526928181520190611524565b346104fc57600080600319360112611113576040518160105461157c81611438565b808452906001908181169081156115f957506001146115b2575b610ac8846115a6818803826114de565b60405191829182611549565b60108352602094506000805160206142348339815191525b8284106115e65750505081610ac8936115a69282010193611596565b80548585018701529285019281016115ca565b610ac896506115a69450602092508593915060ff191682840152151560051b82010193611596565b346104fc5760003660031901126104fc57600f546040516001600160a01b039091168152602090f35b346104fc5760203660031901126104fc57600435611667816104eb565b60018060a01b031660005260046020526020604060002054604051908152f35b346104fc5760403660031901126104fc576106f96004356116a7816104eb565b60243590336133f2565b346104fc5760003660031901126104fc57601254604080516001600160801b038316815260809290921c602083015290f35b346104fc5760203660031901126104fc57600435611700816104eb565b60018060a01b031660005260216020526020604060002054604051908152f35b346104fc5760003660031901126104fc576020601954604051908152f35b346104fc5760003660031901126104fc576005546040516001600160a01b039091168152602090f35b6001600160401b0381116114a357601f01601f191660200190565b346104fc5760403660031901126104fc576004356001600160401b0381116104fc57366023820112156104fc5780600401356117bd81611767565b916117cb60405193846114de565b81835236602483830101116104fc5781600092602460209301838601378301015260243561ffff811681036104fc576100199161304b565b346104fc5760003660031901126104fc576020601d54604051908152f35b359061182c826104eb565b565b346104fc576101603660031901126104fc5760243560043561184f826104eb565b6044356001600160401b0381116104fc5761186e9036906004016109cc565b9160643561187b816104eb565b60843560a4359060c4359260e4359461010435966101243598610144359a60018060a01b03936118b085600554163314612622565b80611ac6575b50838116611a92575b5080611a5d575b5050811690816119fd575b5050806119df575b50806119c1575b50806119a4575b508061197a575b5080611950575b508061191c575b508061190457005b80611917620186a06100199311156126b1565b601c55565b806000805160206141b483398151915261194a9260145461194260405192839283611178565b0390a1601455565b386118fc565b80611962620186a061197493106126b1565b61196f60195482116126b1565b601a55565b386118f5565b8061198c620186a061199e93106126b1565b611999601a5482106126b1565b601955565b386118ee565b806119b6620186a06119bb93106126b1565b601b55565b386118e7565b806119d4620186a06119d99311156126b1565b601855565b386118e0565b806119f2620186a06119f79311156126b1565b601755565b386118d9565b611a5691611a0f6106426008546104df565b7f5a62d22209e370e38eea92cfddcd228e656e6ec139243392a760a7769f5877fd600080a3600880546001600160a01b0319166001600160a01b0392909216919091179055565b38806118d1565b611a6691612745565b7fa6f004921c944d4b8bf6e38462b00f36a58d62495d56b51f571ab78f732c9815600080a138806118c6565b611a9b9061268f565b7f0b2d6eb667d0522c3eb86e4288afecae6c11591ffd1345d4d12407e0598bca9b600080a1386118bf565b80611ad9620186a0611b039311156126b1565b6000805160206141d483398151915281601d54611afb60405192839283611178565b0390a1601d55565b386118b6565b346104fc5760403660031901126104fc576020610de7600435611b2b816104eb565b60243590612e54565b346104fc5760403660031901126104fc576060611b5f600435611b56816104eb565b602435906129d0565b9060405192835260208301526040820152f35b346104fc5760803660031901126104fc57600435611b8f816104eb565b602435611b9b816104eb565b60443590611ba8826104eb565b606435926001600160401b0384116104fc5761094c611c1792611bd26100199636906004016109cc565b60405163514735c160e11b60208201526001600160a01b03958616602482015292851660448401529390951660648201526080608482015293849260a4840191613f51565b61413f565b346104fc5760403660031901126104fc57611c386004356104eb565b613ff5565b9181601f840112156104fc578235916001600160401b0383116104fc576020808501948460051b0101116104fc57565b906040820191604081528151809352606081019260208093019060005b818110611cf357505050818184039101528251908183528083019281808460051b8301019501936000915b848310611cc55750505050505090565b9091929394958480611ce3600193601f198682030187528a51611524565b9801930193019194939290611cb5565b8251151586529484019491840191600101611c8a565b346104fc576040806003193601126104fc57600480356001600160401b0381116104fc57611d3a9036908301611c3d565b9290602435611d48816105bc565b611d5185613d04565b93611d5b86613d36565b95600090815b818110611d7657865180610ac88b8b83611c6d565b8280611d8383858a613d96565b90611d928b5180938193613ddc565b0390305af4611d9f613dea565b90801580611e15575b611dee578291611dc9611dce92611dc2611de9968e613e1a565b9015159052565b613e2e565b611dd8828c613e1a565b52611de3818b613e1a565b506133bb565b611d61565b8886611e11611dfc85613e2e565b925162461bcd60e51b81529283928301611549565b0390fd5b5086611da8565b346104fc5760008060031936011261111357611e4360018060a01b03600554163314612622565b611e51610642600d546104df565b604080516370a0823160e01b815230600482015260209390928484602481845afa908115610d8057611eb2948392612006575b50611e936106426009546104df565b8683600e5487519889928392638eb22cdd60e01b845260048401612d50565b0381845afa958615610d80578496611fe7575b5085611ed6575b8451868152602090f35b845163095ea7b360e01b81526001600160a01b03919091166004820152602481019290925290919085908390604490829085905af1908115610d8057611f719584938693611fb9575b5050611f2f6106426009546104df565b600e548451634d4d7cbd60e11b8152600481019190915230602482015233604482015260006064820152608481019390935291958692918391829060a4820190565b03925af1928315610d8057610ac893611f8d575b808080611ecc565b611fac90823d8411611fb2575b611fa481836114de565b810190613f3b565b50611f85565b503d611f9a565b81611fd892903d10611fe0575b611fd081836114de565b81019061402c565b503880611f1f565b503d611fc6565b611fff919650873d8911610d7957610d6a81836114de565b9438611ec5565b61201e919250863d8811610d7957610d6a81836114de565b9038611e84565b346104fc5760003660031901126104fc576020601854604051908152f35b346104fc5760403660031901126104fc57602435612060816104eb565b61207560018060a01b03600554163314612622565b60008080808094600435905af161208a613dea565b50156120935780f35b60405162461bcd60e51b815260206004820152601460248201527321211d103a3930b739b332b9103330b4b632b21760611b6044820152606490fd5b346104fc5760003660031901126104fc57602254604080516001600160401b03808416825292821c909216602083015290f35b346104fc5760003660031901126104fc57602060ff602354166040519015158152f35b346104fc5760003660031901126104fc576020601c54604051908152f35b346104fc5760003660031901126104fc576020602654604051908152f35b346104fc5760003660031901126104fc576020610de761349f565b346104fc5760003660031901126104fc57602a546040516001600160a01b039091168152602090f35b346104fc576003196080368201126104fc576001600160401b036004358181116104fc576121d7903690600401611c3d565b9290916024358181116104fc576121f2903690600401611c3d565b90916044359081116104fc5761220c903690600401611c3d565b9490916064359261221c846104eb565b6040519660209863cb7940e160e01b8a8a01528060a48a01608060248c01525260c48901949060005b8b8282106122ad57505050508784036023190160448901528284526001600160fb1b0383116104fc5761001998611c1797899761094c9661229b9660051b80928583013701908882030160648901520191613f72565b6001600160a01b039092166084840152565b8084986001939495356122bf816104eb565b848060a01b031681520197019101919091612245565b346104fc5761001961094c61230b6122ec36610aea565b60405163cce19f8160e01b602082015294859390929060248501613f19565b614169565b346104fc5760803660031901126104fc57610ac8610ab8610aa9600435612336816104eb565b60243590612343826104eb565b60443590612350826105bc565b6040519263cd0211eb60e01b602085015260018060a01b038092166024850152166044830152151560648201526064356084820152608481526111c2816114a8565b346104fc5760003660031901126104fc576008546040516001600160a01b039091168152602090f35b346104fc576123c936610870565b959280959495929192421161098757610019966124529361096f93610962878a61095a8b61094c610967996123fd866133ca565b60405195869460208601988991959493909260c09360e084019760008051602061419483398151915285526000602086015260018060a01b038092166040860152166060840152608083015260a08201520152565b613444565b346104fc5760003660031901126104fc57600b546040516001600160a01b039091168152602090f35b346104fc57602061058a61249336610501565b6001600160a01b0390911660009081526002845260409020610543565b346104fc5760003660031901126104fc576009546040516001600160a01b039091168152602090f35b346104fc5760003660031901126104fc576020601b54604051908152f35b346104fc5760003660031901126104fc576006546040516001600160a01b039091168152602090f35b346104fc5760a03660031901126104fc57610019600435612540816104eb565b6024359061254d826104eb565b6044359061255a826105bc565b604051926374d2492960e11b602085015260018060a01b03809216602485015216604483015215156064820152606435608482015260843560a482015260a4815261230b816114c3565b346104fc5760003660031901126104fc576020600c54604051908152f35b346104fc5760003660031901126104fc57602b546040516001600160a01b039091168152602090f35b346104fc5760003660031901126104fc576020602554604051908152f35b346104fc5760003660031901126104fc57610019613740565b1561262957565b606460405162461bcd60e51b815260206004820152602060248201527f4f776e61626c653a2063616c6c6572206973206e6f7420746865206f776e65726044820152fd5b600580546001600160a01b0319166001600160a01b0392909216919091179055565b600f80546001600160a01b0319166001600160a01b0392909216919091179055565b156126b857565b60405162461bcd60e51b815260206004820152601160248201527013585c9ad95d0e881b9bdd081d985b1a59607a1b6044820152606490fd5b601f81116126fd575050565b6000906010825260208220906020601f850160051c8301941061273b575b601f0160051c01915b82811061273057505050565b818155600101612724565b909250829061271b565b91906001600160401b0381116114a35761276981612764601054611438565b6126f1565b6000601f82116001146127a357819293600092612798575b50508160011b916000199060031b1c191617601055565b013590503880612781565b6010600052601f1982169360008051602061423483398151915291805b8681106127f857508360019596106127de575b505050811b01601055565b0135600019600384901b60f8161c191690553880806127d3565b909260206001819286860135815501940191016127c0565b1561281757565b60405162461bcd60e51b81526020600482015260126024820152714d61726b65743a2073616d6520737461746560701b6044820152606490fd5b919392606083019460098310156113f4576040928452151560208401521515910152565b634e487b7160e01b600052601160045260246000fd5b90670de0b6b3a7640000918281029281840414901517156128a857565b612875565b90620186a0918281029281840414901517156128a857565b818102929181159184041417156128a857565b604d81116128a857600a0a90565b634e487b7160e01b600052601260045260246000fd5b8115612906570490565b6128e6565b919082039182116128a857565b919082018092116128a857565b9091612934601c5480946128c5565b61293d826128d8565b90811561290657048083106129c75782039182116128a85761295e816128d8565b92612968826128d8565b601e5481018091116128a85761297d916128c5565b612986826128d8565b908115612906570483039283116128a85760120391601283116128a8576129bc6129c2916129b6610526956128d8565b906128c5565b9161288b565b6128fc565b50505050600090565b6001600160a01b038116600090815260156020526040812054919392908215612b0b57612a47906129ff613680565b93612a0b841515612cf5565b6020612a1b6106426009546104df565b600c5490612a288a610529565b5460405163442c159960e01b8152968793849283929160048401612d50565b03915afa928315610d8057612ae395612ac0612aa56020612ab1612a928a6129c2612a89612add9c612ac69a8d91612aee575b50601f54620186a090046129b6565b601c54906128c5565b85519097906129b6906001600160801b03165b6001600160801b031690565b9301516001600160801b031690565b906128fc565b818110612ae757612ad7925061290b565b94610529565b54612d68565b9091565b5050612ad7565b612b059150873d8111610d7957610d6a81836114de565b38612a7a565b929350505080918190565b91908260409103126104fc5760208251612b2f816105bc565b92015190565b6040513d6000823e3d90fd5b15612b4857565b60405162461bcd60e51b81526020600482015260146024820152734d61726b65743a20696e76616c6964207261746560601b6044820152606490fd5b600f5460405163d6d7d52560e01b81526020600482018190526010549193926001600160a01b031691849160009190612bbc82611438565b918260248601526001908181169081600014612ccc5750600114612c84575b505050918160008160409503925af18015610d80576000928391612c50575b50908215612c4957612c0d821515612b41565b612c1682601155565b6040518281527f9f9192b5edb17356c524e08d9e025c8e2f6307e6ea52fb7968faa3081f51c3c89080602081015b0390a1565b6011549150565b9050612c7491925060403d8111612c7d575b612c6c81836114de565b810190612b16565b91909138612bfa565b503d612c62565b9190949250601060005284600020946000925b828410612cb35750929450508201604401905081600081612bdb565b8654898501604401529586019588955092810192612c97565b60ff191660448088019190915293151560051b8601909301935084925060009150829050612bdb565b15612cfc57565b60405162461bcd60e51b815260206004820152601e60248201527f4d61726b65743a2065786368616e676552617465206e6f742076616c696400006044820152606490fd5b908160209103126104fc575190565b60409060009294936060820195825260208201520152565b612da46020831592612d7a8415612cf5565b60018060a01b0360095416600c5460405180958194829363442c159960e01b845260048401612d50565b03915afa8015610d8057612dc491600091612dde575b50601f54906128c5565b906129065704620186a0612dda601c54836128c5565b0491565b612df6915060203d8111610d7957610d6a81836114de565b38612dba565b818103929160001380158285131691841216176128a857565b818102929160008212600160ff1b8214166128a85781840514901517156128a857565b919091600083820193841291129080158216911516176128a857565b90612e65612e8391612add84610529565b6001600160a01b039093166000908152601560205260409020909291565b548015612f29578215612f2957828110612f295781811015612f205782612edb612ed6612ee195612ed1612ac095612ec76012549160018060801b038316906128c5565b9060801c906128fc565b61290b565b6128ad565b9261290b565b612f0f60195491612f0a612f01601a5492612efc8487612dfc565b612e15565b620186a0900590565b612e38565b90808212612f1b575090565b905090565b50505060195490565b505050600090565b307f00000000000000000000000000000000000000000000000000000000000000006001600160a01b03161480613022575b15612f8c577f000000000000000000000000000000000000000000000000000000000000000090565b60405160208101907f000000000000000000000000000000000000000000000000000000000000000082527f000000000000000000000000000000000000000000000000000000000000000060408201527f000000000000000000000000000000000000000000000000000000000000000060608201524660808201523060a082015260a0815261301c816114a8565b51902090565b507f00000000000000000000000000000000000000000000000000000000000000004614612f63565b6101009081818051810103126104fc576020810151613069816105bc565b604082015192613078846104eb565b606083015194613087866104eb565b60808401519460a085015160c0860151936130a185610865565b60e08701519601516001600160a01b039283169883169642831061098757613151956131458a8c61095a819961094c61314a998f8f60001461316857600080516020614194833981519152965b6130f7876133ca565b60408051602081019a8b5261ffff909716908701526001600160a01b03978816606087015296909116608085015260a084015260c083019490945260e0820193909352918290610100820190565b6131c9565b161461317d565b1561315f5761182c92613444565b61182c926133f2565b600080516020614214833981519152966130ee565b1561318457565b60405162461bcd60e51b815260206004820152601e60248201527f45524332305065726d69743a20696e76616c6964207369676e617475726500006044820152606490fd5b916105269391610967936132fd565b600511156113f457565b6131eb816131d8565b806131f35750565b6131fc816131d8565b600181036132445760405162461bcd60e51b815260206004820152601860248201527745434453413a20696e76616c6964207369676e617475726560401b6044820152606490fd5b61324d816131d8565b6002810361329a5760405162461bcd60e51b815260206004820152601f60248201527f45434453413a20696e76616c6964207369676e6174757265206c656e677468006044820152606490fd5b806132a66003926131d8565b146132ad57565b60405162461bcd60e51b815260206004820152602260248201527f45434453413a20696e76616c6964207369676e6174757265202773272076616c604482015261756560f01b6064820152608490fd5b9291906fa2a8918ca85bafe22016d0b997e4df60600160ff1b0383116133695791608094939160ff602094604051948552168484015260408301526060820152600093849182805260015afa15610d805781516001600160a01b03811615613363579190565b50600190565b50505050600090600390565b61337d612f31565b9060405190602082019261190160f01b845260228301526042820152604281526080810181811060018060401b038211176114a35760405251902090565b60001981146128a85760010190565b6001600160a01b031660009081526004602052604090208054906133ed826133bb565b905590565b60207fe50de2333c10a9502fcb1d8ae13a51bbf423153dfc63c2b8997665b32154afc39160018060a01b0380911693846000526003835285613438826040600020610543565b556040519586521693a3565b60207f8c5be1e5ebec7d5bd14f71427d1e84f3dd0314c0f7b2291e5b200ac8c7c3b9259160018060a01b0380911693846000526002835285613438826040600020610543565b908160209103126104fc5751610526816104eb565b60235460ff166135f1576012546001600160801b031680156135ea576134c9610642600a546104df565b6040518091631848f2bf60e31b825281600460209384935afa918215610d805760049282916000916135bd575b50604051631a674cc560e11b815293849182906001600160a01b03165afa8015610d805761354392613535926000926135a0575b5050602654906128c5565b670de0b6b3a7640000900490565b8082101561359857612ac061356792612edb613562602754809361290b565b61288b565b61358c6024549161358761353560255492613582848761290b565b6128c5565b612918565b90808211612f1b575090565b505060245490565b6135b69250803d10610d7957610d6a81836114de565b388061352a565b6135dd9150823d84116135e3575b6135d581836114de565b81019061348a565b386134f6565b503d6135cb565b5060255490565b60046020613603610642600a546104df565b60405163e6abad4960e01b815292839182905afa908115610d8057600091613629575090565b610526915060203d8111610d7957610d6a81836114de565b6040519061364e82611488565b6012546001600160801b038116835260801c6020830152565b6001600160801b0391821690821601919082116128a857565b6000602060405161369081611488565b828152015260225460401c6001600160401b03908116428181039392919084116128a857421461370a5761370561358291670de0b6b3a76400006136fa6136d5613641565b9660018060801b03958694858a5116906301e133806136f261349f565b0416906128c5565b041682855116613667565b168252565b509050610526613641565b6040519061372282611488565b6022546001600160401b03808216845260409190911c166020830152565b613748613715565b6020810180516137729061376c906001600160401b03165b6001600160401b031690565b4261290b565b9081156138d3577f7484db546dcd57af0104c73c8a6968dfbaf5767f047cee0dadd0499ad7df81a0926137d86138b3926137ca6137bd6137606137b361349f565b6301e13380900490565b6001600160401b03168452565b426001600160401b03169052565b61386b6138186135356137e9613641565b805190969061358290613804906001600160801b0316612aa5565b86516129b6906001600160401b0316613760565b845190949061384490613837906001600160801b038089169116613667565b6001600160801b03168252565b805160209091015160801b6001600160801b0319166001600160801b039190911617601255565b8051602280546020840151600160401b600160801b0360409190911b166001600160401b039093166001600160801b031990911617919091179055516001600160401b031690565b604080519283526001600160401b03909116602083015281908101612c44565b505050565b156138df57565b60405162461bcd60e51b815260206004820152601860248201527710908e881919589d081c985d195cc81b9bdd081d985b1a5960421b6044820152606490fd5b1561392657565b60405162461bcd60e51b815260206004820152601b60248201527a10908e881b585e081919589d081c985d19481b9bdd081d985b1a59602a1b6044820152606490fd5b9291906004600c546020613981610642600a546104df565b6040516364cfdbb760e11b815293849182905afa908115610d80576139bb92600092610d5057501460ff8019602354169115151617602355565b6139ca610be860235460ff1690565b6139d5575b50505050565b6139fc613a01926139f7613a0696602554151580613a33575b613a0f57602655565b602455565b602555565b602755565b388080806139cf565b613a1a8386106138d8565b613a2e670de0b6b3a764000084111561391f565b602655565b5060245415156139ee565b15613a4557565b60405162461bcd60e51b815260206004820152600c60248201526b21211d103130b2103830b4b960a11b6044820152606490fd5b600a80546001600160a01b0319166001600160a01b038316179055939493929160405163de40657760e01b81526020946001600160a01b039086908390600490829085165afa8015610d805781613af891600494600091613cd0575b5060098054919092166001600160a01b03166001600160a01b0319909116179055565b613b0e613b09610642600a546104df565b61266d565b85613b1d610642600a546104df565b604051631192124760e11b815293849182905afa8015610d8057613b8092600091613cb3575b50818516151580613ca8575b80613c9d575b613b5e90613a3e565b600d8054919092166001600160a01b03166001600160a01b0319909116179055565b600484613b91610642600a546104df565b6040516386c8e21d60e01b815292839182905afa928315610d8057613bca613bf194613bec93613bf698600092613c80575b5050600e55565b600b80546001600160a01b0319166001600160a01b0392909216919091179055565b600c55565b61268f565b613bfe612b84565b5050613c0c62015f90601755565b613c17612710601855565b8015613c7357601c555b8015613c6157601f555b613c366103e8601955565b613c41612710601a55565b613c4c612710601b55565b613c566032601d55565b61182c612ee0601e55565b50613c2b670de0b6b3a7640000601f55565b50613c21620124f8611917565b613c969250803d10610d7957610d6a81836114de565b3880613bc3565b508582161515613b55565b508181161515613b4f565b613cca9150873d89116135e3576135d581836114de565b38613b43565b613ce79150893d8b116135e3576135d581836114de565b38613ad5565b6001600160401b0381116114a35760051b60200190565b90613d0e82613ced565b613d1b60405191826114de565b8281528092613d2c601f1991613ced565b0190602036910137565b90613d4082613ced565b613d4d60405191826114de565b8281528092613d5e601f1991613ced565b019060005b828110613d6f57505050565b806060602080938501015201613d63565b634e487b7160e01b600052603260045260246000fd5b9190811015613dd75760051b81013590601e19813603018212156104fc5701803591906001600160401b0383116104fc5760200182360381136104fc579190565b613d80565b908092918237016000815290565b3d15613e15573d90613dfb82611767565b91613e0960405193846114de565b82523d6000602084013e565b606090565b8051821015613dd75760209160051b010190565b6103e8815111613ee5576044815110613eb2576004810151810190602081602484019303126104fc576024810151906001600160401b0382116104fc5701816043820112156104fc576024810151613e8581611767565b92613e9360405194856114de565b818452604482840101116104fc57610526916044602085019101611501565b50604051613ebf81611488565b60168152754d61726b65743a206e6f2072657475726e206461746160501b602082015290565b50604051613ef281611488565b60178152764d61726b65743a20726561736f6e20746f6f206c6f6e6760481b602082015290565b6001600160a01b03918216815291166020820152604081019190915260600190565b91908260409103126104fc576020825192015190565b908060209392818452848401376000828201840152601f01601f1916010190565b90808352602080930192838260051b850194846000925b858410613f9a575050505050505090565b9091929394959681810384528735601e19843603018112156104fc5783018681019190356001600160401b0381116104fc5780360383136104fc57613fe488928392600195613f51565b990194019401929594939190613f89565b60405162461bcd60e51b815260206004820152600f60248201526e10908e881b9bdd08185b1b1bddd959608a1b6044820152606490fd5b908160209103126104fc5751610526816105bc565b1561404857565b60405162461bcd60e51b815260206004820152600d60248201526c10908e881b9bdd081d985b1a59609a1b6044820152606490fd5b602b546001600160a01b031680156140db57816000929160208493519201905af4906140a7613dea565b91156140af57565b611e116140bb83613e2e565b60405162461bcd60e51b8152602060048201529182916024830190611524565b60405162461bcd60e51b815260206004820152601260248201527110908e881b5bd91d5b19481b9bdd081cd95d60721b6044820152606490fd5b6029546001600160a01b031680156140db57816000929160208493519201905af4906140a7613dea565b6028546001600160a01b031680156140db57816000929160208493519201905af4906140a7613dea565b602a546001600160a01b031680156140db57816000929160208493519201905af4906140a7613dea56fe9cc5629bbe7baa98a89f6f8c2c396b83ab62dbb6cbb12f17f1d6ba7e6f53e266ae6e0ab3b95f0a53ff9660a390ccedcbbf1f2355dce974a9841af106fddcfabac353b09af857951dccce61b43a5854fc45beceed36c50e5d4cc2e71858a8e0df8be0079c531659141344cd1fd0a4f28419497f9722a3daafe3b4186f6b6457e05c9ba5f0d101616843d7918f48ea857d6da95e04ac6d719e105e50a355e7c5d61b6847dc741a1b0cd08d278845f9d819d87b734759afb55fe2de5cb82a9ae672a2646970667358221220b409a372b36fa29973855aa0aef66ee2aea8bebb612bd36a52a670e46d7ecbd764736f6c63430008120033",
  "linkReferences": {},
  "deployedLinkReferences": {}
}