{
  "_format": "hh-sol-artifact-1",
  "contractName": "MarketERC20",
  "sourceName": "contracts/markets/MarketERC20.sol",
  "abi": [
    {
      "inputs": [
        {
          "internalType": "string",
          "name": "name",
          "type": "string"
        }
      ],
      "stateMutability": "nonpayable",
      "type": "constructor"
    },
    {
      "anonymous": false,
      "inputs": [
        {
          "indexed": true,
          "internalType": "address",
          "name": "owner",
          "type": "address"
        },
        {
          "indexed": true,
          "internalType": "address",
          "name": "spender",
          "type": "address"
        },
        {
          "indexed": false,
          "internalType": "uint256",
          "name": "value",
          "type": "uint256"
        }
      ],
      "name": "Approval",
      "type": "event"
    },
    {
      "anonymous": false,
      "inputs": [
        {
          "indexed": true,
          "internalType": "address",
          "name": "owner",
          "type": "address"
        },
        {
          "indexed": true,
          "internalType": "address",
          "name": "spender",
          "type": "address"
        },
        {
          "indexed": false,
          "internalType": "uint256",
          "name": "value",
          "type": "uint256"
        }
      ],
      "name": "ApprovalBorrow",
      "type": "event"
    },
    {
      "anonymous": false,
      "inputs": [
        {
          "indexed": true,
          "internalType": "address",
          "name": "from",
          "type": "address"
        },
        {
          "indexed": true,
          "internalType": "address",
          "name": "to",
          "type": "address"
        },
        {
          "indexed": false,
          "internalType": "uint256",
          "name": "value",
          "type": "uint256"
        }
      ],
      "name": "Transfer",
      "type": "event"
    },
    {
      "inputs": [],
      "name": "DOMAIN_SEPARATOR",
      "outputs": [
        {
          "internalType": "bytes32",
          "name": "",
          "type": "bytes32"
        }
      ],
      "stateMutability": "view",
      "type": "function"
    },
    {
      "inputs": [
        {
          "internalType": "address",
          "name": "",
          "type": "address"
        },
        {
          "internalType": "address",
          "name": "",
          "type": "address"
        }
      ],
      "name": "allowance",
      "outputs": [
        {
          "internalType": "uint256",
          "name": "",
          "type": "uint256"
        }
      ],
      "stateMutability": "view",
      "type": "function"
    },
    {
      "inputs": [
        {
          "internalType": "address",
          "name": "",
          "type": "address"
        },
        {
          "internalType": "address",
          "name": "",
          "type": "address"
        }
      ],
      "name": "allowanceBorrow",
      "outputs": [
        {
          "internalType": "uint256",
          "name": "",
          "type": "uint256"
        }
      ],
      "stateMutability": "view",
      "type": "function"
    },
    {
      "inputs": [
        {
          "internalType": "address",
          "name": "spender",
          "type": "address"
        },
        {
          "internalType": "uint256",
          "name": "amount",
          "type": "uint256"
        }
      ],
      "name": "approve",
      "outputs": [
        {
          "internalType": "bool",
          "name": "",
          "type": "bool"
        }
      ],
      "stateMutability": "nonpayable",
      "type": "function"
    },
    {
      "inputs": [
        {
          "internalType": "address",
          "name": "spender",
          "type": "address"
        },
        {
          "internalType": "uint256",
          "name": "amount",
          "type": "uint256"
        }
      ],
      "name": "approveBorrow",
      "outputs": [
        {
          "internalType": "bool",
          "name": "",
          "type": "bool"
        }
      ],
      "stateMutability": "nonpayable",
      "type": "function"
    },
    {
      "inputs": [
        {
          "internalType": "address",
          "name": "",
          "type": "address"
        }
      ],
      "name": "balanceOf",
      "outputs": [
        {
          "internalType": "uint256",
          "name": "",
          "type": "uint256"
        }
      ],
      "stateMutability": "view",
      "type": "function"
    },
    {
      "inputs": [
        {
          "internalType": "address",
          "name": "owner",
          "type": "address"
        }
      ],
      "name": "nonces",
      "outputs": [
        {
          "internalType": "uint256",
          "name": "",
          "type": "uint256"
        }
      ],
      "stateMutability": "view",
      "type": "function"
    },
    {
      "inputs": [
        {
          "internalType": "address",
          "name": "owner",
          "type": "address"
        },
        {
          "internalType": "address",
          "name": "spender",
          "type": "address"
        },
        {
          "internalType": "uint256",
          "name": "value",
          "type": "uint256"
        },
        {
          "internalType": "uint256",
          "name": "deadline",
          "type": "uint256"
        },
        {
          "internalType": "uint8",
          "name": "v",
          "type": "uint8"
        },
        {
          "internalType": "bytes32",
          "name": "r",
          "type": "bytes32"
        },
        {
          "internalType": "bytes32",
          "name": "s",
          "type": "bytes32"
        }
      ],
      "name": "permit",
      "outputs": [],
      "stateMutability": "nonpayable",
      "type": "function"
    },
    {
      "inputs": [
        {
          "internalType": "bytes",
          "name": "data",
          "type": "bytes"
        },
        {
          "internalType": "uint16",
          "name": "actionType",
          "type": "uint16"
        }
      ],
      "name": "permitAction",
      "outputs": [],
      "stateMutability": "nonpayable",
      "type": "function"
    },
    {
      "inputs": [
        {
          "internalType": "address",
          "name": "owner",
          "type": "address"
        },
        {
          "internalType": "address",
          "name": "spender",
          "type": "address"
        },
        {
          "internalType": "uint256",
          "name": "value",
          "type": "uint256"
        },
        {
          "internalType": "uint256",
          "name": "deadline",
          "type": "uint256"
        },
        {
          "internalType": "uint8",
          "name": "v",
          "type": "uint8"
        },
        {
          "internalType": "bytes32",
          "name": "r",
          "type": "bytes32"
        },
        {
          "internalType": "bytes32",
          "name": "s",
          "type": "bytes32"
        }
      ],
      "name": "permitBorrow",
      "outputs": [],
      "stateMutability": "nonpayable",
      "type": "function"
    },
    {
      "inputs": [],
      "name": "totalSupply",
      "outputs": [
        {
          "internalType": "uint256",
          "name": "",
          "type": "uint256"
        }
      ],
      "stateMutability": "view",
      "type": "function"
    },
    {
      "inputs": [
        {
          "internalType": "address",
          "name": "to",
          "type": "address"
        },
        {
          "internalType": "uint256",
          "name": "amount",
          "type": "uint256"
        }
      ],
      "name": "transfer",
      "outputs": [
        {
          "internalType": "bool",
          "name": "",
          "type": "bool"
        }
      ],
      "stateMutability": "nonpayable",
      "type": "function"
    },
    {
      "inputs": [
        {
          "internalType": "address",
          "name": "from",
          "type": "address"
        },
        {
          "internalType": "address",
          "name": "to",
          "type": "address"
        },
        {
          "internalType": "uint256",
          "name": "amount",
          "type": "uint256"
        }
      ],
      "name": "transferFrom",
      "outputs": [
        {
          "internalType": "bool",
          "name": "",
          "type": "bool"
        }
      ],
      "stateMutability": "nonpayable",
      "type": "function"
    }
  ],
  "bytecode": "0x6101406040908082523461019857611089803803809161001f828561019d565b83398101602080838303126101985782516001600160401b0393848211610198570182601f820112156101985780519084821161016e5785519361006c601f8401601f191685018661019d565b82855283838301011161019857829060005b8381106101845750506000918401015283518481018181108582111761016e57600191839187528281520192603160f81b84528281519101209220908260e052610100948286524660a0528051918201927f8b73c3c69bb8fe3d512ecc4cf759cc79239f7b179b0ffacaa9a75d522b39400f948585528284015260608301524660808301523060a083015260a0825260c08201948286109086111761016e578490525190206080523060c052610120908152610ec892836101c1843960805183610a00015260a05183610aca015260c051836109ca015260e05183610a4f01525182610a7501525181610a2c0152f35b634e487b7160e01b600052604160045260246000fd5b81810183015186820184015284920161007e565b600080fd5b601f909101601f19168101906001600160401b0382119082101761016e5760405256fe608080604052600436101561001357600080fd5b600090813560e01c908162a02a20146108b357508063095ea7b31461088c57806318160ddd146108705780631da8bf10146107e357806323b872dd146106465780633644e5151461062357806370a08231146105ea5780637ecebe00146105b15780637fa0b84e1461057f578063910dd7c81461033d578063a9059cbb1461025a578063d505accf146100fc5763dd62ed3e146100af57600080fd5b346100f95760403660031901126100f95760406020916100cd6108fb565b6100d5610916565b6001600160a01b039182168352600285528383209116825283522054604051908152f35b80fd5b50346100f95761010b3661092c565b908392939594954211610215576101be916101b69161012989610d58565b956040516020810190600080516020610e53833981519152825260018060a01b0397888d16998a6040840152898c1660608401528c608084015260a083015260c082015260c0815261017a8161097b565b5190206101856109c7565b9060405190602082019261190160f01b845260228301526042820152604281526101ae816109ac565b519020610cd3565b919091610bbe565b16036101d0576101cd92610ddb565b80f35b60405162461bcd60e51b815260206004820152601e60248201527f45524332305065726d69743a20696e76616c6964207369676e617475726500006044820152606490fd5b60405162461bcd60e51b815260206004820152601d60248201527f45524332305065726d69743a206578706972656420646561646c696e650000006044820152606490fd5b50346100f95760403660031901126100f9576102746108fb565b6024358092811580159061032b575b6102bb575b50506040519182526001600160a01b0316903390600080516020610e3383398151915290602090a3602060405160018152f35b338152600160205260408120546102d483821015610af0565b6001600160a01b03841690338290036102ef575b5050610288565b60409361030691610301841515610b35565b610b7a565b338352600160205283832055815220610320838254610b9d565b9055813880806102e8565b50336001600160a01b03841614610283565b50346100f95760403660031901126100f9576004356001600160401b03811161057b573660238201121561057b576004810135906001600160401b0382116105675760405190601f8301601f19908116603f011682016001600160401b03811183821017610553579084916040528383526020830193366024828401011161054f57806024602093018637830101526024359161ffff8316830361054b576101008280518101031261054b5751801515810361054b576103ff60408301610baa565b9061040c60608401610baa565b9360808401519360a08101519160c08201519060ff821682036105475761010060e08401519301519380421161021557851561053357600080516020610e538339815191525b6104646001600160a01b038916610d58565b6040805161ffff9590951660208601528401919091526001600160a01b0388811660608501528a16608084015260a0830189905260c083015260e080830191909152815261010081016001600160401b0381118282101761051f57916101b693916104dc9593604052602081519101206101856109c7565b6001600160a01b038381169116036101d05715610509576101cd926001600160a01b039081169116610ddb565b6101cd926001600160a01b039081169116610d84565b634e487b7160e01b8a52604160045260248afd5b600080516020610e73833981519152610452565b8880fd5b8380fd5b8280fd5b634e487b7160e01b85526041600452602485fd5b634e487b7160e01b83526041600452602483fd5b5080fd5b50346100f95760403660031901126100f9576105a661059c6108fb565b6024359033610d84565b602060405160018152f35b50346100f95760203660031901126100f9576020906040906001600160a01b036105d96108fb565b168152600483522054604051908152f35b50346100f95760203660031901126100f9576020906040906001600160a01b036106126108fb565b168152600183522054604051908152f35b50346100f957806003193601126100f957602061063e6109c7565b604051908152f35b50346100f95760603660031901126100f9576106606108fb565b90610669610916565b60443591826106a7575b506040519182526001600160a01b03908116921690600080516020610e3383398151915290602090a3602060405160018152f35b6001600160a01b038481168083526001602090815260408420549286906106d082861015610af0565b8616938484036106e5575b5050505050610673565b83865260028352604080872033885284528620546001810161074f575b509260016020969361072d8794604097610301600080516020610e338339815191529c9a1515610b35565b9285525283832055815220610743858254610b9d565b905591388085816106db565b909181106107a3579260016020969361072d8a600080516020610e338339815191529a98956107808260409a610b7a565b86895260028552898920338a528552898920559497509497995050939650610702565b60405162461bcd60e51b815260048101849052601860248201527745524332303a20616c6c6f77616e636520746f6f206c6f7760401b6044820152606490fd5b50346100f9576107f23661092c565b90839293959495421161021557610861916101b69161081089610d58565b956040516020810190600080516020610e73833981519152825260018060a01b0397888d16998a6040840152898c1660608401528c608084015260a083015260c082015260c0815261017a8161097b565b16036101d0576101cd92610d84565b50346100f957806003193601126100f957602090604051908152f35b50346100f95760403660031901126100f9576105a66108a96108fb565b6024359033610ddb565b90503461057b57604036600319011261057b5760406020926108d36108fb565b6108db610916565b6001600160a01b0391821683526003865283832091168252845220548152f35b600435906001600160a01b038216820361091157565b600080fd5b602435906001600160a01b038216820361091157565b60e0906003190112610911576001600160a01b03906004358281168103610911579160243590811681036109115790604435906064359060843560ff81168103610911579060a4359060c43590565b60e081019081106001600160401b0382111761099657604052565b634e487b7160e01b600052604160045260246000fd5b608081019081106001600160401b0382111761099657604052565b307f00000000000000000000000000000000000000000000000000000000000000006001600160a01b03161480610ac7575b15610a22577f000000000000000000000000000000000000000000000000000000000000000090565b60405160208101907f000000000000000000000000000000000000000000000000000000000000000082527f000000000000000000000000000000000000000000000000000000000000000060408201527f000000000000000000000000000000000000000000000000000000000000000060608201524660808201523060a082015260a0815260c0810181811060018060401b038211176109965760405251902090565b507f000000000000000000000000000000000000000000000000000000000000000046146109f9565b15610af757565b60405162461bcd60e51b815260206004820152601660248201527545524332303a2062616c616e636520746f6f206c6f7760501b6044820152606490fd5b15610b3c57565b60405162461bcd60e51b815260206004820152601660248201527545524332303a206e6f207a65726f206164647265737360501b6044820152606490fd5b91908203918211610b8757565b634e487b7160e01b600052601160045260246000fd5b91908201809211610b8757565b51906001600160a01b038216820361091157565b6005811015610cbd5780610bcf5750565b60018103610c175760405162461bcd60e51b815260206004820152601860248201527745434453413a20696e76616c6964207369676e617475726560401b6044820152606490fd5b60028103610c645760405162461bcd60e51b815260206004820152601f60248201527f45434453413a20696e76616c6964207369676e6174757265206c656e677468006044820152606490fd5b600314610c6d57565b60405162461bcd60e51b815260206004820152602260248201527f45434453413a20696e76616c6964207369676e6174757265202773272076616c604482015261756560f01b6064820152608490fd5b634e487b7160e01b600052602160045260246000fd5b9291906fa2a8918ca85bafe22016d0b997e4df60600160ff1b038311610d4c5791608094939160ff602094604051948552168484015260408301526060820152600093849182805260015afa15610d3f5781516001600160a01b03811615610d39579190565b50600190565b50604051903d90823e3d90fd5b50505050600090600390565b6001600160a01b031660009081526004602052604090208054906000198214610b875760018201905590565b909160207fe50de2333c10a9502fcb1d8ae13a51bbf423153dfc63c2b8997665b32154afc39160018060a01b03809416938460005260038352604060002095169485600052825280604060002055604051908152a3565b909160207f8c5be1e5ebec7d5bd14f71427d1e84f3dd0314c0f7b2291e5b200ac8c7c3b9259160018060a01b03809416938460005260028352604060002095169485600052825280604060002055604051908152a356feddf252ad1be2c89b69c2b068fc378daa952ba7f163c4a11628f55a4df523b3ef6e71edae12b1b97f4d1f60370fef10105fa2faae0126114a169c64845d6126c9e9685ff6d48c617fe4f692c50e602cce27cbad0290beb93cfa77eac43968d58ca26469706673582212204cddc042a58c355cdba0d1b6d5cfa06955e3762f9ddeeb1c668e09e410aa53a164736f6c63430008120033",
  "linkReferences": {},
  "deployedLinkReferences": {}
}