{
  "_format": "hh-sol-artifact-1",
  "contractName": "Origins",
  "sourceName": "contracts/markets/origins/Origins.sol",
  "abi": [
    {
      "inputs": [
        {
          "internalType": "address",
          "name": "_owner",
          "type": "address"
        },
        {
          "internalType": "address",
          "name": "_yieldBox",
          "type": "address"
        },
        {
          "internalType": "contract IERC20",
          "name": "_asset",
          "type": "address"
        },
        {
          "internalType": "uint256",
          "name": "_assetId",
          "type": "uint256"
        },
        {
          "internalType": "contract IERC20",
          "name": "_collateral",
          "type": "address"
        },
        {
          "internalType": "uint256",
          "name": "_collateralId",
          "type": "uint256"
        },
        {
          "internalType": "contract ITapiocaOracle",
          "name": "_oracle",
          "type": "address"
        },
        {
          "internalType": "uint256",
          "name": "_exchangeRatePrecision",
          "type": "uint256"
        },
        {
          "internalType": "uint256",
          "name": "_collateralizationRate",
          "type": "uint256"
        }
      ],
      "stateMutability": "nonpayable",
      "type": "constructor"
    },
    {
      "inputs": [],
      "name": "BadPair",
      "type": "error"
    },
    {
      "inputs": [],
      "name": "BorrowCapReached",
      "type": "error"
    },
    {
      "inputs": [],
      "name": "InvalidShortString",
      "type": "error"
    },
    {
      "inputs": [],
      "name": "NotAuthorized",
      "type": "error"
    },
    {
      "inputs": [],
      "name": "NotValid",
      "type": "error"
    },
    {
      "inputs": [],
      "name": "NothingToRepay",
      "type": "error"
    },
    {
      "inputs": [
        {
          "internalType": "string",
          "name": "str",
          "type": "string"
        }
      ],
      "name": "StringTooLong",
      "type": "error"
    },
    {
      "inputs": [],
      "name": "TransferFailed",
      "type": "error"
    },
    {
      "anonymous": false,
      "inputs": [
        {
          "indexed": true,
          "internalType": "address",
          "name": "owner",
          "type": "address"
        },
        {
          "indexed": true,
          "internalType": "address",
          "name": "spender",
          "type": "address"
        },
        {
          "indexed": false,
          "internalType": "uint256",
          "name": "value",
          "type": "uint256"
        }
      ],
      "name": "Approval",
      "type": "event"
    },
    {
      "anonymous": false,
      "inputs": [
        {
          "indexed": true,
          "internalType": "address",
          "name": "owner",
          "type": "address"
        },
        {
          "indexed": true,
          "internalType": "address",
          "name": "spender",
          "type": "address"
        },
        {
          "indexed": true,
          "internalType": "uint256",
          "name": "value",
          "type": "uint256"
        }
      ],
      "name": "ApprovalBorrow",
      "type": "event"
    },
    {
      "anonymous": false,
      "inputs": [
        {
          "indexed": true,
          "internalType": "address",
          "name": "old",
          "type": "address"
        },
        {
          "indexed": true,
          "internalType": "address",
          "name": "_new",
          "type": "address"
        }
      ],
      "name": "ConservatorUpdated",
      "type": "event"
    },
    {
      "anonymous": false,
      "inputs": [],
      "name": "EIP712DomainChanged",
      "type": "event"
    },
    {
      "anonymous": false,
      "inputs": [
        {
          "indexed": false,
          "internalType": "uint256",
          "name": "_oldVal",
          "type": "uint256"
        },
        {
          "indexed": false,
          "internalType": "uint256",
          "name": "_newVal",
          "type": "uint256"
        }
      ],
      "name": "ExchangeRateDurationUpdated",
      "type": "event"
    },
    {
      "anonymous": false,
      "inputs": [
        {
          "indexed": true,
          "internalType": "address",
          "name": "oldVal",
          "type": "address"
        },
        {
          "indexed": true,
          "internalType": "address",
          "name": "newVal",
          "type": "address"
        }
      ],
      "name": "LeverageExecutorSet",
      "type": "event"
    },
    {
      "anonymous": false,
      "inputs": [
        {
          "indexed": true,
          "internalType": "address",
          "name": "liquidator",
          "type": "address"
        },
        {
          "indexed": true,
          "internalType": "address[]",
          "name": "users",
          "type": "address[]"
        },
        {
          "indexed": true,
          "internalType": "uint256",
          "name": "liquidatorReward",
          "type": "uint256"
        },
        {
          "indexed": false,
          "internalType": "uint256",
          "name": "protocolReward",
          "type": "uint256"
        },
        {
          "indexed": false,
          "internalType": "uint256",
          "name": "repayedAmount",
          "type": "uint256"
        },
        {
          "indexed": false,
          "internalType": "uint256",
          "name": "collateralShareRemoved",
          "type": "uint256"
        }
      ],
      "name": "Liquidated",
      "type": "event"
    },
    {
      "anonymous": false,
      "inputs": [
        {
          "indexed": true,
          "internalType": "uint256",
          "name": "oldVal",
          "type": "uint256"
        },
        {
          "indexed": true,
          "internalType": "uint256",
          "name": "newVal",
          "type": "uint256"
        }
      ],
      "name": "LiquidationMultiplierUpdated",
      "type": "event"
    },
    {
      "anonymous": false,
      "inputs": [
        {
          "indexed": true,
          "internalType": "address",
          "name": "from",
          "type": "address"
        },
        {
          "indexed": true,
          "internalType": "address",
          "name": "to",
          "type": "address"
        },
        {
          "indexed": true,
          "internalType": "uint256",
          "name": "share",
          "type": "uint256"
        }
      ],
      "name": "LogAddCollateral",
      "type": "event"
    },
    {
      "anonymous": false,
      "inputs": [
        {
          "indexed": true,
          "internalType": "address",
          "name": "from",
          "type": "address"
        },
        {
          "indexed": true,
          "internalType": "address",
          "name": "to",
          "type": "address"
        },
        {
          "indexed": true,
          "internalType": "uint256",
          "name": "amount",
          "type": "uint256"
        },
        {
          "indexed": false,
          "internalType": "uint256",
          "name": "part",
          "type": "uint256"
        }
      ],
      "name": "LogBorrow",
      "type": "event"
    },
    {
      "anonymous": false,
      "inputs": [
        {
          "indexed": true,
          "internalType": "uint256",
          "name": "_oldVal",
          "type": "uint256"
        },
        {
          "indexed": true,
          "internalType": "uint256",
          "name": "_newVal",
          "type": "uint256"
        }
      ],
      "name": "LogBorrowCapUpdated",
      "type": "event"
    },
    {
      "anonymous": false,
      "inputs": [
        {
          "indexed": true,
          "internalType": "uint256",
          "name": "rate",
          "type": "uint256"
        }
      ],
      "name": "LogExchangeRate",
      "type": "event"
    },
    {
      "anonymous": false,
      "inputs": [
        {
          "indexed": true,
          "internalType": "address",
          "name": "from",
          "type": "address"
        },
        {
          "indexed": true,
          "internalType": "address",
          "name": "to",
          "type": "address"
        },
        {
          "indexed": true,
          "internalType": "uint256",
          "name": "share",
          "type": "uint256"
        }
      ],
      "name": "LogRemoveCollateral",
      "type": "event"
    },
    {
      "anonymous": false,
      "inputs": [
        {
          "indexed": true,
          "internalType": "address",
          "name": "from",
          "type": "address"
        },
        {
          "indexed": true,
          "internalType": "address",
          "name": "to",
          "type": "address"
        },
        {
          "indexed": true,
          "internalType": "uint256",
          "name": "amount",
          "type": "uint256"
        },
        {
          "indexed": false,
          "internalType": "uint256",
          "name": "part",
          "type": "uint256"
        }
      ],
      "name": "LogRepay",
      "type": "event"
    },
    {
      "anonymous": false,
      "inputs": [],
      "name": "OracleDataUpdated",
      "type": "event"
    },
    {
      "anonymous": false,
      "inputs": [
        {
          "indexed": false,
          "internalType": "address",
          "name": "newAddr",
          "type": "address"
        }
      ],
      "name": "OracleUpdated",
      "type": "event"
    },
    {
      "anonymous": false,
      "inputs": [
        {
          "indexed": true,
          "internalType": "address",
          "name": "previousOwner",
          "type": "address"
        },
        {
          "indexed": true,
          "internalType": "address",
          "name": "newOwner",
          "type": "address"
        }
      ],
      "name": "OwnershipTransferred",
      "type": "event"
    },
    {
      "anonymous": false,
      "inputs": [
        {
          "indexed": true,
          "internalType": "enum Market.PauseType",
          "name": "_type",
          "type": "uint8"
        },
        {
          "indexed": true,
          "internalType": "bool",
          "name": "oldState",
          "type": "bool"
        },
        {
          "indexed": true,
          "internalType": "bool",
          "name": "newState",
          "type": "bool"
        }
      ],
      "name": "PausedUpdated",
      "type": "event"
    },
    {
      "anonymous": false,
      "inputs": [
        {
          "indexed": true,
          "internalType": "address",
          "name": "from",
          "type": "address"
        },
        {
          "indexed": true,
          "internalType": "address",
          "name": "to",
          "type": "address"
        },
        {
          "indexed": false,
          "internalType": "uint256",
          "name": "value",
          "type": "uint256"
        }
      ],
      "name": "Transfer",
      "type": "event"
    },
    {
      "anonymous": false,
      "inputs": [
        {
          "indexed": true,
          "internalType": "uint256",
          "name": "valType",
          "type": "uint256"
        },
        {
          "indexed": true,
          "internalType": "uint256",
          "name": "_newVal",
          "type": "uint256"
        }
      ],
      "name": "ValueUpdated",
      "type": "event"
    },
    {
      "inputs": [],
      "name": "DOMAIN_SEPARATOR",
      "outputs": [
        {
          "internalType": "bytes32",
          "name": "",
          "type": "bytes32"
        }
      ],
      "stateMutability": "view",
      "type": "function"
    },
    {
      "inputs": [
        {
          "internalType": "uint256",
          "name": "amount",
          "type": "uint256"
        },
        {
          "internalType": "uint256",
          "name": "share",
          "type": "uint256"
        }
      ],
      "name": "addCollateral",
      "outputs": [],
      "stateMutability": "nonpayable",
      "type": "function"
    },
    {
      "inputs": [
        {
          "internalType": "address",
          "name": "",
          "type": "address"
        },
        {
          "internalType": "address",
          "name": "",
          "type": "address"
        }
      ],
      "name": "allowance",
      "outputs": [
        {
          "internalType": "uint256",
          "name": "",
          "type": "uint256"
        }
      ],
      "stateMutability": "view",
      "type": "function"
    },
    {
      "inputs": [
        {
          "internalType": "address",
          "name": "",
          "type": "address"
        },
        {
          "internalType": "address",
          "name": "",
          "type": "address"
        }
      ],
      "name": "allowanceBorrow",
      "outputs": [
        {
          "internalType": "uint256",
          "name": "",
          "type": "uint256"
        }
      ],
      "stateMutability": "view",
      "type": "function"
    },
    {
      "inputs": [
        {
          "internalType": "address",
          "name": "spender",
          "type": "address"
        },
        {
          "internalType": "uint256",
          "name": "amount",
          "type": "uint256"
        }
      ],
      "name": "approve",
      "outputs": [
        {
          "internalType": "bool",
          "name": "",
          "type": "bool"
        }
      ],
      "stateMutability": "nonpayable",
      "type": "function"
    },
    {
      "inputs": [
        {
          "internalType": "address",
          "name": "spender",
          "type": "address"
        },
        {
          "internalType": "uint256",
          "name": "amount",
          "type": "uint256"
        }
      ],
      "name": "approveBorrow",
      "outputs": [
        {
          "internalType": "bool",
          "name": "",
          "type": "bool"
        }
      ],
      "stateMutability": "nonpayable",
      "type": "function"
    },
    {
      "inputs": [],
      "name": "asset",
      "outputs": [
        {
          "internalType": "contract IERC20",
          "name": "",
          "type": "address"
        }
      ],
      "stateMutability": "view",
      "type": "function"
    },
    {
      "inputs": [],
      "name": "assetId",
      "outputs": [
        {
          "internalType": "uint256",
          "name": "",
          "type": "uint256"
        }
      ],
      "stateMutability": "view",
      "type": "function"
    },
    {
      "inputs": [
        {
          "internalType": "address",
          "name": "",
          "type": "address"
        }
      ],
      "name": "balanceOf",
      "outputs": [
        {
          "internalType": "uint256",
          "name": "",
          "type": "uint256"
        }
      ],
      "stateMutability": "view",
      "type": "function"
    },
    {
      "inputs": [
        {
          "internalType": "uint256",
          "name": "amount",
          "type": "uint256"
        }
      ],
      "name": "borrow",
      "outputs": [
        {
          "internalType": "uint256",
          "name": "part",
          "type": "uint256"
        },
        {
          "internalType": "uint256",
          "name": "share",
          "type": "uint256"
        }
      ],
      "stateMutability": "nonpayable",
      "type": "function"
    },
    {
      "inputs": [],
      "name": "callerFee",
      "outputs": [
        {
          "internalType": "uint256",
          "name": "",
          "type": "uint256"
        }
      ],
      "stateMutability": "view",
      "type": "function"
    },
    {
      "inputs": [],
      "name": "claimOwnership",
      "outputs": [],
      "stateMutability": "nonpayable",
      "type": "function"
    },
    {
      "inputs": [],
      "name": "collateral",
      "outputs": [
        {
          "internalType": "contract IERC20",
          "name": "",
          "type": "address"
        }
      ],
      "stateMutability": "view",
      "type": "function"
    },
    {
      "inputs": [],
      "name": "collateralId",
      "outputs": [
        {
          "internalType": "uint256",
          "name": "",
          "type": "uint256"
        }
      ],
      "stateMutability": "view",
      "type": "function"
    },
    {
      "inputs": [],
      "name": "collateralizationRate",
      "outputs": [
        {
          "internalType": "uint256",
          "name": "",
          "type": "uint256"
        }
      ],
      "stateMutability": "view",
      "type": "function"
    },
    {
      "inputs": [
        {
          "internalType": "uint256",
          "name": "borrowPart",
          "type": "uint256"
        },
        {
          "internalType": "uint256",
          "name": "collateralPartInAsset",
          "type": "uint256"
        },
        {
          "internalType": "uint256",
          "name": "ratesPrecision",
          "type": "uint256"
        }
      ],
      "name": "computeClosingFactor",
      "outputs": [
        {
          "internalType": "uint256",
          "name": "",
          "type": "uint256"
        }
      ],
      "stateMutability": "view",
      "type": "function"
    },
    {
      "inputs": [
        {
          "internalType": "address",
          "name": "user",
          "type": "address"
        },
        {
          "internalType": "uint256",
          "name": "_exchangeRate",
          "type": "uint256"
        }
      ],
      "name": "computeLiquidatorReward",
      "outputs": [
        {
          "internalType": "uint256",
          "name": "",
          "type": "uint256"
        }
      ],
      "stateMutability": "view",
      "type": "function"
    },
    {
      "inputs": [
        {
          "internalType": "address",
          "name": "user",
          "type": "address"
        },
        {
          "internalType": "uint256",
          "name": "_exchangeRate",
          "type": "uint256"
        }
      ],
      "name": "computeTVLInfo",
      "outputs": [
        {
          "internalType": "uint256",
          "name": "amountToSolvency",
          "type": "uint256"
        },
        {
          "internalType": "uint256",
          "name": "minTVL",
          "type": "uint256"
        },
        {
          "internalType": "uint256",
          "name": "maxTVL",
          "type": "uint256"
        }
      ],
      "stateMutability": "view",
      "type": "function"
    },
    {
      "inputs": [],
      "name": "conservator",
      "outputs": [
        {
          "internalType": "address",
          "name": "",
          "type": "address"
        }
      ],
      "stateMutability": "view",
      "type": "function"
    },
    {
      "inputs": [],
      "name": "eip712Domain",
      "outputs": [
        {
          "internalType": "bytes1",
          "name": "fields",
          "type": "bytes1"
        },
        {
          "internalType": "string",
          "name": "name",
          "type": "string"
        },
        {
          "internalType": "string",
          "name": "version",
          "type": "string"
        },
        {
          "internalType": "uint256",
          "name": "chainId",
          "type": "uint256"
        },
        {
          "internalType": "address",
          "name": "verifyingContract",
          "type": "address"
        },
        {
          "internalType": "bytes32",
          "name": "salt",
          "type": "bytes32"
        },
        {
          "internalType": "uint256[]",
          "name": "extensions",
          "type": "uint256[]"
        }
      ],
      "stateMutability": "view",
      "type": "function"
    },
    {
      "inputs": [],
      "name": "exchangeRate",
      "outputs": [
        {
          "internalType": "uint256",
          "name": "",
          "type": "uint256"
        }
      ],
      "stateMutability": "view",
      "type": "function"
    },
    {
      "inputs": [],
      "name": "leverageExecutor",
      "outputs": [
        {
          "internalType": "contract ILeverageExecutor",
          "name": "",
          "type": "address"
        }
      ],
      "stateMutability": "view",
      "type": "function"
    },
    {
      "inputs": [],
      "name": "liquidationBonusAmount",
      "outputs": [
        {
          "internalType": "uint256",
          "name": "",
          "type": "uint256"
        }
      ],
      "stateMutability": "view",
      "type": "function"
    },
    {
      "inputs": [],
      "name": "liquidationCollateralizationRate",
      "outputs": [
        {
          "internalType": "uint256",
          "name": "",
          "type": "uint256"
        }
      ],
      "stateMutability": "view",
      "type": "function"
    },
    {
      "inputs": [],
      "name": "liquidationMultiplier",
      "outputs": [
        {
          "internalType": "uint256",
          "name": "",
          "type": "uint256"
        }
      ],
      "stateMutability": "view",
      "type": "function"
    },
    {
      "inputs": [],
      "name": "maxLiquidatorReward",
      "outputs": [
        {
          "internalType": "uint256",
          "name": "",
          "type": "uint256"
        }
      ],
      "stateMutability": "view",
      "type": "function"
    },
    {
      "inputs": [],
      "name": "minLiquidatorReward",
      "outputs": [
        {
          "internalType": "uint256",
          "name": "",
          "type": "uint256"
        }
      ],
      "stateMutability": "view",
      "type": "function"
    },
    {
      "inputs": [
        {
          "internalType": "address",
          "name": "owner",
          "type": "address"
        }
      ],
      "name": "nonces",
      "outputs": [
        {
          "internalType": "uint256",
          "name": "",
          "type": "uint256"
        }
      ],
      "stateMutability": "view",
      "type": "function"
    },
    {
      "inputs": [],
      "name": "oracle",
      "outputs": [
        {
          "internalType": "contract ITapiocaOracle",
          "name": "",
          "type": "address"
        }
      ],
      "stateMutability": "view",
      "type": "function"
    },
    {
      "inputs": [],
      "name": "oracleData",
      "outputs": [
        {
          "internalType": "bytes",
          "name": "",
          "type": "bytes"
        }
      ],
      "stateMutability": "view",
      "type": "function"
    },
    {
      "inputs": [],
      "name": "owner",
      "outputs": [
        {
          "internalType": "address",
          "name": "",
          "type": "address"
        }
      ],
      "stateMutability": "view",
      "type": "function"
    },
    {
      "inputs": [
        {
          "internalType": "enum Market.PauseType",
          "name": "pauseProp",
          "type": "uint8"
        }
      ],
      "name": "pauseOptions",
      "outputs": [
        {
          "internalType": "bool",
          "name": "pauseStatus",
          "type": "bool"
        }
      ],
      "stateMutability": "view",
      "type": "function"
    },
    {
      "inputs": [],
      "name": "pendingOwner",
      "outputs": [
        {
          "internalType": "address",
          "name": "",
          "type": "address"
        }
      ],
      "stateMutability": "view",
      "type": "function"
    },
    {
      "inputs": [],
      "name": "penrose",
      "outputs": [
        {
          "internalType": "contract IPenrose",
          "name": "",
          "type": "address"
        }
      ],
      "stateMutability": "view",
      "type": "function"
    },
    {
      "inputs": [
        {
          "internalType": "address",
          "name": "owner",
          "type": "address"
        },
        {
          "internalType": "address",
          "name": "spender",
          "type": "address"
        },
        {
          "internalType": "uint256",
          "name": "value",
          "type": "uint256"
        },
        {
          "internalType": "uint256",
          "name": "deadline",
          "type": "uint256"
        },
        {
          "internalType": "uint8",
          "name": "v",
          "type": "uint8"
        },
        {
          "internalType": "bytes32",
          "name": "r",
          "type": "bytes32"
        },
        {
          "internalType": "bytes32",
          "name": "s",
          "type": "bytes32"
        }
      ],
      "name": "permit",
      "outputs": [],
      "stateMutability": "nonpayable",
      "type": "function"
    },
    {
      "inputs": [
        {
          "internalType": "bytes",
          "name": "data",
          "type": "bytes"
        },
        {
          "internalType": "uint16",
          "name": "actionType",
          "type": "uint16"
        }
      ],
      "name": "permitAction",
      "outputs": [],
      "stateMutability": "nonpayable",
      "type": "function"
    },
    {
      "inputs": [
        {
          "internalType": "address",
          "name": "owner",
          "type": "address"
        },
        {
          "internalType": "address",
          "name": "spender",
          "type": "address"
        },
        {
          "internalType": "uint256",
          "name": "value",
          "type": "uint256"
        },
        {
          "internalType": "uint256",
          "name": "deadline",
          "type": "uint256"
        },
        {
          "internalType": "uint8",
          "name": "v",
          "type": "uint8"
        },
        {
          "internalType": "bytes32",
          "name": "r",
          "type": "bytes32"
        },
        {
          "internalType": "bytes32",
          "name": "s",
          "type": "bytes32"
        }
      ],
      "name": "permitBorrow",
      "outputs": [],
      "stateMutability": "nonpayable",
      "type": "function"
    },
    {
      "inputs": [],
      "name": "protocolFee",
      "outputs": [
        {
          "internalType": "uint256",
          "name": "",
          "type": "uint256"
        }
      ],
      "stateMutability": "view",
      "type": "function"
    },
    {
      "inputs": [],
      "name": "rateTimestamp",
      "outputs": [
        {
          "internalType": "uint256",
          "name": "",
          "type": "uint256"
        }
      ],
      "stateMutability": "view",
      "type": "function"
    },
    {
      "inputs": [],
      "name": "rateValidDuration",
      "outputs": [
        {
          "internalType": "uint256",
          "name": "",
          "type": "uint256"
        }
      ],
      "stateMutability": "view",
      "type": "function"
    },
    {
      "inputs": [
        {
          "internalType": "uint256",
          "name": "share",
          "type": "uint256"
        }
      ],
      "name": "removeCollateral",
      "outputs": [],
      "stateMutability": "nonpayable",
      "type": "function"
    },
    {
      "inputs": [
        {
          "internalType": "uint256",
          "name": "part",
          "type": "uint256"
        }
      ],
      "name": "repay",
      "outputs": [
        {
          "internalType": "uint256",
          "name": "amount",
          "type": "uint256"
        }
      ],
      "stateMutability": "nonpayable",
      "type": "function"
    },
    {
      "inputs": [
        {
          "internalType": "uint256",
          "name": "amount",
          "type": "uint256"
        },
        {
          "internalType": "address",
          "name": "to",
          "type": "address"
        }
      ],
      "name": "rescueEth",
      "outputs": [],
      "stateMutability": "nonpayable",
      "type": "function"
    },
    {
      "inputs": [
        {
          "internalType": "contract ILeverageExecutor",
          "name": "_executor",
          "type": "address"
        }
      ],
      "name": "setLeverageExecutor",
      "outputs": [],
      "stateMutability": "nonpayable",
      "type": "function"
    },
    {
      "inputs": [
        {
          "internalType": "contract ITapiocaOracle",
          "name": "_oracle",
          "type": "address"
        },
        {
          "internalType": "bytes",
          "name": "_oracleData",
          "type": "bytes"
        },
        {
          "internalType": "address",
          "name": "_conservator",
          "type": "address"
        },
        {
          "internalType": "uint256",
          "name": "_callerFee",
          "type": "uint256"
        },
        {
          "internalType": "uint256",
          "name": "_protocolFee",
          "type": "uint256"
        },
        {
          "internalType": "uint256",
          "name": "_liquidationBonusAmount",
          "type": "uint256"
        },
        {
          "internalType": "uint256",
          "name": "_minLiquidatorReward",
          "type": "uint256"
        },
        {
          "internalType": "uint256",
          "name": "_maxLiquidatorReward",
          "type": "uint256"
        },
        {
          "internalType": "uint256",
          "name": "_totalBorrowCap",
          "type": "uint256"
        },
        {
          "internalType": "uint256",
          "name": "_collateralizationRate",
          "type": "uint256"
        },
        {
          "internalType": "uint256",
          "name": "_liquidationCollateralizationRate",
          "type": "uint256"
        }
      ],
      "name": "setMarketConfig",
      "outputs": [],
      "stateMutability": "nonpayable",
      "type": "function"
    },
    {
      "inputs": [],
      "name": "totalBorrow",
      "outputs": [
        {
          "internalType": "uint128",
          "name": "elastic",
          "type": "uint128"
        },
        {
          "internalType": "uint128",
          "name": "base",
          "type": "uint128"
        }
      ],
      "stateMutability": "view",
      "type": "function"
    },
    {
      "inputs": [],
      "name": "totalBorrowCap",
      "outputs": [
        {
          "internalType": "uint256",
          "name": "",
          "type": "uint256"
        }
      ],
      "stateMutability": "view",
      "type": "function"
    },
    {
      "inputs": [],
      "name": "totalCollateralShare",
      "outputs": [
        {
          "internalType": "uint256",
          "name": "",
          "type": "uint256"
        }
      ],
      "stateMutability": "view",
      "type": "function"
    },
    {
      "inputs": [],
      "name": "totalSupply",
      "outputs": [
        {
          "internalType": "uint256",
          "name": "",
          "type": "uint256"
        }
      ],
      "stateMutability": "view",
      "type": "function"
    },
    {
      "inputs": [
        {
          "internalType": "address",
          "name": "to",
          "type": "address"
        },
        {
          "internalType": "uint256",
          "name": "amount",
          "type": "uint256"
        }
      ],
      "name": "transfer",
      "outputs": [
        {
          "internalType": "bool",
          "name": "",
          "type": "bool"
        }
      ],
      "stateMutability": "nonpayable",
      "type": "function"
    },
    {
      "inputs": [
        {
          "internalType": "address",
          "name": "from",
          "type": "address"
        },
        {
          "internalType": "address",
          "name": "to",
          "type": "address"
        },
        {
          "internalType": "uint256",
          "name": "amount",
          "type": "uint256"
        }
      ],
      "name": "transferFrom",
      "outputs": [
        {
          "internalType": "bool",
          "name": "",
          "type": "bool"
        }
      ],
      "stateMutability": "nonpayable",
      "type": "function"
    },
    {
      "inputs": [
        {
          "internalType": "address",
          "name": "newOwner",
          "type": "address"
        },
        {
          "internalType": "bool",
          "name": "direct",
          "type": "bool"
        },
        {
          "internalType": "bool",
          "name": "renounce",
          "type": "bool"
        }
      ],
      "name": "transferOwnership",
      "outputs": [],
      "stateMutability": "nonpayable",
      "type": "function"
    },
    {
      "inputs": [],
      "name": "updateExchangeRate",
      "outputs": [
        {
          "internalType": "bool",
          "name": "updated",
          "type": "bool"
        },
        {
          "internalType": "uint256",
          "name": "rate",
          "type": "uint256"
        }
      ],
      "stateMutability": "nonpayable",
      "type": "function"
    },
    {
      "inputs": [
        {
          "internalType": "enum Market.PauseType",
          "name": "_type",
          "type": "uint8"
        },
        {
          "internalType": "bool",
          "name": "val",
          "type": "bool"
        }
      ],
      "name": "updatePause",
      "outputs": [],
      "stateMutability": "nonpayable",
      "type": "function"
    },
    {
      "inputs": [
        {
          "internalType": "bool",
          "name": "val",
          "type": "bool"
        }
      ],
      "name": "updatePauseAll",
      "outputs": [],
      "stateMutability": "nonpayable",
      "type": "function"
    },
    {
      "inputs": [
        {
          "internalType": "address",
          "name": "",
          "type": "address"
        }
      ],
      "name": "userBorrowPart",
      "outputs": [
        {
          "internalType": "uint256",
          "name": "",
          "type": "uint256"
        }
      ],
      "stateMutability": "view",
      "type": "function"
    },
    {
      "inputs": [
        {
          "internalType": "address",
          "name": "",
          "type": "address"
        }
      ],
      "name": "userCollateralShare",
      "outputs": [
        {
          "internalType": "uint256",
          "name": "",
          "type": "uint256"
        }
      ],
      "stateMutability": "view",
      "type": "function"
    },
    {
      "inputs": [],
      "name": "yieldBox",
      "outputs": [
        {
          "internalType": "contract IYieldBox",
          "name": "",
          "type": "address"
        }
      ],
      "stateMutability": "view",
      "type": "function"
    },
    {
      "stateMutability": "payable",
      "type": "receive"
    }
  ],
  "bytecode": "0x61016060405262013880601d5562015f90601e55612710601f55612ee06022553480156200002c57600080fd5b5060405162005b7d38038062005b7d8339810160408190526200004f9162000525565b60408051808201825260078152664f726967696e7360c81b602080830191909152825180840190935260018352603160f81b90830152908190620000958260006200030e565b61012052620000a68160016200030e565b61014052815160208084019190912060e052815190820120610100524660a0526200013460e05161010051604080517f8b73c3c69bb8fe3d512ecc4cf759cc79239f7b179b0ffacaa9a75d522b39400f60208201529081019290925260608201524660808201523060a082015260009060c00160405160208183030381529060405280519060200120905090565b60805250503060c05250600780546001600160a01b031916339081179091556040516000907f8be0079c531659141344cd1fd0a4f28419497f9722a3daafe3b4186f6b6457e0908290a360016026819055600780546001600160a01b03199081166001600160a01b038d81169182179093556000908152602760205260409020805460ff1916909317909255600b80549092168a8216179091558516620001ee576040516316d2b9ed60e11b815260040160405180910390fd5b6001600160a01b03871662000216576040516316d2b9ed60e11b815260040160405180910390fd5b6001600160a01b0383166200023e576040516316d2b9ed60e11b815260040160405180910390fd5b620186a0811115620002635760405163f1640ae160e01b815260040160405180910390fd5b600f80546001600160a01b03808a166001600160a01b0319928316179092556010889055600d8054888416908316179055600e8690556011805492861692909116919091179055620002b462000347565b505060008211620002ce57670de0b6b3a7640000620002d0565b815b6024556020555050620151806014555050600754600a80546001600160a01b0319166001600160a01b0390921691909117905550620008a492505050565b60006020835110156200032e576200032683620004c9565b905062000341565b816200033b848262000673565b5060ff90505b92915050565b60115460405163d6d7d52560e01b815260009182916001600160a01b039091169063d6d7d525906200037f906012906004016200073f565b60408051808303816000875af11580156200039e573d6000803e3d6000fd5b505050506040513d601f19601f82011682018060405250810190620003c49190620007d7565b909250905081156200045e5780600003620004265760405162461bcd60e51b815260206004820152601460248201527f4d61726b65743a20696e76616c6964207261746500000000000000000000000060448201526064015b60405180910390fd5b60138190554260155560405181907f9f9192b5edb17356c524e08d9e025c8e2f6307e6ea52fb7968faa3081f51c3c890600090a29091565b426014546015546200047191906200080c565b1015620004c15760405162461bcd60e51b815260206004820152601460248201527f4d61726b65743a207261746520746f6f206f6c6400000000000000000000000060448201526064016200041d565b506013549091565b600080829050601f81511115620004f7578260405163305a27a960e01b81526004016200041d91906200082e565b805162000504826200087f565b179392505050565b6001600160a01b03811681146200052257600080fd5b50565b60008060008060008060008060006101208a8c0312156200054557600080fd5b895162000552816200050c565b60208b015190995062000565816200050c565b60408b015190985062000578816200050c565b60608b015160808c0151919850965062000592816200050c565b60a08b015160c08c01519196509450620005ac816200050c565b8093505060e08a015191506101008a015190509295985092959850929598565b634e487b7160e01b600052604160045260246000fd5b600181811c90821680620005f757607f821691505b6020821081036200061857634e487b7160e01b600052602260045260246000fd5b50919050565b601f8211156200066e576000816000526020600020601f850160051c81016020861015620006495750805b601f850160051c820191505b818110156200066a5782815560010162000655565b5050505b505050565b81516001600160401b038111156200068f576200068f620005cc565b620006a781620006a08454620005e2565b846200061e565b602080601f831160018114620006df5760008415620006c65750858301515b600019600386901b1c1916600185901b1785556200066a565b600085815260208120601f198616915b828110156200071057888601518255948401946001909101908401620006ef565b50858210156200072f5787850151600019600388901b60f8161c191681555b5050505050600190811b01905550565b60006020808352600084546200075581620005e2565b80602087015260406001808416600081146200077a57600181146200079757620007c9565b60ff19851660408a0152604084151560051b8a01019550620007c9565b89600052602060002060005b85811015620007c05781548b8201860152908301908801620007a3565b8a016040019650505b509398975050505050505050565b60008060408385031215620007eb57600080fd5b82518015158114620007fc57600080fd5b6020939093015192949293505050565b808201808211156200034157634e487b7160e01b600052601160045260246000fd5b60006020808352835180602085015260005b818110156200085e5785810183015185820160400152820162000840565b506000604082860101526040601f19601f8301168501019250505092915050565b80516020808301519190811015620006185760001960209190910360031b1b16919050565b60805160a05160c05160e05161010051610120516101405161527e620008ff6000396000611bd701526000611bad015260006131520152600061312a01526000613085015260006130af015260006130d9015261527e6000f3fe6080604052600436106103845760003560e01c806374645ff3116101d1578063b25ea8fb11610102578063da863f0e116100a0578063e30c39781161006f578063e30c397814610af6578063ea64dd5614610b16578063eec0f42e14610b2c578063ef2b234a14610b4257600080fd5b8063da863f0e14610a68578063dd62ed3e14610a88578063de40657714610ac0578063e0996cb614610ae057600080fd5b8063ce8849ed116100dc578063ce8849ed146109e8578063d3fb2a3814610a08578063d505accf14610a28578063d8dfeb4514610a4857600080fd5b8063b25ea8fb1461097d578063bb4cfe3b1461099d578063c5ebeaec146109b357600080fd5b80638da5cb5b1161016f5780639e15e89f116101495780639e15e89f146108ec578063a8f35adf14610927578063a9059cbb14610947578063b0e21e8a1461096757600080fd5b80638da5cb5b1461088c578063910dd7c8146108ac57806399a97028146108cc57600080fd5b80637fa0b84e116101ab5780637fa0b84e146107c45780638285ef40146107e457806384b0196e1461084e5780638c5d0ed31461087657600080fd5b806374645ff31461074c5780637dc0d1d01461076e5780637ecebe001461078e57600080fd5b8063371fd8e6116102b6578063473e3ce711610254578063579354621161022357806357935462146106b95780636c3d8b8f146106cf57806370a08231146106ef578063727785471461071c57600080fd5b8063473e3ce71461064b57806348e4163e146106615780634e71e0c81461068e578063529898f2146106a357600080fd5b80633ba0b9a9116102905780633ba0b9a9146105e95780633f741adb146105ff57806340626d8b1461061f57806344de240a1461063557600080fd5b8063371fd8e61461057b57806337b6b7b91461059b57806338d52e0f146105b157600080fd5b80631c9e379b116103235780633237c158116102fd5780633237c1581461051a578063331960ff1461053a57806334d441d0146105505780633644e5151461056657600080fd5b80631c9e379b146104ad5780631da8bf10146104da57806323b872dd146104fa57600080fd5b8063095ea7b31161035f578063095ea7b31461042957806309d04038146104595780630c4e84f01461047957806318160ddd1461049957600080fd5b8062a02a201461039057806302ce728f146103db578063078dfbe71461040757600080fd5b3661038b57005b600080fd5b34801561039c57600080fd5b506103c86103ab366004614622565b600560209081526000928352604080842090915290825290205481565b6040519081526020015b60405180910390f35b3480156103e757600080fd5b506103f0610b62565b6040805192151583526020830191909152016103d2565b34801561041357600080fd5b50610427610422366004614669565b610cf2565b005b34801561043557600080fd5b506104496104443660046146b4565b610e69565b60405190151581526020016103d2565b34801561046557600080fd5b506104276104743660046146e0565b610e80565b34801561048557600080fd5b5061042761049436600461470c565b61129d565b3480156104a557600080fd5b5060006103c8565b3480156104b957600080fd5b506103c86104c8366004614738565b601a6020526000908152604090205481565b3480156104e657600080fd5b506104276104f5366004614764565b611468565b34801561050657600080fd5b506104496105153660046147d5565b611483565b34801561052657600080fd5b50610427610535366004614816565b6116b0565b34801561054657600080fd5b506103c860155481565b34801561055c57600080fd5b506103c8601b5481565b34801561057257600080fd5b506103c86117ee565b34801561058757600080fd5b506103c8610596366004614816565b6117fd565b3480156105a757600080fd5b506103c860145481565b3480156105bd57600080fd5b50600f546105d1906001600160a01b031681565b6040516001600160a01b0390911681526020016103d2565b3480156105f557600080fd5b506103c860135481565b34801561060b57600080fd5b506103c861061a36600461482f565b6118dc565b34801561062b57600080fd5b506103c860185481565b34801561064157600080fd5b506103c860105481565b34801561065757600080fd5b506103c860175481565b34801561066d57600080fd5b506103c861067c366004614738565b60196020526000908152604090205481565b34801561069a57600080fd5b50610427611a2e565b3480156106af57600080fd5b506103c860225481565b3480156106c557600080fd5b506103c8601e5481565b3480156106db57600080fd5b50600c546105d1906001600160a01b031681565b3480156106fb57600080fd5b506103c861070a366004614738565b60036020526000908152604090205481565b34801561072857600080fd5b5061044961073736600461485b565b60096020526000908152604090205460ff1681565b34801561075857600080fd5b50610761611b04565b6040516103d291906148c6565b34801561077a57600080fd5b506011546105d1906001600160a01b031681565b34801561079a57600080fd5b506103c86107a9366004614738565b6001600160a01b031660009081526006602052604090205490565b3480156107d057600080fd5b506104496107df3660046146b4565b611b92565b3480156107f057600080fd5b50601654610825906fffffffffffffffffffffffffffffffff8082169170010000000000000000000000000000000090041682565b604080516fffffffffffffffffffffffffffffffff9384168152929091166020830152016103d2565b34801561085a57600080fd5b50610863611b9f565b6040516103d297969594939291906148d9565b34801561088257600080fd5b506103c8601d5481565b34801561089857600080fd5b506007546105d1906001600160a01b031681565b3480156108b857600080fd5b506104276108c73660046149cf565b611c43565b3480156108d857600080fd5b506103c86108e73660046146b4565b611c90565b3480156108f857600080fd5b5061090c6109073660046146b4565b611c9c565b604080519384526020840192909252908201526060016103d2565b34801561093357600080fd5b50610427610942366004614a91565b611d9c565b34801561095357600080fd5b506104496109623660046146b4565b611f12565b34801561097357600080fd5b506103c8601c5481565b34801561098957600080fd5b50610427610998366004614ab3565b612083565b3480156109a957600080fd5b506103c860205481565b3480156109bf57600080fd5b506109d36109ce366004614816565b61216a565b604080519283526020830191909152016103d2565b3480156109f457600080fd5b50600a546105d1906001600160a01b031681565b348015610a1457600080fd5b50610427610a23366004614ad8565b6122c6565b348015610a3457600080fd5b50610427610a43366004614764565b612ac0565b348015610a5457600080fd5b50600d546105d1906001600160a01b031681565b348015610a7457600080fd5b506023546105d1906001600160a01b031681565b348015610a9457600080fd5b506103c8610aa3366004614622565b600460209081526000928352604080842090915290825290205481565b348015610acc57600080fd5b50600b546105d1906001600160a01b031681565b348015610aec57600080fd5b506103c8601f5481565b348015610b0257600080fd5b506008546105d1906001600160a01b031681565b348015610b2257600080fd5b506103c860215481565b348015610b3857600080fd5b506103c8600e5481565b348015610b4e57600080fd5b50610427610b5d366004614738565b612ad3565b6011546040517fd6d7d52500000000000000000000000000000000000000000000000000000000815260009182916001600160a01b039091169063d6d7d52590610bb190601290600401614c09565b60408051808303816000875af1158015610bcf573d6000803e3d6000fd5b505050506040513d601f19601f82011682018060405250810190610bf39190614cb7565b90925090508115610c8b5780600003610c535760405162461bcd60e51b815260206004820152601460248201527f4d61726b65743a20696e76616c6964207261746500000000000000000000000060448201526064015b60405180910390fd5b60138190554260155560405181907f9f9192b5edb17356c524e08d9e025c8e2f6307e6ea52fb7968faa3081f51c3c890600090a29091565b42601454601554610c9c9190614d14565b1015610cea5760405162461bcd60e51b815260206004820152601460248201527f4d61726b65743a207261746520746f6f206f6c640000000000000000000000006044820152606401610c4a565b506013549091565b6007546001600160a01b03163314610d4c5760405162461bcd60e51b815260206004820181905260248201527f4f776e61626c653a2063616c6c6572206973206e6f7420746865206f776e65726044820152606401610c4a565b8115610e30576001600160a01b038316151580610d665750805b610db25760405162461bcd60e51b815260206004820152601560248201527f4f776e61626c653a207a65726f206164647265737300000000000000000000006044820152606401610c4a565b6007546040516001600160a01b038086169216907f8be0079c531659141344cd1fd0a4f28419497f9722a3daafe3b4186f6b6457e090600090a3600780546001600160a01b0385167fffffffffffffffffffffffff000000000000000000000000000000000000000091821617909155600880549091169055505050565b600880547fffffffffffffffffffffffff0000000000000000000000000000000000000000166001600160a01b0385161790555b505050565b6000610e76338484612ba1565b5060015b92915050565b600a546001600160a01b03163314610eda5760405162461bcd60e51b815260206004820152601460248201527f4d61726b65743a20756e617574686f72697a65640000000000000000000000006044820152606401610c4a565b60096020527fec8156718a8372b1db44bb411437d0870f3e3790d4a08526d024ce1b0b668f6b80548215157fffffffffffffffffffffffffffffffffffffffffffffffffffffffffffffff0091821681179092557f92e85d02570a8092d09a6e3a57665bc3815a2699a4074001bf1ccabf660f5a3680548216831790557f6cde3cea4b3a3fb2488b2808bae7556f4a405e50f65e1794383bc026131b13c380548216831790557fc575c31fea594a6eb97c8e9d3f9caee4c16218c6ef37e923234c0fe9014a61e780548216831790557f8dc18c4ccfd75f5c815b63770fa542fd953e8fef7e0e44bbdd4913470ce7e9cb80548216831790557f74b05292d1d4b2b48b65261b07099d24244bcb069f138d9a6bfdcf776becac4c80548216831790557fbb6daa0c283751197dfdc76590680f9005e97d6f23870deb1164ab60b28b9f5f805490911682179055600080805260405160ff8316151591907feeec81de25875ce1725479bb76f720a8defdb43dea041919ae37bb4aae9847c0908290a46001600081815260096020527f92e85d02570a8092d09a6e3a57665bc3815a2699a4074001bf1ccabf660f5a36546040518415159360ff9092161515927feeec81de25875ce1725479bb76f720a8defdb43dea041919ae37bb4aae9847c091a46002600081815260096020527f6cde3cea4b3a3fb2488b2808bae7556f4a405e50f65e1794383bc026131b13c3546040518415159360ff9092161515927feeec81de25875ce1725479bb76f720a8defdb43dea041919ae37bb4aae9847c091a46003600081815260096020527fc575c31fea594a6eb97c8e9d3f9caee4c16218c6ef37e923234c0fe9014a61e7546040518415159360ff9092161515927feeec81de25875ce1725479bb76f720a8defdb43dea041919ae37bb4aae9847c091a46004600081815260096020527f8dc18c4ccfd75f5c815b63770fa542fd953e8fef7e0e44bbdd4913470ce7e9cb546040518415159360ff9092161515927feeec81de25875ce1725479bb76f720a8defdb43dea041919ae37bb4aae9847c091a46005600081815260096020527f74b05292d1d4b2b48b65261b07099d24244bcb069f138d9a6bfdcf776becac4c546040518415159360ff9092161515927feeec81de25875ce1725479bb76f720a8defdb43dea041919ae37bb4aae9847c091a46006600081815260096020527fbb6daa0c283751197dfdc76590680f9005e97d6f23870deb1164ab60b28b9f5f546040518415159360ff9092161515927feeec81de25875ce1725479bb76f720a8defdb43dea041919ae37bb4aae9847c091a450565b600a546001600160a01b031633146112f75760405162461bcd60e51b815260206004820152601460248201527f4d61726b65743a20756e617574686f72697a65640000000000000000000000006044820152606401610c4a565b6009600083600881111561130d5761130d614d27565b600881111561131e5761131e614d27565b815260208101919091526040016000205460ff161515811515036113845760405162461bcd60e51b815260206004820152601260248201527f4d61726b65743a2073616d6520737461746500000000000000000000000000006044820152606401610c4a565b8015156009600084600881111561139d5761139d614d27565b60088111156113ae576113ae614d27565b815260208101919091526040016000205460ff1615158360088111156113d6576113d6614d27565b6040517feeec81de25875ce1725479bb76f720a8defdb43dea041919ae37bb4aae9847c090600090a4806009600084600881111561141657611416614d27565b600881111561142757611427614d27565b8152602081019190915260400160002080547fffffffffffffffffffffffffffffffffffffffffffffffffffffffffffffff00169115159190911790555050565b61147a60008089898989898989612c02565b50505050505050565b60008115611658576001600160a01b038416600090815260036020526040902054828110156114f45760405162461bcd60e51b815260206004820152601660248201527f45524332303a2062616c616e636520746f6f206c6f77000000000000000000006044820152606401610c4a565b836001600160a01b0316856001600160a01b031614611656576001600160a01b038516600090815260046020908152604080832033845290915290205460001981146115b9578381101561158a5760405162461bcd60e51b815260206004820152601860248201527f45524332303a20616c6c6f77616e636520746f6f206c6f7700000000000000006044820152606401610c4a565b6115948482614d56565b6001600160a01b03871660009081526004602090815260408083203384529091529020555b6001600160a01b03851661160f5760405162461bcd60e51b815260206004820152601660248201527f45524332303a206e6f207a65726f2061646472657373000000000000000000006044820152606401610c4a565b6116198483614d56565b6001600160a01b03808816600090815260036020526040808220939093559087168152908120805486929061164f908490614d14565b9091555050505b505b826001600160a01b0316846001600160a01b03167fddf252ad1be2c89b69c2b068fc378daa952ba7f163c4a11628f55a4df523b3ef8460405161169d91815260200190565b60405180910390a35060015b9392505050565b6003600081905260096020527fc575c31fea594a6eb97c8e9d3f9caee4c16218c6ef37e923234c0fe9014a61e75460ff161561172e5760405162461bcd60e51b815260206004820152600e60248201527f4d61726b65743a207061757365640000000000000000000000000000000000006044820152606401610c4a565b336000611739610b62565b50503360009081526027602052604090205460ff16611784576040517fea8e4eb500000000000000000000000000000000000000000000000000000000815260040160405180910390fd5b61178f333386612daa565b61179c8260135483612eb6565b6117e85760405162461bcd60e51b815260206004820152601160248201527f4d61726b65743a20696e736f6c76656e740000000000000000000000000000006044820152606401610c4a565b50505050565b60006117f8613078565b905090565b6001600081815260096020527f92e85d02570a8092d09a6e3a57665bc3815a2699a4074001bf1ccabf660f5a365490919060ff161561187e5760405162461bcd60e51b815260206004820152600e60248201527f4d61726b65743a207061757365640000000000000000000000000000000000006044820152606401610c4a565b3360009081526027602052604090205460ff166118c7576040517fea8e4eb500000000000000000000000000000000000000000000000000000000815260040160405180910390fd5b6118cf610b62565b50506116a93333856131a3565b6016546000906fffffffffffffffffffffffffffffffff7001000000000000000000000000000000008204811691611915911686614d69565b61191f9190614daf565b9350600061192e83600a614ea7565b60215461193b9086614d69565b6119459190614daf565b9050808510156119595760009150506116a9565b60006119658287614d56565b9050600061197485600a614ea7565b60225461198287600a614ea7565b61198c9190614d14565b6020546119999190614d69565b6119a39190614daf565b905060006509184e72a000826119ba88600a614ea7565b6119c49190614eb3565b6119ce9190614eda565b90506000816119e5670de0b6b3a764000086614eda565b6119ef9190614f26565b90506000808212611a005781611a09565b611a0982614f70565b905089811115611a21578996505050505050506116a9565b9998505050505050505050565b6008546001600160a01b0316338114611a895760405162461bcd60e51b815260206004820181905260248201527f4f776e61626c653a2063616c6c657220213d2070656e64696e67206f776e65726044820152606401610c4a565b6007546040516001600160a01b038084169216907f8be0079c531659141344cd1fd0a4f28419497f9722a3daafe3b4186f6b6457e090600090a3600780546001600160a01b039092167fffffffffffffffffffffffff0000000000000000000000000000000000000000928316179055600880549091169055565b60128054611b1190614bb6565b80601f0160208091040260200160405190810160405280929190818152602001828054611b3d90614bb6565b8015611b8a5780601f10611b5f57610100808354040283529160200191611b8a565b820191906000526020600020905b815481529060010190602001808311611b6d57829003601f168201915b505050505081565b6000610e7633848461344d565b600060608082808083611bd27f0000000000000000000000000000000000000000000000000000000000000000836134a6565b611bfd7f000000000000000000000000000000000000000000000000000000000000000060016134a6565b604080516000808252602082019092527f0f000000000000000000000000000000000000000000000000000000000000009b939a50919850469750309650945092509050565b60008060008060008060008089806020019051810190611c639190614fa8565b97509750975097509750975097509750611c84898989898989898989612c02565b50505050505050505050565b60006116a98383613551565b6001600160a01b03821660009081526019602052604081205481908190808203611cd157600080600093509350935050611d95565b6000611cfe6040805180820182526000808252602091820181905282518084019093528083529082015290565b90506000611d0c88886136b2565b905081602001516fffffffffffffffffffffffffffffffff1682600001516fffffffffffffffffffffffffffffffff1684611d479190614d69565b611d519190614daf565b925080831015611d62576000611d66565b8083035b6001600160a01b0389166000908152601a6020526040902054909650611d8c90886137e7565b90955093505050505b9250925092565b6002600081905260096020527f6cde3cea4b3a3fb2488b2808bae7556f4a405e50f65e1794383bc026131b13c35460ff1615611e1a5760405162461bcd60e51b815260206004820152600e60248201527f4d61726b65743a207061757365640000000000000000000000000000000000006044820152606401610c4a565b3360009081526027602052604090205460ff16611e63576040517fea8e4eb500000000000000000000000000000000000000000000000000000000815260040160405180910390fd5b81600003611f0657600b54600e546040517f8eb22cdd000000000000000000000000000000000000000000000000000000008152600481019190915260248101859052600060448201526001600160a01b0390911690638eb22cdd90606401602060405180830381865afa158015611edf573d6000803e3d6000fd5b505050506040513d601f19601f82011682018060405250810190611f03919061502e565b91505b610e6433338585613916565b600081151580611f2a5750336001600160a01b038416145b1561203a573360009081526003602052604090205482811015611f8f5760405162461bcd60e51b815260206004820152601660248201527f45524332303a2062616c616e636520746f6f206c6f77000000000000000000006044820152606401610c4a565b336001600160a01b03851614612038576001600160a01b038416611ff55760405162461bcd60e51b815260206004820152601660248201527f45524332303a206e6f207a65726f2061646472657373000000000000000000006044820152606401610c4a565b611fff8382614d56565b33600090815260036020526040808220929092556001600160a01b03861681529081208054859290612032908490614d14565b90915550505b505b6040518281526001600160a01b0384169033907fddf252ad1be2c89b69c2b068fc378daa952ba7f163c4a11628f55a4df523b3ef9060200160405180910390a350600192915050565b6007546001600160a01b031633146120dd5760405162461bcd60e51b815260206004820181905260248201527f4f776e61626c653a2063616c6c6572206973206e6f7420746865206f776e65726044820152606401610c4a565b6000816001600160a01b03168360405160006040518083038185875af1925050503d806000811461212a576040519150601f19603f3d011682016040523d82523d6000602084013e61212f565b606091505b5050905080610e64576040517f90b8ec1800000000000000000000000000000000000000000000000000000000815260040160405180910390fd5b600080805260096020527fec8156718a8372b1db44bb411437d0870f3e3790d4a08526d024ce1b0b668f6b548190819060ff16156121ea5760405162461bcd60e51b815260206004820152600e60248201527f4d61726b65743a207061757365640000000000000000000000000000000000006044820152606401610c4a565b3360006121f5610b62565b50503360009081526027602052604090205460ff16612240576040517fea8e4eb500000000000000000000000000000000000000000000000000000000815260040160405180910390fd5b856000036122545760008094509450612265565b61225f333388613acd565b90955093505b6122728260135483612eb6565b6122be5760405162461bcd60e51b815260206004820152601160248201527f4d61726b65743a20696e736f6c76656e740000000000000000000000000000006044820152606401610c4a565b505050915091565b6007546001600160a01b031633146123205760405162461bcd60e51b815260206004820181905260248201527f4f776e61626c653a2063616c6c6572206973206e6f7420746865206f776e65726044820152606401610c4a565b6001600160a01b038c161561239957601180547fffffffffffffffffffffffff0000000000000000000000000000000000000000166001600160a01b038e169081179091556040519081527f3df77beb5db05fcdd70a30fc8adf3f83f9501b68579455adbd100b81809403949060200160405180910390a15b89156123d75760126123ac8b8d83615097565b506040517fa6f004921c944d4b8bf6e38462b00f36a58d62495d56b51f571ab78f732c981590600090a15b6001600160a01b0389161561245457600a546040516001600160a01b03808c169216907f5a62d22209e370e38eea92cfddcd228e656e6ec139243392a760a7769f5877fd90600090a3600a80547fffffffffffffffffffffffff0000000000000000000000000000000000000000166001600160a01b038b161790555b87156124e157620186a08811156124ad5760405162461bcd60e51b815260206004820152601160248201527f4d61726b65743a206e6f742076616c69640000000000000000000000000000006044820152606401610c4a565b601b88905560405188906001907f253ac2c290fb3c37b20cfd60899ed86c0c8313905edc8ca53ec8d2b69d9919ad90600090a35b861561256e57620186a087111561253a5760405162461bcd60e51b815260206004820152601160248201527f4d61726b65743a206e6f742076616c69640000000000000000000000000000006044820152606401610c4a565b601c87905560405187906002907f253ac2c290fb3c37b20cfd60899ed86c0c8313905edc8ca53ec8d2b69d9919ad90600090a35b85156125fa57620186a086106125c65760405162461bcd60e51b815260206004820152601160248201527f4d61726b65743a206e6f742076616c69640000000000000000000000000000006044820152606401610c4a565b601f86905560405186906003907f253ac2c290fb3c37b20cfd60899ed86c0c8313905edc8ca53ec8d2b69d9919ad90600090a35b84156126d757620186a085106126525760405162461bcd60e51b815260206004820152601160248201527f4d61726b65743a206e6f742076616c69640000000000000000000000000000006044820152606401610c4a565b601e5485106126a35760405162461bcd60e51b815260206004820152601160248201527f4d61726b65743a206e6f742076616c69640000000000000000000000000000006044820152606401610c4a565b601d85905560405185906004907f253ac2c290fb3c37b20cfd60899ed86c0c8313905edc8ca53ec8d2b69d9919ad90600090a35b83156127b457620186a0841061272f5760405162461bcd60e51b815260206004820152601160248201527f4d61726b65743a206e6f742076616c69640000000000000000000000000000006044820152606401610c4a565b601d5484116127805760405162461bcd60e51b815260206004820152601160248201527f4d61726b65743a206e6f742076616c69640000000000000000000000000000006044820152606401610c4a565b601e84905560405184906005907f253ac2c290fb3c37b20cfd60899ed86c0c8313905edc8ca53ec8d2b69d9919ad90600090a35b821561281d576018546040518491907fae6e0ab3b95f0a53ff9660a390ccedcbbf1f2355dce974a9841af106fddcfaba90600090a3601883905560405183906006907f253ac2c290fb3c37b20cfd60899ed86c0c8313905edc8ca53ec8d2b69d9919ad90600090a35b81156129ad57620186a08211156128765760405162461bcd60e51b815260206004820152601160248201527f4d61726b65743a206e6f742076616c69640000000000000000000000000000006044820152606401610c4a565b6021548211156128ee5760405162461bcd60e51b815260206004820152602560248201527f4d61726b65743a20636f6c6c61746572616c697a6174696f6e5261746520746f60448201527f6f206269670000000000000000000000000000000000000000000000000000006064820152608401610c4a565b6128fc620186a06002614d69565b61290790600a614ea7565b602254612918620186a0600a614ea7565b6129229190614d14565b61292c9084614d69565b106129795760405162461bcd60e51b815260206004820152601a60248201527f4d61726b65743a204352202a202831202b204c4d29203e3d20310000000000006044820152606401610c4a565b602082905560405182906007907f253ac2c290fb3c37b20cfd60899ed86c0c8313905edc8ca53ec8d2b69d9919ad90600090a35b8015612ab257602054811015612a2b5760405162461bcd60e51b815260206004820152603260248201527f4d61726b65743a206c69717569646174696f6e436f6c6c61746572616c697a6160448201527f74696f6e5261746520746f6f20736d616c6c00000000000000000000000000006064820152608401610c4a565b620186a0811115612a7e5760405162461bcd60e51b815260206004820152601160248201527f4d61726b65743a206e6f742076616c69640000000000000000000000000000006044820152606401610c4a565b602181905560405181906008907f253ac2c290fb3c37b20cfd60899ed86c0c8313905edc8ca53ec8d2b69d9919ad90600090a35b505050505050505050505050565b61147a6000600189898989898989612c02565b6007546001600160a01b03163314612b2d5760405162461bcd60e51b815260206004820181905260248201527f4f776e61626c653a2063616c6c6572206973206e6f7420746865206f776e65726044820152606401610c4a565b6023546040516001600160a01b038084169216907ffb4fd7114609dd603b57adbc2082205bfbbcabf9265c4b437b472f5c592b8cd790600090a3602380547fffffffffffffffffffffffff0000000000000000000000000000000000000000166001600160a01b0392909216919091179055565b6001600160a01b0383811660008181526004602090815260408083209487168084529482529182902085905590518481527f8c5be1e5ebec7d5bd14f71427d1e84f3dd0314c0f7b2291e5b200ac8c7c3b925910160405180910390a3505050565b83421115612c525760405162461bcd60e51b815260206004820152601d60248201527f45524332305065726d69743a206578706972656420646561646c696e650000006044820152606401610c4a565b600088612c7f577f5c9ba5f0d101616843d7918f48ea857d6da95e04ac6d719e105e50a355e7c5d6612ca1565b7f9cc5629bbe7baa98a89f6f8c2c396b83ab62dbb6cbb12f17f1d6ba7e6f53e2665b8a898989612cae8d613cd1565b60408051602081019790975261ffff909516948601949094526001600160a01b0392831660608601529116608084015260a083015260c082015260e08101869052610100016040516020818303038152906040528051906020012090506000612d1682613d00565b90506000612d2682878787613d48565b9050896001600160a01b0316816001600160a01b031614612d895760405162461bcd60e51b815260206004820152601e60248201527f45524332305065726d69743a20696e76616c6964207369676e617475726500006044820152606401610c4a565b8a15612d9f57612d9a8a8a8a612ba1565b612ab2565b612ab28a8a8a61344d565b6001600160a01b0383166000908152601a602052604081208054839290612dd2908490614d56565b925050819055508060176000828254612deb9190614d56565b909155505060405181906001600160a01b0380851691908616907f8ad4d3ff00da092c7ad9a573ea4f5f6a3dffc6712dc06d3f78f49b862297c40290600090a4600b54600e546040517f0411b2520000000000000000000000000000000000000000000000000000000081523060048201526001600160a01b038581166024830152604482019290925260648101849052911690630411b25290608401600060405180830381600087803b158015612ea257600080fd5b505af115801561147a573d6000803e3d6000fd5b6001600160a01b038316600090815260196020526040812054808203612ee05760019150506116a9565b6001600160a01b0385166000908152601a602052604081205490819003612f0c576000925050506116a9565b6040805180820182526016546fffffffffffffffffffffffffffffffff8082168352700100000000000000000000000000000000909104166020820152600b54600e5492517f442c159900000000000000000000000000000000000000000000000000000000815260048101939093526024830184905260006044840181905291926001600160a01b039091169063442c159990606401602060405180830381865afa158015612fc0573d6000803e3d6000fd5b505050506040513d601f19601f82011682018060405250810190612fe4919061502e565b905081602001516fffffffffffffffffffffffffffffffff168783600001516fffffffffffffffffffffffffffffffff16866130209190614d69565b61302a9190614d69565b6130349190614daf565b8661304157602054613045565b6021545b620186a06024546130569190614daf565b6130609084614d69565b61306a9190614d69565b101598975050505050505050565b6000306001600160a01b037f0000000000000000000000000000000000000000000000000000000000000000161480156130d157507f000000000000000000000000000000000000000000000000000000000000000046145b156130fb57507f000000000000000000000000000000000000000000000000000000000000000090565b6117f8604080517f8b73c3c69bb8fe3d512ecc4cf759cc79239f7b179b0ffacaa9a75d522b39400f60208201527f0000000000000000000000000000000000000000000000000000000000000000918101919091527f000000000000000000000000000000000000000000000000000000000000000060608201524660808201523060a082015260009060c00160405160208183030381529060405280519060200120905090565b6001600160a01b0382166000908152601960205260408120548211156131df576001600160a01b03831660009081526019602052604090205491505b81600003613219576040517fd32e7fc600000000000000000000000000000000000000000000000000000000815260040160405180910390fd5b604080518082019091526016546fffffffffffffffffffffffffffffffff808216835270010000000000000000000000000000000090910416602082015260009061326690846001613d70565b81516020928301516fffffffffffffffffffffffffffffffff908116700100000000000000000000000000000000029116176016556001600160a01b03861660009081526019909252604082208054919350859290916132c7908490614d56565b9091555050600b546010546040517f8d2e63b800000000000000000000000000000000000000000000000000000000815260048101919091526001600160a01b0387811660248301523060448301526064820184905260006084830152929350839290911690638d2e63b89060a40160408051808303816000875af1158015613354573d6000803e3d6000fd5b505050506040513d601f19601f820116820180604052508101906133789190615157565b5050600f546040517f9dc29fac000000000000000000000000000000000000000000000000000000008152306004820152602481018390526001600160a01b0390911690639dc29fac90604401600060405180830381600087803b1580156133df57600080fd5b505af11580156133f3573d6000803e3d6000fd5b5050505081846001600160a01b0316866001600160a01b03167fc8e512d8f188ca059984b5853d2bf653da902696b8512785b182b2c813789a6e8660405161343d91815260200190565b60405180910390a4509392505050565b6001600160a01b0380841660008181526005602090815260408083209487168084529490915280822085905551849392917fe50de2333c10a9502fcb1d8ae13a51bbf423153dfc63c2b8997665b32154afc391a4505050565b606060ff83146134c0576134b983613deb565b9050610e7a565b8180546134cc90614bb6565b80601f01602080910402602001604051908101604052809291908181526020018280546134f890614bb6565b80156135455780601f1061351a57610100808354040283529160200191613545565b820191906000526020600020905b81548152906001019060200180831161352857829003601f168201915b50505050509050610e7a565b6001600160a01b0382166000908152601a60205260408120548190819061357890856137e7565b6001600160a01b0387166000908152601960205260408120549294509092508190036135aa5760009350505050610e7a565b826000036135be5760009350505050610e7a565b6016546fffffffffffffffffffffffffffffffff70010000000000000000000000000000000082048116916135f4911683614d69565b6135fe9190614daf565b9050828110156136145760009350505050610e7a565b81811061362857601d549350505050610e7a565b60006136348484614d56565b620186a06136428685614d56565b61364c9190614d69565b6136569190614daf565b90506000601e54601d5461366a9190614eb3565b90506000601e54620186a084846136819190614eda565b61368b9190614f26565b613695919061517b565b9050601d548112156136a65750601d545b98975050505050505050565b60008082116137035760405162461bcd60e51b815260206004820152601e60248201527f4d61726b65743a2065786368616e676552617465206e6f742076616c696400006044820152606401610c4a565b600b54600e546001600160a01b038581166000908152601a60205260408082205490517f442c1599000000000000000000000000000000000000000000000000000000008152600481019490945260248401526044830181905292169063442c159990606401602060405180830381865afa158015613786573d6000803e3d6000fd5b505050506040513d601f19601f820116820180604052508101906137aa919061502e565b905082602054620186a06024546137c19190614daf565b6137cb9084614d69565b6137d59190614d69565b6137df9190614daf565b949350505050565b6000806000831161383a5760405162461bcd60e51b815260206004820152601e60248201527f4d61726b65743a2065786368616e676552617465206e6f742076616c696400006044820152606401610c4a565b600b54600e546040517f442c1599000000000000000000000000000000000000000000000000000000008152600481019190915260248101869052600060448201819052916001600160a01b03169063442c159990606401602060405180830381865afa1580156138af573d6000803e3d6000fd5b505050506040513d601f19601f820116820180604052508101906138d3919061502e565b905083602454826138e49190614d69565b6138ee9190614daf565b9150620186a0602054836139029190614d69565b61390c9190614daf565b9250509250929050565b806000036139b957600b54600e546040517f8eb22cdd000000000000000000000000000000000000000000000000000000008152600481019190915260248101849052600060448201526001600160a01b0390911690638eb22cdd90606401602060405180830381865afa158015613992573d6000803e3d6000fd5b505050506040513d601f19601f820116820180604052508101906139b6919061502e565b90505b6001600160a01b0383166000908152601a6020526040812080548392906139e1908490614d14565b90915550506017546139f38282614d14565b601755600b54600e546040517f0411b2520000000000000000000000000000000000000000000000000000000081526001600160a01b038881166004830152306024830152604482019290925260648101859052911690630411b25290608401600060405180830381600087803b158015613a6d57600080fd5b505af1158015613a81573d6000803e3d6000fd5b5050505081846001600160a01b0316866001600160a01b03167f9ed03113de523cebfe5e49d5f8e12894b1c0d42ce805990461726444c90eab8760405160405180910390a45050505050565b604080518082019091526016546fffffffffffffffffffffffffffffffff80821683527001000000000000000000000000000000009091041660208201526000908190613b1c90846001613e2a565b81516020909201516fffffffffffffffffffffffffffffffff9081167001000000000000000000000000000000000292169190911760165560185490925015613baf576018546016546fffffffffffffffffffffffffffffffff161115613baf576040517f53977d1f00000000000000000000000000000000000000000000000000000000815260040160405180910390fd5b6001600160a01b03851660009081526019602052604081208054849290613bd7908490614d14565b9250508190555082846001600160a01b0316866001600160a01b03167fb92cb6bca8e3270b9170930f03b17571e55791acdb1a0e9f339eec88bdb35e2485604051613c2491815260200190565b60405180910390a4600f546040517f40c10f19000000000000000000000000000000000000000000000000000000008152306004820152602481018590526001600160a01b03909116906340c10f1990604401600060405180830381600087803b158015613c9157600080fd5b505af1158015613ca5573d6000803e3d6000fd5b5050600f54601054613cc793506001600160a01b039091169150869086613e88565b9050935093915050565b6001600160a01b038116600090815260066020526040812080549082613cf6836151a3565b9091555092915050565b6000610e7a613d0d613078565b836040517f19010000000000000000000000000000000000000000000000000000000000008152600281019290925260228201526042902090565b6000806000613d5987878787613f52565b91509150613d6681614016565b5095945050505050565b60408051808201909152600080825260208201526000613d9185858561417e565b90508085600001818151613da591906151bd565b6fffffffffffffffffffffffffffffffff16905250602085018051859190613dce9083906151bd565b6fffffffffffffffffffffffffffffffff16905250939492505050565b60606000613df88361423e565b604080516020808252818301909252919250600091906020820181803683375050509182525060208101929092525090565b60408051808201909152600080825260208201526000613e4b85858561427f565b90508385600001818151613e5f91906151e6565b6fffffffffffffffffffffffffffffffff16905250602085018051829190613dce9083906151e6565b600b54600090613ea5906001600160a01b03878116911684614318565b600b546040517f9a9af97a000000000000000000000000000000000000000000000000000000008152600481018590523060248201526001600160a01b038681166044830152606482018590526000608483015290911690639a9af97a9060a40160408051808303816000875af1158015613f24573d6000803e3d6000fd5b505050506040513d601f19601f82011682018060405250810190613f489190615157565b9695505050505050565b6000807f7fffffffffffffffffffffffffffffff5d576e7357a4501ddfe92f46681b20a0831115613f89575060009050600361400d565b6040805160008082526020820180845289905260ff881692820192909252606081018690526080810185905260019060a0016020604051602081039080840390855afa158015613fdd573d6000803e3d6000fd5b5050604051601f1901519150506001600160a01b0381166140065760006001925092505061400d565b9150600090505b94509492505050565b600081600481111561402a5761402a614d27565b036140325750565b600181600481111561404657614046614d27565b036140935760405162461bcd60e51b815260206004820152601860248201527f45434453413a20696e76616c6964207369676e617475726500000000000000006044820152606401610c4a565b60028160048111156140a7576140a7614d27565b036140f45760405162461bcd60e51b815260206004820152601f60248201527f45434453413a20696e76616c6964207369676e6174757265206c656e677468006044820152606401610c4a565b600381600481111561410857614108614d27565b0361417b5760405162461bcd60e51b815260206004820152602260248201527f45434453413a20696e76616c6964207369676e6174757265202773272076616c60448201527f75650000000000000000000000000000000000000000000000000000000000006064820152608401610c4a565b50565b600083602001516fffffffffffffffffffffffffffffffff166000036141a55750816116a9565b602084015184516fffffffffffffffffffffffffffffffff918216916141cc911685614d69565b6141d69190614daf565b905081801561422657508284600001516fffffffffffffffffffffffffffffffff1685602001516fffffffffffffffffffffffffffffffff168361421a9190614d69565b6142249190614daf565b105b156116a95780614235816151a3565b95945050505050565b600060ff8216601f811115610e7a576040517fb3512b0c00000000000000000000000000000000000000000000000000000000815260040160405180910390fd5b82516000906fffffffffffffffffffffffffffffffff1681036142a35750816116a9565b835160208501516fffffffffffffffffffffffffffffffff918216916142ca911685614d69565b6142d49190614daf565b905081801561422657508284602001516fffffffffffffffffffffffffffffffff1685600001516fffffffffffffffffffffffffffffffff168361421a9190614d69565b6000836001600160a01b03163b116143725760405162461bcd60e51b815260206004820152601860248201527f53616665417070726f76653a206e6f20636f6e747261637400000000000000006044820152606401610c4a565b6040516001600160a01b0383811660248301526000604483018190529160609186169060640160408051601f198184030181529181526020820180517bffffffffffffffffffffffffffffffffffffffffffffffffffffffff167f095ea7b300000000000000000000000000000000000000000000000000000000179052516143fb919061520f565b6000604051808303816000865af19150503d8060008114614438576040519150601f19603f3d011682016040523d82523d6000602084013e61443d565b606091505b509092509050818015614468575080511580614468575080806020019051810190614468919061522b565b6144b45760405162461bcd60e51b815260206004820152601b60248201527f53616665417070726f76653a20617070726f7665206661696c656400000000006044820152606401610c4a565b82156145f6576040516001600160a01b0385811660248301526044820185905286169060640160408051601f198184030181529181526020820180517bffffffffffffffffffffffffffffffffffffffffffffffffffffffff167f095ea7b3000000000000000000000000000000000000000000000000000000001790525161453d919061520f565b6000604051808303816000865af19150503d806000811461457a576040519150601f19603f3d011682016040523d82523d6000602084013e61457f565b606091505b5090925090508180156145aa5750805115806145aa5750808060200190518101906145aa919061522b565b6145f65760405162461bcd60e51b815260206004820152601b60248201527f53616665417070726f76653a20617070726f7665206661696c656400000000006044820152606401610c4a565b5050505050565b6001600160a01b038116811461417b57600080fd5b803561461d816145fd565b919050565b6000806040838503121561463557600080fd5b8235614640816145fd565b91506020830135614650816145fd565b809150509250929050565b801515811461417b57600080fd5b60008060006060848603121561467e57600080fd5b8335614689816145fd565b925060208401356146998161465b565b915060408401356146a98161465b565b809150509250925092565b600080604083850312156146c757600080fd5b82356146d2816145fd565b946020939093013593505050565b6000602082840312156146f257600080fd5b81356116a98161465b565b80356009811061461d57600080fd5b6000806040838503121561471f57600080fd5b614728836146fd565b915060208301356146508161465b565b60006020828403121561474a57600080fd5b81356116a9816145fd565b60ff8116811461417b57600080fd5b600080600080600080600060e0888a03121561477f57600080fd5b873561478a816145fd565b9650602088013561479a816145fd565b9550604088013594506060880135935060808801356147b881614755565b9699959850939692959460a0840135945060c09093013592915050565b6000806000606084860312156147ea57600080fd5b83356147f5816145fd565b92506020840135614805816145fd565b929592945050506040919091013590565b60006020828403121561482857600080fd5b5035919050565b60008060006060848603121561484457600080fd5b505081359360208301359350604090920135919050565b60006020828403121561486d57600080fd5b6116a9826146fd565b60005b83811015614891578181015183820152602001614879565b50506000910152565b600081518084526148b2816020860160208601614876565b601f01601f19169290920160200192915050565b6020815260006116a9602083018461489a565b7fff00000000000000000000000000000000000000000000000000000000000000881681526000602060e0602084015261491660e084018a61489a565b8381036040850152614928818a61489a565b606085018990526001600160a01b038816608086015260a0850187905284810360c08601528551808252602080880193509091019060005b8181101561497c57835183529284019291840191600101614960565b50909c9b505050505050505050505050565b7f4e487b7100000000000000000000000000000000000000000000000000000000600052604160045260246000fd5b803561ffff8116811461461d57600080fd5b600080604083850312156149e257600080fd5b823567ffffffffffffffff808211156149fa57600080fd5b818501915085601f830112614a0e57600080fd5b813581811115614a2057614a2061498e565b604051601f8201601f19908116603f01168101908382118183101715614a4857614a4861498e565b81604052828152886020848701011115614a6157600080fd5b826020860160208301376000602084830101528096505050505050614a88602084016149bd565b90509250929050565b60008060408385031215614aa457600080fd5b50508035926020909101359150565b60008060408385031215614ac657600080fd5b823591506020830135614650816145fd565b6000806000806000806000806000806000806101608d8f031215614afb57600080fd5b614b058d356145fd565b8c359b5060208d013567ffffffffffffffff80821115614b2457600080fd5b818f0191508f601f830112614b3857600080fd5b8082351115614b4657600080fd5b508e602082358301011115614b5a57600080fd5b602081019b50359950614b6f60408e01614612565b9b9e9a9d50989b60608101359a60808201359a5060a0820135995060c0820135985060e0820135975061010082013596506101208201359550610140909101359350915050565b600181811c90821680614bca57607f821691505b602082108103614c03577f4e487b7100000000000000000000000000000000000000000000000000000000600052602260045260246000fd5b50919050565b6000602080835260008454614c1d81614bb6565b8060208701526040600180841660008114614c3f5760018114614c7957614ca9565b7fffffffffffffffffffffffffffffffffffffffffffffffffffffffffffffff00851660408a0152604084151560051b8a01019550614ca9565b89600052602060002060005b85811015614ca05781548b8201860152908301908801614c85565b8a016040019650505b509398975050505050505050565b60008060408385031215614cca57600080fd5b8251614cd58161465b565b6020939093015192949293505050565b7f4e487b7100000000000000000000000000000000000000000000000000000000600052601160045260246000fd5b80820180821115610e7a57610e7a614ce5565b7f4e487b7100000000000000000000000000000000000000000000000000000000600052602160045260246000fd5b81810381811115610e7a57610e7a614ce5565b8082028115828204841417610e7a57610e7a614ce5565b7f4e487b7100000000000000000000000000000000000000000000000000000000600052601260045260246000fd5b600082614dbe57614dbe614d80565b500490565b600181815b80851115614dfe578160001904821115614de457614de4614ce5565b80851615614df157918102915b93841c9390800290614dc8565b509250929050565b600082614e1557506001610e7a565b81614e2257506000610e7a565b8160018114614e385760028114614e4257614e5e565b6001915050610e7a565b60ff841115614e5357614e53614ce5565b50506001821b610e7a565b5060208310610133831016604e8410600b8410161715614e81575081810a610e7a565b614e8b8383614dc3565b8060001904821115614e9f57614e9f614ce5565b029392505050565b60006116a98383614e06565b8181036000831280158383131683831282161715614ed357614ed3614ce5565b5092915050565b808202600082127f800000000000000000000000000000000000000000000000000000000000000084141615614f1257614f12614ce5565b8181058314821517610e7a57610e7a614ce5565b600082614f3557614f35614d80565b60001983147f800000000000000000000000000000000000000000000000000000000000000083141615614f6b57614f6b614ce5565b500590565b60007f80000000000000000000000000000000000000000000000000000000000000008203614fa157614fa1614ce5565b5060000390565b600080600080600080600080610100898b031215614fc557600080fd5b8851614fd08161465b565b60208a0151909850614fe1816145fd565b60408a0151909750614ff2816145fd565b80965050606089015194506080890151935060a089015161501281614755565b60c08a015160e0909a0151989b979a5095989497939692505050565b60006020828403121561504057600080fd5b5051919050565b601f821115610e64576000816000526020600020601f850160051c810160208610156150705750805b601f850160051c820191505b8181101561508f5782815560010161507c565b505050505050565b67ffffffffffffffff8311156150af576150af61498e565b6150c3836150bd8354614bb6565b83615047565b6000601f8411600181146150f757600085156150df5750838201355b600019600387901b1c1916600186901b1783556145f6565b600083815260209020601f19861690835b828110156151285786850135825560209485019460019092019101615108565b50868210156151455760001960f88860031b161c19848701351681555b505060018560011b0183555050505050565b6000806040838503121561516a57600080fd5b505080516020909101519092909150565b808201828112600083128015821682158216171561519b5761519b614ce5565b505092915050565b600060001982036151b6576151b6614ce5565b5060010190565b6fffffffffffffffffffffffffffffffff828116828216039080821115614ed357614ed3614ce5565b6fffffffffffffffffffffffffffffffff818116838216019080821115614ed357614ed3614ce5565b60008251615221818460208701614876565b9190910192915050565b60006020828403121561523d57600080fd5b81516116a98161465b56fea2646970667358221220d316d084e20f3c6944aaf088bd0395e18a0f729afd7e673abfc1acc704e873ba64736f6c63430008160033",
  "linkReferences": {},
  "deployedLinkReferences": {}
}