{
  "_format": "hh-sol-artifact-1",
  "contractName": "Origins",
  "sourceName": "contracts/markets/origins/Origins.sol",
  "abi": [
    {
      "inputs": [
        {
          "internalType": "address",
          "name": "_owner",
          "type": "address"
        },
        {
          "internalType": "address",
          "name": "_yieldBox",
          "type": "address"
        },
        {
          "internalType": "contract IERC20",
          "name": "_asset",
          "type": "address"
        },
        {
          "internalType": "uint256",
          "name": "_assetId",
          "type": "uint256"
        },
        {
          "internalType": "contract IERC20",
          "name": "_collateral",
          "type": "address"
        },
        {
          "internalType": "uint256",
          "name": "_collateralId",
          "type": "uint256"
        },
        {
          "internalType": "contract IOracle",
          "name": "_oracle",
          "type": "address"
        },
        {
          "internalType": "uint256",
          "name": "_exchangeRatePrecision",
          "type": "uint256"
        },
        {
          "internalType": "uint256",
          "name": "_collateralizationRate",
          "type": "uint256"
        }
      ],
      "stateMutability": "nonpayable",
      "type": "constructor"
    },
    {
      "inputs": [],
      "name": "BadPair",
      "type": "error"
    },
    {
      "inputs": [],
      "name": "BorrowCapReached",
      "type": "error"
    },
    {
      "inputs": [],
      "name": "InvalidShortString",
      "type": "error"
    },
    {
      "inputs": [],
      "name": "NotAuthorized",
      "type": "error"
    },
    {
      "inputs": [],
      "name": "NotValid",
      "type": "error"
    },
    {
      "inputs": [],
      "name": "NothingToRepay",
      "type": "error"
    },
    {
      "inputs": [
        {
          "internalType": "string",
          "name": "str",
          "type": "string"
        }
      ],
      "name": "StringTooLong",
      "type": "error"
    },
    {
      "inputs": [],
      "name": "TransferFailed",
      "type": "error"
    },
    {
      "anonymous": false,
      "inputs": [
        {
          "indexed": true,
          "internalType": "address",
          "name": "owner",
          "type": "address"
        },
        {
          "indexed": true,
          "internalType": "address",
          "name": "spender",
          "type": "address"
        },
        {
          "indexed": false,
          "internalType": "uint256",
          "name": "value",
          "type": "uint256"
        }
      ],
      "name": "Approval",
      "type": "event"
    },
    {
      "anonymous": false,
      "inputs": [
        {
          "indexed": true,
          "internalType": "address",
          "name": "owner",
          "type": "address"
        },
        {
          "indexed": true,
          "internalType": "address",
          "name": "spender",
          "type": "address"
        },
        {
          "indexed": true,
          "internalType": "uint256",
          "name": "value",
          "type": "uint256"
        }
      ],
      "name": "ApprovalBorrow",
      "type": "event"
    },
    {
      "anonymous": false,
      "inputs": [
        {
          "indexed": true,
          "internalType": "address",
          "name": "old",
          "type": "address"
        },
        {
          "indexed": true,
          "internalType": "address",
          "name": "_new",
          "type": "address"
        }
      ],
      "name": "ConservatorUpdated",
      "type": "event"
    },
    {
      "anonymous": false,
      "inputs": [],
      "name": "EIP712DomainChanged",
      "type": "event"
    },
    {
      "anonymous": false,
      "inputs": [
        {
          "indexed": false,
          "internalType": "uint256",
          "name": "_oldVal",
          "type": "uint256"
        },
        {
          "indexed": false,
          "internalType": "uint256",
          "name": "_newVal",
          "type": "uint256"
        }
      ],
      "name": "ExchangeRateDurationUpdated",
      "type": "event"
    },
    {
      "anonymous": false,
      "inputs": [
        {
          "indexed": true,
          "internalType": "address",
          "name": "oldVal",
          "type": "address"
        },
        {
          "indexed": true,
          "internalType": "address",
          "name": "newVal",
          "type": "address"
        }
      ],
      "name": "LeverageExecutorSet",
      "type": "event"
    },
    {
      "anonymous": false,
      "inputs": [
        {
          "indexed": true,
          "internalType": "address",
          "name": "liquidator",
          "type": "address"
        },
        {
          "indexed": true,
          "internalType": "address[]",
          "name": "users",
          "type": "address[]"
        },
        {
          "indexed": true,
          "internalType": "uint256",
          "name": "liquidatorReward",
          "type": "uint256"
        },
        {
          "indexed": false,
          "internalType": "uint256",
          "name": "protocolReward",
          "type": "uint256"
        },
        {
          "indexed": false,
          "internalType": "uint256",
          "name": "repayedAmount",
          "type": "uint256"
        },
        {
          "indexed": false,
          "internalType": "uint256",
          "name": "collateralShareRemoved",
          "type": "uint256"
        }
      ],
      "name": "Liquidated",
      "type": "event"
    },
    {
      "anonymous": false,
      "inputs": [
        {
          "indexed": true,
          "internalType": "uint256",
          "name": "oldVal",
          "type": "uint256"
        },
        {
          "indexed": true,
          "internalType": "uint256",
          "name": "newVal",
          "type": "uint256"
        }
      ],
      "name": "LiquidationMultiplierUpdated",
      "type": "event"
    },
    {
      "anonymous": false,
      "inputs": [
        {
          "indexed": true,
          "internalType": "address",
          "name": "from",
          "type": "address"
        },
        {
          "indexed": true,
          "internalType": "address",
          "name": "to",
          "type": "address"
        },
        {
          "indexed": true,
          "internalType": "uint256",
          "name": "share",
          "type": "uint256"
        }
      ],
      "name": "LogAddCollateral",
      "type": "event"
    },
    {
      "anonymous": false,
      "inputs": [
        {
          "indexed": true,
          "internalType": "address",
          "name": "from",
          "type": "address"
        },
        {
          "indexed": true,
          "internalType": "address",
          "name": "to",
          "type": "address"
        },
        {
          "indexed": true,
          "internalType": "uint256",
          "name": "amount",
          "type": "uint256"
        },
        {
          "indexed": false,
          "internalType": "uint256",
          "name": "part",
          "type": "uint256"
        }
      ],
      "name": "LogBorrow",
      "type": "event"
    },
    {
      "anonymous": false,
      "inputs": [
        {
          "indexed": true,
          "internalType": "uint256",
          "name": "_oldVal",
          "type": "uint256"
        },
        {
          "indexed": true,
          "internalType": "uint256",
          "name": "_newVal",
          "type": "uint256"
        }
      ],
      "name": "LogBorrowCapUpdated",
      "type": "event"
    },
    {
      "anonymous": false,
      "inputs": [
        {
          "indexed": true,
          "internalType": "uint256",
          "name": "rate",
          "type": "uint256"
        }
      ],
      "name": "LogExchangeRate",
      "type": "event"
    },
    {
      "anonymous": false,
      "inputs": [
        {
          "indexed": true,
          "internalType": "address",
          "name": "from",
          "type": "address"
        },
        {
          "indexed": true,
          "internalType": "address",
          "name": "to",
          "type": "address"
        },
        {
          "indexed": true,
          "internalType": "uint256",
          "name": "share",
          "type": "uint256"
        }
      ],
      "name": "LogRemoveCollateral",
      "type": "event"
    },
    {
      "anonymous": false,
      "inputs": [
        {
          "indexed": true,
          "internalType": "address",
          "name": "from",
          "type": "address"
        },
        {
          "indexed": true,
          "internalType": "address",
          "name": "to",
          "type": "address"
        },
        {
          "indexed": true,
          "internalType": "uint256",
          "name": "amount",
          "type": "uint256"
        },
        {
          "indexed": false,
          "internalType": "uint256",
          "name": "part",
          "type": "uint256"
        }
      ],
      "name": "LogRepay",
      "type": "event"
    },
    {
      "anonymous": false,
      "inputs": [],
      "name": "OracleDataUpdated",
      "type": "event"
    },
    {
      "anonymous": false,
      "inputs": [
        {
          "indexed": false,
          "internalType": "address",
          "name": "newAddr",
          "type": "address"
        }
      ],
      "name": "OracleUpdated",
      "type": "event"
    },
    {
      "anonymous": false,
      "inputs": [
        {
          "indexed": true,
          "internalType": "address",
          "name": "previousOwner",
          "type": "address"
        },
        {
          "indexed": true,
          "internalType": "address",
          "name": "newOwner",
          "type": "address"
        }
      ],
      "name": "OwnershipTransferred",
      "type": "event"
    },
    {
      "anonymous": false,
      "inputs": [
        {
          "indexed": true,
          "internalType": "enum Market.PauseType",
          "name": "_type",
          "type": "uint8"
        },
        {
          "indexed": true,
          "internalType": "bool",
          "name": "oldState",
          "type": "bool"
        },
        {
          "indexed": true,
          "internalType": "bool",
          "name": "newState",
          "type": "bool"
        }
      ],
      "name": "PausedUpdated",
      "type": "event"
    },
    {
      "anonymous": false,
      "inputs": [
        {
          "indexed": true,
          "internalType": "address",
          "name": "from",
          "type": "address"
        },
        {
          "indexed": true,
          "internalType": "address",
          "name": "to",
          "type": "address"
        },
        {
          "indexed": false,
          "internalType": "uint256",
          "name": "value",
          "type": "uint256"
        }
      ],
      "name": "Transfer",
      "type": "event"
    },
    {
      "anonymous": false,
      "inputs": [
        {
          "indexed": true,
          "internalType": "uint256",
          "name": "valType",
          "type": "uint256"
        },
        {
          "indexed": true,
          "internalType": "uint256",
          "name": "_newVal",
          "type": "uint256"
        }
      ],
      "name": "ValueUpdated",
      "type": "event"
    },
    {
      "inputs": [],
      "name": "DOMAIN_SEPARATOR",
      "outputs": [
        {
          "internalType": "bytes32",
          "name": "",
          "type": "bytes32"
        }
      ],
      "stateMutability": "view",
      "type": "function"
    },
    {
      "inputs": [
        {
          "internalType": "uint256",
          "name": "amount",
          "type": "uint256"
        },
        {
          "internalType": "uint256",
          "name": "share",
          "type": "uint256"
        }
      ],
      "name": "addCollateral",
      "outputs": [],
      "stateMutability": "nonpayable",
      "type": "function"
    },
    {
      "inputs": [
        {
          "internalType": "address",
          "name": "",
          "type": "address"
        },
        {
          "internalType": "address",
          "name": "",
          "type": "address"
        }
      ],
      "name": "allowance",
      "outputs": [
        {
          "internalType": "uint256",
          "name": "",
          "type": "uint256"
        }
      ],
      "stateMutability": "view",
      "type": "function"
    },
    {
      "inputs": [
        {
          "internalType": "address",
          "name": "",
          "type": "address"
        },
        {
          "internalType": "address",
          "name": "",
          "type": "address"
        }
      ],
      "name": "allowanceBorrow",
      "outputs": [
        {
          "internalType": "uint256",
          "name": "",
          "type": "uint256"
        }
      ],
      "stateMutability": "view",
      "type": "function"
    },
    {
      "inputs": [
        {
          "internalType": "address",
          "name": "spender",
          "type": "address"
        },
        {
          "internalType": "uint256",
          "name": "amount",
          "type": "uint256"
        }
      ],
      "name": "approve",
      "outputs": [
        {
          "internalType": "bool",
          "name": "",
          "type": "bool"
        }
      ],
      "stateMutability": "nonpayable",
      "type": "function"
    },
    {
      "inputs": [
        {
          "internalType": "address",
          "name": "spender",
          "type": "address"
        },
        {
          "internalType": "uint256",
          "name": "amount",
          "type": "uint256"
        }
      ],
      "name": "approveBorrow",
      "outputs": [
        {
          "internalType": "bool",
          "name": "",
          "type": "bool"
        }
      ],
      "stateMutability": "nonpayable",
      "type": "function"
    },
    {
      "inputs": [],
      "name": "asset",
      "outputs": [
        {
          "internalType": "contract IERC20",
          "name": "",
          "type": "address"
        }
      ],
      "stateMutability": "view",
      "type": "function"
    },
    {
      "inputs": [],
      "name": "assetId",
      "outputs": [
        {
          "internalType": "uint256",
          "name": "",
          "type": "uint256"
        }
      ],
      "stateMutability": "view",
      "type": "function"
    },
    {
      "inputs": [
        {
          "internalType": "address",
          "name": "",
          "type": "address"
        }
      ],
      "name": "balanceOf",
      "outputs": [
        {
          "internalType": "uint256",
          "name": "",
          "type": "uint256"
        }
      ],
      "stateMutability": "view",
      "type": "function"
    },
    {
      "inputs": [
        {
          "internalType": "uint256",
          "name": "amount",
          "type": "uint256"
        }
      ],
      "name": "borrow",
      "outputs": [
        {
          "internalType": "uint256",
          "name": "part",
          "type": "uint256"
        },
        {
          "internalType": "uint256",
          "name": "share",
          "type": "uint256"
        }
      ],
      "stateMutability": "nonpayable",
      "type": "function"
    },
    {
      "inputs": [],
      "name": "callerFee",
      "outputs": [
        {
          "internalType": "uint256",
          "name": "",
          "type": "uint256"
        }
      ],
      "stateMutability": "view",
      "type": "function"
    },
    {
      "inputs": [],
      "name": "claimOwnership",
      "outputs": [],
      "stateMutability": "nonpayable",
      "type": "function"
    },
    {
      "inputs": [],
      "name": "collateral",
      "outputs": [
        {
          "internalType": "contract IERC20",
          "name": "",
          "type": "address"
        }
      ],
      "stateMutability": "view",
      "type": "function"
    },
    {
      "inputs": [],
      "name": "collateralId",
      "outputs": [
        {
          "internalType": "uint256",
          "name": "",
          "type": "uint256"
        }
      ],
      "stateMutability": "view",
      "type": "function"
    },
    {
      "inputs": [],
      "name": "collateralizationRate",
      "outputs": [
        {
          "internalType": "uint256",
          "name": "",
          "type": "uint256"
        }
      ],
      "stateMutability": "view",
      "type": "function"
    },
    {
      "inputs": [
        {
          "internalType": "uint256",
          "name": "borrowPart",
          "type": "uint256"
        },
        {
          "internalType": "uint256",
          "name": "collateralPartInAsset",
          "type": "uint256"
        },
        {
          "internalType": "uint256",
          "name": "ratesPrecision",
          "type": "uint256"
        }
      ],
      "name": "computeClosingFactor",
      "outputs": [
        {
          "internalType": "uint256",
          "name": "",
          "type": "uint256"
        }
      ],
      "stateMutability": "view",
      "type": "function"
    },
    {
      "inputs": [
        {
          "internalType": "address",
          "name": "user",
          "type": "address"
        },
        {
          "internalType": "uint256",
          "name": "_exchangeRate",
          "type": "uint256"
        }
      ],
      "name": "computeLiquidatorReward",
      "outputs": [
        {
          "internalType": "uint256",
          "name": "",
          "type": "uint256"
        }
      ],
      "stateMutability": "view",
      "type": "function"
    },
    {
      "inputs": [
        {
          "internalType": "address",
          "name": "user",
          "type": "address"
        },
        {
          "internalType": "uint256",
          "name": "_exchangeRate",
          "type": "uint256"
        }
      ],
      "name": "computeTVLInfo",
      "outputs": [
        {
          "internalType": "uint256",
          "name": "amountToSolvency",
          "type": "uint256"
        },
        {
          "internalType": "uint256",
          "name": "minTVL",
          "type": "uint256"
        },
        {
          "internalType": "uint256",
          "name": "maxTVL",
          "type": "uint256"
        }
      ],
      "stateMutability": "view",
      "type": "function"
    },
    {
      "inputs": [],
      "name": "conservator",
      "outputs": [
        {
          "internalType": "address",
          "name": "",
          "type": "address"
        }
      ],
      "stateMutability": "view",
      "type": "function"
    },
    {
      "inputs": [],
      "name": "eip712Domain",
      "outputs": [
        {
          "internalType": "bytes1",
          "name": "fields",
          "type": "bytes1"
        },
        {
          "internalType": "string",
          "name": "name",
          "type": "string"
        },
        {
          "internalType": "string",
          "name": "version",
          "type": "string"
        },
        {
          "internalType": "uint256",
          "name": "chainId",
          "type": "uint256"
        },
        {
          "internalType": "address",
          "name": "verifyingContract",
          "type": "address"
        },
        {
          "internalType": "bytes32",
          "name": "salt",
          "type": "bytes32"
        },
        {
          "internalType": "uint256[]",
          "name": "extensions",
          "type": "uint256[]"
        }
      ],
      "stateMutability": "view",
      "type": "function"
    },
    {
      "inputs": [],
      "name": "exchangeRate",
      "outputs": [
        {
          "internalType": "uint256",
          "name": "",
          "type": "uint256"
        }
      ],
      "stateMutability": "view",
      "type": "function"
    },
    {
      "inputs": [],
      "name": "leverageExecutor",
      "outputs": [
        {
          "internalType": "contract ILeverageExecutor",
          "name": "",
          "type": "address"
        }
      ],
      "stateMutability": "view",
      "type": "function"
    },
    {
      "inputs": [],
      "name": "liquidationBonusAmount",
      "outputs": [
        {
          "internalType": "uint256",
          "name": "",
          "type": "uint256"
        }
      ],
      "stateMutability": "view",
      "type": "function"
    },
    {
      "inputs": [],
      "name": "liquidationCollateralizationRate",
      "outputs": [
        {
          "internalType": "uint256",
          "name": "",
          "type": "uint256"
        }
      ],
      "stateMutability": "view",
      "type": "function"
    },
    {
      "inputs": [],
      "name": "liquidationMultiplier",
      "outputs": [
        {
          "internalType": "uint256",
          "name": "",
          "type": "uint256"
        }
      ],
      "stateMutability": "view",
      "type": "function"
    },
    {
      "inputs": [],
      "name": "maxLiquidatorReward",
      "outputs": [
        {
          "internalType": "uint256",
          "name": "",
          "type": "uint256"
        }
      ],
      "stateMutability": "view",
      "type": "function"
    },
    {
      "inputs": [],
      "name": "minLiquidatorReward",
      "outputs": [
        {
          "internalType": "uint256",
          "name": "",
          "type": "uint256"
        }
      ],
      "stateMutability": "view",
      "type": "function"
    },
    {
      "inputs": [
        {
          "internalType": "address",
          "name": "owner",
          "type": "address"
        }
      ],
      "name": "nonces",
      "outputs": [
        {
          "internalType": "uint256",
          "name": "",
          "type": "uint256"
        }
      ],
      "stateMutability": "view",
      "type": "function"
    },
    {
      "inputs": [],
      "name": "oracle",
      "outputs": [
        {
          "internalType": "contract IOracle",
          "name": "",
          "type": "address"
        }
      ],
      "stateMutability": "view",
      "type": "function"
    },
    {
      "inputs": [],
      "name": "oracleData",
      "outputs": [
        {
          "internalType": "bytes",
          "name": "",
          "type": "bytes"
        }
      ],
      "stateMutability": "view",
      "type": "function"
    },
    {
      "inputs": [],
      "name": "owner",
      "outputs": [
        {
          "internalType": "address",
          "name": "",
          "type": "address"
        }
      ],
      "stateMutability": "view",
      "type": "function"
    },
    {
      "inputs": [
        {
          "internalType": "enum Market.PauseType",
          "name": "pauseProp",
          "type": "uint8"
        }
      ],
      "name": "pauseOptions",
      "outputs": [
        {
          "internalType": "bool",
          "name": "pauseStatus",
          "type": "bool"
        }
      ],
      "stateMutability": "view",
      "type": "function"
    },
    {
      "inputs": [],
      "name": "pendingOwner",
      "outputs": [
        {
          "internalType": "address",
          "name": "",
          "type": "address"
        }
      ],
      "stateMutability": "view",
      "type": "function"
    },
    {
      "inputs": [],
      "name": "penrose",
      "outputs": [
        {
          "internalType": "contract IPenrose",
          "name": "",
          "type": "address"
        }
      ],
      "stateMutability": "view",
      "type": "function"
    },
    {
      "inputs": [
        {
          "internalType": "address",
          "name": "owner",
          "type": "address"
        },
        {
          "internalType": "address",
          "name": "spender",
          "type": "address"
        },
        {
          "internalType": "uint256",
          "name": "value",
          "type": "uint256"
        },
        {
          "internalType": "uint256",
          "name": "deadline",
          "type": "uint256"
        },
        {
          "internalType": "uint8",
          "name": "v",
          "type": "uint8"
        },
        {
          "internalType": "bytes32",
          "name": "r",
          "type": "bytes32"
        },
        {
          "internalType": "bytes32",
          "name": "s",
          "type": "bytes32"
        }
      ],
      "name": "permit",
      "outputs": [],
      "stateMutability": "nonpayable",
      "type": "function"
    },
    {
      "inputs": [
        {
          "internalType": "bytes",
          "name": "data",
          "type": "bytes"
        },
        {
          "internalType": "uint16",
          "name": "actionType",
          "type": "uint16"
        }
      ],
      "name": "permitAction",
      "outputs": [],
      "stateMutability": "nonpayable",
      "type": "function"
    },
    {
      "inputs": [
        {
          "internalType": "address",
          "name": "owner",
          "type": "address"
        },
        {
          "internalType": "address",
          "name": "spender",
          "type": "address"
        },
        {
          "internalType": "uint256",
          "name": "value",
          "type": "uint256"
        },
        {
          "internalType": "uint256",
          "name": "deadline",
          "type": "uint256"
        },
        {
          "internalType": "uint8",
          "name": "v",
          "type": "uint8"
        },
        {
          "internalType": "bytes32",
          "name": "r",
          "type": "bytes32"
        },
        {
          "internalType": "bytes32",
          "name": "s",
          "type": "bytes32"
        }
      ],
      "name": "permitBorrow",
      "outputs": [],
      "stateMutability": "nonpayable",
      "type": "function"
    },
    {
      "inputs": [],
      "name": "protocolFee",
      "outputs": [
        {
          "internalType": "uint256",
          "name": "",
          "type": "uint256"
        }
      ],
      "stateMutability": "view",
      "type": "function"
    },
    {
      "inputs": [],
      "name": "rateTimestamp",
      "outputs": [
        {
          "internalType": "uint256",
          "name": "",
          "type": "uint256"
        }
      ],
      "stateMutability": "view",
      "type": "function"
    },
    {
      "inputs": [],
      "name": "rateValidDuration",
      "outputs": [
        {
          "internalType": "uint256",
          "name": "",
          "type": "uint256"
        }
      ],
      "stateMutability": "view",
      "type": "function"
    },
    {
      "inputs": [
        {
          "internalType": "uint256",
          "name": "share",
          "type": "uint256"
        }
      ],
      "name": "removeCollateral",
      "outputs": [],
      "stateMutability": "nonpayable",
      "type": "function"
    },
    {
      "inputs": [
        {
          "internalType": "uint256",
          "name": "part",
          "type": "uint256"
        }
      ],
      "name": "repay",
      "outputs": [
        {
          "internalType": "uint256",
          "name": "amount",
          "type": "uint256"
        }
      ],
      "stateMutability": "nonpayable",
      "type": "function"
    },
    {
      "inputs": [
        {
          "internalType": "uint256",
          "name": "amount",
          "type": "uint256"
        },
        {
          "internalType": "address",
          "name": "to",
          "type": "address"
        }
      ],
      "name": "rescueEth",
      "outputs": [],
      "stateMutability": "nonpayable",
      "type": "function"
    },
    {
      "inputs": [
        {
          "internalType": "contract ILeverageExecutor",
          "name": "_executor",
          "type": "address"
        }
      ],
      "name": "setLeverageExecutor",
      "outputs": [],
      "stateMutability": "nonpayable",
      "type": "function"
    },
    {
      "inputs": [
        {
          "internalType": "contract IOracle",
          "name": "_oracle",
          "type": "address"
        },
        {
          "internalType": "bytes",
          "name": "_oracleData",
          "type": "bytes"
        },
        {
          "internalType": "address",
          "name": "_conservator",
          "type": "address"
        },
        {
          "internalType": "uint256",
          "name": "_callerFee",
          "type": "uint256"
        },
        {
          "internalType": "uint256",
          "name": "_protocolFee",
          "type": "uint256"
        },
        {
          "internalType": "uint256",
          "name": "_liquidationBonusAmount",
          "type": "uint256"
        },
        {
          "internalType": "uint256",
          "name": "_minLiquidatorReward",
          "type": "uint256"
        },
        {
          "internalType": "uint256",
          "name": "_maxLiquidatorReward",
          "type": "uint256"
        },
        {
          "internalType": "uint256",
          "name": "_totalBorrowCap",
          "type": "uint256"
        },
        {
          "internalType": "uint256",
          "name": "_collateralizationRate",
          "type": "uint256"
        },
        {
          "internalType": "uint256",
          "name": "_liquidationCollateralizationRate",
          "type": "uint256"
        }
      ],
      "name": "setMarketConfig",
      "outputs": [],
      "stateMutability": "nonpayable",
      "type": "function"
    },
    {
      "inputs": [],
      "name": "totalBorrow",
      "outputs": [
        {
          "internalType": "uint128",
          "name": "elastic",
          "type": "uint128"
        },
        {
          "internalType": "uint128",
          "name": "base",
          "type": "uint128"
        }
      ],
      "stateMutability": "view",
      "type": "function"
    },
    {
      "inputs": [],
      "name": "totalBorrowCap",
      "outputs": [
        {
          "internalType": "uint256",
          "name": "",
          "type": "uint256"
        }
      ],
      "stateMutability": "view",
      "type": "function"
    },
    {
      "inputs": [],
      "name": "totalCollateralShare",
      "outputs": [
        {
          "internalType": "uint256",
          "name": "",
          "type": "uint256"
        }
      ],
      "stateMutability": "view",
      "type": "function"
    },
    {
      "inputs": [],
      "name": "totalSupply",
      "outputs": [
        {
          "internalType": "uint256",
          "name": "",
          "type": "uint256"
        }
      ],
      "stateMutability": "view",
      "type": "function"
    },
    {
      "inputs": [
        {
          "internalType": "address",
          "name": "to",
          "type": "address"
        },
        {
          "internalType": "uint256",
          "name": "amount",
          "type": "uint256"
        }
      ],
      "name": "transfer",
      "outputs": [
        {
          "internalType": "bool",
          "name": "",
          "type": "bool"
        }
      ],
      "stateMutability": "nonpayable",
      "type": "function"
    },
    {
      "inputs": [
        {
          "internalType": "address",
          "name": "from",
          "type": "address"
        },
        {
          "internalType": "address",
          "name": "to",
          "type": "address"
        },
        {
          "internalType": "uint256",
          "name": "amount",
          "type": "uint256"
        }
      ],
      "name": "transferFrom",
      "outputs": [
        {
          "internalType": "bool",
          "name": "",
          "type": "bool"
        }
      ],
      "stateMutability": "nonpayable",
      "type": "function"
    },
    {
      "inputs": [
        {
          "internalType": "address",
          "name": "newOwner",
          "type": "address"
        },
        {
          "internalType": "bool",
          "name": "direct",
          "type": "bool"
        },
        {
          "internalType": "bool",
          "name": "renounce",
          "type": "bool"
        }
      ],
      "name": "transferOwnership",
      "outputs": [],
      "stateMutability": "nonpayable",
      "type": "function"
    },
    {
      "inputs": [],
      "name": "updateExchangeRate",
      "outputs": [
        {
          "internalType": "bool",
          "name": "updated",
          "type": "bool"
        },
        {
          "internalType": "uint256",
          "name": "rate",
          "type": "uint256"
        }
      ],
      "stateMutability": "nonpayable",
      "type": "function"
    },
    {
      "inputs": [
        {
          "internalType": "enum Market.PauseType",
          "name": "_type",
          "type": "uint8"
        },
        {
          "internalType": "bool",
          "name": "val",
          "type": "bool"
        }
      ],
      "name": "updatePause",
      "outputs": [],
      "stateMutability": "nonpayable",
      "type": "function"
    },
    {
      "inputs": [
        {
          "internalType": "address",
          "name": "",
          "type": "address"
        }
      ],
      "name": "userBorrowPart",
      "outputs": [
        {
          "internalType": "uint256",
          "name": "",
          "type": "uint256"
        }
      ],
      "stateMutability": "view",
      "type": "function"
    },
    {
      "inputs": [
        {
          "internalType": "address",
          "name": "",
          "type": "address"
        }
      ],
      "name": "userCollateralShare",
      "outputs": [
        {
          "internalType": "uint256",
          "name": "",
          "type": "uint256"
        }
      ],
      "stateMutability": "view",
      "type": "function"
    },
    {
      "inputs": [],
      "name": "yieldBox",
      "outputs": [
        {
          "internalType": "contract YieldBox",
          "name": "",
          "type": "address"
        }
      ],
      "stateMutability": "view",
      "type": "function"
    },
    {
      "stateMutability": "payable",
      "type": "receive"
    }
  ],
  "bytecode": "0x6101608060405234620004da57610120816200411e8038038091620000258285620005da565b833981010312620004da576200003b81620005fe565b906200004a60208201620005fe565b6200005860408301620005fe565b60608301516200006b60808501620005fe565b9460a08501519160c08601519360018060a01b0385168503620004da5761010060e08801519701519760405193620000a385620005be565b60078552664f726967696e7360c81b602086015260405194620000c686620005be565b60018652603160f81b6020870152620000df8162000650565b61012052620000ee86620007f4565b6101405260208151910120948560e0526020815191012080610100524660a052604051957f8b73c3c69bb8fe3d512ecc4cf759cc79239f7b179b0ffacaa9a75d522b39400f6020880152604087015260608601524660808601523060a086015260a085528460c081011060018060401b0360c087011117620005a85760c0858101604052855160208701206080523090526007546001600160a01b031916903360007f8be0079c531659141344cd1fd0a4f28419497f9722a3daafe3b4186f6b6457e08180a362013880601d5562015f90601e55612710601f55612ee060225560016026819055336001600160a01b03199081169093176001600160a01b039283169081176007556000908152602760205260409020805460ff199081169092179055600b805490931699821699909917909155169283156200059457506001600160a01b0316801562000582576001600160a01b038516156200058257620186a08811620005705760018060a01b0319600f541617600f5560105560018060a01b0319600d541617600d55600e5560018060a01b03811660018060a01b03196011541617601155604051809263d6d7d52560e01b825260206004830152600090601254620002bd8162000613565b9182602486015260018216918260001462000550575050600114620004f4575b50604092908290039082906000906001600160a01b03165af1908115620004e85760009060009262000499575b501562000425578015620003e05780601355426015557f9f9192b5edb17356c524e08d9e025c8e2f6307e6ea52fb7968faa3081f51c3c8600080a25b8015620003d0575b60245560205562015180601455600754600a80546001600160a01b0319166001600160a01b03929092169190911790556040516137aa908162000974823960805181612cb4015260a05181612d7f015260c05181612c7e015260e05181612d0301526101005181612d29015261012051816112a6015261014051816112d00152f35b50670de0b6b3a76400006200034e565b60405162461bcd60e51b815260206004820152601460248201527f4d61726b65743a20696e76616c696420726174650000000000000000000000006044820152606490fd5b5060155460145481018091116200048357421115620003465760405162461bcd60e51b815260206004820152601460248201527f4d61726b65743a207261746520746f6f206f6c640000000000000000000000006044820152606490fd5b634e487b7160e01b600052601160045260246000fd5b9150506040813d604011620004df575b81620004b860409383620005da565b81010312620004da578051908115158203620004da576020015190386200030a565b600080fd5b3d9150620004a9565b6040513d6000823e3d90fd5b6012600090815291507fbb8a6a4669ba250d26cd7a459eca9d215f8307e33aebe50379bc5a3617ec34445b81831062000535575050810160440181620002dd565b8054604484880101528593506020909201916001016200051f565b1660448086019190915291151560051b84019091019150829050620002dd565b60405163f1640ae160e01b8152600490fd5b6040516316d2b9ed60e11b8152600490fd5b60c06004916316d2b9ed60e11b8282015201fd5b634e487b7160e01b600052604160045260246000fd5b604081019081106001600160401b03821117620005a857604052565b601f909101601f19168101906001600160401b03821190821017620005a857604052565b51906001600160a01b0382168203620004da57565b90600182811c9216801562000645575b60208310146200062f57565b634e487b7160e01b600052602260045260246000fd5b91607f169162000623565b805160209081811015620006ed5750601f8251116200068c57808251920151908083106200067d57501790565b82600019910360031b1b161790565b90604051809263305a27a960e01b82528060048301528251908160248401526000935b828510620006d3575050604492506000838284010152601f80199101168101030190fd5b8481018201518686016044015293810193859350620006af565b9192916001600160401b038111620005a8576000916200070e835462000613565b601f8111620007c0575b5080601f83116001146200075857508293948293926200074c575b50508160011b916000199060031b1c191617905560ff90565b01519050388062000733565b90601f198316958480528285209285905b888210620007a7575050836001959697106200078d575b505050811b01905560ff90565b015160001960f88460031b161c1916905538808062000780565b8060018596829496860151815501950193019062000769565b838052601f828520910160051c810190601f840160051c015b818110620007e8575062000718565b848155600101620007d9565b805160209081811015620008825750601f8251116200082157808251920151908083106200067d57501790565b90604051809263305a27a960e01b82528060048301528251908160248401526000935b82851062000868575050604492506000838284010152601f80199101168101030190fd5b848101820151868601604401529381019385935062000844565b9192916001600160401b038111620005a857600191620008a3835462000613565b601f81116200093a575b5080601f8311600114620008ed575081929394600092620008e1575b5050600019600383901b1c191690821b17905560ff90565b015190503880620008c9565b90601f198316958460005282600020926000905b8882106200092257505083859697106200078d57505050811b01905560ff90565b80878596829496860151815501950193019062000901565b600084815284601f848320930160051c830192601f860160051c015b8381106200096757505050620008ad565b8281550185906200095656fe608060409080825260049081361015610023575b505050361561002157600080fd5b005b60009260e08435811c928362a02a20146121095750826302ce728f146120e0578263078dfbe714611fd3578263095ea7b314611fa95782630c4e84f014611e9257826318160ddd14611e775782631c9e379b14611e3f5782631da8bf1014611d8257826323b872dd14611be75782633237c15814611ac0578263331960ff14611aa157826334d441d014611a825782633644e51514611a65578263371fd8e6146117f157826337b6b7b9146117d257826338d52e0f146117a95782633ba0b9a91461178a5782633f741adb1461176157826340626d8b1461174257826344de240a14611723578263473e3ce71461170457826348e4163e146116cc5782634e71e0c814611617578263529898f2146115f857826357935462146115d95782636c3d8b8f146115b057826370a0823114611578578263727785471461154057826374645ff31461146d5782637dc0d1d0146114445782637ecebe001461140c5782637fa0b84e146113db5782638285ef40146113aa57826384b0196e1461128e5782638c5d0ed31461126f5782638da5cb5b14611246578263910dd7c814610fcd57826399a9702814610f9d5782639e15e89f14610f62578263a8f35adf14610d15578263a9059cbb14610c3a578263b0e21e8a14610c1b578263b25ea8fb14610bc3578263bb4cfe3b14610ba5578263c5ebeaec14610b3f578263ce8849ed14610b16578263d3fb2a38146105e6578263d505accf1461046e57508163d8dfeb4514610445578163da863f0e1461041c578163dd62ed3e146103ce578163de406577146103a5578163e0996cb614610386578163e30c39781461035d578163ea64dd561461033e578163eec0f42e1461031f575063ef2b234a146102a75780610013565b3461031b57602036600319011261031b57356001600160a01b0381811691829003610317576102db8160075416331461231e565b816023549182167ffb4fd7114609dd603b57adbc2082205bfbbcabf9265c4b437b472f5c592b8cd78580a36001600160a01b0319161760235580f35b8280fd5b5080fd5b83903461031b578160031936011261031b57602090600e549051908152f35b83903461031b578160031936011261031b576020906021549051908152f35b83903461031b578160031936011261031b5760085490516001600160a01b039091168152602090f35b83903461031b578160031936011261031b57602090601f549051908152f35b83903461031b578160031936011261031b57600b5490516001600160a01b039091168152602090f35b91905034610317578160031936011261031757602092826103ed61214f565b916103f6612165565b6001600160a01b0393841682529386522091166000908152908352819020549051908152f35b83903461031b578160031936011261031b5760235490516001600160a01b039091168152602090f35b83903461031b578160031936011261031b57600d5490516001600160a01b039091168152602090f35b838591346103175761047f3661218a565b92939794968492919242116105a3579261054b926105439260428d8c8c8c9960018060a01b03809b169b8c9384600052600660205285600020908154916104c583612fc7565b90558d87519560208701977f9cc5629bbe7baa98a89f6f8c2c396b83ab62dbb6cbb12f17f1d6ba7e6f53e266895260008a890152606088015216608086015260a085015260c084015281830152815261051d81612286565b519020610528612c7b565b91519161190160f01b83526002830152602282015220612f42565b919091612e43565b1603610560575061055d939450613024565b80f35b606490602087519162461bcd60e51b8352820152601e60248201527f45524332305065726d69743a20696e76616c6964207369676e617475726500006044820152fd5b8a5162461bcd60e51b8152602081880152601d60248201527f45524332305065726d69743a206578706972656420646561646c696e650000006044820152606490fd5b8482853461031757610160366003190112610317576001600160a01b03813581811690819003610b12576024916001600160401b038335818111610b0e5736602382011215610b0e5780860135918211610b0e5736858383010111610b0e5760443593838516809503610b09576106628460075416331461231e565b80610ac6575b50848261096c575b5050508161092c575b5050606435806108ff575b50608435806108d2575b5060a435806108a6575b5060c4358061086e575b5060e43580610835575b5061010435806107ef575b506101243580610769575b506101443592836106d1578480f35b602054841061070c575050506106ec620186a08211156124fe565b8060215560086000805160206137358339815191528380a3818080808480f35b608492916020603292519362461bcd60e51b85528401528201527f4d61726b65743a206c69717569646174696f6e436f6c6c61746572616c697a616044820152711d1a5bdb94985d19481d1bdbc81cdb585b1b60721b6064820152fd5b610778620186a08211156124fe565b602154811161079f578060205560076000805160206137358339815191528680a3846106c2565b506025906020608494519362461bcd60e51b85528401528201527f4d61726b65743a20636f6c6c61746572616c697a6174696f6e5261746520746f6044820152646f2062696760d81b6064820152fd5b806018547fae6e0ab3b95f0a53ff9660a390ccedcbbf1f2355dce974a9841af106fddcfaba8780a38060185560066000805160206137358339815191528680a3846106b7565b610843620186a082106124fe565b610850601d5482116124fe565b80601e5560056000805160206137358339815191528680a3846106ac565b61087c620186a082106124fe565b610889601e5482106124fe565b80601d55826000805160206137358339815191528680a3846106a2565b6108b4620186a082106124fe565b80601f5560036000805160206137358339815191528680a384610698565b6108e1620186a08211156124fe565b80601c5560026000805160206137358339815191528680a38461068e565b61090e620186a08211156124fe565b80601b5560016000805160206137358339815191528680a384610684565b81600a549182167f5a62d22209e370e38eea92cfddcd228e656e6ec139243392a760a7769f5877fd8880a36001600160a01b03191617600a558480610679565b8291610979601254612208565b601f8111610a67575b508990601f84116001146109e7578a936109da575b5050508160011b916000199060031b1c1916176012555b7fa6f004921c944d4b8bf6e38462b00f36a58d62495d56b51f571ab78f732c98158680a1868084610670565b0101359050848980610997565b60128b52601f198416945060008051602061371583398151915292509087908b60205b878210610a485750508460019610610a2c575b50505050811b016012556109ae565b60001960f88660031b161c199201013516905588808681610a1d565b8285019093013585556001949094019389929182019190810190610a0a565b60128b529092509050600080516020613715833981519152601f840160051c810160208510610abf575b91849391601f8994920160051c01905b818110610aae5750610982565b8b8155859450889350600101610aa1565b5080610a91565b601180546001600160a01b0319168217905587519081527f3df77beb5db05fcdd70a30fc8adf3f83f9501b68579455adbd100b818094039490602090a188610668565b600080fd5b8780fd5b8480fd5b84823461031b578160031936011261031b57600a5490516001600160a01b039091168152602090f35b50828434610ba2576020366003190112610ba25750610b8290600080526009602052610b7260ff846000205416156130ab565b610b7a61284e565b505035613269565b610b96610b916013543361314e565b6130e8565b82519182526020820152f35b80fd5b84823461031b578160031936011261031b5760209081549051908152f35b5090503461031757806003193601126103175782808080610be2612165565b610bf760018060a01b0360075416331461231e565b8635905af1610c0461307b565b5015610c0e578280f35b516312171d8360e31b8152fd5b84823461031b578160031936011261031b57602090601c549051908152f35b84823461031b578060031936011261031b57602091610c5761214f565b82602435928315801590610d03575b610c96575b50519182526001600160a01b0316903390600080516020613755833981519152908590a35160018152f35b3381526003865281812054610cad85821015612da5565b6001600160a01b038416908533839003610cca575b505050610c6b565b610cde91610cd9841515612dea565b612595565b3383526003885283832055815220610cf78382546125a2565b90558285808085610cc2565b50336001600160a01b03841614610c66565b5083833461031b578260031936011261031b57803590602435936002600052602060098152610d4b60ff836000205416156130ab565b85933386526027825260ff838720541615610f5357859695949515610ece575b8515610e43575b50601a9033855252808320610d888582546125a2565b9055610d96846017546125a2565b601755600b54600e546001600160a01b0390911692833b15610b12578251630208d92960e11b8152339181019182523060208301526040820192909252606081018690529092849184919082908490829060800103925af1908115610e3a5750610e26575b505033337f9ed03113de523cebfe5e49d5f8e12894b1c0d42ce805990461726444c90eab878480a480f35b610e2f90612242565b61031b578183610dfb565b513d84823e3d90fd5b9080955060018060a01b03600b5416916064600e5485519485938492638eb22cdd60e01b84528984015260248301528860448301525afa908115610ec4578491610e91575b5093601a610d72565b809450858092503d8311610ebd575b610eaa81836122a2565b81010312610b0957601a85935190610e88565b503d610ea0565b82513d86823e3d90fd5b945060018060a01b03600b541681600e546064855180948193638eb22cdd60e01b8352898301528a60248301528960448301525afa908115610f49578591610f18575b5094610d6b565b809550828092503d8311610f42575b610f3181836122a2565b81010312610b095785935187610f11565b503d610f27565b83513d87823e3d90fd5b50505163ea8e4eb560e01b8152fd5b84823461031b578060031936011261031b57606090610f8b610f8261214f565b602435906126e1565b91929081519384526020840152820152f35b84823461031b578060031936011261031b57602090610fc6610fbd61214f565b60243590612b45565b9051908152f35b929150346112425780600319360112611242578135926001600160401b038411610b125736602385011215610b1257838301359261100a84612303565b94611017845196876122a2565b84865286602091828801963660248284010111610317578060248593018937880101526024359361ffff8516809503610b0e5761010095868880518101031261123e5761106390612841565b9361106f828901612e2f565b9061107c60608a01612e2f565b9860808101519860a08201519860c08301519160ff8316830361123a57838501519301516001600160a01b039586169c86169a9094904281106111f7579260428e9796938a8f948f978f61116d9a976105439a8f928f906000146111d0577f9cc5629bbe7baa98a89f6f8c2c396b83ab62dbb6cbb12f17f1d6ba7e6f53e266975b8160005260068852846000209485549561111687612fc7565b90558051988901998a528801526060870152608086015260a085015260c084015281830152815261114681612286565b519020611151612c7b565b908a519161190160f01b83526002830152602282015220612f42565b160361118f575050506000146111865761055d92613024565b61055d92612fd6565b5162461bcd60e51b815291820152601e60248201527f45524332305065726d69743a20696e76616c6964207369676e61747572650000604482015260649150fd5b7f5c9ba5f0d101616843d7918f48ea857d6da95e04ac6d719e105e50a355e7c5d6976110fd565b875162461bcd60e51b8152808b018a9052601d60248201527f45524332305065726d69743a206578706972656420646561646c696e650000006044820152606490fd5b8d80fd5b8880fd5b8380fd5b84823461031b578160031936011261031b5760075490516001600160a01b039091168152602090f35b84823461031b578160031936011261031b57602090601d549051908152f35b83828634610ba25780600319360112610ba2576112ca7f0000000000000000000000000000000000000000000000000000000000000000612369565b906112f47f0000000000000000000000000000000000000000000000000000000000000000612462565b92805193602093848601968688106001600160401b038911176113955750959361134b838293878b99965286865261133e82519a8b9a600f60f81b8c5280878d01528b01906122c3565b91898303908a01526122c3565b924660608801523060808801528460a088015286840360c088015251928381520193925b82811061137e57505050500390f35b83518552869550938101939281019260010161136f565b604190634e487b7160e01b6000525260246000fd5b508334610ba25780600319360112610ba2575060165481516001600160801b038216815260809190911c6020820152f35b84823461031b578060031936011261031b576020906114056113fb61214f565b6024359033612fd6565b5160018152f35b84823461031b57602036600319011261031b5760209181906001600160a01b0361143461214f565b1681526006845220549051908152f35b84823461031b578160031936011261031b5760115490516001600160a01b039091168152602090f35b84823461031b578160031936011261031b578051908260125461148f81612208565b8085529060019081811690811561151857506001146114d1575b5050506114bb826114cd9403836122a2565b519182916020835260208301906122c3565b0390f35b60128352602095506000805160206137158339815191525b82841061150557505050826114cd946114bb92820101946114a9565b80548685018801529286019281016114e9565b6114cd97506114bb9450602092508693915060ff191682840152151560051b820101946114a9565b848285346103175760203660031901126103175735916009831015610ba2575060ff61156d6020936121d9565b541690519015158152f35b84823461031b57602036600319011261031b5760209181906001600160a01b036115a061214f565b1681526003845220549051908152f35b84823461031b578160031936011261031b57600c5490516001600160a01b039091168152602090f35b84823461031b578160031936011261031b57602090601e549051908152f35b84823461031b578160031936011261031b576020906022549051908152f35b509050346103175782600319360112610317576008546001600160a01b03929091838316919033839003611689575050806007549384167f8be0079c531659141344cd1fd0a4f28419497f9722a3daafe3b4186f6b6457e08680a36001600160a01b0319928316176007551660085580f35b906020606492519162461bcd60e51b8352820152602060248201527f4f776e61626c653a2063616c6c657220213d2070656e64696e67206f776e65726044820152fd5b84823461031b57602036600319011261031b5760209181906001600160a01b036116f461214f565b1681526019845220549051908152f35b84823461031b578160031936011261031b576020906017549051908152f35b84823461031b578160031936011261031b576020906010549051908152f35b84823461031b578160031936011261031b576020906018549051908152f35b83828634610ba2576060366003190112610ba25750610fc66020926044359060243590356125c8565b84823461031b578160031936011261031b576020906013549051908152f35b84823461031b578160031936011261031b57600f5490516001600160a01b039091168152602090f35b84823461031b578160031936011261031b576020906014549051908152f35b509050346103175760209283600319360112610ba25782359060016000526009855261182460ff846000205416156130ab565b3381526027855260ff838220541615610f535761183f61284e565b50503381526019855282812054808311611a5d575b508115611a4e57611863613128565b9360008685516118728161226b565b828152015284860180516001600160801b03908116611a025784965b8161189e818a1682845116613696565b1681526118b082871683855116613696565b9282841690525116836016549260018060801b03199060801b1692161717601655338252601986528382206118e6848254612595565b905560018060a01b0361191b858783600b54166010548784518096819582946311a5cc7760e31b8452309033908d8601613667565b03925af180156119f8576119cc575b50600f541690813b15610317578451632770a7eb60e21b8152309181019182526020820187905291839183919082908490829060400103925af180156119c25790859392916119a8575b5050825190815233907fc8e512d8f188ca059984b5853d2bf653da902696b8512785b182b2c813789a6e863392a451908152f35b819293506119b590612242565b610ba25790818492611974565b84513d84823e3d90fd5b6119eb90863d88116119f1575b6119e381836122a2565b810190613651565b5061192a565b503d6119d9565b86513d86823e3d90fd5b611a1c611a12828951168761253e565b8284511690612567565b9685611a38611a2e848651168b61253e565b8484511690612567565b101561188e5796611a4890612fc7565b9661188e565b5050516369973fe360e11b8152fd5b915038611854565b84823461031b578160031936011261031b57602090610fc6612c7b565b84823461031b578160031936011261031b57602090601b549051908152f35b84823461031b578160031936011261031b576020906015549051908152f35b50905034610317576020366003190112610317578135600384526009602052611aef60ff8386205416156130ab565b611af761284e565b5050338452602760205260ff828520541615611bd9578390338252601a602052828220611b25828254612595565b9055611b3381601754612595565b6017558251938133337f8ad4d3ff00da092c7ad9a573ea4f5f6a3dffc6712dc06d3f78f49b862297c4028680a460018060a01b03600b541690600e5492823b15610b1257630208d92960e11b87523091870191825233602083015260408201939093526060810192909252849182908490829060800103925af1908115610e3a5750611bca575b5061055d610b916013543361314e565b611bd390612242565b38611bba565b505163ea8e4eb560e01b8152fd5b8482853461031757606036600319011261031757611c0361214f565b90611c0c612165565b6044359182611c48575b508351918252602094506001600160a01b03908116921690600080516020613755833981519152908590a35160018152f35b6001600160a01b0384811680885260036020908152878920549192909190611c7287831015612da5565b851693848403611c86575b50505050611c16565b838a52808352888a20338b528352888a205460018101611cef575b50509783600080516020613755833981519152959360038a94611cce8a60209e8f9a610cd9901515612dea565b9285525283832055815220611ce48582546125a2565b905591878080611c7d565b878110611d44579360038a94611cce8a60209e968f9a96611d20836000805160206137558339815191529e9c612595565b90878a528552898920338a52855289892055969e5050509450509395819550611ca1565b895162461bcd60e51b8152808301859052601860248201527745524332303a20616c6c6f77616e636520746f6f206c6f7760401b6044820152606490fd5b8385913461031757611d933661218a565b9397949690928042116105a357938693611e2d9360428d8d8d610543978e9b60018060a01b03809c169c8d9384865260066020528d87872092835493611dd885612fc7565b905588519660208801987f5c9ba5f0d101616843d7918f48ea857d6da95e04ac6d719e105e50a355e7c5d68a528a890152606088015216608086015260a085015260c084015281830152815261051d81612286565b1603610560575061055d939450612fd6565b84823461031b57602036600319011261031b5760209181906001600160a01b03611e6761214f565b168152601a845220549051908152f35b84823461031b578160031936011261031b5751908152602090f35b84828534610317578160031936011261031757803590600982101561124257611eb961217b565b600a549093906001600160a01b03163303611f6f5760ff611ed9846121d9565b54161515931515938414611f37575050808260ff611ef9611f27946121d9565b54161515827feeec81de25875ce1725479bb76f720a8defdb43dea041919ae37bb4aae9847c08780a46121d9565b9060ff8019835416911617905580f35b906020606492519162461bcd60e51b835282015260126024820152714d61726b65743a2073616d6520737461746560701b6044820152fd5b906020606492519162461bcd60e51b8352820152601460248201527313585c9ad95d0e881d5b985d5d1a1bdc9a5e995960621b6044820152fd5b84823461031b578060031936011261031b57602090611405611fc961214f565b6024359033613024565b5090503461031757606036600319011261031757611fef61214f565b91611ff861217b565b916044359283151584036120dc5760018060a01b0394859161201f8360075416331461231e565b156120c35716928315908115916120bb575b5015612080575050806007549283167f8be0079c531659141344cd1fd0a4f28419497f9722a3daafe3b4186f6b6457e08580a36001600160a01b03199182161760075560088054909116905580f35b906020606492519162461bcd60e51b835282015260156024820152744f776e61626c653a207a65726f206164647265737360581b6044820152fd5b905038612031565b93505050501660018060a01b0319600854161760085580f35b8580fd5b508334610ba25780600319360112610ba257506120fb61284e565b825191151582526020820152f35b8590833461031757806003193601126103175760209261212761214f565b61212f612165565b6001600160a01b0391821683526005865283832091168252845220548152f35b600435906001600160a01b0382168203610b0957565b602435906001600160a01b0382168203610b0957565b602435908115158203610b0957565b60e0906003190112610b09576001600160a01b03906004358281168103610b0957916024359081168103610b095790604435906064359060843560ff81168103610b09579060a4359060c43590565b60098110156121f2576000526009602052604060002090565b634e487b7160e01b600052602160045260246000fd5b90600182811c92168015612238575b602083101461222257565b634e487b7160e01b600052602260045260246000fd5b91607f1691612217565b6001600160401b03811161225557604052565b634e487b7160e01b600052604160045260246000fd5b604081019081106001600160401b0382111761225557604052565b61010081019081106001600160401b0382111761225557604052565b90601f801991011681019081106001600160401b0382111761225557604052565b919082519283825260005b8481106122ef575050826000602080949584010152601f8019910116010190565b6020818301810151848301820152016122ce565b6001600160401b03811161225557601f01601f191660200190565b1561232557565b606460405162461bcd60e51b815260206004820152602060248201527f4f776e61626c653a2063616c6c6572206973206e6f7420746865206f776e65726044820152fd5b60ff81146123a75760ff811690601f8211612395576040519161238b8361226b565b8252602082015290565b604051632cd44ac360e21b8152600490fd5b506040516000818154916123ba83612208565b80835260019380851690811561244157506001146123e3575b506123e0925003826122a2565b90565b60008080527f290decd9548b62a8d60345a988386fc84ba6bc95484008f6362f93160ef3e56394602093509091905b8183106124295750506123e09350820101386123d3565b85548784018501529485019486945091830191612412565b90506123e094506020925060ff191682840152151560051b820101386123d3565b60ff81146124845760ff811690601f8211612395576040519161238b8361226b565b50604051600081600191825461249981612208565b8084529084811690811561244157506001146124bc57506123e0925003826122a2565b9280915060005260209081600020936000915b8183106124e65750506123e09350820101386123d3565b855487840185015294850194869450918301916124cf565b1561250557565b60405162461bcd60e51b815260206004820152601160248201527013585c9ad95d0e881b9bdd081d985b1a59607a1b6044820152606490fd5b8181029291811591840414171561255157565b634e487b7160e01b600052601160045260246000fd5b8115612571570490565b634e487b7160e01b600052601260045260246000fd5b604d811161255157600a0a90565b9190820391821161255157565b9190820180921161255157565b8181039291600013801582851316918412161761255157565b60165491929161261191612602916125f8916125ee906001600160801b0383169061253e565b9060801c90612567565b936021549061253e565b61260b83612587565b90612567565b8083106126d9576126256126619184612595565b9161265c61265661264d60205461264761263e86612587565b602254906125a2565b9061253e565b61260b84612587565b91612587565b6125af565b6509184e72a0009081810291818305149015171561255157670de0b6b3a76400009182810292818405149015171561255157801561257157600160ff1b9180831460001983141661255157059060008212156126d257811461255157600003905b8082116126cd575090565b905090565b50906126c2565b505050600090565b9160018060a01b03809316916000938385526020601981526040918287205490811561283457878385516127148161226b565b828152015283516127248161226b565b88815288848083019382855261273b891515612a42565b600b54166064600e548c8552601a845289852054928a51958694859363442c159960e01b85526004850152602484015260448301525afa90811561282a578a916127f7575b506127eb9798999492601a94926127ce6127b98a6127b46127ac6127d797620186a0602454049061253e565b89549061253e565b612567565b915191946001600160801b039283169061253e565b91511690612567565b8181106127ef57035b978352522054612a8e565b9091565b5050826127e0565b90508481813d8311612823575b61280e81836122a2565b8101031261281f57516127eb612780565b8980fd5b503d612804565b86513d8c823e3d90fd5b5086955085949350505050565b51908115158203610b0957565b60018060a01b03601154169060409081519263d6d7d52560e01b84528284602092836004830152600060125461288381612208565b90816024860152600190858282169182600014612a1e5750506001146129da575b5050600083809203925af180156129cf576000948591612994575b509284156129395783156128ff5750508160135542601555817f9f9192b5edb17356c524e08d9e025c8e2f6307e6ea52fb7968faa3081f51c3c8600080a2565b60649250519062461bcd60e51b8252600482015260146024820152734d61726b65743a20696e76616c6964207261746560601b6044820152fd5b9091925061294c601554601454906125a2565b421161295a57505060135490565b60649250519062461bcd60e51b82526004820152601460248201527313585c9ad95d0e881c985d19481d1bdbc81bdb1960621b6044820152fd5b9490508385813d83116129c8575b6129ac81836122a2565b81010312610ba25750806129bf85612841565b940151386128bf565b503d6129a2565b83513d6000823e3d90fd5b915060126000528560002091866000935b838510612a03575050505082016044016000836128a4565b80548c8601604401528a97508b9650930192879082016129eb565b8195506000949193506044925060ff191682840152151560051b82010192506128a4565b15612a4957565b60405162461bcd60e51b815260206004820152601e60248201527f4d61726b65743a2065786368616e676552617465206e6f742076616c696400006044820152606490fd5b612a99821515612a42565b602060018060a01b03600b5416916064600e54604051948593849263442c159960e01b845260048401526024830152600060448301525afa908115612b3957600091612b06575b50906127b4612af2926024549061253e565b620186a0612b026020548361253e565b0491565b906020823d8211612b31575b81612b1f602093836122a2565b81010312610ba25750516127b4612ae0565b3d9150612b12565b6040513d6000823e3d90fd5b6001600160a01b03166000818152601a60205260408120549092612b6891612a8e565b918352601960205260408320548015612c75578115612c7557601654612b9c916125ee906001600160801b0383169061253e565b818110612c755782811015612c6b5781612bb591612595565b90620186a09283830292808404851490151715612c5757612bda929161260b91612595565b91601d5491601e5493612bed85856125af565b80820291848212600160ff1b821416612c57578183051490151715612c435705818482019485129112908015821691151617612c2f57508082126126cd575090565b634e487b7160e01b81526011600452602490fd5b634e487b7160e01b83526011600452602483fd5b634e487b7160e01b85526011600452602485fd5b50505050601d5490565b50505090565b307f00000000000000000000000000000000000000000000000000000000000000006001600160a01b03161480612d7c575b15612cd6577f000000000000000000000000000000000000000000000000000000000000000090565b60405160208101907f8b73c3c69bb8fe3d512ecc4cf759cc79239f7b179b0ffacaa9a75d522b39400f82527f000000000000000000000000000000000000000000000000000000000000000060408201527f000000000000000000000000000000000000000000000000000000000000000060608201524660808201523060a082015260a0815260c081018181106001600160401b038211176122555760405251902090565b507f00000000000000000000000000000000000000000000000000000000000000004614612cad565b15612dac57565b60405162461bcd60e51b815260206004820152601660248201527545524332303a2062616c616e636520746f6f206c6f7760501b6044820152606490fd5b15612df157565b60405162461bcd60e51b815260206004820152601660248201527545524332303a206e6f207a65726f206164647265737360501b6044820152606490fd5b51906001600160a01b0382168203610b0957565b60058110156121f25780612e545750565b60018103612e9c5760405162461bcd60e51b815260206004820152601860248201527745434453413a20696e76616c6964207369676e617475726560401b6044820152606490fd5b60028103612ee95760405162461bcd60e51b815260206004820152601f60248201527f45434453413a20696e76616c6964207369676e6174757265206c656e677468006044820152606490fd5b600314612ef257565b60405162461bcd60e51b815260206004820152602260248201527f45434453413a20696e76616c6964207369676e6174757265202773272076616c604482015261756560f01b6064820152608490fd5b9291906fa2a8918ca85bafe22016d0b997e4df60600160ff1b038311612fbb5791608094939160ff602094604051948552168484015260408301526060820152600093849182805260015afa15612fae5781516001600160a01b03811615612fa8579190565b50600190565b50604051903d90823e3d90fd5b50505050600090600390565b60001981146125515760010190565b7fe50de2333c10a9502fcb1d8ae13a51bbf423153dfc63c2b8997665b32154afc360018060a01b038092169160009083825260056020526040822094169384825260205284604082205580a4565b909160207f8c5be1e5ebec7d5bd14f71427d1e84f3dd0314c0f7b2291e5b200ac8c7c3b9259160018060a01b03809416938460005260048352604060002095169485600052825280604060002055604051908152a3565b3d156130a6573d9061308c82612303565b9161309a60405193846122a2565b82523d6000602084013e565b606090565b156130b257565b60405162461bcd60e51b815260206004820152600e60248201526d13585c9ad95d0e881c185d5cd95960921b6044820152606490fd5b156130ef57565b60405162461bcd60e51b815260206004820152601160248201527013585c9ad95d0e881a5b9cdbdb1d995b9d607a1b6044820152606490fd5b604051906131358261226b565b6016546001600160801b038116835260801c6020830152565b919060018060a01b0380600094168452602060198152604085205490811561325f57601a8152604086205480156132585781613188613128565b94600b5416916064600e54604051948593849263442c159960e01b8452600484015260248301528b60448301525afa96871561324c578097613216575b50506132076131ec6131e4613211969798620186a0602454049061253e565b83549061253e565b9561320260018060801b0394858751169061253e565b61253e565b9201511690612567565b111590565b9096508187813d8311613245575b61322e81836122a2565b81010312610ba257509451946132076131ec6131c5565b503d613224565b604051903d90823e3d90fd5b5050505050565b5060019450505050565b60003381526020916027835260409060ff82842054161561364057801561363657613292613128565b93838184516132a08161226b565b828152015284516001600160801b03959086166135ef5782955b806132ca818616828551166136af565b168252828201916132e0828916838551166136af565b8281169093525160809290921b6001600160801b031916911690811760165560185490816135d2575b5050338452601981528284206133208682546125a2565b905581835186815233907fb92cb6bca8e3270b9170930f03b17571e55791acdb1a0e9f339eec88bdb35e24843392a4600f546001600160a01b03908116803b156120dc5784516340c10f1960e01b8152306004820152602481018590529086908290604490829084905af180156135c8576135b5575b5080600f5416916010549282600b541690803b1561357657865163095ea7b360e01b8482018181526024830185905260448084018c905283526080830193926001600160401b03851181861017612255578b8a9281969282938e52519082875af19461340061307b565b9580613527575b859650859291613419613446926136c8565b8c518981019586526001600160a01b039190911660248201526044808201939093529182526064826122a2565b51925af19061345361307b565b90826134d3575b50509184939161346d61349296946136c8565b600b541690868451809781958294634d4d7cbd60e11b84523390309060048601613667565b03925af19283156134c857926134a9575b50509091565b6134bf9250803d106119f1576119e381836122a2565b905038806134a3565b9051903d90823e3d90fd5b90809250519182159283156134f1575b5083915061346d905061345a565b8293509080929181010312613523579161346d6135178796949361349298969401612841565b929496829496506134e3565b8680fd5b50855195861590888215613540575b5050859650613407565b93508094965080929597915001031261281f5791898861344682969461341961356b8a869901612841565b925050919288613536565b865162461bcd60e51b815260048101849052601860248201527714d85999505c1c1c9bdd994e881b9bc818dbdb9d1c9858dd60421b6044820152606490fd5b6135c190959195612242565b9338613396565b85513d88823e3d90fd5b116135de573880613309565b82516353977d1f60e01b8152600490fd5b8181019583613620613611613607848b51168461253e565b8486511690612567565b98836127ce818751168c61253e565b10156132ba579561363090612fc7565b956132ba565b5050809291509190565b815163ea8e4eb560e01b8152600490fd5b9190826040910312610b09576020825192015190565b9081526001600160a01b0391821660208201529116604082015260608101919091526000608082015260a00190565b6001600160801b03918216908216039190821161255157565b6001600160801b03918216908216019190821161255157565b156136cf57565b60405162461bcd60e51b815260206004820152601b60248201527f53616665417070726f76653a20617070726f7665206661696c656400000000006044820152606490fdfebb8a6a4669ba250d26cd7a459eca9d215f8307e33aebe50379bc5a3617ec3444253ac2c290fb3c37b20cfd60899ed86c0c8313905edc8ca53ec8d2b69d9919adddf252ad1be2c89b69c2b068fc378daa952ba7f163c4a11628f55a4df523b3efa264697066735822122051a2879b7fa141a3e842cf69324a731e143930d2ec1546be8e7d13f782af3b2c64736f6c63430008130033",
  "linkReferences": {},
  "deployedLinkReferences": {}
}