{
  "_format": "hh-sol-artifact-1",
  "contractName": "Penrose",
  "sourceName": "contracts/Penrose.sol",
  "abi": [
    {
      "inputs": [
        {
          "internalType": "contract YieldBox",
          "name": "_yieldBox",
          "type": "address"
        },
        {
          "internalType": "contract ICluster",
          "name": "_cluster",
          "type": "address"
        },
        {
          "internalType": "contract IERC20",
          "name": "tapToken_",
          "type": "address"
        },
        {
          "internalType": "contract IERC20",
          "name": "mainToken_",
          "type": "address"
        },
        {
          "internalType": "uint16",
          "name": "_hostLzChainId",
          "type": "uint16"
        },
        {
          "internalType": "address",
          "name": "_owner",
          "type": "address"
        }
      ],
      "stateMutability": "nonpayable",
      "type": "constructor"
    },
    {
      "inputs": [],
      "name": "AlreadyAdded",
      "type": "error"
    },
    {
      "inputs": [],
      "name": "Failed",
      "type": "error"
    },
    {
      "inputs": [],
      "name": "LengthMismatch",
      "type": "error"
    },
    {
      "inputs": [],
      "name": "NotAuthorized",
      "type": "error"
    },
    {
      "inputs": [],
      "name": "NotRegistered",
      "type": "error"
    },
    {
      "inputs": [],
      "name": "NotValid",
      "type": "error"
    },
    {
      "inputs": [],
      "name": "Paused",
      "type": "error"
    },
    {
      "inputs": [],
      "name": "Registered",
      "type": "error"
    },
    {
      "inputs": [],
      "name": "ZeroAddress",
      "type": "error"
    },
    {
      "anonymous": false,
      "inputs": [
        {
          "indexed": true,
          "internalType": "uint256",
          "name": "_oldRate",
          "type": "uint256"
        },
        {
          "indexed": true,
          "internalType": "uint256",
          "name": "_newRate",
          "type": "uint256"
        }
      ],
      "name": "BigBangEthMarketDebtRateUpdated",
      "type": "event"
    },
    {
      "anonymous": false,
      "inputs": [
        {
          "indexed": true,
          "internalType": "address",
          "name": "_oldAddress",
          "type": "address"
        },
        {
          "indexed": true,
          "internalType": "address",
          "name": "_newAddress",
          "type": "address"
        }
      ],
      "name": "BigBangEthMarketUpdated",
      "type": "event"
    },
    {
      "anonymous": false,
      "inputs": [
        {
          "indexed": true,
          "internalType": "address",
          "name": "old",
          "type": "address"
        },
        {
          "indexed": true,
          "internalType": "address",
          "name": "_new",
          "type": "address"
        }
      ],
      "name": "ClusterSet",
      "type": "event"
    },
    {
      "anonymous": false,
      "inputs": [
        {
          "indexed": true,
          "internalType": "address",
          "name": "old",
          "type": "address"
        },
        {
          "indexed": true,
          "internalType": "address",
          "name": "_new",
          "type": "address"
        }
      ],
      "name": "ConservatorUpdated",
      "type": "event"
    },
    {
      "anonymous": false,
      "inputs": [
        {
          "indexed": true,
          "internalType": "address",
          "name": "masterContract",
          "type": "address"
        },
        {
          "indexed": false,
          "internalType": "bytes",
          "name": "data",
          "type": "bytes"
        },
        {
          "indexed": true,
          "internalType": "address",
          "name": "cloneAddress",
          "type": "address"
        }
      ],
      "name": "LogDeploy",
      "type": "event"
    },
    {
      "anonymous": false,
      "inputs": [
        {
          "indexed": true,
          "internalType": "uint256",
          "name": "amount",
          "type": "uint256"
        }
      ],
      "name": "LogTwTapFeesDeposit",
      "type": "event"
    },
    {
      "anonymous": false,
      "inputs": [
        {
          "indexed": true,
          "internalType": "address",
          "name": "previousOwner",
          "type": "address"
        },
        {
          "indexed": true,
          "internalType": "address",
          "name": "newOwner",
          "type": "address"
        }
      ],
      "name": "OwnershipTransferred",
      "type": "event"
    },
    {
      "anonymous": false,
      "inputs": [
        {
          "indexed": true,
          "internalType": "bool",
          "name": "oldState",
          "type": "bool"
        },
        {
          "indexed": true,
          "internalType": "bool",
          "name": "newState",
          "type": "bool"
        }
      ],
      "name": "PausedUpdated",
      "type": "event"
    },
    {
      "anonymous": false,
      "inputs": [
        {
          "indexed": true,
          "internalType": "contract IMarket[]",
          "name": "markets",
          "type": "address[]"
        },
        {
          "indexed": true,
          "internalType": "uint256",
          "name": "timestamp",
          "type": "uint256"
        }
      ],
      "name": "ProtocolWithdrawal",
      "type": "event"
    },
    {
      "anonymous": false,
      "inputs": [
        {
          "indexed": true,
          "internalType": "bool",
          "name": "mainMarketIncluded",
          "type": "bool"
        }
      ],
      "name": "ReaccruedMarkets",
      "type": "event"
    },
    {
      "anonymous": false,
      "inputs": [
        {
          "indexed": true,
          "internalType": "address",
          "name": "location",
          "type": "address"
        },
        {
          "indexed": true,
          "internalType": "address",
          "name": "masterContract",
          "type": "address"
        }
      ],
      "name": "RegisterBigBang",
      "type": "event"
    },
    {
      "anonymous": false,
      "inputs": [
        {
          "indexed": true,
          "internalType": "address",
          "name": "location",
          "type": "address"
        },
        {
          "indexed": true,
          "internalType": "enum IPenrose.ContractType",
          "name": "risk",
          "type": "uint8"
        }
      ],
      "name": "RegisterBigBangMasterContract",
      "type": "event"
    },
    {
      "anonymous": false,
      "inputs": [
        {
          "indexed": true,
          "internalType": "address",
          "name": "location",
          "type": "address"
        }
      ],
      "name": "RegisterOrigins",
      "type": "event"
    },
    {
      "anonymous": false,
      "inputs": [
        {
          "indexed": true,
          "internalType": "address",
          "name": "location",
          "type": "address"
        },
        {
          "indexed": true,
          "internalType": "address",
          "name": "masterContract",
          "type": "address"
        }
      ],
      "name": "RegisterSingularity",
      "type": "event"
    },
    {
      "anonymous": false,
      "inputs": [
        {
          "indexed": true,
          "internalType": "address",
          "name": "location",
          "type": "address"
        },
        {
          "indexed": true,
          "internalType": "enum IPenrose.ContractType",
          "name": "risk",
          "type": "uint8"
        }
      ],
      "name": "RegisterSingularityMasterContract",
      "type": "event"
    },
    {
      "anonymous": false,
      "inputs": [
        {
          "indexed": true,
          "internalType": "uint256",
          "name": "amount",
          "type": "uint256"
        }
      ],
      "name": "TotalUsdoDebt",
      "type": "event"
    },
    {
      "anonymous": false,
      "inputs": [
        {
          "indexed": true,
          "internalType": "address",
          "name": "usdoToken",
          "type": "address"
        },
        {
          "indexed": true,
          "internalType": "uint256",
          "name": "assetId",
          "type": "uint256"
        }
      ],
      "name": "UsdoTokenUpdated",
      "type": "event"
    },
    {
      "inputs": [
        {
          "internalType": "address",
          "name": "mc",
          "type": "address"
        },
        {
          "internalType": "address",
          "name": "_contract",
          "type": "address"
        }
      ],
      "name": "addBigBang",
      "outputs": [],
      "stateMutability": "nonpayable",
      "type": "function"
    },
    {
      "inputs": [
        {
          "internalType": "address",
          "name": "_contract",
          "type": "address"
        }
      ],
      "name": "addOriginsMarket",
      "outputs": [],
      "stateMutability": "nonpayable",
      "type": "function"
    },
    {
      "inputs": [
        {
          "internalType": "address",
          "name": "mc",
          "type": "address"
        },
        {
          "internalType": "address",
          "name": "_contract",
          "type": "address"
        }
      ],
      "name": "addSingularity",
      "outputs": [],
      "stateMutability": "nonpayable",
      "type": "function"
    },
    {
      "inputs": [
        {
          "internalType": "uint256",
          "name": "",
          "type": "uint256"
        }
      ],
      "name": "allBigBangMarkets",
      "outputs": [
        {
          "internalType": "address",
          "name": "",
          "type": "address"
        }
      ],
      "stateMutability": "view",
      "type": "function"
    },
    {
      "inputs": [
        {
          "internalType": "uint256",
          "name": "",
          "type": "uint256"
        }
      ],
      "name": "allOriginsMarkets",
      "outputs": [
        {
          "internalType": "address",
          "name": "",
          "type": "address"
        }
      ],
      "stateMutability": "view",
      "type": "function"
    },
    {
      "inputs": [],
      "name": "bigBangEthDebtRate",
      "outputs": [
        {
          "internalType": "uint256",
          "name": "",
          "type": "uint256"
        }
      ],
      "stateMutability": "view",
      "type": "function"
    },
    {
      "inputs": [],
      "name": "bigBangEthMarket",
      "outputs": [
        {
          "internalType": "address",
          "name": "",
          "type": "address"
        }
      ],
      "stateMutability": "view",
      "type": "function"
    },
    {
      "inputs": [],
      "name": "bigBangMarkets",
      "outputs": [
        {
          "internalType": "address[]",
          "name": "markets",
          "type": "address[]"
        }
      ],
      "stateMutability": "view",
      "type": "function"
    },
    {
      "inputs": [],
      "name": "bigBangMasterContractLength",
      "outputs": [
        {
          "internalType": "uint256",
          "name": "",
          "type": "uint256"
        }
      ],
      "stateMutability": "view",
      "type": "function"
    },
    {
      "inputs": [
        {
          "internalType": "uint256",
          "name": "",
          "type": "uint256"
        }
      ],
      "name": "bigbangMasterContracts",
      "outputs": [
        {
          "internalType": "address",
          "name": "location",
          "type": "address"
        },
        {
          "internalType": "enum IPenrose.ContractType",
          "name": "risk",
          "type": "uint8"
        }
      ],
      "stateMutability": "view",
      "type": "function"
    },
    {
      "inputs": [],
      "name": "claimOwnership",
      "outputs": [],
      "stateMutability": "nonpayable",
      "type": "function"
    },
    {
      "inputs": [
        {
          "internalType": "address",
          "name": "",
          "type": "address"
        },
        {
          "internalType": "uint256",
          "name": "",
          "type": "uint256"
        }
      ],
      "name": "clonesOf",
      "outputs": [
        {
          "internalType": "address",
          "name": "",
          "type": "address"
        }
      ],
      "stateMutability": "view",
      "type": "function"
    },
    {
      "inputs": [
        {
          "internalType": "address",
          "name": "masterContract",
          "type": "address"
        }
      ],
      "name": "clonesOfCount",
      "outputs": [
        {
          "internalType": "uint256",
          "name": "cloneCount",
          "type": "uint256"
        }
      ],
      "stateMutability": "view",
      "type": "function"
    },
    {
      "inputs": [],
      "name": "cluster",
      "outputs": [
        {
          "internalType": "contract ICluster",
          "name": "",
          "type": "address"
        }
      ],
      "stateMutability": "view",
      "type": "function"
    },
    {
      "inputs": [],
      "name": "computeTotalDebt",
      "outputs": [
        {
          "internalType": "uint256",
          "name": "totalUsdoDebt",
          "type": "uint256"
        }
      ],
      "stateMutability": "nonpayable",
      "type": "function"
    },
    {
      "inputs": [],
      "name": "conservator",
      "outputs": [
        {
          "internalType": "address",
          "name": "",
          "type": "address"
        }
      ],
      "stateMutability": "view",
      "type": "function"
    },
    {
      "inputs": [
        {
          "internalType": "address",
          "name": "masterContract",
          "type": "address"
        },
        {
          "internalType": "bytes",
          "name": "data",
          "type": "bytes"
        },
        {
          "internalType": "bool",
          "name": "useCreate2",
          "type": "bool"
        }
      ],
      "name": "deploy",
      "outputs": [
        {
          "internalType": "address",
          "name": "cloneAddress",
          "type": "address"
        }
      ],
      "stateMutability": "payable",
      "type": "function"
    },
    {
      "inputs": [
        {
          "internalType": "address",
          "name": "",
          "type": "address"
        }
      ],
      "name": "emptyStrategies",
      "outputs": [
        {
          "internalType": "contract IStrategy",
          "name": "",
          "type": "address"
        }
      ],
      "stateMutability": "view",
      "type": "function"
    },
    {
      "inputs": [
        {
          "internalType": "address[]",
          "name": "mc",
          "type": "address[]"
        },
        {
          "internalType": "bytes[]",
          "name": "data",
          "type": "bytes[]"
        },
        {
          "internalType": "bool",
          "name": "forceSuccess",
          "type": "bool"
        }
      ],
      "name": "executeMarketFn",
      "outputs": [
        {
          "internalType": "bool[]",
          "name": "success",
          "type": "bool[]"
        },
        {
          "internalType": "bytes[]",
          "name": "result",
          "type": "bytes[]"
        }
      ],
      "stateMutability": "nonpayable",
      "type": "function"
    },
    {
      "inputs": [
        {
          "components": [
            {
              "internalType": "address",
              "name": "location",
              "type": "address"
            },
            {
              "internalType": "enum IPenrose.ContractType",
              "name": "risk",
              "type": "uint8"
            }
          ],
          "internalType": "struct IPenrose.MasterContract[]",
          "name": "array",
          "type": "tuple[]"
        }
      ],
      "name": "getAllMasterContractClones",
      "outputs": [
        {
          "internalType": "address[]",
          "name": "markets",
          "type": "address[]"
        }
      ],
      "stateMutability": "view",
      "type": "function"
    },
    {
      "inputs": [],
      "name": "hostLzChainId",
      "outputs": [
        {
          "internalType": "uint16",
          "name": "",
          "type": "uint16"
        }
      ],
      "stateMutability": "view",
      "type": "function"
    },
    {
      "inputs": [
        {
          "internalType": "address",
          "name": "",
          "type": "address"
        }
      ],
      "name": "isBigBangMasterContractRegistered",
      "outputs": [
        {
          "internalType": "bool",
          "name": "",
          "type": "bool"
        }
      ],
      "stateMutability": "view",
      "type": "function"
    },
    {
      "inputs": [
        {
          "internalType": "address",
          "name": "",
          "type": "address"
        }
      ],
      "name": "isMarketRegistered",
      "outputs": [
        {
          "internalType": "bool",
          "name": "",
          "type": "bool"
        }
      ],
      "stateMutability": "view",
      "type": "function"
    },
    {
      "inputs": [
        {
          "internalType": "address",
          "name": "",
          "type": "address"
        }
      ],
      "name": "isOriginRegistered",
      "outputs": [
        {
          "internalType": "bool",
          "name": "",
          "type": "bool"
        }
      ],
      "stateMutability": "view",
      "type": "function"
    },
    {
      "inputs": [
        {
          "internalType": "address",
          "name": "",
          "type": "address"
        }
      ],
      "name": "isSingularityMasterContractRegistered",
      "outputs": [
        {
          "internalType": "bool",
          "name": "",
          "type": "bool"
        }
      ],
      "stateMutability": "view",
      "type": "function"
    },
    {
      "inputs": [],
      "name": "mainAssetId",
      "outputs": [
        {
          "internalType": "uint256",
          "name": "",
          "type": "uint256"
        }
      ],
      "stateMutability": "view",
      "type": "function"
    },
    {
      "inputs": [],
      "name": "mainToken",
      "outputs": [
        {
          "internalType": "contract IERC20",
          "name": "",
          "type": "address"
        }
      ],
      "stateMutability": "view",
      "type": "function"
    },
    {
      "inputs": [
        {
          "internalType": "address",
          "name": "",
          "type": "address"
        }
      ],
      "name": "masterContractOf",
      "outputs": [
        {
          "internalType": "address",
          "name": "",
          "type": "address"
        }
      ],
      "stateMutability": "view",
      "type": "function"
    },
    {
      "inputs": [
        {
          "internalType": "address",
          "name": "twTap",
          "type": "address"
        }
      ],
      "name": "mintOpenInterestDebt",
      "outputs": [],
      "stateMutability": "nonpayable",
      "type": "function"
    },
    {
      "inputs": [],
      "name": "owner",
      "outputs": [
        {
          "internalType": "address",
          "name": "",
          "type": "address"
        }
      ],
      "stateMutability": "view",
      "type": "function"
    },
    {
      "inputs": [],
      "name": "paused",
      "outputs": [
        {
          "internalType": "bool",
          "name": "",
          "type": "bool"
        }
      ],
      "stateMutability": "view",
      "type": "function"
    },
    {
      "inputs": [],
      "name": "pendingOwner",
      "outputs": [
        {
          "internalType": "address",
          "name": "",
          "type": "address"
        }
      ],
      "stateMutability": "view",
      "type": "function"
    },
    {
      "inputs": [],
      "name": "reAccrueBigBangMarkets",
      "outputs": [],
      "stateMutability": "nonpayable",
      "type": "function"
    },
    {
      "inputs": [
        {
          "internalType": "address",
          "name": "mc",
          "type": "address"
        },
        {
          "internalType": "bytes",
          "name": "data",
          "type": "bytes"
        },
        {
          "internalType": "bool",
          "name": "useCreate2",
          "type": "bool"
        }
      ],
      "name": "registerBigBang",
      "outputs": [
        {
          "internalType": "address",
          "name": "_contract",
          "type": "address"
        }
      ],
      "stateMutability": "payable",
      "type": "function"
    },
    {
      "inputs": [
        {
          "internalType": "address",
          "name": "mcAddress",
          "type": "address"
        },
        {
          "internalType": "enum IPenrose.ContractType",
          "name": "contractType_",
          "type": "uint8"
        }
      ],
      "name": "registerBigBangMasterContract",
      "outputs": [],
      "stateMutability": "nonpayable",
      "type": "function"
    },
    {
      "inputs": [
        {
          "internalType": "address",
          "name": "mc",
          "type": "address"
        },
        {
          "internalType": "bytes",
          "name": "data",
          "type": "bytes"
        },
        {
          "internalType": "bool",
          "name": "useCreate2",
          "type": "bool"
        }
      ],
      "name": "registerSingularity",
      "outputs": [
        {
          "internalType": "address",
          "name": "_contract",
          "type": "address"
        }
      ],
      "stateMutability": "payable",
      "type": "function"
    },
    {
      "inputs": [
        {
          "internalType": "address",
          "name": "mcAddress",
          "type": "address"
        },
        {
          "internalType": "enum IPenrose.ContractType",
          "name": "contractType_",
          "type": "uint8"
        }
      ],
      "name": "registerSingularityMasterContract",
      "outputs": [],
      "stateMutability": "nonpayable",
      "type": "function"
    },
    {
      "inputs": [
        {
          "internalType": "address",
          "name": "_market",
          "type": "address"
        }
      ],
      "name": "setBigBangEthMarket",
      "outputs": [],
      "stateMutability": "nonpayable",
      "type": "function"
    },
    {
      "inputs": [
        {
          "internalType": "uint256",
          "name": "_rate",
          "type": "uint256"
        }
      ],
      "name": "setBigBangEthMarketDebtRate",
      "outputs": [],
      "stateMutability": "nonpayable",
      "type": "function"
    },
    {
      "inputs": [
        {
          "internalType": "address",
          "name": "_newCluster",
          "type": "address"
        }
      ],
      "name": "setCluster",
      "outputs": [],
      "stateMutability": "nonpayable",
      "type": "function"
    },
    {
      "inputs": [
        {
          "internalType": "address",
          "name": "_conservator",
          "type": "address"
        }
      ],
      "name": "setConservator",
      "outputs": [],
      "stateMutability": "nonpayable",
      "type": "function"
    },
    {
      "inputs": [
        {
          "internalType": "address",
          "name": "_usdoToken",
          "type": "address"
        }
      ],
      "name": "setUsdoToken",
      "outputs": [],
      "stateMutability": "nonpayable",
      "type": "function"
    },
    {
      "inputs": [],
      "name": "singularityMarkets",
      "outputs": [
        {
          "internalType": "address[]",
          "name": "markets",
          "type": "address[]"
        }
      ],
      "stateMutability": "view",
      "type": "function"
    },
    {
      "inputs": [],
      "name": "singularityMasterContractLength",
      "outputs": [
        {
          "internalType": "uint256",
          "name": "",
          "type": "uint256"
        }
      ],
      "stateMutability": "view",
      "type": "function"
    },
    {
      "inputs": [
        {
          "internalType": "uint256",
          "name": "",
          "type": "uint256"
        }
      ],
      "name": "singularityMasterContracts",
      "outputs": [
        {
          "internalType": "address",
          "name": "location",
          "type": "address"
        },
        {
          "internalType": "enum IPenrose.ContractType",
          "name": "risk",
          "type": "uint8"
        }
      ],
      "stateMutability": "view",
      "type": "function"
    },
    {
      "inputs": [],
      "name": "tapAssetId",
      "outputs": [
        {
          "internalType": "uint256",
          "name": "",
          "type": "uint256"
        }
      ],
      "stateMutability": "view",
      "type": "function"
    },
    {
      "inputs": [],
      "name": "tapToken",
      "outputs": [
        {
          "internalType": "contract IERC20",
          "name": "",
          "type": "address"
        }
      ],
      "stateMutability": "view",
      "type": "function"
    },
    {
      "inputs": [
        {
          "internalType": "address",
          "name": "newOwner",
          "type": "address"
        },
        {
          "internalType": "bool",
          "name": "direct",
          "type": "bool"
        },
        {
          "internalType": "bool",
          "name": "renounce",
          "type": "bool"
        }
      ],
      "name": "transferOwnership",
      "outputs": [],
      "stateMutability": "nonpayable",
      "type": "function"
    },
    {
      "inputs": [
        {
          "internalType": "bool",
          "name": "val",
          "type": "bool"
        }
      ],
      "name": "updatePause",
      "outputs": [],
      "stateMutability": "nonpayable",
      "type": "function"
    },
    {
      "inputs": [],
      "name": "usdoAssetId",
      "outputs": [
        {
          "internalType": "uint256",
          "name": "",
          "type": "uint256"
        }
      ],
      "stateMutability": "view",
      "type": "function"
    },
    {
      "inputs": [],
      "name": "usdoToken",
      "outputs": [
        {
          "internalType": "contract IERC20",
          "name": "",
          "type": "address"
        }
      ],
      "stateMutability": "view",
      "type": "function"
    },
    {
      "inputs": [],
      "name": "viewTotalDebt",
      "outputs": [
        {
          "internalType": "uint256",
          "name": "",
          "type": "uint256"
        }
      ],
      "stateMutability": "view",
      "type": "function"
    },
    {
      "inputs": [
        {
          "internalType": "contract IMarket[]",
          "name": "markets_",
          "type": "address[]"
        },
        {
          "internalType": "contract ITwTap",
          "name": "twTap",
          "type": "address"
        }
      ],
      "name": "withdrawAllMarketFees",
      "outputs": [],
      "stateMutability": "nonpayable",
      "type": "function"
    },
    {
      "inputs": [],
      "name": "yieldBox",
      "outputs": [
        {
          "internalType": "contract YieldBox",
          "name": "",
          "type": "address"
        }
      ],
      "stateMutability": "view",
      "type": "function"
    }
  ],
  "bytecode": "0x610140604081815234620003a05760c082620048bb8038038091620000258285620003a5565b833981010312620003a0578151916001600160a01b0391828416808503620003a0576020938484015191818316809303620003a05762000067848601620003df565b916200007660608701620003df565b9260808701519661ffff88168803620003a05760a0015191808316809303620003a0576000805488519b91976001600160a01b0319959291861691338a7f8be0079c531659141344cd1fd0a4f28419497f9722a3daafe3b4186f6b6457e08180a36080528560055416176005558360a05284331617178655610657998a81019060018060401b0391818110838211176200038c57908062000138868f95948a9062004264978886396001600160a01b0391821681529116602082015260400190565b039089f09b8c156200038257938316808952600f8c5289892080549d85169d87168e1790558951632c1876e560e21b808252600160048301526001600160a01b03928316602483015291909d1660448e0152600060648e01529a9b999a989998938c8a6084818c8b5af1998a156200037857899a6200033f575b506001600160601b03998a1660c05260e08890528a5192818401928311848410176200032b57878493620001fe938b9386396001600160a01b0391821681529116602082015260400190565b039087f080156200032157948116808752600f8b528887208054929096169390911683179094558651908152600160048201526001600160a01b039384166024820152921660448301526000606483015290919086908390608490829085905af195861562000315578196620002d9575b505050610100931683526611c37937e08000600e556101209182525190613e6f9283620003f5843960805183818161163601528181611fad0152613230015260a05183611db7015260c05183610944015260e0518361123501525182611e00015251816112810152f35b909180939650813d83116200030d575b620002f58183620003a5565b810103126200030a575051923880806200026f565b80fd5b503d620002e9565b508351903d90823e3d90fd5b88513d88823e3d90fd5b634e487b7160e01b8a52604160045260248afd5b9099508c81813d831162000370575b6200035a8183620003a5565b810103126200036c57519838620001b2565b8880fd5b503d6200034e565b8b513d8b823e3d90fd5b89513d8a823e3d90fd5b634e487b7160e01b89526041600452602489fd5b600080fd5b601f909101601f19168101906001600160401b03821190821017620003c957604052565b634e487b7160e01b600052604160045260246000fd5b51906001600160a01b0382168203620003a05756fe608060405260043610156200001357600080fd5b60003560e01c806301da1fd714620003e3578063078dfbe714620003dd57806307bd3e2014620003d7578063099bfe4c14620003d15780630e7ee22714620003cb5780631240067414620003c5578063170f4e8d14620003bf5780631f54245b14620003b957806321f0462714620003b35780632324248e14620003ad5780632a68ecfa14620003a75780633100111414620003a1578063334f4f0f146200039b57806333a4eebe14620003955780633555d7a6146200038f57806339e0285114620003895780633fc15f151462000383578063433e762d146200037d578063437be62214620003775780634cc707ab14620003715780634e71e0c8146200036b57806356f93bfb14620003655780635bfe09b7146200035f5780635c975abb14620003595780636100ff1414620003535780636e570c63146200034d57806372a54ab41462000347578063761b3a51146200034157806386c8e21d146200033b5780638da5cb5b14620003355780638e7d8a2a146200032f5780638fd4365414620003295780639488c4dc1462000323578063bafa44cc146200031d578063bafe4f141462000317578063c24795f81462000311578063c6d9ce34146200030b578063c7cee5321462000305578063c99fb76e14620002ff578063cd9792e514620002f9578063ce8849ed14620002f3578063d5089cf614620002ed578063dbd01de114620002e7578063de40657714620002e1578063e30c397814620002db578063e6abad4914620002d5578063f07794c514620002cf578063f12f209a14620002c9578063f189e10f14620002c3578063f8974de014620002bd578063fa74f0b514620002b7578063fba96be814620002b1578063fe110c4814620002ab5763fee63f1714620002a557600080fd5b62002539565b62002251565b6200220f565b6200218c565b620020e9565b620020c9565b62002083565b62002027565b62002007565b62001fdc565b62001f95565b62001f6a565b62001e91565b62001e66565b62001e23565b62001de6565b62001d9f565b62001ca8565b62001c7d565b62001c3a565b62001ace565b62001a25565b620019c1565b6200197b565b62001950565b62001930565b62001886565b62001828565b620017e2565b620015b5565b6200158d565b620014f0565b620014d1565b62001413565b62001328565b620012a5565b62001264565b6200121d565b6200111e565b62000fe6565b62000ee1565b62000db1565b62000d53565b62000cf7565b62000c14565b62000b43565b62000af8565b620009d4565b62000967565b6200092a565b62000829565b6200060a565b620004b1565b62000400565b6001600160a01b03811603620003fb57565b600080fd5b34620003fb576020366003190112620003fb576004356200042181620003e9565b6000546001600160a01b039182916200043e9083163314620028c1565b16908115620004835781600d549182167f30171e43fba52fe21363e6bf3dfed4bb202f0d216aaa0fb215e030b5a796d8a9600080a36001600160a01b03191617600d55005b60405163d92e233d60e01b8152600490fd5b80151503620003fb57565b60443590620004af8262000495565b565b34620003fb576060366003190112620003fb57600435620004d281620003e9565b60243590620004e18262000495565b60443590620004f08262000495565b60018060a01b036000936200050a828654163314620028c1565b15620005e857811691821590811591620005df575b5015620005a25782546200058f929062000549906001600160a01b03165b6001600160a01b031690565b7f8be0079c531659141344cd1fd0a4f28419497f9722a3daafe3b4186f6b6457e08580a3600080546001600160a01b0319166001600160a01b0392909216919091179055565b600180546001600160a01b031916905580f35b60405162461bcd60e51b81526020600482015260156024820152744f776e61626c653a207a65726f206164647265737360581b6044820152606490fd5b9050386200051f565b91501660018060a01b0319600154161760015580f35b6000910312620003fb57565b34620003fb576000366003190112620003fb576020600954604051908152f35b9181601f84011215620003fb578235916001600160401b038311620003fb576020808501948460051b010111620003fb57565b634e487b7160e01b600052604160045260246000fd5b604081019081106001600160401b038211176200068f57604052565b6200065d565b6001600160401b0381116200068f57604052565b90601f801991011681019081106001600160401b038211176200068f57604052565b6001600160401b0381116200068f5760051b60200190565b6001600160401b0381116200068f57601f01601f191660200190565b9291926200070d82620006e3565b916200071d6040519384620006a9565b829481845281830111620003fb578281602093846000960137010152565b60005b8381106200074f5750506000910152565b81810151838201526020016200073e565b906020916200077b815180928185528580860191016200073b565b601f01601f1916010190565b906040820191604081528151809352606081019260208093019060005b8181106200081257505050818184039101528251908183528083019281808460051b8301019501936000915b848310620007e15750505050505090565b909192939495848062000801600193601f198682030187528a5162000760565b9801930193019194939290620007d0565b8251151586529484019491840191600101620007a4565b34620003fb576060366003190112620003fb576001600160401b03600435818111620003fb576200085f9036906004016200062a565b6024908135848111620003fb5736602382011215620003fb578060040135926200088984620006cb565b93620008996040519586620006a9565b808552602096828887019260051b85010193368511620003fb57838101925b858410620008ee57620008d8898989620008d1620004a0565b9262002ca8565b90620008ea6040519283928362000787565b0390f35b8335838111620003fb57820136604382011215620003fb578a916200091e8392369060448a8201359101620006ff565b815201930192620008b8565b34620003fb576000366003190112620003fb5760206040517f00000000000000000000000000000000000000000000000000000000000000008152f35b34620003fb576000366003190112620003fb5760206200098662002e48565b604051908152f35b6020908160408183019282815285518094520193019160005b828110620009b6575050505090565b83516001600160a01b031685529381019392810192600101620009a7565b34620003fb5760008060031936011262000a8a5760095490620009f782620006cb565b9160409162000a0983519485620006a9565b81845260098152602060008051602062003e1a8339815191528186015b84841062000a4a57620008ea8662000a3e89620035f7565b9051918291826200098e565b6001838192885162000a5c8162000673565b62000a7b60ff8754868060a01b038116845260a01c168483016200290d565b81520192019301929062000a26565b80fd5b6060600319820112620003fb5760043562000aa881620003e9565b916024356001600160401b0392838211620003fb5780602383011215620003fb578160040135938411620003fb5760248483010111620003fb57602401919060443562000af58162000495565b90565b602062000b1362000b093662000a8d565b9291909162002709565b6040516001600160a01b039091168152f35b602435906003821015620003fb57565b35906003821015620003fb57565b34620003fb57602080600319360112620003fb57600435906001600160401b038211620003fb5736602383011215620003fb5781600401359162000b8783620006cb565b9160409362000b9985519485620006a9565b80845260248285019160061b84010192368411620003fb57602401905b83821062000bce57620008ea8662000a3e87620035f7565b8582360312620003fb57828691825162000be88162000673565b843562000bf581620003e9565b815262000c0483860162000b35565b8382015281520191019062000bb6565b34620003fb576000366003190112620003fb576006546040516001600160a01b039091168152602090f35b634e487b7160e01b600052603260045260246000fd5b60125481101562000c7157601260005260206000200190600090565b62000c3f565b60105481101562000c7157601060005260206000200190600090565b805482101562000c715760005260206000200190600090565b634e487b7160e01b600052602160045260246000fd5b6003111562000ccd57565b62000cac565b6001600160a01b03909116815260408101929190600382101562000ccd5760200152565b34620003fb576020366003190112620003fb57600435600854811015620003fb57600860005260008051602062003dfa8339815191520154604051908190620008ea9060a081901c60ff16906001600160a01b03168362000cd3565b34620003fb576020366003190112620003fb57600435601254811015620003fb5760126000527fbb8a6a4669ba250d26cd7a459eca9d215f8307e33aebe50379bc5a3617ec344401546040516001600160a01b039091168152602090f35b34620003fb576040366003190112620003fb576004356001600160401b038111620003fb5762000de69036906004016200062a565b906024359162000df683620003e9565b60018060a01b039060009362000e11838654163314620028c1565b60ff60045460a01c1662000ecf57828116156200048357845b82811062000ea1575050906040519182939185905b82821062000e7857505050508042920390207fdc0aec64e01514853db7bc1f49a7321726ef185b59f680c9bc9edcf499722bc78380a380f35b9091929460019082873562000e8d81620003e9565b168152602090810196019392019062000e3f565b8062000ec88362000eb6600194878a62002a66565b3562000ec281620003e9565b6200314d565b0162000e2a565b6040516313d0ff5960e31b8152600490fd5b34620003fb576020366003190112620003fb57600080546004359082906001600160a01b039062000f169082163314620028c1565b600d546001600160a01b0316168062000f60575b505062000f3681600e55565b600e547fc324e35c9555957f4213cba22757a317e0c2d5bd7ca6baa3df2b01d3ee6ddd1b8380a380f35b803b1562000fb857819060046040518094819363f8ba4cff60e01b83525af1801562000fb25762000f94575b829062000f2a565b8062000fa462000fab9262000695565b80620005fe565b3862000f8c565b620026fd565b5080fd5b6040906003190112620003fb5760043562000fd781620003e9565b9060243562000af581620003e9565b34620003fb5762000ff73662000fbc565b60018060a01b039060009262001012838554163314620028c1565b82811692838552600b60205260ff604086205416156200110c57821691828552600c60205260ff604086205416620010fa57620010cd620010d392848752600c6020526200106a60408820600160ff19825416179055565b6001600160a01b03811660009081526003602052604090206200109590849062002697565b62002697565b6001600160a01b03831660009081526002602052604090205b80546001600160a01b0319166001600160a01b03909216919091179055565b620025cb565b7f4e9173da15b3f07367dc29002c27568aceeaadc25679cc0fffedeb40e13d09428380a380f35b60405163f411c32760e01b8152600490fd5b60405163aba4733960e01b8152600490fd5b620011293662000a8d565b909160018060a01b039160009362001146848654163314620028c1565b83861692838652600b60205260409660ff8888205416156200120c57906200117093929162002709565b9182168015620011fb57823b15620011ea5790817f4e9173da15b3f07367dc29002c27568aceeaadc25679cc0fffedeb40e13d094295620008ea94938652600c602052620011c7818720600160ff19825416179055565b620011d284620025cb565b5195858796a36001600160a01b031682526020820190565b845163312d207360e11b8152600490fd5b845163d92e233d60e01b8152600490fd5b875163aba4733960e01b8152600490fd5b34620003fb576000366003190112620003fb576040517f00000000000000000000000000000000000000000000000000000000000000006001600160a01b03168152602090f35b34620003fb576000366003190112620003fb57602060405161ffff7f0000000000000000000000000000000000000000000000000000000000000000168152f35b34620003fb576020366003190112620003fb57600435620012c681620003e9565b6000546001600160a01b03918291620012e39083163314620028c1565b169081156200048357816005549182167f03bebf5becbadd9703358ffd62f5a65bddfcc9c20038edae65aebe5542598bf2600080a36001600160a01b03191617600555005b34620003fb57620013393662000fbc565b9060018060a01b039060009262001355838554163314620028c1565b82821692838552600a60205260ff604086205416156200110c57811691828552600c60205260ff604086205416620010fa57620010ae620013ec92848752600c602052620013ad60408820600160ff19825416179055565b6001600160a01b0383166000908152600360205260409020620013d290829062002697565b6001600160a01b0316600090815260026020526040902090565b7f1105050c403ad688afa33c2669a46bcffdf42221ee17dd625d05d09f1433cd678380a380f35b34620003fb5760008060031936011262000a8a576001546001600160a01b03908116338190036200148d57806200058f928454167f8be0079c531659141344cd1fd0a4f28419497f9722a3daafe3b4186f6b6457e08580a3600080546001600160a01b0319166001600160a01b0392909216919091179055565b606460405162461bcd60e51b815260206004820152602060248201527f4f776e61626c653a2063616c6c657220213d2070656e64696e67206f776e65726044820152fd5b34620003fb576000366003190112620003fb576020620009866200298f565b34620003fb576020366003190112620003fb576004356200151181620003e9565b60018060a01b03906000916200152c818454163314620028c1565b811690818352601160205260ff604084205416620010fa57818352601160205260408320805460ff19166001179055620015669062002631565b7fbe890491c5314d8d0cfa0d5834b79a3625fadaa20d4111cca3675fa037fc08128280a280f35b34620003fb576000366003190112620003fb57602060ff60045460a01c166040519015158152f35b34620003fb576020366003190112620003fb57600435620015d681620003e9565b60018060a01b03600091620015f0828454163314620028c1565b600654829062001609906001600160a01b03166200053d565b16620017d057600680546001600160a01b0319166001600160a01b038385169081169190911790915591807f00000000000000000000000000000000000000000000000000000000000000001691604051610657808201908282106001600160401b038311176200068f57868684936200169d93620037a386396001600160a01b0391821681529116602082015260400190565b039086f092831562000fb257620016d3602093620017429516620010ae8460018060a01b0316600052600f602052604060002090565b6001600160a01b0382166000908152600f60205260409020620016fe905b546001600160a01b031690565b604051632c1876e560e21b8152600160048201526001600160a01b039384166024820152921660448301526000606483015290928391908290879082906084820190565b03925af190811562000fb25762001770916bffffffffffffffffffffffff9185916200179b575b5016600755565b600754907fa8bcc850e0dd5734a654196b5949251a22dec7d076dcdde7c355a1a2d6006e068380a380f35b620017c1915060203d8111620017c8575b620017b88183620006a9565b81019062002a77565b3862001769565b503d620017ac565b60405163ea8e4eb560e01b8152600490fd5b34620003fb576020366003190112620003fb576004356200180381620003e9565b60018060a01b0316600052600b602052602060ff604060002054166040519015158152f35b34620003fb576020366003190112620003fb57600435601054811015620003fb5760106000527f1b6847dc741a1b0cd08d278845f9d819d87b734759afb55fe2de5cb82a9ae67201546040516001600160a01b039091168152602090f35b34620003fb5760008060031936011262000a8a5760085490620018a982620006cb565b91604091620018bb83519485620006a9565b81845260088152602060008051602062003dfa8339815191528186015b848410620018f057620008ea8662000a3e89620035f7565b60018381928851620019028162000673565b6200192160ff8754868060a01b038116845260a01c168483016200290d565b815201920193019290620018d8565b34620003fb576000366003190112620003fb576020600754604051908152f35b34620003fb576000366003190112620003fb576000546040516001600160a01b039091168152602090f35b34620003fb576020366003190112620003fb576004356200199c81620003e9565b60018060a01b0316600052600c602052602060ff604060002054166040519015158152f35b34620003fb576040366003190112620003fb57600435620019e281620003e9565b6024359060018060a01b03809116600052600360205260406000208054831015620003fb5760209262001a159162000c93565b90549060031b1c16604051908152f35b62001a303662000a8d565b909160018060a01b039160009362001a4d848654163314620028c1565b83861692838652600a60205260409660ff8888205416156200120c579062001a7793929162002709565b9182168015620011fb57823b15620011ea5790817f1105050c403ad688afa33c2669a46bcffdf42221ee17dd625d05d09f1433cd6795620008ea94938652600c602052620011d2818720600160ff19825416179055565b34620003fb5760008060031936011262000a8a57600460ff815460a01c1662001c2b57600d80546001600160a01b0391908216331462001b0c578380f35b6010549162001b1a62002fdb565b85805b85811062001b5757509450505050507f6311d5171e6163ca3b621e50869474f9d55c781f9c57585ea7eb52a192d4fbbc8180a23880808380f35b62001b7462001b67828562002c2b565b516001600160a01b031690565b6001600160a01b0381166000908152600c6020526040902062001b99905b5460ff1690565b62001bb4575b5062001bac915062002930565b869062001b1d565b8554859062001bcc906001600160a01b03166200053d565b911690811462001b9f57803b1562001c27578290886040518095819363f8ba4cff60e01b83525af191821562000fb25762001bac9262001c10575b88925062001b9f565b8062000fa462001c209262000695565b3862001c07565b8280fd5b6040516313d0ff5960e31b8152fd5b34620003fb576020366003190112620003fb57602060043562001c5d81620003e9565b60018060a01b038091166000526002825260406000205416604051908152f35b34620003fb576000366003190112620003fb57600d546040516001600160a01b039091168152602090f35b34620003fb576040366003190112620003fb5760043562001cc981620003e9565b62001cd362000b25565b60018060a01b039160009262001cee818554163314620028c1565b811690818452600b60205260ff60408520541662001d8e5762001d4f62001d5c9162001d3562001d1d62002a95565b85815262001d2f87602083016200290d565b62002ab0565b6001600160a01b03166000908152600b6020526040902090565b805460ff19166001179055565b62001d678262000cc2565b7f1626e61c1c5b523bd0070836aceda378b0077e870f824f71892f67f05a8a5bed8380a380f35b6040516228d40360e81b8152600490fd5b34620003fb576000366003190112620003fb576040517f00000000000000000000000000000000000000000000000000000000000000006001600160a01b03168152602090f35b34620003fb576000366003190112620003fb5760206040517f00000000000000000000000000000000000000000000000000000000000000008152f35b34620003fb576020366003190112620003fb57602060043562001e4681620003e9565b60018060a01b03809116600052600f825260406000205416604051908152f35b34620003fb576000366003190112620003fb576004546040516001600160a01b039091168152602090f35b34620003fb576040366003190112620003fb5760043562001eb281620003e9565b62001ebc62000b25565b60018060a01b039160009262001ed7818554163314620028c1565b811690818452600a60205260ff60408520541662001d8e5762001d4f62001f389162001f1e62001f0662002a95565b85815262001f1887602083016200290d565b62002b33565b6001600160a01b03166000908152600a6020526040902090565b62001f438262000cc2565b7faad6359463cbbce500bced475975ef17452bdc8cbc6cf5d6bd8080c20d2f7f9f8380a380f35b34620003fb576000366003190112620003fb576005546040516001600160a01b039091168152602090f35b34620003fb576000366003190112620003fb576040517f00000000000000000000000000000000000000000000000000000000000000006001600160a01b03168152602090f35b34620003fb576000366003190112620003fb576001546040516001600160a01b039091168152602090f35b34620003fb576000366003190112620003fb576020600e54604051908152f35b34620003fb576020366003190112620003fb57600435600954811015620003fb57600960005260008051602062003e1a8339815191520154604051908190620008ea9060a081901c60ff16906001600160a01b03168362000cd3565b34620003fb576020366003190112620003fb57600435620020a481620003e9565b60018060a01b03166000526011602052602060ff604060002054166040519015158152f35b34620003fb576000366003190112620003fb576020600854604051908152f35b34620003fb576020366003190112620003fb576004356200210a8162000495565b6004546001600160a01b0381163303620017d05760a01c60ff161515908015158083146200217a5762002178927f9c13c5f6c628c1c82eb2b3fd8714da5c2857dbd0ad8ab6b2074abcf81015d396600080a360045460ff60a01b191690151560a01b60ff60a01b1617600455565b005b60405163f1640ae160e01b8152600490fd5b34620003fb576020366003190112620003fb57600435620021ad81620003e9565b6000546001600160a01b03918291620021ca9083163314620028c1565b169081156200048357816004549182167f5a62d22209e370e38eea92cfddcd228e656e6ec139243392a760a7769f5877fd600080a36001600160a01b03191617600455005b34620003fb576020366003190112620003fb576020620009866004356200223681620003e9565b6001600160a01b031660009081526003602052604090205490565b34620003fb57602080600319360112620003fb5760049081356200227581620003e9565b60018060a01b039260009362002290818654163314620028c1565b600654620022a7906001600160a01b03166200053d565b9282856040958651928380926318160ddd60e01b82525afa90811562000fb257879162002517575b5080620022da578680f35b620022e462002e48565b90601254885b8181106200242a5750508082116200230157508680f35b6200230c9162002a87565b906200232b6200053d6200053d6200053d60065460018060a01b031690565b92833b15620024265785516340c10f1960e01b815230868201908152602081018590529094899186919082908490829060400103925af191821562000fb257620023bf9488936200240f575b506006549116959062002393906001600160a01b03166200053d565b905163415be3b560e01b81526001600160a01b0382169581019586529094909384918291602090910190565b0381875afa91821562000fb257620023e1958793620023eb575b505062003411565b3880808080808680f35b62002406929350803d10620017c857620017b88183620006a9565b903880620023d9565b8062000fa46200241f9262000695565b3862002377565b8780fd5b8688620024586200053d6200053d620024438662000c55565b905460039190911b1c6001600160a01b031690565b6001600160a01b03811660009081526011602052604090206200247b9062001b92565b62002495575b5050506200248f9062002930565b620022ea565b815163020a17bd60e61b815293969392839182905afa91821562000fb2576200248f92620024d6928d91620024e2575b506001600160801b03169062002981565b93905086883862002481565b6200250791508b3d8d116200250f575b620024fe8183620006a9565b8101906200295b565b5038620024c5565b503d620024f2565b620025329150863d8811620017c857620017b88183620006a9565b38620022cf565b34620003fb576020366003190112620003fb576004356200255a81620003e9565b60018060a01b0316600052600a602052602060ff604060002054166040519015158152f35b156200258757565b606460405162461bcd60e51b815260206004820152602060248201527f426f72696e67466163746f72793a204e6f206d6173746572436f6e74726163746044820152fd5b601054600160401b8110156200068f57600181018060105581101562000c715760106000527f1b6847dc741a1b0cd08d278845f9d819d87b734759afb55fe2de5cb82a9ae6720180546001600160a01b0319166001600160a01b03909216919091179055565b601254600160401b8110156200068f57600181018060125581101562000c715760126000527fbb8a6a4669ba250d26cd7a459eca9d215f8307e33aebe50379bc5a3617ec34440180546001600160a01b0319166001600160a01b03909216919091179055565b8054600160401b8110156200068f57620026b79160018201815562000c93565b819291549060031b9160018060a01b03809116831b921b1916179055565b90918060409360208452816020850152848401376000828201840152601f01601f1916010190565b6040513d6000823e3d90fd5b6200108f94936001600160a01b0380831693929091620027e49190620027318615156200257f565b606082901b6bffffffffffffffffffffffff19169015620028755760376200275b368988620006ff565b602081519101209160405190733d602d80600a3d3981f3363d3d373d3d3d363d7360601b825260148201526e5af43d82803e903d91602b57fd5bf360881b60288201526000f59788915b6001600160a01b0383166000908152600260205260409020620027ca908290620010ae565b6001600160a01b0316600090815260036020526040902090565b851692833b15620003fb57604051631377d1f560e21b8152916000838062002811858560048401620026d5565b038134895af192831562000fb2577fd62166f3c2149208e51788b1401cc356bf5da1fc6c7886a32e18570f57d88b3b936200285e575b506200285960405192839283620026d5565b0390a3565b8062000fa46200286e9262000695565b3862002847565b604051733d602d80600a3d3981f3363d3d373d3d3d363d7360601b815260148101919091526e5af43d82803e903d91602b57fd5bf360881b60288201526037906000f0978891620027a5565b15620028c957565b606460405162461bcd60e51b815260206004820152602060248201527f4f776e61626c653a2063616c6c6572206973206e6f7420746865206f776e65726044820152fd5b600382101562000ccd5752565b634e487b7160e01b600052601160045260246000fd5b6000198114620029405760010190565b6200291a565b51906001600160801b0382168203620003fb57565b9190826040910312620003fb5762000af56020620029798462002946565b930162002946565b919082018092116200294057565b6000601054815b818110620029a357505090565b620029ba6200053d6200053d620024438462000c77565b6001600160a01b0381166000908152600c60205260409020620029dd9062001b92565b620029f5575b50620029ef9062002930565b62002996565b600491936040809281519485809263020a17bd60e61b82525afa801562000fb257620029ef9362002a3b9360009262002a43575b50506001600160801b03169062002981565b9290620029e3565b62002a5d9250803d106200250f57620024fe8183620006a9565b50388062002a29565b919081101562000c715760051b0190565b90816020910312620003fb575190565b919082039182116200294057565b6040519062002aa48262000673565b60006020838281520152565b600954600160401b8110156200068f57600181018060095581101562000c71576009600052815160008051602062003e1a83398151915290910180546001600160a01b0319166001600160a01b0392909216919091178155906020905b0151600381101562000ccd57815460ff60a01b191660a09190911b60ff60a01b16179055565b600854600160401b8110156200068f57600181018060085581101562000c71576008600052815160008051602062003dfa83398151915290910180546001600160a01b0319166001600160a01b03929092169190911781559060209062002b0d565b9062002ba182620006cb565b62002bb06040519182620006a9565b828152809262002bc3601f1991620006cb565b0190602036910137565b9062002bd982620006cb565b62002be86040519182620006a9565b828152809262002bfb601f1991620006cb565b019060005b82811062002c0d57505050565b80606060208093850101520162002c00565b3562000af581620003e9565b805182101562000c715760209160051b010190565b3d1562002c70573d9062002c5482620006e3565b9162002c646040519384620006a9565b82523d6000602084013e565b606090565b1562002c7e5750565b60405162461bcd60e51b81526020600482015290819062002ca490602483019062000760565b0390fd5b93929160009062002cc460018060a01b038354163314620028c1565b8051830362002e335762002cd88362002b95565b9362002ce48462002bcd565b96835b85811062002cf9575050505050509190565b62002d2862002d2462001b9262001f1e620016f1620013d262002d1e878d8a62002a66565b62002c1f565b1590565b8062002e07575b620017d05762002d4562002d1e82888562002a66565b3b156200217a5780878a828662002db18a808b62002d7b8f9a62002d7462002d1e828f9e62002dc09f62002a66565b9262002c2b565b519082602083519301915af162002d9162002c40565b62002d9d858762002c2b565b5262002daa848762002c2b565b9015159052565b62002dc6575b50505062002930565b62002ce7565b62002df08162002de962002de362002df79462002dfe9762002c2b565b51151590565b9362002c2b565b5162002ee6565b9062002c75565b878a8262002db7565b5062002e2d62002d2462001b9262001d35620016f1620013d262002d1e878d8a62002a66565b62002d2f565b6040516001621398b960e31b03198152600490fd5b60ff60045460a01c1662000ecf57336000908152600c602052604090205460ff16158062002ec5575b8062002eba575b620017d05762002e8762003038565b62002e916200298f565b807f5676b630877f7ced3068a7215299279bb61b20e8a18b9e00a28aab5c3028715c600080a290565b503033141562002e78565b5060005462002edd906001600160a01b03166200053d565b33141562002e71565b6103e881511162002fa857604481511062002f7657600481015181019060208160248401930312620003fb576024810151906001600160401b038211620003fb570181604382011215620003fb57602481015162002f4481620006e3565b9262002f546040519485620006a9565b81845260448284010111620003fb5762000af59160446020850191016200073b565b5060405162002f858162000673565b601381527253474c3a206e6f2072657475726e206461746160681b602082015290565b5060405162002fb78162000673565b601481527353474c3a20726561736f6e20746f6f206c6f6e6760601b602082015290565b604051906010548083528260209182820190601060005283600020936000905b8282106200301457505050620004af92500383620006a9565b85546001600160a01b03168452600195860195889550938101939091019062002ffb565b6010546200304562002fdb565b60005b8281106200307c5750505060017f6311d5171e6163ca3b621e50869474f9d55c781f9c57585ea7eb52a192d4fbbc600080a2565b6001600160a01b0362003090828462002c2b565b51169060ff620030b28360018060a01b0316600052600c602052604060002090565b5416620030cc575b620030c6915062002930565b62003048565b813b15620003fb576000809260046040518095819363f8ba4cff60e01b83525af191821562000fb257620030c69262003107575b50620030ba565b8062000fa4620031179262000695565b3862003100565b90816020910312620003fb575162000af581620003e9565b9190826040910312620003fb576020825192015190565b6001600160a01b039081166000818152600c60205260409020919291620031799062002d249062001b92565b6200217a5760408051632bd016d360e21b815260009491602091906004838382818b8a5af192831562000fb2578893620033ed575b508215620033e35781516338d52e0f60e01b81529584878381845afa96871562000fb2578997620033a9575b5084829184519384809263226f120560e11b82525afa91821562000fb257899262003385575b5082516311a5cc7760e31b81528181018381523060208201819052604082015260006060820152608081018690527f000000000000000000000000000000000000000000000000000000000000000088169491908290829081900360a001818e895af1801562000fb25762003352575b50805163415be3b560e01b81526001600160a01b038916838201908152909787918991908290819060200103918d165afa96871562000fb2578a976200331f575b505163442c159960e01b815290810191825260208201939093526000604082015283918391829081906060015b03915afa91821562000fb257620004af9692620032fd57505062003411565b620033179250803d10620017c857620017b88183620006a9565b3880620023d9565b620032de95939197509162003345879593863d8811620017c857620017b88183620006a9565b97919395509193620032b1565b6200337690823d84116200337d575b6200336d8183620006a9565b81019062003136565b5062003270565b503d62003361565b620033a1919250853d8711620017c857620017b88183620006a9565b903862003200565b82919750620033d28691823d8411620033db575b620033c98183620006a9565b8101906200311e565b979150620031da565b503d620033bd565b5050505050505050565b62003409919350843d8611620017c857620017b88183620006a9565b9138620031ae565b926001600160a01b0316906200342a833b1515620036f5565b60405163095ea7b360e01b60208083018281526001600160a01b03861660248501526000604480860191909152845295601f1993919288919062003470606485620006a9565b62003499600080809b8197519082875af16200348b62002c40565b81620035c2575b5062003755565b8262003525575b505050505050813b1562001c27576040516338ef349f60e21b8152600481019190915260248101849052919081908390604490829084905af191821562000fb2577f47e6f8779f878a37965ec0c06ac33331f4a858e914f712cebed3f7610f9b3d20926200350e575b5080a2565b8062000fa46200351e9262000695565b3862003509565b6040518581019182526001600160a01b03891660248201526044810193909352606495860183526200357f9584938491620035619082620006a9565b51925af1906200357062002c40565b826200358b575b505062003755565b388084868280620034a0565b8091925051918215928315620035a7575b505050388062003577565b620035b993508201810191016200373d565b3880806200359c565b80518015925088908315620035dc575b5050503862003492565b620035ee93508201810191016200373d565b388781620035d2565b908151916000805b848210620036d45762003613915062002b95565b92600091825b828110620036275750505050565b6200364562003637828462002c2b565b51516001600160a01b031690565b6001600160a01b038116600090815260036020526040902054906000915b808310620036775750505060010162003619565b909195620036c5620036aa6200244389620036a48760018060a01b03166000526003602052604060002090565b62000c93565b620036b6838c62002c2b565b6001600160a01b039091169052565b60018091019601919062003663565b600190620036eb6200223662003637858762002c2b565b01910190620035ff565b15620036fd57565b60405162461bcd60e51b815260206004820152601860248201527714d85999505c1c1c9bdd994e881b9bc818dbdb9d1c9858dd60421b6044820152606490fd5b90816020910312620003fb575162000af58162000495565b156200375d57565b60405162461bcd60e51b815260206004820152601b60248201527f53616665417070726f76653a20617070726f7665206661696c656400000000006044820152606490fdfe60c0346100a157601f61065738819003918201601f19168301916001600160401b038311848410176100a65780849260409485528339810103126100a15780516001600160a01b039182821682036100a157602001519182168092036100a15760805260a05260405161059a90816100bd823960805181818161010b0152818161026101526102a8015260a05181818160ab01528181610177015261040f0152f35b600080fd5b634e487b7160e01b600052604160045260246000fdfe604060808152600436101561001357600080fd5b600090813560e01c806306fdde031461031657806317d70f7c146102fc57806330fa738c146102e157806350188301146102485780637284e416146102dc578063afa91cc614610290578063ce845d1d14610248578063de4065771461024d578063e3575f0514610248578063f3fef3a3146100de5763f6b4dfb41461009857600080fd5b346100da57816003193601126100da57517f00000000000000000000000000000000000000000000000000000000000000006001600160a01b03168152602090f35b5080fd5b50346100da57806003193601126100da576001600160a01b036004358181169081900361024457610132827f00000000000000000000000000000000000000000000000000000000000000001633146104c8565b8251602081019163a9059cbb60e01b835260248201526024356044820152604481526080810181811067ffffffffffffffff82111761023057845251849283929083907f0000000000000000000000000000000000000000000000000000000000000000165af16101a1610503565b816101f4575b50156101b1575080f35b5162461bcd60e51b815260206004820152601c60248201527f426f72696e6745524332303a205472616e73666572206661696c6564000000006044820152606490fd5b8051801592508215610209575b5050386101a7565b819250906020918101031261022c5760200151801515810361022c573880610201565b8280fd5b634e487b7160e01b86526041600452602486fd5b8380fd5b6103bd565b50346100da57816003193601126100da57517f00000000000000000000000000000000000000000000000000000000000000006001600160a01b03168152602090f35b82346102d95760203660031901126102d9576102d6337f00000000000000000000000000000000000000000000000000000000000000006001600160a01b0316146104c8565b80f35b80fd5b610316565b50346100da57816003193601126100da576020905160018152f35b50346100da57816003193601126100da5751908152602090f35b346103b8576000806003193601126102d9576040805181810181811067ffffffffffffffff8211176103a4578252600b81526020906a4e6f20737472617465677960a81b8282015282519382859384528251928382860152825b84811061038e57505050828201840152601f01601f19168101030190f35b8181018301518882018801528795508201610370565b634e487b7160e01b84526041600452602484fd5b600080fd5b346103b8576000806003193601126102d957604051602090818101906370a0823160e01b8252306024820152602481526060810181811067ffffffffffffffff8211176104b4576040525183918291907f00000000000000000000000000000000000000000000000000000000000000006001600160a01b03165afa610441610503565b90806104a9575b1561046457818180518101031261022c57810151604051908152f35b60405162461bcd60e51b815260048101839052601d60248201527f426f72696e6745524332303a2042616c616e63654f66206661696c65640000006044820152606490fd5b508181511015610448565b634e487b7160e01b85526041600452602485fd5b156104cf57565b60405162461bcd60e51b815260206004820152600c60248201526b09cdee840b2d2cad8c884def60a31b6044820152606490fd5b3d1561055f5767ffffffffffffffff903d8281116105495760405192601f8201601f19908116603f01168401908111848210176105495760405282523d6000602084013e565b634e487b7160e01b600052604160045260246000fd5b60609056fea26469706673582212200bb275441840feb27614f3189143fabb3726c8b64fbca5f50b05043e638c519464736f6c63430008130033f3f7a9fe364faab93b216da50a3214154f22a0a2b415b23a84c8169e8b636ee36e1540171b6c0c960b71a7020d9f60077f6af931a8bbf590da0223dacf75c7afa2646970667358221220bd3b60343c629c6fc3bd36126a33f268e6b5f4b67f361005e04a5eb42eced33d64736f6c6343000813003360c0346100a157601f61065738819003918201601f19168301916001600160401b038311848410176100a65780849260409485528339810103126100a15780516001600160a01b039182821682036100a157602001519182168092036100a15760805260a05260405161059a90816100bd823960805181818161010b0152818161026101526102a8015260a05181818160ab01528181610177015261040f0152f35b600080fd5b634e487b7160e01b600052604160045260246000fdfe604060808152600436101561001357600080fd5b600090813560e01c806306fdde031461031657806317d70f7c146102fc57806330fa738c146102e157806350188301146102485780637284e416146102dc578063afa91cc614610290578063ce845d1d14610248578063de4065771461024d578063e3575f0514610248578063f3fef3a3146100de5763f6b4dfb41461009857600080fd5b346100da57816003193601126100da57517f00000000000000000000000000000000000000000000000000000000000000006001600160a01b03168152602090f35b5080fd5b50346100da57806003193601126100da576001600160a01b036004358181169081900361024457610132827f00000000000000000000000000000000000000000000000000000000000000001633146104c8565b8251602081019163a9059cbb60e01b835260248201526024356044820152604481526080810181811067ffffffffffffffff82111761023057845251849283929083907f0000000000000000000000000000000000000000000000000000000000000000165af16101a1610503565b816101f4575b50156101b1575080f35b5162461bcd60e51b815260206004820152601c60248201527f426f72696e6745524332303a205472616e73666572206661696c6564000000006044820152606490fd5b8051801592508215610209575b5050386101a7565b819250906020918101031261022c5760200151801515810361022c573880610201565b8280fd5b634e487b7160e01b86526041600452602486fd5b8380fd5b6103bd565b50346100da57816003193601126100da57517f00000000000000000000000000000000000000000000000000000000000000006001600160a01b03168152602090f35b82346102d95760203660031901126102d9576102d6337f00000000000000000000000000000000000000000000000000000000000000006001600160a01b0316146104c8565b80f35b80fd5b610316565b50346100da57816003193601126100da576020905160018152f35b50346100da57816003193601126100da5751908152602090f35b346103b8576000806003193601126102d9576040805181810181811067ffffffffffffffff8211176103a4578252600b81526020906a4e6f20737472617465677960a81b8282015282519382859384528251928382860152825b84811061038e57505050828201840152601f01601f19168101030190f35b8181018301518882018801528795508201610370565b634e487b7160e01b84526041600452602484fd5b600080fd5b346103b8576000806003193601126102d957604051602090818101906370a0823160e01b8252306024820152602481526060810181811067ffffffffffffffff8211176104b4576040525183918291907f00000000000000000000000000000000000000000000000000000000000000006001600160a01b03165afa610441610503565b90806104a9575b1561046457818180518101031261022c57810151604051908152f35b60405162461bcd60e51b815260048101839052601d60248201527f426f72696e6745524332303a2042616c616e63654f66206661696c65640000006044820152606490fd5b508181511015610448565b634e487b7160e01b85526041600452602485fd5b156104cf57565b60405162461bcd60e51b815260206004820152600c60248201526b09cdee840b2d2cad8c884def60a31b6044820152606490fd5b3d1561055f5767ffffffffffffffff903d8281116105495760405192601f8201601f19908116603f01168401908111848210176105495760405282523d6000602084013e565b634e487b7160e01b600052604160045260246000fd5b60609056fea26469706673582212200bb275441840feb27614f3189143fabb3726c8b64fbca5f50b05043e638c519464736f6c63430008130033",
  "linkReferences": {},
  "deployedLinkReferences": {}
}