{
  "_format": "hh-sol-artifact-1",
  "contractName": "SGLBorrow",
  "sourceName": "contracts/markets/singularity/SGLBorrow.sol",
  "abi": [
    {
      "anonymous": false,
      "inputs": [
        {
          "indexed": true,
          "internalType": "address",
          "name": "owner",
          "type": "address"
        },
        {
          "indexed": true,
          "internalType": "address",
          "name": "spender",
          "type": "address"
        },
        {
          "indexed": false,
          "internalType": "uint256",
          "name": "value",
          "type": "uint256"
        }
      ],
      "name": "Approval",
      "type": "event"
    },
    {
      "anonymous": false,
      "inputs": [
        {
          "indexed": true,
          "internalType": "address",
          "name": "owner",
          "type": "address"
        },
        {
          "indexed": true,
          "internalType": "address",
          "name": "spender",
          "type": "address"
        },
        {
          "indexed": true,
          "internalType": "uint256",
          "name": "value",
          "type": "uint256"
        }
      ],
      "name": "ApprovalBorrow",
      "type": "event"
    },
    {
      "anonymous": false,
      "inputs": [
        {
          "indexed": true,
          "internalType": "address",
          "name": "newAddress",
          "type": "address"
        }
      ],
      "name": "BidExecutionSwapperUpdated",
      "type": "event"
    },
    {
      "anonymous": false,
      "inputs": [
        {
          "indexed": true,
          "internalType": "address",
          "name": "old",
          "type": "address"
        },
        {
          "indexed": true,
          "internalType": "address",
          "name": "_new",
          "type": "address"
        }
      ],
      "name": "ConservatorUpdated",
      "type": "event"
    },
    {
      "anonymous": false,
      "inputs": [
        {
          "indexed": false,
          "internalType": "uint256",
          "name": "_oldVal",
          "type": "uint256"
        },
        {
          "indexed": false,
          "internalType": "uint256",
          "name": "_newVal",
          "type": "uint256"
        }
      ],
      "name": "ExchangeRateDurationUpdated",
      "type": "event"
    },
    {
      "anonymous": false,
      "inputs": [
        {
          "indexed": true,
          "internalType": "uint256",
          "name": "oldVal",
          "type": "uint256"
        },
        {
          "indexed": true,
          "internalType": "uint256",
          "name": "newVal",
          "type": "uint256"
        }
      ],
      "name": "InterestElasticityUpdated",
      "type": "event"
    },
    {
      "anonymous": false,
      "inputs": [
        {
          "indexed": true,
          "internalType": "address",
          "name": "liquidator",
          "type": "address"
        },
        {
          "indexed": true,
          "internalType": "address[]",
          "name": "users",
          "type": "address[]"
        },
        {
          "indexed": true,
          "internalType": "uint256",
          "name": "liquidatorReward",
          "type": "uint256"
        },
        {
          "indexed": false,
          "internalType": "uint256",
          "name": "protocolReward",
          "type": "uint256"
        },
        {
          "indexed": false,
          "internalType": "uint256",
          "name": "repayedAmount",
          "type": "uint256"
        },
        {
          "indexed": false,
          "internalType": "uint256",
          "name": "collateralShareRemoved",
          "type": "uint256"
        }
      ],
      "name": "Liquidated",
      "type": "event"
    },
    {
      "anonymous": false,
      "inputs": [
        {
          "indexed": true,
          "internalType": "uint256",
          "name": "oldVal",
          "type": "uint256"
        },
        {
          "indexed": true,
          "internalType": "uint256",
          "name": "newVal",
          "type": "uint256"
        }
      ],
      "name": "LiquidationMultiplierUpdated",
      "type": "event"
    },
    {
      "anonymous": false,
      "inputs": [
        {
          "indexed": true,
          "internalType": "uint256",
          "name": "accruedAmount",
          "type": "uint256"
        },
        {
          "indexed": true,
          "internalType": "uint256",
          "name": "feeFraction",
          "type": "uint256"
        },
        {
          "indexed": true,
          "internalType": "uint64",
          "name": "rate",
          "type": "uint64"
        },
        {
          "indexed": false,
          "internalType": "uint256",
          "name": "utilization",
          "type": "uint256"
        }
      ],
      "name": "LogAccrue",
      "type": "event"
    },
    {
      "anonymous": false,
      "inputs": [
        {
          "indexed": true,
          "internalType": "address",
          "name": "from",
          "type": "address"
        },
        {
          "indexed": true,
          "internalType": "address",
          "name": "to",
          "type": "address"
        },
        {
          "indexed": true,
          "internalType": "uint256",
          "name": "share",
          "type": "uint256"
        },
        {
          "indexed": false,
          "internalType": "uint256",
          "name": "fraction",
          "type": "uint256"
        }
      ],
      "name": "LogAddAsset",
      "type": "event"
    },
    {
      "anonymous": false,
      "inputs": [
        {
          "indexed": true,
          "internalType": "address",
          "name": "from",
          "type": "address"
        },
        {
          "indexed": true,
          "internalType": "address",
          "name": "to",
          "type": "address"
        },
        {
          "indexed": true,
          "internalType": "uint256",
          "name": "share",
          "type": "uint256"
        }
      ],
      "name": "LogAddCollateral",
      "type": "event"
    },
    {
      "anonymous": false,
      "inputs": [
        {
          "indexed": true,
          "internalType": "address",
          "name": "from",
          "type": "address"
        },
        {
          "indexed": true,
          "internalType": "address",
          "name": "to",
          "type": "address"
        },
        {
          "indexed": true,
          "internalType": "uint256",
          "name": "amount",
          "type": "uint256"
        },
        {
          "indexed": false,
          "internalType": "uint256",
          "name": "feeAmount",
          "type": "uint256"
        },
        {
          "indexed": false,
          "internalType": "uint256",
          "name": "part",
          "type": "uint256"
        }
      ],
      "name": "LogBorrow",
      "type": "event"
    },
    {
      "anonymous": false,
      "inputs": [
        {
          "indexed": true,
          "internalType": "uint256",
          "name": "_oldVal",
          "type": "uint256"
        },
        {
          "indexed": true,
          "internalType": "uint256",
          "name": "_newVal",
          "type": "uint256"
        }
      ],
      "name": "LogBorrowCapUpdated",
      "type": "event"
    },
    {
      "anonymous": false,
      "inputs": [
        {
          "indexed": true,
          "internalType": "uint256",
          "name": "_oldVal",
          "type": "uint256"
        },
        {
          "indexed": true,
          "internalType": "uint256",
          "name": "_newVal",
          "type": "uint256"
        }
      ],
      "name": "LogBorrowingFee",
      "type": "event"
    },
    {
      "anonymous": false,
      "inputs": [
        {
          "indexed": true,
          "internalType": "uint256",
          "name": "rate",
          "type": "uint256"
        }
      ],
      "name": "LogExchangeRate",
      "type": "event"
    },
    {
      "anonymous": false,
      "inputs": [
        {
          "indexed": true,
          "internalType": "address",
          "name": "from",
          "type": "address"
        },
        {
          "indexed": true,
          "internalType": "address",
          "name": "to",
          "type": "address"
        },
        {
          "indexed": true,
          "internalType": "uint256",
          "name": "share",
          "type": "uint256"
        },
        {
          "indexed": false,
          "internalType": "uint256",
          "name": "fraction",
          "type": "uint256"
        }
      ],
      "name": "LogRemoveAsset",
      "type": "event"
    },
    {
      "anonymous": false,
      "inputs": [
        {
          "indexed": true,
          "internalType": "address",
          "name": "from",
          "type": "address"
        },
        {
          "indexed": true,
          "internalType": "address",
          "name": "to",
          "type": "address"
        },
        {
          "indexed": true,
          "internalType": "uint256",
          "name": "share",
          "type": "uint256"
        }
      ],
      "name": "LogRemoveCollateral",
      "type": "event"
    },
    {
      "anonymous": false,
      "inputs": [
        {
          "indexed": true,
          "internalType": "address",
          "name": "from",
          "type": "address"
        },
        {
          "indexed": true,
          "internalType": "address",
          "name": "to",
          "type": "address"
        },
        {
          "indexed": true,
          "internalType": "uint256",
          "name": "amount",
          "type": "uint256"
        },
        {
          "indexed": false,
          "internalType": "uint256",
          "name": "part",
          "type": "uint256"
        }
      ],
      "name": "LogRepay",
      "type": "event"
    },
    {
      "anonymous": false,
      "inputs": [
        {
          "indexed": true,
          "internalType": "address",
          "name": "feeTo",
          "type": "address"
        },
        {
          "indexed": true,
          "internalType": "uint256",
          "name": "feesEarnedFraction",
          "type": "uint256"
        }
      ],
      "name": "LogWithdrawFees",
      "type": "event"
    },
    {
      "anonymous": false,
      "inputs": [
        {
          "indexed": true,
          "internalType": "uint256",
          "name": "feeShares",
          "type": "uint256"
        },
        {
          "indexed": true,
          "internalType": "uint256",
          "name": "ethAmount",
          "type": "uint256"
        }
      ],
      "name": "LogYieldBoxFeesDeposit",
      "type": "event"
    },
    {
      "anonymous": false,
      "inputs": [
        {
          "indexed": true,
          "internalType": "uint256",
          "name": "oldVal",
          "type": "uint256"
        },
        {
          "indexed": true,
          "internalType": "uint256",
          "name": "newVal",
          "type": "uint256"
        }
      ],
      "name": "LqCollateralizationRateUpdated",
      "type": "event"
    },
    {
      "anonymous": false,
      "inputs": [
        {
          "indexed": true,
          "internalType": "uint256",
          "name": "oldVal",
          "type": "uint256"
        },
        {
          "indexed": true,
          "internalType": "uint256",
          "name": "newVal",
          "type": "uint256"
        }
      ],
      "name": "MaximumInterestPerSecondUpdated",
      "type": "event"
    },
    {
      "anonymous": false,
      "inputs": [
        {
          "indexed": true,
          "internalType": "uint256",
          "name": "oldVal",
          "type": "uint256"
        },
        {
          "indexed": true,
          "internalType": "uint256",
          "name": "newVal",
          "type": "uint256"
        }
      ],
      "name": "MaximumTargetUtilizationUpdated",
      "type": "event"
    },
    {
      "anonymous": false,
      "inputs": [
        {
          "indexed": true,
          "internalType": "uint256",
          "name": "oldVal",
          "type": "uint256"
        },
        {
          "indexed": true,
          "internalType": "uint256",
          "name": "newVal",
          "type": "uint256"
        }
      ],
      "name": "MinimumInterestPerSecondUpdated",
      "type": "event"
    },
    {
      "anonymous": false,
      "inputs": [
        {
          "indexed": true,
          "internalType": "uint256",
          "name": "oldVal",
          "type": "uint256"
        },
        {
          "indexed": true,
          "internalType": "uint256",
          "name": "newVal",
          "type": "uint256"
        }
      ],
      "name": "MinimumTargetUtilizationUpdated",
      "type": "event"
    },
    {
      "anonymous": false,
      "inputs": [],
      "name": "OracleDataUpdated",
      "type": "event"
    },
    {
      "anonymous": false,
      "inputs": [],
      "name": "OracleUpdated",
      "type": "event"
    },
    {
      "anonymous": false,
      "inputs": [
        {
          "indexed": true,
          "internalType": "uint256",
          "name": "oldVal",
          "type": "uint256"
        },
        {
          "indexed": true,
          "internalType": "uint256",
          "name": "newVal",
          "type": "uint256"
        }
      ],
      "name": "OrderBookLiquidationMultiplierUpdated",
      "type": "event"
    },
    {
      "anonymous": false,
      "inputs": [
        {
          "indexed": true,
          "internalType": "address",
          "name": "previousOwner",
          "type": "address"
        },
        {
          "indexed": true,
          "internalType": "address",
          "name": "newOwner",
          "type": "address"
        }
      ],
      "name": "OwnershipTransferred",
      "type": "event"
    },
    {
      "anonymous": false,
      "inputs": [
        {
          "indexed": true,
          "internalType": "enum Market.PauseType",
          "name": "_type",
          "type": "uint8"
        },
        {
          "indexed": true,
          "internalType": "bool",
          "name": "oldState",
          "type": "bool"
        },
        {
          "indexed": true,
          "internalType": "bool",
          "name": "newState",
          "type": "bool"
        }
      ],
      "name": "PausedUpdated",
      "type": "event"
    },
    {
      "anonymous": false,
      "inputs": [
        {
          "indexed": true,
          "internalType": "address",
          "name": "from",
          "type": "address"
        },
        {
          "indexed": true,
          "internalType": "address",
          "name": "to",
          "type": "address"
        },
        {
          "indexed": false,
          "internalType": "uint256",
          "name": "value",
          "type": "uint256"
        }
      ],
      "name": "Transfer",
      "type": "event"
    },
    {
      "anonymous": false,
      "inputs": [
        {
          "indexed": true,
          "internalType": "address",
          "name": "newAddress",
          "type": "address"
        }
      ],
      "name": "UsdoSwapperUpdated",
      "type": "event"
    },
    {
      "inputs": [],
      "name": "DOMAIN_SEPARATOR",
      "outputs": [
        {
          "internalType": "bytes32",
          "name": "",
          "type": "bytes32"
        }
      ],
      "stateMutability": "view",
      "type": "function"
    },
    {
      "inputs": [],
      "name": "accrue",
      "outputs": [],
      "stateMutability": "nonpayable",
      "type": "function"
    },
    {
      "inputs": [],
      "name": "accrueInfo",
      "outputs": [
        {
          "internalType": "uint64",
          "name": "interestPerSecond",
          "type": "uint64"
        },
        {
          "internalType": "uint64",
          "name": "lastAccrued",
          "type": "uint64"
        },
        {
          "internalType": "uint128",
          "name": "feesEarnedFraction",
          "type": "uint128"
        }
      ],
      "stateMutability": "view",
      "type": "function"
    },
    {
      "inputs": [
        {
          "internalType": "address",
          "name": "",
          "type": "address"
        },
        {
          "internalType": "address",
          "name": "",
          "type": "address"
        }
      ],
      "name": "allowance",
      "outputs": [
        {
          "internalType": "uint256",
          "name": "",
          "type": "uint256"
        }
      ],
      "stateMutability": "view",
      "type": "function"
    },
    {
      "inputs": [
        {
          "internalType": "address",
          "name": "",
          "type": "address"
        },
        {
          "internalType": "address",
          "name": "",
          "type": "address"
        }
      ],
      "name": "allowanceBorrow",
      "outputs": [
        {
          "internalType": "uint256",
          "name": "",
          "type": "uint256"
        }
      ],
      "stateMutability": "view",
      "type": "function"
    },
    {
      "inputs": [
        {
          "internalType": "address",
          "name": "spender",
          "type": "address"
        },
        {
          "internalType": "uint256",
          "name": "amount",
          "type": "uint256"
        }
      ],
      "name": "approve",
      "outputs": [
        {
          "internalType": "bool",
          "name": "",
          "type": "bool"
        }
      ],
      "stateMutability": "nonpayable",
      "type": "function"
    },
    {
      "inputs": [
        {
          "internalType": "address",
          "name": "spender",
          "type": "address"
        },
        {
          "internalType": "uint256",
          "name": "amount",
          "type": "uint256"
        }
      ],
      "name": "approveBorrow",
      "outputs": [
        {
          "internalType": "bool",
          "name": "",
          "type": "bool"
        }
      ],
      "stateMutability": "nonpayable",
      "type": "function"
    },
    {
      "inputs": [],
      "name": "asset",
      "outputs": [
        {
          "internalType": "contract IERC20",
          "name": "",
          "type": "address"
        }
      ],
      "stateMutability": "view",
      "type": "function"
    },
    {
      "inputs": [],
      "name": "assetId",
      "outputs": [
        {
          "internalType": "uint256",
          "name": "",
          "type": "uint256"
        }
      ],
      "stateMutability": "view",
      "type": "function"
    },
    {
      "inputs": [
        {
          "internalType": "address",
          "name": "",
          "type": "address"
        }
      ],
      "name": "balanceOf",
      "outputs": [
        {
          "internalType": "uint256",
          "name": "",
          "type": "uint256"
        }
      ],
      "stateMutability": "view",
      "type": "function"
    },
    {
      "inputs": [
        {
          "internalType": "address",
          "name": "from",
          "type": "address"
        },
        {
          "internalType": "address",
          "name": "to",
          "type": "address"
        },
        {
          "internalType": "uint256",
          "name": "amount",
          "type": "uint256"
        }
      ],
      "name": "borrow",
      "outputs": [
        {
          "internalType": "uint256",
          "name": "part",
          "type": "uint256"
        },
        {
          "internalType": "uint256",
          "name": "share",
          "type": "uint256"
        }
      ],
      "stateMutability": "nonpayable",
      "type": "function"
    },
    {
      "inputs": [],
      "name": "borrowOpeningFee",
      "outputs": [
        {
          "internalType": "uint256",
          "name": "",
          "type": "uint256"
        }
      ],
      "stateMutability": "view",
      "type": "function"
    },
    {
      "inputs": [],
      "name": "callerFee",
      "outputs": [
        {
          "internalType": "uint256",
          "name": "",
          "type": "uint256"
        }
      ],
      "stateMutability": "view",
      "type": "function"
    },
    {
      "inputs": [],
      "name": "claimOwnership",
      "outputs": [],
      "stateMutability": "nonpayable",
      "type": "function"
    },
    {
      "inputs": [],
      "name": "collateral",
      "outputs": [
        {
          "internalType": "contract IERC20",
          "name": "",
          "type": "address"
        }
      ],
      "stateMutability": "view",
      "type": "function"
    },
    {
      "inputs": [],
      "name": "collateralId",
      "outputs": [
        {
          "internalType": "uint256",
          "name": "",
          "type": "uint256"
        }
      ],
      "stateMutability": "view",
      "type": "function"
    },
    {
      "inputs": [],
      "name": "collateralizationRate",
      "outputs": [
        {
          "internalType": "uint256",
          "name": "",
          "type": "uint256"
        }
      ],
      "stateMutability": "view",
      "type": "function"
    },
    {
      "inputs": [
        {
          "internalType": "uint256",
          "name": "borrowPart",
          "type": "uint256"
        },
        {
          "internalType": "uint256",
          "name": "collateralPartInAsset",
          "type": "uint256"
        },
        {
          "internalType": "uint256",
          "name": "ratesPrecision",
          "type": "uint256"
        }
      ],
      "name": "computeClosingFactor",
      "outputs": [
        {
          "internalType": "uint256",
          "name": "",
          "type": "uint256"
        }
      ],
      "stateMutability": "view",
      "type": "function"
    },
    {
      "inputs": [
        {
          "internalType": "address",
          "name": "user",
          "type": "address"
        },
        {
          "internalType": "uint256",
          "name": "_exchangeRate",
          "type": "uint256"
        }
      ],
      "name": "computeLiquidatorReward",
      "outputs": [
        {
          "internalType": "uint256",
          "name": "",
          "type": "uint256"
        }
      ],
      "stateMutability": "view",
      "type": "function"
    },
    {
      "inputs": [
        {
          "internalType": "address",
          "name": "user",
          "type": "address"
        },
        {
          "internalType": "uint256",
          "name": "_exchangeRate",
          "type": "uint256"
        }
      ],
      "name": "computeTVLInfo",
      "outputs": [
        {
          "internalType": "uint256",
          "name": "amountToSolvency",
          "type": "uint256"
        },
        {
          "internalType": "uint256",
          "name": "minTVL",
          "type": "uint256"
        },
        {
          "internalType": "uint256",
          "name": "maxTVL",
          "type": "uint256"
        }
      ],
      "stateMutability": "view",
      "type": "function"
    },
    {
      "inputs": [],
      "name": "conservator",
      "outputs": [
        {
          "internalType": "address",
          "name": "",
          "type": "address"
        }
      ],
      "stateMutability": "view",
      "type": "function"
    },
    {
      "inputs": [],
      "name": "decimals",
      "outputs": [
        {
          "internalType": "uint8",
          "name": "",
          "type": "uint8"
        }
      ],
      "stateMutability": "view",
      "type": "function"
    },
    {
      "inputs": [],
      "name": "exchangeRate",
      "outputs": [
        {
          "internalType": "uint256",
          "name": "",
          "type": "uint256"
        }
      ],
      "stateMutability": "view",
      "type": "function"
    },
    {
      "inputs": [],
      "name": "fullUtilizationMinusMax",
      "outputs": [
        {
          "internalType": "uint256",
          "name": "",
          "type": "uint256"
        }
      ],
      "stateMutability": "view",
      "type": "function"
    },
    {
      "inputs": [],
      "name": "getInterestDetails",
      "outputs": [
        {
          "components": [
            {
              "internalType": "uint64",
              "name": "interestPerSecond",
              "type": "uint64"
            },
            {
              "internalType": "uint64",
              "name": "lastAccrued",
              "type": "uint64"
            },
            {
              "internalType": "uint128",
              "name": "feesEarnedFraction",
              "type": "uint128"
            }
          ],
          "internalType": "struct ISingularity.AccrueInfo",
          "name": "_accrueInfo",
          "type": "tuple"
        },
        {
          "internalType": "uint256",
          "name": "utilization",
          "type": "uint256"
        }
      ],
      "stateMutability": "view",
      "type": "function"
    },
    {
      "inputs": [],
      "name": "interestElasticity",
      "outputs": [
        {
          "internalType": "uint256",
          "name": "",
          "type": "uint256"
        }
      ],
      "stateMutability": "view",
      "type": "function"
    },
    {
      "inputs": [],
      "name": "liquidationBonusAmount",
      "outputs": [
        {
          "internalType": "uint256",
          "name": "",
          "type": "uint256"
        }
      ],
      "stateMutability": "view",
      "type": "function"
    },
    {
      "inputs": [],
      "name": "liquidationCollateralizationRate",
      "outputs": [
        {
          "internalType": "uint256",
          "name": "",
          "type": "uint256"
        }
      ],
      "stateMutability": "view",
      "type": "function"
    },
    {
      "inputs": [],
      "name": "liquidationMultiplier",
      "outputs": [
        {
          "internalType": "uint256",
          "name": "",
          "type": "uint256"
        }
      ],
      "stateMutability": "view",
      "type": "function"
    },
    {
      "inputs": [],
      "name": "liquidationQueue",
      "outputs": [
        {
          "internalType": "contract ILiquidationQueue",
          "name": "",
          "type": "address"
        }
      ],
      "stateMutability": "view",
      "type": "function"
    },
    {
      "inputs": [],
      "name": "lqCollateralizationRate",
      "outputs": [
        {
          "internalType": "uint256",
          "name": "",
          "type": "uint256"
        }
      ],
      "stateMutability": "view",
      "type": "function"
    },
    {
      "inputs": [],
      "name": "maxLiquidatorReward",
      "outputs": [
        {
          "internalType": "uint256",
          "name": "",
          "type": "uint256"
        }
      ],
      "stateMutability": "view",
      "type": "function"
    },
    {
      "inputs": [],
      "name": "maximumInterestPerSecond",
      "outputs": [
        {
          "internalType": "uint64",
          "name": "",
          "type": "uint64"
        }
      ],
      "stateMutability": "view",
      "type": "function"
    },
    {
      "inputs": [],
      "name": "maximumTargetUtilization",
      "outputs": [
        {
          "internalType": "uint256",
          "name": "",
          "type": "uint256"
        }
      ],
      "stateMutability": "view",
      "type": "function"
    },
    {
      "inputs": [],
      "name": "minLiquidatorReward",
      "outputs": [
        {
          "internalType": "uint256",
          "name": "",
          "type": "uint256"
        }
      ],
      "stateMutability": "view",
      "type": "function"
    },
    {
      "inputs": [],
      "name": "minimumInterestPerSecond",
      "outputs": [
        {
          "internalType": "uint64",
          "name": "",
          "type": "uint64"
        }
      ],
      "stateMutability": "view",
      "type": "function"
    },
    {
      "inputs": [],
      "name": "minimumTargetUtilization",
      "outputs": [
        {
          "internalType": "uint256",
          "name": "",
          "type": "uint256"
        }
      ],
      "stateMutability": "view",
      "type": "function"
    },
    {
      "inputs": [],
      "name": "name",
      "outputs": [
        {
          "internalType": "string",
          "name": "",
          "type": "string"
        }
      ],
      "stateMutability": "view",
      "type": "function"
    },
    {
      "inputs": [
        {
          "internalType": "address",
          "name": "owner",
          "type": "address"
        }
      ],
      "name": "nonces",
      "outputs": [
        {
          "internalType": "uint256",
          "name": "",
          "type": "uint256"
        }
      ],
      "stateMutability": "view",
      "type": "function"
    },
    {
      "inputs": [],
      "name": "oracle",
      "outputs": [
        {
          "internalType": "contract IOracle",
          "name": "",
          "type": "address"
        }
      ],
      "stateMutability": "view",
      "type": "function"
    },
    {
      "inputs": [],
      "name": "oracleData",
      "outputs": [
        {
          "internalType": "bytes",
          "name": "",
          "type": "bytes"
        }
      ],
      "stateMutability": "view",
      "type": "function"
    },
    {
      "inputs": [],
      "name": "owner",
      "outputs": [
        {
          "internalType": "address",
          "name": "",
          "type": "address"
        }
      ],
      "stateMutability": "view",
      "type": "function"
    },
    {
      "inputs": [
        {
          "internalType": "enum Market.PauseType",
          "name": "pauseProp",
          "type": "uint8"
        }
      ],
      "name": "pauseOptions",
      "outputs": [
        {
          "internalType": "bool",
          "name": "pauseStatus",
          "type": "bool"
        }
      ],
      "stateMutability": "view",
      "type": "function"
    },
    {
      "inputs": [],
      "name": "pendingOwner",
      "outputs": [
        {
          "internalType": "address",
          "name": "",
          "type": "address"
        }
      ],
      "stateMutability": "view",
      "type": "function"
    },
    {
      "inputs": [],
      "name": "penrose",
      "outputs": [
        {
          "internalType": "contract IPenrose",
          "name": "",
          "type": "address"
        }
      ],
      "stateMutability": "view",
      "type": "function"
    },
    {
      "inputs": [
        {
          "internalType": "address",
          "name": "owner",
          "type": "address"
        },
        {
          "internalType": "address",
          "name": "spender",
          "type": "address"
        },
        {
          "internalType": "uint256",
          "name": "value",
          "type": "uint256"
        },
        {
          "internalType": "uint256",
          "name": "deadline",
          "type": "uint256"
        },
        {
          "internalType": "uint8",
          "name": "v",
          "type": "uint8"
        },
        {
          "internalType": "bytes32",
          "name": "r",
          "type": "bytes32"
        },
        {
          "internalType": "bytes32",
          "name": "s",
          "type": "bytes32"
        }
      ],
      "name": "permit",
      "outputs": [],
      "stateMutability": "nonpayable",
      "type": "function"
    },
    {
      "inputs": [
        {
          "internalType": "bytes",
          "name": "data",
          "type": "bytes"
        },
        {
          "internalType": "uint16",
          "name": "actionType",
          "type": "uint16"
        }
      ],
      "name": "permitAction",
      "outputs": [],
      "stateMutability": "nonpayable",
      "type": "function"
    },
    {
      "inputs": [
        {
          "internalType": "address",
          "name": "owner",
          "type": "address"
        },
        {
          "internalType": "address",
          "name": "spender",
          "type": "address"
        },
        {
          "internalType": "uint256",
          "name": "value",
          "type": "uint256"
        },
        {
          "internalType": "uint256",
          "name": "deadline",
          "type": "uint256"
        },
        {
          "internalType": "uint8",
          "name": "v",
          "type": "uint8"
        },
        {
          "internalType": "bytes32",
          "name": "r",
          "type": "bytes32"
        },
        {
          "internalType": "bytes32",
          "name": "s",
          "type": "bytes32"
        }
      ],
      "name": "permitBorrow",
      "outputs": [],
      "stateMutability": "nonpayable",
      "type": "function"
    },
    {
      "inputs": [],
      "name": "protocolFee",
      "outputs": [
        {
          "internalType": "uint256",
          "name": "",
          "type": "uint256"
        }
      ],
      "stateMutability": "view",
      "type": "function"
    },
    {
      "inputs": [],
      "name": "rateTimestamp",
      "outputs": [
        {
          "internalType": "uint256",
          "name": "",
          "type": "uint256"
        }
      ],
      "stateMutability": "view",
      "type": "function"
    },
    {
      "inputs": [],
      "name": "rateValidDuration",
      "outputs": [
        {
          "internalType": "uint256",
          "name": "",
          "type": "uint256"
        }
      ],
      "stateMutability": "view",
      "type": "function"
    },
    {
      "inputs": [
        {
          "internalType": "address",
          "name": "from",
          "type": "address"
        },
        {
          "internalType": "address",
          "name": "to",
          "type": "address"
        },
        {
          "internalType": "bool",
          "name": "skim",
          "type": "bool"
        },
        {
          "internalType": "uint256",
          "name": "part",
          "type": "uint256"
        }
      ],
      "name": "repay",
      "outputs": [
        {
          "internalType": "uint256",
          "name": "amount",
          "type": "uint256"
        }
      ],
      "stateMutability": "nonpayable",
      "type": "function"
    },
    {
      "inputs": [
        {
          "internalType": "uint256",
          "name": "_borrowOpeningFee",
          "type": "uint256"
        },
        {
          "internalType": "contract IOracle",
          "name": "_oracle",
          "type": "address"
        },
        {
          "internalType": "bytes",
          "name": "_oracleData",
          "type": "bytes"
        },
        {
          "internalType": "address",
          "name": "_conservator",
          "type": "address"
        },
        {
          "internalType": "uint256",
          "name": "_callerFee",
          "type": "uint256"
        },
        {
          "internalType": "uint256",
          "name": "_protocolFee",
          "type": "uint256"
        },
        {
          "internalType": "uint256",
          "name": "_liquidationBonusAmount",
          "type": "uint256"
        },
        {
          "internalType": "uint256",
          "name": "_minLiquidatorReward",
          "type": "uint256"
        },
        {
          "internalType": "uint256",
          "name": "_maxLiquidatorReward",
          "type": "uint256"
        },
        {
          "internalType": "uint256",
          "name": "_totalBorrowCap",
          "type": "uint256"
        },
        {
          "internalType": "uint256",
          "name": "_collateralizationRate",
          "type": "uint256"
        },
        {
          "internalType": "uint256",
          "name": "_liquidationCollateralizationRate",
          "type": "uint256"
        }
      ],
      "name": "setMarketConfig",
      "outputs": [],
      "stateMutability": "nonpayable",
      "type": "function"
    },
    {
      "inputs": [],
      "name": "startingInterestPerSecond",
      "outputs": [
        {
          "internalType": "uint64",
          "name": "",
          "type": "uint64"
        }
      ],
      "stateMutability": "view",
      "type": "function"
    },
    {
      "inputs": [],
      "name": "symbol",
      "outputs": [
        {
          "internalType": "string",
          "name": "",
          "type": "string"
        }
      ],
      "stateMutability": "view",
      "type": "function"
    },
    {
      "inputs": [],
      "name": "totalAsset",
      "outputs": [
        {
          "internalType": "uint128",
          "name": "elastic",
          "type": "uint128"
        },
        {
          "internalType": "uint128",
          "name": "base",
          "type": "uint128"
        }
      ],
      "stateMutability": "view",
      "type": "function"
    },
    {
      "inputs": [],
      "name": "totalBorrow",
      "outputs": [
        {
          "internalType": "uint128",
          "name": "elastic",
          "type": "uint128"
        },
        {
          "internalType": "uint128",
          "name": "base",
          "type": "uint128"
        }
      ],
      "stateMutability": "view",
      "type": "function"
    },
    {
      "inputs": [],
      "name": "totalBorrowCap",
      "outputs": [
        {
          "internalType": "uint256",
          "name": "",
          "type": "uint256"
        }
      ],
      "stateMutability": "view",
      "type": "function"
    },
    {
      "inputs": [],
      "name": "totalCollateralShare",
      "outputs": [
        {
          "internalType": "uint256",
          "name": "",
          "type": "uint256"
        }
      ],
      "stateMutability": "view",
      "type": "function"
    },
    {
      "inputs": [],
      "name": "totalSupply",
      "outputs": [
        {
          "internalType": "uint256",
          "name": "",
          "type": "uint256"
        }
      ],
      "stateMutability": "view",
      "type": "function"
    },
    {
      "inputs": [
        {
          "internalType": "address",
          "name": "to",
          "type": "address"
        },
        {
          "internalType": "uint256",
          "name": "amount",
          "type": "uint256"
        }
      ],
      "name": "transfer",
      "outputs": [
        {
          "internalType": "bool",
          "name": "",
          "type": "bool"
        }
      ],
      "stateMutability": "nonpayable",
      "type": "function"
    },
    {
      "inputs": [
        {
          "internalType": "address",
          "name": "from",
          "type": "address"
        },
        {
          "internalType": "address",
          "name": "to",
          "type": "address"
        },
        {
          "internalType": "uint256",
          "name": "amount",
          "type": "uint256"
        }
      ],
      "name": "transferFrom",
      "outputs": [
        {
          "internalType": "bool",
          "name": "",
          "type": "bool"
        }
      ],
      "stateMutability": "nonpayable",
      "type": "function"
    },
    {
      "inputs": [
        {
          "internalType": "address",
          "name": "newOwner",
          "type": "address"
        },
        {
          "internalType": "bool",
          "name": "direct",
          "type": "bool"
        },
        {
          "internalType": "bool",
          "name": "renounce",
          "type": "bool"
        }
      ],
      "name": "transferOwnership",
      "outputs": [],
      "stateMutability": "nonpayable",
      "type": "function"
    },
    {
      "inputs": [],
      "name": "updateExchangeRate",
      "outputs": [
        {
          "internalType": "bool",
          "name": "updated",
          "type": "bool"
        },
        {
          "internalType": "uint256",
          "name": "rate",
          "type": "uint256"
        }
      ],
      "stateMutability": "nonpayable",
      "type": "function"
    },
    {
      "inputs": [
        {
          "internalType": "enum Market.PauseType",
          "name": "_type",
          "type": "uint8"
        },
        {
          "internalType": "bool",
          "name": "val",
          "type": "bool"
        }
      ],
      "name": "updatePause",
      "outputs": [],
      "stateMutability": "nonpayable",
      "type": "function"
    },
    {
      "inputs": [
        {
          "internalType": "address",
          "name": "",
          "type": "address"
        }
      ],
      "name": "userBorrowPart",
      "outputs": [
        {
          "internalType": "uint256",
          "name": "",
          "type": "uint256"
        }
      ],
      "stateMutability": "view",
      "type": "function"
    },
    {
      "inputs": [
        {
          "internalType": "address",
          "name": "",
          "type": "address"
        }
      ],
      "name": "userCollateralShare",
      "outputs": [
        {
          "internalType": "uint256",
          "name": "",
          "type": "uint256"
        }
      ],
      "stateMutability": "view",
      "type": "function"
    },
    {
      "inputs": [],
      "name": "yieldBox",
      "outputs": [
        {
          "internalType": "contract YieldBox",
          "name": "",
          "type": "address"
        }
      ],
      "stateMutability": "view",
      "type": "function"
    }
  ],
  "bytecode": "0x6101408060405234620001e5576200001781620001ea565b601381526001602082017f546170696f63612053696e67756c617269747900000000000000000000000000815260206040516200005481620001ea565b8381520192603160f81b845251902091208160e052610100918183524660a0526040519160208301907f8b73c3c69bb8fe3d512ecc4cf759cc79239f7b179b0ffacaa9a75d522b39400f92838352604085015260608401524660808401523060a084015260a0835260c083019280841060018060401b03851117620001cf5760408490525190206080523060c052610120908152600580546001600160a01b0319163390811790915560007f8be0079c531659141344cd1fd0a4f28419497f9722a3daafe3b4186f6b6457e08180a362013880601b5562015f90601c55612710601d556032602055612ee06021557f0bd4060688a1800ae986e4840aebc924bb40b5bf44de4583df2257220b54b77c6028557f7d1dc38e60930664f8cbf495da6556ca091d2f92d6550877750c049864b182306029556161a8602a556140ee928362000207843960805183612afa015260a05183612bc4015260c05183612ac4015260e05183612b4901525182612b6f01525181612b260152f35b634e487b7160e01b600052604160045260246000fd5b600080fd5b604081019081106001600160401b03821117620001cf5760405256fe608060408181526004918236101561001657600080fd5b60009260e08435811c928362a02a201461202b5750826302ce728f1461200257826306fdde0314611f4a578263078dfbe714611e57578263095ea7b314611e2c5782630996efb71461197a5782630c4e84f01461186357826318160ddd146118405782631c9e379b146118075782631da8bf101461175f57826323b872dd146115d7578263313ce567146115a0578263331960ff1461158057826334d441d0146115605782633644e5151461154257826337b6b7b91461152257826338d52e0f146114f85782633ba0b9a9146114d85782633f741adb146114af57826340626d8b1461148f57826344de240a1461146f578263473e3ce71461144f57826348e4163e146114165782634d7f2a34146113f65782634e71e0c8146113535782635224372c1461129c578263529898f21461127c57826352f353eb14611252578263551402321461122857826355c2ab94146111fe57826357935462146111de5782635dfe04e81461117e5782636c3d8b8f1461115457826370a082311461111b57826372778547146110e357826374645ff3146110b65782637dc0d1d01461108c5782637ecebe00146110555782637fa0b84e14611023578263821226e8146110035782638285ef4014610fcf5782638c5d0ed314610faf5782638da5cb5b14610f85578263910dd7c814610d4c578263959916dc14610d2d57826395d89b4114610c7457826399a9702814610c435782639c5d719214610c235782639e15e89f14610be7578263a9059cbb14610b0b578263b0e21e8a14610aeb578263b27c0e7414610ab0578263bb4cfe3b14610a90578263c23ea21f14610a66578263cd0211eb14610640578263ce8849ed14610616578263d505accf146104c55750508063d8dfeb451461049d578063dd62ed3e14610450578063de40657714610428578063e0996cb61461040a578063e30c3978146103e2578063ea64dd56146103c4578063eec0f42e146103a6578063f42760b714610388578063f8ba4cff14610369578063f9557ccb146103335763ffe04c661461031257600080fd5b3461032f578160031936011261032f57602090602b549051908152f35b5080fd5b503461032f578160031936011261032f57602554905190819061036590608081901c906001600160801b03168361232e565b0390f35b8234610385578060031936011261038557610382613ccb565b80f35b80fd5b503461032f578160031936011261032f57602090602c549051908152f35b503461032f578160031936011261032f57602090600c549051908152f35b503461032f578160031936011261032f57602090601f549051908152f35b503461032f578160031936011261032f5760065490516001600160a01b039091168152602090f35b503461032f578160031936011261032f57602090601d549051908152f35b503461032f578160031936011261032f5760095490516001600160a01b039091168152602090f35b503461032f578060031936011261032f5760209161046c612071565b82610475612087565b6001600160a01b03928316845260028652922091166000908152908352819020549051908152f35b503461032f578160031936011261032f57600b5490516001600160a01b039091168152602090f35b84925034610612576104d636612103565b9183949895979342116105e157916105969161059e938c8b8b60018060a01b0398898d169a8b93846000528d602052856000209081549161051683612e1a565b90558c8751956020870197600080516020613fd9833981519152895260008a890152606088015216608086015260a085015260c084015281830152815261055c816122d4565b519020610567612ac1565b915190602082019261190160f01b8452602283015260428201526042815261058e816122f0565b519020612d95565b919091612c96565b16036105b05750610382939450612e77565b606490602087519162461bcd60e51b8352820152601e6024820152600080516020613fb98339815191526044820152fd5b8a5162461bcd60e51b8152602081880152601d6024820152600080516020613f998339815191526044820152606490fd5b8280fd5b5050503461032f578160031936011261032f5760085490516001600160a01b039091168152602090f35b5083833461032f57608036600319011261032f5761065c612071565b610664612087565b9061066d6120f4565b9360643591600182526020956007875261068d60ff878520541615612ece565b6001600160a01b03858116959093906106ea906106ac30891415612f0b565b6106b4612652565b50506106be613ccb565b6106cf876106ca6133d3565b61366f565b905060115460ff6106e389600d5416613365565b169261351c565b8015610a23576106fa908461359f565b8581526017885286812054808611610a1b575b5084156109e057879861074a98610726876106ca6133d3565b8151909b6001600160801b039390928492610742908416613c87565b015116613c3d565b87835260178b5288832061075f888254612445565b90558560095416600e54928a5193638eb22cdd60e01b855280828601528c6024860152600160448601528d85606481865afa948515610915578c918f9188976109aa575b50602554861694891561091f575060448b60095416935180948193627eeac760e11b8352308884015260248301525afa801561091557839087906108df575b6107ec9250612445565b84116108ac575092600080516020613ff983398151915295928c959261081a8d9b9a99965b82841690613742565b1660018060801b0319602554161760255584841690818352602787528b83206028549081855288528c842054821160001461088757505081526027855289812060285482528552808a8120555b5015610882575080600954165b87519485521692a451908152f35b610874565b90918352602787528b832090835286526108a58b8320918254612445565b9055610867565b8a5162461bcd60e51b81529081018d9052600d60248201526c0a68e987440e8dede40daeac6d609b1b6044820152606490fd5b50508d81813d831161090e575b6108f6818361230b565b8101031261090957826107ec91516107e2565b600080fd5b503d6108ec565b8c513d88823e3d90fd5b9250929050813b156109a6579186918693838f6109528d915197889687958694630208d92960e11b865230918601613da6565b03925af1801561099c57928c9a99989592600080516020613ff98339815191529895928f9895610987575b5061081a90610811565b9361099561081a9295612275565b939061097d565b8b513d87823e3d90fd5b8680fd5b9250955081813d83116109d9575b6109c2818361230b565b810103126109d5578d8c915195386107a3565b8580fd5b503d6109b8565b865162461bcd60e51b8152808a01899052601560248201527453474c3a206e6f7468696e6720746f20726570617960581b6044820152606490fd5b94508961070d565b875162461bcd60e51b8152808b018a9052601d60248201527f53474c3a20616c6c6f77616e63655368617265206e6f742076616c69640000006044820152606490fd5b5050503461032f578160031936011261032f5760265490516001600160a01b039091168152602090f35b5050503461032f578160031936011261032f57602090601e549051908152f35b5050503461032f578160031936011261032f576060906024549080519160018060401b03808216845281831c16602084015260801c90820152f35b5050503461032f578160031936011261032f57602090601a549051908152f35b5050503461032f578060031936011261032f57602091610b29612071565b82602435928315801590610bd5575b610b68575b50519182526001600160a01b0316903390600080516020614059833981519152908590a35160018152f35b3381526001865281812054610b7f85821015612bea565b6001600160a01b038416908533839003610b9c575b505050610b3d565b610bb091610bab841515612c2f565b612445565b3383526001885283832055815220610bc9838254612452565b90558238808085610b94565b50336001600160a01b03841614610b38565b5050503461032f578060031936011261032f57606090610c11610c08612071565b60243590612591565b91929081519384526020840152820152f35b5050503461032f578160031936011261032f57602090602d549051908152f35b5050503461032f578060031936011261032f57602090610c6d610c64612071565b6024359061298f565b9051908152f35b509050346106125782600319360112610612579180806103659460018060a01b03600b541690855160208101916395d89b4160e01b83528152610cb68161229e565b51915afa610cc2613335565b915015610d1e57610cd290613e27565b905b610d0c60238251809462746d2d60e81b6020830152610cfc815180926020868601910161209d565b810103600381018552018361230b565b519182916020835260208301906120c0565b50610d27613dd0565b90610cd4565b5050503461032f578160031936011261032f5760209081549051908152f35b84918434610f815780600319360112610f81578135926001600160401b038411610f7d5736602385011215610f7d578383013592610d8984612348565b94610d968451968761230b565b84865286602091828801963660248284010111610612578060248593018937880101526024359361ffff8516809503610f7957610100958688805181010312610f7557610de290612645565b93610dee828901612c74565b90610dfb60608a01612c74565b9860808101519860a082015192610e1460c08401612c88565b91818401519301519360018060a01b03808097169d169a814211610f4457928d8f819897948f948f8f968f918f959a8f8c8195610ede9f9c6105969f50600014610f2f57600080516020613fd98339815191529a5b825289522093845494610e7b86612e1a565b905580519788019889528701528d6060870152608086015260a085015260c0840152818301528152610eac816122d4565b519020610eb7612ac1565b908951908b82019261190160f01b8452602283015260428201526042815261058e816122f0565b1603610f0057505050600014610ef75761038292612e77565b61038292612e29565b5162461bcd60e51b815291820152601e6024820152600080516020613fb9833981519152604482015260649150fd5b6000805160206140398339815191529a610e69565b875162461bcd60e51b8152808b018a9052601d6024820152600080516020613f998339815191526044820152606490fd5b8880fd5b8780fd5b8480fd5b8380fd5b5050503461032f578160031936011261032f5760055490516001600160a01b039091168152602090f35b5050503461032f578160031936011261032f57602090601b549051908152f35b5050503461032f578160031936011261032f57601454905190819061036590608081901c906001600160801b03168361232e565b5050503461032f578160031936011261032f57602090602f549051908152f35b5050503461032f578060031936011261032f5760209061104e611044612071565b6024359033612e29565b5160018152f35b509050346106125760203660031901126106125760209282916001600160a01b0361107e612071565b168252845220549051908152f35b5050503461032f578160031936011261032f57600f5490516001600160a01b039091168152602090f35b5050503461032f578160031936011261032f57805161036591610d0c826110dc816121f0565b038361230b565b509050346106125760203660031901126106125735916009831015610385575060ff611110602093612187565b541690519015158152f35b5050503461032f57602036600319011261032f5760209181906001600160a01b03611144612071565b1681526001845220549051908152f35b5050503461032f578160031936011261032f57600a5490516001600160a01b039091168152602090f35b5050503461032f578160031936011261032f5760809061119c613723565b506111a561375b565b509495935050505080519260018060401b03808251168552602082015116602085015281600180871b0391015116908301526060820152f35b5050503461032f578160031936011261032f57602090601c549051908152f35b5050503461032f578160031936011261032f57602e548151911c6001600160401b03168152602090f35b5050503461032f578160031936011261032f57602e5490516001600160401b039091168152602090f35b5050503461032f578160031936011261032f5760305490516001600160401b039091168152602090f35b5050503461032f578160031936011261032f576020906021549051908152f35b509050346106125761130a906112fe60ff84956112d16112bb36612152565b9491989093808052600760205220541615612ece565b6112d9612652565b50506112e3613ccb565b6112f86001600160a01b038216301415612f0b565b85612f56565b9290936011549061341f565b1561131c575082519182526020820152f35b606490602085519162461bcd60e51b8352820152601160248201527013585c9ad95d0e881a5b9cdbdb1d995b9d607a1b6044820152fd5b848285346106125782600319360112610612576006546001600160a01b039290918383169190338390036113b3575050806005549384166000805160206140198339815191528680a36001600160a01b0319928316176005551660065580f35b906020606492519162461bcd60e51b8352820152602060248201527f4f776e61626c653a2063616c6c657220213d2070656e64696e67206f776e65726044820152fd5b5050503461032f578160031936011261032f57602090602a549051908152f35b5050503461032f57602036600319011261032f5760209181906001600160a01b0361143f612071565b1681526017845220549051908152f35b5050503461032f578160031936011261032f576020906015549051908152f35b5050503461032f578160031936011261032f57602090600e549051908152f35b5050503461032f578160031936011261032f576020906016549051908152f35b508284346103855760603660031901126103855750610c6d602092604435906024359035612478565b5050503461032f578160031936011261032f576020906011549051908152f35b5050503461032f578160031936011261032f57600d5490516001600160a01b039091168152602090f35b5050503461032f578160031936011261032f576020906012549051908152f35b5050503461032f578160031936011261032f57602090610c6d612ac1565b5050503461032f578160031936011261032f576020906019549051908152f35b5050503461032f578160031936011261032f576020906013549051908152f35b5050503461032f578160031936011261032f57600d546020919060ff906115cf906001600160a01b0316613365565b915191168152f35b50828434610385576115e836612152565b919282611622575b508351918252602094506001600160a01b03908116921690600080516020614059833981519152908590a35160018152f35b6001600160a01b03848116808352600160209081528784205491989290919061164d87831015612bea565b851692838a03611661575b505050506115f0565b8985526002835288852033865283528885205490600182016116cb575b5050928260209960018a946116aa8a8e99610bab6000805160206140598339815191529c9a1515612c2f565b92855252838320558152206116c0858254612452565b905591878080611658565b87821061172157509260209960018a946116aa8a8e99966116fc826000805160206140598339815191529d9b612445565b86895260028552898920338a528552898920559699505050945050998194965061167e565b895162461bcd60e51b8152908101849052601860248201527745524332303a20616c6c6f77616e636520746f6f206c6f7760401b6044820152606490fd5b849250346106125761177036612103565b9397949690928042116105e1579386936117f5938c8c89610596968e9a8e60018060a01b03809c169c8d948587526020528c878720928354936117b285612e1a565b905588519660208801986000805160206140398339815191528a528a890152606088015216608086015260a085015260c084015281830152815261055c816122d4565b16036105b05750610382939450612e29565b5050503461032f57602036600319011261032f5760209181906001600160a01b03611830612071565b1681526018845220549051908152f35b5050503461032f578160031936011261032f5760209060255460801c9051908152f35b509050346106125781600319360112610612578035906009821015610f815761188a6120e5565b6008549093906001600160a01b031633036119405760ff6118aa84612187565b54161515931515938414611908575050808260ff6118ca6118f894612187565b54161515827feeec81de25875ce1725479bb76f720a8defdb43dea041919ae37bb4aae9847c08780a4612187565b9060ff8019835416911617905580f35b906020606492519162461bcd60e51b835282015260126024820152714d61726b65743a2073616d6520737461746560701b6044820152fd5b906020606492519162461bcd60e51b8352820152601460248201527313585c9ad95d0e881d5b985d5d1a1bdc9a5e995960621b6044820152fd5b509050346106125761018036600319011261061257602480356001600160a01b03818116918290036109d5576001600160401b03604435818111610f795736602382011215610f795780860135918211610f795736858383010111610f795760643593838516809503610f75576119f684600554163314612363565b863580611dec575b5080611dae575b508482611c54575b50505081611c14575b505060843580611bfc575b5060a43580611be4575b5060c43580611bcd575b5060e43580611ba9575b506101043580611b85575b506101243580611b54575b506101443580611ae3575b50610164359283611a6f578480f35b601e548410611a8657505050601f55388080808480f35b608492916020603292519362461bcd60e51b85528401528201527f4d61726b65743a206c69717569646174696f6e436f6c6c61746572616c697a616044820152711d1a5bdb94985d19481d1bdbc81cdb585b1b60721b6064820152fd5b611af2620186a08211156123ae565b601f548111611b0457601e5538611a60565b506025906020608494519362461bcd60e51b85528401528201527f4d61726b65743a20636f6c6c61746572616c697a6174696f6e5261746520746f6044820152646f2062696760d81b6064820152fd5b806016547fae6e0ab3b95f0a53ff9660a390ccedcbbf1f2355dce974a9841af106fddcfaba8780a360165538611a55565b611b93620186a082106123ae565b611ba0601b5482116123ae565b601c5538611a4a565b611bb7620186a082106123ae565b611bc4601c5482106123ae565b601b5538611a3f565b611bdb620186a082106123ae565b601d5538611a35565b611bf3620186a08211156123ae565b601a5538611a2b565b611c0b620186a08211156123ae565b60195538611a21565b816008549182167f5a62d22209e370e38eea92cfddcd228e656e6ec139243392a760a7769f5877fd8880a36001600160a01b031916176008553880611a16565b8291611c616010546121b6565b601f8111611d4f575b508990601f8411600114611ccf578a93611cc2575b5050508160011b916000199060031b1c1916176010555b7fa6f004921c944d4b8bf6e38462b00f36a58d62495d56b51f571ab78f732c98158680a1388084611a0d565b0101359050843880611c7f565b60108b52601f198416945060008051602061409983398151915292509087908b60205b878210611d305750508460019610611d14575b50505050811b01601055611c96565b60001960f88660031b161c199201013516905538808681611d05565b8285019093013585556001949094019389929182019190810190611cf2565b60108b529092509050600080516020614099833981519152601f840160051c810160208510611da7575b91849391601f8994920160051c01905b818110611d965750611c6a565b8b8155859450889350600101611d89565b5080611d79565b600f80546001600160a01b0319169190911790557f0b2d6eb667d0522c3eb86e4288afecae6c11591ffd1345d4d12407e0598bca9b8880a138611a05565b611dfb620186a08211156123ae565b806020547fc353b09af857951dccce61b43a5854fc45beceed36c50e5d4cc2e71858a8e0df8c80a3602055386119fe565b5050503461032f578060031936011261032f5760209061104e611e4d612071565b6024359033612e77565b8482853461061257606036600319011261061257611e73612071565b91611e7c6120e5565b91611e856120f4565b9260018060a01b03948591611e9f83600554163314612363565b15611f31571692831590811591611f29575b5015611eee575050806005549283166000805160206140198339815191528580a36001600160a01b03199182161760055560068054909116905580f35b906020606492519162461bcd60e51b835282015260156024820152744f776e61626c653a207a65726f206164647265737360581b6044820152fd5b905086611eb1565b93505050501660018060a01b0319600654161760065580f35b509050346106125782600319360112610612579180806103659460018060a01b03600b541690855160208101916306fdde0360e01b83528152611f8c8161229e565b51915afa611f98613335565b915015611ff357611fa890613e27565b905b610d0c60348251809473546170696f63612053696e67756c61726974792d60601b6020830152611fe3815180926020868601910161209d565b810103601481018552018361230b565b50611ffc613dd0565b90611faa565b8385346103855780600319360112610385575061201d612652565b825191151582526020820152f35b85908534610612578060031936011261061257602092612049612071565b612051612087565b6001600160a01b0391821683526003865283832091168252845220548152f35b600435906001600160a01b038216820361090957565b602435906001600160a01b038216820361090957565b60005b8381106120b05750506000910152565b81810151838201526020016120a0565b906020916120d98151809281855285808601910161209d565b601f01601f1916010190565b60243590811515820361090957565b60443590811515820361090957565b60e0906003190112610909576001600160a01b03906004358281168103610909579160243590811681036109095790604435906064359060843560ff81168103610909579060a4359060c43590565b6060906003190112610909576001600160a01b0390600435828116810361090957916024359081168103610909579060443590565b60098110156121a0576000526007602052604060002090565b634e487b7160e01b600052602160045260246000fd5b90600182811c921680156121e6575b60208310146121d057565b634e487b7160e01b600052602260045260246000fd5b91607f16916121c5565b60105460009291612200826121b6565b90818152600192838116908160001461225a575060011461222057505050565b9092935060106000526020928360002092846000945b8386106122465750505050010190565b805485870183015294019385908201612236565b91935050602093945060ff191683830152151560051b010190565b6001600160401b03811161228857604052565b634e487b7160e01b600052604160045260246000fd5b604081019081106001600160401b0382111761228857604052565b606081019081106001600160401b0382111761228857604052565b61010081019081106001600160401b0382111761228857604052565b608081019081106001600160401b0382111761228857604052565b601f909101601f19168101906001600160401b0382119082101761228857604052565b6001600160801b0391821681529116602082015260400190565b6001600160401b03811161228857601f01601f191660200190565b1561236a57565b606460405162461bcd60e51b815260206004820152602060248201527f4f776e61626c653a2063616c6c6572206973206e6f7420746865206f776e65726044820152fd5b156123b557565b60405162461bcd60e51b815260206004820152601160248201527013585c9ad95d0e881b9bdd081d985b1a59607a1b6044820152606490fd5b8181029291811591840414171561240157565b634e487b7160e01b600052601160045260246000fd5b8115612421570490565b634e487b7160e01b600052601260045260246000fd5b604d811161240157600a0a90565b9190820391821161240157565b9190820180921161240157565b8181039291600013801582851316918412161761240157565b6014549192916124c1916124b2916124a89161249e906001600160801b038316906123ee565b9060801c90612417565b93601f54906123ee565b6124bb83612437565b90612417565b808310612589576124d56125119184612445565b9161250c6125066124fd601e546124f76124ee86612437565b60215490612452565b906123ee565b6124bb84612437565b91612437565b61245f565b6509184e72a0009081810291818305149015171561240157670de0b6b3a76400009182810292818405149015171561240157801561242157600160ff1b91808314600019831416612401570590600082121561258257811461240157600003905b80821161257d575090565b905090565b5090612572565b505050600090565b6001600160a01b038116600081815260176020526040812054919493929091908115612639579160409161261561262d959483602086516125d18161229e565b82815201526125ef866125e261375b565b5050505050939050612806565b815190936001600160801b039160209161260b918416906123ee565b9201511690612417565b81811061263157035b958152601860205220546128d8565b9091565b50508061261e565b50509192505080918190565b5190811515820361090957565b600f546040805163d6d7d52560e01b8152602060048201529290916001600160a01b0316828480612685602482016121f0565b0381600080955af180156127ae5781948291612772575b509284156127155783156126db57507f9f9192b5edb17356c524e08d9e025c8e2f6307e6ea52fb7968faa3081f51c3c883918260115580a25b42601355565b5162461bcd60e51b81526020600482015260146024820152734d61726b65743a20696e76616c6964207261746560601b6044820152606490fd5b9192505061272860135460125490612452565b42116127385750601154906126d5565b5162461bcd60e51b815260206004820152601460248201527313585c9ad95d0e881c985d19481d1bdbc81bdb1960621b6044820152606490fd5b809550848092503d83116127a7575b61278b818361230b565b8101031261038557602061279e85612645565b9401513861269c565b503d612781565b508251903d90823e3d90fd5b156127c157565b60405162461bcd60e51b815260206004820152601e60248201527f4d61726b65743a2065786368616e676552617465206e6f742076616c696400006044820152606490fd5b6128118215156127ba565b60018060a01b036020816009541691600c5490600094168452601882526064604085205491604051948593849263442c159960e01b8452600484015260248301528660448301525afa9182156128cc578092612894575b50509061288c61288361289193620186a060225404906123ee565b601e54906123ee565b612417565b90565b9091506020823d82116128c4575b816128af6020938361230b565b8101031261038557505161288c612883612868565b3d91506128a2565b604051903d90823e3d90fd5b6128e38215156127ba565b602060018060a01b0360095416916064600c54604051948593849263442c159960e01b845260048401526024830152600060448301525afa90811561298357600091612950575b509061288c61293c92602254906123ee565b620186a061294c601e54836123ee565b0491565b906020823d821161297b575b816129696020938361230b565b8101031261038557505161288c61292a565b3d915061295c565b6040513d6000823e3d90fd5b6001600160a01b031660008181526018602052604081205490926129b2916128d8565b918352601760205260408320548015612abb578115612abb57818110612abb5782811015612ab1576014546129fb918391610bab9161249e906001600160801b038316906123ee565b90620186a09283830292808404851490151715612a9d57612a2092916124bb91612445565b91601b5491601c5493612a33858561245f565b80820291848212600160ff1b821416612a9d578183051490151715612a895705818482019485129112908015821691151617612a75575080821261257d575090565b634e487b7160e01b81526011600452602490fd5b634e487b7160e01b83526011600452602483fd5b634e487b7160e01b85526011600452602485fd5b50505050601b5490565b50505090565b307f00000000000000000000000000000000000000000000000000000000000000006001600160a01b03161480612bc1575b15612b1c577f000000000000000000000000000000000000000000000000000000000000000090565b60405160208101907f000000000000000000000000000000000000000000000000000000000000000082527f000000000000000000000000000000000000000000000000000000000000000060408201527f000000000000000000000000000000000000000000000000000000000000000060608201524660808201523060a082015260a0815260c0810181811060018060401b038211176122885760405251902090565b507f00000000000000000000000000000000000000000000000000000000000000004614612af3565b15612bf157565b60405162461bcd60e51b815260206004820152601660248201527545524332303a2062616c616e636520746f6f206c6f7760501b6044820152606490fd5b15612c3657565b60405162461bcd60e51b815260206004820152601660248201527545524332303a206e6f207a65726f206164647265737360501b6044820152606490fd5b51906001600160a01b038216820361090957565b519060ff8216820361090957565b60058110156121a05780612ca75750565b60018103612cef5760405162461bcd60e51b815260206004820152601860248201527745434453413a20696e76616c6964207369676e617475726560401b6044820152606490fd5b60028103612d3c5760405162461bcd60e51b815260206004820152601f60248201527f45434453413a20696e76616c6964207369676e6174757265206c656e677468006044820152606490fd5b600314612d4557565b60405162461bcd60e51b815260206004820152602260248201527f45434453413a20696e76616c6964207369676e6174757265202773272076616c604482015261756560f01b6064820152608490fd5b9291906fa2a8918ca85bafe22016d0b997e4df60600160ff1b038311612e0e5791608094939160ff602094604051948552168484015260408301526060820152600093849182805260015afa15612e015781516001600160a01b03811615612dfb579190565b50600190565b50604051903d90823e3d90fd5b50505050600090600390565b60001981146124015760010190565b7fe50de2333c10a9502fcb1d8ae13a51bbf423153dfc63c2b8997665b32154afc360018060a01b038092169160009083825260036020526040822094169384825260205284604082205580a4565b909160207f8c5be1e5ebec7d5bd14f71427d1e84f3dd0314c0f7b2291e5b200ac8c7c3b9259160018060a01b03809416938460005260028352604060002095169485600052825280604060002055604051908152a3565b15612ed557565b60405162461bcd60e51b815260206004820152600e60248201526d13585c9ad95d0e881c185d5cd95960921b6044820152606490fd5b15612f1257565b606460405162461bcd60e51b815260206004820152602060248201527f4d61726b65743a2063616e6e6f742065786563757465206f6e20697473656c666044820152fd5b919091811561332a57620186a09260209084612f738354866123ee565b0494612fa9612f856011549787612452565b600d546001600160a01b0398919060ff90612fa1908b16613365565b16918761351c565b80156132db57612fb9908561359f565b612fc48354866123ee565b0494612fce6133d3565b9583612fda8288612452565b916040968751612fe98161229e565b6000808252970187905289516001600160801b039490851661326c5799613049908b906130449087908161302381865b1682845116613742565b16815281613039818a8401961682875116613742565b168094525116613c87565b613c3d565b601654801590811561325d575b501561321f5784899116808852601784528888206130758c8254612452565b90558851908382528b858301527f3a5151e57d3bc9798e7853034ac52293d1a0e12a2b44725e75b03b21f86477a68a888a1693a4806131fe575b50808360095416976064600e5489519a8b938492638eb22cdd60e01b8452600484015260248301528960448301525afa9687156131f45785976131c5575b506130f66133f9565b818101916103e88484511610613191575090613129839283613120613130968c1682845116613656565b16809152613ca9565b5116613c62565b6009541690600e5490823b15610f81578392839286958893613168985198899586948593630208d92960e11b85523060048601613da6565b03925af191821561318757505061317e57509091565b61262d90612275565b51903d90823e3d90fd5b60649088519062461bcd60e51b82526004820152600e60248201526d14d1d30e881b5a5b881b1a5b5a5d60921b6044820152fd5b9080975081813d83116131ed575b6131dd818361230b565b81010312610f7d575195386130ed565b503d6131d3565b86513d87823e3d90fd5b83600a5416865260018252613217878720918254612452565b9055386130af565b875162461bcd60e51b815260048101849052601760248201527614d1d30e88189bdc9c9bddc818d85c081c995858da1959604a1b6044820152606490fd5b90508460145416111538613056565b998a859b8583018781511661328190836123ee565b8885511661328e91612417565b9d8e8186511661329d916123ee565b9151166132a991612417565b106132c4575b6130448661304993818f948161302391613019565b85806132d181949e612e1a565b9d935050506132af565b60405162461bcd60e51b815260048101859052602160248201527f42696742616e673a20616c6c6f77616e63655368617265206e6f742076616c696044820152601960fa1b6064820152608490fd5b505050600090600090565b3d15613360573d9061334682612348565b91613354604051938461230b565b82523d6000602084013e565b606090565b60008091604051602081019063313ce56760e01b8252600481526133888161229e565b51916001600160a01b03165afa61339d613335565b90806133c8575b156133c2576020818051810103126109095760206128919101612c88565b50601290565b5060208151146133a4565b604051906133e08261229e565b6014546001600160801b038116835260801c6020830152565b604051906134068261229e565b6025546001600160801b038116835260801c6020830152565b919060018060a01b0380600094168452602060178152604085205490811561351257601881526040862054801561350b57816134596133d3565b9460095416916064600c54604051948593849263442c159960e01b8452600484015260248301528b60448301525afa9687156128cc5780976134d5575b505061260b6134b56128836134d0969798620186a060225404906123ee565b956134cb60018060801b039485875116906123ee565b6123ee565b111590565b9096508187813d8311613504575b6134ed818361230b565b81010312610385575094519461260b6134b5613496565b503d6134e3565b5050505050565b5060019450505050565b6125069061353c8561289196956135366124bb9685612806565b9061355c565b6001600160a01b03909116600090815260186020526040902054906123ee565b9182158015613597575b612589576001810180911161240157613585926124f761288c92612437565b6005810180911161240157600a900490565b508115613566565b6001600160a01b03163381036135b3575050565b600081815260209060038252604091828220338352815284838320541061361c57838252600381528282203383528152828220546001016135f5575050505050565b61361093825260038152828220903383525220918254612445565b9055388080808061350b565b60649083519062461bcd60e51b82526004820152601460248201527313585c9ad95d0e881b9bdd08185c1c1c9bdd995960621b6044820152fd5b6001600160801b03918216908216039190821161240157565b919091600060206040516136828161229e565b82815201526020810180516001600160801b039081166136c6576136bf81865b816136b2818a1682895116613656565b1686521682845116613656565b1690529190565b6136e06136d682855116876123ee565b8284511690612417565b94806136fc6136f284865116896123ee565b8487511690612417565b1061370c575b816136bf916136a2565b948161371a6136bf92612e1a565b96915050613702565b60405190613730826122b9565b60006040838281528260208201520152565b6001600160801b03918216908216019190821161240157565b613763613723565b50600060206040516137748161229e565b8281520152600060206040516137898161229e565b828152015260405161379a816122b9565b6024546001600160401b038082168352604082811c909116602084015260809190911c908201529081906137cc6133d3565b916137d56133f9565b9160009160018060a01b036009541692600e549260018060801b038651166040519063442c159960e01b8252856004830152602482015260006044820152602081606481895afa801561298357600090613c09575b885161384092506001600160801b031690612452565b9485613bd45760005b60208501518190613863906001600160401b031642612445565b958615613ba9575050426001600160401b031660208b8101919091528901516001600160801b031615613b5f57508751895160209161391291670de0b6b3a7640000916138c89189916134cb916001600160401b0316906001600160801b03166123ee565b8b5191900498906001600160801b03906138e790828c16908316613742565b168b5261288c620186a06138fd601a548c6123ee565b858e01516001600160801b03169190046123ee565b60408b0180519197916001600160801b03808a1692916139359084908316613742565b169052898301805190916001600160801b039161395491908316613742565b169052885160405163442c159960e01b815260048101929092526001600160801b031660248201526000604482015291829060649082905afa801561298357600090613b2b575b88516139b192506001600160801b031690612452565b80613af557506000925b602b548481811015613a55576139d19082612445565b670de0b6b3a7640000810290808204670de0b6b3a7640000149015171561240157613a37916139ff91612417565b9161288c613a24613a1e602f54936134cb60018060401b0397806123ee565b83612452565b8c519092906001600160401b03166123ee565b16808952602e546001600160401b0316908111613a515750565b8852565b9050602c54808211613a6657505050565b613a6f91612445565b90670de0b6b3a7640000820291808304670de0b6b3a764000014901517156124015761288c613ab8613a1e613aaa613ac895602d5490612417565b936134cb602f5495806123ee565b8b516001600160401b03166123ee565b602e5460401c6001600160401b0316808211613aed575b506001600160401b03168852565b905038613adf565b87516001600160801b0316670de0b6b3a764000081810292918084049091149015171561240157613b2591612417565b926139bb565b506020813d602011613b57575b81613b456020938361230b565b81010312610909576139b1905161399b565b3d9150613b38565b8951603054999a91999498509296509450506001600160401b03918216925016819003613b9d575b509392613b926133f9565b926000926000929190565b81526001925038613b87565b98509950505095505050505091613bbe6133d3565b91613bc76133f9565b9160009160009190600090565b87516001600160801b0316670de0b6b3a764000081810291808304909114901517156124015786613c0491612417565b613849565b506020813d602011613c35575b81613c236020938361230b565b8101031261090957613840905161382a565b3d9150613c16565b601480546001600160801b031660809290921b6001600160801b031916919091179055565b602580546001600160801b031660809290921b6001600160801b031916919091179055565b601480546001600160801b0319166001600160801b0392909216919091179055565b602580546001600160801b0319166001600160801b0392909216919091179055565b613d7a602080613d66613cdc61375b565b9396959390929015613d7c5750505060018060401b036030541660008060008051602061407983398151915288604051838152a45b805185820151604092830151921b600160401b600160801b03166001600160401b03919091161760809190911b6001600160801b0319161760245580516001600160801b039586929091610742908416613c87565b613d7283825116613ca9565b015116613c62565b565b83516040519384526001600160401b031692600080516020614079833981519152908990a4613d11565b6001600160a01b039182168152911660208201526040810191909152606081019190915260800190565b60405190613ddd8261229e565b60038252623f3f3f60e81b6020830152565b908151811015613e00570160200190565b634e487b7160e01b600052603260045260246000fd5b60ff1660ff81146124015760010190565b805160408110613e9f57508051810190602081818401930312610909576020810151906001600160401b038211610909570181603f82011215610909576020810151613e7281612348565b92613e80604051948561230b565b818452604082840101116109095761289191604060208501910161209d565b602092908303613f8d576000805b60ff81168581109081613f6e575b5015613ecf57613eca90613e16565b613ead565b9260ff80941692613edf84612348565b93613eed604051958661230b565b808552613efc601f1991612348565b013687860137825b85811687811080613f51575b15613f4657613f419190613f3b6001600160f81b0319613f308388613def565b5116871a9188613def565b53613e16565b613f04565b505094505050905090565b506001600160f81b0319613f658286613def565b51161515613f10565b6001600160f81b03199150613f839086613def565b5116151538613ebb565b915050612891613dd056fe45524332305065726d69743a206578706972656420646561646c696e6500000045524332305065726d69743a20696e76616c6964207369676e617475726500009cc5629bbe7baa98a89f6f8c2c396b83ab62dbb6cbb12f17f1d6ba7e6f53e266c8e512d8f188ca059984b5853d2bf653da902696b8512785b182b2c813789a6e8be0079c531659141344cd1fd0a4f28419497f9722a3daafe3b4186f6b6457e05c9ba5f0d101616843d7918f48ea857d6da95e04ac6d719e105e50a355e7c5d6ddf252ad1be2c89b69c2b068fc378daa952ba7f163c4a11628f55a4df523b3ef33af5ce86e8438eff54589f85332916444457dfa8685493fbd579b809097026b1b6847dc741a1b0cd08d278845f9d819d87b734759afb55fe2de5cb82a9ae672a26469706673582212207c79cc4e572498c1a2ddb00aaaac7fb8ab838bba0a64908d1a7a60a07581900564736f6c63430008120033",
  "linkReferences": {},
  "deployedLinkReferences": {}
}