{
  "_format": "hh-sol-artifact-1",
  "contractName": "SGLBorrow",
  "sourceName": "contracts/markets/singularity/SGLBorrow.sol",
  "abi": [
    {
      "anonymous": false,
      "inputs": [
        {
          "indexed": true,
          "internalType": "address",
          "name": "owner",
          "type": "address"
        },
        {
          "indexed": true,
          "internalType": "address",
          "name": "spender",
          "type": "address"
        },
        {
          "indexed": false,
          "internalType": "uint256",
          "name": "value",
          "type": "uint256"
        }
      ],
      "name": "Approval",
      "type": "event"
    },
    {
      "anonymous": false,
      "inputs": [
        {
          "indexed": true,
          "internalType": "address",
          "name": "owner",
          "type": "address"
        },
        {
          "indexed": true,
          "internalType": "address",
          "name": "spender",
          "type": "address"
        },
        {
          "indexed": false,
          "internalType": "uint256",
          "name": "value",
          "type": "uint256"
        }
      ],
      "name": "ApprovalBorrow",
      "type": "event"
    },
    {
      "anonymous": false,
      "inputs": [
        {
          "indexed": true,
          "internalType": "address",
          "name": "newAddress",
          "type": "address"
        }
      ],
      "name": "BidExecutionSwapperUpdated",
      "type": "event"
    },
    {
      "anonymous": false,
      "inputs": [
        {
          "indexed": true,
          "internalType": "address",
          "name": "old",
          "type": "address"
        },
        {
          "indexed": true,
          "internalType": "address",
          "name": "_new",
          "type": "address"
        }
      ],
      "name": "ConservatorUpdated",
      "type": "event"
    },
    {
      "anonymous": false,
      "inputs": [
        {
          "indexed": false,
          "internalType": "uint256",
          "name": "oldVal",
          "type": "uint256"
        },
        {
          "indexed": false,
          "internalType": "uint256",
          "name": "newVal",
          "type": "uint256"
        }
      ],
      "name": "InterestElasticityUpdated",
      "type": "event"
    },
    {
      "anonymous": false,
      "inputs": [
        {
          "indexed": true,
          "internalType": "address",
          "name": "liquidator",
          "type": "address"
        },
        {
          "indexed": false,
          "internalType": "address[]",
          "name": "users",
          "type": "address[]"
        },
        {
          "indexed": false,
          "internalType": "uint256",
          "name": "liquidatorReward",
          "type": "uint256"
        },
        {
          "indexed": false,
          "internalType": "uint256",
          "name": "protocolReward",
          "type": "uint256"
        },
        {
          "indexed": false,
          "internalType": "uint256",
          "name": "repayedAmount",
          "type": "uint256"
        },
        {
          "indexed": false,
          "internalType": "uint256",
          "name": "collateralShareRemoved",
          "type": "uint256"
        }
      ],
      "name": "Liquidated",
      "type": "event"
    },
    {
      "anonymous": false,
      "inputs": [
        {
          "indexed": false,
          "internalType": "uint256",
          "name": "oldVal",
          "type": "uint256"
        },
        {
          "indexed": false,
          "internalType": "uint256",
          "name": "newVal",
          "type": "uint256"
        }
      ],
      "name": "LiquidationMultiplierUpdated",
      "type": "event"
    },
    {
      "anonymous": false,
      "inputs": [
        {
          "indexed": false,
          "internalType": "uint256",
          "name": "accruedAmount",
          "type": "uint256"
        },
        {
          "indexed": false,
          "internalType": "uint256",
          "name": "feeFraction",
          "type": "uint256"
        },
        {
          "indexed": false,
          "internalType": "uint64",
          "name": "rate",
          "type": "uint64"
        },
        {
          "indexed": false,
          "internalType": "uint256",
          "name": "utilization",
          "type": "uint256"
        }
      ],
      "name": "LogAccrue",
      "type": "event"
    },
    {
      "anonymous": false,
      "inputs": [
        {
          "indexed": true,
          "internalType": "address",
          "name": "from",
          "type": "address"
        },
        {
          "indexed": true,
          "internalType": "address",
          "name": "to",
          "type": "address"
        },
        {
          "indexed": false,
          "internalType": "uint256",
          "name": "share",
          "type": "uint256"
        },
        {
          "indexed": false,
          "internalType": "uint256",
          "name": "fraction",
          "type": "uint256"
        }
      ],
      "name": "LogAddAsset",
      "type": "event"
    },
    {
      "anonymous": false,
      "inputs": [
        {
          "indexed": true,
          "internalType": "address",
          "name": "from",
          "type": "address"
        },
        {
          "indexed": true,
          "internalType": "address",
          "name": "to",
          "type": "address"
        },
        {
          "indexed": false,
          "internalType": "uint256",
          "name": "share",
          "type": "uint256"
        }
      ],
      "name": "LogAddCollateral",
      "type": "event"
    },
    {
      "anonymous": false,
      "inputs": [
        {
          "indexed": true,
          "internalType": "address",
          "name": "from",
          "type": "address"
        },
        {
          "indexed": true,
          "internalType": "address",
          "name": "to",
          "type": "address"
        },
        {
          "indexed": false,
          "internalType": "uint256",
          "name": "amount",
          "type": "uint256"
        },
        {
          "indexed": false,
          "internalType": "uint256",
          "name": "feeAmount",
          "type": "uint256"
        },
        {
          "indexed": false,
          "internalType": "uint256",
          "name": "part",
          "type": "uint256"
        }
      ],
      "name": "LogBorrow",
      "type": "event"
    },
    {
      "anonymous": false,
      "inputs": [
        {
          "indexed": false,
          "internalType": "uint256",
          "name": "_oldVal",
          "type": "uint256"
        },
        {
          "indexed": false,
          "internalType": "uint256",
          "name": "_newVal",
          "type": "uint256"
        }
      ],
      "name": "LogBorrowCapUpdated",
      "type": "event"
    },
    {
      "anonymous": false,
      "inputs": [
        {
          "indexed": false,
          "internalType": "uint256",
          "name": "_oldVal",
          "type": "uint256"
        },
        {
          "indexed": false,
          "internalType": "uint256",
          "name": "_newVal",
          "type": "uint256"
        }
      ],
      "name": "LogBorrowingFee",
      "type": "event"
    },
    {
      "anonymous": false,
      "inputs": [
        {
          "indexed": false,
          "internalType": "uint256",
          "name": "rate",
          "type": "uint256"
        }
      ],
      "name": "LogExchangeRate",
      "type": "event"
    },
    {
      "anonymous": false,
      "inputs": [
        {
          "indexed": true,
          "internalType": "address",
          "name": "from",
          "type": "address"
        },
        {
          "indexed": true,
          "internalType": "address",
          "name": "to",
          "type": "address"
        },
        {
          "indexed": false,
          "internalType": "uint256",
          "name": "share",
          "type": "uint256"
        },
        {
          "indexed": false,
          "internalType": "uint256",
          "name": "fraction",
          "type": "uint256"
        }
      ],
      "name": "LogRemoveAsset",
      "type": "event"
    },
    {
      "anonymous": false,
      "inputs": [
        {
          "indexed": true,
          "internalType": "address",
          "name": "from",
          "type": "address"
        },
        {
          "indexed": true,
          "internalType": "address",
          "name": "to",
          "type": "address"
        },
        {
          "indexed": false,
          "internalType": "uint256",
          "name": "share",
          "type": "uint256"
        }
      ],
      "name": "LogRemoveCollateral",
      "type": "event"
    },
    {
      "anonymous": false,
      "inputs": [
        {
          "indexed": true,
          "internalType": "address",
          "name": "from",
          "type": "address"
        },
        {
          "indexed": true,
          "internalType": "address",
          "name": "to",
          "type": "address"
        },
        {
          "indexed": false,
          "internalType": "uint256",
          "name": "amount",
          "type": "uint256"
        },
        {
          "indexed": false,
          "internalType": "uint256",
          "name": "part",
          "type": "uint256"
        }
      ],
      "name": "LogRepay",
      "type": "event"
    },
    {
      "anonymous": false,
      "inputs": [
        {
          "indexed": true,
          "internalType": "address",
          "name": "feeTo",
          "type": "address"
        },
        {
          "indexed": false,
          "internalType": "uint256",
          "name": "feesEarnedFraction",
          "type": "uint256"
        }
      ],
      "name": "LogWithdrawFees",
      "type": "event"
    },
    {
      "anonymous": false,
      "inputs": [
        {
          "indexed": false,
          "internalType": "uint256",
          "name": "feeShares",
          "type": "uint256"
        },
        {
          "indexed": false,
          "internalType": "uint256",
          "name": "ethAmount",
          "type": "uint256"
        }
      ],
      "name": "LogYieldBoxFeesDeposit",
      "type": "event"
    },
    {
      "anonymous": false,
      "inputs": [
        {
          "indexed": false,
          "internalType": "uint256",
          "name": "oldVal",
          "type": "uint256"
        },
        {
          "indexed": false,
          "internalType": "uint256",
          "name": "newVal",
          "type": "uint256"
        }
      ],
      "name": "LqCollateralizationRateUpdated",
      "type": "event"
    },
    {
      "anonymous": false,
      "inputs": [
        {
          "indexed": false,
          "internalType": "uint256",
          "name": "oldVal",
          "type": "uint256"
        },
        {
          "indexed": false,
          "internalType": "uint256",
          "name": "newVal",
          "type": "uint256"
        }
      ],
      "name": "MaximumInterestPerSecondUpdated",
      "type": "event"
    },
    {
      "anonymous": false,
      "inputs": [
        {
          "indexed": false,
          "internalType": "uint256",
          "name": "oldVal",
          "type": "uint256"
        },
        {
          "indexed": false,
          "internalType": "uint256",
          "name": "newVal",
          "type": "uint256"
        }
      ],
      "name": "MaximumTargetUtilizationUpdated",
      "type": "event"
    },
    {
      "anonymous": false,
      "inputs": [
        {
          "indexed": false,
          "internalType": "uint256",
          "name": "oldVal",
          "type": "uint256"
        },
        {
          "indexed": false,
          "internalType": "uint256",
          "name": "newVal",
          "type": "uint256"
        }
      ],
      "name": "MinimumInterestPerSecondUpdated",
      "type": "event"
    },
    {
      "anonymous": false,
      "inputs": [
        {
          "indexed": false,
          "internalType": "uint256",
          "name": "oldVal",
          "type": "uint256"
        },
        {
          "indexed": false,
          "internalType": "uint256",
          "name": "newVal",
          "type": "uint256"
        }
      ],
      "name": "MinimumTargetUtilizationUpdated",
      "type": "event"
    },
    {
      "anonymous": false,
      "inputs": [],
      "name": "OracleDataUpdated",
      "type": "event"
    },
    {
      "anonymous": false,
      "inputs": [],
      "name": "OracleUpdated",
      "type": "event"
    },
    {
      "anonymous": false,
      "inputs": [
        {
          "indexed": false,
          "internalType": "uint256",
          "name": "oldVal",
          "type": "uint256"
        },
        {
          "indexed": false,
          "internalType": "uint256",
          "name": "newVal",
          "type": "uint256"
        }
      ],
      "name": "OrderBookLiquidationMultiplierUpdated",
      "type": "event"
    },
    {
      "anonymous": false,
      "inputs": [
        {
          "indexed": true,
          "internalType": "address",
          "name": "previousOwner",
          "type": "address"
        },
        {
          "indexed": true,
          "internalType": "address",
          "name": "newOwner",
          "type": "address"
        }
      ],
      "name": "OwnershipTransferred",
      "type": "event"
    },
    {
      "anonymous": false,
      "inputs": [
        {
          "indexed": false,
          "internalType": "bool",
          "name": "oldState",
          "type": "bool"
        },
        {
          "indexed": false,
          "internalType": "bool",
          "name": "newState",
          "type": "bool"
        }
      ],
      "name": "PausedUpdated",
      "type": "event"
    },
    {
      "anonymous": false,
      "inputs": [
        {
          "indexed": true,
          "internalType": "address",
          "name": "from",
          "type": "address"
        },
        {
          "indexed": true,
          "internalType": "address",
          "name": "to",
          "type": "address"
        },
        {
          "indexed": false,
          "internalType": "uint256",
          "name": "value",
          "type": "uint256"
        }
      ],
      "name": "Transfer",
      "type": "event"
    },
    {
      "anonymous": false,
      "inputs": [
        {
          "indexed": true,
          "internalType": "address",
          "name": "newAddress",
          "type": "address"
        }
      ],
      "name": "UsdoSwapperUpdated",
      "type": "event"
    },
    {
      "inputs": [],
      "name": "DOMAIN_SEPARATOR",
      "outputs": [
        {
          "internalType": "bytes32",
          "name": "",
          "type": "bytes32"
        }
      ],
      "stateMutability": "view",
      "type": "function"
    },
    {
      "inputs": [],
      "name": "accrue",
      "outputs": [],
      "stateMutability": "nonpayable",
      "type": "function"
    },
    {
      "inputs": [],
      "name": "accrueInfo",
      "outputs": [
        {
          "internalType": "uint64",
          "name": "interestPerSecond",
          "type": "uint64"
        },
        {
          "internalType": "uint64",
          "name": "lastAccrued",
          "type": "uint64"
        },
        {
          "internalType": "uint128",
          "name": "feesEarnedFraction",
          "type": "uint128"
        }
      ],
      "stateMutability": "view",
      "type": "function"
    },
    {
      "inputs": [
        {
          "internalType": "address",
          "name": "",
          "type": "address"
        },
        {
          "internalType": "address",
          "name": "",
          "type": "address"
        }
      ],
      "name": "allowance",
      "outputs": [
        {
          "internalType": "uint256",
          "name": "",
          "type": "uint256"
        }
      ],
      "stateMutability": "view",
      "type": "function"
    },
    {
      "inputs": [
        {
          "internalType": "address",
          "name": "",
          "type": "address"
        },
        {
          "internalType": "address",
          "name": "",
          "type": "address"
        }
      ],
      "name": "allowanceBorrow",
      "outputs": [
        {
          "internalType": "uint256",
          "name": "",
          "type": "uint256"
        }
      ],
      "stateMutability": "view",
      "type": "function"
    },
    {
      "inputs": [
        {
          "internalType": "address",
          "name": "spender",
          "type": "address"
        },
        {
          "internalType": "uint256",
          "name": "amount",
          "type": "uint256"
        }
      ],
      "name": "approve",
      "outputs": [
        {
          "internalType": "bool",
          "name": "",
          "type": "bool"
        }
      ],
      "stateMutability": "nonpayable",
      "type": "function"
    },
    {
      "inputs": [
        {
          "internalType": "address",
          "name": "spender",
          "type": "address"
        },
        {
          "internalType": "uint256",
          "name": "amount",
          "type": "uint256"
        }
      ],
      "name": "approveBorrow",
      "outputs": [
        {
          "internalType": "bool",
          "name": "",
          "type": "bool"
        }
      ],
      "stateMutability": "nonpayable",
      "type": "function"
    },
    {
      "inputs": [],
      "name": "asset",
      "outputs": [
        {
          "internalType": "contract IERC20",
          "name": "",
          "type": "address"
        }
      ],
      "stateMutability": "view",
      "type": "function"
    },
    {
      "inputs": [],
      "name": "assetId",
      "outputs": [
        {
          "internalType": "uint256",
          "name": "",
          "type": "uint256"
        }
      ],
      "stateMutability": "view",
      "type": "function"
    },
    {
      "inputs": [
        {
          "internalType": "address",
          "name": "",
          "type": "address"
        }
      ],
      "name": "balanceOf",
      "outputs": [
        {
          "internalType": "uint256",
          "name": "",
          "type": "uint256"
        }
      ],
      "stateMutability": "view",
      "type": "function"
    },
    {
      "inputs": [
        {
          "internalType": "address",
          "name": "from",
          "type": "address"
        },
        {
          "internalType": "address",
          "name": "to",
          "type": "address"
        },
        {
          "internalType": "uint256",
          "name": "amount",
          "type": "uint256"
        }
      ],
      "name": "borrow",
      "outputs": [
        {
          "internalType": "uint256",
          "name": "part",
          "type": "uint256"
        },
        {
          "internalType": "uint256",
          "name": "share",
          "type": "uint256"
        }
      ],
      "stateMutability": "nonpayable",
      "type": "function"
    },
    {
      "inputs": [],
      "name": "borrowOpeningFee",
      "outputs": [
        {
          "internalType": "uint256",
          "name": "",
          "type": "uint256"
        }
      ],
      "stateMutability": "view",
      "type": "function"
    },
    {
      "inputs": [],
      "name": "callerFee",
      "outputs": [
        {
          "internalType": "uint256",
          "name": "",
          "type": "uint256"
        }
      ],
      "stateMutability": "view",
      "type": "function"
    },
    {
      "inputs": [],
      "name": "claimOwnership",
      "outputs": [],
      "stateMutability": "nonpayable",
      "type": "function"
    },
    {
      "inputs": [],
      "name": "collateral",
      "outputs": [
        {
          "internalType": "contract IERC20",
          "name": "",
          "type": "address"
        }
      ],
      "stateMutability": "view",
      "type": "function"
    },
    {
      "inputs": [],
      "name": "collateralId",
      "outputs": [
        {
          "internalType": "uint256",
          "name": "",
          "type": "uint256"
        }
      ],
      "stateMutability": "view",
      "type": "function"
    },
    {
      "inputs": [],
      "name": "collateralizationRate",
      "outputs": [
        {
          "internalType": "uint256",
          "name": "",
          "type": "uint256"
        }
      ],
      "stateMutability": "view",
      "type": "function"
    },
    {
      "inputs": [
        {
          "internalType": "uint256",
          "name": "borrowPart",
          "type": "uint256"
        },
        {
          "internalType": "uint256",
          "name": "collateralPartInAsset",
          "type": "uint256"
        },
        {
          "internalType": "uint256",
          "name": "borrowPartDecimals",
          "type": "uint256"
        },
        {
          "internalType": "uint256",
          "name": "collateralPartDecimals",
          "type": "uint256"
        },
        {
          "internalType": "uint256",
          "name": "ratesPrecision",
          "type": "uint256"
        }
      ],
      "name": "computeClosingFactor",
      "outputs": [
        {
          "internalType": "uint256",
          "name": "",
          "type": "uint256"
        }
      ],
      "stateMutability": "view",
      "type": "function"
    },
    {
      "inputs": [
        {
          "internalType": "address",
          "name": "user",
          "type": "address"
        },
        {
          "internalType": "uint256",
          "name": "_exchangeRate",
          "type": "uint256"
        }
      ],
      "name": "computeLiquidatorReward",
      "outputs": [
        {
          "internalType": "uint256",
          "name": "",
          "type": "uint256"
        }
      ],
      "stateMutability": "view",
      "type": "function"
    },
    {
      "inputs": [
        {
          "internalType": "address",
          "name": "user",
          "type": "address"
        },
        {
          "internalType": "uint256",
          "name": "_exchangeRate",
          "type": "uint256"
        }
      ],
      "name": "computeTVLInfo",
      "outputs": [
        {
          "internalType": "uint256",
          "name": "amountToSolvency",
          "type": "uint256"
        },
        {
          "internalType": "uint256",
          "name": "minTVL",
          "type": "uint256"
        },
        {
          "internalType": "uint256",
          "name": "maxTVL",
          "type": "uint256"
        }
      ],
      "stateMutability": "view",
      "type": "function"
    },
    {
      "inputs": [],
      "name": "conservator",
      "outputs": [
        {
          "internalType": "address",
          "name": "",
          "type": "address"
        }
      ],
      "stateMutability": "view",
      "type": "function"
    },
    {
      "inputs": [],
      "name": "decimals",
      "outputs": [
        {
          "internalType": "uint8",
          "name": "",
          "type": "uint8"
        }
      ],
      "stateMutability": "view",
      "type": "function"
    },
    {
      "inputs": [],
      "name": "exchangeRate",
      "outputs": [
        {
          "internalType": "uint256",
          "name": "",
          "type": "uint256"
        }
      ],
      "stateMutability": "view",
      "type": "function"
    },
    {
      "inputs": [],
      "name": "fullUtilizationMinusMax",
      "outputs": [
        {
          "internalType": "uint256",
          "name": "",
          "type": "uint256"
        }
      ],
      "stateMutability": "view",
      "type": "function"
    },
    {
      "inputs": [],
      "name": "getInterestDetails",
      "outputs": [
        {
          "components": [
            {
              "internalType": "uint64",
              "name": "interestPerSecond",
              "type": "uint64"
            },
            {
              "internalType": "uint64",
              "name": "lastAccrued",
              "type": "uint64"
            },
            {
              "internalType": "uint128",
              "name": "feesEarnedFraction",
              "type": "uint128"
            }
          ],
          "internalType": "struct ISingularity.AccrueInfo",
          "name": "_accrueInfo",
          "type": "tuple"
        },
        {
          "internalType": "uint256",
          "name": "utilization",
          "type": "uint256"
        }
      ],
      "stateMutability": "view",
      "type": "function"
    },
    {
      "inputs": [],
      "name": "interestElasticity",
      "outputs": [
        {
          "internalType": "uint256",
          "name": "",
          "type": "uint256"
        }
      ],
      "stateMutability": "view",
      "type": "function"
    },
    {
      "inputs": [],
      "name": "liquidationBonusAmount",
      "outputs": [
        {
          "internalType": "uint256",
          "name": "",
          "type": "uint256"
        }
      ],
      "stateMutability": "view",
      "type": "function"
    },
    {
      "inputs": [],
      "name": "liquidationMultiplier",
      "outputs": [
        {
          "internalType": "uint256",
          "name": "",
          "type": "uint256"
        }
      ],
      "stateMutability": "view",
      "type": "function"
    },
    {
      "inputs": [],
      "name": "liquidationQueue",
      "outputs": [
        {
          "internalType": "contract ILiquidationQueue",
          "name": "",
          "type": "address"
        }
      ],
      "stateMutability": "view",
      "type": "function"
    },
    {
      "inputs": [],
      "name": "lqCollateralizationRate",
      "outputs": [
        {
          "internalType": "uint256",
          "name": "",
          "type": "uint256"
        }
      ],
      "stateMutability": "view",
      "type": "function"
    },
    {
      "inputs": [],
      "name": "maxLiquidatorReward",
      "outputs": [
        {
          "internalType": "uint256",
          "name": "",
          "type": "uint256"
        }
      ],
      "stateMutability": "view",
      "type": "function"
    },
    {
      "inputs": [],
      "name": "maximumInterestPerSecond",
      "outputs": [
        {
          "internalType": "uint64",
          "name": "",
          "type": "uint64"
        }
      ],
      "stateMutability": "view",
      "type": "function"
    },
    {
      "inputs": [],
      "name": "maximumTargetUtilization",
      "outputs": [
        {
          "internalType": "uint256",
          "name": "",
          "type": "uint256"
        }
      ],
      "stateMutability": "view",
      "type": "function"
    },
    {
      "inputs": [],
      "name": "minLiquidatorReward",
      "outputs": [
        {
          "internalType": "uint256",
          "name": "",
          "type": "uint256"
        }
      ],
      "stateMutability": "view",
      "type": "function"
    },
    {
      "inputs": [],
      "name": "minimumInterestPerSecond",
      "outputs": [
        {
          "internalType": "uint64",
          "name": "",
          "type": "uint64"
        }
      ],
      "stateMutability": "view",
      "type": "function"
    },
    {
      "inputs": [],
      "name": "minimumTargetUtilization",
      "outputs": [
        {
          "internalType": "uint256",
          "name": "",
          "type": "uint256"
        }
      ],
      "stateMutability": "view",
      "type": "function"
    },
    {
      "inputs": [],
      "name": "name",
      "outputs": [
        {
          "internalType": "string",
          "name": "",
          "type": "string"
        }
      ],
      "stateMutability": "view",
      "type": "function"
    },
    {
      "inputs": [
        {
          "internalType": "address",
          "name": "owner",
          "type": "address"
        }
      ],
      "name": "nonces",
      "outputs": [
        {
          "internalType": "uint256",
          "name": "",
          "type": "uint256"
        }
      ],
      "stateMutability": "view",
      "type": "function"
    },
    {
      "inputs": [],
      "name": "oracle",
      "outputs": [
        {
          "internalType": "contract IOracle",
          "name": "",
          "type": "address"
        }
      ],
      "stateMutability": "view",
      "type": "function"
    },
    {
      "inputs": [],
      "name": "oracleData",
      "outputs": [
        {
          "internalType": "bytes",
          "name": "",
          "type": "bytes"
        }
      ],
      "stateMutability": "view",
      "type": "function"
    },
    {
      "inputs": [],
      "name": "owner",
      "outputs": [
        {
          "internalType": "address",
          "name": "",
          "type": "address"
        }
      ],
      "stateMutability": "view",
      "type": "function"
    },
    {
      "inputs": [],
      "name": "paused",
      "outputs": [
        {
          "internalType": "bool",
          "name": "",
          "type": "bool"
        }
      ],
      "stateMutability": "view",
      "type": "function"
    },
    {
      "inputs": [],
      "name": "pendingOwner",
      "outputs": [
        {
          "internalType": "address",
          "name": "",
          "type": "address"
        }
      ],
      "stateMutability": "view",
      "type": "function"
    },
    {
      "inputs": [],
      "name": "penrose",
      "outputs": [
        {
          "internalType": "contract IPenrose",
          "name": "",
          "type": "address"
        }
      ],
      "stateMutability": "view",
      "type": "function"
    },
    {
      "inputs": [
        {
          "internalType": "address",
          "name": "owner",
          "type": "address"
        },
        {
          "internalType": "address",
          "name": "spender",
          "type": "address"
        },
        {
          "internalType": "uint256",
          "name": "value",
          "type": "uint256"
        },
        {
          "internalType": "uint256",
          "name": "deadline",
          "type": "uint256"
        },
        {
          "internalType": "uint8",
          "name": "v",
          "type": "uint8"
        },
        {
          "internalType": "bytes32",
          "name": "r",
          "type": "bytes32"
        },
        {
          "internalType": "bytes32",
          "name": "s",
          "type": "bytes32"
        }
      ],
      "name": "permit",
      "outputs": [],
      "stateMutability": "nonpayable",
      "type": "function"
    },
    {
      "inputs": [
        {
          "internalType": "address",
          "name": "owner",
          "type": "address"
        },
        {
          "internalType": "address",
          "name": "spender",
          "type": "address"
        },
        {
          "internalType": "uint256",
          "name": "value",
          "type": "uint256"
        },
        {
          "internalType": "uint256",
          "name": "deadline",
          "type": "uint256"
        },
        {
          "internalType": "uint8",
          "name": "v",
          "type": "uint8"
        },
        {
          "internalType": "bytes32",
          "name": "r",
          "type": "bytes32"
        },
        {
          "internalType": "bytes32",
          "name": "s",
          "type": "bytes32"
        }
      ],
      "name": "permitBorrow",
      "outputs": [],
      "stateMutability": "nonpayable",
      "type": "function"
    },
    {
      "inputs": [],
      "name": "protocolFee",
      "outputs": [
        {
          "internalType": "uint256",
          "name": "",
          "type": "uint256"
        }
      ],
      "stateMutability": "view",
      "type": "function"
    },
    {
      "inputs": [
        {
          "internalType": "address",
          "name": "from",
          "type": "address"
        },
        {
          "internalType": "address",
          "name": "to",
          "type": "address"
        },
        {
          "internalType": "bool",
          "name": "skim",
          "type": "bool"
        },
        {
          "internalType": "uint256",
          "name": "part",
          "type": "uint256"
        }
      ],
      "name": "repay",
      "outputs": [
        {
          "internalType": "uint256",
          "name": "amount",
          "type": "uint256"
        }
      ],
      "stateMutability": "nonpayable",
      "type": "function"
    },
    {
      "inputs": [
        {
          "internalType": "uint256",
          "name": "_cap",
          "type": "uint256"
        }
      ],
      "name": "setBorrowCap",
      "outputs": [],
      "stateMutability": "nonpayable",
      "type": "function"
    },
    {
      "inputs": [
        {
          "internalType": "uint256",
          "name": "_val",
          "type": "uint256"
        }
      ],
      "name": "setBorrowOpeningFee",
      "outputs": [],
      "stateMutability": "nonpayable",
      "type": "function"
    },
    {
      "inputs": [
        {
          "internalType": "uint256",
          "name": "_borrowOpeningFee",
          "type": "uint256"
        },
        {
          "internalType": "contract IOracle",
          "name": "_oracle",
          "type": "address"
        },
        {
          "internalType": "bytes",
          "name": "_oracleData",
          "type": "bytes"
        },
        {
          "internalType": "address",
          "name": "_conservator",
          "type": "address"
        },
        {
          "internalType": "uint256",
          "name": "_callerFee",
          "type": "uint256"
        },
        {
          "internalType": "uint256",
          "name": "_protocolFee",
          "type": "uint256"
        },
        {
          "internalType": "uint256",
          "name": "_liquidationBonusAmount",
          "type": "uint256"
        },
        {
          "internalType": "uint256",
          "name": "_minLiquidatorReward",
          "type": "uint256"
        },
        {
          "internalType": "uint256",
          "name": "_maxLiquidatorReward",
          "type": "uint256"
        },
        {
          "internalType": "uint256",
          "name": "_totalBorrowCap",
          "type": "uint256"
        },
        {
          "internalType": "uint256",
          "name": "_collateralizationRate",
          "type": "uint256"
        }
      ],
      "name": "setMarketConfig",
      "outputs": [],
      "stateMutability": "nonpayable",
      "type": "function"
    },
    {
      "inputs": [],
      "name": "startingInterestPerSecond",
      "outputs": [
        {
          "internalType": "uint64",
          "name": "",
          "type": "uint64"
        }
      ],
      "stateMutability": "view",
      "type": "function"
    },
    {
      "inputs": [],
      "name": "symbol",
      "outputs": [
        {
          "internalType": "string",
          "name": "",
          "type": "string"
        }
      ],
      "stateMutability": "view",
      "type": "function"
    },
    {
      "inputs": [],
      "name": "totalAsset",
      "outputs": [
        {
          "internalType": "uint128",
          "name": "elastic",
          "type": "uint128"
        },
        {
          "internalType": "uint128",
          "name": "base",
          "type": "uint128"
        }
      ],
      "stateMutability": "view",
      "type": "function"
    },
    {
      "inputs": [],
      "name": "totalBorrow",
      "outputs": [
        {
          "internalType": "uint128",
          "name": "elastic",
          "type": "uint128"
        },
        {
          "internalType": "uint128",
          "name": "base",
          "type": "uint128"
        }
      ],
      "stateMutability": "view",
      "type": "function"
    },
    {
      "inputs": [],
      "name": "totalBorrowCap",
      "outputs": [
        {
          "internalType": "uint256",
          "name": "",
          "type": "uint256"
        }
      ],
      "stateMutability": "view",
      "type": "function"
    },
    {
      "inputs": [],
      "name": "totalCollateralShare",
      "outputs": [
        {
          "internalType": "uint256",
          "name": "",
          "type": "uint256"
        }
      ],
      "stateMutability": "view",
      "type": "function"
    },
    {
      "inputs": [],
      "name": "totalSupply",
      "outputs": [
        {
          "internalType": "uint256",
          "name": "",
          "type": "uint256"
        }
      ],
      "stateMutability": "view",
      "type": "function"
    },
    {
      "inputs": [
        {
          "internalType": "address",
          "name": "to",
          "type": "address"
        },
        {
          "internalType": "uint256",
          "name": "amount",
          "type": "uint256"
        }
      ],
      "name": "transfer",
      "outputs": [
        {
          "internalType": "bool",
          "name": "",
          "type": "bool"
        }
      ],
      "stateMutability": "nonpayable",
      "type": "function"
    },
    {
      "inputs": [
        {
          "internalType": "address",
          "name": "from",
          "type": "address"
        },
        {
          "internalType": "address",
          "name": "to",
          "type": "address"
        },
        {
          "internalType": "uint256",
          "name": "amount",
          "type": "uint256"
        }
      ],
      "name": "transferFrom",
      "outputs": [
        {
          "internalType": "bool",
          "name": "",
          "type": "bool"
        }
      ],
      "stateMutability": "nonpayable",
      "type": "function"
    },
    {
      "inputs": [
        {
          "internalType": "address",
          "name": "newOwner",
          "type": "address"
        },
        {
          "internalType": "bool",
          "name": "direct",
          "type": "bool"
        },
        {
          "internalType": "bool",
          "name": "renounce",
          "type": "bool"
        }
      ],
      "name": "transferOwnership",
      "outputs": [],
      "stateMutability": "nonpayable",
      "type": "function"
    },
    {
      "inputs": [],
      "name": "updateExchangeRate",
      "outputs": [
        {
          "internalType": "bool",
          "name": "updated",
          "type": "bool"
        },
        {
          "internalType": "uint256",
          "name": "rate",
          "type": "uint256"
        }
      ],
      "stateMutability": "nonpayable",
      "type": "function"
    },
    {
      "inputs": [
        {
          "internalType": "bool",
          "name": "val",
          "type": "bool"
        }
      ],
      "name": "updatePause",
      "outputs": [],
      "stateMutability": "nonpayable",
      "type": "function"
    },
    {
      "inputs": [
        {
          "internalType": "address",
          "name": "",
          "type": "address"
        }
      ],
      "name": "userBorrowPart",
      "outputs": [
        {
          "internalType": "uint256",
          "name": "",
          "type": "uint256"
        }
      ],
      "stateMutability": "view",
      "type": "function"
    },
    {
      "inputs": [
        {
          "internalType": "address",
          "name": "",
          "type": "address"
        }
      ],
      "name": "userCollateralShare",
      "outputs": [
        {
          "internalType": "uint256",
          "name": "",
          "type": "uint256"
        }
      ],
      "stateMutability": "view",
      "type": "function"
    },
    {
      "inputs": [],
      "name": "yieldBox",
      "outputs": [
        {
          "internalType": "contract YieldBox",
          "name": "",
          "type": "address"
        }
      ],
      "stateMutability": "view",
      "type": "function"
    }
  ],
  "bytecode": "0x6101408060405234620001e1576200001781620001e6565b601381526001602082017f546170696f63612053696e67756c617269747900000000000000000000000000815260206040516200005481620001e6565b8381520192603160f81b845251902091208160e052610100918183524660a0526040519160208301907f8b73c3c69bb8fe3d512ecc4cf759cc79239f7b179b0ffacaa9a75d522b39400f92838352604085015260608401524660808401523060a084015260a0835260c083019280841060018060401b03851117620001cb5760408490525190206080523060c052610120908152600580546001600160a01b0319163390811790915560007f8be0079c531659141344cd1fd0a4f28419497f9722a3daafe3b4186f6b6457e08180a36103e860185561271080601955601a556032601c55612ee0601d557f0bd4060688a1800ae986e4840aebc924bb40b5bf44de4583df2257220b54b77c6024557f7d1dc38e60930664f8cbf495da6556ca091d2f92d6550877750c049864b182306025556161a8602655613b5a9283620002038439608051836128a4015260a0518361296e015260c0518361286e015260e051836128f301525182612919015251816128d00152f35b634e487b7160e01b600052604160045260246000fd5b600080fd5b604081019081106001600160401b03821117620001cb5760405256fe608060408181526004918236101561001657600080fd5b600092833560e01c918262a02a2014611de85750816302ce728f14611dbf57816306fdde0314611c97578163078dfbe714611ba0578163095ea7b314611b7657816318160ddd14611b545781631c9e379b14611b1c5781631da8bf1014611a6257816323b872dd146118db578163313ce567146118a557816334d441d0146118865781633644e5151461186957816338d52e0f146118405781633ba0b9a91461182157816340626d8b1461180257816344de240a146117e3578163473e3ce7146117c457816348e4163e1461178c5781634d7f2a341461176d5781634e71e0c8146116ca5781635100b5671461166c5781635224372c146115d3578163529898f2146115b457816352f353eb1461158b578163551402321461156257816355c2ab9414611539578163579354621461151a5781635c975abb146114f65781635dfe04e8146114975781636c3d8b8f1461146e57816370a0823114611436578163717186d1146113d857816374645ff31461139a5781637dc0d1d0146113715781637ecebe001461133b5781637fa0b84e1461130a578163821226e8146112eb5781638285ef40146112b85781638c5d0ed3146112995781638da5cb5b14611270578163959916dc1461125157816395d89b41146111255781639675937214610d3f57816399a9702814610cee5781639c5d719214610ccf5781639e15e89f14610c97578163a9059cbb14610bbc578163b0e21e8a14610b9d578163b27c0e7414610b63578163bb4cfe3b14610b44578163c23ea21f14610b1b578163cd0211eb1461077a578163ce8849ed1461074d578163d505accf146105ce578163d8dfeb45146105a5578163dd62ed3e14610557578163de4065771461052e578163e0996cb61461050f578163e30c3978146104e6578163eec0f42e146104c7578163f42760b7146104a8578163f760b70c14610471578163f8974de01461037057508063f8ba4cff14610351578063f9557ccb1461031b5763ffe04c66146102fa57600080fd5b346103175781600319360112610317576020906027549051908152f35b5080fd5b5034610317578160031936011261031757602154905190819061034d90608081901c906001600160801b0316836120ac565b0390f35b823461036d578060031936011261036d5761036a6136c0565b80f35b80fd5b9190503461046d57602036600319011261046d5781359081151580920361046857600d5492600884901c6001600160a01b0316330361042f5760ff84161515908184146103f75750817f9c13c5f6c628c1c82eb2b3fd8714da5c2857dbd0ad8ab6b2074abcf81015d3969160ff949351908152836020820152a1169060ff191617600d5580f35b606490602084519162461bcd60e51b835282015260126024820152714d61726b65743a2073616d6520737461746560701b6044820152fd5b6020606492519162461bcd60e51b8352820152601460248201527313585c9ad95d0e881d5b985d5d1a1bdc9a5e995960621b6044820152fd5b600080fd5b8280fd5b82843461036d5760a036600319011261036d57506104a16020926084359060643590604435906024359035612215565b9051908152f35b5050346103175781600319360112610317576020906028549051908152f35b505034610317578160031936011261031757602090600a549051908152f35b50503461031757816003193601126103175760065490516001600160a01b039091168152602090f35b505034610317578160031936011261031757602090601a549051908152f35b50503461031757816003193601126103175760075490516001600160a01b039091168152602090f35b505034610317578060031936011261031757602091610574611e2e565b8261057d611e44565b6001600160a01b03928316845260028652922091166000908152908352819020549051908152f35b50503461031757816003193601126103175760095490516001600160a01b039091168152602090f35b83915034610317576105df36611eb1565b9083979497969596421161070a576106b5916106ad9160018060a01b03948c8b8b888c16998a92836000528c602052846000209081549161061f83612bb8565b90558b86519460208601967f6e71edae12b1b97f4d1f60370fef10105fa2faae0126114a169c64845d6126c9885288870152166060850152608084015260a083015260c082015260c0815261067381612053565b51902061067e61286b565b915190602082019261190160f01b845260228301526042820152604281526106a58161206e565b519020612b33565b919091612a1e565b16036106c7575061036a939450612c1e565b606490602087519162461bcd60e51b8352820152601e60248201527f45524332305065726d69743a20696e76616c6964207369676e617475726500006044820152fd5b895162461bcd60e51b8152602081870152601d60248201527f45524332305065726d69743a206578706972656420646561646c696e650000006044820152606490fd5b505034610317578160031936011261031757600d54905160089190911c6001600160a01b03168152602090f35b9190503461046d57608036600319011261046d57610796611e2e565b9161079f611e44565b926107a8611ea2565b93606435916107bc60ff600d541615612167565b6107c683826131f5565b6107ce612477565b50506107d86136c0565b6107e0612389565b958551976107ed8961201d565b808952602098890181905287890180516001600160801b039182918216610aaf578180899c61084d9461082a8f94610848955b16828451166137c2565b1681528161083d818d16828751166137c2565b16809452511661367c565b613632565b60018060a01b038095169687835260148b5288832061086d8882546121a4565b90558560075416600c54918c8c60648d5180958193638eb22cdd60e01b835288878401526024830152600160448301525afa918215610a6e578592610a7c575b508a8d8560215416946024548d89526023835283892090895282528288206108d6868254612208565b905588156109e95760448b60075416935180948193627eeac760e11b8352308884015260248301525afa80156109df57849087906109ae575b61091992506121a4565b821161097b5750916109438a96949282600080516020613a458339815191529997955b16906132a8565b1660018060801b0319602154161760215550600014610976575080600754165b825194888652898601521692a351908152f35b610963565b8a5162461bcd60e51b81529081018d9052600d60248201526c0a68e987440e8dede40daeac6d609b1b6044820152606490fd5b50508d81813d83116109d8575b6109c58183612089565b810103126104685783610919915161090f565b503d6109bb565b8c513d88823e3d90fd5b92915050886007541690813b15610a78579186918493838f610a218d915197889687958694630208d92960e11b8652309186016137db565b03925af18015610a6e57918b97959391600080516020613a4583398151915299979593610a55575b5090826109439261093c565b610943929194610a658592611ff4565b94919250610a49565b8b513d87823e3d90fd5b8680fd5b9091508c81813d8311610aa8575b610a948183612089565b81010312610aa4575190386108ad565b8480fd5b503d610a8a565b90610ac0610aca918c5116896121f5565b83835116906121d5565b9987610ae7610add8d86865116906121f5565b85845116906121d5565b10610b02575b906108488361084d938161082a8f8290610820565b99908280610b108194612bb8565b9c9293505050610aed565b50503461031757816003193601126103175760225490516001600160a01b039091168152602090f35b505034610317578160031936011261031757602090601b549051908152f35b5050346103175781600319360112610317576060906020549080519160018060401b03808216845281831c16602084015260801c90820152f35b5050346103175781600319360112610317576020906017549051908152f35b505034610317578060031936011261031757602091610bd9611e2e565b82602435928315801590610c85575b610c18575b50519182526001600160a01b0316903390600080516020613ac5833981519152908590a35160018152f35b3381526001865281812054610c2f85821015612994565b6001600160a01b038416908533839003610c4c575b505050610bed565b610c6091610c5b8415156129d9565b6121a4565b3383526001885283832055815220610c79838254612208565b90558238808085610c44565b50336001600160a01b03841614610be8565b50503461031757806003193601126103175761034d90610cc1610cb8611e2e565b602435906123d5565b9093919251938493846120c6565b5050346103175781600319360112610317576020906029549051908152f35b5050346103175780600319360112610317576020916104a1906001600160a01b03610d17611e2e565b168082526015855283610d2f602435828520546126a9565b9390928152601487522054612765565b90503461046d5761016036600319011261046d576001600160a01b039060248035838116928035929091849003610a78576001600160401b0391604435919083831161112157366023840112156111215782013592831161111d573681848401011161111d57606435948686169485870361111957610dc3886005541633146120dc565b806110e2575b50806110a4575b5082610f53575b50505080610efd575b50505060843580610ee5575b5060a43580610ecd575b5060c43580610eb6575b5060e43580610e92575b506101043580610e6e575b50610124359081610e45575b50506101443580610e30575080f35b610e3f620186a0821115612127565b601b5580f35b600080516020613a65833981519152906013548151908152836020820152a16013553880610e21565b610e7c620186a08210612127565b610e896018548211612127565b60195538610e15565b610ea0620186a08210612127565b610ead6019548210612127565b60185538610e0a565b610ec4620186a08210612127565b601a5538610e00565b610edc620186a0821115612127565b60175538610df6565b610ef4620186a0821115612127565b60165538610dec565b600d54928360081c167f5a62d22209e370e38eea92cfddcd228e656e6ec139243392a760a7769f5877fd8680a3610100600160a81b031990911660089190911b610100600160a81b031617600d55388080610de0565b8291610f60600f54611f35565b601f811161104b575b508890601f8411600114610fce578993610fc1575b5050508160011b916000199060031b1c191617600f555b7fa6f004921c944d4b8bf6e38462b00f36a58d62495d56b51f571ab78f732c98158580a1388080610dd7565b0101359050388080610f7e565b600f8a52600080516020613b0583398151915293509190601f1985168a60205b82821061103157505090856001969594939210611015575b50505050811b01600f55610f95565b60001960f88660031b161c199201013516905538808080611006565b8060018598878395978a0101358155019701930190610fee565b600f8a5291925090600080516020613b05833981519152601f850160051c81016020861061109d575b90601f869594930160051c01905b81811061108f5750610f69565b8a8155859450600101611082565b5080611074565b600e80546001600160a01b0319169190911790557f0b2d6eb667d0522c3eb86e4288afecae6c11591ffd1345d4d12407e0598bca9b8880a138610dd0565b6110f1620186a0821115612127565b600080516020613a8583398151915289601c548151908152836020820152a1601c5538610dc9565b8980fd5b8780fd5b8880fd5b8383346103175781600319360112610317576009546001600160a01b03939061114f908516613882565b61115c85600b5416613882565b94600e541693835163634ce26b60e11b815281816020978887830152818061118660248201611f6f565b03915afa918215611246579260249261034d969592856112149692611223575b5050855198899261746d60f01b8a8501526111ca815180928c602288019101611e5a565b8301602f60f81b60228201526111e9825180938c602385019101611e5a565b01602d60f81b6023820152611206825180938b8885019101611e5a565b010390810187520185612089565b51928284938452830190611e7d565b61123f92503d8091833e6112378183612089565b810190613805565b89806111a6565b8551903d90823e3d90fd5b505034610317578160031936011261031757602090601c549051908152f35b50503461031757816003193601126103175760055490516001600160a01b039091168152602090f35b5050346103175781600319360112610317576020906018549051908152f35b505034610317578160031936011261031757601154905190819061034d90608081901c906001600160801b0316836120ac565b505034610317578160031936011261031757602090602b549051908152f35b50503461031757806003193601126103175760209061133461132a611e2e565b6024359033612bc7565b5160018152f35b90503461046d57602036600319011261046d5760209282916001600160a01b03611363611e2e565b168252845220549051908152f35b505034610317578160031936011261031757600e5490516001600160a01b039091168152602090f35b505034610317578160031936011261031757805161034d916113c6826113bf81611f6f565b0383612089565b51918291602083526020830190611e7d565b90503461046d57602036600319011261046d57600080516020613a6583398151915290359161140c60ff600d541615612167565b61142160018060a01b036005541633146120dc565b6013548151908152836020820152a160135580f35b5050346103175760203660031901126103175760209181906001600160a01b0361145e611e2e565b1681526001845220549051908152f35b50503461031757816003193601126103175760085490516001600160a01b039091168152602090f35b5050346103175781600319360112610317576080906114b4613289565b506114bd6132c1565b509495935050505080519260018060401b03808251168552602082015116602085015281600180871b0391015116908301526060820152f35b50503461031757816003193601126103175760209060ff600d541690519015158152f35b5050346103175781600319360112610317576020906019549051908152f35b505034610317578160031936011261031757602a548151911c6001600160401b03168152602090f35b505034610317578160031936011261031757602a5490516001600160401b039091168152602090f35b505034610317578160031936011261031757602c5490516001600160401b039091168152602090f35b505034610317578160031936011261031757602090601d549051908152f35b9050823461036d5750611623611617916115ec36611f00565b906115ff60ff600d979497541615612167565b611607612477565b50506116116136c0565b85612c75565b929093601054906130a3565b15611635575082519182526020820152f35b606490602085519162461bcd60e51b8352820152601160248201527013585c9ad95d0e881a5b9cdbdb1d995b9d607a1b6044820152fd5b90503461046d57602036600319011261046d57600080516020613a858339815191529035916116a660018060a01b036005541633146120dc565b6116b5620186a0841115612127565b601c548151908152836020820152a1601c5580f35b9190503461046d578260031936011261046d576006546001600160a01b0392909183831691903383900361172a57505080600554938416600080516020613aa58339815191528680a36001600160a01b0319928316176005551660065580f35b906020606492519162461bcd60e51b8352820152602060248201527f4f776e61626c653a2063616c6c657220213d2070656e64696e67206f776e65726044820152fd5b5050346103175781600319360112610317576020906026549051908152f35b5050346103175760203660031901126103175760209181906001600160a01b036117b4611e2e565b1681526014845220549051908152f35b5050346103175781600319360112610317576020906012549051908152f35b505034610317578160031936011261031757602090600c549051908152f35b5050346103175781600319360112610317576020906013549051908152f35b5050346103175781600319360112610317576020906010549051908152f35b505034610317578160031936011261031757600b5490516001600160a01b039091168152602090f35b5050346103175781600319360112610317576020906104a161286b565b5050346103175781600319360112610317576020906016549051908152f35b505034610317578160031936011261031757600b546020919060ff906118d3906001600160a01b0316613029565b915191168152f35b82843461036d576118eb36611f00565b919282611925575b508351918252602094506001600160a01b03908116921690600080516020613ac5833981519152908590a35160018152f35b6001600160a01b03848116808352600160209081528784205491989290919061195087831015612994565b851692838a03611964575b505050506118f3565b8985526002835288852033865283528885205490600182016119ce575b5050928260209960018a946119ad8a8e99610c5b600080516020613ac58339815191529c9a15156129d9565b92855252838320558152206119c3858254612208565b90559187808061195b565b878210611a2457509260209960018a946119ad8a8e99966119ff82600080516020613ac58339815191529d9b6121a4565b86895260028552898920338a5285528989205596995050509450509981949650611981565b895162461bcd60e51b8152908101849052601860248201527745524332303a20616c6c6f77616e636520746f6f206c6f7760401b6044820152606490fd5b8391503461031757611a7336611eb1565b9280979497969596929192421161070a5788938693611b0a938c888b6106ad968e8460018060a01b03809c169c8d958682526020522090815491611ab683612bb8565b90558b86519460208601967fe9685ff6d48c617fe4f692c50e602cce27cbad0290beb93cfa77eac43968d58c885288870152166060850152608084015260a083015260c082015260c0815261067381612053565b16036106c7575061036a939450612bc7565b5050346103175760203660031901126103175760209181906001600160a01b03611b44611e2e565b1681526015845220549051908152f35b50503461031757816003193601126103175760209060215460801c9051908152f35b505034610317578060031936011261031757602090611334611b96611e2e565b6024359033612c1e565b9190503461046d57606036600319011261046d57611bbc611e2e565b91602435918215158303610aa457611bd2611ea2565b9260018060a01b03948591611bec836005541633146120dc565b15611c7e571692831590811591611c76575b5015611c3b57505080600554928316600080516020613aa58339815191528580a36001600160a01b03199182161760055560068054909116905580f35b906020606492519162461bcd60e51b835282015260156024820152744f776e61626c653a207a65726f206164647265737360581b6044820152fd5b905038611bfe565b93505050501660018060a01b0319600654161760065580f35b9190503461046d578260031936011261046d576009546001600160a01b039390611cc2908516613a21565b90611cd085600b5416613a21565b94600e5416818451809263355a219b60e21b8252602080988301528180611cf960248201611f6f565b03915afa918215611db45792611214926036928561034d979692611d99575b505084519788927302a30b834b7b1b09029b4b733bab630b934ba3c960651b89850152611d4e815180928b603488019101611e5a565b8301602f60f81b6034820152611d6d825180938b603585019101611e5a565b01602d60f81b6035820152611d8a825180938a8785019101611e5a565b01036016810187520185612089565b611dad92503d8091833e6112378183612089565b3880611d18565b8451903d90823e3d90fd5b82843461036d578060031936011261036d5750611dda612477565b825191151582526020820152f35b8490843461046d578060031936011261046d57602092611e06611e2e565b611e0e611e44565b6001600160a01b0391821683526003865283832091168252845220548152f35b600435906001600160a01b038216820361046857565b602435906001600160a01b038216820361046857565b60005b838110611e6d5750506000910152565b8181015183820152602001611e5d565b90602091611e9681518092818552858086019101611e5a565b601f01601f1916010190565b60443590811515820361046857565b60e0906003190112610468576001600160a01b03906004358281168103610468579160243590811681036104685790604435906064359060843560ff81168103610468579060a4359060c43590565b6060906003190112610468576001600160a01b0390600435828116810361046857916024359081168103610468579060443590565b90600182811c92168015611f65575b6020831014611f4f57565b634e487b7160e01b600052602260045260246000fd5b91607f1691611f44565b600f5460009291611f7f82611f35565b908181526001928381169081600014611fd95750600114611f9f57505050565b90929350600f6000526020928360002092846000945b838610611fc55750505050010190565b805485870183015294019385908201611fb5565b91935050602093945060ff191683830152151560051b010190565b6001600160401b03811161200757604052565b634e487b7160e01b600052604160045260246000fd5b604081019081106001600160401b0382111761200757604052565b606081019081106001600160401b0382111761200757604052565b60e081019081106001600160401b0382111761200757604052565b608081019081106001600160401b0382111761200757604052565b601f909101601f19168101906001600160401b0382119082101761200757604052565b6001600160801b0391821681529116602082015260400190565b6040919493926060820195825260208201520152565b156120e357565b606460405162461bcd60e51b815260206004820152602060248201527f4f776e61626c653a2063616c6c6572206973206e6f7420746865206f776e65726044820152fd5b1561212e57565b60405162461bcd60e51b815260206004820152601160248201527013585c9ad95d0e881b9bdd081d985b1a59607a1b6044820152606490fd5b1561216e57565b60405162461bcd60e51b815260206004820152600e60248201526d13585c9ad95d0e881c185d5cd95960921b6044820152606490fd5b919082039182116121b157565b634e487b7160e01b600052601160045260246000fd5b604d81116121b157600a0a90565b81156121df570490565b634e487b7160e01b600052601260045260246000fd5b818102929181159184041417156121b157565b919082018092116121b157565b909391929381601294858111612369575b858110612347575b50508094848111612321575b8481106122ff575b5050601b549361226461225586836121f5565b61225e856121c7565b906121d5565b82106122f5576122b99161228761227e61228d93886121f5565b61225e866121c7565b906121a4565b9361228761225561229d856121c7565b926122b36122aa876121c7565b601d5490612208565b906121f5565b9082039182116121b1576122b36122cf926121c7565b670de0b6b3a7640000918281029281840414901517156121b1576122f2916121d5565b90565b5050505050600090565b909194508303908382116121b1576122b3612319926121c7565b923880612242565b945060111985018581116121b15761233b612341916121c7565b826121d5565b9461223a565b909192508403908482116121b1576122b3612361926121c7565b90388061222e565b925060111983018381116121b15761233b612383916121c7565b92612226565b604051906123968261201d565b6011546001600160801b038116835260801c6020830152565b604051906123bc8261201d565b6021546001600160801b038116835260801c6020830152565b6001600160a01b03811660008181526014602052604081205491949392909190811561246b579160409161243f859461241961245f97612413612389565b926125d9565b815190936001600160801b0391602091612435918416906121f5565b92015116906121d5565b9080821061246357612450916121a4565b958152601560205220546126a9565b9091565b505080612450565b50509192505080918190565b60018060a01b03600e54169060409081519263d6d7d52560e01b8452602060048501528284604481600080958160248401525af1908115612582578094819261253d575b505091836000146125355782156124fb5760207f9f9192b5edb17356c524e08d9e025c8e2f6307e6ea52fb7968faa3081f51c3c8918460105551848152a1565b5162461bcd60e51b81526020600482015260146024820152734d61726b65743a20696e76616c6964207261746560601b6044820152606490fd5b506010549150565b84809296508193503d831161257b575b6125578183612089565b8101031261257757805193841515850361036d57506020015138806124bb565b8380fd5b503d61254d565b8351903d90823e3d90fd5b1561259457565b60405162461bcd60e51b815260206004820152601e60248201527f4d61726b65743a2065786368616e676552617465206e6f742076616c696400006044820152606490fd5b91906125e681151561258d565b60018060a01b036020816007541691600a549060009616865260158252606461262761261e6040892054620186a0601e5404906121f5565b601b54906121f5565b91604051948593849263442c159960e01b8452600484015260248301528860448301525afa90811561269e578491612666575b506122f29293506121d5565b90506020813d8211612696575b8161268060209383612089565b81010312612577576122f292935051839261265a565b3d9150612673565b6040513d86823e3d90fd5b6126b482151561258d565b602060018060a01b0360075416916064600a54604051948593849263442c159960e01b845260048401526024830152600060448301525afa90811561275957600091612726575b509061270d61271292601e54906121f5565b6121d5565b620186a0612722601b54836121f5565b0491565b906020823d8211612751575b8161273f60209383612089565b8101031261036d57505161270d6126fb565b3d9150612732565b6040513d6000823e3d90fd5b801561286357811561286357818110612863578281101561285a578161278a916121a4565b620186a092838202918083048514901517156121b1576127ad9261225e916121a4565b601854916019549283810390600093848612828412811690838513901516176128465782810292858112600160ff1b83141661283257830514908514171561281e570581838201938412911290801582169115161761280a575090565b634e487b7160e01b81526011600452602490fd5b634e487b7160e01b83526011600452602483fd5b634e487b7160e01b86526011600452602486fd5b634e487b7160e01b85526011600452602485fd5b50505060185490565b505050600090565b307f00000000000000000000000000000000000000000000000000000000000000006001600160a01b0316148061296b575b156128c6577f000000000000000000000000000000000000000000000000000000000000000090565b60405160208101907f000000000000000000000000000000000000000000000000000000000000000082527f000000000000000000000000000000000000000000000000000000000000000060408201527f000000000000000000000000000000000000000000000000000000000000000060608201524660808201523060a082015260a0815260c0810181811060018060401b038211176120075760405251902090565b507f0000000000000000000000000000000000000000000000000000000000000000461461289d565b1561299b57565b60405162461bcd60e51b815260206004820152601660248201527545524332303a2062616c616e636520746f6f206c6f7760501b6044820152606490fd5b156129e057565b60405162461bcd60e51b815260206004820152601660248201527545524332303a206e6f207a65726f206164647265737360501b6044820152606490fd5b6005811015612b1d5780612a2f5750565b60018103612a775760405162461bcd60e51b815260206004820152601860248201527745434453413a20696e76616c6964207369676e617475726560401b6044820152606490fd5b60028103612ac45760405162461bcd60e51b815260206004820152601f60248201527f45434453413a20696e76616c6964207369676e6174757265206c656e677468006044820152606490fd5b600314612acd57565b60405162461bcd60e51b815260206004820152602260248201527f45434453413a20696e76616c6964207369676e6174757265202773272076616c604482015261756560f01b6064820152608490fd5b634e487b7160e01b600052602160045260246000fd5b9291906fa2a8918ca85bafe22016d0b997e4df60600160ff1b038311612bac5791608094939160ff602094604051948552168484015260408301526060820152600093849182805260015afa15612b9f5781516001600160a01b03811615612b99579190565b50600190565b50604051903d90823e3d90fd5b50505050600090600390565b60001981146121b15760010190565b909160207fe50de2333c10a9502fcb1d8ae13a51bbf423153dfc63c2b8997665b32154afc39160018060a01b03809416938460005260038352604060002095169485600052825280604060002055604051908152a3565b909160207f8c5be1e5ebec7d5bd14f71427d1e84f3dd0314c0f7b2291e5b200ac8c7c3b9259160018060a01b03809416938460005260028352604060002095169485600052825280604060002055604051908152a3565b91908115612fd357612ca99260105491612caf60018060a01b039360ff612c9f86600b5416613029565b16968791856125d9565b866131b2565b9280831695612ce6600094888652612ce06020936015855261225e612cda60409a8b8b2054906121f5565b916121c7565b906131f5565b620186a0612cf6601c54886121f5565b0490612d00612389565b97612d0b8389612208565b9286838951612d198161201d565b828152015289516001600160801b0394908516612f645799612d64908b9061084890879081612d4e81865b16828451166132a8565b1681528161083d818a84019616828751166132a8565b6013548015908115612f54575b5015612f1657907f3a5151e57d3bc9798e7853034ac52293d1a0e12a2b44725e75b03b21f86477a68a8a93838a52601486528a8a20612db1838254612208565b9055612dc58b519283928a8c1697846120c6565b0390a3808360075416976064600c5489519a8b938492638eb22cdd60e01b8452600484015260248301528960448301525afa968715612f0c578597612edd575b50612e0e6123af565b818101916103e88484511610612ea9575090612e41839283612e38612e48968c16828451166137c2565b1680915261369e565b5116613657565b6007541690600c5490823b15612577578392839286958893612e80985198899586948593630208d92960e11b855230600486016137db565b03925af1918215612e9f575050612e9657509091565b61245f90611ff4565b51903d90823e3d90fd5b60649088519062461bcd60e51b82526004820152600e60248201526d14d1d30e881b5a5b881b1a5b5a5d60921b6044820152fd5b9080975081813d8311612f05575b612ef58183612089565b81010312610aa457519538612e05565b503d612eeb565b86513d87823e3d90fd5b875162461bcd60e51b815260048101849052601760248201527614d1d30e88189bdc9c9bddc818d85c081c995858da1959604a1b6044820152606490fd5b905060115460801c111538612d71565b998a859b85830187815116612f7990836121f5565b88855116612f86916121d5565b9d8e81865116612f95916121f5565b915116612fa1916121d5565b10612fbc575b61084886612d6493818f9481612d4e91612d44565b8580612fc981949e612bb8565b9d93505050612fa7565b505050600090600090565b6001600160401b03811161200757601f01601f191660200190565b3d15613024573d9061300a82612fde565b916130186040519384612089565b82523d6000602084013e565b606090565b60405163313ce56760e01b6020820190815260048252906130498161201d565b5160009283928392916001600160a01b03165afa613065612ff9565b9080613098575b156130915760208180518101031261031757602001519060ff8216820361036d575090565b5050601290565b50602081511461306c565b91909160018060a01b038060009216825260206014815260408320549081156131a857601581526040842054801561319f57816130de612389565b94600754169160646130fe61261e600a5493620186a0601e5404906121f5565b91604051948593849263442c159960e01b8452600484015260248301528960448301525afa94851561319357809561315b575b505061243561315694959661315160018060801b039485875116906121f5565b6121f5565b111590565b909694508187813d831161318c575b6131748183612089565b8101031261036d575094519294612435613156613131565b503d61316a565b604051903d90823e3d90fd5b50929450505050565b5060019450505050565b91821580156131ed575b61286357600181018091116121b1576131db926122b361270d926121c7565b600581018091116121b157600a900490565b5081156131bc565b6001600160a01b0316338103613209575050565b6000908082526003602052604082203383526020528260408320541061324d578160409161324993526003602052818120338252602052209182546121a4565b9055565b60405162461bcd60e51b815260206004820152601460248201527313585c9ad95d0e881b9bdd08185c1c1c9bdd995960621b6044820152606490fd5b6040519061329682612038565b60006040838281528260208201520152565b6001600160801b0391821690821601919082116121b157565b6132c9613289565b50604051906132d78261201d565b6000908183528160208094015281836040516132f28161201d565b82815201526040519161330483612038565b83549060018060401b0391828116855285850190838160401c16825260801c604086015284613331612389565b9461333a6123af565b600754600c54825160405163442c159960e01b815260048101929092526001600160801b039081166024830152604482018890529297929694918591908c90829060649082906001600160a01b03165afa80156136275782906135f8575b6133a79150888b511690612208565b806135cb57815b6133bc8582995116426121a4565b9384156135a25750508342168c8c0152878c8b01511615613566578a9b8491898c81819f819e9f828a915116670de0b6b3a764000098899351166133ff916121f5565b90613409916121f5565b049d8e169151169061341a916132a8565b168d5260175461342a908c6121f5565b620186a09004918c01918a835116613441916121f5565b9061344b916121d5565b988d818b169060400182828183511690613464916132a8565b1690528183511690613475916132a8565b16905260275491828810156134ed5761348e88846121a4565b82810292818404149015171561280a575061270d8493846134ce8f946134ba6134d6976134c8926121d5565b93613151602b5495806121f5565b83612208565b9351166121f5565b1690818a52602a54168091106134e95750565b8852565b909150602854808811613502575b5050505050565b61350c90886121a4565b82810292818404149015171561280a57509061270d6135376134c86134ba61354095602954906121d5565b848d51166121f5565b81602a5460401c1680821161355e575b5016885238808080806134fb565b905038613550565b509650509196829196985080939450511690602c5416809103613596575b50949361358f6123af565b9383929190565b81526001945038613584565b99509a5050975050509650505050926135b9612389565b926135c26123af565b92809281929190565b878a5116670de0b6b3a76400009081810291818304149015171561281e57816135f3916121d5565b6133ae565b508b81813d8311613620575b61360e8183612089565b81010312610317576133a79051613398565b503d613604565b6040513d84823e3d90fd5b601180546001600160801b031660809290921b6001600160801b031916919091179055565b602180546001600160801b031660809290921b6001600160801b031916919091179055565b601180546001600160801b0319166001600160801b0392909216919091179055565b602180546001600160801b0319166001600160801b0392909216919091179055565b6137886020806137746136d16132c1565b939695939092901561378a57505050600080516020613ae5833981519152608060018060401b03602c54166040519060008252600089830152604082015260006060820152a15b805185820151604092830151921b600160401b600160801b03166001600160401b03919091161760809190911b6001600160801b03191617845580516001600160801b03958692909161376c90841661367c565b015116613632565b6137808382511661369e565b015116613657565b565b600080516020613ae58339815191529260809260018060401b03865116906040519384528a84015260408301526060820152a1613718565b6001600160801b0391821690821603919082116121b157565b6001600160a01b039182168152911660208201526040810191909152606081019190915260800190565b602081830312610468578051906001600160401b038211610468570181601f8201121561046857805161383781612fde565b926138456040519485612089565b81845260208284010111610468576122f29160208085019101611e5a565b604051906138708261201d565b60038252623f3f3f60e81b6020830152565b6000809160405160208101906395d89b4160e01b8252600481526138a58161201d565b51916001600160a01b03165afa6138ba612ff9565b90156138c9576122f29061390a565b506122f2613863565b9081518110156138e3570160200190565b634e487b7160e01b600052603260045260246000fd5b60ff1660ff81146121b15760010190565b8051604081106139285750806020806122f293518301019101613805565b602092908303613a16576000805b60ff811685811090816139f7575b501561395857613953906138f9565b613936565b9260ff8094169261396884612fde565b936139766040519586612089565b808552613985601f1991612fde565b013687860137825b858116878110806139da575b156139cf576139ca91906139c46001600160f81b03196139b983886138d2565b5116871a91886138d2565b536138f9565b61398d565b505094505050905090565b506001600160f81b03196139ee82866138d2565b51161515613999565b6001600160f81b03199150613a0c90866138d2565b5116151538613944565b9150506122f2613863565b6000809160405160208101906306fdde0360e01b8252600481526138a58161201d56fec8e512d8f188ca059984b5853d2bf653da902696b8512785b182b2c813789a6eae6e0ab3b95f0a53ff9660a390ccedcbbf1f2355dce974a9841af106fddcfabac353b09af857951dccce61b43a5854fc45beceed36c50e5d4cc2e71858a8e0df8be0079c531659141344cd1fd0a4f28419497f9722a3daafe3b4186f6b6457e0ddf252ad1be2c89b69c2b068fc378daa952ba7f163c4a11628f55a4df523b3ef33af5ce86e8438eff54589f85332916444457dfa8685493fbd579b809097026b8d1108e10bcb7c27dddfc02ed9d693a074039d026cf4ea4240b40f7d581ac802a2646970667358221220560c4c6083f262266723b04e899808e0aadc5a43f958225e60b55ee067e412b964736f6c63430008120033",
  "linkReferences": {},
  "deployedLinkReferences": {}
}