{
  "_format": "hh-sol-artifact-1",
  "contractName": "SGLBorrow",
  "sourceName": "contracts/markets/singularity/SGLBorrow.sol",
  "abi": [
    {
      "anonymous": false,
      "inputs": [
        {
          "indexed": true,
          "internalType": "address",
          "name": "owner",
          "type": "address"
        },
        {
          "indexed": true,
          "internalType": "address",
          "name": "spender",
          "type": "address"
        },
        {
          "indexed": false,
          "internalType": "uint256",
          "name": "value",
          "type": "uint256"
        }
      ],
      "name": "Approval",
      "type": "event"
    },
    {
      "anonymous": false,
      "inputs": [
        {
          "indexed": true,
          "internalType": "address",
          "name": "owner",
          "type": "address"
        },
        {
          "indexed": true,
          "internalType": "address",
          "name": "spender",
          "type": "address"
        },
        {
          "indexed": false,
          "internalType": "uint256",
          "name": "value",
          "type": "uint256"
        }
      ],
      "name": "ApprovalBorrow",
      "type": "event"
    },
    {
      "anonymous": false,
      "inputs": [
        {
          "indexed": true,
          "internalType": "address",
          "name": "newAddress",
          "type": "address"
        }
      ],
      "name": "BidExecutionSwapperUpdated",
      "type": "event"
    },
    {
      "anonymous": false,
      "inputs": [
        {
          "indexed": true,
          "internalType": "address",
          "name": "old",
          "type": "address"
        },
        {
          "indexed": true,
          "internalType": "address",
          "name": "_new",
          "type": "address"
        }
      ],
      "name": "ConservatorUpdated",
      "type": "event"
    },
    {
      "anonymous": false,
      "inputs": [
        {
          "indexed": false,
          "internalType": "uint256",
          "name": "oldVal",
          "type": "uint256"
        },
        {
          "indexed": false,
          "internalType": "uint256",
          "name": "newVal",
          "type": "uint256"
        }
      ],
      "name": "InterestElasticityUpdated",
      "type": "event"
    },
    {
      "anonymous": false,
      "inputs": [
        {
          "indexed": true,
          "internalType": "address",
          "name": "liquidator",
          "type": "address"
        },
        {
          "indexed": false,
          "internalType": "address[]",
          "name": "users",
          "type": "address[]"
        },
        {
          "indexed": false,
          "internalType": "uint256",
          "name": "liquidatorReward",
          "type": "uint256"
        },
        {
          "indexed": false,
          "internalType": "uint256",
          "name": "protocolReward",
          "type": "uint256"
        },
        {
          "indexed": false,
          "internalType": "uint256",
          "name": "repayedAmount",
          "type": "uint256"
        },
        {
          "indexed": false,
          "internalType": "uint256",
          "name": "collateralShareRemoved",
          "type": "uint256"
        }
      ],
      "name": "Liquidated",
      "type": "event"
    },
    {
      "anonymous": false,
      "inputs": [
        {
          "indexed": false,
          "internalType": "uint256",
          "name": "oldVal",
          "type": "uint256"
        },
        {
          "indexed": false,
          "internalType": "uint256",
          "name": "newVal",
          "type": "uint256"
        }
      ],
      "name": "LiquidationMultiplierUpdated",
      "type": "event"
    },
    {
      "anonymous": false,
      "inputs": [
        {
          "indexed": false,
          "internalType": "uint256",
          "name": "accruedAmount",
          "type": "uint256"
        },
        {
          "indexed": false,
          "internalType": "uint256",
          "name": "feeFraction",
          "type": "uint256"
        },
        {
          "indexed": false,
          "internalType": "uint64",
          "name": "rate",
          "type": "uint64"
        },
        {
          "indexed": false,
          "internalType": "uint256",
          "name": "utilization",
          "type": "uint256"
        }
      ],
      "name": "LogAccrue",
      "type": "event"
    },
    {
      "anonymous": false,
      "inputs": [
        {
          "indexed": true,
          "internalType": "address",
          "name": "from",
          "type": "address"
        },
        {
          "indexed": true,
          "internalType": "address",
          "name": "to",
          "type": "address"
        },
        {
          "indexed": false,
          "internalType": "uint256",
          "name": "share",
          "type": "uint256"
        },
        {
          "indexed": false,
          "internalType": "uint256",
          "name": "fraction",
          "type": "uint256"
        }
      ],
      "name": "LogAddAsset",
      "type": "event"
    },
    {
      "anonymous": false,
      "inputs": [
        {
          "indexed": true,
          "internalType": "address",
          "name": "from",
          "type": "address"
        },
        {
          "indexed": true,
          "internalType": "address",
          "name": "to",
          "type": "address"
        },
        {
          "indexed": false,
          "internalType": "uint256",
          "name": "share",
          "type": "uint256"
        }
      ],
      "name": "LogAddCollateral",
      "type": "event"
    },
    {
      "anonymous": false,
      "inputs": [
        {
          "indexed": true,
          "internalType": "address",
          "name": "from",
          "type": "address"
        },
        {
          "indexed": true,
          "internalType": "address",
          "name": "to",
          "type": "address"
        },
        {
          "indexed": false,
          "internalType": "uint256",
          "name": "amount",
          "type": "uint256"
        },
        {
          "indexed": false,
          "internalType": "uint256",
          "name": "feeAmount",
          "type": "uint256"
        },
        {
          "indexed": false,
          "internalType": "uint256",
          "name": "part",
          "type": "uint256"
        }
      ],
      "name": "LogBorrow",
      "type": "event"
    },
    {
      "anonymous": false,
      "inputs": [
        {
          "indexed": false,
          "internalType": "uint256",
          "name": "_oldVal",
          "type": "uint256"
        },
        {
          "indexed": false,
          "internalType": "uint256",
          "name": "_newVal",
          "type": "uint256"
        }
      ],
      "name": "LogBorrowCapUpdated",
      "type": "event"
    },
    {
      "anonymous": false,
      "inputs": [
        {
          "indexed": false,
          "internalType": "uint256",
          "name": "_oldVal",
          "type": "uint256"
        },
        {
          "indexed": false,
          "internalType": "uint256",
          "name": "_newVal",
          "type": "uint256"
        }
      ],
      "name": "LogBorrowingFee",
      "type": "event"
    },
    {
      "anonymous": false,
      "inputs": [
        {
          "indexed": false,
          "internalType": "uint256",
          "name": "rate",
          "type": "uint256"
        }
      ],
      "name": "LogExchangeRate",
      "type": "event"
    },
    {
      "anonymous": false,
      "inputs": [
        {
          "indexed": true,
          "internalType": "address",
          "name": "from",
          "type": "address"
        },
        {
          "indexed": true,
          "internalType": "address",
          "name": "to",
          "type": "address"
        },
        {
          "indexed": false,
          "internalType": "uint256",
          "name": "share",
          "type": "uint256"
        },
        {
          "indexed": false,
          "internalType": "uint256",
          "name": "fraction",
          "type": "uint256"
        }
      ],
      "name": "LogRemoveAsset",
      "type": "event"
    },
    {
      "anonymous": false,
      "inputs": [
        {
          "indexed": true,
          "internalType": "address",
          "name": "from",
          "type": "address"
        },
        {
          "indexed": true,
          "internalType": "address",
          "name": "to",
          "type": "address"
        },
        {
          "indexed": false,
          "internalType": "uint256",
          "name": "share",
          "type": "uint256"
        }
      ],
      "name": "LogRemoveCollateral",
      "type": "event"
    },
    {
      "anonymous": false,
      "inputs": [
        {
          "indexed": true,
          "internalType": "address",
          "name": "from",
          "type": "address"
        },
        {
          "indexed": true,
          "internalType": "address",
          "name": "to",
          "type": "address"
        },
        {
          "indexed": false,
          "internalType": "uint256",
          "name": "amount",
          "type": "uint256"
        },
        {
          "indexed": false,
          "internalType": "uint256",
          "name": "part",
          "type": "uint256"
        }
      ],
      "name": "LogRepay",
      "type": "event"
    },
    {
      "anonymous": false,
      "inputs": [
        {
          "indexed": true,
          "internalType": "address",
          "name": "feeTo",
          "type": "address"
        },
        {
          "indexed": false,
          "internalType": "uint256",
          "name": "feesEarnedFraction",
          "type": "uint256"
        }
      ],
      "name": "LogWithdrawFees",
      "type": "event"
    },
    {
      "anonymous": false,
      "inputs": [
        {
          "indexed": false,
          "internalType": "uint256",
          "name": "feeShares",
          "type": "uint256"
        },
        {
          "indexed": false,
          "internalType": "uint256",
          "name": "ethAmount",
          "type": "uint256"
        }
      ],
      "name": "LogYieldBoxFeesDeposit",
      "type": "event"
    },
    {
      "anonymous": false,
      "inputs": [
        {
          "indexed": false,
          "internalType": "uint256",
          "name": "oldVal",
          "type": "uint256"
        },
        {
          "indexed": false,
          "internalType": "uint256",
          "name": "newVal",
          "type": "uint256"
        }
      ],
      "name": "LqCollateralizationRateUpdated",
      "type": "event"
    },
    {
      "anonymous": false,
      "inputs": [
        {
          "indexed": false,
          "internalType": "uint256",
          "name": "oldVal",
          "type": "uint256"
        },
        {
          "indexed": false,
          "internalType": "uint256",
          "name": "newVal",
          "type": "uint256"
        }
      ],
      "name": "MaximumInterestPerSecondUpdated",
      "type": "event"
    },
    {
      "anonymous": false,
      "inputs": [
        {
          "indexed": false,
          "internalType": "uint256",
          "name": "oldVal",
          "type": "uint256"
        },
        {
          "indexed": false,
          "internalType": "uint256",
          "name": "newVal",
          "type": "uint256"
        }
      ],
      "name": "MaximumTargetUtilizationUpdated",
      "type": "event"
    },
    {
      "anonymous": false,
      "inputs": [
        {
          "indexed": false,
          "internalType": "uint256",
          "name": "oldVal",
          "type": "uint256"
        },
        {
          "indexed": false,
          "internalType": "uint256",
          "name": "newVal",
          "type": "uint256"
        }
      ],
      "name": "MinimumInterestPerSecondUpdated",
      "type": "event"
    },
    {
      "anonymous": false,
      "inputs": [
        {
          "indexed": false,
          "internalType": "uint256",
          "name": "oldVal",
          "type": "uint256"
        },
        {
          "indexed": false,
          "internalType": "uint256",
          "name": "newVal",
          "type": "uint256"
        }
      ],
      "name": "MinimumTargetUtilizationUpdated",
      "type": "event"
    },
    {
      "anonymous": false,
      "inputs": [],
      "name": "OracleDataUpdated",
      "type": "event"
    },
    {
      "anonymous": false,
      "inputs": [],
      "name": "OracleUpdated",
      "type": "event"
    },
    {
      "anonymous": false,
      "inputs": [
        {
          "indexed": false,
          "internalType": "uint256",
          "name": "oldVal",
          "type": "uint256"
        },
        {
          "indexed": false,
          "internalType": "uint256",
          "name": "newVal",
          "type": "uint256"
        }
      ],
      "name": "OrderBookLiquidationMultiplierUpdated",
      "type": "event"
    },
    {
      "anonymous": false,
      "inputs": [
        {
          "indexed": true,
          "internalType": "address",
          "name": "previousOwner",
          "type": "address"
        },
        {
          "indexed": true,
          "internalType": "address",
          "name": "newOwner",
          "type": "address"
        }
      ],
      "name": "OwnershipTransferred",
      "type": "event"
    },
    {
      "anonymous": false,
      "inputs": [
        {
          "indexed": false,
          "internalType": "bool",
          "name": "oldState",
          "type": "bool"
        },
        {
          "indexed": false,
          "internalType": "bool",
          "name": "newState",
          "type": "bool"
        }
      ],
      "name": "PausedUpdated",
      "type": "event"
    },
    {
      "anonymous": false,
      "inputs": [
        {
          "indexed": true,
          "internalType": "address",
          "name": "from",
          "type": "address"
        },
        {
          "indexed": true,
          "internalType": "address",
          "name": "to",
          "type": "address"
        },
        {
          "indexed": false,
          "internalType": "uint256",
          "name": "value",
          "type": "uint256"
        }
      ],
      "name": "Transfer",
      "type": "event"
    },
    {
      "anonymous": false,
      "inputs": [
        {
          "indexed": true,
          "internalType": "address",
          "name": "newAddress",
          "type": "address"
        }
      ],
      "name": "UsdoSwapperUpdated",
      "type": "event"
    },
    {
      "inputs": [],
      "name": "DOMAIN_SEPARATOR",
      "outputs": [
        {
          "internalType": "bytes32",
          "name": "",
          "type": "bytes32"
        }
      ],
      "stateMutability": "view",
      "type": "function"
    },
    {
      "inputs": [],
      "name": "accrue",
      "outputs": [],
      "stateMutability": "nonpayable",
      "type": "function"
    },
    {
      "inputs": [],
      "name": "accrueInfo",
      "outputs": [
        {
          "internalType": "uint64",
          "name": "interestPerSecond",
          "type": "uint64"
        },
        {
          "internalType": "uint64",
          "name": "lastAccrued",
          "type": "uint64"
        },
        {
          "internalType": "uint128",
          "name": "feesEarnedFraction",
          "type": "uint128"
        }
      ],
      "stateMutability": "view",
      "type": "function"
    },
    {
      "inputs": [
        {
          "internalType": "address",
          "name": "",
          "type": "address"
        },
        {
          "internalType": "address",
          "name": "",
          "type": "address"
        }
      ],
      "name": "allowance",
      "outputs": [
        {
          "internalType": "uint256",
          "name": "",
          "type": "uint256"
        }
      ],
      "stateMutability": "view",
      "type": "function"
    },
    {
      "inputs": [
        {
          "internalType": "address",
          "name": "",
          "type": "address"
        },
        {
          "internalType": "address",
          "name": "",
          "type": "address"
        }
      ],
      "name": "allowanceBorrow",
      "outputs": [
        {
          "internalType": "uint256",
          "name": "",
          "type": "uint256"
        }
      ],
      "stateMutability": "view",
      "type": "function"
    },
    {
      "inputs": [
        {
          "internalType": "address",
          "name": "spender",
          "type": "address"
        },
        {
          "internalType": "uint256",
          "name": "amount",
          "type": "uint256"
        }
      ],
      "name": "approve",
      "outputs": [
        {
          "internalType": "bool",
          "name": "",
          "type": "bool"
        }
      ],
      "stateMutability": "nonpayable",
      "type": "function"
    },
    {
      "inputs": [
        {
          "internalType": "address",
          "name": "spender",
          "type": "address"
        },
        {
          "internalType": "uint256",
          "name": "amount",
          "type": "uint256"
        }
      ],
      "name": "approveBorrow",
      "outputs": [
        {
          "internalType": "bool",
          "name": "",
          "type": "bool"
        }
      ],
      "stateMutability": "nonpayable",
      "type": "function"
    },
    {
      "inputs": [],
      "name": "asset",
      "outputs": [
        {
          "internalType": "contract IERC20",
          "name": "",
          "type": "address"
        }
      ],
      "stateMutability": "view",
      "type": "function"
    },
    {
      "inputs": [],
      "name": "assetId",
      "outputs": [
        {
          "internalType": "uint256",
          "name": "",
          "type": "uint256"
        }
      ],
      "stateMutability": "view",
      "type": "function"
    },
    {
      "inputs": [
        {
          "internalType": "address",
          "name": "",
          "type": "address"
        }
      ],
      "name": "balanceOf",
      "outputs": [
        {
          "internalType": "uint256",
          "name": "",
          "type": "uint256"
        }
      ],
      "stateMutability": "view",
      "type": "function"
    },
    {
      "inputs": [
        {
          "internalType": "address",
          "name": "from",
          "type": "address"
        },
        {
          "internalType": "address",
          "name": "to",
          "type": "address"
        },
        {
          "internalType": "uint256",
          "name": "amount",
          "type": "uint256"
        }
      ],
      "name": "borrow",
      "outputs": [
        {
          "internalType": "uint256",
          "name": "part",
          "type": "uint256"
        },
        {
          "internalType": "uint256",
          "name": "share",
          "type": "uint256"
        }
      ],
      "stateMutability": "nonpayable",
      "type": "function"
    },
    {
      "inputs": [],
      "name": "borrowOpeningFee",
      "outputs": [
        {
          "internalType": "uint256",
          "name": "",
          "type": "uint256"
        }
      ],
      "stateMutability": "view",
      "type": "function"
    },
    {
      "inputs": [],
      "name": "callerFee",
      "outputs": [
        {
          "internalType": "uint256",
          "name": "",
          "type": "uint256"
        }
      ],
      "stateMutability": "view",
      "type": "function"
    },
    {
      "inputs": [],
      "name": "claimOwnership",
      "outputs": [],
      "stateMutability": "nonpayable",
      "type": "function"
    },
    {
      "inputs": [],
      "name": "collateral",
      "outputs": [
        {
          "internalType": "contract IERC20",
          "name": "",
          "type": "address"
        }
      ],
      "stateMutability": "view",
      "type": "function"
    },
    {
      "inputs": [],
      "name": "collateralId",
      "outputs": [
        {
          "internalType": "uint256",
          "name": "",
          "type": "uint256"
        }
      ],
      "stateMutability": "view",
      "type": "function"
    },
    {
      "inputs": [],
      "name": "collateralizationRate",
      "outputs": [
        {
          "internalType": "uint256",
          "name": "",
          "type": "uint256"
        }
      ],
      "stateMutability": "view",
      "type": "function"
    },
    {
      "inputs": [
        {
          "internalType": "uint256",
          "name": "borrowPart",
          "type": "uint256"
        },
        {
          "internalType": "uint256",
          "name": "collateralPartInAsset",
          "type": "uint256"
        },
        {
          "internalType": "uint256",
          "name": "ratesPrecision",
          "type": "uint256"
        }
      ],
      "name": "computeClosingFactor",
      "outputs": [
        {
          "internalType": "uint256",
          "name": "",
          "type": "uint256"
        }
      ],
      "stateMutability": "view",
      "type": "function"
    },
    {
      "inputs": [
        {
          "internalType": "address",
          "name": "user",
          "type": "address"
        },
        {
          "internalType": "uint256",
          "name": "_exchangeRate",
          "type": "uint256"
        }
      ],
      "name": "computeLiquidatorReward",
      "outputs": [
        {
          "internalType": "uint256",
          "name": "",
          "type": "uint256"
        }
      ],
      "stateMutability": "view",
      "type": "function"
    },
    {
      "inputs": [
        {
          "internalType": "address",
          "name": "user",
          "type": "address"
        },
        {
          "internalType": "uint256",
          "name": "_exchangeRate",
          "type": "uint256"
        }
      ],
      "name": "computeTVLInfo",
      "outputs": [
        {
          "internalType": "uint256",
          "name": "amountToSolvency",
          "type": "uint256"
        },
        {
          "internalType": "uint256",
          "name": "minTVL",
          "type": "uint256"
        },
        {
          "internalType": "uint256",
          "name": "maxTVL",
          "type": "uint256"
        }
      ],
      "stateMutability": "view",
      "type": "function"
    },
    {
      "inputs": [],
      "name": "conservator",
      "outputs": [
        {
          "internalType": "address",
          "name": "",
          "type": "address"
        }
      ],
      "stateMutability": "view",
      "type": "function"
    },
    {
      "inputs": [],
      "name": "decimals",
      "outputs": [
        {
          "internalType": "uint8",
          "name": "",
          "type": "uint8"
        }
      ],
      "stateMutability": "view",
      "type": "function"
    },
    {
      "inputs": [],
      "name": "exchangeRate",
      "outputs": [
        {
          "internalType": "uint256",
          "name": "",
          "type": "uint256"
        }
      ],
      "stateMutability": "view",
      "type": "function"
    },
    {
      "inputs": [],
      "name": "fullUtilizationMinusMax",
      "outputs": [
        {
          "internalType": "uint256",
          "name": "",
          "type": "uint256"
        }
      ],
      "stateMutability": "view",
      "type": "function"
    },
    {
      "inputs": [],
      "name": "getInterestDetails",
      "outputs": [
        {
          "components": [
            {
              "internalType": "uint64",
              "name": "interestPerSecond",
              "type": "uint64"
            },
            {
              "internalType": "uint64",
              "name": "lastAccrued",
              "type": "uint64"
            },
            {
              "internalType": "uint128",
              "name": "feesEarnedFraction",
              "type": "uint128"
            }
          ],
          "internalType": "struct ISingularity.AccrueInfo",
          "name": "_accrueInfo",
          "type": "tuple"
        },
        {
          "internalType": "uint256",
          "name": "utilization",
          "type": "uint256"
        }
      ],
      "stateMutability": "view",
      "type": "function"
    },
    {
      "inputs": [],
      "name": "interestElasticity",
      "outputs": [
        {
          "internalType": "uint256",
          "name": "",
          "type": "uint256"
        }
      ],
      "stateMutability": "view",
      "type": "function"
    },
    {
      "inputs": [],
      "name": "liquidationBonusAmount",
      "outputs": [
        {
          "internalType": "uint256",
          "name": "",
          "type": "uint256"
        }
      ],
      "stateMutability": "view",
      "type": "function"
    },
    {
      "inputs": [],
      "name": "liquidationMultiplier",
      "outputs": [
        {
          "internalType": "uint256",
          "name": "",
          "type": "uint256"
        }
      ],
      "stateMutability": "view",
      "type": "function"
    },
    {
      "inputs": [],
      "name": "liquidationQueue",
      "outputs": [
        {
          "internalType": "contract ILiquidationQueue",
          "name": "",
          "type": "address"
        }
      ],
      "stateMutability": "view",
      "type": "function"
    },
    {
      "inputs": [],
      "name": "lqCollateralizationRate",
      "outputs": [
        {
          "internalType": "uint256",
          "name": "",
          "type": "uint256"
        }
      ],
      "stateMutability": "view",
      "type": "function"
    },
    {
      "inputs": [],
      "name": "maxLiquidatorReward",
      "outputs": [
        {
          "internalType": "uint256",
          "name": "",
          "type": "uint256"
        }
      ],
      "stateMutability": "view",
      "type": "function"
    },
    {
      "inputs": [],
      "name": "maximumInterestPerSecond",
      "outputs": [
        {
          "internalType": "uint64",
          "name": "",
          "type": "uint64"
        }
      ],
      "stateMutability": "view",
      "type": "function"
    },
    {
      "inputs": [],
      "name": "maximumTargetUtilization",
      "outputs": [
        {
          "internalType": "uint256",
          "name": "",
          "type": "uint256"
        }
      ],
      "stateMutability": "view",
      "type": "function"
    },
    {
      "inputs": [],
      "name": "minLiquidatorReward",
      "outputs": [
        {
          "internalType": "uint256",
          "name": "",
          "type": "uint256"
        }
      ],
      "stateMutability": "view",
      "type": "function"
    },
    {
      "inputs": [],
      "name": "minimumInterestPerSecond",
      "outputs": [
        {
          "internalType": "uint64",
          "name": "",
          "type": "uint64"
        }
      ],
      "stateMutability": "view",
      "type": "function"
    },
    {
      "inputs": [],
      "name": "minimumTargetUtilization",
      "outputs": [
        {
          "internalType": "uint256",
          "name": "",
          "type": "uint256"
        }
      ],
      "stateMutability": "view",
      "type": "function"
    },
    {
      "inputs": [],
      "name": "name",
      "outputs": [
        {
          "internalType": "string",
          "name": "",
          "type": "string"
        }
      ],
      "stateMutability": "view",
      "type": "function"
    },
    {
      "inputs": [
        {
          "internalType": "address",
          "name": "owner",
          "type": "address"
        }
      ],
      "name": "nonces",
      "outputs": [
        {
          "internalType": "uint256",
          "name": "",
          "type": "uint256"
        }
      ],
      "stateMutability": "view",
      "type": "function"
    },
    {
      "inputs": [],
      "name": "oracle",
      "outputs": [
        {
          "internalType": "contract IOracle",
          "name": "",
          "type": "address"
        }
      ],
      "stateMutability": "view",
      "type": "function"
    },
    {
      "inputs": [],
      "name": "oracleData",
      "outputs": [
        {
          "internalType": "bytes",
          "name": "",
          "type": "bytes"
        }
      ],
      "stateMutability": "view",
      "type": "function"
    },
    {
      "inputs": [],
      "name": "owner",
      "outputs": [
        {
          "internalType": "address",
          "name": "",
          "type": "address"
        }
      ],
      "stateMutability": "view",
      "type": "function"
    },
    {
      "inputs": [],
      "name": "paused",
      "outputs": [
        {
          "internalType": "bool",
          "name": "",
          "type": "bool"
        }
      ],
      "stateMutability": "view",
      "type": "function"
    },
    {
      "inputs": [],
      "name": "pendingOwner",
      "outputs": [
        {
          "internalType": "address",
          "name": "",
          "type": "address"
        }
      ],
      "stateMutability": "view",
      "type": "function"
    },
    {
      "inputs": [],
      "name": "penrose",
      "outputs": [
        {
          "internalType": "contract IPenrose",
          "name": "",
          "type": "address"
        }
      ],
      "stateMutability": "view",
      "type": "function"
    },
    {
      "inputs": [
        {
          "internalType": "address",
          "name": "owner",
          "type": "address"
        },
        {
          "internalType": "address",
          "name": "spender",
          "type": "address"
        },
        {
          "internalType": "uint256",
          "name": "value",
          "type": "uint256"
        },
        {
          "internalType": "uint256",
          "name": "deadline",
          "type": "uint256"
        },
        {
          "internalType": "uint8",
          "name": "v",
          "type": "uint8"
        },
        {
          "internalType": "bytes32",
          "name": "r",
          "type": "bytes32"
        },
        {
          "internalType": "bytes32",
          "name": "s",
          "type": "bytes32"
        }
      ],
      "name": "permit",
      "outputs": [],
      "stateMutability": "nonpayable",
      "type": "function"
    },
    {
      "inputs": [
        {
          "internalType": "address",
          "name": "owner",
          "type": "address"
        },
        {
          "internalType": "address",
          "name": "spender",
          "type": "address"
        },
        {
          "internalType": "uint256",
          "name": "value",
          "type": "uint256"
        },
        {
          "internalType": "uint256",
          "name": "deadline",
          "type": "uint256"
        },
        {
          "internalType": "uint8",
          "name": "v",
          "type": "uint8"
        },
        {
          "internalType": "bytes32",
          "name": "r",
          "type": "bytes32"
        },
        {
          "internalType": "bytes32",
          "name": "s",
          "type": "bytes32"
        }
      ],
      "name": "permitBorrow",
      "outputs": [],
      "stateMutability": "nonpayable",
      "type": "function"
    },
    {
      "inputs": [],
      "name": "protocolFee",
      "outputs": [
        {
          "internalType": "uint256",
          "name": "",
          "type": "uint256"
        }
      ],
      "stateMutability": "view",
      "type": "function"
    },
    {
      "inputs": [
        {
          "internalType": "address",
          "name": "from",
          "type": "address"
        },
        {
          "internalType": "address",
          "name": "to",
          "type": "address"
        },
        {
          "internalType": "bool",
          "name": "skim",
          "type": "bool"
        },
        {
          "internalType": "uint256",
          "name": "part",
          "type": "uint256"
        }
      ],
      "name": "repay",
      "outputs": [
        {
          "internalType": "uint256",
          "name": "amount",
          "type": "uint256"
        }
      ],
      "stateMutability": "nonpayable",
      "type": "function"
    },
    {
      "inputs": [
        {
          "internalType": "uint256",
          "name": "_cap",
          "type": "uint256"
        }
      ],
      "name": "setBorrowCap",
      "outputs": [],
      "stateMutability": "nonpayable",
      "type": "function"
    },
    {
      "inputs": [
        {
          "internalType": "uint256",
          "name": "_val",
          "type": "uint256"
        }
      ],
      "name": "setBorrowOpeningFee",
      "outputs": [],
      "stateMutability": "nonpayable",
      "type": "function"
    },
    {
      "inputs": [
        {
          "internalType": "uint256",
          "name": "_borrowOpeningFee",
          "type": "uint256"
        },
        {
          "internalType": "contract IOracle",
          "name": "_oracle",
          "type": "address"
        },
        {
          "internalType": "bytes",
          "name": "_oracleData",
          "type": "bytes"
        },
        {
          "internalType": "address",
          "name": "_conservator",
          "type": "address"
        },
        {
          "internalType": "uint256",
          "name": "_callerFee",
          "type": "uint256"
        },
        {
          "internalType": "uint256",
          "name": "_protocolFee",
          "type": "uint256"
        },
        {
          "internalType": "uint256",
          "name": "_liquidationBonusAmount",
          "type": "uint256"
        },
        {
          "internalType": "uint256",
          "name": "_minLiquidatorReward",
          "type": "uint256"
        },
        {
          "internalType": "uint256",
          "name": "_maxLiquidatorReward",
          "type": "uint256"
        },
        {
          "internalType": "uint256",
          "name": "_totalBorrowCap",
          "type": "uint256"
        },
        {
          "internalType": "uint256",
          "name": "_collateralizationRate",
          "type": "uint256"
        }
      ],
      "name": "setMarketConfig",
      "outputs": [],
      "stateMutability": "nonpayable",
      "type": "function"
    },
    {
      "inputs": [],
      "name": "startingInterestPerSecond",
      "outputs": [
        {
          "internalType": "uint64",
          "name": "",
          "type": "uint64"
        }
      ],
      "stateMutability": "view",
      "type": "function"
    },
    {
      "inputs": [],
      "name": "symbol",
      "outputs": [
        {
          "internalType": "string",
          "name": "",
          "type": "string"
        }
      ],
      "stateMutability": "view",
      "type": "function"
    },
    {
      "inputs": [],
      "name": "totalAsset",
      "outputs": [
        {
          "internalType": "uint128",
          "name": "elastic",
          "type": "uint128"
        },
        {
          "internalType": "uint128",
          "name": "base",
          "type": "uint128"
        }
      ],
      "stateMutability": "view",
      "type": "function"
    },
    {
      "inputs": [],
      "name": "totalBorrow",
      "outputs": [
        {
          "internalType": "uint128",
          "name": "elastic",
          "type": "uint128"
        },
        {
          "internalType": "uint128",
          "name": "base",
          "type": "uint128"
        }
      ],
      "stateMutability": "view",
      "type": "function"
    },
    {
      "inputs": [],
      "name": "totalBorrowCap",
      "outputs": [
        {
          "internalType": "uint256",
          "name": "",
          "type": "uint256"
        }
      ],
      "stateMutability": "view",
      "type": "function"
    },
    {
      "inputs": [],
      "name": "totalCollateralShare",
      "outputs": [
        {
          "internalType": "uint256",
          "name": "",
          "type": "uint256"
        }
      ],
      "stateMutability": "view",
      "type": "function"
    },
    {
      "inputs": [],
      "name": "totalSupply",
      "outputs": [
        {
          "internalType": "uint256",
          "name": "",
          "type": "uint256"
        }
      ],
      "stateMutability": "view",
      "type": "function"
    },
    {
      "inputs": [
        {
          "internalType": "address",
          "name": "to",
          "type": "address"
        },
        {
          "internalType": "uint256",
          "name": "amount",
          "type": "uint256"
        }
      ],
      "name": "transfer",
      "outputs": [
        {
          "internalType": "bool",
          "name": "",
          "type": "bool"
        }
      ],
      "stateMutability": "nonpayable",
      "type": "function"
    },
    {
      "inputs": [
        {
          "internalType": "address",
          "name": "from",
          "type": "address"
        },
        {
          "internalType": "address",
          "name": "to",
          "type": "address"
        },
        {
          "internalType": "uint256",
          "name": "amount",
          "type": "uint256"
        }
      ],
      "name": "transferFrom",
      "outputs": [
        {
          "internalType": "bool",
          "name": "",
          "type": "bool"
        }
      ],
      "stateMutability": "nonpayable",
      "type": "function"
    },
    {
      "inputs": [
        {
          "internalType": "address",
          "name": "newOwner",
          "type": "address"
        },
        {
          "internalType": "bool",
          "name": "direct",
          "type": "bool"
        },
        {
          "internalType": "bool",
          "name": "renounce",
          "type": "bool"
        }
      ],
      "name": "transferOwnership",
      "outputs": [],
      "stateMutability": "nonpayable",
      "type": "function"
    },
    {
      "inputs": [],
      "name": "updateExchangeRate",
      "outputs": [
        {
          "internalType": "bool",
          "name": "updated",
          "type": "bool"
        },
        {
          "internalType": "uint256",
          "name": "rate",
          "type": "uint256"
        }
      ],
      "stateMutability": "nonpayable",
      "type": "function"
    },
    {
      "inputs": [
        {
          "internalType": "bool",
          "name": "val",
          "type": "bool"
        }
      ],
      "name": "updatePause",
      "outputs": [],
      "stateMutability": "nonpayable",
      "type": "function"
    },
    {
      "inputs": [
        {
          "internalType": "address",
          "name": "",
          "type": "address"
        }
      ],
      "name": "userBorrowPart",
      "outputs": [
        {
          "internalType": "uint256",
          "name": "",
          "type": "uint256"
        }
      ],
      "stateMutability": "view",
      "type": "function"
    },
    {
      "inputs": [
        {
          "internalType": "address",
          "name": "",
          "type": "address"
        }
      ],
      "name": "userCollateralShare",
      "outputs": [
        {
          "internalType": "uint256",
          "name": "",
          "type": "uint256"
        }
      ],
      "stateMutability": "view",
      "type": "function"
    },
    {
      "inputs": [],
      "name": "yieldBox",
      "outputs": [
        {
          "internalType": "contract YieldBox",
          "name": "",
          "type": "address"
        }
      ],
      "stateMutability": "view",
      "type": "function"
    }
  ],
  "bytecode": "0x6101408060405234620001e1576200001781620001e6565b601381526001602082017f546170696f63612053696e67756c617269747900000000000000000000000000815260206040516200005481620001e6565b8381520192603160f81b845251902091208160e052610100918183524660a0526040519160208301907f8b73c3c69bb8fe3d512ecc4cf759cc79239f7b179b0ffacaa9a75d522b39400f92838352604085015260608401524660808401523060a084015260a0835260c083019280841060018060401b03851117620001cb5760408490525190206080523060c052610120908152600580546001600160a01b0319163390811790915560007f8be0079c531659141344cd1fd0a4f28419497f9722a3daafe3b4186f6b6457e08180a36103e860185561271080601955601a556032601c55612ee0601d557f0bd4060688a1800ae986e4840aebc924bb40b5bf44de4583df2257220b54b77c6024557f7d1dc38e60930664f8cbf495da6556ca091d2f92d6550877750c049864b182306025556161a86026556139c89283620002038439608051836126f7015260a051836127c1015260c051836126c1015260e051836127460152518261276c015251816127230152f35b634e487b7160e01b600052604160045260246000fd5b600080fd5b604081019081106001600160401b03821117620001cb5760405256fe608060408181526004918236101561001657600080fd5b600092833560e01c918262a02a2014611d7a5750816302ce728f14611d5157816306fdde0314611c9a578163078dfbe714611ba3578163095ea7b314611b7957816318160ddd14611b575781631c9e379b14611b1f5781631da8bf1014611a6557816323b872dd146118de578163313ce567146118a857816334d441d0146118895781633644e5151461186c57816338d52e0f146118435781633ba0b9a9146118245781633f741adb146117fc57816340626d8b146117dd57816344de240a146117be578163473e3ce71461179f57816348e4163e146117675781634d7f2a34146117485781634e71e0c8146116a55781635100b567146116475781635224372c146115ae578163529898f21461158f57816352f353eb14611566578163551402321461153d57816355c2ab941461151457816357935462146114f55781635c975abb146114d15781635dfe04e8146114725781636c3d8b8f1461144957816370a0823114611411578163717186d1146113b357816374645ff3146112f65781637dc0d1d0146112cd5781637ecebe00146112975781637fa0b84e14611266578163821226e8146112475781638285ef40146112145781638c5d0ed3146111f55781638da5cb5b146111cc578163959916dc146111ad57816395d89b41146110f55781639675937214610d0f57816399a9702814610cb75781639c5d719214610c985781639e15e89f14610c60578163a9059cbb14610b85578163b0e21e8a14610b66578163b27c0e7414610b2c578163bb4cfe3b14610b0d578163c23ea21f14610ae4578163cd0211eb14610743578163ce8849ed14610716578163d505accf14610597578163d8dfeb451461056e578163dd62ed3e14610520578163de406577146104f7578163e0996cb6146104d8578163e30c3978146104af578163eec0f42e14610490578163f42760b714610471578163f8974de01461037057508063f8ba4cff14610351578063f9557ccb1461031b5763ffe04c66146102fa57600080fd5b346103175781600319360112610317576020906027549051908152f35b5080fd5b5034610317578160031936011261031757602154905190819061034d90608081901c906001600160801b031683611fb9565b0390f35b823461036d578060031936011261036d5761036a6135a5565b80f35b80fd5b9190503461046d57602036600319011261046d5781359081151580920361046857600d5492600884901c6001600160a01b0316330361042f5760ff84161515908184146103f75750817f9c13c5f6c628c1c82eb2b3fd8714da5c2857dbd0ad8ab6b2074abcf81015d3969160ff949351908152836020820152a1169060ff191617600d5580f35b606490602084519162461bcd60e51b835282015260126024820152714d61726b65743a2073616d6520737461746560701b6044820152fd5b6020606492519162461bcd60e51b8352820152601460248201527313585c9ad95d0e881d5b985d5d1a1bdc9a5e995960621b6044820152fd5b600080fd5b8280fd5b5050346103175781600319360112610317576020906028549051908152f35b505034610317578160031936011261031757602090600a549051908152f35b50503461031757816003193601126103175760065490516001600160a01b039091168152602090f35b505034610317578160031936011261031757602090601a549051908152f35b50503461031757816003193601126103175760075490516001600160a01b039091168152602090f35b50503461031757806003193601126103175760209161053d611dc0565b82610546611dd6565b6001600160a01b03928316845260028652922091166000908152908352819020549051908152f35b50503461031757816003193601126103175760095490516001600160a01b039091168152602090f35b83915034610317576105a836611e43565b908397949796959642116106d35761067e916106769160018060a01b03948c8b8b888c16998a92836000528c60205284600020908154916105e883612a0b565b90558b86519460208601967f6e71edae12b1b97f4d1f60370fef10105fa2faae0126114a169c64845d6126c9885288870152166060850152608084015260a083015260c082015260c0815261063c81611f60565b5190206106476126be565b915190602082019261190160f01b8452602283015260428201526042815261066e81611f7b565b519020612986565b919091612871565b1603610690575061036a939450612a71565b606490602087519162461bcd60e51b8352820152601e60248201527f45524332305065726d69743a20696e76616c6964207369676e617475726500006044820152fd5b895162461bcd60e51b8152602081870152601d60248201527f45524332305065726d69743a206578706972656420646561646c696e650000006044820152606490fd5b505034610317578160031936011261031757600d54905160089190911c6001600160a01b03168152602090f35b9190503461046d57608036600319011261046d5761075f611dc0565b91610768611dd6565b92610771611e34565b936064359161078560ff600d541615612074565b61078f83826130da565b6107976122ca565b50506107a16135a5565b6107a96121dc565b958551976107b689611f2a565b808952602098890181905287890180516001600160801b039182918216610a78578180899c610816946107f38f94610811955b16828451166136a7565b16815281610806818d16828751166136a7565b168094525116613561565b613517565b60018060a01b038095169687835260148b52888320610836888254612108565b90558560075416600c54918c8c60648d5180958193638eb22cdd60e01b835288878401526024830152600160448301525afa918215610a37578592610a45575b508a8d8560215416946024548d895260238352838920908952825282882061089f868254612115565b905588156109b25760448b60075416935180948193627eeac760e11b8352308884015260248301525afa80156109a85784908790610977575b6108e29250612108565b821161094457509161090c8a969492826000805160206138b38339815191529997955b169061318d565b1660018060801b031960215416176021555060001461093f575080600754165b825194888652898601521692a351908152f35b61092c565b8a5162461bcd60e51b81529081018d9052600d60248201526c0a68e987440e8dede40daeac6d609b1b6044820152606490fd5b50508d81813d83116109a1575b61098e8183611f96565b8101031261046857836108e291516108d8565b503d610984565b8c513d88823e3d90fd5b92915050886007541690813b15610a41579186918493838f6109ea8d915197889687958694630208d92960e11b8652309186016136c0565b03925af18015610a3757918b979593916000805160206138b383398151915299979593610a1e575b50908261090c92610905565b61090c929194610a2e8592611f01565b94919250610a12565b8b513d87823e3d90fd5b8680fd5b9091508c81813d8311610a71575b610a5d8183611f96565b81010312610a6d57519038610876565b8480fd5b503d610a53565b90610a89610a93918c5116896120b1565b83835116906120e8565b9987610ab0610aa68d86865116906120b1565b85845116906120e8565b10610acb575b906108118361081693816107f38f82906107e9565b99908280610ad98194612a0b565b9c9293505050610ab6565b50503461031757816003193601126103175760225490516001600160a01b039091168152602090f35b505034610317578160031936011261031757602090601b549051908152f35b5050346103175781600319360112610317576060906020549080519160018060401b03808216845281831c16602084015260801c90820152f35b5050346103175781600319360112610317576020906017549051908152f35b505034610317578060031936011261031757602091610ba2611dc0565b82602435928315801590610c4e575b610be1575b50519182526001600160a01b0316903390600080516020613933833981519152908590a35160018152f35b3381526001865281812054610bf8858210156127e7565b6001600160a01b038416908533839003610c15575b505050610bb6565b610c2991610c2484151561282c565b612108565b3383526001885283832055815220610c42838254612115565b90558238808085610c0d565b50336001600160a01b03841614610bb1565b50503461031757806003193601126103175761034d90610c8a610c81611dc0565b60243590612228565b909391925193849384611fd3565b5050346103175781600319360112610317576020906029549051908152f35b505034610317578060031936011261031757602091610d08906001600160a01b03610ce0611dc0565b168082526015855283610cf8602435828520546124fc565b93909281526014875220546125b8565b9051908152f35b90503461046d5761016036600319011261046d576001600160a01b039060248035838116928035929091849003610a41576001600160401b039160443591908383116110f157366023840112156110f1578201359283116110ed57368184840101116110ed5760643594868616948587036110e957610d9388600554163314611fe9565b806110b2575b5080611074575b5082610f23575b50505080610ecd575b50505060843580610eb5575b5060a43580610e9d575b5060c43580610e86575b5060e43580610e62575b506101043580610e3e575b50610124359081610e15575b50506101443580610e00575080f35b610e0f620186a0821115612034565b601b5580f35b6000805160206138d3833981519152906013548151908152836020820152a16013553880610df1565b610e4c620186a08210612034565b610e596018548211612034565b60195538610de5565b610e70620186a08210612034565b610e7d6019548210612034565b60185538610dda565b610e94620186a08210612034565b601a5538610dd0565b610eac620186a0821115612034565b60175538610dc6565b610ec4620186a0821115612034565b60165538610dbc565b600d54928360081c167f5a62d22209e370e38eea92cfddcd228e656e6ec139243392a760a7769f5877fd8680a3610100600160a81b031990911660089190911b610100600160a81b031617600d55388080610db0565b8291610f30600f54611ec7565b601f811161101b575b508890601f8411600114610f9e578993610f91575b5050508160011b916000199060031b1c191617600f555b7fa6f004921c944d4b8bf6e38462b00f36a58d62495d56b51f571ab78f732c98158580a1388080610da7565b0101359050388080610f4e565b600f8a5260008051602061397383398151915293509190601f1985168a60205b82821061100157505090856001969594939210610fe5575b50505050811b01600f55610f65565b60001960f88660031b161c199201013516905538808080610fd6565b8060018598878395978a0101358155019701930190610fbe565b600f8a5291925090600080516020613973833981519152601f850160051c81016020861061106d575b90601f869594930160051c01905b81811061105f5750610f39565b8a8155859450600101611052565b5080611044565b600e80546001600160a01b0319169190911790557f0b2d6eb667d0522c3eb86e4288afecae6c11591ffd1345d4d12407e0598bca9b8880a138610da0565b6110c1620186a0821115612034565b6000805160206138f383398151915289601c548151908152836020820152a1601c5538610d99565b8980fd5b8780fd5b8880fd5b90503461046d578260031936011261046d5791808061034d9460018060a01b036009541690855160208101916395d89b4160e01b8352815261113681611f2a565b51915afa611142612ede565b91501561119e5761115290613741565b905b61118c60238251809462746d2d60e81b602083015261117c8151809260208686019101611dec565b8101036003810185520183611f96565b51918291602083526020830190611e0f565b506111a76136ea565b90611154565b505034610317578160031936011261031757602090601c549051908152f35b50503461031757816003193601126103175760055490516001600160a01b039091168152602090f35b5050346103175781600319360112610317576020906018549051908152f35b505034610317578160031936011261031757601154905190819061034d90608081901c906001600160801b031683611fb9565b505034610317578160031936011261031757602090602b549051908152f35b505034610317578060031936011261031757602090611290611286611dc0565b6024359033612a1a565b5160018152f35b90503461046d57602036600319011261046d5760209282916001600160a01b036112bf611dc0565b168252845220549051908152f35b505034610317578160031936011261031757600e5490516001600160a01b039091168152602090f35b50503461031757816003193601126103175780519082600f5461131881611ec7565b8085529060019081811690811561138b5750600114611344575b50505061118c8261034d940383611f96565b600f8352602095506000805160206139738339815191525b828410611378575050508261034d9461118c9282010194611332565b805486850188015292860192810161135c565b61034d975061118c9450602092508693915060ff191682840152151560051b82010194611332565b90503461046d57602036600319011261046d576000805160206138d38339815191529035916113e760ff600d541615612074565b6113fc60018060a01b03600554163314611fe9565b6013548151908152836020820152a160135580f35b5050346103175760203660031901126103175760209181906001600160a01b03611439611dc0565b1681526001845220549051908152f35b50503461031757816003193601126103175760085490516001600160a01b039091168152602090f35b50503461031757816003193601126103175760809061148f61316e565b506114986131a6565b509495935050505080519260018060401b03808251168552602082015116602085015281600180871b0391015116908301526060820152f35b50503461031757816003193601126103175760209060ff600d541690519015158152f35b5050346103175781600319360112610317576020906019549051908152f35b505034610317578160031936011261031757602a548151911c6001600160401b03168152602090f35b505034610317578160031936011261031757602a5490516001600160401b039091168152602090f35b505034610317578160031936011261031757602c5490516001600160401b039091168152602090f35b505034610317578160031936011261031757602090601d549051908152f35b9050823461036d57506115fe6115f2916115c736611e92565b906115da60ff600d979497541615612074565b6115e26122ca565b50506115ec6135a5565b85612ac8565b92909360105490612f88565b15611610575082519182526020820152f35b606490602085519162461bcd60e51b8352820152601160248201527013585c9ad95d0e881a5b9cdbdb1d995b9d607a1b6044820152fd5b90503461046d57602036600319011261046d576000805160206138f383398151915290359161168160018060a01b03600554163314611fe9565b611690620186a0841115612034565b601c548151908152836020820152a1601c5580f35b9190503461046d578260031936011261046d576006546001600160a01b03929091838316919033839003611705575050806005549384166000805160206139138339815191528680a36001600160a01b0319928316176005551660065580f35b906020606492519162461bcd60e51b8352820152602060248201527f4f776e61626c653a2063616c6c657220213d2070656e64696e67206f776e65726044820152fd5b5050346103175781600319360112610317576020906026549051908152f35b5050346103175760203660031901126103175760209181906001600160a01b0361178f611dc0565b1681526014845220549051908152f35b5050346103175781600319360112610317576020906012549051908152f35b505034610317578160031936011261031757602090600c549051908152f35b5050346103175781600319360112610317576020906013549051908152f35b82843461036d57606036600319011261036d5750610d08602092604435906024359035612122565b5050346103175781600319360112610317576020906010549051908152f35b505034610317578160031936011261031757600b5490516001600160a01b039091168152602090f35b505034610317578160031936011261031757602090610d086126be565b5050346103175781600319360112610317576020906016549051908152f35b505034610317578160031936011261031757600b546020919060ff906118d6906001600160a01b0316612f0e565b915191168152f35b82843461036d576118ee36611e92565b919282611928575b508351918252602094506001600160a01b03908116921690600080516020613933833981519152908590a35160018152f35b6001600160a01b038481168083526001602090815287842054919892909190611953878310156127e7565b851692838a03611967575b505050506118f6565b8985526002835288852033865283528885205490600182016119d1575b5050928260209960018a946119b08a8e99610c246000805160206139338339815191529c9a151561282c565b92855252838320558152206119c6858254612115565b90559187808061195e565b878210611a2757509260209960018a946119b08a8e9996611a02826000805160206139338339815191529d9b612108565b86895260028552898920338a5285528989205596995050509450509981949650611984565b895162461bcd60e51b8152908101849052601860248201527745524332303a20616c6c6f77616e636520746f6f206c6f7760401b6044820152606490fd5b8391503461031757611a7636611e43565b928097949796959692919242116106d35788938693611b0d938c888b610676968e8460018060a01b03809c169c8d958682526020522090815491611ab983612a0b565b90558b86519460208601967fe9685ff6d48c617fe4f692c50e602cce27cbad0290beb93cfa77eac43968d58c885288870152166060850152608084015260a083015260c082015260c0815261063c81611f60565b1603610690575061036a939450612a1a565b5050346103175760203660031901126103175760209181906001600160a01b03611b47611dc0565b1681526015845220549051908152f35b50503461031757816003193601126103175760209060215460801c9051908152f35b505034610317578060031936011261031757602090611290611b99611dc0565b6024359033612a71565b9190503461046d57606036600319011261046d57611bbf611dc0565b91602435918215158303610a6d57611bd5611e34565b9260018060a01b03948591611bef83600554163314611fe9565b15611c81571692831590811591611c79575b5015611c3e575050806005549283166000805160206139138339815191528580a36001600160a01b03199182161760055560068054909116905580f35b906020606492519162461bcd60e51b835282015260156024820152744f776e61626c653a207a65726f206164647265737360581b6044820152fd5b905038611c01565b93505050501660018060a01b0319600654161760065580f35b90503461046d578260031936011261046d5791808061034d9460018060a01b036009541690855160208101916306fdde0360e01b83528152611cdb81611f2a565b51915afa611ce7612ede565b915015611d4257611cf790613741565b905b61118c60348251809473546170696f63612053696e67756c61726974792d60601b6020830152611d328151809260208686019101611dec565b8101036014810185520183611f96565b50611d4b6136ea565b90611cf9565b82843461036d578060031936011261036d5750611d6c6122ca565b825191151582526020820152f35b8490843461046d578060031936011261046d57602092611d98611dc0565b611da0611dd6565b6001600160a01b0391821683526003865283832091168252845220548152f35b600435906001600160a01b038216820361046857565b602435906001600160a01b038216820361046857565b60005b838110611dff5750506000910152565b8181015183820152602001611def565b90602091611e2881518092818552858086019101611dec565b601f01601f1916010190565b60443590811515820361046857565b60e0906003190112610468576001600160a01b03906004358281168103610468579160243590811681036104685790604435906064359060843560ff81168103610468579060a4359060c43590565b6060906003190112610468576001600160a01b0390600435828116810361046857916024359081168103610468579060443590565b90600182811c92168015611ef7575b6020831014611ee157565b634e487b7160e01b600052602260045260246000fd5b91607f1691611ed6565b6001600160401b038111611f1457604052565b634e487b7160e01b600052604160045260246000fd5b604081019081106001600160401b03821117611f1457604052565b606081019081106001600160401b03821117611f1457604052565b60e081019081106001600160401b03821117611f1457604052565b608081019081106001600160401b03821117611f1457604052565b601f909101601f19168101906001600160401b03821190821017611f1457604052565b6001600160801b0391821681529116602082015260400190565b6040919493926060820195825260208201520152565b15611ff057565b606460405162461bcd60e51b815260206004820152602060248201527f4f776e61626c653a2063616c6c6572206973206e6f7420746865206f776e65726044820152fd5b1561203b57565b60405162461bcd60e51b815260206004820152601160248201527013585c9ad95d0e881b9bdd081d985b1a59607a1b6044820152606490fd5b1561207b57565b60405162461bcd60e51b815260206004820152600e60248201526d13585c9ad95d0e881c185d5cd95960921b6044820152606490fd5b818102929181159184041417156120c457565b634e487b7160e01b600052601160045260246000fd5b604d81116120c457600a0a90565b81156120f2570490565b634e487b7160e01b600052601260045260246000fd5b919082039182116120c457565b919082018092116120c457565b919091612144612135601b5480956120b1565b61213e846120da565b906120e8565b908181106121d3576121949161215991612108565b9261218e612185612169856120da565b9261217f612176876120da565b601d5490612115565b906120b1565b61213e856120da565b90612108565b9060120390601282116120c45761217f6121ad926120da565b670de0b6b3a7640000918281029281840414901517156120c4576121d0916120e8565b90565b50505050600090565b604051906121e982611f2a565b6011546001600160801b038116835260801c6020830152565b6040519061220f82611f2a565b6021546001600160801b038116835260801c6020830152565b6001600160a01b0381166000818152601460205260408120549194939290919081156122be5791604091612292859461226c6122b2976122666121dc565b9261242c565b815190936001600160801b0391602091612288918416906120b1565b92015116906120e8565b908082106122b6576122a391612108565b958152601560205220546124fc565b9091565b5050806122a3565b50509192505080918190565b60018060a01b03600e54169060409081519263d6d7d52560e01b8452602060048501528284604481600080958160248401525af19081156123d55780948192612390575b5050918360001461238857821561234e5760207f9f9192b5edb17356c524e08d9e025c8e2f6307e6ea52fb7968faa3081f51c3c8918460105551848152a1565b5162461bcd60e51b81526020600482015260146024820152734d61726b65743a20696e76616c6964207261746560601b6044820152606490fd5b506010549150565b84809296508193503d83116123ce575b6123aa8183611f96565b810103126123ca57805193841515850361036d575060200151388061230e565b8380fd5b503d6123a0565b8351903d90823e3d90fd5b156123e757565b60405162461bcd60e51b815260206004820152601e60248201527f4d61726b65743a2065786368616e676552617465206e6f742076616c696400006044820152606490fd5b91906124398115156123e0565b60018060a01b036020816007541691600a549060009616865260158252606461247a6124716040892054620186a0601e5404906120b1565b601b54906120b1565b91604051948593849263442c159960e01b8452600484015260248301528860448301525afa9081156124f15784916124b9575b506121d09293506120e8565b90506020813d82116124e9575b816124d360209383611f96565b810103126123ca576121d09293505183926124ad565b3d91506124c6565b6040513d86823e3d90fd5b6125078215156123e0565b602060018060a01b0360075416916064600a54604051948593849263442c159960e01b845260048401526024830152600060448301525afa9081156125ac57600091612579575b509061256061256592601e54906120b1565b6120e8565b620186a0612575601b54836120b1565b0491565b906020823d82116125a4575b8161259260209383611f96565b8101031261036d57505161256061254e565b3d9150612585565b6040513d6000823e3d90fd5b80156126b65781156126b6578181106126b657828110156126ad57816125dd91612108565b620186a092838202918083048514901517156120c4576126009261213e91612108565b601854916019549283810390600093848612828412811690838513901516176126995782810292858112600160ff1b831416612685578305149085141715612671570581838201938412911290801582169115161761265d575090565b634e487b7160e01b81526011600452602490fd5b634e487b7160e01b83526011600452602483fd5b634e487b7160e01b86526011600452602486fd5b634e487b7160e01b85526011600452602485fd5b50505060185490565b505050600090565b307f00000000000000000000000000000000000000000000000000000000000000006001600160a01b031614806127be575b15612719577f000000000000000000000000000000000000000000000000000000000000000090565b60405160208101907f000000000000000000000000000000000000000000000000000000000000000082527f000000000000000000000000000000000000000000000000000000000000000060408201527f000000000000000000000000000000000000000000000000000000000000000060608201524660808201523060a082015260a0815260c0810181811060018060401b03821117611f145760405251902090565b507f000000000000000000000000000000000000000000000000000000000000000046146126f0565b156127ee57565b60405162461bcd60e51b815260206004820152601660248201527545524332303a2062616c616e636520746f6f206c6f7760501b6044820152606490fd5b1561283357565b60405162461bcd60e51b815260206004820152601660248201527545524332303a206e6f207a65726f206164647265737360501b6044820152606490fd5b600581101561297057806128825750565b600181036128ca5760405162461bcd60e51b815260206004820152601860248201527745434453413a20696e76616c6964207369676e617475726560401b6044820152606490fd5b600281036129175760405162461bcd60e51b815260206004820152601f60248201527f45434453413a20696e76616c6964207369676e6174757265206c656e677468006044820152606490fd5b60031461292057565b60405162461bcd60e51b815260206004820152602260248201527f45434453413a20696e76616c6964207369676e6174757265202773272076616c604482015261756560f01b6064820152608490fd5b634e487b7160e01b600052602160045260246000fd5b9291906fa2a8918ca85bafe22016d0b997e4df60600160ff1b0383116129ff5791608094939160ff602094604051948552168484015260408301526060820152600093849182805260015afa156129f25781516001600160a01b038116156129ec579190565b50600190565b50604051903d90823e3d90fd5b50505050600090600390565b60001981146120c45760010190565b909160207fe50de2333c10a9502fcb1d8ae13a51bbf423153dfc63c2b8997665b32154afc39160018060a01b03809416938460005260038352604060002095169485600052825280604060002055604051908152a3565b909160207f8c5be1e5ebec7d5bd14f71427d1e84f3dd0314c0f7b2291e5b200ac8c7c3b9259160018060a01b03809416938460005260028352604060002095169485600052825280604060002055604051908152a3565b91908115612eb857612afc9260105491612b0260018060a01b039360ff612af286600b5416612f0e565b169687918561242c565b86613097565b92808316612b38600094828652612b3260209960158b5261213e612b2c60409a8b8b2054906120b1565b916120da565b906130da565b620186a0612b48601c54886120b1565b0496612b526121dc565b97612b5d8189612115565b9286838951612b6b81611f2a565b828152015289516001600160801b0394908516612e495799612bb6908b9061081190879081612ba081865b168284511661318d565b16815281610806818a840196168287511661318d565b6013548015908115612e39575b5015612dfb57808991885260148452888820612be08c8254612115565b90557f3a5151e57d3bc9798e7853034ac52293d1a0e12a2b44725e75b03b21f86477a6612c178c8b51918291878b8d169784611fd3565b0390a380612d6f575b50808360075416976064600c5489519a8b938492638eb22cdd60e01b8452600484015260248301528960448301525afa968715612d65578597612d36575b50612c67612202565b818101916103e88484511610612d02575090612c9a839283612c91612ca1968c16828451166136a7565b16809152613583565b511661353c565b6007541690600c5490823b156123ca578392839286958893612cd9985198899586948593630208d92960e11b855230600486016136c0565b03925af1918215612cf8575050612cef57509091565b6122b290611f01565b51903d90823e3d90fd5b60649088519062461bcd60e51b82526004820152600e60248201526d14d1d30e881b5a5b881b1a5b5a5d60921b6044820152fd5b9080975081813d8311612d5e575b612d4e8183611f96565b81010312610a6d57519538612c5e565b503d612d44565b86513d87823e3d90fd5b6004828560085416895192838092622fcfcb60e31b82525afa908115612df1579085918891612db7575b5016865260018252612daf878720918254612115565b905538612c20565b809250848092503d8311612dea575b612dd08183611f96565b81010312610a4157518481168103610a4157849038612d99565b503d612dc6565b88513d89823e3d90fd5b875162461bcd60e51b815260048101849052601760248201527614d1d30e88189bdc9c9bddc818d85c081c995858da1959604a1b6044820152606490fd5b905060115460801c111538612bc3565b998a859b85830187815116612e5e90836120b1565b88855116612e6b916120e8565b9d8e81865116612e7a916120b1565b915116612e86916120e8565b10612ea1575b61081186612bb693818f9481612ba091612b96565b8580612eae81949e612a0b565b9d93505050612e8c565b505050600090600090565b6001600160401b038111611f1457601f01601f191660200190565b3d15612f09573d90612eef82612ec3565b91612efd6040519384611f96565b82523d6000602084013e565b606090565b60405163313ce56760e01b602082019081526004825290612f2e81611f2a565b5160009283928392916001600160a01b03165afa612f4a612ede565b9080612f7d575b15612f765760208180518101031261031757602001519060ff8216820361036d575090565b5050601290565b506020815114612f51565b91909160018060a01b0380600092168252602060148152604083205490811561308d5760158152604084205480156130845781612fc36121dc565b9460075416916064612fe3612471600a5493620186a0601e5404906120b1565b91604051948593849263442c159960e01b8452600484015260248301528960448301525afa948515613078578095613040575b505061228861303b94959661303660018060801b039485875116906120b1565b6120b1565b111590565b909694508187813d8311613071575b6130598183611f96565b8101031261036d57509451929461228861303b613016565b503d61304f565b604051903d90823e3d90fd5b50929450505050565b5060019450505050565b91821580156130d2575b6126b657600181018091116120c4576130c09261217f612560926120da565b600581018091116120c457600a900490565b5081156130a1565b6001600160a01b03163381036130ee575050565b60009080825260036020526040822033835260205282604083205410613132578160409161312e9352600360205281812033825260205220918254612108565b9055565b60405162461bcd60e51b815260206004820152601460248201527313585c9ad95d0e881b9bdd08185c1c1c9bdd995960621b6044820152606490fd5b6040519061317b82611f45565b60006040838281528260208201520152565b6001600160801b0391821690821601919082116120c457565b6131ae61316e565b50604051906131bc82611f2a565b6000908183528160208094015281836040516131d781611f2a565b8281520152604051916131e983611f45565b83549060018060401b0391828116855285850190838160401c16825260801c6040860152846132166121dc565b9461321f612202565b600754600c54825160405163442c159960e01b815260048101929092526001600160801b039081166024830152604482018890529297929694918591908c90829060649082906001600160a01b03165afa801561350c5782906134dd575b61328c9150888b511690612115565b806134b057815b6132a1858299511642612108565b9384156134875750508342168c8c0152878c8b0151161561344b578a9b8491898c81819f819e9f828a915116670de0b6b3a764000098899351166132e4916120b1565b906132ee916120b1565b049d8e16915116906132ff9161318d565b168d5260175461330f908c6120b1565b620186a09004918c01918a835116613326916120b1565b90613330916120e8565b988d818b1690604001828281835116906133499161318d565b169052818351169061335a9161318d565b16905260275491828810156133d2576133738884612108565b82810292818404149015171561265d57506125608493846133b38f9461339f6133bb976133ad926120e8565b93613036602b5495806120b1565b83612115565b9351166120b1565b1690818a52602a54168091106133ce5750565b8852565b9091506028548088116133e7575b5050505050565b6133f19088612108565b82810292818404149015171561265d57509061256061341c6133ad61339f61342595602954906120e8565b848d51166120b1565b81602a5460401c16808211613443575b5016885238808080806133e0565b905038613435565b509650509196829196985080939450511690602c541680910361347b575b509493613474612202565b9383929190565b81526001945038613469565b99509a50509750505096505050509261349e6121dc565b926134a7612202565b92809281929190565b878a5116670de0b6b3a76400009081810291818304149015171561267157816134d8916120e8565b613293565b508b81813d8311613505575b6134f38183611f96565b810103126103175761328c905161327d565b503d6134e9565b6040513d84823e3d90fd5b601180546001600160801b031660809290921b6001600160801b031916919091179055565b602180546001600160801b031660809290921b6001600160801b031916919091179055565b601180546001600160801b0319166001600160801b0392909216919091179055565b602180546001600160801b0319166001600160801b0392909216919091179055565b61366d6020806136596135b66131a6565b939695939092901561366f57505050600080516020613953833981519152608060018060401b03602c54166040519060008252600089830152604082015260006060820152a15b805185820151604092830151921b600160401b600160801b03166001600160401b03919091161760809190911b6001600160801b03191617845580516001600160801b039586929091613651908416613561565b015116613517565b61366583825116613583565b01511661353c565b565b6000805160206139538339815191529260809260018060401b03865116906040519384528a84015260408301526060820152a16135fd565b6001600160801b0391821690821603919082116120c457565b6001600160a01b039182168152911660208201526040810191909152606081019190915260800190565b604051906136f782611f2a565b60038252623f3f3f60e81b6020830152565b90815181101561371a570160200190565b634e487b7160e01b600052603260045260246000fd5b60ff1660ff81146120c45760010190565b8051604081106137b957508051810190602081818401930312610468576020810151906001600160401b038211610468570181603f8201121561046857602081015161378c81612ec3565b9261379a6040519485611f96565b81845260408284010111610468576121d0916040602085019101611dec565b6020929083036138a7576000805b60ff81168581109081613888575b50156137e9576137e490613730565b6137c7565b9260ff809416926137f984612ec3565b936138076040519586611f96565b808552613816601f1991612ec3565b013687860137825b8581168781108061386b575b156138605761385b91906138556001600160f81b031961384a8388613709565b5116871a9188613709565b53613730565b61381e565b505094505050905090565b506001600160f81b031961387f8286613709565b5116151561382a565b6001600160f81b0319915061389d9086613709565b51161515386137d5565b9150506121d06136ea56fec8e512d8f188ca059984b5853d2bf653da902696b8512785b182b2c813789a6eae6e0ab3b95f0a53ff9660a390ccedcbbf1f2355dce974a9841af106fddcfabac353b09af857951dccce61b43a5854fc45beceed36c50e5d4cc2e71858a8e0df8be0079c531659141344cd1fd0a4f28419497f9722a3daafe3b4186f6b6457e0ddf252ad1be2c89b69c2b068fc378daa952ba7f163c4a11628f55a4df523b3ef33af5ce86e8438eff54589f85332916444457dfa8685493fbd579b809097026b8d1108e10bcb7c27dddfc02ed9d693a074039d026cf4ea4240b40f7d581ac802a2646970667358221220ef8306b91c239bc95a25e02f45784be471af6bfcd22199525a1cef8916bf03df64736f6c63430008120033",
  "linkReferences": {},
  "deployedLinkReferences": {}
}