{
  "_format": "hh-sol-artifact-1",
  "contractName": "SGLCollateral",
  "sourceName": "contracts/markets/singularity/SGLCollateral.sol",
  "abi": [
    {
      "inputs": [
        {
          "internalType": "address",
          "name": "_from",
          "type": "address"
        },
        {
          "internalType": "address",
          "name": "_operator",
          "type": "address"
        }
      ],
      "name": "NotApproved",
      "type": "error"
    },
    {
      "anonymous": false,
      "inputs": [
        {
          "indexed": true,
          "internalType": "address",
          "name": "owner",
          "type": "address"
        },
        {
          "indexed": true,
          "internalType": "address",
          "name": "spender",
          "type": "address"
        },
        {
          "indexed": false,
          "internalType": "uint256",
          "name": "value",
          "type": "uint256"
        }
      ],
      "name": "Approval",
      "type": "event"
    },
    {
      "anonymous": false,
      "inputs": [
        {
          "indexed": true,
          "internalType": "address",
          "name": "owner",
          "type": "address"
        },
        {
          "indexed": true,
          "internalType": "address",
          "name": "spender",
          "type": "address"
        },
        {
          "indexed": false,
          "internalType": "uint256",
          "name": "value",
          "type": "uint256"
        }
      ],
      "name": "ApprovalBorrow",
      "type": "event"
    },
    {
      "anonymous": false,
      "inputs": [
        {
          "indexed": true,
          "internalType": "address",
          "name": "old",
          "type": "address"
        },
        {
          "indexed": true,
          "internalType": "address",
          "name": "_new",
          "type": "address"
        }
      ],
      "name": "ConservatorUpdated",
      "type": "event"
    },
    {
      "anonymous": false,
      "inputs": [
        {
          "indexed": false,
          "internalType": "address",
          "name": "liquidator",
          "type": "address"
        },
        {
          "indexed": false,
          "internalType": "address[]",
          "name": "users",
          "type": "address[]"
        },
        {
          "indexed": false,
          "internalType": "uint256",
          "name": "liquidatorReward",
          "type": "uint256"
        },
        {
          "indexed": false,
          "internalType": "uint256",
          "name": "protocolReward",
          "type": "uint256"
        },
        {
          "indexed": false,
          "internalType": "uint256",
          "name": "repayedAmount",
          "type": "uint256"
        },
        {
          "indexed": false,
          "internalType": "uint256",
          "name": "collateralShareRemoved",
          "type": "uint256"
        }
      ],
      "name": "Liquidated",
      "type": "event"
    },
    {
      "anonymous": false,
      "inputs": [
        {
          "indexed": false,
          "internalType": "uint256",
          "name": "accruedAmount",
          "type": "uint256"
        },
        {
          "indexed": false,
          "internalType": "uint256",
          "name": "feeFraction",
          "type": "uint256"
        },
        {
          "indexed": false,
          "internalType": "uint64",
          "name": "rate",
          "type": "uint64"
        },
        {
          "indexed": false,
          "internalType": "uint256",
          "name": "utilization",
          "type": "uint256"
        }
      ],
      "name": "LogAccrue",
      "type": "event"
    },
    {
      "anonymous": false,
      "inputs": [
        {
          "indexed": true,
          "internalType": "address",
          "name": "from",
          "type": "address"
        },
        {
          "indexed": true,
          "internalType": "address",
          "name": "to",
          "type": "address"
        },
        {
          "indexed": false,
          "internalType": "uint256",
          "name": "share",
          "type": "uint256"
        },
        {
          "indexed": false,
          "internalType": "uint256",
          "name": "fraction",
          "type": "uint256"
        }
      ],
      "name": "LogAddAsset",
      "type": "event"
    },
    {
      "anonymous": false,
      "inputs": [
        {
          "indexed": true,
          "internalType": "address",
          "name": "from",
          "type": "address"
        },
        {
          "indexed": true,
          "internalType": "address",
          "name": "to",
          "type": "address"
        },
        {
          "indexed": false,
          "internalType": "uint256",
          "name": "share",
          "type": "uint256"
        }
      ],
      "name": "LogAddCollateral",
      "type": "event"
    },
    {
      "anonymous": false,
      "inputs": [
        {
          "indexed": true,
          "internalType": "address",
          "name": "from",
          "type": "address"
        },
        {
          "indexed": true,
          "internalType": "address",
          "name": "to",
          "type": "address"
        },
        {
          "indexed": false,
          "internalType": "uint256",
          "name": "amount",
          "type": "uint256"
        },
        {
          "indexed": false,
          "internalType": "uint256",
          "name": "feeAmount",
          "type": "uint256"
        },
        {
          "indexed": false,
          "internalType": "uint256",
          "name": "part",
          "type": "uint256"
        }
      ],
      "name": "LogBorrow",
      "type": "event"
    },
    {
      "anonymous": false,
      "inputs": [
        {
          "indexed": false,
          "internalType": "uint256",
          "name": "_oldVal",
          "type": "uint256"
        },
        {
          "indexed": false,
          "internalType": "uint256",
          "name": "_newVal",
          "type": "uint256"
        }
      ],
      "name": "LogBorrowCapUpdated",
      "type": "event"
    },
    {
      "anonymous": false,
      "inputs": [
        {
          "indexed": false,
          "internalType": "uint256",
          "name": "rate",
          "type": "uint256"
        }
      ],
      "name": "LogExchangeRate",
      "type": "event"
    },
    {
      "anonymous": false,
      "inputs": [
        {
          "indexed": true,
          "internalType": "address",
          "name": "from",
          "type": "address"
        },
        {
          "indexed": true,
          "internalType": "address",
          "name": "to",
          "type": "address"
        },
        {
          "indexed": false,
          "internalType": "uint256",
          "name": "share",
          "type": "uint256"
        },
        {
          "indexed": false,
          "internalType": "uint256",
          "name": "fraction",
          "type": "uint256"
        }
      ],
      "name": "LogRemoveAsset",
      "type": "event"
    },
    {
      "anonymous": false,
      "inputs": [
        {
          "indexed": true,
          "internalType": "address",
          "name": "from",
          "type": "address"
        },
        {
          "indexed": true,
          "internalType": "address",
          "name": "to",
          "type": "address"
        },
        {
          "indexed": false,
          "internalType": "uint256",
          "name": "share",
          "type": "uint256"
        }
      ],
      "name": "LogRemoveCollateral",
      "type": "event"
    },
    {
      "anonymous": false,
      "inputs": [
        {
          "indexed": true,
          "internalType": "address",
          "name": "from",
          "type": "address"
        },
        {
          "indexed": true,
          "internalType": "address",
          "name": "to",
          "type": "address"
        },
        {
          "indexed": false,
          "internalType": "uint256",
          "name": "amount",
          "type": "uint256"
        },
        {
          "indexed": false,
          "internalType": "uint256",
          "name": "part",
          "type": "uint256"
        }
      ],
      "name": "LogRepay",
      "type": "event"
    },
    {
      "anonymous": false,
      "inputs": [
        {
          "indexed": true,
          "internalType": "address",
          "name": "feeTo",
          "type": "address"
        },
        {
          "indexed": false,
          "internalType": "uint256",
          "name": "feesEarnedFraction",
          "type": "uint256"
        }
      ],
      "name": "LogWithdrawFees",
      "type": "event"
    },
    {
      "anonymous": false,
      "inputs": [
        {
          "indexed": false,
          "internalType": "uint256",
          "name": "feeShares",
          "type": "uint256"
        },
        {
          "indexed": false,
          "internalType": "uint256",
          "name": "ethAmount",
          "type": "uint256"
        }
      ],
      "name": "LogYieldBoxFeesDeposit",
      "type": "event"
    },
    {
      "anonymous": false,
      "inputs": [],
      "name": "OracleDataUpdated",
      "type": "event"
    },
    {
      "anonymous": false,
      "inputs": [
        {
          "indexed": true,
          "internalType": "address",
          "name": "previousOwner",
          "type": "address"
        },
        {
          "indexed": true,
          "internalType": "address",
          "name": "newOwner",
          "type": "address"
        }
      ],
      "name": "OwnershipTransferred",
      "type": "event"
    },
    {
      "anonymous": false,
      "inputs": [
        {
          "indexed": false,
          "internalType": "bool",
          "name": "oldState",
          "type": "bool"
        },
        {
          "indexed": false,
          "internalType": "bool",
          "name": "newState",
          "type": "bool"
        }
      ],
      "name": "PausedUpdated",
      "type": "event"
    },
    {
      "anonymous": false,
      "inputs": [
        {
          "indexed": true,
          "internalType": "address",
          "name": "from",
          "type": "address"
        },
        {
          "indexed": true,
          "internalType": "address",
          "name": "to",
          "type": "address"
        },
        {
          "indexed": false,
          "internalType": "uint256",
          "name": "value",
          "type": "uint256"
        }
      ],
      "name": "Transfer",
      "type": "event"
    },
    {
      "inputs": [],
      "name": "DOMAIN_SEPARATOR",
      "outputs": [
        {
          "internalType": "bytes32",
          "name": "",
          "type": "bytes32"
        }
      ],
      "stateMutability": "view",
      "type": "function"
    },
    {
      "inputs": [],
      "name": "accrue",
      "outputs": [],
      "stateMutability": "nonpayable",
      "type": "function"
    },
    {
      "inputs": [],
      "name": "accrueInfo",
      "outputs": [
        {
          "internalType": "uint64",
          "name": "interestPerSecond",
          "type": "uint64"
        },
        {
          "internalType": "uint64",
          "name": "lastAccrued",
          "type": "uint64"
        },
        {
          "internalType": "uint128",
          "name": "feesEarnedFraction",
          "type": "uint128"
        }
      ],
      "stateMutability": "view",
      "type": "function"
    },
    {
      "inputs": [
        {
          "internalType": "address",
          "name": "from",
          "type": "address"
        },
        {
          "internalType": "address",
          "name": "to",
          "type": "address"
        },
        {
          "internalType": "bool",
          "name": "skim",
          "type": "bool"
        },
        {
          "internalType": "uint256",
          "name": "amount",
          "type": "uint256"
        },
        {
          "internalType": "uint256",
          "name": "share",
          "type": "uint256"
        }
      ],
      "name": "addCollateral",
      "outputs": [],
      "stateMutability": "nonpayable",
      "type": "function"
    },
    {
      "inputs": [
        {
          "internalType": "address",
          "name": "",
          "type": "address"
        },
        {
          "internalType": "address",
          "name": "",
          "type": "address"
        }
      ],
      "name": "allowance",
      "outputs": [
        {
          "internalType": "uint256",
          "name": "",
          "type": "uint256"
        }
      ],
      "stateMutability": "view",
      "type": "function"
    },
    {
      "inputs": [
        {
          "internalType": "address",
          "name": "",
          "type": "address"
        },
        {
          "internalType": "address",
          "name": "",
          "type": "address"
        }
      ],
      "name": "allowanceBorrow",
      "outputs": [
        {
          "internalType": "uint256",
          "name": "",
          "type": "uint256"
        }
      ],
      "stateMutability": "view",
      "type": "function"
    },
    {
      "inputs": [
        {
          "internalType": "address",
          "name": "spender",
          "type": "address"
        },
        {
          "internalType": "uint256",
          "name": "amount",
          "type": "uint256"
        }
      ],
      "name": "approve",
      "outputs": [
        {
          "internalType": "bool",
          "name": "",
          "type": "bool"
        }
      ],
      "stateMutability": "nonpayable",
      "type": "function"
    },
    {
      "inputs": [
        {
          "internalType": "address",
          "name": "spender",
          "type": "address"
        },
        {
          "internalType": "uint256",
          "name": "amount",
          "type": "uint256"
        }
      ],
      "name": "approveBorrow",
      "outputs": [
        {
          "internalType": "bool",
          "name": "",
          "type": "bool"
        }
      ],
      "stateMutability": "nonpayable",
      "type": "function"
    },
    {
      "inputs": [],
      "name": "asset",
      "outputs": [
        {
          "internalType": "contract IERC20",
          "name": "",
          "type": "address"
        }
      ],
      "stateMutability": "view",
      "type": "function"
    },
    {
      "inputs": [],
      "name": "assetId",
      "outputs": [
        {
          "internalType": "uint256",
          "name": "",
          "type": "uint256"
        }
      ],
      "stateMutability": "view",
      "type": "function"
    },
    {
      "inputs": [
        {
          "internalType": "address",
          "name": "",
          "type": "address"
        }
      ],
      "name": "balanceOf",
      "outputs": [
        {
          "internalType": "uint256",
          "name": "",
          "type": "uint256"
        }
      ],
      "stateMutability": "view",
      "type": "function"
    },
    {
      "inputs": [],
      "name": "borrowOpeningFee",
      "outputs": [
        {
          "internalType": "uint256",
          "name": "",
          "type": "uint256"
        }
      ],
      "stateMutability": "view",
      "type": "function"
    },
    {
      "inputs": [],
      "name": "callerFee",
      "outputs": [
        {
          "internalType": "uint256",
          "name": "",
          "type": "uint256"
        }
      ],
      "stateMutability": "view",
      "type": "function"
    },
    {
      "inputs": [],
      "name": "claimOwnership",
      "outputs": [],
      "stateMutability": "nonpayable",
      "type": "function"
    },
    {
      "inputs": [],
      "name": "collateral",
      "outputs": [
        {
          "internalType": "contract IERC20",
          "name": "",
          "type": "address"
        }
      ],
      "stateMutability": "view",
      "type": "function"
    },
    {
      "inputs": [],
      "name": "collateralId",
      "outputs": [
        {
          "internalType": "uint256",
          "name": "",
          "type": "uint256"
        }
      ],
      "stateMutability": "view",
      "type": "function"
    },
    {
      "inputs": [],
      "name": "collateralizationRate",
      "outputs": [
        {
          "internalType": "uint256",
          "name": "",
          "type": "uint256"
        }
      ],
      "stateMutability": "view",
      "type": "function"
    },
    {
      "inputs": [
        {
          "internalType": "address",
          "name": "user",
          "type": "address"
        },
        {
          "internalType": "uint256",
          "name": "_exchangeRate",
          "type": "uint256"
        }
      ],
      "name": "computeClosingFactor",
      "outputs": [
        {
          "internalType": "uint256",
          "name": "",
          "type": "uint256"
        }
      ],
      "stateMutability": "view",
      "type": "function"
    },
    {
      "inputs": [
        {
          "internalType": "address",
          "name": "user",
          "type": "address"
        },
        {
          "internalType": "uint256",
          "name": "_exchangeRate",
          "type": "uint256"
        }
      ],
      "name": "computeLiquidatorReward",
      "outputs": [
        {
          "internalType": "uint256",
          "name": "",
          "type": "uint256"
        }
      ],
      "stateMutability": "view",
      "type": "function"
    },
    {
      "inputs": [
        {
          "internalType": "address",
          "name": "user",
          "type": "address"
        },
        {
          "internalType": "uint256",
          "name": "_exchangeRate",
          "type": "uint256"
        }
      ],
      "name": "computeTVLInfo",
      "outputs": [
        {
          "internalType": "uint256",
          "name": "amountToSolvency",
          "type": "uint256"
        },
        {
          "internalType": "uint256",
          "name": "minTVL",
          "type": "uint256"
        },
        {
          "internalType": "uint256",
          "name": "maxTVL",
          "type": "uint256"
        }
      ],
      "stateMutability": "view",
      "type": "function"
    },
    {
      "inputs": [],
      "name": "conservator",
      "outputs": [
        {
          "internalType": "address",
          "name": "",
          "type": "address"
        }
      ],
      "stateMutability": "view",
      "type": "function"
    },
    {
      "inputs": [],
      "name": "decimals",
      "outputs": [
        {
          "internalType": "uint8",
          "name": "",
          "type": "uint8"
        }
      ],
      "stateMutability": "view",
      "type": "function"
    },
    {
      "inputs": [],
      "name": "exchangeRate",
      "outputs": [
        {
          "internalType": "uint256",
          "name": "",
          "type": "uint256"
        }
      ],
      "stateMutability": "view",
      "type": "function"
    },
    {
      "inputs": [],
      "name": "liquidationBonusAmount",
      "outputs": [
        {
          "internalType": "uint256",
          "name": "",
          "type": "uint256"
        }
      ],
      "stateMutability": "view",
      "type": "function"
    },
    {
      "inputs": [],
      "name": "liquidationMultiplier",
      "outputs": [
        {
          "internalType": "uint256",
          "name": "",
          "type": "uint256"
        }
      ],
      "stateMutability": "view",
      "type": "function"
    },
    {
      "inputs": [],
      "name": "liquidationQueue",
      "outputs": [
        {
          "internalType": "contract ILiquidationQueue",
          "name": "",
          "type": "address"
        }
      ],
      "stateMutability": "view",
      "type": "function"
    },
    {
      "inputs": [],
      "name": "lqCollateralizationRate",
      "outputs": [
        {
          "internalType": "uint256",
          "name": "",
          "type": "uint256"
        }
      ],
      "stateMutability": "view",
      "type": "function"
    },
    {
      "inputs": [],
      "name": "maxLiquidatorReward",
      "outputs": [
        {
          "internalType": "uint256",
          "name": "",
          "type": "uint256"
        }
      ],
      "stateMutability": "view",
      "type": "function"
    },
    {
      "inputs": [],
      "name": "minLiquidatorReward",
      "outputs": [
        {
          "internalType": "uint256",
          "name": "",
          "type": "uint256"
        }
      ],
      "stateMutability": "view",
      "type": "function"
    },
    {
      "inputs": [],
      "name": "name",
      "outputs": [
        {
          "internalType": "string",
          "name": "",
          "type": "string"
        }
      ],
      "stateMutability": "view",
      "type": "function"
    },
    {
      "inputs": [
        {
          "internalType": "address",
          "name": "owner",
          "type": "address"
        }
      ],
      "name": "nonces",
      "outputs": [
        {
          "internalType": "uint256",
          "name": "",
          "type": "uint256"
        }
      ],
      "stateMutability": "view",
      "type": "function"
    },
    {
      "inputs": [],
      "name": "oracle",
      "outputs": [
        {
          "internalType": "contract IOracle",
          "name": "",
          "type": "address"
        }
      ],
      "stateMutability": "view",
      "type": "function"
    },
    {
      "inputs": [],
      "name": "oracleData",
      "outputs": [
        {
          "internalType": "bytes",
          "name": "",
          "type": "bytes"
        }
      ],
      "stateMutability": "view",
      "type": "function"
    },
    {
      "inputs": [],
      "name": "orderBookLiquidationMultiplier",
      "outputs": [
        {
          "internalType": "uint256",
          "name": "",
          "type": "uint256"
        }
      ],
      "stateMutability": "view",
      "type": "function"
    },
    {
      "inputs": [],
      "name": "owner",
      "outputs": [
        {
          "internalType": "address",
          "name": "",
          "type": "address"
        }
      ],
      "stateMutability": "view",
      "type": "function"
    },
    {
      "inputs": [],
      "name": "paused",
      "outputs": [
        {
          "internalType": "bool",
          "name": "",
          "type": "bool"
        }
      ],
      "stateMutability": "view",
      "type": "function"
    },
    {
      "inputs": [],
      "name": "pendingOwner",
      "outputs": [
        {
          "internalType": "address",
          "name": "",
          "type": "address"
        }
      ],
      "stateMutability": "view",
      "type": "function"
    },
    {
      "inputs": [],
      "name": "penrose",
      "outputs": [
        {
          "internalType": "contract IPenrose",
          "name": "",
          "type": "address"
        }
      ],
      "stateMutability": "view",
      "type": "function"
    },
    {
      "inputs": [
        {
          "internalType": "address",
          "name": "owner",
          "type": "address"
        },
        {
          "internalType": "address",
          "name": "spender",
          "type": "address"
        },
        {
          "internalType": "uint256",
          "name": "value",
          "type": "uint256"
        },
        {
          "internalType": "uint256",
          "name": "deadline",
          "type": "uint256"
        },
        {
          "internalType": "uint8",
          "name": "v",
          "type": "uint8"
        },
        {
          "internalType": "bytes32",
          "name": "r",
          "type": "bytes32"
        },
        {
          "internalType": "bytes32",
          "name": "s",
          "type": "bytes32"
        }
      ],
      "name": "permit",
      "outputs": [],
      "stateMutability": "nonpayable",
      "type": "function"
    },
    {
      "inputs": [
        {
          "internalType": "address",
          "name": "owner",
          "type": "address"
        },
        {
          "internalType": "address",
          "name": "spender",
          "type": "address"
        },
        {
          "internalType": "uint256",
          "name": "value",
          "type": "uint256"
        },
        {
          "internalType": "uint256",
          "name": "deadline",
          "type": "uint256"
        },
        {
          "internalType": "uint8",
          "name": "v",
          "type": "uint8"
        },
        {
          "internalType": "bytes32",
          "name": "r",
          "type": "bytes32"
        },
        {
          "internalType": "bytes32",
          "name": "s",
          "type": "bytes32"
        }
      ],
      "name": "permitBorrow",
      "outputs": [],
      "stateMutability": "nonpayable",
      "type": "function"
    },
    {
      "inputs": [],
      "name": "protocolFee",
      "outputs": [
        {
          "internalType": "uint256",
          "name": "",
          "type": "uint256"
        }
      ],
      "stateMutability": "view",
      "type": "function"
    },
    {
      "inputs": [
        {
          "internalType": "address",
          "name": "from",
          "type": "address"
        },
        {
          "internalType": "address",
          "name": "to",
          "type": "address"
        },
        {
          "internalType": "uint256",
          "name": "share",
          "type": "uint256"
        }
      ],
      "name": "removeCollateral",
      "outputs": [],
      "stateMutability": "nonpayable",
      "type": "function"
    },
    {
      "inputs": [
        {
          "internalType": "uint256",
          "name": "_cap",
          "type": "uint256"
        }
      ],
      "name": "setBorrowCap",
      "outputs": [],
      "stateMutability": "nonpayable",
      "type": "function"
    },
    {
      "inputs": [
        {
          "internalType": "uint256",
          "name": "_val",
          "type": "uint256"
        }
      ],
      "name": "setCallerFee",
      "outputs": [],
      "stateMutability": "nonpayable",
      "type": "function"
    },
    {
      "inputs": [
        {
          "internalType": "uint256",
          "name": "_val",
          "type": "uint256"
        }
      ],
      "name": "setCollateralizationRate",
      "outputs": [],
      "stateMutability": "nonpayable",
      "type": "function"
    },
    {
      "inputs": [
        {
          "internalType": "address",
          "name": "_conservator",
          "type": "address"
        }
      ],
      "name": "setConservator",
      "outputs": [],
      "stateMutability": "nonpayable",
      "type": "function"
    },
    {
      "inputs": [
        {
          "internalType": "uint256",
          "name": "_val",
          "type": "uint256"
        }
      ],
      "name": "setLiquidationBonusAmount",
      "outputs": [],
      "stateMutability": "nonpayable",
      "type": "function"
    },
    {
      "inputs": [
        {
          "internalType": "uint256",
          "name": "_val",
          "type": "uint256"
        }
      ],
      "name": "setMaxLiquidatorReward",
      "outputs": [],
      "stateMutability": "nonpayable",
      "type": "function"
    },
    {
      "inputs": [
        {
          "internalType": "uint256",
          "name": "_val",
          "type": "uint256"
        }
      ],
      "name": "setMinLiquidatorReward",
      "outputs": [],
      "stateMutability": "nonpayable",
      "type": "function"
    },
    {
      "inputs": [
        {
          "internalType": "bytes",
          "name": "_oracleData",
          "type": "bytes"
        }
      ],
      "name": "setOracleData",
      "outputs": [],
      "stateMutability": "nonpayable",
      "type": "function"
    },
    {
      "inputs": [
        {
          "internalType": "uint256",
          "name": "_val",
          "type": "uint256"
        }
      ],
      "name": "setProtocolFee",
      "outputs": [],
      "stateMutability": "nonpayable",
      "type": "function"
    },
    {
      "inputs": [],
      "name": "symbol",
      "outputs": [
        {
          "internalType": "string",
          "name": "",
          "type": "string"
        }
      ],
      "stateMutability": "view",
      "type": "function"
    },
    {
      "inputs": [],
      "name": "totalAsset",
      "outputs": [
        {
          "internalType": "uint128",
          "name": "elastic",
          "type": "uint128"
        },
        {
          "internalType": "uint128",
          "name": "base",
          "type": "uint128"
        }
      ],
      "stateMutability": "view",
      "type": "function"
    },
    {
      "inputs": [],
      "name": "totalBorrow",
      "outputs": [
        {
          "internalType": "uint128",
          "name": "elastic",
          "type": "uint128"
        },
        {
          "internalType": "uint128",
          "name": "base",
          "type": "uint128"
        }
      ],
      "stateMutability": "view",
      "type": "function"
    },
    {
      "inputs": [],
      "name": "totalBorrowCap",
      "outputs": [
        {
          "internalType": "uint256",
          "name": "",
          "type": "uint256"
        }
      ],
      "stateMutability": "view",
      "type": "function"
    },
    {
      "inputs": [],
      "name": "totalCollateralShare",
      "outputs": [
        {
          "internalType": "uint256",
          "name": "",
          "type": "uint256"
        }
      ],
      "stateMutability": "view",
      "type": "function"
    },
    {
      "inputs": [],
      "name": "totalSupply",
      "outputs": [
        {
          "internalType": "uint256",
          "name": "",
          "type": "uint256"
        }
      ],
      "stateMutability": "view",
      "type": "function"
    },
    {
      "inputs": [
        {
          "internalType": "address",
          "name": "to",
          "type": "address"
        },
        {
          "internalType": "uint256",
          "name": "amount",
          "type": "uint256"
        }
      ],
      "name": "transfer",
      "outputs": [
        {
          "internalType": "bool",
          "name": "",
          "type": "bool"
        }
      ],
      "stateMutability": "nonpayable",
      "type": "function"
    },
    {
      "inputs": [
        {
          "internalType": "address",
          "name": "from",
          "type": "address"
        },
        {
          "internalType": "address",
          "name": "to",
          "type": "address"
        },
        {
          "internalType": "uint256",
          "name": "amount",
          "type": "uint256"
        }
      ],
      "name": "transferFrom",
      "outputs": [
        {
          "internalType": "bool",
          "name": "",
          "type": "bool"
        }
      ],
      "stateMutability": "nonpayable",
      "type": "function"
    },
    {
      "inputs": [
        {
          "internalType": "address",
          "name": "newOwner",
          "type": "address"
        },
        {
          "internalType": "bool",
          "name": "direct",
          "type": "bool"
        },
        {
          "internalType": "bool",
          "name": "renounce",
          "type": "bool"
        }
      ],
      "name": "transferOwnership",
      "outputs": [],
      "stateMutability": "nonpayable",
      "type": "function"
    },
    {
      "inputs": [],
      "name": "updateExchangeRate",
      "outputs": [
        {
          "internalType": "bool",
          "name": "updated",
          "type": "bool"
        },
        {
          "internalType": "uint256",
          "name": "rate",
          "type": "uint256"
        }
      ],
      "stateMutability": "nonpayable",
      "type": "function"
    },
    {
      "inputs": [
        {
          "internalType": "bool",
          "name": "val",
          "type": "bool"
        }
      ],
      "name": "updatePause",
      "outputs": [],
      "stateMutability": "nonpayable",
      "type": "function"
    },
    {
      "inputs": [
        {
          "internalType": "address",
          "name": "",
          "type": "address"
        }
      ],
      "name": "userBorrowPart",
      "outputs": [
        {
          "internalType": "uint256",
          "name": "",
          "type": "uint256"
        }
      ],
      "stateMutability": "view",
      "type": "function"
    },
    {
      "inputs": [
        {
          "internalType": "address",
          "name": "",
          "type": "address"
        }
      ],
      "name": "userCollateralShare",
      "outputs": [
        {
          "internalType": "uint256",
          "name": "",
          "type": "uint256"
        }
      ],
      "stateMutability": "view",
      "type": "function"
    },
    {
      "inputs": [],
      "name": "yieldBox",
      "outputs": [
        {
          "internalType": "contract YieldBox",
          "name": "",
          "type": "address"
        }
      ],
      "stateMutability": "view",
      "type": "function"
    }
  ],
  "bytecode": "0x6101408060405234620001e9576200001781620001ee565b601381526001602082017f546170696f63612053696e67756c617269747900000000000000000000000000815260206040516200005481620001ee565b8381520192603160f81b845251902091208160e052610100918183524660a0526040519160208301907f8b73c3c69bb8fe3d512ecc4cf759cc79239f7b179b0ffacaa9a75d522b39400f92838352604085015260608401524660808401523060a084015260a0835260c083019280841060018060401b03851117620001d35760408490525190206080523060c052610120908152600580546001600160a01b0319163390811790915560007f8be0079c531659141344cd1fd0a4f28419497f9722a3daafe3b4186f6b6457e08180a36103e860185561271080601955601a557f0bd4060688a1800ae986e4840aebc924bb40b5bf44de4583df2257220b54b77c6022557f7d1dc38e60930664f8cbf495da6556ca091d2f92d6550877750c049864b1823060235560326024556201b5806025556201f0186026556161a86027556134f592836200020b843960805183612803015260a051836128ce015260c051836127d4015260e05183612852015251826128780152518161282f0152f35b634e487b7160e01b600052604160045260246000fd5b600080fd5b604081019081106001600160401b03821117620001d35760405256fe608060409080825260048036101561001657600080fd5b600091823560e01c908162a02a2014611e235750806302ce728f14611dfa57806306fdde0314611ccc578063078dfbe714611baa578063095ea7b314611b8057806318160ddd14611b5e5780631c9e379b14611b275780631da8bf1014611a595780631e35078e14611a1b5780631e7ce448146119fc57806323b872dd1461183d5780632a685acd146117f3578063313ce5671461175757806334d441d0146117385780633644e5151461171b57806338d52e0f146116f35780633ba0b9a9146116d457806340626d8b146116b557806344de240a14611696578063473e3ce71461167757806348e4163e146116405780634d7f2a34146116215780634e71e0c814611563578063529898f21461154457806353aa7dcd1461150657806357935462146114e75780635c975abb146114c35780636c3d8b8f1461149b57806370a0823114611464578063717186d1146113f257806374645ff3146113b4578063787dce3d146113765780637a4d973b1461132c5780637dc0d1d0146113045780637ecebe00146112cd5780637fa0b84e1461129c5780638285ef40146112695780638c5d0ed31461124a5780638da5cb5b14611222578063959916dc1461120357806395d89b41146110d957806399a97028146110895780639e15e89f1461104e578063a9059cbb14610f72578063a96be18e14610db6578063b0e21e8a14610d97578063b27c0e7414610d5c578063b6b113d814610d2c578063bb4cfe3b14610d0d578063c23ea21f14610ce6578063cce19f8114610b18578063ce8849ed14610aed578063d272bd0914610ab0578063d505accf14610916578063d8dfeb45146108ee578063dd62ed3e146108a2578063de4065771461087a578063e0996cb61461085b578063e30c397814610833578063e9a492521461053d578063eec0f42e1461051e578063f8974de014610416578063f8ba4cff146103f7578063f9557ccb146103c05763fa74f0b5146102ee57600080fd5b346103bc5760203660031901126103bc57610307611e69565b6001600160a01b039161031f836005541633146120e9565b828216908115610379575090610100600160a81b0391600d54938460081c167f5a62d22209e370e38eea92cfddcd228e656e6ec139243392a760a7769f5877fd8680a360081b1690610100600160a81b03191617600d5580f35b606490602087519162461bcd60e51b8352820152601960248201527f4d61726b65743a2061646472657373206e6f742076616c6964000000000000006044820152fd5b5080fd5b8284346103bc57816003193601126103bc57601f5490516001600160801b038216815260809190911c6020820152604090f35b0390f35b8234610413578060031936011261041357610410612c76565b80f35b80fd5b50823461051a57602036600319011261051a5781359081151580920361051557600d54926001600160a01b038460081c1633036104d35760ff841615159081841461049b5750817f9c13c5f6c628c1c82eb2b3fd8714da5c2857dbd0ad8ab6b2074abcf81015d3969160ff949351908152836020820152a1169060ff191617600d5580f35b606490602084519162461bcd60e51b835282015260126024820152714d61726b65743a2073616d6520737461746560701b6044820152fd5b6020606492519162461bcd60e51b8352820152601460248201527f4d61726b65743a20756e617574686f72697a65640000000000000000000000006044820152fd5b600080fd5b8280fd5b8284346103bc57816003193601126103bc57602090600a549051908152f35b5091346103bc5760a03660031901126103bc57610558611e69565b90610561611e7f565b9361056a611edd565b946084359261057e60ff600d541615612174565b6105888486612be5565b83156107ab575b6001600160a01b0380921694858752602093601585528288206105b38782546121fa565b90556012546105c287826121fa565b601255600a5490600c5482146000146107a3576022545b898b5260218852858b20908b528752848a206105f68982546121fa565b90558a156106ef57868660075416926044875180958193627eeac760e11b8352308984015260248301525afa80156106e5578a906106b6575b6106399250612291565b861161068357507f9ed03113de523cebfe5e49d5f8e12894b1c0d42ce805990461726444c90eab87949596975b1561067d57508160075416905b519485521692a380f35b90610673565b825162461bcd60e51b8152908101859052600d60248201526c0a68e987440e8dede40daeac6d609b1b6044820152606490fd5b508682813d83116106de575b6106cc81836120c8565b8101031261051557610639915161062f565b503d6106c2565b85513d8c823e3d90fd5b5090889996979891856007541691823b1561079f578551630208d92960e11b81526001600160a01b0386169181019182523060208301526040820192909252606081018a90529091839183919082908490829060800103925af180156107955761077d575b50507f9ed03113de523cebfe5e49d5f8e12894b1c0d42ce805990461726444c90eab8794610666565b6107869061204e565b610791578738610754565b8780fd5b84513d84823e3d90fd5b8380fd5b6023546105d9565b92506001600160a01b03600754166020600a546064865180948193638eb22cdd60e01b835288830152823560248301528a60448301525afa9081156108295786916107f8575b509261058f565b90506020813d8211610821575b81610812602093836120c8565b810103126105155751386107f1565b3d9150610805565b84513d88823e3d90fd5b8284346103bc57816003193601126103bc576020906001600160a01b03600654169051908152f35b8284346103bc57816003193601126103bc57602090601a549051908152f35b8284346103bc57816003193601126103bc576020906001600160a01b03600754169051908152f35b8284346103bc57806003193601126103bc576020916108bf611e69565b826108c8611e7f565b926001600160a01b03809316815260028652209116600052825280600020549051908152f35b8284346103bc57816003193601126103bc576020906001600160a01b03600954169051908152f35b50346103bc5761092536611eec565b90839794979695964211610a6d576001600160a01b03928387169485600052866020528b6000208054906000198214610a5857878b8f9294848f6109fb99976001610a039c9a980190558b86519460208601967f6e71edae12b1b97f4d1f60370fef10105fa2faae0126114a169c64845d6126c9885288870152166060850152608084015260a083015260c082015260c081526109c181612092565b5190206109cc6127ca565b915190602082019261190160f01b845260228301526042820152604281526109f3816120ad565b519020612aa6565b91909161298c565b1603610a155750610410939450612b8d565b606490602087519162461bcd60e51b8352820152601e60248201527f45524332305065726d69743a20696e76616c6964207369676e617475726500006044820152fd5b601189634e487b7160e01b6000525260246000fd5b895162461bcd60e51b8152602081870152601d60248201527f45524332305065726d69743a206578706972656420646561646c696e650000006044820152606490fd5b50346103bc5760203660031901126103bc5735610ad96001600160a01b036005541633146120e9565b610ae7620186a08210612134565b601a5580f35b8284346103bc57816003193601126103bc576020906001600160a01b03600d5460081c169051908152f35b50823461051a57610b2836611f3b565b929190610b3a60ff600d541615612174565b610b426123df565b5050610b4c612c76565b610b568483612be5565b6001600160a01b0393848316918288528760209660158852868220610b7c858254612291565b9055610b8a84601254612291565b6012558651848152857f8ad4d3ff00da092c7ad9a573ea4f5f6a3dffc6712dc06d3f78f49b862297c4028a84871693a360075416600a5490803b1561051a578751630208d92960e11b815230818c019081526001600160a01b039095166020860152604085019290925260608401859052909283919082908490829060800103925af18015610cdc57610cc3575b5090610c6092918188526021865284882060235490818a528752858920548211600014610c9e5750508652602184528286206023548752845285838120555b601054906124fb565b15610c69578380f35b5162461bcd60e51b815291820152601160248201527013585c9ad95d0e881a5b9cdbdb1d995b9d607a1b604482015260649150fd5b90918852602186528488209088528552610cbc848820918254612291565b9055610c57565b96610cd3610c609493929861204e565b96909192610c18565b85513d8a823e3d90fd5b8284346103bc57816003193601126103bc576020906001600160a01b038254169051908152f35b8284346103bc57816003193601126103bc57602090601b549051908152f35b8284346103bc57806003193601126103bc57602090610d55610d4c611e69565b60243590612207565b9051908152f35b8284346103bc57816003193601126103bc57606090601e54908051916001600160401b03808216845281831c16602084015260801c90820152f35b8284346103bc57816003193601126103bc576020906017549051908152f35b50903461041357602091826003193601126103bc5780356001600160401b039182821161079f573660238301121561079f5781013591821161051a576024903682848301011161079f57610e166001600160a01b036005541633146120e9565b610e21600f54611f70565b601f8111610f14575b508394601f8411600114610e8f5750938394839493610e82575b5050508160011b916000199060031b1c191617600f555b7fa6f004921c944d4b8bf6e38462b00f36a58d62495d56b51f571ab78f732c98158180a180f35b0101359050838080610e44565b601f198416957f8d1108e10bcb7c27dddfc02ed9d693a074039d026cf4ea4240b40f7d581ac802939186905b888210610efa575050846001969710610ede575b50505050811b01600f55610e5b565b60001960f88660031b161c199201013516905583808080610ecf565b806001849786839596890101358155019601920190610ebb565b7f8d1108e10bcb7c27dddfc02ed9d693a074039d026cf4ea4240b40f7d581ac802601f850160051c810191878610610f68575b601f0160051c01905b818110610f5d5750610e2a565b858155600101610f50565b9091508190610f47565b8284346103bc57806003193601126103bc576020916001600160a01b03610f97611e69565b83602435938415801590611043575b610fde575b505192835216907fddf252ad1be2c89b69c2b068fc378daa952ba7f163c4a11628f55a4df523b3ef843392a35160018152f35b3381526001875281812054610ff5868210156128f4565b848416908682330361100a575b505050610fab565b61101e91611019841515612940565b612291565b33835260018952838320558152206110378482546121fa565b90558386808086611002565b508383163314610fa6565b8284346103bc57806003193601126103bc5760609061107761106e611e69565b6024359061229e565b91929081519384526020840152820152f35b8284346103bc57806003193601126103bc57610d556020926001600160a01b036110b1611e69565b1680825260158552836110c96024358285205461260c565b93909281526014875220546126be565b5091346103bc57816003193601126103bc576001600160a01b039261110184600954166132f5565b61110e85600b54166132f5565b94600e541693835163634ce26b60e11b815281816020978887830152818061113860248201611faa565b03915afa9182156111f857926024926103f3969592856111c696926111d5575b5050855198899261746d60f01b8a85015261117c815180928c602288019101611e95565b8301602f60f81b602282015261119b825180938c602385019101611e95565b01602d60f81b60238201526111b8825180938b8885019101611e95565b0103908101875201856120c8565b51928284938452830190611eb8565b6111f192503d8091833e6111e981836120c8565b810190613248565b3880611158565b8551903d90823e3d90fd5b8284346103bc57816003193601126103bc576020906024549051908152f35b8284346103bc57816003193601126103bc576020906001600160a01b03600554169051908152f35b8284346103bc57816003193601126103bc576020906018549051908152f35b8284346103bc57816003193601126103bc5760115490516001600160801b038216815260809190911c6020820152604090f35b8284346103bc57806003193601126103bc576020906112c66112bc611e69565b6024359033612b35565b5160018152f35b5082903461051a57602036600319011261051a5760209282916001600160a01b036112f6611e69565b168252845220549051908152f35b8284346103bc57816003193601126103bc576020906001600160a01b03600e54169051908152f35b50346103bc5760203660031901126103bc57356113556001600160a01b036005541633146120e9565b611363620186a08210612134565b6113706019548210612134565b60185580f35b50346103bc5760203660031901126103bc573561139f6001600160a01b036005541633146120e9565b6113ae620186a0821115612134565b60175580f35b8284346103bc57816003193601126103bc5780516103f3916113e0826113d981611faa565b03836120c8565b51918291602083526020830190611eb8565b5082903461051a57602036600319011261051a577fae6e0ab3b95f0a53ff9660a390ccedcbbf1f2355dce974a9841af106fddcfaba90359161143960ff600d541615612174565b61144f6001600160a01b036005541633146120e9565b6013548151908152836020820152a160135580f35b8284346103bc5760203660031901126103bc57806020926001600160a01b0361148b611e69565b1681526001845220549051908152f35b8284346103bc57816003193601126103bc576020906001600160a01b03600854169051908152f35b8284346103bc57816003193601126103bc5760209060ff600d541690519015158152f35b8284346103bc57816003193601126103bc576020906019549051908152f35b50346103bc5760203660031901126103bc573561152f6001600160a01b036005541633146120e9565b61153e620186a0821115612134565b60165580f35b8284346103bc57816003193601126103bc576020906025549051908152f35b50823461051a578260031936011261051a57600654906001600160a01b0392838316918233036115de575050806005549384167f8be0079c531659141344cd1fd0a4f28419497f9722a3daafe3b4186f6b6457e08680a373ffffffffffffffffffffffffffffffffffffffff19928316176005551660065580f35b906020606492519162461bcd60e51b8352820152602060248201527f4f776e61626c653a2063616c6c657220213d2070656e64696e67206f776e65726044820152fd5b8284346103bc57816003193601126103bc576020906027549051908152f35b8284346103bc5760203660031901126103bc57806020926001600160a01b03611667611e69565b1681526014845220549051908152f35b8284346103bc57816003193601126103bc576020906012549051908152f35b8284346103bc57816003193601126103bc57602090600c549051908152f35b8284346103bc57816003193601126103bc576020906013549051908152f35b8284346103bc57816003193601126103bc576020906010549051908152f35b8284346103bc57816003193601126103bc576020906001600160a01b03600b54169051908152f35b8284346103bc57816003193601126103bc57602090610d556127ca565b8284346103bc57816003193601126103bc576020906016549051908152f35b50818391346103bc57816003193601126103bc5781906001600160a01b03600b5416908451602081019163313ce56760e01b8352815261179681612077565b51915afa6117a26132a6565b90806117e8575b156117d95760208180518101031261051a57602001519160ff83168303610413575060ff602092915b5191168152f35b506020915060ff6012916117d2565b5060208151146117a9565b50346103bc5760203660031901126103bc573561181c6001600160a01b036005541633146120e9565b61182a620186a08210612134565b6118376018548211612134565b60195580f35b509190346104135761184e36611f3b565b919282611899575b5060208095507fddf252ad1be2c89b69c2b068fc378daa952ba7f163c4a11628f55a4df523b3ef9185519384526001600160a01b03809116941692a35160018152f35b6001600160a01b0395868516968783526020906001825287842054906118c1878310156128f4565b851692838a036118d5575b50505050611856565b898552600283528885203386528352888520549060018201611951575b5050928260209960018a946119308a8e996110197fddf252ad1be2c89b69c2b068fc378daa952ba7f163c4a11628f55a4df523b3ef9c9a1515612940565b92855252838320558152206119468582546121fa565b9055913880806118cc565b8782106119b957509260209960018a946119308a8e9996611994827fddf252ad1be2c89b69c2b068fc378daa952ba7f163c4a11628f55a4df523b3ef9d9b612291565b86895260028552898920338a52855289892055969950505094505099819496506118f2565b895162461bcd60e51b8152908101849052601860248201527f45524332303a20616c6c6f77616e636520746f6f206c6f7700000000000000006044820152606490fd5b8284346103bc57816003193601126103bc576020906026549051908152f35b50346103bc5760203660031901126103bc5735611a446001600160a01b036005541633146120e9565b611a53620186a0821115612134565b601b5580f35b50346103bc57611a6836611eec565b90839794979695964211610a6d576001600160a01b039283871694858b52866020528b8b208054906000198214611b1457878b8f9294848f6109fb99976001611b029c9a980190558b86519460208601967fe9685ff6d48c617fe4f692c50e602cce27cbad0290beb93cfa77eac43968d58c885288870152166060850152608084015260a083015260c082015260c081526109c181612092565b1603610a155750610410939450612b35565b634e487b7160e01b8d526011895260248dfd5b8284346103bc5760203660031901126103bc57806020926001600160a01b03611b4e611e69565b1681526015845220549051908152f35b8284346103bc57816003193601126103bc57602090601f5460801c9051908152f35b8284346103bc57806003193601126103bc576020906112c6611ba0611e69565b6024359033612b8d565b50823461051a57606036600319011261051a57611bc5611e69565b91602435918215158303611cc857611bdb611edd565b926001600160a01b03948591611bf6836005541633146120e9565b15611ca7571692831590811591611c9f575b5015611c5c575050806005549283167f8be0079c531659141344cd1fd0a4f28419497f9722a3daafe3b4186f6b6457e08580a36bffffffffffffffffffffffff60a01b809216176005556006541660065580f35b906020606492519162461bcd60e51b8352820152601560248201527f4f776e61626c653a207a65726f206164647265737300000000000000000000006044820152fd5b905086611c08565b9350505050166bffffffffffffffffffffffff60a01b600654161760065580f35b8480fd5b50823461051a578260031936011261051a576001600160a01b0392611cf48460095416613494565b90611d0285600b5416613494565b94600e5416818451809263355a219b60e21b8252602080988301528180611d2b60248201611faa565b03915afa918215611def57926111c692603692856103f3979692611dd4575b505084519788927f546170696f63612053696e67756c61726974792000000000000000000000000089850152611d89815180928b603488019101611e95565b8301602f60f81b6034820152611da8825180938b603585019101611e95565b01602d60f81b6035820152611dc5825180938a8785019101611e95565b010360168101875201856120c8565b611de892503d8091833e6111e981836120c8565b8880611d4a565b8451903d90823e3d90fd5b50503461041357806003193601126104135750611e156123df565b825191151582526020820152f35b8390853461051a578060031936011261051a57602092611e41611e69565b611e49611e7f565b6001600160a01b0391821683526003865283832091168252845220548152f35b600435906001600160a01b038216820361051557565b602435906001600160a01b038216820361051557565b60005b838110611ea85750506000910152565b8181015183820152602001611e98565b90602091611ed181518092818552858086019101611e95565b601f01601f1916010190565b60443590811515820361051557565b60e0906003190112610515576001600160a01b03906004358281168103610515579160243590811681036105155790604435906064359060843560ff81168103610515579060a4359060c43590565b6060906003190112610515576001600160a01b0390600435828116810361051557916024359081168103610515579060443590565b90600182811c92168015611fa0575b6020831014611f8a57565b634e487b7160e01b600052602260045260246000fd5b91607f1691611f7f565b600f5460009291611fba82611f70565b808252916001908181169081156120315750600114611fd857505050565b91929350600f6000527f8d1108e10bcb7c27dddfc02ed9d693a074039d026cf4ea4240b40f7d581ac802916000925b84841061201957505060209250010190565b80546020858501810191909152909301928101612007565b915050602093945060ff929192191683830152151560051b010190565b6001600160401b03811161206157604052565b634e487b7160e01b600052604160045260246000fd5b604081019081106001600160401b0382111761206157604052565b60e081019081106001600160401b0382111761206157604052565b608081019081106001600160401b0382111761206157604052565b90601f801991011681019081106001600160401b0382111761206157604052565b156120f057565b606460405162461bcd60e51b815260206004820152602060248201527f4f776e61626c653a2063616c6c6572206973206e6f7420746865206f776e65726044820152fd5b1561213b57565b60405162461bcd60e51b815260206004820152601160248201527013585c9ad95d0e881b9bdd081d985b1a59607a1b6044820152606490fd5b1561217b57565b60405162461bcd60e51b815260206004820152600e60248201526d13585c9ad95d0e881c185d5cd95960921b6044820152606490fd5b818102929181159184041417156121c457565b634e487b7160e01b600052601160045260246000fd5b81156121e4570490565b634e487b7160e01b600052601260045260246000fd5b919082018092116121c457565b61221182826124fb565b612264576122276001600160a01b03928261229e565b93919290501660005260146020526040600020549182101561226057620186a061225661225d93601a546121b1565b04906121fa565b90565b5090565b5050600090565b6040519061227882612077565b6011546001600160801b038116835260801c6020830152565b919082039182116121c457565b91906001600160a01b03809316926000908482526020906014825260408320549081156123d2576122cd61226b565b906007541683600a548987526015825260646123016122f860408a2054620186a0601c5404906121b1565b601b54906121b1565b91604051948593849263442c159960e01b8452600484015260248301528960448301525afa9081156123c7578591612398575b509285949261237060159361234e61238c996040986121da565b92846123666001600160801b039283855116906121b1565b92015116906121da565b908082106123905761238191612291565b97835252205461260c565b9091565b505082612381565b90508381813d83116123c0575b6123af81836120c8565b81010312611cc8575161238c612334565b503d6123a5565b6040513d87823e3d90fd5b5050509192505080918190565b6001600160a01b03600e54169060409081519263d6d7d52560e01b8452602060048501528284604481600080958160248401525af19081156124f057809481926124af575b505091836000146124a75782156124645760207f9f9192b5edb17356c524e08d9e025c8e2f6307e6ea52fb7968faa3081f51c3c8918460105551848152a1565b5162461bcd60e51b815260206004820152601460248201527f4d61726b65743a20696e76616c696420726174650000000000000000000000006044820152606490fd5b506010549150565b84809296508193503d83116124e9575b6124c981836120c8565b8101031261079f5780519384151585036104135750602001513880612424565b503d6124bf565b8351903d90823e3d90fd5b9190916001600160a01b038060009216825260206014815260408320549081156126025760158152604084205480156125f9578161253761226b565b94600754169160646125576122f8600a5493620186a0601c5404906121b1565b91604051948593849263442c159960e01b8452600484015260248301528960448301525afa9485156125ed5780956125b5575b50506123666125b09495966125ab6001600160801b039485875116906121b1565b6121b1565b111590565b909694508187813d83116125e6575b6125ce81836120c8565b810103126104135750945192946123666125b061258a565b503d6125c4565b604051903d90823e3d90fd5b50929450505050565b5060019450505050565b60206001600160a01b0360075416916064600a54604051948593849263442c159960e01b845260048401526024830152600060448301525afa9081156126b25760009161267f575b509061266661266b92601c54906121b1565b6121da565b620186a061267b601b54836121b1565b0491565b906020823d82116126aa575b81612698602093836120c8565b81010312610413575051612666612654565b3d915061268b565b6040513d6000823e3d90fd5b80156127c25781156127c2578181106127c257828110156127b957816126e391612291565b620186a092838202918083048514901517156121c45761270c9261270691612291565b906121da565b601854916019549283810390600093848612828412811690838513901516176127a55782810292858112600160ff1b83141661279157830514908514171561277d5705818382019384129112908015821691151617612769575090565b634e487b7160e01b81526011600452602490fd5b634e487b7160e01b83526011600452602483fd5b634e487b7160e01b86526011600452602486fd5b634e487b7160e01b85526011600452602485fd5b50505060185490565b505050600090565b6001600160a01b037f0000000000000000000000000000000000000000000000000000000000000000163014806128cb575b15612825577f000000000000000000000000000000000000000000000000000000000000000090565b60405160208101907f000000000000000000000000000000000000000000000000000000000000000082527f000000000000000000000000000000000000000000000000000000000000000060408201527f000000000000000000000000000000000000000000000000000000000000000060608201524660808201523060a082015260a0815260c081018181106001600160401b038211176120615760405251902090565b507f000000000000000000000000000000000000000000000000000000000000000046146127fc565b156128fb57565b60405162461bcd60e51b815260206004820152601660248201527f45524332303a2062616c616e636520746f6f206c6f77000000000000000000006044820152606490fd5b1561294757565b60405162461bcd60e51b815260206004820152601660248201527f45524332303a206e6f207a65726f2061646472657373000000000000000000006044820152606490fd5b6005811015612a90578061299d5750565b600181036129ea5760405162461bcd60e51b815260206004820152601860248201527f45434453413a20696e76616c6964207369676e617475726500000000000000006044820152606490fd5b60028103612a375760405162461bcd60e51b815260206004820152601f60248201527f45434453413a20696e76616c6964207369676e6174757265206c656e677468006044820152606490fd5b600314612a4057565b60405162461bcd60e51b815260206004820152602260248201527f45434453413a20696e76616c6964207369676e6174757265202773272076616c604482015261756560f01b6064820152608490fd5b634e487b7160e01b600052602160045260246000fd5b9291907f7fffffffffffffffffffffffffffffff5d576e7357a4501ddfe92f46681b20a08311612b295791608094939160ff602094604051948552168484015260408301526060820152600093849182805260015afa15612b1c5781516001600160a01b03811615612b16579190565b50600190565b50604051903d90823e3d90fd5b50505050600090600390565b909160207fe50de2333c10a9502fcb1d8ae13a51bbf423153dfc63c2b8997665b32154afc3916001600160a01b03809416938460005260038352604060002095169485600052825280604060002055604051908152a3565b909160207f8c5be1e5ebec7d5bd14f71427d1e84f3dd0314c0f7b2291e5b200ac8c7c3b925916001600160a01b03809416938460005260028352604060002095169485600052825280604060002055604051908152a3565b6001600160a01b0316338103612bf9575050565b60009080825260036020526040822033835260205282604083205410612c3d5781604091612c399352600360205281812033825260205220918254612291565b9055565b60449060405190630ca03e9b60e11b82526004820152336024820152fd5b9190916001600160801b03808094169116019182116121c457565b604051606081018181106001600160401b0382111761206157604052601e54906001600160401b0382168152612cc76001600160401b038360401c168060208401528360801c604084015242612291565b908115613228576001600160401b0342166020820152612ce561226b565b926001600160801b0360208501511615613170575060405190612d0782612077565b601f54936001600160801b03851683528460801c6020840152670de0b6b3a7640000612d4c856125ab6001600160801b038551166001600160401b03875116906121b1565b04946001600160801b03612d6581881682855116612c5b565b1682526001600160a01b03600754166020600c5460646001600160801b0388511691604051948593849263442c159960e01b845260048401526024830152600060448301525afa80156126b25760009061313c575b612dd091506001600160801b03845116906121fa565b906001600160801b03612dfe83612666620186a0612df06017548d6121b1565b048460208b015116906121b1565b9581612e128189168260408a015116612c5b565b166040870152612e2d821991836020818b1692015116612c5b565b60801b16911617601f556001600160801b038251169160206001600160801b031991015160801b168217601155670de0b6b3a7640000820291808304670de0b6b3a764000014901517156121c457612e84916121da565b926709b6e64a8ec600009081851015613011578482038281116121c457670de0b6b3a76400008102908104670de0b6b3a76400001486841417156121c457612ed1926125ab9104806121b1565b806b0a9456c7acbaf3a129576cd1602b1b016b0a9456c7acbaf3a129576cd1602b1b116121c4576001600160401b03825116906b0a9456c7acbaf3a129576cd1602b1b8202918083046b0a9456c7acbaf3a129576cd1602b1b14901517156121c457613007956001600160801b03956040956001600160401b03612f8a7f33af5ce86e8438eff54589f85332916444457dfa8685493fbd579b809097026b966080966b0a9456c7acbaf3a129576cd1602b1b01906121da565b168087526304b9a1f0809110613009575b505b6001600160401b038651169087519384526020840152868301526060820152a16001600160401b03815116601e549067ffffffffffffffff60401b6020840151851b16918519161717601e550151166001600160801b03601e549181199060801b16911617601e55565b565b865238612f9b565b9050670b1a2bc2ec5000008493929411613060575b50917f33af5ce86e8438eff54589f85332916444457dfa8685493fbd579b809097026b6080613007956040946001600160801b0396612f9d565b91929091670b1a2bc2ec4fffff198401908482116121c457670de0b6b3a7640000820291808304670de0b6b3a764000014901517156121c4576125ab6702c68af0bb1400006130b09304806121b1565b6b0a9456c7acbaf3a129576cd1602b1b908101908181116121c457613007956001600160801b03956040956001600160401b036080946131147f33af5ce86e8438eff54589f85332916444457dfa8685493fbd579b809097026b97838a51166121b1565b046449d4824600808211613134575b501686529496509450955050613026565b905038613123565b506020813d602011613168575b81613156602093836120c8565b8101031261051557612dd09051612dba565b3d9150613149565b61300793506001600160801b039250906040916312e687c0806001600160401b03845116036131e1575b506001600160401b0382511667ffffffffffffffff60401b6020840151851b16918519161717601e550151166001600160801b03601e549181199060801b16911617601e55565b6080817f33af5ce86e8438eff54589f85332916444457dfa8685493fbd579b809097026b92855285519060008252600060208301528682015260006060820152a13861319a565b505050565b6001600160401b03811161206157601f01601f191660200190565b602081830312610515578051906001600160401b038211610515570181601f8201121561051557805161327a8161322d565b9261328860405194856120c8565b818452602082840101116105155761225d9160208085019101611e95565b3d156132d1573d906132b78261322d565b916132c560405193846120c8565b82523d6000602084013e565b606090565b604051906132e382612077565b60038252623f3f3f60e81b6020830152565b600080916040516001600160a01b0360208201916395d89b4160e01b83526004815261332081612077565b5192165afa61332d6132a6565b901561333c5761225d9061337d565b5061225d6132d6565b908151811015613356570160200190565b634e487b7160e01b600052603260045260246000fd5b60ff1660ff81146121c45760010190565b80516040811061339b57508060208061225d93518301019101613248565b602092908303613489576000805b60ff8116858110908161346a575b50156133cb576133c69061336c565b6133a9565b9260ff809416926133db8461322d565b936133e960405195866120c8565b8085526133f8601f199161322d565b013687860137825b8581168781108061344d575b156134425761343d91906134376001600160f81b031961342c8388613345565b5116871a9188613345565b5361336c565b613400565b505094505050905090565b506001600160f81b03196134618286613345565b5116151561340c565b6001600160f81b0319915061347f9086613345565b51161515386133b7565b91505061225d6132d6565b600080916040516001600160a01b0360208201916306fdde0360e01b8352600481526133208161207756fea26469706673582212208543e49a47015f1ee01b0fd7faf380172fe755fcbdd41a0e65c8590fefd8e25164736f6c63430008120033",
  "linkReferences": {},
  "deployedLinkReferences": {}
}