{
  "_format": "hh-sol-artifact-1",
  "contractName": "SGLCollateral",
  "sourceName": "contracts/markets/singularity/SGLCollateral.sol",
  "abi": [
    {
      "inputs": [
        {
          "internalType": "address",
          "name": "_from",
          "type": "address"
        },
        {
          "internalType": "address",
          "name": "_operator",
          "type": "address"
        }
      ],
      "name": "NotApproved",
      "type": "error"
    },
    {
      "anonymous": false,
      "inputs": [
        {
          "indexed": true,
          "internalType": "address",
          "name": "owner",
          "type": "address"
        },
        {
          "indexed": true,
          "internalType": "address",
          "name": "spender",
          "type": "address"
        },
        {
          "indexed": false,
          "internalType": "uint256",
          "name": "value",
          "type": "uint256"
        }
      ],
      "name": "Approval",
      "type": "event"
    },
    {
      "anonymous": false,
      "inputs": [
        {
          "indexed": true,
          "internalType": "address",
          "name": "owner",
          "type": "address"
        },
        {
          "indexed": true,
          "internalType": "address",
          "name": "spender",
          "type": "address"
        },
        {
          "indexed": false,
          "internalType": "uint256",
          "name": "value",
          "type": "uint256"
        }
      ],
      "name": "ApprovalBorrow",
      "type": "event"
    },
    {
      "anonymous": false,
      "inputs": [
        {
          "indexed": true,
          "internalType": "address",
          "name": "old",
          "type": "address"
        },
        {
          "indexed": true,
          "internalType": "address",
          "name": "_new",
          "type": "address"
        }
      ],
      "name": "ConservatorUpdated",
      "type": "event"
    },
    {
      "anonymous": false,
      "inputs": [
        {
          "indexed": false,
          "internalType": "address",
          "name": "liquidator",
          "type": "address"
        },
        {
          "indexed": false,
          "internalType": "address[]",
          "name": "users",
          "type": "address[]"
        },
        {
          "indexed": false,
          "internalType": "uint256",
          "name": "liquidatorReward",
          "type": "uint256"
        },
        {
          "indexed": false,
          "internalType": "uint256",
          "name": "protocolReward",
          "type": "uint256"
        },
        {
          "indexed": false,
          "internalType": "uint256",
          "name": "repayedAmount",
          "type": "uint256"
        },
        {
          "indexed": false,
          "internalType": "uint256",
          "name": "collateralShareRemoved",
          "type": "uint256"
        }
      ],
      "name": "Liquidated",
      "type": "event"
    },
    {
      "anonymous": false,
      "inputs": [
        {
          "indexed": false,
          "internalType": "uint256",
          "name": "accruedAmount",
          "type": "uint256"
        },
        {
          "indexed": false,
          "internalType": "uint256",
          "name": "feeFraction",
          "type": "uint256"
        },
        {
          "indexed": false,
          "internalType": "uint64",
          "name": "rate",
          "type": "uint64"
        },
        {
          "indexed": false,
          "internalType": "uint256",
          "name": "utilization",
          "type": "uint256"
        }
      ],
      "name": "LogAccrue",
      "type": "event"
    },
    {
      "anonymous": false,
      "inputs": [
        {
          "indexed": true,
          "internalType": "address",
          "name": "from",
          "type": "address"
        },
        {
          "indexed": true,
          "internalType": "address",
          "name": "to",
          "type": "address"
        },
        {
          "indexed": false,
          "internalType": "uint256",
          "name": "share",
          "type": "uint256"
        },
        {
          "indexed": false,
          "internalType": "uint256",
          "name": "fraction",
          "type": "uint256"
        }
      ],
      "name": "LogAddAsset",
      "type": "event"
    },
    {
      "anonymous": false,
      "inputs": [
        {
          "indexed": true,
          "internalType": "address",
          "name": "from",
          "type": "address"
        },
        {
          "indexed": true,
          "internalType": "address",
          "name": "to",
          "type": "address"
        },
        {
          "indexed": false,
          "internalType": "uint256",
          "name": "share",
          "type": "uint256"
        }
      ],
      "name": "LogAddCollateral",
      "type": "event"
    },
    {
      "anonymous": false,
      "inputs": [
        {
          "indexed": true,
          "internalType": "address",
          "name": "from",
          "type": "address"
        },
        {
          "indexed": true,
          "internalType": "address",
          "name": "to",
          "type": "address"
        },
        {
          "indexed": false,
          "internalType": "uint256",
          "name": "amount",
          "type": "uint256"
        },
        {
          "indexed": false,
          "internalType": "uint256",
          "name": "feeAmount",
          "type": "uint256"
        },
        {
          "indexed": false,
          "internalType": "uint256",
          "name": "part",
          "type": "uint256"
        }
      ],
      "name": "LogBorrow",
      "type": "event"
    },
    {
      "anonymous": false,
      "inputs": [
        {
          "indexed": false,
          "internalType": "uint256",
          "name": "_oldVal",
          "type": "uint256"
        },
        {
          "indexed": false,
          "internalType": "uint256",
          "name": "_newVal",
          "type": "uint256"
        }
      ],
      "name": "LogBorrowCapUpdated",
      "type": "event"
    },
    {
      "anonymous": false,
      "inputs": [
        {
          "indexed": false,
          "internalType": "uint256",
          "name": "_oldVal",
          "type": "uint256"
        },
        {
          "indexed": false,
          "internalType": "uint256",
          "name": "_newVal",
          "type": "uint256"
        }
      ],
      "name": "LogBorrowingFee",
      "type": "event"
    },
    {
      "anonymous": false,
      "inputs": [
        {
          "indexed": false,
          "internalType": "uint256",
          "name": "rate",
          "type": "uint256"
        }
      ],
      "name": "LogExchangeRate",
      "type": "event"
    },
    {
      "anonymous": false,
      "inputs": [
        {
          "indexed": true,
          "internalType": "address",
          "name": "from",
          "type": "address"
        },
        {
          "indexed": true,
          "internalType": "address",
          "name": "to",
          "type": "address"
        },
        {
          "indexed": false,
          "internalType": "uint256",
          "name": "share",
          "type": "uint256"
        },
        {
          "indexed": false,
          "internalType": "uint256",
          "name": "fraction",
          "type": "uint256"
        }
      ],
      "name": "LogRemoveAsset",
      "type": "event"
    },
    {
      "anonymous": false,
      "inputs": [
        {
          "indexed": true,
          "internalType": "address",
          "name": "from",
          "type": "address"
        },
        {
          "indexed": true,
          "internalType": "address",
          "name": "to",
          "type": "address"
        },
        {
          "indexed": false,
          "internalType": "uint256",
          "name": "share",
          "type": "uint256"
        }
      ],
      "name": "LogRemoveCollateral",
      "type": "event"
    },
    {
      "anonymous": false,
      "inputs": [
        {
          "indexed": true,
          "internalType": "address",
          "name": "from",
          "type": "address"
        },
        {
          "indexed": true,
          "internalType": "address",
          "name": "to",
          "type": "address"
        },
        {
          "indexed": false,
          "internalType": "uint256",
          "name": "amount",
          "type": "uint256"
        },
        {
          "indexed": false,
          "internalType": "uint256",
          "name": "part",
          "type": "uint256"
        }
      ],
      "name": "LogRepay",
      "type": "event"
    },
    {
      "anonymous": false,
      "inputs": [
        {
          "indexed": true,
          "internalType": "address",
          "name": "feeTo",
          "type": "address"
        },
        {
          "indexed": false,
          "internalType": "uint256",
          "name": "feesEarnedFraction",
          "type": "uint256"
        }
      ],
      "name": "LogWithdrawFees",
      "type": "event"
    },
    {
      "anonymous": false,
      "inputs": [
        {
          "indexed": false,
          "internalType": "uint256",
          "name": "feeShares",
          "type": "uint256"
        },
        {
          "indexed": false,
          "internalType": "uint256",
          "name": "ethAmount",
          "type": "uint256"
        }
      ],
      "name": "LogYieldBoxFeesDeposit",
      "type": "event"
    },
    {
      "anonymous": false,
      "inputs": [],
      "name": "OracleDataUpdated",
      "type": "event"
    },
    {
      "anonymous": false,
      "inputs": [
        {
          "indexed": true,
          "internalType": "address",
          "name": "previousOwner",
          "type": "address"
        },
        {
          "indexed": true,
          "internalType": "address",
          "name": "newOwner",
          "type": "address"
        }
      ],
      "name": "OwnershipTransferred",
      "type": "event"
    },
    {
      "anonymous": false,
      "inputs": [
        {
          "indexed": false,
          "internalType": "bool",
          "name": "oldState",
          "type": "bool"
        },
        {
          "indexed": false,
          "internalType": "bool",
          "name": "newState",
          "type": "bool"
        }
      ],
      "name": "PausedUpdated",
      "type": "event"
    },
    {
      "anonymous": false,
      "inputs": [
        {
          "indexed": true,
          "internalType": "address",
          "name": "from",
          "type": "address"
        },
        {
          "indexed": true,
          "internalType": "address",
          "name": "to",
          "type": "address"
        },
        {
          "indexed": false,
          "internalType": "uint256",
          "name": "value",
          "type": "uint256"
        }
      ],
      "name": "Transfer",
      "type": "event"
    },
    {
      "inputs": [],
      "name": "DOMAIN_SEPARATOR",
      "outputs": [
        {
          "internalType": "bytes32",
          "name": "",
          "type": "bytes32"
        }
      ],
      "stateMutability": "view",
      "type": "function"
    },
    {
      "inputs": [],
      "name": "accrue",
      "outputs": [],
      "stateMutability": "nonpayable",
      "type": "function"
    },
    {
      "inputs": [],
      "name": "accrueInfo",
      "outputs": [
        {
          "internalType": "uint64",
          "name": "interestPerSecond",
          "type": "uint64"
        },
        {
          "internalType": "uint64",
          "name": "lastAccrued",
          "type": "uint64"
        },
        {
          "internalType": "uint128",
          "name": "feesEarnedFraction",
          "type": "uint128"
        }
      ],
      "stateMutability": "view",
      "type": "function"
    },
    {
      "inputs": [
        {
          "internalType": "address",
          "name": "from",
          "type": "address"
        },
        {
          "internalType": "address",
          "name": "to",
          "type": "address"
        },
        {
          "internalType": "bool",
          "name": "skim",
          "type": "bool"
        },
        {
          "internalType": "uint256",
          "name": "amount",
          "type": "uint256"
        },
        {
          "internalType": "uint256",
          "name": "share",
          "type": "uint256"
        }
      ],
      "name": "addCollateral",
      "outputs": [],
      "stateMutability": "nonpayable",
      "type": "function"
    },
    {
      "inputs": [
        {
          "internalType": "address",
          "name": "",
          "type": "address"
        },
        {
          "internalType": "address",
          "name": "",
          "type": "address"
        }
      ],
      "name": "allowance",
      "outputs": [
        {
          "internalType": "uint256",
          "name": "",
          "type": "uint256"
        }
      ],
      "stateMutability": "view",
      "type": "function"
    },
    {
      "inputs": [
        {
          "internalType": "address",
          "name": "",
          "type": "address"
        },
        {
          "internalType": "address",
          "name": "",
          "type": "address"
        }
      ],
      "name": "allowanceBorrow",
      "outputs": [
        {
          "internalType": "uint256",
          "name": "",
          "type": "uint256"
        }
      ],
      "stateMutability": "view",
      "type": "function"
    },
    {
      "inputs": [
        {
          "internalType": "address",
          "name": "spender",
          "type": "address"
        },
        {
          "internalType": "uint256",
          "name": "amount",
          "type": "uint256"
        }
      ],
      "name": "approve",
      "outputs": [
        {
          "internalType": "bool",
          "name": "",
          "type": "bool"
        }
      ],
      "stateMutability": "nonpayable",
      "type": "function"
    },
    {
      "inputs": [
        {
          "internalType": "address",
          "name": "spender",
          "type": "address"
        },
        {
          "internalType": "uint256",
          "name": "amount",
          "type": "uint256"
        }
      ],
      "name": "approveBorrow",
      "outputs": [
        {
          "internalType": "bool",
          "name": "",
          "type": "bool"
        }
      ],
      "stateMutability": "nonpayable",
      "type": "function"
    },
    {
      "inputs": [],
      "name": "asset",
      "outputs": [
        {
          "internalType": "contract IERC20",
          "name": "",
          "type": "address"
        }
      ],
      "stateMutability": "view",
      "type": "function"
    },
    {
      "inputs": [],
      "name": "assetId",
      "outputs": [
        {
          "internalType": "uint256",
          "name": "",
          "type": "uint256"
        }
      ],
      "stateMutability": "view",
      "type": "function"
    },
    {
      "inputs": [
        {
          "internalType": "address",
          "name": "",
          "type": "address"
        }
      ],
      "name": "balanceOf",
      "outputs": [
        {
          "internalType": "uint256",
          "name": "",
          "type": "uint256"
        }
      ],
      "stateMutability": "view",
      "type": "function"
    },
    {
      "inputs": [],
      "name": "borrowOpeningFee",
      "outputs": [
        {
          "internalType": "uint256",
          "name": "",
          "type": "uint256"
        }
      ],
      "stateMutability": "view",
      "type": "function"
    },
    {
      "inputs": [],
      "name": "callerFee",
      "outputs": [
        {
          "internalType": "uint256",
          "name": "",
          "type": "uint256"
        }
      ],
      "stateMutability": "view",
      "type": "function"
    },
    {
      "inputs": [],
      "name": "claimOwnership",
      "outputs": [],
      "stateMutability": "nonpayable",
      "type": "function"
    },
    {
      "inputs": [],
      "name": "collateral",
      "outputs": [
        {
          "internalType": "contract IERC20",
          "name": "",
          "type": "address"
        }
      ],
      "stateMutability": "view",
      "type": "function"
    },
    {
      "inputs": [],
      "name": "collateralId",
      "outputs": [
        {
          "internalType": "uint256",
          "name": "",
          "type": "uint256"
        }
      ],
      "stateMutability": "view",
      "type": "function"
    },
    {
      "inputs": [],
      "name": "collateralizationRate",
      "outputs": [
        {
          "internalType": "uint256",
          "name": "",
          "type": "uint256"
        }
      ],
      "stateMutability": "view",
      "type": "function"
    },
    {
      "inputs": [
        {
          "internalType": "address",
          "name": "user",
          "type": "address"
        },
        {
          "internalType": "uint256",
          "name": "_exchangeRate",
          "type": "uint256"
        }
      ],
      "name": "computeClosingFactor",
      "outputs": [
        {
          "internalType": "uint256",
          "name": "",
          "type": "uint256"
        }
      ],
      "stateMutability": "view",
      "type": "function"
    },
    {
      "inputs": [
        {
          "internalType": "address",
          "name": "user",
          "type": "address"
        },
        {
          "internalType": "uint256",
          "name": "_exchangeRate",
          "type": "uint256"
        }
      ],
      "name": "computeLiquidatorReward",
      "outputs": [
        {
          "internalType": "uint256",
          "name": "",
          "type": "uint256"
        }
      ],
      "stateMutability": "view",
      "type": "function"
    },
    {
      "inputs": [
        {
          "internalType": "address",
          "name": "user",
          "type": "address"
        },
        {
          "internalType": "uint256",
          "name": "_exchangeRate",
          "type": "uint256"
        }
      ],
      "name": "computeTVLInfo",
      "outputs": [
        {
          "internalType": "uint256",
          "name": "amountToSolvency",
          "type": "uint256"
        },
        {
          "internalType": "uint256",
          "name": "minTVL",
          "type": "uint256"
        },
        {
          "internalType": "uint256",
          "name": "maxTVL",
          "type": "uint256"
        }
      ],
      "stateMutability": "view",
      "type": "function"
    },
    {
      "inputs": [],
      "name": "conservator",
      "outputs": [
        {
          "internalType": "address",
          "name": "",
          "type": "address"
        }
      ],
      "stateMutability": "view",
      "type": "function"
    },
    {
      "inputs": [],
      "name": "decimals",
      "outputs": [
        {
          "internalType": "uint8",
          "name": "",
          "type": "uint8"
        }
      ],
      "stateMutability": "view",
      "type": "function"
    },
    {
      "inputs": [],
      "name": "exchangeRate",
      "outputs": [
        {
          "internalType": "uint256",
          "name": "",
          "type": "uint256"
        }
      ],
      "stateMutability": "view",
      "type": "function"
    },
    {
      "inputs": [],
      "name": "liquidationBonusAmount",
      "outputs": [
        {
          "internalType": "uint256",
          "name": "",
          "type": "uint256"
        }
      ],
      "stateMutability": "view",
      "type": "function"
    },
    {
      "inputs": [],
      "name": "liquidationMultiplier",
      "outputs": [
        {
          "internalType": "uint256",
          "name": "",
          "type": "uint256"
        }
      ],
      "stateMutability": "view",
      "type": "function"
    },
    {
      "inputs": [],
      "name": "liquidationQueue",
      "outputs": [
        {
          "internalType": "contract ILiquidationQueue",
          "name": "",
          "type": "address"
        }
      ],
      "stateMutability": "view",
      "type": "function"
    },
    {
      "inputs": [],
      "name": "lqCollateralizationRate",
      "outputs": [
        {
          "internalType": "uint256",
          "name": "",
          "type": "uint256"
        }
      ],
      "stateMutability": "view",
      "type": "function"
    },
    {
      "inputs": [],
      "name": "maxLiquidatorReward",
      "outputs": [
        {
          "internalType": "uint256",
          "name": "",
          "type": "uint256"
        }
      ],
      "stateMutability": "view",
      "type": "function"
    },
    {
      "inputs": [],
      "name": "minLiquidatorReward",
      "outputs": [
        {
          "internalType": "uint256",
          "name": "",
          "type": "uint256"
        }
      ],
      "stateMutability": "view",
      "type": "function"
    },
    {
      "inputs": [],
      "name": "name",
      "outputs": [
        {
          "internalType": "string",
          "name": "",
          "type": "string"
        }
      ],
      "stateMutability": "view",
      "type": "function"
    },
    {
      "inputs": [
        {
          "internalType": "address",
          "name": "owner",
          "type": "address"
        }
      ],
      "name": "nonces",
      "outputs": [
        {
          "internalType": "uint256",
          "name": "",
          "type": "uint256"
        }
      ],
      "stateMutability": "view",
      "type": "function"
    },
    {
      "inputs": [],
      "name": "oracle",
      "outputs": [
        {
          "internalType": "contract IOracle",
          "name": "",
          "type": "address"
        }
      ],
      "stateMutability": "view",
      "type": "function"
    },
    {
      "inputs": [],
      "name": "oracleData",
      "outputs": [
        {
          "internalType": "bytes",
          "name": "",
          "type": "bytes"
        }
      ],
      "stateMutability": "view",
      "type": "function"
    },
    {
      "inputs": [],
      "name": "orderBookLiquidationMultiplier",
      "outputs": [
        {
          "internalType": "uint256",
          "name": "",
          "type": "uint256"
        }
      ],
      "stateMutability": "view",
      "type": "function"
    },
    {
      "inputs": [],
      "name": "owner",
      "outputs": [
        {
          "internalType": "address",
          "name": "",
          "type": "address"
        }
      ],
      "stateMutability": "view",
      "type": "function"
    },
    {
      "inputs": [],
      "name": "paused",
      "outputs": [
        {
          "internalType": "bool",
          "name": "",
          "type": "bool"
        }
      ],
      "stateMutability": "view",
      "type": "function"
    },
    {
      "inputs": [],
      "name": "pendingOwner",
      "outputs": [
        {
          "internalType": "address",
          "name": "",
          "type": "address"
        }
      ],
      "stateMutability": "view",
      "type": "function"
    },
    {
      "inputs": [],
      "name": "penrose",
      "outputs": [
        {
          "internalType": "contract IPenrose",
          "name": "",
          "type": "address"
        }
      ],
      "stateMutability": "view",
      "type": "function"
    },
    {
      "inputs": [
        {
          "internalType": "address",
          "name": "owner",
          "type": "address"
        },
        {
          "internalType": "address",
          "name": "spender",
          "type": "address"
        },
        {
          "internalType": "uint256",
          "name": "value",
          "type": "uint256"
        },
        {
          "internalType": "uint256",
          "name": "deadline",
          "type": "uint256"
        },
        {
          "internalType": "uint8",
          "name": "v",
          "type": "uint8"
        },
        {
          "internalType": "bytes32",
          "name": "r",
          "type": "bytes32"
        },
        {
          "internalType": "bytes32",
          "name": "s",
          "type": "bytes32"
        }
      ],
      "name": "permit",
      "outputs": [],
      "stateMutability": "nonpayable",
      "type": "function"
    },
    {
      "inputs": [
        {
          "internalType": "address",
          "name": "owner",
          "type": "address"
        },
        {
          "internalType": "address",
          "name": "spender",
          "type": "address"
        },
        {
          "internalType": "uint256",
          "name": "value",
          "type": "uint256"
        },
        {
          "internalType": "uint256",
          "name": "deadline",
          "type": "uint256"
        },
        {
          "internalType": "uint8",
          "name": "v",
          "type": "uint8"
        },
        {
          "internalType": "bytes32",
          "name": "r",
          "type": "bytes32"
        },
        {
          "internalType": "bytes32",
          "name": "s",
          "type": "bytes32"
        }
      ],
      "name": "permitBorrow",
      "outputs": [],
      "stateMutability": "nonpayable",
      "type": "function"
    },
    {
      "inputs": [],
      "name": "protocolFee",
      "outputs": [
        {
          "internalType": "uint256",
          "name": "",
          "type": "uint256"
        }
      ],
      "stateMutability": "view",
      "type": "function"
    },
    {
      "inputs": [
        {
          "internalType": "address",
          "name": "from",
          "type": "address"
        },
        {
          "internalType": "address",
          "name": "to",
          "type": "address"
        },
        {
          "internalType": "uint256",
          "name": "share",
          "type": "uint256"
        }
      ],
      "name": "removeCollateral",
      "outputs": [],
      "stateMutability": "nonpayable",
      "type": "function"
    },
    {
      "inputs": [
        {
          "internalType": "uint256",
          "name": "_cap",
          "type": "uint256"
        }
      ],
      "name": "setBorrowCap",
      "outputs": [],
      "stateMutability": "nonpayable",
      "type": "function"
    },
    {
      "inputs": [
        {
          "internalType": "uint256",
          "name": "_val",
          "type": "uint256"
        }
      ],
      "name": "setBorrowOpeningFee",
      "outputs": [],
      "stateMutability": "nonpayable",
      "type": "function"
    },
    {
      "inputs": [
        {
          "internalType": "uint256",
          "name": "_val",
          "type": "uint256"
        }
      ],
      "name": "setCallerFee",
      "outputs": [],
      "stateMutability": "nonpayable",
      "type": "function"
    },
    {
      "inputs": [
        {
          "internalType": "uint256",
          "name": "_val",
          "type": "uint256"
        }
      ],
      "name": "setCollateralizationRate",
      "outputs": [],
      "stateMutability": "nonpayable",
      "type": "function"
    },
    {
      "inputs": [
        {
          "internalType": "address",
          "name": "_conservator",
          "type": "address"
        }
      ],
      "name": "setConservator",
      "outputs": [],
      "stateMutability": "nonpayable",
      "type": "function"
    },
    {
      "inputs": [
        {
          "internalType": "uint256",
          "name": "_val",
          "type": "uint256"
        }
      ],
      "name": "setLiquidationBonusAmount",
      "outputs": [],
      "stateMutability": "nonpayable",
      "type": "function"
    },
    {
      "inputs": [
        {
          "internalType": "uint256",
          "name": "_val",
          "type": "uint256"
        }
      ],
      "name": "setMaxLiquidatorReward",
      "outputs": [],
      "stateMutability": "nonpayable",
      "type": "function"
    },
    {
      "inputs": [
        {
          "internalType": "uint256",
          "name": "_val",
          "type": "uint256"
        }
      ],
      "name": "setMinLiquidatorReward",
      "outputs": [],
      "stateMutability": "nonpayable",
      "type": "function"
    },
    {
      "inputs": [
        {
          "internalType": "bytes",
          "name": "_oracleData",
          "type": "bytes"
        }
      ],
      "name": "setOracleData",
      "outputs": [],
      "stateMutability": "nonpayable",
      "type": "function"
    },
    {
      "inputs": [
        {
          "internalType": "uint256",
          "name": "_val",
          "type": "uint256"
        }
      ],
      "name": "setProtocolFee",
      "outputs": [],
      "stateMutability": "nonpayable",
      "type": "function"
    },
    {
      "inputs": [],
      "name": "symbol",
      "outputs": [
        {
          "internalType": "string",
          "name": "",
          "type": "string"
        }
      ],
      "stateMutability": "view",
      "type": "function"
    },
    {
      "inputs": [],
      "name": "totalAsset",
      "outputs": [
        {
          "internalType": "uint128",
          "name": "elastic",
          "type": "uint128"
        },
        {
          "internalType": "uint128",
          "name": "base",
          "type": "uint128"
        }
      ],
      "stateMutability": "view",
      "type": "function"
    },
    {
      "inputs": [],
      "name": "totalBorrow",
      "outputs": [
        {
          "internalType": "uint128",
          "name": "elastic",
          "type": "uint128"
        },
        {
          "internalType": "uint128",
          "name": "base",
          "type": "uint128"
        }
      ],
      "stateMutability": "view",
      "type": "function"
    },
    {
      "inputs": [],
      "name": "totalBorrowCap",
      "outputs": [
        {
          "internalType": "uint256",
          "name": "",
          "type": "uint256"
        }
      ],
      "stateMutability": "view",
      "type": "function"
    },
    {
      "inputs": [],
      "name": "totalCollateralShare",
      "outputs": [
        {
          "internalType": "uint256",
          "name": "",
          "type": "uint256"
        }
      ],
      "stateMutability": "view",
      "type": "function"
    },
    {
      "inputs": [],
      "name": "totalSupply",
      "outputs": [
        {
          "internalType": "uint256",
          "name": "",
          "type": "uint256"
        }
      ],
      "stateMutability": "view",
      "type": "function"
    },
    {
      "inputs": [
        {
          "internalType": "address",
          "name": "to",
          "type": "address"
        },
        {
          "internalType": "uint256",
          "name": "amount",
          "type": "uint256"
        }
      ],
      "name": "transfer",
      "outputs": [
        {
          "internalType": "bool",
          "name": "",
          "type": "bool"
        }
      ],
      "stateMutability": "nonpayable",
      "type": "function"
    },
    {
      "inputs": [
        {
          "internalType": "address",
          "name": "from",
          "type": "address"
        },
        {
          "internalType": "address",
          "name": "to",
          "type": "address"
        },
        {
          "internalType": "uint256",
          "name": "amount",
          "type": "uint256"
        }
      ],
      "name": "transferFrom",
      "outputs": [
        {
          "internalType": "bool",
          "name": "",
          "type": "bool"
        }
      ],
      "stateMutability": "nonpayable",
      "type": "function"
    },
    {
      "inputs": [
        {
          "internalType": "address",
          "name": "newOwner",
          "type": "address"
        },
        {
          "internalType": "bool",
          "name": "direct",
          "type": "bool"
        },
        {
          "internalType": "bool",
          "name": "renounce",
          "type": "bool"
        }
      ],
      "name": "transferOwnership",
      "outputs": [],
      "stateMutability": "nonpayable",
      "type": "function"
    },
    {
      "inputs": [],
      "name": "updateExchangeRate",
      "outputs": [
        {
          "internalType": "bool",
          "name": "updated",
          "type": "bool"
        },
        {
          "internalType": "uint256",
          "name": "rate",
          "type": "uint256"
        }
      ],
      "stateMutability": "nonpayable",
      "type": "function"
    },
    {
      "inputs": [
        {
          "internalType": "bool",
          "name": "val",
          "type": "bool"
        }
      ],
      "name": "updatePause",
      "outputs": [],
      "stateMutability": "nonpayable",
      "type": "function"
    },
    {
      "inputs": [
        {
          "internalType": "address",
          "name": "",
          "type": "address"
        }
      ],
      "name": "userBorrowPart",
      "outputs": [
        {
          "internalType": "uint256",
          "name": "",
          "type": "uint256"
        }
      ],
      "stateMutability": "view",
      "type": "function"
    },
    {
      "inputs": [
        {
          "internalType": "address",
          "name": "",
          "type": "address"
        }
      ],
      "name": "userCollateralShare",
      "outputs": [
        {
          "internalType": "uint256",
          "name": "",
          "type": "uint256"
        }
      ],
      "stateMutability": "view",
      "type": "function"
    },
    {
      "inputs": [],
      "name": "yieldBox",
      "outputs": [
        {
          "internalType": "contract YieldBox",
          "name": "",
          "type": "address"
        }
      ],
      "stateMutability": "view",
      "type": "function"
    }
  ],
  "bytecode": "0x6101408060405234620001e9576200001781620001ee565b601381526001602082017f546170696f63612053696e67756c617269747900000000000000000000000000815260206040516200005481620001ee565b8381520192603160f81b845251902091208160e052610100918183524660a0526040519160208301907f8b73c3c69bb8fe3d512ecc4cf759cc79239f7b179b0ffacaa9a75d522b39400f92838352604085015260608401524660808401523060a084015260a0835260c083019280841060018060401b03851117620001d35760408490525190206080523060c052610120908152600580546001600160a01b0319163390811790915560007f8be0079c531659141344cd1fd0a4f28419497f9722a3daafe3b4186f6b6457e08180a36103e860185561271080601955601a556032601c557f0bd4060688a1800ae986e4840aebc924bb40b5bf44de4583df2257220b54b77c6023557f7d1dc38e60930664f8cbf495da6556ca091d2f92d6550877750c049864b182306024556201b5806025556201f0186026556161a860275561347c92836200020b843960805183612767015260a05183612831015260c05183612731015260e051836127b6015251826127dc015251816127930152f35b634e487b7160e01b600052604160045260246000fd5b600080fd5b604081019081106001600160401b03821117620001d35760405256fe608060408181526004908136101561001657600080fd5b600092833560e01c908162a02a2014611d905750806302ce728f14611d6757806306fdde0314611c41578063078dfbe714611b48578063095ea7b314611b1e57806318160ddd14611afd5780631c9e379b14611ac55780631da8bf10146119f65780631e35078e146119b85780631e7ce4481461199957806323b872dd146118125780632a685acd146117c857838163313ce567146117295750806334d441d01461170a5780633644e515146116ed57806338d52e0f146116c45780633ba0b9a9146116a557806340626d8b1461168657806344de240a14611667578063473e3ce71461164857806348e4163e146116105780634d7f2a34146115f15780634e71e0c8146115505780635100b567146114e0578063529898f2146114c157806353aa7dcd1461148357806357935462146114645780635c975abb146114405780636c3d8b8f1461141757806370a08231146113df578063717186d11461136f57806374645ff314611331578063787dce3d146112f35780637a4d973b146112a95780637dc0d1d0146112805780637ecebe001461124a5780637fa0b84e146112195780638285ef40146111e65780638c5d0ed3146111c75780638da5cb5b1461119e578063959916dc1461117f57806395d89b411461105257806399a97028146110015780639e15e89f14610fc6578063a9059cbb14610eeb578063a96be18e14610d63578063b0e21e8a14610d44578063b27c0e7414610d0a578063b6b113d814610cda578063bb4cfe3b14610cbb578063c23ea21f14610c92578063cce19f8114610ae3578063ce8849ed14610ab6578063d272bd0914610a79578063d505accf146108de578063d8dfeb45146108b5578063dd62ed3e14610867578063de4065771461083e578063e0996cb61461081f578063e30c3978146107f6578063e9a4925214610540578063eec0f42e14610521578063f8974de014610426578063f8ba4cff14610407578063f9557ccb146103cc5763fa74f0b5146102fb57600080fd5b346103c85760203660031901126103c857610314611dd6565b9060018060a01b039261032c84600554163314612053565b838316918215610389575050600d54928360081c167f5a62d22209e370e38eea92cfddcd228e656e6ec139243392a760a7769f5877fd8580a3610100600160a81b031990911660089190911b610100600160a81b031617600d5580f35b906020606492519162461bcd60e51b8352820152601960248201527813585c9ad95d0e881859191c995cdcc81b9bdd081d985b1a59603a1b6044820152fd5b8280fd5b83823461040357816003193601126104035760205490519081906103ff90608081901c906001600160801b031683612039565b0390f35b5080fd5b8334610423578060031936011261042357610420612bdd565b80f35b80fd5b50346103c85760203660031901126103c85781359081151580920361051c57600d5492600884901c6001600160a01b031633036104e35760ff84161515908184146104ab5750817f9c13c5f6c628c1c82eb2b3fd8714da5c2857dbd0ad8ab6b2074abcf81015d3969160ff949351908152836020820152a1169060ff191617600d5580f35b606490602084519162461bcd60e51b835282015260126024820152714d61726b65743a2073616d6520737461746560701b6044820152fd5b6020606492519162461bcd60e51b8352820152601460248201527313585c9ad95d0e881d5b985d5d1a1bdc9a5e995960621b6044820152fd5b600080fd5b838234610403578160031936011261040357602090600a549051908152f35b508290346104035760a03660031901126104035761055c611dd6565b90610565611dec565b9361056e611e4a565b946084359261058260ff600d5416156120de565b61058c8486612b29565b831561076f575b60018060a01b0380921694858752602093601585528288206105b6878254612164565b90556012546105c58782612164565b601255600a5490600c548214600014610767576023545b898b5260228852858b20908b528752848a206105f9898254612164565b90558a156106e057868660075416926044875180958193627eeac760e11b8352308984015260248301525afa80156106d6578a906106a7575b61063c92506121fc565b861161067457506000805160206133c7833981519152949596975b1561066e57508160075416905b519485521692a380f35b90610664565b825162461bcd60e51b8152908101859052600d60248201526c0a68e987440e8dede40daeac6d609b1b6044820152606490fd5b508682813d83116106cf575b6106bd8183612016565b8101031261051c5761063c9151610632565b503d6106b3565b85513d8c823e3d90fd5b5090889996979891856007541691823b156107635761071b928492838c93895196879586948593630208d92960e11b85528c30918601613112565b03925af1801561075957610741575b50506000805160206133c783398151915294610657565b61074a90611f9c565b61075557878961072a565b8780fd5b84513d84823e3d90fd5b8380fd5b6024546105dc565b925060018060a01b03600754166020600a546064865180948193638eb22cdd60e01b835288830152823560248301528a60448301525afa9081156107ec5786916107bb575b5092610593565b90506020813d82116107e4575b816107d560209383612016565b8101031261051c5751876107b4565b3d91506107c8565b84513d88823e3d90fd5b83823461040357816003193601126104035760065490516001600160a01b039091168152602090f35b838234610403578160031936011261040357602090601a549051908152f35b83823461040357816003193601126104035760075490516001600160a01b039091168152602090f35b838234610403578060031936011261040357602091610884611dd6565b8261088d611dec565b6001600160a01b03928316845260028652922091166000908152908352819020549051908152f35b83823461040357816003193601126104035760095490516001600160a01b039091168152602090f35b50919034610403576108ef36611e59565b90839794979695964211610a365760018060a01b03928387169485600052866020528b6000208054906000198214610a2157878b8f9294848f6109c4999760016109cc9c9a980190558b86519460208601967f6e71edae12b1b97f4d1f60370fef10105fa2faae0126114a169c64845d6126c9885288870152166060850152608084015260a083015260c082015260c0815261098a81611fe0565b51902061099561272e565b915190602082019261190160f01b845260228301526042820152604281526109bc81611ffb565b5190206129f6565b9190916128e1565b16036109de5750610420939450612ad2565b606490602087519162461bcd60e51b8352820152601e60248201527f45524332305065726d69743a20696e76616c6964207369676e617475726500006044820152fd5b601189634e487b7160e01b6000525260246000fd5b895162461bcd60e51b8152602081870152601d60248201527f45524332305065726d69743a206578706972656420646561646c696e650000006044820152606490fd5b5050346104035760203660031901126104035735610aa260018060a01b03600554163314612053565b610ab0620186a0821061209e565b601a5580f35b838234610403578160031936011261040357600d54905160089190911c6001600160a01b03168152602090f35b50346103c857610af236611ea8565b929190610b0460ff600d5416156120de565b610b0c612350565b5050610b16612bdd565b610b208483612b29565b60018060a01b0393848316918288528760209660158852868220610b458582546121fc565b9055610b53846012546121fc565b6012558651848152857f8ad4d3ff00da092c7ad9a573ea4f5f6a3dffc6712dc06d3f78f49b862297c4028a84871693a360075416600a5490803b156103c8578493838b610bb58b5197889687958694630208d92960e11b865230908601613112565b03925af18015610c8857610c6f575b5090610c0c92918188526022865284882060245490818a528752858920548211600014610c4a5750508652602284528286206024548752845285838120555b60105490612462565b15610c15578380f35b5162461bcd60e51b815291820152601160248201527013585c9ad95d0e881a5b9cdbdb1d995b9d607a1b604482015260649150fd5b90918852602286528488209088528552610c688488209182546121fc565b9055610c03565b96610c7f610c0c94939298611f9c565b96909192610bc4565b85513d8a823e3d90fd5b83823461040357816003193601126104035760215490516001600160a01b039091168152602090f35b838234610403578160031936011261040357602090601b549051908152f35b838234610403578060031936011261040357602090610d03610cfa611dd6565b60243590612171565b9051908152f35b838234610403578160031936011261040357606090601f549080519160018060401b03808216845281831c16602084015260801c90820152f35b8382346104035781600319360112610403576020906017549051908152f35b8284346104235760209182600319360112610403576001600160401b03908035908282116107635736602383011215610763578101359182116103c8576024903682848301011161076357610dc360018060a01b03600554163314612053565b610dce600f54611edd565b601f8111610ea7575b508394601f8411600114610e3c5750938394839493610e2f575b5050508160011b916000199060031b1c191617600f555b7fa6f004921c944d4b8bf6e38462b00f36a58d62495d56b51f571ab78f732c98158180a180f35b0101359050838080610df1565b91601f19841695600f86528386209386905b888210610e8d575050846001969710610e71575b50505050811b01600f55610e08565b60001960f88660031b161c199201013516905583808080610e62565b806001849786839596890101358155019601920190610e4e565b600f8552858520601f850160051c810191878610610ee1575b601f0160051c01905b818110610ed65750610dd7565b858155600101610ec9565b9091508190610ec0565b838234610403578060031936011261040357602091610f08611dd6565b82602435928315801590610fb4575b610f47575b50519182526001600160a01b0316903390600080516020613407833981519152908590a35160018152f35b3381526001865281812054610f5e85821015612857565b6001600160a01b038416908533839003610f7b575b505050610f1c565b610f8f91610f8a84151561289c565b6121fc565b3383526001885283832055815220610fa8838254612164565b90558285808085610f73565b50336001600160a01b03841614610f17565b838234610403578060031936011261040357606090610fef610fe6611dd6565b60243590612209565b91929081519384526020840152820152f35b838234610403578060031936011261040357602091610d03906001600160a01b0361102a611dd6565b16808252601585528361104260243582852054612571565b9390928152601487522054612622565b508290346104035781600319360112610403576009546001600160a01b03939061107d908516613204565b61108a85600b5416613204565b94600e541693835163634ce26b60e11b81528181602097888783015281806110b460248201611f17565b03915afa91821561117457926024926103ff969592856111429692611151575b5050855198899261746d60f01b8a8501526110f8815180928c602288019101611e02565b8301602f60f81b6022820152611117825180938c602385019101611e02565b01602d60f81b6023820152611134825180938b8885019101611e02565b010390810187520185612016565b51928284938452830190611e25565b61116d92503d8091833e6111658183612016565b810190613157565b89806110d4565b8551903d90823e3d90fd5b838234610403578160031936011261040357602090601c549051908152f35b83823461040357816003193601126104035760055490516001600160a01b039091168152602090f35b8382346104035781600319360112610403576020906018549051908152f35b83823461040357816003193601126104035760115490519081906103ff90608081901c906001600160801b031683612039565b838234610403578060031936011261040357602090611243611239611dd6565b6024359033612a7b565b5160018152f35b5090346103c85760203660031901126103c85760209282916001600160a01b03611272611dd6565b168252845220549051908152f35b838234610403578160031936011261040357600e5490516001600160a01b039091168152602090f35b50503461040357602036600319011261040357356112d260018060a01b03600554163314612053565b6112e0620186a0821061209e565b6112ed601954821061209e565b60185580f35b505034610403576020366003190112610403573561131c60018060a01b03600554163314612053565b61132b620186a082111561209e565b60175580f35b83823461040357816003193601126104035780516103ff9161135d8261135681611f17565b0383612016565b51918291602083526020830190611e25565b5090346103c85760203660031901126103c8577fae6e0ab3b95f0a53ff9660a390ccedcbbf1f2355dce974a9841af106fddcfaba9035916113b560ff600d5416156120de565b6113ca60018060a01b03600554163314612053565b6013548151908152836020820152a160135580f35b8382346104035760203660031901126104035760209181906001600160a01b03611407611dd6565b1681526001845220549051908152f35b83823461040357816003193601126104035760085490516001600160a01b039091168152602090f35b83823461040357816003193601126104035760209060ff600d541690519015158152f35b8382346104035781600319360112610403576020906019549051908152f35b50503461040357602036600319011261040357356114ac60018060a01b03600554163314612053565b6114bb620186a082111561209e565b60165580f35b8382346104035781600319360112610403576020906025549051908152f35b5090346103c85760203660031901126103c8577fc353b09af857951dccce61b43a5854fc45beceed36c50e5d4cc2e71858a8e0df90359161152c60018060a01b03600554163314612053565b61153b620186a084111561209e565b601c548151908152836020820152a1601c5580f35b50346103c857826003193601126103c8576006546001600160a01b039290918383169190338390036115ae575050806005549384166000805160206133e78339815191528680a36001600160a01b0319928316176005551660065580f35b906020606492519162461bcd60e51b8352820152602060248201527f4f776e61626c653a2063616c6c657220213d2070656e64696e67206f776e65726044820152fd5b8382346104035781600319360112610403576020906027549051908152f35b8382346104035760203660031901126104035760209181906001600160a01b03611638611dd6565b1681526014845220549051908152f35b8382346104035781600319360112610403576020906012549051908152f35b838234610403578160031936011261040357602090600c549051908152f35b8382346104035781600319360112610403576020906013549051908152f35b8382346104035781600319360112610403576020906010549051908152f35b838234610403578160031936011261040357600b5490516001600160a01b039091168152602090f35b838234610403578160031936011261040357602090610d0361272e565b8382346104035781600319360112610403576020906016549051908152f35b82818534610403578160031936011261040357600b54835163313ce56760e01b6020820190815292815283926001600160a01b03909216919061176b81611fc5565b51915afa6117776131b5565b90806117bd575b156117ae576020818051810103126103c857602001519160ff83168303610423575060ff602092915b5191168152f35b506020915060ff6012916117a7565b50602081511461177e565b50503461040357602036600319011261040357356117f160018060a01b03600554163314612053565b6117ff620186a0821061209e565b61180c601854821161209e565b60195580f35b5082346104235761182236611ea8565b91928261185c575b508351918252602094506001600160a01b03908116921690600080516020613407833981519152908590a35160018152f35b6001600160a01b03848116808352600160209081528784205491989290919061188787831015612857565b851692838a0361189b575b5050505061182a565b898552600283528885203386528352888520549060018201611905575b5050928260209960018a946118e48a8e99610f8a6000805160206134078339815191529c9a151561289c565b92855252838320558152206118fa858254612164565b905591878080611892565b87821061195b57509260209960018a946118e48a8e9996611936826000805160206134078339815191529d9b6121fc565b86895260028552898920338a52855289892055969950505094505099819496506118b8565b895162461bcd60e51b8152908101849052601860248201527745524332303a20616c6c6f77616e636520746f6f206c6f7760401b6044820152606490fd5b8382346104035781600319360112610403576020906026549051908152f35b50503461040357602036600319011261040357356119e160018060a01b03600554163314612053565b6119f0620186a082111561209e565b601b5580f35b5091903461040357611a0736611e59565b90839794979695964211610a365760018060a01b039283871694858b52866020528b8b208054906000198214611ab257878b8f9294848f6109c499976001611aa09c9a980190558b86519460208601967fe9685ff6d48c617fe4f692c50e602cce27cbad0290beb93cfa77eac43968d58c885288870152166060850152608084015260a083015260c082015260c0815261098a81611fe0565b16036109de5750610420939450612a7b565b634e487b7160e01b8d526011895260248dfd5b8382346104035760203660031901126104035760209181906001600160a01b03611aed611dd6565b1681526015845220549051908152f35b838234610403578160031936011261040357602090815460801c9051908152f35b838234610403578060031936011261040357602090611243611b3e611dd6565b6024359033612ad2565b50346103c85760603660031901126103c857611b62611dd6565b91602435918215158303611c3d57611b78611e4a565b9260018060a01b03948591611b9283600554163314612053565b15611c24571692831590811591611c1c575b5015611be1575050806005549283166000805160206133e78339815191528580a36001600160a01b03199182161760055560068054909116905580f35b906020606492519162461bcd60e51b835282015260156024820152744f776e61626c653a207a65726f206164647265737360581b6044820152fd5b905038611ba4565b93505050501660018060a01b0319600654161760065580f35b8480fd5b50346103c857826003193601126103c8576009546001600160a01b039390611c6a9085166133a3565b90611c7885600b54166133a3565b94600e5416818451809263355a219b60e21b8252602080988301528180611ca160248201611f17565b03915afa918215611d5c579261114292603692856103ff979692611d41575b505084519788927302a30b834b7b1b09029b4b733bab630b934ba3c960651b89850152611cf6815180928b603488019101611e02565b8301602f60f81b6034820152611d15825180938b603585019101611e02565b01602d60f81b6035820152611d32825180938a8785019101611e02565b01036016810187520185612016565b611d5592503d8091833e6111658183612016565b3880611cc0565b8451903d90823e3d90fd5b50823461042357806003193601126104235750611d82612350565b825191151582526020820152f35b925050346103c857806003193601126103c857602092611dae611dd6565b611db6611dec565b6001600160a01b0391821683526003865283832091168252845220548152f35b600435906001600160a01b038216820361051c57565b602435906001600160a01b038216820361051c57565b60005b838110611e155750506000910152565b8181015183820152602001611e05565b90602091611e3e81518092818552858086019101611e02565b601f01601f1916010190565b60443590811515820361051c57565b60e090600319011261051c576001600160a01b0390600435828116810361051c5791602435908116810361051c5790604435906064359060843560ff8116810361051c579060a4359060c43590565b606090600319011261051c576001600160a01b0390600435828116810361051c5791602435908116810361051c579060443590565b90600182811c92168015611f0d575b6020831014611ef757565b634e487b7160e01b600052602260045260246000fd5b91607f1691611eec565b600f5460009291611f2782611edd565b908181526001928381169081600014611f815750600114611f4757505050565b90929350600f6000526020928360002092846000945b838610611f6d5750505050010190565b805485870183015294019385908201611f5d565b91935050602093945060ff191683830152151560051b010190565b6001600160401b038111611faf57604052565b634e487b7160e01b600052604160045260246000fd5b604081019081106001600160401b03821117611faf57604052565b60e081019081106001600160401b03821117611faf57604052565b608081019081106001600160401b03821117611faf57604052565b601f909101601f19168101906001600160401b03821190821017611faf57604052565b6001600160801b0391821681529116602082015260400190565b1561205a57565b606460405162461bcd60e51b815260206004820152602060248201527f4f776e61626c653a2063616c6c6572206973206e6f7420746865206f776e65726044820152fd5b156120a557565b60405162461bcd60e51b815260206004820152601160248201527013585c9ad95d0e881b9bdd081d985b1a59607a1b6044820152606490fd5b156120e557565b60405162461bcd60e51b815260206004820152600e60248201526d13585c9ad95d0e881c185d5cd95960921b6044820152606490fd5b8181029291811591840414171561212e57565b634e487b7160e01b600052601160045260246000fd5b811561214e570490565b634e487b7160e01b600052601260045260246000fd5b9190820180921161212e57565b9061217c8183612462565b6121cf5761218a9082612209565b6001600160a01b039093166000908152601460205260409020549283101590506121cb57620186a06121c16121c893601a5461211b565b0490612164565b90565b5090565b5050600090565b604051906121e382611fc5565b6011546001600160801b038116835260801c6020830152565b9190820391821161212e57565b6001600160a01b039081166000818152601460209081526040822054929594939192909181156123435761223b6121d6565b906007541683600a5489875260158252606461226f61226660408a2054620186a0601d54049061211b565b601b549061211b565b91604051948593849263442c159960e01b8452600484015260248301528960448301525afa908115612338578591612309575b50928594926122e16015936122bc6122fd99604098612144565b815190936001600160801b039186916122d79184169061211b565b9201511690612144565b90808210612301576122f2916121fc565b978352522054612571565b9091565b5050826122f2565b90508381813d8311612331575b6123208183612016565b81010312611c3d57516122fd6122a2565b503d612316565b6040513d87823e3d90fd5b5050509192505080918190565b60018060a01b03600e54169060409081519263d6d7d52560e01b8452602060048501528284604481600080958160248401525af19081156124575780948192612416575b5050918360001461240e5782156123d45760207f9f9192b5edb17356c524e08d9e025c8e2f6307e6ea52fb7968faa3081f51c3c8918460105551848152a1565b5162461bcd60e51b81526020600482015260146024820152734d61726b65743a20696e76616c6964207261746560601b6044820152606490fd5b506010549150565b84809296508193503d8311612450575b6124308183612016565b810103126107635780519384151585036104235750602001513880612394565b503d612426565b8351903d90823e3d90fd5b91909160018060a01b0380600092168252602060148152604083205490811561256757601581526040842054801561255e578161249d6121d6565b94600754169160646124bd612266600a5493620186a0601d54049061211b565b91604051948593849263442c159960e01b8452600484015260248301528960448301525afa94851561255257809561251a575b50506122d761251594959661251060018060801b0394858751169061211b565b61211b565b111590565b909694508187813d831161254b575b6125338183612016565b810103126104235750945192946122d76125156124f0565b503d612529565b604051903d90823e3d90fd5b50929450505050565b5060019450505050565b602060018060a01b0360075416916064600a54604051948593849263442c159960e01b845260048401526024830152600060448301525afa908115612616576000916125e3575b50906125ca6125cf92601d549061211b565b612144565b620186a06125df601b548361211b565b0491565b906020823d821161260e575b816125fc60209383612016565b810103126104235750516125ca6125b8565b3d91506125ef565b6040513d6000823e3d90fd5b801561272657811561272657818110612726578281101561271d5781612647916121fc565b620186a0928382029180830485149015171561212e576126709261266a916121fc565b90612144565b601854916019549283810390600093848612828412811690838513901516176127095782810292858112600160ff1b8314166126f55783051490851417156126e157058183820193841291129080158216911516176126cd575090565b634e487b7160e01b81526011600452602490fd5b634e487b7160e01b83526011600452602483fd5b634e487b7160e01b86526011600452602486fd5b634e487b7160e01b85526011600452602485fd5b50505060185490565b505050600090565b307f00000000000000000000000000000000000000000000000000000000000000006001600160a01b0316148061282e575b15612789577f000000000000000000000000000000000000000000000000000000000000000090565b60405160208101907f000000000000000000000000000000000000000000000000000000000000000082527f000000000000000000000000000000000000000000000000000000000000000060408201527f000000000000000000000000000000000000000000000000000000000000000060608201524660808201523060a082015260a0815260c0810181811060018060401b03821117611faf5760405251902090565b507f00000000000000000000000000000000000000000000000000000000000000004614612760565b1561285e57565b60405162461bcd60e51b815260206004820152601660248201527545524332303a2062616c616e636520746f6f206c6f7760501b6044820152606490fd5b156128a357565b60405162461bcd60e51b815260206004820152601660248201527545524332303a206e6f207a65726f206164647265737360501b6044820152606490fd5b60058110156129e057806128f25750565b6001810361293a5760405162461bcd60e51b815260206004820152601860248201527745434453413a20696e76616c6964207369676e617475726560401b6044820152606490fd5b600281036129875760405162461bcd60e51b815260206004820152601f60248201527f45434453413a20696e76616c6964207369676e6174757265206c656e677468006044820152606490fd5b60031461299057565b60405162461bcd60e51b815260206004820152602260248201527f45434453413a20696e76616c6964207369676e6174757265202773272076616c604482015261756560f01b6064820152608490fd5b634e487b7160e01b600052602160045260246000fd5b9291906fa2a8918ca85bafe22016d0b997e4df60600160ff1b038311612a6f5791608094939160ff602094604051948552168484015260408301526060820152600093849182805260015afa15612a625781516001600160a01b03811615612a5c579190565b50600190565b50604051903d90823e3d90fd5b50505050600090600390565b909160207fe50de2333c10a9502fcb1d8ae13a51bbf423153dfc63c2b8997665b32154afc39160018060a01b03809416938460005260038352604060002095169485600052825280604060002055604051908152a3565b909160207f8c5be1e5ebec7d5bd14f71427d1e84f3dd0314c0f7b2291e5b200ac8c7c3b9259160018060a01b03809416938460005260028352604060002095169485600052825280604060002055604051908152a3565b6001600160a01b0316338103612b3d575050565b60009080825260036020526040822033835260205282604083205410612b815781604091612b7d93526003602052818120338252602052209182546121fc565b9055565b60449060405190630ca03e9b60e11b82526004820152336024820152fd5b601f80546001600160801b031660809290921b6001600160801b031916919091179055565b6001600160801b03918216908216019190821161212e57565b604051606081016001600160401b03811182821017611faf57604052601f549060018060401b0382168152612c2c60018060401b038360401c168060208401528360801c6040840152426121fc565b91821561310d57426001600160401b03166020830152612c4a6121d6565b60208101519091906001600160801b031615613073575060405192612c6e84611fc5565b602080546001600160801b038082168752608082901c9287019290925283518551919492670de0b6b3a764000092612cb6928692612510926001600160401b0316911661211b565b825191900493906001600160801b0390612cd590828716908316612bc4565b168252600754600c54875160405163442c159960e01b815260048101929092526001600160801b031660248201526000604482015290602090829060649082906001600160a01b03165afa80156126165760009061303f575b8351612d4492506001600160801b031690612164565b90612d72826125ca620186a0612d5c6017548a61211b565b60208c01516001600160801b031691900461211b565b60408701519097906001600160801b0390612d9290828b16908316612bc4565b166040880152602001516001600160801b031990612dbc906001600160801b038a81169116612bc4565b6001600160801b03928316608091821b929092169190911760209081558451940151901b6001600160801b0319169216918217601155670de0b6b3a7640000808302928015908404909114171561212e57612e1691612144565b906709b6e64a8ec600009081831015612f505782820382811161212e57670de0b6b3a76400008102908104670de0b6b3a764000014848414171561212e57612e639261251091048061211b565b6b0a9456c7acbaf3a129576cd1602b1b929083019182841161212e5784516001600160401b031684810294811591860414171561212e57612f4695600080516020613427833981519152946080946001600160401b0391612ec49190612144565b168087526304b9a1f0809110612f48575b505b85516040805194855260208501929092526001600160401b0316908301526060820152a18051601f805460208401516001600160801b03199091166001600160401b039390931692909217604092831b600160401b600160801b031617905501516001600160801b0316612b9f565b565b865238612ed5565b9050670b1a2bc2ec5000008211612f7f575b5060008051602061342783398151915291608091612f4695612ed7565b670b1a2bc2ec4fffff1982019082821161212e57670de0b6b3a7640000820291808304670de0b6b3a7640000149015171561212e576125106702c68af0bb140000612fcb93048061211b565b6b0a9456c7acbaf3a129576cd1602b1b929083019182841161212e57612f46956000805160206134278339815191529461301060809560018060401b0389511661211b565b046449d4824600808211613037575b506001600160401b0316865295509092909150612f62565b90503861301f565b506020813d60201161306b575b8161305960209383612016565b8101031261051c57612d449051612d2e565b3d915061304c565b9050612f4692506312e687c08060018060401b03845116036130d6575b50815160208301516001600160801b03199092166001600160401b039190911617604091821b600160401b600160801b031617601f5501516001600160801b0316612b9f565b608081600080516020613427833981519152928552604051906000825260006020830152604082015260006060820152a138613090565b505050565b6001600160a01b039182168152911660208201526040810191909152606081019190915260800190565b6001600160401b038111611faf57601f01601f191660200190565b60208183031261051c578051906001600160401b03821161051c570181601f8201121561051c5780516131898161313c565b926131976040519485612016565b8184526020828401011161051c576121c89160208085019101611e02565b3d156131e0573d906131c68261313c565b916131d46040519384612016565b82523d6000602084013e565b606090565b604051906131f282611fc5565b60038252623f3f3f60e81b6020830152565b6000809160405160208101906395d89b4160e01b82526004815261322781611fc5565b51916001600160a01b03165afa61323c6131b5565b901561324b576121c89061328c565b506121c86131e5565b908151811015613265570160200190565b634e487b7160e01b600052603260045260246000fd5b60ff1660ff811461212e5760010190565b8051604081106132aa5750806020806121c893518301019101613157565b602092908303613398576000805b60ff81168581109081613379575b50156132da576132d59061327b565b6132b8565b9260ff809416926132ea8461313c565b936132f86040519586612016565b808552613307601f199161313c565b013687860137825b8581168781108061335c575b156133515761334c91906133466001600160f81b031961333b8388613254565b5116871a9188613254565b5361327b565b61330f565b505094505050905090565b506001600160f81b03196133708286613254565b5116151561331b565b6001600160f81b0319915061338e9086613254565b51161515386132c6565b9150506121c86131e5565b6000809160405160208101906306fdde0360e01b82526004815261322781611fc556fe9ed03113de523cebfe5e49d5f8e12894b1c0d42ce805990461726444c90eab878be0079c531659141344cd1fd0a4f28419497f9722a3daafe3b4186f6b6457e0ddf252ad1be2c89b69c2b068fc378daa952ba7f163c4a11628f55a4df523b3ef33af5ce86e8438eff54589f85332916444457dfa8685493fbd579b809097026ba2646970667358221220a8e39b5c580687d63eb7f3e08150afad9f1fa193b2e936dac3f056bda6e37b1f64736f6c63430008120033",
  "linkReferences": {},
  "deployedLinkReferences": {}
}