{
  "_format": "hh-sol-artifact-1",
  "contractName": "SGLCommon",
  "sourceName": "contracts/markets/singularity/SGLCommon.sol",
  "abi": [
    {
      "inputs": [],
      "name": "InvalidShortString",
      "type": "error"
    },
    {
      "inputs": [],
      "name": "MinLimit",
      "type": "error"
    },
    {
      "inputs": [
        {
          "internalType": "string",
          "name": "str",
          "type": "string"
        }
      ],
      "name": "StringTooLong",
      "type": "error"
    },
    {
      "inputs": [],
      "name": "TooMuch",
      "type": "error"
    },
    {
      "anonymous": false,
      "inputs": [
        {
          "indexed": true,
          "internalType": "address",
          "name": "owner",
          "type": "address"
        },
        {
          "indexed": true,
          "internalType": "address",
          "name": "spender",
          "type": "address"
        },
        {
          "indexed": false,
          "internalType": "uint256",
          "name": "value",
          "type": "uint256"
        }
      ],
      "name": "Approval",
      "type": "event"
    },
    {
      "anonymous": false,
      "inputs": [
        {
          "indexed": true,
          "internalType": "address",
          "name": "owner",
          "type": "address"
        },
        {
          "indexed": true,
          "internalType": "address",
          "name": "spender",
          "type": "address"
        },
        {
          "indexed": true,
          "internalType": "uint256",
          "name": "value",
          "type": "uint256"
        }
      ],
      "name": "ApprovalBorrow",
      "type": "event"
    },
    {
      "anonymous": false,
      "inputs": [
        {
          "indexed": true,
          "internalType": "address",
          "name": "newAddress",
          "type": "address"
        }
      ],
      "name": "BidExecutionSwapperUpdated",
      "type": "event"
    },
    {
      "anonymous": false,
      "inputs": [
        {
          "indexed": true,
          "internalType": "address",
          "name": "old",
          "type": "address"
        },
        {
          "indexed": true,
          "internalType": "address",
          "name": "_new",
          "type": "address"
        }
      ],
      "name": "ConservatorUpdated",
      "type": "event"
    },
    {
      "anonymous": false,
      "inputs": [],
      "name": "EIP712DomainChanged",
      "type": "event"
    },
    {
      "anonymous": false,
      "inputs": [
        {
          "indexed": false,
          "internalType": "uint256",
          "name": "_oldVal",
          "type": "uint256"
        },
        {
          "indexed": false,
          "internalType": "uint256",
          "name": "_newVal",
          "type": "uint256"
        }
      ],
      "name": "ExchangeRateDurationUpdated",
      "type": "event"
    },
    {
      "anonymous": false,
      "inputs": [
        {
          "indexed": true,
          "internalType": "uint256",
          "name": "oldVal",
          "type": "uint256"
        },
        {
          "indexed": true,
          "internalType": "uint256",
          "name": "newVal",
          "type": "uint256"
        }
      ],
      "name": "InterestElasticityUpdated",
      "type": "event"
    },
    {
      "anonymous": false,
      "inputs": [
        {
          "indexed": true,
          "internalType": "address",
          "name": "oldVal",
          "type": "address"
        },
        {
          "indexed": true,
          "internalType": "address",
          "name": "newVal",
          "type": "address"
        }
      ],
      "name": "LeverageExecutorSet",
      "type": "event"
    },
    {
      "anonymous": false,
      "inputs": [
        {
          "indexed": true,
          "internalType": "address",
          "name": "liquidator",
          "type": "address"
        },
        {
          "indexed": true,
          "internalType": "address[]",
          "name": "users",
          "type": "address[]"
        },
        {
          "indexed": true,
          "internalType": "uint256",
          "name": "liquidatorReward",
          "type": "uint256"
        },
        {
          "indexed": false,
          "internalType": "uint256",
          "name": "protocolReward",
          "type": "uint256"
        },
        {
          "indexed": false,
          "internalType": "uint256",
          "name": "repayedAmount",
          "type": "uint256"
        },
        {
          "indexed": false,
          "internalType": "uint256",
          "name": "collateralShareRemoved",
          "type": "uint256"
        }
      ],
      "name": "Liquidated",
      "type": "event"
    },
    {
      "anonymous": false,
      "inputs": [
        {
          "indexed": true,
          "internalType": "uint256",
          "name": "oldVal",
          "type": "uint256"
        },
        {
          "indexed": true,
          "internalType": "uint256",
          "name": "newVal",
          "type": "uint256"
        }
      ],
      "name": "LiquidationMultiplierUpdated",
      "type": "event"
    },
    {
      "anonymous": false,
      "inputs": [
        {
          "indexed": true,
          "internalType": "uint256",
          "name": "accruedAmount",
          "type": "uint256"
        },
        {
          "indexed": true,
          "internalType": "uint256",
          "name": "feeFraction",
          "type": "uint256"
        },
        {
          "indexed": true,
          "internalType": "uint64",
          "name": "rate",
          "type": "uint64"
        },
        {
          "indexed": false,
          "internalType": "uint256",
          "name": "utilization",
          "type": "uint256"
        }
      ],
      "name": "LogAccrue",
      "type": "event"
    },
    {
      "anonymous": false,
      "inputs": [
        {
          "indexed": true,
          "internalType": "address",
          "name": "from",
          "type": "address"
        },
        {
          "indexed": true,
          "internalType": "address",
          "name": "to",
          "type": "address"
        },
        {
          "indexed": true,
          "internalType": "uint256",
          "name": "share",
          "type": "uint256"
        },
        {
          "indexed": false,
          "internalType": "uint256",
          "name": "fraction",
          "type": "uint256"
        }
      ],
      "name": "LogAddAsset",
      "type": "event"
    },
    {
      "anonymous": false,
      "inputs": [
        {
          "indexed": true,
          "internalType": "address",
          "name": "from",
          "type": "address"
        },
        {
          "indexed": true,
          "internalType": "address",
          "name": "to",
          "type": "address"
        },
        {
          "indexed": true,
          "internalType": "uint256",
          "name": "share",
          "type": "uint256"
        }
      ],
      "name": "LogAddCollateral",
      "type": "event"
    },
    {
      "anonymous": false,
      "inputs": [
        {
          "indexed": true,
          "internalType": "address",
          "name": "from",
          "type": "address"
        },
        {
          "indexed": true,
          "internalType": "address",
          "name": "to",
          "type": "address"
        },
        {
          "indexed": true,
          "internalType": "uint256",
          "name": "amount",
          "type": "uint256"
        },
        {
          "indexed": false,
          "internalType": "uint256",
          "name": "feeAmount",
          "type": "uint256"
        },
        {
          "indexed": false,
          "internalType": "uint256",
          "name": "part",
          "type": "uint256"
        }
      ],
      "name": "LogBorrow",
      "type": "event"
    },
    {
      "anonymous": false,
      "inputs": [
        {
          "indexed": true,
          "internalType": "uint256",
          "name": "_oldVal",
          "type": "uint256"
        },
        {
          "indexed": true,
          "internalType": "uint256",
          "name": "_newVal",
          "type": "uint256"
        }
      ],
      "name": "LogBorrowCapUpdated",
      "type": "event"
    },
    {
      "anonymous": false,
      "inputs": [
        {
          "indexed": true,
          "internalType": "uint256",
          "name": "_oldVal",
          "type": "uint256"
        },
        {
          "indexed": true,
          "internalType": "uint256",
          "name": "_newVal",
          "type": "uint256"
        }
      ],
      "name": "LogBorrowingFee",
      "type": "event"
    },
    {
      "anonymous": false,
      "inputs": [
        {
          "indexed": true,
          "internalType": "uint256",
          "name": "rate",
          "type": "uint256"
        }
      ],
      "name": "LogExchangeRate",
      "type": "event"
    },
    {
      "anonymous": false,
      "inputs": [
        {
          "indexed": true,
          "internalType": "address",
          "name": "from",
          "type": "address"
        },
        {
          "indexed": true,
          "internalType": "address",
          "name": "to",
          "type": "address"
        },
        {
          "indexed": true,
          "internalType": "uint256",
          "name": "share",
          "type": "uint256"
        },
        {
          "indexed": false,
          "internalType": "uint256",
          "name": "fraction",
          "type": "uint256"
        }
      ],
      "name": "LogRemoveAsset",
      "type": "event"
    },
    {
      "anonymous": false,
      "inputs": [
        {
          "indexed": true,
          "internalType": "address",
          "name": "from",
          "type": "address"
        },
        {
          "indexed": true,
          "internalType": "address",
          "name": "to",
          "type": "address"
        },
        {
          "indexed": true,
          "internalType": "uint256",
          "name": "share",
          "type": "uint256"
        }
      ],
      "name": "LogRemoveCollateral",
      "type": "event"
    },
    {
      "anonymous": false,
      "inputs": [
        {
          "indexed": true,
          "internalType": "address",
          "name": "from",
          "type": "address"
        },
        {
          "indexed": true,
          "internalType": "address",
          "name": "to",
          "type": "address"
        },
        {
          "indexed": true,
          "internalType": "uint256",
          "name": "amount",
          "type": "uint256"
        },
        {
          "indexed": false,
          "internalType": "uint256",
          "name": "part",
          "type": "uint256"
        }
      ],
      "name": "LogRepay",
      "type": "event"
    },
    {
      "anonymous": false,
      "inputs": [
        {
          "indexed": true,
          "internalType": "address",
          "name": "feeTo",
          "type": "address"
        },
        {
          "indexed": true,
          "internalType": "uint256",
          "name": "feesEarnedFraction",
          "type": "uint256"
        }
      ],
      "name": "LogWithdrawFees",
      "type": "event"
    },
    {
      "anonymous": false,
      "inputs": [
        {
          "indexed": true,
          "internalType": "uint256",
          "name": "feeShares",
          "type": "uint256"
        },
        {
          "indexed": true,
          "internalType": "uint256",
          "name": "ethAmount",
          "type": "uint256"
        }
      ],
      "name": "LogYieldBoxFeesDeposit",
      "type": "event"
    },
    {
      "anonymous": false,
      "inputs": [
        {
          "indexed": true,
          "internalType": "uint256",
          "name": "oldVal",
          "type": "uint256"
        },
        {
          "indexed": true,
          "internalType": "uint256",
          "name": "newVal",
          "type": "uint256"
        }
      ],
      "name": "LqCollateralizationRateUpdated",
      "type": "event"
    },
    {
      "anonymous": false,
      "inputs": [
        {
          "indexed": true,
          "internalType": "uint256",
          "name": "oldVal",
          "type": "uint256"
        },
        {
          "indexed": true,
          "internalType": "uint256",
          "name": "newVal",
          "type": "uint256"
        }
      ],
      "name": "MaximumInterestPerSecondUpdated",
      "type": "event"
    },
    {
      "anonymous": false,
      "inputs": [
        {
          "indexed": true,
          "internalType": "uint256",
          "name": "oldVal",
          "type": "uint256"
        },
        {
          "indexed": true,
          "internalType": "uint256",
          "name": "newVal",
          "type": "uint256"
        }
      ],
      "name": "MaximumTargetUtilizationUpdated",
      "type": "event"
    },
    {
      "anonymous": false,
      "inputs": [
        {
          "indexed": true,
          "internalType": "uint256",
          "name": "oldVal",
          "type": "uint256"
        },
        {
          "indexed": true,
          "internalType": "uint256",
          "name": "newVal",
          "type": "uint256"
        }
      ],
      "name": "MinimumInterestPerSecondUpdated",
      "type": "event"
    },
    {
      "anonymous": false,
      "inputs": [
        {
          "indexed": true,
          "internalType": "uint256",
          "name": "oldVal",
          "type": "uint256"
        },
        {
          "indexed": true,
          "internalType": "uint256",
          "name": "newVal",
          "type": "uint256"
        }
      ],
      "name": "MinimumTargetUtilizationUpdated",
      "type": "event"
    },
    {
      "anonymous": false,
      "inputs": [],
      "name": "OracleDataUpdated",
      "type": "event"
    },
    {
      "anonymous": false,
      "inputs": [
        {
          "indexed": false,
          "internalType": "address",
          "name": "newAddr",
          "type": "address"
        }
      ],
      "name": "OracleUpdated",
      "type": "event"
    },
    {
      "anonymous": false,
      "inputs": [
        {
          "indexed": true,
          "internalType": "uint256",
          "name": "oldVal",
          "type": "uint256"
        },
        {
          "indexed": true,
          "internalType": "uint256",
          "name": "newVal",
          "type": "uint256"
        }
      ],
      "name": "OrderBookLiquidationMultiplierUpdated",
      "type": "event"
    },
    {
      "anonymous": false,
      "inputs": [
        {
          "indexed": true,
          "internalType": "address",
          "name": "previousOwner",
          "type": "address"
        },
        {
          "indexed": true,
          "internalType": "address",
          "name": "newOwner",
          "type": "address"
        }
      ],
      "name": "OwnershipTransferred",
      "type": "event"
    },
    {
      "anonymous": false,
      "inputs": [
        {
          "indexed": true,
          "internalType": "enum Market.PauseType",
          "name": "_type",
          "type": "uint8"
        },
        {
          "indexed": true,
          "internalType": "bool",
          "name": "oldState",
          "type": "bool"
        },
        {
          "indexed": true,
          "internalType": "bool",
          "name": "newState",
          "type": "bool"
        }
      ],
      "name": "PausedUpdated",
      "type": "event"
    },
    {
      "anonymous": false,
      "inputs": [
        {
          "indexed": true,
          "internalType": "address",
          "name": "from",
          "type": "address"
        },
        {
          "indexed": true,
          "internalType": "address",
          "name": "to",
          "type": "address"
        },
        {
          "indexed": false,
          "internalType": "uint256",
          "name": "value",
          "type": "uint256"
        }
      ],
      "name": "Transfer",
      "type": "event"
    },
    {
      "anonymous": false,
      "inputs": [
        {
          "indexed": true,
          "internalType": "address",
          "name": "newAddress",
          "type": "address"
        }
      ],
      "name": "UsdoSwapperUpdated",
      "type": "event"
    },
    {
      "anonymous": false,
      "inputs": [
        {
          "indexed": true,
          "internalType": "uint256",
          "name": "valType",
          "type": "uint256"
        },
        {
          "indexed": true,
          "internalType": "uint256",
          "name": "_newVal",
          "type": "uint256"
        }
      ],
      "name": "ValueUpdated",
      "type": "event"
    },
    {
      "inputs": [],
      "name": "DOMAIN_SEPARATOR",
      "outputs": [
        {
          "internalType": "bytes32",
          "name": "",
          "type": "bytes32"
        }
      ],
      "stateMutability": "view",
      "type": "function"
    },
    {
      "inputs": [],
      "name": "accrue",
      "outputs": [],
      "stateMutability": "nonpayable",
      "type": "function"
    },
    {
      "inputs": [],
      "name": "accrueInfo",
      "outputs": [
        {
          "internalType": "uint64",
          "name": "interestPerSecond",
          "type": "uint64"
        },
        {
          "internalType": "uint64",
          "name": "lastAccrued",
          "type": "uint64"
        },
        {
          "internalType": "uint128",
          "name": "feesEarnedFraction",
          "type": "uint128"
        }
      ],
      "stateMutability": "view",
      "type": "function"
    },
    {
      "inputs": [
        {
          "internalType": "address",
          "name": "",
          "type": "address"
        },
        {
          "internalType": "address",
          "name": "",
          "type": "address"
        }
      ],
      "name": "allowance",
      "outputs": [
        {
          "internalType": "uint256",
          "name": "",
          "type": "uint256"
        }
      ],
      "stateMutability": "view",
      "type": "function"
    },
    {
      "inputs": [
        {
          "internalType": "address",
          "name": "",
          "type": "address"
        },
        {
          "internalType": "address",
          "name": "",
          "type": "address"
        }
      ],
      "name": "allowanceBorrow",
      "outputs": [
        {
          "internalType": "uint256",
          "name": "",
          "type": "uint256"
        }
      ],
      "stateMutability": "view",
      "type": "function"
    },
    {
      "inputs": [
        {
          "internalType": "address",
          "name": "spender",
          "type": "address"
        },
        {
          "internalType": "uint256",
          "name": "amount",
          "type": "uint256"
        }
      ],
      "name": "approve",
      "outputs": [
        {
          "internalType": "bool",
          "name": "",
          "type": "bool"
        }
      ],
      "stateMutability": "nonpayable",
      "type": "function"
    },
    {
      "inputs": [
        {
          "internalType": "address",
          "name": "spender",
          "type": "address"
        },
        {
          "internalType": "uint256",
          "name": "amount",
          "type": "uint256"
        }
      ],
      "name": "approveBorrow",
      "outputs": [
        {
          "internalType": "bool",
          "name": "",
          "type": "bool"
        }
      ],
      "stateMutability": "nonpayable",
      "type": "function"
    },
    {
      "inputs": [],
      "name": "asset",
      "outputs": [
        {
          "internalType": "contract IERC20",
          "name": "",
          "type": "address"
        }
      ],
      "stateMutability": "view",
      "type": "function"
    },
    {
      "inputs": [],
      "name": "assetId",
      "outputs": [
        {
          "internalType": "uint256",
          "name": "",
          "type": "uint256"
        }
      ],
      "stateMutability": "view",
      "type": "function"
    },
    {
      "inputs": [
        {
          "internalType": "address",
          "name": "",
          "type": "address"
        }
      ],
      "name": "balanceOf",
      "outputs": [
        {
          "internalType": "uint256",
          "name": "",
          "type": "uint256"
        }
      ],
      "stateMutability": "view",
      "type": "function"
    },
    {
      "inputs": [],
      "name": "borrowOpeningFee",
      "outputs": [
        {
          "internalType": "uint256",
          "name": "",
          "type": "uint256"
        }
      ],
      "stateMutability": "view",
      "type": "function"
    },
    {
      "inputs": [],
      "name": "callerFee",
      "outputs": [
        {
          "internalType": "uint256",
          "name": "",
          "type": "uint256"
        }
      ],
      "stateMutability": "view",
      "type": "function"
    },
    {
      "inputs": [],
      "name": "claimOwnership",
      "outputs": [],
      "stateMutability": "nonpayable",
      "type": "function"
    },
    {
      "inputs": [],
      "name": "collateral",
      "outputs": [
        {
          "internalType": "contract IERC20",
          "name": "",
          "type": "address"
        }
      ],
      "stateMutability": "view",
      "type": "function"
    },
    {
      "inputs": [],
      "name": "collateralId",
      "outputs": [
        {
          "internalType": "uint256",
          "name": "",
          "type": "uint256"
        }
      ],
      "stateMutability": "view",
      "type": "function"
    },
    {
      "inputs": [],
      "name": "collateralizationRate",
      "outputs": [
        {
          "internalType": "uint256",
          "name": "",
          "type": "uint256"
        }
      ],
      "stateMutability": "view",
      "type": "function"
    },
    {
      "inputs": [
        {
          "internalType": "uint256",
          "name": "borrowPart",
          "type": "uint256"
        },
        {
          "internalType": "uint256",
          "name": "collateralPartInAsset",
          "type": "uint256"
        },
        {
          "internalType": "uint256",
          "name": "ratesPrecision",
          "type": "uint256"
        }
      ],
      "name": "computeClosingFactor",
      "outputs": [
        {
          "internalType": "uint256",
          "name": "",
          "type": "uint256"
        }
      ],
      "stateMutability": "view",
      "type": "function"
    },
    {
      "inputs": [
        {
          "internalType": "address",
          "name": "user",
          "type": "address"
        },
        {
          "internalType": "uint256",
          "name": "_exchangeRate",
          "type": "uint256"
        }
      ],
      "name": "computeLiquidatorReward",
      "outputs": [
        {
          "internalType": "uint256",
          "name": "",
          "type": "uint256"
        }
      ],
      "stateMutability": "view",
      "type": "function"
    },
    {
      "inputs": [
        {
          "internalType": "address",
          "name": "user",
          "type": "address"
        },
        {
          "internalType": "uint256",
          "name": "_exchangeRate",
          "type": "uint256"
        }
      ],
      "name": "computeTVLInfo",
      "outputs": [
        {
          "internalType": "uint256",
          "name": "amountToSolvency",
          "type": "uint256"
        },
        {
          "internalType": "uint256",
          "name": "minTVL",
          "type": "uint256"
        },
        {
          "internalType": "uint256",
          "name": "maxTVL",
          "type": "uint256"
        }
      ],
      "stateMutability": "view",
      "type": "function"
    },
    {
      "inputs": [],
      "name": "conservator",
      "outputs": [
        {
          "internalType": "address",
          "name": "",
          "type": "address"
        }
      ],
      "stateMutability": "view",
      "type": "function"
    },
    {
      "inputs": [],
      "name": "decimals",
      "outputs": [
        {
          "internalType": "uint8",
          "name": "",
          "type": "uint8"
        }
      ],
      "stateMutability": "view",
      "type": "function"
    },
    {
      "inputs": [],
      "name": "eip712Domain",
      "outputs": [
        {
          "internalType": "bytes1",
          "name": "fields",
          "type": "bytes1"
        },
        {
          "internalType": "string",
          "name": "name",
          "type": "string"
        },
        {
          "internalType": "string",
          "name": "version",
          "type": "string"
        },
        {
          "internalType": "uint256",
          "name": "chainId",
          "type": "uint256"
        },
        {
          "internalType": "address",
          "name": "verifyingContract",
          "type": "address"
        },
        {
          "internalType": "bytes32",
          "name": "salt",
          "type": "bytes32"
        },
        {
          "internalType": "uint256[]",
          "name": "extensions",
          "type": "uint256[]"
        }
      ],
      "stateMutability": "view",
      "type": "function"
    },
    {
      "inputs": [],
      "name": "exchangeRate",
      "outputs": [
        {
          "internalType": "uint256",
          "name": "",
          "type": "uint256"
        }
      ],
      "stateMutability": "view",
      "type": "function"
    },
    {
      "inputs": [],
      "name": "fullUtilizationMinusMax",
      "outputs": [
        {
          "internalType": "uint256",
          "name": "",
          "type": "uint256"
        }
      ],
      "stateMutability": "view",
      "type": "function"
    },
    {
      "inputs": [],
      "name": "getInterestDetails",
      "outputs": [
        {
          "components": [
            {
              "internalType": "uint64",
              "name": "interestPerSecond",
              "type": "uint64"
            },
            {
              "internalType": "uint64",
              "name": "lastAccrued",
              "type": "uint64"
            },
            {
              "internalType": "uint128",
              "name": "feesEarnedFraction",
              "type": "uint128"
            }
          ],
          "internalType": "struct ISingularity.AccrueInfo",
          "name": "_accrueInfo",
          "type": "tuple"
        },
        {
          "internalType": "uint256",
          "name": "utilization",
          "type": "uint256"
        }
      ],
      "stateMutability": "view",
      "type": "function"
    },
    {
      "inputs": [],
      "name": "interestElasticity",
      "outputs": [
        {
          "internalType": "uint256",
          "name": "",
          "type": "uint256"
        }
      ],
      "stateMutability": "view",
      "type": "function"
    },
    {
      "inputs": [],
      "name": "leverageExecutor",
      "outputs": [
        {
          "internalType": "contract ILeverageExecutor",
          "name": "",
          "type": "address"
        }
      ],
      "stateMutability": "view",
      "type": "function"
    },
    {
      "inputs": [],
      "name": "liquidationBonusAmount",
      "outputs": [
        {
          "internalType": "uint256",
          "name": "",
          "type": "uint256"
        }
      ],
      "stateMutability": "view",
      "type": "function"
    },
    {
      "inputs": [],
      "name": "liquidationCollateralizationRate",
      "outputs": [
        {
          "internalType": "uint256",
          "name": "",
          "type": "uint256"
        }
      ],
      "stateMutability": "view",
      "type": "function"
    },
    {
      "inputs": [],
      "name": "liquidationMultiplier",
      "outputs": [
        {
          "internalType": "uint256",
          "name": "",
          "type": "uint256"
        }
      ],
      "stateMutability": "view",
      "type": "function"
    },
    {
      "inputs": [],
      "name": "lqCollateralizationRate",
      "outputs": [
        {
          "internalType": "uint256",
          "name": "",
          "type": "uint256"
        }
      ],
      "stateMutability": "view",
      "type": "function"
    },
    {
      "inputs": [],
      "name": "maxLiquidatorReward",
      "outputs": [
        {
          "internalType": "uint256",
          "name": "",
          "type": "uint256"
        }
      ],
      "stateMutability": "view",
      "type": "function"
    },
    {
      "inputs": [],
      "name": "maximumInterestPerSecond",
      "outputs": [
        {
          "internalType": "uint64",
          "name": "",
          "type": "uint64"
        }
      ],
      "stateMutability": "view",
      "type": "function"
    },
    {
      "inputs": [],
      "name": "maximumTargetUtilization",
      "outputs": [
        {
          "internalType": "uint256",
          "name": "",
          "type": "uint256"
        }
      ],
      "stateMutability": "view",
      "type": "function"
    },
    {
      "inputs": [],
      "name": "minLiquidatorReward",
      "outputs": [
        {
          "internalType": "uint256",
          "name": "",
          "type": "uint256"
        }
      ],
      "stateMutability": "view",
      "type": "function"
    },
    {
      "inputs": [],
      "name": "minimumInterestPerSecond",
      "outputs": [
        {
          "internalType": "uint64",
          "name": "",
          "type": "uint64"
        }
      ],
      "stateMutability": "view",
      "type": "function"
    },
    {
      "inputs": [],
      "name": "minimumTargetUtilization",
      "outputs": [
        {
          "internalType": "uint256",
          "name": "",
          "type": "uint256"
        }
      ],
      "stateMutability": "view",
      "type": "function"
    },
    {
      "inputs": [],
      "name": "name",
      "outputs": [
        {
          "internalType": "string",
          "name": "",
          "type": "string"
        }
      ],
      "stateMutability": "view",
      "type": "function"
    },
    {
      "inputs": [
        {
          "internalType": "address",
          "name": "owner",
          "type": "address"
        }
      ],
      "name": "nonces",
      "outputs": [
        {
          "internalType": "uint256",
          "name": "",
          "type": "uint256"
        }
      ],
      "stateMutability": "view",
      "type": "function"
    },
    {
      "inputs": [],
      "name": "oracle",
      "outputs": [
        {
          "internalType": "contract ITapiocaOracle",
          "name": "",
          "type": "address"
        }
      ],
      "stateMutability": "view",
      "type": "function"
    },
    {
      "inputs": [],
      "name": "oracleData",
      "outputs": [
        {
          "internalType": "bytes",
          "name": "",
          "type": "bytes"
        }
      ],
      "stateMutability": "view",
      "type": "function"
    },
    {
      "inputs": [],
      "name": "owner",
      "outputs": [
        {
          "internalType": "address",
          "name": "",
          "type": "address"
        }
      ],
      "stateMutability": "view",
      "type": "function"
    },
    {
      "inputs": [
        {
          "internalType": "enum Market.PauseType",
          "name": "pauseProp",
          "type": "uint8"
        }
      ],
      "name": "pauseOptions",
      "outputs": [
        {
          "internalType": "bool",
          "name": "pauseStatus",
          "type": "bool"
        }
      ],
      "stateMutability": "view",
      "type": "function"
    },
    {
      "inputs": [],
      "name": "pendingOwner",
      "outputs": [
        {
          "internalType": "address",
          "name": "",
          "type": "address"
        }
      ],
      "stateMutability": "view",
      "type": "function"
    },
    {
      "inputs": [],
      "name": "penrose",
      "outputs": [
        {
          "internalType": "contract IPenrose",
          "name": "",
          "type": "address"
        }
      ],
      "stateMutability": "view",
      "type": "function"
    },
    {
      "inputs": [
        {
          "internalType": "address",
          "name": "owner",
          "type": "address"
        },
        {
          "internalType": "address",
          "name": "spender",
          "type": "address"
        },
        {
          "internalType": "uint256",
          "name": "value",
          "type": "uint256"
        },
        {
          "internalType": "uint256",
          "name": "deadline",
          "type": "uint256"
        },
        {
          "internalType": "uint8",
          "name": "v",
          "type": "uint8"
        },
        {
          "internalType": "bytes32",
          "name": "r",
          "type": "bytes32"
        },
        {
          "internalType": "bytes32",
          "name": "s",
          "type": "bytes32"
        }
      ],
      "name": "permit",
      "outputs": [],
      "stateMutability": "nonpayable",
      "type": "function"
    },
    {
      "inputs": [
        {
          "internalType": "bytes",
          "name": "data",
          "type": "bytes"
        },
        {
          "internalType": "uint16",
          "name": "actionType",
          "type": "uint16"
        }
      ],
      "name": "permitAction",
      "outputs": [],
      "stateMutability": "nonpayable",
      "type": "function"
    },
    {
      "inputs": [
        {
          "internalType": "address",
          "name": "owner",
          "type": "address"
        },
        {
          "internalType": "address",
          "name": "spender",
          "type": "address"
        },
        {
          "internalType": "uint256",
          "name": "value",
          "type": "uint256"
        },
        {
          "internalType": "uint256",
          "name": "deadline",
          "type": "uint256"
        },
        {
          "internalType": "uint8",
          "name": "v",
          "type": "uint8"
        },
        {
          "internalType": "bytes32",
          "name": "r",
          "type": "bytes32"
        },
        {
          "internalType": "bytes32",
          "name": "s",
          "type": "bytes32"
        }
      ],
      "name": "permitBorrow",
      "outputs": [],
      "stateMutability": "nonpayable",
      "type": "function"
    },
    {
      "inputs": [],
      "name": "protocolFee",
      "outputs": [
        {
          "internalType": "uint256",
          "name": "",
          "type": "uint256"
        }
      ],
      "stateMutability": "view",
      "type": "function"
    },
    {
      "inputs": [],
      "name": "rateTimestamp",
      "outputs": [
        {
          "internalType": "uint256",
          "name": "",
          "type": "uint256"
        }
      ],
      "stateMutability": "view",
      "type": "function"
    },
    {
      "inputs": [],
      "name": "rateValidDuration",
      "outputs": [
        {
          "internalType": "uint256",
          "name": "",
          "type": "uint256"
        }
      ],
      "stateMutability": "view",
      "type": "function"
    },
    {
      "inputs": [
        {
          "internalType": "contract ILeverageExecutor",
          "name": "_executor",
          "type": "address"
        }
      ],
      "name": "setLeverageExecutor",
      "outputs": [],
      "stateMutability": "nonpayable",
      "type": "function"
    },
    {
      "inputs": [
        {
          "internalType": "contract ITapiocaOracle",
          "name": "_oracle",
          "type": "address"
        },
        {
          "internalType": "bytes",
          "name": "_oracleData",
          "type": "bytes"
        },
        {
          "internalType": "address",
          "name": "_conservator",
          "type": "address"
        },
        {
          "internalType": "uint256",
          "name": "_callerFee",
          "type": "uint256"
        },
        {
          "internalType": "uint256",
          "name": "_protocolFee",
          "type": "uint256"
        },
        {
          "internalType": "uint256",
          "name": "_liquidationBonusAmount",
          "type": "uint256"
        },
        {
          "internalType": "uint256",
          "name": "_minLiquidatorReward",
          "type": "uint256"
        },
        {
          "internalType": "uint256",
          "name": "_maxLiquidatorReward",
          "type": "uint256"
        },
        {
          "internalType": "uint256",
          "name": "_totalBorrowCap",
          "type": "uint256"
        },
        {
          "internalType": "uint256",
          "name": "_collateralizationRate",
          "type": "uint256"
        },
        {
          "internalType": "uint256",
          "name": "_liquidationCollateralizationRate",
          "type": "uint256"
        }
      ],
      "name": "setMarketConfig",
      "outputs": [],
      "stateMutability": "nonpayable",
      "type": "function"
    },
    {
      "inputs": [],
      "name": "startingInterestPerSecond",
      "outputs": [
        {
          "internalType": "uint64",
          "name": "",
          "type": "uint64"
        }
      ],
      "stateMutability": "view",
      "type": "function"
    },
    {
      "inputs": [],
      "name": "symbol",
      "outputs": [
        {
          "internalType": "string",
          "name": "",
          "type": "string"
        }
      ],
      "stateMutability": "view",
      "type": "function"
    },
    {
      "inputs": [],
      "name": "totalAsset",
      "outputs": [
        {
          "internalType": "uint128",
          "name": "elastic",
          "type": "uint128"
        },
        {
          "internalType": "uint128",
          "name": "base",
          "type": "uint128"
        }
      ],
      "stateMutability": "view",
      "type": "function"
    },
    {
      "inputs": [],
      "name": "totalBorrow",
      "outputs": [
        {
          "internalType": "uint128",
          "name": "elastic",
          "type": "uint128"
        },
        {
          "internalType": "uint128",
          "name": "base",
          "type": "uint128"
        }
      ],
      "stateMutability": "view",
      "type": "function"
    },
    {
      "inputs": [],
      "name": "totalBorrowCap",
      "outputs": [
        {
          "internalType": "uint256",
          "name": "",
          "type": "uint256"
        }
      ],
      "stateMutability": "view",
      "type": "function"
    },
    {
      "inputs": [],
      "name": "totalCollateralShare",
      "outputs": [
        {
          "internalType": "uint256",
          "name": "",
          "type": "uint256"
        }
      ],
      "stateMutability": "view",
      "type": "function"
    },
    {
      "inputs": [],
      "name": "totalSupply",
      "outputs": [
        {
          "internalType": "uint256",
          "name": "",
          "type": "uint256"
        }
      ],
      "stateMutability": "view",
      "type": "function"
    },
    {
      "inputs": [
        {
          "internalType": "address",
          "name": "to",
          "type": "address"
        },
        {
          "internalType": "uint256",
          "name": "amount",
          "type": "uint256"
        }
      ],
      "name": "transfer",
      "outputs": [
        {
          "internalType": "bool",
          "name": "",
          "type": "bool"
        }
      ],
      "stateMutability": "nonpayable",
      "type": "function"
    },
    {
      "inputs": [
        {
          "internalType": "address",
          "name": "from",
          "type": "address"
        },
        {
          "internalType": "address",
          "name": "to",
          "type": "address"
        },
        {
          "internalType": "uint256",
          "name": "amount",
          "type": "uint256"
        }
      ],
      "name": "transferFrom",
      "outputs": [
        {
          "internalType": "bool",
          "name": "",
          "type": "bool"
        }
      ],
      "stateMutability": "nonpayable",
      "type": "function"
    },
    {
      "inputs": [
        {
          "internalType": "address",
          "name": "newOwner",
          "type": "address"
        },
        {
          "internalType": "bool",
          "name": "direct",
          "type": "bool"
        },
        {
          "internalType": "bool",
          "name": "renounce",
          "type": "bool"
        }
      ],
      "name": "transferOwnership",
      "outputs": [],
      "stateMutability": "nonpayable",
      "type": "function"
    },
    {
      "inputs": [],
      "name": "updateExchangeRate",
      "outputs": [
        {
          "internalType": "bool",
          "name": "updated",
          "type": "bool"
        },
        {
          "internalType": "uint256",
          "name": "rate",
          "type": "uint256"
        }
      ],
      "stateMutability": "nonpayable",
      "type": "function"
    },
    {
      "inputs": [
        {
          "internalType": "address",
          "name": "",
          "type": "address"
        }
      ],
      "name": "userBorrowPart",
      "outputs": [
        {
          "internalType": "uint256",
          "name": "",
          "type": "uint256"
        }
      ],
      "stateMutability": "view",
      "type": "function"
    },
    {
      "inputs": [
        {
          "internalType": "address",
          "name": "",
          "type": "address"
        }
      ],
      "name": "userCollateralShare",
      "outputs": [
        {
          "internalType": "uint256",
          "name": "",
          "type": "uint256"
        }
      ],
      "stateMutability": "view",
      "type": "function"
    },
    {
      "inputs": [],
      "name": "yieldBox",
      "outputs": [
        {
          "internalType": "contract IYieldBox",
          "name": "",
          "type": "address"
        }
      ],
      "stateMutability": "view",
      "type": "function"
    }
  ],
  "bytecode": "0x61016060405262013880601d5562015f90601e55612710601f55612ee06022557f0bd4060688a1800ae986e4840aebc924bb40b5bf44de4583df2257220b54b77c6029557f7d1dc38e60930664f8cbf495da6556ca091d2f92d6550877750c049864b18230602a556161a8602b55603280553480156200007e57600080fd5b50604080518082018252601381527f546170696f63612053696e67756c617269747900000000000000000000000000602080830191909152825180840190935260018352603160f81b90830152908190620000db826000620001cf565b61012052620000ec816001620001cf565b61014052815160208084019190912060e052815190820120610100524660a0526200017a60e05161010051604080517f8b73c3c69bb8fe3d512ecc4cf759cc79239f7b179b0ffacaa9a75d522b39400f60208201529081019290925260608201524660808201523060a082015260009060c00160405160208183030381529060405280519060200120905090565b60805250503060c05250600780546001600160a01b031916339081179091556040516000907f8be0079c531659141344cd1fd0a4f28419497f9722a3daafe3b4186f6b6457e0908290a360016026556200043d565b6000602083511015620001ef57620001e78362000208565b905062000202565b81620001fc8482620002fb565b5060ff90505b92915050565b600080829050601f815111156200023f578260405163305a27a960e01b8152600401620002369190620003c7565b60405180910390fd5b80516200024c8262000418565b179392505050565b634e487b7160e01b600052604160045260246000fd5b600181811c908216806200027f57607f821691505b602082108103620002a057634e487b7160e01b600052602260045260246000fd5b50919050565b601f821115620002f6576000816000526020600020601f850160051c81016020861015620002d15750805b601f850160051c820191505b81811015620002f257828155600101620002dd565b5050505b505050565b81516001600160401b0381111562000317576200031762000254565b6200032f816200032884546200026a565b84620002a6565b602080601f8311600181146200036757600084156200034e5750858301515b600019600386901b1c1916600185901b178555620002f2565b600085815260208120601f198616915b82811015620003985788860151825594840194600190910190840162000377565b5085821015620003b75787850151600019600388901b60f8161c191681555b5050505050600190811b01905550565b60006020808352835180602085015260005b81811015620003f757858101830151858201604001528201620003d9565b506000604082860101526040601f19601f8301168501019250505092915050565b80516020808301519190811015620002a05760001960209190910360031b1b16919050565b60805160a05160c05160e05161010051610120516101405161456f62000498600039600061135d0152600061133301526000612458015260006124300152600061238b015260006123b5015260006123df015261456f6000f3fe608060405234801561001057600080fd5b50600436106104205760003560e01c80637dc0d1d011610235578063bb4cfe3b11610135578063e0996cb6116100c8578063ef2b234a11610097578063f8ba4cff1161007c578063f8ba4cff14610a20578063f9557ccb14610a28578063ffe04c6614610a5c57600080fd5b8063ef2b234a14610a04578063f42760b714610a1757600080fd5b8063e0996cb6146109d6578063e30c3978146109df578063ea64dd56146109f2578063eec0f42e146109fb57600080fd5b8063d8dfeb4511610104578063d8dfeb4514610972578063da863f0e14610985578063dd62ed3e14610998578063de406577146109c357600080fd5b8063bb4cfe3b14610930578063ce8849ed14610939578063d3fb2a381461094c578063d505accf1461095f57600080fd5b8063910dd7c8116101c85780639c5d719211610197578063a9059cbb1161017c578063a9059cbb1461088e578063b0e21e8a146108a1578063b27c0e74146108aa57600080fd5b80639c5d7192146108575780639e15e89f1461086057600080fd5b8063910dd7c814610820578063959916dc1461083357806395d89b411461083c57806399a970281461084457600080fd5b80638285ef40116102045780638285ef401461078c57806384b0196e146107e95780638c5d0ed3146108045780638da5cb5b1461080d57600080fd5b80637dc0d1d0146107345780637ecebe00146107475780637fa0b84e14610770578063821226e81461078357600080fd5b80633f741adb1161034057806352f353eb116102d35780635dfe04e8116102a257806370a082311161028757806370a08231146106e9578063727785471461070957806374645ff31461072c57600080fd5b80635dfe04e8146106865780636c3d8b8f146106d657600080fd5b806352f353eb1461061c578063551402321461064957806355c2ab941461065d578063579354621461067d57600080fd5b806348e4163e1161030f57806348e4163e146105e25780634d7f2a34146106025780634e71e0c81461060b578063529898f21461061357600080fd5b80633f741adb146105b457806340626d8b146105c757806344de240a146105d0578063473e3ce7146105d957600080fd5b806323b872dd116103b85780633644e515116103875780633644e5151461056f57806337b6b7b91461057757806338d52e0f146105805780633ba0b9a9146105ab57600080fd5b806323b872dd14610530578063313ce56714610543578063331960ff1461055d57806334d441d01461056657600080fd5b8063095ea7b3116103f4578063095ea7b3146104ac57806318160ddd146104cf5780631c9e379b146104fd5780631da8bf101461051d57600080fd5b8062a02a201461042557806302ce728f1461046357806306fdde0314610482578063078dfbe714610497575b600080fd5b6104506104333660046138ac565b600560209081526000928352604080842090915290825290205481565b6040519081526020015b60405180910390f35b61046b610a65565b60408051921515835260208301919091520161045a565b61048a610bf5565b60405161045a9190613935565b6104aa6104a5366004613956565b610c31565b005b6104bf6104ba3660046139a1565b610da8565b604051901515815260200161045a565b60285470010000000000000000000000000000000090046fffffffffffffffffffffffffffffffff16610450565b61045061050b3660046139cd565b601a6020526000908152604090205481565b6104aa61052b3660046139f9565b610dbf565b6104bf61053e366004613a6a565b610dda565b61054b611007565b60405160ff909116815260200161045a565b61045060155481565b610450601b5481565b610450611024565b61045060145481565b600f54610593906001600160a01b031681565b6040516001600160a01b03909116815260200161045a565b61045060135481565b6104506105c2366004613aab565b61102e565b61045060185481565b61045060105481565b61045060175481565b6104506105f03660046139cd565b60196020526000908152604090205481565b610450602b5481565b6104aa611180565b61045060225481565b6031546106309067ffffffffffffffff1681565b60405167ffffffffffffffff909116815260200161045a565b602f546106309067ffffffffffffffff1681565b602f546106309068010000000000000000900467ffffffffffffffff1681565b610450601e5481565b61068e611256565b60408051835167ffffffffffffffff908116825260208086015190911690820152928101516fffffffffffffffffffffffffffffffff1690830152606082015260800161045a565b600c54610593906001600160a01b031681565b6104506106f73660046139cd565b60036020526000908152604090205481565b6104bf610717366004613ad7565b60096020526000908152604090205460ff1681565b61048a61128a565b601154610593906001600160a01b031681565b6104506107553660046139cd565b6001600160a01b031660009081526006602052604090205490565b6104bf61077e3660046139a1565b611318565b61045060305481565b6016546107c0906fffffffffffffffffffffffffffffffff8082169170010000000000000000000000000000000090041682565b604080516fffffffffffffffffffffffffffffffff93841681529290911660208301520161045a565b6107f1611325565b60405161045a9796959493929190613af8565b610450601d5481565b600754610593906001600160a01b031681565b6104aa61082e366004613c35565b6113d0565b61045060325481565b61048a61141d565b6104506108523660046139a1565b611445565b610450602e5481565b61087361086e3660046139a1565b611451565b6040805193845260208401929092529082015260600161045a565b6104bf61089c3660046139a1565b61152e565b610450601c5481565b6027546108f79067ffffffffffffffff808216916801000000000000000081049091169070010000000000000000000000000000000090046fffffffffffffffffffffffffffffffff1683565b6040805167ffffffffffffffff94851681529390921660208401526fffffffffffffffffffffffffffffffff169082015260600161045a565b61045060205481565b600a54610593906001600160a01b031681565b6104aa61095a366004613cc6565b61169f565b6104aa61096d3660046139f9565b611e99565b600d54610593906001600160a01b031681565b602354610593906001600160a01b031681565b6104506109a63660046138ac565b600460209081526000928352604080842090915290825290205481565b600b54610593906001600160a01b031681565b610450601f5481565b600854610593906001600160a01b031681565b61045060215481565b610450600e5481565b6104aa610a123660046139cd565b611eac565b610450602d5481565b6104aa611f7a565b6028546107c0906fffffffffffffffffffffffffffffffff8082169170010000000000000000000000000000000090041682565b610450602c5481565b6011546040517fd6d7d52500000000000000000000000000000000000000000000000000000000815260009182916001600160a01b039091169063d6d7d52590610ab490601290600401613df7565b60408051808303816000875af1158015610ad2573d6000803e3d6000fd5b505050506040513d601f19601f82011682018060405250810190610af69190613ea5565b90925090508115610b8e5780600003610b565760405162461bcd60e51b815260206004820152601460248201527f4d61726b65743a20696e76616c6964207261746500000000000000000000000060448201526064015b60405180910390fd5b60138190554260155560405181907f9f9192b5edb17356c524e08d9e025c8e2f6307e6ea52fb7968faa3081f51c3c890600090a29091565b42601454601554610b9f9190613f02565b1015610bed5760405162461bcd60e51b815260206004820152601460248201527f4d61726b65743a207261746520746f6f206f6c640000000000000000000000006044820152606401610b4d565b506013549091565b600d54606090610c0d906001600160a01b0316611f84565b604051602001610c1d9190613f15565b604051602081830303815290604052905090565b6007546001600160a01b03163314610c8b5760405162461bcd60e51b815260206004820181905260248201527f4f776e61626c653a2063616c6c6572206973206e6f7420746865206f776e65726044820152606401610b4d565b8115610d6f576001600160a01b038316151580610ca55750805b610cf15760405162461bcd60e51b815260206004820152601560248201527f4f776e61626c653a207a65726f206164647265737300000000000000000000006044820152606401610b4d565b6007546040516001600160a01b038086169216907f8be0079c531659141344cd1fd0a4f28419497f9722a3daafe3b4186f6b6457e090600090a3600780546001600160a01b0385167fffffffffffffffffffffffff000000000000000000000000000000000000000091821617909155600880549091169055505050565b600880547fffffffffffffffffffffffff0000000000000000000000000000000000000000166001600160a01b0385161790555b505050565b6000610db533848461208f565b5060015b92915050565b610dd1600080898989898989896120f0565b50505050505050565b60008115610faf576001600160a01b03841660009081526003602052604090205482811015610e4b5760405162461bcd60e51b815260206004820152601660248201527f45524332303a2062616c616e636520746f6f206c6f77000000000000000000006044820152606401610b4d565b836001600160a01b0316856001600160a01b031614610fad576001600160a01b03851660009081526004602090815260408083203384529091529020546000198114610f105783811015610ee15760405162461bcd60e51b815260206004820152601860248201527f45524332303a20616c6c6f77616e636520746f6f206c6f7700000000000000006044820152606401610b4d565b610eeb8482613f5a565b6001600160a01b03871660009081526004602090815260408083203384529091529020555b6001600160a01b038516610f665760405162461bcd60e51b815260206004820152601660248201527f45524332303a206e6f207a65726f2061646472657373000000000000000000006044820152606401610b4d565b610f708483613f5a565b6001600160a01b038088166000908152600360205260408082209390935590871681529081208054869290610fa6908490613f02565b9091555050505b505b826001600160a01b0316846001600160a01b03167fddf252ad1be2c89b69c2b068fc378daa952ba7f163c4a11628f55a4df523b3ef84604051610ff491815260200190565b60405180910390a35060015b9392505050565b600f5460009061101f906001600160a01b0316612298565b905090565b600061101f61237e565b6016546000906fffffffffffffffffffffffffffffffff7001000000000000000000000000000000008204811691611067911686613f6d565b6110719190613fb3565b9350600061108083600a6140ab565b60215461108d9086613f6d565b6110979190613fb3565b9050808510156110ab576000915050611000565b60006110b78287613f5a565b905060006110c685600a6140ab565b6022546110d487600a6140ab565b6110de9190613f02565b6020546110eb9190613f6d565b6110f59190613fb3565b905060006509184e72a0008261110c88600a6140ab565b61111691906140b7565b61112091906140de565b9050600081611137670de0b6b3a7640000866140de565b611141919061412a565b90506000808212611152578161115b565b61115b82614174565b90508981111561117357899650505050505050611000565b9998505050505050505050565b6008546001600160a01b03163381146111db5760405162461bcd60e51b815260206004820181905260248201527f4f776e61626c653a2063616c6c657220213d2070656e64696e67206f776e65726044820152606401610b4d565b6007546040516001600160a01b038084169216907f8be0079c531659141344cd1fd0a4f28419497f9722a3daafe3b4186f6b6457e090600090a3600780546001600160a01b039092167fffffffffffffffffffffffff0000000000000000000000000000000000000000928316179055600880549091169055565b604080516060810182526000808252602082018190529181018290529061127b6124a9565b50949794965093945050505050565b6012805461129790613da4565b80601f01602080910402602001604051908101604052809291908181526020018280546112c390613da4565b80156113105780601f106112e557610100808354040283529160200191611310565b820191906000526020600020905b8154815290600101906020018083116112f357829003601f168201915b505050505081565b6000610db5338484612b7c565b6000606080828080836113587f000000000000000000000000000000000000000000000000000000000000000083612bd5565b6113837f00000000000000000000000000000000000000000000000000000000000000006001612bd5565b604080516000808252602082019092527f0f000000000000000000000000000000000000000000000000000000000000009a50929850909650469550309450925090505b90919293949596565b600080600080600080600080898060200190518101906113f091906141ac565b975097509750975097509750975097506114118989898989898989896120f0565b50505050505050505050565b600d54606090611435906001600160a01b0316612c80565b604051602001610c1d9190614232565b60006110008383612cf5565b6001600160a01b0382166000908152601960205260408120548190819080820361148657600080600093509350935050611527565b6000611490612e56565b9050600061149e8888612e7e565b905081602001516fffffffffffffffffffffffffffffffff1682600001516fffffffffffffffffffffffffffffffff16846114d99190613f6d565b6114e39190613fb3565b9250808310156114f45760006114f8565b8083035b6001600160a01b0389166000908152601a602052604090205490965061151e9088612fab565b90955093505050505b9250925092565b6000811515806115465750336001600160a01b038416145b156116565733600090815260036020526040902054828110156115ab5760405162461bcd60e51b815260206004820152601660248201527f45524332303a2062616c616e636520746f6f206c6f77000000000000000000006044820152606401610b4d565b336001600160a01b03851614611654576001600160a01b0384166116115760405162461bcd60e51b815260206004820152601660248201527f45524332303a206e6f207a65726f2061646472657373000000000000000000006044820152606401610b4d565b61161b8382613f5a565b33600090815260036020526040808220929092556001600160a01b0386168152908120805485929061164e908490613f02565b90915550505b505b6040518281526001600160a01b0384169033907fddf252ad1be2c89b69c2b068fc378daa952ba7f163c4a11628f55a4df523b3ef9060200160405180910390a350600192915050565b6007546001600160a01b031633146116f95760405162461bcd60e51b815260206004820181905260248201527f4f776e61626c653a2063616c6c6572206973206e6f7420746865206f776e65726044820152606401610b4d565b6001600160a01b038c161561177257601180547fffffffffffffffffffffffff0000000000000000000000000000000000000000166001600160a01b038e169081179091556040519081527f3df77beb5db05fcdd70a30fc8adf3f83f9501b68579455adbd100b81809403949060200160405180910390a15b89156117b05760126117858b8d836142c7565b506040517fa6f004921c944d4b8bf6e38462b00f36a58d62495d56b51f571ab78f732c981590600090a15b6001600160a01b0389161561182d57600a546040516001600160a01b03808c169216907f5a62d22209e370e38eea92cfddcd228e656e6ec139243392a760a7769f5877fd90600090a3600a80547fffffffffffffffffffffffff0000000000000000000000000000000000000000166001600160a01b038b161790555b87156118ba57620186a08811156118865760405162461bcd60e51b815260206004820152601160248201527f4d61726b65743a206e6f742076616c69640000000000000000000000000000006044820152606401610b4d565b601b88905560405188906001907f253ac2c290fb3c37b20cfd60899ed86c0c8313905edc8ca53ec8d2b69d9919ad90600090a35b861561194757620186a08711156119135760405162461bcd60e51b815260206004820152601160248201527f4d61726b65743a206e6f742076616c69640000000000000000000000000000006044820152606401610b4d565b601c87905560405187906002907f253ac2c290fb3c37b20cfd60899ed86c0c8313905edc8ca53ec8d2b69d9919ad90600090a35b85156119d357620186a0861061199f5760405162461bcd60e51b815260206004820152601160248201527f4d61726b65743a206e6f742076616c69640000000000000000000000000000006044820152606401610b4d565b601f86905560405186906003907f253ac2c290fb3c37b20cfd60899ed86c0c8313905edc8ca53ec8d2b69d9919ad90600090a35b8415611ab057620186a08510611a2b5760405162461bcd60e51b815260206004820152601160248201527f4d61726b65743a206e6f742076616c69640000000000000000000000000000006044820152606401610b4d565b601e548510611a7c5760405162461bcd60e51b815260206004820152601160248201527f4d61726b65743a206e6f742076616c69640000000000000000000000000000006044820152606401610b4d565b601d85905560405185906004907f253ac2c290fb3c37b20cfd60899ed86c0c8313905edc8ca53ec8d2b69d9919ad90600090a35b8315611b8d57620186a08410611b085760405162461bcd60e51b815260206004820152601160248201527f4d61726b65743a206e6f742076616c69640000000000000000000000000000006044820152606401610b4d565b601d548411611b595760405162461bcd60e51b815260206004820152601160248201527f4d61726b65743a206e6f742076616c69640000000000000000000000000000006044820152606401610b4d565b601e84905560405184906005907f253ac2c290fb3c37b20cfd60899ed86c0c8313905edc8ca53ec8d2b69d9919ad90600090a35b8215611bf6576018546040518491907fae6e0ab3b95f0a53ff9660a390ccedcbbf1f2355dce974a9841af106fddcfaba90600090a3601883905560405183906006907f253ac2c290fb3c37b20cfd60899ed86c0c8313905edc8ca53ec8d2b69d9919ad90600090a35b8115611d8657620186a0821115611c4f5760405162461bcd60e51b815260206004820152601160248201527f4d61726b65743a206e6f742076616c69640000000000000000000000000000006044820152606401610b4d565b602154821115611cc75760405162461bcd60e51b815260206004820152602560248201527f4d61726b65743a20636f6c6c61746572616c697a6174696f6e5261746520746f60448201527f6f206269670000000000000000000000000000000000000000000000000000006064820152608401610b4d565b611cd5620186a06002613f6d565b611ce090600a6140ab565b602254611cf1620186a0600a6140ab565b611cfb9190613f02565b611d059084613f6d565b10611d525760405162461bcd60e51b815260206004820152601a60248201527f4d61726b65743a204352202a202831202b204c4d29203e3d20310000000000006044820152606401610b4d565b602082905560405182906007907f253ac2c290fb3c37b20cfd60899ed86c0c8313905edc8ca53ec8d2b69d9919ad90600090a35b8015611e8b57602054811015611e045760405162461bcd60e51b815260206004820152603260248201527f4d61726b65743a206c69717569646174696f6e436f6c6c61746572616c697a6160448201527f74696f6e5261746520746f6f20736d616c6c00000000000000000000000000006064820152608401610b4d565b620186a0811115611e575760405162461bcd60e51b815260206004820152601160248201527f4d61726b65743a206e6f742076616c69640000000000000000000000000000006044820152606401610b4d565b602181905560405181906008907f253ac2c290fb3c37b20cfd60899ed86c0c8313905edc8ca53ec8d2b69d9919ad90600090a35b505050505050505050505050565b610dd160006001898989898989896120f0565b6007546001600160a01b03163314611f065760405162461bcd60e51b815260206004820181905260248201527f4f776e61626c653a2063616c6c6572206973206e6f7420746865206f776e65726044820152606401610b4d565b6023546040516001600160a01b038084169216907ffb4fd7114609dd603b57adbc2082205bfbbcabf9265c4b437b472f5c592b8cd790600090a3602380547fffffffffffffffffffffffff0000000000000000000000000000000000000000166001600160a01b0392909216919091179055565b611f826130da565b565b60408051600481526024810182526020810180517bffffffffffffffffffffffffffffffffffffffffffffffffffffffff167f06fdde0300000000000000000000000000000000000000000000000000000000179052905160609160009182916001600160a01b03861691611ff99190614388565b600060405180830381855afa9150503d8060008114612034576040519150601f19603f3d011682016040523d82523d6000602084013e612039565b606091505b50915091508161207e576040518060400160405280600381526020017f3f3f3f0000000000000000000000000000000000000000000000000000000000815250612087565b61208781613250565b949350505050565b6001600160a01b0383811660008181526004602090815260408083209487168084529482529182902085905590518481527f8c5be1e5ebec7d5bd14f71427d1e84f3dd0314c0f7b2291e5b200ac8c7c3b925910160405180910390a3505050565b834211156121405760405162461bcd60e51b815260206004820152601d60248201527f45524332305065726d69743a206578706972656420646561646c696e650000006044820152606401610b4d565b60008861216d577f5c9ba5f0d101616843d7918f48ea857d6da95e04ac6d719e105e50a355e7c5d661218f565b7f9cc5629bbe7baa98a89f6f8c2c396b83ab62dbb6cbb12f17f1d6ba7e6f53e2665b8a89898961219c8d613435565b60408051602081019790975261ffff909516948601949094526001600160a01b0392831660608601529116608084015260a083015260c082015260e0810186905261010001604051602081830303815290604052805190602001209050600061220482613464565b90506000612214828787876134ac565b9050896001600160a01b0316816001600160a01b0316146122775760405162461bcd60e51b815260206004820152601e60248201527f45524332305065726d69743a20696e76616c6964207369676e617475726500006044820152606401610b4d565b8a1561228d576122888a8a8a61208f565b611e8b565b611e8b8a8a8a612b7c565b60408051600481526024810182526020810180517bffffffffffffffffffffffffffffffffffffffffffffffffffffffff167f313ce567000000000000000000000000000000000000000000000000000000001790529051600091829182916001600160a01b0386169161230c9190614388565b600060405180830381855afa9150503d8060008114612347576040519150601f19603f3d011682016040523d82523d6000602084013e61234c565b606091505b509150915081801561235f575080516020145b61236a576012612087565b8080602001905181019061208791906143a4565b6000306001600160a01b037f0000000000000000000000000000000000000000000000000000000000000000161480156123d757507f000000000000000000000000000000000000000000000000000000000000000046145b1561240157507f000000000000000000000000000000000000000000000000000000000000000090565b61101f604080517f8b73c3c69bb8fe3d512ecc4cf759cc79239f7b179b0ffacaa9a75d522b39400f60208201527f0000000000000000000000000000000000000000000000000000000000000000918101919091527f000000000000000000000000000000000000000000000000000000000000000060608201524660808201523060a082015260009060c00160405160208183030381529060405280519060200120905090565b6040805160608082018352600080835260208084018290529284018190528351808501855281815283018190528351808501855281815283018190528351918201845260275467ffffffffffffffff808216845268010000000000000000820416838501526fffffffffffffffffffffffffffffffff70010000000000000000000000000000000091829004811684870152855180870187526016548083168252839004821681870152865180880188526028548084168083529490048316968101969096528051600b5460105498517f442c1599000000000000000000000000000000000000000000000000000000008152600481019990995260248901949094526044880185905294969095948493849384938493909116916001600160a01b03169063442c159990606401602060405180830381865afa1580156125f4573d6000803e3d6000fd5b505050506040513d601f19601f8201168201806040525081019061261891906143c1565b6126229190613f02565b90508015612662578651819061265390670de0b6b3a7640000906fffffffffffffffffffffffffffffffff16613f6d565b61265d9190613fb3565b612665565b60005b92506000886020015167ffffffffffffffff16426126839190613f5a565b9050806000036126fb5750506040805180820182526016546fffffffffffffffffffffffffffffffff80821683527001000000000000000000000000000000009182900481166020808501919091528451808601909552602854808316865292909204169083015296509450600093508392506113c7565b612704426134d4565b67ffffffffffffffff166020808b01919091528801516fffffffffffffffffffffffffffffffff166000036127ad57603154895167ffffffffffffffff90811691161461275f5760315467ffffffffffffffff168952600192505b5050604080518082019091526028546fffffffffffffffffffffffffffffffff80821683527001000000000000000000000000000000009091041660208201529450600093508392506113c7565b88518851670de0b6b3a76400009183916127e39167ffffffffffffffff16906fffffffffffffffffffffffffffffffff16613f6d565b6127ed9190613f6d565b6127f79190613fb3565b955061280286613558565b885189906128119083906143da565b6fffffffffffffffffffffffffffffffff9081169091528951600b546010548b516040517f442c1599000000000000000000000000000000000000000000000000000000008152600481019290925284166024820152600060448201529190921692506001600160a01b039091169063442c159990606401602060405180830381865afa1580156128a6573d6000803e3d6000fd5b505050506040513d601f19601f820116820180604052508101906128ca91906143c1565b6128d49190613f02565b91506000620186a0601c54886128ea9190613f6d565b6128f49190613fb3565b90506129008184613f5a565b6020890151612921906fffffffffffffffffffffffffffffffff1683613f6d565b61292b9190613fb3565b955061293686613558565b8a60400181815161294791906143da565b6fffffffffffffffffffffffffffffffff1690525061296586613558565b886020015161297491906143da565b6fffffffffffffffffffffffffffffffff16602089015282156129c957885183906129ba90670de0b6b3a7640000906fffffffffffffffffffffffffffffffff16613f6d565b6129c49190613fb3565b6129cc565b60005b9450602c54851015612a8e57602c54600090670de0b6b3a76400006129f18883613f5a565b6129fb9190613f6d565b612a059190613fb3565b9050600083612a148380613f6d565b612a1e9190613f6d565b603054612a2b9190613f02565b9050612a5c816030548e6000015167ffffffffffffffff16612a4d9190613f6d565b612a579190613fb3565b6134d4565b67ffffffffffffffff908116808e52602f549091161115612a8757602f5467ffffffffffffffff168c525b5050612b70565b602d54851115612b70576000602e54670de0b6b3a7640000602d5488612ab49190613f5a565b612abe9190613f6d565b612ac89190613fb3565b9050600083612ad78380613f6d565b612ae19190613f6d565b603054612aee9190613f02565b90506000603054828e6000015167ffffffffffffffff16612b0f9190613f6d565b612b199190613fb3565b602f5490915068010000000000000000900467ffffffffffffffff16811115612b575750602f5468010000000000000000900467ffffffffffffffff165b612b60816134d4565b67ffffffffffffffff168d525050505b50505090919293949596565b6001600160a01b0380841660008181526005602090815260408083209487168084529490915280822085905551849392917fe50de2333c10a9502fcb1d8ae13a51bbf423153dfc63c2b8997665b32154afc391a4505050565b606060ff8314612bef57612be8836135e0565b9050610db9565b818054612bfb90613da4565b80601f0160208091040260200160405190810160405280929190818152602001828054612c2790613da4565b8015612c745780601f10612c4957610100808354040283529160200191612c74565b820191906000526020600020905b815481529060010190602001808311612c5757829003601f168201915b50505050509050610db9565b60408051600481526024810182526020810180517bffffffffffffffffffffffffffffffffffffffffffffffffffffffff167f95d89b4100000000000000000000000000000000000000000000000000000000179052905160609160009182916001600160a01b03861691611ff99190614388565b6001600160a01b0382166000908152601a602052604081205481908190612d1c9085612fab565b6001600160a01b038716600090815260196020526040812054929450909250819003612d4e5760009350505050610db9565b82600003612d625760009350505050610db9565b6016546fffffffffffffffffffffffffffffffff7001000000000000000000000000000000008204811691612d98911683613f6d565b612da29190613fb3565b905082811015612db85760009350505050610db9565b818110612dcc57601d549350505050610db9565b6000612dd88484613f5a565b620186a0612de68685613f5a565b612df09190613f6d565b612dfa9190613fb3565b90506000601e54601d54612e0e91906140b7565b90506000601e54620186a08484612e2591906140de565b612e2f919061412a565b612e399190614403565b9050601d54811215612e4a5750601d545b98975050505050505050565b6040805180820190915260008082526020820152612e726124a9565b50939695505050505050565b6000808211612ecf5760405162461bcd60e51b815260206004820152601e60248201527f4d61726b65743a2065786368616e676552617465206e6f742076616c696400006044820152606401610b4d565b600b54600e546001600160a01b038581166000908152601a60205260408082205490517f442c1599000000000000000000000000000000000000000000000000000000008152600481019490945260248401526044830181905292169063442c159990606401602060405180830381865afa158015612f52573d6000803e3d6000fd5b505050506040513d601f19601f82011682018060405250810190612f7691906143c1565b905082602054620186a0602454612f8d9190613fb3565b612f979084613f6d565b612fa19190613f6d565b6120879190613fb3565b60008060008311612ffe5760405162461bcd60e51b815260206004820152601e60248201527f4d61726b65743a2065786368616e676552617465206e6f742076616c696400006044820152606401610b4d565b600b54600e546040517f442c1599000000000000000000000000000000000000000000000000000000008152600481019190915260248101869052600060448201819052916001600160a01b03169063442c159990606401602060405180830381865afa158015613073573d6000803e3d6000fd5b505050506040513d601f19601f8201168201806040525081019061309791906143c1565b905083602454826130a89190613f6d565b6130b29190613fb3565b9150620186a0602054836130c69190613f6d565b6130d09190613fb3565b9250509250929050565b60008060008060008060006130ed6124a9565b9650965096509650965096509650801561314e57603154604051600080825267ffffffffffffffff909216919081907f33af5ce86e8438eff54589f85332916444457dfa8685493fbd579b809097026b9060200160405180910390a4613199565b866000015167ffffffffffffffff1683857f33af5ce86e8438eff54589f85332916444457dfa8685493fbd579b809097026b8560405161319091815260200190565b60405180910390a45b50508451602780546020808901516040909901516fffffffffffffffffffffffffffffffff90811670010000000000000000000000000000000090810267ffffffffffffffff9b8c1668010000000000000000027fffffffffffffffffffffffffffffffff000000000000000000000000000000009095169b9096169a909a179290921782169390931790915585519582015181168702958116959095176016558351930151841690940291909216176028555050565b6060604082511061326f5781806020019051810190610db9919061442b565b81516020036133f75760005b60208160ff161080156132c85750828160ff168151811061329e5761329e6144a2565b01602001517fff000000000000000000000000000000000000000000000000000000000000001615155b156132df57806132d7816144d1565b91505061327b565b60008160ff1667ffffffffffffffff8111156132fd576132fd613bad565b6040519080825280601f01601f191660200182016040528015613327576020820181803683370190505b509050600091505b60208260ff1610801561337c5750838260ff1681518110613352576133526144a2565b01602001517fff000000000000000000000000000000000000000000000000000000000000001615155b1561100057838260ff1681518110613396576133966144a2565b602001015160f81c60f81b818360ff16815181106133b6576133b66144a2565b60200101907effffffffffffffffffffffffffffffffffffffffffffffffffffffffffffff1916908160001a905350816133ef816144d1565b92505061332f565b505060408051808201909152600381527f3f3f3f0000000000000000000000000000000000000000000000000000000000602082015290565b919050565b6001600160a01b03811660009081526006602052604081208054908261345a836144f0565b9091555092915050565b6000610db961347161237e565b836040517f19010000000000000000000000000000000000000000000000000000000000008152600281019290925260228201526042902090565b60008060006134bd8787878761361f565b915091506134ca816136e3565b5095945050505050565b600067ffffffffffffffff8211156135545760405162461bcd60e51b815260206004820152602660248201527f53616665436173743a2076616c756520646f65736e27742066697420696e203660448201527f34206269747300000000000000000000000000000000000000000000000000006064820152608401610b4d565b5090565b60006fffffffffffffffffffffffffffffffff8211156135545760405162461bcd60e51b815260206004820152602760248201527f53616665436173743a2076616c756520646f65736e27742066697420696e203160448201527f32382062697473000000000000000000000000000000000000000000000000006064820152608401610b4d565b606060006135ed8361384b565b604080516020808252818301909252919250600091906020820181803683375050509182525060208101929092525090565b6000807f7fffffffffffffffffffffffffffffff5d576e7357a4501ddfe92f46681b20a083111561365657506000905060036136da565b6040805160008082526020820180845289905260ff881692820192909252606081018690526080810185905260019060a0016020604051602081039080840390855afa1580156136aa573d6000803e3d6000fd5b5050604051601f1901519150506001600160a01b0381166136d3576000600192509250506136da565b9150600090505b94509492505050565b60008160048111156136f7576136f761450a565b036136ff5750565b60018160048111156137135761371361450a565b036137605760405162461bcd60e51b815260206004820152601860248201527f45434453413a20696e76616c6964207369676e617475726500000000000000006044820152606401610b4d565b60028160048111156137745761377461450a565b036137c15760405162461bcd60e51b815260206004820152601f60248201527f45434453413a20696e76616c6964207369676e6174757265206c656e677468006044820152606401610b4d565b60038160048111156137d5576137d561450a565b036138485760405162461bcd60e51b815260206004820152602260248201527f45434453413a20696e76616c6964207369676e6174757265202773272076616c60448201527f75650000000000000000000000000000000000000000000000000000000000006064820152608401610b4d565b50565b600060ff8216601f811115610db9576040517fb3512b0c00000000000000000000000000000000000000000000000000000000815260040160405180910390fd5b6001600160a01b038116811461384857600080fd5b80356134308161388c565b600080604083850312156138bf57600080fd5b82356138ca8161388c565b915060208301356138da8161388c565b809150509250929050565b60005b838110156139005781810151838201526020016138e8565b50506000910152565b600081518084526139218160208601602086016138e5565b601f01601f19169290920160200192915050565b6020815260006110006020830184613909565b801515811461384857600080fd5b60008060006060848603121561396b57600080fd5b83356139768161388c565b9250602084013561398681613948565b9150604084013561399681613948565b809150509250925092565b600080604083850312156139b457600080fd5b82356139bf8161388c565b946020939093013593505050565b6000602082840312156139df57600080fd5b81356110008161388c565b60ff8116811461384857600080fd5b600080600080600080600060e0888a031215613a1457600080fd5b8735613a1f8161388c565b96506020880135613a2f8161388c565b955060408801359450606088013593506080880135613a4d816139ea565b9699959850939692959460a0840135945060c09093013592915050565b600080600060608486031215613a7f57600080fd5b8335613a8a8161388c565b92506020840135613a9a8161388c565b929592945050506040919091013590565b600080600060608486031215613ac057600080fd5b505081359360208301359350604090920135919050565b600060208284031215613ae957600080fd5b81356009811061100057600080fd5b7fff00000000000000000000000000000000000000000000000000000000000000881681526000602060e06020840152613b3560e084018a613909565b8381036040850152613b47818a613909565b606085018990526001600160a01b038816608086015260a0850187905284810360c08601528551808252602080880193509091019060005b81811015613b9b57835183529284019291840191600101613b7f565b50909c9b505050505050505050505050565b7f4e487b7100000000000000000000000000000000000000000000000000000000600052604160045260246000fd5b604051601f8201601f1916810167ffffffffffffffff81118282101715613c0557613c05613bad565b604052919050565b600067ffffffffffffffff821115613c2757613c27613bad565b50601f01601f191660200190565b60008060408385031215613c4857600080fd5b823567ffffffffffffffff811115613c5f57600080fd5b8301601f81018513613c7057600080fd5b8035613c83613c7e82613c0d565b613bdc565b818152866020838501011115613c9857600080fd5b81602084016020830137600060208383010152809450505050602083013561ffff811681146138da57600080fd5b6000806000806000806000806000806000806101608d8f031215613ce957600080fd5b613cf38d3561388c565b8c359b5060208d013567ffffffffffffffff80821115613d1257600080fd5b818f0191508f601f830112613d2657600080fd5b8082351115613d3457600080fd5b508e602082358301011115613d4857600080fd5b602081019b50359950613d5d60408e016138a1565b9b9e9a9d50989b60608101359a60808201359a5060a0820135995060c0820135985060e0820135975061010082013596506101208201359550610140909101359350915050565b600181811c90821680613db857607f821691505b602082108103613df1577f4e487b7100000000000000000000000000000000000000000000000000000000600052602260045260246000fd5b50919050565b6000602080835260008454613e0b81613da4565b8060208701526040600180841660008114613e2d5760018114613e6757613e97565b7fffffffffffffffffffffffffffffffffffffffffffffffffffffffffffffff00851660408a0152604084151560051b8a01019550613e97565b89600052602060002060005b85811015613e8e5781548b8201860152908301908801613e73565b8a016040019650505b509398975050505050505050565b60008060408385031215613eb857600080fd5b8251613ec381613948565b6020939093015192949293505050565b7f4e487b7100000000000000000000000000000000000000000000000000000000600052601160045260246000fd5b80820180821115610db957610db9613ed3565b7f546170696f63612053696e67756c61726974792d000000000000000000000000815260008251613f4d8160148501602087016138e5565b9190910160140192915050565b81810381811115610db957610db9613ed3565b8082028115828204841417610db957610db9613ed3565b7f4e487b7100000000000000000000000000000000000000000000000000000000600052601260045260246000fd5b600082613fc257613fc2613f84565b500490565b600181815b80851115614002578160001904821115613fe857613fe8613ed3565b80851615613ff557918102915b93841c9390800290613fcc565b509250929050565b60008261401957506001610db9565b8161402657506000610db9565b816001811461403c576002811461404657614062565b6001915050610db9565b60ff84111561405757614057613ed3565b50506001821b610db9565b5060208310610133831016604e8410600b8410161715614085575081810a610db9565b61408f8383613fc7565b80600019048211156140a3576140a3613ed3565b029392505050565b6000611000838361400a565b81810360008312801583831316838312821617156140d7576140d7613ed3565b5092915050565b808202600082127f80000000000000000000000000000000000000000000000000000000000000008414161561411657614116613ed3565b8181058314821517610db957610db9613ed3565b60008261413957614139613f84565b60001983147f80000000000000000000000000000000000000000000000000000000000000008314161561416f5761416f613ed3565b500590565b60007f800000000000000000000000000000000000000000000000000000000000000082036141a5576141a5613ed3565b5060000390565b600080600080600080600080610100898b0312156141c957600080fd5b88516141d481613948565b60208a01519098506141e58161388c565b60408a01519097506141f68161388c565b80965050606089015194506080890151935060a0890151614216816139ea565b60c08a015160e0909a0151989b979a5095989497939692505050565b7f746d2d000000000000000000000000000000000000000000000000000000000081526000825161426a8160038501602087016138e5565b9190910160030192915050565b601f821115610da3576000816000526020600020601f850160051c810160208610156142a05750805b601f850160051c820191505b818110156142bf578281556001016142ac565b505050505050565b67ffffffffffffffff8311156142df576142df613bad565b6142f3836142ed8354613da4565b83614277565b6000601f841160018114614327576000851561430f5750838201355b600019600387901b1c1916600186901b178355614381565b600083815260209020601f19861690835b828110156143585786850135825560209485019460019092019101614338565b50868210156143755760001960f88860031b161c19848701351681555b505060018560011b0183555b5050505050565b6000825161439a8184602087016138e5565b9190910192915050565b6000602082840312156143b657600080fd5b8151611000816139ea565b6000602082840312156143d357600080fd5b5051919050565b6fffffffffffffffffffffffffffffffff8181168382160190808211156140d7576140d7613ed3565b808201828112600083128015821682158216171561442357614423613ed3565b505092915050565b60006020828403121561443d57600080fd5b815167ffffffffffffffff81111561445457600080fd5b8201601f8101841361446557600080fd5b8051614473613c7e82613c0d565b81815285602083850101111561448857600080fd5b6144998260208301602086016138e5565b95945050505050565b7f4e487b7100000000000000000000000000000000000000000000000000000000600052603260045260246000fd5b600060ff821660ff81036144e7576144e7613ed3565b60010192915050565b6000600019820361450357614503613ed3565b5060010190565b7f4e487b7100000000000000000000000000000000000000000000000000000000600052602160045260246000fdfea2646970667358221220c006cda86755000b642395787671739bf4ce07c3ca18317959677d0f68db689e64736f6c63430008160033",
  "linkReferences": {},
  "deployedLinkReferences": {}
}