{
  "_format": "hh-sol-artifact-1",
  "contractName": "SGLCollateral",
  "sourceName": "contracts/markets/singularity/SGLCollateral.sol",
  "abi": [
    {
      "anonymous": false,
      "inputs": [
        {
          "indexed": true,
          "internalType": "address",
          "name": "owner",
          "type": "address"
        },
        {
          "indexed": true,
          "internalType": "address",
          "name": "spender",
          "type": "address"
        },
        {
          "indexed": false,
          "internalType": "uint256",
          "name": "value",
          "type": "uint256"
        }
      ],
      "name": "Approval",
      "type": "event"
    },
    {
      "anonymous": false,
      "inputs": [
        {
          "indexed": true,
          "internalType": "address",
          "name": "owner",
          "type": "address"
        },
        {
          "indexed": true,
          "internalType": "address",
          "name": "spender",
          "type": "address"
        },
        {
          "indexed": false,
          "internalType": "uint256",
          "name": "value",
          "type": "uint256"
        }
      ],
      "name": "ApprovalBorrow",
      "type": "event"
    },
    {
      "anonymous": false,
      "inputs": [
        {
          "indexed": true,
          "internalType": "address",
          "name": "newAddress",
          "type": "address"
        }
      ],
      "name": "BidExecutionSwapperUpdated",
      "type": "event"
    },
    {
      "anonymous": false,
      "inputs": [
        {
          "indexed": true,
          "internalType": "address",
          "name": "old",
          "type": "address"
        },
        {
          "indexed": true,
          "internalType": "address",
          "name": "_new",
          "type": "address"
        }
      ],
      "name": "ConservatorUpdated",
      "type": "event"
    },
    {
      "anonymous": false,
      "inputs": [
        {
          "indexed": false,
          "internalType": "uint256",
          "name": "oldVal",
          "type": "uint256"
        },
        {
          "indexed": false,
          "internalType": "uint256",
          "name": "newVal",
          "type": "uint256"
        }
      ],
      "name": "InterestElasticityUpdated",
      "type": "event"
    },
    {
      "anonymous": false,
      "inputs": [
        {
          "indexed": true,
          "internalType": "address",
          "name": "liquidator",
          "type": "address"
        },
        {
          "indexed": false,
          "internalType": "address[]",
          "name": "users",
          "type": "address[]"
        },
        {
          "indexed": false,
          "internalType": "uint256",
          "name": "liquidatorReward",
          "type": "uint256"
        },
        {
          "indexed": false,
          "internalType": "uint256",
          "name": "protocolReward",
          "type": "uint256"
        },
        {
          "indexed": false,
          "internalType": "uint256",
          "name": "repayedAmount",
          "type": "uint256"
        },
        {
          "indexed": false,
          "internalType": "uint256",
          "name": "collateralShareRemoved",
          "type": "uint256"
        }
      ],
      "name": "Liquidated",
      "type": "event"
    },
    {
      "anonymous": false,
      "inputs": [
        {
          "indexed": false,
          "internalType": "uint256",
          "name": "oldVal",
          "type": "uint256"
        },
        {
          "indexed": false,
          "internalType": "uint256",
          "name": "newVal",
          "type": "uint256"
        }
      ],
      "name": "LiquidationMultiplierUpdated",
      "type": "event"
    },
    {
      "anonymous": false,
      "inputs": [
        {
          "indexed": false,
          "internalType": "uint256",
          "name": "accruedAmount",
          "type": "uint256"
        },
        {
          "indexed": false,
          "internalType": "uint256",
          "name": "feeFraction",
          "type": "uint256"
        },
        {
          "indexed": false,
          "internalType": "uint64",
          "name": "rate",
          "type": "uint64"
        },
        {
          "indexed": false,
          "internalType": "uint256",
          "name": "utilization",
          "type": "uint256"
        }
      ],
      "name": "LogAccrue",
      "type": "event"
    },
    {
      "anonymous": false,
      "inputs": [
        {
          "indexed": true,
          "internalType": "address",
          "name": "from",
          "type": "address"
        },
        {
          "indexed": true,
          "internalType": "address",
          "name": "to",
          "type": "address"
        },
        {
          "indexed": false,
          "internalType": "uint256",
          "name": "share",
          "type": "uint256"
        },
        {
          "indexed": false,
          "internalType": "uint256",
          "name": "fraction",
          "type": "uint256"
        }
      ],
      "name": "LogAddAsset",
      "type": "event"
    },
    {
      "anonymous": false,
      "inputs": [
        {
          "indexed": true,
          "internalType": "address",
          "name": "from",
          "type": "address"
        },
        {
          "indexed": true,
          "internalType": "address",
          "name": "to",
          "type": "address"
        },
        {
          "indexed": false,
          "internalType": "uint256",
          "name": "share",
          "type": "uint256"
        }
      ],
      "name": "LogAddCollateral",
      "type": "event"
    },
    {
      "anonymous": false,
      "inputs": [
        {
          "indexed": true,
          "internalType": "address",
          "name": "from",
          "type": "address"
        },
        {
          "indexed": true,
          "internalType": "address",
          "name": "to",
          "type": "address"
        },
        {
          "indexed": false,
          "internalType": "uint256",
          "name": "amount",
          "type": "uint256"
        },
        {
          "indexed": false,
          "internalType": "uint256",
          "name": "feeAmount",
          "type": "uint256"
        },
        {
          "indexed": false,
          "internalType": "uint256",
          "name": "part",
          "type": "uint256"
        }
      ],
      "name": "LogBorrow",
      "type": "event"
    },
    {
      "anonymous": false,
      "inputs": [
        {
          "indexed": false,
          "internalType": "uint256",
          "name": "_oldVal",
          "type": "uint256"
        },
        {
          "indexed": false,
          "internalType": "uint256",
          "name": "_newVal",
          "type": "uint256"
        }
      ],
      "name": "LogBorrowCapUpdated",
      "type": "event"
    },
    {
      "anonymous": false,
      "inputs": [
        {
          "indexed": false,
          "internalType": "uint256",
          "name": "_oldVal",
          "type": "uint256"
        },
        {
          "indexed": false,
          "internalType": "uint256",
          "name": "_newVal",
          "type": "uint256"
        }
      ],
      "name": "LogBorrowingFee",
      "type": "event"
    },
    {
      "anonymous": false,
      "inputs": [
        {
          "indexed": false,
          "internalType": "uint256",
          "name": "rate",
          "type": "uint256"
        }
      ],
      "name": "LogExchangeRate",
      "type": "event"
    },
    {
      "anonymous": false,
      "inputs": [
        {
          "indexed": true,
          "internalType": "address",
          "name": "from",
          "type": "address"
        },
        {
          "indexed": true,
          "internalType": "address",
          "name": "to",
          "type": "address"
        },
        {
          "indexed": false,
          "internalType": "uint256",
          "name": "share",
          "type": "uint256"
        },
        {
          "indexed": false,
          "internalType": "uint256",
          "name": "fraction",
          "type": "uint256"
        }
      ],
      "name": "LogRemoveAsset",
      "type": "event"
    },
    {
      "anonymous": false,
      "inputs": [
        {
          "indexed": true,
          "internalType": "address",
          "name": "from",
          "type": "address"
        },
        {
          "indexed": true,
          "internalType": "address",
          "name": "to",
          "type": "address"
        },
        {
          "indexed": false,
          "internalType": "uint256",
          "name": "share",
          "type": "uint256"
        }
      ],
      "name": "LogRemoveCollateral",
      "type": "event"
    },
    {
      "anonymous": false,
      "inputs": [
        {
          "indexed": true,
          "internalType": "address",
          "name": "from",
          "type": "address"
        },
        {
          "indexed": true,
          "internalType": "address",
          "name": "to",
          "type": "address"
        },
        {
          "indexed": false,
          "internalType": "uint256",
          "name": "amount",
          "type": "uint256"
        },
        {
          "indexed": false,
          "internalType": "uint256",
          "name": "part",
          "type": "uint256"
        }
      ],
      "name": "LogRepay",
      "type": "event"
    },
    {
      "anonymous": false,
      "inputs": [
        {
          "indexed": true,
          "internalType": "address",
          "name": "feeTo",
          "type": "address"
        },
        {
          "indexed": false,
          "internalType": "uint256",
          "name": "feesEarnedFraction",
          "type": "uint256"
        }
      ],
      "name": "LogWithdrawFees",
      "type": "event"
    },
    {
      "anonymous": false,
      "inputs": [
        {
          "indexed": false,
          "internalType": "uint256",
          "name": "feeShares",
          "type": "uint256"
        },
        {
          "indexed": false,
          "internalType": "uint256",
          "name": "ethAmount",
          "type": "uint256"
        }
      ],
      "name": "LogYieldBoxFeesDeposit",
      "type": "event"
    },
    {
      "anonymous": false,
      "inputs": [
        {
          "indexed": false,
          "internalType": "uint256",
          "name": "oldVal",
          "type": "uint256"
        },
        {
          "indexed": false,
          "internalType": "uint256",
          "name": "newVal",
          "type": "uint256"
        }
      ],
      "name": "LqCollateralizationRateUpdated",
      "type": "event"
    },
    {
      "anonymous": false,
      "inputs": [
        {
          "indexed": false,
          "internalType": "uint256",
          "name": "oldVal",
          "type": "uint256"
        },
        {
          "indexed": false,
          "internalType": "uint256",
          "name": "newVal",
          "type": "uint256"
        }
      ],
      "name": "MaximumInterestPerSecondUpdated",
      "type": "event"
    },
    {
      "anonymous": false,
      "inputs": [
        {
          "indexed": false,
          "internalType": "uint256",
          "name": "oldVal",
          "type": "uint256"
        },
        {
          "indexed": false,
          "internalType": "uint256",
          "name": "newVal",
          "type": "uint256"
        }
      ],
      "name": "MaximumTargetUtilizationUpdated",
      "type": "event"
    },
    {
      "anonymous": false,
      "inputs": [
        {
          "indexed": false,
          "internalType": "uint256",
          "name": "oldVal",
          "type": "uint256"
        },
        {
          "indexed": false,
          "internalType": "uint256",
          "name": "newVal",
          "type": "uint256"
        }
      ],
      "name": "MinimumInterestPerSecondUpdated",
      "type": "event"
    },
    {
      "anonymous": false,
      "inputs": [
        {
          "indexed": false,
          "internalType": "uint256",
          "name": "oldVal",
          "type": "uint256"
        },
        {
          "indexed": false,
          "internalType": "uint256",
          "name": "newVal",
          "type": "uint256"
        }
      ],
      "name": "MinimumTargetUtilizationUpdated",
      "type": "event"
    },
    {
      "anonymous": false,
      "inputs": [],
      "name": "OracleDataUpdated",
      "type": "event"
    },
    {
      "anonymous": false,
      "inputs": [],
      "name": "OracleUpdated",
      "type": "event"
    },
    {
      "anonymous": false,
      "inputs": [
        {
          "indexed": false,
          "internalType": "uint256",
          "name": "oldVal",
          "type": "uint256"
        },
        {
          "indexed": false,
          "internalType": "uint256",
          "name": "newVal",
          "type": "uint256"
        }
      ],
      "name": "OrderBookLiquidationMultiplierUpdated",
      "type": "event"
    },
    {
      "anonymous": false,
      "inputs": [
        {
          "indexed": true,
          "internalType": "address",
          "name": "previousOwner",
          "type": "address"
        },
        {
          "indexed": true,
          "internalType": "address",
          "name": "newOwner",
          "type": "address"
        }
      ],
      "name": "OwnershipTransferred",
      "type": "event"
    },
    {
      "anonymous": false,
      "inputs": [
        {
          "indexed": false,
          "internalType": "bool",
          "name": "oldState",
          "type": "bool"
        },
        {
          "indexed": false,
          "internalType": "bool",
          "name": "newState",
          "type": "bool"
        }
      ],
      "name": "PausedUpdated",
      "type": "event"
    },
    {
      "anonymous": false,
      "inputs": [
        {
          "indexed": true,
          "internalType": "address",
          "name": "from",
          "type": "address"
        },
        {
          "indexed": true,
          "internalType": "address",
          "name": "to",
          "type": "address"
        },
        {
          "indexed": false,
          "internalType": "uint256",
          "name": "value",
          "type": "uint256"
        }
      ],
      "name": "Transfer",
      "type": "event"
    },
    {
      "anonymous": false,
      "inputs": [
        {
          "indexed": true,
          "internalType": "address",
          "name": "newAddress",
          "type": "address"
        }
      ],
      "name": "UsdoSwapperUpdated",
      "type": "event"
    },
    {
      "inputs": [],
      "name": "DOMAIN_SEPARATOR",
      "outputs": [
        {
          "internalType": "bytes32",
          "name": "",
          "type": "bytes32"
        }
      ],
      "stateMutability": "view",
      "type": "function"
    },
    {
      "inputs": [],
      "name": "accrue",
      "outputs": [],
      "stateMutability": "nonpayable",
      "type": "function"
    },
    {
      "inputs": [],
      "name": "accrueInfo",
      "outputs": [
        {
          "internalType": "uint64",
          "name": "interestPerSecond",
          "type": "uint64"
        },
        {
          "internalType": "uint64",
          "name": "lastAccrued",
          "type": "uint64"
        },
        {
          "internalType": "uint128",
          "name": "feesEarnedFraction",
          "type": "uint128"
        }
      ],
      "stateMutability": "view",
      "type": "function"
    },
    {
      "inputs": [
        {
          "internalType": "address",
          "name": "from",
          "type": "address"
        },
        {
          "internalType": "address",
          "name": "to",
          "type": "address"
        },
        {
          "internalType": "bool",
          "name": "skim",
          "type": "bool"
        },
        {
          "internalType": "uint256",
          "name": "amount",
          "type": "uint256"
        },
        {
          "internalType": "uint256",
          "name": "share",
          "type": "uint256"
        }
      ],
      "name": "addCollateral",
      "outputs": [],
      "stateMutability": "nonpayable",
      "type": "function"
    },
    {
      "inputs": [
        {
          "internalType": "address",
          "name": "",
          "type": "address"
        },
        {
          "internalType": "address",
          "name": "",
          "type": "address"
        }
      ],
      "name": "allowance",
      "outputs": [
        {
          "internalType": "uint256",
          "name": "",
          "type": "uint256"
        }
      ],
      "stateMutability": "view",
      "type": "function"
    },
    {
      "inputs": [
        {
          "internalType": "address",
          "name": "",
          "type": "address"
        },
        {
          "internalType": "address",
          "name": "",
          "type": "address"
        }
      ],
      "name": "allowanceBorrow",
      "outputs": [
        {
          "internalType": "uint256",
          "name": "",
          "type": "uint256"
        }
      ],
      "stateMutability": "view",
      "type": "function"
    },
    {
      "inputs": [
        {
          "internalType": "address",
          "name": "spender",
          "type": "address"
        },
        {
          "internalType": "uint256",
          "name": "amount",
          "type": "uint256"
        }
      ],
      "name": "approve",
      "outputs": [
        {
          "internalType": "bool",
          "name": "",
          "type": "bool"
        }
      ],
      "stateMutability": "nonpayable",
      "type": "function"
    },
    {
      "inputs": [
        {
          "internalType": "address",
          "name": "spender",
          "type": "address"
        },
        {
          "internalType": "uint256",
          "name": "amount",
          "type": "uint256"
        }
      ],
      "name": "approveBorrow",
      "outputs": [
        {
          "internalType": "bool",
          "name": "",
          "type": "bool"
        }
      ],
      "stateMutability": "nonpayable",
      "type": "function"
    },
    {
      "inputs": [],
      "name": "asset",
      "outputs": [
        {
          "internalType": "contract IERC20",
          "name": "",
          "type": "address"
        }
      ],
      "stateMutability": "view",
      "type": "function"
    },
    {
      "inputs": [],
      "name": "assetId",
      "outputs": [
        {
          "internalType": "uint256",
          "name": "",
          "type": "uint256"
        }
      ],
      "stateMutability": "view",
      "type": "function"
    },
    {
      "inputs": [
        {
          "internalType": "address",
          "name": "",
          "type": "address"
        }
      ],
      "name": "balanceOf",
      "outputs": [
        {
          "internalType": "uint256",
          "name": "",
          "type": "uint256"
        }
      ],
      "stateMutability": "view",
      "type": "function"
    },
    {
      "inputs": [],
      "name": "borrowOpeningFee",
      "outputs": [
        {
          "internalType": "uint256",
          "name": "",
          "type": "uint256"
        }
      ],
      "stateMutability": "view",
      "type": "function"
    },
    {
      "inputs": [],
      "name": "callerFee",
      "outputs": [
        {
          "internalType": "uint256",
          "name": "",
          "type": "uint256"
        }
      ],
      "stateMutability": "view",
      "type": "function"
    },
    {
      "inputs": [],
      "name": "claimOwnership",
      "outputs": [],
      "stateMutability": "nonpayable",
      "type": "function"
    },
    {
      "inputs": [],
      "name": "collateral",
      "outputs": [
        {
          "internalType": "contract IERC20",
          "name": "",
          "type": "address"
        }
      ],
      "stateMutability": "view",
      "type": "function"
    },
    {
      "inputs": [],
      "name": "collateralId",
      "outputs": [
        {
          "internalType": "uint256",
          "name": "",
          "type": "uint256"
        }
      ],
      "stateMutability": "view",
      "type": "function"
    },
    {
      "inputs": [],
      "name": "collateralizationRate",
      "outputs": [
        {
          "internalType": "uint256",
          "name": "",
          "type": "uint256"
        }
      ],
      "stateMutability": "view",
      "type": "function"
    },
    {
      "inputs": [
        {
          "internalType": "uint256",
          "name": "borrowPart",
          "type": "uint256"
        },
        {
          "internalType": "uint256",
          "name": "collateralPartInAsset",
          "type": "uint256"
        },
        {
          "internalType": "uint256",
          "name": "borrowPartDecimals",
          "type": "uint256"
        },
        {
          "internalType": "uint256",
          "name": "collateralPartDecimals",
          "type": "uint256"
        },
        {
          "internalType": "uint256",
          "name": "ratesPrecision",
          "type": "uint256"
        }
      ],
      "name": "computeClosingFactor",
      "outputs": [
        {
          "internalType": "uint256",
          "name": "",
          "type": "uint256"
        }
      ],
      "stateMutability": "view",
      "type": "function"
    },
    {
      "inputs": [
        {
          "internalType": "address",
          "name": "user",
          "type": "address"
        },
        {
          "internalType": "uint256",
          "name": "_exchangeRate",
          "type": "uint256"
        }
      ],
      "name": "computeLiquidatorReward",
      "outputs": [
        {
          "internalType": "uint256",
          "name": "",
          "type": "uint256"
        }
      ],
      "stateMutability": "view",
      "type": "function"
    },
    {
      "inputs": [
        {
          "internalType": "address",
          "name": "user",
          "type": "address"
        },
        {
          "internalType": "uint256",
          "name": "_exchangeRate",
          "type": "uint256"
        }
      ],
      "name": "computeTVLInfo",
      "outputs": [
        {
          "internalType": "uint256",
          "name": "amountToSolvency",
          "type": "uint256"
        },
        {
          "internalType": "uint256",
          "name": "minTVL",
          "type": "uint256"
        },
        {
          "internalType": "uint256",
          "name": "maxTVL",
          "type": "uint256"
        }
      ],
      "stateMutability": "view",
      "type": "function"
    },
    {
      "inputs": [],
      "name": "conservator",
      "outputs": [
        {
          "internalType": "address",
          "name": "",
          "type": "address"
        }
      ],
      "stateMutability": "view",
      "type": "function"
    },
    {
      "inputs": [],
      "name": "decimals",
      "outputs": [
        {
          "internalType": "uint8",
          "name": "",
          "type": "uint8"
        }
      ],
      "stateMutability": "view",
      "type": "function"
    },
    {
      "inputs": [],
      "name": "exchangeRate",
      "outputs": [
        {
          "internalType": "uint256",
          "name": "",
          "type": "uint256"
        }
      ],
      "stateMutability": "view",
      "type": "function"
    },
    {
      "inputs": [],
      "name": "fullUtilizationMinusMax",
      "outputs": [
        {
          "internalType": "uint256",
          "name": "",
          "type": "uint256"
        }
      ],
      "stateMutability": "view",
      "type": "function"
    },
    {
      "inputs": [],
      "name": "getInterestDetails",
      "outputs": [
        {
          "components": [
            {
              "internalType": "uint64",
              "name": "interestPerSecond",
              "type": "uint64"
            },
            {
              "internalType": "uint64",
              "name": "lastAccrued",
              "type": "uint64"
            },
            {
              "internalType": "uint128",
              "name": "feesEarnedFraction",
              "type": "uint128"
            }
          ],
          "internalType": "struct ISingularity.AccrueInfo",
          "name": "_accrueInfo",
          "type": "tuple"
        },
        {
          "internalType": "uint256",
          "name": "utilization",
          "type": "uint256"
        }
      ],
      "stateMutability": "view",
      "type": "function"
    },
    {
      "inputs": [],
      "name": "interestElasticity",
      "outputs": [
        {
          "internalType": "uint256",
          "name": "",
          "type": "uint256"
        }
      ],
      "stateMutability": "view",
      "type": "function"
    },
    {
      "inputs": [],
      "name": "liquidationBonusAmount",
      "outputs": [
        {
          "internalType": "uint256",
          "name": "",
          "type": "uint256"
        }
      ],
      "stateMutability": "view",
      "type": "function"
    },
    {
      "inputs": [],
      "name": "liquidationMultiplier",
      "outputs": [
        {
          "internalType": "uint256",
          "name": "",
          "type": "uint256"
        }
      ],
      "stateMutability": "view",
      "type": "function"
    },
    {
      "inputs": [],
      "name": "liquidationQueue",
      "outputs": [
        {
          "internalType": "contract ILiquidationQueue",
          "name": "",
          "type": "address"
        }
      ],
      "stateMutability": "view",
      "type": "function"
    },
    {
      "inputs": [],
      "name": "lqCollateralizationRate",
      "outputs": [
        {
          "internalType": "uint256",
          "name": "",
          "type": "uint256"
        }
      ],
      "stateMutability": "view",
      "type": "function"
    },
    {
      "inputs": [],
      "name": "maxLiquidatorReward",
      "outputs": [
        {
          "internalType": "uint256",
          "name": "",
          "type": "uint256"
        }
      ],
      "stateMutability": "view",
      "type": "function"
    },
    {
      "inputs": [],
      "name": "maximumInterestPerSecond",
      "outputs": [
        {
          "internalType": "uint64",
          "name": "",
          "type": "uint64"
        }
      ],
      "stateMutability": "view",
      "type": "function"
    },
    {
      "inputs": [],
      "name": "maximumTargetUtilization",
      "outputs": [
        {
          "internalType": "uint256",
          "name": "",
          "type": "uint256"
        }
      ],
      "stateMutability": "view",
      "type": "function"
    },
    {
      "inputs": [],
      "name": "minLiquidatorReward",
      "outputs": [
        {
          "internalType": "uint256",
          "name": "",
          "type": "uint256"
        }
      ],
      "stateMutability": "view",
      "type": "function"
    },
    {
      "inputs": [],
      "name": "minimumInterestPerSecond",
      "outputs": [
        {
          "internalType": "uint64",
          "name": "",
          "type": "uint64"
        }
      ],
      "stateMutability": "view",
      "type": "function"
    },
    {
      "inputs": [],
      "name": "minimumTargetUtilization",
      "outputs": [
        {
          "internalType": "uint256",
          "name": "",
          "type": "uint256"
        }
      ],
      "stateMutability": "view",
      "type": "function"
    },
    {
      "inputs": [],
      "name": "name",
      "outputs": [
        {
          "internalType": "string",
          "name": "",
          "type": "string"
        }
      ],
      "stateMutability": "view",
      "type": "function"
    },
    {
      "inputs": [
        {
          "internalType": "address",
          "name": "owner",
          "type": "address"
        }
      ],
      "name": "nonces",
      "outputs": [
        {
          "internalType": "uint256",
          "name": "",
          "type": "uint256"
        }
      ],
      "stateMutability": "view",
      "type": "function"
    },
    {
      "inputs": [],
      "name": "oracle",
      "outputs": [
        {
          "internalType": "contract IOracle",
          "name": "",
          "type": "address"
        }
      ],
      "stateMutability": "view",
      "type": "function"
    },
    {
      "inputs": [],
      "name": "oracleData",
      "outputs": [
        {
          "internalType": "bytes",
          "name": "",
          "type": "bytes"
        }
      ],
      "stateMutability": "view",
      "type": "function"
    },
    {
      "inputs": [],
      "name": "owner",
      "outputs": [
        {
          "internalType": "address",
          "name": "",
          "type": "address"
        }
      ],
      "stateMutability": "view",
      "type": "function"
    },
    {
      "inputs": [],
      "name": "paused",
      "outputs": [
        {
          "internalType": "bool",
          "name": "",
          "type": "bool"
        }
      ],
      "stateMutability": "view",
      "type": "function"
    },
    {
      "inputs": [],
      "name": "pendingOwner",
      "outputs": [
        {
          "internalType": "address",
          "name": "",
          "type": "address"
        }
      ],
      "stateMutability": "view",
      "type": "function"
    },
    {
      "inputs": [],
      "name": "penrose",
      "outputs": [
        {
          "internalType": "contract IPenrose",
          "name": "",
          "type": "address"
        }
      ],
      "stateMutability": "view",
      "type": "function"
    },
    {
      "inputs": [
        {
          "internalType": "address",
          "name": "owner",
          "type": "address"
        },
        {
          "internalType": "address",
          "name": "spender",
          "type": "address"
        },
        {
          "internalType": "uint256",
          "name": "value",
          "type": "uint256"
        },
        {
          "internalType": "uint256",
          "name": "deadline",
          "type": "uint256"
        },
        {
          "internalType": "uint8",
          "name": "v",
          "type": "uint8"
        },
        {
          "internalType": "bytes32",
          "name": "r",
          "type": "bytes32"
        },
        {
          "internalType": "bytes32",
          "name": "s",
          "type": "bytes32"
        }
      ],
      "name": "permit",
      "outputs": [],
      "stateMutability": "nonpayable",
      "type": "function"
    },
    {
      "inputs": [
        {
          "internalType": "address",
          "name": "owner",
          "type": "address"
        },
        {
          "internalType": "address",
          "name": "spender",
          "type": "address"
        },
        {
          "internalType": "uint256",
          "name": "value",
          "type": "uint256"
        },
        {
          "internalType": "uint256",
          "name": "deadline",
          "type": "uint256"
        },
        {
          "internalType": "uint8",
          "name": "v",
          "type": "uint8"
        },
        {
          "internalType": "bytes32",
          "name": "r",
          "type": "bytes32"
        },
        {
          "internalType": "bytes32",
          "name": "s",
          "type": "bytes32"
        }
      ],
      "name": "permitBorrow",
      "outputs": [],
      "stateMutability": "nonpayable",
      "type": "function"
    },
    {
      "inputs": [],
      "name": "protocolFee",
      "outputs": [
        {
          "internalType": "uint256",
          "name": "",
          "type": "uint256"
        }
      ],
      "stateMutability": "view",
      "type": "function"
    },
    {
      "inputs": [
        {
          "internalType": "address",
          "name": "from",
          "type": "address"
        },
        {
          "internalType": "address",
          "name": "to",
          "type": "address"
        },
        {
          "internalType": "uint256",
          "name": "share",
          "type": "uint256"
        }
      ],
      "name": "removeCollateral",
      "outputs": [],
      "stateMutability": "nonpayable",
      "type": "function"
    },
    {
      "inputs": [
        {
          "internalType": "uint256",
          "name": "_cap",
          "type": "uint256"
        }
      ],
      "name": "setBorrowCap",
      "outputs": [],
      "stateMutability": "nonpayable",
      "type": "function"
    },
    {
      "inputs": [
        {
          "internalType": "uint256",
          "name": "_val",
          "type": "uint256"
        }
      ],
      "name": "setBorrowOpeningFee",
      "outputs": [],
      "stateMutability": "nonpayable",
      "type": "function"
    },
    {
      "inputs": [
        {
          "internalType": "uint256",
          "name": "_borrowOpeningFee",
          "type": "uint256"
        },
        {
          "internalType": "contract IOracle",
          "name": "_oracle",
          "type": "address"
        },
        {
          "internalType": "bytes",
          "name": "_oracleData",
          "type": "bytes"
        },
        {
          "internalType": "address",
          "name": "_conservator",
          "type": "address"
        },
        {
          "internalType": "uint256",
          "name": "_callerFee",
          "type": "uint256"
        },
        {
          "internalType": "uint256",
          "name": "_protocolFee",
          "type": "uint256"
        },
        {
          "internalType": "uint256",
          "name": "_liquidationBonusAmount",
          "type": "uint256"
        },
        {
          "internalType": "uint256",
          "name": "_minLiquidatorReward",
          "type": "uint256"
        },
        {
          "internalType": "uint256",
          "name": "_maxLiquidatorReward",
          "type": "uint256"
        },
        {
          "internalType": "uint256",
          "name": "_totalBorrowCap",
          "type": "uint256"
        },
        {
          "internalType": "uint256",
          "name": "_collateralizationRate",
          "type": "uint256"
        }
      ],
      "name": "setMarketConfig",
      "outputs": [],
      "stateMutability": "nonpayable",
      "type": "function"
    },
    {
      "inputs": [],
      "name": "startingInterestPerSecond",
      "outputs": [
        {
          "internalType": "uint64",
          "name": "",
          "type": "uint64"
        }
      ],
      "stateMutability": "view",
      "type": "function"
    },
    {
      "inputs": [],
      "name": "symbol",
      "outputs": [
        {
          "internalType": "string",
          "name": "",
          "type": "string"
        }
      ],
      "stateMutability": "view",
      "type": "function"
    },
    {
      "inputs": [],
      "name": "totalAsset",
      "outputs": [
        {
          "internalType": "uint128",
          "name": "elastic",
          "type": "uint128"
        },
        {
          "internalType": "uint128",
          "name": "base",
          "type": "uint128"
        }
      ],
      "stateMutability": "view",
      "type": "function"
    },
    {
      "inputs": [],
      "name": "totalBorrow",
      "outputs": [
        {
          "internalType": "uint128",
          "name": "elastic",
          "type": "uint128"
        },
        {
          "internalType": "uint128",
          "name": "base",
          "type": "uint128"
        }
      ],
      "stateMutability": "view",
      "type": "function"
    },
    {
      "inputs": [],
      "name": "totalBorrowCap",
      "outputs": [
        {
          "internalType": "uint256",
          "name": "",
          "type": "uint256"
        }
      ],
      "stateMutability": "view",
      "type": "function"
    },
    {
      "inputs": [],
      "name": "totalCollateralShare",
      "outputs": [
        {
          "internalType": "uint256",
          "name": "",
          "type": "uint256"
        }
      ],
      "stateMutability": "view",
      "type": "function"
    },
    {
      "inputs": [],
      "name": "totalSupply",
      "outputs": [
        {
          "internalType": "uint256",
          "name": "",
          "type": "uint256"
        }
      ],
      "stateMutability": "view",
      "type": "function"
    },
    {
      "inputs": [
        {
          "internalType": "address",
          "name": "to",
          "type": "address"
        },
        {
          "internalType": "uint256",
          "name": "amount",
          "type": "uint256"
        }
      ],
      "name": "transfer",
      "outputs": [
        {
          "internalType": "bool",
          "name": "",
          "type": "bool"
        }
      ],
      "stateMutability": "nonpayable",
      "type": "function"
    },
    {
      "inputs": [
        {
          "internalType": "address",
          "name": "from",
          "type": "address"
        },
        {
          "internalType": "address",
          "name": "to",
          "type": "address"
        },
        {
          "internalType": "uint256",
          "name": "amount",
          "type": "uint256"
        }
      ],
      "name": "transferFrom",
      "outputs": [
        {
          "internalType": "bool",
          "name": "",
          "type": "bool"
        }
      ],
      "stateMutability": "nonpayable",
      "type": "function"
    },
    {
      "inputs": [
        {
          "internalType": "address",
          "name": "newOwner",
          "type": "address"
        },
        {
          "internalType": "bool",
          "name": "direct",
          "type": "bool"
        },
        {
          "internalType": "bool",
          "name": "renounce",
          "type": "bool"
        }
      ],
      "name": "transferOwnership",
      "outputs": [],
      "stateMutability": "nonpayable",
      "type": "function"
    },
    {
      "inputs": [],
      "name": "updateExchangeRate",
      "outputs": [
        {
          "internalType": "bool",
          "name": "updated",
          "type": "bool"
        },
        {
          "internalType": "uint256",
          "name": "rate",
          "type": "uint256"
        }
      ],
      "stateMutability": "nonpayable",
      "type": "function"
    },
    {
      "inputs": [
        {
          "internalType": "bool",
          "name": "val",
          "type": "bool"
        }
      ],
      "name": "updatePause",
      "outputs": [],
      "stateMutability": "nonpayable",
      "type": "function"
    },
    {
      "inputs": [
        {
          "internalType": "address",
          "name": "",
          "type": "address"
        }
      ],
      "name": "userBorrowPart",
      "outputs": [
        {
          "internalType": "uint256",
          "name": "",
          "type": "uint256"
        }
      ],
      "stateMutability": "view",
      "type": "function"
    },
    {
      "inputs": [
        {
          "internalType": "address",
          "name": "",
          "type": "address"
        }
      ],
      "name": "userCollateralShare",
      "outputs": [
        {
          "internalType": "uint256",
          "name": "",
          "type": "uint256"
        }
      ],
      "stateMutability": "view",
      "type": "function"
    },
    {
      "inputs": [],
      "name": "yieldBox",
      "outputs": [
        {
          "internalType": "contract YieldBox",
          "name": "",
          "type": "address"
        }
      ],
      "stateMutability": "view",
      "type": "function"
    }
  ],
  "bytecode": "0x6101408060405234620001e1576200001781620001e6565b601381526001602082017f546170696f63612053696e67756c617269747900000000000000000000000000815260206040516200005481620001e6565b8381520192603160f81b845251902091208160e052610100918183524660a0526040519160208301907f8b73c3c69bb8fe3d512ecc4cf759cc79239f7b179b0ffacaa9a75d522b39400f92838352604085015260608401524660808401523060a084015260a0835260c083019280841060018060401b03851117620001cb5760408490525190206080523060c052610120908152600580546001600160a01b0319163390811790915560007f8be0079c531659141344cd1fd0a4f28419497f9722a3daafe3b4186f6b6457e08180a36103e860185561271080601955601a556032601c55612ee0601d557f0bd4060688a1800ae986e4840aebc924bb40b5bf44de4583df2257220b54b77c6024557f7d1dc38e60930664f8cbf495da6556ca091d2f92d6550877750c049864b182306025556161a86026556136f2928362000203843960805183612938015260a05183612a02015260c05183612902015260e05183612987015251826129ad015251816129640152f35b634e487b7160e01b600052604160045260246000fd5b600080fd5b604081019081106001600160401b03821117620001cb5760405256fe608060408181526004918236101561001657600080fd5b600092833560e01c918262a02a2014611eb65750816302ce728f14611e8d57816306fdde0314611d65578163078dfbe714611c6a578163095ea7b314611c4057816318160ddd14611c1e5781631c9e379b14611be65781631da8bf1014611b1757816323b872dd1461199057838263313ce567146118f25750816334d441d0146118d35781633644e515146118b657816338d52e0f1461188d5781633ba0b9a91461186e57816340626d8b1461184f57816344de240a14611830578163473e3ce71461181157816348e4163e146117d95781634d7f2a34146117ba5781634e71e0c8146117175781635100b567146116b9578163529898f21461169a57816352f353eb14611671578163551402321461164857816355c2ab941461161f57816357935462146116005781635c975abb146115dc5781635dfe04e81461157d5781636c3d8b8f1461155457816370a082311461151c578163717186d1146114be57816374645ff3146114805781637dc0d1d0146114575781637ecebe00146114215781637fa0b84e146113f0578163821226e8146113d15781638285ef401461139e5781638c5d0ed31461137f5781638da5cb5b14611356578163959916dc1461133757816395d89b411461120b5781639675937214610e2557816399a9702814610dd45781639c5d719214610db55781639e15e89f14610d7a578163a9059cbb14610c9f578163b0e21e8a14610c80578163b27c0e7414610c46578163bb4cfe3b14610c27578163c23ea21f14610bfe578163cce19f8114610a4d578163ce8849ed14610a20578163d505accf14610885578163d8dfeb451461085c578163dd62ed3e1461080e578163de406577146107e5578163e0996cb6146107c6578163e30c39781461079d578163e9a49252146104e8578163eec0f42e146104c9578163f42760b7146104aa578163f760b70c14610473578163f8974de01461037257508063f8ba4cff14610353578063f9557ccb1461031d5763ffe04c66146102fc57600080fd5b346103195781600319360112610319576020906027549051908152f35b5080fd5b5034610319578160031936011261031957602154905190819061034f90608081901c906001600160801b03168361217a565b0390f35b823461036f578060031936011261036f5761036c613246565b80f35b80fd5b9190503461046f57602036600319011261046f5781359081151580920361046a57600d5492600884901c6001600160a01b031633036104315760ff84161515908184146103f95750817f9c13c5f6c628c1c82eb2b3fd8714da5c2857dbd0ad8ab6b2074abcf81015d3969160ff949351908152836020820152a1169060ff191617600d5580f35b606490602084519162461bcd60e51b835282015260126024820152714d61726b65743a2073616d6520737461746560701b6044820152fd5b6020606492519162461bcd60e51b8352820152601460248201527313585c9ad95d0e881d5b985d5d1a1bdc9a5e995960621b6044820152fd5b600080fd5b8280fd5b82843461036f5760a036600319011261036f57506104a360209260843590606435906044359060243590356122cd565b9051908152f35b5050346103195781600319360112610319576020906028549051908152f35b505034610319578160031936011261031957602090600a549051908152f35b8383346103195760a036600319011261031957610503611efc565b9061050c611f12565b93610515611f70565b946084359261052960ff600d54161561221f565b6105338486612cfa565b8315610716575b60018060a01b03809216948587526020936015855282882061055d8782546122c0565b905560125461056c87826122c0565b601255600a5490600c54821460001461070e576024545b898b5260238852858b20908b528752848a206105a08982546122c0565b90558a1561068757868660075416926044875180958193627eeac760e11b8352308984015260248301525afa801561067d578a9061064e575b6105e3925061225c565b861161061b575060008051602061361d833981519152949596975b1561061557508160075416905b519485521692a380f35b9061060b565b825162461bcd60e51b8152908101859052600d60248201526c0a68e987440e8dede40daeac6d609b1b6044820152606490fd5b508682813d8311610676575b6106648183612157565b8101031261046a576105e391516105d9565b503d61065a565b85513d8c823e3d90fd5b5090889996979891856007541691823b1561070a576106c2928492838c93895196879586948593630208d92960e11b85528c30918601613328565b03925af18015610700576106e8575b505060008051602061361d833981519152946105fe565b6106f1906120c2565b6106fc5787896106d1565b8780fd5b84513d84823e3d90fd5b8380fd5b602554610583565b925060018060a01b03600754166020600a546064865180948193638eb22cdd60e01b835288830152823560248301528a60448301525afa908115610793578691610762575b509261053a565b90506020813d821161078b575b8161077c60209383612157565b8101031261046a57518761075b565b3d915061076f565b84513d88823e3d90fd5b50503461031957816003193601126103195760065490516001600160a01b039091168152602090f35b505034610319578160031936011261031957602090601a549051908152f35b50503461031957816003193601126103195760075490516001600160a01b039091168152602090f35b50503461031957806003193601126103195760209161082b611efc565b82610834611f12565b6001600160a01b03928316845260028652922091166000908152908352819020549051908152f35b50503461031957816003193601126103195760095490516001600160a01b039091168152602090f35b839150346103195761089636611f7f565b908397949796959642116109dd5760018060a01b03928387169485600052866020528b60002080549060001982146109c857878b8f9294848f61096b999760016109739c9a980190558b86519460208601967f6e71edae12b1b97f4d1f60370fef10105fa2faae0126114a169c64845d6126c9885288870152166060850152608084015260a083015260c082015260c0815261093181612121565b51902061093c6128ff565b915190602082019261190160f01b845260228301526042820152604281526109638161213c565b519020612bc7565b919091612ab2565b1603610985575061036c939450612ca3565b606490602087519162461bcd60e51b8352820152601e60248201527f45524332305065726d69743a20696e76616c6964207369676e617475726500006044820152fd5b601189634e487b7160e01b6000525260246000fd5b895162461bcd60e51b8152602081870152601d60248201527f45524332305065726d69743a206578706972656420646561646c696e650000006044820152606490fd5b505034610319578160031936011261031957600d54905160089190911c6001600160a01b03168152602090f35b9190503461046f57610a5e36611fce565b929190610a7060ff600d54161561221f565b610a786125df565b5050610a82613246565b610a8c8483612cfa565b60018060a01b0393848316918288528760209660158852868220610ab185825461225c565b9055610abf8460125461225c565b6012558651848152857f8ad4d3ff00da092c7ad9a573ea4f5f6a3dffc6712dc06d3f78f49b862297c4028a84871693a360075416600a5490803b1561046f578493838b610b218b5197889687958694630208d92960e11b865230908601613328565b03925af18015610bf457610bdb575b5090610b7892918188526023865284882060255490818a528752858920548211600014610bb65750508652602384528286206025548752845285838120555b60105490612d8e565b15610b81578380f35b5162461bcd60e51b815291820152601160248201527013585c9ad95d0e881a5b9cdbdb1d995b9d607a1b604482015260649150fd5b90918852602386528488209088528552610bd484882091825461225c565b9055610b6f565b96610beb610b78949392986120c2565b96909192610b30565b85513d8a823e3d90fd5b50503461031957816003193601126103195760225490516001600160a01b039091168152602090f35b505034610319578160031936011261031957602090601b549051908152f35b5050346103195781600319360112610319576060906020549080519160018060401b03808216845281831c16602084015260801c90820152f35b5050346103195781600319360112610319576020906017549051908152f35b505034610319578060031936011261031957602091610cbc611efc565b82602435928315801590610d68575b610cfb575b50519182526001600160a01b031690339060008051602061365d833981519152908590a35160018152f35b3381526001865281812054610d1285821015612a28565b6001600160a01b038416908533839003610d2f575b505050610cd0565b610d4391610d3e841515612a6d565b61225c565b3383526001885283832055815220610d5c8382546122c0565b90558238808085610d27565b50336001600160a01b03841614610ccb565b505034610319578060031936011261031957606090610da3610d9a611efc565b6024359061248d565b91929081519384526020840152820152f35b5050346103195781600319360112610319576020906029549051908152f35b5050346103195780600319360112610319576020916104a3906001600160a01b03610dfd611efc565b168082526015855283610e156024358285205461273d565b93909281526014875220546127f9565b90503461046f5761016036600319011261046f576001600160a01b039060248035838116928035929091849003611207576001600160401b039160443591908383116112035736602384011215611203578201359283116106fc57368184840101116106fc5760643594868616948587036111ff57610ea988600554163314612194565b806111c8575b508061118a575b5082611039575b50505080610fe3575b50505060843580610fcb575b5060a43580610fb3575b5060c43580610f9c575b5060e43580610f78575b506101043580610f54575b50610124359081610f2b575b50506101443580610f16575080f35b610f25620186a08211156121df565b601b5580f35b6000805160206135dd833981519152906013548151908152836020820152a16013553880610f07565b610f62620186a082106121df565b610f6f60185482116121df565b60195538610efb565b610f86620186a082106121df565b610f9360195482106121df565b60185538610ef0565b610faa620186a082106121df565b601a5538610ee6565b610fc2620186a08211156121df565b60175538610edc565b610fda620186a08211156121df565b60165538610ed2565b600d54928360081c167f5a62d22209e370e38eea92cfddcd228e656e6ec139243392a760a7769f5877fd8680a3610100600160a81b031990911660089190911b610100600160a81b031617600d55388080610ec6565b8291611046600f54612003565b601f8111611131575b508890601f84116001146110b45789936110a7575b5050508160011b916000199060031b1c191617600f555b7fa6f004921c944d4b8bf6e38462b00f36a58d62495d56b51f571ab78f732c98158580a1388080610ebd565b0101359050388080611064565b600f8a5260008051602061369d83398151915293509190601f1985168a60205b828210611117575050908560019695949392106110fb575b50505050811b01600f5561107b565b60001960f88660031b161c1992010135169055388080806110ec565b8060018598878395978a01013581550197019301906110d4565b600f8a529192509060008051602061369d833981519152601f850160051c810160208610611183575b90601f869594930160051c01905b818110611175575061104f565b8a8155859450600101611168565b508061115a565b600e80546001600160a01b0319169190911790557f0b2d6eb667d0522c3eb86e4288afecae6c11591ffd1345d4d12407e0598bca9b8880a138610eb6565b6111d7620186a08211156121df565b6000805160206135fd83398151915289601c548151908152836020820152a1601c5538610eaf565b8980fd5b8880fd5b8680fd5b8383346103195781600319360112610319576009546001600160a01b03939061123590851661341a565b61124285600b541661341a565b94600e541693835163634ce26b60e11b815281816020978887830152818061126c6024820161203d565b03915afa91821561132c579260249261034f969592856112fa9692611309575b5050855198899261746d60f01b8a8501526112b0815180928c602288019101611f28565b8301602f60f81b60228201526112cf825180938c602385019101611f28565b01602d60f81b60238201526112ec825180938b8885019101611f28565b010390810187520185612157565b51928284938452830190611f4b565b61132592503d8091833e61131d8183612157565b81019061336d565b898061128c565b8551903d90823e3d90fd5b505034610319578160031936011261031957602090601c549051908152f35b50503461031957816003193601126103195760055490516001600160a01b039091168152602090f35b5050346103195781600319360112610319576020906018549051908152f35b505034610319578160031936011261031957601154905190819061034f90608081901c906001600160801b03168361217a565b505034610319578160031936011261031957602090602b549051908152f35b50503461031957806003193601126103195760209061141a611410611efc565b6024359033612c4c565b5160018152f35b90503461046f57602036600319011261046f5760209282916001600160a01b03611449611efc565b168252845220549051908152f35b505034610319578160031936011261031957600e5490516001600160a01b039091168152602090f35b505034610319578160031936011261031957805161034f916114ac826114a58161203d565b0383612157565b51918291602083526020830190611f4b565b90503461046f57602036600319011261046f576000805160206135dd8339815191529035916114f260ff600d54161561221f565b61150760018060a01b03600554163314612194565b6013548151908152836020820152a160135580f35b5050346103195760203660031901126103195760209181906001600160a01b03611544611efc565b1681526001845220549051908152f35b50503461031957816003193601126103195760085490516001600160a01b039091168152602090f35b50503461031957816003193601126103195760809061159a612e9d565b506115a3612ed5565b509495935050505080519260018060401b03808251168552602082015116602085015281600180871b0391015116908301526060820152f35b50503461031957816003193601126103195760209060ff600d541690519015158152f35b5050346103195781600319360112610319576020906019549051908152f35b505034610319578160031936011261031957602a548151911c6001600160401b03168152602090f35b505034610319578160031936011261031957602a5490516001600160401b039091168152602090f35b505034610319578160031936011261031957602c5490516001600160401b039091168152602090f35b505034610319578160031936011261031957602090601d549051908152f35b90503461046f57602036600319011261046f576000805160206135fd8339815191529035916116f360018060a01b03600554163314612194565b611702620186a08411156121df565b601c548151908152836020820152a1601c5580f35b9190503461046f578260031936011261046f576006546001600160a01b039290918383169190338390036117775750508060055493841660008051602061363d8339815191528680a36001600160a01b0319928316176005551660065580f35b906020606492519162461bcd60e51b8352820152602060248201527f4f776e61626c653a2063616c6c657220213d2070656e64696e67206f776e65726044820152fd5b5050346103195781600319360112610319576020906026549051908152f35b5050346103195760203660031901126103195760209181906001600160a01b03611801611efc565b1681526014845220549051908152f35b5050346103195781600319360112610319576020906012549051908152f35b505034610319578160031936011261031957602090600c549051908152f35b5050346103195781600319360112610319576020906013549051908152f35b5050346103195781600319360112610319576020906010549051908152f35b505034610319578160031936011261031957600b5490516001600160a01b039091168152602090f35b5050346103195781600319360112610319576020906104a36128ff565b5050346103195781600319360112610319576020906016549051908152f35b915034610319578160031936011261031957600b54835163313ce56760e01b6020820190815292815283926001600160a01b039092169190611933816120eb565b51915afa61193f6133cb565b9080611985575b156119765760208180518101031261046f57602001519160ff8316830361036f575060ff602092915b5191168152f35b506020915060ff60129161196f565b506020815114611946565b82843461036f576119a036611fce565b9192826119da575b508351918252602094506001600160a01b0390811692169060008051602061365d833981519152908590a35160018152f35b6001600160a01b038481168083526001602090815287842054919892909190611a0587831015612a28565b851692838a03611a19575b505050506119a8565b898552600283528885203386528352888520549060018201611a83575b5050928260209960018a94611a628a8e99610d3e60008051602061365d8339815191529c9a1515612a6d565b9285525283832055815220611a788582546122c0565b905591878080611a10565b878210611ad957509260209960018a94611a628a8e9996611ab48260008051602061365d8339815191529d9b61225c565b86895260028552898920338a5285528989205596995050509450509981949650611a36565b895162461bcd60e51b8152908101849052601860248201527745524332303a20616c6c6f77616e636520746f6f206c6f7760401b6044820152606490fd5b8391503461031957611b2836611f7f565b908397949796959642116109dd5760018060a01b039283871694858b52866020528b8b208054906000198214611bd357878b8f9294848f61096b99976001611bc19c9a980190558b86519460208601967fe9685ff6d48c617fe4f692c50e602cce27cbad0290beb93cfa77eac43968d58c885288870152166060850152608084015260a083015260c082015260c0815261093181612121565b1603610985575061036c939450612c4c565b634e487b7160e01b8d526011895260248dfd5b5050346103195760203660031901126103195760209181906001600160a01b03611c0e611efc565b1681526015845220549051908152f35b50503461031957816003193601126103195760209060215460801c9051908152f35b50503461031957806003193601126103195760209061141a611c60611efc565b6024359033612ca3565b9190503461046f57606036600319011261046f57611c86611efc565b91602435918215158303611d6157611c9c611f70565b9260018060a01b03948591611cb683600554163314612194565b15611d48571692831590811591611d40575b5015611d055750508060055492831660008051602061363d8339815191528580a36001600160a01b03199182161760055560068054909116905580f35b906020606492519162461bcd60e51b835282015260156024820152744f776e61626c653a207a65726f206164647265737360581b6044820152fd5b905038611cc8565b93505050501660018060a01b0319600654161760065580f35b8480fd5b9190503461046f578260031936011261046f576009546001600160a01b039390611d909085166135b9565b90611d9e85600b54166135b9565b94600e5416818451809263355a219b60e21b8252602080988301528180611dc76024820161203d565b03915afa918215611e8257926112fa926036928561034f979692611e67575b505084519788927302a30b834b7b1b09029b4b733bab630b934ba3c960651b89850152611e1c815180928b603488019101611f28565b8301602f60f81b6034820152611e3b825180938b603585019101611f28565b01602d60f81b6035820152611e58825180938a8785019101611f28565b01036016810187520185612157565b611e7b92503d8091833e61131d8183612157565b3880611de6565b8451903d90823e3d90fd5b82843461036f578060031936011261036f5750611ea86125df565b825191151582526020820152f35b8490843461046f578060031936011261046f57602092611ed4611efc565b611edc611f12565b6001600160a01b0391821683526003865283832091168252845220548152f35b600435906001600160a01b038216820361046a57565b602435906001600160a01b038216820361046a57565b60005b838110611f3b5750506000910152565b8181015183820152602001611f2b565b90602091611f6481518092818552858086019101611f28565b601f01601f1916010190565b60443590811515820361046a57565b60e090600319011261046a576001600160a01b0390600435828116810361046a5791602435908116810361046a5790604435906064359060843560ff8116810361046a579060a4359060c43590565b606090600319011261046a576001600160a01b0390600435828116810361046a5791602435908116810361046a579060443590565b90600182811c92168015612033575b602083101461201d57565b634e487b7160e01b600052602260045260246000fd5b91607f1691612012565b600f546000929161204d82612003565b9081815260019283811690816000146120a7575060011461206d57505050565b90929350600f6000526020928360002092846000945b8386106120935750505050010190565b805485870183015294019385908201612083565b91935050602093945060ff191683830152151560051b010190565b6001600160401b0381116120d557604052565b634e487b7160e01b600052604160045260246000fd5b604081019081106001600160401b038211176120d557604052565b606081019081106001600160401b038211176120d557604052565b60e081019081106001600160401b038211176120d557604052565b608081019081106001600160401b038211176120d557604052565b601f909101601f19168101906001600160401b038211908210176120d557604052565b6001600160801b0391821681529116602082015260400190565b1561219b57565b606460405162461bcd60e51b815260206004820152602060248201527f4f776e61626c653a2063616c6c6572206973206e6f7420746865206f776e65726044820152fd5b156121e657565b60405162461bcd60e51b815260206004820152601160248201527013585c9ad95d0e881b9bdd081d985b1a59607a1b6044820152606490fd5b1561222657565b60405162461bcd60e51b815260206004820152600e60248201526d13585c9ad95d0e881c185d5cd95960921b6044820152606490fd5b9190820391821161226957565b634e487b7160e01b600052601160045260246000fd5b604d811161226957600a0a90565b8115612297570490565b634e487b7160e01b600052601260045260246000fd5b8181029291811591840414171561226957565b9190820180921161226957565b909391929381601294858111612421575b8581106123ff575b505080948481116123d9575b8481106123b7575b5050601b549361231c61230d86836122ad565b6123168561227f565b9061228d565b82106123ad576123719161233f61233661234593886122ad565b6123168661227f565b9061225c565b9361233f61230d6123558561227f565b9261236b6123628761227f565b601d54906122c0565b906122ad565b9082039182116122695761236b6123879261227f565b670de0b6b3a764000091828102928184041490151715612269576123aa9161228d565b90565b5050505050600090565b909194508303908382116122695761236b6123d19261227f565b9238806122fa565b94506011198501858111612269576123f36123f99161227f565b8261228d565b946122f2565b909192508403908482116122695761236b6124199261227f565b9038806122e6565b92506011198301838111612269576123f361243b9161227f565b926122de565b6040519061244e826120eb565b6011546001600160801b038116835260801c6020830152565b60405190612474826120eb565b6021546001600160801b038116835260801c6020830152565b6001600160a01b039081166000818152601460209081526040822054929594939192909181156125d2576124bf612441565b906124cb8615156126f1565b6007541683600a548987526015825260646124fe6124f560408a2054620186a0601e5404906122ad565b601b54906122ad565b91604051948593849263442c159960e01b8452600484015260248301528960448301525afa9081156125c7578591612598575b509285949261257060159361254b61258c9960409861228d565b815190936001600160801b03918691612566918416906122ad565b920151169061228d565b90808210612590576125819161225c565b97835252205461273d565b9091565b505082612581565b90508381813d83116125c0575b6125af8183612157565b81010312611d61575161258c612531565b503d6125a5565b6040513d87823e3d90fd5b5050509192505080918190565b60018060a01b03600e54169060409081519263d6d7d52560e01b8452602060048501528284604481600080958160248401525af19081156126e657809481926126a5575b5050918360001461269d5782156126635760207f9f9192b5edb17356c524e08d9e025c8e2f6307e6ea52fb7968faa3081f51c3c8918460105551848152a1565b5162461bcd60e51b81526020600482015260146024820152734d61726b65743a20696e76616c6964207261746560601b6044820152606490fd5b506010549150565b84809296508193503d83116126df575b6126bf8183612157565b8101031261070a57805193841515850361036f5750602001513880612623565b503d6126b5565b8351903d90823e3d90fd5b156126f857565b60405162461bcd60e51b815260206004820152601e60248201527f4d61726b65743a2065786368616e676552617465206e6f742076616c696400006044820152606490fd5b6127488215156126f1565b602060018060a01b0360075416916064600a54604051948593849263442c159960e01b845260048401526024830152600060448301525afa9081156127ed576000916127ba575b50906127a16127a692601e54906122ad565b61228d565b620186a06127b6601b54836122ad565b0491565b906020823d82116127e5575b816127d360209383612157565b8101031261036f5750516127a161278f565b3d91506127c6565b6040513d6000823e3d90fd5b80156128f75781156128f7578181106128f757828110156128ee578161281e9161225c565b620186a0928382029180830485149015171561226957612841926123169161225c565b601854916019549283810390600093848612828412811690838513901516176128da5782810292858112600160ff1b8314166128c65783051490851417156128b2570581838201938412911290801582169115161761289e575090565b634e487b7160e01b81526011600452602490fd5b634e487b7160e01b83526011600452602483fd5b634e487b7160e01b86526011600452602486fd5b634e487b7160e01b85526011600452602485fd5b50505060185490565b505050600090565b307f00000000000000000000000000000000000000000000000000000000000000006001600160a01b031614806129ff575b1561295a577f000000000000000000000000000000000000000000000000000000000000000090565b60405160208101907f000000000000000000000000000000000000000000000000000000000000000082527f000000000000000000000000000000000000000000000000000000000000000060408201527f000000000000000000000000000000000000000000000000000000000000000060608201524660808201523060a082015260a0815260c0810181811060018060401b038211176120d55760405251902090565b507f00000000000000000000000000000000000000000000000000000000000000004614612931565b15612a2f57565b60405162461bcd60e51b815260206004820152601660248201527545524332303a2062616c616e636520746f6f206c6f7760501b6044820152606490fd5b15612a7457565b60405162461bcd60e51b815260206004820152601660248201527545524332303a206e6f207a65726f206164647265737360501b6044820152606490fd5b6005811015612bb15780612ac35750565b60018103612b0b5760405162461bcd60e51b815260206004820152601860248201527745434453413a20696e76616c6964207369676e617475726560401b6044820152606490fd5b60028103612b585760405162461bcd60e51b815260206004820152601f60248201527f45434453413a20696e76616c6964207369676e6174757265206c656e677468006044820152606490fd5b600314612b6157565b60405162461bcd60e51b815260206004820152602260248201527f45434453413a20696e76616c6964207369676e6174757265202773272076616c604482015261756560f01b6064820152608490fd5b634e487b7160e01b600052602160045260246000fd5b9291906fa2a8918ca85bafe22016d0b997e4df60600160ff1b038311612c405791608094939160ff602094604051948552168484015260408301526060820152600093849182805260015afa15612c335781516001600160a01b03811615612c2d579190565b50600190565b50604051903d90823e3d90fd5b50505050600090600390565b909160207fe50de2333c10a9502fcb1d8ae13a51bbf423153dfc63c2b8997665b32154afc39160018060a01b03809416938460005260038352604060002095169485600052825280604060002055604051908152a3565b909160207f8c5be1e5ebec7d5bd14f71427d1e84f3dd0314c0f7b2291e5b200ac8c7c3b9259160018060a01b03809416938460005260028352604060002095169485600052825280604060002055604051908152a3565b6001600160a01b0316338103612d0e575050565b60009080825260036020526040822033835260205282604083205410612d525781604091612d4e935260036020528181203382526020522091825461225c565b9055565b60405162461bcd60e51b815260206004820152601460248201527313585c9ad95d0e881b9bdd08185c1c1c9bdd995960621b6044820152606490fd5b91909160018060a01b03806000921682526020601481526040832054908115612e93576015815260408420548015612e8a5781612dc9612441565b9460075416916064612de96124f5600a5493620186a0601e5404906122ad565b91604051948593849263442c159960e01b8452600484015260248301528960448301525afa948515612e7e578095612e46575b5050612566612e41949596612e3c60018060801b039485875116906122ad565b6122ad565b111590565b909694508187813d8311612e77575b612e5f8183612157565b8101031261036f575094519294612566612e41612e1c565b503d612e55565b604051903d90823e3d90fd5b50929450505050565b5060019450505050565b60405190612eaa82612106565b60006040838281528260208201520152565b6001600160801b03918216908216019190821161226957565b612edd612e9d565b5060405190612eeb826120eb565b600090818352816020809401528183604051612f06816120eb565b828152015260405191612f1883612106565b83549060018060401b0391828116855285850190838160401c16825260801c604086015284612f45612441565b94612f4e612467565b600754600c54825160405163442c159960e01b815260048101929092526001600160801b039081166024830152604482018890529297929694918591908c90829060649082906001600160a01b03165afa801561323b57829061320c575b612fbb9150888b5116906122c0565b806131df57815b612fd085829951164261225c565b9384156131b65750508342168c8c0152878c8b0151161561317a578a9b8491898c81819f819e9f828a915116670de0b6b3a76400009889935116613013916122ad565b9061301d916122ad565b049d8e169151169061302e91612ebc565b168d5260175461303e908c6122ad565b620186a09004918c01918a835116613055916122ad565b9061305f9161228d565b988d818b16906040018282818351169061307891612ebc565b169052818351169061308991612ebc565b1690526027549182881015613101576130a2888461225c565b82810292818404149015171561289e57506127a18493846130e28f946130ce6130ea976130dc9261228d565b93612e3c602b5495806122ad565b836122c0565b9351166122ad565b1690818a52602a54168091106130fd5750565b8852565b909150602854808811613116575b5050505050565b613120908861225c565b82810292818404149015171561289e5750906127a161314b6130dc6130ce613154956029549061228d565b848d51166122ad565b81602a5460401c16808211613172575b50168852388080808061310f565b905038613164565b509650509196829196985080939450511690602c54168091036131aa575b5094936131a3612467565b9383929190565b81526001945038613198565b99509a5050975050509650505050926131cd612441565b926131d6612467565b92809281929190565b878a5116670de0b6b3a7640000908181029181830414901517156128b257816132079161228d565b612fc2565b508b81813d8311613234575b6132228183612157565b8101031261031957612fbb9051612fac565b503d613218565b6040513d84823e3d90fd5b60206040613252612ed5565b93979593909290156132f35750505060008051602061367d8339815191526080600180871b03602c5416865190600082526000878301528782015260006060820152a15b600180851b03815116838201519160018060801b0319958691015160801b1691600160401b600160801b039060401b161717825560018060801b039083838383511692015160801b161760115583511692015160801b1617602155565b60008051602061367d833981519152926080926001808a1b0386511690895193845288840152888301526060820152a1613296565b6001600160a01b039182168152911660208201526040810191909152606081019190915260800190565b6001600160401b0381116120d557601f01601f191660200190565b60208183031261046a578051906001600160401b03821161046a570181601f8201121561046a57805161339f81613352565b926133ad6040519485612157565b8184526020828401011161046a576123aa9160208085019101611f28565b3d156133f6573d906133dc82613352565b916133ea6040519384612157565b82523d6000602084013e565b606090565b60405190613408826120eb565b60038252623f3f3f60e81b6020830152565b6000809160405160208101906395d89b4160e01b82526004815261343d816120eb565b51916001600160a01b03165afa6134526133cb565b9015613461576123aa906134a2565b506123aa6133fb565b90815181101561347b570160200190565b634e487b7160e01b600052603260045260246000fd5b60ff1660ff81146122695760010190565b8051604081106134c05750806020806123aa9351830101910161336d565b6020929083036135ae576000805b60ff8116858110908161358f575b50156134f0576134eb90613491565b6134ce565b9260ff8094169261350084613352565b9361350e6040519586612157565b80855261351d601f1991613352565b013687860137825b85811687811080613572575b1561356757613562919061355c6001600160f81b0319613551838861346a565b5116871a918861346a565b53613491565b613525565b505094505050905090565b506001600160f81b0319613586828661346a565b51161515613531565b6001600160f81b031991506135a4908661346a565b51161515386134dc565b9150506123aa6133fb565b6000809160405160208101906306fdde0360e01b82526004815261343d816120eb56feae6e0ab3b95f0a53ff9660a390ccedcbbf1f2355dce974a9841af106fddcfabac353b09af857951dccce61b43a5854fc45beceed36c50e5d4cc2e71858a8e0df9ed03113de523cebfe5e49d5f8e12894b1c0d42ce805990461726444c90eab878be0079c531659141344cd1fd0a4f28419497f9722a3daafe3b4186f6b6457e0ddf252ad1be2c89b69c2b068fc378daa952ba7f163c4a11628f55a4df523b3ef33af5ce86e8438eff54589f85332916444457dfa8685493fbd579b809097026b8d1108e10bcb7c27dddfc02ed9d693a074039d026cf4ea4240b40f7d581ac802a26469706673582212208932016bd3823b69160eaca289531fa226935442a361e93d29e12f374d41b81664736f6c63430008120033",
  "linkReferences": {},
  "deployedLinkReferences": {}
}