{
  "_format": "hh-sol-artifact-1",
  "contractName": "SGLCollateral",
  "sourceName": "contracts/markets/singularity/SGLCollateral.sol",
  "abi": [
    {
      "inputs": [],
      "name": "BorrowCapReached",
      "type": "error"
    },
    {
      "inputs": [],
      "name": "MinLimit",
      "type": "error"
    },
    {
      "inputs": [],
      "name": "NothingToRepay",
      "type": "error"
    },
    {
      "inputs": [],
      "name": "TooMuch",
      "type": "error"
    },
    {
      "anonymous": false,
      "inputs": [
        {
          "indexed": true,
          "internalType": "address",
          "name": "owner",
          "type": "address"
        },
        {
          "indexed": true,
          "internalType": "address",
          "name": "spender",
          "type": "address"
        },
        {
          "indexed": false,
          "internalType": "uint256",
          "name": "value",
          "type": "uint256"
        }
      ],
      "name": "Approval",
      "type": "event"
    },
    {
      "anonymous": false,
      "inputs": [
        {
          "indexed": true,
          "internalType": "address",
          "name": "owner",
          "type": "address"
        },
        {
          "indexed": true,
          "internalType": "address",
          "name": "spender",
          "type": "address"
        },
        {
          "indexed": true,
          "internalType": "uint256",
          "name": "value",
          "type": "uint256"
        }
      ],
      "name": "ApprovalBorrow",
      "type": "event"
    },
    {
      "anonymous": false,
      "inputs": [
        {
          "indexed": true,
          "internalType": "address",
          "name": "newAddress",
          "type": "address"
        }
      ],
      "name": "BidExecutionSwapperUpdated",
      "type": "event"
    },
    {
      "anonymous": false,
      "inputs": [
        {
          "indexed": true,
          "internalType": "address",
          "name": "old",
          "type": "address"
        },
        {
          "indexed": true,
          "internalType": "address",
          "name": "_new",
          "type": "address"
        }
      ],
      "name": "ConservatorUpdated",
      "type": "event"
    },
    {
      "anonymous": false,
      "inputs": [
        {
          "indexed": false,
          "internalType": "uint256",
          "name": "_oldVal",
          "type": "uint256"
        },
        {
          "indexed": false,
          "internalType": "uint256",
          "name": "_newVal",
          "type": "uint256"
        }
      ],
      "name": "ExchangeRateDurationUpdated",
      "type": "event"
    },
    {
      "anonymous": false,
      "inputs": [
        {
          "indexed": true,
          "internalType": "uint256",
          "name": "oldVal",
          "type": "uint256"
        },
        {
          "indexed": true,
          "internalType": "uint256",
          "name": "newVal",
          "type": "uint256"
        }
      ],
      "name": "InterestElasticityUpdated",
      "type": "event"
    },
    {
      "anonymous": false,
      "inputs": [
        {
          "indexed": true,
          "internalType": "address",
          "name": "oldVal",
          "type": "address"
        },
        {
          "indexed": true,
          "internalType": "address",
          "name": "newVal",
          "type": "address"
        }
      ],
      "name": "LeverageExecutorSet",
      "type": "event"
    },
    {
      "anonymous": false,
      "inputs": [
        {
          "indexed": true,
          "internalType": "address",
          "name": "liquidator",
          "type": "address"
        },
        {
          "indexed": true,
          "internalType": "address[]",
          "name": "users",
          "type": "address[]"
        },
        {
          "indexed": true,
          "internalType": "uint256",
          "name": "liquidatorReward",
          "type": "uint256"
        },
        {
          "indexed": false,
          "internalType": "uint256",
          "name": "protocolReward",
          "type": "uint256"
        },
        {
          "indexed": false,
          "internalType": "uint256",
          "name": "repayedAmount",
          "type": "uint256"
        },
        {
          "indexed": false,
          "internalType": "uint256",
          "name": "collateralShareRemoved",
          "type": "uint256"
        }
      ],
      "name": "Liquidated",
      "type": "event"
    },
    {
      "anonymous": false,
      "inputs": [
        {
          "indexed": true,
          "internalType": "uint256",
          "name": "oldVal",
          "type": "uint256"
        },
        {
          "indexed": true,
          "internalType": "uint256",
          "name": "newVal",
          "type": "uint256"
        }
      ],
      "name": "LiquidationMultiplierUpdated",
      "type": "event"
    },
    {
      "anonymous": false,
      "inputs": [
        {
          "indexed": true,
          "internalType": "uint256",
          "name": "accruedAmount",
          "type": "uint256"
        },
        {
          "indexed": true,
          "internalType": "uint256",
          "name": "feeFraction",
          "type": "uint256"
        },
        {
          "indexed": true,
          "internalType": "uint64",
          "name": "rate",
          "type": "uint64"
        },
        {
          "indexed": false,
          "internalType": "uint256",
          "name": "utilization",
          "type": "uint256"
        }
      ],
      "name": "LogAccrue",
      "type": "event"
    },
    {
      "anonymous": false,
      "inputs": [
        {
          "indexed": true,
          "internalType": "address",
          "name": "from",
          "type": "address"
        },
        {
          "indexed": true,
          "internalType": "address",
          "name": "to",
          "type": "address"
        },
        {
          "indexed": true,
          "internalType": "uint256",
          "name": "share",
          "type": "uint256"
        },
        {
          "indexed": false,
          "internalType": "uint256",
          "name": "fraction",
          "type": "uint256"
        }
      ],
      "name": "LogAddAsset",
      "type": "event"
    },
    {
      "anonymous": false,
      "inputs": [
        {
          "indexed": true,
          "internalType": "address",
          "name": "from",
          "type": "address"
        },
        {
          "indexed": true,
          "internalType": "address",
          "name": "to",
          "type": "address"
        },
        {
          "indexed": true,
          "internalType": "uint256",
          "name": "share",
          "type": "uint256"
        }
      ],
      "name": "LogAddCollateral",
      "type": "event"
    },
    {
      "anonymous": false,
      "inputs": [
        {
          "indexed": true,
          "internalType": "address",
          "name": "from",
          "type": "address"
        },
        {
          "indexed": true,
          "internalType": "address",
          "name": "to",
          "type": "address"
        },
        {
          "indexed": true,
          "internalType": "uint256",
          "name": "amount",
          "type": "uint256"
        },
        {
          "indexed": false,
          "internalType": "uint256",
          "name": "feeAmount",
          "type": "uint256"
        },
        {
          "indexed": false,
          "internalType": "uint256",
          "name": "part",
          "type": "uint256"
        }
      ],
      "name": "LogBorrow",
      "type": "event"
    },
    {
      "anonymous": false,
      "inputs": [
        {
          "indexed": true,
          "internalType": "uint256",
          "name": "_oldVal",
          "type": "uint256"
        },
        {
          "indexed": true,
          "internalType": "uint256",
          "name": "_newVal",
          "type": "uint256"
        }
      ],
      "name": "LogBorrowCapUpdated",
      "type": "event"
    },
    {
      "anonymous": false,
      "inputs": [
        {
          "indexed": true,
          "internalType": "uint256",
          "name": "_oldVal",
          "type": "uint256"
        },
        {
          "indexed": true,
          "internalType": "uint256",
          "name": "_newVal",
          "type": "uint256"
        }
      ],
      "name": "LogBorrowingFee",
      "type": "event"
    },
    {
      "anonymous": false,
      "inputs": [
        {
          "indexed": true,
          "internalType": "uint256",
          "name": "rate",
          "type": "uint256"
        }
      ],
      "name": "LogExchangeRate",
      "type": "event"
    },
    {
      "anonymous": false,
      "inputs": [
        {
          "indexed": true,
          "internalType": "address",
          "name": "from",
          "type": "address"
        },
        {
          "indexed": true,
          "internalType": "address",
          "name": "to",
          "type": "address"
        },
        {
          "indexed": true,
          "internalType": "uint256",
          "name": "share",
          "type": "uint256"
        },
        {
          "indexed": false,
          "internalType": "uint256",
          "name": "fraction",
          "type": "uint256"
        }
      ],
      "name": "LogRemoveAsset",
      "type": "event"
    },
    {
      "anonymous": false,
      "inputs": [
        {
          "indexed": true,
          "internalType": "address",
          "name": "from",
          "type": "address"
        },
        {
          "indexed": true,
          "internalType": "address",
          "name": "to",
          "type": "address"
        },
        {
          "indexed": true,
          "internalType": "uint256",
          "name": "share",
          "type": "uint256"
        }
      ],
      "name": "LogRemoveCollateral",
      "type": "event"
    },
    {
      "anonymous": false,
      "inputs": [
        {
          "indexed": true,
          "internalType": "address",
          "name": "from",
          "type": "address"
        },
        {
          "indexed": true,
          "internalType": "address",
          "name": "to",
          "type": "address"
        },
        {
          "indexed": true,
          "internalType": "uint256",
          "name": "amount",
          "type": "uint256"
        },
        {
          "indexed": false,
          "internalType": "uint256",
          "name": "part",
          "type": "uint256"
        }
      ],
      "name": "LogRepay",
      "type": "event"
    },
    {
      "anonymous": false,
      "inputs": [
        {
          "indexed": true,
          "internalType": "address",
          "name": "feeTo",
          "type": "address"
        },
        {
          "indexed": true,
          "internalType": "uint256",
          "name": "feesEarnedFraction",
          "type": "uint256"
        }
      ],
      "name": "LogWithdrawFees",
      "type": "event"
    },
    {
      "anonymous": false,
      "inputs": [
        {
          "indexed": true,
          "internalType": "uint256",
          "name": "feeShares",
          "type": "uint256"
        },
        {
          "indexed": true,
          "internalType": "uint256",
          "name": "ethAmount",
          "type": "uint256"
        }
      ],
      "name": "LogYieldBoxFeesDeposit",
      "type": "event"
    },
    {
      "anonymous": false,
      "inputs": [
        {
          "indexed": true,
          "internalType": "uint256",
          "name": "oldVal",
          "type": "uint256"
        },
        {
          "indexed": true,
          "internalType": "uint256",
          "name": "newVal",
          "type": "uint256"
        }
      ],
      "name": "LqCollateralizationRateUpdated",
      "type": "event"
    },
    {
      "anonymous": false,
      "inputs": [
        {
          "indexed": true,
          "internalType": "uint256",
          "name": "oldVal",
          "type": "uint256"
        },
        {
          "indexed": true,
          "internalType": "uint256",
          "name": "newVal",
          "type": "uint256"
        }
      ],
      "name": "MaximumInterestPerSecondUpdated",
      "type": "event"
    },
    {
      "anonymous": false,
      "inputs": [
        {
          "indexed": true,
          "internalType": "uint256",
          "name": "oldVal",
          "type": "uint256"
        },
        {
          "indexed": true,
          "internalType": "uint256",
          "name": "newVal",
          "type": "uint256"
        }
      ],
      "name": "MaximumTargetUtilizationUpdated",
      "type": "event"
    },
    {
      "anonymous": false,
      "inputs": [
        {
          "indexed": true,
          "internalType": "uint256",
          "name": "oldVal",
          "type": "uint256"
        },
        {
          "indexed": true,
          "internalType": "uint256",
          "name": "newVal",
          "type": "uint256"
        }
      ],
      "name": "MinimumInterestPerSecondUpdated",
      "type": "event"
    },
    {
      "anonymous": false,
      "inputs": [
        {
          "indexed": true,
          "internalType": "uint256",
          "name": "oldVal",
          "type": "uint256"
        },
        {
          "indexed": true,
          "internalType": "uint256",
          "name": "newVal",
          "type": "uint256"
        }
      ],
      "name": "MinimumTargetUtilizationUpdated",
      "type": "event"
    },
    {
      "anonymous": false,
      "inputs": [],
      "name": "OracleDataUpdated",
      "type": "event"
    },
    {
      "anonymous": false,
      "inputs": [],
      "name": "OracleUpdated",
      "type": "event"
    },
    {
      "anonymous": false,
      "inputs": [
        {
          "indexed": true,
          "internalType": "uint256",
          "name": "oldVal",
          "type": "uint256"
        },
        {
          "indexed": true,
          "internalType": "uint256",
          "name": "newVal",
          "type": "uint256"
        }
      ],
      "name": "OrderBookLiquidationMultiplierUpdated",
      "type": "event"
    },
    {
      "anonymous": false,
      "inputs": [
        {
          "indexed": true,
          "internalType": "address",
          "name": "previousOwner",
          "type": "address"
        },
        {
          "indexed": true,
          "internalType": "address",
          "name": "newOwner",
          "type": "address"
        }
      ],
      "name": "OwnershipTransferred",
      "type": "event"
    },
    {
      "anonymous": false,
      "inputs": [
        {
          "indexed": true,
          "internalType": "enum Market.PauseType",
          "name": "_type",
          "type": "uint8"
        },
        {
          "indexed": true,
          "internalType": "bool",
          "name": "oldState",
          "type": "bool"
        },
        {
          "indexed": true,
          "internalType": "bool",
          "name": "newState",
          "type": "bool"
        }
      ],
      "name": "PausedUpdated",
      "type": "event"
    },
    {
      "anonymous": false,
      "inputs": [
        {
          "indexed": true,
          "internalType": "address",
          "name": "from",
          "type": "address"
        },
        {
          "indexed": true,
          "internalType": "address",
          "name": "to",
          "type": "address"
        },
        {
          "indexed": false,
          "internalType": "uint256",
          "name": "value",
          "type": "uint256"
        }
      ],
      "name": "Transfer",
      "type": "event"
    },
    {
      "anonymous": false,
      "inputs": [
        {
          "indexed": true,
          "internalType": "address",
          "name": "newAddress",
          "type": "address"
        }
      ],
      "name": "UsdoSwapperUpdated",
      "type": "event"
    },
    {
      "inputs": [],
      "name": "DOMAIN_SEPARATOR",
      "outputs": [
        {
          "internalType": "bytes32",
          "name": "",
          "type": "bytes32"
        }
      ],
      "stateMutability": "view",
      "type": "function"
    },
    {
      "inputs": [],
      "name": "accrue",
      "outputs": [],
      "stateMutability": "nonpayable",
      "type": "function"
    },
    {
      "inputs": [],
      "name": "accrueInfo",
      "outputs": [
        {
          "internalType": "uint64",
          "name": "interestPerSecond",
          "type": "uint64"
        },
        {
          "internalType": "uint64",
          "name": "lastAccrued",
          "type": "uint64"
        },
        {
          "internalType": "uint128",
          "name": "feesEarnedFraction",
          "type": "uint128"
        }
      ],
      "stateMutability": "view",
      "type": "function"
    },
    {
      "inputs": [
        {
          "internalType": "address",
          "name": "from",
          "type": "address"
        },
        {
          "internalType": "address",
          "name": "to",
          "type": "address"
        },
        {
          "internalType": "bool",
          "name": "skim",
          "type": "bool"
        },
        {
          "internalType": "uint256",
          "name": "amount",
          "type": "uint256"
        },
        {
          "internalType": "uint256",
          "name": "share",
          "type": "uint256"
        }
      ],
      "name": "addCollateral",
      "outputs": [],
      "stateMutability": "nonpayable",
      "type": "function"
    },
    {
      "inputs": [
        {
          "internalType": "address",
          "name": "",
          "type": "address"
        },
        {
          "internalType": "address",
          "name": "",
          "type": "address"
        }
      ],
      "name": "allowance",
      "outputs": [
        {
          "internalType": "uint256",
          "name": "",
          "type": "uint256"
        }
      ],
      "stateMutability": "view",
      "type": "function"
    },
    {
      "inputs": [
        {
          "internalType": "address",
          "name": "",
          "type": "address"
        },
        {
          "internalType": "address",
          "name": "",
          "type": "address"
        }
      ],
      "name": "allowanceBorrow",
      "outputs": [
        {
          "internalType": "uint256",
          "name": "",
          "type": "uint256"
        }
      ],
      "stateMutability": "view",
      "type": "function"
    },
    {
      "inputs": [
        {
          "internalType": "address",
          "name": "spender",
          "type": "address"
        },
        {
          "internalType": "uint256",
          "name": "amount",
          "type": "uint256"
        }
      ],
      "name": "approve",
      "outputs": [
        {
          "internalType": "bool",
          "name": "",
          "type": "bool"
        }
      ],
      "stateMutability": "nonpayable",
      "type": "function"
    },
    {
      "inputs": [
        {
          "internalType": "address",
          "name": "spender",
          "type": "address"
        },
        {
          "internalType": "uint256",
          "name": "amount",
          "type": "uint256"
        }
      ],
      "name": "approveBorrow",
      "outputs": [
        {
          "internalType": "bool",
          "name": "",
          "type": "bool"
        }
      ],
      "stateMutability": "nonpayable",
      "type": "function"
    },
    {
      "inputs": [],
      "name": "asset",
      "outputs": [
        {
          "internalType": "contract IERC20",
          "name": "",
          "type": "address"
        }
      ],
      "stateMutability": "view",
      "type": "function"
    },
    {
      "inputs": [],
      "name": "assetId",
      "outputs": [
        {
          "internalType": "uint256",
          "name": "",
          "type": "uint256"
        }
      ],
      "stateMutability": "view",
      "type": "function"
    },
    {
      "inputs": [
        {
          "internalType": "address",
          "name": "",
          "type": "address"
        }
      ],
      "name": "balanceOf",
      "outputs": [
        {
          "internalType": "uint256",
          "name": "",
          "type": "uint256"
        }
      ],
      "stateMutability": "view",
      "type": "function"
    },
    {
      "inputs": [],
      "name": "borrowOpeningFee",
      "outputs": [
        {
          "internalType": "uint256",
          "name": "",
          "type": "uint256"
        }
      ],
      "stateMutability": "view",
      "type": "function"
    },
    {
      "inputs": [],
      "name": "callerFee",
      "outputs": [
        {
          "internalType": "uint256",
          "name": "",
          "type": "uint256"
        }
      ],
      "stateMutability": "view",
      "type": "function"
    },
    {
      "inputs": [],
      "name": "claimOwnership",
      "outputs": [],
      "stateMutability": "nonpayable",
      "type": "function"
    },
    {
      "inputs": [],
      "name": "collateral",
      "outputs": [
        {
          "internalType": "contract IERC20",
          "name": "",
          "type": "address"
        }
      ],
      "stateMutability": "view",
      "type": "function"
    },
    {
      "inputs": [],
      "name": "collateralId",
      "outputs": [
        {
          "internalType": "uint256",
          "name": "",
          "type": "uint256"
        }
      ],
      "stateMutability": "view",
      "type": "function"
    },
    {
      "inputs": [],
      "name": "collateralizationRate",
      "outputs": [
        {
          "internalType": "uint256",
          "name": "",
          "type": "uint256"
        }
      ],
      "stateMutability": "view",
      "type": "function"
    },
    {
      "inputs": [
        {
          "internalType": "uint256",
          "name": "borrowPart",
          "type": "uint256"
        },
        {
          "internalType": "uint256",
          "name": "collateralPartInAsset",
          "type": "uint256"
        },
        {
          "internalType": "uint256",
          "name": "ratesPrecision",
          "type": "uint256"
        }
      ],
      "name": "computeClosingFactor",
      "outputs": [
        {
          "internalType": "uint256",
          "name": "",
          "type": "uint256"
        }
      ],
      "stateMutability": "view",
      "type": "function"
    },
    {
      "inputs": [
        {
          "internalType": "address",
          "name": "user",
          "type": "address"
        },
        {
          "internalType": "uint256",
          "name": "_exchangeRate",
          "type": "uint256"
        }
      ],
      "name": "computeLiquidatorReward",
      "outputs": [
        {
          "internalType": "uint256",
          "name": "",
          "type": "uint256"
        }
      ],
      "stateMutability": "view",
      "type": "function"
    },
    {
      "inputs": [
        {
          "internalType": "address",
          "name": "user",
          "type": "address"
        },
        {
          "internalType": "uint256",
          "name": "_exchangeRate",
          "type": "uint256"
        }
      ],
      "name": "computeTVLInfo",
      "outputs": [
        {
          "internalType": "uint256",
          "name": "amountToSolvency",
          "type": "uint256"
        },
        {
          "internalType": "uint256",
          "name": "minTVL",
          "type": "uint256"
        },
        {
          "internalType": "uint256",
          "name": "maxTVL",
          "type": "uint256"
        }
      ],
      "stateMutability": "view",
      "type": "function"
    },
    {
      "inputs": [],
      "name": "conservator",
      "outputs": [
        {
          "internalType": "address",
          "name": "",
          "type": "address"
        }
      ],
      "stateMutability": "view",
      "type": "function"
    },
    {
      "inputs": [],
      "name": "decimals",
      "outputs": [
        {
          "internalType": "uint8",
          "name": "",
          "type": "uint8"
        }
      ],
      "stateMutability": "view",
      "type": "function"
    },
    {
      "inputs": [],
      "name": "exchangeRate",
      "outputs": [
        {
          "internalType": "uint256",
          "name": "",
          "type": "uint256"
        }
      ],
      "stateMutability": "view",
      "type": "function"
    },
    {
      "inputs": [],
      "name": "fullUtilizationMinusMax",
      "outputs": [
        {
          "internalType": "uint256",
          "name": "",
          "type": "uint256"
        }
      ],
      "stateMutability": "view",
      "type": "function"
    },
    {
      "inputs": [],
      "name": "getInterestDetails",
      "outputs": [
        {
          "components": [
            {
              "internalType": "uint64",
              "name": "interestPerSecond",
              "type": "uint64"
            },
            {
              "internalType": "uint64",
              "name": "lastAccrued",
              "type": "uint64"
            },
            {
              "internalType": "uint128",
              "name": "feesEarnedFraction",
              "type": "uint128"
            }
          ],
          "internalType": "struct ISingularity.AccrueInfo",
          "name": "_accrueInfo",
          "type": "tuple"
        },
        {
          "internalType": "uint256",
          "name": "utilization",
          "type": "uint256"
        }
      ],
      "stateMutability": "view",
      "type": "function"
    },
    {
      "inputs": [],
      "name": "interestElasticity",
      "outputs": [
        {
          "internalType": "uint256",
          "name": "",
          "type": "uint256"
        }
      ],
      "stateMutability": "view",
      "type": "function"
    },
    {
      "inputs": [],
      "name": "leverageExecutor",
      "outputs": [
        {
          "internalType": "contract ILeverageExecutor",
          "name": "",
          "type": "address"
        }
      ],
      "stateMutability": "view",
      "type": "function"
    },
    {
      "inputs": [],
      "name": "liquidationBonusAmount",
      "outputs": [
        {
          "internalType": "uint256",
          "name": "",
          "type": "uint256"
        }
      ],
      "stateMutability": "view",
      "type": "function"
    },
    {
      "inputs": [],
      "name": "liquidationCollateralizationRate",
      "outputs": [
        {
          "internalType": "uint256",
          "name": "",
          "type": "uint256"
        }
      ],
      "stateMutability": "view",
      "type": "function"
    },
    {
      "inputs": [],
      "name": "liquidationMultiplier",
      "outputs": [
        {
          "internalType": "uint256",
          "name": "",
          "type": "uint256"
        }
      ],
      "stateMutability": "view",
      "type": "function"
    },
    {
      "inputs": [],
      "name": "lqCollateralizationRate",
      "outputs": [
        {
          "internalType": "uint256",
          "name": "",
          "type": "uint256"
        }
      ],
      "stateMutability": "view",
      "type": "function"
    },
    {
      "inputs": [],
      "name": "maxLiquidatorReward",
      "outputs": [
        {
          "internalType": "uint256",
          "name": "",
          "type": "uint256"
        }
      ],
      "stateMutability": "view",
      "type": "function"
    },
    {
      "inputs": [],
      "name": "maximumInterestPerSecond",
      "outputs": [
        {
          "internalType": "uint64",
          "name": "",
          "type": "uint64"
        }
      ],
      "stateMutability": "view",
      "type": "function"
    },
    {
      "inputs": [],
      "name": "maximumTargetUtilization",
      "outputs": [
        {
          "internalType": "uint256",
          "name": "",
          "type": "uint256"
        }
      ],
      "stateMutability": "view",
      "type": "function"
    },
    {
      "inputs": [],
      "name": "minLiquidatorReward",
      "outputs": [
        {
          "internalType": "uint256",
          "name": "",
          "type": "uint256"
        }
      ],
      "stateMutability": "view",
      "type": "function"
    },
    {
      "inputs": [],
      "name": "minimumInterestPerSecond",
      "outputs": [
        {
          "internalType": "uint64",
          "name": "",
          "type": "uint64"
        }
      ],
      "stateMutability": "view",
      "type": "function"
    },
    {
      "inputs": [],
      "name": "minimumTargetUtilization",
      "outputs": [
        {
          "internalType": "uint256",
          "name": "",
          "type": "uint256"
        }
      ],
      "stateMutability": "view",
      "type": "function"
    },
    {
      "inputs": [],
      "name": "name",
      "outputs": [
        {
          "internalType": "string",
          "name": "",
          "type": "string"
        }
      ],
      "stateMutability": "view",
      "type": "function"
    },
    {
      "inputs": [
        {
          "internalType": "address",
          "name": "owner",
          "type": "address"
        }
      ],
      "name": "nonces",
      "outputs": [
        {
          "internalType": "uint256",
          "name": "",
          "type": "uint256"
        }
      ],
      "stateMutability": "view",
      "type": "function"
    },
    {
      "inputs": [],
      "name": "oracle",
      "outputs": [
        {
          "internalType": "contract IOracle",
          "name": "",
          "type": "address"
        }
      ],
      "stateMutability": "view",
      "type": "function"
    },
    {
      "inputs": [],
      "name": "oracleData",
      "outputs": [
        {
          "internalType": "bytes",
          "name": "",
          "type": "bytes"
        }
      ],
      "stateMutability": "view",
      "type": "function"
    },
    {
      "inputs": [],
      "name": "owner",
      "outputs": [
        {
          "internalType": "address",
          "name": "",
          "type": "address"
        }
      ],
      "stateMutability": "view",
      "type": "function"
    },
    {
      "inputs": [
        {
          "internalType": "enum Market.PauseType",
          "name": "pauseProp",
          "type": "uint8"
        }
      ],
      "name": "pauseOptions",
      "outputs": [
        {
          "internalType": "bool",
          "name": "pauseStatus",
          "type": "bool"
        }
      ],
      "stateMutability": "view",
      "type": "function"
    },
    {
      "inputs": [],
      "name": "pendingOwner",
      "outputs": [
        {
          "internalType": "address",
          "name": "",
          "type": "address"
        }
      ],
      "stateMutability": "view",
      "type": "function"
    },
    {
      "inputs": [],
      "name": "penrose",
      "outputs": [
        {
          "internalType": "contract IPenrose",
          "name": "",
          "type": "address"
        }
      ],
      "stateMutability": "view",
      "type": "function"
    },
    {
      "inputs": [
        {
          "internalType": "address",
          "name": "owner",
          "type": "address"
        },
        {
          "internalType": "address",
          "name": "spender",
          "type": "address"
        },
        {
          "internalType": "uint256",
          "name": "value",
          "type": "uint256"
        },
        {
          "internalType": "uint256",
          "name": "deadline",
          "type": "uint256"
        },
        {
          "internalType": "uint8",
          "name": "v",
          "type": "uint8"
        },
        {
          "internalType": "bytes32",
          "name": "r",
          "type": "bytes32"
        },
        {
          "internalType": "bytes32",
          "name": "s",
          "type": "bytes32"
        }
      ],
      "name": "permit",
      "outputs": [],
      "stateMutability": "nonpayable",
      "type": "function"
    },
    {
      "inputs": [
        {
          "internalType": "bytes",
          "name": "data",
          "type": "bytes"
        },
        {
          "internalType": "uint16",
          "name": "actionType",
          "type": "uint16"
        }
      ],
      "name": "permitAction",
      "outputs": [],
      "stateMutability": "nonpayable",
      "type": "function"
    },
    {
      "inputs": [
        {
          "internalType": "address",
          "name": "owner",
          "type": "address"
        },
        {
          "internalType": "address",
          "name": "spender",
          "type": "address"
        },
        {
          "internalType": "uint256",
          "name": "value",
          "type": "uint256"
        },
        {
          "internalType": "uint256",
          "name": "deadline",
          "type": "uint256"
        },
        {
          "internalType": "uint8",
          "name": "v",
          "type": "uint8"
        },
        {
          "internalType": "bytes32",
          "name": "r",
          "type": "bytes32"
        },
        {
          "internalType": "bytes32",
          "name": "s",
          "type": "bytes32"
        }
      ],
      "name": "permitBorrow",
      "outputs": [],
      "stateMutability": "nonpayable",
      "type": "function"
    },
    {
      "inputs": [],
      "name": "protocolFee",
      "outputs": [
        {
          "internalType": "uint256",
          "name": "",
          "type": "uint256"
        }
      ],
      "stateMutability": "view",
      "type": "function"
    },
    {
      "inputs": [],
      "name": "rateTimestamp",
      "outputs": [
        {
          "internalType": "uint256",
          "name": "",
          "type": "uint256"
        }
      ],
      "stateMutability": "view",
      "type": "function"
    },
    {
      "inputs": [],
      "name": "rateValidDuration",
      "outputs": [
        {
          "internalType": "uint256",
          "name": "",
          "type": "uint256"
        }
      ],
      "stateMutability": "view",
      "type": "function"
    },
    {
      "inputs": [
        {
          "internalType": "address",
          "name": "from",
          "type": "address"
        },
        {
          "internalType": "address",
          "name": "to",
          "type": "address"
        },
        {
          "internalType": "uint256",
          "name": "share",
          "type": "uint256"
        }
      ],
      "name": "removeCollateral",
      "outputs": [],
      "stateMutability": "nonpayable",
      "type": "function"
    },
    {
      "inputs": [
        {
          "internalType": "contract ILeverageExecutor",
          "name": "_executor",
          "type": "address"
        }
      ],
      "name": "setLeverageExecutor",
      "outputs": [],
      "stateMutability": "nonpayable",
      "type": "function"
    },
    {
      "inputs": [
        {
          "internalType": "contract IOracle",
          "name": "_oracle",
          "type": "address"
        },
        {
          "internalType": "bytes",
          "name": "_oracleData",
          "type": "bytes"
        },
        {
          "internalType": "address",
          "name": "_conservator",
          "type": "address"
        },
        {
          "internalType": "uint256",
          "name": "_callerFee",
          "type": "uint256"
        },
        {
          "internalType": "uint256",
          "name": "_protocolFee",
          "type": "uint256"
        },
        {
          "internalType": "uint256",
          "name": "_liquidationBonusAmount",
          "type": "uint256"
        },
        {
          "internalType": "uint256",
          "name": "_minLiquidatorReward",
          "type": "uint256"
        },
        {
          "internalType": "uint256",
          "name": "_maxLiquidatorReward",
          "type": "uint256"
        },
        {
          "internalType": "uint256",
          "name": "_totalBorrowCap",
          "type": "uint256"
        },
        {
          "internalType": "uint256",
          "name": "_collateralizationRate",
          "type": "uint256"
        },
        {
          "internalType": "uint256",
          "name": "_liquidationCollateralizationRate",
          "type": "uint256"
        }
      ],
      "name": "setMarketConfig",
      "outputs": [],
      "stateMutability": "nonpayable",
      "type": "function"
    },
    {
      "inputs": [],
      "name": "startingInterestPerSecond",
      "outputs": [
        {
          "internalType": "uint64",
          "name": "",
          "type": "uint64"
        }
      ],
      "stateMutability": "view",
      "type": "function"
    },
    {
      "inputs": [],
      "name": "symbol",
      "outputs": [
        {
          "internalType": "string",
          "name": "",
          "type": "string"
        }
      ],
      "stateMutability": "view",
      "type": "function"
    },
    {
      "inputs": [],
      "name": "totalAsset",
      "outputs": [
        {
          "internalType": "uint128",
          "name": "elastic",
          "type": "uint128"
        },
        {
          "internalType": "uint128",
          "name": "base",
          "type": "uint128"
        }
      ],
      "stateMutability": "view",
      "type": "function"
    },
    {
      "inputs": [],
      "name": "totalBorrow",
      "outputs": [
        {
          "internalType": "uint128",
          "name": "elastic",
          "type": "uint128"
        },
        {
          "internalType": "uint128",
          "name": "base",
          "type": "uint128"
        }
      ],
      "stateMutability": "view",
      "type": "function"
    },
    {
      "inputs": [],
      "name": "totalBorrowCap",
      "outputs": [
        {
          "internalType": "uint256",
          "name": "",
          "type": "uint256"
        }
      ],
      "stateMutability": "view",
      "type": "function"
    },
    {
      "inputs": [],
      "name": "totalCollateralShare",
      "outputs": [
        {
          "internalType": "uint256",
          "name": "",
          "type": "uint256"
        }
      ],
      "stateMutability": "view",
      "type": "function"
    },
    {
      "inputs": [],
      "name": "totalSupply",
      "outputs": [
        {
          "internalType": "uint256",
          "name": "",
          "type": "uint256"
        }
      ],
      "stateMutability": "view",
      "type": "function"
    },
    {
      "inputs": [
        {
          "internalType": "address",
          "name": "to",
          "type": "address"
        },
        {
          "internalType": "uint256",
          "name": "amount",
          "type": "uint256"
        }
      ],
      "name": "transfer",
      "outputs": [
        {
          "internalType": "bool",
          "name": "",
          "type": "bool"
        }
      ],
      "stateMutability": "nonpayable",
      "type": "function"
    },
    {
      "inputs": [
        {
          "internalType": "address",
          "name": "from",
          "type": "address"
        },
        {
          "internalType": "address",
          "name": "to",
          "type": "address"
        },
        {
          "internalType": "uint256",
          "name": "amount",
          "type": "uint256"
        }
      ],
      "name": "transferFrom",
      "outputs": [
        {
          "internalType": "bool",
          "name": "",
          "type": "bool"
        }
      ],
      "stateMutability": "nonpayable",
      "type": "function"
    },
    {
      "inputs": [
        {
          "internalType": "address",
          "name": "newOwner",
          "type": "address"
        },
        {
          "internalType": "bool",
          "name": "direct",
          "type": "bool"
        },
        {
          "internalType": "bool",
          "name": "renounce",
          "type": "bool"
        }
      ],
      "name": "transferOwnership",
      "outputs": [],
      "stateMutability": "nonpayable",
      "type": "function"
    },
    {
      "inputs": [],
      "name": "updateExchangeRate",
      "outputs": [
        {
          "internalType": "bool",
          "name": "updated",
          "type": "bool"
        },
        {
          "internalType": "uint256",
          "name": "rate",
          "type": "uint256"
        }
      ],
      "stateMutability": "nonpayable",
      "type": "function"
    },
    {
      "inputs": [
        {
          "internalType": "enum Market.PauseType",
          "name": "_type",
          "type": "uint8"
        },
        {
          "internalType": "bool",
          "name": "val",
          "type": "bool"
        }
      ],
      "name": "updatePause",
      "outputs": [],
      "stateMutability": "nonpayable",
      "type": "function"
    },
    {
      "inputs": [
        {
          "internalType": "address",
          "name": "",
          "type": "address"
        }
      ],
      "name": "userBorrowPart",
      "outputs": [
        {
          "internalType": "uint256",
          "name": "",
          "type": "uint256"
        }
      ],
      "stateMutability": "view",
      "type": "function"
    },
    {
      "inputs": [
        {
          "internalType": "address",
          "name": "",
          "type": "address"
        }
      ],
      "name": "userCollateralShare",
      "outputs": [
        {
          "internalType": "uint256",
          "name": "",
          "type": "uint256"
        }
      ],
      "stateMutability": "view",
      "type": "function"
    },
    {
      "inputs": [],
      "name": "yieldBox",
      "outputs": [
        {
          "internalType": "contract YieldBox",
          "name": "",
          "type": "address"
        }
      ],
      "stateMutability": "view",
      "type": "function"
    }
  ],
  "bytecode": "0x6101408060405234620001e5576200001781620001ea565b601381526001602082017f546170696f63612053696e67756c617269747900000000000000000000000000815260206040516200005481620001ea565b8381520192603160f81b845251902091208160e052610100918183524660a0526040519160208301907f8b73c3c69bb8fe3d512ecc4cf759cc79239f7b179b0ffacaa9a75d522b39400f92838352604085015260608401524660808401523060a084015260a0835260c083019280841060018060401b03851117620001cf5760408490525190206080523060c052610120908152600580546001600160a01b0319163390811790915560007f8be0079c531659141344cd1fd0a4f28419497f9722a3daafe3b4186f6b6457e08180a362013880601b5562015f90601c55612710601d55612ee06020557f0bd4060688a1800ae986e4840aebc924bb40b5bf44de4583df2257220b54b77c6027557f7d1dc38e60930664f8cbf495da6556ca091d2f92d6550877750c049864b182306028556161a860295560326030556139bb928362000207843960805183612b37015260a05183612c02015260c05183612b01015260e05183612b8601525182612bac01525181612b630152f35b634e487b7160e01b600052604160045260246000fd5b600080fd5b604081019081106001600160401b03821117620001cf5760405256fe608080604052600436101561001357600080fd5b600090813560e01c908162a02a20146120bc5750806302ce728f1461209357806306fdde0314611fdc578063078dfbe714611edd578063095ea7b314611eb65780630c4e84f014611d9e57806318160ddd14611d7d5780631c9e379b14611d445780631da8bf1014611c8457806323b872dd14611afd578063313ce56714611a6b578063331960ff14611a4d57806334d441d014611a2f5780633644e51514611a1457806337b6b7b9146119f657806338d52e0f146119cd5780633ba0b9a9146119af5780633f741adb1461198a57806340626d8b1461196c57806344de240a1461194e578063473e3ce71461193057806348e4163e146118f75780634d7f2a34146118d95780634e71e0c81461182b578063529898f21461180e57806352f353eb146117e757806355140232146117c057806355c2ab941461179657806357935462146117785780635dfe04e8146117195780636c3d8b8f146116f057806370a08231146116b7578063727785471461167f57806374645ff3146116545780637dc0d1d01461162b5780637ecebe00146115f25780637fa0b84e146115c0578063821226e8146115a25780638285ef40146115705780638c5d0ed3146115525780638da5cb5b14611529578063910dd7c814611310578063959916dc146112f257806395d89b411461123857806399a97028146112085780639c5d7192146111ea5780639e15e89f146111af578063a9059cbb146110cc578063b0e21e8a146110ae578063b27c0e7414611073578063bb4cfe3b14611055578063cce19f8114610ef2578063ce8849ed14610ec9578063d3fb2a3814610a39578063d505accf14610897578063d8dfeb451461086e578063da863f0e14610845578063dd62ed3e146107fa578063de406577146107d1578063e0996cb6146107b3578063e30c39781461078a578063e9a492521461045a578063ea64dd561461043c578063eec0f42e1461041e578063ef2b234a146103a7578063f42760b714610389578063f8ba4cff1461036d578063f9557ccb146103375763ffe04c661461031757600080fd5b346103345780600319360112610334576020602a54604051908152f35b80fd5b5034610334578060031936011261033457602554604080516001600160801b038316815260809290921c602083015290f35b0390f35b503461033457806003193601126103345761038661367e565b80f35b50346103345780600319360112610334576020602b54604051908152f35b5034610334576020366003190112610334576004356001600160a01b038181169182900361041a576103de816005541633146123c7565b816021549182167ffb4fd7114609dd603b57adbc2082205bfbbcabf9265c4b437b472f5c592b8cd78580a36001600160a01b0319161760215580f35b8280fd5b50346103345780600319360112610334576020600c54604051908152f35b50346103345780600319360112610334576020601f54604051908152f35b50346103345760a036600319011261033457610474612104565b61047c61211a565b90610485612187565b916064359160843593600286526020600781526104a960ff60408920541615612efd565b6001600160a01b03938416946104c130871415612f3a565b8615610708575b6104d28785612f85565b861561068e575b5060155485885260188252604088206104f38882546124b6565b90556104ff87826124b6565b601555858852602682526040882060285489528252604088206105238882546124b6565b9055600c5491888415610602575080866009541693604460405180968193627eeac760e11b835230600484015260248301525afa9081156105f75789916105c2575b5061057092506124a9565b85116105b0575b156105ab575080600954165b167f9ed03113de523cebfe5e49d5f8e12894b1c0d42ce805990461726444c90eab878480a480f35b610583565b60405163d887771b60e01b8152600490fd5b905082813d83116105f0575b6105d8818361238b565b810103126105eb57610570915138610565565b600080fd5b503d6105ce565b6040513d8b823e3d90fd5b929150508460095416803b1561041a57608483926040519485938492630208d92960e11b84528a8a16600485015230602485015260448401528b60648401525af1801561068357610654575b50610577565b6001600160401b03819792971161066f57604052943861064e565b634e487b7160e01b82526041600452602482fd5b6040513d89823e3d90fd5b908096508460095416916064600c546040519485938492638eb22cdd60e01b8452600484015260248301528b60448301525afa9081156106835787916106d7575b5094386104d9565b90508581813d8311610701575b6106ee818361238b565b810103126106fd5751386106cf565b8680fd5b503d6106e4565b9550836009541681600c54606460405180948193638eb22cdd60e01b835260048301528b60248301528c60448301525afa90811561077f57889161074e575b50956104c8565b90508181813d8311610778575b610765818361238b565b81010312610774575138610747565b8780fd5b503d61075b565b6040513d8a823e3d90fd5b50346103345780600319360112610334576006546040516001600160a01b039091168152602090f35b50346103345780600319360112610334576020601d54604051908152f35b50346103345780600319360112610334576009546040516001600160a01b039091168152602090f35b5034610334576040366003190112610334576040602091610819612104565b61082161211a565b6001600160a01b039182168352600285528383209116825283522054604051908152f35b50346103345780600319360112610334576021546040516001600160a01b039091168152602090f35b5034610334578060031936011261033457600b546040516001600160a01b039091168152602090f35b5034610334576108a636612196565b908395949542116109f4576001600160a01b03878116808a52600460205260408a20805491969295929060001983146109e0578261098c9694928d92600161098498960190556040519160208301937f9cc5629bbe7baa98a89f6f8c2c396b83ab62dbb6cbb12f17f1d6ba7e6f53e266855260408401528a6060840152898c1660808401528c60a084015260c083015260e082015260e0815261094881612354565b519020610953612afe565b9060405190602082019261190160f01b8452602283015260428201526042815261097c81612370565b519020612dd3565b919091612cd4565b160361099b5761038692612ea6565b60405162461bcd60e51b815260206004820152601e60248201527f45524332305065726d69743a20696e76616c6964207369676e617475726500006044820152606490fd5b634e487b7160e01b8c52601160045260248cfd5b60405162461bcd60e51b815260206004820152601d60248201527f45524332305065726d69743a206578706972656420646561646c696e650000006044820152606490fd5b503461033457610160366003190112610334576001600160a01b036004358181169081900361041a576024916001600160401b038335818111610ec55736602382011215610ec5578060040135918211610ec55736858383010111610ec557604435938385168095036106fd57610ab5846005541633146123c7565b80610e87575b508482610d09575b50505081610cc9575b505060643580610cb1575b5060843580610c99575b5060a43580610c82575b5060c43580610c5e575b5060e43580610c3a575b506101043580610c09575b506101243580610b96575b50610144359081610b24578280f35b601e548210610b375750601f5538808280f35b60849060326040519162461bcd60e51b8352602060048401528201527f4d61726b65743a206c69717569646174696f6e436f6c6c61746572616c697a616044820152711d1a5bdb94985d19481d1bdbc81cdb585b1b60721b6064820152fd5b610ba5620186a0821115612412565b601f548111610bb757601e5538610b15565b60405162461bcd60e51b8152602060048201526025818401527f4d61726b65743a20636f6c6c61746572616c697a6174696f6e5261746520746f6044820152646f2062696760d81b6064820152608490fd5b806016547fae6e0ab3b95f0a53ff9660a390ccedcbbf1f2355dce974a9841af106fddcfaba8580a360165538610b0a565b610c48620186a08210612412565b610c55601b548211612412565b601c5538610aff565b610c6c620186a08210612412565b610c79601c548210612412565b601b5538610af5565b610c90620186a08210612412565b601d5538610aeb565b610ca8620186a0821115612412565b601a5538610ae1565b610cc0620186a0821115612412565b60195538610ad7565b816008549182167f5a62d22209e370e38eea92cfddcd228e656e6ec139243392a760a7769f5877fd8680a36001600160a01b031916176008553880610acc565b8291610d16601054612249565b601f8111610e16575b508790601f8411600114610d84578893610d77575b5050508160011b916000199060031b1c1916176010555b7fa6f004921c944d4b8bf6e38462b00f36a58d62495d56b51f571ab78f732c98158480a1388084610ac3565b0101359050843880610d34565b60108952601f19841694507f1b6847dc741a1b0cd08d278845f9d819d87b734759afb55fe2de5cb82a9ae67292509087908960205b878210610df75750508460019610610ddb575b50505050811b01601055610d4b565b60001960f88660031b161c199201013516905538808681610dcc565b8285019093013585556001949094019389929182019190810190610db9565b6010895290925090507f1b6847dc741a1b0cd08d278845f9d819d87b734759afb55fe2de5cb82a9ae672601f840160051c810160208510610e80575b91849391601f8994920160051c01905b818110610e6f5750610d1f565b898155859450889350600101610e62565b5080610e52565b600f80546001600160a01b0319169190911790557f0b2d6eb667d0522c3eb86e4288afecae6c11591ffd1345d4d12407e0598bca9b8680a138610abb565b8580fd5b50346103345780600319360112610334576008546040516001600160a01b039091168152602090f35b503461033457610fed610f04366121e5565b9291906003855260209360078552610f2360ff60408820541615612efd565b610f2b612761565b5050610f3561367e565b610f3f8184612f85565b6001600160a01b03918216918190610f5930851415612f3a565b8416928388526018875260408820610f728382546124a9565b9055610f80826015546124a9565b601555837f8ad4d3ff00da092c7ad9a573ea4f5f6a3dffc6712dc06d3f78f49b862297c4028980a481865260268552604086206028549081885286526040872054821160001461102e57505084526026835260408420602854855283528360408120555b60115490613089565b15610ff6575080f35b6064906040519062461bcd60e51b82526004820152601160248201527013585c9ad95d0e881a5b9cdbdb1d995b9d607a1b6044820152fd5b909186526026855260408620908652845261104e604086209182546124a9565b9055610fe4565b50346103345780600319360112610334576020601e54604051908152f35b50346103345780600319360112610334576060602454604051906001600160401b0380821683528160401c16602083015260801c6040820152f35b50346103345780600319360112610334576020601a54604051908152f35b5034610334576040366003190112610334576110e6612104565b6024358092811580159061119d575b61112d575b50506040519182526001600160a01b031690339060008051602061396683398151915290602090a3602060405160018152f35b3381526001602052604081205461114683821015612c28565b6001600160a01b0384169033829003611161575b50506110fa565b60409361117891611173841515612c6d565b6124a9565b3383526001602052838320558152206111928382546124b6565b90558138808061115a565b50336001600160a01b038416146110f5565b50346103345760403660031901126103345760606111d76111ce612104565b602435906125f5565b9060405192835260208301526040820152f35b50346103345780600319360112610334576020602c54604051908152f35b5034610334576040366003190112610334576020611230611227612104565b602435906129cc565b604051908152f35b5034610334578060031936011261033457808060018060a01b03600b541660405160208101906395d89b4160e01b82526004815261127581612308565b51915afa61128161376a565b9150156112e157611294610369916137f1565b6112cd6023604051809362746d2d60e81b60208301526112bd8151809260208686019101612130565b810103600381018452018261238b565b604051918291602083526020830190612153565b506103696112ed61379a565b611294565b50346103345780600319360112610334576020603054604051908152f35b5034610334576040366003190112610334576004356001600160401b03811161152557366023820112156115255780600401358261134d826123ac565b9261135b604051948561238b565b8284526020840192366024828401011161041a578060246020930185378401015260243561ffff811681036115215761010091828480518101031261151d576113a390612754565b6113af60408501612cb2565b916113bc60608601612cb2565b9460808101519460a0820151926113d560c08401612cc6565b9160e0840151930151938042116109f45785156114f6577f9cc5629bbe7baa98a89f6f8c2c396b83ab62dbb6cbb12f17f1d6ba7e6f53e266915b6001600160a01b0388168b52600460205260408b208054919060001983146114e2579161ffff61149f9896949261098498969460018401905560405194602086015216604084015260018060a01b038a16606084015260018060a01b038c1660808401528a60a084015260c083015260e082015260e0815261149081612354565b60208151910120610953612afe565b6001600160a01b0383811691160361099b57156114cc57610386926001600160a01b039081169116612ea6565b610386926001600160a01b039081169116612e58565b634e487b7160e01b8d52601160045260248dfd5b7f5c9ba5f0d101616843d7918f48ea857d6da95e04ac6d719e105e50a355e7c5d69161140f565b8480fd5b8380fd5b5080fd5b50346103345780600319360112610334576005546040516001600160a01b039091168152602090f35b50346103345780600319360112610334576020601b54604051908152f35b5034610334578060031936011261033457601454604080516001600160801b038316815260809290921c602083015290f35b50346103345780600319360112610334576020602e54604051908152f35b5034610334576040366003190112610334576115e76115dd612104565b6024359033612e58565b602060405160018152f35b5034610334576020366003190112610334576020906040906001600160a01b0361161a612104565b168152600483522054604051908152f35b5034610334578060031936011261033457600f546040516001600160a01b039091168152602090f35b50346103345780600319360112610334576103696040516112cd8161167881612283565b038261238b565b50346103345760203660031901126103345760043590600982101561033457602060ff6116ab8461221a565b54166040519015158152f35b5034610334576020366003190112610334576020906040906001600160a01b036116df612104565b168152600183522054604051908152f35b5034610334578060031936011261033457600a546040516001600160a01b039091168152602090f35b503461033457806003193601126103345761173261318b565b50608061173d6131c3565b509350505050604051916001600160401b0380825116845260208201511660208401526040600180861b039101511660408301526060820152f35b50346103345780600319360112610334576020601c54604051908152f35b503461033457806003193601126103345760206001600160401b03602d5460401c16604051908152f35b503461033457806003193601126103345760206001600160401b03602d5416604051908152f35b503461033457806003193601126103345760206001600160401b03602f5416604051908152f35b503461033457806003193601126103345760208054604051908152f35b50346103345780600319360112610334576006546001600160a01b03908181163381900361189557806005549384167f8be0079c531659141344cd1fd0a4f28419497f9722a3daafe3b4186f6b6457e08680a36001600160a01b0319928316176005551660065580f35b606460405162461bcd60e51b815260206004820152602060248201527f4f776e61626c653a2063616c6c657220213d2070656e64696e67206f776e65726044820152fd5b50346103345780600319360112610334576020602954604051908152f35b5034610334576020366003190112610334576020906040906001600160a01b0361191f612104565b168152601783522054604051908152f35b50346103345780600319360112610334576020601554604051908152f35b50346103345780600319360112610334576020600e54604051908152f35b50346103345780600319360112610334576020601654604051908152f35b50346103345760603660031901126103345760206112306044356024356004356124dc565b50346103345780600319360112610334576020601154604051908152f35b5034610334578060031936011261033457600d546040516001600160a01b039091168152602090f35b50346103345780600319360112610334576020601254604051908152f35b50346103345780600319360112610334576020611230612afe565b50346103345780600319360112610334576020601954604051908152f35b50346103345780600319360112610334576020601354604051908152f35b5034610334578060031936011261033457808060018060a01b03600d5416604051602081019063313ce56760e01b825260048152611aa881612308565b51915afa90611ab561376a565b9180611af2575b15611ae7576020828051810103126103345750611adc6020809201612cc6565b60ff60405191168152f35b505060206012611adc565b506020825114611abc565b503461033457611b0c366121e5565b919282611b48575b506040519182526001600160a01b0390811692169060008051602061396683398151915290602090a3602060405160018152f35b6001600160a01b03848116808352600160209081526040842054928690611b7182861015612c28565b861693848403611b86575b5050505050611b14565b838652600283526040808720338852845286205460018101611bf0575b5092600160209693611bce87946040976111736000805160206139668339815191529c9a1515612c6d565b9285525283832055815220611be48582546124b6565b90559138808581611b7c565b90918110611c445792600160209693611bce8a6000805160206139668339815191529a9895611c218260409a6124a9565b86895260028552898920338a528552898920559497509497995050939650611ba3565b60405162461bcd60e51b815260048101849052601860248201527745524332303a20616c6c6f77616e636520746f6f206c6f7760401b6044820152606490fd5b503461033457611c9336612196565b908395949542116109f4576001600160a01b03878116808a52600460205260408a20805491969295929060001983146109e05782611d359694928d92600161098498960190556040519160208301937f5c9ba5f0d101616843d7918f48ea857d6da95e04ac6d719e105e50a355e7c5d6855260408401528a6060840152898c1660808401528c60a084015260c083015260e082015260e0815261094881612354565b160361099b5761038692612e58565b5034610334576020366003190112610334576020906040906001600160a01b03611d6c612104565b168152601883522054604051908152f35b5034610334578060031936011261033457602060255460801c604051908152f35b503461033457604036600319011261033457600435600981101561152557611dc4612178565b6008549091906001600160a01b03163303611e7a5760ff611de48261221a565b54161515911515918214611e4057808260ff611e02611e309461221a565b54161515827feeec81de25875ce1725479bb76f720a8defdb43dea041919ae37bb4aae9847c08780a461221a565b9060ff8019835416911617905580f35b60405162461bcd60e51b81526020600482015260126024820152714d61726b65743a2073616d6520737461746560701b6044820152606490fd5b60405162461bcd60e51b815260206004820152601460248201527313585c9ad95d0e881d5b985d5d1a1bdc9a5e995960621b6044820152606490fd5b5034610334576040366003190112610334576115e7611ed3612104565b6024359033612ea6565b503461033457606036600319011261033457611ef7612104565b611eff612178565b611f07612187565b9060018060a01b03928391611f21836005541633146123c7565b15611fc5571690811590811591611fbd575b5015611f8057806005549283167f8be0079c531659141344cd1fd0a4f28419497f9722a3daafe3b4186f6b6457e08580a36001600160a01b03199182161760055560068054909116905580f35b60405162461bcd60e51b81526020600482015260156024820152744f776e61626c653a207a65726f206164647265737360581b6044820152606490fd5b905038611f33565b9150501660018060a01b0319600654161760065580f35b5034610334578060031936011261033457808060018060a01b03600b541660405160208101906306fdde0360e01b82526004815261201981612308565b51915afa61202561376a565b91501561208257612038610369916137f1565b6112cd6034604051809373546170696f63612053696e67756c61726974792d60601b60208301526120728151809260208686019101612130565b810103601481018452018261238b565b5061036961208e61379a565b612038565b503461033457806003193601126103345760406120ae612761565b825191151582526020820152f35b9050346115255760403660031901126115255760406020926120dc612104565b6120e461211a565b6001600160a01b0391821683526003865283832091168252845220548152f35b600435906001600160a01b03821682036105eb57565b602435906001600160a01b03821682036105eb57565b60005b8381106121435750506000910152565b8181015183820152602001612133565b9060209161216c81518092818552858086019101612130565b601f01601f1916010190565b6024359081151582036105eb57565b6044359081151582036105eb57565b60e09060031901126105eb576001600160a01b039060043582811681036105eb579160243590811681036105eb5790604435906064359060843560ff811681036105eb579060a4359060c43590565b60609060031901126105eb576001600160a01b039060043582811681036105eb579160243590811681036105eb579060443590565b6009811015612233576000526007602052604060002090565b634e487b7160e01b600052602160045260246000fd5b90600182811c92168015612279575b602083101461226357565b634e487b7160e01b600052602260045260246000fd5b91607f1691612258565b6010546000929161229382612249565b9081815260019283811690816000146122ed57506001146122b357505050565b9092935060106000526020928360002092846000945b8386106122d95750505050010190565b8054858701830152940193859082016122c9565b91935050602093945060ff191683830152151560051b010190565b604081019081106001600160401b0382111761232357604052565b634e487b7160e01b600052604160045260246000fd5b606081019081106001600160401b0382111761232357604052565b61010081019081106001600160401b0382111761232357604052565b608081019081106001600160401b0382111761232357604052565b90601f801991011681019081106001600160401b0382111761232357604052565b6001600160401b03811161232357601f01601f191660200190565b156123ce57565b606460405162461bcd60e51b815260206004820152602060248201527f4f776e61626c653a2063616c6c6572206973206e6f7420746865206f776e65726044820152fd5b1561241957565b60405162461bcd60e51b815260206004820152601160248201527013585c9ad95d0e881b9bdd081d985b1a59607a1b6044820152606490fd5b8181029291811591840414171561246557565b634e487b7160e01b600052601160045260246000fd5b8115612485570490565b634e487b7160e01b600052601260045260246000fd5b604d811161246557600a0a90565b9190820391821161246557565b9190820180921161246557565b8181039291600013801582851316918412161761246557565b601454919291612525916125169161250c91612502906001600160801b03831690612452565b9060801c9061247b565b93601f5490612452565b61251f8361249b565b9061247b565b8083106125ed5761253961257591846124a9565b9161257061256a612561601e5461255b6125528661249b565b602054906124b6565b90612452565b61251f8461249b565b9161249b565b6124c3565b6509184e72a0009081810291818305149015171561246557670de0b6b3a76400009182810292818405149015171561246557801561248557600160ff1b9180831460001983141661246557059060008212156125e657811461246557600003905b8082116125e1575090565b905090565b50906125d6565b505050600090565b9160018060a01b038093169160009383855260206017815260409182872054908115612747578783855161262881612308565b82815201526126356131c3565b50505050509190506126488615156128c9565b6009541683600c54898b52601882526064878c2054918851948593849263442c159960e01b8452600484015260248301528d60448301525afa90811561273d57899161270a575b50916126ea6126fe97989994926126c5886126c06126b7601898620186a06022540490612452565b601e5490612452565b61247b565b815190936001600160801b039186916126e091841690612452565b920151169061247b565b81811061270257035b978352522054612915565b9091565b5050826126f3565b90508381813d8311612736575b612721818361238b565b8101031261273257516126ea61268f565b8880fd5b503d612717565b85513d8b823e3d90fd5b5086955085949350505050565b519081151582036105eb57565b600f546040805163d6d7d52560e01b8152602060048201529290916001600160a01b031682848061279460248201612283565b0381600080955af180156128bd5781948291612881575b509284156128245783156127ea57507f9f9192b5edb17356c524e08d9e025c8e2f6307e6ea52fb7968faa3081f51c3c883918260115580a25b42601355565b5162461bcd60e51b81526020600482015260146024820152734d61726b65743a20696e76616c6964207261746560601b6044820152606490fd5b91925050612837601354601254906124b6565b42116128475750601154906127e4565b5162461bcd60e51b815260206004820152601460248201527313585c9ad95d0e881c985d19481d1bdbc81bdb1960621b6044820152606490fd5b809550848092503d83116128b6575b61289a818361238b565b810103126103345760206128ad85612754565b940151386127ab565b503d612890565b508251903d90823e3d90fd5b156128d057565b60405162461bcd60e51b815260206004820152601e60248201527f4d61726b65743a2065786368616e676552617465206e6f742076616c696400006044820152606490fd5b6129208215156128c9565b602060018060a01b0360095416916064600c54604051948593849263442c159960e01b845260048401526024830152600060448301525afa9081156129c05760009161298d575b50906126c06129799260225490612452565b620186a0612989601e5483612452565b0491565b906020823d82116129b8575b816129a66020938361238b565b810103126103345750516126c0612967565b3d9150612999565b6040513d6000823e3d90fd5b6001600160a01b031660008181526018602052604081205490926129ef91612915565b918352601760205260408320548015612af8578115612af857818110612af85782811015612aee57601454612a3891839161117391612502906001600160801b03831690612452565b90620186a09283830292808404851490151715612ada57612a5d929161251f916124a9565b91601b5491601c5493612a7085856124c3565b80820291848212600160ff1b821416612ada578183051490151715612ac65705818482019485129112908015821691151617612ab257508082126125e1575090565b634e487b7160e01b81526011600452602490fd5b634e487b7160e01b83526011600452602483fd5b634e487b7160e01b85526011600452602485fd5b50505050601b5490565b50505090565b307f00000000000000000000000000000000000000000000000000000000000000006001600160a01b03161480612bff575b15612b59577f000000000000000000000000000000000000000000000000000000000000000090565b60405160208101907f000000000000000000000000000000000000000000000000000000000000000082527f000000000000000000000000000000000000000000000000000000000000000060408201527f000000000000000000000000000000000000000000000000000000000000000060608201524660808201523060a082015260a0815260c081018181106001600160401b038211176123235760405251902090565b507f00000000000000000000000000000000000000000000000000000000000000004614612b30565b15612c2f57565b60405162461bcd60e51b815260206004820152601660248201527545524332303a2062616c616e636520746f6f206c6f7760501b6044820152606490fd5b15612c7457565b60405162461bcd60e51b815260206004820152601660248201527545524332303a206e6f207a65726f206164647265737360501b6044820152606490fd5b51906001600160a01b03821682036105eb57565b519060ff821682036105eb57565b60058110156122335780612ce55750565b60018103612d2d5760405162461bcd60e51b815260206004820152601860248201527745434453413a20696e76616c6964207369676e617475726560401b6044820152606490fd5b60028103612d7a5760405162461bcd60e51b815260206004820152601f60248201527f45434453413a20696e76616c6964207369676e6174757265206c656e677468006044820152606490fd5b600314612d8357565b60405162461bcd60e51b815260206004820152602260248201527f45434453413a20696e76616c6964207369676e6174757265202773272076616c604482015261756560f01b6064820152608490fd5b9291906fa2a8918ca85bafe22016d0b997e4df60600160ff1b038311612e4c5791608094939160ff602094604051948552168484015260408301526060820152600093849182805260015afa15612e3f5781516001600160a01b03811615612e39579190565b50600190565b50604051903d90823e3d90fd5b50505050600090600390565b7fe50de2333c10a9502fcb1d8ae13a51bbf423153dfc63c2b8997665b32154afc360018060a01b038092169160009083825260036020526040822094169384825260205284604082205580a4565b909160207f8c5be1e5ebec7d5bd14f71427d1e84f3dd0314c0f7b2291e5b200ac8c7c3b9259160018060a01b03809416938460005260028352604060002095169485600052825280604060002055604051908152a3565b15612f0457565b60405162461bcd60e51b815260206004820152600e60248201526d13585c9ad95d0e881c185d5cd95960921b6044820152606490fd5b15612f4157565b606460405162461bcd60e51b815260206004820152602060248201527f4d61726b65743a2063616e6e6f742065786563757465206f6e20697473656c666044820152fd5b6001600160a01b0316338103612f99575050565b60008181526020906003825260409182822033835281528483832054106130035783825260038152828220338352815282822054600101612fdc575b5050505050565b612ff7938252600381528282209033835252209182546124a9565b90553880808080612fd5565b60649083519062461bcd60e51b82526004820152601460248201527313585c9ad95d0e881b9bdd08185c1c1c9bdd995960621b6044820152fd5b6040519061304a82612308565b6014546001600160801b038116835260801c6020830152565b6040519061307082612308565b6025546001600160801b038116835260801c6020830152565b919060018060a01b03806000941684526020601781526040852054908115613181576018815260408620548015612fd557816130c361303d565b9460095416916064600c54604051948593849263442c159960e01b8452600484015260248301528b60448301525afa96871561317557809761313f575b50506126e061311f6126b761313a969798620186a06022540490612452565b9561313560018060801b03948587511690612452565b612452565b111590565b9096508187813d831161316e575b613157818361238b565b8101031261033457509451946126e061311f613100565b503d61314d565b604051903d90823e3d90fd5b5060019450505050565b6040519061319882612339565b60006040838281528260208201520152565b6001600160801b03918216908216019190821161246557565b6131cb61318b565b50600060206040516131dc81612308565b8281520152600060206040516131f181612308565b82815201526040519061320382612339565b602454916001600160401b038316815260208101926001600160401b038160401c16845260801c6040820152809261323961303d565b92613242613063565b92600060018060a01b0360095416600e549460018060801b038751166040519063442c159960e01b8252876004830152602482015260006044820152602081606481865afa80156129c05760009061364a575b89516132ab92506001600160801b0316906124b6565b80613615575060005b6132c96001600160401b0382935116426124a9565b9485156135eb575050426001600160401b031660208a8101919091528801516001600160801b0316156135a157506020670de0b6b3a7640000613326856131358c6001600160401b038d60018060801b0390511691511690612452565b895191900496906001600160801b039061334590828a169083166131aa565b168952875160405163442c159960e01b815260048101929092526001600160801b031660248201526000604482015291829060649082905afa80156129c05760009061356d575b87516133a292506001600160801b0316906124b6565b926133d0846126c0620186a06133ba601a548a612452565b60208c01516001600160801b0316919004612452565b6040890180519195916001600160801b0380881692916133f390849083166131aa565b16905260208801805190916001600160801b0391613413919083166131aa565b16905280613538575060005b602a54909384828110156134b35761343790836124a9565b90670de0b6b3a7640000820291808304670de0b6b3a76400001490151715612465576126c061348b6134856134776001600160401b03966134959661247b565b93613135602e549580612452565b836124b6565b91848d5116612452565b168089526001600160401b03602d54168091106134af5750565b8852565b909150602b548082116134c557505050565b6134ce916124a9565b670de0b6b3a7640000810290808204670de0b6b3a76400001490151715612465576001600160401b03916126c061351161348561347761351a95602c549061247b565b848d5116612452565b81602d5460401c16808211613530575b50168852565b90503861352a565b87516001600160801b0316670de0b6b3a7640000818102929180840490911490151715612465576135689161247b565b61341f565b506020813d602011613599575b816135876020938361238b565b810103126105eb576133a2905161338c565b3d915061357a565b9697939450509350506001600160401b038151166001600160401b03602f54168091036135df575b5093926135d4613063565b926000926000929190565b815260019250386135c9565b9750985050505050925050916135ff61303d565b91613608613063565b9160009160009190600090565b88516001600160801b0316670de0b6b3a7640000818102929180840490911490151715612465576136459161247b565b6132b4565b506020813d602011613676575b816136646020938361238b565b810103126105eb576132ab9051613295565b3d9150613657565b6020604061368a6131c3565b9397959390929015613731575050506001600160401b03602f54166000807f33af5ce86e8438eff54589f85332916444457dfa8685493fbd579b809097026b868851838152a45b6001600160401b03815116838201519160018060801b0319958691015160801b16916001600160401b0360401b9060401b16171760245560018060801b039083838383511692015160801b161760145583511692015160801b1617602555565b7f33af5ce86e8438eff54589f85332916444457dfa8685493fbd579b809097026b866001600160401b03865116948951908152a46136d1565b3d15613795573d9061377b826123ac565b91613789604051938461238b565b82523d6000602084013e565b606090565b604051906137a782612308565b60038252623f3f3f60e81b6020830152565b9081518110156137ca570160200190565b634e487b7160e01b600052603260045260246000fd5b60ff1660ff81146124655760010190565b80516040811061386c575080518101906020818184019303126105eb576020810151906001600160401b0382116105eb570181603f820112156105eb57602081015161383c816123ac565b9261384a604051948561238b565b818452604082840101116105eb57613869916040602085019101612130565b90565b60209290830361395a576000805b60ff8116858110908161393b575b501561389c57613897906137e0565b61387a565b9260ff809416926138ac846123ac565b936138ba604051958661238b565b8085526138c9601f19916123ac565b013687860137825b8581168781108061391e575b156139135761390e91906139086001600160f81b03196138fd83886137b9565b5116871a91886137b9565b536137e0565b6138d1565b505094505050905090565b506001600160f81b031961393282866137b9565b511615156138dd565b6001600160f81b0319915061395090866137b9565b5116151538613888565b91505061386961379a56feddf252ad1be2c89b69c2b068fc378daa952ba7f163c4a11628f55a4df523b3efa2646970667358221220e76b4b28bd900dd7a584fac2b6afcf4221e249db74f6c15926511e172fe2580564736f6c63430008120033",
  "linkReferences": {},
  "deployedLinkReferences": {}
}