{
  "_format": "hh-sol-artifact-1",
  "contractName": "SGLLeverage",
  "sourceName": "contracts/markets/singularity/SGLLeverage.sol",
  "abi": [
    {
      "anonymous": false,
      "inputs": [
        {
          "indexed": true,
          "internalType": "address",
          "name": "owner",
          "type": "address"
        },
        {
          "indexed": true,
          "internalType": "address",
          "name": "spender",
          "type": "address"
        },
        {
          "indexed": false,
          "internalType": "uint256",
          "name": "value",
          "type": "uint256"
        }
      ],
      "name": "Approval",
      "type": "event"
    },
    {
      "anonymous": false,
      "inputs": [
        {
          "indexed": true,
          "internalType": "address",
          "name": "owner",
          "type": "address"
        },
        {
          "indexed": true,
          "internalType": "address",
          "name": "spender",
          "type": "address"
        },
        {
          "indexed": true,
          "internalType": "uint256",
          "name": "value",
          "type": "uint256"
        }
      ],
      "name": "ApprovalBorrow",
      "type": "event"
    },
    {
      "anonymous": false,
      "inputs": [
        {
          "indexed": true,
          "internalType": "address",
          "name": "newAddress",
          "type": "address"
        }
      ],
      "name": "BidExecutionSwapperUpdated",
      "type": "event"
    },
    {
      "anonymous": false,
      "inputs": [
        {
          "indexed": true,
          "internalType": "address",
          "name": "old",
          "type": "address"
        },
        {
          "indexed": true,
          "internalType": "address",
          "name": "_new",
          "type": "address"
        }
      ],
      "name": "ConservatorUpdated",
      "type": "event"
    },
    {
      "anonymous": false,
      "inputs": [
        {
          "indexed": false,
          "internalType": "uint256",
          "name": "_oldVal",
          "type": "uint256"
        },
        {
          "indexed": false,
          "internalType": "uint256",
          "name": "_newVal",
          "type": "uint256"
        }
      ],
      "name": "ExchangeRateDurationUpdated",
      "type": "event"
    },
    {
      "anonymous": false,
      "inputs": [
        {
          "indexed": true,
          "internalType": "uint256",
          "name": "oldVal",
          "type": "uint256"
        },
        {
          "indexed": true,
          "internalType": "uint256",
          "name": "newVal",
          "type": "uint256"
        }
      ],
      "name": "InterestElasticityUpdated",
      "type": "event"
    },
    {
      "anonymous": false,
      "inputs": [
        {
          "indexed": true,
          "internalType": "address",
          "name": "oldVal",
          "type": "address"
        },
        {
          "indexed": true,
          "internalType": "address",
          "name": "newVal",
          "type": "address"
        }
      ],
      "name": "LeverageExecutorSet",
      "type": "event"
    },
    {
      "anonymous": false,
      "inputs": [
        {
          "indexed": true,
          "internalType": "address",
          "name": "liquidator",
          "type": "address"
        },
        {
          "indexed": true,
          "internalType": "address[]",
          "name": "users",
          "type": "address[]"
        },
        {
          "indexed": true,
          "internalType": "uint256",
          "name": "liquidatorReward",
          "type": "uint256"
        },
        {
          "indexed": false,
          "internalType": "uint256",
          "name": "protocolReward",
          "type": "uint256"
        },
        {
          "indexed": false,
          "internalType": "uint256",
          "name": "repayedAmount",
          "type": "uint256"
        },
        {
          "indexed": false,
          "internalType": "uint256",
          "name": "collateralShareRemoved",
          "type": "uint256"
        }
      ],
      "name": "Liquidated",
      "type": "event"
    },
    {
      "anonymous": false,
      "inputs": [
        {
          "indexed": true,
          "internalType": "uint256",
          "name": "oldVal",
          "type": "uint256"
        },
        {
          "indexed": true,
          "internalType": "uint256",
          "name": "newVal",
          "type": "uint256"
        }
      ],
      "name": "LiquidationMultiplierUpdated",
      "type": "event"
    },
    {
      "anonymous": false,
      "inputs": [
        {
          "indexed": true,
          "internalType": "uint256",
          "name": "accruedAmount",
          "type": "uint256"
        },
        {
          "indexed": true,
          "internalType": "uint256",
          "name": "feeFraction",
          "type": "uint256"
        },
        {
          "indexed": true,
          "internalType": "uint64",
          "name": "rate",
          "type": "uint64"
        },
        {
          "indexed": false,
          "internalType": "uint256",
          "name": "utilization",
          "type": "uint256"
        }
      ],
      "name": "LogAccrue",
      "type": "event"
    },
    {
      "anonymous": false,
      "inputs": [
        {
          "indexed": true,
          "internalType": "address",
          "name": "from",
          "type": "address"
        },
        {
          "indexed": true,
          "internalType": "address",
          "name": "to",
          "type": "address"
        },
        {
          "indexed": true,
          "internalType": "uint256",
          "name": "share",
          "type": "uint256"
        },
        {
          "indexed": false,
          "internalType": "uint256",
          "name": "fraction",
          "type": "uint256"
        }
      ],
      "name": "LogAddAsset",
      "type": "event"
    },
    {
      "anonymous": false,
      "inputs": [
        {
          "indexed": true,
          "internalType": "address",
          "name": "from",
          "type": "address"
        },
        {
          "indexed": true,
          "internalType": "address",
          "name": "to",
          "type": "address"
        },
        {
          "indexed": true,
          "internalType": "uint256",
          "name": "share",
          "type": "uint256"
        }
      ],
      "name": "LogAddCollateral",
      "type": "event"
    },
    {
      "anonymous": false,
      "inputs": [
        {
          "indexed": true,
          "internalType": "address",
          "name": "from",
          "type": "address"
        },
        {
          "indexed": true,
          "internalType": "address",
          "name": "to",
          "type": "address"
        },
        {
          "indexed": true,
          "internalType": "uint256",
          "name": "amount",
          "type": "uint256"
        },
        {
          "indexed": false,
          "internalType": "uint256",
          "name": "feeAmount",
          "type": "uint256"
        },
        {
          "indexed": false,
          "internalType": "uint256",
          "name": "part",
          "type": "uint256"
        }
      ],
      "name": "LogBorrow",
      "type": "event"
    },
    {
      "anonymous": false,
      "inputs": [
        {
          "indexed": true,
          "internalType": "uint256",
          "name": "_oldVal",
          "type": "uint256"
        },
        {
          "indexed": true,
          "internalType": "uint256",
          "name": "_newVal",
          "type": "uint256"
        }
      ],
      "name": "LogBorrowCapUpdated",
      "type": "event"
    },
    {
      "anonymous": false,
      "inputs": [
        {
          "indexed": true,
          "internalType": "uint256",
          "name": "_oldVal",
          "type": "uint256"
        },
        {
          "indexed": true,
          "internalType": "uint256",
          "name": "_newVal",
          "type": "uint256"
        }
      ],
      "name": "LogBorrowingFee",
      "type": "event"
    },
    {
      "anonymous": false,
      "inputs": [
        {
          "indexed": true,
          "internalType": "uint256",
          "name": "rate",
          "type": "uint256"
        }
      ],
      "name": "LogExchangeRate",
      "type": "event"
    },
    {
      "anonymous": false,
      "inputs": [
        {
          "indexed": true,
          "internalType": "address",
          "name": "from",
          "type": "address"
        },
        {
          "indexed": true,
          "internalType": "address",
          "name": "to",
          "type": "address"
        },
        {
          "indexed": true,
          "internalType": "uint256",
          "name": "share",
          "type": "uint256"
        },
        {
          "indexed": false,
          "internalType": "uint256",
          "name": "fraction",
          "type": "uint256"
        }
      ],
      "name": "LogRemoveAsset",
      "type": "event"
    },
    {
      "anonymous": false,
      "inputs": [
        {
          "indexed": true,
          "internalType": "address",
          "name": "from",
          "type": "address"
        },
        {
          "indexed": true,
          "internalType": "address",
          "name": "to",
          "type": "address"
        },
        {
          "indexed": true,
          "internalType": "uint256",
          "name": "share",
          "type": "uint256"
        }
      ],
      "name": "LogRemoveCollateral",
      "type": "event"
    },
    {
      "anonymous": false,
      "inputs": [
        {
          "indexed": true,
          "internalType": "address",
          "name": "from",
          "type": "address"
        },
        {
          "indexed": true,
          "internalType": "address",
          "name": "to",
          "type": "address"
        },
        {
          "indexed": true,
          "internalType": "uint256",
          "name": "amount",
          "type": "uint256"
        },
        {
          "indexed": false,
          "internalType": "uint256",
          "name": "part",
          "type": "uint256"
        }
      ],
      "name": "LogRepay",
      "type": "event"
    },
    {
      "anonymous": false,
      "inputs": [
        {
          "indexed": true,
          "internalType": "address",
          "name": "feeTo",
          "type": "address"
        },
        {
          "indexed": true,
          "internalType": "uint256",
          "name": "feesEarnedFraction",
          "type": "uint256"
        }
      ],
      "name": "LogWithdrawFees",
      "type": "event"
    },
    {
      "anonymous": false,
      "inputs": [
        {
          "indexed": true,
          "internalType": "uint256",
          "name": "feeShares",
          "type": "uint256"
        },
        {
          "indexed": true,
          "internalType": "uint256",
          "name": "ethAmount",
          "type": "uint256"
        }
      ],
      "name": "LogYieldBoxFeesDeposit",
      "type": "event"
    },
    {
      "anonymous": false,
      "inputs": [
        {
          "indexed": true,
          "internalType": "uint256",
          "name": "oldVal",
          "type": "uint256"
        },
        {
          "indexed": true,
          "internalType": "uint256",
          "name": "newVal",
          "type": "uint256"
        }
      ],
      "name": "LqCollateralizationRateUpdated",
      "type": "event"
    },
    {
      "anonymous": false,
      "inputs": [
        {
          "indexed": true,
          "internalType": "uint256",
          "name": "oldVal",
          "type": "uint256"
        },
        {
          "indexed": true,
          "internalType": "uint256",
          "name": "newVal",
          "type": "uint256"
        }
      ],
      "name": "MaximumInterestPerSecondUpdated",
      "type": "event"
    },
    {
      "anonymous": false,
      "inputs": [
        {
          "indexed": true,
          "internalType": "uint256",
          "name": "oldVal",
          "type": "uint256"
        },
        {
          "indexed": true,
          "internalType": "uint256",
          "name": "newVal",
          "type": "uint256"
        }
      ],
      "name": "MaximumTargetUtilizationUpdated",
      "type": "event"
    },
    {
      "anonymous": false,
      "inputs": [
        {
          "indexed": true,
          "internalType": "uint256",
          "name": "oldVal",
          "type": "uint256"
        },
        {
          "indexed": true,
          "internalType": "uint256",
          "name": "newVal",
          "type": "uint256"
        }
      ],
      "name": "MinimumInterestPerSecondUpdated",
      "type": "event"
    },
    {
      "anonymous": false,
      "inputs": [
        {
          "indexed": true,
          "internalType": "uint256",
          "name": "oldVal",
          "type": "uint256"
        },
        {
          "indexed": true,
          "internalType": "uint256",
          "name": "newVal",
          "type": "uint256"
        }
      ],
      "name": "MinimumTargetUtilizationUpdated",
      "type": "event"
    },
    {
      "anonymous": false,
      "inputs": [],
      "name": "OracleDataUpdated",
      "type": "event"
    },
    {
      "anonymous": false,
      "inputs": [],
      "name": "OracleUpdated",
      "type": "event"
    },
    {
      "anonymous": false,
      "inputs": [
        {
          "indexed": true,
          "internalType": "uint256",
          "name": "oldVal",
          "type": "uint256"
        },
        {
          "indexed": true,
          "internalType": "uint256",
          "name": "newVal",
          "type": "uint256"
        }
      ],
      "name": "OrderBookLiquidationMultiplierUpdated",
      "type": "event"
    },
    {
      "anonymous": false,
      "inputs": [
        {
          "indexed": true,
          "internalType": "address",
          "name": "previousOwner",
          "type": "address"
        },
        {
          "indexed": true,
          "internalType": "address",
          "name": "newOwner",
          "type": "address"
        }
      ],
      "name": "OwnershipTransferred",
      "type": "event"
    },
    {
      "anonymous": false,
      "inputs": [
        {
          "indexed": true,
          "internalType": "enum Market.PauseType",
          "name": "_type",
          "type": "uint8"
        },
        {
          "indexed": true,
          "internalType": "bool",
          "name": "oldState",
          "type": "bool"
        },
        {
          "indexed": true,
          "internalType": "bool",
          "name": "newState",
          "type": "bool"
        }
      ],
      "name": "PausedUpdated",
      "type": "event"
    },
    {
      "anonymous": false,
      "inputs": [
        {
          "indexed": true,
          "internalType": "address",
          "name": "from",
          "type": "address"
        },
        {
          "indexed": true,
          "internalType": "address",
          "name": "to",
          "type": "address"
        },
        {
          "indexed": false,
          "internalType": "uint256",
          "name": "value",
          "type": "uint256"
        }
      ],
      "name": "Transfer",
      "type": "event"
    },
    {
      "anonymous": false,
      "inputs": [
        {
          "indexed": true,
          "internalType": "address",
          "name": "newAddress",
          "type": "address"
        }
      ],
      "name": "UsdoSwapperUpdated",
      "type": "event"
    },
    {
      "inputs": [],
      "name": "DOMAIN_SEPARATOR",
      "outputs": [
        {
          "internalType": "bytes32",
          "name": "",
          "type": "bytes32"
        }
      ],
      "stateMutability": "view",
      "type": "function"
    },
    {
      "inputs": [],
      "name": "accrue",
      "outputs": [],
      "stateMutability": "nonpayable",
      "type": "function"
    },
    {
      "inputs": [],
      "name": "accrueInfo",
      "outputs": [
        {
          "internalType": "uint64",
          "name": "interestPerSecond",
          "type": "uint64"
        },
        {
          "internalType": "uint64",
          "name": "lastAccrued",
          "type": "uint64"
        },
        {
          "internalType": "uint128",
          "name": "feesEarnedFraction",
          "type": "uint128"
        }
      ],
      "stateMutability": "view",
      "type": "function"
    },
    {
      "inputs": [
        {
          "internalType": "address",
          "name": "",
          "type": "address"
        },
        {
          "internalType": "address",
          "name": "",
          "type": "address"
        }
      ],
      "name": "allowance",
      "outputs": [
        {
          "internalType": "uint256",
          "name": "",
          "type": "uint256"
        }
      ],
      "stateMutability": "view",
      "type": "function"
    },
    {
      "inputs": [
        {
          "internalType": "address",
          "name": "",
          "type": "address"
        },
        {
          "internalType": "address",
          "name": "",
          "type": "address"
        }
      ],
      "name": "allowanceBorrow",
      "outputs": [
        {
          "internalType": "uint256",
          "name": "",
          "type": "uint256"
        }
      ],
      "stateMutability": "view",
      "type": "function"
    },
    {
      "inputs": [
        {
          "internalType": "address",
          "name": "spender",
          "type": "address"
        },
        {
          "internalType": "uint256",
          "name": "amount",
          "type": "uint256"
        }
      ],
      "name": "approve",
      "outputs": [
        {
          "internalType": "bool",
          "name": "",
          "type": "bool"
        }
      ],
      "stateMutability": "nonpayable",
      "type": "function"
    },
    {
      "inputs": [
        {
          "internalType": "address",
          "name": "spender",
          "type": "address"
        },
        {
          "internalType": "uint256",
          "name": "amount",
          "type": "uint256"
        }
      ],
      "name": "approveBorrow",
      "outputs": [
        {
          "internalType": "bool",
          "name": "",
          "type": "bool"
        }
      ],
      "stateMutability": "nonpayable",
      "type": "function"
    },
    {
      "inputs": [],
      "name": "asset",
      "outputs": [
        {
          "internalType": "contract IERC20",
          "name": "",
          "type": "address"
        }
      ],
      "stateMutability": "view",
      "type": "function"
    },
    {
      "inputs": [],
      "name": "assetId",
      "outputs": [
        {
          "internalType": "uint256",
          "name": "",
          "type": "uint256"
        }
      ],
      "stateMutability": "view",
      "type": "function"
    },
    {
      "inputs": [
        {
          "internalType": "address",
          "name": "",
          "type": "address"
        }
      ],
      "name": "balanceOf",
      "outputs": [
        {
          "internalType": "uint256",
          "name": "",
          "type": "uint256"
        }
      ],
      "stateMutability": "view",
      "type": "function"
    },
    {
      "inputs": [],
      "name": "borrowOpeningFee",
      "outputs": [
        {
          "internalType": "uint256",
          "name": "",
          "type": "uint256"
        }
      ],
      "stateMutability": "view",
      "type": "function"
    },
    {
      "inputs": [
        {
          "internalType": "address",
          "name": "from",
          "type": "address"
        },
        {
          "internalType": "uint256",
          "name": "borrowAmount",
          "type": "uint256"
        },
        {
          "internalType": "uint256",
          "name": "supplyAmount",
          "type": "uint256"
        },
        {
          "internalType": "bytes",
          "name": "data",
          "type": "bytes"
        }
      ],
      "name": "buyCollateral",
      "outputs": [
        {
          "internalType": "uint256",
          "name": "amountOut",
          "type": "uint256"
        }
      ],
      "stateMutability": "nonpayable",
      "type": "function"
    },
    {
      "inputs": [],
      "name": "callerFee",
      "outputs": [
        {
          "internalType": "uint256",
          "name": "",
          "type": "uint256"
        }
      ],
      "stateMutability": "view",
      "type": "function"
    },
    {
      "inputs": [],
      "name": "claimOwnership",
      "outputs": [],
      "stateMutability": "nonpayable",
      "type": "function"
    },
    {
      "inputs": [],
      "name": "collateral",
      "outputs": [
        {
          "internalType": "contract IERC20",
          "name": "",
          "type": "address"
        }
      ],
      "stateMutability": "view",
      "type": "function"
    },
    {
      "inputs": [],
      "name": "collateralId",
      "outputs": [
        {
          "internalType": "uint256",
          "name": "",
          "type": "uint256"
        }
      ],
      "stateMutability": "view",
      "type": "function"
    },
    {
      "inputs": [],
      "name": "collateralizationRate",
      "outputs": [
        {
          "internalType": "uint256",
          "name": "",
          "type": "uint256"
        }
      ],
      "stateMutability": "view",
      "type": "function"
    },
    {
      "inputs": [
        {
          "internalType": "uint256",
          "name": "borrowPart",
          "type": "uint256"
        },
        {
          "internalType": "uint256",
          "name": "collateralPartInAsset",
          "type": "uint256"
        },
        {
          "internalType": "uint256",
          "name": "ratesPrecision",
          "type": "uint256"
        }
      ],
      "name": "computeClosingFactor",
      "outputs": [
        {
          "internalType": "uint256",
          "name": "",
          "type": "uint256"
        }
      ],
      "stateMutability": "view",
      "type": "function"
    },
    {
      "inputs": [
        {
          "internalType": "address",
          "name": "user",
          "type": "address"
        },
        {
          "internalType": "uint256",
          "name": "_exchangeRate",
          "type": "uint256"
        }
      ],
      "name": "computeLiquidatorReward",
      "outputs": [
        {
          "internalType": "uint256",
          "name": "",
          "type": "uint256"
        }
      ],
      "stateMutability": "view",
      "type": "function"
    },
    {
      "inputs": [
        {
          "internalType": "address",
          "name": "user",
          "type": "address"
        },
        {
          "internalType": "uint256",
          "name": "_exchangeRate",
          "type": "uint256"
        }
      ],
      "name": "computeTVLInfo",
      "outputs": [
        {
          "internalType": "uint256",
          "name": "amountToSolvency",
          "type": "uint256"
        },
        {
          "internalType": "uint256",
          "name": "minTVL",
          "type": "uint256"
        },
        {
          "internalType": "uint256",
          "name": "maxTVL",
          "type": "uint256"
        }
      ],
      "stateMutability": "view",
      "type": "function"
    },
    {
      "inputs": [],
      "name": "conservator",
      "outputs": [
        {
          "internalType": "address",
          "name": "",
          "type": "address"
        }
      ],
      "stateMutability": "view",
      "type": "function"
    },
    {
      "inputs": [],
      "name": "decimals",
      "outputs": [
        {
          "internalType": "uint8",
          "name": "",
          "type": "uint8"
        }
      ],
      "stateMutability": "view",
      "type": "function"
    },
    {
      "inputs": [],
      "name": "exchangeRate",
      "outputs": [
        {
          "internalType": "uint256",
          "name": "",
          "type": "uint256"
        }
      ],
      "stateMutability": "view",
      "type": "function"
    },
    {
      "inputs": [],
      "name": "fullUtilizationMinusMax",
      "outputs": [
        {
          "internalType": "uint256",
          "name": "",
          "type": "uint256"
        }
      ],
      "stateMutability": "view",
      "type": "function"
    },
    {
      "inputs": [],
      "name": "getInterestDetails",
      "outputs": [
        {
          "components": [
            {
              "internalType": "uint64",
              "name": "interestPerSecond",
              "type": "uint64"
            },
            {
              "internalType": "uint64",
              "name": "lastAccrued",
              "type": "uint64"
            },
            {
              "internalType": "uint128",
              "name": "feesEarnedFraction",
              "type": "uint128"
            }
          ],
          "internalType": "struct ISingularity.AccrueInfo",
          "name": "_accrueInfo",
          "type": "tuple"
        },
        {
          "internalType": "uint256",
          "name": "utilization",
          "type": "uint256"
        }
      ],
      "stateMutability": "view",
      "type": "function"
    },
    {
      "inputs": [],
      "name": "interestElasticity",
      "outputs": [
        {
          "internalType": "uint256",
          "name": "",
          "type": "uint256"
        }
      ],
      "stateMutability": "view",
      "type": "function"
    },
    {
      "inputs": [],
      "name": "leverageExecutor",
      "outputs": [
        {
          "internalType": "contract ILeverageExecutor",
          "name": "",
          "type": "address"
        }
      ],
      "stateMutability": "view",
      "type": "function"
    },
    {
      "inputs": [],
      "name": "liquidationBonusAmount",
      "outputs": [
        {
          "internalType": "uint256",
          "name": "",
          "type": "uint256"
        }
      ],
      "stateMutability": "view",
      "type": "function"
    },
    {
      "inputs": [],
      "name": "liquidationCollateralizationRate",
      "outputs": [
        {
          "internalType": "uint256",
          "name": "",
          "type": "uint256"
        }
      ],
      "stateMutability": "view",
      "type": "function"
    },
    {
      "inputs": [],
      "name": "liquidationMultiplier",
      "outputs": [
        {
          "internalType": "uint256",
          "name": "",
          "type": "uint256"
        }
      ],
      "stateMutability": "view",
      "type": "function"
    },
    {
      "inputs": [],
      "name": "lqCollateralizationRate",
      "outputs": [
        {
          "internalType": "uint256",
          "name": "",
          "type": "uint256"
        }
      ],
      "stateMutability": "view",
      "type": "function"
    },
    {
      "inputs": [],
      "name": "maxLiquidatorReward",
      "outputs": [
        {
          "internalType": "uint256",
          "name": "",
          "type": "uint256"
        }
      ],
      "stateMutability": "view",
      "type": "function"
    },
    {
      "inputs": [],
      "name": "maximumInterestPerSecond",
      "outputs": [
        {
          "internalType": "uint64",
          "name": "",
          "type": "uint64"
        }
      ],
      "stateMutability": "view",
      "type": "function"
    },
    {
      "inputs": [],
      "name": "maximumTargetUtilization",
      "outputs": [
        {
          "internalType": "uint256",
          "name": "",
          "type": "uint256"
        }
      ],
      "stateMutability": "view",
      "type": "function"
    },
    {
      "inputs": [],
      "name": "minLiquidatorReward",
      "outputs": [
        {
          "internalType": "uint256",
          "name": "",
          "type": "uint256"
        }
      ],
      "stateMutability": "view",
      "type": "function"
    },
    {
      "inputs": [],
      "name": "minimumInterestPerSecond",
      "outputs": [
        {
          "internalType": "uint64",
          "name": "",
          "type": "uint64"
        }
      ],
      "stateMutability": "view",
      "type": "function"
    },
    {
      "inputs": [],
      "name": "minimumTargetUtilization",
      "outputs": [
        {
          "internalType": "uint256",
          "name": "",
          "type": "uint256"
        }
      ],
      "stateMutability": "view",
      "type": "function"
    },
    {
      "inputs": [],
      "name": "name",
      "outputs": [
        {
          "internalType": "string",
          "name": "",
          "type": "string"
        }
      ],
      "stateMutability": "view",
      "type": "function"
    },
    {
      "inputs": [
        {
          "internalType": "address",
          "name": "owner",
          "type": "address"
        }
      ],
      "name": "nonces",
      "outputs": [
        {
          "internalType": "uint256",
          "name": "",
          "type": "uint256"
        }
      ],
      "stateMutability": "view",
      "type": "function"
    },
    {
      "inputs": [],
      "name": "oracle",
      "outputs": [
        {
          "internalType": "contract IOracle",
          "name": "",
          "type": "address"
        }
      ],
      "stateMutability": "view",
      "type": "function"
    },
    {
      "inputs": [],
      "name": "oracleData",
      "outputs": [
        {
          "internalType": "bytes",
          "name": "",
          "type": "bytes"
        }
      ],
      "stateMutability": "view",
      "type": "function"
    },
    {
      "inputs": [],
      "name": "owner",
      "outputs": [
        {
          "internalType": "address",
          "name": "",
          "type": "address"
        }
      ],
      "stateMutability": "view",
      "type": "function"
    },
    {
      "inputs": [
        {
          "internalType": "enum Market.PauseType",
          "name": "pauseProp",
          "type": "uint8"
        }
      ],
      "name": "pauseOptions",
      "outputs": [
        {
          "internalType": "bool",
          "name": "pauseStatus",
          "type": "bool"
        }
      ],
      "stateMutability": "view",
      "type": "function"
    },
    {
      "inputs": [],
      "name": "pendingOwner",
      "outputs": [
        {
          "internalType": "address",
          "name": "",
          "type": "address"
        }
      ],
      "stateMutability": "view",
      "type": "function"
    },
    {
      "inputs": [],
      "name": "penrose",
      "outputs": [
        {
          "internalType": "contract IPenrose",
          "name": "",
          "type": "address"
        }
      ],
      "stateMutability": "view",
      "type": "function"
    },
    {
      "inputs": [
        {
          "internalType": "address",
          "name": "owner",
          "type": "address"
        },
        {
          "internalType": "address",
          "name": "spender",
          "type": "address"
        },
        {
          "internalType": "uint256",
          "name": "value",
          "type": "uint256"
        },
        {
          "internalType": "uint256",
          "name": "deadline",
          "type": "uint256"
        },
        {
          "internalType": "uint8",
          "name": "v",
          "type": "uint8"
        },
        {
          "internalType": "bytes32",
          "name": "r",
          "type": "bytes32"
        },
        {
          "internalType": "bytes32",
          "name": "s",
          "type": "bytes32"
        }
      ],
      "name": "permit",
      "outputs": [],
      "stateMutability": "nonpayable",
      "type": "function"
    },
    {
      "inputs": [
        {
          "internalType": "bytes",
          "name": "data",
          "type": "bytes"
        },
        {
          "internalType": "uint16",
          "name": "actionType",
          "type": "uint16"
        }
      ],
      "name": "permitAction",
      "outputs": [],
      "stateMutability": "nonpayable",
      "type": "function"
    },
    {
      "inputs": [
        {
          "internalType": "address",
          "name": "owner",
          "type": "address"
        },
        {
          "internalType": "address",
          "name": "spender",
          "type": "address"
        },
        {
          "internalType": "uint256",
          "name": "value",
          "type": "uint256"
        },
        {
          "internalType": "uint256",
          "name": "deadline",
          "type": "uint256"
        },
        {
          "internalType": "uint8",
          "name": "v",
          "type": "uint8"
        },
        {
          "internalType": "bytes32",
          "name": "r",
          "type": "bytes32"
        },
        {
          "internalType": "bytes32",
          "name": "s",
          "type": "bytes32"
        }
      ],
      "name": "permitBorrow",
      "outputs": [],
      "stateMutability": "nonpayable",
      "type": "function"
    },
    {
      "inputs": [],
      "name": "protocolFee",
      "outputs": [
        {
          "internalType": "uint256",
          "name": "",
          "type": "uint256"
        }
      ],
      "stateMutability": "view",
      "type": "function"
    },
    {
      "inputs": [],
      "name": "rateTimestamp",
      "outputs": [
        {
          "internalType": "uint256",
          "name": "",
          "type": "uint256"
        }
      ],
      "stateMutability": "view",
      "type": "function"
    },
    {
      "inputs": [],
      "name": "rateValidDuration",
      "outputs": [
        {
          "internalType": "uint256",
          "name": "",
          "type": "uint256"
        }
      ],
      "stateMutability": "view",
      "type": "function"
    },
    {
      "inputs": [
        {
          "internalType": "address",
          "name": "from",
          "type": "address"
        },
        {
          "internalType": "uint256",
          "name": "share",
          "type": "uint256"
        },
        {
          "internalType": "bytes",
          "name": "data",
          "type": "bytes"
        }
      ],
      "name": "sellCollateral",
      "outputs": [
        {
          "internalType": "uint256",
          "name": "amountOut",
          "type": "uint256"
        }
      ],
      "stateMutability": "nonpayable",
      "type": "function"
    },
    {
      "inputs": [
        {
          "internalType": "contract ILeverageExecutor",
          "name": "_executor",
          "type": "address"
        }
      ],
      "name": "setLeverageExecutor",
      "outputs": [],
      "stateMutability": "nonpayable",
      "type": "function"
    },
    {
      "inputs": [
        {
          "internalType": "contract IOracle",
          "name": "_oracle",
          "type": "address"
        },
        {
          "internalType": "bytes",
          "name": "_oracleData",
          "type": "bytes"
        },
        {
          "internalType": "address",
          "name": "_conservator",
          "type": "address"
        },
        {
          "internalType": "uint256",
          "name": "_callerFee",
          "type": "uint256"
        },
        {
          "internalType": "uint256",
          "name": "_protocolFee",
          "type": "uint256"
        },
        {
          "internalType": "uint256",
          "name": "_liquidationBonusAmount",
          "type": "uint256"
        },
        {
          "internalType": "uint256",
          "name": "_minLiquidatorReward",
          "type": "uint256"
        },
        {
          "internalType": "uint256",
          "name": "_maxLiquidatorReward",
          "type": "uint256"
        },
        {
          "internalType": "uint256",
          "name": "_totalBorrowCap",
          "type": "uint256"
        },
        {
          "internalType": "uint256",
          "name": "_collateralizationRate",
          "type": "uint256"
        },
        {
          "internalType": "uint256",
          "name": "_liquidationCollateralizationRate",
          "type": "uint256"
        }
      ],
      "name": "setMarketConfig",
      "outputs": [],
      "stateMutability": "nonpayable",
      "type": "function"
    },
    {
      "inputs": [],
      "name": "startingInterestPerSecond",
      "outputs": [
        {
          "internalType": "uint64",
          "name": "",
          "type": "uint64"
        }
      ],
      "stateMutability": "view",
      "type": "function"
    },
    {
      "inputs": [],
      "name": "symbol",
      "outputs": [
        {
          "internalType": "string",
          "name": "",
          "type": "string"
        }
      ],
      "stateMutability": "view",
      "type": "function"
    },
    {
      "inputs": [],
      "name": "totalAsset",
      "outputs": [
        {
          "internalType": "uint128",
          "name": "elastic",
          "type": "uint128"
        },
        {
          "internalType": "uint128",
          "name": "base",
          "type": "uint128"
        }
      ],
      "stateMutability": "view",
      "type": "function"
    },
    {
      "inputs": [],
      "name": "totalBorrow",
      "outputs": [
        {
          "internalType": "uint128",
          "name": "elastic",
          "type": "uint128"
        },
        {
          "internalType": "uint128",
          "name": "base",
          "type": "uint128"
        }
      ],
      "stateMutability": "view",
      "type": "function"
    },
    {
      "inputs": [],
      "name": "totalBorrowCap",
      "outputs": [
        {
          "internalType": "uint256",
          "name": "",
          "type": "uint256"
        }
      ],
      "stateMutability": "view",
      "type": "function"
    },
    {
      "inputs": [],
      "name": "totalCollateralShare",
      "outputs": [
        {
          "internalType": "uint256",
          "name": "",
          "type": "uint256"
        }
      ],
      "stateMutability": "view",
      "type": "function"
    },
    {
      "inputs": [],
      "name": "totalSupply",
      "outputs": [
        {
          "internalType": "uint256",
          "name": "",
          "type": "uint256"
        }
      ],
      "stateMutability": "view",
      "type": "function"
    },
    {
      "inputs": [
        {
          "internalType": "address",
          "name": "to",
          "type": "address"
        },
        {
          "internalType": "uint256",
          "name": "amount",
          "type": "uint256"
        }
      ],
      "name": "transfer",
      "outputs": [
        {
          "internalType": "bool",
          "name": "",
          "type": "bool"
        }
      ],
      "stateMutability": "nonpayable",
      "type": "function"
    },
    {
      "inputs": [
        {
          "internalType": "address",
          "name": "from",
          "type": "address"
        },
        {
          "internalType": "address",
          "name": "to",
          "type": "address"
        },
        {
          "internalType": "uint256",
          "name": "amount",
          "type": "uint256"
        }
      ],
      "name": "transferFrom",
      "outputs": [
        {
          "internalType": "bool",
          "name": "",
          "type": "bool"
        }
      ],
      "stateMutability": "nonpayable",
      "type": "function"
    },
    {
      "inputs": [
        {
          "internalType": "address",
          "name": "newOwner",
          "type": "address"
        },
        {
          "internalType": "bool",
          "name": "direct",
          "type": "bool"
        },
        {
          "internalType": "bool",
          "name": "renounce",
          "type": "bool"
        }
      ],
      "name": "transferOwnership",
      "outputs": [],
      "stateMutability": "nonpayable",
      "type": "function"
    },
    {
      "inputs": [],
      "name": "updateExchangeRate",
      "outputs": [
        {
          "internalType": "bool",
          "name": "updated",
          "type": "bool"
        },
        {
          "internalType": "uint256",
          "name": "rate",
          "type": "uint256"
        }
      ],
      "stateMutability": "nonpayable",
      "type": "function"
    },
    {
      "inputs": [
        {
          "internalType": "enum Market.PauseType",
          "name": "_type",
          "type": "uint8"
        },
        {
          "internalType": "bool",
          "name": "val",
          "type": "bool"
        }
      ],
      "name": "updatePause",
      "outputs": [],
      "stateMutability": "nonpayable",
      "type": "function"
    },
    {
      "inputs": [
        {
          "internalType": "address",
          "name": "",
          "type": "address"
        }
      ],
      "name": "userBorrowPart",
      "outputs": [
        {
          "internalType": "uint256",
          "name": "",
          "type": "uint256"
        }
      ],
      "stateMutability": "view",
      "type": "function"
    },
    {
      "inputs": [
        {
          "internalType": "address",
          "name": "",
          "type": "address"
        }
      ],
      "name": "userCollateralShare",
      "outputs": [
        {
          "internalType": "uint256",
          "name": "",
          "type": "uint256"
        }
      ],
      "stateMutability": "view",
      "type": "function"
    },
    {
      "inputs": [],
      "name": "yieldBox",
      "outputs": [
        {
          "internalType": "contract YieldBox",
          "name": "",
          "type": "address"
        }
      ],
      "stateMutability": "view",
      "type": "function"
    }
  ],
  "bytecode": "0x6101408060405234620001e5576200001781620001ea565b601381526001602082017f546170696f63612053696e67756c617269747900000000000000000000000000815260206040516200005481620001ea565b8381520192603160f81b845251902091208160e052610100918183524660a0526040519160208301907f8b73c3c69bb8fe3d512ecc4cf759cc79239f7b179b0ffacaa9a75d522b39400f92838352604085015260608401524660808401523060a084015260a0835260c083019280841060018060401b03851117620001cf5760408490525190206080523060c052610120908152600580546001600160a01b0319163390811790915560007f8be0079c531659141344cd1fd0a4f28419497f9722a3daafe3b4186f6b6457e08180a362013880601b5562015f90601c55612710601d556032602055612ee06021557f0bd4060688a1800ae986e4840aebc924bb40b5bf44de4583df2257220b54b77c6027557f7d1dc38e60930664f8cbf495da6556ca091d2f92d6550877750c049864b182306028556161a86029556154339283620002078439608051836139fe015260a05183613ac9015260c051836139c8015260e05183613a4d01525182613a7301525181613a2a0152f35b634e487b7160e01b600052604160045260246000fd5b600080fd5b604081019081106001600160401b03821117620001cf5760405256fe608080604052600436101561001357600080fd5b600090813560e01c908162a02a2014612f315750806302ce728f14612f0857806306fdde0314612e51578063078dfbe714612d52578063095ea7b314612d2b5780630996efb7146128a85780630c4e84f01461279057806318160ddd1461276f5780631c9e379b146127365780631da8bf10146126815780631ee9c8f21461221757806323b872dd146120745780632a9399d914611c60578063313ce56714611c2c578063331960ff14611c0e57806334d441d014611bf05780633644e51514611bd557806337b6b7b914611bb757806338d52e0f14611b8e5780633ba0b9a914611b705780633f741adb14611b4b57806340626d8b14611b2d57806344de240a14611b0f578063473e3ce714611af157806348e4163e14611ab85780634d7f2a3414611a9a5780634e71e0c8146119ec578063529898f2146119ce57806352f353eb146119a7578063551402321461198057806355c2ab9414611956578063579354621461193857806358db9afe146114eb5780635dfe04e81461148c5780636c3d8b8f1461146357806370a082311461142a57806372778547146113f257806374645ff3146113245780637dc0d1d0146112fb5780637ecebe00146112c25780637fa0b84e14611290578063821226e8146112725780638285ef40146112405780638c5d0ed3146112225780638da5cb5b146111f9578063910dd7c814610f80578063959916dc14610f6357806395d89b4114610ea957806399a9702814610e795780639c5d719214610e5b5780639e15e89f14610e20578063a9059cbb14610d3d578063b0e21e8a14610d1f578063b27c0e7414610ce4578063bb4cfe3b14610cc6578063ce8849ed14610c9d578063d49dffa714610651578063d505accf146104cb578063d8dfeb45146104a2578063dd62ed3e14610453578063de4065771461042a578063e0996cb61461040c578063e30c3978146103e3578063ea64dd56146103c5578063eec0f42e146103a7578063f42760b714610389578063f8ba4cff1461036d578063f9557ccb146103375763ffe04c661461031757600080fd5b346103345780600319360112610334576020602a54604051908152f35b80fd5b5034610334578060031936011261033457602554604080516001600160801b038316815260809290921c602083015290f35b0390f35b503461033457806003193601126103345761038661432f565b80f35b50346103345780600319360112610334576020602b54604051908152f35b50346103345780600319360112610334576020600c54604051908152f35b50346103345780600319360112610334576020601f54604051908152f35b50346103345780600319360112610334576006546040516001600160a01b039091168152602090f35b50346103345780600319360112610334576020601d54604051908152f35b50346103345780600319360112610334576009546040516001600160a01b039091168152602090f35b50346103345760403660031901126103345761046d612f79565b6040610477612f8f565b9260018060a01b03809316815260026020522091166000526020526020604060002054604051908152f35b5034610334578060031936011261033457600b546040516001600160a01b039091168152602090f35b5034610334576104da36613062565b9083959495421161060c576105b8916105b09160018060a01b0394858a169687600052600460205260406000209081549161051483613d12565b90556040519060208201927f9cc5629bbe7baa98a89f6f8c2c396b83ab62dbb6cbb12f17f1d6ba7e6f53e2668452600060408401528a6060840152898c1660808401528c60a084015260c083015260e082015260e0815261057481613194565b51902061057f6139c5565b9060405190602082019261190160f01b845260228301526042820152604281526105a881613179565b519020613c9a565b919091613b9b565b16036105c75761038692613d6f565b60405162461bcd60e51b815260206004820152601e60248201527f45524332305065726d69743a20696e76616c6964207369676e617475726500006044820152606490fd5b60405162461bcd60e51b815260206004820152601d60248201527f45524332305065726d69743a206578706972656420646561646c696e650000006044820152606490fd5b5061014036600319011261033457610667612f79565b606435151560643503610a5f576001600160401b038060843511610c9957606060843536036003190112610c995760a43511610a505760e060a43536036003190112610a505760803660c3190112610a5057600560005260076020527fbcdda56b5d08466ec462cbbe0adfa57cb0a15fcc8940ef68f702f21b787bc935546106f29060ff1615614452565b6106fa6134de565b505061070461432f565b6107196001600160a01b0382163014156144cf565b610727604460a4350161451a565b60c4356001600160a01b0381169003610a5f5761074a61074f9160c43590614893565b614529565b60243580610afd575b506107da6107ac6107d46107ce6107b2620186a061077a602054604435613286565b0461078a601154916044356132ea565b600d5460ff906107a2906001600160a01b0316614633565b1695869289613722565b90614799565b6001600160a01b03861687526018602052604087205490613286565b916132cf565b906132af565b336001600160a01b03831603610aa9575b6107f590826147dc565b610836604061080760443584806149c3565b905060018060a01b0360095416600e548684518096819582946311a5cc7760e31b84528a309160048601614582565b03925af1908115610a9e578391610a6e575b50600d546001600160a01b03169060643515610a6857475b823b15610a645760405191633cb7ea1d60e11b8352600483015260018060a01b0384166024830152610100604483015260a4356004013561010483015261ffff6108ae602460a435016131ec565b1661012483015261ffff6108c6604460a435016131ec565b166101448301526001600160a01b036108e360a435606401612fbb565b166101648301526109af61094161091a610907608460a4350160a4356004016145b1565b60e06101848801526101e48701916145e2565b61092d60a480350160a4356004016145b1565b86830361010319016101a4880152906145e2565b6001600160a01b0361095760a43560c401612fbb565b166101c4850152838103600319016064850152606061099f6004608435016001600160a01b0361098682612fbb565b16845260843560248101356020860152604401906145b1565b91909281604082015201916145e2565b6001600160a01b0360c4358116608485015290939060e43590811690819003610a5f5760a4840152610104356001600160a01b03811690819003610a5f5760c4840152610124356001600160a01b0381169190829003610a5f5783879593818795819560e483015203925af18015610a5457610a3c575b50610386610a3783601154906146a1565b61448f565b610a459061311a565b610a50578138610a26565b5080fd5b6040513d84823e3d90fd5b600080fd5b8480fd5b34610860565b610a90915060403d604011610a97575b610a8881836131b0565b81019061456c565b5038610848565b503d610a7e565b6040513d85823e3d90fd5b806107eb5760405162461bcd60e51b815260206004820152602160248201527f42696742616e673a20616c6c6f77616e63655368617265206e6f742076616c696044820152601960fa1b6064820152608490fd5b602060018060a01b0360095416916064600c546040519485938492638eb22cdd60e01b8452600484015260248301528760448301525afa908115610a9e578391610c67575b50610b4d81836147dc565b8015610bdb575b60018060a01b03821660005260186020526040600020610b758282546132ea565b9055610b83816015546132ea565b60155560018060a01b038216600052602660205260406000206028546000526020526040600020610bb58282546132ea565b90556001600160a01b038216806000805160206153be833981519152600080a438610758565b5060018060a01b03600954166020600c54606460405180948193638eb22cdd60e01b8352600483015260006024830152600060448301525afa908115610c5b57600091610c29575b50610b54565b906020823d602011610c53575b81610c43602093836131b0565b8101031261033457505138610c23565b3d9150610c36565b6040513d6000823e3d90fd5b90506020813d602011610c91575b81610c82602093836131b0565b81010312610a5f575138610b42565b3d9150610c75565b8280fd5b50346103345780600319360112610334576008546040516001600160a01b039091168152602090f35b50346103345780600319360112610334576020601e54604051908152f35b50346103345780600319360112610334576060602454604051906001600160401b0380821683528160401c16602083015260801c6040820152f35b50346103345780600319360112610334576020601a54604051908152f35b503461033457604036600319011261033457610d57612f79565b60243580928115801590610e0e575b610d9e575b50506040519182526001600160a01b03169033906000805160206153de83398151915290602090a3602060405160018152f35b33815260016020526040812054610db783821015613aef565b6001600160a01b0384169033829003610dd2575b5050610d6b565b604093610de991610de4841515613b34565b6132dd565b338352600160205283832055815220610e038382546132ea565b905581388080610dcb565b50336001600160a01b03841614610d66565b5034610334576040366003190112610334576060610e48610e3f612f79565b6024359061341d565b9060405192835260208301526040820152f35b50346103345780600319360112610334576020602c54604051908152f35b5034610334576040366003190112610334576020610ea1610e98612f79565b60243590613893565b604051908152f35b5034610334578060031936011261033457808060018060a01b03600b541660405160208101906395d89b4160e01b825260048152610ee68161315e565b51915afa610ef2614603565b915015610f5257610f056103699161524c565b610f3e6023604051809362746d2d60e81b6020830152610f2e8151809260208686019101612fcf565b81010360038101845201826131b0565b604051918291602083526020830190612ff2565b50610369610f5e6151f5565b610f05565b503461033457806003193601126103345760208054604051908152f35b5034610334576040366003190112610334576004356001600160401b038111610a505736602382011215610a5057806004013590610fbd826131d1565b90610fcb60405192836131b0565b82825283602091828401943660248284010111610c99578060248593018737840101526024359061ffff8216809203610a5f576101009384848051810103126111f557611017906134d1565b9061102460408501613b79565b61103060608601613b79565b9560808601519560a08101519161104960c08301613b8d565b9060e08301519201519260018060a01b03808096169a16978142116111b057926105b09289888d989794611127978e8d600014611189577f9cc5629bbe7baa98a89f6f8c2c396b83ab62dbb6cbb12f17f1d6ba7e6f53e266945b8c600052600485526040600020928354936110bd85613d12565b905560405195860196875260408601528c6060860152608085015260a084015260c083015260e082015260e081526110f481613194565b5190206110ff6139c5565b90604051908a82019261190160f01b845260228301526042820152604281526105a881613179565b160361114557501561113c5761038692613d6f565b61038692613d21565b6064906040519062461bcd60e51b82526004820152601e60248201527f45524332305065726d69743a20696e76616c6964207369676e617475726500006044820152fd5b7f5c9ba5f0d101616843d7918f48ea857d6da95e04ac6d719e105e50a355e7c5d6946110a3565b60405162461bcd60e51b815260048101889052601d60248201527f45524332305065726d69743a206578706972656420646561646c696e650000006044820152606490fd5b8580fd5b50346103345780600319360112610334576005546040516001600160a01b039091168152602090f35b50346103345780600319360112610334576020601b54604051908152f35b5034610334578060031936011261033457601454604080516001600160801b038316815260809290921c602083015290f35b50346103345780600319360112610334576020602e54604051908152f35b5034610334576040366003190112610334576112b76112ad612f79565b6024359033613d21565b602060405160018152f35b5034610334576020366003190112610334576020906040906001600160a01b036112ea612f79565b168152600483522054604051908152f35b5034610334578060031936011261033457600f546040516001600160a01b039091168152602090f35b5034610334578060031936011261033457604051600090601054611347816130e0565b8083526001918083169081156113ca5750600114611370575b61036983610f3e818703826131b0565b6010600090815260209450917f1b6847dc741a1b0cd08d278845f9d819d87b734759afb55fe2de5cb82a9ae6725b8284106113b757505050810190910190610f3e81611360565b805485850187015292850192810161139e565b6103699550610f3e93506020915091849260ff191682840152151560051b8201019350611360565b50346103345760203660031901126103345760043590600982101561033457602060ff61141e846130b1565b54166040519015158152f35b5034610334576020366003190112610334576020906040906001600160a01b03611452612f79565b168152600183522054604051908152f35b5034610334578060031936011261033457600a546040516001600160a01b039091168152602090f35b50346103345780600319360112610334576114a5613dc6565b5060806114b0613e4a565b509350505050604051916001600160401b0380825116845260208201511660208401526040600180861b039101511660408301526060820152f35b50346103345760a036600319011261033457611505612f79565b60243590611511612fa5565b906084356001600160401b038111610a6457611531903690600401613035565b93909460066000526020956007875261155260ff6040600020541615614452565b61155a6134de565b505061156461432f565b6001600160a01b03848116959093600491611581308914156144cf565b8986600a54166040519485809263433e762d60e01b82525afa92831561192d5790869186946118f4575b506115bc9161074a91168094614893565b6115c681876147dc565b600087815260188a52604081206115de8382546132dd565b90556115ec826015546132dd565b6015558560095416600c54813b15610c99578361162492849283604051809681958294630208d92960e11b84528c3060048601614980565b03925af18015610a54576118e5575b508183897f8ad4d3ff00da092c7ad9a573ea4f5f6a3dffc6712dc06d3f78f49b862297c4028480a487815260268a5260408120602854908183528b52604082205483116000146118bf575087815260268a526040812060285482528a5260408120555b600c54600e54604051633d9545e960e11b81526004810192909252602482015260006044820152606481019190915260016084820181905260a48201526101408160c481855afa9081156118b45784604094939288928291611883575b5061171786519b8c968795869463efa84c6d60e01b86526044359060048701614e29565b03925af1938415611876578195829561184f575b5061173a604435871015614ebb565b8152601786526040812054918661175884611753613de5565b614ef9565b9160095416916064600e546040519485938492638eb22cdd60e01b845260048401526024830152600160448301525afa918215611843579161180e575b50610ea193610a37939291116117bb576117b0908280614f57565b505b601154906146a1565b506117c4613de5565b80516001600160801b039081166117e95750506117e3845b8280614f57565b506117b2565b8181611800611809938a6117e39601511689613286565b915116906132af565b6117dc565b929190508583813d831161183c575b61182781836131b0565b81010312610a5f579151909190610ea1611795565b503d61181d565b604051903d90823e3d90fd5b90945061186c91955060403d604011610a9757610a8881836131b0565b949094933861172b565b50604051903d90823e3d90fd5b6118a791506101403d610140116118ad575b61189f81836131b0565b810190614d4e565b386116f3565b503d611895565b6040513d86823e3d90fd5b9060409189825260268c528282209082528b52206118de8282546132dd565b9055611696565b6118ee9061311a565b38611633565b61074a9194509161191d6115bc938d803d10611926575b61191581836131b0565b810190614d34565b949150916115ab565b503d61190b565b6040513d87823e3d90fd5b50346103345780600319360112610334576020601c54604051908152f35b503461033457806003193601126103345760206001600160401b03602d5460401c16604051908152f35b503461033457806003193601126103345760206001600160401b03602d5416604051908152f35b503461033457806003193601126103345760206001600160401b03602f5416604051908152f35b50346103345780600319360112610334576020602154604051908152f35b50346103345780600319360112610334576006546001600160a01b039081811633819003611a5657806005549384167f8be0079c531659141344cd1fd0a4f28419497f9722a3daafe3b4186f6b6457e08680a36001600160a01b0319928316176005551660065580f35b606460405162461bcd60e51b815260206004820152602060248201527f4f776e61626c653a2063616c6c657220213d2070656e64696e67206f776e65726044820152fd5b50346103345780600319360112610334576020602954604051908152f35b5034610334576020366003190112610334576020906040906001600160a01b03611ae0612f79565b168152601783522054604051908152f35b50346103345780600319360112610334576020601554604051908152f35b50346103345780600319360112610334576020600e54604051908152f35b50346103345780600319360112610334576020601654604051908152f35b5034610334576060366003190112610334576020610ea1604435602435600435613310565b50346103345780600319360112610334576020601154604051908152f35b5034610334578060031936011261033457600d546040516001600160a01b039091168152602090f35b50346103345780600319360112610334576020601254604051908152f35b50346103345780600319360112610334576020610ea16139c5565b50346103345780600319360112610334576020601954604051908152f35b50346103345780600319360112610334576020601354604051908152f35b5034610334578060031936011261033457600d54602090611c55906001600160a01b0316614633565b60ff60405191168152f35b5060031961012036820112610a5057611c77612f79565b90611c80613026565b90606435916001600160401b03908184116111f55760608385360301126111f5576084359182116111f55760e08383360301126111f55760803660a31901126111f557600660005260209060078252611ce160ff6040600020541615614452565b611ce96134de565b5050611cf361432f565b6001600160a01b0386811693909290611d0e308614156144cf565b6044810191611d1c8361451a565b9760a435868116998a8203610a5f57611d389161074a91614893565b856009541697828c6064600c546040519c8d938492638eb22cdd60e01b84526004840152602435602484015260448301525afa98891561200e578b908d9a612041575b5089611d8c611e469b6040936147dc565b896000526018855281600020611da38282546132dd565b9055611db1816015546132dd565b60155580308b7f8ad4d3ff00da092c7ad9a573ea4f5f6a3dffc6712dc06d3f78f49b862297c402600080a48960005260268552816000206028549081600052865282600020548211600014612019575089600052602685528160002060285460005285526000828120555b8d896009541690600c54908451809e819582946311a5cc7760e31b84523090309060048601614582565b03925af198891561200e578c99611fec575b50600b5487169515611fe55747975b863b15611fe15760405199633cb7ea1d60e11b8b5260048b015260248a01526044890161010090528684600401610104968135888d015261ffff908c8260248a01611eb1906131ec565b16906101240152611ec1906131ec565b166101448c015281611ed560648801612fbb565b166101648c0152611ee960848701826145b1565b6101848d0160e090526101e48d0190611f01926145e2565b9060a48701611f0f916145b1565b8c830361010319016101a48e0152611f2792916145e2565b9460c401611f3490612fbb565b166101c48a0152888403016064890152806004019186611f5384612fbb565b168452602482013590840152604401611f6b916145b1565b606060408401819052611f7f9301916145e2565b95608486015260c435838116809103610a5f5760a486015260e435838116809103610a5f5760c486015235918216809203610a5f5783879593818795819560e483015203925af18015610a5457610a3c5750610386610a3783601154906146a1565b8c80fd5b3497611e67565b61200691995060403d604011610a9757610a8881836131b0565b509738611e58565b6040513d8e823e3d90fd5b8a60005260268652826000209060005285528160002061203a8282546132dd565b9055611e1c565b809a50848092503d831161206d575b61205a81836131b0565b81010312610a5f579751978a6040611d7b565b503d612050565b50346103345760603660031901126103345761208e612f79565b90612097612f8f565b60443591826120d5575b506040519182526001600160a01b039081169216906000805160206153de83398151915290602090a3602060405160018152f35b6001600160a01b038481168083526001602090815260408420549286906120fe82861015613aef565b861693848403612113575b50505050506120a1565b83865260028352604086203360005283526040600020546000198103612181575b509260016020969361215f8794604097610de46000805160206153de8339815191529c9a1515613b34565b92855252838320558152206121758582546132ea565b90559138808581612109565b909181106121d7579260016020969361215f8a6000805160206153de8339815191529a98956121b28260409a6132dd565b8689526002855289892033600052855289600020559497509497995050939650612134565b60405162461bcd60e51b815260048101849052601860248201527745524332303a20616c6c6f77616e636520746f6f206c6f7760401b6044820152606490fd5b50346103345760c036600319011261033457612231612f79565b60643591906001600160a01b03608435818116929083900361267d5760a4356001600160401b038111610a645761226c903690600401613035565b9093600586526020966007885261228a60ff60408920541615614452565b6122926134de565b505061229c61432f565b848416916122ac308414156144cf565b60048987600a54166040519283809263433e762d60e01b82525afa90811561267257826122e49261074a928c91612655575b50614893565b856009541693600e549060405191638eb22cdd60e01b968784528160048501526044356024850152600160448501528c84606481845afa93841561200e578c94612626575b50836125cc575b5050612399612342602435858a6149c3565b9050612354600e5491600c54956132ea565b60405180938192633d9545e960e11b83526101409788956004850160a091949360019360c0830196835260208301526000604083015260608201528260808201520152565b0381875afa9283156125c15788936040959387938e93849361259c575b50506123d89087519d8e978896879563efa84c6d60e01b875260048701614e29565b03925af1958615612591578796612568575b506123f790871015614ebb565b61240185846147dc565b8491600095156124f8575b5080855260188752604085206124238382546132ea565b9055612431826015546132ea565b601555600c54948460095416803b15610a5f578360009161246b9883604051809b81958294630208d92960e11b8452308d60048601614980565b03925af1948515610c5b57610ea196610a37966124d6575b506000805160206153be8339815191529083835260268a526040832060285484528a52604083206124b58682546132ea565b905582156124d05780600954165b169180a4601154906146a1565b856124c3565b6124e191925061311a565b6000906000805160206153be833981519152612483565b909150868460095416916064600c54916040519485938492835260048301528960248301528960448301525afa90811561192d57859161253b575b50903861240c565b90508681813d8311612561575b61255281836131b0565b81010312610a64575138612533565b503d612548565b6123f7975061258791965060403d604011610a9757610a8881836131b0565b96909695906123ea565b6040513d89823e3d90fd5b6123d892935090816125b992903d106118ad5761189f81836131b0565b9190386123b6565b6040513d8d823e3d90fd5b803b156126225783918c9186838c6125fa60405197889687958694630208d92960e11b865260048601614980565b03925af180156125c15761260f575b80612330565b61261b909a919a61311a565b9838612609565b8b80fd5b9093508c81813d831161264e575b61263e81836131b0565b8101031261262257519238612329565b503d612634565b61266c91508d803d106119265761191581836131b0565b386122de565b6040513d8b823e3d90fd5b8380fd5b50346103345761269036613062565b9083959495421161060c57612727916105b09160018060a01b03948a868b1697888252600460205260408220908154916126c983613d12565b90556040519160208301937f5c9ba5f0d101616843d7918f48ea857d6da95e04ac6d719e105e50a355e7c5d6855260408401528a6060840152898c1660808401528c60a084015260c083015260e082015260e0815261057481613194565b16036105c75761038692613d21565b5034610334576020366003190112610334576020906040906001600160a01b0361275e612f79565b168152601883522054604051908152f35b5034610334578060031936011261033457602060255460801c604051908152f35b5034610334576040366003190112610334576004356009811015610a50576127b6613017565b6008549091906001600160a01b0316330361286c5760ff6127d6826130b1565b5416151591151591821461283257808260ff6127f4612822946130b1565b54161515827feeec81de25875ce1725479bb76f720a8defdb43dea041919ae37bb4aae9847c08780a46130b1565b9060ff8019835416911617905580f35b60405162461bcd60e51b81526020600482015260126024820152714d61726b65743a2073616d6520737461746560701b6044820152606490fd5b60405162461bcd60e51b815260206004820152601460248201527313585c9ad95d0e881d5b985d5d1a1bdc9a5e995960621b6044820152606490fd5b503461033457610180366003190112610334576001600160a01b0360243581811690819003610c99576001600160401b0391604435838111610a64576128f382913690600401613035565b6128fb612fa5565b9161290b846005541633146131fb565b60043596620186a096612920888a1115613246565b602098808a547fc353b09af857951dccce61b43a5854fc45beceed36c50e5d4cc2e71858a8e0df8d80a3895580612ced575b5082612b94575b505050169081612b54575b505060843580612b3f575b5060a43580612b2a575b5060c43580612b16575b5060e43580612af5575b506101043580612ad4575b506101243580612aa3575b50610144359081612a31575b50506101643590816129bf578280f35b601e5482106129d25750601f5538808280f35b6084906040519062461bcd60e51b82526004820152603260248201527f4d61726b65743a206c69717569646174696f6e436f6c6c61746572616c697a616044820152711d1a5bdb94985d19481d1bdbc81cdb585b1b60721b6064820152fd5b612a3d90821115613246565b601f548111612a5057601e5538806129af565b60405162461bcd60e51b815260048101839052602560248201527f4d61726b65743a20636f6c6c61746572616c697a6174696f6e5261746520746f6044820152646f2062696760d81b6064820152608490fd5b806016547fae6e0ab3b95f0a53ff9660a390ccedcbbf1f2355dce974a9841af106fddcfaba8680a3601655386129a3565b612adf828210613246565b612aec601b548211613246565b601c5538612998565b612b00828210613246565b612b0d601c548210613246565b601b553861298d565b612b21828210613246565b601d5538612983565b612b3682821115613246565b601a5538612979565b612b4b82821115613246565b6019553861296f565b816008549182167f5a62d22209e370e38eea92cfddcd228e656e6ec139243392a760a7769f5877fd8780a36001600160a01b031916176008553880612964565b90918093945011612cd95790839291612bae6010546130e0565b601f8111612c8b575b508790601f8311600114612c1b5788919083612c10575b50508160011b916000199060031b1c1916176010555b7fa6f004921c944d4b8bf6e38462b00f36a58d62495d56b51f571ab78f732c98158680a1388080612959565b013590503880612bce565b6010899594939295528789209089955b89601f1985168810612c72575060019495965083601f19811610612c58575b505050811b01601055612be4565b0135600019600384901b60f8161c19169055388080612c4a565b8183013584559687019688965060019093019201612c2b565b909192935060108852868820601f840160051c8101888510612cd2575b90601f87969594930160051c01905b818110612cc45750612bb7565b898155869550600101612cb7565b5080612ca8565b634e487b7160e01b87526041600452602487fd5b600f80546001600160a01b0319169190911790557f0b2d6eb667d0522c3eb86e4288afecae6c11591ffd1345d4d12407e0598bca9b8980a138612952565b5034610334576040366003190112610334576112b7612d48612f79565b6024359033613d6f565b503461033457606036600319011261033457612d6c612f79565b612d74613017565b612d7c613026565b9060018060a01b03928391612d96836005541633146131fb565b15612e3a571690811590811591612e32575b5015612df557806005549283167f8be0079c531659141344cd1fd0a4f28419497f9722a3daafe3b4186f6b6457e08580a36001600160a01b03199182161760055560068054909116905580f35b60405162461bcd60e51b81526020600482015260156024820152744f776e61626c653a207a65726f206164647265737360581b6044820152606490fd5b905038612da8565b9150501660018060a01b0319600654161760065580f35b5034610334578060031936011261033457808060018060a01b03600b541660405160208101906306fdde0360e01b825260048152612e8e8161315e565b51915afa612e9a614603565b915015612ef757612ead6103699161524c565b610f3e6034604051809373546170696f63612053696e67756c61726974792d60601b6020830152612ee78151809260208686019101612fcf565b81010360148101845201826131b0565b50610369612f036151f5565b612ead565b50346103345780600319360112610334576040612f236134de565b825191151582526020820152f35b905034610a50576040366003190112610a50576040602092612f51612f79565b612f59612f8f565b6001600160a01b0391821683526003865283832091168252845220548152f35b600435906001600160a01b0382168203610a5f57565b602435906001600160a01b0382168203610a5f57565b606435906001600160a01b0382168203610a5f57565b35906001600160a01b0382168203610a5f57565b60005b838110612fe25750506000910152565b8181015183820152602001612fd2565b9060209161300b81518092818552858086019101612fcf565b601f01601f1916010190565b602435908115158203610a5f57565b604435908115158203610a5f57565b9181601f84011215610a5f578235916001600160401b038311610a5f5760208381860195010111610a5f57565b60e0906003190112610a5f576001600160a01b03906004358281168103610a5f57916024359081168103610a5f5790604435906064359060843560ff81168103610a5f579060a4359060c43590565b60098110156130ca576000526007602052604060002090565b634e487b7160e01b600052602160045260246000fd5b90600182811c92168015613110575b60208310146130fa57565b634e487b7160e01b600052602260045260246000fd5b91607f16916130ef565b6001600160401b03811161312d57604052565b634e487b7160e01b600052604160045260246000fd5b606081019081106001600160401b0382111761312d57604052565b604081019081106001600160401b0382111761312d57604052565b608081019081106001600160401b0382111761312d57604052565b61010081019081106001600160401b0382111761312d57604052565b90601f801991011681019081106001600160401b0382111761312d57604052565b6001600160401b03811161312d57601f01601f191660200190565b359061ffff82168203610a5f57565b1561320257565b606460405162461bcd60e51b815260206004820152602060248201527f4f776e61626c653a2063616c6c6572206973206e6f7420746865206f776e65726044820152fd5b1561324d57565b60405162461bcd60e51b815260206004820152601160248201527013585c9ad95d0e881b9bdd081d985b1a59607a1b6044820152606490fd5b8181029291811591840414171561329957565b634e487b7160e01b600052601160045260246000fd5b81156132b9570490565b634e487b7160e01b600052601260045260246000fd5b604d811161329957600a0a90565b9190820391821161329957565b9190820180921161329957565b8181039291600013801582851316918412161761329957565b6014549192916133539161334a9161334091613336906001600160801b03831690613286565b9060801c906132af565b93601f5490613286565b6107d4836132cf565b8083106134155761336761339d91846132dd565b916133986107ce61338f601e54613389613380866132cf565b602154906132ea565b90613286565b6107d4846132cf565b6132f7565b6509184e72a0009081810291818305149015171561329957670de0b6b3a7640000918281029281840514901517156132995780156132b957600160ff1b91808314600019831416613299570590600082121561340e57811461329957600003905b808211613409575090565b905090565b50906133fe565b505050600090565b6001600160a01b0381166000818152601760205260408120549194939290919081156134c557916040916134a16134b99594836020865161345d8161315e565b828152015261347b8661346e613e4a565b5050505050939050613722565b815190936001600160801b039160209161349791841690613286565b92015116906132af565b8181106134bd57035b958152601860205220546137e8565b9091565b5050806134aa565b50509192505080918190565b51908115158203610a5f57565b60018060a01b03600f54169060409081519263d6d7d52560e01b845282846020928360048301526000601054613513816130e0565b908160248601526001908582821691826000146136b257505060011461366e575b5050600083809203925af18015613663576000948591613628575b509284156135ca57831561359057505081601155817f9f9192b5edb17356c524e08d9e025c8e2f6307e6ea52fb7968faa3081f51c3c8600080a25b42601355565b60649250519062461bcd60e51b8252600482015260146024820152734d61726b65743a20696e76616c6964207261746560601b6044820152fd5b909192506135dd601354601254906132ea565b42116135ee5750506011549061358a565b60649250519062461bcd60e51b82526004820152601460248201527313585c9ad95d0e881c985d19481d1bdbc81bdb1960621b6044820152fd5b9490508385813d831161365c575b61364081836131b0565b81010312610334575080613653856134d1565b9401513861354f565b503d613636565b83513d6000823e3d90fd5b915060106000528560002091866000935b83851061369757505050508201604401600083613534565b80548c8601604401528a97508b96509301928790820161367f565b8195506000949193506044925060ff191682840152151560051b8201019250613534565b156136dd57565b60405162461bcd60e51b815260206004820152601e60248201527f4d61726b65743a2065786368616e676552617465206e6f742076616c696400006044820152606490fd5b61372d8215156136d6565b60018060a01b036020816009541691600c5490600094168452601882526064604085205491604051948593849263442c159960e01b8452600484015260248301528660448301525afa9182156118435780926137b0575b5050906137a861379f6137ad93620186a06022540490613286565b601e5490613286565b6132af565b90565b9091506020823d82116137e0575b816137cb602093836131b0565b810103126103345750516137a861379f613784565b3d91506137be565b6137f38215156136d6565b602060018060a01b0360095416916064600c54604051948593849263442c159960e01b845260048401526024830152600060448301525afa908115610c5b57600091613860575b50906137a861384c9260225490613286565b620186a061385c601e5483613286565b0491565b906020823d821161388b575b81613879602093836131b0565b810103126103345750516137a861383a565b3d915061386c565b6001600160a01b031660008181526018602052604081205490926138b6916137e8565b9183526017602052604083205480156139bf5781156139bf578181106139bf57828110156139b5576014546138ff918391610de491613336906001600160801b03831690613286565b90620186a092838302928084048514901517156139a15761392492916107d4916132dd565b91601b5491601c549361393785856132f7565b80820291848212600160ff1b8214166139a157818305149015171561398d57058184820194851291129080158216911516176139795750808212613409575090565b634e487b7160e01b81526011600452602490fd5b634e487b7160e01b83526011600452602483fd5b634e487b7160e01b85526011600452602485fd5b50505050601b5490565b50505090565b307f00000000000000000000000000000000000000000000000000000000000000006001600160a01b03161480613ac6575b15613a20577f000000000000000000000000000000000000000000000000000000000000000090565b60405160208101907f000000000000000000000000000000000000000000000000000000000000000082527f000000000000000000000000000000000000000000000000000000000000000060408201527f000000000000000000000000000000000000000000000000000000000000000060608201524660808201523060a082015260a0815260c081018181106001600160401b0382111761312d5760405251902090565b507f000000000000000000000000000000000000000000000000000000000000000046146139f7565b15613af657565b60405162461bcd60e51b815260206004820152601660248201527545524332303a2062616c616e636520746f6f206c6f7760501b6044820152606490fd5b15613b3b57565b60405162461bcd60e51b815260206004820152601660248201527545524332303a206e6f207a65726f206164647265737360501b6044820152606490fd5b51906001600160a01b0382168203610a5f57565b519060ff82168203610a5f57565b60058110156130ca5780613bac5750565b60018103613bf45760405162461bcd60e51b815260206004820152601860248201527745434453413a20696e76616c6964207369676e617475726560401b6044820152606490fd5b60028103613c415760405162461bcd60e51b815260206004820152601f60248201527f45434453413a20696e76616c6964207369676e6174757265206c656e677468006044820152606490fd5b600314613c4a57565b60405162461bcd60e51b815260206004820152602260248201527f45434453413a20696e76616c6964207369676e6174757265202773272076616c604482015261756560f01b6064820152608490fd5b9291906fa2a8918ca85bafe22016d0b997e4df60600160ff1b038311613d065791608094939160ff602094604051948552168484015260408301526060820152600093849182805260015afa156118765781516001600160a01b03811615613d00579190565b50600190565b50505050600090600390565b60001981146132995760010190565b7fe50de2333c10a9502fcb1d8ae13a51bbf423153dfc63c2b8997665b32154afc360018060a01b038092169160009083825260036020526040822094169384825260205284604082205580a4565b909160207f8c5be1e5ebec7d5bd14f71427d1e84f3dd0314c0f7b2291e5b200ac8c7c3b9259160018060a01b03809416938460005260028352604060002095169485600052825280604060002055604051908152a3565b60405190613dd382613143565b60006040838281528260208201520152565b60405190613df28261315e565b6014546001600160801b038116835260801c6020830152565b60405190613e188261315e565b6025546001600160801b038116835260801c6020830152565b6001600160801b03918216908216019190821161329957565b613e52613dc6565b5060006020604051613e638161315e565b828152015260006020604051613e788161315e565b828152015260405190613e8a82613143565b602454916001600160401b038316815260208101926001600160401b038160401c16845260801c60408201528092613ec0613de5565b92613ec9613e0b565b92600060018060a01b0360095416600e549460018060801b038751166040519063442c159960e01b8252876004830152602482015260006044820152602081606481865afa8015610c5b576000906142d6575b8951613f3292506001600160801b0316906132ea565b806142a1575060005b613f506001600160401b0382935116426132dd565b948515614277575050426001600160401b031660208a8101919091528801516001600160801b03161561422d57506020670de0b6b3a7640000613fb285613fad8c6001600160401b038d60018060801b0390511691511690613286565b613286565b895191900496906001600160801b0390613fd190828a16908316613e31565b168952875160405163442c159960e01b815260048101929092526001600160801b031660248201526000604482015291829060649082905afa8015610c5b576000906141f9575b875161402e92506001600160801b0316906132ea565b9261405c846137a8620186a0614046601a548a613286565b60208c01516001600160801b0316919004613286565b6040890180519195916001600160801b03808816929161407f9084908316613e31565b16905260208801805190916001600160801b039161409f91908316613e31565b169052806141c4575060005b602a549093848281101561413f576140c390836132dd565b90670de0b6b3a7640000820291808304670de0b6b3a76400001490151715613299576137a86141176141116141036001600160401b0396614121966132af565b93613fad602e549580613286565b836132ea565b91848d5116613286565b168089526001600160401b03602d541680911061413b5750565b8852565b909150602b5480821161415157505050565b61415a916132dd565b670de0b6b3a7640000810290808204670de0b6b3a76400001490151715613299576001600160401b03916137a861419d6141116141036141a695602c54906132af565b848d5116613286565b81602d5460401c168082116141bc575b50168852565b9050386141b6565b87516001600160801b0316670de0b6b3a7640000818102929180840490911490151715613299576141f4916132af565b6140ab565b506020813d602011614225575b81614213602093836131b0565b81010312610a5f5761402e9051614018565b3d9150614206565b9697939450509350506001600160401b038151166001600160401b03602f541680910361426b575b509392614260613e0b565b926000926000929190565b81526001925038614255565b97509850505050509250509161428b613de5565b91614294613e0b565b9160009160009190600090565b88516001600160801b0316670de0b6b3a7640000818102929180840490911490151715613299576142d1916132af565b613f3b565b506020813d602011614302575b816142f0602093836131b0565b81010312610a5f57613f329051613f1c565b3d91506142e3565b601480546001600160801b031660809290921b6001600160801b031916919091179055565b6144166020806143ec614340613e4a565b9396959390929015614418575050506001600160401b03602f54166000807f33af5ce86e8438eff54589f85332916444457dfa8685493fbd579b809097026b88604051838152a45b805185820151604092830151921b67ffffffffffffffff60401b166001600160401b03919091161760809190911b6001600160801b0319908116919091176024558151601480549092166001600160801b039182161790915594859101511661430a565b8051910151821660801b6001600160801b0319166001600160801b03929091169190911617602555565b565b7f33af5ce86e8438eff54589f85332916444457dfa8685493fbd579b809097026b886001600160401b0386511694604051908152a4614388565b1561445957565b60405162461bcd60e51b815260206004820152600e60248201526d13585c9ad95d0e881c185d5cd95960921b6044820152606490fd5b1561449657565b60405162461bcd60e51b815260206004820152601160248201527013585c9ad95d0e881a5b9cdbdb1d995b9d607a1b6044820152606490fd5b156144d657565b606460405162461bcd60e51b815260206004820152602060248201527f4d61726b65743a2063616e6e6f742065786563757465206f6e20697473656c666044820152fd5b3561ffff81168103610a5f5790565b1561453057565b60405162461bcd60e51b815260206004820152601460248201527329a3a61d1024b73b30b634b21039bbb0b83832b960611b6044820152606490fd5b9190826040910312610a5f576020825192015190565b9081526001600160a01b0391821660208201529116604082015260006060820152608081019190915260a00190565b9035601e1982360301811215610a5f5701602081359101916001600160401b038211610a5f578136038313610a5f57565b908060209392818452848401376000828201840152601f01601f1916010190565b3d1561462e573d90614614826131d1565b9161462260405193846131b0565b82523d6000602084013e565b606090565b60008091604051602081019063313ce56760e01b8252600481526146568161315e565b51916001600160a01b03165afa61466b614603565b9080614696575b1561469057602081805181010312610a5f5760206137ad9101613b8d565b50601290565b506020815114614672565b919060018060a01b0380600094168452602060178152604085205490811561478f57601881526040862054801561478857816146db613de5565b9460095416916064600c54604051948593849263442c159960e01b8452600484015260248301528b60448301525afa968715611843578097614752575b505061349761473761379f61474d969798620186a06022540490613286565b95613fad60018060801b03948587511690613286565b111590565b9096508187813d8311614781575b61476a81836131b0565b810103126103345750945194613497614737614718565b503d614760565b5050505050565b5060019450505050565b91821580156147d4575b6134155760018101809111613299576147c2926133896137a8926132cf565b6005810180911161329957600a900490565b5081156147a3565b6001600160a01b03163381036147f0575050565b60008181526020906003825260409182822033835281528483832054106148595783825260038152828220338352815282822054600101614832575050505050565b61484d938252600381528282209033835252209182546132dd565b90553880808080614788565b60649083519062461bcd60e51b82526004820152601460248201527313585c9ad95d0e881b9bdd08185c1c1c9bdd995960621b6044820152fd5b600a5460405163dbd01de160e01b815260209290916001600160a01b039084908490600490829085165afa8015610c5b578493600091614942575b50918161ffff936044936040519889968795633a304d8b60e21b8752166004860152166024840152165afa908115610c5b5760009161490e575b50905090565b82813d831161493b575b61492281836131b0565b810103126103345750614934906134d1565b8038614908565b503d614918565b9091929381813d8311614979575b61495a81836131b0565b81010312610a50575190828216820361033457508392919060446148ce565b503d614950565b6001600160a01b039182168152911660208201526040810191909152606081019190915260800190565b6001600160801b03918216908216039190821161329957565b929060208093620186a06149d8835483613286565b04926149e2613de5565b966149ed85846132ea565b60409586516149fb8161315e565b6000808252960186905289516001600160801b0392908316614cd45782614a298c8280855b16915116613e31565b168b52614a6d8a8c0184614a4281851682845116613e31565b16809152614a6885849e511660018060801b031660018060801b03196014541617601455565b61430a565b6016548015908115614cc5575b5015614c8757859060018060a01b0380951680895260178c52898920614aa18382546132ea565b90558951918483528c8301527f3a5151e57d3bc9798e7853034ac52293d1a0e12a2b44725e75b03b21f86477a68a87891693a480614c66575b50878260095416946064600e5489519788938492638eb22cdd60e01b8452600484015260248301528960448301525afa938415614c5c578594614c2d575b508397614b23613e0b565b818101916103e88484511610614bf9575090614b73839283614b4d614b9a968a16828451166149aa565b1690819052602580546001600160801b0319166001600160801b03909216919091179055565b51602580546001600160801b03169290911660801b6001600160801b031916919091179055565b6009541690600e5490823b15610a64579184939184879694614bd2985198899586948593630208d92960e11b85523060048601614980565b03925af1918215614bef575050614be65750565b6144169061311a565b51903d90823e3d90fd5b60649089519062461bcd60e51b82526004820152600e60248201526d14d1d30e881b5a5b881b1a5b5a5d60921b6044820152fd5b9093508781813d8311614c55575b614c4581836131b0565b81010312610a6457519238614b18565b503d614c3b565b86513d87823e3d90fd5b82600a5416865260018952614c7f8787209182546132ea565b905538614ada565b875162461bcd60e51b8152600481018b9052601760248201527614d1d30e88189bdc9c9bddc818d85c081c995858da1959604a1b6044820152606490fd5b90508360145416111538614a7a565b828b8b81019280614d07614cf8614cee8688511684613286565b86865116906132af565b95856118008187511689613286565b10614d19575b908280614a2993614a20565b92908280614d29614a2994613d12565b959293505050614d0d565b90816020910312610a5f575161ffff81168103610a5f5790565b809103906101408212610a5f576040805192614d6984613143565b60808112610a5f578151614d7c81613179565b614d8584613b79565b815260208401516020820152614d9c838501613b79565b838201526060840151606082015284526080607f19820112610a5f5781908151614dc581613179565b6080850151815260a0850151602082015260c08501518382015260e08501516060820152602086015260ff190112610a5f57614e1e610120825193614e098561315e565b614e1661010082016134d1565b8552016134d1565b602083015282015290565b91926137ad959360206040845194606060018060a01b039687815116895284810151858a0152878482015116848a015201516060880152606083820151805160808a01528481015160a08a01528381015160c08a0152015160e088015201518051151561010087015201511515610120850152610140840152166101608201526101a0908161018082015201916145e2565b15614ec257565b60405162461bcd60e51b815260206004820152600f60248201526e0a68e987440dcdee840cadcdeeaced608b1b6044820152606490fd5b60208101805190939291906001600160801b03908116614f1a575090925050565b908161180081614f3d614f33614f469686511688613286565b828a5116906132af565b97511687613286565b10614f4d57565b906137ad90613d12565b92919060009160018060a01b0394858316845260206017815260408520548084116151ed575b5082156151b157614f8c613de5565b968582604051614f9b8161315e565b8281520152614faa8489614ef9565b9560018060801b039384614fc3818a16828d51166149aa565b168a52615002848b0186614fdc818a16828451166149aa565b16809152614a68878b9d511660018060801b031660018060801b03196014541617601455565b8287168252601784526040822061501a8782546132dd565b90558260095416600e549560405190638eb22cdd60e01b82528760048301528a6024830152600160448301528682606481865afa91821561192d578592615182575b5080602554169492803b15610a5f57826000916150929a83604051809d81958294630208d92960e11b8452308d60048601614980565b03925af1948515610c5b577fc8e512d8f188ca059984b5853d2bf653da902696b8512785b182b2c813789a6e98879661516c575b506150d49082841690613e31565b1660018060801b031960255416176025558383169081835260268752604083206027549081855288526040842054821160001461514557505081526026855260408120602754825285528060408120555b1561513f57508060095416955b60405195865216941692a4565b95615132565b9091835260268752604083209083528652615165604083209182546132dd565b9055615125565b61517791945061311a565b6000926150d46150c6565b9091508681813d83116151aa575b61519a81836131b0565b81010312610a645751903861505c565b503d615190565b6064906040519062461bcd60e51b82526004820152601560248201527453474c3a206e6f7468696e6720746f20726570617960581b6044820152fd5b925038614f7d565b604051906152028261315e565b60038252623f3f3f60e81b6020830152565b908151811015615225570160200190565b634e487b7160e01b600052603260045260246000fd5b60ff1660ff81146132995760010190565b8051604081106152c457508051810190602081818401930312610a5f576020810151906001600160401b038211610a5f570181603f82011215610a5f576020810151615297816131d1565b926152a560405194856131b0565b81845260408284010111610a5f576137ad916040602085019101612fcf565b6020929083036153b2576000805b60ff81168581109081615393575b50156152f4576152ef9061523b565b6152d2565b9260ff80941692615304846131d1565b9361531260405195866131b0565b808552615321601f19916131d1565b013687860137825b85811687811080615376575b1561536b5761536691906153606001600160f81b03196153558388615214565b5116871a9188615214565b5361523b565b615329565b505094505050905090565b506001600160f81b031961538a8286615214565b51161515615335565b6001600160f81b031991506153a89086615214565b51161515386152e0565b9150506137ad6151f556fe9ed03113de523cebfe5e49d5f8e12894b1c0d42ce805990461726444c90eab87ddf252ad1be2c89b69c2b068fc378daa952ba7f163c4a11628f55a4df523b3efa26469706673582212201e7baeb51d167f3c84cae7731ceaa035d017da0afd2b45d9d315b493b5f2515064736f6c63430008120033",
  "linkReferences": {},
  "deployedLinkReferences": {}
}