{
  "_format": "hh-sol-artifact-1",
  "contractName": "SGLLiquidation",
  "sourceName": "contracts/markets/singularity/SGLLiquidation.sol",
  "abi": [
    {
      "inputs": [
        {
          "internalType": "address",
          "name": "_from",
          "type": "address"
        },
        {
          "internalType": "address",
          "name": "_operator",
          "type": "address"
        }
      ],
      "name": "NotApproved",
      "type": "error"
    },
    {
      "anonymous": false,
      "inputs": [
        {
          "indexed": true,
          "internalType": "address",
          "name": "owner",
          "type": "address"
        },
        {
          "indexed": true,
          "internalType": "address",
          "name": "spender",
          "type": "address"
        },
        {
          "indexed": false,
          "internalType": "uint256",
          "name": "value",
          "type": "uint256"
        }
      ],
      "name": "Approval",
      "type": "event"
    },
    {
      "anonymous": false,
      "inputs": [
        {
          "indexed": true,
          "internalType": "address",
          "name": "owner",
          "type": "address"
        },
        {
          "indexed": true,
          "internalType": "address",
          "name": "spender",
          "type": "address"
        },
        {
          "indexed": false,
          "internalType": "uint256",
          "name": "value",
          "type": "uint256"
        }
      ],
      "name": "ApprovalBorrow",
      "type": "event"
    },
    {
      "anonymous": false,
      "inputs": [
        {
          "indexed": true,
          "internalType": "address",
          "name": "old",
          "type": "address"
        },
        {
          "indexed": true,
          "internalType": "address",
          "name": "_new",
          "type": "address"
        }
      ],
      "name": "ConservatorUpdated",
      "type": "event"
    },
    {
      "anonymous": false,
      "inputs": [
        {
          "indexed": false,
          "internalType": "address",
          "name": "liquidator",
          "type": "address"
        },
        {
          "indexed": false,
          "internalType": "address[]",
          "name": "users",
          "type": "address[]"
        },
        {
          "indexed": false,
          "internalType": "uint256",
          "name": "liquidatorReward",
          "type": "uint256"
        },
        {
          "indexed": false,
          "internalType": "uint256",
          "name": "protocolReward",
          "type": "uint256"
        },
        {
          "indexed": false,
          "internalType": "uint256",
          "name": "repayedAmount",
          "type": "uint256"
        },
        {
          "indexed": false,
          "internalType": "uint256",
          "name": "collateralShareRemoved",
          "type": "uint256"
        }
      ],
      "name": "Liquidated",
      "type": "event"
    },
    {
      "anonymous": false,
      "inputs": [
        {
          "indexed": false,
          "internalType": "uint256",
          "name": "accruedAmount",
          "type": "uint256"
        },
        {
          "indexed": false,
          "internalType": "uint256",
          "name": "feeFraction",
          "type": "uint256"
        },
        {
          "indexed": false,
          "internalType": "uint64",
          "name": "rate",
          "type": "uint64"
        },
        {
          "indexed": false,
          "internalType": "uint256",
          "name": "utilization",
          "type": "uint256"
        }
      ],
      "name": "LogAccrue",
      "type": "event"
    },
    {
      "anonymous": false,
      "inputs": [
        {
          "indexed": true,
          "internalType": "address",
          "name": "from",
          "type": "address"
        },
        {
          "indexed": true,
          "internalType": "address",
          "name": "to",
          "type": "address"
        },
        {
          "indexed": false,
          "internalType": "uint256",
          "name": "share",
          "type": "uint256"
        },
        {
          "indexed": false,
          "internalType": "uint256",
          "name": "fraction",
          "type": "uint256"
        }
      ],
      "name": "LogAddAsset",
      "type": "event"
    },
    {
      "anonymous": false,
      "inputs": [
        {
          "indexed": true,
          "internalType": "address",
          "name": "from",
          "type": "address"
        },
        {
          "indexed": true,
          "internalType": "address",
          "name": "to",
          "type": "address"
        },
        {
          "indexed": false,
          "internalType": "uint256",
          "name": "share",
          "type": "uint256"
        }
      ],
      "name": "LogAddCollateral",
      "type": "event"
    },
    {
      "anonymous": false,
      "inputs": [
        {
          "indexed": true,
          "internalType": "address",
          "name": "from",
          "type": "address"
        },
        {
          "indexed": true,
          "internalType": "address",
          "name": "to",
          "type": "address"
        },
        {
          "indexed": false,
          "internalType": "uint256",
          "name": "amount",
          "type": "uint256"
        },
        {
          "indexed": false,
          "internalType": "uint256",
          "name": "feeAmount",
          "type": "uint256"
        },
        {
          "indexed": false,
          "internalType": "uint256",
          "name": "part",
          "type": "uint256"
        }
      ],
      "name": "LogBorrow",
      "type": "event"
    },
    {
      "anonymous": false,
      "inputs": [
        {
          "indexed": false,
          "internalType": "uint256",
          "name": "_oldVal",
          "type": "uint256"
        },
        {
          "indexed": false,
          "internalType": "uint256",
          "name": "_newVal",
          "type": "uint256"
        }
      ],
      "name": "LogBorrowCapUpdated",
      "type": "event"
    },
    {
      "anonymous": false,
      "inputs": [
        {
          "indexed": false,
          "internalType": "uint256",
          "name": "_oldVal",
          "type": "uint256"
        },
        {
          "indexed": false,
          "internalType": "uint256",
          "name": "_newVal",
          "type": "uint256"
        }
      ],
      "name": "LogBorrowingFee",
      "type": "event"
    },
    {
      "anonymous": false,
      "inputs": [
        {
          "indexed": false,
          "internalType": "uint256",
          "name": "rate",
          "type": "uint256"
        }
      ],
      "name": "LogExchangeRate",
      "type": "event"
    },
    {
      "anonymous": false,
      "inputs": [
        {
          "indexed": true,
          "internalType": "address",
          "name": "from",
          "type": "address"
        },
        {
          "indexed": true,
          "internalType": "address",
          "name": "to",
          "type": "address"
        },
        {
          "indexed": false,
          "internalType": "uint256",
          "name": "share",
          "type": "uint256"
        },
        {
          "indexed": false,
          "internalType": "uint256",
          "name": "fraction",
          "type": "uint256"
        }
      ],
      "name": "LogRemoveAsset",
      "type": "event"
    },
    {
      "anonymous": false,
      "inputs": [
        {
          "indexed": true,
          "internalType": "address",
          "name": "from",
          "type": "address"
        },
        {
          "indexed": true,
          "internalType": "address",
          "name": "to",
          "type": "address"
        },
        {
          "indexed": false,
          "internalType": "uint256",
          "name": "share",
          "type": "uint256"
        }
      ],
      "name": "LogRemoveCollateral",
      "type": "event"
    },
    {
      "anonymous": false,
      "inputs": [
        {
          "indexed": true,
          "internalType": "address",
          "name": "from",
          "type": "address"
        },
        {
          "indexed": true,
          "internalType": "address",
          "name": "to",
          "type": "address"
        },
        {
          "indexed": false,
          "internalType": "uint256",
          "name": "amount",
          "type": "uint256"
        },
        {
          "indexed": false,
          "internalType": "uint256",
          "name": "part",
          "type": "uint256"
        }
      ],
      "name": "LogRepay",
      "type": "event"
    },
    {
      "anonymous": false,
      "inputs": [
        {
          "indexed": true,
          "internalType": "address",
          "name": "feeTo",
          "type": "address"
        },
        {
          "indexed": false,
          "internalType": "uint256",
          "name": "feesEarnedFraction",
          "type": "uint256"
        }
      ],
      "name": "LogWithdrawFees",
      "type": "event"
    },
    {
      "anonymous": false,
      "inputs": [
        {
          "indexed": false,
          "internalType": "uint256",
          "name": "feeShares",
          "type": "uint256"
        },
        {
          "indexed": false,
          "internalType": "uint256",
          "name": "ethAmount",
          "type": "uint256"
        }
      ],
      "name": "LogYieldBoxFeesDeposit",
      "type": "event"
    },
    {
      "anonymous": false,
      "inputs": [],
      "name": "OracleDataUpdated",
      "type": "event"
    },
    {
      "anonymous": false,
      "inputs": [],
      "name": "OracleUpdated",
      "type": "event"
    },
    {
      "anonymous": false,
      "inputs": [
        {
          "indexed": true,
          "internalType": "address",
          "name": "previousOwner",
          "type": "address"
        },
        {
          "indexed": true,
          "internalType": "address",
          "name": "newOwner",
          "type": "address"
        }
      ],
      "name": "OwnershipTransferred",
      "type": "event"
    },
    {
      "anonymous": false,
      "inputs": [
        {
          "indexed": false,
          "internalType": "bool",
          "name": "oldState",
          "type": "bool"
        },
        {
          "indexed": false,
          "internalType": "bool",
          "name": "newState",
          "type": "bool"
        }
      ],
      "name": "PausedUpdated",
      "type": "event"
    },
    {
      "anonymous": false,
      "inputs": [
        {
          "indexed": true,
          "internalType": "address",
          "name": "from",
          "type": "address"
        },
        {
          "indexed": true,
          "internalType": "address",
          "name": "to",
          "type": "address"
        },
        {
          "indexed": false,
          "internalType": "uint256",
          "name": "value",
          "type": "uint256"
        }
      ],
      "name": "Transfer",
      "type": "event"
    },
    {
      "inputs": [],
      "name": "DOMAIN_SEPARATOR",
      "outputs": [
        {
          "internalType": "bytes32",
          "name": "",
          "type": "bytes32"
        }
      ],
      "stateMutability": "view",
      "type": "function"
    },
    {
      "inputs": [],
      "name": "accrue",
      "outputs": [],
      "stateMutability": "nonpayable",
      "type": "function"
    },
    {
      "inputs": [],
      "name": "accrueInfo",
      "outputs": [
        {
          "internalType": "uint64",
          "name": "interestPerSecond",
          "type": "uint64"
        },
        {
          "internalType": "uint64",
          "name": "lastAccrued",
          "type": "uint64"
        },
        {
          "internalType": "uint128",
          "name": "feesEarnedFraction",
          "type": "uint128"
        }
      ],
      "stateMutability": "view",
      "type": "function"
    },
    {
      "inputs": [
        {
          "internalType": "address",
          "name": "",
          "type": "address"
        },
        {
          "internalType": "address",
          "name": "",
          "type": "address"
        }
      ],
      "name": "allowance",
      "outputs": [
        {
          "internalType": "uint256",
          "name": "",
          "type": "uint256"
        }
      ],
      "stateMutability": "view",
      "type": "function"
    },
    {
      "inputs": [
        {
          "internalType": "address",
          "name": "",
          "type": "address"
        },
        {
          "internalType": "address",
          "name": "",
          "type": "address"
        }
      ],
      "name": "allowanceBorrow",
      "outputs": [
        {
          "internalType": "uint256",
          "name": "",
          "type": "uint256"
        }
      ],
      "stateMutability": "view",
      "type": "function"
    },
    {
      "inputs": [
        {
          "internalType": "address",
          "name": "spender",
          "type": "address"
        },
        {
          "internalType": "uint256",
          "name": "amount",
          "type": "uint256"
        }
      ],
      "name": "approve",
      "outputs": [
        {
          "internalType": "bool",
          "name": "",
          "type": "bool"
        }
      ],
      "stateMutability": "nonpayable",
      "type": "function"
    },
    {
      "inputs": [
        {
          "internalType": "address",
          "name": "spender",
          "type": "address"
        },
        {
          "internalType": "uint256",
          "name": "amount",
          "type": "uint256"
        }
      ],
      "name": "approveBorrow",
      "outputs": [
        {
          "internalType": "bool",
          "name": "",
          "type": "bool"
        }
      ],
      "stateMutability": "nonpayable",
      "type": "function"
    },
    {
      "inputs": [],
      "name": "asset",
      "outputs": [
        {
          "internalType": "contract IERC20",
          "name": "",
          "type": "address"
        }
      ],
      "stateMutability": "view",
      "type": "function"
    },
    {
      "inputs": [],
      "name": "assetId",
      "outputs": [
        {
          "internalType": "uint256",
          "name": "",
          "type": "uint256"
        }
      ],
      "stateMutability": "view",
      "type": "function"
    },
    {
      "inputs": [
        {
          "internalType": "address",
          "name": "",
          "type": "address"
        }
      ],
      "name": "balanceOf",
      "outputs": [
        {
          "internalType": "uint256",
          "name": "",
          "type": "uint256"
        }
      ],
      "stateMutability": "view",
      "type": "function"
    },
    {
      "inputs": [],
      "name": "borrowOpeningFee",
      "outputs": [
        {
          "internalType": "uint256",
          "name": "",
          "type": "uint256"
        }
      ],
      "stateMutability": "view",
      "type": "function"
    },
    {
      "inputs": [],
      "name": "callerFee",
      "outputs": [
        {
          "internalType": "uint256",
          "name": "",
          "type": "uint256"
        }
      ],
      "stateMutability": "view",
      "type": "function"
    },
    {
      "inputs": [],
      "name": "claimOwnership",
      "outputs": [],
      "stateMutability": "nonpayable",
      "type": "function"
    },
    {
      "inputs": [],
      "name": "collateral",
      "outputs": [
        {
          "internalType": "contract IERC20",
          "name": "",
          "type": "address"
        }
      ],
      "stateMutability": "view",
      "type": "function"
    },
    {
      "inputs": [],
      "name": "collateralId",
      "outputs": [
        {
          "internalType": "uint256",
          "name": "",
          "type": "uint256"
        }
      ],
      "stateMutability": "view",
      "type": "function"
    },
    {
      "inputs": [],
      "name": "collateralizationRate",
      "outputs": [
        {
          "internalType": "uint256",
          "name": "",
          "type": "uint256"
        }
      ],
      "stateMutability": "view",
      "type": "function"
    },
    {
      "inputs": [
        {
          "internalType": "address",
          "name": "user",
          "type": "address"
        },
        {
          "internalType": "uint256",
          "name": "_exchangeRate",
          "type": "uint256"
        }
      ],
      "name": "computeClosingFactor",
      "outputs": [
        {
          "internalType": "uint256",
          "name": "",
          "type": "uint256"
        }
      ],
      "stateMutability": "view",
      "type": "function"
    },
    {
      "inputs": [
        {
          "internalType": "address",
          "name": "user",
          "type": "address"
        },
        {
          "internalType": "uint256",
          "name": "_exchangeRate",
          "type": "uint256"
        }
      ],
      "name": "computeLiquidatorReward",
      "outputs": [
        {
          "internalType": "uint256",
          "name": "",
          "type": "uint256"
        }
      ],
      "stateMutability": "view",
      "type": "function"
    },
    {
      "inputs": [
        {
          "internalType": "address",
          "name": "user",
          "type": "address"
        },
        {
          "internalType": "uint256",
          "name": "_exchangeRate",
          "type": "uint256"
        }
      ],
      "name": "computeTVLInfo",
      "outputs": [
        {
          "internalType": "uint256",
          "name": "amountToSolvency",
          "type": "uint256"
        },
        {
          "internalType": "uint256",
          "name": "minTVL",
          "type": "uint256"
        },
        {
          "internalType": "uint256",
          "name": "maxTVL",
          "type": "uint256"
        }
      ],
      "stateMutability": "view",
      "type": "function"
    },
    {
      "inputs": [],
      "name": "conservator",
      "outputs": [
        {
          "internalType": "address",
          "name": "",
          "type": "address"
        }
      ],
      "stateMutability": "view",
      "type": "function"
    },
    {
      "inputs": [],
      "name": "decimals",
      "outputs": [
        {
          "internalType": "uint8",
          "name": "",
          "type": "uint8"
        }
      ],
      "stateMutability": "view",
      "type": "function"
    },
    {
      "inputs": [],
      "name": "exchangeRate",
      "outputs": [
        {
          "internalType": "uint256",
          "name": "",
          "type": "uint256"
        }
      ],
      "stateMutability": "view",
      "type": "function"
    },
    {
      "inputs": [],
      "name": "getInterestRate",
      "outputs": [
        {
          "components": [
            {
              "internalType": "uint64",
              "name": "interestPerSecond",
              "type": "uint64"
            },
            {
              "internalType": "uint64",
              "name": "lastAccrued",
              "type": "uint64"
            },
            {
              "internalType": "uint128",
              "name": "feesEarnedFraction",
              "type": "uint128"
            }
          ],
          "internalType": "struct ISingularity.AccrueInfo",
          "name": "_accrueInfo",
          "type": "tuple"
        },
        {
          "internalType": "uint256",
          "name": "utilization",
          "type": "uint256"
        }
      ],
      "stateMutability": "view",
      "type": "function"
    },
    {
      "inputs": [
        {
          "internalType": "address[]",
          "name": "users",
          "type": "address[]"
        },
        {
          "internalType": "uint256[]",
          "name": "maxBorrowParts",
          "type": "uint256[]"
        },
        {
          "internalType": "contract ISwapper",
          "name": "swapper",
          "type": "address"
        },
        {
          "internalType": "bytes",
          "name": "collateralToAssetSwapData",
          "type": "bytes"
        },
        {
          "internalType": "bytes",
          "name": "usdoToBorrowedSwapData",
          "type": "bytes"
        }
      ],
      "name": "liquidate",
      "outputs": [],
      "stateMutability": "nonpayable",
      "type": "function"
    },
    {
      "inputs": [],
      "name": "liquidationBonusAmount",
      "outputs": [
        {
          "internalType": "uint256",
          "name": "",
          "type": "uint256"
        }
      ],
      "stateMutability": "view",
      "type": "function"
    },
    {
      "inputs": [],
      "name": "liquidationMultiplier",
      "outputs": [
        {
          "internalType": "uint256",
          "name": "",
          "type": "uint256"
        }
      ],
      "stateMutability": "view",
      "type": "function"
    },
    {
      "inputs": [],
      "name": "liquidationQueue",
      "outputs": [
        {
          "internalType": "contract ILiquidationQueue",
          "name": "",
          "type": "address"
        }
      ],
      "stateMutability": "view",
      "type": "function"
    },
    {
      "inputs": [],
      "name": "lqCollateralizationRate",
      "outputs": [
        {
          "internalType": "uint256",
          "name": "",
          "type": "uint256"
        }
      ],
      "stateMutability": "view",
      "type": "function"
    },
    {
      "inputs": [],
      "name": "maxLiquidatorReward",
      "outputs": [
        {
          "internalType": "uint256",
          "name": "",
          "type": "uint256"
        }
      ],
      "stateMutability": "view",
      "type": "function"
    },
    {
      "inputs": [],
      "name": "minLiquidatorReward",
      "outputs": [
        {
          "internalType": "uint256",
          "name": "",
          "type": "uint256"
        }
      ],
      "stateMutability": "view",
      "type": "function"
    },
    {
      "inputs": [],
      "name": "name",
      "outputs": [
        {
          "internalType": "string",
          "name": "",
          "type": "string"
        }
      ],
      "stateMutability": "view",
      "type": "function"
    },
    {
      "inputs": [
        {
          "internalType": "address",
          "name": "owner",
          "type": "address"
        }
      ],
      "name": "nonces",
      "outputs": [
        {
          "internalType": "uint256",
          "name": "",
          "type": "uint256"
        }
      ],
      "stateMutability": "view",
      "type": "function"
    },
    {
      "inputs": [],
      "name": "oracle",
      "outputs": [
        {
          "internalType": "contract IOracle",
          "name": "",
          "type": "address"
        }
      ],
      "stateMutability": "view",
      "type": "function"
    },
    {
      "inputs": [],
      "name": "oracleData",
      "outputs": [
        {
          "internalType": "bytes",
          "name": "",
          "type": "bytes"
        }
      ],
      "stateMutability": "view",
      "type": "function"
    },
    {
      "inputs": [],
      "name": "orderBookLiquidationMultiplier",
      "outputs": [
        {
          "internalType": "uint256",
          "name": "",
          "type": "uint256"
        }
      ],
      "stateMutability": "view",
      "type": "function"
    },
    {
      "inputs": [],
      "name": "owner",
      "outputs": [
        {
          "internalType": "address",
          "name": "",
          "type": "address"
        }
      ],
      "stateMutability": "view",
      "type": "function"
    },
    {
      "inputs": [],
      "name": "paused",
      "outputs": [
        {
          "internalType": "bool",
          "name": "",
          "type": "bool"
        }
      ],
      "stateMutability": "view",
      "type": "function"
    },
    {
      "inputs": [],
      "name": "pendingOwner",
      "outputs": [
        {
          "internalType": "address",
          "name": "",
          "type": "address"
        }
      ],
      "stateMutability": "view",
      "type": "function"
    },
    {
      "inputs": [],
      "name": "penrose",
      "outputs": [
        {
          "internalType": "contract IPenrose",
          "name": "",
          "type": "address"
        }
      ],
      "stateMutability": "view",
      "type": "function"
    },
    {
      "inputs": [
        {
          "internalType": "address",
          "name": "owner",
          "type": "address"
        },
        {
          "internalType": "address",
          "name": "spender",
          "type": "address"
        },
        {
          "internalType": "uint256",
          "name": "value",
          "type": "uint256"
        },
        {
          "internalType": "uint256",
          "name": "deadline",
          "type": "uint256"
        },
        {
          "internalType": "uint8",
          "name": "v",
          "type": "uint8"
        },
        {
          "internalType": "bytes32",
          "name": "r",
          "type": "bytes32"
        },
        {
          "internalType": "bytes32",
          "name": "s",
          "type": "bytes32"
        }
      ],
      "name": "permit",
      "outputs": [],
      "stateMutability": "nonpayable",
      "type": "function"
    },
    {
      "inputs": [
        {
          "internalType": "address",
          "name": "owner",
          "type": "address"
        },
        {
          "internalType": "address",
          "name": "spender",
          "type": "address"
        },
        {
          "internalType": "uint256",
          "name": "value",
          "type": "uint256"
        },
        {
          "internalType": "uint256",
          "name": "deadline",
          "type": "uint256"
        },
        {
          "internalType": "uint8",
          "name": "v",
          "type": "uint8"
        },
        {
          "internalType": "bytes32",
          "name": "r",
          "type": "bytes32"
        },
        {
          "internalType": "bytes32",
          "name": "s",
          "type": "bytes32"
        }
      ],
      "name": "permitBorrow",
      "outputs": [],
      "stateMutability": "nonpayable",
      "type": "function"
    },
    {
      "inputs": [],
      "name": "protocolFee",
      "outputs": [
        {
          "internalType": "uint256",
          "name": "",
          "type": "uint256"
        }
      ],
      "stateMutability": "view",
      "type": "function"
    },
    {
      "inputs": [
        {
          "internalType": "uint256",
          "name": "_cap",
          "type": "uint256"
        }
      ],
      "name": "setBorrowCap",
      "outputs": [],
      "stateMutability": "nonpayable",
      "type": "function"
    },
    {
      "inputs": [
        {
          "internalType": "uint256",
          "name": "_val",
          "type": "uint256"
        }
      ],
      "name": "setBorrowOpeningFee",
      "outputs": [],
      "stateMutability": "nonpayable",
      "type": "function"
    },
    {
      "inputs": [
        {
          "internalType": "uint256",
          "name": "_val",
          "type": "uint256"
        }
      ],
      "name": "setCallerFee",
      "outputs": [],
      "stateMutability": "nonpayable",
      "type": "function"
    },
    {
      "inputs": [
        {
          "internalType": "uint256",
          "name": "_val",
          "type": "uint256"
        }
      ],
      "name": "setCollateralizationRate",
      "outputs": [],
      "stateMutability": "nonpayable",
      "type": "function"
    },
    {
      "inputs": [
        {
          "internalType": "address",
          "name": "_conservator",
          "type": "address"
        }
      ],
      "name": "setConservator",
      "outputs": [],
      "stateMutability": "nonpayable",
      "type": "function"
    },
    {
      "inputs": [
        {
          "internalType": "uint256",
          "name": "_val",
          "type": "uint256"
        }
      ],
      "name": "setLiquidationBonusAmount",
      "outputs": [],
      "stateMutability": "nonpayable",
      "type": "function"
    },
    {
      "inputs": [
        {
          "internalType": "uint256",
          "name": "_val",
          "type": "uint256"
        }
      ],
      "name": "setMaxLiquidatorReward",
      "outputs": [],
      "stateMutability": "nonpayable",
      "type": "function"
    },
    {
      "inputs": [
        {
          "internalType": "uint256",
          "name": "_val",
          "type": "uint256"
        }
      ],
      "name": "setMinLiquidatorReward",
      "outputs": [],
      "stateMutability": "nonpayable",
      "type": "function"
    },
    {
      "inputs": [
        {
          "internalType": "contract IOracle",
          "name": "_oracle",
          "type": "address"
        }
      ],
      "name": "setOracle",
      "outputs": [],
      "stateMutability": "nonpayable",
      "type": "function"
    },
    {
      "inputs": [
        {
          "internalType": "bytes",
          "name": "_oracleData",
          "type": "bytes"
        }
      ],
      "name": "setOracleData",
      "outputs": [],
      "stateMutability": "nonpayable",
      "type": "function"
    },
    {
      "inputs": [
        {
          "internalType": "uint256",
          "name": "_val",
          "type": "uint256"
        }
      ],
      "name": "setProtocolFee",
      "outputs": [],
      "stateMutability": "nonpayable",
      "type": "function"
    },
    {
      "inputs": [],
      "name": "symbol",
      "outputs": [
        {
          "internalType": "string",
          "name": "",
          "type": "string"
        }
      ],
      "stateMutability": "view",
      "type": "function"
    },
    {
      "inputs": [],
      "name": "totalAsset",
      "outputs": [
        {
          "internalType": "uint128",
          "name": "elastic",
          "type": "uint128"
        },
        {
          "internalType": "uint128",
          "name": "base",
          "type": "uint128"
        }
      ],
      "stateMutability": "view",
      "type": "function"
    },
    {
      "inputs": [],
      "name": "totalBorrow",
      "outputs": [
        {
          "internalType": "uint128",
          "name": "elastic",
          "type": "uint128"
        },
        {
          "internalType": "uint128",
          "name": "base",
          "type": "uint128"
        }
      ],
      "stateMutability": "view",
      "type": "function"
    },
    {
      "inputs": [],
      "name": "totalBorrowCap",
      "outputs": [
        {
          "internalType": "uint256",
          "name": "",
          "type": "uint256"
        }
      ],
      "stateMutability": "view",
      "type": "function"
    },
    {
      "inputs": [],
      "name": "totalCollateralShare",
      "outputs": [
        {
          "internalType": "uint256",
          "name": "",
          "type": "uint256"
        }
      ],
      "stateMutability": "view",
      "type": "function"
    },
    {
      "inputs": [],
      "name": "totalSupply",
      "outputs": [
        {
          "internalType": "uint256",
          "name": "",
          "type": "uint256"
        }
      ],
      "stateMutability": "view",
      "type": "function"
    },
    {
      "inputs": [
        {
          "internalType": "address",
          "name": "to",
          "type": "address"
        },
        {
          "internalType": "uint256",
          "name": "amount",
          "type": "uint256"
        }
      ],
      "name": "transfer",
      "outputs": [
        {
          "internalType": "bool",
          "name": "",
          "type": "bool"
        }
      ],
      "stateMutability": "nonpayable",
      "type": "function"
    },
    {
      "inputs": [
        {
          "internalType": "address",
          "name": "from",
          "type": "address"
        },
        {
          "internalType": "address",
          "name": "to",
          "type": "address"
        },
        {
          "internalType": "uint256",
          "name": "amount",
          "type": "uint256"
        }
      ],
      "name": "transferFrom",
      "outputs": [
        {
          "internalType": "bool",
          "name": "",
          "type": "bool"
        }
      ],
      "stateMutability": "nonpayable",
      "type": "function"
    },
    {
      "inputs": [
        {
          "internalType": "address",
          "name": "newOwner",
          "type": "address"
        },
        {
          "internalType": "bool",
          "name": "direct",
          "type": "bool"
        },
        {
          "internalType": "bool",
          "name": "renounce",
          "type": "bool"
        }
      ],
      "name": "transferOwnership",
      "outputs": [],
      "stateMutability": "nonpayable",
      "type": "function"
    },
    {
      "inputs": [],
      "name": "updateExchangeRate",
      "outputs": [
        {
          "internalType": "bool",
          "name": "updated",
          "type": "bool"
        },
        {
          "internalType": "uint256",
          "name": "rate",
          "type": "uint256"
        }
      ],
      "stateMutability": "nonpayable",
      "type": "function"
    },
    {
      "inputs": [
        {
          "internalType": "bool",
          "name": "val",
          "type": "bool"
        }
      ],
      "name": "updatePause",
      "outputs": [],
      "stateMutability": "nonpayable",
      "type": "function"
    },
    {
      "inputs": [
        {
          "internalType": "address",
          "name": "",
          "type": "address"
        }
      ],
      "name": "userBorrowPart",
      "outputs": [
        {
          "internalType": "uint256",
          "name": "",
          "type": "uint256"
        }
      ],
      "stateMutability": "view",
      "type": "function"
    },
    {
      "inputs": [
        {
          "internalType": "address",
          "name": "",
          "type": "address"
        }
      ],
      "name": "userCollateralShare",
      "outputs": [
        {
          "internalType": "uint256",
          "name": "",
          "type": "uint256"
        }
      ],
      "stateMutability": "view",
      "type": "function"
    },
    {
      "inputs": [],
      "name": "yieldBox",
      "outputs": [
        {
          "internalType": "contract YieldBox",
          "name": "",
          "type": "address"
        }
      ],
      "stateMutability": "view",
      "type": "function"
    }
  ],
  "bytecode": "0x6101408060405234620001e9576200001781620001ee565b601381526001602082017f546170696f63612053696e67756c617269747900000000000000000000000000815260206040516200005481620001ee565b8381520192603160f81b845251902091208160e052610100918183524660a0526040519160208301907f8b73c3c69bb8fe3d512ecc4cf759cc79239f7b179b0ffacaa9a75d522b39400f92838352604085015260608401524660808401523060a084015260a0835260c083019280841060018060401b03851117620001d35760408490525190206080523060c052610120908152600580546001600160a01b0319163390811790915560007f8be0079c531659141344cd1fd0a4f28419497f9722a3daafe3b4186f6b6457e08180a36103e860185561271080601955601a556032601c557f0bd4060688a1800ae986e4840aebc924bb40b5bf44de4583df2257220b54b77c6023557f7d1dc38e60930664f8cbf495da6556ca091d2f92d6550877750c049864b182306024556201b5806025556201f0186026556161a86027556146f092836200020b8439608051836124e4015260a051836125ae015260c051836124ae015260e0518361253301525182612559015251816125100152f35b634e487b7160e01b600052604160045260246000fd5b600080fd5b604081019081106001600160401b03821117620001d35760405256fe60e060408181526004908136101561001657600080fd5b600092833560e01c908162a02a2014611aa45750806302ce728f14611a7b57806306fdde0314611955578063078dfbe714611858578063095ea7b31461182e57806318160ddd1461180d5780631c9e379b146117d55780631da8bf101461171b5780631e35078e146116dd5780631e7ce448146116be57806323b872dd146115215780632a685acd146114d757838163313ce567146114385750806334d441d0146114195780633644e515146113fc57806338d52e0f146113d35780633ba0b9a9146113b45780633edb1789146112f957806340626d8b146112da57806344de240a146112bb578063473e3ce71461129c57806348e4163e146112645780634d7f2a34146112455780634e71e0c8146111a45780635100b567146111345780635257b566146110d5578063529898f2146110b657806353aa7dcd1461107857806357935462146110595780635c975abb146110355780636c3d8b8f1461100c57806370a0823114610fd4578063717186d114610f6457806374645ff314610f26578063787dce3d14610ee85780637a4d973b14610e9e5780637adbf97314610e2d5780637dc0d1d014610e045780637ecebe0014610dce5780637fa0b84e14610d9d5780638285ef4014610d6a5780638c5d0ed314610d4b5780638da5cb5b14610d22578063959916dc14610d0357806395d89b4114610bd657806399a9702814610b855780639e15e89f14610b4a578063a9059cbb14610a6f578063a96be18e146108ea578063b0e21e8a146108cb578063b27c0e7414610891578063b6b113d814610861578063bb4cfe3b14610842578063c23ea21f14610819578063ce8849ed146107ec578063d272bd09146107af578063d505accf1461062d578063d8dfeb4514610604578063dd62ed3e146105bb578063de40657714610592578063e0996cb614610573578063e30c39781461054a578063eec0f42e1461052b578063f8974de014610431578063f8ba4cff14610412578063f9557ccb146103d75763fa74f0b51461030657600080fd5b346103d35760203660031901126103d35761031f611aea565b9060018060a01b039261033784600554163314611da0565b838316918215610394575050600d54928360081c167f5a62d22209e370e38eea92cfddcd228e656e6ec139243392a760a7769f5877fd8580a3610100600160a81b031990911660089190911b610100600160a81b031617600d5580f35b906020606492519162461bcd60e51b8352820152601960248201527813585c9ad95d0e881859191c995cdcc81b9bdd081d985b1a59603a1b6044820152fd5b8280fd5b83823461040e578160031936011261040e57602054905190819061040a90608081901c906001600160801b031683611d86565b0390f35b5080fd5b833461042e578060031936011261042e5761042b612db2565b80f35b80fd5b50346103d35760203660031901126103d35781359081151580920361052757600d5492600884901c6001600160a01b031633036104ee5760ff84161515908184146104b65750817f9c13c5f6c628c1c82eb2b3fd8714da5c2857dbd0ad8ab6b2074abcf81015d3969160ff949351908152836020820152a1169060ff191617600d5580f35b606490602084519162461bcd60e51b835282015260126024820152714d61726b65743a2073616d6520737461746560701b6044820152fd5b6020606492519162461bcd60e51b8352820152601460248201527313585c9ad95d0e881d5b985d5d1a1bdc9a5e995960621b6044820152fd5b8380fd5b83823461040e578160031936011261040e57602090600a549051908152f35b83823461040e578160031936011261040e5760065490516001600160a01b039091168152602090f35b83823461040e578160031936011261040e57602090601a549051908152f35b83823461040e578160031936011261040e5760075490516001600160a01b039091168152602090f35b83823461040e578060031936011261040e57806020926105d9611aea565b6105e1611b05565b6001600160a01b0391821683526002865283832091168252845220549051908152f35b83823461040e578160031936011261040e5760095490516001600160a01b039091168152602090f35b5091903461040e5761063e36611b63565b9280979497969596929192421161076c5788938693610717938c888b61070f968e8460018060a01b03809c169c8d958682526020522090815491610681836127f8565b90558b86519460208601967f6e71edae12b1b97f4d1f60370fef10105fa2faae0126114a169c64845d6126c9885288870152166060850152608084015260a083015260c082015260c081526106d581611d48565b5190206106e06124ab565b915190602082019261190160f01b8452602283015260428201526042815261070781611d2d565b519020612773565b91909161265e565b1603610729575061042b93945061285e565b606490602087519162461bcd60e51b8352820152601e60248201527f45524332305065726d69743a20696e76616c6964207369676e617475726500006044820152fd5b895162461bcd60e51b8152602081870152601d60248201527f45524332305065726d69743a206578706972656420646561646c696e650000006044820152606490fd5b50503461040e57602036600319011261040e57356107d860018060a01b03600554163314611da0565b6107e6620186a08210611deb565b601a5580f35b83823461040e578160031936011261040e57600d54905160089190911c6001600160a01b03168152602090f35b83823461040e578160031936011261040e5760215490516001600160a01b039091168152602090f35b83823461040e578160031936011261040e57602090601b549051908152f35b83823461040e578060031936011261040e5760209061088a610881611aea565b60243590611ebe565b9051908152f35b83823461040e578160031936011261040e57606090601f549080519160018060401b03808216845281831c16602084015260801c90820152f35b83823461040e578160031936011261040e576020906017549051908152f35b82843461042e576020918260031936011261040e576001600160401b0381358181116105275761091d9036908401611be2565b92909161093560018060a01b03600554163314611da0565b8311610a5c5750610947600f54611c0f565b601f8111610a18575b508293601f83116001146109b257509282938293926109a7575b50508160011b916000199060031b1c191617600f555b7fa6f004921c944d4b8bf6e38462b00f36a58d62495d56b51f571ab78f732c98158180a180f35b01359050838061096a565b90601f19831694600f85528285209285905b878210610a005750508360019596106109e6575b505050811b01600f55610980565b0135600019600384901b60f8161c191690558380806109d8565b806001849682949587013581550195019201906109c4565b600f8452848420601f840160051c810191868510610a52575b601f0160051c01905b818110610a475750610950565b848155600101610a3a565b9091508190610a31565b634e487b7160e01b845260419052602483fd5b83823461040e578060031936011261040e57602091610a8c611aea565b82602435928315801590610b38575b610acb575b50519182526001600160a01b031690339060008051602061467b833981519152908590a35160018152f35b3381526001865281812054610ae2858210156125d4565b6001600160a01b038416908533839003610aff575b505050610aa0565b610b1391610b0e841515612619565b611f6f565b3383526001885283832055815220610b2c838254611eb1565b90558285808085610af7565b50336001600160a01b03841614610a9b565b83823461040e578060031936011261040e57606090610b73610b6a611aea565b60243590611f7c565b91929081519384526020840152820152f35b83823461040e578060031936011261040e5760209161088a906001600160a01b03610bae611aea565b168082526015855283610bc6602435828520546122ee565b939092815260148752205461239f565b5082903461040e578160031936011261040e576009546001600160a01b039390610c0190851661442e565b610c0e85600b541661442e565b94600e541693835163634ce26b60e11b8152818160209788878301528180610c3860248201611c49565b03915afa918215610cf8579260249261040a96959285610cc69692610cd5575b5050855198899261746d60f01b8a850152610c7c815180928c602288019101611b1b565b8301602f60f81b6022820152610c9b825180938c602385019101611b1b565b01602d60f81b6023820152610cb8825180938b8885019101611b1b565b010390810187520185611d63565b51928284938452830190611b3e565b610cf192503d8091833e610ce98183611d63565b810190614381565b8980610c58565b8551903d90823e3d90fd5b83823461040e578160031936011261040e57602090601c549051908152f35b83823461040e578160031936011261040e5760055490516001600160a01b039091168152602090f35b83823461040e578160031936011261040e576020906018549051908152f35b83823461040e578160031936011261040e57601154905190819061040a90608081901c906001600160801b031683611d86565b83823461040e578060031936011261040e57602090610dc7610dbd611aea565b6024359033612807565b5160018152f35b5090346103d35760203660031901126103d35760209282916001600160a01b03610df6611aea565b168252845220549051908152f35b83823461040e578160031936011261040e57600e5490516001600160a01b039091168152602090f35b50503461040e57602036600319011261040e57356001600160a01b03818116918290036103d357610e6390600554163314611da0565b600e80546001600160a01b0319169190911790557f0b2d6eb667d0522c3eb86e4288afecae6c11591ffd1345d4d12407e0598bca9b8180a180f35b50503461040e57602036600319011261040e5735610ec760018060a01b03600554163314611da0565b610ed5620186a08210611deb565b610ee26019548210611deb565b60185580f35b50503461040e57602036600319011261040e5735610f1160018060a01b03600554163314611da0565b610f20620186a0821115611deb565b60175580f35b83823461040e578160031936011261040e57805161040a91610f5282610f4b81611c49565b0383611d63565b51918291602083526020830190611b3e565b5090346103d35760203660031901126103d3577fae6e0ab3b95f0a53ff9660a390ccedcbbf1f2355dce974a9841af106fddcfaba903591610faa60ff600d541615611e2b565b610fbf60018060a01b03600554163314611da0565b6013548151908152836020820152a160135580f35b83823461040e57602036600319011261040e5760209181906001600160a01b03610ffc611aea565b1681526001845220549051908152f35b83823461040e578160031936011261040e5760085490516001600160a01b039091168152602090f35b83823461040e578160031936011261040e5760209060ff600d541690519015158152f35b83823461040e578160031936011261040e576020906019549051908152f35b50503461040e57602036600319011261040e57356110a160018060a01b03600554163314611da0565b6110b0620186a0821115611deb565b60165580f35b83823461040e578160031936011261040e576020906025549051908152f35b83823461040e578160031936011261040e576080906110f26128b5565b506110fb6128ed565b509495935050505080519260018060401b03808251168552602082015116602085015281600180871b0391015116908301526060820152f35b5090346103d35760203660031901126103d3577fc353b09af857951dccce61b43a5854fc45beceed36c50e5d4cc2e71858a8e0df90359161118060018060a01b03600554163314611da0565b61118f620186a0841115611deb565b601c548151908152836020820152a1601c5580f35b50346103d357826003193601126103d3576006546001600160a01b039290918383169190338390036112025750508060055493841660008051602061465b8339815191528680a36001600160a01b0319928316176005551660065580f35b906020606492519162461bcd60e51b8352820152602060248201527f4f776e61626c653a2063616c6c657220213d2070656e64696e67206f776e65726044820152fd5b83823461040e578160031936011261040e576020906027549051908152f35b83823461040e57602036600319011261040e5760209181906001600160a01b0361128c611aea565b1681526014845220549051908152f35b83823461040e578160031936011261040e576020906012549051908152f35b83823461040e578160031936011261040e57602090600c549051908152f35b83823461040e578160031936011261040e576020906013549051908152f35b50503461040e5760a036600319011261040e576001600160401b0381358181116105275761132a9036908401611bb2565b916024358181116113b0576113429036908601611bb2565b909190604435906001600160a01b03821682036113ac576064358381116113a8576113709036908901611be2565b9490936084359081116113a45761042b9861138d91369101611be2565b97909661139f60ff600d541615611e2b565b612ed9565b8980fd5b8880fd5b8780fd5b8580fd5b83823461040e578160031936011261040e576020906010549051908152f35b83823461040e578160031936011261040e57600b5490516001600160a01b039091168152602090f35b83823461040e578160031936011261040e5760209061088a6124ab565b83823461040e578160031936011261040e576020906016549051908152f35b8281853461040e578160031936011261040e57600b54835163313ce56760e01b6020820190815292815283926001600160a01b03909216919061147a81611cce565b51915afa6114866143df565b90806114cc575b156114bd576020818051810103126103d357602001519160ff8316830361042e575060ff602092915b5191168152f35b506020915060ff6012916114b6565b50602081511461148d565b50503461040e57602036600319011261040e573561150060018060a01b03600554163314611da0565b61150e620186a08210611deb565b61151b6018548211611deb565b60195580f35b50823461042e57606036600319011261042e5761153c611aea565b90611545611b05565b6044359182611581575b508351918252602094506001600160a01b0390811692169060008051602061467b833981519152908590a35160018152f35b6001600160a01b0384811680835260016020908152878420549198929091906115ac878310156125d4565b851692838a036115c0575b5050505061154f565b89855260028352888520338652835288852054906001820161162a575b5050928260209960018a946116098a8e99610b0e60008051602061467b8339815191529c9a1515612619565b928552528383205581522061161f858254611eb1565b9055918780806115b7565b87821061168057509260209960018a946116098a8e999661165b8260008051602061467b8339815191529d9b611f6f565b86895260028552898920338a52855289892055969950505094505099819496506115dd565b895162461bcd60e51b8152908101849052601860248201527745524332303a20616c6c6f77616e636520746f6f206c6f7760401b6044820152606490fd5b83823461040e578160031936011261040e576020906026549051908152f35b50503461040e57602036600319011261040e573561170660018060a01b03600554163314611da0565b611715620186a0821115611deb565b601b5580f35b5091903461040e5761172c36611b63565b9280979497969596929192421161076c57889386936117c3938c888b61070f968e8460018060a01b03809c169c8d95868252602052209081549161176f836127f8565b90558b86519460208601967fe9685ff6d48c617fe4f692c50e602cce27cbad0290beb93cfa77eac43968d58c885288870152166060850152608084015260a083015260c082015260c081526106d581611d48565b1603610729575061042b939450612807565b83823461040e57602036600319011261040e5760209181906001600160a01b036117fd611aea565b1681526015845220549051908152f35b83823461040e578160031936011261040e57602090815460801c9051908152f35b83823461040e578060031936011261040e57602090610dc761184e611aea565b602435903361285e565b50346103d35760603660031901126103d357611872611aea565b91602435918215158303611951576044359283151584036113b05760018060a01b039485916118a683600554163314611da0565b15611938571692831590811591611930575b50156118f55750508060055492831660008051602061465b8339815191528580a36001600160a01b03199182161760055560068054909116905580f35b906020606492519162461bcd60e51b835282015260156024820152744f776e61626c653a207a65726f206164647265737360581b6044820152fd5b9050386118b8565b93505050501660018060a01b0319600654161760065580f35b8480fd5b50346103d357826003193601126103d3576009546001600160a01b03939061197e9085166145b7565b9061198c85600b54166145b7565b94600e5416818451809263355a219b60e21b82526020809883015281806119b560248201611c49565b03915afa918215611a705792610cc6926036928561040a979692611a55575b505084519788927302a30b834b7b1b09029b4b733bab630b934ba3c960651b89850152611a0a815180928b603488019101611b1b565b8301602f60f81b6034820152611a29825180938b603585019101611b1b565b01602d60f81b6035820152611a46825180938a8785019101611b1b565b01036016810187520185611d63565b611a6992503d8091833e610ce98183611d63565b38806119d4565b8451903d90823e3d90fd5b50823461042e578060031936011261042e5750611a966120d0565b825191151582526020820152f35b925050346103d357806003193601126103d357602092611ac2611aea565b611aca611b05565b6001600160a01b0391821683526003865283832091168252845220548152f35b600435906001600160a01b0382168203611b0057565b600080fd5b602435906001600160a01b0382168203611b0057565b60005b838110611b2e5750506000910152565b8181015183820152602001611b1e565b90602091611b5781518092818552858086019101611b1b565b601f01601f1916010190565b60e0906003190112611b00576001600160a01b03906004358281168103611b0057916024359081168103611b005790604435906064359060843560ff81168103611b00579060a4359060c43590565b9181601f84011215611b00578235916001600160401b038311611b00576020808501948460051b010111611b0057565b9181601f84011215611b00578235916001600160401b038311611b005760208381860195010111611b0057565b90600182811c92168015611c3f575b6020831014611c2957565b634e487b7160e01b600052602260045260246000fd5b91607f1691611c1e565b600f5460009291611c5982611c0f565b908181526001928381169081600014611cb35750600114611c7957505050565b90929350600f6000526020928360002092846000945b838610611c9f5750505050010190565b805485870183015294019385908201611c8f565b91935050602093945060ff191683830152151560051b010190565b604081019081106001600160401b03821117611ce957604052565b634e487b7160e01b600052604160045260246000fd5b606081019081106001600160401b03821117611ce957604052565b6001600160401b038111611ce957604052565b608081019081106001600160401b03821117611ce957604052565b60e081019081106001600160401b03821117611ce957604052565b601f909101601f19168101906001600160401b03821190821017611ce957604052565b6001600160801b0391821681529116602082015260400190565b15611da757565b606460405162461bcd60e51b815260206004820152602060248201527f4f776e61626c653a2063616c6c6572206973206e6f7420746865206f776e65726044820152fd5b15611df257565b60405162461bcd60e51b815260206004820152601160248201527013585c9ad95d0e881b9bdd081d985b1a59607a1b6044820152606490fd5b15611e3257565b60405162461bcd60e51b815260206004820152600e60248201526d13585c9ad95d0e881c185d5cd95960921b6044820152606490fd5b81810292918115918404141715611e7b57565b634e487b7160e01b600052601160045260246000fd5b8115611e9b570490565b634e487b7160e01b600052601260045260246000fd5b91908201809211611e7b57565b90611ec981836121df565b611f1c57611ed79082611f7c565b6001600160a01b03909316600090815260146020526040902054928310159050611f1857620186a0611f0e611f1593601a54611e68565b0490611eb1565b90565b5090565b5050600090565b60405190611f3082611cce565b6011546001600160801b038116835260801c6020830152565b60405190611f5682611cce565b602080546001600160801b038116845260801c90830152565b91908203918211611e7b57565b6001600160a01b039081166000818152601460209081526040822054929594939192909181156120b657611fae611f23565b906007541683600a54898752601582526064611fe2611fd960408a2054620186a0601d540490611e68565b601b5490611e68565b91604051948593849263442c159960e01b8452600484015260248301528960448301525afa9081156120ab57859161207c575b509285949261205460159361202f61207099604098611e91565b815190936001600160801b0391869161204a91841690611e68565b9201511690611e91565b908082106120745761206591611f6f565b9783525220546122ee565b9091565b505082612065565b90508381813d83116120a4575b6120938183611d63565b810103126119515751612070612015565b503d612089565b6040513d87823e3d90fd5b5050509192505080918190565b51908115158203611b0057565b60018060a01b03600e541690604090815163d6d7d52560e01b8152602060048201528281604481600080988160248401525af19081156121d257848092612194575b5050918360001461218c5782156121525760207f9f9192b5edb17356c524e08d9e025c8e2f6307e6ea52fb7968faa3081f51c3c8918460105551848152a1565b5162461bcd60e51b81526020600482015260146024820152734d61726b65743a20696e76616c6964207261746560601b6044820152606490fd5b506010549150565b915093508284813d83116121cb575b6121ad8183611d63565b8101031261042e575060206121c1846120c3565b9301513880612112565b503d6121a3565b50505051903d90823e3d90fd5b91909160018060a01b038060009216825260206014815260408320549081156122e45760158152604084205480156122db578161221a611f23565b946007541691606461223a611fd9600a5493620186a0601d540490611e68565b91604051948593849263442c159960e01b8452600484015260248301528960448301525afa9485156122cf578095612297575b505061204a61229294959661228d60018060801b03948587511690611e68565b611e68565b111590565b909694508187813d83116122c8575b6122b08183611d63565b8101031261042e57509451929461204a61229261226d565b503d6122a6565b604051903d90823e3d90fd5b50929450505050565b5060019450505050565b602060018060a01b0360075416916064600a54604051948593849263442c159960e01b845260048401526024830152600060448301525afa90811561239357600091612360575b509061234761234c92601d5490611e68565b611e91565b620186a061235c601b5483611e68565b0491565b906020823d821161238b575b8161237960209383611d63565b8101031261042e575051612347612335565b3d915061236c565b6040513d6000823e3d90fd5b80156124a35781156124a3578181106124a3578281101561249a57816123c491611f6f565b620186a09283820291808304851490151715611e7b576123ed926123e791611f6f565b90611e91565b601854916019549283810390600093848612828412811690838513901516176124865782810292858112600160ff1b83141661247257830514908514171561245e570581838201938412911290801582169115161761244a575090565b634e487b7160e01b81526011600452602490fd5b634e487b7160e01b83526011600452602483fd5b634e487b7160e01b86526011600452602486fd5b634e487b7160e01b85526011600452602485fd5b50505060185490565b505050600090565b307f00000000000000000000000000000000000000000000000000000000000000006001600160a01b031614806125ab575b15612506577f000000000000000000000000000000000000000000000000000000000000000090565b60405160208101907f000000000000000000000000000000000000000000000000000000000000000082527f000000000000000000000000000000000000000000000000000000000000000060408201527f000000000000000000000000000000000000000000000000000000000000000060608201524660808201523060a082015260a0815260c0810181811060018060401b03821117611ce95760405251902090565b507f000000000000000000000000000000000000000000000000000000000000000046146124dd565b156125db57565b60405162461bcd60e51b815260206004820152601660248201527545524332303a2062616c616e636520746f6f206c6f7760501b6044820152606490fd5b1561262057565b60405162461bcd60e51b815260206004820152601660248201527545524332303a206e6f207a65726f206164647265737360501b6044820152606490fd5b600581101561275d578061266f5750565b600181036126b75760405162461bcd60e51b815260206004820152601860248201527745434453413a20696e76616c6964207369676e617475726560401b6044820152606490fd5b600281036127045760405162461bcd60e51b815260206004820152601f60248201527f45434453413a20696e76616c6964207369676e6174757265206c656e677468006044820152606490fd5b60031461270d57565b60405162461bcd60e51b815260206004820152602260248201527f45434453413a20696e76616c6964207369676e6174757265202773272076616c604482015261756560f01b6064820152608490fd5b634e487b7160e01b600052602160045260246000fd5b9291906fa2a8918ca85bafe22016d0b997e4df60600160ff1b0383116127ec5791608094939160ff602094604051948552168484015260408301526060820152600093849182805260015afa156127df5781516001600160a01b038116156127d9579190565b50600190565b50604051903d90823e3d90fd5b50505050600090600390565b6000198114611e7b5760010190565b909160207fe50de2333c10a9502fcb1d8ae13a51bbf423153dfc63c2b8997665b32154afc39160018060a01b03809416938460005260038352604060002095169485600052825280604060002055604051908152a3565b909160207f8c5be1e5ebec7d5bd14f71427d1e84f3dd0314c0f7b2291e5b200ac8c7c3b9259160018060a01b03809416938460005260028352604060002095169485600052825280604060002055604051908152a3565b604051906128c282611cff565b60006040838281528260208201520152565b6001600160801b039182169082160191908211611e7b57565b6128f56128b5565b506000602060405161290681611cce565b82815201526000602060405161291b81611cce565b82815201526040519061292d82611cff565b601f546001600160401b038082168452604082811c9091166020850190815260809290921c908401528261295f611f23565b92612968611f49565b92600060018060a01b036007541692600c5493602060018060801b038851169560646040518094819363442c159960e01b835260048301526024998a830152600060448301525afa801561239357600090612d37575b88516129d492506001600160801b031690611eb1565b9384612ced5760005b935184906129f4906001600160401b031642611f6f565b968715612cc3575050426001600160401b031660208a8101919091528801516001600160801b031615612c825787518951670de0b6b3a764000091612a5191899161228d916001600160401b0316906001600160801b0316611e68565b895191900496906001600160801b0390612a7090828a169083166128d4565b168952612aa0620186a0612a866017548a611e68565b049661234760208b019860018060801b038a511690611e68565b60408b0180519197916001600160801b03808a169291612ac390849083166128d4565b16905281516001600160801b0391612adc9183166128d4565b1690526709b6e64a8ec6000080861015612bb657858103818111612ba157670de0b6b3a76400008102908104670de0b6b3a7640000148783141715612ba157612b2b929161228d910480611e68565b6b0a9456c7acbaf3a129576cd1602b1b9190820190818311612b8d578a516001600160401b0316838102938115918504141715612b8d57506001600160401b0391612b769190611e91565b168089526304b9a1f0809110612b895750565b8852565b634e487b7160e01b60009081526011600452fd5b83634e487b7160e01b60005260116004526000fd5b50670b1a2bc2ec5000008511612bca575050565b670b1a2bc2ec4fffff198501858111612c6d57670de0b6b3a7640000810290808204670de0b6b3a76400001490151715612c6d579061228d6702c68af0bb140000612c16930480611e68565b6b0a9456c7acbaf3a129576cd1602b1b9190820190818311612b8d57508951612c4891906001600160401b0316611e68565b046449d4824600808211612c65575b506001600160401b03168852565b905038612c57565b82634e487b7160e01b60005260116004526000fd5b5093509350939490506312e687c08060018060401b0383511603612cb7575b509392612cac611f49565b926000926000929190565b81526001925038612ca1565b975098505095505050505091612cd7611f23565b91612ce0611f49565b9160009160009190600090565b87516001600160801b0316670de0b6b3a76400008181029180830490911490151715612d225785612d1d91611e91565b6129dd565b50634e487b7160e01b60009081526011600452fd5b506020813d602011612d63575b81612d5160209383611d63565b81010312611b00576129d490516129be565b3d9150612d44565b601180546001600160801b031660809290921b6001600160801b031916919091179055565b601180546001600160801b0319166001600160801b0392909216919091179055565b612e536040602080612dc26128ed565b9399959390929015612e635750505060008051602061469b83398151915260808751600081526000878201526312e687c08982015260006060820152a15b600180871b03815116848201519160018060801b0319978891015160801b1691600160401b600160801b039060401b161717601f5560018060801b039281612e4b8580945116612d90565b015116612d6b565b83511692015160801b1617602055565b60008051602061469b833981519152926080926001808c1b03865116908b51938452898401528a8301526060820152a1612e00565b9190811015612ea85760051b0190565b634e487b7160e01b600052603260045260246000fd5b6001600160401b038111611ce957601f01601f191660200190565b9692979097959493919560c052612eee6120d0565b939050612ef9612db2565b602154600060a0526001600160a01b03169182612fca575b50505060a05196875b818110612f6b57505050505050505015612f3057565b60405162461bcd60e51b815260206004820152601360248201527214d1d30e881b9bc81d5cd95c9cc8199bdd5b99606a1b6044820152606490fd5b612f7e612f7982848b612e98565b6137ae565b612f8885826121df565b15612f9d575b50612f98906127f8565b612f1a565b98612fa7906127f8565b98868686868b8660c051612fba92612e98565b35612fc495613992565b38612f8e565b606060049360405194858092637c8be05b60e01b82525afa9283156134035760a05190819461376b575b5015612f115797939098949199959260a05198895b60c051808c101561303957613033916130268d61302d938e612e98565b3590611eb1565b9a6127f8565b99613009565b509194979b9093969a9295995010156130525780612f11565b9350613074929695508094506130689150612ebe565b60405180608052611d63565b8160805152368282011161341057819060206080510137602060a0519160805101015260a05191829083906130a7611f23565b9060a0515b8781106135245750509061311861311d926130c88715156137c2565b80516001600160801b03906130e2908983169083166137fd565b16815260208101805190936001600160801b03916131049183169083166137fd565b1692839052516001600160801b0316612d90565b612d6b565b61312981601254611f6f565b601255600754600c54604051638eb22cdd60e01b81526004810191909152602481018590526001604482015294906001600160a01b0316602086606481845afa9586156134035760a051966134f0575b5060018060a01b0360215416600a54823b15613410576131b6928591604051809581948293630208d92960e11b845260a051973060048601613816565b039160a051905af18015613403576134e1575b5060018060a01b036021541660018060a01b03600754166020600a5460646040518094819363442c159960e01b83526004830152886024830152600160448301525afa80156134035760a051906134ae575b604080925051928391633965907b60e01b83526004830152826024830152818061324a60448201608051611b3e565b039160a051905af1801561340357613480575b5060018060a01b036007541692600c5492604051627eeac760e11b81526020818061328c883060048401613856565b0381895afa9081156134035760a0519161344c575b50602054620186a0916132d5916132cc916132c5916001600160801b031690611f6f565b998a611f6f565b60165490611e68565b04956132e18789611f6f565b604051948060c0870133885260c060208901525260e08601949060a051905b80821061341657505050604085018890526060850152608084015260a08301526000805160206145fb833981519152919081900390a1813b15613410576040518092630208d92960e11b825281806133618760a05196333060048601613816565b039160a051905af18015613403576133ee575b506133c9906001600160801b0361338b8285611f6f565b602054916001600160801b03916133a591168284166128d4565b6001600160801b03199092169116176020556021546001600160a01b031692611f6f565b9060405191825260a05160208301526000805160206145db83398151915260403093a3565b6133f790611d1a565b60a05180156133745780fd5b6040513d60a051823e3d90fd5b60a05180fd5b91959091908635906001600160a01b0382168203611b00576001600160a01b039091168152602090810196019160010190613300565b90506020813d602011613478575b8161346760209383611d63565b81010312611b0057516132d56132a1565b3d915061345a565b6134a19060403d6040116134a7575b6134998183611d63565b810190613840565b5061325d565b503d61348f565b506020813d6020116134d9575b816134c860209383611d63565b81010312611b00576040905161321b565b3d91506134bb565b6134ea90611d1a565b386131c9565b9095506020813d60201161351c575b8161350c60209383611d63565b8101031261341057519438613179565b3d91506134ff565b613532612f79828a89612e98565b61353c83826121df565b15613551575b5061354c906127f8565b6130ac565b61356083829997939699613871565b90811561375d5760a080516001600160a01b038316905260146020819052905160409020548651909491906001600160801b0390811661373557506135a6848096611f6f565b60a080516001600160a01b03868116909152602093909352516040902055600754600a54911692906135e46135db8887611e68565b60255490611e68565b90601d54620186a090808281020482148115171561371d5760209360649261360d920290611e91565b916040519687938492638eb22cdd60e01b84526004840152602483015260a05160448301525afa9283156134035760a051936136e3575b50926136d661354c95936136d6936136dc9660018060a01b03811660a051526015602052604060a05120613679848254611f6f565b90556021546040518481526001600160a01b039182169182919084169060008051602061463b83398151915290602090a360008051602061461b83398151915260408051938885528a602086015260018060a01b031693a3611eb1565b98611eb1565b9390613542565b949250926020853d602011613715575b8161370060209383611d63565b810103126134105793519193926136d6613644565b3d91506136f3565b634e487b7160e01b60a051526011600452602460a051fd5b6137568161374c6135a69360208c01511688611e68565b908a511690611e91565b8096611f6f565b505093959261354c906127f8565b9350506060833d82116137a6575b8161378660609383611d63565b8101031261341057604061379c602085016120c3565b9301519238612ff4565b3d9150613779565b356001600160a01b0381168103611b005790565b156137c957565b60405162461bcd60e51b815260206004820152600c60248201526b14d1d30e881cdbdb1d995b9d60a21b6044820152606490fd5b6001600160801b039182169082160391908211611e7b57565b6001600160a01b039182168152911660208201526040810191909152606081019190915260800190565b9190826040910312611b00576020825192015190565b6001600160a01b039091168152602081019190915260400190565b9060018060a01b038060009316835260209160148352604084205490811561397757601584526040852054846138a5611f23565b94600754169160646138ce6138c5600a5493620186a0601d540490611e68565b60275490611e68565b91604051948593849263442c159960e01b8452600484015260248301528a60448301525afa90811561396c57869161393d575b5061392793929161391191611e91565b9361204a60018060801b03928385511690611e68565b81811061393857611f159250611f6f565b505090565b90508481813d8311613965575b6139548183611d63565b810103126113b05751613927613901565b503d61394a565b6040513d88823e3d90fd5b5050505090565b51906001600160a01b0382168203611b0057565b959491936139a084886121df565b6143785760009460018060a01b038816865260156020526139e66139c88660408920546122ee565b6001600160a01b038b1689526014602052604089205490919061239f565b926139f1868a611ebe565b90818111156143705750935b6001600160a01b038916875260146020526040872054613a1e908690611f6f565b6001600160a01b038a16885260146020526040882055613a3c611f23565b6020810180516001600160801b031661433f575050845b60018060a01b036007541696613a72600a549161228d6025548a611e68565b601d54620186a081810204810361432b57613a9860209392606492620186a00290611e91565b916040519a8b938492638eb22cdd60e01b8452600484015260248301528c60448301525afa96871561420d5788976142f7575b506001600160a01b038a1688526015602052604088208054613aee908990611f6f565b9055613afb8615156137c2565b6011546001600160801b03613b148882168284166137fd565b16906001600160801b031990613b3b906001600160801b038516908316841760801c6137fd565b60801b16176011556040518781526001600160a01b0384811691908c169060008051602061463b83398151915290602090a36040805187815260208101929092526001600160a01b038b8116929085169160008051602061461b83398151915291a3600754600c54604051638eb22cdd60e01b81526004810191909152602481018790526001604482015293906001600160a01b0316602085606481845afa9485156140335789956142c3575b50600854604051634656bfdf60e11b81526001600160a01b038681166004830152909160209183916024918391165afa9081156142b8578a9161427e575b501561424257600a54813b156113a457604051630208d92960e11b8152918a91839190829084908290613c69908f906001600160a01b038d163060048601613816565b03925af180156140335761422f575b50879180614218575b5050600a54600c54604051633d9545e960e11b815260048101929092526024820152604481018890526064810187905260016084820181905260a4820152906101408260c4816001600160a01b0387165afa91821561420d5788926140f8575b506020604080519363efa84c6d60e01b85526060815160018060a01b03815116600488015284810151602488015260018060a01b038482015116604488015201516064860152606083820151805160848801528481015160a48801528381015160c4880152015160e486015201518051151561010485015201511515610124830152610144820152306101648201526101a0610184820152866101a48201526040816101c4818a60018060a01b0387165af180156140ed576140cf575b5060018060a01b0360075416600c5492604051627eeac760e11b815260208180613dcc883060048401613856565b0381865afa90811561403357899161409b575b50602054613e0191613dfa916001600160801b031690611f6f565b9182611f6f565b91620186a0613e1e81613e1660175487611e68565b049785611e68565b04946004602060018060a01b036008541660405192838092622fcfcb60e31b82525afa908115614090578b91614056575b50823b1561405257613e7e928b92838a9360405196879586948593630208d92960e11b85523060048601613816565b03925af180156140335790899161403e575b505060018060a01b0360075416600c54813b156113a45785613ecd928b9283604051809681958294630208d92960e11b8452333060048601613816565b03925af1801561403357918987928794614017575b505090613f3393610b0e92613f0285610b0e8560018060801b0394611f6f565b602054916001600160801b0391613f1c91168284166128d4565b6001600160801b0319909216911617602055611f6f565b604080519182526020820188905230926001600160a01b0316916000805160206145db8339815191529190a360405196613f6c88611cce565b60018852602036818a0137875115614003576001600160a01b0316602088810191825260405133815260c0918101829052985190890181905260e0890198965b818110613fe45750505060408501526060840152608083015260a082015290916000805160206145fb833981519152919081900390a1565b82516001600160a01b03168a526020998a019990920191600101613fac565b634e487b7160e01b86526032600452602486fd5b909250614025919350611d1a565b6113ac578484918938613ee2565b6040513d8b823e3d90fd5b61404790611d1a565b6113ac578738613e90565b8a80fd5b90506020813d602011614088575b8161407160209383611d63565b81010312614052576140829061397e565b38613e4f565b3d9150614064565b6040513d8d823e3d90fd5b90506020813d6020116140c7575b816140b660209383611d63565b81010312611b005751613dfa613ddf565b3d91506140a9565b6140e79060403d6040116134a7576134998183611d63565b50613d9e565b6040513d89823e3d90fd5b909150610140903d61014011614205575b6141138282611d63565b6101408183810103126113a8576040519161412d83611cff565b60808282810103126113a45760405161414581611d2d565b61414e8361397e565b8152602083015160208201526141666040840161397e565b60408201526060830151606082015283526080607f19838381010301126113a457604090815161419581611d2d565b6080840151815260a0840151602082015260c08401518382015260e0840151606082015260208501528260ff199181010301126113a8576141f4610120604051926141df84611cce565b6141ec61010082016120c3565b8452016120c3565b602082015260408201529038613ce1565b3d9150614109565b6040513d8a823e3d90fd5b8192509060209181010312611b0057353880613c81565b61423b90989198611d1a565b9638613c78565b60405162461bcd60e51b815260206004820152601460248201527329a3a61d1024b73b30b634b21039bbb0b83832b960611b6044820152606490fd5b90506020813d6020116142b0575b8161429960209383611d63565b810103126113a4576142aa906120c3565b38613c26565b3d915061428c565b6040513d8c823e3d90fd5b9094506020813d6020116142ef575b816142df60209383611d63565b810103126113a857519338613be8565b3d91506142d2565b9096506020813d602011614323575b8161431360209383611d63565b810103126113ac57519538613acb565b3d9150614306565b634e487b7160e01b8b52601160045260248bfd5b905161436a9190614359906001600160801b031688611e68565b90516001600160801b031690611e91565b94613a53565b9050936139fd565b50505050509050565b602081830312611b00578051906001600160401b038211611b00570181601f82011215611b005780516143b381612ebe565b926143c16040519485611d63565b81845260208284010111611b0057611f159160208085019101611b1b565b3d1561440a573d906143f082612ebe565b916143fe6040519384611d63565b82523d6000602084013e565b606090565b6040519061441c82611cce565b60038252623f3f3f60e81b6020830152565b6000809160405160208101906395d89b4160e01b82526004815261445181611cce565b51916001600160a01b03165afa6144666143df565b901561447557611f15906144a0565b50611f1561440f565b908151811015612ea8570160200190565b60ff1660ff8114611e7b5760010190565b8051604081106144be575080602080611f1593518301019101614381565b6020929083036145ac576000805b60ff8116858110908161458d575b50156144ee576144e99061448f565b6144cc565b9260ff809416926144fe84612ebe565b9361450c6040519586611d63565b80855261451b601f1991612ebe565b013687860137825b85811687811080614570575b1561456557614560919061455a6001600160f81b031961454f838861447e565b5116871a918861447e565b5361448f565b614523565b505094505050905090565b506001600160f81b0319614584828661447e565b5116151561452f565b6001600160f81b031991506145a2908661447e565b51161515386144da565b915050611f1561440f565b6000809160405160208101906306fdde0360e01b82526004815261445181611cce56fe30a8c4f9ab5af7e1309ca87c32377d1a83366c5990472dbf9d262450eae14e3885b91d472e69b2cfe848ed50eb5d8582ae96c22057b6e46250255dd6f6c35192c8e512d8f188ca059984b5853d2bf653da902696b8512785b182b2c813789a6e8ad4d3ff00da092c7ad9a573ea4f5f6a3dffc6712dc06d3f78f49b862297c4028be0079c531659141344cd1fd0a4f28419497f9722a3daafe3b4186f6b6457e0ddf252ad1be2c89b69c2b068fc378daa952ba7f163c4a11628f55a4df523b3ef33af5ce86e8438eff54589f85332916444457dfa8685493fbd579b809097026ba26469706673582212208afed36e155dd193fd710d1fef8577f39dad6336602904b587fb86e763f6a29264736f6c63430008120033",
  "linkReferences": {},
  "deployedLinkReferences": {}
}