{
  "_format": "hh-sol-artifact-1",
  "contractName": "SGLLeverage",
  "sourceName": "contracts/markets/singularity/SGLLeverage.sol",
  "abi": [
    {
      "anonymous": false,
      "inputs": [
        {
          "indexed": true,
          "internalType": "address",
          "name": "owner",
          "type": "address"
        },
        {
          "indexed": true,
          "internalType": "address",
          "name": "spender",
          "type": "address"
        },
        {
          "indexed": false,
          "internalType": "uint256",
          "name": "value",
          "type": "uint256"
        }
      ],
      "name": "Approval",
      "type": "event"
    },
    {
      "anonymous": false,
      "inputs": [
        {
          "indexed": true,
          "internalType": "address",
          "name": "owner",
          "type": "address"
        },
        {
          "indexed": true,
          "internalType": "address",
          "name": "spender",
          "type": "address"
        },
        {
          "indexed": true,
          "internalType": "uint256",
          "name": "value",
          "type": "uint256"
        }
      ],
      "name": "ApprovalBorrow",
      "type": "event"
    },
    {
      "anonymous": false,
      "inputs": [
        {
          "indexed": true,
          "internalType": "address",
          "name": "newAddress",
          "type": "address"
        }
      ],
      "name": "BidExecutionSwapperUpdated",
      "type": "event"
    },
    {
      "anonymous": false,
      "inputs": [
        {
          "indexed": true,
          "internalType": "address",
          "name": "old",
          "type": "address"
        },
        {
          "indexed": true,
          "internalType": "address",
          "name": "_new",
          "type": "address"
        }
      ],
      "name": "ConservatorUpdated",
      "type": "event"
    },
    {
      "anonymous": false,
      "inputs": [
        {
          "indexed": false,
          "internalType": "uint256",
          "name": "_oldVal",
          "type": "uint256"
        },
        {
          "indexed": false,
          "internalType": "uint256",
          "name": "_newVal",
          "type": "uint256"
        }
      ],
      "name": "ExchangeRateDurationUpdated",
      "type": "event"
    },
    {
      "anonymous": false,
      "inputs": [
        {
          "indexed": true,
          "internalType": "uint256",
          "name": "oldVal",
          "type": "uint256"
        },
        {
          "indexed": true,
          "internalType": "uint256",
          "name": "newVal",
          "type": "uint256"
        }
      ],
      "name": "InterestElasticityUpdated",
      "type": "event"
    },
    {
      "anonymous": false,
      "inputs": [
        {
          "indexed": true,
          "internalType": "address",
          "name": "oldVal",
          "type": "address"
        },
        {
          "indexed": true,
          "internalType": "address",
          "name": "newVal",
          "type": "address"
        }
      ],
      "name": "LeverageExecutorSet",
      "type": "event"
    },
    {
      "anonymous": false,
      "inputs": [
        {
          "indexed": true,
          "internalType": "address",
          "name": "liquidator",
          "type": "address"
        },
        {
          "indexed": true,
          "internalType": "address[]",
          "name": "users",
          "type": "address[]"
        },
        {
          "indexed": true,
          "internalType": "uint256",
          "name": "liquidatorReward",
          "type": "uint256"
        },
        {
          "indexed": false,
          "internalType": "uint256",
          "name": "protocolReward",
          "type": "uint256"
        },
        {
          "indexed": false,
          "internalType": "uint256",
          "name": "repayedAmount",
          "type": "uint256"
        },
        {
          "indexed": false,
          "internalType": "uint256",
          "name": "collateralShareRemoved",
          "type": "uint256"
        }
      ],
      "name": "Liquidated",
      "type": "event"
    },
    {
      "anonymous": false,
      "inputs": [
        {
          "indexed": true,
          "internalType": "uint256",
          "name": "oldVal",
          "type": "uint256"
        },
        {
          "indexed": true,
          "internalType": "uint256",
          "name": "newVal",
          "type": "uint256"
        }
      ],
      "name": "LiquidationMultiplierUpdated",
      "type": "event"
    },
    {
      "anonymous": false,
      "inputs": [
        {
          "indexed": true,
          "internalType": "uint256",
          "name": "accruedAmount",
          "type": "uint256"
        },
        {
          "indexed": true,
          "internalType": "uint256",
          "name": "feeFraction",
          "type": "uint256"
        },
        {
          "indexed": true,
          "internalType": "uint64",
          "name": "rate",
          "type": "uint64"
        },
        {
          "indexed": false,
          "internalType": "uint256",
          "name": "utilization",
          "type": "uint256"
        }
      ],
      "name": "LogAccrue",
      "type": "event"
    },
    {
      "anonymous": false,
      "inputs": [
        {
          "indexed": true,
          "internalType": "address",
          "name": "from",
          "type": "address"
        },
        {
          "indexed": true,
          "internalType": "address",
          "name": "to",
          "type": "address"
        },
        {
          "indexed": true,
          "internalType": "uint256",
          "name": "share",
          "type": "uint256"
        },
        {
          "indexed": false,
          "internalType": "uint256",
          "name": "fraction",
          "type": "uint256"
        }
      ],
      "name": "LogAddAsset",
      "type": "event"
    },
    {
      "anonymous": false,
      "inputs": [
        {
          "indexed": true,
          "internalType": "address",
          "name": "from",
          "type": "address"
        },
        {
          "indexed": true,
          "internalType": "address",
          "name": "to",
          "type": "address"
        },
        {
          "indexed": true,
          "internalType": "uint256",
          "name": "share",
          "type": "uint256"
        }
      ],
      "name": "LogAddCollateral",
      "type": "event"
    },
    {
      "anonymous": false,
      "inputs": [
        {
          "indexed": true,
          "internalType": "address",
          "name": "from",
          "type": "address"
        },
        {
          "indexed": true,
          "internalType": "address",
          "name": "to",
          "type": "address"
        },
        {
          "indexed": true,
          "internalType": "uint256",
          "name": "amount",
          "type": "uint256"
        },
        {
          "indexed": false,
          "internalType": "uint256",
          "name": "feeAmount",
          "type": "uint256"
        },
        {
          "indexed": false,
          "internalType": "uint256",
          "name": "part",
          "type": "uint256"
        }
      ],
      "name": "LogBorrow",
      "type": "event"
    },
    {
      "anonymous": false,
      "inputs": [
        {
          "indexed": true,
          "internalType": "uint256",
          "name": "_oldVal",
          "type": "uint256"
        },
        {
          "indexed": true,
          "internalType": "uint256",
          "name": "_newVal",
          "type": "uint256"
        }
      ],
      "name": "LogBorrowCapUpdated",
      "type": "event"
    },
    {
      "anonymous": false,
      "inputs": [
        {
          "indexed": true,
          "internalType": "uint256",
          "name": "_oldVal",
          "type": "uint256"
        },
        {
          "indexed": true,
          "internalType": "uint256",
          "name": "_newVal",
          "type": "uint256"
        }
      ],
      "name": "LogBorrowingFee",
      "type": "event"
    },
    {
      "anonymous": false,
      "inputs": [
        {
          "indexed": true,
          "internalType": "uint256",
          "name": "rate",
          "type": "uint256"
        }
      ],
      "name": "LogExchangeRate",
      "type": "event"
    },
    {
      "anonymous": false,
      "inputs": [
        {
          "indexed": true,
          "internalType": "address",
          "name": "from",
          "type": "address"
        },
        {
          "indexed": true,
          "internalType": "address",
          "name": "to",
          "type": "address"
        },
        {
          "indexed": true,
          "internalType": "uint256",
          "name": "share",
          "type": "uint256"
        },
        {
          "indexed": false,
          "internalType": "uint256",
          "name": "fraction",
          "type": "uint256"
        }
      ],
      "name": "LogRemoveAsset",
      "type": "event"
    },
    {
      "anonymous": false,
      "inputs": [
        {
          "indexed": true,
          "internalType": "address",
          "name": "from",
          "type": "address"
        },
        {
          "indexed": true,
          "internalType": "address",
          "name": "to",
          "type": "address"
        },
        {
          "indexed": true,
          "internalType": "uint256",
          "name": "share",
          "type": "uint256"
        }
      ],
      "name": "LogRemoveCollateral",
      "type": "event"
    },
    {
      "anonymous": false,
      "inputs": [
        {
          "indexed": true,
          "internalType": "address",
          "name": "from",
          "type": "address"
        },
        {
          "indexed": true,
          "internalType": "address",
          "name": "to",
          "type": "address"
        },
        {
          "indexed": true,
          "internalType": "uint256",
          "name": "amount",
          "type": "uint256"
        },
        {
          "indexed": false,
          "internalType": "uint256",
          "name": "part",
          "type": "uint256"
        }
      ],
      "name": "LogRepay",
      "type": "event"
    },
    {
      "anonymous": false,
      "inputs": [
        {
          "indexed": true,
          "internalType": "address",
          "name": "feeTo",
          "type": "address"
        },
        {
          "indexed": true,
          "internalType": "uint256",
          "name": "feesEarnedFraction",
          "type": "uint256"
        }
      ],
      "name": "LogWithdrawFees",
      "type": "event"
    },
    {
      "anonymous": false,
      "inputs": [
        {
          "indexed": true,
          "internalType": "uint256",
          "name": "feeShares",
          "type": "uint256"
        },
        {
          "indexed": true,
          "internalType": "uint256",
          "name": "ethAmount",
          "type": "uint256"
        }
      ],
      "name": "LogYieldBoxFeesDeposit",
      "type": "event"
    },
    {
      "anonymous": false,
      "inputs": [
        {
          "indexed": true,
          "internalType": "uint256",
          "name": "oldVal",
          "type": "uint256"
        },
        {
          "indexed": true,
          "internalType": "uint256",
          "name": "newVal",
          "type": "uint256"
        }
      ],
      "name": "LqCollateralizationRateUpdated",
      "type": "event"
    },
    {
      "anonymous": false,
      "inputs": [
        {
          "indexed": true,
          "internalType": "uint256",
          "name": "oldVal",
          "type": "uint256"
        },
        {
          "indexed": true,
          "internalType": "uint256",
          "name": "newVal",
          "type": "uint256"
        }
      ],
      "name": "MaximumInterestPerSecondUpdated",
      "type": "event"
    },
    {
      "anonymous": false,
      "inputs": [
        {
          "indexed": true,
          "internalType": "uint256",
          "name": "oldVal",
          "type": "uint256"
        },
        {
          "indexed": true,
          "internalType": "uint256",
          "name": "newVal",
          "type": "uint256"
        }
      ],
      "name": "MaximumTargetUtilizationUpdated",
      "type": "event"
    },
    {
      "anonymous": false,
      "inputs": [
        {
          "indexed": true,
          "internalType": "uint256",
          "name": "oldVal",
          "type": "uint256"
        },
        {
          "indexed": true,
          "internalType": "uint256",
          "name": "newVal",
          "type": "uint256"
        }
      ],
      "name": "MinimumInterestPerSecondUpdated",
      "type": "event"
    },
    {
      "anonymous": false,
      "inputs": [
        {
          "indexed": true,
          "internalType": "uint256",
          "name": "oldVal",
          "type": "uint256"
        },
        {
          "indexed": true,
          "internalType": "uint256",
          "name": "newVal",
          "type": "uint256"
        }
      ],
      "name": "MinimumTargetUtilizationUpdated",
      "type": "event"
    },
    {
      "anonymous": false,
      "inputs": [],
      "name": "OracleDataUpdated",
      "type": "event"
    },
    {
      "anonymous": false,
      "inputs": [],
      "name": "OracleUpdated",
      "type": "event"
    },
    {
      "anonymous": false,
      "inputs": [
        {
          "indexed": true,
          "internalType": "uint256",
          "name": "oldVal",
          "type": "uint256"
        },
        {
          "indexed": true,
          "internalType": "uint256",
          "name": "newVal",
          "type": "uint256"
        }
      ],
      "name": "OrderBookLiquidationMultiplierUpdated",
      "type": "event"
    },
    {
      "anonymous": false,
      "inputs": [
        {
          "indexed": true,
          "internalType": "address",
          "name": "previousOwner",
          "type": "address"
        },
        {
          "indexed": true,
          "internalType": "address",
          "name": "newOwner",
          "type": "address"
        }
      ],
      "name": "OwnershipTransferred",
      "type": "event"
    },
    {
      "anonymous": false,
      "inputs": [
        {
          "indexed": true,
          "internalType": "enum Market.PauseType",
          "name": "_type",
          "type": "uint8"
        },
        {
          "indexed": true,
          "internalType": "bool",
          "name": "oldState",
          "type": "bool"
        },
        {
          "indexed": true,
          "internalType": "bool",
          "name": "newState",
          "type": "bool"
        }
      ],
      "name": "PausedUpdated",
      "type": "event"
    },
    {
      "anonymous": false,
      "inputs": [
        {
          "indexed": true,
          "internalType": "address",
          "name": "from",
          "type": "address"
        },
        {
          "indexed": true,
          "internalType": "address",
          "name": "to",
          "type": "address"
        },
        {
          "indexed": false,
          "internalType": "uint256",
          "name": "value",
          "type": "uint256"
        }
      ],
      "name": "Transfer",
      "type": "event"
    },
    {
      "anonymous": false,
      "inputs": [
        {
          "indexed": true,
          "internalType": "address",
          "name": "newAddress",
          "type": "address"
        }
      ],
      "name": "UsdoSwapperUpdated",
      "type": "event"
    },
    {
      "inputs": [],
      "name": "DOMAIN_SEPARATOR",
      "outputs": [
        {
          "internalType": "bytes32",
          "name": "",
          "type": "bytes32"
        }
      ],
      "stateMutability": "view",
      "type": "function"
    },
    {
      "inputs": [],
      "name": "accrue",
      "outputs": [],
      "stateMutability": "nonpayable",
      "type": "function"
    },
    {
      "inputs": [],
      "name": "accrueInfo",
      "outputs": [
        {
          "internalType": "uint64",
          "name": "interestPerSecond",
          "type": "uint64"
        },
        {
          "internalType": "uint64",
          "name": "lastAccrued",
          "type": "uint64"
        },
        {
          "internalType": "uint128",
          "name": "feesEarnedFraction",
          "type": "uint128"
        }
      ],
      "stateMutability": "view",
      "type": "function"
    },
    {
      "inputs": [
        {
          "internalType": "address",
          "name": "",
          "type": "address"
        },
        {
          "internalType": "address",
          "name": "",
          "type": "address"
        }
      ],
      "name": "allowance",
      "outputs": [
        {
          "internalType": "uint256",
          "name": "",
          "type": "uint256"
        }
      ],
      "stateMutability": "view",
      "type": "function"
    },
    {
      "inputs": [
        {
          "internalType": "address",
          "name": "",
          "type": "address"
        },
        {
          "internalType": "address",
          "name": "",
          "type": "address"
        }
      ],
      "name": "allowanceBorrow",
      "outputs": [
        {
          "internalType": "uint256",
          "name": "",
          "type": "uint256"
        }
      ],
      "stateMutability": "view",
      "type": "function"
    },
    {
      "inputs": [
        {
          "internalType": "address",
          "name": "spender",
          "type": "address"
        },
        {
          "internalType": "uint256",
          "name": "amount",
          "type": "uint256"
        }
      ],
      "name": "approve",
      "outputs": [
        {
          "internalType": "bool",
          "name": "",
          "type": "bool"
        }
      ],
      "stateMutability": "nonpayable",
      "type": "function"
    },
    {
      "inputs": [
        {
          "internalType": "address",
          "name": "spender",
          "type": "address"
        },
        {
          "internalType": "uint256",
          "name": "amount",
          "type": "uint256"
        }
      ],
      "name": "approveBorrow",
      "outputs": [
        {
          "internalType": "bool",
          "name": "",
          "type": "bool"
        }
      ],
      "stateMutability": "nonpayable",
      "type": "function"
    },
    {
      "inputs": [],
      "name": "asset",
      "outputs": [
        {
          "internalType": "contract IERC20",
          "name": "",
          "type": "address"
        }
      ],
      "stateMutability": "view",
      "type": "function"
    },
    {
      "inputs": [],
      "name": "assetId",
      "outputs": [
        {
          "internalType": "uint256",
          "name": "",
          "type": "uint256"
        }
      ],
      "stateMutability": "view",
      "type": "function"
    },
    {
      "inputs": [
        {
          "internalType": "address",
          "name": "",
          "type": "address"
        }
      ],
      "name": "balanceOf",
      "outputs": [
        {
          "internalType": "uint256",
          "name": "",
          "type": "uint256"
        }
      ],
      "stateMutability": "view",
      "type": "function"
    },
    {
      "inputs": [],
      "name": "borrowOpeningFee",
      "outputs": [
        {
          "internalType": "uint256",
          "name": "",
          "type": "uint256"
        }
      ],
      "stateMutability": "view",
      "type": "function"
    },
    {
      "inputs": [
        {
          "internalType": "address",
          "name": "from",
          "type": "address"
        },
        {
          "internalType": "uint256",
          "name": "borrowAmount",
          "type": "uint256"
        },
        {
          "internalType": "uint256",
          "name": "supplyAmount",
          "type": "uint256"
        },
        {
          "internalType": "bytes",
          "name": "data",
          "type": "bytes"
        }
      ],
      "name": "buyCollateral",
      "outputs": [
        {
          "internalType": "uint256",
          "name": "amountOut",
          "type": "uint256"
        }
      ],
      "stateMutability": "nonpayable",
      "type": "function"
    },
    {
      "inputs": [],
      "name": "callerFee",
      "outputs": [
        {
          "internalType": "uint256",
          "name": "",
          "type": "uint256"
        }
      ],
      "stateMutability": "view",
      "type": "function"
    },
    {
      "inputs": [],
      "name": "claimOwnership",
      "outputs": [],
      "stateMutability": "nonpayable",
      "type": "function"
    },
    {
      "inputs": [],
      "name": "collateral",
      "outputs": [
        {
          "internalType": "contract IERC20",
          "name": "",
          "type": "address"
        }
      ],
      "stateMutability": "view",
      "type": "function"
    },
    {
      "inputs": [],
      "name": "collateralId",
      "outputs": [
        {
          "internalType": "uint256",
          "name": "",
          "type": "uint256"
        }
      ],
      "stateMutability": "view",
      "type": "function"
    },
    {
      "inputs": [],
      "name": "collateralizationRate",
      "outputs": [
        {
          "internalType": "uint256",
          "name": "",
          "type": "uint256"
        }
      ],
      "stateMutability": "view",
      "type": "function"
    },
    {
      "inputs": [
        {
          "internalType": "uint256",
          "name": "borrowPart",
          "type": "uint256"
        },
        {
          "internalType": "uint256",
          "name": "collateralPartInAsset",
          "type": "uint256"
        },
        {
          "internalType": "uint256",
          "name": "ratesPrecision",
          "type": "uint256"
        }
      ],
      "name": "computeClosingFactor",
      "outputs": [
        {
          "internalType": "uint256",
          "name": "",
          "type": "uint256"
        }
      ],
      "stateMutability": "view",
      "type": "function"
    },
    {
      "inputs": [
        {
          "internalType": "address",
          "name": "user",
          "type": "address"
        },
        {
          "internalType": "uint256",
          "name": "_exchangeRate",
          "type": "uint256"
        }
      ],
      "name": "computeLiquidatorReward",
      "outputs": [
        {
          "internalType": "uint256",
          "name": "",
          "type": "uint256"
        }
      ],
      "stateMutability": "view",
      "type": "function"
    },
    {
      "inputs": [
        {
          "internalType": "address",
          "name": "user",
          "type": "address"
        },
        {
          "internalType": "uint256",
          "name": "_exchangeRate",
          "type": "uint256"
        }
      ],
      "name": "computeTVLInfo",
      "outputs": [
        {
          "internalType": "uint256",
          "name": "amountToSolvency",
          "type": "uint256"
        },
        {
          "internalType": "uint256",
          "name": "minTVL",
          "type": "uint256"
        },
        {
          "internalType": "uint256",
          "name": "maxTVL",
          "type": "uint256"
        }
      ],
      "stateMutability": "view",
      "type": "function"
    },
    {
      "inputs": [],
      "name": "conservator",
      "outputs": [
        {
          "internalType": "address",
          "name": "",
          "type": "address"
        }
      ],
      "stateMutability": "view",
      "type": "function"
    },
    {
      "inputs": [],
      "name": "decimals",
      "outputs": [
        {
          "internalType": "uint8",
          "name": "",
          "type": "uint8"
        }
      ],
      "stateMutability": "view",
      "type": "function"
    },
    {
      "inputs": [],
      "name": "exchangeRate",
      "outputs": [
        {
          "internalType": "uint256",
          "name": "",
          "type": "uint256"
        }
      ],
      "stateMutability": "view",
      "type": "function"
    },
    {
      "inputs": [],
      "name": "fullUtilizationMinusMax",
      "outputs": [
        {
          "internalType": "uint256",
          "name": "",
          "type": "uint256"
        }
      ],
      "stateMutability": "view",
      "type": "function"
    },
    {
      "inputs": [],
      "name": "getInterestDetails",
      "outputs": [
        {
          "components": [
            {
              "internalType": "uint64",
              "name": "interestPerSecond",
              "type": "uint64"
            },
            {
              "internalType": "uint64",
              "name": "lastAccrued",
              "type": "uint64"
            },
            {
              "internalType": "uint128",
              "name": "feesEarnedFraction",
              "type": "uint128"
            }
          ],
          "internalType": "struct ISingularity.AccrueInfo",
          "name": "_accrueInfo",
          "type": "tuple"
        },
        {
          "internalType": "uint256",
          "name": "utilization",
          "type": "uint256"
        }
      ],
      "stateMutability": "view",
      "type": "function"
    },
    {
      "inputs": [],
      "name": "interestElasticity",
      "outputs": [
        {
          "internalType": "uint256",
          "name": "",
          "type": "uint256"
        }
      ],
      "stateMutability": "view",
      "type": "function"
    },
    {
      "inputs": [],
      "name": "leverageExecutor",
      "outputs": [
        {
          "internalType": "contract ILeverageExecutor",
          "name": "",
          "type": "address"
        }
      ],
      "stateMutability": "view",
      "type": "function"
    },
    {
      "inputs": [],
      "name": "liquidationBonusAmount",
      "outputs": [
        {
          "internalType": "uint256",
          "name": "",
          "type": "uint256"
        }
      ],
      "stateMutability": "view",
      "type": "function"
    },
    {
      "inputs": [],
      "name": "liquidationCollateralizationRate",
      "outputs": [
        {
          "internalType": "uint256",
          "name": "",
          "type": "uint256"
        }
      ],
      "stateMutability": "view",
      "type": "function"
    },
    {
      "inputs": [],
      "name": "liquidationMultiplier",
      "outputs": [
        {
          "internalType": "uint256",
          "name": "",
          "type": "uint256"
        }
      ],
      "stateMutability": "view",
      "type": "function"
    },
    {
      "inputs": [],
      "name": "lqCollateralizationRate",
      "outputs": [
        {
          "internalType": "uint256",
          "name": "",
          "type": "uint256"
        }
      ],
      "stateMutability": "view",
      "type": "function"
    },
    {
      "inputs": [],
      "name": "maxLiquidatorReward",
      "outputs": [
        {
          "internalType": "uint256",
          "name": "",
          "type": "uint256"
        }
      ],
      "stateMutability": "view",
      "type": "function"
    },
    {
      "inputs": [],
      "name": "maximumInterestPerSecond",
      "outputs": [
        {
          "internalType": "uint64",
          "name": "",
          "type": "uint64"
        }
      ],
      "stateMutability": "view",
      "type": "function"
    },
    {
      "inputs": [],
      "name": "maximumTargetUtilization",
      "outputs": [
        {
          "internalType": "uint256",
          "name": "",
          "type": "uint256"
        }
      ],
      "stateMutability": "view",
      "type": "function"
    },
    {
      "inputs": [],
      "name": "minLiquidatorReward",
      "outputs": [
        {
          "internalType": "uint256",
          "name": "",
          "type": "uint256"
        }
      ],
      "stateMutability": "view",
      "type": "function"
    },
    {
      "inputs": [],
      "name": "minimumInterestPerSecond",
      "outputs": [
        {
          "internalType": "uint64",
          "name": "",
          "type": "uint64"
        }
      ],
      "stateMutability": "view",
      "type": "function"
    },
    {
      "inputs": [],
      "name": "minimumTargetUtilization",
      "outputs": [
        {
          "internalType": "uint256",
          "name": "",
          "type": "uint256"
        }
      ],
      "stateMutability": "view",
      "type": "function"
    },
    {
      "inputs": [],
      "name": "name",
      "outputs": [
        {
          "internalType": "string",
          "name": "",
          "type": "string"
        }
      ],
      "stateMutability": "view",
      "type": "function"
    },
    {
      "inputs": [
        {
          "internalType": "address",
          "name": "owner",
          "type": "address"
        }
      ],
      "name": "nonces",
      "outputs": [
        {
          "internalType": "uint256",
          "name": "",
          "type": "uint256"
        }
      ],
      "stateMutability": "view",
      "type": "function"
    },
    {
      "inputs": [],
      "name": "oracle",
      "outputs": [
        {
          "internalType": "contract IOracle",
          "name": "",
          "type": "address"
        }
      ],
      "stateMutability": "view",
      "type": "function"
    },
    {
      "inputs": [],
      "name": "oracleData",
      "outputs": [
        {
          "internalType": "bytes",
          "name": "",
          "type": "bytes"
        }
      ],
      "stateMutability": "view",
      "type": "function"
    },
    {
      "inputs": [],
      "name": "owner",
      "outputs": [
        {
          "internalType": "address",
          "name": "",
          "type": "address"
        }
      ],
      "stateMutability": "view",
      "type": "function"
    },
    {
      "inputs": [
        {
          "internalType": "enum Market.PauseType",
          "name": "pauseProp",
          "type": "uint8"
        }
      ],
      "name": "pauseOptions",
      "outputs": [
        {
          "internalType": "bool",
          "name": "pauseStatus",
          "type": "bool"
        }
      ],
      "stateMutability": "view",
      "type": "function"
    },
    {
      "inputs": [],
      "name": "pendingOwner",
      "outputs": [
        {
          "internalType": "address",
          "name": "",
          "type": "address"
        }
      ],
      "stateMutability": "view",
      "type": "function"
    },
    {
      "inputs": [],
      "name": "penrose",
      "outputs": [
        {
          "internalType": "contract IPenrose",
          "name": "",
          "type": "address"
        }
      ],
      "stateMutability": "view",
      "type": "function"
    },
    {
      "inputs": [
        {
          "internalType": "address",
          "name": "owner",
          "type": "address"
        },
        {
          "internalType": "address",
          "name": "spender",
          "type": "address"
        },
        {
          "internalType": "uint256",
          "name": "value",
          "type": "uint256"
        },
        {
          "internalType": "uint256",
          "name": "deadline",
          "type": "uint256"
        },
        {
          "internalType": "uint8",
          "name": "v",
          "type": "uint8"
        },
        {
          "internalType": "bytes32",
          "name": "r",
          "type": "bytes32"
        },
        {
          "internalType": "bytes32",
          "name": "s",
          "type": "bytes32"
        }
      ],
      "name": "permit",
      "outputs": [],
      "stateMutability": "nonpayable",
      "type": "function"
    },
    {
      "inputs": [
        {
          "internalType": "bytes",
          "name": "data",
          "type": "bytes"
        },
        {
          "internalType": "uint16",
          "name": "actionType",
          "type": "uint16"
        }
      ],
      "name": "permitAction",
      "outputs": [],
      "stateMutability": "nonpayable",
      "type": "function"
    },
    {
      "inputs": [
        {
          "internalType": "address",
          "name": "owner",
          "type": "address"
        },
        {
          "internalType": "address",
          "name": "spender",
          "type": "address"
        },
        {
          "internalType": "uint256",
          "name": "value",
          "type": "uint256"
        },
        {
          "internalType": "uint256",
          "name": "deadline",
          "type": "uint256"
        },
        {
          "internalType": "uint8",
          "name": "v",
          "type": "uint8"
        },
        {
          "internalType": "bytes32",
          "name": "r",
          "type": "bytes32"
        },
        {
          "internalType": "bytes32",
          "name": "s",
          "type": "bytes32"
        }
      ],
      "name": "permitBorrow",
      "outputs": [],
      "stateMutability": "nonpayable",
      "type": "function"
    },
    {
      "inputs": [],
      "name": "protocolFee",
      "outputs": [
        {
          "internalType": "uint256",
          "name": "",
          "type": "uint256"
        }
      ],
      "stateMutability": "view",
      "type": "function"
    },
    {
      "inputs": [],
      "name": "rateTimestamp",
      "outputs": [
        {
          "internalType": "uint256",
          "name": "",
          "type": "uint256"
        }
      ],
      "stateMutability": "view",
      "type": "function"
    },
    {
      "inputs": [],
      "name": "rateValidDuration",
      "outputs": [
        {
          "internalType": "uint256",
          "name": "",
          "type": "uint256"
        }
      ],
      "stateMutability": "view",
      "type": "function"
    },
    {
      "inputs": [
        {
          "internalType": "address",
          "name": "from",
          "type": "address"
        },
        {
          "internalType": "uint256",
          "name": "share",
          "type": "uint256"
        },
        {
          "internalType": "bytes",
          "name": "data",
          "type": "bytes"
        }
      ],
      "name": "sellCollateral",
      "outputs": [
        {
          "internalType": "uint256",
          "name": "amountOut",
          "type": "uint256"
        }
      ],
      "stateMutability": "nonpayable",
      "type": "function"
    },
    {
      "inputs": [
        {
          "internalType": "contract ILeverageExecutor",
          "name": "_executor",
          "type": "address"
        }
      ],
      "name": "setLeverageExecutor",
      "outputs": [],
      "stateMutability": "nonpayable",
      "type": "function"
    },
    {
      "inputs": [
        {
          "internalType": "contract IOracle",
          "name": "_oracle",
          "type": "address"
        },
        {
          "internalType": "bytes",
          "name": "_oracleData",
          "type": "bytes"
        },
        {
          "internalType": "address",
          "name": "_conservator",
          "type": "address"
        },
        {
          "internalType": "uint256",
          "name": "_callerFee",
          "type": "uint256"
        },
        {
          "internalType": "uint256",
          "name": "_protocolFee",
          "type": "uint256"
        },
        {
          "internalType": "uint256",
          "name": "_liquidationBonusAmount",
          "type": "uint256"
        },
        {
          "internalType": "uint256",
          "name": "_minLiquidatorReward",
          "type": "uint256"
        },
        {
          "internalType": "uint256",
          "name": "_maxLiquidatorReward",
          "type": "uint256"
        },
        {
          "internalType": "uint256",
          "name": "_totalBorrowCap",
          "type": "uint256"
        },
        {
          "internalType": "uint256",
          "name": "_collateralizationRate",
          "type": "uint256"
        },
        {
          "internalType": "uint256",
          "name": "_liquidationCollateralizationRate",
          "type": "uint256"
        }
      ],
      "name": "setMarketConfig",
      "outputs": [],
      "stateMutability": "nonpayable",
      "type": "function"
    },
    {
      "inputs": [],
      "name": "startingInterestPerSecond",
      "outputs": [
        {
          "internalType": "uint64",
          "name": "",
          "type": "uint64"
        }
      ],
      "stateMutability": "view",
      "type": "function"
    },
    {
      "inputs": [],
      "name": "symbol",
      "outputs": [
        {
          "internalType": "string",
          "name": "",
          "type": "string"
        }
      ],
      "stateMutability": "view",
      "type": "function"
    },
    {
      "inputs": [],
      "name": "totalAsset",
      "outputs": [
        {
          "internalType": "uint128",
          "name": "elastic",
          "type": "uint128"
        },
        {
          "internalType": "uint128",
          "name": "base",
          "type": "uint128"
        }
      ],
      "stateMutability": "view",
      "type": "function"
    },
    {
      "inputs": [],
      "name": "totalBorrow",
      "outputs": [
        {
          "internalType": "uint128",
          "name": "elastic",
          "type": "uint128"
        },
        {
          "internalType": "uint128",
          "name": "base",
          "type": "uint128"
        }
      ],
      "stateMutability": "view",
      "type": "function"
    },
    {
      "inputs": [],
      "name": "totalBorrowCap",
      "outputs": [
        {
          "internalType": "uint256",
          "name": "",
          "type": "uint256"
        }
      ],
      "stateMutability": "view",
      "type": "function"
    },
    {
      "inputs": [],
      "name": "totalCollateralShare",
      "outputs": [
        {
          "internalType": "uint256",
          "name": "",
          "type": "uint256"
        }
      ],
      "stateMutability": "view",
      "type": "function"
    },
    {
      "inputs": [],
      "name": "totalSupply",
      "outputs": [
        {
          "internalType": "uint256",
          "name": "",
          "type": "uint256"
        }
      ],
      "stateMutability": "view",
      "type": "function"
    },
    {
      "inputs": [
        {
          "internalType": "address",
          "name": "to",
          "type": "address"
        },
        {
          "internalType": "uint256",
          "name": "amount",
          "type": "uint256"
        }
      ],
      "name": "transfer",
      "outputs": [
        {
          "internalType": "bool",
          "name": "",
          "type": "bool"
        }
      ],
      "stateMutability": "nonpayable",
      "type": "function"
    },
    {
      "inputs": [
        {
          "internalType": "address",
          "name": "from",
          "type": "address"
        },
        {
          "internalType": "address",
          "name": "to",
          "type": "address"
        },
        {
          "internalType": "uint256",
          "name": "amount",
          "type": "uint256"
        }
      ],
      "name": "transferFrom",
      "outputs": [
        {
          "internalType": "bool",
          "name": "",
          "type": "bool"
        }
      ],
      "stateMutability": "nonpayable",
      "type": "function"
    },
    {
      "inputs": [
        {
          "internalType": "address",
          "name": "newOwner",
          "type": "address"
        },
        {
          "internalType": "bool",
          "name": "direct",
          "type": "bool"
        },
        {
          "internalType": "bool",
          "name": "renounce",
          "type": "bool"
        }
      ],
      "name": "transferOwnership",
      "outputs": [],
      "stateMutability": "nonpayable",
      "type": "function"
    },
    {
      "inputs": [],
      "name": "updateExchangeRate",
      "outputs": [
        {
          "internalType": "bool",
          "name": "updated",
          "type": "bool"
        },
        {
          "internalType": "uint256",
          "name": "rate",
          "type": "uint256"
        }
      ],
      "stateMutability": "nonpayable",
      "type": "function"
    },
    {
      "inputs": [
        {
          "internalType": "enum Market.PauseType",
          "name": "_type",
          "type": "uint8"
        },
        {
          "internalType": "bool",
          "name": "val",
          "type": "bool"
        }
      ],
      "name": "updatePause",
      "outputs": [],
      "stateMutability": "nonpayable",
      "type": "function"
    },
    {
      "inputs": [
        {
          "internalType": "address",
          "name": "",
          "type": "address"
        }
      ],
      "name": "userBorrowPart",
      "outputs": [
        {
          "internalType": "uint256",
          "name": "",
          "type": "uint256"
        }
      ],
      "stateMutability": "view",
      "type": "function"
    },
    {
      "inputs": [
        {
          "internalType": "address",
          "name": "",
          "type": "address"
        }
      ],
      "name": "userCollateralShare",
      "outputs": [
        {
          "internalType": "uint256",
          "name": "",
          "type": "uint256"
        }
      ],
      "stateMutability": "view",
      "type": "function"
    },
    {
      "inputs": [],
      "name": "yieldBox",
      "outputs": [
        {
          "internalType": "contract YieldBox",
          "name": "",
          "type": "address"
        }
      ],
      "stateMutability": "view",
      "type": "function"
    }
  ],
  "bytecode": "0x6101408060405234620001e5576200001781620001ea565b601381526001602082017f546170696f63612053696e67756c617269747900000000000000000000000000815260206040516200005481620001ea565b8381520192603160f81b845251902091208160e052610100918183524660a0526040519160208301907f8b73c3c69bb8fe3d512ecc4cf759cc79239f7b179b0ffacaa9a75d522b39400f92838352604085015260608401524660808401523060a084015260a0835260c083019280841060018060401b03851117620001cf5760408490525190206080523060c052610120908152600580546001600160a01b0319163390811790915560007f8be0079c531659141344cd1fd0a4f28419497f9722a3daafe3b4186f6b6457e08180a362013880601b5562015f90601c55612710601d55612ee06020557f0bd4060688a1800ae986e4840aebc924bb40b5bf44de4583df2257220b54b77c6027557f7d1dc38e60930664f8cbf495da6556ca091d2f92d6550877750c049864b182306028556161a860295560326030556147d9928362000207843960805183613485015260a05183613550015260c0518361344f015260e051836134d4015251826134fa015251816134b10152f35b634e487b7160e01b600052604160045260246000fd5b600080fd5b604081019081106001600160401b03821117620001cf5760405256fe608080604052600436101561001357600080fd5b60009060e08235811c918262a02a2014612a0e5750816302ce728f146129e557816306fdde031461292e578163078dfbe71461282b578163095ea7b3146128045781630c4e84f0146126ec57816318160ddd146126cb5781631c9e379b146126925781631da8bf10146125dc57816323b872dd1461243f578163313ce567146123ad578163331960ff1461238f57816334d441d0146123715781633644e5151461235657816337b6b7b91461233857816338d52e0f1461230f5781633ba0b9a9146122f15781633f741adb146122cc57816340626d8b146122ae57816344de240a14612290578163473e3ce71461227257816348e4163e146122395781634d7f2a341461221b5781634e71e0c81461216d578163529898f21461215057816352f353eb14612129578163551402321461210257816355c2ab94146120d857816357935462146120ba5781635dfe04e81461205b5781636c3d8b8f1461203257816370a0823114611ff95781637277854714611fc157816374645ff314611f965781637dc0d1d014611f6d5781637ecebe0014611f345781637fa0b84e14611f02578163821226e814611ee45781638285ef4014611eb25781638c5d0ed314611e945781638da5cb5b14611e6b578163910dd7c814611bf1578163959916dc14611bd357816395d89b4114611b1957816399a9702814611af15781639c5d719214611ad35781639e15e89f14611a98578163a9059cbb146119b5578163b0e21e8a14611997578163b27c0e741461195c578163bb4cfe3b1461193e578163ce8849ed14611915578163d3fb2a381461149d578163d4e4534e14610bf3578163d505accf14610a6857508063d8dfeb4514610a3f578063da863f0e14610a16578063dd62ed3e146109c7578063de4065771461099e578063e0996cb614610980578063e30c397814610957578063e7d6de801461045c578063ea64dd561461043e578063eec0f42e14610420578063ef2b234a146103a9578063f42760b71461038b578063f8ba4cff1461036f578063f9557ccb146103395763ffe04c661461031957600080fd5b346103365780600319360112610336576020602a54604051908152f35b80fd5b5034610336578060031936011261033657602554604080516001600160801b038316815260809290921c602083015290f35b0390f35b5034610336578060031936011261033657610388613dc3565b80f35b50346103365780600319360112610336576020602b54604051908152f35b5034610336576020366003190112610336576004356001600160a01b038181169182900361041c576103e081600554163314612d15565b816021549182167ffb4fd7114609dd603b57adbc2082205bfbbcabf9265c4b437b472f5c592b8cd78580a36001600160a01b0319161760215580f35b8280fd5b50346103365780600319360112610336576020600c54604051908152f35b50346103365780600319360112610336576020601f54604051908152f35b503461033657606036600319011261033657610476612a56565b602435906044356001600160401b03811161095357610499903690600401612ce8565b600660005260076020527f55c5b153ab560fcde54a63b18c7f53d75501706907cef8767fbded79ab9997c7546104d29060ff1615613ee6565b6104da6130af565b50506104e4613dc3565b6104f96001600160a01b038416301415613f63565b602154610510906001600160a01b03161515613fae565b61051a848461418e565b6001600160a01b0383168552601860205260408520805461053c908690612df7565b905561054a84601554612df7565b60155583306001600160a01b0385167f8ad4d3ff00da092c7ad9a573ea4f5f6a3dffc6712dc06d3f78f49b862297c4028880a46001600160a01b03831685526026602090815260408087206028548089529252862054851115610923575060018060a01b038316855260266020526040852060285486526020528460408120555b600954600c54602154604080516311a5cc7760e31b815293909284926001600160a01b039283169284928c92849261060e928e9290911690309060048601614010565b03925af18015610918576108ea575b50602060018060a01b0360095416946064600c54604051978893849263442c159960e01b8452600484015260248301528960448301525afa9384156108df5785946108a8575b50602154600e54600b54600d54604051630fb5d60d60e01b81529760209689966001600160a01b039687169688968d9688966106af969495948e9490939181169216906004890161403f565b03925af1918215610869578392610874575b5060018060a01b0360095416600e549360405191638eb22cdd60e01b95868452806004850152856024850152826044850152602084606481855afa938415610869578394610834575b5060209060018060a01b03861684526017825260646040852054986107368a610731613879565b614288565b946040519586948593845260048401526024830152600160448301525afa91821561082857916107ea575b5060209461078f9361078a939092116107975761077f9082806142e9565b505b60115490614096565b613f23565b604051908152f35b506107a0613879565b80516001600160801b039081166107c55750506107bf845b82806142e9565b50610781565b81816107dc6107e5938a6107bf9601511689612da0565b91511690612dc9565b6107b8565b919290506020823d602011610820575b8161080760209383612cac565b8101031261081b5790519091906020610761565b600080fd5b3d91506107fa565b604051903d90823e3d90fd5b9093506020813d602011610861575b8161085060209383612cac565b8101031261081b575192602061070a565b3d9150610843565b6040513d85823e3d90fd5b9091506020813d6020116108a0575b8161089060209383612cac565b8101031261081b575190386106c1565b3d9150610883565b919093506020823d6020116108d7575b816108c560209383612cac565b8101031261081b579051926020610663565b3d91506108b8565b6040513d87823e3d90fd5b61090b9060403d604011610911575b6109038183612cac565b810190613ffa565b5061061d565b503d6108f9565b6040513d88823e3d90fd5b60018060a01b03841686526026602052604086209086526020526040852061094c858254612df7565b90556105cb565b8380fd5b50346103365780600319360112610336576006546040516001600160a01b039091168152602090f35b50346103365780600319360112610336576020601d54604051908152f35b50346103365780600319360112610336576009546040516001600160a01b039091168152602090f35b5034610336576040366003190112610336576109e1612a56565b60406109eb612a6c565b9260018060a01b03809316815260026020522091166000526020526020604060002054604051908152f35b50346103365780600319360112610336576021546040516001600160a01b039091168152602090f35b5034610336578060031936011261033657600b546040516001600160a01b039091168152602090f35b905034610bef57610a7836612ad9565b83949697939291924211610baa57610b5692610b4e9260018060a01b0395868b1697886000526004602052604060002091825492610ab5846137a6565b90556040519160208301937f9cc5629bbe7baa98a89f6f8c2c396b83ab62dbb6cbb12f17f1d6ba7e6f53e2668552600060408501528b60608501528a8d1660808501528d60a085015260c0840152818301528152610b1281612c75565b519020610b1d61344c565b9060405190602082019261190160f01b84526022830152604282015260428152610b4681612c91565b519020613721565b919091613622565b1603610b655761038892613803565b60405162461bcd60e51b815260206004820152601e60248201527f45524332305065726d69743a20696e76616c6964207369676e617475726500006044820152606490fd5b60405162461bcd60e51b815260206004820152601d60248201527f45524332305065726d69743a206578706972656420646561646c696e650000006044820152606490fd5b5080fd5b823461033657608036600319011261033657610c0d612a56565b6064356001600160401b03811161041c57610c2c903690600401612ce8565b600584939293526007602052610c4960ff60408620541615613ee6565b610c516130af565b5050610c5b613dc3565b610c706001600160a01b038316301415613f63565b6021546001600160a01b031690610c88821515613fae565b600954600e54604051638eb22cdd60e01b815260048101829052604480356024830152600190820152909390916001600160a01b0316602083606481845afa92831561149257889361145a575b5085888096856113f6575b505050505050620186a0610cf8603054602435612da0565b04610d01613879565b610d0d82602435612e04565b90876020604051610d1d81612c5a565b828152015280516001600160801b031661137a57610da590825b81516001600160801b0391610d51919083169083166138c5565b1681526020810180519091610da0916001600160801b0390610d78908783169083166138c5565b169283905251601480546001600160801b0319166001600160801b0392909216919091179055565b613d9e565b6016548015908115611364575b5015611325576001600160a01b03851687526017602052604087208054610dda908390612e04565b90556040519082825260208201526024359030907f3a5151e57d3bc9798e7853034ac52293d1a0e12a2b44725e75b03b21f86477a6604060018060a01b03891692a4806112f9575b5060018060a01b03600954166020600e54606460405180948193638eb22cdd60e01b8352600483015260243560248301528a60448301525afa9081156109185786916112c3575b50610e7261389f565b6020810180516103e86001600160801b039091161061128d578151610ef992610ed3916001600160801b0390610ead9087831690831661426f565b1690819052602580546001600160801b0319166001600160801b03909216919091179055565b51602580546001600160801b031660809290921b6001600160801b031916919091179055565b60018060a01b036009541686600e54823b15610bef57610f3492849183604051809681958294630208d92960e11b8452303060048601614245565b03925af1801561128257611266575b50600954600e54602154604080516311a5cc7760e31b8152969594909387936001600160a01b039182169385938d938593610f879390911690309060048601614010565b03925af18015610918576020938791611246575b50602154600c54600d54600b546001600160a01b0390811696938116959116938a93610fea9291610fcb91612e04565b99896040519b8c998a9889976332642b4760e21b89526004890161403f565b03925af1918215610869578392611212575b5060018060a01b03600954166020600c54606460405180948193638eb22cdd60e01b835260048301528760248301528860448301525afa9081156111d55784916111e0575b5061104c818361418e565b8015611158575b6001600160a01b03821684526018602052604084208054611075908390612e04565b905561108381601554612e04565b601555600c546009546001600160a01b0316908590823b15610bef576110c492849183604051809681958294630208d92960e11b8452308c60048601614245565b03925af180156108df57611144575b5061078f9161078a9160209560018060a01b038316815260268752604081206028548252875260408120611108838254612e04565b90556001600160a01b0383169081907f9ed03113de523cebfe5e49d5f8e12894b1c0d42ce805990461726444c90eab879080a460115490614096565b61114e8591612c16565b61095357846110d3565b5060018060a01b03600954166020600c54606460405180948193638eb22cdd60e01b835260048301528860248301528860448301525afa9081156111d55784916111a3575b50611053565b90506020813d6020116111cd575b816111be60209383612cac565b8101031261081b57518461119d565b3d91506111b1565b6040513d86823e3d90fd5b90506020813d60201161120a575b816111fb60209383612cac565b8101031261081b575184611041565b3d91506111ee565b9091506020813d60201161123e575b8161122e60209383612cac565b8101031261081b57519083610ffc565b3d9150611221565b61125f915060403d604011610911576109038183612cac565b5087610f9b565b610f8793929196611278604092612c16565b9691929350610f43565b6040513d89823e3d90fd5b60405162461bcd60e51b815260206004820152600e60248201526d14d1d30e881b5a5b881b1a5b5a5d60921b6044820152606490fd5b90506020813d6020116112f1575b816112de60209383612cac565b810103126112ed575186610e69565b8580fd5b3d91506112d1565b600a546001600160a01b031686526001602052604086208054909161131d91612e04565b905585610e22565b60405162461bcd60e51b815260206004820152601760248201527614d1d30e88189bdc9c9bddc818d85c081c995858da1959604a1b6044820152606490fd5b6014546001600160801b03161115905088610db2565b6020810190826113d36113aa61139960018060801b0386511684612da0565b84516001600160801b031690612dc9565b83519094906113c2906001600160801b031686612da0565b90516001600160801b031690612dc9565b106113e3575b610da59192610d37565b6113ef610da5926137a6565b91506113d9565b60409596975061141b8651978896879586946311a5cc7760e31b865260048601614010565b03925af19081156108df57859161143a575b5090858080858882610ce0565b611453915060403d604011610911576109038183612cac565b508561142d565b9092506020813d60201161148a575b8161147660209383612cac565b8101031261148657519188610cd5565b8780fd5b3d9150611469565b6040513d8a823e3d90fd5b823461033657610160366003190112610336576001600160a01b039060043582811690819003610bef576001600160401b0392602435848111610953576114e8903690600401612ce8565b9094604435938385168095036112ed5761150784600554163314612d15565b806118d7575b508161175a575b5050908092935061171a575b505060643580611702575b50608435806116ea575b5060a435806116d3575b5060c435806116af575b5060e4358061168b575b50610104358061165a575b5061012435806115e6575b506101443580611577575080f35b601e54811061158657601f5580f35b60405162461bcd60e51b815260206004820152603260248201527f4d61726b65743a206c69717569646174696f6e436f6c6c61746572616c697a616044820152711d1a5bdb94985d19481d1bdbc81cdb585b1b60721b6064820152608490fd5b6115f5620186a0821115612d60565b601f54811161160757601e5581611569565b60405162461bcd60e51b815260206004820152602560248201527f4d61726b65743a20636f6c6c61746572616c697a6174696f6e5261746520746f6044820152646f2062696760d81b6064820152608490fd5b806016547fae6e0ab3b95f0a53ff9660a390ccedcbbf1f2355dce974a9841af106fddcfaba8480a36016558161155e565b611699620186a08210612d60565b6116a6601b548211612d60565b601c5581611553565b6116bd620186a08210612d60565b6116ca601c548210612d60565b601b5581611549565b6116e1620186a08210612d60565b601d558161153f565b6116f9620186a0821115612d60565b601a5581611535565b611711620186a0821115612d60565b6019558161152b565b816008549182167f5a62d22209e370e38eea92cfddcd228e656e6ec139243392a760a7769f5877fd8580a36001600160a01b031916176008558180611520565b81116118c35761176b601054612b57565b601f8111611862575b5083601f82116001146117dc57849582939495926117d1575b50508160011b916000199060031b1c1916176010555b7fa6f004921c944d4b8bf6e38462b00f36a58d62495d56b51f571ab78f732c98158380a19082918480611514565b01359050858061178d565b60108552601f198216957f1b6847dc741a1b0cd08d278845f9d819d87b734759afb55fe2de5cb82a9ae672918660205b89821061184a5750508360019596979810611830575b505050811b016010556117a3565b0135600019600384901b60f8161c19169055858080611822565b8060018496829495870135815501950192019061180c565b601085527f1b6847dc741a1b0cd08d278845f9d819d87b734759afb55fe2de5cb82a9ae672601f830160051c8101602084106118bc575b601f90920160051c01905b8181106118b15750611774565b8581556001016118a4565b5080611899565b634e487b7160e01b84526041600452602484fd5b600f80546001600160a01b0319169190911790557f0b2d6eb667d0522c3eb86e4288afecae6c11591ffd1345d4d12407e0598bca9b8580a18661150d565b82346103365780600319360112610336576008546040516001600160a01b039091168152602090f35b82346103365780600319360112610336576020601e54604051908152f35b82346103365780600319360112610336576060602454604051906001600160401b0380821683528160401c16602083015260801c6040820152f35b82346103365780600319360112610336576020601a54604051908152f35b8234610336576040366003190112610336576119cf612a56565b60243580928115801590611a86575b611a16575b50506040519182526001600160a01b031690339060008051602061478483398151915290602090a3602060405160018152f35b33815260016020526040812054611a2f83821015613576565b6001600160a01b0384169033829003611a4a575b50506119e3565b604093611a6191611a5c8415156135bb565b612df7565b338352600160205283832055815220611a7b838254612e04565b905581838080611a43565b50336001600160a01b038416146119de565b8234610336576040366003190112610336576060611ac0611ab7612a56565b60243590612f43565b9060405192835260208301526040820152f35b82346103365780600319360112610336576020602c54604051908152f35b823461033657604036600319011261033657602061078f611b10612a56565b6024359061331a565b8234610336578060031936011261033657808060018060a01b03600b541660405160208101906395d89b4160e01b825260048152611b5681612c5a565b51915afa611b6261458b565b915015611bc257611b7561036b91614612565b611bae6023604051809362746d2d60e81b6020830152611b9e8151809260208686019101612a82565b8101036003810184520182612cac565b604051918291602083526020830190612aa5565b5061036b611bce6145bb565b611b75565b82346103365780600319360112610336576020603054604051908152f35b905034610bef576040366003190112610bef576004356001600160401b03811161041c573660238201121561041c57806004013590611c2f82612ccd565b92611c3d6040519485612cac565b8284528460209283860194366024828401011161041c578060248693018737860101526024359161ffff83168093036112ed57610100938486805181010312611e6757611c89906130a2565b91611c9660408701613600565b90611ca360608801613600565b9660808101519660a082015192611cbc60c08401613614565b91818401519301519360018060a01b03808097169b1698814211611e2257928b88819897948f94610b4e978f8f8f89604091611d999e9b50600014611dfb577f9cc5629bbe7baa98a89f6f8c2c396b83ab62dbb6cbb12f17f1d6ba7e6f53e266985b8152600488522092835493611d32856137a6565b905560405196870197885260408701528d6060870152608086015260a085015260c0840152818301528152611d6681612c75565b519020611d7161344c565b90604051908a82019261190160f01b84526022830152604282015260428152610b4681612c91565b1603611db7575015611dae5761038892613803565b610388926137b5565b6064906040519062461bcd60e51b82526004820152601e60248201527f45524332305065726d69743a20696e76616c6964207369676e617475726500006044820152fd5b7f5c9ba5f0d101616843d7918f48ea857d6da95e04ac6d719e105e50a355e7c5d698611d1e565b60405162461bcd60e51b815260048101899052601d60248201527f45524332305065726d69743a206578706972656420646561646c696e650000006044820152606490fd5b8680fd5b82346103365780600319360112610336576005546040516001600160a01b039091168152602090f35b82346103365780600319360112610336576020601b54604051908152f35b8234610336578060031936011261033657601454604080516001600160801b038316815260809290921c602083015290f35b82346103365780600319360112610336576020602e54604051908152f35b823461033657604036600319011261033657611f29611f1f612a56565b60243590336137b5565b602060405160018152f35b8234610336576020366003190112610336576020906040906001600160a01b03611f5c612a56565b168152600483522054604051908152f35b8234610336578060031936011261033657600f546040516001600160a01b039091168152602090f35b823461033657806003193601126103365761036b604051611bae81611fba81612b91565b0382612cac565b82346103365760203660031901126103365760043590600982101561033657602060ff611fed84612b28565b54166040519015158152f35b8234610336576020366003190112610336576020906040906001600160a01b03612021612a56565b168152600183522054604051908152f35b8234610336578060031936011261033657600a546040516001600160a01b039091168152602090f35b823461033657806003193601126103365761207461385a565b50608061207f6138de565b509350505050604051916001600160401b0380825116845260208201511660208401526040600180861b039101511660408301526060820152f35b82346103365780600319360112610336576020601c54604051908152f35b823461033657806003193601126103365760206001600160401b03602d5460401c16604051908152f35b823461033657806003193601126103365760206001600160401b03602d5416604051908152f35b823461033657806003193601126103365760206001600160401b03602f5416604051908152f35b823461033657806003193601126103365760208054604051908152f35b82346103365780600319360112610336576006546001600160a01b0390818116338190036121d757806005549384167f8be0079c531659141344cd1fd0a4f28419497f9722a3daafe3b4186f6b6457e08680a36001600160a01b0319928316176005551660065580f35b606460405162461bcd60e51b815260206004820152602060248201527f4f776e61626c653a2063616c6c657220213d2070656e64696e67206f776e65726044820152fd5b82346103365780600319360112610336576020602954604051908152f35b8234610336576020366003190112610336576020906040906001600160a01b03612261612a56565b168152601783522054604051908152f35b82346103365780600319360112610336576020601554604051908152f35b82346103365780600319360112610336576020600e54604051908152f35b82346103365780600319360112610336576020601654604051908152f35b823461033657606036600319011261033657602061078f604435602435600435612e2a565b82346103365780600319360112610336576020601154604051908152f35b8234610336578060031936011261033657600d546040516001600160a01b039091168152602090f35b82346103365780600319360112610336576020601254604051908152f35b8234610336578060031936011261033657602061078f61344c565b82346103365780600319360112610336576020601954604051908152f35b82346103365780600319360112610336576020601354604051908152f35b8234610336578060031936011261033657808060018060a01b03600d5416604051602081019063313ce56760e01b8252600481526123ea81612c5a565b51915afa906123f761458b565b9180612434575b1561242957602082805181010312610336575061241e6020809201613614565b60ff60405191168152f35b50506020601261241e565b5060208251146123fe565b823461033657606036600319011261033657612459612a56565b90612462612a6c565b60443591826124a0575b506040519182526001600160a01b0390811692169060008051602061478483398151915290602090a3602060405160018152f35b6001600160a01b038481168083526001602090815260408420549286906124c982861015613576565b8616938484036124de575b505050505061246c565b838652600283526040808720338852845286205460018101612548575b50926001602096936125268794604097611a5c6000805160206147848339815191529c9a15156135bb565b928552528383205581522061253c858254612e04565b905591858085816124d4565b9091811061259c57926001602096936125268a6000805160206147848339815191529a98956125798260409a612df7565b86895260028552898920338a5285528989205594975094979950509396506124fb565b60405162461bcd60e51b815260048101849052601860248201527745524332303a20616c6c6f77616e636520746f6f206c6f7760401b6044820152606490fd5b905034610bef576125ec36612ad9565b83979496979291924211610baa5761268392610b4e928a60018060a01b0396878c169889835260046020526040832091825492612628846137a6565b90556040519260208401947f5c9ba5f0d101616843d7918f48ea857d6da95e04ac6d719e105e50a355e7c5d6865260408501528b60608501528a8d1660808501528d60a085015260c0840152818301528152610b1281612c75565b1603610b6557610388926137b5565b8234610336576020366003190112610336576020906040906001600160a01b036126ba612a56565b168152601883522054604051908152f35b8234610336578060031936011261033657602060255460801c604051908152f35b8234610336576040366003190112610336576004356009811015610bef57612712612aca565b6008549091906001600160a01b031633036127c85760ff61273282612b28565b5416151591151591821461278e57808260ff61275061277e94612b28565b54161515827feeec81de25875ce1725479bb76f720a8defdb43dea041919ae37bb4aae9847c08780a4612b28565b9060ff8019835416911617905580f35b60405162461bcd60e51b81526020600482015260126024820152714d61726b65743a2073616d6520737461746560701b6044820152606490fd5b60405162461bcd60e51b815260206004820152601460248201527313585c9ad95d0e881d5b985d5d1a1bdc9a5e995960621b6044820152606490fd5b823461033657604036600319011261033657611f29612821612a56565b6024359033613803565b823461033657606036600319011261033657612845612a56565b61284d612aca565b6044359081151582036109535760018060a01b0392839161287383600554163314612d15565b1561291757169081159081159161290f575b50156128d257806005549283167f8be0079c531659141344cd1fd0a4f28419497f9722a3daafe3b4186f6b6457e08580a36001600160a01b03199182161760055560068054909116905580f35b60405162461bcd60e51b81526020600482015260156024820152744f776e61626c653a207a65726f206164647265737360581b6044820152606490fd5b905084612885565b9150501660018060a01b0319600654161760065580f35b8234610336578060031936011261033657808060018060a01b03600b541660405160208101906306fdde0360e01b82526004815261296b81612c5a565b51915afa61297761458b565b9150156129d45761298a61036b91614612565b611bae6034604051809373546170696f63612053696e67756c61726974792d60601b60208301526129c48151809260208686019101612a82565b8101036014810184520182612cac565b5061036b6129e06145bb565b61298a565b82346103365780600319360112610336576040612a006130af565b825191151582526020820152f35b839034610bef576040366003190112610bef576040602092612a2e612a56565b612a36612a6c565b6001600160a01b0391821683526003865283832091168252845220548152f35b600435906001600160a01b038216820361081b57565b602435906001600160a01b038216820361081b57565b60005b838110612a955750506000910152565b8181015183820152602001612a85565b90602091612abe81518092818552858086019101612a82565b601f01601f1916010190565b60243590811515820361081b57565b60e090600319011261081b576001600160a01b0390600435828116810361081b5791602435908116810361081b5790604435906064359060843560ff8116810361081b579060a4359060c43590565b6009811015612b41576000526007602052604060002090565b634e487b7160e01b600052602160045260246000fd5b90600182811c92168015612b87575b6020831014612b7157565b634e487b7160e01b600052602260045260246000fd5b91607f1691612b66565b60105460009291612ba182612b57565b908181526001928381169081600014612bfb5750600114612bc157505050565b9092935060106000526020928360002092846000945b838610612be75750505050010190565b805485870183015294019385908201612bd7565b91935050602093945060ff191683830152151560051b010190565b6001600160401b038111612c2957604052565b634e487b7160e01b600052604160045260246000fd5b606081019081106001600160401b03821117612c2957604052565b604081019081106001600160401b03821117612c2957604052565b61010081019081106001600160401b03821117612c2957604052565b608081019081106001600160401b03821117612c2957604052565b90601f801991011681019081106001600160401b03821117612c2957604052565b6001600160401b038111612c2957601f01601f191660200190565b9181601f8401121561081b578235916001600160401b03831161081b576020838186019501011161081b57565b15612d1c57565b606460405162461bcd60e51b815260206004820152602060248201527f4f776e61626c653a2063616c6c6572206973206e6f7420746865206f776e65726044820152fd5b15612d6757565b60405162461bcd60e51b815260206004820152601160248201527013585c9ad95d0e881b9bdd081d985b1a59607a1b6044820152606490fd5b81810292918115918404141715612db357565b634e487b7160e01b600052601160045260246000fd5b8115612dd3570490565b634e487b7160e01b600052601260045260246000fd5b604d8111612db357600a0a90565b91908203918211612db357565b91908201809211612db357565b81810392916000138015828513169184121617612db357565b601454919291612e7391612e6491612e5a91612e50906001600160801b03831690612da0565b9060801c90612dc9565b93601f5490612da0565b612e6d83612de9565b90612dc9565b808310612f3b57612e87612ec39184612df7565b91612ebe612eb8612eaf601e54612ea9612ea086612de9565b60205490612e04565b90612da0565b612e6d84612de9565b91612de9565b612e11565b6509184e72a00090818102918183051490151715612db357670de0b6b3a764000091828102928184051490151715612db3578015612dd357600160ff1b91808314600019831416612db35705906000821215612f34578114612db357600003905b808211612f2f575090565b905090565b5090612f24565b505050600090565b9160018060a01b0380931691600093838552602060178152604091828720549081156130955787838551612f7681612c5a565b8281520152612f836138de565b5050505050919050612f96861515613217565b6009541683600c54898b52601882526064878c2054918851948593849263442c159960e01b8452600484015260248301528d60448301525afa90811561308b578991613058575b509161303861304c97989994926130138861300e613005601898620186a06022540490612da0565b601e5490612da0565b612dc9565b815190936001600160801b0391869161302e91841690612da0565b9201511690612dc9565b81811061305057035b978352522054613263565b9091565b505082613041565b90508381813d8311613084575b61306f8183612cac565b810103126130805751613038612fdd565b8880fd5b503d613065565b85513d8b823e3d90fd5b5086955085949350505050565b5190811515820361081b57565b600f546040805163d6d7d52560e01b8152602060048201529290916001600160a01b03168284806130e260248201612b91565b0381600080955af1801561320b57819482916131cf575b5092841561317257831561313857507f9f9192b5edb17356c524e08d9e025c8e2f6307e6ea52fb7968faa3081f51c3c883918260115580a25b42601355565b5162461bcd60e51b81526020600482015260146024820152734d61726b65743a20696e76616c6964207261746560601b6044820152606490fd5b9192505061318560135460125490612e04565b4211613195575060115490613132565b5162461bcd60e51b815260206004820152601460248201527313585c9ad95d0e881c985d19481d1bdbc81bdb1960621b6044820152606490fd5b809550848092503d8311613204575b6131e88183612cac565b810103126103365760206131fb856130a2565b940151386130f9565b503d6131de565b508251903d90823e3d90fd5b1561321e57565b60405162461bcd60e51b815260206004820152601e60248201527f4d61726b65743a2065786368616e676552617465206e6f742076616c696400006044820152606490fd5b61326e821515613217565b602060018060a01b0360095416916064600c54604051948593849263442c159960e01b845260048401526024830152600060448301525afa90811561330e576000916132db575b509061300e6132c79260225490612da0565b620186a06132d7601e5483612da0565b0491565b906020823d8211613306575b816132f460209383612cac565b8101031261033657505161300e6132b5565b3d91506132e7565b6040513d6000823e3d90fd5b6001600160a01b0316600081815260186020526040812054909261333d91613263565b91835260176020526040832054801561344657811561344657818110613446578281101561343c57601454613386918391611a5c91612e50906001600160801b03831690612da0565b90620186a09283830292808404851490151715613428576133ab9291612e6d91612df7565b91601b5491601c54936133be8585612e11565b80820291848212600160ff1b82141661342857818305149015171561341457058184820194851291129080158216911516176134005750808212612f2f575090565b634e487b7160e01b81526011600452602490fd5b634e487b7160e01b83526011600452602483fd5b634e487b7160e01b85526011600452602485fd5b50505050601b5490565b50505090565b307f00000000000000000000000000000000000000000000000000000000000000006001600160a01b0316148061354d575b156134a7577f000000000000000000000000000000000000000000000000000000000000000090565b60405160208101907f000000000000000000000000000000000000000000000000000000000000000082527f000000000000000000000000000000000000000000000000000000000000000060408201527f000000000000000000000000000000000000000000000000000000000000000060608201524660808201523060a082015260a0815260c081018181106001600160401b03821117612c295760405251902090565b507f0000000000000000000000000000000000000000000000000000000000000000461461347e565b1561357d57565b60405162461bcd60e51b815260206004820152601660248201527545524332303a2062616c616e636520746f6f206c6f7760501b6044820152606490fd5b156135c257565b60405162461bcd60e51b815260206004820152601660248201527545524332303a206e6f207a65726f206164647265737360501b6044820152606490fd5b51906001600160a01b038216820361081b57565b519060ff8216820361081b57565b6005811015612b4157806136335750565b6001810361367b5760405162461bcd60e51b815260206004820152601860248201527745434453413a20696e76616c6964207369676e617475726560401b6044820152606490fd5b600281036136c85760405162461bcd60e51b815260206004820152601f60248201527f45434453413a20696e76616c6964207369676e6174757265206c656e677468006044820152606490fd5b6003146136d157565b60405162461bcd60e51b815260206004820152602260248201527f45434453413a20696e76616c6964207369676e6174757265202773272076616c604482015261756560f01b6064820152608490fd5b9291906fa2a8918ca85bafe22016d0b997e4df60600160ff1b03831161379a5791608094939160ff602094604051948552168484015260408301526060820152600093849182805260015afa1561378d5781516001600160a01b03811615613787579190565b50600190565b50604051903d90823e3d90fd5b50505050600090600390565b6000198114612db35760010190565b7fe50de2333c10a9502fcb1d8ae13a51bbf423153dfc63c2b8997665b32154afc360018060a01b038092169160009083825260036020526040822094169384825260205284604082205580a4565b909160207f8c5be1e5ebec7d5bd14f71427d1e84f3dd0314c0f7b2291e5b200ac8c7c3b9259160018060a01b03809416938460005260028352604060002095169485600052825280604060002055604051908152a3565b6040519061386782612c3f565b60006040838281528260208201520152565b6040519061388682612c5a565b6014546001600160801b038116835260801c6020830152565b604051906138ac82612c5a565b6025546001600160801b038116835260801c6020830152565b6001600160801b039182169082160191908211612db357565b6138e661385a565b50600060206040516138f781612c5a565b82815201526000602060405161390c81612c5a565b82815201526040519061391e82612c3f565b602454916001600160401b038316815260208101926001600160401b038160401c16845260801c60408201528092613954613879565b9261395d61389f565b92600060018060a01b0360095416600e549460018060801b038751166040519063442c159960e01b8252876004830152602482015260006044820152602081606481865afa801561330e57600090613d6a575b89516139c692506001600160801b031690612e04565b80613d35575060005b6139e46001600160401b038293511642612df7565b948515613d0b575050426001600160401b031660208a8101919091528801516001600160801b031615613cc157506020670de0b6b3a7640000613a4685613a418c6001600160401b038d60018060801b0390511691511690612da0565b612da0565b895191900496906001600160801b0390613a6590828a169083166138c5565b168952875160405163442c159960e01b815260048101929092526001600160801b031660248201526000604482015291829060649082905afa801561330e57600090613c8d575b8751613ac292506001600160801b031690612e04565b92613af08461300e620186a0613ada601a548a612da0565b60208c01516001600160801b0316919004612da0565b6040890180519195916001600160801b038088169291613b1390849083166138c5565b16905260208801805190916001600160801b0391613b33919083166138c5565b16905280613c58575060005b602a5490938482811015613bd357613b579083612df7565b90670de0b6b3a7640000820291808304670de0b6b3a76400001490151715612db35761300e613bab613ba5613b976001600160401b0396613bb596612dc9565b93613a41602e549580612da0565b83612e04565b91848d5116612da0565b168089526001600160401b03602d5416809110613bcf5750565b8852565b909150602b54808211613be557505050565b613bee91612df7565b670de0b6b3a7640000810290808204670de0b6b3a76400001490151715612db3576001600160401b039161300e613c31613ba5613b97613c3a95602c5490612dc9565b848d5116612da0565b81602d5460401c16808211613c50575b50168852565b905038613c4a565b87516001600160801b0316670de0b6b3a7640000818102929180840490911490151715612db357613c8891612dc9565b613b3f565b506020813d602011613cb9575b81613ca760209383612cac565b8101031261081b57613ac29051613aac565b3d9150613c9a565b9697939450509350506001600160401b038151166001600160401b03602f5416809103613cff575b509392613cf461389f565b926000926000929190565b81526001925038613ce9565b975098505050505092505091613d1f613879565b91613d2861389f565b9160009160009190600090565b88516001600160801b0316670de0b6b3a7640000818102929180840490911490151715612db357613d6591612dc9565b6139cf565b506020813d602011613d96575b81613d8460209383612cac565b8101031261081b576139c690516139b0565b3d9150613d77565b601480546001600160801b031660809290921b6001600160801b031916919091179055565b613eaa602080613e80613dd46138de565b9396959390929015613eac575050506001600160401b03602f54166000807f33af5ce86e8438eff54589f85332916444457dfa8685493fbd579b809097026b88604051838152a45b805185820151604092830151921b67ffffffffffffffff60401b166001600160401b03919091161760809190911b6001600160801b0319908116919091176024558151601480549092166001600160801b0391821617909155948591015116613d9e565b8051910151821660801b6001600160801b0319166001600160801b03929091169190911617602555565b565b7f33af5ce86e8438eff54589f85332916444457dfa8685493fbd579b809097026b886001600160401b0386511694604051908152a4613e1c565b15613eed57565b60405162461bcd60e51b815260206004820152600e60248201526d13585c9ad95d0e881c185d5cd95960921b6044820152606490fd5b15613f2a57565b60405162461bcd60e51b815260206004820152601160248201527013585c9ad95d0e881a5b9cdbdb1d995b9d607a1b6044820152606490fd5b15613f6a57565b606460405162461bcd60e51b815260206004820152602060248201527f4d61726b65743a2063616e6e6f742065786563757465206f6e20697473656c666044820152fd5b15613fb557565b60405162461bcd60e51b815260206004820152601f60248201527f42423a206c65766572616765206578656375746f72206e6f742076616c6964006044820152606490fd5b919082604091031261081b576020825192015190565b9081526001600160a01b0391821660208201529116604082015260006060820152608081019190915260a00190565b9081526001600160a01b039182166020820152918116604083015260608201929092529116608082015260c060a08201819052810183905260e09290918190848401376000828201840152601f01601f1916010190565b919060018060a01b0380600094168452602060178152604085205490811561418457601881526040862054801561417d57816140d0613879565b9460095416916064600c54604051948593849263442c159960e01b8452600484015260248301528b60448301525afa968715610828578097614147575b505061302e61412c613005614142969798620186a06022540490612da0565b95613a4160018060801b03948587511690612da0565b111590565b9096508187813d8311614176575b61415f8183612cac565b81010312610336575094519461302e61412c61410d565b503d614155565b5050505050565b5060019450505050565b6001600160a01b03163381036141a2575050565b600081815260209060038252604091828220338352815284838320541061420b57838252600381528282203383528152828220546001016141e4575050505050565b6141ff93825260038152828220903383525220918254612df7565b9055388080808061417d565b60649083519062461bcd60e51b82526004820152601460248201527313585c9ad95d0e881b9bdd08185c1c1c9bdd995960621b6044820152fd5b6001600160a01b039182168152911660208201526040810191909152606081019190915260800190565b6001600160801b039182169082160391908211612db357565b60208101805190939291906001600160801b039081166142a9575090925050565b90816107dc816142cc6142c26142d59686511688612da0565b828a511690612dc9565b97511687612da0565b106142dc57565b906142e6906137a6565b90565b92919060009160018060a01b039485831684526020601781526040852054808411614583575b5082156145475761431e613879565b96858260405161432d81612c5a565b828152015261433c8489614288565b9560018060801b039384614355818a16828d511661426f565b168a52614394848b018661436e818a168284511661426f565b16809152610da0878b9d511660018060801b031660018060801b03196014541617601455565b828716825260178452604082206143ac878254612df7565b90558260095416600e549560405190638eb22cdd60e01b82528760048301528a6024830152600160448301528682606481865afa9182156108df578592614514575b5080602554169492803b1561081b57826000916144249a83604051809d81958294630208d92960e11b8452308d60048601614245565b03925af194851561330e577fc8e512d8f188ca059984b5853d2bf653da902696b8512785b182b2c813789a6e9887966144fe575b5061446690828416906138c5565b1660018060801b03196025541617602555838316908183526026875260408320602754908185528852604084205482116000146144d757505081526026855260408120602754825285528060408120555b156144d157508060095416955b60405195865216941692a4565b956144c4565b90918352602687526040832090835286526144f760408320918254612df7565b90556144b7565b614509919450612c16565b600092614466614458565b9091508681813d8311614540575b61452c8183612cac565b8101031261453c575190386143ee565b8480fd5b503d614522565b6064906040519062461bcd60e51b82526004820152601560248201527453474c3a206e6f7468696e6720746f20726570617960581b6044820152fd5b92503861430f565b3d156145b6573d9061459c82612ccd565b916145aa6040519384612cac565b82523d6000602084013e565b606090565b604051906145c882612c5a565b60038252623f3f3f60e81b6020830152565b9081518110156145eb570160200190565b634e487b7160e01b600052603260045260246000fd5b60ff1660ff8114612db35760010190565b80516040811061468a5750805181019060208181840193031261081b576020810151906001600160401b03821161081b570181603f8201121561081b57602081015161465d81612ccd565b9261466b6040519485612cac565b8184526040828401011161081b576142e6916040602085019101612a82565b602092908303614778576000805b60ff81168581109081614759575b50156146ba576146b590614601565b614698565b9260ff809416926146ca84612ccd565b936146d86040519586612cac565b8085526146e7601f1991612ccd565b013687860137825b8581168781108061473c575b156147315761472c91906147266001600160f81b031961471b83886145da565b5116871a91886145da565b53614601565b6146ef565b505094505050905090565b506001600160f81b031961475082866145da565b511615156146fb565b6001600160f81b0319915061476e90866145da565b51161515386146a6565b9150506142e66145bb56feddf252ad1be2c89b69c2b068fc378daa952ba7f163c4a11628f55a4df523b3efa2646970667358221220411ac949b49328cf34231549ae9805e7be6c601e07f0c163481057267a1bcd7764736f6c63430008120033",
  "linkReferences": {},
  "deployedLinkReferences": {}
}