{
  "_format": "hh-sol-artifact-1",
  "contractName": "SGLLiquidation",
  "sourceName": "contracts/markets/singularity/SGLLiquidation.sol",
  "abi": [
    {
      "anonymous": false,
      "inputs": [
        {
          "indexed": true,
          "internalType": "address",
          "name": "owner",
          "type": "address"
        },
        {
          "indexed": true,
          "internalType": "address",
          "name": "spender",
          "type": "address"
        },
        {
          "indexed": false,
          "internalType": "uint256",
          "name": "value",
          "type": "uint256"
        }
      ],
      "name": "Approval",
      "type": "event"
    },
    {
      "anonymous": false,
      "inputs": [
        {
          "indexed": true,
          "internalType": "address",
          "name": "owner",
          "type": "address"
        },
        {
          "indexed": true,
          "internalType": "address",
          "name": "spender",
          "type": "address"
        },
        {
          "indexed": false,
          "internalType": "uint256",
          "name": "value",
          "type": "uint256"
        }
      ],
      "name": "ApprovalBorrow",
      "type": "event"
    },
    {
      "anonymous": false,
      "inputs": [
        {
          "indexed": true,
          "internalType": "address",
          "name": "newAddress",
          "type": "address"
        }
      ],
      "name": "BidExecutionSwapperUpdated",
      "type": "event"
    },
    {
      "anonymous": false,
      "inputs": [
        {
          "indexed": true,
          "internalType": "address",
          "name": "old",
          "type": "address"
        },
        {
          "indexed": true,
          "internalType": "address",
          "name": "_new",
          "type": "address"
        }
      ],
      "name": "ConservatorUpdated",
      "type": "event"
    },
    {
      "anonymous": false,
      "inputs": [
        {
          "indexed": false,
          "internalType": "uint256",
          "name": "oldVal",
          "type": "uint256"
        },
        {
          "indexed": false,
          "internalType": "uint256",
          "name": "newVal",
          "type": "uint256"
        }
      ],
      "name": "InterestElasticityUpdated",
      "type": "event"
    },
    {
      "anonymous": false,
      "inputs": [
        {
          "indexed": true,
          "internalType": "address",
          "name": "liquidator",
          "type": "address"
        },
        {
          "indexed": false,
          "internalType": "address[]",
          "name": "users",
          "type": "address[]"
        },
        {
          "indexed": false,
          "internalType": "uint256",
          "name": "liquidatorReward",
          "type": "uint256"
        },
        {
          "indexed": false,
          "internalType": "uint256",
          "name": "protocolReward",
          "type": "uint256"
        },
        {
          "indexed": false,
          "internalType": "uint256",
          "name": "repayedAmount",
          "type": "uint256"
        },
        {
          "indexed": false,
          "internalType": "uint256",
          "name": "collateralShareRemoved",
          "type": "uint256"
        }
      ],
      "name": "Liquidated",
      "type": "event"
    },
    {
      "anonymous": false,
      "inputs": [
        {
          "indexed": false,
          "internalType": "uint256",
          "name": "oldVal",
          "type": "uint256"
        },
        {
          "indexed": false,
          "internalType": "uint256",
          "name": "newVal",
          "type": "uint256"
        }
      ],
      "name": "LiquidationMultiplierUpdated",
      "type": "event"
    },
    {
      "anonymous": false,
      "inputs": [
        {
          "indexed": false,
          "internalType": "uint256",
          "name": "accruedAmount",
          "type": "uint256"
        },
        {
          "indexed": false,
          "internalType": "uint256",
          "name": "feeFraction",
          "type": "uint256"
        },
        {
          "indexed": false,
          "internalType": "uint64",
          "name": "rate",
          "type": "uint64"
        },
        {
          "indexed": false,
          "internalType": "uint256",
          "name": "utilization",
          "type": "uint256"
        }
      ],
      "name": "LogAccrue",
      "type": "event"
    },
    {
      "anonymous": false,
      "inputs": [
        {
          "indexed": true,
          "internalType": "address",
          "name": "from",
          "type": "address"
        },
        {
          "indexed": true,
          "internalType": "address",
          "name": "to",
          "type": "address"
        },
        {
          "indexed": false,
          "internalType": "uint256",
          "name": "share",
          "type": "uint256"
        },
        {
          "indexed": false,
          "internalType": "uint256",
          "name": "fraction",
          "type": "uint256"
        }
      ],
      "name": "LogAddAsset",
      "type": "event"
    },
    {
      "anonymous": false,
      "inputs": [
        {
          "indexed": true,
          "internalType": "address",
          "name": "from",
          "type": "address"
        },
        {
          "indexed": true,
          "internalType": "address",
          "name": "to",
          "type": "address"
        },
        {
          "indexed": false,
          "internalType": "uint256",
          "name": "share",
          "type": "uint256"
        }
      ],
      "name": "LogAddCollateral",
      "type": "event"
    },
    {
      "anonymous": false,
      "inputs": [
        {
          "indexed": true,
          "internalType": "address",
          "name": "from",
          "type": "address"
        },
        {
          "indexed": true,
          "internalType": "address",
          "name": "to",
          "type": "address"
        },
        {
          "indexed": false,
          "internalType": "uint256",
          "name": "amount",
          "type": "uint256"
        },
        {
          "indexed": false,
          "internalType": "uint256",
          "name": "feeAmount",
          "type": "uint256"
        },
        {
          "indexed": false,
          "internalType": "uint256",
          "name": "part",
          "type": "uint256"
        }
      ],
      "name": "LogBorrow",
      "type": "event"
    },
    {
      "anonymous": false,
      "inputs": [
        {
          "indexed": false,
          "internalType": "uint256",
          "name": "_oldVal",
          "type": "uint256"
        },
        {
          "indexed": false,
          "internalType": "uint256",
          "name": "_newVal",
          "type": "uint256"
        }
      ],
      "name": "LogBorrowCapUpdated",
      "type": "event"
    },
    {
      "anonymous": false,
      "inputs": [
        {
          "indexed": false,
          "internalType": "uint256",
          "name": "_oldVal",
          "type": "uint256"
        },
        {
          "indexed": false,
          "internalType": "uint256",
          "name": "_newVal",
          "type": "uint256"
        }
      ],
      "name": "LogBorrowingFee",
      "type": "event"
    },
    {
      "anonymous": false,
      "inputs": [
        {
          "indexed": false,
          "internalType": "uint256",
          "name": "rate",
          "type": "uint256"
        }
      ],
      "name": "LogExchangeRate",
      "type": "event"
    },
    {
      "anonymous": false,
      "inputs": [
        {
          "indexed": true,
          "internalType": "address",
          "name": "from",
          "type": "address"
        },
        {
          "indexed": true,
          "internalType": "address",
          "name": "to",
          "type": "address"
        },
        {
          "indexed": false,
          "internalType": "uint256",
          "name": "share",
          "type": "uint256"
        },
        {
          "indexed": false,
          "internalType": "uint256",
          "name": "fraction",
          "type": "uint256"
        }
      ],
      "name": "LogRemoveAsset",
      "type": "event"
    },
    {
      "anonymous": false,
      "inputs": [
        {
          "indexed": true,
          "internalType": "address",
          "name": "from",
          "type": "address"
        },
        {
          "indexed": true,
          "internalType": "address",
          "name": "to",
          "type": "address"
        },
        {
          "indexed": false,
          "internalType": "uint256",
          "name": "share",
          "type": "uint256"
        }
      ],
      "name": "LogRemoveCollateral",
      "type": "event"
    },
    {
      "anonymous": false,
      "inputs": [
        {
          "indexed": true,
          "internalType": "address",
          "name": "from",
          "type": "address"
        },
        {
          "indexed": true,
          "internalType": "address",
          "name": "to",
          "type": "address"
        },
        {
          "indexed": false,
          "internalType": "uint256",
          "name": "amount",
          "type": "uint256"
        },
        {
          "indexed": false,
          "internalType": "uint256",
          "name": "part",
          "type": "uint256"
        }
      ],
      "name": "LogRepay",
      "type": "event"
    },
    {
      "anonymous": false,
      "inputs": [
        {
          "indexed": true,
          "internalType": "address",
          "name": "feeTo",
          "type": "address"
        },
        {
          "indexed": false,
          "internalType": "uint256",
          "name": "feesEarnedFraction",
          "type": "uint256"
        }
      ],
      "name": "LogWithdrawFees",
      "type": "event"
    },
    {
      "anonymous": false,
      "inputs": [
        {
          "indexed": false,
          "internalType": "uint256",
          "name": "feeShares",
          "type": "uint256"
        },
        {
          "indexed": false,
          "internalType": "uint256",
          "name": "ethAmount",
          "type": "uint256"
        }
      ],
      "name": "LogYieldBoxFeesDeposit",
      "type": "event"
    },
    {
      "anonymous": false,
      "inputs": [
        {
          "indexed": false,
          "internalType": "uint256",
          "name": "oldVal",
          "type": "uint256"
        },
        {
          "indexed": false,
          "internalType": "uint256",
          "name": "newVal",
          "type": "uint256"
        }
      ],
      "name": "LqCollateralizationRateUpdated",
      "type": "event"
    },
    {
      "anonymous": false,
      "inputs": [
        {
          "indexed": false,
          "internalType": "uint256",
          "name": "oldVal",
          "type": "uint256"
        },
        {
          "indexed": false,
          "internalType": "uint256",
          "name": "newVal",
          "type": "uint256"
        }
      ],
      "name": "MaximumInterestPerSecondUpdated",
      "type": "event"
    },
    {
      "anonymous": false,
      "inputs": [
        {
          "indexed": false,
          "internalType": "uint256",
          "name": "oldVal",
          "type": "uint256"
        },
        {
          "indexed": false,
          "internalType": "uint256",
          "name": "newVal",
          "type": "uint256"
        }
      ],
      "name": "MaximumTargetUtilizationUpdated",
      "type": "event"
    },
    {
      "anonymous": false,
      "inputs": [
        {
          "indexed": false,
          "internalType": "uint256",
          "name": "oldVal",
          "type": "uint256"
        },
        {
          "indexed": false,
          "internalType": "uint256",
          "name": "newVal",
          "type": "uint256"
        }
      ],
      "name": "MinimumInterestPerSecondUpdated",
      "type": "event"
    },
    {
      "anonymous": false,
      "inputs": [
        {
          "indexed": false,
          "internalType": "uint256",
          "name": "oldVal",
          "type": "uint256"
        },
        {
          "indexed": false,
          "internalType": "uint256",
          "name": "newVal",
          "type": "uint256"
        }
      ],
      "name": "MinimumTargetUtilizationUpdated",
      "type": "event"
    },
    {
      "anonymous": false,
      "inputs": [],
      "name": "OracleDataUpdated",
      "type": "event"
    },
    {
      "anonymous": false,
      "inputs": [],
      "name": "OracleUpdated",
      "type": "event"
    },
    {
      "anonymous": false,
      "inputs": [
        {
          "indexed": false,
          "internalType": "uint256",
          "name": "oldVal",
          "type": "uint256"
        },
        {
          "indexed": false,
          "internalType": "uint256",
          "name": "newVal",
          "type": "uint256"
        }
      ],
      "name": "OrderBookLiquidationMultiplierUpdated",
      "type": "event"
    },
    {
      "anonymous": false,
      "inputs": [
        {
          "indexed": true,
          "internalType": "address",
          "name": "previousOwner",
          "type": "address"
        },
        {
          "indexed": true,
          "internalType": "address",
          "name": "newOwner",
          "type": "address"
        }
      ],
      "name": "OwnershipTransferred",
      "type": "event"
    },
    {
      "anonymous": false,
      "inputs": [
        {
          "indexed": false,
          "internalType": "enum Market.PauseType",
          "name": "_type",
          "type": "uint8"
        },
        {
          "indexed": false,
          "internalType": "bool",
          "name": "oldState",
          "type": "bool"
        },
        {
          "indexed": false,
          "internalType": "bool",
          "name": "newState",
          "type": "bool"
        }
      ],
      "name": "PausedUpdated",
      "type": "event"
    },
    {
      "anonymous": false,
      "inputs": [
        {
          "indexed": true,
          "internalType": "address",
          "name": "from",
          "type": "address"
        },
        {
          "indexed": true,
          "internalType": "address",
          "name": "to",
          "type": "address"
        },
        {
          "indexed": false,
          "internalType": "uint256",
          "name": "value",
          "type": "uint256"
        }
      ],
      "name": "Transfer",
      "type": "event"
    },
    {
      "anonymous": false,
      "inputs": [
        {
          "indexed": true,
          "internalType": "address",
          "name": "newAddress",
          "type": "address"
        }
      ],
      "name": "UsdoSwapperUpdated",
      "type": "event"
    },
    {
      "inputs": [],
      "name": "DOMAIN_SEPARATOR",
      "outputs": [
        {
          "internalType": "bytes32",
          "name": "",
          "type": "bytes32"
        }
      ],
      "stateMutability": "view",
      "type": "function"
    },
    {
      "inputs": [],
      "name": "accrue",
      "outputs": [],
      "stateMutability": "nonpayable",
      "type": "function"
    },
    {
      "inputs": [],
      "name": "accrueInfo",
      "outputs": [
        {
          "internalType": "uint64",
          "name": "interestPerSecond",
          "type": "uint64"
        },
        {
          "internalType": "uint64",
          "name": "lastAccrued",
          "type": "uint64"
        },
        {
          "internalType": "uint128",
          "name": "feesEarnedFraction",
          "type": "uint128"
        }
      ],
      "stateMutability": "view",
      "type": "function"
    },
    {
      "inputs": [
        {
          "internalType": "address",
          "name": "",
          "type": "address"
        },
        {
          "internalType": "address",
          "name": "",
          "type": "address"
        }
      ],
      "name": "allowance",
      "outputs": [
        {
          "internalType": "uint256",
          "name": "",
          "type": "uint256"
        }
      ],
      "stateMutability": "view",
      "type": "function"
    },
    {
      "inputs": [
        {
          "internalType": "address",
          "name": "",
          "type": "address"
        },
        {
          "internalType": "address",
          "name": "",
          "type": "address"
        }
      ],
      "name": "allowanceBorrow",
      "outputs": [
        {
          "internalType": "uint256",
          "name": "",
          "type": "uint256"
        }
      ],
      "stateMutability": "view",
      "type": "function"
    },
    {
      "inputs": [
        {
          "internalType": "address",
          "name": "spender",
          "type": "address"
        },
        {
          "internalType": "uint256",
          "name": "amount",
          "type": "uint256"
        }
      ],
      "name": "approve",
      "outputs": [
        {
          "internalType": "bool",
          "name": "",
          "type": "bool"
        }
      ],
      "stateMutability": "nonpayable",
      "type": "function"
    },
    {
      "inputs": [
        {
          "internalType": "address",
          "name": "spender",
          "type": "address"
        },
        {
          "internalType": "uint256",
          "name": "amount",
          "type": "uint256"
        }
      ],
      "name": "approveBorrow",
      "outputs": [
        {
          "internalType": "bool",
          "name": "",
          "type": "bool"
        }
      ],
      "stateMutability": "nonpayable",
      "type": "function"
    },
    {
      "inputs": [],
      "name": "asset",
      "outputs": [
        {
          "internalType": "contract IERC20",
          "name": "",
          "type": "address"
        }
      ],
      "stateMutability": "view",
      "type": "function"
    },
    {
      "inputs": [],
      "name": "assetId",
      "outputs": [
        {
          "internalType": "uint256",
          "name": "",
          "type": "uint256"
        }
      ],
      "stateMutability": "view",
      "type": "function"
    },
    {
      "inputs": [
        {
          "internalType": "address",
          "name": "",
          "type": "address"
        }
      ],
      "name": "balanceOf",
      "outputs": [
        {
          "internalType": "uint256",
          "name": "",
          "type": "uint256"
        }
      ],
      "stateMutability": "view",
      "type": "function"
    },
    {
      "inputs": [],
      "name": "borrowOpeningFee",
      "outputs": [
        {
          "internalType": "uint256",
          "name": "",
          "type": "uint256"
        }
      ],
      "stateMutability": "view",
      "type": "function"
    },
    {
      "inputs": [],
      "name": "callerFee",
      "outputs": [
        {
          "internalType": "uint256",
          "name": "",
          "type": "uint256"
        }
      ],
      "stateMutability": "view",
      "type": "function"
    },
    {
      "inputs": [],
      "name": "claimOwnership",
      "outputs": [],
      "stateMutability": "nonpayable",
      "type": "function"
    },
    {
      "inputs": [],
      "name": "collateral",
      "outputs": [
        {
          "internalType": "contract IERC20",
          "name": "",
          "type": "address"
        }
      ],
      "stateMutability": "view",
      "type": "function"
    },
    {
      "inputs": [],
      "name": "collateralId",
      "outputs": [
        {
          "internalType": "uint256",
          "name": "",
          "type": "uint256"
        }
      ],
      "stateMutability": "view",
      "type": "function"
    },
    {
      "inputs": [],
      "name": "collateralizationRate",
      "outputs": [
        {
          "internalType": "uint256",
          "name": "",
          "type": "uint256"
        }
      ],
      "stateMutability": "view",
      "type": "function"
    },
    {
      "inputs": [
        {
          "internalType": "uint256",
          "name": "borrowPart",
          "type": "uint256"
        },
        {
          "internalType": "uint256",
          "name": "collateralPartInAsset",
          "type": "uint256"
        },
        {
          "internalType": "uint256",
          "name": "ratesPrecision",
          "type": "uint256"
        }
      ],
      "name": "computeClosingFactor",
      "outputs": [
        {
          "internalType": "uint256",
          "name": "",
          "type": "uint256"
        }
      ],
      "stateMutability": "view",
      "type": "function"
    },
    {
      "inputs": [
        {
          "internalType": "address",
          "name": "user",
          "type": "address"
        },
        {
          "internalType": "uint256",
          "name": "_exchangeRate",
          "type": "uint256"
        }
      ],
      "name": "computeLiquidatorReward",
      "outputs": [
        {
          "internalType": "uint256",
          "name": "",
          "type": "uint256"
        }
      ],
      "stateMutability": "view",
      "type": "function"
    },
    {
      "inputs": [
        {
          "internalType": "address",
          "name": "user",
          "type": "address"
        },
        {
          "internalType": "uint256",
          "name": "_exchangeRate",
          "type": "uint256"
        }
      ],
      "name": "computeTVLInfo",
      "outputs": [
        {
          "internalType": "uint256",
          "name": "amountToSolvency",
          "type": "uint256"
        },
        {
          "internalType": "uint256",
          "name": "minTVL",
          "type": "uint256"
        },
        {
          "internalType": "uint256",
          "name": "maxTVL",
          "type": "uint256"
        }
      ],
      "stateMutability": "view",
      "type": "function"
    },
    {
      "inputs": [],
      "name": "conservator",
      "outputs": [
        {
          "internalType": "address",
          "name": "",
          "type": "address"
        }
      ],
      "stateMutability": "view",
      "type": "function"
    },
    {
      "inputs": [],
      "name": "decimals",
      "outputs": [
        {
          "internalType": "uint8",
          "name": "",
          "type": "uint8"
        }
      ],
      "stateMutability": "view",
      "type": "function"
    },
    {
      "inputs": [],
      "name": "exchangeRate",
      "outputs": [
        {
          "internalType": "uint256",
          "name": "",
          "type": "uint256"
        }
      ],
      "stateMutability": "view",
      "type": "function"
    },
    {
      "inputs": [],
      "name": "fullUtilizationMinusMax",
      "outputs": [
        {
          "internalType": "uint256",
          "name": "",
          "type": "uint256"
        }
      ],
      "stateMutability": "view",
      "type": "function"
    },
    {
      "inputs": [],
      "name": "getInterestDetails",
      "outputs": [
        {
          "components": [
            {
              "internalType": "uint64",
              "name": "interestPerSecond",
              "type": "uint64"
            },
            {
              "internalType": "uint64",
              "name": "lastAccrued",
              "type": "uint64"
            },
            {
              "internalType": "uint128",
              "name": "feesEarnedFraction",
              "type": "uint128"
            }
          ],
          "internalType": "struct ISingularity.AccrueInfo",
          "name": "_accrueInfo",
          "type": "tuple"
        },
        {
          "internalType": "uint256",
          "name": "utilization",
          "type": "uint256"
        }
      ],
      "stateMutability": "view",
      "type": "function"
    },
    {
      "inputs": [],
      "name": "interestElasticity",
      "outputs": [
        {
          "internalType": "uint256",
          "name": "",
          "type": "uint256"
        }
      ],
      "stateMutability": "view",
      "type": "function"
    },
    {
      "inputs": [
        {
          "internalType": "address[]",
          "name": "users",
          "type": "address[]"
        },
        {
          "internalType": "uint256[]",
          "name": "maxBorrowParts",
          "type": "uint256[]"
        },
        {
          "internalType": "bytes[]",
          "name": "collateralToAssetSwapDatas",
          "type": "bytes[]"
        },
        {
          "internalType": "bytes",
          "name": "usdoToBorrowedSwapData",
          "type": "bytes"
        },
        {
          "internalType": "contract ISwapper",
          "name": "swapper",
          "type": "address"
        }
      ],
      "name": "liquidate",
      "outputs": [],
      "stateMutability": "nonpayable",
      "type": "function"
    },
    {
      "inputs": [
        {
          "internalType": "address",
          "name": "user",
          "type": "address"
        },
        {
          "internalType": "address",
          "name": "receiver",
          "type": "address"
        },
        {
          "internalType": "contract ISwapper",
          "name": "swapper",
          "type": "address"
        },
        {
          "internalType": "bytes",
          "name": "collateralToAssetSwapData",
          "type": "bytes"
        }
      ],
      "name": "liquidateBadDebt",
      "outputs": [],
      "stateMutability": "nonpayable",
      "type": "function"
    },
    {
      "inputs": [],
      "name": "liquidationBonusAmount",
      "outputs": [
        {
          "internalType": "uint256",
          "name": "",
          "type": "uint256"
        }
      ],
      "stateMutability": "view",
      "type": "function"
    },
    {
      "inputs": [],
      "name": "liquidationMultiplier",
      "outputs": [
        {
          "internalType": "uint256",
          "name": "",
          "type": "uint256"
        }
      ],
      "stateMutability": "view",
      "type": "function"
    },
    {
      "inputs": [],
      "name": "liquidationQueue",
      "outputs": [
        {
          "internalType": "contract ILiquidationQueue",
          "name": "",
          "type": "address"
        }
      ],
      "stateMutability": "view",
      "type": "function"
    },
    {
      "inputs": [],
      "name": "lqCollateralizationRate",
      "outputs": [
        {
          "internalType": "uint256",
          "name": "",
          "type": "uint256"
        }
      ],
      "stateMutability": "view",
      "type": "function"
    },
    {
      "inputs": [],
      "name": "maxLiquidatorReward",
      "outputs": [
        {
          "internalType": "uint256",
          "name": "",
          "type": "uint256"
        }
      ],
      "stateMutability": "view",
      "type": "function"
    },
    {
      "inputs": [],
      "name": "maximumInterestPerSecond",
      "outputs": [
        {
          "internalType": "uint64",
          "name": "",
          "type": "uint64"
        }
      ],
      "stateMutability": "view",
      "type": "function"
    },
    {
      "inputs": [],
      "name": "maximumTargetUtilization",
      "outputs": [
        {
          "internalType": "uint256",
          "name": "",
          "type": "uint256"
        }
      ],
      "stateMutability": "view",
      "type": "function"
    },
    {
      "inputs": [],
      "name": "minLiquidatorReward",
      "outputs": [
        {
          "internalType": "uint256",
          "name": "",
          "type": "uint256"
        }
      ],
      "stateMutability": "view",
      "type": "function"
    },
    {
      "inputs": [],
      "name": "minimumInterestPerSecond",
      "outputs": [
        {
          "internalType": "uint64",
          "name": "",
          "type": "uint64"
        }
      ],
      "stateMutability": "view",
      "type": "function"
    },
    {
      "inputs": [],
      "name": "minimumTargetUtilization",
      "outputs": [
        {
          "internalType": "uint256",
          "name": "",
          "type": "uint256"
        }
      ],
      "stateMutability": "view",
      "type": "function"
    },
    {
      "inputs": [],
      "name": "name",
      "outputs": [
        {
          "internalType": "string",
          "name": "",
          "type": "string"
        }
      ],
      "stateMutability": "view",
      "type": "function"
    },
    {
      "inputs": [
        {
          "internalType": "address",
          "name": "owner",
          "type": "address"
        }
      ],
      "name": "nonces",
      "outputs": [
        {
          "internalType": "uint256",
          "name": "",
          "type": "uint256"
        }
      ],
      "stateMutability": "view",
      "type": "function"
    },
    {
      "inputs": [],
      "name": "oracle",
      "outputs": [
        {
          "internalType": "contract IOracle",
          "name": "",
          "type": "address"
        }
      ],
      "stateMutability": "view",
      "type": "function"
    },
    {
      "inputs": [],
      "name": "oracleData",
      "outputs": [
        {
          "internalType": "bytes",
          "name": "",
          "type": "bytes"
        }
      ],
      "stateMutability": "view",
      "type": "function"
    },
    {
      "inputs": [],
      "name": "owner",
      "outputs": [
        {
          "internalType": "address",
          "name": "",
          "type": "address"
        }
      ],
      "stateMutability": "view",
      "type": "function"
    },
    {
      "inputs": [
        {
          "internalType": "enum Market.PauseType",
          "name": "pauseProp",
          "type": "uint8"
        }
      ],
      "name": "pauseOptions",
      "outputs": [
        {
          "internalType": "bool",
          "name": "pauseStatus",
          "type": "bool"
        }
      ],
      "stateMutability": "view",
      "type": "function"
    },
    {
      "inputs": [],
      "name": "pendingOwner",
      "outputs": [
        {
          "internalType": "address",
          "name": "",
          "type": "address"
        }
      ],
      "stateMutability": "view",
      "type": "function"
    },
    {
      "inputs": [],
      "name": "penrose",
      "outputs": [
        {
          "internalType": "contract IPenrose",
          "name": "",
          "type": "address"
        }
      ],
      "stateMutability": "view",
      "type": "function"
    },
    {
      "inputs": [
        {
          "internalType": "address",
          "name": "owner",
          "type": "address"
        },
        {
          "internalType": "address",
          "name": "spender",
          "type": "address"
        },
        {
          "internalType": "uint256",
          "name": "value",
          "type": "uint256"
        },
        {
          "internalType": "uint256",
          "name": "deadline",
          "type": "uint256"
        },
        {
          "internalType": "uint8",
          "name": "v",
          "type": "uint8"
        },
        {
          "internalType": "bytes32",
          "name": "r",
          "type": "bytes32"
        },
        {
          "internalType": "bytes32",
          "name": "s",
          "type": "bytes32"
        }
      ],
      "name": "permit",
      "outputs": [],
      "stateMutability": "nonpayable",
      "type": "function"
    },
    {
      "inputs": [
        {
          "internalType": "bytes",
          "name": "data",
          "type": "bytes"
        },
        {
          "internalType": "uint16",
          "name": "actionType",
          "type": "uint16"
        }
      ],
      "name": "permitAction",
      "outputs": [],
      "stateMutability": "nonpayable",
      "type": "function"
    },
    {
      "inputs": [
        {
          "internalType": "address",
          "name": "owner",
          "type": "address"
        },
        {
          "internalType": "address",
          "name": "spender",
          "type": "address"
        },
        {
          "internalType": "uint256",
          "name": "value",
          "type": "uint256"
        },
        {
          "internalType": "uint256",
          "name": "deadline",
          "type": "uint256"
        },
        {
          "internalType": "uint8",
          "name": "v",
          "type": "uint8"
        },
        {
          "internalType": "bytes32",
          "name": "r",
          "type": "bytes32"
        },
        {
          "internalType": "bytes32",
          "name": "s",
          "type": "bytes32"
        }
      ],
      "name": "permitBorrow",
      "outputs": [],
      "stateMutability": "nonpayable",
      "type": "function"
    },
    {
      "inputs": [],
      "name": "protocolFee",
      "outputs": [
        {
          "internalType": "uint256",
          "name": "",
          "type": "uint256"
        }
      ],
      "stateMutability": "view",
      "type": "function"
    },
    {
      "inputs": [
        {
          "internalType": "uint256",
          "name": "_cap",
          "type": "uint256"
        }
      ],
      "name": "setBorrowCap",
      "outputs": [],
      "stateMutability": "nonpayable",
      "type": "function"
    },
    {
      "inputs": [
        {
          "internalType": "uint256",
          "name": "_val",
          "type": "uint256"
        }
      ],
      "name": "setBorrowOpeningFee",
      "outputs": [],
      "stateMutability": "nonpayable",
      "type": "function"
    },
    {
      "inputs": [
        {
          "internalType": "uint256",
          "name": "_borrowOpeningFee",
          "type": "uint256"
        },
        {
          "internalType": "contract IOracle",
          "name": "_oracle",
          "type": "address"
        },
        {
          "internalType": "bytes",
          "name": "_oracleData",
          "type": "bytes"
        },
        {
          "internalType": "address",
          "name": "_conservator",
          "type": "address"
        },
        {
          "internalType": "uint256",
          "name": "_callerFee",
          "type": "uint256"
        },
        {
          "internalType": "uint256",
          "name": "_protocolFee",
          "type": "uint256"
        },
        {
          "internalType": "uint256",
          "name": "_liquidationBonusAmount",
          "type": "uint256"
        },
        {
          "internalType": "uint256",
          "name": "_minLiquidatorReward",
          "type": "uint256"
        },
        {
          "internalType": "uint256",
          "name": "_maxLiquidatorReward",
          "type": "uint256"
        },
        {
          "internalType": "uint256",
          "name": "_totalBorrowCap",
          "type": "uint256"
        },
        {
          "internalType": "uint256",
          "name": "_collateralizationRate",
          "type": "uint256"
        }
      ],
      "name": "setMarketConfig",
      "outputs": [],
      "stateMutability": "nonpayable",
      "type": "function"
    },
    {
      "inputs": [],
      "name": "startingInterestPerSecond",
      "outputs": [
        {
          "internalType": "uint64",
          "name": "",
          "type": "uint64"
        }
      ],
      "stateMutability": "view",
      "type": "function"
    },
    {
      "inputs": [],
      "name": "symbol",
      "outputs": [
        {
          "internalType": "string",
          "name": "",
          "type": "string"
        }
      ],
      "stateMutability": "view",
      "type": "function"
    },
    {
      "inputs": [],
      "name": "totalAsset",
      "outputs": [
        {
          "internalType": "uint128",
          "name": "elastic",
          "type": "uint128"
        },
        {
          "internalType": "uint128",
          "name": "base",
          "type": "uint128"
        }
      ],
      "stateMutability": "view",
      "type": "function"
    },
    {
      "inputs": [],
      "name": "totalBorrow",
      "outputs": [
        {
          "internalType": "uint128",
          "name": "elastic",
          "type": "uint128"
        },
        {
          "internalType": "uint128",
          "name": "base",
          "type": "uint128"
        }
      ],
      "stateMutability": "view",
      "type": "function"
    },
    {
      "inputs": [],
      "name": "totalBorrowCap",
      "outputs": [
        {
          "internalType": "uint256",
          "name": "",
          "type": "uint256"
        }
      ],
      "stateMutability": "view",
      "type": "function"
    },
    {
      "inputs": [],
      "name": "totalCollateralShare",
      "outputs": [
        {
          "internalType": "uint256",
          "name": "",
          "type": "uint256"
        }
      ],
      "stateMutability": "view",
      "type": "function"
    },
    {
      "inputs": [],
      "name": "totalSupply",
      "outputs": [
        {
          "internalType": "uint256",
          "name": "",
          "type": "uint256"
        }
      ],
      "stateMutability": "view",
      "type": "function"
    },
    {
      "inputs": [
        {
          "internalType": "address",
          "name": "to",
          "type": "address"
        },
        {
          "internalType": "uint256",
          "name": "amount",
          "type": "uint256"
        }
      ],
      "name": "transfer",
      "outputs": [
        {
          "internalType": "bool",
          "name": "",
          "type": "bool"
        }
      ],
      "stateMutability": "nonpayable",
      "type": "function"
    },
    {
      "inputs": [
        {
          "internalType": "address",
          "name": "from",
          "type": "address"
        },
        {
          "internalType": "address",
          "name": "to",
          "type": "address"
        },
        {
          "internalType": "uint256",
          "name": "amount",
          "type": "uint256"
        }
      ],
      "name": "transferFrom",
      "outputs": [
        {
          "internalType": "bool",
          "name": "",
          "type": "bool"
        }
      ],
      "stateMutability": "nonpayable",
      "type": "function"
    },
    {
      "inputs": [
        {
          "internalType": "address",
          "name": "newOwner",
          "type": "address"
        },
        {
          "internalType": "bool",
          "name": "direct",
          "type": "bool"
        },
        {
          "internalType": "bool",
          "name": "renounce",
          "type": "bool"
        }
      ],
      "name": "transferOwnership",
      "outputs": [],
      "stateMutability": "nonpayable",
      "type": "function"
    },
    {
      "inputs": [],
      "name": "updateExchangeRate",
      "outputs": [
        {
          "internalType": "bool",
          "name": "updated",
          "type": "bool"
        },
        {
          "internalType": "uint256",
          "name": "rate",
          "type": "uint256"
        }
      ],
      "stateMutability": "nonpayable",
      "type": "function"
    },
    {
      "inputs": [
        {
          "internalType": "enum Market.PauseType",
          "name": "_type",
          "type": "uint8"
        },
        {
          "internalType": "bool",
          "name": "val",
          "type": "bool"
        }
      ],
      "name": "updatePause",
      "outputs": [],
      "stateMutability": "nonpayable",
      "type": "function"
    },
    {
      "inputs": [
        {
          "internalType": "address",
          "name": "",
          "type": "address"
        }
      ],
      "name": "userBorrowPart",
      "outputs": [
        {
          "internalType": "uint256",
          "name": "",
          "type": "uint256"
        }
      ],
      "stateMutability": "view",
      "type": "function"
    },
    {
      "inputs": [
        {
          "internalType": "address",
          "name": "",
          "type": "address"
        }
      ],
      "name": "userCollateralShare",
      "outputs": [
        {
          "internalType": "uint256",
          "name": "",
          "type": "uint256"
        }
      ],
      "stateMutability": "view",
      "type": "function"
    },
    {
      "inputs": [],
      "name": "yieldBox",
      "outputs": [
        {
          "internalType": "contract YieldBox",
          "name": "",
          "type": "address"
        }
      ],
      "stateMutability": "view",
      "type": "function"
    }
  ],
  "bytecode": "0x6101408060405234620001e1576200001781620001e6565b601381526001602082017f546170696f63612053696e67756c617269747900000000000000000000000000815260206040516200005481620001e6565b8381520192603160f81b845251902091208160e052610100918183524660a0526040519160208301907f8b73c3c69bb8fe3d512ecc4cf759cc79239f7b179b0ffacaa9a75d522b39400f92838352604085015260608401524660808401523060a084015260a0835260c083019280841060018060401b03851117620001cb5760408490525190206080523060c052610120908152600580546001600160a01b0319163390811790915560007f8be0079c531659141344cd1fd0a4f28419497f9722a3daafe3b4186f6b6457e08180a36103e860195561271080601a55601b556032601d55612ee0601e557f0bd4060688a1800ae986e4840aebc924bb40b5bf44de4583df2257220b54b77c6025557f7d1dc38e60930664f8cbf495da6556ca091d2f92d6550877750c049864b182306026556161a86027556154b3928362000203843960805183612a68015260a05183612b32015260c05183612a32015260e05183612ab701525182612add01525181612a940152f35b634e487b7160e01b600052604160045260246000fd5b600080fd5b604081019081106001600160401b03821117620001cb5760405256fe608060408181526004918236101561001657600080fd5b600092833560e01c918262a02a20146120745750816302ce728f14611f6157816306fdde0314611eaa578163078dfbe714611db3578163095ea7b314611d895781630c4e84f014611c6657816318160ddd14611c445781631c9e379b14611c0c5781631da8bf1014611b7457816323b872dd146119d757838263313ce5671461193d5750816334d441d01461191e5781633644e5151461190157816338d52e0f146118d85781633ba0b9a9146118b95781633f741adb1461189157816340626d8b1461187257816344de240a14611853578163473e3ce71461183457816348e4163e146117fc5781634d7f2a34146117dd5781634e71e0c81461173a5781635100b567146116dc578163529898f2146116bd57816352f353eb14611694578163551402321461166b57816355c2ab941461164257816357935462146116235781635dfe04e8146115c45781636c3d8b8f1461159b57816370a0823114611563578163717186d11461151457816372778547146114dd57816374645ff3146114b15781637dc0d1d0146114885781637ecebe00146114525781637fa0b84e14611421578163821226e8146114025781638285ef40146113cf5781638c5d0ed3146113b05781638da5cb5b14611387578163910dd7c81461117a578163959916dc1461115b57816395d89b41146110a35781639675937214610cda57816399a9702814610caa5781639c5d719214610c8b5781639e15e89f14610c50578163a28e6b8214610876578163a9059cbb1461079b578163b0e21e8a1461077c578163b27c0e7414610742578163bb4cfe3b14610723578163c23ea21f146106fa578163ce8849ed146106d1578163cfba1b46146105d3578163d505accf1461049757508063d8dfeb451461046f578063dd62ed3e14610427578063de406577146103ff578063e0996cb6146103e1578063e30c3978146103b9578063eec0f42e1461039b578063f42760b71461037d578063f8ba4cff1461035e578063f9557ccb146103285763ffe04c661461030757600080fd5b346103245781600319360112610324576020906028549051908152f35b5080fd5b5034610324578160031936011261032457602254905190819061035a90608081901c906001600160801b031683612337565b0390f35b823461037a578060031936011261037a5761037761341f565b80f35b80fd5b50346103245781600319360112610324576020906029549051908152f35b5034610324578160031936011261032457602090600c549051908152f35b503461032457816003193601126103245760065490516001600160a01b039091168152602090f35b5034610324578160031936011261032457602090601b549051908152f35b503461032457816003193601126103245760095490516001600160a01b039091168152602090f35b5034610324578060031936011261032457806020926104446120ba565b61044c6120d5565b6001600160a01b0391821683526002865283832091168252845220549051908152f35b5034610324578160031936011261032457600b5490516001600160a01b039091168152602090f35b83915034610324576104a836612142565b928097949796959692919242116105a2578693869361055f938c8b610557956104d089612d97565b9083519160208301936000805160206153fe833981519152855260018060a01b0380809d169d8e88870152166060850152608084015260a083015260c082015260c0815261051d816122f9565b519020610528612a2f565b915190602082019261190160f01b8452602283015260428201526042815261054f816122de565b519020612d03565b919091612c04565b16036105715750610377939450612e16565b606490602087519162461bcd60e51b8352820152601e602482015260008051602061533e8339815191526044820152fd5b895162461bcd60e51b8152602081870152601d602482015260008051602061531e8339815191526044820152606490fd5b839150346103245760a0366003190112610324576001600160401b0381358181116106cd5761060590369084016123d0565b916024358181116106c95761061d90369086016123d0565b6044929192358281116106c55761063790369088016123d0565b9390926064359081116106c15761065190369089016123a3565b6084359890979196906001600160a01b038a168a036106bd57808b52600760205260ff8c8c2054166106895750610377999a5061372e565b60649060208d519162461bcd60e51b8352820152600e60248201526d13585c9ad95d0e881c185d5cd95960921b6044820152fd5b8a80fd5b8880fd5b8780fd5b8580fd5b8380fd5b50503461032457816003193601126103245760085490516001600160a01b039091168152602090f35b50503461032457816003193601126103245760235490516001600160a01b039091168152602090f35b505034610324578160031936011261032457602090601c549051908152f35b5050346103245781600319360112610324576060906021549080519160018060401b03808216845281831c16602084015260801c90820152f35b5050346103245781600319360112610324576020906018549051908152f35b5050346103245780600319360112610324576020916107b86120ba565b82602435928315801590610864575b6107f7575b50519182526001600160a01b03169033906000805160206153de833981519152908590a35160018152f35b338152600186528181205461080e85821015612b58565b6001600160a01b03841690853383900361082b575b5050506107cc565b61083f9161083a841515612b9d565b6124e2565b33835260018852838320558152206108588382546124ef565b90558238808085610823565b50336001600160a01b038416146107c7565b83915034610324576080366003190112610324576108926120ba565b9061089b6120d5565b6001600160a01b03926044358481169391908490036106c9576064356001600160401b038111610c4c576108d290369084016123a3565b9190926108e487600554163314612400565b86600f541691895163d6d7d52560e01b81528a816020958686830152818d8161090f602482016121fa565b03925af1908115610bfc578a908b92610c1c575b508181610c12575b5015610c065780610941916011555b151561350b565b61094961341f565b818389600a54168c519283809263433e762d60e01b82525afa908115610bfc57610981898b9493610986938e91610bcf575b506135d8565b61357c565b169687895260158352826109ae8b8b2054620186a06109a7601e548361248b565b04906124ef565b91600954169160646109d26109c9600c54936011549061248b565b601f54906124c2565b918d519485938492638eb22cdd60e01b84528884015260248301528d60448301525afa908115610bc5578991610b98575b50878952601683528989205411610b58575090868098610b059493886103779a52601681528183205498610aaa610a38612e8c565b82865260158452610aa5610a9a868820549288878951610a57816122b0565b82815201528681019360018060801b03928382818094868a8381511615600014610b0b57505081610a8d915b16828851166135bf565b16855216828751166135bf565b1680945251166133fd565b6133d8565b8084526015825283838120556024825282842060255485528252838381205580845260168252610adf838520546013546124e2565b60135583526016815282828120556024815281832090602654845252812055369161236c565b9261416f565b610a8d92610b44610b3a86610b31610b2782809851168661248b565b82875116906124c2565b9451168461248b565b848c5116906124c2565b1015610a8357610b5390612d88565b610a83565b816064928a519262461bcd60e51b845283015260248201527f42696742616e673a2043616e6e6f7420666f726365206c6971756964617465646044820152fd5b90508281813d8311610bbe575b610baf8183612314565b810103126106c157518a610a03565b503d610ba5565b8a513d8b823e3d90fd5b610bef9150883d8a11610bf5575b610be78183612314565b810190613562565b8f61097b565b503d610bdd565b8b513d8c823e3d90fd5b5061094160115461093a565b905015158c61092b565b9050610c3e91508b3d8d11610c45575b610c368183612314565b8101906127ac565b908c610923565b503d610c2c565b8680fd5b505034610324578060031936011261032457606090610c79610c706120ba565b6024359061263c565b91929081519384526020840152820152f35b505034610324578160031936011261032457602090602a549051908152f35b505034610324578060031936011261032457602090610cd3610cca6120ba565b602435906128cc565b9051908152f35b90503461109f5761016036600319011261109f576001600160a01b03602435818116929083900361109b576001600160401b0391604435838111610c4c57610d2590369084016123a3565b90606435938385168095036106c1576084359560a43597610d4b86600554163314612400565b823580611064575b5080611026575b5083610ec1575b5050505081610e81575b505080610e69575b5080610e51575b5060c43580610e3a575b5060e43580610e16575b506101043580610df2575b50610124359081610dc9575b50506101443580610db4575080f35b610dc3620186a082111561244b565b601c5580f35b60008051602061537e833981519152906014548151908152836020820152a16014553880610da5565b610e00620186a0821061244b565b610e0d601954821161244b565b601a5538610d99565b610e24620186a0821061244b565b610e31601a54821061244b565b60195538610d8e565b610e48620186a0821061244b565b601b5538610d84565b610e60620186a082111561244b565b60185538610d7a565b610e78620186a082111561244b565b60175538610d73565b816008549182167f5a62d22209e370e38eea92cfddcd228e656e6ec139243392a760a7769f5877fd8880a36001600160a01b031916176008553880610d6b565b831161101357508190610ed56010546121c0565b601f8111610fb7575b508890601f8311600114610f41578992610f36575b50508160011b916000199060031b1c1916176010555b7fa6f004921c944d4b8bf6e38462b00f36a58d62495d56b51f571ab78f732c98158680a138808080610d61565b013590503880610ef3565b60108a5260008051602061543e833981519152925090601f1984168a60205b828210610f9f575050908460019594939210610f85575b505050811b01601055610f09565b0135600019600384901b60f8161c19169055388080610f77565b80600185978294968801358155019601930190610f60565b60108a5290915060008051602061543e833981519152601f840160051c81019160208510611009575b90601f859493920160051c01905b818110610ffb5750610ede565b8a8155849350600101610fee565b9091508190610fe0565b634e487b7160e01b895260419052602488fd5b600f80546001600160a01b0319169190911790557f0b2d6eb667d0522c3eb86e4288afecae6c11591ffd1345d4d12407e0598bca9b8a80a138610d5a565b611073620186a082111561244b565b60008051602061539e8339815191528b601d548151908152836020820152a1601d5538610d53565b8480fd5b8280fd5b90503461109f578260031936011261109f5791808061035a9460018060a01b03600b541690855160208101916395d89b4160e01b835281526110e4816122b0565b51915afa6110f061511b565b91501561114c576111009061518c565b905b61113a60238251809462746d2d60e81b602083015261112a81518092602086860191016120eb565b8101036003810185520183612314565b5191829160208352602083019061210e565b5061115561514b565b90611102565b505034610324578160031936011261032457602090601d549051908152f35b90503461109f578160031936011261109f576001600160401b0390803582811161109b573660238201121561109b576111bc903690602481850135910161236c565b926024359161ffff83168093036106c957610100918286805181010312610c4c576111e96020870161279f565b926111f5828801612be2565b9061120260608901612be2565b9760808101519760a08201519761121b60c08401612bf6565b918460e08501519401519460018060a01b03808098169d169a80421161135657889291908e8e8e8e15611341576000805160206153fe833981519152925b61126281612d97565b9388519860208a019a8b528901526060880152608087015260a086015260c085015260e084015260e083528201908282109082111761132e57928c9695926112de9592610557958a525190206112b6612a2f565b90895190602082019261190160f01b8452602283015260428201526042815261054f816122de565b16036112fd575050156112f45761037792612e16565b61037792612dbf565b906020606492519162461bcd60e51b8352820152601e602482015260008051602061533e8339815191526044820152fd5b634e487b7160e01b8e526041895260248efd5b60008051602061545e83398151915292611259565b885162461bcd60e51b81526020818c0152601d602482015260008051602061531e8339815191526044820152606490fd5b50503461032457816003193601126103245760055490516001600160a01b039091168152602090f35b5050346103245781600319360112610324576020906019549051908152f35b505034610324578160031936011261032457601254905190819061035a90608081901c906001600160801b031683612337565b505034610324578160031936011261032457602090602c549051908152f35b50503461032457806003193601126103245760209061144b6114416120ba565b6024359033612dbf565b5160018152f35b90503461109f57602036600319011261109f5760209282916001600160a01b0361147a6120ba565b168252845220549051908152f35b505034610324578160031936011261032457600f5490516001600160a01b039091168152602090f35b505034610324578160031936011261032457805161035a9161113a826114d6816121fa565b0383612314565b90503461109f57602036600319011261109f573591600983101561037a575060ff611509602093612191565b541690519015158152f35b90503461109f57602036600319011261109f5760008051602061537e83398151915290359161154e60018060a01b03600554163314612400565b6014548151908152836020820152a160145580f35b5050346103245760203660031901126103245760209181906001600160a01b0361158b6120ba565b1681526001845220549051908152f35b505034610324578160031936011261032457600a5490516001600160a01b039091168152602090f35b5050346103245781600319360112610324576080906115e1612e6d565b506115ea612ef1565b509495935050505080519260018060401b03808251168552602082015116602085015281600180871b0391015116908301526060820152f35b505034610324578160031936011261032457602090601a549051908152f35b505034610324578160031936011261032457602b548151911c6001600160401b03168152602090f35b505034610324578160031936011261032457602b5490516001600160401b039091168152602090f35b505034610324578160031936011261032457602d5490516001600160401b039091168152602090f35b505034610324578160031936011261032457602090601e549051908152f35b90503461109f57602036600319011261109f5760008051602061539e83398151915290359161171660018060a01b03600554163314612400565b611725620186a084111561244b565b601d548151908152836020820152a1601d5580f35b9190503461109f578260031936011261109f576006546001600160a01b0392909183831691903383900361179a575050806005549384166000805160206153be8339815191528680a36001600160a01b0319928316176005551660065580f35b906020606492519162461bcd60e51b8352820152602060248201527f4f776e61626c653a2063616c6c657220213d2070656e64696e67206f776e65726044820152fd5b5050346103245781600319360112610324576020906027549051908152f35b5050346103245760203660031901126103245760209181906001600160a01b036118246120ba565b1681526015845220549051908152f35b5050346103245781600319360112610324576020906013549051908152f35b505034610324578160031936011261032457602090600e549051908152f35b5050346103245781600319360112610324576020906014549051908152f35b82843461037a57606036600319011261037a5750610cd360209260443590602435903561258e565b5050346103245781600319360112610324576020906011549051908152f35b505034610324578160031936011261032457600d5490516001600160a01b039091168152602090f35b505034610324578160031936011261032457602090610cd3612a2f565b5050346103245781600319360112610324576020906017549051908152f35b915034610324578160031936011261032457600d54835163313ce56760e01b6020820190815292815283926001600160a01b03909216919061197e816122b0565b51915afa9161198b61511b565b92806119cc575b156119bd5760208380518101031261037a575060ff6119b46020809401612bf6565b915b5191168152f35b506020915060ff6012916119b6565b506020835114611992565b82843461037a57606036600319011261037a576119f26120ba565b906119fb6120d5565b6044359182611a37575b508351918252602094506001600160a01b039081169216906000805160206153de833981519152908590a35160018152f35b6001600160a01b038481168083526001602090815287842054919892909190611a6287831015612b58565b851692838a03611a76575b50505050611a05565b898552600283528885203386528352888520549060018201611ae0575b5050928260209960018a94611abf8a8e9961083a6000805160206153de8339815191529c9a1515612b9d565b9285525283832055815220611ad58582546124ef565b905591878080611a6d565b878210611b3657509260209960018a94611abf8a8e9996611b11826000805160206153de8339815191529d9b6124e2565b86895260028552898920338a5285528989205596995050509450509981949650611a93565b895162461bcd60e51b8152908101849052601860248201527745524332303a20616c6c6f77616e636520746f6f206c6f7760401b6044820152606490fd5b8391503461032457611b8536612142565b928097949796959692919242116105a25786938693611bfa938c8b61055795611bad89612d97565b90835191602083019360008051602061545e833981519152855260018060a01b0380809d169d8e88870152166060850152608084015260a083015260c082015260c0815261051d816122f9565b16036105715750610377939450612dbf565b5050346103245760203660031901126103245760209181906001600160a01b03611c346120ba565b1681526016845220549051908152f35b50503461032457816003193601126103245760209060225460801c9051908152f35b9190503461109f578060031936011261109f5781359060098210156106cd57611c8d612133565b6008549093906001600160a01b03163303611d505760ff611cad84612191565b54161515931515938414611d195750907feeec81de25875ce1725479bb76f720a8defdb43dea041919ae37bb4aae9847c06060611d09938560ff611cf086612191565b54169180519286845215156020840152820152a1612191565b9060ff8019835416911617905580f35b6020606492519162461bcd60e51b835282015260126024820152714d61726b65743a2073616d6520737461746560701b6044820152fd5b6020606492519162461bcd60e51b8352820152601460248201527313585c9ad95d0e881d5b985d5d1a1bdc9a5e995960621b6044820152fd5b50503461032457806003193601126103245760209061144b611da96120ba565b6024359033612e16565b9190503461109f57606036600319011261109f57611dcf6120ba565b91611dd8612133565b916044359283151584036106c95760018060a01b03948591611dff83600554163314612400565b15611e91571692831590811591611e89575b5015611e4e575050806005549283166000805160206153be8339815191528580a36001600160a01b03199182161760055560068054909116905580f35b906020606492519162461bcd60e51b835282015260156024820152744f776e61626c653a207a65726f206164647265737360581b6044820152fd5b905038611e11565b93505050501660018060a01b0319600654161760065580f35b90503461109f578260031936011261109f5791808061035a9460018060a01b03600b541690855160208101916306fdde0360e01b83528152611eeb816122b0565b51915afa611ef761511b565b915015611f5257611f079061518c565b905b61113a60348251809473546170696f63612053696e67756c61726974792d60601b6020830152611f4281518092602086860191016120eb565b8101036014810185520183612314565b50611f5b61514b565b90611f09565b83915034610324578160031936011261032457600f54835163d6d7d52560e01b815260208382015290849082906001600160a01b0316818681611fa6602482016121fa565b03925af190811561206a578391612047575b5090821561203d5781156120035750806011557f9f9192b5edb17356c524e08d9e025c8e2f6307e6ea52fb7968faa3081f51c3c860208451838152a15b825191151582526020820152f35b606490602085519162461bcd60e51b835282015260146024820152734d61726b65743a20696e76616c6964207261746560601b6044820152fd5b5050601154611ff5565b9050612061919250833d8511610c4557610c368183612314565b91909184611fb8565b84513d85823e3d90fd5b8490843461109f578060031936011261109f576020926120926120ba565b61209a6120d5565b6001600160a01b0391821683526003865283832091168252845220548152f35b600435906001600160a01b03821682036120d057565b600080fd5b602435906001600160a01b03821682036120d057565b60005b8381106120fe5750506000910152565b81810151838201526020016120ee565b90602091612127815180928185528580860191016120eb565b601f01601f1916010190565b6024359081151582036120d057565b60e09060031901126120d0576001600160a01b039060043582811681036120d0579160243590811681036120d05790604435906064359060843560ff811681036120d0579060a4359060c43590565b60098110156121aa576000526007602052604060002090565b634e487b7160e01b600052602160045260246000fd5b90600182811c921680156121f0575b60208310146121da57565b634e487b7160e01b600052602260045260246000fd5b91607f16916121cf565b6010546000929161220a826121c0565b908181526001928381169081600014612264575060011461222a57505050565b9092935060106000526020928360002092846000945b8386106122505750505050010190565b805485870183015294019385908201612240565b91935050602093945060ff191683830152151560051b010190565b606081019081106001600160401b0382111761229a57604052565b634e487b7160e01b600052604160045260246000fd5b604081019081106001600160401b0382111761229a57604052565b6001600160401b03811161229a57604052565b608081019081106001600160401b0382111761229a57604052565b60e081019081106001600160401b0382111761229a57604052565b601f909101601f19168101906001600160401b0382119082101761229a57604052565b6001600160801b0391821681529116602082015260400190565b6001600160401b03811161229a57601f01601f191660200190565b92919261237882612351565b916123866040519384612314565b8294818452818301116120d0578281602093846000960137010152565b9181601f840112156120d0578235916001600160401b0383116120d057602083818601950101116120d057565b9181601f840112156120d0578235916001600160401b0383116120d0576020808501948460051b0101116120d057565b1561240757565b606460405162461bcd60e51b815260206004820152602060248201527f4f776e61626c653a2063616c6c6572206973206e6f7420746865206f776e65726044820152fd5b1561245257565b60405162461bcd60e51b815260206004820152601160248201527013585c9ad95d0e881b9bdd081d985b1a59607a1b6044820152606490fd5b8181029291811591840414171561249e57565b634e487b7160e01b600052601160045260246000fd5b604d811161249e57600a0a90565b81156124cc570490565b634e487b7160e01b600052601260045260246000fd5b9190820391821161249e57565b9190820180921161249e57565b90601c54918291612512620186a093849261248b565b0480821061258557612523916124e2565b91601e5482019081831161249e57829161253c9161248b565b04908181039181831161249e576509184e72a000808402938404149114171561249e57670de0b6b3a76400009182810292818404149015171561249e57612582916124c2565b90565b50505050600090565b9190916125b06125a1601c54809561248b565b6125aa846124b4565b906124c2565b9081811061258557612600916125c5916124e2565b926125fa6125f16125d5856124b4565b926125eb6125e2876124b4565b601e54906124ef565b9061248b565b6125aa856124b4565b906124e2565b90601203906012821161249e576125eb612619926124b4565b670de0b6b3a76400009182810292818404149015171561249e57612582916124c2565b9160018060a01b038093169160009383855260206015815260409182872054908115612792578783855161266f816122b0565b828152015261267c612ef1565b505050505091905061268f8615156127c9565b6009541683600c54898b52601682526064878c2054918851948593849263442c159960e01b8452600484015260248301528d60448301525afa908115612788578991612759575b509161273161274d979899949261270c886127076126fe601698620186a0601f54049061248b565b601c549061248b565b6124c2565b815190936001600160801b039186916127279184169061248b565b92015116906124c2565b9080821061275157612742916124e2565b978352522054612815565b9091565b505082612742565b90508381813d8311612781575b6127708183612314565b810103126106c157516127316126d6565b503d612766565b85513d8b823e3d90fd5b5086955085949350505050565b519081151582036120d057565b91908260409103126120d05760206127c38361279f565b92015190565b156127d057565b60405162461bcd60e51b815260206004820152601e60248201527f4d61726b65743a2065786368616e676552617465206e6f742076616c696400006044820152606490fd5b6128208215156127c9565b602060018060a01b0360095416916064600c54604051948593849263442c159960e01b845260048401526024830152600060448301525afa9081156128c05760009161288d575b509061270761287992601f549061248b565b620186a0612889601c548361248b565b0491565b906020823d82116128b8575b816128a660209383612314565b8101031261037a575051612707612867565b3d9150612899565b6040513d6000823e3d90fd5b6001600160a01b031660008181526016602052604081205490926128ef91612815565b918352601560205260408320548015612a29578115612a2957818110612a295782811015612a1f5760125461294291839161083a91612938906001600160801b0383169061248b565b9060801c906124c2565b90620186a092838302928084048514901517156129f75761296792916125aa916124e2565b9160195491601a54938484039083861285831281169086841390151617612a0b5781810291848112600160ff1b8314166129f75782051485851417156129e357058184820194851291129080158216911516176129cf57508082126129ca575090565b905090565b634e487b7160e01b81526011600452602490fd5b634e487b7160e01b83526011600452602483fd5b634e487b7160e01b85526011600452602485fd5b634e487b7160e01b84526011600452602484fd5b5050505060195490565b50505090565b307f00000000000000000000000000000000000000000000000000000000000000006001600160a01b03161480612b2f575b15612a8a577f000000000000000000000000000000000000000000000000000000000000000090565b60405160208101907f000000000000000000000000000000000000000000000000000000000000000082527f000000000000000000000000000000000000000000000000000000000000000060408201527f000000000000000000000000000000000000000000000000000000000000000060608201524660808201523060a082015260a0815260c0810181811060018060401b0382111761229a5760405251902090565b507f00000000000000000000000000000000000000000000000000000000000000004614612a61565b15612b5f57565b60405162461bcd60e51b815260206004820152601660248201527545524332303a2062616c616e636520746f6f206c6f7760501b6044820152606490fd5b15612ba457565b60405162461bcd60e51b815260206004820152601660248201527545524332303a206e6f207a65726f206164647265737360501b6044820152606490fd5b51906001600160a01b03821682036120d057565b519060ff821682036120d057565b60058110156121aa5780612c155750565b60018103612c5d5760405162461bcd60e51b815260206004820152601860248201527745434453413a20696e76616c6964207369676e617475726560401b6044820152606490fd5b60028103612caa5760405162461bcd60e51b815260206004820152601f60248201527f45434453413a20696e76616c6964207369676e6174757265206c656e677468006044820152606490fd5b600314612cb357565b60405162461bcd60e51b815260206004820152602260248201527f45434453413a20696e76616c6964207369676e6174757265202773272076616c604482015261756560f01b6064820152608490fd5b9291906fa2a8918ca85bafe22016d0b997e4df60600160ff1b038311612d7c5791608094939160ff602094604051948552168484015260408301526060820152600093849182805260015afa15612d6f5781516001600160a01b03811615612d69579190565b50600190565b50604051903d90823e3d90fd5b50505050600090600390565b600019811461249e5760010190565b6001600160a01b03166000908152600460205260409020805490612dba82612d88565b905590565b909160207fe50de2333c10a9502fcb1d8ae13a51bbf423153dfc63c2b8997665b32154afc39160018060a01b03809416938460005260038352604060002095169485600052825280604060002055604051908152a3565b909160207f8c5be1e5ebec7d5bd14f71427d1e84f3dd0314c0f7b2291e5b200ac8c7c3b9259160018060a01b03809416938460005260028352604060002095169485600052825280604060002055604051908152a3565b60405190612e7a8261227f565b60006040838281528260208201520152565b60405190612e99826122b0565b6012546001600160801b038116835260801c6020830152565b60405190612ebf826122b0565b6022546001600160801b038116835260801c6020830152565b6001600160801b03918216908216019190821161249e57565b612ef9612e6d565b5060006020604051612f0a816122b0565b828152015260006020604051612f1f816122b0565b8281520152604051612f308161227f565b6021546001600160401b038082168352604082811c909116602084015260809190911c90820152908190612f62612e8c565b91612f6b612eb2565b9160009160018060a01b036009541692600e549260018060801b038651166040519063442c159960e01b8252856004830152602482015260006044820152602081606481895afa80156128c0576000906133a4575b8851612fd692506001600160801b0316906124ef565b948561336f5760005b60208501518190612ff9906001600160401b0316426124e2565b958615613344575050426001600160401b031660208b8101919091528901516001600160801b0316156132fa5750875189516020916130ad91670de0b6b3a76400009161306391899161305e916001600160401b0316906001600160801b031661248b565b61248b565b8b5191900498906001600160801b039061308290828c16908316612ed8565b168b52612707620186a06130986018548c61248b565b858e01516001600160801b031691900461248b565b60408b0180519197916001600160801b03808a1692916130d09084908316612ed8565b169052898301805190916001600160801b03916130ef91908316612ed8565b169052885160405163442c159960e01b815260048101929092526001600160801b031660248201526000604482015291829060649082905afa80156128c0576000906132c6575b885161314c92506001600160801b0316906124ef565b8061329057506000925b60285484818110156131f05761316c90826124e2565b670de0b6b3a7640000810290808204670de0b6b3a7640000149015171561249e576131d29161319a916124c2565b916127076131bf6131b9602c549361305e60018060401b03978061248b565b836124ef565b8c519092906001600160401b031661248b565b16808952602b546001600160401b03169081116131ec5750565b8852565b905060295480821161320157505050565b61320a916124e2565b90670de0b6b3a7640000820291808304670de0b6b3a7640000149015171561249e576127076132536131b961324561326395602a54906124c2565b9361305e602c54958061248b565b8b516001600160401b031661248b565b602b5460401c6001600160401b0316808211613288575b506001600160401b03168852565b90503861327a565b87516001600160801b0316670de0b6b3a764000081810292918084049091149015171561249e576132c0916124c2565b92613156565b506020813d6020116132f2575b816132e060209383612314565b810103126120d05761314c9051613136565b3d91506132d3565b8951602d54999a91999498509296509450506001600160401b03918216925016819003613338575b50939261332d612eb2565b926000926000929190565b81526001925038613322565b98509950505095505050505091613359612e8c565b91613362612eb2565b9160009160009190600090565b87516001600160801b0316670de0b6b3a7640000818102918083049091149015171561249e578661339f916124c2565b612fdf565b506020813d6020116133d0575b816133be60209383612314565b810103126120d057612fd69051612fc0565b3d91506133b1565b601280546001600160801b031660809290921b6001600160801b031916919091179055565b601280546001600160801b0319166001600160801b0392909216919091179055565b6134c6604060208061342f612ef1565b93999593909290156134d65750505060008051602061541e8339815191526080600180891b03602d5416885190600082526000888301528982015260006060820152a15b600180871b03815116848201519160018060801b0319978891015160801b1691600160401b600160801b039060401b16171760215560018060801b0392816134be85809451166133fd565b0151166133d8565b83511692015160801b1617602255565b60008051602061541e833981519152926080926001808c1b03865116908b51938452898401528a8301526060820152a1613473565b1561351257565b60405162461bcd60e51b815260206004820152602260248201527f42423a2063757272656e742065786368616e676552617465206e6f742076616c6044820152611a5960f21b6064820152608490fd5b908160209103126120d0575161ffff811681036120d05790565b1561358357565b60405162461bcd60e51b815260206004820152601460248201527329a3a61d1024b73b30b634b21039bbb0b83832b960611b6044820152606490fd5b6001600160801b03918216908216039190821161249e57565b600a5460405163dbd01de160e01b815260209290916001600160a01b039084908490600490829085165afa80156128c0578493600091613687575b50918161ffff936044936040519889968795633a304d8b60e21b8752166004860152166024840152165afa9081156128c057600091613653575b50905090565b82813d8311613680575b6136678183612314565b8101031261037a57506136799061279f565b803861364d565b503d61365d565b9091929381813d83116136be575b61369f8183612314565b81010312610324575190828216820361037a5750839291906044613613565b503d613695565b156136cc57565b60405162461bcd60e51b81526020600482015260146024820152730a68e987440d8cadccee8d040dad2e6dac2e8c6d60631b6044820152606490fd5b91908110156137185760051b0190565b634e487b7160e01b600052603260045260246000fd5b96949290979391613740828a146136c5565b60009689156140d357600f546040805163d6d7d52560e01b815260206004820152989189906001600160a01b0316818c8161377d602482016121fa565b03925af1978815613d155789908a996140af575b5088816140a5575b501561409b57876011555b6137af88151561350b565b6137b761341f565b6023546001600160a01b0316806138fb575b5050506137d7828a146136c5565b6137e2848a146136c5565b8698875b8181106138395750505050505050505050156137fe57565b60405162461bcd60e51b815260206004820152601360248201527214d1d30e881b9bc81d5cd95c9cc8199bdd5b99606a1b6044820152606490fd5b61384c61384782848d613708565b614593565b61385689826145e2565b1561386b575b5061386690612d88565b6137e6565b9a61387590612d88565b9a613881828686613708565b35878310156138e7578260051b87013590601e19883603018212156138e3576001600160401b0388830135116138e35787820160208101929035360383136138df57918b8b6138669695936138d9958c013594614850565b9061385c565b8c80fd5b8b80fd5b634e487b7160e01b8b52603260045260248bfd5b606060049160405192838092637c8be05b60e01b82525afa908115614090578a908b9261404d575b50156137c95789908a5b8681106140285750101561394157806137c9565b935093505050613957925095929395369161236c565b92849085938690613966612e8c565b90885b868110613de557505090610aa56139d5926139858815156145a7565b80516001600160801b039061399f908a83169083166135bf565b16815260208101805190936001600160801b03916139c19183169083166135bf565b1692839052516001600160801b03166133fd565b6139e1826013546124e2565b601355600954600e54604051638eb22cdd60e01b81526004810191909152602481018690526001604482015295906001600160a01b0316602087606481845afa968715613da2578897613db1575b50602354600c54906001600160a01b0316823b15613dad57613a6e928a9283889360405196879586948593630208d92960e11b85523060048601614114565b03925af18015613da257613d8f575b5060018060a01b03602354169060018060a01b03600954166020600c5460646040518094819363442c159960e01b83526004830152896024830152600160448301525afa908115613d15578991613d59575b5090613b00926040928a8451809681958294633965907b60e01b84526004840152876024840152604483019061210e565b03925af18015613d4e57613d20575b5060018060a01b036009541692600e5492604051627eeac760e11b815260208180613b3e88306004840161413e565b0381895afa908115613d15578991613ce1575b50602254620186a091613b8591613b7c91613b75916001600160801b0316906124e2565b998a6124e2565b6017549061248b565b0495613b9187896124e2565b604051938060a0860160a087525260c0850195908b905b808210613cb7575050509083929188602060008051602061535e8339815191529601526040840152606083015260808201528033930390a2813b1561109b5782613c0d92869283604051809681958294630208d92960e11b8452333060048601614114565b03925af18015613cac57908491613c98575b50613c769190506001600160801b03613c3882856124e2565b602254916001600160801b0391613c529116828416612ed8565b6001600160801b03199092169116176022556023546001600160a01b0316926124e2565b9160405192835260208301526000805160206152fe83398151915260403093a3565b613ca1906122cb565b61109f578238613c1f565b6040513d86823e3d90fd5b90919687359060018060a01b0382168092036120d057602081600193829352019801920190613ba8565b90506020813d602011613d0d575b81613cfc60209383612314565b810103126120d05751613b85613b51565b3d9150613cef565b6040513d8b823e3d90fd5b613d419060403d604011613d47575b613d398183612314565b810190614159565b50613b0f565b503d613d2f565b6040513d89823e3d90fd5b9190506020823d602011613d87575b81613d7560209383612314565b810103126120d0579051613b00613acf565b3d9150613d68565b613d9b909791976122cb565b9538613a7d565b6040513d8a823e3d90fd5b8980fd5b9096506020813d602011613ddd575b81613dcd60209383612314565b810103126106c557519538613a2f565b3d9150613dc0565b613df3613847828988613708565b613dfd83826145e2565b15613e12575b50613e0d90612d88565b613969565b909397958a613e218484614730565b918215614018576001600160a01b03841682526015602081905260408320548751909591906001600160801b03908116613ff05750613e618580976124e2565b6001600160a01b038316855260209182526040852055601e54613e9490620186a090613e8d908861248b565b04866124ef565b606460018060a01b036009541691613eb26109c98b600c549361248b565b926040519788948593638eb22cdd60e01b85526004850152602484015260448301525afa928315613fe3578e908194613fa5575b50613e0d9593613f9893613f9e96936040613f989460018060a01b0383168152601660205220613f178482546124e2565b90556023546040518481526001600160a01b03918216918291908416907f8ad4d3ff00da092c7ad9a573ea4f5f6a3dffc6712dc06d3f78f49b862297c40290602090a37fc8e512d8f188ca059984b5853d2bf653da902696b8512785b182b2c813789a6e60408051938885528a602086015260018060a01b031693a36124ef565b996124ef565b9390613e03565b91929350506020813d602011613fdb575b81613fc360209383612314565b81010312613fd7575191908d613f98613ee6565b8d80fd5b3d9150613fb6565b8e604051903d90823e3d90fd5b61401181614007613e619360208d0151168961248b565b908b5116906124c2565b80976124e2565b979995915050613e0d9150612d88565b916140426140489161403b858a8a613708565b35906124ef565b92612d88565b61392d565b9150506060813d8211614088575b8161406860609383612314565b81010312613dad57604061407e6020830161279f565b9101519038613923565b3d915061405b565b6040513d8c823e3d90fd5b60115497506137a4565b9050151538613799565b90506140cb91985060403d604011610c4557610c368183612314565b979038613791565b60405162461bcd60e51b815260206004820152601960248201527853474c3a206e6f7468696e6720746f206c697175696461746560381b6044820152606490fd5b6001600160a01b039182168152911660208201526040810191909152606081019190915260800190565b6001600160a01b039091168152602081019190915260400190565b91908260409103126120d0576020825192015190565b600954600c549392600092916001600160a01b03908181163b1561109b5784846141b69260409983868b8d5197889687958693630208d92960e11b85523060048601614114565b0393165af180156143f857614580575b5060209687818051810103126120d057870151801561454357816009541693600e54918851978a89627eeac760e11b988982528180614209898c6004840161413e565b03915afa98891561450a578899614514575b50841691600c54938a5194633d9545e960e11b865260048601526024850152876044850152606484015260016084840152600160a4840152610140808460c481865afa93841561450a57928b949289928c958495614402575b5050918493916101c4938551978896879563efa84c6d60e01b8752606081518d81511660048a01528481015160248a01528d848201511660448a015201516064880152606083820151805160848a01528481015160a48a01528381015160c48a0152015160e4880152015180511515610104870152015115156101248501526101448401528789166101648401526101a0610184840152816101a48401525af180156143f85791889391614348979695936143dc575b506009541690600e549288519788948593849384526004840161413e565b03915afa9081156143d157906143a2575b61436392506124e2565b1561436c575050565b60649250519062461bcd60e51b82526004820152601060248201526f14d1d30e8814ddd85c0819985a5b195960821b6044820152fd5b508382813d83116143ca575b6143b88183612314565b810103126120d0576143639151614359565b503d6143ae565b8451903d90823e3d90fd5b6143f290893d8b11613d4757613d398183612314565b5061432a565b87513d87823e3d90fd5b935093509450925080823d8411614503575b61441e8183612314565b8101039182126106c5578951916144348361227f565b608081126106c1578a51614447816122de565b61445083612be2565b81528c8301518d8201526144658c8401612be2565b8c8201526060830151606082015283526080607f198201126106c1578a90815161448e816122de565b6080840151815260a08401518e82015260c08401518382015260e08401516060820152848e015260ff1901126106c5578a93888b9485946101c4946144f06101208851926144db846122b0565b6144e8610100820161279f565b84520161279f565b8982015286820152948193929450614274565b503d614414565b8a513d8a823e3d90fd5b9098508a81813d831161453c575b61452c8183612314565b810103126120d05751978461421b565b503d614522565b865162461bcd60e51b81526004810189905260166024820152750a68e987440e6d8d2e0e0c2ceca40e8dede40d0d2ced60531b6044820152606490fd5b61458c909491946122cb565b92386141c6565b356001600160a01b03811681036120d05790565b156145ae57565b60405162461bcd60e51b815260206004820152600c60248201526b14d1d30e881cdbdb1d995b9d60a21b6044820152606490fd5b919060018060a01b038060009416845260206015815260408520549081156146dc5760168152604086205480156146d5578161461c612e8c565b9460095416916064600c54604051948593849263442c159960e01b8452600484015260248301528b60448301525afa9687156146c9578097614693575b50506127276146786126fe61468e969798620186a0601f54049061248b565b9561305e60018060801b0394858751169061248b565b111590565b9096508187813d83116146c2575b6146ab8183612314565b8101031261037a5750945194612727614678614659565b503d6146a1565b604051903d90823e3d90fd5b5050505050565b5060019450505050565b156146ed57565b60405162461bcd60e51b815260206004820152601b60248201527a14d1d30e88195e18da185b99d954985d19481b9bdd081d985b1a59602a1b6044820152606490fd5b6001600160a01b03908116600081815260156020908152604082205491949093928215614848576147628215156146e6565b855260168452604085205484614776612e8c565b946009541691606461479f614796600c5493620186a0601f54049061248b565b6027549061248b565b91604051948593849263442c159960e01b8452600484015260248301528a60448301525afa90811561483d57869161480e575b506147f89392916147e2916124c2565b9361272760018060801b0392838551169061248b565b8181106148095761258292506124e2565b505090565b90508481813d8311614836575b6148258183612314565b810103126106c957516147f86147d2565b503d61481b565b6040513d88823e3d90fd5b505050505090565b9392919594909561486183866145e2565b6151125761486f83866128cc565b936000809861487f8615156146e6565b600954600c546001600160a01b038a8116855260166020908152604080872054905163442c159960e01b81526004810194909452602484015260448301869052919283916064918391165afa90811561510757879084926150d1575b506127076148ec92601f549061248b565b9160018060a01b0389168152601560205261490b8360408320546124fc565b92601b54806150b7575b5083101561508257508181111561507a5750925b6001600160a01b038716600090815260156020526040902054808511615072575b84614954916124e2565b6001600160a01b038816600090815260156020526040902055614975612e8c565b6020810180516001600160801b0316615041575050835b60206149a8620186a06149a1601e548961248b565b04876124ef565b60646149c56109c960018060a01b03600954169a600c549461248b565b91604051998a938492638eb22cdd60e01b845260048401526024830152600060448301525afa9586156128c05760009661500d575b506001600160a01b0388166000908152601660205260409020548611614fcc5760018060a01b03881660005260166020526040600020614a3b8782546124e2565b9055614a488515156145a7565b60125490614a876001600160801b03614a658882168286166135bf565b16926001600160801b0319926001600160801b0316908316841760801c6135bf565b60801b161760125560018060a01b0360095416916020600e54606460405180968193638eb22cdd60e01b83526004830152896024830152600160448301525afa9283156128c057600093614f97575b50600a5460405163433e762d60e01b81529190602090839060049082906001600160a01b03165afa9283156128c057614b2c610981614c0e95614bfd95600091614f78575b506001600160a01b038916906135d8565b60135488600091818111600014614f7157614b4792506124e2565b6013556001600160a01b038a166000908152602460209081526040808320602654808552925290912054891115614f3d575060018060a01b038a1660005260246020526040600020602654600052602052600060408120555b6001600160a01b038a166000908152602460209081526040808320602554808552925290912054861115614f09575060018060a01b038a1660005260246020526040600020602554600052602052600060408120555b369161236c565b6001600160a01b038416308761416f565b600954600e54604051627eeac760e11b81526001600160a01b0390921696909160208180614c4086306004840161413e565b03818b5afa9081156128c057600091614ed5575b50602254614ca79594939291614c73916001600160801b0316906124e2565b9260009080851115614ece57614c8a9150846124e2565b925b620186a080614c9d6018548761248b565b049687938661248b565b0498899383614e5f575b505082614de8575b90614d089361083a92614cd78561083a8560018060801b03946124e2565b602254916001600160801b0391614cf19116828416612ed8565b6001600160801b03199092169116176022556124e2565b60408051918252602082018a905230926001600160a01b0316916000805160206152fe8339815191529190a360405193614d41856122b0565b6001855260208501956020368837855115614dd4576001600160a01b0316865260405160a0808252955195810186905260c081019690955b808a10614db157505060008051602061535e8339815191529596975060208501526040840152606083015260808201528033930390a2565b81516001600160a01b031688526001999099019860209788019790910190614d79565b634e487b7160e01b89526032600452602489fd5b91505060018060a01b0360095416908a600e54833b1561032457614e27938a9183604051809781958294630208d92960e11b8452333060048601614114565b03925af1908b82156146c95789938793614e43575b5050614cb9565b909250614e519193506122cb565b613dad578387918b38614e3c565b600a54929450909250906001600160a01b0316823b156120d057614ea19260009283899360405196879586948593630208d92960e11b85523060048601614114565b03925af180156128c057614eba575b8791818692614cb1565b614ec5919a506122cb565b60009883614eb0565b5092614c8c565b906020823d602011614f01575b81614eef60209383612314565b8101031261037a575051614c73614c54565b3d9150614ee2565b60018060a01b038b1660005260246020526040600020906000526020526040600020614f368682546124e2565b9055614bf6565b60018060a01b038b1660005260246020526040600020906000526020526040600020614f6a8982546124e2565b9055614ba0565b5050614b47565b614f91915060203d602011610bf557610be78183612314565b38614b1b565b90926020823d602011614fc4575b81614fb260209383612314565b8101031261037a575051916004614ad6565b3d9150614fa5565b60405162461bcd60e51b815260206004820152601960248201527810908e881b9bdd08195b9bdd59da0818dbdb1b185d195c985b603a1b6044820152606490fd5b90956020823d602011615039575b8161502860209383612314565b8101031261037a57505194386149fa565b3d915061501b565b905161506c919061505b906001600160801b03168761248b565b90516001600160801b0316906124c2565b9361498c565b93508361494a565b905092614929565b60405162461bcd60e51b815260206004820152600d60248201526c14d1d30e88189859081919589d609a1b6044820152606490fd5b93620186a06109a76150ca93968361248b565b9238614915565b9150506020813d6020116150ff575b816150ed60209383612314565b8101031261109f5751866127076148db565b3d91506150e0565b6040513d85823e3d90fd5b50505050509050565b3d15615146573d9061512c82612351565b9161513a6040519384612314565b82523d6000602084013e565b606090565b60405190615158826122b0565b60038252623f3f3f60e81b6020830152565b908151811015613718570160200190565b60ff1660ff811461249e5760010190565b805160408110615204575080518101906020818184019303126120d0576020810151906001600160401b0382116120d0570181603f820112156120d05760208101516151d781612351565b926151e56040519485612314565b818452604082840101116120d0576125829160406020850191016120eb565b6020929083036152f2576000805b60ff811685811090816152d3575b50156152345761522f9061517b565b615212565b9260ff8094169261524484612351565b936152526040519586612314565b808552615261601f1991612351565b013687860137825b858116878110806152b6575b156152ab576152a691906152a06001600160f81b0319615295838861516a565b5116871a918861516a565b5361517b565b615269565b505094505050905090565b506001600160f81b03196152ca828661516a565b51161515615275565b6001600160f81b031991506152e8908661516a565b5116151538615220565b91505061258261514b56fe30a8c4f9ab5af7e1309ca87c32377d1a83366c5990472dbf9d262450eae14e3845524332305065726d69743a206578706972656420646561646c696e6500000045524332305065726d69743a20696e76616c6964207369676e6174757265000085b91d472e69b2cfe848ed50eb5d8582ae96c22057b6e46250255dd6f6c35192ae6e0ab3b95f0a53ff9660a390ccedcbbf1f2355dce974a9841af106fddcfabac353b09af857951dccce61b43a5854fc45beceed36c50e5d4cc2e71858a8e0df8be0079c531659141344cd1fd0a4f28419497f9722a3daafe3b4186f6b6457e0ddf252ad1be2c89b69c2b068fc378daa952ba7f163c4a11628f55a4df523b3ef6e71edae12b1b97f4d1f60370fef10105fa2faae0126114a169c64845d6126c933af5ce86e8438eff54589f85332916444457dfa8685493fbd579b809097026b1b6847dc741a1b0cd08d278845f9d819d87b734759afb55fe2de5cb82a9ae672e9685ff6d48c617fe4f692c50e602cce27cbad0290beb93cfa77eac43968d58ca264697066735822122063c1a75462b9eacd080b243ef91902607bac61aae0074c26eefb48bb4653448764736f6c63430008120033",
  "linkReferences": {},
  "deployedLinkReferences": {}
}