{
  "_format": "hh-sol-artifact-1",
  "contractName": "SGLLiquidation",
  "sourceName": "contracts/markets/singularity/SGLLiquidation.sol",
  "abi": [
    {
      "anonymous": false,
      "inputs": [
        {
          "indexed": true,
          "internalType": "address",
          "name": "owner",
          "type": "address"
        },
        {
          "indexed": true,
          "internalType": "address",
          "name": "spender",
          "type": "address"
        },
        {
          "indexed": false,
          "internalType": "uint256",
          "name": "value",
          "type": "uint256"
        }
      ],
      "name": "Approval",
      "type": "event"
    },
    {
      "anonymous": false,
      "inputs": [
        {
          "indexed": true,
          "internalType": "address",
          "name": "owner",
          "type": "address"
        },
        {
          "indexed": true,
          "internalType": "address",
          "name": "spender",
          "type": "address"
        },
        {
          "indexed": false,
          "internalType": "uint256",
          "name": "value",
          "type": "uint256"
        }
      ],
      "name": "ApprovalBorrow",
      "type": "event"
    },
    {
      "anonymous": false,
      "inputs": [
        {
          "indexed": true,
          "internalType": "address",
          "name": "newAddress",
          "type": "address"
        }
      ],
      "name": "BidExecutionSwapperUpdated",
      "type": "event"
    },
    {
      "anonymous": false,
      "inputs": [
        {
          "indexed": true,
          "internalType": "address",
          "name": "old",
          "type": "address"
        },
        {
          "indexed": true,
          "internalType": "address",
          "name": "_new",
          "type": "address"
        }
      ],
      "name": "ConservatorUpdated",
      "type": "event"
    },
    {
      "anonymous": false,
      "inputs": [
        {
          "indexed": false,
          "internalType": "uint256",
          "name": "oldVal",
          "type": "uint256"
        },
        {
          "indexed": false,
          "internalType": "uint256",
          "name": "newVal",
          "type": "uint256"
        }
      ],
      "name": "InterestElasticityUpdated",
      "type": "event"
    },
    {
      "anonymous": false,
      "inputs": [
        {
          "indexed": true,
          "internalType": "address",
          "name": "liquidator",
          "type": "address"
        },
        {
          "indexed": false,
          "internalType": "address[]",
          "name": "users",
          "type": "address[]"
        },
        {
          "indexed": false,
          "internalType": "uint256",
          "name": "liquidatorReward",
          "type": "uint256"
        },
        {
          "indexed": false,
          "internalType": "uint256",
          "name": "protocolReward",
          "type": "uint256"
        },
        {
          "indexed": false,
          "internalType": "uint256",
          "name": "repayedAmount",
          "type": "uint256"
        },
        {
          "indexed": false,
          "internalType": "uint256",
          "name": "collateralShareRemoved",
          "type": "uint256"
        }
      ],
      "name": "Liquidated",
      "type": "event"
    },
    {
      "anonymous": false,
      "inputs": [
        {
          "indexed": false,
          "internalType": "uint256",
          "name": "oldVal",
          "type": "uint256"
        },
        {
          "indexed": false,
          "internalType": "uint256",
          "name": "newVal",
          "type": "uint256"
        }
      ],
      "name": "LiquidationMultiplierUpdated",
      "type": "event"
    },
    {
      "anonymous": false,
      "inputs": [
        {
          "indexed": false,
          "internalType": "uint256",
          "name": "accruedAmount",
          "type": "uint256"
        },
        {
          "indexed": false,
          "internalType": "uint256",
          "name": "feeFraction",
          "type": "uint256"
        },
        {
          "indexed": false,
          "internalType": "uint64",
          "name": "rate",
          "type": "uint64"
        },
        {
          "indexed": false,
          "internalType": "uint256",
          "name": "utilization",
          "type": "uint256"
        }
      ],
      "name": "LogAccrue",
      "type": "event"
    },
    {
      "anonymous": false,
      "inputs": [
        {
          "indexed": true,
          "internalType": "address",
          "name": "from",
          "type": "address"
        },
        {
          "indexed": true,
          "internalType": "address",
          "name": "to",
          "type": "address"
        },
        {
          "indexed": false,
          "internalType": "uint256",
          "name": "share",
          "type": "uint256"
        },
        {
          "indexed": false,
          "internalType": "uint256",
          "name": "fraction",
          "type": "uint256"
        }
      ],
      "name": "LogAddAsset",
      "type": "event"
    },
    {
      "anonymous": false,
      "inputs": [
        {
          "indexed": true,
          "internalType": "address",
          "name": "from",
          "type": "address"
        },
        {
          "indexed": true,
          "internalType": "address",
          "name": "to",
          "type": "address"
        },
        {
          "indexed": false,
          "internalType": "uint256",
          "name": "share",
          "type": "uint256"
        }
      ],
      "name": "LogAddCollateral",
      "type": "event"
    },
    {
      "anonymous": false,
      "inputs": [
        {
          "indexed": true,
          "internalType": "address",
          "name": "from",
          "type": "address"
        },
        {
          "indexed": true,
          "internalType": "address",
          "name": "to",
          "type": "address"
        },
        {
          "indexed": false,
          "internalType": "uint256",
          "name": "amount",
          "type": "uint256"
        },
        {
          "indexed": false,
          "internalType": "uint256",
          "name": "feeAmount",
          "type": "uint256"
        },
        {
          "indexed": false,
          "internalType": "uint256",
          "name": "part",
          "type": "uint256"
        }
      ],
      "name": "LogBorrow",
      "type": "event"
    },
    {
      "anonymous": false,
      "inputs": [
        {
          "indexed": false,
          "internalType": "uint256",
          "name": "_oldVal",
          "type": "uint256"
        },
        {
          "indexed": false,
          "internalType": "uint256",
          "name": "_newVal",
          "type": "uint256"
        }
      ],
      "name": "LogBorrowCapUpdated",
      "type": "event"
    },
    {
      "anonymous": false,
      "inputs": [
        {
          "indexed": false,
          "internalType": "uint256",
          "name": "_oldVal",
          "type": "uint256"
        },
        {
          "indexed": false,
          "internalType": "uint256",
          "name": "_newVal",
          "type": "uint256"
        }
      ],
      "name": "LogBorrowingFee",
      "type": "event"
    },
    {
      "anonymous": false,
      "inputs": [
        {
          "indexed": false,
          "internalType": "uint256",
          "name": "rate",
          "type": "uint256"
        }
      ],
      "name": "LogExchangeRate",
      "type": "event"
    },
    {
      "anonymous": false,
      "inputs": [
        {
          "indexed": true,
          "internalType": "address",
          "name": "from",
          "type": "address"
        },
        {
          "indexed": true,
          "internalType": "address",
          "name": "to",
          "type": "address"
        },
        {
          "indexed": false,
          "internalType": "uint256",
          "name": "share",
          "type": "uint256"
        },
        {
          "indexed": false,
          "internalType": "uint256",
          "name": "fraction",
          "type": "uint256"
        }
      ],
      "name": "LogRemoveAsset",
      "type": "event"
    },
    {
      "anonymous": false,
      "inputs": [
        {
          "indexed": true,
          "internalType": "address",
          "name": "from",
          "type": "address"
        },
        {
          "indexed": true,
          "internalType": "address",
          "name": "to",
          "type": "address"
        },
        {
          "indexed": false,
          "internalType": "uint256",
          "name": "share",
          "type": "uint256"
        }
      ],
      "name": "LogRemoveCollateral",
      "type": "event"
    },
    {
      "anonymous": false,
      "inputs": [
        {
          "indexed": true,
          "internalType": "address",
          "name": "from",
          "type": "address"
        },
        {
          "indexed": true,
          "internalType": "address",
          "name": "to",
          "type": "address"
        },
        {
          "indexed": false,
          "internalType": "uint256",
          "name": "amount",
          "type": "uint256"
        },
        {
          "indexed": false,
          "internalType": "uint256",
          "name": "part",
          "type": "uint256"
        }
      ],
      "name": "LogRepay",
      "type": "event"
    },
    {
      "anonymous": false,
      "inputs": [
        {
          "indexed": true,
          "internalType": "address",
          "name": "feeTo",
          "type": "address"
        },
        {
          "indexed": false,
          "internalType": "uint256",
          "name": "feesEarnedFraction",
          "type": "uint256"
        }
      ],
      "name": "LogWithdrawFees",
      "type": "event"
    },
    {
      "anonymous": false,
      "inputs": [
        {
          "indexed": false,
          "internalType": "uint256",
          "name": "feeShares",
          "type": "uint256"
        },
        {
          "indexed": false,
          "internalType": "uint256",
          "name": "ethAmount",
          "type": "uint256"
        }
      ],
      "name": "LogYieldBoxFeesDeposit",
      "type": "event"
    },
    {
      "anonymous": false,
      "inputs": [
        {
          "indexed": false,
          "internalType": "uint256",
          "name": "oldVal",
          "type": "uint256"
        },
        {
          "indexed": false,
          "internalType": "uint256",
          "name": "newVal",
          "type": "uint256"
        }
      ],
      "name": "LqCollateralizationRateUpdated",
      "type": "event"
    },
    {
      "anonymous": false,
      "inputs": [
        {
          "indexed": false,
          "internalType": "uint256",
          "name": "oldVal",
          "type": "uint256"
        },
        {
          "indexed": false,
          "internalType": "uint256",
          "name": "newVal",
          "type": "uint256"
        }
      ],
      "name": "MaximumInterestPerSecondUpdated",
      "type": "event"
    },
    {
      "anonymous": false,
      "inputs": [
        {
          "indexed": false,
          "internalType": "uint256",
          "name": "oldVal",
          "type": "uint256"
        },
        {
          "indexed": false,
          "internalType": "uint256",
          "name": "newVal",
          "type": "uint256"
        }
      ],
      "name": "MaximumTargetUtilizationUpdated",
      "type": "event"
    },
    {
      "anonymous": false,
      "inputs": [
        {
          "indexed": false,
          "internalType": "uint256",
          "name": "oldVal",
          "type": "uint256"
        },
        {
          "indexed": false,
          "internalType": "uint256",
          "name": "newVal",
          "type": "uint256"
        }
      ],
      "name": "MinimumInterestPerSecondUpdated",
      "type": "event"
    },
    {
      "anonymous": false,
      "inputs": [
        {
          "indexed": false,
          "internalType": "uint256",
          "name": "oldVal",
          "type": "uint256"
        },
        {
          "indexed": false,
          "internalType": "uint256",
          "name": "newVal",
          "type": "uint256"
        }
      ],
      "name": "MinimumTargetUtilizationUpdated",
      "type": "event"
    },
    {
      "anonymous": false,
      "inputs": [],
      "name": "OracleDataUpdated",
      "type": "event"
    },
    {
      "anonymous": false,
      "inputs": [],
      "name": "OracleUpdated",
      "type": "event"
    },
    {
      "anonymous": false,
      "inputs": [
        {
          "indexed": false,
          "internalType": "uint256",
          "name": "oldVal",
          "type": "uint256"
        },
        {
          "indexed": false,
          "internalType": "uint256",
          "name": "newVal",
          "type": "uint256"
        }
      ],
      "name": "OrderBookLiquidationMultiplierUpdated",
      "type": "event"
    },
    {
      "anonymous": false,
      "inputs": [
        {
          "indexed": true,
          "internalType": "address",
          "name": "previousOwner",
          "type": "address"
        },
        {
          "indexed": true,
          "internalType": "address",
          "name": "newOwner",
          "type": "address"
        }
      ],
      "name": "OwnershipTransferred",
      "type": "event"
    },
    {
      "anonymous": false,
      "inputs": [
        {
          "indexed": false,
          "internalType": "bool",
          "name": "oldState",
          "type": "bool"
        },
        {
          "indexed": false,
          "internalType": "bool",
          "name": "newState",
          "type": "bool"
        }
      ],
      "name": "PausedUpdated",
      "type": "event"
    },
    {
      "anonymous": false,
      "inputs": [
        {
          "indexed": true,
          "internalType": "address",
          "name": "from",
          "type": "address"
        },
        {
          "indexed": true,
          "internalType": "address",
          "name": "to",
          "type": "address"
        },
        {
          "indexed": false,
          "internalType": "uint256",
          "name": "value",
          "type": "uint256"
        }
      ],
      "name": "Transfer",
      "type": "event"
    },
    {
      "anonymous": false,
      "inputs": [
        {
          "indexed": true,
          "internalType": "address",
          "name": "newAddress",
          "type": "address"
        }
      ],
      "name": "UsdoSwapperUpdated",
      "type": "event"
    },
    {
      "inputs": [],
      "name": "DOMAIN_SEPARATOR",
      "outputs": [
        {
          "internalType": "bytes32",
          "name": "",
          "type": "bytes32"
        }
      ],
      "stateMutability": "view",
      "type": "function"
    },
    {
      "inputs": [],
      "name": "accrue",
      "outputs": [],
      "stateMutability": "nonpayable",
      "type": "function"
    },
    {
      "inputs": [],
      "name": "accrueInfo",
      "outputs": [
        {
          "internalType": "uint64",
          "name": "interestPerSecond",
          "type": "uint64"
        },
        {
          "internalType": "uint64",
          "name": "lastAccrued",
          "type": "uint64"
        },
        {
          "internalType": "uint128",
          "name": "feesEarnedFraction",
          "type": "uint128"
        }
      ],
      "stateMutability": "view",
      "type": "function"
    },
    {
      "inputs": [
        {
          "internalType": "address",
          "name": "",
          "type": "address"
        },
        {
          "internalType": "address",
          "name": "",
          "type": "address"
        }
      ],
      "name": "allowance",
      "outputs": [
        {
          "internalType": "uint256",
          "name": "",
          "type": "uint256"
        }
      ],
      "stateMutability": "view",
      "type": "function"
    },
    {
      "inputs": [
        {
          "internalType": "address",
          "name": "",
          "type": "address"
        },
        {
          "internalType": "address",
          "name": "",
          "type": "address"
        }
      ],
      "name": "allowanceBorrow",
      "outputs": [
        {
          "internalType": "uint256",
          "name": "",
          "type": "uint256"
        }
      ],
      "stateMutability": "view",
      "type": "function"
    },
    {
      "inputs": [
        {
          "internalType": "address",
          "name": "spender",
          "type": "address"
        },
        {
          "internalType": "uint256",
          "name": "amount",
          "type": "uint256"
        }
      ],
      "name": "approve",
      "outputs": [
        {
          "internalType": "bool",
          "name": "",
          "type": "bool"
        }
      ],
      "stateMutability": "nonpayable",
      "type": "function"
    },
    {
      "inputs": [
        {
          "internalType": "address",
          "name": "spender",
          "type": "address"
        },
        {
          "internalType": "uint256",
          "name": "amount",
          "type": "uint256"
        }
      ],
      "name": "approveBorrow",
      "outputs": [
        {
          "internalType": "bool",
          "name": "",
          "type": "bool"
        }
      ],
      "stateMutability": "nonpayable",
      "type": "function"
    },
    {
      "inputs": [],
      "name": "asset",
      "outputs": [
        {
          "internalType": "contract IERC20",
          "name": "",
          "type": "address"
        }
      ],
      "stateMutability": "view",
      "type": "function"
    },
    {
      "inputs": [],
      "name": "assetId",
      "outputs": [
        {
          "internalType": "uint256",
          "name": "",
          "type": "uint256"
        }
      ],
      "stateMutability": "view",
      "type": "function"
    },
    {
      "inputs": [
        {
          "internalType": "address",
          "name": "",
          "type": "address"
        }
      ],
      "name": "balanceOf",
      "outputs": [
        {
          "internalType": "uint256",
          "name": "",
          "type": "uint256"
        }
      ],
      "stateMutability": "view",
      "type": "function"
    },
    {
      "inputs": [],
      "name": "borrowOpeningFee",
      "outputs": [
        {
          "internalType": "uint256",
          "name": "",
          "type": "uint256"
        }
      ],
      "stateMutability": "view",
      "type": "function"
    },
    {
      "inputs": [],
      "name": "callerFee",
      "outputs": [
        {
          "internalType": "uint256",
          "name": "",
          "type": "uint256"
        }
      ],
      "stateMutability": "view",
      "type": "function"
    },
    {
      "inputs": [],
      "name": "claimOwnership",
      "outputs": [],
      "stateMutability": "nonpayable",
      "type": "function"
    },
    {
      "inputs": [],
      "name": "collateral",
      "outputs": [
        {
          "internalType": "contract IERC20",
          "name": "",
          "type": "address"
        }
      ],
      "stateMutability": "view",
      "type": "function"
    },
    {
      "inputs": [],
      "name": "collateralId",
      "outputs": [
        {
          "internalType": "uint256",
          "name": "",
          "type": "uint256"
        }
      ],
      "stateMutability": "view",
      "type": "function"
    },
    {
      "inputs": [],
      "name": "collateralizationRate",
      "outputs": [
        {
          "internalType": "uint256",
          "name": "",
          "type": "uint256"
        }
      ],
      "stateMutability": "view",
      "type": "function"
    },
    {
      "inputs": [
        {
          "internalType": "uint256",
          "name": "borrowPart",
          "type": "uint256"
        },
        {
          "internalType": "uint256",
          "name": "collateralPartInAsset",
          "type": "uint256"
        },
        {
          "internalType": "uint256",
          "name": "ratesPrecision",
          "type": "uint256"
        }
      ],
      "name": "computeClosingFactor",
      "outputs": [
        {
          "internalType": "uint256",
          "name": "",
          "type": "uint256"
        }
      ],
      "stateMutability": "view",
      "type": "function"
    },
    {
      "inputs": [
        {
          "internalType": "address",
          "name": "user",
          "type": "address"
        },
        {
          "internalType": "uint256",
          "name": "_exchangeRate",
          "type": "uint256"
        }
      ],
      "name": "computeLiquidatorReward",
      "outputs": [
        {
          "internalType": "uint256",
          "name": "",
          "type": "uint256"
        }
      ],
      "stateMutability": "view",
      "type": "function"
    },
    {
      "inputs": [
        {
          "internalType": "address",
          "name": "user",
          "type": "address"
        },
        {
          "internalType": "uint256",
          "name": "_exchangeRate",
          "type": "uint256"
        }
      ],
      "name": "computeTVLInfo",
      "outputs": [
        {
          "internalType": "uint256",
          "name": "amountToSolvency",
          "type": "uint256"
        },
        {
          "internalType": "uint256",
          "name": "minTVL",
          "type": "uint256"
        },
        {
          "internalType": "uint256",
          "name": "maxTVL",
          "type": "uint256"
        }
      ],
      "stateMutability": "view",
      "type": "function"
    },
    {
      "inputs": [],
      "name": "conservator",
      "outputs": [
        {
          "internalType": "address",
          "name": "",
          "type": "address"
        }
      ],
      "stateMutability": "view",
      "type": "function"
    },
    {
      "inputs": [],
      "name": "decimals",
      "outputs": [
        {
          "internalType": "uint8",
          "name": "",
          "type": "uint8"
        }
      ],
      "stateMutability": "view",
      "type": "function"
    },
    {
      "inputs": [],
      "name": "exchangeRate",
      "outputs": [
        {
          "internalType": "uint256",
          "name": "",
          "type": "uint256"
        }
      ],
      "stateMutability": "view",
      "type": "function"
    },
    {
      "inputs": [],
      "name": "fullUtilizationMinusMax",
      "outputs": [
        {
          "internalType": "uint256",
          "name": "",
          "type": "uint256"
        }
      ],
      "stateMutability": "view",
      "type": "function"
    },
    {
      "inputs": [],
      "name": "getInterestDetails",
      "outputs": [
        {
          "components": [
            {
              "internalType": "uint64",
              "name": "interestPerSecond",
              "type": "uint64"
            },
            {
              "internalType": "uint64",
              "name": "lastAccrued",
              "type": "uint64"
            },
            {
              "internalType": "uint128",
              "name": "feesEarnedFraction",
              "type": "uint128"
            }
          ],
          "internalType": "struct ISingularity.AccrueInfo",
          "name": "_accrueInfo",
          "type": "tuple"
        },
        {
          "internalType": "uint256",
          "name": "utilization",
          "type": "uint256"
        }
      ],
      "stateMutability": "view",
      "type": "function"
    },
    {
      "inputs": [],
      "name": "interestElasticity",
      "outputs": [
        {
          "internalType": "uint256",
          "name": "",
          "type": "uint256"
        }
      ],
      "stateMutability": "view",
      "type": "function"
    },
    {
      "inputs": [
        {
          "internalType": "address[]",
          "name": "users",
          "type": "address[]"
        },
        {
          "internalType": "uint256[]",
          "name": "maxBorrowParts",
          "type": "uint256[]"
        },
        {
          "internalType": "contract ISwapper",
          "name": "swapper",
          "type": "address"
        },
        {
          "internalType": "bytes",
          "name": "collateralToAssetSwapData",
          "type": "bytes"
        },
        {
          "internalType": "bytes",
          "name": "usdoToBorrowedSwapData",
          "type": "bytes"
        }
      ],
      "name": "liquidate",
      "outputs": [],
      "stateMutability": "nonpayable",
      "type": "function"
    },
    {
      "inputs": [
        {
          "internalType": "address",
          "name": "user",
          "type": "address"
        },
        {
          "internalType": "address",
          "name": "receiver",
          "type": "address"
        },
        {
          "internalType": "contract ISwapper",
          "name": "swapper",
          "type": "address"
        },
        {
          "internalType": "bytes",
          "name": "collateralToAssetSwapData",
          "type": "bytes"
        }
      ],
      "name": "liquidateBadDebt",
      "outputs": [],
      "stateMutability": "nonpayable",
      "type": "function"
    },
    {
      "inputs": [],
      "name": "liquidationBonusAmount",
      "outputs": [
        {
          "internalType": "uint256",
          "name": "",
          "type": "uint256"
        }
      ],
      "stateMutability": "view",
      "type": "function"
    },
    {
      "inputs": [],
      "name": "liquidationMultiplier",
      "outputs": [
        {
          "internalType": "uint256",
          "name": "",
          "type": "uint256"
        }
      ],
      "stateMutability": "view",
      "type": "function"
    },
    {
      "inputs": [],
      "name": "liquidationQueue",
      "outputs": [
        {
          "internalType": "contract ILiquidationQueue",
          "name": "",
          "type": "address"
        }
      ],
      "stateMutability": "view",
      "type": "function"
    },
    {
      "inputs": [],
      "name": "lqCollateralizationRate",
      "outputs": [
        {
          "internalType": "uint256",
          "name": "",
          "type": "uint256"
        }
      ],
      "stateMutability": "view",
      "type": "function"
    },
    {
      "inputs": [],
      "name": "maxLiquidatorReward",
      "outputs": [
        {
          "internalType": "uint256",
          "name": "",
          "type": "uint256"
        }
      ],
      "stateMutability": "view",
      "type": "function"
    },
    {
      "inputs": [],
      "name": "maximumInterestPerSecond",
      "outputs": [
        {
          "internalType": "uint64",
          "name": "",
          "type": "uint64"
        }
      ],
      "stateMutability": "view",
      "type": "function"
    },
    {
      "inputs": [],
      "name": "maximumTargetUtilization",
      "outputs": [
        {
          "internalType": "uint256",
          "name": "",
          "type": "uint256"
        }
      ],
      "stateMutability": "view",
      "type": "function"
    },
    {
      "inputs": [],
      "name": "minLiquidatorReward",
      "outputs": [
        {
          "internalType": "uint256",
          "name": "",
          "type": "uint256"
        }
      ],
      "stateMutability": "view",
      "type": "function"
    },
    {
      "inputs": [],
      "name": "minimumInterestPerSecond",
      "outputs": [
        {
          "internalType": "uint64",
          "name": "",
          "type": "uint64"
        }
      ],
      "stateMutability": "view",
      "type": "function"
    },
    {
      "inputs": [],
      "name": "minimumTargetUtilization",
      "outputs": [
        {
          "internalType": "uint256",
          "name": "",
          "type": "uint256"
        }
      ],
      "stateMutability": "view",
      "type": "function"
    },
    {
      "inputs": [],
      "name": "name",
      "outputs": [
        {
          "internalType": "string",
          "name": "",
          "type": "string"
        }
      ],
      "stateMutability": "view",
      "type": "function"
    },
    {
      "inputs": [
        {
          "internalType": "address",
          "name": "owner",
          "type": "address"
        }
      ],
      "name": "nonces",
      "outputs": [
        {
          "internalType": "uint256",
          "name": "",
          "type": "uint256"
        }
      ],
      "stateMutability": "view",
      "type": "function"
    },
    {
      "inputs": [],
      "name": "oracle",
      "outputs": [
        {
          "internalType": "contract IOracle",
          "name": "",
          "type": "address"
        }
      ],
      "stateMutability": "view",
      "type": "function"
    },
    {
      "inputs": [],
      "name": "oracleData",
      "outputs": [
        {
          "internalType": "bytes",
          "name": "",
          "type": "bytes"
        }
      ],
      "stateMutability": "view",
      "type": "function"
    },
    {
      "inputs": [],
      "name": "owner",
      "outputs": [
        {
          "internalType": "address",
          "name": "",
          "type": "address"
        }
      ],
      "stateMutability": "view",
      "type": "function"
    },
    {
      "inputs": [],
      "name": "paused",
      "outputs": [
        {
          "internalType": "bool",
          "name": "",
          "type": "bool"
        }
      ],
      "stateMutability": "view",
      "type": "function"
    },
    {
      "inputs": [],
      "name": "pendingOwner",
      "outputs": [
        {
          "internalType": "address",
          "name": "",
          "type": "address"
        }
      ],
      "stateMutability": "view",
      "type": "function"
    },
    {
      "inputs": [],
      "name": "penrose",
      "outputs": [
        {
          "internalType": "contract IPenrose",
          "name": "",
          "type": "address"
        }
      ],
      "stateMutability": "view",
      "type": "function"
    },
    {
      "inputs": [
        {
          "internalType": "address",
          "name": "owner",
          "type": "address"
        },
        {
          "internalType": "address",
          "name": "spender",
          "type": "address"
        },
        {
          "internalType": "uint256",
          "name": "value",
          "type": "uint256"
        },
        {
          "internalType": "uint256",
          "name": "deadline",
          "type": "uint256"
        },
        {
          "internalType": "uint8",
          "name": "v",
          "type": "uint8"
        },
        {
          "internalType": "bytes32",
          "name": "r",
          "type": "bytes32"
        },
        {
          "internalType": "bytes32",
          "name": "s",
          "type": "bytes32"
        }
      ],
      "name": "permit",
      "outputs": [],
      "stateMutability": "nonpayable",
      "type": "function"
    },
    {
      "inputs": [
        {
          "internalType": "address",
          "name": "owner",
          "type": "address"
        },
        {
          "internalType": "address",
          "name": "spender",
          "type": "address"
        },
        {
          "internalType": "uint256",
          "name": "value",
          "type": "uint256"
        },
        {
          "internalType": "uint256",
          "name": "deadline",
          "type": "uint256"
        },
        {
          "internalType": "uint8",
          "name": "v",
          "type": "uint8"
        },
        {
          "internalType": "bytes32",
          "name": "r",
          "type": "bytes32"
        },
        {
          "internalType": "bytes32",
          "name": "s",
          "type": "bytes32"
        }
      ],
      "name": "permitBorrow",
      "outputs": [],
      "stateMutability": "nonpayable",
      "type": "function"
    },
    {
      "inputs": [],
      "name": "protocolFee",
      "outputs": [
        {
          "internalType": "uint256",
          "name": "",
          "type": "uint256"
        }
      ],
      "stateMutability": "view",
      "type": "function"
    },
    {
      "inputs": [
        {
          "internalType": "uint256",
          "name": "_cap",
          "type": "uint256"
        }
      ],
      "name": "setBorrowCap",
      "outputs": [],
      "stateMutability": "nonpayable",
      "type": "function"
    },
    {
      "inputs": [
        {
          "internalType": "uint256",
          "name": "_val",
          "type": "uint256"
        }
      ],
      "name": "setBorrowOpeningFee",
      "outputs": [],
      "stateMutability": "nonpayable",
      "type": "function"
    },
    {
      "inputs": [
        {
          "internalType": "uint256",
          "name": "_borrowOpeningFee",
          "type": "uint256"
        },
        {
          "internalType": "contract IOracle",
          "name": "_oracle",
          "type": "address"
        },
        {
          "internalType": "bytes",
          "name": "_oracleData",
          "type": "bytes"
        },
        {
          "internalType": "address",
          "name": "_conservator",
          "type": "address"
        },
        {
          "internalType": "uint256",
          "name": "_callerFee",
          "type": "uint256"
        },
        {
          "internalType": "uint256",
          "name": "_protocolFee",
          "type": "uint256"
        },
        {
          "internalType": "uint256",
          "name": "_liquidationBonusAmount",
          "type": "uint256"
        },
        {
          "internalType": "uint256",
          "name": "_minLiquidatorReward",
          "type": "uint256"
        },
        {
          "internalType": "uint256",
          "name": "_maxLiquidatorReward",
          "type": "uint256"
        },
        {
          "internalType": "uint256",
          "name": "_totalBorrowCap",
          "type": "uint256"
        },
        {
          "internalType": "uint256",
          "name": "_collateralizationRate",
          "type": "uint256"
        }
      ],
      "name": "setMarketConfig",
      "outputs": [],
      "stateMutability": "nonpayable",
      "type": "function"
    },
    {
      "inputs": [],
      "name": "startingInterestPerSecond",
      "outputs": [
        {
          "internalType": "uint64",
          "name": "",
          "type": "uint64"
        }
      ],
      "stateMutability": "view",
      "type": "function"
    },
    {
      "inputs": [],
      "name": "symbol",
      "outputs": [
        {
          "internalType": "string",
          "name": "",
          "type": "string"
        }
      ],
      "stateMutability": "view",
      "type": "function"
    },
    {
      "inputs": [],
      "name": "totalAsset",
      "outputs": [
        {
          "internalType": "uint128",
          "name": "elastic",
          "type": "uint128"
        },
        {
          "internalType": "uint128",
          "name": "base",
          "type": "uint128"
        }
      ],
      "stateMutability": "view",
      "type": "function"
    },
    {
      "inputs": [],
      "name": "totalBorrow",
      "outputs": [
        {
          "internalType": "uint128",
          "name": "elastic",
          "type": "uint128"
        },
        {
          "internalType": "uint128",
          "name": "base",
          "type": "uint128"
        }
      ],
      "stateMutability": "view",
      "type": "function"
    },
    {
      "inputs": [],
      "name": "totalBorrowCap",
      "outputs": [
        {
          "internalType": "uint256",
          "name": "",
          "type": "uint256"
        }
      ],
      "stateMutability": "view",
      "type": "function"
    },
    {
      "inputs": [],
      "name": "totalCollateralShare",
      "outputs": [
        {
          "internalType": "uint256",
          "name": "",
          "type": "uint256"
        }
      ],
      "stateMutability": "view",
      "type": "function"
    },
    {
      "inputs": [],
      "name": "totalSupply",
      "outputs": [
        {
          "internalType": "uint256",
          "name": "",
          "type": "uint256"
        }
      ],
      "stateMutability": "view",
      "type": "function"
    },
    {
      "inputs": [
        {
          "internalType": "address",
          "name": "to",
          "type": "address"
        },
        {
          "internalType": "uint256",
          "name": "amount",
          "type": "uint256"
        }
      ],
      "name": "transfer",
      "outputs": [
        {
          "internalType": "bool",
          "name": "",
          "type": "bool"
        }
      ],
      "stateMutability": "nonpayable",
      "type": "function"
    },
    {
      "inputs": [
        {
          "internalType": "address",
          "name": "from",
          "type": "address"
        },
        {
          "internalType": "address",
          "name": "to",
          "type": "address"
        },
        {
          "internalType": "uint256",
          "name": "amount",
          "type": "uint256"
        }
      ],
      "name": "transferFrom",
      "outputs": [
        {
          "internalType": "bool",
          "name": "",
          "type": "bool"
        }
      ],
      "stateMutability": "nonpayable",
      "type": "function"
    },
    {
      "inputs": [
        {
          "internalType": "address",
          "name": "newOwner",
          "type": "address"
        },
        {
          "internalType": "bool",
          "name": "direct",
          "type": "bool"
        },
        {
          "internalType": "bool",
          "name": "renounce",
          "type": "bool"
        }
      ],
      "name": "transferOwnership",
      "outputs": [],
      "stateMutability": "nonpayable",
      "type": "function"
    },
    {
      "inputs": [],
      "name": "updateExchangeRate",
      "outputs": [
        {
          "internalType": "bool",
          "name": "updated",
          "type": "bool"
        },
        {
          "internalType": "uint256",
          "name": "rate",
          "type": "uint256"
        }
      ],
      "stateMutability": "nonpayable",
      "type": "function"
    },
    {
      "inputs": [
        {
          "internalType": "bool",
          "name": "val",
          "type": "bool"
        }
      ],
      "name": "updatePause",
      "outputs": [],
      "stateMutability": "nonpayable",
      "type": "function"
    },
    {
      "inputs": [
        {
          "internalType": "address",
          "name": "",
          "type": "address"
        }
      ],
      "name": "userBorrowPart",
      "outputs": [
        {
          "internalType": "uint256",
          "name": "",
          "type": "uint256"
        }
      ],
      "stateMutability": "view",
      "type": "function"
    },
    {
      "inputs": [
        {
          "internalType": "address",
          "name": "",
          "type": "address"
        }
      ],
      "name": "userCollateralShare",
      "outputs": [
        {
          "internalType": "uint256",
          "name": "",
          "type": "uint256"
        }
      ],
      "stateMutability": "view",
      "type": "function"
    },
    {
      "inputs": [],
      "name": "yieldBox",
      "outputs": [
        {
          "internalType": "contract YieldBox",
          "name": "",
          "type": "address"
        }
      ],
      "stateMutability": "view",
      "type": "function"
    }
  ],
  "bytecode": "0x6101408060405234620001e1576200001781620001e6565b601381526001602082017f546170696f63612053696e67756c617269747900000000000000000000000000815260206040516200005481620001e6565b8381520192603160f81b845251902091208160e052610100918183524660a0526040519160208301907f8b73c3c69bb8fe3d512ecc4cf759cc79239f7b179b0ffacaa9a75d522b39400f92838352604085015260608401524660808401523060a084015260a0835260c083019280841060018060401b03851117620001cb5760408490525190206080523060c052610120908152600580546001600160a01b0319163390811790915560007f8be0079c531659141344cd1fd0a4f28419497f9722a3daafe3b4186f6b6457e08180a36103e860185561271080601955601a556032601c55612ee0601d557f0bd4060688a1800ae986e4840aebc924bb40b5bf44de4583df2257220b54b77c6024557f7d1dc38e60930664f8cbf495da6556ca091d2f92d6550877750c049864b182306025556161a8602655614c6092836200020384396080518361279b015260a05183612865015260c05183612765015260e051836127ea01525182612810015251816127c70152f35b634e487b7160e01b600052604160045260246000fd5b600080fd5b604081019081106001600160401b03821117620001cb5760405256fe60a060408181526004918236101561001657600080fd5b600092833560e01c918262a02a2014611d945750816302ce728f14611d6b57816306fdde0314611cb4578163078dfbe714611bb9578163095ea7b314611b8f57816318160ddd14611b6d5781631c9e379b14611b355781631da8bf1014611a7b57816323b872dd146118de57838263313ce567146118405750816334d441d0146118215781633644e5151461180457816338d52e0f146117db5781633ba0b9a9146117bc5781633edb17891461171c5781633f741adb146116f457816340626d8b146116d557816344de240a146116b6578163473e3ce71461169757816348e4163e1461165f5781634d7f2a34146116405781634e71e0c81461159d5781635100b5671461153f578163529898f21461152057816352f353eb146114f757816355140232146114ce57816355c2ab94146114a557816357935462146114865781635c975abb146114625781635dfe04e8146114035781636c3d8b8f146113da57816370a08231146113a2578163717186d11461134457816374645ff3146112875781637dc0d1d01461125e5781637ecebe00146112285781637fa0b84e146111f7578163821226e8146111d85781638285ef40146111a55781638c5d0ed3146111865781638da5cb5b1461115d578163959916dc1461113e57816395d89b41146110865781639675937214610ca757816399a9702814610c4f5781639c5d719214610c305781639e15e89f14610bf5578163a28e6b82146108be578163a9059cbb146107e3578163b0e21e8a146107c4578163b27c0e741461078a578163bb4cfe3b1461076b578163c23ea21f14610742578163ce8849ed14610715578163d505accf14610593578163d8dfeb451461056a578163dd62ed3e14610521578163de406577146104f8578163e0996cb6146104d9578163e30c3978146104b0578163eec0f42e14610491578163f42760b714610472578163f8974de01461037257508063f8ba4cff14610353578063f9557ccb1461031d5763ffe04c66146102fc57600080fd5b346103195781600319360112610319576020906027549051908152f35b5080fd5b5034610319578160031936011261031957602154905190819061034f90608081901c906001600160801b031683612007565b0390f35b823461036f578060031936011261036f5761036c612f61565b80f35b80fd5b9190503461046e57602036600319011261046e5781359081151580920361046a57600d5492600884901c6001600160a01b031633036104315760ff84161515908184146103f95750817f9c13c5f6c628c1c82eb2b3fd8714da5c2857dbd0ad8ab6b2074abcf81015d3969160ff949351908152836020820152a1169060ff191617600d5580f35b606490602084519162461bcd60e51b835282015260126024820152714d61726b65743a2073616d6520737461746560701b6044820152fd5b6020606492519162461bcd60e51b8352820152601460248201527313585c9ad95d0e881d5b985d5d1a1bdc9a5e995960621b6044820152fd5b8380fd5b8280fd5b5050346103195781600319360112610319576020906028549051908152f35b505034610319578160031936011261031957602090600a549051908152f35b50503461031957816003193601126103195760065490516001600160a01b039091168152602090f35b505034610319578160031936011261031957602090601a549051908152f35b50503461031957816003193601126103195760075490516001600160a01b039091168152602090f35b5050346103195780600319360112610319578060209261053f611dda565b610547611df5565b6001600160a01b0391821683526002865283832091168252845220549051908152f35b50503461031957816003193601126103195760095490516001600160a01b039091168152602090f35b83915034610319576105a436611e53565b928097949796959692919242116106d2578893869361067d938c888b610675968e8460018060a01b03809c169c8d9586825260205220908154916105e783612aaf565b90558b86519460208601967f6e71edae12b1b97f4d1f60370fef10105fa2faae0126114a169c64845d6126c9885288870152166060850152608084015260a083015260c082015260c0815261063b81611fc9565b519020610646612762565b915190602082019261190160f01b8452602283015260428201526042815261066d81611fae565b519020612a2a565b919091612915565b160361068f575061036c939450612b15565b606490602087519162461bcd60e51b8352820152601e60248201527f45524332305065726d69743a20696e76616c6964207369676e617475726500006044820152fd5b895162461bcd60e51b8152602081870152601d60248201527f45524332305065726d69743a206578706972656420646561646c696e650000006044820152606490fd5b505034610319578160031936011261031957600d54905160089190911c6001600160a01b03168152602090f35b50503461031957816003193601126103195760225490516001600160a01b039091168152602090f35b505034610319578160031936011261031957602090601b549051908152f35b5050346103195781600319360112610319576060906020549080519160018060401b03808216845281831c16602084015260801c90820152f35b5050346103195781600319360112610319576020906017549051908152f35b505034610319578060031936011261031957602091610800611dda565b826024359283158015906108ac575b61083f575b50519182526001600160a01b0316903390600080516020614bcb833981519152908590a35160018152f35b33815260018652818120546108568582101561288b565b6001600160a01b038416908533839003610873575b505050610814565b610887916108828415156128d0565b612140565b33835260018852838320558152206108a083825461214d565b9055823880808561086b565b50336001600160a01b0384161461080f565b83915034610319576080366003190112610319576108da611dda565b6108e2611df5565b6108ea611ed2565b916064356001600160401b038111610bf1576109099036908601611ee8565b909160018060a01b0395869161092483600554163314612021565b61092c612445565b505061093b601054151561304c565b610943612f61565b8260085416968a51938491634656bfdf60e11b83521697888483015281602460209687935afa908115610be757908992918b91610ba6575b5061098590613096565b169687895260148352826109ad8b8b2054620186a06109a6601d54836120e9565b049061214d565b91600754169160646109d16109c8600a5493601054906120e9565b601e5490612120565b918d519485938492638eb22cdd60e01b84528884015260248301528d60448301525afa908115610b9c578991610b6b575b50878952601583528989205411610b2b5750908680986015610ad895948961036c9b528181528284205499610aaa610a3861229a565b82875260148452610aa5610a9a878920549289878a51610a5781611f4f565b82815201528681019360018060801b03928382818094868a8381511615600014610ade57505081610a8d915b168288511661312b565b168552168287511661312b565b168094525116612f3f565b612f1a565b808552601482528484812055828252610ac884862054601254612140565b60125584525281205536916130f4565b92613a55565b610a8d92610b17610b0d86610b04610afa8280985116866120e9565b8287511690612120565b945116846120e9565b848c511690612120565b1015610a8357610b2690612aaf565b610a83565b816064928a519262461bcd60e51b845283015260248201527f42696742616e673a2043616e6e6f7420666f726365206c6971756964617465646044820152fd5b90508281813d8311610b95575b610b828183611fe4565b81010312610b9157518a610a02565b8880fd5b503d610b78565b8a513d8b823e3d90fd5b80929350858092503d8311610be0575b610bc08183611fe4565b81010312610bdc5790610985610bd68a93612438565b9061097b565b8980fd5b503d610bb6565b8b513d8c823e3d90fd5b8580fd5b505034610319578060031936011261031957606090610c1e610c15611dda565b602435906122e6565b91929081519384526020840152820152f35b5050346103195781600319360112610319576020906029549051908152f35b505034610319578060031936011261031957602091610ca0906001600160a01b03610c78611dda565b168082526015855283610c90602435828520546125a0565b939092815260148752205461265c565b9051908152f35b90503461046e5761016036600319011261046e576001600160a01b039060243582811690819003611082576001600160401b039160443583811161107e57610cf29036908301611ee8565b916064359486861694858703610bdc57610d1188600554163314612021565b823580611047575b5080611009575b5083610ea4575b5050505080610e4e575b50505060843580610e36575b5060a43580610e1e575b5060c43580610e07575b5060e43580610de3575b506101043580610dbf575b50610124359081610d96575b50506101443580610d81575080f35b610d90620186a082111561206c565b601b5580f35b600080516020614b4b833981519152906013548151908152836020820152a16013553880610d72565b610dcd620186a0821061206c565b610dda601854821161206c565b60195538610d66565b610df1620186a0821061206c565b610dfe601954821061206c565b60185538610d5b565b610e15620186a0821061206c565b601a5538610d51565b610e2d620186a082111561206c565b60175538610d47565b610e45620186a082111561206c565b60165538610d3d565b600d54928360081c167f5a62d22209e370e38eea92cfddcd228e656e6ec139243392a760a7769f5877fd8680a3610100600160a81b031990911660089190911b610100600160a81b031617600d55388080610d31565b8311610ff657508190610eb8600f54611f15565b601f8111610f9a575b508790601f8311600114610f24578892610f19575b50508160011b916000199060031b1c191617600f555b7fa6f004921c944d4b8bf6e38462b00f36a58d62495d56b51f571ab78f732c98158580a138808080610d27565b013590503880610ed6565b600f8952600080516020614c0b833981519152925090601f1984168960205b828210610f82575050908460019594939210610f68575b505050811b01600f55610eec565b0135600019600384901b60f8161c19169055388080610f5a565b80600185978294968801358155019601930190610f43565b600f8952909150600080516020614c0b833981519152601f840160051c81019160208510610fec575b90601f859493920160051c01905b818110610fde5750610ec1565b898155849350600101610fd1565b9091508190610fc3565b634e487b7160e01b885260419052602487fd5b600e80546001600160a01b0319169190911790557f0b2d6eb667d0522c3eb86e4288afecae6c11591ffd1345d4d12407e0598bca9b8980a138610d20565b611056620186a082111561206c565b600080516020614b8b8339815191528a601c548151908152836020820152a1601c5538610d19565b8680fd5b8480fd5b90503461046e578260031936011261046e5791808061034f9460018060a01b036009541690855160208101916395d89b4160e01b835281526110c781611f4f565b51915afa6110d3614908565b91501561112f576110e390614979565b905b61111d60238251809462746d2d60e81b602083015261110d8151809260208686019101611e0b565b8101036003810185520183611fe4565b51918291602083526020830190611e2e565b50611138614938565b906110e5565b505034610319578160031936011261031957602090601c549051908152f35b50503461031957816003193601126103195760055490516001600160a01b039091168152602090f35b5050346103195781600319360112610319576020906018549051908152f35b505034610319578160031936011261031957601154905190819061034f90608081901c906001600160801b031683612007565b505034610319578160031936011261031957602090602b549051908152f35b505034610319578060031936011261031957602090611221611217611dda565b6024359033612abe565b5160018152f35b90503461046e57602036600319011261046e5760209282916001600160a01b03611250611dda565b168252845220549051908152f35b505034610319578160031936011261031957600e5490516001600160a01b039091168152602090f35b50503461031957816003193601126103195780519082600f546112a981611f15565b8085529060019081811690811561131c57506001146112d5575b50505061111d8261034f940383611fe4565b600f835260209550600080516020614c0b8339815191525b828410611309575050508261034f9461111d92820101946112c3565b80548685018801529286019281016112ed565b61034f975061111d9450602092508693915060ff191682840152151560051b820101946112c3565b90503461046e57602036600319011261046e57600080516020614b4b83398151915290359161137860ff600d5416156120ac565b61138d60018060a01b03600554163314612021565b6013548151908152836020820152a160135580f35b5050346103195760203660031901126103195760209181906001600160a01b036113ca611dda565b1681526001845220549051908152f35b50503461031957816003193601126103195760085490516001600160a01b039091168152602090f35b505034610319578160031936011261031957608090611420612b6c565b50611429612ba4565b509495935050505080519260018060401b03808251168552602082015116602085015281600180871b0391015116908301526060820152f35b50503461031957816003193601126103195760209060ff600d541690519015158152f35b5050346103195781600319360112610319576020906019549051908152f35b505034610319578160031936011261031957602a548151911c6001600160401b03168152602090f35b505034610319578160031936011261031957602a5490516001600160401b039091168152602090f35b505034610319578160031936011261031957602c5490516001600160401b039091168152602090f35b505034610319578160031936011261031957602090601d549051908152f35b90503461046e57602036600319011261046e57600080516020614b8b83398151915290359161157960018060a01b03600554163314612021565b611588620186a084111561206c565b601c548151908152836020820152a1601c5580f35b9190503461046e578260031936011261046e576006546001600160a01b039290918383169190338390036115fd57505080600554938416600080516020614bab8339815191528680a36001600160a01b0319928316176005551660065580f35b906020606492519162461bcd60e51b8352820152602060248201527f4f776e61626c653a2063616c6c657220213d2070656e64696e67206f776e65726044820152fd5b5050346103195781600319360112610319576020906026549051908152f35b5050346103195760203660031901126103195760209181906001600160a01b03611687611dda565b1681526014845220549051908152f35b5050346103195781600319360112610319576020906012549051908152f35b505034610319578160031936011261031957602090600c549051908152f35b5050346103195781600319360112610319576020906013549051908152f35b82843461036f57606036600319011261036f5750610ca06020926044359060243590356121ec565b8390346103195760a0366003190112610319576001600160401b03813581811161046a5761174d9036908401611ea2565b91602435818111610bf1576117659036908601611ea2565b611770929192611ed2565b90606435838111610b91576117889036908901611ee8565b949093608435908111610bdc5761036c986117a591369101611ee8565b9790966117b760ff600d5416156120ac565b61316a565b5050346103195781600319360112610319576020906010549051908152f35b505034610319578160031936011261031957600b5490516001600160a01b039091168152602090f35b505034610319578160031936011261031957602090610ca0612762565b5050346103195781600319360112610319576020906016549051908152f35b915034610319578160031936011261031957600b54835163313ce56760e01b6020820190815292815283926001600160a01b03909216919061188181611f4f565b51915afa61188d614908565b90806118d3575b156118c45760208180518101031261046e57602001519160ff8316830361036f575060ff602092915b5191168152f35b506020915060ff6012916118bd565b506020815114611894565b82843461036f57606036600319011261036f576118f9611dda565b90611902611df5565b604435918261193e575b508351918252602094506001600160a01b03908116921690600080516020614bcb833981519152908590a35160018152f35b6001600160a01b0384811680835260016020908152878420549198929091906119698783101561288b565b851692838a0361197d575b5050505061190c565b8985526002835288852033865283528885205490600182016119e7575b5050928260209960018a946119c68a8e99610882600080516020614bcb8339815191529c9a15156128d0565b92855252838320558152206119dc85825461214d565b905591878080611974565b878210611a3d57509260209960018a946119c68a8e9996611a1882600080516020614bcb8339815191529d9b612140565b86895260028552898920338a528552898920559699505050945050998194965061199a565b895162461bcd60e51b8152908101849052601860248201527745524332303a20616c6c6f77616e636520746f6f206c6f7760401b6044820152606490fd5b8391503461031957611a8c36611e53565b928097949796959692919242116106d25788938693611b23938c888b610675968e8460018060a01b03809c169c8d958682526020522090815491611acf83612aaf565b90558b86519460208601967fe9685ff6d48c617fe4f692c50e602cce27cbad0290beb93cfa77eac43968d58c885288870152166060850152608084015260a083015260c082015260c0815261063b81611fc9565b160361068f575061036c939450612abe565b5050346103195760203660031901126103195760209181906001600160a01b03611b5d611dda565b1681526015845220549051908152f35b50503461031957816003193601126103195760209060215460801c9051908152f35b505034610319578060031936011261031957602090611221611baf611dda565b6024359033612b15565b9190503461046e57606036600319011261046e57611bd5611dda565b9160243591821515830361108257604435928315158403610bf15760018060a01b03948591611c0983600554163314612021565b15611c9b571692831590811591611c93575b5015611c5857505080600554928316600080516020614bab8339815191528580a36001600160a01b03199182161760055560068054909116905580f35b906020606492519162461bcd60e51b835282015260156024820152744f776e61626c653a207a65726f206164647265737360581b6044820152fd5b905038611c1b565b93505050501660018060a01b0319600654161760065580f35b90503461046e578260031936011261046e5791808061034f9460018060a01b036009541690855160208101916306fdde0360e01b83528152611cf581611f4f565b51915afa611d01614908565b915015611d5c57611d1190614979565b905b61111d60348251809473546170696f63612053696e67756c61726974792d60601b6020830152611d4c8151809260208686019101611e0b565b8101036014810185520183611fe4565b50611d65614938565b90611d13565b82843461036f578060031936011261036f5750611d86612445565b825191151582526020820152f35b8490843461046e578060031936011261046e57602092611db2611dda565b611dba611df5565b6001600160a01b0391821683526003865283832091168252845220548152f35b600435906001600160a01b0382168203611df057565b600080fd5b602435906001600160a01b0382168203611df057565b60005b838110611e1e5750506000910152565b8181015183820152602001611e0e565b90602091611e4781518092818552858086019101611e0b565b601f01601f1916010190565b60e0906003190112611df0576001600160a01b03906004358281168103611df057916024359081168103611df05790604435906064359060843560ff81168103611df0579060a4359060c43590565b9181601f84011215611df0578235916001600160401b038311611df0576020808501948460051b010111611df057565b604435906001600160a01b0382168203611df057565b9181601f84011215611df0578235916001600160401b038311611df05760208381860195010111611df057565b90600182811c92168015611f45575b6020831014611f2f57565b634e487b7160e01b600052602260045260246000fd5b91607f1691611f24565b604081019081106001600160401b03821117611f6a57604052565b634e487b7160e01b600052604160045260246000fd5b606081019081106001600160401b03821117611f6a57604052565b6001600160401b038111611f6a57604052565b608081019081106001600160401b03821117611f6a57604052565b60e081019081106001600160401b03821117611f6a57604052565b601f909101601f19168101906001600160401b03821190821017611f6a57604052565b6001600160801b0391821681529116602082015260400190565b1561202857565b606460405162461bcd60e51b815260206004820152602060248201527f4f776e61626c653a2063616c6c6572206973206e6f7420746865206f776e65726044820152fd5b1561207357565b60405162461bcd60e51b815260206004820152601160248201527013585c9ad95d0e881b9bdd081d985b1a59607a1b6044820152606490fd5b156120b357565b60405162461bcd60e51b815260206004820152600e60248201526d13585c9ad95d0e881c185d5cd95960921b6044820152606490fd5b818102929181159184041417156120fc57565b634e487b7160e01b600052601160045260246000fd5b604d81116120fc57600a0a90565b811561212a570490565b634e487b7160e01b600052601260045260246000fd5b919082039182116120fc57565b919082018092116120fc57565b90601b54918291612170620186a09384926120e9565b048082106121e35761218191612140565b91601d548201908183116120fc57829161219a916120e9565b0490818103918183116120fc576509184e72a00080840293840414911417156120fc57670de0b6b3a7640000918281029281840414901517156120fc576121e091612120565b90565b50505050600090565b91909161220e6121ff601b5480956120e9565b61220884612112565b90612120565b908181106121e35761225e9161222391612140565b9261225861224f61223385612112565b9261224961224087612112565b601d549061214d565b906120e9565b61220885612112565b90612140565b9060120390601282116120fc5761224961227792612112565b670de0b6b3a7640000918281029281840414901517156120fc576121e091612120565b604051906122a782611f4f565b6011546001600160801b038116835260801c6020830152565b604051906122cd82611f4f565b6021546001600160801b038116835260801c6020830152565b6001600160a01b0390811660008181526014602090815260408220549295949391929091811561242b5761231861229a565b90612324861515612554565b6007541683600a5489875260158252606461235761234e60408a2054620186a0601e5404906120e9565b601b54906120e9565b91604051948593849263442c159960e01b8452600484015260248301528960448301525afa9081156124205785916123f1575b50928594926123c96015936123a46123e599604098612120565b815190936001600160801b039186916123bf918416906120e9565b9201511690612120565b908082106123e9576123da91612140565b9783525220546125a0565b9091565b5050826123da565b90508381813d8311612419575b6124088183611fe4565b8101031261108257516123e561238a565b503d6123fe565b6040513d87823e3d90fd5b5050509192505080918190565b51908115158203611df057565b60018060a01b03600e541690604090815163d6d7d52560e01b8152602060048201528281604481600080988160248401525af190811561254757848092612509575b505091836000146125015782156124c75760207f9f9192b5edb17356c524e08d9e025c8e2f6307e6ea52fb7968faa3081f51c3c8918460105551848152a1565b5162461bcd60e51b81526020600482015260146024820152734d61726b65743a20696e76616c6964207261746560601b6044820152606490fd5b506010549150565b915093508284813d8311612540575b6125228183611fe4565b8101031261036f5750602061253684612438565b9301513880612487565b503d612518565b50505051903d90823e3d90fd5b1561255b57565b60405162461bcd60e51b815260206004820152601e60248201527f4d61726b65743a2065786368616e676552617465206e6f742076616c696400006044820152606490fd5b6125ab821515612554565b602060018060a01b0360075416916064600a54604051948593849263442c159960e01b845260048401526024830152600060448301525afa9081156126505760009161261d575b509061260461260992601e54906120e9565b612120565b620186a0612619601b54836120e9565b0491565b906020823d8211612648575b8161263660209383611fe4565b8101031261036f5750516126046125f2565b3d9150612629565b6040513d6000823e3d90fd5b801561275a57811561275a5781811061275a5782811015612751578161268191612140565b620186a092838202918083048514901517156120fc576126a49261220891612140565b6018549160195492838103906000938486128284128116908385139015161761273d5782810292858112600160ff1b8314166127295783051490851417156127155705818382019384129112908015821691151617612701575090565b634e487b7160e01b81526011600452602490fd5b634e487b7160e01b83526011600452602483fd5b634e487b7160e01b86526011600452602486fd5b634e487b7160e01b85526011600452602485fd5b50505060185490565b505050600090565b307f00000000000000000000000000000000000000000000000000000000000000006001600160a01b03161480612862575b156127bd577f000000000000000000000000000000000000000000000000000000000000000090565b60405160208101907f000000000000000000000000000000000000000000000000000000000000000082527f000000000000000000000000000000000000000000000000000000000000000060408201527f000000000000000000000000000000000000000000000000000000000000000060608201524660808201523060a082015260a0815260c0810181811060018060401b03821117611f6a5760405251902090565b507f00000000000000000000000000000000000000000000000000000000000000004614612794565b1561289257565b60405162461bcd60e51b815260206004820152601660248201527545524332303a2062616c616e636520746f6f206c6f7760501b6044820152606490fd5b156128d757565b60405162461bcd60e51b815260206004820152601660248201527545524332303a206e6f207a65726f206164647265737360501b6044820152606490fd5b6005811015612a1457806129265750565b6001810361296e5760405162461bcd60e51b815260206004820152601860248201527745434453413a20696e76616c6964207369676e617475726560401b6044820152606490fd5b600281036129bb5760405162461bcd60e51b815260206004820152601f60248201527f45434453413a20696e76616c6964207369676e6174757265206c656e677468006044820152606490fd5b6003146129c457565b60405162461bcd60e51b815260206004820152602260248201527f45434453413a20696e76616c6964207369676e6174757265202773272076616c604482015261756560f01b6064820152608490fd5b634e487b7160e01b600052602160045260246000fd5b9291906fa2a8918ca85bafe22016d0b997e4df60600160ff1b038311612aa35791608094939160ff602094604051948552168484015260408301526060820152600093849182805260015afa15612a965781516001600160a01b03811615612a90579190565b50600190565b50604051903d90823e3d90fd5b50505050600090600390565b60001981146120fc5760010190565b909160207fe50de2333c10a9502fcb1d8ae13a51bbf423153dfc63c2b8997665b32154afc39160018060a01b03809416938460005260038352604060002095169485600052825280604060002055604051908152a3565b909160207f8c5be1e5ebec7d5bd14f71427d1e84f3dd0314c0f7b2291e5b200ac8c7c3b9259160018060a01b03809416938460005260028352604060002095169485600052825280604060002055604051908152a3565b60405190612b7982611f80565b60006040838281528260208201520152565b6001600160801b0391821690821601919082116120fc57565b612bac612b6c565b5060405190612bba82611f4f565b600090818352816020809401528183604051612bd581611f4f565b828152015260405191612be783611f80565b83549060018060401b0391828116855285850190838160401c16825260801c604086015284612c1461229a565b94612c1d6122c0565b600754600c54825160405163442c159960e01b815260048101929092526001600160801b039081166024830152604482018890529297929694918591908c90829060649082906001600160a01b03165afa8015612f0f578290612ee0575b612c8a9150888b51169061214d565b80612eb357815b612c9f858299511642612140565b938415612e8a5750508342168c8c0152878c8b01511615612e4e578a9b8491898c81819f819e9f828a915116670de0b6b3a76400009889935116612ce2916120e9565b90612cec916120e9565b049d8e1691511690612cfd91612b8b565b168d52601754612d0d908c6120e9565b620186a09004918c01918a835116612d24916120e9565b90612d2e91612120565b988d818b169060400182828183511690612d4791612b8b565b1690528183511690612d5891612b8b565b1690526027549182881015612dd557612d718884612140565b8281029281840414901517156127015750612604849384612db68f94612d9d612dbe97612db092612120565b93612dab602b5495806120e9565b6120e9565b8361214d565b9351166120e9565b1690818a52602a5416809110612dd15750565b8852565b909150602854808811612dea575b5050505050565b612df49088612140565b828102928184041490151715612701575090612604612e1f612db0612d9d612e289560295490612120565b848d51166120e9565b81602a5460401c16808211612e46575b501688523880808080612de3565b905038612e38565b509650509196829196985080939450511690602c5416809103612e7e575b509493612e776122c0565b9383929190565b81526001945038612e6c565b99509a505097505050965050505092612ea161229a565b92612eaa6122c0565b92809281929190565b878a5116670de0b6b3a7640000908181029181830414901517156127155781612edb91612120565b612c91565b508b81813d8311612f08575b612ef68183611fe4565b8101031261031957612c8a9051612c7b565b503d612eec565b6040513d84823e3d90fd5b601180546001600160801b031660809290921b6001600160801b031916919091179055565b601180546001600160801b0319166001600160801b0392909216919091179055565b6130076040602080612f71612ba4565b939995939092901561301757505050600080516020614beb8339815191526080600180891b03602c5416885190600082526000888301528982015260006060820152a15b600180871b03815116848201519160018060801b0319978891015160801b1691600160401b600160801b039060401b161717835560018060801b039281612fff8580945116612f3f565b015116612f1a565b83511692015160801b1617602155565b600080516020614beb833981519152926080926001808c1b03865116908b51938452898401528a8301526060820152a1612fb5565b1561305357565b60405162461bcd60e51b815260206004820152601b60248201527a14d1d30e88195e18da185b99d954985d19481b9bdd081d985b1a59602a1b6044820152606490fd5b1561309d57565b60405162461bcd60e51b815260206004820152601460248201527329a3a61d1024b73b30b634b21039bbb0b83832b960611b6044820152606490fd5b6001600160401b038111611f6a57601f01601f191660200190565b929192613100826130d9565b9161310e6040519384611fe4565b829481845281830111611df0578281602093846000960137010152565b6001600160801b0391821690821603919082116120fc57565b91908110156131545760051b0190565b634e487b7160e01b600052603260045260246000fd5b9692959493919560805261317c612445565b939050613187612f61565b602254600099906001600160a01b031680613252575b505050875b8181106131f3575050505050505050156131b857565b60405162461bcd60e51b815260206004820152601360248201527214d1d30e881b9bc81d5cd95c9cc8199bdd5b99606a1b6044820152606490fd5b61320661320182848b613144565b613e8a565b6132108582613ed9565b15613225575b5061322090612aaf565b6131a2565b9861322f90612aaf565b98868686868b8660805161324292613144565b3561324c956140f7565b38613216565b606060049160405192838092637c8be05b60e01b82525afa9081156139db578b908c92613994575b501561319d579894919a969390999592869b879c5b608051808f10156132c0576132ba918f6132ad906132b4938f613144565b359061214d565b9d612aaf565b9c61328f565b509194979b9295989c5092959910156132d9578061319d565b925092955093506132ec925036916130f4565b928490859386906132fb61229a565b90885b86811061377a57505090610aa561336a9261331a881515613e9e565b80516001600160801b0390613334908a831690831661312b565b16815260208101805190936001600160801b039161335691831690831661312b565b1692839052516001600160801b0316612f3f565b61337682601254612140565b601255600754600c54604051638eb22cdd60e01b81526004810191909152602481018690526001604482015295906001600160a01b0316602087606481845afa968715613737578897613742575b50602254600a54906001600160a01b0316823b15610bdc57613403928a9283889360405196879586948593630208d92960e11b855230600486016139e6565b03925af1801561373757613724575b5060018060a01b03602254169060018060a01b03600754166020600a5460646040518094819363442c159960e01b83526004830152896024830152600160448301525afa9081156136aa5789916136ee575b5090613495926040928a8451809681958294633965907b60e01b845260048401528760248401526044830190611e2e565b03925af180156136e3576136b5575b5060018060a01b036007541692600c5492604051627eeac760e11b8152602081806134d3883060048401613a10565b0381895afa9081156136aa578991613676575b50602154620186a09161351a916135119161350a916001600160801b031690612140565b998a612140565b601654906120e9565b04956135268789612140565b604051938060a0860160a087525260c0850195908b905b80821061364c5750505090839291886020600080516020614b0b8339815191529601526040840152606083015260808201528033930390a2813b1561108257826135a292869283604051809681958294630208d92960e11b84523330600486016139e6565b03925af180156136415790849161362d575b5061360b9190506001600160801b036135cd8285612140565b602154916001600160801b03916135e79116828416612b8b565b6001600160801b03199092169116176021556022546001600160a01b031692612140565b916040519283526020830152600080516020614aeb83398151915260403093a3565b61363690611f9b565b61046e5782386135b4565b6040513d86823e3d90fd5b90919687359060018060a01b038216809203611df05760208160019382935201980192019061353d565b90506020813d6020116136a2575b8161369160209383611fe4565b81010312611df0575161351a6134e6565b3d9150613684565b6040513d8b823e3d90fd5b6136d69060403d6040116136dc575b6136ce8183611fe4565b810190613a3f565b506134a4565b503d6136c4565b6040513d89823e3d90fd5b9190506020823d60201161371c575b8161370a60209383611fe4565b81010312611df0579051613495613464565b3d91506136fd565b61373090979197611f9b565b9538613412565b6040513d8a823e3d90fd5b9096506020813d602011613772575b8161375e60209383611fe4565b8101031261376e575195386133c4565b8780fd5b3d9150613751565b613788613201828988613144565b6137928382613ed9565b156137a7575b506137a290612aaf565b6132fe565b909397958a6137b68484613fd7565b918215613984576001600160a01b03841682526014602052604082205486519094906001600160801b0390811661395c57506137f3848096612140565b60018060a01b0382168452601460205260408420556020613824620186a061381d601d54886120e9565b048661214d565b606460018060a01b0360075416916138426109c88b600a54936120e9565b926040519788948593638eb22cdd60e01b85526004850152602484015260448301525afa92831561394f578e908194613911575b506137a295936139049361390a969360406139049460018060a01b03831681526015602052206138a7848254612140565b90556022546040518481526001600160a01b0391821691829190841690600080516020614b6b83398151915290602090a3600080516020614b2b83398151915260408051938885528a602086015260018060a01b031693a361214d565b9961214d565b9390613798565b91929350506020813d602011613947575b8161392f60209383611fe4565b81010312613943575191908d613904613876565b8d80fd5b3d9150613922565b8e604051903d90823e3d90fd5b61397d816139736137f39360208c015116886120e9565b908a511690612120565b8096612140565b9799959150506137a29150612aaf565b9150506060813d82116139d3575b816139af60609383611fe4565b810103126139cf5760406139c560208301612438565b910151903861327a565b8a80fd5b3d91506139a2565b6040513d8d823e3d90fd5b6001600160a01b039182168152911660208201526040810191909152606081019190915260800190565b6001600160a01b039091168152602081019190915260400190565b51906001600160a01b0382168203611df057565b9190826040910312611df0576020825192015190565b600754600a54600096959492919087906001600160a01b0383163b1561031957613a9a92849183604051809681958294630208d92960e11b84528b30600486016139e6565b03926001600160a01b03165af180156136e357613e75575b509085918294805180613e57575b5050600754600c54604051627eeac760e11b8152969093909160209088906001600160a01b03168180613af7898c60048401613a10565b03915afa968715612420578597613e20575b5060018060a01b031691600a549360405194633d9545e960e11b865260048601526024850152846044850152606484015260016084840152600160a4840152610140808460c481865afa938415612420578594613d0f575b50506040805163efa84c6d60e01b8152845180516001600160a01b03908116600484015260208281015160248501528285015182166044850152606092830151606485015280880151805160848601528082015160a48601528086015160c48601529092015160e48401529583015180511515610104840152015115156101248201526101448101929092529285166101648201526101a06101848201526101a481018490529283916101c49183915af180156124205791602091613c57959693613cf1575b50600754600c54604051627eeac760e11b81529687936001600160a01b0390931692849283929160048401613a10565b03915afa908115613ce55790613cb1575b613c729250612140565b15613c7957565b60405162461bcd60e51b815260206004820152601060248201526f14d1d30e8814ddd85c0819985a5b195960821b6044820152606490fd5b506020823d602011613cdd575b81613ccb60209383611fe4565b81010312611df057613c729151613c68565b3d9150613cbe565b604051903d90823e3d90fd5b613d099060403d6040116136dc576136ce8183611fe4565b50613c27565b818193929495503d8511613e19575b613d288183611fe4565b8101039283126110825760405192613d3f84611f80565b60808112610bf157604051613d5381611fae565b613d5c84613a2b565b815260208401516020820152613d7460408501613a2b565b60408201526060840151606082015284526080607f19820112610bf1576040908151613d9f81611fae565b6080850151815260a0850151602082015260c08501518382015260e08501516060820152602086015260ff1901126110825760209460409485946101c494613e04610120885192613def84611f4f565b613dfc6101008201612438565b845201612438565b89820152868201529550935094819250613b61565b503d613d1e565b945095506020843d602011613e4f575b81613e3d60209383611fe4565b81010312611df0578793519538613b09565b3d9150613e30565b602092965081809550010312611df057602086920151933880613ac0565b613e829096919296611f9b565b949038613ab2565b356001600160a01b0381168103611df05790565b15613ea557565b60405162461bcd60e51b815260206004820152600c60248201526b14d1d30e881cdbdb1d995b9d60a21b6044820152606490fd5b91909160018060a01b03806000921682526020601481526040832054908115613fcd576015815260408420548015613fc45781613f1461229a565b9460075416916064613f3461234e600a5493620186a0601e5404906120e9565b91604051948593849263442c159960e01b8452600484015260248301528960448301525afa948515613ce5578095613f8c575b50506123bf613f87949596612dab60018060801b039485875116906120e9565b111590565b909694508187813d8311613fbd575b613fa58183611fe4565b8101031261036f5750945192946123bf613f87613f67565b503d613f9b565b50929450505050565b5060019450505050565b6001600160a01b039081166000818152601460209081526040822054919490939282156140ef5761400982151561304c565b85526015845260408520548461401d61229a565b946007541691606461404661403d600a5493620186a0601e5404906120e9565b602654906120e9565b91604051948593849263442c159960e01b8452600484015260248301528a60448301525afa9081156140e45786916140b5575b5061409f93929161408991612120565b936123bf60018060801b039283855116906120e9565b8181106140b0576121e09250612140565b505090565b90508481813d83116140dd575b6140cc8183611fe4565b81010312610bf1575161409f614079565b503d6140c2565b6040513d88823e3d90fd5b505050505090565b9392909195946141078286613ed9565b6148ff5760009660018060a01b0386168852601560205261414d61412f8460408b20546125a0565b6001600160a01b0389168b52601460205260408b205490919061265c565b9161415984151561304c565b600754600a546001600160a01b038981168c52601560209081526040808e2054905163442c159960e01b815260048101949094526024840152604483018d9052919283916064918391165afa9081156147f45785908b926148c9575b506126046141c692601e54906120e9565b6001600160a01b0388168a52601460205260408a20546141e790829061215a565b601a54806148b1575b508091111561487c5789958181111561487557505b6001600160a01b03881686526014602052604086205480821161486d575b8161422d91612140565b6001600160a01b03891687526014602052604087205561424b61229a565b6020810180519091906001600160801b031661483b575050602081955b6064614284620186a061427d601d548b6120e9565b048961214d565b61429f6109c860018060a01b036007541694600a54936120e9565b926040519a8b948593638eb22cdd60e01b85526004850152602484015260448301525afa9586156147f4578a96614807575b506001600160a01b0388168a52601560205260408a2080548088116147ff575b876142fb91612140565b9055614308851515613e9e565b6011546001600160801b0361432187821682841661312b565b16906001600160801b031990614348906001600160801b038516908316841760801c61312b565b60801b16176011556040518681526001600160a01b0384811691908a1690600080516020614b6b83398151915290602090a36040805186815260208101929092526001600160a01b038981169290851691600080516020614b2b83398151915291a360018060a01b0360075416956020600c546064604051809a8193638eb22cdd60e01b83526004830152896024830152600160448301525afa9687156147f4578a976147c0575b50600854604051634656bfdf60e11b81526001600160a01b038581166004830152909160209183916024918391165afa9081156139db578b91614777575b50906144589261444061444793613096565b36916130f4565b6001600160a01b0383163087613a55565b600754600c54604051627eeac760e11b81526001600160a01b039092169690916020818061448a863060048401613a10565b03818b5afa9081156139db578b91614743575b506021546144bf916144b8916001600160801b031690612140565b9182612140565b918a6004620186a06144df816144d7601754896120e9565b0498876120e9565b0499602060018060a01b036008541660405193848092622fcfcb60e31b82525afa9182156147385783926146fc575b50803b1561046e5761453b9383899360405196879586948593630208d92960e11b855230600486016139e6565b03925af180156139db576146e9575b5060018060a01b0360075416908a600c54833b1561031957614587938a9183604051809781958294630208d92960e11b84523330600486016139e6565b03925af1908b8215613ce557899387936146cd575b5050906145ed93610882926145bc856108828560018060801b0394612140565b602154916001600160801b03916145d69116828416612b8b565b6001600160801b0319909216911617602155612140565b60408051918252602082018a905230926001600160a01b031691600080516020614aeb8339815191529190a36040519361462685611f4f565b60018552602085019560203688378551156146b9576001600160a01b0316865260405160a0808252955195810186905260c081019690955b808a10614696575050600080516020614b0b8339815191529596975060208501526040840152606083015260808201528033930390a2565b81516001600160a01b03168852600199909901986020978801979091019061465e565b634e487b7160e01b89526032600452602489fd5b9092506146db919350611f9b565b610bdc578387918b3861459c565b6146f5909a919a611f9b565b983861454a565b9091506020813d602011614730575b8161471860209383611fe4565b8101031261046e5761472990613a2b565b903861450e565b3d915061470b565b6040513d85823e3d90fd5b90506020813d60201161476f575b8161475e60209383611fe4565b810103126139cf57516144b861449d565b3d9150614751565b9190506020823d6020116147b8575b8161479360209383611fe4565b810103126139cf57614458926144406147ae61444794612438565b929350509261442e565b3d9150614786565b9096506020813d6020116147ec575b816147dc60209383611fe4565b81010312610bdc575195386143f0565b3d91506147cf565b6040513d8c823e3d90fd5b9650866142f1565b9095506020813d602011614833575b8161482360209383611fe4565b81010312610bdc575194386142d1565b3d9150614816565b5160209161486791614856906001600160801b0316856120e9565b90516001600160801b031690612120565b95614268565b905080614223565b9050614205565b60405162461bcd60e51b815260206004820152600d60248201526c14d1d30e88189859081919589d609a1b6044820152606490fd5b90620186a06109a66148c393836120e9565b386141f0565b9150506020813d6020116148f7575b816148e560209383611fe4565b81010312610bdc5751846126046141b5565b3d91506148d8565b50505050509050565b3d15614933573d90614919826130d9565b916149276040519384611fe4565b82523d6000602084013e565b606090565b6040519061494582611f4f565b60038252623f3f3f60e81b6020830152565b908151811015613154570160200190565b60ff1660ff81146120fc5760010190565b8051604081106149f157508051810190602081818401930312611df0576020810151906001600160401b038211611df0570181603f82011215611df05760208101516149c4816130d9565b926149d26040519485611fe4565b81845260408284010111611df0576121e0916040602085019101611e0b565b602092908303614adf576000805b60ff81168581109081614ac0575b5015614a2157614a1c90614968565b6149ff565b9260ff80941692614a31846130d9565b93614a3f6040519586611fe4565b808552614a4e601f19916130d9565b013687860137825b85811687811080614aa3575b15614a9857614a939190614a8d6001600160f81b0319614a828388614957565b5116871a9188614957565b53614968565b614a56565b505094505050905090565b506001600160f81b0319614ab78286614957565b51161515614a62565b6001600160f81b03199150614ad59086614957565b5116151538614a0d565b9150506121e061493856fe30a8c4f9ab5af7e1309ca87c32377d1a83366c5990472dbf9d262450eae14e3885b91d472e69b2cfe848ed50eb5d8582ae96c22057b6e46250255dd6f6c35192c8e512d8f188ca059984b5853d2bf653da902696b8512785b182b2c813789a6eae6e0ab3b95f0a53ff9660a390ccedcbbf1f2355dce974a9841af106fddcfaba8ad4d3ff00da092c7ad9a573ea4f5f6a3dffc6712dc06d3f78f49b862297c402c353b09af857951dccce61b43a5854fc45beceed36c50e5d4cc2e71858a8e0df8be0079c531659141344cd1fd0a4f28419497f9722a3daafe3b4186f6b6457e0ddf252ad1be2c89b69c2b068fc378daa952ba7f163c4a11628f55a4df523b3ef33af5ce86e8438eff54589f85332916444457dfa8685493fbd579b809097026b8d1108e10bcb7c27dddfc02ed9d693a074039d026cf4ea4240b40f7d581ac802a2646970667358221220e169fa46c73241962f8066edecdb4ad22d90ccf661b0664144ee986cf55ba46964736f6c63430008120033",
  "linkReferences": {},
  "deployedLinkReferences": {}
}