{
  "_format": "hh-sol-artifact-1",
  "contractName": "SGLLiquidation",
  "sourceName": "contracts/markets/singularity/SGLLiquidation.sol",
  "abi": [
    {
      "anonymous": false,
      "inputs": [
        {
          "indexed": true,
          "internalType": "address",
          "name": "owner",
          "type": "address"
        },
        {
          "indexed": true,
          "internalType": "address",
          "name": "spender",
          "type": "address"
        },
        {
          "indexed": false,
          "internalType": "uint256",
          "name": "value",
          "type": "uint256"
        }
      ],
      "name": "Approval",
      "type": "event"
    },
    {
      "anonymous": false,
      "inputs": [
        {
          "indexed": true,
          "internalType": "address",
          "name": "owner",
          "type": "address"
        },
        {
          "indexed": true,
          "internalType": "address",
          "name": "spender",
          "type": "address"
        },
        {
          "indexed": false,
          "internalType": "uint256",
          "name": "value",
          "type": "uint256"
        }
      ],
      "name": "ApprovalBorrow",
      "type": "event"
    },
    {
      "anonymous": false,
      "inputs": [
        {
          "indexed": true,
          "internalType": "address",
          "name": "newAddress",
          "type": "address"
        }
      ],
      "name": "BidExecutionSwapperUpdated",
      "type": "event"
    },
    {
      "anonymous": false,
      "inputs": [
        {
          "indexed": true,
          "internalType": "address",
          "name": "old",
          "type": "address"
        },
        {
          "indexed": true,
          "internalType": "address",
          "name": "_new",
          "type": "address"
        }
      ],
      "name": "ConservatorUpdated",
      "type": "event"
    },
    {
      "anonymous": false,
      "inputs": [
        {
          "indexed": false,
          "internalType": "uint256",
          "name": "oldVal",
          "type": "uint256"
        },
        {
          "indexed": false,
          "internalType": "uint256",
          "name": "newVal",
          "type": "uint256"
        }
      ],
      "name": "InterestElasticityUpdated",
      "type": "event"
    },
    {
      "anonymous": false,
      "inputs": [
        {
          "indexed": true,
          "internalType": "address",
          "name": "liquidator",
          "type": "address"
        },
        {
          "indexed": false,
          "internalType": "address[]",
          "name": "users",
          "type": "address[]"
        },
        {
          "indexed": false,
          "internalType": "uint256",
          "name": "liquidatorReward",
          "type": "uint256"
        },
        {
          "indexed": false,
          "internalType": "uint256",
          "name": "protocolReward",
          "type": "uint256"
        },
        {
          "indexed": false,
          "internalType": "uint256",
          "name": "repayedAmount",
          "type": "uint256"
        },
        {
          "indexed": false,
          "internalType": "uint256",
          "name": "collateralShareRemoved",
          "type": "uint256"
        }
      ],
      "name": "Liquidated",
      "type": "event"
    },
    {
      "anonymous": false,
      "inputs": [
        {
          "indexed": false,
          "internalType": "uint256",
          "name": "oldVal",
          "type": "uint256"
        },
        {
          "indexed": false,
          "internalType": "uint256",
          "name": "newVal",
          "type": "uint256"
        }
      ],
      "name": "LiquidationMultiplierUpdated",
      "type": "event"
    },
    {
      "anonymous": false,
      "inputs": [
        {
          "indexed": false,
          "internalType": "uint256",
          "name": "accruedAmount",
          "type": "uint256"
        },
        {
          "indexed": false,
          "internalType": "uint256",
          "name": "feeFraction",
          "type": "uint256"
        },
        {
          "indexed": false,
          "internalType": "uint64",
          "name": "rate",
          "type": "uint64"
        },
        {
          "indexed": false,
          "internalType": "uint256",
          "name": "utilization",
          "type": "uint256"
        }
      ],
      "name": "LogAccrue",
      "type": "event"
    },
    {
      "anonymous": false,
      "inputs": [
        {
          "indexed": true,
          "internalType": "address",
          "name": "from",
          "type": "address"
        },
        {
          "indexed": true,
          "internalType": "address",
          "name": "to",
          "type": "address"
        },
        {
          "indexed": false,
          "internalType": "uint256",
          "name": "share",
          "type": "uint256"
        },
        {
          "indexed": false,
          "internalType": "uint256",
          "name": "fraction",
          "type": "uint256"
        }
      ],
      "name": "LogAddAsset",
      "type": "event"
    },
    {
      "anonymous": false,
      "inputs": [
        {
          "indexed": true,
          "internalType": "address",
          "name": "from",
          "type": "address"
        },
        {
          "indexed": true,
          "internalType": "address",
          "name": "to",
          "type": "address"
        },
        {
          "indexed": false,
          "internalType": "uint256",
          "name": "share",
          "type": "uint256"
        }
      ],
      "name": "LogAddCollateral",
      "type": "event"
    },
    {
      "anonymous": false,
      "inputs": [
        {
          "indexed": true,
          "internalType": "address",
          "name": "from",
          "type": "address"
        },
        {
          "indexed": true,
          "internalType": "address",
          "name": "to",
          "type": "address"
        },
        {
          "indexed": false,
          "internalType": "uint256",
          "name": "amount",
          "type": "uint256"
        },
        {
          "indexed": false,
          "internalType": "uint256",
          "name": "feeAmount",
          "type": "uint256"
        },
        {
          "indexed": false,
          "internalType": "uint256",
          "name": "part",
          "type": "uint256"
        }
      ],
      "name": "LogBorrow",
      "type": "event"
    },
    {
      "anonymous": false,
      "inputs": [
        {
          "indexed": false,
          "internalType": "uint256",
          "name": "_oldVal",
          "type": "uint256"
        },
        {
          "indexed": false,
          "internalType": "uint256",
          "name": "_newVal",
          "type": "uint256"
        }
      ],
      "name": "LogBorrowCapUpdated",
      "type": "event"
    },
    {
      "anonymous": false,
      "inputs": [
        {
          "indexed": false,
          "internalType": "uint256",
          "name": "_oldVal",
          "type": "uint256"
        },
        {
          "indexed": false,
          "internalType": "uint256",
          "name": "_newVal",
          "type": "uint256"
        }
      ],
      "name": "LogBorrowingFee",
      "type": "event"
    },
    {
      "anonymous": false,
      "inputs": [
        {
          "indexed": false,
          "internalType": "uint256",
          "name": "rate",
          "type": "uint256"
        }
      ],
      "name": "LogExchangeRate",
      "type": "event"
    },
    {
      "anonymous": false,
      "inputs": [
        {
          "indexed": true,
          "internalType": "address",
          "name": "from",
          "type": "address"
        },
        {
          "indexed": true,
          "internalType": "address",
          "name": "to",
          "type": "address"
        },
        {
          "indexed": false,
          "internalType": "uint256",
          "name": "share",
          "type": "uint256"
        },
        {
          "indexed": false,
          "internalType": "uint256",
          "name": "fraction",
          "type": "uint256"
        }
      ],
      "name": "LogRemoveAsset",
      "type": "event"
    },
    {
      "anonymous": false,
      "inputs": [
        {
          "indexed": true,
          "internalType": "address",
          "name": "from",
          "type": "address"
        },
        {
          "indexed": true,
          "internalType": "address",
          "name": "to",
          "type": "address"
        },
        {
          "indexed": false,
          "internalType": "uint256",
          "name": "share",
          "type": "uint256"
        }
      ],
      "name": "LogRemoveCollateral",
      "type": "event"
    },
    {
      "anonymous": false,
      "inputs": [
        {
          "indexed": true,
          "internalType": "address",
          "name": "from",
          "type": "address"
        },
        {
          "indexed": true,
          "internalType": "address",
          "name": "to",
          "type": "address"
        },
        {
          "indexed": false,
          "internalType": "uint256",
          "name": "amount",
          "type": "uint256"
        },
        {
          "indexed": false,
          "internalType": "uint256",
          "name": "part",
          "type": "uint256"
        }
      ],
      "name": "LogRepay",
      "type": "event"
    },
    {
      "anonymous": false,
      "inputs": [
        {
          "indexed": true,
          "internalType": "address",
          "name": "feeTo",
          "type": "address"
        },
        {
          "indexed": false,
          "internalType": "uint256",
          "name": "feesEarnedFraction",
          "type": "uint256"
        }
      ],
      "name": "LogWithdrawFees",
      "type": "event"
    },
    {
      "anonymous": false,
      "inputs": [
        {
          "indexed": false,
          "internalType": "uint256",
          "name": "feeShares",
          "type": "uint256"
        },
        {
          "indexed": false,
          "internalType": "uint256",
          "name": "ethAmount",
          "type": "uint256"
        }
      ],
      "name": "LogYieldBoxFeesDeposit",
      "type": "event"
    },
    {
      "anonymous": false,
      "inputs": [
        {
          "indexed": false,
          "internalType": "uint256",
          "name": "oldVal",
          "type": "uint256"
        },
        {
          "indexed": false,
          "internalType": "uint256",
          "name": "newVal",
          "type": "uint256"
        }
      ],
      "name": "LqCollateralizationRateUpdated",
      "type": "event"
    },
    {
      "anonymous": false,
      "inputs": [
        {
          "indexed": false,
          "internalType": "uint256",
          "name": "oldVal",
          "type": "uint256"
        },
        {
          "indexed": false,
          "internalType": "uint256",
          "name": "newVal",
          "type": "uint256"
        }
      ],
      "name": "MaximumInterestPerSecondUpdated",
      "type": "event"
    },
    {
      "anonymous": false,
      "inputs": [
        {
          "indexed": false,
          "internalType": "uint256",
          "name": "oldVal",
          "type": "uint256"
        },
        {
          "indexed": false,
          "internalType": "uint256",
          "name": "newVal",
          "type": "uint256"
        }
      ],
      "name": "MaximumTargetUtilizationUpdated",
      "type": "event"
    },
    {
      "anonymous": false,
      "inputs": [
        {
          "indexed": false,
          "internalType": "uint256",
          "name": "oldVal",
          "type": "uint256"
        },
        {
          "indexed": false,
          "internalType": "uint256",
          "name": "newVal",
          "type": "uint256"
        }
      ],
      "name": "MinimumInterestPerSecondUpdated",
      "type": "event"
    },
    {
      "anonymous": false,
      "inputs": [
        {
          "indexed": false,
          "internalType": "uint256",
          "name": "oldVal",
          "type": "uint256"
        },
        {
          "indexed": false,
          "internalType": "uint256",
          "name": "newVal",
          "type": "uint256"
        }
      ],
      "name": "MinimumTargetUtilizationUpdated",
      "type": "event"
    },
    {
      "anonymous": false,
      "inputs": [],
      "name": "OracleDataUpdated",
      "type": "event"
    },
    {
      "anonymous": false,
      "inputs": [],
      "name": "OracleUpdated",
      "type": "event"
    },
    {
      "anonymous": false,
      "inputs": [
        {
          "indexed": false,
          "internalType": "uint256",
          "name": "oldVal",
          "type": "uint256"
        },
        {
          "indexed": false,
          "internalType": "uint256",
          "name": "newVal",
          "type": "uint256"
        }
      ],
      "name": "OrderBookLiquidationMultiplierUpdated",
      "type": "event"
    },
    {
      "anonymous": false,
      "inputs": [
        {
          "indexed": true,
          "internalType": "address",
          "name": "previousOwner",
          "type": "address"
        },
        {
          "indexed": true,
          "internalType": "address",
          "name": "newOwner",
          "type": "address"
        }
      ],
      "name": "OwnershipTransferred",
      "type": "event"
    },
    {
      "anonymous": false,
      "inputs": [
        {
          "indexed": false,
          "internalType": "bool",
          "name": "oldState",
          "type": "bool"
        },
        {
          "indexed": false,
          "internalType": "bool",
          "name": "newState",
          "type": "bool"
        }
      ],
      "name": "PausedUpdated",
      "type": "event"
    },
    {
      "anonymous": false,
      "inputs": [
        {
          "indexed": true,
          "internalType": "address",
          "name": "from",
          "type": "address"
        },
        {
          "indexed": true,
          "internalType": "address",
          "name": "to",
          "type": "address"
        },
        {
          "indexed": false,
          "internalType": "uint256",
          "name": "value",
          "type": "uint256"
        }
      ],
      "name": "Transfer",
      "type": "event"
    },
    {
      "anonymous": false,
      "inputs": [
        {
          "indexed": true,
          "internalType": "address",
          "name": "newAddress",
          "type": "address"
        }
      ],
      "name": "UsdoSwapperUpdated",
      "type": "event"
    },
    {
      "inputs": [],
      "name": "DOMAIN_SEPARATOR",
      "outputs": [
        {
          "internalType": "bytes32",
          "name": "",
          "type": "bytes32"
        }
      ],
      "stateMutability": "view",
      "type": "function"
    },
    {
      "inputs": [],
      "name": "accrue",
      "outputs": [],
      "stateMutability": "nonpayable",
      "type": "function"
    },
    {
      "inputs": [],
      "name": "accrueInfo",
      "outputs": [
        {
          "internalType": "uint64",
          "name": "interestPerSecond",
          "type": "uint64"
        },
        {
          "internalType": "uint64",
          "name": "lastAccrued",
          "type": "uint64"
        },
        {
          "internalType": "uint128",
          "name": "feesEarnedFraction",
          "type": "uint128"
        }
      ],
      "stateMutability": "view",
      "type": "function"
    },
    {
      "inputs": [
        {
          "internalType": "address",
          "name": "",
          "type": "address"
        },
        {
          "internalType": "address",
          "name": "",
          "type": "address"
        }
      ],
      "name": "allowance",
      "outputs": [
        {
          "internalType": "uint256",
          "name": "",
          "type": "uint256"
        }
      ],
      "stateMutability": "view",
      "type": "function"
    },
    {
      "inputs": [
        {
          "internalType": "address",
          "name": "",
          "type": "address"
        },
        {
          "internalType": "address",
          "name": "",
          "type": "address"
        }
      ],
      "name": "allowanceBorrow",
      "outputs": [
        {
          "internalType": "uint256",
          "name": "",
          "type": "uint256"
        }
      ],
      "stateMutability": "view",
      "type": "function"
    },
    {
      "inputs": [
        {
          "internalType": "address",
          "name": "spender",
          "type": "address"
        },
        {
          "internalType": "uint256",
          "name": "amount",
          "type": "uint256"
        }
      ],
      "name": "approve",
      "outputs": [
        {
          "internalType": "bool",
          "name": "",
          "type": "bool"
        }
      ],
      "stateMutability": "nonpayable",
      "type": "function"
    },
    {
      "inputs": [
        {
          "internalType": "address",
          "name": "spender",
          "type": "address"
        },
        {
          "internalType": "uint256",
          "name": "amount",
          "type": "uint256"
        }
      ],
      "name": "approveBorrow",
      "outputs": [
        {
          "internalType": "bool",
          "name": "",
          "type": "bool"
        }
      ],
      "stateMutability": "nonpayable",
      "type": "function"
    },
    {
      "inputs": [],
      "name": "asset",
      "outputs": [
        {
          "internalType": "contract IERC20",
          "name": "",
          "type": "address"
        }
      ],
      "stateMutability": "view",
      "type": "function"
    },
    {
      "inputs": [],
      "name": "assetId",
      "outputs": [
        {
          "internalType": "uint256",
          "name": "",
          "type": "uint256"
        }
      ],
      "stateMutability": "view",
      "type": "function"
    },
    {
      "inputs": [
        {
          "internalType": "address",
          "name": "",
          "type": "address"
        }
      ],
      "name": "balanceOf",
      "outputs": [
        {
          "internalType": "uint256",
          "name": "",
          "type": "uint256"
        }
      ],
      "stateMutability": "view",
      "type": "function"
    },
    {
      "inputs": [],
      "name": "borrowOpeningFee",
      "outputs": [
        {
          "internalType": "uint256",
          "name": "",
          "type": "uint256"
        }
      ],
      "stateMutability": "view",
      "type": "function"
    },
    {
      "inputs": [],
      "name": "callerFee",
      "outputs": [
        {
          "internalType": "uint256",
          "name": "",
          "type": "uint256"
        }
      ],
      "stateMutability": "view",
      "type": "function"
    },
    {
      "inputs": [],
      "name": "claimOwnership",
      "outputs": [],
      "stateMutability": "nonpayable",
      "type": "function"
    },
    {
      "inputs": [],
      "name": "collateral",
      "outputs": [
        {
          "internalType": "contract IERC20",
          "name": "",
          "type": "address"
        }
      ],
      "stateMutability": "view",
      "type": "function"
    },
    {
      "inputs": [],
      "name": "collateralId",
      "outputs": [
        {
          "internalType": "uint256",
          "name": "",
          "type": "uint256"
        }
      ],
      "stateMutability": "view",
      "type": "function"
    },
    {
      "inputs": [],
      "name": "collateralizationRate",
      "outputs": [
        {
          "internalType": "uint256",
          "name": "",
          "type": "uint256"
        }
      ],
      "stateMutability": "view",
      "type": "function"
    },
    {
      "inputs": [
        {
          "internalType": "uint256",
          "name": "borrowPart",
          "type": "uint256"
        },
        {
          "internalType": "uint256",
          "name": "collateralPartInAsset",
          "type": "uint256"
        },
        {
          "internalType": "uint256",
          "name": "ratesPrecision",
          "type": "uint256"
        }
      ],
      "name": "computeClosingFactor",
      "outputs": [
        {
          "internalType": "uint256",
          "name": "",
          "type": "uint256"
        }
      ],
      "stateMutability": "view",
      "type": "function"
    },
    {
      "inputs": [
        {
          "internalType": "address",
          "name": "user",
          "type": "address"
        },
        {
          "internalType": "uint256",
          "name": "_exchangeRate",
          "type": "uint256"
        }
      ],
      "name": "computeLiquidatorReward",
      "outputs": [
        {
          "internalType": "uint256",
          "name": "",
          "type": "uint256"
        }
      ],
      "stateMutability": "view",
      "type": "function"
    },
    {
      "inputs": [
        {
          "internalType": "address",
          "name": "user",
          "type": "address"
        },
        {
          "internalType": "uint256",
          "name": "_exchangeRate",
          "type": "uint256"
        }
      ],
      "name": "computeTVLInfo",
      "outputs": [
        {
          "internalType": "uint256",
          "name": "amountToSolvency",
          "type": "uint256"
        },
        {
          "internalType": "uint256",
          "name": "minTVL",
          "type": "uint256"
        },
        {
          "internalType": "uint256",
          "name": "maxTVL",
          "type": "uint256"
        }
      ],
      "stateMutability": "view",
      "type": "function"
    },
    {
      "inputs": [],
      "name": "conservator",
      "outputs": [
        {
          "internalType": "address",
          "name": "",
          "type": "address"
        }
      ],
      "stateMutability": "view",
      "type": "function"
    },
    {
      "inputs": [],
      "name": "decimals",
      "outputs": [
        {
          "internalType": "uint8",
          "name": "",
          "type": "uint8"
        }
      ],
      "stateMutability": "view",
      "type": "function"
    },
    {
      "inputs": [],
      "name": "exchangeRate",
      "outputs": [
        {
          "internalType": "uint256",
          "name": "",
          "type": "uint256"
        }
      ],
      "stateMutability": "view",
      "type": "function"
    },
    {
      "inputs": [],
      "name": "fullUtilizationMinusMax",
      "outputs": [
        {
          "internalType": "uint256",
          "name": "",
          "type": "uint256"
        }
      ],
      "stateMutability": "view",
      "type": "function"
    },
    {
      "inputs": [],
      "name": "getInterestDetails",
      "outputs": [
        {
          "components": [
            {
              "internalType": "uint64",
              "name": "interestPerSecond",
              "type": "uint64"
            },
            {
              "internalType": "uint64",
              "name": "lastAccrued",
              "type": "uint64"
            },
            {
              "internalType": "uint128",
              "name": "feesEarnedFraction",
              "type": "uint128"
            }
          ],
          "internalType": "struct ISingularity.AccrueInfo",
          "name": "_accrueInfo",
          "type": "tuple"
        },
        {
          "internalType": "uint256",
          "name": "utilization",
          "type": "uint256"
        }
      ],
      "stateMutability": "view",
      "type": "function"
    },
    {
      "inputs": [],
      "name": "interestElasticity",
      "outputs": [
        {
          "internalType": "uint256",
          "name": "",
          "type": "uint256"
        }
      ],
      "stateMutability": "view",
      "type": "function"
    },
    {
      "inputs": [
        {
          "internalType": "address[]",
          "name": "users",
          "type": "address[]"
        },
        {
          "internalType": "uint256[]",
          "name": "maxBorrowParts",
          "type": "uint256[]"
        },
        {
          "internalType": "contract ISwapper",
          "name": "swapper",
          "type": "address"
        },
        {
          "internalType": "bytes",
          "name": "collateralToAssetSwapData",
          "type": "bytes"
        },
        {
          "internalType": "bytes",
          "name": "usdoToBorrowedSwapData",
          "type": "bytes"
        }
      ],
      "name": "liquidate",
      "outputs": [],
      "stateMutability": "nonpayable",
      "type": "function"
    },
    {
      "inputs": [
        {
          "internalType": "address",
          "name": "user",
          "type": "address"
        },
        {
          "internalType": "address",
          "name": "receiver",
          "type": "address"
        },
        {
          "internalType": "contract ISwapper",
          "name": "swapper",
          "type": "address"
        },
        {
          "internalType": "bytes",
          "name": "collateralToAssetSwapData",
          "type": "bytes"
        }
      ],
      "name": "liquidateBadDebt",
      "outputs": [],
      "stateMutability": "nonpayable",
      "type": "function"
    },
    {
      "inputs": [],
      "name": "liquidationBonusAmount",
      "outputs": [
        {
          "internalType": "uint256",
          "name": "",
          "type": "uint256"
        }
      ],
      "stateMutability": "view",
      "type": "function"
    },
    {
      "inputs": [],
      "name": "liquidationMultiplier",
      "outputs": [
        {
          "internalType": "uint256",
          "name": "",
          "type": "uint256"
        }
      ],
      "stateMutability": "view",
      "type": "function"
    },
    {
      "inputs": [],
      "name": "liquidationQueue",
      "outputs": [
        {
          "internalType": "contract ILiquidationQueue",
          "name": "",
          "type": "address"
        }
      ],
      "stateMutability": "view",
      "type": "function"
    },
    {
      "inputs": [],
      "name": "lqCollateralizationRate",
      "outputs": [
        {
          "internalType": "uint256",
          "name": "",
          "type": "uint256"
        }
      ],
      "stateMutability": "view",
      "type": "function"
    },
    {
      "inputs": [],
      "name": "maxLiquidatorReward",
      "outputs": [
        {
          "internalType": "uint256",
          "name": "",
          "type": "uint256"
        }
      ],
      "stateMutability": "view",
      "type": "function"
    },
    {
      "inputs": [],
      "name": "maximumInterestPerSecond",
      "outputs": [
        {
          "internalType": "uint64",
          "name": "",
          "type": "uint64"
        }
      ],
      "stateMutability": "view",
      "type": "function"
    },
    {
      "inputs": [],
      "name": "maximumTargetUtilization",
      "outputs": [
        {
          "internalType": "uint256",
          "name": "",
          "type": "uint256"
        }
      ],
      "stateMutability": "view",
      "type": "function"
    },
    {
      "inputs": [],
      "name": "minLiquidatorReward",
      "outputs": [
        {
          "internalType": "uint256",
          "name": "",
          "type": "uint256"
        }
      ],
      "stateMutability": "view",
      "type": "function"
    },
    {
      "inputs": [],
      "name": "minimumInterestPerSecond",
      "outputs": [
        {
          "internalType": "uint64",
          "name": "",
          "type": "uint64"
        }
      ],
      "stateMutability": "view",
      "type": "function"
    },
    {
      "inputs": [],
      "name": "minimumTargetUtilization",
      "outputs": [
        {
          "internalType": "uint256",
          "name": "",
          "type": "uint256"
        }
      ],
      "stateMutability": "view",
      "type": "function"
    },
    {
      "inputs": [],
      "name": "name",
      "outputs": [
        {
          "internalType": "string",
          "name": "",
          "type": "string"
        }
      ],
      "stateMutability": "view",
      "type": "function"
    },
    {
      "inputs": [
        {
          "internalType": "address",
          "name": "owner",
          "type": "address"
        }
      ],
      "name": "nonces",
      "outputs": [
        {
          "internalType": "uint256",
          "name": "",
          "type": "uint256"
        }
      ],
      "stateMutability": "view",
      "type": "function"
    },
    {
      "inputs": [],
      "name": "oracle",
      "outputs": [
        {
          "internalType": "contract IOracle",
          "name": "",
          "type": "address"
        }
      ],
      "stateMutability": "view",
      "type": "function"
    },
    {
      "inputs": [],
      "name": "oracleData",
      "outputs": [
        {
          "internalType": "bytes",
          "name": "",
          "type": "bytes"
        }
      ],
      "stateMutability": "view",
      "type": "function"
    },
    {
      "inputs": [],
      "name": "owner",
      "outputs": [
        {
          "internalType": "address",
          "name": "",
          "type": "address"
        }
      ],
      "stateMutability": "view",
      "type": "function"
    },
    {
      "inputs": [],
      "name": "paused",
      "outputs": [
        {
          "internalType": "bool",
          "name": "",
          "type": "bool"
        }
      ],
      "stateMutability": "view",
      "type": "function"
    },
    {
      "inputs": [],
      "name": "pendingOwner",
      "outputs": [
        {
          "internalType": "address",
          "name": "",
          "type": "address"
        }
      ],
      "stateMutability": "view",
      "type": "function"
    },
    {
      "inputs": [],
      "name": "penrose",
      "outputs": [
        {
          "internalType": "contract IPenrose",
          "name": "",
          "type": "address"
        }
      ],
      "stateMutability": "view",
      "type": "function"
    },
    {
      "inputs": [
        {
          "internalType": "address",
          "name": "owner",
          "type": "address"
        },
        {
          "internalType": "address",
          "name": "spender",
          "type": "address"
        },
        {
          "internalType": "uint256",
          "name": "value",
          "type": "uint256"
        },
        {
          "internalType": "uint256",
          "name": "deadline",
          "type": "uint256"
        },
        {
          "internalType": "uint8",
          "name": "v",
          "type": "uint8"
        },
        {
          "internalType": "bytes32",
          "name": "r",
          "type": "bytes32"
        },
        {
          "internalType": "bytes32",
          "name": "s",
          "type": "bytes32"
        }
      ],
      "name": "permit",
      "outputs": [],
      "stateMutability": "nonpayable",
      "type": "function"
    },
    {
      "inputs": [
        {
          "internalType": "address",
          "name": "owner",
          "type": "address"
        },
        {
          "internalType": "address",
          "name": "spender",
          "type": "address"
        },
        {
          "internalType": "uint256",
          "name": "value",
          "type": "uint256"
        },
        {
          "internalType": "uint256",
          "name": "deadline",
          "type": "uint256"
        },
        {
          "internalType": "uint8",
          "name": "v",
          "type": "uint8"
        },
        {
          "internalType": "bytes32",
          "name": "r",
          "type": "bytes32"
        },
        {
          "internalType": "bytes32",
          "name": "s",
          "type": "bytes32"
        }
      ],
      "name": "permitBorrow",
      "outputs": [],
      "stateMutability": "nonpayable",
      "type": "function"
    },
    {
      "inputs": [],
      "name": "protocolFee",
      "outputs": [
        {
          "internalType": "uint256",
          "name": "",
          "type": "uint256"
        }
      ],
      "stateMutability": "view",
      "type": "function"
    },
    {
      "inputs": [
        {
          "internalType": "uint256",
          "name": "_cap",
          "type": "uint256"
        }
      ],
      "name": "setBorrowCap",
      "outputs": [],
      "stateMutability": "nonpayable",
      "type": "function"
    },
    {
      "inputs": [
        {
          "internalType": "uint256",
          "name": "_val",
          "type": "uint256"
        }
      ],
      "name": "setBorrowOpeningFee",
      "outputs": [],
      "stateMutability": "nonpayable",
      "type": "function"
    },
    {
      "inputs": [
        {
          "internalType": "uint256",
          "name": "_borrowOpeningFee",
          "type": "uint256"
        },
        {
          "internalType": "contract IOracle",
          "name": "_oracle",
          "type": "address"
        },
        {
          "internalType": "bytes",
          "name": "_oracleData",
          "type": "bytes"
        },
        {
          "internalType": "address",
          "name": "_conservator",
          "type": "address"
        },
        {
          "internalType": "uint256",
          "name": "_callerFee",
          "type": "uint256"
        },
        {
          "internalType": "uint256",
          "name": "_protocolFee",
          "type": "uint256"
        },
        {
          "internalType": "uint256",
          "name": "_liquidationBonusAmount",
          "type": "uint256"
        },
        {
          "internalType": "uint256",
          "name": "_minLiquidatorReward",
          "type": "uint256"
        },
        {
          "internalType": "uint256",
          "name": "_maxLiquidatorReward",
          "type": "uint256"
        },
        {
          "internalType": "uint256",
          "name": "_totalBorrowCap",
          "type": "uint256"
        },
        {
          "internalType": "uint256",
          "name": "_collateralizationRate",
          "type": "uint256"
        }
      ],
      "name": "setMarketConfig",
      "outputs": [],
      "stateMutability": "nonpayable",
      "type": "function"
    },
    {
      "inputs": [],
      "name": "startingInterestPerSecond",
      "outputs": [
        {
          "internalType": "uint64",
          "name": "",
          "type": "uint64"
        }
      ],
      "stateMutability": "view",
      "type": "function"
    },
    {
      "inputs": [],
      "name": "symbol",
      "outputs": [
        {
          "internalType": "string",
          "name": "",
          "type": "string"
        }
      ],
      "stateMutability": "view",
      "type": "function"
    },
    {
      "inputs": [],
      "name": "totalAsset",
      "outputs": [
        {
          "internalType": "uint128",
          "name": "elastic",
          "type": "uint128"
        },
        {
          "internalType": "uint128",
          "name": "base",
          "type": "uint128"
        }
      ],
      "stateMutability": "view",
      "type": "function"
    },
    {
      "inputs": [],
      "name": "totalBorrow",
      "outputs": [
        {
          "internalType": "uint128",
          "name": "elastic",
          "type": "uint128"
        },
        {
          "internalType": "uint128",
          "name": "base",
          "type": "uint128"
        }
      ],
      "stateMutability": "view",
      "type": "function"
    },
    {
      "inputs": [],
      "name": "totalBorrowCap",
      "outputs": [
        {
          "internalType": "uint256",
          "name": "",
          "type": "uint256"
        }
      ],
      "stateMutability": "view",
      "type": "function"
    },
    {
      "inputs": [],
      "name": "totalCollateralShare",
      "outputs": [
        {
          "internalType": "uint256",
          "name": "",
          "type": "uint256"
        }
      ],
      "stateMutability": "view",
      "type": "function"
    },
    {
      "inputs": [],
      "name": "totalSupply",
      "outputs": [
        {
          "internalType": "uint256",
          "name": "",
          "type": "uint256"
        }
      ],
      "stateMutability": "view",
      "type": "function"
    },
    {
      "inputs": [
        {
          "internalType": "address",
          "name": "to",
          "type": "address"
        },
        {
          "internalType": "uint256",
          "name": "amount",
          "type": "uint256"
        }
      ],
      "name": "transfer",
      "outputs": [
        {
          "internalType": "bool",
          "name": "",
          "type": "bool"
        }
      ],
      "stateMutability": "nonpayable",
      "type": "function"
    },
    {
      "inputs": [
        {
          "internalType": "address",
          "name": "from",
          "type": "address"
        },
        {
          "internalType": "address",
          "name": "to",
          "type": "address"
        },
        {
          "internalType": "uint256",
          "name": "amount",
          "type": "uint256"
        }
      ],
      "name": "transferFrom",
      "outputs": [
        {
          "internalType": "bool",
          "name": "",
          "type": "bool"
        }
      ],
      "stateMutability": "nonpayable",
      "type": "function"
    },
    {
      "inputs": [
        {
          "internalType": "address",
          "name": "newOwner",
          "type": "address"
        },
        {
          "internalType": "bool",
          "name": "direct",
          "type": "bool"
        },
        {
          "internalType": "bool",
          "name": "renounce",
          "type": "bool"
        }
      ],
      "name": "transferOwnership",
      "outputs": [],
      "stateMutability": "nonpayable",
      "type": "function"
    },
    {
      "inputs": [],
      "name": "updateExchangeRate",
      "outputs": [
        {
          "internalType": "bool",
          "name": "updated",
          "type": "bool"
        },
        {
          "internalType": "uint256",
          "name": "rate",
          "type": "uint256"
        }
      ],
      "stateMutability": "nonpayable",
      "type": "function"
    },
    {
      "inputs": [
        {
          "internalType": "bool",
          "name": "val",
          "type": "bool"
        }
      ],
      "name": "updatePause",
      "outputs": [],
      "stateMutability": "nonpayable",
      "type": "function"
    },
    {
      "inputs": [
        {
          "internalType": "address",
          "name": "",
          "type": "address"
        }
      ],
      "name": "userBorrowPart",
      "outputs": [
        {
          "internalType": "uint256",
          "name": "",
          "type": "uint256"
        }
      ],
      "stateMutability": "view",
      "type": "function"
    },
    {
      "inputs": [
        {
          "internalType": "address",
          "name": "",
          "type": "address"
        }
      ],
      "name": "userCollateralShare",
      "outputs": [
        {
          "internalType": "uint256",
          "name": "",
          "type": "uint256"
        }
      ],
      "stateMutability": "view",
      "type": "function"
    },
    {
      "inputs": [],
      "name": "yieldBox",
      "outputs": [
        {
          "internalType": "contract YieldBox",
          "name": "",
          "type": "address"
        }
      ],
      "stateMutability": "view",
      "type": "function"
    }
  ],
  "bytecode": "0x6101408060405234620001e1576200001781620001e6565b601381526001602082017f546170696f63612053696e67756c617269747900000000000000000000000000815260206040516200005481620001e6565b8381520192603160f81b845251902091208160e052610100918183524660a0526040519160208301907f8b73c3c69bb8fe3d512ecc4cf759cc79239f7b179b0ffacaa9a75d522b39400f92838352604085015260608401524660808401523060a084015260a0835260c083019280841060018060401b03851117620001cb5760408490525190206080523060c052610120908152600580546001600160a01b0319163390811790915560007f8be0079c531659141344cd1fd0a4f28419497f9722a3daafe3b4186f6b6457e08180a36103e860185561271080601955601a556032601c55612ee0601d557f0bd4060688a1800ae986e4840aebc924bb40b5bf44de4583df2257220b54b77c6024557f7d1dc38e60930664f8cbf495da6556ca091d2f92d6550877750c049864b182306025556161a8602655614c52928362000203843960805183612813015260a051836128dd015260c051836127dd015260e05183612862015251826128880152518161283f0152f35b634e487b7160e01b600052604160045260246000fd5b600080fd5b604081019081106001600160401b03821117620001cb5760405256fe60a060408181526004918236101561001657600080fd5b600092833560e01c918262a02a2014611dca5750816302ce728f14611da157816306fdde0314611cea578163078dfbe714611bef578163095ea7b314611bc557816318160ddd14611ba35781631c9e379b14611b6b5781631da8bf1014611ab157816323b872dd1461191457838263313ce567146118765750816334d441d0146118575781633644e5151461183a57816338d52e0f146118115781633ba0b9a9146117f25781633edb17891461174e5781633f741adb1461172657816340626d8b1461170757816344de240a146116e8578163473e3ce7146116c957816348e4163e146116915781634d7f2a34146116725781634e71e0c8146115cf5781635100b56714611571578163529898f21461155257816352f353eb14611529578163551402321461150057816355c2ab94146114d757816357935462146114b85781635c975abb146114945781635dfe04e8146114355781636c3d8b8f1461140c57816370a08231146113d4578163717186d11461137657816374645ff3146112b95781637dc0d1d0146112905781637ecebe001461125a5781637fa0b84e14611229578163821226e81461120a5781638285ef40146111d75781638c5d0ed3146111b85781638da5cb5b1461118f578163959916dc1461117057816395d89b41146110b85781639675937214610cd957816399a9702814610ca95781639c5d719214610c8a5781639e15e89f14610c4f578163a28e6b82146108be578163a9059cbb146107e3578163b0e21e8a146107c4578163b27c0e741461078a578163bb4cfe3b1461076b578163c23ea21f14610742578163ce8849ed14610715578163d505accf14610593578163d8dfeb451461056a578163dd62ed3e14610521578163de406577146104f8578163e0996cb6146104d9578163e30c3978146104b0578163eec0f42e14610491578163f42760b714610472578163f8974de01461037257508063f8ba4cff14610353578063f9557ccb1461031d5763ffe04c66146102fc57600080fd5b346103195781600319360112610319576020906027549051908152f35b5080fd5b5034610319578160031936011261031957602154905190819061034f90608081901c906001600160801b03168361203d565b0390f35b823461036f578060031936011261036f5761036c612fd9565b80f35b80fd5b9190503461046e57602036600319011261046e5781359081151580920361046a57600d5492600884901c6001600160a01b031633036104315760ff84161515908184146103f95750817f9c13c5f6c628c1c82eb2b3fd8714da5c2857dbd0ad8ab6b2074abcf81015d3969160ff949351908152836020820152a1169060ff191617600d5580f35b606490602084519162461bcd60e51b835282015260126024820152714d61726b65743a2073616d6520737461746560701b6044820152fd5b6020606492519162461bcd60e51b8352820152601460248201527313585c9ad95d0e881d5b985d5d1a1bdc9a5e995960621b6044820152fd5b8380fd5b8280fd5b5050346103195781600319360112610319576020906028549051908152f35b505034610319578160031936011261031957602090600a549051908152f35b50503461031957816003193601126103195760065490516001600160a01b039091168152602090f35b505034610319578160031936011261031957602090601a549051908152f35b50503461031957816003193601126103195760075490516001600160a01b039091168152602090f35b5050346103195780600319360112610319578060209261053f611e10565b610547611e2b565b6001600160a01b0391821683526002865283832091168252845220549051908152f35b50503461031957816003193601126103195760095490516001600160a01b039091168152602090f35b83915034610319576105a436611e89565b928097949796959692919242116106d2578893869361067d938c888b610675968e8460018060a01b03809c169c8d9586825260205220908154916105e783612b27565b90558b86519460208601967f6e71edae12b1b97f4d1f60370fef10105fa2faae0126114a169c64845d6126c9885288870152166060850152608084015260a083015260c082015260c0815261063b81611fff565b5190206106466127da565b915190602082019261190160f01b8452602283015260428201526042815261066d81611fe4565b519020612aa2565b91909161298d565b160361068f575061036c939450612b8d565b606490602087519162461bcd60e51b8352820152601e60248201527f45524332305065726d69743a20696e76616c6964207369676e617475726500006044820152fd5b895162461bcd60e51b8152602081870152601d60248201527f45524332305065726d69743a206578706972656420646561646c696e650000006044820152606490fd5b505034610319578160031936011261031957600d54905160089190911c6001600160a01b03168152602090f35b50503461031957816003193601126103195760225490516001600160a01b039091168152602090f35b505034610319578160031936011261031957602090601b549051908152f35b5050346103195781600319360112610319576060906020549080519160018060401b03808216845281831c16602084015260801c90820152f35b5050346103195781600319360112610319576020906017549051908152f35b505034610319578060031936011261031957602091610800611e10565b826024359283158015906108ac575b61083f575b50519182526001600160a01b0316903390600080516020614bbd833981519152908590a35160018152f35b338152600186528181205461085685821015612903565b6001600160a01b038416908533839003610873575b505050610814565b61088791610882841515612948565b612176565b33835260018852838320558152206108a0838254612183565b9055823880808561086b565b50336001600160a01b0384161461080f565b83915034610319576080366003190112610319576108da611e10565b906108e3611e2b565b6108eb611f08565b926064356001600160401b038111610c4b5761090a9036908501611f1e565b6005546001600160a01b0393906109249085163314612057565b61092c61247b565b505061093b60105415156130c4565b610943612fd9565b600854895163433e762d60e01b81526020929186169083818a81855afa908115610c41576109939285928b8f8f948f9593610c12575b5051631f32831960e21b8152958694859384938401613128565b03915afa908115610bcb57908692918b91610bd5575b506109b390613146565b16958689526014825288828b60646109df82852054620186a06109d8601d548361211f565b0490612183565b8960075416610a006109f7600a54936010549061211f565b601e5490612156565b93519586948593638eb22cdd60e01b855289850152602484015260448301525afa908115610bcb578a91610b9a575b50878a52601583528a8a205411610b5a5750908780996015610b0595948961036c9c528181528284205499610ad7610a656122d0565b82875260148452610ad2610ac7878920549289878a51610a8481611f85565b82815201528681019360018060801b03928382818094868a8381511615600014610b0d57505081610aba915b16828851166131db565b16855216828751166131db565b168094525116612fb7565b612f92565b808552601482528484812055828252610af584862054601254612176565b60125584525281205536916131a4565b931691613b29565b610aba92610b46610b3c86610b33610b2982809851168661211f565b8287511690612156565b9451168461211f565b848c511690612156565b1015610ab057610b5590612b27565b610ab0565b816064928b519262461bcd60e51b845283015260248201527f42696742616e673a2043616e6e6f7420666f726365206c6971756964617465646044820152fd5b90508281813d8311610bc4575b610bb1818361201a565b81010312610bc057518b610a2f565b8980fd5b503d610ba7565b8b513d8c823e3d90fd5b80929350848092503d8311610c0b575b610bef818361201a565b81010312610bc057906109b3610c05879361246e565b906109a9565b503d610be5565b610c33919350863d8811610c3a575b610c2b818361201a565b81019061310e565b9138610979565b503d610c21565b8c513d8d823e3d90fd5b8580fd5b505034610319578060031936011261031957606090610c78610c6f611e10565b6024359061231c565b91929081519384526020840152820152f35b5050346103195781600319360112610319576020906029549051908152f35b505034610319578060031936011261031957602090610cd2610cc9611e10565b60243590612692565b9051908152f35b90503461046e5761016036600319011261046e576001600160a01b0390602435828116908190036110b4576001600160401b03916044358381116110b057610d249036908301611f1e565b916064359486861694858703610bc057610d4388600554163314612057565b823580611079575b508061103b575b5083610ed6575b5050505080610e80575b50505060843580610e68575b5060a43580610e50575b5060c43580610e39575b5060e43580610e15575b506101043580610df1575b50610124359081610dc8575b50506101443580610db3575080f35b610dc2620186a08211156120a2565b601b5580f35b600080516020614b5d833981519152906013548151908152836020820152a16013553880610da4565b610dff620186a082106120a2565b610e0c60185482116120a2565b60195538610d98565b610e23620186a082106120a2565b610e3060195482106120a2565b60185538610d8d565b610e47620186a082106120a2565b601a5538610d83565b610e5f620186a08211156120a2565b60175538610d79565b610e77620186a08211156120a2565b60165538610d6f565b600d54928360081c167f5a62d22209e370e38eea92cfddcd228e656e6ec139243392a760a7769f5877fd8680a3610100600160a81b031990911660089190911b610100600160a81b031617600d55388080610d63565b831161102857508190610eea600f54611f4b565b601f8111610fcc575b508790601f8311600114610f56578892610f4b575b50508160011b916000199060031b1c191617600f555b7fa6f004921c944d4b8bf6e38462b00f36a58d62495d56b51f571ab78f732c98158580a138808080610d59565b013590503880610f08565b600f8952600080516020614bfd833981519152925090601f1984168960205b828210610fb4575050908460019594939210610f9a575b505050811b01600f55610f1e565b0135600019600384901b60f8161c19169055388080610f8c565b80600185978294968801358155019601930190610f75565b600f8952909150600080516020614bfd833981519152601f840160051c8101916020851061101e575b90601f859493920160051c01905b8181106110105750610ef3565b898155849350600101611003565b9091508190610ff5565b634e487b7160e01b885260419052602487fd5b600e80546001600160a01b0319169190911790557f0b2d6eb667d0522c3eb86e4288afecae6c11591ffd1345d4d12407e0598bca9b8980a138610d52565b611088620186a08211156120a2565b600080516020614b7d8339815191528a601c548151908152836020820152a1601c5538610d4b565b8680fd5b8480fd5b90503461046e578260031936011261046e5791808061034f9460018060a01b036009541690855160208101916395d89b4160e01b835281526110f981611f85565b51915afa61110561493a565b91501561116157611115906149ab565b905b61114f60238251809462746d2d60e81b602083015261113f8151809260208686019101611e41565b810103600381018552018361201a565b51918291602083526020830190611e64565b5061116a61496a565b90611117565b505034610319578160031936011261031957602090601c549051908152f35b50503461031957816003193601126103195760055490516001600160a01b039091168152602090f35b5050346103195781600319360112610319576020906018549051908152f35b505034610319578160031936011261031957601154905190819061034f90608081901c906001600160801b03168361203d565b505034610319578160031936011261031957602090602b549051908152f35b505034610319578060031936011261031957602090611253611249611e10565b6024359033612b36565b5160018152f35b90503461046e57602036600319011261046e5760209282916001600160a01b03611282611e10565b168252845220549051908152f35b505034610319578160031936011261031957600e5490516001600160a01b039091168152602090f35b50503461031957816003193601126103195780519082600f546112db81611f4b565b8085529060019081811690811561134e5750600114611307575b50505061114f8261034f94038361201a565b600f835260209550600080516020614bfd8339815191525b82841061133b575050508261034f9461114f92820101946112f5565b805486850188015292860192810161131f565b61034f975061114f9450602092508693915060ff191682840152151560051b820101946112f5565b90503461046e57602036600319011261046e57600080516020614b5d8339815191529035916113aa60ff600d5416156120e2565b6113bf60018060a01b03600554163314612057565b6013548151908152836020820152a160135580f35b5050346103195760203660031901126103195760209181906001600160a01b036113fc611e10565b1681526001845220549051908152f35b50503461031957816003193601126103195760085490516001600160a01b039091168152602090f35b505034610319578160031936011261031957608090611452612be4565b5061145b612c1c565b509495935050505080519260018060401b03808251168552602082015116602085015281600180871b0391015116908301526060820152f35b50503461031957816003193601126103195760209060ff600d541690519015158152f35b5050346103195781600319360112610319576020906019549051908152f35b505034610319578160031936011261031957602a548151911c6001600160401b03168152602090f35b505034610319578160031936011261031957602a5490516001600160401b039091168152602090f35b505034610319578160031936011261031957602c5490516001600160401b039091168152602090f35b505034610319578160031936011261031957602090601d549051908152f35b90503461046e57602036600319011261046e57600080516020614b7d8339815191529035916115ab60018060a01b03600554163314612057565b6115ba620186a08411156120a2565b601c548151908152836020820152a1601c5580f35b9190503461046e578260031936011261046e576006546001600160a01b0392909183831691903383900361162f57505080600554938416600080516020614b9d8339815191528680a36001600160a01b0319928316176005551660065580f35b906020606492519162461bcd60e51b8352820152602060248201527f4f776e61626c653a2063616c6c657220213d2070656e64696e67206f776e65726044820152fd5b5050346103195781600319360112610319576020906026549051908152f35b5050346103195760203660031901126103195760209181906001600160a01b036116b9611e10565b1681526014845220549051908152f35b5050346103195781600319360112610319576020906012549051908152f35b505034610319578160031936011261031957602090600c549051908152f35b5050346103195781600319360112610319576020906013549051908152f35b82843461036f57606036600319011261036f5750610cd2602092604435906024359035612222565b8390346103195760a0366003190112610319576001600160401b03813581811161046a5761177f9036908401611ed8565b91602435818111610c4b576117979036908601611ed8565b6117a2929192611f08565b906064358381116117ee576117ba9036908901611f1e565b949093608435908111610bc05761036c986117d791369101611f1e565b9790966117e960ff600d5416156120e2565b61321a565b8880fd5b5050346103195781600319360112610319576020906010549051908152f35b505034610319578160031936011261031957600b5490516001600160a01b039091168152602090f35b505034610319578160031936011261031957602090610cd26127da565b5050346103195781600319360112610319576020906016549051908152f35b915034610319578160031936011261031957600b54835163313ce56760e01b6020820190815292815283926001600160a01b0390921691906118b781611f85565b51915afa6118c361493a565b9080611909575b156118fa5760208180518101031261046e57602001519160ff8316830361036f575060ff602092915b5191168152f35b506020915060ff6012916118f3565b5060208151146118ca565b82843461036f57606036600319011261036f5761192f611e10565b90611938611e2b565b6044359182611974575b508351918252602094506001600160a01b03908116921690600080516020614bbd833981519152908590a35160018152f35b6001600160a01b03848116808352600160209081528784205491989290919061199f87831015612903565b851692838a036119b3575b50505050611942565b898552600283528885203386528352888520549060018201611a1d575b5050928260209960018a946119fc8a8e99610882600080516020614bbd8339815191529c9a1515612948565b9285525283832055815220611a12858254612183565b9055918780806119aa565b878210611a7357509260209960018a946119fc8a8e9996611a4e82600080516020614bbd8339815191529d9b612176565b86895260028552898920338a52855289892055969950505094505099819496506119d0565b895162461bcd60e51b8152908101849052601860248201527745524332303a20616c6c6f77616e636520746f6f206c6f7760401b6044820152606490fd5b8391503461031957611ac236611e89565b928097949796959692919242116106d25788938693611b59938c888b610675968e8460018060a01b03809c169c8d958682526020522090815491611b0583612b27565b90558b86519460208601967fe9685ff6d48c617fe4f692c50e602cce27cbad0290beb93cfa77eac43968d58c885288870152166060850152608084015260a083015260c082015260c0815261063b81611fff565b160361068f575061036c939450612b36565b5050346103195760203660031901126103195760209181906001600160a01b03611b93611e10565b1681526015845220549051908152f35b50503461031957816003193601126103195760209060215460801c9051908152f35b505034610319578060031936011261031957602090611253611be5611e10565b6024359033612b8d565b9190503461046e57606036600319011261046e57611c0b611e10565b916024359182151583036110b457604435928315158403610c4b5760018060a01b03948591611c3f83600554163314612057565b15611cd1571692831590811591611cc9575b5015611c8e57505080600554928316600080516020614b9d8339815191528580a36001600160a01b03199182161760055560068054909116905580f35b906020606492519162461bcd60e51b835282015260156024820152744f776e61626c653a207a65726f206164647265737360581b6044820152fd5b905038611c51565b93505050501660018060a01b0319600654161760065580f35b90503461046e578260031936011261046e5791808061034f9460018060a01b036009541690855160208101916306fdde0360e01b83528152611d2b81611f85565b51915afa611d3761493a565b915015611d9257611d47906149ab565b905b61114f60348251809473546170696f63612053696e67756c61726974792d60601b6020830152611d828151809260208686019101611e41565b810103601481018552018361201a565b50611d9b61496a565b90611d49565b82843461036f578060031936011261036f5750611dbc61247b565b825191151582526020820152f35b8490843461046e578060031936011261046e57602092611de8611e10565b611df0611e2b565b6001600160a01b0391821683526003865283832091168252845220548152f35b600435906001600160a01b0382168203611e2657565b600080fd5b602435906001600160a01b0382168203611e2657565b60005b838110611e545750506000910152565b8181015183820152602001611e44565b90602091611e7d81518092818552858086019101611e41565b601f01601f1916010190565b60e0906003190112611e26576001600160a01b03906004358281168103611e2657916024359081168103611e265790604435906064359060843560ff81168103611e26579060a4359060c43590565b9181601f84011215611e26578235916001600160401b038311611e26576020808501948460051b010111611e2657565b604435906001600160a01b0382168203611e2657565b9181601f84011215611e26578235916001600160401b038311611e265760208381860195010111611e2657565b90600182811c92168015611f7b575b6020831014611f6557565b634e487b7160e01b600052602260045260246000fd5b91607f1691611f5a565b604081019081106001600160401b03821117611fa057604052565b634e487b7160e01b600052604160045260246000fd5b606081019081106001600160401b03821117611fa057604052565b6001600160401b038111611fa057604052565b608081019081106001600160401b03821117611fa057604052565b60e081019081106001600160401b03821117611fa057604052565b601f909101601f19168101906001600160401b03821190821017611fa057604052565b6001600160801b0391821681529116602082015260400190565b1561205e57565b606460405162461bcd60e51b815260206004820152602060248201527f4f776e61626c653a2063616c6c6572206973206e6f7420746865206f776e65726044820152fd5b156120a957565b60405162461bcd60e51b815260206004820152601160248201527013585c9ad95d0e881b9bdd081d985b1a59607a1b6044820152606490fd5b156120e957565b60405162461bcd60e51b815260206004820152600e60248201526d13585c9ad95d0e881c185d5cd95960921b6044820152606490fd5b8181029291811591840414171561213257565b634e487b7160e01b600052601160045260246000fd5b604d811161213257600a0a90565b8115612160570490565b634e487b7160e01b600052601260045260246000fd5b9190820391821161213257565b9190820180921161213257565b90601b549182916121a6620186a093849261211f565b04808210612219576121b791612176565b91601d548201908183116121325782916121d09161211f565b049081810391818311612132576509184e72a000808402938404149114171561213257670de0b6b3a7640000918281029281840414901517156121325761221691612156565b90565b50505050600090565b919091612244612235601b54809561211f565b61223e84612148565b90612156565b90818110612219576122949161225991612176565b9261228e61228561226985612148565b9261227f61227687612148565b601d5490612183565b9061211f565b61223e85612148565b90612176565b9060120390601282116121325761227f6122ad92612148565b670de0b6b3a7640000918281029281840414901517156121325761221691612156565b604051906122dd82611f85565b6011546001600160801b038116835260801c6020830152565b6040519061230382611f85565b6021546001600160801b038116835260801c6020830152565b6001600160a01b039081166000818152601460209081526040822054929594939192909181156124615761234e6122d0565b9061235a86151561258a565b6007541683600a5489875260158252606461238d61238460408a2054620186a0601e54049061211f565b601b549061211f565b91604051948593849263442c159960e01b8452600484015260248301528960448301525afa908115612456578591612427575b50928594926123ff6015936123da61241b99604098612156565b815190936001600160801b039186916123f59184169061211f565b9201511690612156565b9080821061241f5761241091612176565b9783525220546125d6565b9091565b505082612410565b90508381813d831161244f575b61243e818361201a565b810103126110b4575161241b6123c0565b503d612434565b6040513d87823e3d90fd5b5050509192505080918190565b51908115158203611e2657565b60018060a01b03600e541690604090815163d6d7d52560e01b8152602060048201528281604481600080988160248401525af190811561257d5784809261253f575b505091836000146125375782156124fd5760207f9f9192b5edb17356c524e08d9e025c8e2f6307e6ea52fb7968faa3081f51c3c8918460105551848152a1565b5162461bcd60e51b81526020600482015260146024820152734d61726b65743a20696e76616c6964207261746560601b6044820152606490fd5b506010549150565b915093508284813d8311612576575b612558818361201a565b8101031261036f5750602061256c8461246e565b93015138806124bd565b503d61254e565b50505051903d90823e3d90fd5b1561259157565b60405162461bcd60e51b815260206004820152601e60248201527f4d61726b65743a2065786368616e676552617465206e6f742076616c696400006044820152606490fd5b6125e182151561258a565b602060018060a01b0360075416916064600a54604051948593849263442c159960e01b845260048401526024830152600060448301525afa90811561268657600091612653575b509061263a61263f92601e549061211f565b612156565b620186a061264f601b548361211f565b0491565b906020823d821161267e575b8161266c6020938361201a565b8101031261036f57505161263a612628565b3d915061265f565b6040513d6000823e3d90fd5b60018060a01b0316906126b3600091838352601560205260408320546125d6565b9282526014602052604082205480156127d35781156127d3578181106127d357838110156127c957816126e591612176565b90620186a093848302928084048614901517156127b55761270a929161223e91612176565b91601854926019549384810391848612828412811690838513901516176127a15782810292858112600160ff1b83141661278d5783051490851417156127795705818382019384129112908015821691151617612765575090565b634e487b7160e01b81526011600452602490fd5b634e487b7160e01b83526011600452602483fd5b634e487b7160e01b86526011600452602486fd5b634e487b7160e01b85526011600452602485fd5b634e487b7160e01b84526011600452602484fd5b5050505060185490565b5050905090565b307f00000000000000000000000000000000000000000000000000000000000000006001600160a01b031614806128da575b15612835577f000000000000000000000000000000000000000000000000000000000000000090565b60405160208101907f000000000000000000000000000000000000000000000000000000000000000082527f000000000000000000000000000000000000000000000000000000000000000060408201527f000000000000000000000000000000000000000000000000000000000000000060608201524660808201523060a082015260a0815260c0810181811060018060401b03821117611fa05760405251902090565b507f0000000000000000000000000000000000000000000000000000000000000000461461280c565b1561290a57565b60405162461bcd60e51b815260206004820152601660248201527545524332303a2062616c616e636520746f6f206c6f7760501b6044820152606490fd5b1561294f57565b60405162461bcd60e51b815260206004820152601660248201527545524332303a206e6f207a65726f206164647265737360501b6044820152606490fd5b6005811015612a8c578061299e5750565b600181036129e65760405162461bcd60e51b815260206004820152601860248201527745434453413a20696e76616c6964207369676e617475726560401b6044820152606490fd5b60028103612a335760405162461bcd60e51b815260206004820152601f60248201527f45434453413a20696e76616c6964207369676e6174757265206c656e677468006044820152606490fd5b600314612a3c57565b60405162461bcd60e51b815260206004820152602260248201527f45434453413a20696e76616c6964207369676e6174757265202773272076616c604482015261756560f01b6064820152608490fd5b634e487b7160e01b600052602160045260246000fd5b9291906fa2a8918ca85bafe22016d0b997e4df60600160ff1b038311612b1b5791608094939160ff602094604051948552168484015260408301526060820152600093849182805260015afa15612b0e5781516001600160a01b03811615612b08579190565b50600190565b50604051903d90823e3d90fd5b50505050600090600390565b60001981146121325760010190565b909160207fe50de2333c10a9502fcb1d8ae13a51bbf423153dfc63c2b8997665b32154afc39160018060a01b03809416938460005260038352604060002095169485600052825280604060002055604051908152a3565b909160207f8c5be1e5ebec7d5bd14f71427d1e84f3dd0314c0f7b2291e5b200ac8c7c3b9259160018060a01b03809416938460005260028352604060002095169485600052825280604060002055604051908152a3565b60405190612bf182611fb6565b60006040838281528260208201520152565b6001600160801b03918216908216019190821161213257565b612c24612be4565b5060405190612c3282611f85565b600090818352816020809401528183604051612c4d81611f85565b828152015260405191612c5f83611fb6565b83549060018060401b0391828116855285850190838160401c16825260801c604086015284612c8c6122d0565b94612c956122f6565b600754600c54825160405163442c159960e01b815260048101929092526001600160801b039081166024830152604482018890529297929694918591908c90829060649082906001600160a01b03165afa8015612f87578290612f58575b612d029150888b511690612183565b80612f2b57815b612d17858299511642612176565b938415612f025750508342168c8c0152878c8b01511615612ec6578a9b8491898c81819f819e9f828a915116670de0b6b3a76400009889935116612d5a9161211f565b90612d649161211f565b049d8e1691511690612d7591612c03565b168d52601754612d85908c61211f565b620186a09004918c01918a835116612d9c9161211f565b90612da691612156565b988d818b169060400182828183511690612dbf91612c03565b1690528183511690612dd091612c03565b1690526027549182881015612e4d57612de98884612176565b828102928184041490151715612765575061263a849384612e2e8f94612e15612e3697612e2892612156565b93612e23602b54958061211f565b61211f565b83612183565b93511661211f565b1690818a52602a5416809110612e495750565b8852565b909150602854808811612e62575b5050505050565b612e6c9088612176565b82810292818404149015171561276557509061263a612e97612e28612e15612ea09560295490612156565b848d511661211f565b81602a5460401c16808211612ebe575b501688523880808080612e5b565b905038612eb0565b509650509196829196985080939450511690602c5416809103612ef6575b509493612eef6122f6565b9383929190565b81526001945038612ee4565b99509a505097505050965050505092612f196122d0565b92612f226122f6565b92809281929190565b878a5116670de0b6b3a7640000908181029181830414901517156127795781612f5391612156565b612d09565b508b81813d8311612f80575b612f6e818361201a565b8101031261031957612d029051612cf3565b503d612f64565b6040513d84823e3d90fd5b601180546001600160801b031660809290921b6001600160801b031916919091179055565b601180546001600160801b0319166001600160801b0392909216919091179055565b61307f6040602080612fe9612c1c565b939995939092901561308f57505050600080516020614bdd8339815191526080600180891b03602c5416885190600082526000888301528982015260006060820152a15b600180871b03815116848201519160018060801b0319978891015160801b1691600160401b600160801b039060401b161717835560018060801b0392816130778580945116612fb7565b015116612f92565b83511692015160801b1617602155565b600080516020614bdd833981519152926080926001808c1b03865116908b51938452898401528a8301526060820152a161302d565b156130cb57565b60405162461bcd60e51b815260206004820152601b60248201527a14d1d30e88195e18da185b99d954985d19481b9bdd081d985b1a59602a1b6044820152606490fd5b90816020910312611e26575161ffff81168103611e265790565b61ffff90911681526001600160a01b03909116602082015260400190565b1561314d57565b60405162461bcd60e51b815260206004820152601460248201527329a3a61d1024b73b30b634b21039bbb0b83832b960611b6044820152606490fd5b6001600160401b038111611fa057601f01601f191660200190565b9291926131b082613189565b916131be604051938461201a565b829481845281830111611e26578281602093846000960137010152565b6001600160801b03918216908216039190821161213257565b91908110156132045760051b0190565b634e487b7160e01b600052603260045260246000fd5b9692959493919560805261322c61247b565b939050613237612fd9565b602254600099906001600160a01b031680613302575b505050875b8181106132a35750505050505050501561326857565b60405162461bcd60e51b815260206004820152601360248201527214d1d30e881b9bc81d5cd95c9cc8199bdd5b99606a1b6044820152606490fd5b6132b66132b182848b6131f4565b613f5e565b6132c08582613fad565b156132d5575b506132d090612b27565b613252565b986132df90612b27565b98868686868b866080516132f2926131f4565b356132fc956141cb565b386132c6565b606060049160405192838092637c8be05b60e01b82525afa908115613aaf578b908c92613a68575b501561324d579894919a969390999592869b879c5b608051808f10156133705761336a918f61335d90613364938f6131f4565b3590612183565b9d612b27565b9c61333f565b509194979b9295989c509295991015613389578061324d565b9250929550935061339c925036916131a4565b928490859386906133ab6122d0565b90885b86811061382a57505090610ad261341a926133ca881515613f72565b80516001600160801b03906133e4908a83169083166131db565b16815260208101805190936001600160801b03916134069183169083166131db565b1692839052516001600160801b0316612fb7565b61342682601254612176565b601255600754600c54604051638eb22cdd60e01b81526004810191909152602481018690526001604482015295906001600160a01b0316602087606481845afa9687156137e75788976137f2575b50602254600a54906001600160a01b0316823b15610bc0576134b3928a9283889360405196879586948593630208d92960e11b85523060048601613aba565b03925af180156137e7576137d4575b5060018060a01b03602254169060018060a01b03600754166020600a5460646040518094819363442c159960e01b83526004830152896024830152600160448301525afa90811561375a57899161379e575b5090613545926040928a8451809681958294633965907b60e01b845260048401528760248401526044830190611e64565b03925af1801561379357613765575b5060018060a01b036007541692600c5492604051627eeac760e11b815260208180613583883060048401613ae4565b0381895afa90811561375a578991613726575b50602154620186a0916135ca916135c1916135ba916001600160801b031690612176565b998a612176565b6016549061211f565b04956135d68789612176565b604051938060a0860160a087525260c0850195908b905b8082106136fc5750505090839291886020600080516020614b3d8339815191529601526040840152606083015260808201528033930390a2813b156110b4578261365292869283604051809681958294630208d92960e11b8452333060048601613aba565b03925af180156136f1579084916136dd575b506136bb9190506001600160801b0361367d8285612176565b602154916001600160801b03916136979116828416612c03565b6001600160801b03199092169116176021556022546001600160a01b031692612176565b916040519283526020830152600080516020614b1d83398151915260403093a3565b6136e690611fd1565b61046e578238613664565b6040513d86823e3d90fd5b90919687359060018060a01b038216809203611e26576020816001938293520198019201906135ed565b90506020813d602011613752575b816137416020938361201a565b81010312611e2657516135ca613596565b3d9150613734565b6040513d8b823e3d90fd5b6137869060403d60401161378c575b61377e818361201a565b810190613b13565b50613554565b503d613774565b6040513d89823e3d90fd5b9190506020823d6020116137cc575b816137ba6020938361201a565b81010312611e26579051613545613514565b3d91506137ad565b6137e090979197611fd1565b95386134c2565b6040513d8a823e3d90fd5b9096506020813d602011613822575b8161380e6020938361201a565b8101031261381e57519538613474565b8780fd5b3d9150613801565b6138386132b18289886131f4565b6138428382613fad565b15613857575b5061385290612b27565b6133ae565b909397958a61386684846140ab565b918215613a58576001600160a01b03841682526014602052604082205486519094906001600160801b03908116613a3057506138a3848096612176565b60018060a01b03821684526014602052604084205560206138d4620186a06138cd601d548861211f565b0486612183565b606460018060a01b0360075416916138f26109f78b600a549361211f565b926040519788948593638eb22cdd60e01b85526004850152602484015260448301525afa928315613a23578e9081946139e5575b5061385295936139d8936139de969360406139d89460018060a01b0383168152601560205220613957848254612176565b90556022546040518481526001600160a01b03918216918291908416907f8ad4d3ff00da092c7ad9a573ea4f5f6a3dffc6712dc06d3f78f49b862297c40290602090a37fc8e512d8f188ca059984b5853d2bf653da902696b8512785b182b2c813789a6e60408051938885528a602086015260018060a01b031693a3612183565b99612183565b9390613848565b91929350506020813d602011613a1b575b81613a036020938361201a565b81010312613a17575191908d6139d8613926565b8d80fd5b3d91506139f6565b8e604051903d90823e3d90fd5b613a5181613a476138a39360208c0151168861211f565b908a511690612156565b8096612176565b9799959150506138529150612b27565b9150506060813d8211613aa7575b81613a836060938361201a565b81010312613aa3576040613a996020830161246e565b910151903861332a565b8a80fd5b3d9150613a76565b6040513d8d823e3d90fd5b6001600160a01b039182168152911660208201526040810191909152606081019190915260800190565b6001600160a01b039091168152602081019190915260400190565b51906001600160a01b0382168203611e2657565b9190826040910312611e26576020825192015190565b600754600a54600096959492919087906001600160a01b0383163b1561031957613b6e92849183604051809681958294630208d92960e11b84528b3060048601613aba565b03926001600160a01b03165af1801561379357613f49575b509085918294805180613f2b575b5050600754600c54604051627eeac760e11b8152969093909160209088906001600160a01b03168180613bcb898c60048401613ae4565b03915afa968715612456578597613ef4575b5060018060a01b031691600a549360405194633d9545e960e11b865260048601526024850152846044850152606484015260016084840152600160a4840152610140808460c481865afa938415612456578594613de3575b50506040805163efa84c6d60e01b8152845180516001600160a01b03908116600484015260208281015160248501528285015182166044850152606092830151606485015280880151805160848601528082015160a48601528086015160c48601529092015160e48401529583015180511515610104840152015115156101248201526101448101929092529285166101648201526101a06101848201526101a481018490529283916101c49183915af180156124565791602091613d2b959693613dc5575b50600754600c54604051627eeac760e11b81529687936001600160a01b0390931692849283929160048401613ae4565b03915afa908115613db95790613d85575b613d469250612176565b15613d4d57565b60405162461bcd60e51b815260206004820152601060248201526f14d1d30e8814ddd85c0819985a5b195960821b6044820152606490fd5b506020823d602011613db1575b81613d9f6020938361201a565b81010312611e2657613d469151613d3c565b3d9150613d92565b604051903d90823e3d90fd5b613ddd9060403d60401161378c5761377e818361201a565b50613cfb565b818193929495503d8511613eed575b613dfc818361201a565b8101039283126110b45760405192613e1384611fb6565b60808112610c4b57604051613e2781611fe4565b613e3084613aff565b815260208401516020820152613e4860408501613aff565b60408201526060840151606082015284526080607f19820112610c4b576040908151613e7381611fe4565b6080850151815260a0850151602082015260c08501518382015260e08501516060820152602086015260ff1901126110b45760209460409485946101c494613ed8610120885192613ec384611f85565b613ed0610100820161246e565b84520161246e565b89820152868201529550935094819250613c35565b503d613df2565b945095506020843d602011613f23575b81613f116020938361201a565b81010312611e26578793519538613bdd565b3d9150613f04565b602092965081809550010312611e2657602086920151933880613b94565b613f569096919296611fd1565b949038613b86565b356001600160a01b0381168103611e265790565b15613f7957565b60405162461bcd60e51b815260206004820152600c60248201526b14d1d30e881cdbdb1d995b9d60a21b6044820152606490fd5b91909160018060a01b038060009216825260206014815260408320549081156140a15760158152604084205480156140985781613fe86122d0565b9460075416916064614008612384600a5493620186a0601e54049061211f565b91604051948593849263442c159960e01b8452600484015260248301528960448301525afa948515613db9578095614060575b50506123f561405b949596612e2360018060801b0394858751169061211f565b111590565b909694508187813d8311614091575b614079818361201a565b8101031261036f5750945192946123f561405b61403b565b503d61406f565b50929450505050565b5060019450505050565b6001600160a01b039081166000818152601460209081526040822054919490939282156141c3576140dd8215156130c4565b8552601584526040852054846140f16122d0565b946007541691606461411a614111600a5493620186a0601e54049061211f565b6026549061211f565b91604051948593849263442c159960e01b8452600484015260248301528a60448301525afa9081156141b8578691614189575b5061417393929161415d91612156565b936123f560018060801b0392838551169061211f565b818110614184576122169250612176565b505090565b90508481813d83116141b1575b6141a0818361201a565b81010312610c4b575161417361414d565b503d614196565b6040513d88823e3d90fd5b505050505090565b9390959492916141db8386613fad565b614931576141e98386612692565b90600080986141f98615156130c4565b600754600a546001600160a01b038a8116855260156020908152604080872054905163442c159960e01b81526004810194909452602484015260448301869052919283916064918391165afa90811561492657879084926148f0575b5061263a61426692601e549061211f565b9160018060a01b03891681526014602052614285836040832054612190565b92601a54806148d6575b508310156148a15750818111156148995750925b6001600160a01b038716600090815260146020526040902054808511614891575b846142ce91612176565b6001600160a01b0388166000908152601460205260409020556142ef6122d0565b6020810180516001600160801b0316614860575050835b6020614322620186a061431b601d548961211f565b0487612183565b606461433f6109f760018060a01b03600754169a600a549461211f565b91604051998a938492638eb22cdd60e01b845260048401526024830152600060448301525afa9586156126865760009661482c575b506001600160a01b03881660009081526015602052604090208054808811614824575b876143a191612176565b90556143ae851515613f72565b601154906143ed6001600160801b036143cb8882168286166131db565b16926001600160801b0319926001600160801b0316908316841760801c6131db565b60801b161760115560018060a01b0360075416956020600c546064604051809a8193638eb22cdd60e01b83526004830152896024830152600160448301525afa968715612686576000976147f0575b5060085460405163433e762d60e01b81526001600160a01b0390911690602081600481855afa908115612686576144979260209287926000916147d3575b50604051809581948293631f32831960e21b845260048401613128565b03915afa9081156126865760009161478a575b50916144c3916144bc6144d494613146565b36916131a4565b6001600160a01b0383163087613b29565b60018060a01b0360075416600c5495604051627eeac760e11b8152602081806145018b3060048401613ae4565b0381865afa90811561268657600091614756575b5060215461453791614530916001600160801b031690612176565b9182612176565b91620186a06145548161454c6017548761211f565b04968561211f565b60085491900498906001600160a01b0316823b15611e26576145949260009283899360405196879586948593630208d92960e11b85523060048601613aba565b03925af1801561268657614742575b5060018060a01b0360075416908a600c54833b15610319576145e0938a9183604051809781958294630208d92960e11b8452333060048601613aba565b03925af1908b8215613db95789938793614726575b5050906146469361088292614615856108828560018060801b0394612176565b602154916001600160801b039161462f9116828416612c03565b6001600160801b0319909216911617602155612176565b60408051918252602082018a905230926001600160a01b031691600080516020614b1d8339815191529190a36040519361467f85611f85565b6001855260208501956020368837855115614712576001600160a01b0316865260405160a0808252955195810186905260c081019690955b808a106146ef575050600080516020614b3d8339815191529596975060208501526040840152606083015260808201528033930390a2565b81516001600160a01b0316885260019990990198602097880197909101906146b7565b634e487b7160e01b89526032600452602489fd5b909250614734919350611fd1565b610bc0578387918b386145f5565b61474d919a50611fd1565b600098386145a3565b906020823d602011614782575b816147706020938361201a565b8101031261036f575051614530614515565b3d9150614763565b906020823d6020116147cb575b816147a46020938361201a565b8101031261036f5750916144c3916144bc6147c16144d49561246e565b92945050916144aa565b3d9150614797565b6147ea9150843d8611610c3a57610c2b818361201a565b3861447a565b90966020823d60201161481c575b8161480b6020938361201a565b8101031261036f575051953861443c565b3d91506147fe565b965086614397565b90956020823d602011614858575b816148476020938361201a565b8101031261036f5750519438614374565b3d915061483a565b905161488b919061487a906001600160801b03168761211f565b90516001600160801b031690612156565b93614306565b9350836142c4565b9050926142a3565b60405162461bcd60e51b815260206004820152600d60248201526c14d1d30e88189859081919589d609a1b6044820152606490fd5b93620186a06109d86148e993968361211f565b923861428f565b9150506020813d60201161491e575b8161490c6020938361201a565b8101031261046e57518661263a614255565b3d91506148ff565b6040513d85823e3d90fd5b50505050509050565b3d15614965573d9061494b82613189565b91614959604051938461201a565b82523d6000602084013e565b606090565b6040519061497782611f85565b60038252623f3f3f60e81b6020830152565b908151811015613204570160200190565b60ff1660ff81146121325760010190565b805160408110614a2357508051810190602081818401930312611e26576020810151906001600160401b038211611e26570181603f82011215611e265760208101516149f681613189565b92614a04604051948561201a565b81845260408284010111611e2657612216916040602085019101611e41565b602092908303614b11576000805b60ff81168581109081614af2575b5015614a5357614a4e9061499a565b614a31565b9260ff80941692614a6384613189565b93614a71604051958661201a565b808552614a80601f1991613189565b013687860137825b85811687811080614ad5575b15614aca57614ac59190614abf6001600160f81b0319614ab48388614989565b5116871a9188614989565b5361499a565b614a88565b505094505050905090565b506001600160f81b0319614ae98286614989565b51161515614a94565b6001600160f81b03199150614b079086614989565b5116151538614a3f565b91505061221661496a56fe30a8c4f9ab5af7e1309ca87c32377d1a83366c5990472dbf9d262450eae14e3885b91d472e69b2cfe848ed50eb5d8582ae96c22057b6e46250255dd6f6c35192ae6e0ab3b95f0a53ff9660a390ccedcbbf1f2355dce974a9841af106fddcfabac353b09af857951dccce61b43a5854fc45beceed36c50e5d4cc2e71858a8e0df8be0079c531659141344cd1fd0a4f28419497f9722a3daafe3b4186f6b6457e0ddf252ad1be2c89b69c2b068fc378daa952ba7f163c4a11628f55a4df523b3ef33af5ce86e8438eff54589f85332916444457dfa8685493fbd579b809097026b8d1108e10bcb7c27dddfc02ed9d693a074039d026cf4ea4240b40f7d581ac802a2646970667358221220946f8ce213e92f58f54b1e50ecbf570caf11b6e3324e19fc442f6692231f692c64736f6c63430008120033",
  "linkReferences": {},
  "deployedLinkReferences": {}
}