{
  "_format": "hh-sol-artifact-1",
  "contractName": "SGLLiquidation",
  "sourceName": "contracts/markets/singularity/SGLLiquidation.sol",
  "abi": [
    {
      "anonymous": false,
      "inputs": [
        {
          "indexed": true,
          "internalType": "address",
          "name": "owner",
          "type": "address"
        },
        {
          "indexed": true,
          "internalType": "address",
          "name": "spender",
          "type": "address"
        },
        {
          "indexed": false,
          "internalType": "uint256",
          "name": "value",
          "type": "uint256"
        }
      ],
      "name": "Approval",
      "type": "event"
    },
    {
      "anonymous": false,
      "inputs": [
        {
          "indexed": true,
          "internalType": "address",
          "name": "owner",
          "type": "address"
        },
        {
          "indexed": true,
          "internalType": "address",
          "name": "spender",
          "type": "address"
        },
        {
          "indexed": true,
          "internalType": "uint256",
          "name": "value",
          "type": "uint256"
        }
      ],
      "name": "ApprovalBorrow",
      "type": "event"
    },
    {
      "anonymous": false,
      "inputs": [
        {
          "indexed": true,
          "internalType": "address",
          "name": "newAddress",
          "type": "address"
        }
      ],
      "name": "BidExecutionSwapperUpdated",
      "type": "event"
    },
    {
      "anonymous": false,
      "inputs": [
        {
          "indexed": true,
          "internalType": "address",
          "name": "old",
          "type": "address"
        },
        {
          "indexed": true,
          "internalType": "address",
          "name": "_new",
          "type": "address"
        }
      ],
      "name": "ConservatorUpdated",
      "type": "event"
    },
    {
      "anonymous": false,
      "inputs": [
        {
          "indexed": false,
          "internalType": "uint256",
          "name": "_oldVal",
          "type": "uint256"
        },
        {
          "indexed": false,
          "internalType": "uint256",
          "name": "_newVal",
          "type": "uint256"
        }
      ],
      "name": "ExchangeRateDurationUpdated",
      "type": "event"
    },
    {
      "anonymous": false,
      "inputs": [
        {
          "indexed": true,
          "internalType": "uint256",
          "name": "oldVal",
          "type": "uint256"
        },
        {
          "indexed": true,
          "internalType": "uint256",
          "name": "newVal",
          "type": "uint256"
        }
      ],
      "name": "InterestElasticityUpdated",
      "type": "event"
    },
    {
      "anonymous": false,
      "inputs": [
        {
          "indexed": true,
          "internalType": "address",
          "name": "liquidator",
          "type": "address"
        },
        {
          "indexed": true,
          "internalType": "address[]",
          "name": "users",
          "type": "address[]"
        },
        {
          "indexed": true,
          "internalType": "uint256",
          "name": "liquidatorReward",
          "type": "uint256"
        },
        {
          "indexed": false,
          "internalType": "uint256",
          "name": "protocolReward",
          "type": "uint256"
        },
        {
          "indexed": false,
          "internalType": "uint256",
          "name": "repayedAmount",
          "type": "uint256"
        },
        {
          "indexed": false,
          "internalType": "uint256",
          "name": "collateralShareRemoved",
          "type": "uint256"
        }
      ],
      "name": "Liquidated",
      "type": "event"
    },
    {
      "anonymous": false,
      "inputs": [
        {
          "indexed": true,
          "internalType": "uint256",
          "name": "oldVal",
          "type": "uint256"
        },
        {
          "indexed": true,
          "internalType": "uint256",
          "name": "newVal",
          "type": "uint256"
        }
      ],
      "name": "LiquidationMultiplierUpdated",
      "type": "event"
    },
    {
      "anonymous": false,
      "inputs": [
        {
          "indexed": true,
          "internalType": "uint256",
          "name": "accruedAmount",
          "type": "uint256"
        },
        {
          "indexed": true,
          "internalType": "uint256",
          "name": "feeFraction",
          "type": "uint256"
        },
        {
          "indexed": true,
          "internalType": "uint64",
          "name": "rate",
          "type": "uint64"
        },
        {
          "indexed": false,
          "internalType": "uint256",
          "name": "utilization",
          "type": "uint256"
        }
      ],
      "name": "LogAccrue",
      "type": "event"
    },
    {
      "anonymous": false,
      "inputs": [
        {
          "indexed": true,
          "internalType": "address",
          "name": "from",
          "type": "address"
        },
        {
          "indexed": true,
          "internalType": "address",
          "name": "to",
          "type": "address"
        },
        {
          "indexed": true,
          "internalType": "uint256",
          "name": "share",
          "type": "uint256"
        },
        {
          "indexed": false,
          "internalType": "uint256",
          "name": "fraction",
          "type": "uint256"
        }
      ],
      "name": "LogAddAsset",
      "type": "event"
    },
    {
      "anonymous": false,
      "inputs": [
        {
          "indexed": true,
          "internalType": "address",
          "name": "from",
          "type": "address"
        },
        {
          "indexed": true,
          "internalType": "address",
          "name": "to",
          "type": "address"
        },
        {
          "indexed": true,
          "internalType": "uint256",
          "name": "share",
          "type": "uint256"
        }
      ],
      "name": "LogAddCollateral",
      "type": "event"
    },
    {
      "anonymous": false,
      "inputs": [
        {
          "indexed": true,
          "internalType": "address",
          "name": "from",
          "type": "address"
        },
        {
          "indexed": true,
          "internalType": "address",
          "name": "to",
          "type": "address"
        },
        {
          "indexed": true,
          "internalType": "uint256",
          "name": "amount",
          "type": "uint256"
        },
        {
          "indexed": false,
          "internalType": "uint256",
          "name": "feeAmount",
          "type": "uint256"
        },
        {
          "indexed": false,
          "internalType": "uint256",
          "name": "part",
          "type": "uint256"
        }
      ],
      "name": "LogBorrow",
      "type": "event"
    },
    {
      "anonymous": false,
      "inputs": [
        {
          "indexed": true,
          "internalType": "uint256",
          "name": "_oldVal",
          "type": "uint256"
        },
        {
          "indexed": true,
          "internalType": "uint256",
          "name": "_newVal",
          "type": "uint256"
        }
      ],
      "name": "LogBorrowCapUpdated",
      "type": "event"
    },
    {
      "anonymous": false,
      "inputs": [
        {
          "indexed": true,
          "internalType": "uint256",
          "name": "_oldVal",
          "type": "uint256"
        },
        {
          "indexed": true,
          "internalType": "uint256",
          "name": "_newVal",
          "type": "uint256"
        }
      ],
      "name": "LogBorrowingFee",
      "type": "event"
    },
    {
      "anonymous": false,
      "inputs": [
        {
          "indexed": true,
          "internalType": "uint256",
          "name": "rate",
          "type": "uint256"
        }
      ],
      "name": "LogExchangeRate",
      "type": "event"
    },
    {
      "anonymous": false,
      "inputs": [
        {
          "indexed": true,
          "internalType": "address",
          "name": "from",
          "type": "address"
        },
        {
          "indexed": true,
          "internalType": "address",
          "name": "to",
          "type": "address"
        },
        {
          "indexed": true,
          "internalType": "uint256",
          "name": "share",
          "type": "uint256"
        },
        {
          "indexed": false,
          "internalType": "uint256",
          "name": "fraction",
          "type": "uint256"
        }
      ],
      "name": "LogRemoveAsset",
      "type": "event"
    },
    {
      "anonymous": false,
      "inputs": [
        {
          "indexed": true,
          "internalType": "address",
          "name": "from",
          "type": "address"
        },
        {
          "indexed": true,
          "internalType": "address",
          "name": "to",
          "type": "address"
        },
        {
          "indexed": true,
          "internalType": "uint256",
          "name": "share",
          "type": "uint256"
        }
      ],
      "name": "LogRemoveCollateral",
      "type": "event"
    },
    {
      "anonymous": false,
      "inputs": [
        {
          "indexed": true,
          "internalType": "address",
          "name": "from",
          "type": "address"
        },
        {
          "indexed": true,
          "internalType": "address",
          "name": "to",
          "type": "address"
        },
        {
          "indexed": true,
          "internalType": "uint256",
          "name": "amount",
          "type": "uint256"
        },
        {
          "indexed": false,
          "internalType": "uint256",
          "name": "part",
          "type": "uint256"
        }
      ],
      "name": "LogRepay",
      "type": "event"
    },
    {
      "anonymous": false,
      "inputs": [
        {
          "indexed": true,
          "internalType": "address",
          "name": "feeTo",
          "type": "address"
        },
        {
          "indexed": true,
          "internalType": "uint256",
          "name": "feesEarnedFraction",
          "type": "uint256"
        }
      ],
      "name": "LogWithdrawFees",
      "type": "event"
    },
    {
      "anonymous": false,
      "inputs": [
        {
          "indexed": true,
          "internalType": "uint256",
          "name": "feeShares",
          "type": "uint256"
        },
        {
          "indexed": true,
          "internalType": "uint256",
          "name": "ethAmount",
          "type": "uint256"
        }
      ],
      "name": "LogYieldBoxFeesDeposit",
      "type": "event"
    },
    {
      "anonymous": false,
      "inputs": [
        {
          "indexed": true,
          "internalType": "uint256",
          "name": "oldVal",
          "type": "uint256"
        },
        {
          "indexed": true,
          "internalType": "uint256",
          "name": "newVal",
          "type": "uint256"
        }
      ],
      "name": "LqCollateralizationRateUpdated",
      "type": "event"
    },
    {
      "anonymous": false,
      "inputs": [
        {
          "indexed": true,
          "internalType": "uint256",
          "name": "oldVal",
          "type": "uint256"
        },
        {
          "indexed": true,
          "internalType": "uint256",
          "name": "newVal",
          "type": "uint256"
        }
      ],
      "name": "MaximumInterestPerSecondUpdated",
      "type": "event"
    },
    {
      "anonymous": false,
      "inputs": [
        {
          "indexed": true,
          "internalType": "uint256",
          "name": "oldVal",
          "type": "uint256"
        },
        {
          "indexed": true,
          "internalType": "uint256",
          "name": "newVal",
          "type": "uint256"
        }
      ],
      "name": "MaximumTargetUtilizationUpdated",
      "type": "event"
    },
    {
      "anonymous": false,
      "inputs": [
        {
          "indexed": true,
          "internalType": "uint256",
          "name": "oldVal",
          "type": "uint256"
        },
        {
          "indexed": true,
          "internalType": "uint256",
          "name": "newVal",
          "type": "uint256"
        }
      ],
      "name": "MinimumInterestPerSecondUpdated",
      "type": "event"
    },
    {
      "anonymous": false,
      "inputs": [
        {
          "indexed": true,
          "internalType": "uint256",
          "name": "oldVal",
          "type": "uint256"
        },
        {
          "indexed": true,
          "internalType": "uint256",
          "name": "newVal",
          "type": "uint256"
        }
      ],
      "name": "MinimumTargetUtilizationUpdated",
      "type": "event"
    },
    {
      "anonymous": false,
      "inputs": [],
      "name": "OracleDataUpdated",
      "type": "event"
    },
    {
      "anonymous": false,
      "inputs": [],
      "name": "OracleUpdated",
      "type": "event"
    },
    {
      "anonymous": false,
      "inputs": [
        {
          "indexed": true,
          "internalType": "uint256",
          "name": "oldVal",
          "type": "uint256"
        },
        {
          "indexed": true,
          "internalType": "uint256",
          "name": "newVal",
          "type": "uint256"
        }
      ],
      "name": "OrderBookLiquidationMultiplierUpdated",
      "type": "event"
    },
    {
      "anonymous": false,
      "inputs": [
        {
          "indexed": true,
          "internalType": "address",
          "name": "previousOwner",
          "type": "address"
        },
        {
          "indexed": true,
          "internalType": "address",
          "name": "newOwner",
          "type": "address"
        }
      ],
      "name": "OwnershipTransferred",
      "type": "event"
    },
    {
      "anonymous": false,
      "inputs": [
        {
          "indexed": true,
          "internalType": "enum Market.PauseType",
          "name": "_type",
          "type": "uint8"
        },
        {
          "indexed": true,
          "internalType": "bool",
          "name": "oldState",
          "type": "bool"
        },
        {
          "indexed": true,
          "internalType": "bool",
          "name": "newState",
          "type": "bool"
        }
      ],
      "name": "PausedUpdated",
      "type": "event"
    },
    {
      "anonymous": false,
      "inputs": [
        {
          "indexed": true,
          "internalType": "address",
          "name": "from",
          "type": "address"
        },
        {
          "indexed": true,
          "internalType": "address",
          "name": "to",
          "type": "address"
        },
        {
          "indexed": false,
          "internalType": "uint256",
          "name": "value",
          "type": "uint256"
        }
      ],
      "name": "Transfer",
      "type": "event"
    },
    {
      "anonymous": false,
      "inputs": [
        {
          "indexed": true,
          "internalType": "address",
          "name": "newAddress",
          "type": "address"
        }
      ],
      "name": "UsdoSwapperUpdated",
      "type": "event"
    },
    {
      "inputs": [],
      "name": "DOMAIN_SEPARATOR",
      "outputs": [
        {
          "internalType": "bytes32",
          "name": "",
          "type": "bytes32"
        }
      ],
      "stateMutability": "view",
      "type": "function"
    },
    {
      "inputs": [],
      "name": "accrue",
      "outputs": [],
      "stateMutability": "nonpayable",
      "type": "function"
    },
    {
      "inputs": [],
      "name": "accrueInfo",
      "outputs": [
        {
          "internalType": "uint64",
          "name": "interestPerSecond",
          "type": "uint64"
        },
        {
          "internalType": "uint64",
          "name": "lastAccrued",
          "type": "uint64"
        },
        {
          "internalType": "uint128",
          "name": "feesEarnedFraction",
          "type": "uint128"
        }
      ],
      "stateMutability": "view",
      "type": "function"
    },
    {
      "inputs": [
        {
          "internalType": "address",
          "name": "",
          "type": "address"
        },
        {
          "internalType": "address",
          "name": "",
          "type": "address"
        }
      ],
      "name": "allowance",
      "outputs": [
        {
          "internalType": "uint256",
          "name": "",
          "type": "uint256"
        }
      ],
      "stateMutability": "view",
      "type": "function"
    },
    {
      "inputs": [
        {
          "internalType": "address",
          "name": "",
          "type": "address"
        },
        {
          "internalType": "address",
          "name": "",
          "type": "address"
        }
      ],
      "name": "allowanceBorrow",
      "outputs": [
        {
          "internalType": "uint256",
          "name": "",
          "type": "uint256"
        }
      ],
      "stateMutability": "view",
      "type": "function"
    },
    {
      "inputs": [
        {
          "internalType": "address",
          "name": "spender",
          "type": "address"
        },
        {
          "internalType": "uint256",
          "name": "amount",
          "type": "uint256"
        }
      ],
      "name": "approve",
      "outputs": [
        {
          "internalType": "bool",
          "name": "",
          "type": "bool"
        }
      ],
      "stateMutability": "nonpayable",
      "type": "function"
    },
    {
      "inputs": [
        {
          "internalType": "address",
          "name": "spender",
          "type": "address"
        },
        {
          "internalType": "uint256",
          "name": "amount",
          "type": "uint256"
        }
      ],
      "name": "approveBorrow",
      "outputs": [
        {
          "internalType": "bool",
          "name": "",
          "type": "bool"
        }
      ],
      "stateMutability": "nonpayable",
      "type": "function"
    },
    {
      "inputs": [],
      "name": "asset",
      "outputs": [
        {
          "internalType": "contract IERC20",
          "name": "",
          "type": "address"
        }
      ],
      "stateMutability": "view",
      "type": "function"
    },
    {
      "inputs": [],
      "name": "assetId",
      "outputs": [
        {
          "internalType": "uint256",
          "name": "",
          "type": "uint256"
        }
      ],
      "stateMutability": "view",
      "type": "function"
    },
    {
      "inputs": [
        {
          "internalType": "address",
          "name": "",
          "type": "address"
        }
      ],
      "name": "balanceOf",
      "outputs": [
        {
          "internalType": "uint256",
          "name": "",
          "type": "uint256"
        }
      ],
      "stateMutability": "view",
      "type": "function"
    },
    {
      "inputs": [],
      "name": "borrowOpeningFee",
      "outputs": [
        {
          "internalType": "uint256",
          "name": "",
          "type": "uint256"
        }
      ],
      "stateMutability": "view",
      "type": "function"
    },
    {
      "inputs": [],
      "name": "callerFee",
      "outputs": [
        {
          "internalType": "uint256",
          "name": "",
          "type": "uint256"
        }
      ],
      "stateMutability": "view",
      "type": "function"
    },
    {
      "inputs": [],
      "name": "claimOwnership",
      "outputs": [],
      "stateMutability": "nonpayable",
      "type": "function"
    },
    {
      "inputs": [],
      "name": "collateral",
      "outputs": [
        {
          "internalType": "contract IERC20",
          "name": "",
          "type": "address"
        }
      ],
      "stateMutability": "view",
      "type": "function"
    },
    {
      "inputs": [],
      "name": "collateralId",
      "outputs": [
        {
          "internalType": "uint256",
          "name": "",
          "type": "uint256"
        }
      ],
      "stateMutability": "view",
      "type": "function"
    },
    {
      "inputs": [],
      "name": "collateralizationRate",
      "outputs": [
        {
          "internalType": "uint256",
          "name": "",
          "type": "uint256"
        }
      ],
      "stateMutability": "view",
      "type": "function"
    },
    {
      "inputs": [
        {
          "internalType": "uint256",
          "name": "borrowPart",
          "type": "uint256"
        },
        {
          "internalType": "uint256",
          "name": "collateralPartInAsset",
          "type": "uint256"
        },
        {
          "internalType": "uint256",
          "name": "ratesPrecision",
          "type": "uint256"
        }
      ],
      "name": "computeClosingFactor",
      "outputs": [
        {
          "internalType": "uint256",
          "name": "",
          "type": "uint256"
        }
      ],
      "stateMutability": "view",
      "type": "function"
    },
    {
      "inputs": [
        {
          "internalType": "address",
          "name": "user",
          "type": "address"
        },
        {
          "internalType": "uint256",
          "name": "_exchangeRate",
          "type": "uint256"
        }
      ],
      "name": "computeLiquidatorReward",
      "outputs": [
        {
          "internalType": "uint256",
          "name": "",
          "type": "uint256"
        }
      ],
      "stateMutability": "view",
      "type": "function"
    },
    {
      "inputs": [
        {
          "internalType": "address",
          "name": "user",
          "type": "address"
        },
        {
          "internalType": "uint256",
          "name": "_exchangeRate",
          "type": "uint256"
        }
      ],
      "name": "computeTVLInfo",
      "outputs": [
        {
          "internalType": "uint256",
          "name": "amountToSolvency",
          "type": "uint256"
        },
        {
          "internalType": "uint256",
          "name": "minTVL",
          "type": "uint256"
        },
        {
          "internalType": "uint256",
          "name": "maxTVL",
          "type": "uint256"
        }
      ],
      "stateMutability": "view",
      "type": "function"
    },
    {
      "inputs": [],
      "name": "conservator",
      "outputs": [
        {
          "internalType": "address",
          "name": "",
          "type": "address"
        }
      ],
      "stateMutability": "view",
      "type": "function"
    },
    {
      "inputs": [],
      "name": "decimals",
      "outputs": [
        {
          "internalType": "uint8",
          "name": "",
          "type": "uint8"
        }
      ],
      "stateMutability": "view",
      "type": "function"
    },
    {
      "inputs": [],
      "name": "exchangeRate",
      "outputs": [
        {
          "internalType": "uint256",
          "name": "",
          "type": "uint256"
        }
      ],
      "stateMutability": "view",
      "type": "function"
    },
    {
      "inputs": [],
      "name": "fullUtilizationMinusMax",
      "outputs": [
        {
          "internalType": "uint256",
          "name": "",
          "type": "uint256"
        }
      ],
      "stateMutability": "view",
      "type": "function"
    },
    {
      "inputs": [],
      "name": "getInterestDetails",
      "outputs": [
        {
          "components": [
            {
              "internalType": "uint64",
              "name": "interestPerSecond",
              "type": "uint64"
            },
            {
              "internalType": "uint64",
              "name": "lastAccrued",
              "type": "uint64"
            },
            {
              "internalType": "uint128",
              "name": "feesEarnedFraction",
              "type": "uint128"
            }
          ],
          "internalType": "struct ISingularity.AccrueInfo",
          "name": "_accrueInfo",
          "type": "tuple"
        },
        {
          "internalType": "uint256",
          "name": "utilization",
          "type": "uint256"
        }
      ],
      "stateMutability": "view",
      "type": "function"
    },
    {
      "inputs": [],
      "name": "interestElasticity",
      "outputs": [
        {
          "internalType": "uint256",
          "name": "",
          "type": "uint256"
        }
      ],
      "stateMutability": "view",
      "type": "function"
    },
    {
      "inputs": [
        {
          "internalType": "address[]",
          "name": "users",
          "type": "address[]"
        },
        {
          "internalType": "uint256[]",
          "name": "maxBorrowParts",
          "type": "uint256[]"
        },
        {
          "internalType": "contract IMarketLiquidatorReceiver[]",
          "name": "liquidatorReceivers",
          "type": "address[]"
        },
        {
          "internalType": "bytes[]",
          "name": "liquidatorReceiverDatas",
          "type": "bytes[]"
        }
      ],
      "name": "liquidate",
      "outputs": [],
      "stateMutability": "nonpayable",
      "type": "function"
    },
    {
      "inputs": [
        {
          "internalType": "address",
          "name": "user",
          "type": "address"
        },
        {
          "internalType": "address",
          "name": "receiver",
          "type": "address"
        },
        {
          "internalType": "contract IMarketLiquidatorReceiver",
          "name": "liquidatorReceiver",
          "type": "address"
        },
        {
          "internalType": "bytes",
          "name": "liquidatorReceiverData",
          "type": "bytes"
        }
      ],
      "name": "liquidateBadDebt",
      "outputs": [],
      "stateMutability": "nonpayable",
      "type": "function"
    },
    {
      "inputs": [],
      "name": "liquidationBonusAmount",
      "outputs": [
        {
          "internalType": "uint256",
          "name": "",
          "type": "uint256"
        }
      ],
      "stateMutability": "view",
      "type": "function"
    },
    {
      "inputs": [],
      "name": "liquidationCollateralizationRate",
      "outputs": [
        {
          "internalType": "uint256",
          "name": "",
          "type": "uint256"
        }
      ],
      "stateMutability": "view",
      "type": "function"
    },
    {
      "inputs": [],
      "name": "liquidationMultiplier",
      "outputs": [
        {
          "internalType": "uint256",
          "name": "",
          "type": "uint256"
        }
      ],
      "stateMutability": "view",
      "type": "function"
    },
    {
      "inputs": [],
      "name": "lqCollateralizationRate",
      "outputs": [
        {
          "internalType": "uint256",
          "name": "",
          "type": "uint256"
        }
      ],
      "stateMutability": "view",
      "type": "function"
    },
    {
      "inputs": [],
      "name": "maxLiquidatorReward",
      "outputs": [
        {
          "internalType": "uint256",
          "name": "",
          "type": "uint256"
        }
      ],
      "stateMutability": "view",
      "type": "function"
    },
    {
      "inputs": [],
      "name": "maximumInterestPerSecond",
      "outputs": [
        {
          "internalType": "uint64",
          "name": "",
          "type": "uint64"
        }
      ],
      "stateMutability": "view",
      "type": "function"
    },
    {
      "inputs": [],
      "name": "maximumTargetUtilization",
      "outputs": [
        {
          "internalType": "uint256",
          "name": "",
          "type": "uint256"
        }
      ],
      "stateMutability": "view",
      "type": "function"
    },
    {
      "inputs": [],
      "name": "minLiquidatorReward",
      "outputs": [
        {
          "internalType": "uint256",
          "name": "",
          "type": "uint256"
        }
      ],
      "stateMutability": "view",
      "type": "function"
    },
    {
      "inputs": [],
      "name": "minimumInterestPerSecond",
      "outputs": [
        {
          "internalType": "uint64",
          "name": "",
          "type": "uint64"
        }
      ],
      "stateMutability": "view",
      "type": "function"
    },
    {
      "inputs": [],
      "name": "minimumTargetUtilization",
      "outputs": [
        {
          "internalType": "uint256",
          "name": "",
          "type": "uint256"
        }
      ],
      "stateMutability": "view",
      "type": "function"
    },
    {
      "inputs": [],
      "name": "name",
      "outputs": [
        {
          "internalType": "string",
          "name": "",
          "type": "string"
        }
      ],
      "stateMutability": "view",
      "type": "function"
    },
    {
      "inputs": [
        {
          "internalType": "address",
          "name": "owner",
          "type": "address"
        }
      ],
      "name": "nonces",
      "outputs": [
        {
          "internalType": "uint256",
          "name": "",
          "type": "uint256"
        }
      ],
      "stateMutability": "view",
      "type": "function"
    },
    {
      "inputs": [],
      "name": "oracle",
      "outputs": [
        {
          "internalType": "contract IOracle",
          "name": "",
          "type": "address"
        }
      ],
      "stateMutability": "view",
      "type": "function"
    },
    {
      "inputs": [],
      "name": "oracleData",
      "outputs": [
        {
          "internalType": "bytes",
          "name": "",
          "type": "bytes"
        }
      ],
      "stateMutability": "view",
      "type": "function"
    },
    {
      "inputs": [],
      "name": "owner",
      "outputs": [
        {
          "internalType": "address",
          "name": "",
          "type": "address"
        }
      ],
      "stateMutability": "view",
      "type": "function"
    },
    {
      "inputs": [
        {
          "internalType": "enum Market.PauseType",
          "name": "pauseProp",
          "type": "uint8"
        }
      ],
      "name": "pauseOptions",
      "outputs": [
        {
          "internalType": "bool",
          "name": "pauseStatus",
          "type": "bool"
        }
      ],
      "stateMutability": "view",
      "type": "function"
    },
    {
      "inputs": [],
      "name": "pendingOwner",
      "outputs": [
        {
          "internalType": "address",
          "name": "",
          "type": "address"
        }
      ],
      "stateMutability": "view",
      "type": "function"
    },
    {
      "inputs": [],
      "name": "penrose",
      "outputs": [
        {
          "internalType": "contract IPenrose",
          "name": "",
          "type": "address"
        }
      ],
      "stateMutability": "view",
      "type": "function"
    },
    {
      "inputs": [
        {
          "internalType": "address",
          "name": "owner",
          "type": "address"
        },
        {
          "internalType": "address",
          "name": "spender",
          "type": "address"
        },
        {
          "internalType": "uint256",
          "name": "value",
          "type": "uint256"
        },
        {
          "internalType": "uint256",
          "name": "deadline",
          "type": "uint256"
        },
        {
          "internalType": "uint8",
          "name": "v",
          "type": "uint8"
        },
        {
          "internalType": "bytes32",
          "name": "r",
          "type": "bytes32"
        },
        {
          "internalType": "bytes32",
          "name": "s",
          "type": "bytes32"
        }
      ],
      "name": "permit",
      "outputs": [],
      "stateMutability": "nonpayable",
      "type": "function"
    },
    {
      "inputs": [
        {
          "internalType": "bytes",
          "name": "data",
          "type": "bytes"
        },
        {
          "internalType": "uint16",
          "name": "actionType",
          "type": "uint16"
        }
      ],
      "name": "permitAction",
      "outputs": [],
      "stateMutability": "nonpayable",
      "type": "function"
    },
    {
      "inputs": [
        {
          "internalType": "address",
          "name": "owner",
          "type": "address"
        },
        {
          "internalType": "address",
          "name": "spender",
          "type": "address"
        },
        {
          "internalType": "uint256",
          "name": "value",
          "type": "uint256"
        },
        {
          "internalType": "uint256",
          "name": "deadline",
          "type": "uint256"
        },
        {
          "internalType": "uint8",
          "name": "v",
          "type": "uint8"
        },
        {
          "internalType": "bytes32",
          "name": "r",
          "type": "bytes32"
        },
        {
          "internalType": "bytes32",
          "name": "s",
          "type": "bytes32"
        }
      ],
      "name": "permitBorrow",
      "outputs": [],
      "stateMutability": "nonpayable",
      "type": "function"
    },
    {
      "inputs": [],
      "name": "protocolFee",
      "outputs": [
        {
          "internalType": "uint256",
          "name": "",
          "type": "uint256"
        }
      ],
      "stateMutability": "view",
      "type": "function"
    },
    {
      "inputs": [],
      "name": "rateTimestamp",
      "outputs": [
        {
          "internalType": "uint256",
          "name": "",
          "type": "uint256"
        }
      ],
      "stateMutability": "view",
      "type": "function"
    },
    {
      "inputs": [],
      "name": "rateValidDuration",
      "outputs": [
        {
          "internalType": "uint256",
          "name": "",
          "type": "uint256"
        }
      ],
      "stateMutability": "view",
      "type": "function"
    },
    {
      "inputs": [
        {
          "internalType": "uint256",
          "name": "_borrowOpeningFee",
          "type": "uint256"
        },
        {
          "internalType": "contract IOracle",
          "name": "_oracle",
          "type": "address"
        },
        {
          "internalType": "bytes",
          "name": "_oracleData",
          "type": "bytes"
        },
        {
          "internalType": "address",
          "name": "_conservator",
          "type": "address"
        },
        {
          "internalType": "uint256",
          "name": "_callerFee",
          "type": "uint256"
        },
        {
          "internalType": "uint256",
          "name": "_protocolFee",
          "type": "uint256"
        },
        {
          "internalType": "uint256",
          "name": "_liquidationBonusAmount",
          "type": "uint256"
        },
        {
          "internalType": "uint256",
          "name": "_minLiquidatorReward",
          "type": "uint256"
        },
        {
          "internalType": "uint256",
          "name": "_maxLiquidatorReward",
          "type": "uint256"
        },
        {
          "internalType": "uint256",
          "name": "_totalBorrowCap",
          "type": "uint256"
        },
        {
          "internalType": "uint256",
          "name": "_collateralizationRate",
          "type": "uint256"
        },
        {
          "internalType": "uint256",
          "name": "_liquidationCollateralizationRate",
          "type": "uint256"
        }
      ],
      "name": "setMarketConfig",
      "outputs": [],
      "stateMutability": "nonpayable",
      "type": "function"
    },
    {
      "inputs": [],
      "name": "startingInterestPerSecond",
      "outputs": [
        {
          "internalType": "uint64",
          "name": "",
          "type": "uint64"
        }
      ],
      "stateMutability": "view",
      "type": "function"
    },
    {
      "inputs": [],
      "name": "symbol",
      "outputs": [
        {
          "internalType": "string",
          "name": "",
          "type": "string"
        }
      ],
      "stateMutability": "view",
      "type": "function"
    },
    {
      "inputs": [],
      "name": "totalAsset",
      "outputs": [
        {
          "internalType": "uint128",
          "name": "elastic",
          "type": "uint128"
        },
        {
          "internalType": "uint128",
          "name": "base",
          "type": "uint128"
        }
      ],
      "stateMutability": "view",
      "type": "function"
    },
    {
      "inputs": [],
      "name": "totalBorrow",
      "outputs": [
        {
          "internalType": "uint128",
          "name": "elastic",
          "type": "uint128"
        },
        {
          "internalType": "uint128",
          "name": "base",
          "type": "uint128"
        }
      ],
      "stateMutability": "view",
      "type": "function"
    },
    {
      "inputs": [],
      "name": "totalBorrowCap",
      "outputs": [
        {
          "internalType": "uint256",
          "name": "",
          "type": "uint256"
        }
      ],
      "stateMutability": "view",
      "type": "function"
    },
    {
      "inputs": [],
      "name": "totalCollateralShare",
      "outputs": [
        {
          "internalType": "uint256",
          "name": "",
          "type": "uint256"
        }
      ],
      "stateMutability": "view",
      "type": "function"
    },
    {
      "inputs": [],
      "name": "totalSupply",
      "outputs": [
        {
          "internalType": "uint256",
          "name": "",
          "type": "uint256"
        }
      ],
      "stateMutability": "view",
      "type": "function"
    },
    {
      "inputs": [
        {
          "internalType": "address",
          "name": "to",
          "type": "address"
        },
        {
          "internalType": "uint256",
          "name": "amount",
          "type": "uint256"
        }
      ],
      "name": "transfer",
      "outputs": [
        {
          "internalType": "bool",
          "name": "",
          "type": "bool"
        }
      ],
      "stateMutability": "nonpayable",
      "type": "function"
    },
    {
      "inputs": [
        {
          "internalType": "address",
          "name": "from",
          "type": "address"
        },
        {
          "internalType": "address",
          "name": "to",
          "type": "address"
        },
        {
          "internalType": "uint256",
          "name": "amount",
          "type": "uint256"
        }
      ],
      "name": "transferFrom",
      "outputs": [
        {
          "internalType": "bool",
          "name": "",
          "type": "bool"
        }
      ],
      "stateMutability": "nonpayable",
      "type": "function"
    },
    {
      "inputs": [
        {
          "internalType": "address",
          "name": "newOwner",
          "type": "address"
        },
        {
          "internalType": "bool",
          "name": "direct",
          "type": "bool"
        },
        {
          "internalType": "bool",
          "name": "renounce",
          "type": "bool"
        }
      ],
      "name": "transferOwnership",
      "outputs": [],
      "stateMutability": "nonpayable",
      "type": "function"
    },
    {
      "inputs": [],
      "name": "updateExchangeRate",
      "outputs": [
        {
          "internalType": "bool",
          "name": "updated",
          "type": "bool"
        },
        {
          "internalType": "uint256",
          "name": "rate",
          "type": "uint256"
        }
      ],
      "stateMutability": "nonpayable",
      "type": "function"
    },
    {
      "inputs": [
        {
          "internalType": "enum Market.PauseType",
          "name": "_type",
          "type": "uint8"
        },
        {
          "internalType": "bool",
          "name": "val",
          "type": "bool"
        }
      ],
      "name": "updatePause",
      "outputs": [],
      "stateMutability": "nonpayable",
      "type": "function"
    },
    {
      "inputs": [
        {
          "internalType": "address",
          "name": "",
          "type": "address"
        }
      ],
      "name": "userBorrowPart",
      "outputs": [
        {
          "internalType": "uint256",
          "name": "",
          "type": "uint256"
        }
      ],
      "stateMutability": "view",
      "type": "function"
    },
    {
      "inputs": [
        {
          "internalType": "address",
          "name": "",
          "type": "address"
        }
      ],
      "name": "userCollateralShare",
      "outputs": [
        {
          "internalType": "uint256",
          "name": "",
          "type": "uint256"
        }
      ],
      "stateMutability": "view",
      "type": "function"
    },
    {
      "inputs": [],
      "name": "yieldBox",
      "outputs": [
        {
          "internalType": "contract YieldBox",
          "name": "",
          "type": "address"
        }
      ],
      "stateMutability": "view",
      "type": "function"
    }
  ],
  "bytecode": "0x6101408060405234620001e5576200001781620001ea565b601381526001602082017f546170696f63612053696e67756c617269747900000000000000000000000000815260206040516200005481620001ea565b8381520192603160f81b845251902091208160e052610100918183524660a0526040519160208301907f8b73c3c69bb8fe3d512ecc4cf759cc79239f7b179b0ffacaa9a75d522b39400f92838352604085015260608401524660808401523060a084015260a0835260c083019280841060018060401b03851117620001cf5760408490525190206080523060c052610120908152600580546001600160a01b0319163390811790915560007f8be0079c531659141344cd1fd0a4f28419497f9722a3daafe3b4186f6b6457e08180a362013880601b5562015f90601c55612710601d556032602055612ee06021557f0bd4060688a1800ae986e4840aebc924bb40b5bf44de4583df2257220b54b77c6027557f7d1dc38e60930664f8cbf495da6556ca091d2f92d6550877750c049864b182306028556161a8602955614b569283620002078439608051836139df015260a05183613aaa015260c051836139a9015260e05183613a2e01525182613a5401525181613a0b0152f35b634e487b7160e01b600052604160045260246000fd5b600080fd5b604081019081106001600160401b03821117620001cf5760405256fe608080604052600436101561001357600080fd5b60e0600035811c918262a02a2014612faa5750816302ce728f14612e4757816306fdde0314612d90578163078dfbe714612c8c578163095ea7b314612c665781630996efb7146127eb5781630c4e84f0146126d157816318160ddd146126b05781631c9e379b146126765781631da8bf10146125bf57816323b872dd1461241b578163313ce5671461238b578163331960ff1461236d57816334d441d01461234f5781633644e5151461233457816337b6b7b91461231657816338d52e0f146122ed5781633ba0b9a9146122cf5781633f741adb146122ab57816340626d8b1461228d57816344de240a1461226f578163473e3ce71461225157816348e4163e146122175781634d7f2a34146121f95781634e71e0c81461214b578163529898f21461212d57816352f353eb1461210657816355140232146120df57816355c2ab94146120b557816357935462146120975781635dfe04e8146120385781636c3d8b8f1461200f57816370a0823114611fd55781637277854714611f9f57816374645ff314611f745781637dc0d1d014611f4b5781637ecebe0014611f115781637fa0b84e14611ee0578163821226e814611ec25781638285ef4014611e905781638c5d0ed314611e725781638da5cb5b14611e49578163910dd7c814611bff578163959916dc14611be257816395d89b4114611b2857816399a9702814611af95781639c5d719214611adb5781639e15e89f14611a96578163a28e6b82146115d0578163a9059cbb146114ee578163b0e21e8a146114d0578163b27c0e7414611495578163bb4cfe3b14611477578163ce8849ed1461144e578163d505accf146112c957508063d8dfeb45146112a0578063dd62ed3e1461124f578063de40657714611226578063e0996cb614611208578063e30c3978146111df578063e5644d8b146103cf578063ea64dd56146103b1578063eec0f42e14610393578063f42760b714610375578063f8ba4cff1461035a578063f9557ccb146103245763ffe04c661461030157600080fd5b3461031f57600036600319011261031f576020602a54604051908152f35b600080fd5b3461031f57600036600319011261031f57602554604080516001600160801b038316815260809290921c602083015290f35b0390f35b3461031f57600036600319011261031f576103736142f8565b005b3461031f57600036600319011261031f576020602b54604051908152f35b3461031f57600036600319011261031f576020600c54604051908152f35b3461031f57600036600319011261031f576020601f54604051908152f35b3461031f57608036600319011261031f576004356001600160401b03811161031f576103ff9036906004016132c3565b906024356001600160401b03811161031f5761041f9036906004016132c3565b6044356001600160401b03811161031f5761043e9036906004016132c3565b90916064356001600160401b03811161031f5761045f9036906004016132c3565b9290916004600052600760205260ff604060002054166111a95787156111695780880361112e57610491828914614445565b61049c828514614445565b600f546040805163d6d7d52560e01b815260206004820152979188906001600160a01b0316816000816104d16024820161315e565b03925af1968715610bed576000906000986110fa575b5087816110f0575b50156110e657866011555b6105026142f8565b60009860005b818110610552578a1561051757005b60405162461bcd60e51b815260206004820152601360248201527214d1d30e881b9bc81d5cd95c9cc8199bdd5b99606a1b6044820152606490fd5b61055d81838c6147ff565b356001600160a01b038116810361031f576105788a8261480f565b1561058d575b5061058890613d00565b610508565b9a61059790613d00565b9a6105a38286866147ff565b35906105b083888c6147ff565b35906001600160a01b038216820361031f5789841015610b90578360051b890135601e198a36030181121561031f578901926001600160401b0384351161031f5783353603602085011361031f576106088d8361389c565b918d156110a15760018060a01b03600954166020600c5460018060a01b03841660005260188252606460406000205491604051948593849263442c159960e01b845260048401526024830152600060448301525afa908115610bed578f9060009261106b575b5061067f610684926022549061337e565b6133a7565b9360018060a01b03821660005260176020526106a58560406000205461345b565b80601d548061104c575b5080851115611045575b6001600160a01b038416600090815260176020526040902054908181111561103c575080965b1115611007578f938181111561100057505b6001600160a01b0383166000908152601760205260409020549081811115610ff5575061071e81806133d5565b6001600160a01b03841660009081526017602052604090205561073f613dd3565b60208101516001600160801b0316610fc05750602081965b606461077d61077460018060a01b036009541698600c549461337e565b602254906133a7565b916040519788938492638eb22cdd60e01b845260048401526024830152600060448301525afa938415610bed57600094610f8c575b506001600160a01b0383166000908152601860205260409020548411610f475760018060a01b038316600052601860205260406000206107f38582546133d5565b90558515610f13576014549061083a6001600160801b0361081889821682861661442c565b16926001600160801b0319926001600160801b0316908316841760801c61442c565b60801b161760145560018060a01b0360095416956020600e546064604051809a8193638eb22cdd60e01b835260048301528a6024830152600160448301525afa968715610bed57600097610edb575b50869161096b610972926015805488808211600014610ed1576108ab916133d5565b905b5560018060a01b0386166000526026806020526040600020602890815490816000526020526040600020548a11600014610e9c575060018060a01b0388166000528160205260406000209054600052602052600060408120555b60018060a01b03871660005280602052604060002090602791825490816000526020526040600020548811600014610e68575060018060a01b03881660005260205260406000209054600052602052600060408120555b369060208135910161328c565b90856144a2565b5010610e2357600954600e54604051627eeac760e11b815230600482015260248101919091526001600160a01b039091169390602081604481885afa8015610bed57600090610def575b6025546109d392506001600160801b0316906133d5565b9580871115610ddf576109f56109ed620186a092896133d5565b925b8361337e565b0495610a0187836133d5565b9485610c71575b5086610bf9575b610a2987610a248760018060801b03946133d5565b6133d5565b602554916001600160801b0391610a439116828416613e1f565b6001600160801b0319909216911617602555600d5460095460405163095ea7b360e01b81526001600160a01b039182166004820152600060248201819052909260209284926044928492165af18015610bed5787918691610ba6575b50610a2490610aad936133d5565b6040516000815230907f30a8c4f9ab5af7e1309ca87c32377d1a83366c5990472dbf9d262450eae14e3860203092a460405190610ae9826131fe565b6001825260203681840137815115610b90576001600160a01b03166020820190815260405191518291906000905b808210610b6e575050508190039020604080519384526020840194909452928201526105889392919033907f85b91d472e69b2cfe848ed50eb5d8582ae96c22057b6e46250255dd6f6c3519290606090a49061057e565b82516001600160a01b0316845260209384019390920191600190910190610b17565b634e487b7160e01b600052603260045260246000fd5b9150506020813d602011610be5575b81610bc260209383613250565b8101031261031f57610a2485610aad93610bdc8a94613778565b50935090610a9f565b3d9150610bb5565b6040513d6000823e3d90fd5b610c2e60408860018060a01b0360095416600e5460008451809681958294634d4d7cbd60e11b8452339030906004860161491c565b03925af18015610bed57610c43575b50610a0f565b610c649060403d604011610c6a575b610c5c8183613250565b81019061448c565b50610c3d565b503d610c52565b600d5460405163095ea7b360e01b8152600481019290925260006024830181905260209183916044918391906001600160a01b03165af18015610bed57610da6575b50600d5460095460405163095ea7b360e01b81526001600160a01b03918216600482015260001960248201529160209183916044918391600091165af18015610bed57610d6d575b50600954600e54600a5460408051634d4d7cbd60e11b815293909284926001600160a01b039283169284926000928492610d40928f929091169030906004860161491c565b03925af18015610bed5715610a0857610d679060403d604011610c6a57610c5c8183613250565b50610a08565b6020813d602011610d9e575b81610d8660209383613250565b8101031261031f57610d9790613778565b5038610cfb565b3d9150610d79565b6020813d602011610dd7575b81610dbf60209383613250565b8101031261031f57610dd090613778565b5038610cb3565b3d9150610db2565b50620186a06109f56000926109ef565b506020813d602011610e1b575b81610e0960209383613250565b8101031261031f576109d390516109bc565b3d9150610dfc565b60405162461bcd60e51b815260206004820152601b60248201527f53474c3a20617373657420616d6f756e74206e6f742076616c696400000000006044820152606490fd5b915060018060a01b0388166000526020526040600020906000526020526040600020610e958682546133d5565b905561095e565b905060018060a01b038816600052816020526040600020906000526020526040600020610eca8982546133d5565b9055610907565b50506000906108ad565b909196506020813d602011610f0b575b81610ef860209383613250565b8101031261031f57519590610972610889565b3d9150610eeb565b60405162461bcd60e51b815260206004820152600c60248201526b14d1d30e881cdbdb1d995b9d60a21b6044820152606490fd5b60405162461bcd60e51b815260206004820152601a60248201527f53474c3a206e6f7420656e6f75676820636f6c6c61746572616c0000000000006044820152606490fd5b9093506020813d602011610fb8575b81610fa860209383613250565b8101031261031f575192386107b2565b3d9150610f9b565b8051602091610fef91610fdc906001600160801b03168561337e565b908301516001600160801b0316906133a7565b96610757565b61071e9080926133d5565b90506106f1565b60405162461bcd60e51b815260206004820152600d60248201526c14d1d30e88189859081919589d609a1b6044820152606490fd5b905080966106df565b50836106b9565b90620186a061105e611065938361337e565b04906133e2565b386106af565b9150506020813d602011611099575b8161108760209383613250565b8101031261031f57518e61067f61066e565b3d915061107a565b60405162461bcd60e51b815260206004820152601b60248201527f53474c3a2065786368616e676552617465206e6f742076616c696400000000006044820152606490fd5b60115496506104fa565b905015158a6104ef565b905061111f91975060403d604011611127575b6111178183613250565b810190613785565b96908a6104e7565b503d61110d565b60405162461bcd60e51b8152602060048201526013602482015272084847440d8cadccee8d040dad2e6dac2e8c6d606b1b6044820152606490fd5b60405162461bcd60e51b815260206004820152601860248201527742423a206e6f7468696e6720746f206c697175696461746560401b6044820152606490fd5b60405162461bcd60e51b815260206004820152600e60248201526d13585c9ad95d0e881c185d5cd95960921b6044820152606490fd5b3461031f57600036600319011261031f576006546040516001600160a01b039091168152602090f35b3461031f57600036600319011261031f576020601d54604051908152f35b3461031f57600036600319011261031f576009546040516001600160a01b039091168152602090f35b3461031f57604036600319011261031f57611268612ff6565b61127061300c565b9060018060a01b038091166000526002602052604060002091166000526020526020604060002054604051908152f35b3461031f57600036600319011261031f57600b546040516001600160a01b039091168152602090f35b3461031f576112d7366130a6565b83949697939291924211611409576113b5926113ad9260018060a01b0395868b169788600052600460205260406000209182549261131484613d00565b90556040519160208301937f9cc5629bbe7baa98a89f6f8c2c396b83ab62dbb6cbb12f17f1d6ba7e6f53e2668552600060408501528b60608501528a8d1660808501528d60a085015260c084015281830152815261137181613219565b51902061137c6139a6565b9060405190602082019261190160f01b845260228301526042820152604281526113a581613235565b519020613c7b565b919091613b7c565b16036113c45761037392613d5d565b60405162461bcd60e51b815260206004820152601e60248201527f45524332305065726d69743a20696e76616c6964207369676e617475726500006044820152606490fd5b60405162461bcd60e51b815260206004820152601d60248201527f45524332305065726d69743a206578706972656420646561646c696e650000006044820152606490fd5b3461031f57600036600319011261031f576008546040516001600160a01b039091168152602090f35b3461031f57600036600319011261031f576020601e54604051908152f35b3461031f57600036600319011261031f576060602454604051906001600160401b0380821683528160401c16602083015260801c6040820152f35b3461031f57600036600319011261031f576020601a54604051908152f35b3461031f57604036600319011261031f57611507612ff6565b6024359081158015906115be575b61154b575b6040519182526001600160a01b0316903390600080516020614b0183398151915290602090a3602060405160018152f35b33600052600160205260406000205461156683821015613ad0565b6001600160a01b038216908333839003611583575b50505061151a565b61159291610a24841515613b15565b33600052600160205260406000205560005260406000206115b48382546133e2565b905582808361157b565b50336001600160a01b03821614611515565b3461031f57608036600319011261031f576115e9612ff6565b6115f161300c565b60443591906001600160a01b0390818416840361031f57606435936001600160401b03851161031f5761162b61166a953690600401613079565b919061163c856005541633146132f3565b84600f54169560405163d6d7d52560e01b81526040816020998a60048301528160008160249e8f820161315e565b03925af1908115610bed57600090600092611a74575b508181611a6a575b5015611a6157806011555b15611a125785906116a26142f8565b169283600052601787526116c5604060002054620186a061105e6021548361337e565b878960648960095416936116e2610774600c54926011549061337e565b946040519586948593638eb22cdd60e01b85526004850152830152600060448301525afa908115610bed576000916119e5575b508460005260188852604060002054116119a3576118c26118778560009896956118718a9997966118b49660268e8d9a8b526018815260408b20549661181061175c613dd3565b828e52601784526117eb6117c28f60409020549260008760405161177f816131fe565b82815201528681019360018060801b03928382818094868a8381511615600014611956575050816117b5915b168288511661442c565b168552168287511661442c565b169384905251601480546001600160801b0319166001600160801b039390921692909216179055565b601480546001600160801b031660809290921b6001600160801b031916919091179055565b808c52601782528b604081205582825260408c206027548d5282528b6040812055808c526018825261184860408d20546015546133d5565b6015558b52601881528a6040812055528d60408a20906028548b5252886040812055369161328c565b916144a2565b600d546040805163a9059cbb60e01b8d82019081526001600160a01b039099168e8201908152602081019490945291909816979094859350910190565b03601f198101835282613250565b51925af16118ce6143fc565b8161191e575b50156118dc57005b601c6064926040519262461bcd60e51b845260048401528201527f426f72696e6745524332303a205472616e73666572206661696c6564000000006044820152fd5b80915051828115918215611937575b50509050836118d4565b838092935001031261031f578161194e9101613778565b80828561192d565b6117b59261198f6119858661197c61197282809851168661337e565b82875116906133a7565b9451168461337e565b848c5116906133a7565b10156117ab5761199e90613d00565b6117ab565b606488886040519162461bcd60e51b83528160048401528201527f42696742616e673a2043616e6e6f7420666f726365206c6971756964617465646044820152fd5b90508781813d8311611a0b575b6119fc8183613250565b8101031261031f575189611715565b503d6119f2565b60405162461bcd60e51b8152600481018890526022818a01527f42423a2063757272656e742065786368616e676552617465206e6f742076616c6044820152611a5960f21b6064820152608490fd5b50601154611693565b905015158a611688565b9050611a8f915060403d604011611127576111178183613250565b908a611680565b3461031f57604036600319011261031f57610356611abe611ab5612ff6565b6024359061361e565b604080519384526020840192909252908201529081906060820190565b3461031f57600036600319011261031f576020602c54604051908152f35b3461031f57604036600319011261031f576020611b20611b17612ff6565b6024359061389c565b604051908152f35b3461031f57600036600319011261031f5760008060018060a01b03600b541660405160208101906395d89b4160e01b825260048152611b66816131fe565b51915afa611b726143fc565b9015611bd157611b846103569161498c565b611bbd6023604051809362746d2d60e81b6020830152611bad8151809260208686019101613022565b8101036003810184520182613250565b604051918291602083526020830190613045565b50610356611bdd61494b565b611b84565b3461031f57600036600319011261031f5760208054604051908152f35b3461031f57604036600319011261031f576004356001600160401b03811161031f573660238201121561031f57611c4090369060248160040135910161328c565b9060243561ffff811680910361031f5761010091828480518101031261031f576020611c6d818601613778565b91611c7a60408701613b5a565b90611c8760608801613b5a565b9660808101519660a082015192611ca060c08401613b6e565b91818401519301519360018060a01b03808097169b1698814211611e04579289888d989794611d7b97946113ad978f8e600014611ddd577f9cc5629bbe7baa98a89f6f8c2c396b83ab62dbb6cbb12f17f1d6ba7e6f53e266955b8d60005260048652604060002092835493611d1485613d00565b905560405196870197885260408701528d6060870152608086015260a085015260c0840152818301528152611d4881613219565b519020611d536139a6565b90604051908a82019261190160f01b845260228301526042820152604281526113a581613235565b1603611d99575015611d905761037392613d5d565b61037392613d0f565b6064906040519062461bcd60e51b82526004820152601e60248201527f45524332305065726d69743a20696e76616c6964207369676e617475726500006044820152fd5b7f5c9ba5f0d101616843d7918f48ea857d6da95e04ac6d719e105e50a355e7c5d695611cfa565b60405162461bcd60e51b815260048101899052601d60248201527f45524332305065726d69743a206578706972656420646561646c696e650000006044820152606490fd5b3461031f57600036600319011261031f576005546040516001600160a01b039091168152602090f35b3461031f57600036600319011261031f576020601b54604051908152f35b3461031f57600036600319011261031f57601454604080516001600160801b038316815260809290921c602083015290f35b3461031f57600036600319011261031f576020602e54604051908152f35b3461031f57604036600319011261031f57611f06611efc612ff6565b6024359033613d0f565b602060405160018152f35b3461031f57602036600319011261031f576001600160a01b03611f32612ff6565b1660005260046020526020604060002054604051908152f35b3461031f57600036600319011261031f57600f546040516001600160a01b039091168152602090f35b3461031f57600036600319011261031f57610356604051611bbd81611f988161315e565b0382613250565b3461031f57602036600319011261031f57600435600981101561031f5760ff611fc96020926130f5565b54166040519015158152f35b3461031f57602036600319011261031f576001600160a01b03611ff6612ff6565b1660005260016020526020604060002054604051908152f35b3461031f57600036600319011261031f57600a546040516001600160a01b039091168152602090f35b3461031f57600036600319011261031f57612051613db4565b50608061205c613e38565b509350505050604051916001600160401b0380825116845260208201511660208401526040600180861b039101511660408301526060820152f35b3461031f57600036600319011261031f576020601c54604051908152f35b3461031f57600036600319011261031f5760206001600160401b03602d5460401c16604051908152f35b3461031f57600036600319011261031f5760206001600160401b03602d5416604051908152f35b3461031f57600036600319011261031f5760206001600160401b03602f5416604051908152f35b3461031f57600036600319011261031f576020602154604051908152f35b3461031f57600036600319011261031f576006546001600160a01b0390818116338190036121b557806005549384167f8be0079c531659141344cd1fd0a4f28419497f9722a3daafe3b4186f6b6457e0600080a36001600160a01b03199283161760055516600655005b606460405162461bcd60e51b815260206004820152602060248201527f4f776e61626c653a2063616c6c657220213d2070656e64696e67206f776e65726044820152fd5b3461031f57600036600319011261031f576020602954604051908152f35b3461031f57602036600319011261031f576001600160a01b03612238612ff6565b1660005260176020526020604060002054604051908152f35b3461031f57600036600319011261031f576020601554604051908152f35b3461031f57600036600319011261031f576020600e54604051908152f35b3461031f57600036600319011261031f576020601654604051908152f35b3461031f57606036600319011261031f576020611b20604435602435600435613557565b3461031f57600036600319011261031f576020601154604051908152f35b3461031f57600036600319011261031f57600d546040516001600160a01b039091168152602090f35b3461031f57600036600319011261031f576020601254604051908152f35b3461031f57600036600319011261031f576020611b206139a6565b3461031f57600036600319011261031f576020601954604051908152f35b3461031f57600036600319011261031f576020601354604051908152f35b3461031f57600036600319011261031f5760008060018060a01b03600d5416604051602081019063313ce56760e01b8252600481526123c9816131fe565b51915afa6123d56143fc565b9080612410575b156124065760208180518101031261031f576123fb6020809201613b6e565b60ff60405191168152f35b50602060126123fb565b5060208151146123dc565b3461031f57606036600319011261031f57612434612ff6565b61243c61300c565b6044359081612479575b6040519182526001600160a01b03908116921690600080516020614b0183398151915290602090a3602060405160018152f35b60018060a01b038084168060005260206001815284604060002054936124a182861015613ad0565b8516938484036124b6575b5050505050612446565b83600052600283526040600020336000528352604060002054600019810361252a575b508492612501600080516020614b01833981519152979593600193610a246020991515613b15565b9260005252604060002055600052604060002061251f8582546133e2565b9055918584816124ac565b9091811061257f576020949261250188600080516020614b01833981519152989694612558826001966133d5565b866000526002855260406000203360005285526040600020559350939597505092946124d9565b60405162461bcd60e51b815260048101849052601860248201527745524332303a20616c6c6f77616e636520746f6f206c6f7760401b6044820152606490fd5b3461031f576125cd366130a6565b8394969793929192421161140957612667926113ad9260018060a01b0395868b169788600052600460205260406000209182549261260a84613d00565b90556040519160208301937f5c9ba5f0d101616843d7918f48ea857d6da95e04ac6d719e105e50a355e7c5d68552600060408501528b60608501528a8d1660808501528d60a085015260c084015281830152815261137181613219565b16036113c45761037392613d0f565b3461031f57602036600319011261031f576001600160a01b03612697612ff6565b1660005260186020526020604060002054604051908152f35b3461031f57600036600319011261031f57602060255460801c604051908152f35b3461031f57604036600319011261031f57600435600981101561031f576126f661306a565b6008549091906001600160a01b031633036127af5760ff612716826130f5565b5416151591151591821461277557808260ff612734612763946130f5565b54161515827feeec81de25875ce1725479bb76f720a8defdb43dea041919ae37bb4aae9847c0600080a46130f5565b9060ff80198354169116179055600080f35b60405162461bcd60e51b81526020600482015260126024820152714d61726b65743a2073616d6520737461746560701b6044820152606490fd5b60405162461bcd60e51b815260206004820152601460248201527313585c9ad95d0e881d5b985d5d1a1bdc9a5e995960621b6044820152606490fd5b3461031f5761018036600319011261031f576001600160a01b036024358181169081900361031f576001600160401b039160443583811161031f57612834903690600401613079565b60643580841693929084900361031f57612853836005541633146132f3565b60043595620186a0956128688789111561333e565b6020978089547fc353b09af857951dccce61b43a5854fc45beceed36c50e5d4cc2e71858a8e0df600080a3885580612c27575b5082612ad7575b50505081612a96575b505060843580612a81575b5060a43580612a6c575b5060c43580612a58575b5060e43580612a37575b506101043580612a16575b5061012435806129e4575b50610144359081612972575b505061016435908161290457005b601e5482106129135750601f55005b6084906040519062461bcd60e51b82526004820152603260248201527f4d61726b65743a206c69717569646174696f6e436f6c6c61746572616c697a616044820152711d1a5bdb94985d19481d1bdbc81cdb585b1b60721b6064820152fd5b61297e9082111561333e565b601f54811161299157601e5581806128f6565b60405162461bcd60e51b815260048101839052602560248201527f4d61726b65743a20636f6c6c61746572616c697a6174696f6e5261746520746f6044820152646f2062696760d81b6064820152608490fd5b806016547fae6e0ab3b95f0a53ff9660a390ccedcbbf1f2355dce974a9841af106fddcfaba600080a3601655826128ea565b612a2182821061333e565b612a2e601b54821161333e565b601c55826128df565b612a4282821061333e565b612a4f601c54821061333e565b601b55826128d4565b612a6382821061333e565b601d55826128ca565b612a788282111561333e565b601a55826128c0565b612a8d8282111561333e565b601955826128b6565b816008549182167f5a62d22209e370e38eea92cfddcd228e656e6ec139243392a760a7769f5877fd600080a36001600160a01b0319161760085582806128ab565b8211612c11578190612aea601054613124565b601f8111612bc4575b50600090601f8311600114612b5857600092612b4d575b50508160011b916000199060031b1c1916176010555b7fa6f004921c944d4b8bf6e38462b00f36a58d62495d56b51f571ab78f732c9815600080a18480806128a2565b013590508680612b0a565b909250601060005286600020906000935b88601f1985168610612bae57506001945083601f19811610612b94575b505050811b01601055612b20565b0135600019600384901b60f8161c19169055868080612b86565b8282013584559485019460019093019201612b69565b909150601060005286600020601f840160051c8101888510612c0a575b90601f8594930160051c01905b818110612bfb5750612af3565b60008155849350600101612bee565b5080612be1565b634e487b7160e01b600052604160045260246000fd5b600f80546001600160a01b0319169190911790557f0b2d6eb667d0522c3eb86e4288afecae6c11591ffd1345d4d12407e0598bca9b600080a18761289b565b3461031f57604036600319011261031f57611f06612c82612ff6565b6024359033613d5d565b3461031f57606036600319011261031f57612ca5612ff6565b612cad61306a565b60443590811515820361031f5760018060a01b03928391612cd3836005541633146132f3565b15612d77571690811590811591612d6f575b5015612d3257806005549283167f8be0079c531659141344cd1fd0a4f28419497f9722a3daafe3b4186f6b6457e0600080a36001600160a01b031991821617600555600680549091169055005b60405162461bcd60e51b81526020600482015260156024820152744f776e61626c653a207a65726f206164647265737360581b6044820152606490fd5b905083612ce5565b9150501660018060a01b03196006541617600655600080f35b3461031f57600036600319011261031f5760008060018060a01b03600b541660405160208101906306fdde0360e01b825260048152612dce816131fe565b51915afa612dda6143fc565b9015612e3657612dec6103569161498c565b611bbd6034604051809373546170696f63612053696e67756c61726974792d60601b6020830152612e268151809260208686019101613022565b8101036014810184520182613250565b50610356612e4261494b565b612dec565b3461031f57600036600319011261031f57600f546040805163d6d7d52560e01b8152602060048201529182906001600160a01b031681600081612e8c6024820161315e565b03925af18015610bed57600091600091612f89575b50908015612f2b578115612eef5781604092601155807f9f9192b5edb17356c524e08d9e025c8e2f6307e6ea52fb7968faa3081f51c3c8600080a25b42601355825191151582526020820152f35b60405162461bcd60e51b81526020600482015260146024820152734d61726b65743a20696e76616c6964207261746560601b6044820152606490fd5b9050612f3c601354601254906133e2565b4211612f4d57604090601154612edd565b60405162461bcd60e51b815260206004820152601460248201527313585c9ad95d0e881c985d19481d1bdbc81bdb1960621b6044820152606490fd5b9050612fa4915060403d604011611127576111178183613250565b82612ea1565b3461031f57604036600319011261031f57602090612fc6612ff6565b612fce61300c565b9060018060a01b03809116600052600384526040600020911660005282526040600020548152f35b600435906001600160a01b038216820361031f57565b602435906001600160a01b038216820361031f57565b60005b8381106130355750506000910152565b8181015183820152602001613025565b9060209161305e81518092818552858086019101613022565b601f01601f1916010190565b60243590811515820361031f57565b9181601f8401121561031f578235916001600160401b03831161031f576020838186019501011161031f57565b60e090600319011261031f576001600160a01b0390600435828116810361031f5791602435908116810361031f5790604435906064359060843560ff8116810361031f579060a4359060c43590565b600981101561310e576000526007602052604060002090565b634e487b7160e01b600052602160045260246000fd5b90600182811c92168015613154575b602083101461313e57565b634e487b7160e01b600052602260045260246000fd5b91607f1691613133565b6010546000929161316e82613124565b9081815260019283811690816000146131c8575060011461318e57505050565b9092935060106000526020928360002092846000945b8386106131b45750505050010190565b8054858701830152940193859082016131a4565b91935050602093945060ff191683830152151560051b010190565b606081019081106001600160401b03821117612c1157604052565b604081019081106001600160401b03821117612c1157604052565b61010081019081106001600160401b03821117612c1157604052565b608081019081106001600160401b03821117612c1157604052565b90601f801991011681019081106001600160401b03821117612c1157604052565b6001600160401b038111612c1157601f01601f191660200190565b92919261329882613271565b916132a66040519384613250565b82948184528183011161031f578281602093846000960137010152565b9181601f8401121561031f578235916001600160401b03831161031f576020808501948460051b01011161031f57565b156132fa57565b606460405162461bcd60e51b815260206004820152602060248201527f4f776e61626c653a2063616c6c6572206973206e6f7420746865206f776e65726044820152fd5b1561334557565b60405162461bcd60e51b815260206004820152601160248201527013585c9ad95d0e881b9bdd081d985b1a59607a1b6044820152606490fd5b8181029291811591840414171561339157565b634e487b7160e01b600052601160045260246000fd5b81156133b1570490565b634e487b7160e01b600052601260045260246000fd5b604d811161339157600a0a90565b9190820391821161339157565b9190820180921161339157565b8181039291600013801582851316918412161761339157565b906509184e72a0009182810292818405149015171561339157565b90670de0b6b3a76400009182810292818405149015171561339157565b81156133b157600160ff1b8114600019831416613391570590565b60145461349691613485919061347b906001600160801b0383169061337e565b9060801c906133a7565b91620186a0918291601f549061337e565b0480831061354f576134a890836133d5565b601e546021548301908184116133915783916134c39161337e565b049182810390600080941281831281169183139015161761353b57906134f46134ee6134f993613408565b91613423565b613440565b908082121561353457600160ff1b82146135205703905b80821161351b575090565b905090565b634e487b7160e01b81526011600452602490fd5b5090613510565b634e487b7160e01b83526011600452602483fd5b505050600090565b601454919291613596916135879161357d9161347b906001600160801b0383169061337e565b93601f549061337e565b613590836133c7565b906133a7565b9081831061354f576134f46134ee6135f06135b46135f595876133d5565b936135eb6135e56135dc601e546135d66135cd866133c7565b602154906133e2565b9061337e565b613590846133c7565b916133c7565b6133ef565b613408565b600081121561361857600160ff1b8114613391576000039080821161351b575090565b90613510565b9160018060a01b03809316916000938385526020601781526040918287205490811561376b5787838551613651816131fe565b828152015261365e613e38565b50505050509190506136718615156137a2565b6009541683600c54898b52601882526064878c2054918851948593849263442c159960e01b8452600484015260248301528d60448301525afa90811561376157899161372e575b509161370e61372297989994926136e98861067f6136e0601898620186a0602254049061337e565b601e549061337e565b815190936001600160801b039186916137049184169061337e565b92015116906133a7565b81811061372657035b9783525220546137ee565b9091565b505082613717565b90508381813d831161375a575b6137458183613250565b81010312613756575161370e6136b8565b8880fd5b503d61373b565b85513d8b823e3d90fd5b5086955085949350505050565b5190811515820361031f57565b919082604091031261031f57602061379c83613778565b92015190565b156137a957565b60405162461bcd60e51b815260206004820152601e60248201527f4d61726b65743a2065786368616e676552617465206e6f742076616c696400006044820152606490fd5b6137f98215156137a2565b602060018060a01b0360095416916064600c54604051948593849263442c159960e01b845260048401526024830152600060448301525afa908115610bed57600091613866575b509061067f613852926022549061337e565b620186a0613862601e548361337e565b0491565b906020823d8211613894575b8161387f60209383613250565b8101031261389157505161067f613840565b80fd5b3d9150613872565b6001600160a01b031660008181526018602052604081205490926138bf916137ee565b9183526017602052604083205480156139a05781156139a0578181106139a0578281101561399657601454613908918391610a249161347b906001600160801b0383169061337e565b90620186a092838302928084048514901517156139825761392d9291613590916133d5565b91601b5491601c549361394085856133ef565b80820291848212600160ff1b82141661398257818305149015171561353b5705818482019485129112908015821691151617613520575080821261351b575090565b634e487b7160e01b85526011600452602485fd5b50505050601b5490565b50505090565b307f00000000000000000000000000000000000000000000000000000000000000006001600160a01b03161480613aa7575b15613a01577f000000000000000000000000000000000000000000000000000000000000000090565b60405160208101907f000000000000000000000000000000000000000000000000000000000000000082527f000000000000000000000000000000000000000000000000000000000000000060408201527f000000000000000000000000000000000000000000000000000000000000000060608201524660808201523060a082015260a0815260c081018181106001600160401b03821117612c115760405251902090565b507f000000000000000000000000000000000000000000000000000000000000000046146139d8565b15613ad757565b60405162461bcd60e51b815260206004820152601660248201527545524332303a2062616c616e636520746f6f206c6f7760501b6044820152606490fd5b15613b1c57565b60405162461bcd60e51b815260206004820152601660248201527545524332303a206e6f207a65726f206164647265737360501b6044820152606490fd5b51906001600160a01b038216820361031f57565b519060ff8216820361031f57565b600581101561310e5780613b8d5750565b60018103613bd55760405162461bcd60e51b815260206004820152601860248201527745434453413a20696e76616c6964207369676e617475726560401b6044820152606490fd5b60028103613c225760405162461bcd60e51b815260206004820152601f60248201527f45434453413a20696e76616c6964207369676e6174757265206c656e677468006044820152606490fd5b600314613c2b57565b60405162461bcd60e51b815260206004820152602260248201527f45434453413a20696e76616c6964207369676e6174757265202773272076616c604482015261756560f01b6064820152608490fd5b9291906fa2a8918ca85bafe22016d0b997e4df60600160ff1b038311613cf45791608094939160ff602094604051948552168484015260408301526060820152600093849182805260015afa15613ce75781516001600160a01b03811615613ce1579190565b50600190565b50604051903d90823e3d90fd5b50505050600090600390565b60001981146133915760010190565b7fe50de2333c10a9502fcb1d8ae13a51bbf423153dfc63c2b8997665b32154afc360018060a01b038092169160009083825260036020526040822094169384825260205284604082205580a4565b909160207f8c5be1e5ebec7d5bd14f71427d1e84f3dd0314c0f7b2291e5b200ac8c7c3b9259160018060a01b03809416938460005260028352604060002095169485600052825280604060002055604051908152a3565b60405190613dc1826131e3565b60006040838281528260208201520152565b60405190613de0826131fe565b6014546001600160801b038116835260801c6020830152565b60405190613e06826131fe565b6025546001600160801b038116835260801c6020830152565b6001600160801b03918216908216019190821161339157565b613e40613db4565b5060006020604051613e51816131fe565b828152015260006020604051613e66816131fe565b828152015260405190613e78826131e3565b602454916001600160401b038316815260208101926001600160401b038160401c16845260801c60408201528092613eae613dd3565b92613eb7613df9565b92600060018060a01b0360095416600e549460018060801b038751166040519063442c159960e01b8252876004830152602482015260006044820152602081606481865afa8015610bed576000906142c4575b8951613f2092506001600160801b0316906133e2565b8061428f575060005b613f3e6001600160401b0382935116426133d5565b948515614265575050426001600160401b031660208a8101919091528801516001600160801b03161561421b57506020670de0b6b3a7640000613fa085613f9b8c6001600160401b038d60018060801b039051169151169061337e565b61337e565b895191900496906001600160801b0390613fbf90828a16908316613e1f565b168952875160405163442c159960e01b815260048101929092526001600160801b031660248201526000604482015291829060649082905afa8015610bed576000906141e7575b875161401c92506001600160801b0316906133e2565b9261404a8461067f620186a0614034601a548a61337e565b60208c01516001600160801b031691900461337e565b6040890180519195916001600160801b03808816929161406d9084908316613e1f565b16905260208801805190916001600160801b039161408d91908316613e1f565b169052806141b2575060005b602a549093848281101561412d576140b190836133d5565b90670de0b6b3a7640000820291808304670de0b6b3a764000014901517156133915761067f6141056140ff6140f16001600160401b039661410f966133a7565b93613f9b602e54958061337e565b836133e2565b91848d511661337e565b168089526001600160401b03602d54168091106141295750565b8852565b909150602b5480821161413f57505050565b614148916133d5565b670de0b6b3a7640000810290808204670de0b6b3a76400001490151715613391576001600160401b039161067f61418b6140ff6140f161419495602c54906133a7565b848d511661337e565b81602d5460401c168082116141aa575b50168852565b9050386141a4565b87516001600160801b0316670de0b6b3a7640000818102929180840490911490151715613391576141e2916133a7565b614099565b506020813d602011614213575b8161420160209383613250565b8101031261031f5761401c9051614006565b3d91506141f4565b9697939450509350506001600160401b038151166001600160401b03602f5416809103614259575b50939261424e613df9565b926000926000929190565b81526001925038614243565b975098505050505092505091614279613dd3565b91614282613df9565b9160009160009190600090565b88516001600160801b0316670de0b6b3a7640000818102929180840490911490151715613391576142bf916133a7565b613f29565b506020813d6020116142f0575b816142de60209383613250565b8101031261031f57613f209051613f0a565b3d91506142d1565b6143b36040602080614308613e38565b93999593909290156143c3575050506001600160401b03602f54166000807f33af5ce86e8438eff54589f85332916444457dfa8685493fbd579b809097026b878a51838152a45b80518482015196909101516001600160801b0319608091821b81166001600160401b0390931667ffffffffffffffff60401b60409990991b9890981697909717919091176024558151919093015190921b84166001600160801b0392831617601455565b83511692015160801b1617602555565b7f33af5ce86e8438eff54589f85332916444457dfa8685493fbd579b809097026b876001600160401b03865116948b51908152a461434f565b3d15614427573d9061440d82613271565b9161441b6040519384613250565b82523d6000602084013e565b606090565b6001600160801b03918216908216039190821161339157565b1561444c57565b60405162461bcd60e51b8152602060048201526018602482015277084d2ce84c2dcce7440d8cadccee8d040dad2e6dac2e8c6d60431b6044820152606490fd5b919082604091031261031f576020825192015190565b91909160018060a01b0392836009541690600c5460409485519063442c159960e01b82526004928084840152602496878401526000958660448501526020958685606481855afa9485156147f557918b8b928a9485986147b7575b509060a4911694835194859384926311a5cc7760e31b84528b8401528d30908401528760448401528960648401528160848401525af180156147ad57614791575b5088600d5416908851926370a0823160e01b94858552308786015287858b81875afa9485156147875789888d948f948c97958f95859b61473f575b50906145ba9291600b54169751998a9889978896635cd3dc1560e01b885233908801528601526044850152606484015260a0608484015260a4830190613045565b03925af18015614735576146fd575b508388600d54169287895180958193825230888301525afa80156146f35785906146be575b6145f892506133d5565b95861561467e5790606483926009541691600e54928989519889958694638eb22cdd60e01b86528501528301528660448301525afa93841561467357508193614642575b50505091565b9091809350813d831161466c575b61465a8183613250565b8101031261389157505138808061463c565b503d614650565b51913d9150823e3d90fd5b50818460649387519362461bcd60e51b85528401528201527f53474c3a206f6e436f6c6c61746572616c5265636569766572206661696c65646044820152fd5b50908381813d83116146ec575b6146d58183613250565b810103126146e857906145f891516145ee565b8480fd5b503d6146cb565b87513d87823e3d90fd5b8481813d831161472e575b6147128183613250565b8101031261472a5761472390613778565b50386145c9565b8580fd5b503d614708565b88513d88823e3d90fd5b96999a50509550959250505081813d8311614780575b61475f8183613250565b8101031261375657928989886145ba8f9897968f968d98519a909192614579565b503d614755565b8b513d8b823e3d90fd5b6147a790893d8b11610c6a57610c5c8183613250565b5061453e565b89513d89823e3d90fd5b935096505091508681813d83116147ee575b6147d38183613250565b810103126147ea57519387918a918c9060a46144fd565b8780fd5b503d6147c9565b8a513d8a823e3d90fd5b9190811015610b905760051b0190565b919060018060a01b0380600094168452602060178152604085205490811561491257601881526040862054801561490b5781614849613dd3565b9460095416916064600c54604051948593849263442c159960e01b8452600484015260248301528b60448301525afa9687156148ff5780976148c9575b50506137046148ae6148a56148c4969798620186a0602254049061337e565b601f549061337e565b95613f9b60018060801b0394858751169061337e565b111590565b9096508187813d83116148f8575b6148e18183613250565b8101031261389157509451946137046148ae614886565b503d6148d7565b604051903d90823e3d90fd5b5050505050565b5060019450505050565b9081526001600160a01b0391821660208201529116604082015260006060820152608081019190915260a00190565b60405190614958826131fe565b60038252623f3f3f60e81b6020830152565b908151811015610b90570160200190565b60ff1660ff81146133915760010190565b805160408110614a075750805181019060208181840193031261031f576020810151906001600160401b03821161031f570181603f8201121561031f5760208101516149d781613271565b926149e56040519485613250565b8184526040828401011161031f57614a04916040602085019101613022565b90565b602092908303614af5576000805b60ff81168581109081614ad6575b5015614a3757614a329061497b565b614a15565b9260ff80941692614a4784613271565b93614a556040519586613250565b808552614a64601f1991613271565b013687860137825b85811687811080614ab9575b15614aae57614aa99190614aa36001600160f81b0319614a98838861496a565b5116871a918861496a565b5361497b565b614a6c565b505094505050905090565b506001600160f81b0319614acd828661496a565b51161515614a78565b6001600160f81b03199150614aeb908661496a565b5116151538614a23565b915050614a0461494b56feddf252ad1be2c89b69c2b068fc378daa952ba7f163c4a11628f55a4df523b3efa26469706673582212207b12888fbe7633bd2c9a1e7f4f95574950e6de79e28d8cc01460eab816d1c2f064736f6c63430008120033",
  "linkReferences": {},
  "deployedLinkReferences": {}
}