{
  "_format": "hh-sol-artifact-1",
  "contractName": "SGLLendingCommon",
  "sourceName": "contracts/markets/singularity/SGLLendingCommon.sol",
  "abi": [
    {
      "anonymous": false,
      "inputs": [
        {
          "indexed": true,
          "internalType": "address",
          "name": "owner",
          "type": "address"
        },
        {
          "indexed": true,
          "internalType": "address",
          "name": "spender",
          "type": "address"
        },
        {
          "indexed": false,
          "internalType": "uint256",
          "name": "value",
          "type": "uint256"
        }
      ],
      "name": "Approval",
      "type": "event"
    },
    {
      "anonymous": false,
      "inputs": [
        {
          "indexed": true,
          "internalType": "address",
          "name": "owner",
          "type": "address"
        },
        {
          "indexed": true,
          "internalType": "address",
          "name": "spender",
          "type": "address"
        },
        {
          "indexed": true,
          "internalType": "uint256",
          "name": "value",
          "type": "uint256"
        }
      ],
      "name": "ApprovalBorrow",
      "type": "event"
    },
    {
      "anonymous": false,
      "inputs": [
        {
          "indexed": true,
          "internalType": "address",
          "name": "newAddress",
          "type": "address"
        }
      ],
      "name": "BidExecutionSwapperUpdated",
      "type": "event"
    },
    {
      "anonymous": false,
      "inputs": [
        {
          "indexed": true,
          "internalType": "address",
          "name": "old",
          "type": "address"
        },
        {
          "indexed": true,
          "internalType": "address",
          "name": "_new",
          "type": "address"
        }
      ],
      "name": "ConservatorUpdated",
      "type": "event"
    },
    {
      "anonymous": false,
      "inputs": [
        {
          "indexed": false,
          "internalType": "uint256",
          "name": "_oldVal",
          "type": "uint256"
        },
        {
          "indexed": false,
          "internalType": "uint256",
          "name": "_newVal",
          "type": "uint256"
        }
      ],
      "name": "ExchangeRateDurationUpdated",
      "type": "event"
    },
    {
      "anonymous": false,
      "inputs": [
        {
          "indexed": true,
          "internalType": "uint256",
          "name": "oldVal",
          "type": "uint256"
        },
        {
          "indexed": true,
          "internalType": "uint256",
          "name": "newVal",
          "type": "uint256"
        }
      ],
      "name": "InterestElasticityUpdated",
      "type": "event"
    },
    {
      "anonymous": false,
      "inputs": [
        {
          "indexed": true,
          "internalType": "address",
          "name": "liquidator",
          "type": "address"
        },
        {
          "indexed": true,
          "internalType": "address[]",
          "name": "users",
          "type": "address[]"
        },
        {
          "indexed": true,
          "internalType": "uint256",
          "name": "liquidatorReward",
          "type": "uint256"
        },
        {
          "indexed": false,
          "internalType": "uint256",
          "name": "protocolReward",
          "type": "uint256"
        },
        {
          "indexed": false,
          "internalType": "uint256",
          "name": "repayedAmount",
          "type": "uint256"
        },
        {
          "indexed": false,
          "internalType": "uint256",
          "name": "collateralShareRemoved",
          "type": "uint256"
        }
      ],
      "name": "Liquidated",
      "type": "event"
    },
    {
      "anonymous": false,
      "inputs": [
        {
          "indexed": true,
          "internalType": "uint256",
          "name": "oldVal",
          "type": "uint256"
        },
        {
          "indexed": true,
          "internalType": "uint256",
          "name": "newVal",
          "type": "uint256"
        }
      ],
      "name": "LiquidationMultiplierUpdated",
      "type": "event"
    },
    {
      "anonymous": false,
      "inputs": [
        {
          "indexed": true,
          "internalType": "uint256",
          "name": "accruedAmount",
          "type": "uint256"
        },
        {
          "indexed": true,
          "internalType": "uint256",
          "name": "feeFraction",
          "type": "uint256"
        },
        {
          "indexed": true,
          "internalType": "uint64",
          "name": "rate",
          "type": "uint64"
        },
        {
          "indexed": false,
          "internalType": "uint256",
          "name": "utilization",
          "type": "uint256"
        }
      ],
      "name": "LogAccrue",
      "type": "event"
    },
    {
      "anonymous": false,
      "inputs": [
        {
          "indexed": true,
          "internalType": "address",
          "name": "from",
          "type": "address"
        },
        {
          "indexed": true,
          "internalType": "address",
          "name": "to",
          "type": "address"
        },
        {
          "indexed": true,
          "internalType": "uint256",
          "name": "share",
          "type": "uint256"
        },
        {
          "indexed": false,
          "internalType": "uint256",
          "name": "fraction",
          "type": "uint256"
        }
      ],
      "name": "LogAddAsset",
      "type": "event"
    },
    {
      "anonymous": false,
      "inputs": [
        {
          "indexed": true,
          "internalType": "address",
          "name": "from",
          "type": "address"
        },
        {
          "indexed": true,
          "internalType": "address",
          "name": "to",
          "type": "address"
        },
        {
          "indexed": true,
          "internalType": "uint256",
          "name": "share",
          "type": "uint256"
        }
      ],
      "name": "LogAddCollateral",
      "type": "event"
    },
    {
      "anonymous": false,
      "inputs": [
        {
          "indexed": true,
          "internalType": "address",
          "name": "from",
          "type": "address"
        },
        {
          "indexed": true,
          "internalType": "address",
          "name": "to",
          "type": "address"
        },
        {
          "indexed": true,
          "internalType": "uint256",
          "name": "amount",
          "type": "uint256"
        },
        {
          "indexed": false,
          "internalType": "uint256",
          "name": "feeAmount",
          "type": "uint256"
        },
        {
          "indexed": false,
          "internalType": "uint256",
          "name": "part",
          "type": "uint256"
        }
      ],
      "name": "LogBorrow",
      "type": "event"
    },
    {
      "anonymous": false,
      "inputs": [
        {
          "indexed": true,
          "internalType": "uint256",
          "name": "_oldVal",
          "type": "uint256"
        },
        {
          "indexed": true,
          "internalType": "uint256",
          "name": "_newVal",
          "type": "uint256"
        }
      ],
      "name": "LogBorrowCapUpdated",
      "type": "event"
    },
    {
      "anonymous": false,
      "inputs": [
        {
          "indexed": true,
          "internalType": "uint256",
          "name": "_oldVal",
          "type": "uint256"
        },
        {
          "indexed": true,
          "internalType": "uint256",
          "name": "_newVal",
          "type": "uint256"
        }
      ],
      "name": "LogBorrowingFee",
      "type": "event"
    },
    {
      "anonymous": false,
      "inputs": [
        {
          "indexed": true,
          "internalType": "uint256",
          "name": "rate",
          "type": "uint256"
        }
      ],
      "name": "LogExchangeRate",
      "type": "event"
    },
    {
      "anonymous": false,
      "inputs": [
        {
          "indexed": true,
          "internalType": "address",
          "name": "from",
          "type": "address"
        },
        {
          "indexed": true,
          "internalType": "address",
          "name": "to",
          "type": "address"
        },
        {
          "indexed": true,
          "internalType": "uint256",
          "name": "share",
          "type": "uint256"
        },
        {
          "indexed": false,
          "internalType": "uint256",
          "name": "fraction",
          "type": "uint256"
        }
      ],
      "name": "LogRemoveAsset",
      "type": "event"
    },
    {
      "anonymous": false,
      "inputs": [
        {
          "indexed": true,
          "internalType": "address",
          "name": "from",
          "type": "address"
        },
        {
          "indexed": true,
          "internalType": "address",
          "name": "to",
          "type": "address"
        },
        {
          "indexed": true,
          "internalType": "uint256",
          "name": "share",
          "type": "uint256"
        }
      ],
      "name": "LogRemoveCollateral",
      "type": "event"
    },
    {
      "anonymous": false,
      "inputs": [
        {
          "indexed": true,
          "internalType": "address",
          "name": "from",
          "type": "address"
        },
        {
          "indexed": true,
          "internalType": "address",
          "name": "to",
          "type": "address"
        },
        {
          "indexed": true,
          "internalType": "uint256",
          "name": "amount",
          "type": "uint256"
        },
        {
          "indexed": false,
          "internalType": "uint256",
          "name": "part",
          "type": "uint256"
        }
      ],
      "name": "LogRepay",
      "type": "event"
    },
    {
      "anonymous": false,
      "inputs": [
        {
          "indexed": true,
          "internalType": "address",
          "name": "feeTo",
          "type": "address"
        },
        {
          "indexed": true,
          "internalType": "uint256",
          "name": "feesEarnedFraction",
          "type": "uint256"
        }
      ],
      "name": "LogWithdrawFees",
      "type": "event"
    },
    {
      "anonymous": false,
      "inputs": [
        {
          "indexed": true,
          "internalType": "uint256",
          "name": "feeShares",
          "type": "uint256"
        },
        {
          "indexed": true,
          "internalType": "uint256",
          "name": "ethAmount",
          "type": "uint256"
        }
      ],
      "name": "LogYieldBoxFeesDeposit",
      "type": "event"
    },
    {
      "anonymous": false,
      "inputs": [
        {
          "indexed": true,
          "internalType": "uint256",
          "name": "oldVal",
          "type": "uint256"
        },
        {
          "indexed": true,
          "internalType": "uint256",
          "name": "newVal",
          "type": "uint256"
        }
      ],
      "name": "LqCollateralizationRateUpdated",
      "type": "event"
    },
    {
      "anonymous": false,
      "inputs": [
        {
          "indexed": true,
          "internalType": "uint256",
          "name": "oldVal",
          "type": "uint256"
        },
        {
          "indexed": true,
          "internalType": "uint256",
          "name": "newVal",
          "type": "uint256"
        }
      ],
      "name": "MaximumInterestPerSecondUpdated",
      "type": "event"
    },
    {
      "anonymous": false,
      "inputs": [
        {
          "indexed": true,
          "internalType": "uint256",
          "name": "oldVal",
          "type": "uint256"
        },
        {
          "indexed": true,
          "internalType": "uint256",
          "name": "newVal",
          "type": "uint256"
        }
      ],
      "name": "MaximumTargetUtilizationUpdated",
      "type": "event"
    },
    {
      "anonymous": false,
      "inputs": [
        {
          "indexed": true,
          "internalType": "uint256",
          "name": "oldVal",
          "type": "uint256"
        },
        {
          "indexed": true,
          "internalType": "uint256",
          "name": "newVal",
          "type": "uint256"
        }
      ],
      "name": "MinimumInterestPerSecondUpdated",
      "type": "event"
    },
    {
      "anonymous": false,
      "inputs": [
        {
          "indexed": true,
          "internalType": "uint256",
          "name": "oldVal",
          "type": "uint256"
        },
        {
          "indexed": true,
          "internalType": "uint256",
          "name": "newVal",
          "type": "uint256"
        }
      ],
      "name": "MinimumTargetUtilizationUpdated",
      "type": "event"
    },
    {
      "anonymous": false,
      "inputs": [],
      "name": "OracleDataUpdated",
      "type": "event"
    },
    {
      "anonymous": false,
      "inputs": [],
      "name": "OracleUpdated",
      "type": "event"
    },
    {
      "anonymous": false,
      "inputs": [
        {
          "indexed": true,
          "internalType": "uint256",
          "name": "oldVal",
          "type": "uint256"
        },
        {
          "indexed": true,
          "internalType": "uint256",
          "name": "newVal",
          "type": "uint256"
        }
      ],
      "name": "OrderBookLiquidationMultiplierUpdated",
      "type": "event"
    },
    {
      "anonymous": false,
      "inputs": [
        {
          "indexed": true,
          "internalType": "address",
          "name": "previousOwner",
          "type": "address"
        },
        {
          "indexed": true,
          "internalType": "address",
          "name": "newOwner",
          "type": "address"
        }
      ],
      "name": "OwnershipTransferred",
      "type": "event"
    },
    {
      "anonymous": false,
      "inputs": [
        {
          "indexed": true,
          "internalType": "enum Market.PauseType",
          "name": "_type",
          "type": "uint8"
        },
        {
          "indexed": true,
          "internalType": "bool",
          "name": "oldState",
          "type": "bool"
        },
        {
          "indexed": true,
          "internalType": "bool",
          "name": "newState",
          "type": "bool"
        }
      ],
      "name": "PausedUpdated",
      "type": "event"
    },
    {
      "anonymous": false,
      "inputs": [
        {
          "indexed": true,
          "internalType": "address",
          "name": "from",
          "type": "address"
        },
        {
          "indexed": true,
          "internalType": "address",
          "name": "to",
          "type": "address"
        },
        {
          "indexed": false,
          "internalType": "uint256",
          "name": "value",
          "type": "uint256"
        }
      ],
      "name": "Transfer",
      "type": "event"
    },
    {
      "anonymous": false,
      "inputs": [
        {
          "indexed": true,
          "internalType": "address",
          "name": "newAddress",
          "type": "address"
        }
      ],
      "name": "UsdoSwapperUpdated",
      "type": "event"
    },
    {
      "inputs": [],
      "name": "DOMAIN_SEPARATOR",
      "outputs": [
        {
          "internalType": "bytes32",
          "name": "",
          "type": "bytes32"
        }
      ],
      "stateMutability": "view",
      "type": "function"
    },
    {
      "inputs": [],
      "name": "accrue",
      "outputs": [],
      "stateMutability": "nonpayable",
      "type": "function"
    },
    {
      "inputs": [],
      "name": "accrueInfo",
      "outputs": [
        {
          "internalType": "uint64",
          "name": "interestPerSecond",
          "type": "uint64"
        },
        {
          "internalType": "uint64",
          "name": "lastAccrued",
          "type": "uint64"
        },
        {
          "internalType": "uint128",
          "name": "feesEarnedFraction",
          "type": "uint128"
        }
      ],
      "stateMutability": "view",
      "type": "function"
    },
    {
      "inputs": [
        {
          "internalType": "address",
          "name": "",
          "type": "address"
        },
        {
          "internalType": "address",
          "name": "",
          "type": "address"
        }
      ],
      "name": "allowance",
      "outputs": [
        {
          "internalType": "uint256",
          "name": "",
          "type": "uint256"
        }
      ],
      "stateMutability": "view",
      "type": "function"
    },
    {
      "inputs": [
        {
          "internalType": "address",
          "name": "",
          "type": "address"
        },
        {
          "internalType": "address",
          "name": "",
          "type": "address"
        }
      ],
      "name": "allowanceBorrow",
      "outputs": [
        {
          "internalType": "uint256",
          "name": "",
          "type": "uint256"
        }
      ],
      "stateMutability": "view",
      "type": "function"
    },
    {
      "inputs": [
        {
          "internalType": "address",
          "name": "spender",
          "type": "address"
        },
        {
          "internalType": "uint256",
          "name": "amount",
          "type": "uint256"
        }
      ],
      "name": "approve",
      "outputs": [
        {
          "internalType": "bool",
          "name": "",
          "type": "bool"
        }
      ],
      "stateMutability": "nonpayable",
      "type": "function"
    },
    {
      "inputs": [
        {
          "internalType": "address",
          "name": "spender",
          "type": "address"
        },
        {
          "internalType": "uint256",
          "name": "amount",
          "type": "uint256"
        }
      ],
      "name": "approveBorrow",
      "outputs": [
        {
          "internalType": "bool",
          "name": "",
          "type": "bool"
        }
      ],
      "stateMutability": "nonpayable",
      "type": "function"
    },
    {
      "inputs": [],
      "name": "asset",
      "outputs": [
        {
          "internalType": "contract IERC20",
          "name": "",
          "type": "address"
        }
      ],
      "stateMutability": "view",
      "type": "function"
    },
    {
      "inputs": [],
      "name": "assetId",
      "outputs": [
        {
          "internalType": "uint256",
          "name": "",
          "type": "uint256"
        }
      ],
      "stateMutability": "view",
      "type": "function"
    },
    {
      "inputs": [
        {
          "internalType": "address",
          "name": "",
          "type": "address"
        }
      ],
      "name": "balanceOf",
      "outputs": [
        {
          "internalType": "uint256",
          "name": "",
          "type": "uint256"
        }
      ],
      "stateMutability": "view",
      "type": "function"
    },
    {
      "inputs": [],
      "name": "borrowOpeningFee",
      "outputs": [
        {
          "internalType": "uint256",
          "name": "",
          "type": "uint256"
        }
      ],
      "stateMutability": "view",
      "type": "function"
    },
    {
      "inputs": [],
      "name": "callerFee",
      "outputs": [
        {
          "internalType": "uint256",
          "name": "",
          "type": "uint256"
        }
      ],
      "stateMutability": "view",
      "type": "function"
    },
    {
      "inputs": [],
      "name": "claimOwnership",
      "outputs": [],
      "stateMutability": "nonpayable",
      "type": "function"
    },
    {
      "inputs": [],
      "name": "collateral",
      "outputs": [
        {
          "internalType": "contract IERC20",
          "name": "",
          "type": "address"
        }
      ],
      "stateMutability": "view",
      "type": "function"
    },
    {
      "inputs": [],
      "name": "collateralId",
      "outputs": [
        {
          "internalType": "uint256",
          "name": "",
          "type": "uint256"
        }
      ],
      "stateMutability": "view",
      "type": "function"
    },
    {
      "inputs": [],
      "name": "collateralizationRate",
      "outputs": [
        {
          "internalType": "uint256",
          "name": "",
          "type": "uint256"
        }
      ],
      "stateMutability": "view",
      "type": "function"
    },
    {
      "inputs": [
        {
          "internalType": "uint256",
          "name": "borrowPart",
          "type": "uint256"
        },
        {
          "internalType": "uint256",
          "name": "collateralPartInAsset",
          "type": "uint256"
        },
        {
          "internalType": "uint256",
          "name": "ratesPrecision",
          "type": "uint256"
        }
      ],
      "name": "computeClosingFactor",
      "outputs": [
        {
          "internalType": "uint256",
          "name": "",
          "type": "uint256"
        }
      ],
      "stateMutability": "view",
      "type": "function"
    },
    {
      "inputs": [
        {
          "internalType": "address",
          "name": "user",
          "type": "address"
        },
        {
          "internalType": "uint256",
          "name": "_exchangeRate",
          "type": "uint256"
        }
      ],
      "name": "computeLiquidatorReward",
      "outputs": [
        {
          "internalType": "uint256",
          "name": "",
          "type": "uint256"
        }
      ],
      "stateMutability": "view",
      "type": "function"
    },
    {
      "inputs": [
        {
          "internalType": "address",
          "name": "user",
          "type": "address"
        },
        {
          "internalType": "uint256",
          "name": "_exchangeRate",
          "type": "uint256"
        }
      ],
      "name": "computeTVLInfo",
      "outputs": [
        {
          "internalType": "uint256",
          "name": "amountToSolvency",
          "type": "uint256"
        },
        {
          "internalType": "uint256",
          "name": "minTVL",
          "type": "uint256"
        },
        {
          "internalType": "uint256",
          "name": "maxTVL",
          "type": "uint256"
        }
      ],
      "stateMutability": "view",
      "type": "function"
    },
    {
      "inputs": [],
      "name": "conservator",
      "outputs": [
        {
          "internalType": "address",
          "name": "",
          "type": "address"
        }
      ],
      "stateMutability": "view",
      "type": "function"
    },
    {
      "inputs": [],
      "name": "decimals",
      "outputs": [
        {
          "internalType": "uint8",
          "name": "",
          "type": "uint8"
        }
      ],
      "stateMutability": "view",
      "type": "function"
    },
    {
      "inputs": [],
      "name": "exchangeRate",
      "outputs": [
        {
          "internalType": "uint256",
          "name": "",
          "type": "uint256"
        }
      ],
      "stateMutability": "view",
      "type": "function"
    },
    {
      "inputs": [],
      "name": "fullUtilizationMinusMax",
      "outputs": [
        {
          "internalType": "uint256",
          "name": "",
          "type": "uint256"
        }
      ],
      "stateMutability": "view",
      "type": "function"
    },
    {
      "inputs": [],
      "name": "getInterestDetails",
      "outputs": [
        {
          "components": [
            {
              "internalType": "uint64",
              "name": "interestPerSecond",
              "type": "uint64"
            },
            {
              "internalType": "uint64",
              "name": "lastAccrued",
              "type": "uint64"
            },
            {
              "internalType": "uint128",
              "name": "feesEarnedFraction",
              "type": "uint128"
            }
          ],
          "internalType": "struct ISingularity.AccrueInfo",
          "name": "_accrueInfo",
          "type": "tuple"
        },
        {
          "internalType": "uint256",
          "name": "utilization",
          "type": "uint256"
        }
      ],
      "stateMutability": "view",
      "type": "function"
    },
    {
      "inputs": [],
      "name": "interestElasticity",
      "outputs": [
        {
          "internalType": "uint256",
          "name": "",
          "type": "uint256"
        }
      ],
      "stateMutability": "view",
      "type": "function"
    },
    {
      "inputs": [],
      "name": "liquidationBonusAmount",
      "outputs": [
        {
          "internalType": "uint256",
          "name": "",
          "type": "uint256"
        }
      ],
      "stateMutability": "view",
      "type": "function"
    },
    {
      "inputs": [],
      "name": "liquidationCollateralizationRate",
      "outputs": [
        {
          "internalType": "uint256",
          "name": "",
          "type": "uint256"
        }
      ],
      "stateMutability": "view",
      "type": "function"
    },
    {
      "inputs": [],
      "name": "liquidationMultiplier",
      "outputs": [
        {
          "internalType": "uint256",
          "name": "",
          "type": "uint256"
        }
      ],
      "stateMutability": "view",
      "type": "function"
    },
    {
      "inputs": [],
      "name": "lqCollateralizationRate",
      "outputs": [
        {
          "internalType": "uint256",
          "name": "",
          "type": "uint256"
        }
      ],
      "stateMutability": "view",
      "type": "function"
    },
    {
      "inputs": [],
      "name": "maxLiquidatorReward",
      "outputs": [
        {
          "internalType": "uint256",
          "name": "",
          "type": "uint256"
        }
      ],
      "stateMutability": "view",
      "type": "function"
    },
    {
      "inputs": [],
      "name": "maximumInterestPerSecond",
      "outputs": [
        {
          "internalType": "uint64",
          "name": "",
          "type": "uint64"
        }
      ],
      "stateMutability": "view",
      "type": "function"
    },
    {
      "inputs": [],
      "name": "maximumTargetUtilization",
      "outputs": [
        {
          "internalType": "uint256",
          "name": "",
          "type": "uint256"
        }
      ],
      "stateMutability": "view",
      "type": "function"
    },
    {
      "inputs": [],
      "name": "minLiquidatorReward",
      "outputs": [
        {
          "internalType": "uint256",
          "name": "",
          "type": "uint256"
        }
      ],
      "stateMutability": "view",
      "type": "function"
    },
    {
      "inputs": [],
      "name": "minimumInterestPerSecond",
      "outputs": [
        {
          "internalType": "uint64",
          "name": "",
          "type": "uint64"
        }
      ],
      "stateMutability": "view",
      "type": "function"
    },
    {
      "inputs": [],
      "name": "minimumTargetUtilization",
      "outputs": [
        {
          "internalType": "uint256",
          "name": "",
          "type": "uint256"
        }
      ],
      "stateMutability": "view",
      "type": "function"
    },
    {
      "inputs": [],
      "name": "name",
      "outputs": [
        {
          "internalType": "string",
          "name": "",
          "type": "string"
        }
      ],
      "stateMutability": "view",
      "type": "function"
    },
    {
      "inputs": [
        {
          "internalType": "address",
          "name": "owner",
          "type": "address"
        }
      ],
      "name": "nonces",
      "outputs": [
        {
          "internalType": "uint256",
          "name": "",
          "type": "uint256"
        }
      ],
      "stateMutability": "view",
      "type": "function"
    },
    {
      "inputs": [],
      "name": "oracle",
      "outputs": [
        {
          "internalType": "contract IOracle",
          "name": "",
          "type": "address"
        }
      ],
      "stateMutability": "view",
      "type": "function"
    },
    {
      "inputs": [],
      "name": "oracleData",
      "outputs": [
        {
          "internalType": "bytes",
          "name": "",
          "type": "bytes"
        }
      ],
      "stateMutability": "view",
      "type": "function"
    },
    {
      "inputs": [],
      "name": "owner",
      "outputs": [
        {
          "internalType": "address",
          "name": "",
          "type": "address"
        }
      ],
      "stateMutability": "view",
      "type": "function"
    },
    {
      "inputs": [
        {
          "internalType": "enum Market.PauseType",
          "name": "pauseProp",
          "type": "uint8"
        }
      ],
      "name": "pauseOptions",
      "outputs": [
        {
          "internalType": "bool",
          "name": "pauseStatus",
          "type": "bool"
        }
      ],
      "stateMutability": "view",
      "type": "function"
    },
    {
      "inputs": [],
      "name": "pendingOwner",
      "outputs": [
        {
          "internalType": "address",
          "name": "",
          "type": "address"
        }
      ],
      "stateMutability": "view",
      "type": "function"
    },
    {
      "inputs": [],
      "name": "penrose",
      "outputs": [
        {
          "internalType": "contract IPenrose",
          "name": "",
          "type": "address"
        }
      ],
      "stateMutability": "view",
      "type": "function"
    },
    {
      "inputs": [
        {
          "internalType": "address",
          "name": "owner",
          "type": "address"
        },
        {
          "internalType": "address",
          "name": "spender",
          "type": "address"
        },
        {
          "internalType": "uint256",
          "name": "value",
          "type": "uint256"
        },
        {
          "internalType": "uint256",
          "name": "deadline",
          "type": "uint256"
        },
        {
          "internalType": "uint8",
          "name": "v",
          "type": "uint8"
        },
        {
          "internalType": "bytes32",
          "name": "r",
          "type": "bytes32"
        },
        {
          "internalType": "bytes32",
          "name": "s",
          "type": "bytes32"
        }
      ],
      "name": "permit",
      "outputs": [],
      "stateMutability": "nonpayable",
      "type": "function"
    },
    {
      "inputs": [
        {
          "internalType": "bytes",
          "name": "data",
          "type": "bytes"
        },
        {
          "internalType": "uint16",
          "name": "actionType",
          "type": "uint16"
        }
      ],
      "name": "permitAction",
      "outputs": [],
      "stateMutability": "nonpayable",
      "type": "function"
    },
    {
      "inputs": [
        {
          "internalType": "address",
          "name": "owner",
          "type": "address"
        },
        {
          "internalType": "address",
          "name": "spender",
          "type": "address"
        },
        {
          "internalType": "uint256",
          "name": "value",
          "type": "uint256"
        },
        {
          "internalType": "uint256",
          "name": "deadline",
          "type": "uint256"
        },
        {
          "internalType": "uint8",
          "name": "v",
          "type": "uint8"
        },
        {
          "internalType": "bytes32",
          "name": "r",
          "type": "bytes32"
        },
        {
          "internalType": "bytes32",
          "name": "s",
          "type": "bytes32"
        }
      ],
      "name": "permitBorrow",
      "outputs": [],
      "stateMutability": "nonpayable",
      "type": "function"
    },
    {
      "inputs": [],
      "name": "protocolFee",
      "outputs": [
        {
          "internalType": "uint256",
          "name": "",
          "type": "uint256"
        }
      ],
      "stateMutability": "view",
      "type": "function"
    },
    {
      "inputs": [],
      "name": "rateTimestamp",
      "outputs": [
        {
          "internalType": "uint256",
          "name": "",
          "type": "uint256"
        }
      ],
      "stateMutability": "view",
      "type": "function"
    },
    {
      "inputs": [],
      "name": "rateValidDuration",
      "outputs": [
        {
          "internalType": "uint256",
          "name": "",
          "type": "uint256"
        }
      ],
      "stateMutability": "view",
      "type": "function"
    },
    {
      "inputs": [
        {
          "internalType": "uint256",
          "name": "_borrowOpeningFee",
          "type": "uint256"
        },
        {
          "internalType": "contract IOracle",
          "name": "_oracle",
          "type": "address"
        },
        {
          "internalType": "bytes",
          "name": "_oracleData",
          "type": "bytes"
        },
        {
          "internalType": "address",
          "name": "_conservator",
          "type": "address"
        },
        {
          "internalType": "uint256",
          "name": "_callerFee",
          "type": "uint256"
        },
        {
          "internalType": "uint256",
          "name": "_protocolFee",
          "type": "uint256"
        },
        {
          "internalType": "uint256",
          "name": "_liquidationBonusAmount",
          "type": "uint256"
        },
        {
          "internalType": "uint256",
          "name": "_minLiquidatorReward",
          "type": "uint256"
        },
        {
          "internalType": "uint256",
          "name": "_maxLiquidatorReward",
          "type": "uint256"
        },
        {
          "internalType": "uint256",
          "name": "_totalBorrowCap",
          "type": "uint256"
        },
        {
          "internalType": "uint256",
          "name": "_collateralizationRate",
          "type": "uint256"
        },
        {
          "internalType": "uint256",
          "name": "_liquidationCollateralizationRate",
          "type": "uint256"
        }
      ],
      "name": "setMarketConfig",
      "outputs": [],
      "stateMutability": "nonpayable",
      "type": "function"
    },
    {
      "inputs": [],
      "name": "startingInterestPerSecond",
      "outputs": [
        {
          "internalType": "uint64",
          "name": "",
          "type": "uint64"
        }
      ],
      "stateMutability": "view",
      "type": "function"
    },
    {
      "inputs": [],
      "name": "symbol",
      "outputs": [
        {
          "internalType": "string",
          "name": "",
          "type": "string"
        }
      ],
      "stateMutability": "view",
      "type": "function"
    },
    {
      "inputs": [],
      "name": "totalAsset",
      "outputs": [
        {
          "internalType": "uint128",
          "name": "elastic",
          "type": "uint128"
        },
        {
          "internalType": "uint128",
          "name": "base",
          "type": "uint128"
        }
      ],
      "stateMutability": "view",
      "type": "function"
    },
    {
      "inputs": [],
      "name": "totalBorrow",
      "outputs": [
        {
          "internalType": "uint128",
          "name": "elastic",
          "type": "uint128"
        },
        {
          "internalType": "uint128",
          "name": "base",
          "type": "uint128"
        }
      ],
      "stateMutability": "view",
      "type": "function"
    },
    {
      "inputs": [],
      "name": "totalBorrowCap",
      "outputs": [
        {
          "internalType": "uint256",
          "name": "",
          "type": "uint256"
        }
      ],
      "stateMutability": "view",
      "type": "function"
    },
    {
      "inputs": [],
      "name": "totalCollateralShare",
      "outputs": [
        {
          "internalType": "uint256",
          "name": "",
          "type": "uint256"
        }
      ],
      "stateMutability": "view",
      "type": "function"
    },
    {
      "inputs": [],
      "name": "totalSupply",
      "outputs": [
        {
          "internalType": "uint256",
          "name": "",
          "type": "uint256"
        }
      ],
      "stateMutability": "view",
      "type": "function"
    },
    {
      "inputs": [
        {
          "internalType": "address",
          "name": "to",
          "type": "address"
        },
        {
          "internalType": "uint256",
          "name": "amount",
          "type": "uint256"
        }
      ],
      "name": "transfer",
      "outputs": [
        {
          "internalType": "bool",
          "name": "",
          "type": "bool"
        }
      ],
      "stateMutability": "nonpayable",
      "type": "function"
    },
    {
      "inputs": [
        {
          "internalType": "address",
          "name": "from",
          "type": "address"
        },
        {
          "internalType": "address",
          "name": "to",
          "type": "address"
        },
        {
          "internalType": "uint256",
          "name": "amount",
          "type": "uint256"
        }
      ],
      "name": "transferFrom",
      "outputs": [
        {
          "internalType": "bool",
          "name": "",
          "type": "bool"
        }
      ],
      "stateMutability": "nonpayable",
      "type": "function"
    },
    {
      "inputs": [
        {
          "internalType": "address",
          "name": "newOwner",
          "type": "address"
        },
        {
          "internalType": "bool",
          "name": "direct",
          "type": "bool"
        },
        {
          "internalType": "bool",
          "name": "renounce",
          "type": "bool"
        }
      ],
      "name": "transferOwnership",
      "outputs": [],
      "stateMutability": "nonpayable",
      "type": "function"
    },
    {
      "inputs": [],
      "name": "updateExchangeRate",
      "outputs": [
        {
          "internalType": "bool",
          "name": "updated",
          "type": "bool"
        },
        {
          "internalType": "uint256",
          "name": "rate",
          "type": "uint256"
        }
      ],
      "stateMutability": "nonpayable",
      "type": "function"
    },
    {
      "inputs": [
        {
          "internalType": "enum Market.PauseType",
          "name": "_type",
          "type": "uint8"
        },
        {
          "internalType": "bool",
          "name": "val",
          "type": "bool"
        }
      ],
      "name": "updatePause",
      "outputs": [],
      "stateMutability": "nonpayable",
      "type": "function"
    },
    {
      "inputs": [
        {
          "internalType": "address",
          "name": "",
          "type": "address"
        }
      ],
      "name": "userBorrowPart",
      "outputs": [
        {
          "internalType": "uint256",
          "name": "",
          "type": "uint256"
        }
      ],
      "stateMutability": "view",
      "type": "function"
    },
    {
      "inputs": [
        {
          "internalType": "address",
          "name": "",
          "type": "address"
        }
      ],
      "name": "userCollateralShare",
      "outputs": [
        {
          "internalType": "uint256",
          "name": "",
          "type": "uint256"
        }
      ],
      "stateMutability": "view",
      "type": "function"
    },
    {
      "inputs": [],
      "name": "yieldBox",
      "outputs": [
        {
          "internalType": "contract YieldBox",
          "name": "",
          "type": "address"
        }
      ],
      "stateMutability": "view",
      "type": "function"
    }
  ],
  "bytecode": "0x6101408060405234620001e5576200001781620001ea565b601381526001602082017f546170696f63612053696e67756c617269747900000000000000000000000000815260206040516200005481620001ea565b8381520192603160f81b845251902091208160e052610100918183524660a0526040519160208301907f8b73c3c69bb8fe3d512ecc4cf759cc79239f7b179b0ffacaa9a75d522b39400f92838352604085015260608401524660808401523060a084015260a0835260c083019280841060018060401b03851117620001cf5760408490525190206080523060c052610120908152600580546001600160a01b0319163390811790915560007f8be0079c531659141344cd1fd0a4f28419497f9722a3daafe3b4186f6b6457e08180a362013880601b5562015f90601c55612710601d556032602055612ee06021557f0bd4060688a1800ae986e4840aebc924bb40b5bf44de4583df2257220b54b77c6027557f7d1dc38e60930664f8cbf495da6556ca091d2f92d6550877750c049864b182306028556161a8602955613212928362000207843960805183612612015260a051836126dc015260c051836125dc015260e05183612661015251826126870152518161263e0152f35b634e487b7160e01b600052604160045260246000fd5b600080fd5b604081019081106001600160401b03821117620001cf5760405256fe608080604052600436101561001357600080fd5b600090813560e01c908162a02a2014611d225750806302ce728f14611b9a57806306fdde0314611ae3578063078dfbe7146119f2578063095ea7b3146119cb5780630996efb7146115465780630c4e84f01461142e57806318160ddd1461140d5780631c9e379b146113d45780631da8bf101461132657806323b872dd14611189578063313ce567146110f7578063331960ff146110d957806334d441d0146110bb5780633644e515146110a057806337b6b7b91461108257806338d52e0f146110595780633ba0b9a91461103b5780633f741adb1461101657806340626d8b14610ff857806344de240a14610fda578063473e3ce714610fbc57806348e4163e14610f835780634d7f2a3414610f655780634e71e0c814610ec9578063529898f214610eab57806352f353eb14610e825780635514023214610e5957806355c2ab9414610e2e5780635793546214610e105780635dfe04e814610daf5780636c3d8b8f14610d8657806370a0823114610d4d5780637277854714610d1557806374645ff314610cea5780637dc0d1d014610cc15780637ecebe0014610c885780637fa0b84e14610c56578063821226e814610c385780638285ef4014610c055780638c5d0ed314610be75780638da5cb5b14610bbe578063910dd7c8146109c5578063959916dc146109a857806395d89b41146108ee57806399a97028146108be5780639c5d7192146108a05780639e15e89f14610865578063a9059cbb14610782578063b0e21e8a14610764578063b27c0e741461072a578063bb4cfe3b1461070c578063ce8849ed146106e3578063d505accf14610550578063d8dfeb4514610527578063dd62ed3e146104dc578063de406577146104b3578063e0996cb614610495578063e30c39781461046c578063ea64dd561461044e578063eec0f42e14610430578063f42760b714610412578063f8ba4cff14610342578063f9557ccb1461030b5763ffe04c66146102eb57600080fd5b346103085780600319360112610308576020602a54604051908152f35b80fd5b503461030857806003193601126103085760255460405190819061033e90608081901c906001600160801b031683611fd5565b0390f35b50346103085780600319360112610308576020604061035f612a5b565b93979593909290156103ed57505050600180851b03602f541686806000805160206131bd833981519152868851838152a45b600180851b038151166001851b600160801b0384830151861b169160018060801b0319958691015160801b1691171760245560018060801b039083838383511692015160801b161760145583511692015160801b161760255580f35b6000805160206131bd833981519152866001808a1b03865116948951908152a4610391565b50346103085780600319360112610308576020602b54604051908152f35b50346103085780600319360112610308576020600c54604051908152f35b50346103085780600319360112610308576020601f54604051908152f35b50346103085780600319360112610308576006546040516001600160a01b039091168152602090f35b50346103085780600319360112610308576020601d54604051908152f35b50346103085780600319360112610308576009546040516001600160a01b039091168152602090f35b50346103085760403660031901126103085760406020916104fb611d6a565b610503611d85565b6001600160a01b039182168352600285528383209116825283522054604051908152f35b5034610308578060031936011261030857600b546040516001600160a01b039091168152602090f35b50346103085761055f36611df2565b9083959495421161069e576001600160a01b03878116808a52600460205260408a208054919692959290600019831461068a57826106339694928d92600161062b989601905560405191602083019360008051602061313d833981519152855260408401528a6060840152898c1660808401528c60a084015260c083015260e082015260e081526105ef81611f7b565b5190206105fa6125d9565b9060405190602082019261190160f01b8452602283015260428201526042815261062381611f97565b5190206128ad565b9190916127ae565b16036106455761064292612980565b80f35b60405162461bcd60e51b815260206004820152601e60248201527f45524332305065726d69743a20696e76616c6964207369676e617475726500006044820152606490fd5b634e487b7160e01b8c52601160045260248cfd5b60405162461bcd60e51b815260206004820152601d60248201527f45524332305065726d69743a206578706972656420646561646c696e650000006044820152606490fd5b50346103085780600319360112610308576008546040516001600160a01b039091168152602090f35b50346103085780600319360112610308576020601e54604051908152f35b503461030857806003193601126103085760606024546040519060018060401b0380821683528160401c16602083015260801c6040820152f35b50346103085780600319360112610308576020601a54604051908152f35b50346103085760403660031901126103085761079c611d6a565b60243580928115801590610853575b6107e3575b50506040519182526001600160a01b031690339060008051602061319d83398151915290602090a3602060405160018152f35b338152600160205260408120546107fc83821015612702565b6001600160a01b0384169033829003610817575b50506107b0565b60409361082e91610829841515612747565b6120ec565b3383526001602052838320558152206108488382546120f9565b905581388080610810565b50336001600160a01b038416146107ab565b503461030857604036600319011261030857606061088d610884611d6a565b60243590612238565b9060405192835260208301526040820152f35b50346103085780600319360112610308576020602c54604051908152f35b50346103085760403660031901126103085760206108e66108dd611d6a565b602435906124a7565b604051908152f35b5034610308578060031936011261030857808060018060a01b03600b541660405160208101906395d89b4160e01b82526004815261092b81611f60565b51915afa610937612f41565b9150156109975761094a61033e91612fc8565b6109836023604051809362746d2d60e81b60208301526109738151809260208686019101611d9b565b8101036003810184520182611fb2565b604051918291602083526020830190611dbe565b5061033e6109a3612f71565b61094a565b503461030857806003193601126103085760208054604051908152f35b5034610308576040366003190112610308576004356001600160401b038111610bba5736602382011215610bba57806004013582610a0282611fef565b92610a106040519485611fb2565b82845260208401923660248284010111610bb6578060246020930185378401015260243561ffff81168103610bb257610100918284805181010312610bae57610a5890612397565b610a646040850161278c565b91610a716060860161278c565b9460808101519460a082015192610a8a60c084016127a0565b9160e08401519301519380421161069e578515610b995760008051602061313d833981519152915b6001600160a01b0388168b52600460205260408b20805491906000198314610b85579161ffff610b429896949261062b98969460018401905560405194602086015216604084015260018060a01b038a16606084015260018060a01b038c1660808401528a60a084015260c083015260e082015260e08152610b3381611f7b565b602081519101206105fa6125d9565b6001600160a01b038381169116036106455715610b6f57610642926001600160a01b039081169116612980565b610642926001600160a01b039081169116612932565b634e487b7160e01b8d52601160045260248dfd5b60008051602061317d83398151915291610ab2565b8480fd5b8380fd5b8280fd5b5080fd5b50346103085780600319360112610308576005546040516001600160a01b039091168152602090f35b50346103085780600319360112610308576020601b54604051908152f35b503461030857806003193601126103085760145460405190819061033e90608081901c906001600160801b031683611fd5565b50346103085780600319360112610308576020602e54604051908152f35b503461030857604036600319011261030857610c7d610c73611d6a565b6024359033612932565b602060405160018152f35b5034610308576020366003190112610308576020906040906001600160a01b03610cb0611d6a565b168152600483522054604051908152f35b5034610308578060031936011261030857600f546040516001600160a01b039091168152602090f35b503461030857806003193601126103085761033e60405161098381610d0e81611eaa565b0382611fb2565b50346103085760203660031901126103085760043590600982101561030857602060ff610d4184611e41565b54166040519015158152f35b5034610308576020366003190112610308576020906040906001600160a01b03610d75611d6a565b168152600183522054604051908152f35b5034610308578060031936011261030857600a546040516001600160a01b039091168152602090f35b5034610308578060031936011261030857610dc86129d7565b506080610dd3612a5b565b506040805187516001600160401b0390811682526020808a0151909116908201529681015160001960018a1b011690870152606086015250505050f35b50346103085780600319360112610308576020601c54604051908152f35b5034610308578060031936011261030857602d546040805191901c6001600160401b03168152602090f35b5034610308578060031936011261030857602d546040516001600160401b039091168152602090f35b5034610308578060031936011261030857602f546040516001600160401b039091168152602090f35b50346103085780600319360112610308576020602154604051908152f35b50346103085780600319360112610308576006546001600160a01b039081811633819003610f21578060055493841660008051602061315d8339815191528680a36001600160a01b0319928316176005551660065580f35b606460405162461bcd60e51b815260206004820152602060248201527f4f776e61626c653a2063616c6c657220213d2070656e64696e67206f776e65726044820152fd5b50346103085780600319360112610308576020602954604051908152f35b5034610308576020366003190112610308576020906040906001600160a01b03610fab611d6a565b168152601783522054604051908152f35b50346103085780600319360112610308576020601554604051908152f35b50346103085780600319360112610308576020600e54604051908152f35b50346103085780600319360112610308576020601654604051908152f35b50346103085760603660031901126103085760206108e660443560243560043561211f565b50346103085780600319360112610308576020601154604051908152f35b5034610308578060031936011261030857600d546040516001600160a01b039091168152602090f35b50346103085780600319360112610308576020601254604051908152f35b503461030857806003193601126103085760206108e66125d9565b50346103085780600319360112610308576020601954604051908152f35b50346103085780600319360112610308576020601354604051908152f35b5034610308578060031936011261030857808060018060a01b03600d5416604051602081019063313ce56760e01b82526004815261113481611f60565b51915afa90611141612f41565b918061117e575b1561117357602082805181010312610308575061116860208092016127a0565b60ff60405191168152f35b505060206012611168565b506020825114611148565b5034610308576060366003190112610308576111a3611d6a565b906111ac611d85565b60443591826111ea575b506040519182526001600160a01b0390811692169060008051602061319d83398151915290602090a3602060405160018152f35b6001600160a01b0384811680835260016020908152604084205492869061121382861015612702565b861693848403611228575b50505050506111b6565b838652600283526040808720338852845286205460018101611292575b5092600160209693611270879460409761082960008051602061319d8339815191529c9a1515612747565b92855252838320558152206112868582546120f9565b9055913880858161121e565b909181106112e657926001602096936112708a60008051602061319d8339815191529a98956112c38260409a6120ec565b86895260028552898920338a528552898920559497509497995050939650611245565b60405162461bcd60e51b815260048101849052601860248201527745524332303a20616c6c6f77616e636520746f6f206c6f7760401b6044820152606490fd5b50346103085761133536611df2565b9083959495421161069e576001600160a01b03878116808a52600460205260408a208054919692959290600019831461068a57826113c59694928d92600161062b989601905560405191602083019360008051602061317d833981519152855260408401528a6060840152898c1660808401528c60a084015260c083015260e082015260e081526105ef81611f7b565b16036106455761064292612932565b5034610308576020366003190112610308576020906040906001600160a01b036113fc611d6a565b168152601883522054604051908152f35b5034610308578060031936011261030857602060255460801c604051908152f35b5034610308576040366003190112610308576004356009811015610bba57611454611de3565b6008549091906001600160a01b0316330361150a5760ff61147482611e41565b541615159115159182146114d057808260ff6114926114c094611e41565b54161515827feeec81de25875ce1725479bb76f720a8defdb43dea041919ae37bb4aae9847c08780a4611e41565b9060ff8019835416911617905580f35b60405162461bcd60e51b81526020600482015260126024820152714d61726b65743a2073616d6520737461746560701b6044820152606490fd5b60405162461bcd60e51b815260206004820152601460248201527313585c9ad95d0e881d5b985d5d1a1bdc9a5e995960621b6044820152606490fd5b5034610308576101803660031901126103085760246001600160a01b03813581811690819003610bb257604435916001600160401b03908184116119c757366023850112156119c75783600401359182116119c757368583860101116119c757606435918183168093036119c3576115c38260055416331461200a565b60043594620186a0946115d886881115612055565b6020968088547fc353b09af857951dccce61b43a5854fc45beceed36c50e5d4cc2e71858a8e0df8c80a3875580611985575b50868261184a575b5050508161180a575b5050608435806117f5575b5060a435806117e0575b5060c435806117cc575b5060e435806117ab575b50610104358061178a575b506101243580611759575b506101443590816116e9575b5050610164359182611676578380f35b601e54831061168b575050601f553880808380f35b9060326084926040519262461bcd60e51b845260048401528201527f4d61726b65743a206c69717569646174696f6e436f6c6c61746572616c697a616044820152711d1a5bdb94985d19481d1bdbc81cdb585b1b60721b6064820152fd5b6116f590821115612055565b601f54811161170857601e553880611666565b5060256084926040519262461bcd60e51b845260048401528201527f4d61726b65743a20636f6c6c61746572616c697a6174696f6e5261746520746f6044820152646f2062696760d81b6064820152fd5b806016547fae6e0ab3b95f0a53ff9660a390ccedcbbf1f2355dce974a9841af106fddcfaba8780a36016553861165a565b611795828210612055565b6117a2601b548211612055565b601c553861164f565b6117b6828210612055565b6117c3601c548210612055565b601b5538611644565b6117d7828210612055565b601d553861163a565b6117ec82821115612055565b601a5538611630565b61180182821115612055565b60195538611626565b816008549182167f5a62d22209e370e38eea92cfddcd228e656e6ec139243392a760a7769f5877fd8880a36001600160a01b03191617600855388061161b565b8291611857601054611e70565b601f8111611934575b508990601f84116001146118c5578a936118b8575b5050508160011b916000199060031b1c1916176010555b7fa6f004921c944d4b8bf6e38462b00f36a58d62495d56b51f571ab78f732c98158680a1388086611612565b0101359050863880611875565b60108b52888b20601f198516955092509089908b5b8a87821061191957505084600196106118fd575b50505050811b0160105561188c565b60001960f88660031b161c1992010135169055388088816118ee565b8483019093013585556001909401938b9291820191016118da565b9150915060108952868920601f840160051c810188851061197e575b91849391601f8b94920160051c01905b81811061196d5750611860565b8b81558594508a9350600101611960565b5080611950565b600f80546001600160a01b0319169190911790557f0b2d6eb667d0522c3eb86e4288afecae6c11591ffd1345d4d12407e0598bca9b8880a13861160a565b8680fd5b8580fd5b503461030857604036600319011261030857610c7d6119e8611d6a565b6024359033612980565b503461030857606036600319011261030857611a0c611d6a565b611a14611de3565b604435908115158203610bb25760018060a01b03928391611a3a8360055416331461200a565b15611acc571690811590811591611ac4575b5015611a87578060055492831660008051602061315d8339815191528580a36001600160a01b03199182161760055560068054909116905580f35b60405162461bcd60e51b81526020600482015260156024820152744f776e61626c653a207a65726f206164647265737360581b6044820152606490fd5b905038611a4c565b9150501660018060a01b0319600654161760065580f35b5034610308578060031936011261030857808060018060a01b03600b541660405160208101906306fdde0360e01b825260048152611b2081611f60565b51915afa611b2c612f41565b915015611b8957611b3f61033e91612fc8565b6109836034604051809373546170696f63612053696e67756c61726974792d60601b6020830152611b798151809260208686019101611d9b565b8101036014810184520182611fb2565b5061033e611b95612f71565b611b3f565b5034610308578060031936011261030857600f546040805163d6d7d52560e01b8152602060048201529182906001600160a01b0316818581611bde60248201611eaa565b03925af18015611d175782918391611cd7575b508115611c78578015611c3c57807f9f9192b5edb17356c524e08d9e025c8e2f6307e6ea52fb7968faa3081f51c3c86040948260115580a25b42601355825191151582526020820152f35b60405162461bcd60e51b81526020600482015260146024820152734d61726b65743a20696e76616c6964207261746560601b6044820152606490fd5b509050611c8a601354601254906120f9565b4211611c9b57604090601154611c2a565b60405162461bcd60e51b815260206004820152601460248201527313585c9ad95d0e881c985d19481d1bdbc81bdb1960621b6044820152606490fd5b9150506040813d604011611d0f575b81611cf360409383611fb2565b81010312610bba576020611d0682612397565b91015138611bf1565b3d9150611ce6565b6040513d84823e3d90fd5b905034610bba576040366003190112610bba576040602092611d42611d6a565b611d4a611d85565b6001600160a01b0391821683526003865283832091168252845220548152f35b600435906001600160a01b0382168203611d8057565b600080fd5b602435906001600160a01b0382168203611d8057565b60005b838110611dae5750506000910152565b8181015183820152602001611d9e565b90602091611dd781518092818552858086019101611d9b565b601f01601f1916010190565b602435908115158203611d8057565b60e0906003190112611d80576001600160a01b03906004358281168103611d8057916024359081168103611d805790604435906064359060843560ff81168103611d80579060a4359060c43590565b6009811015611e5a576000526007602052604060002090565b634e487b7160e01b600052602160045260246000fd5b90600182811c92168015611ea0575b6020831014611e8a57565b634e487b7160e01b600052602260045260246000fd5b91607f1691611e7f565b60105460009291611eba82611e70565b908181526001928381169081600014611f145750600114611eda57505050565b9092935060106000526020928360002092846000945b838610611f005750505050010190565b805485870183015294019385908201611ef0565b91935050602093945060ff191683830152151560051b010190565b606081019081106001600160401b03821117611f4a57604052565b634e487b7160e01b600052604160045260246000fd5b604081019081106001600160401b03821117611f4a57604052565b61010081019081106001600160401b03821117611f4a57604052565b608081019081106001600160401b03821117611f4a57604052565b601f909101601f19168101906001600160401b03821190821017611f4a57604052565b6001600160801b0391821681529116602082015260400190565b6001600160401b038111611f4a57601f01601f191660200190565b1561201157565b606460405162461bcd60e51b815260206004820152602060248201527f4f776e61626c653a2063616c6c6572206973206e6f7420746865206f776e65726044820152fd5b1561205c57565b60405162461bcd60e51b815260206004820152601160248201527013585c9ad95d0e881b9bdd081d985b1a59607a1b6044820152606490fd5b818102929181159184041417156120a857565b634e487b7160e01b600052601160045260246000fd5b81156120c8570490565b634e487b7160e01b600052601260045260246000fd5b604d81116120a857600a0a90565b919082039182116120a857565b919082018092116120a857565b818103929160001380158285131691841216176120a857565b601454919291612168916121599161214f91612145906001600160801b03831690612095565b9060801c906120be565b93601f5490612095565b612162836120de565b906120be565b8083106122305761217c6121b891846120ec565b916121b36121ad6121a4601e5461219e612195866120de565b602154906120f9565b90612095565b612162846120de565b916120de565b612106565b6509184e72a000908181029181830514901517156120a857670de0b6b3a7640000918281029281840514901517156120a85780156120c857600160ff1b918083146000198314166120a857059060008212156122295781146120a857600003905b808211612224575090565b905090565b5090612219565b505050600090565b9160018060a01b03809316916000938385526020601781526040918287205490811561238a578783855161226b81611f60565b8281520152612278612a5b565b505050505091905061228b8615156123a4565b6009541683600c54898b52601882526064878c2054918851948593849263442c159960e01b8452600484015260248301528d60448301525afa90811561238057899161234d575b509161232d6123419798999492612308886123036122fa601898620186a06022540490612095565b601e5490612095565b6120be565b815190936001600160801b0391869161232391841690612095565b92015116906120be565b81811061234557035b9783525220546123f0565b9091565b505082612336565b90508381813d8311612379575b6123648183611fb2565b81010312612375575161232d6122d2565b8880fd5b503d61235a565b85513d8b823e3d90fd5b5086955085949350505050565b51908115158203611d8057565b156123ab57565b60405162461bcd60e51b815260206004820152601e60248201527f4d61726b65743a2065786368616e676552617465206e6f742076616c696400006044820152606490fd5b6123fb8215156123a4565b602060018060a01b0360095416916064600c54604051948593849263442c159960e01b845260048401526024830152600060448301525afa90811561249b57600091612468575b50906123036124549260225490612095565b620186a0612464601e5483612095565b0491565b906020823d8211612493575b8161248160209383611fb2565b81010312610308575051612303612442565b3d9150612474565b6040513d6000823e3d90fd5b6001600160a01b031660008181526018602052604081205490926124ca916123f0565b9183526017602052604083205480156125d35781156125d3578181106125d357828110156125c95760145461251391839161082991612145906001600160801b03831690612095565b90620186a092838302928084048514901517156125b5576125389291612162916120ec565b91601b5491601c549361254b8585612106565b80820291848212600160ff1b8214166125b55781830514901517156125a1570581848201948512911290801582169115161761258d5750808212612224575090565b634e487b7160e01b81526011600452602490fd5b634e487b7160e01b83526011600452602483fd5b634e487b7160e01b85526011600452602485fd5b50505050601b5490565b50505090565b307f00000000000000000000000000000000000000000000000000000000000000006001600160a01b031614806126d9575b15612634577f000000000000000000000000000000000000000000000000000000000000000090565b60405160208101907f000000000000000000000000000000000000000000000000000000000000000082527f000000000000000000000000000000000000000000000000000000000000000060408201527f000000000000000000000000000000000000000000000000000000000000000060608201524660808201523060a082015260a0815260c0810181811060018060401b03821117611f4a5760405251902090565b507f0000000000000000000000000000000000000000000000000000000000000000461461260b565b1561270957565b60405162461bcd60e51b815260206004820152601660248201527545524332303a2062616c616e636520746f6f206c6f7760501b6044820152606490fd5b1561274e57565b60405162461bcd60e51b815260206004820152601660248201527545524332303a206e6f207a65726f206164647265737360501b6044820152606490fd5b51906001600160a01b0382168203611d8057565b519060ff82168203611d8057565b6005811015611e5a57806127bf5750565b600181036128075760405162461bcd60e51b815260206004820152601860248201527745434453413a20696e76616c6964207369676e617475726560401b6044820152606490fd5b600281036128545760405162461bcd60e51b815260206004820152601f60248201527f45434453413a20696e76616c6964207369676e6174757265206c656e677468006044820152606490fd5b60031461285d57565b60405162461bcd60e51b815260206004820152602260248201527f45434453413a20696e76616c6964207369676e6174757265202773272076616c604482015261756560f01b6064820152608490fd5b9291906fa2a8918ca85bafe22016d0b997e4df60600160ff1b0383116129265791608094939160ff602094604051948552168484015260408301526060820152600093849182805260015afa156129195781516001600160a01b03811615612913579190565b50600190565b50604051903d90823e3d90fd5b50505050600090600390565b7fe50de2333c10a9502fcb1d8ae13a51bbf423153dfc63c2b8997665b32154afc360018060a01b038092169160009083825260036020526040822094169384825260205284604082205580a4565b909160207f8c5be1e5ebec7d5bd14f71427d1e84f3dd0314c0f7b2291e5b200ac8c7c3b9259160018060a01b03809416938460005260028352604060002095169485600052825280604060002055604051908152a3565b604051906129e482611f2f565b60006040838281528260208201520152565b60405190612a0382611f60565b6014546001600160801b038116835260801c6020830152565b60405190612a2982611f60565b6025546001600160801b038116835260801c6020830152565b6001600160801b0391821690821601919082116120a857565b612a636129d7565b5060006020604051612a7481611f60565b828152015260006020604051612a8981611f60565b828152015260405190612a9b82611f2f565b6024546001600160401b038082168452604082811c9091166020850190815260809290921c908401528290612ace6129f6565b92612ad7612a1c565b92600060018060a01b0360095416600e549460018060801b038751166040519063442c159960e01b8252876004830152602482015260006044820152602081606481865afa801561249b57600090612f0d575b8951612b4092506001600160801b0316906120f9565b80612ed8575060005b90518190612b60906001600160401b0316426120ec565b948515612eae575050426001600160401b031660208a8101919091528801516001600160801b031615612e66575086518851602091670de0b6b3a764000091612bc8918791612bc3916001600160401b03909116906001600160801b0316612095565b612095565b895191900496906001600160801b0390612be790828a16908316612a42565b168952875160405163442c159960e01b815260048101929092526001600160801b031660248201526000604482015291829060649082905afa801561249b57600090612e32575b8751612c4492506001600160801b0316906120f9565b92612c7284612303620186a0612c5c601a548a612095565b60208c01516001600160801b0316919004612095565b6040890180519195916001600160801b038088169291612c959084908316612a42565b16905260208801805190916001600160801b0391612cb591908316612a42565b16905280612dfc57506000925b602a548481811015612d5c57612cd890826120ec565b670de0b6b3a7640000810290808204670de0b6b3a764000014901517156120a857612d3e91612d06916120be565b91612303612d2b612d25602e5493612bc360018060401b039780612095565b836120f9565b8c519092906001600160401b0316612095565b16808952602d546001600160401b0316908111612d585750565b8852565b9050602b54808211612d6d57505050565b612d76916120ec565b90670de0b6b3a7640000820291808304670de0b6b3a764000014901517156120a857612303612dbf612d25612db1612dcf95602c54906120be565b93612bc3602e549580612095565b8b516001600160401b0316612095565b602d5460401c6001600160401b0316808211612df4575b506001600160401b03168852565b905038612de6565b87516001600160801b0316670de0b6b3a76400008181029291808404909114901517156120a857612e2c916120be565b92612cc2565b506020813d602011612e5e575b81612e4c60209383611fb2565b81010312611d8057612c449051612c2e565b3d9150612e3f565b96979394505093505060018060401b0381511660018060401b03602f5416809103612ea2575b509392612e97612a1c565b926000926000929190565b81526001925038612e8c565b975098505050505092505091612ec26129f6565b91612ecb612a1c565b9160009160009190600090565b88516001600160801b0316670de0b6b3a76400008181029291808404909114901517156120a857612f08916120be565b612b49565b506020813d602011612f39575b81612f2760209383611fb2565b81010312611d8057612b409051612b2a565b3d9150612f1a565b3d15612f6c573d90612f5282611fef565b91612f606040519384611fb2565b82523d6000602084013e565b606090565b60405190612f7e82611f60565b60038252623f3f3f60e81b6020830152565b908151811015612fa1570160200190565b634e487b7160e01b600052603260045260246000fd5b60ff1660ff81146120a85760010190565b80516040811061304357508051810190602081818401930312611d80576020810151906001600160401b038211611d80570181603f82011215611d8057602081015161301381611fef565b926130216040519485611fb2565b81845260408284010111611d8057613040916040602085019101611d9b565b90565b602092908303613131576000805b60ff81168581109081613112575b50156130735761306e90612fb7565b613051565b9260ff8094169261308384611fef565b936130916040519586611fb2565b8085526130a0601f1991611fef565b013687860137825b858116878110806130f5575b156130ea576130e591906130df6001600160f81b03196130d48388612f90565b5116871a9188612f90565b53612fb7565b6130a8565b505094505050905090565b506001600160f81b03196131098286612f90565b511615156130b4565b6001600160f81b031991506131279086612f90565b511615153861305f565b915050613040612f7156fe9cc5629bbe7baa98a89f6f8c2c396b83ab62dbb6cbb12f17f1d6ba7e6f53e2668be0079c531659141344cd1fd0a4f28419497f9722a3daafe3b4186f6b6457e05c9ba5f0d101616843d7918f48ea857d6da95e04ac6d719e105e50a355e7c5d6ddf252ad1be2c89b69c2b068fc378daa952ba7f163c4a11628f55a4df523b3ef33af5ce86e8438eff54589f85332916444457dfa8685493fbd579b809097026ba2646970667358221220ed1270533d44b9c568e29d4d1c092224919fb81c09a3be0528820abf6833aae564736f6c63430008120033",
  "linkReferences": {},
  "deployedLinkReferences": {}
}