{
  "_format": "hh-sol-artifact-1",
  "contractName": "SGLLendingCommon",
  "sourceName": "contracts/markets/singularity/SGLLendingCommon.sol",
  "abi": [
    {
      "inputs": [
        {
          "internalType": "address",
          "name": "_from",
          "type": "address"
        },
        {
          "internalType": "address",
          "name": "_operator",
          "type": "address"
        }
      ],
      "name": "NotApproved",
      "type": "error"
    },
    {
      "anonymous": false,
      "inputs": [
        {
          "indexed": true,
          "internalType": "address",
          "name": "owner",
          "type": "address"
        },
        {
          "indexed": true,
          "internalType": "address",
          "name": "spender",
          "type": "address"
        },
        {
          "indexed": false,
          "internalType": "uint256",
          "name": "value",
          "type": "uint256"
        }
      ],
      "name": "Approval",
      "type": "event"
    },
    {
      "anonymous": false,
      "inputs": [
        {
          "indexed": true,
          "internalType": "address",
          "name": "owner",
          "type": "address"
        },
        {
          "indexed": true,
          "internalType": "address",
          "name": "spender",
          "type": "address"
        },
        {
          "indexed": false,
          "internalType": "uint256",
          "name": "value",
          "type": "uint256"
        }
      ],
      "name": "ApprovalBorrow",
      "type": "event"
    },
    {
      "anonymous": false,
      "inputs": [
        {
          "indexed": false,
          "internalType": "address",
          "name": "newAddress",
          "type": "address"
        }
      ],
      "name": "BidExecutionSwapperUpdated",
      "type": "event"
    },
    {
      "anonymous": false,
      "inputs": [
        {
          "indexed": true,
          "internalType": "address",
          "name": "old",
          "type": "address"
        },
        {
          "indexed": true,
          "internalType": "address",
          "name": "_new",
          "type": "address"
        }
      ],
      "name": "ConservatorUpdated",
      "type": "event"
    },
    {
      "anonymous": false,
      "inputs": [
        {
          "indexed": false,
          "internalType": "uint256",
          "name": "oldVal",
          "type": "uint256"
        },
        {
          "indexed": false,
          "internalType": "uint256",
          "name": "newVal",
          "type": "uint256"
        }
      ],
      "name": "InterestElasticityUpdated",
      "type": "event"
    },
    {
      "anonymous": false,
      "inputs": [
        {
          "indexed": false,
          "internalType": "address",
          "name": "liquidator",
          "type": "address"
        },
        {
          "indexed": false,
          "internalType": "address[]",
          "name": "users",
          "type": "address[]"
        },
        {
          "indexed": false,
          "internalType": "uint256",
          "name": "liquidatorReward",
          "type": "uint256"
        },
        {
          "indexed": false,
          "internalType": "uint256",
          "name": "protocolReward",
          "type": "uint256"
        },
        {
          "indexed": false,
          "internalType": "uint256",
          "name": "repayedAmount",
          "type": "uint256"
        },
        {
          "indexed": false,
          "internalType": "uint256",
          "name": "collateralShareRemoved",
          "type": "uint256"
        }
      ],
      "name": "Liquidated",
      "type": "event"
    },
    {
      "anonymous": false,
      "inputs": [
        {
          "indexed": false,
          "internalType": "uint256",
          "name": "oldVal",
          "type": "uint256"
        },
        {
          "indexed": false,
          "internalType": "uint256",
          "name": "newVal",
          "type": "uint256"
        }
      ],
      "name": "LiquidationMultiplierUpdated",
      "type": "event"
    },
    {
      "anonymous": false,
      "inputs": [
        {
          "indexed": false,
          "internalType": "uint256",
          "name": "accruedAmount",
          "type": "uint256"
        },
        {
          "indexed": false,
          "internalType": "uint256",
          "name": "feeFraction",
          "type": "uint256"
        },
        {
          "indexed": false,
          "internalType": "uint64",
          "name": "rate",
          "type": "uint64"
        },
        {
          "indexed": false,
          "internalType": "uint256",
          "name": "utilization",
          "type": "uint256"
        }
      ],
      "name": "LogAccrue",
      "type": "event"
    },
    {
      "anonymous": false,
      "inputs": [
        {
          "indexed": true,
          "internalType": "address",
          "name": "from",
          "type": "address"
        },
        {
          "indexed": true,
          "internalType": "address",
          "name": "to",
          "type": "address"
        },
        {
          "indexed": false,
          "internalType": "uint256",
          "name": "share",
          "type": "uint256"
        },
        {
          "indexed": false,
          "internalType": "uint256",
          "name": "fraction",
          "type": "uint256"
        }
      ],
      "name": "LogAddAsset",
      "type": "event"
    },
    {
      "anonymous": false,
      "inputs": [
        {
          "indexed": true,
          "internalType": "address",
          "name": "from",
          "type": "address"
        },
        {
          "indexed": true,
          "internalType": "address",
          "name": "to",
          "type": "address"
        },
        {
          "indexed": false,
          "internalType": "uint256",
          "name": "share",
          "type": "uint256"
        }
      ],
      "name": "LogAddCollateral",
      "type": "event"
    },
    {
      "anonymous": false,
      "inputs": [
        {
          "indexed": true,
          "internalType": "address",
          "name": "from",
          "type": "address"
        },
        {
          "indexed": true,
          "internalType": "address",
          "name": "to",
          "type": "address"
        },
        {
          "indexed": false,
          "internalType": "uint256",
          "name": "amount",
          "type": "uint256"
        },
        {
          "indexed": false,
          "internalType": "uint256",
          "name": "feeAmount",
          "type": "uint256"
        },
        {
          "indexed": false,
          "internalType": "uint256",
          "name": "part",
          "type": "uint256"
        }
      ],
      "name": "LogBorrow",
      "type": "event"
    },
    {
      "anonymous": false,
      "inputs": [
        {
          "indexed": false,
          "internalType": "uint256",
          "name": "_oldVal",
          "type": "uint256"
        },
        {
          "indexed": false,
          "internalType": "uint256",
          "name": "_newVal",
          "type": "uint256"
        }
      ],
      "name": "LogBorrowCapUpdated",
      "type": "event"
    },
    {
      "anonymous": false,
      "inputs": [
        {
          "indexed": false,
          "internalType": "uint256",
          "name": "_oldVal",
          "type": "uint256"
        },
        {
          "indexed": false,
          "internalType": "uint256",
          "name": "_newVal",
          "type": "uint256"
        }
      ],
      "name": "LogBorrowingFee",
      "type": "event"
    },
    {
      "anonymous": false,
      "inputs": [
        {
          "indexed": false,
          "internalType": "uint256",
          "name": "rate",
          "type": "uint256"
        }
      ],
      "name": "LogExchangeRate",
      "type": "event"
    },
    {
      "anonymous": false,
      "inputs": [
        {
          "indexed": true,
          "internalType": "address",
          "name": "from",
          "type": "address"
        },
        {
          "indexed": true,
          "internalType": "address",
          "name": "to",
          "type": "address"
        },
        {
          "indexed": false,
          "internalType": "uint256",
          "name": "share",
          "type": "uint256"
        },
        {
          "indexed": false,
          "internalType": "uint256",
          "name": "fraction",
          "type": "uint256"
        }
      ],
      "name": "LogRemoveAsset",
      "type": "event"
    },
    {
      "anonymous": false,
      "inputs": [
        {
          "indexed": true,
          "internalType": "address",
          "name": "from",
          "type": "address"
        },
        {
          "indexed": true,
          "internalType": "address",
          "name": "to",
          "type": "address"
        },
        {
          "indexed": false,
          "internalType": "uint256",
          "name": "share",
          "type": "uint256"
        }
      ],
      "name": "LogRemoveCollateral",
      "type": "event"
    },
    {
      "anonymous": false,
      "inputs": [
        {
          "indexed": true,
          "internalType": "address",
          "name": "from",
          "type": "address"
        },
        {
          "indexed": true,
          "internalType": "address",
          "name": "to",
          "type": "address"
        },
        {
          "indexed": false,
          "internalType": "uint256",
          "name": "amount",
          "type": "uint256"
        },
        {
          "indexed": false,
          "internalType": "uint256",
          "name": "part",
          "type": "uint256"
        }
      ],
      "name": "LogRepay",
      "type": "event"
    },
    {
      "anonymous": false,
      "inputs": [
        {
          "indexed": true,
          "internalType": "address",
          "name": "feeTo",
          "type": "address"
        },
        {
          "indexed": false,
          "internalType": "uint256",
          "name": "feesEarnedFraction",
          "type": "uint256"
        }
      ],
      "name": "LogWithdrawFees",
      "type": "event"
    },
    {
      "anonymous": false,
      "inputs": [
        {
          "indexed": false,
          "internalType": "uint256",
          "name": "feeShares",
          "type": "uint256"
        },
        {
          "indexed": false,
          "internalType": "uint256",
          "name": "ethAmount",
          "type": "uint256"
        }
      ],
      "name": "LogYieldBoxFeesDeposit",
      "type": "event"
    },
    {
      "anonymous": false,
      "inputs": [
        {
          "indexed": false,
          "internalType": "uint256",
          "name": "oldVal",
          "type": "uint256"
        },
        {
          "indexed": false,
          "internalType": "uint256",
          "name": "newVal",
          "type": "uint256"
        }
      ],
      "name": "LqCollateralizationRateUpdated",
      "type": "event"
    },
    {
      "anonymous": false,
      "inputs": [
        {
          "indexed": false,
          "internalType": "uint256",
          "name": "oldVal",
          "type": "uint256"
        },
        {
          "indexed": false,
          "internalType": "uint256",
          "name": "newVal",
          "type": "uint256"
        }
      ],
      "name": "MaximumInterestPerSecondUpdated",
      "type": "event"
    },
    {
      "anonymous": false,
      "inputs": [
        {
          "indexed": false,
          "internalType": "uint256",
          "name": "oldVal",
          "type": "uint256"
        },
        {
          "indexed": false,
          "internalType": "uint256",
          "name": "newVal",
          "type": "uint256"
        }
      ],
      "name": "MaximumTargetUtilizationUpdated",
      "type": "event"
    },
    {
      "anonymous": false,
      "inputs": [
        {
          "indexed": false,
          "internalType": "uint256",
          "name": "oldVal",
          "type": "uint256"
        },
        {
          "indexed": false,
          "internalType": "uint256",
          "name": "newVal",
          "type": "uint256"
        }
      ],
      "name": "MinimumInterestPerSecondUpdated",
      "type": "event"
    },
    {
      "anonymous": false,
      "inputs": [
        {
          "indexed": false,
          "internalType": "uint256",
          "name": "oldVal",
          "type": "uint256"
        },
        {
          "indexed": false,
          "internalType": "uint256",
          "name": "newVal",
          "type": "uint256"
        }
      ],
      "name": "MinimumTargetUtilizationUpdated",
      "type": "event"
    },
    {
      "anonymous": false,
      "inputs": [],
      "name": "OracleDataUpdated",
      "type": "event"
    },
    {
      "anonymous": false,
      "inputs": [],
      "name": "OracleUpdated",
      "type": "event"
    },
    {
      "anonymous": false,
      "inputs": [
        {
          "indexed": false,
          "internalType": "uint256",
          "name": "oldVal",
          "type": "uint256"
        },
        {
          "indexed": false,
          "internalType": "uint256",
          "name": "newVal",
          "type": "uint256"
        }
      ],
      "name": "OrderBookLiquidationMultiplierUpdated",
      "type": "event"
    },
    {
      "anonymous": false,
      "inputs": [
        {
          "indexed": true,
          "internalType": "address",
          "name": "previousOwner",
          "type": "address"
        },
        {
          "indexed": true,
          "internalType": "address",
          "name": "newOwner",
          "type": "address"
        }
      ],
      "name": "OwnershipTransferred",
      "type": "event"
    },
    {
      "anonymous": false,
      "inputs": [
        {
          "indexed": false,
          "internalType": "bool",
          "name": "oldState",
          "type": "bool"
        },
        {
          "indexed": false,
          "internalType": "bool",
          "name": "newState",
          "type": "bool"
        }
      ],
      "name": "PausedUpdated",
      "type": "event"
    },
    {
      "anonymous": false,
      "inputs": [
        {
          "indexed": true,
          "internalType": "address",
          "name": "from",
          "type": "address"
        },
        {
          "indexed": true,
          "internalType": "address",
          "name": "to",
          "type": "address"
        },
        {
          "indexed": false,
          "internalType": "uint256",
          "name": "value",
          "type": "uint256"
        }
      ],
      "name": "Transfer",
      "type": "event"
    },
    {
      "anonymous": false,
      "inputs": [
        {
          "indexed": false,
          "internalType": "address",
          "name": "newAddress",
          "type": "address"
        }
      ],
      "name": "UsdoSwapperUpdated",
      "type": "event"
    },
    {
      "inputs": [],
      "name": "DOMAIN_SEPARATOR",
      "outputs": [
        {
          "internalType": "bytes32",
          "name": "",
          "type": "bytes32"
        }
      ],
      "stateMutability": "view",
      "type": "function"
    },
    {
      "inputs": [],
      "name": "accrue",
      "outputs": [],
      "stateMutability": "nonpayable",
      "type": "function"
    },
    {
      "inputs": [],
      "name": "accrueInfo",
      "outputs": [
        {
          "internalType": "uint64",
          "name": "interestPerSecond",
          "type": "uint64"
        },
        {
          "internalType": "uint64",
          "name": "lastAccrued",
          "type": "uint64"
        },
        {
          "internalType": "uint128",
          "name": "feesEarnedFraction",
          "type": "uint128"
        }
      ],
      "stateMutability": "view",
      "type": "function"
    },
    {
      "inputs": [
        {
          "internalType": "address",
          "name": "",
          "type": "address"
        },
        {
          "internalType": "address",
          "name": "",
          "type": "address"
        }
      ],
      "name": "allowance",
      "outputs": [
        {
          "internalType": "uint256",
          "name": "",
          "type": "uint256"
        }
      ],
      "stateMutability": "view",
      "type": "function"
    },
    {
      "inputs": [
        {
          "internalType": "address",
          "name": "",
          "type": "address"
        },
        {
          "internalType": "address",
          "name": "",
          "type": "address"
        }
      ],
      "name": "allowanceBorrow",
      "outputs": [
        {
          "internalType": "uint256",
          "name": "",
          "type": "uint256"
        }
      ],
      "stateMutability": "view",
      "type": "function"
    },
    {
      "inputs": [
        {
          "internalType": "address",
          "name": "spender",
          "type": "address"
        },
        {
          "internalType": "uint256",
          "name": "amount",
          "type": "uint256"
        }
      ],
      "name": "approve",
      "outputs": [
        {
          "internalType": "bool",
          "name": "",
          "type": "bool"
        }
      ],
      "stateMutability": "nonpayable",
      "type": "function"
    },
    {
      "inputs": [
        {
          "internalType": "address",
          "name": "spender",
          "type": "address"
        },
        {
          "internalType": "uint256",
          "name": "amount",
          "type": "uint256"
        }
      ],
      "name": "approveBorrow",
      "outputs": [
        {
          "internalType": "bool",
          "name": "",
          "type": "bool"
        }
      ],
      "stateMutability": "nonpayable",
      "type": "function"
    },
    {
      "inputs": [],
      "name": "asset",
      "outputs": [
        {
          "internalType": "contract IERC20",
          "name": "",
          "type": "address"
        }
      ],
      "stateMutability": "view",
      "type": "function"
    },
    {
      "inputs": [],
      "name": "assetId",
      "outputs": [
        {
          "internalType": "uint256",
          "name": "",
          "type": "uint256"
        }
      ],
      "stateMutability": "view",
      "type": "function"
    },
    {
      "inputs": [
        {
          "internalType": "address",
          "name": "",
          "type": "address"
        }
      ],
      "name": "balanceOf",
      "outputs": [
        {
          "internalType": "uint256",
          "name": "",
          "type": "uint256"
        }
      ],
      "stateMutability": "view",
      "type": "function"
    },
    {
      "inputs": [],
      "name": "borrowOpeningFee",
      "outputs": [
        {
          "internalType": "uint256",
          "name": "",
          "type": "uint256"
        }
      ],
      "stateMutability": "view",
      "type": "function"
    },
    {
      "inputs": [],
      "name": "callerFee",
      "outputs": [
        {
          "internalType": "uint256",
          "name": "",
          "type": "uint256"
        }
      ],
      "stateMutability": "view",
      "type": "function"
    },
    {
      "inputs": [],
      "name": "claimOwnership",
      "outputs": [],
      "stateMutability": "nonpayable",
      "type": "function"
    },
    {
      "inputs": [],
      "name": "collateral",
      "outputs": [
        {
          "internalType": "contract IERC20",
          "name": "",
          "type": "address"
        }
      ],
      "stateMutability": "view",
      "type": "function"
    },
    {
      "inputs": [],
      "name": "collateralId",
      "outputs": [
        {
          "internalType": "uint256",
          "name": "",
          "type": "uint256"
        }
      ],
      "stateMutability": "view",
      "type": "function"
    },
    {
      "inputs": [],
      "name": "collateralizationRate",
      "outputs": [
        {
          "internalType": "uint256",
          "name": "",
          "type": "uint256"
        }
      ],
      "stateMutability": "view",
      "type": "function"
    },
    {
      "inputs": [
        {
          "internalType": "address",
          "name": "user",
          "type": "address"
        },
        {
          "internalType": "uint256",
          "name": "_exchangeRate",
          "type": "uint256"
        }
      ],
      "name": "computeClosingFactor",
      "outputs": [
        {
          "internalType": "uint256",
          "name": "",
          "type": "uint256"
        }
      ],
      "stateMutability": "view",
      "type": "function"
    },
    {
      "inputs": [
        {
          "internalType": "address",
          "name": "user",
          "type": "address"
        },
        {
          "internalType": "uint256",
          "name": "_exchangeRate",
          "type": "uint256"
        }
      ],
      "name": "computeLiquidatorReward",
      "outputs": [
        {
          "internalType": "uint256",
          "name": "",
          "type": "uint256"
        }
      ],
      "stateMutability": "view",
      "type": "function"
    },
    {
      "inputs": [
        {
          "internalType": "address",
          "name": "user",
          "type": "address"
        },
        {
          "internalType": "uint256",
          "name": "_exchangeRate",
          "type": "uint256"
        }
      ],
      "name": "computeTVLInfo",
      "outputs": [
        {
          "internalType": "uint256",
          "name": "amountToSolvency",
          "type": "uint256"
        },
        {
          "internalType": "uint256",
          "name": "minTVL",
          "type": "uint256"
        },
        {
          "internalType": "uint256",
          "name": "maxTVL",
          "type": "uint256"
        }
      ],
      "stateMutability": "view",
      "type": "function"
    },
    {
      "inputs": [],
      "name": "conservator",
      "outputs": [
        {
          "internalType": "address",
          "name": "",
          "type": "address"
        }
      ],
      "stateMutability": "view",
      "type": "function"
    },
    {
      "inputs": [],
      "name": "decimals",
      "outputs": [
        {
          "internalType": "uint8",
          "name": "",
          "type": "uint8"
        }
      ],
      "stateMutability": "view",
      "type": "function"
    },
    {
      "inputs": [],
      "name": "exchangeRate",
      "outputs": [
        {
          "internalType": "uint256",
          "name": "",
          "type": "uint256"
        }
      ],
      "stateMutability": "view",
      "type": "function"
    },
    {
      "inputs": [],
      "name": "fullUtilizationMinusMax",
      "outputs": [
        {
          "internalType": "uint256",
          "name": "",
          "type": "uint256"
        }
      ],
      "stateMutability": "view",
      "type": "function"
    },
    {
      "inputs": [],
      "name": "getInterestDetails",
      "outputs": [
        {
          "components": [
            {
              "internalType": "uint64",
              "name": "interestPerSecond",
              "type": "uint64"
            },
            {
              "internalType": "uint64",
              "name": "lastAccrued",
              "type": "uint64"
            },
            {
              "internalType": "uint128",
              "name": "feesEarnedFraction",
              "type": "uint128"
            }
          ],
          "internalType": "struct ISingularity.AccrueInfo",
          "name": "_accrueInfo",
          "type": "tuple"
        },
        {
          "internalType": "uint256",
          "name": "utilization",
          "type": "uint256"
        }
      ],
      "stateMutability": "view",
      "type": "function"
    },
    {
      "inputs": [],
      "name": "interestElasticity",
      "outputs": [
        {
          "internalType": "uint256",
          "name": "",
          "type": "uint256"
        }
      ],
      "stateMutability": "view",
      "type": "function"
    },
    {
      "inputs": [],
      "name": "liquidationBonusAmount",
      "outputs": [
        {
          "internalType": "uint256",
          "name": "",
          "type": "uint256"
        }
      ],
      "stateMutability": "view",
      "type": "function"
    },
    {
      "inputs": [],
      "name": "liquidationMultiplier",
      "outputs": [
        {
          "internalType": "uint256",
          "name": "",
          "type": "uint256"
        }
      ],
      "stateMutability": "view",
      "type": "function"
    },
    {
      "inputs": [],
      "name": "liquidationQueue",
      "outputs": [
        {
          "internalType": "contract ILiquidationQueue",
          "name": "",
          "type": "address"
        }
      ],
      "stateMutability": "view",
      "type": "function"
    },
    {
      "inputs": [],
      "name": "lqCollateralizationRate",
      "outputs": [
        {
          "internalType": "uint256",
          "name": "",
          "type": "uint256"
        }
      ],
      "stateMutability": "view",
      "type": "function"
    },
    {
      "inputs": [],
      "name": "maxLiquidatorReward",
      "outputs": [
        {
          "internalType": "uint256",
          "name": "",
          "type": "uint256"
        }
      ],
      "stateMutability": "view",
      "type": "function"
    },
    {
      "inputs": [],
      "name": "maximumInterestPerSecond",
      "outputs": [
        {
          "internalType": "uint64",
          "name": "",
          "type": "uint64"
        }
      ],
      "stateMutability": "view",
      "type": "function"
    },
    {
      "inputs": [],
      "name": "maximumTargetUtilization",
      "outputs": [
        {
          "internalType": "uint256",
          "name": "",
          "type": "uint256"
        }
      ],
      "stateMutability": "view",
      "type": "function"
    },
    {
      "inputs": [],
      "name": "minLiquidatorReward",
      "outputs": [
        {
          "internalType": "uint256",
          "name": "",
          "type": "uint256"
        }
      ],
      "stateMutability": "view",
      "type": "function"
    },
    {
      "inputs": [],
      "name": "minimumInterestPerSecond",
      "outputs": [
        {
          "internalType": "uint64",
          "name": "",
          "type": "uint64"
        }
      ],
      "stateMutability": "view",
      "type": "function"
    },
    {
      "inputs": [],
      "name": "minimumTargetUtilization",
      "outputs": [
        {
          "internalType": "uint256",
          "name": "",
          "type": "uint256"
        }
      ],
      "stateMutability": "view",
      "type": "function"
    },
    {
      "inputs": [],
      "name": "name",
      "outputs": [
        {
          "internalType": "string",
          "name": "",
          "type": "string"
        }
      ],
      "stateMutability": "view",
      "type": "function"
    },
    {
      "inputs": [
        {
          "internalType": "address",
          "name": "owner",
          "type": "address"
        }
      ],
      "name": "nonces",
      "outputs": [
        {
          "internalType": "uint256",
          "name": "",
          "type": "uint256"
        }
      ],
      "stateMutability": "view",
      "type": "function"
    },
    {
      "inputs": [],
      "name": "oracle",
      "outputs": [
        {
          "internalType": "contract IOracle",
          "name": "",
          "type": "address"
        }
      ],
      "stateMutability": "view",
      "type": "function"
    },
    {
      "inputs": [],
      "name": "oracleData",
      "outputs": [
        {
          "internalType": "bytes",
          "name": "",
          "type": "bytes"
        }
      ],
      "stateMutability": "view",
      "type": "function"
    },
    {
      "inputs": [],
      "name": "orderBookLiquidationMultiplier",
      "outputs": [
        {
          "internalType": "uint256",
          "name": "",
          "type": "uint256"
        }
      ],
      "stateMutability": "view",
      "type": "function"
    },
    {
      "inputs": [],
      "name": "owner",
      "outputs": [
        {
          "internalType": "address",
          "name": "",
          "type": "address"
        }
      ],
      "stateMutability": "view",
      "type": "function"
    },
    {
      "inputs": [],
      "name": "paused",
      "outputs": [
        {
          "internalType": "bool",
          "name": "",
          "type": "bool"
        }
      ],
      "stateMutability": "view",
      "type": "function"
    },
    {
      "inputs": [],
      "name": "pendingOwner",
      "outputs": [
        {
          "internalType": "address",
          "name": "",
          "type": "address"
        }
      ],
      "stateMutability": "view",
      "type": "function"
    },
    {
      "inputs": [],
      "name": "penrose",
      "outputs": [
        {
          "internalType": "contract IPenrose",
          "name": "",
          "type": "address"
        }
      ],
      "stateMutability": "view",
      "type": "function"
    },
    {
      "inputs": [
        {
          "internalType": "address",
          "name": "owner",
          "type": "address"
        },
        {
          "internalType": "address",
          "name": "spender",
          "type": "address"
        },
        {
          "internalType": "uint256",
          "name": "value",
          "type": "uint256"
        },
        {
          "internalType": "uint256",
          "name": "deadline",
          "type": "uint256"
        },
        {
          "internalType": "uint8",
          "name": "v",
          "type": "uint8"
        },
        {
          "internalType": "bytes32",
          "name": "r",
          "type": "bytes32"
        },
        {
          "internalType": "bytes32",
          "name": "s",
          "type": "bytes32"
        }
      ],
      "name": "permit",
      "outputs": [],
      "stateMutability": "nonpayable",
      "type": "function"
    },
    {
      "inputs": [
        {
          "internalType": "address",
          "name": "owner",
          "type": "address"
        },
        {
          "internalType": "address",
          "name": "spender",
          "type": "address"
        },
        {
          "internalType": "uint256",
          "name": "value",
          "type": "uint256"
        },
        {
          "internalType": "uint256",
          "name": "deadline",
          "type": "uint256"
        },
        {
          "internalType": "uint8",
          "name": "v",
          "type": "uint8"
        },
        {
          "internalType": "bytes32",
          "name": "r",
          "type": "bytes32"
        },
        {
          "internalType": "bytes32",
          "name": "s",
          "type": "bytes32"
        }
      ],
      "name": "permitBorrow",
      "outputs": [],
      "stateMutability": "nonpayable",
      "type": "function"
    },
    {
      "inputs": [],
      "name": "protocolFee",
      "outputs": [
        {
          "internalType": "uint256",
          "name": "",
          "type": "uint256"
        }
      ],
      "stateMutability": "view",
      "type": "function"
    },
    {
      "inputs": [
        {
          "internalType": "uint256",
          "name": "_cap",
          "type": "uint256"
        }
      ],
      "name": "setBorrowCap",
      "outputs": [],
      "stateMutability": "nonpayable",
      "type": "function"
    },
    {
      "inputs": [
        {
          "internalType": "uint256",
          "name": "_val",
          "type": "uint256"
        }
      ],
      "name": "setBorrowOpeningFee",
      "outputs": [],
      "stateMutability": "nonpayable",
      "type": "function"
    },
    {
      "inputs": [
        {
          "internalType": "uint256",
          "name": "_borrowOpeningFee",
          "type": "uint256"
        },
        {
          "internalType": "contract IOracle",
          "name": "_oracle",
          "type": "address"
        },
        {
          "internalType": "bytes",
          "name": "_oracleData",
          "type": "bytes"
        },
        {
          "internalType": "address",
          "name": "_conservator",
          "type": "address"
        },
        {
          "internalType": "uint256",
          "name": "_callerFee",
          "type": "uint256"
        },
        {
          "internalType": "uint256",
          "name": "_protocolFee",
          "type": "uint256"
        },
        {
          "internalType": "uint256",
          "name": "_liquidationBonusAmount",
          "type": "uint256"
        },
        {
          "internalType": "uint256",
          "name": "_minLiquidatorReward",
          "type": "uint256"
        },
        {
          "internalType": "uint256",
          "name": "_maxLiquidatorReward",
          "type": "uint256"
        },
        {
          "internalType": "uint256",
          "name": "_totalBorrowCap",
          "type": "uint256"
        },
        {
          "internalType": "uint256",
          "name": "_collateralizationRate",
          "type": "uint256"
        }
      ],
      "name": "setMarketConfig",
      "outputs": [],
      "stateMutability": "nonpayable",
      "type": "function"
    },
    {
      "inputs": [],
      "name": "startingInterestPerSecond",
      "outputs": [
        {
          "internalType": "uint64",
          "name": "",
          "type": "uint64"
        }
      ],
      "stateMutability": "view",
      "type": "function"
    },
    {
      "inputs": [],
      "name": "symbol",
      "outputs": [
        {
          "internalType": "string",
          "name": "",
          "type": "string"
        }
      ],
      "stateMutability": "view",
      "type": "function"
    },
    {
      "inputs": [],
      "name": "totalAsset",
      "outputs": [
        {
          "internalType": "uint128",
          "name": "elastic",
          "type": "uint128"
        },
        {
          "internalType": "uint128",
          "name": "base",
          "type": "uint128"
        }
      ],
      "stateMutability": "view",
      "type": "function"
    },
    {
      "inputs": [],
      "name": "totalBorrow",
      "outputs": [
        {
          "internalType": "uint128",
          "name": "elastic",
          "type": "uint128"
        },
        {
          "internalType": "uint128",
          "name": "base",
          "type": "uint128"
        }
      ],
      "stateMutability": "view",
      "type": "function"
    },
    {
      "inputs": [],
      "name": "totalBorrowCap",
      "outputs": [
        {
          "internalType": "uint256",
          "name": "",
          "type": "uint256"
        }
      ],
      "stateMutability": "view",
      "type": "function"
    },
    {
      "inputs": [],
      "name": "totalCollateralShare",
      "outputs": [
        {
          "internalType": "uint256",
          "name": "",
          "type": "uint256"
        }
      ],
      "stateMutability": "view",
      "type": "function"
    },
    {
      "inputs": [],
      "name": "totalSupply",
      "outputs": [
        {
          "internalType": "uint256",
          "name": "",
          "type": "uint256"
        }
      ],
      "stateMutability": "view",
      "type": "function"
    },
    {
      "inputs": [
        {
          "internalType": "address",
          "name": "to",
          "type": "address"
        },
        {
          "internalType": "uint256",
          "name": "amount",
          "type": "uint256"
        }
      ],
      "name": "transfer",
      "outputs": [
        {
          "internalType": "bool",
          "name": "",
          "type": "bool"
        }
      ],
      "stateMutability": "nonpayable",
      "type": "function"
    },
    {
      "inputs": [
        {
          "internalType": "address",
          "name": "from",
          "type": "address"
        },
        {
          "internalType": "address",
          "name": "to",
          "type": "address"
        },
        {
          "internalType": "uint256",
          "name": "amount",
          "type": "uint256"
        }
      ],
      "name": "transferFrom",
      "outputs": [
        {
          "internalType": "bool",
          "name": "",
          "type": "bool"
        }
      ],
      "stateMutability": "nonpayable",
      "type": "function"
    },
    {
      "inputs": [
        {
          "internalType": "address",
          "name": "newOwner",
          "type": "address"
        },
        {
          "internalType": "bool",
          "name": "direct",
          "type": "bool"
        },
        {
          "internalType": "bool",
          "name": "renounce",
          "type": "bool"
        }
      ],
      "name": "transferOwnership",
      "outputs": [],
      "stateMutability": "nonpayable",
      "type": "function"
    },
    {
      "inputs": [],
      "name": "updateExchangeRate",
      "outputs": [
        {
          "internalType": "bool",
          "name": "updated",
          "type": "bool"
        },
        {
          "internalType": "uint256",
          "name": "rate",
          "type": "uint256"
        }
      ],
      "stateMutability": "nonpayable",
      "type": "function"
    },
    {
      "inputs": [
        {
          "internalType": "bool",
          "name": "val",
          "type": "bool"
        }
      ],
      "name": "updatePause",
      "outputs": [],
      "stateMutability": "nonpayable",
      "type": "function"
    },
    {
      "inputs": [
        {
          "internalType": "address",
          "name": "",
          "type": "address"
        }
      ],
      "name": "userBorrowPart",
      "outputs": [
        {
          "internalType": "uint256",
          "name": "",
          "type": "uint256"
        }
      ],
      "stateMutability": "view",
      "type": "function"
    },
    {
      "inputs": [
        {
          "internalType": "address",
          "name": "",
          "type": "address"
        }
      ],
      "name": "userCollateralShare",
      "outputs": [
        {
          "internalType": "uint256",
          "name": "",
          "type": "uint256"
        }
      ],
      "stateMutability": "view",
      "type": "function"
    },
    {
      "inputs": [],
      "name": "yieldBox",
      "outputs": [
        {
          "internalType": "contract YieldBox",
          "name": "",
          "type": "address"
        }
      ],
      "stateMutability": "view",
      "type": "function"
    }
  ],
  "bytecode": "0x6101408060405234620001e9576200001781620001ee565b601381526001602082017f546170696f63612053696e67756c617269747900000000000000000000000000815260206040516200005481620001ee565b8381520192603160f81b845251902091208160e052610100918183524660a0526040519160208301907f8b73c3c69bb8fe3d512ecc4cf759cc79239f7b179b0ffacaa9a75d522b39400f92838352604085015260608401524660808401523060a084015260a0835260c083019280841060018060401b03851117620001d35760408490525190206080523060c052610120908152600580546001600160a01b0319163390811790915560007f8be0079c531659141344cd1fd0a4f28419497f9722a3daafe3b4186f6b6457e08180a36103e860185561271080601955601a556032601c557f0bd4060688a1800ae986e4840aebc924bb40b5bf44de4583df2257220b54b77c6023557f7d1dc38e60930664f8cbf495da6556ca091d2f92d6550877750c049864b182306024556201b5806025556201f0186026556161a8602755612fd992836200020b8439608051836124ed015260a051836125b7015260c051836124b7015260e0518361253c01525182612562015251816125190152f35b634e487b7160e01b600052604160045260246000fd5b600080fd5b604081019081106001600160401b03821117620001d35760405256fe608060408181526004918236101561001657600080fd5b600092833560e01c918262a02a2014611c765750816302ce728f14611b5357816306fdde0314611a2b578163078dfbe714611928578163095ea7b3146118fe57816318160ddd146118dd5781631c9e379b146118a55781631da8bf10146117e95781631e7ce448146117ca57816323b872dd1461162d57838263313ce5671461158c5750816334d441d01461156d5781633644e5151461155057816338d52e0f146115275781633ba0b9a91461150857816340626d8b146114e957816344de240a146114ca578163473e3ce7146114ab57816348e4163e146114735781634d7f2a34146114545781634e71e0c8146113b15781635100b56714611353578163529898f21461133457816352f353eb1461130b57816355140232146112e257816355c2ab94146112b9578163579354621461129a5781635c975abb146112765781635dfe04e8146112175781636c3d8b8f146111ee57816370a08231146111b6578163717186d11461112757816374645ff3146110e95781637dc0d1d0146110c05781637ecebe001461108a5781637fa0b84e14611059578163821226e81461103a5781638285ef40146110075781638c5d0ed314610fe85781638da5cb5b14610fbf578163959916dc14610fa057816395d89b4114610e745781639675937214610a8a57816399a9702814610a395781639c5d719214610a1a5781639e15e89f146109df578163a9059cbb14610904578163b0e21e8a146108e5578163b27c0e74146108ab578163b6b113d81461087b578163bb4cfe3b1461085c578163c23ea21f14610833578163ce8849ed14610806578163d505accf1461066c578163d8dfeb4514610643578163dd62ed3e146105fa578163de406577146105d1578163e0996cb6146105b2578163e30c397814610589578163eec0f42e1461056a578163f42760b71461054b578163f8974de01461044b57508063f8ba4cff14610348578063f9557ccb146103125763ffe04c66146102f157600080fd5b3461030e578160031936011261030e576020906028549051908152f35b5080fd5b503461030e578160031936011261030e57602054905190819061034490608081901c906001600160801b031683611ee8565b0390f35b503461030e578160031936011261030e576020906103646128e7565b939795939092901561041557505050600080516020612f64833981519152608060018060401b03602d5416865190898252898783015287820152886060820152a15b805183820151918501519190941b600160401b600160801b03166001600160401b039490941693909317608093841b6001600160801b031990811691909117601f55815191830151841b81166001600160801b03928316176011558451949092015190921b1691161760205580f35b600080516020612f648339815191529260809260018060401b0386511690895193845288840152888301526060820152a16103a6565b919050346105475760203660031901126105475781359081151580920361054357600d5492600884901c6001600160a01b0316330361050a5760ff84161515908184146104d25750817f9c13c5f6c628c1c82eb2b3fd8714da5c2857dbd0ad8ab6b2074abcf81015d3969160ff949351908152836020820152a1169060ff191617600d5580f35b606490602084519162461bcd60e51b835282015260126024820152714d61726b65743a2073616d6520737461746560701b6044820152fd5b6020606492519162461bcd60e51b8352820152601460248201527313585c9ad95d0e881d5b985d5d1a1bdc9a5e995960621b6044820152fd5b8380fd5b8280fd5b50503461030e578160031936011261030e576020906029549051908152f35b50503461030e578160031936011261030e57602090600a549051908152f35b50503461030e578160031936011261030e5760065490516001600160a01b039091168152602090f35b50503461030e578160031936011261030e57602090601a549051908152f35b50503461030e578160031936011261030e5760075490516001600160a01b039091168152602090f35b50503461030e578060031936011261030e5780602092610618611cbc565b610620611cd7565b6001600160a01b0391821683526002865283832091168252845220549051908152f35b50503461030e578160031936011261030e5760095490516001600160a01b039091168152602090f35b8391503461030e5761067d36611d35565b908397949796959642116107c35760018060a01b039283871694858b52866020528b8b2080549060001982146107b057878b8f9294848f610750999760016107589c9a980190558b86519460208601967f6e71edae12b1b97f4d1f60370fef10105fa2faae0126114a169c64845d6126c9885288870152166060850152608084015260a083015260c082015260c0815261071681611e8f565b5190206107216124b4565b915190602082019261190160f01b8452602283015260428201526042815261074881611eaa565b51902061277c565b919091612667565b160361076d575061076a939450612858565b80f35b606490602087519162461bcd60e51b8352820152601e60248201527f45524332305065726d69743a20696e76616c6964207369676e617475726500006044820152fd5b634e487b7160e01b8d526011895260248dfd5b895162461bcd60e51b8152602081870152601d60248201527f45524332305065726d69743a206578706972656420646561646c696e650000006044820152606490fd5b50503461030e578160031936011261030e57600d54905160089190911c6001600160a01b03168152602090f35b50503461030e578160031936011261030e5760215490516001600160a01b039091168152602090f35b50503461030e578160031936011261030e57602090601b549051908152f35b50503461030e578060031936011261030e576020906108a461089b611cbc565b60243590611fe3565b9051908152f35b50503461030e578160031936011261030e57606090601f549080519160018060401b03808216845281831c16602084015260801c90820152f35b50503461030e578160031936011261030e576020906017549051908152f35b50503461030e578060031936011261030e57602091610921611cbc565b826024359283158015906109cd575b610960575b50519182526001600160a01b0316903390600080516020612f44833981519152908590a35160018152f35b3381526001865281812054610977858210156125dd565b6001600160a01b038416908533839003610994575b505050610935565b6109a8916109a3841515612622565b612094565b33835260018852838320558152206109c1838254611fd6565b9055823880808561098c565b50336001600160a01b03841614610930565b50503461030e578060031936011261030e57606090610a086109ff611cbc565b602435906120a1565b91929081519384526020840152820152f35b50503461030e578160031936011261030e57602090602a549051908152f35b50503461030e578060031936011261030e576020916108a4906001600160a01b03610a62611cbc565b168082526015855283610a7a602435828520546122f7565b93909281526014875220546123a8565b90503461054757610160366003190112610547576001600160a01b039060248035838116928035929091849003610e70576001600160401b03916044359190838311610e6c5736602384011215610e6c57820135928311610e685736818484010111610e68576064359486861694858703610e6457610b0e88600554163314611f02565b80610e2d575b5080610def575b5082610c9e575b50505080610c48575b50505060843580610c30575b5060a43580610c18575b5060c43580610c01575b5060e43580610bdd575b506101043580610bb9575b50610124359081610b90575b50506101443580610b7b575080f35b610b8a620186a0821115611f4d565b601b5580f35b600080516020612ee4833981519152906013548151908152836020820152a16013553880610b6c565b610bc7620186a08210611f4d565b610bd46018548211611f4d565b60195538610b60565b610beb620186a08210611f4d565b610bf86019548210611f4d565b60185538610b55565b610c0f620186a08210611f4d565b601a5538610b4b565b610c27620186a0821115611f4d565b60175538610b41565b610c3f620186a0821115611f4d565b60165538610b37565b600d54928360081c167f5a62d22209e370e38eea92cfddcd228e656e6ec139243392a760a7769f5877fd8680a3610100600160a81b031990911660089190911b610100600160a81b031617600d55388080610b2b565b8291610cab600f54611d84565b601f8111610d96575b508890601f8411600114610d19578993610d0c575b5050508160011b916000199060031b1c191617600f555b7fa6f004921c944d4b8bf6e38462b00f36a58d62495d56b51f571ab78f732c98158580a1388080610b22565b0101359050388080610cc9565b600f8a52600080516020612f8483398151915293509190601f1985168a60205b828210610d7c57505090856001969594939210610d60575b50505050811b01600f55610ce0565b60001960f88660031b161c199201013516905538808080610d51565b8060018598878395978a0101358155019701930190610d39565b600f8a5291925090600080516020612f84833981519152601f850160051c810160208610610de8575b90601f869594930160051c01905b818110610dda5750610cb4565b8a8155859450600101610dcd565b5080610dbf565b600e80546001600160a01b0319169190911790557f0b2d6eb667d0522c3eb86e4288afecae6c11591ffd1345d4d12407e0598bca9b8880a138610b1b565b610e3c620186a0821115611f4d565b600080516020612f0483398151915289601c548151908152836020820152a1601c5538610b14565b8980fd5b8780fd5b8880fd5b8680fd5b83833461030e578160031936011261030e576009546001600160a01b039390610e9e908516612d21565b610eab85600b5416612d21565b94600e541693835163634ce26b60e11b8152818160209788878301528180610ed560248201611dbe565b03915afa918215610f95579260249261034496959285610f639692610f72575b5050855198899261746d60f01b8a850152610f19815180928c602288019101611ced565b8301602f60f81b6022820152610f38825180938c602385019101611ced565b01602d60f81b6023820152610f55825180938b8885019101611ced565b010390810187520185611ec5565b51928284938452830190611d10565b610f8e92503d8091833e610f868183611ec5565b810190612c74565b8980610ef5565b8551903d90823e3d90fd5b50503461030e578160031936011261030e57602090601c549051908152f35b50503461030e578160031936011261030e5760055490516001600160a01b039091168152602090f35b50503461030e578160031936011261030e576020906018549051908152f35b50503461030e578160031936011261030e57601154905190819061034490608081901c906001600160801b031683611ee8565b50503461030e578160031936011261030e57602090602c549051908152f35b50503461030e578060031936011261030e57602090611083611079611cbc565b6024359033612801565b5160018152f35b9050346105475760203660031901126105475760209282916001600160a01b036110b2611cbc565b168252845220549051908152f35b50503461030e578160031936011261030e57600e5490516001600160a01b039091168152602090f35b50503461030e578160031936011261030e578051610344916111158261110e81611dbe565b0383611ec5565b51918291602083526020830190611d10565b919050346105475760203660031901126105475781359160ff600d54166111835750600080516020612ee48339815191529061116e60018060a01b03600554163314611f02565b6013548151908152836020820152a160135580f35b6020606492519162461bcd60e51b8352820152600e60248201526d13585c9ad95d0e881c185d5cd95960921b6044820152fd5b50503461030e57602036600319011261030e5760209181906001600160a01b036111de611cbc565b1681526001845220549051908152f35b50503461030e578160031936011261030e5760085490516001600160a01b039091168152602090f35b50503461030e578160031936011261030e576080906112346128af565b5061123d6128e7565b509495935050505080519260018060401b03808251168552602082015116602085015281600180871b0391015116908301526060820152f35b50503461030e578160031936011261030e5760209060ff600d541690519015158152f35b50503461030e578160031936011261030e576020906019549051908152f35b50503461030e578160031936011261030e57602b548151911c6001600160401b03168152602090f35b50503461030e578160031936011261030e57602b5490516001600160401b039091168152602090f35b50503461030e578160031936011261030e57602d5490516001600160401b039091168152602090f35b50503461030e578160031936011261030e576020906025549051908152f35b90503461054757602036600319011261054757600080516020612f0483398151915290359161138d60018060a01b03600554163314611f02565b61139c620186a0841115611f4d565b601c548151908152836020820152a1601c5580f35b919050346105475782600319360112610547576006546001600160a01b0392909183831691903383900361141157505080600554938416600080516020612f248339815191528680a36001600160a01b0319928316176005551660065580f35b906020606492519162461bcd60e51b8352820152602060248201527f4f776e61626c653a2063616c6c657220213d2070656e64696e67206f776e65726044820152fd5b50503461030e578160031936011261030e576020906027549051908152f35b50503461030e57602036600319011261030e5760209181906001600160a01b0361149b611cbc565b1681526014845220549051908152f35b50503461030e578160031936011261030e576020906012549051908152f35b50503461030e578160031936011261030e57602090600c549051908152f35b50503461030e578160031936011261030e576020906013549051908152f35b50503461030e578160031936011261030e576020906010549051908152f35b50503461030e578160031936011261030e57600b5490516001600160a01b039091168152602090f35b50503461030e578160031936011261030e576020906108a46124b4565b50503461030e578160031936011261030e576020906016549051908152f35b91503461030e578160031936011261030e57600b54835163313ce56760e01b6020820190815292815283926001600160a01b0390921691906115cd81611e43565b51915afa6115d9612cd2565b9080611622575b156116135760208180518101031261054757602001519160ff83168303611610575060ff602092915b5191168152f35b80fd5b506020915060ff601291611609565b5060208151146115e0565b82843461161057606036600319011261161057611648611cbc565b90611651611cd7565b604435918261168d575b508351918252602094506001600160a01b03908116921690600080516020612f44833981519152908590a35160018152f35b6001600160a01b0384811680835260016020908152878420549198929091906116b8878310156125dd565b851692838a036116cc575b5050505061165b565b898552600283528885203386528352888520549060018201611736575b5050928260209960018a946117158a8e996109a3600080516020612f448339815191529c9a1515612622565b928552528383205581522061172b858254611fd6565b9055918780806116c3565b87821061178c57509260209960018a946117158a8e999661176782600080516020612f448339815191529d9b612094565b86895260028552898920338a52855289892055969950505094505099819496506116e9565b895162461bcd60e51b8152908101849052601860248201527745524332303a20616c6c6f77616e636520746f6f206c6f7760401b6044820152606490fd5b50503461030e578160031936011261030e576020906026549051908152f35b8391503461030e576117fa36611d35565b908397949796959642116107c35760018060a01b039283871694858b52866020528b8b2080549060001982146107b057878b8f9294848f610750999760016118939c9a980190558b86519460208601967fe9685ff6d48c617fe4f692c50e602cce27cbad0290beb93cfa77eac43968d58c885288870152166060850152608084015260a083015260c082015260c0815261071681611e8f565b160361076d575061076a939450612801565b50503461030e57602036600319011261030e5760209181906001600160a01b036118cd611cbc565b1681526015845220549051908152f35b50503461030e578160031936011261030e57602090815460801c9051908152f35b50503461030e578060031936011261030e5760209061108361191e611cbc565b6024359033612858565b9190503461054757606036600319011261054757611944611cbc565b91602435918215158303611a2757604435928315158403611a235760018060a01b0394859161197883600554163314611f02565b15611a0a571692831590811591611a02575b50156119c757505080600554928316600080516020612f248339815191528580a36001600160a01b03199182161760055560068054909116905580f35b906020606492519162461bcd60e51b835282015260156024820152744f776e61626c653a207a65726f206164647265737360581b6044820152fd5b90503861198a565b93505050501660018060a01b0319600654161760065580f35b8580fd5b8480fd5b919050346105475782600319360112610547576009546001600160a01b039390611a56908516612ec0565b90611a6485600b5416612ec0565b94600e5416818451809263355a219b60e21b8252602080988301528180611a8d60248201611dbe565b03915afa918215611b485792610f639260369285610344979692611b2d575b505084519788927302a30b834b7b1b09029b4b733bab630b934ba3c960651b89850152611ae2815180928b603488019101611ced565b8301602f60f81b6034820152611b01825180938b603585019101611ced565b01602d60f81b6035820152611b1e825180938a8785019101611ced565b01036016810187520185611ec5565b611b4192503d8091833e610f868183611ec5565b3880611aac565b8451903d90823e3d90fd5b8391503461030e578160031936011261030e57818360018060a01b03600e5416604482518096819363d6d7d52560e01b83526020888401528160248401525af1908115611b485780938192611c35575b50509082600014611c2b578115611bf15750806010557f9f9192b5edb17356c524e08d9e025c8e2f6307e6ea52fb7968faa3081f51c3c860208451838152a15b825191151582526020820152f35b606490602085519162461bcd60e51b835282015260146024820152734d61726b65743a20696e76616c6964207261746560601b6044820152fd5b5050601054611be3565b85809295508193503d8311611c6f575b611c4f8183611ec5565b810103126105475780519283151584036116105750602001518480611ba3565b503d611c45565b84908434610547578060031936011261054757602092611c94611cbc565b611c9c611cd7565b6001600160a01b0391821683526003865283832091168252845220548152f35b600435906001600160a01b0382168203611cd257565b600080fd5b602435906001600160a01b0382168203611cd257565b60005b838110611d005750506000910152565b8181015183820152602001611cf0565b90602091611d2981518092818552858086019101611ced565b601f01601f1916010190565b60e0906003190112611cd2576001600160a01b03906004358281168103611cd257916024359081168103611cd25790604435906064359060843560ff81168103611cd2579060a4359060c43590565b90600182811c92168015611db4575b6020831014611d9e57565b634e487b7160e01b600052602260045260246000fd5b91607f1691611d93565b600f5460009291611dce82611d84565b908181526001928381169081600014611e285750600114611dee57505050565b90929350600f6000526020928360002092846000945b838610611e145750505050010190565b805485870183015294019385908201611e04565b91935050602093945060ff191683830152151560051b010190565b604081019081106001600160401b03821117611e5e57604052565b634e487b7160e01b600052604160045260246000fd5b606081019081106001600160401b03821117611e5e57604052565b60e081019081106001600160401b03821117611e5e57604052565b608081019081106001600160401b03821117611e5e57604052565b601f909101601f19168101906001600160401b03821190821017611e5e57604052565b6001600160801b0391821681529116602082015260400190565b15611f0957565b606460405162461bcd60e51b815260206004820152602060248201527f4f776e61626c653a2063616c6c6572206973206e6f7420746865206f776e65726044820152fd5b15611f5457565b60405162461bcd60e51b815260206004820152601160248201527013585c9ad95d0e881b9bdd081d985b1a59607a1b6044820152606490fd5b81810292918115918404141715611fa057565b634e487b7160e01b600052601160045260246000fd5b8115611fc0570490565b634e487b7160e01b600052601260045260246000fd5b91908201809211611fa057565b90611fee81836121e8565b61204157611ffc90826120a1565b6001600160a01b0390931660009081526014602052604090205492831015905061203d57620186a061203361203a93601a54611f8d565b0490611fd6565b90565b5090565b5050600090565b6040519061205582611e43565b6011546001600160801b038116835260801c6020830152565b6040519061207b82611e43565b602080546001600160801b038116845260801c90830152565b91908203918211611fa057565b6001600160a01b039081166000818152601460209081526040822054929594939192909181156121db576120d3612048565b906007541683600a548987526015825260646121076120fe60408a2054620186a0601d540490611f8d565b601b5490611f8d565b91604051948593849263442c159960e01b8452600484015260248301528960448301525afa9081156121d05785916121a1575b509285949261217960159361215461219599604098611fb6565b815190936001600160801b0391869161216f91841690611f8d565b9201511690611fb6565b908082106121995761218a91612094565b9783525220546122f7565b9091565b50508261218a565b90508381813d83116121c9575b6121b88183611ec5565b81010312611a27575161219561213a565b503d6121ae565b6040513d87823e3d90fd5b5050509192505080918190565b91909160018060a01b038060009216825260206014815260408320549081156122ed5760158152604084205480156122e45781612223612048565b94600754169160646122436120fe600a5493620186a0601d540490611f8d565b91604051948593849263442c159960e01b8452600484015260248301528960448301525afa9485156122d85780956122a0575b505061216f61229b94959661229660018060801b03948587511690611f8d565b611f8d565b111590565b909694508187813d83116122d1575b6122b98183611ec5565b8101031261161057509451929461216f61229b612276565b503d6122af565b604051903d90823e3d90fd5b50929450505050565b5060019450505050565b602060018060a01b0360075416916064600a54604051948593849263442c159960e01b845260048401526024830152600060448301525afa90811561239c57600091612369575b509061235061235592601d5490611f8d565b611fb6565b620186a0612365601b5483611f8d565b0491565b906020823d8211612394575b8161238260209383611ec5565b8101031261161057505161235061233e565b3d9150612375565b6040513d6000823e3d90fd5b80156124ac5781156124ac578181106124ac57828110156124a357816123cd91612094565b620186a09283820291808304851490151715611fa0576123f6926123f091612094565b90611fb6565b6018549160195492838103906000938486128284128116908385139015161761248f5782810292858112600160ff1b83141661247b5783051490851417156124675705818382019384129112908015821691151617612453575090565b634e487b7160e01b81526011600452602490fd5b634e487b7160e01b83526011600452602483fd5b634e487b7160e01b86526011600452602486fd5b634e487b7160e01b85526011600452602485fd5b50505060185490565b505050600090565b307f00000000000000000000000000000000000000000000000000000000000000006001600160a01b031614806125b4575b1561250f577f000000000000000000000000000000000000000000000000000000000000000090565b60405160208101907f000000000000000000000000000000000000000000000000000000000000000082527f000000000000000000000000000000000000000000000000000000000000000060408201527f000000000000000000000000000000000000000000000000000000000000000060608201524660808201523060a082015260a0815260c0810181811060018060401b03821117611e5e5760405251902090565b507f000000000000000000000000000000000000000000000000000000000000000046146124e6565b156125e457565b60405162461bcd60e51b815260206004820152601660248201527545524332303a2062616c616e636520746f6f206c6f7760501b6044820152606490fd5b1561262957565b60405162461bcd60e51b815260206004820152601660248201527545524332303a206e6f207a65726f206164647265737360501b6044820152606490fd5b600581101561276657806126785750565b600181036126c05760405162461bcd60e51b815260206004820152601860248201527745434453413a20696e76616c6964207369676e617475726560401b6044820152606490fd5b6002810361270d5760405162461bcd60e51b815260206004820152601f60248201527f45434453413a20696e76616c6964207369676e6174757265206c656e677468006044820152606490fd5b60031461271657565b60405162461bcd60e51b815260206004820152602260248201527f45434453413a20696e76616c6964207369676e6174757265202773272076616c604482015261756560f01b6064820152608490fd5b634e487b7160e01b600052602160045260246000fd5b9291906fa2a8918ca85bafe22016d0b997e4df60600160ff1b0383116127f55791608094939160ff602094604051948552168484015260408301526060820152600093849182805260015afa156127e85781516001600160a01b038116156127e2579190565b50600190565b50604051903d90823e3d90fd5b50505050600090600390565b909160207fe50de2333c10a9502fcb1d8ae13a51bbf423153dfc63c2b8997665b32154afc39160018060a01b03809416938460005260038352604060002095169485600052825280604060002055604051908152a3565b909160207f8c5be1e5ebec7d5bd14f71427d1e84f3dd0314c0f7b2291e5b200ac8c7c3b9259160018060a01b03809416938460005260028352604060002095169485600052825280604060002055604051908152a3565b604051906128bc82611e74565b60006040838281528260208201520152565b6001600160801b039182169082160191908211611fa057565b6128ef6128af565b50604051906128fd82611e43565b60009081835281602080940152818360405161291881611e43565b82815201526040519161292a83611e74565b601f549060018060401b0391828116855285850190838160401c16825260801c604086015284612958612048565b9461296161206e565b600754600c54825160405163442c159960e01b815260048101929092526001600160801b039081166024830152604482018890529297929694918591908c90829060649082906001600160a01b03165afa8015612c4e578290612c1f575b6129ce9150888b511690611fd6565b80612bf257815b6129e3858299511642612094565b938415612bc95750508342168c8c0152878c8b01511615612b8d578a9b8491898c81819f819e9f828a915116670de0b6b3a76400009889935116612a2691611f8d565b90612a3091611f8d565b049d8e1691511690612a41916128ce565b168d52601754612a51908c611f8d565b620186a09004918c01918a835116612a6891611f8d565b90612a7291611fb6565b988d818b169060400182828183511690612a8b916128ce565b1690528183511690612a9c916128ce565b1690526028549182881015612b1457612ab58884612094565b8281029281840414901517156124535750612350849384612af58f94612ae1612afd97612aef92611fb6565b93612296602c549580611f8d565b83611fd6565b935116611f8d565b1690818a52602b5416809110612b105750565b8852565b909150602954808811612b29575b5050505050565b612b339088612094565b828102928184041490151715612453575090612350612b5e612aef612ae1612b6795602a5490611fb6565b848d5116611f8d565b81602b5460401c16808211612b85575b501688523880808080612b22565b905038612b77565b509650509196829196985080939450511690602d5416809103612bbd575b509493612bb661206e565b9383929190565b81526001945038612bab565b99509a505097505050965050505092612be0612048565b92612be961206e565b92809281929190565b878a5116670de0b6b3a7640000908181029181830414901517156124675781612c1a91611fb6565b6129d5565b508b81813d8311612c47575b612c358183611ec5565b8101031261030e576129ce90516129bf565b503d612c2b565b6040513d84823e3d90fd5b6001600160401b038111611e5e57601f01601f191660200190565b602081830312611cd2578051906001600160401b038211611cd2570181601f82011215611cd2578051612ca681612c59565b92612cb46040519485611ec5565b81845260208284010111611cd25761203a9160208085019101611ced565b3d15612cfd573d90612ce382612c59565b91612cf16040519384611ec5565b82523d6000602084013e565b606090565b60405190612d0f82611e43565b60038252623f3f3f60e81b6020830152565b6000809160405160208101906395d89b4160e01b825260048152612d4481611e43565b51916001600160a01b03165afa612d59612cd2565b9015612d685761203a90612da9565b5061203a612d02565b908151811015612d82570160200190565b634e487b7160e01b600052603260045260246000fd5b60ff1660ff8114611fa05760010190565b805160408110612dc757508060208061203a93518301019101612c74565b602092908303612eb5576000805b60ff81168581109081612e96575b5015612df757612df290612d98565b612dd5565b9260ff80941692612e0784612c59565b93612e156040519586611ec5565b808552612e24601f1991612c59565b013687860137825b85811687811080612e79575b15612e6e57612e699190612e636001600160f81b0319612e588388612d71565b5116871a9188612d71565b53612d98565b612e2c565b505094505050905090565b506001600160f81b0319612e8d8286612d71565b51161515612e38565b6001600160f81b03199150612eab9086612d71565b5116151538612de3565b91505061203a612d02565b6000809160405160208101906306fdde0360e01b825260048152612d4481611e4356feae6e0ab3b95f0a53ff9660a390ccedcbbf1f2355dce974a9841af106fddcfabac353b09af857951dccce61b43a5854fc45beceed36c50e5d4cc2e71858a8e0df8be0079c531659141344cd1fd0a4f28419497f9722a3daafe3b4186f6b6457e0ddf252ad1be2c89b69c2b068fc378daa952ba7f163c4a11628f55a4df523b3ef33af5ce86e8438eff54589f85332916444457dfa8685493fbd579b809097026b8d1108e10bcb7c27dddfc02ed9d693a074039d026cf4ea4240b40f7d581ac802a2646970667358221220371dff36c9d3935e7ae64e2b031b4e908cdcdbdde8ccc1a89ae486ba65f56f5464736f6c63430008120033",
  "linkReferences": {},
  "deployedLinkReferences": {}
}