{
  "_format": "hh-sol-artifact-1",
  "contractName": "SGLStorage",
  "sourceName": "contracts/markets/singularity/SGLStorage.sol",
  "abi": [
    {
      "inputs": [],
      "stateMutability": "nonpayable",
      "type": "constructor"
    },
    {
      "anonymous": false,
      "inputs": [
        {
          "indexed": true,
          "internalType": "address",
          "name": "owner",
          "type": "address"
        },
        {
          "indexed": true,
          "internalType": "address",
          "name": "spender",
          "type": "address"
        },
        {
          "indexed": false,
          "internalType": "uint256",
          "name": "value",
          "type": "uint256"
        }
      ],
      "name": "Approval",
      "type": "event"
    },
    {
      "anonymous": false,
      "inputs": [
        {
          "indexed": true,
          "internalType": "address",
          "name": "owner",
          "type": "address"
        },
        {
          "indexed": true,
          "internalType": "address",
          "name": "spender",
          "type": "address"
        },
        {
          "indexed": false,
          "internalType": "uint256",
          "name": "value",
          "type": "uint256"
        }
      ],
      "name": "ApprovalBorrow",
      "type": "event"
    },
    {
      "anonymous": false,
      "inputs": [
        {
          "indexed": true,
          "internalType": "address",
          "name": "newAddress",
          "type": "address"
        }
      ],
      "name": "BidExecutionSwapperUpdated",
      "type": "event"
    },
    {
      "anonymous": false,
      "inputs": [
        {
          "indexed": true,
          "internalType": "address",
          "name": "old",
          "type": "address"
        },
        {
          "indexed": true,
          "internalType": "address",
          "name": "_new",
          "type": "address"
        }
      ],
      "name": "ConservatorUpdated",
      "type": "event"
    },
    {
      "anonymous": false,
      "inputs": [
        {
          "indexed": false,
          "internalType": "uint256",
          "name": "oldVal",
          "type": "uint256"
        },
        {
          "indexed": false,
          "internalType": "uint256",
          "name": "newVal",
          "type": "uint256"
        }
      ],
      "name": "InterestElasticityUpdated",
      "type": "event"
    },
    {
      "anonymous": false,
      "inputs": [
        {
          "indexed": true,
          "internalType": "address",
          "name": "liquidator",
          "type": "address"
        },
        {
          "indexed": false,
          "internalType": "address[]",
          "name": "users",
          "type": "address[]"
        },
        {
          "indexed": false,
          "internalType": "uint256",
          "name": "liquidatorReward",
          "type": "uint256"
        },
        {
          "indexed": false,
          "internalType": "uint256",
          "name": "protocolReward",
          "type": "uint256"
        },
        {
          "indexed": false,
          "internalType": "uint256",
          "name": "repayedAmount",
          "type": "uint256"
        },
        {
          "indexed": false,
          "internalType": "uint256",
          "name": "collateralShareRemoved",
          "type": "uint256"
        }
      ],
      "name": "Liquidated",
      "type": "event"
    },
    {
      "anonymous": false,
      "inputs": [
        {
          "indexed": false,
          "internalType": "uint256",
          "name": "oldVal",
          "type": "uint256"
        },
        {
          "indexed": false,
          "internalType": "uint256",
          "name": "newVal",
          "type": "uint256"
        }
      ],
      "name": "LiquidationMultiplierUpdated",
      "type": "event"
    },
    {
      "anonymous": false,
      "inputs": [
        {
          "indexed": false,
          "internalType": "uint256",
          "name": "accruedAmount",
          "type": "uint256"
        },
        {
          "indexed": false,
          "internalType": "uint256",
          "name": "feeFraction",
          "type": "uint256"
        },
        {
          "indexed": false,
          "internalType": "uint64",
          "name": "rate",
          "type": "uint64"
        },
        {
          "indexed": false,
          "internalType": "uint256",
          "name": "utilization",
          "type": "uint256"
        }
      ],
      "name": "LogAccrue",
      "type": "event"
    },
    {
      "anonymous": false,
      "inputs": [
        {
          "indexed": true,
          "internalType": "address",
          "name": "from",
          "type": "address"
        },
        {
          "indexed": true,
          "internalType": "address",
          "name": "to",
          "type": "address"
        },
        {
          "indexed": false,
          "internalType": "uint256",
          "name": "share",
          "type": "uint256"
        },
        {
          "indexed": false,
          "internalType": "uint256",
          "name": "fraction",
          "type": "uint256"
        }
      ],
      "name": "LogAddAsset",
      "type": "event"
    },
    {
      "anonymous": false,
      "inputs": [
        {
          "indexed": true,
          "internalType": "address",
          "name": "from",
          "type": "address"
        },
        {
          "indexed": true,
          "internalType": "address",
          "name": "to",
          "type": "address"
        },
        {
          "indexed": false,
          "internalType": "uint256",
          "name": "share",
          "type": "uint256"
        }
      ],
      "name": "LogAddCollateral",
      "type": "event"
    },
    {
      "anonymous": false,
      "inputs": [
        {
          "indexed": true,
          "internalType": "address",
          "name": "from",
          "type": "address"
        },
        {
          "indexed": true,
          "internalType": "address",
          "name": "to",
          "type": "address"
        },
        {
          "indexed": false,
          "internalType": "uint256",
          "name": "amount",
          "type": "uint256"
        },
        {
          "indexed": false,
          "internalType": "uint256",
          "name": "feeAmount",
          "type": "uint256"
        },
        {
          "indexed": false,
          "internalType": "uint256",
          "name": "part",
          "type": "uint256"
        }
      ],
      "name": "LogBorrow",
      "type": "event"
    },
    {
      "anonymous": false,
      "inputs": [
        {
          "indexed": false,
          "internalType": "uint256",
          "name": "_oldVal",
          "type": "uint256"
        },
        {
          "indexed": false,
          "internalType": "uint256",
          "name": "_newVal",
          "type": "uint256"
        }
      ],
      "name": "LogBorrowCapUpdated",
      "type": "event"
    },
    {
      "anonymous": false,
      "inputs": [
        {
          "indexed": false,
          "internalType": "uint256",
          "name": "_oldVal",
          "type": "uint256"
        },
        {
          "indexed": false,
          "internalType": "uint256",
          "name": "_newVal",
          "type": "uint256"
        }
      ],
      "name": "LogBorrowingFee",
      "type": "event"
    },
    {
      "anonymous": false,
      "inputs": [
        {
          "indexed": false,
          "internalType": "uint256",
          "name": "rate",
          "type": "uint256"
        }
      ],
      "name": "LogExchangeRate",
      "type": "event"
    },
    {
      "anonymous": false,
      "inputs": [
        {
          "indexed": true,
          "internalType": "address",
          "name": "from",
          "type": "address"
        },
        {
          "indexed": true,
          "internalType": "address",
          "name": "to",
          "type": "address"
        },
        {
          "indexed": false,
          "internalType": "uint256",
          "name": "share",
          "type": "uint256"
        },
        {
          "indexed": false,
          "internalType": "uint256",
          "name": "fraction",
          "type": "uint256"
        }
      ],
      "name": "LogRemoveAsset",
      "type": "event"
    },
    {
      "anonymous": false,
      "inputs": [
        {
          "indexed": true,
          "internalType": "address",
          "name": "from",
          "type": "address"
        },
        {
          "indexed": true,
          "internalType": "address",
          "name": "to",
          "type": "address"
        },
        {
          "indexed": false,
          "internalType": "uint256",
          "name": "share",
          "type": "uint256"
        }
      ],
      "name": "LogRemoveCollateral",
      "type": "event"
    },
    {
      "anonymous": false,
      "inputs": [
        {
          "indexed": true,
          "internalType": "address",
          "name": "from",
          "type": "address"
        },
        {
          "indexed": true,
          "internalType": "address",
          "name": "to",
          "type": "address"
        },
        {
          "indexed": false,
          "internalType": "uint256",
          "name": "amount",
          "type": "uint256"
        },
        {
          "indexed": false,
          "internalType": "uint256",
          "name": "part",
          "type": "uint256"
        }
      ],
      "name": "LogRepay",
      "type": "event"
    },
    {
      "anonymous": false,
      "inputs": [
        {
          "indexed": true,
          "internalType": "address",
          "name": "feeTo",
          "type": "address"
        },
        {
          "indexed": false,
          "internalType": "uint256",
          "name": "feesEarnedFraction",
          "type": "uint256"
        }
      ],
      "name": "LogWithdrawFees",
      "type": "event"
    },
    {
      "anonymous": false,
      "inputs": [
        {
          "indexed": false,
          "internalType": "uint256",
          "name": "feeShares",
          "type": "uint256"
        },
        {
          "indexed": false,
          "internalType": "uint256",
          "name": "ethAmount",
          "type": "uint256"
        }
      ],
      "name": "LogYieldBoxFeesDeposit",
      "type": "event"
    },
    {
      "anonymous": false,
      "inputs": [
        {
          "indexed": false,
          "internalType": "uint256",
          "name": "oldVal",
          "type": "uint256"
        },
        {
          "indexed": false,
          "internalType": "uint256",
          "name": "newVal",
          "type": "uint256"
        }
      ],
      "name": "LqCollateralizationRateUpdated",
      "type": "event"
    },
    {
      "anonymous": false,
      "inputs": [
        {
          "indexed": false,
          "internalType": "uint256",
          "name": "oldVal",
          "type": "uint256"
        },
        {
          "indexed": false,
          "internalType": "uint256",
          "name": "newVal",
          "type": "uint256"
        }
      ],
      "name": "MaximumInterestPerSecondUpdated",
      "type": "event"
    },
    {
      "anonymous": false,
      "inputs": [
        {
          "indexed": false,
          "internalType": "uint256",
          "name": "oldVal",
          "type": "uint256"
        },
        {
          "indexed": false,
          "internalType": "uint256",
          "name": "newVal",
          "type": "uint256"
        }
      ],
      "name": "MaximumTargetUtilizationUpdated",
      "type": "event"
    },
    {
      "anonymous": false,
      "inputs": [
        {
          "indexed": false,
          "internalType": "uint256",
          "name": "oldVal",
          "type": "uint256"
        },
        {
          "indexed": false,
          "internalType": "uint256",
          "name": "newVal",
          "type": "uint256"
        }
      ],
      "name": "MinimumInterestPerSecondUpdated",
      "type": "event"
    },
    {
      "anonymous": false,
      "inputs": [
        {
          "indexed": false,
          "internalType": "uint256",
          "name": "oldVal",
          "type": "uint256"
        },
        {
          "indexed": false,
          "internalType": "uint256",
          "name": "newVal",
          "type": "uint256"
        }
      ],
      "name": "MinimumTargetUtilizationUpdated",
      "type": "event"
    },
    {
      "anonymous": false,
      "inputs": [],
      "name": "OracleDataUpdated",
      "type": "event"
    },
    {
      "anonymous": false,
      "inputs": [],
      "name": "OracleUpdated",
      "type": "event"
    },
    {
      "anonymous": false,
      "inputs": [
        {
          "indexed": false,
          "internalType": "uint256",
          "name": "oldVal",
          "type": "uint256"
        },
        {
          "indexed": false,
          "internalType": "uint256",
          "name": "newVal",
          "type": "uint256"
        }
      ],
      "name": "OrderBookLiquidationMultiplierUpdated",
      "type": "event"
    },
    {
      "anonymous": false,
      "inputs": [
        {
          "indexed": true,
          "internalType": "address",
          "name": "previousOwner",
          "type": "address"
        },
        {
          "indexed": true,
          "internalType": "address",
          "name": "newOwner",
          "type": "address"
        }
      ],
      "name": "OwnershipTransferred",
      "type": "event"
    },
    {
      "anonymous": false,
      "inputs": [
        {
          "indexed": false,
          "internalType": "enum Market.PauseType",
          "name": "_type",
          "type": "uint8"
        },
        {
          "indexed": false,
          "internalType": "bool",
          "name": "oldState",
          "type": "bool"
        },
        {
          "indexed": false,
          "internalType": "bool",
          "name": "newState",
          "type": "bool"
        }
      ],
      "name": "PausedUpdated",
      "type": "event"
    },
    {
      "anonymous": false,
      "inputs": [
        {
          "indexed": true,
          "internalType": "address",
          "name": "from",
          "type": "address"
        },
        {
          "indexed": true,
          "internalType": "address",
          "name": "to",
          "type": "address"
        },
        {
          "indexed": false,
          "internalType": "uint256",
          "name": "value",
          "type": "uint256"
        }
      ],
      "name": "Transfer",
      "type": "event"
    },
    {
      "anonymous": false,
      "inputs": [
        {
          "indexed": true,
          "internalType": "address",
          "name": "newAddress",
          "type": "address"
        }
      ],
      "name": "UsdoSwapperUpdated",
      "type": "event"
    },
    {
      "inputs": [],
      "name": "DOMAIN_SEPARATOR",
      "outputs": [
        {
          "internalType": "bytes32",
          "name": "",
          "type": "bytes32"
        }
      ],
      "stateMutability": "view",
      "type": "function"
    },
    {
      "inputs": [],
      "name": "accrueInfo",
      "outputs": [
        {
          "internalType": "uint64",
          "name": "interestPerSecond",
          "type": "uint64"
        },
        {
          "internalType": "uint64",
          "name": "lastAccrued",
          "type": "uint64"
        },
        {
          "internalType": "uint128",
          "name": "feesEarnedFraction",
          "type": "uint128"
        }
      ],
      "stateMutability": "view",
      "type": "function"
    },
    {
      "inputs": [
        {
          "internalType": "address",
          "name": "",
          "type": "address"
        },
        {
          "internalType": "address",
          "name": "",
          "type": "address"
        }
      ],
      "name": "allowance",
      "outputs": [
        {
          "internalType": "uint256",
          "name": "",
          "type": "uint256"
        }
      ],
      "stateMutability": "view",
      "type": "function"
    },
    {
      "inputs": [
        {
          "internalType": "address",
          "name": "",
          "type": "address"
        },
        {
          "internalType": "address",
          "name": "",
          "type": "address"
        }
      ],
      "name": "allowanceBorrow",
      "outputs": [
        {
          "internalType": "uint256",
          "name": "",
          "type": "uint256"
        }
      ],
      "stateMutability": "view",
      "type": "function"
    },
    {
      "inputs": [
        {
          "internalType": "address",
          "name": "spender",
          "type": "address"
        },
        {
          "internalType": "uint256",
          "name": "amount",
          "type": "uint256"
        }
      ],
      "name": "approve",
      "outputs": [
        {
          "internalType": "bool",
          "name": "",
          "type": "bool"
        }
      ],
      "stateMutability": "nonpayable",
      "type": "function"
    },
    {
      "inputs": [
        {
          "internalType": "address",
          "name": "spender",
          "type": "address"
        },
        {
          "internalType": "uint256",
          "name": "amount",
          "type": "uint256"
        }
      ],
      "name": "approveBorrow",
      "outputs": [
        {
          "internalType": "bool",
          "name": "",
          "type": "bool"
        }
      ],
      "stateMutability": "nonpayable",
      "type": "function"
    },
    {
      "inputs": [],
      "name": "asset",
      "outputs": [
        {
          "internalType": "contract IERC20",
          "name": "",
          "type": "address"
        }
      ],
      "stateMutability": "view",
      "type": "function"
    },
    {
      "inputs": [],
      "name": "assetId",
      "outputs": [
        {
          "internalType": "uint256",
          "name": "",
          "type": "uint256"
        }
      ],
      "stateMutability": "view",
      "type": "function"
    },
    {
      "inputs": [
        {
          "internalType": "address",
          "name": "",
          "type": "address"
        }
      ],
      "name": "balanceOf",
      "outputs": [
        {
          "internalType": "uint256",
          "name": "",
          "type": "uint256"
        }
      ],
      "stateMutability": "view",
      "type": "function"
    },
    {
      "inputs": [],
      "name": "borrowOpeningFee",
      "outputs": [
        {
          "internalType": "uint256",
          "name": "",
          "type": "uint256"
        }
      ],
      "stateMutability": "view",
      "type": "function"
    },
    {
      "inputs": [],
      "name": "callerFee",
      "outputs": [
        {
          "internalType": "uint256",
          "name": "",
          "type": "uint256"
        }
      ],
      "stateMutability": "view",
      "type": "function"
    },
    {
      "inputs": [],
      "name": "claimOwnership",
      "outputs": [],
      "stateMutability": "nonpayable",
      "type": "function"
    },
    {
      "inputs": [],
      "name": "collateral",
      "outputs": [
        {
          "internalType": "contract IERC20",
          "name": "",
          "type": "address"
        }
      ],
      "stateMutability": "view",
      "type": "function"
    },
    {
      "inputs": [],
      "name": "collateralId",
      "outputs": [
        {
          "internalType": "uint256",
          "name": "",
          "type": "uint256"
        }
      ],
      "stateMutability": "view",
      "type": "function"
    },
    {
      "inputs": [],
      "name": "collateralizationRate",
      "outputs": [
        {
          "internalType": "uint256",
          "name": "",
          "type": "uint256"
        }
      ],
      "stateMutability": "view",
      "type": "function"
    },
    {
      "inputs": [
        {
          "internalType": "uint256",
          "name": "borrowPart",
          "type": "uint256"
        },
        {
          "internalType": "uint256",
          "name": "collateralPartInAsset",
          "type": "uint256"
        },
        {
          "internalType": "uint256",
          "name": "ratesPrecision",
          "type": "uint256"
        }
      ],
      "name": "computeClosingFactor",
      "outputs": [
        {
          "internalType": "uint256",
          "name": "",
          "type": "uint256"
        }
      ],
      "stateMutability": "view",
      "type": "function"
    },
    {
      "inputs": [
        {
          "internalType": "address",
          "name": "user",
          "type": "address"
        },
        {
          "internalType": "uint256",
          "name": "_exchangeRate",
          "type": "uint256"
        }
      ],
      "name": "computeLiquidatorReward",
      "outputs": [
        {
          "internalType": "uint256",
          "name": "",
          "type": "uint256"
        }
      ],
      "stateMutability": "view",
      "type": "function"
    },
    {
      "inputs": [
        {
          "internalType": "address",
          "name": "user",
          "type": "address"
        },
        {
          "internalType": "uint256",
          "name": "_exchangeRate",
          "type": "uint256"
        }
      ],
      "name": "computeTVLInfo",
      "outputs": [
        {
          "internalType": "uint256",
          "name": "amountToSolvency",
          "type": "uint256"
        },
        {
          "internalType": "uint256",
          "name": "minTVL",
          "type": "uint256"
        },
        {
          "internalType": "uint256",
          "name": "maxTVL",
          "type": "uint256"
        }
      ],
      "stateMutability": "view",
      "type": "function"
    },
    {
      "inputs": [],
      "name": "conservator",
      "outputs": [
        {
          "internalType": "address",
          "name": "",
          "type": "address"
        }
      ],
      "stateMutability": "view",
      "type": "function"
    },
    {
      "inputs": [],
      "name": "decimals",
      "outputs": [
        {
          "internalType": "uint8",
          "name": "",
          "type": "uint8"
        }
      ],
      "stateMutability": "view",
      "type": "function"
    },
    {
      "inputs": [],
      "name": "exchangeRate",
      "outputs": [
        {
          "internalType": "uint256",
          "name": "",
          "type": "uint256"
        }
      ],
      "stateMutability": "view",
      "type": "function"
    },
    {
      "inputs": [],
      "name": "fullUtilizationMinusMax",
      "outputs": [
        {
          "internalType": "uint256",
          "name": "",
          "type": "uint256"
        }
      ],
      "stateMutability": "view",
      "type": "function"
    },
    {
      "inputs": [],
      "name": "interestElasticity",
      "outputs": [
        {
          "internalType": "uint256",
          "name": "",
          "type": "uint256"
        }
      ],
      "stateMutability": "view",
      "type": "function"
    },
    {
      "inputs": [],
      "name": "liquidationBonusAmount",
      "outputs": [
        {
          "internalType": "uint256",
          "name": "",
          "type": "uint256"
        }
      ],
      "stateMutability": "view",
      "type": "function"
    },
    {
      "inputs": [],
      "name": "liquidationMultiplier",
      "outputs": [
        {
          "internalType": "uint256",
          "name": "",
          "type": "uint256"
        }
      ],
      "stateMutability": "view",
      "type": "function"
    },
    {
      "inputs": [],
      "name": "liquidationQueue",
      "outputs": [
        {
          "internalType": "contract ILiquidationQueue",
          "name": "",
          "type": "address"
        }
      ],
      "stateMutability": "view",
      "type": "function"
    },
    {
      "inputs": [],
      "name": "lqCollateralizationRate",
      "outputs": [
        {
          "internalType": "uint256",
          "name": "",
          "type": "uint256"
        }
      ],
      "stateMutability": "view",
      "type": "function"
    },
    {
      "inputs": [],
      "name": "maxLiquidatorReward",
      "outputs": [
        {
          "internalType": "uint256",
          "name": "",
          "type": "uint256"
        }
      ],
      "stateMutability": "view",
      "type": "function"
    },
    {
      "inputs": [],
      "name": "maximumInterestPerSecond",
      "outputs": [
        {
          "internalType": "uint64",
          "name": "",
          "type": "uint64"
        }
      ],
      "stateMutability": "view",
      "type": "function"
    },
    {
      "inputs": [],
      "name": "maximumTargetUtilization",
      "outputs": [
        {
          "internalType": "uint256",
          "name": "",
          "type": "uint256"
        }
      ],
      "stateMutability": "view",
      "type": "function"
    },
    {
      "inputs": [],
      "name": "minLiquidatorReward",
      "outputs": [
        {
          "internalType": "uint256",
          "name": "",
          "type": "uint256"
        }
      ],
      "stateMutability": "view",
      "type": "function"
    },
    {
      "inputs": [],
      "name": "minimumInterestPerSecond",
      "outputs": [
        {
          "internalType": "uint64",
          "name": "",
          "type": "uint64"
        }
      ],
      "stateMutability": "view",
      "type": "function"
    },
    {
      "inputs": [],
      "name": "minimumTargetUtilization",
      "outputs": [
        {
          "internalType": "uint256",
          "name": "",
          "type": "uint256"
        }
      ],
      "stateMutability": "view",
      "type": "function"
    },
    {
      "inputs": [],
      "name": "name",
      "outputs": [
        {
          "internalType": "string",
          "name": "",
          "type": "string"
        }
      ],
      "stateMutability": "view",
      "type": "function"
    },
    {
      "inputs": [
        {
          "internalType": "address",
          "name": "owner",
          "type": "address"
        }
      ],
      "name": "nonces",
      "outputs": [
        {
          "internalType": "uint256",
          "name": "",
          "type": "uint256"
        }
      ],
      "stateMutability": "view",
      "type": "function"
    },
    {
      "inputs": [],
      "name": "oracle",
      "outputs": [
        {
          "internalType": "contract IOracle",
          "name": "",
          "type": "address"
        }
      ],
      "stateMutability": "view",
      "type": "function"
    },
    {
      "inputs": [],
      "name": "oracleData",
      "outputs": [
        {
          "internalType": "bytes",
          "name": "",
          "type": "bytes"
        }
      ],
      "stateMutability": "view",
      "type": "function"
    },
    {
      "inputs": [],
      "name": "owner",
      "outputs": [
        {
          "internalType": "address",
          "name": "",
          "type": "address"
        }
      ],
      "stateMutability": "view",
      "type": "function"
    },
    {
      "inputs": [
        {
          "internalType": "enum Market.PauseType",
          "name": "pauseProp",
          "type": "uint8"
        }
      ],
      "name": "pauseOptions",
      "outputs": [
        {
          "internalType": "bool",
          "name": "pauseStatus",
          "type": "bool"
        }
      ],
      "stateMutability": "view",
      "type": "function"
    },
    {
      "inputs": [],
      "name": "pendingOwner",
      "outputs": [
        {
          "internalType": "address",
          "name": "",
          "type": "address"
        }
      ],
      "stateMutability": "view",
      "type": "function"
    },
    {
      "inputs": [],
      "name": "penrose",
      "outputs": [
        {
          "internalType": "contract IPenrose",
          "name": "",
          "type": "address"
        }
      ],
      "stateMutability": "view",
      "type": "function"
    },
    {
      "inputs": [
        {
          "internalType": "address",
          "name": "owner",
          "type": "address"
        },
        {
          "internalType": "address",
          "name": "spender",
          "type": "address"
        },
        {
          "internalType": "uint256",
          "name": "value",
          "type": "uint256"
        },
        {
          "internalType": "uint256",
          "name": "deadline",
          "type": "uint256"
        },
        {
          "internalType": "uint8",
          "name": "v",
          "type": "uint8"
        },
        {
          "internalType": "bytes32",
          "name": "r",
          "type": "bytes32"
        },
        {
          "internalType": "bytes32",
          "name": "s",
          "type": "bytes32"
        }
      ],
      "name": "permit",
      "outputs": [],
      "stateMutability": "nonpayable",
      "type": "function"
    },
    {
      "inputs": [
        {
          "internalType": "bytes",
          "name": "data",
          "type": "bytes"
        },
        {
          "internalType": "uint16",
          "name": "actionType",
          "type": "uint16"
        }
      ],
      "name": "permitAction",
      "outputs": [],
      "stateMutability": "nonpayable",
      "type": "function"
    },
    {
      "inputs": [
        {
          "internalType": "address",
          "name": "owner",
          "type": "address"
        },
        {
          "internalType": "address",
          "name": "spender",
          "type": "address"
        },
        {
          "internalType": "uint256",
          "name": "value",
          "type": "uint256"
        },
        {
          "internalType": "uint256",
          "name": "deadline",
          "type": "uint256"
        },
        {
          "internalType": "uint8",
          "name": "v",
          "type": "uint8"
        },
        {
          "internalType": "bytes32",
          "name": "r",
          "type": "bytes32"
        },
        {
          "internalType": "bytes32",
          "name": "s",
          "type": "bytes32"
        }
      ],
      "name": "permitBorrow",
      "outputs": [],
      "stateMutability": "nonpayable",
      "type": "function"
    },
    {
      "inputs": [],
      "name": "protocolFee",
      "outputs": [
        {
          "internalType": "uint256",
          "name": "",
          "type": "uint256"
        }
      ],
      "stateMutability": "view",
      "type": "function"
    },
    {
      "inputs": [
        {
          "internalType": "uint256",
          "name": "_cap",
          "type": "uint256"
        }
      ],
      "name": "setBorrowCap",
      "outputs": [],
      "stateMutability": "nonpayable",
      "type": "function"
    },
    {
      "inputs": [
        {
          "internalType": "uint256",
          "name": "_val",
          "type": "uint256"
        }
      ],
      "name": "setBorrowOpeningFee",
      "outputs": [],
      "stateMutability": "nonpayable",
      "type": "function"
    },
    {
      "inputs": [
        {
          "internalType": "uint256",
          "name": "_borrowOpeningFee",
          "type": "uint256"
        },
        {
          "internalType": "contract IOracle",
          "name": "_oracle",
          "type": "address"
        },
        {
          "internalType": "bytes",
          "name": "_oracleData",
          "type": "bytes"
        },
        {
          "internalType": "address",
          "name": "_conservator",
          "type": "address"
        },
        {
          "internalType": "uint256",
          "name": "_callerFee",
          "type": "uint256"
        },
        {
          "internalType": "uint256",
          "name": "_protocolFee",
          "type": "uint256"
        },
        {
          "internalType": "uint256",
          "name": "_liquidationBonusAmount",
          "type": "uint256"
        },
        {
          "internalType": "uint256",
          "name": "_minLiquidatorReward",
          "type": "uint256"
        },
        {
          "internalType": "uint256",
          "name": "_maxLiquidatorReward",
          "type": "uint256"
        },
        {
          "internalType": "uint256",
          "name": "_totalBorrowCap",
          "type": "uint256"
        },
        {
          "internalType": "uint256",
          "name": "_collateralizationRate",
          "type": "uint256"
        }
      ],
      "name": "setMarketConfig",
      "outputs": [],
      "stateMutability": "nonpayable",
      "type": "function"
    },
    {
      "inputs": [],
      "name": "startingInterestPerSecond",
      "outputs": [
        {
          "internalType": "uint64",
          "name": "",
          "type": "uint64"
        }
      ],
      "stateMutability": "view",
      "type": "function"
    },
    {
      "inputs": [],
      "name": "symbol",
      "outputs": [
        {
          "internalType": "string",
          "name": "",
          "type": "string"
        }
      ],
      "stateMutability": "view",
      "type": "function"
    },
    {
      "inputs": [],
      "name": "totalAsset",
      "outputs": [
        {
          "internalType": "uint128",
          "name": "elastic",
          "type": "uint128"
        },
        {
          "internalType": "uint128",
          "name": "base",
          "type": "uint128"
        }
      ],
      "stateMutability": "view",
      "type": "function"
    },
    {
      "inputs": [],
      "name": "totalBorrow",
      "outputs": [
        {
          "internalType": "uint128",
          "name": "elastic",
          "type": "uint128"
        },
        {
          "internalType": "uint128",
          "name": "base",
          "type": "uint128"
        }
      ],
      "stateMutability": "view",
      "type": "function"
    },
    {
      "inputs": [],
      "name": "totalBorrowCap",
      "outputs": [
        {
          "internalType": "uint256",
          "name": "",
          "type": "uint256"
        }
      ],
      "stateMutability": "view",
      "type": "function"
    },
    {
      "inputs": [],
      "name": "totalCollateralShare",
      "outputs": [
        {
          "internalType": "uint256",
          "name": "",
          "type": "uint256"
        }
      ],
      "stateMutability": "view",
      "type": "function"
    },
    {
      "inputs": [],
      "name": "totalSupply",
      "outputs": [
        {
          "internalType": "uint256",
          "name": "",
          "type": "uint256"
        }
      ],
      "stateMutability": "view",
      "type": "function"
    },
    {
      "inputs": [
        {
          "internalType": "address",
          "name": "to",
          "type": "address"
        },
        {
          "internalType": "uint256",
          "name": "amount",
          "type": "uint256"
        }
      ],
      "name": "transfer",
      "outputs": [
        {
          "internalType": "bool",
          "name": "",
          "type": "bool"
        }
      ],
      "stateMutability": "nonpayable",
      "type": "function"
    },
    {
      "inputs": [
        {
          "internalType": "address",
          "name": "from",
          "type": "address"
        },
        {
          "internalType": "address",
          "name": "to",
          "type": "address"
        },
        {
          "internalType": "uint256",
          "name": "amount",
          "type": "uint256"
        }
      ],
      "name": "transferFrom",
      "outputs": [
        {
          "internalType": "bool",
          "name": "",
          "type": "bool"
        }
      ],
      "stateMutability": "nonpayable",
      "type": "function"
    },
    {
      "inputs": [
        {
          "internalType": "address",
          "name": "newOwner",
          "type": "address"
        },
        {
          "internalType": "bool",
          "name": "direct",
          "type": "bool"
        },
        {
          "internalType": "bool",
          "name": "renounce",
          "type": "bool"
        }
      ],
      "name": "transferOwnership",
      "outputs": [],
      "stateMutability": "nonpayable",
      "type": "function"
    },
    {
      "inputs": [],
      "name": "updateExchangeRate",
      "outputs": [
        {
          "internalType": "bool",
          "name": "updated",
          "type": "bool"
        },
        {
          "internalType": "uint256",
          "name": "rate",
          "type": "uint256"
        }
      ],
      "stateMutability": "nonpayable",
      "type": "function"
    },
    {
      "inputs": [
        {
          "internalType": "enum Market.PauseType",
          "name": "_type",
          "type": "uint8"
        },
        {
          "internalType": "bool",
          "name": "val",
          "type": "bool"
        }
      ],
      "name": "updatePause",
      "outputs": [],
      "stateMutability": "nonpayable",
      "type": "function"
    },
    {
      "inputs": [
        {
          "internalType": "address",
          "name": "",
          "type": "address"
        }
      ],
      "name": "userBorrowPart",
      "outputs": [
        {
          "internalType": "uint256",
          "name": "",
          "type": "uint256"
        }
      ],
      "stateMutability": "view",
      "type": "function"
    },
    {
      "inputs": [
        {
          "internalType": "address",
          "name": "",
          "type": "address"
        }
      ],
      "name": "userCollateralShare",
      "outputs": [
        {
          "internalType": "uint256",
          "name": "",
          "type": "uint256"
        }
      ],
      "stateMutability": "view",
      "type": "function"
    },
    {
      "inputs": [],
      "name": "yieldBox",
      "outputs": [
        {
          "internalType": "contract YieldBox",
          "name": "",
          "type": "address"
        }
      ],
      "stateMutability": "view",
      "type": "function"
    }
  ],
  "bytecode": "0x6101408060405234620001e1576200001781620001e6565b601381526001602082017f546170696f63612053696e67756c617269747900000000000000000000000000815260206040516200005481620001e6565b8381520192603160f81b845251902091208160e052610100918183524660a0526040519160208301907f8b73c3c69bb8fe3d512ecc4cf759cc79239f7b179b0ffacaa9a75d522b39400f92838352604085015260608401524660808401523060a084015260a0835260c083019280841060018060401b03851117620001cb5760408490525190206080523060c052610120908152600580546001600160a01b0319163390811790915560007f8be0079c531659141344cd1fd0a4f28419497f9722a3daafe3b4186f6b6457e08180a36103e860195561271080601a55601b556032601d55612ee0601e557f0bd4060688a1800ae986e4840aebc924bb40b5bf44de4583df2257220b54b77c6025557f7d1dc38e60930664f8cbf495da6556ca091d2f92d6550877750c049864b182306026556161a8602755612a9b928362000203843960805183612393015260a0518361245d015260c0518361235d015260e051836123e201525182612408015251816123bf0152f35b634e487b7160e01b600052604160045260246000fd5b600080fd5b604081019081106001600160401b03821117620001cb5760405256fe608080604052600436101561001357600080fd5b600090813560e01c908162a02a2014611b005750806302ce728f146119c357806306fdde031461190c578063078dfbe71461181b578063095ea7b3146117f45780630c4e84f0146116cc57806318160ddd146116ab5780631c9e379b146116725780631da8bf10146115e557806323b872dd14611448578063313ce567146113b657806334d441d0146113985780633644e5151461137d57806338d52e0f146113545780633ba0b9a9146113365780633f741adb1461131157806340626d8b146112f357806344de240a146112d5578063473e3ce7146112b757806348e4163e1461127e5780634d7f2a34146112605780634e71e0c8146111c45780635100b56714611165578063529898f21461114757806352f353eb1461111e57806355140232146110f557806355c2ab94146110ca57806357935462146110ac5780636c3d8b8f1461108357806370a082311461104a578063717186d114610ffa5780637277854714610fc257806374645ff314610f975780637dc0d1d014610f6e5780637ecebe0014610f355780637fa0b84e14610f03578063821226e814610ee55780638285ef4014610eb25780638c5d0ed314610e945780638da5cb5b14610e6b578063910dd7c814610c7f578063959916dc14610c6157806395d89b4114610ba757806396759372146107de57806399a97028146107ae5780639c5d7192146107905780639e15e89f14610755578063a9059cbb14610672578063b0e21e8a14610654578063b27c0e741461061a578063bb4cfe3b146105fc578063c23ea21f146105d3578063ce8849ed146105aa578063d505accf1461044c578063d8dfeb4514610423578063dd62ed3e146103d8578063de406577146103af578063e0996cb614610391578063e30c397814610368578063eec0f42e1461034a578063f42760b71461032c578063f9557ccb146102f55763ffe04c66146102d557600080fd5b346102f257806003193601126102f2576020602854604051908152f35b80fd5b50346102f257806003193601126102f25760225460405190819061032890608081901c906001600160801b031683611d97565b0390f35b50346102f257806003193601126102f2576020602954604051908152f35b50346102f257806003193601126102f2576020600c54604051908152f35b50346102f257806003193601126102f2576006546040516001600160a01b039091168152602090f35b50346102f257806003193601126102f2576020601b54604051908152f35b50346102f257806003193601126102f2576009546040516001600160a01b039091168152602090f35b50346102f25760403660031901126102f25760406020916103f7611b48565b6103ff611b63565b6001600160a01b039182168352600285528383209116825283522054604051908152f35b50346102f257806003193601126102f257600b546040516001600160a01b039091168152602090f35b50346102f25761045b36611bd0565b9083929395949542116105655761050e9161050691610479896126b3565b956040516020810190600080516020612a06833981519152825260018060a01b0397888d16998a6040840152898c1660608401528c608084015260a083015260c082015260c081526104ca81611d3e565b5190206104d561235a565b9060405190602082019261190160f01b845260228301526042820152604281526104fe81611d59565b51902061262e565b91909161252f565b16036105205761051d92612736565b80f35b60405162461bcd60e51b815260206004820152601e60248201527f45524332305065726d69743a20696e76616c6964207369676e617475726500006044820152606490fd5b60405162461bcd60e51b815260206004820152601d60248201527f45524332305065726d69743a206578706972656420646561646c696e650000006044820152606490fd5b50346102f257806003193601126102f2576008546040516001600160a01b039091168152602090f35b50346102f257806003193601126102f2576023546040516001600160a01b039091168152602090f35b50346102f257806003193601126102f2576020601c54604051908152f35b50346102f257806003193601126102f25760606021546040519060018060401b0380821683528160401c16602083015260801c6040820152f35b50346102f257806003193601126102f2576020601854604051908152f35b50346102f25760403660031901126102f25761068c611b48565b60243580928115801590610743575b6106d3575b50506040519182526001600160a01b03169033906000805160206129e683398151915290602090a3602060405160018152f35b338152600160205260408120546106ec83821015612483565b6001600160a01b0384169033829003610707575b50506106a0565b60409361071e916107198415156124c8565b611eae565b338352600160205283832055815220610738838254611ebb565b905581388080610700565b50336001600160a01b0384161461069b565b50346102f25760403660031901126102f257606061077d610774611b48565b60243590611f82565b9060405192835260208301526040820152f35b50346102f257806003193601126102f2576020602a54604051908152f35b50346102f25760403660031901126102f25760206107d66107cd611b48565b602435906121f7565b604051908152f35b50346102f2576101603660031901126102f2576024906004356001600160a01b03833581811690819003610ba3576001600160401b039060443590828211610b9f5736602383011215610b9f578160040135928311610b9f5736878484010111610b9f5760643594848616809603610b9b5761085f85600554163314611dcc565b80610b63575b5080610b25575b50816109d9575b50509080929350610999575b505060843580610981575b5060a43580610969575b5060c43580610952575b5060e4358061092e575b50610104358061090a575b5061012435806108e1575b5061014435806108cc575080f35b6108db620186a0821115611e17565b601c5580f35b60008051602061298683398151915260406014548151908152836020820152a1601455386108be565b610918620186a08210611e17565b6109256019548211611e17565b601a55386108b3565b61093c620186a08210611e17565b610949601a548210611e17565b601955386108a8565b610960620186a08210611e17565b601b553861089e565b610978620186a0821115611e17565b60185538610894565b610990620186a0821115611e17565b6017553861088a565b816008549182167f5a62d22209e370e38eea92cfddcd228e656e6ec139243392a760a7769f5877fd8580a36001600160a01b03191617600855388061087f565b6109e4601054611c4e565b601f8111610ad4575b508490601f8311600114610a5b57908596918394959693610a4e575b5050508160011b916000199060031b1c1916176010555b7fa6f004921c944d4b8bf6e38462b00f36a58d62495d56b51f571ab78f732c98158380a19082913880610873565b0101359050388080610a09565b60108652601f19831696600080516020612a26833981519152928760205b8a8210610aba5750508460019697989910610a9e575b50505050811b01601055610a20565b60001960f88660031b161c199201013516905538808080610a8f565b806001849786839596890101358155019601920190610a79565b60108652600080516020612a26833981519152601f840160051c81019160208510610b1b575b601f0160051c01905b818110610b1057506109ed565b868155600101610b03565b9091508190610afa565b600f80546001600160a01b0319169190911790557f0b2d6eb667d0522c3eb86e4288afecae6c11591ffd1345d4d12407e0598bca9b8580a13861086c565b610b72620186a0821115611e17565b6000805160206129a68339815191526040601d548151908152836020820152a1601d5538610865565b8680fd5b8580fd5b8380fd5b50346102f257806003193601126102f257808060018060a01b03600b541660405160208101906395d89b4160e01b825260048152610be481611d0d565b51915afa610bf061278d565b915015610c5057610c0361032891612814565b610c3c6023604051809362746d2d60e81b6020830152610c2c8151809260208686019101611b79565b8101036003810184520182611d74565b604051918291602083526020830190611b9c565b50610328610c5c6127bd565b610c03565b50346102f257806003193601126102f2576020601d54604051908152f35b50346102f25760403660031901126102f2576004356001600160401b038111610e675736602382011215610e675780600401359082610cbd83611db1565b91610ccb6040519384611d74565b83835260208301933660248284010111610e6357806024602093018637830101526024359161ffff83168303610ba35761010082805181010312610ba357610d12906120e7565b610d1e6040830161250d565b90610d2b6060840161250d565b9360808401519360a081015191610d4460c08301612521565b9061010060e084015193015193804211610565578515610e4f57600080516020612a068339815191525b610d806001600160a01b0389166126b3565b6040805161ffff9590951660208601528401919091526001600160a01b0388811660608501528a16608084015260a0830189905260c083015260e080830191909152815261010081016001600160401b03811182821017610e3b57916105069391610df89593604052602081519101206104d561235a565b6001600160a01b038381169116036105205715610e255761051d926001600160a01b039081169116612736565b61051d926001600160a01b0390811691166126df565b634e487b7160e01b8a52604160045260248afd5b600080516020612a46833981519152610d6e565b8280fd5b5080fd5b50346102f257806003193601126102f2576005546040516001600160a01b039091168152602090f35b50346102f257806003193601126102f2576020601954604051908152f35b50346102f257806003193601126102f25760125460405190819061032890608081901c906001600160801b031683611d97565b50346102f257806003193601126102f2576020602c54604051908152f35b50346102f25760403660031901126102f257610f2a610f20611b48565b60243590336126df565b602060405160018152f35b50346102f25760203660031901126102f2576020906040906001600160a01b03610f5d611b48565b168152600483522054604051908152f35b50346102f257806003193601126102f257600f546040516001600160a01b039091168152602090f35b50346102f257806003193601126102f257610328604051610c3c81610fbb81611c88565b0382611d74565b50346102f25760203660031901126102f2576004359060098210156102f257602060ff610fee84611c1f565b54166040519015158152f35b50346102f25760203660031901126102f25760043561102460018060a01b03600554163314611dcc565b60008051602061298683398151915260406014548151908152836020820152a160145580f35b50346102f25760203660031901126102f2576020906040906001600160a01b03611072611b48565b168152600183522054604051908152f35b50346102f257806003193601126102f257600a546040516001600160a01b039091168152602090f35b50346102f257806003193601126102f2576020601a54604051908152f35b50346102f257806003193601126102f257602b546040805191901c6001600160401b03168152602090f35b50346102f257806003193601126102f257602b546040516001600160401b039091168152602090f35b50346102f257806003193601126102f257602d546040516001600160401b039091168152602090f35b50346102f257806003193601126102f2576020601e54604051908152f35b50346102f25760203660031901126102f25760043561118f60018060a01b03600554163314611dcc565b61119e620186a0821115611e17565b6000805160206129a68339815191526040601d548151908152836020820152a1601d5580f35b50346102f257806003193601126102f2576006546001600160a01b03908181163381900361121c57806005549384166000805160206129c68339815191528680a36001600160a01b0319928316176005551660065580f35b606460405162461bcd60e51b815260206004820152602060248201527f4f776e61626c653a2063616c6c657220213d2070656e64696e67206f776e65726044820152fd5b50346102f257806003193601126102f2576020602754604051908152f35b50346102f25760203660031901126102f2576020906040906001600160a01b036112a6611b48565b168152601583522054604051908152f35b50346102f257806003193601126102f2576020601354604051908152f35b50346102f257806003193601126102f2576020600e54604051908152f35b50346102f257806003193601126102f2576020601454604051908152f35b50346102f25760603660031901126102f25760206107d6604435602435600435611ec8565b50346102f257806003193601126102f2576020601154604051908152f35b50346102f257806003193601126102f257600d546040516001600160a01b039091168152602090f35b50346102f257806003193601126102f25760206107d661235a565b50346102f257806003193601126102f2576020601754604051908152f35b50346102f257806003193601126102f257808060018060a01b03600d5416604051602081019063313ce56760e01b8252600481526113f381611d0d565b51915afa9061140061278d565b918061143d575b15611432576020828051810103126102f257506114276020809201612521565b60ff60405191168152f35b505060206012611427565b506020825114611407565b50346102f25760603660031901126102f257611462611b48565b9061146b611b63565b60443591826114a9575b506040519182526001600160a01b039081169216906000805160206129e683398151915290602090a3602060405160018152f35b6001600160a01b038481168083526001602090815260408420549286906114d282861015612483565b8616938484036114e7575b5050505050611475565b838652600283526040808720338852845286205460018101611551575b509260016020969361152f87946040976107196000805160206129e68339815191529c9a15156124c8565b9285525283832055815220611545858254611ebb565b905591388085816114dd565b909181106115a5579260016020969361152f8a6000805160206129e68339815191529a98956115828260409a611eae565b86895260028552898920338a528552898920559497509497995050939650611504565b60405162461bcd60e51b815260048101849052601860248201527745524332303a20616c6c6f77616e636520746f6f206c6f7760401b6044820152606490fd5b50346102f2576115f436611bd0565b908392939594954211610565576116639161050691611612896126b3565b956040516020810190600080516020612a46833981519152825260018060a01b0397888d16998a6040840152898c1660608401528c608084015260a083015260c082015260c081526104ca81611d3e565b16036105205761051d926126df565b50346102f25760203660031901126102f2576020906040906001600160a01b0361169a611b48565b168152601683522054604051908152f35b50346102f257806003193601126102f257602060225460801c604051908152f35b50346102f25760403660031901126102f2576004356009811015610e67576116f2611bc1565b6008549091906001600160a01b031633036117b85760ff61171282611c1f565b5416151591151591821461177e57807feeec81de25875ce1725479bb76f720a8defdb43dea041919ae37bb4aae9847c0606060ff61175261176e95611c1f565b54166040519084825215156020820152856040820152a1611c1f565b9060ff8019835416911617905580f35b60405162461bcd60e51b81526020600482015260126024820152714d61726b65743a2073616d6520737461746560701b6044820152606490fd5b60405162461bcd60e51b815260206004820152601460248201527313585c9ad95d0e881d5b985d5d1a1bdc9a5e995960621b6044820152606490fd5b50346102f25760403660031901126102f257610f2a611811611b48565b6024359033612736565b50346102f25760603660031901126102f257611835611b48565b61183d611bc1565b604435908115158203610ba35760018060a01b0392839161186383600554163314611dcc565b156118f55716908115908115916118ed575b50156118b057806005549283166000805160206129c68339815191528580a36001600160a01b03199182161760055560068054909116905580f35b60405162461bcd60e51b81526020600482015260156024820152744f776e61626c653a207a65726f206164647265737360581b6044820152606490fd5b905038611875565b9150501660018060a01b0319600654161760065580f35b50346102f257806003193601126102f257808060018060a01b03600b541660405160208101906306fdde0360e01b82526004815261194981611d0d565b51915afa61195561278d565b9150156119b25761196861032891612814565b610c3c6034604051809373546170696f63612053696e67756c61726974792d60601b60208301526119a28151809260208686019101611b79565b8101036014810184520182611d74565b506103286119be6127bd565b611968565b50346102f257806003193601126102f257600f546040805163d6d7d52560e01b8152602060048201529182906001600160a01b0316818581611a0760248201611c88565b03925af1908115611af557828092611ab2575b50509080600014611aa6578115611a6a57816040926011557f9f9192b5edb17356c524e08d9e025c8e2f6307e6ea52fb7968faa3081f51c3c860208451838152a15b825191151582526020820152f35b60405162461bcd60e51b81526020600482015260146024820152734d61726b65743a20696e76616c6964207261746560601b6044820152606490fd5b60409150601154611a5c565b915091506040823d604011611aed575b81611acf60409383611d74565b810103126102f257506020611ae3826120e7565b9101513880611a1a565b3d9150611ac2565b6040513d84823e3d90fd5b905034610e67576040366003190112610e67576040602092611b20611b48565b611b28611b63565b6001600160a01b0391821683526003865283832091168252845220548152f35b600435906001600160a01b0382168203611b5e57565b600080fd5b602435906001600160a01b0382168203611b5e57565b60005b838110611b8c5750506000910152565b8181015183820152602001611b7c565b90602091611bb581518092818552858086019101611b79565b601f01601f1916010190565b602435908115158203611b5e57565b60e0906003190112611b5e576001600160a01b03906004358281168103611b5e57916024359081168103611b5e5790604435906064359060843560ff81168103611b5e579060a4359060c43590565b6009811015611c38576000526007602052604060002090565b634e487b7160e01b600052602160045260246000fd5b90600182811c92168015611c7e575b6020831014611c6857565b634e487b7160e01b600052602260045260246000fd5b91607f1691611c5d565b60105460009291611c9882611c4e565b908181526001928381169081600014611cf25750600114611cb857505050565b9092935060106000526020928360002092846000945b838610611cde5750505050010190565b805485870183015294019385908201611cce565b91935050602093945060ff191683830152151560051b010190565b604081019081106001600160401b03821117611d2857604052565b634e487b7160e01b600052604160045260246000fd5b60e081019081106001600160401b03821117611d2857604052565b608081019081106001600160401b03821117611d2857604052565b601f909101601f19168101906001600160401b03821190821017611d2857604052565b6001600160801b0391821681529116602082015260400190565b6001600160401b038111611d2857601f01601f191660200190565b15611dd357565b606460405162461bcd60e51b815260206004820152602060248201527f4f776e61626c653a2063616c6c6572206973206e6f7420746865206f776e65726044820152fd5b15611e1e57565b60405162461bcd60e51b815260206004820152601160248201527013585c9ad95d0e881b9bdd081d985b1a59607a1b6044820152606490fd5b81810292918115918404141715611e6a57565b634e487b7160e01b600052601160045260246000fd5b604d8111611e6a57600a0a90565b8115611e98570490565b634e487b7160e01b600052601260045260246000fd5b91908203918211611e6a57565b91908201809211611e6a57565b919091611eea611edb601c548095611e57565b611ee484611e80565b90611e8e565b90818110611f7957611f3a91611eff91611eae565b92611f34611f2b611f0f85611e80565b92611f25611f1c87611e80565b601e5490611ebb565b90611e57565b611ee485611e80565b90611eae565b906012039060128211611e6a57611f25611f5392611e80565b670de0b6b3a764000091828102928184041490151715611e6a57611f7691611e8e565b90565b50505050600090565b9160018060a01b0380931691600093838552602060158152604091828720549081156120da5783518085016001600160401b03811182821017610e3b578552888152888480830193828552611fd88915156120f4565b600954166064600c548c85526016845289852054928a51958694859363442c159960e01b85526004850152602484015260448301525afa9081156120d0578a9161209d575b5061209197989994926016949261206c6120578a61205261204961207597620186a0601f540490611e57565b601c5490611e57565b611e8e565b915191946001600160801b0392831690611e57565b91511690611e8e565b908082106120955761208691611eae565b978352522054612140565b9091565b505082612086565b90508481813d83116120c9575b6120b48183611d74565b810103126120c5575161209161201d565b8980fd5b503d6120aa565b86513d8c823e3d90fd5b5086955085949350505050565b51908115158203611b5e57565b156120fb57565b60405162461bcd60e51b815260206004820152601e60248201527f4d61726b65743a2065786368616e676552617465206e6f742076616c696400006044820152606490fd5b61214b8215156120f4565b602060018060a01b0360095416916064600c54604051948593849263442c159960e01b845260048401526024830152600060448301525afa9081156121eb576000916121b8575b50906120526121a492601f5490611e57565b620186a06121b4601c5483611e57565b0491565b906020823d82116121e3575b816121d160209383611d74565b810103126102f2575051612052612192565b3d91506121c4565b6040513d6000823e3d90fd5b6001600160a01b0316600081815260166020526040812054909261221a91612140565b91835260156020526040832054801561235457811561235457818110612354578281101561234a5760125461226d91839161071991612263906001600160801b03831690611e57565b9060801c90611e8e565b90620186a09283830292808404851490151715612322576122929291611ee491611eae565b9160195491601a549384840390838612858312811690868413901516176123365781810291848112600160ff1b83141661232257820514858514171561230e57058184820194851291129080158216911516176122fa57508082126122f5575090565b905090565b634e487b7160e01b81526011600452602490fd5b634e487b7160e01b83526011600452602483fd5b634e487b7160e01b85526011600452602485fd5b634e487b7160e01b84526011600452602484fd5b5050505060195490565b50505090565b307f00000000000000000000000000000000000000000000000000000000000000006001600160a01b0316148061245a575b156123b5577f000000000000000000000000000000000000000000000000000000000000000090565b60405160208101907f000000000000000000000000000000000000000000000000000000000000000082527f000000000000000000000000000000000000000000000000000000000000000060408201527f000000000000000000000000000000000000000000000000000000000000000060608201524660808201523060a082015260a0815260c0810181811060018060401b03821117611d285760405251902090565b507f0000000000000000000000000000000000000000000000000000000000000000461461238c565b1561248a57565b60405162461bcd60e51b815260206004820152601660248201527545524332303a2062616c616e636520746f6f206c6f7760501b6044820152606490fd5b156124cf57565b60405162461bcd60e51b815260206004820152601660248201527545524332303a206e6f207a65726f206164647265737360501b6044820152606490fd5b51906001600160a01b0382168203611b5e57565b519060ff82168203611b5e57565b6005811015611c3857806125405750565b600181036125885760405162461bcd60e51b815260206004820152601860248201527745434453413a20696e76616c6964207369676e617475726560401b6044820152606490fd5b600281036125d55760405162461bcd60e51b815260206004820152601f60248201527f45434453413a20696e76616c6964207369676e6174757265206c656e677468006044820152606490fd5b6003146125de57565b60405162461bcd60e51b815260206004820152602260248201527f45434453413a20696e76616c6964207369676e6174757265202773272076616c604482015261756560f01b6064820152608490fd5b9291906fa2a8918ca85bafe22016d0b997e4df60600160ff1b0383116126a75791608094939160ff602094604051948552168484015260408301526060820152600093849182805260015afa1561269a5781516001600160a01b03811615612694579190565b50600190565b50604051903d90823e3d90fd5b50505050600090600390565b6001600160a01b031660009081526004602052604090208054906000198214611e6a5760018201905590565b909160207fe50de2333c10a9502fcb1d8ae13a51bbf423153dfc63c2b8997665b32154afc39160018060a01b03809416938460005260038352604060002095169485600052825280604060002055604051908152a3565b909160207f8c5be1e5ebec7d5bd14f71427d1e84f3dd0314c0f7b2291e5b200ac8c7c3b9259160018060a01b03809416938460005260028352604060002095169485600052825280604060002055604051908152a3565b3d156127b8573d9061279e82611db1565b916127ac6040519384611d74565b82523d6000602084013e565b606090565b604051906127ca82611d0d565b60038252623f3f3f60e81b6020830152565b9081518110156127ed570160200190565b634e487b7160e01b600052603260045260246000fd5b60ff1660ff8114611e6a5760010190565b80516040811061288c57508051810190602081818401930312611b5e576020810151906001600160401b038211611b5e570181603f82011215611b5e57602081015161285f81611db1565b9261286d6040519485611d74565b81845260408284010111611b5e57611f76916040602085019101611b79565b60209290830361297a576000805b60ff8116858110908161295b575b50156128bc576128b790612803565b61289a565b9260ff809416926128cc84611db1565b936128da6040519586611d74565b8085526128e9601f1991611db1565b013687860137825b8581168781108061293e575b156129335761292e91906129286001600160f81b031961291d83886127dc565b5116871a91886127dc565b53612803565b6128f1565b505094505050905090565b506001600160f81b031961295282866127dc565b511615156128fd565b6001600160f81b0319915061297090866127dc565b51161515386128a8565b915050611f766127bd56feae6e0ab3b95f0a53ff9660a390ccedcbbf1f2355dce974a9841af106fddcfabac353b09af857951dccce61b43a5854fc45beceed36c50e5d4cc2e71858a8e0df8be0079c531659141344cd1fd0a4f28419497f9722a3daafe3b4186f6b6457e0ddf252ad1be2c89b69c2b068fc378daa952ba7f163c4a11628f55a4df523b3ef6e71edae12b1b97f4d1f60370fef10105fa2faae0126114a169c64845d6126c91b6847dc741a1b0cd08d278845f9d819d87b734759afb55fe2de5cb82a9ae672e9685ff6d48c617fe4f692c50e602cce27cbad0290beb93cfa77eac43968d58ca2646970667358221220276bfabe48f2e49534e39e526e1c744f445870425b674c2939da5c987458fa4464736f6c63430008120033",
  "linkReferences": {},
  "deployedLinkReferences": {}
}