{
  "_format": "hh-sol-artifact-1",
  "contractName": "Singularity",
  "sourceName": "contracts/markets/singularity/Singularity.sol",
  "abi": [
    {
      "anonymous": false,
      "inputs": [
        {
          "indexed": true,
          "internalType": "address",
          "name": "owner",
          "type": "address"
        },
        {
          "indexed": true,
          "internalType": "address",
          "name": "spender",
          "type": "address"
        },
        {
          "indexed": false,
          "internalType": "uint256",
          "name": "value",
          "type": "uint256"
        }
      ],
      "name": "Approval",
      "type": "event"
    },
    {
      "anonymous": false,
      "inputs": [
        {
          "indexed": true,
          "internalType": "address",
          "name": "owner",
          "type": "address"
        },
        {
          "indexed": true,
          "internalType": "address",
          "name": "spender",
          "type": "address"
        },
        {
          "indexed": false,
          "internalType": "uint256",
          "name": "value",
          "type": "uint256"
        }
      ],
      "name": "ApprovalBorrow",
      "type": "event"
    },
    {
      "anonymous": false,
      "inputs": [
        {
          "indexed": true,
          "internalType": "address",
          "name": "newAddress",
          "type": "address"
        }
      ],
      "name": "BidExecutionSwapperUpdated",
      "type": "event"
    },
    {
      "anonymous": false,
      "inputs": [
        {
          "indexed": true,
          "internalType": "address",
          "name": "old",
          "type": "address"
        },
        {
          "indexed": true,
          "internalType": "address",
          "name": "_new",
          "type": "address"
        }
      ],
      "name": "ConservatorUpdated",
      "type": "event"
    },
    {
      "anonymous": false,
      "inputs": [
        {
          "indexed": false,
          "internalType": "uint256",
          "name": "oldVal",
          "type": "uint256"
        },
        {
          "indexed": false,
          "internalType": "uint256",
          "name": "newVal",
          "type": "uint256"
        }
      ],
      "name": "InterestElasticityUpdated",
      "type": "event"
    },
    {
      "anonymous": false,
      "inputs": [
        {
          "indexed": true,
          "internalType": "address",
          "name": "liquidator",
          "type": "address"
        },
        {
          "indexed": false,
          "internalType": "address[]",
          "name": "users",
          "type": "address[]"
        },
        {
          "indexed": false,
          "internalType": "uint256",
          "name": "liquidatorReward",
          "type": "uint256"
        },
        {
          "indexed": false,
          "internalType": "uint256",
          "name": "protocolReward",
          "type": "uint256"
        },
        {
          "indexed": false,
          "internalType": "uint256",
          "name": "repayedAmount",
          "type": "uint256"
        },
        {
          "indexed": false,
          "internalType": "uint256",
          "name": "collateralShareRemoved",
          "type": "uint256"
        }
      ],
      "name": "Liquidated",
      "type": "event"
    },
    {
      "anonymous": false,
      "inputs": [
        {
          "indexed": false,
          "internalType": "uint256",
          "name": "oldVal",
          "type": "uint256"
        },
        {
          "indexed": false,
          "internalType": "uint256",
          "name": "newVal",
          "type": "uint256"
        }
      ],
      "name": "LiquidationMultiplierUpdated",
      "type": "event"
    },
    {
      "anonymous": false,
      "inputs": [
        {
          "indexed": false,
          "internalType": "uint256",
          "name": "accruedAmount",
          "type": "uint256"
        },
        {
          "indexed": false,
          "internalType": "uint256",
          "name": "feeFraction",
          "type": "uint256"
        },
        {
          "indexed": false,
          "internalType": "uint64",
          "name": "rate",
          "type": "uint64"
        },
        {
          "indexed": false,
          "internalType": "uint256",
          "name": "utilization",
          "type": "uint256"
        }
      ],
      "name": "LogAccrue",
      "type": "event"
    },
    {
      "anonymous": false,
      "inputs": [
        {
          "indexed": true,
          "internalType": "address",
          "name": "from",
          "type": "address"
        },
        {
          "indexed": true,
          "internalType": "address",
          "name": "to",
          "type": "address"
        },
        {
          "indexed": false,
          "internalType": "uint256",
          "name": "share",
          "type": "uint256"
        },
        {
          "indexed": false,
          "internalType": "uint256",
          "name": "fraction",
          "type": "uint256"
        }
      ],
      "name": "LogAddAsset",
      "type": "event"
    },
    {
      "anonymous": false,
      "inputs": [
        {
          "indexed": true,
          "internalType": "address",
          "name": "from",
          "type": "address"
        },
        {
          "indexed": true,
          "internalType": "address",
          "name": "to",
          "type": "address"
        },
        {
          "indexed": false,
          "internalType": "uint256",
          "name": "share",
          "type": "uint256"
        }
      ],
      "name": "LogAddCollateral",
      "type": "event"
    },
    {
      "anonymous": false,
      "inputs": [
        {
          "indexed": true,
          "internalType": "address",
          "name": "from",
          "type": "address"
        },
        {
          "indexed": true,
          "internalType": "address",
          "name": "to",
          "type": "address"
        },
        {
          "indexed": false,
          "internalType": "uint256",
          "name": "amount",
          "type": "uint256"
        },
        {
          "indexed": false,
          "internalType": "uint256",
          "name": "feeAmount",
          "type": "uint256"
        },
        {
          "indexed": false,
          "internalType": "uint256",
          "name": "part",
          "type": "uint256"
        }
      ],
      "name": "LogBorrow",
      "type": "event"
    },
    {
      "anonymous": false,
      "inputs": [
        {
          "indexed": false,
          "internalType": "uint256",
          "name": "_oldVal",
          "type": "uint256"
        },
        {
          "indexed": false,
          "internalType": "uint256",
          "name": "_newVal",
          "type": "uint256"
        }
      ],
      "name": "LogBorrowCapUpdated",
      "type": "event"
    },
    {
      "anonymous": false,
      "inputs": [
        {
          "indexed": false,
          "internalType": "uint256",
          "name": "_oldVal",
          "type": "uint256"
        },
        {
          "indexed": false,
          "internalType": "uint256",
          "name": "_newVal",
          "type": "uint256"
        }
      ],
      "name": "LogBorrowingFee",
      "type": "event"
    },
    {
      "anonymous": false,
      "inputs": [
        {
          "indexed": false,
          "internalType": "uint256",
          "name": "rate",
          "type": "uint256"
        }
      ],
      "name": "LogExchangeRate",
      "type": "event"
    },
    {
      "anonymous": false,
      "inputs": [
        {
          "indexed": true,
          "internalType": "address",
          "name": "from",
          "type": "address"
        },
        {
          "indexed": true,
          "internalType": "address",
          "name": "to",
          "type": "address"
        },
        {
          "indexed": false,
          "internalType": "uint256",
          "name": "share",
          "type": "uint256"
        },
        {
          "indexed": false,
          "internalType": "uint256",
          "name": "fraction",
          "type": "uint256"
        }
      ],
      "name": "LogRemoveAsset",
      "type": "event"
    },
    {
      "anonymous": false,
      "inputs": [
        {
          "indexed": true,
          "internalType": "address",
          "name": "from",
          "type": "address"
        },
        {
          "indexed": true,
          "internalType": "address",
          "name": "to",
          "type": "address"
        },
        {
          "indexed": false,
          "internalType": "uint256",
          "name": "share",
          "type": "uint256"
        }
      ],
      "name": "LogRemoveCollateral",
      "type": "event"
    },
    {
      "anonymous": false,
      "inputs": [
        {
          "indexed": true,
          "internalType": "address",
          "name": "from",
          "type": "address"
        },
        {
          "indexed": true,
          "internalType": "address",
          "name": "to",
          "type": "address"
        },
        {
          "indexed": false,
          "internalType": "uint256",
          "name": "amount",
          "type": "uint256"
        },
        {
          "indexed": false,
          "internalType": "uint256",
          "name": "part",
          "type": "uint256"
        }
      ],
      "name": "LogRepay",
      "type": "event"
    },
    {
      "anonymous": false,
      "inputs": [
        {
          "indexed": true,
          "internalType": "address",
          "name": "feeTo",
          "type": "address"
        },
        {
          "indexed": false,
          "internalType": "uint256",
          "name": "feesEarnedFraction",
          "type": "uint256"
        }
      ],
      "name": "LogWithdrawFees",
      "type": "event"
    },
    {
      "anonymous": false,
      "inputs": [
        {
          "indexed": false,
          "internalType": "uint256",
          "name": "feeShares",
          "type": "uint256"
        },
        {
          "indexed": false,
          "internalType": "uint256",
          "name": "ethAmount",
          "type": "uint256"
        }
      ],
      "name": "LogYieldBoxFeesDeposit",
      "type": "event"
    },
    {
      "anonymous": false,
      "inputs": [
        {
          "indexed": false,
          "internalType": "uint256",
          "name": "oldVal",
          "type": "uint256"
        },
        {
          "indexed": false,
          "internalType": "uint256",
          "name": "newVal",
          "type": "uint256"
        }
      ],
      "name": "LqCollateralizationRateUpdated",
      "type": "event"
    },
    {
      "anonymous": false,
      "inputs": [
        {
          "indexed": false,
          "internalType": "uint256",
          "name": "oldVal",
          "type": "uint256"
        },
        {
          "indexed": false,
          "internalType": "uint256",
          "name": "newVal",
          "type": "uint256"
        }
      ],
      "name": "MaximumInterestPerSecondUpdated",
      "type": "event"
    },
    {
      "anonymous": false,
      "inputs": [
        {
          "indexed": false,
          "internalType": "uint256",
          "name": "oldVal",
          "type": "uint256"
        },
        {
          "indexed": false,
          "internalType": "uint256",
          "name": "newVal",
          "type": "uint256"
        }
      ],
      "name": "MaximumTargetUtilizationUpdated",
      "type": "event"
    },
    {
      "anonymous": false,
      "inputs": [
        {
          "indexed": false,
          "internalType": "uint256",
          "name": "oldVal",
          "type": "uint256"
        },
        {
          "indexed": false,
          "internalType": "uint256",
          "name": "newVal",
          "type": "uint256"
        }
      ],
      "name": "MinimumInterestPerSecondUpdated",
      "type": "event"
    },
    {
      "anonymous": false,
      "inputs": [
        {
          "indexed": false,
          "internalType": "uint256",
          "name": "oldVal",
          "type": "uint256"
        },
        {
          "indexed": false,
          "internalType": "uint256",
          "name": "newVal",
          "type": "uint256"
        }
      ],
      "name": "MinimumTargetUtilizationUpdated",
      "type": "event"
    },
    {
      "anonymous": false,
      "inputs": [],
      "name": "OracleDataUpdated",
      "type": "event"
    },
    {
      "anonymous": false,
      "inputs": [],
      "name": "OracleUpdated",
      "type": "event"
    },
    {
      "anonymous": false,
      "inputs": [
        {
          "indexed": false,
          "internalType": "uint256",
          "name": "oldVal",
          "type": "uint256"
        },
        {
          "indexed": false,
          "internalType": "uint256",
          "name": "newVal",
          "type": "uint256"
        }
      ],
      "name": "OrderBookLiquidationMultiplierUpdated",
      "type": "event"
    },
    {
      "anonymous": false,
      "inputs": [
        {
          "indexed": true,
          "internalType": "address",
          "name": "previousOwner",
          "type": "address"
        },
        {
          "indexed": true,
          "internalType": "address",
          "name": "newOwner",
          "type": "address"
        }
      ],
      "name": "OwnershipTransferred",
      "type": "event"
    },
    {
      "anonymous": false,
      "inputs": [
        {
          "indexed": false,
          "internalType": "enum Market.PauseType",
          "name": "_type",
          "type": "uint8"
        },
        {
          "indexed": false,
          "internalType": "bool",
          "name": "oldState",
          "type": "bool"
        },
        {
          "indexed": false,
          "internalType": "bool",
          "name": "newState",
          "type": "bool"
        }
      ],
      "name": "PausedUpdated",
      "type": "event"
    },
    {
      "anonymous": false,
      "inputs": [
        {
          "indexed": true,
          "internalType": "address",
          "name": "from",
          "type": "address"
        },
        {
          "indexed": true,
          "internalType": "address",
          "name": "to",
          "type": "address"
        },
        {
          "indexed": false,
          "internalType": "uint256",
          "name": "value",
          "type": "uint256"
        }
      ],
      "name": "Transfer",
      "type": "event"
    },
    {
      "anonymous": false,
      "inputs": [
        {
          "indexed": true,
          "internalType": "address",
          "name": "newAddress",
          "type": "address"
        }
      ],
      "name": "UsdoSwapperUpdated",
      "type": "event"
    },
    {
      "inputs": [],
      "name": "DOMAIN_SEPARATOR",
      "outputs": [
        {
          "internalType": "bytes32",
          "name": "",
          "type": "bytes32"
        }
      ],
      "stateMutability": "view",
      "type": "function"
    },
    {
      "inputs": [],
      "name": "accrue",
      "outputs": [],
      "stateMutability": "nonpayable",
      "type": "function"
    },
    {
      "inputs": [],
      "name": "accrueInfo",
      "outputs": [
        {
          "internalType": "uint64",
          "name": "interestPerSecond",
          "type": "uint64"
        },
        {
          "internalType": "uint64",
          "name": "lastAccrued",
          "type": "uint64"
        },
        {
          "internalType": "uint128",
          "name": "feesEarnedFraction",
          "type": "uint128"
        }
      ],
      "stateMutability": "view",
      "type": "function"
    },
    {
      "inputs": [
        {
          "internalType": "address",
          "name": "from",
          "type": "address"
        },
        {
          "internalType": "address",
          "name": "to",
          "type": "address"
        },
        {
          "internalType": "bool",
          "name": "skim",
          "type": "bool"
        },
        {
          "internalType": "uint256",
          "name": "share",
          "type": "uint256"
        }
      ],
      "name": "addAsset",
      "outputs": [
        {
          "internalType": "uint256",
          "name": "fraction",
          "type": "uint256"
        }
      ],
      "stateMutability": "nonpayable",
      "type": "function"
    },
    {
      "inputs": [
        {
          "internalType": "address",
          "name": "from",
          "type": "address"
        },
        {
          "internalType": "address",
          "name": "to",
          "type": "address"
        },
        {
          "internalType": "bool",
          "name": "skim",
          "type": "bool"
        },
        {
          "internalType": "uint256",
          "name": "amount",
          "type": "uint256"
        },
        {
          "internalType": "uint256",
          "name": "share",
          "type": "uint256"
        }
      ],
      "name": "addCollateral",
      "outputs": [],
      "stateMutability": "nonpayable",
      "type": "function"
    },
    {
      "inputs": [
        {
          "internalType": "address",
          "name": "",
          "type": "address"
        },
        {
          "internalType": "address",
          "name": "",
          "type": "address"
        }
      ],
      "name": "allowance",
      "outputs": [
        {
          "internalType": "uint256",
          "name": "",
          "type": "uint256"
        }
      ],
      "stateMutability": "view",
      "type": "function"
    },
    {
      "inputs": [
        {
          "internalType": "address",
          "name": "",
          "type": "address"
        },
        {
          "internalType": "address",
          "name": "",
          "type": "address"
        }
      ],
      "name": "allowanceBorrow",
      "outputs": [
        {
          "internalType": "uint256",
          "name": "",
          "type": "uint256"
        }
      ],
      "stateMutability": "view",
      "type": "function"
    },
    {
      "inputs": [
        {
          "internalType": "address",
          "name": "spender",
          "type": "address"
        },
        {
          "internalType": "uint256",
          "name": "amount",
          "type": "uint256"
        }
      ],
      "name": "approve",
      "outputs": [
        {
          "internalType": "bool",
          "name": "",
          "type": "bool"
        }
      ],
      "stateMutability": "nonpayable",
      "type": "function"
    },
    {
      "inputs": [
        {
          "internalType": "address",
          "name": "spender",
          "type": "address"
        },
        {
          "internalType": "uint256",
          "name": "amount",
          "type": "uint256"
        }
      ],
      "name": "approveBorrow",
      "outputs": [
        {
          "internalType": "bool",
          "name": "",
          "type": "bool"
        }
      ],
      "stateMutability": "nonpayable",
      "type": "function"
    },
    {
      "inputs": [],
      "name": "asset",
      "outputs": [
        {
          "internalType": "contract IERC20",
          "name": "",
          "type": "address"
        }
      ],
      "stateMutability": "view",
      "type": "function"
    },
    {
      "inputs": [],
      "name": "assetId",
      "outputs": [
        {
          "internalType": "uint256",
          "name": "",
          "type": "uint256"
        }
      ],
      "stateMutability": "view",
      "type": "function"
    },
    {
      "inputs": [
        {
          "internalType": "address",
          "name": "",
          "type": "address"
        }
      ],
      "name": "balanceOf",
      "outputs": [
        {
          "internalType": "uint256",
          "name": "",
          "type": "uint256"
        }
      ],
      "stateMutability": "view",
      "type": "function"
    },
    {
      "inputs": [
        {
          "internalType": "address",
          "name": "from",
          "type": "address"
        },
        {
          "internalType": "address",
          "name": "to",
          "type": "address"
        },
        {
          "internalType": "uint256",
          "name": "amount",
          "type": "uint256"
        }
      ],
      "name": "borrow",
      "outputs": [
        {
          "internalType": "uint256",
          "name": "part",
          "type": "uint256"
        },
        {
          "internalType": "uint256",
          "name": "share",
          "type": "uint256"
        }
      ],
      "stateMutability": "nonpayable",
      "type": "function"
    },
    {
      "inputs": [],
      "name": "borrowModule",
      "outputs": [
        {
          "internalType": "contract SGLBorrow",
          "name": "",
          "type": "address"
        }
      ],
      "stateMutability": "view",
      "type": "function"
    },
    {
      "inputs": [],
      "name": "borrowOpeningFee",
      "outputs": [
        {
          "internalType": "uint256",
          "name": "",
          "type": "uint256"
        }
      ],
      "stateMutability": "view",
      "type": "function"
    },
    {
      "inputs": [
        {
          "internalType": "address",
          "name": "from",
          "type": "address"
        },
        {
          "internalType": "uint256",
          "name": "borrowAmount",
          "type": "uint256"
        },
        {
          "internalType": "uint256",
          "name": "supplyAmount",
          "type": "uint256"
        },
        {
          "internalType": "uint256",
          "name": "minAmountOut",
          "type": "uint256"
        },
        {
          "internalType": "contract ISwapper",
          "name": "swapper",
          "type": "address"
        },
        {
          "internalType": "bytes",
          "name": "dexData",
          "type": "bytes"
        }
      ],
      "name": "buyCollateral",
      "outputs": [
        {
          "internalType": "uint256",
          "name": "amountOut",
          "type": "uint256"
        }
      ],
      "stateMutability": "nonpayable",
      "type": "function"
    },
    {
      "inputs": [],
      "name": "callerFee",
      "outputs": [
        {
          "internalType": "uint256",
          "name": "",
          "type": "uint256"
        }
      ],
      "stateMutability": "view",
      "type": "function"
    },
    {
      "inputs": [],
      "name": "claimOwnership",
      "outputs": [],
      "stateMutability": "nonpayable",
      "type": "function"
    },
    {
      "inputs": [],
      "name": "collateral",
      "outputs": [
        {
          "internalType": "contract IERC20",
          "name": "",
          "type": "address"
        }
      ],
      "stateMutability": "view",
      "type": "function"
    },
    {
      "inputs": [],
      "name": "collateralId",
      "outputs": [
        {
          "internalType": "uint256",
          "name": "",
          "type": "uint256"
        }
      ],
      "stateMutability": "view",
      "type": "function"
    },
    {
      "inputs": [],
      "name": "collateralModule",
      "outputs": [
        {
          "internalType": "contract SGLCollateral",
          "name": "",
          "type": "address"
        }
      ],
      "stateMutability": "view",
      "type": "function"
    },
    {
      "inputs": [],
      "name": "collateralizationRate",
      "outputs": [
        {
          "internalType": "uint256",
          "name": "",
          "type": "uint256"
        }
      ],
      "stateMutability": "view",
      "type": "function"
    },
    {
      "inputs": [
        {
          "internalType": "uint256",
          "name": "amount",
          "type": "uint256"
        },
        {
          "internalType": "uint256",
          "name": "tokenId",
          "type": "uint256"
        }
      ],
      "name": "computeAllowedLendShare",
      "outputs": [
        {
          "internalType": "uint256",
          "name": "share",
          "type": "uint256"
        }
      ],
      "stateMutability": "view",
      "type": "function"
    },
    {
      "inputs": [
        {
          "internalType": "uint256",
          "name": "borrowPart",
          "type": "uint256"
        },
        {
          "internalType": "uint256",
          "name": "collateralPartInAsset",
          "type": "uint256"
        },
        {
          "internalType": "uint256",
          "name": "ratesPrecision",
          "type": "uint256"
        }
      ],
      "name": "computeClosingFactor",
      "outputs": [
        {
          "internalType": "uint256",
          "name": "",
          "type": "uint256"
        }
      ],
      "stateMutability": "view",
      "type": "function"
    },
    {
      "inputs": [
        {
          "internalType": "address",
          "name": "user",
          "type": "address"
        },
        {
          "internalType": "uint256",
          "name": "_exchangeRate",
          "type": "uint256"
        }
      ],
      "name": "computeLiquidatorReward",
      "outputs": [
        {
          "internalType": "uint256",
          "name": "",
          "type": "uint256"
        }
      ],
      "stateMutability": "view",
      "type": "function"
    },
    {
      "inputs": [
        {
          "internalType": "address",
          "name": "user",
          "type": "address"
        },
        {
          "internalType": "uint256",
          "name": "_exchangeRate",
          "type": "uint256"
        }
      ],
      "name": "computeTVLInfo",
      "outputs": [
        {
          "internalType": "uint256",
          "name": "amountToSolvency",
          "type": "uint256"
        },
        {
          "internalType": "uint256",
          "name": "minTVL",
          "type": "uint256"
        },
        {
          "internalType": "uint256",
          "name": "maxTVL",
          "type": "uint256"
        }
      ],
      "stateMutability": "view",
      "type": "function"
    },
    {
      "inputs": [],
      "name": "conservator",
      "outputs": [
        {
          "internalType": "address",
          "name": "",
          "type": "address"
        }
      ],
      "stateMutability": "view",
      "type": "function"
    },
    {
      "inputs": [],
      "name": "decimals",
      "outputs": [
        {
          "internalType": "uint8",
          "name": "",
          "type": "uint8"
        }
      ],
      "stateMutability": "view",
      "type": "function"
    },
    {
      "inputs": [],
      "name": "exchangeRate",
      "outputs": [
        {
          "internalType": "uint256",
          "name": "",
          "type": "uint256"
        }
      ],
      "stateMutability": "view",
      "type": "function"
    },
    {
      "inputs": [
        {
          "internalType": "bytes[]",
          "name": "calls",
          "type": "bytes[]"
        },
        {
          "internalType": "bool",
          "name": "revertOnFail",
          "type": "bool"
        }
      ],
      "name": "execute",
      "outputs": [
        {
          "internalType": "bool[]",
          "name": "successes",
          "type": "bool[]"
        },
        {
          "internalType": "string[]",
          "name": "results",
          "type": "string[]"
        }
      ],
      "stateMutability": "nonpayable",
      "type": "function"
    },
    {
      "inputs": [],
      "name": "fullUtilizationMinusMax",
      "outputs": [
        {
          "internalType": "uint256",
          "name": "",
          "type": "uint256"
        }
      ],
      "stateMutability": "view",
      "type": "function"
    },
    {
      "inputs": [],
      "name": "getInterestDetails",
      "outputs": [
        {
          "components": [
            {
              "internalType": "uint64",
              "name": "interestPerSecond",
              "type": "uint64"
            },
            {
              "internalType": "uint64",
              "name": "lastAccrued",
              "type": "uint64"
            },
            {
              "internalType": "uint128",
              "name": "feesEarnedFraction",
              "type": "uint128"
            }
          ],
          "internalType": "struct ISingularity.AccrueInfo",
          "name": "_accrueInfo",
          "type": "tuple"
        },
        {
          "internalType": "uint256",
          "name": "utilization",
          "type": "uint256"
        }
      ],
      "stateMutability": "view",
      "type": "function"
    },
    {
      "inputs": [
        {
          "internalType": "bytes",
          "name": "data",
          "type": "bytes"
        }
      ],
      "name": "init",
      "outputs": [],
      "stateMutability": "nonpayable",
      "type": "function"
    },
    {
      "inputs": [],
      "name": "interestElasticity",
      "outputs": [
        {
          "internalType": "uint256",
          "name": "",
          "type": "uint256"
        }
      ],
      "stateMutability": "view",
      "type": "function"
    },
    {
      "inputs": [],
      "name": "leverageModule",
      "outputs": [
        {
          "internalType": "contract SGLLeverage",
          "name": "",
          "type": "address"
        }
      ],
      "stateMutability": "view",
      "type": "function"
    },
    {
      "inputs": [
        {
          "internalType": "address[]",
          "name": "users",
          "type": "address[]"
        },
        {
          "internalType": "uint256[]",
          "name": "maxBorrowParts",
          "type": "uint256[]"
        },
        {
          "internalType": "bytes[]",
          "name": "collateralToAssetSwapDatas",
          "type": "bytes[]"
        },
        {
          "internalType": "bytes",
          "name": "usdoToBorrowedSwapData",
          "type": "bytes"
        },
        {
          "internalType": "contract ISwapper",
          "name": "swapper",
          "type": "address"
        }
      ],
      "name": "liquidate",
      "outputs": [],
      "stateMutability": "nonpayable",
      "type": "function"
    },
    {
      "inputs": [
        {
          "internalType": "address",
          "name": "user",
          "type": "address"
        },
        {
          "internalType": "address",
          "name": "receiver",
          "type": "address"
        },
        {
          "internalType": "contract ISwapper",
          "name": "swapper",
          "type": "address"
        },
        {
          "internalType": "bytes",
          "name": "collateralToAssetSwapData",
          "type": "bytes"
        }
      ],
      "name": "liquidateBadDebt",
      "outputs": [],
      "stateMutability": "nonpayable",
      "type": "function"
    },
    {
      "inputs": [],
      "name": "liquidationBonusAmount",
      "outputs": [
        {
          "internalType": "uint256",
          "name": "",
          "type": "uint256"
        }
      ],
      "stateMutability": "view",
      "type": "function"
    },
    {
      "inputs": [],
      "name": "liquidationModule",
      "outputs": [
        {
          "internalType": "contract SGLLiquidation",
          "name": "",
          "type": "address"
        }
      ],
      "stateMutability": "view",
      "type": "function"
    },
    {
      "inputs": [],
      "name": "liquidationMultiplier",
      "outputs": [
        {
          "internalType": "uint256",
          "name": "",
          "type": "uint256"
        }
      ],
      "stateMutability": "view",
      "type": "function"
    },
    {
      "inputs": [],
      "name": "liquidationQueue",
      "outputs": [
        {
          "internalType": "contract ILiquidationQueue",
          "name": "",
          "type": "address"
        }
      ],
      "stateMutability": "view",
      "type": "function"
    },
    {
      "inputs": [],
      "name": "lqCollateralizationRate",
      "outputs": [
        {
          "internalType": "uint256",
          "name": "",
          "type": "uint256"
        }
      ],
      "stateMutability": "view",
      "type": "function"
    },
    {
      "inputs": [],
      "name": "maxLiquidatorReward",
      "outputs": [
        {
          "internalType": "uint256",
          "name": "",
          "type": "uint256"
        }
      ],
      "stateMutability": "view",
      "type": "function"
    },
    {
      "inputs": [],
      "name": "maximumInterestPerSecond",
      "outputs": [
        {
          "internalType": "uint64",
          "name": "",
          "type": "uint64"
        }
      ],
      "stateMutability": "view",
      "type": "function"
    },
    {
      "inputs": [],
      "name": "maximumTargetUtilization",
      "outputs": [
        {
          "internalType": "uint256",
          "name": "",
          "type": "uint256"
        }
      ],
      "stateMutability": "view",
      "type": "function"
    },
    {
      "inputs": [],
      "name": "minLiquidatorReward",
      "outputs": [
        {
          "internalType": "uint256",
          "name": "",
          "type": "uint256"
        }
      ],
      "stateMutability": "view",
      "type": "function"
    },
    {
      "inputs": [],
      "name": "minimumInterestPerSecond",
      "outputs": [
        {
          "internalType": "uint64",
          "name": "",
          "type": "uint64"
        }
      ],
      "stateMutability": "view",
      "type": "function"
    },
    {
      "inputs": [],
      "name": "minimumTargetUtilization",
      "outputs": [
        {
          "internalType": "uint256",
          "name": "",
          "type": "uint256"
        }
      ],
      "stateMutability": "view",
      "type": "function"
    },
    {
      "inputs": [
        {
          "internalType": "address",
          "name": "from",
          "type": "address"
        },
        {
          "internalType": "uint256",
          "name": "collateralAmount",
          "type": "uint256"
        },
        {
          "internalType": "uint256",
          "name": "borrowAmount",
          "type": "uint256"
        },
        {
          "internalType": "bool",
          "name": "useAirdropped",
          "type": "bool"
        },
        {
          "components": [
            {
              "internalType": "address",
              "name": "tokenOut",
              "type": "address"
            },
            {
              "internalType": "uint256",
              "name": "amountOutMin",
              "type": "uint256"
            },
            {
              "internalType": "bytes",
              "name": "data",
              "type": "bytes"
            }
          ],
          "internalType": "struct IUSDOBase.ILeverageSwapData",
          "name": "swapData",
          "type": "tuple"
        },
        {
          "components": [
            {
              "internalType": "uint256",
              "name": "srcExtraGasLimit",
              "type": "uint256"
            },
            {
              "internalType": "uint16",
              "name": "lzSrcChainId",
              "type": "uint16"
            },
            {
              "internalType": "uint16",
              "name": "lzDstChainId",
              "type": "uint16"
            },
            {
              "internalType": "address",
              "name": "zroPaymentAddress",
              "type": "address"
            },
            {
              "internalType": "bytes",
              "name": "dstAirdropAdapterParam",
              "type": "bytes"
            },
            {
              "internalType": "bytes",
              "name": "srcAirdropAdapterParam",
              "type": "bytes"
            },
            {
              "internalType": "address",
              "name": "refundAddress",
              "type": "address"
            }
          ],
          "internalType": "struct IUSDOBase.ILeverageLZData",
          "name": "lzData",
          "type": "tuple"
        },
        {
          "components": [
            {
              "internalType": "address",
              "name": "swapper",
              "type": "address"
            },
            {
              "internalType": "address",
              "name": "magnetar",
              "type": "address"
            },
            {
              "internalType": "address",
              "name": "tOft",
              "type": "address"
            },
            {
              "internalType": "address",
              "name": "srcMarket",
              "type": "address"
            }
          ],
          "internalType": "struct IUSDOBase.ILeverageExternalContractsData",
          "name": "externalData",
          "type": "tuple"
        }
      ],
      "name": "multiHopBuyCollateral",
      "outputs": [],
      "stateMutability": "payable",
      "type": "function"
    },
    {
      "inputs": [
        {
          "internalType": "address",
          "name": "from",
          "type": "address"
        },
        {
          "internalType": "uint256",
          "name": "share",
          "type": "uint256"
        },
        {
          "internalType": "bool",
          "name": "useAirdropped",
          "type": "bool"
        },
        {
          "components": [
            {
              "internalType": "address",
              "name": "tokenOut",
              "type": "address"
            },
            {
              "internalType": "uint256",
              "name": "amountOutMin",
              "type": "uint256"
            },
            {
              "internalType": "bytes",
              "name": "data",
              "type": "bytes"
            }
          ],
          "internalType": "struct IUSDOBase.ILeverageSwapData",
          "name": "swapData",
          "type": "tuple"
        },
        {
          "components": [
            {
              "internalType": "uint256",
              "name": "srcExtraGasLimit",
              "type": "uint256"
            },
            {
              "internalType": "uint16",
              "name": "lzSrcChainId",
              "type": "uint16"
            },
            {
              "internalType": "uint16",
              "name": "lzDstChainId",
              "type": "uint16"
            },
            {
              "internalType": "address",
              "name": "zroPaymentAddress",
              "type": "address"
            },
            {
              "internalType": "bytes",
              "name": "dstAirdropAdapterParam",
              "type": "bytes"
            },
            {
              "internalType": "bytes",
              "name": "srcAirdropAdapterParam",
              "type": "bytes"
            },
            {
              "internalType": "address",
              "name": "refundAddress",
              "type": "address"
            }
          ],
          "internalType": "struct IUSDOBase.ILeverageLZData",
          "name": "lzData",
          "type": "tuple"
        },
        {
          "components": [
            {
              "internalType": "address",
              "name": "swapper",
              "type": "address"
            },
            {
              "internalType": "address",
              "name": "magnetar",
              "type": "address"
            },
            {
              "internalType": "address",
              "name": "tOft",
              "type": "address"
            },
            {
              "internalType": "address",
              "name": "srcMarket",
              "type": "address"
            }
          ],
          "internalType": "struct IUSDOBase.ILeverageExternalContractsData",
          "name": "externalData",
          "type": "tuple"
        }
      ],
      "name": "multiHopSellCollateral",
      "outputs": [],
      "stateMutability": "payable",
      "type": "function"
    },
    {
      "inputs": [],
      "name": "name",
      "outputs": [
        {
          "internalType": "string",
          "name": "",
          "type": "string"
        }
      ],
      "stateMutability": "view",
      "type": "function"
    },
    {
      "inputs": [
        {
          "internalType": "address",
          "name": "owner",
          "type": "address"
        }
      ],
      "name": "nonces",
      "outputs": [
        {
          "internalType": "uint256",
          "name": "",
          "type": "uint256"
        }
      ],
      "stateMutability": "view",
      "type": "function"
    },
    {
      "inputs": [],
      "name": "oracle",
      "outputs": [
        {
          "internalType": "contract IOracle",
          "name": "",
          "type": "address"
        }
      ],
      "stateMutability": "view",
      "type": "function"
    },
    {
      "inputs": [],
      "name": "oracleData",
      "outputs": [
        {
          "internalType": "bytes",
          "name": "",
          "type": "bytes"
        }
      ],
      "stateMutability": "view",
      "type": "function"
    },
    {
      "inputs": [],
      "name": "owner",
      "outputs": [
        {
          "internalType": "address",
          "name": "",
          "type": "address"
        }
      ],
      "stateMutability": "view",
      "type": "function"
    },
    {
      "inputs": [
        {
          "internalType": "enum Market.PauseType",
          "name": "pauseProp",
          "type": "uint8"
        }
      ],
      "name": "pauseOptions",
      "outputs": [
        {
          "internalType": "bool",
          "name": "pauseStatus",
          "type": "bool"
        }
      ],
      "stateMutability": "view",
      "type": "function"
    },
    {
      "inputs": [],
      "name": "pendingOwner",
      "outputs": [
        {
          "internalType": "address",
          "name": "",
          "type": "address"
        }
      ],
      "stateMutability": "view",
      "type": "function"
    },
    {
      "inputs": [],
      "name": "penrose",
      "outputs": [
        {
          "internalType": "contract IPenrose",
          "name": "",
          "type": "address"
        }
      ],
      "stateMutability": "view",
      "type": "function"
    },
    {
      "inputs": [
        {
          "internalType": "address",
          "name": "owner",
          "type": "address"
        },
        {
          "internalType": "address",
          "name": "spender",
          "type": "address"
        },
        {
          "internalType": "uint256",
          "name": "value",
          "type": "uint256"
        },
        {
          "internalType": "uint256",
          "name": "deadline",
          "type": "uint256"
        },
        {
          "internalType": "uint8",
          "name": "v",
          "type": "uint8"
        },
        {
          "internalType": "bytes32",
          "name": "r",
          "type": "bytes32"
        },
        {
          "internalType": "bytes32",
          "name": "s",
          "type": "bytes32"
        }
      ],
      "name": "permit",
      "outputs": [],
      "stateMutability": "nonpayable",
      "type": "function"
    },
    {
      "inputs": [
        {
          "internalType": "bytes",
          "name": "data",
          "type": "bytes"
        },
        {
          "internalType": "uint16",
          "name": "actionType",
          "type": "uint16"
        }
      ],
      "name": "permitAction",
      "outputs": [],
      "stateMutability": "nonpayable",
      "type": "function"
    },
    {
      "inputs": [
        {
          "internalType": "address",
          "name": "owner",
          "type": "address"
        },
        {
          "internalType": "address",
          "name": "spender",
          "type": "address"
        },
        {
          "internalType": "uint256",
          "name": "value",
          "type": "uint256"
        },
        {
          "internalType": "uint256",
          "name": "deadline",
          "type": "uint256"
        },
        {
          "internalType": "uint8",
          "name": "v",
          "type": "uint8"
        },
        {
          "internalType": "bytes32",
          "name": "r",
          "type": "bytes32"
        },
        {
          "internalType": "bytes32",
          "name": "s",
          "type": "bytes32"
        }
      ],
      "name": "permitBorrow",
      "outputs": [],
      "stateMutability": "nonpayable",
      "type": "function"
    },
    {
      "inputs": [],
      "name": "protocolFee",
      "outputs": [
        {
          "internalType": "uint256",
          "name": "",
          "type": "uint256"
        }
      ],
      "stateMutability": "view",
      "type": "function"
    },
    {
      "inputs": [],
      "name": "refreshPenroseFees",
      "outputs": [
        {
          "internalType": "uint256",
          "name": "feeShares",
          "type": "uint256"
        }
      ],
      "stateMutability": "nonpayable",
      "type": "function"
    },
    {
      "inputs": [
        {
          "internalType": "address",
          "name": "from",
          "type": "address"
        },
        {
          "internalType": "address",
          "name": "to",
          "type": "address"
        },
        {
          "internalType": "uint256",
          "name": "fraction",
          "type": "uint256"
        }
      ],
      "name": "removeAsset",
      "outputs": [
        {
          "internalType": "uint256",
          "name": "share",
          "type": "uint256"
        }
      ],
      "stateMutability": "nonpayable",
      "type": "function"
    },
    {
      "inputs": [
        {
          "internalType": "address",
          "name": "from",
          "type": "address"
        },
        {
          "internalType": "address",
          "name": "to",
          "type": "address"
        },
        {
          "internalType": "uint256",
          "name": "share",
          "type": "uint256"
        }
      ],
      "name": "removeCollateral",
      "outputs": [],
      "stateMutability": "nonpayable",
      "type": "function"
    },
    {
      "inputs": [
        {
          "internalType": "address",
          "name": "from",
          "type": "address"
        },
        {
          "internalType": "address",
          "name": "to",
          "type": "address"
        },
        {
          "internalType": "bool",
          "name": "skim",
          "type": "bool"
        },
        {
          "internalType": "uint256",
          "name": "part",
          "type": "uint256"
        }
      ],
      "name": "repay",
      "outputs": [
        {
          "internalType": "uint256",
          "name": "amount",
          "type": "uint256"
        }
      ],
      "stateMutability": "nonpayable",
      "type": "function"
    },
    {
      "inputs": [
        {
          "internalType": "uint256",
          "name": "amount",
          "type": "uint256"
        },
        {
          "internalType": "address",
          "name": "to",
          "type": "address"
        }
      ],
      "name": "rescueEth",
      "outputs": [],
      "stateMutability": "nonpayable",
      "type": "function"
    },
    {
      "inputs": [
        {
          "internalType": "address",
          "name": "from",
          "type": "address"
        },
        {
          "internalType": "uint256",
          "name": "share",
          "type": "uint256"
        },
        {
          "internalType": "uint256",
          "name": "minAmountOut",
          "type": "uint256"
        },
        {
          "internalType": "contract ISwapper",
          "name": "swapper",
          "type": "address"
        },
        {
          "internalType": "bytes",
          "name": "dexData",
          "type": "bytes"
        }
      ],
      "name": "sellCollateral",
      "outputs": [
        {
          "internalType": "uint256",
          "name": "amountOut",
          "type": "uint256"
        }
      ],
      "stateMutability": "nonpayable",
      "type": "function"
    },
    {
      "inputs": [
        {
          "internalType": "uint256",
          "name": "_cap",
          "type": "uint256"
        }
      ],
      "name": "setBorrowCap",
      "outputs": [],
      "stateMutability": "nonpayable",
      "type": "function"
    },
    {
      "inputs": [
        {
          "internalType": "uint256",
          "name": "_val",
          "type": "uint256"
        }
      ],
      "name": "setBorrowOpeningFee",
      "outputs": [],
      "stateMutability": "nonpayable",
      "type": "function"
    },
    {
      "inputs": [
        {
          "internalType": "contract ILiquidationQueue",
          "name": "_liquidationQueue",
          "type": "address"
        },
        {
          "internalType": "address",
          "name": "_bidExecutionSwapper",
          "type": "address"
        },
        {
          "internalType": "address",
          "name": "_usdoSwapper",
          "type": "address"
        }
      ],
      "name": "setLiquidationQueueConfig",
      "outputs": [],
      "stateMutability": "nonpayable",
      "type": "function"
    },
    {
      "inputs": [
        {
          "internalType": "uint256",
          "name": "_borrowOpeningFee",
          "type": "uint256"
        },
        {
          "internalType": "contract IOracle",
          "name": "_oracle",
          "type": "address"
        },
        {
          "internalType": "bytes",
          "name": "_oracleData",
          "type": "bytes"
        },
        {
          "internalType": "address",
          "name": "_conservator",
          "type": "address"
        },
        {
          "internalType": "uint256",
          "name": "_callerFee",
          "type": "uint256"
        },
        {
          "internalType": "uint256",
          "name": "_protocolFee",
          "type": "uint256"
        },
        {
          "internalType": "uint256",
          "name": "_liquidationBonusAmount",
          "type": "uint256"
        },
        {
          "internalType": "uint256",
          "name": "_minLiquidatorReward",
          "type": "uint256"
        },
        {
          "internalType": "uint256",
          "name": "_maxLiquidatorReward",
          "type": "uint256"
        },
        {
          "internalType": "uint256",
          "name": "_totalBorrowCap",
          "type": "uint256"
        },
        {
          "internalType": "uint256",
          "name": "_collateralizationRate",
          "type": "uint256"
        }
      ],
      "name": "setMarketConfig",
      "outputs": [],
      "stateMutability": "nonpayable",
      "type": "function"
    },
    {
      "inputs": [
        {
          "internalType": "uint256",
          "name": "_lqCollateralizationRate",
          "type": "uint256"
        },
        {
          "internalType": "uint256",
          "name": "_liquidationMultiplier",
          "type": "uint256"
        },
        {
          "internalType": "uint256",
          "name": "_minimumTargetUtilization",
          "type": "uint256"
        },
        {
          "internalType": "uint256",
          "name": "_maximumTargetUtilization",
          "type": "uint256"
        },
        {
          "internalType": "uint64",
          "name": "_minimumInterestPerSecond",
          "type": "uint64"
        },
        {
          "internalType": "uint64",
          "name": "_maximumInterestPerSecond",
          "type": "uint64"
        },
        {
          "internalType": "uint256",
          "name": "_interestElasticity",
          "type": "uint256"
        }
      ],
      "name": "setSingularityConfig",
      "outputs": [],
      "stateMutability": "nonpayable",
      "type": "function"
    },
    {
      "inputs": [],
      "name": "startingInterestPerSecond",
      "outputs": [
        {
          "internalType": "uint64",
          "name": "",
          "type": "uint64"
        }
      ],
      "stateMutability": "view",
      "type": "function"
    },
    {
      "inputs": [],
      "name": "symbol",
      "outputs": [
        {
          "internalType": "string",
          "name": "",
          "type": "string"
        }
      ],
      "stateMutability": "view",
      "type": "function"
    },
    {
      "inputs": [],
      "name": "totalAsset",
      "outputs": [
        {
          "internalType": "uint128",
          "name": "elastic",
          "type": "uint128"
        },
        {
          "internalType": "uint128",
          "name": "base",
          "type": "uint128"
        }
      ],
      "stateMutability": "view",
      "type": "function"
    },
    {
      "inputs": [],
      "name": "totalBorrow",
      "outputs": [
        {
          "internalType": "uint128",
          "name": "elastic",
          "type": "uint128"
        },
        {
          "internalType": "uint128",
          "name": "base",
          "type": "uint128"
        }
      ],
      "stateMutability": "view",
      "type": "function"
    },
    {
      "inputs": [],
      "name": "totalBorrowCap",
      "outputs": [
        {
          "internalType": "uint256",
          "name": "",
          "type": "uint256"
        }
      ],
      "stateMutability": "view",
      "type": "function"
    },
    {
      "inputs": [],
      "name": "totalCollateralShare",
      "outputs": [
        {
          "internalType": "uint256",
          "name": "",
          "type": "uint256"
        }
      ],
      "stateMutability": "view",
      "type": "function"
    },
    {
      "inputs": [],
      "name": "totalSupply",
      "outputs": [
        {
          "internalType": "uint256",
          "name": "",
          "type": "uint256"
        }
      ],
      "stateMutability": "view",
      "type": "function"
    },
    {
      "inputs": [
        {
          "internalType": "address",
          "name": "to",
          "type": "address"
        },
        {
          "internalType": "uint256",
          "name": "amount",
          "type": "uint256"
        }
      ],
      "name": "transfer",
      "outputs": [
        {
          "internalType": "bool",
          "name": "",
          "type": "bool"
        }
      ],
      "stateMutability": "nonpayable",
      "type": "function"
    },
    {
      "inputs": [
        {
          "internalType": "address",
          "name": "from",
          "type": "address"
        },
        {
          "internalType": "address",
          "name": "to",
          "type": "address"
        },
        {
          "internalType": "uint256",
          "name": "amount",
          "type": "uint256"
        }
      ],
      "name": "transferFrom",
      "outputs": [
        {
          "internalType": "bool",
          "name": "",
          "type": "bool"
        }
      ],
      "stateMutability": "nonpayable",
      "type": "function"
    },
    {
      "inputs": [
        {
          "internalType": "address",
          "name": "newOwner",
          "type": "address"
        },
        {
          "internalType": "bool",
          "name": "direct",
          "type": "bool"
        },
        {
          "internalType": "bool",
          "name": "renounce",
          "type": "bool"
        }
      ],
      "name": "transferOwnership",
      "outputs": [],
      "stateMutability": "nonpayable",
      "type": "function"
    },
    {
      "inputs": [],
      "name": "updateExchangeRate",
      "outputs": [
        {
          "internalType": "bool",
          "name": "updated",
          "type": "bool"
        },
        {
          "internalType": "uint256",
          "name": "rate",
          "type": "uint256"
        }
      ],
      "stateMutability": "nonpayable",
      "type": "function"
    },
    {
      "inputs": [
        {
          "internalType": "enum Market.PauseType",
          "name": "_type",
          "type": "uint8"
        },
        {
          "internalType": "bool",
          "name": "val",
          "type": "bool"
        }
      ],
      "name": "updatePause",
      "outputs": [],
      "stateMutability": "nonpayable",
      "type": "function"
    },
    {
      "inputs": [
        {
          "internalType": "address",
          "name": "",
          "type": "address"
        }
      ],
      "name": "userBorrowPart",
      "outputs": [
        {
          "internalType": "uint256",
          "name": "",
          "type": "uint256"
        }
      ],
      "stateMutability": "view",
      "type": "function"
    },
    {
      "inputs": [
        {
          "internalType": "address",
          "name": "",
          "type": "address"
        }
      ],
      "name": "userCollateralShare",
      "outputs": [
        {
          "internalType": "uint256",
          "name": "",
          "type": "uint256"
        }
      ],
      "stateMutability": "view",
      "type": "function"
    },
    {
      "inputs": [],
      "name": "yieldBox",
      "outputs": [
        {
          "internalType": "contract YieldBox",
          "name": "",
          "type": "address"
        }
      ],
      "stateMutability": "view",
      "type": "function"
    },
    {
      "inputs": [
        {
          "internalType": "address",
          "name": "_user",
          "type": "address"
        },
        {
          "internalType": "uint256",
          "name": "_assetId",
          "type": "uint256"
        }
      ],
      "name": "yieldBoxShares",
      "outputs": [
        {
          "internalType": "uint256",
          "name": "",
          "type": "uint256"
        }
      ],
      "stateMutability": "view",
      "type": "function"
    },
    {
      "stateMutability": "payable",
      "type": "receive"
    }
  ],
  "bytecode": "0x6101408060405234620001e1576200001781620001e6565b601381526001602082017f546170696f63612053696e67756c617269747900000000000000000000000000815260206040516200005481620001e6565b8381520192603160f81b845251902091208160e052610100918183524660a0526040519160208301907f8b73c3c69bb8fe3d512ecc4cf759cc79239f7b179b0ffacaa9a75d522b39400f92838352604085015260608401524660808401523060a084015260a0835260c083019280841060018060401b03851117620001cb5760408490525190206080523060c052610120908152600580546001600160a01b0319163390811790915560007f8be0079c531659141344cd1fd0a4f28419497f9722a3daafe3b4186f6b6457e08180a36103e860195561271080601a55601b556032601d55612ee0601e557f0bd4060688a1800ae986e4840aebc924bb40b5bf44de4583df2257220b54b77c6025557f7d1dc38e60930664f8cbf495da6556ca091d2f92d6550877750c049864b182306026556161a8602755615dee928362000203843960805183613d5d015260a05183613e18015260c05183613d27015260e05183613dac01525182613dd201525181613d890152f35b634e487b7160e01b600052604160045260246000fd5b600080fd5b604081019081106001600160401b03821117620001cb5760405256fe6080604052600436101561001b575b361561001957600080fd5b005b60003560e01c8062a02a20146105aa57806302ce728f146105a557806306fdde03146105a0578063078dfbe71461059b578063095ea7b3146105965780630c4e84f01461059157806318160ddd1461058c5780631c9e379b146105875780631da8bf10146105825780631ee9c8f21461057d57806323b872dd1461057857806325384fd8146105735780632a9399d91461056e578063313ce5671461056957806334d441d0146105645780633644e5151461055f57806338d52e0f1461055a5780633ba0b9a9146105555780633f741adb1461055057806340626d8b1461054b57806344de240a14610546578063473e3ce71461054157806348e4163e1461053c5780634d7f2a34146105375780634ddf47d4146105325780634e71e0c81461052d5780635100b567146105285780635224372c14610523578063529898f21461051e57806352f353eb14610519578063551402321461051457806355c2ab941461050f578063579354621461050a57806358db9afe146105055780635d5f73ef146105005780635dfe04e8146104fb5780636587adb8146104f65780636c3d8b8f146104f157806370a08231146104ec578063717186d1146104e757806372778547146104e257806374645ff3146104dd5780637dc0d1d0146104d85780637ecebe00146104d35780637fa0b84e146104ce578063821226e8146104c95780638285ef40146104c45780638c5d0ed3146104bf5780638da5cb5b146104ba578063910dd7c8146104b5578063959916dc146104b057806395d89b41146104ab57806396759372146104a657806399a97028146104a15780639c5d71921461049c5780639e15e89f14610497578063a28e6b8214610492578063a9059cbb1461048d578063aa7d966514610488578063accfde4a14610483578063ae70702e1461047e578063af405b4c14610479578063b0e21e8a14610474578063b25ea8fb1461046f578063b27c0e741461046a578063bb4cfe3b14610465578063bf0b895814610460578063c23ea21f1461045b578063c861a52614610456578063cce19f8114610451578063cd0211eb1461044c578063ce8849ed14610447578063cfba1b4614610442578063d49dffa71461043d578063d505accf14610438578063d8dfeb4514610433578063dd62ed3e1461042e578063de40657714610429578063e0996cb614610424578063e30c39781461041f578063e9a492521461041a578063eec0f42e14610415578063f42760b714610410578063f49669671461040b578063f4d9375314610406578063f5b33dfa14610401578063f8ba4cff146103fc578063f9557ccb146103f75763ffe04c660361000e576133fd565b6133ca565b6133b1565b613388565b61333e565b613132565b613114565b6130f6565b613072565b613049565b61302b565b613002565b612fd2565b612fa9565b612f17565b612e34565b612d9f565b612d76565b612d0f565b612cd4565b612cab565b612c82565b612bd0565b612bb2565b612b78565b612aeb565b612acd565b6129d3565b6128f4565b6125db565b61249c565b6122f7565b61224d565b61220f565b6121f1565b6121c6565b611eeb565b611e56565b611e38565b611dbd565b611d59565b611d3b565b611d08565b611cd0565b611ca6565b611c69565b611c40565b611b71565b611a1f565b611998565b61195b565b611932565b6118e9565b61184f565b611818565b611775565b611757565b61172c565b611703565b6116da565b6116b0565b61164e565b6115db565b611534565b611132565b611114565b6110d7565b6110b9565b61109b565b61107d565b611059565b61103b565b611012565b610fef565b610fd1565b610f30565b610e58565b610e02565b610cf0565b610bf5565b610b12565b610a85565b610a64565b61096b565b610927565b61081e565b61074b565b6106c9565b610685565b6001600160a01b031690565b6001600160a01b038116036105cc57565b600080fd5b35906105dc826105bb565b565b60409060031901126105cc576004356105f6816105bb565b90602435610603816105bb565b90565b6001600160a01b0316600090815260016020526040902090565b6001600160a01b0316600090815260026020526040902090565b6001600160a01b0316600090815260246020526040902090565b6001600160a01b0316600090815260166020526040902090565b9060018060a01b0316600052602052604060002090565b346105cc5760206106b5610698366105de565b6001600160a01b039091166000908152600384526040902061066e565b54604051908152f35b60009103126105cc57565b346105cc5760003660031901126105cc5760406106e461398b565b825191151582526020820152f35b60005b8381106107055750506000910152565b81810151838201526020016106f5565b9060209161072e815180928185528580860191016106f2565b601f01601f1916010190565b906020610603928181520190610715565b346105cc5760008060031936011261081157808060018060a01b03600b541660405160208101906306fdde0360e01b82526004815261078981611ae1565b51915afa610795614a4b565b9150156107fa576107dc6107ea6107ae6107f693614b67565b60405173546170696f63612053696e67756c61726974792d60601b6020820152928391603483015b90614a34565b03601f198101835282611b4e565b6040519182918261073a565b0390f35b506107f66107dc6107ea61080c614a7b565b6107ae565b80fd5b801515036105cc57565b346105cc5760603660031901126105cc5760043561083b816105bb565b6024359061084882610814565b6044359161085583610814565b6005546001600160a01b03919061086f908316331461341b565b1561090e57811691821590811591610906575b50156108c9576108b79161089f61089a6005546105af565b6105af565b600080516020615cf9833981519152600080a3613466565b600680546001600160a01b0319169055005b60405162461bcd60e51b81526020600482015260156024820152744f776e61626c653a207a65726f206164647265737360581b6044820152606490fd5b905038610882565b60068054919092166001600160a01b0319909116179055005b346105cc5760403660031901126105cc57610951600435610947816105bb565b602435903361432f565b602060405160018152f35b6004359060098210156105cc57565b346105cc5760403660031901126105cc5761098461095c565b60243561099081610814565b6008546001600160a01b03163303610a2857610a17826109d16109c76109c26109bb61001997611a01565b5460ff1690565b151590565b8415151415613609565b7feeec81de25875ce1725479bb76f720a8defdb43dea041919ae37bb4aae9847c0836109ff6109bb84611a01565b610a0f604051928392868461364a565b0390a1611a01565b9060ff801983541691151516179055565b60405162461bcd60e51b815260206004820152601460248201527313585c9ad95d0e881d5b985d5d1a1bdc9a5e995960621b6044820152606490fd5b346105cc5760003660031901126105cc57602060225460801c604051908152f35b346105cc5760203660031901126105cc57600435610aa2816105bb565b60018060a01b031660005260166020526020604060002054604051908152f35b60ff8116036105cc57565b60e09060031901126105cc57600435610ae5816105bb565b90602435610af2816105bb565b906044359060643590608435610b0781610ac2565b9060a4359060c43590565b346105cc57610019610baf610bbc610bb4610bc3610b2f36610acd565b91849a869a9585610b478a9c979a999a421115614024565b610b50896142b5565b90604051916020830193600080516020615d99833981519152855260018060a01b0380809d169d8e6040870152166060850152608084015260a083015260c082015260c08152610b9f81611b17565b519020610baa613d24565b614268565b6141f0565b9190916140d5565b1614614070565b6142dd565b9181601f840112156105cc578235916001600160401b0383116105cc57602083818601950101116105cc57565b346105cc5760c03660031901126105cc57600435610c12816105bb565b608435610c1e816105bb565b60a435906001600160401b0382116105cc576107f692610ca0610ca5926107dc610c4f610cb4963690600401610bc8565b604051958694630f74e47960e11b602087015260018060a01b0380921660248701526024356044870152604435606487015260643560848701521660a485015260c060c485015260e48401916157a3565b615b7e565b60208082518301019101613b43565b6040519081529081906020820190565b60609060031901126105cc57600435610cdc816105bb565b90602435610ce9816105bb565b9060443590565b346105cc57610d38600080516020615d19833981519152610d1036610cc4565b9291939083610d47575b6040519384526001600160a01b039081169416929081906020820190565b0390a360405160018152602090f35b610d5085610606565b54610d5d85821015613e3e565b6001600160a01b038281169186918816839003610d7d575b505050610d1a565b610dab610db093610d97610d908b610620565b339061066e565b548460018201610dd8575b50501515613e83565b61371a565b610db986610606565b55610dc381610606565b610dce858254613727565b9055388481610d75565b81610dab82610de8941015613ec8565b610dfa33610df58d610620565b61066e565b553884610da2565b346105cc5760003660031901126105cc57602e546040516001600160a01b039091168152602090f35b908160609103126105cc5790565b908160e09103126105cc5790565b60809060a31901126105cc5760a490565b610120806003193601126105cc57600435610e72816105bb565b60443590610e7f82610814565b6001600160401b03906064358281116105cc57610ea0903690600401610e2b565b936084359283116105cc576107dc610f2561001996610f13610ec9610ca0973690600401610e39565b91610ed336610e47565b95604051998a98632a9399d960e01b60208b015260018060a01b031660248a015260243560448a01521515606489015260848801526101448701906157f6565b8581036023190160a48701529061583a565b9160c484019061592f565b346105cc5760008060031936011261081157808060018060a01b03600d5416604051602081019063313ce56760e01b825260048152610f6e81611ae1565b51915afa90610f7b614a4b565b9180610fc6575b15610fba57602082805181010312610811575060206107f6910151610fa681610ac2565b60405160ff90911681529081906020820190565b50506107f66012610fa6565b506020825114610f82565b346105cc5760003660031901126105cc576020601754604051908152f35b346105cc5760003660031901126105cc57602061100a613d24565b604051908152f35b346105cc5760003660031901126105cc57600d546040516001600160a01b039091168152602090f35b346105cc5760003660031901126105cc576020601154604051908152f35b346105cc5760603660031901126105cc57602061100a604435602435600435613734565b346105cc5760003660031901126105cc576020601454604051908152f35b346105cc5760003660031901126105cc576020600e54604051908152f35b346105cc5760003660031901126105cc576020601354604051908152f35b346105cc5760203660031901126105cc576004356110f4816105bb565b60018060a01b031660005260156020526020604060002054604051908152f35b346105cc5760003660031901126105cc576020602754604051908152f35b346105cc5760203660031901126105cc576004356001600160401b0381116105cc57611162903690600401610bc8565b60ff602054166114f9576111db61121f611241611187856111fd956020970190614c65565b602d8054600160401b600160e01b03191660409d909d1b600160401b600160e01b03169c909c17909b559e999d929c909b949a91996001600160a01b039994988a9891979693958995929493869391928491565b602f8054919092166001600160a01b03166001600160a01b0319909116179055565b602e8054919092166001600160a01b03166001600160a01b0319909116179055565b60308054919092166001600160a01b03166001600160a01b0319909116179055565b600a80546001600160a01b0319166001600160a01b03831617905560046040518096819363de40657760e01b8352165afa9687156114f45761130e61133a966112ec846112be6113309661133f9d6113359a6000916114c5575b5060098054919092166001600160a01b03166001600160a01b0319909116179055565b6112d46112cf61089a600a546105af565b613466565b808516151590816114b9575b816114ad575b50614d15565b600d80546001600160a01b0319166001600160a01b0392909216919091179055565b600b80546001600160a01b0319166001600160a01b0392909216919091179055565b600e55565b600c55565b613488565b602b80546001600160801b0319166c49d482460000000000097343e017908190556b0a9456c7acbaf3a129576cd1602b1b602c556113a290611380906116ce565b602d80546001600160401b0319166001600160401b0392909216919091179055565b6113d26113b0602d546116ce565b602180546001600160401b0319166001600160401b0392909216919091179055565b6113da61398b565b50506113e76103e8601755565b6113f2612710601855565b6113fc6032601d55565b611407612ee0601e55565b80156114a057601c555b61141c6161a8602755565b801561148e57601f555b6114316103e8601955565b61143c612710601a55565b611447612710601b55565b611458670429d069189e0000602855565b6114696706f05b59d3b20000602955565b61147c611477602954613704565b602a55565b610019600160ff196020541617602055565b50611426670de0b6b3a7640000601f55565b50611411620124f8611fd4565b90508a161515386112e6565b838116151591506112e0565b6114e7915060203d6020116114ed575b6114df8183611b4e565b810190614d00565b3861129b565b503d6114d5565b61393c565b60405162461bcd60e51b815260206004820152601360248201527213585c9ad95d0e881a5b9a5d1a585b1a5e9959606a1b6044820152606490fd5b346105cc57600080600319360112610811576006546001600160a01b03163381900361159757806115849161156d61089a6005546105af565b600080516020615cf98339815191528580a3613466565b600680546001600160a01b031916905580f35b606460405162461bcd60e51b815260206004820152602060248201527f4f776e61626c653a2063616c6c657220213d2070656e64696e67206f776e65726044820152fd5b346105cc5760203660031901126105cc5760043561160460018060a01b0360055416331461341b565b611613620186a08211156134aa565b600080516020615cb983398151915281601d546116356040519283928361163d565b0390a1601d55005b908152602081019190915260400190565b346105cc576116896107dc61168461166536610cc4565b6040516314890dcb60e21b602082015294859390929060248501615781565b615c17565b6040818051810103126105cc5760406020820151910151906107f66040519283928361163d565b346105cc5760003660031901126105cc576020601e54604051908152f35b6001600160401b031690565b346105cc5760003660031901126105cc57602d546040516001600160401b039091168152602090f35b346105cc5760003660031901126105cc57602b546040516001600160401b039091168152602090f35b346105cc5760003660031901126105cc57602b546040805191901c6001600160401b03168152602090f35b346105cc5760003660031901126105cc576020601a54604051908152f35b346105cc5760a03660031901126105cc57600435611792816105bb565b60643561179e816105bb565b608435906001600160401b0382116105cc576107f692610ca0610ca5926107dc6117cf610cb4963690600401610bc8565b604051958694632c6dcd7f60e11b602087015260018060a01b0380921660248701526024356044870152604435606487015216608485015260a060a485015260c48401916157a3565b346105cc5760003660031901126105cc57602d546040805191901c6001600160a01b03168152602090f35b6001600160801b031690565b346105cc5760003660031901126105cc57611868614375565b50608061187361449f565b506040805187516001600160401b0390811682526020808a0151909116908201529681015160001960018a1b011690870152606086015250505050f35b60809060031901126105cc576004356118c8816105bb565b906024356118d5816105bb565b906044356118e281610814565b9060643590565b346105cc57602061100a6118fc366118b0565b9260076000939293526007865261191b60ff6040600020541615614ee8565b6119258482614f25565b61192d61493f565b614fb1565b346105cc5760003660031901126105cc57600a546040516001600160a01b039091168152602090f35b346105cc5760203660031901126105cc57600435611978816105bb565b60018060a01b031660005260016020526020604060002054604051908152f35b346105cc5760203660031901126105cc576004356119c160018060a01b0360055416331461341b565b600080516020615c99833981519152816014546119e36040519283928361163d565b0390a1601455005b634e487b7160e01b600052602160045260246000fd5b6009811015611a1a576000526007602052604060002090565b6119eb565b346105cc5760203660031901126105cc57611a3861095c565b6009811015611a1a576000526007602052602060ff604060002054166040519015158152f35b90600182811c92168015611a8e575b6020831014611a7857565b634e487b7160e01b600052602260045260246000fd5b91607f1691611a6d565b634e487b7160e01b600052604160045260246000fd5b6001600160401b038111611ac157604052565b611a98565b606081019081106001600160401b03821117611ac157604052565b604081019081106001600160401b03821117611ac157604052565b60c081019081106001600160401b03821117611ac157604052565b60e081019081106001600160401b03821117611ac157604052565b61010081019081106001600160401b03821117611ac157604052565b601f909101601f19168101906001600160401b03821190821017611ac157604052565b346105cc576000806003193601126108115760405181601054611b9381611a5e565b80845290600190818116908115611c185750600114611bd1575b6107f684611bbd81880382611b4e565b604051918291602083526020830190610715565b6010835260209450600080516020615d798339815191525b828410611c0557505050816107f693611bbd9282010193611bad565b8054858501870152928501928101611be9565b6107f69650611bbd9450602092508593915060ff191682840152151560051b82010193611bad565b346105cc5760003660031901126105cc57600f546040516001600160a01b039091168152602090f35b346105cc5760203660031901126105cc57600435611c86816105bb565b60018060a01b031660005260046020526020604060002054604051908152f35b346105cc5760403660031901126105cc57610951600435611cc6816105bb565b60243590336142dd565b346105cc5760003660031901126105cc576020602c54604051908152f35b6001600160801b0391821681529116602082015260400190565b346105cc5760003660031901126105cc576012546040519081906107f690608081901c906001600160801b031683611cee565b346105cc5760003660031901126105cc576020601954604051908152f35b346105cc5760003660031901126105cc576005546040516001600160a01b039091168152602090f35b6001600160401b038111611ac157601f01601f191660200190565b6024359061ffff821682036105cc57565b359061ffff821682036105cc57565b346105cc5760403660031901126105cc576004356001600160401b0381116105cc57366023820112156105cc578060040135611df881611d82565b90611e066040519283611b4e565b80825236602482850101116105cc57602081600092602461001996018386013783010152611e32611d9d565b90613f0f565b346105cc5760003660031901126105cc576020601d54604051908152f35b346105cc5760008060031936011261081157808060018060a01b03600b541660405160208101906395d89b4160e01b825260048152611e9481611ae1565b51915afa611ea0614a4b565b915015611ed4576107dc6107ea611eb96107f693614b67565b60405162746d2d60e81b6020820152928391602383016107d6565b506107f66107dc6107ea611ee6614a7b565b611eb9565b346105cc576101603660031901126105cc57602435600435611f0c826105bb565b6044356001600160401b0381116105cc57611f2b903690600401610bc8565b91606435611f38816105bb565b60843560a4359060c4359260e4359461010435966101243598610144359a60018060a01b0393611f6d8560055416331461341b565b80612183575b5083811661214f575b508061211a575b5050811690816120ba575b50508061209c575b508061207e575b5080612061575b5080612037575b508061200d575b5080611fd9575b5080611fc157005b80611fd4620186a06100199311156134aa565b601c55565b80600080516020615c9983398151915261200792601454611fff6040519283928361163d565b0390a1601455565b38611fb9565b8061201f620186a061203193106134aa565b61202c60195482116134aa565b601a55565b38611fb2565b80612049620186a061205b93106134aa565b612056601a5482106134aa565b601955565b38611fab565b80612073620186a061207893106134aa565b601b55565b38611fa4565b80612091620186a06120969311156134aa565b601855565b38611f9d565b806120af620186a06120b49311156134aa565b601755565b38611f96565b612113916120cc61089a6008546105af565b7f5a62d22209e370e38eea92cfddcd228e656e6ec139243392a760a7769f5877fd600080a3600880546001600160a01b0319166001600160a01b0392909216919091179055565b3880611f8e565b6121239161353e565b7fa6f004921c944d4b8bf6e38462b00f36a58d62495d56b51f571ab78f732c9815600080a13880611f83565b61215890613488565b7f0b2d6eb667d0522c3eb86e4288afecae6c11591ffd1345d4d12407e0598bca9b600080a138611f7c565b80612196620186a06121c09311156134aa565b600080516020615cb983398151915281601d546121b86040519283928361163d565b0390a1601d55565b38611f73565b346105cc5760403660031901126105cc57602061100a6004356121e8816105bb565b60243590613c56565b346105cc5760003660031901126105cc576020602a54604051908152f35b346105cc5760403660031901126105cc57606061223a600435612231816105bb565b602435906137df565b9060405192835260208301526040820152f35b346105cc5760803660031901126105cc5760043561226a816105bb565b602435612276816105bb565b60443590612283826105bb565b606435926001600160401b0384116105cc576107dc6122f2926122ad610019963690600401610bc8565b60405163514735c160e11b60208201526001600160a01b03958616602482015292851660448401529390951660648201526080608482015293849260a48401916157a3565b615c41565b346105cc5760403660031901126105cc57600435612314816105bb565b60243580158015906123be575b612354575b6040519081526001600160a01b03909116903390600080516020615d19833981519152908060208101610d38565b61235d33610606565b5461236a82821015613e3e565b6001600160a01b03831690829033839003612388575b505050612326565b610dab612396931515613e83565b61239f33610606565b556123a982610606565b6123b4828254613727565b9055388181612380565b50336001600160a01b03831614612321565b9181601f840112156105cc578235916001600160401b0383116105cc576020808501948460051b0101116105cc57565b906040820191604081528151809352606081019260208093019060005b81811061248657505050818184039101528251908183528083019281808460051b8301019501936000915b8483106124585750505050505090565b9091929394958480612476600193601f198682030187528a51610715565b9801930193019194939290612448565b825115158652948401949184019160010161241d565b346105cc576040806003193601126105cc57600480356001600160401b0381116105cc576124cd90369083016123d0565b92906024356124db81610814565b6124e485614d83565b936124ee86614dab565b95600090815b818110612509578651806107f68b8b83612400565b828061251683858a614df5565b906125258b5180938193614e36565b0390305af4612532614a4b565b908015806125a8575b61258157829161255c6125619261255561257c968e614e44565b9015159052565b614e58565b61256b828c614e44565b52612576818b614e44565b506142a6565b6124f4565b88866125a461258f85614e58565b925162461bcd60e51b8152928392830161073a565b0390fd5b508661253b565b608435906001600160401b03821682036105cc57565b60a435906001600160401b03821682036105cc57565b346105cc5760e03660031901126105cc576024356004356044356064356126006125af565b906126096125c5565b9060c4359361262360018060a01b0360055416331461341b565b806128ae575b5080612847575b506001600160401b03918290808216806127d0575b5050811680612750575b5050508061270a575b50806126b5575b508061266757005b80612679620186a06100199310615acd565b7f1f1d0e9e5e3fd195010504141e7472fc7f53e44d7cd3f236f0892778039c632681601e546126ad6040519283928361163d565b0390a1601e55565b806126c8620186a0612704931115615acd565b7f1a98b2490874ba87102ae05e5b66fbe02edfcfb7e8b4e2d60f9aef620de5e337816027546126fc6040519283928361163d565b0390a1602755565b3861265f565b807f6bdc0e1a8f6a69c7dcb57e254165094714bb2a8730e2fedd8c6e9b71e67478b561274a92602c546127426040519283928361163d565b0390a1602c55565b38612658565b6127c8927fb02a4833a4686ad41ec77a1e91a97a505459a34966985bf11c59b1e01852e4a691612786602b549183831610615acd565b61279a8460405193849360401c1683615b0a565b0390a1602b8054600160401b600160801b03191660409290921b600160401b600160801b0316919091179055565b38808061264f565b61283f927f6d780269adaf7a0d9858a89a8c090b0b3add5f7088ccac6f619ff2b22987e7d591612809602b5491838360401c1611615acd565b61281a846040519384931683615b0a565b0390a1602b80546001600160401b0319166001600160401b0392909216919091179055565b813880612645565b8061285e670de0b6b3a764000061289a9310615acd565b7f4d5fa9a75b98ca1386ef794acdb2601c953e99a9c7a94ed351a46e06dc1bab28816029546128926040519283928361163d565b0390a1602955565b6128a8611477602954613704565b38612630565b807fa55fca071799e1b20f7cdcdf447fcc08c886bdd0cb741bf8862a311921bbb3886128ee926028546128e66040519283928361163d565b0390a1602855565b38612629565b346105cc5760403660031901126105cc57600435612911816105bb565b61295460243591600e5483146000146129c8576020602554935b61293961089a6009546105af565b6040518080968194627eeac760e11b83528760048401614d51565b03915afa80156114f4576107f693610cb493600092612992575b5061297c61298b929361063a565b90600052602052604060002090565b5490613727565b61298b92506129ba61297c9160203d81116129c1575b6129b28183611b4e565b810190613b43565b925061296e565b503d6129a8565b60206026549361292b565b346105cc5760003660031901126105cc576107f6610cb460018060a01b03612a008160055416331461341b565b612a0d81600a54166105af565b60215490919060801c612a2e575b50612a2581610606565b54903390615374565b612a3661493f565b7fbe641c3ffc44b2d6c184f023fa4ed7bda4b6ffa71e03b3c98ae0c776da1f17e7612ac4612a6e612a6960215460801c90565b611843565b92612a7885610606565b612a83858254613727565b9055841692836000600080516020615d1983398151915260405180612aad86829190602083019252565b0390a3602180546001600160801b03169055610cb4565b0390a238612a1b565b346105cc5760003660031901126105cc576020601854604051908152f35b346105cc5760403660031901126105cc57602435612b08816105bb565b612b1d60018060a01b0360055416331461341b565b60008080808094600435905af1612b32614a4b565b5015612b3b5780f35b60405162461bcd60e51b815260206004820152601560248201527429a3a61d103a3930b739b332b9103330b4b632b21760591b6044820152606490fd5b346105cc5760003660031901126105cc5760606021546040519060018060401b0380821683528160401c16602083015260801c6040820152f35b346105cc5760003660031901126105cc576020601c54604051908152f35b346105cc5760403660031901126105cc57602254612c216020612bf761089a6009546105af565b612c02601254611843565b906040518080958194638eb22cdd60e01b835260243560048401614446565b03915afa9182156114f457612c5a612c526107f694610cb494600091612c64575b506001600160801b038416613727565b6004356136be565b9060801c906136f5565b612c7c915060203d81116129c1576129b28183611b4e565b38612c42565b346105cc5760003660031901126105cc576023546040516001600160a01b039091168152602090f35b346105cc5760003660031901126105cc57602f546040516001600160a01b039091168152602090f35b346105cc576100196107dc612d0a612ceb36610cc4565b60405163cce19f8160e01b602082015294859390929060248501615781565b615c6e565b346105cc57602061100a612d68612d25366118b0565b60405163cd0211eb60e01b888201526001600160a01b03948516602482015293909216604484015215156064830152608480830191909152815261168481611afc565b828082518301019101613b43565b346105cc5760003660031901126105cc576008546040516001600160a01b039091168152602090f35b346105cc5760a03660031901126105cc576001600160401b036004358181116105cc57612dd09036906004016123d0565b6024358381116105cc57612de89036906004016123d0565b6044929192358581116105cc57612e039036906004016123d0565b916064359687116105cc57612e1f610019973690600401610bc8565b95909460843597612e2f896105bb565b615a02565b610140806003193601126105cc5760043590612e4f826105bb565b60643590612e5c82610814565b6001600160401b03926084358481116105cc57612e7d903690600401610e2b565b9360a4359081116105cc57612e96903690600401610e39565b9360803660c31901126105cc5761001994612ef9612f0b92610ca09560405197889663d49dffa760e01b602089015260018060a01b03166024880152602435604488015260443560648801521515608487015260a48601526101648501906157f6565b8381036023190160c48501529061583a565b6107dc60e483016158da565b346105cc57610019610baf610bbc610bb4612fa4612f3436610acd565b91849a869a9585612f4c8a9c979a999a421115614024565b612f55896142b5565b90604051916020830193600080516020615d39833981519152855260018060a01b0380809d169d8e6040870152166060850152608084015260a083015260c082015260c08152610b9f81611b17565b61432f565b346105cc5760003660031901126105cc57600b546040516001600160a01b039091168152602090f35b346105cc5760206106b5612fe5366105de565b6001600160a01b039091166000908152600284526040902061066e565b346105cc5760003660031901126105cc576009546040516001600160a01b039091168152602090f35b346105cc5760003660031901126105cc576020601b54604051908152f35b346105cc5760003660031901126105cc576006546040516001600160a01b039091168152602090f35b346105cc5760a03660031901126105cc57610019600435613092816105bb565b6024359061309f826105bb565b604435906130ac82610814565b604051926374d2492960e11b602085015260018060a01b03809216602485015216604483015215156064820152606435608482015260843560a482015260a48152612d0a81611b17565b346105cc5760003660031901126105cc576020600c54604051908152f35b346105cc5760003660031901126105cc576020602954604051908152f35b346105cc5760603660031901126105cc5760043561314f816105bb565b6024359061315c826105bb565b60443591613169836105bb565b6005546001600160a01b039290613183908416331461341b565b82811690816132b2575b50508181168061322a575b50508116806131a357005b604051916000917f3b9b7263cc05ae90b456a560e6740524a87c96696165f24f3aecbe42b9176f778380a26131dc61089a6023546105af565b90813b156132265763036252c960e41b84526001600160a01b031660048401528290602490829084905af180156114f45761321357005b8061322061001992611aae565b806106be565b8280fd5b604051916000917f1602f9f47bbf51628a9becdcc4582b22b157c0cbbe8ba4473f24b151fd335fc28380a261326361089a6023546105af565b90813b156132265763575939f960e01b84526001600160a01b031660048401528290602490829084905af180156114f45761329f575b80613198565b806132206132ac92611aae565b38613299565b6020600492604051938480926307be4daf60e01b82525afa9182156114f457613309926132e791600091613310575b50615b39565b602380546001600160a01b0319166001600160a01b0392909216919091179055565b388061318d565b613331915060203d8111613337575b6133298183611b4e565b810190615b24565b386132e1565b503d61331f565b346105cc57602061338161100a61335436610cc4565b9060086000959395526007865261337360ff6040600020541615614ee8565b61337b61493f565b84615541565b8092614f25565b346105cc5760003660031901126105cc576030546040516001600160a01b039091168152602090f35b346105cc5760003660031901126105cc5761001961493f565b346105cc5760003660031901126105cc576022546040519081906107f690608081901c906001600160801b031683611cee565b346105cc5760003660031901126105cc576020602854604051908152f35b1561342257565b606460405162461bcd60e51b815260206004820152602060248201527f4f776e61626c653a2063616c6c6572206973206e6f7420746865206f776e65726044820152fd5b600580546001600160a01b0319166001600160a01b0392909216919091179055565b600f80546001600160a01b0319166001600160a01b0392909216919091179055565b156134b157565b60405162461bcd60e51b815260206004820152601160248201527013585c9ad95d0e881b9bdd081d985b1a59607a1b6044820152606490fd5b601f81116134f6575050565b6000906010825260208220906020601f850160051c83019410613534575b601f0160051c01915b82811061352957505050565b81815560010161351d565b9092508290613514565b91906001600160401b038111611ac1576135628161355d601054611a5e565b6134ea565b6000601f821160011461359c57819293600092613591575b50508160011b916000199060031b1c191617601055565b01359050388061357a565b6010600052601f19821693600080516020615d7983398151915291805b8681106135f157508360019596106135d7575b505050811b01601055565b0135600019600384901b60f8161c191690553880806135cc565b909260206001819286860135815501940191016135b9565b1561361057565b60405162461bcd60e51b81526020600482015260126024820152714d61726b65743a2073616d6520737461746560701b6044820152606490fd5b91939260608301946009831015611a1a576040928452151560208401521515910152565b634e487b7160e01b600052601160045260246000fd5b90670de0b6b3a7640000918281029281840414901517156136a157565b61366e565b90620186a0918281029281840414901517156136a157565b818102929181159184041417156136a157565b604d81116136a157600a0a90565b634e487b7160e01b600052601260045260246000fd5b81156136ff570490565b6136df565b90670de0b6b3a76400009182039182116136a157565b919082039182116136a157565b919082018092116136a157565b9091613743601c5480946136be565b61374c826136d1565b9081156136ff57048083106137d65782039182116136a15761376d816136d1565b92613777826136d1565b601e5481018091116136a15761378c916136be565b613795826136d1565b9081156136ff570483039283116136a15760120391601283116136a1576137cb6137d1916137c5610603956136d1565b906136be565b91613684565b6136f5565b50505050600090565b6001600160a01b038116600090815260156020526040812054919392908215613912576138669061380e614394565b5061381761449f565b505050505094905061382a841515613af7565b602061383a61089a6009546105af565b600c54906138478a610654565b5460405163442c159960e01b8152968793849283929160048401613b52565b03915afa9283156114f4576138ea956138c7612a6960206138bf6138b18a6137d16138a86138e49c6138cd9a8d916138f5575b50601f54620186a090046137c5565b601c54906136be565b966137c5612a698751611843565b930151611843565b906136f5565b8181106138ee576138de925061371a565b94610654565b54613b6a565b9091565b50506138de565b61390c9150873d81116129c1576129b28183611b4e565b38613899565b929350505080918190565b91908260409103126105cc576020825161393681610814565b92015190565b6040513d6000823e3d90fd5b1561394f57565b60405162461bcd60e51b81526020600482015260146024820152734d61726b65743a20696e76616c6964207261746560601b6044820152606490fd5b600f5460405163d6d7d52560e01b81526020600482018190526010549193926001600160a01b0316918491600091906139c382611a5e565b918260248601526001908181169081600014613ace5750600114613a86575b505050918160008160409503925af180156114f4576000928391613a52575b50908215613a4b57613a14821515613948565b613a1d82601155565b6040518281527f9f9192b5edb17356c524e08d9e025c8e2f6307e6ea52fb7968faa3081f51c3c890602090a1565b6011549150565b9050613a7691925060403d8111613a7f575b613a6e8183611b4e565b81019061391d565b91909138613a01565b503d613a64565b9190949250601060005284600020946000925b828410613ab557509294505082016044019050816000816139e2565b8654898501604401529586019588955092810192613a99565b60ff191660448088019190915293151560051b86019093019350849250600091508290506139e2565b15613afe57565b60405162461bcd60e51b815260206004820152601e60248201527f4d61726b65743a2065786368616e676552617465206e6f742076616c696400006044820152606490fd5b908160209103126105cc575190565b60409060009294936060820195825260208201520152565b613ba66020831592613b7c8415613af7565b60018060a01b0360095416600c5460405180958194829363442c159960e01b845260048401613b52565b03915afa80156114f457613bc691600091613be0575b50601f54906136be565b906136ff5704620186a0613bdc601c54836136be565b0491565b613bf8915060203d81116129c1576129b28183611b4e565b38613bbc565b818103929160001380158285131691841216176136a157565b818102929160008212600160ff1b8214166136a15781840514901517156136a157565b919091600083820193841291129080158216911516176136a157565b90613c67613c85916138e484610654565b6001600160a01b039093166000908152601560205260409020909291565b548015613d1c578215613d1c57828110613d1c5781811015613d135782613cce613cc9613cd495610dab6138c795612c5a6012549160018060801b038316906136be565b6136a6565b9261371a565b613d0260195491613cfd613cf4601a5492613cef8487613bfe565b613c17565b620186a0900590565b613c3a565b90808212613d0e575090565b905090565b50505060195490565b505050600090565b307f00000000000000000000000000000000000000000000000000000000000000006001600160a01b03161480613e15575b15613d7f577f000000000000000000000000000000000000000000000000000000000000000090565b60405160208101907f000000000000000000000000000000000000000000000000000000000000000082527f000000000000000000000000000000000000000000000000000000000000000060408201527f000000000000000000000000000000000000000000000000000000000000000060608201524660808201523060a082015260a08152613e0f81611afc565b51902090565b507f00000000000000000000000000000000000000000000000000000000000000004614613d56565b15613e4557565b60405162461bcd60e51b815260206004820152601660248201527545524332303a2062616c616e636520746f6f206c6f7760501b6044820152606490fd5b15613e8a57565b60405162461bcd60e51b815260206004820152601660248201527545524332303a206e6f207a65726f206164647265737360501b6044820152606490fd5b15613ecf57565b60405162461bcd60e51b815260206004820152601860248201527745524332303a20616c6c6f77616e636520746f6f206c6f7760401b6044820152606490fd5b61010080828051810103126105cc576020820151613f2c81610814565b613ff76040840151613f3d816105bb565b606085015190613f4c826105bb565b610bbc6080870151978760a08a99015197613ff260c083015191613f6f83610ac2565b60e08401519301519360018060a01b039c8d8098169d8e99169b613f9581421115614024565b8b1561400e578c600080516020615d39833981519152925b613fb68c6142b5565b916040519461ffff602087019716875260408601528c6060860152608085015260a084015260c083015260e082015260e08152610b9f81611b32565b6140bc565b15614005576105dc9261432f565b6105dc926142dd565b8c600080516020615d9983398151915292613fad565b1561402b57565b60405162461bcd60e51b815260206004820152601d60248201527f45524332305065726d69743a206578706972656420646561646c696e650000006044820152606490fd5b1561407757565b60405162461bcd60e51b815260206004820152601e60248201527f45524332305065726d69743a20696e76616c6964207369676e617475726500006044820152606490fd5b916106039391610bb4936141f0565b60051115611a1a57565b6140de816140cb565b806140e65750565b6140ef816140cb565b600181036141375760405162461bcd60e51b815260206004820152601860248201527745434453413a20696e76616c6964207369676e617475726560401b6044820152606490fd5b614140816140cb565b6002810361418d5760405162461bcd60e51b815260206004820152601f60248201527f45434453413a20696e76616c6964207369676e6174757265206c656e677468006044820152606490fd5b806141996003926140cb565b146141a057565b60405162461bcd60e51b815260206004820152602260248201527f45434453413a20696e76616c6964207369676e6174757265202773272076616c604482015261756560f01b6064820152608490fd5b9291906fa2a8918ca85bafe22016d0b997e4df60600160ff1b03831161425c5791608094939160ff602094604051948552168484015260408301526060820152600093849182805260015afa156114f45781516001600160a01b03811615614256579190565b50600190565b50505050600090600390565b9060405190602082019261190160f01b845260228301526042820152604281526080810181811060018060401b03821117611ac15760405251902090565b60001981146136a15760010190565b6001600160a01b031660009081526004602052604090208054906142d8826142a6565b905590565b60207fe50de2333c10a9502fcb1d8ae13a51bbf423153dfc63c2b8997665b32154afc39160018060a01b038091169384600052600383528561432382604060002061066e565b556040519586521693a3565b60207f8c5be1e5ebec7d5bd14f71427d1e84f3dd0314c0f7b2291e5b200ac8c7c3b9259160018060a01b038091169384600052600283528561432382604060002061066e565b6040519061438282611ac6565b60006040838281528260208201520152565b604051906143a182611ae1565b60006020838281520152565b6001600160401b039091169052565b6001600160801b039091169052565b604051906143d882611ac6565b816040602154600180831b03808216845281831c16602084015260801c910152565b6040519061440782611ae1565b6012546001600160801b038116835260801c6020830152565b6040519061442d82611ae1565b6022546001600160801b038116835260801c6020830152565b9081526001600160801b0390911660208201526001604082015260600190565b9081526001600160801b0390911660208201526000604082015260600190565b6001600160801b0391821690821601919082116136a157565b6144a7614375565b506144b0614394565b506144b9614394565b506144c26143cb565b906144cb6143fa565b906144d4614420565b9060006144e561089a6009546105af565b90600e549061451460206144f98751611843565b6040518093819263442c159960e01b83528760048401614466565b0381875afa80156114f45761453f916000916148f9575b50614539612a698951611843565b90613727565b93846148df576000925b839461456961456361455e60208d01516116ce565b6116ce565b4261371a565b9485156148b557506001600160401b039061458942831660208d016143ad565b60208a01516001600160801b03979088906145a390611843565b161561485d5750858a516145b690611843565b6145bf90611843565b8c516145ca906116ce565b6145d3906116ce565b6145dc916136be565b906145e6916136be565b670de0b6b3a76400009004978789168b5161460090611843565b9061460a91614486565b614614908c6143bc565b601854614621908a6136be565b620186a0900460208c015161463590611843565b61463e90611843565b614647916136be565b90614651916136f5565b96871660408c0181815161466490611843565b9061466e91614486565b614677916143bc565b60208a0190815161468790611843565b9061469191614486565b61469a916143bc565b88516146a590611843565b60405163442c159960e01b815293849182916146c5919060048401614466565b03815a93602094fa9182156114f4578a926146f09160009161483e575b50614539612a698c51611843565b8061482457506000945b602854868181101561478b57936137d16147579361474561455e61475061474a614737886137d161473261475d9d9e61455e9c61371a565b613684565b94614745602c5496806136be565b6136be565b84613727565b94516116ce565b8a6143ad565b61476789516116ce565b614772602b546116ce565b91808316911610614781575b50565b6105dc90896143ad565b9190506029548083116147a0575b5050505050565b6148129461474561455e6147e36147dd6147cf6147c66147326137d1986147ea9b61371a565b602a54906136f5565b96614745602c5498806136be565b86613727565b92516116ce565b602b546148029060401c6001600160401b03166116ce565b80821161481c575b5016896143ad565b8738808080614799565b90503861480a565b614838906137d1614732612a698d51611843565b946146fa565b614857915060203d6020116129c1576129b28183611b4e565b386146e2565b999a9650509350509350935061487382516116ce565b61487e602d546116ce565b918083169116036148a0575b509392614895614420565b926000926000929190565b816148ac9294506143ad565b6001913861488a565b9997505050955050505050916148c96143fa565b916148d2614420565b9160009160009190600090565b6148f3856137d1614732612a698b51611843565b92614549565b614912915060203d6020116129c1576129b28183611b4e565b3861452b565b805160209091015160801b6001600160801b0319166001600160801b039190911617602255565b6105dc6149f661494d61449f565b93969593909290156149fb57505050600080516020615d59833981519152608060018060401b03602d5416604051906000825260006020830152604082015260006060820152a15b8051602080830151604093840151931b600160401b600160801b03166001600160401b039290921691909117608092831b6001600160801b0319908116919091176021558351939091015190911b166001600160801b039190911617601255565b614918565b600080516020615d598339815191529260809260018060401b0386511690604051938452602084015260408301526060820152a1614995565b90614a47602092828151948592016106f2565b0190565b3d15614a76573d90614a5c82611d82565b91614a6a6040519384611b4e565b82523d6000602084013e565b606090565b60405190614a8882611ae1565b60038252623f3f3f60e81b6020830152565b634e487b7160e01b600052603260045260246000fd5b908151811015614ac1570160200190565b614a9a565b60ff1660ff81146136a15760010190565b90614ae182611d82565b614aee6040519182611b4e565b8281528092614aff601f1991611d82565b0190602036910137565b6020818303126105cc578051906001600160401b0382116105cc570181601f820112156105cc578051614b3b81611d82565b92614b496040519485611b4e565b818452602082840101116105cc5761060391602080850191016106f2565b805160408110614b8557508060208061060393518301019101614b09565b602092908303614c5a576000805b60ff81168581109081614c38575b5015614bb557614bb090614ac6565b614b93565b92614bc360ff809516614ad7565b92825b85811687811080614c19575b15614c0e579081614c03614bfa614bec614c099588614ab0565b516001600160f81b03191690565b871a9188614ab0565b53614ac6565b614bc6565b505094505050905090565b506001600160f81b0319614c30614bec8387614ab0565b161515614bd2565b6001600160f81b03199150614c5190614bec9087614ab0565b16151538614ba1565b915050610603614a7b565b9190826101809103126105cc578135614c7d816105bb565b916020810135614c8c816105bb565b916040820135614c9b816105bb565b916060810135614caa816105bb565b916080820135614cb9816105bb565b9160a0810135614cc8816105bb565b9160c082013591614cdb60e082016105d1565b9161010082013591614cf061012082016105d1565b9161016061014083013592013590565b908160209103126105cc5751610603816105bb565b15614d1c57565b60405162461bcd60e51b815260206004820152600d60248201526c29a3a61d103130b2103830b4b960991b6044820152606490fd5b6001600160a01b039091168152602081019190915260400190565b6001600160401b038111611ac15760051b60200190565b90614d8d82614d6c565b614d9a6040519182611b4e565b8281528092614aff601f1991614d6c565b90614db582614d6c565b614dc26040519182611b4e565b8281528092614dd3601f1991614d6c565b019060005b828110614de457505050565b806060602080938501015201614dd8565b9190811015614ac15760051b81013590601e19813603018212156105cc5701803591906001600160401b0383116105cc5760200182360381136105cc579190565b908092918237016000815290565b8051821015614ac15760209160051b010190565b6103e8815111614eb4576044815110614e81578060248060046106039401518301019101614b09565b50604051614e8e81611ae1565b60168152754d61726b65743a206e6f2072657475726e206461746160501b602082015290565b50604051614ec181611ae1565b60178152764d61726b65743a20726561736f6e20746f6f206c6f6e6760481b602082015290565b15614eef57565b60405162461bcd60e51b815260206004820152600e60248201526d13585c9ad95d0e881c185d5cd95960921b6044820152606490fd5b6001600160a01b038116338103614f3b57505050565b600052600260205281614f5233604060002061066e565b5410614f7557614f6690610df53391610620565b80549182039182116136a15755565b60405162461bcd60e51b815260206004820152601460248201527313585c9ad95d0e881b9bdd08185c1c1c9bdd995960621b6044820152606490fd5b9392919093614fbe614420565b9160018060801b039586614fd28551611843565b16936150146020614fe761089a6009546105af565b600e5490614ff6601254611843565b604051638eb22cdd60e01b8152948593849283929160048401614446565b03915afa80156114f4576150319160009161517b575b5086613727565b8061515557506103e886985b6150578a8261504f6020870151611843565b911690614486565b1610615149579161510c6150fb7f30a8c4f9ab5af7e1309ca87c32377d1a83366c5990472dbf9d262450eae14e38959361509a6149f68c8b6150e99c9b99615199565b6150a381610606565b6150ae8c8254613727565b90556040518b81526001600160a01b038281169a90976150f69287928d91600091600080516020615d19833981519152919081906020820190565b0390a38a600e548961523f565b61063a565b602554600052602052604060002090565b615117868254613727565b905515615144575061512d61089a6009546105af565b61513f8760405193849316958361163d565b0390a3565b61512d565b50600096505050505050565b6151756103e8916137d161516f612a696020870151611843565b8a6136be565b9861503d565b615193915060203d81116129c1576129b28183611b4e565b3861502a565b91906151bd906151a7614394565b5060018060801b03918280921682865116614486565b1683526151d38160208501931682845116614486565b16905290565b6001600160a01b039182168152911660208201526040810191909152606081019190915260800190565b1561520a57565b60405162461bcd60e51b815260206004820152600d60248201526c0a68e987440e8dede40daeac6d609b1b6044820152606490fd5b909192936000146152c05750602061527a9161525f61089a6009546105af565b6040518080958194627eeac760e11b83523060048401614d51565b03915afa9283156114f4576105dc9361529b926000916152a2575b5061371a565b1015615203565b6152ba915060203d81116129c1576129b28183611b4e565b38615295565b919092506152d261089a6009546105af565b803b156105cc57615300936000809460405196879586948593630208d92960e11b85523090600486016151d9565b03925af180156114f4576153115750565b806132206105dc92611aae565b6001600160801b0391821690821603919082116136a157565b1561533e57565b60405162461bcd60e51b815260206004820152600e60248201526d14d1d30e881b5a5b881b1a5b5a5d60921b6044820152606490fd5b6022546001600160801b039493919060801c1561553857615393614420565b9061539e8251611843565b6153b16020614fe761089a6009546105af565b03915afa9182156114f4578891600093615518575b5016906153d291613727565b6153dc90846136be565b91602081019283516153ed90611843565b6153f690611843565b6153ff916136f5565b9661540983610606565b858154906154169161371a565b90556040518581526001600160a01b0393841694906000908690600080516020615d1983398151915290602090a3818916835161545290611843565b9061545c9161531e565b61546690846143bc565b818616815161547490611843565b9061547e9161531e565b61548890826143bc565b5161549290611843565b166103e811156154a190615337565b6154aa90614918565b60405180918516936154bd90888361163d565b03600080516020615cd983398151915291a36009546154db906105af565b6154e4906105af565b90600e5490823b156105cc576153009260009283879360405196879586948593630208d92960e11b855230600486016151d9565b61553191935060203d81116129c1576129b28183611b4e565b91386153c6565b50600093505050565b6022546001600160801b0394939192919060801c1561553857615562614420565b9461556d8651611843565b6155806020614fe761089a6009546105af565b03915afa9182156114f4578391600093615761575b5016906155a191613727565b6155ab90836136be565b90602087019182516155bc90611843565b6155c590611843565b6155ce916136f5565b966155d886610606565b848154906155e59161371a565b90556040518481526001600160a01b03878116949093916000908690600080516020615d1983398151915290602090a3818a16835161562390611843565b9061562d9161531e565b61563790846143bc565b818616815161564590611843565b9061564f9161531e565b61565990826143bc565b5161566390611843565b166103e8111561567290615337565b61567b90614918565b604051809185169361568e90898361163d565b03600080516020615cd983398151915291a36009546156ac906105af565b6156b5906105af565b90600e5490823b156105cc576156e99260009283889360405196879586948593630208d92960e11b855230600486016151d9565b03925af180156114f45761574e575b506157028161063a565b615719602554809290600052602052604060002090565b5484111561573357506157306150fb60009261063a565b55565b61297c61573f9261063a565b61574a83825461371a565b9055565b8061322061575b92611aae565b386156f8565b61577a91935060203d81116129c1576129b28183611b4e565b9138615595565b6001600160a01b03918216815291166020820152604081019190915260600190565b908060209392818452848401376000828201840152601f01601f1916010190565b9035601e19823603018112156105cc570160208101919035906001600160401b0382116105cc5781360383136105cc57565b90606061582a61060393803561580b816105bb565b6001600160a01b031684526020818101359085015260408101906157c4565b91909281604082015201916157a3565b908135815261ffff8061584f60208501611dae565b16602083015261586160408401611dae565b16604082015260c06060830135615877816105bb565b6001600160a01b039081166060840152816158c76158ac61589b60808801886157c4565b60e0608089015260e08801916157a3565b6158b960a08801886157c4565b9087830360a08901526157a3565b9401356158d3816105bb565b1691015290565b606060c4356158e8816105bb565b6001600160a01b0390811683528060e435615902816105bb565b1660208401528061010435615916816105bb565b16604084015261012435615929816105bb565b16910152565b6060908181359161593f836105bb565b6001600160a01b03928316855282602082013561595b816105bb565b166020860152826040820135615970816105bb565b1660408601520135615929816105bb565b81835290916001600160fb1b0383116105cc5760209260051b809284830137010190565b90808352602080930192838260051b850194846000925b8584106159cd575050505050505090565b9091929394959685806159f183856001950388526159eb8c886157c4565b906157a3565b9901940194019295949391906159bc565b98979592969391949096604051976020906367dd0da360e11b828b01528060c48b0160a060248d01525260e48a019b9160005b828110615aa15750505050936107dc93615a80615a8f948a9894615a7061477e9d9e6122f29c9a602319988d60448b82860301910152615981565b91868b84030160648c01526159a5565b928784030160848801526157a3565b6001600160a01b0390921660a4840152565b9091929c82808f9260019335615ab6816105bb565b848060a01b03168152019e01910192919092615a35565b15615ad457565b60405162461bcd60e51b815260206004820152600e60248201526d14d1d30e881b9bdd081d985b1a5960921b6044820152606490fd5b6001600160401b0391821681529116602082015260400190565b908160209103126105cc575161060381610814565b15615b4057565b60405162461bcd60e51b815260206004820152601660248201527514d1d30e881314481b9bdd081a5b9a5d185b1a5e995960521b6044820152606490fd5b6030546001600160a01b03168015615bdc57816000929160208493519201905af490615ba8614a4b565b9115615bb057565b6125a4615bbc83614e58565b60405162461bcd60e51b8152602060048201529182916024830190610715565b60405162461bcd60e51b815260206004820152601360248201527214d1d30e881b5bd91d5b19481b9bdd081cd95d606a1b6044820152606490fd5b602e546001600160a01b03168015615bdc57816000929160208493519201905af490615ba8614a4b565b602d5460401c6001600160a01b03168015615bdc57816000929160208493519201905af490615ba8614a4b565b602f546001600160a01b03168015615bdc57816000929160208493519201905af490615ba8614a4b56feae6e0ab3b95f0a53ff9660a390ccedcbbf1f2355dce974a9841af106fddcfabac353b09af857951dccce61b43a5854fc45beceed36c50e5d4cc2e71858a8e0df6e853a5fd6b51d773691f542ebac8513c9992a51380d4c342031056a641142288be0079c531659141344cd1fd0a4f28419497f9722a3daafe3b4186f6b6457e0ddf252ad1be2c89b69c2b068fc378daa952ba7f163c4a11628f55a4df523b3ef6e71edae12b1b97f4d1f60370fef10105fa2faae0126114a169c64845d6126c933af5ce86e8438eff54589f85332916444457dfa8685493fbd579b809097026b1b6847dc741a1b0cd08d278845f9d819d87b734759afb55fe2de5cb82a9ae672e9685ff6d48c617fe4f692c50e602cce27cbad0290beb93cfa77eac43968d58ca2646970667358221220d07c825f8f254229d580c85a1e6bcc88dac19a3fc45936589af339b9b6230acc64736f6c63430008120033",
  "linkReferences": {},
  "deployedLinkReferences": {}
}