{
  "_format": "hh-sol-artifact-1",
  "contractName": "Test",
  "sourceName": "contracts/Test.sol",
  "abi": [
    {
      "inputs": [],
      "name": "x",
      "outputs": [
        {
          "internalType": "uint256",
          "name": "",
          "type": "uint256"
        }
      ],
      "stateMutability": "view",
      "type": "function"
    }
  ],
  "bytecode": "0x60806040526001600055348015601457600080fd5b50607d806100236000396000f3fe6080604052348015600f57600080fd5b506004361060285760003560e01c80630c55699c14602d575b600080fd5b603560005481565b60405190815260200160405180910390f3fea2646970667358221220026ee212f9e8bf83b74c2be18ef21e1832b7361fb92326f3cc9de65d329acb1e64736f6c63430008120033",
  "linkReferences": {},
  "deployedLinkReferences": {}
}