{
  "_format": "hh-sol-artifact-1",
  "contractName": "USDO",
  "sourceName": "contracts/usd0/USDO.sol",
  "abi": [
    {
      "inputs": [
        {
          "internalType": "address",
          "name": "_lzEndpoint",
          "type": "address"
        },
        {
          "internalType": "contract IYieldBoxBase",
          "name": "_yieldBox",
          "type": "address"
        },
        {
          "internalType": "address",
          "name": "_owner",
          "type": "address"
        },
        {
          "internalType": "address payable",
          "name": "_leverageModule",
          "type": "address"
        },
        {
          "internalType": "address payable",
          "name": "_marketModule",
          "type": "address"
        },
        {
          "internalType": "address payable",
          "name": "_optionsModule",
          "type": "address"
        }
      ],
      "stateMutability": "nonpayable",
      "type": "constructor"
    },
    {
      "anonymous": false,
      "inputs": [
        {
          "indexed": true,
          "internalType": "address",
          "name": "owner",
          "type": "address"
        },
        {
          "indexed": true,
          "internalType": "address",
          "name": "spender",
          "type": "address"
        },
        {
          "indexed": false,
          "internalType": "uint256",
          "name": "value",
          "type": "uint256"
        }
      ],
      "name": "Approval",
      "type": "event"
    },
    {
      "anonymous": false,
      "inputs": [
        {
          "indexed": true,
          "internalType": "address",
          "name": "_from",
          "type": "address"
        },
        {
          "indexed": false,
          "internalType": "uint256",
          "name": "_amount",
          "type": "uint256"
        }
      ],
      "name": "Burned",
      "type": "event"
    },
    {
      "anonymous": false,
      "inputs": [
        {
          "indexed": true,
          "internalType": "uint16",
          "name": "_srcChainId",
          "type": "uint16"
        },
        {
          "indexed": false,
          "internalType": "bytes",
          "name": "_srcAddress",
          "type": "bytes"
        },
        {
          "indexed": false,
          "internalType": "uint64",
          "name": "_nonce",
          "type": "uint64"
        },
        {
          "indexed": false,
          "internalType": "bytes32",
          "name": "_hash",
          "type": "bytes32"
        }
      ],
      "name": "CallOFTReceivedSuccess",
      "type": "event"
    },
    {
      "anonymous": false,
      "inputs": [
        {
          "indexed": true,
          "internalType": "address",
          "name": "old",
          "type": "address"
        },
        {
          "indexed": true,
          "internalType": "address",
          "name": "_new",
          "type": "address"
        }
      ],
      "name": "ConservatorUpdated",
      "type": "event"
    },
    {
      "anonymous": false,
      "inputs": [
        {
          "indexed": false,
          "internalType": "uint256",
          "name": "_old",
          "type": "uint256"
        },
        {
          "indexed": false,
          "internalType": "uint256",
          "name": "_new",
          "type": "uint256"
        }
      ],
      "name": "FlashMintFeeUpdated",
      "type": "event"
    },
    {
      "anonymous": false,
      "inputs": [
        {
          "indexed": false,
          "internalType": "uint256",
          "name": "_old",
          "type": "uint256"
        },
        {
          "indexed": false,
          "internalType": "uint256",
          "name": "_new",
          "type": "uint256"
        }
      ],
      "name": "MaxFlashMintUpdated",
      "type": "event"
    },
    {
      "anonymous": false,
      "inputs": [
        {
          "indexed": false,
          "internalType": "uint16",
          "name": "_srcChainId",
          "type": "uint16"
        },
        {
          "indexed": false,
          "internalType": "bytes",
          "name": "_srcAddress",
          "type": "bytes"
        },
        {
          "indexed": false,
          "internalType": "uint64",
          "name": "_nonce",
          "type": "uint64"
        },
        {
          "indexed": false,
          "internalType": "bytes",
          "name": "_payload",
          "type": "bytes"
        },
        {
          "indexed": false,
          "internalType": "bytes",
          "name": "_reason",
          "type": "bytes"
        }
      ],
      "name": "MessageFailed",
      "type": "event"
    },
    {
      "anonymous": false,
      "inputs": [
        {
          "indexed": true,
          "internalType": "address",
          "name": "_for",
          "type": "address"
        },
        {
          "indexed": false,
          "internalType": "uint256",
          "name": "_amount",
          "type": "uint256"
        }
      ],
      "name": "Minted",
      "type": "event"
    },
    {
      "anonymous": false,
      "inputs": [
        {
          "indexed": false,
          "internalType": "address",
          "name": "_address",
          "type": "address"
        }
      ],
      "name": "NonContractAddress",
      "type": "event"
    },
    {
      "anonymous": false,
      "inputs": [
        {
          "indexed": true,
          "internalType": "address",
          "name": "previousOwner",
          "type": "address"
        },
        {
          "indexed": true,
          "internalType": "address",
          "name": "newOwner",
          "type": "address"
        }
      ],
      "name": "OwnershipTransferred",
      "type": "event"
    },
    {
      "anonymous": false,
      "inputs": [
        {
          "indexed": false,
          "internalType": "bool",
          "name": "oldState",
          "type": "bool"
        },
        {
          "indexed": false,
          "internalType": "bool",
          "name": "newState",
          "type": "bool"
        }
      ],
      "name": "PausedUpdated",
      "type": "event"
    },
    {
      "anonymous": false,
      "inputs": [
        {
          "indexed": true,
          "internalType": "uint16",
          "name": "_srcChainId",
          "type": "uint16"
        },
        {
          "indexed": true,
          "internalType": "address",
          "name": "_to",
          "type": "address"
        },
        {
          "indexed": false,
          "internalType": "uint256",
          "name": "_amount",
          "type": "uint256"
        }
      ],
      "name": "ReceiveFromChain",
      "type": "event"
    },
    {
      "anonymous": false,
      "inputs": [
        {
          "indexed": false,
          "internalType": "uint16",
          "name": "_srcChainId",
          "type": "uint16"
        },
        {
          "indexed": false,
          "internalType": "bytes",
          "name": "_srcAddress",
          "type": "bytes"
        },
        {
          "indexed": false,
          "internalType": "uint64",
          "name": "_nonce",
          "type": "uint64"
        },
        {
          "indexed": false,
          "internalType": "bytes32",
          "name": "_payloadHash",
          "type": "bytes32"
        }
      ],
      "name": "RetryMessageSuccess",
      "type": "event"
    },
    {
      "anonymous": false,
      "inputs": [
        {
          "indexed": true,
          "internalType": "uint16",
          "name": "_dstChainId",
          "type": "uint16"
        },
        {
          "indexed": true,
          "internalType": "address",
          "name": "_from",
          "type": "address"
        },
        {
          "indexed": true,
          "internalType": "bytes32",
          "name": "_toAddress",
          "type": "bytes32"
        },
        {
          "indexed": false,
          "internalType": "uint256",
          "name": "_amount",
          "type": "uint256"
        }
      ],
      "name": "SendToChain",
      "type": "event"
    },
    {
      "anonymous": false,
      "inputs": [
        {
          "indexed": true,
          "internalType": "address",
          "name": "_for",
          "type": "address"
        },
        {
          "indexed": false,
          "internalType": "bool",
          "name": "_status",
          "type": "bool"
        }
      ],
      "name": "SetBurnerStatus",
      "type": "event"
    },
    {
      "anonymous": false,
      "inputs": [
        {
          "indexed": false,
          "internalType": "uint16",
          "name": "_dstChainId",
          "type": "uint16"
        },
        {
          "indexed": false,
          "internalType": "uint16",
          "name": "_type",
          "type": "uint16"
        },
        {
          "indexed": false,
          "internalType": "uint256",
          "name": "_minDstGas",
          "type": "uint256"
        }
      ],
      "name": "SetMinDstGas",
      "type": "event"
    },
    {
      "anonymous": false,
      "inputs": [
        {
          "indexed": true,
          "internalType": "address",
          "name": "_for",
          "type": "address"
        },
        {
          "indexed": false,
          "internalType": "bool",
          "name": "_status",
          "type": "bool"
        }
      ],
      "name": "SetMinterStatus",
      "type": "event"
    },
    {
      "anonymous": false,
      "inputs": [
        {
          "indexed": false,
          "internalType": "address",
          "name": "precrime",
          "type": "address"
        }
      ],
      "name": "SetPrecrime",
      "type": "event"
    },
    {
      "anonymous": false,
      "inputs": [
        {
          "indexed": false,
          "internalType": "uint16",
          "name": "_remoteChainId",
          "type": "uint16"
        },
        {
          "indexed": false,
          "internalType": "bytes",
          "name": "_path",
          "type": "bytes"
        }
      ],
      "name": "SetTrustedRemote",
      "type": "event"
    },
    {
      "anonymous": false,
      "inputs": [
        {
          "indexed": false,
          "internalType": "uint16",
          "name": "_remoteChainId",
          "type": "uint16"
        },
        {
          "indexed": false,
          "internalType": "bytes",
          "name": "_remoteAddress",
          "type": "bytes"
        }
      ],
      "name": "SetTrustedRemoteAddress",
      "type": "event"
    },
    {
      "anonymous": false,
      "inputs": [
        {
          "indexed": false,
          "internalType": "bool",
          "name": "_useCustomAdapterParams",
          "type": "bool"
        }
      ],
      "name": "SetUseCustomAdapterParams",
      "type": "event"
    },
    {
      "anonymous": false,
      "inputs": [
        {
          "indexed": true,
          "internalType": "address",
          "name": "from",
          "type": "address"
        },
        {
          "indexed": true,
          "internalType": "address",
          "name": "to",
          "type": "address"
        },
        {
          "indexed": false,
          "internalType": "uint256",
          "name": "value",
          "type": "uint256"
        }
      ],
      "name": "Transfer",
      "type": "event"
    },
    {
      "inputs": [],
      "name": "DEFAULT_PAYLOAD_SIZE_LIMIT",
      "outputs": [
        {
          "internalType": "uint256",
          "name": "",
          "type": "uint256"
        }
      ],
      "stateMutability": "view",
      "type": "function"
    },
    {
      "inputs": [],
      "name": "DOMAIN_SEPARATOR",
      "outputs": [
        {
          "internalType": "bytes32",
          "name": "",
          "type": "bytes32"
        }
      ],
      "stateMutability": "view",
      "type": "function"
    },
    {
      "inputs": [],
      "name": "NO_EXTRA_GAS",
      "outputs": [
        {
          "internalType": "uint256",
          "name": "",
          "type": "uint256"
        }
      ],
      "stateMutability": "view",
      "type": "function"
    },
    {
      "inputs": [],
      "name": "PT_SEND",
      "outputs": [
        {
          "internalType": "uint8",
          "name": "",
          "type": "uint8"
        }
      ],
      "stateMutability": "view",
      "type": "function"
    },
    {
      "inputs": [],
      "name": "PT_SEND_AND_CALL",
      "outputs": [
        {
          "internalType": "uint8",
          "name": "",
          "type": "uint8"
        }
      ],
      "stateMutability": "view",
      "type": "function"
    },
    {
      "inputs": [
        {
          "internalType": "address",
          "name": "owner",
          "type": "address"
        },
        {
          "internalType": "address",
          "name": "spender",
          "type": "address"
        }
      ],
      "name": "allowance",
      "outputs": [
        {
          "internalType": "uint256",
          "name": "",
          "type": "uint256"
        }
      ],
      "stateMutability": "view",
      "type": "function"
    },
    {
      "inputs": [
        {
          "internalType": "uint256",
          "name": "",
          "type": "uint256"
        },
        {
          "internalType": "address",
          "name": "",
          "type": "address"
        }
      ],
      "name": "allowedBurner",
      "outputs": [
        {
          "internalType": "bool",
          "name": "",
          "type": "bool"
        }
      ],
      "stateMutability": "view",
      "type": "function"
    },
    {
      "inputs": [
        {
          "internalType": "uint256",
          "name": "",
          "type": "uint256"
        },
        {
          "internalType": "address",
          "name": "",
          "type": "address"
        }
      ],
      "name": "allowedMinter",
      "outputs": [
        {
          "internalType": "bool",
          "name": "",
          "type": "bool"
        }
      ],
      "stateMutability": "view",
      "type": "function"
    },
    {
      "inputs": [
        {
          "internalType": "address",
          "name": "spender",
          "type": "address"
        },
        {
          "internalType": "uint256",
          "name": "amount",
          "type": "uint256"
        }
      ],
      "name": "approve",
      "outputs": [
        {
          "internalType": "bool",
          "name": "",
          "type": "bool"
        }
      ],
      "stateMutability": "nonpayable",
      "type": "function"
    },
    {
      "inputs": [
        {
          "internalType": "address",
          "name": "account",
          "type": "address"
        }
      ],
      "name": "balanceOf",
      "outputs": [
        {
          "internalType": "uint256",
          "name": "",
          "type": "uint256"
        }
      ],
      "stateMutability": "view",
      "type": "function"
    },
    {
      "inputs": [
        {
          "internalType": "address",
          "name": "_from",
          "type": "address"
        },
        {
          "internalType": "uint256",
          "name": "_amount",
          "type": "uint256"
        }
      ],
      "name": "burn",
      "outputs": [],
      "stateMutability": "nonpayable",
      "type": "function"
    },
    {
      "inputs": [
        {
          "internalType": "uint16",
          "name": "_srcChainId",
          "type": "uint16"
        },
        {
          "internalType": "bytes",
          "name": "_srcAddress",
          "type": "bytes"
        },
        {
          "internalType": "uint64",
          "name": "_nonce",
          "type": "uint64"
        },
        {
          "internalType": "bytes32",
          "name": "_from",
          "type": "bytes32"
        },
        {
          "internalType": "address",
          "name": "_to",
          "type": "address"
        },
        {
          "internalType": "uint256",
          "name": "_amount",
          "type": "uint256"
        },
        {
          "internalType": "bytes",
          "name": "_payload",
          "type": "bytes"
        },
        {
          "internalType": "uint256",
          "name": "_gasForCall",
          "type": "uint256"
        }
      ],
      "name": "callOnOFTReceived",
      "outputs": [],
      "stateMutability": "nonpayable",
      "type": "function"
    },
    {
      "inputs": [],
      "name": "circulatingSupply",
      "outputs": [
        {
          "internalType": "uint256",
          "name": "",
          "type": "uint256"
        }
      ],
      "stateMutability": "view",
      "type": "function"
    },
    {
      "inputs": [],
      "name": "conservator",
      "outputs": [
        {
          "internalType": "address",
          "name": "",
          "type": "address"
        }
      ],
      "stateMutability": "view",
      "type": "function"
    },
    {
      "inputs": [
        {
          "internalType": "uint16",
          "name": "",
          "type": "uint16"
        },
        {
          "internalType": "bytes",
          "name": "",
          "type": "bytes"
        },
        {
          "internalType": "uint64",
          "name": "",
          "type": "uint64"
        }
      ],
      "name": "creditedPackets",
      "outputs": [
        {
          "internalType": "bool",
          "name": "",
          "type": "bool"
        }
      ],
      "stateMutability": "view",
      "type": "function"
    },
    {
      "inputs": [],
      "name": "decimals",
      "outputs": [
        {
          "internalType": "uint8",
          "name": "",
          "type": "uint8"
        }
      ],
      "stateMutability": "pure",
      "type": "function"
    },
    {
      "inputs": [
        {
          "internalType": "address",
          "name": "spender",
          "type": "address"
        },
        {
          "internalType": "uint256",
          "name": "subtractedValue",
          "type": "uint256"
        }
      ],
      "name": "decreaseAllowance",
      "outputs": [
        {
          "internalType": "bool",
          "name": "",
          "type": "bool"
        }
      ],
      "stateMutability": "nonpayable",
      "type": "function"
    },
    {
      "inputs": [
        {
          "internalType": "uint16",
          "name": "_dstChainId",
          "type": "uint16"
        },
        {
          "internalType": "bytes32",
          "name": "_toAddress",
          "type": "bytes32"
        },
        {
          "internalType": "uint256",
          "name": "_amount",
          "type": "uint256"
        },
        {
          "internalType": "bytes",
          "name": "_payload",
          "type": "bytes"
        },
        {
          "internalType": "uint64",
          "name": "_dstGasForCall",
          "type": "uint64"
        },
        {
          "internalType": "bool",
          "name": "_useZro",
          "type": "bool"
        },
        {
          "internalType": "bytes",
          "name": "_adapterParams",
          "type": "bytes"
        }
      ],
      "name": "estimateSendAndCallFee",
      "outputs": [
        {
          "internalType": "uint256",
          "name": "nativeFee",
          "type": "uint256"
        },
        {
          "internalType": "uint256",
          "name": "zroFee",
          "type": "uint256"
        }
      ],
      "stateMutability": "view",
      "type": "function"
    },
    {
      "inputs": [
        {
          "internalType": "uint16",
          "name": "_dstChainId",
          "type": "uint16"
        },
        {
          "internalType": "bytes32",
          "name": "_toAddress",
          "type": "bytes32"
        },
        {
          "internalType": "uint256",
          "name": "_amount",
          "type": "uint256"
        },
        {
          "internalType": "bool",
          "name": "_useZro",
          "type": "bool"
        },
        {
          "internalType": "bytes",
          "name": "_adapterParams",
          "type": "bytes"
        }
      ],
      "name": "estimateSendFee",
      "outputs": [
        {
          "internalType": "uint256",
          "name": "nativeFee",
          "type": "uint256"
        },
        {
          "internalType": "uint256",
          "name": "zroFee",
          "type": "uint256"
        }
      ],
      "stateMutability": "view",
      "type": "function"
    },
    {
      "inputs": [
        {
          "components": [
            {
              "internalType": "address",
              "name": "from",
              "type": "address"
            },
            {
              "internalType": "address",
              "name": "target",
              "type": "address"
            },
            {
              "internalType": "uint256",
              "name": "paymentTokenAmount",
              "type": "uint256"
            },
            {
              "internalType": "uint256",
              "name": "oTAPTokenID",
              "type": "uint256"
            },
            {
              "internalType": "address",
              "name": "paymentToken",
              "type": "address"
            },
            {
              "internalType": "uint256",
              "name": "tapAmount",
              "type": "uint256"
            }
          ],
          "internalType": "struct ITapiocaOptionsBrokerCrossChain.IExerciseOptionsData",
          "name": "optionsData",
          "type": "tuple"
        },
        {
          "components": [
            {
              "internalType": "uint16",
              "name": "lzDstChainId",
              "type": "uint16"
            },
            {
              "internalType": "address",
              "name": "zroPaymentAddress",
              "type": "address"
            },
            {
              "internalType": "uint256",
              "name": "extraGas",
              "type": "uint256"
            }
          ],
          "internalType": "struct ITapiocaOptionsBrokerCrossChain.IExerciseLZData",
          "name": "lzData",
          "type": "tuple"
        },
        {
          "components": [
            {
              "internalType": "bool",
              "name": "withdrawOnAnotherChain",
              "type": "bool"
            },
            {
              "internalType": "address",
              "name": "tapOftAddress",
              "type": "address"
            },
            {
              "internalType": "uint16",
              "name": "lzDstChainId",
              "type": "uint16"
            },
            {
              "internalType": "uint256",
              "name": "amount",
              "type": "uint256"
            },
            {
              "internalType": "address",
              "name": "zroPaymentAddress",
              "type": "address"
            },
            {
              "internalType": "uint256",
              "name": "extraGas",
              "type": "uint256"
            }
          ],
          "internalType": "struct ITapiocaOptionsBrokerCrossChain.IExerciseLZSendTapData",
          "name": "tapSendData",
          "type": "tuple"
        },
        {
          "components": [
            {
              "internalType": "bool",
              "name": "permitAll",
              "type": "bool"
            },
            {
              "internalType": "bool",
              "name": "allowFailure",
              "type": "bool"
            },
            {
              "internalType": "address",
              "name": "target",
              "type": "address"
            },
            {
              "internalType": "bool",
              "name": "permitBorrow",
              "type": "bool"
            },
            {
              "internalType": "address",
              "name": "owner",
              "type": "address"
            },
            {
              "internalType": "address",
              "name": "spender",
              "type": "address"
            },
            {
              "internalType": "uint256",
              "name": "value",
              "type": "uint256"
            },
            {
              "internalType": "uint256",
              "name": "deadline",
              "type": "uint256"
            },
            {
              "internalType": "uint8",
              "name": "v",
              "type": "uint8"
            },
            {
              "internalType": "bytes32",
              "name": "r",
              "type": "bytes32"
            },
            {
              "internalType": "bytes32",
              "name": "s",
              "type": "bytes32"
            }
          ],
          "internalType": "struct ICommonData.IApproval[]",
          "name": "approvals",
          "type": "tuple[]"
        }
      ],
      "name": "exerciseOption",
      "outputs": [],
      "stateMutability": "payable",
      "type": "function"
    },
    {
      "inputs": [
        {
          "internalType": "uint16",
          "name": "",
          "type": "uint16"
        },
        {
          "internalType": "bytes",
          "name": "",
          "type": "bytes"
        },
        {
          "internalType": "uint64",
          "name": "",
          "type": "uint64"
        }
      ],
      "name": "failedMessages",
      "outputs": [
        {
          "internalType": "bytes32",
          "name": "",
          "type": "bytes32"
        }
      ],
      "stateMutability": "view",
      "type": "function"
    },
    {
      "inputs": [
        {
          "internalType": "address",
          "name": "token",
          "type": "address"
        },
        {
          "internalType": "uint256",
          "name": "amount",
          "type": "uint256"
        }
      ],
      "name": "flashFee",
      "outputs": [
        {
          "internalType": "uint256",
          "name": "",
          "type": "uint256"
        }
      ],
      "stateMutability": "view",
      "type": "function"
    },
    {
      "inputs": [
        {
          "internalType": "contract IERC3156FlashBorrower",
          "name": "receiver",
          "type": "address"
        },
        {
          "internalType": "address",
          "name": "token",
          "type": "address"
        },
        {
          "internalType": "uint256",
          "name": "amount",
          "type": "uint256"
        },
        {
          "internalType": "bytes",
          "name": "data",
          "type": "bytes"
        }
      ],
      "name": "flashLoan",
      "outputs": [
        {
          "internalType": "bool",
          "name": "",
          "type": "bool"
        }
      ],
      "stateMutability": "nonpayable",
      "type": "function"
    },
    {
      "inputs": [],
      "name": "flashMintFee",
      "outputs": [
        {
          "internalType": "uint256",
          "name": "",
          "type": "uint256"
        }
      ],
      "stateMutability": "view",
      "type": "function"
    },
    {
      "inputs": [
        {
          "internalType": "uint16",
          "name": "_srcChainId",
          "type": "uint16"
        },
        {
          "internalType": "bytes",
          "name": "_srcAddress",
          "type": "bytes"
        }
      ],
      "name": "forceResumeReceive",
      "outputs": [],
      "stateMutability": "nonpayable",
      "type": "function"
    },
    {
      "inputs": [
        {
          "internalType": "uint16",
          "name": "_version",
          "type": "uint16"
        },
        {
          "internalType": "uint16",
          "name": "_chainId",
          "type": "uint16"
        },
        {
          "internalType": "address",
          "name": "",
          "type": "address"
        },
        {
          "internalType": "uint256",
          "name": "_configType",
          "type": "uint256"
        }
      ],
      "name": "getConfig",
      "outputs": [
        {
          "internalType": "bytes",
          "name": "",
          "type": "bytes"
        }
      ],
      "stateMutability": "view",
      "type": "function"
    },
    {
      "inputs": [
        {
          "internalType": "uint16",
          "name": "_remoteChainId",
          "type": "uint16"
        }
      ],
      "name": "getTrustedRemoteAddress",
      "outputs": [
        {
          "internalType": "bytes",
          "name": "",
          "type": "bytes"
        }
      ],
      "stateMutability": "view",
      "type": "function"
    },
    {
      "inputs": [
        {
          "internalType": "address",
          "name": "spender",
          "type": "address"
        },
        {
          "internalType": "uint256",
          "name": "addedValue",
          "type": "uint256"
        }
      ],
      "name": "increaseAllowance",
      "outputs": [
        {
          "internalType": "bool",
          "name": "",
          "type": "bool"
        }
      ],
      "stateMutability": "nonpayable",
      "type": "function"
    },
    {
      "inputs": [
        {
          "internalType": "address",
          "name": "from",
          "type": "address"
        },
        {
          "internalType": "uint256",
          "name": "collateralAmount",
          "type": "uint256"
        },
        {
          "internalType": "uint256",
          "name": "borrowAmount",
          "type": "uint256"
        },
        {
          "components": [
            {
              "internalType": "address",
              "name": "tokenOut",
              "type": "address"
            },
            {
              "internalType": "uint256",
              "name": "amountOutMin",
              "type": "uint256"
            },
            {
              "internalType": "bytes",
              "name": "data",
              "type": "bytes"
            }
          ],
          "internalType": "struct IUSDOBase.ILeverageSwapData",
          "name": "swapData",
          "type": "tuple"
        },
        {
          "components": [
            {
              "internalType": "uint256",
              "name": "srcExtraGasLimit",
              "type": "uint256"
            },
            {
              "internalType": "uint16",
              "name": "lzSrcChainId",
              "type": "uint16"
            },
            {
              "internalType": "uint16",
              "name": "lzDstChainId",
              "type": "uint16"
            },
            {
              "internalType": "address",
              "name": "zroPaymentAddress",
              "type": "address"
            },
            {
              "internalType": "bytes",
              "name": "dstAirdropAdapterParam",
              "type": "bytes"
            },
            {
              "internalType": "bytes",
              "name": "srcAirdropAdapterParam",
              "type": "bytes"
            },
            {
              "internalType": "address",
              "name": "refundAddress",
              "type": "address"
            }
          ],
          "internalType": "struct IUSDOBase.ILeverageLZData",
          "name": "lzData",
          "type": "tuple"
        },
        {
          "components": [
            {
              "internalType": "address",
              "name": "swapper",
              "type": "address"
            },
            {
              "internalType": "address",
              "name": "magnetar",
              "type": "address"
            },
            {
              "internalType": "address",
              "name": "tOft",
              "type": "address"
            },
            {
              "internalType": "address",
              "name": "srcMarket",
              "type": "address"
            }
          ],
          "internalType": "struct IUSDOBase.ILeverageExternalContractsData",
          "name": "externalData",
          "type": "tuple"
        },
        {
          "internalType": "bytes",
          "name": "airdropAdapterParams",
          "type": "bytes"
        },
        {
          "components": [
            {
              "internalType": "bool",
              "name": "permitAll",
              "type": "bool"
            },
            {
              "internalType": "bool",
              "name": "allowFailure",
              "type": "bool"
            },
            {
              "internalType": "address",
              "name": "target",
              "type": "address"
            },
            {
              "internalType": "bool",
              "name": "permitBorrow",
              "type": "bool"
            },
            {
              "internalType": "address",
              "name": "owner",
              "type": "address"
            },
            {
              "internalType": "address",
              "name": "spender",
              "type": "address"
            },
            {
              "internalType": "uint256",
              "name": "value",
              "type": "uint256"
            },
            {
              "internalType": "uint256",
              "name": "deadline",
              "type": "uint256"
            },
            {
              "internalType": "uint8",
              "name": "v",
              "type": "uint8"
            },
            {
              "internalType": "bytes32",
              "name": "r",
              "type": "bytes32"
            },
            {
              "internalType": "bytes32",
              "name": "s",
              "type": "bytes32"
            }
          ],
          "internalType": "struct ICommonData.IApproval[]",
          "name": "approvals",
          "type": "tuple[]"
        }
      ],
      "name": "initMultiHopBuy",
      "outputs": [],
      "stateMutability": "payable",
      "type": "function"
    },
    {
      "inputs": [
        {
          "internalType": "uint16",
          "name": "",
          "type": "uint16"
        }
      ],
      "name": "isLdChain",
      "outputs": [
        {
          "internalType": "bool",
          "name": "",
          "type": "bool"
        }
      ],
      "stateMutability": "view",
      "type": "function"
    },
    {
      "inputs": [
        {
          "internalType": "uint16",
          "name": "_srcChainId",
          "type": "uint16"
        },
        {
          "internalType": "bytes",
          "name": "_srcAddress",
          "type": "bytes"
        }
      ],
      "name": "isTrustedRemote",
      "outputs": [
        {
          "internalType": "bool",
          "name": "",
          "type": "bool"
        }
      ],
      "stateMutability": "view",
      "type": "function"
    },
    {
      "inputs": [],
      "name": "leverageModule",
      "outputs": [
        {
          "internalType": "contract USDOLeverageModule",
          "name": "",
          "type": "address"
        }
      ],
      "stateMutability": "view",
      "type": "function"
    },
    {
      "inputs": [],
      "name": "lzEndpoint",
      "outputs": [
        {
          "internalType": "contract ILayerZeroEndpoint",
          "name": "",
          "type": "address"
        }
      ],
      "stateMutability": "view",
      "type": "function"
    },
    {
      "inputs": [
        {
          "internalType": "uint16",
          "name": "_srcChainId",
          "type": "uint16"
        },
        {
          "internalType": "bytes",
          "name": "_srcAddress",
          "type": "bytes"
        },
        {
          "internalType": "uint64",
          "name": "_nonce",
          "type": "uint64"
        },
        {
          "internalType": "bytes",
          "name": "_payload",
          "type": "bytes"
        }
      ],
      "name": "lzReceive",
      "outputs": [],
      "stateMutability": "nonpayable",
      "type": "function"
    },
    {
      "inputs": [],
      "name": "marketModule",
      "outputs": [
        {
          "internalType": "contract USDOMarketModule",
          "name": "",
          "type": "address"
        }
      ],
      "stateMutability": "view",
      "type": "function"
    },
    {
      "inputs": [
        {
          "internalType": "address",
          "name": "",
          "type": "address"
        }
      ],
      "name": "maxFlashLoan",
      "outputs": [
        {
          "internalType": "uint256",
          "name": "",
          "type": "uint256"
        }
      ],
      "stateMutability": "view",
      "type": "function"
    },
    {
      "inputs": [],
      "name": "maxFlashMint",
      "outputs": [
        {
          "internalType": "uint256",
          "name": "",
          "type": "uint256"
        }
      ],
      "stateMutability": "view",
      "type": "function"
    },
    {
      "inputs": [
        {
          "internalType": "uint16",
          "name": "",
          "type": "uint16"
        },
        {
          "internalType": "uint16",
          "name": "",
          "type": "uint16"
        }
      ],
      "name": "minDstGasLookup",
      "outputs": [
        {
          "internalType": "uint256",
          "name": "",
          "type": "uint256"
        }
      ],
      "stateMutability": "view",
      "type": "function"
    },
    {
      "inputs": [
        {
          "internalType": "address",
          "name": "_to",
          "type": "address"
        },
        {
          "internalType": "uint256",
          "name": "_amount",
          "type": "uint256"
        }
      ],
      "name": "mint",
      "outputs": [],
      "stateMutability": "nonpayable",
      "type": "function"
    },
    {
      "inputs": [],
      "name": "name",
      "outputs": [
        {
          "internalType": "string",
          "name": "",
          "type": "string"
        }
      ],
      "stateMutability": "view",
      "type": "function"
    },
    {
      "inputs": [
        {
          "internalType": "uint16",
          "name": "_srcChainId",
          "type": "uint16"
        },
        {
          "internalType": "bytes",
          "name": "_srcAddress",
          "type": "bytes"
        },
        {
          "internalType": "uint64",
          "name": "_nonce",
          "type": "uint64"
        },
        {
          "internalType": "bytes",
          "name": "_payload",
          "type": "bytes"
        }
      ],
      "name": "nonblockingLzReceive",
      "outputs": [],
      "stateMutability": "nonpayable",
      "type": "function"
    },
    {
      "inputs": [
        {
          "internalType": "address",
          "name": "owner",
          "type": "address"
        }
      ],
      "name": "nonces",
      "outputs": [
        {
          "internalType": "uint256",
          "name": "",
          "type": "uint256"
        }
      ],
      "stateMutability": "view",
      "type": "function"
    },
    {
      "inputs": [],
      "name": "optionsModule",
      "outputs": [
        {
          "internalType": "contract USDOOptionsModule",
          "name": "",
          "type": "address"
        }
      ],
      "stateMutability": "view",
      "type": "function"
    },
    {
      "inputs": [],
      "name": "owner",
      "outputs": [
        {
          "internalType": "address",
          "name": "",
          "type": "address"
        }
      ],
      "stateMutability": "view",
      "type": "function"
    },
    {
      "inputs": [],
      "name": "paused",
      "outputs": [
        {
          "internalType": "bool",
          "name": "",
          "type": "bool"
        }
      ],
      "stateMutability": "view",
      "type": "function"
    },
    {
      "inputs": [
        {
          "internalType": "uint16",
          "name": "",
          "type": "uint16"
        }
      ],
      "name": "payloadSizeLimitLookup",
      "outputs": [
        {
          "internalType": "uint256",
          "name": "",
          "type": "uint256"
        }
      ],
      "stateMutability": "view",
      "type": "function"
    },
    {
      "inputs": [
        {
          "internalType": "address",
          "name": "owner",
          "type": "address"
        },
        {
          "internalType": "address",
          "name": "spender",
          "type": "address"
        },
        {
          "internalType": "uint256",
          "name": "value",
          "type": "uint256"
        },
        {
          "internalType": "uint256",
          "name": "deadline",
          "type": "uint256"
        },
        {
          "internalType": "uint8",
          "name": "v",
          "type": "uint8"
        },
        {
          "internalType": "bytes32",
          "name": "r",
          "type": "bytes32"
        },
        {
          "internalType": "bytes32",
          "name": "s",
          "type": "bytes32"
        }
      ],
      "name": "permit",
      "outputs": [],
      "stateMutability": "nonpayable",
      "type": "function"
    },
    {
      "inputs": [],
      "name": "precrime",
      "outputs": [
        {
          "internalType": "address",
          "name": "",
          "type": "address"
        }
      ],
      "stateMutability": "view",
      "type": "function"
    },
    {
      "inputs": [
        {
          "internalType": "address",
          "name": "from",
          "type": "address"
        },
        {
          "internalType": "address",
          "name": "to",
          "type": "address"
        },
        {
          "internalType": "uint16",
          "name": "lzDstChainId",
          "type": "uint16"
        },
        {
          "internalType": "address",
          "name": "zroPaymentAddress",
          "type": "address"
        },
        {
          "internalType": "bytes",
          "name": "adapterParams",
          "type": "bytes"
        },
        {
          "components": [
            {
              "internalType": "address",
              "name": "magnetar",
              "type": "address"
            },
            {
              "internalType": "address",
              "name": "singularity",
              "type": "address"
            },
            {
              "internalType": "address",
              "name": "bigBang",
              "type": "address"
            }
          ],
          "internalType": "struct ICommonData.ICommonExternalContracts",
          "name": "externalData",
          "type": "tuple"
        },
        {
          "components": [
            {
              "internalType": "bool",
              "name": "removeAssetFromSGL",
              "type": "bool"
            },
            {
              "internalType": "uint256",
              "name": "removeShare",
              "type": "uint256"
            },
            {
              "internalType": "bool",
              "name": "repayAssetOnBB",
              "type": "bool"
            },
            {
              "internalType": "uint256",
              "name": "repayAmount",
              "type": "uint256"
            },
            {
              "internalType": "bool",
              "name": "removeCollateralFromBB",
              "type": "bool"
            },
            {
              "internalType": "uint256",
              "name": "collateralShare",
              "type": "uint256"
            },
            {
              "components": [
                {
                  "internalType": "bool",
                  "name": "exit",
                  "type": "bool"
                },
                {
                  "internalType": "address",
                  "name": "target",
                  "type": "address"
                },
                {
                  "internalType": "uint256",
                  "name": "oTAPTokenID",
                  "type": "uint256"
                }
              ],
              "internalType": "struct ITapiocaOptionsBroker.IOptionsExitData",
              "name": "exitData",
              "type": "tuple"
            },
            {
              "components": [
                {
                  "internalType": "bool",
                  "name": "unlock",
                  "type": "bool"
                },
                {
                  "internalType": "address",
                  "name": "target",
                  "type": "address"
                },
                {
                  "internalType": "uint256",
                  "name": "tokenId",
                  "type": "uint256"
                }
              ],
              "internalType": "struct ITapiocaOptionLiquidityProvision.IOptionsUnlockData",
              "name": "unlockData",
              "type": "tuple"
            },
            {
              "components": [
                {
                  "internalType": "bool",
                  "name": "withdraw",
                  "type": "bool"
                },
                {
                  "internalType": "uint256",
                  "name": "withdrawLzFeeAmount",
                  "type": "uint256"
                },
                {
                  "internalType": "bool",
                  "name": "withdrawOnOtherChain",
                  "type": "bool"
                },
                {
                  "internalType": "uint16",
                  "name": "withdrawLzChainId",
                  "type": "uint16"
                },
                {
                  "internalType": "bytes",
                  "name": "withdrawAdapterParams",
                  "type": "bytes"
                }
              ],
              "internalType": "struct ICommonData.IWithdrawParams",
              "name": "assetWithdrawData",
              "type": "tuple"
            },
            {
              "components": [
                {
                  "internalType": "bool",
                  "name": "withdraw",
                  "type": "bool"
                },
                {
                  "internalType": "uint256",
                  "name": "withdrawLzFeeAmount",
                  "type": "uint256"
                },
                {
                  "internalType": "bool",
                  "name": "withdrawOnOtherChain",
                  "type": "bool"
                },
                {
                  "internalType": "uint16",
                  "name": "withdrawLzChainId",
                  "type": "uint16"
                },
                {
                  "internalType": "bytes",
                  "name": "withdrawAdapterParams",
                  "type": "bytes"
                }
              ],
              "internalType": "struct ICommonData.IWithdrawParams",
              "name": "collateralWithdrawData",
              "type": "tuple"
            }
          ],
          "internalType": "struct IUSDOBase.IRemoveAndRepay",
          "name": "removeAndRepayData",
          "type": "tuple"
        },
        {
          "components": [
            {
              "internalType": "bool",
              "name": "permitAll",
              "type": "bool"
            },
            {
              "internalType": "bool",
              "name": "allowFailure",
              "type": "bool"
            },
            {
              "internalType": "address",
              "name": "target",
              "type": "address"
            },
            {
              "internalType": "bool",
              "name": "permitBorrow",
              "type": "bool"
            },
            {
              "internalType": "address",
              "name": "owner",
              "type": "address"
            },
            {
              "internalType": "address",
              "name": "spender",
              "type": "address"
            },
            {
              "internalType": "uint256",
              "name": "value",
              "type": "uint256"
            },
            {
              "internalType": "uint256",
              "name": "deadline",
              "type": "uint256"
            },
            {
              "internalType": "uint8",
              "name": "v",
              "type": "uint8"
            },
            {
              "internalType": "bytes32",
              "name": "r",
              "type": "bytes32"
            },
            {
              "internalType": "bytes32",
              "name": "s",
              "type": "bytes32"
            }
          ],
          "internalType": "struct ICommonData.IApproval[]",
          "name": "approvals",
          "type": "tuple[]"
        }
      ],
      "name": "removeAsset",
      "outputs": [],
      "stateMutability": "payable",
      "type": "function"
    },
    {
      "inputs": [],
      "name": "renounceOwnership",
      "outputs": [],
      "stateMutability": "nonpayable",
      "type": "function"
    },
    {
      "inputs": [
        {
          "internalType": "uint16",
          "name": "_srcChainId",
          "type": "uint16"
        },
        {
          "internalType": "bytes",
          "name": "_srcAddress",
          "type": "bytes"
        },
        {
          "internalType": "uint64",
          "name": "_nonce",
          "type": "uint64"
        },
        {
          "internalType": "bytes",
          "name": "_payload",
          "type": "bytes"
        }
      ],
      "name": "retryMessage",
      "outputs": [],
      "stateMutability": "payable",
      "type": "function"
    },
    {
      "inputs": [
        {
          "internalType": "address",
          "name": "_from",
          "type": "address"
        },
        {
          "internalType": "uint16",
          "name": "_dstChainId",
          "type": "uint16"
        },
        {
          "internalType": "bytes32",
          "name": "_toAddress",
          "type": "bytes32"
        },
        {
          "internalType": "uint256",
          "name": "_amount",
          "type": "uint256"
        },
        {
          "internalType": "bytes",
          "name": "_payload",
          "type": "bytes"
        },
        {
          "internalType": "uint64",
          "name": "_dstGasForCall",
          "type": "uint64"
        },
        {
          "components": [
            {
              "internalType": "address payable",
              "name": "refundAddress",
              "type": "address"
            },
            {
              "internalType": "address",
              "name": "zroPaymentAddress",
              "type": "address"
            },
            {
              "internalType": "bytes",
              "name": "adapterParams",
              "type": "bytes"
            }
          ],
          "internalType": "struct ICommonOFT.LzCallParams",
          "name": "_callParams",
          "type": "tuple"
        }
      ],
      "name": "sendAndCall",
      "outputs": [],
      "stateMutability": "payable",
      "type": "function"
    },
    {
      "inputs": [
        {
          "internalType": "address",
          "name": "_from",
          "type": "address"
        },
        {
          "internalType": "address",
          "name": "_to",
          "type": "address"
        },
        {
          "internalType": "uint16",
          "name": "lzDstChainId",
          "type": "uint16"
        },
        {
          "internalType": "address",
          "name": "zroPaymentAddress",
          "type": "address"
        },
        {
          "components": [
            {
              "internalType": "bool",
              "name": "repay",
              "type": "bool"
            },
            {
              "internalType": "uint256",
              "name": "depositAmount",
              "type": "uint256"
            },
            {
              "internalType": "uint256",
              "name": "repayAmount",
              "type": "uint256"
            },
            {
              "internalType": "address",
              "name": "marketHelper",
              "type": "address"
            },
            {
              "internalType": "address",
              "name": "market",
              "type": "address"
            },
            {
              "internalType": "bool",
              "name": "removeCollateral",
              "type": "bool"
            },
            {
              "internalType": "uint256",
              "name": "removeCollateralShare",
              "type": "uint256"
            },
            {
              "components": [
                {
                  "internalType": "bool",
                  "name": "lock",
                  "type": "bool"
                },
                {
                  "internalType": "address",
                  "name": "target",
                  "type": "address"
                },
                {
                  "internalType": "uint128",
                  "name": "lockDuration",
                  "type": "uint128"
                },
                {
                  "internalType": "uint128",
                  "name": "amount",
                  "type": "uint128"
                },
                {
                  "internalType": "uint256",
                  "name": "fraction",
                  "type": "uint256"
                }
              ],
              "internalType": "struct ITapiocaOptionLiquidityProvision.IOptionsLockData",
              "name": "lockData",
              "type": "tuple"
            },
            {
              "components": [
                {
                  "internalType": "bool",
                  "name": "participate",
                  "type": "bool"
                },
                {
                  "internalType": "address",
                  "name": "target",
                  "type": "address"
                },
                {
                  "internalType": "uint256",
                  "name": "tOLPTokenId",
                  "type": "uint256"
                }
              ],
              "internalType": "struct ITapiocaOptionsBroker.IOptionsParticipateData",
              "name": "participateData",
              "type": "tuple"
            }
          ],
          "internalType": "struct IUSDOBase.ILendOrRepayParams",
          "name": "lendParams",
          "type": "tuple"
        },
        {
          "components": [
            {
              "internalType": "bool",
              "name": "permitAll",
              "type": "bool"
            },
            {
              "internalType": "bool",
              "name": "allowFailure",
              "type": "bool"
            },
            {
              "internalType": "address",
              "name": "target",
              "type": "address"
            },
            {
              "internalType": "bool",
              "name": "permitBorrow",
              "type": "bool"
            },
            {
              "internalType": "address",
              "name": "owner",
              "type": "address"
            },
            {
              "internalType": "address",
              "name": "spender",
              "type": "address"
            },
            {
              "internalType": "uint256",
              "name": "value",
              "type": "uint256"
            },
            {
              "internalType": "uint256",
              "name": "deadline",
              "type": "uint256"
            },
            {
              "internalType": "uint8",
              "name": "v",
              "type": "uint8"
            },
            {
              "internalType": "bytes32",
              "name": "r",
              "type": "bytes32"
            },
            {
              "internalType": "bytes32",
              "name": "s",
              "type": "bytes32"
            }
          ],
          "internalType": "struct ICommonData.IApproval[]",
          "name": "approvals",
          "type": "tuple[]"
        },
        {
          "components": [
            {
              "internalType": "bool",
              "name": "withdraw",
              "type": "bool"
            },
            {
              "internalType": "uint256",
              "name": "withdrawLzFeeAmount",
              "type": "uint256"
            },
            {
              "internalType": "bool",
              "name": "withdrawOnOtherChain",
              "type": "bool"
            },
            {
              "internalType": "uint16",
              "name": "withdrawLzChainId",
              "type": "uint16"
            },
            {
              "internalType": "bytes",
              "name": "withdrawAdapterParams",
              "type": "bytes"
            }
          ],
          "internalType": "struct ICommonData.IWithdrawParams",
          "name": "withdrawParams",
          "type": "tuple"
        },
        {
          "internalType": "bytes",
          "name": "adapterParams",
          "type": "bytes"
        }
      ],
      "name": "sendAndLendOrRepay",
      "outputs": [],
      "stateMutability": "payable",
      "type": "function"
    },
    {
      "inputs": [
        {
          "internalType": "uint256",
          "name": "amount",
          "type": "uint256"
        },
        {
          "internalType": "address",
          "name": "leverageFor",
          "type": "address"
        },
        {
          "components": [
            {
              "internalType": "uint256",
              "name": "srcExtraGasLimit",
              "type": "uint256"
            },
            {
              "internalType": "uint16",
              "name": "lzSrcChainId",
              "type": "uint16"
            },
            {
              "internalType": "uint16",
              "name": "lzDstChainId",
              "type": "uint16"
            },
            {
              "internalType": "address",
              "name": "zroPaymentAddress",
              "type": "address"
            },
            {
              "internalType": "bytes",
              "name": "dstAirdropAdapterParam",
              "type": "bytes"
            },
            {
              "internalType": "bytes",
              "name": "srcAirdropAdapterParam",
              "type": "bytes"
            },
            {
              "internalType": "address",
              "name": "refundAddress",
              "type": "address"
            }
          ],
          "internalType": "struct IUSDOBase.ILeverageLZData",
          "name": "lzData",
          "type": "tuple"
        },
        {
          "components": [
            {
              "internalType": "address",
              "name": "tokenOut",
              "type": "address"
            },
            {
              "internalType": "uint256",
              "name": "amountOutMin",
              "type": "uint256"
            },
            {
              "internalType": "bytes",
              "name": "data",
              "type": "bytes"
            }
          ],
          "internalType": "struct IUSDOBase.ILeverageSwapData",
          "name": "swapData",
          "type": "tuple"
        },
        {
          "components": [
            {
              "internalType": "address",
              "name": "swapper",
              "type": "address"
            },
            {
              "internalType": "address",
              "name": "magnetar",
              "type": "address"
            },
            {
              "internalType": "address",
              "name": "tOft",
              "type": "address"
            },
            {
              "internalType": "address",
              "name": "srcMarket",
              "type": "address"
            }
          ],
          "internalType": "struct IUSDOBase.ILeverageExternalContractsData",
          "name": "externalData",
          "type": "tuple"
        }
      ],
      "name": "sendForLeverage",
      "outputs": [],
      "stateMutability": "payable",
      "type": "function"
    },
    {
      "inputs": [
        {
          "internalType": "address",
          "name": "_from",
          "type": "address"
        },
        {
          "internalType": "uint16",
          "name": "_dstChainId",
          "type": "uint16"
        },
        {
          "internalType": "bytes32",
          "name": "_toAddress",
          "type": "bytes32"
        },
        {
          "internalType": "uint256",
          "name": "_amount",
          "type": "uint256"
        },
        {
          "components": [
            {
              "internalType": "address payable",
              "name": "refundAddress",
              "type": "address"
            },
            {
              "internalType": "address",
              "name": "zroPaymentAddress",
              "type": "address"
            },
            {
              "internalType": "bytes",
              "name": "adapterParams",
              "type": "bytes"
            }
          ],
          "internalType": "struct ICommonOFT.LzCallParams",
          "name": "_callParams",
          "type": "tuple"
        }
      ],
      "name": "sendFrom",
      "outputs": [],
      "stateMutability": "payable",
      "type": "function"
    },
    {
      "inputs": [
        {
          "internalType": "address",
          "name": "_for",
          "type": "address"
        },
        {
          "internalType": "bool",
          "name": "_status",
          "type": "bool"
        }
      ],
      "name": "setBurnerStatus",
      "outputs": [],
      "stateMutability": "nonpayable",
      "type": "function"
    },
    {
      "inputs": [
        {
          "internalType": "uint16",
          "name": "_version",
          "type": "uint16"
        },
        {
          "internalType": "uint16",
          "name": "_chainId",
          "type": "uint16"
        },
        {
          "internalType": "uint256",
          "name": "_configType",
          "type": "uint256"
        },
        {
          "internalType": "bytes",
          "name": "_config",
          "type": "bytes"
        }
      ],
      "name": "setConfig",
      "outputs": [],
      "stateMutability": "nonpayable",
      "type": "function"
    },
    {
      "inputs": [
        {
          "internalType": "address",
          "name": "_conservator",
          "type": "address"
        }
      ],
      "name": "setConservator",
      "outputs": [],
      "stateMutability": "nonpayable",
      "type": "function"
    },
    {
      "inputs": [
        {
          "internalType": "uint256",
          "name": "_val",
          "type": "uint256"
        }
      ],
      "name": "setFlashMintFee",
      "outputs": [],
      "stateMutability": "nonpayable",
      "type": "function"
    },
    {
      "inputs": [
        {
          "internalType": "uint16",
          "name": "_chainId",
          "type": "uint16"
        },
        {
          "internalType": "bool",
          "name": "_isLdChain",
          "type": "bool"
        }
      ],
      "name": "setLdChain",
      "outputs": [],
      "stateMutability": "nonpayable",
      "type": "function"
    },
    {
      "inputs": [
        {
          "internalType": "uint256",
          "name": "_val",
          "type": "uint256"
        }
      ],
      "name": "setMaxFlashMintable",
      "outputs": [],
      "stateMutability": "nonpayable",
      "type": "function"
    },
    {
      "inputs": [
        {
          "internalType": "uint16",
          "name": "_dstChainId",
          "type": "uint16"
        },
        {
          "internalType": "uint16",
          "name": "_packetType",
          "type": "uint16"
        },
        {
          "internalType": "uint256",
          "name": "_minGas",
          "type": "uint256"
        }
      ],
      "name": "setMinDstGas",
      "outputs": [],
      "stateMutability": "nonpayable",
      "type": "function"
    },
    {
      "inputs": [
        {
          "internalType": "address",
          "name": "_for",
          "type": "address"
        },
        {
          "internalType": "bool",
          "name": "_status",
          "type": "bool"
        }
      ],
      "name": "setMinterStatus",
      "outputs": [],
      "stateMutability": "nonpayable",
      "type": "function"
    },
    {
      "inputs": [
        {
          "internalType": "uint16",
          "name": "_dstChainId",
          "type": "uint16"
        },
        {
          "internalType": "uint256",
          "name": "_size",
          "type": "uint256"
        }
      ],
      "name": "setPayloadSizeLimit",
      "outputs": [],
      "stateMutability": "nonpayable",
      "type": "function"
    },
    {
      "inputs": [
        {
          "internalType": "address",
          "name": "_precrime",
          "type": "address"
        }
      ],
      "name": "setPrecrime",
      "outputs": [],
      "stateMutability": "nonpayable",
      "type": "function"
    },
    {
      "inputs": [
        {
          "internalType": "uint16",
          "name": "_version",
          "type": "uint16"
        }
      ],
      "name": "setReceiveVersion",
      "outputs": [],
      "stateMutability": "nonpayable",
      "type": "function"
    },
    {
      "inputs": [
        {
          "internalType": "uint16",
          "name": "_version",
          "type": "uint16"
        }
      ],
      "name": "setSendVersion",
      "outputs": [],
      "stateMutability": "nonpayable",
      "type": "function"
    },
    {
      "inputs": [
        {
          "internalType": "uint16",
          "name": "_srcChainId",
          "type": "uint16"
        },
        {
          "internalType": "bytes",
          "name": "_path",
          "type": "bytes"
        }
      ],
      "name": "setTrustedRemote",
      "outputs": [],
      "stateMutability": "nonpayable",
      "type": "function"
    },
    {
      "inputs": [
        {
          "internalType": "uint16",
          "name": "_remoteChainId",
          "type": "uint16"
        },
        {
          "internalType": "bytes",
          "name": "_remoteAddress",
          "type": "bytes"
        }
      ],
      "name": "setTrustedRemoteAddress",
      "outputs": [],
      "stateMutability": "nonpayable",
      "type": "function"
    },
    {
      "inputs": [
        {
          "internalType": "bool",
          "name": "_useCustomAdapterParams",
          "type": "bool"
        }
      ],
      "name": "setUseCustomAdapterParams",
      "outputs": [],
      "stateMutability": "nonpayable",
      "type": "function"
    },
    {
      "inputs": [],
      "name": "sharedDecimals",
      "outputs": [
        {
          "internalType": "uint8",
          "name": "",
          "type": "uint8"
        }
      ],
      "stateMutability": "view",
      "type": "function"
    },
    {
      "inputs": [
        {
          "internalType": "bytes4",
          "name": "interfaceId",
          "type": "bytes4"
        }
      ],
      "name": "supportsInterface",
      "outputs": [
        {
          "internalType": "bool",
          "name": "",
          "type": "bool"
        }
      ],
      "stateMutability": "view",
      "type": "function"
    },
    {
      "inputs": [],
      "name": "symbol",
      "outputs": [
        {
          "internalType": "string",
          "name": "",
          "type": "string"
        }
      ],
      "stateMutability": "view",
      "type": "function"
    },
    {
      "inputs": [],
      "name": "token",
      "outputs": [
        {
          "internalType": "address",
          "name": "",
          "type": "address"
        }
      ],
      "stateMutability": "view",
      "type": "function"
    },
    {
      "inputs": [],
      "name": "totalSupply",
      "outputs": [
        {
          "internalType": "uint256",
          "name": "",
          "type": "uint256"
        }
      ],
      "stateMutability": "view",
      "type": "function"
    },
    {
      "inputs": [
        {
          "internalType": "address",
          "name": "to",
          "type": "address"
        },
        {
          "internalType": "uint256",
          "name": "amount",
          "type": "uint256"
        }
      ],
      "name": "transfer",
      "outputs": [
        {
          "internalType": "bool",
          "name": "",
          "type": "bool"
        }
      ],
      "stateMutability": "nonpayable",
      "type": "function"
    },
    {
      "inputs": [
        {
          "internalType": "address",
          "name": "from",
          "type": "address"
        },
        {
          "internalType": "address",
          "name": "to",
          "type": "address"
        },
        {
          "internalType": "uint256",
          "name": "amount",
          "type": "uint256"
        }
      ],
      "name": "transferFrom",
      "outputs": [
        {
          "internalType": "bool",
          "name": "",
          "type": "bool"
        }
      ],
      "stateMutability": "nonpayable",
      "type": "function"
    },
    {
      "inputs": [
        {
          "internalType": "address",
          "name": "newOwner",
          "type": "address"
        }
      ],
      "name": "transferOwnership",
      "outputs": [],
      "stateMutability": "nonpayable",
      "type": "function"
    },
    {
      "inputs": [
        {
          "internalType": "uint16",
          "name": "lzDstChainId",
          "type": "uint16"
        },
        {
          "internalType": "bytes",
          "name": "airdropAdapterParams",
          "type": "bytes"
        },
        {
          "internalType": "address",
          "name": "zroPaymentAddress",
          "type": "address"
        },
        {
          "internalType": "uint256",
          "name": "amount",
          "type": "uint256"
        },
        {
          "components": [
            {
              "internalType": "address payable",
              "name": "refundAddress",
              "type": "address"
            },
            {
              "internalType": "address",
              "name": "zroPaymentAddress",
              "type": "address"
            },
            {
              "internalType": "bytes",
              "name": "adapterParams",
              "type": "bytes"
            }
          ],
          "internalType": "struct ISendFrom.LzCallParams",
          "name": "sendFromData",
          "type": "tuple"
        },
        {
          "components": [
            {
              "internalType": "bool",
              "name": "permitAll",
              "type": "bool"
            },
            {
              "internalType": "bool",
              "name": "allowFailure",
              "type": "bool"
            },
            {
              "internalType": "address",
              "name": "target",
              "type": "address"
            },
            {
              "internalType": "bool",
              "name": "permitBorrow",
              "type": "bool"
            },
            {
              "internalType": "address",
              "name": "owner",
              "type": "address"
            },
            {
              "internalType": "address",
              "name": "spender",
              "type": "address"
            },
            {
              "internalType": "uint256",
              "name": "value",
              "type": "uint256"
            },
            {
              "internalType": "uint256",
              "name": "deadline",
              "type": "uint256"
            },
            {
              "internalType": "uint8",
              "name": "v",
              "type": "uint8"
            },
            {
              "internalType": "bytes32",
              "name": "r",
              "type": "bytes32"
            },
            {
              "internalType": "bytes32",
              "name": "s",
              "type": "bytes32"
            }
          ],
          "internalType": "struct ICommonData.IApproval[]",
          "name": "approvals",
          "type": "tuple[]"
        }
      ],
      "name": "triggerSendFrom",
      "outputs": [],
      "stateMutability": "payable",
      "type": "function"
    },
    {
      "inputs": [
        {
          "internalType": "uint16",
          "name": "",
          "type": "uint16"
        }
      ],
      "name": "trustedRemoteLookup",
      "outputs": [
        {
          "internalType": "bytes",
          "name": "",
          "type": "bytes"
        }
      ],
      "stateMutability": "view",
      "type": "function"
    },
    {
      "inputs": [
        {
          "internalType": "bool",
          "name": "val",
          "type": "bool"
        }
      ],
      "name": "updatePause",
      "outputs": [],
      "stateMutability": "nonpayable",
      "type": "function"
    },
    {
      "inputs": [],
      "name": "useCustomAdapterParams",
      "outputs": [
        {
          "internalType": "bool",
          "name": "",
          "type": "bool"
        }
      ],
      "stateMutability": "view",
      "type": "function"
    },
    {
      "inputs": [],
      "name": "yieldBox",
      "outputs": [
        {
          "internalType": "contract IYieldBoxBase",
          "name": "",
          "type": "address"
        }
      ],
      "stateMutability": "view",
      "type": "function"
    },
    {
      "stateMutability": "payable",
      "type": "receive"
    }
  ],
  "bytecode": "0x6101c08060405234620007425760c081620067ad803803809162000024828562000763565b83398101031262000742576200003a8162000787565b60208201516001600160a01b03811681036200074257826200006160406020950162000787565b92620000706060830162000787565b916200008d60a0620000856080840162000787565b920162000787565b916040516200009c8162000747565b6004815287810190635553444f60e01b9687835260405197620000bf8962000747565b600190818a528b8a0195603160f81b875260405191620000df8362000747565b60048352808e8401526040519d8e620000f88162000747565b60048152015262000109336200079c565b6001600160a01b0316608052600860a05280516001600160401b039c908d8111620004cb57600b54928484811c9416801562000737575b602085101462000629578190601f94858111620006de575b5060209085831160011462000656576000926200064a575b5050600019600383901b1c191690841b17600b555b8051918d8311620004cb57600c54918483811c931680156200063f575b602084101462000629578282859411620005ce575b50602091831160011462000546576000926200053a575b5050600019600383901b1c191690821b17600c555b6402540be40060c0526080516040516303408e4760e41b815290602090829060049082906001600160a01b03165afa9081156200052e57600091620004e1575b5061ffff169081600052600f60205260406000203360005260205260406000209160ff199282848254161790556000526010602052604060002033600052602052604060002091825416179055600a60125569152d02c7e14af680000060135560e052519020945190209380610160528461018052610120964688526040519560208701926000805160206200678d8339815191528452604088015260608701524660808701523060a087015260a086528560c08101109060c087011117620004cb5760c08501604052845190206101005230610140526000805160206200678d8339815191526101a052601680546001600160a01b03199081166001600160a01b03958616179091556017805482169285169290921790915560188054909116918316919091179055600054339116036200048357506001600160a01b038116156200042f5762000375906200079c565b604051615fa99182620007e483396080518281816105ff015281816108c201528181610a0d01528181610e6f015281816111d60152818161259e015281816129050152818161327501528181614593015281816150e7015281816153a60152615b55015260a05182611df5015260c05182615baf015260e05182612d1801526101005182613a7801525181613b3301526101405181613a4201526101605181613ac701526101805181613aed01526101a05181613aa40152f35b60405162461bcd60e51b815260206004820152602660248201527f4f776e61626c653a206e6577206f776e657220697320746865207a65726f206160448201526564647265737360d01b6064820152608490fd5b60c060649162461bcd60e51b82820152602060c4820152602060e48201527f4f776e61626c653a2063616c6c6572206973206e6f7420746865206f776e657261010482015201fd5b634e487b7160e01b600052604160045260246000fd5b6020813d60201162000525575b81620004fd6020938362000763565b810103126200052157519061ffff821682036200051e575061ffff62000223565b80fd5b5080fd5b3d9150620004ee565b6040513d6000823e3d90fd5b015190503880620001ce565b600c60009081528594507fdf6966c971051c3d54ec59162606531493a51404a002842f56009d7e5cf4a8c7929190601f198516905b818110620005b5575084116200059b575b505050811b01600c55620001e3565b015160001960f88460031b161c191690553880806200058c565b828401518555879690940193602093840193016200057b565b90919250600c60005260206000208380860160051c820192602087106200061f575b91869588929594930160051c01915b8281106200060f575050620001b7565b60008155869550879101620005ff565b92508192620005f0565b634e487b7160e01b600052602260045260246000fd5b92607f1692620001a2565b01519050388062000170565b600b60009081528794507f0175b7a638427703f0dbe7bb9bbf987a2551717b34e79f33b5b1008d1fa01db9929190601f198516905b818110620006c557508411620006ab575b505050811b01600b5562000185565b015160001960f88460031b161c191690553880806200069c565b828401518555899690940193602093840193016200068b565b909150600b60005260206000208580850160051c820192602086106200072d575b918891869594930160051c01915b8281106200071d57505062000158565b600081558594508891016200070d565b92508192620006ff565b93607f169362000140565b600080fd5b604081019081106001600160401b03821117620004cb57604052565b601f909101601f19168101906001600160401b03821190821017620004cb57604052565b51906001600160a01b03821682036200074257565b600080546001600160a01b039283166001600160a01b03198216811783559216907f8be0079c531659141344cd1fd0a4f28419497f9722a3daafe3b4186f6b6457e09080a356fe6080604052600436101561001b575b361561001957600080fd5b005b60003560e01c80621d35671461054057806301ffc9a71461053b57806306fdde031461053657806307e0db1714610531578063095ea7b31461052c5780630df374831461052757806310ddb1371461052257806316d995a91461051d57806318160ddd1461047357806318e7fa19146105185780631d2a0e3d1461051357806323b872dd1461050e578063313ce567146105095780633644e51514610504578063365260b4146104ff57806339509351146104fa5780633b597150146104f55780633d8b38f6146104f05780633f1f4fa4146104eb5780633f241900146104e657806340c10f19146104e157806342d65a8d146104dc57806344770515146104d75780634c42899a146104d75780635b8c41e6146104d25780635c975abb146104cd5780635cffe9de146104c8578063613255ab146104c357806366ad5c8a146104be578063695ef6bf146104b95780636cb2c958146104b457806370a08231146104af578063715018a6146104aa5780637533d788146104a557806376203b48146104a0578063796fd43a1461049b5780637ecebe0014610496578063857749b014610491578063862635681461048c57806389dd5602146104875780638cfd8f5c146104825780638da5cb5b1461047d5780639169d59e146104785780639358928b14610473578063940a1dc01461046e578063950c8a74146104695780639535f4dc1461046457806395d89b411461045f5780639bdb98121461045a5780639d3f4d1a146104555780639dc29fac146104505780639f38369a1461044b578063a457c2d714610446578063a4c51df514610441578063a6c3d1651461043c578063a9059cbb14610437578063b353aaa714610432578063ba03a8d71461042d578063baf3292d14610428578063bf2271ab14610423578063c44618341461041e578063cbed8b9c14610419578063ce8849ed14610414578063cfd8b3d81461040f578063d1deba1f1461040a578063d505accf14610405578063d9d98ce414610400578063dd62ed3e146103fb578063de406577146103f6578063df2a5b3b146103f1578063e6a20ae6146103ec578063eab45d9c146103e7578063eaffd49a146103e2578063eb8d72b7146103dd578063ec6d062b146103d8578063ed629c5c146103d3578063f00c298d146103ce578063f2fde38b146103c9578063f5b33dfa146103c4578063f5ecbdbc146103bf578063f8974de0146103ba578063fa74f0b5146103b55763fc0c546a0361000e57613454565b6133a2565b6132df565b61320b565b6131e2565b61312d565b6130bb565b613098565b613060565b612f37565b612eae565b612e50565b612e34565b612d47565b612d02565b612cb8565b612c8d565b612b2c565b6129ef565b6129c6565b61299d565b6128b1565b612894565b6127f6565b612650565b612618565b612588565b61255e565b6123fc565b61236b565b6122cb565b612228565b6121a8565b61218a565b61213f565b61209b565b611ff6565b611fbe565b611fa0565b610ac6565b611f08565b611edf565b611e80565b611e57565b611e19565b611ddb565b611d9e565b611cd6565b611a89565b611a32565b6118fe565b6118c1565b61178f565b6116ac565b611626565b6115fd565b611460565b61143d565b6113e9565b61123d565b6111bc565b611122565b61107b565b611022565b610fc6565b610f3b565b610eeb565b610de9565b610d6c565b610d50565b610d10565b610c74565b610b69565b610a6e565b6109e4565b6109a5565b610970565b610899565b6107b9565b6106fc565b6105e8565b61ffff81160361055157565b600080fd5b9181601f84011215610551578235916001600160401b038311610551576020838186019501011161055157565b9060806003198301126105515760043561059c81610545565b916001600160401b039060243582811161055157816105bd91600401610556565b9390939260443581811681036105515792606435918211610551576105e491600401610556565b9091565b34610551576105f636610583565b929493919291907f00000000000000000000000000000000000000000000000000000000000000006001600160a01b031633036106b75761067c610684926100199761067561065b6106568a61ffff166000526001602052604060002090565b611a17565b80519081841491826106ad575b508161068a575b50614a95565b369161131b565b92369161131b565b92614b95565b905061069736848661131b565b602081519101209060208151910120143861066f565b1515915038610668565b60405162461bcd60e51b815260206004820152601e60248201527f4c7a4170703a20696e76616c696420656e64706f696e742063616c6c657200006044820152606490fd5b346105515760203660031901126105515760043563ffffffff60e01b811680910361055157602090631f7ecdf760e01b8114908115610741575b506040519015158152f35b6301ffc9a760e01b14905038610736565b600091031261055157565b60005b8381106107705750506000910152565b8181015183820152602001610760565b906020916107998151809281855285808601910161075d565b601f01601f1916010190565b9060206107b6928181520190610780565b90565b34610551576000806003193601126108965760405181600b546107db81611947565b8084529060019081811690811561086e5750600114610815575b61081184610805818803826112bd565b604051918291826107a5565b0390f35b600b8352602094507f0175b7a638427703f0dbe7bb9bbf987a2551717b34e79f33b5b1008d1fa01db95b82841061085b57505050816108119361080592820101936107f5565b805485850187015292850192810161083f565b61081196506108059450602092508593915060ff191682840152151560051b820101936107f5565b80fd5b346105515760006020366003190112610896576004356108b881610545565b6108c061346f565b7f00000000000000000000000000000000000000000000000000000000000000006001600160a01b0316908290823b1561093457602461ffff918360405195869485936307e0db1760e01b85521660048401525af1801561092f57610923575080f35b61092c9061126f565b80f35b6139bb565b5080fd5b6001600160a01b0381160361055157565b6004359061095682610938565b565b6064359061095682610938565b359061095682610938565b346105515760403660031901126105515761099a60043561099081610938565b6024359033613688565b602060405160018152f35b346105515760403660031901126105515761ffff6004356109c581610545565b6109cd61346f565b166000526003602052602435604060002055600080f35b34610551576000602036600319011261089657600435610a0381610545565b610a0b61346f565b7f00000000000000000000000000000000000000000000000000000000000000006001600160a01b0316908290823b1561093457602461ffff918360405195869485936310ddb13760e01b85521660048401525af1801561092f57610923575080f35b3461055157602036600319011261055157600435610a8a61346f565b7f7d04cf410385806a9ac3566ac4cca4e5eaba6cc242abbf98f4f44e4ac6f3e8ff81601354610abe60405192839283610dd8565b0390a1601355005b34610551576000366003190112610551576020600a54604051908152f35b60c090600319011261055157600490565b60c0906101231901126105515761012490565b60609060c31901126105515760c490565b60609060a31901126105515760a490565b908160609103126105515790565b9181601f84011215610551578235916001600160401b03831161055157602080850194610160850201011161055157565b6102008060031936011261055157610b8036610ae4565b610b8936610b08565b91610b9336610af5565b916101e4356001600160401b0381116105515761001994610c45610c6f94610c5060a097610bc8610c61963690600401610b38565b9490956040519a8b996318e7fa1960e01b60208c01528035610be981610938565b600180841b0380911660248d0152806020830135610c0681610938565b1660448d0152604082013560648d0152606082013560848d01526080820135610c2e81610938565b1660a48c0152013560c48a015260e4890190613d27565b610144870190613d5f565b610204850152610224840191613c33565b03601f1981018352826112bd565b61446a565b3461055157602036600319011261055157600435610c9061346f565b620f4240811015610cd7577fb3a985697c0361591fe9933703eb14ce1d74444a2d349080b6dec8da77a4082b81601254610ccf60405192839283610dd8565b0390a1601255005b60405162461bcd60e51b81526020600482015260116024820152705553444f3a2066656520746f6f2062696760781b6044820152606490fd5b346105515760603660031901126105515761099a600435610d3081610938565b602435610d3c81610938565b60443591610d4b833383613789565b6135b9565b3461055157600036600319011261055157602060405160128152f35b34610551576000366003190112610551576020610d87613a3f565b604051908152f35b60643590811515820361055157565b60243590811515820361055157565b60a43590811515820361055157565b60043590811515820361055157565b3590811515820361055157565b908152602081019190915260400190565b346105515760a036600319011261055157600435610e0681610545565b610e0e610d8f565b90608435906001600160401b03821161055157610e346106756040933690600401610556565b90610e6b610e4e610e46604435615888565b602435615912565b928451958694859463040a7bb160e41b865230906004870161527e565b03817f00000000000000000000000000000000000000000000000000000000000000006001600160a01b03165afa90811561092f576000908192610eba575b5061081160405192839283610dd8565b9050610edd915060403d8111610ee4575b610ed581836112bd565b810190615268565b9038610eaa565b503d610ecb565b3461055157604036600319011261055157600435610f0881610938565b336000526009602052610f1f816040600020612601565b546024358101809111610f365761099a9133613688565b6134c7565b3461055157604036600319011261055157610019600435610f5b81610545565b61ffff610f66610d9e565b91610f6f61346f565b16600052600d60205260406000209060ff801983541691151516179055565b90604060031983011261055157600435610fa781610545565b91602435906001600160401b038211610551576105e491600401610556565b3461055157602061ffff611013610fdc36610f8e565b9390911660005260018452610ffe611005604060002060405192838092611981565b03826112bd565b84815191012092369161131b565b82815191012014604051908152f35b346105515760203660031901126105515761ffff60043561104281610545565b1660005260036020526020604060002054604051908152f35b6101e090608319011261055157608490565b908160a09103126105515790565b6102c03660031901126105515760043561109481610938565b6024356110a081610938565b604435916110ad83610545565b6110b5610958565b926110bf3661105b565b6001600160401b039461026435868111610551576110e1903690600401610b38565b92909161028435888111610551576110fd90369060040161106d565b946102a4359889116105515761111a610019993690600401610556565b989097614319565b346105515760403660031901126105515760043561113f81610938565b7f30385c845b448a36257a6a1716e6ad2e1bc2cbe333cde1e69fe849ad6511adfe60206024359261117560ff601154161561474d565b61117d61457e565b600052600f825261119f60ff61119860406000203390612601565b5416613b9f565b6111a984826148ff565b6040519384526001600160a01b031692a2005b34610551576111ca36610f8e565b91906111d461346f565b7f00000000000000000000000000000000000000000000000000000000000000006001600160a01b031691823b1561055157604051928380926342d65a8d60e01b82528161122b6000988997889460048501614b26565b03925af1801561092f57610923575080f35b3461055157600036600319011261055157602060405160008152f35b634e487b7160e01b600052604160045260246000fd5b6001600160401b03811161128257604052565b611259565b60c081019081106001600160401b0382111761128257604052565b604081019081106001600160401b0382111761128257604052565b601f909101601f19168101906001600160401b0382119082101761128257604052565b6040519061016082016001600160401b0381118382101761128257604052565b6001600160401b03811161128257601f01601f191660200190565b92919261132782611300565b9161133560405193846112bd565b829481845281830111610551578281602093846000960137010152565b60606003198201126105515760043561136a81610545565b916001600160401b03916024359083821161055157806023830112156105515781602461139c9360040135910161131b565b9160443590811681036105515790565b6020906113c692826040519483868095519384920161075d565b82019081520301902090565b9060018060401b0316600052602052604060002090565b3461055157602061143461ffff6114268361140336611352565b94909116600052600582526040600020826040519483868095519384920161075d565b8201908152030190206113d2565b54604051908152f35b3461055157600036600319011261055157602060ff601154166040519015158152f35b346105515760803660031901126105515760043561147d81610938565b60243561148981610938565b60443591606435906001600160401b0382116105515760206114b085933690600401610556565b9390946114c260ff601154161561474d565b6001600160a01b039461152a906114dc83881630146146b6565b6114ea846013541015614788565b6114f58415156147cb565b6114ff8484614723565b968796169761150e858a6148ff565b6040516323e30c8b60e01b81529788958695336004880161481f565b03816000875af193841561092f576115737f439148f0bbc682ca079e46d6e2c2f0c1e3b820f1a291b069d8882abf8cf18dd96115c3966115bd956000916115cf575b5014614852565b6115b86115b161158b30611586886125cd565b612601565b546115a161159986866134f9565b82101561488d565b6115ab85856134f9565b906148f2565b3086613688565b6134f9565b90614994565b60405160018152602090f35b6115f0915060203d81116115f6575b6115e881836112bd565b810190614810565b3861156c565b503d6115de565b3461055157602036600319011261055157611619600435610938565b6020601354604051908152f35b346105515761163436610583565b91929493903033036116585761067c6116529261001997369161131b565b92614d1c565b60405162461bcd60e51b815260206004820152602660248201527f4e6f6e626c6f636b696e674c7a4170703a2063616c6c6572206d7573742062656044820152650204c7a4170760d41b6064820152608490fd5b60a0366003190112610551576004356116c481610938565b6024356116d081610545565b604435916084356001600160401b03811161055157602061ffff611707600080516020615eb4833981519152933690600401610b2a565b9361177a853561171681610938565b611734610675868901359861172a8a610938565b6040810190615065565b61173e818a6157a0565b61175361174c6064356158f4565b5085615ae3565b9761175f8915156152c2565b61177161176b8a615888565b8c615912565b9234938b615362565b6040519485526001600160a01b0316941692a4005b60c0366003190112610551576004356117a781610545565b6001600160401b03602435818111610551576117c7903690600401610556565b9190926044356117d681610938565b608435838111610551576117ee903690600401610b2a565b9060a435938411610551576100199561ffff956118b2610c619460606118a261184f611821610c6f9b3690600401610b38565b9790966040519d8e9c8d6020630d96592b60e31b9101521660248d015260c060448d015260e48c0191613be0565b9260018060a01b0380981660648b015260643560848b015260231997888b86030160a48c015280823561188181610938565b168552602082013561189281610938565b1660208501526040810190613c01565b9190928160408201520191613be0565b928584030160c4860152613c33565b34610551576020366003190112610551576004356118de81610938565b60018060a01b031660005260086020526020604060002054604051908152f35b34610551576000806003193601126108965761191861346f565b80546001600160a01b03198116825581906001600160a01b0316600080516020615f148339815191528280a380f35b90600182811c92168015611977575b602083101461196157565b634e487b7160e01b600052602260045260246000fd5b91607f1691611956565b906000929180549161199283611947565b9182825260019384811690816000146119f457506001146119b4575b50505050565b90919394506000526020928360002092846000945b8386106119e05750505050010190388080806119ae565b8054858701830152940193859082016119c9565b9294505050602093945060ff191683830152151560051b010190388080806119ae565b90610956611a2b9260405193848092611981565b03836112bd565b346105515760203660031901126105515761ffff600435611a5281610545565b166000526001602052610811610ffe611a75604060002060405192838092611981565b604051918291602083526020830190610780565b60e036600319011261055157600435611aa181610938565b602435611aad81610545565b604435916001600160401b039060843582811161055157611ad2903690600401610556565b91909260a43591818316918284036105515760c43590811161055157611afc903690600401610b2a565b92611b33843595611b0c87610938565b611b2b611b2160208801359761172a89610938565b999092369161131b565b97369161131b565b9460ff60065416600014611c25576022865110611be1578560209561177161177a94611baf8c611b9c61ffff9a8b6022600080516020615eb48339815191529f0151931660005260028d52611b9660406000206001600052602052604060002090565b546134f9565b90611ba88215156157f5565b101561583e565b611bc4611bbd6064356158f4565b5088615ae3565b9a611bd08c15156152c2565b8d611bda8d615888565b90336159a0565b60405162461bcd60e51b815260206004820152601c60248201527b4c7a4170703a20696e76616c69642061646170746572506172616d7360201b6044820152606490fd5b948094935051611c5257600080516020615eb48339815191529460209461ffff9461177161177a94611baf565b60405162461bcd60e51b815260206004820152602660248201527f4f4654436f72653a205f61646170746572506172616d73206d7573742062652060448201526532b6b83a3c9760d11b6064820152608490fd5b908160e09103126105515790565b608090608319011261055157608490565b60809060a31901126105515760a490565b610100806003193601126105515760243590611cf182610938565b6001600160401b0360443581811161055157611d11903690600401611ca6565b926064359182116105515761001993610c61611d8e611d37611d99953690600401610b2a565b611d7c611d4336611cb4565b94604051988997633cb7ea1d60e11b60208a015260043560248a015260018060a01b031660448901526064880152610124870190613dfc565b85810360231901608487015290613dc8565b9160a4840190613ea4565b614515565b3461055157602036600319011261055157600435611dbb81610938565b60018060a01b031660005260146020526020604060002054604051908152f35b3461055157600036600319011261055157602060405160ff7f0000000000000000000000000000000000000000000000000000000000000000168152f35b346105515760203660031901126105515761ffff600435611e3981610545565b16600052600d602052602060ff604060002054166040519015158152f35b34610551576000366003190112610551576018546040516001600160a01b039091168152602090f35b34610551576040366003190112610551576020611434600435611ea281610545565b61ffff60243591611eb283610545565b166000526002835260406000209061ffff16600052602052604060002090565b6001600160a01b03169052565b34610551576000366003190112610551576000546040516001600160a01b039091168152602090f35b3461055157604036600319011261055157600435611f2581610938565b7fd7b463fb7e7be5d5389dafa46448b883b320f7c77f63a00c9db0e2865ccdb3d76020611f50610d9e565b92611f5961346f565b611f6161457e565b60005260108252611f8b84611f7a836040600020612601565b9060ff801983541691151516179055565b60405193151584526001600160a01b031692a2005b34610551576000366003190112610551576020601254604051908152f35b34610551576000366003190112610551576004546040516001600160a01b039091168152602090f35b90816101c09103126105515790565b6101403660031901126105515760043561200f81610938565b60243561201b81610938565b6044359161202883610545565b612030610958565b6001600160401b03939060843585811161055157612052903690600401610556565b9061205c36610b19565b926101043588811161055157612076903690600401611fe7565b946101243598891161055157612093610019993690600401610b38565b9890976141c6565b34610551576000806003193601126108965760405181600c546120bd81611947565b8084529060019081811690811561086e57506001146120e65761081184610805818803826112bd565b600c8352602094507fdf6966c971051c3d54ec59162606531493a51404a002842f56009d7e5cf4a8c75b82841061212c57505050816108119361080592820101936107f5565b8054858501870152928501928101612110565b3461055157602060ff61217e61ffff6114268461215b36611352565b94909116600052600782526040600020826040519483868095519384920161075d565b54166040519015158152f35b34610551576000366003190112610551576020601354604051908152f35b34610551576040366003190112610551576004356121c581610938565b7f696de425f79f4a40bc6d2122ca50507f0efbeabbff86a84871b7196ab8ea8df76020602435926121fb60ff601154161561474d565b61220361457e565b6000526010825261221e60ff61119860406000203390612601565b6111a98482614994565b346105515760203660031901126105515761ffff60043561224881610545565b166000526001602052610ffe612268604060002060405192838092611981565b805115612286576108058161228061081193516148d4565b90615c6c565b60405162461bcd60e51b815260206004820152601d60248201527f4c7a4170703a206e6f20747275737465642070617468207265636f72640000006044820152606490fd5b34610551576040366003190112610551576004356122e881610938565b60243590336000526009602052612303816040600020612601565b5491808310612318576115c392039033613688565b60405162461bcd60e51b815260206004820152602560248201527f45524332303a2064656372656173656420616c6c6f77616e63652062656c6f77604482015264207a65726f60d81b6064820152608490fd5b346105515760e03660031901126105515760043561238881610545565b6001600160401b0390606435828111610551576123a9903690600401610556565b6084929192358481168103610551576123c0610dad565b9160c435958611610551576123dc6123ec963690600401610556565b9590946044359060243590615097565b9061081160405192839283610dd8565b346105515761240a36610f8e565b9061241361346f565b6040519260209280838587013761243f6034868381013060601b888201520360148101885201866112bd565b61ffff8216600090815260018086526040822087519296909291906001600160401b0383116112825761247c836124768654611947565b86614b41565b80601f84116001146124da5750918080926124c99695948a9b600080516020615ed48339815191529b946124cf575b50501b916000199060031b1c19161790555b60405193849384614b26565b0390a180f35b0151925038806124ab565b91939498601f1984166124f287600052602060002090565b938a905b82821061254757505091600080516020615ed4833981519152999a959391856124c99896941061252e575b505050811b0190556124bd565b015160001960f88460031b161c19169055388080612521565b8088869782949787015181550196019401906124f6565b346105515760403660031901126105515761099a60043561257e81610938565b60243590336135b9565b34610551576000366003190112610551576040517f00000000000000000000000000000000000000000000000000000000000000006001600160a01b03168152602090f35b6001600160a01b0316600090815260096020526040902090565b6001600160a01b0316600090815260086020526040902090565b9060018060a01b0316600052602052604060002090565b3461055157604036600319011261055157602060ff61217e60243561263c81610938565b600435600052600f84526040600020612601565b34610551576020366003190112610551577f5db758e995a17ec1ad84bdef7e8c3293a0bd6179bcce400dff5d4c3d87db726b602060043561269081610938565b61269861346f565b600480546001600160a01b0319166001600160a01b03929092169182179055604051908152a1005b6084359060ff8216820361055157565b359060ff8216820361055157565b81601f82011215610551578035906001600160401b038211611282576040805193602091612711838660051b01876112bd565b848652828601918361016080970286010194818611610551578401925b85841061273f575050505050505090565b8684830312610551578487916127536112e0565b61275c87610dcb565b8152612769838801610dcb565b83820152612778868801610965565b868201526060612789818901610dcb565b90820152608061279a818901610965565b9082015260a06127ab818901610965565b9082015260c0808801359082015260e080880135908201526101006127d18189016126d0565b908201526101208088013590820152610140808801359082015281520193019261272e565b6101603660031901126105515761280b610949565b6001600160401b03906064358281116105515761282c903690600401610b2a565b60843583811161055157612844903690600401611ca6565b9061284e36611cc5565b6101243585811161055157612867903690600401610556565b93909261014435968711610551576128866100199736906004016126de565b956044359060243590613efc565b346105515760003660031901126105515760206040516127108152f35b34610551576080366003190112610551576004356128ce81610545565b6024356128da81610545565b6064356001600160401b038111610551576128f9903690600401610556565b909261290361346f565b7f00000000000000000000000000000000000000000000000000000000000000006001600160a01b031690813b15610551576000809461297a604051978896879586946332fb62e760e21b865261ffff80921660048701521660248501526044356044850152608060648501526084840191613be0565b03925af1801561092f5761298a57005b806129976100199261126f565b80610752565b3461055157600036600319011261055157600e546040516001600160a01b039091168152602090f35b34610551576000366003190112610551576017546040516001600160a01b039091168152602090f35b6129f836610583565b9161ffff86949296166000526005602052612a2c81604060002060206040518092878b8337878201908152030190206113d2565b54918215612adb57612aca8483612ac37fc264d91f3adc5588250e1551f547752ca0cfa8f6b530d243b9f9f4cab10ea8e59a6000612aaf84612aaa8e8a8f612ad69f908f612a9090612a83612aa49436908d61131b565b6020815191012014614fd8565b61ffff166000526005602052604060002090565b91614fbf565b6113d2565b55612abb36878d61131b565b93369161131b565b9188614d1c565b6040519586958661502e565b0390a1005b60405162461bcd60e51b815260206004820152602360248201527f4e6f6e626c6f636b696e674c7a4170703a206e6f2073746f726564206d65737360448201526261676560e81b6064820152608490fd5b346105515760e036600319011261055157600435612b4981610938565b602435612b5581610938565b6044359060643592612b656126c0565b93804211612c4857612c30612c4391612c0a61001997612c18612ba38760018060a01b03166000526014602052604060002090815491600183019055565b604080517f6e71edae12b1b97f4d1f60370fef10105fa2faae0126114a169c64845d6126c9602082019081526001600160a01b03808c1693830193909352918b166060820152608081018c905260a081019290925260c082019590955292839060e0820190565b03601f1981018452836112bd565b612c2b60c4359360a43593519020613b59565b613865565b6001600160a01b03838116911614613819565b613688565b60405162461bcd60e51b815260206004820152601d60248201527f45524332305065726d69743a206578706972656420646561646c696e650000006044820152606490fd5b34610551576040366003190112610551576020610d87600435612caf81610938565b60243590614723565b34610551576040366003190112610551576020611434600435612cda81610938565b60243590612ce782610938565b6001600160a01b031660009081526009845260409020612601565b34610551576000366003190112610551576040517f00000000000000000000000000000000000000000000000000000000000000006001600160a01b03168152602090f35b3461055157606036600319011261055157600435612d6481610545565b602435612d7081610545565b60443591612d7c61346f565b8215612df757612ad67f9d5c7c0b934da8fefa9c7760c98383778a12dfbfc0c3b3106518f43fb9508ac09361ffff8316600052600260205280612dd18560406000209061ffff16600052602052604060002090565b556040519384938460409194939294606082019561ffff80921683521660208201520152565b60405162461bcd60e51b81526020600482015260156024820152744c7a4170703a20696e76616c6964206d696e47617360581b6044820152606490fd5b3461055157600036600319011261055157602060405160018152f35b34610551576020366003190112610551577f1584ad594a70cbe1e6515592e1272a987d922b097ead875069cebe8b40c004a46020612e8c610dbc565b612e9461346f565b151560ff196006541660ff821617600655604051908152a1005b346105515761010036600319011261055157600435612ecc81610545565b6001600160401b039060243582811161055157612eed903690600401610556565b919060443590848216820361055157608435612f0881610938565b60c43595861161055157612f23610019963690600401610556565b94909360e4359660a435946064359361518e565b3461055157612f4536610f8e565b9190612f4f61346f565b61ffff82166000908152600160208181526040832092949291906001600160401b03871161128257612f8b87612f858554611947565b85614b41565b8590601f8811600114612fe057509186808798936124c995600080516020615f548339815191529993612fd5575b501b906000198460031b1c191617905560405193849384614b26565b880135925038612fb9565b90601f198816612ff585600052602060002090565b9288905b82821061304957505091889391600080516020615f5483398151915298996124c996941061302f575b505082811b0190556124bd565b870135600019600386901b60f8161c191690553880613022565b808685968294968c01358155019501930190612ff9565b3461055157604036600319011261055157602060ff61217e60243561308481610938565b600435600052601084526040600020612601565b3461055157600036600319011261055157602060ff600654166040519015158152f35b34610551576040366003190112610551576004356130d881610938565b7f53b8f1e625ffdc96b26d9f5c6bba4ebc3f54077767495fa2619d32b285e193b96020613103610d9e565b9261310c61346f565b61311461457e565b600052600f8252611f8b84611f7a836040600020612601565b346105515760203660031901126105515760043561314a81610938565b61315261346f565b6001600160a01b03908116801561318e57600080546001600160a01b0319811683178255909216600080516020615f148339815191528380a380f35b60405162461bcd60e51b815260206004820152602660248201527f4f776e61626c653a206e6577206f776e657220697320746865207a65726f206160448201526564647265737360d01b6064820152608490fd5b34610551576000366003190112610551576016546040516001600160a01b039091168152602090f35b346105515760803660031901126105515760043561322881610545565b6024359061323582610545565b613240604435610938565b604051633d7b2f6f60e21b815261ffff91821660048201529116602482015230604482015260648035908201526000816084817f00000000000000000000000000000000000000000000000000000000000000006001600160a01b03165afa801561092f57610811916000916132be575b50604051918291826107a5565b6132d9913d8091833e6132d181836112bd565b810190614af0565b386132b1565b34610551576020366003190112610551576132f8610dbc565b61330d60018060a01b03600e54163314613b9f565b60ff60115416908115158115151461336a576040805192151583528115156020840152610019927f9c13c5f6c628c1c82eb2b3fd8714da5c2857dbd0ad8ab6b2074abcf81015d3969190a160ff8019601154169115151617601155565b60405162461bcd60e51b815260206004820152601060248201526f5553444f3a2073616d6520737461746560801b6044820152606490fd5b34610551576020366003190112610551576004356133bf81610938565b6133c761346f565b6001600160a01b039081169081156134155781600e549182167f5a62d22209e370e38eea92cfddcd228e656e6ec139243392a760a7769f5877fd600080a36001600160a01b03191617600e55005b60405162461bcd60e51b81526020600482015260176024820152761554d113ce881859191c995cdcc81b9bdd081d985b1a59604a1b6044820152606490fd5b34610551576000366003190112610551576020604051308152f35b6000546001600160a01b0316330361348357565b606460405162461bcd60e51b815260206004820152602060248201527f4f776e61626c653a2063616c6c6572206973206e6f7420746865206f776e65726044820152fd5b634e487b7160e01b600052601160045260246000fd5b90601f8201809211610f3657565b6051019081605111610f3657565b91908201809211610f3657565b1561350d57565b60405162461bcd60e51b815260206004820152602360248201527f45524332303a207472616e7366657220746f20746865207a65726f206164647260448201526265737360e81b6064820152608490fd5b1561356557565b60405162461bcd60e51b815260206004820152602660248201527f45524332303a207472616e7366657220616d6f756e7420657863656564732062604482015265616c616e636560d01b6064820152608490fd5b916001600160a01b0380841692909183156136355761361a82600080516020615f34833981519152946136309416966135f3881515613506565b61361484613600836125e7565b5461360d8282101561355e565b03916125e7565b556125e7565b8054820190556040519081529081906020820190565b0390a3565b60405162461bcd60e51b815260206004820152602560248201527f45524332303a207472616e736665722066726f6d20746865207a65726f206164604482015264647265737360d81b6064820152608490fd5b6001600160a01b0380821692919083156137385782169384156136e857806136d77f8c5be1e5ebec7d5bd14f71427d1e84f3dd0314c0f7b2291e5b200ac8c7c3b92594611586613630956125cd565b556040519081529081906020820190565b60405162461bcd60e51b815260206004820152602260248201527f45524332303a20617070726f766520746f20746865207a65726f206164647265604482015261737360f01b6064820152608490fd5b60405162461bcd60e51b8152602060048201526024808201527f45524332303a20617070726f76652066726f6d20746865207a65726f206164646044820152637265737360e01b6064820152608490fd5b9060018060a01b03821660005260096020526137a9816040600020612601565b5492600184016137b95750505050565b8084106137d4576137cb930391613688565b388080806119ae565b60405162461bcd60e51b815260206004820152601d60248201527f45524332303a20696e73756666696369656e7420616c6c6f77616e63650000006044820152606490fd5b1561382057565b60405162461bcd60e51b815260206004820152601e60248201527f45524332305065726d69743a20696e76616c6964207369676e617475726500006044820152606490fd5b916107b69391613874936139c7565b91909161389c565b6005111561388657565b634e487b7160e01b600052602160045260246000fd5b6138a58161387c565b806138ad5750565b6138b68161387c565b600181036139025760405162461bcd60e51b815260206004820152601860248201527745434453413a20696e76616c6964207369676e617475726560401b6044820152606490fd5b0390fd5b61390b8161387c565b600281036139585760405162461bcd60e51b815260206004820152601f60248201527f45434453413a20696e76616c6964207369676e6174757265206c656e677468006044820152606490fd5b8061396460039261387c565b1461396b57565b60405162461bcd60e51b815260206004820152602260248201527f45434453413a20696e76616c6964207369676e6174757265202773272076616c604482015261756560f01b6064820152608490fd5b6040513d6000823e3d90fd5b9291906fa2a8918ca85bafe22016d0b997e4df60600160ff1b038311613a335791608094939160ff602094604051948552168484015260408301526060820152600093849182805260015afa1561092f5781516001600160a01b03811615613a2d579190565b50600190565b50505050600090600390565b307f00000000000000000000000000000000000000000000000000000000000000006001600160a01b03161480613b30575b15613a9a577f000000000000000000000000000000000000000000000000000000000000000090565b60405160208101907f000000000000000000000000000000000000000000000000000000000000000082527f000000000000000000000000000000000000000000000000000000000000000060408201527f000000000000000000000000000000000000000000000000000000000000000060608201524660808201523060a082015260a08152613b2a81611287565b51902090565b507f00000000000000000000000000000000000000000000000000000000000000004614613a71565b613b61613a3f565b9060405190602082019261190160f01b845260228301526042820152604281526080810181811060018060401b038211176112825760405251902090565b15613ba657565b60405162461bcd60e51b81526020600482015260126024820152711554d113ce881d5b985d5d1a1bdc9a5e995960721b6044820152606490fd5b908060209392818452848401376000828201840152601f01601f1916010190565b9035601e1982360301811215610551570160208101919035906001600160401b03821161055157813603831361055157565b9190808252602080920192916000905b828210613c51575050505090565b9091929380613c6b600192613c6588610dcb565b15159052565b613c81613c79848801610dcb565b151582850152565b613c9a6040613c91818901610965565b90830190611ed2565b613cb26060613caa818901610dcb565b151590830152565b613cc26080613c91818901610965565b613cd260a0613c91818901610965565b60c0808701359082015260e08087013590820152613d00610100613cf78189016126d0565b60ff1690830152565b61012086810135908201526101408087013590820152610160908101950193920190613c43565b6040809161ffff8135613d3981610545565b1684526020810135613d4a81610938565b6001600160a01b031660208501520135910152565b60a08091613d6c81610dcb565b151584526020810135613d7e81610938565b600180841b03809116602086015261ffff6040830135613d9d81610545565b166040860152606082013560608601526080820135613dbb81610938565b1660808501520135910152565b9060606118a26107b6938035613ddd81610938565b6001600160a01b03168452602081810135908501526040810190613c01565b906107b690823581526020830135613e1381610545565b61ffff80911660208301526040840135613e2c81610545565b1660408201526060830135613e4081610938565b6001600160a01b0316606082015260c080613e90613e75613e646080880188613c01565b60e0608088015260e0870191613be0565b613e8260a0880188613c01565b9086830360a0880152613be0565b94013591613e9d83610938565b0190611ed2565b60609081813591613eb483610938565b6001600160a01b039283168552826020820135613ed081610938565b166020860152826040820135613ee581610938565b1660408601520135613ef681610938565b16910152565b9394909796604496613f71613f66613f53613f81969760409889519e8f9d8e60209d8e63bf2271ab60e01b9083015260018060a01b03166024820152015260648d01526101846101609c8d60848201520190613dc8565b6023198d8203810160a48f015299613dfc565b9360c48c0190613ea4565b868a8403016101448b0152613be0565b92868403016101648701528180865194858152019501936000915b848310613fc45750505050505090611d9981613fc09303601f1981018352826112bd565b5050565b90919293949584836001928951613fdd82825115159052565b80840151151582850152613ff78682015187840190611ed2565b60608181015115159083015261401560808083015190840190611ed2565b61402760a08083015190840190611ed2565b60c0818101519083015260e080820151908301526101008082015160ff169083015261012081810151908301526101409081015190820152019701959493019190613f9c565b6040809161407a81610dcb565b151584526020810135613d4a81610938565b9035609e1982360301811215610551570190565b9060a06140f56107b6936140b381610dcb565b15158452602081013560208501526140cd60408201610dcb565b1515604085015261ffff60608201356140e581610545565b1660608501526080810190613c01565b9190928160808201520191613be0565b906107b69161411782613c6583610dcb565b6020810135602083015261413961413060408301610dcb565b15156040840152565b6060810135606083015261415b61415260808301610dcb565b15156080840152565b60a081013560a083015261417560c0830160c0830161406d565b61418661012080840190830161406d565b6141a96101806141988184018461408c565b906101c080918601528401906140a0565b916141ba6101a0928381019061408c565b918184039101526140a0565b60405163254d7d3760e21b60208201526001600160a01b039182166024820152918116604483015261ffff9092166064820152918116608483015261014060a483015290968796959093909261422191610164890191613be0565b9381813561422e81610938565b1660c488015281602082013561424381610938565b1660e48801526040013561425681610938565b1661010486015260231992838682030161012487015261427591614105565b918483030161014485015261428992613c33565b03601f198101825261429b90826112bd565b613fc09061453f565b35906001600160801b038216820361055157565b608080916142c581610dcb565b1515845260208101356142d781610938565b6001600160a01b031660208501526000196001831b01806142fa604084016142a4565b16604086015261430c606083016142a4565b1660608501520135910152565b604051623f241960e81b60208201526001600160a01b039182166024820152918116604483015261ffff90921660648201529181166084830152909687969594909392909161436782610dcb565b151560a4890152602082013560c4890152604082013560e4890152606082013561439081610938565b166101048801526143a360808201610965565b61012488016143b191611ed2565b6143bd60a08201610dcb565b151561014488015260c08101356101648801526143e1610184880160e083016142b8565b6143f4906102248801906101800161406d565b61028486016102c090526102e486019061440d92613c33565b916023199283868203016102a4870152614426916140a0565b91848303016102c485015261428992613be0565b3d15614465573d9061444b82611300565b9161445960405193846112bd565b82523d6000602084013e565b606090565b6018546001600160a01b031680156144d757816000929160208493519201905af49061449461443a565b908215806144cf575b6144a357565b6138fe6144af83614634565b60405162461bcd60e51b8152602060048201529182916024830190610780565b50600161449d565b60405162461bcd60e51b81526020600482015260166024820152751554d113ce881b5bd91d5b19481b9bdd08199bdd5b9960521b6044820152606490fd5b6016546001600160a01b031680156144d757816000929160208493519201905af49061449461443a565b6017546001600160a01b031680156144d757816000929160208493519201905af49061449461443a565b9081602091031261055157516107b681610545565b6040516303408e4760e41b81526020816004817f00000000000000000000000000000000000000000000000000000000000000006001600160a01b03165afa801561092f5761ffff916000916145d357501690565b6145f4915060203d81116145f8575b6145ec81836112bd565b810190614569565b1690565b503d6145e2565b9092919261460c81611300565b9161461a60405193846112bd565b82948284528282011161055157602061095693019061075d565b604481511061468557600481015181019060208160248401930312610551576024810151906001600160401b038211610551570190806043830112156105515760248201516107b6926044016145ff565b50604051614692816112a2565b60148152735553444f3a206e6f2072657475726e206461746160601b602082015290565b156146bd57565b60405162461bcd60e51b81526020600482015260156024820152741554d113ce881d1bdad95b881b9bdd081d985b1a59605a1b6044820152606490fd5b81810292918115918404141715610f3657565b634e487b7160e01b600052601260045260246000fd5b620f42409161474991614740906001600160a01b031630146146b6565b601254906146fa565b0490565b1561475457565b60405162461bcd60e51b815260206004820152600c60248201526b1554d113ce881c185d5cd95960a21b6044820152606490fd5b1561478f57565b60405162461bcd60e51b81526020600482015260146024820152735553444f3a20616d6f756e7420746f6f2062696760601b6044820152606490fd5b156147d257565b60405162461bcd60e51b81526020600482015260166024820152751554d113ce88185b5bdd5b9d081b9bdd081d985b1a5960521b6044820152606490fd5b90816020910312610551575190565b91926107b696949160a094600180871b038092168552166020840152604083015260608201528160808201520191613be0565b1561485957565b60405162461bcd60e51b815260206004820152600c60248201526b1554d113ce8819985a5b195960a21b6044820152606490fd5b1561489457565b60405162461bcd60e51b81526020600482015260186024820152771554d113ce881c995c185e481b9bdd08185c1c1c9bdd995960421b6044820152606490fd5b601319810191908211610f3657565b605019810191908211610f3657565b91908203918211610f3657565b6001600160a01b0381169190821561494f57600a5490828201809211610f3657600092614940602092600080516020615f3483398151915294600a556125e7565b818154019055604051908152a3565b60405162461bcd60e51b815260206004820152601f60248201527f45524332303a206d696e7420746f20746865207a65726f2061646472657373006044820152606490fd5b6001600160a01b038116908115614a46576149ae816125e7565b548381106149f65783600080516020615f34833981519152926149d86000966136309403916125e7565b556149e681600a5403600a55565b6040519081529081906020820190565b60405162461bcd60e51b815260206004820152602260248201527f45524332303a206275726e20616d6f756e7420657863656564732062616c616e604482015261636560f01b6064820152608490fd5b60405162461bcd60e51b815260206004820152602160248201527f45524332303a206275726e2066726f6d20746865207a65726f206164647265736044820152607360f81b6064820152608490fd5b15614a9c57565b60405162461bcd60e51b815260206004820152602660248201527f4c7a4170703a20696e76616c696420736f757263652073656e64696e6720636f6044820152651b9d1c9858dd60d21b6064820152608490fd5b602081830312610551578051906001600160401b03821161055157019080601f830112156105515781516107b6926020016145ff565b60409061ffff6107b695931681528160208201520191613be0565b90601f8111614b4f57505050565b600091825260208220906020601f850160051c83019410614b8b575b601f0160051c01915b828110614b8057505050565b818155600101614b74565b9092508290614b6b565b929091614bf95a604051633356ae4560e11b602082015261ffff871660248201526080604482015290614bf382612c0a614bd260a483018a610780565b6001600160401b038816606484015282810360231901608484015288610780565b30615e68565b939015614c08575b5050505050565b614c1194614c1b565b3880808080614c01565b9193614cb97fe183f33de2837795525b4792ca4cd60535bd77c53b7e7030060bfcf5734d6b0c95614cc7939561ffff81516020830120961695866000526005602052614c7f8361142660208b6040600020826040519483868095519384920161075d565b55614c9c604051978897885260a0602089015260a0880190610780565b6001600160401b0390921660408701528582036060870152610780565b908382036080850152610780565b0390a1565b6001600160a01b03909116815261ffff909116602082015260a0604082018190526107b69492614cfe91830190610780565b6001600160401b039093166060820152808303608090910152610780565b929190614d2883615e1b565b6103068103614d70575060175461095694908190614d6b906001600160a01b0316610c6187878760405196879563100b652360e01b602088015260248701614ccc565b614f90565b6103078103614db8575060165461095694908190614db3906001600160a01b0316610c61878787604051968795634dd8df6360e11b602088015260248701614ccc565b614f61565b6103058103614de8575060405163163b7bd360e21b60208201526109569490614d6b81610c6187602483016107a5565b6103048103614e18575060405163462bae6560e01b60208201526109569490614db381610c6187602483016107a5565b6103098103614e60575060185461095694908190614e5b906001600160a01b0316610c618787876040519687956381618d0560e01b602088015260248701614ccc565b614f06565b61030a03614e8e5760405163af2ee97560e01b60208201526109569490614e5b81610c6187602483016107a5565b614ea0614e9a84615dc0565b60ff1690565b80614eb157505050610956916154d7565b600103614ec15761095693615602565b60405162461bcd60e51b815260206004820152601e60248201527f4f4654436f726556323a20756e6b6e6f776e207061636b6574207479706500006044820152606490fd5b60185491949293916001600160a01b031680156144d757816000929160208493519201905af492614f3561443a565b93158080614f59575b614f4d57614c08575050505050565b6138fe6144af86614634565b506000614f3e565b60165491949293916001600160a01b031680156144d757816000929160208493519201905af492614f3561443a565b60175491949293916001600160a01b031680156144d757816000929160208493519201905af492614f3561443a565b6020919283604051948593843782019081520301902090565b15614fdf57565b60405162461bcd60e51b815260206004820152602160248201527f4e6f6e626c6f636b696e674c7a4170703a20696e76616c6964207061796c6f616044820152601960fa1b6064820152608490fd5b9160609361ffff6150519398979698168452608060208501526080840191613be0565b6001600160401b0390951660408201520152565b903590601e198136030182121561055157018035906001600160401b0382116105515760200191813603831361055157565b949195989790611bda6150c06040996150b86150c6976150e399369161131b565b94369161131b565b97615888565b928451968794859463040a7bb160e41b865230906004870161527e565b03817f00000000000000000000000000000000000000000000000000000000000000006001600160a01b03165afa91821561092f57600090819361512657509190565b90506105e491925060403d8111610ee457610ed581836112bd565b939694916107b698969361ffff6151669316865260c0602087015260c0860191613be0565b6001600160401b0390961660408401526060830152608082015280840360a090910152613be0565b91969792989594939094303303615223576151aa908530615b09565b60405181815290946001600160a01b03169390849061ffff851690600080516020615ef483398151915290602090a3833b15610551576000988995615206936040519c8d9b8c9a8b98633fe79aed60e11b8a5260048a01615141565b0393f1801561092f576152165750565b806129976109569261126f565b60405162461bcd60e51b815260206004820152601f60248201527f4f4654436f72653a2063616c6c6572206d757374206265204f4654436f7265006044820152606490fd5b9190826040910312610551576020825192015190565b91926107b6959361ffff6152ad9316845260018060a01b0316602084015260a0604084015260a0830190610780565b92151560608201526080818403910152610780565b156152c957565b60405162461bcd60e51b815260206004820152601960248201527813d19510dbdc994e88185b5bdd5b9d081d1bdbc81cdb585b1b603a1b6044820152606490fd5b9261532f6107b697959361ffff61533d9416865260c0602087015260c0860190610780565b908482036040860152610780565b6001600160a01b0391821660608401529316608082015280830360a090910152610780565b9461538b9193929561ffff81166000526001602052615392604060002060405194858092611981565b03846112bd565b82511561540a576153a4855182615468565b7f00000000000000000000000000000000000000000000000000000000000000006001600160a01b031693843b15610551576000966153f991604051998a988997889662c5803160e81b88526004880161530a565b03925af1801561092f576152165750565b60405162461bcd60e51b815260206004820152603060248201527f4c7a4170703a2064657374696e6174696f6e20636861696e206973206e6f742060448201526f61207472757374656420736f7572636560801b6064820152608490fd5b61ffff1660005260036020526040600020549081156154cd575b1161548957565b606460405162461bcd60e51b815260206004820152602060248201527f4c7a4170703a207061796c6f61642073697a6520697320746f6f206c617267656044820152fd5b6127109150615482565b9060ff6154e382615dc0565b16158061556a575b6154f490615959565b61550661550082615d70565b91615e0b565b6001600160a01b039081831615615560575b61ffff600080516020615ef483398151915292615548602093615539615b40565b906001600160401b03166146fa565b9461555386826148ff565b60405195865216941692a3565b61dead9250615518565b5080516029146154eb565b989796929361559f60e0979361ffff6155d49894168c5260208c61010091829101528c0190610780565b6001600160401b0390951660408b015260608a01526001600160a01b0316608089015260a088015286820360c0880152610780565b930152565b6155f160409295949395606083526060830190610780565b94600180841b031660208201520152565b909161560d84615a0a565b909161563e61563787612aaa6156318b61ffff166000526007602052604060002090565b8c6113ac565b5460ff1690565b9161565a61564a615b40565b6001600160401b039384166146fa565b9288888b8315615756575b505050853b1561570b57946156ac9694614bf3948a94612c0a948d996000146157045750505a925b5a978b6040519a8b9863757fea4d60e11b60208b015260248a01615575565b90156156f95750906156f461ffff928560207fb8890edbfc1c74692f527444645f95489c3703cc2df42e4a366f5d06fa6cd884969751910120906040519485941696846155d9565b0390a2565b926109569492614c1b565b169261568d565b50506040516001600160a01b039094168452507f9aedf5fdba8716db3b6705ca00150643309995d4f818a249ed6dde6677e7792d975091955085945050602084019250614cc7915050565b90612aaa61578b9261578589615770615798979b306148ff565b9961ffff166000526007602052604060002090565b906113ac565b805460ff19166001179055565b88888b615665565b60065460ff16156157ed576022825110611be15761ffff6022610956930151911660005260026020526157e0604060002060008052602052604060002090565b5490611ba88215156157f5565b5051611c5257565b156157fc57565b60405162461bcd60e51b815260206004820152601a602482015279131e905c1c0e881b5a5b91d85cd31a5b5a5d081b9bdd081cd95d60321b6044820152606490fd5b1561584557565b60405162461bcd60e51b815260206004820152601b60248201527a4c7a4170703a20676173206c696d697420697320746f6f206c6f7760281b6044820152606490fd5b615890615b40565b9081156158ef576001600160401b039190048181116158ad571690565b60405162461bcd60e51b815260206004820152601a6024820152794f4654436f72653a20616d6f756e745344206f766572666c6f7760301b6044820152606490fd5b61470d565b6158fc615b40565b80156158ef57810690818103908111610f365791565b60405160006020820152602181019190915260c09190911b6001600160c01b031916604182015260298152606081016001600160401b038111828210176112825760405290565b1561596057565b60405162461bcd60e51b815260206004820152601860248201527713d19510dbdc994e881a5b9d985b1a59081c185e5b1bd85960421b6044820152606490fd5b93926071926107b694604051968794600160f81b6020870152602186015260018060c01b0319809360c01b16604186015260018060a01b0316604985015260c01b1660698301526159fa815180926020868601910161075d565b81010360518101845201826112bd565b90615a22600160ff615a1b85615dc0565b1614615959565b615a2b82615d70565b90615a3583615e0b565b906049845110615aa6576049840151936051815110615a6a57615a67605182015191615a6181516148e3565b90615cec565b91565b60405162461bcd60e51b8152602060048201526014602482015273746f55696e7436345f6f75744f66426f756e647360601b6044820152606490fd5b60405162461bcd60e51b8152602060048201526015602482015274746f427974657333325f6f75744f66426f756e647360581b6044820152606490fd5b6107b69082906001600160a01b038116331461499457615b04823383613789565b614994565b6107b69183916001600160a01b038116308114159081615b35575b50156135b957610d4b833383613789565b905033141538615b24565b6040516303408e4760e41b81526020816004817f00000000000000000000000000000000000000000000000000000000000000006001600160a01b03165afa801561092f5761ffff91600091615bd1575b5016600052600d60205260ff60406000205416615bad57600190565b7f000000000000000000000000000000000000000000000000000000000000000090565b615be9915060203d81116145f8576145ec81836112bd565b38615b91565b15615bf657565b60405162461bcd60e51b815260206004820152600e60248201526d736c6963655f6f766572666c6f7760901b6044820152606490fd5b15615c3357565b60405162461bcd60e51b8152602060048201526011602482015270736c6963655f6f75744f66426f756e647360781b6044820152606490fd5b615c8082615c79816134dd565b1015615bef565b615c8d8282511015615c2c565b81615ca5575050604051600081526020810160405290565b60405191601f811691821560051b808486010193838501920101905b808410615cd95750508252601f01601f191660405290565b9092835181526020809101930190615cc1565b615cf982615c79816134dd565b615d0e8151615d07846134eb565b1115615c2c565b81615d26575050604051600081526020810160405290565b60405191601f8116916051831560051b80858701019484860193010101905b808410615d5d5750508252601f01601f191660405290565b9092835181526020809101930190615d45565b6021815110615d8357602d015160601c90565b60405162461bcd60e51b8152602060048201526015602482015274746f416464726573735f6f75744f66426f756e647360581b6044820152606490fd5b6001815110615dd0576001015190565b60405162461bcd60e51b8152602060048201526013602482015272746f55696e74385f6f75744f66426f756e647360681b6044820152606490fd5b6029815110615a6a576029015190565b6020815110615e2b576020015190565b60405162461bcd60e51b8152602060048201526015602482015274746f55696e743235365f6f75744f66426f756e647360581b6044820152606490fd5b9092916000809160405195615e7c87611287565b6096875282602088019560a036883760208451940192f1903d9060968211615eaa575b6000908286523e9190565b60969150615e9f56fed81fc9b8523134ed613870ed029d6170cbb73aa6a6bc311b9a642689fb9df59a8c0400cfe2d1199b1a725c78960bcc2a344d869b80590d0f2bd005db15a572cebf551ec93859b170f9b2141bd9298bf3f64322c6f7beb2543a0cb669834118bf8be0079c531659141344cd1fd0a4f28419497f9722a3daafe3b4186f6b6457e0ddf252ad1be2c89b69c2b068fc378daa952ba7f163c4a11628f55a4df523b3effa41487ad5d6728f0b19276fa1eddc16558578f5109fc39d2dc33c3230470daba2646970667358221220fb0d9a50ce039ee3fdab14269f70686a70384e3690abf233b2a98c563cf52d0164736f6c634300081200338b73c3c69bb8fe3d512ecc4cf759cc79239f7b179b0ffacaa9a75d522b39400f",
  "linkReferences": {},
  "deployedLinkReferences": {}
}