{
  "_format": "hh-sol-artifact-1",
  "contractName": "USDOMarketModule",
  "sourceName": "contracts/usd0/modules/USDOMarketModule.sol",
  "abi": [
    {
      "inputs": [
        {
          "internalType": "address",
          "name": "_lzEndpoint",
          "type": "address"
        },
        {
          "internalType": "contract IYieldBoxBase",
          "name": "_yieldBox",
          "type": "address"
        }
      ],
      "stateMutability": "nonpayable",
      "type": "constructor"
    },
    {
      "anonymous": false,
      "inputs": [
        {
          "indexed": true,
          "internalType": "address",
          "name": "owner",
          "type": "address"
        },
        {
          "indexed": true,
          "internalType": "address",
          "name": "spender",
          "type": "address"
        },
        {
          "indexed": false,
          "internalType": "uint256",
          "name": "value",
          "type": "uint256"
        }
      ],
      "name": "Approval",
      "type": "event"
    },
    {
      "anonymous": false,
      "inputs": [
        {
          "indexed": true,
          "internalType": "address",
          "name": "_from",
          "type": "address"
        },
        {
          "indexed": false,
          "internalType": "uint256",
          "name": "_amount",
          "type": "uint256"
        }
      ],
      "name": "Burned",
      "type": "event"
    },
    {
      "anonymous": false,
      "inputs": [
        {
          "indexed": true,
          "internalType": "uint16",
          "name": "_srcChainId",
          "type": "uint16"
        },
        {
          "indexed": false,
          "internalType": "bytes",
          "name": "_srcAddress",
          "type": "bytes"
        },
        {
          "indexed": false,
          "internalType": "uint64",
          "name": "_nonce",
          "type": "uint64"
        },
        {
          "indexed": false,
          "internalType": "bytes32",
          "name": "_hash",
          "type": "bytes32"
        }
      ],
      "name": "CallOFTReceivedSuccess",
      "type": "event"
    },
    {
      "anonymous": false,
      "inputs": [
        {
          "indexed": true,
          "internalType": "address",
          "name": "old",
          "type": "address"
        },
        {
          "indexed": true,
          "internalType": "address",
          "name": "_new",
          "type": "address"
        }
      ],
      "name": "ConservatorUpdated",
      "type": "event"
    },
    {
      "anonymous": false,
      "inputs": [
        {
          "indexed": false,
          "internalType": "uint256",
          "name": "_old",
          "type": "uint256"
        },
        {
          "indexed": false,
          "internalType": "uint256",
          "name": "_new",
          "type": "uint256"
        }
      ],
      "name": "FlashMintFeeUpdated",
      "type": "event"
    },
    {
      "anonymous": false,
      "inputs": [
        {
          "indexed": false,
          "internalType": "uint256",
          "name": "_old",
          "type": "uint256"
        },
        {
          "indexed": false,
          "internalType": "uint256",
          "name": "_new",
          "type": "uint256"
        }
      ],
      "name": "MaxFlashMintUpdated",
      "type": "event"
    },
    {
      "anonymous": false,
      "inputs": [
        {
          "indexed": false,
          "internalType": "uint16",
          "name": "_srcChainId",
          "type": "uint16"
        },
        {
          "indexed": false,
          "internalType": "bytes",
          "name": "_srcAddress",
          "type": "bytes"
        },
        {
          "indexed": false,
          "internalType": "uint64",
          "name": "_nonce",
          "type": "uint64"
        },
        {
          "indexed": false,
          "internalType": "bytes",
          "name": "_payload",
          "type": "bytes"
        },
        {
          "indexed": false,
          "internalType": "bytes",
          "name": "_reason",
          "type": "bytes"
        }
      ],
      "name": "MessageFailed",
      "type": "event"
    },
    {
      "anonymous": false,
      "inputs": [
        {
          "indexed": true,
          "internalType": "address",
          "name": "_for",
          "type": "address"
        },
        {
          "indexed": false,
          "internalType": "uint256",
          "name": "_amount",
          "type": "uint256"
        }
      ],
      "name": "Minted",
      "type": "event"
    },
    {
      "anonymous": false,
      "inputs": [
        {
          "indexed": false,
          "internalType": "address",
          "name": "_address",
          "type": "address"
        }
      ],
      "name": "NonContractAddress",
      "type": "event"
    },
    {
      "anonymous": false,
      "inputs": [
        {
          "indexed": true,
          "internalType": "address",
          "name": "previousOwner",
          "type": "address"
        },
        {
          "indexed": true,
          "internalType": "address",
          "name": "newOwner",
          "type": "address"
        }
      ],
      "name": "OwnershipTransferred",
      "type": "event"
    },
    {
      "anonymous": false,
      "inputs": [
        {
          "indexed": false,
          "internalType": "bool",
          "name": "oldState",
          "type": "bool"
        },
        {
          "indexed": false,
          "internalType": "bool",
          "name": "newState",
          "type": "bool"
        }
      ],
      "name": "PausedUpdated",
      "type": "event"
    },
    {
      "anonymous": false,
      "inputs": [
        {
          "indexed": true,
          "internalType": "uint16",
          "name": "_srcChainId",
          "type": "uint16"
        },
        {
          "indexed": true,
          "internalType": "address",
          "name": "_to",
          "type": "address"
        },
        {
          "indexed": false,
          "internalType": "uint256",
          "name": "_amount",
          "type": "uint256"
        }
      ],
      "name": "ReceiveFromChain",
      "type": "event"
    },
    {
      "anonymous": false,
      "inputs": [
        {
          "indexed": false,
          "internalType": "uint16",
          "name": "_srcChainId",
          "type": "uint16"
        },
        {
          "indexed": false,
          "internalType": "bytes",
          "name": "_srcAddress",
          "type": "bytes"
        },
        {
          "indexed": false,
          "internalType": "uint64",
          "name": "_nonce",
          "type": "uint64"
        },
        {
          "indexed": false,
          "internalType": "bytes32",
          "name": "_payloadHash",
          "type": "bytes32"
        }
      ],
      "name": "RetryMessageSuccess",
      "type": "event"
    },
    {
      "anonymous": false,
      "inputs": [
        {
          "indexed": true,
          "internalType": "uint16",
          "name": "_dstChainId",
          "type": "uint16"
        },
        {
          "indexed": true,
          "internalType": "address",
          "name": "_from",
          "type": "address"
        },
        {
          "indexed": true,
          "internalType": "bytes32",
          "name": "_toAddress",
          "type": "bytes32"
        },
        {
          "indexed": false,
          "internalType": "uint256",
          "name": "_amount",
          "type": "uint256"
        }
      ],
      "name": "SendToChain",
      "type": "event"
    },
    {
      "anonymous": false,
      "inputs": [
        {
          "indexed": true,
          "internalType": "address",
          "name": "_for",
          "type": "address"
        },
        {
          "indexed": false,
          "internalType": "bool",
          "name": "_status",
          "type": "bool"
        }
      ],
      "name": "SetBurnerStatus",
      "type": "event"
    },
    {
      "anonymous": false,
      "inputs": [
        {
          "indexed": false,
          "internalType": "uint16",
          "name": "_dstChainId",
          "type": "uint16"
        },
        {
          "indexed": false,
          "internalType": "uint16",
          "name": "_type",
          "type": "uint16"
        },
        {
          "indexed": false,
          "internalType": "uint256",
          "name": "_minDstGas",
          "type": "uint256"
        }
      ],
      "name": "SetMinDstGas",
      "type": "event"
    },
    {
      "anonymous": false,
      "inputs": [
        {
          "indexed": true,
          "internalType": "address",
          "name": "_for",
          "type": "address"
        },
        {
          "indexed": false,
          "internalType": "bool",
          "name": "_status",
          "type": "bool"
        }
      ],
      "name": "SetMinterStatus",
      "type": "event"
    },
    {
      "anonymous": false,
      "inputs": [
        {
          "indexed": false,
          "internalType": "address",
          "name": "precrime",
          "type": "address"
        }
      ],
      "name": "SetPrecrime",
      "type": "event"
    },
    {
      "anonymous": false,
      "inputs": [
        {
          "indexed": false,
          "internalType": "uint16",
          "name": "_remoteChainId",
          "type": "uint16"
        },
        {
          "indexed": false,
          "internalType": "bytes",
          "name": "_path",
          "type": "bytes"
        }
      ],
      "name": "SetTrustedRemote",
      "type": "event"
    },
    {
      "anonymous": false,
      "inputs": [
        {
          "indexed": false,
          "internalType": "uint16",
          "name": "_remoteChainId",
          "type": "uint16"
        },
        {
          "indexed": false,
          "internalType": "bytes",
          "name": "_remoteAddress",
          "type": "bytes"
        }
      ],
      "name": "SetTrustedRemoteAddress",
      "type": "event"
    },
    {
      "anonymous": false,
      "inputs": [
        {
          "indexed": false,
          "internalType": "bool",
          "name": "_useCustomAdapterParams",
          "type": "bool"
        }
      ],
      "name": "SetUseCustomAdapterParams",
      "type": "event"
    },
    {
      "anonymous": false,
      "inputs": [
        {
          "indexed": true,
          "internalType": "address",
          "name": "from",
          "type": "address"
        },
        {
          "indexed": true,
          "internalType": "address",
          "name": "to",
          "type": "address"
        },
        {
          "indexed": false,
          "internalType": "uint256",
          "name": "value",
          "type": "uint256"
        }
      ],
      "name": "Transfer",
      "type": "event"
    },
    {
      "inputs": [],
      "name": "DEFAULT_PAYLOAD_SIZE_LIMIT",
      "outputs": [
        {
          "internalType": "uint256",
          "name": "",
          "type": "uint256"
        }
      ],
      "stateMutability": "view",
      "type": "function"
    },
    {
      "inputs": [],
      "name": "NO_EXTRA_GAS",
      "outputs": [
        {
          "internalType": "uint256",
          "name": "",
          "type": "uint256"
        }
      ],
      "stateMutability": "view",
      "type": "function"
    },
    {
      "inputs": [],
      "name": "PT_SEND",
      "outputs": [
        {
          "internalType": "uint8",
          "name": "",
          "type": "uint8"
        }
      ],
      "stateMutability": "view",
      "type": "function"
    },
    {
      "inputs": [],
      "name": "PT_SEND_AND_CALL",
      "outputs": [
        {
          "internalType": "uint8",
          "name": "",
          "type": "uint8"
        }
      ],
      "stateMutability": "view",
      "type": "function"
    },
    {
      "inputs": [
        {
          "internalType": "address",
          "name": "owner",
          "type": "address"
        },
        {
          "internalType": "address",
          "name": "spender",
          "type": "address"
        }
      ],
      "name": "allowance",
      "outputs": [
        {
          "internalType": "uint256",
          "name": "",
          "type": "uint256"
        }
      ],
      "stateMutability": "view",
      "type": "function"
    },
    {
      "inputs": [
        {
          "internalType": "uint256",
          "name": "",
          "type": "uint256"
        },
        {
          "internalType": "address",
          "name": "",
          "type": "address"
        }
      ],
      "name": "allowedBurner",
      "outputs": [
        {
          "internalType": "bool",
          "name": "",
          "type": "bool"
        }
      ],
      "stateMutability": "view",
      "type": "function"
    },
    {
      "inputs": [
        {
          "internalType": "uint256",
          "name": "",
          "type": "uint256"
        },
        {
          "internalType": "address",
          "name": "",
          "type": "address"
        }
      ],
      "name": "allowedMinter",
      "outputs": [
        {
          "internalType": "bool",
          "name": "",
          "type": "bool"
        }
      ],
      "stateMutability": "view",
      "type": "function"
    },
    {
      "inputs": [
        {
          "internalType": "address",
          "name": "spender",
          "type": "address"
        },
        {
          "internalType": "uint256",
          "name": "amount",
          "type": "uint256"
        }
      ],
      "name": "approve",
      "outputs": [
        {
          "internalType": "bool",
          "name": "",
          "type": "bool"
        }
      ],
      "stateMutability": "nonpayable",
      "type": "function"
    },
    {
      "inputs": [
        {
          "internalType": "address",
          "name": "account",
          "type": "address"
        }
      ],
      "name": "balanceOf",
      "outputs": [
        {
          "internalType": "uint256",
          "name": "",
          "type": "uint256"
        }
      ],
      "stateMutability": "view",
      "type": "function"
    },
    {
      "inputs": [
        {
          "internalType": "uint16",
          "name": "_srcChainId",
          "type": "uint16"
        },
        {
          "internalType": "bytes",
          "name": "_srcAddress",
          "type": "bytes"
        },
        {
          "internalType": "uint64",
          "name": "_nonce",
          "type": "uint64"
        },
        {
          "internalType": "bytes32",
          "name": "_from",
          "type": "bytes32"
        },
        {
          "internalType": "address",
          "name": "_to",
          "type": "address"
        },
        {
          "internalType": "uint256",
          "name": "_amount",
          "type": "uint256"
        },
        {
          "internalType": "bytes",
          "name": "_payload",
          "type": "bytes"
        },
        {
          "internalType": "uint256",
          "name": "_gasForCall",
          "type": "uint256"
        }
      ],
      "name": "callOnOFTReceived",
      "outputs": [],
      "stateMutability": "nonpayable",
      "type": "function"
    },
    {
      "inputs": [],
      "name": "circulatingSupply",
      "outputs": [
        {
          "internalType": "uint256",
          "name": "",
          "type": "uint256"
        }
      ],
      "stateMutability": "view",
      "type": "function"
    },
    {
      "inputs": [],
      "name": "conservator",
      "outputs": [
        {
          "internalType": "address",
          "name": "",
          "type": "address"
        }
      ],
      "stateMutability": "view",
      "type": "function"
    },
    {
      "inputs": [
        {
          "internalType": "uint16",
          "name": "",
          "type": "uint16"
        },
        {
          "internalType": "bytes",
          "name": "",
          "type": "bytes"
        },
        {
          "internalType": "uint64",
          "name": "",
          "type": "uint64"
        }
      ],
      "name": "creditedPackets",
      "outputs": [
        {
          "internalType": "bool",
          "name": "",
          "type": "bool"
        }
      ],
      "stateMutability": "view",
      "type": "function"
    },
    {
      "inputs": [],
      "name": "decimals",
      "outputs": [
        {
          "internalType": "uint8",
          "name": "",
          "type": "uint8"
        }
      ],
      "stateMutability": "view",
      "type": "function"
    },
    {
      "inputs": [
        {
          "internalType": "address",
          "name": "spender",
          "type": "address"
        },
        {
          "internalType": "uint256",
          "name": "subtractedValue",
          "type": "uint256"
        }
      ],
      "name": "decreaseAllowance",
      "outputs": [
        {
          "internalType": "bool",
          "name": "",
          "type": "bool"
        }
      ],
      "stateMutability": "nonpayable",
      "type": "function"
    },
    {
      "inputs": [
        {
          "internalType": "uint16",
          "name": "_dstChainId",
          "type": "uint16"
        },
        {
          "internalType": "bytes32",
          "name": "_toAddress",
          "type": "bytes32"
        },
        {
          "internalType": "uint256",
          "name": "_amount",
          "type": "uint256"
        },
        {
          "internalType": "bytes",
          "name": "_payload",
          "type": "bytes"
        },
        {
          "internalType": "uint64",
          "name": "_dstGasForCall",
          "type": "uint64"
        },
        {
          "internalType": "bool",
          "name": "_useZro",
          "type": "bool"
        },
        {
          "internalType": "bytes",
          "name": "_adapterParams",
          "type": "bytes"
        }
      ],
      "name": "estimateSendAndCallFee",
      "outputs": [
        {
          "internalType": "uint256",
          "name": "nativeFee",
          "type": "uint256"
        },
        {
          "internalType": "uint256",
          "name": "zroFee",
          "type": "uint256"
        }
      ],
      "stateMutability": "view",
      "type": "function"
    },
    {
      "inputs": [
        {
          "internalType": "uint16",
          "name": "_dstChainId",
          "type": "uint16"
        },
        {
          "internalType": "bytes32",
          "name": "_toAddress",
          "type": "bytes32"
        },
        {
          "internalType": "uint256",
          "name": "_amount",
          "type": "uint256"
        },
        {
          "internalType": "bool",
          "name": "_useZro",
          "type": "bool"
        },
        {
          "internalType": "bytes",
          "name": "_adapterParams",
          "type": "bytes"
        }
      ],
      "name": "estimateSendFee",
      "outputs": [
        {
          "internalType": "uint256",
          "name": "nativeFee",
          "type": "uint256"
        },
        {
          "internalType": "uint256",
          "name": "zroFee",
          "type": "uint256"
        }
      ],
      "stateMutability": "view",
      "type": "function"
    },
    {
      "inputs": [
        {
          "internalType": "uint16",
          "name": "",
          "type": "uint16"
        },
        {
          "internalType": "bytes",
          "name": "",
          "type": "bytes"
        },
        {
          "internalType": "uint64",
          "name": "",
          "type": "uint64"
        }
      ],
      "name": "failedMessages",
      "outputs": [
        {
          "internalType": "bytes32",
          "name": "",
          "type": "bytes32"
        }
      ],
      "stateMutability": "view",
      "type": "function"
    },
    {
      "inputs": [],
      "name": "flashMintFee",
      "outputs": [
        {
          "internalType": "uint256",
          "name": "",
          "type": "uint256"
        }
      ],
      "stateMutability": "view",
      "type": "function"
    },
    {
      "inputs": [
        {
          "internalType": "uint16",
          "name": "_srcChainId",
          "type": "uint16"
        },
        {
          "internalType": "bytes",
          "name": "_srcAddress",
          "type": "bytes"
        }
      ],
      "name": "forceResumeReceive",
      "outputs": [],
      "stateMutability": "nonpayable",
      "type": "function"
    },
    {
      "inputs": [
        {
          "internalType": "uint16",
          "name": "_version",
          "type": "uint16"
        },
        {
          "internalType": "uint16",
          "name": "_chainId",
          "type": "uint16"
        },
        {
          "internalType": "address",
          "name": "",
          "type": "address"
        },
        {
          "internalType": "uint256",
          "name": "_configType",
          "type": "uint256"
        }
      ],
      "name": "getConfig",
      "outputs": [
        {
          "internalType": "bytes",
          "name": "",
          "type": "bytes"
        }
      ],
      "stateMutability": "view",
      "type": "function"
    },
    {
      "inputs": [
        {
          "internalType": "uint16",
          "name": "_remoteChainId",
          "type": "uint16"
        }
      ],
      "name": "getTrustedRemoteAddress",
      "outputs": [
        {
          "internalType": "bytes",
          "name": "",
          "type": "bytes"
        }
      ],
      "stateMutability": "view",
      "type": "function"
    },
    {
      "inputs": [
        {
          "internalType": "address",
          "name": "spender",
          "type": "address"
        },
        {
          "internalType": "uint256",
          "name": "addedValue",
          "type": "uint256"
        }
      ],
      "name": "increaseAllowance",
      "outputs": [
        {
          "internalType": "bool",
          "name": "",
          "type": "bool"
        }
      ],
      "stateMutability": "nonpayable",
      "type": "function"
    },
    {
      "inputs": [
        {
          "internalType": "uint16",
          "name": "_srcChainId",
          "type": "uint16"
        },
        {
          "internalType": "bytes",
          "name": "_srcAddress",
          "type": "bytes"
        }
      ],
      "name": "isTrustedRemote",
      "outputs": [
        {
          "internalType": "bool",
          "name": "",
          "type": "bool"
        }
      ],
      "stateMutability": "view",
      "type": "function"
    },
    {
      "inputs": [
        {
          "internalType": "address",
          "name": "module",
          "type": "address"
        },
        {
          "internalType": "uint16",
          "name": "_srcChainId",
          "type": "uint16"
        },
        {
          "internalType": "bytes",
          "name": "_srcAddress",
          "type": "bytes"
        },
        {
          "internalType": "uint64",
          "name": "_nonce",
          "type": "uint64"
        },
        {
          "internalType": "bytes",
          "name": "_payload",
          "type": "bytes"
        }
      ],
      "name": "lend",
      "outputs": [],
      "stateMutability": "nonpayable",
      "type": "function"
    },
    {
      "inputs": [
        {
          "internalType": "address",
          "name": "to",
          "type": "address"
        },
        {
          "components": [
            {
              "internalType": "bool",
              "name": "repay",
              "type": "bool"
            },
            {
              "internalType": "uint256",
              "name": "depositAmount",
              "type": "uint256"
            },
            {
              "internalType": "uint256",
              "name": "repayAmount",
              "type": "uint256"
            },
            {
              "internalType": "address",
              "name": "marketHelper",
              "type": "address"
            },
            {
              "internalType": "address",
              "name": "market",
              "type": "address"
            },
            {
              "internalType": "bool",
              "name": "removeCollateral",
              "type": "bool"
            },
            {
              "internalType": "uint256",
              "name": "removeCollateralShare",
              "type": "uint256"
            },
            {
              "components": [
                {
                  "internalType": "bool",
                  "name": "lock",
                  "type": "bool"
                },
                {
                  "internalType": "address",
                  "name": "target",
                  "type": "address"
                },
                {
                  "internalType": "uint128",
                  "name": "lockDuration",
                  "type": "uint128"
                },
                {
                  "internalType": "uint128",
                  "name": "amount",
                  "type": "uint128"
                }
              ],
              "internalType": "struct ITapiocaOptionLiquidityProvision.IOptionsLockData",
              "name": "lockData",
              "type": "tuple"
            },
            {
              "components": [
                {
                  "internalType": "bool",
                  "name": "participate",
                  "type": "bool"
                },
                {
                  "internalType": "address",
                  "name": "target",
                  "type": "address"
                }
              ],
              "internalType": "struct ITapiocaOptionsBroker.IOptionsParticipateData",
              "name": "participateData",
              "type": "tuple"
            }
          ],
          "internalType": "struct IUSDOBase.ILendParams",
          "name": "lendParams",
          "type": "tuple"
        },
        {
          "components": [
            {
              "internalType": "bool",
              "name": "permitAll",
              "type": "bool"
            },
            {
              "internalType": "bool",
              "name": "allowFailure",
              "type": "bool"
            },
            {
              "internalType": "address",
              "name": "target",
              "type": "address"
            },
            {
              "internalType": "bool",
              "name": "permitBorrow",
              "type": "bool"
            },
            {
              "internalType": "address",
              "name": "owner",
              "type": "address"
            },
            {
              "internalType": "address",
              "name": "spender",
              "type": "address"
            },
            {
              "internalType": "uint256",
              "name": "value",
              "type": "uint256"
            },
            {
              "internalType": "uint256",
              "name": "deadline",
              "type": "uint256"
            },
            {
              "internalType": "uint8",
              "name": "v",
              "type": "uint8"
            },
            {
              "internalType": "bytes32",
              "name": "r",
              "type": "bytes32"
            },
            {
              "internalType": "bytes32",
              "name": "s",
              "type": "bytes32"
            }
          ],
          "internalType": "struct IUSDOBase.IApproval[]",
          "name": "approvals",
          "type": "tuple[]"
        },
        {
          "components": [
            {
              "internalType": "bool",
              "name": "withdraw",
              "type": "bool"
            },
            {
              "internalType": "uint256",
              "name": "withdrawLzFeeAmount",
              "type": "uint256"
            },
            {
              "internalType": "bool",
              "name": "withdrawOnOtherChain",
              "type": "bool"
            },
            {
              "internalType": "uint16",
              "name": "withdrawLzChainId",
              "type": "uint16"
            },
            {
              "internalType": "bytes",
              "name": "withdrawAdapterParams",
              "type": "bytes"
            }
          ],
          "internalType": "struct ITapiocaOFT.IWithdrawParams",
          "name": "withdrawParams",
          "type": "tuple"
        }
      ],
      "name": "lendInternal",
      "outputs": [],
      "stateMutability": "payable",
      "type": "function"
    },
    {
      "inputs": [],
      "name": "lzEndpoint",
      "outputs": [
        {
          "internalType": "contract ILayerZeroEndpoint",
          "name": "",
          "type": "address"
        }
      ],
      "stateMutability": "view",
      "type": "function"
    },
    {
      "inputs": [
        {
          "internalType": "uint16",
          "name": "_srcChainId",
          "type": "uint16"
        },
        {
          "internalType": "bytes",
          "name": "_srcAddress",
          "type": "bytes"
        },
        {
          "internalType": "uint64",
          "name": "_nonce",
          "type": "uint64"
        },
        {
          "internalType": "bytes",
          "name": "_payload",
          "type": "bytes"
        }
      ],
      "name": "lzReceive",
      "outputs": [],
      "stateMutability": "nonpayable",
      "type": "function"
    },
    {
      "inputs": [],
      "name": "maxFlashMint",
      "outputs": [
        {
          "internalType": "uint256",
          "name": "",
          "type": "uint256"
        }
      ],
      "stateMutability": "view",
      "type": "function"
    },
    {
      "inputs": [
        {
          "internalType": "uint16",
          "name": "",
          "type": "uint16"
        },
        {
          "internalType": "uint16",
          "name": "",
          "type": "uint16"
        }
      ],
      "name": "minDstGasLookup",
      "outputs": [
        {
          "internalType": "uint256",
          "name": "",
          "type": "uint256"
        }
      ],
      "stateMutability": "view",
      "type": "function"
    },
    {
      "inputs": [],
      "name": "name",
      "outputs": [
        {
          "internalType": "string",
          "name": "",
          "type": "string"
        }
      ],
      "stateMutability": "view",
      "type": "function"
    },
    {
      "inputs": [
        {
          "internalType": "uint16",
          "name": "_srcChainId",
          "type": "uint16"
        },
        {
          "internalType": "bytes",
          "name": "_srcAddress",
          "type": "bytes"
        },
        {
          "internalType": "uint64",
          "name": "_nonce",
          "type": "uint64"
        },
        {
          "internalType": "bytes",
          "name": "_payload",
          "type": "bytes"
        }
      ],
      "name": "nonblockingLzReceive",
      "outputs": [],
      "stateMutability": "nonpayable",
      "type": "function"
    },
    {
      "inputs": [],
      "name": "owner",
      "outputs": [
        {
          "internalType": "address",
          "name": "",
          "type": "address"
        }
      ],
      "stateMutability": "view",
      "type": "function"
    },
    {
      "inputs": [],
      "name": "paused",
      "outputs": [
        {
          "internalType": "bool",
          "name": "",
          "type": "bool"
        }
      ],
      "stateMutability": "view",
      "type": "function"
    },
    {
      "inputs": [
        {
          "internalType": "uint16",
          "name": "",
          "type": "uint16"
        }
      ],
      "name": "payloadSizeLimitLookup",
      "outputs": [
        {
          "internalType": "uint256",
          "name": "",
          "type": "uint256"
        }
      ],
      "stateMutability": "view",
      "type": "function"
    },
    {
      "inputs": [],
      "name": "precrime",
      "outputs": [
        {
          "internalType": "address",
          "name": "",
          "type": "address"
        }
      ],
      "stateMutability": "view",
      "type": "function"
    },
    {
      "inputs": [
        {
          "internalType": "bytes",
          "name": "_payload",
          "type": "bytes"
        }
      ],
      "name": "remove",
      "outputs": [],
      "stateMutability": "nonpayable",
      "type": "function"
    },
    {
      "inputs": [
        {
          "internalType": "address",
          "name": "from",
          "type": "address"
        },
        {
          "internalType": "address",
          "name": "to",
          "type": "address"
        },
        {
          "internalType": "uint16",
          "name": "lzDstChainId",
          "type": "uint16"
        },
        {
          "components": [
            {
              "internalType": "bool",
              "name": "withdraw",
              "type": "bool"
            },
            {
              "internalType": "uint256",
              "name": "withdrawLzFeeAmount",
              "type": "uint256"
            },
            {
              "internalType": "bool",
              "name": "withdrawOnOtherChain",
              "type": "bool"
            },
            {
              "internalType": "uint16",
              "name": "withdrawLzChainId",
              "type": "uint16"
            },
            {
              "internalType": "bytes",
              "name": "withdrawAdapterParams",
              "type": "bytes"
            }
          ],
          "internalType": "struct ITapiocaOFT.IWithdrawParams",
          "name": "withdrawParams",
          "type": "tuple"
        },
        {
          "components": [
            {
              "internalType": "uint256",
              "name": "extraGasLimit",
              "type": "uint256"
            },
            {
              "internalType": "address",
              "name": "zroPaymentAddress",
              "type": "address"
            }
          ],
          "internalType": "struct IUSDOBase.ISendOptions",
          "name": "options",
          "type": "tuple"
        },
        {
          "components": [
            {
              "internalType": "uint256",
              "name": "share",
              "type": "uint256"
            },
            {
              "internalType": "address",
              "name": "marketHelper",
              "type": "address"
            },
            {
              "internalType": "address",
              "name": "market",
              "type": "address"
            }
          ],
          "internalType": "struct IUSDOBase.IRemoveParams",
          "name": "removeParams",
          "type": "tuple"
        },
        {
          "components": [
            {
              "internalType": "bool",
              "name": "permitAll",
              "type": "bool"
            },
            {
              "internalType": "bool",
              "name": "allowFailure",
              "type": "bool"
            },
            {
              "internalType": "address",
              "name": "target",
              "type": "address"
            },
            {
              "internalType": "bool",
              "name": "permitBorrow",
              "type": "bool"
            },
            {
              "internalType": "address",
              "name": "owner",
              "type": "address"
            },
            {
              "internalType": "address",
              "name": "spender",
              "type": "address"
            },
            {
              "internalType": "uint256",
              "name": "value",
              "type": "uint256"
            },
            {
              "internalType": "uint256",
              "name": "deadline",
              "type": "uint256"
            },
            {
              "internalType": "uint8",
              "name": "v",
              "type": "uint8"
            },
            {
              "internalType": "bytes32",
              "name": "r",
              "type": "bytes32"
            },
            {
              "internalType": "bytes32",
              "name": "s",
              "type": "bytes32"
            }
          ],
          "internalType": "struct IUSDOBase.IApproval[]",
          "name": "approvals",
          "type": "tuple[]"
        },
        {
          "internalType": "bytes",
          "name": "adapterParams",
          "type": "bytes"
        }
      ],
      "name": "removeAsset",
      "outputs": [],
      "stateMutability": "payable",
      "type": "function"
    },
    {
      "inputs": [],
      "name": "renounceOwnership",
      "outputs": [],
      "stateMutability": "nonpayable",
      "type": "function"
    },
    {
      "inputs": [
        {
          "internalType": "uint16",
          "name": "_srcChainId",
          "type": "uint16"
        },
        {
          "internalType": "bytes",
          "name": "_srcAddress",
          "type": "bytes"
        },
        {
          "internalType": "uint64",
          "name": "_nonce",
          "type": "uint64"
        },
        {
          "internalType": "bytes",
          "name": "_payload",
          "type": "bytes"
        }
      ],
      "name": "retryMessage",
      "outputs": [],
      "stateMutability": "payable",
      "type": "function"
    },
    {
      "inputs": [
        {
          "internalType": "address",
          "name": "_from",
          "type": "address"
        },
        {
          "internalType": "uint16",
          "name": "_dstChainId",
          "type": "uint16"
        },
        {
          "internalType": "bytes32",
          "name": "_toAddress",
          "type": "bytes32"
        },
        {
          "internalType": "uint256",
          "name": "_amount",
          "type": "uint256"
        },
        {
          "internalType": "bytes",
          "name": "_payload",
          "type": "bytes"
        },
        {
          "internalType": "uint64",
          "name": "_dstGasForCall",
          "type": "uint64"
        },
        {
          "components": [
            {
              "internalType": "address payable",
              "name": "refundAddress",
              "type": "address"
            },
            {
              "internalType": "address",
              "name": "zroPaymentAddress",
              "type": "address"
            },
            {
              "internalType": "bytes",
              "name": "adapterParams",
              "type": "bytes"
            }
          ],
          "internalType": "struct ICommonOFT.LzCallParams",
          "name": "_callParams",
          "type": "tuple"
        }
      ],
      "name": "sendAndCall",
      "outputs": [],
      "stateMutability": "payable",
      "type": "function"
    },
    {
      "inputs": [
        {
          "internalType": "address",
          "name": "_from",
          "type": "address"
        },
        {
          "internalType": "address",
          "name": "_to",
          "type": "address"
        },
        {
          "internalType": "uint16",
          "name": "lzDstChainId",
          "type": "uint16"
        },
        {
          "internalType": "address",
          "name": "zroPaymentAddress",
          "type": "address"
        },
        {
          "components": [
            {
              "internalType": "bool",
              "name": "repay",
              "type": "bool"
            },
            {
              "internalType": "uint256",
              "name": "depositAmount",
              "type": "uint256"
            },
            {
              "internalType": "uint256",
              "name": "repayAmount",
              "type": "uint256"
            },
            {
              "internalType": "address",
              "name": "marketHelper",
              "type": "address"
            },
            {
              "internalType": "address",
              "name": "market",
              "type": "address"
            },
            {
              "internalType": "bool",
              "name": "removeCollateral",
              "type": "bool"
            },
            {
              "internalType": "uint256",
              "name": "removeCollateralShare",
              "type": "uint256"
            },
            {
              "components": [
                {
                  "internalType": "bool",
                  "name": "lock",
                  "type": "bool"
                },
                {
                  "internalType": "address",
                  "name": "target",
                  "type": "address"
                },
                {
                  "internalType": "uint128",
                  "name": "lockDuration",
                  "type": "uint128"
                },
                {
                  "internalType": "uint128",
                  "name": "amount",
                  "type": "uint128"
                }
              ],
              "internalType": "struct ITapiocaOptionLiquidityProvision.IOptionsLockData",
              "name": "lockData",
              "type": "tuple"
            },
            {
              "components": [
                {
                  "internalType": "bool",
                  "name": "participate",
                  "type": "bool"
                },
                {
                  "internalType": "address",
                  "name": "target",
                  "type": "address"
                }
              ],
              "internalType": "struct ITapiocaOptionsBroker.IOptionsParticipateData",
              "name": "participateData",
              "type": "tuple"
            }
          ],
          "internalType": "struct IUSDOBase.ILendParams",
          "name": "lendParams",
          "type": "tuple"
        },
        {
          "components": [
            {
              "internalType": "bool",
              "name": "permitAll",
              "type": "bool"
            },
            {
              "internalType": "bool",
              "name": "allowFailure",
              "type": "bool"
            },
            {
              "internalType": "address",
              "name": "target",
              "type": "address"
            },
            {
              "internalType": "bool",
              "name": "permitBorrow",
              "type": "bool"
            },
            {
              "internalType": "address",
              "name": "owner",
              "type": "address"
            },
            {
              "internalType": "address",
              "name": "spender",
              "type": "address"
            },
            {
              "internalType": "uint256",
              "name": "value",
              "type": "uint256"
            },
            {
              "internalType": "uint256",
              "name": "deadline",
              "type": "uint256"
            },
            {
              "internalType": "uint8",
              "name": "v",
              "type": "uint8"
            },
            {
              "internalType": "bytes32",
              "name": "r",
              "type": "bytes32"
            },
            {
              "internalType": "bytes32",
              "name": "s",
              "type": "bytes32"
            }
          ],
          "internalType": "struct IUSDOBase.IApproval[]",
          "name": "approvals",
          "type": "tuple[]"
        },
        {
          "components": [
            {
              "internalType": "bool",
              "name": "withdraw",
              "type": "bool"
            },
            {
              "internalType": "uint256",
              "name": "withdrawLzFeeAmount",
              "type": "uint256"
            },
            {
              "internalType": "bool",
              "name": "withdrawOnOtherChain",
              "type": "bool"
            },
            {
              "internalType": "uint16",
              "name": "withdrawLzChainId",
              "type": "uint16"
            },
            {
              "internalType": "bytes",
              "name": "withdrawAdapterParams",
              "type": "bytes"
            }
          ],
          "internalType": "struct ITapiocaOFT.IWithdrawParams",
          "name": "withdrawParams",
          "type": "tuple"
        },
        {
          "internalType": "bytes",
          "name": "adapterParams",
          "type": "bytes"
        }
      ],
      "name": "sendAndLendOrRepay",
      "outputs": [],
      "stateMutability": "payable",
      "type": "function"
    },
    {
      "inputs": [
        {
          "internalType": "address",
          "name": "_from",
          "type": "address"
        },
        {
          "internalType": "uint16",
          "name": "_dstChainId",
          "type": "uint16"
        },
        {
          "internalType": "bytes32",
          "name": "_toAddress",
          "type": "bytes32"
        },
        {
          "internalType": "uint256",
          "name": "_amount",
          "type": "uint256"
        },
        {
          "components": [
            {
              "internalType": "address payable",
              "name": "refundAddress",
              "type": "address"
            },
            {
              "internalType": "address",
              "name": "zroPaymentAddress",
              "type": "address"
            },
            {
              "internalType": "bytes",
              "name": "adapterParams",
              "type": "bytes"
            }
          ],
          "internalType": "struct ICommonOFT.LzCallParams",
          "name": "_callParams",
          "type": "tuple"
        }
      ],
      "name": "sendFrom",
      "outputs": [],
      "stateMutability": "payable",
      "type": "function"
    },
    {
      "inputs": [
        {
          "internalType": "uint16",
          "name": "_version",
          "type": "uint16"
        },
        {
          "internalType": "uint16",
          "name": "_chainId",
          "type": "uint16"
        },
        {
          "internalType": "uint256",
          "name": "_configType",
          "type": "uint256"
        },
        {
          "internalType": "bytes",
          "name": "_config",
          "type": "bytes"
        }
      ],
      "name": "setConfig",
      "outputs": [],
      "stateMutability": "nonpayable",
      "type": "function"
    },
    {
      "inputs": [
        {
          "internalType": "uint16",
          "name": "_dstChainId",
          "type": "uint16"
        },
        {
          "internalType": "uint16",
          "name": "_packetType",
          "type": "uint16"
        },
        {
          "internalType": "uint256",
          "name": "_minGas",
          "type": "uint256"
        }
      ],
      "name": "setMinDstGas",
      "outputs": [],
      "stateMutability": "nonpayable",
      "type": "function"
    },
    {
      "inputs": [
        {
          "internalType": "uint16",
          "name": "_dstChainId",
          "type": "uint16"
        },
        {
          "internalType": "uint256",
          "name": "_size",
          "type": "uint256"
        }
      ],
      "name": "setPayloadSizeLimit",
      "outputs": [],
      "stateMutability": "nonpayable",
      "type": "function"
    },
    {
      "inputs": [
        {
          "internalType": "address",
          "name": "_precrime",
          "type": "address"
        }
      ],
      "name": "setPrecrime",
      "outputs": [],
      "stateMutability": "nonpayable",
      "type": "function"
    },
    {
      "inputs": [
        {
          "internalType": "uint16",
          "name": "_version",
          "type": "uint16"
        }
      ],
      "name": "setReceiveVersion",
      "outputs": [],
      "stateMutability": "nonpayable",
      "type": "function"
    },
    {
      "inputs": [
        {
          "internalType": "uint16",
          "name": "_version",
          "type": "uint16"
        }
      ],
      "name": "setSendVersion",
      "outputs": [],
      "stateMutability": "nonpayable",
      "type": "function"
    },
    {
      "inputs": [
        {
          "internalType": "uint16",
          "name": "_srcChainId",
          "type": "uint16"
        },
        {
          "internalType": "bytes",
          "name": "_path",
          "type": "bytes"
        }
      ],
      "name": "setTrustedRemote",
      "outputs": [],
      "stateMutability": "nonpayable",
      "type": "function"
    },
    {
      "inputs": [
        {
          "internalType": "uint16",
          "name": "_remoteChainId",
          "type": "uint16"
        },
        {
          "internalType": "bytes",
          "name": "_remoteAddress",
          "type": "bytes"
        }
      ],
      "name": "setTrustedRemoteAddress",
      "outputs": [],
      "stateMutability": "nonpayable",
      "type": "function"
    },
    {
      "inputs": [
        {
          "internalType": "bool",
          "name": "_useCustomAdapterParams",
          "type": "bool"
        }
      ],
      "name": "setUseCustomAdapterParams",
      "outputs": [],
      "stateMutability": "nonpayable",
      "type": "function"
    },
    {
      "inputs": [],
      "name": "sharedDecimals",
      "outputs": [
        {
          "internalType": "uint8",
          "name": "",
          "type": "uint8"
        }
      ],
      "stateMutability": "view",
      "type": "function"
    },
    {
      "inputs": [
        {
          "internalType": "bytes4",
          "name": "interfaceId",
          "type": "bytes4"
        }
      ],
      "name": "supportsInterface",
      "outputs": [
        {
          "internalType": "bool",
          "name": "",
          "type": "bool"
        }
      ],
      "stateMutability": "view",
      "type": "function"
    },
    {
      "inputs": [],
      "name": "symbol",
      "outputs": [
        {
          "internalType": "string",
          "name": "",
          "type": "string"
        }
      ],
      "stateMutability": "view",
      "type": "function"
    },
    {
      "inputs": [],
      "name": "token",
      "outputs": [
        {
          "internalType": "address",
          "name": "",
          "type": "address"
        }
      ],
      "stateMutability": "view",
      "type": "function"
    },
    {
      "inputs": [],
      "name": "totalSupply",
      "outputs": [
        {
          "internalType": "uint256",
          "name": "",
          "type": "uint256"
        }
      ],
      "stateMutability": "view",
      "type": "function"
    },
    {
      "inputs": [
        {
          "internalType": "address",
          "name": "to",
          "type": "address"
        },
        {
          "internalType": "uint256",
          "name": "amount",
          "type": "uint256"
        }
      ],
      "name": "transfer",
      "outputs": [
        {
          "internalType": "bool",
          "name": "",
          "type": "bool"
        }
      ],
      "stateMutability": "nonpayable",
      "type": "function"
    },
    {
      "inputs": [
        {
          "internalType": "address",
          "name": "from",
          "type": "address"
        },
        {
          "internalType": "address",
          "name": "to",
          "type": "address"
        },
        {
          "internalType": "uint256",
          "name": "amount",
          "type": "uint256"
        }
      ],
      "name": "transferFrom",
      "outputs": [
        {
          "internalType": "bool",
          "name": "",
          "type": "bool"
        }
      ],
      "stateMutability": "nonpayable",
      "type": "function"
    },
    {
      "inputs": [
        {
          "internalType": "address",
          "name": "newOwner",
          "type": "address"
        }
      ],
      "name": "transferOwnership",
      "outputs": [],
      "stateMutability": "nonpayable",
      "type": "function"
    },
    {
      "inputs": [
        {
          "internalType": "uint16",
          "name": "",
          "type": "uint16"
        }
      ],
      "name": "trustedRemoteLookup",
      "outputs": [
        {
          "internalType": "bytes",
          "name": "",
          "type": "bytes"
        }
      ],
      "stateMutability": "view",
      "type": "function"
    },
    {
      "inputs": [],
      "name": "useCustomAdapterParams",
      "outputs": [
        {
          "internalType": "bool",
          "name": "",
          "type": "bool"
        }
      ],
      "stateMutability": "view",
      "type": "function"
    },
    {
      "inputs": [],
      "name": "yieldBox",
      "outputs": [
        {
          "internalType": "contract IYieldBoxBase",
          "name": "",
          "type": "address"
        }
      ],
      "stateMutability": "view",
      "type": "function"
    },
    {
      "stateMutability": "payable",
      "type": "receive"
    }
  ],
  "bytecode": "0x61010060409080825234620004cc578181620061288038038091620000258285620004d1565b833981010312620004cc5780516001600160a01b038082169291839003620004cc57602080920151928184168403620004cc57620000626200050b565b916200006d6200050b565b60008054336001600160a01b03198216811783559194919084167f8be0079c531659141344cd1fd0a4f28419497f9722a3daafe3b4186f6b6457e08680a3608052600860a05283516001600160401b0391828211620003d357600b54916001968784811c94168015620004c1575b89851014620004ad578190601f9485811162000459575b508990858311600114620003f3578892620003e7575b5050600019600383901b1c191690871b17600b555b8051928311620003d357600c548681811c91168015620003c8575b88821014620003b45790818389959493116200035c575b5083918311600114620002f1576004949291869183620002e5575b5050600019600383901b1c191690861b17600c555b6402540be40060c052608051168751928380926303408e4760e41b82525afa908115620002db5790829187939162000290575b5061ffff1693848252600e815282822033835281528282209460ff199585878254161790558252600f815282822090338352522091825416179055600a60115569152d02c7e14af680000060125560e05251615beb90816200053d82396080518181816104d50152818161079801528181610c4d01528181610de101528181610faa015281816120970152818161221001528181612c6a015281816135250152818161494b0152614d6b015260a05181611963015260c051818181614f98015281816151f90152818161544401526154dc015260e051816127a40152f35b80929350858092503d8311620002d3575b620002ad8183620004d1565b81010312620002cf575161ffff81168103620002cf5785919061ffff620001b2565b5080fd5b503d620002a1565b86513d84823e3d90fd5b0151905038806200016a565b93918691601f19821690600c885285882091885b81811062000343575096836004981062000329575b505050811b01600c556200017f565b015160001960f88460031b161c191690553880806200031a565b8289015184558b978b9690940193928301920162000305565b9091929350600c86528786208380860160051c8201928a8710620003aa575b9189918b97969594930160051c01915b8281106200039b5750506200014f565b8881558a96508991016200038b565b925081926200037b565b634e487b7160e01b86526022600452602486fd5b90607f169062000138565b634e487b7160e01b85526041600452602485fd5b01519050388062000108565b600b89528a89208a94509190601f1984168a5b8d82821062000442575050841162000428575b505050811b01600b556200011d565b015160001960f88460031b161c1916905538808062000419565b8385015186558d9790950194938401930162000406565b909150600b88528988208580850160051c8201928c8610620004a3575b918b91869594930160051c01915b82811062000494575050620000f2565b8a81558594508b910162000484565b9250819262000476565b634e487b7160e01b87526022600452602487fd5b93607f1693620000db565b600080fd5b601f909101601f19168101906001600160401b03821190821017620004f557604052565b634e487b7160e01b600052604160045260246000fd5b60408051919082016001600160401b03811183821017620004f55760405260048252635553444f60e01b602083015256fe6080604052600436101561001b575b361561001957600080fd5b005b60003560e01c80621d35671461040057806301ffc9a7146103fb57806306fdde03146103f657806307e0db17146103f1578063095ea7b3146103ec5780630df37483146103e7578063100b6523146103e257806310ddb137146103dd57806318160ddd1461036f57806323b872dd146103d8578063313ce567146103d3578063365260b4146103ce57806339509351146103c95780633d8b38f6146103c45780633f1f4fa4146103bf57806342d65a8d146103ba57806344770515146103b55780634c42899a146103b557806358edef4c146103b05780635b8c41e6146103ab5780635c975abb146103a657806366ad5c8a146103a1578063695ef6bf1461039c57806370a0823114610397578063715018a6146103925780637533d7881461038d57806376203b4814610388578063857749b01461038357806387afd70c1461037e5780638cfd8f5c146103795780638da5cb5b146103745780639358928b1461036f578063940a1dc01461036a578063950c8a741461036557806395899dec1461036057806395d89b411461035b5780639bdb9812146103565780639d3f4d1a146103515780639f38369a1461034c578063a457c2d714610347578063a4c51df514610342578063a6c3d1651461033d578063a9059cbb14610338578063b353aaa714610333578063ba03a8d71461032e578063baf3292d14610329578063c446183414610324578063cbed8b9c1461031f578063ce3b5a8e1461031a578063ce8849ed14610315578063d1deba1f14610310578063dd62ed3e1461030b578063de40657714610306578063df2a5b3b14610301578063e6a20ae6146102fc578063eab45d9c146102f7578063eaffd49a146102f2578063eb8d72b7146102ed578063ec6d062b146102e8578063ed629c5c146102e3578063f2fde38b146102de578063f5ecbdbc146102d95763fc0c546a0361000e57612cd4565b612c00565b612b4b565b612b28565b612af0565b6129c7565b61293e565b6128dc565b6128c0565b6127d3565b61278e565b612744565b61260c565b6125e3565b612509565b6121bc565b61219f565b61212f565b6120f7565b612081565b612057565b611ef5565b611e62565b611db6565b611d13565b611cf5565b611caa565b611c06565b611b5f565b611b25565b611b07565b610cae565b611ade565b611a7f565b6119d8565b611949565b61172c565b6116d5565b6115a1565b611564565b611481565b6113dc565b6113b9565b611365565b61102d565b611011565b610f90565b610f57565b610ee7565b610e5f565b610d57565b610d0c565b610ccc565b610c24565b610a3d565b610894565b61085f565b61076f565b61068f565b6105d2565b6104be565b61ffff81160361041157565b600080fd5b9181601f84011215610411578235916001600160401b038311610411576020838186019501011161041157565b608435906001600160401b038216820361041157565b9060806003198301126104115760043561047281610405565b916001600160401b0390602435828111610411578161049391600401610416565b9390939260443581811681036104115792606435918211610411576104ba91600401610416565b9091565b34610411576104cc36610459565b929493919291907f00000000000000000000000000000000000000000000000000000000000000006001600160a01b0316330361058d5761055261055a926100199761054b61053161052c8a61ffff166000526001602052604060002090565b6116ba565b8051908184149182610583575b5081610560575b50614854565b36916109eb565b9236916109eb565b92614aff565b905061056d3684866109eb565b6020815191012090602081519101201438610545565b151591503861053e565b60405162461bcd60e51b815260206004820152601e60248201527f4c7a4170703a20696e76616c696420656e64706f696e742063616c6c657200006044820152606490fd5b346104115760203660031901126104115760043563ffffffff60e01b811680910361041157602090631f7ecdf760e01b8114908115610617575b506040519015158152f35b6301ffc9a760e01b1490503861060c565b600091031261041157565b60005b8381106106465750506000910152565b8181015183820152602001610636565b9060209161066f81518092818552858086019101610633565b601f01601f1916010190565b90602061068c928181520190610656565b90565b346104115760008060031936011261076c5760405181600b546106b1816115ea565b8084529060019081811690811561074457506001146106eb575b6106e7846106db8188038261096d565b6040519182918261067b565b0390f35b600b8352602094507f0175b7a638427703f0dbe7bb9bbf987a2551717b34e79f33b5b1008d1fa01db95b82841061073157505050816106e7936106db92820101936106cb565b8054858501870152928501928101610715565b6106e796506106db9450602092508593915060ff191682840152151560051b820101936106cb565b80fd5b34610411576000602036600319011261076c5760043561078e81610405565b610796612cef565b7f00000000000000000000000000000000000000000000000000000000000000006001600160a01b0316908290823b1561080a57602461ffff918360405195869485936307e0db1760e01b85521660048401525af18015610805576107f9575080f35b610802906108e9565b80f35b613379565b5080fd5b6001600160a01b031690565b6001600160a01b0381160361041157565b606435906108388261081a565b565b608435906108388261081a565b60a435906108388261081a565b35906108388261081a565b346104115760403660031901126104115761088960043561087f8161081a565b6024359033612f18565b602060405160018152f35b346104115760403660031901126104115761ffff6004356108b481610405565b6108bc612cef565b166000526003602052602435604060002055600080f35b634e487b7160e01b600052604160045260246000fd5b6001600160401b0381116108fc57604052565b6108d3565b608081019081106001600160401b038211176108fc57604052565b604081019081106001600160401b038211176108fc57604052565b60a081019081106001600160401b038211176108fc57604052565b606081019081106001600160401b038211176108fc57604052565b601f909101601f19168101906001600160401b038211908210176108fc57604052565b6040519061016082016001600160401b038111838210176108fc57604052565b6040519061012082016001600160401b038111838210176108fc57604052565b6001600160401b0381116108fc57601f01601f191660200190565b9291926109f7826109d0565b91610a05604051938461096d565b829481845281830111610411578281602093846000960137010152565b9080601f830112156104115781602061068c933591016109eb565b346104115760a036600319011261041157600435610a5a8161081a565b60243590610a6782610405565b6001600160401b039060443582811161041157610a88903690600401610a22565b9160643592818416840361041157608435918211610411578493600080610ad195610aba610b5a963690600401610a22565b94610b4c602098878a80809a5183010191016139f9565b919c94509a92508b949160018060a01b03169e8f96610aef306120c6565b549b610b1d610b19610b1283610b0d610b0788610f43565b87611328565b61134e565b5460ff1690565b1590565b610be9575b505050610b2e306120c6565b549a60405195869485019763671dad4760e11b895260248601613c6f565b03601f19810183528261096d565b51915af491610b67613d21565b9215610b9657505050015160405190815261ffff9190911690600080516020615b3683398151915290602090a3005b92610bd494610ba98893610bbc96613d6f565b91015180911015610bd8575b5050613f19565b60405162461bcd60e51b81529182916004830161067b565b0390fd5b610be29130613d7c565b8380610bb5565b610b0d610c0f92610c09610c1c95610c048a8d0151306157e5565b610f43565b90611328565b805460ff19166001179055565b8d3880610b22565b34610411576000602036600319011261076c57600435610c4381610405565b610c4b612cef565b7f00000000000000000000000000000000000000000000000000000000000000006001600160a01b0316908290823b1561080a57602461ffff918360405195869485936310ddb13760e01b85521660048401525af18015610805576107f9575080f35b34610411576000366003190112610411576020600a54604051908152f35b3461041157606036600319011261041157610889600435610cec8161081a565b602435610cf88161081a565b60443591610d07833383613031565b612e49565b3461041157600036600319011261041157602060405160128152f35b8015150361041157565b6024359061083882610d28565b60c4359061083882610d28565b359061083882610d28565b346104115760a036600319011261041157600435610d7481610405565b60643590610d8182610d28565b608435906001600160401b03821161041157610da661054b6040933690600401610416565b90610ddd610dc0610db8604435615442565b602435615511565b928451958694859463040a7bb160e41b8652309060048701614ef5565b03817f00000000000000000000000000000000000000000000000000000000000000006001600160a01b03165afa908115610805576000908192610e2e575b50604080519182526020820192909252f35b9050610e51915060403d8111610e58575b610e49818361096d565b810190614edf565b9038610e1c565b503d610e3f565b3461041157604036600319011261041157600435610e7c8161081a565b336000526009602052610e938160406000206120e0565b546024358101809111610eaa576108899133612f18565b612d57565b90604060031983011261041157600435610ec881610405565b91602435906001600160401b038211610411576104ba91600401610416565b3461041157602061ffff610f34610efd36610eaf565b9390911660005260018452610f1f610f26604060002060405192838092611624565b038261096d565b8481519101209236916109eb565b82815191012014604051908152f35b61ffff166000526007602052604060002090565b346104115760203660031901126104115761ffff600435610f7781610405565b1660005260036020526020604060002054604051908152f35b3461041157610f9e36610eaf565b9190610fa8612cef565b7f00000000000000000000000000000000000000000000000000000000000000006001600160a01b031691823b1561041157604051928380926342d65a8d60e01b825281610fff6000988997889460048501614a90565b03925af18015610805576107f9575080f35b3461041157600036600319011261041157602060405160008152f35b346104115760208060031936011261041157600480356001600160401b0381116104115761106161106f9136908401610a22565b8380825183010191016137ea565b8051919896506001600160a01b039485169550919392506112d0575b50604095868301916110a86110a0845161080e565b855190612d47565b506110be6110b96110b9855161080e565b61080e565b978587818a6110e089518651958694859463f4d9375360e01b865285016138b6565b03816000809e5af18015610805576112b3575b5087876111066110b96110b9885161080e565b835163de40657760e01b815292839182905afa928315610805576110b96110b961113e928c968c958f91611286575b5016975161080e565b825163226f120560e11b8152998a9182905afa978815610805578998611267575b50825161116a578880f35b6111b461117f6110b96110b98a89015161080e565b95888501805195611195606082015161ffff1690565b928b8d8251908851978892839263442c159960e01b84528c84016138ed565b03818c5afa948515610805578e9c8d96611233575b505060809051910151915193893b1561122f578a80946111fc97519e8f9d8e9c8d9b632731bbc560e21b8d528c01613905565b03925af1801561080557611216575b808080808080808880f35b80611223611229926108e9565b80610628565b3861120b565b8b80fd5b6080929650908161125892903d10611260575b611250818361096d565b8101906138a7565b9490386111c9565b503d611246565b61127f919850873d891161126057611250818361096d565b963861115f565b6112a69150863d88116112ac575b61129e818361096d565b8101906138d8565b38611135565b503d611294565b6112c990883d8a1161126057611250818361096d565b50386110f3565b6112d990614471565b3861108b565b6060600319820112610411576004356112f781610405565b916001600160401b0391602435908382116104115761131891600401610a22565b9160443590811681036104115790565b602090611342928260405194838680955193849201610633565b82019081520301902090565b9060018060401b0316600052602052604060002090565b346104115760206113b061ffff6113a28361137f366112df565b949091166000526005825260406000208260405194838680955193849201610633565b82019081520301902061134e565b54604051908152f35b3461041157600036600319011261041157602060ff601054166040519015158152f35b34610411576113ea36610459565b919294939030330361140e57610552611408926100199736916109eb565b92614f39565b60405162461bcd60e51b815260206004820152602660248201527f4e6f6e626c6f636b696e674c7a4170703a2063616c6c6572206d7573742062656044820152650204c7a4170760d41b6064820152608490fd5b60609060c31901126104115760c490565b908160609103126104115790565b60a0366003190112610411576004356114998161081a565b6024356114a581610405565b604435916084356001600160401b03811161041157602061ffff6114dc600080516020615af6833981519152933690600401611473565b9361154f85356114eb8161081a565b61150961054b86890135986114ff8a61081a565b6040810190614ce9565b611513818a615344565b6115286115216064356154da565b50856156cf565b976115348915156150ee565b6115466115408a615442565b8c615511565b9234938b614907565b6040519485526001600160a01b0316941692a4005b34610411576020366003190112610411576004356115818161081a565b60018060a01b031660005260086020526020604060002054604051908152f35b346104115760008060031936011261076c576115bb612cef565b80546001600160a01b03198116825581906001600160a01b0316600080516020615b568339815191528280a380f35b90600182811c9216801561161a575b602083101461160457565b634e487b7160e01b600052602260045260246000fd5b91607f16916115f9565b9060009291805491611635836115ea565b9182825260019384811690816000146116975750600114611657575b50505050565b90919394506000526020928360002092846000945b838610611683575050505001019038808080611651565b80548587018301529401938590820161166c565b9294505050602093945060ff191683830152151560051b01019038808080611651565b906108386116ce9260405193848092611624565b038361096d565b346104115760203660031901126104115761ffff6004356116f581610405565b1660005260016020526106e7610f1f611718604060002060405192838092611624565b604051918291602083526020830190610656565b60e0366003190112610411576004356117448161081a565b60243561175081610405565b604435916001600160401b039060843582811161041157611775903690600401610416565b91909260a43591818316918284036104115760c4359081116104115761179f903690600401611473565b926117d68435956117af8761081a565b6117ce6117c46020880135976114ff8961081a565b99909236916109eb565b9736916109eb565b9460ff600654166000146118c8576022865110611884578560209561154661154f946118528c61183f61ffff9a8b6022600080516020615af68339815191529f0151931660005260028d5261183960406000206001600052602052604060002090565b54612d89565b9061184b821515615399565b10156153e2565b6118676118606064356154da565b50886156cf565b9a6118738c15156150ee565b8d61187d8d615442565b903361558c565b60405162461bcd60e51b815260206004820152601c60248201527b4c7a4170703a20696e76616c69642061646170746572506172616d7360201b6044820152606490fd5b9480949350516118f557600080516020615af68339815191529460209461ffff9461154661154f94611852565b60405162461bcd60e51b815260206004820152602660248201527f4f4654436f72653a205f61646170746572506172616d73206d7573742062652060448201526532b6b83a3c9760d11b6064820152608490fd5b3461041157600036600319011261041157602060405160ff7f0000000000000000000000000000000000000000000000000000000000000000168152f35b6101a090608319011261041157608490565b9181601f84011215610411578235916001600160401b03831161041157602080850194610160850201011161041157565b908160a09103126104115790565b610280366003190112610411576004356119f18161081a565b6024356119fd8161081a565b60443591611a0a83610405565b611a1261082b565b92611a1c36611987565b6001600160401b03946102243586811161041157611a3e903690600401611999565b9290916102443588811161041157611a5a9036906004016119ca565b946102643598891161041157611a77610019993690600401610416565b9890976134fa565b346104115760403660031901126104115760206113b0600435611aa181610405565b61ffff60243591611ab183610405565b166000526002835260406000209061ffff16600052602052604060002090565b6001600160a01b03169052565b34610411576000366003190112610411576000546040516001600160a01b039091168152602090f35b34610411576000366003190112610411576020601154604051908152f35b34610411576000366003190112610411576004546040516001600160a01b039091168152602090f35b604090608319011261041157608490565b61016036600319011261041157600435611b788161081a565b602435611b848161081a565b60443591611b9183610405565b6001600160401b039260643584811161041157611bb29036906004016119ca565b90611bbc36611b4e565b611bc536611462565b906101243587811161041157611bdf903690600401611999565b9490936101443598891161041157611bfe610019993690600401610416565b989097613269565b346104115760008060031936011261076c5760405181600c54611c28816115ea565b808452906001908181169081156107445750600114611c51576106e7846106db8188038261096d565b600c8352602094507fdf6966c971051c3d54ec59162606531493a51404a002842f56009d7e5cf4a8c75b828410611c9757505050816106e7936106db92820101936106cb565b8054858501870152928501928101611c7b565b3461041157602060ff611ce961ffff6113a284611cc6366112df565b949091166000526007825260406000208260405194838680955193849201610633565b54166040519015158152f35b34610411576000366003190112610411576020601254604051908152f35b346104115760203660031901126104115761ffff600435611d3381610405565b166000526001602052610f1f611d53604060002060405192838092611624565b805115611d71576106db81611d6b6106e79351613d51565b906158e9565b60405162461bcd60e51b815260206004820152601d60248201527f4c7a4170703a206e6f20747275737465642070617468207265636f72640000006044820152606490fd5b3461041157604036600319011261041157600435611dd38161081a565b60243590336000526009602052611dee8160406000206120e0565b5491808310611e0f57611e0392039033612f18565b60405160018152602090f35b60405162461bcd60e51b815260206004820152602560248201527f45524332303a2064656372656173656420616c6c6f77616e63652062656c6f77604482015264207a65726f60d81b6064820152608490fd5b346104115760e036600319011261041157600435611e7f81610405565b6001600160401b039060643582811161041157611ea0903690600401610416565b611eab929192610443565b60a43591611eb883610d28565b60c43595861161041157611ed3611ee3963690600401610416565b9590946044359060243590614d1b565b60408051928352602083019190915290f35b3461041157611f0336610eaf565b90611f0c612cef565b60405192602092808385870137611f386034868381013060601b8882015203601481018852018661096d565b61ffff8216600090815260018086526040822087519296909291906001600160401b0383116108fc57611f7583611f6f86546115ea565b86614aab565b80601f8411600114611fd3575091808092611fc29695948a9b600080516020615b168339815191529b94611fc8575b50501b916000199060031b1c19161790555b60405193849384614a90565b0390a180f35b015192503880611fa4565b91939498601f198416611feb87600052602060002090565b938a905b82821061204057505091600080516020615b16833981519152999a95939185611fc298969410612027575b505050811b019055611fb6565b015160001960f88460031b161c1916905538808061201a565b808886978294978701518155019601940190611fef565b34610411576040366003190112610411576108896004356120778161081a565b6024359033612e49565b34610411576000366003190112610411576040517f00000000000000000000000000000000000000000000000000000000000000006001600160a01b03168152602090f35b6001600160a01b0316600090815260086020526040902090565b9060018060a01b0316600052602052604060002090565b3461041157604036600319011261041157602060ff611ce960243561211b8161081a565b600435600052600e845260406000206120e0565b34610411576020366003190112610411577f5db758e995a17ec1ad84bdef7e8c3293a0bd6179bcce400dff5d4c3d87db726b602060043561216f8161081a565b612177612cef565b600480546001600160a01b0319166001600160a01b03929092169182179055604051908152a1005b346104115760003660031901126104115760206040516127108152f35b34610411576080366003190112610411576004356121d981610405565b6024356121e581610405565b6064356001600160401b03811161041157612204903690600401610416565b909261220e612cef565b7f00000000000000000000000000000000000000000000000000000000000000006001600160a01b031690813b156104115760008094612285604051978896879586946332fb62e760e21b865261ffff809216600487015216602485015260443560448501526080606485015260848401916130c1565b03925af180156108055761229557005b80611223610019926108e9565b6001600160801b0381160361041157565b60809061010319011261041157604051906122cd82610901565b81610104356122db81610d28565b8152610124356122ea8161081a565b6020820152610144356122fc816122a2565b604082015260606101643591612311836122a2565b0152565b604090610183190112610411576040519061232f8261091c565b816101843561233d81610d28565b815260206101a435916123118361081a565b6001600160401b0381116108fc5760051b60200190565b60ff81160361041157565b359061083882612366565b81601f82011215610411578035906123938261234f565b926040906123a38251958661096d565b838552602091828601918361016080970286010194818611610411578401925b8584106123d4575050505050505090565b8684830312610411578487916123e8610990565b6123f187610d4c565b81526123fe838801610d4c565b8382015261240d868801610854565b86820152606061241e818901610d4c565b90820152608061242f818901610854565b9082015260a0612440818901610854565b9082015260c0808801359082015260e08088013590820152610100612466818901612371565b90820152610120808801359082015261014080880135908201528152019301926123c3565b919060a08382031261041157604051906124a482610937565b819380356124b181610d28565b83526020810135602084015260408101356124cb81610d28565b604084015260608101356124de81610405565b60608401526080810135916001600160401b038311610411576080926125049201610a22565b910152565b610200366003190112610411576004356125228161081a565b6101a0366023190112610411576125376109b0565b90612540610d32565b82526044356020830152606435604083015261255a61083a565b6060830152612567610847565b6080830152612574610d3f565b60a083015260e43560c083015261258a366122b3565b60e083015261259836612315565b6101008301526001600160401b03916101c435838111610411576125c090369060040161237c565b906101e435938411610411576125dd61001994369060040161248b565b92613fe7565b3461041157600036600319011261041157600d546040516001600160a01b039091168152602090f35b61261536610459565b9161ffff8694929616600052600560205261264981604060002060206040518092878b83378782019081520301902061134e565b549182156126f3576126e284836126db7fc264d91f3adc5588250e1551f547752ca0cfa8f6b530d243b9f9f4cab10ea8e59a60006126c784610b0d8e8a8f6126ee9f908f6126ad906126a06126c19436908d6109eb565b6020815191012014614c5c565b61ffff166000526005602052604060002090565b91614c43565b556126d336878d6109eb565b9336916109eb565b9188614f39565b60405195869586614cb2565b0390a1005b60405162461bcd60e51b815260206004820152602360248201527f4e6f6e626c6f636b696e674c7a4170703a206e6f2073746f726564206d65737360448201526261676560e81b6064820152608490fd5b346104115760403660031901126104115760206113b06004356127668161081a565b602435906127738261081a565b6001600160a01b0316600090815260098452604090206120e0565b34610411576000366003190112610411576040517f00000000000000000000000000000000000000000000000000000000000000006001600160a01b03168152602090f35b34610411576060366003190112610411576004356127f081610405565b6024356127fc81610405565b60443591612808612cef565b8215612883576126ee7f9d5c7c0b934da8fefa9c7760c98383778a12dfbfc0c3b3106518f43fb9508ac09361ffff831660005260026020528061285d8560406000209061ffff16600052602052604060002090565b556040519384938460409194939294606082019561ffff80921683521660208201520152565b60405162461bcd60e51b81526020600482015260156024820152744c7a4170703a20696e76616c6964206d696e47617360581b6044820152606490fd5b3461041157600036600319011261041157602060405160018152f35b34610411576020366003190112610411577f1584ad594a70cbe1e6515592e1272a987d922b097ead875069cebe8b40c004a4602060043561291c81610d28565b612924612cef565b151560ff196006541660ff821617600655604051908152a1005b34610411576101003660031901126104115760043561295c81610405565b6001600160401b03906024358281116104115761297d903690600401610416565b9190604435908482168203610411576084356129988161081a565b60c435958611610411576129b3610019963690600401610416565b94909360e4359660a4359460643593614e12565b34610411576129d536610eaf565b91906129df612cef565b61ffff82166000908152600160208181526040832092949291906001600160401b0387116108fc57612a1b87612a1585546115ea565b85614aab565b8590601f8811600114612a705750918680879893611fc295600080516020615b968339815191529993612a65575b501b906000198460031b1c191617905560405193849384614a90565b880135925038612a49565b90601f198816612a8585600052602060002090565b9288905b828210612ad957505091889391600080516020615b968339815191529899611fc2969410612abf575b505082811b019055611fb6565b870135600019600386901b60f8161c191690553880612ab2565b808685968294968c01358155019501930190612a89565b3461041157604036600319011261041157602060ff611ce9602435612b148161081a565b600435600052600f845260406000206120e0565b3461041157600036600319011261041157602060ff600654166040519015158152f35b3461041157602036600319011261041157600435612b688161081a565b612b70612cef565b6001600160a01b039081168015612bac57600080546001600160a01b0319811683178255909216600080516020615b568339815191528380a380f35b60405162461bcd60e51b815260206004820152602660248201527f4f776e61626c653a206e6577206f776e657220697320746865207a65726f206160448201526564647265737360d01b6064820152608490fd5b3461041157608036600319011261041157600435612c1d81610405565b60243590612c2a82610405565b612c3560443561081a565b604051633d7b2f6f60e21b815261ffff91821660048201529116602482015230604482015260648035908201526000816084817f00000000000000000000000000000000000000000000000000000000000000006001600160a01b03165afa8015610805576106e791600091612cb3575b506040519182918261067b565b612cce913d8091833e612cc6818361096d565b810190614a6b565b38612ca6565b34610411576000366003190112610411576020604051308152f35b6000546001600160a01b03163303612d0357565b606460405162461bcd60e51b815260206004820152602060248201527f4f776e61626c653a2063616c6c6572206973206e6f7420746865206f776e65726044820152fd5b90612d529133612f18565b600190565b634e487b7160e01b600052601160045260246000fd5b90601f8201809211610eaa57565b6051019081605111610eaa57565b91908201809211610eaa57565b15612d9d57565b60405162461bcd60e51b815260206004820152602360248201527f45524332303a207472616e7366657220746f20746865207a65726f206164647260448201526265737360e81b6064820152608490fd5b15612df557565b60405162461bcd60e51b815260206004820152602660248201527f45524332303a207472616e7366657220616d6f756e7420657863656564732062604482015265616c616e636560d01b6064820152608490fd5b916001600160a01b038084169290918315612ec557612eaa82600080516020615b7683398151915294612ec0941696612e83881515612d96565b612ea484612e90836120c6565b54612e9d82821015612dee565b03916120c6565b556120c6565b8054820190556040519081529081906020820190565b0390a3565b60405162461bcd60e51b815260206004820152602560248201527f45524332303a207472616e736665722066726f6d20746865207a65726f206164604482015264647265737360d81b6064820152608490fd5b6001600160a01b038082169291908315612fe0578216938415612f905780612f7f7f8c5be1e5ebec7d5bd14f71427d1e84f3dd0314c0f7b2291e5b200ac8c7c3b92594612f7a612ec09560018060a01b03166000526009602052604060002090565b6120e0565b556040519081529081906020820190565b60405162461bcd60e51b815260206004820152602260248201527f45524332303a20617070726f766520746f20746865207a65726f206164647265604482015261737360f01b6064820152608490fd5b60405162461bcd60e51b8152602060048201526024808201527f45524332303a20617070726f76652066726f6d20746865207a65726f206164646044820152637265737360e01b6064820152608490fd5b9060018060a01b03821660005260096020526130518160406000206120e0565b5492600184016130615750505050565b80841061307c57613073930391612f18565b38808080611651565b60405162461bcd60e51b815260206004820152601d60248201527f45524332303a20696e73756666696369656e7420616c6c6f77616e63650000006044820152606490fd5b908060209392818452848401376000828201840152601f01601f1916010190565b80356130ed81610d28565b1515825260208101356020830152604081013561310981610d28565b1515604083015261ffff606082013561312181610405565b1660608301526080810135601e198236030181121561041157016020810190356001600160401b0381116104115780360382136104115760a08381608061068c96015201916130c1565b9190808252602080920192916000905b828210613189575050505090565b90919293806131a360019261319d88610d4c565b15159052565b6131b96131b1848801610d4c565b151582850152565b6131d260406131c9818901610854565b90830190611ad1565b6131ea60606131e2818901610d4c565b151590830152565b6131fa60806131c9818901610854565b61320a60a06131c9818901610854565b60c0808701359082015260e0808701359082015261323861010061322f818901612371565b60ff1690830152565b6101208681013590820152610140808701359082015261016090810195019392019061317b565b3561068c8161081a565b9894939196989792909597600160a01b6001900398898098169a604051988993602085016103059052169a8b978860408601528d60608601528d6080860152803560a08601528160208201356132be8161081a565b1660c0860152604001356132d18161081a565b1660e0840152610120938461010085015261014084016132f0916130e2565b90601f19948585840301908501526133079261316b565b039081018652613317908661096d565b6020016133239061325f565b9034933690613331926109eb565b9161333c9486614907565b6040516000815261ffff9091169080602081015b03600080516020615af683398151915291a4565b90816020910312610411575161068c81610405565b6040513d6000823e3d90fd5b606090803561339381610d28565b1515835260208101356133a58161081a565b6001600160a01b0316602084015260408101359082906133c4836122a2565b6001600160801b03928316604086015201356133df816122a2565b16910152565b6020809180356133f481610d28565b1515845201356134038161081a565b6001600160a01b0316910152565b94906134eb936134d99161068c989694610306895260018060a01b0380921660208a0152166040880152803561344681610d28565b1515606088015260208101356080880152604081013560a088015261347c60608201356134728161081a565b60c0890190611ad1565b61349561348b60808301610854565b60e0890190611ad1565b6134ae6134a460a08301610d4c565b1515610100890152565b60c08101356101208801526134ca610140880160e08301613385565b6101606101c0880191016133e5565b6102408061020087015285019161316b565b916102208184039101526130e2565b6040516303408e4760e41b81529299939896976001600160a01b0397929695929392906020846004817f00000000000000000000000000000000000000000000000000000000000000008d165afa90811561080557899484926135c4575b5060208301359a6135698c846156cf565b506040519889948b602087019561357f96613411565b03601f1981018652613591908661096d565b16968791349336906135a2926109eb565b916135ad948a614907565b604051928352169261ffff16908060208101613350565b6135e49060203d81116135eb575b6135dc818361096d565b810190613364565b5038613558565b503d6135d2565b51906108388261081a565b519061083882610d28565b90929192613615816109d0565b91613623604051938461096d565b829482845282820111610411576020610838930190610633565b9080601f8301121561041157815161068c92602001613608565b919060a083820312610411576040519061367082610937565b8193805161367d81610d28565b835260208101516020840152604081015161369781610d28565b604084015260608101516136aa81610405565b60608401526080810151916001600160401b03831161041157608092612504920161363d565b519061083882612366565b81601f82011215610411578051906136f28261234f565b926040906137028251958661096d565b838552602091828601918361016080970286010194818611610411578401925b858410613733575050505050505090565b868483031261041157848791613747610990565b613750876135fd565b815261375d8388016135fd565b8382015261376c8688016135f2565b86820152606061377d8189016135fd565b90820152608061378e8189016135f2565b9082015260a061379f8189016135f2565b9082015260c0808801519082015260e080880151908201526101006137c58189016136d0565b9082015261012080880151908201526101408088015190820152815201930192613722565b91828203610120811261041157835161380281610405565b9360208101516138118161081a565b9360408201516138208161081a565b9360608084015194607f1901126104115760405161383d81610952565b6080840151815260a08401516138528161081a565b602082015260c08401516138658161081a565b604082015260e084015190936001600160401b03939091848111610411578161388f918401613657565b936101008301519081116104115761068c92016136db565b90816020910312610411575190565b6001600160a01b03918216815291166020820152604081019190915260600190565b90816020910312610411575161068c8161081a565b60409060009294936060820195825260208201520152565b9692610120989461ffff9161395b97939d9c9b9d98949860018060a01b03998a8092168c521660208b015260408a0152166060880152608087015260a086015260c08501526101408060e0860152840190610656565b95166101008201520152565b91908260809103126104115760405161397f81610901565b6060808294805161398f81610d28565b8452602081015161399f8161081a565b602085015260408101516139b2816122a2565b6040850152015191612311836122a2565b9190826040910312610411576040516139db8161091c565b602080829480516139eb81610d28565b84520151916123118361081a565b919091808303906102408212610411578051613a1481610405565b936020820151613a238161081a565b936101a06040840151613a358161081a565b94605f19011261041157613a476109b0565b613a53606085016135fd565b81526080840151602082015260a08401516040820152613a7560c085016135f2565b6060820152613a8660e085016135f2565b6080820152610100613a998186016135fd565b60a083015261012085015160c0830152613ab7846101408701613967565b60e0830152613aca846101c087016139c3565b9082015261020084015190936001600160401b039390918481116104115781613af49184016136db565b936102208301519081116104115761068c9201613657565b8051151582526020808201516001600160a01b0316908301526040808201516001600160801b039081169184019190915260609182015116910152565b8051151582526020908101516001600160a01b0316910152565b90815180825260208080930193019160005b828110613b83575050505090565b90919293826101606001928751613b9c82825115159052565b80840151151582850152613bb860408083015190840190611ad1565b606081810151151590830152613bd660808083015190840190611ad1565b613be860a08083015190840190611ad1565b60c0818101519083015260e080820151908301526101008082015160ff16908301526101208181015190830152610140908101519082015201950193929101613b75565b9060a0608061068c938051151584526020810151602085015260408101511515604085015261ffff60608201511660608501520151918160808201520190610656565b92613d0061068c9593613d129360018060a01b031686528051151560208701526020810151604087015260408101516060870152613cb560608201516080880190611ad1565b613cc7608082015160a0880190611ad1565b60a0810151151560c087015260c081015160e087015260e081015190613cf36101009283890190613b0c565b0151610180860190613b49565b610200806101c0860152840190613b63565b916101e0818403910152613c2c565b3d15613d4c573d90613d32826109d0565b91613d40604051938461096d565b82523d6000602084013e565b606090565b601319810191908211610eaa57565b605019810191908211610eaa57565b91908203918211610eaa57565b9190613e0691600080604051936020968786019463a9059cbb60e01b865260018060a01b038093166024880152604487015260448652613dbb86610901565b169260405194613dca8661091c565b8786527f5361666545524332303a206c6f772d6c6576656c2063616c6c206661696c656488870152519082855af1613e00613d21565b91613e88565b805180613e1257505050565b8183918101031261041157810151613e2981610d28565b15613e315750565b6084906040519062461bcd60e51b82526004820152602a60248201527f5361666545524332303a204552433230206f7065726174696f6e20646964206e6044820152691bdd081cdd58d8d9595960b21b6064820152fd5b91929015613eea5750815115613e9c575090565b3b15613ea55790565b60405162461bcd60e51b815260206004820152601d60248201527f416464726573733a2063616c6c20746f206e6f6e2d636f6e74726163740000006044820152606490fd5b825190915015613efd5750805190602001fd5b60405162461bcd60e51b8152908190610bd4906004830161067b565b6044815110613f6a57600481015181019060208160248401930312610411576024810151906001600160401b0382116104115701908060438301121561041157602482015161068c92604401613608565b50604051613f778161091c565b60148152735553444f3a206e6f2072657475726e206461746160601b602082015290565b906108389461012093979694613fe09261016085019960018060a01b0380921686521660208501526040840152600160608401526001608084015260a0830190613b0c565b0190613b49565b9290918051614370575b506060820192614001845161080e565b906140126020850192835190612d47565b508351156142f75761402a6110b96110b9875161080e565b6080850192614039845161080e565b9051604087015192803b156104115760405163cc5e316360e01b81526001600160a01b03938416600482015292851660248401526044830191909152606482019290925260016084820181905260a482015290600090829060c490829084905af18015610805576142e4575b5060a0840151614277575b82516140be575b5050505050565b60049360206140d36110b96110b9865161080e565b60405163de40657760e01b815296879182905afa94851561080557600095614253575b50600493949560206141186110b96110b960018060a01b03809b16975161080e565b6040516377607a1760e11b815296879182905afa94851561080557600095614226575b506110b96110b961414c925161080e565b9261418c6020870180519360c061416860608b015161ffff1690565b9a87169101602081516040518096819263442c159960e01b83528d600484016138ed565b0381885afa93841561080557600094614202575b5060809051990151915191873b15610411576000996141d794836040519d8e9c8d9b8c9a632731bbc560e21b8c5260048c01613905565b03925af18015610805576141ef575b808080806140b7565b806112236141fc926108e9565b386141e6565b608091945061421f9060203d60201161126057611250818361096d565b93906141a0565b61414c9195506110b961424a6110b99260203d60201161126057611250818361096d565b9692505061413b565b60049495506142709060203d6020116112ac5761129e818361096d565b94936140f6565b6142876110b96110b9845161080e565b60c085015190803b156104115760405163cce19f8160e01b81529160009183918290849082906142bc908980600485016138b6565b03925af18015610805576142d1575b506140b0565b806112236142de926108e9565b386142cb565b806112236142f1926108e9565b386140a5565b915091926110b96110b961430b925161080e565b614318608085015161080e565b92519161010060e0860151950151823b1561041157600094614352869260405198899788968795631f8b2a3f60e11b875260048701613f9b565b03925af18015610805576143635750565b80611223610838926108e9565b61437990614471565b38613ff1565b80518210156143935760209160051b010190565b634e487b7160e01b600052603260045260246000fd5b9360ff929897969360c0969260e087019a60018060a01b0380921688521660208701526040860152606085015216608083015260a08201520152565b60009060033d116143f257565b905060046000803e60005160e01c90565b600060443d1061068c57604051600319913d83016004833e81516001600160401b03918282113d60248401111761446057818401948551938411614468573d85010160208487010111614460575061068c9291016020019061096d565b949350505050565b50949350505050565b60005b815181101561485057614494606061448c838561437f565b510151151590565b156146035760406144be6110b96110b9836144af868861437f565b5101516001600160a01b031690565b906144ce60806144af858761437f565b6144dd60a06144af868861437f565b9260c06144ea868861437f565b51015160e06144f9878961437f565b5101519061451661010061450d898b61437f565b51015160ff1690565b93610120614524898b61437f565b5101516101406145348a8c61437f565b51015190853b1561041157875196879586956301da8bf160e41b875260049b8c880196614560976143a9565b03815a6000948591f190816145f0575b506145e6576001916145806143e5565b6308c379a01461459b575b5050610805576001905b01614474565b6145a3614403565b90816145b0575b5061458b565b6000935090916145c8610b19602061448c888a61437f565b156145aa575162461bcd60e51b8152918291610bd49190830161067b565b5050600190614595565b806112236145fd926108e9565b38614570565b614617614610828461437f565b5151151590565b156147825760406146326110b96110b9836144af868861437f565b9061464260806144af858761437f565b9161465260a06144af868861437f565b60e061465e868861437f565b5101519161467261010061450d888a61437f565b90610120614680888a61437f565b51015193610140614691898b61437f565b510151823b1561041157865163aba0784760e01b81526001600160a01b03988916600480830191909152989095166024860152604485019190915260ff9092166064840152608483019390935260a482015290600090829081838160c4810103925af1908161476f575b506145e65760019161470b6143e5565b6308c379a014614724575b505061080557600190614595565b61472c614403565b9081614739575b50614716565b600093509091614751610b19602061448c888a61437f565b15614733575162461bcd60e51b8152918291610bd49190830161067b565b8061122361477c926108e9565b386146fb565b60406147986110b96110b9836144af868861437f565b906147a860806144af858761437f565b6147b760a06144af868861437f565b9260c06147c4868861437f565b51015160e06147d3878961437f565b510151906147e761010061450d898b61437f565b936101206147f5898b61437f565b5101516101406148058a8c61437f565b51015190853b15610411578751968795869563d505accf60e01b875260049b8c880196614831976143a9565b03815a6000948591f1908161476f57506145e65760019161470b6143e5565b5050565b1561485b57565b60405162461bcd60e51b815260206004820152602660248201527f4c7a4170703a20696e76616c696420736f757263652073656e64696e6720636f6044820152651b9d1c9858dd60d21b6064820152608490fd5b926148d461068c97959361ffff6148e29416865260c0602087015260c0860190610656565b908482036040860152610656565b6001600160a01b0391821660608401529316608082015280830360a090910152610656565b946149309193929561ffff81166000526001602052614937604060002060405194858092611624565b038461096d565b82511561499e576149498551826149fc565b7f00000000000000000000000000000000000000000000000000000000000000006001600160a01b031693843b156104115760009661435291604051998a988997889662c5803160e81b8852600488016148af565b60405162461bcd60e51b815260206004820152603060248201527f4c7a4170703a2064657374696e6174696f6e20636861696e206973206e6f742060448201526f61207472757374656420736f7572636560801b6064820152608490fd5b61ffff166000526003602052604060002054908115614a61575b11614a1d57565b606460405162461bcd60e51b815260206004820152602060248201527f4c7a4170703a207061796c6f61642073697a6520697320746f6f206c617267656044820152fd5b6127109150614a16565b906020828203126104115781516001600160401b0381116104115761068c920161363d565b60409061ffff61068c959316815281602082015201916130c1565b90601f8111614ab957505050565b600091825260208220906020601f850160051c83019410614af5575b601f0160051c01915b828110614aea57505050565b818155600101614ade565b9092508290614ad5565b929091614b715a604051633356ae4560e11b602082015261ffff871660248201526080604482015290614b6b82614b5d614b3c60a483018a610656565b6001600160401b038816606484015282810360231901608484015288610656565b03601f19810184528361096d565b30615a98565b939015614b7f575050505050565b614b8894614b92565b38808080806140b7565b9193614c307fe183f33de2837795525b4792ca4cd60535bd77c53b7e7030060bfcf5734d6b0c95614c3e939561ffff81516020830120961695866000526005602052614bf6836113a260208b60406000208260405194838680955193849201610633565b55614c13604051978897885260a0602089015260a0880190610656565b6001600160401b0390921660408701528582036060870152610656565b908382036080850152610656565b0390a1565b6020919283604051948593843782019081520301902090565b15614c6357565b60405162461bcd60e51b815260206004820152602160248201527f4e6f6e626c6f636b696e674c7a4170703a20696e76616c6964207061796c6f616044820152601960fa1b6064820152608490fd5b9160609361ffff614cd593989796981684526080602085015260808401916130c1565b6001600160401b0390951660408201520152565b903590601e198136030182121561041157018035906001600160401b0382116104115760200191813603831361041157565b94919598979061187d614d44604099614d3c614d4a97614d679936916109eb565b9436916109eb565b97615442565b928451968794859463040a7bb160e41b8652309060048701614ef5565b03817f00000000000000000000000000000000000000000000000000000000000000006001600160a01b03165afa918215610805576000908193614daa57509190565b90506104ba91925060403d8111610e5857610e49818361096d565b9396949161068c98969361ffff614dea9316865260c0602087015260c08601916130c1565b6001600160401b0390961660408401526060830152608082015280840360a0909101526130c1565b91969792989594939094303303614e9a57614e2e908530615835565b60405181815290946001600160a01b03169390849061ffff851690600080516020615b3683398151915290602090a3833b15610411576000988995614e8a936040519c8d9b8c9a8b98633fe79aed60e11b8a5260048a01614dc5565b0393f18015610805576143635750565b60405162461bcd60e51b815260206004820152601f60248201527f4f4654436f72653a2063616c6c6572206d757374206265204f4654436f7265006044820152606490fd5b9190826040910312610411576020825192015190565b919261068c959361ffff614f249316845260018060a01b0316602084015260a0604084015260a0830190610656565b92151560608201526080818403910152610656565b92919060ff614f4784615a3d565b168061509a5750505060ff614f5b82615a3d565b16158061508f575b614f6c90615545565b614f7e614f78826159ed565b91615a88565b90916001600160a01b039182841615615085575b614fc6907f0000000000000000000000000000000000000000000000000000000000000000906001600160401b03166154c7565b91831692831561504057600080516020615b368339815191529161500061ffff92614ffb614ff687600a54612d89565b600a55565b6120c6565b848154019055846000600080516020615b768339815191526040518061502b89829190602083019252565b0390a360405193845216918060208101612ec0565b60405162461bcd60e51b815260206004820152601f60248201527f45524332303a206d696e7420746f20746865207a65726f2061646472657373006044820152606490fd5b61dead9350614f92565b508051602914614f63565b6001036150aa57610838936151c3565b60405162461bcd60e51b815260206004820152601c60248201527b4f4654436f72653a20756e6b6e6f776e207061636b6574207479706560201b6044820152606490fd5b156150f557565b60405162461bcd60e51b815260206004820152601960248201527813d19510dbdc994e88185b5bdd5b9d081d1bdbc81cdb585b1b603a1b6044820152606490fd5b989796929361516060e0979361ffff6151959894168c5260208c61010091829101528c0190610656565b6001600160401b0390951660408b015260608a01526001600160a01b0316608089015260a088015286820360c0880152610656565b930152565b6151b260409295949395606083526060830190610656565b94600180841b031660208201520152565b90916151ce846155f6565b90916151e9610b1287610b0d6151e38b610f43565b8c611328565b916001600160401b0391615220907f00000000000000000000000000000000000000000000000000000000000000009084166154c7565b9288888b831561531c575b505050853b156152d157946152729694614b6b948a94614b5d948d996000146152ca5750505a925b5a978b6040519a8b9863757fea4d60e11b60208b015260248a01615136565b90156152bf5750906152ba61ffff928560207fb8890edbfc1c74692f527444645f95489c3703cc2df42e4a366f5d06fa6cd8849697519101209060405194859416968461519a565b0390a2565b926108389492614b92565b1692615253565b50506040516001600160a01b039094168452507f9aedf5fdba8716db3b6705ca00150643309995d4f818a249ed6dde6677e7792d975091955085945050602084019250614c3e915050565b90610b0d610c0f92610c098961533661533c979b306157e5565b99610f43565b88888b61522b565b60065460ff16156153915760228251106118845761ffff602261083893015191166000526002602052615384604060002060008052602052604060002090565b549061184b821515615399565b50516118f557565b156153a057565b60405162461bcd60e51b815260206004820152601a602482015279131e905c1c0e881b5a5b91d85cd31a5b5a5d081b9bdd081cd95d60321b6044820152606490fd5b156153e957565b60405162461bcd60e51b815260206004820152601b60248201527a4c7a4170703a20676173206c696d697420697320746f6f206c6f7760281b6044820152606490fd5b634e487b7160e01b600052601260045260246000fd5b7f00000000000000000000000000000000000000000000000000000000000000009081156154c2576001600160401b03919004818111615480571690565b60405162461bcd60e51b815260206004820152601a6024820152794f4654436f72653a20616d6f756e745344206f766572666c6f7760301b6044820152606490fd5b61542c565b81810292918115918404141715610eaa57565b7f000000000000000000000000000000000000000000000000000000000000000080156154c257810690818103908111610eaa5791565b60405160006020820152602181019190915260c09190911b6001600160c01b03191660418201526029815261068c81610952565b1561554c57565b60405162461bcd60e51b815260206004820152601860248201527713d19510dbdc994e881a5b9d985b1a59081c185e5b1bd85960421b6044820152606490fd5b939260719261068c94604051968794600160f81b6020870152602186015260018060c01b0319809360c01b16604186015260018060a01b0316604985015260c01b1660698301526155e68151809260208686019101610633565b810103605181018452018261096d565b9061560e600160ff61560785615a3d565b1614615545565b615617826159ed565b9061562183615a88565b9060498451106156925760498401519360518151106156565761565360518201519161564d8151613d60565b90615969565b91565b60405162461bcd60e51b8152602060048201526014602482015273746f55696e7436345f6f75744f66426f756e647360601b6044820152606490fd5b60405162461bcd60e51b8152602060048201526015602482015274746f427974657333325f6f75744f66426f756e647360581b6044820152606490fd5b6001600160a01b03811633810361577e575b801561572f5781615704846156f76000956120c6565b54612e9d8282101561578e565b5561571283600a5403600a55565b604051838152600080516020615b7683398151915290602090a390565b60405162461bcd60e51b815260206004820152602160248201527f45524332303a206275726e2066726f6d20746865207a65726f206164647265736044820152607360f81b6064820152608490fd5b615789833384613031565b6156e1565b1561579557565b60405162461bcd60e51b815260206004820152602260248201527f45524332303a206275726e20616d6f756e7420657863656564732062616c616e604482015261636560f01b6064820152608490fd5b6001600160a01b0381169190821561504057600a5490828201809211610eaa57600092615826602092600080516020615b7683398151915294600a556120c6565b818154019055604051908152a3565b61068c9183916001600160a01b038116308114159081615861575b5015612e4957610d07833383613031565b905033141538615850565b1561587357565b60405162461bcd60e51b815260206004820152600e60248201526d736c6963655f6f766572666c6f7760901b6044820152606490fd5b156158b057565b60405162461bcd60e51b8152602060048201526011602482015270736c6963655f6f75744f66426f756e647360781b6044820152606490fd5b6158fd826158f681612d6d565b101561586c565b61590a82825110156158a9565b81615922575050604051600081526020810160405290565b60405191601f811691821560051b808486010193838501920101905b8084106159565750508252601f01601f191660405290565b909283518152602080910193019061593e565b615976826158f681612d6d565b61598b815161598484612d7b565b11156158a9565b816159a3575050604051600081526020810160405290565b60405191601f8116916051831560051b80858701019484860193010101905b8084106159da5750508252601f01601f191660405290565b90928351815260208091019301906159c2565b6021815110615a0057602d015160601c90565b60405162461bcd60e51b8152602060048201526015602482015274746f416464726573735f6f75744f66426f756e647360581b6044820152606490fd5b6001815110615a4d576001015190565b60405162461bcd60e51b8152602060048201526013602482015272746f55696e74385f6f75744f66426f756e647360681b6044820152606490fd5b6029815110615656576029015190565b6040519392909160009160c08601916001600160401b038311878410176108fc5783926040526096875282602088019560a036883760208451940192f1903d9060968211615aec575b6000908286523e9190565b60969150615ae156fed81fc9b8523134ed613870ed029d6170cbb73aa6a6bc311b9a642689fb9df59a8c0400cfe2d1199b1a725c78960bcc2a344d869b80590d0f2bd005db15a572cebf551ec93859b170f9b2141bd9298bf3f64322c6f7beb2543a0cb669834118bf8be0079c531659141344cd1fd0a4f28419497f9722a3daafe3b4186f6b6457e0ddf252ad1be2c89b69c2b068fc378daa952ba7f163c4a11628f55a4df523b3effa41487ad5d6728f0b19276fa1eddc16558578f5109fc39d2dc33c3230470daba2646970667358221220f26795c1ba8f124a57983742edb0a7034afbba11f24b53f9840bf85c591b49be64736f6c63430008120033",
  "linkReferences": {},
  "deployedLinkReferences": {}
}