{
  "_format": "hh-sol-artifact-1",
  "contractName": "USDO",
  "sourceName": "contracts/usd0/USDO.sol",
  "abi": [
    {
      "inputs": [
        {
          "internalType": "address",
          "name": "_lzEndpoint",
          "type": "address"
        },
        {
          "internalType": "contract IYieldBoxBase",
          "name": "_yieldBox",
          "type": "address"
        },
        {
          "internalType": "contract ICluster",
          "name": "_cluster",
          "type": "address"
        },
        {
          "internalType": "address",
          "name": "_owner",
          "type": "address"
        },
        {
          "internalType": "address payable",
          "name": "_leverageModule",
          "type": "address"
        },
        {
          "internalType": "address payable",
          "name": "_leverageDestinationModule",
          "type": "address"
        },
        {
          "internalType": "address payable",
          "name": "_marketModule",
          "type": "address"
        },
        {
          "internalType": "address payable",
          "name": "_marketDestinationModule",
          "type": "address"
        },
        {
          "internalType": "address payable",
          "name": "_optionsModule",
          "type": "address"
        },
        {
          "internalType": "address payable",
          "name": "_optionsDestinationModule",
          "type": "address"
        },
        {
          "internalType": "address payable",
          "name": "_genericModule",
          "type": "address"
        }
      ],
      "stateMutability": "nonpayable",
      "type": "constructor"
    },
    {
      "anonymous": false,
      "inputs": [
        {
          "indexed": true,
          "internalType": "address",
          "name": "owner",
          "type": "address"
        },
        {
          "indexed": true,
          "internalType": "address",
          "name": "spender",
          "type": "address"
        },
        {
          "indexed": false,
          "internalType": "uint256",
          "name": "value",
          "type": "uint256"
        }
      ],
      "name": "Approval",
      "type": "event"
    },
    {
      "anonymous": false,
      "inputs": [
        {
          "indexed": true,
          "internalType": "uint16",
          "name": "_srcChainId",
          "type": "uint16"
        },
        {
          "indexed": false,
          "internalType": "bytes",
          "name": "_srcAddress",
          "type": "bytes"
        },
        {
          "indexed": false,
          "internalType": "uint64",
          "name": "_nonce",
          "type": "uint64"
        },
        {
          "indexed": false,
          "internalType": "bytes32",
          "name": "_hash",
          "type": "bytes32"
        }
      ],
      "name": "CallOFTReceivedSuccess",
      "type": "event"
    },
    {
      "anonymous": false,
      "inputs": [
        {
          "indexed": false,
          "internalType": "uint16",
          "name": "_srcChainId",
          "type": "uint16"
        },
        {
          "indexed": false,
          "internalType": "bytes",
          "name": "_srcAddress",
          "type": "bytes"
        },
        {
          "indexed": false,
          "internalType": "uint64",
          "name": "_nonce",
          "type": "uint64"
        },
        {
          "indexed": false,
          "internalType": "bytes",
          "name": "_payload",
          "type": "bytes"
        },
        {
          "indexed": false,
          "internalType": "bytes",
          "name": "_reason",
          "type": "bytes"
        }
      ],
      "name": "MessageFailed",
      "type": "event"
    },
    {
      "anonymous": false,
      "inputs": [
        {
          "indexed": false,
          "internalType": "address",
          "name": "_address",
          "type": "address"
        }
      ],
      "name": "NonContractAddress",
      "type": "event"
    },
    {
      "anonymous": false,
      "inputs": [
        {
          "indexed": true,
          "internalType": "address",
          "name": "previousOwner",
          "type": "address"
        },
        {
          "indexed": true,
          "internalType": "address",
          "name": "newOwner",
          "type": "address"
        }
      ],
      "name": "OwnershipTransferred",
      "type": "event"
    },
    {
      "anonymous": false,
      "inputs": [
        {
          "indexed": false,
          "internalType": "bool",
          "name": "oldState",
          "type": "bool"
        },
        {
          "indexed": false,
          "internalType": "bool",
          "name": "newState",
          "type": "bool"
        }
      ],
      "name": "PausedUpdated",
      "type": "event"
    },
    {
      "anonymous": false,
      "inputs": [
        {
          "indexed": true,
          "internalType": "uint16",
          "name": "_srcChainId",
          "type": "uint16"
        },
        {
          "indexed": true,
          "internalType": "address",
          "name": "_to",
          "type": "address"
        },
        {
          "indexed": false,
          "internalType": "uint256",
          "name": "_amount",
          "type": "uint256"
        }
      ],
      "name": "ReceiveFromChain",
      "type": "event"
    },
    {
      "anonymous": false,
      "inputs": [
        {
          "indexed": false,
          "internalType": "uint16",
          "name": "_srcChainId",
          "type": "uint16"
        },
        {
          "indexed": false,
          "internalType": "bytes",
          "name": "_srcAddress",
          "type": "bytes"
        },
        {
          "indexed": false,
          "internalType": "uint64",
          "name": "_nonce",
          "type": "uint64"
        },
        {
          "indexed": false,
          "internalType": "bytes32",
          "name": "_payloadHash",
          "type": "bytes32"
        }
      ],
      "name": "RetryMessageSuccess",
      "type": "event"
    },
    {
      "anonymous": false,
      "inputs": [
        {
          "indexed": true,
          "internalType": "uint16",
          "name": "_dstChainId",
          "type": "uint16"
        },
        {
          "indexed": true,
          "internalType": "address",
          "name": "_from",
          "type": "address"
        },
        {
          "indexed": true,
          "internalType": "bytes32",
          "name": "_toAddress",
          "type": "bytes32"
        },
        {
          "indexed": false,
          "internalType": "uint256",
          "name": "_amount",
          "type": "uint256"
        }
      ],
      "name": "SendToChain",
      "type": "event"
    },
    {
      "anonymous": false,
      "inputs": [
        {
          "indexed": true,
          "internalType": "address",
          "name": "_for",
          "type": "address"
        },
        {
          "indexed": false,
          "internalType": "bool",
          "name": "_status",
          "type": "bool"
        }
      ],
      "name": "SetBurnerStatus",
      "type": "event"
    },
    {
      "anonymous": false,
      "inputs": [
        {
          "indexed": false,
          "internalType": "uint16",
          "name": "_dstChainId",
          "type": "uint16"
        },
        {
          "indexed": false,
          "internalType": "uint16",
          "name": "_type",
          "type": "uint16"
        },
        {
          "indexed": false,
          "internalType": "uint256",
          "name": "_minDstGas",
          "type": "uint256"
        }
      ],
      "name": "SetMinDstGas",
      "type": "event"
    },
    {
      "anonymous": false,
      "inputs": [
        {
          "indexed": true,
          "internalType": "address",
          "name": "_for",
          "type": "address"
        },
        {
          "indexed": false,
          "internalType": "bool",
          "name": "_status",
          "type": "bool"
        }
      ],
      "name": "SetMinterStatus",
      "type": "event"
    },
    {
      "anonymous": false,
      "inputs": [
        {
          "indexed": false,
          "internalType": "address",
          "name": "precrime",
          "type": "address"
        }
      ],
      "name": "SetPrecrime",
      "type": "event"
    },
    {
      "anonymous": false,
      "inputs": [
        {
          "indexed": false,
          "internalType": "uint16",
          "name": "_remoteChainId",
          "type": "uint16"
        },
        {
          "indexed": false,
          "internalType": "bytes",
          "name": "_path",
          "type": "bytes"
        }
      ],
      "name": "SetTrustedRemote",
      "type": "event"
    },
    {
      "anonymous": false,
      "inputs": [
        {
          "indexed": false,
          "internalType": "uint16",
          "name": "_remoteChainId",
          "type": "uint16"
        },
        {
          "indexed": false,
          "internalType": "bytes",
          "name": "_remoteAddress",
          "type": "bytes"
        }
      ],
      "name": "SetTrustedRemoteAddress",
      "type": "event"
    },
    {
      "anonymous": false,
      "inputs": [
        {
          "indexed": false,
          "internalType": "bool",
          "name": "_useCustomAdapterParams",
          "type": "bool"
        }
      ],
      "name": "SetUseCustomAdapterParams",
      "type": "event"
    },
    {
      "anonymous": false,
      "inputs": [
        {
          "indexed": true,
          "internalType": "address",
          "name": "from",
          "type": "address"
        },
        {
          "indexed": true,
          "internalType": "address",
          "name": "to",
          "type": "address"
        },
        {
          "indexed": false,
          "internalType": "uint256",
          "name": "value",
          "type": "uint256"
        }
      ],
      "name": "Transfer",
      "type": "event"
    },
    {
      "inputs": [],
      "name": "DEFAULT_PAYLOAD_SIZE_LIMIT",
      "outputs": [
        {
          "internalType": "uint256",
          "name": "",
          "type": "uint256"
        }
      ],
      "stateMutability": "view",
      "type": "function"
    },
    {
      "inputs": [],
      "name": "DOMAIN_SEPARATOR",
      "outputs": [
        {
          "internalType": "bytes32",
          "name": "",
          "type": "bytes32"
        }
      ],
      "stateMutability": "view",
      "type": "function"
    },
    {
      "inputs": [],
      "name": "NO_EXTRA_GAS",
      "outputs": [
        {
          "internalType": "uint256",
          "name": "",
          "type": "uint256"
        }
      ],
      "stateMutability": "view",
      "type": "function"
    },
    {
      "inputs": [],
      "name": "PT_SEND",
      "outputs": [
        {
          "internalType": "uint8",
          "name": "",
          "type": "uint8"
        }
      ],
      "stateMutability": "view",
      "type": "function"
    },
    {
      "inputs": [],
      "name": "PT_SEND_AND_CALL",
      "outputs": [
        {
          "internalType": "uint8",
          "name": "",
          "type": "uint8"
        }
      ],
      "stateMutability": "view",
      "type": "function"
    },
    {
      "inputs": [
        {
          "internalType": "uint256",
          "name": "_fee",
          "type": "uint256"
        }
      ],
      "name": "addFlashloanFee",
      "outputs": [],
      "stateMutability": "nonpayable",
      "type": "function"
    },
    {
      "inputs": [
        {
          "internalType": "address",
          "name": "owner",
          "type": "address"
        },
        {
          "internalType": "address",
          "name": "spender",
          "type": "address"
        }
      ],
      "name": "allowance",
      "outputs": [
        {
          "internalType": "uint256",
          "name": "",
          "type": "uint256"
        }
      ],
      "stateMutability": "view",
      "type": "function"
    },
    {
      "inputs": [
        {
          "internalType": "uint256",
          "name": "",
          "type": "uint256"
        },
        {
          "internalType": "address",
          "name": "",
          "type": "address"
        }
      ],
      "name": "allowedBurner",
      "outputs": [
        {
          "internalType": "bool",
          "name": "",
          "type": "bool"
        }
      ],
      "stateMutability": "view",
      "type": "function"
    },
    {
      "inputs": [
        {
          "internalType": "uint256",
          "name": "",
          "type": "uint256"
        },
        {
          "internalType": "address",
          "name": "",
          "type": "address"
        }
      ],
      "name": "allowedMinter",
      "outputs": [
        {
          "internalType": "bool",
          "name": "",
          "type": "bool"
        }
      ],
      "stateMutability": "view",
      "type": "function"
    },
    {
      "inputs": [
        {
          "internalType": "address",
          "name": "spender",
          "type": "address"
        },
        {
          "internalType": "uint256",
          "name": "amount",
          "type": "uint256"
        }
      ],
      "name": "approve",
      "outputs": [
        {
          "internalType": "bool",
          "name": "",
          "type": "bool"
        }
      ],
      "stateMutability": "nonpayable",
      "type": "function"
    },
    {
      "inputs": [
        {
          "internalType": "address",
          "name": "account",
          "type": "address"
        }
      ],
      "name": "balanceOf",
      "outputs": [
        {
          "internalType": "uint256",
          "name": "",
          "type": "uint256"
        }
      ],
      "stateMutability": "view",
      "type": "function"
    },
    {
      "inputs": [
        {
          "internalType": "address",
          "name": "_from",
          "type": "address"
        },
        {
          "internalType": "uint256",
          "name": "_amount",
          "type": "uint256"
        }
      ],
      "name": "burn",
      "outputs": [],
      "stateMutability": "nonpayable",
      "type": "function"
    },
    {
      "inputs": [
        {
          "internalType": "uint16",
          "name": "_srcChainId",
          "type": "uint16"
        },
        {
          "internalType": "bytes",
          "name": "_srcAddress",
          "type": "bytes"
        },
        {
          "internalType": "uint64",
          "name": "_nonce",
          "type": "uint64"
        },
        {
          "internalType": "bytes32",
          "name": "_from",
          "type": "bytes32"
        },
        {
          "internalType": "address",
          "name": "_to",
          "type": "address"
        },
        {
          "internalType": "uint256",
          "name": "_amount",
          "type": "uint256"
        },
        {
          "internalType": "bytes",
          "name": "_payload",
          "type": "bytes"
        },
        {
          "internalType": "uint256",
          "name": "_gasForCall",
          "type": "uint256"
        }
      ],
      "name": "callOnOFTReceived",
      "outputs": [],
      "stateMutability": "nonpayable",
      "type": "function"
    },
    {
      "inputs": [],
      "name": "circulatingSupply",
      "outputs": [
        {
          "internalType": "uint256",
          "name": "",
          "type": "uint256"
        }
      ],
      "stateMutability": "view",
      "type": "function"
    },
    {
      "inputs": [],
      "name": "cluster",
      "outputs": [
        {
          "internalType": "contract ICluster",
          "name": "",
          "type": "address"
        }
      ],
      "stateMutability": "view",
      "type": "function"
    },
    {
      "inputs": [],
      "name": "conservator",
      "outputs": [
        {
          "internalType": "address",
          "name": "",
          "type": "address"
        }
      ],
      "stateMutability": "view",
      "type": "function"
    },
    {
      "inputs": [
        {
          "internalType": "uint16",
          "name": "",
          "type": "uint16"
        },
        {
          "internalType": "bytes",
          "name": "",
          "type": "bytes"
        },
        {
          "internalType": "uint64",
          "name": "",
          "type": "uint64"
        }
      ],
      "name": "creditedPackets",
      "outputs": [
        {
          "internalType": "bool",
          "name": "",
          "type": "bool"
        }
      ],
      "stateMutability": "view",
      "type": "function"
    },
    {
      "inputs": [],
      "name": "decimals",
      "outputs": [
        {
          "internalType": "uint8",
          "name": "",
          "type": "uint8"
        }
      ],
      "stateMutability": "pure",
      "type": "function"
    },
    {
      "inputs": [
        {
          "internalType": "address",
          "name": "spender",
          "type": "address"
        },
        {
          "internalType": "uint256",
          "name": "subtractedValue",
          "type": "uint256"
        }
      ],
      "name": "decreaseAllowance",
      "outputs": [
        {
          "internalType": "bool",
          "name": "",
          "type": "bool"
        }
      ],
      "stateMutability": "nonpayable",
      "type": "function"
    },
    {
      "inputs": [
        {
          "internalType": "uint16",
          "name": "_dstChainId",
          "type": "uint16"
        },
        {
          "internalType": "bytes32",
          "name": "_toAddress",
          "type": "bytes32"
        },
        {
          "internalType": "uint256",
          "name": "_amount",
          "type": "uint256"
        },
        {
          "internalType": "bytes",
          "name": "_payload",
          "type": "bytes"
        },
        {
          "internalType": "uint64",
          "name": "_dstGasForCall",
          "type": "uint64"
        },
        {
          "internalType": "bool",
          "name": "_useZro",
          "type": "bool"
        },
        {
          "internalType": "bytes",
          "name": "_adapterParams",
          "type": "bytes"
        }
      ],
      "name": "estimateSendAndCallFee",
      "outputs": [
        {
          "internalType": "uint256",
          "name": "nativeFee",
          "type": "uint256"
        },
        {
          "internalType": "uint256",
          "name": "zroFee",
          "type": "uint256"
        }
      ],
      "stateMutability": "view",
      "type": "function"
    },
    {
      "inputs": [
        {
          "internalType": "uint16",
          "name": "_dstChainId",
          "type": "uint16"
        },
        {
          "internalType": "bytes32",
          "name": "_toAddress",
          "type": "bytes32"
        },
        {
          "internalType": "uint256",
          "name": "_amount",
          "type": "uint256"
        },
        {
          "internalType": "bool",
          "name": "_useZro",
          "type": "bool"
        },
        {
          "internalType": "bytes",
          "name": "_adapterParams",
          "type": "bytes"
        }
      ],
      "name": "estimateSendFee",
      "outputs": [
        {
          "internalType": "uint256",
          "name": "nativeFee",
          "type": "uint256"
        },
        {
          "internalType": "uint256",
          "name": "zroFee",
          "type": "uint256"
        }
      ],
      "stateMutability": "view",
      "type": "function"
    },
    {
      "inputs": [
        {
          "components": [
            {
              "internalType": "address",
              "name": "from",
              "type": "address"
            },
            {
              "internalType": "address",
              "name": "target",
              "type": "address"
            },
            {
              "internalType": "uint256",
              "name": "paymentTokenAmount",
              "type": "uint256"
            },
            {
              "internalType": "uint256",
              "name": "oTAPTokenID",
              "type": "uint256"
            },
            {
              "internalType": "address",
              "name": "paymentToken",
              "type": "address"
            },
            {
              "internalType": "uint256",
              "name": "tapAmount",
              "type": "uint256"
            }
          ],
          "internalType": "struct ITapiocaOptionsBrokerCrossChain.IExerciseOptionsData",
          "name": "optionsData",
          "type": "tuple"
        },
        {
          "components": [
            {
              "internalType": "uint16",
              "name": "lzDstChainId",
              "type": "uint16"
            },
            {
              "internalType": "address",
              "name": "zroPaymentAddress",
              "type": "address"
            },
            {
              "internalType": "uint256",
              "name": "extraGas",
              "type": "uint256"
            }
          ],
          "internalType": "struct ITapiocaOptionsBrokerCrossChain.IExerciseLZData",
          "name": "lzData",
          "type": "tuple"
        },
        {
          "components": [
            {
              "internalType": "bool",
              "name": "withdrawOnAnotherChain",
              "type": "bool"
            },
            {
              "internalType": "address",
              "name": "tapOftAddress",
              "type": "address"
            },
            {
              "internalType": "uint16",
              "name": "lzDstChainId",
              "type": "uint16"
            },
            {
              "internalType": "uint256",
              "name": "amount",
              "type": "uint256"
            },
            {
              "internalType": "address",
              "name": "zroPaymentAddress",
              "type": "address"
            },
            {
              "internalType": "uint256",
              "name": "extraGas",
              "type": "uint256"
            }
          ],
          "internalType": "struct ITapiocaOptionsBrokerCrossChain.IExerciseLZSendTapData",
          "name": "tapSendData",
          "type": "tuple"
        },
        {
          "components": [
            {
              "internalType": "bool",
              "name": "permitAll",
              "type": "bool"
            },
            {
              "internalType": "bool",
              "name": "allowFailure",
              "type": "bool"
            },
            {
              "internalType": "bool",
              "name": "yieldBoxTypeApproval",
              "type": "bool"
            },
            {
              "internalType": "bool",
              "name": "revokeYieldBox",
              "type": "bool"
            },
            {
              "internalType": "uint16",
              "name": "actionType",
              "type": "uint16"
            },
            {
              "internalType": "address",
              "name": "target",
              "type": "address"
            },
            {
              "internalType": "bool",
              "name": "permitBorrow",
              "type": "bool"
            },
            {
              "internalType": "address",
              "name": "owner",
              "type": "address"
            },
            {
              "internalType": "address",
              "name": "spender",
              "type": "address"
            },
            {
              "internalType": "uint256",
              "name": "value",
              "type": "uint256"
            },
            {
              "internalType": "uint256",
              "name": "deadline",
              "type": "uint256"
            },
            {
              "internalType": "uint8",
              "name": "v",
              "type": "uint8"
            },
            {
              "internalType": "bytes32",
              "name": "r",
              "type": "bytes32"
            },
            {
              "internalType": "bytes32",
              "name": "s",
              "type": "bytes32"
            }
          ],
          "internalType": "struct ICommonData.IApproval[]",
          "name": "approvals",
          "type": "tuple[]"
        },
        {
          "components": [
            {
              "internalType": "bool",
              "name": "permitAll",
              "type": "bool"
            },
            {
              "internalType": "bool",
              "name": "allowFailure",
              "type": "bool"
            },
            {
              "internalType": "bool",
              "name": "yieldBoxTypeApproval",
              "type": "bool"
            },
            {
              "internalType": "bool",
              "name": "revokeYieldBox",
              "type": "bool"
            },
            {
              "internalType": "uint16",
              "name": "actionType",
              "type": "uint16"
            },
            {
              "internalType": "address",
              "name": "target",
              "type": "address"
            },
            {
              "internalType": "bool",
              "name": "permitBorrow",
              "type": "bool"
            },
            {
              "internalType": "address",
              "name": "owner",
              "type": "address"
            },
            {
              "internalType": "address",
              "name": "spender",
              "type": "address"
            },
            {
              "internalType": "uint256",
              "name": "value",
              "type": "uint256"
            },
            {
              "internalType": "uint256",
              "name": "deadline",
              "type": "uint256"
            },
            {
              "internalType": "uint8",
              "name": "v",
              "type": "uint8"
            },
            {
              "internalType": "bytes32",
              "name": "r",
              "type": "bytes32"
            },
            {
              "internalType": "bytes32",
              "name": "s",
              "type": "bytes32"
            }
          ],
          "internalType": "struct ICommonData.IApproval[]",
          "name": "revokes",
          "type": "tuple[]"
        },
        {
          "internalType": "bytes",
          "name": "adapterParams",
          "type": "bytes"
        }
      ],
      "name": "exerciseOption",
      "outputs": [],
      "stateMutability": "payable",
      "type": "function"
    },
    {
      "inputs": [],
      "name": "extractFees",
      "outputs": [],
      "stateMutability": "nonpayable",
      "type": "function"
    },
    {
      "inputs": [
        {
          "internalType": "uint16",
          "name": "",
          "type": "uint16"
        },
        {
          "internalType": "bytes",
          "name": "",
          "type": "bytes"
        },
        {
          "internalType": "uint64",
          "name": "",
          "type": "uint64"
        }
      ],
      "name": "failedMessages",
      "outputs": [
        {
          "internalType": "bytes32",
          "name": "",
          "type": "bytes32"
        }
      ],
      "stateMutability": "view",
      "type": "function"
    },
    {
      "inputs": [],
      "name": "flashLoanHelper",
      "outputs": [
        {
          "internalType": "address",
          "name": "",
          "type": "address"
        }
      ],
      "stateMutability": "view",
      "type": "function"
    },
    {
      "inputs": [
        {
          "internalType": "uint16",
          "name": "_srcChainId",
          "type": "uint16"
        },
        {
          "internalType": "bytes",
          "name": "_srcAddress",
          "type": "bytes"
        }
      ],
      "name": "forceResumeReceive",
      "outputs": [],
      "stateMutability": "nonpayable",
      "type": "function"
    },
    {
      "inputs": [
        {
          "internalType": "uint16",
          "name": "_version",
          "type": "uint16"
        },
        {
          "internalType": "uint16",
          "name": "_chainId",
          "type": "uint16"
        },
        {
          "internalType": "address",
          "name": "",
          "type": "address"
        },
        {
          "internalType": "uint256",
          "name": "_configType",
          "type": "uint256"
        }
      ],
      "name": "getConfig",
      "outputs": [
        {
          "internalType": "bytes",
          "name": "",
          "type": "bytes"
        }
      ],
      "stateMutability": "view",
      "type": "function"
    },
    {
      "inputs": [
        {
          "internalType": "uint16",
          "name": "_remoteChainId",
          "type": "uint16"
        }
      ],
      "name": "getTrustedRemoteAddress",
      "outputs": [
        {
          "internalType": "bytes",
          "name": "",
          "type": "bytes"
        }
      ],
      "stateMutability": "view",
      "type": "function"
    },
    {
      "inputs": [
        {
          "internalType": "address",
          "name": "spender",
          "type": "address"
        },
        {
          "internalType": "uint256",
          "name": "addedValue",
          "type": "uint256"
        }
      ],
      "name": "increaseAllowance",
      "outputs": [
        {
          "internalType": "bool",
          "name": "",
          "type": "bool"
        }
      ],
      "stateMutability": "nonpayable",
      "type": "function"
    },
    {
      "inputs": [
        {
          "internalType": "uint16",
          "name": "_srcChainId",
          "type": "uint16"
        },
        {
          "internalType": "bytes",
          "name": "_srcAddress",
          "type": "bytes"
        }
      ],
      "name": "isTrustedRemote",
      "outputs": [
        {
          "internalType": "bool",
          "name": "",
          "type": "bool"
        }
      ],
      "stateMutability": "view",
      "type": "function"
    },
    {
      "inputs": [],
      "name": "lzEndpoint",
      "outputs": [
        {
          "internalType": "contract ILayerZeroEndpoint",
          "name": "",
          "type": "address"
        }
      ],
      "stateMutability": "view",
      "type": "function"
    },
    {
      "inputs": [
        {
          "internalType": "uint16",
          "name": "_srcChainId",
          "type": "uint16"
        },
        {
          "internalType": "bytes",
          "name": "_srcAddress",
          "type": "bytes"
        },
        {
          "internalType": "uint64",
          "name": "_nonce",
          "type": "uint64"
        },
        {
          "internalType": "bytes",
          "name": "_payload",
          "type": "bytes"
        }
      ],
      "name": "lzReceive",
      "outputs": [],
      "stateMutability": "nonpayable",
      "type": "function"
    },
    {
      "inputs": [
        {
          "internalType": "uint16",
          "name": "",
          "type": "uint16"
        },
        {
          "internalType": "uint16",
          "name": "",
          "type": "uint16"
        }
      ],
      "name": "minDstGasLookup",
      "outputs": [
        {
          "internalType": "uint256",
          "name": "",
          "type": "uint256"
        }
      ],
      "stateMutability": "view",
      "type": "function"
    },
    {
      "inputs": [
        {
          "internalType": "address",
          "name": "_to",
          "type": "address"
        },
        {
          "internalType": "uint256",
          "name": "_amount",
          "type": "uint256"
        }
      ],
      "name": "mint",
      "outputs": [],
      "stateMutability": "nonpayable",
      "type": "function"
    },
    {
      "inputs": [],
      "name": "name",
      "outputs": [
        {
          "internalType": "string",
          "name": "",
          "type": "string"
        }
      ],
      "stateMutability": "view",
      "type": "function"
    },
    {
      "inputs": [
        {
          "internalType": "uint16",
          "name": "_srcChainId",
          "type": "uint16"
        },
        {
          "internalType": "bytes",
          "name": "_srcAddress",
          "type": "bytes"
        },
        {
          "internalType": "uint64",
          "name": "_nonce",
          "type": "uint64"
        },
        {
          "internalType": "bytes",
          "name": "_payload",
          "type": "bytes"
        }
      ],
      "name": "nonblockingLzReceive",
      "outputs": [],
      "stateMutability": "nonpayable",
      "type": "function"
    },
    {
      "inputs": [
        {
          "internalType": "address",
          "name": "owner",
          "type": "address"
        }
      ],
      "name": "nonces",
      "outputs": [
        {
          "internalType": "uint256",
          "name": "",
          "type": "uint256"
        }
      ],
      "stateMutability": "view",
      "type": "function"
    },
    {
      "inputs": [],
      "name": "owner",
      "outputs": [
        {
          "internalType": "address",
          "name": "",
          "type": "address"
        }
      ],
      "stateMutability": "view",
      "type": "function"
    },
    {
      "inputs": [],
      "name": "paused",
      "outputs": [
        {
          "internalType": "bool",
          "name": "",
          "type": "bool"
        }
      ],
      "stateMutability": "view",
      "type": "function"
    },
    {
      "inputs": [
        {
          "internalType": "uint16",
          "name": "",
          "type": "uint16"
        }
      ],
      "name": "payloadSizeLimitLookup",
      "outputs": [
        {
          "internalType": "uint256",
          "name": "",
          "type": "uint256"
        }
      ],
      "stateMutability": "view",
      "type": "function"
    },
    {
      "inputs": [
        {
          "internalType": "address",
          "name": "owner",
          "type": "address"
        },
        {
          "internalType": "address",
          "name": "spender",
          "type": "address"
        },
        {
          "internalType": "uint256",
          "name": "value",
          "type": "uint256"
        },
        {
          "internalType": "uint256",
          "name": "deadline",
          "type": "uint256"
        },
        {
          "internalType": "uint8",
          "name": "v",
          "type": "uint8"
        },
        {
          "internalType": "bytes32",
          "name": "r",
          "type": "bytes32"
        },
        {
          "internalType": "bytes32",
          "name": "s",
          "type": "bytes32"
        }
      ],
      "name": "permit",
      "outputs": [],
      "stateMutability": "nonpayable",
      "type": "function"
    },
    {
      "inputs": [],
      "name": "precrime",
      "outputs": [
        {
          "internalType": "address",
          "name": "",
          "type": "address"
        }
      ],
      "stateMutability": "view",
      "type": "function"
    },
    {
      "inputs": [
        {
          "internalType": "address",
          "name": "from",
          "type": "address"
        },
        {
          "internalType": "address",
          "name": "to",
          "type": "address"
        },
        {
          "internalType": "uint16",
          "name": "lzDstChainId",
          "type": "uint16"
        },
        {
          "internalType": "address",
          "name": "zroPaymentAddress",
          "type": "address"
        },
        {
          "internalType": "bytes",
          "name": "adapterParams",
          "type": "bytes"
        },
        {
          "components": [
            {
              "internalType": "address",
              "name": "magnetar",
              "type": "address"
            },
            {
              "internalType": "address",
              "name": "singularity",
              "type": "address"
            },
            {
              "internalType": "address",
              "name": "bigBang",
              "type": "address"
            }
          ],
          "internalType": "struct ICommonData.ICommonExternalContracts",
          "name": "externalData",
          "type": "tuple"
        },
        {
          "components": [
            {
              "internalType": "bool",
              "name": "removeAssetFromSGL",
              "type": "bool"
            },
            {
              "internalType": "uint256",
              "name": "removeAmount",
              "type": "uint256"
            },
            {
              "internalType": "bool",
              "name": "repayAssetOnBB",
              "type": "bool"
            },
            {
              "internalType": "uint256",
              "name": "repayAmount",
              "type": "uint256"
            },
            {
              "internalType": "bool",
              "name": "removeCollateralFromBB",
              "type": "bool"
            },
            {
              "internalType": "uint256",
              "name": "collateralAmount",
              "type": "uint256"
            },
            {
              "components": [
                {
                  "internalType": "bool",
                  "name": "exit",
                  "type": "bool"
                },
                {
                  "internalType": "address",
                  "name": "target",
                  "type": "address"
                },
                {
                  "internalType": "uint256",
                  "name": "oTAPTokenID",
                  "type": "uint256"
                }
              ],
              "internalType": "struct ITapiocaOptionsBroker.IOptionsExitData",
              "name": "exitData",
              "type": "tuple"
            },
            {
              "components": [
                {
                  "internalType": "bool",
                  "name": "unlock",
                  "type": "bool"
                },
                {
                  "internalType": "address",
                  "name": "target",
                  "type": "address"
                },
                {
                  "internalType": "uint256",
                  "name": "tokenId",
                  "type": "uint256"
                }
              ],
              "internalType": "struct ITapiocaOptionLiquidityProvision.IOptionsUnlockData",
              "name": "unlockData",
              "type": "tuple"
            },
            {
              "components": [
                {
                  "internalType": "bool",
                  "name": "withdraw",
                  "type": "bool"
                },
                {
                  "internalType": "uint256",
                  "name": "withdrawLzFeeAmount",
                  "type": "uint256"
                },
                {
                  "internalType": "bool",
                  "name": "withdrawOnOtherChain",
                  "type": "bool"
                },
                {
                  "internalType": "uint16",
                  "name": "withdrawLzChainId",
                  "type": "uint16"
                },
                {
                  "internalType": "bytes",
                  "name": "withdrawAdapterParams",
                  "type": "bytes"
                },
                {
                  "internalType": "bool",
                  "name": "unwrap",
                  "type": "bool"
                }
              ],
              "internalType": "struct ICommonData.IWithdrawParams",
              "name": "assetWithdrawData",
              "type": "tuple"
            },
            {
              "components": [
                {
                  "internalType": "bool",
                  "name": "withdraw",
                  "type": "bool"
                },
                {
                  "internalType": "uint256",
                  "name": "withdrawLzFeeAmount",
                  "type": "uint256"
                },
                {
                  "internalType": "bool",
                  "name": "withdrawOnOtherChain",
                  "type": "bool"
                },
                {
                  "internalType": "uint16",
                  "name": "withdrawLzChainId",
                  "type": "uint16"
                },
                {
                  "internalType": "bytes",
                  "name": "withdrawAdapterParams",
                  "type": "bytes"
                },
                {
                  "internalType": "bool",
                  "name": "unwrap",
                  "type": "bool"
                }
              ],
              "internalType": "struct ICommonData.IWithdrawParams",
              "name": "collateralWithdrawData",
              "type": "tuple"
            }
          ],
          "internalType": "struct IUSDOBase.IRemoveAndRepay",
          "name": "removeAndRepayData",
          "type": "tuple"
        },
        {
          "components": [
            {
              "internalType": "bool",
              "name": "permitAll",
              "type": "bool"
            },
            {
              "internalType": "bool",
              "name": "allowFailure",
              "type": "bool"
            },
            {
              "internalType": "bool",
              "name": "yieldBoxTypeApproval",
              "type": "bool"
            },
            {
              "internalType": "bool",
              "name": "revokeYieldBox",
              "type": "bool"
            },
            {
              "internalType": "uint16",
              "name": "actionType",
              "type": "uint16"
            },
            {
              "internalType": "address",
              "name": "target",
              "type": "address"
            },
            {
              "internalType": "bool",
              "name": "permitBorrow",
              "type": "bool"
            },
            {
              "internalType": "address",
              "name": "owner",
              "type": "address"
            },
            {
              "internalType": "address",
              "name": "spender",
              "type": "address"
            },
            {
              "internalType": "uint256",
              "name": "value",
              "type": "uint256"
            },
            {
              "internalType": "uint256",
              "name": "deadline",
              "type": "uint256"
            },
            {
              "internalType": "uint8",
              "name": "v",
              "type": "uint8"
            },
            {
              "internalType": "bytes32",
              "name": "r",
              "type": "bytes32"
            },
            {
              "internalType": "bytes32",
              "name": "s",
              "type": "bytes32"
            }
          ],
          "internalType": "struct ICommonData.IApproval[]",
          "name": "approvals",
          "type": "tuple[]"
        },
        {
          "components": [
            {
              "internalType": "bool",
              "name": "permitAll",
              "type": "bool"
            },
            {
              "internalType": "bool",
              "name": "allowFailure",
              "type": "bool"
            },
            {
              "internalType": "bool",
              "name": "yieldBoxTypeApproval",
              "type": "bool"
            },
            {
              "internalType": "bool",
              "name": "revokeYieldBox",
              "type": "bool"
            },
            {
              "internalType": "uint16",
              "name": "actionType",
              "type": "uint16"
            },
            {
              "internalType": "address",
              "name": "target",
              "type": "address"
            },
            {
              "internalType": "bool",
              "name": "permitBorrow",
              "type": "bool"
            },
            {
              "internalType": "address",
              "name": "owner",
              "type": "address"
            },
            {
              "internalType": "address",
              "name": "spender",
              "type": "address"
            },
            {
              "internalType": "uint256",
              "name": "value",
              "type": "uint256"
            },
            {
              "internalType": "uint256",
              "name": "deadline",
              "type": "uint256"
            },
            {
              "internalType": "uint8",
              "name": "v",
              "type": "uint8"
            },
            {
              "internalType": "bytes32",
              "name": "r",
              "type": "bytes32"
            },
            {
              "internalType": "bytes32",
              "name": "s",
              "type": "bytes32"
            }
          ],
          "internalType": "struct ICommonData.IApproval[]",
          "name": "revokes",
          "type": "tuple[]"
        }
      ],
      "name": "removeAsset",
      "outputs": [],
      "stateMutability": "payable",
      "type": "function"
    },
    {
      "inputs": [],
      "name": "renounceOwnership",
      "outputs": [],
      "stateMutability": "nonpayable",
      "type": "function"
    },
    {
      "inputs": [
        {
          "internalType": "uint256",
          "name": "amount",
          "type": "uint256"
        },
        {
          "internalType": "address",
          "name": "to",
          "type": "address"
        }
      ],
      "name": "rescueEth",
      "outputs": [],
      "stateMutability": "nonpayable",
      "type": "function"
    },
    {
      "inputs": [
        {
          "internalType": "uint16",
          "name": "_srcChainId",
          "type": "uint16"
        },
        {
          "internalType": "bytes",
          "name": "_srcAddress",
          "type": "bytes"
        },
        {
          "internalType": "uint64",
          "name": "_nonce",
          "type": "uint64"
        },
        {
          "internalType": "bytes",
          "name": "_payload",
          "type": "bytes"
        }
      ],
      "name": "retryMessage",
      "outputs": [],
      "stateMutability": "payable",
      "type": "function"
    },
    {
      "inputs": [
        {
          "internalType": "address",
          "name": "_from",
          "type": "address"
        },
        {
          "internalType": "uint16",
          "name": "_dstChainId",
          "type": "uint16"
        },
        {
          "internalType": "bytes32",
          "name": "_toAddress",
          "type": "bytes32"
        },
        {
          "internalType": "uint256",
          "name": "_amount",
          "type": "uint256"
        },
        {
          "internalType": "bytes",
          "name": "_payload",
          "type": "bytes"
        },
        {
          "internalType": "uint64",
          "name": "_dstGasForCall",
          "type": "uint64"
        },
        {
          "components": [
            {
              "internalType": "address payable",
              "name": "refundAddress",
              "type": "address"
            },
            {
              "internalType": "address",
              "name": "zroPaymentAddress",
              "type": "address"
            },
            {
              "internalType": "bytes",
              "name": "adapterParams",
              "type": "bytes"
            }
          ],
          "internalType": "struct ICommonOFT.LzCallParams",
          "name": "_callParams",
          "type": "tuple"
        }
      ],
      "name": "sendAndCall",
      "outputs": [],
      "stateMutability": "payable",
      "type": "function"
    },
    {
      "inputs": [
        {
          "internalType": "address",
          "name": "_from",
          "type": "address"
        },
        {
          "internalType": "address",
          "name": "_to",
          "type": "address"
        },
        {
          "internalType": "uint16",
          "name": "lzDstChainId",
          "type": "uint16"
        },
        {
          "internalType": "address",
          "name": "zroPaymentAddress",
          "type": "address"
        },
        {
          "components": [
            {
              "internalType": "bool",
              "name": "repay",
              "type": "bool"
            },
            {
              "internalType": "uint256",
              "name": "depositAmount",
              "type": "uint256"
            },
            {
              "internalType": "uint256",
              "name": "repayAmount",
              "type": "uint256"
            },
            {
              "internalType": "address",
              "name": "marketHelper",
              "type": "address"
            },
            {
              "internalType": "address",
              "name": "market",
              "type": "address"
            },
            {
              "internalType": "bool",
              "name": "removeCollateral",
              "type": "bool"
            },
            {
              "internalType": "uint256",
              "name": "removeCollateralAmount",
              "type": "uint256"
            },
            {
              "components": [
                {
                  "internalType": "bool",
                  "name": "lock",
                  "type": "bool"
                },
                {
                  "internalType": "address",
                  "name": "target",
                  "type": "address"
                },
                {
                  "internalType": "uint128",
                  "name": "lockDuration",
                  "type": "uint128"
                },
                {
                  "internalType": "uint128",
                  "name": "amount",
                  "type": "uint128"
                },
                {
                  "internalType": "uint256",
                  "name": "fraction",
                  "type": "uint256"
                }
              ],
              "internalType": "struct ITapiocaOptionLiquidityProvision.IOptionsLockData",
              "name": "lockData",
              "type": "tuple"
            },
            {
              "components": [
                {
                  "internalType": "bool",
                  "name": "participate",
                  "type": "bool"
                },
                {
                  "internalType": "address",
                  "name": "target",
                  "type": "address"
                },
                {
                  "internalType": "uint256",
                  "name": "tOLPTokenId",
                  "type": "uint256"
                }
              ],
              "internalType": "struct ITapiocaOptionsBroker.IOptionsParticipateData",
              "name": "participateData",
              "type": "tuple"
            }
          ],
          "internalType": "struct IUSDOBase.ILendOrRepayParams",
          "name": "lendParams",
          "type": "tuple"
        },
        {
          "components": [
            {
              "internalType": "bool",
              "name": "permitAll",
              "type": "bool"
            },
            {
              "internalType": "bool",
              "name": "allowFailure",
              "type": "bool"
            },
            {
              "internalType": "bool",
              "name": "yieldBoxTypeApproval",
              "type": "bool"
            },
            {
              "internalType": "bool",
              "name": "revokeYieldBox",
              "type": "bool"
            },
            {
              "internalType": "uint16",
              "name": "actionType",
              "type": "uint16"
            },
            {
              "internalType": "address",
              "name": "target",
              "type": "address"
            },
            {
              "internalType": "bool",
              "name": "permitBorrow",
              "type": "bool"
            },
            {
              "internalType": "address",
              "name": "owner",
              "type": "address"
            },
            {
              "internalType": "address",
              "name": "spender",
              "type": "address"
            },
            {
              "internalType": "uint256",
              "name": "value",
              "type": "uint256"
            },
            {
              "internalType": "uint256",
              "name": "deadline",
              "type": "uint256"
            },
            {
              "internalType": "uint8",
              "name": "v",
              "type": "uint8"
            },
            {
              "internalType": "bytes32",
              "name": "r",
              "type": "bytes32"
            },
            {
              "internalType": "bytes32",
              "name": "s",
              "type": "bytes32"
            }
          ],
          "internalType": "struct ICommonData.IApproval[]",
          "name": "approvals",
          "type": "tuple[]"
        },
        {
          "components": [
            {
              "internalType": "bool",
              "name": "permitAll",
              "type": "bool"
            },
            {
              "internalType": "bool",
              "name": "allowFailure",
              "type": "bool"
            },
            {
              "internalType": "bool",
              "name": "yieldBoxTypeApproval",
              "type": "bool"
            },
            {
              "internalType": "bool",
              "name": "revokeYieldBox",
              "type": "bool"
            },
            {
              "internalType": "uint16",
              "name": "actionType",
              "type": "uint16"
            },
            {
              "internalType": "address",
              "name": "target",
              "type": "address"
            },
            {
              "internalType": "bool",
              "name": "permitBorrow",
              "type": "bool"
            },
            {
              "internalType": "address",
              "name": "owner",
              "type": "address"
            },
            {
              "internalType": "address",
              "name": "spender",
              "type": "address"
            },
            {
              "internalType": "uint256",
              "name": "value",
              "type": "uint256"
            },
            {
              "internalType": "uint256",
              "name": "deadline",
              "type": "uint256"
            },
            {
              "internalType": "uint8",
              "name": "v",
              "type": "uint8"
            },
            {
              "internalType": "bytes32",
              "name": "r",
              "type": "bytes32"
            },
            {
              "internalType": "bytes32",
              "name": "s",
              "type": "bytes32"
            }
          ],
          "internalType": "struct ICommonData.IApproval[]",
          "name": "revokes",
          "type": "tuple[]"
        },
        {
          "components": [
            {
              "internalType": "bool",
              "name": "withdraw",
              "type": "bool"
            },
            {
              "internalType": "uint256",
              "name": "withdrawLzFeeAmount",
              "type": "uint256"
            },
            {
              "internalType": "bool",
              "name": "withdrawOnOtherChain",
              "type": "bool"
            },
            {
              "internalType": "uint16",
              "name": "withdrawLzChainId",
              "type": "uint16"
            },
            {
              "internalType": "bytes",
              "name": "withdrawAdapterParams",
              "type": "bytes"
            },
            {
              "internalType": "bool",
              "name": "unwrap",
              "type": "bool"
            }
          ],
          "internalType": "struct ICommonData.IWithdrawParams",
          "name": "withdrawParams",
          "type": "tuple"
        },
        {
          "internalType": "bytes",
          "name": "adapterParams",
          "type": "bytes"
        }
      ],
      "name": "sendAndLendOrRepay",
      "outputs": [],
      "stateMutability": "payable",
      "type": "function"
    },
    {
      "inputs": [
        {
          "internalType": "uint256",
          "name": "amount",
          "type": "uint256"
        },
        {
          "internalType": "address",
          "name": "leverageFor",
          "type": "address"
        },
        {
          "components": [
            {
              "internalType": "uint256",
              "name": "srcExtraGasLimit",
              "type": "uint256"
            },
            {
              "internalType": "uint16",
              "name": "lzSrcChainId",
              "type": "uint16"
            },
            {
              "internalType": "uint16",
              "name": "lzDstChainId",
              "type": "uint16"
            },
            {
              "internalType": "address",
              "name": "zroPaymentAddress",
              "type": "address"
            },
            {
              "internalType": "bytes",
              "name": "dstAirdropAdapterParam",
              "type": "bytes"
            },
            {
              "internalType": "bytes",
              "name": "srcAirdropAdapterParam",
              "type": "bytes"
            },
            {
              "internalType": "address",
              "name": "refundAddress",
              "type": "address"
            }
          ],
          "internalType": "struct IUSDOBase.ILeverageLZData",
          "name": "lzData",
          "type": "tuple"
        },
        {
          "components": [
            {
              "internalType": "address",
              "name": "tokenOut",
              "type": "address"
            },
            {
              "internalType": "uint256",
              "name": "amountOutMin",
              "type": "uint256"
            },
            {
              "internalType": "bytes",
              "name": "data",
              "type": "bytes"
            }
          ],
          "internalType": "struct IUSDOBase.ILeverageSwapData",
          "name": "swapData",
          "type": "tuple"
        },
        {
          "components": [
            {
              "internalType": "address",
              "name": "swapper",
              "type": "address"
            },
            {
              "internalType": "address",
              "name": "magnetar",
              "type": "address"
            },
            {
              "internalType": "address",
              "name": "tOft",
              "type": "address"
            },
            {
              "internalType": "address",
              "name": "srcMarket",
              "type": "address"
            }
          ],
          "internalType": "struct IUSDOBase.ILeverageExternalContractsData",
          "name": "externalData",
          "type": "tuple"
        }
      ],
      "name": "sendForLeverage",
      "outputs": [],
      "stateMutability": "payable",
      "type": "function"
    },
    {
      "inputs": [
        {
          "internalType": "address",
          "name": "_from",
          "type": "address"
        },
        {
          "internalType": "uint16",
          "name": "_dstChainId",
          "type": "uint16"
        },
        {
          "internalType": "bytes32",
          "name": "_toAddress",
          "type": "bytes32"
        },
        {
          "internalType": "uint256",
          "name": "_amount",
          "type": "uint256"
        },
        {
          "components": [
            {
              "internalType": "address payable",
              "name": "refundAddress",
              "type": "address"
            },
            {
              "internalType": "address",
              "name": "zroPaymentAddress",
              "type": "address"
            },
            {
              "internalType": "bytes",
              "name": "adapterParams",
              "type": "bytes"
            }
          ],
          "internalType": "struct ICommonOFT.LzCallParams",
          "name": "_callParams",
          "type": "tuple"
        }
      ],
      "name": "sendFrom",
      "outputs": [],
      "stateMutability": "payable",
      "type": "function"
    },
    {
      "inputs": [
        {
          "internalType": "address",
          "name": "_for",
          "type": "address"
        },
        {
          "internalType": "bool",
          "name": "_status",
          "type": "bool"
        }
      ],
      "name": "setBurnerStatus",
      "outputs": [],
      "stateMutability": "nonpayable",
      "type": "function"
    },
    {
      "inputs": [
        {
          "internalType": "contract ICluster",
          "name": "_cluster",
          "type": "address"
        }
      ],
      "name": "setCluster",
      "outputs": [],
      "stateMutability": "nonpayable",
      "type": "function"
    },
    {
      "inputs": [
        {
          "internalType": "uint16",
          "name": "_version",
          "type": "uint16"
        },
        {
          "internalType": "uint16",
          "name": "_chainId",
          "type": "uint16"
        },
        {
          "internalType": "uint256",
          "name": "_configType",
          "type": "uint256"
        },
        {
          "internalType": "bytes",
          "name": "_config",
          "type": "bytes"
        }
      ],
      "name": "setConfig",
      "outputs": [],
      "stateMutability": "nonpayable",
      "type": "function"
    },
    {
      "inputs": [
        {
          "internalType": "address",
          "name": "_conservator",
          "type": "address"
        }
      ],
      "name": "setConservator",
      "outputs": [],
      "stateMutability": "nonpayable",
      "type": "function"
    },
    {
      "inputs": [
        {
          "internalType": "address",
          "name": "_helper",
          "type": "address"
        }
      ],
      "name": "setFlashloanHelper",
      "outputs": [],
      "stateMutability": "nonpayable",
      "type": "function"
    },
    {
      "inputs": [
        {
          "internalType": "uint16",
          "name": "_dstChainId",
          "type": "uint16"
        },
        {
          "internalType": "uint16",
          "name": "_packetType",
          "type": "uint16"
        },
        {
          "internalType": "uint256",
          "name": "_minGas",
          "type": "uint256"
        }
      ],
      "name": "setMinDstGas",
      "outputs": [],
      "stateMutability": "nonpayable",
      "type": "function"
    },
    {
      "inputs": [
        {
          "internalType": "address",
          "name": "_for",
          "type": "address"
        },
        {
          "internalType": "bool",
          "name": "_status",
          "type": "bool"
        }
      ],
      "name": "setMinterStatus",
      "outputs": [],
      "stateMutability": "nonpayable",
      "type": "function"
    },
    {
      "inputs": [
        {
          "internalType": "uint16",
          "name": "_dstChainId",
          "type": "uint16"
        },
        {
          "internalType": "uint256",
          "name": "_size",
          "type": "uint256"
        }
      ],
      "name": "setPayloadSizeLimit",
      "outputs": [],
      "stateMutability": "nonpayable",
      "type": "function"
    },
    {
      "inputs": [
        {
          "internalType": "address",
          "name": "_precrime",
          "type": "address"
        }
      ],
      "name": "setPrecrime",
      "outputs": [],
      "stateMutability": "nonpayable",
      "type": "function"
    },
    {
      "inputs": [
        {
          "internalType": "uint16",
          "name": "_version",
          "type": "uint16"
        }
      ],
      "name": "setReceiveVersion",
      "outputs": [],
      "stateMutability": "nonpayable",
      "type": "function"
    },
    {
      "inputs": [
        {
          "internalType": "uint16",
          "name": "_version",
          "type": "uint16"
        }
      ],
      "name": "setSendVersion",
      "outputs": [],
      "stateMutability": "nonpayable",
      "type": "function"
    },
    {
      "inputs": [
        {
          "internalType": "uint16",
          "name": "_srcChainId",
          "type": "uint16"
        },
        {
          "internalType": "bytes",
          "name": "_path",
          "type": "bytes"
        }
      ],
      "name": "setTrustedRemote",
      "outputs": [],
      "stateMutability": "nonpayable",
      "type": "function"
    },
    {
      "inputs": [
        {
          "internalType": "uint16",
          "name": "_remoteChainId",
          "type": "uint16"
        },
        {
          "internalType": "bytes",
          "name": "_remoteAddress",
          "type": "bytes"
        }
      ],
      "name": "setTrustedRemoteAddress",
      "outputs": [],
      "stateMutability": "nonpayable",
      "type": "function"
    },
    {
      "inputs": [
        {
          "internalType": "bool",
          "name": "_useCustomAdapterParams",
          "type": "bool"
        }
      ],
      "name": "setUseCustomAdapterParams",
      "outputs": [],
      "stateMutability": "nonpayable",
      "type": "function"
    },
    {
      "inputs": [],
      "name": "sharedDecimals",
      "outputs": [
        {
          "internalType": "uint8",
          "name": "",
          "type": "uint8"
        }
      ],
      "stateMutability": "view",
      "type": "function"
    },
    {
      "inputs": [
        {
          "internalType": "bytes4",
          "name": "interfaceId",
          "type": "bytes4"
        }
      ],
      "name": "supportsInterface",
      "outputs": [
        {
          "internalType": "bool",
          "name": "",
          "type": "bool"
        }
      ],
      "stateMutability": "view",
      "type": "function"
    },
    {
      "inputs": [],
      "name": "symbol",
      "outputs": [
        {
          "internalType": "string",
          "name": "",
          "type": "string"
        }
      ],
      "stateMutability": "view",
      "type": "function"
    },
    {
      "inputs": [],
      "name": "token",
      "outputs": [
        {
          "internalType": "address",
          "name": "",
          "type": "address"
        }
      ],
      "stateMutability": "view",
      "type": "function"
    },
    {
      "inputs": [],
      "name": "totalSupply",
      "outputs": [
        {
          "internalType": "uint256",
          "name": "",
          "type": "uint256"
        }
      ],
      "stateMutability": "view",
      "type": "function"
    },
    {
      "inputs": [
        {
          "internalType": "address",
          "name": "to",
          "type": "address"
        },
        {
          "internalType": "uint256",
          "name": "amount",
          "type": "uint256"
        }
      ],
      "name": "transfer",
      "outputs": [
        {
          "internalType": "bool",
          "name": "",
          "type": "bool"
        }
      ],
      "stateMutability": "nonpayable",
      "type": "function"
    },
    {
      "inputs": [
        {
          "internalType": "address",
          "name": "from",
          "type": "address"
        },
        {
          "internalType": "address",
          "name": "to",
          "type": "address"
        },
        {
          "internalType": "uint256",
          "name": "amount",
          "type": "uint256"
        }
      ],
      "name": "transferFrom",
      "outputs": [
        {
          "internalType": "bool",
          "name": "",
          "type": "bool"
        }
      ],
      "stateMutability": "nonpayable",
      "type": "function"
    },
    {
      "inputs": [
        {
          "internalType": "address",
          "name": "newOwner",
          "type": "address"
        }
      ],
      "name": "transferOwnership",
      "outputs": [],
      "stateMutability": "nonpayable",
      "type": "function"
    },
    {
      "inputs": [
        {
          "internalType": "uint16",
          "name": "lzDstChainId",
          "type": "uint16"
        },
        {
          "components": [
            {
              "internalType": "address payable",
              "name": "refundAddress",
              "type": "address"
            },
            {
              "internalType": "address",
              "name": "zroPaymentAddress",
              "type": "address"
            },
            {
              "internalType": "bytes",
              "name": "adapterParams",
              "type": "bytes"
            }
          ],
          "internalType": "struct ICommonOFT.LzCallParams",
          "name": "lzCallParams",
          "type": "tuple"
        },
        {
          "components": [
            {
              "internalType": "bool",
              "name": "permitAll",
              "type": "bool"
            },
            {
              "internalType": "bool",
              "name": "allowFailure",
              "type": "bool"
            },
            {
              "internalType": "bool",
              "name": "yieldBoxTypeApproval",
              "type": "bool"
            },
            {
              "internalType": "bool",
              "name": "revokeYieldBox",
              "type": "bool"
            },
            {
              "internalType": "uint16",
              "name": "actionType",
              "type": "uint16"
            },
            {
              "internalType": "address",
              "name": "target",
              "type": "address"
            },
            {
              "internalType": "bool",
              "name": "permitBorrow",
              "type": "bool"
            },
            {
              "internalType": "address",
              "name": "owner",
              "type": "address"
            },
            {
              "internalType": "address",
              "name": "spender",
              "type": "address"
            },
            {
              "internalType": "uint256",
              "name": "value",
              "type": "uint256"
            },
            {
              "internalType": "uint256",
              "name": "deadline",
              "type": "uint256"
            },
            {
              "internalType": "uint8",
              "name": "v",
              "type": "uint8"
            },
            {
              "internalType": "bytes32",
              "name": "r",
              "type": "bytes32"
            },
            {
              "internalType": "bytes32",
              "name": "s",
              "type": "bytes32"
            }
          ],
          "internalType": "struct ICommonData.IApproval[]",
          "name": "approvals",
          "type": "tuple[]"
        }
      ],
      "name": "triggerApproveOrRevoke",
      "outputs": [],
      "stateMutability": "payable",
      "type": "function"
    },
    {
      "inputs": [
        {
          "internalType": "uint16",
          "name": "lzDstChainId",
          "type": "uint16"
        },
        {
          "internalType": "bytes",
          "name": "airdropAdapterParams",
          "type": "bytes"
        },
        {
          "internalType": "uint256",
          "name": "amount",
          "type": "uint256"
        },
        {
          "components": [
            {
              "internalType": "address payable",
              "name": "refundAddress",
              "type": "address"
            },
            {
              "internalType": "address",
              "name": "zroPaymentAddress",
              "type": "address"
            },
            {
              "internalType": "bytes",
              "name": "adapterParams",
              "type": "bytes"
            }
          ],
          "internalType": "struct ICommonOFT.LzCallParams",
          "name": "sendFromData",
          "type": "tuple"
        },
        {
          "components": [
            {
              "internalType": "bool",
              "name": "permitAll",
              "type": "bool"
            },
            {
              "internalType": "bool",
              "name": "allowFailure",
              "type": "bool"
            },
            {
              "internalType": "bool",
              "name": "yieldBoxTypeApproval",
              "type": "bool"
            },
            {
              "internalType": "bool",
              "name": "revokeYieldBox",
              "type": "bool"
            },
            {
              "internalType": "uint16",
              "name": "actionType",
              "type": "uint16"
            },
            {
              "internalType": "address",
              "name": "target",
              "type": "address"
            },
            {
              "internalType": "bool",
              "name": "permitBorrow",
              "type": "bool"
            },
            {
              "internalType": "address",
              "name": "owner",
              "type": "address"
            },
            {
              "internalType": "address",
              "name": "spender",
              "type": "address"
            },
            {
              "internalType": "uint256",
              "name": "value",
              "type": "uint256"
            },
            {
              "internalType": "uint256",
              "name": "deadline",
              "type": "uint256"
            },
            {
              "internalType": "uint8",
              "name": "v",
              "type": "uint8"
            },
            {
              "internalType": "bytes32",
              "name": "r",
              "type": "bytes32"
            },
            {
              "internalType": "bytes32",
              "name": "s",
              "type": "bytes32"
            }
          ],
          "internalType": "struct ICommonData.IApproval[]",
          "name": "approvals",
          "type": "tuple[]"
        },
        {
          "components": [
            {
              "internalType": "bool",
              "name": "permitAll",
              "type": "bool"
            },
            {
              "internalType": "bool",
              "name": "allowFailure",
              "type": "bool"
            },
            {
              "internalType": "bool",
              "name": "yieldBoxTypeApproval",
              "type": "bool"
            },
            {
              "internalType": "bool",
              "name": "revokeYieldBox",
              "type": "bool"
            },
            {
              "internalType": "uint16",
              "name": "actionType",
              "type": "uint16"
            },
            {
              "internalType": "address",
              "name": "target",
              "type": "address"
            },
            {
              "internalType": "bool",
              "name": "permitBorrow",
              "type": "bool"
            },
            {
              "internalType": "address",
              "name": "owner",
              "type": "address"
            },
            {
              "internalType": "address",
              "name": "spender",
              "type": "address"
            },
            {
              "internalType": "uint256",
              "name": "value",
              "type": "uint256"
            },
            {
              "internalType": "uint256",
              "name": "deadline",
              "type": "uint256"
            },
            {
              "internalType": "uint8",
              "name": "v",
              "type": "uint8"
            },
            {
              "internalType": "bytes32",
              "name": "r",
              "type": "bytes32"
            },
            {
              "internalType": "bytes32",
              "name": "s",
              "type": "bytes32"
            }
          ],
          "internalType": "struct ICommonData.IApproval[]",
          "name": "revokes",
          "type": "tuple[]"
        }
      ],
      "name": "triggerSendFrom",
      "outputs": [],
      "stateMutability": "payable",
      "type": "function"
    },
    {
      "inputs": [
        {
          "internalType": "uint16",
          "name": "",
          "type": "uint16"
        }
      ],
      "name": "trustedRemoteLookup",
      "outputs": [
        {
          "internalType": "bytes",
          "name": "",
          "type": "bytes"
        }
      ],
      "stateMutability": "view",
      "type": "function"
    },
    {
      "inputs": [
        {
          "internalType": "bool",
          "name": "val",
          "type": "bool"
        }
      ],
      "name": "updatePause",
      "outputs": [],
      "stateMutability": "nonpayable",
      "type": "function"
    },
    {
      "inputs": [],
      "name": "useCustomAdapterParams",
      "outputs": [
        {
          "internalType": "bool",
          "name": "",
          "type": "bool"
        }
      ],
      "stateMutability": "view",
      "type": "function"
    },
    {
      "inputs": [],
      "name": "yieldBox",
      "outputs": [
        {
          "internalType": "contract IYieldBoxBase",
          "name": "",
          "type": "address"
        }
      ],
      "stateMutability": "view",
      "type": "function"
    },
    {
      "stateMutability": "payable",
      "type": "receive"
    }
  ],
  "bytecode": "0x6101c06040523462000b7d5761016062006906803803809162000025826101c062000b9e565b6101c0391262000b7d576200003c6101c062000bc2565b6101e051906001600160a01b038216820362000b7d57610200516001600160a01b038116810362000b7d576200007461022062000bc2565b926200008261024062000bc2565b916200009061026062000bc2565b6200009d61028062000bc2565b91620000ab6102a062000bc2565b93620000b96102c062000bc2565b95620000c76102e062000bc2565b91620000d561030062000bc2565b9360405191620000e58362000b82565b60048352635553444f60e01b60208401526040519a620001058c62000b82565b60018c52603160f81b60208d0152604051620001218162000b82565b60048152635553444f60e01b602082015260405191620001418362000b82565b60048352635553444f60e01b60208401526200015d3362000bd7565b6001600160a01b0316608052600860a0528051906001600160401b038211620008c857600b5490600182811c9216801562000b72575b602083101462000a445781601f84931162000b00575b50602090601f831160011462000a715760009262000a65575b50508160011b916000199060031b1c191617600b555b8051906001600160401b038211620008c857600c5490600182811c9216801562000a5a575b602083101462000a445781601f849311620009d2575b50602090601f8311600114620009435760009262000937575b50508160011b916000199060031b1c191617600c555b6402540be40060c0526080516040516303408e4760e41b815290602090829060049082906001600160a01b03165afa9081156200092b57600091620008de575b5061ffff1680600052600f60205260406000203360005260205260406000209060ff19916001838254161790556000526010602052604060002033600052602052600160406000209182541617905560e05260018060a01b031660018060a01b0319600d541617600d5560208151910120976020815191012088610160528061018052466101205260405198600080516020620068e683398151915260208b015260408a015260608901524660808901523060a089015260a088528760c081011060018060401b0360c08a011117620008c85760c08801604081905288516020808b0191909120610100523061014052600080516020620068e68339815191526101a052601580546001600160a01b039485166001600160a01b031991821681179092556016805498861698821689179055601780549986169982168a179055601880549a86169a82168b179055601980549b86169b82168c179055601a805496861696821687179055601b805497909516968116871790945560129091527f71a67924699a20698523213e55fe499d539379d7769cd5567e2c45d583f815a3805484169095179094557f1223f9031f9dca49a7844c397098ce9a4e80513444d0a8bb59820dff564808e4805483169098179097557f724fd36bd271795fe7866d4cc83b61084ef704502b00c2e0b28047123b3c1acc805482169092179091557f8e1fee8c88a9e04123b21e90cae2727a7715bf522a1e46eb5934ccd05203a6b2805482169092179091557f0f36ad39aee03e7108cc48f54934702a5f0d4066f10344cebf8198978d86976a805482169092179091557fb4fcd034df3d20faa1c133b66d862ce92732727d40916b48ffb4020cb00fe0538054821690921790915560056000527f45429b9195d4ec5c0cf6c69e9c21a4ca0ea773b702c2de5735f85d2631f26746805490911690911790556200053e9062000b82565b600560c082015260e0810163100b652360e01b8152610306600052601c8060205260c06040600020930151916008831015620008b25783549264ffffffff00948592519160d89560ff938464ffffffffff199687928a1c169316911617179055604051620005ac8162000b82565b6003815260208101634dd8df6360e11b81526103076000528460205260406000209151906008821015620008b257848489855493518a1c169316911617179055604051620005fa8162000b82565b60058152602081016313030a6160e31b81526103056000528460205260406000209151906008821015620008b257848489855493518a1c169316911617179055604051620006488162000b82565b6003815260208101631007cea560e31b81526103046000528460205260406000209151906008821015620008b257848489855493518a1c169316911617179055604051620006968162000b82565b60078152602081016381618d0560e01b81526103096000528460205260406000209151906008821015620008b257848489855493518a1c16931691161717905560405194620006e58662000b82565b600186526020860193630cef3d9360e31b855261030a60005260205260406000209551946008861015620008b25786549451901c1693169116171790553360018060a01b0360005416036200086e576001600160a01b038116156200081a576200074f9062000bd7565b604051615cc7908162000c1f82396080518181816105bc0152818161087f015281816109c801528181610bd401528181611100015281816123c00152818161267e015281816130da015281816144d101528181614e800152615150015260a05181611a2c015260c0518181816152f70152818161541d0152818161568e0152615728015260e05181612a9c015261010051816138a00152610120518161395b0152610140518161386a015261016051816138ef0152610180518161391501526101a051816138cc0152f35b60405162461bcd60e51b815260206004820152602660248201527f4f776e61626c653a206e6577206f776e657220697320746865207a65726f206160448201526564647265737360d01b6064820152608490fd5b606460405162461bcd60e51b815260206004820152602060248201527f4f776e61626c653a2063616c6c6572206973206e6f7420746865206f776e65726044820152fd5b634e487b7160e01b600052602160045260246000fd5b634e487b7160e01b600052604160045260246000fd5b6020813d60201162000922575b81620008fa6020938362000b9e565b810103126200091e57519061ffff821682036200091b575061ffff62000282565b80fd5b5080fd5b3d9150620008eb565b6040513d6000823e3d90fd5b0151905038806200022c565b600c600090815293507fdf6966c971051c3d54ec59162606531493a51404a002842f56009d7e5cf4a8c791905b601f1984168510620009b6576001945083601f198116106200099c575b505050811b01600c5562000242565b015160001960f88460031b161c191690553880806200098d565b8181015183556020948501946001909301929091019062000970565b600c6000529091507fdf6966c971051c3d54ec59162606531493a51404a002842f56009d7e5cf4a8c7601f840160051c81016020851062000a3c575b90849392915b601f830160051c8201811062000a2c57505062000213565b6000815585945060010162000a14565b508062000a0e565b634e487b7160e01b600052602260045260246000fd5b91607f1691620001fd565b015190503880620001c2565b600b600090815293507f0175b7a638427703f0dbe7bb9bbf987a2551717b34e79f33b5b1008d1fa01db991905b601f198416851062000ae4576001945083601f1981161062000aca575b505050811b01600b55620001d8565b015160001960f88460031b161c1916905538808062000abb565b8181015183556020948501946001909301929091019062000a9e565b600b6000529091507f0175b7a638427703f0dbe7bb9bbf987a2551717b34e79f33b5b1008d1fa01db9601f840160051c81016020851062000b6a575b90849392915b601f830160051c8201811062000b5a575050620001a9565b6000815585945060010162000b42565b508062000b3c565b91607f169162000193565b600080fd5b604081019081106001600160401b03821117620008c857604052565b601f909101601f19168101906001600160401b03821190821017620008c857604052565b51906001600160a01b038216820362000b7d57565b600080546001600160a01b039283166001600160a01b03198216811783559216907f8be0079c531659141344cd1fd0a4f28419497f9722a3daafe3b4186f6b6457e09080a356fe6080604052600436101561001b575b361561001957600080fd5b005b60003560e01c80621d3567146104f057806301ffc9a7146104eb57806306fdde03146104e657806307e0db17146104e1578063095ea7b3146104dc5780630df37483146104d757806310ddb137146104d2578063147b6228146104cd57806318160ddd1461044157806323b872dd146104c8578063313ce567146104c35780633644e515146104be578063365260b4146104b957806339509351146104b45780633bdd4a43146104af5780633d8b38f6146104aa5780633f1f4fa4146104a557806340c10f19146104a057806342d65a8d1461049b578063437be6221461049657806344770515146104915780634c42899a146104915780635128e83d1461048c5780635b8c41e6146104875780635c975abb1461048257806366ad5c8a1461047d578063695ef6bf1461047857806370a0823114610473578063715018a61461046e5780637533d7881461046957806376203b4814610464578063796fd43a1461045f5780637ecebe001461045a578063857749b0146104555780638cfd8f5c146104505780638da5cb5b1461044b5780639169d59e146104465780639358928b14610441578063950c8a741461043c578063952168c51461043757806395d89b41146104325780639bdb98121461042d5780639d554eac146104285780639dc29fac146104235780639f38369a1461041e578063a457c2d714610419578063a4c51df514610414578063a6c3d1651461040f578063a9059cbb1461040a578063b02f69a214610405578063b25ea8fb14610400578063b28de4c5146103fb578063b353aaa7146103f6578063ba03a8d7146103f1578063baf3292d146103ec578063c056a8de146103e7578063c4461834146103e2578063cbed8b9c146103dd578063ce8849ed146103d8578063d1deba1f146103d3578063d505accf146103ce578063dbd01de1146103c9578063dd62ed3e146103c4578063de406577146103bf578063df2a5b3b146103ba578063e6a20ae6146103b5578063e78eb946146103b0578063eab45d9c146103ab578063eaffd49a146103a6578063eb8d72b7146103a1578063ec6d062b1461039c578063ed629c5c14610397578063f00c298d14610392578063f2fde38b1461038d578063f5ecbdbc14610388578063f8974de014610383578063fa74f0b51461037e5763fc0c546a0361000e5761320c565b6131bd565b613144565b613070565b612fa9565b612f26565b612f03565b612eb9565b612d6f565b612ce6565b612c88565b612be3565b612bb8565b612acb565b612a86565b612a2c565b612a03565b6128a2565b61273f565b612716565b61262a565b61260d565b6124cd565b612439565b6123ef565b6123aa565b612381565b61230a565b612263565b612219565b612096565b612003565b611f45565b611ea2565b611e36565b611ddc565b611d91565b611ced565b611bca565b611b70565b610a68565b611acb565b611aa2565b611a50565b611a12565b6119d5565b6118ff565b6116e1565b61168a565b611544565b611507565b611424565b61139e565b61137b565b611314565b6111fc565b6111e0565b611167565b6110e6565b611073565b61103a565b610fde565b610f08565b610c52565b610b4e565b610ae2565b610ac6565b610a86565b610a29565b61099f565b610960565b61092b565b610856565b610776565b6106b9565b6105a5565b61ffff81160361050157565b600080fd5b3590610511826104f5565b565b9181601f84011215610501578235916001600160401b038311610501576020838186019501011161050157565b90608060031983011261050157600435610559816104f5565b916001600160401b0390602435828111610501578161057a91600401610513565b9390939260443581811681036105015792606435918211610501576105a191600401610513565b9091565b34610501576105b336610540565b929493919291907f00000000000000000000000000000000000000000000000000000000000000006001600160a01b031633036106745761063961064192610019976106326106186106138a61ffff166000526001602052604060002090565b61166f565b805190818414918261066a575b5081610647575b5061481f565b369161125e565b92369161125e565b9261491f565b905061065436848661125e565b602081519101209060208151910120143861062c565b1515915038610625565b60405162461bcd60e51b815260206004820152601e60248201527f4c7a4170703a20696e76616c696420656e64706f696e742063616c6c657200006044820152606490fd5b346105015760203660031901126105015760043563ffffffff60e01b811680910361050157602090631f7ecdf760e01b81149081156106fe575b506040519015158152f35b6301ffc9a760e01b149050386106f3565b600091031261050157565b60005b83811061072d5750506000910152565b818101518382015260200161071d565b906020916107568151809281855285808601910161071a565b601f01601f1916010190565b90602061077392818152019061073d565b90565b34610501576000806003193601126108535760405181600b546107988161159f565b8084529060019081811690811561082b57506001146107d2575b6107ce846107c281880382610d6d565b60405191829182610762565b0390f35b600b8352602094507f0175b7a638427703f0dbe7bb9bbf987a2551717b34e79f33b5b1008d1fa01db95b82841061081857505050816107ce936107c292820101936107b2565b80548585018701529285019281016107fc565b6107ce96506107c29450602092508593915060ff191682840152151560051b820101936107b2565b80fd5b34610501576000602036600319011261085357600435610875816104f5565b61087d613227565b7f00000000000000000000000000000000000000000000000000000000000000006001600160a01b0316908290823b156108f157602461ffff918360405195869485936307e0db1760e01b85521660048401525af180156108ec576108e0575080f35b6108e990610d1f565b80f35b6137e3565b5080fd5b6001600160a01b0381160361050157565b60043590610511826108f5565b60643590610511826108f5565b3590610511826108f5565b346105015760403660031901126105015761095560043561094b816108f5565b6024359033613479565b602060405160018152f35b346105015760403660031901126105015761ffff600435610980816104f5565b610988613227565b166000526003602052602435604060002055600080f35b346105015760006020366003190112610853576004356109be816104f5565b6109c6613227565b7f00000000000000000000000000000000000000000000000000000000000000006001600160a01b0316908290823b156108f157602461ffff918360405195869485936310ddb13760e01b85521660048401525af180156108ec576108e0575080f35b3461050157602036600319011261050157610a4f60018060a01b03601e541633146139f8565b601d546004358101809111610a6357601d55005b61327f565b34610501576000366003190112610501576020600a54604051908152f35b3461050157606036600319011261050157610955600435610aa6816108f5565b602435610ab2816108f5565b60443591610ac18333836135a4565b613371565b3461050157600036600319011261050157602060405160128152f35b34610501576000366003190112610501576020610afd613867565b604051908152f35b60643590811515820361050157565b60243590811515820361050157565b60a43590811515820361050157565b60043590811515820361050157565b3590811515820361050157565b346105015760a036600319011261050157600435610b6b816104f5565b610b73610b05565b90608435906001600160401b03821161050157610b996106326040933690600401610513565b90610bd0610bb3610bab60443561568c565b60243561575d565b928451958694859463040a7bb160e41b8652309060048701615028565b03817f00000000000000000000000000000000000000000000000000000000000000006001600160a01b03165afa9081156108ec576000908192610c21575b50604080519182526020820192909252f35b9050610c44915060403d8111610c4b575b610c3c8183610d6d565b810190615012565b9038610c0f565b503d610c32565b3461050157604036600319011261050157600435610c6f816108f5565b3360009081526009602090815260408083206001600160a01b03851684529091529020546024358101809111610a63576109559133613479565b60609060c31901126105015760c490565b60609060a31901126105015760a490565b908160609103126105015790565b908160e09103126105015790565b60809060a31901126105015760a490565b608090608319011261050157608490565b634e487b7160e01b600052604160045260246000fd5b6001600160401b038111610d3257604052565b610d09565b60c081019081106001600160401b03821117610d3257604052565b604081019081106001600160401b03821117610d3257604052565b90601f801991011681019081106001600160401b03821117610d3257604052565b604051906101a082018281106001600160401b03821117610d3257604052565b6084359060ff8216820361050157565b359060ff8216820361050157565b81601f82011215610501578035906001600160401b038211610d32576040805193602091610dff838660051b0187610d6d565b84865282860191836101a080970286010194818611610501578401925b858410610e2d575050505050505090565b868483031261050157848791610e41610d8e565b610e4a87610b41565b8152610e57838801610b41565b83820152610e66868801610b41565b868201526060610e77818901610506565b908201526080610e88818901610920565b9082015260a0610e99818901610b41565b9082015260c0610eaa818901610920565b9082015260e0610ebb818901610920565b9082015261010080880135908201526101208088013590820152610140610ee3818901610dbe565b9082015261016080880135908201526101808088013590820152815201930192610e1c565b61016036600319011261050157610f1d610906565b6001600160401b039060643582811161050157610f3e903690600401610ccb565b60843583811161050157610f56903690600401610cd9565b90610f6036610ce7565b6101243585811161050157610f79903690600401610513565b9390926101443596871161050157610f98610019973690600401610dcc565b956044359060243590613bc8565b90604060031983011261050157600435610fbf816104f5565b91602435906001600160401b038211610501576105a191600401610513565b3461050157602061ffff61102b610ff436610fa6565b939091166000526001845261101661101d6040600020604051928380926115d9565b0382610d6d565b84815191012092369161125e565b82815191012014604051908152f35b346105015760203660031901126105015761ffff60043561105a816104f5565b1660005260036020526020604060002054604051908152f35b3461050157604036600319011261050157610019600435611093816108f5565b6110a260ff60115416156145fb565b6110aa6144bc565b600052600f6020526110dd60ff6110d660406000203360018060a01b0316600052602052604060002090565b54166139f8565b60243590614636565b34610501576110f436610fa6565b91906110fe613227565b7f00000000000000000000000000000000000000000000000000000000000000006001600160a01b031691823b1561050157604051928380926342d65a8d60e01b82528161115560009889978894600485016148b0565b03925af180156108ec576108e0575080f35b3461050157602036600319011261050157600435611184816108f5565b6001600160a01b031680156111a957600d80546001600160a01b031916919091179055005b60405162461bcd60e51b815260206004820152600f60248201526e1554d113ce881b9bdd081d985b1a59608a1b6044820152606490fd5b3461050157600036600319011261050157602060405160008152f35b3461050157602036600319011261050157600435611219816108f5565b611221613227565b601e80546001600160a01b0319166001600160a01b0392909216919091179055005b6001600160401b038111610d3257601f01601f191660200190565b92919261126a82611243565b916112786040519384610d6d565b829481845281830111610501578281602093846000960137010152565b6060600319820112610501576004356112ad816104f5565b916024356001600160401b03928382116105015780602383011215610501578160246112de9360040135910161125e565b9160443590811681036105015790565b60209061130892826040519483868095519384920161071a565b82019081520301902090565b3461050157602061137261ffff6113518361132e36611295565b94909116600052600582526040600020826040519483868095519384920161071a565b820190815203019020906001600160401b0316600052602052604060002090565b54604051908152f35b3461050157600036600319011261050157602060ff601154166040519015158152f35b34610501576113ac36610540565b91929493903033036113d0576106396113ca9261001997369161125e565b92614ae7565b60405162461bcd60e51b815260206004820152602660248201527f4e6f6e626c6f636b696e674c7a4170703a2063616c6c6572206d7573742062656044820152650204c7a4170760d41b6064820152608490fd5b60a03660031901126105015760043561143c816108f5565b602435611448816104f5565b604435916084356001600160401b03811161050157602061ffff61147f600080516020615c52833981519152933690600401610ccb565b936114f2853561148e816108f5565b6114ac61063286890135986114a28a6108f5565b6040810190614dfe565b6114b6818a615589565b6114cb6114c4606435615726565b5085615930565b976114d789151561506c565b6114e96114e38a61568c565b8c61575d565b9234938b61510c565b6040519485526001600160a01b0316941692a4005b3461050157602036600319011261050157600435611524816108f5565b60018060a01b031660005260086020526020604060002054604051908152f35b34610501576000806003193601126108535761155e613227565b80546001600160a01b03198116825581906001600160a01b03167f8be0079c531659141344cd1fd0a4f28419497f9722a3daafe3b4186f6b6457e08280a380f35b90600182811c921680156115cf575b60208310146115b957565b634e487b7160e01b600052602260045260246000fd5b91607f16916115ae565b90600092918054916115ea8361159f565b91828252600193848116908160001461164c575060011461160c575b50505050565b90919394506000526020928360002092846000945b838610611638575050505001019038808080611606565b805485870183015294019385908201611621565b9294505050602093945060ff191683830152151560051b01019038808080611606565b9061051161168392604051938480926115d9565b0383610d6d565b346105015760203660031901126105015761ffff6004356116aa816104f5565b1660005260016020526107ce6110166116cd6040600020604051928380926115d9565b60405191829160208352602083019061073d565b60e0366003190112610501576004356116f9816108f5565b602435611705816104f5565b604435916001600160401b03906084358281116105015761172a903690600401610513565b91909260a43591818316918284036105015760c43590811161050157611754903690600401610ccb565b9261178b843595611764876108f5565b6117836117796020880135976114a2896108f5565b999092369161125e565b97369161125e565b9460ff6006541660001461187e57602286511061183957856020956114e96114f2946118078c6117f461ffff9a8b6022600080516020615c528339815191529f0151931660005260028d526117ee60406000206001600052602052604060002090565b546132b1565b906118008215156155de565b101561562a565b61181c611815606435615726565b5088615930565b9a6118288c151561506c565b8d6118328d61568c565b90336157ea565b60405162461bcd60e51b815260206004820152601c60248201527f4c7a4170703a20696e76616c69642061646170746572506172616d73000000006044820152606490fd5b9480949350516118ab57600080516020615c528339815191529460209461ffff946114e96114f294611807565b60405162461bcd60e51b815260206004820152602660248201527f4f4654436f72653a205f61646170746572506172616d73206d7573742062652060448201526532b6b83a3c9760d11b6064820152608490fd5b61010080600319360112610501576024359061191a826108f5565b6001600160401b036044358181116105015761193a903690600401610cd9565b9260643591821161050157610019936119c26119b76119606119d0953690600401610ccb565b6119a561196c36610cf8565b94604051988997633cb7ea1d60e11b60208a015260043560248a015260018060a01b031660448901526064880152610124870190613abf565b85810360231901608487015290613a8b565b9160a4840190613b70565b03601f198101835282610d6d565b6142ed565b34610501576020366003190112610501576004356119f2816108f5565b60018060a01b031660005260136020526020604060002054604051908152f35b3461050157600036600319011261050157602060405160ff7f0000000000000000000000000000000000000000000000000000000000000000168152f35b34610501576040366003190112610501576020611372600435611a72816104f5565b61ffff60243591611a82836104f5565b166000526002835260406000209061ffff16600052602052604060002090565b34610501576000366003190112610501576000546040516001600160a01b039091168152602090f35b3461050157604036600319011261050157600435611ae8816108f5565b7fd7b463fb7e7be5d5389dafa46448b883b320f7c77f63a00c9db0e2865ccdb3d76020611b13610b14565b92611b1c613227565b611b246144bc565b60009081526010835260408082206001600160a01b03841683526020529020611b5b9085905b9060ff801983541691151516179055565b60405193151584526001600160a01b031692a2005b34610501576000366003190112610501576004546040516001600160a01b039091168152602090f35b9181601f84011215610501578235916001600160401b038311610501576020808501946101a0850201011161050157565b60a036600319011261050157600435611be2816104f5565b6001600160401b039060243582811161050157611c03903690600401610513565b909160643584811161050157611c1d903690600401610ccb565b93608435908111610501576100199461ffff94611ce894611cd9611c78611c4b6119c2963690600401611b99565b9490936040519a8b9963952168c560e01b60208c01521660248a015260a060448a015260c4890191613a6a565b60443560648801526060611cc960231996878a85030160848b01528035611c9e816108f5565b6001600160a01b0390811685526020820135611cb9816108f5565b1660208501526040810190613a39565b9190928160408201520191613a6a565b928584030160a4860152613e00565b61445f565b34610501576000806003193601126108535760405181600c54611d0f8161159f565b8084529060019081811690811561082b5750600114611d38576107ce846107c281880382610d6d565b600c8352602094507fdf6966c971051c3d54ec59162606531493a51404a002842f56009d7e5cf4a8c75b828410611d7e57505050816107ce936107c292820101936107b2565b8054858501870152928501928101611d62565b3461050157602060ff611dd061ffff61135184611dad36611295565b94909116600052600782526040600020826040519483868095519384920161071a565b54166040519015158152f35b346105015760008060031936011261085357611df6613227565b601d5480611e02575080f35b30825260086020526040822054818110611e315750805b808203918211610a63576108e991601d553333613371565b611e19565b3461050157604036600319011261050157610019600435611e56816108f5565b611e6560ff60115416156145fb565b611e6d6144bc565b6000526010602052611e9960ff6110d660406000203360018060a01b0316600052602052604060002090565b602435906146de565b346105015760203660031901126105015761ffff600435611ec2816104f5565b166000526001602052611016611ee26040600020604051928380926115d9565b805115611f00576107c281611efa6107ce9351614801565b90615a0a565b60405162461bcd60e51b815260206004820152601d60248201527f4c7a4170703a206e6f20747275737465642070617468207265636f72640000006044820152606490fd5b3461050157604036600319011261050157600435611f62816108f5565b60243590336000526009602052611f8f8160406000209060018060a01b0316600052602052604060002090565b5491808310611fb057611fa492039033613479565b60405160018152602090f35b60405162461bcd60e51b815260206004820152602560248201527f45524332303a2064656372656173656420616c6c6f77616e63652062656c6f77604482015264207a65726f60d81b6064820152608490fd5b346105015760e036600319011261050157600435612020816104f5565b6001600160401b039060643582811161050157612041903690600401610513565b608492919235848116810361050157612058610b23565b9160c43595861161050157612074612084963690600401610513565b9590946044359060243590614e30565b60408051928352602083019190915290f35b34610501576120a436610fa6565b906120ad613227565b604051926020928083858701376120d96034868381013060601b88820152036014810188520186610d6d565b60009361ffff8316855260019081815260408620918751916001600160401b038311610d32576121138361210d865461159f565b866148cb565b80601f84116001146121835750918080926121729695948a9b7f8c0400cfe2d1199b1a725c78960bcc2a344d869b80590d0f2bd005db15a572ce9b94612178575b50501b916000199060031b1c19161790555b604051938493846148b0565b0390a180f35b015192503880612154565b91939498601f19841661219b87600052602060002090565b938a905b828210612202575050917f8c0400cfe2d1199b1a725c78960bcc2a344d869b80590d0f2bd005db15a572ce999a95939185612172989694106121e9575b505050811b019055612166565b015160001960f88460031b161c191690553880806121dc565b80888697829497870151815501960194019061219f565b3461050157604036600319011261050157610955600435612239816108f5565b6024359033613371565b6101e090608319011261050157608490565b908160a09103126105015790565b6102c03660031901126105015760043561227c816108f5565b602435612288816108f5565b60443591612295836104f5565b61229d610913565b926122a736612243565b6001600160401b039461026435868111610501576122c9903690600401611b99565b92909161028435888111610501576122e5903690600401612255565b946102a43598891161050157612302610019993690600401610513565b989097613f8b565b3461050157604036600319011261050157602435612327816108f5565b61232f613227565b60008080808094600435905af16123446139c8565b501561234d5780f35b60405162461bcd60e51b815260206004820152600c60248201526b1554d113ce8819985a5b195960a21b6044820152606490fd5b3461050157600036600319011261050157601e546040516001600160a01b039091168152602090f35b34610501576000366003190112610501576040517f00000000000000000000000000000000000000000000000000000000000000006001600160a01b03168152602090f35b3461050157604036600319011261050157602060ff611dd0602435612413816108f5565b600435600052600f845260406000209060018060a01b0316600052602052604060002090565b34610501576020366003190112610501577f5db758e995a17ec1ad84bdef7e8c3293a0bd6179bcce400dff5d4c3d87db726b6020600435612479816108f5565b612481613227565b600480546001600160a01b0319166001600160a01b03929092169182179055604051908152a1005b60c090600319011261050157600490565b60c0906101231901126105015761012490565b61022080600319360112610501576124e4366124a9565b6124ed36610ca9565b916124f7366124ba565b906001600160401b03906101e4358281116105015761251a903690600401611b99565b909161020493843590811161050157612537903690600401610513565b94909560405198899863602b546f60e11b60208b01528035612558816108f5565b6001600160a01b0390811660248c0152806020830135612577816108f5565b1660448c0152604082013560648c0152606082013560848c0152608082013561259f816108f5565b1660a48b015260a0013560c48a015260e489016125bb91614261565b61014488016125c991614284565b8601526102448501906125db92613e00565b90602319848303016102248501526125f292613a6a565b03601f19810182526126049082610d6d565b610019906143b9565b346105015760003660031901126105015760206040516127108152f35b3461050157608036600319011261050157600435612647816104f5565b602435612653816104f5565b6064356001600160401b03811161050157612672903690600401610513565b909261267c613227565b7f00000000000000000000000000000000000000000000000000000000000000006001600160a01b031690813b1561050157600080946126f3604051978896879586946332fb62e760e21b865261ffff80921660048701521660248501526044356044850152608060648501526084840191613a6a565b03925af180156108ec5761270357005b8061271061001992610d1f565b8061070f565b3461050157600036600319011261050157600e546040516001600160a01b039091168152602090f35b61274836610540565b9161ffff8694929616600052600560205261278f81604060002060206040518092878b833787820190815203019020906001600160401b0316600052602052604060002090565b549182156128515761284084836128397fc264d91f3adc5588250e1551f547752ca0cfa8f6b530d243b9f9f4cab10ea8e59a60006128258461280d8e8a8f61284c9f908f6127f3906127e66128079436908d61125e565b6020815191012014614d71565b61ffff166000526005602052604060002090565b91614d58565b906001600160401b0316600052602052604060002090565b5561283136878d61125e565b93369161125e565b9188614ae7565b60405195869586614dc7565b0390a1005b60405162461bcd60e51b815260206004820152602360248201527f4e6f6e626c6f636b696e674c7a4170703a206e6f2073746f726564206d65737360448201526261676560e81b6064820152608490fd5b346105015760e0366003190112610501576004356128bf816108f5565b6024356128cb816108f5565b60443590606435926128db610dae565b938042116129be576129a66129b9916129806100199761298e6129198760018060a01b03166000526013602052604060002090815491600183019055565b604080517f6e71edae12b1b97f4d1f60370fef10105fa2faae0126114a169c64845d6126c9602082019081526001600160a01b03808c1693830193909352918b166060820152608081018c905260a081019290925260c082019590955292839060e0820190565b03601f198101845283610d6d565b6129a160c4359360a43593519020613981565b613688565b6001600160a01b0383811691161461363c565b613479565b60405162461bcd60e51b815260206004820152601d60248201527f45524332305065726d69743a206578706972656420646561646c696e650000006044820152606490fd5b3461050157600036600319011261050157600d546040516001600160a01b039091168152602090f35b34610501576040366003190112610501576020611372600435612a4e816108f5565b60243590612a5b826108f5565b60018060a01b03166000526009835260406000209060018060a01b0316600052602052604060002090565b34610501576000366003190112610501576040517f00000000000000000000000000000000000000000000000000000000000000006001600160a01b03168152602090f35b3461050157606036600319011261050157600435612ae8816104f5565b602435612af4816104f5565b60443591612b00613227565b8215612b7b5761284c7f9d5c7c0b934da8fefa9c7760c98383778a12dfbfc0c3b3106518f43fb9508ac09361ffff8316600052600260205280612b558560406000209061ffff16600052602052604060002090565b556040519384938460409194939294606082019561ffff80921683521660208201520152565b60405162461bcd60e51b81526020600482015260156024820152744c7a4170703a20696e76616c6964206d696e47617360581b6044820152606490fd5b3461050157600036600319011261050157602060405160018152f35b90816101c09103126105015790565b61014036600319011261050157600435612bfc816108f5565b602435612c08816108f5565b60443591612c15836104f5565b612c1d610913565b6001600160401b03939060843585811161050157612c3f903690600401610513565b90612c4936610cba565b926101043588811161050157612c63903690600401612bd4565b946101243598891161050157612c80610019993690600401611b99565b98909761419e565b34610501576020366003190112610501577f1584ad594a70cbe1e6515592e1272a987d922b097ead875069cebe8b40c004a46020612cc4610b32565b612ccc613227565b151560ff196006541660ff821617600655604051908152a1005b346105015761010036600319011261050157600435612d04816104f5565b6001600160401b039060243582811161050157612d25903690600401610513565b919060443590848216820361050157608435612d40816108f5565b60c43595861161050157612d5b610019963690600401610513565b94909360e4359660a4359460643593614f26565b3461050157612d7d36610fa6565b9190612d87613227565b60009161ffff81168352600160209080825260408520916001600160401b038711610d3257612dc087612dba855461159f565b856148cb565b8590601f8811600114612e275750918680879893612172957ffa41487ad5d6728f0b19276fa1eddc16558578f5109fc39d2dc33c3230470dab9993612e1c575b501b906000198460031b1c1916179055604051938493846148b0565b880135925038612e00565b90601f198816612e3c85600052602060002090565b9288905b828210612ea2575050918893917ffa41487ad5d6728f0b19276fa1eddc16558578f5109fc39d2dc33c3230470dab9899612172969410612e88575b505082811b019055612166565b870135600019600386901b60f8161c191690553880612e7b565b808685968294968c01358155019501930190612e40565b3461050157604036600319011261050157602060ff611dd0602435612edd816108f5565b6004356000526010845260406000209060018060a01b0316600052602052604060002090565b3461050157600036600319011261050157602060ff600654166040519015158152f35b3461050157604036600319011261050157600435612f43816108f5565b7f53b8f1e625ffdc96b26d9f5c6bba4ebc3f54077767495fa2619d32b285e193b96020612f6e610b14565b92612f77613227565b612f7f6144bc565b6000908152600f835260408082206001600160a01b03841683526020529020611b5b908590611b4a565b3461050157602036600319011261050157600435612fc6816108f5565b612fce613227565b6001600160a01b03908116801561301c57600080546001600160a01b03198116831782559092167f8be0079c531659141344cd1fd0a4f28419497f9722a3daafe3b4186f6b6457e08380a380f35b60405162461bcd60e51b815260206004820152602660248201527f4f776e61626c653a206e6577206f776e657220697320746865207a65726f206160448201526564647265737360d01b6064820152608490fd5b346105015760803660031901126105015760043561308d816104f5565b6024359061309a826104f5565b6130a56044356108f5565b604051633d7b2f6f60e21b815261ffff91821660048201529116602482015230604482015260648035908201526000816084817f00000000000000000000000000000000000000000000000000000000000000006001600160a01b03165afa80156108ec576107ce91600091613123575b5060405191829182610762565b61313e913d8091833e6131368183610d6d565b81019061487a565b38613116565b346105015760203660031901126105015761315d610b32565b61317260018060a01b03600e541633146139f8565b60ff601154917f9c13c5f6c628c1c82eb2b3fd8714da5c2857dbd0ad8ab6b2074abcf81015d396604080519284861615158452151592836020820152a160ff19909216911617601155005b34610501576020366003190112610501576004356131da816108f5565b6131e2613227565b6001600160a01b03166131f68115156139f8565b600e80546001600160a01b031916919091179055005b34610501576000366003190112610501576020604051308152f35b6000546001600160a01b0316330361323b57565b606460405162461bcd60e51b815260206004820152602060248201527f4f776e61626c653a2063616c6c6572206973206e6f7420746865206f776e65726044820152fd5b634e487b7160e01b600052601160045260246000fd5b90601f8201809211610a6357565b6051019081605111610a6357565b91908201809211610a6357565b156132c557565b60405162461bcd60e51b815260206004820152602360248201527f45524332303a207472616e7366657220746f20746865207a65726f206164647260448201526265737360e81b6064820152608490fd5b1561331d57565b60405162461bcd60e51b815260206004820152602660248201527f45524332303a207472616e7366657220616d6f756e7420657863656564732062604482015265616c616e636560d01b6064820152608490fd5b916001600160a01b0380841692909183156134265761340b82600080516020615c72833981519152946134219416966133ab8815156132be565b6001600160a01b03811660009081526008602052604090206133f0908590546133d682821015613316565b039160018060a01b03166000526008602052604060002090565b556001600160a01b0316600090815260086020526040902090565b8054820190556040519081529081906020820190565b0390a3565b60405162461bcd60e51b815260206004820152602560248201527f45524332303a207472616e736665722066726f6d20746865207a65726f206164604482015264647265737360d81b6064820152608490fd5b6001600160a01b03808216929190831561355357821693841561350357806134f27f8c5be1e5ebec7d5bd14f71427d1e84f3dd0314c0f7b2291e5b200ac8c7c3b925946134db6134219560018060a01b03166000526009602052604060002090565b9060018060a01b0316600052602052604060002090565b556040519081529081906020820190565b60405162461bcd60e51b815260206004820152602260248201527f45524332303a20617070726f766520746f20746865207a65726f206164647265604482015261737360f01b6064820152608490fd5b60405162461bcd60e51b8152602060048201526024808201527f45524332303a20617070726f76652066726f6d20746865207a65726f206164646044820152637265737360e01b6064820152608490fd5b6001600160a01b0380821660009081526009602090815260408083209386168352929052209091905492600184016135dc5750505050565b8084106135f7576135ee930391613479565b38808080611606565b60405162461bcd60e51b815260206004820152601d60248201527f45524332303a20696e73756666696369656e7420616c6c6f77616e63650000006044820152606490fd5b1561364357565b60405162461bcd60e51b815260206004820152601e60248201527f45524332305065726d69743a20696e76616c6964207369676e617475726500006044820152606490fd5b916107739391613697936137ef565b9190916136c4565b634e487b7160e01b600052602160045260246000fd5b600511156136bf57565b61369f565b6136cd816136b5565b806136d55750565b6136de816136b5565b6001810361372a5760405162461bcd60e51b815260206004820152601860248201527745434453413a20696e76616c6964207369676e617475726560401b6044820152606490fd5b0390fd5b613733816136b5565b600281036137805760405162461bcd60e51b815260206004820152601f60248201527f45434453413a20696e76616c6964207369676e6174757265206c656e677468006044820152606490fd5b8061378c6003926136b5565b1461379357565b60405162461bcd60e51b815260206004820152602260248201527f45434453413a20696e76616c6964207369676e6174757265202773272076616c604482015261756560f01b6064820152608490fd5b6040513d6000823e3d90fd5b9291906fa2a8918ca85bafe22016d0b997e4df60600160ff1b03831161385b5791608094939160ff602094604051948552168484015260408301526060820152600093849182805260015afa156108ec5781516001600160a01b03811615613855579190565b50600190565b50505050600090600390565b307f00000000000000000000000000000000000000000000000000000000000000006001600160a01b03161480613958575b156138c2577f000000000000000000000000000000000000000000000000000000000000000090565b60405160208101907f000000000000000000000000000000000000000000000000000000000000000082527f000000000000000000000000000000000000000000000000000000000000000060408201527f000000000000000000000000000000000000000000000000000000000000000060608201524660808201523060a082015260a0815261395281610d37565b51902090565b507f00000000000000000000000000000000000000000000000000000000000000004614613899565b613989613867565b9060405190602082019261190160f01b84526022830152604282015260428152608081018181106001600160401b03821117610d325760405251902090565b3d156139f3573d906139d982611243565b916139e76040519384610d6d565b82523d6000602084013e565b606090565b156139ff57565b60405162461bcd60e51b81526020600482015260126024820152711554d113ce881d5b985d5d1a1bdc9a5e995960721b6044820152606490fd5b9035601e19823603018112156105015701602081359101916001600160401b03821161050157813603831361050157565b908060209392818452848401376000828201840152601f01601f1916010190565b906060611cc9610773938035613aa0816108f5565b6001600160a01b03168452602081810135908501526040810190613a39565b9061077390823581526020830135613ad6816104f5565b61ffff80911660208301526040840135613aef816104f5565b1660408201526060830135613b03816108f5565b6001600160a01b0316606082015260c080613b53613b38613b276080880188613a39565b60e0608088015260e0870191613a6a565b613b4560a0880188613a39565b9086830360a0880152613a6a565b94013591613b60836108f5565b6001600160a01b03909216910152565b60609081813591613b80836108f5565b6001600160a01b039283168552826020820135613b9c816108f5565b166020860152826040820135613bb1816108f5565b1660408601520135613bc2816108f5565b16910152565b939490929596613c4d929897613c3d613c32613c1f60409a8b519d8e9960209b633bdd4a4360e01b8d8d015260018060a01b031660248c015260448b015260648a0152610184610160998a60848201520190613a8b565b6023198d8203810160a48f015299613abf565b9360c48c0190613b70565b868a8403016101448b0152613a6a565b92868403016101648701528180865194858152019501936000915b848310613c9057505050505050906119d081613c8c9303601f198101835282610d6d565b5050565b909192939495846101a06001928951613cab82825115159052565b808401511515828501528087015115158288015260608181015161ffff16908301526080818101516001600160a01b03169083015260a08181015115159083015260c0818101516001600160a01b03169083015260e0818101516001600160a01b031690830152610100818101519083015261012080820151908301526101408082015160ff169083015280860151828701526101809081015190820152019701959493019190613c68565b35906001600160801b038216820361050157565b60808091613d7881610b41565b151584526020810135613d8a816108f5565b6001600160a01b031660208501526000196001831b0180613dad60408401613d57565b166040860152613dbf60608301613d57565b1660608501520135910152565b60408091613dd981610b41565b151584526020810135613deb816108f5565b6001600160a01b031660208501520135910152565b9190808252602080920192916000905b828210613e1e575050505090565b9091929380613e38600192613e3288610b41565b15159052565b613e4e613e46848801610b41565b151582850152565b613e666040613e5e818901610b41565b151590830152565b613e806060613e76818901610506565b61ffff1690830152565b613e9f6080613e90818901610920565b6001600160a01b031690830152565b613eaf60a0613e5e818901610b41565b613ebf60c0613e90818901610920565b613ecf60e0613e90818901610920565b61010080870135908201526101208087013590820152613eff610140613ef6818901610dbe565b60ff1690830152565b610160868101359082015261018080870135908201526101a0908101950193920190613e10565b9060a0613f7b61077393613f3981610b41565b1515845260208101356020850152613f5360408201610b41565b1515604085015261ffff6060820135613f6b816104f5565b1660608501526080810190613a39565b9190928160808201520191613a6a565b604051635817b4d160e11b60208201526001600160a01b039182166024820152918116604483015261ffff909216606482015291811660848301529096879695949093929091613fda82610b41565b151560a4890152602082013560c4890152604082013560e48901526060820135614003816108f5565b1661010488015261401660808201610920565b6001600160a01b031661012488015261403160a08201610b41565b151561014488015260c0810135610164880152614055610184880160e08301613d6b565b6140689061022488019061018001613dcc565b61028486016102c090526102e486019061408192613e00565b916023199283868203016102a487015261409a91613f26565b91848303016102c48501526140ae92613a6a565b03601f19810182526140c09082610d6d565b613c8c9061440c565b9035609e1982360301811215610501570190565b90610773916140ef82613e3283610b41565b6020810135602083015261411161410860408301610b41565b15156040840152565b6060810135606083015261413361412a60808301610b41565b15156080840152565b60a081013560a083015261414d60c0830160c08301613dcc565b61415e610120808401908301613dcc565b614181610180614170818401846140c9565b906101c08091860152840190613f26565b916141926101a092838101906140c9565b91818403910152613f26565b6040516373c75ca360e11b60208201526001600160a01b039182166024820152918116604483015261ffff9092166064820152918116608483015261014060a48301529096879695909390926141f991610164890191613a6a565b93818135614206816108f5565b1660c488015281602082013561421b816108f5565b1660e48801526040013561422e816108f5565b1661010486015260231992838682030161012487015261424d916140dd565b91848303016101448501526140ae92613e00565b6040809161ffff8135614273816104f5565b1684526020810135613deb816108f5565b60a0809161429181610b41565b1515845260208101356142a3816108f5565b600180841b03809116602086015261ffff60408301356142c2816104f5565b1660408601526060820135606086015260808201356142e0816108f5565b1660808501520135910152565b600260005260126020527f8e1fee8c88a9e04123b21e90cae2727a7715bf522a1e46eb5934ccd05203a6b2546001600160a01b0316801561437b57816000929160208493519201905af4906143406139c8565b90821580614373575b61434f57565b61372661435b83614583565b60405162461bcd60e51b815291829160048301610762565b506001614349565b60405162461bcd60e51b81526020600482015260166024820152751554d113ce881b5bd91d5b19481b9bdd08199bdd5b9960521b6044820152606490fd5b600660005260126020527f1223f9031f9dca49a7844c397098ce9a4e80513444d0a8bb59820dff564808e4546001600160a01b0316801561437b57816000929160208493519201905af4906143406139c8565b600460005260126020527fb4fcd034df3d20faa1c133b66d862ce92732727d40916b48ffb4020cb00fe053546001600160a01b0316801561437b57816000929160208493519201905af4906143406139c8565b600160005260126020527f71a67924699a20698523213e55fe499d539379d7769cd5567e2c45d583f815a3546001600160a01b0316801561437b57816000929160208493519201905af4906143406139c8565b600811156136bf57565b6040516303408e4760e41b81526020816004817f00000000000000000000000000000000000000000000000000000000000000006001600160a01b03165afa80156108ec57600090614512575b61ffff91501690565b6020823d8211614546575b8161452a60209383610d6d565b81010312610853575061ffff9051614541816104f5565b614509565b3d915061451d565b9092919261455b81611243565b916145696040519384610d6d565b82948284528282011161050157602061051193019061071a565b60448151106145d457600481015181019060208160248401930312610501576024810151906001600160401b038211610501570190806043830112156105015760248201516107739260440161454e565b506040516145e181610d52565b600a8152695553444f3a206461746160b01b602082015290565b1561460257565b60405162461bcd60e51b815260206004820152600c60248201526b1554d113ce881c185d5cd95960a21b6044820152606490fd5b6001600160a01b0381169190821561469957600a5490828201809211610a635760009261468a602092600080516020615c7283398151915294600a5560018060a01b03166000526008602052604060002090565b818154019055604051908152a3565b60405162461bcd60e51b815260206004820152601f60248201527f45524332303a206d696e7420746f20746865207a65726f2061646472657373006044820152606490fd5b6001600160a01b0381169081156147b2576001600160a01b0381166000908152600860205260409020548381106147625783600080516020615c728339815191529261474460009661342194039160018060a01b03166000526008602052604060002090565b5561475281600a5403600a55565b6040519081529081906020820190565b60405162461bcd60e51b815260206004820152602260248201527f45524332303a206275726e20616d6f756e7420657863656564732062616c616e604482015261636560f01b6064820152608490fd5b60405162461bcd60e51b815260206004820152602160248201527f45524332303a206275726e2066726f6d20746865207a65726f206164647265736044820152607360f81b6064820152608490fd5b601319810191908211610a6357565b605019810191908211610a6357565b1561482657565b60405162461bcd60e51b815260206004820152602660248201527f4c7a4170703a20696e76616c696420736f757263652073656e64696e6720636f6044820152651b9d1c9858dd60d21b6064820152608490fd5b602081830312610501578051906001600160401b03821161050157019080601f830112156105015781516107739260200161454e565b60409061ffff61077395931681528160208201520191613a6a565b90601f81116148d957505050565b600091825260208220906020601f850160051c83019410614915575b601f0160051c01915b82811061490a57505050565b8181556001016148fe565b90925082906148f5565b9290916149835a604051633356ae4560e11b602082015261ffff87166024820152608060448201529061497d8261298061495c60a483018a61073d565b6001600160401b03881660648401528281036023190160848401528861073d565b30615c06565b939015614992575b5050505050565b61499b946149a5565b388080808061498b565b9193614a427fe183f33de2837795525b4792ca4cd60535bd77c53b7e7030060bfcf5734d6b0c95614a50939561ffff81516020830120961695866000526005602052614a098361135160208b6040600020826040519483868095519384920161071a565b556001600160401b03614a2e604051988998895260a060208a015260a089019061073d565b92166040870152858203606087015261073d565b90838203608085015261073d565b0390a1565b90604051604081018181106001600160401b03821117610d325760405280925460ff81169060088210156136bf5790825260d81b6001600160e01b03191660209190910152565b91610773959361ffff614ad3926001600160401b039460018060a01b0316865216602085015260a0604085015260a084019061073d565b93166060820152608081840391015261073d565b929190614af383615bb9565b614b11614b0a82600052601c602052604060002090565b5460ff1690565b614b1a816144b2565b15614c735793614b3f614b3a61051196600052601c602052604060002090565b614a55565b8051614b4a816144b2565b60208201516001600160e01b03191691805190614b66826144b2565b614b6f826144b2565b600091600503614bbe575050601854614bb990614b9c906001600160a01b03165b6001600160a01b031690565b925b61298088888888604051988996602088015260248701614a9c565b614ce8565b60038151614bcb816144b2565b614bd4816144b2565b03614bfa575050601654614bb990614bf4906001600160a01b0316614b90565b92614b9e565b60078151614c07816144b2565b614c10816144b2565b03614c35575050601a54614bb990614c30906001600160a01b0316614b90565b614bf4565b60019051614c42816144b2565b614c4b816144b2565b03614c6a5750601b54614bb990614c30906001600160a01b0316614b90565b614bb990614bf4565b50614c86614c8084615b5e565b60ff1690565b80614c975750505061051191615281565b600103614ca757610511936153d8565b60405162461bcd60e51b81526020600482015260196024820152785553444f3a20756e6b6e6f776e207061636b6574207479706560381b6044820152606490fd5b949293919460088110156136bf576000908152601260205260409020546001600160a01b0316801561437b57816000929160208493519201905af492614d2c6139c8565b93158080614d50575b614d4457614992575050505050565b61372661435b86614583565b506000614d35565b6020919283604051948593843782019081520301902090565b15614d7857565b60405162461bcd60e51b815260206004820152602160248201527f4e6f6e626c6f636b696e674c7a4170703a20696e76616c6964207061796c6f616044820152601960fa1b6064820152608490fd5b91614df39060609461ffff6001600160401b039499989799168552608060208601526080850191613a6a565b951660408201520152565b903590601e198136030182121561050157018035906001600160401b0382116105015760200191813603831361050157565b949195989790611832614e59604099614e51614e5f97614e7c99369161125e565b94369161125e565b9761568c565b928451968794859463040a7bb160e41b8652309060048701615028565b03817f00000000000000000000000000000000000000000000000000000000000000006001600160a01b03165afa9182156108ec576000908193614ebf57509190565b90506105a191925060403d8111610c4b57610c3c8183610d6d565b93969491614f089061077399979461ffff6001600160401b039416875260c0602088015260c0870191613a6a565b961660408401526060830152608082015260a0818503910152613a6a565b91969792989594939094303303614fcd57614f42908530615956565b60405181815290946001600160a01b03169390849061ffff8516907fbf551ec93859b170f9b2141bd9298bf3f64322c6f7beb2543a0cb669834118bf90602090a3833b15610501576000988995614fb0936040519c8d9b8c9a8b98633fe79aed60e11b8a5260048a01614eda565b0393f180156108ec57614fc05750565b8061271061051192610d1f565b60405162461bcd60e51b815260206004820152601f60248201527f4f4654436f72653a2063616c6c6572206d757374206265204f4654436f7265006044820152606490fd5b9190826040910312610501576020825192015190565b9192610773959361ffff6150579316845260018060a01b0316602084015260a0604084015260a083019061073d565b9215156060820152608081840391015261073d565b1561507357565b60405162461bcd60e51b815260206004820152601960248201527813d19510dbdc994e88185b5bdd5b9d081d1bdbc81cdb585b1b603a1b6044820152606490fd5b926150d961077397959361ffff6150e79416865260c0602087015260c086019061073d565b90848203604086015261073d565b6001600160a01b0391821660608401529316608082015280830360a09091015261073d565b946151359193929561ffff8116600052600160205261513c6040600020604051948580926115d9565b0384610d6d565b8251156151b45761514e855182615212565b7f00000000000000000000000000000000000000000000000000000000000000006001600160a01b031693843b15610501576000966151a391604051998a988997889662c5803160e81b8852600488016150b4565b03925af180156108ec57614fc05750565b60405162461bcd60e51b815260206004820152603060248201527f4c7a4170703a2064657374696e6174696f6e20636861696e206973206e6f742060448201526f61207472757374656420736f7572636560801b6064820152608490fd5b61ffff166000526003602052604060002054908115615277575b1161523357565b606460405162461bcd60e51b815260206004820152602060248201527f4c7a4170703a207061796c6f61642073697a6520697320746f6f206c617267656044820152fd5b612710915061522c565b9060ff61528d82615b5e565b16158061533f575b61529e906157a3565b6152b06152aa82615b0e565b91615ba9565b6001600160a01b039081831615615335575b61ffff7fbf551ec93859b170f9b2141bd9298bf3f64322c6f7beb2543a0cb669834118bf9261531d6020936001600160401b037f00000000000000000000000000000000000000000000000000000000000000009116615713565b946153288682614636565b60405195865216941692a3565b61dead92506152c2565b508051602914615295565b98979692936001600160401b0361537c60e0989461ffff6153a89995168d5260208d61010091829101528d019061073d565b951660408b015260608a01526001600160a01b0316608089015260a088015286820360c088015261073d565b930152565b6001600160401b036153cd6040939695949660608452606084019061073d565b951660208201520152565b90916153e384615857565b909161540d614b0a8761280d6154078b61ffff166000526007602052604060002090565b8c6112ee565b916154436001600160401b0392837f00000000000000000000000000000000000000000000000000000000000000009116615713565b9288888b831561553f575b505050853b156154f45794615495969461497d948a94612980948d996000146154ed5750505a925b5a978b6040519a8b9863757fea4d60e11b60208b015260248a0161534a565b90156154e25750906154dd61ffff928560207fb8890edbfc1c74692f527444645f95489c3703cc2df42e4a366f5d06fa6cd884969751910120906040519485941696846153ad565b0390a2565b9261051194926149a5565b1692615476565b50506040516001600160a01b039094168452507f9aedf5fdba8716db3b6705ca00150643309995d4f818a249ed6dde6677e7792d975091955085945050602084019250614a50915050565b9061280d6155749261556e89615559615581979b30614636565b9961ffff166000526007602052604060002090565b906112ee565b805460ff19166001179055565b88888b61544e565b60065460ff16156155d65760228251106118395761ffff6022610511930151911660005260026020526155c9604060002060008052602052604060002090565b54906118008215156155de565b50516118ab57565b156155e557565b60405162461bcd60e51b815260206004820152601a60248201527f4c7a4170703a206d696e4761734c696d6974206e6f74207365740000000000006044820152606490fd5b1561563157565b60405162461bcd60e51b815260206004820152601b60248201527f4c7a4170703a20676173206c696d697420697320746f6f206c6f7700000000006044820152606490fd5b634e487b7160e01b600052601260045260246000fd5b7f000000000000000000000000000000000000000000000000000000000000000090811561570e57046001600160401b03908181116156c9571690565b60405162461bcd60e51b815260206004820152601a60248201527f4f4654436f72653a20616d6f756e745344206f766572666c6f770000000000006044820152606490fd5b615676565b81810292918115918404141715610a6357565b7f0000000000000000000000000000000000000000000000000000000000000000801561570e57810690818103908111610a635791565b90604051916000602084015260218301526001600160401b0360c01b9060c01b16604182015260298152606081018181106001600160401b03821117610d325760405290565b156157aa57565b60405162461bcd60e51b815260206004820152601860248201527713d19510dbdc994e881a5b9d985b1a59081c185e5b1bd85960421b6044820152606490fd5b939260719261077394604051968794600160f81b602087015260218601526001600160401b0360c01b809360c01b16604186015260018060a01b0316604985015260c01b166069830152615847815180926020868601910161071a565b8101036051810184520182610d6d565b9061586f600160ff61586885615b5e565b16146157a3565b61587882615b0e565b9061588283615ba9565b9060498451106158f35760498401519360518151106158b7576158b46051820151916158ae8151614810565b90615a8a565b91565b60405162461bcd60e51b8152602060048201526014602482015273746f55696e7436345f6f75744f66426f756e647360601b6044820152606490fd5b60405162461bcd60e51b8152602060048201526015602482015274746f427974657333325f6f75744f66426f756e647360581b6044820152606490fd5b6107739082906001600160a01b03811633146146de576159518233836135a4565b6146de565b6107739183916001600160a01b038116308114159081615982575b501561337157610ac18333836135a4565b905033141538615971565b1561599457565b60405162461bcd60e51b815260206004820152600e60248201526d736c6963655f6f766572666c6f7760901b6044820152606490fd5b156159d157565b60405162461bcd60e51b8152602060048201526011602482015270736c6963655f6f75744f66426f756e647360781b6044820152606490fd5b615a1e82615a1781613295565b101561598d565b615a2b82825110156159ca565b81615a43575050604051600081526020810160405290565b60405191601f811691821560051b808486010193838501920101905b808410615a775750508252601f01601f191660405290565b9092835181526020809101930190615a5f565b615a9782615a1781613295565b615aac8151615aa5846132a3565b11156159ca565b81615ac4575050604051600081526020810160405290565b60405191601f8116916051831560051b80858701019484860193010101905b808410615afb5750508252601f01601f191660405290565b9092835181526020809101930190615ae3565b6021815110615b2157602d015160601c90565b60405162461bcd60e51b8152602060048201526015602482015274746f416464726573735f6f75744f66426f756e647360581b6044820152606490fd5b6001815110615b6e576001015190565b60405162461bcd60e51b8152602060048201526013602482015272746f55696e74385f6f75744f66426f756e647360681b6044820152606490fd5b60298151106158b7576029015190565b6020815110615bc9576020015190565b60405162461bcd60e51b8152602060048201526015602482015274746f55696e743235365f6f75744f66426f756e647360581b6044820152606490fd5b9092916000809160405195615c1a87610d37565b6096875282602088019560a036883760208451940192f1903d9060968211615c48575b6000908286523e9190565b60969150615c3d56fed81fc9b8523134ed613870ed029d6170cbb73aa6a6bc311b9a642689fb9df59addf252ad1be2c89b69c2b068fc378daa952ba7f163c4a11628f55a4df523b3efa26469706673582212207f8feeeb8e841d40e147a6be7966cfb580d6048a6df1e487071e5b48e8e2e1a164736f6c634300081200338b73c3c69bb8fe3d512ecc4cf759cc79239f7b179b0ffacaa9a75d522b39400f",
  "linkReferences": {},
  "deployedLinkReferences": {}
}