{
  "_format": "hh-sol-artifact-1",
  "contractName": "USDOGenericModule",
  "sourceName": "contracts/usd0/modules/USDOGenericModule.sol",
  "abi": [
    {
      "inputs": [
        {
          "internalType": "address",
          "name": "_lzEndpoint",
          "type": "address"
        },
        {
          "internalType": "contract IYieldBoxBase",
          "name": "_yieldBox",
          "type": "address"
        },
        {
          "internalType": "contract ICluster",
          "name": "_cluster",
          "type": "address"
        }
      ],
      "stateMutability": "nonpayable",
      "type": "constructor"
    },
    {
      "inputs": [],
      "name": "ActionTypeNotValid",
      "type": "error"
    },
    {
      "inputs": [
        {
          "internalType": "address",
          "name": "invalidAddress",
          "type": "address"
        }
      ],
      "name": "NotAuthorized",
      "type": "error"
    },
    {
      "inputs": [],
      "name": "NotValid",
      "type": "error"
    },
    {
      "inputs": [],
      "name": "SenderNotAuthorized",
      "type": "error"
    },
    {
      "anonymous": false,
      "inputs": [
        {
          "indexed": true,
          "internalType": "address",
          "name": "owner",
          "type": "address"
        },
        {
          "indexed": true,
          "internalType": "address",
          "name": "spender",
          "type": "address"
        },
        {
          "indexed": false,
          "internalType": "uint256",
          "name": "value",
          "type": "uint256"
        }
      ],
      "name": "Approval",
      "type": "event"
    },
    {
      "anonymous": false,
      "inputs": [
        {
          "indexed": true,
          "internalType": "uint16",
          "name": "_srcChainId",
          "type": "uint16"
        },
        {
          "indexed": true,
          "internalType": "bytes",
          "name": "_payload",
          "type": "bytes"
        },
        {
          "indexed": true,
          "internalType": "bytes",
          "name": "_reason",
          "type": "bytes"
        }
      ],
      "name": "CallFailedBytes",
      "type": "event"
    },
    {
      "anonymous": false,
      "inputs": [
        {
          "indexed": true,
          "internalType": "uint16",
          "name": "_srcChainId",
          "type": "uint16"
        },
        {
          "indexed": false,
          "internalType": "bytes",
          "name": "_srcAddress",
          "type": "bytes"
        },
        {
          "indexed": false,
          "internalType": "uint64",
          "name": "_nonce",
          "type": "uint64"
        },
        {
          "indexed": false,
          "internalType": "bytes32",
          "name": "_hash",
          "type": "bytes32"
        }
      ],
      "name": "CallOFTReceivedSuccess",
      "type": "event"
    },
    {
      "anonymous": false,
      "inputs": [
        {
          "indexed": false,
          "internalType": "uint16",
          "name": "_srcChainId",
          "type": "uint16"
        },
        {
          "indexed": false,
          "internalType": "bytes",
          "name": "_srcAddress",
          "type": "bytes"
        },
        {
          "indexed": false,
          "internalType": "uint64",
          "name": "_nonce",
          "type": "uint64"
        },
        {
          "indexed": false,
          "internalType": "bytes",
          "name": "_payload",
          "type": "bytes"
        },
        {
          "indexed": false,
          "internalType": "bytes",
          "name": "_reason",
          "type": "bytes"
        }
      ],
      "name": "MessageFailed",
      "type": "event"
    },
    {
      "anonymous": false,
      "inputs": [
        {
          "indexed": false,
          "internalType": "address",
          "name": "_address",
          "type": "address"
        }
      ],
      "name": "NonContractAddress",
      "type": "event"
    },
    {
      "anonymous": false,
      "inputs": [
        {
          "indexed": true,
          "internalType": "address",
          "name": "previousOwner",
          "type": "address"
        },
        {
          "indexed": true,
          "internalType": "address",
          "name": "newOwner",
          "type": "address"
        }
      ],
      "name": "OwnershipTransferred",
      "type": "event"
    },
    {
      "anonymous": false,
      "inputs": [
        {
          "indexed": false,
          "internalType": "bool",
          "name": "oldState",
          "type": "bool"
        },
        {
          "indexed": false,
          "internalType": "bool",
          "name": "newState",
          "type": "bool"
        }
      ],
      "name": "PausedUpdated",
      "type": "event"
    },
    {
      "anonymous": false,
      "inputs": [
        {
          "indexed": true,
          "internalType": "uint16",
          "name": "_srcChainId",
          "type": "uint16"
        },
        {
          "indexed": true,
          "internalType": "address",
          "name": "_to",
          "type": "address"
        },
        {
          "indexed": false,
          "internalType": "uint256",
          "name": "_amount",
          "type": "uint256"
        }
      ],
      "name": "ReceiveFromChain",
      "type": "event"
    },
    {
      "anonymous": false,
      "inputs": [
        {
          "indexed": false,
          "internalType": "uint16",
          "name": "_srcChainId",
          "type": "uint16"
        },
        {
          "indexed": false,
          "internalType": "bytes",
          "name": "_srcAddress",
          "type": "bytes"
        },
        {
          "indexed": false,
          "internalType": "uint64",
          "name": "_nonce",
          "type": "uint64"
        },
        {
          "indexed": false,
          "internalType": "bytes32",
          "name": "_payloadHash",
          "type": "bytes32"
        }
      ],
      "name": "RetryMessageSuccess",
      "type": "event"
    },
    {
      "anonymous": false,
      "inputs": [
        {
          "indexed": true,
          "internalType": "uint16",
          "name": "_dstChainId",
          "type": "uint16"
        },
        {
          "indexed": true,
          "internalType": "address",
          "name": "_from",
          "type": "address"
        },
        {
          "indexed": true,
          "internalType": "bytes32",
          "name": "_toAddress",
          "type": "bytes32"
        },
        {
          "indexed": false,
          "internalType": "uint256",
          "name": "_amount",
          "type": "uint256"
        }
      ],
      "name": "SendToChain",
      "type": "event"
    },
    {
      "anonymous": false,
      "inputs": [
        {
          "indexed": true,
          "internalType": "address",
          "name": "_for",
          "type": "address"
        },
        {
          "indexed": false,
          "internalType": "bool",
          "name": "_status",
          "type": "bool"
        }
      ],
      "name": "SetBurnerStatus",
      "type": "event"
    },
    {
      "anonymous": false,
      "inputs": [
        {
          "indexed": false,
          "internalType": "uint16",
          "name": "_dstChainId",
          "type": "uint16"
        },
        {
          "indexed": false,
          "internalType": "uint16",
          "name": "_type",
          "type": "uint16"
        },
        {
          "indexed": false,
          "internalType": "uint256",
          "name": "_minDstGas",
          "type": "uint256"
        }
      ],
      "name": "SetMinDstGas",
      "type": "event"
    },
    {
      "anonymous": false,
      "inputs": [
        {
          "indexed": true,
          "internalType": "address",
          "name": "_for",
          "type": "address"
        },
        {
          "indexed": false,
          "internalType": "bool",
          "name": "_status",
          "type": "bool"
        }
      ],
      "name": "SetMinterStatus",
      "type": "event"
    },
    {
      "anonymous": false,
      "inputs": [
        {
          "indexed": false,
          "internalType": "address",
          "name": "precrime",
          "type": "address"
        }
      ],
      "name": "SetPrecrime",
      "type": "event"
    },
    {
      "anonymous": false,
      "inputs": [
        {
          "indexed": false,
          "internalType": "uint16",
          "name": "_remoteChainId",
          "type": "uint16"
        },
        {
          "indexed": false,
          "internalType": "bytes",
          "name": "_path",
          "type": "bytes"
        }
      ],
      "name": "SetTrustedRemote",
      "type": "event"
    },
    {
      "anonymous": false,
      "inputs": [
        {
          "indexed": false,
          "internalType": "uint16",
          "name": "_remoteChainId",
          "type": "uint16"
        },
        {
          "indexed": false,
          "internalType": "bytes",
          "name": "_remoteAddress",
          "type": "bytes"
        }
      ],
      "name": "SetTrustedRemoteAddress",
      "type": "event"
    },
    {
      "anonymous": false,
      "inputs": [
        {
          "indexed": false,
          "internalType": "bool",
          "name": "_useCustomAdapterParams",
          "type": "bool"
        }
      ],
      "name": "SetUseCustomAdapterParams",
      "type": "event"
    },
    {
      "anonymous": false,
      "inputs": [
        {
          "indexed": true,
          "internalType": "address",
          "name": "from",
          "type": "address"
        },
        {
          "indexed": true,
          "internalType": "address",
          "name": "to",
          "type": "address"
        },
        {
          "indexed": false,
          "internalType": "uint256",
          "name": "value",
          "type": "uint256"
        }
      ],
      "name": "Transfer",
      "type": "event"
    },
    {
      "inputs": [],
      "name": "DEFAULT_PAYLOAD_SIZE_LIMIT",
      "outputs": [
        {
          "internalType": "uint256",
          "name": "",
          "type": "uint256"
        }
      ],
      "stateMutability": "view",
      "type": "function"
    },
    {
      "inputs": [],
      "name": "NO_EXTRA_GAS",
      "outputs": [
        {
          "internalType": "uint256",
          "name": "",
          "type": "uint256"
        }
      ],
      "stateMutability": "view",
      "type": "function"
    },
    {
      "inputs": [],
      "name": "PT_SEND",
      "outputs": [
        {
          "internalType": "uint8",
          "name": "",
          "type": "uint8"
        }
      ],
      "stateMutability": "view",
      "type": "function"
    },
    {
      "inputs": [],
      "name": "PT_SEND_AND_CALL",
      "outputs": [
        {
          "internalType": "uint8",
          "name": "",
          "type": "uint8"
        }
      ],
      "stateMutability": "view",
      "type": "function"
    },
    {
      "inputs": [
        {
          "internalType": "address",
          "name": "owner",
          "type": "address"
        },
        {
          "internalType": "address",
          "name": "spender",
          "type": "address"
        }
      ],
      "name": "allowance",
      "outputs": [
        {
          "internalType": "uint256",
          "name": "",
          "type": "uint256"
        }
      ],
      "stateMutability": "view",
      "type": "function"
    },
    {
      "inputs": [
        {
          "internalType": "uint256",
          "name": "",
          "type": "uint256"
        },
        {
          "internalType": "address",
          "name": "",
          "type": "address"
        }
      ],
      "name": "allowedBurner",
      "outputs": [
        {
          "internalType": "bool",
          "name": "",
          "type": "bool"
        }
      ],
      "stateMutability": "view",
      "type": "function"
    },
    {
      "inputs": [
        {
          "internalType": "uint256",
          "name": "",
          "type": "uint256"
        },
        {
          "internalType": "address",
          "name": "",
          "type": "address"
        }
      ],
      "name": "allowedMinter",
      "outputs": [
        {
          "internalType": "bool",
          "name": "",
          "type": "bool"
        }
      ],
      "stateMutability": "view",
      "type": "function"
    },
    {
      "inputs": [
        {
          "internalType": "address",
          "name": "spender",
          "type": "address"
        },
        {
          "internalType": "uint256",
          "name": "amount",
          "type": "uint256"
        }
      ],
      "name": "approve",
      "outputs": [
        {
          "internalType": "bool",
          "name": "",
          "type": "bool"
        }
      ],
      "stateMutability": "nonpayable",
      "type": "function"
    },
    {
      "inputs": [
        {
          "internalType": "address",
          "name": "account",
          "type": "address"
        }
      ],
      "name": "balanceOf",
      "outputs": [
        {
          "internalType": "uint256",
          "name": "",
          "type": "uint256"
        }
      ],
      "stateMutability": "view",
      "type": "function"
    },
    {
      "inputs": [
        {
          "internalType": "uint16",
          "name": "_srcChainId",
          "type": "uint16"
        },
        {
          "internalType": "bytes",
          "name": "_srcAddress",
          "type": "bytes"
        },
        {
          "internalType": "uint64",
          "name": "_nonce",
          "type": "uint64"
        },
        {
          "internalType": "bytes32",
          "name": "_from",
          "type": "bytes32"
        },
        {
          "internalType": "address",
          "name": "_to",
          "type": "address"
        },
        {
          "internalType": "uint256",
          "name": "_amount",
          "type": "uint256"
        },
        {
          "internalType": "bytes",
          "name": "_payload",
          "type": "bytes"
        },
        {
          "internalType": "uint256",
          "name": "_gasForCall",
          "type": "uint256"
        }
      ],
      "name": "callOnOFTReceived",
      "outputs": [],
      "stateMutability": "nonpayable",
      "type": "function"
    },
    {
      "inputs": [],
      "name": "circulatingSupply",
      "outputs": [
        {
          "internalType": "uint256",
          "name": "",
          "type": "uint256"
        }
      ],
      "stateMutability": "view",
      "type": "function"
    },
    {
      "inputs": [],
      "name": "cluster",
      "outputs": [
        {
          "internalType": "contract ICluster",
          "name": "",
          "type": "address"
        }
      ],
      "stateMutability": "view",
      "type": "function"
    },
    {
      "inputs": [],
      "name": "conservator",
      "outputs": [
        {
          "internalType": "address",
          "name": "",
          "type": "address"
        }
      ],
      "stateMutability": "view",
      "type": "function"
    },
    {
      "inputs": [
        {
          "internalType": "uint16",
          "name": "",
          "type": "uint16"
        },
        {
          "internalType": "bytes",
          "name": "",
          "type": "bytes"
        },
        {
          "internalType": "uint64",
          "name": "",
          "type": "uint64"
        }
      ],
      "name": "creditedPackets",
      "outputs": [
        {
          "internalType": "bool",
          "name": "",
          "type": "bool"
        }
      ],
      "stateMutability": "view",
      "type": "function"
    },
    {
      "inputs": [],
      "name": "decimals",
      "outputs": [
        {
          "internalType": "uint8",
          "name": "",
          "type": "uint8"
        }
      ],
      "stateMutability": "view",
      "type": "function"
    },
    {
      "inputs": [
        {
          "internalType": "address",
          "name": "spender",
          "type": "address"
        },
        {
          "internalType": "uint256",
          "name": "subtractedValue",
          "type": "uint256"
        }
      ],
      "name": "decreaseAllowance",
      "outputs": [
        {
          "internalType": "bool",
          "name": "",
          "type": "bool"
        }
      ],
      "stateMutability": "nonpayable",
      "type": "function"
    },
    {
      "inputs": [
        {
          "internalType": "uint16",
          "name": "_dstChainId",
          "type": "uint16"
        },
        {
          "internalType": "bytes32",
          "name": "_toAddress",
          "type": "bytes32"
        },
        {
          "internalType": "uint256",
          "name": "_amount",
          "type": "uint256"
        },
        {
          "internalType": "bytes",
          "name": "_payload",
          "type": "bytes"
        },
        {
          "internalType": "uint64",
          "name": "_dstGasForCall",
          "type": "uint64"
        },
        {
          "internalType": "bool",
          "name": "_useZro",
          "type": "bool"
        },
        {
          "internalType": "bytes",
          "name": "_adapterParams",
          "type": "bytes"
        }
      ],
      "name": "estimateSendAndCallFee",
      "outputs": [
        {
          "internalType": "uint256",
          "name": "nativeFee",
          "type": "uint256"
        },
        {
          "internalType": "uint256",
          "name": "zroFee",
          "type": "uint256"
        }
      ],
      "stateMutability": "view",
      "type": "function"
    },
    {
      "inputs": [
        {
          "internalType": "uint16",
          "name": "_dstChainId",
          "type": "uint16"
        },
        {
          "internalType": "bytes32",
          "name": "_toAddress",
          "type": "bytes32"
        },
        {
          "internalType": "uint256",
          "name": "_amount",
          "type": "uint256"
        },
        {
          "internalType": "bool",
          "name": "_useZro",
          "type": "bool"
        },
        {
          "internalType": "bytes",
          "name": "_adapterParams",
          "type": "bytes"
        }
      ],
      "name": "estimateSendFee",
      "outputs": [
        {
          "internalType": "uint256",
          "name": "nativeFee",
          "type": "uint256"
        },
        {
          "internalType": "uint256",
          "name": "zroFee",
          "type": "uint256"
        }
      ],
      "stateMutability": "view",
      "type": "function"
    },
    {
      "inputs": [
        {
          "internalType": "address",
          "name": "",
          "type": "address"
        },
        {
          "internalType": "uint16",
          "name": "lzSrcChainId",
          "type": "uint16"
        },
        {
          "internalType": "bytes",
          "name": "",
          "type": "bytes"
        },
        {
          "internalType": "uint64",
          "name": "",
          "type": "uint64"
        },
        {
          "internalType": "bytes",
          "name": "_payload",
          "type": "bytes"
        }
      ],
      "name": "executeApproval",
      "outputs": [],
      "stateMutability": "nonpayable",
      "type": "function"
    },
    {
      "inputs": [
        {
          "internalType": "uint16",
          "name": "",
          "type": "uint16"
        },
        {
          "internalType": "bytes",
          "name": "",
          "type": "bytes"
        },
        {
          "internalType": "uint64",
          "name": "",
          "type": "uint64"
        }
      ],
      "name": "failedMessages",
      "outputs": [
        {
          "internalType": "bytes32",
          "name": "",
          "type": "bytes32"
        }
      ],
      "stateMutability": "view",
      "type": "function"
    },
    {
      "inputs": [
        {
          "internalType": "uint16",
          "name": "_srcChainId",
          "type": "uint16"
        },
        {
          "internalType": "bytes",
          "name": "_srcAddress",
          "type": "bytes"
        }
      ],
      "name": "forceResumeReceive",
      "outputs": [],
      "stateMutability": "nonpayable",
      "type": "function"
    },
    {
      "inputs": [
        {
          "internalType": "uint16",
          "name": "_version",
          "type": "uint16"
        },
        {
          "internalType": "uint16",
          "name": "_chainId",
          "type": "uint16"
        },
        {
          "internalType": "address",
          "name": "",
          "type": "address"
        },
        {
          "internalType": "uint256",
          "name": "_configType",
          "type": "uint256"
        }
      ],
      "name": "getConfig",
      "outputs": [
        {
          "internalType": "bytes",
          "name": "",
          "type": "bytes"
        }
      ],
      "stateMutability": "view",
      "type": "function"
    },
    {
      "inputs": [
        {
          "internalType": "uint16",
          "name": "_remoteChainId",
          "type": "uint16"
        }
      ],
      "name": "getTrustedRemoteAddress",
      "outputs": [
        {
          "internalType": "bytes",
          "name": "",
          "type": "bytes"
        }
      ],
      "stateMutability": "view",
      "type": "function"
    },
    {
      "inputs": [
        {
          "internalType": "address",
          "name": "spender",
          "type": "address"
        },
        {
          "internalType": "uint256",
          "name": "addedValue",
          "type": "uint256"
        }
      ],
      "name": "increaseAllowance",
      "outputs": [
        {
          "internalType": "bool",
          "name": "",
          "type": "bool"
        }
      ],
      "stateMutability": "nonpayable",
      "type": "function"
    },
    {
      "inputs": [
        {
          "internalType": "uint16",
          "name": "_srcChainId",
          "type": "uint16"
        },
        {
          "internalType": "bytes",
          "name": "_srcAddress",
          "type": "bytes"
        }
      ],
      "name": "isTrustedRemote",
      "outputs": [
        {
          "internalType": "bool",
          "name": "",
          "type": "bool"
        }
      ],
      "stateMutability": "view",
      "type": "function"
    },
    {
      "inputs": [],
      "name": "lzEndpoint",
      "outputs": [
        {
          "internalType": "contract ILayerZeroEndpoint",
          "name": "",
          "type": "address"
        }
      ],
      "stateMutability": "view",
      "type": "function"
    },
    {
      "inputs": [
        {
          "internalType": "uint16",
          "name": "_srcChainId",
          "type": "uint16"
        },
        {
          "internalType": "bytes",
          "name": "_srcAddress",
          "type": "bytes"
        },
        {
          "internalType": "uint64",
          "name": "_nonce",
          "type": "uint64"
        },
        {
          "internalType": "bytes",
          "name": "_payload",
          "type": "bytes"
        }
      ],
      "name": "lzReceive",
      "outputs": [],
      "stateMutability": "nonpayable",
      "type": "function"
    },
    {
      "inputs": [
        {
          "internalType": "uint16",
          "name": "",
          "type": "uint16"
        },
        {
          "internalType": "uint16",
          "name": "",
          "type": "uint16"
        }
      ],
      "name": "minDstGasLookup",
      "outputs": [
        {
          "internalType": "uint256",
          "name": "",
          "type": "uint256"
        }
      ],
      "stateMutability": "view",
      "type": "function"
    },
    {
      "inputs": [],
      "name": "name",
      "outputs": [
        {
          "internalType": "string",
          "name": "",
          "type": "string"
        }
      ],
      "stateMutability": "view",
      "type": "function"
    },
    {
      "inputs": [
        {
          "internalType": "uint16",
          "name": "_srcChainId",
          "type": "uint16"
        },
        {
          "internalType": "bytes",
          "name": "_srcAddress",
          "type": "bytes"
        },
        {
          "internalType": "uint64",
          "name": "_nonce",
          "type": "uint64"
        },
        {
          "internalType": "bytes",
          "name": "_payload",
          "type": "bytes"
        }
      ],
      "name": "nonblockingLzReceive",
      "outputs": [],
      "stateMutability": "nonpayable",
      "type": "function"
    },
    {
      "inputs": [],
      "name": "owner",
      "outputs": [
        {
          "internalType": "address",
          "name": "",
          "type": "address"
        }
      ],
      "stateMutability": "view",
      "type": "function"
    },
    {
      "inputs": [],
      "name": "paused",
      "outputs": [
        {
          "internalType": "bool",
          "name": "",
          "type": "bool"
        }
      ],
      "stateMutability": "view",
      "type": "function"
    },
    {
      "inputs": [
        {
          "internalType": "uint16",
          "name": "",
          "type": "uint16"
        }
      ],
      "name": "payloadSizeLimitLookup",
      "outputs": [
        {
          "internalType": "uint256",
          "name": "",
          "type": "uint256"
        }
      ],
      "stateMutability": "view",
      "type": "function"
    },
    {
      "inputs": [],
      "name": "precrime",
      "outputs": [
        {
          "internalType": "address",
          "name": "",
          "type": "address"
        }
      ],
      "stateMutability": "view",
      "type": "function"
    },
    {
      "inputs": [],
      "name": "renounceOwnership",
      "outputs": [],
      "stateMutability": "nonpayable",
      "type": "function"
    },
    {
      "inputs": [
        {
          "internalType": "uint16",
          "name": "_srcChainId",
          "type": "uint16"
        },
        {
          "internalType": "bytes",
          "name": "_srcAddress",
          "type": "bytes"
        },
        {
          "internalType": "uint64",
          "name": "_nonce",
          "type": "uint64"
        },
        {
          "internalType": "bytes",
          "name": "_payload",
          "type": "bytes"
        }
      ],
      "name": "retryMessage",
      "outputs": [],
      "stateMutability": "payable",
      "type": "function"
    },
    {
      "inputs": [
        {
          "internalType": "address",
          "name": "_from",
          "type": "address"
        },
        {
          "internalType": "uint16",
          "name": "_dstChainId",
          "type": "uint16"
        },
        {
          "internalType": "bytes32",
          "name": "_toAddress",
          "type": "bytes32"
        },
        {
          "internalType": "uint256",
          "name": "_amount",
          "type": "uint256"
        },
        {
          "internalType": "bytes",
          "name": "_payload",
          "type": "bytes"
        },
        {
          "internalType": "uint64",
          "name": "_dstGasForCall",
          "type": "uint64"
        },
        {
          "components": [
            {
              "internalType": "address payable",
              "name": "refundAddress",
              "type": "address"
            },
            {
              "internalType": "address",
              "name": "zroPaymentAddress",
              "type": "address"
            },
            {
              "internalType": "bytes",
              "name": "adapterParams",
              "type": "bytes"
            }
          ],
          "internalType": "struct ICommonOFT.LzCallParams",
          "name": "_callParams",
          "type": "tuple"
        }
      ],
      "name": "sendAndCall",
      "outputs": [],
      "stateMutability": "payable",
      "type": "function"
    },
    {
      "inputs": [
        {
          "internalType": "address",
          "name": "_from",
          "type": "address"
        },
        {
          "internalType": "uint16",
          "name": "_dstChainId",
          "type": "uint16"
        },
        {
          "internalType": "bytes32",
          "name": "_toAddress",
          "type": "bytes32"
        },
        {
          "internalType": "uint256",
          "name": "_amount",
          "type": "uint256"
        },
        {
          "components": [
            {
              "internalType": "address payable",
              "name": "refundAddress",
              "type": "address"
            },
            {
              "internalType": "address",
              "name": "zroPaymentAddress",
              "type": "address"
            },
            {
              "internalType": "bytes",
              "name": "adapterParams",
              "type": "bytes"
            }
          ],
          "internalType": "struct ICommonOFT.LzCallParams",
          "name": "_callParams",
          "type": "tuple"
        }
      ],
      "name": "sendFrom",
      "outputs": [],
      "stateMutability": "payable",
      "type": "function"
    },
    {
      "inputs": [
        {
          "internalType": "address",
          "name": "",
          "type": "address"
        },
        {
          "internalType": "uint16",
          "name": "",
          "type": "uint16"
        },
        {
          "internalType": "bytes",
          "name": "",
          "type": "bytes"
        },
        {
          "internalType": "uint64",
          "name": "",
          "type": "uint64"
        },
        {
          "internalType": "bytes",
          "name": "_payload",
          "type": "bytes"
        }
      ],
      "name": "sendFromDestination",
      "outputs": [],
      "stateMutability": "nonpayable",
      "type": "function"
    },
    {
      "inputs": [
        {
          "internalType": "uint16",
          "name": "_version",
          "type": "uint16"
        },
        {
          "internalType": "uint16",
          "name": "_chainId",
          "type": "uint16"
        },
        {
          "internalType": "uint256",
          "name": "_configType",
          "type": "uint256"
        },
        {
          "internalType": "bytes",
          "name": "_config",
          "type": "bytes"
        }
      ],
      "name": "setConfig",
      "outputs": [],
      "stateMutability": "nonpayable",
      "type": "function"
    },
    {
      "inputs": [
        {
          "internalType": "uint16",
          "name": "_dstChainId",
          "type": "uint16"
        },
        {
          "internalType": "uint16",
          "name": "_packetType",
          "type": "uint16"
        },
        {
          "internalType": "uint256",
          "name": "_minGas",
          "type": "uint256"
        }
      ],
      "name": "setMinDstGas",
      "outputs": [],
      "stateMutability": "nonpayable",
      "type": "function"
    },
    {
      "inputs": [
        {
          "internalType": "uint16",
          "name": "_dstChainId",
          "type": "uint16"
        },
        {
          "internalType": "uint256",
          "name": "_size",
          "type": "uint256"
        }
      ],
      "name": "setPayloadSizeLimit",
      "outputs": [],
      "stateMutability": "nonpayable",
      "type": "function"
    },
    {
      "inputs": [
        {
          "internalType": "address",
          "name": "_precrime",
          "type": "address"
        }
      ],
      "name": "setPrecrime",
      "outputs": [],
      "stateMutability": "nonpayable",
      "type": "function"
    },
    {
      "inputs": [
        {
          "internalType": "uint16",
          "name": "_version",
          "type": "uint16"
        }
      ],
      "name": "setReceiveVersion",
      "outputs": [],
      "stateMutability": "nonpayable",
      "type": "function"
    },
    {
      "inputs": [
        {
          "internalType": "uint16",
          "name": "_version",
          "type": "uint16"
        }
      ],
      "name": "setSendVersion",
      "outputs": [],
      "stateMutability": "nonpayable",
      "type": "function"
    },
    {
      "inputs": [
        {
          "internalType": "uint16",
          "name": "_srcChainId",
          "type": "uint16"
        },
        {
          "internalType": "bytes",
          "name": "_path",
          "type": "bytes"
        }
      ],
      "name": "setTrustedRemote",
      "outputs": [],
      "stateMutability": "nonpayable",
      "type": "function"
    },
    {
      "inputs": [
        {
          "internalType": "uint16",
          "name": "_remoteChainId",
          "type": "uint16"
        },
        {
          "internalType": "bytes",
          "name": "_remoteAddress",
          "type": "bytes"
        }
      ],
      "name": "setTrustedRemoteAddress",
      "outputs": [],
      "stateMutability": "nonpayable",
      "type": "function"
    },
    {
      "inputs": [
        {
          "internalType": "bool",
          "name": "_useCustomAdapterParams",
          "type": "bool"
        }
      ],
      "name": "setUseCustomAdapterParams",
      "outputs": [],
      "stateMutability": "nonpayable",
      "type": "function"
    },
    {
      "inputs": [],
      "name": "sharedDecimals",
      "outputs": [
        {
          "internalType": "uint8",
          "name": "",
          "type": "uint8"
        }
      ],
      "stateMutability": "view",
      "type": "function"
    },
    {
      "inputs": [
        {
          "internalType": "bytes4",
          "name": "interfaceId",
          "type": "bytes4"
        }
      ],
      "name": "supportsInterface",
      "outputs": [
        {
          "internalType": "bool",
          "name": "",
          "type": "bool"
        }
      ],
      "stateMutability": "view",
      "type": "function"
    },
    {
      "inputs": [],
      "name": "symbol",
      "outputs": [
        {
          "internalType": "string",
          "name": "",
          "type": "string"
        }
      ],
      "stateMutability": "view",
      "type": "function"
    },
    {
      "inputs": [],
      "name": "token",
      "outputs": [
        {
          "internalType": "address",
          "name": "",
          "type": "address"
        }
      ],
      "stateMutability": "view",
      "type": "function"
    },
    {
      "inputs": [],
      "name": "totalSupply",
      "outputs": [
        {
          "internalType": "uint256",
          "name": "",
          "type": "uint256"
        }
      ],
      "stateMutability": "view",
      "type": "function"
    },
    {
      "inputs": [
        {
          "internalType": "address",
          "name": "to",
          "type": "address"
        },
        {
          "internalType": "uint256",
          "name": "amount",
          "type": "uint256"
        }
      ],
      "name": "transfer",
      "outputs": [
        {
          "internalType": "bool",
          "name": "",
          "type": "bool"
        }
      ],
      "stateMutability": "nonpayable",
      "type": "function"
    },
    {
      "inputs": [
        {
          "internalType": "address",
          "name": "from",
          "type": "address"
        },
        {
          "internalType": "address",
          "name": "to",
          "type": "address"
        },
        {
          "internalType": "uint256",
          "name": "amount",
          "type": "uint256"
        }
      ],
      "name": "transferFrom",
      "outputs": [
        {
          "internalType": "bool",
          "name": "",
          "type": "bool"
        }
      ],
      "stateMutability": "nonpayable",
      "type": "function"
    },
    {
      "inputs": [
        {
          "internalType": "address",
          "name": "newOwner",
          "type": "address"
        }
      ],
      "name": "transferOwnership",
      "outputs": [],
      "stateMutability": "nonpayable",
      "type": "function"
    },
    {
      "inputs": [
        {
          "internalType": "uint16",
          "name": "lzDstChainId",
          "type": "uint16"
        },
        {
          "components": [
            {
              "internalType": "address payable",
              "name": "refundAddress",
              "type": "address"
            },
            {
              "internalType": "address",
              "name": "zroPaymentAddress",
              "type": "address"
            },
            {
              "internalType": "bytes",
              "name": "adapterParams",
              "type": "bytes"
            }
          ],
          "internalType": "struct ICommonOFT.LzCallParams",
          "name": "lzCallParams",
          "type": "tuple"
        },
        {
          "components": [
            {
              "internalType": "bool",
              "name": "permitAll",
              "type": "bool"
            },
            {
              "internalType": "bool",
              "name": "allowFailure",
              "type": "bool"
            },
            {
              "internalType": "bool",
              "name": "yieldBoxTypeApproval",
              "type": "bool"
            },
            {
              "internalType": "bool",
              "name": "revokeYieldBox",
              "type": "bool"
            },
            {
              "internalType": "uint16",
              "name": "actionType",
              "type": "uint16"
            },
            {
              "internalType": "address",
              "name": "target",
              "type": "address"
            },
            {
              "internalType": "bool",
              "name": "permitBorrow",
              "type": "bool"
            },
            {
              "internalType": "address",
              "name": "owner",
              "type": "address"
            },
            {
              "internalType": "address",
              "name": "spender",
              "type": "address"
            },
            {
              "internalType": "uint256",
              "name": "value",
              "type": "uint256"
            },
            {
              "internalType": "uint256",
              "name": "deadline",
              "type": "uint256"
            },
            {
              "internalType": "uint8",
              "name": "v",
              "type": "uint8"
            },
            {
              "internalType": "bytes32",
              "name": "r",
              "type": "bytes32"
            },
            {
              "internalType": "bytes32",
              "name": "s",
              "type": "bytes32"
            }
          ],
          "internalType": "struct ICommonData.IApproval[]",
          "name": "approvals",
          "type": "tuple[]"
        }
      ],
      "name": "triggerApproveOrRevoke",
      "outputs": [],
      "stateMutability": "payable",
      "type": "function"
    },
    {
      "inputs": [
        {
          "internalType": "uint16",
          "name": "lzDstChainId",
          "type": "uint16"
        },
        {
          "internalType": "bytes",
          "name": "airdropAdapterParams",
          "type": "bytes"
        },
        {
          "internalType": "uint256",
          "name": "amount",
          "type": "uint256"
        },
        {
          "components": [
            {
              "internalType": "address payable",
              "name": "refundAddress",
              "type": "address"
            },
            {
              "internalType": "address",
              "name": "zroPaymentAddress",
              "type": "address"
            },
            {
              "internalType": "bytes",
              "name": "adapterParams",
              "type": "bytes"
            }
          ],
          "internalType": "struct ICommonOFT.LzCallParams",
          "name": "sendFromData",
          "type": "tuple"
        },
        {
          "components": [
            {
              "internalType": "bool",
              "name": "permitAll",
              "type": "bool"
            },
            {
              "internalType": "bool",
              "name": "allowFailure",
              "type": "bool"
            },
            {
              "internalType": "bool",
              "name": "yieldBoxTypeApproval",
              "type": "bool"
            },
            {
              "internalType": "bool",
              "name": "revokeYieldBox",
              "type": "bool"
            },
            {
              "internalType": "uint16",
              "name": "actionType",
              "type": "uint16"
            },
            {
              "internalType": "address",
              "name": "target",
              "type": "address"
            },
            {
              "internalType": "bool",
              "name": "permitBorrow",
              "type": "bool"
            },
            {
              "internalType": "address",
              "name": "owner",
              "type": "address"
            },
            {
              "internalType": "address",
              "name": "spender",
              "type": "address"
            },
            {
              "internalType": "uint256",
              "name": "value",
              "type": "uint256"
            },
            {
              "internalType": "uint256",
              "name": "deadline",
              "type": "uint256"
            },
            {
              "internalType": "uint8",
              "name": "v",
              "type": "uint8"
            },
            {
              "internalType": "bytes32",
              "name": "r",
              "type": "bytes32"
            },
            {
              "internalType": "bytes32",
              "name": "s",
              "type": "bytes32"
            }
          ],
          "internalType": "struct ICommonData.IApproval[]",
          "name": "approvals",
          "type": "tuple[]"
        },
        {
          "components": [
            {
              "internalType": "bool",
              "name": "permitAll",
              "type": "bool"
            },
            {
              "internalType": "bool",
              "name": "allowFailure",
              "type": "bool"
            },
            {
              "internalType": "bool",
              "name": "yieldBoxTypeApproval",
              "type": "bool"
            },
            {
              "internalType": "bool",
              "name": "revokeYieldBox",
              "type": "bool"
            },
            {
              "internalType": "uint16",
              "name": "actionType",
              "type": "uint16"
            },
            {
              "internalType": "address",
              "name": "target",
              "type": "address"
            },
            {
              "internalType": "bool",
              "name": "permitBorrow",
              "type": "bool"
            },
            {
              "internalType": "address",
              "name": "owner",
              "type": "address"
            },
            {
              "internalType": "address",
              "name": "spender",
              "type": "address"
            },
            {
              "internalType": "uint256",
              "name": "value",
              "type": "uint256"
            },
            {
              "internalType": "uint256",
              "name": "deadline",
              "type": "uint256"
            },
            {
              "internalType": "uint8",
              "name": "v",
              "type": "uint8"
            },
            {
              "internalType": "bytes32",
              "name": "r",
              "type": "bytes32"
            },
            {
              "internalType": "bytes32",
              "name": "s",
              "type": "bytes32"
            }
          ],
          "internalType": "struct ICommonData.IApproval[]",
          "name": "revokes",
          "type": "tuple[]"
        }
      ],
      "name": "triggerSendFrom",
      "outputs": [],
      "stateMutability": "payable",
      "type": "function"
    },
    {
      "inputs": [
        {
          "internalType": "uint16",
          "name": "",
          "type": "uint16"
        }
      ],
      "name": "trustedRemoteLookup",
      "outputs": [
        {
          "internalType": "bytes",
          "name": "",
          "type": "bytes"
        }
      ],
      "stateMutability": "view",
      "type": "function"
    },
    {
      "inputs": [],
      "name": "useCustomAdapterParams",
      "outputs": [
        {
          "internalType": "bool",
          "name": "",
          "type": "bool"
        }
      ],
      "stateMutability": "view",
      "type": "function"
    },
    {
      "inputs": [],
      "name": "yieldBox",
      "outputs": [
        {
          "internalType": "contract IYieldBoxBase",
          "name": "",
          "type": "address"
        }
      ],
      "stateMutability": "view",
      "type": "function"
    },
    {
      "stateMutability": "payable",
      "type": "receive"
    }
  ],
  "bytecode": "0x61010060409080825234620004db57606081620056b88038038091620000268285620004e0565b833981010312620004db5780516001600160a01b039182821691829003620004db57602080820151918483168303620004db5785015193808516809503620004db57620000726200051a565b906200007d6200051a565b60008054336001600160a01b03198083168217845598929493929184167f8be0079c531659141344cd1fd0a4f28419497f9722a3daafe3b4186f6b6457e08680a3608052600860a05283516001600160401b0391828211620003e257600b54916001968784811c94168015620004d0575b89851014620004bc578190601f9485811162000468575b50899085831160011462000402578892620003f6575b5050600019600383901b1c191690871b17600b555b8051928311620003e257600c548681811c91168015620003d7575b88821014620003c35790818389959493116200036b575b508391831160011462000300576004949291869183620002f4575b5050600019600383901b1c191690861b17600c555b6402540be40060c052608051168951928380926303408e4760e41b82525afa908115620002ea579082918993916200029f575b5061ffff1693848252600f815282822033835281528282209460ff199585878254161790558252601081528282209033835252209182541617905560e052600d541617600d555161516c90816200054c82396080518181816104ca0152818161078d015281816108bc01528181610a3601528181610bf701528181611cd101528181611e2b0152818161269f0152818161398f01528181613e22015261423e015260a0518161175f015260c05181818161118601528181614472015281816146f3015281816149e80152614a82015260e051816120e20152f35b80929350858092503d8311620002e2575b620002bc8183620004e0565b81010312620002de575161ffff81168103620002de5787919061ffff620001c5565b5080fd5b503d620002b0565b88513d84823e3d90fd5b0151905038806200017d565b93918691601f19821690600c885285882091885b81811062000352575096836004981062000338575b505050811b01600c5562000192565b015160001960f88460031b161c1916905538808062000329565b8289015184558b978b9690940193928301920162000314565b9091929350600c86528786208380860160051c8201928a8710620003b9575b9189918b97969594930160051c01915b828110620003aa57505062000162565b8881558a96508991016200039a565b925081926200038a565b634e487b7160e01b86526022600452602486fd5b90607f16906200014b565b634e487b7160e01b85526041600452602485fd5b0151905038806200011b565b600b89528a89208a94509190601f1984168a5b8d82821062000451575050841162000437575b505050811b01600b5562000130565b015160001960f88460031b161c1916905538808062000428565b8385015186558d9790950194938401930162000415565b909150600b88528988208580850160051c8201928c8610620004b2575b918b91869594930160051c01915b828110620004a357505062000105565b8a81558594508b910162000493565b9250819262000485565b634e487b7160e01b87526022600452602487fd5b93607f1693620000ee565b600080fd5b601f909101601f19168101906001600160401b038211908210176200050457604052565b634e487b7160e01b600052604160045260246000fd5b60408051919082016001600160401b03811183821017620005045760405260048252635553444f60e01b602083015256fe6080604052600436101561001b575b361561001957600080fd5b005b60003560e01c80621d3567146103e057806301ffc9a7146103db57806306fdde03146103d657806307e0db17146103d1578063095ea7b3146103cc5780630df37483146103c757806310ddb137146103c257806318160ddd1461034f57806323b872dd146103bd578063313ce567146103b8578063365260b4146103b357806339509351146103ae5780633d8b38f6146103a95780633f1f4fa4146103a457806342d65a8d1461039f578063447705151461039a5780634c42899a1461039a5780634fd7e9f61461039557806355ea8c88146103905780635b8c41e61461038b5780635c975abb1461038657806366ad5c8a146103815780636779ec981461037c578063695ef6bf1461037757806370a0823114610372578063715018a61461036d5780637533d7881461036857806376203b4814610363578063857749b01461035e5780638cfd8f5c146103595780638da5cb5b146103545780639358928b1461034f578063950c8a741461034a57806395d89b41146103455780639bdb9812146103405780639f38369a1461033b578063a457c2d714610336578063a4c51df514610331578063a6c3d1651461032c578063a9059cbb14610327578063b353aaa714610322578063ba03a8d71461031d578063baf3292d14610318578063c446183414610313578063cbed8b9c1461030e578063ce8849ed14610309578063d1deba1f14610304578063dbd01de1146102ff578063dd62ed3e146102fa578063de406577146102f5578063df2a5b3b146102f0578063e6a20ae6146102eb578063eab45d9c146102e6578063eaffd49a146102e1578063eb8d72b7146102dc578063ec6d062b146102d7578063ed629c5c146102d2578063ee75f25d146102cd578063f2fde38b146102c8578063f5ecbdbc146102c35763fc0c546a0361000e57612709565b612635565b61256e565b6124bc565b612499565b61244f565b612305565b61227c565b61221a565b6121fe565b612111565b6120cc565b612072565b612049565b611ee6565b611ebd565b611dd7565b611dba565b611d4a565b611d00565b611cbb565b611c91565b611b0e565b611a77565b6119b9565b611916565b6118cb565b611827565b6117fe565b61091d565b6117d5565b611783565b611745565b611527565b6114d0565b61138a565b61134d565b61126a565b611134565b611044565b611021565b610fba565b610dc7565b610cb9565b610c5e565b610bdd565b610ba4565b610b48565b610ab4565b6109ac565b61097b565b61093b565b610893565b610854565b61081f565b610764565b610684565b6105c7565b6104b3565b61ffff8116036103f157565b600080fd5b60043590610403826103e5565b565b3590610403826103e5565b9181601f840112156103f1578235916001600160401b0383116103f157602083818601950101116103f157565b6001600160401b038116036103f157565b9060806003198301126103f157600435610467816103e5565b916001600160401b03906024358281116103f1578161048891600401610410565b939093926044356104988161043d565b926064359182116103f1576104af91600401610410565b9091565b346103f1576104c13661044e565b929493919291907f00000000000000000000000000000000000000000000000000000000000000006001600160a01b031633036105825761054761054f92610019976105406105266105218a61ffff166000526001602052604060002090565b6114b5565b8051908184149182610578575b5081610555575b50613d2b565b3691610efd565b923691610efd565b92614012565b9050610562368486610efd565b602081519101209060208151910120143861053a565b1515915038610533565b60405162461bcd60e51b815260206004820152601e60248201527f4c7a4170703a20696e76616c696420656e64706f696e742063616c6c657200006044820152606490fd5b346103f15760203660031901126103f15760043563ffffffff60e01b81168091036103f157602090631f7ecdf760e01b811490811561060c575b506040519015158152f35b6301ffc9a760e01b14905038610601565b60009103126103f157565b60005b83811061063b5750506000910152565b818101518382015260200161062b565b9060209161066481518092818552858086019101610628565b601f01601f1916010190565b90602061068192818152019061064b565b90565b346103f1576000806003193601126107615760405181600b546106a6816113e5565b8084529060019081811690811561073957506001146106e0575b6106dc846106d081880382610ea1565b60405191829182610670565b0390f35b600b8352602094507f0175b7a638427703f0dbe7bb9bbf987a2551717b34e79f33b5b1008d1fa01db95b82841061072657505050816106dc936106d092820101936106c0565b805485850187015292850192810161070a565b6106dc96506106d09450602092508593915060ff191682840152151560051b820101936106c0565b80fd5b346103f1576000602036600319011261076157600435610783816103e5565b61078b612724565b7f00000000000000000000000000000000000000000000000000000000000000006001600160a01b0316908290823b156107ff57602461ffff918360405195869485936307e0db1760e01b85521660048401525af180156107fa576107ee575080f35b6107f790610e6e565b80f35b612e88565b5080fd5b6001600160a01b038116036103f157565b359061040382610803565b346103f15760403660031901126103f15761084960043561083f81610803565b6024359033612976565b602060405160018152f35b346103f15760403660031901126103f15761ffff600435610874816103e5565b61087c612724565b166000526003602052602435604060002055600080f35b346103f15760006020366003190112610761576004356108b2816103e5565b6108ba612724565b7f00000000000000000000000000000000000000000000000000000000000000006001600160a01b0316908290823b156107ff57602461ffff918360405195869485936310ddb13760e01b85521660048401525af180156107fa576107ee575080f35b346103f15760003660031901126103f1576020600a54604051908152f35b346103f15760603660031901126103f15761084960043561095b81610803565b60243561096781610803565b60443591610976833383612aa1565b61286e565b346103f15760003660031901126103f157602060405160128152f35b801515036103f157565b359061040382610997565b346103f15760a03660031901126103f1576004356109c9816103e5565b606435906109d682610997565b608435906001600160401b0382116103f1576109fb6105406040933690600401610410565b90610a32610a15610a0d6044356149e6565b602435614ab7565b928451958694859463040a7bb160e41b86523090600487016143c7565b03817f00000000000000000000000000000000000000000000000000000000000000006001600160a01b03165afa9081156107fa576000908192610a83575b50604080519182526020820192909252f35b9050610aa6915060403d8111610aad575b610a9e8183610ea1565b8101906143b1565b9038610a71565b503d610a94565b346103f15760403660031901126103f157600435610ad181610803565b3360009081526009602090815260408083206001600160a01b03851684529091529020546024358101809111610b0b576108499133612976565b61277c565b9060406003198301126103f157600435610b29816103e5565b91602435906001600160401b0382116103f1576104af91600401610410565b346103f157602061ffff610b95610b5e36610b10565b9390911660005260018452610b80610b8760406000206040519283809261141f565b0382610ea1565b848151910120923691610efd565b82815191012014604051908152f35b346103f15760203660031901126103f15761ffff600435610bc4816103e5565b1660005260036020526020604060002054604051908152f35b346103f157610beb36610b10565b9190610bf5612724565b7f00000000000000000000000000000000000000000000000000000000000000006001600160a01b031691823b156103f157604051928380926342d65a8d60e01b825281610c4c6000988997889460048501613f85565b03925af180156107fa576107ee575080f35b346103f15760003660031901126103f157602060405160008152f35b908160609103126103f15790565b9181601f840112156103f1578235916001600160401b0383116103f1576020808501946101c085020101116103f157565b60603660031901126103f157600435610cd1816103e5565b6001600160401b036024358181116103f157610cf1903690600401610c7a565b6044359182116103f157610d4b610d8f91610d13610d96943690600401610c88565b610d3d60409492945194859261030b60208501523360408501526060808501526080840191612b4f565b03601f198101845283610ea1565b60408101610d65610d5f6105408385612c86565b8761485f565b610d84610d7183612cb8565b91610d7e60208501612cb8565b93612c86565b949034953691610efd565b9286613dde565b6040519033916000805160206150d783398151915261ffff3393169180610dc281906000602083019252565b0390a4005b60c03660031901126103f157610ddb6103f6565b6001600160401b03906024358281116103f157610dfc903690600401610410565b916064358481116103f157610e15903690600401610c7a565b906084358581116103f157610e2e903690600401610c88565b92909160a4359687116103f157610e4c610019973690600401610c88565b96909560443592613943565b634e487b7160e01b600052604160045260246000fd5b6001600160401b038111610e8157604052565b610e58565b604081019081106001600160401b03821117610e8157604052565b90601f801991011681019081106001600160401b03821117610e8157604052565b604051906101c082018281106001600160401b03821117610e8157604052565b6001600160401b038111610e8157601f01601f191660200190565b929192610f0982610ee2565b91610f176040519384610ea1565b8294818452818301116103f1578281602093846000960137010152565b9080601f830112156103f15781602061068193359101610efd565b9060606003198301126103f157600435610f68816103e5565b91602435906001600160401b0382116103f157610f8791600401610f34565b906044356106818161043d565b602090610fae928260405194838680955193849201610628565b82019081520301902090565b346103f157602061101861ffff610ff783610fd436610f4f565b949091166000526005825260406000208260405194838680955193849201610628565b820190815203019020906001600160401b0316600052602052604060002090565b54604051908152f35b346103f15760003660031901126103f157602060ff601154166040519015158152f35b346103f1576110523661044e565b91929493903033036110765761054761107092610019973691610efd565b9261440b565b60405162461bcd60e51b815260206004820152602660248201527f4e6f6e626c6f636b696e674c7a4170703a2063616c6c6572206d7573742062656044820152650204c7a4170760d41b6064820152608490fd5b60a06003198201126103f1576004356110e281610803565b916024356110ef816103e5565b916001600160401b03916044358381116103f1578261111091600401610f34565b9260643561111d8161043d565b926084359182116103f15761068191600401610f34565b346103f157611142366110ca565b935050505030330361125857611164816020806111ac94518301019101613b0d565b9491979296509460018060a01b0316968051611249575b506001600160401b037f00000000000000000000000000000000000000000000000000000000000000009116614a6d565b90303b156103f15760405163695ef6bf60e01b8152926000928492839182916111db918b8b8160048701613ba5565b0391305af180156107fa57611230575b508051611221575b506000805160206150f783398151915261ffff6040519216918061121c81906000602083019252565b0390a3005b61122a90612f50565b386111f3565b8061123d61124392610e6e565b8061061d565b386111eb565b61125290612f50565b3861117b565b6040516379d1e58f60e01b8152600490fd5b60a03660031901126103f15760043561128281610803565b60243561128e816103e5565b604435916084356001600160401b0381116103f157602061ffff6112c56000805160206150d7833981519152933690600401610c7a565b9361133885356112d481610803565b6112f261054086890135986112e88a610803565b6040810190612c86565b6112fc818a6148b6565b61131161130a606435614a80565b5085614c8a565b9761131d8915156145d6565b61132f6113298a6149e6565b8c614ab7565b9234938b613dde565b6040519485526001600160a01b0316941692a4005b346103f15760203660031901126103f15760043561136a81610803565b60018060a01b031660005260086020526020604060002054604051908152f35b346103f157600080600319360112610761576113a4612724565b80546001600160a01b03198116825581906001600160a01b03167f8be0079c531659141344cd1fd0a4f28419497f9722a3daafe3b4186f6b6457e08280a380f35b90600182811c92168015611415575b60208310146113ff57565b634e487b7160e01b600052602260045260246000fd5b91607f16916113f4565b9060009291805491611430836113e5565b9182825260019384811690816000146114925750600114611452575b50505050565b90919394506000526020928360002092846000945b83861061147e57505050500101903880808061144c565b805485870183015294019385908201611467565b9294505050602093945060ff191683830152151560051b0101903880808061144c565b906104036114c9926040519384809261141f565b0383610ea1565b346103f15760203660031901126103f15761ffff6004356114f0816103e5565b1660005260016020526106dc610b8061151360406000206040519283809261141f565b60405191829160208352602083019061064b565b60e03660031901126103f15760043561153f81610803565b60243561154b816103e5565b604435916001600160401b03906084358281116103f157611570903690600401610410565b91909260a435916115808361043d565b60c4358281116103f157611598903690600401610c7a565b926115cf8435956115a887610803565b6115c76115bd6020880135976112e889610803565b9990923691610efd565b973691610efd565b9460ff600654166000146116c457602286511061167f578560209561132f6113389461164d8c61163a61ffff9a8b60226000805160206150d78339815191529f0151931660005260028d52841661163460406000206001600052602052604060002090565b546127ae565b90611646821515614938565b1015614984565b61166261165b606435614a80565b5088614c8a565b9a61166e8c15156145d6565b8d6116788d6149e6565b9033614b44565b60405162461bcd60e51b815260206004820152601c60248201527f4c7a4170703a20696e76616c69642061646170746572506172616d73000000006044820152606490fd5b9480949350516116f1576000805160206150d78339815191529460209461ffff9461132f6113389461164d565b60405162461bcd60e51b815260206004820152602660248201527f4f4654436f72653a205f61646170746572506172616d73206d7573742062652060448201526532b6b83a3c9760d11b6064820152608490fd5b346103f15760003660031901126103f157602060405160ff7f0000000000000000000000000000000000000000000000000000000000000000168152f35b346103f15760403660031901126103f15760206110186004356117a5816103e5565b61ffff602435916117b5836103e5565b166000526002835260406000209061ffff16600052602052604060002090565b346103f15760003660031901126103f1576000546040516001600160a01b039091168152602090f35b346103f15760003660031901126103f1576004546040516001600160a01b039091168152602090f35b346103f1576000806003193601126107615760405181600c54611849816113e5565b808452906001908181169081156107395750600114611872576106dc846106d081880382610ea1565b600c8352602094507fdf6966c971051c3d54ec59162606531493a51404a002842f56009d7e5cf4a8c75b8284106118b857505050816106dc936106d092820101936106c0565b805485850187015292850192810161189c565b346103f157602060ff61190a61ffff610ff7846118e736610f4f565b949091166000526007825260406000208260405194838680955193849201610628565b54166040519015158152f35b346103f15760203660031901126103f15761ffff600435611936816103e5565b166000526001602052610b8061195660406000206040519283809261141f565b805115611974576106d08161196e6106dc9351613ff4565b90614eca565b60405162461bcd60e51b815260206004820152601d60248201527f4c7a4170703a206e6f20747275737465642070617468207265636f72640000006044820152606490fd5b346103f15760403660031901126103f1576004356119d681610803565b60243590336000526009602052611a038160406000209060018060a01b0316600052602052604060002090565b5491808310611a2457611a1892039033612976565b60405160018152602090f35b60405162461bcd60e51b815260206004820152602560248201527f45524332303a2064656372656173656420616c6c6f77616e63652062656c6f77604482015264207a65726f60d81b6064820152608490fd5b346103f15760e03660031901126103f157600435611a94816103e5565b6001600160401b03906064358281116103f157611ab5903690600401610410565b608492919235611ac48161043d565b60a43591611ad183610997565b60c4359586116103f157611aec611afc963690600401610410565b95909460443590602435906141ee565b60408051928352602083019190915290f35b346103f157611b1c36610b10565b90611b25612724565b60405192602092808385870137611b516034868381013060601b88820152036014810188520186610ea1565b60009361ffff8316855260019081815260408620918751916001600160401b038311610e8157611b8b83611b8586546113e5565b86613fa0565b80601f8411600114611bfb575091808092611bea9695948a9b7f8c0400cfe2d1199b1a725c78960bcc2a344d869b80590d0f2bd005db15a572ce9b94611bf0575b50501b916000199060031b1c19161790555b60405193849384613f85565b0390a180f35b015192503880611bcc565b91939498601f198416611c1387600052602060002090565b938a905b828210611c7a575050917f8c0400cfe2d1199b1a725c78960bcc2a344d869b80590d0f2bd005db15a572ce999a95939185611bea98969410611c61575b505050811b019055611bde565b015160001960f88460031b161c19169055388080611c54565b808886978294978701518155019601940190611c17565b346103f15760403660031901126103f157610849600435611cb181610803565b602435903361286e565b346103f15760003660031901126103f1576040517f00000000000000000000000000000000000000000000000000000000000000006001600160a01b03168152602090f35b346103f15760403660031901126103f157602060ff61190a602435611d2481610803565b600435600052600f845260406000209060018060a01b0316600052602052604060002090565b346103f15760203660031901126103f1577f5db758e995a17ec1ad84bdef7e8c3293a0bd6179bcce400dff5d4c3d87db726b6020600435611d8a81610803565b611d92612724565b600480546001600160a01b0319166001600160a01b03929092169182179055604051908152a1005b346103f15760003660031901126103f15760206040516127108152f35b346103f15760803660031901126103f157600435611df4816103e5565b602435611e00816103e5565b6064356001600160401b0381116103f157611e1f903690600401610410565b9092611e29612724565b7f00000000000000000000000000000000000000000000000000000000000000006001600160a01b031690813b156103f15760008094611ea0604051978896879586946332fb62e760e21b865261ffff80921660048701521660248501526044356044850152608060648501526084840191613848565b03925af180156107fa57611eb057005b8061123d61001992610e6e565b346103f15760003660031901126103f157600e546040516001600160a01b039091168152602090f35b611eef3661044e565b9161ffff86949296166000526005602052611f3681604060002060206040518092878b833787820190815203019020906001600160401b0316600052602052604060002090565b54918215611ff857611fe78483611fe07fc264d91f3adc5588250e1551f547752ca0cfa8f6b530d243b9f9f4cab10ea8e59a6000611fcc84611fb48e8a8f611ff39f908f611f9a90611f8d611fae9436908d610efd565b6020815191012014614161565b61ffff166000526005602052604060002090565b91614148565b906001600160401b0316600052602052604060002090565b55611fd836878d610efd565b933691610efd565b918861440b565b604051958695866141b7565b0390a1005b60405162461bcd60e51b815260206004820152602360248201527f4e6f6e626c6f636b696e674c7a4170703a206e6f2073746f726564206d65737360448201526261676560e81b6064820152608490fd5b346103f15760003660031901126103f157600d546040516001600160a01b039091168152602090f35b346103f15760403660031901126103f157602061101860043561209481610803565b602435906120a182610803565b60018060a01b03166000526009835260406000209060018060a01b0316600052602052604060002090565b346103f15760003660031901126103f1576040517f00000000000000000000000000000000000000000000000000000000000000006001600160a01b03168152602090f35b346103f15760603660031901126103f15760043561212e816103e5565b60243561213a816103e5565b60443591612146612724565b82156121c157611ff37f9d5c7c0b934da8fefa9c7760c98383778a12dfbfc0c3b3106518f43fb9508ac09361ffff831660005260026020528061219b8560406000209061ffff16600052602052604060002090565b556040519384938460409194939294606082019561ffff80921683521660208201520152565b60405162461bcd60e51b81526020600482015260156024820152744c7a4170703a20696e76616c6964206d696e47617360581b6044820152606490fd5b346103f15760003660031901126103f157602060405160018152f35b346103f15760203660031901126103f1577f1584ad594a70cbe1e6515592e1272a987d922b097ead875069cebe8b40c004a4602060043561225a81610997565b612262612724565b151560ff196006541660ff821617600655604051908152a1005b346103f1576101003660031901126103f15760043561229a816103e5565b6001600160401b03906024358281116103f1576122bb903690600401610410565b9190604435906122ca8261043d565b6084356122d681610803565b60c4359586116103f1576122f1610019963690600401610410565b94909360e4359660a43594606435936142e4565b346103f15761231336610b10565b919061231d612724565b60009161ffff81168352600160209080825260408520916001600160401b038711610e81576123568761235085546113e5565b85613fa0565b8590601f88116001146123bd5750918680879893611bea957ffa41487ad5d6728f0b19276fa1eddc16558578f5109fc39d2dc33c3230470dab99936123b2575b501b906000198460031b1c191617905560405193849384613f85565b880135925038612396565b90601f1988166123d285600052602060002090565b9288905b828210612438575050918893917ffa41487ad5d6728f0b19276fa1eddc16558578f5109fc39d2dc33c3230470dab9899611bea96941061241e575b505082811b019055611bde565b870135600019600386901b60f8161c191690553880612411565b808685968294968c013581550195019301906123d6565b346103f15760403660031901126103f157602060ff61190a60243561247381610803565b6004356000526010845260406000209060018060a01b0316600052602052604060002090565b346103f15760003660031901126103f157602060ff600654166040519015158152f35b346103f1576124ca366110ca565b929350505030330361125857805181016060828203126103f1576124f160208301516103e5565b60408201519161250083610803565b6060810151916001600160401b0383116103f157612525926020809201920101612cee565b805161255f575b50604051600081526001600160a01b039091169161ffff16906000805160206150f783398151915290806020810161121c565b61256890613232565b3861252c565b346103f15760203660031901126103f15760043561258b81610803565b612593612724565b6001600160a01b0390811680156125e157600080546001600160a01b03198116831782559092167f8be0079c531659141344cd1fd0a4f28419497f9722a3daafe3b4186f6b6457e08380a380f35b60405162461bcd60e51b815260206004820152602660248201527f4f776e61626c653a206e6577206f776e657220697320746865207a65726f206160448201526564647265737360d01b6064820152608490fd5b346103f15760803660031901126103f157600435612652816103e5565b6024359061265f826103e5565b61266a604435610803565b604051633d7b2f6f60e21b815261ffff91821660048201529116602482015230604482015260648035908201526000816084817f00000000000000000000000000000000000000000000000000000000000000006001600160a01b03165afa80156107fa576106dc916000916126e8575b5060405191829182610670565b612703913d8091833e6126fb8183610ea1565b810190613f60565b386126db565b346103f15760003660031901126103f1576020604051308152f35b6000546001600160a01b0316330361273857565b606460405162461bcd60e51b815260206004820152602060248201527f4f776e61626c653a2063616c6c6572206973206e6f7420746865206f776e65726044820152fd5b634e487b7160e01b600052601160045260246000fd5b90601f8201809211610b0b57565b6051019081605111610b0b57565b91908201809211610b0b57565b156127c257565b60405162461bcd60e51b815260206004820152602360248201527f45524332303a207472616e7366657220746f20746865207a65726f206164647260448201526265737360e81b6064820152608490fd5b1561281a57565b60405162461bcd60e51b815260206004820152602660248201527f45524332303a207472616e7366657220616d6f756e7420657863656564732062604482015265616c616e636560d01b6064820152608490fd5b916001600160a01b03808416929091831561292357612908826000805160206151178339815191529461291e9416966128a88815156127bb565b6001600160a01b03811660009081526008602052604090206128ed908590546128d382821015612813565b039160018060a01b03166000526008602052604060002090565b556001600160a01b0316600090815260086020526040902090565b8054820190556040519081529081906020820190565b0390a3565b60405162461bcd60e51b815260206004820152602560248201527f45524332303a207472616e736665722066726f6d20746865207a65726f206164604482015264647265737360d81b6064820152608490fd5b6001600160a01b038082169291908315612a50578216938415612a0057806129ef7f8c5be1e5ebec7d5bd14f71427d1e84f3dd0314c0f7b2291e5b200ac8c7c3b925946129d861291e9560018060a01b03166000526009602052604060002090565b9060018060a01b0316600052602052604060002090565b556040519081529081906020820190565b60405162461bcd60e51b815260206004820152602260248201527f45524332303a20617070726f766520746f20746865207a65726f206164647265604482015261737360f01b6064820152608490fd5b60405162461bcd60e51b8152602060048201526024808201527f45524332303a20617070726f76652066726f6d20746865207a65726f206164646044820152637265737360e01b6064820152608490fd5b6001600160a01b038082166000908152600960209081526040808320938616835292905220909190549260018401612ad95750505050565b808410612af457612aeb930391612976565b3880808061144c565b60405162461bcd60e51b815260206004820152601d60248201527f45524332303a20696e73756666696369656e7420616c6c6f77616e63650000006044820152606490fd5b60ff8116036103f157565b359061040382612b39565b9190808252602080920192916000905b828210612b6d575050505090565b9091929380612b87600192612b81886109a1565b15159052565b612b9d612b958488016109a1565b151582850152565b612bb56040612bad8189016109a1565b151590830152565b612bc56060612bad8189016109a1565b612bdf6080612bd5818901610405565b61ffff1690830152565b612bfe60a0612bef818901610814565b6001600160a01b031690830152565b612c0e60c0612bad8189016109a1565b612c1e60e0612bef818901610814565b612c2f610100612bef818901610814565b61012080870135908201526101408087013590820152612c5f610160612c56818901612b44565b60ff1690830152565b61018086810135908201526101a080870135908201526101c0908101950193920190612b5f565b903590601e19813603018212156103f157018035906001600160401b0382116103f1576020019181360383136103f157565b3561068181610803565b5190610403826103e5565b519061040382610803565b519061040382610997565b519061040382612b39565b81601f820112156103f1578051906001600160401b038211610e81576040805193602091612d21838660051b0187610ea1565b84865282860191836101c0809702860101948186116103f1578401925b858410612d4f575050505050505090565b86848303126103f157848791612d63610ec2565b612d6c87612cd8565b8152612d79838801612cd8565b83820152612d88868801612cd8565b868201526060612d99818901612cd8565b908201526080612daa818901612cc2565b9082015260a0612dbb818901612ccd565b9082015260c0612dcc818901612cd8565b9082015260e0612ddd818901612ccd565b90820152610100612def818901612ccd565b9082015261012080880151908201526101408088015190820152610160612e17818901612ce3565b9082015261018080880151908201526101a08088015190820152815201930192612d3e565b8051821015612e505760209160051b010190565b634e487b7160e01b600052603260045260246000fd5b9061ffff612e8160209295949560408552604085019061064b565b9416910152565b6040513d6000823e3d90fd5b60009060033d11612ea157565b905060046000803e60005160e01c90565b600060443d1061068157604051600319913d83016004833e81516001600160401b03918282113d602484011117612f0f57818401948551938411612f17573d85010160208487010111612f0f575061068192910160200190610ea1565b949350505050565b50949350505050565b3d15612f4b573d90612f3182610ee2565b91612f3f6040519384610ea1565b82523d6000602084013e565b606090565b9060005b825181101561322d576040612f7581612f6d8487612e3c565b510151151590565b15612fc3575080612f8d6060612f6d60019487612e3c565b15612fab57612fa5612f9f8286612e3c565b51613535565b01612f54565b612fbe612fb88286612e3c565b51613713565b612fa5565b608061030a61ffff612fe383612fd9878a612e3c565b51015161ffff1690565b160361321c57612ff860c0612f6d8588612e3c565b61301660e06130078689612e3c565b5101516001600160a01b031690565b916130e861302a610100613007888b612e3c565b936130da61012061303b898c612e3c565b5101518a61014061304c8b83612e3c565b51015161306861016061305f8d85612e3c565b51015160ff1690565b906101a06130868d61018061307d8288612e3c565b51015195612e3c565b510151938b519a8b9760209b8c8a0194909897969360e0969260ff9461010088019b1515885260018060a01b038092166020890152166040870152606086015260808501521660a083015260c08201520152565b03601f198101855284610ea1565b61311761310c61310061310060a06130078a8d612e3c565b6001600160a01b031690565b91612fd9878a612e3c565b90803b156103f1576131456000929183928751948580948193631221baf960e31b835260049a8b8401612e66565b03925af19081613209575b5061316f57600161315f612e94565b6308c379a0146131c1575b61317a575b505050600190612fa5565b613197613193613188612f20565b92612f6d878a612e3c565b1590565b1561316f576131a86131bd91613409565b925162461bcd60e51b81529283928301610670565b0390fd5b6131c9612eb2565b806131d5575b5061316a565b600091506131ea61319384612f6d898c612e3c565b156131cf57845162461bcd60e51b81529081906131bd90828701610670565b8061123d61321692610e6e565b38613150565b8151639f62049960e01b8152600490fd5b509050565b9060005b825181101561322d57604061324f81612f6d8487612e3c565b156132915750806132676060612f6d60019487612e3c565b1561327f57613279612f9f8286612e3c565b01613236565b61328c612fb88286612e3c565b613279565b608061030b61ffff6132a783612fd9878a612e3c565b160361321c576132bc60c0612f6d8588612e3c565b6132cb60e06130078689612e3c565b916132df61302a610100613007888b612e3c565b6132f761310c61310061310060a06130078a8d612e3c565b90803b156103f1576133256000929183928751948580948193631221baf960e31b835260049a8b8401612e66565b03925af190816133c1575b5061334f57600161333f612e94565b6308c379a014613379575b61335a575b505050600190613279565b613368613193613188612f20565b1561334f576131a86131bd91613409565b613381612eb2565b8061338d575b5061334a565b600091506133a261319384612f6d898c612e3c565b1561338757845162461bcd60e51b81529081906131bd90828701610670565b8061123d6133ce92610e6e565b38613330565b909291926133e181610ee2565b916133ef6040519384610ea1565b8294828452828201116103f1576020610403930190610628565b6103e881511161348b576044815110613464576004810151810190602081602484019303126103f1576024810151906001600160401b0382116103f1570190806043830112156103f1576024820151610681926044016133d4565b5060405161347181610e86565b600a8152695553444f3a206461746160b01b602082015290565b5060405161349881610e86565b60158152745553444f3a20726561736f6e20746f6f206c6f6e6760581b602082015290565b9360ff929897969360c0969260e087019a60018060a01b0380921688521660208701526040860152606085015216608083015260a08201520152565b6001600160a01b03918216815291166020820152604081019190915260ff9091166060820152608081019190915260a081019190915260c00190565b8051156136835760a081015161355590613100906001600160a01b031681565b60e08201516001600160a01b03166101008301516001600160a01b0316916101408401519061358961016086015160ff1690565b93610180860151936101a087015190833b156103f1576135c5600096928793604051998a98899788966365e2b81f60e01b8852600488016134f9565b03925af19081613670575b506135ef5760016135df612e94565b6308c379a014613633575b6135f2575b50565b61360a6131936020613602612f20565b930151151590565b156135ef5761361b6131bd91613409565b60405162461bcd60e51b815291829160048301610670565b61363b612eb2565b80613647575b506135ea565b6020830151600092506136415760405162461bcd60e51b81529081906131bd9060048301610670565b8061123d61367d92610e6e565b386135d0565b60a081015161369c90613100906001600160a01b031681565b60e08201516001600160a01b03166101008301516001600160a01b03169161012084015190610140850151936136d761016087015160ff1690565b93610180870151906101a088015195843b156103f15760009687936135c5926040519a8b998a9889976372dcad7b60e01b8952600489016134bd565b8051156137a35760a081015161373390613100906001600160a01b031681565b60e08201516001600160a01b03166101008301516001600160a01b0316916101408401519061376761016086015160ff1690565b93610180860151936101a087015190833b156103f1576135c5600096928793604051998a988997889663aba0784760e01b8852600488016134f9565b60a08101516137bc90613100906001600160a01b031681565b60e08201516001600160a01b03166101008301516001600160a01b03169161012084015190610140850151936137f761016087015160ff1690565b93610180870151906101a088015195843b156103f15760009687936135c5926040519a8b998a98899763d505accf60e01b8952600489016134bd565b908160209103126103f15751610681816103e5565b908060209392818452848401376000828201840152601f01601f1916010190565b999897939195929096949661030a8b5260018060a01b0380911660208c01526001600160401b0380971660408c01526101008060608d01528183356138ad81610803565b16908c015260208201356138c081610803565b166101208b01526040810135601e19823603018112156103f15701916020833593019583116103f15782360386136103f15760e09661392361391661393e98613930966101608f60606101408201520191613848565b61ffff90941660808d0152565b8a830360a08c0152612b4f565b9187830360c0890152612b4f565b930152565b97969195969492909394613976613970613966613961368b8a610efd565b613c78565b5095915050614a80565b506149e6565b6040516303408e4760e41b8152909290916020836004817f00000000000000000000000000000000000000000000000000000000000000006001600160a01b03165afa9485156107fa57613a1d9a89976139e7976130da96600091613a4e575b506040519b8c983360208b01613869565b6139fb6139f5368685610efd565b876148f6565b610d8f613a136020613a0c84612cb8565b9301612cb8565b9234953691610efd565b6040519033916000805160206150d783398151915261ffff3393169180613a4981906000602083019252565b0390a4565b613a6f915060203d8111613a75575b613a678183610ea1565b810190613833565b386139d6565b503d613a5d565b51906104038261043d565b9080601f830112156103f1578151610681926020016133d4565b9190916060818403126103f157604051906001600160401b03906060830182811184821017610e815760405282948151613ada81610803565b84526020820151613aea81610803565b602085015260408201519283116103f157604092613b089201613a87565b910152565b610100818303126103f157613b2181612cc2565b92613b2e60208301612ccd565b92613b3b60408401613a7c565b926060810151906001600160401b03918281116103f15783613b5e918301613aa1565b93613b6b60808301612cc2565b9360a08301518481116103f15781613b84918501612cee565b9360c08401519081116103f15760e091613b9f918501612cee565b92015190565b939061068195916101009461ffff60409560018060a01b03809516895216602088015284870152606086015260a060808601528082511660a086015260208201511660c0850152015191606060e0820152019061064b565b15613c0457565b60405162461bcd60e51b8152602060048201526012602482015271556e737570706f727465642074785479706560701b6044820152606490fd5b15613c4557565b60405162461bcd60e51b815260206004820152600b60248201526a47617320746f6f206c6f7760a81b6044820152606490fd5b600080825160228114908115613d20575b5015613ce357600283015193602284015193600261ffff8716600181148015613cda575b613cb690613bfd565b613cc1871515613c3e565b14613cc95750565b925090506056604283015192015190565b50808214613cad565b60405162461bcd60e51b8152602060048201526015602482015274496e76616c69642061646170746572506172616d7360581b6044820152606490fd5b604291501138613c89565b15613d3257565b60405162461bcd60e51b815260206004820152602660248201527f4c7a4170703a20696e76616c696420736f757263652073656e64696e6720636f6044820152651b9d1c9858dd60d21b6064820152608490fd5b92613dab61068197959361ffff613db99416865260c0602087015260c086019061064b565b90848203604086015261064b565b6001600160a01b0391821660608401529316608082015280830360a09091015261064b565b94613e079193929561ffff81166000526001602052613e0e60406000206040519485809261141f565b0384610ea1565b825115613e9357613e20855182613ef1565b7f00000000000000000000000000000000000000000000000000000000000000006001600160a01b031693843b156103f157600096613e7591604051998a988997889662c5803160e81b885260048801613d86565b03925af180156107fa57613e865750565b8061123d61040392610e6e565b60405162461bcd60e51b815260206004820152603060248201527f4c7a4170703a2064657374696e6174696f6e20636861696e206973206e6f742060448201526f61207472757374656420736f7572636560801b6064820152608490fd5b61ffff166000526003602052604060002054908115613f56575b11613f1257565b606460405162461bcd60e51b815260206004820152602060248201527f4c7a4170703a207061796c6f61642073697a6520697320746f6f206c617267656044820152fd5b6127109150613f0b565b906020828203126103f15781516001600160401b0381116103f1576106819201613a87565b60409061ffff61068195931681528160208201520191613848565b90601f8111613fae57505050565b600091825260208220906020601f850160051c83019410613fea575b601f0160051c01915b828110613fdf57505050565b818155600101613fd3565b9092508290613fca565b601319810191908211610b0b57565b605019810191908211610b0b57565b9290916140765a604051633356ae4560e11b602082015261ffff87166024820152608060448201529061407082610d3d61404f60a483018a61064b565b6001600160401b03881660648401528281036023190160848401528861064b565b30615079565b939015614085575b5050505050565b61408e94614098565b388080808061407e565b91936141357fe183f33de2837795525b4792ca4cd60535bd77c53b7e7030060bfcf5734d6b0c95614143939561ffff815160208301209616958660005260056020526140fc83610ff760208b60406000208260405194838680955193849201610628565b556001600160401b03614121604051988998895260a060208a015260a089019061064b565b92166040870152858203606087015261064b565b90838203608085015261064b565b0390a1565b6020919283604051948593843782019081520301902090565b1561416857565b60405162461bcd60e51b815260206004820152602160248201527f4e6f6e626c6f636b696e674c7a4170703a20696e76616c6964207061796c6f616044820152601960fa1b6064820152608490fd5b916141e39060609461ffff6001600160401b039499989799168552608060208601526080850191613848565b951660408201520152565b94919598979061167861421760409961420f61421d9761423a993691610efd565b943691610efd565b976149e6565b928451968794859463040a7bb160e41b86523090600487016143c7565b03817f00000000000000000000000000000000000000000000000000000000000000006001600160a01b03165afa9182156107fa57600090819361427d57509190565b90506104af91925060403d8111610aad57610a9e8183610ea1565b939694916142c69061068199979461ffff6001600160401b039416875260c0602088015260c0870191613848565b961660408401526060830152608082015260a0818503910152613848565b9196979298959493909430330361436c57614300908530614e16565b60405181815290946001600160a01b03169390849061ffff8516906000805160206150f783398151915290602090a3833b156103f157600098899561435c936040519c8d9b8c9a8b98633fe79aed60e11b8a5260048a01614298565b0393f180156107fa57613e865750565b60405162461bcd60e51b815260206004820152601f60248201527f4f4654436f72653a2063616c6c6572206d757374206265204f4654436f7265006044820152606490fd5b91908260409103126103f1576020825192015190565b9192610681959361ffff6143f69316845260018060a01b0316602084015260a0604084015260a083019061064b565b9215156060820152608081840391015261064b565b92919060ff6144198461501e565b16806145815750505060ff61442d8261501e565b161580614576575b61443e90614afd565b61445061444a82614fce565b91615069565b90916001600160a01b03918284161561456c575b614498906001600160401b037f00000000000000000000000000000000000000000000000000000000000000009116614a6d565b918316928315614527576000805160206150f7833981519152916144e761ffff926144cd6144c887600a546127ae565b600a55565b6001600160a01b0316600090815260086020526040902090565b8481540190558460006000805160206151178339815191526040518061451289829190602083019252565b0390a36040519384521691806020810161291e565b60405162461bcd60e51b815260206004820152601f60248201527f45524332303a206d696e7420746f20746865207a65726f2061646472657373006044820152606490fd5b61dead9350614464565b508051602914614435565b60010361459157610403936146a7565b60405162461bcd60e51b815260206004820152601c60248201527f4f4654436f72653a20756e6b6e6f776e207061636b65742074797065000000006044820152606490fd5b156145dd57565b60405162461bcd60e51b815260206004820152601960248201527813d19510dbdc994e88185b5bdd5b9d081d1bdbc81cdb585b1b603a1b6044820152606490fd5b98979692936001600160401b0361465060e0989461ffff61393e9995168d5260208d61010091829101528d019061064b565b951660408b015260608a01526001600160a01b0316608089015260a088015286820360c088015261064b565b6001600160401b0361469c6040939695949660608452606084019061064b565b951660208201520152565b90916146b284614bb1565b90916146e36146dc87611fb46146d68b61ffff166000526007602052604060002090565b8c610f94565b5460ff1690565b916147196001600160401b0392837f00000000000000000000000000000000000000000000000000000000000000009116614a6d565b9288888b8315614815575b505050853b156147ca579461476b9694614070948a94610d3d948d996000146147c35750505a925b5a978b6040519a8b9863757fea4d60e11b60208b015260248a0161461e565b90156147b85750906147b361ffff928560207fb8890edbfc1c74692f527444645f95489c3703cc2df42e4a366f5d06fa6cd8849697519101209060405194859416968461467c565b0390a2565b926104039492614098565b169261474c565b50506040516001600160a01b039094168452507f9aedf5fdba8716db3b6705ca00150643309995d4f818a249ed6dde6677e7792d975091955085945050602084019250614143915050565b90611fb461484a926148448961482f614857979b30614db3565b9961ffff166000526007602052604060002090565b90610f94565b805460ff19166001179055565b88888b614724565b60065460ff16156148ae57602282511061167f5761ffff6022610403930151911660005260026020526148a1604060002061030b600052602052604060002090565b5490611646821515614938565b50516116f157565b60065460ff16156148ae57602282511061167f5761ffff6022610403930151911660005260026020526148a1604060002060008052602052604060002090565b60065460ff16156148ae57602282511061167f5761ffff6022610403930151911660005260026020526148a1604060002061030a600052602052604060002090565b1561493f57565b60405162461bcd60e51b815260206004820152601a60248201527f4c7a4170703a206d696e4761734c696d6974206e6f74207365740000000000006044820152606490fd5b1561498b57565b60405162461bcd60e51b815260206004820152601b60248201527f4c7a4170703a20676173206c696d697420697320746f6f206c6f7700000000006044820152606490fd5b634e487b7160e01b600052601260045260246000fd5b7f0000000000000000000000000000000000000000000000000000000000000000908115614a6857046001600160401b0390818111614a23571690565b60405162461bcd60e51b815260206004820152601a60248201527f4f4654436f72653a20616d6f756e745344206f766572666c6f770000000000006044820152606490fd5b6149d0565b81810292918115918404141715610b0b57565b7f00000000000000000000000000000000000000000000000000000000000000008015614a6857810690818103908111610b0b5791565b90604051916000602084015260218301526001600160401b0360c01b9060c01b16604182015260298152606081018181106001600160401b03821117610e815760405290565b15614b0457565b60405162461bcd60e51b815260206004820152601860248201527713d19510dbdc994e881a5b9d985b1a59081c185e5b1bd85960421b6044820152606490fd5b939260719261068194604051968794600160f81b602087015260218601526001600160401b0360c01b809360c01b16604186015260018060a01b0316604985015260c01b166069830152614ba18151809260208686019101610628565b8101036051810184520182610ea1565b90614bc9600160ff614bc28561501e565b1614614afd565b614bd282614fce565b90614bdc83615069565b906049845110614c4d576049840151936051815110614c1157614c0e605182015191614c088151614003565b90614f4a565b91565b60405162461bcd60e51b8152602060048201526014602482015273746f55696e7436345f6f75744f66426f756e647360601b6044820152606490fd5b60405162461bcd60e51b8152602060048201526015602482015274746f427974657333325f6f75744f66426f756e647360581b6044820152606490fd5b6001600160a01b038116338103614d4c575b8015614cfd5781614cd284614cc560009560018060a01b03166000526008602052604060002090565b546128d382821015614d5c565b55614ce083600a5403600a55565b60405183815260008051602061511783398151915290602090a390565b60405162461bcd60e51b815260206004820152602160248201527f45524332303a206275726e2066726f6d20746865207a65726f206164647265736044820152607360f81b6064820152608490fd5b614d57833384612aa1565b614c9c565b15614d6357565b60405162461bcd60e51b815260206004820152602260248201527f45524332303a206275726e20616d6f756e7420657863656564732062616c616e604482015261636560f01b6064820152608490fd5b6001600160a01b0381169190821561452757600a5490828201809211610b0b57600092614e0760209260008051602061511783398151915294600a5560018060a01b03166000526008602052604060002090565b818154019055604051908152a3565b6106819183916001600160a01b038116308114159081614e42575b501561286e57610976833383612aa1565b905033141538614e31565b15614e5457565b60405162461bcd60e51b815260206004820152600e60248201526d736c6963655f6f766572666c6f7760901b6044820152606490fd5b15614e9157565b60405162461bcd60e51b8152602060048201526011602482015270736c6963655f6f75744f66426f756e647360781b6044820152606490fd5b614ede82614ed781612792565b1015614e4d565b614eeb8282511015614e8a565b81614f03575050604051600081526020810160405290565b60405191601f811691821560051b808486010193838501920101905b808410614f375750508252601f01601f191660405290565b9092835181526020809101930190614f1f565b614f5782614ed781612792565b614f6c8151614f65846127a0565b1115614e8a565b81614f84575050604051600081526020810160405290565b60405191601f8116916051831560051b80858701019484860193010101905b808410614fbb5750508252601f01601f191660405290565b9092835181526020809101930190614fa3565b6021815110614fe157602d015160601c90565b60405162461bcd60e51b8152602060048201526015602482015274746f416464726573735f6f75744f66426f756e647360581b6044820152606490fd5b600181511061502e576001015190565b60405162461bcd60e51b8152602060048201526013602482015272746f55696e74385f6f75744f66426f756e647360681b6044820152606490fd5b6029815110614c11576029015190565b6040519392909160009160c08601916001600160401b03831187841017610e815783926040526096875282602088019560a036883760208451940192f1903d90609682116150cd575b6000908286523e9190565b609691506150c256fed81fc9b8523134ed613870ed029d6170cbb73aa6a6bc311b9a642689fb9df59abf551ec93859b170f9b2141bd9298bf3f64322c6f7beb2543a0cb669834118bfddf252ad1be2c89b69c2b068fc378daa952ba7f163c4a11628f55a4df523b3efa264697066735822122075b5ba8b0543e14ebc3c8e14b057a180990363373c1c58b59312a33e2701a65064736f6c63430008130033",
  "linkReferences": {},
  "deployedLinkReferences": {}
}