{
  "_format": "hh-sol-artifact-1",
  "contractName": "USDOOptionsModule",
  "sourceName": "contracts/usd0/modules/USDOOptionsModule.sol",
  "abi": [
    {
      "inputs": [
        {
          "internalType": "address",
          "name": "_lzEndpoint",
          "type": "address"
        },
        {
          "internalType": "contract IYieldBoxBase",
          "name": "_yieldBox",
          "type": "address"
        }
      ],
      "stateMutability": "nonpayable",
      "type": "constructor"
    },
    {
      "anonymous": false,
      "inputs": [
        {
          "indexed": true,
          "internalType": "address",
          "name": "owner",
          "type": "address"
        },
        {
          "indexed": true,
          "internalType": "address",
          "name": "spender",
          "type": "address"
        },
        {
          "indexed": false,
          "internalType": "uint256",
          "name": "value",
          "type": "uint256"
        }
      ],
      "name": "Approval",
      "type": "event"
    },
    {
      "anonymous": false,
      "inputs": [
        {
          "indexed": true,
          "internalType": "uint16",
          "name": "_srcChainId",
          "type": "uint16"
        },
        {
          "indexed": false,
          "internalType": "bytes",
          "name": "_srcAddress",
          "type": "bytes"
        },
        {
          "indexed": false,
          "internalType": "uint64",
          "name": "_nonce",
          "type": "uint64"
        },
        {
          "indexed": false,
          "internalType": "bytes32",
          "name": "_hash",
          "type": "bytes32"
        }
      ],
      "name": "CallOFTReceivedSuccess",
      "type": "event"
    },
    {
      "anonymous": false,
      "inputs": [
        {
          "indexed": true,
          "internalType": "address",
          "name": "old",
          "type": "address"
        },
        {
          "indexed": true,
          "internalType": "address",
          "name": "_new",
          "type": "address"
        }
      ],
      "name": "ConservatorUpdated",
      "type": "event"
    },
    {
      "anonymous": false,
      "inputs": [
        {
          "indexed": false,
          "internalType": "uint256",
          "name": "_old",
          "type": "uint256"
        },
        {
          "indexed": false,
          "internalType": "uint256",
          "name": "_new",
          "type": "uint256"
        }
      ],
      "name": "FlashMintFeeUpdated",
      "type": "event"
    },
    {
      "anonymous": false,
      "inputs": [
        {
          "indexed": false,
          "internalType": "uint256",
          "name": "_old",
          "type": "uint256"
        },
        {
          "indexed": false,
          "internalType": "uint256",
          "name": "_new",
          "type": "uint256"
        }
      ],
      "name": "MaxFlashMintUpdated",
      "type": "event"
    },
    {
      "anonymous": false,
      "inputs": [
        {
          "indexed": false,
          "internalType": "uint16",
          "name": "_srcChainId",
          "type": "uint16"
        },
        {
          "indexed": false,
          "internalType": "bytes",
          "name": "_srcAddress",
          "type": "bytes"
        },
        {
          "indexed": false,
          "internalType": "uint64",
          "name": "_nonce",
          "type": "uint64"
        },
        {
          "indexed": false,
          "internalType": "bytes",
          "name": "_payload",
          "type": "bytes"
        },
        {
          "indexed": false,
          "internalType": "bytes",
          "name": "_reason",
          "type": "bytes"
        }
      ],
      "name": "MessageFailed",
      "type": "event"
    },
    {
      "anonymous": false,
      "inputs": [
        {
          "indexed": false,
          "internalType": "address",
          "name": "_address",
          "type": "address"
        }
      ],
      "name": "NonContractAddress",
      "type": "event"
    },
    {
      "anonymous": false,
      "inputs": [
        {
          "indexed": true,
          "internalType": "address",
          "name": "previousOwner",
          "type": "address"
        },
        {
          "indexed": true,
          "internalType": "address",
          "name": "newOwner",
          "type": "address"
        }
      ],
      "name": "OwnershipTransferred",
      "type": "event"
    },
    {
      "anonymous": false,
      "inputs": [
        {
          "indexed": false,
          "internalType": "bool",
          "name": "oldState",
          "type": "bool"
        },
        {
          "indexed": false,
          "internalType": "bool",
          "name": "newState",
          "type": "bool"
        }
      ],
      "name": "PausedUpdated",
      "type": "event"
    },
    {
      "anonymous": false,
      "inputs": [
        {
          "indexed": true,
          "internalType": "uint16",
          "name": "_srcChainId",
          "type": "uint16"
        },
        {
          "indexed": true,
          "internalType": "address",
          "name": "_to",
          "type": "address"
        },
        {
          "indexed": false,
          "internalType": "uint256",
          "name": "_amount",
          "type": "uint256"
        }
      ],
      "name": "ReceiveFromChain",
      "type": "event"
    },
    {
      "anonymous": false,
      "inputs": [
        {
          "indexed": false,
          "internalType": "uint16",
          "name": "_srcChainId",
          "type": "uint16"
        },
        {
          "indexed": false,
          "internalType": "bytes",
          "name": "_srcAddress",
          "type": "bytes"
        },
        {
          "indexed": false,
          "internalType": "uint64",
          "name": "_nonce",
          "type": "uint64"
        },
        {
          "indexed": false,
          "internalType": "bytes32",
          "name": "_payloadHash",
          "type": "bytes32"
        }
      ],
      "name": "RetryMessageSuccess",
      "type": "event"
    },
    {
      "anonymous": false,
      "inputs": [
        {
          "indexed": true,
          "internalType": "uint16",
          "name": "_dstChainId",
          "type": "uint16"
        },
        {
          "indexed": true,
          "internalType": "address",
          "name": "_from",
          "type": "address"
        },
        {
          "indexed": true,
          "internalType": "bytes32",
          "name": "_toAddress",
          "type": "bytes32"
        },
        {
          "indexed": false,
          "internalType": "uint256",
          "name": "_amount",
          "type": "uint256"
        }
      ],
      "name": "SendToChain",
      "type": "event"
    },
    {
      "anonymous": false,
      "inputs": [
        {
          "indexed": true,
          "internalType": "address",
          "name": "_for",
          "type": "address"
        },
        {
          "indexed": false,
          "internalType": "bool",
          "name": "_status",
          "type": "bool"
        }
      ],
      "name": "SetBurnerStatus",
      "type": "event"
    },
    {
      "anonymous": false,
      "inputs": [
        {
          "indexed": false,
          "internalType": "uint16",
          "name": "_dstChainId",
          "type": "uint16"
        },
        {
          "indexed": false,
          "internalType": "uint16",
          "name": "_type",
          "type": "uint16"
        },
        {
          "indexed": false,
          "internalType": "uint256",
          "name": "_minDstGas",
          "type": "uint256"
        }
      ],
      "name": "SetMinDstGas",
      "type": "event"
    },
    {
      "anonymous": false,
      "inputs": [
        {
          "indexed": true,
          "internalType": "address",
          "name": "_for",
          "type": "address"
        },
        {
          "indexed": false,
          "internalType": "bool",
          "name": "_status",
          "type": "bool"
        }
      ],
      "name": "SetMinterStatus",
      "type": "event"
    },
    {
      "anonymous": false,
      "inputs": [
        {
          "indexed": false,
          "internalType": "address",
          "name": "precrime",
          "type": "address"
        }
      ],
      "name": "SetPrecrime",
      "type": "event"
    },
    {
      "anonymous": false,
      "inputs": [
        {
          "indexed": false,
          "internalType": "uint16",
          "name": "_remoteChainId",
          "type": "uint16"
        },
        {
          "indexed": false,
          "internalType": "bytes",
          "name": "_path",
          "type": "bytes"
        }
      ],
      "name": "SetTrustedRemote",
      "type": "event"
    },
    {
      "anonymous": false,
      "inputs": [
        {
          "indexed": false,
          "internalType": "uint16",
          "name": "_remoteChainId",
          "type": "uint16"
        },
        {
          "indexed": false,
          "internalType": "bytes",
          "name": "_remoteAddress",
          "type": "bytes"
        }
      ],
      "name": "SetTrustedRemoteAddress",
      "type": "event"
    },
    {
      "anonymous": false,
      "inputs": [
        {
          "indexed": false,
          "internalType": "bool",
          "name": "_useCustomAdapterParams",
          "type": "bool"
        }
      ],
      "name": "SetUseCustomAdapterParams",
      "type": "event"
    },
    {
      "anonymous": false,
      "inputs": [
        {
          "indexed": true,
          "internalType": "address",
          "name": "from",
          "type": "address"
        },
        {
          "indexed": true,
          "internalType": "address",
          "name": "to",
          "type": "address"
        },
        {
          "indexed": false,
          "internalType": "uint256",
          "name": "value",
          "type": "uint256"
        }
      ],
      "name": "Transfer",
      "type": "event"
    },
    {
      "inputs": [],
      "name": "DEFAULT_PAYLOAD_SIZE_LIMIT",
      "outputs": [
        {
          "internalType": "uint256",
          "name": "",
          "type": "uint256"
        }
      ],
      "stateMutability": "view",
      "type": "function"
    },
    {
      "inputs": [],
      "name": "NO_EXTRA_GAS",
      "outputs": [
        {
          "internalType": "uint256",
          "name": "",
          "type": "uint256"
        }
      ],
      "stateMutability": "view",
      "type": "function"
    },
    {
      "inputs": [],
      "name": "PT_SEND",
      "outputs": [
        {
          "internalType": "uint8",
          "name": "",
          "type": "uint8"
        }
      ],
      "stateMutability": "view",
      "type": "function"
    },
    {
      "inputs": [],
      "name": "PT_SEND_AND_CALL",
      "outputs": [
        {
          "internalType": "uint8",
          "name": "",
          "type": "uint8"
        }
      ],
      "stateMutability": "view",
      "type": "function"
    },
    {
      "inputs": [
        {
          "internalType": "address",
          "name": "owner",
          "type": "address"
        },
        {
          "internalType": "address",
          "name": "spender",
          "type": "address"
        }
      ],
      "name": "allowance",
      "outputs": [
        {
          "internalType": "uint256",
          "name": "",
          "type": "uint256"
        }
      ],
      "stateMutability": "view",
      "type": "function"
    },
    {
      "inputs": [
        {
          "internalType": "uint256",
          "name": "",
          "type": "uint256"
        },
        {
          "internalType": "address",
          "name": "",
          "type": "address"
        }
      ],
      "name": "allowedBurner",
      "outputs": [
        {
          "internalType": "bool",
          "name": "",
          "type": "bool"
        }
      ],
      "stateMutability": "view",
      "type": "function"
    },
    {
      "inputs": [
        {
          "internalType": "uint256",
          "name": "",
          "type": "uint256"
        },
        {
          "internalType": "address",
          "name": "",
          "type": "address"
        }
      ],
      "name": "allowedMinter",
      "outputs": [
        {
          "internalType": "bool",
          "name": "",
          "type": "bool"
        }
      ],
      "stateMutability": "view",
      "type": "function"
    },
    {
      "inputs": [
        {
          "internalType": "address",
          "name": "spender",
          "type": "address"
        },
        {
          "internalType": "uint256",
          "name": "amount",
          "type": "uint256"
        }
      ],
      "name": "approve",
      "outputs": [
        {
          "internalType": "bool",
          "name": "",
          "type": "bool"
        }
      ],
      "stateMutability": "nonpayable",
      "type": "function"
    },
    {
      "inputs": [
        {
          "internalType": "address",
          "name": "account",
          "type": "address"
        }
      ],
      "name": "balanceOf",
      "outputs": [
        {
          "internalType": "uint256",
          "name": "",
          "type": "uint256"
        }
      ],
      "stateMutability": "view",
      "type": "function"
    },
    {
      "inputs": [
        {
          "internalType": "uint16",
          "name": "_srcChainId",
          "type": "uint16"
        },
        {
          "internalType": "bytes",
          "name": "_srcAddress",
          "type": "bytes"
        },
        {
          "internalType": "uint64",
          "name": "_nonce",
          "type": "uint64"
        },
        {
          "internalType": "bytes32",
          "name": "_from",
          "type": "bytes32"
        },
        {
          "internalType": "address",
          "name": "_to",
          "type": "address"
        },
        {
          "internalType": "uint256",
          "name": "_amount",
          "type": "uint256"
        },
        {
          "internalType": "bytes",
          "name": "_payload",
          "type": "bytes"
        },
        {
          "internalType": "uint256",
          "name": "_gasForCall",
          "type": "uint256"
        }
      ],
      "name": "callOnOFTReceived",
      "outputs": [],
      "stateMutability": "nonpayable",
      "type": "function"
    },
    {
      "inputs": [],
      "name": "circulatingSupply",
      "outputs": [
        {
          "internalType": "uint256",
          "name": "",
          "type": "uint256"
        }
      ],
      "stateMutability": "view",
      "type": "function"
    },
    {
      "inputs": [],
      "name": "conservator",
      "outputs": [
        {
          "internalType": "address",
          "name": "",
          "type": "address"
        }
      ],
      "stateMutability": "view",
      "type": "function"
    },
    {
      "inputs": [
        {
          "internalType": "uint16",
          "name": "",
          "type": "uint16"
        },
        {
          "internalType": "bytes",
          "name": "",
          "type": "bytes"
        },
        {
          "internalType": "uint64",
          "name": "",
          "type": "uint64"
        }
      ],
      "name": "creditedPackets",
      "outputs": [
        {
          "internalType": "bool",
          "name": "",
          "type": "bool"
        }
      ],
      "stateMutability": "view",
      "type": "function"
    },
    {
      "inputs": [],
      "name": "decimals",
      "outputs": [
        {
          "internalType": "uint8",
          "name": "",
          "type": "uint8"
        }
      ],
      "stateMutability": "view",
      "type": "function"
    },
    {
      "inputs": [
        {
          "internalType": "address",
          "name": "spender",
          "type": "address"
        },
        {
          "internalType": "uint256",
          "name": "subtractedValue",
          "type": "uint256"
        }
      ],
      "name": "decreaseAllowance",
      "outputs": [
        {
          "internalType": "bool",
          "name": "",
          "type": "bool"
        }
      ],
      "stateMutability": "nonpayable",
      "type": "function"
    },
    {
      "inputs": [
        {
          "internalType": "uint16",
          "name": "_dstChainId",
          "type": "uint16"
        },
        {
          "internalType": "bytes32",
          "name": "_toAddress",
          "type": "bytes32"
        },
        {
          "internalType": "uint256",
          "name": "_amount",
          "type": "uint256"
        },
        {
          "internalType": "bytes",
          "name": "_payload",
          "type": "bytes"
        },
        {
          "internalType": "uint64",
          "name": "_dstGasForCall",
          "type": "uint64"
        },
        {
          "internalType": "bool",
          "name": "_useZro",
          "type": "bool"
        },
        {
          "internalType": "bytes",
          "name": "_adapterParams",
          "type": "bytes"
        }
      ],
      "name": "estimateSendAndCallFee",
      "outputs": [
        {
          "internalType": "uint256",
          "name": "nativeFee",
          "type": "uint256"
        },
        {
          "internalType": "uint256",
          "name": "zroFee",
          "type": "uint256"
        }
      ],
      "stateMutability": "view",
      "type": "function"
    },
    {
      "inputs": [
        {
          "internalType": "uint16",
          "name": "_dstChainId",
          "type": "uint16"
        },
        {
          "internalType": "bytes32",
          "name": "_toAddress",
          "type": "bytes32"
        },
        {
          "internalType": "uint256",
          "name": "_amount",
          "type": "uint256"
        },
        {
          "internalType": "bool",
          "name": "_useZro",
          "type": "bool"
        },
        {
          "internalType": "bytes",
          "name": "_adapterParams",
          "type": "bytes"
        }
      ],
      "name": "estimateSendFee",
      "outputs": [
        {
          "internalType": "uint256",
          "name": "nativeFee",
          "type": "uint256"
        },
        {
          "internalType": "uint256",
          "name": "zroFee",
          "type": "uint256"
        }
      ],
      "stateMutability": "view",
      "type": "function"
    },
    {
      "inputs": [
        {
          "internalType": "address",
          "name": "module",
          "type": "address"
        },
        {
          "internalType": "uint16",
          "name": "_srcChainId",
          "type": "uint16"
        },
        {
          "internalType": "bytes",
          "name": "_srcAddress",
          "type": "bytes"
        },
        {
          "internalType": "uint64",
          "name": "_nonce",
          "type": "uint64"
        },
        {
          "internalType": "bytes",
          "name": "_payload",
          "type": "bytes"
        }
      ],
      "name": "exercise",
      "outputs": [],
      "stateMutability": "nonpayable",
      "type": "function"
    },
    {
      "inputs": [
        {
          "internalType": "address",
          "name": "from",
          "type": "address"
        },
        {
          "internalType": "uint256",
          "name": "oTAPTokenID",
          "type": "uint256"
        },
        {
          "internalType": "address",
          "name": "paymentToken",
          "type": "address"
        },
        {
          "internalType": "uint256",
          "name": "tapAmount",
          "type": "uint256"
        },
        {
          "internalType": "address",
          "name": "target",
          "type": "address"
        },
        {
          "components": [
            {
              "internalType": "bool",
              "name": "withdrawOnAnotherChain",
              "type": "bool"
            },
            {
              "internalType": "address",
              "name": "tapOftAddress",
              "type": "address"
            },
            {
              "internalType": "uint16",
              "name": "lzDstChainId",
              "type": "uint16"
            },
            {
              "internalType": "uint256",
              "name": "amount",
              "type": "uint256"
            },
            {
              "internalType": "address",
              "name": "zroPaymentAddress",
              "type": "address"
            },
            {
              "internalType": "uint256",
              "name": "extraGas",
              "type": "uint256"
            }
          ],
          "internalType": "struct ITapiocaOptionsBrokerCrossChain.IExerciseLZSendTapData",
          "name": "tapSendData",
          "type": "tuple"
        },
        {
          "components": [
            {
              "internalType": "bool",
              "name": "permitAll",
              "type": "bool"
            },
            {
              "internalType": "bool",
              "name": "allowFailure",
              "type": "bool"
            },
            {
              "internalType": "address",
              "name": "target",
              "type": "address"
            },
            {
              "internalType": "bool",
              "name": "permitBorrow",
              "type": "bool"
            },
            {
              "internalType": "address",
              "name": "owner",
              "type": "address"
            },
            {
              "internalType": "address",
              "name": "spender",
              "type": "address"
            },
            {
              "internalType": "uint256",
              "name": "value",
              "type": "uint256"
            },
            {
              "internalType": "uint256",
              "name": "deadline",
              "type": "uint256"
            },
            {
              "internalType": "uint8",
              "name": "v",
              "type": "uint8"
            },
            {
              "internalType": "bytes32",
              "name": "r",
              "type": "bytes32"
            },
            {
              "internalType": "bytes32",
              "name": "s",
              "type": "bytes32"
            }
          ],
          "internalType": "struct ICommonData.IApproval[]",
          "name": "approvals",
          "type": "tuple[]"
        }
      ],
      "name": "exerciseInternal",
      "outputs": [],
      "stateMutability": "nonpayable",
      "type": "function"
    },
    {
      "inputs": [
        {
          "components": [
            {
              "internalType": "address",
              "name": "from",
              "type": "address"
            },
            {
              "internalType": "address",
              "name": "target",
              "type": "address"
            },
            {
              "internalType": "uint256",
              "name": "paymentTokenAmount",
              "type": "uint256"
            },
            {
              "internalType": "uint256",
              "name": "oTAPTokenID",
              "type": "uint256"
            },
            {
              "internalType": "address",
              "name": "paymentToken",
              "type": "address"
            },
            {
              "internalType": "uint256",
              "name": "tapAmount",
              "type": "uint256"
            }
          ],
          "internalType": "struct ITapiocaOptionsBrokerCrossChain.IExerciseOptionsData",
          "name": "optionsData",
          "type": "tuple"
        },
        {
          "components": [
            {
              "internalType": "uint16",
              "name": "lzDstChainId",
              "type": "uint16"
            },
            {
              "internalType": "address",
              "name": "zroPaymentAddress",
              "type": "address"
            },
            {
              "internalType": "uint256",
              "name": "extraGas",
              "type": "uint256"
            }
          ],
          "internalType": "struct ITapiocaOptionsBrokerCrossChain.IExerciseLZData",
          "name": "lzData",
          "type": "tuple"
        },
        {
          "components": [
            {
              "internalType": "bool",
              "name": "withdrawOnAnotherChain",
              "type": "bool"
            },
            {
              "internalType": "address",
              "name": "tapOftAddress",
              "type": "address"
            },
            {
              "internalType": "uint16",
              "name": "lzDstChainId",
              "type": "uint16"
            },
            {
              "internalType": "uint256",
              "name": "amount",
              "type": "uint256"
            },
            {
              "internalType": "address",
              "name": "zroPaymentAddress",
              "type": "address"
            },
            {
              "internalType": "uint256",
              "name": "extraGas",
              "type": "uint256"
            }
          ],
          "internalType": "struct ITapiocaOptionsBrokerCrossChain.IExerciseLZSendTapData",
          "name": "tapSendData",
          "type": "tuple"
        },
        {
          "components": [
            {
              "internalType": "bool",
              "name": "permitAll",
              "type": "bool"
            },
            {
              "internalType": "bool",
              "name": "allowFailure",
              "type": "bool"
            },
            {
              "internalType": "address",
              "name": "target",
              "type": "address"
            },
            {
              "internalType": "bool",
              "name": "permitBorrow",
              "type": "bool"
            },
            {
              "internalType": "address",
              "name": "owner",
              "type": "address"
            },
            {
              "internalType": "address",
              "name": "spender",
              "type": "address"
            },
            {
              "internalType": "uint256",
              "name": "value",
              "type": "uint256"
            },
            {
              "internalType": "uint256",
              "name": "deadline",
              "type": "uint256"
            },
            {
              "internalType": "uint8",
              "name": "v",
              "type": "uint8"
            },
            {
              "internalType": "bytes32",
              "name": "r",
              "type": "bytes32"
            },
            {
              "internalType": "bytes32",
              "name": "s",
              "type": "bytes32"
            }
          ],
          "internalType": "struct ICommonData.IApproval[]",
          "name": "approvals",
          "type": "tuple[]"
        }
      ],
      "name": "exerciseOption",
      "outputs": [],
      "stateMutability": "payable",
      "type": "function"
    },
    {
      "inputs": [
        {
          "internalType": "uint16",
          "name": "",
          "type": "uint16"
        },
        {
          "internalType": "bytes",
          "name": "",
          "type": "bytes"
        },
        {
          "internalType": "uint64",
          "name": "",
          "type": "uint64"
        }
      ],
      "name": "failedMessages",
      "outputs": [
        {
          "internalType": "bytes32",
          "name": "",
          "type": "bytes32"
        }
      ],
      "stateMutability": "view",
      "type": "function"
    },
    {
      "inputs": [],
      "name": "flashMintFee",
      "outputs": [
        {
          "internalType": "uint256",
          "name": "",
          "type": "uint256"
        }
      ],
      "stateMutability": "view",
      "type": "function"
    },
    {
      "inputs": [
        {
          "internalType": "uint16",
          "name": "_srcChainId",
          "type": "uint16"
        },
        {
          "internalType": "bytes",
          "name": "_srcAddress",
          "type": "bytes"
        }
      ],
      "name": "forceResumeReceive",
      "outputs": [],
      "stateMutability": "nonpayable",
      "type": "function"
    },
    {
      "inputs": [
        {
          "internalType": "uint16",
          "name": "_version",
          "type": "uint16"
        },
        {
          "internalType": "uint16",
          "name": "_chainId",
          "type": "uint16"
        },
        {
          "internalType": "address",
          "name": "",
          "type": "address"
        },
        {
          "internalType": "uint256",
          "name": "_configType",
          "type": "uint256"
        }
      ],
      "name": "getConfig",
      "outputs": [
        {
          "internalType": "bytes",
          "name": "",
          "type": "bytes"
        }
      ],
      "stateMutability": "view",
      "type": "function"
    },
    {
      "inputs": [
        {
          "internalType": "uint16",
          "name": "_remoteChainId",
          "type": "uint16"
        }
      ],
      "name": "getTrustedRemoteAddress",
      "outputs": [
        {
          "internalType": "bytes",
          "name": "",
          "type": "bytes"
        }
      ],
      "stateMutability": "view",
      "type": "function"
    },
    {
      "inputs": [
        {
          "internalType": "address",
          "name": "spender",
          "type": "address"
        },
        {
          "internalType": "uint256",
          "name": "addedValue",
          "type": "uint256"
        }
      ],
      "name": "increaseAllowance",
      "outputs": [
        {
          "internalType": "bool",
          "name": "",
          "type": "bool"
        }
      ],
      "stateMutability": "nonpayable",
      "type": "function"
    },
    {
      "inputs": [
        {
          "internalType": "uint16",
          "name": "_srcChainId",
          "type": "uint16"
        },
        {
          "internalType": "bytes",
          "name": "_srcAddress",
          "type": "bytes"
        }
      ],
      "name": "isTrustedRemote",
      "outputs": [
        {
          "internalType": "bool",
          "name": "",
          "type": "bool"
        }
      ],
      "stateMutability": "view",
      "type": "function"
    },
    {
      "inputs": [],
      "name": "lzEndpoint",
      "outputs": [
        {
          "internalType": "contract ILayerZeroEndpoint",
          "name": "",
          "type": "address"
        }
      ],
      "stateMutability": "view",
      "type": "function"
    },
    {
      "inputs": [
        {
          "internalType": "uint16",
          "name": "_srcChainId",
          "type": "uint16"
        },
        {
          "internalType": "bytes",
          "name": "_srcAddress",
          "type": "bytes"
        },
        {
          "internalType": "uint64",
          "name": "_nonce",
          "type": "uint64"
        },
        {
          "internalType": "bytes",
          "name": "_payload",
          "type": "bytes"
        }
      ],
      "name": "lzReceive",
      "outputs": [],
      "stateMutability": "nonpayable",
      "type": "function"
    },
    {
      "inputs": [],
      "name": "maxFlashMint",
      "outputs": [
        {
          "internalType": "uint256",
          "name": "",
          "type": "uint256"
        }
      ],
      "stateMutability": "view",
      "type": "function"
    },
    {
      "inputs": [
        {
          "internalType": "uint16",
          "name": "",
          "type": "uint16"
        },
        {
          "internalType": "uint16",
          "name": "",
          "type": "uint16"
        }
      ],
      "name": "minDstGasLookup",
      "outputs": [
        {
          "internalType": "uint256",
          "name": "",
          "type": "uint256"
        }
      ],
      "stateMutability": "view",
      "type": "function"
    },
    {
      "inputs": [],
      "name": "name",
      "outputs": [
        {
          "internalType": "string",
          "name": "",
          "type": "string"
        }
      ],
      "stateMutability": "view",
      "type": "function"
    },
    {
      "inputs": [
        {
          "internalType": "uint16",
          "name": "_srcChainId",
          "type": "uint16"
        },
        {
          "internalType": "bytes",
          "name": "_srcAddress",
          "type": "bytes"
        },
        {
          "internalType": "uint64",
          "name": "_nonce",
          "type": "uint64"
        },
        {
          "internalType": "bytes",
          "name": "_payload",
          "type": "bytes"
        }
      ],
      "name": "nonblockingLzReceive",
      "outputs": [],
      "stateMutability": "nonpayable",
      "type": "function"
    },
    {
      "inputs": [],
      "name": "owner",
      "outputs": [
        {
          "internalType": "address",
          "name": "",
          "type": "address"
        }
      ],
      "stateMutability": "view",
      "type": "function"
    },
    {
      "inputs": [],
      "name": "paused",
      "outputs": [
        {
          "internalType": "bool",
          "name": "",
          "type": "bool"
        }
      ],
      "stateMutability": "view",
      "type": "function"
    },
    {
      "inputs": [
        {
          "internalType": "uint16",
          "name": "",
          "type": "uint16"
        }
      ],
      "name": "payloadSizeLimitLookup",
      "outputs": [
        {
          "internalType": "uint256",
          "name": "",
          "type": "uint256"
        }
      ],
      "stateMutability": "view",
      "type": "function"
    },
    {
      "inputs": [],
      "name": "precrime",
      "outputs": [
        {
          "internalType": "address",
          "name": "",
          "type": "address"
        }
      ],
      "stateMutability": "view",
      "type": "function"
    },
    {
      "inputs": [],
      "name": "renounceOwnership",
      "outputs": [],
      "stateMutability": "nonpayable",
      "type": "function"
    },
    {
      "inputs": [
        {
          "internalType": "uint16",
          "name": "_srcChainId",
          "type": "uint16"
        },
        {
          "internalType": "bytes",
          "name": "_srcAddress",
          "type": "bytes"
        },
        {
          "internalType": "uint64",
          "name": "_nonce",
          "type": "uint64"
        },
        {
          "internalType": "bytes",
          "name": "_payload",
          "type": "bytes"
        }
      ],
      "name": "retryMessage",
      "outputs": [],
      "stateMutability": "payable",
      "type": "function"
    },
    {
      "inputs": [
        {
          "internalType": "address",
          "name": "_from",
          "type": "address"
        },
        {
          "internalType": "uint16",
          "name": "_dstChainId",
          "type": "uint16"
        },
        {
          "internalType": "bytes32",
          "name": "_toAddress",
          "type": "bytes32"
        },
        {
          "internalType": "uint256",
          "name": "_amount",
          "type": "uint256"
        },
        {
          "internalType": "bytes",
          "name": "_payload",
          "type": "bytes"
        },
        {
          "internalType": "uint64",
          "name": "_dstGasForCall",
          "type": "uint64"
        },
        {
          "components": [
            {
              "internalType": "address payable",
              "name": "refundAddress",
              "type": "address"
            },
            {
              "internalType": "address",
              "name": "zroPaymentAddress",
              "type": "address"
            },
            {
              "internalType": "bytes",
              "name": "adapterParams",
              "type": "bytes"
            }
          ],
          "internalType": "struct ICommonOFT.LzCallParams",
          "name": "_callParams",
          "type": "tuple"
        }
      ],
      "name": "sendAndCall",
      "outputs": [],
      "stateMutability": "payable",
      "type": "function"
    },
    {
      "inputs": [
        {
          "internalType": "address",
          "name": "_from",
          "type": "address"
        },
        {
          "internalType": "uint16",
          "name": "_dstChainId",
          "type": "uint16"
        },
        {
          "internalType": "bytes32",
          "name": "_toAddress",
          "type": "bytes32"
        },
        {
          "internalType": "uint256",
          "name": "_amount",
          "type": "uint256"
        },
        {
          "components": [
            {
              "internalType": "address payable",
              "name": "refundAddress",
              "type": "address"
            },
            {
              "internalType": "address",
              "name": "zroPaymentAddress",
              "type": "address"
            },
            {
              "internalType": "bytes",
              "name": "adapterParams",
              "type": "bytes"
            }
          ],
          "internalType": "struct ICommonOFT.LzCallParams",
          "name": "_callParams",
          "type": "tuple"
        }
      ],
      "name": "sendFrom",
      "outputs": [],
      "stateMutability": "payable",
      "type": "function"
    },
    {
      "inputs": [
        {
          "internalType": "bytes",
          "name": "_payload",
          "type": "bytes"
        }
      ],
      "name": "sendFromDestination",
      "outputs": [],
      "stateMutability": "nonpayable",
      "type": "function"
    },
    {
      "inputs": [
        {
          "internalType": "uint16",
          "name": "_version",
          "type": "uint16"
        },
        {
          "internalType": "uint16",
          "name": "_chainId",
          "type": "uint16"
        },
        {
          "internalType": "uint256",
          "name": "_configType",
          "type": "uint256"
        },
        {
          "internalType": "bytes",
          "name": "_config",
          "type": "bytes"
        }
      ],
      "name": "setConfig",
      "outputs": [],
      "stateMutability": "nonpayable",
      "type": "function"
    },
    {
      "inputs": [
        {
          "internalType": "uint16",
          "name": "_dstChainId",
          "type": "uint16"
        },
        {
          "internalType": "uint16",
          "name": "_packetType",
          "type": "uint16"
        },
        {
          "internalType": "uint256",
          "name": "_minGas",
          "type": "uint256"
        }
      ],
      "name": "setMinDstGas",
      "outputs": [],
      "stateMutability": "nonpayable",
      "type": "function"
    },
    {
      "inputs": [
        {
          "internalType": "uint16",
          "name": "_dstChainId",
          "type": "uint16"
        },
        {
          "internalType": "uint256",
          "name": "_size",
          "type": "uint256"
        }
      ],
      "name": "setPayloadSizeLimit",
      "outputs": [],
      "stateMutability": "nonpayable",
      "type": "function"
    },
    {
      "inputs": [
        {
          "internalType": "address",
          "name": "_precrime",
          "type": "address"
        }
      ],
      "name": "setPrecrime",
      "outputs": [],
      "stateMutability": "nonpayable",
      "type": "function"
    },
    {
      "inputs": [
        {
          "internalType": "uint16",
          "name": "_version",
          "type": "uint16"
        }
      ],
      "name": "setReceiveVersion",
      "outputs": [],
      "stateMutability": "nonpayable",
      "type": "function"
    },
    {
      "inputs": [
        {
          "internalType": "uint16",
          "name": "_version",
          "type": "uint16"
        }
      ],
      "name": "setSendVersion",
      "outputs": [],
      "stateMutability": "nonpayable",
      "type": "function"
    },
    {
      "inputs": [
        {
          "internalType": "uint16",
          "name": "_srcChainId",
          "type": "uint16"
        },
        {
          "internalType": "bytes",
          "name": "_path",
          "type": "bytes"
        }
      ],
      "name": "setTrustedRemote",
      "outputs": [],
      "stateMutability": "nonpayable",
      "type": "function"
    },
    {
      "inputs": [
        {
          "internalType": "uint16",
          "name": "_remoteChainId",
          "type": "uint16"
        },
        {
          "internalType": "bytes",
          "name": "_remoteAddress",
          "type": "bytes"
        }
      ],
      "name": "setTrustedRemoteAddress",
      "outputs": [],
      "stateMutability": "nonpayable",
      "type": "function"
    },
    {
      "inputs": [
        {
          "internalType": "bool",
          "name": "_useCustomAdapterParams",
          "type": "bool"
        }
      ],
      "name": "setUseCustomAdapterParams",
      "outputs": [],
      "stateMutability": "nonpayable",
      "type": "function"
    },
    {
      "inputs": [],
      "name": "sharedDecimals",
      "outputs": [
        {
          "internalType": "uint8",
          "name": "",
          "type": "uint8"
        }
      ],
      "stateMutability": "view",
      "type": "function"
    },
    {
      "inputs": [
        {
          "internalType": "bytes4",
          "name": "interfaceId",
          "type": "bytes4"
        }
      ],
      "name": "supportsInterface",
      "outputs": [
        {
          "internalType": "bool",
          "name": "",
          "type": "bool"
        }
      ],
      "stateMutability": "view",
      "type": "function"
    },
    {
      "inputs": [],
      "name": "symbol",
      "outputs": [
        {
          "internalType": "string",
          "name": "",
          "type": "string"
        }
      ],
      "stateMutability": "view",
      "type": "function"
    },
    {
      "inputs": [],
      "name": "token",
      "outputs": [
        {
          "internalType": "address",
          "name": "",
          "type": "address"
        }
      ],
      "stateMutability": "view",
      "type": "function"
    },
    {
      "inputs": [],
      "name": "totalSupply",
      "outputs": [
        {
          "internalType": "uint256",
          "name": "",
          "type": "uint256"
        }
      ],
      "stateMutability": "view",
      "type": "function"
    },
    {
      "inputs": [
        {
          "internalType": "address",
          "name": "to",
          "type": "address"
        },
        {
          "internalType": "uint256",
          "name": "amount",
          "type": "uint256"
        }
      ],
      "name": "transfer",
      "outputs": [
        {
          "internalType": "bool",
          "name": "",
          "type": "bool"
        }
      ],
      "stateMutability": "nonpayable",
      "type": "function"
    },
    {
      "inputs": [
        {
          "internalType": "address",
          "name": "from",
          "type": "address"
        },
        {
          "internalType": "address",
          "name": "to",
          "type": "address"
        },
        {
          "internalType": "uint256",
          "name": "amount",
          "type": "uint256"
        }
      ],
      "name": "transferFrom",
      "outputs": [
        {
          "internalType": "bool",
          "name": "",
          "type": "bool"
        }
      ],
      "stateMutability": "nonpayable",
      "type": "function"
    },
    {
      "inputs": [
        {
          "internalType": "address",
          "name": "newOwner",
          "type": "address"
        }
      ],
      "name": "transferOwnership",
      "outputs": [],
      "stateMutability": "nonpayable",
      "type": "function"
    },
    {
      "inputs": [
        {
          "internalType": "uint16",
          "name": "lzDstChainId",
          "type": "uint16"
        },
        {
          "internalType": "bytes",
          "name": "airdropAdapterParams",
          "type": "bytes"
        },
        {
          "internalType": "address",
          "name": "zroPaymentAddress",
          "type": "address"
        },
        {
          "internalType": "uint256",
          "name": "amount",
          "type": "uint256"
        },
        {
          "components": [
            {
              "internalType": "address payable",
              "name": "refundAddress",
              "type": "address"
            },
            {
              "internalType": "address",
              "name": "zroPaymentAddress",
              "type": "address"
            },
            {
              "internalType": "bytes",
              "name": "adapterParams",
              "type": "bytes"
            }
          ],
          "internalType": "struct ISendFrom.LzCallParams",
          "name": "sendFromData",
          "type": "tuple"
        },
        {
          "components": [
            {
              "internalType": "bool",
              "name": "permitAll",
              "type": "bool"
            },
            {
              "internalType": "bool",
              "name": "allowFailure",
              "type": "bool"
            },
            {
              "internalType": "address",
              "name": "target",
              "type": "address"
            },
            {
              "internalType": "bool",
              "name": "permitBorrow",
              "type": "bool"
            },
            {
              "internalType": "address",
              "name": "owner",
              "type": "address"
            },
            {
              "internalType": "address",
              "name": "spender",
              "type": "address"
            },
            {
              "internalType": "uint256",
              "name": "value",
              "type": "uint256"
            },
            {
              "internalType": "uint256",
              "name": "deadline",
              "type": "uint256"
            },
            {
              "internalType": "uint8",
              "name": "v",
              "type": "uint8"
            },
            {
              "internalType": "bytes32",
              "name": "r",
              "type": "bytes32"
            },
            {
              "internalType": "bytes32",
              "name": "s",
              "type": "bytes32"
            }
          ],
          "internalType": "struct ICommonData.IApproval[]",
          "name": "approvals",
          "type": "tuple[]"
        }
      ],
      "name": "triggerSendFrom",
      "outputs": [],
      "stateMutability": "payable",
      "type": "function"
    },
    {
      "inputs": [
        {
          "internalType": "uint16",
          "name": "",
          "type": "uint16"
        }
      ],
      "name": "trustedRemoteLookup",
      "outputs": [
        {
          "internalType": "bytes",
          "name": "",
          "type": "bytes"
        }
      ],
      "stateMutability": "view",
      "type": "function"
    },
    {
      "inputs": [],
      "name": "useCustomAdapterParams",
      "outputs": [
        {
          "internalType": "bool",
          "name": "",
          "type": "bool"
        }
      ],
      "stateMutability": "view",
      "type": "function"
    },
    {
      "inputs": [],
      "name": "yieldBox",
      "outputs": [
        {
          "internalType": "contract IYieldBoxBase",
          "name": "",
          "type": "address"
        }
      ],
      "stateMutability": "view",
      "type": "function"
    },
    {
      "stateMutability": "payable",
      "type": "receive"
    }
  ],
  "bytecode": "0x61010060409080825234620004e1578181620058e68038038091620000258285620004e6565b833981010312620004e15780516001600160a01b038082169291839003620004e157602080920151928184168403620004e1576200006262000520565b916200006d62000520565b60008054336001600160a01b03198216811783559194919084167f8be0079c531659141344cd1fd0a4f28419497f9722a3daafe3b4186f6b6457e08680a3608052600860a05283516001600160401b0391828211620003e857600b54916001968784811c94168015620004d6575b89851014620004c2578190601f948581116200046e575b50899085831160011462000408578892620003fc575b5050600019600383901b1c191690871b17600b555b8051928311620003e857600c548681811c91168015620003dd575b88821014620003c957908183899594931162000371575b508391831160011462000306576004949291869183620002fa575b5050600019600383901b1c191690861b17600c555b6402540be40060c052608051168751928380926303408e4760e41b82525afa908115620002f057908291879391620002a5575b5061ffff1693848252600e815282822033835281528282209460ff199585878254161790558252600f815282822090338352522091825416179055600a60115569152d02c7e14af680000060125560e0525161539490816200055282396080518181816104d001528181610793015281816108d001528181610a5b01528181610c6501528181610e2e015281816112eb0152818161207b015281816121f40152818161290d015281816140ff0152614520015260a051816119e8015260c05181818161183f01528181611faf0152818161474d015281816149ae01528181614bff0152614c97015260e051816124470152f35b80929350858092503d8311620002e8575b620002c28183620004e6565b81010312620002e4575161ffff81168103620002e45785919061ffff620001b2565b5080fd5b503d620002b6565b86513d84823e3d90fd5b0151905038806200016a565b93918691601f19821690600c885285882091885b8181106200035857509683600498106200033e575b505050811b01600c556200017f565b015160001960f88460031b161c191690553880806200032f565b8289015184558b978b969094019392830192016200031a565b9091929350600c86528786208380860160051c8201928a8710620003bf575b9189918b97969594930160051c01915b828110620003b05750506200014f565b8881558a9650899101620003a0565b9250819262000390565b634e487b7160e01b86526022600452602486fd5b90607f169062000138565b634e487b7160e01b85526041600452602485fd5b01519050388062000108565b600b89528a89208a94509190601f1984168a5b8d8282106200045757505084116200043d575b505050811b01600b556200011d565b015160001960f88460031b161c191690553880806200042e565b8385015186558d979095019493840193016200041b565b909150600b88528988208580850160051c8201928c8610620004b8575b918b91869594930160051c01915b828110620004a9575050620000f2565b8a81558594508b910162000499565b925081926200048b565b634e487b7160e01b87526022600452602487fd5b93607f1693620000db565b600080fd5b601f909101601f19168101906001600160401b038211908210176200050a57604052565b634e487b7160e01b600052604160045260246000fd5b60408051919082016001600160401b038111838210176200050a5760405260048252635553444f60e01b602083015256fe6080604052600436101561001b575b361561001957600080fd5b005b60003560e01c80621d35671461040057806301ffc9a7146103fb57806306fdde03146103f657806307e0db17146103f1578063095ea7b3146103ec5780630df37483146103e757806310ddb137146103e257806318160ddd1461036f57806318e7fa19146103dd57806323b872dd146103d8578063313ce567146103d3578063365260b4146103ce57806339509351146103c95780633d8b38f6146103c45780633f1f4fa4146103bf57806342d65a8d146103ba57806344770515146103b55780634c42899a146103b55780635b8c41e6146103b05780635c975abb146103ab57806366ad5c8a146103a6578063695ef6bf146103a15780636cb2c9581461039c57806370a0823114610397578063715018a6146103925780637533d7881461038d57806376203b481461038857806381618d0514610383578063857749b01461037e5780638cfd8f5c146103795780638da5cb5b146103745780639358928b1461036f578063940a1dc01461036a578063950c8a741461036557806395d89b41146103605780639bdb98121461035b5780639d3f4d1a146103565780639f38369a14610351578063a457c2d71461034c578063a4c51df514610347578063a6c3d16514610342578063a9059cbb1461033d578063af2ee97514610338578063b353aaa714610333578063ba03a8d71461032e578063baf3292d14610329578063c446183414610324578063cbed8b9c1461031f578063ce8849ed1461031a578063d1deba1f14610315578063dd62ed3e14610310578063de4065771461030b578063df2a5b3b14610306578063e6a20ae614610301578063eab45d9c146102fc578063eaffd49a146102f7578063eb8d72b7146102f2578063ec6d062b146102ed578063ed629c5c146102e8578063f2fde38b146102e3578063f5ecbdbc146102de578063f7bd4ec3146102d95763fc0c546a0361000e57612b88565b612ab3565b6128a3565b6127ee565b6127cb565b612793565b61266a565b6125e1565b61257f565b612563565b612476565b612431565b6123e7565b6122af565b612286565b6121a0565b612183565b612113565b6120db565b612065565b611f4d565b611f23565b611dc1565b611d2a565b611c7e565b611bdb565b611bbd565b611b72565b611ace565b611aa5565b611a87565b610931565b611a5e565b611a0c565b6119ce565b611794565b611577565b611520565b6113ec565b6113af565b61124f565b61116c565b6110e6565b6110c3565b61106f565b610e95565b610e14565b610ddb565b610d6b565b610ce3565b610bdb565b610baa565b610b6a565b6109c3565b6108a7565b610868565b610833565b61076a565b61068a565b6105cd565b6104b9565b61ffff81160361041157565b600080fd5b9181601f84011215610411578235916001600160401b038311610411576020838186019501011161041157565b6001600160401b0381160361041157565b9060806003198301126104115760043561046d81610405565b916001600160401b0390602435828111610411578161048e91600401610416565b9390939260443561049e81610443565b92606435918211610411576104b591600401610416565b9091565b34610411576104c736610454565b929493919291907f00000000000000000000000000000000000000000000000000000000000000006001600160a01b031633036105885761054d610555926100199761054661052c6105278a61ffff166000526001602052604060002090565b611505565b805190818414918261057e575b508161055b575b50614008565b3691610f9b565b923691610f9b565b926142b3565b9050610568368486610f9b565b6020815191012090602081519101201438610540565b1515915038610539565b60405162461bcd60e51b815260206004820152601e60248201527f4c7a4170703a20696e76616c696420656e64706f696e742063616c6c657200006044820152606490fd5b346104115760203660031901126104115760043563ffffffff60e01b811680910361041157602090631f7ecdf760e01b8114908115610612575b506040519015158152f35b6301ffc9a760e01b14905038610607565b600091031261041157565b60005b8381106106415750506000910152565b8181015183820152602001610631565b9060209161066a8151809281855285808601910161062e565b601f01601f1916010190565b906020610687928181520190610651565b90565b34610411576000806003193601126107675760405181600b546106ac81611435565b8084529060019081811690811561073f57506001146106e6575b6106e2846106d681880382610f30565b60405191829182610676565b0390f35b600b8352602094507f0175b7a638427703f0dbe7bb9bbf987a2551717b34e79f33b5b1008d1fa01db95b82841061072c57505050816106e2936106d692820101936106c6565b8054858501870152928501928101610710565b6106e296506106d69450602092508593915060ff191682840152151560051b820101936106c6565b80fd5b3461041157600060203660031901126107675760043561078981610405565b610791612ba3565b7f00000000000000000000000000000000000000000000000000000000000000006001600160a01b0316908290823b1561080557602461ffff918360405195869485936307e0db1760e01b85521660048401525af18015610800576107f4575080f35b6107fd90610ec7565b80f35b612f85565b5080fd5b6001600160a01b031690565b6001600160a01b0381160361041157565b359061083182610815565b565b346104115760403660031901126104115761085d60043561085381610815565b6024359033612dbc565b602060405160018152f35b346104115760403660031901126104115761ffff60043561088881610405565b610890612ba3565b166000526003602052602435604060002055600080f35b346104115760006020366003190112610767576004356108c681610405565b6108ce612ba3565b7f00000000000000000000000000000000000000000000000000000000000000006001600160a01b0316908290823b1561080557602461ffff918360405195869485936310ddb13760e01b85521660048401525af18015610800576107f4575080f35b34610411576000366003190112610411576020600a54604051908152f35b60c090600319011261041157600490565b60c0906101231901126104115761012490565b60609060c31901126104115760c490565b908160609103126104115790565b9181601f84011215610411578235916001600160401b03831161041157602080850194610160850201011161041157565b610200366003190112610411576109d93661094f565b6109e236610973565b906109ec36610960565b916101e4356001600160401b03811161041157610a0d903690600401610992565b939091610a21610a1c85613167565b610809565b94604085013593610a3185614c95565b5092610a3c87613167565b6040516303408e4760e41b81526001600160a01b0395906020816004817f00000000000000000000000000000000000000000000000000000000000000008b165afa97881561080057610ad4610b2497610b1e97610ac4868f97610abe9060008051602061529f8339815191529f9a610ae299610b199c610b3c575b50614e8a565b50614bfd565b93604051968795602087016131dc565b03601f198101835282610f30565b610aef6040840135613fe8565b610af884613274565b91610b05610a1c8c613167565b610b1160208701613167565b9134946140bb565b613274565b94613167565b604051938452169261ffff169180602081015b0390a4005b610b5c9060203d8111610b63575b610b548183610f30565b810190612f70565b5038610ab8565b503d610b4a565b346104115760603660031901126104115761085d600435610b8a81610815565b602435610b9681610815565b60443591610ba5833383612ed5565b612ced565b3461041157600036600319011261041157602060405160128152f35b8015150361041157565b359061083182610bc6565b346104115760a036600319011261041157600435610bf881610405565b60643590610c0582610bc6565b608435906001600160401b03821161041157610c2a6105466040933690600401610416565b90610c61610c44610c3c604435614bfd565b602435614ccc565b928451958694859463040a7bb160e41b86523090600487016146aa565b03817f00000000000000000000000000000000000000000000000000000000000000006001600160a01b03165afa908115610800576000908192610cb2575b50604080519182526020820192909252f35b9050610cd5915060403d8111610cdc575b610ccd8183610f30565b810190614694565b9038610ca0565b503d610cc3565b3461041157604036600319011261041157600435610d0081610815565b336000526009602052610d178160406000206120c4565b546024358101809111610d2e5761085d9133612dbc565b612bfb565b90604060031983011261041157600435610d4c81610405565b91602435906001600160401b038211610411576104b591600401610416565b3461041157602061ffff610db8610d8136610d33565b9390911660005260018452610da3610daa60406000206040519283809261146f565b0382610f30565b848151910120923691610f9b565b82815191012014604051908152f35b61ffff166000526007602052604060002090565b346104115760203660031901126104115761ffff600435610dfb81610405565b1660005260036020526020604060002054604051908152f35b3461041157610e2236610d33565b9190610e2c612ba3565b7f00000000000000000000000000000000000000000000000000000000000000006001600160a01b031691823b1561041157604051928380926342d65a8d60e01b825281610e836000988997889460048501614244565b03925af18015610800576107f4575080f35b3461041157600036600319011261041157602060405160008152f35b634e487b7160e01b600052604160045260246000fd5b6001600160401b038111610eda57604052565b610eb1565b60c081019081106001600160401b03821117610eda57604052565b606081019081106001600160401b03821117610eda57604052565b604081019081106001600160401b03821117610eda57604052565b601f909101601f19168101906001600160401b03821190821017610eda57604052565b6040519061016082016001600160401b03811183821017610eda57604052565b6040519061083182610efa565b6001600160401b038111610eda57601f01601f191660200190565b929192610fa782610f80565b91610fb56040519384610f30565b829481845281830111610411578281602093846000960137010152565b9080601f830112156104115781602061068793359101610f9b565b9060606003198301126104115760043561100681610405565b91602435906001600160401b0382116104115761102591600401610fd2565b9060443561068781610443565b60209061104c92826040519483868095519384920161062e565b82019081520301902090565b9060018060401b0316600052602052604060002090565b346104115760206110ba61ffff6110ac8361108936610fed565b94909116600052600582526040600020826040519483868095519384920161062e565b820190815203019020611058565b54604051908152f35b3461041157600036600319011261041157602060ff601054166040519015158152f35b34610411576110f436610454565b91929493903033036111185761054d61111292610019973691610f9b565b926146ee565b60405162461bcd60e51b815260206004820152602660248201527f4e6f6e626c6f636b696e674c7a4170703a2063616c6c6572206d7573742062656044820152650204c7a4170760d41b6064820152608490fd5b60a03660031901126104115760043561118481610815565b60243561119081610405565b604435916084356001600160401b03811161041157602061ffff6111c760008051602061529f833981519152933690600401610984565b9361123a85356111d681610815565b6111f461054686890135986111ea8a610815565b604081019061449e565b6111fe818a614aff565b61121361120c606435614c95565b5085614e8a565b9761121f8915156148a3565b61123161122b8a614bfd565b8c614ccc565b9234938b6140bb565b6040519485526001600160a01b0316941692a4005b60c03660031901126104115760043561126781610405565b6001600160401b0360243581811161041157611287903690600401610416565b909160443561129581610815565b608435828111610411576112ad903690600401610984565b9160a435908111610411576112c6903690600401610992565b946112d5610abe606435614c95565b6040516303408e4760e41b8152906020826004817f00000000000000000000000000000000000000000000000000000000000000006001600160a01b03165afa918215610800576113659861135c956113539461134593600091611391575b50604051998a9533602088016130ac565b03601f198101865285610f30565b34943691610f9b565b913390866140bb565b60405190339160008051602061529f83398151915261ffff3393169180610b3781906000602083019252565b6113a9915060203d8111610b6357610b548183610f30565b38611334565b34610411576020366003190112610411576004356113cc81610815565b60018060a01b031660005260086020526020604060002054604051908152f35b346104115760008060031936011261076757611406612ba3565b80546001600160a01b03198116825581906001600160a01b03166000805160206152ff8339815191528280a380f35b90600182811c92168015611465575b602083101461144f57565b634e487b7160e01b600052602260045260246000fd5b91607f1691611444565b906000929180549161148083611435565b9182825260019384811690816000146114e257506001146114a2575b50505050565b90919394506000526020928360002092846000945b8386106114ce57505050500101903880808061149c565b8054858701830152940193859082016114b7565b9294505050602093945060ff191683830152151560051b0101903880808061149c565b90610831611519926040519384809261146f565b0383610f30565b346104115760203660031901126104115761ffff60043561154081610405565b1660005260016020526106e2610da361156360406000206040519283809261146f565b604051918291602083526020830190610651565b60e03660031901126104115760043561158f81610815565b60243561159b81610405565b604435916001600160401b0390608435828111610411576115c0903690600401610416565b91909260a435916115d083610443565b60c435828111610411576115e8903690600401610984565b9261161f8435956115f887610815565b61161761160d6020880135976111ea89610815565b9990923691610f9b565b973691610f9b565b9460ff600654166000146117135760228651106116cf578560209561123161123a9461169d8c61168a61ffff9a8b602260008051602061529f8339815191529f0151931660005260028d52841661168460406000206001600052602052604060002090565b54612c2d565b90611696821515614b54565b1015614b9d565b6116b26116ab606435614c95565b5088614e8a565b9a6116be8c15156148a3565b8d6116c88d614bfd565b9033614d47565b60405162461bcd60e51b815260206004820152601c60248201527b4c7a4170703a20696e76616c69642061646170746572506172616d7360201b6044820152606490fd5b9480949350516117405760008051602061529f8339815191529460209461ffff9461123161123a9461169d565b60405162461bcd60e51b815260206004820152602660248201527f4f4654436f72653a205f61646170746572506172616d73206d7573742062652060448201526532b6b83a3c9760d11b6064820152608490fd5b346104115760a0366003190112610411576004356117b181610815565b602435906117be82610405565b6001600160401b03604435818111610411576117de903690600401610fd2565b6064356117ea81610443565b6084359280841161041157859461186561ffff946119319461181f6000805160206152df833981519152983690600401610fd2565b916000806118366020865187010160208701613585565b9a93509891909a7f00000000000000000000000000000000000000000000000000000000000000009116614c82565b9760408a019d8e998a52611878306120aa565b5499876118a76118a361189c8361189761189188610dc7565b8d611032565b611058565b5460ff1690565b1590565b611996575b505050896119116118bc306120aa565b5499610ad46118cb8451610809565b946060850151926118df6080870151610809565b956118f2602060a0830151920151610809565b90604051978896602088019a63f7bd4ec360e01b8c5260248901613714565b51915af49361191e613798565b9415611952575b50505050505051610809565b92516040519081526001600160a01b0390931693169180602081015b0390a3005b6119719561195f916137e6565b8a518091101561197c575b508a614347565b388080808080611925565b6119909061198a8851610809565b306137f3565b3861196a565b6118976119b36119c6946119ae6119b9955130614fa0565b610dc7565b89611032565b805460ff19166001179055565b8e8e876118ac565b3461041157600036600319011261041157602060405160ff7f0000000000000000000000000000000000000000000000000000000000000000168152f35b346104115760403660031901126104115760206110ba600435611a2e81610405565b61ffff60243591611a3e83610405565b166000526002835260406000209061ffff16600052602052604060002090565b34610411576000366003190112610411576000546040516001600160a01b039091168152602090f35b34610411576000366003190112610411576020601154604051908152f35b34610411576000366003190112610411576004546040516001600160a01b039091168152602090f35b34610411576000806003193601126107675760405181600c54611af081611435565b8084529060019081811690811561073f5750600114611b19576106e2846106d681880382610f30565b600c8352602094507fdf6966c971051c3d54ec59162606531493a51404a002842f56009d7e5cf4a8c75b828410611b5f57505050816106e2936106d692820101936106c6565b8054858501870152928501928101611b43565b3461041157602060ff611bb161ffff6110ac84611b8e36610fed565b94909116600052600782526040600020826040519483868095519384920161062e565b54166040519015158152f35b34610411576000366003190112610411576020601254604051908152f35b346104115760203660031901126104115761ffff600435611bfb81610405565b166000526001602052610da3611c1b60406000206040519283809261146f565b805115611c39576106d681611c336106e293516137c8565b906150a4565b60405162461bcd60e51b815260206004820152601d60248201527f4c7a4170703a206e6f20747275737465642070617468207265636f72640000006044820152606490fd5b3461041157604036600319011261041157600435611c9b81610815565b60243590336000526009602052611cb68160406000206120c4565b5491808310611cd757611ccb92039033612dbc565b60405160018152602090f35b60405162461bcd60e51b815260206004820152602560248201527f45524332303a2064656372656173656420616c6c6f77616e63652062656c6f77604482015264207a65726f60d81b6064820152608490fd5b346104115760e036600319011261041157600435611d4781610405565b6001600160401b039060643582811161041157611d68903690600401610416565b608492919235611d7781610443565b60a43591611d8483610bc6565b60c43595861161041157611d9f611daf963690600401610416565b95909460443590602435906144d0565b60408051928352602083019190915290f35b3461041157611dcf36610d33565b90611dd8612ba3565b60405192602092808385870137611e046034868381013060601b88820152036014810188520186610f30565b61ffff8216600090815260018086526040822087519296909291906001600160401b038311610eda57611e4183611e3b8654611435565b8661425f565b80601f8411600114611e9f575091808092611e8e9695948a9b6000805160206152bf8339815191529b94611e94575b50501b916000199060031b1c19161790555b60405193849384614244565b0390a180f35b015192503880611e70565b91939498601f198416611eb787600052602060002090565b938a905b828210611f0c575050916000805160206152bf833981519152999a95939185611e8e98969410611ef3575b505050811b019055611e82565b015160001960f88460031b161c19169055388080611ee6565b808886978294978701518155019601940190611ebb565b346104115760403660031901126104115761085d600435611f4381610815565b6024359033612ced565b34610411576020366003190112610411576001600160401b0360043581811161041157611f93611f84611fd5923690600401610fd2565b602080825183010191016133f0565b9694509491909260018060a01b0316958051612056575b5047937f00000000000000000000000000000000000000000000000000000000000000009116614c82565b90303b156104115760405163695ef6bf60e01b815292600092849283918291612004918a8a81600487016134b9565b0391305af180156108005761203d575b506000805160206152df83398151915261ffff6040519216918061194d81906000602083019252565b8061204a61205092610ec7565b80610623565b38612014565b61205f90613c05565b38611faa565b34610411576000366003190112610411576040517f00000000000000000000000000000000000000000000000000000000000000006001600160a01b03168152602090f35b6001600160a01b0316600090815260086020526040902090565b9060018060a01b0316600052602052604060002090565b3461041157604036600319011261041157602060ff611bb16024356120ff81610815565b600435600052600e845260406000206120c4565b34610411576020366003190112610411577f5db758e995a17ec1ad84bdef7e8c3293a0bd6179bcce400dff5d4c3d87db726b602060043561215381610815565b61215b612ba3565b600480546001600160a01b0319166001600160a01b03929092169182179055604051908152a1005b346104115760003660031901126104115760206040516127108152f35b34610411576080366003190112610411576004356121bd81610405565b6024356121c981610405565b6064356001600160401b038111610411576121e8903690600401610416565b90926121f2612ba3565b7f00000000000000000000000000000000000000000000000000000000000000006001600160a01b031690813b156104115760008094612269604051978896879586946332fb62e760e21b865261ffff80921660048701521660248501526044356044850152608060648501526084840191612f91565b03925af180156108005761227957005b8061204a61001992610ec7565b3461041157600036600319011261041157600d546040516001600160a01b039091168152602090f35b6122b836610454565b9161ffff869492961660005260056020526122ec81604060002060206040518092878b833787820190815203019020611058565b5491821561239657612385848361237e7fc264d91f3adc5588250e1551f547752ca0cfa8f6b530d243b9f9f4cab10ea8e59a600061236a846118978e8a8f6123919f908f612350906123436123649436908d610f9b565b6020815191012014614411565b61ffff166000526005602052604060002090565b916143f8565b5561237636878d610f9b565b933691610f9b565b91886146ee565b60405195869586614467565b0390a1005b60405162461bcd60e51b815260206004820152602360248201527f4e6f6e626c6f636b696e674c7a4170703a206e6f2073746f726564206d65737360448201526261676560e81b6064820152608490fd5b346104115760403660031901126104115760206110ba60043561240981610815565b6024359061241682610815565b6001600160a01b0316600090815260098452604090206120c4565b34610411576000366003190112610411576040517f00000000000000000000000000000000000000000000000000000000000000006001600160a01b03168152602090f35b346104115760603660031901126104115760043561249381610405565b60243561249f81610405565b604435916124ab612ba3565b8215612526576123917f9d5c7c0b934da8fefa9c7760c98383778a12dfbfc0c3b3106518f43fb9508ac09361ffff83166000526002602052806125008560406000209061ffff16600052602052604060002090565b556040519384938460409194939294606082019561ffff80921683521660208201520152565b60405162461bcd60e51b81526020600482015260156024820152744c7a4170703a20696e76616c6964206d696e47617360581b6044820152606490fd5b3461041157600036600319011261041157602060405160018152f35b34610411576020366003190112610411577f1584ad594a70cbe1e6515592e1272a987d922b097ead875069cebe8b40c004a460206004356125bf81610bc6565b6125c7612ba3565b151560ff196006541660ff821617600655604051908152a1005b3461041157610100366003190112610411576004356125ff81610405565b6001600160401b039060243582811161041157612620903690600401610416565b91906044359061262f82610443565b60843561263b81610815565b60c43595861161041157612656610019963690600401610416565b94909360e4359660a43594606435936145c7565b346104115761267836610d33565b9190612682612ba3565b61ffff82166000908152600160208181526040832092949291906001600160401b038711610eda576126be876126b88554611435565b8561425f565b8590601f88116001146127135750918680879893611e8e9560008051602061533f8339815191529993612708575b501b906000198460031b1c191617905560405193849384614244565b8801359250386126ec565b90601f19881661272885600052602060002090565b9288905b82821061277c5750509188939160008051602061533f8339815191529899611e8e969410612762575b505082811b019055611e82565b870135600019600386901b60f8161c191690553880612755565b808685968294968c0135815501950193019061272c565b3461041157604036600319011261041157602060ff611bb16024356127b781610815565b600435600052600f845260406000206120c4565b3461041157600036600319011261041157602060ff600654166040519015158152f35b346104115760203660031901126104115760043561280b81610815565b612813612ba3565b6001600160a01b03908116801561284f57600080546001600160a01b03198116831782559092166000805160206152ff8339815191528380a380f35b60405162461bcd60e51b815260206004820152602660248201527f4f776e61626c653a206e6577206f776e657220697320746865207a65726f206160448201526564647265737360d01b6064820152608490fd5b34610411576080366003190112610411576004356128c081610405565b602435906128cd82610405565b6128d8604435610815565b604051633d7b2f6f60e21b815261ffff91821660048201529116602482015230604482015260648035908201526000816084817f00000000000000000000000000000000000000000000000000000000000000006001600160a01b03165afa8015610800576106e291600091612956575b5060405191829182610676565b612971913d8091833e6129698183610f30565b81019061421f565b38612949565b6001600160401b038111610eda5760051b60200190565b60ff81160361041157565b35906108318261298e565b81601f82011215610411578035906129bb82612977565b926040906129cb82519586610f30565b838552602091828601918361016080970286010194818611610411578401925b8584106129fc575050505050505090565b868483031261041157848791612a10610f53565b612a1987610bd0565b8152612a26838801610bd0565b83820152612a35868801610826565b868201526060612a46818901610bd0565b908201526080612a57818901610826565b9082015260a0612a68818901610826565b9082015260c0808801359082015260e08088013590820152610100612a8e818901612999565b90820152610120808801359082015261014080880135908201528152019301926129eb565b346104115761018036600319011261041157600435612ad181610815565b604435612add81610815565b608435612ae981610815565b60c03660a31901126104115760405190612b0282610edf565b60a435612b0e81610bc6565b825260c435612b1c81610815565b602083015260e435612b2d81610405565b604083015261010435606083015261012435612b4881610815565b60808301526101443560a083015261016435936001600160401b03851161041157612b7a6100199536906004016129a4565b9360643591602435906139ac565b34610411576000366003190112610411576020604051308152f35b6000546001600160a01b03163303612bb757565b606460405162461bcd60e51b815260206004820152602060248201527f4f776e61626c653a2063616c6c6572206973206e6f7420746865206f776e65726044820152fd5b634e487b7160e01b600052601160045260246000fd5b90601f8201809211610d2e57565b6051019081605111610d2e57565b91908201809211610d2e57565b15612c4157565b60405162461bcd60e51b815260206004820152602360248201527f45524332303a207472616e7366657220746f20746865207a65726f206164647260448201526265737360e81b6064820152608490fd5b15612c9957565b60405162461bcd60e51b815260206004820152602660248201527f45524332303a207472616e7366657220616d6f756e7420657863656564732062604482015265616c616e636560d01b6064820152608490fd5b916001600160a01b038084169290918315612d6957612d4e8260008051602061531f83398151915294612d64941696612d27881515612c3a565b612d4884612d34836120aa565b54612d4182821015612c92565b03916120aa565b556120aa565b8054820190556040519081529081906020820190565b0390a3565b60405162461bcd60e51b815260206004820152602560248201527f45524332303a207472616e736665722066726f6d20746865207a65726f206164604482015264647265737360d81b6064820152608490fd5b6001600160a01b038082169291908315612e84578216938415612e345780612e237f8c5be1e5ebec7d5bd14f71427d1e84f3dd0314c0f7b2291e5b200ac8c7c3b92594612e1e612d649560018060a01b03166000526009602052604060002090565b6120c4565b556040519081529081906020820190565b60405162461bcd60e51b815260206004820152602260248201527f45524332303a20617070726f766520746f20746865207a65726f206164647265604482015261737360f01b6064820152608490fd5b60405162461bcd60e51b8152602060048201526024808201527f45524332303a20617070726f76652066726f6d20746865207a65726f206164646044820152637265737360e01b6064820152608490fd5b9060018060a01b0382166000526009602052612ef58160406000206120c4565b549260018401612f055750505050565b808410612f2057612f17930391612dbc565b3880808061149c565b60405162461bcd60e51b815260206004820152601d60248201527f45524332303a20696e73756666696369656e7420616c6c6f77616e63650000006044820152606490fd5b519061083182610405565b90816020910312610411575161068781610405565b6040513d6000823e3d90fd5b908060209392818452848401376000828201840152601f01601f1916010190565b9190808252602080920192916000905b828210612fd0575050505090565b9091929380612fea600192612fe488610bd0565b15159052565b613000612ff8848801610bd0565b151582850152565b61301f6040613010818901610826565b6001600160a01b031690830152565b613037606061302f818901610bd0565b151590830152565b6130476080613010818901610826565b61305760a0613010818901610826565b60c0808701359082015260e0808701359082015261308561010061307c818901612999565b60ff1690830152565b61012086810135908201526101408087013590820152610160908101950193920190612fc2565b61030a81526001600160a01b0391821660208201526001600160401b03928316604082015260c060608201529195939492908082356130ea81610815565b1660c084015260208201356130fe81610815565b1660e08301526040810135601e19823603018112156104115701946020863596019086116104115785360381136104115761314d61315a91610687976060610100860152610120850191612f91565b61ffff9095166080830152565b60a0818503910152612fb2565b3561068781610815565b60a08091803561318081610bc6565b15158452602081013561319281610815565b600180841b03809116602086015261ffff60408301356131b181610405565b1660408601526060820135606086015260808201356131cf81610815565b1660808501520135910152565b919260a0610687969461326293610309865260018060401b03166020860152803561320681610815565b600180841b03809116604087015280602083013561322381610815565b16606087015260408201356080870152606082013583870152608082013561324a81610815565b1660c0860152013560e0840152610100830190613171565b6101e090816101c08201520191612fb2565b3561068781610405565b519061083182610815565b81601f8201121561041157805161329f81610f80565b926132ad6040519485610f30565b8184526020828401011161041157610687916020808501910161062e565b519061083182610bc6565b51906108318261298e565b81601f82011215610411578051906132f882612977565b9260409061330882519586610f30565b838552602091828601918361016080970286010194818611610411578401925b858410613339575050505050505090565b86848303126104115784879161334d610f53565b613356876132cb565b81526133638388016132cb565b8382015261337286880161327e565b8682015260606133838189016132cb565b90820152608061339481890161327e565b9082015260a06133a581890161327e565b9082015260c0808801519082015260e080880151908201526101006133cb8189016132d6565b9082015261012080880151908201526101408088015190820152815201930192613328565b909160c08284031261041157815161340781610405565b92602083015161341681610815565b92604081015161342581610443565b606082015190936001600160401b03929091838111610411578101606081860312610411576040519061345782610efa565b805161346281610815565b8252602081015161347281610815565b60208301526040810151908582116104115761349091879101613289565b6040820152936134a260808301612f65565b9360a08301519081116104115761068792016132e1565b939061068795916101009461ffff60409560018060a01b03809516895216602088015284870152606086015260a060808601528082511660a086015260208201511660c0850152015191606060e08201520190610651565b91908260c09103126104115760405161352981610edf565b60a0808294805161353981610bc6565b8452602081015161354981610815565b6020850152604081015161355c81610405565b604085015260608101516060850152608081015161357981610815565b60808501520151910152565b808203916101e0831261041157815161359d81610405565b9360c060208401516135ae81610443565b94603f190112610411576040516135c481610edf565b60408401516135d281610815565b815260608401516135e281610815565b60208201526080840151604082015260a0840151606082015260c084015161360981610815565b608082015260e084015160a082015292613627836101008301613511565b6101c08201519093906001600160401b0381116104115761068792016132e1565b90815180825260208080930193019160005b828110613668575050505090565b9091929382610160600192875161368182825115159052565b808401511515828501526040818101516001600160a01b0316908301526060818101511515908301526080818101516001600160a01b03169083015260a0818101516001600160a01b03169083015260c0818101519083015260e080820151908301526101008082015160ff1690830152610120818101519083015261014090810151908201520195019392910161365a565b9460a0946106879897949392600180881b03948594858093168a5260208a0152166040880152606087015216608085015281511515838501528060208301511660c085015261ffff60408301511660e08501526060820151610100850152608082015116610120840152015161014082015261018090816101608201520190613648565b3d156137c3573d906137a982610f80565b916137b76040519384610f30565b82523d6000602084013e565b606090565b601319810191908211610d2e57565b605019810191908211610d2e57565b91908203918211610d2e57565b60405163a9059cbb60e01b602082019081526001600160a01b039384166024830152604480830195909552938152608081019290916001600160401b03841183851017610eda5761389094600092839286604052169361385286610f15565b602086527f5361666545524332303a206c6f772d6c6576656c2063616c6c206661696c656460a0820152519082855af161388a613798565b91613917565b80518061389b575050565b81602091810103126104115760206108319101516138b881610bc6565b156138bf57565b60405162461bcd60e51b815260206004820152602a60248201527f5361666545524332303a204552433230206f7065726174696f6e20646964206e6044820152691bdd081cdd58d8d9595960b21b6064820152608490fd5b91929015613979575081511561392b575090565b3b156139345790565b60405162461bcd60e51b815260206004820152601d60248201527f416464726573733a2063616c6c20746f206e6f6e2d636f6e74726163740000006044820152606490fd5b82519091501561398c5750805190602001fd5b60405162461bcd60e51b81529081906139a89060048301610676565b0390fd5b9190939294958051613b04575b506001600160a01b0392831690813b156104115760405163286fbdcd60e21b815260048101959095526001600160a01b0316602485015260448401859052600094939085908290606490829084905af1801561080057613af1575b50845115613ad557613a2f610a1c610a1c6020880151610809565b91613a3f604087015161ffff1690565b911690613a5c60a0613a546080890151610809565b970151613fe8565b613a84613a67610f73565b6001600160a01b0385168152976001600160a01b03166020890152565b6040870152823b15613ad1578490613ab36040519788968795869463695ef6bf60e01b865230600487016134b9565b03925af1801561080057613ac45750565b8061204a61083192610ec7565b8480fd5b91925050613aec610a1c6020610831950151610809565b6137f3565b8061204a613afe92610ec7565b38613a14565b613b0d90613c05565b386139b9565b8051821015613b275760209160051b010190565b634e487b7160e01b600052603260045260246000fd5b9360ff929897969360c0969260e087019a60018060a01b0380921688521660208701526040860152606085015216608083015260a08201520152565b60009060033d11613b8657565b905060046000803e60005160e01c90565b600060443d1061068757604051600319913d83016004833e81516001600160401b03918282113d602484011117613bf457818401948551938411613bfc573d85010160208487010111613bf4575061068792910160200190610f30565b949350505050565b50949350505050565b60005b8151811015613fe457613c286060613c208385613b13565b510151151590565b15613d97576040613c52610a1c610a1c83613c438688613b13565b5101516001600160a01b031690565b90613c626080613c438587613b13565b613c7160a0613c438688613b13565b9260c0613c7e8688613b13565b51015160e0613c8d8789613b13565b51015190613caa610100613ca1898b613b13565b51015160ff1690565b93610120613cb8898b613b13565b510151610140613cc88a8c613b13565b51015190853b1561041157875196879586956301da8bf160e41b875260049b8c880196613cf497613b3d565b03815a6000948591f19081613d84575b50613d7a57600191613d14613b79565b6308c379a014613d2f575b5050610800576001905b01613c08565b613d37613b97565b9081613d44575b50613d1f565b600093509091613d5c6118a36020613c20888a613b13565b15613d3e575162461bcd60e51b81529182916139a891908301610676565b5050600190613d29565b8061204a613d9192610ec7565b38613d04565b613dab613da48284613b13565b5151151590565b15613f16576040613dc6610a1c610a1c83613c438688613b13565b90613dd66080613c438587613b13565b91613de660a0613c438688613b13565b60e0613df28688613b13565b51015191613e06610100613ca1888a613b13565b90610120613e14888a613b13565b51015193610140613e25898b613b13565b510151823b1561041157865163aba0784760e01b81526001600160a01b03988916600480830191909152989095166024860152604485019190915260ff9092166064840152608483019390935260a482015290600090829081838160c4810103925af19081613f03575b50613d7a57600191613e9f613b79565b6308c379a014613eb8575b505061080057600190613d29565b613ec0613b97565b9081613ecd575b50613eaa565b600093509091613ee56118a36020613c20888a613b13565b15613ec7575162461bcd60e51b81529182916139a891908301610676565b8061204a613f1092610ec7565b38613e8f565b6040613f2c610a1c610a1c83613c438688613b13565b90613f3c6080613c438587613b13565b613f4b60a0613c438688613b13565b9260c0613f588688613b13565b51015160e0613f678789613b13565b51015190613f7b610100613ca1898b613b13565b93610120613f89898b613b13565b510151610140613f998a8c613b13565b51015190853b15610411578751968795869563d505accf60e01b875260049b8c880196613fc597613b3d565b03815a6000948591f19081613f035750613d7a57600191613e9f613b79565b5050565b60405190600160f01b602083015260228201526022815261068781610efa565b1561400f57565b60405162461bcd60e51b815260206004820152602660248201527f4c7a4170703a20696e76616c696420736f757263652073656e64696e6720636f6044820152651b9d1c9858dd60d21b6064820152608490fd5b9261408861068797959361ffff6140969416865260c0602087015260c0860190610651565b908482036040860152610651565b6001600160a01b0391821660608401529316608082015280830360a090910152610651565b946140e49193929561ffff811660005260016020526140eb60406000206040519485809261146f565b0384610f30565b825115614152576140fd8551826141b0565b7f00000000000000000000000000000000000000000000000000000000000000006001600160a01b031693843b1561041157600096613ab391604051998a988997889662c5803160e81b885260048801614063565b60405162461bcd60e51b815260206004820152603060248201527f4c7a4170703a2064657374696e6174696f6e20636861696e206973206e6f742060448201526f61207472757374656420736f7572636560801b6064820152608490fd5b61ffff166000526003602052604060002054908115614215575b116141d157565b606460405162461bcd60e51b815260206004820152602060248201527f4c7a4170703a207061796c6f61642073697a6520697320746f6f206c617267656044820152fd5b61271091506141ca565b906020828203126104115781516001600160401b038111610411576106879201613289565b60409061ffff61068795931681528160208201520191612f91565b90601f811161426d57505050565b600091825260208220906020601f850160051c830194106142a9575b601f0160051c01915b82811061429e57505050565b818155600101614292565b9092508290614289565b9290916143255a604051633356ae4560e11b602082015261ffff87166024820152608060448201529061431f826143116142f060a483018a610651565b6001600160401b038816606484015282810360231901608484015288610651565b03601f198101845283610f30565b30615253565b939015614334575b5050505050565b61433d94614347565b388080808061432d565b91936143e57fe183f33de2837795525b4792ca4cd60535bd77c53b7e7030060bfcf5734d6b0c956143f3939561ffff815160208301209616958660005260056020526143ab836110ac60208b6040600020826040519483868095519384920161062e565b556143c8604051978897885260a0602089015260a0880190610651565b6001600160401b0390921660408701528582036060870152610651565b908382036080850152610651565b0390a1565b6020919283604051948593843782019081520301902090565b1561441857565b60405162461bcd60e51b815260206004820152602160248201527f4e6f6e626c6f636b696e674c7a4170703a20696e76616c6964207061796c6f616044820152601960fa1b6064820152608490fd5b9160609361ffff61448a9398979698168452608060208501526080840191612f91565b6001600160401b0390951660408201520152565b903590601e198136030182121561041157018035906001600160401b0382116104115760200191813603831361041157565b9491959897906116c86144f96040996144f16144ff9761451c993691610f9b565b943691610f9b565b97614bfd565b928451968794859463040a7bb160e41b86523090600487016146aa565b03817f00000000000000000000000000000000000000000000000000000000000000006001600160a01b03165afa91821561080057600090819361455f57509190565b90506104b591925060403d8111610cdc57610ccd8183610f30565b9396949161068798969361ffff61459f9316865260c0602087015260c0860191612f91565b6001600160401b0390961660408401526060830152608082015280840360a090910152612f91565b9196979298959493909430330361464f576145e3908530614ff0565b60405181815290946001600160a01b03169390849061ffff8516906000805160206152df83398151915290602090a3833b1561041157600098899561463f936040519c8d9b8c9a8b98633fe79aed60e11b8a5260048a0161457a565b0393f1801561080057613ac45750565b60405162461bcd60e51b815260206004820152601f60248201527f4f4654436f72653a2063616c6c6572206d757374206265204f4654436f7265006044820152606490fd5b9190826040910312610411576020825192015190565b9192610687959361ffff6146d99316845260018060a01b0316602084015260a0604084015260a0830190610651565b92151560608201526080818403910152610651565b92919060ff6146fc846151f8565b168061484f5750505060ff614710826151f8565b161580614844575b61472190614d00565b61473361472d826151a8565b91615243565b90916001600160a01b03918284161561483a575b61477b907f0000000000000000000000000000000000000000000000000000000000000000906001600160401b0316614c82565b9183169283156147f5576000805160206152df833981519152916147b561ffff926147b06147ab87600a54612c2d565b600a55565b6120aa565b84815401905584600060008051602061531f833981519152604051806147e089829190602083019252565b0390a360405193845216918060208101612d64565b60405162461bcd60e51b815260206004820152601f60248201527f45524332303a206d696e7420746f20746865207a65726f2061646472657373006044820152606490fd5b61dead9350614747565b508051602914614718565b60010361485f5761083193614978565b60405162461bcd60e51b815260206004820152601c60248201527b4f4654436f72653a20756e6b6e6f776e207061636b6574207479706560201b6044820152606490fd5b156148aa57565b60405162461bcd60e51b815260206004820152601960248201527813d19510dbdc994e88185b5bdd5b9d081d1bdbc81cdb585b1b603a1b6044820152606490fd5b989796929361491560e0979361ffff61494a9894168c5260208c61010091829101528c0190610651565b6001600160401b0390951660408b015260608a01526001600160a01b0316608089015260a088015286820360c0880152610651565b930152565b61496760409295949395606083526060830190610651565b94600180841b031660208201520152565b909161498384614db1565b909161499e61189c876118976149988b610dc7565b8c611032565b916001600160401b03916149d5907f0000000000000000000000000000000000000000000000000000000000000000908416614c82565b9288888b8315614ad1575b505050853b15614a865794614a27969461431f948a94614311948d99600014614a7f5750505a925b5a978b6040519a8b9863757fea4d60e11b60208b015260248a016148eb565b9015614a74575090614a6f61ffff928560207fb8890edbfc1c74692f527444645f95489c3703cc2df42e4a366f5d06fa6cd8849697519101209060405194859416968461494f565b0390a2565b926108319492614347565b1692614a08565b50506040516001600160a01b039094168452507f9aedf5fdba8716db3b6705ca00150643309995d4f818a249ed6dde6677e7792d9750919550859450506020840192506143f3915050565b906118976119b992614af189614aeb614af7979b30614fa0565b99610dc7565b90611032565b88888b6149e0565b60065460ff1615614b4c5760228251106116cf5761ffff602261083193015191166000526002602052614b3f604060002060008052602052604060002090565b5490611696821515614b54565b505161174057565b15614b5b57565b60405162461bcd60e51b815260206004820152601a602482015279131e905c1c0e881b5a5b91d85cd31a5b5a5d081b9bdd081cd95d60321b6044820152606490fd5b15614ba457565b60405162461bcd60e51b815260206004820152601b60248201527a4c7a4170703a20676173206c696d697420697320746f6f206c6f7760281b6044820152606490fd5b634e487b7160e01b600052601260045260246000fd5b7f0000000000000000000000000000000000000000000000000000000000000000908115614c7d576001600160401b03919004818111614c3b571690565b60405162461bcd60e51b815260206004820152601a6024820152794f4654436f72653a20616d6f756e745344206f766572666c6f7760301b6044820152606490fd5b614be7565b81810292918115918404141715610d2e57565b7f00000000000000000000000000000000000000000000000000000000000000008015614c7d57810690818103908111610d2e5791565b60405160006020820152602181019190915260c09190911b6001600160c01b03191660418201526029815261068781610efa565b15614d0757565b60405162461bcd60e51b815260206004820152601860248201527713d19510dbdc994e881a5b9d985b1a59081c185e5b1bd85960421b6044820152606490fd5b939260719261068794604051968794600160f81b6020870152602186015260018060c01b0319809360c01b16604186015260018060a01b0316604985015260c01b166069830152614da1815180926020868601910161062e565b8101036051810184520182610f30565b90614dc9600160ff614dc2856151f8565b1614614d00565b614dd2826151a8565b90614ddc83615243565b906049845110614e4d576049840151936051815110614e1157614e0e605182015191614e0881516137d7565b90615124565b91565b60405162461bcd60e51b8152602060048201526014602482015273746f55696e7436345f6f75744f66426f756e647360601b6044820152606490fd5b60405162461bcd60e51b8152602060048201526015602482015274746f427974657333325f6f75744f66426f756e647360581b6044820152606490fd5b6001600160a01b038116338103614f39575b8015614eea5781614ebf84614eb26000956120aa565b54612d4182821015614f49565b55614ecd83600a5403600a55565b60405183815260008051602061531f83398151915290602090a390565b60405162461bcd60e51b815260206004820152602160248201527f45524332303a206275726e2066726f6d20746865207a65726f206164647265736044820152607360f81b6064820152608490fd5b614f44833384612ed5565b614e9c565b15614f5057565b60405162461bcd60e51b815260206004820152602260248201527f45524332303a206275726e20616d6f756e7420657863656564732062616c616e604482015261636560f01b6064820152608490fd5b6001600160a01b038116919082156147f557600a5490828201809211610d2e57600092614fe160209260008051602061531f83398151915294600a556120aa565b818154019055604051908152a3565b6106879183916001600160a01b03811630811415908161501c575b5015612ced57610ba5833383612ed5565b90503314153861500b565b1561502e57565b60405162461bcd60e51b815260206004820152600e60248201526d736c6963655f6f766572666c6f7760901b6044820152606490fd5b1561506b57565b60405162461bcd60e51b8152602060048201526011602482015270736c6963655f6f75744f66426f756e647360781b6044820152606490fd5b6150b8826150b181612c11565b1015615027565b6150c58282511015615064565b816150dd575050604051600081526020810160405290565b60405191601f811691821560051b808486010193838501920101905b8084106151115750508252601f01601f191660405290565b90928351815260208091019301906150f9565b615131826150b181612c11565b615146815161513f84612c1f565b1115615064565b8161515e575050604051600081526020810160405290565b60405191601f8116916051831560051b80858701019484860193010101905b8084106151955750508252601f01601f191660405290565b909283518152602080910193019061517d565b60218151106151bb57602d015160601c90565b60405162461bcd60e51b8152602060048201526015602482015274746f416464726573735f6f75744f66426f756e647360581b6044820152606490fd5b6001815110615208576001015190565b60405162461bcd60e51b8152602060048201526013602482015272746f55696e74385f6f75744f66426f756e647360681b6044820152606490fd5b6029815110614e11576029015190565b909291600080916040519561526787610edf565b6096875282602088019560a036883760208451940192f1903d9060968211615295575b6000908286523e9190565b6096915061528a56fed81fc9b8523134ed613870ed029d6170cbb73aa6a6bc311b9a642689fb9df59a8c0400cfe2d1199b1a725c78960bcc2a344d869b80590d0f2bd005db15a572cebf551ec93859b170f9b2141bd9298bf3f64322c6f7beb2543a0cb669834118bf8be0079c531659141344cd1fd0a4f28419497f9722a3daafe3b4186f6b6457e0ddf252ad1be2c89b69c2b068fc378daa952ba7f163c4a11628f55a4df523b3effa41487ad5d6728f0b19276fa1eddc16558578f5109fc39d2dc33c3230470daba26469706673582212204407e00fb091e915f7881f221e270c30e679eaf6c04612a59d71e26a8ab842b664736f6c63430008120033",
  "linkReferences": {},
  "deployedLinkReferences": {}
}