{
  "_format": "hh-sol-artifact-1",
  "contractName": "USDO",
  "sourceName": "contracts/usd0/USDO.sol",
  "abi": [
    {
      "inputs": [
        {
          "internalType": "address",
          "name": "_lzEndpoint",
          "type": "address"
        },
        {
          "internalType": "contract IYieldBoxBase",
          "name": "_yieldBox",
          "type": "address"
        },
        {
          "internalType": "contract ICluster",
          "name": "_cluster",
          "type": "address"
        },
        {
          "internalType": "address",
          "name": "_owner",
          "type": "address"
        },
        {
          "internalType": "address payable",
          "name": "_leverageModule",
          "type": "address"
        },
        {
          "internalType": "address payable",
          "name": "_leverageDestinationModule",
          "type": "address"
        },
        {
          "internalType": "address payable",
          "name": "_marketModule",
          "type": "address"
        },
        {
          "internalType": "address payable",
          "name": "_marketDestinationModule",
          "type": "address"
        },
        {
          "internalType": "address payable",
          "name": "_optionsModule",
          "type": "address"
        },
        {
          "internalType": "address payable",
          "name": "_optionsDestinationModule",
          "type": "address"
        },
        {
          "internalType": "address payable",
          "name": "_genericModule",
          "type": "address"
        }
      ],
      "stateMutability": "nonpayable",
      "type": "constructor"
    },
    {
      "anonymous": false,
      "inputs": [
        {
          "indexed": true,
          "internalType": "address",
          "name": "owner",
          "type": "address"
        },
        {
          "indexed": true,
          "internalType": "address",
          "name": "spender",
          "type": "address"
        },
        {
          "indexed": false,
          "internalType": "uint256",
          "name": "value",
          "type": "uint256"
        }
      ],
      "name": "Approval",
      "type": "event"
    },
    {
      "anonymous": false,
      "inputs": [
        {
          "indexed": true,
          "internalType": "uint16",
          "name": "_srcChainId",
          "type": "uint16"
        },
        {
          "indexed": false,
          "internalType": "bytes",
          "name": "_srcAddress",
          "type": "bytes"
        },
        {
          "indexed": false,
          "internalType": "uint64",
          "name": "_nonce",
          "type": "uint64"
        },
        {
          "indexed": false,
          "internalType": "bytes32",
          "name": "_hash",
          "type": "bytes32"
        }
      ],
      "name": "CallOFTReceivedSuccess",
      "type": "event"
    },
    {
      "anonymous": false,
      "inputs": [
        {
          "indexed": false,
          "internalType": "uint16",
          "name": "_srcChainId",
          "type": "uint16"
        },
        {
          "indexed": false,
          "internalType": "bytes",
          "name": "_srcAddress",
          "type": "bytes"
        },
        {
          "indexed": false,
          "internalType": "uint64",
          "name": "_nonce",
          "type": "uint64"
        },
        {
          "indexed": false,
          "internalType": "bytes",
          "name": "_payload",
          "type": "bytes"
        },
        {
          "indexed": false,
          "internalType": "bytes",
          "name": "_reason",
          "type": "bytes"
        }
      ],
      "name": "MessageFailed",
      "type": "event"
    },
    {
      "anonymous": false,
      "inputs": [
        {
          "indexed": false,
          "internalType": "address",
          "name": "_address",
          "type": "address"
        }
      ],
      "name": "NonContractAddress",
      "type": "event"
    },
    {
      "anonymous": false,
      "inputs": [
        {
          "indexed": true,
          "internalType": "address",
          "name": "previousOwner",
          "type": "address"
        },
        {
          "indexed": true,
          "internalType": "address",
          "name": "newOwner",
          "type": "address"
        }
      ],
      "name": "OwnershipTransferred",
      "type": "event"
    },
    {
      "anonymous": false,
      "inputs": [
        {
          "indexed": false,
          "internalType": "bool",
          "name": "oldState",
          "type": "bool"
        },
        {
          "indexed": false,
          "internalType": "bool",
          "name": "newState",
          "type": "bool"
        }
      ],
      "name": "PausedUpdated",
      "type": "event"
    },
    {
      "anonymous": false,
      "inputs": [
        {
          "indexed": true,
          "internalType": "uint16",
          "name": "_srcChainId",
          "type": "uint16"
        },
        {
          "indexed": true,
          "internalType": "address",
          "name": "_to",
          "type": "address"
        },
        {
          "indexed": false,
          "internalType": "uint256",
          "name": "_amount",
          "type": "uint256"
        }
      ],
      "name": "ReceiveFromChain",
      "type": "event"
    },
    {
      "anonymous": false,
      "inputs": [
        {
          "indexed": false,
          "internalType": "uint16",
          "name": "_srcChainId",
          "type": "uint16"
        },
        {
          "indexed": false,
          "internalType": "bytes",
          "name": "_srcAddress",
          "type": "bytes"
        },
        {
          "indexed": false,
          "internalType": "uint64",
          "name": "_nonce",
          "type": "uint64"
        },
        {
          "indexed": false,
          "internalType": "bytes32",
          "name": "_payloadHash",
          "type": "bytes32"
        }
      ],
      "name": "RetryMessageSuccess",
      "type": "event"
    },
    {
      "anonymous": false,
      "inputs": [
        {
          "indexed": true,
          "internalType": "uint16",
          "name": "_dstChainId",
          "type": "uint16"
        },
        {
          "indexed": true,
          "internalType": "address",
          "name": "_from",
          "type": "address"
        },
        {
          "indexed": true,
          "internalType": "bytes32",
          "name": "_toAddress",
          "type": "bytes32"
        },
        {
          "indexed": false,
          "internalType": "uint256",
          "name": "_amount",
          "type": "uint256"
        }
      ],
      "name": "SendToChain",
      "type": "event"
    },
    {
      "anonymous": false,
      "inputs": [
        {
          "indexed": true,
          "internalType": "address",
          "name": "_for",
          "type": "address"
        },
        {
          "indexed": false,
          "internalType": "bool",
          "name": "_status",
          "type": "bool"
        }
      ],
      "name": "SetBurnerStatus",
      "type": "event"
    },
    {
      "anonymous": false,
      "inputs": [
        {
          "indexed": false,
          "internalType": "uint16",
          "name": "_dstChainId",
          "type": "uint16"
        },
        {
          "indexed": false,
          "internalType": "uint16",
          "name": "_type",
          "type": "uint16"
        },
        {
          "indexed": false,
          "internalType": "uint256",
          "name": "_minDstGas",
          "type": "uint256"
        }
      ],
      "name": "SetMinDstGas",
      "type": "event"
    },
    {
      "anonymous": false,
      "inputs": [
        {
          "indexed": true,
          "internalType": "address",
          "name": "_for",
          "type": "address"
        },
        {
          "indexed": false,
          "internalType": "bool",
          "name": "_status",
          "type": "bool"
        }
      ],
      "name": "SetMinterStatus",
      "type": "event"
    },
    {
      "anonymous": false,
      "inputs": [
        {
          "indexed": false,
          "internalType": "address",
          "name": "precrime",
          "type": "address"
        }
      ],
      "name": "SetPrecrime",
      "type": "event"
    },
    {
      "anonymous": false,
      "inputs": [
        {
          "indexed": false,
          "internalType": "uint16",
          "name": "_remoteChainId",
          "type": "uint16"
        },
        {
          "indexed": false,
          "internalType": "bytes",
          "name": "_path",
          "type": "bytes"
        }
      ],
      "name": "SetTrustedRemote",
      "type": "event"
    },
    {
      "anonymous": false,
      "inputs": [
        {
          "indexed": false,
          "internalType": "uint16",
          "name": "_remoteChainId",
          "type": "uint16"
        },
        {
          "indexed": false,
          "internalType": "bytes",
          "name": "_remoteAddress",
          "type": "bytes"
        }
      ],
      "name": "SetTrustedRemoteAddress",
      "type": "event"
    },
    {
      "anonymous": false,
      "inputs": [
        {
          "indexed": false,
          "internalType": "bool",
          "name": "_useCustomAdapterParams",
          "type": "bool"
        }
      ],
      "name": "SetUseCustomAdapterParams",
      "type": "event"
    },
    {
      "anonymous": false,
      "inputs": [
        {
          "indexed": true,
          "internalType": "address",
          "name": "from",
          "type": "address"
        },
        {
          "indexed": true,
          "internalType": "address",
          "name": "to",
          "type": "address"
        },
        {
          "indexed": false,
          "internalType": "uint256",
          "name": "value",
          "type": "uint256"
        }
      ],
      "name": "Transfer",
      "type": "event"
    },
    {
      "inputs": [],
      "name": "DEFAULT_PAYLOAD_SIZE_LIMIT",
      "outputs": [
        {
          "internalType": "uint256",
          "name": "",
          "type": "uint256"
        }
      ],
      "stateMutability": "view",
      "type": "function"
    },
    {
      "inputs": [],
      "name": "DOMAIN_SEPARATOR",
      "outputs": [
        {
          "internalType": "bytes32",
          "name": "",
          "type": "bytes32"
        }
      ],
      "stateMutability": "view",
      "type": "function"
    },
    {
      "inputs": [],
      "name": "NO_EXTRA_GAS",
      "outputs": [
        {
          "internalType": "uint256",
          "name": "",
          "type": "uint256"
        }
      ],
      "stateMutability": "view",
      "type": "function"
    },
    {
      "inputs": [],
      "name": "PT_SEND",
      "outputs": [
        {
          "internalType": "uint8",
          "name": "",
          "type": "uint8"
        }
      ],
      "stateMutability": "view",
      "type": "function"
    },
    {
      "inputs": [],
      "name": "PT_SEND_AND_CALL",
      "outputs": [
        {
          "internalType": "uint8",
          "name": "",
          "type": "uint8"
        }
      ],
      "stateMutability": "view",
      "type": "function"
    },
    {
      "inputs": [
        {
          "internalType": "uint256",
          "name": "_fee",
          "type": "uint256"
        }
      ],
      "name": "addFlashloanFee",
      "outputs": [],
      "stateMutability": "nonpayable",
      "type": "function"
    },
    {
      "inputs": [
        {
          "internalType": "address",
          "name": "owner",
          "type": "address"
        },
        {
          "internalType": "address",
          "name": "spender",
          "type": "address"
        }
      ],
      "name": "allowance",
      "outputs": [
        {
          "internalType": "uint256",
          "name": "",
          "type": "uint256"
        }
      ],
      "stateMutability": "view",
      "type": "function"
    },
    {
      "inputs": [
        {
          "internalType": "uint256",
          "name": "",
          "type": "uint256"
        },
        {
          "internalType": "address",
          "name": "",
          "type": "address"
        }
      ],
      "name": "allowedBurner",
      "outputs": [
        {
          "internalType": "bool",
          "name": "",
          "type": "bool"
        }
      ],
      "stateMutability": "view",
      "type": "function"
    },
    {
      "inputs": [
        {
          "internalType": "uint256",
          "name": "",
          "type": "uint256"
        },
        {
          "internalType": "address",
          "name": "",
          "type": "address"
        }
      ],
      "name": "allowedMinter",
      "outputs": [
        {
          "internalType": "bool",
          "name": "",
          "type": "bool"
        }
      ],
      "stateMutability": "view",
      "type": "function"
    },
    {
      "inputs": [
        {
          "internalType": "address",
          "name": "spender",
          "type": "address"
        },
        {
          "internalType": "uint256",
          "name": "amount",
          "type": "uint256"
        }
      ],
      "name": "approve",
      "outputs": [
        {
          "internalType": "bool",
          "name": "",
          "type": "bool"
        }
      ],
      "stateMutability": "nonpayable",
      "type": "function"
    },
    {
      "inputs": [
        {
          "internalType": "address",
          "name": "account",
          "type": "address"
        }
      ],
      "name": "balanceOf",
      "outputs": [
        {
          "internalType": "uint256",
          "name": "",
          "type": "uint256"
        }
      ],
      "stateMutability": "view",
      "type": "function"
    },
    {
      "inputs": [
        {
          "internalType": "address",
          "name": "_from",
          "type": "address"
        },
        {
          "internalType": "uint256",
          "name": "_amount",
          "type": "uint256"
        }
      ],
      "name": "burn",
      "outputs": [],
      "stateMutability": "nonpayable",
      "type": "function"
    },
    {
      "inputs": [
        {
          "internalType": "uint16",
          "name": "_srcChainId",
          "type": "uint16"
        },
        {
          "internalType": "bytes",
          "name": "_srcAddress",
          "type": "bytes"
        },
        {
          "internalType": "uint64",
          "name": "_nonce",
          "type": "uint64"
        },
        {
          "internalType": "bytes32",
          "name": "_from",
          "type": "bytes32"
        },
        {
          "internalType": "address",
          "name": "_to",
          "type": "address"
        },
        {
          "internalType": "uint256",
          "name": "_amount",
          "type": "uint256"
        },
        {
          "internalType": "bytes",
          "name": "_payload",
          "type": "bytes"
        },
        {
          "internalType": "uint256",
          "name": "_gasForCall",
          "type": "uint256"
        }
      ],
      "name": "callOnOFTReceived",
      "outputs": [],
      "stateMutability": "nonpayable",
      "type": "function"
    },
    {
      "inputs": [],
      "name": "circulatingSupply",
      "outputs": [
        {
          "internalType": "uint256",
          "name": "",
          "type": "uint256"
        }
      ],
      "stateMutability": "view",
      "type": "function"
    },
    {
      "inputs": [],
      "name": "cluster",
      "outputs": [
        {
          "internalType": "contract ICluster",
          "name": "",
          "type": "address"
        }
      ],
      "stateMutability": "view",
      "type": "function"
    },
    {
      "inputs": [],
      "name": "conservator",
      "outputs": [
        {
          "internalType": "address",
          "name": "",
          "type": "address"
        }
      ],
      "stateMutability": "view",
      "type": "function"
    },
    {
      "inputs": [
        {
          "internalType": "uint16",
          "name": "",
          "type": "uint16"
        },
        {
          "internalType": "bytes",
          "name": "",
          "type": "bytes"
        },
        {
          "internalType": "uint64",
          "name": "",
          "type": "uint64"
        }
      ],
      "name": "creditedPackets",
      "outputs": [
        {
          "internalType": "bool",
          "name": "",
          "type": "bool"
        }
      ],
      "stateMutability": "view",
      "type": "function"
    },
    {
      "inputs": [],
      "name": "decimals",
      "outputs": [
        {
          "internalType": "uint8",
          "name": "",
          "type": "uint8"
        }
      ],
      "stateMutability": "pure",
      "type": "function"
    },
    {
      "inputs": [
        {
          "internalType": "address",
          "name": "spender",
          "type": "address"
        },
        {
          "internalType": "uint256",
          "name": "subtractedValue",
          "type": "uint256"
        }
      ],
      "name": "decreaseAllowance",
      "outputs": [
        {
          "internalType": "bool",
          "name": "",
          "type": "bool"
        }
      ],
      "stateMutability": "nonpayable",
      "type": "function"
    },
    {
      "inputs": [
        {
          "internalType": "uint16",
          "name": "_dstChainId",
          "type": "uint16"
        },
        {
          "internalType": "bytes32",
          "name": "_toAddress",
          "type": "bytes32"
        },
        {
          "internalType": "uint256",
          "name": "_amount",
          "type": "uint256"
        },
        {
          "internalType": "bytes",
          "name": "_payload",
          "type": "bytes"
        },
        {
          "internalType": "uint64",
          "name": "_dstGasForCall",
          "type": "uint64"
        },
        {
          "internalType": "bool",
          "name": "_useZro",
          "type": "bool"
        },
        {
          "internalType": "bytes",
          "name": "_adapterParams",
          "type": "bytes"
        }
      ],
      "name": "estimateSendAndCallFee",
      "outputs": [
        {
          "internalType": "uint256",
          "name": "nativeFee",
          "type": "uint256"
        },
        {
          "internalType": "uint256",
          "name": "zroFee",
          "type": "uint256"
        }
      ],
      "stateMutability": "view",
      "type": "function"
    },
    {
      "inputs": [
        {
          "internalType": "uint16",
          "name": "_dstChainId",
          "type": "uint16"
        },
        {
          "internalType": "bytes32",
          "name": "_toAddress",
          "type": "bytes32"
        },
        {
          "internalType": "uint256",
          "name": "_amount",
          "type": "uint256"
        },
        {
          "internalType": "bool",
          "name": "_useZro",
          "type": "bool"
        },
        {
          "internalType": "bytes",
          "name": "_adapterParams",
          "type": "bytes"
        }
      ],
      "name": "estimateSendFee",
      "outputs": [
        {
          "internalType": "uint256",
          "name": "nativeFee",
          "type": "uint256"
        },
        {
          "internalType": "uint256",
          "name": "zroFee",
          "type": "uint256"
        }
      ],
      "stateMutability": "view",
      "type": "function"
    },
    {
      "inputs": [
        {
          "components": [
            {
              "internalType": "address",
              "name": "from",
              "type": "address"
            },
            {
              "internalType": "address",
              "name": "target",
              "type": "address"
            },
            {
              "internalType": "uint256",
              "name": "paymentTokenAmount",
              "type": "uint256"
            },
            {
              "internalType": "uint256",
              "name": "oTAPTokenID",
              "type": "uint256"
            },
            {
              "internalType": "address",
              "name": "paymentToken",
              "type": "address"
            },
            {
              "internalType": "uint256",
              "name": "tapAmount",
              "type": "uint256"
            }
          ],
          "internalType": "struct ITapiocaOptionsBrokerCrossChain.IExerciseOptionsData",
          "name": "optionsData",
          "type": "tuple"
        },
        {
          "components": [
            {
              "internalType": "uint16",
              "name": "lzDstChainId",
              "type": "uint16"
            },
            {
              "internalType": "address",
              "name": "zroPaymentAddress",
              "type": "address"
            },
            {
              "internalType": "uint256",
              "name": "extraGas",
              "type": "uint256"
            }
          ],
          "internalType": "struct ITapiocaOptionsBrokerCrossChain.IExerciseLZData",
          "name": "lzData",
          "type": "tuple"
        },
        {
          "components": [
            {
              "internalType": "bool",
              "name": "withdrawOnAnotherChain",
              "type": "bool"
            },
            {
              "internalType": "address",
              "name": "tapOftAddress",
              "type": "address"
            },
            {
              "internalType": "uint16",
              "name": "lzDstChainId",
              "type": "uint16"
            },
            {
              "internalType": "uint256",
              "name": "amount",
              "type": "uint256"
            },
            {
              "internalType": "address",
              "name": "zroPaymentAddress",
              "type": "address"
            },
            {
              "internalType": "uint256",
              "name": "extraGas",
              "type": "uint256"
            }
          ],
          "internalType": "struct ITapiocaOptionsBrokerCrossChain.IExerciseLZSendTapData",
          "name": "tapSendData",
          "type": "tuple"
        },
        {
          "components": [
            {
              "internalType": "bool",
              "name": "permitAll",
              "type": "bool"
            },
            {
              "internalType": "bool",
              "name": "allowFailure",
              "type": "bool"
            },
            {
              "internalType": "bool",
              "name": "yieldBoxTypeApproval",
              "type": "bool"
            },
            {
              "internalType": "bool",
              "name": "revokeYieldBox",
              "type": "bool"
            },
            {
              "internalType": "uint16",
              "name": "actionType",
              "type": "uint16"
            },
            {
              "internalType": "address",
              "name": "target",
              "type": "address"
            },
            {
              "internalType": "bool",
              "name": "permitBorrow",
              "type": "bool"
            },
            {
              "internalType": "address",
              "name": "owner",
              "type": "address"
            },
            {
              "internalType": "address",
              "name": "spender",
              "type": "address"
            },
            {
              "internalType": "uint256",
              "name": "value",
              "type": "uint256"
            },
            {
              "internalType": "uint256",
              "name": "deadline",
              "type": "uint256"
            },
            {
              "internalType": "uint8",
              "name": "v",
              "type": "uint8"
            },
            {
              "internalType": "bytes32",
              "name": "r",
              "type": "bytes32"
            },
            {
              "internalType": "bytes32",
              "name": "s",
              "type": "bytes32"
            }
          ],
          "internalType": "struct ICommonData.IApproval[]",
          "name": "approvals",
          "type": "tuple[]"
        },
        {
          "internalType": "bytes",
          "name": "adapterParams",
          "type": "bytes"
        }
      ],
      "name": "exerciseOption",
      "outputs": [],
      "stateMutability": "payable",
      "type": "function"
    },
    {
      "inputs": [],
      "name": "extractFees",
      "outputs": [],
      "stateMutability": "nonpayable",
      "type": "function"
    },
    {
      "inputs": [
        {
          "internalType": "uint16",
          "name": "",
          "type": "uint16"
        },
        {
          "internalType": "bytes",
          "name": "",
          "type": "bytes"
        },
        {
          "internalType": "uint64",
          "name": "",
          "type": "uint64"
        }
      ],
      "name": "failedMessages",
      "outputs": [
        {
          "internalType": "bytes32",
          "name": "",
          "type": "bytes32"
        }
      ],
      "stateMutability": "view",
      "type": "function"
    },
    {
      "inputs": [],
      "name": "flashLoanHelper",
      "outputs": [
        {
          "internalType": "address",
          "name": "",
          "type": "address"
        }
      ],
      "stateMutability": "view",
      "type": "function"
    },
    {
      "inputs": [
        {
          "internalType": "uint16",
          "name": "_srcChainId",
          "type": "uint16"
        },
        {
          "internalType": "bytes",
          "name": "_srcAddress",
          "type": "bytes"
        }
      ],
      "name": "forceResumeReceive",
      "outputs": [],
      "stateMutability": "nonpayable",
      "type": "function"
    },
    {
      "inputs": [
        {
          "internalType": "uint16",
          "name": "_version",
          "type": "uint16"
        },
        {
          "internalType": "uint16",
          "name": "_chainId",
          "type": "uint16"
        },
        {
          "internalType": "address",
          "name": "",
          "type": "address"
        },
        {
          "internalType": "uint256",
          "name": "_configType",
          "type": "uint256"
        }
      ],
      "name": "getConfig",
      "outputs": [
        {
          "internalType": "bytes",
          "name": "",
          "type": "bytes"
        }
      ],
      "stateMutability": "view",
      "type": "function"
    },
    {
      "inputs": [
        {
          "internalType": "uint16",
          "name": "_remoteChainId",
          "type": "uint16"
        }
      ],
      "name": "getTrustedRemoteAddress",
      "outputs": [
        {
          "internalType": "bytes",
          "name": "",
          "type": "bytes"
        }
      ],
      "stateMutability": "view",
      "type": "function"
    },
    {
      "inputs": [
        {
          "internalType": "address",
          "name": "spender",
          "type": "address"
        },
        {
          "internalType": "uint256",
          "name": "addedValue",
          "type": "uint256"
        }
      ],
      "name": "increaseAllowance",
      "outputs": [
        {
          "internalType": "bool",
          "name": "",
          "type": "bool"
        }
      ],
      "stateMutability": "nonpayable",
      "type": "function"
    },
    {
      "inputs": [
        {
          "internalType": "uint16",
          "name": "_srcChainId",
          "type": "uint16"
        },
        {
          "internalType": "bytes",
          "name": "_srcAddress",
          "type": "bytes"
        }
      ],
      "name": "isTrustedRemote",
      "outputs": [
        {
          "internalType": "bool",
          "name": "",
          "type": "bool"
        }
      ],
      "stateMutability": "view",
      "type": "function"
    },
    {
      "inputs": [],
      "name": "lzEndpoint",
      "outputs": [
        {
          "internalType": "contract ILayerZeroEndpoint",
          "name": "",
          "type": "address"
        }
      ],
      "stateMutability": "view",
      "type": "function"
    },
    {
      "inputs": [
        {
          "internalType": "uint16",
          "name": "_srcChainId",
          "type": "uint16"
        },
        {
          "internalType": "bytes",
          "name": "_srcAddress",
          "type": "bytes"
        },
        {
          "internalType": "uint64",
          "name": "_nonce",
          "type": "uint64"
        },
        {
          "internalType": "bytes",
          "name": "_payload",
          "type": "bytes"
        }
      ],
      "name": "lzReceive",
      "outputs": [],
      "stateMutability": "nonpayable",
      "type": "function"
    },
    {
      "inputs": [
        {
          "internalType": "uint16",
          "name": "",
          "type": "uint16"
        },
        {
          "internalType": "uint16",
          "name": "",
          "type": "uint16"
        }
      ],
      "name": "minDstGasLookup",
      "outputs": [
        {
          "internalType": "uint256",
          "name": "",
          "type": "uint256"
        }
      ],
      "stateMutability": "view",
      "type": "function"
    },
    {
      "inputs": [
        {
          "internalType": "address",
          "name": "_to",
          "type": "address"
        },
        {
          "internalType": "uint256",
          "name": "_amount",
          "type": "uint256"
        }
      ],
      "name": "mint",
      "outputs": [],
      "stateMutability": "nonpayable",
      "type": "function"
    },
    {
      "inputs": [],
      "name": "name",
      "outputs": [
        {
          "internalType": "string",
          "name": "",
          "type": "string"
        }
      ],
      "stateMutability": "view",
      "type": "function"
    },
    {
      "inputs": [
        {
          "internalType": "uint16",
          "name": "_srcChainId",
          "type": "uint16"
        },
        {
          "internalType": "bytes",
          "name": "_srcAddress",
          "type": "bytes"
        },
        {
          "internalType": "uint64",
          "name": "_nonce",
          "type": "uint64"
        },
        {
          "internalType": "bytes",
          "name": "_payload",
          "type": "bytes"
        }
      ],
      "name": "nonblockingLzReceive",
      "outputs": [],
      "stateMutability": "nonpayable",
      "type": "function"
    },
    {
      "inputs": [
        {
          "internalType": "address",
          "name": "owner",
          "type": "address"
        }
      ],
      "name": "nonces",
      "outputs": [
        {
          "internalType": "uint256",
          "name": "",
          "type": "uint256"
        }
      ],
      "stateMutability": "view",
      "type": "function"
    },
    {
      "inputs": [],
      "name": "owner",
      "outputs": [
        {
          "internalType": "address",
          "name": "",
          "type": "address"
        }
      ],
      "stateMutability": "view",
      "type": "function"
    },
    {
      "inputs": [],
      "name": "paused",
      "outputs": [
        {
          "internalType": "bool",
          "name": "",
          "type": "bool"
        }
      ],
      "stateMutability": "view",
      "type": "function"
    },
    {
      "inputs": [
        {
          "internalType": "uint16",
          "name": "",
          "type": "uint16"
        }
      ],
      "name": "payloadSizeLimitLookup",
      "outputs": [
        {
          "internalType": "uint256",
          "name": "",
          "type": "uint256"
        }
      ],
      "stateMutability": "view",
      "type": "function"
    },
    {
      "inputs": [
        {
          "internalType": "address",
          "name": "owner",
          "type": "address"
        },
        {
          "internalType": "address",
          "name": "spender",
          "type": "address"
        },
        {
          "internalType": "uint256",
          "name": "value",
          "type": "uint256"
        },
        {
          "internalType": "uint256",
          "name": "deadline",
          "type": "uint256"
        },
        {
          "internalType": "uint8",
          "name": "v",
          "type": "uint8"
        },
        {
          "internalType": "bytes32",
          "name": "r",
          "type": "bytes32"
        },
        {
          "internalType": "bytes32",
          "name": "s",
          "type": "bytes32"
        }
      ],
      "name": "permit",
      "outputs": [],
      "stateMutability": "nonpayable",
      "type": "function"
    },
    {
      "inputs": [],
      "name": "precrime",
      "outputs": [
        {
          "internalType": "address",
          "name": "",
          "type": "address"
        }
      ],
      "stateMutability": "view",
      "type": "function"
    },
    {
      "inputs": [
        {
          "internalType": "address",
          "name": "from",
          "type": "address"
        },
        {
          "internalType": "address",
          "name": "to",
          "type": "address"
        },
        {
          "internalType": "uint16",
          "name": "lzDstChainId",
          "type": "uint16"
        },
        {
          "internalType": "address",
          "name": "zroPaymentAddress",
          "type": "address"
        },
        {
          "internalType": "bytes",
          "name": "adapterParams",
          "type": "bytes"
        },
        {
          "components": [
            {
              "internalType": "address",
              "name": "magnetar",
              "type": "address"
            },
            {
              "internalType": "address",
              "name": "singularity",
              "type": "address"
            },
            {
              "internalType": "address",
              "name": "bigBang",
              "type": "address"
            }
          ],
          "internalType": "struct ICommonData.ICommonExternalContracts",
          "name": "externalData",
          "type": "tuple"
        },
        {
          "components": [
            {
              "internalType": "bool",
              "name": "removeAssetFromSGL",
              "type": "bool"
            },
            {
              "internalType": "uint256",
              "name": "removeAmount",
              "type": "uint256"
            },
            {
              "internalType": "bool",
              "name": "repayAssetOnBB",
              "type": "bool"
            },
            {
              "internalType": "uint256",
              "name": "repayAmount",
              "type": "uint256"
            },
            {
              "internalType": "bool",
              "name": "removeCollateralFromBB",
              "type": "bool"
            },
            {
              "internalType": "uint256",
              "name": "collateralAmount",
              "type": "uint256"
            },
            {
              "components": [
                {
                  "internalType": "bool",
                  "name": "exit",
                  "type": "bool"
                },
                {
                  "internalType": "address",
                  "name": "target",
                  "type": "address"
                },
                {
                  "internalType": "uint256",
                  "name": "oTAPTokenID",
                  "type": "uint256"
                }
              ],
              "internalType": "struct ITapiocaOptionsBroker.IOptionsExitData",
              "name": "exitData",
              "type": "tuple"
            },
            {
              "components": [
                {
                  "internalType": "bool",
                  "name": "unlock",
                  "type": "bool"
                },
                {
                  "internalType": "address",
                  "name": "target",
                  "type": "address"
                },
                {
                  "internalType": "uint256",
                  "name": "tokenId",
                  "type": "uint256"
                }
              ],
              "internalType": "struct ITapiocaOptionLiquidityProvision.IOptionsUnlockData",
              "name": "unlockData",
              "type": "tuple"
            },
            {
              "components": [
                {
                  "internalType": "bool",
                  "name": "withdraw",
                  "type": "bool"
                },
                {
                  "internalType": "uint256",
                  "name": "withdrawLzFeeAmount",
                  "type": "uint256"
                },
                {
                  "internalType": "bool",
                  "name": "withdrawOnOtherChain",
                  "type": "bool"
                },
                {
                  "internalType": "uint16",
                  "name": "withdrawLzChainId",
                  "type": "uint16"
                },
                {
                  "internalType": "bytes",
                  "name": "withdrawAdapterParams",
                  "type": "bytes"
                },
                {
                  "internalType": "bool",
                  "name": "unwrap",
                  "type": "bool"
                }
              ],
              "internalType": "struct ICommonData.IWithdrawParams",
              "name": "assetWithdrawData",
              "type": "tuple"
            },
            {
              "components": [
                {
                  "internalType": "bool",
                  "name": "withdraw",
                  "type": "bool"
                },
                {
                  "internalType": "uint256",
                  "name": "withdrawLzFeeAmount",
                  "type": "uint256"
                },
                {
                  "internalType": "bool",
                  "name": "withdrawOnOtherChain",
                  "type": "bool"
                },
                {
                  "internalType": "uint16",
                  "name": "withdrawLzChainId",
                  "type": "uint16"
                },
                {
                  "internalType": "bytes",
                  "name": "withdrawAdapterParams",
                  "type": "bytes"
                },
                {
                  "internalType": "bool",
                  "name": "unwrap",
                  "type": "bool"
                }
              ],
              "internalType": "struct ICommonData.IWithdrawParams",
              "name": "collateralWithdrawData",
              "type": "tuple"
            }
          ],
          "internalType": "struct IUSDOBase.IRemoveAndRepay",
          "name": "removeAndRepayData",
          "type": "tuple"
        },
        {
          "components": [
            {
              "internalType": "bool",
              "name": "permitAll",
              "type": "bool"
            },
            {
              "internalType": "bool",
              "name": "allowFailure",
              "type": "bool"
            },
            {
              "internalType": "bool",
              "name": "yieldBoxTypeApproval",
              "type": "bool"
            },
            {
              "internalType": "bool",
              "name": "revokeYieldBox",
              "type": "bool"
            },
            {
              "internalType": "uint16",
              "name": "actionType",
              "type": "uint16"
            },
            {
              "internalType": "address",
              "name": "target",
              "type": "address"
            },
            {
              "internalType": "bool",
              "name": "permitBorrow",
              "type": "bool"
            },
            {
              "internalType": "address",
              "name": "owner",
              "type": "address"
            },
            {
              "internalType": "address",
              "name": "spender",
              "type": "address"
            },
            {
              "internalType": "uint256",
              "name": "value",
              "type": "uint256"
            },
            {
              "internalType": "uint256",
              "name": "deadline",
              "type": "uint256"
            },
            {
              "internalType": "uint8",
              "name": "v",
              "type": "uint8"
            },
            {
              "internalType": "bytes32",
              "name": "r",
              "type": "bytes32"
            },
            {
              "internalType": "bytes32",
              "name": "s",
              "type": "bytes32"
            }
          ],
          "internalType": "struct ICommonData.IApproval[]",
          "name": "approvals",
          "type": "tuple[]"
        }
      ],
      "name": "removeAsset",
      "outputs": [],
      "stateMutability": "payable",
      "type": "function"
    },
    {
      "inputs": [],
      "name": "renounceOwnership",
      "outputs": [],
      "stateMutability": "nonpayable",
      "type": "function"
    },
    {
      "inputs": [
        {
          "internalType": "uint256",
          "name": "amount",
          "type": "uint256"
        },
        {
          "internalType": "address",
          "name": "to",
          "type": "address"
        }
      ],
      "name": "rescueEth",
      "outputs": [],
      "stateMutability": "nonpayable",
      "type": "function"
    },
    {
      "inputs": [
        {
          "internalType": "uint16",
          "name": "_srcChainId",
          "type": "uint16"
        },
        {
          "internalType": "bytes",
          "name": "_srcAddress",
          "type": "bytes"
        },
        {
          "internalType": "uint64",
          "name": "_nonce",
          "type": "uint64"
        },
        {
          "internalType": "bytes",
          "name": "_payload",
          "type": "bytes"
        }
      ],
      "name": "retryMessage",
      "outputs": [],
      "stateMutability": "payable",
      "type": "function"
    },
    {
      "inputs": [
        {
          "internalType": "address",
          "name": "_from",
          "type": "address"
        },
        {
          "internalType": "uint16",
          "name": "_dstChainId",
          "type": "uint16"
        },
        {
          "internalType": "bytes32",
          "name": "_toAddress",
          "type": "bytes32"
        },
        {
          "internalType": "uint256",
          "name": "_amount",
          "type": "uint256"
        },
        {
          "internalType": "bytes",
          "name": "_payload",
          "type": "bytes"
        },
        {
          "internalType": "uint64",
          "name": "_dstGasForCall",
          "type": "uint64"
        },
        {
          "components": [
            {
              "internalType": "address payable",
              "name": "refundAddress",
              "type": "address"
            },
            {
              "internalType": "address",
              "name": "zroPaymentAddress",
              "type": "address"
            },
            {
              "internalType": "bytes",
              "name": "adapterParams",
              "type": "bytes"
            }
          ],
          "internalType": "struct ICommonOFT.LzCallParams",
          "name": "_callParams",
          "type": "tuple"
        }
      ],
      "name": "sendAndCall",
      "outputs": [],
      "stateMutability": "payable",
      "type": "function"
    },
    {
      "inputs": [
        {
          "internalType": "address",
          "name": "_from",
          "type": "address"
        },
        {
          "internalType": "address",
          "name": "_to",
          "type": "address"
        },
        {
          "internalType": "uint16",
          "name": "lzDstChainId",
          "type": "uint16"
        },
        {
          "internalType": "address",
          "name": "zroPaymentAddress",
          "type": "address"
        },
        {
          "components": [
            {
              "internalType": "bool",
              "name": "repay",
              "type": "bool"
            },
            {
              "internalType": "uint256",
              "name": "depositAmount",
              "type": "uint256"
            },
            {
              "internalType": "uint256",
              "name": "repayAmount",
              "type": "uint256"
            },
            {
              "internalType": "address",
              "name": "marketHelper",
              "type": "address"
            },
            {
              "internalType": "address",
              "name": "market",
              "type": "address"
            },
            {
              "internalType": "bool",
              "name": "removeCollateral",
              "type": "bool"
            },
            {
              "internalType": "uint256",
              "name": "removeCollateralAmount",
              "type": "uint256"
            },
            {
              "components": [
                {
                  "internalType": "bool",
                  "name": "lock",
                  "type": "bool"
                },
                {
                  "internalType": "address",
                  "name": "target",
                  "type": "address"
                },
                {
                  "internalType": "uint128",
                  "name": "lockDuration",
                  "type": "uint128"
                },
                {
                  "internalType": "uint128",
                  "name": "amount",
                  "type": "uint128"
                },
                {
                  "internalType": "uint256",
                  "name": "fraction",
                  "type": "uint256"
                }
              ],
              "internalType": "struct ITapiocaOptionLiquidityProvision.IOptionsLockData",
              "name": "lockData",
              "type": "tuple"
            },
            {
              "components": [
                {
                  "internalType": "bool",
                  "name": "participate",
                  "type": "bool"
                },
                {
                  "internalType": "address",
                  "name": "target",
                  "type": "address"
                },
                {
                  "internalType": "uint256",
                  "name": "tOLPTokenId",
                  "type": "uint256"
                }
              ],
              "internalType": "struct ITapiocaOptionsBroker.IOptionsParticipateData",
              "name": "participateData",
              "type": "tuple"
            }
          ],
          "internalType": "struct IUSDOBase.ILendOrRepayParams",
          "name": "lendParams",
          "type": "tuple"
        },
        {
          "components": [
            {
              "internalType": "bool",
              "name": "permitAll",
              "type": "bool"
            },
            {
              "internalType": "bool",
              "name": "allowFailure",
              "type": "bool"
            },
            {
              "internalType": "bool",
              "name": "yieldBoxTypeApproval",
              "type": "bool"
            },
            {
              "internalType": "bool",
              "name": "revokeYieldBox",
              "type": "bool"
            },
            {
              "internalType": "uint16",
              "name": "actionType",
              "type": "uint16"
            },
            {
              "internalType": "address",
              "name": "target",
              "type": "address"
            },
            {
              "internalType": "bool",
              "name": "permitBorrow",
              "type": "bool"
            },
            {
              "internalType": "address",
              "name": "owner",
              "type": "address"
            },
            {
              "internalType": "address",
              "name": "spender",
              "type": "address"
            },
            {
              "internalType": "uint256",
              "name": "value",
              "type": "uint256"
            },
            {
              "internalType": "uint256",
              "name": "deadline",
              "type": "uint256"
            },
            {
              "internalType": "uint8",
              "name": "v",
              "type": "uint8"
            },
            {
              "internalType": "bytes32",
              "name": "r",
              "type": "bytes32"
            },
            {
              "internalType": "bytes32",
              "name": "s",
              "type": "bytes32"
            }
          ],
          "internalType": "struct ICommonData.IApproval[]",
          "name": "approvals",
          "type": "tuple[]"
        },
        {
          "components": [
            {
              "internalType": "bool",
              "name": "withdraw",
              "type": "bool"
            },
            {
              "internalType": "uint256",
              "name": "withdrawLzFeeAmount",
              "type": "uint256"
            },
            {
              "internalType": "bool",
              "name": "withdrawOnOtherChain",
              "type": "bool"
            },
            {
              "internalType": "uint16",
              "name": "withdrawLzChainId",
              "type": "uint16"
            },
            {
              "internalType": "bytes",
              "name": "withdrawAdapterParams",
              "type": "bytes"
            },
            {
              "internalType": "bool",
              "name": "unwrap",
              "type": "bool"
            }
          ],
          "internalType": "struct ICommonData.IWithdrawParams",
          "name": "withdrawParams",
          "type": "tuple"
        },
        {
          "internalType": "bytes",
          "name": "adapterParams",
          "type": "bytes"
        }
      ],
      "name": "sendAndLendOrRepay",
      "outputs": [],
      "stateMutability": "payable",
      "type": "function"
    },
    {
      "inputs": [
        {
          "internalType": "uint256",
          "name": "amount",
          "type": "uint256"
        },
        {
          "internalType": "address",
          "name": "leverageFor",
          "type": "address"
        },
        {
          "components": [
            {
              "internalType": "uint256",
              "name": "srcExtraGasLimit",
              "type": "uint256"
            },
            {
              "internalType": "uint16",
              "name": "lzSrcChainId",
              "type": "uint16"
            },
            {
              "internalType": "uint16",
              "name": "lzDstChainId",
              "type": "uint16"
            },
            {
              "internalType": "address",
              "name": "zroPaymentAddress",
              "type": "address"
            },
            {
              "internalType": "bytes",
              "name": "dstAirdropAdapterParam",
              "type": "bytes"
            },
            {
              "internalType": "bytes",
              "name": "srcAirdropAdapterParam",
              "type": "bytes"
            },
            {
              "internalType": "address",
              "name": "refundAddress",
              "type": "address"
            }
          ],
          "internalType": "struct IUSDOBase.ILeverageLZData",
          "name": "lzData",
          "type": "tuple"
        },
        {
          "components": [
            {
              "internalType": "address",
              "name": "tokenOut",
              "type": "address"
            },
            {
              "internalType": "uint256",
              "name": "amountOutMin",
              "type": "uint256"
            },
            {
              "internalType": "bytes",
              "name": "data",
              "type": "bytes"
            }
          ],
          "internalType": "struct IUSDOBase.ILeverageSwapData",
          "name": "swapData",
          "type": "tuple"
        },
        {
          "components": [
            {
              "internalType": "address",
              "name": "swapper",
              "type": "address"
            },
            {
              "internalType": "address",
              "name": "magnetar",
              "type": "address"
            },
            {
              "internalType": "address",
              "name": "tOft",
              "type": "address"
            },
            {
              "internalType": "address",
              "name": "srcMarket",
              "type": "address"
            }
          ],
          "internalType": "struct IUSDOBase.ILeverageExternalContractsData",
          "name": "externalData",
          "type": "tuple"
        }
      ],
      "name": "sendForLeverage",
      "outputs": [],
      "stateMutability": "payable",
      "type": "function"
    },
    {
      "inputs": [
        {
          "internalType": "address",
          "name": "_from",
          "type": "address"
        },
        {
          "internalType": "uint16",
          "name": "_dstChainId",
          "type": "uint16"
        },
        {
          "internalType": "bytes32",
          "name": "_toAddress",
          "type": "bytes32"
        },
        {
          "internalType": "uint256",
          "name": "_amount",
          "type": "uint256"
        },
        {
          "components": [
            {
              "internalType": "address payable",
              "name": "refundAddress",
              "type": "address"
            },
            {
              "internalType": "address",
              "name": "zroPaymentAddress",
              "type": "address"
            },
            {
              "internalType": "bytes",
              "name": "adapterParams",
              "type": "bytes"
            }
          ],
          "internalType": "struct ICommonOFT.LzCallParams",
          "name": "_callParams",
          "type": "tuple"
        }
      ],
      "name": "sendFrom",
      "outputs": [],
      "stateMutability": "payable",
      "type": "function"
    },
    {
      "inputs": [
        {
          "internalType": "address",
          "name": "_for",
          "type": "address"
        },
        {
          "internalType": "bool",
          "name": "_status",
          "type": "bool"
        }
      ],
      "name": "setBurnerStatus",
      "outputs": [],
      "stateMutability": "nonpayable",
      "type": "function"
    },
    {
      "inputs": [
        {
          "internalType": "contract ICluster",
          "name": "_cluster",
          "type": "address"
        }
      ],
      "name": "setCluster",
      "outputs": [],
      "stateMutability": "nonpayable",
      "type": "function"
    },
    {
      "inputs": [
        {
          "internalType": "uint16",
          "name": "_version",
          "type": "uint16"
        },
        {
          "internalType": "uint16",
          "name": "_chainId",
          "type": "uint16"
        },
        {
          "internalType": "uint256",
          "name": "_configType",
          "type": "uint256"
        },
        {
          "internalType": "bytes",
          "name": "_config",
          "type": "bytes"
        }
      ],
      "name": "setConfig",
      "outputs": [],
      "stateMutability": "nonpayable",
      "type": "function"
    },
    {
      "inputs": [
        {
          "internalType": "address",
          "name": "_conservator",
          "type": "address"
        }
      ],
      "name": "setConservator",
      "outputs": [],
      "stateMutability": "nonpayable",
      "type": "function"
    },
    {
      "inputs": [
        {
          "internalType": "address",
          "name": "_helper",
          "type": "address"
        }
      ],
      "name": "setFlashloanHelper",
      "outputs": [],
      "stateMutability": "nonpayable",
      "type": "function"
    },
    {
      "inputs": [
        {
          "internalType": "uint16",
          "name": "_dstChainId",
          "type": "uint16"
        },
        {
          "internalType": "uint16",
          "name": "_packetType",
          "type": "uint16"
        },
        {
          "internalType": "uint256",
          "name": "_minGas",
          "type": "uint256"
        }
      ],
      "name": "setMinDstGas",
      "outputs": [],
      "stateMutability": "nonpayable",
      "type": "function"
    },
    {
      "inputs": [
        {
          "internalType": "address",
          "name": "_for",
          "type": "address"
        },
        {
          "internalType": "bool",
          "name": "_status",
          "type": "bool"
        }
      ],
      "name": "setMinterStatus",
      "outputs": [],
      "stateMutability": "nonpayable",
      "type": "function"
    },
    {
      "inputs": [
        {
          "internalType": "uint16",
          "name": "_dstChainId",
          "type": "uint16"
        },
        {
          "internalType": "uint256",
          "name": "_size",
          "type": "uint256"
        }
      ],
      "name": "setPayloadSizeLimit",
      "outputs": [],
      "stateMutability": "nonpayable",
      "type": "function"
    },
    {
      "inputs": [
        {
          "internalType": "address",
          "name": "_precrime",
          "type": "address"
        }
      ],
      "name": "setPrecrime",
      "outputs": [],
      "stateMutability": "nonpayable",
      "type": "function"
    },
    {
      "inputs": [
        {
          "internalType": "uint16",
          "name": "_version",
          "type": "uint16"
        }
      ],
      "name": "setReceiveVersion",
      "outputs": [],
      "stateMutability": "nonpayable",
      "type": "function"
    },
    {
      "inputs": [
        {
          "internalType": "uint16",
          "name": "_version",
          "type": "uint16"
        }
      ],
      "name": "setSendVersion",
      "outputs": [],
      "stateMutability": "nonpayable",
      "type": "function"
    },
    {
      "inputs": [
        {
          "internalType": "uint16",
          "name": "_srcChainId",
          "type": "uint16"
        },
        {
          "internalType": "bytes",
          "name": "_path",
          "type": "bytes"
        }
      ],
      "name": "setTrustedRemote",
      "outputs": [],
      "stateMutability": "nonpayable",
      "type": "function"
    },
    {
      "inputs": [
        {
          "internalType": "uint16",
          "name": "_remoteChainId",
          "type": "uint16"
        },
        {
          "internalType": "bytes",
          "name": "_remoteAddress",
          "type": "bytes"
        }
      ],
      "name": "setTrustedRemoteAddress",
      "outputs": [],
      "stateMutability": "nonpayable",
      "type": "function"
    },
    {
      "inputs": [
        {
          "internalType": "bool",
          "name": "_useCustomAdapterParams",
          "type": "bool"
        }
      ],
      "name": "setUseCustomAdapterParams",
      "outputs": [],
      "stateMutability": "nonpayable",
      "type": "function"
    },
    {
      "inputs": [],
      "name": "sharedDecimals",
      "outputs": [
        {
          "internalType": "uint8",
          "name": "",
          "type": "uint8"
        }
      ],
      "stateMutability": "view",
      "type": "function"
    },
    {
      "inputs": [
        {
          "internalType": "bytes4",
          "name": "interfaceId",
          "type": "bytes4"
        }
      ],
      "name": "supportsInterface",
      "outputs": [
        {
          "internalType": "bool",
          "name": "",
          "type": "bool"
        }
      ],
      "stateMutability": "view",
      "type": "function"
    },
    {
      "inputs": [],
      "name": "symbol",
      "outputs": [
        {
          "internalType": "string",
          "name": "",
          "type": "string"
        }
      ],
      "stateMutability": "view",
      "type": "function"
    },
    {
      "inputs": [],
      "name": "token",
      "outputs": [
        {
          "internalType": "address",
          "name": "",
          "type": "address"
        }
      ],
      "stateMutability": "view",
      "type": "function"
    },
    {
      "inputs": [],
      "name": "totalSupply",
      "outputs": [
        {
          "internalType": "uint256",
          "name": "",
          "type": "uint256"
        }
      ],
      "stateMutability": "view",
      "type": "function"
    },
    {
      "inputs": [
        {
          "internalType": "address",
          "name": "to",
          "type": "address"
        },
        {
          "internalType": "uint256",
          "name": "amount",
          "type": "uint256"
        }
      ],
      "name": "transfer",
      "outputs": [
        {
          "internalType": "bool",
          "name": "",
          "type": "bool"
        }
      ],
      "stateMutability": "nonpayable",
      "type": "function"
    },
    {
      "inputs": [
        {
          "internalType": "address",
          "name": "from",
          "type": "address"
        },
        {
          "internalType": "address",
          "name": "to",
          "type": "address"
        },
        {
          "internalType": "uint256",
          "name": "amount",
          "type": "uint256"
        }
      ],
      "name": "transferFrom",
      "outputs": [
        {
          "internalType": "bool",
          "name": "",
          "type": "bool"
        }
      ],
      "stateMutability": "nonpayable",
      "type": "function"
    },
    {
      "inputs": [
        {
          "internalType": "address",
          "name": "newOwner",
          "type": "address"
        }
      ],
      "name": "transferOwnership",
      "outputs": [],
      "stateMutability": "nonpayable",
      "type": "function"
    },
    {
      "inputs": [
        {
          "internalType": "uint16",
          "name": "lzDstChainId",
          "type": "uint16"
        },
        {
          "components": [
            {
              "internalType": "address payable",
              "name": "refundAddress",
              "type": "address"
            },
            {
              "internalType": "address",
              "name": "zroPaymentAddress",
              "type": "address"
            },
            {
              "internalType": "bytes",
              "name": "adapterParams",
              "type": "bytes"
            }
          ],
          "internalType": "struct ICommonOFT.LzCallParams",
          "name": "lzCallParams",
          "type": "tuple"
        },
        {
          "components": [
            {
              "internalType": "bool",
              "name": "permitAll",
              "type": "bool"
            },
            {
              "internalType": "bool",
              "name": "allowFailure",
              "type": "bool"
            },
            {
              "internalType": "bool",
              "name": "yieldBoxTypeApproval",
              "type": "bool"
            },
            {
              "internalType": "bool",
              "name": "revokeYieldBox",
              "type": "bool"
            },
            {
              "internalType": "uint16",
              "name": "actionType",
              "type": "uint16"
            },
            {
              "internalType": "address",
              "name": "target",
              "type": "address"
            },
            {
              "internalType": "bool",
              "name": "permitBorrow",
              "type": "bool"
            },
            {
              "internalType": "address",
              "name": "owner",
              "type": "address"
            },
            {
              "internalType": "address",
              "name": "spender",
              "type": "address"
            },
            {
              "internalType": "uint256",
              "name": "value",
              "type": "uint256"
            },
            {
              "internalType": "uint256",
              "name": "deadline",
              "type": "uint256"
            },
            {
              "internalType": "uint8",
              "name": "v",
              "type": "uint8"
            },
            {
              "internalType": "bytes32",
              "name": "r",
              "type": "bytes32"
            },
            {
              "internalType": "bytes32",
              "name": "s",
              "type": "bytes32"
            }
          ],
          "internalType": "struct ICommonData.IApproval[]",
          "name": "approvals",
          "type": "tuple[]"
        }
      ],
      "name": "triggerApproveOrRevoke",
      "outputs": [],
      "stateMutability": "payable",
      "type": "function"
    },
    {
      "inputs": [
        {
          "internalType": "uint16",
          "name": "lzDstChainId",
          "type": "uint16"
        },
        {
          "internalType": "bytes",
          "name": "airdropAdapterParams",
          "type": "bytes"
        },
        {
          "internalType": "uint256",
          "name": "amount",
          "type": "uint256"
        },
        {
          "components": [
            {
              "internalType": "address payable",
              "name": "refundAddress",
              "type": "address"
            },
            {
              "internalType": "address",
              "name": "zroPaymentAddress",
              "type": "address"
            },
            {
              "internalType": "bytes",
              "name": "adapterParams",
              "type": "bytes"
            }
          ],
          "internalType": "struct ICommonOFT.LzCallParams",
          "name": "sendFromData",
          "type": "tuple"
        },
        {
          "components": [
            {
              "internalType": "bool",
              "name": "permitAll",
              "type": "bool"
            },
            {
              "internalType": "bool",
              "name": "allowFailure",
              "type": "bool"
            },
            {
              "internalType": "bool",
              "name": "yieldBoxTypeApproval",
              "type": "bool"
            },
            {
              "internalType": "bool",
              "name": "revokeYieldBox",
              "type": "bool"
            },
            {
              "internalType": "uint16",
              "name": "actionType",
              "type": "uint16"
            },
            {
              "internalType": "address",
              "name": "target",
              "type": "address"
            },
            {
              "internalType": "bool",
              "name": "permitBorrow",
              "type": "bool"
            },
            {
              "internalType": "address",
              "name": "owner",
              "type": "address"
            },
            {
              "internalType": "address",
              "name": "spender",
              "type": "address"
            },
            {
              "internalType": "uint256",
              "name": "value",
              "type": "uint256"
            },
            {
              "internalType": "uint256",
              "name": "deadline",
              "type": "uint256"
            },
            {
              "internalType": "uint8",
              "name": "v",
              "type": "uint8"
            },
            {
              "internalType": "bytes32",
              "name": "r",
              "type": "bytes32"
            },
            {
              "internalType": "bytes32",
              "name": "s",
              "type": "bytes32"
            }
          ],
          "internalType": "struct ICommonData.IApproval[]",
          "name": "approvals",
          "type": "tuple[]"
        }
      ],
      "name": "triggerSendFrom",
      "outputs": [],
      "stateMutability": "payable",
      "type": "function"
    },
    {
      "inputs": [
        {
          "internalType": "uint16",
          "name": "",
          "type": "uint16"
        }
      ],
      "name": "trustedRemoteLookup",
      "outputs": [
        {
          "internalType": "bytes",
          "name": "",
          "type": "bytes"
        }
      ],
      "stateMutability": "view",
      "type": "function"
    },
    {
      "inputs": [
        {
          "internalType": "bool",
          "name": "val",
          "type": "bool"
        }
      ],
      "name": "updatePause",
      "outputs": [],
      "stateMutability": "nonpayable",
      "type": "function"
    },
    {
      "inputs": [],
      "name": "useCustomAdapterParams",
      "outputs": [
        {
          "internalType": "bool",
          "name": "",
          "type": "bool"
        }
      ],
      "stateMutability": "view",
      "type": "function"
    },
    {
      "inputs": [],
      "name": "yieldBox",
      "outputs": [
        {
          "internalType": "contract IYieldBoxBase",
          "name": "",
          "type": "address"
        }
      ],
      "stateMutability": "view",
      "type": "function"
    },
    {
      "stateMutability": "payable",
      "type": "receive"
    }
  ],
  "bytecode": "0x6101c06040523462000b7d576101606200661b803803809162000025826101c062000b9e565b6101c0391262000b7d576200003c6101c062000bc2565b6101e051906001600160a01b038216820362000b7d57610200516001600160a01b038116810362000b7d576200007461022062000bc2565b926200008261024062000bc2565b916200009061026062000bc2565b6200009d61028062000bc2565b91620000ab6102a062000bc2565b93620000b96102c062000bc2565b95620000c76102e062000bc2565b91620000d561030062000bc2565b9360405191620000e58362000b82565b60048352635553444f60e01b60208401526040519a620001058c62000b82565b60018c52603160f81b60208d0152604051620001218162000b82565b60048152635553444f60e01b602082015260405191620001418362000b82565b60048352635553444f60e01b60208401526200015d3362000bd7565b6001600160a01b0316608052600860a0528051906001600160401b038211620008c857600b5490600182811c9216801562000b72575b602083101462000a445781601f84931162000b00575b50602090601f831160011462000a715760009262000a65575b50508160011b916000199060031b1c191617600b555b8051906001600160401b038211620008c857600c5490600182811c9216801562000a5a575b602083101462000a445781601f849311620009d2575b50602090601f8311600114620009435760009262000937575b50508160011b916000199060031b1c191617600c555b6402540be40060c0526080516040516303408e4760e41b815290602090829060049082906001600160a01b03165afa9081156200092b57600091620008de575b5061ffff1680600052600f60205260406000203360005260205260406000209060ff19916001838254161790556000526010602052604060002033600052602052600160406000209182541617905560e05260018060a01b031660018060a01b0319600d541617600d5560208151910120976020815191012088610160528061018052466101205260405198600080516020620065fb83398151915260208b015260408a015260608901524660808901523060a089015260a088528760c081011060018060401b0360c08a011117620008c85760c08801604081905288516020808b0191909120610100523061014052600080516020620065fb8339815191526101a052601580546001600160a01b039485166001600160a01b031991821681179092556016805498861698821689179055601780549986169982168a179055601880549a86169a82168b179055601980549b86169b82168c179055601a805496861696821687179055601b805497909516968116871790945560129091527f71a67924699a20698523213e55fe499d539379d7769cd5567e2c45d583f815a3805484169095179094557f1223f9031f9dca49a7844c397098ce9a4e80513444d0a8bb59820dff564808e4805483169098179097557f724fd36bd271795fe7866d4cc83b61084ef704502b00c2e0b28047123b3c1acc805482169092179091557f8e1fee8c88a9e04123b21e90cae2727a7715bf522a1e46eb5934ccd05203a6b2805482169092179091557f0f36ad39aee03e7108cc48f54934702a5f0d4066f10344cebf8198978d86976a805482169092179091557fb4fcd034df3d20faa1c133b66d862ce92732727d40916b48ffb4020cb00fe0538054821690921790915560056000527f45429b9195d4ec5c0cf6c69e9c21a4ca0ea773b702c2de5735f85d2631f26746805490911690911790556200053e9062000b82565b600560c082015260e0810163100b652360e01b8152610306600052601c8060205260c06040600020930151916008831015620008b25783549264ffffffff00948592519160d89560ff938464ffffffffff199687928a1c169316911617179055604051620005ac8162000b82565b6003815260208101634dd8df6360e11b81526103076000528460205260406000209151906008821015620008b257848489855493518a1c169316911617179055604051620005fa8162000b82565b60058152602081016313030a6160e31b81526103056000528460205260406000209151906008821015620008b257848489855493518a1c169316911617179055604051620006488162000b82565b60078152602081016381618d0560e01b81526103096000528460205260406000209151906008821015620008b257848489855493518a1c169316911617179055604051620006968162000b82565b6001815260208101630cef3d9360e31b815261030a6000528460205260406000209151906008821015620008b257848489855493518a1c16931691161717905560405194620006e58662000b82565b60018652602086019363ee75f25d60e01b855261030b60005260205260406000209551946008861015620008b25786549451901c1693169116171790553360018060a01b0360005416036200086e576001600160a01b038116156200081a576200074f9062000bd7565b6040516159dc908162000c1f82396080518181816105bc0152818161087f015281816109bb01528181610bc701528181610df60152818161249c015281816125f601528181612fbc015281816141e601528181614b950152614e65015260a05181611af8015260c05181818161500c01528181615132015281816153a3015261543d015260e05181612a32015261010051816137820152610120518161383d0152610140518161374c015261016051816137d1015261018051816137f701526101a051816137ae0152f35b60405162461bcd60e51b815260206004820152602660248201527f4f776e61626c653a206e6577206f776e657220697320746865207a65726f206160448201526564647265737360d01b6064820152608490fd5b606460405162461bcd60e51b815260206004820152602060248201527f4f776e61626c653a2063616c6c6572206973206e6f7420746865206f776e65726044820152fd5b634e487b7160e01b600052602160045260246000fd5b634e487b7160e01b600052604160045260246000fd5b6020813d60201162000922575b81620008fa6020938362000b9e565b810103126200091e57519061ffff821682036200091b575061ffff62000282565b80fd5b5080fd5b3d9150620008eb565b6040513d6000823e3d90fd5b0151905038806200022c565b600c600090815293507fdf6966c971051c3d54ec59162606531493a51404a002842f56009d7e5cf4a8c791905b601f1984168510620009b6576001945083601f198116106200099c575b505050811b01600c5562000242565b015160001960f88460031b161c191690553880806200098d565b8181015183556020948501946001909301929091019062000970565b600c6000529091507fdf6966c971051c3d54ec59162606531493a51404a002842f56009d7e5cf4a8c7601f840160051c81016020851062000a3c575b90849392915b601f830160051c8201811062000a2c57505062000213565b6000815585945060010162000a14565b508062000a0e565b634e487b7160e01b600052602260045260246000fd5b91607f1691620001fd565b015190503880620001c2565b600b600090815293507f0175b7a638427703f0dbe7bb9bbf987a2551717b34e79f33b5b1008d1fa01db991905b601f198416851062000ae4576001945083601f1981161062000aca575b505050811b01600b55620001d8565b015160001960f88460031b161c1916905538808062000abb565b8181015183556020948501946001909301929091019062000a9e565b600b6000529091507f0175b7a638427703f0dbe7bb9bbf987a2551717b34e79f33b5b1008d1fa01db9601f840160051c81016020851062000b6a575b90849392915b601f830160051c8201811062000b5a575050620001a9565b6000815585945060010162000b42565b508062000b3c565b91607f169162000193565b600080fd5b604081019081106001600160401b03821117620008c857604052565b601f909101601f19168101906001600160401b03821190821017620008c857604052565b51906001600160a01b038216820362000b7d57565b600080546001600160a01b039283166001600160a01b03198216811783559216907f8be0079c531659141344cd1fd0a4f28419497f9722a3daafe3b4186f6b6457e09080a356fe6080604052600436101561001b575b361561001957600080fd5b005b60003560e01c80621d3567146104f057806301ffc9a7146104eb57806306fdde03146104e657806307e0db17146104e1578063095ea7b3146104dc5780630df37483146104d757806310ddb137146104d2578063147b6228146104cd57806318160ddd1461043757806323b872dd146104c8578063313ce567146104c35780633644e515146104be578063365260b4146104b957806339509351146104b45780633d8b38f6146104af5780633f1f4fa4146104aa57806340c10f19146104a557806342d65a8d146104a0578063437be6221461049b57806344770515146104915780634620a6d1146104965780634c42899a146104915780634fc5aac31461048c5780634fd7e9f6146104875780635128e83d146104825780635b8c41e61461047d5780635c975abb1461047857806366ad5c8a14610473578063695ef6bf1461046e57806370a0823114610469578063715018a6146104645780637533d7881461045f57806376203b481461045a578063796fd43a146104555780637ecebe0014610450578063857749b01461044b5780638cfd8f5c146104465780638da5cb5b146104415780639169d59e1461043c5780639358928b14610437578063950c8a741461043257806395d89b411461042d5780639bdb9812146104285780639d554eac146104235780639dc29fac1461041e5780639f38369a14610419578063a04ae9f614610414578063a457c2d71461040f578063a4c51df51461040a578063a6c3d16514610405578063a9059cbb14610400578063af2a29c3146103fb578063b25ea8fb146103f6578063b28de4c5146103f1578063b353aaa7146103ec578063ba03a8d7146103e7578063baf3292d146103e2578063c4461834146103dd578063cbed8b9c146103d8578063ce8849ed146103d3578063d1deba1f146103ce578063d505accf146103c9578063dbd01de1146103c4578063dd62ed3e146103bf578063de406577146103ba578063df2a5b3b146103b5578063e6a20ae6146103b0578063eab45d9c146103ab578063eaffd49a146103a6578063eb8d72b7146103a1578063ec6d062b1461039c578063ed629c5c14610397578063f00c298d14610392578063f2fde38b1461038d578063f5ecbdbc14610388578063f8974de014610383578063fa74f0b51461037e5763fc0c546a0361000e576130ee565b61309f565b613026565b612f52565b612e8b565b612e08565b612de5565b612d9b565b612c51565b612bc8565b612b6a565b612b4e565b612a61565b612a1c565b6129c2565b612999565b612838565b6126b7565b61268e565b6125a2565b612585565b612515565b6124cb565b612486565b61245d565b6123e6565b61233f565b612303565b612180565b6120ed565b61202f565b611eef565b611e1a565b611dae565b611d54565b611d09565b611c65565b611c3c565b610a5b565b611b97565b611b6e565b611b1c565b611ade565b611aa1565b61191a565b6116fc565b6116a5565b61155f565b611522565b61143f565b6113b9565b611396565b61132f565b611192565b6110f2565b611007565b610ed6565b610f62565b610e5d565b610ddc565b610d69565b610d30565b610cd4565b610c45565b610b41565b610ad5565b610ab9565b610a79565b610a1c565b610992565b610953565b61091e565b610856565b610776565b6106b9565b6105a5565b61ffff81160361050157565b600080fd5b3590610511826104f5565b565b9181601f84011215610501578235916001600160401b038311610501576020838186019501011161050157565b90608060031983011261050157600435610559816104f5565b916001600160401b0390602435828111610501578161057a91600401610513565b9390939260443581811681036105015792606435918211610501576105a191600401610513565b9091565b34610501576105b336610540565b929493919291907f00000000000000000000000000000000000000000000000000000000000000006001600160a01b031633036106745761063961064192610019976106326106186106138a61ffff166000526001602052604060002090565b61168a565b805190818414918261066a575b5081610647575b50614534565b3691611279565b923691611279565b92614634565b9050610654368486611279565b602081519101209060208151910120143861062c565b1515915038610625565b60405162461bcd60e51b815260206004820152601e60248201527f4c7a4170703a20696e76616c696420656e64706f696e742063616c6c657200006044820152606490fd5b346105015760203660031901126105015760043563ffffffff60e01b811680910361050157602090631f7ecdf760e01b81149081156106fe575b506040519015158152f35b6301ffc9a760e01b149050386106f3565b600091031261050157565b60005b83811061072d5750506000910152565b818101518382015260200161071d565b906020916107568151809281855285808601910161071a565b601f01601f1916010190565b90602061077392818152019061073d565b90565b34610501576000806003193601126108535760405181600b54610798816115ba565b8084529060019081811690811561082b57506001146107d2575b6107ce846107c28188038261123d565b60405191829182610762565b0390f35b600b8352602094507f0175b7a638427703f0dbe7bb9bbf987a2551717b34e79f33b5b1008d1fa01db95b82841061081857505050816107ce936107c292820101936107b2565b80548585018701529285019281016107fc565b6107ce96506107c29450602092508593915060ff191682840152151560051b820101936107b2565b80fd5b34610501576000602036600319011261085357600435610875816104f5565b61087d613109565b7f00000000000000000000000000000000000000000000000000000000000000006001600160a01b0316908290823b156108f157602461ffff918360405195869485936307e0db1760e01b85521660048401525af180156108ec576108e0575080f35b6108e9906111ef565b80f35b6136c5565b5080fd5b6001600160a01b0381160361050157565b60643590610511826108f5565b3590610511826108f5565b346105015760403660031901126105015761094860043561093e816108f5565b602435903361335b565b602060405160018152f35b346105015760403660031901126105015761ffff600435610973816104f5565b61097b613109565b166000526003602052602435604060002055600080f35b346105015760006020366003190112610853576004356109b1816104f5565b6109b9613109565b7f00000000000000000000000000000000000000000000000000000000000000006001600160a01b0316908290823b156108f157602461ffff918360405195869485936310ddb13760e01b85521660048401525af180156108ec576108e0575080f35b3461050157602036600319011261050157610a4260018060a01b03601e541633146138da565b601d546004358101809111610a5657601d55005b613161565b34610501576000366003190112610501576020600a54604051908152f35b3461050157606036600319011261050157610948600435610a99816108f5565b602435610aa5816108f5565b60443591610ab4833383613486565b613253565b3461050157600036600319011261050157602060405160128152f35b34610501576000366003190112610501576020610af0613749565b604051908152f35b60643590811515820361050157565b60243590811515820361050157565b60a43590811515820361050157565b60043590811515820361050157565b3590811515820361050157565b346105015760a036600319011261050157600435610b5e816104f5565b610b66610af8565b90608435906001600160401b03821161050157610b8c6106326040933690600401610513565b90610bc3610ba6610b9e6044356153a1565b602435615472565b928451958694859463040a7bb160e41b8652309060048701614d3d565b03817f00000000000000000000000000000000000000000000000000000000000000006001600160a01b03165afa9081156108ec576000908192610c14575b50604080519182526020820192909252f35b9050610c37915060403d8111610c3e575b610c2f818361123d565b810190614d27565b9038610c02565b503d610c25565b3461050157604036600319011261050157600435610c62816108f5565b3360009081526009602090815260408083206001600160a01b03851684529091529020546024358101809111610a5657610948913361335b565b90604060031983011261050157600435610cb5816104f5565b91602435906001600160401b038211610501576105a191600401610513565b3461050157602061ffff610d21610cea36610c9c565b9390911660005260018452610d0c610d136040600020604051928380926115f4565b038261123d565b848151910120923691611279565b82815191012014604051908152f35b346105015760203660031901126105015761ffff600435610d50816104f5565b1660005260036020526020604060002054604051908152f35b3461050157604036600319011261050157610019600435610d89816108f5565b610d9860ff6011541615614310565b610da06141d1565b600052600f602052610dd360ff610dcc60406000203360018060a01b0316600052602052604060002090565b54166138da565b6024359061434b565b3461050157610dea36610c9c565b9190610df4613109565b7f00000000000000000000000000000000000000000000000000000000000000006001600160a01b031691823b1561050157604051928380926342d65a8d60e01b825281610e4b60009889978894600485016145c5565b03925af180156108ec576108e0575080f35b3461050157602036600319011261050157600435610e7a816108f5565b6001600160a01b03168015610e9f57600d80546001600160a01b031916919091179055005b60405162461bcd60e51b815260206004820152600f60248201526e1554d113ce881b9bdd081d985b1a59608a1b6044820152606490fd5b3461050157600036600319011261050157602060405160008152f35b60609060a31901126105015760a490565b60609060c31901126105015760c490565b908160609103126105015790565b90816101c09103126105015790565b9181601f84011215610501578235916001600160401b038311610501576020808501946101c0850201011161050157565b61014036600319011261050157600435610f7b816108f5565b602435610f87816108f5565b60443591610f94836104f5565b610f9c610906565b6001600160401b03939060843585811161050157610fbe903690600401610513565b90610fc836610ef2565b926101043588811161050157610fe2903690600401610f22565b946101243598891161050157610fff610019993690600401610f31565b989097613e73565b60a03660031901126105015760043561101f816104f5565b6001600160401b039060243582811161050157611040903690600401610513565b90916064358481116105015761105a903690600401610f14565b93608435908111610501576100199461ffff946110ed946110d06110b56110886110df963690600401610f31565b9490936040519a8b99634fc5aac360e01b60208c01521660248a015260a060448a015260c489019161394c565b60443560648801526023199485888303016084890152613fc2565b928584030160a4860152613aad565b03601f19810183528261123d565b614002565b60603660031901126105015760043561110a816104f5565b6001600160401b036024358181116105015761112a903690600401610f14565b60443591821161050157610019926110df6110ed9261118061115361ffff963690600401610f31565b9190926040519788966327ebf4fb60e11b6020890152166024870152606060448701526084860190613fc2565b84810360231901606486015291613aad565b34610501576020366003190112610501576004356111af816108f5565b6111b7613109565b601e80546001600160a01b0319166001600160a01b0392909216919091179055005b634e487b7160e01b600052604160045260246000fd5b6001600160401b03811161120257604052565b6111d9565b60c081019081106001600160401b0382111761120257604052565b604081019081106001600160401b0382111761120257604052565b90601f801991011681019081106001600160401b0382111761120257604052565b6001600160401b03811161120257601f01601f191660200190565b9291926112858261125e565b91611293604051938461123d565b829481845281830111610501578281602093846000960137010152565b6060600319820112610501576004356112c8816104f5565b916024356001600160401b03928382116105015780602383011215610501578160246112f993600401359101611279565b9160443590811681036105015790565b60209061132392826040519483868095519384920161071a565b82019081520301902090565b3461050157602061138d61ffff61136c83611349366112b0565b94909116600052600582526040600020826040519483868095519384920161071a565b820190815203019020906001600160401b0316600052602052604060002090565b54604051908152f35b3461050157600036600319011261050157602060ff601154166040519015158152f35b34610501576113c736610540565b91929493903033036113eb576106396113e592610019973691611279565b926147fc565b60405162461bcd60e51b815260206004820152602660248201527f4e6f6e626c6f636b696e674c7a4170703a2063616c6c6572206d7573742062656044820152650204c7a4170760d41b6064820152608490fd5b60a036600319011261050157600435611457816108f5565b602435611463816104f5565b604435916084356001600160401b03811161050157602061ffff61149a600080516020615967833981519152933690600401610f14565b9361150d85356114a9816108f5565b6114c761063286890135986114bd8a6108f5565b6040810190614b13565b6114d1818a61529e565b6114e66114df60643561543b565b5085615645565b976114f2891515614d81565b6115046114fe8a6153a1565b8c615472565b9234938b614e21565b6040519485526001600160a01b0316941692a4005b346105015760203660031901126105015760043561153f816108f5565b60018060a01b031660005260086020526020604060002054604051908152f35b346105015760008060031936011261085357611579613109565b80546001600160a01b03198116825581906001600160a01b03167f8be0079c531659141344cd1fd0a4f28419497f9722a3daafe3b4186f6b6457e08280a380f35b90600182811c921680156115ea575b60208310146115d457565b634e487b7160e01b600052602260045260246000fd5b91607f16916115c9565b9060009291805491611605836115ba565b9182825260019384811690816000146116675750600114611627575b50505050565b90919394506000526020928360002092846000945b838610611653575050505001019038808080611621565b80548587018301529401938590820161163c565b9294505050602093945060ff191683830152151560051b01019038808080611621565b9061051161169e92604051938480926115f4565b038361123d565b346105015760203660031901126105015761ffff6004356116c5816104f5565b1660005260016020526107ce610d0c6116e86040600020604051928380926115f4565b60405191829160208352602083019061073d565b60e036600319011261050157600435611714816108f5565b602435611720816104f5565b604435916001600160401b039060843582811161050157611745903690600401610513565b91909260a43591818316918284036105015760c4359081116105015761176f903690600401610f14565b926117a684359561177f876108f5565b61179e6117946020880135976114bd896108f5565b9990923691611279565b973691611279565b9460ff60065416600014611899576022865110611854578560209561150461150d946118228c61180f61ffff9a8b60226000805160206159678339815191529f0151931660005260028d5261180960406000206001600052602052604060002090565b54613193565b9061181b8215156152f3565b101561533f565b61183761183060643561543b565b5088615645565b9a6118438c1515614d81565b8d61184d8d6153a1565b90336154ff565b60405162461bcd60e51b815260206004820152601c60248201527f4c7a4170703a20696e76616c69642061646170746572506172616d73000000006044820152606490fd5b9480949350516118c6576000805160206159678339815191529460209461ffff9461150461150d94611822565b60405162461bcd60e51b815260206004820152602660248201527f4f4654436f72653a205f61646170746572506172616d73206d7573742062652060448201526532b6b83a3c9760d11b6064820152608490fd5b60031961010036820181136105015760243591611936836108f5565b604435926001600160401b038085116105015760e0856004019386360301126105015760643590811161050157611971903690600401610f14565b9160803660831901126105015761001994611a9c93611a7f611a6e60c4611a67611a90966040519a8b99633cb7ea1d60e11b60208c015260043560248c015260018060a01b031660448b015260648a015280356101248a015261ffff60248801356119db816104f5565b166101448a01526119ff60448801356119f3816104f5565b61ffff166101648b0152565b611a1f611a0e60648901610913565b6001600160a01b03166101848b0152565b611a53611a488a6101a460e0611a3860848d018761391b565b92909301526102048d019161394c565b9160a489019061391b565b8a830361012319016101c48c01529061394c565b9401610913565b6001600160a01b03166101e4860152565b83820360231901608485015261396d565b6110df60a483016139b1565b614121565b3461050157602036600319011261050157600435611abe816108f5565b60018060a01b031660005260136020526020604060002054604051908152f35b3461050157600036600319011261050157602060405160ff7f0000000000000000000000000000000000000000000000000000000000000000168152f35b3461050157604036600319011261050157602061138d600435611b3e816104f5565b61ffff60243591611b4e836104f5565b166000526002835260406000209061ffff16600052602052604060002090565b34610501576000366003190112610501576000546040516001600160a01b039091168152602090f35b3461050157604036600319011261050157600435611bb4816108f5565b7fd7b463fb7e7be5d5389dafa46448b883b320f7c77f63a00c9db0e2865ccdb3d76020611bdf610b07565b92611be8613109565b611bf06141d1565b60009081526010835260408082206001600160a01b03841683526020529020611c279085905b9060ff801983541691151516179055565b60405193151584526001600160a01b031692a2005b34610501576000366003190112610501576004546040516001600160a01b039091168152602090f35b34610501576000806003193601126108535760405181600c54611c87816115ba565b8084529060019081811690811561082b5750600114611cb0576107ce846107c28188038261123d565b600c8352602094507fdf6966c971051c3d54ec59162606531493a51404a002842f56009d7e5cf4a8c75b828410611cf657505050816107ce936107c292820101936107b2565b8054858501870152928501928101611cda565b3461050157602060ff611d4861ffff61136c84611d25366112b0565b94909116600052600782526040600020826040519483868095519384920161071a565b54166040519015158152f35b346105015760008060031936011261085357611d6e613109565b601d5480611d7a575080f35b30825260086020526040822054818110611da95750805b808203918211610a56576108e991601d553333613253565b611d91565b3461050157604036600319011261050157610019600435611dce816108f5565b611ddd60ff6011541615614310565b611de56141d1565b6000526010602052611e1160ff610dcc60406000203360018060a01b0316600052602052604060002090565b602435906143f3565b346105015760203660031901126105015761ffff600435611e3a816104f5565b166000526001602052610d0c611e5a6040600020604051928380926115f4565b805115611e78576107c281611e726107ce9351614516565b9061571f565b60405162461bcd60e51b815260206004820152601d60248201527f4c7a4170703a206e6f20747275737465642070617468207265636f72640000006044820152606490fd5b60c090600319011261050157600490565b60c0906101231901126105015761012490565b908160c09103126105015790565b6102208060031936011261050157611f0636611ebd565b611f0f36610f03565b91611f1936611ece565b906001600160401b03906101e43582811161050157611f3c903690600401610f31565b909161020493843590811161050157611f59903690600401610513565b94909560405198899863502574fb60e11b60208b01528035611f7a816108f5565b6001600160a01b0390811660248c0152806020830135611f99816108f5565b1660448c0152604082013560648c0152606082013560848c01526080820135611fc1816108f5565b1660a48b015260a0013560c48a015260e48901611fdd91613f36565b6101448801611feb91613f59565b860152610244850190611ffd92613aad565b90602319848303016102248501526120149261394c565b03601f1981018252612026908261123d565b610019906140ce565b346105015760403660031901126105015760043561204c816108f5565b602435903360005260096020526120798160406000209060018060a01b0316600052602052604060002090565b549180831061209a5761208e9203903361335b565b60405160018152602090f35b60405162461bcd60e51b815260206004820152602560248201527f45524332303a2064656372656173656420616c6c6f77616e63652062656c6f77604482015264207a65726f60d81b6064820152608490fd5b346105015760e03660031901126105015760043561210a816104f5565b6001600160401b03906064358281116105015761212b903690600401610513565b608492919235848116810361050157612142610b16565b9160c4359586116105015761215e61216e963690600401610513565b9590946044359060243590614b45565b60408051928352602083019190915290f35b346105015761218e36610c9c565b90612197613109565b604051926020928083858701376121c36034868381013060601b8882015203601481018852018661123d565b60009361ffff8316855260019081815260408620918751916001600160401b038311611202576121fd836121f786546115ba565b866145e0565b80601f841160011461226d57509180809261225c9695948a9b7f8c0400cfe2d1199b1a725c78960bcc2a344d869b80590d0f2bd005db15a572ce9b94612262575b50501b916000199060031b1c19161790555b604051938493846145c5565b0390a180f35b01519250388061223e565b91939498601f19841661228587600052602060002090565b938a905b8282106122ec575050917f8c0400cfe2d1199b1a725c78960bcc2a344d869b80590d0f2bd005db15a572ce999a9593918561225c989694106122d3575b505050811b019055612250565b015160001960f88460031b161c191690553880806122c6565b808886978294978701518155019601940190612289565b3461050157604036600319011261050157610948600435612323816108f5565b6024359033613253565b6101e090608319011261050157608490565b6102c036600319011261050157600435612358816108f5565b602435612364816108f5565b60443591612371836104f5565b612379610906565b926123833661232d565b6001600160401b039461026435868111610501576123a5903690600401610f31565b92909161028435888111610501576123c1903690600401611ee1565b946102a435988911610501576123de610019993690600401610513565b989097613c5c565b3461050157604036600319011261050157602435612403816108f5565b61240b613109565b60008080808094600435905af16124206138aa565b50156124295780f35b60405162461bcd60e51b815260206004820152600c60248201526b1554d113ce8819985a5b195960a21b6044820152606490fd5b3461050157600036600319011261050157601e546040516001600160a01b039091168152602090f35b34610501576000366003190112610501576040517f00000000000000000000000000000000000000000000000000000000000000006001600160a01b03168152602090f35b3461050157604036600319011261050157602060ff611d486024356124ef816108f5565b600435600052600f845260406000209060018060a01b0316600052602052604060002090565b34610501576020366003190112610501577f5db758e995a17ec1ad84bdef7e8c3293a0bd6179bcce400dff5d4c3d87db726b6020600435612555816108f5565b61255d613109565b600480546001600160a01b0319166001600160a01b03929092169182179055604051908152a1005b346105015760003660031901126105015760206040516127108152f35b34610501576080366003190112610501576004356125bf816104f5565b6024356125cb816104f5565b6064356001600160401b038111610501576125ea903690600401610513565b90926125f4613109565b7f00000000000000000000000000000000000000000000000000000000000000006001600160a01b031690813b15610501576000809461266b604051978896879586946332fb62e760e21b865261ffff8092166004870152166024850152604435604485015260806064850152608484019161394c565b03925af180156108ec5761267b57005b80612688610019926111ef565b8061070f565b3461050157600036600319011261050157600e546040516001600160a01b039091168152602090f35b6126c036610540565b9161ffff8694929616600052600560205261270781604060002060206040518092878b833787820190815203019020906001600160401b0316600052602052604060002090565b549182156127c9576127b884836127b17fc264d91f3adc5588250e1551f547752ca0cfa8f6b530d243b9f9f4cab10ea8e59a600061279d846127858e8a8f6127c49f908f61276b9061275e61277f9436908d611279565b6020815191012014614a86565b61ffff166000526005602052604060002090565b91614a6d565b906001600160401b0316600052602052604060002090565b556127a936878d611279565b933691611279565b91886147fc565b60405195869586614adc565b0390a1005b60405162461bcd60e51b815260206004820152602360248201527f4e6f6e626c6f636b696e674c7a4170703a206e6f2073746f726564206d65737360448201526261676560e81b6064820152608490fd5b6084359060ff8216820361050157565b359060ff8216820361050157565b346105015760e036600319011261050157600435612855816108f5565b602435612861816108f5565b604435906064359261287161281a565b938042116129545761293c61294f91612916610019976129246128af8760018060a01b03166000526013602052604060002090815491600183019055565b604080517f6e71edae12b1b97f4d1f60370fef10105fa2faae0126114a169c64845d6126c9602082019081526001600160a01b03808c1693830193909352918b166060820152608081018c905260a081019290925260c082019590955292839060e0820190565b03601f19810184528361123d565b61293760c4359360a43593519020613863565b61356a565b6001600160a01b0383811691161461351e565b61335b565b60405162461bcd60e51b815260206004820152601d60248201527f45524332305065726d69743a206578706972656420646561646c696e650000006044820152606490fd5b3461050157600036600319011261050157600d546040516001600160a01b039091168152602090f35b3461050157604036600319011261050157602061138d6004356129e4816108f5565b602435906129f1826108f5565b60018060a01b03166000526009835260406000209060018060a01b0316600052602052604060002090565b34610501576000366003190112610501576040517f00000000000000000000000000000000000000000000000000000000000000006001600160a01b03168152602090f35b3461050157606036600319011261050157600435612a7e816104f5565b602435612a8a816104f5565b60443591612a96613109565b8215612b11576127c47f9d5c7c0b934da8fefa9c7760c98383778a12dfbfc0c3b3106518f43fb9508ac09361ffff8316600052600260205280612aeb8560406000209061ffff16600052602052604060002090565b556040519384938460409194939294606082019561ffff80921683521660208201520152565b60405162461bcd60e51b81526020600482015260156024820152744c7a4170703a20696e76616c6964206d696e47617360581b6044820152606490fd5b3461050157600036600319011261050157602060405160018152f35b34610501576020366003190112610501577f1584ad594a70cbe1e6515592e1272a987d922b097ead875069cebe8b40c004a46020612ba6610b25565b612bae613109565b151560ff196006541660ff821617600655604051908152a1005b346105015761010036600319011261050157600435612be6816104f5565b6001600160401b039060243582811161050157612c07903690600401610513565b919060443590848216820361050157608435612c22816108f5565b60c43595861161050157612c3d610019963690600401610513565b94909360e4359660a4359460643593614c3b565b3461050157612c5f36610c9c565b9190612c69613109565b60009161ffff81168352600160209080825260408520916001600160401b03871161120257612ca287612c9c85546115ba565b856145e0565b8590601f8811600114612d09575091868087989361225c957ffa41487ad5d6728f0b19276fa1eddc16558578f5109fc39d2dc33c3230470dab9993612cfe575b501b906000198460031b1c1916179055604051938493846145c5565b880135925038612ce2565b90601f198816612d1e85600052602060002090565b9288905b828210612d84575050918893917ffa41487ad5d6728f0b19276fa1eddc16558578f5109fc39d2dc33c3230470dab989961225c969410612d6a575b505082811b019055612250565b870135600019600386901b60f8161c191690553880612d5d565b808685968294968c01358155019501930190612d22565b3461050157604036600319011261050157602060ff611d48602435612dbf816108f5565b6004356000526010845260406000209060018060a01b0316600052602052604060002090565b3461050157600036600319011261050157602060ff600654166040519015158152f35b3461050157604036600319011261050157600435612e25816108f5565b7f53b8f1e625ffdc96b26d9f5c6bba4ebc3f54077767495fa2619d32b285e193b96020612e50610b07565b92612e59613109565b612e616141d1565b6000908152600f835260408082206001600160a01b03841683526020529020611c27908590611c16565b3461050157602036600319011261050157600435612ea8816108f5565b612eb0613109565b6001600160a01b039081168015612efe57600080546001600160a01b03198116831782559092167f8be0079c531659141344cd1fd0a4f28419497f9722a3daafe3b4186f6b6457e08380a380f35b60405162461bcd60e51b815260206004820152602660248201527f4f776e61626c653a206e6577206f776e657220697320746865207a65726f206160448201526564647265737360d01b6064820152608490fd5b3461050157608036600319011261050157600435612f6f816104f5565b60243590612f7c826104f5565b612f876044356108f5565b604051633d7b2f6f60e21b815261ffff91821660048201529116602482015230604482015260648035908201526000816084817f00000000000000000000000000000000000000000000000000000000000000006001600160a01b03165afa80156108ec576107ce91600091613005575b5060405191829182610762565b613020913d8091833e613018818361123d565b81019061458f565b38612ff8565b346105015760203660031901126105015761303f610b25565b61305460018060a01b03600e541633146138da565b60ff601154917f9c13c5f6c628c1c82eb2b3fd8714da5c2857dbd0ad8ab6b2074abcf81015d396604080519284861615158452151592836020820152a160ff19909216911617601155005b34610501576020366003190112610501576004356130bc816108f5565b6130c4613109565b6001600160a01b03166130d88115156138da565b600e80546001600160a01b031916919091179055005b34610501576000366003190112610501576020604051308152f35b6000546001600160a01b0316330361311d57565b606460405162461bcd60e51b815260206004820152602060248201527f4f776e61626c653a2063616c6c6572206973206e6f7420746865206f776e65726044820152fd5b634e487b7160e01b600052601160045260246000fd5b90601f8201809211610a5657565b6051019081605111610a5657565b91908201809211610a5657565b156131a757565b60405162461bcd60e51b815260206004820152602360248201527f45524332303a207472616e7366657220746f20746865207a65726f206164647260448201526265737360e81b6064820152608490fd5b156131ff57565b60405162461bcd60e51b815260206004820152602660248201527f45524332303a207472616e7366657220616d6f756e7420657863656564732062604482015265616c616e636560d01b6064820152608490fd5b916001600160a01b038084169290918315613308576132ed826000805160206159878339815191529461330394169661328d8815156131a0565b6001600160a01b03811660009081526008602052604090206132d2908590546132b8828210156131f8565b039160018060a01b03166000526008602052604060002090565b556001600160a01b0316600090815260086020526040902090565b8054820190556040519081529081906020820190565b0390a3565b60405162461bcd60e51b815260206004820152602560248201527f45524332303a207472616e736665722066726f6d20746865207a65726f206164604482015264647265737360d81b6064820152608490fd5b6001600160a01b0380821692919083156134355782169384156133e557806133d47f8c5be1e5ebec7d5bd14f71427d1e84f3dd0314c0f7b2291e5b200ac8c7c3b925946133bd6133039560018060a01b03166000526009602052604060002090565b9060018060a01b0316600052602052604060002090565b556040519081529081906020820190565b60405162461bcd60e51b815260206004820152602260248201527f45524332303a20617070726f766520746f20746865207a65726f206164647265604482015261737360f01b6064820152608490fd5b60405162461bcd60e51b8152602060048201526024808201527f45524332303a20617070726f76652066726f6d20746865207a65726f206164646044820152637265737360e01b6064820152608490fd5b6001600160a01b0380821660009081526009602090815260408083209386168352929052209091905492600184016134be5750505050565b8084106134d9576134d093039161335b565b38808080611621565b60405162461bcd60e51b815260206004820152601d60248201527f45524332303a20696e73756666696369656e7420616c6c6f77616e63650000006044820152606490fd5b1561352557565b60405162461bcd60e51b815260206004820152601e60248201527f45524332305065726d69743a20696e76616c6964207369676e617475726500006044820152606490fd5b916107739391613579936136d1565b9190916135a6565b634e487b7160e01b600052602160045260246000fd5b600511156135a157565b613581565b6135af81613597565b806135b75750565b6135c081613597565b6001810361360c5760405162461bcd60e51b815260206004820152601860248201527745434453413a20696e76616c6964207369676e617475726560401b6044820152606490fd5b0390fd5b61361581613597565b600281036136625760405162461bcd60e51b815260206004820152601f60248201527f45434453413a20696e76616c6964207369676e6174757265206c656e677468006044820152606490fd5b8061366e600392613597565b1461367557565b60405162461bcd60e51b815260206004820152602260248201527f45434453413a20696e76616c6964207369676e6174757265202773272076616c604482015261756560f01b6064820152608490fd5b6040513d6000823e3d90fd5b9291906fa2a8918ca85bafe22016d0b997e4df60600160ff1b03831161373d5791608094939160ff602094604051948552168484015260408301526060820152600093849182805260015afa156108ec5781516001600160a01b03811615613737579190565b50600190565b50505050600090600390565b307f00000000000000000000000000000000000000000000000000000000000000006001600160a01b0316148061383a575b156137a4577f000000000000000000000000000000000000000000000000000000000000000090565b60405160208101907f000000000000000000000000000000000000000000000000000000000000000082527f000000000000000000000000000000000000000000000000000000000000000060408201527f000000000000000000000000000000000000000000000000000000000000000060608201524660808201523060a082015260a0815261383481611207565b51902090565b507f0000000000000000000000000000000000000000000000000000000000000000461461377b565b61386b613749565b9060405190602082019261190160f01b84526022830152604282015260428152608081018181106001600160401b038211176112025760405251902090565b3d156138d5573d906138bb8261125e565b916138c9604051938461123d565b82523d6000602084013e565b606090565b156138e157565b60405162461bcd60e51b81526020600482015260126024820152711554d113ce881d5b985d5d1a1bdc9a5e995960721b6044820152606490fd5b9035601e19823603018112156105015701602081359101916001600160401b03821161050157813603831361050157565b908060209392818452848401376000828201840152601f01601f1916010190565b9060606139a1610773938035613982816108f5565b6001600160a01b0316845260208181013590850152604081019061391b565b919092816040820152019161394c565b60606084356139bf816108f5565b6001600160a01b0390811683528060a4356139d9816108f5565b1660208401528060c4356139ec816108f5565b16604084015260e4356139fe816108f5565b16910152565b35906001600160801b038216820361050157565b60808091613a2581610b34565b151584526020810135613a37816108f5565b6001600160a01b031660208501526000196001831b0180613a5a60408401613a04565b166040860152613a6c60608301613a04565b1660608501520135910152565b60408091613a8681610b34565b151584526020810135613a98816108f5565b6001600160a01b031660208501520135910152565b9190808252602080920192916000905b828210613acb575050505090565b9091929380613ae5600192613adf88610b34565b15159052565b613afb613af3848801610b34565b151582850152565b613b136040613b0b818901610b34565b151590830152565b613b236060613b0b818901610b34565b613b3d6080613b33818901610506565b61ffff1690830152565b613b5c60a0613b4d818901610913565b6001600160a01b031690830152565b613b6c60c0613b0b818901610b34565b613b7c60e0613b4d818901610913565b613b8d610100613b4d818901610913565b61012080870135908201526101408087013590820152613bbd610160613bb481890161282a565b60ff1690830152565b61018086810135908201526101a080870135908201526101c0908101950193920190613abd565b90613bee82610b34565b1515815260208201356020820152613c0860408301610b34565b1515604082015261ffff6060830135613c20816104f5565b16606082015260a0613c5481613c4d613c3c608087018761391b565b60c0608088015260c087019161394c565b9401610b34565b151591015290565b60405163af2a29c360e01b60208201526001600160a01b039182166024820152918116604483015261ffff909216606482015291811660848301529096879695949093929091613cab82610b34565b151560a4890152602082013560c4890152604082013560e48901526060820135613cd4816108f5565b16610104880152613ce760808201610913565b6001600160a01b0316610124880152613d0260a08201610b34565b151561014488015260c0810135610164880152613d26610184880160e08301613a18565b613d399061022488019061018001613a79565b61028486016102c090526102e4860190613d5292613aad565b916023199283868203016102a4870152613d6b91613be4565b91848303016102c4850152613d7f9261394c565b03601f1981018252613d91908261123d565b613d9a90614174565b5050565b903560be1982360301811215610501570190565b9061077391613dc482613adf83610b34565b60208101356020830152613de6613ddd60408301610b34565b15156040840152565b60608101356060830152613e08613dff60808301610b34565b15156080840152565b60a081013560a0830152613e2260c0830160c08301613a79565b613e33610120808401908301613a79565b613e56610180613e4581840184613d9e565b906101c08091860152840190613be4565b91613e676101a09283810190613d9e565b91818403910152613be4565b604051634620a6d160e01b60208201526001600160a01b039182166024820152918116604483015261ffff9092166064820152918116608483015261014060a4830152909687969590939092613ece9161016489019161394c565b93818135613edb816108f5565b1660c4880152816020820135613ef0816108f5565b1660e488015260400135613f03816108f5565b16610104860152602319928386820301610124870152613f2291613db2565b9184830301610144850152613d7f92613aad565b6040809161ffff8135613f48816104f5565b1684526020810135613a98816108f5565b60a08091613f6681610b34565b151584526020810135613f78816108f5565b600180841b03809116602086015261ffff6040830135613f97816104f5565b166040860152606082013560608601526080820135613fb5816108f5565b1660808501520135910152565b9060606139a1610773938035613fd7816108f5565b6001600160a01b0390811685526020820135613ff2816108f5565b166020850152604081019061391b565b600160005260126020527f71a67924699a20698523213e55fe499d539379d7769cd5567e2c45d583f815a3546001600160a01b0316801561409057816000929160208493519201905af4906140556138aa565b90821580614088575b61406457565b61360861407083614298565b60405162461bcd60e51b815291829160048301610762565b50600161405e565b60405162461bcd60e51b81526020600482015260166024820152751554d113ce881b5bd91d5b19481b9bdd08199bdd5b9960521b6044820152606490fd5b600660005260126020527f1223f9031f9dca49a7844c397098ce9a4e80513444d0a8bb59820dff564808e4546001600160a01b0316801561409057816000929160208493519201905af4906140556138aa565b600260005260126020527f8e1fee8c88a9e04123b21e90cae2727a7715bf522a1e46eb5934ccd05203a6b2546001600160a01b0316801561409057816000929160208493519201905af4906140556138aa565b600460005260126020527fb4fcd034df3d20faa1c133b66d862ce92732727d40916b48ffb4020cb00fe053546001600160a01b0316801561409057816000929160208493519201905af4906140556138aa565b600811156135a157565b6040516303408e4760e41b81526020816004817f00000000000000000000000000000000000000000000000000000000000000006001600160a01b03165afa80156108ec57600090614227575b61ffff91501690565b6020823d821161425b575b8161423f6020938361123d565b81010312610853575061ffff9051614256816104f5565b61421e565b3d9150614232565b909291926142708161125e565b9161427e604051938461123d565b82948284528282011161050157602061051193019061071a565b60448151106142e957600481015181019060208160248401930312610501576024810151906001600160401b0382116105015701908060438301121561050157602482015161077392604401614263565b506040516142f681611222565b600a8152695553444f3a206461746160b01b602082015290565b1561431757565b60405162461bcd60e51b815260206004820152600c60248201526b1554d113ce881c185d5cd95960a21b6044820152606490fd5b6001600160a01b038116919082156143ae57600a5490828201809211610a565760009261439f60209260008051602061598783398151915294600a5560018060a01b03166000526008602052604060002090565b818154019055604051908152a3565b60405162461bcd60e51b815260206004820152601f60248201527f45524332303a206d696e7420746f20746865207a65726f2061646472657373006044820152606490fd5b6001600160a01b0381169081156144c7576001600160a01b03811660009081526008602052604090205483811061447757836000805160206159878339815191529261445960009661330394039160018060a01b03166000526008602052604060002090565b5561446781600a5403600a55565b6040519081529081906020820190565b60405162461bcd60e51b815260206004820152602260248201527f45524332303a206275726e20616d6f756e7420657863656564732062616c616e604482015261636560f01b6064820152608490fd5b60405162461bcd60e51b815260206004820152602160248201527f45524332303a206275726e2066726f6d20746865207a65726f206164647265736044820152607360f81b6064820152608490fd5b601319810191908211610a5657565b605019810191908211610a5657565b1561453b57565b60405162461bcd60e51b815260206004820152602660248201527f4c7a4170703a20696e76616c696420736f757263652073656e64696e6720636f6044820152651b9d1c9858dd60d21b6064820152608490fd5b602081830312610501578051906001600160401b03821161050157019080601f8301121561050157815161077392602001614263565b60409061ffff6107739593168152816020820152019161394c565b90601f81116145ee57505050565b600091825260208220906020601f850160051c8301941061462a575b601f0160051c01915b82811061461f57505050565b818155600101614613565b909250829061460a565b9290916146985a604051633356ae4560e11b602082015261ffff8716602482015260806044820152906146928261291661467160a483018a61073d565b6001600160401b03881660648401528281036023190160848401528861073d565b3061591b565b9390156146a7575b5050505050565b6146b0946146ba565b38808080806146a0565b91936147577fe183f33de2837795525b4792ca4cd60535bd77c53b7e7030060bfcf5734d6b0c95614765939561ffff8151602083012096169586600052600560205261471e8361136c60208b6040600020826040519483868095519384920161071a565b556001600160401b03614743604051988998895260a060208a015260a089019061073d565b92166040870152858203606087015261073d565b90838203608085015261073d565b0390a1565b90604051604081018181106001600160401b038211176112025760405280925460ff81169060088210156135a15790825260d81b6001600160e01b03191660209190910152565b91610773959361ffff6147e8926001600160401b039460018060a01b0316865216602085015260a0604085015260a084019061073d565b93166060820152608081840391015261073d565b929190614808836158ce565b61482661481f82600052601c602052604060002090565b5460ff1690565b61482f816141c7565b15614988579361485461484f61051196600052601c602052604060002090565b61476a565b805161485f816141c7565b60208201516001600160e01b0319169180519061487b826141c7565b614884826141c7565b6000916005036148d35750506018546148ce906148b1906001600160a01b03165b6001600160a01b031690565b925b612916888888886040519889966020880152602487016147b1565b6149fd565b600381516148e0816141c7565b6148e9816141c7565b0361490f5750506016546148ce90614909906001600160a01b03166148a5565b926148b3565b6007815161491c816141c7565b614925816141c7565b0361494a575050601a546148ce90614945906001600160a01b03166148a5565b614909565b60019051614957816141c7565b614960816141c7565b0361497f5750601b546148ce90614945906001600160a01b03166148a5565b6148ce90614909565b5061499b61499584615873565b60ff1690565b806149ac5750505061051191614f96565b6001036149bc57610511936150ed565b60405162461bcd60e51b81526020600482015260196024820152785553444f3a20756e6b6e6f776e207061636b6574207479706560381b6044820152606490fd5b949293919460088110156135a1576000908152601260205260409020546001600160a01b0316801561409057816000929160208493519201905af492614a416138aa565b93158080614a65575b614a59576146a7575050505050565b61360861407086614298565b506000614a4a565b6020919283604051948593843782019081520301902090565b15614a8d57565b60405162461bcd60e51b815260206004820152602160248201527f4e6f6e626c6f636b696e674c7a4170703a20696e76616c6964207061796c6f616044820152601960fa1b6064820152608490fd5b91614b089060609461ffff6001600160401b03949998979916855260806020860152608085019161394c565b951660408201520152565b903590601e198136030182121561050157018035906001600160401b0382116105015760200191813603831361050157565b94919598979061184d614b6e604099614b66614b7497614b91993691611279565b943691611279565b976153a1565b928451968794859463040a7bb160e41b8652309060048701614d3d565b03817f00000000000000000000000000000000000000000000000000000000000000006001600160a01b03165afa9182156108ec576000908193614bd457509190565b90506105a191925060403d8111610c3e57610c2f818361123d565b93969491614c1d9061077399979461ffff6001600160401b039416875260c0602088015260c087019161394c565b961660408401526060830152608082015260a081850391015261394c565b91969792989594939094303303614ce257614c5790853061566b565b60405181815290946001600160a01b03169390849061ffff8516907fbf551ec93859b170f9b2141bd9298bf3f64322c6f7beb2543a0cb669834118bf90602090a3833b15610501576000988995614cc5936040519c8d9b8c9a8b98633fe79aed60e11b8a5260048a01614bef565b0393f180156108ec57614cd55750565b80612688610511926111ef565b60405162461bcd60e51b815260206004820152601f60248201527f4f4654436f72653a2063616c6c6572206d757374206265204f4654436f7265006044820152606490fd5b9190826040910312610501576020825192015190565b9192610773959361ffff614d6c9316845260018060a01b0316602084015260a0604084015260a083019061073d565b9215156060820152608081840391015261073d565b15614d8857565b60405162461bcd60e51b815260206004820152601960248201527813d19510dbdc994e88185b5bdd5b9d081d1bdbc81cdb585b1b603a1b6044820152606490fd5b92614dee61077397959361ffff614dfc9416865260c0602087015260c086019061073d565b90848203604086015261073d565b6001600160a01b0391821660608401529316608082015280830360a09091015261073d565b94614e4a9193929561ffff81166000526001602052614e516040600020604051948580926115f4565b038461123d565b825115614ec957614e63855182614f27565b7f00000000000000000000000000000000000000000000000000000000000000006001600160a01b031693843b1561050157600096614eb891604051998a988997889662c5803160e81b885260048801614dc9565b03925af180156108ec57614cd55750565b60405162461bcd60e51b815260206004820152603060248201527f4c7a4170703a2064657374696e6174696f6e20636861696e206973206e6f742060448201526f61207472757374656420736f7572636560801b6064820152608490fd5b61ffff166000526003602052604060002054908115614f8c575b11614f4857565b606460405162461bcd60e51b815260206004820152602060248201527f4c7a4170703a207061796c6f61642073697a6520697320746f6f206c617267656044820152fd5b6127109150614f41565b9060ff614fa282615873565b161580615054575b614fb3906154b8565b614fc5614fbf82615823565b916158be565b6001600160a01b03908183161561504a575b61ffff7fbf551ec93859b170f9b2141bd9298bf3f64322c6f7beb2543a0cb669834118bf926150326020936001600160401b037f00000000000000000000000000000000000000000000000000000000000000009116615428565b9461503d868261434b565b60405195865216941692a3565b61dead9250614fd7565b508051602914614faa565b98979692936001600160401b0361509160e0989461ffff6150bd9995168d5260208d61010091829101528d019061073d565b951660408b015260608a01526001600160a01b0316608089015260a088015286820360c088015261073d565b930152565b6001600160401b036150e26040939695949660608452606084019061073d565b951660208201520152565b90916150f88461556c565b909161512261481f8761278561511c8b61ffff166000526007602052604060002090565b8c611309565b916151586001600160401b0392837f00000000000000000000000000000000000000000000000000000000000000009116615428565b9288888b8315615254575b505050853b1561520957946151aa9694614692948a94612916948d996000146152025750505a925b5a978b6040519a8b9863757fea4d60e11b60208b015260248a0161505f565b90156151f75750906151f261ffff928560207fb8890edbfc1c74692f527444645f95489c3703cc2df42e4a366f5d06fa6cd884969751910120906040519485941696846150c2565b0390a2565b9261051194926146ba565b169261518b565b50506040516001600160a01b039094168452507f9aedf5fdba8716db3b6705ca00150643309995d4f818a249ed6dde6677e7792d975091955085945050602084019250614765915050565b90612785615289926152838961526e615296979b3061434b565b9961ffff166000526007602052604060002090565b90611309565b805460ff19166001179055565b88888b615163565b60065460ff16156152eb5760228251106118545761ffff6022610511930151911660005260026020526152de604060002060008052602052604060002090565b549061181b8215156152f3565b50516118c657565b156152fa57565b60405162461bcd60e51b815260206004820152601a60248201527f4c7a4170703a206d696e4761734c696d6974206e6f74207365740000000000006044820152606490fd5b1561534657565b60405162461bcd60e51b815260206004820152601b60248201527f4c7a4170703a20676173206c696d697420697320746f6f206c6f7700000000006044820152606490fd5b634e487b7160e01b600052601260045260246000fd5b7f000000000000000000000000000000000000000000000000000000000000000090811561542357046001600160401b03908181116153de571690565b60405162461bcd60e51b815260206004820152601a60248201527f4f4654436f72653a20616d6f756e745344206f766572666c6f770000000000006044820152606490fd5b61538b565b81810292918115918404141715610a5657565b7f0000000000000000000000000000000000000000000000000000000000000000801561542357810690818103908111610a565791565b90604051916000602084015260218301526001600160401b0360c01b9060c01b16604182015260298152606081018181106001600160401b038211176112025760405290565b156154bf57565b60405162461bcd60e51b815260206004820152601860248201527713d19510dbdc994e881a5b9d985b1a59081c185e5b1bd85960421b6044820152606490fd5b939260719261077394604051968794600160f81b602087015260218601526001600160401b0360c01b809360c01b16604186015260018060a01b0316604985015260c01b16606983015261555c815180926020868601910161071a565b810103605181018452018261123d565b90615584600160ff61557d85615873565b16146154b8565b61558d82615823565b90615597836158be565b9060498451106156085760498401519360518151106155cc576155c96051820151916155c38151614525565b9061579f565b91565b60405162461bcd60e51b8152602060048201526014602482015273746f55696e7436345f6f75744f66426f756e647360601b6044820152606490fd5b60405162461bcd60e51b8152602060048201526015602482015274746f427974657333325f6f75744f66426f756e647360581b6044820152606490fd5b6107739082906001600160a01b03811633146143f357615666823383613486565b6143f3565b6107739183916001600160a01b038116308114159081615697575b501561325357610ab4833383613486565b905033141538615686565b156156a957565b60405162461bcd60e51b815260206004820152600e60248201526d736c6963655f6f766572666c6f7760901b6044820152606490fd5b156156e657565b60405162461bcd60e51b8152602060048201526011602482015270736c6963655f6f75744f66426f756e647360781b6044820152606490fd5b6157338261572c81613177565b10156156a2565b61574082825110156156df565b81615758575050604051600081526020810160405290565b60405191601f811691821560051b808486010193838501920101905b80841061578c5750508252601f01601f191660405290565b9092835181526020809101930190615774565b6157ac8261572c81613177565b6157c181516157ba84613185565b11156156df565b816157d9575050604051600081526020810160405290565b60405191601f8116916051831560051b80858701019484860193010101905b8084106158105750508252601f01601f191660405290565b90928351815260208091019301906157f8565b602181511061583657602d015160601c90565b60405162461bcd60e51b8152602060048201526015602482015274746f416464726573735f6f75744f66426f756e647360581b6044820152606490fd5b6001815110615883576001015190565b60405162461bcd60e51b8152602060048201526013602482015272746f55696e74385f6f75744f66426f756e647360681b6044820152606490fd5b60298151106155cc576029015190565b60208151106158de576020015190565b60405162461bcd60e51b8152602060048201526015602482015274746f55696e743235365f6f75744f66426f756e647360581b6044820152606490fd5b909291600080916040519561592f87611207565b6096875282602088019560a036883760208451940192f1903d906096821161595d575b6000908286523e9190565b6096915061595256fed81fc9b8523134ed613870ed029d6170cbb73aa6a6bc311b9a642689fb9df59addf252ad1be2c89b69c2b068fc378daa952ba7f163c4a11628f55a4df523b3efa26469706673582212206c42506c8cb704c5bb05b07f8b893075d23b54cb29474863811712d73be2f43b64736f6c634300081200338b73c3c69bb8fe3d512ecc4cf759cc79239f7b179b0ffacaa9a75d522b39400f",
  "linkReferences": {},
  "deployedLinkReferences": {}
}