{
  "_format": "hh-sol-artifact-1",
  "contractName": "USDOMarketModule",
  "sourceName": "contracts/usd0/modules/USDOMarketModule.sol",
  "abi": [
    {
      "inputs": [
        {
          "internalType": "address",
          "name": "_lzEndpoint",
          "type": "address"
        },
        {
          "internalType": "contract IYieldBoxBase",
          "name": "_yieldBox",
          "type": "address"
        },
        {
          "internalType": "contract ICluster",
          "name": "_cluster",
          "type": "address"
        }
      ],
      "stateMutability": "nonpayable",
      "type": "constructor"
    },
    {
      "anonymous": false,
      "inputs": [
        {
          "indexed": true,
          "internalType": "address",
          "name": "owner",
          "type": "address"
        },
        {
          "indexed": true,
          "internalType": "address",
          "name": "spender",
          "type": "address"
        },
        {
          "indexed": false,
          "internalType": "uint256",
          "name": "value",
          "type": "uint256"
        }
      ],
      "name": "Approval",
      "type": "event"
    },
    {
      "anonymous": false,
      "inputs": [
        {
          "indexed": true,
          "internalType": "uint16",
          "name": "_srcChainId",
          "type": "uint16"
        },
        {
          "indexed": false,
          "internalType": "bytes",
          "name": "_srcAddress",
          "type": "bytes"
        },
        {
          "indexed": false,
          "internalType": "uint64",
          "name": "_nonce",
          "type": "uint64"
        },
        {
          "indexed": false,
          "internalType": "bytes32",
          "name": "_hash",
          "type": "bytes32"
        }
      ],
      "name": "CallOFTReceivedSuccess",
      "type": "event"
    },
    {
      "anonymous": false,
      "inputs": [
        {
          "indexed": true,
          "internalType": "address",
          "name": "old",
          "type": "address"
        },
        {
          "indexed": true,
          "internalType": "address",
          "name": "_new",
          "type": "address"
        }
      ],
      "name": "ConservatorUpdated",
      "type": "event"
    },
    {
      "anonymous": false,
      "inputs": [
        {
          "indexed": false,
          "internalType": "uint256",
          "name": "_old",
          "type": "uint256"
        },
        {
          "indexed": false,
          "internalType": "uint256",
          "name": "_new",
          "type": "uint256"
        }
      ],
      "name": "FlashMintFeeUpdated",
      "type": "event"
    },
    {
      "anonymous": false,
      "inputs": [
        {
          "indexed": false,
          "internalType": "uint256",
          "name": "_old",
          "type": "uint256"
        },
        {
          "indexed": false,
          "internalType": "uint256",
          "name": "_new",
          "type": "uint256"
        }
      ],
      "name": "MaxFlashMintUpdated",
      "type": "event"
    },
    {
      "anonymous": false,
      "inputs": [
        {
          "indexed": false,
          "internalType": "uint16",
          "name": "_srcChainId",
          "type": "uint16"
        },
        {
          "indexed": false,
          "internalType": "bytes",
          "name": "_srcAddress",
          "type": "bytes"
        },
        {
          "indexed": false,
          "internalType": "uint64",
          "name": "_nonce",
          "type": "uint64"
        },
        {
          "indexed": false,
          "internalType": "bytes",
          "name": "_payload",
          "type": "bytes"
        },
        {
          "indexed": false,
          "internalType": "bytes",
          "name": "_reason",
          "type": "bytes"
        }
      ],
      "name": "MessageFailed",
      "type": "event"
    },
    {
      "anonymous": false,
      "inputs": [
        {
          "indexed": false,
          "internalType": "address",
          "name": "_address",
          "type": "address"
        }
      ],
      "name": "NonContractAddress",
      "type": "event"
    },
    {
      "anonymous": false,
      "inputs": [
        {
          "indexed": true,
          "internalType": "address",
          "name": "previousOwner",
          "type": "address"
        },
        {
          "indexed": true,
          "internalType": "address",
          "name": "newOwner",
          "type": "address"
        }
      ],
      "name": "OwnershipTransferred",
      "type": "event"
    },
    {
      "anonymous": false,
      "inputs": [
        {
          "indexed": false,
          "internalType": "bool",
          "name": "oldState",
          "type": "bool"
        },
        {
          "indexed": false,
          "internalType": "bool",
          "name": "newState",
          "type": "bool"
        }
      ],
      "name": "PausedUpdated",
      "type": "event"
    },
    {
      "anonymous": false,
      "inputs": [
        {
          "indexed": true,
          "internalType": "uint16",
          "name": "_srcChainId",
          "type": "uint16"
        },
        {
          "indexed": true,
          "internalType": "address",
          "name": "_to",
          "type": "address"
        },
        {
          "indexed": false,
          "internalType": "uint256",
          "name": "_amount",
          "type": "uint256"
        }
      ],
      "name": "ReceiveFromChain",
      "type": "event"
    },
    {
      "anonymous": false,
      "inputs": [
        {
          "indexed": false,
          "internalType": "uint16",
          "name": "_srcChainId",
          "type": "uint16"
        },
        {
          "indexed": false,
          "internalType": "bytes",
          "name": "_srcAddress",
          "type": "bytes"
        },
        {
          "indexed": false,
          "internalType": "uint64",
          "name": "_nonce",
          "type": "uint64"
        },
        {
          "indexed": false,
          "internalType": "bytes32",
          "name": "_payloadHash",
          "type": "bytes32"
        }
      ],
      "name": "RetryMessageSuccess",
      "type": "event"
    },
    {
      "anonymous": false,
      "inputs": [
        {
          "indexed": true,
          "internalType": "uint16",
          "name": "_dstChainId",
          "type": "uint16"
        },
        {
          "indexed": true,
          "internalType": "address",
          "name": "_from",
          "type": "address"
        },
        {
          "indexed": true,
          "internalType": "bytes32",
          "name": "_toAddress",
          "type": "bytes32"
        },
        {
          "indexed": false,
          "internalType": "uint256",
          "name": "_amount",
          "type": "uint256"
        }
      ],
      "name": "SendToChain",
      "type": "event"
    },
    {
      "anonymous": false,
      "inputs": [
        {
          "indexed": true,
          "internalType": "address",
          "name": "_for",
          "type": "address"
        },
        {
          "indexed": false,
          "internalType": "bool",
          "name": "_status",
          "type": "bool"
        }
      ],
      "name": "SetBurnerStatus",
      "type": "event"
    },
    {
      "anonymous": false,
      "inputs": [
        {
          "indexed": false,
          "internalType": "uint16",
          "name": "_dstChainId",
          "type": "uint16"
        },
        {
          "indexed": false,
          "internalType": "uint16",
          "name": "_type",
          "type": "uint16"
        },
        {
          "indexed": false,
          "internalType": "uint256",
          "name": "_minDstGas",
          "type": "uint256"
        }
      ],
      "name": "SetMinDstGas",
      "type": "event"
    },
    {
      "anonymous": false,
      "inputs": [
        {
          "indexed": true,
          "internalType": "address",
          "name": "_for",
          "type": "address"
        },
        {
          "indexed": false,
          "internalType": "bool",
          "name": "_status",
          "type": "bool"
        }
      ],
      "name": "SetMinterStatus",
      "type": "event"
    },
    {
      "anonymous": false,
      "inputs": [
        {
          "indexed": false,
          "internalType": "address",
          "name": "precrime",
          "type": "address"
        }
      ],
      "name": "SetPrecrime",
      "type": "event"
    },
    {
      "anonymous": false,
      "inputs": [
        {
          "indexed": false,
          "internalType": "uint16",
          "name": "_remoteChainId",
          "type": "uint16"
        },
        {
          "indexed": false,
          "internalType": "bytes",
          "name": "_path",
          "type": "bytes"
        }
      ],
      "name": "SetTrustedRemote",
      "type": "event"
    },
    {
      "anonymous": false,
      "inputs": [
        {
          "indexed": false,
          "internalType": "uint16",
          "name": "_remoteChainId",
          "type": "uint16"
        },
        {
          "indexed": false,
          "internalType": "bytes",
          "name": "_remoteAddress",
          "type": "bytes"
        }
      ],
      "name": "SetTrustedRemoteAddress",
      "type": "event"
    },
    {
      "anonymous": false,
      "inputs": [
        {
          "indexed": false,
          "internalType": "bool",
          "name": "_useCustomAdapterParams",
          "type": "bool"
        }
      ],
      "name": "SetUseCustomAdapterParams",
      "type": "event"
    },
    {
      "anonymous": false,
      "inputs": [
        {
          "indexed": true,
          "internalType": "address",
          "name": "from",
          "type": "address"
        },
        {
          "indexed": true,
          "internalType": "address",
          "name": "to",
          "type": "address"
        },
        {
          "indexed": false,
          "internalType": "uint256",
          "name": "value",
          "type": "uint256"
        }
      ],
      "name": "Transfer",
      "type": "event"
    },
    {
      "inputs": [],
      "name": "DEFAULT_PAYLOAD_SIZE_LIMIT",
      "outputs": [
        {
          "internalType": "uint256",
          "name": "",
          "type": "uint256"
        }
      ],
      "stateMutability": "view",
      "type": "function"
    },
    {
      "inputs": [],
      "name": "NO_EXTRA_GAS",
      "outputs": [
        {
          "internalType": "uint256",
          "name": "",
          "type": "uint256"
        }
      ],
      "stateMutability": "view",
      "type": "function"
    },
    {
      "inputs": [],
      "name": "PT_SEND",
      "outputs": [
        {
          "internalType": "uint8",
          "name": "",
          "type": "uint8"
        }
      ],
      "stateMutability": "view",
      "type": "function"
    },
    {
      "inputs": [],
      "name": "PT_SEND_AND_CALL",
      "outputs": [
        {
          "internalType": "uint8",
          "name": "",
          "type": "uint8"
        }
      ],
      "stateMutability": "view",
      "type": "function"
    },
    {
      "inputs": [
        {
          "internalType": "address",
          "name": "owner",
          "type": "address"
        },
        {
          "internalType": "address",
          "name": "spender",
          "type": "address"
        }
      ],
      "name": "allowance",
      "outputs": [
        {
          "internalType": "uint256",
          "name": "",
          "type": "uint256"
        }
      ],
      "stateMutability": "view",
      "type": "function"
    },
    {
      "inputs": [
        {
          "internalType": "uint256",
          "name": "",
          "type": "uint256"
        },
        {
          "internalType": "address",
          "name": "",
          "type": "address"
        }
      ],
      "name": "allowedBurner",
      "outputs": [
        {
          "internalType": "bool",
          "name": "",
          "type": "bool"
        }
      ],
      "stateMutability": "view",
      "type": "function"
    },
    {
      "inputs": [
        {
          "internalType": "uint256",
          "name": "",
          "type": "uint256"
        },
        {
          "internalType": "address",
          "name": "",
          "type": "address"
        }
      ],
      "name": "allowedMinter",
      "outputs": [
        {
          "internalType": "bool",
          "name": "",
          "type": "bool"
        }
      ],
      "stateMutability": "view",
      "type": "function"
    },
    {
      "inputs": [
        {
          "internalType": "address",
          "name": "spender",
          "type": "address"
        },
        {
          "internalType": "uint256",
          "name": "amount",
          "type": "uint256"
        }
      ],
      "name": "approve",
      "outputs": [
        {
          "internalType": "bool",
          "name": "",
          "type": "bool"
        }
      ],
      "stateMutability": "nonpayable",
      "type": "function"
    },
    {
      "inputs": [
        {
          "internalType": "address",
          "name": "account",
          "type": "address"
        }
      ],
      "name": "balanceOf",
      "outputs": [
        {
          "internalType": "uint256",
          "name": "",
          "type": "uint256"
        }
      ],
      "stateMutability": "view",
      "type": "function"
    },
    {
      "inputs": [
        {
          "internalType": "uint16",
          "name": "_srcChainId",
          "type": "uint16"
        },
        {
          "internalType": "bytes",
          "name": "_srcAddress",
          "type": "bytes"
        },
        {
          "internalType": "uint64",
          "name": "_nonce",
          "type": "uint64"
        },
        {
          "internalType": "bytes32",
          "name": "_from",
          "type": "bytes32"
        },
        {
          "internalType": "address",
          "name": "_to",
          "type": "address"
        },
        {
          "internalType": "uint256",
          "name": "_amount",
          "type": "uint256"
        },
        {
          "internalType": "bytes",
          "name": "_payload",
          "type": "bytes"
        },
        {
          "internalType": "uint256",
          "name": "_gasForCall",
          "type": "uint256"
        }
      ],
      "name": "callOnOFTReceived",
      "outputs": [],
      "stateMutability": "nonpayable",
      "type": "function"
    },
    {
      "inputs": [],
      "name": "circulatingSupply",
      "outputs": [
        {
          "internalType": "uint256",
          "name": "",
          "type": "uint256"
        }
      ],
      "stateMutability": "view",
      "type": "function"
    },
    {
      "inputs": [],
      "name": "cluster",
      "outputs": [
        {
          "internalType": "contract ICluster",
          "name": "",
          "type": "address"
        }
      ],
      "stateMutability": "view",
      "type": "function"
    },
    {
      "inputs": [],
      "name": "conservator",
      "outputs": [
        {
          "internalType": "address",
          "name": "",
          "type": "address"
        }
      ],
      "stateMutability": "view",
      "type": "function"
    },
    {
      "inputs": [
        {
          "internalType": "uint16",
          "name": "",
          "type": "uint16"
        },
        {
          "internalType": "bytes",
          "name": "",
          "type": "bytes"
        },
        {
          "internalType": "uint64",
          "name": "",
          "type": "uint64"
        }
      ],
      "name": "creditedPackets",
      "outputs": [
        {
          "internalType": "bool",
          "name": "",
          "type": "bool"
        }
      ],
      "stateMutability": "view",
      "type": "function"
    },
    {
      "inputs": [],
      "name": "decimals",
      "outputs": [
        {
          "internalType": "uint8",
          "name": "",
          "type": "uint8"
        }
      ],
      "stateMutability": "view",
      "type": "function"
    },
    {
      "inputs": [
        {
          "internalType": "address",
          "name": "spender",
          "type": "address"
        },
        {
          "internalType": "uint256",
          "name": "subtractedValue",
          "type": "uint256"
        }
      ],
      "name": "decreaseAllowance",
      "outputs": [
        {
          "internalType": "bool",
          "name": "",
          "type": "bool"
        }
      ],
      "stateMutability": "nonpayable",
      "type": "function"
    },
    {
      "inputs": [
        {
          "internalType": "uint16",
          "name": "_dstChainId",
          "type": "uint16"
        },
        {
          "internalType": "bytes32",
          "name": "_toAddress",
          "type": "bytes32"
        },
        {
          "internalType": "uint256",
          "name": "_amount",
          "type": "uint256"
        },
        {
          "internalType": "bytes",
          "name": "_payload",
          "type": "bytes"
        },
        {
          "internalType": "uint64",
          "name": "_dstGasForCall",
          "type": "uint64"
        },
        {
          "internalType": "bool",
          "name": "_useZro",
          "type": "bool"
        },
        {
          "internalType": "bytes",
          "name": "_adapterParams",
          "type": "bytes"
        }
      ],
      "name": "estimateSendAndCallFee",
      "outputs": [
        {
          "internalType": "uint256",
          "name": "nativeFee",
          "type": "uint256"
        },
        {
          "internalType": "uint256",
          "name": "zroFee",
          "type": "uint256"
        }
      ],
      "stateMutability": "view",
      "type": "function"
    },
    {
      "inputs": [
        {
          "internalType": "uint16",
          "name": "_dstChainId",
          "type": "uint16"
        },
        {
          "internalType": "bytes32",
          "name": "_toAddress",
          "type": "bytes32"
        },
        {
          "internalType": "uint256",
          "name": "_amount",
          "type": "uint256"
        },
        {
          "internalType": "bool",
          "name": "_useZro",
          "type": "bool"
        },
        {
          "internalType": "bytes",
          "name": "_adapterParams",
          "type": "bytes"
        }
      ],
      "name": "estimateSendFee",
      "outputs": [
        {
          "internalType": "uint256",
          "name": "nativeFee",
          "type": "uint256"
        },
        {
          "internalType": "uint256",
          "name": "zroFee",
          "type": "uint256"
        }
      ],
      "stateMutability": "view",
      "type": "function"
    },
    {
      "inputs": [
        {
          "internalType": "uint16",
          "name": "",
          "type": "uint16"
        },
        {
          "internalType": "bytes",
          "name": "",
          "type": "bytes"
        },
        {
          "internalType": "uint64",
          "name": "",
          "type": "uint64"
        }
      ],
      "name": "failedMessages",
      "outputs": [
        {
          "internalType": "bytes32",
          "name": "",
          "type": "bytes32"
        }
      ],
      "stateMutability": "view",
      "type": "function"
    },
    {
      "inputs": [],
      "name": "flashMintFee",
      "outputs": [
        {
          "internalType": "uint256",
          "name": "",
          "type": "uint256"
        }
      ],
      "stateMutability": "view",
      "type": "function"
    },
    {
      "inputs": [
        {
          "internalType": "uint16",
          "name": "_srcChainId",
          "type": "uint16"
        },
        {
          "internalType": "bytes",
          "name": "_srcAddress",
          "type": "bytes"
        }
      ],
      "name": "forceResumeReceive",
      "outputs": [],
      "stateMutability": "nonpayable",
      "type": "function"
    },
    {
      "inputs": [
        {
          "internalType": "uint16",
          "name": "_version",
          "type": "uint16"
        },
        {
          "internalType": "uint16",
          "name": "_chainId",
          "type": "uint16"
        },
        {
          "internalType": "address",
          "name": "",
          "type": "address"
        },
        {
          "internalType": "uint256",
          "name": "_configType",
          "type": "uint256"
        }
      ],
      "name": "getConfig",
      "outputs": [
        {
          "internalType": "bytes",
          "name": "",
          "type": "bytes"
        }
      ],
      "stateMutability": "view",
      "type": "function"
    },
    {
      "inputs": [
        {
          "internalType": "uint16",
          "name": "_remoteChainId",
          "type": "uint16"
        }
      ],
      "name": "getTrustedRemoteAddress",
      "outputs": [
        {
          "internalType": "bytes",
          "name": "",
          "type": "bytes"
        }
      ],
      "stateMutability": "view",
      "type": "function"
    },
    {
      "inputs": [
        {
          "internalType": "address",
          "name": "spender",
          "type": "address"
        },
        {
          "internalType": "uint256",
          "name": "addedValue",
          "type": "uint256"
        }
      ],
      "name": "increaseAllowance",
      "outputs": [
        {
          "internalType": "bool",
          "name": "",
          "type": "bool"
        }
      ],
      "stateMutability": "nonpayable",
      "type": "function"
    },
    {
      "inputs": [
        {
          "internalType": "uint16",
          "name": "_srcChainId",
          "type": "uint16"
        },
        {
          "internalType": "bytes",
          "name": "_srcAddress",
          "type": "bytes"
        }
      ],
      "name": "isTrustedRemote",
      "outputs": [
        {
          "internalType": "bool",
          "name": "",
          "type": "bool"
        }
      ],
      "stateMutability": "view",
      "type": "function"
    },
    {
      "inputs": [
        {
          "internalType": "address",
          "name": "module",
          "type": "address"
        },
        {
          "internalType": "uint16",
          "name": "_srcChainId",
          "type": "uint16"
        },
        {
          "internalType": "bytes",
          "name": "_srcAddress",
          "type": "bytes"
        },
        {
          "internalType": "uint64",
          "name": "_nonce",
          "type": "uint64"
        },
        {
          "internalType": "bytes",
          "name": "_payload",
          "type": "bytes"
        }
      ],
      "name": "lend",
      "outputs": [],
      "stateMutability": "nonpayable",
      "type": "function"
    },
    {
      "inputs": [
        {
          "internalType": "address",
          "name": "to",
          "type": "address"
        },
        {
          "components": [
            {
              "internalType": "bool",
              "name": "repay",
              "type": "bool"
            },
            {
              "internalType": "uint256",
              "name": "depositAmount",
              "type": "uint256"
            },
            {
              "internalType": "uint256",
              "name": "repayAmount",
              "type": "uint256"
            },
            {
              "internalType": "address",
              "name": "marketHelper",
              "type": "address"
            },
            {
              "internalType": "address",
              "name": "market",
              "type": "address"
            },
            {
              "internalType": "bool",
              "name": "removeCollateral",
              "type": "bool"
            },
            {
              "internalType": "uint256",
              "name": "removeCollateralAmount",
              "type": "uint256"
            },
            {
              "components": [
                {
                  "internalType": "bool",
                  "name": "lock",
                  "type": "bool"
                },
                {
                  "internalType": "address",
                  "name": "target",
                  "type": "address"
                },
                {
                  "internalType": "uint128",
                  "name": "lockDuration",
                  "type": "uint128"
                },
                {
                  "internalType": "uint128",
                  "name": "amount",
                  "type": "uint128"
                },
                {
                  "internalType": "uint256",
                  "name": "fraction",
                  "type": "uint256"
                }
              ],
              "internalType": "struct ITapiocaOptionLiquidityProvision.IOptionsLockData",
              "name": "lockData",
              "type": "tuple"
            },
            {
              "components": [
                {
                  "internalType": "bool",
                  "name": "participate",
                  "type": "bool"
                },
                {
                  "internalType": "address",
                  "name": "target",
                  "type": "address"
                },
                {
                  "internalType": "uint256",
                  "name": "tOLPTokenId",
                  "type": "uint256"
                }
              ],
              "internalType": "struct ITapiocaOptionsBroker.IOptionsParticipateData",
              "name": "participateData",
              "type": "tuple"
            }
          ],
          "internalType": "struct IUSDOBase.ILendOrRepayParams",
          "name": "lendParams",
          "type": "tuple"
        },
        {
          "components": [
            {
              "internalType": "bool",
              "name": "permitAll",
              "type": "bool"
            },
            {
              "internalType": "bool",
              "name": "allowFailure",
              "type": "bool"
            },
            {
              "internalType": "bool",
              "name": "approveOnYieldBox",
              "type": "bool"
            },
            {
              "internalType": "uint16",
              "name": "actionType",
              "type": "uint16"
            },
            {
              "internalType": "address",
              "name": "target",
              "type": "address"
            },
            {
              "internalType": "bool",
              "name": "permitBorrow",
              "type": "bool"
            },
            {
              "internalType": "address",
              "name": "owner",
              "type": "address"
            },
            {
              "internalType": "address",
              "name": "spender",
              "type": "address"
            },
            {
              "internalType": "uint256",
              "name": "value",
              "type": "uint256"
            },
            {
              "internalType": "uint256",
              "name": "deadline",
              "type": "uint256"
            },
            {
              "internalType": "uint8",
              "name": "v",
              "type": "uint8"
            },
            {
              "internalType": "bytes32",
              "name": "r",
              "type": "bytes32"
            },
            {
              "internalType": "bytes32",
              "name": "s",
              "type": "bytes32"
            }
          ],
          "internalType": "struct ICommonData.IApproval[]",
          "name": "approvals",
          "type": "tuple[]"
        },
        {
          "components": [
            {
              "internalType": "bool",
              "name": "withdraw",
              "type": "bool"
            },
            {
              "internalType": "uint256",
              "name": "withdrawLzFeeAmount",
              "type": "uint256"
            },
            {
              "internalType": "bool",
              "name": "withdrawOnOtherChain",
              "type": "bool"
            },
            {
              "internalType": "uint16",
              "name": "withdrawLzChainId",
              "type": "uint16"
            },
            {
              "internalType": "bytes",
              "name": "withdrawAdapterParams",
              "type": "bytes"
            }
          ],
          "internalType": "struct ICommonData.IWithdrawParams",
          "name": "withdrawParams",
          "type": "tuple"
        }
      ],
      "name": "lendInternal",
      "outputs": [],
      "stateMutability": "payable",
      "type": "function"
    },
    {
      "inputs": [],
      "name": "lzEndpoint",
      "outputs": [
        {
          "internalType": "contract ILayerZeroEndpoint",
          "name": "",
          "type": "address"
        }
      ],
      "stateMutability": "view",
      "type": "function"
    },
    {
      "inputs": [
        {
          "internalType": "uint16",
          "name": "_srcChainId",
          "type": "uint16"
        },
        {
          "internalType": "bytes",
          "name": "_srcAddress",
          "type": "bytes"
        },
        {
          "internalType": "uint64",
          "name": "_nonce",
          "type": "uint64"
        },
        {
          "internalType": "bytes",
          "name": "_payload",
          "type": "bytes"
        }
      ],
      "name": "lzReceive",
      "outputs": [],
      "stateMutability": "nonpayable",
      "type": "function"
    },
    {
      "inputs": [],
      "name": "maxFlashMint",
      "outputs": [
        {
          "internalType": "uint256",
          "name": "",
          "type": "uint256"
        }
      ],
      "stateMutability": "view",
      "type": "function"
    },
    {
      "inputs": [
        {
          "internalType": "uint16",
          "name": "",
          "type": "uint16"
        },
        {
          "internalType": "uint16",
          "name": "",
          "type": "uint16"
        }
      ],
      "name": "minDstGasLookup",
      "outputs": [
        {
          "internalType": "uint256",
          "name": "",
          "type": "uint256"
        }
      ],
      "stateMutability": "view",
      "type": "function"
    },
    {
      "inputs": [],
      "name": "name",
      "outputs": [
        {
          "internalType": "string",
          "name": "",
          "type": "string"
        }
      ],
      "stateMutability": "view",
      "type": "function"
    },
    {
      "inputs": [
        {
          "internalType": "uint16",
          "name": "_srcChainId",
          "type": "uint16"
        },
        {
          "internalType": "bytes",
          "name": "_srcAddress",
          "type": "bytes"
        },
        {
          "internalType": "uint64",
          "name": "_nonce",
          "type": "uint64"
        },
        {
          "internalType": "bytes",
          "name": "_payload",
          "type": "bytes"
        }
      ],
      "name": "nonblockingLzReceive",
      "outputs": [],
      "stateMutability": "nonpayable",
      "type": "function"
    },
    {
      "inputs": [],
      "name": "owner",
      "outputs": [
        {
          "internalType": "address",
          "name": "",
          "type": "address"
        }
      ],
      "stateMutability": "view",
      "type": "function"
    },
    {
      "inputs": [],
      "name": "paused",
      "outputs": [
        {
          "internalType": "bool",
          "name": "",
          "type": "bool"
        }
      ],
      "stateMutability": "view",
      "type": "function"
    },
    {
      "inputs": [
        {
          "internalType": "uint16",
          "name": "",
          "type": "uint16"
        }
      ],
      "name": "payloadSizeLimitLookup",
      "outputs": [
        {
          "internalType": "uint256",
          "name": "",
          "type": "uint256"
        }
      ],
      "stateMutability": "view",
      "type": "function"
    },
    {
      "inputs": [],
      "name": "precrime",
      "outputs": [
        {
          "internalType": "address",
          "name": "",
          "type": "address"
        }
      ],
      "stateMutability": "view",
      "type": "function"
    },
    {
      "inputs": [
        {
          "internalType": "bytes",
          "name": "_payload",
          "type": "bytes"
        }
      ],
      "name": "remove",
      "outputs": [],
      "stateMutability": "nonpayable",
      "type": "function"
    },
    {
      "inputs": [
        {
          "internalType": "address",
          "name": "from",
          "type": "address"
        },
        {
          "internalType": "address",
          "name": "to",
          "type": "address"
        },
        {
          "internalType": "uint16",
          "name": "lzDstChainId",
          "type": "uint16"
        },
        {
          "internalType": "address",
          "name": "zroPaymentAddress",
          "type": "address"
        },
        {
          "internalType": "bytes",
          "name": "adapterParams",
          "type": "bytes"
        },
        {
          "components": [
            {
              "internalType": "address",
              "name": "magnetar",
              "type": "address"
            },
            {
              "internalType": "address",
              "name": "singularity",
              "type": "address"
            },
            {
              "internalType": "address",
              "name": "bigBang",
              "type": "address"
            }
          ],
          "internalType": "struct ICommonData.ICommonExternalContracts",
          "name": "externalData",
          "type": "tuple"
        },
        {
          "components": [
            {
              "internalType": "bool",
              "name": "removeAssetFromSGL",
              "type": "bool"
            },
            {
              "internalType": "uint256",
              "name": "removeAmount",
              "type": "uint256"
            },
            {
              "internalType": "bool",
              "name": "repayAssetOnBB",
              "type": "bool"
            },
            {
              "internalType": "uint256",
              "name": "repayAmount",
              "type": "uint256"
            },
            {
              "internalType": "bool",
              "name": "removeCollateralFromBB",
              "type": "bool"
            },
            {
              "internalType": "uint256",
              "name": "collateralAmount",
              "type": "uint256"
            },
            {
              "components": [
                {
                  "internalType": "bool",
                  "name": "exit",
                  "type": "bool"
                },
                {
                  "internalType": "address",
                  "name": "target",
                  "type": "address"
                },
                {
                  "internalType": "uint256",
                  "name": "oTAPTokenID",
                  "type": "uint256"
                }
              ],
              "internalType": "struct ITapiocaOptionsBroker.IOptionsExitData",
              "name": "exitData",
              "type": "tuple"
            },
            {
              "components": [
                {
                  "internalType": "bool",
                  "name": "unlock",
                  "type": "bool"
                },
                {
                  "internalType": "address",
                  "name": "target",
                  "type": "address"
                },
                {
                  "internalType": "uint256",
                  "name": "tokenId",
                  "type": "uint256"
                }
              ],
              "internalType": "struct ITapiocaOptionLiquidityProvision.IOptionsUnlockData",
              "name": "unlockData",
              "type": "tuple"
            },
            {
              "components": [
                {
                  "internalType": "bool",
                  "name": "withdraw",
                  "type": "bool"
                },
                {
                  "internalType": "uint256",
                  "name": "withdrawLzFeeAmount",
                  "type": "uint256"
                },
                {
                  "internalType": "bool",
                  "name": "withdrawOnOtherChain",
                  "type": "bool"
                },
                {
                  "internalType": "uint16",
                  "name": "withdrawLzChainId",
                  "type": "uint16"
                },
                {
                  "internalType": "bytes",
                  "name": "withdrawAdapterParams",
                  "type": "bytes"
                }
              ],
              "internalType": "struct ICommonData.IWithdrawParams",
              "name": "assetWithdrawData",
              "type": "tuple"
            },
            {
              "components": [
                {
                  "internalType": "bool",
                  "name": "withdraw",
                  "type": "bool"
                },
                {
                  "internalType": "uint256",
                  "name": "withdrawLzFeeAmount",
                  "type": "uint256"
                },
                {
                  "internalType": "bool",
                  "name": "withdrawOnOtherChain",
                  "type": "bool"
                },
                {
                  "internalType": "uint16",
                  "name": "withdrawLzChainId",
                  "type": "uint16"
                },
                {
                  "internalType": "bytes",
                  "name": "withdrawAdapterParams",
                  "type": "bytes"
                }
              ],
              "internalType": "struct ICommonData.IWithdrawParams",
              "name": "collateralWithdrawData",
              "type": "tuple"
            }
          ],
          "internalType": "struct IUSDOBase.IRemoveAndRepay",
          "name": "removeAndRepayData",
          "type": "tuple"
        },
        {
          "components": [
            {
              "internalType": "bool",
              "name": "permitAll",
              "type": "bool"
            },
            {
              "internalType": "bool",
              "name": "allowFailure",
              "type": "bool"
            },
            {
              "internalType": "bool",
              "name": "approveOnYieldBox",
              "type": "bool"
            },
            {
              "internalType": "uint16",
              "name": "actionType",
              "type": "uint16"
            },
            {
              "internalType": "address",
              "name": "target",
              "type": "address"
            },
            {
              "internalType": "bool",
              "name": "permitBorrow",
              "type": "bool"
            },
            {
              "internalType": "address",
              "name": "owner",
              "type": "address"
            },
            {
              "internalType": "address",
              "name": "spender",
              "type": "address"
            },
            {
              "internalType": "uint256",
              "name": "value",
              "type": "uint256"
            },
            {
              "internalType": "uint256",
              "name": "deadline",
              "type": "uint256"
            },
            {
              "internalType": "uint8",
              "name": "v",
              "type": "uint8"
            },
            {
              "internalType": "bytes32",
              "name": "r",
              "type": "bytes32"
            },
            {
              "internalType": "bytes32",
              "name": "s",
              "type": "bytes32"
            }
          ],
          "internalType": "struct ICommonData.IApproval[]",
          "name": "approvals",
          "type": "tuple[]"
        }
      ],
      "name": "removeAsset",
      "outputs": [],
      "stateMutability": "payable",
      "type": "function"
    },
    {
      "inputs": [],
      "name": "renounceOwnership",
      "outputs": [],
      "stateMutability": "nonpayable",
      "type": "function"
    },
    {
      "inputs": [
        {
          "internalType": "uint16",
          "name": "_srcChainId",
          "type": "uint16"
        },
        {
          "internalType": "bytes",
          "name": "_srcAddress",
          "type": "bytes"
        },
        {
          "internalType": "uint64",
          "name": "_nonce",
          "type": "uint64"
        },
        {
          "internalType": "bytes",
          "name": "_payload",
          "type": "bytes"
        }
      ],
      "name": "retryMessage",
      "outputs": [],
      "stateMutability": "payable",
      "type": "function"
    },
    {
      "inputs": [
        {
          "internalType": "address",
          "name": "_from",
          "type": "address"
        },
        {
          "internalType": "uint16",
          "name": "_dstChainId",
          "type": "uint16"
        },
        {
          "internalType": "bytes32",
          "name": "_toAddress",
          "type": "bytes32"
        },
        {
          "internalType": "uint256",
          "name": "_amount",
          "type": "uint256"
        },
        {
          "internalType": "bytes",
          "name": "_payload",
          "type": "bytes"
        },
        {
          "internalType": "uint64",
          "name": "_dstGasForCall",
          "type": "uint64"
        },
        {
          "components": [
            {
              "internalType": "address payable",
              "name": "refundAddress",
              "type": "address"
            },
            {
              "internalType": "address",
              "name": "zroPaymentAddress",
              "type": "address"
            },
            {
              "internalType": "bytes",
              "name": "adapterParams",
              "type": "bytes"
            }
          ],
          "internalType": "struct ICommonOFT.LzCallParams",
          "name": "_callParams",
          "type": "tuple"
        }
      ],
      "name": "sendAndCall",
      "outputs": [],
      "stateMutability": "payable",
      "type": "function"
    },
    {
      "inputs": [
        {
          "internalType": "address",
          "name": "_from",
          "type": "address"
        },
        {
          "internalType": "address",
          "name": "_to",
          "type": "address"
        },
        {
          "internalType": "uint16",
          "name": "lzDstChainId",
          "type": "uint16"
        },
        {
          "internalType": "address",
          "name": "zroPaymentAddress",
          "type": "address"
        },
        {
          "components": [
            {
              "internalType": "bool",
              "name": "repay",
              "type": "bool"
            },
            {
              "internalType": "uint256",
              "name": "depositAmount",
              "type": "uint256"
            },
            {
              "internalType": "uint256",
              "name": "repayAmount",
              "type": "uint256"
            },
            {
              "internalType": "address",
              "name": "marketHelper",
              "type": "address"
            },
            {
              "internalType": "address",
              "name": "market",
              "type": "address"
            },
            {
              "internalType": "bool",
              "name": "removeCollateral",
              "type": "bool"
            },
            {
              "internalType": "uint256",
              "name": "removeCollateralAmount",
              "type": "uint256"
            },
            {
              "components": [
                {
                  "internalType": "bool",
                  "name": "lock",
                  "type": "bool"
                },
                {
                  "internalType": "address",
                  "name": "target",
                  "type": "address"
                },
                {
                  "internalType": "uint128",
                  "name": "lockDuration",
                  "type": "uint128"
                },
                {
                  "internalType": "uint128",
                  "name": "amount",
                  "type": "uint128"
                },
                {
                  "internalType": "uint256",
                  "name": "fraction",
                  "type": "uint256"
                }
              ],
              "internalType": "struct ITapiocaOptionLiquidityProvision.IOptionsLockData",
              "name": "lockData",
              "type": "tuple"
            },
            {
              "components": [
                {
                  "internalType": "bool",
                  "name": "participate",
                  "type": "bool"
                },
                {
                  "internalType": "address",
                  "name": "target",
                  "type": "address"
                },
                {
                  "internalType": "uint256",
                  "name": "tOLPTokenId",
                  "type": "uint256"
                }
              ],
              "internalType": "struct ITapiocaOptionsBroker.IOptionsParticipateData",
              "name": "participateData",
              "type": "tuple"
            }
          ],
          "internalType": "struct IUSDOBase.ILendOrRepayParams",
          "name": "lendParams",
          "type": "tuple"
        },
        {
          "components": [
            {
              "internalType": "bool",
              "name": "permitAll",
              "type": "bool"
            },
            {
              "internalType": "bool",
              "name": "allowFailure",
              "type": "bool"
            },
            {
              "internalType": "bool",
              "name": "approveOnYieldBox",
              "type": "bool"
            },
            {
              "internalType": "uint16",
              "name": "actionType",
              "type": "uint16"
            },
            {
              "internalType": "address",
              "name": "target",
              "type": "address"
            },
            {
              "internalType": "bool",
              "name": "permitBorrow",
              "type": "bool"
            },
            {
              "internalType": "address",
              "name": "owner",
              "type": "address"
            },
            {
              "internalType": "address",
              "name": "spender",
              "type": "address"
            },
            {
              "internalType": "uint256",
              "name": "value",
              "type": "uint256"
            },
            {
              "internalType": "uint256",
              "name": "deadline",
              "type": "uint256"
            },
            {
              "internalType": "uint8",
              "name": "v",
              "type": "uint8"
            },
            {
              "internalType": "bytes32",
              "name": "r",
              "type": "bytes32"
            },
            {
              "internalType": "bytes32",
              "name": "s",
              "type": "bytes32"
            }
          ],
          "internalType": "struct ICommonData.IApproval[]",
          "name": "approvals",
          "type": "tuple[]"
        },
        {
          "components": [
            {
              "internalType": "bool",
              "name": "withdraw",
              "type": "bool"
            },
            {
              "internalType": "uint256",
              "name": "withdrawLzFeeAmount",
              "type": "uint256"
            },
            {
              "internalType": "bool",
              "name": "withdrawOnOtherChain",
              "type": "bool"
            },
            {
              "internalType": "uint16",
              "name": "withdrawLzChainId",
              "type": "uint16"
            },
            {
              "internalType": "bytes",
              "name": "withdrawAdapterParams",
              "type": "bytes"
            }
          ],
          "internalType": "struct ICommonData.IWithdrawParams",
          "name": "withdrawParams",
          "type": "tuple"
        },
        {
          "internalType": "bytes",
          "name": "adapterParams",
          "type": "bytes"
        }
      ],
      "name": "sendAndLendOrRepay",
      "outputs": [],
      "stateMutability": "payable",
      "type": "function"
    },
    {
      "inputs": [
        {
          "internalType": "address",
          "name": "_from",
          "type": "address"
        },
        {
          "internalType": "uint16",
          "name": "_dstChainId",
          "type": "uint16"
        },
        {
          "internalType": "bytes32",
          "name": "_toAddress",
          "type": "bytes32"
        },
        {
          "internalType": "uint256",
          "name": "_amount",
          "type": "uint256"
        },
        {
          "components": [
            {
              "internalType": "address payable",
              "name": "refundAddress",
              "type": "address"
            },
            {
              "internalType": "address",
              "name": "zroPaymentAddress",
              "type": "address"
            },
            {
              "internalType": "bytes",
              "name": "adapterParams",
              "type": "bytes"
            }
          ],
          "internalType": "struct ICommonOFT.LzCallParams",
          "name": "_callParams",
          "type": "tuple"
        }
      ],
      "name": "sendFrom",
      "outputs": [],
      "stateMutability": "payable",
      "type": "function"
    },
    {
      "inputs": [
        {
          "internalType": "uint16",
          "name": "_version",
          "type": "uint16"
        },
        {
          "internalType": "uint16",
          "name": "_chainId",
          "type": "uint16"
        },
        {
          "internalType": "uint256",
          "name": "_configType",
          "type": "uint256"
        },
        {
          "internalType": "bytes",
          "name": "_config",
          "type": "bytes"
        }
      ],
      "name": "setConfig",
      "outputs": [],
      "stateMutability": "nonpayable",
      "type": "function"
    },
    {
      "inputs": [
        {
          "internalType": "uint16",
          "name": "_dstChainId",
          "type": "uint16"
        },
        {
          "internalType": "uint16",
          "name": "_packetType",
          "type": "uint16"
        },
        {
          "internalType": "uint256",
          "name": "_minGas",
          "type": "uint256"
        }
      ],
      "name": "setMinDstGas",
      "outputs": [],
      "stateMutability": "nonpayable",
      "type": "function"
    },
    {
      "inputs": [
        {
          "internalType": "uint16",
          "name": "_dstChainId",
          "type": "uint16"
        },
        {
          "internalType": "uint256",
          "name": "_size",
          "type": "uint256"
        }
      ],
      "name": "setPayloadSizeLimit",
      "outputs": [],
      "stateMutability": "nonpayable",
      "type": "function"
    },
    {
      "inputs": [
        {
          "internalType": "address",
          "name": "_precrime",
          "type": "address"
        }
      ],
      "name": "setPrecrime",
      "outputs": [],
      "stateMutability": "nonpayable",
      "type": "function"
    },
    {
      "inputs": [
        {
          "internalType": "uint16",
          "name": "_version",
          "type": "uint16"
        }
      ],
      "name": "setReceiveVersion",
      "outputs": [],
      "stateMutability": "nonpayable",
      "type": "function"
    },
    {
      "inputs": [
        {
          "internalType": "uint16",
          "name": "_version",
          "type": "uint16"
        }
      ],
      "name": "setSendVersion",
      "outputs": [],
      "stateMutability": "nonpayable",
      "type": "function"
    },
    {
      "inputs": [
        {
          "internalType": "uint16",
          "name": "_srcChainId",
          "type": "uint16"
        },
        {
          "internalType": "bytes",
          "name": "_path",
          "type": "bytes"
        }
      ],
      "name": "setTrustedRemote",
      "outputs": [],
      "stateMutability": "nonpayable",
      "type": "function"
    },
    {
      "inputs": [
        {
          "internalType": "uint16",
          "name": "_remoteChainId",
          "type": "uint16"
        },
        {
          "internalType": "bytes",
          "name": "_remoteAddress",
          "type": "bytes"
        }
      ],
      "name": "setTrustedRemoteAddress",
      "outputs": [],
      "stateMutability": "nonpayable",
      "type": "function"
    },
    {
      "inputs": [
        {
          "internalType": "bool",
          "name": "_useCustomAdapterParams",
          "type": "bool"
        }
      ],
      "name": "setUseCustomAdapterParams",
      "outputs": [],
      "stateMutability": "nonpayable",
      "type": "function"
    },
    {
      "inputs": [],
      "name": "sharedDecimals",
      "outputs": [
        {
          "internalType": "uint8",
          "name": "",
          "type": "uint8"
        }
      ],
      "stateMutability": "view",
      "type": "function"
    },
    {
      "inputs": [
        {
          "internalType": "bytes4",
          "name": "interfaceId",
          "type": "bytes4"
        }
      ],
      "name": "supportsInterface",
      "outputs": [
        {
          "internalType": "bool",
          "name": "",
          "type": "bool"
        }
      ],
      "stateMutability": "view",
      "type": "function"
    },
    {
      "inputs": [],
      "name": "symbol",
      "outputs": [
        {
          "internalType": "string",
          "name": "",
          "type": "string"
        }
      ],
      "stateMutability": "view",
      "type": "function"
    },
    {
      "inputs": [],
      "name": "token",
      "outputs": [
        {
          "internalType": "address",
          "name": "",
          "type": "address"
        }
      ],
      "stateMutability": "view",
      "type": "function"
    },
    {
      "inputs": [],
      "name": "totalSupply",
      "outputs": [
        {
          "internalType": "uint256",
          "name": "",
          "type": "uint256"
        }
      ],
      "stateMutability": "view",
      "type": "function"
    },
    {
      "inputs": [
        {
          "internalType": "address",
          "name": "to",
          "type": "address"
        },
        {
          "internalType": "uint256",
          "name": "amount",
          "type": "uint256"
        }
      ],
      "name": "transfer",
      "outputs": [
        {
          "internalType": "bool",
          "name": "",
          "type": "bool"
        }
      ],
      "stateMutability": "nonpayable",
      "type": "function"
    },
    {
      "inputs": [
        {
          "internalType": "address",
          "name": "from",
          "type": "address"
        },
        {
          "internalType": "address",
          "name": "to",
          "type": "address"
        },
        {
          "internalType": "uint256",
          "name": "amount",
          "type": "uint256"
        }
      ],
      "name": "transferFrom",
      "outputs": [
        {
          "internalType": "bool",
          "name": "",
          "type": "bool"
        }
      ],
      "stateMutability": "nonpayable",
      "type": "function"
    },
    {
      "inputs": [
        {
          "internalType": "address",
          "name": "newOwner",
          "type": "address"
        }
      ],
      "name": "transferOwnership",
      "outputs": [],
      "stateMutability": "nonpayable",
      "type": "function"
    },
    {
      "inputs": [
        {
          "internalType": "uint16",
          "name": "",
          "type": "uint16"
        }
      ],
      "name": "trustedRemoteLookup",
      "outputs": [
        {
          "internalType": "bytes",
          "name": "",
          "type": "bytes"
        }
      ],
      "stateMutability": "view",
      "type": "function"
    },
    {
      "inputs": [],
      "name": "useCustomAdapterParams",
      "outputs": [
        {
          "internalType": "bool",
          "name": "",
          "type": "bool"
        }
      ],
      "stateMutability": "view",
      "type": "function"
    },
    {
      "inputs": [],
      "name": "yieldBox",
      "outputs": [
        {
          "internalType": "contract IYieldBoxBase",
          "name": "",
          "type": "address"
        }
      ],
      "stateMutability": "view",
      "type": "function"
    },
    {
      "stateMutability": "payable",
      "type": "receive"
    }
  ],
  "bytecode": "0x61010060409080825234620004ee57606081620065288038038091620000268285620004f3565b833981010312620004ee5780516001600160a01b039182821691829003620004ee57602080820151918483168303620004ee5785015193808516809503620004ee57620000726200052d565b906200007d6200052d565b60008054336001600160a01b03198083168217845598929493929184167f8be0079c531659141344cd1fd0a4f28419497f9722a3daafe3b4186f6b6457e08680a3608052600860a05283516001600160401b0391828211620003f557600b54916001968784811c94168015620004e3575b89851014620004cf578190601f948581116200047b575b5089908583116001146200041557889262000409575b5050600019600383901b1c191690871b17600b555b8051928311620003f557600c548681811c91168015620003ea575b88821014620003d65790818389959493116200037e575b50839183116001146200031357600494929186918362000307575b5050600019600383901b1c191690861b17600c555b6402540be40060c052608051168951928380926303408e4760e41b82525afa908115620002fd57908291899391620002b2575b5061ffff1693848252600f815282822033835281528282209460ff1995858782541617905582526010815282822090338352522091825416179055600a60125569152d02c7e14af680000060135560e052600d541617600d5551615fc990816200055f82396080518181816104ed015281816107b001528181610ce001528181610e750152818161103e01528181612102015281816124cc01528181612ca50152818161377001528181614c1101526151db015260a05181611822015260c051818181610b44015281816154080152818161566a0152818161582201526158ba015260e0518161272b0152f35b80929350858092503d8311620002f5575b620002cf8183620004f3565b81010312620002f1575161ffff81168103620002f15787919061ffff620001c5565b5080fd5b503d620002c3565b88513d84823e3d90fd5b0151905038806200017d565b93918691601f19821690600c885285882091885b8181106200036557509683600498106200034b575b505050811b01600c5562000192565b015160001960f88460031b161c191690553880806200033c565b8289015184558b978b9690940193928301920162000327565b9091929350600c86528786208380860160051c8201928a8710620003cc575b9189918b97969594930160051c01915b828110620003bd57505062000162565b8881558a9650899101620003ad565b925081926200039d565b634e487b7160e01b86526022600452602486fd5b90607f16906200014b565b634e487b7160e01b85526041600452602485fd5b0151905038806200011b565b600b89528a89208a94509190601f1984168a5b8d8282106200046457505084116200044a575b505050811b01600b5562000130565b015160001960f88460031b161c191690553880806200043b565b8385015186558d9790950194938401930162000428565b909150600b88528988208580850160051c8201928c8610620004c5575b918b91869594930160051c01915b828110620004b657505062000105565b8a81558594508b9101620004a6565b9250819262000498565b634e487b7160e01b87526022600452602487fd5b93607f1693620000ee565b600080fd5b601f909101601f19168101906001600160401b038211908210176200051757604052565b634e487b7160e01b600052604160045260246000fd5b60408051919082016001600160401b03811183821017620005175760405260048252635553444f60e01b602083015256fe6080604052600436101561001b575b361561001957600080fd5b005b60003560e01c80621d35671461041057806301ffc9a71461040b57806306fdde031461040657806307e0db1714610401578063095ea7b3146103fc5780630df37483146103f7578063100b6523146103f257806310ddb137146103ed57806318160ddd1461038457806323b872dd146103e8578063313ce567146103e3578063365260b4146103de57806339509351146103d95780633d8b38f6146103d45780633f1f4fa4146103cf57806342d65a8d146103ca57806344770515146103c55780634c42899a146103c557806358edef4c146103c05780635b8c41e6146103bb5780635c975abb146103b657806366ad5c8a146103b1578063695ef6bf146103ac57806370a08231146103a7578063715018a6146103a25780637533d7881461039d57806376203b4814610398578063857749b0146103935780638cfd8f5c1461038e5780638da5cb5b146103895780639358928b14610384578063940a1dc01461037f578063950c8a741461037a57806395d89b41146103755780639bdb9812146103705780639d3f4d1a1461036b5780639f38369a14610366578063a457c2d714610361578063a4c51df51461035c578063a6c3d16514610357578063a9059cbb14610352578063b02f69a21461034d578063b353aaa714610348578063ba03a8d714610343578063baf3292d1461033e578063bd147cd614610339578063c446183414610334578063cbed8b9c1461032f578063ce8849ed1461032a578063d1deba1f14610325578063dbd01de114610320578063dd62ed3e1461031b578063de40657714610316578063df2a5b3b14610311578063e6a20ae61461030c578063e78eb94614610307578063eab45d9c14610302578063eaffd49a146102fd578063eb8d72b7146102f8578063ec6d062b146102f3578063ed629c5c146102ee578063f2fde38b146102e9578063f5ecbdbc146102e45763fc0c546a0361000e57612d0f565b612c3b565b612b86565b612b63565b612b2b565b612a02565b612979565b612917565b612872565b612847565b61275a565b612715565b6126cb565b6126a2565b61256a565b612541565b612478565b61245b565b6122cf565b6121b4565b61217c565b6120ec565b612045565b611d6a565b611c08565b611b71565b611ac5565b611a22565b611a04565b6119b9565b611915565b6118ec565b6118ce565b610d41565b6118a5565b611846565b611808565b611671565b61161a565b6114e6565b6114a9565b6113c6565b611321565b6112fe565b6112aa565b6110c1565b6110a5565b611024565b610feb565b610f7b565b610ef3565b610deb565b610d9f565b610d5f565b610cb7565b610a80565b6108c5565b610890565b610787565b6106a7565b6105ea565b6104d6565b61ffff81160361042157565b600080fd5b359061043182610415565b565b9181601f84011215610421578235916001600160401b038311610421576020838186019501011161042157565b6001600160401b0381160361042157565b9060806003198301126104215760043561048a81610415565b916001600160401b039060243582811161042157816104ab91600401610433565b939093926044356104bb81610460565b92606435918211610421576104d291600401610433565b9091565b34610421576104e436610471565b929493919291907f00000000000000000000000000000000000000000000000000000000000000006001600160a01b031633036105a55761056a61057292610019976105636105496105448a61ffff166000526001602052604060002090565b6115ff565b805190818414918261059b575b5081610578575b50614b1a565b3691610a2e565b923691610a2e565b92614f6e565b9050610585368486610a2e565b602081519101209060208151910120143861055d565b1515915038610556565b60405162461bcd60e51b815260206004820152601e60248201527f4c7a4170703a20696e76616c696420656e64706f696e742063616c6c657200006044820152606490fd5b346104215760203660031901126104215760043563ffffffff60e01b811680910361042157602090631f7ecdf760e01b811490811561062f575b506040519015158152f35b6301ffc9a760e01b14905038610624565b600091031261042157565b60005b83811061065e5750506000910152565b818101518382015260200161064e565b906020916106878151809281855285808601910161064b565b601f01601f1916010190565b9060206106a492818152019061066e565b90565b34610421576000806003193601126107845760405181600b546106c98161152f565b8084529060019081811690811561075c5750600114610703575b6106ff846106f381880382610983565b60405191829182610693565b0390f35b600b8352602094507f0175b7a638427703f0dbe7bb9bbf987a2551717b34e79f33b5b1008d1fa01db95b82841061074957505050816106ff936106f392820101936106e3565b805485850187015292850192810161072d565b6106ff96506106f39450602092508593915060ff191682840152151560051b820101936106e3565b80fd5b346104215760006020366003190112610784576004356107a681610415565b6107ae612d2a565b7f00000000000000000000000000000000000000000000000000000000000000006001600160a01b0316908290823b1561082257602461ffff918360405195869485936307e0db1760e01b85521660048401525af1801561081d57610811575080f35b61081a9061091a565b80f35b6135cc565b5080fd5b6001600160a01b031690565b6001600160a01b0381160361042157565b6064359061043182610832565b60e4359061043182610832565b610104359061043182610832565b6084359061043182610832565b60a4359061043182610832565b359061043182610832565b34610421576040366003190112610421576108ba6004356108b081610832565b6024359033612f53565b602060405160018152f35b346104215760403660031901126104215761ffff6004356108e581610415565b6108ed612d2a565b166000526003602052602435604060002055600080f35b634e487b7160e01b600052604160045260246000fd5b6001600160401b03811161092d57604052565b610904565b606081019081106001600160401b0382111761092d57604052565b60a081019081106001600160401b0382111761092d57604052565b604081019081106001600160401b0382111761092d57604052565b601f909101601f19168101906001600160401b0382119082101761092d57604052565b6040519061012082016001600160401b0381118382101761092d57604052565b604051906101a082016001600160401b0381118382101761092d57604052565b6040519061014082016001600160401b0381118382101761092d57604052565b6040519061043182610932565b6001600160401b03811161092d57601f01601f191660200190565b929192610a3a82610a13565b91610a486040519384610983565b829481845281830111610421578281602093846000960137010152565b9080601f83011215610421578160206106a493359101610a2e565b346104215760a036600319011261042157600435610a9d81610832565b602435610aa981610415565b6001600160401b039160443583811161042157610aca903690600401610a65565b9060643590610ad882610460565b60843591858311610421578492610af3903690600401610a65565b6001600160a01b03831660009081526014602052604090205460ff16610b18906142bb565b805181016020016020820190610b2d916143fb565b97965097945099925090600160a01b60019003169a7f0000000000000000000000000000000000000000000000000000000000000000911690610b6f916158a5565b8260208a0197889283528c30610b8490612131565b549883610b908d610fd7565b610b9a908861126d565b90610ba491611293565b5460ff1615600080516020615f148339815191529d61ffff9d6000978897610c0894610c7a575b505050610bfa610bda30612131565b549b6040519485936020850197635e8a3e6b60e11b89526024860161449c565b03601f198101835282610983565b51915af493610c15613dd1565b9415610c3f575b5050505050505192610c3a6040519283921694829190602083019252565b0390a3005b610c5e95610c4c916145d8565b865180911015610c69575b5088615002565b388080808080610c1c565b610c74908b30614600565b38610c57565b610c9d610c97610caf94610c92610ca2955130615bc3565b610fd7565b8c61126d565b611293565b805460ff19166001179055565b8f8d8a610bcb565b34610421576000602036600319011261078457600435610cd681610415565b610cde612d2a565b7f00000000000000000000000000000000000000000000000000000000000000006001600160a01b0316908290823b1561082257602461ffff918360405195869485936310ddb13760e01b85521660048401525af1801561081d57610811575080f35b34610421576000366003190112610421576020600a54604051908152f35b34610421576060366003190112610421576108ba600435610d7f81610832565b602435610d8b81610832565b60443591610d9a833383613059565b612e84565b3461042157600036600319011261042157602060405160128152f35b8015150361042157565b610124359061043182610dbb565b60c4359061043182610dbb565b359061043182610dbb565b346104215760a036600319011261042157600435610e0881610415565b60643590610e1582610dbb565b608435906001600160401b03821161042157610e3a6105636040933690600401610433565b90610e71610e54610e4c604435615820565b6024356158ef565b928451958694859463040a7bb160e41b8652309060048701615365565b03817f00000000000000000000000000000000000000000000000000000000000000006001600160a01b03165afa90811561081d576000908192610ec2575b50604080519182526020820192909252f35b9050610ee5915060403d8111610eec575b610edd8183610983565b81019061534f565b9038610eb0565b503d610ed3565b3461042157604036600319011261042157600435610f1081610832565b336000526009602052610f27816040600020612165565b546024358101809111610f3e576108ba9133612f53565b612d92565b90604060031983011261042157600435610f5c81610415565b91602435906001600160401b038211610421576104d291600401610433565b3461042157602061ffff610fc8610f9136610f43565b9390911660005260018452610fb3610fba604060002060405192838092611569565b0382610983565b848151910120923691610a2e565b82815191012014604051908152f35b61ffff166000526007602052604060002090565b346104215760203660031901126104215761ffff60043561100b81610415565b1660005260036020526020604060002054604051908152f35b346104215761103236610f43565b919061103c612d2a565b7f00000000000000000000000000000000000000000000000000000000000000006001600160a01b031691823b1561042157604051928380926342d65a8d60e01b8252816110936000988997889460048501614eff565b03925af1801561081d57610811575080f35b3461042157600036600319011261042157602060405160008152f35b3461042157602080600319360112610421576001600160401b03600435818111610421576110f3903690600401610a65565b80518101818103929190840160e084126104215761111385830151610415565b606060408301519461112486610832565b603f190112610421576040519461113a86610932565b606083015161114881610832565b8652608083015161115881610832565b8187015260a083015161116a81610832565b604087015260c083015184811161042157828261118992860101613998565b9360e0840151908111610421576111a1930101613a70565b8051611219575b506111be6111b96111b98551610826565b610826565b803b1561042157604051639391dd6d60e01b81529360009385938492869284926111f69290916001600160a01b031660048501613c0d565b03925af1801561081d5761120657005b806112136100199261091a565b80610640565b61122290613e01565b386111a8565b9060606003198301126104215760043561124181610415565b91602435906001600160401b0382116104215761126091600401610a65565b906044356106a481610460565b60209061128792826040519483868095519384920161064b565b82019081520301902090565b9060018060401b0316600052602052604060002090565b346104215760206112f561ffff6112e7836112c436611228565b94909116600052600582526040600020826040519483868095519384920161064b565b820190815203019020611293565b54604051908152f35b3461042157600036600319011261042157602060ff601154166040519015158152f35b346104215761132f36610471565b91929493903033036113535761056a61134d92610019973691610a2e565b926153a9565b60405162461bcd60e51b815260206004820152602660248201527f4e6f6e626c6f636b696e674c7a4170703a2063616c6c6572206d7573742062656044820152650204c7a4170760d41b6064820152608490fd5b60609060a31901126104215760a490565b908160609103126104215790565b60a0366003190112610421576004356113de81610832565b6024356113ea81610415565b604435916084356001600160401b03811161042157602061ffff611421600080516020615ed48339815191529336906004016113b8565b93611494853561143081610832565b61144e61056386890135986114448a610832565b6040810190615159565b611458818a6157bb565b61146d6114666064356158b8565b5085615aad565b9761147989151561555e565b61148b6114858a615820565b8c6158ef565b9234938b614bcd565b6040519485526001600160a01b0316941692a4005b34610421576020366003190112610421576004356114c681610832565b60018060a01b031660005260086020526020604060002054604051908152f35b346104215760008060031936011261078457611500612d2a565b80546001600160a01b03198116825581906001600160a01b0316600080516020615f348339815191528280a380f35b90600182811c9216801561155f575b602083101461154957565b634e487b7160e01b600052602260045260246000fd5b91607f169161153e565b906000929180549161157a8361152f565b9182825260019384811690816000146115dc575060011461159c575b50505050565b90919394506000526020928360002092846000945b8386106115c8575050505001019038808080611596565b8054858701830152940193859082016115b1565b9294505050602093945060ff191683830152151560051b01019038808080611596565b906104316116139260405193848092611569565b0383610983565b346104215760203660031901126104215761ffff60043561163a81610415565b1660005260016020526106ff610fb361165d604060002060405192838092611569565b60405191829160208352602083019061066e565b60e03660031901126104215760043561168981610832565b60243561169581610415565b604435916001600160401b0390608435828111610421576116ba903690600401610433565b91909260a4356116c981610460565b60c435828111610421576116e19036906004016113b8565b90866117198335966116f288610832565b61171161170760208701359661144488610832565b9a90923691610a2e565b983691610a2e565b9360ff6006541660001461178657936020959361148b84611754600080516020615ed48339815191529a958561ffff9a611494991691614e1c565b6117696117626064356158b8565b5088615aad565b9a6117758c151561555e565b8d61177f8d615820565b903361596a565b505082939192516117b457600080516020615ed48339815191529460209461ffff9461148b61149494611754565b60405162461bcd60e51b815260206004820152602660248201527f4f4654436f72653a205f61646170746572506172616d73206d7573742062652060448201526532b6b83a3c9760d11b6064820152608490fd5b3461042157600036600319011261042157602060405160ff7f0000000000000000000000000000000000000000000000000000000000000000168152f35b346104215760403660031901126104215760206112f560043561186881610415565b61ffff6024359161187883610415565b166000526002835260406000209061ffff16600052602052604060002090565b6001600160a01b03169052565b34610421576000366003190112610421576000546040516001600160a01b039091168152602090f35b34610421576000366003190112610421576020601254604051908152f35b34610421576000366003190112610421576004546040516001600160a01b039091168152602090f35b34610421576000806003193601126107845760405181600c546119378161152f565b8084529060019081811690811561075c5750600114611960576106ff846106f381880382610983565b600c8352602094507fdf6966c971051c3d54ec59162606531493a51404a002842f56009d7e5cf4a8c75b8284106119a657505050816106ff936106f392820101936106e3565b805485850187015292850192810161198a565b3461042157602060ff6119f861ffff6112e7846119d536611228565b94909116600052600782526040600020826040519483868095519384920161064b565b54166040519015158152f35b34610421576000366003190112610421576020601354604051908152f35b346104215760203660031901126104215761ffff600435611a4281610415565b166000526001602052610fb3611a62604060002060405192838092611569565b805115611a80576106f381611a7a6106ff93516145ba565b90615cc7565b60405162461bcd60e51b815260206004820152601d60248201527f4c7a4170703a206e6f20747275737465642070617468207265636f72640000006044820152606490fd5b3461042157604036600319011261042157600435611ae281610832565b60243590336000526009602052611afd816040600020612165565b5491808310611b1e57611b1292039033612f53565b60405160018152602090f35b60405162461bcd60e51b815260206004820152602560248201527f45524332303a2064656372656173656420616c6c6f77616e63652062656c6f77604482015264207a65726f60d81b6064820152608490fd5b346104215760e036600319011261042157600435611b8e81610415565b6001600160401b039060643582811161042157611baf903690600401610433565b608492919235611bbe81610460565b60a43591611bcb83610dbb565b60c43595861161042157611be6611bf6963690600401610433565b959094604435906024359061518b565b60408051928352602083019190915290f35b3461042157611c1636610f43565b90611c1f612d2a565b60405192602092808385870137611c4b6034868381013060601b88820152036014810188520186610983565b61ffff8216600090815260018086526040822087519296909291906001600160401b03831161092d57611c8883611c82865461152f565b86614f1a565b80601f8411600114611ce6575091808092611cd59695948a9b600080516020615ef48339815191529b94611cdb575b50501b916000199060031b1c19161790555b60405193849384614eff565b0390a180f35b015192503880611cb7565b91939498601f198416611cfe87600052602060002090565b938a905b828210611d5357505091600080516020615ef4833981519152999a95939185611cd598969410611d3a575b505050811b019055611cc9565b015160001960f88460031b161c19169055388080611d2d565b808886978294978701518155019601940190611d02565b34610421576040366003190112610421576108ba600435611d8a81610832565b6024359033612e84565b6001600160801b0381160361042157565b60a0906101631901126104215760405190611dbf8261094d565b8161016435611dcd81610dbb565b815261018435611ddc81610832565b60208201526101a435611dee81611d94565b60408201526101c435611e0081611d94565b606082015260806101e435910152565b60a0906101031901126104215760405190611e2a8261094d565b8161010435611e3881610dbb565b815261012435611e4781610832565b602082015261014435611e5981611d94565b604082015261016435611e6b81611d94565b6060820152608061018435910152565b6060906102031901126104215760405190611e9582610932565b8161020435611ea381610dbb565b815261022435611eb281610832565b6020820152604061024435910152565b6060906101a31901126104215760405190611edc82610932565b816101a435611eea81610dbb565b81526101c435611ef981610832565b602082015260406101e435910152565b906101e060831983011261042157611f84611f226109a6565b92608435611f2f81610dbb565b845260a435602085015260c4356040850152611f49610850565b6060850152611f5661085d565b6080850152611f63610dc5565b60a08501526101443560c0850152611f7a81611da5565b60e0850152611e7b565b610100830152565b906101e060231983011261042157611f84611fa56109a6565b92602435611fb281610dbb565b845260443560208501526064356040850152611fcc61086b565b6060850152611fd9610878565b6080850152611fe6610dd3565b60a085015260e43560c0850152611ffc81611e10565b60e0850152611ec2565b9181601f84011215610421578235916001600160401b038311610421576020808501946101a0850201011161042157565b908160a09103126104215790565b6102c03660031901126104215760043561205e81610832565b60243561206a81610832565b6044359161207783610415565b61207f610843565b9261208936611f09565b6001600160401b039461026435868111610421576120ab903690600401612006565b92909161028435888111610421576120c7903690600401612037565b946102a435988911610421576120e4610019993690600401610433565b98909761372a565b34610421576000366003190112610421576040517f00000000000000000000000000000000000000000000000000000000000000006001600160a01b03168152602090f35b6001600160a01b0316600090815260086020526040902090565b6001600160a01b0316600090815260096020526040902090565b9060018060a01b0316600052602052604060002090565b3461042157604036600319011261042157602060ff6119f86024356121a081610832565b600435600052600f84526040600020612165565b34610421576020366003190112610421577f5db758e995a17ec1ad84bdef7e8c3293a0bd6179bcce400dff5d4c3d87db726b60206004356121f481610832565b6121fc612d2a565b600480546001600160a01b0319166001600160a01b03929092169182179055604051908152a1005b6001600160401b03811161092d5760051b60200190565b60ff81160361042157565b35906104318261223b565b919060a083820312610421576040519061226a8261094d565b8193803561227781610dbb565b835260208101356020840152604081013561229181610dbb565b604084015260608101356122a481610415565b60608401526080810135916001600160401b038311610421576080926122ca9201610a65565b910152565b610240366003190112610421576004356122e881610832565b6122f136611f8c565b6001600160401b0391906102043590838211610421573660238301121561042157816004013561232081612224565b92604061232f81519586610983565b8285526020908186019060246101a08096028501019336851161042157602401915b84831061238057505050505050610224359384116104215761237a610019943690600401612251565b92614889565b8583360312610421578386916123946109c6565b61239d86610de0565b81526123aa838701610de0565b838201526123b9858701610de0565b8582015260606123ca818801610426565b9082015260806123db818801610885565b9082015260a06123ec818801610de0565b9082015260c06123fd818801610885565b9082015260e061240e818801610885565b9082015261010080870135908201526101208087013590820152610140612436818801612246565b9082015261016080870135908201526101808087013590820152815201920191612351565b346104215760003660031901126104215760206040516127108152f35b346104215760803660031901126104215760043561249581610415565b6024356124a181610415565b6064356001600160401b038111610421576124c0903690600401610433565b90926124ca612d2a565b7f00000000000000000000000000000000000000000000000000000000000000006001600160a01b031690813b1561042157600080946111f6604051978896879586946332fb62e760e21b865261ffff80921660048701521660248501526044356044850152608060648501526084840191613185565b3461042157600036600319011261042157600e546040516001600160a01b039091168152602090f35b61257336610471565b9161ffff869492961660005260056020526125a781604060002060206040518092878b833787820190815203019020611293565b549182156126515761264084836126397fc264d91f3adc5588250e1551f547752ca0cfa8f6b530d243b9f9f4cab10ea8e59a600061262584610c9d8e8a8f61264c9f908f61260b906125fe61261f9436908d610a2e565b60208151910120146150cc565b61ffff166000526005602052604060002090565b916150b3565b5561263136878d610a2e565b933691610a2e565b91886153a9565b60405195869586615122565b0390a1005b60405162461bcd60e51b815260206004820152602360248201527f4e6f6e626c6f636b696e674c7a4170703a206e6f2073746f726564206d65737360448201526261676560e81b6064820152608490fd5b3461042157600036600319011261042157600d546040516001600160a01b039091168152602090f35b346104215760403660031901126104215760206112f56004356126ed81610832565b602435906126fa82610832565b6001600160a01b031660009081526009845260409020612165565b34610421576000366003190112610421576040517f00000000000000000000000000000000000000000000000000000000000000006001600160a01b03168152602090f35b346104215760603660031901126104215760043561277781610415565b60243561278381610415565b6044359161278f612d2a565b821561280a5761264c7f9d5c7c0b934da8fefa9c7760c98383778a12dfbfc0c3b3106518f43fb9508ac09361ffff83166000526002602052806127e48560406000209061ffff16600052602052604060002090565b556040519384938460409194939294606082019561ffff80921683521660208201520152565b60405162461bcd60e51b81526020600482015260156024820152744c7a4170703a20696e76616c6964206d696e47617360581b6044820152606490fd5b3461042157600036600319011261042157602060405160018152f35b90816101c09103126104215790565b6101403660031901126104215760043561288b81610832565b60243561289781610832565b604435916128a483610415565b6128ac610843565b6001600160401b039390608435858111610421576128ce903690600401610433565b906128d8366113a7565b9261010435888111610421576128f2903690600401612863565b94610124359889116104215761290f610019993690600401612006565b989097613489565b34610421576020366003190112610421577f1584ad594a70cbe1e6515592e1272a987d922b097ead875069cebe8b40c004a4602060043561295781610dbb565b61295f612d2a565b151560ff196006541660ff821617600655604051908152a1005b34610421576101003660031901126104215760043561299781610415565b6001600160401b0390602435828111610421576129b8903690600401610433565b9190604435906129c782610460565b6084356129d381610832565b60c435958611610421576129ee610019963690600401610433565b94909360e4359660a4359460643593615282565b3461042157612a1036610f43565b9190612a1a612d2a565b61ffff82166000908152600160208181526040832092949291906001600160401b03871161092d57612a5687612a50855461152f565b85614f1a565b8590601f8811600114612aab5750918680879893611cd595600080516020615f748339815191529993612aa0575b501b906000198460031b1c191617905560405193849384614eff565b880135925038612a84565b90601f198816612ac085600052602060002090565b9288905b828210612b1457505091889391600080516020615f748339815191529899611cd5969410612afa575b505082811b019055611cc9565b870135600019600386901b60f8161c191690553880612aed565b808685968294968c01358155019501930190612ac4565b3461042157604036600319011261042157602060ff6119f8602435612b4f81610832565b600435600052601084526040600020612165565b3461042157600036600319011261042157602060ff600654166040519015158152f35b3461042157602036600319011261042157600435612ba381610832565b612bab612d2a565b6001600160a01b039081168015612be757600080546001600160a01b0319811683178255909216600080516020615f348339815191528380a380f35b60405162461bcd60e51b815260206004820152602660248201527f4f776e61626c653a206e6577206f776e657220697320746865207a65726f206160448201526564647265737360d01b6064820152608490fd5b3461042157608036600319011261042157600435612c5881610415565b60243590612c6582610415565b612c70604435610832565b604051633d7b2f6f60e21b815261ffff91821660048201529116602482015230604482015260648035908201526000816084817f00000000000000000000000000000000000000000000000000000000000000006001600160a01b03165afa801561081d576106ff91600091612cee575b5060405191829182610693565b612d09913d8091833e612d018183610983565b810190614eda565b38612ce1565b34610421576000366003190112610421576020604051308152f35b6000546001600160a01b03163303612d3e57565b606460405162461bcd60e51b815260206004820152602060248201527f4f776e61626c653a2063616c6c6572206973206e6f7420746865206f776e65726044820152fd5b90612d8d9133612f53565b600190565b634e487b7160e01b600052601160045260246000fd5b90601f8201809211610f3e57565b6051019081605111610f3e57565b91908201809211610f3e57565b15612dd857565b60405162461bcd60e51b815260206004820152602360248201527f45524332303a207472616e7366657220746f20746865207a65726f206164647260448201526265737360e81b6064820152608490fd5b15612e3057565b60405162461bcd60e51b815260206004820152602660248201527f45524332303a207472616e7366657220616d6f756e7420657863656564732062604482015265616c616e636560d01b6064820152608490fd5b916001600160a01b038084169290918315612f0057612ee582600080516020615f5483398151915294612efb941696612ebe881515612dd1565b612edf84612ecb83612131565b54612ed882821015612e29565b0391612131565b55612131565b8054820190556040519081529081906020820190565b0390a3565b60405162461bcd60e51b815260206004820152602560248201527f45524332303a207472616e736665722066726f6d20746865207a65726f206164604482015264647265737360d81b6064820152608490fd5b6001600160a01b038082169291908315613008578216938415612fb85780612fa77f8c5be1e5ebec7d5bd14f71427d1e84f3dd0314c0f7b2291e5b200ac8c7c3b92594612fa2612efb9561214b565b612165565b556040519081529081906020820190565b60405162461bcd60e51b815260206004820152602260248201527f45524332303a20617070726f766520746f20746865207a65726f206164647265604482015261737360f01b6064820152608490fd5b60405162461bcd60e51b8152602060048201526024808201527f45524332303a20617070726f76652066726f6d20746865207a65726f206164646044820152637265737360e01b6064820152608490fd5b9060018060a01b0382166000526009602052613079816040600020612165565b5492600184016130895750505050565b8084106130a45761309b930391612f53565b38808080611596565b60405162461bcd60e51b815260206004820152601d60248201527f45524332303a20696e73756666696369656e7420616c6c6f77616e63650000006044820152606490fd5b356106a481610dbb565b156130fa57565b60405162461bcd60e51b8152602060048201526019602482015278155114d3ce881cd95b99195c881b9bdd08185c1c1c9bdd9959603a1b6044820152606490fd5b60408091803561314a81610dbb565b15158452602081013561315c81610832565b6001600160a01b031660208501520135910152565b9035609e1982360301811215610421570190565b908060209392818452848401376000828201840152601f01601f1916010190565b80356131b181610dbb565b151582526020810135602083015260408101356131cd81610dbb565b1515604083015261ffff60608201356131e581610415565b1660608301526080810135601e198236030181121561042157016020810190356001600160401b0381116104215780360382136104215760a0838160806106a49601520191613185565b9190808252602080920192916000905b82821061324d575050505090565b909192938061326760019261326188610de0565b15159052565b61327d613275848801610de0565b151582850152565b613295604061328d818901610de0565b151590830152565b6132af60606132a5818901610426565b61ffff1690830152565b6132c860806132bf818901610885565b90830190611898565b6132d860a061328d818901610de0565b6132e860c06132bf818901610885565b6132f860e06132bf818901610885565b6101008087013590820152610120808701359082015261332861014061331f818901612246565b60ff1690830152565b610160868101359082015261018080870135908201526101a090810195019392019061323f565b93919261347b9160406106a49795610305885260018060a01b03809316602089015282813561337d81610832565b168289015282602082013561339181610832565b16606089015201356133a281610832565b16608086015260e060a08601526133bf60e0860161326183610de0565b60208101356101008601526134696133d960408301610de0565b916133eb610120938489019015159052565b606081013561014088015261340f61340560808301610de0565b1515610160890152565b61346061344c61018060a0840135818b01526134446101a096613437888d0160c0880161313b565b6102008c0190860161313b565b830183613171565b6101c06102608a01526102a08901906131a6565b92810190613171565b85820360df19016102808701526131a6565b9260c081850391015261322f565b92819794989399959299969196600160a01b60019003958682169a8b92338414159a6134e461ffff9b6135179a61351096600080516020615ed48339815191529f956134f29661352e575b506040519a8b956020870161334f565b03601f198101875286610983565b6135078d613501368985610a2e565b90614d55565b34953691610a2e565b928b614bcd565b60405160008152931694169180602081015b0390a4565b613537826130e9565b61357e575b613548608083016130e9565b156134d4576135789061355e33612fa28361214b565b549061357160a0850135809310156130f3565b3390613059565b386134d4565b6135a761358e33612fa28461214b565b546135a06020850135809210156130f3565b3383613059565b61353c565b519061043182610415565b9081602091031261042157516106a481610415565b6040513d6000823e3d90fd5b6080809180511515845260018060a01b036020820151166020850152600180831b0380604083015116604086015260608201511660608501520151910152565b8051151582526020808201516001600160a01b031690830152604090810151910152565b9061018061010061043193805115158452602081015160208501526040810151604085015260018060a01b03606082015116606085015261368560808201516080860190611898565b60a08181015115159085015260c081015160c08501526136ad60e082015160e08601906135d8565b0151910190613618565b61030681526001600160a01b039182166020820152918116604083015290911660608201526001600160401b0390911660808201526106a4949093909261371b929091906137099060a087019061363c565b6102c08061028087015285019161322f565b916102a08184039101526131a6565b9590969298919897939760018060a01b039586881699338b03613847575b602081019661375788516158b8565b5088526040516303408e4760e41b81529960208b6004817f00000000000000000000000000000000000000000000000000000000000000008e165afa90811561081d576134e4613800998f96988f99600080516020615ed48339815191529f976137db8f6135109a6137eb99613819575b506137d4815189615aad565b5051615820565b6040519c8d973360208a016136b7565b6135078d6137fa368985610a2e565b90614dde565b5160405190815292169361ffff16918060208101613529565b6138399060203d8111613840575b6138318183610983565b8101906135b7565b50386137c8565b503d613827565b61387161385733612fa28c61214b565b546138696020840191825111156130f3565b51338b613059565b613748565b519061043182610832565b519061043182610dbb565b9190826060910312610421576040516138a481610932565b604080829480516138b481610dbb565b845260208101516138c481610832565b60208501520151910152565b909291926138dd81610a13565b916138eb6040519384610983565b82948284528282011161042157602061043193019061064b565b9080601f830112156104215781516106a4926020016138d0565b919060a08382031261042157604051906139388261094d565b8193805161394581610dbb565b835260208101516020840152604081015161395f81610dbb565b6040840152606081015161397281610415565b60608401526080810151916001600160401b038311610421576080926122ca9201613905565b91906101c083820312610421576139ad6109e6565b926139b781613881565b8452602081015160208501526139cf60408201613881565b6040850152606081015160608501526139ea60808201613881565b608085015260a081015160a0850152613a068260c0830161388c565b60c085015261012091613a1b8184840161388c565b60e08601526101808201516001600160401b03908181116104215782613a4291850161391f565b6101008701526101a083015190811161042157613a5f920161391f565b90830152565b51906104318261223b565b81601f8201121561042157805190613a8782612224565b92604090613a9782519586610983565b83855260209182860191836101a080970286010194818611610421578401925b858410613ac8575050505050505090565b868483031261042157848791613adc6109c6565b613ae587613881565b8152613af2838801613881565b83820152613b01868801613881565b868201526060613b128189016135ac565b908201526080613b23818901613876565b9082015260a0613b34818901613881565b9082015260c0613b45818901613876565b9082015260e0613b56818901613876565b9082015261010080880151908201526101208088015190820152610140613b7e818901613a65565b9082015261016080880151908201526101808088015190820152815201930192613ab7565b80516001600160a01b03908116835260208083015182169084015260409182015116910152565b9060a060806106a4938051151584526020810151602085015260408101511515604085015261ffff6060820151166060850152015191816080820152019061066e565b6001600160a01b0390911681526106a49291613c2d906020830190613ba3565b60a06080820152613c4360a08201835115159052565b602082015160c08201526040820151151560e082015260608201516101009081830152613cc9608084015191613c80610120938486019015159052565b60a0850151610140850152613c9e60c0860151610160860190613618565b60e085015190613cb46101c09283870190613618565b85015190610220850152610260840190613bca565b92015190610240609f1982850301910152613bca565b8051821015613cf35760209160051b010190565b634e487b7160e01b600052603260045260246000fd5b9360ff929897969360c0969260e087019a60018060a01b0380921688521660208701526040860152606085015216608083015260a08201520152565b60009060033d11613d5257565b905060046000803e60005160e01c90565b600060443d106106a457604051600319913d83016004833e81516001600160401b03918282113d602484011117613dc057818401948551938411613dc8573d85010160208487010111613dc057506106a492910160200190610983565b949350505050565b50949350505050565b3d15613dfc573d90613de282610a13565b91613df06040519384610983565b82523d6000602084013e565b606090565b9060005b825181101561423e57613e2560a0613e1d8386613cdf565b510151151590565b15613fe257613e4e6111b96111b96080613e3f8588613cdf565b5101516001600160a01b031690565b613e5d60c0613e3f8487613cdf565b613e6c60e0613e3f8588613cdf565b91610100613e7a8588613cdf565b51015192610120613e8b8689613cdf565b510151613ea7610140613e9e888b613cdf565b51015160ff1690565b92610160613eb5888b613cdf565b51015195610180613ec6898c613cdf565b510151823b1561042157600094613ef9869260409a8b51998a98899788966301da8bf160e41b885260049e8f8901613d09565b03925af19081613fcf575b50613fc5576001613f13613d45565b6308c379a014613f7c575b613f2f575b50506001905b01613e05565b613f37613dd1565b613f4d613f496020613e1d878a613cdf565b1590565b613f575750613f23565b613f63613f7891614243565b925162461bcd60e51b81529283928301610693565b0390fd5b613f84613d63565b80613f90575b50613f1e565b60009150613fa6613f496020613e1d888b613cdf565b15613f8a57835162461bcd60e51b8152908190613f7890828601610693565b5050600190613f29565b80611213613fdc9261091a565b38613f04565b613ff6613fef8285613cdf565b5151151590565b15614187576140106111b96111b96080613e3f8588613cdf565b61401f60c0613e3f8487613cdf565b61402e60e0613e3f8588613cdf565b9161012061403c8588613cdf565b51015192614050610140613e9e878a613cdf565b61016061405d878a613cdf565b5101519261018061406e888b613cdf565b51015195813b15610421576040805163aba0784760e01b81526001600160a01b03978816600480830191909152979095166024860152604485019190915260ff9092166064840152608483019390935260a482019490945290600090829081838160c481015b03925af19081614174575b50613fc55760016140ee613d45565b6308c379a01461412b575b614107575050600190613f29565b61410f613dd1565b614121613f496020613e1d878a613cdf565b613f575750613fc5565b614133613d63565b8061413f575b506140f9565b60009150614155613f496020613e1d888b613cdf565b1561413957835162461bcd60e51b8152908190613f7890828601610693565b806112136141819261091a565b386140df565b61419c6111b96111b96080613e3f8588613cdf565b6141ab60c0613e3f8487613cdf565b6141ba60e0613e3f8588613cdf565b916101006141c88588613cdf565b510151926101206141d98689613cdf565b5101516141ec610140613e9e888b613cdf565b926101606141fa888b613cdf565b5101519561018061420b898c613cdf565b510151823b15610421576000946140d4869260409a8b51998a988997889663d505accf60e01b885260049e8f8901613d09565b509050565b604481511061429457600481015181019060208160248401930312610421576024810151906001600160401b038211610421570190806043830112156104215760248201516106a4926044016138d0565b506040516142a181610968565b600a8152695553444f3a206461746160b01b602082015290565b156142c257565b60405162461bcd60e51b81526020600482015260166024820152751554d113ce881b5bd91d5b19481b9bdd081d985b1a5960521b6044820152606490fd5b91908260a0910312610421576040516143188161094d565b6080808294805161432881610dbb565b8452602081015161433881610832565b6020850152604081015161434b81611d94565b6040850152606081015161435e81611d94565b60608501520151910152565b91906101e08382031261042157611f84906101806143866109a6565b9461439081613881565b865260208101516020870152604081015160408701526143b260608201613876565b60608701526143c360808201613876565b60808701526143d460a08201613881565b60a087015260c081015160c08701526143f08360e08301614300565b60e08701520161388c565b9190916102c08184031261042157805161441481610415565b92602082015161442381610832565b92604083015161443281610832565b92606081015161444181610832565b92608082015161445081610460565b9261445e8260a0850161436a565b61028084015190936001600160401b039390918481116104215781614484918401613a70565b936102a0830151908111610421576106a4920161391f565b6001600160a01b0390911681526020949391610240808301916144c2908885019061363c565b610200830152835180915285610260830194019060005b8181106144f7575050506106a4939450610220818403910152613bca565b909194876101a0600192885161450f82825115159052565b8084015115158285015260408181015115159083015260608181015161ffff169083015261454560808083015190840190611898565b60a08181015115159083015261456360c08083015190840190611898565b61457560e08083015190840190611898565b610100818101519083015261012080820151908301526101408082015160ff1690830152610160818101519083015261018090810151908201520196019291016144d9565b601319810191908211610f3e57565b605019810191908211610f3e57565b91908203918211610f3e57565b6001600160a01b039091168152602081019190915260400190565b61467e916000806040519361462c856134e46020998a83019763a9059cbb60e01b8952602484016145e5565b60018060a01b0316926040519461464286610968565b8786527f5361666545524332303a206c6f772d6c6576656c2063616c6c206661696c656488870152519082855af1614678613dd1565b91614700565b80518061468a57505050565b81839181010312610421578101516146a181610dbb565b156146a95750565b6084906040519062461bcd60e51b82526004820152602a60248201527f5361666545524332303a204552433230206f7065726174696f6e20646964206e6044820152691bdd081cdd58d8d9595960b21b6064820152fd5b919290156147625750815115614714575090565b3b1561471d5790565b60405162461bcd60e51b815260206004820152601d60248201527f416464726573733a2063616c6c20746f206e6f6e2d636f6e74726163740000006044820152606490fd5b8251909150156147755750805190602001fd5b60405162461bcd60e51b8152908190613f789060048301610693565b604080918051151584526020810151602085015201511515910152565b926104319691989795614808610240966147fe60406148139561481e986102a08b019f60018060a01b03168b5260208b015280511515828b0152602081015160608b015201516080890190614791565b60e0870190614791565b6101408501906135d8565b6101e0830190613618565b0190613ba3565b9081602091031261042157516106a481610832565b90816020910312610421575190565b9260e094916106a497969360018060a01b038092168652166020850152604084015260608301526080820152600160a08201528160c08201520190613bca565b919290928051614b0b575b5060608301906148a48251610826565b926020926148b784870195865190612d82565b50855115614a3a576040860193845115614940575b506111b96111b96148dd9251610826565b9160c06148ed6080880151610826565b9551945196015194833b1561042157614922600096928793604051998a98899788966303c592fd60e21b885260048801614849565b03925af1801561081d576149335750565b806112136104319261091a565b806004916149546111b96111b98651610826565b6040516331d8733560e11b815293849182905afa91821561081d576149ac928291600091614a0d575b5061498b60808b0151610826565b89516040516305da91c960e31b8152958693928492839291600484016145e5565b03916001600160a01b03165afa92831561081d576148dd936111b9936111b9936000926149e0575b505087529250506148cc565b6149ff9250803d10614a06575b6149f78183610983565b81019061483a565b38806149d4565b503d6149ed565b614a2d9150823d8411614a33575b614a258183610983565b810190614825565b3861497d565b503d614a1b565b614a4d9192506111b96111b99151610826565b90835190614a59610a06565b936000958686528682870152866040870152614a73610a06565b95878752878388015260408701525196614a8b610a06565b6001815297888301526001604089015260e0810151614ad5614ab66080610100850151940151610826565b614abe610a06565b8a81526001600160a01b0390911694810194909452565b876040840152853b15614b075791614922918894936040519a8b998a9889976339551beb60e21b8952600489016147ae565b8780fd5b614b1490613e01565b38614894565b15614b2157565b60405162461bcd60e51b815260206004820152602660248201527f4c7a4170703a20696e76616c696420736f757263652073656e64696e6720636f6044820152651b9d1c9858dd60d21b6064820152608490fd5b92614b9a6106a497959361ffff614ba89416865260c0602087015260c086019061066e565b90848203604086015261066e565b6001600160a01b0391821660608401529316608082015280830360a09091015261066e565b94614bf69193929561ffff81166000526001602052614bfd604060002060405194858092611569565b0384610983565b825115614c6457614c0f855182614e6b565b7f00000000000000000000000000000000000000000000000000000000000000006001600160a01b031693843b156104215760009661492291604051998a988997889662c5803160e81b885260048801614b75565b60405162461bcd60e51b815260206004820152603060248201527f4c7a4170703a2064657374696e6174696f6e20636861696e206973206e6f742060448201526f61207472757374656420736f7572636560801b6064820152608490fd5b15614cc957565b60405162461bcd60e51b815260206004820152601a602482015279131e905c1c0e881b5a5b91d85cd31a5b5a5d081b9bdd081cd95d60321b6044820152606490fd5b15614d1257565b60405162461bcd60e51b815260206004820152601b60248201527a4c7a4170703a20676173206c696d697420697320746f6f206c6f7760281b6044820152606490fd5b6022825110614d9a5761ffff602261043193015191166000526002602052604060002061030560005260205260406000205490614d93821515614cc2565b1015614d0b565b60405162461bcd60e51b815260206004820152601c60248201527b4c7a4170703a20696e76616c69642061646170746572506172616d7360201b6044820152606490fd5b6022825110614d9a5761ffff602261043193015191166000526002602052604060002061030660005260205260406000205490614d93821515614cc2565b91906022815110614d9a57602261ffff91015192166000526002602052614e5160406000206001600052602052604060002090565b54908101809111610f3e5761043191614d93821515614cc2565b61ffff166000526003602052604060002054908115614ed0575b11614e8c57565b606460405162461bcd60e51b815260206004820152602060248201527f4c7a4170703a207061796c6f61642073697a6520697320746f6f206c617267656044820152fd5b6127109150614e85565b906020828203126104215781516001600160401b038111610421576106a49201613905565b60409061ffff6106a495931681528160208201520191613185565b90601f8111614f2857505050565b600091825260208220906020601f850160051c83019410614f64575b601f0160051c01915b828110614f5957505050565b818155600101614f4d565b9092508290614f44565b929091614fe05a604051633356ae4560e11b602082015261ffff871660248201526080604482015290614fda82614fcc614fab60a483018a61066e565b6001600160401b03881660648401528281036023190160848401528861066e565b03601f198101845283610983565b30615e76565b939015614fef575b5050505050565b614ff894615002565b3880808080614fe8565b91936150a07fe183f33de2837795525b4792ca4cd60535bd77c53b7e7030060bfcf5734d6b0c956150ae939561ffff81516020830120961695866000526005602052615066836112e760208b6040600020826040519483868095519384920161064b565b55615083604051978897885260a0602089015260a088019061066e565b6001600160401b039092166040870152858203606087015261066e565b90838203608085015261066e565b0390a1565b6020919283604051948593843782019081520301902090565b156150d357565b60405162461bcd60e51b815260206004820152602160248201527f4e6f6e626c6f636b696e674c7a4170703a20696e76616c6964207061796c6f616044820152601960fa1b6064820152608490fd5b9160609361ffff6151459398979698168452608060208501526080840191613185565b6001600160401b0390951660408201520152565b903590601e198136030182121561042157018035906001600160401b0382116104215760200191813603831361042157565b94919598979061177f6151b46040996151ac6151ba976151d7993691610a2e565b943691610a2e565b97615820565b928451968794859463040a7bb160e41b8652309060048701615365565b03817f00000000000000000000000000000000000000000000000000000000000000006001600160a01b03165afa91821561081d57600090819361521a57509190565b90506104d291925060403d8111610eec57610edd8183610983565b939694916106a498969361ffff61525a9316865260c0602087015260c0860191613185565b6001600160401b0390961660408401526060830152608082015280840360a090910152613185565b9196979298959493909430330361530a5761529e908530615c13565b60405181815290946001600160a01b03169390849061ffff851690600080516020615f1483398151915290602090a3833b156104215760009889956152fa936040519c8d9b8c9a8b98633fe79aed60e11b8a5260048a01615235565b0393f1801561081d576149335750565b60405162461bcd60e51b815260206004820152601f60248201527f4f4654436f72653a2063616c6c6572206d757374206265204f4654436f7265006044820152606490fd5b9190826040910312610421576020825192015190565b91926106a4959361ffff6153949316845260018060a01b0316602084015260a0604084015260a083019061066e565b9215156060820152608081840391015261066e565b92919060ff6153b784615e1b565b168061550a5750505060ff6153cb82615e1b565b1615806154ff575b6153dc90615923565b6153ee6153e882615dcb565b91615e66565b90916001600160a01b0391828416156154f5575b615436907f0000000000000000000000000000000000000000000000000000000000000000906001600160401b03166158a5565b9183169283156154b057600080516020615f148339815191529161547061ffff9261546b61546687600a54612dc4565b600a55565b612131565b848154019055846000600080516020615f548339815191526040518061549b89829190602083019252565b0390a360405193845216918060208101612efb565b60405162461bcd60e51b815260206004820152601f60248201527f45524332303a206d696e7420746f20746865207a65726f2061646472657373006044820152606490fd5b61dead9350615402565b5080516029146153d3565b60010361551a5761043193615633565b60405162461bcd60e51b815260206004820152601c60248201527b4f4654436f72653a20756e6b6e6f776e207061636b6574207479706560201b6044820152606490fd5b1561556557565b60405162461bcd60e51b815260206004820152601960248201527813d19510dbdc994e88185b5bdd5b9d081d1bdbc81cdb585b1b603a1b6044820152606490fd5b98979692936155d060e0979361ffff6156059894168c5260208c61010091829101528c019061066e565b6001600160401b0390951660408b015260608a01526001600160a01b0316608089015260a088015286820360c088015261066e565b930152565b6156226040929594939560608352606083019061066e565b94600180841b031660208201520152565b909161563e846159d4565b909161565a61565387610c9d610c978b610fd7565b5460ff1690565b916001600160401b0391615691907f00000000000000000000000000000000000000000000000000000000000000009084166158a5565b9288888b831561578d575b505050853b1561574257946156e39694614fda948a94614fcc948d9960001461573b5750505a925b5a978b6040519a8b9863757fea4d60e11b60208b015260248a016155a6565b901561573057509061572b61ffff928560207fb8890edbfc1c74692f527444645f95489c3703cc2df42e4a366f5d06fa6cd8849697519101209060405194859416968461560a565b0390a2565b926104319492615002565b16926156c4565b50506040516001600160a01b039094168452507f9aedf5fdba8716db3b6705ca00150643309995d4f818a249ed6dde6677e7792d9750919550859450506020840192506150ae915050565b90610c9d610ca2926157ad896157a76157b3979b30615bc3565b99610fd7565b9061126d565b88888b61569c565b60065460ff1615615802576022825110614d9a5761ffff60226104319301519116600052600260205260406000206000805260205260406000205490614d93821515614cc2565b50516117b457565b634e487b7160e01b600052601260045260246000fd5b7f00000000000000000000000000000000000000000000000000000000000000009081156158a0576001600160401b0391900481811161585e571690565b60405162461bcd60e51b815260206004820152601a6024820152794f4654436f72653a20616d6f756e745344206f766572666c6f7760301b6044820152606490fd5b61580a565b81810292918115918404141715610f3e57565b7f000000000000000000000000000000000000000000000000000000000000000080156158a057810690818103908111610f3e5791565b60405160006020820152602181019190915260c09190911b6001600160c01b0319166041820152602981526106a481610932565b1561592a57565b60405162461bcd60e51b815260206004820152601860248201527713d19510dbdc994e881a5b9d985b1a59081c185e5b1bd85960421b6044820152606490fd5b93926071926106a494604051968794600160f81b6020870152602186015260018060c01b0319809360c01b16604186015260018060a01b0316604985015260c01b1660698301526159c4815180926020868601910161064b565b8101036051810184520182610983565b906159ec600160ff6159e585615e1b565b1614615923565b6159f582615dcb565b906159ff83615e66565b906049845110615a70576049840151936051815110615a3457615a31605182015191615a2b81516145c9565b90615d47565b91565b60405162461bcd60e51b8152602060048201526014602482015273746f55696e7436345f6f75744f66426f756e647360601b6044820152606490fd5b60405162461bcd60e51b8152602060048201526015602482015274746f427974657333325f6f75744f66426f756e647360581b6044820152606490fd5b6001600160a01b038116338103615b5c575b8015615b0d5781615ae284615ad5600095612131565b54612ed882821015615b6c565b55615af083600a5403600a55565b604051838152600080516020615f5483398151915290602090a390565b60405162461bcd60e51b815260206004820152602160248201527f45524332303a206275726e2066726f6d20746865207a65726f206164647265736044820152607360f81b6064820152608490fd5b615b67833384613059565b615abf565b15615b7357565b60405162461bcd60e51b815260206004820152602260248201527f45524332303a206275726e20616d6f756e7420657863656564732062616c616e604482015261636560f01b6064820152608490fd5b6001600160a01b038116919082156154b057600a5490828201809211610f3e57600092615c04602092600080516020615f5483398151915294600a55612131565b818154019055604051908152a3565b6106a49183916001600160a01b038116308114159081615c3f575b5015612e8457610d9a833383613059565b905033141538615c2e565b15615c5157565b60405162461bcd60e51b815260206004820152600e60248201526d736c6963655f6f766572666c6f7760901b6044820152606490fd5b15615c8e57565b60405162461bcd60e51b8152602060048201526011602482015270736c6963655f6f75744f66426f756e647360781b6044820152606490fd5b615cdb82615cd481612da8565b1015615c4a565b615ce88282511015615c87565b81615d00575050604051600081526020810160405290565b60405191601f811691821560051b808486010193838501920101905b808410615d345750508252601f01601f191660405290565b9092835181526020809101930190615d1c565b615d5482615cd481612da8565b615d698151615d6284612db6565b1115615c87565b81615d81575050604051600081526020810160405290565b60405191601f8116916051831560051b80858701019484860193010101905b808410615db85750508252601f01601f191660405290565b9092835181526020809101930190615da0565b6021815110615dde57602d015160601c90565b60405162461bcd60e51b8152602060048201526015602482015274746f416464726573735f6f75744f66426f756e647360581b6044820152606490fd5b6001815110615e2b576001015190565b60405162461bcd60e51b8152602060048201526013602482015272746f55696e74385f6f75744f66426f756e647360681b6044820152606490fd5b6029815110615a34576029015190565b6040519392909160009160c08601916001600160401b0383118784101761092d5783926040526096875282602088019560a036883760208451940192f1903d9060968211615eca575b6000908286523e9190565b60969150615ebf56fed81fc9b8523134ed613870ed029d6170cbb73aa6a6bc311b9a642689fb9df59a8c0400cfe2d1199b1a725c78960bcc2a344d869b80590d0f2bd005db15a572cebf551ec93859b170f9b2141bd9298bf3f64322c6f7beb2543a0cb669834118bf8be0079c531659141344cd1fd0a4f28419497f9722a3daafe3b4186f6b6457e0ddf252ad1be2c89b69c2b068fc378daa952ba7f163c4a11628f55a4df523b3effa41487ad5d6728f0b19276fa1eddc16558578f5109fc39d2dc33c3230470daba26469706673582212206440d35b2a35a998943a45d7ee957579bc55ea1920175c32383bee1764e4728564736f6c63430008120033",
  "linkReferences": {},
  "deployedLinkReferences": {}
}