{
  "_format": "hh-sol-artifact-1",
  "contractName": "USDOOptionsModule",
  "sourceName": "contracts/usd0/modules/USDOOptionsModule.sol",
  "abi": [
    {
      "inputs": [
        {
          "internalType": "address",
          "name": "_lzEndpoint",
          "type": "address"
        },
        {
          "internalType": "contract IYieldBoxBase",
          "name": "_yieldBox",
          "type": "address"
        },
        {
          "internalType": "contract ICluster",
          "name": "_cluster",
          "type": "address"
        }
      ],
      "stateMutability": "nonpayable",
      "type": "constructor"
    },
    {
      "anonymous": false,
      "inputs": [
        {
          "indexed": true,
          "internalType": "address",
          "name": "owner",
          "type": "address"
        },
        {
          "indexed": true,
          "internalType": "address",
          "name": "spender",
          "type": "address"
        },
        {
          "indexed": false,
          "internalType": "uint256",
          "name": "value",
          "type": "uint256"
        }
      ],
      "name": "Approval",
      "type": "event"
    },
    {
      "anonymous": false,
      "inputs": [
        {
          "indexed": true,
          "internalType": "uint16",
          "name": "_srcChainId",
          "type": "uint16"
        },
        {
          "indexed": false,
          "internalType": "bytes",
          "name": "_srcAddress",
          "type": "bytes"
        },
        {
          "indexed": false,
          "internalType": "uint64",
          "name": "_nonce",
          "type": "uint64"
        },
        {
          "indexed": false,
          "internalType": "bytes32",
          "name": "_hash",
          "type": "bytes32"
        }
      ],
      "name": "CallOFTReceivedSuccess",
      "type": "event"
    },
    {
      "anonymous": false,
      "inputs": [
        {
          "indexed": true,
          "internalType": "address",
          "name": "old",
          "type": "address"
        },
        {
          "indexed": true,
          "internalType": "address",
          "name": "_new",
          "type": "address"
        }
      ],
      "name": "ConservatorUpdated",
      "type": "event"
    },
    {
      "anonymous": false,
      "inputs": [
        {
          "indexed": false,
          "internalType": "uint256",
          "name": "_old",
          "type": "uint256"
        },
        {
          "indexed": false,
          "internalType": "uint256",
          "name": "_new",
          "type": "uint256"
        }
      ],
      "name": "FlashMintFeeUpdated",
      "type": "event"
    },
    {
      "anonymous": false,
      "inputs": [
        {
          "indexed": false,
          "internalType": "uint256",
          "name": "_old",
          "type": "uint256"
        },
        {
          "indexed": false,
          "internalType": "uint256",
          "name": "_new",
          "type": "uint256"
        }
      ],
      "name": "MaxFlashMintUpdated",
      "type": "event"
    },
    {
      "anonymous": false,
      "inputs": [
        {
          "indexed": false,
          "internalType": "uint16",
          "name": "_srcChainId",
          "type": "uint16"
        },
        {
          "indexed": false,
          "internalType": "bytes",
          "name": "_srcAddress",
          "type": "bytes"
        },
        {
          "indexed": false,
          "internalType": "uint64",
          "name": "_nonce",
          "type": "uint64"
        },
        {
          "indexed": false,
          "internalType": "bytes",
          "name": "_payload",
          "type": "bytes"
        },
        {
          "indexed": false,
          "internalType": "bytes",
          "name": "_reason",
          "type": "bytes"
        }
      ],
      "name": "MessageFailed",
      "type": "event"
    },
    {
      "anonymous": false,
      "inputs": [
        {
          "indexed": false,
          "internalType": "address",
          "name": "_address",
          "type": "address"
        }
      ],
      "name": "NonContractAddress",
      "type": "event"
    },
    {
      "anonymous": false,
      "inputs": [
        {
          "indexed": true,
          "internalType": "address",
          "name": "previousOwner",
          "type": "address"
        },
        {
          "indexed": true,
          "internalType": "address",
          "name": "newOwner",
          "type": "address"
        }
      ],
      "name": "OwnershipTransferred",
      "type": "event"
    },
    {
      "anonymous": false,
      "inputs": [
        {
          "indexed": false,
          "internalType": "bool",
          "name": "oldState",
          "type": "bool"
        },
        {
          "indexed": false,
          "internalType": "bool",
          "name": "newState",
          "type": "bool"
        }
      ],
      "name": "PausedUpdated",
      "type": "event"
    },
    {
      "anonymous": false,
      "inputs": [
        {
          "indexed": true,
          "internalType": "uint16",
          "name": "_srcChainId",
          "type": "uint16"
        },
        {
          "indexed": true,
          "internalType": "address",
          "name": "_to",
          "type": "address"
        },
        {
          "indexed": false,
          "internalType": "uint256",
          "name": "_amount",
          "type": "uint256"
        }
      ],
      "name": "ReceiveFromChain",
      "type": "event"
    },
    {
      "anonymous": false,
      "inputs": [
        {
          "indexed": false,
          "internalType": "uint16",
          "name": "_srcChainId",
          "type": "uint16"
        },
        {
          "indexed": false,
          "internalType": "bytes",
          "name": "_srcAddress",
          "type": "bytes"
        },
        {
          "indexed": false,
          "internalType": "uint64",
          "name": "_nonce",
          "type": "uint64"
        },
        {
          "indexed": false,
          "internalType": "bytes32",
          "name": "_payloadHash",
          "type": "bytes32"
        }
      ],
      "name": "RetryMessageSuccess",
      "type": "event"
    },
    {
      "anonymous": false,
      "inputs": [
        {
          "indexed": true,
          "internalType": "uint16",
          "name": "_dstChainId",
          "type": "uint16"
        },
        {
          "indexed": true,
          "internalType": "address",
          "name": "_from",
          "type": "address"
        },
        {
          "indexed": true,
          "internalType": "bytes32",
          "name": "_toAddress",
          "type": "bytes32"
        },
        {
          "indexed": false,
          "internalType": "uint256",
          "name": "_amount",
          "type": "uint256"
        }
      ],
      "name": "SendToChain",
      "type": "event"
    },
    {
      "anonymous": false,
      "inputs": [
        {
          "indexed": true,
          "internalType": "address",
          "name": "_for",
          "type": "address"
        },
        {
          "indexed": false,
          "internalType": "bool",
          "name": "_status",
          "type": "bool"
        }
      ],
      "name": "SetBurnerStatus",
      "type": "event"
    },
    {
      "anonymous": false,
      "inputs": [
        {
          "indexed": false,
          "internalType": "uint16",
          "name": "_dstChainId",
          "type": "uint16"
        },
        {
          "indexed": false,
          "internalType": "uint16",
          "name": "_type",
          "type": "uint16"
        },
        {
          "indexed": false,
          "internalType": "uint256",
          "name": "_minDstGas",
          "type": "uint256"
        }
      ],
      "name": "SetMinDstGas",
      "type": "event"
    },
    {
      "anonymous": false,
      "inputs": [
        {
          "indexed": true,
          "internalType": "address",
          "name": "_for",
          "type": "address"
        },
        {
          "indexed": false,
          "internalType": "bool",
          "name": "_status",
          "type": "bool"
        }
      ],
      "name": "SetMinterStatus",
      "type": "event"
    },
    {
      "anonymous": false,
      "inputs": [
        {
          "indexed": false,
          "internalType": "address",
          "name": "precrime",
          "type": "address"
        }
      ],
      "name": "SetPrecrime",
      "type": "event"
    },
    {
      "anonymous": false,
      "inputs": [
        {
          "indexed": false,
          "internalType": "uint16",
          "name": "_remoteChainId",
          "type": "uint16"
        },
        {
          "indexed": false,
          "internalType": "bytes",
          "name": "_path",
          "type": "bytes"
        }
      ],
      "name": "SetTrustedRemote",
      "type": "event"
    },
    {
      "anonymous": false,
      "inputs": [
        {
          "indexed": false,
          "internalType": "uint16",
          "name": "_remoteChainId",
          "type": "uint16"
        },
        {
          "indexed": false,
          "internalType": "bytes",
          "name": "_remoteAddress",
          "type": "bytes"
        }
      ],
      "name": "SetTrustedRemoteAddress",
      "type": "event"
    },
    {
      "anonymous": false,
      "inputs": [
        {
          "indexed": false,
          "internalType": "bool",
          "name": "_useCustomAdapterParams",
          "type": "bool"
        }
      ],
      "name": "SetUseCustomAdapterParams",
      "type": "event"
    },
    {
      "anonymous": false,
      "inputs": [
        {
          "indexed": true,
          "internalType": "address",
          "name": "from",
          "type": "address"
        },
        {
          "indexed": true,
          "internalType": "address",
          "name": "to",
          "type": "address"
        },
        {
          "indexed": false,
          "internalType": "uint256",
          "name": "value",
          "type": "uint256"
        }
      ],
      "name": "Transfer",
      "type": "event"
    },
    {
      "inputs": [],
      "name": "DEFAULT_PAYLOAD_SIZE_LIMIT",
      "outputs": [
        {
          "internalType": "uint256",
          "name": "",
          "type": "uint256"
        }
      ],
      "stateMutability": "view",
      "type": "function"
    },
    {
      "inputs": [],
      "name": "NO_EXTRA_GAS",
      "outputs": [
        {
          "internalType": "uint256",
          "name": "",
          "type": "uint256"
        }
      ],
      "stateMutability": "view",
      "type": "function"
    },
    {
      "inputs": [],
      "name": "PT_SEND",
      "outputs": [
        {
          "internalType": "uint8",
          "name": "",
          "type": "uint8"
        }
      ],
      "stateMutability": "view",
      "type": "function"
    },
    {
      "inputs": [],
      "name": "PT_SEND_AND_CALL",
      "outputs": [
        {
          "internalType": "uint8",
          "name": "",
          "type": "uint8"
        }
      ],
      "stateMutability": "view",
      "type": "function"
    },
    {
      "inputs": [
        {
          "internalType": "address",
          "name": "owner",
          "type": "address"
        },
        {
          "internalType": "address",
          "name": "spender",
          "type": "address"
        }
      ],
      "name": "allowance",
      "outputs": [
        {
          "internalType": "uint256",
          "name": "",
          "type": "uint256"
        }
      ],
      "stateMutability": "view",
      "type": "function"
    },
    {
      "inputs": [
        {
          "internalType": "uint256",
          "name": "",
          "type": "uint256"
        },
        {
          "internalType": "address",
          "name": "",
          "type": "address"
        }
      ],
      "name": "allowedBurner",
      "outputs": [
        {
          "internalType": "bool",
          "name": "",
          "type": "bool"
        }
      ],
      "stateMutability": "view",
      "type": "function"
    },
    {
      "inputs": [
        {
          "internalType": "uint256",
          "name": "",
          "type": "uint256"
        },
        {
          "internalType": "address",
          "name": "",
          "type": "address"
        }
      ],
      "name": "allowedMinter",
      "outputs": [
        {
          "internalType": "bool",
          "name": "",
          "type": "bool"
        }
      ],
      "stateMutability": "view",
      "type": "function"
    },
    {
      "inputs": [
        {
          "internalType": "address",
          "name": "spender",
          "type": "address"
        },
        {
          "internalType": "uint256",
          "name": "amount",
          "type": "uint256"
        }
      ],
      "name": "approve",
      "outputs": [
        {
          "internalType": "bool",
          "name": "",
          "type": "bool"
        }
      ],
      "stateMutability": "nonpayable",
      "type": "function"
    },
    {
      "inputs": [
        {
          "internalType": "address",
          "name": "account",
          "type": "address"
        }
      ],
      "name": "balanceOf",
      "outputs": [
        {
          "internalType": "uint256",
          "name": "",
          "type": "uint256"
        }
      ],
      "stateMutability": "view",
      "type": "function"
    },
    {
      "inputs": [
        {
          "internalType": "uint16",
          "name": "_srcChainId",
          "type": "uint16"
        },
        {
          "internalType": "bytes",
          "name": "_srcAddress",
          "type": "bytes"
        },
        {
          "internalType": "uint64",
          "name": "_nonce",
          "type": "uint64"
        },
        {
          "internalType": "bytes32",
          "name": "_from",
          "type": "bytes32"
        },
        {
          "internalType": "address",
          "name": "_to",
          "type": "address"
        },
        {
          "internalType": "uint256",
          "name": "_amount",
          "type": "uint256"
        },
        {
          "internalType": "bytes",
          "name": "_payload",
          "type": "bytes"
        },
        {
          "internalType": "uint256",
          "name": "_gasForCall",
          "type": "uint256"
        }
      ],
      "name": "callOnOFTReceived",
      "outputs": [],
      "stateMutability": "nonpayable",
      "type": "function"
    },
    {
      "inputs": [],
      "name": "circulatingSupply",
      "outputs": [
        {
          "internalType": "uint256",
          "name": "",
          "type": "uint256"
        }
      ],
      "stateMutability": "view",
      "type": "function"
    },
    {
      "inputs": [],
      "name": "cluster",
      "outputs": [
        {
          "internalType": "contract ICluster",
          "name": "",
          "type": "address"
        }
      ],
      "stateMutability": "view",
      "type": "function"
    },
    {
      "inputs": [],
      "name": "conservator",
      "outputs": [
        {
          "internalType": "address",
          "name": "",
          "type": "address"
        }
      ],
      "stateMutability": "view",
      "type": "function"
    },
    {
      "inputs": [
        {
          "internalType": "uint16",
          "name": "",
          "type": "uint16"
        },
        {
          "internalType": "bytes",
          "name": "",
          "type": "bytes"
        },
        {
          "internalType": "uint64",
          "name": "",
          "type": "uint64"
        }
      ],
      "name": "creditedPackets",
      "outputs": [
        {
          "internalType": "bool",
          "name": "",
          "type": "bool"
        }
      ],
      "stateMutability": "view",
      "type": "function"
    },
    {
      "inputs": [],
      "name": "decimals",
      "outputs": [
        {
          "internalType": "uint8",
          "name": "",
          "type": "uint8"
        }
      ],
      "stateMutability": "view",
      "type": "function"
    },
    {
      "inputs": [
        {
          "internalType": "address",
          "name": "spender",
          "type": "address"
        },
        {
          "internalType": "uint256",
          "name": "subtractedValue",
          "type": "uint256"
        }
      ],
      "name": "decreaseAllowance",
      "outputs": [
        {
          "internalType": "bool",
          "name": "",
          "type": "bool"
        }
      ],
      "stateMutability": "nonpayable",
      "type": "function"
    },
    {
      "inputs": [
        {
          "internalType": "uint16",
          "name": "_dstChainId",
          "type": "uint16"
        },
        {
          "internalType": "bytes32",
          "name": "_toAddress",
          "type": "bytes32"
        },
        {
          "internalType": "uint256",
          "name": "_amount",
          "type": "uint256"
        },
        {
          "internalType": "bytes",
          "name": "_payload",
          "type": "bytes"
        },
        {
          "internalType": "uint64",
          "name": "_dstGasForCall",
          "type": "uint64"
        },
        {
          "internalType": "bool",
          "name": "_useZro",
          "type": "bool"
        },
        {
          "internalType": "bytes",
          "name": "_adapterParams",
          "type": "bytes"
        }
      ],
      "name": "estimateSendAndCallFee",
      "outputs": [
        {
          "internalType": "uint256",
          "name": "nativeFee",
          "type": "uint256"
        },
        {
          "internalType": "uint256",
          "name": "zroFee",
          "type": "uint256"
        }
      ],
      "stateMutability": "view",
      "type": "function"
    },
    {
      "inputs": [
        {
          "internalType": "uint16",
          "name": "_dstChainId",
          "type": "uint16"
        },
        {
          "internalType": "bytes32",
          "name": "_toAddress",
          "type": "bytes32"
        },
        {
          "internalType": "uint256",
          "name": "_amount",
          "type": "uint256"
        },
        {
          "internalType": "bool",
          "name": "_useZro",
          "type": "bool"
        },
        {
          "internalType": "bytes",
          "name": "_adapterParams",
          "type": "bytes"
        }
      ],
      "name": "estimateSendFee",
      "outputs": [
        {
          "internalType": "uint256",
          "name": "nativeFee",
          "type": "uint256"
        },
        {
          "internalType": "uint256",
          "name": "zroFee",
          "type": "uint256"
        }
      ],
      "stateMutability": "view",
      "type": "function"
    },
    {
      "inputs": [
        {
          "internalType": "address",
          "name": "module",
          "type": "address"
        },
        {
          "internalType": "uint16",
          "name": "_srcChainId",
          "type": "uint16"
        },
        {
          "internalType": "bytes",
          "name": "_srcAddress",
          "type": "bytes"
        },
        {
          "internalType": "uint64",
          "name": "_nonce",
          "type": "uint64"
        },
        {
          "internalType": "bytes",
          "name": "_payload",
          "type": "bytes"
        }
      ],
      "name": "exercise",
      "outputs": [],
      "stateMutability": "nonpayable",
      "type": "function"
    },
    {
      "inputs": [
        {
          "internalType": "address",
          "name": "from",
          "type": "address"
        },
        {
          "internalType": "uint256",
          "name": "oTAPTokenID",
          "type": "uint256"
        },
        {
          "internalType": "address",
          "name": "paymentToken",
          "type": "address"
        },
        {
          "internalType": "uint256",
          "name": "tapAmount",
          "type": "uint256"
        },
        {
          "internalType": "address",
          "name": "target",
          "type": "address"
        },
        {
          "components": [
            {
              "internalType": "bool",
              "name": "withdrawOnAnotherChain",
              "type": "bool"
            },
            {
              "internalType": "address",
              "name": "tapOftAddress",
              "type": "address"
            },
            {
              "internalType": "uint16",
              "name": "lzDstChainId",
              "type": "uint16"
            },
            {
              "internalType": "uint256",
              "name": "amount",
              "type": "uint256"
            },
            {
              "internalType": "address",
              "name": "zroPaymentAddress",
              "type": "address"
            },
            {
              "internalType": "uint256",
              "name": "extraGas",
              "type": "uint256"
            }
          ],
          "internalType": "struct ITapiocaOptionsBrokerCrossChain.IExerciseLZSendTapData",
          "name": "tapSendData",
          "type": "tuple"
        },
        {
          "internalType": "uint256",
          "name": "paymentTokenAmount",
          "type": "uint256"
        },
        {
          "components": [
            {
              "internalType": "bool",
              "name": "permitAll",
              "type": "bool"
            },
            {
              "internalType": "bool",
              "name": "allowFailure",
              "type": "bool"
            },
            {
              "internalType": "address",
              "name": "target",
              "type": "address"
            },
            {
              "internalType": "bool",
              "name": "permitBorrow",
              "type": "bool"
            },
            {
              "internalType": "address",
              "name": "owner",
              "type": "address"
            },
            {
              "internalType": "address",
              "name": "spender",
              "type": "address"
            },
            {
              "internalType": "uint256",
              "name": "value",
              "type": "uint256"
            },
            {
              "internalType": "uint256",
              "name": "deadline",
              "type": "uint256"
            },
            {
              "internalType": "uint8",
              "name": "v",
              "type": "uint8"
            },
            {
              "internalType": "bytes32",
              "name": "r",
              "type": "bytes32"
            },
            {
              "internalType": "bytes32",
              "name": "s",
              "type": "bytes32"
            }
          ],
          "internalType": "struct ICommonData.IApproval[]",
          "name": "approvals",
          "type": "tuple[]"
        }
      ],
      "name": "exerciseInternal",
      "outputs": [],
      "stateMutability": "nonpayable",
      "type": "function"
    },
    {
      "inputs": [
        {
          "components": [
            {
              "internalType": "address",
              "name": "from",
              "type": "address"
            },
            {
              "internalType": "address",
              "name": "target",
              "type": "address"
            },
            {
              "internalType": "uint256",
              "name": "paymentTokenAmount",
              "type": "uint256"
            },
            {
              "internalType": "uint256",
              "name": "oTAPTokenID",
              "type": "uint256"
            },
            {
              "internalType": "address",
              "name": "paymentToken",
              "type": "address"
            },
            {
              "internalType": "uint256",
              "name": "tapAmount",
              "type": "uint256"
            }
          ],
          "internalType": "struct ITapiocaOptionsBrokerCrossChain.IExerciseOptionsData",
          "name": "optionsData",
          "type": "tuple"
        },
        {
          "components": [
            {
              "internalType": "uint16",
              "name": "lzDstChainId",
              "type": "uint16"
            },
            {
              "internalType": "address",
              "name": "zroPaymentAddress",
              "type": "address"
            },
            {
              "internalType": "uint256",
              "name": "extraGas",
              "type": "uint256"
            }
          ],
          "internalType": "struct ITapiocaOptionsBrokerCrossChain.IExerciseLZData",
          "name": "lzData",
          "type": "tuple"
        },
        {
          "components": [
            {
              "internalType": "bool",
              "name": "withdrawOnAnotherChain",
              "type": "bool"
            },
            {
              "internalType": "address",
              "name": "tapOftAddress",
              "type": "address"
            },
            {
              "internalType": "uint16",
              "name": "lzDstChainId",
              "type": "uint16"
            },
            {
              "internalType": "uint256",
              "name": "amount",
              "type": "uint256"
            },
            {
              "internalType": "address",
              "name": "zroPaymentAddress",
              "type": "address"
            },
            {
              "internalType": "uint256",
              "name": "extraGas",
              "type": "uint256"
            }
          ],
          "internalType": "struct ITapiocaOptionsBrokerCrossChain.IExerciseLZSendTapData",
          "name": "tapSendData",
          "type": "tuple"
        },
        {
          "components": [
            {
              "internalType": "bool",
              "name": "permitAll",
              "type": "bool"
            },
            {
              "internalType": "bool",
              "name": "allowFailure",
              "type": "bool"
            },
            {
              "internalType": "address",
              "name": "target",
              "type": "address"
            },
            {
              "internalType": "bool",
              "name": "permitBorrow",
              "type": "bool"
            },
            {
              "internalType": "address",
              "name": "owner",
              "type": "address"
            },
            {
              "internalType": "address",
              "name": "spender",
              "type": "address"
            },
            {
              "internalType": "uint256",
              "name": "value",
              "type": "uint256"
            },
            {
              "internalType": "uint256",
              "name": "deadline",
              "type": "uint256"
            },
            {
              "internalType": "uint8",
              "name": "v",
              "type": "uint8"
            },
            {
              "internalType": "bytes32",
              "name": "r",
              "type": "bytes32"
            },
            {
              "internalType": "bytes32",
              "name": "s",
              "type": "bytes32"
            }
          ],
          "internalType": "struct ICommonData.IApproval[]",
          "name": "approvals",
          "type": "tuple[]"
        },
        {
          "internalType": "bytes",
          "name": "adapterParams",
          "type": "bytes"
        }
      ],
      "name": "exerciseOption",
      "outputs": [],
      "stateMutability": "payable",
      "type": "function"
    },
    {
      "inputs": [
        {
          "internalType": "uint16",
          "name": "",
          "type": "uint16"
        },
        {
          "internalType": "bytes",
          "name": "",
          "type": "bytes"
        },
        {
          "internalType": "uint64",
          "name": "",
          "type": "uint64"
        }
      ],
      "name": "failedMessages",
      "outputs": [
        {
          "internalType": "bytes32",
          "name": "",
          "type": "bytes32"
        }
      ],
      "stateMutability": "view",
      "type": "function"
    },
    {
      "inputs": [],
      "name": "flashMintFee",
      "outputs": [
        {
          "internalType": "uint256",
          "name": "",
          "type": "uint256"
        }
      ],
      "stateMutability": "view",
      "type": "function"
    },
    {
      "inputs": [
        {
          "internalType": "uint16",
          "name": "_srcChainId",
          "type": "uint16"
        },
        {
          "internalType": "bytes",
          "name": "_srcAddress",
          "type": "bytes"
        }
      ],
      "name": "forceResumeReceive",
      "outputs": [],
      "stateMutability": "nonpayable",
      "type": "function"
    },
    {
      "inputs": [
        {
          "internalType": "uint16",
          "name": "_version",
          "type": "uint16"
        },
        {
          "internalType": "uint16",
          "name": "_chainId",
          "type": "uint16"
        },
        {
          "internalType": "address",
          "name": "",
          "type": "address"
        },
        {
          "internalType": "uint256",
          "name": "_configType",
          "type": "uint256"
        }
      ],
      "name": "getConfig",
      "outputs": [
        {
          "internalType": "bytes",
          "name": "",
          "type": "bytes"
        }
      ],
      "stateMutability": "view",
      "type": "function"
    },
    {
      "inputs": [
        {
          "internalType": "uint16",
          "name": "_remoteChainId",
          "type": "uint16"
        }
      ],
      "name": "getTrustedRemoteAddress",
      "outputs": [
        {
          "internalType": "bytes",
          "name": "",
          "type": "bytes"
        }
      ],
      "stateMutability": "view",
      "type": "function"
    },
    {
      "inputs": [
        {
          "internalType": "address",
          "name": "spender",
          "type": "address"
        },
        {
          "internalType": "uint256",
          "name": "addedValue",
          "type": "uint256"
        }
      ],
      "name": "increaseAllowance",
      "outputs": [
        {
          "internalType": "bool",
          "name": "",
          "type": "bool"
        }
      ],
      "stateMutability": "nonpayable",
      "type": "function"
    },
    {
      "inputs": [
        {
          "internalType": "uint16",
          "name": "_srcChainId",
          "type": "uint16"
        },
        {
          "internalType": "bytes",
          "name": "_srcAddress",
          "type": "bytes"
        }
      ],
      "name": "isTrustedRemote",
      "outputs": [
        {
          "internalType": "bool",
          "name": "",
          "type": "bool"
        }
      ],
      "stateMutability": "view",
      "type": "function"
    },
    {
      "inputs": [],
      "name": "lzEndpoint",
      "outputs": [
        {
          "internalType": "contract ILayerZeroEndpoint",
          "name": "",
          "type": "address"
        }
      ],
      "stateMutability": "view",
      "type": "function"
    },
    {
      "inputs": [
        {
          "internalType": "uint16",
          "name": "_srcChainId",
          "type": "uint16"
        },
        {
          "internalType": "bytes",
          "name": "_srcAddress",
          "type": "bytes"
        },
        {
          "internalType": "uint64",
          "name": "_nonce",
          "type": "uint64"
        },
        {
          "internalType": "bytes",
          "name": "_payload",
          "type": "bytes"
        }
      ],
      "name": "lzReceive",
      "outputs": [],
      "stateMutability": "nonpayable",
      "type": "function"
    },
    {
      "inputs": [],
      "name": "maxFlashMint",
      "outputs": [
        {
          "internalType": "uint256",
          "name": "",
          "type": "uint256"
        }
      ],
      "stateMutability": "view",
      "type": "function"
    },
    {
      "inputs": [
        {
          "internalType": "uint16",
          "name": "",
          "type": "uint16"
        },
        {
          "internalType": "uint16",
          "name": "",
          "type": "uint16"
        }
      ],
      "name": "minDstGasLookup",
      "outputs": [
        {
          "internalType": "uint256",
          "name": "",
          "type": "uint256"
        }
      ],
      "stateMutability": "view",
      "type": "function"
    },
    {
      "inputs": [],
      "name": "name",
      "outputs": [
        {
          "internalType": "string",
          "name": "",
          "type": "string"
        }
      ],
      "stateMutability": "view",
      "type": "function"
    },
    {
      "inputs": [
        {
          "internalType": "uint16",
          "name": "_srcChainId",
          "type": "uint16"
        },
        {
          "internalType": "bytes",
          "name": "_srcAddress",
          "type": "bytes"
        },
        {
          "internalType": "uint64",
          "name": "_nonce",
          "type": "uint64"
        },
        {
          "internalType": "bytes",
          "name": "_payload",
          "type": "bytes"
        }
      ],
      "name": "nonblockingLzReceive",
      "outputs": [],
      "stateMutability": "nonpayable",
      "type": "function"
    },
    {
      "inputs": [],
      "name": "owner",
      "outputs": [
        {
          "internalType": "address",
          "name": "",
          "type": "address"
        }
      ],
      "stateMutability": "view",
      "type": "function"
    },
    {
      "inputs": [],
      "name": "paused",
      "outputs": [
        {
          "internalType": "bool",
          "name": "",
          "type": "bool"
        }
      ],
      "stateMutability": "view",
      "type": "function"
    },
    {
      "inputs": [
        {
          "internalType": "uint16",
          "name": "",
          "type": "uint16"
        }
      ],
      "name": "payloadSizeLimitLookup",
      "outputs": [
        {
          "internalType": "uint256",
          "name": "",
          "type": "uint256"
        }
      ],
      "stateMutability": "view",
      "type": "function"
    },
    {
      "inputs": [],
      "name": "precrime",
      "outputs": [
        {
          "internalType": "address",
          "name": "",
          "type": "address"
        }
      ],
      "stateMutability": "view",
      "type": "function"
    },
    {
      "inputs": [],
      "name": "renounceOwnership",
      "outputs": [],
      "stateMutability": "nonpayable",
      "type": "function"
    },
    {
      "inputs": [
        {
          "internalType": "uint16",
          "name": "_srcChainId",
          "type": "uint16"
        },
        {
          "internalType": "bytes",
          "name": "_srcAddress",
          "type": "bytes"
        },
        {
          "internalType": "uint64",
          "name": "_nonce",
          "type": "uint64"
        },
        {
          "internalType": "bytes",
          "name": "_payload",
          "type": "bytes"
        }
      ],
      "name": "retryMessage",
      "outputs": [],
      "stateMutability": "payable",
      "type": "function"
    },
    {
      "inputs": [
        {
          "internalType": "address",
          "name": "_from",
          "type": "address"
        },
        {
          "internalType": "uint16",
          "name": "_dstChainId",
          "type": "uint16"
        },
        {
          "internalType": "bytes32",
          "name": "_toAddress",
          "type": "bytes32"
        },
        {
          "internalType": "uint256",
          "name": "_amount",
          "type": "uint256"
        },
        {
          "internalType": "bytes",
          "name": "_payload",
          "type": "bytes"
        },
        {
          "internalType": "uint64",
          "name": "_dstGasForCall",
          "type": "uint64"
        },
        {
          "components": [
            {
              "internalType": "address payable",
              "name": "refundAddress",
              "type": "address"
            },
            {
              "internalType": "address",
              "name": "zroPaymentAddress",
              "type": "address"
            },
            {
              "internalType": "bytes",
              "name": "adapterParams",
              "type": "bytes"
            }
          ],
          "internalType": "struct ICommonOFT.LzCallParams",
          "name": "_callParams",
          "type": "tuple"
        }
      ],
      "name": "sendAndCall",
      "outputs": [],
      "stateMutability": "payable",
      "type": "function"
    },
    {
      "inputs": [
        {
          "internalType": "address",
          "name": "_from",
          "type": "address"
        },
        {
          "internalType": "uint16",
          "name": "_dstChainId",
          "type": "uint16"
        },
        {
          "internalType": "bytes32",
          "name": "_toAddress",
          "type": "bytes32"
        },
        {
          "internalType": "uint256",
          "name": "_amount",
          "type": "uint256"
        },
        {
          "components": [
            {
              "internalType": "address payable",
              "name": "refundAddress",
              "type": "address"
            },
            {
              "internalType": "address",
              "name": "zroPaymentAddress",
              "type": "address"
            },
            {
              "internalType": "bytes",
              "name": "adapterParams",
              "type": "bytes"
            }
          ],
          "internalType": "struct ICommonOFT.LzCallParams",
          "name": "_callParams",
          "type": "tuple"
        }
      ],
      "name": "sendFrom",
      "outputs": [],
      "stateMutability": "payable",
      "type": "function"
    },
    {
      "inputs": [
        {
          "internalType": "bytes",
          "name": "_payload",
          "type": "bytes"
        }
      ],
      "name": "sendFromDestination",
      "outputs": [],
      "stateMutability": "nonpayable",
      "type": "function"
    },
    {
      "inputs": [
        {
          "internalType": "uint16",
          "name": "_version",
          "type": "uint16"
        },
        {
          "internalType": "uint16",
          "name": "_chainId",
          "type": "uint16"
        },
        {
          "internalType": "uint256",
          "name": "_configType",
          "type": "uint256"
        },
        {
          "internalType": "bytes",
          "name": "_config",
          "type": "bytes"
        }
      ],
      "name": "setConfig",
      "outputs": [],
      "stateMutability": "nonpayable",
      "type": "function"
    },
    {
      "inputs": [
        {
          "internalType": "uint16",
          "name": "_dstChainId",
          "type": "uint16"
        },
        {
          "internalType": "uint16",
          "name": "_packetType",
          "type": "uint16"
        },
        {
          "internalType": "uint256",
          "name": "_minGas",
          "type": "uint256"
        }
      ],
      "name": "setMinDstGas",
      "outputs": [],
      "stateMutability": "nonpayable",
      "type": "function"
    },
    {
      "inputs": [
        {
          "internalType": "uint16",
          "name": "_dstChainId",
          "type": "uint16"
        },
        {
          "internalType": "uint256",
          "name": "_size",
          "type": "uint256"
        }
      ],
      "name": "setPayloadSizeLimit",
      "outputs": [],
      "stateMutability": "nonpayable",
      "type": "function"
    },
    {
      "inputs": [
        {
          "internalType": "address",
          "name": "_precrime",
          "type": "address"
        }
      ],
      "name": "setPrecrime",
      "outputs": [],
      "stateMutability": "nonpayable",
      "type": "function"
    },
    {
      "inputs": [
        {
          "internalType": "uint16",
          "name": "_version",
          "type": "uint16"
        }
      ],
      "name": "setReceiveVersion",
      "outputs": [],
      "stateMutability": "nonpayable",
      "type": "function"
    },
    {
      "inputs": [
        {
          "internalType": "uint16",
          "name": "_version",
          "type": "uint16"
        }
      ],
      "name": "setSendVersion",
      "outputs": [],
      "stateMutability": "nonpayable",
      "type": "function"
    },
    {
      "inputs": [
        {
          "internalType": "uint16",
          "name": "_srcChainId",
          "type": "uint16"
        },
        {
          "internalType": "bytes",
          "name": "_path",
          "type": "bytes"
        }
      ],
      "name": "setTrustedRemote",
      "outputs": [],
      "stateMutability": "nonpayable",
      "type": "function"
    },
    {
      "inputs": [
        {
          "internalType": "uint16",
          "name": "_remoteChainId",
          "type": "uint16"
        },
        {
          "internalType": "bytes",
          "name": "_remoteAddress",
          "type": "bytes"
        }
      ],
      "name": "setTrustedRemoteAddress",
      "outputs": [],
      "stateMutability": "nonpayable",
      "type": "function"
    },
    {
      "inputs": [
        {
          "internalType": "bool",
          "name": "_useCustomAdapterParams",
          "type": "bool"
        }
      ],
      "name": "setUseCustomAdapterParams",
      "outputs": [],
      "stateMutability": "nonpayable",
      "type": "function"
    },
    {
      "inputs": [],
      "name": "sharedDecimals",
      "outputs": [
        {
          "internalType": "uint8",
          "name": "",
          "type": "uint8"
        }
      ],
      "stateMutability": "view",
      "type": "function"
    },
    {
      "inputs": [
        {
          "internalType": "bytes4",
          "name": "interfaceId",
          "type": "bytes4"
        }
      ],
      "name": "supportsInterface",
      "outputs": [
        {
          "internalType": "bool",
          "name": "",
          "type": "bool"
        }
      ],
      "stateMutability": "view",
      "type": "function"
    },
    {
      "inputs": [],
      "name": "symbol",
      "outputs": [
        {
          "internalType": "string",
          "name": "",
          "type": "string"
        }
      ],
      "stateMutability": "view",
      "type": "function"
    },
    {
      "inputs": [],
      "name": "token",
      "outputs": [
        {
          "internalType": "address",
          "name": "",
          "type": "address"
        }
      ],
      "stateMutability": "view",
      "type": "function"
    },
    {
      "inputs": [],
      "name": "totalSupply",
      "outputs": [
        {
          "internalType": "uint256",
          "name": "",
          "type": "uint256"
        }
      ],
      "stateMutability": "view",
      "type": "function"
    },
    {
      "inputs": [
        {
          "internalType": "address",
          "name": "to",
          "type": "address"
        },
        {
          "internalType": "uint256",
          "name": "amount",
          "type": "uint256"
        }
      ],
      "name": "transfer",
      "outputs": [
        {
          "internalType": "bool",
          "name": "",
          "type": "bool"
        }
      ],
      "stateMutability": "nonpayable",
      "type": "function"
    },
    {
      "inputs": [
        {
          "internalType": "address",
          "name": "from",
          "type": "address"
        },
        {
          "internalType": "address",
          "name": "to",
          "type": "address"
        },
        {
          "internalType": "uint256",
          "name": "amount",
          "type": "uint256"
        }
      ],
      "name": "transferFrom",
      "outputs": [
        {
          "internalType": "bool",
          "name": "",
          "type": "bool"
        }
      ],
      "stateMutability": "nonpayable",
      "type": "function"
    },
    {
      "inputs": [
        {
          "internalType": "address",
          "name": "newOwner",
          "type": "address"
        }
      ],
      "name": "transferOwnership",
      "outputs": [],
      "stateMutability": "nonpayable",
      "type": "function"
    },
    {
      "inputs": [
        {
          "internalType": "uint16",
          "name": "lzDstChainId",
          "type": "uint16"
        },
        {
          "internalType": "bytes",
          "name": "airdropAdapterParams",
          "type": "bytes"
        },
        {
          "internalType": "address",
          "name": "zroPaymentAddress",
          "type": "address"
        },
        {
          "internalType": "uint256",
          "name": "amount",
          "type": "uint256"
        },
        {
          "components": [
            {
              "internalType": "address payable",
              "name": "refundAddress",
              "type": "address"
            },
            {
              "internalType": "address",
              "name": "zroPaymentAddress",
              "type": "address"
            },
            {
              "internalType": "bytes",
              "name": "adapterParams",
              "type": "bytes"
            }
          ],
          "internalType": "struct ISendFrom.LzCallParams",
          "name": "sendFromData",
          "type": "tuple"
        },
        {
          "components": [
            {
              "internalType": "bool",
              "name": "permitAll",
              "type": "bool"
            },
            {
              "internalType": "bool",
              "name": "allowFailure",
              "type": "bool"
            },
            {
              "internalType": "address",
              "name": "target",
              "type": "address"
            },
            {
              "internalType": "bool",
              "name": "permitBorrow",
              "type": "bool"
            },
            {
              "internalType": "address",
              "name": "owner",
              "type": "address"
            },
            {
              "internalType": "address",
              "name": "spender",
              "type": "address"
            },
            {
              "internalType": "uint256",
              "name": "value",
              "type": "uint256"
            },
            {
              "internalType": "uint256",
              "name": "deadline",
              "type": "uint256"
            },
            {
              "internalType": "uint8",
              "name": "v",
              "type": "uint8"
            },
            {
              "internalType": "bytes32",
              "name": "r",
              "type": "bytes32"
            },
            {
              "internalType": "bytes32",
              "name": "s",
              "type": "bytes32"
            }
          ],
          "internalType": "struct ICommonData.IApproval[]",
          "name": "approvals",
          "type": "tuple[]"
        }
      ],
      "name": "triggerSendFrom",
      "outputs": [],
      "stateMutability": "payable",
      "type": "function"
    },
    {
      "inputs": [
        {
          "internalType": "uint16",
          "name": "",
          "type": "uint16"
        }
      ],
      "name": "trustedRemoteLookup",
      "outputs": [
        {
          "internalType": "bytes",
          "name": "",
          "type": "bytes"
        }
      ],
      "stateMutability": "view",
      "type": "function"
    },
    {
      "inputs": [],
      "name": "useCustomAdapterParams",
      "outputs": [
        {
          "internalType": "bool",
          "name": "",
          "type": "bool"
        }
      ],
      "stateMutability": "view",
      "type": "function"
    },
    {
      "inputs": [],
      "name": "yieldBox",
      "outputs": [
        {
          "internalType": "contract IYieldBoxBase",
          "name": "",
          "type": "address"
        }
      ],
      "stateMutability": "view",
      "type": "function"
    },
    {
      "stateMutability": "payable",
      "type": "receive"
    }
  ],
  "bytecode": "0x61010060409080825234620004fc5760608162005c89803803809162000026828562000501565b833981010312620004fc5780516001600160a01b039182821691829003620004fc57602080820151918483168303620004fc5785015193808516809503620004fc57620000726200053b565b906200007d6200053b565b60008054336001600160a01b03198083168217845598929493929184167f8be0079c531659141344cd1fd0a4f28419497f9722a3daafe3b4186f6b6457e08680a3608052600860a05283516001600160401b03918282116200040357600b54916001968784811c94168015620004f1575b89851014620004dd578190601f9485811162000489575b5089908583116001146200042357889262000417575b5050600019600383901b1c191690871b17600b555b80519283116200040357600c548681811c91168015620003f8575b88821014620003e45790818389959493116200038c575b50839183116001146200032157600494929186918362000315575b5050600019600383901b1c191690861b17600c555b6402540be40060c052608051168951928380926303408e4760e41b82525afa9081156200030b57908291899391620002c0575b5061ffff1693848252600f815282822033835281528282209460ff1995858782541617905582526010815282822090338352522091825416179055600a60125569152d02c7e14af680000060135560e052600d541617600d555161571c90816200056d82396080518181816104e0015281816107a3015281816108e001528181610a5a01528181610c230152818161134d015281816120cd01528181612246015281816126d401528181612b7601528181614393015261494f015260a05181611a27015260c05181818161186a0152818161200101528181614b7c01528181614ddd01528181614f87015261501f015260e051816124c20152f35b80929350858092503d831162000303575b620002dd818362000501565b81010312620002ff575161ffff81168103620002ff5787919061ffff620001c5565b5080fd5b503d620002d1565b88513d84823e3d90fd5b0151905038806200017d565b93918691601f19821690600c885285882091885b81811062000373575096836004981062000359575b505050811b01600c5562000192565b015160001960f88460031b161c191690553880806200034a565b8289015184558b978b9690940193928301920162000335565b9091929350600c86528786208380860160051c8201928a8710620003da575b9189918b97969594930160051c01915b828110620003cb57505062000162565b8881558a9650899101620003bb565b92508192620003ab565b634e487b7160e01b86526022600452602486fd5b90607f16906200014b565b634e487b7160e01b85526041600452602485fd5b0151905038806200011b565b600b89528a89208a94509190601f1984168a5b8d82821062000472575050841162000458575b505050811b01600b5562000130565b015160001960f88460031b161c1916905538808062000449565b8385015186558d9790950194938401930162000436565b909150600b88528988208580850160051c8201928c8610620004d3575b918b91869594930160051c01915b828110620004c457505062000105565b8a81558594508b9101620004b4565b92508192620004a6565b634e487b7160e01b87526022600452602487fd5b93607f1693620000ee565b600080fd5b601f909101601f19168101906001600160401b038211908210176200052557604052565b634e487b7160e01b600052604160045260246000fd5b60408051919082016001600160401b03811183821017620005255760405260048252635553444f60e01b602083015256fe6080604052600436101561001b575b361561001957600080fd5b005b60003560e01c80621d35671461041057806301ffc9a71461040b57806306fdde031461040657806307e0db1714610401578063095ea7b3146103fc5780630df37483146103f757806310ddb137146103f257806318160ddd1461037f57806323b872dd146103ed578063313ce567146103e8578063365260b4146103e357806339509351146103de5780633d8b38f6146103d95780633f1f4fa4146103d457806342d65a8d146103cf57806344770515146103c55780634842539e146103ca5780634c42899a146103c55780635b8c41e6146103c05780635c975abb146103bb57806366ad5c8a146103b6578063695ef6bf146103b15780636cb2c958146103ac57806370a08231146103a7578063715018a6146103a25780637533d7881461039d57806376203b481461039857806381618d0514610393578063857749b01461038e5780638cfd8f5c146103895780638da5cb5b146103845780639358928b1461037f578063940a1dc01461037a578063950c8a741461037557806395d89b41146103705780639bdb98121461036b5780639d3f4d1a146103665780639f38369a14610361578063a457c2d71461035c578063a4c51df514610357578063a6c3d16514610352578063a9059cbb1461034d578063af2ee97514610348578063b353aaa714610343578063ba03a8d71461033e578063baf3292d14610339578063c446183414610334578063cbed8b9c1461032f578063ce8849ed1461032a578063d1deba1f14610325578063dbd01de114610320578063dd62ed3e1461031b578063de40657714610316578063df2a5b3b14610311578063e6a20ae61461030c578063e8d4d99114610307578063eab45d9c14610302578063eaffd49a146102fd578063eb8d72b7146102f8578063ec6d062b146102f3578063ed629c5c146102ee578063f2fde38b146102e9578063f5ecbdbc146102e45763fc0c546a0361000e57612be0565b612b0c565b612a57565b612a34565b6129fc565b6128d3565b61284a565b6127e8565b61261e565b6125de565b6124f1565b6124ac565b612462565b612439565b612301565b6122d8565b6121f2565b6121d5565b612165565b61212d565b6120b7565b611f9f565b611f75565b611e13565b611d7c565b611cd0565b611c2d565b611c0f565b611bc4565b611b20565b611af7565b611ad9565b610941565b611ab0565b611a4b565b611a0d565b611799565b611602565b6115ab565b611477565b61143a565b6112ab565b611197565b6110f2565b6110cf565b61107b565b610c8a565b610eb1565b610c09565b610bd0565b610b60565b610ad8565b6109d0565b61099f565b61095f565b6108b7565b610878565b610843565b61077a565b61069a565b6105dd565b6104c9565b61ffff81160361042157565b600080fd5b9181601f84011215610421578235916001600160401b038311610421576020838186019501011161042157565b6001600160401b0381160361042157565b9060806003198301126104215760043561047d81610415565b916001600160401b0390602435828111610421578161049e91600401610426565b939093926044356104ae81610453565b92606435918211610421576104c591600401610426565b9091565b34610421576104d736610464565b929493919291907f00000000000000000000000000000000000000000000000000000000000000006001600160a01b031633036105985761055d610565926100199761055661053c6105378a61ffff166000526001602052604060002090565b611590565b805190818414918261058e575b508161056b575b5061429c565b3691610fa7565b923691610fa7565b926146f0565b9050610578368486610fa7565b6020815191012090602081519101201438610550565b1515915038610549565b60405162461bcd60e51b815260206004820152601e60248201527f4c7a4170703a20696e76616c696420656e64706f696e742063616c6c657200006044820152606490fd5b346104215760203660031901126104215760043563ffffffff60e01b811680910361042157602090631f7ecdf760e01b8114908115610622575b506040519015158152f35b6301ffc9a760e01b14905038610617565b600091031261042157565b60005b8381106106515750506000910152565b8181015183820152602001610641565b9060209161067a8151809281855285808601910161063e565b601f01601f1916010190565b906020610697928181520190610661565b90565b34610421576000806003193601126107775760405181600b546106bc816114c0565b8084529060019081811690811561074f57506001146106f6575b6106f2846106e681880382610d25565b60405191829182610686565b0390f35b600b8352602094507f0175b7a638427703f0dbe7bb9bbf987a2551717b34e79f33b5b1008d1fa01db95b82841061073c57505050816106f2936106e692820101936106d6565b8054858501870152928501928101610720565b6106f296506106e69450602092508593915060ff191682840152151560051b820101936106d6565b80fd5b3461042157600060203660031901126107775760043561079981610415565b6107a1612bfb565b7f00000000000000000000000000000000000000000000000000000000000000006001600160a01b0316908290823b1561081557602461ffff918360405195869485936307e0db1760e01b85521660048401525af1801561081057610804575080f35b61080d90610cbc565b80f35b612fdd565b5080fd5b6001600160a01b031690565b6001600160a01b0381160361042157565b359061084182610825565b565b346104215760403660031901126104215761086d60043561086381610825565b6024359033612e14565b602060405160018152f35b346104215760403660031901126104215761ffff60043561089881610415565b6108a0612bfb565b166000526003602052602435604060002055600080f35b346104215760006020366003190112610777576004356108d681610415565b6108de612bfb565b7f00000000000000000000000000000000000000000000000000000000000000006001600160a01b0316908290823b1561081557602461ffff918360405195869485936310ddb13760e01b85521660048401525af1801561081057610804575080f35b34610421576000366003190112610421576020600a54604051908152f35b346104215760603660031901126104215761086d60043561097f81610825565b60243561098b81610825565b6044359161099a833383612f2d565b612d45565b3461042157600036600319011261042157602060405160128152f35b8015150361042157565b3590610841826109bb565b346104215760a0366003190112610421576004356109ed81610415565b606435906109fa826109bb565b608435906001600160401b03821161042157610a1f6105566040933690600401610426565b90610a56610a39610a31604435614f85565b602435615054565b928451958694859463040a7bb160e41b8652309060048701614ad9565b03817f00000000000000000000000000000000000000000000000000000000000000006001600160a01b03165afa908115610810576000908192610aa7575b50604080519182526020820192909252f35b9050610aca915060403d8111610ad1575b610ac28183610d25565b810190614ac3565b9038610a95565b503d610ab8565b3461042157604036600319011261042157600435610af581610825565b336000526009602052610b0c816040600020612116565b546024358101809111610b235761086d9133612e14565b612c53565b90604060031983011261042157600435610b4181610415565b91602435906001600160401b038211610421576104c591600401610426565b3461042157602061ffff610bad610b7636610b28565b9390911660005260018452610b98610b9f6040600020604051928380926114fa565b0382610d25565b848151910120923691610fa7565b82815191012014604051908152f35b61ffff166000526007602052604060002090565b346104215760203660031901126104215761ffff600435610bf081610415565b1660005260036020526020604060002054604051908152f35b3461042157610c1736610b28565b9190610c21612bfb565b7f00000000000000000000000000000000000000000000000000000000000000006001600160a01b031691823b1561042157604051928380926342d65a8d60e01b825281610c786000988997889460048501614681565b03925af1801561081057610804575080f35b3461042157600036600319011261042157602060405160008152f35b634e487b7160e01b600052604160045260246000fd5b6001600160401b038111610ccf57604052565b610ca6565b60c081019081106001600160401b03821117610ccf57604052565b606081019081106001600160401b03821117610ccf57604052565b604081019081106001600160401b03821117610ccf57604052565b601f909101601f19168101906001600160401b03821190821017610ccf57604052565b6040519061016082016001600160401b03811183821017610ccf57604052565b6040519061084182610cef565b6001600160401b038111610ccf5760051b60200190565b60ff81160361042157565b359061084182610d8c565b81601f8201121561042157803590610db982610d75565b92604090610dc982519586610d25565b838552602091828601918361016080970286010194818611610421578401925b858410610dfa575050505050505090565b868483031261042157848791610e0e610d48565b610e17876109c5565b8152610e248388016109c5565b83820152610e33868801610836565b868201526060610e448189016109c5565b908201526080610e55818901610836565b9082015260a0610e66818901610836565b9082015260c0808801359082015260e08088013590820152610100610e8c818901610d97565b9082015261012080880135908201526101408088013590820152815201930192610de9565b34610421576101a036600319011261042157600435610ecf81610825565b60443590610edc82610825565b60843591610ee983610825565b60c03660a319011261042157604051610f0181610cd4565b60a435610f0d816109bb565b815260c435610f1b81610825565b602082015260e435610f2c81610415565b604082015261010435606082015261012435610f4781610825565b60808201526101443560a082015261018435936001600160401b03851161042157610f79610019953690600401610da2565b9361016435936064359160243590614014565b6001600160401b038111610ccf57601f01601f191660200190565b929192610fb382610f8c565b91610fc16040519384610d25565b829481845281830111610421578281602093846000960137010152565b9080601f830112156104215781602061069793359101610fa7565b9060606003198301126104215760043561101281610415565b91602435906001600160401b0382116104215761103191600401610fde565b9060443561069781610453565b60209061105892826040519483868095519384920161063e565b82019081520301902090565b9060018060401b0316600052602052604060002090565b346104215760206110c661ffff6110b88361109536610ff9565b94909116600052600582526040600020826040519483868095519384920161063e565b820190815203019020611064565b54604051908152f35b3461042157600036600319011261042157602060ff601154166040519015158152f35b346104215761110036610464565b91929493903033036111245761055d61111e92610019973691610fa7565b92614b1d565b60405162461bcd60e51b815260206004820152602660248201527f4e6f6e626c6f636b696e674c7a4170703a2063616c6c6572206d7573742062656044820152650204c7a4170760d41b6064820152608490fd5b60609060c31901126104215760c490565b908160609103126104215790565b60a0366003190112610421576004356111af81610825565b6024356111bb81610415565b604435916084356001600160401b03811161042157602061ffff6111f2600080516020615627833981519152933690600401611189565b93611265853561120181610825565b61121f61055686890135986112158a610825565b60408101906148cd565b611229818a614f20565b61123e61123760643561501d565b5085615212565b9761124a891515614cd2565b61125c6112568a614f85565b8c615054565b9234938b61434f565b6040519485526001600160a01b0316941692a4005b9181601f84011215610421578235916001600160401b03831161042157602080850194610160850201011161042157565b60c0366003190112610421576004356112c381610415565b6001600160401b03602435818111610421576112e3903690600401610426565b90916044356112f181610825565b60843582811161042157611309903690600401611189565b9160a4359081116104215761132290369060040161127a565b9461133761133160643561501d565b50614f85565b6040516303408e4760e41b8152906020826004817f00000000000000000000000000000000000000000000000000000000000000006001600160a01b03165afa918215610810576113db986113d2956113b5946113a79360009161140c575b50604051998a953360208801613104565b03601f198101865285610d25565b6113c96113c3368784610fa7565b88614560565b34943691610fa7565b9133908661434f565b60405190339160008051602061562783398151915261ffff339316918061140781906000602083019252565b0390a4005b61142d915060203d8111611433575b6114258183610d25565b810190612fc8565b38611396565b503d61141b565b346104215760203660031901126104215760043561145781610825565b60018060a01b031660005260086020526020604060002054604051908152f35b346104215760008060031936011261077757611491612bfb565b80546001600160a01b03198116825581906001600160a01b03166000805160206156878339815191528280a380f35b90600182811c921680156114f0575b60208310146114da57565b634e487b7160e01b600052602260045260246000fd5b91607f16916114cf565b906000929180549161150b836114c0565b91828252600193848116908160001461156d575060011461152d575b50505050565b90919394506000526020928360002092846000945b838610611559575050505001019038808080611527565b805485870183015294019385908201611542565b9294505050602093945060ff191683830152151560051b01019038808080611527565b906108416115a492604051938480926114fa565b0383610d25565b346104215760203660031901126104215761ffff6004356115cb81610415565b1660005260016020526106f2610b986115ee6040600020604051928380926114fa565b604051918291602083526020830190610661565b60e03660031901126104215760043561161a81610825565b60243561162681610415565b604435916001600160401b03906084358281116104215761164b903690600401610426565b91909260a43561165a81610453565b60c43582811161042157611672903690600401611189565b90866116aa83359661168388610825565b6116a261169860208701359661121588610825565b9a90923691610fa7565b983691610fa7565b9360ff6006541660001461171757936020959361125c846116e56000805160206156278339815191529a958561ffff9a61126599169161459e565b6116fa6116f360643561501d565b5088615212565b9a6117068c1515614cd2565b8d6117108d614f85565b90336150cf565b50508293919251611745576000805160206156278339815191529460209461ffff9461125c611265946116e5565b60405162461bcd60e51b815260206004820152602660248201527f4f4654436f72653a205f61646170746572506172616d73206d7573742062652060448201526532b6b83a3c9760d11b6064820152608490fd5b346104215760a0366003190112610421576117b5600435610825565b6024356117c181610415565b6001600160401b03604435818111610421576117e1903690600401610fde565b906117ed606435610453565b608435908082116104215761196a61ffff9161181c600080516020615667833981519152943690600401610fde565b6001600160a01b0360043516600090815260146020526040902061184b90611846905b5460ff1690565b613b51565b6118906118616020835184010160208401613c0a565b959350939190957f0000000000000000000000000000000000000000000000000000000000000000911661500a565b97604085019889526000806118a4306120fc565b54958c8c6118cf6118cb61183f6064356118c66118c087610bbc565b8b61103e565b611064565b1590565b6119d2575b90506119486118e2306120fc565b549761193a6118f18c51610819565b948c6060810151936119066080830151610819565b96611919602060a0850151940151610819565b905192604051988997602089019b63242129cf60e11b8d5260248a01613d99565b03601f198101835282610d25565b51906004355af492611958613668565b931561198b575b505050505051610819565b92516040519081526001600160a01b0390931693169180602081015b0390a3005b6119ae9461199891613e43565b8951809110156119b8575b50606435908a614776565b388080808061195f565b6119cc906119c68751610819565b30613e50565b386119a3565b611a06916119e46119f9925130615328565b6118c66119f360643592610bbc565b8861103e565b805460ff19166001179055565b8c8c6118d4565b3461042157600036600319011261042157602060405160ff7f0000000000000000000000000000000000000000000000000000000000000000168152f35b346104215760403660031901126104215760206110c6600435611a6d81610415565b61ffff60243591611a7d83610415565b166000526002835260406000209061ffff16600052602052604060002090565b6001600160a01b03909116815260200190565b34610421576000366003190112610421576000546040516001600160a01b039091168152602090f35b34610421576000366003190112610421576020601254604051908152f35b34610421576000366003190112610421576004546040516001600160a01b039091168152602090f35b34610421576000806003193601126107775760405181600c54611b42816114c0565b8084529060019081811690811561074f5750600114611b6b576106f2846106e681880382610d25565b600c8352602094507fdf6966c971051c3d54ec59162606531493a51404a002842f56009d7e5cf4a8c75b828410611bb157505050816106f2936106e692820101936106d6565b8054858501870152928501928101611b95565b3461042157602060ff611c0361ffff6110b884611be036610ff9565b94909116600052600782526040600020826040519483868095519384920161063e565b54166040519015158152f35b34610421576000366003190112610421576020601354604051908152f35b346104215760203660031901126104215761ffff600435611c4d81610415565b166000526001602052610b98611c6d6040600020604051928380926114fa565b805115611c8b576106e681611c856106f29351613e25565b9061542c565b60405162461bcd60e51b815260206004820152601d60248201527f4c7a4170703a206e6f20747275737465642070617468207265636f72640000006044820152606490fd5b3461042157604036600319011261042157600435611ced81610825565b60243590336000526009602052611d08816040600020612116565b5491808310611d2957611d1d92039033612e14565b60405160018152602090f35b60405162461bcd60e51b815260206004820152602560248201527f45524332303a2064656372656173656420616c6c6f77616e63652062656c6f77604482015264207a65726f60d81b6064820152608490fd5b346104215760e036600319011261042157600435611d9981610415565b6001600160401b039060643582811161042157611dba903690600401610426565b608492919235611dc981610453565b60a43591611dd6836109bb565b60c43595861161042157611df1611e01963690600401610426565b95909460443590602435906148ff565b60408051928352602083019190915290f35b3461042157611e2136610b28565b90611e2a612bfb565b60405192602092808385870137611e566034868381013060601b88820152036014810188520186610d25565b61ffff8216600090815260018086526040822087519296909291906001600160401b038311610ccf57611e9383611e8d86546114c0565b8661469c565b80601f8411600114611ef1575091808092611ee09695948a9b6000805160206156478339815191529b94611ee6575b50501b916000199060031b1c19161790555b60405193849384614681565b0390a180f35b015192503880611ec2565b91939498601f198416611f0987600052602060002090565b938a905b828210611f5e57505091600080516020615647833981519152999a95939185611ee098969410611f45575b505050811b019055611ed4565b015160001960f88460031b161c19169055388080611f38565b808886978294978701518155019601940190611f0d565b346104215760403660031901126104215761086d600435611f9581610825565b6024359033612d45565b34610421576020366003190112610421576001600160401b0360043581811161042157611fe5611fd6612027923690600401610fde565b60208082518301019101613455565b9694509491909260018060a01b03169580516120a8575b5047937f0000000000000000000000000000000000000000000000000000000000000000911661500a565b90303b156104215760405163695ef6bf60e01b815292600092849283918291612056918a8a816004870161351e565b0391305af180156108105761208f575b5060008051602061566783398151915261ffff6040519216918061198681906000602083019252565b8061209c6120a292610cbc565b80610633565b38612066565b6120b190613698565b38611ffc565b34610421576000366003190112610421576040517f00000000000000000000000000000000000000000000000000000000000000006001600160a01b03168152602090f35b6001600160a01b0316600090815260086020526040902090565b9060018060a01b0316600052602052604060002090565b3461042157604036600319011261042157602060ff611c0360243561215181610825565b600435600052600f84526040600020612116565b34610421576020366003190112610421577f5db758e995a17ec1ad84bdef7e8c3293a0bd6179bcce400dff5d4c3d87db726b60206004356121a581610825565b6121ad612bfb565b600480546001600160a01b0319166001600160a01b03929092169182179055604051908152a1005b346104215760003660031901126104215760206040516127108152f35b346104215760803660031901126104215760043561220f81610415565b60243561221b81610415565b6064356001600160401b0381116104215761223a903690600401610426565b9092612244612bfb565b7f00000000000000000000000000000000000000000000000000000000000000006001600160a01b031690813b1561042157600080946122bb604051978896879586946332fb62e760e21b865261ffff80921660048701521660248501526044356044850152608060648501526084840191612fe9565b03925af18015610810576122cb57005b8061209c61001992610cbc565b3461042157600036600319011261042157600e546040516001600160a01b039091168152602090f35b61230a36610464565b9161ffff8694929616600052600560205261233e81604060002060206040518092878b833787820190815203019020611064565b549182156123e8576123d784836123d07fc264d91f3adc5588250e1551f547752ca0cfa8f6b530d243b9f9f4cab10ea8e59a60006123bc846118c68e8a8f6123e39f908f6123a2906123956123b69436908d610fa7565b6020815191012014614840565b61ffff166000526005602052604060002090565b91614827565b556123c836878d610fa7565b933691610fa7565b9188614b1d565b60405195869586614896565b0390a1005b60405162461bcd60e51b815260206004820152602360248201527f4e6f6e626c6f636b696e674c7a4170703a206e6f2073746f726564206d65737360448201526261676560e81b6064820152608490fd5b3461042157600036600319011261042157600d546040516001600160a01b039091168152602090f35b346104215760403660031901126104215760206110c660043561248481610825565b6024359061249182610825565b6001600160a01b031660009081526009845260409020612116565b34610421576000366003190112610421576040517f00000000000000000000000000000000000000000000000000000000000000006001600160a01b03168152602090f35b346104215760603660031901126104215760043561250e81610415565b60243561251a81610415565b60443591612526612bfb565b82156125a1576123e37f9d5c7c0b934da8fefa9c7760c98383778a12dfbfc0c3b3106518f43fb9508ac09361ffff831660005260026020528061257b8560406000209061ffff16600052602052604060002090565b556040519384938460409194939294606082019561ffff80921683521660208201520152565b60405162461bcd60e51b81526020600482015260156024820152744c7a4170703a20696e76616c6964206d696e47617360581b6044820152606490fd5b3461042157600036600319011261042157602060405160018152f35b60c090600319011261042157600490565b60c0906101231901126104215761012490565b61022036600319011261042157612634366125fa565b61263d36611178565b906126473661260b565b6001600160401b03906101e4358281116104215761266990369060040161127a565b926102043590811161042157612683903690600401610426565b939091612697612692876131bf565b610819565b966040870135956126a78761501d565b50906126b2896131bf565b6040516303408e4760e41b81526001600160a01b0397919391906020816004817f00000000000000000000000000000000000000000000000000000000000000008d165afa998a15610810576127476127b3996127ad998f96806000805160206156278339815191529f612737926127a89c61275599611331936127ca575b50615212565b9360405197889560208701613234565b03601f198101845283610d25565b612772612761866132cc565b61276c368685610fa7565b906144d7565b61277b856132cc565b916127886126928d6131bf565b906127a2612798602089016131bf565b9334963691610fa7565b9361434f565b6132cc565b946131bf565b604051938452169261ffff16918060208101611407565b6127e19060203d8111611433576114258183610d25565b5038612731565b34610421576020366003190112610421577f1584ad594a70cbe1e6515592e1272a987d922b097ead875069cebe8b40c004a46020600435612828816109bb565b612830612bfb565b151560ff196006541660ff821617600655604051908152a1005b34610421576101003660031901126104215760043561286881610415565b6001600160401b039060243582811161042157612889903690600401610426565b91906044359061289882610453565b6084356128a481610825565b60c435958611610421576128bf610019963690600401610426565b94909360e4359660a43594606435936149f6565b34610421576128e136610b28565b91906128eb612bfb565b61ffff82166000908152600160208181526040832092949291906001600160401b038711610ccf576129278761292185546114c0565b8561469c565b8590601f881160011461297c5750918680879893611ee0956000805160206156c78339815191529993612971575b501b906000198460031b1c191617905560405193849384614681565b880135925038612955565b90601f19881661299185600052602060002090565b9288905b8282106129e5575050918893916000805160206156c78339815191529899611ee09694106129cb575b505082811b019055611ed4565b870135600019600386901b60f8161c1916905538806129be565b808685968294968c01358155019501930190612995565b3461042157604036600319011261042157602060ff611c03602435612a2081610825565b600435600052601084526040600020612116565b3461042157600036600319011261042157602060ff600654166040519015158152f35b3461042157602036600319011261042157600435612a7481610825565b612a7c612bfb565b6001600160a01b039081168015612ab857600080546001600160a01b03198116831782559092166000805160206156878339815191528380a380f35b60405162461bcd60e51b815260206004820152602660248201527f4f776e61626c653a206e6577206f776e657220697320746865207a65726f206160448201526564647265737360d01b6064820152608490fd5b3461042157608036600319011261042157600435612b2981610415565b60243590612b3682610415565b612b41604435610825565b604051633d7b2f6f60e21b815261ffff91821660048201529116602482015230604482015260648035908201526000816084817f00000000000000000000000000000000000000000000000000000000000000006001600160a01b03165afa8015610810576106f291600091612bbf575b5060405191829182610686565b612bda913d8091833e612bd28183610d25565b81019061465c565b38612bb2565b34610421576000366003190112610421576020604051308152f35b6000546001600160a01b03163303612c0f57565b606460405162461bcd60e51b815260206004820152602060248201527f4f776e61626c653a2063616c6c6572206973206e6f7420746865206f776e65726044820152fd5b634e487b7160e01b600052601160045260246000fd5b90601f8201809211610b2357565b6051019081605111610b2357565b91908201809211610b2357565b15612c9957565b60405162461bcd60e51b815260206004820152602360248201527f45524332303a207472616e7366657220746f20746865207a65726f206164647260448201526265737360e81b6064820152608490fd5b15612cf157565b60405162461bcd60e51b815260206004820152602660248201527f45524332303a207472616e7366657220616d6f756e7420657863656564732062604482015265616c616e636560d01b6064820152608490fd5b916001600160a01b038084169290918315612dc157612da6826000805160206156a783398151915294612dbc941696612d7f881515612c92565b612da084612d8c836120fc565b54612d9982821015612cea565b03916120fc565b556120fc565b8054820190556040519081529081906020820190565b0390a3565b60405162461bcd60e51b815260206004820152602560248201527f45524332303a207472616e736665722066726f6d20746865207a65726f206164604482015264647265737360d81b6064820152608490fd5b6001600160a01b038082169291908315612edc578216938415612e8c5780612e7b7f8c5be1e5ebec7d5bd14f71427d1e84f3dd0314c0f7b2291e5b200ac8c7c3b92594612e76612dbc9560018060a01b03166000526009602052604060002090565b612116565b556040519081529081906020820190565b60405162461bcd60e51b815260206004820152602260248201527f45524332303a20617070726f766520746f20746865207a65726f206164647265604482015261737360f01b6064820152608490fd5b60405162461bcd60e51b8152602060048201526024808201527f45524332303a20617070726f76652066726f6d20746865207a65726f206164646044820152637265737360e01b6064820152608490fd5b9060018060a01b0382166000526009602052612f4d816040600020612116565b549260018401612f5d5750505050565b808410612f7857612f6f930391612e14565b38808080611527565b60405162461bcd60e51b815260206004820152601d60248201527f45524332303a20696e73756666696369656e7420616c6c6f77616e63650000006044820152606490fd5b519061084182610415565b90816020910312610421575161069781610415565b6040513d6000823e3d90fd5b908060209392818452848401376000828201840152601f01601f1916010190565b9190808252602080920192916000905b828210613028575050505090565b909192938061304260019261303c886109c5565b15159052565b6130586130508488016109c5565b151582850152565b6130776040613068818901610836565b6001600160a01b031690830152565b61308f60606130878189016109c5565b151590830152565b61309f6080613068818901610836565b6130af60a0613068818901610836565b60c0808701359082015260e080870135908201526130dd6101006130d4818901610d97565b60ff1690830152565b6101208681013590820152610140808701359082015261016090810195019392019061301a565b61030a81526001600160a01b0391821660208201526001600160401b03928316604082015260c0606082015291959394929080823561314281610825565b1660c0840152602082013561315681610825565b1660e08301526040810135601e1982360301811215610421570194602086359601908611610421578536038113610421576131a56131b291610697976060610100860152610120850191612fe9565b61ffff9095166080830152565b60a081850391015261300a565b3561069781610825565b60a0809180356131d8816109bb565b1515845260208101356131ea81610825565b600180841b03809116602086015261ffff604083013561320981610415565b16604086015260608201356060860152608082013561322781610825565b1660808501520135910152565b919260a061069796946132ba93610309865260018060401b03166020860152803561325e81610825565b600180841b03809116604087015280602083013561327b81610825565b1660608701526040820135608087015260608201358387015260808201356132a281610825565b1660c0860152013560e08401526101008301906131c9565b6101e090816101c0820152019161300a565b3561069781610415565b519061084182610825565b909291926132ee81610f8c565b916132fc6040519384610d25565b82948284528282011161042157602061084193019061063e565b9080601f83011215610421578151610697926020016132e1565b5190610841826109bb565b519061084182610d8c565b81601f820112156104215780519061335d82610d75565b9260409061336d82519586610d25565b838552602091828601918361016080970286010194818611610421578401925b85841061339e575050505050505090565b8684830312610421578487916133b2610d48565b6133bb87613330565b81526133c8838801613330565b838201526133d78688016132d6565b8682015260606133e8818901613330565b9082015260806133f98189016132d6565b9082015260a061340a8189016132d6565b9082015260c0808801519082015260e0808801519082015261010061343081890161333b565b908201526101208088015190820152610140808801519082015281520193019261338d565b909160c08284031261042157815161346c81610415565b92602083015161347b81610825565b92604081015161348a81610453565b606082015190936001600160401b0392909183811161042157810160608186031261042157604051906134bc82610cef565b80516134c781610825565b825260208101516134d781610825565b6020830152604081015190858211610421576134f591879101613316565b60408201529361350760808301612fbd565b9360a0830151908111610421576106979201613346565b939061069795916101009461ffff60409560018060a01b03809516895216602088015284870152606086015260a060808601528082511660a086015260208201511660c0850152015191606060e08201520190610661565b805182101561358a5760209160051b010190565b634e487b7160e01b600052603260045260246000fd5b9360ff929897969360c0969260e087019a60018060a01b0380921688521660208701526040860152606085015216608083015260a08201520152565b60009060033d116135e957565b905060046000803e60005160e01c90565b600060443d1061069757604051600319913d83016004833e81516001600160401b03918282113d6024840111176136575781840194855193841161365f573d85010160208487010111613657575061069792910160200190610d25565b949350505050565b50949350505050565b3d15613693573d9061367982610f8c565b916136876040519384610d25565b82523d6000602084013e565b606090565b9060005b8251811015613aca576136bc60606136b48386613576565b510151151590565b156138745760406136e6612692612692836136d78689613576565b5101516001600160a01b031690565b6136f560806136d78588613576565b9061370560a06136d78689613576565b60c06137118689613576565b5101519160e0613721878a613576565b5101519061373e610100613735898c613576565b51015160ff1690565b9361012061374c898c613576565b5101519361014061375d8a8d613576565b51015190833b156104215761378f6000969287938b51998a98899788966301da8bf160e41b885260049e8f89016135a0565b03925af19081613861575b506138575760016137a96135dc565b6308c379a01461380e575b6137c5575b50506001905b0161369c565b6137cd613668565b6137df6118cb60206136b4878a613576565b6137e957506137b9565b6137f561380a91613acf565b925162461bcd60e51b81529283928301610686565b0390fd5b6138166135fa565b80613822575b506137b4565b600091506138386118cb60206136b4888b613576565b1561381c57835162461bcd60e51b815290819061380a90828601610686565b50506001906137bf565b8061209c61386e92610cbc565b3861379a565b6138886138818285613576565b5151151590565b15613a145760406138a3612692612692836136d78689613576565b6138b260806136d78588613576565b906138c260a06136d78689613576565b60e06138ce8689613576565b510151916138e2610100613735888b613576565b906101206138f0888b613576565b51015193610140613901898c613576565b510151823b1561042157875163aba0784760e01b81526001600160a01b03978816600480830191909152979095166024860152604485019190915260ff9092166064840152608483019390935260a482015290600090829081838160c481015b03925af19081613a01575b5061385757600161397b6135dc565b6308c379a0146139b8575b6139945750506001906137bf565b61399c613668565b6139ae6118cb60206136b4878a613576565b6137e95750613857565b6139c06135fa565b806139cc575b50613986565b600091506139e26118cb60206136b4888b613576565b156139c657835162461bcd60e51b815290819061380a90828601610686565b8061209c613a0e92610cbc565b3861396c565b6040613a2a612692612692836136d78689613576565b613a3960806136d78588613576565b90613a4960a06136d78689613576565b60c0613a558689613576565b5101519160e0613a65878a613576565b51015190613a79610100613735898c613576565b93610120613a87898c613576565b51015193610140613a988a8d613576565b51015190833b15610421576139616000969287938b51998a988997889663d505accf60e01b885260049e8f89016135a0565b509050565b6044815110613b2057600481015181019060208160248401930312610421576024810151906001600160401b03821161042157019080604383011215610421576024820151610697926044016132e1565b50604051613b2d81610d0a565b60148152735553444f3a206e6f2072657475726e206461746160601b602082015290565b15613b5857565b60405162461bcd60e51b81526020600482015260166024820152751554d113ce881b5bd91d5b19481b9bdd081d985b1a5960521b6044820152606490fd5b91908260c091031261042157604051613bae81610cd4565b60a08082948051613bbe816109bb565b84526020810151613bce81610825565b60208501526040810151613be181610415565b6040850152606081015160608501526080810151613bfe81610825565b60808501520151910152565b808203916101e08312610421578151613c2281610415565b9360c06020840151613c3381610453565b94603f19011261042157604051613c4981610cd4565b6040840151613c5781610825565b81526060840151613c6781610825565b60208201526080840151604082015260a0840151606082015260c0840151613c8e81610825565b608082015260e084015160a082015292613cac836101008301613b96565b6101c08201519093906001600160401b038111610421576106979201613346565b90815180825260208080930193019160005b828110613ced575050505090565b90919293826101606001928751613d0682825115159052565b808401511515828501526040818101516001600160a01b0316908301526060818101511515908301526080818101516001600160a01b03169083015260a0818101516001600160a01b03169083015260c0818101519083015260e080820151908301526101008082015160ff16908301526101208181015190830152610140908101519082015201950193929101613cdf565b959291909460a094610697999896600180881b03948594858093168b5260208b0152166040890152606088015216608086015281511515838601528060208301511660c086015261ffff60408301511660e0860152606082015161010086015260808201511661012085015201516101408301526101608201526101a090816101808201520190613ccd565b601319810191908211610b2357565b605019810191908211610b2357565b91908203918211610b2357565b60405163a9059cbb60e01b602082019081526001600160a01b039384166024830152604480830195909552938152608081019290916001600160401b03841183851017610ccf57613eed946000928392866040521693613eaf86610d0a565b602086527f5361666545524332303a206c6f772d6c6576656c2063616c6c206661696c656460a0820152519082855af1613ee7613668565b91613f74565b805180613ef8575050565b8160209181010312610421576020610841910151613f15816109bb565b15613f1c57565b60405162461bcd60e51b815260206004820152602a60248201527f5361666545524332303a204552433230206f7065726174696f6e20646964206e6044820152691bdd081cdd58d8d9595960b21b6064820152608490fd5b91929015613fd65750815115613f88575090565b3b15613f915790565b60405162461bcd60e51b815260206004820152601d60248201527f416464726573733a2063616c6c20746f206e6f6e2d636f6e74726163740000006044820152606490fd5b825190915015613fe95750805190602001fd5b60405162461bcd60e51b815290819061380a9060048301610686565b90816020910312610421575190565b93959096949294805161426d575b50604080516370a0823160e01b80825260209992986001600160a01b03958087169492939192918c81806140593060048301611a9d565b0381895afa9384156108105788918e60009661424e575b50501691823b15610421578b5163286fbdcd60e21b815260048101919091526001600160a01b03919091166024820152604481018a9052906000908290606490829084905af180156108105761423b575b5088519182528982806140d73060048301611a9d565b0381865afa801561081057879260009161420e575b508082116141da575b50505050506141048251151590565b156141be5761411b61269261269288850151610819565b92479161412c8785015161ffff1690565b91169261417361414c60a06141446080850151610819565b93015161427c565b91614155610d68565b6001600160a01b0387168152996001600160a01b03909116908a0152565b86880152833b15610421576141a0600096519788968795869463695ef6bf60e01b8652306004870161351e565b03925af18015610810576141b15750565b8061209c61084192610cbc565b506141d59192935061084194612692910151610819565b613e50565b6141e391613e43565b928084106141f2575b806140f5565b614205936141ff91613e43565b91613e50565b388084816141ec565b61422e91508b3d8d11614234575b6142268183610d25565b810190614005565b386140ec565b503d61421c565b8061209c61424892610cbc565b386140c1565b614265929650803d10614234576142268183610d25565b93388e614070565b61427690613698565b38614022565b60405190600160f01b602083015260228201526022815261069781610cef565b156142a357565b60405162461bcd60e51b815260206004820152602660248201527f4c7a4170703a20696e76616c696420736f757263652073656e64696e6720636f6044820152651b9d1c9858dd60d21b6064820152608490fd5b9261431c61069797959361ffff61432a9416865260c0602087015260c0860190610661565b908482036040860152610661565b6001600160a01b0391821660608401529316608082015280830360a090910152610661565b946143789193929561ffff8116600052600160205261437f6040600020604051948580926114fa565b0384610d25565b8251156143e6576143918551826145ed565b7f00000000000000000000000000000000000000000000000000000000000000006001600160a01b031693843b15610421576000966141a091604051998a988997889662c5803160e81b8852600488016142f7565b60405162461bcd60e51b815260206004820152603060248201527f4c7a4170703a2064657374696e6174696f6e20636861696e206973206e6f742060448201526f61207472757374656420736f7572636560801b6064820152608490fd5b1561444b57565b60405162461bcd60e51b815260206004820152601a602482015279131e905c1c0e881b5a5b91d85cd31a5b5a5d081b9bdd081cd95d60321b6044820152606490fd5b1561449457565b60405162461bcd60e51b815260206004820152601b60248201527a4c7a4170703a20676173206c696d697420697320746f6f206c6f7760281b6044820152606490fd5b602282511061451c5761ffff602261084193015191166000526002602052604060002061030960005260205260406000205490614515821515614444565b101561448d565b60405162461bcd60e51b815260206004820152601c60248201527b4c7a4170703a20696e76616c69642061646170746572506172616d7360201b6044820152606490fd5b602282511061451c5761ffff602261084193015191166000526002602052604060002061030a60005260205260406000205490614515821515614444565b9190602281511061451c57602261ffff910151921660005260026020526145d360406000206001600052602052604060002090565b54908101809111610b235761084191614515821515614444565b61ffff166000526003602052604060002054908115614652575b1161460e57565b606460405162461bcd60e51b815260206004820152602060248201527f4c7a4170703a207061796c6f61642073697a6520697320746f6f206c617267656044820152fd5b6127109150614607565b906020828203126104215781516001600160401b038111610421576106979201613316565b60409061ffff61069795931681528160208201520191612fe9565b90601f81116146aa57505050565b600091825260208220906020601f850160051c830194106146e6575b601f0160051c01915b8281106146db57505050565b8181556001016146cf565b90925082906146c6565b9290916147545a604051633356ae4560e11b602082015261ffff87166024820152608060448201529061474e8261274761472d60a483018a610661565b6001600160401b038816606484015282810360231901608484015288610661565b306155db565b939015614763575b5050505050565b61476c94614776565b388080808061475c565b91936148147fe183f33de2837795525b4792ca4cd60535bd77c53b7e7030060bfcf5734d6b0c95614822939561ffff815160208301209616958660005260056020526147da836110b860208b6040600020826040519483868095519384920161063e565b556147f7604051978897885260a0602089015260a0880190610661565b6001600160401b0390921660408701528582036060870152610661565b908382036080850152610661565b0390a1565b6020919283604051948593843782019081520301902090565b1561484757565b60405162461bcd60e51b815260206004820152602160248201527f4e6f6e626c6f636b696e674c7a4170703a20696e76616c6964207061796c6f616044820152601960fa1b6064820152608490fd5b9160609361ffff6148b99398979698168452608060208501526080840191612fe9565b6001600160401b0390951660408201520152565b903590601e198136030182121561042157018035906001600160401b0382116104215760200191813603831361042157565b94919598979061171061492860409961492061492e9761494b993691610fa7565b943691610fa7565b97614f85565b928451968794859463040a7bb160e41b8652309060048701614ad9565b03817f00000000000000000000000000000000000000000000000000000000000000006001600160a01b03165afa91821561081057600090819361498e57509190565b90506104c591925060403d8111610ad157610ac28183610d25565b9396949161069798969361ffff6149ce9316865260c0602087015260c0860191612fe9565b6001600160401b0390961660408401526060830152608082015280840360a090910152612fe9565b91969792989594939094303303614a7e57614a12908530615378565b60405181815290946001600160a01b03169390849061ffff85169060008051602061566783398151915290602090a3833b15610421576000988995614a6e936040519c8d9b8c9a8b98633fe79aed60e11b8a5260048a016149a9565b0393f18015610810576141b15750565b60405162461bcd60e51b815260206004820152601f60248201527f4f4654436f72653a2063616c6c6572206d757374206265204f4654436f7265006044820152606490fd5b9190826040910312610421576020825192015190565b9192610697959361ffff614b089316845260018060a01b0316602084015260a0604084015260a0830190610661565b92151560608201526080818403910152610661565b92919060ff614b2b84615580565b1680614c7e5750505060ff614b3f82615580565b161580614c73575b614b5090615088565b614b62614b5c82615530565b916155cb565b90916001600160a01b039182841615614c69575b614baa907f0000000000000000000000000000000000000000000000000000000000000000906001600160401b031661500a565b918316928315614c245760008051602061566783398151915291614be461ffff92614bdf614bda87600a54612c85565b600a55565b6120fc565b8481540190558460006000805160206156a783398151915260405180614c0f89829190602083019252565b0390a360405193845216918060208101612dbc565b60405162461bcd60e51b815260206004820152601f60248201527f45524332303a206d696e7420746f20746865207a65726f2061646472657373006044820152606490fd5b61dead9350614b76565b508051602914614b47565b600103614c8e5761084193614da7565b60405162461bcd60e51b815260206004820152601c60248201527b4f4654436f72653a20756e6b6e6f776e207061636b6574207479706560201b6044820152606490fd5b15614cd957565b60405162461bcd60e51b815260206004820152601960248201527813d19510dbdc994e88185b5bdd5b9d081d1bdbc81cdb585b1b603a1b6044820152606490fd5b9897969293614d4460e0979361ffff614d799894168c5260208c61010091829101528c0190610661565b6001600160401b0390951660408b015260608a01526001600160a01b0316608089015260a088015286820360c0880152610661565b930152565b614d9660409295949395606083526060830190610661565b94600180841b031660208201520152565b9091614db284615139565b9091614dcd61183f876118c6614dc78b610bbc565b8c61103e565b916001600160401b0391614e04907f000000000000000000000000000000000000000000000000000000000000000090841661500a565b9288888b8315614ef2575b505050853b15614eb55794614e56969461474e948a94612747948d99600014614eae5750505a925b5a978b6040519a8b9863757fea4d60e11b60208b015260248a01614d1a565b9015614ea3575090614e9e61ffff928560207fb8890edbfc1c74692f527444645f95489c3703cc2df42e4a366f5d06fa6cd88496975191012090604051948594169684614d7e565b0390a2565b926108419492614776565b1692614e37565b5050505050925050507f9aedf5fdba8716db3b6705ca00150643309995d4f818a249ed6dde6677e7792d9250614822915060405191829182611a9d565b906118c66119f992614f1289614f0c614f18979b30615328565b99610bbc565b9061103e565b88888b614e0f565b60065460ff1615614f6757602282511061451c5761ffff60226108419301519116600052600260205260406000206000805260205260406000205490614515821515614444565b505161174557565b634e487b7160e01b600052601260045260246000fd5b7f0000000000000000000000000000000000000000000000000000000000000000908115615005576001600160401b03919004818111614fc3571690565b60405162461bcd60e51b815260206004820152601a6024820152794f4654436f72653a20616d6f756e745344206f766572666c6f7760301b6044820152606490fd5b614f6f565b81810292918115918404141715610b2357565b7f0000000000000000000000000000000000000000000000000000000000000000801561500557810690818103908111610b235791565b60405160006020820152602181019190915260c09190911b6001600160c01b03191660418201526029815261069781610cef565b1561508f57565b60405162461bcd60e51b815260206004820152601860248201527713d19510dbdc994e881a5b9d985b1a59081c185e5b1bd85960421b6044820152606490fd5b939260719261069794604051968794600160f81b6020870152602186015260018060c01b0319809360c01b16604186015260018060a01b0316604985015260c01b166069830152615129815180926020868601910161063e565b8101036051810184520182610d25565b90615151600160ff61514a85615580565b1614615088565b61515a82615530565b90615164836155cb565b9060498451106151d5576049840151936051815110615199576151966051820151916151908151613e34565b906154ac565b91565b60405162461bcd60e51b8152602060048201526014602482015273746f55696e7436345f6f75744f66426f756e647360601b6044820152606490fd5b60405162461bcd60e51b8152602060048201526015602482015274746f427974657333325f6f75744f66426f756e647360581b6044820152606490fd5b6001600160a01b0381163381036152c1575b801561527257816152478461523a6000956120fc565b54612d99828210156152d1565b5561525583600a5403600a55565b6040518381526000805160206156a783398151915290602090a390565b60405162461bcd60e51b815260206004820152602160248201527f45524332303a206275726e2066726f6d20746865207a65726f206164647265736044820152607360f81b6064820152608490fd5b6152cc833384612f2d565b615224565b156152d857565b60405162461bcd60e51b815260206004820152602260248201527f45524332303a206275726e20616d6f756e7420657863656564732062616c616e604482015261636560f01b6064820152608490fd5b6001600160a01b03811691908215614c2457600a5490828201809211610b23576000926153696020926000805160206156a783398151915294600a556120fc565b818154019055604051908152a3565b6106979183916001600160a01b0381163081141590816153a4575b5015612d455761099a833383612f2d565b905033141538615393565b156153b657565b60405162461bcd60e51b815260206004820152600e60248201526d736c6963655f6f766572666c6f7760901b6044820152606490fd5b156153f357565b60405162461bcd60e51b8152602060048201526011602482015270736c6963655f6f75744f66426f756e647360781b6044820152606490fd5b6154408261543981612c69565b10156153af565b61544d82825110156153ec565b81615465575050604051600081526020810160405290565b60405191601f811691821560051b808486010193838501920101905b8084106154995750508252601f01601f191660405290565b9092835181526020809101930190615481565b6154b98261543981612c69565b6154ce81516154c784612c77565b11156153ec565b816154e6575050604051600081526020810160405290565b60405191601f8116916051831560051b80858701019484860193010101905b80841061551d5750508252601f01601f191660405290565b9092835181526020809101930190615505565b602181511061554357602d015160601c90565b60405162461bcd60e51b8152602060048201526015602482015274746f416464726573735f6f75744f66426f756e647360581b6044820152606490fd5b6001815110615590576001015190565b60405162461bcd60e51b8152602060048201526013602482015272746f55696e74385f6f75744f66426f756e647360681b6044820152606490fd5b6029815110615199576029015190565b90929160008091604051956155ef87610cd4565b6096875282602088019560a036883760208451940192f1903d906096821161561d575b6000908286523e9190565b6096915061561256fed81fc9b8523134ed613870ed029d6170cbb73aa6a6bc311b9a642689fb9df59a8c0400cfe2d1199b1a725c78960bcc2a344d869b80590d0f2bd005db15a572cebf551ec93859b170f9b2141bd9298bf3f64322c6f7beb2543a0cb669834118bf8be0079c531659141344cd1fd0a4f28419497f9722a3daafe3b4186f6b6457e0ddf252ad1be2c89b69c2b068fc378daa952ba7f163c4a11628f55a4df523b3effa41487ad5d6728f0b19276fa1eddc16558578f5109fc39d2dc33c3230470daba264697066735822122017103479c88a1c36a9530788ad5344d522ad4a6c93be8b9510f99df4111ec96d64736f6c63430008120033",
  "linkReferences": {},
  "deployedLinkReferences": {}
}