{
  "_format": "hh-sol-artifact-1",
  "contractName": "USDOOptionsModule",
  "sourceName": "contracts/usd0/modules/USDOOptionsModule.sol",
  "abi": [
    {
      "inputs": [
        {
          "internalType": "address",
          "name": "_lzEndpoint",
          "type": "address"
        },
        {
          "internalType": "contract IYieldBoxBase",
          "name": "_yieldBox",
          "type": "address"
        },
        {
          "internalType": "contract ICluster",
          "name": "_cluster",
          "type": "address"
        }
      ],
      "stateMutability": "nonpayable",
      "type": "constructor"
    },
    {
      "anonymous": false,
      "inputs": [
        {
          "indexed": true,
          "internalType": "address",
          "name": "owner",
          "type": "address"
        },
        {
          "indexed": true,
          "internalType": "address",
          "name": "spender",
          "type": "address"
        },
        {
          "indexed": false,
          "internalType": "uint256",
          "name": "value",
          "type": "uint256"
        }
      ],
      "name": "Approval",
      "type": "event"
    },
    {
      "anonymous": false,
      "inputs": [
        {
          "indexed": true,
          "internalType": "uint16",
          "name": "_srcChainId",
          "type": "uint16"
        },
        {
          "indexed": false,
          "internalType": "bytes",
          "name": "_srcAddress",
          "type": "bytes"
        },
        {
          "indexed": false,
          "internalType": "uint64",
          "name": "_nonce",
          "type": "uint64"
        },
        {
          "indexed": false,
          "internalType": "bytes32",
          "name": "_hash",
          "type": "bytes32"
        }
      ],
      "name": "CallOFTReceivedSuccess",
      "type": "event"
    },
    {
      "anonymous": false,
      "inputs": [
        {
          "indexed": false,
          "internalType": "uint16",
          "name": "_srcChainId",
          "type": "uint16"
        },
        {
          "indexed": false,
          "internalType": "bytes",
          "name": "_srcAddress",
          "type": "bytes"
        },
        {
          "indexed": false,
          "internalType": "uint64",
          "name": "_nonce",
          "type": "uint64"
        },
        {
          "indexed": false,
          "internalType": "bytes",
          "name": "_payload",
          "type": "bytes"
        },
        {
          "indexed": false,
          "internalType": "bytes",
          "name": "_reason",
          "type": "bytes"
        }
      ],
      "name": "MessageFailed",
      "type": "event"
    },
    {
      "anonymous": false,
      "inputs": [
        {
          "indexed": false,
          "internalType": "address",
          "name": "_address",
          "type": "address"
        }
      ],
      "name": "NonContractAddress",
      "type": "event"
    },
    {
      "anonymous": false,
      "inputs": [
        {
          "indexed": true,
          "internalType": "address",
          "name": "previousOwner",
          "type": "address"
        },
        {
          "indexed": true,
          "internalType": "address",
          "name": "newOwner",
          "type": "address"
        }
      ],
      "name": "OwnershipTransferred",
      "type": "event"
    },
    {
      "anonymous": false,
      "inputs": [
        {
          "indexed": false,
          "internalType": "bool",
          "name": "oldState",
          "type": "bool"
        },
        {
          "indexed": false,
          "internalType": "bool",
          "name": "newState",
          "type": "bool"
        }
      ],
      "name": "PausedUpdated",
      "type": "event"
    },
    {
      "anonymous": false,
      "inputs": [
        {
          "indexed": true,
          "internalType": "uint16",
          "name": "_srcChainId",
          "type": "uint16"
        },
        {
          "indexed": true,
          "internalType": "address",
          "name": "_to",
          "type": "address"
        },
        {
          "indexed": false,
          "internalType": "uint256",
          "name": "_amount",
          "type": "uint256"
        }
      ],
      "name": "ReceiveFromChain",
      "type": "event"
    },
    {
      "anonymous": false,
      "inputs": [
        {
          "indexed": false,
          "internalType": "uint16",
          "name": "_srcChainId",
          "type": "uint16"
        },
        {
          "indexed": false,
          "internalType": "bytes",
          "name": "_srcAddress",
          "type": "bytes"
        },
        {
          "indexed": false,
          "internalType": "uint64",
          "name": "_nonce",
          "type": "uint64"
        },
        {
          "indexed": false,
          "internalType": "bytes32",
          "name": "_payloadHash",
          "type": "bytes32"
        }
      ],
      "name": "RetryMessageSuccess",
      "type": "event"
    },
    {
      "anonymous": false,
      "inputs": [
        {
          "indexed": true,
          "internalType": "uint16",
          "name": "_dstChainId",
          "type": "uint16"
        },
        {
          "indexed": true,
          "internalType": "address",
          "name": "_from",
          "type": "address"
        },
        {
          "indexed": true,
          "internalType": "bytes32",
          "name": "_toAddress",
          "type": "bytes32"
        },
        {
          "indexed": false,
          "internalType": "uint256",
          "name": "_amount",
          "type": "uint256"
        }
      ],
      "name": "SendToChain",
      "type": "event"
    },
    {
      "anonymous": false,
      "inputs": [
        {
          "indexed": true,
          "internalType": "address",
          "name": "_for",
          "type": "address"
        },
        {
          "indexed": false,
          "internalType": "bool",
          "name": "_status",
          "type": "bool"
        }
      ],
      "name": "SetBurnerStatus",
      "type": "event"
    },
    {
      "anonymous": false,
      "inputs": [
        {
          "indexed": false,
          "internalType": "uint16",
          "name": "_dstChainId",
          "type": "uint16"
        },
        {
          "indexed": false,
          "internalType": "uint16",
          "name": "_type",
          "type": "uint16"
        },
        {
          "indexed": false,
          "internalType": "uint256",
          "name": "_minDstGas",
          "type": "uint256"
        }
      ],
      "name": "SetMinDstGas",
      "type": "event"
    },
    {
      "anonymous": false,
      "inputs": [
        {
          "indexed": true,
          "internalType": "address",
          "name": "_for",
          "type": "address"
        },
        {
          "indexed": false,
          "internalType": "bool",
          "name": "_status",
          "type": "bool"
        }
      ],
      "name": "SetMinterStatus",
      "type": "event"
    },
    {
      "anonymous": false,
      "inputs": [
        {
          "indexed": false,
          "internalType": "address",
          "name": "precrime",
          "type": "address"
        }
      ],
      "name": "SetPrecrime",
      "type": "event"
    },
    {
      "anonymous": false,
      "inputs": [
        {
          "indexed": false,
          "internalType": "uint16",
          "name": "_remoteChainId",
          "type": "uint16"
        },
        {
          "indexed": false,
          "internalType": "bytes",
          "name": "_path",
          "type": "bytes"
        }
      ],
      "name": "SetTrustedRemote",
      "type": "event"
    },
    {
      "anonymous": false,
      "inputs": [
        {
          "indexed": false,
          "internalType": "uint16",
          "name": "_remoteChainId",
          "type": "uint16"
        },
        {
          "indexed": false,
          "internalType": "bytes",
          "name": "_remoteAddress",
          "type": "bytes"
        }
      ],
      "name": "SetTrustedRemoteAddress",
      "type": "event"
    },
    {
      "anonymous": false,
      "inputs": [
        {
          "indexed": false,
          "internalType": "bool",
          "name": "_useCustomAdapterParams",
          "type": "bool"
        }
      ],
      "name": "SetUseCustomAdapterParams",
      "type": "event"
    },
    {
      "anonymous": false,
      "inputs": [
        {
          "indexed": true,
          "internalType": "address",
          "name": "from",
          "type": "address"
        },
        {
          "indexed": true,
          "internalType": "address",
          "name": "to",
          "type": "address"
        },
        {
          "indexed": false,
          "internalType": "uint256",
          "name": "value",
          "type": "uint256"
        }
      ],
      "name": "Transfer",
      "type": "event"
    },
    {
      "inputs": [],
      "name": "DEFAULT_PAYLOAD_SIZE_LIMIT",
      "outputs": [
        {
          "internalType": "uint256",
          "name": "",
          "type": "uint256"
        }
      ],
      "stateMutability": "view",
      "type": "function"
    },
    {
      "inputs": [],
      "name": "NO_EXTRA_GAS",
      "outputs": [
        {
          "internalType": "uint256",
          "name": "",
          "type": "uint256"
        }
      ],
      "stateMutability": "view",
      "type": "function"
    },
    {
      "inputs": [],
      "name": "PT_SEND",
      "outputs": [
        {
          "internalType": "uint8",
          "name": "",
          "type": "uint8"
        }
      ],
      "stateMutability": "view",
      "type": "function"
    },
    {
      "inputs": [],
      "name": "PT_SEND_AND_CALL",
      "outputs": [
        {
          "internalType": "uint8",
          "name": "",
          "type": "uint8"
        }
      ],
      "stateMutability": "view",
      "type": "function"
    },
    {
      "inputs": [
        {
          "internalType": "address",
          "name": "owner",
          "type": "address"
        },
        {
          "internalType": "address",
          "name": "spender",
          "type": "address"
        }
      ],
      "name": "allowance",
      "outputs": [
        {
          "internalType": "uint256",
          "name": "",
          "type": "uint256"
        }
      ],
      "stateMutability": "view",
      "type": "function"
    },
    {
      "inputs": [
        {
          "internalType": "uint256",
          "name": "",
          "type": "uint256"
        },
        {
          "internalType": "address",
          "name": "",
          "type": "address"
        }
      ],
      "name": "allowedBurner",
      "outputs": [
        {
          "internalType": "bool",
          "name": "",
          "type": "bool"
        }
      ],
      "stateMutability": "view",
      "type": "function"
    },
    {
      "inputs": [
        {
          "internalType": "uint256",
          "name": "",
          "type": "uint256"
        },
        {
          "internalType": "address",
          "name": "",
          "type": "address"
        }
      ],
      "name": "allowedMinter",
      "outputs": [
        {
          "internalType": "bool",
          "name": "",
          "type": "bool"
        }
      ],
      "stateMutability": "view",
      "type": "function"
    },
    {
      "inputs": [
        {
          "internalType": "address",
          "name": "spender",
          "type": "address"
        },
        {
          "internalType": "uint256",
          "name": "amount",
          "type": "uint256"
        }
      ],
      "name": "approve",
      "outputs": [
        {
          "internalType": "bool",
          "name": "",
          "type": "bool"
        }
      ],
      "stateMutability": "nonpayable",
      "type": "function"
    },
    {
      "inputs": [
        {
          "internalType": "address",
          "name": "account",
          "type": "address"
        }
      ],
      "name": "balanceOf",
      "outputs": [
        {
          "internalType": "uint256",
          "name": "",
          "type": "uint256"
        }
      ],
      "stateMutability": "view",
      "type": "function"
    },
    {
      "inputs": [
        {
          "internalType": "uint16",
          "name": "_srcChainId",
          "type": "uint16"
        },
        {
          "internalType": "bytes",
          "name": "_srcAddress",
          "type": "bytes"
        },
        {
          "internalType": "uint64",
          "name": "_nonce",
          "type": "uint64"
        },
        {
          "internalType": "bytes32",
          "name": "_from",
          "type": "bytes32"
        },
        {
          "internalType": "address",
          "name": "_to",
          "type": "address"
        },
        {
          "internalType": "uint256",
          "name": "_amount",
          "type": "uint256"
        },
        {
          "internalType": "bytes",
          "name": "_payload",
          "type": "bytes"
        },
        {
          "internalType": "uint256",
          "name": "_gasForCall",
          "type": "uint256"
        }
      ],
      "name": "callOnOFTReceived",
      "outputs": [],
      "stateMutability": "nonpayable",
      "type": "function"
    },
    {
      "inputs": [],
      "name": "circulatingSupply",
      "outputs": [
        {
          "internalType": "uint256",
          "name": "",
          "type": "uint256"
        }
      ],
      "stateMutability": "view",
      "type": "function"
    },
    {
      "inputs": [],
      "name": "cluster",
      "outputs": [
        {
          "internalType": "contract ICluster",
          "name": "",
          "type": "address"
        }
      ],
      "stateMutability": "view",
      "type": "function"
    },
    {
      "inputs": [],
      "name": "conservator",
      "outputs": [
        {
          "internalType": "address",
          "name": "",
          "type": "address"
        }
      ],
      "stateMutability": "view",
      "type": "function"
    },
    {
      "inputs": [
        {
          "internalType": "uint16",
          "name": "",
          "type": "uint16"
        },
        {
          "internalType": "bytes",
          "name": "",
          "type": "bytes"
        },
        {
          "internalType": "uint64",
          "name": "",
          "type": "uint64"
        }
      ],
      "name": "creditedPackets",
      "outputs": [
        {
          "internalType": "bool",
          "name": "",
          "type": "bool"
        }
      ],
      "stateMutability": "view",
      "type": "function"
    },
    {
      "inputs": [],
      "name": "decimals",
      "outputs": [
        {
          "internalType": "uint8",
          "name": "",
          "type": "uint8"
        }
      ],
      "stateMutability": "view",
      "type": "function"
    },
    {
      "inputs": [
        {
          "internalType": "address",
          "name": "spender",
          "type": "address"
        },
        {
          "internalType": "uint256",
          "name": "subtractedValue",
          "type": "uint256"
        }
      ],
      "name": "decreaseAllowance",
      "outputs": [
        {
          "internalType": "bool",
          "name": "",
          "type": "bool"
        }
      ],
      "stateMutability": "nonpayable",
      "type": "function"
    },
    {
      "inputs": [
        {
          "internalType": "uint16",
          "name": "_dstChainId",
          "type": "uint16"
        },
        {
          "internalType": "bytes32",
          "name": "_toAddress",
          "type": "bytes32"
        },
        {
          "internalType": "uint256",
          "name": "_amount",
          "type": "uint256"
        },
        {
          "internalType": "bytes",
          "name": "_payload",
          "type": "bytes"
        },
        {
          "internalType": "uint64",
          "name": "_dstGasForCall",
          "type": "uint64"
        },
        {
          "internalType": "bool",
          "name": "_useZro",
          "type": "bool"
        },
        {
          "internalType": "bytes",
          "name": "_adapterParams",
          "type": "bytes"
        }
      ],
      "name": "estimateSendAndCallFee",
      "outputs": [
        {
          "internalType": "uint256",
          "name": "nativeFee",
          "type": "uint256"
        },
        {
          "internalType": "uint256",
          "name": "zroFee",
          "type": "uint256"
        }
      ],
      "stateMutability": "view",
      "type": "function"
    },
    {
      "inputs": [
        {
          "internalType": "uint16",
          "name": "_dstChainId",
          "type": "uint16"
        },
        {
          "internalType": "bytes32",
          "name": "_toAddress",
          "type": "bytes32"
        },
        {
          "internalType": "uint256",
          "name": "_amount",
          "type": "uint256"
        },
        {
          "internalType": "bool",
          "name": "_useZro",
          "type": "bool"
        },
        {
          "internalType": "bytes",
          "name": "_adapterParams",
          "type": "bytes"
        }
      ],
      "name": "estimateSendFee",
      "outputs": [
        {
          "internalType": "uint256",
          "name": "nativeFee",
          "type": "uint256"
        },
        {
          "internalType": "uint256",
          "name": "zroFee",
          "type": "uint256"
        }
      ],
      "stateMutability": "view",
      "type": "function"
    },
    {
      "inputs": [
        {
          "components": [
            {
              "internalType": "address",
              "name": "from",
              "type": "address"
            },
            {
              "internalType": "address",
              "name": "target",
              "type": "address"
            },
            {
              "internalType": "uint256",
              "name": "paymentTokenAmount",
              "type": "uint256"
            },
            {
              "internalType": "uint256",
              "name": "oTAPTokenID",
              "type": "uint256"
            },
            {
              "internalType": "address",
              "name": "paymentToken",
              "type": "address"
            },
            {
              "internalType": "uint256",
              "name": "tapAmount",
              "type": "uint256"
            }
          ],
          "internalType": "struct ITapiocaOptionsBrokerCrossChain.IExerciseOptionsData",
          "name": "optionsData",
          "type": "tuple"
        },
        {
          "components": [
            {
              "internalType": "uint16",
              "name": "lzDstChainId",
              "type": "uint16"
            },
            {
              "internalType": "address",
              "name": "zroPaymentAddress",
              "type": "address"
            },
            {
              "internalType": "uint256",
              "name": "extraGas",
              "type": "uint256"
            }
          ],
          "internalType": "struct ITapiocaOptionsBrokerCrossChain.IExerciseLZData",
          "name": "lzData",
          "type": "tuple"
        },
        {
          "components": [
            {
              "internalType": "bool",
              "name": "withdrawOnAnotherChain",
              "type": "bool"
            },
            {
              "internalType": "address",
              "name": "tapOftAddress",
              "type": "address"
            },
            {
              "internalType": "uint16",
              "name": "lzDstChainId",
              "type": "uint16"
            },
            {
              "internalType": "uint256",
              "name": "amount",
              "type": "uint256"
            },
            {
              "internalType": "address",
              "name": "zroPaymentAddress",
              "type": "address"
            },
            {
              "internalType": "uint256",
              "name": "extraGas",
              "type": "uint256"
            }
          ],
          "internalType": "struct ITapiocaOptionsBrokerCrossChain.IExerciseLZSendTapData",
          "name": "tapSendData",
          "type": "tuple"
        },
        {
          "components": [
            {
              "internalType": "bool",
              "name": "permitAll",
              "type": "bool"
            },
            {
              "internalType": "bool",
              "name": "allowFailure",
              "type": "bool"
            },
            {
              "internalType": "bool",
              "name": "yieldBoxTypeApproval",
              "type": "bool"
            },
            {
              "internalType": "bool",
              "name": "revokeYieldBox",
              "type": "bool"
            },
            {
              "internalType": "uint16",
              "name": "actionType",
              "type": "uint16"
            },
            {
              "internalType": "address",
              "name": "target",
              "type": "address"
            },
            {
              "internalType": "bool",
              "name": "permitBorrow",
              "type": "bool"
            },
            {
              "internalType": "address",
              "name": "owner",
              "type": "address"
            },
            {
              "internalType": "address",
              "name": "spender",
              "type": "address"
            },
            {
              "internalType": "uint256",
              "name": "value",
              "type": "uint256"
            },
            {
              "internalType": "uint256",
              "name": "deadline",
              "type": "uint256"
            },
            {
              "internalType": "uint8",
              "name": "v",
              "type": "uint8"
            },
            {
              "internalType": "bytes32",
              "name": "r",
              "type": "bytes32"
            },
            {
              "internalType": "bytes32",
              "name": "s",
              "type": "bytes32"
            }
          ],
          "internalType": "struct ICommonData.IApproval[]",
          "name": "approvals",
          "type": "tuple[]"
        },
        {
          "internalType": "bytes",
          "name": "adapterParams",
          "type": "bytes"
        }
      ],
      "name": "exerciseOption",
      "outputs": [],
      "stateMutability": "payable",
      "type": "function"
    },
    {
      "inputs": [
        {
          "internalType": "uint16",
          "name": "",
          "type": "uint16"
        },
        {
          "internalType": "bytes",
          "name": "",
          "type": "bytes"
        },
        {
          "internalType": "uint64",
          "name": "",
          "type": "uint64"
        }
      ],
      "name": "failedMessages",
      "outputs": [
        {
          "internalType": "bytes32",
          "name": "",
          "type": "bytes32"
        }
      ],
      "stateMutability": "view",
      "type": "function"
    },
    {
      "inputs": [
        {
          "internalType": "uint16",
          "name": "_srcChainId",
          "type": "uint16"
        },
        {
          "internalType": "bytes",
          "name": "_srcAddress",
          "type": "bytes"
        }
      ],
      "name": "forceResumeReceive",
      "outputs": [],
      "stateMutability": "nonpayable",
      "type": "function"
    },
    {
      "inputs": [
        {
          "internalType": "uint16",
          "name": "_version",
          "type": "uint16"
        },
        {
          "internalType": "uint16",
          "name": "_chainId",
          "type": "uint16"
        },
        {
          "internalType": "address",
          "name": "",
          "type": "address"
        },
        {
          "internalType": "uint256",
          "name": "_configType",
          "type": "uint256"
        }
      ],
      "name": "getConfig",
      "outputs": [
        {
          "internalType": "bytes",
          "name": "",
          "type": "bytes"
        }
      ],
      "stateMutability": "view",
      "type": "function"
    },
    {
      "inputs": [
        {
          "internalType": "uint16",
          "name": "_remoteChainId",
          "type": "uint16"
        }
      ],
      "name": "getTrustedRemoteAddress",
      "outputs": [
        {
          "internalType": "bytes",
          "name": "",
          "type": "bytes"
        }
      ],
      "stateMutability": "view",
      "type": "function"
    },
    {
      "inputs": [
        {
          "internalType": "address",
          "name": "spender",
          "type": "address"
        },
        {
          "internalType": "uint256",
          "name": "addedValue",
          "type": "uint256"
        }
      ],
      "name": "increaseAllowance",
      "outputs": [
        {
          "internalType": "bool",
          "name": "",
          "type": "bool"
        }
      ],
      "stateMutability": "nonpayable",
      "type": "function"
    },
    {
      "inputs": [
        {
          "internalType": "uint16",
          "name": "_srcChainId",
          "type": "uint16"
        },
        {
          "internalType": "bytes",
          "name": "_srcAddress",
          "type": "bytes"
        }
      ],
      "name": "isTrustedRemote",
      "outputs": [
        {
          "internalType": "bool",
          "name": "",
          "type": "bool"
        }
      ],
      "stateMutability": "view",
      "type": "function"
    },
    {
      "inputs": [],
      "name": "lzEndpoint",
      "outputs": [
        {
          "internalType": "contract ILayerZeroEndpoint",
          "name": "",
          "type": "address"
        }
      ],
      "stateMutability": "view",
      "type": "function"
    },
    {
      "inputs": [
        {
          "internalType": "uint16",
          "name": "_srcChainId",
          "type": "uint16"
        },
        {
          "internalType": "bytes",
          "name": "_srcAddress",
          "type": "bytes"
        },
        {
          "internalType": "uint64",
          "name": "_nonce",
          "type": "uint64"
        },
        {
          "internalType": "bytes",
          "name": "_payload",
          "type": "bytes"
        }
      ],
      "name": "lzReceive",
      "outputs": [],
      "stateMutability": "nonpayable",
      "type": "function"
    },
    {
      "inputs": [
        {
          "internalType": "uint16",
          "name": "",
          "type": "uint16"
        },
        {
          "internalType": "uint16",
          "name": "",
          "type": "uint16"
        }
      ],
      "name": "minDstGasLookup",
      "outputs": [
        {
          "internalType": "uint256",
          "name": "",
          "type": "uint256"
        }
      ],
      "stateMutability": "view",
      "type": "function"
    },
    {
      "inputs": [],
      "name": "name",
      "outputs": [
        {
          "internalType": "string",
          "name": "",
          "type": "string"
        }
      ],
      "stateMutability": "view",
      "type": "function"
    },
    {
      "inputs": [
        {
          "internalType": "uint16",
          "name": "_srcChainId",
          "type": "uint16"
        },
        {
          "internalType": "bytes",
          "name": "_srcAddress",
          "type": "bytes"
        },
        {
          "internalType": "uint64",
          "name": "_nonce",
          "type": "uint64"
        },
        {
          "internalType": "bytes",
          "name": "_payload",
          "type": "bytes"
        }
      ],
      "name": "nonblockingLzReceive",
      "outputs": [],
      "stateMutability": "nonpayable",
      "type": "function"
    },
    {
      "inputs": [],
      "name": "owner",
      "outputs": [
        {
          "internalType": "address",
          "name": "",
          "type": "address"
        }
      ],
      "stateMutability": "view",
      "type": "function"
    },
    {
      "inputs": [],
      "name": "paused",
      "outputs": [
        {
          "internalType": "bool",
          "name": "",
          "type": "bool"
        }
      ],
      "stateMutability": "view",
      "type": "function"
    },
    {
      "inputs": [
        {
          "internalType": "uint16",
          "name": "",
          "type": "uint16"
        }
      ],
      "name": "payloadSizeLimitLookup",
      "outputs": [
        {
          "internalType": "uint256",
          "name": "",
          "type": "uint256"
        }
      ],
      "stateMutability": "view",
      "type": "function"
    },
    {
      "inputs": [],
      "name": "precrime",
      "outputs": [
        {
          "internalType": "address",
          "name": "",
          "type": "address"
        }
      ],
      "stateMutability": "view",
      "type": "function"
    },
    {
      "inputs": [],
      "name": "renounceOwnership",
      "outputs": [],
      "stateMutability": "nonpayable",
      "type": "function"
    },
    {
      "inputs": [
        {
          "internalType": "uint16",
          "name": "_srcChainId",
          "type": "uint16"
        },
        {
          "internalType": "bytes",
          "name": "_srcAddress",
          "type": "bytes"
        },
        {
          "internalType": "uint64",
          "name": "_nonce",
          "type": "uint64"
        },
        {
          "internalType": "bytes",
          "name": "_payload",
          "type": "bytes"
        }
      ],
      "name": "retryMessage",
      "outputs": [],
      "stateMutability": "payable",
      "type": "function"
    },
    {
      "inputs": [
        {
          "internalType": "address",
          "name": "_from",
          "type": "address"
        },
        {
          "internalType": "uint16",
          "name": "_dstChainId",
          "type": "uint16"
        },
        {
          "internalType": "bytes32",
          "name": "_toAddress",
          "type": "bytes32"
        },
        {
          "internalType": "uint256",
          "name": "_amount",
          "type": "uint256"
        },
        {
          "internalType": "bytes",
          "name": "_payload",
          "type": "bytes"
        },
        {
          "internalType": "uint64",
          "name": "_dstGasForCall",
          "type": "uint64"
        },
        {
          "components": [
            {
              "internalType": "address payable",
              "name": "refundAddress",
              "type": "address"
            },
            {
              "internalType": "address",
              "name": "zroPaymentAddress",
              "type": "address"
            },
            {
              "internalType": "bytes",
              "name": "adapterParams",
              "type": "bytes"
            }
          ],
          "internalType": "struct ICommonOFT.LzCallParams",
          "name": "_callParams",
          "type": "tuple"
        }
      ],
      "name": "sendAndCall",
      "outputs": [],
      "stateMutability": "payable",
      "type": "function"
    },
    {
      "inputs": [
        {
          "internalType": "address",
          "name": "_from",
          "type": "address"
        },
        {
          "internalType": "uint16",
          "name": "_dstChainId",
          "type": "uint16"
        },
        {
          "internalType": "bytes32",
          "name": "_toAddress",
          "type": "bytes32"
        },
        {
          "internalType": "uint256",
          "name": "_amount",
          "type": "uint256"
        },
        {
          "components": [
            {
              "internalType": "address payable",
              "name": "refundAddress",
              "type": "address"
            },
            {
              "internalType": "address",
              "name": "zroPaymentAddress",
              "type": "address"
            },
            {
              "internalType": "bytes",
              "name": "adapterParams",
              "type": "bytes"
            }
          ],
          "internalType": "struct ICommonOFT.LzCallParams",
          "name": "_callParams",
          "type": "tuple"
        }
      ],
      "name": "sendFrom",
      "outputs": [],
      "stateMutability": "payable",
      "type": "function"
    },
    {
      "inputs": [
        {
          "internalType": "uint16",
          "name": "_version",
          "type": "uint16"
        },
        {
          "internalType": "uint16",
          "name": "_chainId",
          "type": "uint16"
        },
        {
          "internalType": "uint256",
          "name": "_configType",
          "type": "uint256"
        },
        {
          "internalType": "bytes",
          "name": "_config",
          "type": "bytes"
        }
      ],
      "name": "setConfig",
      "outputs": [],
      "stateMutability": "nonpayable",
      "type": "function"
    },
    {
      "inputs": [
        {
          "internalType": "uint16",
          "name": "_dstChainId",
          "type": "uint16"
        },
        {
          "internalType": "uint16",
          "name": "_packetType",
          "type": "uint16"
        },
        {
          "internalType": "uint256",
          "name": "_minGas",
          "type": "uint256"
        }
      ],
      "name": "setMinDstGas",
      "outputs": [],
      "stateMutability": "nonpayable",
      "type": "function"
    },
    {
      "inputs": [
        {
          "internalType": "uint16",
          "name": "_dstChainId",
          "type": "uint16"
        },
        {
          "internalType": "uint256",
          "name": "_size",
          "type": "uint256"
        }
      ],
      "name": "setPayloadSizeLimit",
      "outputs": [],
      "stateMutability": "nonpayable",
      "type": "function"
    },
    {
      "inputs": [
        {
          "internalType": "address",
          "name": "_precrime",
          "type": "address"
        }
      ],
      "name": "setPrecrime",
      "outputs": [],
      "stateMutability": "nonpayable",
      "type": "function"
    },
    {
      "inputs": [
        {
          "internalType": "uint16",
          "name": "_version",
          "type": "uint16"
        }
      ],
      "name": "setReceiveVersion",
      "outputs": [],
      "stateMutability": "nonpayable",
      "type": "function"
    },
    {
      "inputs": [
        {
          "internalType": "uint16",
          "name": "_version",
          "type": "uint16"
        }
      ],
      "name": "setSendVersion",
      "outputs": [],
      "stateMutability": "nonpayable",
      "type": "function"
    },
    {
      "inputs": [
        {
          "internalType": "uint16",
          "name": "_srcChainId",
          "type": "uint16"
        },
        {
          "internalType": "bytes",
          "name": "_path",
          "type": "bytes"
        }
      ],
      "name": "setTrustedRemote",
      "outputs": [],
      "stateMutability": "nonpayable",
      "type": "function"
    },
    {
      "inputs": [
        {
          "internalType": "uint16",
          "name": "_remoteChainId",
          "type": "uint16"
        },
        {
          "internalType": "bytes",
          "name": "_remoteAddress",
          "type": "bytes"
        }
      ],
      "name": "setTrustedRemoteAddress",
      "outputs": [],
      "stateMutability": "nonpayable",
      "type": "function"
    },
    {
      "inputs": [
        {
          "internalType": "bool",
          "name": "_useCustomAdapterParams",
          "type": "bool"
        }
      ],
      "name": "setUseCustomAdapterParams",
      "outputs": [],
      "stateMutability": "nonpayable",
      "type": "function"
    },
    {
      "inputs": [],
      "name": "sharedDecimals",
      "outputs": [
        {
          "internalType": "uint8",
          "name": "",
          "type": "uint8"
        }
      ],
      "stateMutability": "view",
      "type": "function"
    },
    {
      "inputs": [
        {
          "internalType": "bytes4",
          "name": "interfaceId",
          "type": "bytes4"
        }
      ],
      "name": "supportsInterface",
      "outputs": [
        {
          "internalType": "bool",
          "name": "",
          "type": "bool"
        }
      ],
      "stateMutability": "view",
      "type": "function"
    },
    {
      "inputs": [],
      "name": "symbol",
      "outputs": [
        {
          "internalType": "string",
          "name": "",
          "type": "string"
        }
      ],
      "stateMutability": "view",
      "type": "function"
    },
    {
      "inputs": [],
      "name": "token",
      "outputs": [
        {
          "internalType": "address",
          "name": "",
          "type": "address"
        }
      ],
      "stateMutability": "view",
      "type": "function"
    },
    {
      "inputs": [],
      "name": "totalSupply",
      "outputs": [
        {
          "internalType": "uint256",
          "name": "",
          "type": "uint256"
        }
      ],
      "stateMutability": "view",
      "type": "function"
    },
    {
      "inputs": [
        {
          "internalType": "address",
          "name": "to",
          "type": "address"
        },
        {
          "internalType": "uint256",
          "name": "amount",
          "type": "uint256"
        }
      ],
      "name": "transfer",
      "outputs": [
        {
          "internalType": "bool",
          "name": "",
          "type": "bool"
        }
      ],
      "stateMutability": "nonpayable",
      "type": "function"
    },
    {
      "inputs": [
        {
          "internalType": "address",
          "name": "from",
          "type": "address"
        },
        {
          "internalType": "address",
          "name": "to",
          "type": "address"
        },
        {
          "internalType": "uint256",
          "name": "amount",
          "type": "uint256"
        }
      ],
      "name": "transferFrom",
      "outputs": [
        {
          "internalType": "bool",
          "name": "",
          "type": "bool"
        }
      ],
      "stateMutability": "nonpayable",
      "type": "function"
    },
    {
      "inputs": [
        {
          "internalType": "address",
          "name": "newOwner",
          "type": "address"
        }
      ],
      "name": "transferOwnership",
      "outputs": [],
      "stateMutability": "nonpayable",
      "type": "function"
    },
    {
      "inputs": [
        {
          "internalType": "uint16",
          "name": "",
          "type": "uint16"
        }
      ],
      "name": "trustedRemoteLookup",
      "outputs": [
        {
          "internalType": "bytes",
          "name": "",
          "type": "bytes"
        }
      ],
      "stateMutability": "view",
      "type": "function"
    },
    {
      "inputs": [],
      "name": "useCustomAdapterParams",
      "outputs": [
        {
          "internalType": "bool",
          "name": "",
          "type": "bool"
        }
      ],
      "stateMutability": "view",
      "type": "function"
    },
    {
      "inputs": [],
      "name": "yieldBox",
      "outputs": [
        {
          "internalType": "contract IYieldBoxBase",
          "name": "",
          "type": "address"
        }
      ],
      "stateMutability": "view",
      "type": "function"
    },
    {
      "stateMutability": "payable",
      "type": "receive"
    }
  ],
  "bytecode": "0x61010060409080825234620004d457606081620048ae8038038091620000268285620004d9565b833981010312620004d45780516001600160a01b039182821691829003620004d457602080820151918483168303620004d45785015193808516809503620004d4576200007262000513565b906200007d62000513565b60008054336001600160a01b03198083168217845598929493929184167f8be0079c531659141344cd1fd0a4f28419497f9722a3daafe3b4186f6b6457e08680a3608052600860a05283516001600160401b0391828211620003db57600b54916001968784811c94168015620004c9575b89851014620004b5578190601f9485811162000461575b508990858311600114620003fb578892620003ef575b5050600019600383901b1c191690871b17600b555b8051928311620003db57600c548681811c91168015620003d0575b88821014620003bc57908183899594931162000364575b5083918311600114620002f9576004949291869183620002ed575b5050600019600383901b1c191690861b17600c555b6402540be40060c052608051168951928380926303408e4760e41b82525afa908115620002e35790829189939162000298575b5061ffff1693848252600f815282822033835281528282209460ff199585878254161790558252601081528282209033835252209182541617905560e052600d541617600d555161436990816200054582396080518181816104920152818161075501528181610884015281816109fe01528181610bbf015281816119a701528181611b01015281816122c901528181612b4801528181612fc30152613479015260a05181611386015260c0518181816136bf0152818161395201528181613c050152613c9f015260e05181611dbe0152f35b80929350858092503d8311620002db575b620002b58183620004d9565b81010312620002d7575161ffff81168103620002d75787919061ffff620001c5565b5080fd5b503d620002a9565b88513d84823e3d90fd5b0151905038806200017d565b93918691601f19821690600c885285882091885b8181106200034b575096836004981062000331575b505050811b01600c5562000192565b015160001960f88460031b161c1916905538808062000322565b8289015184558b978b969094019392830192016200030d565b9091929350600c86528786208380860160051c8201928a8710620003b2575b9189918b97969594930160051c01915b828110620003a357505062000162565b8881558a965089910162000393565b9250819262000383565b634e487b7160e01b86526022600452602486fd5b90607f16906200014b565b634e487b7160e01b85526041600452602485fd5b0151905038806200011b565b600b89528a89208a94509190601f1984168a5b8d8282106200044a575050841162000430575b505050811b01600b5562000130565b015160001960f88460031b161c1916905538808062000421565b8385015186558d979095019493840193016200040e565b909150600b88528988208580850160051c8201928c8610620004ab575b918b91869594930160051c01915b8281106200049c57505062000105565b8a81558594508b91016200048c565b925081926200047e565b634e487b7160e01b87526022600452602487fd5b93607f1693620000ee565b600080fd5b601f909101601f19168101906001600160401b03821190821017620004fd57604052565b634e487b7160e01b600052604160045260246000fd5b60408051919082016001600160401b03811183821017620004fd5760405260048252635553444f60e01b602083015256fe6080604052600436101561001b575b361561001957600080fd5b005b60003560e01c80621d3567146103b057806301ffc9a7146103ab57806306fdde03146103a657806307e0db17146103a1578063095ea7b31461039c5780630df374831461039757806310ddb1371461039257806318160ddd1461032e57806323b872dd1461038d578063313ce56714610388578063365260b414610383578063395093511461037e5780633d8b38f6146103795780633f1f4fa41461037457806342d65a8d1461036f578063447705151461036a5780634c42899a1461036a5780635b8c41e6146103655780635c975abb1461036057806366ad5c8a1461035b578063695ef6bf1461035657806370a0823114610351578063715018a61461034c5780637533d7881461034757806376203b4814610342578063857749b01461033d5780638cfd8f5c146103385780638da5cb5b146103335780639358928b1461032e578063950c8a741461032957806395d89b41146103245780639bdb98121461031f5780639f38369a1461031a578063a04ae9f614610315578063a457c2d714610310578063a4c51df51461030b578063a6c3d16514610306578063a9059cbb14610301578063b353aaa7146102fc578063ba03a8d7146102f7578063baf3292d146102f2578063c4461834146102ed578063cbed8b9c146102e8578063ce8849ed146102e3578063d1deba1f146102de578063dbd01de1146102d9578063dd62ed3e146102d4578063de406577146102cf578063df2a5b3b146102ca578063e6a20ae6146102c5578063eab45d9c146102c0578063eaffd49a146102bb578063eb8d72b7146102b6578063ec6d062b146102b1578063ed629c5c146102ac578063f2fde38b146102a7578063f5ecbdbc146102a25763fc0c546a0361000e57612333565b61225f565b612198565b612175565b61212b565b611fe1565b611f58565b611ef6565b611eda565b611ded565b611da8565b611d4e565b611d25565b611bc2565b611b99565b611aad565b611a90565b611a20565b6119d6565b611991565b611967565b6117e4565b611751565b611693565b611604565b61153d565b6114f2565b61144e565b611425565b6108e5565b6113fc565b6113aa565b61136c565b61114e565b6110f7565b610fb1565b610f74565b610e91565b610dec565b610dc9565b610d62565b610c26565b610ba5565b610b6c565b610b10565b610a7c565b610974565b610943565b610903565b61085b565b61081c565b6107e7565b61072c565b61064c565b61058f565b61047b565b61ffff8116036103c157565b600080fd5b35906103d1826103b5565b565b9181601f840112156103c1578235916001600160401b0383116103c157602083818601950101116103c157565b608435906001600160401b03821682036103c157565b9060806003198301126103c15760043561042f816103b5565b916001600160401b03906024358281116103c15781610450916004016103d3565b9390939260443581811681036103c157926064359182116103c157610477916004016103d3565b9091565b346103c15761048936610416565b929493919291907f00000000000000000000000000000000000000000000000000000000000000006001600160a01b0316330361054a5761050f61051792610019976105086104ee6104e98a61ffff166000526001602052604060002090565b6110dc565b8051908184149182610540575b508161051d575b50612ecc565b3691610cac565b923691610cac565b9261320d565b905061052a368486610cac565b6020815191012090602081519101201438610502565b15159150386104fb565b60405162461bcd60e51b815260206004820152601e60248201527f4c7a4170703a20696e76616c696420656e64706f696e742063616c6c657200006044820152606490fd5b346103c15760203660031901126103c15760043563ffffffff60e01b81168091036103c157602090631f7ecdf760e01b81149081156105d4575b506040519015158152f35b6301ffc9a760e01b149050386105c9565b60009103126103c157565b60005b8381106106035750506000910152565b81810151838201526020016105f3565b9060209161062c815180928185528580860191016105f0565b601f01601f1916010190565b906020610649928181520190610613565b90565b346103c1576000806003193601126107295760405181600b5461066e8161100c565b8084529060019081811690811561070157506001146106a8575b6106a48461069881880382610c70565b60405191829182610638565b0390f35b600b8352602094507f0175b7a638427703f0dbe7bb9bbf987a2551717b34e79f33b5b1008d1fa01db95b8284106106ee57505050816106a4936106989282010193610688565b80548585018701529285019281016106d2565b6106a496506106989450602092508593915060ff191682840152151560051b82010193610688565b80fd5b346103c157600060203660031901126107295760043561074b816103b5565b61075361234e565b7f00000000000000000000000000000000000000000000000000000000000000006001600160a01b0316908290823b156107c757602461ffff918360405195869485936307e0db1760e01b85521660048401525af180156107c2576107b6575080f35b6107bf90610c58565b80f35b61278c565b5080fd5b6001600160a01b038116036103c157565b35906103d1826107cb565b346103c15760403660031901126103c157610811600435610807816107cb565b60243590336125a0565b602060405160018152f35b346103c15760403660031901126103c15761ffff60043561083c816103b5565b61084461234e565b166000526003602052602435604060002055600080f35b346103c157600060203660031901126107295760043561087a816103b5565b61088261234e565b7f00000000000000000000000000000000000000000000000000000000000000006001600160a01b0316908290823b156107c757602461ffff918360405195869485936310ddb13760e01b85521660048401525af180156107c2576107b6575080f35b346103c15760003660031901126103c1576020600a54604051908152f35b346103c15760603660031901126103c157610811600435610923816107cb565b60243561092f816107cb565b6044359161093e8333836126cb565b612498565b346103c15760003660031901126103c157602060405160128152f35b801515036103c157565b35906103d18261095f565b346103c15760a03660031901126103c157600435610991816103b5565b6064359061099e8261095f565b608435906001600160401b0382116103c1576109c361050860409336906004016103d3565b906109fa6109dd6109d5604435613c03565b602435613cd4565b928451958694859463040a7bb160e41b8652309060048701613614565b03817f00000000000000000000000000000000000000000000000000000000000000006001600160a01b03165afa9081156107c2576000908192610a4b575b50604080519182526020820192909252f35b9050610a6e915060403d8111610a75575b610a668183610c70565b8101906135fe565b9038610a39565b503d610a5c565b346103c15760403660031901126103c157600435610a99816107cb565b3360009081526009602090815260408083206001600160a01b03851684529091529020546024358101809111610ad35761081191336125a0565b6123a6565b9060406003198301126103c157600435610af1816103b5565b91602435906001600160401b0382116103c157610477916004016103d3565b346103c157602061ffff610b5d610b2636610ad8565b9390911660005260018452610b48610b4f604060002060405192838092611046565b0382610c70565b848151910120923691610cac565b82815191012014604051908152f35b346103c15760203660031901126103c15761ffff600435610b8c816103b5565b1660005260036020526020604060002054604051908152f35b346103c157610bb336610ad8565b9190610bbd61234e565b7f00000000000000000000000000000000000000000000000000000000000000006001600160a01b031691823b156103c157604051928380926342d65a8d60e01b825281610c146000988997889460048501613180565b03925af180156107c2576107b6575080f35b346103c15760003660031901126103c157602060405160008152f35b634e487b7160e01b600052604160045260246000fd5b6001600160401b038111610c6b57604052565b610c42565b90601f801991011681019081106001600160401b03821117610c6b57604052565b6001600160401b038111610c6b57601f01601f191660200190565b929192610cb882610c91565b91610cc66040519384610c70565b8294818452818301116103c1578281602093846000960137010152565b60606003198201126103c157600435610cfb816103b5565b916024356001600160401b03928382116103c157806023830112156103c157816024610d2c93600401359101610cac565b9160443590811681036103c15790565b602090610d569282604051948386809551938492016105f0565b82019081520301902090565b346103c1576020610dc061ffff610d9f83610d7c36610ce3565b9490911660005260058252604060002082604051948386809551938492016105f0565b820190815203019020906001600160401b0316600052602052604060002090565b54604051908152f35b346103c15760003660031901126103c157602060ff601154166040519015158152f35b346103c157610dfa36610416565b9192949390303303610e1e5761050f610e1892610019973691610cac565b92613658565b60405162461bcd60e51b815260206004820152602660248201527f4e6f6e626c6f636b696e674c7a4170703a2063616c6c6572206d7573742062656044820152650204c7a4170760d41b6064820152608490fd5b60609060c31901126103c15760c490565b908160609103126103c15790565b60a03660031901126103c157600435610ea9816107cb565b602435610eb5816103b5565b604435916084356001600160401b0381116103c157602061ffff610eec6000805160206142f4833981519152933690600401610e83565b93610f5f8535610efb816107cb565b610f196105088689013598610f0f8a6107cb565b60408101906133f7565b610f23818a613abe565b610f38610f31606435613c9d565b5085613ea7565b97610f44891515613835565b610f56610f508a613c03565b8c613cd4565b9234938b612f7f565b6040519485526001600160a01b0316941692a4005b346103c15760203660031901126103c157600435610f91816107cb565b60018060a01b031660005260086020526020604060002054604051908152f35b346103c15760008060031936011261072957610fcb61234e565b80546001600160a01b03198116825581906001600160a01b03167f8be0079c531659141344cd1fd0a4f28419497f9722a3daafe3b4186f6b6457e08280a380f35b90600182811c9216801561103c575b602083101461102657565b634e487b7160e01b600052602260045260246000fd5b91607f169161101b565b90600092918054916110578361100c565b9182825260019384811690816000146110b95750600114611079575b50505050565b90919394506000526020928360002092846000945b8386106110a5575050505001019038808080611073565b80548587018301529401938590820161108e565b9294505050602093945060ff191683830152151560051b01019038808080611073565b906103d16110f09260405193848092611046565b0383610c70565b346103c15760203660031901126103c15761ffff600435611117816103b5565b1660005260016020526106a4610b4861113a604060002060405192838092611046565b604051918291602083526020830190610613565b60e03660031901126103c157600435611166816107cb565b602435611172816103b5565b604435916001600160401b03906084358281116103c1576111979036906004016103d3565b91909260a43591818316918284036103c15760c4359081116103c1576111c1903690600401610e83565b926111f88435956111d1876107cb565b6111f06111e6602088013597610f0f896107cb565b9990923691610cac565b973691610cac565b9460ff600654166000146112eb5760228651106112a65785602095610f56610f5f946112748c61126161ffff9a8b60226000805160206142f48339815191529f0151931660005260028d5261125b60406000206001600052602052604060002090565b546123d8565b9061126d821515613b55565b1015613ba1565b611289611282606435613c9d565b5088613ea7565b9a6112958c1515613835565b8d61129f8d613c03565b9033613d61565b60405162461bcd60e51b815260206004820152601c60248201527f4c7a4170703a20696e76616c69642061646170746572506172616d73000000006044820152606490fd5b948094935051611318576000805160206142f48339815191529460209461ffff94610f56610f5f94611274565b60405162461bcd60e51b815260206004820152602660248201527f4f4654436f72653a205f61646170746572506172616d73206d7573742062652060448201526532b6b83a3c9760d11b6064820152608490fd5b346103c15760003660031901126103c157602060405160ff7f0000000000000000000000000000000000000000000000000000000000000000168152f35b346103c15760403660031901126103c1576020610dc06004356113cc816103b5565b61ffff602435916113dc836103b5565b166000526002835260406000209061ffff16600052602052604060002090565b346103c15760003660031901126103c1576000546040516001600160a01b039091168152602090f35b346103c15760003660031901126103c1576004546040516001600160a01b039091168152602090f35b346103c1576000806003193601126107295760405181600c546114708161100c565b808452906001908181169081156107015750600114611499576106a48461069881880382610c70565b600c8352602094507fdf6966c971051c3d54ec59162606531493a51404a002842f56009d7e5cf4a8c75b8284106114df57505050816106a4936106989282010193610688565b80548585018701529285019281016114c3565b346103c157602060ff61153161ffff610d9f8461150e36610ce3565b9490911660005260078252604060002082604051948386809551938492016105f0565b54166040519015158152f35b346103c15760203660031901126103c15761ffff60043561155d816103b5565b166000526001602052610b4861157d604060002060405192838092611046565b80511561159b57610698816115956106a493516131ef565b906140e7565b60405162461bcd60e51b815260206004820152601d60248201527f4c7a4170703a206e6f20747275737465642070617468207265636f72640000006044820152606490fd5b60c09060031901126103c157600490565b60c0906101231901126103c15761012490565b6102203660031901126103c15761161a366115e0565b61162336610e72565b9061162d366115f1565b6101e435906001600160401b03928383116103c157366023840112156103c1578260040135918483116103c1573660246101c08502860101116103c157610204359485116103c1576100199561168960249636906004016103d3565b9690950192612ac6565b346103c15760403660031901126103c1576004356116b0816107cb565b602435903360005260096020526116dd8160406000209060018060a01b0316600052602052604060002090565b54918083106116fe576116f2920390336125a0565b60405160018152602090f35b60405162461bcd60e51b815260206004820152602560248201527f45524332303a2064656372656173656420616c6c6f77616e63652062656c6f77604482015264207a65726f60d81b6064820152608490fd5b346103c15760e03660031901126103c15760043561176e816103b5565b6001600160401b03906064358281116103c15761178f9036906004016103d3565b61179a929192610400565b60a435916117a78361095f565b60c4359586116103c1576117c26117d29636906004016103d3565b9590946044359060243590613429565b60408051928352602083019190915290f35b346103c1576117f236610ad8565b906117fb61234e565b604051926020928083858701376118276034868381013060601b88820152036014810188520186610c70565b60009361ffff8316855260019081815260408620918751916001600160401b038311610c6b576118618361185b865461100c565b8661319b565b80601f84116001146118d15750918080926118c09695948a9b7f8c0400cfe2d1199b1a725c78960bcc2a344d869b80590d0f2bd005db15a572ce9b946118c6575b50501b916000199060031b1c19161790555b60405193849384613180565b0390a180f35b0151925038806118a2565b91939498601f1984166118e987600052602060002090565b938a905b828210611950575050917f8c0400cfe2d1199b1a725c78960bcc2a344d869b80590d0f2bd005db15a572ce999a959391856118c098969410611937575b505050811b0190556118b4565b015160001960f88460031b161c1916905538808061192a565b8088869782949787015181550196019401906118ed565b346103c15760403660031901126103c157610811600435611987816107cb565b6024359033612498565b346103c15760003660031901126103c1576040517f00000000000000000000000000000000000000000000000000000000000000006001600160a01b03168152602090f35b346103c15760403660031901126103c157602060ff6115316024356119fa816107cb565b600435600052600f845260406000209060018060a01b0316600052602052604060002090565b346103c15760203660031901126103c1577f5db758e995a17ec1ad84bdef7e8c3293a0bd6179bcce400dff5d4c3d87db726b6020600435611a60816107cb565b611a6861234e565b600480546001600160a01b0319166001600160a01b03929092169182179055604051908152a1005b346103c15760003660031901126103c15760206040516127108152f35b346103c15760803660031901126103c157600435611aca816103b5565b602435611ad6816103b5565b6064356001600160401b0381116103c157611af59036906004016103d3565b9092611aff61234e565b7f00000000000000000000000000000000000000000000000000000000000000006001600160a01b031690813b156103c15760008094611b76604051978896879586946332fb62e760e21b865261ffff8092166004870152166024850152604435604485015260806064850152608484019161315f565b03925af180156107c257611b8657005b80611b9361001992610c58565b806105e5565b346103c15760003660031901126103c157600e546040516001600160a01b039091168152602090f35b611bcb36610416565b9161ffff86949296166000526005602052611c1281604060002060206040518092878b833787820190815203019020906001600160401b0316600052602052604060002090565b54918215611cd457611cc38483611cbc7fc264d91f3adc5588250e1551f547752ca0cfa8f6b530d243b9f9f4cab10ea8e59a6000611ca884611c908e8a8f611ccf9f908f611c7690611c69611c8a9436908d610cac565b602081519101201461336a565b61ffff166000526005602052604060002090565b91613351565b906001600160401b0316600052602052604060002090565b55611cb436878d610cac565b933691610cac565b9188613658565b604051958695866133c0565b0390a1005b60405162461bcd60e51b815260206004820152602360248201527f4e6f6e626c6f636b696e674c7a4170703a206e6f2073746f726564206d65737360448201526261676560e81b6064820152608490fd5b346103c15760003660031901126103c157600d546040516001600160a01b039091168152602090f35b346103c15760403660031901126103c1576020610dc0600435611d70816107cb565b60243590611d7d826107cb565b60018060a01b03166000526009835260406000209060018060a01b0316600052602052604060002090565b346103c15760003660031901126103c1576040517f00000000000000000000000000000000000000000000000000000000000000006001600160a01b03168152602090f35b346103c15760603660031901126103c157600435611e0a816103b5565b602435611e16816103b5565b60443591611e2261234e565b8215611e9d57611ccf7f9d5c7c0b934da8fefa9c7760c98383778a12dfbfc0c3b3106518f43fb9508ac09361ffff8316600052600260205280611e778560406000209061ffff16600052602052604060002090565b556040519384938460409194939294606082019561ffff80921683521660208201520152565b60405162461bcd60e51b81526020600482015260156024820152744c7a4170703a20696e76616c6964206d696e47617360581b6044820152606490fd5b346103c15760003660031901126103c157602060405160018152f35b346103c15760203660031901126103c1577f1584ad594a70cbe1e6515592e1272a987d922b097ead875069cebe8b40c004a46020600435611f368161095f565b611f3e61234e565b151560ff196006541660ff821617600655604051908152a1005b346103c1576101003660031901126103c157600435611f76816103b5565b6001600160401b03906024358281116103c157611f979036906004016103d3565b91906044359084821682036103c157608435611fb2816107cb565b60c4359586116103c157611fcd6100199636906004016103d3565b94909360e4359660a435946064359361351f565b346103c157611fef36610ad8565b9190611ff961234e565b60009161ffff81168352600160209080825260408520916001600160401b038711610c6b576120328761202c855461100c565b8561319b565b8590601f881160011461209957509186808798936118c0957ffa41487ad5d6728f0b19276fa1eddc16558578f5109fc39d2dc33c3230470dab999361208e575b501b906000198460031b1c191617905560405193849384613180565b880135925038612072565b90601f1988166120ae85600052602060002090565b9288905b828210612114575050918893917ffa41487ad5d6728f0b19276fa1eddc16558578f5109fc39d2dc33c3230470dab98996118c09694106120fa575b505082811b0190556118b4565b870135600019600386901b60f8161c1916905538806120ed565b808685968294968c013581550195019301906120b2565b346103c15760403660031901126103c157602060ff61153160243561214f816107cb565b6004356000526010845260406000209060018060a01b0316600052602052604060002090565b346103c15760003660031901126103c157602060ff600654166040519015158152f35b346103c15760203660031901126103c1576004356121b5816107cb565b6121bd61234e565b6001600160a01b03908116801561220b57600080546001600160a01b03198116831782559092167f8be0079c531659141344cd1fd0a4f28419497f9722a3daafe3b4186f6b6457e08380a380f35b60405162461bcd60e51b815260206004820152602660248201527f4f776e61626c653a206e6577206f776e657220697320746865207a65726f206160448201526564647265737360d01b6064820152608490fd5b346103c15760803660031901126103c15760043561227c816103b5565b60243590612289826103b5565b6122946044356107cb565b604051633d7b2f6f60e21b815261ffff91821660048201529116602482015230604482015260648035908201526000816084817f00000000000000000000000000000000000000000000000000000000000000006001600160a01b03165afa80156107c2576106a491600091612312575b5060405191829182610638565b61232d913d8091833e6123258183610c70565b810190613101565b38612305565b346103c15760003660031901126103c1576020604051308152f35b6000546001600160a01b0316330361236257565b606460405162461bcd60e51b815260206004820152602060248201527f4f776e61626c653a2063616c6c6572206973206e6f7420746865206f776e65726044820152fd5b634e487b7160e01b600052601160045260246000fd5b90601f8201809211610ad357565b6051019081605111610ad357565b91908201809211610ad357565b156123ec57565b60405162461bcd60e51b815260206004820152602360248201527f45524332303a207472616e7366657220746f20746865207a65726f206164647260448201526265737360e81b6064820152608490fd5b1561244457565b60405162461bcd60e51b815260206004820152602660248201527f45524332303a207472616e7366657220616d6f756e7420657863656564732062604482015265616c616e636560d01b6064820152608490fd5b916001600160a01b03808416929091831561254d5761253282600080516020614314833981519152946125489416966124d28815156123e5565b6001600160a01b0381166000908152600860205260409020612517908590546124fd8282101561243d565b039160018060a01b03166000526008602052604060002090565b556001600160a01b0316600090815260086020526040902090565b8054820190556040519081529081906020820190565b0390a3565b60405162461bcd60e51b815260206004820152602560248201527f45524332303a207472616e736665722066726f6d20746865207a65726f206164604482015264647265737360d81b6064820152608490fd5b6001600160a01b03808216929190831561267a57821693841561262a57806126197f8c5be1e5ebec7d5bd14f71427d1e84f3dd0314c0f7b2291e5b200ac8c7c3b925946126026125489560018060a01b03166000526009602052604060002090565b9060018060a01b0316600052602052604060002090565b556040519081529081906020820190565b60405162461bcd60e51b815260206004820152602260248201527f45524332303a20617070726f766520746f20746865207a65726f206164647265604482015261737360f01b6064820152608490fd5b60405162461bcd60e51b8152602060048201526024808201527f45524332303a20617070726f76652066726f6d20746865207a65726f206164646044820152637265737360e01b6064820152608490fd5b6001600160a01b0380821660009081526009602090815260408083209386168352929052209091905492600184016127035750505050565b80841061271e576127159303916125a0565b38808080611073565b60405162461bcd60e51b815260206004820152601d60248201527f45524332303a20696e73756666696369656e7420616c6c6f77616e63650000006044820152606490fd5b35610649816107cb565b35610649816103b5565b908160209103126103c157516106498161095f565b6040513d6000823e3d90fd5b1561279f57565b60405162461bcd60e51b81526020600482015260146024820152731554d113ce881b9bdd08185d5d1a1bdc9a5e995960621b6044820152606490fd5b156127e257565b60405162461bcd60e51b8152602060048201526019602482015278155114d3ce881cd95b99195c881b9bdd08185c1c1c9bdd9959603a1b6044820152606490fd5b908160209103126103c15751610649816103b5565b1561283f57565b60405162461bcd60e51b815260206004820152600b60248201526a1513d19517d05353d5539560aa1b6044820152606490fd5b60a0809180356128818161095f565b151584526020810135612893816107cb565b600180841b03809116602086015261ffff60408301356128b2816103b5565b1660408601526060820135606086015260808201356128d0816107cb565b1660808501520135910152565b359060ff821682036103c157565b9190808252602080920192916000905b828210612909575050505090565b909192938061292360019261291d88610969565b15159052565b612939612931848801610969565b151582850152565b6129516040612949818901610969565b151590830152565b6129616060612949818901610969565b61297b60806129718189016103c6565b61ffff1690830152565b61299a60a061298b8189016107dc565b6001600160a01b031690830152565b6129aa60c0612949818901610969565b6129ba60e061298b8189016107dc565b6129cb61010061298b8189016107dc565b610120808701359082015261014080870135908201526129fb6101606129f28189016128dd565b60ff1690830152565b61018086810135908201526101a080870135908201526101c09081019501939201906128fb565b96959490612ac19360a06101e096946001600160401b03612aaf946103098d521660208c01528035612a53816107cb565b600180841b0380911660408d0152806020830135612a70816107cb565b1660608d0152604082013560808d01526060820135838d01526080820135612a97816107cb565b1660c08c0152013560e08a0152610100890190612872565b610200806101c08901528701916128eb565b930152565b9491926001600160a01b03929160208086018186612ae383612763565b16612cec575b5050612af488612763565b8533911603612c8c575b612b16612b0a89612763565b6001600160a01b031690565b98604089013597612b2689613c9d565b5095612b318b612763565b93604051976303408e4760e41b895281896004818d7f0000000000000000000000000000000000000000000000000000000000000000165afa9586156107c2576000805160206142f48339815191529b612be38f969a612c469b612ba88996612c4c9f96612bf197612c419e612c5f575b50613ea7565b91612bb4831515612838565b612bd4612bca612bc5368e8d610cac565b612e19565b5095915050613c03565b946040519788968a8801612a22565b03601f198101835282610c70565b612c0e612bfd8861276d565b612c08368887610cac565b90613b13565b612c3b612c31612c29612b0a612c238b61276d565b97612763565b938901612763565b9334963691610cac565b93612f7f565b61276d565b94612763565b604051938452169261ffff1691602090a4565b612c7e908b3d8d11612c85575b612c768183610c70565b810190612823565b5038612ba2565b503d612c6c565b612ce7612cc733612c9c8b612763565b6001600160a01b03908116600090815260096020908152604080832093909416825291909152205490565b612cd860408b0135809210156127db565b33612ce28b612763565b6126cb565b612afe565b600d54612d4e9290612d06906001600160a01b0316612b0a565b612d18612d128761276d565b92612763565b604051633a304d8b60e21b815261ffff90931660048401526001600160a01b031660248301529092839190829081906044820190565b03915afa80156107c257612d6a91600091612d71575b50612798565b3881612ae9565b612d919150833d8511612d97575b612d898183610c70565b810190612777565b38612d64565b503d612d7f565b15612da557565b60405162461bcd60e51b8152602060048201526012602482015271556e737570706f727465642074785479706560701b6044820152606490fd5b15612de657565b60405162461bcd60e51b815260206004820152600b60248201526a47617320746f6f206c6f7760a81b6044820152606490fd5b600080825160228114908115612ec1575b5015612e8457600283015193602284015193600261ffff8716600181148015612e7b575b612e5790612d9e565b612e62871515612ddf565b14612e6a5750565b925090506056604283015192015190565b50808214612e4e565b60405162461bcd60e51b8152602060048201526015602482015274496e76616c69642061646170746572506172616d7360581b6044820152606490fd5b604291501138612e2a565b15612ed357565b60405162461bcd60e51b815260206004820152602660248201527f4c7a4170703a20696e76616c696420736f757263652073656e64696e6720636f6044820152651b9d1c9858dd60d21b6064820152608490fd5b92612f4c61064997959361ffff612f5a9416865260c0602087015260c0860190610613565b908482036040860152610613565b6001600160a01b0391821660608401529316608082015280830360a090910152610613565b94612fa89193929561ffff81166000526001602052612faf604060002060405194858092611046565b0384610c70565b82511561303457612fc1855182613092565b7f00000000000000000000000000000000000000000000000000000000000000006001600160a01b031693843b156103c15760009661301691604051998a988997889662c5803160e81b885260048801612f27565b03925af180156107c2576130275750565b80611b936103d192610c58565b60405162461bcd60e51b815260206004820152603060248201527f4c7a4170703a2064657374696e6174696f6e20636861696e206973206e6f742060448201526f61207472757374656420736f7572636560801b6064820152608490fd5b61ffff1660005260036020526040600020549081156130f7575b116130b357565b606460405162461bcd60e51b815260206004820152602060248201527f4c7a4170703a207061796c6f61642073697a6520697320746f6f206c617267656044820152fd5b61271091506130ac565b6020818303126103c1578051906001600160401b0382116103c1570181601f820112156103c157805161313381610c91565b926131416040519485610c70565b818452602082840101116103c15761064991602080850191016105f0565b908060209392818452848401376000828201840152601f01601f1916010190565b60409061ffff6106499593168152816020820152019161315f565b90601f81116131a957505050565b600091825260208220906020601f850160051c830194106131e5575b601f0160051c01915b8281106131da57505050565b8181556001016131ce565b90925082906131c5565b601319810191908211610ad357565b605019810191908211610ad357565b92909161327f5a604051633356ae4560e11b602082015261ffff8716602482015260806044820152906132798261326b61324a60a483018a610613565b6001600160401b038816606484015282810360231901608484015288610613565b03601f198101845283610c70565b30614296565b93901561328e575b5050505050565b613297946132a1565b3880808080613287565b919361333e7fe183f33de2837795525b4792ca4cd60535bd77c53b7e7030060bfcf5734d6b0c9561334c939561ffff8151602083012096169586600052600560205261330583610d9f60208b604060002082604051948386809551938492016105f0565b556001600160401b0361332a604051988998895260a060208a015260a0890190610613565b921660408701528582036060870152610613565b908382036080850152610613565b0390a1565b6020919283604051948593843782019081520301902090565b1561337157565b60405162461bcd60e51b815260206004820152602160248201527f4e6f6e626c6f636b696e674c7a4170703a20696e76616c6964207061796c6f616044820152601960fa1b6064820152608490fd5b916133ec9060609461ffff6001600160401b03949998979916855260806020860152608085019161315f565b951660408201520152565b903590601e19813603018212156103c157018035906001600160401b0382116103c1576020019181360383136103c157565b94919598979061129f61345260409961344a61345897613475993691610cac565b943691610cac565b97613c03565b928451968794859463040a7bb160e41b8652309060048701613614565b03817f00000000000000000000000000000000000000000000000000000000000000006001600160a01b03165afa9182156107c25760009081936134b857509190565b905061047791925060403d8111610a7557610a668183610c70565b939694916135019061064999979461ffff6001600160401b039416875260c0602088015260c087019161315f565b961660408401526060830152608082015260a081850391015261315f565b919697929895949390943033036135b95761353b908530614033565b60405181815290946001600160a01b03169390849061ffff8516907fbf551ec93859b170f9b2141bd9298bf3f64322c6f7beb2543a0cb669834118bf90602090a3833b156103c15760009889956135a9936040519c8d9b8c9a8b98633fe79aed60e11b8a5260048a016134d3565b0393f180156107c2576130275750565b60405162461bcd60e51b815260206004820152601f60248201527f4f4654436f72653a2063616c6c6572206d757374206265204f4654436f7265006044820152606490fd5b91908260409103126103c1576020825192015190565b9192610649959361ffff6136439316845260018060a01b0316602084015260a0604084015260a0830190610613565b92151560608201526080818403910152610613565b92919060ff6136668461423b565b16806137e05750505060ff61367a8261423b565b1615806137d5575b61368b90613d1a565b61369d613697826141eb565b91614286565b90916001600160a01b0391828416156137cb575b6136e5906001600160401b037f00000000000000000000000000000000000000000000000000000000000000009116613c8a565b918316928315613786577fbf551ec93859b170f9b2141bd9298bf3f64322c6f7beb2543a0cb669834118bf9161374661ffff9261372c61372787600a546123d8565b600a55565b6001600160a01b0316600090815260086020526040902090565b8481540190558460006000805160206143148339815191526040518061377189829190602083019252565b0390a360405193845216918060208101612548565b60405162461bcd60e51b815260206004820152601f60248201527f45524332303a206d696e7420746f20746865207a65726f2061646472657373006044820152606490fd5b61dead93506136b1565b508051602914613682565b6001036137f0576103d193613906565b60405162461bcd60e51b815260206004820152601c60248201527f4f4654436f72653a20756e6b6e6f776e207061636b65742074797065000000006044820152606490fd5b1561383c57565b60405162461bcd60e51b815260206004820152601960248201527813d19510dbdc994e88185b5bdd5b9d081d1bdbc81cdb585b1b603a1b6044820152606490fd5b98979692936001600160401b036138af60e0989461ffff612ac19995168d5260208d61010091829101528d0190610613565b951660408b015260608a01526001600160a01b0316608089015260a088015286820360c0880152610613565b6001600160401b036138fb60409396959496606084526060840190610613565b951660208201520152565b909161391184613dce565b909161394261393b87611c906139358b61ffff166000526007602052604060002090565b8c610d3c565b5460ff1690565b916139786001600160401b0392837f00000000000000000000000000000000000000000000000000000000000000009116613c8a565b9288888b8315613a74575b505050853b15613a2957946139ca9694613279948a9461326b948d99600014613a225750505a925b5a978b6040519a8b9863757fea4d60e11b60208b015260248a0161387d565b9015613a17575090613a1261ffff928560207fb8890edbfc1c74692f527444645f95489c3703cc2df42e4a366f5d06fa6cd884969751910120906040519485941696846138db565b0390a2565b926103d194926132a1565b16926139ab565b50506040516001600160a01b039094168452507f9aedf5fdba8716db3b6705ca00150643309995d4f818a249ed6dde6677e7792d97509195508594505060208401925061334c915050565b90611c90613aa992613aa389613a8e613ab6979b30613fd0565b9961ffff166000526007602052604060002090565b90610d3c565b805460ff19166001179055565b88888b613983565b60065460ff1615613b0b5760228251106112a65761ffff60226103d193015191166000526002602052613afe604060002060008052602052604060002090565b549061126d821515613b55565b505161131857565b60065460ff1615613b0b5760228251106112a65761ffff60226103d193015191166000526002602052613afe6040600020610309600052602052604060002090565b15613b5c57565b60405162461bcd60e51b815260206004820152601a60248201527f4c7a4170703a206d696e4761734c696d6974206e6f74207365740000000000006044820152606490fd5b15613ba857565b60405162461bcd60e51b815260206004820152601b60248201527f4c7a4170703a20676173206c696d697420697320746f6f206c6f7700000000006044820152606490fd5b634e487b7160e01b600052601260045260246000fd5b7f0000000000000000000000000000000000000000000000000000000000000000908115613c8557046001600160401b0390818111613c40571690565b60405162461bcd60e51b815260206004820152601a60248201527f4f4654436f72653a20616d6f756e745344206f766572666c6f770000000000006044820152606490fd5b613bed565b81810292918115918404141715610ad357565b7f00000000000000000000000000000000000000000000000000000000000000008015613c8557810690818103908111610ad35791565b90604051916000602084015260218301526001600160401b0360c01b9060c01b16604182015260298152606081018181106001600160401b03821117610c6b5760405290565b15613d2157565b60405162461bcd60e51b815260206004820152601860248201527713d19510dbdc994e881a5b9d985b1a59081c185e5b1bd85960421b6044820152606490fd5b939260719261064994604051968794600160f81b602087015260218601526001600160401b0360c01b809360c01b16604186015260018060a01b0316604985015260c01b166069830152613dbe81518092602086860191016105f0565b8101036051810184520182610c70565b90613de6600160ff613ddf8561423b565b1614613d1a565b613def826141eb565b90613df983614286565b906049845110613e6a576049840151936051815110613e2e57613e2b605182015191613e2581516131fe565b90614167565b91565b60405162461bcd60e51b8152602060048201526014602482015273746f55696e7436345f6f75744f66426f756e647360601b6044820152606490fd5b60405162461bcd60e51b8152602060048201526015602482015274746f427974657333325f6f75744f66426f756e647360581b6044820152606490fd5b6001600160a01b038116338103613f69575b8015613f1a5781613eef84613ee260009560018060a01b03166000526008602052604060002090565b546124fd82821015613f79565b55613efd83600a5403600a55565b60405183815260008051602061431483398151915290602090a390565b60405162461bcd60e51b815260206004820152602160248201527f45524332303a206275726e2066726f6d20746865207a65726f206164647265736044820152607360f81b6064820152608490fd5b613f748333846126cb565b613eb9565b15613f8057565b60405162461bcd60e51b815260206004820152602260248201527f45524332303a206275726e20616d6f756e7420657863656564732062616c616e604482015261636560f01b6064820152608490fd5b6001600160a01b0381169190821561378657600a5490828201809211610ad35760009261402460209260008051602061431483398151915294600a5560018060a01b03166000526008602052604060002090565b818154019055604051908152a3565b6106499183916001600160a01b03811630811415908161405f575b50156124985761093e8333836126cb565b90503314153861404e565b1561407157565b60405162461bcd60e51b815260206004820152600e60248201526d736c6963655f6f766572666c6f7760901b6044820152606490fd5b156140ae57565b60405162461bcd60e51b8152602060048201526011602482015270736c6963655f6f75744f66426f756e647360781b6044820152606490fd5b6140fb826140f4816123bc565b101561406a565b61410882825110156140a7565b81614120575050604051600081526020810160405290565b60405191601f811691821560051b808486010193838501920101905b8084106141545750508252601f01601f191660405290565b909283518152602080910193019061413c565b614174826140f4816123bc565b6141898151614182846123ca565b11156140a7565b816141a1575050604051600081526020810160405290565b60405191601f8116916051831560051b80858701019484860193010101905b8084106141d85750508252601f01601f191660405290565b90928351815260208091019301906141c0565b60218151106141fe57602d015160601c90565b60405162461bcd60e51b8152602060048201526015602482015274746f416464726573735f6f75744f66426f756e647360581b6044820152606490fd5b600181511061424b576001015190565b60405162461bcd60e51b8152602060048201526013602482015272746f55696e74385f6f75744f66426f756e647360681b6044820152606490fd5b6029815110613e2e576029015190565b6040519392909160009160c08601916001600160401b03831187841017610c6b5783926040526096875282602088019560a036883760208451940192f1903d90609682116142ea575b6000908286523e9190565b609691506142df56fed81fc9b8523134ed613870ed029d6170cbb73aa6a6bc311b9a642689fb9df59addf252ad1be2c89b69c2b068fc378daa952ba7f163c4a11628f55a4df523b3efa26469706673582212202c2cfdcf565eac2fdd0269a6ecdb6826febf53c09746391430e809d07156c3bb64736f6c63430008120033",
  "linkReferences": {},
  "deployedLinkReferences": {}
}