{
  "_format": "hh-sol-artifact-1",
  "contractName": "USDOGenericModule",
  "sourceName": "contracts/usd0/modules/USDOGenericModule.sol",
  "abi": [
    {
      "inputs": [
        {
          "internalType": "address",
          "name": "_lzEndpoint",
          "type": "address"
        },
        {
          "internalType": "contract IYieldBoxBase",
          "name": "_yieldBox",
          "type": "address"
        },
        {
          "internalType": "contract ICluster",
          "name": "_cluster",
          "type": "address"
        }
      ],
      "stateMutability": "nonpayable",
      "type": "constructor"
    },
    {
      "anonymous": false,
      "inputs": [
        {
          "indexed": true,
          "internalType": "address",
          "name": "owner",
          "type": "address"
        },
        {
          "indexed": true,
          "internalType": "address",
          "name": "spender",
          "type": "address"
        },
        {
          "indexed": false,
          "internalType": "uint256",
          "name": "value",
          "type": "uint256"
        }
      ],
      "name": "Approval",
      "type": "event"
    },
    {
      "anonymous": false,
      "inputs": [
        {
          "indexed": true,
          "internalType": "uint16",
          "name": "_srcChainId",
          "type": "uint16"
        },
        {
          "indexed": false,
          "internalType": "bytes",
          "name": "_srcAddress",
          "type": "bytes"
        },
        {
          "indexed": false,
          "internalType": "uint64",
          "name": "_nonce",
          "type": "uint64"
        },
        {
          "indexed": false,
          "internalType": "bytes32",
          "name": "_hash",
          "type": "bytes32"
        }
      ],
      "name": "CallOFTReceivedSuccess",
      "type": "event"
    },
    {
      "anonymous": false,
      "inputs": [
        {
          "indexed": false,
          "internalType": "uint16",
          "name": "_srcChainId",
          "type": "uint16"
        },
        {
          "indexed": false,
          "internalType": "bytes",
          "name": "_srcAddress",
          "type": "bytes"
        },
        {
          "indexed": false,
          "internalType": "uint64",
          "name": "_nonce",
          "type": "uint64"
        },
        {
          "indexed": false,
          "internalType": "bytes",
          "name": "_payload",
          "type": "bytes"
        },
        {
          "indexed": false,
          "internalType": "bytes",
          "name": "_reason",
          "type": "bytes"
        }
      ],
      "name": "MessageFailed",
      "type": "event"
    },
    {
      "anonymous": false,
      "inputs": [
        {
          "indexed": false,
          "internalType": "address",
          "name": "_address",
          "type": "address"
        }
      ],
      "name": "NonContractAddress",
      "type": "event"
    },
    {
      "anonymous": false,
      "inputs": [
        {
          "indexed": true,
          "internalType": "address",
          "name": "previousOwner",
          "type": "address"
        },
        {
          "indexed": true,
          "internalType": "address",
          "name": "newOwner",
          "type": "address"
        }
      ],
      "name": "OwnershipTransferred",
      "type": "event"
    },
    {
      "anonymous": false,
      "inputs": [
        {
          "indexed": false,
          "internalType": "bool",
          "name": "oldState",
          "type": "bool"
        },
        {
          "indexed": false,
          "internalType": "bool",
          "name": "newState",
          "type": "bool"
        }
      ],
      "name": "PausedUpdated",
      "type": "event"
    },
    {
      "anonymous": false,
      "inputs": [
        {
          "indexed": true,
          "internalType": "uint16",
          "name": "_srcChainId",
          "type": "uint16"
        },
        {
          "indexed": true,
          "internalType": "address",
          "name": "_to",
          "type": "address"
        },
        {
          "indexed": false,
          "internalType": "uint256",
          "name": "_amount",
          "type": "uint256"
        }
      ],
      "name": "ReceiveFromChain",
      "type": "event"
    },
    {
      "anonymous": false,
      "inputs": [
        {
          "indexed": false,
          "internalType": "uint16",
          "name": "_srcChainId",
          "type": "uint16"
        },
        {
          "indexed": false,
          "internalType": "bytes",
          "name": "_srcAddress",
          "type": "bytes"
        },
        {
          "indexed": false,
          "internalType": "uint64",
          "name": "_nonce",
          "type": "uint64"
        },
        {
          "indexed": false,
          "internalType": "bytes32",
          "name": "_payloadHash",
          "type": "bytes32"
        }
      ],
      "name": "RetryMessageSuccess",
      "type": "event"
    },
    {
      "anonymous": false,
      "inputs": [
        {
          "indexed": true,
          "internalType": "uint16",
          "name": "_dstChainId",
          "type": "uint16"
        },
        {
          "indexed": true,
          "internalType": "address",
          "name": "_from",
          "type": "address"
        },
        {
          "indexed": true,
          "internalType": "bytes32",
          "name": "_toAddress",
          "type": "bytes32"
        },
        {
          "indexed": false,
          "internalType": "uint256",
          "name": "_amount",
          "type": "uint256"
        }
      ],
      "name": "SendToChain",
      "type": "event"
    },
    {
      "anonymous": false,
      "inputs": [
        {
          "indexed": true,
          "internalType": "address",
          "name": "_for",
          "type": "address"
        },
        {
          "indexed": false,
          "internalType": "bool",
          "name": "_status",
          "type": "bool"
        }
      ],
      "name": "SetBurnerStatus",
      "type": "event"
    },
    {
      "anonymous": false,
      "inputs": [
        {
          "indexed": false,
          "internalType": "uint16",
          "name": "_dstChainId",
          "type": "uint16"
        },
        {
          "indexed": false,
          "internalType": "uint16",
          "name": "_type",
          "type": "uint16"
        },
        {
          "indexed": false,
          "internalType": "uint256",
          "name": "_minDstGas",
          "type": "uint256"
        }
      ],
      "name": "SetMinDstGas",
      "type": "event"
    },
    {
      "anonymous": false,
      "inputs": [
        {
          "indexed": true,
          "internalType": "address",
          "name": "_for",
          "type": "address"
        },
        {
          "indexed": false,
          "internalType": "bool",
          "name": "_status",
          "type": "bool"
        }
      ],
      "name": "SetMinterStatus",
      "type": "event"
    },
    {
      "anonymous": false,
      "inputs": [
        {
          "indexed": false,
          "internalType": "address",
          "name": "precrime",
          "type": "address"
        }
      ],
      "name": "SetPrecrime",
      "type": "event"
    },
    {
      "anonymous": false,
      "inputs": [
        {
          "indexed": false,
          "internalType": "uint16",
          "name": "_remoteChainId",
          "type": "uint16"
        },
        {
          "indexed": false,
          "internalType": "bytes",
          "name": "_path",
          "type": "bytes"
        }
      ],
      "name": "SetTrustedRemote",
      "type": "event"
    },
    {
      "anonymous": false,
      "inputs": [
        {
          "indexed": false,
          "internalType": "uint16",
          "name": "_remoteChainId",
          "type": "uint16"
        },
        {
          "indexed": false,
          "internalType": "bytes",
          "name": "_remoteAddress",
          "type": "bytes"
        }
      ],
      "name": "SetTrustedRemoteAddress",
      "type": "event"
    },
    {
      "anonymous": false,
      "inputs": [
        {
          "indexed": false,
          "internalType": "bool",
          "name": "_useCustomAdapterParams",
          "type": "bool"
        }
      ],
      "name": "SetUseCustomAdapterParams",
      "type": "event"
    },
    {
      "anonymous": false,
      "inputs": [
        {
          "indexed": true,
          "internalType": "address",
          "name": "from",
          "type": "address"
        },
        {
          "indexed": true,
          "internalType": "address",
          "name": "to",
          "type": "address"
        },
        {
          "indexed": false,
          "internalType": "uint256",
          "name": "value",
          "type": "uint256"
        }
      ],
      "name": "Transfer",
      "type": "event"
    },
    {
      "inputs": [],
      "name": "DEFAULT_PAYLOAD_SIZE_LIMIT",
      "outputs": [
        {
          "internalType": "uint256",
          "name": "",
          "type": "uint256"
        }
      ],
      "stateMutability": "view",
      "type": "function"
    },
    {
      "inputs": [],
      "name": "NO_EXTRA_GAS",
      "outputs": [
        {
          "internalType": "uint256",
          "name": "",
          "type": "uint256"
        }
      ],
      "stateMutability": "view",
      "type": "function"
    },
    {
      "inputs": [],
      "name": "PT_SEND",
      "outputs": [
        {
          "internalType": "uint8",
          "name": "",
          "type": "uint8"
        }
      ],
      "stateMutability": "view",
      "type": "function"
    },
    {
      "inputs": [],
      "name": "PT_SEND_AND_CALL",
      "outputs": [
        {
          "internalType": "uint8",
          "name": "",
          "type": "uint8"
        }
      ],
      "stateMutability": "view",
      "type": "function"
    },
    {
      "inputs": [
        {
          "internalType": "address",
          "name": "owner",
          "type": "address"
        },
        {
          "internalType": "address",
          "name": "spender",
          "type": "address"
        }
      ],
      "name": "allowance",
      "outputs": [
        {
          "internalType": "uint256",
          "name": "",
          "type": "uint256"
        }
      ],
      "stateMutability": "view",
      "type": "function"
    },
    {
      "inputs": [
        {
          "internalType": "uint256",
          "name": "",
          "type": "uint256"
        },
        {
          "internalType": "address",
          "name": "",
          "type": "address"
        }
      ],
      "name": "allowedBurner",
      "outputs": [
        {
          "internalType": "bool",
          "name": "",
          "type": "bool"
        }
      ],
      "stateMutability": "view",
      "type": "function"
    },
    {
      "inputs": [
        {
          "internalType": "uint256",
          "name": "",
          "type": "uint256"
        },
        {
          "internalType": "address",
          "name": "",
          "type": "address"
        }
      ],
      "name": "allowedMinter",
      "outputs": [
        {
          "internalType": "bool",
          "name": "",
          "type": "bool"
        }
      ],
      "stateMutability": "view",
      "type": "function"
    },
    {
      "inputs": [
        {
          "internalType": "address",
          "name": "spender",
          "type": "address"
        },
        {
          "internalType": "uint256",
          "name": "amount",
          "type": "uint256"
        }
      ],
      "name": "approve",
      "outputs": [
        {
          "internalType": "bool",
          "name": "",
          "type": "bool"
        }
      ],
      "stateMutability": "nonpayable",
      "type": "function"
    },
    {
      "inputs": [
        {
          "internalType": "address",
          "name": "account",
          "type": "address"
        }
      ],
      "name": "balanceOf",
      "outputs": [
        {
          "internalType": "uint256",
          "name": "",
          "type": "uint256"
        }
      ],
      "stateMutability": "view",
      "type": "function"
    },
    {
      "inputs": [
        {
          "internalType": "uint16",
          "name": "_srcChainId",
          "type": "uint16"
        },
        {
          "internalType": "bytes",
          "name": "_srcAddress",
          "type": "bytes"
        },
        {
          "internalType": "uint64",
          "name": "_nonce",
          "type": "uint64"
        },
        {
          "internalType": "bytes32",
          "name": "_from",
          "type": "bytes32"
        },
        {
          "internalType": "address",
          "name": "_to",
          "type": "address"
        },
        {
          "internalType": "uint256",
          "name": "_amount",
          "type": "uint256"
        },
        {
          "internalType": "bytes",
          "name": "_payload",
          "type": "bytes"
        },
        {
          "internalType": "uint256",
          "name": "_gasForCall",
          "type": "uint256"
        }
      ],
      "name": "callOnOFTReceived",
      "outputs": [],
      "stateMutability": "nonpayable",
      "type": "function"
    },
    {
      "inputs": [],
      "name": "circulatingSupply",
      "outputs": [
        {
          "internalType": "uint256",
          "name": "",
          "type": "uint256"
        }
      ],
      "stateMutability": "view",
      "type": "function"
    },
    {
      "inputs": [],
      "name": "cluster",
      "outputs": [
        {
          "internalType": "contract ICluster",
          "name": "",
          "type": "address"
        }
      ],
      "stateMutability": "view",
      "type": "function"
    },
    {
      "inputs": [],
      "name": "conservator",
      "outputs": [
        {
          "internalType": "address",
          "name": "",
          "type": "address"
        }
      ],
      "stateMutability": "view",
      "type": "function"
    },
    {
      "inputs": [
        {
          "internalType": "uint16",
          "name": "",
          "type": "uint16"
        },
        {
          "internalType": "bytes",
          "name": "",
          "type": "bytes"
        },
        {
          "internalType": "uint64",
          "name": "",
          "type": "uint64"
        }
      ],
      "name": "creditedPackets",
      "outputs": [
        {
          "internalType": "bool",
          "name": "",
          "type": "bool"
        }
      ],
      "stateMutability": "view",
      "type": "function"
    },
    {
      "inputs": [],
      "name": "decimals",
      "outputs": [
        {
          "internalType": "uint8",
          "name": "",
          "type": "uint8"
        }
      ],
      "stateMutability": "view",
      "type": "function"
    },
    {
      "inputs": [
        {
          "internalType": "address",
          "name": "spender",
          "type": "address"
        },
        {
          "internalType": "uint256",
          "name": "subtractedValue",
          "type": "uint256"
        }
      ],
      "name": "decreaseAllowance",
      "outputs": [
        {
          "internalType": "bool",
          "name": "",
          "type": "bool"
        }
      ],
      "stateMutability": "nonpayable",
      "type": "function"
    },
    {
      "inputs": [
        {
          "internalType": "uint16",
          "name": "_dstChainId",
          "type": "uint16"
        },
        {
          "internalType": "bytes32",
          "name": "_toAddress",
          "type": "bytes32"
        },
        {
          "internalType": "uint256",
          "name": "_amount",
          "type": "uint256"
        },
        {
          "internalType": "bytes",
          "name": "_payload",
          "type": "bytes"
        },
        {
          "internalType": "uint64",
          "name": "_dstGasForCall",
          "type": "uint64"
        },
        {
          "internalType": "bool",
          "name": "_useZro",
          "type": "bool"
        },
        {
          "internalType": "bytes",
          "name": "_adapterParams",
          "type": "bytes"
        }
      ],
      "name": "estimateSendAndCallFee",
      "outputs": [
        {
          "internalType": "uint256",
          "name": "nativeFee",
          "type": "uint256"
        },
        {
          "internalType": "uint256",
          "name": "zroFee",
          "type": "uint256"
        }
      ],
      "stateMutability": "view",
      "type": "function"
    },
    {
      "inputs": [
        {
          "internalType": "uint16",
          "name": "_dstChainId",
          "type": "uint16"
        },
        {
          "internalType": "bytes32",
          "name": "_toAddress",
          "type": "bytes32"
        },
        {
          "internalType": "uint256",
          "name": "_amount",
          "type": "uint256"
        },
        {
          "internalType": "bool",
          "name": "_useZro",
          "type": "bool"
        },
        {
          "internalType": "bytes",
          "name": "_adapterParams",
          "type": "bytes"
        }
      ],
      "name": "estimateSendFee",
      "outputs": [
        {
          "internalType": "uint256",
          "name": "nativeFee",
          "type": "uint256"
        },
        {
          "internalType": "uint256",
          "name": "zroFee",
          "type": "uint256"
        }
      ],
      "stateMutability": "view",
      "type": "function"
    },
    {
      "inputs": [
        {
          "internalType": "uint16",
          "name": "",
          "type": "uint16"
        },
        {
          "internalType": "bytes",
          "name": "",
          "type": "bytes"
        },
        {
          "internalType": "uint64",
          "name": "",
          "type": "uint64"
        }
      ],
      "name": "failedMessages",
      "outputs": [
        {
          "internalType": "bytes32",
          "name": "",
          "type": "bytes32"
        }
      ],
      "stateMutability": "view",
      "type": "function"
    },
    {
      "inputs": [
        {
          "internalType": "uint16",
          "name": "_srcChainId",
          "type": "uint16"
        },
        {
          "internalType": "bytes",
          "name": "_srcAddress",
          "type": "bytes"
        }
      ],
      "name": "forceResumeReceive",
      "outputs": [],
      "stateMutability": "nonpayable",
      "type": "function"
    },
    {
      "inputs": [
        {
          "internalType": "uint16",
          "name": "_version",
          "type": "uint16"
        },
        {
          "internalType": "uint16",
          "name": "_chainId",
          "type": "uint16"
        },
        {
          "internalType": "address",
          "name": "",
          "type": "address"
        },
        {
          "internalType": "uint256",
          "name": "_configType",
          "type": "uint256"
        }
      ],
      "name": "getConfig",
      "outputs": [
        {
          "internalType": "bytes",
          "name": "",
          "type": "bytes"
        }
      ],
      "stateMutability": "view",
      "type": "function"
    },
    {
      "inputs": [
        {
          "internalType": "uint16",
          "name": "_remoteChainId",
          "type": "uint16"
        }
      ],
      "name": "getTrustedRemoteAddress",
      "outputs": [
        {
          "internalType": "bytes",
          "name": "",
          "type": "bytes"
        }
      ],
      "stateMutability": "view",
      "type": "function"
    },
    {
      "inputs": [
        {
          "internalType": "address",
          "name": "spender",
          "type": "address"
        },
        {
          "internalType": "uint256",
          "name": "addedValue",
          "type": "uint256"
        }
      ],
      "name": "increaseAllowance",
      "outputs": [
        {
          "internalType": "bool",
          "name": "",
          "type": "bool"
        }
      ],
      "stateMutability": "nonpayable",
      "type": "function"
    },
    {
      "inputs": [
        {
          "internalType": "uint16",
          "name": "_srcChainId",
          "type": "uint16"
        },
        {
          "internalType": "bytes",
          "name": "_srcAddress",
          "type": "bytes"
        }
      ],
      "name": "isTrustedRemote",
      "outputs": [
        {
          "internalType": "bool",
          "name": "",
          "type": "bool"
        }
      ],
      "stateMutability": "view",
      "type": "function"
    },
    {
      "inputs": [],
      "name": "lzEndpoint",
      "outputs": [
        {
          "internalType": "contract ILayerZeroEndpoint",
          "name": "",
          "type": "address"
        }
      ],
      "stateMutability": "view",
      "type": "function"
    },
    {
      "inputs": [
        {
          "internalType": "uint16",
          "name": "_srcChainId",
          "type": "uint16"
        },
        {
          "internalType": "bytes",
          "name": "_srcAddress",
          "type": "bytes"
        },
        {
          "internalType": "uint64",
          "name": "_nonce",
          "type": "uint64"
        },
        {
          "internalType": "bytes",
          "name": "_payload",
          "type": "bytes"
        }
      ],
      "name": "lzReceive",
      "outputs": [],
      "stateMutability": "nonpayable",
      "type": "function"
    },
    {
      "inputs": [
        {
          "internalType": "uint16",
          "name": "",
          "type": "uint16"
        },
        {
          "internalType": "uint16",
          "name": "",
          "type": "uint16"
        }
      ],
      "name": "minDstGasLookup",
      "outputs": [
        {
          "internalType": "uint256",
          "name": "",
          "type": "uint256"
        }
      ],
      "stateMutability": "view",
      "type": "function"
    },
    {
      "inputs": [],
      "name": "name",
      "outputs": [
        {
          "internalType": "string",
          "name": "",
          "type": "string"
        }
      ],
      "stateMutability": "view",
      "type": "function"
    },
    {
      "inputs": [
        {
          "internalType": "uint16",
          "name": "_srcChainId",
          "type": "uint16"
        },
        {
          "internalType": "bytes",
          "name": "_srcAddress",
          "type": "bytes"
        },
        {
          "internalType": "uint64",
          "name": "_nonce",
          "type": "uint64"
        },
        {
          "internalType": "bytes",
          "name": "_payload",
          "type": "bytes"
        }
      ],
      "name": "nonblockingLzReceive",
      "outputs": [],
      "stateMutability": "nonpayable",
      "type": "function"
    },
    {
      "inputs": [],
      "name": "owner",
      "outputs": [
        {
          "internalType": "address",
          "name": "",
          "type": "address"
        }
      ],
      "stateMutability": "view",
      "type": "function"
    },
    {
      "inputs": [],
      "name": "paused",
      "outputs": [
        {
          "internalType": "bool",
          "name": "",
          "type": "bool"
        }
      ],
      "stateMutability": "view",
      "type": "function"
    },
    {
      "inputs": [
        {
          "internalType": "uint16",
          "name": "",
          "type": "uint16"
        }
      ],
      "name": "payloadSizeLimitLookup",
      "outputs": [
        {
          "internalType": "uint256",
          "name": "",
          "type": "uint256"
        }
      ],
      "stateMutability": "view",
      "type": "function"
    },
    {
      "inputs": [],
      "name": "precrime",
      "outputs": [
        {
          "internalType": "address",
          "name": "",
          "type": "address"
        }
      ],
      "stateMutability": "view",
      "type": "function"
    },
    {
      "inputs": [],
      "name": "renounceOwnership",
      "outputs": [],
      "stateMutability": "nonpayable",
      "type": "function"
    },
    {
      "inputs": [
        {
          "internalType": "uint16",
          "name": "_srcChainId",
          "type": "uint16"
        },
        {
          "internalType": "bytes",
          "name": "_srcAddress",
          "type": "bytes"
        },
        {
          "internalType": "uint64",
          "name": "_nonce",
          "type": "uint64"
        },
        {
          "internalType": "bytes",
          "name": "_payload",
          "type": "bytes"
        }
      ],
      "name": "retryMessage",
      "outputs": [],
      "stateMutability": "payable",
      "type": "function"
    },
    {
      "inputs": [
        {
          "internalType": "address",
          "name": "_from",
          "type": "address"
        },
        {
          "internalType": "uint16",
          "name": "_dstChainId",
          "type": "uint16"
        },
        {
          "internalType": "bytes32",
          "name": "_toAddress",
          "type": "bytes32"
        },
        {
          "internalType": "uint256",
          "name": "_amount",
          "type": "uint256"
        },
        {
          "internalType": "bytes",
          "name": "_payload",
          "type": "bytes"
        },
        {
          "internalType": "uint64",
          "name": "_dstGasForCall",
          "type": "uint64"
        },
        {
          "components": [
            {
              "internalType": "address payable",
              "name": "refundAddress",
              "type": "address"
            },
            {
              "internalType": "address",
              "name": "zroPaymentAddress",
              "type": "address"
            },
            {
              "internalType": "bytes",
              "name": "adapterParams",
              "type": "bytes"
            }
          ],
          "internalType": "struct ICommonOFT.LzCallParams",
          "name": "_callParams",
          "type": "tuple"
        }
      ],
      "name": "sendAndCall",
      "outputs": [],
      "stateMutability": "payable",
      "type": "function"
    },
    {
      "inputs": [
        {
          "internalType": "address",
          "name": "_from",
          "type": "address"
        },
        {
          "internalType": "uint16",
          "name": "_dstChainId",
          "type": "uint16"
        },
        {
          "internalType": "bytes32",
          "name": "_toAddress",
          "type": "bytes32"
        },
        {
          "internalType": "uint256",
          "name": "_amount",
          "type": "uint256"
        },
        {
          "components": [
            {
              "internalType": "address payable",
              "name": "refundAddress",
              "type": "address"
            },
            {
              "internalType": "address",
              "name": "zroPaymentAddress",
              "type": "address"
            },
            {
              "internalType": "bytes",
              "name": "adapterParams",
              "type": "bytes"
            }
          ],
          "internalType": "struct ICommonOFT.LzCallParams",
          "name": "_callParams",
          "type": "tuple"
        }
      ],
      "name": "sendFrom",
      "outputs": [],
      "stateMutability": "payable",
      "type": "function"
    },
    {
      "inputs": [
        {
          "internalType": "bytes",
          "name": "_payload",
          "type": "bytes"
        }
      ],
      "name": "sendFromDestination",
      "outputs": [],
      "stateMutability": "nonpayable",
      "type": "function"
    },
    {
      "inputs": [
        {
          "internalType": "uint16",
          "name": "_version",
          "type": "uint16"
        },
        {
          "internalType": "uint16",
          "name": "_chainId",
          "type": "uint16"
        },
        {
          "internalType": "uint256",
          "name": "_configType",
          "type": "uint256"
        },
        {
          "internalType": "bytes",
          "name": "_config",
          "type": "bytes"
        }
      ],
      "name": "setConfig",
      "outputs": [],
      "stateMutability": "nonpayable",
      "type": "function"
    },
    {
      "inputs": [
        {
          "internalType": "uint16",
          "name": "_dstChainId",
          "type": "uint16"
        },
        {
          "internalType": "uint16",
          "name": "_packetType",
          "type": "uint16"
        },
        {
          "internalType": "uint256",
          "name": "_minGas",
          "type": "uint256"
        }
      ],
      "name": "setMinDstGas",
      "outputs": [],
      "stateMutability": "nonpayable",
      "type": "function"
    },
    {
      "inputs": [
        {
          "internalType": "uint16",
          "name": "_dstChainId",
          "type": "uint16"
        },
        {
          "internalType": "uint256",
          "name": "_size",
          "type": "uint256"
        }
      ],
      "name": "setPayloadSizeLimit",
      "outputs": [],
      "stateMutability": "nonpayable",
      "type": "function"
    },
    {
      "inputs": [
        {
          "internalType": "address",
          "name": "_precrime",
          "type": "address"
        }
      ],
      "name": "setPrecrime",
      "outputs": [],
      "stateMutability": "nonpayable",
      "type": "function"
    },
    {
      "inputs": [
        {
          "internalType": "uint16",
          "name": "_version",
          "type": "uint16"
        }
      ],
      "name": "setReceiveVersion",
      "outputs": [],
      "stateMutability": "nonpayable",
      "type": "function"
    },
    {
      "inputs": [
        {
          "internalType": "uint16",
          "name": "_version",
          "type": "uint16"
        }
      ],
      "name": "setSendVersion",
      "outputs": [],
      "stateMutability": "nonpayable",
      "type": "function"
    },
    {
      "inputs": [
        {
          "internalType": "uint16",
          "name": "_srcChainId",
          "type": "uint16"
        },
        {
          "internalType": "bytes",
          "name": "_path",
          "type": "bytes"
        }
      ],
      "name": "setTrustedRemote",
      "outputs": [],
      "stateMutability": "nonpayable",
      "type": "function"
    },
    {
      "inputs": [
        {
          "internalType": "uint16",
          "name": "_remoteChainId",
          "type": "uint16"
        },
        {
          "internalType": "bytes",
          "name": "_remoteAddress",
          "type": "bytes"
        }
      ],
      "name": "setTrustedRemoteAddress",
      "outputs": [],
      "stateMutability": "nonpayable",
      "type": "function"
    },
    {
      "inputs": [
        {
          "internalType": "bool",
          "name": "_useCustomAdapterParams",
          "type": "bool"
        }
      ],
      "name": "setUseCustomAdapterParams",
      "outputs": [],
      "stateMutability": "nonpayable",
      "type": "function"
    },
    {
      "inputs": [],
      "name": "sharedDecimals",
      "outputs": [
        {
          "internalType": "uint8",
          "name": "",
          "type": "uint8"
        }
      ],
      "stateMutability": "view",
      "type": "function"
    },
    {
      "inputs": [
        {
          "internalType": "bytes4",
          "name": "interfaceId",
          "type": "bytes4"
        }
      ],
      "name": "supportsInterface",
      "outputs": [
        {
          "internalType": "bool",
          "name": "",
          "type": "bool"
        }
      ],
      "stateMutability": "view",
      "type": "function"
    },
    {
      "inputs": [],
      "name": "symbol",
      "outputs": [
        {
          "internalType": "string",
          "name": "",
          "type": "string"
        }
      ],
      "stateMutability": "view",
      "type": "function"
    },
    {
      "inputs": [],
      "name": "token",
      "outputs": [
        {
          "internalType": "address",
          "name": "",
          "type": "address"
        }
      ],
      "stateMutability": "view",
      "type": "function"
    },
    {
      "inputs": [],
      "name": "totalSupply",
      "outputs": [
        {
          "internalType": "uint256",
          "name": "",
          "type": "uint256"
        }
      ],
      "stateMutability": "view",
      "type": "function"
    },
    {
      "inputs": [
        {
          "internalType": "address",
          "name": "to",
          "type": "address"
        },
        {
          "internalType": "uint256",
          "name": "amount",
          "type": "uint256"
        }
      ],
      "name": "transfer",
      "outputs": [
        {
          "internalType": "bool",
          "name": "",
          "type": "bool"
        }
      ],
      "stateMutability": "nonpayable",
      "type": "function"
    },
    {
      "inputs": [
        {
          "internalType": "address",
          "name": "from",
          "type": "address"
        },
        {
          "internalType": "address",
          "name": "to",
          "type": "address"
        },
        {
          "internalType": "uint256",
          "name": "amount",
          "type": "uint256"
        }
      ],
      "name": "transferFrom",
      "outputs": [
        {
          "internalType": "bool",
          "name": "",
          "type": "bool"
        }
      ],
      "stateMutability": "nonpayable",
      "type": "function"
    },
    {
      "inputs": [
        {
          "internalType": "address",
          "name": "newOwner",
          "type": "address"
        }
      ],
      "name": "transferOwnership",
      "outputs": [],
      "stateMutability": "nonpayable",
      "type": "function"
    },
    {
      "inputs": [
        {
          "internalType": "uint16",
          "name": "lzDstChainId",
          "type": "uint16"
        },
        {
          "internalType": "bytes",
          "name": "airdropAdapterParams",
          "type": "bytes"
        },
        {
          "internalType": "uint256",
          "name": "amount",
          "type": "uint256"
        },
        {
          "components": [
            {
              "internalType": "address payable",
              "name": "refundAddress",
              "type": "address"
            },
            {
              "internalType": "address",
              "name": "zroPaymentAddress",
              "type": "address"
            },
            {
              "internalType": "bytes",
              "name": "adapterParams",
              "type": "bytes"
            }
          ],
          "internalType": "struct ISendFrom.LzCallParams",
          "name": "sendFromData",
          "type": "tuple"
        },
        {
          "components": [
            {
              "internalType": "bool",
              "name": "permitAll",
              "type": "bool"
            },
            {
              "internalType": "bool",
              "name": "allowFailure",
              "type": "bool"
            },
            {
              "internalType": "bool",
              "name": "approveOnYieldBox",
              "type": "bool"
            },
            {
              "internalType": "uint16",
              "name": "actionType",
              "type": "uint16"
            },
            {
              "internalType": "address",
              "name": "target",
              "type": "address"
            },
            {
              "internalType": "bool",
              "name": "permitBorrow",
              "type": "bool"
            },
            {
              "internalType": "address",
              "name": "owner",
              "type": "address"
            },
            {
              "internalType": "address",
              "name": "spender",
              "type": "address"
            },
            {
              "internalType": "uint256",
              "name": "value",
              "type": "uint256"
            },
            {
              "internalType": "uint256",
              "name": "deadline",
              "type": "uint256"
            },
            {
              "internalType": "uint8",
              "name": "v",
              "type": "uint8"
            },
            {
              "internalType": "bytes32",
              "name": "r",
              "type": "bytes32"
            },
            {
              "internalType": "bytes32",
              "name": "s",
              "type": "bytes32"
            }
          ],
          "internalType": "struct ICommonData.IApproval[]",
          "name": "approvals",
          "type": "tuple[]"
        }
      ],
      "name": "triggerSendFrom",
      "outputs": [],
      "stateMutability": "payable",
      "type": "function"
    },
    {
      "inputs": [
        {
          "internalType": "uint16",
          "name": "",
          "type": "uint16"
        }
      ],
      "name": "trustedRemoteLookup",
      "outputs": [
        {
          "internalType": "bytes",
          "name": "",
          "type": "bytes"
        }
      ],
      "stateMutability": "view",
      "type": "function"
    },
    {
      "inputs": [],
      "name": "useCustomAdapterParams",
      "outputs": [
        {
          "internalType": "bool",
          "name": "",
          "type": "bool"
        }
      ],
      "stateMutability": "view",
      "type": "function"
    },
    {
      "inputs": [],
      "name": "yieldBox",
      "outputs": [
        {
          "internalType": "contract IYieldBoxBase",
          "name": "",
          "type": "address"
        }
      ],
      "stateMutability": "view",
      "type": "function"
    },
    {
      "stateMutability": "payable",
      "type": "receive"
    }
  ],
  "bytecode": "0x61010060409080825234620004db5760608162004ff38038038091620000268285620004e0565b833981010312620004db5780516001600160a01b039182821691829003620004db57602080820151918483168303620004db5785015193808516809503620004db57620000726200051a565b906200007d6200051a565b60008054336001600160a01b03198083168217845598929493929184167f8be0079c531659141344cd1fd0a4f28419497f9722a3daafe3b4186f6b6457e08680a3608052600860a05283516001600160401b0391828211620003e257600b54916001968784811c94168015620004d0575b89851014620004bc578190601f9485811162000468575b50899085831160011462000402578892620003f6575b5050600019600383901b1c191690871b17600b555b8051928311620003e257600c548681811c91168015620003d7575b88821014620003c35790818389959493116200036b575b508391831160011462000300576004949291869183620002f4575b5050600019600383901b1c191690861b17600c555b6402540be40060c052608051168951928380926303408e4760e41b82525afa908115620002ea579082918993916200029f575b5061ffff1693848252600f815282822033835281528282209460ff199585878254161790558252601081528282209033835252209182541617905560e052600d541617600d5551614aa790816200054c823960805181818161049d015281816107600152818161089b01528181610a1501528181610bca01528181611a4601528181611bbf01528181612306015281816129ed015281816136c50152613c8d015260a0518161134a015260c05181818161197501528181613eba0152818161412c015281816143000152614398015260e05181611e400152f35b80929350858092503d8311620002e2575b620002bc8183620004e0565b81010312620002de575161ffff81168103620002de5787919061ffff620001c5565b5080fd5b503d620002b0565b88513d84823e3d90fd5b0151905038806200017d565b93918691601f19821690600c885285882091885b81811062000352575096836004981062000338575b505050811b01600c5562000192565b015160001960f88460031b161c1916905538808062000329565b8289015184558b978b9690940193928301920162000314565b9091929350600c86528786208380860160051c8201928a8710620003b9575b9189918b97969594930160051c01915b828110620003aa57505062000162565b8881558a96508991016200039a565b925081926200038a565b634e487b7160e01b86526022600452602486fd5b90607f16906200014b565b634e487b7160e01b85526041600452602485fd5b0151905038806200011b565b600b89528a89208a94509190601f1984168a5b8d82821062000451575050841162000437575b505050811b01600b5562000130565b015160001960f88460031b161c1916905538808062000428565b8385015186558d9790950194938401930162000415565b909150600b88528988208580850160051c8201928c8610620004b2575b918b91869594930160051c01915b828110620004a357505062000105565b8a81558594508b910162000493565b9250819262000485565b634e487b7160e01b87526022600452602487fd5b93607f1693620000ee565b600080fd5b601f909101601f19168101906001600160401b038211908210176200050457604052565b634e487b7160e01b600052604160045260246000fd5b60408051919082016001600160401b03811183821017620005045760405260048252635553444f60e01b602083015256fe6080604052600436101561001b575b361561001957600080fd5b005b60003560e01c80621d3567146103c057806301ffc9a7146103bb57806306fdde03146103b657806307e0db17146103b1578063095ea7b3146103ac5780630df37483146103a757806310ddb137146103a257806318160ddd1461033e57806323b872dd1461039d578063313ce56714610398578063365260b414610393578063395093511461038e5780633d8b38f6146103895780633f1f4fa41461038457806342d65a8d1461037f578063447705151461037a5780634c42899a1461037a5780635b8c41e6146103755780635c975abb1461037057806366ad5c8a1461036b578063695ef6bf1461036657806370a0823114610361578063715018a61461035c5780637533d7881461035757806376203b4814610352578063857749b01461034d5780638cfd8f5c146103485780638da5cb5b146103435780639358928b1461033e578063950c8a7414610339578063952168c51461033457806395d89b411461032f5780639bdb98121461032a5780639f38369a14610325578063a457c2d714610320578063a4c51df51461031b578063a6c3d16514610316578063a9059cbb14610311578063af2ee9751461030c578063b353aaa714610307578063ba03a8d714610302578063baf3292d146102fd578063c4461834146102f8578063cbed8b9c146102f3578063ce8849ed146102ee578063d1deba1f146102e9578063dbd01de1146102e4578063dd62ed3e146102df578063de406577146102da578063df2a5b3b146102d5578063e6a20ae6146102d0578063eab45d9c146102cb578063eaffd49a146102c6578063eb8d72b7146102c1578063ec6d062b146102bc578063ed629c5c146102b7578063f2fde38b146102b2578063f5ecbdbc146102ad5763fc0c546a0361000e57612370565b61229c565b6121e7565b6121c4565b61218c565b612063565b611fda565b611f78565b611f5c565b611e6f565b611e2a565b611de0565b611db7565b611c7a565b611c51565b611b6b565b611b4e565b611ade565b611aa6565b611a30565b611908565b6118de565b61177c565b6116e5565b611639565b611596565b61154b565b6114a7565b611412565b6113e9565b6108fc565b6113c0565b61136e565b611330565b611199565b611142565b61100e565b610fd1565b610eee565b610e5a565b610e37565b610de3565b610c31565b610bb0565b610b77565b610b1b565b610a93565b61098b565b61095a565b61091a565b610872565b610833565b6107fe565b610737565b610657565b61059a565b610486565b61ffff8116036103d157565b600080fd5b35906103e1826103c5565b565b9181601f840112156103d1578235916001600160401b0383116103d157602083818601950101116103d157565b6001600160401b038116036103d157565b9060806003198301126103d15760043561043a816103c5565b916001600160401b03906024358281116103d1578161045b916004016103e3565b9390939260443561046b81610410565b926064359182116103d157610482916004016103e3565b9091565b346103d15761049436610421565b929493919291907f00000000000000000000000000000000000000000000000000000000000000006001600160a01b031633036105555761051a61052292610019976105136104f96104f48a61ffff166000526001602052604060002090565b611127565b805190818414918261054b575b5081610528575b506135ce565b3691610d0f565b923691610d0f565b92613a20565b9050610535368486610d0f565b602081519101209060208151910120143861050d565b1515915038610506565b60405162461bcd60e51b815260206004820152601e60248201527f4c7a4170703a20696e76616c696420656e64706f696e742063616c6c657200006044820152606490fd5b346103d15760203660031901126103d15760043563ffffffff60e01b81168091036103d157602090631f7ecdf760e01b81149081156105df575b506040519015158152f35b6301ffc9a760e01b149050386105d4565b60009103126103d157565b60005b83811061060e5750506000910152565b81810151838201526020016105fe565b90602091610637815180928185528580860191016105fb565b601f01601f1916010190565b90602061065492818152019061061e565b90565b346103d1576000806003193601126107345760405181600b5461067981611057565b8084529060019081811690811561070c57506001146106b3575b6106af846106a381880382610cb1565b60405191829182610643565b0390f35b600b8352602094507f0175b7a638427703f0dbe7bb9bbf987a2551717b34e79f33b5b1008d1fa01db95b8284106106f957505050816106af936106a39282010193610693565b80548585018701529285019281016106dd565b6106af96506106a39450602092508593915060ff191682840152151560051b82010193610693565b80fd5b346103d1576000602036600319011261073457600435610756816103c5565b61075e61238b565b7f00000000000000000000000000000000000000000000000000000000000000006001600160a01b0316908290823b156107d257602461ffff918360405195869485936307e0db1760e01b85521660048401525af180156107cd576107c1575080f35b6107ca90610c63565b80f35b61276d565b5080fd5b6001600160a01b031690565b6001600160a01b038116036103d157565b35906103e1826107e2565b346103d15760403660031901126103d15761082860043561081e816107e2565b60243590336125a4565b602060405160018152f35b346103d15760403660031901126103d15761ffff600435610853816103c5565b61085b61238b565b166000526003602052602435604060002055600080f35b346103d1576000602036600319011261073457600435610891816103c5565b61089961238b565b7f00000000000000000000000000000000000000000000000000000000000000006001600160a01b0316908290823b156107d257602461ffff918360405195869485936310ddb13760e01b85521660048401525af180156107cd576107c1575080f35b346103d15760003660031901126103d1576020600a54604051908152f35b346103d15760603660031901126103d15761082860043561093a816107e2565b602435610946816107e2565b604435916109558333836126bd565b6124d5565b346103d15760003660031901126103d157602060405160128152f35b801515036103d157565b35906103e182610976565b346103d15760a03660031901126103d1576004356109a8816103c5565b606435906109b582610976565b608435906001600160401b0382116103d1576109da61051360409336906004016103e3565b90610a116109f46109ec6044356142fe565b6024356143cd565b928451958694859463040a7bb160e41b8652309060048701613e17565b03817f00000000000000000000000000000000000000000000000000000000000000006001600160a01b03165afa9081156107cd576000908192610a62575b50604080519182526020820192909252f35b9050610a85915060403d8111610a8c575b610a7d8183610cb1565b810190613e01565b9038610a50565b503d610a73565b346103d15760403660031901126103d157600435610ab0816107e2565b336000526009602052610ac7816040600020611a8f565b546024358101809111610ade5761082891336125a4565b6123e3565b9060406003198301126103d157600435610afc816103c5565b91602435906001600160401b0382116103d157610482916004016103e3565b346103d157602061ffff610b68610b3136610ae3565b9390911660005260018452610b53610b5a604060002060405192838092611091565b0382610cb1565b848151910120923691610d0f565b82815191012014604051908152f35b346103d15760203660031901126103d15761ffff600435610b97816103c5565b1660005260036020526020604060002054604051908152f35b346103d157610bbe36610ae3565b9190610bc861238b565b7f00000000000000000000000000000000000000000000000000000000000000006001600160a01b031691823b156103d157604051928380926342d65a8d60e01b825281610c1f6000988997889460048501613993565b03925af180156107cd576107c1575080f35b346103d15760003660031901126103d157602060405160008152f35b634e487b7160e01b600052604160045260246000fd5b6001600160401b038111610c7657604052565b610c4d565b606081019081106001600160401b03821117610c7657604052565b604081019081106001600160401b03821117610c7657604052565b601f909101601f19168101906001600160401b03821190821017610c7657604052565b604051906101a082016001600160401b03811183821017610c7657604052565b6001600160401b038111610c7657601f01601f191660200190565b929192610d1b82610cf4565b91610d296040519384610cb1565b8294818452818301116103d1578281602093846000960137010152565b9080601f830112156103d15781602061065493359101610d0f565b9060606003198301126103d157600435610d7a816103c5565b91602435906001600160401b0382116103d157610d9991600401610d46565b9060443561065481610410565b602090610dc09282604051948386809551938492016105fb565b82019081520301902090565b9060018060401b0316600052602052604060002090565b346103d1576020610e2e61ffff610e2083610dfd36610d61565b9490911660005260058252604060002082604051948386809551938492016105fb565b820190815203019020610dcc565b54604051908152f35b346103d15760003660031901126103d157602060ff601154166040519015158152f35b346103d157610e6836610421565b9192949390303303610e8c5761051a610e8692610019973691610d0f565b92613e5b565b60405162461bcd60e51b815260206004820152602660248201527f4e6f6e626c6f636b696e674c7a4170703a2063616c6c6572206d7573742062656044820152650204c7a4170760d41b6064820152608490fd5b908160609103126103d15790565b60a03660031901126103d157600435610f06816107e2565b602435610f12816103c5565b604435916084356001600160401b0381116103d157602061ffff610f496000805160206149b2833981519152933690600401610ee0565b93610fbc8535610f58816107e2565b610f766105138689013598610f6c8a6107e2565b6040810190613c0b565b610f80818a614299565b610f95610f8e606435614396565b508561458b565b97610fa1891515614010565b610fb3610fad8a6142fe565b8c6143cd565b9234938b613681565b6040519485526001600160a01b0316941692a4005b346103d15760203660031901126103d157600435610fee816107e2565b60018060a01b031660005260086020526020604060002054604051908152f35b346103d1576000806003193601126107345761102861238b565b80546001600160a01b03198116825581906001600160a01b0316600080516020614a128339815191528280a380f35b90600182811c92168015611087575b602083101461107157565b634e487b7160e01b600052602260045260246000fd5b91607f1691611066565b90600092918054916110a283611057565b91828252600193848116908160001461110457506001146110c4575b50505050565b90919394506000526020928360002092846000945b8386106110f05750505050010190388080806110be565b8054858701830152940193859082016110d9565b9294505050602093945060ff191683830152151560051b010190388080806110be565b906103e161113b9260405193848092611091565b0383610cb1565b346103d15760203660031901126103d15761ffff600435611162816103c5565b1660005260016020526106af610b53611185604060002060405192838092611091565b60405191829160208352602083019061061e565b60e03660031901126103d1576004356111b1816107e2565b6024356111bd816103c5565b604435916001600160401b03906084358281116103d1576111e29036906004016103e3565b91909260a4356111f181610410565b60c4358281116103d157611209903690600401610ee0565b908661124183359661121a886107e2565b61123961122f602087013596610f6c886107e2565b9a90923691610d0f565b983691610d0f565b9360ff600654166000146112ae579360209593610fb38461127c6000805160206149b28339815191529a958561ffff9a610fbc9916916138b0565b61129161128a606435614396565b508861458b565b9a61129d8c1515614010565b8d6112a78d6142fe565b9033614448565b505082939192516112dc576000805160206149b28339815191529460209461ffff94610fb3610fbc9461127c565b60405162461bcd60e51b815260206004820152602660248201527f4f4654436f72653a205f61646170746572506172616d73206d7573742062652060448201526532b6b83a3c9760d11b6064820152608490fd5b346103d15760003660031901126103d157602060405160ff7f0000000000000000000000000000000000000000000000000000000000000000168152f35b346103d15760403660031901126103d1576020610e2e600435611390816103c5565b61ffff602435916113a0836103c5565b166000526002835260406000209061ffff16600052602052604060002090565b346103d15760003660031901126103d1576000546040516001600160a01b039091168152602090f35b346103d15760003660031901126103d1576004546040516001600160a01b039091168152602090f35b60a03660031901126103d15760043561142a816103c5565b6001600160401b036024358181116103d15761144a9036906004016103e3565b926064358381116103d157611463903690600401610ee0565b90608435948486116103d157366023870112156103d15785600401359485116103d1573660246101a08702880101116103d1576024610019960193604435926129a5565b346103d1576000806003193601126107345760405181600c546114c981611057565b8084529060019081811690811561070c57506001146114f2576106af846106a381880382610cb1565b600c8352602094507fdf6966c971051c3d54ec59162606531493a51404a002842f56009d7e5cf4a8c75b82841061153857505050816106af936106a39282010193610693565b805485850187015292850192810161151c565b346103d157602060ff61158a61ffff610e208461156736610d61565b9490911660005260078252604060002082604051948386809551938492016105fb565b54166040519015158152f35b346103d15760203660031901126103d15761ffff6004356115b6816103c5565b166000526001602052610b536115d6604060002060405192838092611091565b8051156115f4576106a3816115ee6106af9351613a02565b906147a5565b60405162461bcd60e51b815260206004820152601d60248201527f4c7a4170703a206e6f20747275737465642070617468207265636f72640000006044820152606490fd5b346103d15760403660031901126103d157600435611656816107e2565b60243590336000526009602052611671816040600020611a8f565b549180831061169257611686920390336125a4565b60405160018152602090f35b60405162461bcd60e51b815260206004820152602560248201527f45524332303a2064656372656173656420616c6c6f77616e63652062656c6f77604482015264207a65726f60d81b6064820152608490fd5b346103d15760e03660031901126103d157600435611702816103c5565b6001600160401b03906064358281116103d1576117239036906004016103e3565b60849291923561173281610410565b60a4359161173f83610976565b60c4359586116103d15761175a61176a9636906004016103e3565b9590946044359060243590613c3d565b60408051928352602083019190915290f35b346103d15761178a36610ae3565b9061179361238b565b604051926020928083858701376117bf6034868381013060601b88820152036014810188520186610cb1565b61ffff8216600090815260018086526040822087519296909291906001600160401b038311610c76576117fc836117f68654611057565b866139ae565b80601f841160011461185a5750918080926118499695948a9b6000805160206149d28339815191529b9461184f575b50501b916000199060031b1c19161790555b60405193849384613993565b0390a180f35b01519250388061182b565b91939498601f19841661187287600052602060002090565b938a905b8282106118c7575050916000805160206149d2833981519152999a95939185611849989694106118ae575b505050811b01905561183d565b015160001960f88460031b161c191690553880806118a1565b808886978294978701518155019601940190611876565b346103d15760403660031901126103d1576108286004356118fe816107e2565b60243590336124d5565b346103d15760203660031901126103d1576004356001600160401b038082116103d15761195961193f61199b933690600401610d46565b61194a303314612ae6565b60208082518301019101612cd7565b95509692919360018060a09893981b0316968051611a21575b507f00000000000000000000000000000000000000000000000000000000000000009116614383565b90303b156103d15760405163695ef6bf60e01b8152926000928492839182916119ca918a8a8160048701612dab565b0391305af180156107cd57611a08575b506000805160206149f283398151915261ffff60405192169180611a0381906000602083019252565b0390a3005b80611a15611a1b92610c63565b806105f0565b386119da565b611a2a90612f57565b38611972565b346103d15760003660031901126103d1576040517f00000000000000000000000000000000000000000000000000000000000000006001600160a01b03168152602090f35b6001600160a01b0316600090815260086020526040902090565b9060018060a01b0316600052602052604060002090565b346103d15760403660031901126103d157602060ff61158a602435611aca816107e2565b600435600052600f84526040600020611a8f565b346103d15760203660031901126103d1577f5db758e995a17ec1ad84bdef7e8c3293a0bd6179bcce400dff5d4c3d87db726b6020600435611b1e816107e2565b611b2661238b565b600480546001600160a01b0319166001600160a01b03929092169182179055604051908152a1005b346103d15760003660031901126103d15760206040516127108152f35b346103d15760803660031901126103d157600435611b88816103c5565b602435611b94816103c5565b6064356001600160401b0381116103d157611bb39036906004016103e3565b9092611bbd61238b565b7f00000000000000000000000000000000000000000000000000000000000000006001600160a01b031690813b156103d15760008094611c34604051978896879586946332fb62e760e21b865261ffff80921660048701521660248501526044356044850152608060648501526084840191612779565b03925af180156107cd57611c4457005b80611a1561001992610c63565b346103d15760003660031901126103d157600e546040516001600160a01b039091168152602090f35b611c8336610421565b9161ffff86949296166000526005602052611cb781604060002060206040518092878b833787820190815203019020610dcc565b54918215611d6657611d558483611d4e7fc264d91f3adc5588250e1551f547752ca0cfa8f6b530d243b9f9f4cab10ea8e59a6000611d3a84611d358e8a8f611d619f908f611d1b90611d0e611d2f9436908d610d0f565b6020815191012014613b7e565b61ffff166000526005602052604060002090565b91613b65565b610dcc565b55611d4636878d610d0f565b933691610d0f565b9188613e5b565b60405195869586613bd4565b0390a1005b60405162461bcd60e51b815260206004820152602360248201527f4e6f6e626c6f636b696e674c7a4170703a206e6f2073746f726564206d65737360448201526261676560e81b6064820152608490fd5b346103d15760003660031901126103d157600d546040516001600160a01b039091168152602090f35b346103d15760403660031901126103d1576020610e2e600435611e02816107e2565b60243590611e0f826107e2565b6001600160a01b031660009081526009845260409020611a8f565b346103d15760003660031901126103d1576040517f00000000000000000000000000000000000000000000000000000000000000006001600160a01b03168152602090f35b346103d15760603660031901126103d157600435611e8c816103c5565b602435611e98816103c5565b60443591611ea461238b565b8215611f1f57611d617f9d5c7c0b934da8fefa9c7760c98383778a12dfbfc0c3b3106518f43fb9508ac09361ffff8316600052600260205280611ef98560406000209061ffff16600052602052604060002090565b556040519384938460409194939294606082019561ffff80921683521660208201520152565b60405162461bcd60e51b81526020600482015260156024820152744c7a4170703a20696e76616c6964206d696e47617360581b6044820152606490fd5b346103d15760003660031901126103d157602060405160018152f35b346103d15760203660031901126103d1577f1584ad594a70cbe1e6515592e1272a987d922b097ead875069cebe8b40c004a46020600435611fb881610976565b611fc061238b565b151560ff196006541660ff821617600655604051908152a1005b346103d1576101003660031901126103d157600435611ff8816103c5565b6001600160401b03906024358281116103d1576120199036906004016103e3565b91906044359061202882610410565b608435612034816107e2565b60c4359586116103d15761204f6100199636906004016103e3565b94909360e4359660a4359460643593613d34565b346103d15761207136610ae3565b919061207b61238b565b61ffff82166000908152600160208181526040832092949291906001600160401b038711610c76576120b7876120b18554611057565b856139ae565b8590601f881160011461210c575091868087989361184995600080516020614a528339815191529993612101575b501b906000198460031b1c191617905560405193849384613993565b8801359250386120e5565b90601f19881661212185600052602060002090565b9288905b82821061217557505091889391600080516020614a52833981519152989961184996941061215b575b505082811b01905561183d565b870135600019600386901b60f8161c19169055388061214e565b808685968294968c01358155019501930190612125565b346103d15760403660031901126103d157602060ff61158a6024356121b0816107e2565b600435600052601084526040600020611a8f565b346103d15760003660031901126103d157602060ff600654166040519015158152f35b346103d15760203660031901126103d157600435612204816107e2565b61220c61238b565b6001600160a01b03908116801561224857600080546001600160a01b0319811683178255909216600080516020614a128339815191528380a380f35b60405162461bcd60e51b815260206004820152602660248201527f4f776e61626c653a206e6577206f776e657220697320746865207a65726f206160448201526564647265737360d01b6064820152608490fd5b346103d15760803660031901126103d1576004356122b9816103c5565b602435906122c6826103c5565b6122d16044356107e2565b604051633d7b2f6f60e21b815261ffff91821660048201529116602482015230604482015260648035908201526000816084817f00000000000000000000000000000000000000000000000000000000000000006001600160a01b03165afa80156107cd576106af9160009161234f575b5060405191829182610643565b61236a913d8091833e6123628183610cb1565b81019061396e565b38612342565b346103d15760003660031901126103d1576020604051308152f35b6000546001600160a01b0316330361239f57565b606460405162461bcd60e51b815260206004820152602060248201527f4f776e61626c653a2063616c6c6572206973206e6f7420746865206f776e65726044820152fd5b634e487b7160e01b600052601160045260246000fd5b90601f8201809211610ade57565b6051019081605111610ade57565b91908201809211610ade57565b1561242957565b60405162461bcd60e51b815260206004820152602360248201527f45524332303a207472616e7366657220746f20746865207a65726f206164647260448201526265737360e81b6064820152608490fd5b1561248157565b60405162461bcd60e51b815260206004820152602660248201527f45524332303a207472616e7366657220616d6f756e7420657863656564732062604482015265616c616e636560d01b6064820152608490fd5b916001600160a01b0380841692909183156125515761253682600080516020614a328339815191529461254c94169661250f881515612422565b6125308461251c83611a75565b546125298282101561247a565b0391611a75565b55611a75565b8054820190556040519081529081906020820190565b0390a3565b60405162461bcd60e51b815260206004820152602560248201527f45524332303a207472616e736665722066726f6d20746865207a65726f206164604482015264647265737360d81b6064820152608490fd5b6001600160a01b03808216929190831561266c57821693841561261c578061260b7f8c5be1e5ebec7d5bd14f71427d1e84f3dd0314c0f7b2291e5b200ac8c7c3b9259461260661254c9560018060a01b03166000526009602052604060002090565b611a8f565b556040519081529081906020820190565b60405162461bcd60e51b815260206004820152602260248201527f45524332303a20617070726f766520746f20746865207a65726f206164647265604482015261737360f01b6064820152608490fd5b60405162461bcd60e51b8152602060048201526024808201527f45524332303a20617070726f76652066726f6d20746865207a65726f206164646044820152637265737360e01b6064820152608490fd5b9060018060a01b03821660005260096020526126dd816040600020611a8f565b5492600184016126ed5750505050565b808410612708576126ff9303916125a4565b388080806110be565b60405162461bcd60e51b815260206004820152601d60248201527f45524332303a20696e73756666696369656e7420616c6c6f77616e63650000006044820152606490fd5b51906103e1826103c5565b908160209103126103d15751610654816103c5565b6040513d6000823e3d90fd5b908060209392818452848401376000828201840152601f01601f1916010190565b60ff8116036103d157565b35906103e18261279a565b9190808252602080920192916000905b8282106127ce575050505090565b90919293806127e86001926127e288610980565b15159052565b6127fe6127f6848801610980565b151582850152565b612816604061280e818901610980565b151590830152565b61283060606128268189016103d6565b61ffff1690830152565b61284f60806128408189016107f3565b6001600160a01b031690830152565b61285f60a061280e818901610980565b61286f60c06128408189016107f3565b61287f60e06128408189016107f3565b610100808701359082015261012080870135908201526128af6101406128a68189016127a5565b60ff1690830152565b610160868101359082015261018080870135908201526101a09081019501939201906127c0565b61030a81526001600160a01b0391821660208201526001600160401b03928316604082015260e060608201529796959194939290808235612916816107e2565b1660e08a0152602082013561292a816107e2565b166101008901526040810135601e19823603018112156103d15701926020843594019484116103d15783360385136103d15761298961297c60c0966129969660606101208d01526101408c0191612779565b61ffff90941660808a0152565b87830360a08901526127b0565b930152565b35610654816107e2565b9594909193926129d46129ce6129c46129bf368988610d0f565b61351b565b5094915050614396565b506142fe565b6040516303408e4760e41b8152909690926020846004817f00000000000000000000000000000000000000000000000000000000000000006001600160a01b03165afa80156107cd57612a8898612a4d612a75956020958a95612a5b95612a7f9a600091612ab9575b506040519c8d96338b89016128d6565b03601f198101885287610cb1565b612a6f612a69368988610d0f565b8a613827565b0161299b565b9134943691610d0f565b91339086613681565b6040519033916000805160206149b283398151915261ffff3393169180612ab481906000602083019252565b0390a4565b612ad99150893d8111612adf575b612ad18183610cb1565b810190612758565b38612a3d565b503d612ac7565b15612aed57565b60405162461bcd60e51b81526020600482015260166024820152751554d113ce8818d85b1b195c881b9bdd081d985b1a5960521b6044820152606490fd5b51906103e1826107e2565b90929192612b4381610cf4565b91612b516040519384610cb1565b8294828452828201116103d15760206103e19301906105fb565b9080601f830112156103d157815161065492602001612b36565b51906103e182610976565b51906103e18261279a565b81601f820112156103d1578051906001600160401b038211610c76576040805193602091612bce838660051b0187610cb1565b84865282860191836101a0809702860101948186116103d1578401925b858410612bfc575050505050505090565b86848303126103d157848791612c10610cd4565b612c1987612b85565b8152612c26838801612b85565b83820152612c35868801612b85565b868201526060612c4681890161274d565b908201526080612c57818901612b2b565b9082015260a0612c68818901612b85565b9082015260c0612c79818901612b2b565b9082015260e0612c8a818901612b2b565b9082015261010080880151908201526101208088015190820152610140612cb2818901612b90565b9082015261016080880151908201526101808088015190820152815201930192612beb565b91909160e0818403126103d1578051612cef816103c5565b926020820151612cfe816107e2565b926040830151612d0d81610410565b606084015190936001600160401b039290918381116103d15782016060818603126103d15760405190612d3f82610c7b565b8051612d4a816107e2565b82526020810151612d5a816107e2565b60208301526040810151908582116103d157612d7891879101612b6b565b604082015293612d8a6080840161274d565b9360a08401519081116103d15760c091612da5918501612b9b565b92015190565b939061065495916101009461ffff60409560018060a01b03809516895216602088015284870152606086015260a060808601528082511660a086015260208201511660c0850152015191606060e0820152019061061e565b8051821015612e175760209160051b010190565b634e487b7160e01b600052603260045260246000fd5b15612e3457565b60405162461bcd60e51b815260206004820152601d60248201527f5553444f3a20616374696f6e54797065206973206e6f742076616c69640000006044820152606490fd5b9061ffff612e9460209295949560408552604085019061061e565b9416910152565b60009060033d11612ea857565b905060046000803e60005160e01c90565b600060443d1061065457604051600319913d83016004833e81516001600160401b03918282113d602484011117612f1657818401948551938411612f1e573d85010160208487010111612f16575061065492910160200190610cb1565b949350505050565b50949350505050565b3d15612f52573d90612f3882610cf4565b91612f466040519384610cb1565b82523d6000602084013e565b606090565b9060005b82518110156131f3576040612f7c81612f748487612e03565b510151151590565b15612f9e575080612f98612f9260019386612e03565b51613270565b01612f5b565b6060612fc861030a61ffff612fc184612fb7888b612e03565b51015161ffff1690565b1614612e2d565b612fd760a0612f748588612e03565b612ff560c0612fe68689612e03565b5101516001600160a01b031690565b916130c661300860e0612fe6888b612e03565b936130b8610100613019898c612e03565b5101518a61012061302a8b83612e03565b51015161304661014061303d8d85612e03565b51015160ff1690565b906101806130648d61016061305b8288612e03565b51015195612e03565b510151938b519a8b9760209b8c8a0194909897969360e0969260ff9461010088019b1515885260018060a01b038092166020890152166040870152606086015260808501521660a083015260c08201520152565b03601f198101855284610cb1565b6130ee6130e36130de6130de6080612fe68a8d612e03565b6107d6565b91612fb7878a612e03565b90803b156103d15761311c6000929183928751948580948193631221baf960e31b835260049a8b8401612e79565b03925af190816131e0575b50613146576001613136612e9b565b6308c379a014613198575b613151575b505050600190612f98565b61316e61316a61315f612f27565b92612f74878a612e03565b1590565b156131465761317f613194916131f8565b925162461bcd60e51b81529283928301610643565b0390fd5b6131a0612eb9565b806131ac575b50613141565b600091506131c161316a84612f74898c612e03565b156131a657845162461bcd60e51b815290819061319490828701610643565b80611a156131ed92610c63565b38613127565b509050565b6044815110613249576004810151810190602081602484019303126103d1576024810151906001600160401b0382116103d1570190806043830112156103d157602482015161065492604401612b36565b5060405161325681610c96565b600a8152695553444f3a206461746160b01b602082015290565b8051156133df5761328a6130de6130de60808401516107d6565b61329760c08301516107d6565b6132a460e08401516107d6565b91610120840151906132bb61014086015160ff1690565b936101608601519361018087015190833b156103d15760405163aba0784760e01b81526001600160a01b03918216600482015292166024830152604482019390935260ff9094166064850152608484019290925260a4830152600090829081838160c481015b03925af190816133cc575b5061334b57600161333b612e9b565b6308c379a01461338f575b61334e575b50565b61336661316a602061335e612f27565b930151151590565b1561334b57613377613194916131f8565b60405162461bcd60e51b815291829160048301610643565b613397612eb9565b806133a3575b50613346565b60208301516000925061339d5760405162461bcd60e51b81529081906131949060048301610643565b80611a156133d992610c63565b3861332c565b6133f26130de6130de60808401516107d6565b6133ff60c08301516107d6565b61340c60e08401516107d6565b91610100840151906101208501519361342a61014087015160ff1690565b936101608701519061018088015195843b156103d15760405163d505accf60e01b81526001600160a01b0392831660048201529190931660248201526044810194909452606484019590955260ff16608483015260a482019390935260c481019190915290600090829081838160e48101613321565b156134a757565b60405162461bcd60e51b8152602060048201526012602482015271556e737570706f727465642074785479706560701b6044820152606490fd5b156134e857565b60405162461bcd60e51b815260206004820152600b60248201526a47617320746f6f206c6f7760a81b6044820152606490fd5b6000808251602281149081156135c3575b501561358657600283015193602284015193600261ffff871660018114801561357d575b613559906134a0565b6135648715156134e1565b1461356c5750565b925090506056604283015192015190565b50808214613550565b60405162461bcd60e51b8152602060048201526015602482015274496e76616c69642061646170746572506172616d7360581b6044820152606490fd5b60429150113861352c565b156135d557565b60405162461bcd60e51b815260206004820152602660248201527f4c7a4170703a20696e76616c696420736f757263652073656e64696e6720636f6044820152651b9d1c9858dd60d21b6064820152608490fd5b9261364e61065497959361ffff61365c9416865260c0602087015260c086019061061e565b90848203604086015261061e565b6001600160a01b0391821660608401529316608082015280830360a09091015261061e565b946136aa9193929561ffff811660005260016020526136b1604060002060405194858092611091565b0384610cb1565b825115613736576136c38551826138ff565b7f00000000000000000000000000000000000000000000000000000000000000006001600160a01b031693843b156103d15760009661371891604051998a988997889662c5803160e81b885260048801613629565b03925af180156107cd576137295750565b80611a156103e192610c63565b60405162461bcd60e51b815260206004820152603060248201527f4c7a4170703a2064657374696e6174696f6e20636861696e206973206e6f742060448201526f61207472757374656420736f7572636560801b6064820152608490fd5b1561379b57565b60405162461bcd60e51b815260206004820152601a602482015279131e905c1c0e881b5a5b91d85cd31a5b5a5d081b9bdd081cd95d60321b6044820152606490fd5b156137e457565b60405162461bcd60e51b815260206004820152601b60248201527a4c7a4170703a20676173206c696d697420697320746f6f206c6f7760281b6044820152606490fd5b602282511061386c5761ffff60226103e193015191166000526002602052604060002061030a60005260205260406000205490613865821515613794565b10156137dd565b60405162461bcd60e51b815260206004820152601c60248201527b4c7a4170703a20696e76616c69642061646170746572506172616d7360201b6044820152606490fd5b9190602281511061386c57602261ffff910151921660005260026020526138e560406000206001600052602052604060002090565b54908101809111610ade576103e191613865821515613794565b61ffff166000526003602052604060002054908115613964575b1161392057565b606460405162461bcd60e51b815260206004820152602060248201527f4c7a4170703a207061796c6f61642073697a6520697320746f6f206c617267656044820152fd5b6127109150613919565b906020828203126103d15781516001600160401b0381116103d1576106549201612b6b565b60409061ffff61065495931681528160208201520191612779565b90601f81116139bc57505050565b600091825260208220906020601f850160051c830194106139f8575b601f0160051c01915b8281106139ed57505050565b8181556001016139e1565b90925082906139d8565b601319810191908211610ade57565b605019810191908211610ade57565b929091613a925a604051633356ae4560e11b602082015261ffff871660248201526080604482015290613a8c82613a7e613a5d60a483018a61061e565b6001600160401b03881660648401528281036023190160848401528861061e565b03601f198101845283610cb1565b30614954565b939015613aa1575b5050505050565b613aaa94613ab4565b3880808080613a9a565b9193613b527fe183f33de2837795525b4792ca4cd60535bd77c53b7e7030060bfcf5734d6b0c95613b60939561ffff81516020830120961695866000526005602052613b1883610e2060208b604060002082604051948386809551938492016105fb565b55613b35604051978897885260a0602089015260a088019061061e565b6001600160401b039092166040870152858203606087015261061e565b90838203608085015261061e565b0390a1565b6020919283604051948593843782019081520301902090565b15613b8557565b60405162461bcd60e51b815260206004820152602160248201527f4e6f6e626c6f636b696e674c7a4170703a20696e76616c6964207061796c6f616044820152601960fa1b6064820152608490fd5b9160609361ffff613bf79398979698168452608060208501526080840191612779565b6001600160401b0390951660408201520152565b903590601e19813603018212156103d157018035906001600160401b0382116103d1576020019181360383136103d157565b9491959897906112a7613c66604099613c5e613c6c97613c89993691610d0f565b943691610d0f565b976142fe565b928451968794859463040a7bb160e41b8652309060048701613e17565b03817f00000000000000000000000000000000000000000000000000000000000000006001600160a01b03165afa9182156107cd576000908193613ccc57509190565b905061048291925060403d8111610a8c57610a7d8183610cb1565b9396949161065498969361ffff613d0c9316865260c0602087015260c0860191612779565b6001600160401b0390961660408401526060830152608082015280840360a090910152612779565b91969792989594939094303303613dbc57613d509085306146f1565b60405181815290946001600160a01b03169390849061ffff8516906000805160206149f283398151915290602090a3833b156103d1576000988995613dac936040519c8d9b8c9a8b98633fe79aed60e11b8a5260048a01613ce7565b0393f180156107cd576137295750565b60405162461bcd60e51b815260206004820152601f60248201527f4f4654436f72653a2063616c6c6572206d757374206265204f4654436f7265006044820152606490fd5b91908260409103126103d1576020825192015190565b9192610654959361ffff613e469316845260018060a01b0316602084015260a0604084015260a083019061061e565b9215156060820152608081840391015261061e565b92919060ff613e69846148f9565b1680613fbc5750505060ff613e7d826148f9565b161580613fb1575b613e8e90614401565b613ea0613e9a826148a9565b91614944565b90916001600160a01b039182841615613fa7575b613ee8907f0000000000000000000000000000000000000000000000000000000000000000906001600160401b0316614383565b918316928315613f62576000805160206149f283398151915291613f2261ffff92613f1d613f1887600a54612415565b600a55565b611a75565b848154019055846000600080516020614a3283398151915260405180613f4d89829190602083019252565b0390a36040519384521691806020810161254c565b60405162461bcd60e51b815260206004820152601f60248201527f45524332303a206d696e7420746f20746865207a65726f2061646472657373006044820152606490fd5b61dead9350613eb4565b508051602914613e85565b600103613fcc576103e1936140e0565b60405162461bcd60e51b815260206004820152601c60248201527b4f4654436f72653a20756e6b6e6f776e207061636b6574207479706560201b6044820152606490fd5b1561401757565b60405162461bcd60e51b815260206004820152601960248201527813d19510dbdc994e88185b5bdd5b9d081d1bdbc81cdb585b1b603a1b6044820152606490fd5b989796929361408260e0979361ffff6129969894168c5260208c61010091829101528c019061061e565b6001600160401b0390951660408b015260608a01526001600160a01b0316608089015260a088015286820360c088015261061e565b6140cf6040929594939560608352606083019061061e565b94600180841b031660208201520152565b90916140eb846144b2565b909161411c61411587611d3561410f8b61ffff166000526007602052604060002090565b8c610da6565b5460ff1690565b916001600160401b0391614153907f0000000000000000000000000000000000000000000000000000000000000000908416614383565b9288888b831561424f575b505050853b1561420457946141a59694613a8c948a94613a7e948d996000146141fd5750505a925b5a978b6040519a8b9863757fea4d60e11b60208b015260248a01614058565b90156141f25750906141ed61ffff928560207fb8890edbfc1c74692f527444645f95489c3703cc2df42e4a366f5d06fa6cd884969751910120906040519485941696846140b7565b0390a2565b926103e19492613ab4565b1692614186565b50506040516001600160a01b039094168452507f9aedf5fdba8716db3b6705ca00150643309995d4f818a249ed6dde6677e7792d975091955085945050602084019250613b60915050565b90611d356142849261427e89614269614291979b306146a1565b9961ffff166000526007602052604060002090565b90610da6565b805460ff19166001179055565b88888b61415e565b60065460ff16156142e057602282511061386c5761ffff60226103e19301519116600052600260205260406000206000805260205260406000205490613865821515613794565b50516112dc57565b634e487b7160e01b600052601260045260246000fd5b7f000000000000000000000000000000000000000000000000000000000000000090811561437e576001600160401b0391900481811161433c571690565b60405162461bcd60e51b815260206004820152601a6024820152794f4654436f72653a20616d6f756e745344206f766572666c6f7760301b6044820152606490fd5b6142e8565b81810292918115918404141715610ade57565b7f0000000000000000000000000000000000000000000000000000000000000000801561437e57810690818103908111610ade5791565b60405160006020820152602181019190915260c09190911b6001600160c01b03191660418201526029815261065481610c7b565b1561440857565b60405162461bcd60e51b815260206004820152601860248201527713d19510dbdc994e881a5b9d985b1a59081c185e5b1bd85960421b6044820152606490fd5b939260719261065494604051968794600160f81b6020870152602186015260018060c01b0319809360c01b16604186015260018060a01b0316604985015260c01b1660698301526144a281518092602086860191016105fb565b8101036051810184520182610cb1565b906144ca600160ff6144c3856148f9565b1614614401565b6144d3826148a9565b906144dd83614944565b90604984511061454e5760498401519360518151106145125761450f6051820151916145098151613a11565b90614825565b91565b60405162461bcd60e51b8152602060048201526014602482015273746f55696e7436345f6f75744f66426f756e647360601b6044820152606490fd5b60405162461bcd60e51b8152602060048201526015602482015274746f427974657333325f6f75744f66426f756e647360581b6044820152606490fd5b6001600160a01b03811633810361463a575b80156145eb57816145c0846145b3600095611a75565b546125298282101561464a565b556145ce83600a5403600a55565b604051838152600080516020614a3283398151915290602090a390565b60405162461bcd60e51b815260206004820152602160248201527f45524332303a206275726e2066726f6d20746865207a65726f206164647265736044820152607360f81b6064820152608490fd5b6146458333846126bd565b61459d565b1561465157565b60405162461bcd60e51b815260206004820152602260248201527f45524332303a206275726e20616d6f756e7420657863656564732062616c616e604482015261636560f01b6064820152608490fd5b6001600160a01b03811691908215613f6257600a5490828201809211610ade576000926146e2602092600080516020614a3283398151915294600a55611a75565b818154019055604051908152a3565b6106549183916001600160a01b03811630811415908161471d575b50156124d5576109558333836126bd565b90503314153861470c565b1561472f57565b60405162461bcd60e51b815260206004820152600e60248201526d736c6963655f6f766572666c6f7760901b6044820152606490fd5b1561476c57565b60405162461bcd60e51b8152602060048201526011602482015270736c6963655f6f75744f66426f756e647360781b6044820152606490fd5b6147b9826147b2816123f9565b1015614728565b6147c68282511015614765565b816147de575050604051600081526020810160405290565b60405191601f811691821560051b808486010193838501920101905b8084106148125750508252601f01601f191660405290565b90928351815260208091019301906147fa565b614832826147b2816123f9565b614847815161484084612407565b1115614765565b8161485f575050604051600081526020810160405290565b60405191601f8116916051831560051b80858701019484860193010101905b8084106148965750508252601f01601f191660405290565b909283518152602080910193019061487e565b60218151106148bc57602d015160601c90565b60405162461bcd60e51b8152602060048201526015602482015274746f416464726573735f6f75744f66426f756e647360581b6044820152606490fd5b6001815110614909576001015190565b60405162461bcd60e51b8152602060048201526013602482015272746f55696e74385f6f75744f66426f756e647360681b6044820152606490fd5b6029815110614512576029015190565b6040519392909160009160c08601916001600160401b03831187841017610c765783926040526096875282602088019560a036883760208451940192f1903d90609682116149a8575b6000908286523e9190565b6096915061499d56fed81fc9b8523134ed613870ed029d6170cbb73aa6a6bc311b9a642689fb9df59a8c0400cfe2d1199b1a725c78960bcc2a344d869b80590d0f2bd005db15a572cebf551ec93859b170f9b2141bd9298bf3f64322c6f7beb2543a0cb669834118bf8be0079c531659141344cd1fd0a4f28419497f9722a3daafe3b4186f6b6457e0ddf252ad1be2c89b69c2b068fc378daa952ba7f163c4a11628f55a4df523b3effa41487ad5d6728f0b19276fa1eddc16558578f5109fc39d2dc33c3230470daba264697066735822122003e19047db23128f81437f23dd600f105d4f6332b1b9fbdbde06b0fec19a033464736f6c63430008120033",
  "linkReferences": {},
  "deployedLinkReferences": {}
}