{
  "_format": "hh-sol-artifact-1",
  "contractName": "USDOGenericModule",
  "sourceName": "contracts/usd0/modules/USDOGenericModule.sol",
  "abi": [
    {
      "inputs": [
        {
          "internalType": "address",
          "name": "_lzEndpoint",
          "type": "address"
        },
        {
          "internalType": "contract IYieldBoxBase",
          "name": "_yieldBox",
          "type": "address"
        },
        {
          "internalType": "contract ICluster",
          "name": "_cluster",
          "type": "address"
        }
      ],
      "stateMutability": "nonpayable",
      "type": "constructor"
    },
    {
      "inputs": [],
      "name": "ActionTypeNotValid",
      "type": "error"
    },
    {
      "inputs": [],
      "name": "NotValid",
      "type": "error"
    },
    {
      "inputs": [],
      "name": "SenderNotAuthorized",
      "type": "error"
    },
    {
      "inputs": [],
      "name": "SwapperNotAuthorized",
      "type": "error"
    },
    {
      "anonymous": false,
      "inputs": [
        {
          "indexed": true,
          "internalType": "address",
          "name": "owner",
          "type": "address"
        },
        {
          "indexed": true,
          "internalType": "address",
          "name": "spender",
          "type": "address"
        },
        {
          "indexed": false,
          "internalType": "uint256",
          "name": "value",
          "type": "uint256"
        }
      ],
      "name": "Approval",
      "type": "event"
    },
    {
      "anonymous": false,
      "inputs": [
        {
          "indexed": true,
          "internalType": "uint16",
          "name": "_srcChainId",
          "type": "uint16"
        },
        {
          "indexed": false,
          "internalType": "bytes",
          "name": "_srcAddress",
          "type": "bytes"
        },
        {
          "indexed": false,
          "internalType": "uint64",
          "name": "_nonce",
          "type": "uint64"
        },
        {
          "indexed": false,
          "internalType": "bytes32",
          "name": "_hash",
          "type": "bytes32"
        }
      ],
      "name": "CallOFTReceivedSuccess",
      "type": "event"
    },
    {
      "anonymous": false,
      "inputs": [
        {
          "indexed": false,
          "internalType": "uint16",
          "name": "_srcChainId",
          "type": "uint16"
        },
        {
          "indexed": false,
          "internalType": "bytes",
          "name": "_srcAddress",
          "type": "bytes"
        },
        {
          "indexed": false,
          "internalType": "uint64",
          "name": "_nonce",
          "type": "uint64"
        },
        {
          "indexed": false,
          "internalType": "bytes",
          "name": "_payload",
          "type": "bytes"
        },
        {
          "indexed": false,
          "internalType": "bytes",
          "name": "_reason",
          "type": "bytes"
        }
      ],
      "name": "MessageFailed",
      "type": "event"
    },
    {
      "anonymous": false,
      "inputs": [
        {
          "indexed": false,
          "internalType": "address",
          "name": "_address",
          "type": "address"
        }
      ],
      "name": "NonContractAddress",
      "type": "event"
    },
    {
      "anonymous": false,
      "inputs": [
        {
          "indexed": true,
          "internalType": "address",
          "name": "previousOwner",
          "type": "address"
        },
        {
          "indexed": true,
          "internalType": "address",
          "name": "newOwner",
          "type": "address"
        }
      ],
      "name": "OwnershipTransferred",
      "type": "event"
    },
    {
      "anonymous": false,
      "inputs": [
        {
          "indexed": false,
          "internalType": "bool",
          "name": "oldState",
          "type": "bool"
        },
        {
          "indexed": false,
          "internalType": "bool",
          "name": "newState",
          "type": "bool"
        }
      ],
      "name": "PausedUpdated",
      "type": "event"
    },
    {
      "anonymous": false,
      "inputs": [
        {
          "indexed": true,
          "internalType": "uint16",
          "name": "_srcChainId",
          "type": "uint16"
        },
        {
          "indexed": true,
          "internalType": "address",
          "name": "_to",
          "type": "address"
        },
        {
          "indexed": false,
          "internalType": "uint256",
          "name": "_amount",
          "type": "uint256"
        }
      ],
      "name": "ReceiveFromChain",
      "type": "event"
    },
    {
      "anonymous": false,
      "inputs": [
        {
          "indexed": false,
          "internalType": "uint16",
          "name": "_srcChainId",
          "type": "uint16"
        },
        {
          "indexed": false,
          "internalType": "bytes",
          "name": "_srcAddress",
          "type": "bytes"
        },
        {
          "indexed": false,
          "internalType": "uint64",
          "name": "_nonce",
          "type": "uint64"
        },
        {
          "indexed": false,
          "internalType": "bytes32",
          "name": "_payloadHash",
          "type": "bytes32"
        }
      ],
      "name": "RetryMessageSuccess",
      "type": "event"
    },
    {
      "anonymous": false,
      "inputs": [
        {
          "indexed": true,
          "internalType": "uint16",
          "name": "_dstChainId",
          "type": "uint16"
        },
        {
          "indexed": true,
          "internalType": "address",
          "name": "_from",
          "type": "address"
        },
        {
          "indexed": true,
          "internalType": "bytes32",
          "name": "_toAddress",
          "type": "bytes32"
        },
        {
          "indexed": false,
          "internalType": "uint256",
          "name": "_amount",
          "type": "uint256"
        }
      ],
      "name": "SendToChain",
      "type": "event"
    },
    {
      "anonymous": false,
      "inputs": [
        {
          "indexed": true,
          "internalType": "address",
          "name": "_for",
          "type": "address"
        },
        {
          "indexed": false,
          "internalType": "bool",
          "name": "_status",
          "type": "bool"
        }
      ],
      "name": "SetBurnerStatus",
      "type": "event"
    },
    {
      "anonymous": false,
      "inputs": [
        {
          "indexed": false,
          "internalType": "uint16",
          "name": "_dstChainId",
          "type": "uint16"
        },
        {
          "indexed": false,
          "internalType": "uint16",
          "name": "_type",
          "type": "uint16"
        },
        {
          "indexed": false,
          "internalType": "uint256",
          "name": "_minDstGas",
          "type": "uint256"
        }
      ],
      "name": "SetMinDstGas",
      "type": "event"
    },
    {
      "anonymous": false,
      "inputs": [
        {
          "indexed": true,
          "internalType": "address",
          "name": "_for",
          "type": "address"
        },
        {
          "indexed": false,
          "internalType": "bool",
          "name": "_status",
          "type": "bool"
        }
      ],
      "name": "SetMinterStatus",
      "type": "event"
    },
    {
      "anonymous": false,
      "inputs": [
        {
          "indexed": false,
          "internalType": "address",
          "name": "precrime",
          "type": "address"
        }
      ],
      "name": "SetPrecrime",
      "type": "event"
    },
    {
      "anonymous": false,
      "inputs": [
        {
          "indexed": false,
          "internalType": "uint16",
          "name": "_remoteChainId",
          "type": "uint16"
        },
        {
          "indexed": false,
          "internalType": "bytes",
          "name": "_path",
          "type": "bytes"
        }
      ],
      "name": "SetTrustedRemote",
      "type": "event"
    },
    {
      "anonymous": false,
      "inputs": [
        {
          "indexed": false,
          "internalType": "uint16",
          "name": "_remoteChainId",
          "type": "uint16"
        },
        {
          "indexed": false,
          "internalType": "bytes",
          "name": "_remoteAddress",
          "type": "bytes"
        }
      ],
      "name": "SetTrustedRemoteAddress",
      "type": "event"
    },
    {
      "anonymous": false,
      "inputs": [
        {
          "indexed": false,
          "internalType": "bool",
          "name": "_useCustomAdapterParams",
          "type": "bool"
        }
      ],
      "name": "SetUseCustomAdapterParams",
      "type": "event"
    },
    {
      "anonymous": false,
      "inputs": [
        {
          "indexed": true,
          "internalType": "address",
          "name": "from",
          "type": "address"
        },
        {
          "indexed": true,
          "internalType": "address",
          "name": "to",
          "type": "address"
        },
        {
          "indexed": false,
          "internalType": "uint256",
          "name": "value",
          "type": "uint256"
        }
      ],
      "name": "Transfer",
      "type": "event"
    },
    {
      "inputs": [],
      "name": "DEFAULT_PAYLOAD_SIZE_LIMIT",
      "outputs": [
        {
          "internalType": "uint256",
          "name": "",
          "type": "uint256"
        }
      ],
      "stateMutability": "view",
      "type": "function"
    },
    {
      "inputs": [],
      "name": "NO_EXTRA_GAS",
      "outputs": [
        {
          "internalType": "uint256",
          "name": "",
          "type": "uint256"
        }
      ],
      "stateMutability": "view",
      "type": "function"
    },
    {
      "inputs": [],
      "name": "PT_SEND",
      "outputs": [
        {
          "internalType": "uint8",
          "name": "",
          "type": "uint8"
        }
      ],
      "stateMutability": "view",
      "type": "function"
    },
    {
      "inputs": [],
      "name": "PT_SEND_AND_CALL",
      "outputs": [
        {
          "internalType": "uint8",
          "name": "",
          "type": "uint8"
        }
      ],
      "stateMutability": "view",
      "type": "function"
    },
    {
      "inputs": [
        {
          "internalType": "address",
          "name": "owner",
          "type": "address"
        },
        {
          "internalType": "address",
          "name": "spender",
          "type": "address"
        }
      ],
      "name": "allowance",
      "outputs": [
        {
          "internalType": "uint256",
          "name": "",
          "type": "uint256"
        }
      ],
      "stateMutability": "view",
      "type": "function"
    },
    {
      "inputs": [
        {
          "internalType": "uint256",
          "name": "",
          "type": "uint256"
        },
        {
          "internalType": "address",
          "name": "",
          "type": "address"
        }
      ],
      "name": "allowedBurner",
      "outputs": [
        {
          "internalType": "bool",
          "name": "",
          "type": "bool"
        }
      ],
      "stateMutability": "view",
      "type": "function"
    },
    {
      "inputs": [
        {
          "internalType": "uint256",
          "name": "",
          "type": "uint256"
        },
        {
          "internalType": "address",
          "name": "",
          "type": "address"
        }
      ],
      "name": "allowedMinter",
      "outputs": [
        {
          "internalType": "bool",
          "name": "",
          "type": "bool"
        }
      ],
      "stateMutability": "view",
      "type": "function"
    },
    {
      "inputs": [
        {
          "internalType": "address",
          "name": "spender",
          "type": "address"
        },
        {
          "internalType": "uint256",
          "name": "amount",
          "type": "uint256"
        }
      ],
      "name": "approve",
      "outputs": [
        {
          "internalType": "bool",
          "name": "",
          "type": "bool"
        }
      ],
      "stateMutability": "nonpayable",
      "type": "function"
    },
    {
      "inputs": [
        {
          "internalType": "address",
          "name": "account",
          "type": "address"
        }
      ],
      "name": "balanceOf",
      "outputs": [
        {
          "internalType": "uint256",
          "name": "",
          "type": "uint256"
        }
      ],
      "stateMutability": "view",
      "type": "function"
    },
    {
      "inputs": [
        {
          "internalType": "uint16",
          "name": "_srcChainId",
          "type": "uint16"
        },
        {
          "internalType": "bytes",
          "name": "_srcAddress",
          "type": "bytes"
        },
        {
          "internalType": "uint64",
          "name": "_nonce",
          "type": "uint64"
        },
        {
          "internalType": "bytes32",
          "name": "_from",
          "type": "bytes32"
        },
        {
          "internalType": "address",
          "name": "_to",
          "type": "address"
        },
        {
          "internalType": "uint256",
          "name": "_amount",
          "type": "uint256"
        },
        {
          "internalType": "bytes",
          "name": "_payload",
          "type": "bytes"
        },
        {
          "internalType": "uint256",
          "name": "_gasForCall",
          "type": "uint256"
        }
      ],
      "name": "callOnOFTReceived",
      "outputs": [],
      "stateMutability": "nonpayable",
      "type": "function"
    },
    {
      "inputs": [],
      "name": "circulatingSupply",
      "outputs": [
        {
          "internalType": "uint256",
          "name": "",
          "type": "uint256"
        }
      ],
      "stateMutability": "view",
      "type": "function"
    },
    {
      "inputs": [],
      "name": "cluster",
      "outputs": [
        {
          "internalType": "contract ICluster",
          "name": "",
          "type": "address"
        }
      ],
      "stateMutability": "view",
      "type": "function"
    },
    {
      "inputs": [],
      "name": "conservator",
      "outputs": [
        {
          "internalType": "address",
          "name": "",
          "type": "address"
        }
      ],
      "stateMutability": "view",
      "type": "function"
    },
    {
      "inputs": [
        {
          "internalType": "uint16",
          "name": "",
          "type": "uint16"
        },
        {
          "internalType": "bytes",
          "name": "",
          "type": "bytes"
        },
        {
          "internalType": "uint64",
          "name": "",
          "type": "uint64"
        }
      ],
      "name": "creditedPackets",
      "outputs": [
        {
          "internalType": "bool",
          "name": "",
          "type": "bool"
        }
      ],
      "stateMutability": "view",
      "type": "function"
    },
    {
      "inputs": [],
      "name": "decimals",
      "outputs": [
        {
          "internalType": "uint8",
          "name": "",
          "type": "uint8"
        }
      ],
      "stateMutability": "view",
      "type": "function"
    },
    {
      "inputs": [
        {
          "internalType": "address",
          "name": "spender",
          "type": "address"
        },
        {
          "internalType": "uint256",
          "name": "subtractedValue",
          "type": "uint256"
        }
      ],
      "name": "decreaseAllowance",
      "outputs": [
        {
          "internalType": "bool",
          "name": "",
          "type": "bool"
        }
      ],
      "stateMutability": "nonpayable",
      "type": "function"
    },
    {
      "inputs": [
        {
          "internalType": "uint16",
          "name": "_dstChainId",
          "type": "uint16"
        },
        {
          "internalType": "bytes32",
          "name": "_toAddress",
          "type": "bytes32"
        },
        {
          "internalType": "uint256",
          "name": "_amount",
          "type": "uint256"
        },
        {
          "internalType": "bytes",
          "name": "_payload",
          "type": "bytes"
        },
        {
          "internalType": "uint64",
          "name": "_dstGasForCall",
          "type": "uint64"
        },
        {
          "internalType": "bool",
          "name": "_useZro",
          "type": "bool"
        },
        {
          "internalType": "bytes",
          "name": "_adapterParams",
          "type": "bytes"
        }
      ],
      "name": "estimateSendAndCallFee",
      "outputs": [
        {
          "internalType": "uint256",
          "name": "nativeFee",
          "type": "uint256"
        },
        {
          "internalType": "uint256",
          "name": "zroFee",
          "type": "uint256"
        }
      ],
      "stateMutability": "view",
      "type": "function"
    },
    {
      "inputs": [
        {
          "internalType": "uint16",
          "name": "_dstChainId",
          "type": "uint16"
        },
        {
          "internalType": "bytes32",
          "name": "_toAddress",
          "type": "bytes32"
        },
        {
          "internalType": "uint256",
          "name": "_amount",
          "type": "uint256"
        },
        {
          "internalType": "bool",
          "name": "_useZro",
          "type": "bool"
        },
        {
          "internalType": "bytes",
          "name": "_adapterParams",
          "type": "bytes"
        }
      ],
      "name": "estimateSendFee",
      "outputs": [
        {
          "internalType": "uint256",
          "name": "nativeFee",
          "type": "uint256"
        },
        {
          "internalType": "uint256",
          "name": "zroFee",
          "type": "uint256"
        }
      ],
      "stateMutability": "view",
      "type": "function"
    },
    {
      "inputs": [
        {
          "internalType": "address",
          "name": "",
          "type": "address"
        },
        {
          "internalType": "uint16",
          "name": "lzSrcChainId",
          "type": "uint16"
        },
        {
          "internalType": "bytes",
          "name": "",
          "type": "bytes"
        },
        {
          "internalType": "uint64",
          "name": "",
          "type": "uint64"
        },
        {
          "internalType": "bytes",
          "name": "_payload",
          "type": "bytes"
        }
      ],
      "name": "executeApproval",
      "outputs": [],
      "stateMutability": "nonpayable",
      "type": "function"
    },
    {
      "inputs": [
        {
          "internalType": "uint16",
          "name": "",
          "type": "uint16"
        },
        {
          "internalType": "bytes",
          "name": "",
          "type": "bytes"
        },
        {
          "internalType": "uint64",
          "name": "",
          "type": "uint64"
        }
      ],
      "name": "failedMessages",
      "outputs": [
        {
          "internalType": "bytes32",
          "name": "",
          "type": "bytes32"
        }
      ],
      "stateMutability": "view",
      "type": "function"
    },
    {
      "inputs": [
        {
          "internalType": "uint16",
          "name": "_srcChainId",
          "type": "uint16"
        },
        {
          "internalType": "bytes",
          "name": "_srcAddress",
          "type": "bytes"
        }
      ],
      "name": "forceResumeReceive",
      "outputs": [],
      "stateMutability": "nonpayable",
      "type": "function"
    },
    {
      "inputs": [
        {
          "internalType": "uint16",
          "name": "_version",
          "type": "uint16"
        },
        {
          "internalType": "uint16",
          "name": "_chainId",
          "type": "uint16"
        },
        {
          "internalType": "address",
          "name": "",
          "type": "address"
        },
        {
          "internalType": "uint256",
          "name": "_configType",
          "type": "uint256"
        }
      ],
      "name": "getConfig",
      "outputs": [
        {
          "internalType": "bytes",
          "name": "",
          "type": "bytes"
        }
      ],
      "stateMutability": "view",
      "type": "function"
    },
    {
      "inputs": [
        {
          "internalType": "uint16",
          "name": "_remoteChainId",
          "type": "uint16"
        }
      ],
      "name": "getTrustedRemoteAddress",
      "outputs": [
        {
          "internalType": "bytes",
          "name": "",
          "type": "bytes"
        }
      ],
      "stateMutability": "view",
      "type": "function"
    },
    {
      "inputs": [
        {
          "internalType": "address",
          "name": "spender",
          "type": "address"
        },
        {
          "internalType": "uint256",
          "name": "addedValue",
          "type": "uint256"
        }
      ],
      "name": "increaseAllowance",
      "outputs": [
        {
          "internalType": "bool",
          "name": "",
          "type": "bool"
        }
      ],
      "stateMutability": "nonpayable",
      "type": "function"
    },
    {
      "inputs": [
        {
          "internalType": "uint16",
          "name": "_srcChainId",
          "type": "uint16"
        },
        {
          "internalType": "bytes",
          "name": "_srcAddress",
          "type": "bytes"
        }
      ],
      "name": "isTrustedRemote",
      "outputs": [
        {
          "internalType": "bool",
          "name": "",
          "type": "bool"
        }
      ],
      "stateMutability": "view",
      "type": "function"
    },
    {
      "inputs": [],
      "name": "lzEndpoint",
      "outputs": [
        {
          "internalType": "contract ILayerZeroEndpoint",
          "name": "",
          "type": "address"
        }
      ],
      "stateMutability": "view",
      "type": "function"
    },
    {
      "inputs": [
        {
          "internalType": "uint16",
          "name": "_srcChainId",
          "type": "uint16"
        },
        {
          "internalType": "bytes",
          "name": "_srcAddress",
          "type": "bytes"
        },
        {
          "internalType": "uint64",
          "name": "_nonce",
          "type": "uint64"
        },
        {
          "internalType": "bytes",
          "name": "_payload",
          "type": "bytes"
        }
      ],
      "name": "lzReceive",
      "outputs": [],
      "stateMutability": "nonpayable",
      "type": "function"
    },
    {
      "inputs": [
        {
          "internalType": "uint16",
          "name": "",
          "type": "uint16"
        },
        {
          "internalType": "uint16",
          "name": "",
          "type": "uint16"
        }
      ],
      "name": "minDstGasLookup",
      "outputs": [
        {
          "internalType": "uint256",
          "name": "",
          "type": "uint256"
        }
      ],
      "stateMutability": "view",
      "type": "function"
    },
    {
      "inputs": [],
      "name": "name",
      "outputs": [
        {
          "internalType": "string",
          "name": "",
          "type": "string"
        }
      ],
      "stateMutability": "view",
      "type": "function"
    },
    {
      "inputs": [
        {
          "internalType": "uint16",
          "name": "_srcChainId",
          "type": "uint16"
        },
        {
          "internalType": "bytes",
          "name": "_srcAddress",
          "type": "bytes"
        },
        {
          "internalType": "uint64",
          "name": "_nonce",
          "type": "uint64"
        },
        {
          "internalType": "bytes",
          "name": "_payload",
          "type": "bytes"
        }
      ],
      "name": "nonblockingLzReceive",
      "outputs": [],
      "stateMutability": "nonpayable",
      "type": "function"
    },
    {
      "inputs": [],
      "name": "owner",
      "outputs": [
        {
          "internalType": "address",
          "name": "",
          "type": "address"
        }
      ],
      "stateMutability": "view",
      "type": "function"
    },
    {
      "inputs": [],
      "name": "paused",
      "outputs": [
        {
          "internalType": "bool",
          "name": "",
          "type": "bool"
        }
      ],
      "stateMutability": "view",
      "type": "function"
    },
    {
      "inputs": [
        {
          "internalType": "uint16",
          "name": "",
          "type": "uint16"
        }
      ],
      "name": "payloadSizeLimitLookup",
      "outputs": [
        {
          "internalType": "uint256",
          "name": "",
          "type": "uint256"
        }
      ],
      "stateMutability": "view",
      "type": "function"
    },
    {
      "inputs": [],
      "name": "precrime",
      "outputs": [
        {
          "internalType": "address",
          "name": "",
          "type": "address"
        }
      ],
      "stateMutability": "view",
      "type": "function"
    },
    {
      "inputs": [],
      "name": "renounceOwnership",
      "outputs": [],
      "stateMutability": "nonpayable",
      "type": "function"
    },
    {
      "inputs": [
        {
          "internalType": "uint16",
          "name": "_srcChainId",
          "type": "uint16"
        },
        {
          "internalType": "bytes",
          "name": "_srcAddress",
          "type": "bytes"
        },
        {
          "internalType": "uint64",
          "name": "_nonce",
          "type": "uint64"
        },
        {
          "internalType": "bytes",
          "name": "_payload",
          "type": "bytes"
        }
      ],
      "name": "retryMessage",
      "outputs": [],
      "stateMutability": "payable",
      "type": "function"
    },
    {
      "inputs": [
        {
          "internalType": "address",
          "name": "_from",
          "type": "address"
        },
        {
          "internalType": "uint16",
          "name": "_dstChainId",
          "type": "uint16"
        },
        {
          "internalType": "bytes32",
          "name": "_toAddress",
          "type": "bytes32"
        },
        {
          "internalType": "uint256",
          "name": "_amount",
          "type": "uint256"
        },
        {
          "internalType": "bytes",
          "name": "_payload",
          "type": "bytes"
        },
        {
          "internalType": "uint64",
          "name": "_dstGasForCall",
          "type": "uint64"
        },
        {
          "components": [
            {
              "internalType": "address payable",
              "name": "refundAddress",
              "type": "address"
            },
            {
              "internalType": "address",
              "name": "zroPaymentAddress",
              "type": "address"
            },
            {
              "internalType": "bytes",
              "name": "adapterParams",
              "type": "bytes"
            }
          ],
          "internalType": "struct ICommonOFT.LzCallParams",
          "name": "_callParams",
          "type": "tuple"
        }
      ],
      "name": "sendAndCall",
      "outputs": [],
      "stateMutability": "payable",
      "type": "function"
    },
    {
      "inputs": [
        {
          "internalType": "address",
          "name": "_from",
          "type": "address"
        },
        {
          "internalType": "uint16",
          "name": "_dstChainId",
          "type": "uint16"
        },
        {
          "internalType": "bytes32",
          "name": "_toAddress",
          "type": "bytes32"
        },
        {
          "internalType": "uint256",
          "name": "_amount",
          "type": "uint256"
        },
        {
          "components": [
            {
              "internalType": "address payable",
              "name": "refundAddress",
              "type": "address"
            },
            {
              "internalType": "address",
              "name": "zroPaymentAddress",
              "type": "address"
            },
            {
              "internalType": "bytes",
              "name": "adapterParams",
              "type": "bytes"
            }
          ],
          "internalType": "struct ICommonOFT.LzCallParams",
          "name": "_callParams",
          "type": "tuple"
        }
      ],
      "name": "sendFrom",
      "outputs": [],
      "stateMutability": "payable",
      "type": "function"
    },
    {
      "inputs": [
        {
          "internalType": "address",
          "name": "",
          "type": "address"
        },
        {
          "internalType": "uint16",
          "name": "",
          "type": "uint16"
        },
        {
          "internalType": "bytes",
          "name": "",
          "type": "bytes"
        },
        {
          "internalType": "uint64",
          "name": "",
          "type": "uint64"
        },
        {
          "internalType": "bytes",
          "name": "_payload",
          "type": "bytes"
        }
      ],
      "name": "sendFromDestination",
      "outputs": [],
      "stateMutability": "nonpayable",
      "type": "function"
    },
    {
      "inputs": [
        {
          "internalType": "uint16",
          "name": "_version",
          "type": "uint16"
        },
        {
          "internalType": "uint16",
          "name": "_chainId",
          "type": "uint16"
        },
        {
          "internalType": "uint256",
          "name": "_configType",
          "type": "uint256"
        },
        {
          "internalType": "bytes",
          "name": "_config",
          "type": "bytes"
        }
      ],
      "name": "setConfig",
      "outputs": [],
      "stateMutability": "nonpayable",
      "type": "function"
    },
    {
      "inputs": [
        {
          "internalType": "uint16",
          "name": "_dstChainId",
          "type": "uint16"
        },
        {
          "internalType": "uint16",
          "name": "_packetType",
          "type": "uint16"
        },
        {
          "internalType": "uint256",
          "name": "_minGas",
          "type": "uint256"
        }
      ],
      "name": "setMinDstGas",
      "outputs": [],
      "stateMutability": "nonpayable",
      "type": "function"
    },
    {
      "inputs": [
        {
          "internalType": "uint16",
          "name": "_dstChainId",
          "type": "uint16"
        },
        {
          "internalType": "uint256",
          "name": "_size",
          "type": "uint256"
        }
      ],
      "name": "setPayloadSizeLimit",
      "outputs": [],
      "stateMutability": "nonpayable",
      "type": "function"
    },
    {
      "inputs": [
        {
          "internalType": "address",
          "name": "_precrime",
          "type": "address"
        }
      ],
      "name": "setPrecrime",
      "outputs": [],
      "stateMutability": "nonpayable",
      "type": "function"
    },
    {
      "inputs": [
        {
          "internalType": "uint16",
          "name": "_version",
          "type": "uint16"
        }
      ],
      "name": "setReceiveVersion",
      "outputs": [],
      "stateMutability": "nonpayable",
      "type": "function"
    },
    {
      "inputs": [
        {
          "internalType": "uint16",
          "name": "_version",
          "type": "uint16"
        }
      ],
      "name": "setSendVersion",
      "outputs": [],
      "stateMutability": "nonpayable",
      "type": "function"
    },
    {
      "inputs": [
        {
          "internalType": "uint16",
          "name": "_srcChainId",
          "type": "uint16"
        },
        {
          "internalType": "bytes",
          "name": "_path",
          "type": "bytes"
        }
      ],
      "name": "setTrustedRemote",
      "outputs": [],
      "stateMutability": "nonpayable",
      "type": "function"
    },
    {
      "inputs": [
        {
          "internalType": "uint16",
          "name": "_remoteChainId",
          "type": "uint16"
        },
        {
          "internalType": "bytes",
          "name": "_remoteAddress",
          "type": "bytes"
        }
      ],
      "name": "setTrustedRemoteAddress",
      "outputs": [],
      "stateMutability": "nonpayable",
      "type": "function"
    },
    {
      "inputs": [
        {
          "internalType": "bool",
          "name": "_useCustomAdapterParams",
          "type": "bool"
        }
      ],
      "name": "setUseCustomAdapterParams",
      "outputs": [],
      "stateMutability": "nonpayable",
      "type": "function"
    },
    {
      "inputs": [],
      "name": "sharedDecimals",
      "outputs": [
        {
          "internalType": "uint8",
          "name": "",
          "type": "uint8"
        }
      ],
      "stateMutability": "view",
      "type": "function"
    },
    {
      "inputs": [
        {
          "internalType": "bytes4",
          "name": "interfaceId",
          "type": "bytes4"
        }
      ],
      "name": "supportsInterface",
      "outputs": [
        {
          "internalType": "bool",
          "name": "",
          "type": "bool"
        }
      ],
      "stateMutability": "view",
      "type": "function"
    },
    {
      "inputs": [],
      "name": "symbol",
      "outputs": [
        {
          "internalType": "string",
          "name": "",
          "type": "string"
        }
      ],
      "stateMutability": "view",
      "type": "function"
    },
    {
      "inputs": [],
      "name": "token",
      "outputs": [
        {
          "internalType": "address",
          "name": "",
          "type": "address"
        }
      ],
      "stateMutability": "view",
      "type": "function"
    },
    {
      "inputs": [],
      "name": "totalSupply",
      "outputs": [
        {
          "internalType": "uint256",
          "name": "",
          "type": "uint256"
        }
      ],
      "stateMutability": "view",
      "type": "function"
    },
    {
      "inputs": [
        {
          "internalType": "address",
          "name": "to",
          "type": "address"
        },
        {
          "internalType": "uint256",
          "name": "amount",
          "type": "uint256"
        }
      ],
      "name": "transfer",
      "outputs": [
        {
          "internalType": "bool",
          "name": "",
          "type": "bool"
        }
      ],
      "stateMutability": "nonpayable",
      "type": "function"
    },
    {
      "inputs": [
        {
          "internalType": "address",
          "name": "from",
          "type": "address"
        },
        {
          "internalType": "address",
          "name": "to",
          "type": "address"
        },
        {
          "internalType": "uint256",
          "name": "amount",
          "type": "uint256"
        }
      ],
      "name": "transferFrom",
      "outputs": [
        {
          "internalType": "bool",
          "name": "",
          "type": "bool"
        }
      ],
      "stateMutability": "nonpayable",
      "type": "function"
    },
    {
      "inputs": [
        {
          "internalType": "address",
          "name": "newOwner",
          "type": "address"
        }
      ],
      "name": "transferOwnership",
      "outputs": [],
      "stateMutability": "nonpayable",
      "type": "function"
    },
    {
      "inputs": [
        {
          "internalType": "uint16",
          "name": "lzDstChainId",
          "type": "uint16"
        },
        {
          "components": [
            {
              "internalType": "address payable",
              "name": "refundAddress",
              "type": "address"
            },
            {
              "internalType": "address",
              "name": "zroPaymentAddress",
              "type": "address"
            },
            {
              "internalType": "bytes",
              "name": "adapterParams",
              "type": "bytes"
            }
          ],
          "internalType": "struct ICommonOFT.LzCallParams",
          "name": "lzCallParams",
          "type": "tuple"
        },
        {
          "components": [
            {
              "internalType": "bool",
              "name": "permitAll",
              "type": "bool"
            },
            {
              "internalType": "bool",
              "name": "allowFailure",
              "type": "bool"
            },
            {
              "internalType": "bool",
              "name": "yieldBoxTypeApproval",
              "type": "bool"
            },
            {
              "internalType": "bool",
              "name": "revokeYieldBox",
              "type": "bool"
            },
            {
              "internalType": "uint16",
              "name": "actionType",
              "type": "uint16"
            },
            {
              "internalType": "address",
              "name": "target",
              "type": "address"
            },
            {
              "internalType": "bool",
              "name": "permitBorrow",
              "type": "bool"
            },
            {
              "internalType": "address",
              "name": "owner",
              "type": "address"
            },
            {
              "internalType": "address",
              "name": "spender",
              "type": "address"
            },
            {
              "internalType": "uint256",
              "name": "value",
              "type": "uint256"
            },
            {
              "internalType": "uint256",
              "name": "deadline",
              "type": "uint256"
            },
            {
              "internalType": "uint8",
              "name": "v",
              "type": "uint8"
            },
            {
              "internalType": "bytes32",
              "name": "r",
              "type": "bytes32"
            },
            {
              "internalType": "bytes32",
              "name": "s",
              "type": "bytes32"
            }
          ],
          "internalType": "struct ICommonData.IApproval[]",
          "name": "approvals",
          "type": "tuple[]"
        }
      ],
      "name": "triggerApproveOrRevoke",
      "outputs": [],
      "stateMutability": "payable",
      "type": "function"
    },
    {
      "inputs": [
        {
          "internalType": "uint16",
          "name": "lzDstChainId",
          "type": "uint16"
        },
        {
          "internalType": "bytes",
          "name": "airdropAdapterParams",
          "type": "bytes"
        },
        {
          "internalType": "uint256",
          "name": "amount",
          "type": "uint256"
        },
        {
          "components": [
            {
              "internalType": "address payable",
              "name": "refundAddress",
              "type": "address"
            },
            {
              "internalType": "address",
              "name": "zroPaymentAddress",
              "type": "address"
            },
            {
              "internalType": "bytes",
              "name": "adapterParams",
              "type": "bytes"
            }
          ],
          "internalType": "struct ICommonOFT.LzCallParams",
          "name": "sendFromData",
          "type": "tuple"
        },
        {
          "components": [
            {
              "internalType": "bool",
              "name": "permitAll",
              "type": "bool"
            },
            {
              "internalType": "bool",
              "name": "allowFailure",
              "type": "bool"
            },
            {
              "internalType": "bool",
              "name": "yieldBoxTypeApproval",
              "type": "bool"
            },
            {
              "internalType": "bool",
              "name": "revokeYieldBox",
              "type": "bool"
            },
            {
              "internalType": "uint16",
              "name": "actionType",
              "type": "uint16"
            },
            {
              "internalType": "address",
              "name": "target",
              "type": "address"
            },
            {
              "internalType": "bool",
              "name": "permitBorrow",
              "type": "bool"
            },
            {
              "internalType": "address",
              "name": "owner",
              "type": "address"
            },
            {
              "internalType": "address",
              "name": "spender",
              "type": "address"
            },
            {
              "internalType": "uint256",
              "name": "value",
              "type": "uint256"
            },
            {
              "internalType": "uint256",
              "name": "deadline",
              "type": "uint256"
            },
            {
              "internalType": "uint8",
              "name": "v",
              "type": "uint8"
            },
            {
              "internalType": "bytes32",
              "name": "r",
              "type": "bytes32"
            },
            {
              "internalType": "bytes32",
              "name": "s",
              "type": "bytes32"
            }
          ],
          "internalType": "struct ICommonData.IApproval[]",
          "name": "approvals",
          "type": "tuple[]"
        },
        {
          "components": [
            {
              "internalType": "bool",
              "name": "permitAll",
              "type": "bool"
            },
            {
              "internalType": "bool",
              "name": "allowFailure",
              "type": "bool"
            },
            {
              "internalType": "bool",
              "name": "yieldBoxTypeApproval",
              "type": "bool"
            },
            {
              "internalType": "bool",
              "name": "revokeYieldBox",
              "type": "bool"
            },
            {
              "internalType": "uint16",
              "name": "actionType",
              "type": "uint16"
            },
            {
              "internalType": "address",
              "name": "target",
              "type": "address"
            },
            {
              "internalType": "bool",
              "name": "permitBorrow",
              "type": "bool"
            },
            {
              "internalType": "address",
              "name": "owner",
              "type": "address"
            },
            {
              "internalType": "address",
              "name": "spender",
              "type": "address"
            },
            {
              "internalType": "uint256",
              "name": "value",
              "type": "uint256"
            },
            {
              "internalType": "uint256",
              "name": "deadline",
              "type": "uint256"
            },
            {
              "internalType": "uint8",
              "name": "v",
              "type": "uint8"
            },
            {
              "internalType": "bytes32",
              "name": "r",
              "type": "bytes32"
            },
            {
              "internalType": "bytes32",
              "name": "s",
              "type": "bytes32"
            }
          ],
          "internalType": "struct ICommonData.IApproval[]",
          "name": "revokes",
          "type": "tuple[]"
        }
      ],
      "name": "triggerSendFrom",
      "outputs": [],
      "stateMutability": "payable",
      "type": "function"
    },
    {
      "inputs": [
        {
          "internalType": "uint16",
          "name": "",
          "type": "uint16"
        }
      ],
      "name": "trustedRemoteLookup",
      "outputs": [
        {
          "internalType": "bytes",
          "name": "",
          "type": "bytes"
        }
      ],
      "stateMutability": "view",
      "type": "function"
    },
    {
      "inputs": [],
      "name": "useCustomAdapterParams",
      "outputs": [
        {
          "internalType": "bool",
          "name": "",
          "type": "bool"
        }
      ],
      "stateMutability": "view",
      "type": "function"
    },
    {
      "inputs": [],
      "name": "yieldBox",
      "outputs": [
        {
          "internalType": "contract IYieldBoxBase",
          "name": "",
          "type": "address"
        }
      ],
      "stateMutability": "view",
      "type": "function"
    },
    {
      "stateMutability": "payable",
      "type": "receive"
    }
  ],
  "bytecode": "0x61010060409080825234620004db57606081620056748038038091620000268285620004e0565b833981010312620004db5780516001600160a01b039182821691829003620004db57602080820151918483168303620004db5785015193808516809503620004db57620000726200051a565b906200007d6200051a565b60008054336001600160a01b03198083168217845598929493929184167f8be0079c531659141344cd1fd0a4f28419497f9722a3daafe3b4186f6b6457e08680a3608052600860a05283516001600160401b0391828211620003e257600b54916001968784811c94168015620004d0575b89851014620004bc578190601f9485811162000468575b50899085831160011462000402578892620003f6575b5050600019600383901b1c191690871b17600b555b8051928311620003e257600c548681811c91168015620003d7575b88821014620003c35790818389959493116200036b575b508391831160011462000300576004949291869183620002f4575b5050600019600383901b1c191690861b17600c555b6402540be40060c052608051168951928380926303408e4760e41b82525afa908115620002ea579082918993916200029f575b5061ffff1693848252600f815282822033835281528282209460ff199585878254161790558252601081528282209033835252209182541617905560e052600d541617600d555161512890816200054c82396080518181816104ca0152818161078d015281816108bc01528181610a3601528181610bf701528181611cc901528181611e23015281816126970152818161394601528181613dde01526141fa015260a05181611757015260c05181818161117e0152818161442e015281816146af015281816149a40152614a3e015260e051816120da0152f35b80929350858092503d8311620002e2575b620002bc8183620004e0565b81010312620002de575161ffff81168103620002de5787919061ffff620001c5565b5080fd5b503d620002b0565b88513d84823e3d90fd5b0151905038806200017d565b93918691601f19821690600c885285882091885b81811062000352575096836004981062000338575b505050811b01600c5562000192565b015160001960f88460031b161c1916905538808062000329565b8289015184558b978b9690940193928301920162000314565b9091929350600c86528786208380860160051c8201928a8710620003b9575b9189918b97969594930160051c01915b828110620003aa57505062000162565b8881558a96508991016200039a565b925081926200038a565b634e487b7160e01b86526022600452602486fd5b90607f16906200014b565b634e487b7160e01b85526041600452602485fd5b0151905038806200011b565b600b89528a89208a94509190601f1984168a5b8d82821062000451575050841162000437575b505050811b01600b5562000130565b015160001960f88460031b161c1916905538808062000428565b8385015186558d9790950194938401930162000415565b909150600b88528988208580850160051c8201928c8610620004b2575b918b91869594930160051c01915b828110620004a357505062000105565b8a81558594508b910162000493565b9250819262000485565b634e487b7160e01b87526022600452602487fd5b93607f1693620000ee565b600080fd5b601f909101601f19168101906001600160401b038211908210176200050457604052565b634e487b7160e01b600052604160045260246000fd5b60408051919082016001600160401b03811183821017620005045760405260048252635553444f60e01b602083015256fe6080604052600436101561001b575b361561001957600080fd5b005b60003560e01c80621d3567146103e057806301ffc9a7146103db57806306fdde03146103d657806307e0db17146103d1578063095ea7b3146103cc5780630df37483146103c757806310ddb137146103c257806318160ddd1461034f57806323b872dd146103bd578063313ce567146103b8578063365260b4146103b357806339509351146103ae5780633d8b38f6146103a95780633f1f4fa4146103a457806342d65a8d1461039f578063447705151461039a5780634c42899a1461039a5780634fd7e9f61461039557806355ea8c88146103905780635b8c41e61461038b5780635c975abb1461038657806366ad5c8a146103815780636779ec981461037c578063695ef6bf1461037757806370a0823114610372578063715018a61461036d5780637533d7881461036857806376203b4814610363578063857749b01461035e5780638cfd8f5c146103595780638da5cb5b146103545780639358928b1461034f578063950c8a741461034a57806395d89b41146103455780639bdb9812146103405780639f38369a1461033b578063a457c2d714610336578063a4c51df514610331578063a6c3d1651461032c578063a9059cbb14610327578063b353aaa714610322578063ba03a8d71461031d578063baf3292d14610318578063c446183414610313578063cbed8b9c1461030e578063ce8849ed14610309578063d1deba1f14610304578063dbd01de1146102ff578063dd62ed3e146102fa578063de406577146102f5578063df2a5b3b146102f0578063e6a20ae6146102eb578063eab45d9c146102e6578063eaffd49a146102e1578063eb8d72b7146102dc578063ec6d062b146102d7578063ed629c5c146102d2578063ee75f25d146102cd578063f2fde38b146102c8578063f5ecbdbc146102c35763fc0c546a0361000e57612701565b61262d565b612566565b6124b4565b612491565b612447565b6122fd565b612274565b612212565b6121f6565b612109565b6120c4565b61206a565b612041565b611ede565b611eb5565b611dcf565b611db2565b611d42565b611cf8565b611cb3565b611c89565b611b06565b611a6f565b6119b1565b61190e565b6118c3565b61181f565b6117f6565b61091d565b6117cd565b61177b565b61173d565b61151f565b6114c8565b611382565b611345565b611262565b61112c565b61103c565b611019565b610fb2565b610dbf565b610cb9565b610c5e565b610bdd565b610ba4565b610b48565b610ab4565b6109ac565b61097b565b61093b565b610893565b610854565b61081f565b610764565b610684565b6105c7565b6104b3565b61ffff8116036103f157565b600080fd5b60043590610403826103e5565b565b3590610403826103e5565b9181601f840112156103f1578235916001600160401b0383116103f157602083818601950101116103f157565b6001600160401b038116036103f157565b9060806003198301126103f157600435610467816103e5565b916001600160401b03906024358281116103f1578161048891600401610410565b939093926044356104988161043d565b926064359182116103f1576104af91600401610410565b9091565b346103f1576104c13661044e565b929493919291907f00000000000000000000000000000000000000000000000000000000000000006001600160a01b031633036105825761054761054f92610019976105406105266105218a61ffff166000526001602052604060002090565b6114ad565b8051908184149182610578575b5081610555575b50613ce7565b3691610ef5565b923691610ef5565b92613fce565b9050610562368486610ef5565b602081519101209060208151910120143861053a565b1515915038610533565b60405162461bcd60e51b815260206004820152601e60248201527f4c7a4170703a20696e76616c696420656e64706f696e742063616c6c657200006044820152606490fd5b346103f15760203660031901126103f15760043563ffffffff60e01b81168091036103f157602090631f7ecdf760e01b811490811561060c575b506040519015158152f35b6301ffc9a760e01b14905038610601565b60009103126103f157565b60005b83811061063b5750506000910152565b818101518382015260200161062b565b9060209161066481518092818552858086019101610628565b601f01601f1916010190565b90602061068192818152019061064b565b90565b346103f1576000806003193601126107615760405181600b546106a6816113dd565b8084529060019081811690811561073957506001146106e0575b6106dc846106d081880382610e99565b60405191829182610670565b0390f35b600b8352602094507f0175b7a638427703f0dbe7bb9bbf987a2551717b34e79f33b5b1008d1fa01db95b82841061072657505050816106dc936106d092820101936106c0565b805485850187015292850192810161070a565b6106dc96506106d09450602092508593915060ff191682840152151560051b820101936106c0565b80fd5b346103f1576000602036600319011261076157600435610783816103e5565b61078b61271c565b7f00000000000000000000000000000000000000000000000000000000000000006001600160a01b0316908290823b156107ff57602461ffff918360405195869485936307e0db1760e01b85521660048401525af180156107fa576107ee575080f35b6107f790610e66565b80f35b612e80565b5080fd5b6001600160a01b038116036103f157565b359061040382610803565b346103f15760403660031901126103f15761084960043561083f81610803565b602435903361296e565b602060405160018152f35b346103f15760403660031901126103f15761ffff600435610874816103e5565b61087c61271c565b166000526003602052602435604060002055600080f35b346103f15760006020366003190112610761576004356108b2816103e5565b6108ba61271c565b7f00000000000000000000000000000000000000000000000000000000000000006001600160a01b0316908290823b156107ff57602461ffff918360405195869485936310ddb13760e01b85521660048401525af180156107fa576107ee575080f35b346103f15760003660031901126103f1576020600a54604051908152f35b346103f15760603660031901126103f15761084960043561095b81610803565b60243561096781610803565b60443591610976833383612a99565b612866565b346103f15760003660031901126103f157602060405160128152f35b801515036103f157565b359061040382610997565b346103f15760a03660031901126103f1576004356109c9816103e5565b606435906109d682610997565b608435906001600160401b0382116103f1576109fb6105406040933690600401610410565b90610a32610a15610a0d6044356149a2565b602435614a73565b928451958694859463040a7bb160e41b8652309060048701614383565b03817f00000000000000000000000000000000000000000000000000000000000000006001600160a01b03165afa9081156107fa576000908192610a83575b50604080519182526020820192909252f35b9050610aa6915060403d8111610aad575b610a9e8183610e99565b81019061436d565b9038610a71565b503d610a94565b346103f15760403660031901126103f157600435610ad181610803565b3360009081526009602090815260408083206001600160a01b03851684529091529020546024358101809111610b0b57610849913361296e565b612774565b9060406003198301126103f157600435610b29816103e5565b91602435906001600160401b0382116103f1576104af91600401610410565b346103f157602061ffff610b95610b5e36610b10565b9390911660005260018452610b80610b87604060002060405192838092611417565b0382610e99565b848151910120923691610ef5565b82815191012014604051908152f35b346103f15760203660031901126103f15761ffff600435610bc4816103e5565b1660005260036020526020604060002054604051908152f35b346103f157610beb36610b10565b9190610bf561271c565b7f00000000000000000000000000000000000000000000000000000000000000006001600160a01b031691823b156103f157604051928380926342d65a8d60e01b825281610c4c6000988997889460048501613f41565b03925af180156107fa576107ee575080f35b346103f15760003660031901126103f157602060405160008152f35b908160609103126103f15790565b9181601f840112156103f1578235916001600160401b0383116103f1576020808501946101c085020101116103f157565b60603660031901126103f157600435610cd1816103e5565b6001600160401b036024358181116103f157610cf1903690600401610c7a565b6044359182116103f157610d4b610d8591610d13610d8e943690600401610c88565b610d3d60409492945194859261030b60208501523360408501526060808501526080840191612b47565b03601f198101845283610e99565b610d7a60408201610d68610d626105408386612c7e565b8861481b565b610d7460208401612cb0565b92612c7e565b939034943691610ef5565b91339086613d9a565b60405190339160008051602061509383398151915261ffff3393169180610dba81906000602083019252565b0390a4005b60c03660031901126103f157610dd36103f6565b6001600160401b03906024358281116103f157610df4903690600401610410565b916064358481116103f157610e0d903690600401610c7a565b906084358581116103f157610e26903690600401610c88565b92909160a4359687116103f157610e44610019973690600401610c88565b969095604435926138ff565b634e487b7160e01b600052604160045260246000fd5b6001600160401b038111610e7957604052565b610e50565b604081019081106001600160401b03821117610e7957604052565b90601f801991011681019081106001600160401b03821117610e7957604052565b604051906101c082018281106001600160401b03821117610e7957604052565b6001600160401b038111610e7957601f01601f191660200190565b929192610f0182610eda565b91610f0f6040519384610e99565b8294818452818301116103f1578281602093846000960137010152565b9080601f830112156103f15781602061068193359101610ef5565b9060606003198301126103f157600435610f60816103e5565b91602435906001600160401b0382116103f157610f7f91600401610f2c565b906044356106818161043d565b602090610fa6928260405194838680955193849201610628565b82019081520301902090565b346103f157602061101061ffff610fef83610fcc36610f47565b949091166000526005825260406000208260405194838680955193849201610628565b820190815203019020906001600160401b0316600052602052604060002090565b54604051908152f35b346103f15760003660031901126103f157602060ff601154166040519015158152f35b346103f15761104a3661044e565b919294939030330361106e5761054761106892610019973691610ef5565b926143c7565b60405162461bcd60e51b815260206004820152602660248201527f4e6f6e626c6f636b696e674c7a4170703a2063616c6c6572206d7573742062656044820152650204c7a4170760d41b6064820152608490fd5b60a06003198201126103f1576004356110da81610803565b916024356110e7816103e5565b916001600160401b03916044358381116103f1578261110891600401610f2c565b926064356111158161043d565b926084359182116103f15761068191600401610f2c565b346103f15761113a366110c2565b93505050503033036112505761115c816020806111a494518301019101613ac9565b9491979296509460018060a01b0316968051611241575b506001600160401b037f00000000000000000000000000000000000000000000000000000000000000009116614a29565b90303b156103f15760405163695ef6bf60e01b8152926000928492839182916111d3918b8b8160048701613b61565b0391305af180156107fa57611228575b508051611219575b506000805160206150b383398151915261ffff6040519216918061121481906000602083019252565b0390a3005b61122290612f48565b386111eb565b8061123561123b92610e66565b8061061d565b386111e3565b61124a90612f48565b38611173565b6040516379d1e58f60e01b8152600490fd5b60a03660031901126103f15760043561127a81610803565b602435611286816103e5565b604435916084356001600160401b0381116103f157602061ffff6112bd600080516020615093833981519152933690600401610c7a565b9361133085356112cc81610803565b6112ea61054086890135986112e08a610803565b6040810190612c7e565b6112f4818a614872565b611309611302606435614a3c565b5085614c46565b97611315891515614592565b6113276113218a6149a2565b8c614a73565b9234938b613d9a565b6040519485526001600160a01b0316941692a4005b346103f15760203660031901126103f15760043561136281610803565b60018060a01b031660005260086020526020604060002054604051908152f35b346103f1576000806003193601126107615761139c61271c565b80546001600160a01b03198116825581906001600160a01b03167f8be0079c531659141344cd1fd0a4f28419497f9722a3daafe3b4186f6b6457e08280a380f35b90600182811c9216801561140d575b60208310146113f757565b634e487b7160e01b600052602260045260246000fd5b91607f16916113ec565b9060009291805491611428836113dd565b91828252600193848116908160001461148a575060011461144a575b50505050565b90919394506000526020928360002092846000945b838610611476575050505001019038808080611444565b80548587018301529401938590820161145f565b9294505050602093945060ff191683830152151560051b01019038808080611444565b906104036114c19260405193848092611417565b0383610e99565b346103f15760203660031901126103f15761ffff6004356114e8816103e5565b1660005260016020526106dc610b8061150b604060002060405192838092611417565b60405191829160208352602083019061064b565b60e03660031901126103f15760043561153781610803565b602435611543816103e5565b604435916001600160401b03906084358281116103f157611568903690600401610410565b91909260a435916115788361043d565b60c4358281116103f157611590903690600401610c7a565b926115c78435956115a087610803565b6115bf6115b56020880135976112e089610803565b9990923691610ef5565b973691610ef5565b9460ff600654166000146116bc5760228651106116775785602095611327611330946116458c61163261ffff9a8b60226000805160206150938339815191529f0151931660005260028d52841661162c60406000206001600052602052604060002090565b546127a6565b9061163e8215156148f4565b1015614940565b61165a611653606435614a3c565b5088614c46565b9a6116668c1515614592565b8d6116708d6149a2565b9033614b00565b60405162461bcd60e51b815260206004820152601c60248201527f4c7a4170703a20696e76616c69642061646170746572506172616d73000000006044820152606490fd5b9480949350516116e9576000805160206150938339815191529460209461ffff9461132761133094611645565b60405162461bcd60e51b815260206004820152602660248201527f4f4654436f72653a205f61646170746572506172616d73206d7573742062652060448201526532b6b83a3c9760d11b6064820152608490fd5b346103f15760003660031901126103f157602060405160ff7f0000000000000000000000000000000000000000000000000000000000000000168152f35b346103f15760403660031901126103f157602061101060043561179d816103e5565b61ffff602435916117ad836103e5565b166000526002835260406000209061ffff16600052602052604060002090565b346103f15760003660031901126103f1576000546040516001600160a01b039091168152602090f35b346103f15760003660031901126103f1576004546040516001600160a01b039091168152602090f35b346103f1576000806003193601126107615760405181600c54611841816113dd565b80845290600190818116908115610739575060011461186a576106dc846106d081880382610e99565b600c8352602094507fdf6966c971051c3d54ec59162606531493a51404a002842f56009d7e5cf4a8c75b8284106118b057505050816106dc936106d092820101936106c0565b8054858501870152928501928101611894565b346103f157602060ff61190261ffff610fef846118df36610f47565b949091166000526007825260406000208260405194838680955193849201610628565b54166040519015158152f35b346103f15760203660031901126103f15761ffff60043561192e816103e5565b166000526001602052610b8061194e604060002060405192838092611417565b80511561196c576106d0816119666106dc9351613fb0565b90614e86565b60405162461bcd60e51b815260206004820152601d60248201527f4c7a4170703a206e6f20747275737465642070617468207265636f72640000006044820152606490fd5b346103f15760403660031901126103f1576004356119ce81610803565b602435903360005260096020526119fb8160406000209060018060a01b0316600052602052604060002090565b5491808310611a1c57611a109203903361296e565b60405160018152602090f35b60405162461bcd60e51b815260206004820152602560248201527f45524332303a2064656372656173656420616c6c6f77616e63652062656c6f77604482015264207a65726f60d81b6064820152608490fd5b346103f15760e03660031901126103f157600435611a8c816103e5565b6001600160401b03906064358281116103f157611aad903690600401610410565b608492919235611abc8161043d565b60a43591611ac983610997565b60c4359586116103f157611ae4611af4963690600401610410565b95909460443590602435906141aa565b60408051928352602083019190915290f35b346103f157611b1436610b10565b90611b1d61271c565b60405192602092808385870137611b496034868381013060601b88820152036014810188520186610e99565b60009361ffff8316855260019081815260408620918751916001600160401b038311610e7957611b8383611b7d86546113dd565b86613f5c565b80601f8411600114611bf3575091808092611be29695948a9b7f8c0400cfe2d1199b1a725c78960bcc2a344d869b80590d0f2bd005db15a572ce9b94611be8575b50501b916000199060031b1c19161790555b60405193849384613f41565b0390a180f35b015192503880611bc4565b91939498601f198416611c0b87600052602060002090565b938a905b828210611c72575050917f8c0400cfe2d1199b1a725c78960bcc2a344d869b80590d0f2bd005db15a572ce999a95939185611be298969410611c59575b505050811b019055611bd6565b015160001960f88460031b161c19169055388080611c4c565b808886978294978701518155019601940190611c0f565b346103f15760403660031901126103f157610849600435611ca981610803565b6024359033612866565b346103f15760003660031901126103f1576040517f00000000000000000000000000000000000000000000000000000000000000006001600160a01b03168152602090f35b346103f15760403660031901126103f157602060ff611902602435611d1c81610803565b600435600052600f845260406000209060018060a01b0316600052602052604060002090565b346103f15760203660031901126103f1577f5db758e995a17ec1ad84bdef7e8c3293a0bd6179bcce400dff5d4c3d87db726b6020600435611d8281610803565b611d8a61271c565b600480546001600160a01b0319166001600160a01b03929092169182179055604051908152a1005b346103f15760003660031901126103f15760206040516127108152f35b346103f15760803660031901126103f157600435611dec816103e5565b602435611df8816103e5565b6064356001600160401b0381116103f157611e17903690600401610410565b9092611e2161271c565b7f00000000000000000000000000000000000000000000000000000000000000006001600160a01b031690813b156103f15760008094611e98604051978896879586946332fb62e760e21b865261ffff80921660048701521660248501526044356044850152608060648501526084840191613804565b03925af180156107fa57611ea857005b8061123561001992610e66565b346103f15760003660031901126103f157600e546040516001600160a01b039091168152602090f35b611ee73661044e565b9161ffff86949296166000526005602052611f2e81604060002060206040518092878b833787820190815203019020906001600160401b0316600052602052604060002090565b54918215611ff057611fdf8483611fd87fc264d91f3adc5588250e1551f547752ca0cfa8f6b530d243b9f9f4cab10ea8e59a6000611fc484611fac8e8a8f611feb9f908f611f9290611f85611fa69436908d610ef5565b602081519101201461411d565b61ffff166000526005602052604060002090565b91614104565b906001600160401b0316600052602052604060002090565b55611fd036878d610ef5565b933691610ef5565b91886143c7565b60405195869586614173565b0390a1005b60405162461bcd60e51b815260206004820152602360248201527f4e6f6e626c6f636b696e674c7a4170703a206e6f2073746f726564206d65737360448201526261676560e81b6064820152608490fd5b346103f15760003660031901126103f157600d546040516001600160a01b039091168152602090f35b346103f15760403660031901126103f157602061101060043561208c81610803565b6024359061209982610803565b60018060a01b03166000526009835260406000209060018060a01b0316600052602052604060002090565b346103f15760003660031901126103f1576040517f00000000000000000000000000000000000000000000000000000000000000006001600160a01b03168152602090f35b346103f15760603660031901126103f157600435612126816103e5565b602435612132816103e5565b6044359161213e61271c565b82156121b957611feb7f9d5c7c0b934da8fefa9c7760c98383778a12dfbfc0c3b3106518f43fb9508ac09361ffff83166000526002602052806121938560406000209061ffff16600052602052604060002090565b556040519384938460409194939294606082019561ffff80921683521660208201520152565b60405162461bcd60e51b81526020600482015260156024820152744c7a4170703a20696e76616c6964206d696e47617360581b6044820152606490fd5b346103f15760003660031901126103f157602060405160018152f35b346103f15760203660031901126103f1577f1584ad594a70cbe1e6515592e1272a987d922b097ead875069cebe8b40c004a4602060043561225281610997565b61225a61271c565b151560ff196006541660ff821617600655604051908152a1005b346103f1576101003660031901126103f157600435612292816103e5565b6001600160401b03906024358281116103f1576122b3903690600401610410565b9190604435906122c28261043d565b6084356122ce81610803565b60c4359586116103f1576122e9610019963690600401610410565b94909360e4359660a43594606435936142a0565b346103f15761230b36610b10565b919061231561271c565b60009161ffff81168352600160209080825260408520916001600160401b038711610e795761234e8761234885546113dd565b85613f5c565b8590601f88116001146123b55750918680879893611be2957ffa41487ad5d6728f0b19276fa1eddc16558578f5109fc39d2dc33c3230470dab99936123aa575b501b906000198460031b1c191617905560405193849384613f41565b88013592503861238e565b90601f1988166123ca85600052602060002090565b9288905b828210612430575050918893917ffa41487ad5d6728f0b19276fa1eddc16558578f5109fc39d2dc33c3230470dab9899611be2969410612416575b505082811b019055611bd6565b870135600019600386901b60f8161c191690553880612409565b808685968294968c013581550195019301906123ce565b346103f15760403660031901126103f157602060ff61190260243561246b81610803565b6004356000526010845260406000209060018060a01b0316600052602052604060002090565b346103f15760003660031901126103f157602060ff600654166040519015158152f35b346103f1576124c2366110c2565b929350505030330361125057805181016060828203126103f1576124e960208301516103e5565b6040820151916124f883610803565b6060810151916001600160401b0383116103f15761251d926020809201920101612ce6565b8051612557575b50604051600081526001600160a01b039091169161ffff16906000805160206150b3833981519152908060208101611214565b6125609061322a565b38612524565b346103f15760203660031901126103f15760043561258381610803565b61258b61271c565b6001600160a01b0390811680156125d957600080546001600160a01b03198116831782559092167f8be0079c531659141344cd1fd0a4f28419497f9722a3daafe3b4186f6b6457e08380a380f35b60405162461bcd60e51b815260206004820152602660248201527f4f776e61626c653a206e6577206f776e657220697320746865207a65726f206160448201526564647265737360d01b6064820152608490fd5b346103f15760803660031901126103f15760043561264a816103e5565b60243590612657826103e5565b612662604435610803565b604051633d7b2f6f60e21b815261ffff91821660048201529116602482015230604482015260648035908201526000816084817f00000000000000000000000000000000000000000000000000000000000000006001600160a01b03165afa80156107fa576106dc916000916126e0575b5060405191829182610670565b6126fb913d8091833e6126f38183610e99565b810190613f1c565b386126d3565b346103f15760003660031901126103f1576020604051308152f35b6000546001600160a01b0316330361273057565b606460405162461bcd60e51b815260206004820152602060248201527f4f776e61626c653a2063616c6c6572206973206e6f7420746865206f776e65726044820152fd5b634e487b7160e01b600052601160045260246000fd5b90601f8201809211610b0b57565b6051019081605111610b0b57565b91908201809211610b0b57565b156127ba57565b60405162461bcd60e51b815260206004820152602360248201527f45524332303a207472616e7366657220746f20746865207a65726f206164647260448201526265737360e81b6064820152608490fd5b1561281257565b60405162461bcd60e51b815260206004820152602660248201527f45524332303a207472616e7366657220616d6f756e7420657863656564732062604482015265616c616e636560d01b6064820152608490fd5b916001600160a01b03808416929091831561291b57612900826000805160206150d3833981519152946129169416966128a08815156127b3565b6001600160a01b03811660009081526008602052604090206128e5908590546128cb8282101561280b565b039160018060a01b03166000526008602052604060002090565b556001600160a01b0316600090815260086020526040902090565b8054820190556040519081529081906020820190565b0390a3565b60405162461bcd60e51b815260206004820152602560248201527f45524332303a207472616e736665722066726f6d20746865207a65726f206164604482015264647265737360d81b6064820152608490fd5b6001600160a01b038082169291908315612a485782169384156129f857806129e77f8c5be1e5ebec7d5bd14f71427d1e84f3dd0314c0f7b2291e5b200ac8c7c3b925946129d06129169560018060a01b03166000526009602052604060002090565b9060018060a01b0316600052602052604060002090565b556040519081529081906020820190565b60405162461bcd60e51b815260206004820152602260248201527f45524332303a20617070726f766520746f20746865207a65726f206164647265604482015261737360f01b6064820152608490fd5b60405162461bcd60e51b8152602060048201526024808201527f45524332303a20617070726f76652066726f6d20746865207a65726f206164646044820152637265737360e01b6064820152608490fd5b6001600160a01b038082166000908152600960209081526040808320938616835292905220909190549260018401612ad15750505050565b808410612aec57612ae393039161296e565b38808080611444565b60405162461bcd60e51b815260206004820152601d60248201527f45524332303a20696e73756666696369656e7420616c6c6f77616e63650000006044820152606490fd5b60ff8116036103f157565b359061040382612b31565b9190808252602080920192916000905b828210612b65575050505090565b9091929380612b7f600192612b79886109a1565b15159052565b612b95612b8d8488016109a1565b151582850152565b612bad6040612ba58189016109a1565b151590830152565b612bbd6060612ba58189016109a1565b612bd76080612bcd818901610405565b61ffff1690830152565b612bf660a0612be7818901610814565b6001600160a01b031690830152565b612c0660c0612ba58189016109a1565b612c1660e0612be7818901610814565b612c27610100612be7818901610814565b61012080870135908201526101408087013590820152612c57610160612c4e818901612b3c565b60ff1690830152565b61018086810135908201526101a080870135908201526101c0908101950193920190612b57565b903590601e19813603018212156103f157018035906001600160401b0382116103f1576020019181360383136103f157565b3561068181610803565b5190610403826103e5565b519061040382610803565b519061040382610997565b519061040382612b31565b81601f820112156103f1578051906001600160401b038211610e79576040805193602091612d19838660051b0187610e99565b84865282860191836101c0809702860101948186116103f1578401925b858410612d47575050505050505090565b86848303126103f157848791612d5b610eba565b612d6487612cd0565b8152612d71838801612cd0565b83820152612d80868801612cd0565b868201526060612d91818901612cd0565b908201526080612da2818901612cba565b9082015260a0612db3818901612cc5565b9082015260c0612dc4818901612cd0565b9082015260e0612dd5818901612cc5565b90820152610100612de7818901612cc5565b9082015261012080880151908201526101408088015190820152610160612e0f818901612cdb565b9082015261018080880151908201526101a08088015190820152815201930192612d36565b8051821015612e485760209160051b010190565b634e487b7160e01b600052603260045260246000fd5b9061ffff612e7960209295949560408552604085019061064b565b9416910152565b6040513d6000823e3d90fd5b60009060033d11612e9957565b905060046000803e60005160e01c90565b600060443d1061068157604051600319913d83016004833e81516001600160401b03918282113d602484011117612f0757818401948551938411612f0f573d85010160208487010111612f07575061068192910160200190610e99565b949350505050565b50949350505050565b3d15612f43573d90612f2982610eda565b91612f376040519384610e99565b82523d6000602084013e565b606090565b9060005b8251811015613225576040612f6d81612f658487612e34565b510151151590565b15612fbb575080612f856060612f6560019487612e34565b15612fa357612f9d612f978286612e34565b516134f1565b01612f4c565b612fb6612fb08286612e34565b516136cf565b612f9d565b608061030a61ffff612fdb83612fd1878a612e34565b51015161ffff1690565b160361321457612ff060c0612f658588612e34565b61300e60e0612fff8689612e34565b5101516001600160a01b031690565b916130e0613022610100612fff888b612e34565b936130d2610120613033898c612e34565b5101518a6101406130448b83612e34565b5101516130606101606130578d85612e34565b51015160ff1690565b906101a061307e8d6101806130758288612e34565b51015195612e34565b510151938b519a8b9760209b8c8a0194909897969360e0969260ff9461010088019b1515885260018060a01b038092166020890152166040870152606086015260808501521660a083015260c08201520152565b03601f198101855284610e99565b61310f6131046130f86130f860a0612fff8a8d612e34565b6001600160a01b031690565b91612fd1878a612e34565b90803b156103f15761313d6000929183928751948580948193631221baf960e31b835260049a8b8401612e5e565b03925af19081613201575b50613167576001613157612e8c565b6308c379a0146131b9575b613172575b505050600190612f9d565b61318f61318b613180612f18565b92612f65878a612e34565b1590565b15613167576131a06131b591613401565b925162461bcd60e51b81529283928301610670565b0390fd5b6131c1612eaa565b806131cd575b50613162565b600091506131e261318b84612f65898c612e34565b156131c757845162461bcd60e51b81529081906131b590828701610670565b8061123561320e92610e66565b38613148565b8151639f62049960e01b8152600490fd5b509050565b9060005b825181101561322557604061324781612f658487612e34565b1561328957508061325f6060612f6560019487612e34565b1561327757613271612f978286612e34565b0161322e565b613284612fb08286612e34565b613271565b608061030b61ffff61329f83612fd1878a612e34565b1603613214576132b460c0612f658588612e34565b6132c360e0612fff8689612e34565b916132d7613022610100612fff888b612e34565b6132ef6131046130f86130f860a0612fff8a8d612e34565b90803b156103f15761331d6000929183928751948580948193631221baf960e31b835260049a8b8401612e5e565b03925af190816133b9575b50613347576001613337612e8c565b6308c379a014613371575b613352575b505050600190613271565b61336061318b613180612f18565b15613347576131a06131b591613401565b613379612eaa565b80613385575b50613342565b6000915061339a61318b84612f65898c612e34565b1561337f57845162461bcd60e51b81529081906131b590828701610670565b806112356133c692610e66565b38613328565b909291926133d981610eda565b916133e76040519384610e99565b8294828452828201116103f1576020610403930190610628565b6044815110613452576004810151810190602081602484019303126103f1576024810151906001600160401b0382116103f1570190806043830112156103f1576024820151610681926044016133cc565b5060405161345f81610e7e565b600a8152695553444f3a206461746160b01b602082015290565b9360ff929897969360c0969260e087019a60018060a01b0380921688521660208701526040860152606085015216608083015260a08201520152565b6001600160a01b03918216815291166020820152604081019190915260ff9091166060820152608081019190915260a081019190915260c00190565b80511561363f5760a0810151613511906130f8906001600160a01b031681565b60e08201516001600160a01b03166101008301516001600160a01b0316916101408401519061354561016086015160ff1690565b93610180860151936101a087015190833b156103f157613581600096928793604051998a98899788966365e2b81f60e01b8852600488016134b5565b03925af1908161362c575b506135ab57600161359b612e8c565b6308c379a0146135ef575b6135ae575b50565b6135c661318b60206135be612f18565b930151151590565b156135ab576135d76131b591613401565b60405162461bcd60e51b815291829160048301610670565b6135f7612eaa565b80613603575b506135a6565b6020830151600092506135fd5760405162461bcd60e51b81529081906131b59060048301610670565b8061123561363992610e66565b3861358c565b60a0810151613658906130f8906001600160a01b031681565b60e08201516001600160a01b03166101008301516001600160a01b031691610120840151906101408501519361369361016087015160ff1690565b93610180870151906101a088015195843b156103f1576000968793613581926040519a8b998a9889976372dcad7b60e01b895260048901613479565b80511561375f5760a08101516136ef906130f8906001600160a01b031681565b60e08201516001600160a01b03166101008301516001600160a01b0316916101408401519061372361016086015160ff1690565b93610180860151936101a087015190833b156103f157613581600096928793604051998a988997889663aba0784760e01b8852600488016134b5565b60a0810151613778906130f8906001600160a01b031681565b60e08201516001600160a01b03166101008301516001600160a01b03169161012084015190610140850151936137b361016087015160ff1690565b93610180870151906101a088015195843b156103f1576000968793613581926040519a8b998a98899763d505accf60e01b895260048901613479565b908160209103126103f15751610681816103e5565b908060209392818452848401376000828201840152601f01601f1916010190565b999897939195929096949661030a8b5260018060a01b0380911660208c01526001600160401b0380971660408c01526101008060608d015281833561386981610803565b16908c0152602082013561387c81610803565b166101208b01526040810135601e19823603018112156103f15701916020833593019583116103f15782360386136103f15760e0966138df6138d26138fa986138ec966101608f60606101408201520191613804565b61ffff90941660808d0152565b8a830360a08c0152612b47565b9187830360c0890152612b47565b930152565b979296919590939461393061392a61392061391b368b8a610ef5565b613c34565b509b915050614a3c565b506149a2565b6040516303408e4760e41b8152906020826004817f00000000000000000000000000000000000000000000000000000000000000006001600160a01b03165afa9182156107fa576139da9a610d85976139d0976020978c976139b6976139a896600091613a0b575b506040519e8f98338d8b01613825565b03601f198101885287610e99565b6139ca6139c4368988610ef5565b8a6148b2565b01612cb0565b9134943691610ef5565b60405190339160008051602061509383398151915261ffff3393169180613a0681906000602083019252565b0390a4565b613a2b91508b3d8111613a31575b613a238183610e99565b8101906137ef565b38613998565b503d613a19565b51906104038261043d565b9080601f830112156103f1578151610681926020016133cc565b9190916060818403126103f157604051906001600160401b03906060830182811184821017610e795760405282948151613a9681610803565b84526020820151613aa681610803565b602085015260408201519283116103f157604092613ac49201613a43565b910152565b610100818303126103f157613add81612cba565b92613aea60208301612cc5565b92613af760408401613a38565b926060810151906001600160401b03918281116103f15783613b1a918301613a5d565b93613b2760808301612cba565b9360a08301518481116103f15781613b40918501612ce6565b9360c08401519081116103f15760e091613b5b918501612ce6565b92015190565b939061068195916101009461ffff60409560018060a01b03809516895216602088015284870152606086015260a060808601528082511660a086015260208201511660c0850152015191606060e0820152019061064b565b15613bc057565b60405162461bcd60e51b8152602060048201526012602482015271556e737570706f727465642074785479706560701b6044820152606490fd5b15613c0157565b60405162461bcd60e51b815260206004820152600b60248201526a47617320746f6f206c6f7760a81b6044820152606490fd5b600080825160228114908115613cdc575b5015613c9f57600283015193602284015193600261ffff8716600181148015613c96575b613c7290613bb9565b613c7d871515613bfa565b14613c855750565b925090506056604283015192015190565b50808214613c69565b60405162461bcd60e51b8152602060048201526015602482015274496e76616c69642061646170746572506172616d7360581b6044820152606490fd5b604291501138613c45565b15613cee57565b60405162461bcd60e51b815260206004820152602660248201527f4c7a4170703a20696e76616c696420736f757263652073656e64696e6720636f6044820152651b9d1c9858dd60d21b6064820152608490fd5b92613d6761068197959361ffff613d759416865260c0602087015260c086019061064b565b90848203604086015261064b565b6001600160a01b0391821660608401529316608082015280830360a09091015261064b565b94613dc39193929561ffff81166000526001602052613dca604060002060405194858092611417565b0384610e99565b825115613e4f57613ddc855182613ead565b7f00000000000000000000000000000000000000000000000000000000000000006001600160a01b031693843b156103f157600096613e3191604051998a988997889662c5803160e81b885260048801613d42565b03925af180156107fa57613e425750565b8061123561040392610e66565b60405162461bcd60e51b815260206004820152603060248201527f4c7a4170703a2064657374696e6174696f6e20636861696e206973206e6f742060448201526f61207472757374656420736f7572636560801b6064820152608490fd5b61ffff166000526003602052604060002054908115613f12575b11613ece57565b606460405162461bcd60e51b815260206004820152602060248201527f4c7a4170703a207061796c6f61642073697a6520697320746f6f206c617267656044820152fd5b6127109150613ec7565b906020828203126103f15781516001600160401b0381116103f1576106819201613a43565b60409061ffff61068195931681528160208201520191613804565b90601f8111613f6a57505050565b600091825260208220906020601f850160051c83019410613fa6575b601f0160051c01915b828110613f9b57505050565b818155600101613f8f565b9092508290613f86565b601319810191908211610b0b57565b605019810191908211610b0b57565b9290916140325a604051633356ae4560e11b602082015261ffff87166024820152608060448201529061402c82610d3d61400b60a483018a61064b565b6001600160401b03881660648401528281036023190160848401528861064b565b30615035565b939015614041575b5050505050565b61404a94614054565b388080808061403a565b91936140f17fe183f33de2837795525b4792ca4cd60535bd77c53b7e7030060bfcf5734d6b0c956140ff939561ffff815160208301209616958660005260056020526140b883610fef60208b60406000208260405194838680955193849201610628565b556001600160401b036140dd604051988998895260a060208a015260a089019061064b565b92166040870152858203606087015261064b565b90838203608085015261064b565b0390a1565b6020919283604051948593843782019081520301902090565b1561412457565b60405162461bcd60e51b815260206004820152602160248201527f4e6f6e626c6f636b696e674c7a4170703a20696e76616c6964207061796c6f616044820152601960fa1b6064820152608490fd5b9161419f9060609461ffff6001600160401b039499989799168552608060208601526080850191613804565b951660408201520152565b9491959897906116706141d36040996141cb6141d9976141f6993691610ef5565b943691610ef5565b976149a2565b928451968794859463040a7bb160e41b8652309060048701614383565b03817f00000000000000000000000000000000000000000000000000000000000000006001600160a01b03165afa9182156107fa57600090819361423957509190565b90506104af91925060403d8111610aad57610a9e8183610e99565b939694916142829061068199979461ffff6001600160401b039416875260c0602088015260c0870191613804565b961660408401526060830152608082015260a0818503910152613804565b91969792989594939094303303614328576142bc908530614dd2565b60405181815290946001600160a01b03169390849061ffff8516906000805160206150b383398151915290602090a3833b156103f1576000988995614318936040519c8d9b8c9a8b98633fe79aed60e11b8a5260048a01614254565b0393f180156107fa57613e425750565b60405162461bcd60e51b815260206004820152601f60248201527f4f4654436f72653a2063616c6c6572206d757374206265204f4654436f7265006044820152606490fd5b91908260409103126103f1576020825192015190565b9192610681959361ffff6143b29316845260018060a01b0316602084015260a0604084015260a083019061064b565b9215156060820152608081840391015261064b565b92919060ff6143d584614fda565b168061453d5750505060ff6143e982614fda565b161580614532575b6143fa90614ab9565b61440c61440682614f8a565b91615025565b90916001600160a01b039182841615614528575b614454906001600160401b037f00000000000000000000000000000000000000000000000000000000000000009116614a29565b9183169283156144e3576000805160206150b3833981519152916144a361ffff9261448961448487600a546127a6565b600a55565b6001600160a01b0316600090815260086020526040902090565b8481540190558460006000805160206150d3833981519152604051806144ce89829190602083019252565b0390a360405193845216918060208101612916565b60405162461bcd60e51b815260206004820152601f60248201527f45524332303a206d696e7420746f20746865207a65726f2061646472657373006044820152606490fd5b61dead9350614420565b5080516029146143f1565b60010361454d5761040393614663565b60405162461bcd60e51b815260206004820152601c60248201527f4f4654436f72653a20756e6b6e6f776e207061636b65742074797065000000006044820152606490fd5b1561459957565b60405162461bcd60e51b815260206004820152601960248201527813d19510dbdc994e88185b5bdd5b9d081d1bdbc81cdb585b1b603a1b6044820152606490fd5b98979692936001600160401b0361460c60e0989461ffff6138fa9995168d5260208d61010091829101528d019061064b565b951660408b015260608a01526001600160a01b0316608089015260a088015286820360c088015261064b565b6001600160401b036146586040939695949660608452606084019061064b565b951660208201520152565b909161466e84614b6d565b909161469f61469887611fac6146928b61ffff166000526007602052604060002090565b8c610f8c565b5460ff1690565b916146d56001600160401b0392837f00000000000000000000000000000000000000000000000000000000000000009116614a29565b9288888b83156147d1575b505050853b156147865794614727969461402c948a94610d3d948d9960001461477f5750505a925b5a978b6040519a8b9863757fea4d60e11b60208b015260248a016145da565b901561477457509061476f61ffff928560207fb8890edbfc1c74692f527444645f95489c3703cc2df42e4a366f5d06fa6cd88496975191012090604051948594169684614638565b0390a2565b926104039492614054565b1692614708565b50506040516001600160a01b039094168452507f9aedf5fdba8716db3b6705ca00150643309995d4f818a249ed6dde6677e7792d9750919550859450506020840192506140ff915050565b90611fac61480692614800896147eb614813979b30614d6f565b9961ffff166000526007602052604060002090565b90610f8c565b805460ff19166001179055565b88888b6146e0565b60065460ff161561486a5760228251106116775761ffff60226104039301519116600052600260205261485d604060002061030b600052602052604060002090565b549061163e8215156148f4565b50516116e957565b60065460ff161561486a5760228251106116775761ffff60226104039301519116600052600260205261485d604060002060008052602052604060002090565b60065460ff161561486a5760228251106116775761ffff60226104039301519116600052600260205261485d604060002061030a600052602052604060002090565b156148fb57565b60405162461bcd60e51b815260206004820152601a60248201527f4c7a4170703a206d696e4761734c696d6974206e6f74207365740000000000006044820152606490fd5b1561494757565b60405162461bcd60e51b815260206004820152601b60248201527f4c7a4170703a20676173206c696d697420697320746f6f206c6f7700000000006044820152606490fd5b634e487b7160e01b600052601260045260246000fd5b7f0000000000000000000000000000000000000000000000000000000000000000908115614a2457046001600160401b03908181116149df571690565b60405162461bcd60e51b815260206004820152601a60248201527f4f4654436f72653a20616d6f756e745344206f766572666c6f770000000000006044820152606490fd5b61498c565b81810292918115918404141715610b0b57565b7f00000000000000000000000000000000000000000000000000000000000000008015614a2457810690818103908111610b0b5791565b90604051916000602084015260218301526001600160401b0360c01b9060c01b16604182015260298152606081018181106001600160401b03821117610e795760405290565b15614ac057565b60405162461bcd60e51b815260206004820152601860248201527713d19510dbdc994e881a5b9d985b1a59081c185e5b1bd85960421b6044820152606490fd5b939260719261068194604051968794600160f81b602087015260218601526001600160401b0360c01b809360c01b16604186015260018060a01b0316604985015260c01b166069830152614b5d8151809260208686019101610628565b8101036051810184520182610e99565b90614b85600160ff614b7e85614fda565b1614614ab9565b614b8e82614f8a565b90614b9883615025565b906049845110614c09576049840151936051815110614bcd57614bca605182015191614bc48151613fbf565b90614f06565b91565b60405162461bcd60e51b8152602060048201526014602482015273746f55696e7436345f6f75744f66426f756e647360601b6044820152606490fd5b60405162461bcd60e51b8152602060048201526015602482015274746f427974657333325f6f75744f66426f756e647360581b6044820152606490fd5b6001600160a01b038116338103614d08575b8015614cb95781614c8e84614c8160009560018060a01b03166000526008602052604060002090565b546128cb82821015614d18565b55614c9c83600a5403600a55565b6040518381526000805160206150d383398151915290602090a390565b60405162461bcd60e51b815260206004820152602160248201527f45524332303a206275726e2066726f6d20746865207a65726f206164647265736044820152607360f81b6064820152608490fd5b614d13833384612a99565b614c58565b15614d1f57565b60405162461bcd60e51b815260206004820152602260248201527f45524332303a206275726e20616d6f756e7420657863656564732062616c616e604482015261636560f01b6064820152608490fd5b6001600160a01b038116919082156144e357600a5490828201809211610b0b57600092614dc36020926000805160206150d383398151915294600a5560018060a01b03166000526008602052604060002090565b818154019055604051908152a3565b6106819183916001600160a01b038116308114159081614dfe575b501561286657610976833383612a99565b905033141538614ded565b15614e1057565b60405162461bcd60e51b815260206004820152600e60248201526d736c6963655f6f766572666c6f7760901b6044820152606490fd5b15614e4d57565b60405162461bcd60e51b8152602060048201526011602482015270736c6963655f6f75744f66426f756e647360781b6044820152606490fd5b614e9a82614e938161278a565b1015614e09565b614ea78282511015614e46565b81614ebf575050604051600081526020810160405290565b60405191601f811691821560051b808486010193838501920101905b808410614ef35750508252601f01601f191660405290565b9092835181526020809101930190614edb565b614f1382614e938161278a565b614f288151614f2184612798565b1115614e46565b81614f40575050604051600081526020810160405290565b60405191601f8116916051831560051b80858701019484860193010101905b808410614f775750508252601f01601f191660405290565b9092835181526020809101930190614f5f565b6021815110614f9d57602d015160601c90565b60405162461bcd60e51b8152602060048201526015602482015274746f416464726573735f6f75744f66426f756e647360581b6044820152606490fd5b6001815110614fea576001015190565b60405162461bcd60e51b8152602060048201526013602482015272746f55696e74385f6f75744f66426f756e647360681b6044820152606490fd5b6029815110614bcd576029015190565b6040519392909160009160c08601916001600160401b03831187841017610e795783926040526096875282602088019560a036883760208451940192f1903d9060968211615089575b6000908286523e9190565b6096915061507e56fed81fc9b8523134ed613870ed029d6170cbb73aa6a6bc311b9a642689fb9df59abf551ec93859b170f9b2141bd9298bf3f64322c6f7beb2543a0cb669834118bfddf252ad1be2c89b69c2b068fc378daa952ba7f163c4a11628f55a4df523b3efa2646970667358221220b42ad01961544471776e94a49b1c39a4578ce2dcdbcab5eb6c700e8cfc3fbbea64736f6c63430008120033",
  "linkReferences": {},
  "deployedLinkReferences": {}
}