{
  "_format": "hh-sol-artifact-1",
  "contractName": "ComposableProxyOFT",
  "sourceName": "contracts/layerzero/v1/token/oft/composable/ComposableProxyOFT.sol",
  "abi": [
    {
      "inputs": [
        {
          "internalType": "address",
          "name": "_lzEndpoint",
          "type": "address"
        },
        {
          "internalType": "address",
          "name": "_proxyToken",
          "type": "address"
        }
      ],
      "stateMutability": "nonpayable",
      "type": "constructor"
    },
    {
      "anonymous": false,
      "inputs": [
        {
          "indexed": true,
          "internalType": "uint16",
          "name": "_srcChainId",
          "type": "uint16"
        },
        {
          "indexed": false,
          "internalType": "bytes",
          "name": "_srcAddress",
          "type": "bytes"
        },
        {
          "indexed": false,
          "internalType": "uint64",
          "name": "_nonce",
          "type": "uint64"
        },
        {
          "indexed": false,
          "internalType": "bytes",
          "name": "_from",
          "type": "bytes"
        },
        {
          "indexed": true,
          "internalType": "address",
          "name": "_to",
          "type": "address"
        },
        {
          "indexed": false,
          "internalType": "uint256",
          "name": "_amount",
          "type": "uint256"
        },
        {
          "indexed": false,
          "internalType": "bytes",
          "name": "_payload",
          "type": "bytes"
        },
        {
          "indexed": false,
          "internalType": "bytes",
          "name": "_reason",
          "type": "bytes"
        }
      ],
      "name": "CallOFTReceivedFailure",
      "type": "event"
    },
    {
      "anonymous": false,
      "inputs": [
        {
          "indexed": true,
          "internalType": "uint16",
          "name": "_srcChainId",
          "type": "uint16"
        },
        {
          "indexed": false,
          "internalType": "bytes",
          "name": "_srcAddress",
          "type": "bytes"
        },
        {
          "indexed": false,
          "internalType": "uint64",
          "name": "_nonce",
          "type": "uint64"
        },
        {
          "indexed": false,
          "internalType": "bytes32",
          "name": "_hash",
          "type": "bytes32"
        }
      ],
      "name": "CallOFTReceivedSuccess",
      "type": "event"
    },
    {
      "anonymous": false,
      "inputs": [
        {
          "indexed": false,
          "internalType": "uint16",
          "name": "_srcChainId",
          "type": "uint16"
        },
        {
          "indexed": false,
          "internalType": "bytes",
          "name": "_srcAddress",
          "type": "bytes"
        },
        {
          "indexed": false,
          "internalType": "uint64",
          "name": "_nonce",
          "type": "uint64"
        },
        {
          "indexed": false,
          "internalType": "bytes",
          "name": "_payload",
          "type": "bytes"
        },
        {
          "indexed": false,
          "internalType": "bytes",
          "name": "_reason",
          "type": "bytes"
        }
      ],
      "name": "MessageFailed",
      "type": "event"
    },
    {
      "anonymous": false,
      "inputs": [
        {
          "indexed": false,
          "internalType": "address",
          "name": "_address",
          "type": "address"
        }
      ],
      "name": "NonContractAddress",
      "type": "event"
    },
    {
      "anonymous": false,
      "inputs": [
        {
          "indexed": true,
          "internalType": "address",
          "name": "previousOwner",
          "type": "address"
        },
        {
          "indexed": true,
          "internalType": "address",
          "name": "newOwner",
          "type": "address"
        }
      ],
      "name": "OwnershipTransferred",
      "type": "event"
    },
    {
      "anonymous": false,
      "inputs": [
        {
          "indexed": true,
          "internalType": "uint16",
          "name": "_srcChainId",
          "type": "uint16"
        },
        {
          "indexed": true,
          "internalType": "address",
          "name": "_to",
          "type": "address"
        },
        {
          "indexed": false,
          "internalType": "uint256",
          "name": "_amount",
          "type": "uint256"
        }
      ],
      "name": "ReceiveFromChain",
      "type": "event"
    },
    {
      "anonymous": false,
      "inputs": [
        {
          "indexed": false,
          "internalType": "uint16",
          "name": "_srcChainId",
          "type": "uint16"
        },
        {
          "indexed": false,
          "internalType": "bytes",
          "name": "_srcAddress",
          "type": "bytes"
        },
        {
          "indexed": false,
          "internalType": "uint64",
          "name": "_nonce",
          "type": "uint64"
        },
        {
          "indexed": false,
          "internalType": "bytes32",
          "name": "_payloadHash",
          "type": "bytes32"
        }
      ],
      "name": "RetryMessageSuccess",
      "type": "event"
    },
    {
      "anonymous": false,
      "inputs": [
        {
          "indexed": false,
          "internalType": "bytes32",
          "name": "_messageHash",
          "type": "bytes32"
        }
      ],
      "name": "RetryOFTReceivedSuccess",
      "type": "event"
    },
    {
      "anonymous": false,
      "inputs": [
        {
          "indexed": true,
          "internalType": "uint16",
          "name": "_dstChainId",
          "type": "uint16"
        },
        {
          "indexed": true,
          "internalType": "address",
          "name": "_from",
          "type": "address"
        },
        {
          "indexed": false,
          "internalType": "bytes",
          "name": "_toAddress",
          "type": "bytes"
        },
        {
          "indexed": false,
          "internalType": "uint256",
          "name": "_amount",
          "type": "uint256"
        }
      ],
      "name": "SendToChain",
      "type": "event"
    },
    {
      "anonymous": false,
      "inputs": [
        {
          "indexed": false,
          "internalType": "uint16",
          "name": "_dstChainId",
          "type": "uint16"
        },
        {
          "indexed": false,
          "internalType": "uint16",
          "name": "_type",
          "type": "uint16"
        },
        {
          "indexed": false,
          "internalType": "uint256",
          "name": "_minDstGas",
          "type": "uint256"
        }
      ],
      "name": "SetMinDstGas",
      "type": "event"
    },
    {
      "anonymous": false,
      "inputs": [
        {
          "indexed": false,
          "internalType": "address",
          "name": "precrime",
          "type": "address"
        }
      ],
      "name": "SetPrecrime",
      "type": "event"
    },
    {
      "anonymous": false,
      "inputs": [
        {
          "indexed": false,
          "internalType": "uint16",
          "name": "_remoteChainId",
          "type": "uint16"
        },
        {
          "indexed": false,
          "internalType": "bytes",
          "name": "_path",
          "type": "bytes"
        }
      ],
      "name": "SetTrustedRemote",
      "type": "event"
    },
    {
      "anonymous": false,
      "inputs": [
        {
          "indexed": false,
          "internalType": "uint16",
          "name": "_remoteChainId",
          "type": "uint16"
        },
        {
          "indexed": false,
          "internalType": "bytes",
          "name": "_remoteAddress",
          "type": "bytes"
        }
      ],
      "name": "SetTrustedRemoteAddress",
      "type": "event"
    },
    {
      "anonymous": false,
      "inputs": [
        {
          "indexed": false,
          "internalType": "bool",
          "name": "_useCustomAdapterParams",
          "type": "bool"
        }
      ],
      "name": "SetUseCustomAdapterParams",
      "type": "event"
    },
    {
      "inputs": [],
      "name": "DEFAULT_PAYLOAD_SIZE_LIMIT",
      "outputs": [
        {
          "internalType": "uint256",
          "name": "",
          "type": "uint256"
        }
      ],
      "stateMutability": "view",
      "type": "function"
    },
    {
      "inputs": [],
      "name": "NO_EXTRA_GAS",
      "outputs": [
        {
          "internalType": "uint256",
          "name": "",
          "type": "uint256"
        }
      ],
      "stateMutability": "view",
      "type": "function"
    },
    {
      "inputs": [],
      "name": "PT_SEND",
      "outputs": [
        {
          "internalType": "uint16",
          "name": "",
          "type": "uint16"
        }
      ],
      "stateMutability": "view",
      "type": "function"
    },
    {
      "inputs": [],
      "name": "PT_SEND_AND_CALL",
      "outputs": [
        {
          "internalType": "uint16",
          "name": "",
          "type": "uint16"
        }
      ],
      "stateMutability": "view",
      "type": "function"
    },
    {
      "inputs": [],
      "name": "circulatingSupply",
      "outputs": [
        {
          "internalType": "uint256",
          "name": "",
          "type": "uint256"
        }
      ],
      "stateMutability": "view",
      "type": "function"
    },
    {
      "inputs": [
        {
          "internalType": "uint16",
          "name": "_dstChainId",
          "type": "uint16"
        },
        {
          "internalType": "bytes",
          "name": "_toAddress",
          "type": "bytes"
        },
        {
          "internalType": "uint256",
          "name": "_amount",
          "type": "uint256"
        },
        {
          "internalType": "bytes",
          "name": "_payload",
          "type": "bytes"
        },
        {
          "internalType": "uint64",
          "name": "_dstGasForCall",
          "type": "uint64"
        },
        {
          "internalType": "bool",
          "name": "_useZro",
          "type": "bool"
        },
        {
          "internalType": "bytes",
          "name": "_adapterParams",
          "type": "bytes"
        }
      ],
      "name": "estimateSendAndCallFee",
      "outputs": [
        {
          "internalType": "uint256",
          "name": "nativeFee",
          "type": "uint256"
        },
        {
          "internalType": "uint256",
          "name": "zroFee",
          "type": "uint256"
        }
      ],
      "stateMutability": "view",
      "type": "function"
    },
    {
      "inputs": [
        {
          "internalType": "uint16",
          "name": "_dstChainId",
          "type": "uint16"
        },
        {
          "internalType": "bytes",
          "name": "_toAddress",
          "type": "bytes"
        },
        {
          "internalType": "uint256",
          "name": "_amount",
          "type": "uint256"
        },
        {
          "internalType": "bool",
          "name": "_useZro",
          "type": "bool"
        },
        {
          "internalType": "bytes",
          "name": "_adapterParams",
          "type": "bytes"
        }
      ],
      "name": "estimateSendFee",
      "outputs": [
        {
          "internalType": "uint256",
          "name": "nativeFee",
          "type": "uint256"
        },
        {
          "internalType": "uint256",
          "name": "zroFee",
          "type": "uint256"
        }
      ],
      "stateMutability": "view",
      "type": "function"
    },
    {
      "inputs": [
        {
          "internalType": "uint16",
          "name": "",
          "type": "uint16"
        },
        {
          "internalType": "bytes",
          "name": "",
          "type": "bytes"
        },
        {
          "internalType": "uint64",
          "name": "",
          "type": "uint64"
        }
      ],
      "name": "failedMessages",
      "outputs": [
        {
          "internalType": "bytes32",
          "name": "",
          "type": "bytes32"
        }
      ],
      "stateMutability": "view",
      "type": "function"
    },
    {
      "inputs": [
        {
          "internalType": "uint16",
          "name": "",
          "type": "uint16"
        },
        {
          "internalType": "bytes",
          "name": "",
          "type": "bytes"
        },
        {
          "internalType": "uint64",
          "name": "",
          "type": "uint64"
        }
      ],
      "name": "failedOFTReceivedMessages",
      "outputs": [
        {
          "internalType": "bytes32",
          "name": "",
          "type": "bytes32"
        }
      ],
      "stateMutability": "view",
      "type": "function"
    },
    {
      "inputs": [
        {
          "internalType": "uint16",
          "name": "_srcChainId",
          "type": "uint16"
        },
        {
          "internalType": "bytes",
          "name": "_srcAddress",
          "type": "bytes"
        }
      ],
      "name": "forceResumeReceive",
      "outputs": [],
      "stateMutability": "nonpayable",
      "type": "function"
    },
    {
      "inputs": [
        {
          "internalType": "uint16",
          "name": "_version",
          "type": "uint16"
        },
        {
          "internalType": "uint16",
          "name": "_chainId",
          "type": "uint16"
        },
        {
          "internalType": "address",
          "name": "",
          "type": "address"
        },
        {
          "internalType": "uint256",
          "name": "_configType",
          "type": "uint256"
        }
      ],
      "name": "getConfig",
      "outputs": [
        {
          "internalType": "bytes",
          "name": "",
          "type": "bytes"
        }
      ],
      "stateMutability": "view",
      "type": "function"
    },
    {
      "inputs": [
        {
          "internalType": "uint16",
          "name": "_remoteChainId",
          "type": "uint16"
        }
      ],
      "name": "getTrustedRemoteAddress",
      "outputs": [
        {
          "internalType": "bytes",
          "name": "",
          "type": "bytes"
        }
      ],
      "stateMutability": "view",
      "type": "function"
    },
    {
      "inputs": [
        {
          "internalType": "uint16",
          "name": "_srcChainId",
          "type": "uint16"
        },
        {
          "internalType": "bytes",
          "name": "_srcAddress",
          "type": "bytes"
        }
      ],
      "name": "isTrustedRemote",
      "outputs": [
        {
          "internalType": "bool",
          "name": "",
          "type": "bool"
        }
      ],
      "stateMutability": "view",
      "type": "function"
    },
    {
      "inputs": [],
      "name": "lzEndpoint",
      "outputs": [
        {
          "internalType": "contract ILayerZeroEndpoint",
          "name": "",
          "type": "address"
        }
      ],
      "stateMutability": "view",
      "type": "function"
    },
    {
      "inputs": [
        {
          "internalType": "uint16",
          "name": "_srcChainId",
          "type": "uint16"
        },
        {
          "internalType": "bytes",
          "name": "_srcAddress",
          "type": "bytes"
        },
        {
          "internalType": "uint64",
          "name": "_nonce",
          "type": "uint64"
        },
        {
          "internalType": "bytes",
          "name": "_payload",
          "type": "bytes"
        }
      ],
      "name": "lzReceive",
      "outputs": [],
      "stateMutability": "nonpayable",
      "type": "function"
    },
    {
      "inputs": [
        {
          "internalType": "uint16",
          "name": "",
          "type": "uint16"
        },
        {
          "internalType": "uint16",
          "name": "",
          "type": "uint16"
        }
      ],
      "name": "minDstGasLookup",
      "outputs": [
        {
          "internalType": "uint256",
          "name": "",
          "type": "uint256"
        }
      ],
      "stateMutability": "view",
      "type": "function"
    },
    {
      "inputs": [
        {
          "internalType": "uint16",
          "name": "_srcChainId",
          "type": "uint16"
        },
        {
          "internalType": "bytes",
          "name": "_srcAddress",
          "type": "bytes"
        },
        {
          "internalType": "uint64",
          "name": "_nonce",
          "type": "uint64"
        },
        {
          "internalType": "bytes",
          "name": "_payload",
          "type": "bytes"
        }
      ],
      "name": "nonblockingLzReceive",
      "outputs": [],
      "stateMutability": "nonpayable",
      "type": "function"
    },
    {
      "inputs": [],
      "name": "owner",
      "outputs": [
        {
          "internalType": "address",
          "name": "",
          "type": "address"
        }
      ],
      "stateMutability": "view",
      "type": "function"
    },
    {
      "inputs": [
        {
          "internalType": "uint16",
          "name": "",
          "type": "uint16"
        }
      ],
      "name": "payloadSizeLimitLookup",
      "outputs": [
        {
          "internalType": "uint256",
          "name": "",
          "type": "uint256"
        }
      ],
      "stateMutability": "view",
      "type": "function"
    },
    {
      "inputs": [],
      "name": "precrime",
      "outputs": [
        {
          "internalType": "address",
          "name": "",
          "type": "address"
        }
      ],
      "stateMutability": "view",
      "type": "function"
    },
    {
      "inputs": [],
      "name": "renounceOwnership",
      "outputs": [],
      "stateMutability": "nonpayable",
      "type": "function"
    },
    {
      "inputs": [
        {
          "internalType": "uint16",
          "name": "_srcChainId",
          "type": "uint16"
        },
        {
          "internalType": "bytes",
          "name": "_srcAddress",
          "type": "bytes"
        },
        {
          "internalType": "uint64",
          "name": "_nonce",
          "type": "uint64"
        },
        {
          "internalType": "bytes",
          "name": "_payload",
          "type": "bytes"
        }
      ],
      "name": "retryMessage",
      "outputs": [],
      "stateMutability": "payable",
      "type": "function"
    },
    {
      "inputs": [
        {
          "internalType": "uint16",
          "name": "_srcChainId",
          "type": "uint16"
        },
        {
          "internalType": "bytes",
          "name": "_srcAddress",
          "type": "bytes"
        },
        {
          "internalType": "uint64",
          "name": "_nonce",
          "type": "uint64"
        },
        {
          "internalType": "bytes",
          "name": "_from",
          "type": "bytes"
        },
        {
          "internalType": "address",
          "name": "_to",
          "type": "address"
        },
        {
          "internalType": "uint256",
          "name": "_amount",
          "type": "uint256"
        },
        {
          "internalType": "bytes",
          "name": "_payload",
          "type": "bytes"
        }
      ],
      "name": "retryOFTReceived",
      "outputs": [],
      "stateMutability": "nonpayable",
      "type": "function"
    },
    {
      "inputs": [
        {
          "internalType": "address",
          "name": "_from",
          "type": "address"
        },
        {
          "internalType": "uint16",
          "name": "_dstChainId",
          "type": "uint16"
        },
        {
          "internalType": "bytes",
          "name": "_toAddress",
          "type": "bytes"
        },
        {
          "internalType": "uint256",
          "name": "_amount",
          "type": "uint256"
        },
        {
          "internalType": "bytes",
          "name": "_payload",
          "type": "bytes"
        },
        {
          "internalType": "uint64",
          "name": "_dstGasForCall",
          "type": "uint64"
        },
        {
          "internalType": "address payable",
          "name": "_refundAddress",
          "type": "address"
        },
        {
          "internalType": "address",
          "name": "_zroPaymentAddress",
          "type": "address"
        },
        {
          "internalType": "bytes",
          "name": "_adapterParams",
          "type": "bytes"
        }
      ],
      "name": "sendAndCall",
      "outputs": [],
      "stateMutability": "payable",
      "type": "function"
    },
    {
      "inputs": [
        {
          "internalType": "address",
          "name": "_from",
          "type": "address"
        },
        {
          "internalType": "uint16",
          "name": "_dstChainId",
          "type": "uint16"
        },
        {
          "internalType": "bytes",
          "name": "_toAddress",
          "type": "bytes"
        },
        {
          "internalType": "uint256",
          "name": "_amount",
          "type": "uint256"
        },
        {
          "internalType": "address payable",
          "name": "_refundAddress",
          "type": "address"
        },
        {
          "internalType": "address",
          "name": "_zroPaymentAddress",
          "type": "address"
        },
        {
          "internalType": "bytes",
          "name": "_adapterParams",
          "type": "bytes"
        }
      ],
      "name": "sendFrom",
      "outputs": [],
      "stateMutability": "payable",
      "type": "function"
    },
    {
      "inputs": [
        {
          "internalType": "uint16",
          "name": "_version",
          "type": "uint16"
        },
        {
          "internalType": "uint16",
          "name": "_chainId",
          "type": "uint16"
        },
        {
          "internalType": "uint256",
          "name": "_configType",
          "type": "uint256"
        },
        {
          "internalType": "bytes",
          "name": "_config",
          "type": "bytes"
        }
      ],
      "name": "setConfig",
      "outputs": [],
      "stateMutability": "nonpayable",
      "type": "function"
    },
    {
      "inputs": [
        {
          "internalType": "uint16",
          "name": "_dstChainId",
          "type": "uint16"
        },
        {
          "internalType": "uint16",
          "name": "_packetType",
          "type": "uint16"
        },
        {
          "internalType": "uint256",
          "name": "_minGas",
          "type": "uint256"
        }
      ],
      "name": "setMinDstGas",
      "outputs": [],
      "stateMutability": "nonpayable",
      "type": "function"
    },
    {
      "inputs": [
        {
          "internalType": "uint16",
          "name": "_dstChainId",
          "type": "uint16"
        },
        {
          "internalType": "uint256",
          "name": "_size",
          "type": "uint256"
        }
      ],
      "name": "setPayloadSizeLimit",
      "outputs": [],
      "stateMutability": "nonpayable",
      "type": "function"
    },
    {
      "inputs": [
        {
          "internalType": "address",
          "name": "_precrime",
          "type": "address"
        }
      ],
      "name": "setPrecrime",
      "outputs": [],
      "stateMutability": "nonpayable",
      "type": "function"
    },
    {
      "inputs": [
        {
          "internalType": "uint16",
          "name": "_version",
          "type": "uint16"
        }
      ],
      "name": "setReceiveVersion",
      "outputs": [],
      "stateMutability": "nonpayable",
      "type": "function"
    },
    {
      "inputs": [
        {
          "internalType": "uint16",
          "name": "_version",
          "type": "uint16"
        }
      ],
      "name": "setSendVersion",
      "outputs": [],
      "stateMutability": "nonpayable",
      "type": "function"
    },
    {
      "inputs": [
        {
          "internalType": "uint16",
          "name": "_srcChainId",
          "type": "uint16"
        },
        {
          "internalType": "bytes",
          "name": "_path",
          "type": "bytes"
        }
      ],
      "name": "setTrustedRemote",
      "outputs": [],
      "stateMutability": "nonpayable",
      "type": "function"
    },
    {
      "inputs": [
        {
          "internalType": "uint16",
          "name": "_remoteChainId",
          "type": "uint16"
        },
        {
          "internalType": "bytes",
          "name": "_remoteAddress",
          "type": "bytes"
        }
      ],
      "name": "setTrustedRemoteAddress",
      "outputs": [],
      "stateMutability": "nonpayable",
      "type": "function"
    },
    {
      "inputs": [
        {
          "internalType": "bool",
          "name": "_useCustomAdapterParams",
          "type": "bool"
        }
      ],
      "name": "setUseCustomAdapterParams",
      "outputs": [],
      "stateMutability": "nonpayable",
      "type": "function"
    },
    {
      "inputs": [
        {
          "internalType": "bytes4",
          "name": "interfaceId",
          "type": "bytes4"
        }
      ],
      "name": "supportsInterface",
      "outputs": [
        {
          "internalType": "bool",
          "name": "",
          "type": "bool"
        }
      ],
      "stateMutability": "view",
      "type": "function"
    },
    {
      "inputs": [],
      "name": "token",
      "outputs": [
        {
          "internalType": "address",
          "name": "",
          "type": "address"
        }
      ],
      "stateMutability": "view",
      "type": "function"
    },
    {
      "inputs": [
        {
          "internalType": "address",
          "name": "newOwner",
          "type": "address"
        }
      ],
      "name": "transferOwnership",
      "outputs": [],
      "stateMutability": "nonpayable",
      "type": "function"
    },
    {
      "inputs": [
        {
          "internalType": "uint16",
          "name": "",
          "type": "uint16"
        }
      ],
      "name": "trustedRemoteLookup",
      "outputs": [
        {
          "internalType": "bytes",
          "name": "",
          "type": "bytes"
        }
      ],
      "stateMutability": "view",
      "type": "function"
    },
    {
      "inputs": [],
      "name": "useCustomAdapterParams",
      "outputs": [
        {
          "internalType": "bool",
          "name": "",
          "type": "bool"
        }
      ],
      "stateMutability": "view",
      "type": "function"
    }
  ],
  "bytecode": "0x60c06040523480156200001157600080fd5b5060405162004a4638038062004a468339810160408190526200003491620000d0565b81808080620000433362000063565b6001600160a01b039081166080529390931660a052506200010892505050565b600080546001600160a01b038381166001600160a01b0319831681178455604051919092169283917f8be0079c531659141344cd1fd0a4f28419497f9722a3daafe3b4186f6b6457e09190a35050565b80516001600160a01b0381168114620000cb57600080fd5b919050565b60008060408385031215620000e457600080fd5b620000ef83620000b3565b9150620000ff60208401620000b3565b90509250929050565b60805160a0516148a1620001a56000396000818161082f015281816111180152818161119a015281816126a4015281816127400152818161279801528181612e9801528181612f1f0152612f8d0152600081816106730152818161085601528181610b3e01528181610c0c01528181610cb901528181610e5a015281816114c6015281816115c001528181611df6015261298901526148a16000f3fe60806040526004361061029f5760003560e01c80639358928b1161016e578063d1deba1f116100cb578063eb8d72b71161007f578063f2fde38b11610064578063f2fde38b146107e0578063f5ecbdbc14610800578063fc0c546a1461082057600080fd5b8063eb8d72b7146107a6578063ed629c5c146107c657600080fd5b8063e6a20ae6116100b0578063e6a20ae61461075e578063e7f0c59f14610773578063eab45d9c1461078657600080fd5b8063d1deba1f1461072b578063df2a5b3b1461073e57600080fd5b8063baf3292d11610122578063c8598dca11610107578063c8598dca146106cb578063cbed8b9c146106eb578063cfd6528e1461070b57600080fd5b8063baf3292d14610695578063c4461834146106b557600080fd5b80639f38369a116101535780639f38369a14610621578063a6c3d16514610641578063b353aaa71461066157600080fd5b80639358928b146105df578063950c8a74146105f457600080fd5b8063447705151161021c57806366ad5c8a116101d05780637533d788116101b55780637533d7881461052e5780638cfd8f5c1461055b5780638da5cb5b1461059357600080fd5b806366ad5c8a146104f9578063715018a61461051957600080fd5b8063519056361161020157806351905636146104485780635b8c41e61461045b5780636096cc58146104aa57600080fd5b8063447705151461040b5780634c42899a1461042057600080fd5b806310ddb137116102735780633d8b38f6116102585780633d8b38f6146103905780633f1f4fa4146103b057806342d65a8d146103eb57600080fd5b806310ddb1371461033b5780632a205e3d1461035b57600080fd5b80621d3567146102a457806301ffc9a7146102c657806307e0db17146102fb5780630df374831461031b575b600080fd5b3480156102b057600080fd5b506102c46102bf366004613585565b610853565b005b3480156102d257600080fd5b506102e66102e136600461361c565b610aa8565b60405190151581526020015b60405180910390f35b34801561030757600080fd5b506102c461031636600461365e565b610b04565b34801561032757600080fd5b506102c461033636600461367b565b610bb3565b34801561034757600080fd5b506102c461035636600461365e565b610bd2565b34801561036757600080fd5b5061037b6103763660046136c0565b610c50565b604080519283526020830191909152016102f2565b34801561039c57600080fd5b506102e66103ab366004613761565b610d49565b3480156103bc57600080fd5b506103dd6103cb36600461365e565b60036020526000908152604090205481565b6040519081526020016102f2565b3480156103f757600080fd5b506102c4610406366004613761565b610e15565b34801561041757600080fd5b506103dd600081565b34801561042c57600080fd5b50610435600081565b60405161ffff90911681526020016102f2565b6102c46104563660046137e3565b610ec1565b34801561046757600080fd5b506103dd610476366004613935565b6005602090815260009384526040808520845180860184018051928152908401958401959095209452929052825290205481565b3480156104b657600080fd5b506103dd6104c5366004613935565b6007602090815260009384526040808520845180860184018051928152908401958401959095209452929052825290205481565b34801561050557600080fd5b506102c4610514366004613585565b610f46565b34801561052557600080fd5b506102c4611039565b34801561053a57600080fd5b5061054e61054936600461365e565b61104d565b6040516102f29190613a2c565b34801561056757600080fd5b506103dd610576366004613a3f565b600260209081526000928352604080842090915290825290205481565b34801561059f57600080fd5b5060005473ffffffffffffffffffffffffffffffffffffffff165b60405173ffffffffffffffffffffffffffffffffffffffff90911681526020016102f2565b3480156105eb57600080fd5b506103dd6110e7565b34801561060057600080fd5b506004546105ba9073ffffffffffffffffffffffffffffffffffffffff1681565b34801561062d57600080fd5b5061054e61063c36600461365e565b61122d565b34801561064d57600080fd5b506102c461065c366004613761565b611343565b34801561066d57600080fd5b506105ba7f000000000000000000000000000000000000000000000000000000000000000081565b3480156106a157600080fd5b506102c46106b0366004613a78565b6113cc565b3480156106c157600080fd5b506103dd61271081565b3480156106d757600080fd5b5061037b6106e6366004613a95565b61144e565b3480156106f757600080fd5b506102c4610706366004613b74565b61157b565b34801561071757600080fd5b506102c4610726366004613be7565b61162b565b6102c4610739366004613585565b6118b7565b34801561074a57600080fd5b506102c4610759366004613ca2565b611b05565b34801561076a57600080fd5b50610435600181565b6102c4610781366004613ce3565b611bbf565b34801561079257600080fd5b506102c46107a1366004613def565b611c4e565b3480156107b257600080fd5b506102c46107c1366004613761565b611cb5565b3480156107d257600080fd5b506006546102e69060ff1681565b3480156107ec57600080fd5b506102c46107fb366004613a78565b611d0f565b34801561080c57600080fd5b5061054e61081b366004613e0c565b611dac565b34801561082c57600080fd5b507f00000000000000000000000000000000000000000000000000000000000000006105ba565b337f000000000000000000000000000000000000000000000000000000000000000073ffffffffffffffffffffffffffffffffffffffff16146108dd5760405162461bcd60e51b815260206004820152601e60248201527f4c7a4170703a20696e76616c696420656e64706f696e742063616c6c6572000060448201526064015b60405180910390fd5b61ffff8616600090815260016020526040812080546108fb90613e5d565b80601f016020809104026020016040519081016040528092919081815260200182805461092790613e5d565b80156109745780601f1061094957610100808354040283529160200191610974565b820191906000526020600020905b81548152906001019060200180831161095757829003601f168201915b5050505050905080518686905014801561098f575060008151115b80156109b75750805160208201206040516109ad9088908890613eb0565b6040518091039020145b610a295760405162461bcd60e51b815260206004820152602660248201527f4c7a4170703a20696e76616c696420736f757263652073656e64696e6720636f60448201527f6e7472616374000000000000000000000000000000000000000000000000000060648201526084016108d4565b610a9f8787878080601f01602080910402602001604051908101604052809392919081815260200183838082843760009201919091525050604080516020601f8a018190048102820181019092528881528a935091508890889081908401838280828437600092019190915250611e8592505050565b50505050505050565b60007fffffffff0000000000000000000000000000000000000000000000000000000082167fe07f1adb000000000000000000000000000000000000000000000000000000001480610afe5750610afe82611f2b565b92915050565b610b0c611fc2565b6040517f07e0db1700000000000000000000000000000000000000000000000000000000815261ffff821660048201527f000000000000000000000000000000000000000000000000000000000000000073ffffffffffffffffffffffffffffffffffffffff16906307e0db17906024015b600060405180830381600087803b158015610b9857600080fd5b505af1158015610bac573d6000803e3d6000fd5b5050505050565b610bbb611fc2565b61ffff909116600090815260036020526040902055565b610bda611fc2565b6040517f10ddb13700000000000000000000000000000000000000000000000000000000815261ffff821660048201527f000000000000000000000000000000000000000000000000000000000000000073ffffffffffffffffffffffffffffffffffffffff16906310ddb13790602401610b7e565b600080600080898989604051602001610c6c9493929190613eeb565b60408051601f19818403018152908290527f40a7bb10000000000000000000000000000000000000000000000000000000008252915073ffffffffffffffffffffffffffffffffffffffff7f000000000000000000000000000000000000000000000000000000000000000016906340a7bb1090610cf8908d90309086908c908c908c90600401613f1a565b6040805180830381865afa158015610d14573d6000803e3d6000fd5b505050506040513d601f19601f82011682018060405250810190610d389190613f7b565b925092505097509795505050505050565b61ffff831660009081526001602052604081208054829190610d6a90613e5d565b80601f0160208091040260200160405190810160405280929190818152602001828054610d9690613e5d565b8015610de35780601f10610db857610100808354040283529160200191610de3565b820191906000526020600020905b815481529060010190602001808311610dc657829003601f168201915b505050505090508383604051610dfa929190613eb0565b60405180910390208180519060200120149150509392505050565b610e1d611fc2565b6040517f42d65a8d00000000000000000000000000000000000000000000000000000000815273ffffffffffffffffffffffffffffffffffffffff7f000000000000000000000000000000000000000000000000000000000000000016906342d65a8d90610e9390869086908690600401613f9f565b600060405180830381600087803b158015610ead57600080fd5b505af1158015610a9f573d6000803e3d6000fd5b610f3b898989898080601f01602080910402602001604051908101604052809392919081815260200183838082843760009201919091525050604080516020601f8a018190048102820181019092528881528c93508b92508a918a908a908190840183828082843760009201919091525061202992505050565b505050505050505050565b333014610fbb5760405162461bcd60e51b815260206004820152602660248201527f4e6f6e626c6f636b696e674c7a4170703a2063616c6c6572206d75737420626560448201527f204c7a417070000000000000000000000000000000000000000000000000000060648201526084016108d4565b6110318686868080601f01602080910402602001604051908101604052809392919081815260200183838082843760009201919091525050604080516020601f8901819004810282018101909252878152899350915087908790819084018382808284376000920191909152506120dd92505050565b505050505050565b611041611fc2565b61104b6000612183565b565b6001602052600090815260409020805461106690613e5d565b80601f016020809104026020016040519081016040528092919081815260200182805461109290613e5d565b80156110df5780601f106110b4576101008083540402835291602001916110df565b820191906000526020600020905b8154815290600101906020018083116110c257829003601f168201915b505050505081565b6040517f70a082310000000000000000000000000000000000000000000000000000000081523060048201526000907f000000000000000000000000000000000000000000000000000000000000000073ffffffffffffffffffffffffffffffffffffffff16906370a0823190602401602060405180830381865afa158015611174573d6000803e3d6000fd5b505050506040513d601f19601f820116820180604052508101906111989190613fbd565b7f000000000000000000000000000000000000000000000000000000000000000073ffffffffffffffffffffffffffffffffffffffff166318160ddd6040518163ffffffff1660e01b8152600401602060405180830381865afa158015611203573d6000803e3d6000fd5b505050506040513d601f19601f820116820180604052508101906112279190613fbd565b03905090565b61ffff811660009081526001602052604081208054606092919061125090613e5d565b80601f016020809104026020016040519081016040528092919081815260200182805461127c90613e5d565b80156112c95780601f1061129e576101008083540402835291602001916112c9565b820191906000526020600020905b8154815290600101906020018083116112ac57829003601f168201915b5050505050905080516000036113215760405162461bcd60e51b815260206004820152601d60248201527f4c7a4170703a206e6f20747275737465642070617468207265636f726400000060448201526064016108d4565b61133c6000601483516113349190614005565b8391906121f8565b9392505050565b61134b611fc2565b81813060405160200161136093929190614018565b60408051601f1981840301815291815261ffff851660009081526001602052209061138b9082614099565b507f8c0400cfe2d1199b1a725c78960bcc2a344d869b80590d0f2bd005db15a572ce8383836040516113bf93929190613f9f565b60405180910390a1505050565b6113d4611fc2565b600480547fffffffffffffffffffffffff00000000000000000000000000000000000000001673ffffffffffffffffffffffffffffffffffffffff83169081179091556040519081527f5db758e995a17ec1ad84bdef7e8c3293a0bd6179bcce400dff5d4c3d87db726b906020015b60405180910390a150565b6040517fffffffffffffffffffffffffffffffffffffffff0000000000000000000000003360601b1660208201526000908190819060019060340160408051601f19818403018152908290526114b392918f908f908f908f908f908f90602001614159565b60405160208183030381529060405290507f000000000000000000000000000000000000000000000000000000000000000073ffffffffffffffffffffffffffffffffffffffff166340a7bb108e30848a8a8a6040518763ffffffff1660e01b815260040161152796959493929190613f1a565b6040805180830381865afa158015611543573d6000803e3d6000fd5b505050506040513d601f19601f820116820180604052508101906115679190613f7b565b92509250509a509a98505050505050505050565b611583611fc2565b6040517fcbed8b9c00000000000000000000000000000000000000000000000000000000815273ffffffffffffffffffffffffffffffffffffffff7f0000000000000000000000000000000000000000000000000000000000000000169063cbed8b9c906115fd90889088908890889088906004016141c4565b600060405180830381600087803b15801561161757600080fd5b505af1158015610f3b573d6000803e3d6000fd5b61ffff8a16600090815260076020526040808220905161164e908c908c90613eb0565b908152604080516020928190038301902067ffffffffffffffff8b16600090815292529020549050806116e95760405162461bcd60e51b815260206004820152602d60248201527f436f6d706f7361626c654f4654436f72653a206e6f206661696c6564206d657360448201527f7361676520746f2072657472790000000000000000000000000000000000000060648201526084016108d4565b6000878787878787604051602001611706969594939291906141f2565b6040516020818303038152906040528051906020012090508181146117935760405162461bcd60e51b815260206004820152602f60248201527f436f6d706f7361626c654f4654436f72653a206661696c6564206d657373616760448201527f652068617368206d69736d61746368000000000000000000000000000000000060648201526084016108d4565b61ffff8c166000908152600760205260409081902090516117b7908d908d90613eb0565b90815260408051918290036020908101832067ffffffffffffffff8d1660009081529152908120557f147a7d7100000000000000000000000000000000000000000000000000000000815273ffffffffffffffffffffffffffffffffffffffff87169063147a7d719061183e908f908f908f908f908f908f908e908e908e9060040161423b565b600060405180830381600087803b15801561185857600080fd5b505af115801561186c573d6000803e3d6000fd5b505050507f41ea88d75e53240e2c5ace3a3d7263efe6c8f4fe42c0e3ef269f71daef1001c8816040516118a191815260200190565b60405180910390a1505050505050505050505050565b61ffff861660009081526005602052604080822090516118da9088908890613eb0565b908152604080516020928190038301902067ffffffffffffffff8716600090815292529020549050806119755760405162461bcd60e51b815260206004820152602360248201527f4e6f6e626c6f636b696e674c7a4170703a206e6f2073746f726564206d65737360448201527f616765000000000000000000000000000000000000000000000000000000000060648201526084016108d4565b808383604051611986929190613eb0565b604051809103902014611a015760405162461bcd60e51b815260206004820152602160248201527f4e6f6e626c6f636b696e674c7a4170703a20696e76616c6964207061796c6f6160448201527f640000000000000000000000000000000000000000000000000000000000000060648201526084016108d4565b61ffff87166000908152600560205260408082209051611a249089908990613eb0565b908152604080516020928190038301812067ffffffffffffffff8916600090815290845282902093909355601f88018290048202830182019052868252611abd918991899089908190840183828082843760009201919091525050604080516020601f8a018190048102820181019092528881528a9350915088908890819084018382808284376000920191909152506120dd92505050565b7fc264d91f3adc5588250e1551f547752ca0cfa8f6b530d243b9f9f4cab10ea8e58787878785604051611af49594939291906142a7565b60405180910390a150505050505050565b611b0d611fc2565b60008111611b5d5760405162461bcd60e51b815260206004820152601560248201527f4c7a4170703a20696e76616c6964206d696e476173000000000000000000000060448201526064016108d4565b61ffff83811660008181526002602090815260408083209487168084529482529182902085905581519283528201929092529081018290527f9d5c7c0b934da8fefa9c7760c98383778a12dfbfc0c3b3106518f43fb9508ac0906060016113bf565b611c408c8c8c8c8080601f01602080910402602001604051908101604052809392919081815260200183838082843760009201919091525050604080516020601f8a018190048102820181019092528881528f93508e92508d918d918d918d91908d908d908190840183828082843760009201919091525061232092505050565b505050505050505050505050565b611c56611fc2565b600680547fffffffffffffffffffffffffffffffffffffffffffffffffffffffffffffff00168215159081179091556040519081527f1584ad594a70cbe1e6515592e1272a987d922b097ead875069cebe8b40c004a490602001611443565b611cbd611fc2565b61ffff83166000908152600160205260409020611cdb8284836142e3565b507ffa41487ad5d6728f0b19276fa1eddc16558578f5109fc39d2dc33c3230470dab8383836040516113bf93929190613f9f565b611d17611fc2565b73ffffffffffffffffffffffffffffffffffffffff8116611da05760405162461bcd60e51b815260206004820152602660248201527f4f776e61626c653a206e6577206f776e657220697320746865207a65726f206160448201527f646472657373000000000000000000000000000000000000000000000000000060648201526084016108d4565b611da981612183565b50565b6040517ff5ecbdbc00000000000000000000000000000000000000000000000000000000815261ffff808616600483015284166024820152306044820152606481018290526060907f000000000000000000000000000000000000000000000000000000000000000073ffffffffffffffffffffffffffffffffffffffff169063f5ecbdbc90608401600060405180830381865afa158015611e52573d6000803e3d6000fd5b505050506040513d6000823e601f3d908101601f19168201604052611e7a91908101906143e8565b90505b949350505050565b600080611f155a60966366ad5c8a60e01b89898989604051602401611ead949392919061441d565b60408051601f198184030181529190526020810180517bffffffffffffffffffffffffffffffffffffffffffffffffffffffff167fffffffff000000000000000000000000000000000000000000000000000000009093169290921790915230929190612426565b91509150816110315761103186868686856124b1565b60007fffffffff0000000000000000000000000000000000000000000000000000000082167f14e4ceea000000000000000000000000000000000000000000000000000000001480610afe57507f01ffc9a7000000000000000000000000000000000000000000000000000000007fffffffff00000000000000000000000000000000000000000000000000000000831614610afe565b60005473ffffffffffffffffffffffffffffffffffffffff16331461104b5760405162461bcd60e51b815260206004820181905260248201527f4f776e61626c653a2063616c6c6572206973206e6f7420746865206f776e657260448201526064016108d4565b61203786600083600061254f565b6000612045888888886125e6565b9050600080878360405160200161205e9392919061445c565b604051602081830303815290604052905061207d88828787873461282c565b8873ffffffffffffffffffffffffffffffffffffffff168861ffff167f39a4c66499bcf4b56d79f0dde8ed7a9d4925a0df55825206b2b8531e202be0d089856040516120ca929190614489565b60405180910390a3505050505050505050565b602081015161ffff81166120fc576120f7858585856129f7565b610bac565b60001961ffff821601612115576120f785858585612a8e565b60405162461bcd60e51b815260206004820152602660248201527f436f6d706f7361626c654f4654436f72653a20756e6b6e6f776e207061636b6560448201527f742074797065000000000000000000000000000000000000000000000000000060648201526084016108d4565b6000805473ffffffffffffffffffffffffffffffffffffffff8381167fffffffffffffffffffffffff0000000000000000000000000000000000000000831681178455604051919092169283917f8be0079c531659141344cd1fd0a4f28419497f9722a3daafe3b4186f6b6457e09190a35050565b60608161220681601f6144ab565b10156122545760405162461bcd60e51b815260206004820152600e60248201527f736c6963655f6f766572666c6f7700000000000000000000000000000000000060448201526064016108d4565b61225e82846144ab565b845110156122ae5760405162461bcd60e51b815260206004820152601160248201527f736c6963655f6f75744f66426f756e647300000000000000000000000000000060448201526064016108d4565b6060821580156122cd5760405191506000825260208201604052612317565b6040519150601f8416801560200281840101858101878315602002848b0101015b818310156123065780518352602092830192016122ee565b5050858452601f01601f1916604052505b50949350505050565b612337896001838767ffffffffffffffff1661254f565b60006123458b8b8b8b6125e6565b604080513360601b7fffffffffffffffffffffffffffffffffffffffff00000000000000000000000016602082015281516014818303018152603482019092529192506000916123a4916001918d9086908d908d908d906054016144be565b60405160208183030381529060405290506123c38b828787873461282c565b8b73ffffffffffffffffffffffffffffffffffffffff168b61ffff167f39a4c66499bcf4b56d79f0dde8ed7a9d4925a0df55825206b2b8531e202be0d08c85604051612410929190614489565b60405180910390a3505050505050505050505050565b6000606060008060008661ffff1667ffffffffffffffff81111561244c5761244c6138ad565b6040519080825280601f01601f191660200182016040528015612476576020820181803683370190505b50905060008087516020890160008d8df191503d925086831115612498578692505b828152826000602083013e909890975095505050505050565b8180519060200120600560008761ffff1661ffff168152602001908152602001600020856040516124e29190614527565b90815260408051918290036020908101832067ffffffffffffffff88166000908152915220919091557fe183f33de2837795525b4792ca4cd60535bd77c53b7e7030060bfcf5734d6b0c906125409087908790879087908790614543565b60405180910390a15050505050565b60065460ff161561256b5761256684848484612bc5565b6125e0565b8151156125e05760405162461bcd60e51b815260206004820152602660248201527f4f4654436f72653a205f61646170746572506172616d73206d7573742062652060448201527f656d7074792e000000000000000000000000000000000000000000000000000060648201526084016108d4565b50505050565b600073ffffffffffffffffffffffffffffffffffffffff851633146126735760405162461bcd60e51b815260206004820152602c60248201527f436f6d706f7361626c6550726f78794f46543a206f776e6572206973206e6f7460448201527f2073656e642063616c6c6572000000000000000000000000000000000000000060648201526084016108d4565b6040517f70a082310000000000000000000000000000000000000000000000000000000081523060048201526000907f000000000000000000000000000000000000000000000000000000000000000073ffffffffffffffffffffffffffffffffffffffff16906370a0823190602401602060405180830381865afa158015612700573d6000803e3d6000fd5b505050506040513d601f19601f820116820180604052508101906127249190613fbd565b905061276873ffffffffffffffffffffffffffffffffffffffff7f000000000000000000000000000000000000000000000000000000000000000016873086612ca4565b6040517f70a0823100000000000000000000000000000000000000000000000000000000815230600482015281907f000000000000000000000000000000000000000000000000000000000000000073ffffffffffffffffffffffffffffffffffffffff16906370a0823190602401602060405180830381865afa1580156127f4573d6000803e3d6000fd5b505050506040513d601f19601f820116820180604052508101906128189190613fbd565b6128229190614005565b9695505050505050565b61ffff86166000908152600160205260408120805461284a90613e5d565b80601f016020809104026020016040519081016040528092919081815260200182805461287690613e5d565b80156128c35780601f10612898576101008083540402835291602001916128c3565b820191906000526020600020905b8154815290600101906020018083116128a657829003601f168201915b5050505050905080516000036129415760405162461bcd60e51b815260206004820152603060248201527f4c7a4170703a2064657374696e6174696f6e20636861696e206973206e6f742060448201527f61207472757374656420736f757263650000000000000000000000000000000060648201526084016108d4565b61294c878751612d62565b6040517fc580310000000000000000000000000000000000000000000000000000000000815273ffffffffffffffffffffffffffffffffffffffff7f0000000000000000000000000000000000000000000000000000000000000000169063c58031009084906129ca908b9086908c908c908c908c906004016145a2565b6000604051808303818588803b1580156129e357600080fd5b505af1158015611c40573d6000803e3d6000fd5b60008082806020019051810190612a0e9190614609565b909350915060009050612a218382612dd8565b9050612a2e878284612e4e565b91508073ffffffffffffffffffffffffffffffffffffffff168761ffff167fbf551ec93859b170f9b2141bd9298bf3f64322c6f7beb2543a0cb669834118bf84604051612a7d91815260200190565b60405180910390a350505050505050565b600080600080600085806020019051810190612aaa9190614663565b95509550955095509550506000612acb600086612dd890919063ffffffff16565b9050612ad88a8286612e4e565b93508073ffffffffffffffffffffffffffffffffffffffff168a61ffff167fbf551ec93859b170f9b2141bd9298bf3f64322c6f7beb2543a0cb669834118bf86604051612b2791815260200190565b60405180910390a373ffffffffffffffffffffffffffffffffffffffff81163b612b9f5760405173ffffffffffffffffffffffffffffffffffffffff821681527f9aedf5fdba8716db3b6705ca00150643309995d4f818a249ed6dde6677e7792d9060200160405180910390a15050505050506125e0565b612bb98a8a8a898589898967ffffffffffffffff1661300d565b50505050505050505050565b6000612bd083613217565b61ffff808716600090815260026020908152604080832093891683529290529081205491925090612c029084906144ab565b905060008111612c545760405162461bcd60e51b815260206004820152601a60248201527f4c7a4170703a206d696e4761734c696d6974206e6f742073657400000000000060448201526064016108d4565b808210156110315760405162461bcd60e51b815260206004820152601b60248201527f4c7a4170703a20676173206c696d697420697320746f6f206c6f77000000000060448201526064016108d4565b60405173ffffffffffffffffffffffffffffffffffffffff808516602483015283166044820152606481018290526125e09085907f23b872dd00000000000000000000000000000000000000000000000000000000906084015b60408051601f198184030181529190526020810180517bffffffffffffffffffffffffffffffffffffffffffffffffffffffff167fffffffff0000000000000000000000000000000000000000000000000000000090931692909217909152613273565b61ffff821660009081526003602052604081205490819003612d8357506127105b80821115612dd35760405162461bcd60e51b815260206004820181905260248201527f4c7a4170703a207061796c6f61642073697a6520697320746f6f206c6172676560448201526064016108d4565b505050565b6000612de58260146144ab565b83511015612e355760405162461bcd60e51b815260206004820152601560248201527f746f416464726573735f6f75744f66426f756e6473000000000000000000000060448201526064016108d4565b5001602001516c01000000000000000000000000900490565b6040517f70a0823100000000000000000000000000000000000000000000000000000000815273ffffffffffffffffffffffffffffffffffffffff838116600483015260009182917f000000000000000000000000000000000000000000000000000000000000000016906370a0823190602401602060405180830381865afa158015612edf573d6000803e3d6000fd5b505050506040513d601f19601f82011682018060405250810190612f039190613fbd565b9050612f4673ffffffffffffffffffffffffffffffffffffffff7f0000000000000000000000000000000000000000000000000000000000000000168585613368565b6040517f70a0823100000000000000000000000000000000000000000000000000000000815273ffffffffffffffffffffffffffffffffffffffff858116600483015282917f0000000000000000000000000000000000000000000000000000000000000000909116906370a0823190602401602060405180830381865afa158015612fd6573d6000803e3d6000fd5b505050506040513d601f19601f82011682018060405250810190612ffa9190613fbd565b6130049190614005565b95945050505050565b6000806130b783609663147a7d7160e01b8d8d8d8d8c8c6040516024016130399695949392919061471c565b60408051601f198184030181529190526020810180517bffffffffffffffffffffffffffffffffffffffffffffffffffffffff167fffffffff000000000000000000000000000000000000000000000000000000009093169290921790915273ffffffffffffffffffffffffffffffffffffffff8a16929190612426565b915091508161319957868686866040516020016130d79493929190614775565b60408051601f19818403018152828252805160209182012061ffff8e1660009081526007909252919020909161310e908c90614527565b90815260408051918290036020908101832067ffffffffffffffff8d1660009081529152209190915573ffffffffffffffffffffffffffffffffffffffff87169061ffff8c16907f95c1ad3ef50dd05e668d7b80e9a723079395ac4867a4050552d5d9219e683d749061318c908d908d908d908c908c908a906147bc565b60405180910390a3612bb9565b6000878787876040516020016131b29493929190614775565b6040516020818303038152906040528051906020012090508a61ffff167fb8890edbfc1c74692f527444645f95489c3703cc2df42e4a366f5d06fa6cd8848b8b846040516132029392919061481f565b60405180910390a25050505050505050505050565b600060228251101561326b5760405162461bcd60e51b815260206004820152601c60248201527f4c7a4170703a20696e76616c69642061646170746572506172616d730000000060448201526064016108d4565b506022015190565b60006132d5826040518060400160405280602081526020017f5361666545524332303a206c6f772d6c6576656c2063616c6c206661696c65648152508573ffffffffffffffffffffffffffffffffffffffff166133be9092919063ffffffff16565b90508051600014806132f65750808060200190518101906132f6919061484e565b612dd35760405162461bcd60e51b815260206004820152602a60248201527f5361666545524332303a204552433230206f7065726174696f6e20646964206e60448201527f6f7420737563636565640000000000000000000000000000000000000000000060648201526084016108d4565b60405173ffffffffffffffffffffffffffffffffffffffff8316602482015260448101829052612dd39084907fa9059cbb0000000000000000000000000000000000000000000000000000000090606401612cfe565b6060611e7d8484600085856000808673ffffffffffffffffffffffffffffffffffffffff1685876040516133f29190614527565b60006040518083038185875af1925050503d806000811461342f576040519150601f19603f3d011682016040523d82523d6000602084013e613434565b606091505b509150915061344587838387613450565b979650505050505050565b606083156134cc5782516000036134c55773ffffffffffffffffffffffffffffffffffffffff85163b6134c55760405162461bcd60e51b815260206004820152601d60248201527f416464726573733a2063616c6c20746f206e6f6e2d636f6e747261637400000060448201526064016108d4565b5081611e7d565b611e7d83838151156134e15781518083602001fd5b8060405162461bcd60e51b81526004016108d49190613a2c565b61ffff81168114611da957600080fd5b8035613516816134fb565b919050565b60008083601f84011261352d57600080fd5b50813567ffffffffffffffff81111561354557600080fd5b60208301915083602082850101111561355d57600080fd5b9250929050565b67ffffffffffffffff81168114611da957600080fd5b803561351681613564565b6000806000806000806080878903121561359e57600080fd5b86356135a9816134fb565b9550602087013567ffffffffffffffff808211156135c657600080fd5b6135d28a838b0161351b565b9097509550604089013591506135e782613564565b909350606088013590808211156135fd57600080fd5b5061360a89828a0161351b565b979a9699509497509295939492505050565b60006020828403121561362e57600080fd5b81357fffffffff000000000000000000000000000000000000000000000000000000008116811461133c57600080fd5b60006020828403121561367057600080fd5b813561133c816134fb565b6000806040838503121561368e57600080fd5b8235613699816134fb565b946020939093013593505050565b8015158114611da957600080fd5b8035613516816136a7565b600080600080600080600060a0888a0312156136db57600080fd5b87356136e6816134fb565b9650602088013567ffffffffffffffff8082111561370357600080fd5b61370f8b838c0161351b565b909850965060408a0135955060608a0135915061372b826136a7565b9093506080890135908082111561374157600080fd5b5061374e8a828b0161351b565b989b979a50959850939692959293505050565b60008060006040848603121561377657600080fd5b8335613781816134fb565b9250602084013567ffffffffffffffff81111561379d57600080fd5b6137a98682870161351b565b9497909650939450505050565b73ffffffffffffffffffffffffffffffffffffffff81168114611da957600080fd5b8035613516816137b6565b600080600080600080600080600060e08a8c03121561380157600080fd5b893561380c816137b6565b985060208a013561381c816134fb565b975060408a013567ffffffffffffffff8082111561383957600080fd5b6138458d838e0161351b565b909950975060608c0135965060808c01359150613861826137b6565b90945060a08b013590613873826137b6565b90935060c08b0135908082111561388957600080fd5b506138968c828d0161351b565b915080935050809150509295985092959850929598565b7f4e487b7100000000000000000000000000000000000000000000000000000000600052604160045260246000fd5b604051601f8201601f1916810167ffffffffffffffff81118282101715613905576139056138ad565b604052919050565b600067ffffffffffffffff821115613927576139276138ad565b50601f01601f191660200190565b60008060006060848603121561394a57600080fd5b8335613955816134fb565b9250602084013567ffffffffffffffff81111561397157600080fd5b8401601f8101861361398257600080fd5b80356139956139908261390d565b6138dc565b8181528760208385010111156139aa57600080fd5b8160208401602083013760006020838301015280945050505060408401356139d181613564565b809150509250925092565b60005b838110156139f75781810151838201526020016139df565b50506000910152565b60008151808452613a188160208601602086016139dc565b601f01601f19169290920160200192915050565b60208152600061133c6020830184613a00565b60008060408385031215613a5257600080fd5b8235613a5d816134fb565b91506020830135613a6d816134fb565b809150509250929050565b600060208284031215613a8a57600080fd5b813561133c816137b6565b60008060008060008060008060008060e08b8d031215613ab457600080fd5b8a35613abf816134fb565b995060208b013567ffffffffffffffff80821115613adc57600080fd5b613ae88e838f0161351b565b909b50995060408d0135985060608d0135915080821115613b0857600080fd5b613b148e838f0161351b565b909850965060808d01359150613b2982613564565b819550613b3860a08e016136b5565b945060c08d0135915080821115613b4e57600080fd5b50613b5b8d828e0161351b565b915080935050809150509295989b9194979a5092959850565b600080600080600060808688031215613b8c57600080fd5b8535613b97816134fb565b94506020860135613ba7816134fb565b935060408601359250606086013567ffffffffffffffff811115613bca57600080fd5b613bd68882890161351b565b969995985093965092949392505050565b60008060008060008060008060008060e08b8d031215613c0657600080fd5b8a35613c11816134fb565b995060208b013567ffffffffffffffff80821115613c2e57600080fd5b613c3a8e838f0161351b565b909b50995060408d01359150613c4f82613564565b90975060608c01359080821115613c6557600080fd5b613c718e838f0161351b565b9098509650869150613c8560808e016137d8565b955060a08d0135945060c08d0135915080821115613b4e57600080fd5b600080600060608486031215613cb757600080fd5b8335613cc2816134fb565b92506020840135613cd2816134fb565b929592945050506040919091013590565b6000806000806000806000806000806000806101208d8f031215613d0657600080fd5b613d0f8d6137d8565b9b50613d1d60208e0161350b565b9a5067ffffffffffffffff60408e01351115613d3857600080fd5b613d488e60408f01358f0161351b565b909a50985060608d0135975067ffffffffffffffff60808e01351115613d6d57600080fd5b613d7d8e60808f01358f0161351b565b9097509550613d8e60a08e0161357a565b9450613d9c60c08e016137d8565b9350613daa60e08e016137d8565b925067ffffffffffffffff6101008e01351115613dc657600080fd5b613dd78e6101008f01358f0161351b565b81935080925050509295989b509295989b509295989b565b600060208284031215613e0157600080fd5b813561133c816136a7565b60008060008060808587031215613e2257600080fd5b8435613e2d816134fb565b93506020850135613e3d816134fb565b92506040850135613e4d816137b6565b9396929550929360600135925050565b600181811c90821680613e7157607f821691505b602082108103613eaa577f4e487b7100000000000000000000000000000000000000000000000000000000600052602260045260246000fd5b50919050565b8183823760009101908152919050565b818352818160208501375060006020828401015260006020601f19601f840116840101905092915050565b61ffff85168152606060208201526000613f09606083018587613ec0565b905082604083015295945050505050565b61ffff8716815273ffffffffffffffffffffffffffffffffffffffff8616602082015260a060408201526000613f5360a0830187613a00565b85151560608401528281036080840152613f6e818587613ec0565b9998505050505050505050565b60008060408385031215613f8e57600080fd5b505080516020909101519092909150565b61ffff84168152604060208201526000611e7a604083018486613ec0565b600060208284031215613fcf57600080fd5b5051919050565b7f4e487b7100000000000000000000000000000000000000000000000000000000600052601160045260246000fd5b81810381811115610afe57610afe613fd6565b8284823760609190911b7fffffffffffffffffffffffffffffffffffffffff000000000000000000000000169101908152601401919050565b601f821115612dd3576000816000526020600020601f850160051c8101602086101561407a5750805b601f850160051c820191505b8181101561103157828155600101614086565b815167ffffffffffffffff8111156140b3576140b36138ad565b6140c7816140c18454613e5d565b84614051565b602080601f8311600181146140fc57600084156140e45750858301515b600019600386901b1c1916600185901b178555611031565b600085815260208120601f198616915b8281101561412b5788860151825594840194600190910190840161410c565b50858210156141495787850151600019600388901b60f8161c191681555b5050505050600190811b01905550565b61ffff8916815260c06020820152600061417660c083018a613a00565b828103604084015261418981898b613ec0565b905086606084015282810360808401526141a4818688613ec0565b91505067ffffffffffffffff831660a08301529998505050505050505050565b600061ffff808816835280871660208401525084604083015260806060830152613445608083018486613ec0565b60808152600061420660808301888a613ec0565b73ffffffffffffffffffffffffffffffffffffffff871660208401528560408401528281036060840152613f6e818587613ec0565b61ffff8a16815260c06020820152600061425960c083018a8c613ec0565b67ffffffffffffffff89166040840152828103606084015261427c81888a613ec0565b905085608084015282810360a0840152614297818587613ec0565b9c9b505050505050505050505050565b61ffff861681526080602082015260006142c5608083018688613ec0565b67ffffffffffffffff94909416604083015250606001529392505050565b67ffffffffffffffff8311156142fb576142fb6138ad565b61430f836143098354613e5d565b83614051565b6000601f841160018114614343576000851561432b5750838201355b600019600387901b1c1916600186901b178355610bac565b600083815260209020601f19861690835b828110156143745786850135825560209485019460019092019101614354565b50868210156143915760001960f88860031b161c19848701351681555b505060018560011b0183555050505050565b600082601f8301126143b457600080fd5b81516143c26139908261390d565b8181528460208386010111156143d757600080fd5b611e7d8260208301602087016139dc565b6000602082840312156143fa57600080fd5b815167ffffffffffffffff81111561441157600080fd5b611e7d848285016143a3565b61ffff8516815260806020820152600061443a6080830186613a00565b67ffffffffffffffff8516604084015282810360608401526134458185613a00565b61ffff841681526060602082015260006144796060830185613a00565b9050826040830152949350505050565b60408152600061449c6040830185613a00565b90508260208301529392505050565b80820180821115610afe57610afe613fd6565b61ffff8816815260c0602082015260006144db60c0830189613a00565b82810360408401526144ed8189613a00565b90508660608401528281036080840152614508818688613ec0565b91505067ffffffffffffffff831660a083015298975050505050505050565b600082516145398184602087016139dc565b9190910192915050565b61ffff8616815260a06020820152600061456060a0830187613a00565b67ffffffffffffffff8616604084015282810360608401526145828186613a00565b905082810360808401526145968185613a00565b98975050505050505050565b61ffff8716815260c0602082015260006145bf60c0830188613a00565b82810360408401526145d18188613a00565b73ffffffffffffffffffffffffffffffffffffffff87811660608601528616608085015283810360a08501529050613f6e8185613a00565b60008060006060848603121561461e57600080fd5b8351614629816134fb565b602085015190935067ffffffffffffffff81111561464657600080fd5b614652868287016143a3565b925050604084015190509250925092565b60008060008060008060c0878903121561467c57600080fd5b8651614687816134fb565b602088015190965067ffffffffffffffff808211156146a557600080fd5b6146b18a838b016143a3565b965060408901519150808211156146c757600080fd5b6146d38a838b016143a3565b95506060890151945060808901519150808211156146f057600080fd5b506146fd89828a016143a3565b92505060a087015161470e81613564565b809150509295509295509295565b61ffff8716815260c06020820152600061473960c0830188613a00565b67ffffffffffffffff87166040840152828103606084015261475b8187613a00565b905084608084015282810360a0840152613f6e8185613a00565b6080815260006147886080830187613a00565b73ffffffffffffffffffffffffffffffffffffffff8616602084015284604084015282810360608401526134458185613a00565b60c0815260006147cf60c0830189613a00565b67ffffffffffffffff8816602084015282810360408401526147f18188613a00565b9050856060840152828103608084015261480b8186613a00565b905082810360a0840152613f6e8185613a00565b6060815260006148326060830186613a00565b67ffffffffffffffff9490941660208301525060400152919050565b60006020828403121561486057600080fd5b815161133c816136a756fea26469706673582212205b27002bb2072be2999e4d980400ef72194cce8e977a711adb07410afbe3bfde64736f6c63430008160033",
  "linkReferences": {},
  "deployedLinkReferences": {}
}