{
  "_format": "hh-sol-artifact-1",
  "contractName": "MagnetarAssetXChainModule",
  "sourceName": "contracts/Magnetar/modules/MagnetarAssetXChainModule.sol",
  "abi": [
    {
      "inputs": [],
      "name": "Magnetar_ActionParamsMismatch",
      "type": "error"
    },
    {
      "inputs": [],
      "name": "Magnetar_ExtractTokenFail",
      "type": "error"
    },
    {
      "inputs": [
        {
          "internalType": "uint256",
          "name": "expected",
          "type": "uint256"
        },
        {
          "internalType": "uint256",
          "name": "received",
          "type": "uint256"
        }
      ],
      "name": "Magnetar_GasMismatch",
      "type": "error"
    },
    {
      "inputs": [
        {
          "internalType": "enum MagnetarModule",
          "name": "module",
          "type": "uint8"
        }
      ],
      "name": "Magnetar_ModuleNotFound",
      "type": "error"
    },
    {
      "inputs": [
        {
          "internalType": "address",
          "name": "caller",
          "type": "address"
        },
        {
          "internalType": "address",
          "name": "expectedCaller",
          "type": "address"
        }
      ],
      "name": "Magnetar_NotAuthorized",
      "type": "error"
    },
    {
      "inputs": [
        {
          "internalType": "address",
          "name": "target",
          "type": "address"
        }
      ],
      "name": "Magnetar_TargetNotWhitelisted",
      "type": "error"
    },
    {
      "inputs": [],
      "name": "Magnetar_UnknownReason",
      "type": "error"
    },
    {
      "inputs": [],
      "name": "Magnetar_tOLPTokenMismatch",
      "type": "error"
    },
    {
      "anonymous": false,
      "inputs": [
        {
          "indexed": true,
          "internalType": "address",
          "name": "previousOwner",
          "type": "address"
        },
        {
          "indexed": true,
          "internalType": "address",
          "name": "newOwner",
          "type": "address"
        }
      ],
      "name": "OwnershipTransferred",
      "type": "event"
    },
    {
      "anonymous": false,
      "inputs": [
        {
          "indexed": false,
          "internalType": "contract IPearlmit",
          "name": "oldPearlmit",
          "type": "address"
        },
        {
          "indexed": false,
          "internalType": "contract IPearlmit",
          "name": "newPearlmit",
          "type": "address"
        }
      ],
      "name": "PearlmitUpdated",
      "type": "event"
    },
    {
      "inputs": [],
      "name": "MAGNETAR_ACTION_ASSET_MODULE",
      "outputs": [
        {
          "internalType": "uint8",
          "name": "",
          "type": "uint8"
        }
      ],
      "stateMutability": "view",
      "type": "function"
    },
    {
      "inputs": [],
      "name": "MAGNETAR_ACTION_ASSET_XCHAIN_MODULE",
      "outputs": [
        {
          "internalType": "uint8",
          "name": "",
          "type": "uint8"
        }
      ],
      "stateMutability": "view",
      "type": "function"
    },
    {
      "inputs": [],
      "name": "MAGNETAR_ACTION_COLLATERAL_MODULE",
      "outputs": [
        {
          "internalType": "uint8",
          "name": "",
          "type": "uint8"
        }
      ],
      "stateMutability": "view",
      "type": "function"
    },
    {
      "inputs": [],
      "name": "MAGNETAR_ACTION_MARKET",
      "outputs": [
        {
          "internalType": "uint8",
          "name": "",
          "type": "uint8"
        }
      ],
      "stateMutability": "view",
      "type": "function"
    },
    {
      "inputs": [],
      "name": "MAGNETAR_ACTION_MINT_MODULE",
      "outputs": [
        {
          "internalType": "uint8",
          "name": "",
          "type": "uint8"
        }
      ],
      "stateMutability": "view",
      "type": "function"
    },
    {
      "inputs": [],
      "name": "MAGNETAR_ACTION_MINT_XCHAIN_MODULE",
      "outputs": [
        {
          "internalType": "uint8",
          "name": "",
          "type": "uint8"
        }
      ],
      "stateMutability": "view",
      "type": "function"
    },
    {
      "inputs": [],
      "name": "MAGNETAR_ACTION_OFT",
      "outputs": [
        {
          "internalType": "uint8",
          "name": "",
          "type": "uint8"
        }
      ],
      "stateMutability": "view",
      "type": "function"
    },
    {
      "inputs": [],
      "name": "MAGNETAR_ACTION_OPTION_MODULE",
      "outputs": [
        {
          "internalType": "uint8",
          "name": "",
          "type": "uint8"
        }
      ],
      "stateMutability": "view",
      "type": "function"
    },
    {
      "inputs": [],
      "name": "MAGNETAR_ACTION_PERMIT",
      "outputs": [
        {
          "internalType": "uint8",
          "name": "",
          "type": "uint8"
        }
      ],
      "stateMutability": "view",
      "type": "function"
    },
    {
      "inputs": [],
      "name": "MAGNETAR_ACTION_TAP_TOKEN",
      "outputs": [
        {
          "internalType": "uint8",
          "name": "",
          "type": "uint8"
        }
      ],
      "stateMutability": "view",
      "type": "function"
    },
    {
      "inputs": [],
      "name": "MAGNETAR_ACTION_WRAP",
      "outputs": [
        {
          "internalType": "uint8",
          "name": "",
          "type": "uint8"
        }
      ],
      "stateMutability": "view",
      "type": "function"
    },
    {
      "inputs": [],
      "name": "MAGNETAR_ACTION_YIELDBOX_MODULE",
      "outputs": [
        {
          "internalType": "uint8",
          "name": "",
          "type": "uint8"
        }
      ],
      "stateMutability": "view",
      "type": "function"
    },
    {
      "inputs": [
        {
          "components": [
            {
              "internalType": "address",
              "name": "user",
              "type": "address"
            },
            {
              "internalType": "address",
              "name": "singularity",
              "type": "address"
            },
            {
              "internalType": "address",
              "name": "magnetar",
              "type": "address"
            },
            {
              "internalType": "uint256",
              "name": "assetId",
              "type": "uint256"
            },
            {
              "internalType": "uint256",
              "name": "lendAmount",
              "type": "uint256"
            },
            {
              "components": [
                {
                  "internalType": "bool",
                  "name": "deposit",
                  "type": "bool"
                },
                {
                  "internalType": "uint256",
                  "name": "amount",
                  "type": "uint256"
                }
              ],
              "internalType": "struct IDepositData",
              "name": "depositData",
              "type": "tuple"
            },
            {
              "components": [
                {
                  "components": [
                    {
                      "components": [
                        {
                          "internalType": "uint32",
                          "name": "dstEid",
                          "type": "uint32"
                        },
                        {
                          "internalType": "bytes32",
                          "name": "to",
                          "type": "bytes32"
                        },
                        {
                          "internalType": "uint256",
                          "name": "amountLD",
                          "type": "uint256"
                        },
                        {
                          "internalType": "uint256",
                          "name": "minAmountLD",
                          "type": "uint256"
                        },
                        {
                          "internalType": "bytes",
                          "name": "extraOptions",
                          "type": "bytes"
                        },
                        {
                          "internalType": "bytes",
                          "name": "composeMsg",
                          "type": "bytes"
                        },
                        {
                          "internalType": "bytes",
                          "name": "oftCmd",
                          "type": "bytes"
                        }
                      ],
                      "internalType": "struct SendParam",
                      "name": "sendParam",
                      "type": "tuple"
                    },
                    {
                      "components": [
                        {
                          "internalType": "uint256",
                          "name": "nativeFee",
                          "type": "uint256"
                        },
                        {
                          "internalType": "uint256",
                          "name": "lzTokenFee",
                          "type": "uint256"
                        }
                      ],
                      "internalType": "struct MessagingFee",
                      "name": "fee",
                      "type": "tuple"
                    },
                    {
                      "internalType": "bytes",
                      "name": "extraOptions",
                      "type": "bytes"
                    },
                    {
                      "internalType": "address",
                      "name": "refundAddress",
                      "type": "address"
                    }
                  ],
                  "internalType": "struct LZSendParam",
                  "name": "lzParams",
                  "type": "tuple"
                },
                {
                  "internalType": "uint128",
                  "name": "lzSendGas",
                  "type": "uint128"
                },
                {
                  "internalType": "uint128",
                  "name": "lzSendVal",
                  "type": "uint128"
                },
                {
                  "internalType": "uint128",
                  "name": "lzComposeGas",
                  "type": "uint128"
                },
                {
                  "internalType": "uint128",
                  "name": "lzComposeVal",
                  "type": "uint128"
                },
                {
                  "internalType": "uint16",
                  "name": "lzComposeMsgType",
                  "type": "uint16"
                }
              ],
              "internalType": "struct LendOrLockSendParams",
              "name": "lockAndParticipateSendParams",
              "type": "tuple"
            }
          ],
          "internalType": "struct DepositAndSendForLockingData",
          "name": "data",
          "type": "tuple"
        }
      ],
      "name": "depositYBLendSGLLockXchainTOLP",
      "outputs": [],
      "stateMutability": "payable",
      "type": "function"
    },
    {
      "inputs": [
        {
          "internalType": "address",
          "name": "",
          "type": "address"
        },
        {
          "internalType": "address",
          "name": "",
          "type": "address"
        },
        {
          "internalType": "uint256",
          "name": "",
          "type": "uint256"
        },
        {
          "internalType": "bytes",
          "name": "",
          "type": "bytes"
        }
      ],
      "name": "onERC721Received",
      "outputs": [
        {
          "internalType": "bytes4",
          "name": "",
          "type": "bytes4"
        }
      ],
      "stateMutability": "nonpayable",
      "type": "function"
    },
    {
      "inputs": [],
      "name": "owner",
      "outputs": [
        {
          "internalType": "address",
          "name": "",
          "type": "address"
        }
      ],
      "stateMutability": "view",
      "type": "function"
    },
    {
      "inputs": [],
      "name": "pearlmit",
      "outputs": [
        {
          "internalType": "contract IPearlmit",
          "name": "",
          "type": "address"
        }
      ],
      "stateMutability": "view",
      "type": "function"
    },
    {
      "inputs": [],
      "name": "renounceOwnership",
      "outputs": [],
      "stateMutability": "nonpayable",
      "type": "function"
    },
    {
      "inputs": [
        {
          "internalType": "contract IPearlmit",
          "name": "_pearlmit",
          "type": "address"
        }
      ],
      "name": "setPearlmit",
      "outputs": [],
      "stateMutability": "nonpayable",
      "type": "function"
    },
    {
      "inputs": [
        {
          "internalType": "address",
          "name": "newOwner",
          "type": "address"
        }
      ],
      "name": "transferOwnership",
      "outputs": [],
      "stateMutability": "nonpayable",
      "type": "function"
    },
    {
      "stateMutability": "payable",
      "type": "receive"
    }
  ],
  "bytecode": "0x60806040523480156200001157600080fd5b50600080620000203362000047565b600180546001600160a01b0319166001600160a01b03929092169190911790555062000097565b600080546001600160a01b038381166001600160a01b0319831681178455604051919092169283917f8be0079c531659141344cd1fd0a4f28419497f9722a3daafe3b4186f6b6457e09190a35050565b615ee280620000a76000396000f3fe6080604052600436106101485760003560e01c806384f8faee116100c0578063ca5230cb11610074578063d69ee34d11610059578063d69ee34d1461032e578063dd85052c14610343578063f2fde38b1461035857600080fd5b8063ca5230cb14610304578063d3beccf11461031957600080fd5b80638da5cb5b116100a55780638da5cb5b146102b1578063902bd45e146102cf578063c602d239146102ef57600080fd5b806384f8faee14610287578063863b02551461029c57600080fd5b806362675f8e11610117578063715018a6116100fc578063715018a6146102485780637942a5771461025d5780637cd1550a1461027257600080fd5b806362675f8e146101fb5780636411be201461021057600080fd5b8063150b7a02146101545780631557bb46146101aa578063178ecbca146101d157806344d2f9cb146101e657600080fd5b3661014f57005b600080fd5b34801561016057600080fd5b5061017461016f3660046127c9565b610378565b6040517fffffffff0000000000000000000000000000000000000000000000000000000090911681526020015b60405180910390f35b3480156101b657600080fd5b506101bf600b81565b60405160ff90911681526020016101a1565b6101e46101df366004612abc565b6103a2565b005b3480156101f257600080fd5b506101bf600681565b34801561020757600080fd5b506101bf600281565b34801561021c57600080fd5b50600154610230906001600160a01b031681565b6040516001600160a01b0390911681526020016101a1565b34801561025457600080fd5b506101e4610597565b34801561026957600080fd5b506101bf600081565b34801561027e57600080fd5b506101bf600781565b34801561029357600080fd5b506101bf600181565b3480156102a857600080fd5b506101bf600881565b3480156102bd57600080fd5b506000546001600160a01b0316610230565b3480156102db57600080fd5b506101e46102ea366004612b83565b6105ab565b3480156102fb57600080fd5b506101bf600381565b34801561031057600080fd5b506101bf600a81565b34801561032557600080fd5b506101bf600481565b34801561033a57600080fd5b506101bf600981565b34801561034f57600080fd5b506101bf600581565b34801561036457600080fd5b506101e4610373366004612b83565b610634565b7f150b7a02000000000000000000000000000000000000000000000000000000005b949350505050565b80516103ad906106c9565b600081602001516001600160a01b031663de4065776040518163ffffffff1660e01b8152600401602060405180830381865afa1580156103f1573d6000803e3d6000fd5b505050506040513d601f19601f820116820180604052508101906104159190612ba7565b905060006104368360a00151846020015184866000015187608001516107b3565b905060006104538385602001518660000151858860600151610be1565b60c085018051515160400182905251515160a0015190915060009081908190819061047d90610dc2565b94509450945050935060008280602001905181019061049c9190612c12565b606081018790526040519091506104d2906104bb908390602001612d1c565b604051602081830303815290604052868685610e4e565b60c0808b018051515160a09081019390935260408051610160810182526001600160a01b038d1681526060808f015160208381019190915260008385015284515182840152845101516fffffffffffffffffffffffffffffffff9081166080808501919091528551909201518116838801528451909301518316948201949094528251909301511660e083015280515151830151610100830152519091015161ffff16610120820152600161014082015261058c90610e83565b505050505050505050565b61059f6111f4565b6105a9600061124e565b565b6105b36111f4565b600154604080516001600160a01b03928316815291831660208301527f19e743977bfa1080c4f475f13f05433b43465aa361d8a3fec33c3165f773b599910160405180910390a1600180547fffffffffffffffffffffffff0000000000000000000000000000000000000000166001600160a01b0392909216919091179055565b61063c6111f4565b6001600160a01b0381166106bd5760405162461bcd60e51b815260206004820152602660248201527f4f776e61626c653a206e6577206f776e657220697320746865207a65726f206160448201527f646472657373000000000000000000000000000000000000000000000000000060648201526084015b60405180910390fd5b6106c68161124e565b50565b6001600160a01b038116331480159061076b57506002546040517fe67e9908000000000000000000000000000000000000000000000000000000008152600060048201523360248201526001600160a01b039091169063e67e990890604401602060405180830381865afa158015610745573d6000803e3d6000fd5b505050506040513d601f19601f820116820180604052508101906107699190612dcd565b155b156106c6576040517feaded0630000000000000000000000000000000000000000000000000000000081523360048201526001600160a01b03821660248201526044016106b4565b60006001600160a01b03851615610bd8576002546040517fe67e9908000000000000000000000000000000000000000000000000000000008152600060048201526001600160a01b0387811660248301529091169063e67e990890604401602060405180830381865afa15801561082e573d6000803e3d6000fd5b505050506040513d601f19601f820116820180604052508101906108529190612dcd565b610893576040517f5590e2e20000000000000000000000000000000000000000000000000000000081526001600160a01b03861660048201526024016106b4565b61089d85856112b6565b60008590506000816001600160a01b03166344de240a6040518163ffffffff1660e01b8152600401602060405180830381865afa1580156108e2573d6000803e3d6000fd5b505050506040513d601f19601f820116820180604052508101906109069190612dea565b6040517fcf35bdd0000000000000000000000000000000000000000000000000000000008152600481018290529091506000906001600160a01b0388169063cf35bdd090602401608060405180830381865afa15801561096a573d6000803e3d6000fd5b505050506040513d601f19601f8201168201806040525081019061098e9190612e03565b5050915050886000015115610a72576109ac86828b602001516113cb565b60208a018190526109c9906001600160a01b038316908990611603565b60208901516040517f9a9af97a000000000000000000000000000000000000000000000000000000008152600481018490523060248201526001600160a01b03888116604483015260648201929092526000608482015290881690639a9af97a9060a40160408051808303816000875af1158015610a4b573d6000803e3d6000fd5b505050506040513d601f19601f82011682018060405250810190610a6f9190612e5a565b50505b6000935084158015610a82575088515b15610a8f57886020015194505b8415610bca576040517f8eb22cdd0000000000000000000000000000000000000000000000000000000081526004810183905260248101869052600060448201819052906001600160a01b03891690638eb22cdd90606401602060405180830381865afa158015610b04573d6000803e3d6000fd5b505050506040513d601f19601f82011682018060405250810190610b289190612dea565b6040517f6587adb80000000000000000000000000000000000000000000000000000000081526001600160a01b038981166004830181905260248301526000604483015260648201839052919250908a1690636587adb8906084016020604051808303816000875af1158015610ba2573d6000803e3d6000fd5b505050506040513d601f19601f82011682018060405250810190610bc69190612dea565b9450505b610bd488886118e8565b5050505b95945050505050565b6000610bf86001600160a01b0386168530866119cb565b6040517fcf35bdd0000000000000000000000000000000000000000000000000000000008152600481018390526000906001600160a01b0388169063cf35bdd090602401608060405180830381865afa158015610c59573d6000803e3d6000fd5b505050506040513d601f19601f82011682018060405250810190610c7d9190612e03565b50506040517f095ea7b30000000000000000000000000000000000000000000000000000000081526001600160a01b03808316600483015260248201889052919350908816915063095ea7b3906044016020604051808303816000875af1158015610cec573d6000803e3d6000fd5b505050506040513d601f19601f82011682018060405250810190610d109190612dcd565b506040517f6235563800000000000000000000000000000000000000000000000000000000815230600482018190526024820152604481018590526001600160a01b038216906362355638906064016020604051808303816000875af1158015610d7e573d6000803e3d6000fd5b505050506040513d601f19601f82011682018060405250810190610da29190612dea565b9150610db86001600160a01b0382168684611a82565b5095945050505050565b6000806000606080610de1610dda8760006002611acb565b6000611bf3565b9450610df2610dda87600280611acb565b9350610e04610dda8760046002611acb565b9250610e1686600661ffff8716611acb565b91506000610e25856006612ead565b61ffff169050610e428782838a51610e3d9190612ec8565b611acb565b91505091939590929450565b6060818486518588604051602001610e6a959493929190612eff565b6040516020818303038152906040529050949350505050565b60025481516040517fe67e9908000000000000000000000000000000000000000000000000000000008152600060048201526001600160a01b03918216602482015291169063e67e990890604401602060405180830381865afa158015610eee573d6000803e3d6000fd5b505050506040513d601f19601f82011682018060405250810190610f129190612dcd565b610f565780516040517f5590e2e20000000000000000000000000000000000000000000000000000000081526001600160a01b0390911660048201526024016106b4565b80516060820151515163ffffffff16600003610f925760208083015160608401515191820151604090920151610f8e92849291611c5f565b5050565b60208201516040517fcf35bdd00000000000000000000000000000000000000000000000000000000081526000916001600160a01b0384169163cf35bdd091610fe19160040190815260200190565b608060405180830381865afa158015610ffe573d6000803e3d6000fd5b505050506040513d601f19601f820116820180604052508101906110229190612e03565b50506002546040517fe67e9908000000000000000000000000000000000000000000000000000000008152600060048201526001600160a01b0380841660248301529294509116915063e67e990890604401602060405180830381865afa158015611091573d6000803e3d6000fd5b505050506040513d601f19601f820116820180604052508101906110b59190612dcd565b6110f6576040517f5590e2e20000000000000000000000000000000000000000000000000000000081526001600160a01b03821660048201526024016106b4565b602083015160608401515160409081015190517f8d2e63b80000000000000000000000000000000000000000000000000000000081526004810192909252306024830181905260448301526064820152600060848201526001600160a01b03831690638d2e63b89060a40160408051808303816000875af115801561117f573d6000803e3d6000fd5b505050506040513d601f19601f820116820180604052508101906111a39190612e5a565b50508260400151156111dc576111d781846060015185608001518660c001518760a001518860e00151896101200151611d16565b505050565b6111d781846060015185608001518660c00151611fcb565b6000546001600160a01b031633146105a95760405162461bcd60e51b815260206004820181905260248201527f4f776e61626c653a2063616c6c6572206973206e6f7420746865206f776e657260448201526064016106b4565b600080546001600160a01b038381167fffffffffffffffffffffffff0000000000000000000000000000000000000000831681178455604051919092169283917f8be0079c531659141344cd1fd0a4f28419497f9722a3daafe3b4186f6b6457e09190a35050565b6040517fe985e9c50000000000000000000000000000000000000000000000000000000081523060048201526001600160a01b0383811660248301526000919083169063e985e9c590604401602060405180830381865afa15801561131f573d6000803e3d6000fd5b505050506040513d601f19601f820116820180604052508101906113439190612dcd565b9050806111d7576040517fa22cb4650000000000000000000000000000000000000000000000000000000081526001600160a01b0384811660048301526001602483015283169063a22cb465906044015b600060405180830381600087803b1580156113ae57600080fd5b505af11580156113c2573d6000803e3d6000fd5b50505050505050565b6040517f70a0823100000000000000000000000000000000000000000000000000000000815230600482015260009081906001600160a01b038516906370a0823190602401602060405180830381865afa15801561142d573d6000803e3d6000fd5b505050506040513d601f19601f820116820180604052508101906114519190612dea565b6001546040517fdd71105d0000000000000000000000000000000000000000000000000000000081526001600160a01b0388811660048301523060248301528781166044830152606482018790529293506000929091169063dd71105d906084016020604051808303816000875af11580156114d1573d6000803e3d6000fd5b505050506040513d601f19601f820116820180604052508101906114f59190612dcd565b9050801561152f576040517fa2ce231000000000000000000000000000000000000000000000000000000000815260040160405180910390fd5b6040517f70a082310000000000000000000000000000000000000000000000000000000081523060048201526000906001600160a01b038716906370a0823190602401602060405180830381865afa15801561158f573d6000803e3d6000fd5b505050506040513d601f19601f820116820180604052508101906115b39190612dea565b90508281116115ee576040517fa2ce231000000000000000000000000000000000000000000000000000000000815260040160405180910390fd5b6115f88382612ec8565b979650505050505050565b6000836001600160a01b03163b1161165d5760405162461bcd60e51b815260206004820152601860248201527f53616665417070726f76653a206e6f20636f6e7472616374000000000000000060448201526064016106b4565b6040516001600160a01b0383811660248301526000604483018190529160609186169060640160408051601f198184030181529181526020820180517bffffffffffffffffffffffffffffffffffffffffffffffffffffffff167f095ea7b300000000000000000000000000000000000000000000000000000000179052516116e69190612f78565b6000604051808303816000865af19150503d8060008114611723576040519150601f19603f3d011682016040523d82523d6000602084013e611728565b606091505b5090925090508180156117535750805115806117535750808060200190518101906117539190612dcd565b61179f5760405162461bcd60e51b815260206004820152601b60248201527f53616665417070726f76653a20617070726f7665206661696c6564000000000060448201526064016106b4565b82156118e1576040516001600160a01b0385811660248301526044820185905286169060640160408051601f198184030181529181526020820180517bffffffffffffffffffffffffffffffffffffffffffffffffffffffff167f095ea7b300000000000000000000000000000000000000000000000000000000179052516118289190612f78565b6000604051808303816000865af19150503d8060008114611865576040519150601f19603f3d011682016040523d82523d6000602084013e61186a565b606091505b5090925090508180156118955750805115806118955750808060200190518101906118959190612dcd565b6118e15760405162461bcd60e51b815260206004820152601b60248201527f53616665417070726f76653a20617070726f7665206661696c6564000000000060448201526064016106b4565b5050505050565b6040517fe985e9c50000000000000000000000000000000000000000000000000000000081523060048201526001600160a01b0383811660248301526000919083169063e985e9c590604401602060405180830381865afa158015611951573d6000803e3d6000fd5b505050506040513d601f19601f820116820180604052508101906119759190612dcd565b905080156111d7576040517fa22cb4650000000000000000000000000000000000000000000000000000000081526001600160a01b0384811660048301526000602483015283169063a22cb46590604401611394565b6040516001600160a01b0380851660248301528316604482015260648101829052611a7c9085907f23b872dd00000000000000000000000000000000000000000000000000000000906084015b60408051601f198184030181529190526020810180517bffffffffffffffffffffffffffffffffffffffffffffffffffffffff167fffffffff00000000000000000000000000000000000000000000000000000000909316929092179091526120c0565b50505050565b6040516001600160a01b0383166024820152604481018290526111d79084907fa9059cbb0000000000000000000000000000000000000000000000000000000090606401611a18565b606081611ad981601f612f94565b1015611b275760405162461bcd60e51b815260206004820152600e60248201527f736c6963655f6f766572666c6f7700000000000000000000000000000000000060448201526064016106b4565b611b318284612f94565b84511015611b815760405162461bcd60e51b815260206004820152601160248201527f736c6963655f6f75744f66426f756e647300000000000000000000000000000060448201526064016106b4565b606082158015611ba05760405191506000825260208201604052611bea565b6040519150601f8416801560200281840101858101878315602002848b0101015b81831015611bd9578051835260209283019201611bc1565b5050858452601f01601f1916604052505b50949350505050565b6000611c00826002612f94565b83511015611c505760405162461bcd60e51b815260206004820152601460248201527f746f55696e7431365f6f75744f66426f756e647300000000000000000000000060448201526064016106b4565b50818101600201515b92915050565b6001600160a01b038416638d2e63b88430856040517fffffffff0000000000000000000000000000000000000000000000000000000060e086901b16815260048101939093526001600160a01b039182166024840152166044820152606481018490526000608482015260a40160408051808303816000875af1158015611cea573d6000803e3d6000fd5b505050506040513d601f19601f82011682018060405250810190611d0e9190612e5a565b505050505050565b6000611d24888888886121a8565b90506000604051611d34906124c8565b604051809103906000f080158015611d50573d6000803e3d6000fd5b5090506000816001600160a01b0316634ed471278b6040518061010001604052808d600001516000015163ffffffff1681526020018d6000015160200151815260200160008152602001600081526020018861ffff1681526020016040518060c00160405280600060ff1681526020018c6fffffffffffffffffffffffffffffffff168152602001611de98a6060015160000151612329565b6fffffffffffffffffffffffffffffffff1681526020018f6000015160a0015181526020016040518060200160405280600081525081526020016040518060200160405280600081525081525081526020018a8d611e479190612fa7565b6fffffffffffffffffffffffffffffffff168152602001896fffffffffffffffffffffffffffffffff168152506040518363ffffffff1660e01b8152600401611e9192919061307d565b600060405180830381865afa158015611eae573d6000803e3d6000fd5b505050506040513d6000823e601f3d908101601f19168201604052611ed69190810190613307565b606081015151909150341015611f28576060810151516040517fbfbe894d00000000000000000000000000000000000000000000000000000000815260048101919091523460248201526044016106b4565b606081015151608082015182516040517f5a55a6430000000000000000000000000000000000000000000000000000000081526001600160a01b038e1693635a55a643939092611f7a92600401613416565b60c06040518083038185885af1158015611f98573d6000803e3d6000fd5b50505050506040513d601f19601f82011682018060405250810190611fbd9190613554565b505050505050505050505050565b6000611fd9858585856121a8565b60608101515190915034101561202b576060810151516040517fbfbe894d00000000000000000000000000000000000000000000000000000000815260048101919091523460248201526044016106b4565b606081015151608082015182516040517f5a55a6430000000000000000000000000000000000000000000000000000000081526001600160a01b03891693635a55a64393909261207d92600401613416565b60c06040518083038185885af115801561209b573d6000803e3d6000fd5b50505050506040513d601f19601f820116820180604052508101906113c29190613554565b6000612115826040518060400160405280602081526020017f5361666545524332303a206c6f772d6c6576656c2063616c6c206661696c6564815250856001600160a01b03166123b59092919063ffffffff16565b90508051600014806121365750808060200190518101906121369190612dcd565b6111d75760405162461bcd60e51b815260206004820152602a60248201527f5361666545524332303a204552433230206f7065726174696f6e20646964206e60448201527f6f7420737563636565640000000000000000000000000000000000000000000060648201526084016106b4565b6121b06124d5565b60006040516121be906124c8565b604051809103906000f0801580156121da573d6000803e3d6000fd5b50604080516101008101825287515163ffffffff1681528751602090810151818301528851830151828401528851606090810151818401526001608080850191909152845160c080820187526000808352828601819052828801819052875180870189528181529483019490945286518086018852848152928201929092528551938401865291835260a082810193909352918301526fffffffffffffffffffffffffffffffff88811691830191909152861660e082015290517f4ed471270000000000000000000000000000000000000000000000000000000081529192506001600160a01b03831691634ed47127916122da918a919060040161307d565b600060405180830381865afa1580156122f7573d6000803e3d6000fd5b505050506040513d6000823e601f3d908101601f1916820160405261231f9190810190613307565b9695505050505050565b60006fffffffffffffffffffffffffffffffff8211156123b15760405162461bcd60e51b815260206004820152602760248201527f53616665436173743a2076616c756520646f65736e27742066697420696e203160448201527f323820626974730000000000000000000000000000000000000000000000000060648201526084016106b4565b5090565b606061039a848460008585600080866001600160a01b031685876040516123dc9190612f78565b60006040518083038185875af1925050503d8060008114612419576040519150601f19603f3d011682016040523d82523d6000602084013e61241e565b606091505b50915091506115f88783838760608315612499578251600003612492576001600160a01b0385163b6124925760405162461bcd60e51b815260206004820152601d60248201527f416464726573733a2063616c6c20746f206e6f6e2d636f6e747261637400000060448201526064016106b4565b508161039a565b61039a83838151156124ae5781518083602001fd5b8060405162461bcd60e51b81526004016106b491906135cd565b6128cc806135e183390190565b6040518060c0016040528060608152602001606081526020016125376040518060e00160405280600063ffffffff1681526020016000801916815260200160008152602001600081526020016060815260200160608152602001606081525090565b8152602001612559604051806040016040528060008152602001600081525090565b8152602001612566612573565b8152602001606081525090565b60408051610160810190915260006080820181815260a0830182905260c0830182905260e0830191909152606061010083018190526101208301819052610140830152819081526020016125da604051806040016040528060008152602001600081525090565b815260606020820152600060409091015290565b6001600160a01b03811681146106c657600080fd5b803561260e816125ee565b919050565b7f4e487b7100000000000000000000000000000000000000000000000000000000600052604160045260246000fd5b6040805190810167ffffffffffffffff8111828210171561266557612665612613565b60405290565b60405160c0810167ffffffffffffffff8111828210171561266557612665612613565b6040516080810167ffffffffffffffff8111828210171561266557612665612613565b60405160e0810167ffffffffffffffff8111828210171561266557612665612613565b6040516060810167ffffffffffffffff8111828210171561266557612665612613565b60405160a0810167ffffffffffffffff8111828210171561266557612665612613565b604051601f8201601f1916810167ffffffffffffffff8111828210171561274357612743612613565b604052919050565b600067ffffffffffffffff82111561276557612765612613565b50601f01601f191660200190565b600082601f83011261278457600080fd5b81356127976127928261274b565b61271a565b8181528460208386010111156127ac57600080fd5b816020850160208301376000918101602001919091529392505050565b600080600080608085870312156127df57600080fd5b84356127ea816125ee565b935060208501356127fa816125ee565b925060408501359150606085013567ffffffffffffffff81111561281d57600080fd5b61282987828801612773565b91505092959194509250565b80151581146106c657600080fd5b60006040828403121561285557600080fd5b61285d612642565b9050813561286a81612835565b808252506020820135602082015292915050565b63ffffffff811681146106c657600080fd5b803561260e8161287e565b6000604082840312156128ad57600080fd5b6128b5612642565b9050813581526020820135602082015292915050565b6fffffffffffffffffffffffffffffffff811681146106c657600080fd5b803561260e816128cb565b803561ffff8116811461260e57600080fd5b600060c0828403121561291857600080fd5b61292061266b565b9050813567ffffffffffffffff8082111561293a57600080fd5b9083019060a0828603121561294e57600080fd5b61295661268e565b82358281111561296557600080fd5b830160e0818803121561297757600080fd5b61297f6126b1565b61298882612890565b81526020808301358183015260408301356040830152606080840135818401526080840135868111156129ba57600080fd5b6129c68b828701612773565b60808501525060a0840135868111156129de57600080fd5b6129ea8b828701612773565b60a08501525060c084013586811115612a0257600080fd5b612a0e8b828701612773565b60c085015250828552612a238a83890161289b565b8286015280870135935085841115612a3a57600080fd5b612a468a858901612773565b6040860152612a5760808801612603565b81860152848852612a69828a016128e9565b82890152612a7960408a016128e9565b6040890152612a89818a016128e9565b8189015250505050505050612aa0608083016128e9565b6080820152612ab160a083016128f4565b60a082015292915050565b600060208284031215612ace57600080fd5b813567ffffffffffffffff80821115612ae657600080fd5b908301906101008286031215612afb57600080fd5b612b036126b1565b612b0c83612603565b8152612b1a60208401612603565b6020820152612b2b60408401612603565b60408201526060830135606082015260808301356080820152612b518660a08501612843565b60a082015260e083013582811115612b6857600080fd5b612b7487828601612906565b60c08301525095945050505050565b600060208284031215612b9557600080fd5b8135612ba0816125ee565b9392505050565b600060208284031215612bb957600080fd5b8151612ba0816125ee565b600060608284031215612bd657600080fd5b612bde6126d4565b90508151612beb81612835565b81526020820151612bfb816125ee565b806020830152506040820151604082015292915050565b6000818303610180811215612c2657600080fd5b612c2e61266b565b8351612c39816125ee565b81526020840151612c49816125ee565b60208201526040840151612c5c816125ee565b60408201526060848101519082015260a07fffffffffffffffffffffffffffffffffffffffffffffffffffffffffffffff8083011215612c9b57600080fd5b612ca36126f7565b91506080840151612cb381612835565b825260a0840151612cc3816125ee565b602083015260c0840151612cd6816128cb565b604083015260e0840151612ce9816128cb565b806060840152506101008401516080830152816080820152612d0f856101208601612bc4565b60a0820152949350505050565b81516001600160a01b03908116825260208084015182168184015260408085015183168185015260608086015181860152608080870151805115158288015280850151861660a080890191909152818501516fffffffffffffffffffffffffffffffff90811660c08a01529382015190931660e088015201516101008601528501518051151561012086015291820151909216610140840152908101516101608301526101808201905b5092915050565b600060208284031215612ddf57600080fd5b8151612ba081612835565b600060208284031215612dfc57600080fd5b5051919050565b60008060008060808587031215612e1957600080fd5b845160058110612e2857600080fd5b6020860151909450612e39816125ee565b6040860151909350612e4a816125ee565b6060959095015193969295505050565b60008060408385031215612e6d57600080fd5b505080516020909101519092909150565b7f4e487b7100000000000000000000000000000000000000000000000000000000600052601160045260246000fd5b61ffff818116838216019080821115612dc657612dc6612e7e565b81810381811115611c5957611c59612e7e565b60005b83811015612ef6578181015183820152602001612ede565b50506000910152565b60008651612f11818460208b01612edb565b80830190507fffff000000000000000000000000000000000000000000000000000000000000808860f01b168252808760f01b166002830152808660f01b166004830152508351612f69816006840160208801612edb565b01600601979650505050505050565b60008251612f8a818460208701612edb565b9190910192915050565b80820180821115611c5957611c59612e7e565b6fffffffffffffffffffffffffffffffff818116838216019080821115612dc657612dc6612e7e565b60008151808452612fe8816020860160208601612edb565b601f01601f19169290920160200192915050565b60ff8151168252600060208201516fffffffffffffffffffffffffffffffff80821660208601528060408501511660408601525050606082015160c0606085015261304a60c0850182612fd0565b9050608083015184820360808601526130638282612fd0565b91505060a083015184820360a0860152610bd88282612fd0565b6001600160a01b03831681526040602082015263ffffffff82511660408201526020820151606082015260408201516080820152606082015160a082015261ffff60808301511660c0820152600060a08301516101008060e08501526130e7610140850183612ffc565b915060c085015161310b828601826fffffffffffffffffffffffffffffffff169052565b505060e08401516fffffffffffffffffffffffffffffffff8116610120850152611bea565b600082601f83011261314157600080fd5b815161314f6127928261274b565b81815284602083860101111561316457600080fd5b61039a826020830160208701612edb565b805161260e8161287e565b600060e0828403121561319257600080fd5b61319a6126b1565b90506131a582613175565b8152602082015160208201526040820151604082015260608201516060820152608082015167ffffffffffffffff808211156131e057600080fd5b6131ec85838601613130565b608084015260a084015191508082111561320557600080fd5b61321185838601613130565b60a084015260c084015191508082111561322a57600080fd5b5061323784828501613130565b60c08301525092915050565b60006040828403121561325557600080fd5b61325d612642565b9050815181526020820151602082015292915050565b600060a0828403121561328557600080fd5b61328d61268e565b9050815167ffffffffffffffff808211156132a757600080fd5b6132b385838601613180565b83526132c28560208601613243565b602084015260608401519150808211156132db57600080fd5b506132e884828501613130565b60408301525060808201516132fc816125ee565b606082015292915050565b60006020828403121561331957600080fd5b815167ffffffffffffffff8082111561333157600080fd5b9083019060e0828603121561334557600080fd5b61334d61266b565b82518281111561335c57600080fd5b61336887828601613130565b82525060208301518281111561337d57600080fd5b61338987828601613130565b6020830152506040830151828111156133a157600080fd5b6133ad87828601613180565b6040830152506133c08660608501613243565b606082015260a0830151828111156133d757600080fd5b6133e387828601613273565b60808301525060c0830151828111156133fb57600080fd5b61340787828601613130565b60a08301525095945050505050565b604081526000835160a0604084015263ffffffff81511660e0840152602081015161010084015260408101516101208401526060810151610140840152608081015160e061016085015261346e6101c0850182612fd0565b905060a08201517fffffffffffffffffffffffffffffffffffffffffffffffffffffffffffffff2080868403016101808701526134ab8383612fd0565b925060c0840151935080868403016101a087015250506134cb8183612fd0565b91505060208501516134ea606085018280518252602090810151910152565b5060408501517fffffffffffffffffffffffffffffffffffffffffffffffffffffffffffffffc08483030160a08501526135248282612fd0565b915050606085015161354160c08501826001600160a01b03169052565b508281036020840152610bd88185612fd0565b60008082840360c081121561356857600080fd5b608081121561357657600080fd5b5061357f6126d4565b83518152602084015167ffffffffffffffff8116811461359e57600080fd5b60208201526135b08560408601613243565b604082015291506135c48460808501613243565b90509250929050565b602081526000612ba06020830184612fd056fe608060405234801561001057600080fd5b506128ac806100206000396000f3fe608060405234801561001057600080fd5b50600436106100d45760003560e01c80639016932111610081578063e6fef25b1161005b578063e6fef25b146101cb578063f3238071146101de578063fa8182541461020a57600080fd5b8063901693211461017c578063a37137251461019d578063cce28f38146101b857600080fd5b80633d1afd7a116100b25780633d1afd7a146101285780634ed471271461013b578063885512751461015b57600080fd5b80631b2b6a6a146100d95780632cb1ddc6146101025780633158ce5e14610115575b600080fd5b6100ec6100e73660046114af565b61021d565b6040516100f99190611592565b60405180910390f35b6100ec610110366004611664565b61022e565b6100ec61012336600461170a565b610293565b6100ec610136366004611727565b61029e565b61014e6101493660046119a0565b6102a9565b6040516100f99190611b7c565b61016e610169366004611c28565b610754565b6040519081526020016100f9565b61018f61018a366004611c61565b610771565b6040516100f9929190611d2e565b6101a5600181565b60405161ffff90911681526020016100f9565b6100ec6101c6366004611d53565b61083f565b6100ec6101d9366004611dda565b610853565b6101f16101ec366004611f93565b61085e565b60405167ffffffffffffffff90911681526020016100f9565b6100ec610218366004611fb5565b61086a565b606061022882610875565b92915050565b805160609060005b8181101561028c5782610261858381518110610254576102546120bc565b6020026020010151610946565b6040516020016102729291906120eb565b60408051601f198184030181529190529250600101610236565b5050919050565b606061022882610946565b606061022882610a13565b6102b16111c3565b6102fa6040518060e00160405280600063ffffffff1681526020016000801916815260200160008152602001600081526020016060815260200160608152602001606081525090565b60608061031a604051806040016040528060008152602001600081525090565b610322611261565b60606040518060e00160405280896000015163ffffffff1681526020018960200151815260200189604001518152602001896060015181526020016040518060400160405280600281526020017f307800000000000000000000000000000000000000000000000000000000000081525081526020016040518060400160405280600281526020017f307800000000000000000000000000000000000000000000000000000000000081525081526020016040518060400160405280600281526020017f3078000000000000000000000000000000000000000000000000000000000000815250815250955060008860a00151606001515111156104bb57610482610464604080517e03000000000000000000000000000000000000000000000000000000000000602082015281516002818303018152602290910190915290565b60a08a01518051602082015160409092015160ff9091169190610a26565b94506104b6898960a00151606001518a608001518b60a001516000015160ff168a600001518a8e60a0015160800151610771565b955093505b60a080890151015151156105755760008860a0015160a001515111610567576040517f08c379a000000000000000000000000000000000000000000000000000000000815260206004820152602760248201527f5f707265706172654c7a43616c6c3a20696e76616c696420707265764f70746960448201527f6f6e73446174610000000000000000000000000000000000000000000000000060648201526084015b60405180910390fd5b5060a08088015101516105b2565b50604080517e0300000000000000000000000000000000000000000000000000000000000060208201528151600281830301815260229091019091525b60008860e001516fffffffffffffffffffffffffffffffff1611806105ed575060008860c001516fffffffffffffffffffffffffffffffff16115b1561060857610605818960c001518a60e00151610aa9565b90505b8451156106335760a08801518051602082015160409092015161063092849260ff1691610a26565b90505b6040517f2e45088500000000000000000000000000000000000000000000000000000000815273ffffffffffffffffffffffffffffffffffffffff8a1690632e4508859061068c90899085906000908a9060040161211a565b6040805180830381865afa1580156106a8573d6000803e3d6000fd5b505050506040513d601f19601f820116820180604052508101906106cc9190612178565b9250808660800181905250838660a0018190525060405180608001604052808781526020018481526020018281526020013373ffffffffffffffffffffffffffffffffffffffff1681525091506040518060c0016040528085815260200186815260200187815260200184815260200183815260200182815250965050505050505092915050565b600061076a8267ffffffffffffffff85166121d9565b9392505050565b60608061077d87610af1565b6107878684610bac565b61079388888886610c59565b6040517fbc70b35400000000000000000000000000000000000000000000000000000000815290925073ffffffffffffffffffffffffffffffffffffffff8a169063bc70b354906107ec9088908b9089906004016121f0565b600060405180830381865afa158015610809573d6000803e3d6000fd5b505050506040513d6000823e601f3d908101601f191682016040526108319190810190612219565b905097509795505050505050565b606061076a8361084e8461229d565b610c8e565b606061022882610cba565b600061076a828461240d565b606061022882610ccd565b8051602080830151604080850151606086810151608088015160a089015160c08a015160e08b015196517fffffffffffffffffffffffffffffffffffffffff0000000000000000000000009a861b8b169981019990995296841b8916603489015293831b9097166048870152605c8601527fff0000000000000000000000000000000000000000000000000000000000000060f896871b16607c860152607d850191909152609d840192909252151590921b60bd82015260be015b6040516020818303038152906040529050919050565b8051602080830151604080850151606086810151608088015160a089015160c08a015160e08b01516101008c015197517fffffffffffffffffffffffffffffffffffffffff0000000000000000000000009b871b8c169a81019a909a5297851b8a1660348a015294841b9098166048880152605c870191909152607c8601527fff0000000000000000000000000000000000000000000000000000000000000060f896871b16609c860152609d85019190915260bd840192909252151590921b60dd82015260de01610930565b6060816040516020016109309190612448565b6060846003610a36826000610ce0565b61ffff1614610a8357610a4a816000610ce0565b6040517f3a51740d00000000000000000000000000000000000000000000000000000000815261ffff909116600482015260240161055e565b6000610a90868686610d60565b9050610a9e87600383610e6c565b979650505050505050565b6060836003610ab9826000610ce0565b61ffff1614610acd57610a4a816000610ce0565b6000610ad98585610ed7565b9050610ae786600183610e6c565b9695505050505050565b61ffff811660011480610b09575061ffff81166101f4145b80610b19575061ffff81166101f5145b80610b29575061ffff81166101f6145b80610b39575061ffff81166102bc145b80610b49575061ffff81166101f7145b80610b59575061ffff81166101f8145b80610b69575061ffff81166101f9145b15610b715750565b6040517fa7ac386300000000000000000000000000000000000000000000000000000000815261ffff8216600482015260240161055e565b50565b8051158015610bbd575061ffff8216155b15610bc6575050565b8060005b815115610bec57610bda82610f77565b9050610be582610f90565b9150610bca565b6000610bf98260016124e6565b845190915015610c19578061ffff168561ffff1603610c19575050505050565b6040517f5a958af900000000000000000000000000000000000000000000000000000000815261ffff80871660048301528216602482015260440161055e565b6060818486518588604051602001610c75959493929190612508565b6040516020818303038152906040529050949350505050565b60608282604051602001610ca3929190612581565b604051602081830303815290604052905092915050565b60608160405160200161093091906126c0565b6060816040516020016109309190612719565b6000610ced8260026127b7565b83511015610d57576040517f08c379a000000000000000000000000000000000000000000000000000000000815260206004820152601460248201527f746f55696e7431365f6f75744f66426f756e6473000000000000000000000000604482015260640161055e565b50016002015190565b60606fffffffffffffffffffffffffffffffff821615610df6576040517fffff00000000000000000000000000000000000000000000000000000000000060f086901b1660208201527fffffffffffffffffffffffffffffffff00000000000000000000000000000000608085811b8216602284015284901b166032820152604201604051602081830303815290604052610e64565b6040517fffff00000000000000000000000000000000000000000000000000000000000060f086901b1660208201527fffffffffffffffffffffffffffffffff00000000000000000000000000000000608085901b1660228201526032016040516020818303038152906040525b949350505050565b6060836003610e7c826000610ce0565b61ffff1614610e9057610a4a816000610ce0565b846001610e9d8551610fcf565b610ea89060016124e6565b8686604051602001610ebe9594939291906127ca565b6040516020818303038152906040529150509392505050565b60606fffffffffffffffffffffffffffffffff821615610f4057604080517fffffffffffffffffffffffffffffffff00000000000000000000000000000000608086811b8216602084015285901b1660308201520160405160208183030381529060405261076a565b6040517fffffffffffffffffffffffffffffffff00000000000000000000000000000000608085901b166020820152603001610ca3565b6000610228610f898360046002611067565b6000610ce0565b60606000610fa3610f8984600280611067565b90506000610fb28260066124e6565b61ffff169050610e648482838751610fca9190612863565b611067565b600061ffff821115611063576040517f08c379a000000000000000000000000000000000000000000000000000000000815260206004820152602660248201527f53616665436173743a2076616c756520646f65736e27742066697420696e203160448201527f3620626974730000000000000000000000000000000000000000000000000000606482015260840161055e565b5090565b60608161107581601f6127b7565b10156110dd576040517f08c379a000000000000000000000000000000000000000000000000000000000815260206004820152600e60248201527f736c6963655f6f766572666c6f77000000000000000000000000000000000000604482015260640161055e565b6110e782846127b7565b84511015611151576040517f08c379a000000000000000000000000000000000000000000000000000000000815260206004820152601160248201527f736c6963655f6f75744f66426f756e6473000000000000000000000000000000604482015260640161055e565b60608215801561117057604051915060008252602082016040526111ba565b6040519150601f8416801560200281840101858101878315602002848b0101015b818310156111a9578051835260209283019201611191565b5050858452601f01601f1916604052505b50949350505050565b6040518060c0016040528060608152602001606081526020016112256040518060e00160405280600063ffffffff1681526020016000801916815260200160008152602001600081526020016060815260200160608152602001606081525090565b8152602001611247604051806040016040528060008152602001600081525090565b8152602001611254611261565b8152602001606081525090565b60408051610160810190915260006080820181815260a0830182905260c0830182905260e0830191909152606061010083018190526101208301819052610140830152819081526020016112c8604051806040016040528060008152602001600081525090565b815260606020820152600060409091015290565b7f4e487b7100000000000000000000000000000000000000000000000000000000600052604160045260246000fd5b604051610100810167ffffffffffffffff8111828210171561132f5761132f6112dc565b60405290565b604051610120810167ffffffffffffffff8111828210171561132f5761132f6112dc565b60405160e0810167ffffffffffffffff8111828210171561132f5761132f6112dc565b60405160c0810167ffffffffffffffff8111828210171561132f5761132f6112dc565b6040805190810167ffffffffffffffff8111828210171561132f5761132f6112dc565b6040516060810167ffffffffffffffff8111828210171561132f5761132f6112dc565b6040516080810167ffffffffffffffff8111828210171561132f5761132f6112dc565b60405160a0810167ffffffffffffffff8111828210171561132f5761132f6112dc565b604051601f8201601f1916810167ffffffffffffffff81118282101715611454576114546112dc565b604052919050565b73ffffffffffffffffffffffffffffffffffffffff81168114610ba957600080fd5b80356114898161145c565b919050565b803560ff8116811461148957600080fd5b8035801515811461148957600080fd5b600061010082840312156114c257600080fd5b6114ca61130b565b82356114d58161145c565b815260208301356114e58161145c565b60208201526114f66040840161147e565b6040820152606083013560608201526115116080840161148e565b608082015260a083013560a082015260c083013560c082015261153660e0840161149f565b60e08201529392505050565b60005b8381101561155d578181015183820152602001611545565b50506000910152565b6000815180845261157e816020860160208601611542565b601f01601f19169290920160200192915050565b60208152600061076a6020830184611566565b600067ffffffffffffffff8211156115bf576115bf6112dc565b5060051b60200190565b600061012082840312156115dc57600080fd5b6115e4611335565b90506115ef8261147e565b81526115fd6020830161147e565b602082015261160e6040830161147e565b6040820152606082013560608201526080820135608082015261163360a0830161148e565b60a082015260c082013560c082015260e082013560e082015261010061165a81840161149f565b9082015292915050565b6000602080838503121561167757600080fd5b823567ffffffffffffffff81111561168e57600080fd5b8301601f8101851361169f57600080fd5b80356116b26116ad826115a5565b61142b565b8082825260208201915061012060208185028601019350888411156116d657600080fd5b6020850194505b838510156116fe576116ef89866115c9565b835293840193918501916116dd565b50979650505050505050565b6000610120828403121561171d57600080fd5b61076a83836115c9565b6000602080838503121561173a57600080fd5b823567ffffffffffffffff81111561175157600080fd5b8301601f8101851361176257600080fd5b80356117706116ad826115a5565b81815260e0918202830184019184820191908884111561178f57600080fd5b938501935b838510156116fe5780858a0312156117ac5760008081fd5b6117b4611359565b85356117bf8161145c565b8152858701356117ce8161145c565b81880152604086810135908201526060808701359082015260806117f381880161148e565b9082015260a0868101359082015260c0808701359082015283529384019391850191611794565b803563ffffffff8116811461148957600080fd5b803561ffff8116811461148957600080fd5b80356fffffffffffffffffffffffffffffffff8116811461148957600080fd5b600067ffffffffffffffff82111561187a5761187a6112dc565b50601f01601f191660200190565b600082601f83011261189957600080fd5b81356118a76116ad82611860565b8181528460208386010111156118bc57600080fd5b816020850160208301376000918101602001919091529392505050565b600060c082840312156118eb57600080fd5b6118f361137c565b90506118fe8261148e565b815261190c60208301611840565b602082015261191d60408301611840565b6040820152606082013567ffffffffffffffff8082111561193d57600080fd5b61194985838601611888565b6060840152608084013591508082111561196257600080fd5b61196e85838601611888565b608084015260a084013591508082111561198757600080fd5b5061199484828501611888565b60a08301525092915050565b600080604083850312156119b357600080fd5b82356119be8161145c565b9150602083013567ffffffffffffffff808211156119db57600080fd5b9084019061010082870312156119f057600080fd5b6119f861130b565b611a018361181a565b8152602083013560208201526040830135604082015260608301356060820152611a2d6080840161182e565b608082015260a083013582811115611a4457600080fd5b611a50888286016118d9565b60a083015250611a6260c08401611840565b60c0820152611a7360e08401611840565b60e08201528093505050509250929050565b63ffffffff81511682526020810151602083015260408101516040830152606081015160608301526000608082015160e06080850152611ac860e0850182611566565b905060a083015184820360a0860152611ae18282611566565b91505060c083015184820360c0860152611afb8282611566565b95945050505050565b6000815160a08452611b1960a0850182611a85565b90506020830151611b37602086018280518252602090810151910152565b5060408301518482036060860152611b4f8282611566565b91505073ffffffffffffffffffffffffffffffffffffffff60608401511660808501528091505092915050565b602081526000825160e06020840152611b99610100840182611566565b90506020840151601f1980858403016040860152611bb78383611566565b92506040860151915080858403016060860152611bd48383611a85565b606087015180516080880152602081015160a0880152909350915060808601519150808584030160c0860152611c0a8383611b04565b925060a08601519150808584030160e086015250611afb8282611566565b60008060408385031215611c3b57600080fd5b823567ffffffffffffffff81168114611c5357600080fd5b946020939093013593505050565b600080600080600080600060e0888a031215611c7c57600080fd5b8735611c878161145c565b9650602088013567ffffffffffffffff80821115611ca457600080fd5b611cb08b838c01611888565b9750611cbe60408b0161182e565b9650611ccc60608b0161182e565b9550611cda60808b0161181a565b945060a08a0135915080821115611cf057600080fd5b611cfc8b838c01611888565b935060c08a0135915080821115611d1257600080fd5b50611d1f8a828b01611888565b91505092959891949750929550565b604081526000611d416040830185611566565b8281036020840152611afb8185611566565b60008060408385031215611d6657600080fd5b8235611d718161145c565b9150602083013567ffffffffffffffff811115611d8d57600080fd5b830160a08186031215611d9f57600080fd5b809150509250929050565b600060408284031215611dbc57600080fd5b611dc461139f565b9050813581526020820135602082015292915050565b60006020808385031215611ded57600080fd5b823567ffffffffffffffff80821115611e0557600080fd5b9084019060608287031215611e1957600080fd5b611e216113c2565b8235611e2c8161145c565b81528284013582811115611e3f57600080fd5b830160a08189031215611e5157600080fd5b611e596113e5565b813584811115611e6857600080fd5b820160e0818b031215611e7a57600080fd5b611e82611359565b611e8b8261181a565b815287820135888201526040820135604082015260608201356060820152608082013586811115611ebb57600080fd5b611ec78c828501611888565b60808301525060a082013586811115611edf57600080fd5b611eeb8c828501611888565b60a08301525060c082013586811115611f0357600080fd5b611f0f8c828501611888565b60c083015250825250611f2489838801611daa565b86820152606082013584811115611f3a57600080fd5b611f468a828501611888565b604083015250611f586080830161147e565b6060820152808684015250506040830135935081841115611f7857600080fd5b611f8487858501611888565b60408201529695505050505050565b60008060408385031215611fa657600080fd5b50508035926020909101359150565b60006020808385031215611fc857600080fd5b823567ffffffffffffffff811115611fdf57600080fd5b8301601f81018513611ff057600080fd5b8035611ffe6116ad826115a5565b81815260089190911b8201830190838101908783111561201d57600080fd5b928401925b82841015610a9e57610100848903121561203c5760008081fd5b61204461130b565b843561204f8161145c565b815261205c85870161147e565b86820152604061206d81870161147e565b90820152606085810135908201526080808601359082015260a061209281870161148e565b9082015260c0858101359082015260e0808601359082015282526101009093019290840190612022565b7f4e487b7100000000000000000000000000000000000000000000000000000000600052603260045260246000fd5b600083516120fd818460208801611542565b835190830190612111818360208801611542565b01949350505050565b60a08152600061212d60a0830187611a85565b828103602084015261213f8187611566565b90508415156040840152828103606084015261215b8185611566565b838103608090940193909352505060008152602001949350505050565b60006040828403121561218a57600080fd5b61219261139f565b82518152602083015160208201528091505092915050565b7f4e487b7100000000000000000000000000000000000000000000000000000000600052601160045260246000fd5b8082028115828204841417610228576102286121aa565b63ffffffff8416815261ffff83166020820152606060408201526000611afb6060830184611566565b60006020828403121561222b57600080fd5b815167ffffffffffffffff81111561224257600080fd5b8201601f8101841361225357600080fd5b80516122616116ad82611860565b81815285602083850101111561227657600080fd5b611afb826020830160208601611542565b803565ffffffffffff8116811461148957600080fd5b600060a08083360312156122b057600080fd5b6122b8611408565b833567ffffffffffffffff808211156122d057600080fd5b9085019036601f8301126122e357600080fd5b813560206122f36116ad836115a5565b82815260a09092028401810191818101903684111561231157600080fd5b948201945b838610156123b05787863603121561232e5760008081fd5b612336611408565b61233f8761148e565b81528387013561234e8161145c565b818501526040878101359082015260608088013578ffffffffffffffffffffffffffffffffffffffffffffffffff8116811461238a5760008081fd5b9082015260808781013561239d8161145c565b9082015282529487019490820190612316565b8652506123be88820161147e565b818601525050604086013560408401526123da60608701612287565b606084015260808601359350808411156123f357600080fd5b505061240136838601611888565b60808201529392505050565b600082612443577f4e487b7100000000000000000000000000000000000000000000000000000000600052601260045260246000fd5b500490565b602080825282518282018190526000919060409081850190868401855b828110156124d9578151805173ffffffffffffffffffffffffffffffffffffffff908116865287820151168786015285810151868601526060808201519086015260808082015160ff169086015260a0808201519086015260c0908101519085015260e09093019290850190600101612465565b5091979650505050505050565b61ffff818116838216019080821115612501576125016121aa565b5092915050565b6000865161251a818460208b01611542565b80830190507fffff000000000000000000000000000000000000000000000000000000000000808860f01b168252808760f01b166002830152808660f01b166004830152508351612572816006840160208801611542565b01600601979650505050505050565b6000604073ffffffffffffffffffffffffffffffffffffffff8086168452602060408186015260e08501865160a08060408901528282518085526101008a0191508584019450600093505b80841015612634578451805160ff16835286810151881687840152888101518984015260608082015178ffffffffffffffffffffffffffffffffffffffffffffffffff16908401526080908101518816908301529385019360019390930192908201906125cc565b508985015173ffffffffffffffffffffffffffffffffffffffff811660608b0152965060408a015160808a015260608a015165ffffffffffff811660a08b0152965060808a015196507fffffffffffffffffffffffffffffffffffffffffffffffffffffffffffffffc08982030160c08a01526126b18188611566565b9b9a5050505050505050505050565b6020815273ffffffffffffffffffffffffffffffffffffffff825116602082015260006020830151606060408401526126fc6080840182611b04565b90506040840151601f19848303016060850152611afb8282611566565b602080825282518282018190526000919060409081850190868401855b828110156124d9578151805173ffffffffffffffffffffffffffffffffffffffff908116865287820151811688870152868201511686860152606080820151908601526080808201519086015260a08082015160ff169086015260c0808201519086015260e090810151908501526101009093019290850190600101612736565b80820180821115610228576102286121aa565b600086516127dc818460208b01611542565b80830190507fff00000000000000000000000000000000000000000000000000000000000000808860f81b1682527fffff0000000000000000000000000000000000000000000000000000000000008760f01b166001830152808660f81b166003830152508351612854816004840160208801611542565b01600401979650505050505050565b81810381811115610228576102286121aa56fea2646970667358221220d089c3497fed4b37e0cf935eb298871d753d9283501bfbff64b0523cc8096d6e64736f6c63430008160033a26469706673582212206540705f39c4de36ea33f6a20252348f892fe15844297aad642130594fa5e33a64736f6c63430008160033",
  "linkReferences": {},
  "deployedLinkReferences": {}
}