{
  "_format": "hh-sol-artifact-1",
  "contractName": "OracleChainlinkMulti",
  "sourceName": "contracts/oracle/OracleChainlinkMulti.sol",
  "abi": [
    {
      "inputs": [
        {
          "components": [
            {
              "internalType": "address[]",
              "name": "_circuitChainlink",
              "type": "address[]"
            },
            {
              "internalType": "uint8[]",
              "name": "_circuitChainIsMultiplied",
              "type": "uint8[]"
            },
            {
              "internalType": "uint256",
              "name": "_inBase",
              "type": "uint256"
            },
            {
              "internalType": "address[]",
              "name": "guardians",
              "type": "address[]"
            },
            {
              "internalType": "bytes32",
              "name": "_description",
              "type": "bytes32"
            },
            {
              "internalType": "address",
              "name": "_sequencerUptimeFeed",
              "type": "address"
            },
            {
              "internalType": "address",
              "name": "_admin",
              "type": "address"
            }
          ],
          "internalType": "struct OracleChainlinkMultiConstructorData",
          "name": "_data",
          "type": "tuple"
        }
      ],
      "stateMutability": "nonpayable",
      "type": "constructor"
    },
    {
      "inputs": [],
      "name": "AccessControlBadConfirmation",
      "type": "error"
    },
    {
      "inputs": [
        {
          "internalType": "uint48",
          "name": "schedule",
          "type": "uint48"
        }
      ],
      "name": "AccessControlEnforcedDefaultAdminDelay",
      "type": "error"
    },
    {
      "inputs": [],
      "name": "AccessControlEnforcedDefaultAdminRules",
      "type": "error"
    },
    {
      "inputs": [
        {
          "internalType": "address",
          "name": "defaultAdmin",
          "type": "address"
        }
      ],
      "name": "AccessControlInvalidDefaultAdmin",
      "type": "error"
    },
    {
      "inputs": [
        {
          "internalType": "address",
          "name": "account",
          "type": "address"
        },
        {
          "internalType": "bytes32",
          "name": "neededRole",
          "type": "bytes32"
        }
      ],
      "name": "AccessControlUnauthorizedAccount",
      "type": "error"
    },
    {
      "inputs": [],
      "name": "GracePeriodNotOver",
      "type": "error"
    },
    {
      "inputs": [],
      "name": "InvalidChainlinkRate",
      "type": "error"
    },
    {
      "inputs": [],
      "name": "SequencerDown",
      "type": "error"
    },
    {
      "inputs": [],
      "name": "StalePeriodNotValid",
      "type": "error"
    },
    {
      "anonymous": false,
      "inputs": [],
      "name": "DefaultAdminDelayChangeCanceled",
      "type": "event"
    },
    {
      "anonymous": false,
      "inputs": [
        {
          "indexed": false,
          "internalType": "uint48",
          "name": "newDelay",
          "type": "uint48"
        },
        {
          "indexed": false,
          "internalType": "uint48",
          "name": "effectSchedule",
          "type": "uint48"
        }
      ],
      "name": "DefaultAdminDelayChangeScheduled",
      "type": "event"
    },
    {
      "anonymous": false,
      "inputs": [],
      "name": "DefaultAdminTransferCanceled",
      "type": "event"
    },
    {
      "anonymous": false,
      "inputs": [
        {
          "indexed": true,
          "internalType": "address",
          "name": "newAdmin",
          "type": "address"
        },
        {
          "indexed": false,
          "internalType": "uint48",
          "name": "acceptSchedule",
          "type": "uint48"
        }
      ],
      "name": "DefaultAdminTransferScheduled",
      "type": "event"
    },
    {
      "anonymous": false,
      "inputs": [
        {
          "indexed": true,
          "internalType": "bytes32",
          "name": "role",
          "type": "bytes32"
        },
        {
          "indexed": true,
          "internalType": "bytes32",
          "name": "previousAdminRole",
          "type": "bytes32"
        },
        {
          "indexed": true,
          "internalType": "bytes32",
          "name": "newAdminRole",
          "type": "bytes32"
        }
      ],
      "name": "RoleAdminChanged",
      "type": "event"
    },
    {
      "anonymous": false,
      "inputs": [
        {
          "indexed": true,
          "internalType": "bytes32",
          "name": "role",
          "type": "bytes32"
        },
        {
          "indexed": true,
          "internalType": "address",
          "name": "account",
          "type": "address"
        },
        {
          "indexed": true,
          "internalType": "address",
          "name": "sender",
          "type": "address"
        }
      ],
      "name": "RoleGranted",
      "type": "event"
    },
    {
      "anonymous": false,
      "inputs": [
        {
          "indexed": true,
          "internalType": "bytes32",
          "name": "role",
          "type": "bytes32"
        },
        {
          "indexed": true,
          "internalType": "address",
          "name": "account",
          "type": "address"
        },
        {
          "indexed": true,
          "internalType": "address",
          "name": "sender",
          "type": "address"
        }
      ],
      "name": "RoleRevoked",
      "type": "event"
    },
    {
      "anonymous": false,
      "inputs": [
        {
          "indexed": true,
          "internalType": "contract AggregatorV3Interface",
          "name": "feed",
          "type": "address"
        },
        {
          "indexed": true,
          "internalType": "uint32",
          "name": "val",
          "type": "uint32"
        }
      ],
      "name": "StalePeriodUpdated",
      "type": "event"
    },
    {
      "inputs": [],
      "name": "BASE",
      "outputs": [
        {
          "internalType": "uint256",
          "name": "",
          "type": "uint256"
        }
      ],
      "stateMutability": "view",
      "type": "function"
    },
    {
      "inputs": [],
      "name": "DEFAULT_ADMIN_ROLE",
      "outputs": [
        {
          "internalType": "bytes32",
          "name": "",
          "type": "bytes32"
        }
      ],
      "stateMutability": "view",
      "type": "function"
    },
    {
      "inputs": [],
      "name": "DEFAULT_STALE_PERIOD",
      "outputs": [
        {
          "internalType": "uint32",
          "name": "",
          "type": "uint32"
        }
      ],
      "stateMutability": "view",
      "type": "function"
    },
    {
      "inputs": [],
      "name": "GRACE_PERIOD_TIME",
      "outputs": [
        {
          "internalType": "uint32",
          "name": "",
          "type": "uint32"
        }
      ],
      "stateMutability": "view",
      "type": "function"
    },
    {
      "inputs": [],
      "name": "GUARDIAN_ROLE_CHAINLINK",
      "outputs": [
        {
          "internalType": "bytes32",
          "name": "",
          "type": "bytes32"
        }
      ],
      "stateMutability": "view",
      "type": "function"
    },
    {
      "inputs": [],
      "name": "SEQUENCER_ROLE",
      "outputs": [
        {
          "internalType": "bytes32",
          "name": "",
          "type": "bytes32"
        }
      ],
      "stateMutability": "view",
      "type": "function"
    },
    {
      "inputs": [],
      "name": "SEQUENCER_UPTIME_FEED",
      "outputs": [
        {
          "internalType": "contract AggregatorV3Interface",
          "name": "",
          "type": "address"
        }
      ],
      "stateMutability": "view",
      "type": "function"
    },
    {
      "inputs": [],
      "name": "acceptDefaultAdminTransfer",
      "outputs": [],
      "stateMutability": "nonpayable",
      "type": "function"
    },
    {
      "inputs": [
        {
          "internalType": "address",
          "name": "newAdmin",
          "type": "address"
        }
      ],
      "name": "beginDefaultAdminTransfer",
      "outputs": [],
      "stateMutability": "nonpayable",
      "type": "function"
    },
    {
      "inputs": [],
      "name": "cancelDefaultAdminTransfer",
      "outputs": [],
      "stateMutability": "nonpayable",
      "type": "function"
    },
    {
      "inputs": [
        {
          "internalType": "uint256",
          "name": "",
          "type": "uint256"
        }
      ],
      "name": "chainlinkDecimals",
      "outputs": [
        {
          "internalType": "uint8",
          "name": "",
          "type": "uint8"
        }
      ],
      "stateMutability": "view",
      "type": "function"
    },
    {
      "inputs": [
        {
          "internalType": "uint48",
          "name": "newDelay",
          "type": "uint48"
        }
      ],
      "name": "changeDefaultAdminDelay",
      "outputs": [],
      "stateMutability": "nonpayable",
      "type": "function"
    },
    {
      "inputs": [
        {
          "internalType": "uint32",
          "name": "_stalePeriod",
          "type": "uint32"
        }
      ],
      "name": "changeDefaultStalePeriod",
      "outputs": [],
      "stateMutability": "nonpayable",
      "type": "function"
    },
    {
      "inputs": [
        {
          "internalType": "uint32",
          "name": "_gracePeriod",
          "type": "uint32"
        }
      ],
      "name": "changeGracePeriod",
      "outputs": [],
      "stateMutability": "nonpayable",
      "type": "function"
    },
    {
      "inputs": [
        {
          "internalType": "uint256",
          "name": "",
          "type": "uint256"
        }
      ],
      "name": "circuitChainIsMultiplied",
      "outputs": [
        {
          "internalType": "uint8",
          "name": "",
          "type": "uint8"
        }
      ],
      "stateMutability": "view",
      "type": "function"
    },
    {
      "inputs": [
        {
          "internalType": "uint256",
          "name": "",
          "type": "uint256"
        }
      ],
      "name": "circuitChainlink",
      "outputs": [
        {
          "internalType": "contract AggregatorV3Interface",
          "name": "",
          "type": "address"
        }
      ],
      "stateMutability": "view",
      "type": "function"
    },
    {
      "inputs": [],
      "name": "defaultAdmin",
      "outputs": [
        {
          "internalType": "address",
          "name": "",
          "type": "address"
        }
      ],
      "stateMutability": "view",
      "type": "function"
    },
    {
      "inputs": [],
      "name": "defaultAdminDelay",
      "outputs": [
        {
          "internalType": "uint48",
          "name": "",
          "type": "uint48"
        }
      ],
      "stateMutability": "view",
      "type": "function"
    },
    {
      "inputs": [],
      "name": "defaultAdminDelayIncreaseWait",
      "outputs": [
        {
          "internalType": "uint48",
          "name": "",
          "type": "uint48"
        }
      ],
      "stateMutability": "view",
      "type": "function"
    },
    {
      "inputs": [],
      "name": "description",
      "outputs": [
        {
          "internalType": "bytes32",
          "name": "",
          "type": "bytes32"
        }
      ],
      "stateMutability": "view",
      "type": "function"
    },
    {
      "inputs": [
        {
          "internalType": "bytes32",
          "name": "role",
          "type": "bytes32"
        }
      ],
      "name": "getRoleAdmin",
      "outputs": [
        {
          "internalType": "bytes32",
          "name": "",
          "type": "bytes32"
        }
      ],
      "stateMutability": "view",
      "type": "function"
    },
    {
      "inputs": [
        {
          "internalType": "bytes32",
          "name": "role",
          "type": "bytes32"
        },
        {
          "internalType": "address",
          "name": "account",
          "type": "address"
        }
      ],
      "name": "grantRole",
      "outputs": [],
      "stateMutability": "nonpayable",
      "type": "function"
    },
    {
      "inputs": [
        {
          "internalType": "bytes32",
          "name": "role",
          "type": "bytes32"
        },
        {
          "internalType": "address",
          "name": "account",
          "type": "address"
        }
      ],
      "name": "hasRole",
      "outputs": [
        {
          "internalType": "bool",
          "name": "",
          "type": "bool"
        }
      ],
      "stateMutability": "view",
      "type": "function"
    },
    {
      "inputs": [],
      "name": "inBase",
      "outputs": [
        {
          "internalType": "uint256",
          "name": "",
          "type": "uint256"
        }
      ],
      "stateMutability": "view",
      "type": "function"
    },
    {
      "inputs": [],
      "name": "owner",
      "outputs": [
        {
          "internalType": "address",
          "name": "",
          "type": "address"
        }
      ],
      "stateMutability": "view",
      "type": "function"
    },
    {
      "inputs": [],
      "name": "pendingDefaultAdmin",
      "outputs": [
        {
          "internalType": "address",
          "name": "newAdmin",
          "type": "address"
        },
        {
          "internalType": "uint48",
          "name": "schedule",
          "type": "uint48"
        }
      ],
      "stateMutability": "view",
      "type": "function"
    },
    {
      "inputs": [],
      "name": "pendingDefaultAdminDelay",
      "outputs": [
        {
          "internalType": "uint48",
          "name": "newDelay",
          "type": "uint48"
        },
        {
          "internalType": "uint48",
          "name": "schedule",
          "type": "uint48"
        }
      ],
      "stateMutability": "view",
      "type": "function"
    },
    {
      "inputs": [],
      "name": "read",
      "outputs": [
        {
          "internalType": "uint256",
          "name": "rate",
          "type": "uint256"
        }
      ],
      "stateMutability": "view",
      "type": "function"
    },
    {
      "inputs": [],
      "name": "readAll",
      "outputs": [
        {
          "internalType": "uint256",
          "name": "",
          "type": "uint256"
        },
        {
          "internalType": "uint256",
          "name": "",
          "type": "uint256"
        }
      ],
      "stateMutability": "view",
      "type": "function"
    },
    {
      "inputs": [],
      "name": "readLower",
      "outputs": [
        {
          "internalType": "uint256",
          "name": "rate",
          "type": "uint256"
        }
      ],
      "stateMutability": "view",
      "type": "function"
    },
    {
      "inputs": [
        {
          "internalType": "uint256",
          "name": "quoteAmount",
          "type": "uint256"
        }
      ],
      "name": "readQuote",
      "outputs": [
        {
          "internalType": "uint256",
          "name": "",
          "type": "uint256"
        }
      ],
      "stateMutability": "view",
      "type": "function"
    },
    {
      "inputs": [
        {
          "internalType": "uint256",
          "name": "quoteAmount",
          "type": "uint256"
        }
      ],
      "name": "readQuoteLower",
      "outputs": [
        {
          "internalType": "uint256",
          "name": "",
          "type": "uint256"
        }
      ],
      "stateMutability": "view",
      "type": "function"
    },
    {
      "inputs": [],
      "name": "readUpper",
      "outputs": [
        {
          "internalType": "uint256",
          "name": "rate",
          "type": "uint256"
        }
      ],
      "stateMutability": "view",
      "type": "function"
    },
    {
      "inputs": [
        {
          "internalType": "bytes32",
          "name": "role",
          "type": "bytes32"
        },
        {
          "internalType": "address",
          "name": "account",
          "type": "address"
        }
      ],
      "name": "renounceRole",
      "outputs": [],
      "stateMutability": "nonpayable",
      "type": "function"
    },
    {
      "inputs": [
        {
          "internalType": "bytes32",
          "name": "role",
          "type": "bytes32"
        },
        {
          "internalType": "address",
          "name": "account",
          "type": "address"
        }
      ],
      "name": "revokeRole",
      "outputs": [],
      "stateMutability": "nonpayable",
      "type": "function"
    },
    {
      "inputs": [],
      "name": "rollbackDefaultAdminDelay",
      "outputs": [],
      "stateMutability": "nonpayable",
      "type": "function"
    },
    {
      "inputs": [
        {
          "internalType": "contract AggregatorV3Interface",
          "name": "",
          "type": "address"
        }
      ],
      "name": "stalePeriods",
      "outputs": [
        {
          "internalType": "uint32",
          "name": "",
          "type": "uint32"
        }
      ],
      "stateMutability": "view",
      "type": "function"
    },
    {
      "inputs": [
        {
          "internalType": "bytes4",
          "name": "interfaceId",
          "type": "bytes4"
        }
      ],
      "name": "supportsInterface",
      "outputs": [
        {
          "internalType": "bool",
          "name": "",
          "type": "bool"
        }
      ],
      "stateMutability": "view",
      "type": "function"
    },
    {
      "inputs": [
        {
          "internalType": "contract AggregatorV3Interface",
          "name": "_feed",
          "type": "address"
        },
        {
          "internalType": "uint32",
          "name": "_stalePeriod",
          "type": "uint32"
        }
      ],
      "name": "updateStalePeriod",
      "outputs": [],
      "stateMutability": "nonpayable",
      "type": "function"
    }
  ],
  "bytecode": "0x60a06040526006805463ffffffff199081166201518017909155600a8054909116610e101790553480156200003357600080fd5b5060405162002840380380620028408339810160408190526200005691620007d8565b60a081015181516020830151606084015160c08501516203f480906001600160a01b038116620000a157604051636116401160e11b8152600060048201526024015b60405180910390fd5b600380546001600160d01b0316600160d01b65ffffffffffff851602179055620000cd600082620003ba565b50508351905080620001085760405162461bcd60e51b815260206004820152600360248201526218981b60e91b604482015260640162000098565b82518114620001405760405162461bcd60e51b81526020600482015260036024820152620c4c0d60ea1b604482015260640162000098565b6000825111620001795760405162461bcd60e51b815260206004820152600360248201526231303160e81b604482015260640162000098565b60005b8251811015620002315760006001600160a01b0316838281518110620001a657620001a6620008d4565b60200260200101516001600160a01b031603620001ea5760405162461bcd60e51b81526020600482015260016024820152600360fc1b604482015260640162000098565b6200022760008051602062002820833981519152848381518110620002135762000213620008d4565b6020026020010151620003ba60201b60201c565b506001016200017c565b506200024d600080516020620028208339815191528062000430565b60005b8181101562000378576000858281518110620002705762000270620008d4565b602090810291909101810151600780546001810182556000919091527fa66cc928b5edb82af9bd49922954155ab7b0942694bea4ce44661d9a8736c6880180546001600160a01b0319166001600160a01b0383169081179091556040805163313ce56760e01b81529051929450600993919263313ce567926004808401939192918290030181865afa1580156200030b573d6000803e3d6000fd5b505050506040513d601f19601f82011682018060405250810190620003319190620008ea565b8154600181810184556000938452602093849020938204909301805460ff938416601f9093166101000a928302939092021990911691909117905591909101905062000250565b5082516200038e9060089060208601906200055c565b5050506001600160a01b0390921660809081526040840151600055929092015160015550620009089050565b6000826200041b576000620003d76004546001600160a01b031690565b6001600160a01b031614620003ff57604051631fe1e13d60e11b815260040160405180910390fd5b600480546001600160a01b0319166001600160a01b0384161790555b6200042783836200045f565b90505b92915050565b816200044f57604051631fe1e13d60e11b815260040160405180910390fd5b6200045b828262000511565b5050565b60008281526002602090815260408083206001600160a01b038516845290915281205460ff16620005085760008381526002602090815260408083206001600160a01b03861684529091529020805460ff19166001179055620004bf3390565b6001600160a01b0316826001600160a01b0316847f2f8788117e7eff1d82e926ec794901d17c78024a50270940304540a733656f0d60405160405180910390a45060016200042a565b5060006200042a565b600082815260026020526040808220600101805490849055905190918391839186917fbd79b86ffe0ab8e8776151514217cd7cacd52c909f66475c3af44e129f0b00ff9190a4505050565b82805482825590600052602060002090601f01602090048101928215620005f75791602002820160005b83821115620005c657835183826101000a81548160ff021916908360ff160217905550926020019260010160208160000104928301926001030262000586565b8015620005f55782816101000a81549060ff0219169055600101602081600001049283019260010302620005c6565b505b506200060592915062000609565b5090565b5b808211156200060557600081556001016200060a565b634e487b7160e01b600052604160045260246000fd5b60405160e081016001600160401b03811182821017156200065b576200065b62000620565b60405290565b604051601f8201601f191681016001600160401b03811182821017156200068c576200068c62000620565b604052919050565b60006001600160401b03821115620006b057620006b062000620565b5060051b60200190565b80516001600160a01b0381168114620006d257600080fd5b919050565b600082601f830112620006e957600080fd5b8151602062000702620006fc8362000694565b62000661565b8083825260208201915060208460051b8701019350868411156200072557600080fd5b602086015b848110156200074c576200073e81620006ba565b83529183019183016200072a565b509695505050505050565b805160ff81168114620006d257600080fd5b600082601f8301126200077b57600080fd5b815160206200078e620006fc8362000694565b8083825260208201915060208460051b870101935086841115620007b157600080fd5b602086015b848110156200074c57620007ca8162000757565b8352918301918301620007b6565b600060208284031215620007eb57600080fd5b81516001600160401b03808211156200080357600080fd5b9083019060e082860312156200081857600080fd5b6200082262000636565b8251828111156200083257600080fd5b6200084087828601620006d7565b8252506020830151828111156200085657600080fd5b620008648782860162000769565b602083015250604083015160408201526060830151828111156200088757600080fd5b6200089587828601620006d7565b60608301525060808301516080820152620008b360a08401620006ba565b60a0820152620008c660c08401620006ba565b60c082015295945050505050565b634e487b7160e01b600052603260045260246000fd5b600060208284031215620008fd57600080fd5b620004278262000757565b608051611efc62000924600039600061058d0152611efc6000f3fe608060405234801561001057600080fd5b50600436106102ad5760003560e01c80638da5cb5b1161017b578063cc8463c8116100d8578063d602b9fd1161008c578063ec342ad011610071578063ec342ad01461064c578063ed2f86031461065b578063ee1a07101461066b57600080fd5b8063d602b9fd14610631578063dbda63de1461063957600080fd5b8063cf330c26116100bd578063cf330c26146105bf578063cf6eefb7146105d2578063d547741f1461061e57600080fd5b8063cc8463c8146105af578063cefc1429146105b757600080fd5b8063a1eda53c1161012f578063b91b79f911610114578063b91b79f91461053d578063c52a4b4a14610562578063c59801821461058857600080fd5b8063a1eda53c1461050e578063a217fddf1461053557600080fd5b806392611e331161016057806392611e33146104d85780639aefb5c3146104e05780639e0a8500146104e957600080fd5b80638da5cb5b1461048a57806391d148541461049257600080fd5b8063408b054611610229578063634e93da116101dd578063679ca770116101c2578063679ca7701461042f5780637284e4161461044257806384ef8ffc1461044b57600080fd5b8063634e93da14610409578063649a5ec71461041c57600080fd5b8063442133bd1161020e578063442133bd146103d25780634842855c146103da57806357de26a41461040157600080fd5b8063408b0546146103a457806341f654f7146103b557600080fd5b8063240fd5ab116102805780632f2ff15d116102655780632f2ff15d1461036b5780633593ba7b1461037e57806336568abe1461039157600080fd5b8063240fd5ab14610335578063248a9ca31461034857600080fd5b806301ffc9a7146102b2578063022d63fb146102da5780630942d09a146102f65780630aa6220b1461032b575b600080fd5b6102c56102c0366004611a94565b61067e565b60405190151581526020015b60405180910390f35b620697805b60405165ffffffffffff90911681526020016102d1565b61031d7f55435dd261a4b9b3364963f7738a7a662ad9c84396d64be3365284bb7f0a504181565b6040519081526020016102d1565b6103336106da565b005b61031d610343366004611ad6565b6106ed565b61031d610356366004611ad6565b60009081526002602052604090206001015490565b610333610379366004611b11565b6106f8565b61031d61038c366004611ad6565b61073d565b61033361039f366004611b11565b610751565b6103336103b2366004611b5a565b50565b6103bd61085b565b604080519283526020830191909152016102d1565b61031d610871565b61031d7fac4f1890dc96c9a02330d1fa696648a38f3b282d2449c2d8e6f10507488c84c881565b61031d61087e565b610333610417366004611b75565b610897565b61033361042a366004611b92565b6108ab565b61033361043d366004611bba565b6108bf565b61031d60015481565b60045473ffffffffffffffffffffffffffffffffffffffff165b60405173ffffffffffffffffffffffffffffffffffffffff90911681526020016102d1565b6104656109ad565b6102c56104a0366004611b11565b600091825260026020908152604080842073ffffffffffffffffffffffffffffffffffffffff93909316845291905290205460ff1690565b61031d6109d3565b61031d60005481565b6104fc6104f7366004611ad6565b6109e0565b60405160ff90911681526020016102d1565b610516610a14565b6040805165ffffffffffff9384168152929091166020830152016102d1565b61031d600081565b60065461054d9063ffffffff1681565b60405163ffffffff90911681526020016102d1565b61054d610570366004611b75565b60056020526000908152604090205463ffffffff1681565b6104657f000000000000000000000000000000000000000000000000000000000000000081565b6102df610a8c565b610333610b2a565b6104656105cd366004611ad6565b610b86565b6003546040805173ffffffffffffffffffffffffffffffffffffffff831681527401000000000000000000000000000000000000000090920465ffffffffffff166020830152016102d1565b61033361062c366004611b11565b610bbd565b610333610bfe565b6104fc610647366004611ad6565b610c11565b61031d670de0b6b3a764000081565b600a5461054d9063ffffffff1681565b610333610679366004611b5a565b610c21565b60007fffffffff0000000000000000000000000000000000000000000000000000000082167f314987860000000000000000000000000000000000000000000000000000000014806106d457506106d482610c83565b92915050565b60006106e581610d1a565b6103b2610d24565b60006106d482610d31565b8161072f576040517f3fc3c27a00000000000000000000000000000000000000000000000000000000815260040160405180910390fd5b6107398282610d63565b5050565b60008061074983610d8e565b509392505050565b81158015610779575060045473ffffffffffffffffffffffffffffffffffffffff8281169116145b156108515760035473ffffffffffffffffffffffffffffffffffffffff81169074010000000000000000000000000000000000000000900465ffffffffffff16811515806107cd575065ffffffffffff8116155b806107e057504265ffffffffffff821610155b15610826576040517f19ca5ebb00000000000000000000000000000000000000000000000000000000815265ffffffffffff821660048201526024015b60405180910390fd5b5050600380547fffffffffffff000000000000ffffffffffffffffffffffffffffffffffffffff1690555b6107398282610da6565b600080610869600054610d8e565b915091509091565b60006106d4600054610d8e565b6000610891670de0b6b3a7640000610e04565b50919050565b60006108a281610d1a565b61073982610ed0565b60006108b681610d1a565b61073982610f50565b7f55435dd261a4b9b3364963f7738a7a662ad9c84396d64be3365284bb7f0a50416108e981610d1a565b8163ffffffff16600003610929576040517f5a18a80f00000000000000000000000000000000000000000000000000000000815260040160405180910390fd5b73ffffffffffffffffffffffffffffffffffffffff831660008181526005602052604080822080547fffffffffffffffffffffffffffffffffffffffffffffffffffffffff000000001663ffffffff871690811790915590519092917ff3a600ac91948c3b22100bcd096b9cf62d5887ad52c0b478da31096e2e7374de91a3505050565b60006109ce60045473ffffffffffffffffffffffffffffffffffffffff1690565b905090565b6000610891600054610d8e565b600881815481106109f057600080fd5b9060005260206000209060209182820401919006915054906101000a900460ff1681565b6004546000907a010000000000000000000000000000000000000000000000000000900465ffffffffffff168015158015610a5757504265ffffffffffff821610155b610a6357600080610869565b60045474010000000000000000000000000000000000000000900465ffffffffffff1692909150565b6004546000907a010000000000000000000000000000000000000000000000000000900465ffffffffffff168015158015610ace57504265ffffffffffff8216105b610b00576003547a010000000000000000000000000000000000000000000000000000900465ffffffffffff16610b24565b60045474010000000000000000000000000000000000000000900465ffffffffffff165b91505090565b60035473ffffffffffffffffffffffffffffffffffffffff16338114610b7e576040517fc22c802200000000000000000000000000000000000000000000000000000000815233600482015260240161081d565b6103b2610fc0565b60078181548110610b9657600080fd5b60009182526020909120015473ffffffffffffffffffffffffffffffffffffffff16905081565b81610bf4576040517f3fc3c27a00000000000000000000000000000000000000000000000000000000815260040160405180910390fd5b61073982826110b3565b6000610c0981610d1a565b6103b26110d8565b600981815481106109f057600080fd5b7f55435dd261a4b9b3364963f7738a7a662ad9c84396d64be3365284bb7f0a5041610c4b81610d1a565b50600680547fffffffffffffffffffffffffffffffffffffffffffffffffffffffff000000001663ffffffff92909216919091179055565b60007fffffffff0000000000000000000000000000000000000000000000000000000082167f7965db0b0000000000000000000000000000000000000000000000000000000014806106d457507f01ffc9a7000000000000000000000000000000000000000000000000000000007fffffffff000000000000000000000000000000000000000000000000000000008316146106d4565b6103b281336110e3565b610d2f60008061116b565b565b60008054610d47670de0b6b3a764000084611c1e565b610d519190611c35565b9150610d5c82610e04565b5092915050565b600082815260026020526040902060010154610d7e81610d1a565b610d8883836112c5565b50505050565b6000806000610d9c84610d31565b9485945092505050565b73ffffffffffffffffffffffffffffffffffffffff81163314610df5576040517f6697b23200000000000000000000000000000000000000000000000000000000815260040160405180910390fd5b610dff828261138c565b505050565b6000806000805b600754811015610ec857610ebb8560078381548110610e2c57610e2c611c70565b6000918252602090912001546008805473ffffffffffffffffffffffffffffffffffffffff9092169185908110610e6557610e65611c70565b90600052602060002090602091828204019190069054906101000a900460ff1660098581548110610e9857610e98611c70565b60009182526020808320908204015460ff601f9092166101000a900416906113ee565b9095509150600101610e0b565b509293915050565b6000610eda610a8c565b610ee34261145d565b610eed9190611c9f565b9050610ef982826114f9565b60405165ffffffffffff8216815273ffffffffffffffffffffffffffffffffffffffff8316907f3377dc44241e779dd06afab5b788a35ca5f3b778836e2990bdb26a2a4b2e5ed69060200160405180910390a25050565b6000610f5b82611595565b610f644261145d565b610f6e9190611c9f565b9050610f7a828261116b565b6040805165ffffffffffff8085168252831660208201527ff1038c18cf84a56e432fdbfaf746924b7ea511dfe03a6506a0ceba4888788d9b910160405180910390a15050565b60035473ffffffffffffffffffffffffffffffffffffffff81169074010000000000000000000000000000000000000000900465ffffffffffff1680158061101057504265ffffffffffff821610155b15611051576040517f19ca5ebb00000000000000000000000000000000000000000000000000000000815265ffffffffffff8216600482015260240161081d565b61107a600061107560045473ffffffffffffffffffffffffffffffffffffffff1690565b61138c565b506110866000836112c5565b5050600380547fffffffffffff000000000000000000000000000000000000000000000000000016905550565b6000828152600260205260409020600101546110ce81610d1a565b610d88838361138c565b610d2f6000806114f9565b600082815260026020908152604080832073ffffffffffffffffffffffffffffffffffffffff8516845290915290205460ff16610739576040517fe2517d3f00000000000000000000000000000000000000000000000000000000815273ffffffffffffffffffffffffffffffffffffffff821660048201526024810183905260440161081d565b6004547a010000000000000000000000000000000000000000000000000000900465ffffffffffff168015611240574265ffffffffffff82161015611216576004546003805479ffffffffffffffffffffffffffffffffffffffffffffffffffff167401000000000000000000000000000000000000000090920465ffffffffffff167a01000000000000000000000000000000000000000000000000000002919091179055611240565b6040517f2b1fa2edafe6f7b9e97c1a9e0c3660e645beb2dcaa2d45bdbf9beaf5472e1ec590600090a15b506004805473ffffffffffffffffffffffffffffffffffffffff167401000000000000000000000000000000000000000065ffffffffffff9485160279ffffffffffffffffffffffffffffffffffffffffffffffffffff16177a0100000000000000000000000000000000000000000000000000009290931691909102919091179055565b60008261137b5760006112ed60045473ffffffffffffffffffffffffffffffffffffffff1690565b73ffffffffffffffffffffffffffffffffffffffff161461133a576040517f3fc3c27a00000000000000000000000000000000000000000000000000000000815260040160405180910390fd5b600480547fffffffffffffffffffffffff00000000000000000000000000000000000000001673ffffffffffffffffffffffffffffffffffffffff84161790555b61138583836115dd565b9392505050565b6000821580156113b6575060045473ffffffffffffffffffffffffffffffffffffffff8381169116145b156113e457600480547fffffffffffffffffffffffff00000000000000000000000000000000000000001690555b61138583836116dd565b6000806113fb868461179c565b92508460ff1660010361142e5761141384600a611dde565b61141d8489611c1e565b6114279190611c35565b9650611451565b8261143a85600a611dde565b6114449089611c1e565b61144e9190611c35565b96505b50949590945092505050565b600065ffffffffffff8211156114f5576040517f08c379a000000000000000000000000000000000000000000000000000000000815260206004820152602660248201527f53616665436173743a2076616c756520646f65736e27742066697420696e203460448201527f3820626974730000000000000000000000000000000000000000000000000000606482015260840161081d565b5090565b600380547401000000000000000000000000000000000000000065ffffffffffff84811682027fffffffffffff0000000000000000000000000000000000000000000000000000841673ffffffffffffffffffffffffffffffffffffffff881617179093559004168015610dff576040517f8886ebfc4259abdbc16601dd8fb5678e54878f47b3c34836cfc51154a960510990600090a1505050565b6000806115a0610a8c565b90508065ffffffffffff168365ffffffffffff16116115c8576115c38382611dea565b611385565b61138565ffffffffffff841662069780611a7e565b600082815260026020908152604080832073ffffffffffffffffffffffffffffffffffffffff8516845290915281205460ff166116d557600083815260026020908152604080832073ffffffffffffffffffffffffffffffffffffffff86168452909152902080547fffffffffffffffffffffffffffffffffffffffffffffffffffffffffffffff001660011790556116733390565b73ffffffffffffffffffffffffffffffffffffffff168273ffffffffffffffffffffffffffffffffffffffff16847f2f8788117e7eff1d82e926ec794901d17c78024a50270940304540a733656f0d60405160405180910390a45060016106d4565b5060006106d4565b600082815260026020908152604080832073ffffffffffffffffffffffffffffffffffffffff8516845290915281205460ff16156116d557600083815260026020908152604080832073ffffffffffffffffffffffffffffffffffffffff8616808552925280832080547fffffffffffffffffffffffffffffffffffffffffffffffffffffffffffffff0016905551339286917ff6391f5c32d9c69d2a47ea670b442974b53935d1edc7fd64eb21e047a839171b9190a45060016106d4565b6000816000036108915773ffffffffffffffffffffffffffffffffffffffff831660009081526005602052604081205463ffffffff16908190036117e5575060065463ffffffff165b6000808573ffffffffffffffffffffffffffffffffffffffff1663feaf968c6040518163ffffffff1660e01b815260040160a060405180830381865afa158015611833573d6000803e3d6000fd5b505050506040513d601f19601f820116820180604052508101906118579190611e23565b509350509250508573ffffffffffffffffffffffffffffffffffffffff1663245a7bfc6040518163ffffffff1660e01b8152600401602060405180830381865afa1580156118a9573d6000803e3d6000fd5b505050506040513d601f19601f820116820180604052508101906118cd9190611e73565b73ffffffffffffffffffffffffffffffffffffffff166322adbc786040518163ffffffff1660e01b8152600401602060405180830381865afa158015611917573d6000803e3d6000fd5b505050506040513d601f19601f8201168201806040525081019061193b9190611e90565b60170b82131580611a2b57508573ffffffffffffffffffffffffffffffffffffffff1663245a7bfc6040518163ffffffff1660e01b8152600401602060405180830381865afa158015611992573d6000803e3d6000fd5b505050506040513d601f19601f820116820180604052508101906119b69190611e73565b73ffffffffffffffffffffffffffffffffffffffff166370da2f676040518163ffffffff1660e01b8152600401602060405180830381865afa158015611a00573d6000803e3d6000fd5b505050506040513d601f19601f82011682018060405250810190611a249190611e90565b60170b8212155b80611a3e575082611a3c8242611eb3565b115b15611a75576040517fae19356300000000000000000000000000000000000000000000000000000000815260040160405180910390fd5b50949350505050565b6000818310611a8d5781611385565b5090919050565b600060208284031215611aa657600080fd5b81357fffffffff000000000000000000000000000000000000000000000000000000008116811461138557600080fd5b600060208284031215611ae857600080fd5b5035919050565b73ffffffffffffffffffffffffffffffffffffffff811681146103b257600080fd5b60008060408385031215611b2457600080fd5b823591506020830135611b3681611aef565b809150509250929050565b803563ffffffff81168114611b5557600080fd5b919050565b600060208284031215611b6c57600080fd5b61138582611b41565b600060208284031215611b8757600080fd5b813561138581611aef565b600060208284031215611ba457600080fd5b813565ffffffffffff8116811461138557600080fd5b60008060408385031215611bcd57600080fd5b8235611bd881611aef565b9150611be660208401611b41565b90509250929050565b7f4e487b7100000000000000000000000000000000000000000000000000000000600052601160045260246000fd5b80820281158282048414176106d4576106d4611bef565b600082611c6b577f4e487b7100000000000000000000000000000000000000000000000000000000600052601260045260246000fd5b500490565b7f4e487b7100000000000000000000000000000000000000000000000000000000600052603260045260246000fd5b65ffffffffffff818116838216019080821115610d5c57610d5c611bef565b600181815b80851115611d1757817fffffffffffffffffffffffffffffffffffffffffffffffffffffffffffffffff04821115611cfd57611cfd611bef565b80851615611d0a57918102915b93841c9390800290611cc3565b509250929050565b600082611d2e575060016106d4565b81611d3b575060006106d4565b8160018114611d515760028114611d5b57611d77565b60019150506106d4565b60ff841115611d6c57611d6c611bef565b50506001821b6106d4565b5060208310610133831016604e8410600b8410161715611d9a575081810a6106d4565b611da48383611cbe565b807fffffffffffffffffffffffffffffffffffffffffffffffffffffffffffffffff04821115611dd657611dd6611bef565b029392505050565b60006113858383611d1f565b65ffffffffffff828116828216039080821115610d5c57610d5c611bef565b805169ffffffffffffffffffff81168114611b5557600080fd5b600080600080600060a08688031215611e3b57600080fd5b611e4486611e09565b9450602086015193506040860151925060608601519150611e6760808701611e09565b90509295509295909350565b600060208284031215611e8557600080fd5b815161138581611aef565b600060208284031215611ea257600080fd5b81518060170b811461138557600080fd5b818103818111156106d4576106d4611bef56fea26469706673582212204983f6f0015eb17342088740e30efa7b366a3751af9a69b7bc45eeb32a105bb864736f6c6343000816003355435dd261a4b9b3364963f7738a7a662ad9c84396d64be3365284bb7f0a5041",
  "linkReferences": {},
  "deployedLinkReferences": {}
}