{
  "_format": "hh-sol-artifact-1",
  "contractName": "PausableMapUpgradeable",
  "sourceName": "contracts/oracle/utils/PausableMapUpgradeable.sol",
  "abi": [
    {
      "anonymous": false,
      "inputs": [
        {
          "indexed": true,
          "internalType": "bytes32",
          "name": "name",
          "type": "bytes32"
        }
      ],
      "name": "Paused",
      "type": "event"
    },
    {
      "anonymous": false,
      "inputs": [
        {
          "indexed": true,
          "internalType": "bytes32",
          "name": "name",
          "type": "bytes32"
        }
      ],
      "name": "Unpaused",
      "type": "event"
    },
    {
      "inputs": [
        {
          "internalType": "bytes32",
          "name": "",
          "type": "bytes32"
        }
      ],
      "name": "paused",
      "outputs": [
        {
          "internalType": "bool",
          "name": "",
          "type": "bool"
        }
      ],
      "stateMutability": "view",
      "type": "function"
    }
  ],
  "bytecode": "0x608060405234801561001057600080fd5b5060af8061001f6000396000f3fe6080604052348015600f57600080fd5b506004361060285760003560e01c80639e9e466614602d575b600080fd5b604d60383660046061565b60006020819052908152604090205460ff1681565b604051901515815260200160405180910390f35b600060208284031215607257600080fd5b503591905056fea2646970667358221220091de6e869fc57de3b379189020e8aa1f2f9e60df1f94abae347a946e70b2e3964736f6c63430008160033",
  "linkReferences": {},
  "deployedLinkReferences": {}
}