{
  "_format": "hh-sol-artifact-1",
  "contractName": "SDaiOracle",
  "sourceName": "contracts/oracle/implementation/ethereum/sDAIOracle.sol",
  "abi": [
    {
      "inputs": [
        {
          "internalType": "contract AggregatorInterface",
          "name": "_sDaiOracle",
          "type": "address"
        }
      ],
      "stateMutability": "nonpayable",
      "type": "constructor"
    },
    {
      "inputs": [],
      "name": "decimals",
      "outputs": [
        {
          "internalType": "uint8",
          "name": "",
          "type": "uint8"
        }
      ],
      "stateMutability": "pure",
      "type": "function"
    },
    {
      "inputs": [
        {
          "internalType": "bytes",
          "name": "",
          "type": "bytes"
        }
      ],
      "name": "get",
      "outputs": [
        {
          "internalType": "bool",
          "name": "success",
          "type": "bool"
        },
        {
          "internalType": "uint256",
          "name": "rate",
          "type": "uint256"
        }
      ],
      "stateMutability": "nonpayable",
      "type": "function"
    },
    {
      "inputs": [
        {
          "internalType": "bytes",
          "name": "",
          "type": "bytes"
        }
      ],
      "name": "name",
      "outputs": [
        {
          "internalType": "string",
          "name": "",
          "type": "string"
        }
      ],
      "stateMutability": "pure",
      "type": "function"
    },
    {
      "inputs": [
        {
          "internalType": "bytes",
          "name": "",
          "type": "bytes"
        }
      ],
      "name": "peek",
      "outputs": [
        {
          "internalType": "bool",
          "name": "success",
          "type": "bool"
        },
        {
          "internalType": "uint256",
          "name": "rate",
          "type": "uint256"
        }
      ],
      "stateMutability": "view",
      "type": "function"
    },
    {
      "inputs": [
        {
          "internalType": "bytes",
          "name": "data",
          "type": "bytes"
        }
      ],
      "name": "peekSpot",
      "outputs": [
        {
          "internalType": "uint256",
          "name": "rate",
          "type": "uint256"
        }
      ],
      "stateMutability": "view",
      "type": "function"
    },
    {
      "inputs": [
        {
          "internalType": "bytes",
          "name": "",
          "type": "bytes"
        }
      ],
      "name": "symbol",
      "outputs": [
        {
          "internalType": "string",
          "name": "",
          "type": "string"
        }
      ],
      "stateMutability": "pure",
      "type": "function"
    }
  ],
  "bytecode": "0x60a060405234801561001057600080fd5b506040516104b23803806104b283398101604081905261002f91610045565b60016000556001600160a01b0316608052610075565b60006020828403121561005757600080fd5b81516001600160a01b038116811461006e57600080fd5b9392505050565b608051610422610090600039600061021501526104226000f3fe608060405234801561001057600080fd5b50600436106100725760003560e01c8063d568866c11610050578063d568866c1461008b578063d6d7d525146100cc578063eeb8a8d3146100f657600080fd5b8063313ce56714610077578063c699c4d61461008b578063d39bbef0146100ab575b600080fd5b604051601281526020015b60405180910390f35b61009e6100993660046102b6565b610109565b6040516100829190610328565b6100be6100b93660046102b6565b610144565b604051908152602001610082565b6100df6100da3660046102b6565b610158565b604080519215158352602083019190915201610082565b6100df6101043660046102b6565b610182565b60408051808201909152600881527f734441492f55534400000000000000000000000000000000000000000000000060208201525b92915050565b60006101508383610182565b949350505050565b60008061016361019a565b600161016d610211565b9150915061017b6001600055565b9250929050565b600080600161018f610211565b915091509250929050565b60026000540361020a576040517f08c379a000000000000000000000000000000000000000000000000000000000815260206004820152601f60248201527f5265656e7472616e637947756172643a207265656e7472616e742063616c6c00604482015260640160405180910390fd5b6002600055565b60007f000000000000000000000000000000000000000000000000000000000000000073ffffffffffffffffffffffffffffffffffffffff166350d25bcd6040518163ffffffff1660e01b8152600401602060405180830381865afa15801561027e573d6000803e3d6000fd5b505050506040513d601f19601f820116820180604052508101906102a29190610395565b6102b1906402540be4006103ae565b905090565b600080602083850312156102c957600080fd5b823567ffffffffffffffff808211156102e157600080fd5b818501915085601f8301126102f557600080fd5b81358181111561030457600080fd5b86602082850101111561031657600080fd5b60209290920196919550909350505050565b60006020808352835180602085015260005b818110156103565785810183015185820160400152820161033a565b5060006040828601015260407fffffffffffffffffffffffffffffffffffffffffffffffffffffffffffffffe0601f8301168501019250505092915050565b6000602082840312156103a757600080fd5b5051919050565b808202811582820484141761013e577f4e487b7100000000000000000000000000000000000000000000000000000000600052601160045260246000fdfea264697066735822122078e87d12880b8526840b8d1a2277fc2cf424d94e980906d8d2d22c293adabae564736f6c63430008160033",
  "linkReferences": {},
  "deployedLinkReferences": {}
}