{
  "_format": "hh-sol-artifact-1",
  "contractName": "Seer",
  "sourceName": "contracts/oracle/Seer.sol",
  "abi": [
    {
      "inputs": [
        {
          "internalType": "string",
          "name": "__name",
          "type": "string"
        },
        {
          "internalType": "string",
          "name": "__symbol",
          "type": "string"
        },
        {
          "internalType": "uint8",
          "name": "_decimals",
          "type": "uint8"
        },
        {
          "components": [
            {
              "internalType": "address[]",
              "name": "addressInAndOutUni",
              "type": "address[]"
            },
            {
              "internalType": "contract IUniswapV3Pool[]",
              "name": "_circuitUniswap",
              "type": "address[]"
            },
            {
              "internalType": "uint8[]",
              "name": "_circuitUniIsMultiplied",
              "type": "uint8[]"
            },
            {
              "internalType": "uint32",
              "name": "_twapPeriod",
              "type": "uint32"
            },
            {
              "internalType": "uint16",
              "name": "observationLength",
              "type": "uint16"
            },
            {
              "internalType": "uint8",
              "name": "_uniFinalCurrency",
              "type": "uint8"
            },
            {
              "internalType": "address[]",
              "name": "_circuitChainlink",
              "type": "address[]"
            },
            {
              "internalType": "uint8[]",
              "name": "_circuitChainIsMultiplied",
              "type": "uint8[]"
            },
            {
              "internalType": "uint32",
              "name": "_stalePeriod",
              "type": "uint32"
            },
            {
              "internalType": "address[]",
              "name": "guardians",
              "type": "address[]"
            },
            {
              "internalType": "bytes32",
              "name": "_description",
              "type": "bytes32"
            },
            {
              "internalType": "address",
              "name": "_sequencerUptimeFeed",
              "type": "address"
            },
            {
              "internalType": "address",
              "name": "_admin",
              "type": "address"
            }
          ],
          "internalType": "struct OracleMultiConstructorData",
          "name": "_oracleMultiConstructorData",
          "type": "tuple"
        }
      ],
      "stateMutability": "nonpayable",
      "type": "constructor"
    },
    {
      "inputs": [],
      "name": "AccessControlBadConfirmation",
      "type": "error"
    },
    {
      "inputs": [
        {
          "internalType": "uint48",
          "name": "schedule",
          "type": "uint48"
        }
      ],
      "name": "AccessControlEnforcedDefaultAdminDelay",
      "type": "error"
    },
    {
      "inputs": [],
      "name": "AccessControlEnforcedDefaultAdminRules",
      "type": "error"
    },
    {
      "inputs": [
        {
          "internalType": "address",
          "name": "defaultAdmin",
          "type": "address"
        }
      ],
      "name": "AccessControlInvalidDefaultAdmin",
      "type": "error"
    },
    {
      "inputs": [
        {
          "internalType": "address",
          "name": "account",
          "type": "address"
        },
        {
          "internalType": "bytes32",
          "name": "neededRole",
          "type": "bytes32"
        }
      ],
      "name": "AccessControlUnauthorizedAccount",
      "type": "error"
    },
    {
      "inputs": [],
      "name": "GracePeriodNotOver",
      "type": "error"
    },
    {
      "inputs": [],
      "name": "InvalidChainlinkRate",
      "type": "error"
    },
    {
      "inputs": [],
      "name": "SequencerDown",
      "type": "error"
    },
    {
      "anonymous": false,
      "inputs": [],
      "name": "DefaultAdminDelayChangeCanceled",
      "type": "event"
    },
    {
      "anonymous": false,
      "inputs": [
        {
          "indexed": false,
          "internalType": "uint48",
          "name": "newDelay",
          "type": "uint48"
        },
        {
          "indexed": false,
          "internalType": "uint48",
          "name": "effectSchedule",
          "type": "uint48"
        }
      ],
      "name": "DefaultAdminDelayChangeScheduled",
      "type": "event"
    },
    {
      "anonymous": false,
      "inputs": [],
      "name": "DefaultAdminTransferCanceled",
      "type": "event"
    },
    {
      "anonymous": false,
      "inputs": [
        {
          "indexed": true,
          "internalType": "address",
          "name": "newAdmin",
          "type": "address"
        },
        {
          "indexed": false,
          "internalType": "uint48",
          "name": "acceptSchedule",
          "type": "uint48"
        }
      ],
      "name": "DefaultAdminTransferScheduled",
      "type": "event"
    },
    {
      "anonymous": false,
      "inputs": [
        {
          "indexed": true,
          "internalType": "bytes32",
          "name": "role",
          "type": "bytes32"
        },
        {
          "indexed": true,
          "internalType": "bytes32",
          "name": "previousAdminRole",
          "type": "bytes32"
        },
        {
          "indexed": true,
          "internalType": "bytes32",
          "name": "newAdminRole",
          "type": "bytes32"
        }
      ],
      "name": "RoleAdminChanged",
      "type": "event"
    },
    {
      "anonymous": false,
      "inputs": [
        {
          "indexed": true,
          "internalType": "bytes32",
          "name": "role",
          "type": "bytes32"
        },
        {
          "indexed": true,
          "internalType": "address",
          "name": "account",
          "type": "address"
        },
        {
          "indexed": true,
          "internalType": "address",
          "name": "sender",
          "type": "address"
        }
      ],
      "name": "RoleGranted",
      "type": "event"
    },
    {
      "anonymous": false,
      "inputs": [
        {
          "indexed": true,
          "internalType": "bytes32",
          "name": "role",
          "type": "bytes32"
        },
        {
          "indexed": true,
          "internalType": "address",
          "name": "account",
          "type": "address"
        },
        {
          "indexed": true,
          "internalType": "address",
          "name": "sender",
          "type": "address"
        }
      ],
      "name": "RoleRevoked",
      "type": "event"
    },
    {
      "inputs": [],
      "name": "BASE",
      "outputs": [
        {
          "internalType": "uint256",
          "name": "",
          "type": "uint256"
        }
      ],
      "stateMutability": "view",
      "type": "function"
    },
    {
      "inputs": [],
      "name": "DEFAULT_ADMIN_ROLE",
      "outputs": [
        {
          "internalType": "bytes32",
          "name": "",
          "type": "bytes32"
        }
      ],
      "stateMutability": "view",
      "type": "function"
    },
    {
      "inputs": [],
      "name": "GRACE_PERIOD_TIME",
      "outputs": [
        {
          "internalType": "uint32",
          "name": "",
          "type": "uint32"
        }
      ],
      "stateMutability": "view",
      "type": "function"
    },
    {
      "inputs": [],
      "name": "GUARDIAN_ROLE_CHAINLINK",
      "outputs": [
        {
          "internalType": "bytes32",
          "name": "",
          "type": "bytes32"
        }
      ],
      "stateMutability": "view",
      "type": "function"
    },
    {
      "inputs": [],
      "name": "GUARDIAN_ROLE_UNISWAP",
      "outputs": [
        {
          "internalType": "bytes32",
          "name": "",
          "type": "bytes32"
        }
      ],
      "stateMutability": "view",
      "type": "function"
    },
    {
      "inputs": [],
      "name": "SEQUENCER_ROLE",
      "outputs": [
        {
          "internalType": "bytes32",
          "name": "",
          "type": "bytes32"
        }
      ],
      "stateMutability": "view",
      "type": "function"
    },
    {
      "inputs": [],
      "name": "SEQUENCER_UPTIME_FEED",
      "outputs": [
        {
          "internalType": "contract AggregatorV3Interface",
          "name": "",
          "type": "address"
        }
      ],
      "stateMutability": "view",
      "type": "function"
    },
    {
      "inputs": [],
      "name": "_name",
      "outputs": [
        {
          "internalType": "string",
          "name": "",
          "type": "string"
        }
      ],
      "stateMutability": "view",
      "type": "function"
    },
    {
      "inputs": [],
      "name": "_symbol",
      "outputs": [
        {
          "internalType": "string",
          "name": "",
          "type": "string"
        }
      ],
      "stateMutability": "view",
      "type": "function"
    },
    {
      "inputs": [],
      "name": "acceptDefaultAdminTransfer",
      "outputs": [],
      "stateMutability": "nonpayable",
      "type": "function"
    },
    {
      "inputs": [
        {
          "internalType": "address",
          "name": "newAdmin",
          "type": "address"
        }
      ],
      "name": "beginDefaultAdminTransfer",
      "outputs": [],
      "stateMutability": "nonpayable",
      "type": "function"
    },
    {
      "inputs": [],
      "name": "cancelDefaultAdminTransfer",
      "outputs": [],
      "stateMutability": "nonpayable",
      "type": "function"
    },
    {
      "inputs": [
        {
          "internalType": "uint256",
          "name": "",
          "type": "uint256"
        }
      ],
      "name": "chainlinkDecimals",
      "outputs": [
        {
          "internalType": "uint8",
          "name": "",
          "type": "uint8"
        }
      ],
      "stateMutability": "view",
      "type": "function"
    },
    {
      "inputs": [
        {
          "internalType": "uint48",
          "name": "newDelay",
          "type": "uint48"
        }
      ],
      "name": "changeDefaultAdminDelay",
      "outputs": [],
      "stateMutability": "nonpayable",
      "type": "function"
    },
    {
      "inputs": [
        {
          "internalType": "uint32",
          "name": "_gracePeriod",
          "type": "uint32"
        }
      ],
      "name": "changeGracePeriod",
      "outputs": [],
      "stateMutability": "nonpayable",
      "type": "function"
    },
    {
      "inputs": [
        {
          "internalType": "uint32",
          "name": "_stalePeriod",
          "type": "uint32"
        }
      ],
      "name": "changeStalePeriod",
      "outputs": [],
      "stateMutability": "nonpayable",
      "type": "function"
    },
    {
      "inputs": [
        {
          "internalType": "uint32",
          "name": "_twapPeriod",
          "type": "uint32"
        }
      ],
      "name": "changeTwapPeriod",
      "outputs": [],
      "stateMutability": "nonpayable",
      "type": "function"
    },
    {
      "inputs": [
        {
          "internalType": "uint256",
          "name": "",
          "type": "uint256"
        }
      ],
      "name": "circuitChainIsMultiplied",
      "outputs": [
        {
          "internalType": "uint8",
          "name": "",
          "type": "uint8"
        }
      ],
      "stateMutability": "view",
      "type": "function"
    },
    {
      "inputs": [
        {
          "internalType": "uint256",
          "name": "",
          "type": "uint256"
        }
      ],
      "name": "circuitChainlink",
      "outputs": [
        {
          "internalType": "contract AggregatorV3Interface",
          "name": "",
          "type": "address"
        }
      ],
      "stateMutability": "view",
      "type": "function"
    },
    {
      "inputs": [
        {
          "internalType": "uint256",
          "name": "",
          "type": "uint256"
        }
      ],
      "name": "circuitUniIsMultiplied",
      "outputs": [
        {
          "internalType": "uint8",
          "name": "",
          "type": "uint8"
        }
      ],
      "stateMutability": "view",
      "type": "function"
    },
    {
      "inputs": [
        {
          "internalType": "uint256",
          "name": "",
          "type": "uint256"
        }
      ],
      "name": "circuitUniswap",
      "outputs": [
        {
          "internalType": "contract IUniswapV3Pool",
          "name": "",
          "type": "address"
        }
      ],
      "stateMutability": "view",
      "type": "function"
    },
    {
      "inputs": [],
      "name": "decimals",
      "outputs": [
        {
          "internalType": "uint8",
          "name": "",
          "type": "uint8"
        }
      ],
      "stateMutability": "view",
      "type": "function"
    },
    {
      "inputs": [],
      "name": "defaultAdmin",
      "outputs": [
        {
          "internalType": "address",
          "name": "",
          "type": "address"
        }
      ],
      "stateMutability": "view",
      "type": "function"
    },
    {
      "inputs": [],
      "name": "defaultAdminDelay",
      "outputs": [
        {
          "internalType": "uint48",
          "name": "",
          "type": "uint48"
        }
      ],
      "stateMutability": "view",
      "type": "function"
    },
    {
      "inputs": [],
      "name": "defaultAdminDelayIncreaseWait",
      "outputs": [
        {
          "internalType": "uint48",
          "name": "",
          "type": "uint48"
        }
      ],
      "stateMutability": "view",
      "type": "function"
    },
    {
      "inputs": [],
      "name": "description",
      "outputs": [
        {
          "internalType": "bytes32",
          "name": "",
          "type": "bytes32"
        }
      ],
      "stateMutability": "view",
      "type": "function"
    },
    {
      "inputs": [
        {
          "internalType": "bytes",
          "name": "data",
          "type": "bytes"
        }
      ],
      "name": "get",
      "outputs": [
        {
          "internalType": "bool",
          "name": "success",
          "type": "bool"
        },
        {
          "internalType": "uint256",
          "name": "rate",
          "type": "uint256"
        }
      ],
      "stateMutability": "nonpayable",
      "type": "function"
    },
    {
      "inputs": [
        {
          "internalType": "bytes32",
          "name": "role",
          "type": "bytes32"
        }
      ],
      "name": "getRoleAdmin",
      "outputs": [
        {
          "internalType": "bytes32",
          "name": "",
          "type": "bytes32"
        }
      ],
      "stateMutability": "view",
      "type": "function"
    },
    {
      "inputs": [
        {
          "internalType": "bytes32",
          "name": "role",
          "type": "bytes32"
        },
        {
          "internalType": "address",
          "name": "account",
          "type": "address"
        }
      ],
      "name": "grantRole",
      "outputs": [],
      "stateMutability": "nonpayable",
      "type": "function"
    },
    {
      "inputs": [
        {
          "internalType": "bytes32",
          "name": "role",
          "type": "bytes32"
        },
        {
          "internalType": "address",
          "name": "account",
          "type": "address"
        }
      ],
      "name": "hasRole",
      "outputs": [
        {
          "internalType": "bool",
          "name": "",
          "type": "bool"
        }
      ],
      "stateMutability": "view",
      "type": "function"
    },
    {
      "inputs": [],
      "name": "inBase",
      "outputs": [
        {
          "internalType": "uint256",
          "name": "",
          "type": "uint256"
        }
      ],
      "stateMutability": "view",
      "type": "function"
    },
    {
      "inputs": [
        {
          "internalType": "uint16",
          "name": "newLengthStored",
          "type": "uint16"
        }
      ],
      "name": "increaseTWAPStore",
      "outputs": [],
      "stateMutability": "nonpayable",
      "type": "function"
    },
    {
      "inputs": [
        {
          "internalType": "bytes",
          "name": "",
          "type": "bytes"
        }
      ],
      "name": "name",
      "outputs": [
        {
          "internalType": "string",
          "name": "",
          "type": "string"
        }
      ],
      "stateMutability": "view",
      "type": "function"
    },
    {
      "inputs": [],
      "name": "outBase",
      "outputs": [
        {
          "internalType": "uint256",
          "name": "",
          "type": "uint256"
        }
      ],
      "stateMutability": "view",
      "type": "function"
    },
    {
      "inputs": [],
      "name": "owner",
      "outputs": [
        {
          "internalType": "address",
          "name": "",
          "type": "address"
        }
      ],
      "stateMutability": "view",
      "type": "function"
    },
    {
      "inputs": [
        {
          "internalType": "bytes",
          "name": "data",
          "type": "bytes"
        }
      ],
      "name": "peek",
      "outputs": [
        {
          "internalType": "bool",
          "name": "success",
          "type": "bool"
        },
        {
          "internalType": "uint256",
          "name": "rate",
          "type": "uint256"
        }
      ],
      "stateMutability": "view",
      "type": "function"
    },
    {
      "inputs": [
        {
          "internalType": "bytes",
          "name": "data",
          "type": "bytes"
        }
      ],
      "name": "peekSpot",
      "outputs": [
        {
          "internalType": "uint256",
          "name": "rate",
          "type": "uint256"
        }
      ],
      "stateMutability": "view",
      "type": "function"
    },
    {
      "inputs": [],
      "name": "pendingDefaultAdmin",
      "outputs": [
        {
          "internalType": "address",
          "name": "newAdmin",
          "type": "address"
        },
        {
          "internalType": "uint48",
          "name": "schedule",
          "type": "uint48"
        }
      ],
      "stateMutability": "view",
      "type": "function"
    },
    {
      "inputs": [],
      "name": "pendingDefaultAdminDelay",
      "outputs": [
        {
          "internalType": "uint48",
          "name": "newDelay",
          "type": "uint48"
        },
        {
          "internalType": "uint48",
          "name": "schedule",
          "type": "uint48"
        }
      ],
      "stateMutability": "view",
      "type": "function"
    },
    {
      "inputs": [],
      "name": "read",
      "outputs": [
        {
          "internalType": "uint256",
          "name": "",
          "type": "uint256"
        }
      ],
      "stateMutability": "view",
      "type": "function"
    },
    {
      "inputs": [],
      "name": "readAll",
      "outputs": [
        {
          "internalType": "uint256",
          "name": "",
          "type": "uint256"
        },
        {
          "internalType": "uint256",
          "name": "",
          "type": "uint256"
        }
      ],
      "stateMutability": "view",
      "type": "function"
    },
    {
      "inputs": [],
      "name": "readLower",
      "outputs": [
        {
          "internalType": "uint256",
          "name": "rate",
          "type": "uint256"
        }
      ],
      "stateMutability": "view",
      "type": "function"
    },
    {
      "inputs": [
        {
          "internalType": "uint256",
          "name": "quoteAmount",
          "type": "uint256"
        }
      ],
      "name": "readQuote",
      "outputs": [
        {
          "internalType": "uint256",
          "name": "",
          "type": "uint256"
        }
      ],
      "stateMutability": "view",
      "type": "function"
    },
    {
      "inputs": [
        {
          "internalType": "uint256",
          "name": "quoteAmount",
          "type": "uint256"
        }
      ],
      "name": "readQuoteLower",
      "outputs": [
        {
          "internalType": "uint256",
          "name": "",
          "type": "uint256"
        }
      ],
      "stateMutability": "view",
      "type": "function"
    },
    {
      "inputs": [],
      "name": "readUpper",
      "outputs": [
        {
          "internalType": "uint256",
          "name": "rate",
          "type": "uint256"
        }
      ],
      "stateMutability": "view",
      "type": "function"
    },
    {
      "inputs": [
        {
          "internalType": "bytes32",
          "name": "role",
          "type": "bytes32"
        },
        {
          "internalType": "address",
          "name": "account",
          "type": "address"
        }
      ],
      "name": "renounceRole",
      "outputs": [],
      "stateMutability": "nonpayable",
      "type": "function"
    },
    {
      "inputs": [
        {
          "internalType": "bytes32",
          "name": "role",
          "type": "bytes32"
        },
        {
          "internalType": "address",
          "name": "account",
          "type": "address"
        }
      ],
      "name": "revokeRole",
      "outputs": [],
      "stateMutability": "nonpayable",
      "type": "function"
    },
    {
      "inputs": [],
      "name": "rollbackDefaultAdminDelay",
      "outputs": [],
      "stateMutability": "nonpayable",
      "type": "function"
    },
    {
      "inputs": [],
      "name": "stalePeriod",
      "outputs": [
        {
          "internalType": "uint32",
          "name": "",
          "type": "uint32"
        }
      ],
      "stateMutability": "view",
      "type": "function"
    },
    {
      "inputs": [
        {
          "internalType": "bytes4",
          "name": "interfaceId",
          "type": "bytes4"
        }
      ],
      "name": "supportsInterface",
      "outputs": [
        {
          "internalType": "bool",
          "name": "",
          "type": "bool"
        }
      ],
      "stateMutability": "view",
      "type": "function"
    },
    {
      "inputs": [
        {
          "internalType": "bytes",
          "name": "",
          "type": "bytes"
        }
      ],
      "name": "symbol",
      "outputs": [
        {
          "internalType": "string",
          "name": "",
          "type": "string"
        }
      ],
      "stateMutability": "view",
      "type": "function"
    },
    {
      "inputs": [],
      "name": "twapPeriod",
      "outputs": [
        {
          "internalType": "uint32",
          "name": "",
          "type": "uint32"
        }
      ],
      "stateMutability": "view",
      "type": "function"
    },
    {
      "inputs": [],
      "name": "uniFinalCurrency",
      "outputs": [
        {
          "internalType": "uint8",
          "name": "",
          "type": "uint8"
        }
      ],
      "stateMutability": "view",
      "type": "function"
    }
  ],
  "bytecode": "0x6101006040526005805463ffffffff199081166201518017909155600c8054909116610e101790553480156200003457600080fd5b506040516200460038038062004600833981016040819052620000579162000d67565b8080610160015181602001518260400151836060015184608001518561012001518660c001518760e001518861010001518961012001516203f4808b610180015160006001600160a01b0316816001600160a01b031603620000d457604051636116401160e11b8152600060048201526024015b60405180910390fd5b600380546001600160d01b0316600160d01b65ffffffffffff851602179055620001006000826200082b565b505084519050806200013b5760405162461bcd60e51b815260206004820152600360248201526218981b60e91b6044820152606401620000cb565b83518114620001735760405162461bcd60e51b81526020600482015260036024820152620c4c0d60ea1b6044820152606401620000cb565b6000825111620001ac5760405162461bcd60e51b815260206004820152600360248201526231303160e81b6044820152606401620000cb565b60005b8251811015620002645760006001600160a01b0316838281518110620001d957620001d962000f8b565b60200260200101516001600160a01b0316036200021d5760405162461bcd60e51b81526020600482015260016024820152600360fc1b6044820152606401620000cb565b6200025a600080516020620045e083398151915284838151811062000246576200024662000f8b565b60200260200101516200082b60201b60201c565b50600101620001af565b5062000280600080516020620045e083398151915280620008a1565b60005b81811015620003ab576000868281518110620002a357620002a362000f8b565b602090810291909101810151600680546001810182556000919091527ff652222313e28459528d920b65115c16c04f3efc82aaedc97be59f3f377c0d3f0180546001600160a01b0319166001600160a01b0383169081179091556040805163313ce56760e01b81529051929450600893919263313ce567926004808401939192918290030181865afa1580156200033e573d6000803e3d6000fd5b505050506040513d601f19601f8201168201806040525081019062000364919062000fa1565b8154600181810184556000938452602093849020938204909301805460ff938416601f9093166101000a928302939092021990911691909117905591909101905062000283565b506005805463ffffffff191663ffffffff85161790558351620003d6906007906020870190620009cd565b5050505050506000815111620004155760405162461bcd60e51b815260206004820152600360248201526231303160e81b6044820152606401620000cb565b60005b8151811015620004b95760006001600160a01b031682828151811062000442576200044262000f8b565b60200260200101516001600160a01b031603620004865760405162461bcd60e51b81526020600482015260016024820152600360fc1b6044820152606401620000cb565b620004af600080516020620045e083398151915283838151811062000246576200024662000f8b565b5060010162000418565b50620004d5600080516020620045e083398151915280620008a1565b60008360030b13620005105760405162461bcd60e51b815260206004820152600360248201526218981960e91b6044820152606401620000cb565b845180620005475760405162461bcd60e51b815260206004820152600360248201526231303360e81b6044820152606401620000cb565b845181146200057f5760405162461bcd60e51b81526020600482015260036024820152620c4c0d60ea1b6044820152606401620000cb565b6009805463ffffffff191663ffffffff86161790558551620005a990600a90602089019062000a7a565b508451620005bf90600b906020880190620009cd565b5060005b818110156200065b57600a8181548110620005e257620005e262000f8b565b6000918252602090912001546040516332148f6760e01b815261ffff861660048201526001600160a01b03909116906332148f6790602401600060405180830381600087803b1580156200063557600080fd5b505af11580156200064a573d6000803e3d6000fd5b505060019092019150620005c39050565b5050506001600160a01b0390941660805250506001600d555050805151600214620006af5760405162461bcd60e51b815260206004820152600360248201526231303760e81b6044820152606401620000cb565b60008160000151600081518110620006cb57620006cb62000f8b565b6020026020010151905060008260000151600181518110620006f157620006f162000f8b565b60200260200101519050816001600160a01b031663313ce5676040518163ffffffff1660e01b8152600401602060405180830381865afa1580156200073a573d6000803e3d6000fd5b505050506040513d601f19601f8201168201806040525081019062000760919062000fa1565b6200076d90600a620010d2565b600081905550806001600160a01b031663313ce5676040518163ffffffff1660e01b8152600401602060405180830381865afa158015620007b2573d6000803e3d6000fd5b505050506040513d601f19601f82011682018060405250810190620007d8919062000fa1565b620007e590600a620010d2565b60c052505060a08082015160ff1690526101400151600155600e6200080b858262001174565b50600f6200081a848262001174565b505060ff1660e05250620012409050565b6000826200088c576000620008486004546001600160a01b031690565b6001600160a01b0316146200087057604051631fe1e13d60e11b815260040160405180910390fd5b600480546001600160a01b0319166001600160a01b0384161790555b620008988383620008d0565b90505b92915050565b81620008c057604051631fe1e13d60e11b815260040160405180910390fd5b620008cc828262000982565b5050565b60008281526002602090815260408083206001600160a01b038516845290915281205460ff16620009795760008381526002602090815260408083206001600160a01b03861684529091529020805460ff19166001179055620009303390565b6001600160a01b0316826001600160a01b0316847f2f8788117e7eff1d82e926ec794901d17c78024a50270940304540a733656f0d60405160405180910390a45060016200089b565b5060006200089b565b600082815260026020526040808220600101805490849055905190918391839186917fbd79b86ffe0ab8e8776151514217cd7cacd52c909f66475c3af44e129f0b00ff9190a4505050565b82805482825590600052602060002090601f0160209004810192821562000a685791602002820160005b8382111562000a3757835183826101000a81548160ff021916908360ff1602179055509260200192600101602081600001049283019260010302620009f7565b801562000a665782816101000a81549060ff021916905560010160208160000104928301926001030262000a37565b505b5062000a7692915062000ad2565b5090565b82805482825590600052602060002090810192821562000a68579160200282015b8281111562000a6857825182546001600160a01b0319166001600160a01b0390911617825560209092019160019091019062000a9b565b5b8082111562000a76576000815560010162000ad3565b634e487b7160e01b600052604160045260246000fd5b6040516101a081016001600160401b038111828210171562000b255762000b2562000ae9565b60405290565b604051601f8201601f191681016001600160401b038111828210171562000b565762000b5662000ae9565b604052919050565b600082601f83011262000b7057600080fd5b81516001600160401b0381111562000b8c5762000b8c62000ae9565b602062000ba2601f8301601f1916820162000b2b565b828152858284870101111562000bb757600080fd5b60005b8381101562000bd757858101830151828201840152820162000bba565b506000928101909101919091529392505050565b805160ff8116811462000bfd57600080fd5b919050565b60006001600160401b0382111562000c1e5762000c1e62000ae9565b5060051b60200190565b6001600160a01b038116811462000c3e57600080fd5b50565b805162000bfd8162000c28565b600082601f83011262000c6057600080fd5b8151602062000c7962000c738362000c02565b62000b2b565b8083825260208201915060208460051b87010193508684111562000c9c57600080fd5b602086015b8481101562000cc557805162000cb78162000c28565b835291830191830162000ca1565b509695505050505050565b600082601f83011262000ce257600080fd5b8151602062000cf562000c738362000c02565b8083825260208201915060208460051b87010193508684111562000d1857600080fd5b602086015b8481101562000cc55762000d318162000beb565b835291830191830162000d1d565b805163ffffffff8116811462000bfd57600080fd5b805161ffff8116811462000bfd57600080fd5b6000806000806080858703121562000d7e57600080fd5b84516001600160401b038082111562000d9657600080fd5b62000da48883890162000b5e565b9550602087015191508082111562000dbb57600080fd5b62000dc98883890162000b5e565b945062000dd96040880162000beb565b9350606087015191508082111562000df057600080fd5b908601906101a0828903121562000e0657600080fd5b62000e1062000aff565b82518281111562000e2057600080fd5b62000e2e8a82860162000c4e565b82525060208301518281111562000e4457600080fd5b62000e528a82860162000c4e565b60208301525060408301518281111562000e6b57600080fd5b62000e798a82860162000cd0565b60408301525062000e8d6060840162000d3f565b606082015262000ea06080840162000d54565b608082015262000eb360a0840162000beb565b60a082015260c08301518281111562000ecb57600080fd5b62000ed98a82860162000c4e565b60c08301525060e08301518281111562000ef257600080fd5b62000f008a82860162000cd0565b60e08301525061010062000f1681850162000d3f565b90820152610120838101518381111562000f2f57600080fd5b62000f3d8b82870162000c4e565b82840152505061014091508183015182820152610160915062000f6282840162000c41565b82820152610180915062000f7882840162000c41565b8282015280935050505092959194509250565b634e487b7160e01b600052603260045260246000fd5b60006020828403121562000fb457600080fd5b620008988262000beb565b634e487b7160e01b600052601160045260246000fd5b600181815b808511156200101657816000190482111562000ffa5762000ffa62000fbf565b808516156200100857918102915b93841c939080029062000fda565b509250929050565b6000826200102f575060016200089b565b816200103e575060006200089b565b8160018114620010575760028114620010625762001082565b60019150506200089b565b60ff84111562001076576200107662000fbf565b50506001821b6200089b565b5060208310610133831016604e8410600b8410161715620010a7575081810a6200089b565b620010b3838362000fd5565b8060001904821115620010ca57620010ca62000fbf565b029392505050565b60006200089860ff8416836200101e565b600181811c90821680620010f857607f821691505b6020821081036200111957634e487b7160e01b600052602260045260246000fd5b50919050565b601f8211156200116f576000816000526020600020601f850160051c810160208610156200114a5750805b601f850160051c820191505b818110156200116b5782815560010162001156565b5050505b505050565b81516001600160401b0381111562001190576200119062000ae9565b620011a881620011a18454620010e3565b846200111f565b602080601f831160018114620011e05760008415620011c75750858301515b600019600386901b1c1916600185901b1785556200116b565b600085815260208120601f198616915b828110156200121157888601518255948401946001909101908401620011f0565b5085821015620012305787850151600019600388901b60f8161c191681555b5050505050600190811b01905550565b60805160a05160c05160e05161333c620012a460003960006104790152600081816103e4015281816112d501526113860152600081816108100152818161131601526113f90152600081816106af015281816117170152611757015261333c6000f3fe608060405234801561001057600080fd5b50600436106103575760003560e01c80639aefb5c3116101c8578063cf6eefb711610104578063d74febcb116100a2578063ed2f86031161007c578063ed2f8603146107fb578063ee32d6411461080b578063eeb8a8d314610832578063f62073261461084557600080fd5b8063d74febcb146107c6578063dbda63de146107d9578063ec342ad0146107ec57600080fd5b8063d547741f116100de578063d547741f1461076e578063d568866c14610781578063d602b9fd14610794578063d6d7d5251461079c57600080fd5b8063cf6eefb714610707578063d28d885214610753578063d39bbef01461075b57600080fd5b8063b09f126611610171578063c699c4d61161014b578063c699c4d6146106d1578063cc8463c8146106e4578063cefc1429146106ec578063cf330c26146106f457600080fd5b8063b09f126614610682578063b31dbb9f14610697578063c5980182146106aa57600080fd5b8063a217fddf116101a2578063a217fddf14610655578063a47b5a7c146103a0578063a5b36a361461065d57600080fd5b80639aefb5c3146106125780639e0a85001461061b578063a1eda53c1461062e57600080fd5b806341f654f711610297578063649a5ec71161024057806384ef8ffc1161021a57806384ef8ffc1461057d5780638da5cb5b146105bc57806391d14854146105c457806392611e331461060a57600080fd5b8063649a5ec71461054e57806365cf10b6146105615780637284e4161461057457600080fd5b806357de26a41161027157806357de26a414610520578063630914d114610528578063634e93da1461053b57600080fd5b806341f654f7146104d4578063442133bd146104f15780634842855c146104f957600080fd5b8063248a9ca311610304578063313ce567116102de578063313ce567146104745780633593ba7b1461049b57806336568abe146104ae578063408b0546146104c157600080fd5b8063248a9ca3146104195780632b271dde1461043c5780632f2ff15d1461046157600080fd5b80630aa6220b116103355780630aa6220b146103d557806322834baa146103df578063240fd5ab1461040657600080fd5b806301ffc9a71461035c578063022d63fb146103845780630942d09a146103a0575b600080fd5b61036f61036a366004612a77565b610855565b60405190151581526020015b60405180910390f35b620697805b60405165ffffffffffff909116815260200161037b565b6103c77f55435dd261a4b9b3364963f7738a7a662ad9c84396d64be3365284bb7f0a504181565b60405190815260200161037b565b6103dd6108b1565b005b6103c77f000000000000000000000000000000000000000000000000000000000000000081565b6103c7610414366004612ab9565b6108c7565b6103c7610427366004612ab9565b60009081526002602052604090206001015490565b61044f61044a366004612ab9565b6108d2565b60405160ff909116815260200161037b565b6103dd61046f366004612af4565b610906565b61044f7f000000000000000000000000000000000000000000000000000000000000000081565b6103c76104a9366004612ab9565b61094b565b6103dd6104bc366004612af4565b61095f565b6103dd6104cf366004612b24565b610a69565b6104dc610acb565b6040805192835260208301919091520161037b565b6103c7610ae1565b6103c77fac4f1890dc96c9a02330d1fa696648a38f3b282d2449c2d8e6f10507488c84c881565b6103c7610aee565b6103dd610536366004612b24565b610b00565b6103dd610549366004612b4a565b610b62565b6103dd61055c366004612b67565b610b76565b6103dd61056f366004612b8f565b610b8a565b6103c760015481565b60045473ffffffffffffffffffffffffffffffffffffffff165b60405173ffffffffffffffffffffffffffffffffffffffff909116815260200161037b565b610597610c46565b61036f6105d2366004612af4565b600091825260026020908152604080842073ffffffffffffffffffffffffffffffffffffffff93909316845291905290205460ff1690565b6103c7610c67565b6103c760005481565b61044f610629366004612ab9565b610c7a565b610636610c8a565b6040805165ffffffffffff93841681529290911660208301520161037b565b6103c7600081565b60055461066d9063ffffffff1681565b60405163ffffffff909116815260200161037b565b61068a610d02565b60405161037b9190612bb3565b6103dd6106a5366004612b24565b610d90565b6105977f000000000000000000000000000000000000000000000000000000000000000081565b61068a6106df366004612c20565b610e5f565b610389610ef4565b6103dd610f92565b610597610702366004612ab9565b610fee565b6003546040805173ffffffffffffffffffffffffffffffffffffffff831681527401000000000000000000000000000000000000000090920465ffffffffffff1660208301520161037b565b61068a611025565b6103c7610769366004612c20565b611032565b6103dd61077c366004612af4565b611098565b61068a61078f366004612c20565b6110d9565b6103dd6110e8565b6107af6107aa366004612c20565b6110fb565b60408051921515835260208301919091520161037b565b6105976107d4366004612ab9565b611187565b61044f6107e7366004612ab9565b611197565b6103c7670de0b6b3a764000081565b600c5461066d9063ffffffff1681565b61044f7f000000000000000000000000000000000000000000000000000000000000000081565b6107af610840366004612c20565b6111a7565b60095461066d9063ffffffff1681565b60007fffffffff0000000000000000000000000000000000000000000000000000000082167f314987860000000000000000000000000000000000000000000000000000000014806108ab57506108ab82611218565b92915050565b60006108bc816112af565b6108c46112b9565b50565b60006108ab826112c6565b600b81815481106108e257600080fd5b9060005260206000209060209182820401919006915054906101000a900460ff1681565b8161093d576040517f3fc3c27a00000000000000000000000000000000000000000000000000000000815260040160405180910390fd5b610947828261134b565b5050565b60008061095783611376565b509392505050565b81158015610987575060045473ffffffffffffffffffffffffffffffffffffffff8281169116145b15610a5f5760035473ffffffffffffffffffffffffffffffffffffffff81169074010000000000000000000000000000000000000000900465ffffffffffff16811515806109db575065ffffffffffff8116155b806109ee57504265ffffffffffff821610155b15610a34576040517f19ca5ebb00000000000000000000000000000000000000000000000000000000815265ffffffffffff821660048201526024015b60405180910390fd5b5050600380547fffffffffffff000000000000ffffffffffffffffffffffffffffffffffffffff1690555b6109478282611431565b7fac4f1890dc96c9a02330d1fa696648a38f3b282d2449c2d8e6f10507488c84c8610a93816112af565b50600c80547fffffffffffffffffffffffffffffffffffffffffffffffffffffffff000000001663ffffffff92909216919091179055565b600080610ad9600054611376565b915091509091565b60006108ab600054611376565b6000610afb6000546112c6565b905090565b7f55435dd261a4b9b3364963f7738a7a662ad9c84396d64be3365284bb7f0a5041610b2a816112af565b50600580547fffffffffffffffffffffffffffffffffffffffffffffffffffffffff000000001663ffffffff92909216919091179055565b6000610b6d816112af565b6109478261148f565b6000610b81816112af565b6109478261150f565b60005b600a5481101561094757600a8181548110610baa57610baa612c92565b6000918252602090912001546040517f32148f6700000000000000000000000000000000000000000000000000000000815261ffff8416600482015273ffffffffffffffffffffffffffffffffffffffff909116906332148f6790602401600060405180830381600087803b158015610c2257600080fd5b505af1158015610c36573d6000803e3d6000fd5b505060019092019150610b8d9050565b6000610afb60045473ffffffffffffffffffffffffffffffffffffffff1690565b6000610c74600054611376565b50919050565b600781815481106108e257600080fd5b6004546000907a010000000000000000000000000000000000000000000000000000900465ffffffffffff168015158015610ccd57504265ffffffffffff821610155b610cd957600080610ad9565b60045474010000000000000000000000000000000000000000900465ffffffffffff1692909150565b600f8054610d0f90612cc1565b80601f0160208091040260200160405190810160405280929190818152602001828054610d3b90612cc1565b8015610d885780601f10610d5d57610100808354040283529160200191610d88565b820191906000526020600020905b815481529060010190602001808311610d6b57829003601f168201915b505050505081565b7f55435dd261a4b9b3364963f7738a7a662ad9c84396d64be3365284bb7f0a5041610dba816112af565b60008260030b13610e27576040517f08c379a000000000000000000000000000000000000000000000000000000000815260206004820152600260248201527f39390000000000000000000000000000000000000000000000000000000000006044820152606401610a2b565b50600980547fffffffffffffffffffffffffffffffffffffffffffffffffffffffff000000001663ffffffff92909216919091179055565b6060600f8054610e6e90612cc1565b80601f0160208091040260200160405190810160405280929190818152602001828054610e9a90612cc1565b8015610ee75780601f10610ebc57610100808354040283529160200191610ee7565b820191906000526020600020905b815481529060010190602001808311610eca57829003601f168201915b5050505050905092915050565b6004546000907a010000000000000000000000000000000000000000000000000000900465ffffffffffff168015158015610f3657504265ffffffffffff8216105b610f68576003547a010000000000000000000000000000000000000000000000000000900465ffffffffffff16610f8c565b60045474010000000000000000000000000000000000000000900465ffffffffffff165b91505090565b60035473ffffffffffffffffffffffffffffffffffffffff16338114610fe6576040517fc22c8022000000000000000000000000000000000000000000000000000000008152336004820152602401610a2b565b6108c461157f565b60068181548110610ffe57600080fd5b60009182526020909120015473ffffffffffffffffffffffffffffffffffffffff16905081565b600e8054610d0f90612cc1565b6000806000611042600054611376565b9092509050831561108057600061105b85870187612d8c565b80519091501561107e578183116110725781611074565b825b93505050506108ab565b505b80821061108d578061108f565b815b95945050505050565b816110cf576040517f3fc3c27a00000000000000000000000000000000000000000000000000000000815260040160405180910390fd5b6109478282611672565b6060600e8054610e6e90612cc1565b60006110f3816112af565b6108c4611697565b6000806111066116a2565b61110e611715565b60008061111c600054611376565b9092509050841561115e57600061113586880188612d8c565b80519091501561115c57600182841161114e5782611150565b835b94509450505050611176565b505b600181831061116d578161116f565b825b9350935050505b6111806001600d55565b9250929050565b600a8181548110610ffe57600080fd5b600881815481106108e257600080fd5b6000806000806111b8600054611376565b909250905084156111fa5760006111d186880188612d8c565b8051909150156111f85760018284116111ea57826111ec565b835b94509450505050611180565b505b6001818310611209578161120b565b825b9350935050509250929050565b60007fffffffff0000000000000000000000000000000000000000000000000000000082167f7965db0b0000000000000000000000000000000000000000000000000000000014806108ab57507f01ffc9a7000000000000000000000000000000000000000000000000000000007fffffffff000000000000000000000000000000000000000000000000000000008316146108ab565b6108c48133611876565b6112c46000806118fe565b565b60006112d182611a58565b90507f0000000000000000000000000000000000000000000000000000000000000000611306670de0b6b3a764000083612e0c565b6113109190612e52565b905060ff7f00000000000000000000000000000000000000000000000000000000000000001615611346576108ab600082611aec565b919050565b600082815260026020526040902060010154611366816112af565b6113708383611bb4565b50505050565b60008061138283611a58565b91507f00000000000000000000000000000000000000000000000000000000000000006113b7670de0b6b3a764000084612e0c565b6113c19190612e52565b6000549092506113d9670de0b6b3a764000085612e0c565b6113e39190612e52565b905060006113f082611c7b565b909250905060ff7f0000000000000000000000000000000000000000000000000000000000000000161561142b576114288184611aec565b92505b50915091565b73ffffffffffffffffffffffffffffffffffffffff81163314611480576040517f6697b23200000000000000000000000000000000000000000000000000000000815260040160405180910390fd5b61148a8282611d47565b505050565b6000611499610ef4565b6114a242611da9565b6114ac9190612e66565b90506114b88282611e45565b60405165ffffffffffff8216815273ffffffffffffffffffffffffffffffffffffffff8316907f3377dc44241e779dd06afab5b788a35ca5f3b778836e2990bdb26a2a4b2e5ed69060200160405180910390a25050565b600061151a82611ee1565b61152342611da9565b61152d9190612e66565b905061153982826118fe565b6040805165ffffffffffff8085168252831660208201527ff1038c18cf84a56e432fdbfaf746924b7ea511dfe03a6506a0ceba4888788d9b910160405180910390a15050565b60035473ffffffffffffffffffffffffffffffffffffffff81169074010000000000000000000000000000000000000000900465ffffffffffff168015806115cf57504265ffffffffffff821610155b15611610576040517f19ca5ebb00000000000000000000000000000000000000000000000000000000815265ffffffffffff82166004820152602401610a2b565b611639600061163460045473ffffffffffffffffffffffffffffffffffffffff1690565b611d47565b50611645600083611bb4565b5050600380547fffffffffffff000000000000000000000000000000000000000000000000000016905550565b60008281526002602052604090206001015461168d816112af565b6113708383611d47565b6112c4600080611e45565b6002600d540361170e576040517f08c379a000000000000000000000000000000000000000000000000000000000815260206004820152601f60248201527f5265656e7472616e637947756172643a207265656e7472616e742063616c6c006044820152606401610a2b565b6002600d55565b7f000000000000000000000000000000000000000000000000000000000000000073ffffffffffffffffffffffffffffffffffffffff1661175257565b6000807f000000000000000000000000000000000000000000000000000000000000000073ffffffffffffffffffffffffffffffffffffffff1663feaf968c6040518163ffffffff1660e01b815260040160a060405180830381865afa1580156117c0573d6000803e3d6000fd5b505050506040513d601f19601f820116820180604052508101906117e49190612ea6565b509194509250508215905080611826576040517f032b3d0000000000000000000000000000000000000000000000000000000000815260040160405180910390fd5b60006118328342612ef6565b600c5490915063ffffffff168111611370576040517fd15f73b500000000000000000000000000000000000000000000000000000000815260040160405180910390fd5b600082815260026020908152604080832073ffffffffffffffffffffffffffffffffffffffff8516845290915290205460ff16610947576040517fe2517d3f00000000000000000000000000000000000000000000000000000000815273ffffffffffffffffffffffffffffffffffffffff8216600482015260248101839052604401610a2b565b6004547a010000000000000000000000000000000000000000000000000000900465ffffffffffff1680156119d3574265ffffffffffff821610156119a9576004546003805479ffffffffffffffffffffffffffffffffffffffffffffffffffff167401000000000000000000000000000000000000000090920465ffffffffffff167a010000000000000000000000000000000000000000000000000000029190911790556119d3565b6040517f2b1fa2edafe6f7b9e97c1a9e0c3660e645beb2dcaa2d45bdbf9beaf5472e1ec590600090a15b506004805473ffffffffffffffffffffffffffffffffffffffff167401000000000000000000000000000000000000000065ffffffffffff9485160279ffffffffffffffffffffffffffffffffffffffffffffffffffff16177a0100000000000000000000000000000000000000000000000000009290931691909102919091179055565b6000805b600a54811015611ae557611adb83600a8381548110611a7d57611a7d612c92565b600091825260209091200154600b805473ffffffffffffffffffffffffffffffffffffffff9092169185908110611ab657611ab6612c92565b90600052602060002090602091828204019190069054906101000a900460ff16611f29565b9250600101611a5c565b5090919050565b6006546000908190611b0090600190612ef6565b9050611bab8360068381548110611b1957611b19612c92565b6000918252602090912001546007805473ffffffffffffffffffffffffffffffffffffffff9092169185908110611b5257611b52612c92565b90600052602060002090602091828204019190069054906101000a900460ff1660088581548110611b8557611b85612c92565b60009182526020918290209181049091015460ff601f9092166101000a90041688612121565b50949350505050565b600082611c6a576000611bdc60045473ffffffffffffffffffffffffffffffffffffffff1690565b73ffffffffffffffffffffffffffffffffffffffff1614611c29576040517f3fc3c27a00000000000000000000000000000000000000000000000000000000815260040160405180910390fd5b600480547fffffffffffffffffffffffff00000000000000000000000000000000000000001673ffffffffffffffffffffffffffffffffffffffff84161790555b611c748383612190565b9392505050565b6000806000805b600654811015611d3f57611d328560068381548110611ca357611ca3612c92565b6000918252602090912001546007805473ffffffffffffffffffffffffffffffffffffffff9092169185908110611cdc57611cdc612c92565b90600052602060002090602091828204019190069054906101000a900460ff1660088581548110611d0f57611d0f612c92565b60009182526020808320908204015460ff601f9092166101000a90041690612121565b9095509150600101611c82565b509293915050565b600082158015611d71575060045473ffffffffffffffffffffffffffffffffffffffff8381169116145b15611d9f57600480547fffffffffffffffffffffffff00000000000000000000000000000000000000001690555b611c748383612290565b600065ffffffffffff821115611e41576040517f08c379a000000000000000000000000000000000000000000000000000000000815260206004820152602660248201527f53616665436173743a2076616c756520646f65736e27742066697420696e203460448201527f38206269747300000000000000000000000000000000000000000000000000006064820152608401610a2b565b5090565b600380547401000000000000000000000000000000000000000065ffffffffffff84811682027fffffffffffff0000000000000000000000000000000000000000000000000000841673ffffffffffffffffffffffffffffffffffffffff88161717909355900416801561148a576040517f8886ebfc4259abdbc16601dd8fb5678e54878f47b3c34836cfc51154a960510990600090a1505050565b600080611eec610ef4565b90508065ffffffffffff168365ffffffffffff1611611f1457611f0f8382612f09565b611c74565b611c7465ffffffffffff84166206978061234f565b604080516002808252606082018352600092839291906020830190803683375050600954825192935063ffffffff1691839150600090611f6b57611f6b612c92565b602002602001019063ffffffff16908163ffffffff1681525050600081600181518110611f9a57611f9a612c92565b63ffffffff909216602092830291909101909101526040517f883bdbfd00000000000000000000000000000000000000000000000000000000815260009073ffffffffffffffffffffffffffffffffffffffff86169063883bdbfd90612004908590600401612f28565b600060405180830381865afa158015612021573d6000803e3d6000fd5b505050506040513d6000823e601f3d9081017fffffffffffffffffffffffffffffffffffffffffffffffffffffffffffffffe0168201604052612067919081019061300e565b50905060008160008151811061207f5761207f612c92565b60200260200101518260018151811061209a5761209a612c92565b60200260200101516120ac91906130da565b6009549091506000906120c89063ffffffff1660030b8361311f565b905060008260060b1280156120f457506009546120ee9063ffffffff1660030b83613175565b60060b15155b15612107578061210381613197565b9150505b61211581898860ff1661235e565b98975050505050505050565b60008061212e868461239f565b92508460ff166001036121615761214684600a6132ba565b6121508489612e0c565b61215a9190612e52565b9650612184565b8261216d85600a6132ba565b6121779089612e0c565b6121819190612e52565b96505b50949590945092505050565b600082815260026020908152604080832073ffffffffffffffffffffffffffffffffffffffff8516845290915281205460ff1661228857600083815260026020908152604080832073ffffffffffffffffffffffffffffffffffffffff86168452909152902080547fffffffffffffffffffffffffffffffffffffffffffffffffffffffffffffff001660011790556122263390565b73ffffffffffffffffffffffffffffffffffffffff168273ffffffffffffffffffffffffffffffffffffffff16847f2f8788117e7eff1d82e926ec794901d17c78024a50270940304540a733656f0d60405160405180910390a45060016108ab565b5060006108ab565b600082815260026020908152604080832073ffffffffffffffffffffffffffffffffffffffff8516845290915281205460ff161561228857600083815260026020908152604080832073ffffffffffffffffffffffffffffffffffffffff8616808552925280832080547fffffffffffffffffffffffffffffffffffffffffffffffffffffffffffffff0016905551339286917ff6391f5c32d9c69d2a47ea670b442974b53935d1edc7fd64eb21e047a839171b9190a45060016108ab565b6000818310611ae55781611c74565b60008061236a85612641565b90508260011461238c57612387670de0b6b3a764000085836129c9565b61108f565b61108f8185670de0b6b3a76400006129c9565b600081600003610c74576000808473ffffffffffffffffffffffffffffffffffffffff1663feaf968c6040518163ffffffff1660e01b815260040160a060405180830381865afa1580156123f7573d6000803e3d6000fd5b505050506040513d601f19601f8201168201806040525081019061241b9190612ea6565b509350509250508473ffffffffffffffffffffffffffffffffffffffff1663245a7bfc6040518163ffffffff1660e01b8152600401602060405180830381865afa15801561246d573d6000803e3d6000fd5b505050506040513d601f19601f8201168201806040525081019061249191906132c6565b73ffffffffffffffffffffffffffffffffffffffff166322adbc786040518163ffffffff1660e01b8152600401602060405180830381865afa1580156124db573d6000803e3d6000fd5b505050506040513d601f19601f820116820180604052508101906124ff91906132e3565b60170b821315806125ef57508473ffffffffffffffffffffffffffffffffffffffff1663245a7bfc6040518163ffffffff1660e01b8152600401602060405180830381865afa158015612556573d6000803e3d6000fd5b505050506040513d601f19601f8201168201806040525081019061257a91906132c6565b73ffffffffffffffffffffffffffffffffffffffff166370da2f676040518163ffffffff1660e01b8152600401602060405180830381865afa1580156125c4573d6000803e3d6000fd5b505050506040513d601f19601f820116820180604052508101906125e891906132e3565b60170b8212155b8061260a575060055463ffffffff166126088242612ef6565b115b15610957576040517fae19356300000000000000000000000000000000000000000000000000000000815260040160405180910390fd5b60008060008360020b12612658578260020b612660565b8260020b6000035b9050620d89e88111156126cf576040517f08c379a000000000000000000000000000000000000000000000000000000000815260206004820152600160248201527f54000000000000000000000000000000000000000000000000000000000000006044820152606401610a2b565b6000816001166000036126f357700100000000000000000000000000000000612705565b6ffff97272373d413259a46990580e213a5b70ffffffffffffffffffffffffffffffffff1690506002821615612739576ffff2e50f5f656932ef12357cf3c7fdcc0260801c5b6004821615612758576fffe5caca7e10e4e61c3624eaa0941cd00260801c5b6008821615612777576fffcb9843d60f6159c9db58835c9266440260801c5b6010821615612796576fff973b41fa98c081472e6896dfb254c00260801c5b60208216156127b5576fff2ea16466c96a3843ec78b326b528610260801c5b60408216156127d4576ffe5dee046a99a2a811c461f1969c30530260801c5b60808216156127f3576ffcbe86c7900a88aedcffc83b479aa3a40260801c5b610100821615612813576ff987a7253ac413176f2b074cf7815e540260801c5b610200821615612833576ff3392b0822b70005940c7a398e4b70f30260801c5b610400821615612853576fe7159475a2c29b7443b29c7fa6e889d90260801c5b610800821615612873576fd097f3bdfd2022b8845ad8f792aa58250260801c5b611000821615612893576fa9f746462d870fdf8a65dc1f90e061e50260801c5b6120008216156128b3576f70d869a156d2a1b890bb3df62baf32f70260801c5b6140008216156128d3576f31be135f97d08fd981231505542fcfa60260801c5b6180008216156128f3576f09aa508b5b7a84e1c677de54f3e99bc90260801c5b62010000821615612913576e5d6af8dedb81196699c329225ee6040260801c5b62020000821615612932576d2216e584f5fa1ea926041bedfe980260801c5b6204000082161561294f576b048a170391f7dc42444e8fa20260801c5b620800008216156129675766149b34ee7ac2620260801c5b60008460020b131561298857806000198161298457612984612e23565b0490505b6000682000000000000000008206156129a25760016129a5565b60005b60ff16604583901c019050603b81670de0b6b3a764000002901c9350505050919050565b6000808060001985870985870292508281108382030391505080600003612a0257836000036129f757600080fd5b508290049050611c74565b808411612a0e57600080fd5b60008486880960026001871981018816978890046003810283188082028403028082028403028082028403028082028403028082028403029081029092039091026000889003889004909101858311909403939093029303949094049190911702949350505050565b600060208284031215612a8957600080fd5b81357fffffffff0000000000000000000000000000000000000000000000000000000081168114611c7457600080fd5b600060208284031215612acb57600080fd5b5035919050565b73ffffffffffffffffffffffffffffffffffffffff811681146108c457600080fd5b60008060408385031215612b0757600080fd5b823591506020830135612b1981612ad2565b809150509250929050565b600060208284031215612b3657600080fd5b813563ffffffff81168114611c7457600080fd5b600060208284031215612b5c57600080fd5b8135611c7481612ad2565b600060208284031215612b7957600080fd5b813565ffffffffffff81168114611c7457600080fd5b600060208284031215612ba157600080fd5b813561ffff81168114611c7457600080fd5b60006020808352835180602085015260005b81811015612be157858101830151858201604001528201612bc5565b5060006040828601015260407fffffffffffffffffffffffffffffffffffffffffffffffffffffffffffffffe0601f8301168501019250505092915050565b60008060208385031215612c3357600080fd5b823567ffffffffffffffff80821115612c4b57600080fd5b818501915085601f830112612c5f57600080fd5b813581811115612c6e57600080fd5b866020828501011115612c8057600080fd5b60209290920196919550909350505050565b7f4e487b7100000000000000000000000000000000000000000000000000000000600052603260045260246000fd5b600181811c90821680612cd557607f821691505b602082108103610c74577f4e487b7100000000000000000000000000000000000000000000000000000000600052602260045260246000fd5b7f4e487b7100000000000000000000000000000000000000000000000000000000600052604160045260246000fd5b604051601f82017fffffffffffffffffffffffffffffffffffffffffffffffffffffffffffffffe016810167ffffffffffffffff81118282101715612d8457612d84612d0e565b604052919050565b600060208284031215612d9e57600080fd5b6040516020810181811067ffffffffffffffff82111715612dc157612dc1612d0e565b60405282358015158114612dd457600080fd5b81529392505050565b7f4e487b7100000000000000000000000000000000000000000000000000000000600052601160045260246000fd5b80820281158282048414176108ab576108ab612ddd565b7f4e487b7100000000000000000000000000000000000000000000000000000000600052601260045260246000fd5b600082612e6157612e61612e23565b500490565b65ffffffffffff818116838216019080821115612e8557612e85612ddd565b5092915050565b805169ffffffffffffffffffff8116811461134657600080fd5b600080600080600060a08688031215612ebe57600080fd5b612ec786612e8c565b9450602086015193506040860151925060608601519150612eea60808701612e8c565b90509295509295909350565b818103818111156108ab576108ab612ddd565b65ffffffffffff828116828216039080821115612e8557612e85612ddd565b6020808252825182820181905260009190848201906040850190845b81811015612f6657835163ffffffff1683529284019291840191600101612f44565b50909695505050505050565b600067ffffffffffffffff821115612f8c57612f8c612d0e565b5060051b60200190565b600082601f830112612fa757600080fd5b81516020612fbc612fb783612f72565b612d3d565b8083825260208201915060208460051b870101935086841115612fde57600080fd5b602086015b84811015613003578051612ff681612ad2565b8352918301918301612fe3565b509695505050505050565b6000806040838503121561302157600080fd5b825167ffffffffffffffff8082111561303957600080fd5b818501915085601f83011261304d57600080fd5b8151602061305d612fb783612f72565b82815260059290921b8401810191818101908984111561307c57600080fd5b948201945b838610156130aa5785518060060b811461309b5760008081fd5b82529482019490820190613081565b918801519196509093505050808211156130c357600080fd5b506130d085828601612f96565b9150509250929050565b600682810b9082900b037fffffffffffffffffffffffffffffffffffffffffffffffffff800000000000008112667fffffffffffff821317156108ab576108ab612ddd565b60008160060b8360060b8061313657613136612e23565b60001981147fffffffffffffffffffffffffffffffffffffffffffffffffff800000000000008314161561316c5761316c612ddd565b90059392505050565b60008260060b8061318857613188612e23565b808360060b0791505092915050565b60008160020b7fffffffffffffffffffffffffffffffffffffffffffffffffffffffffff80000081036131cc576131cc612ddd565b6000190192915050565b600181815b808511156132115781600019048211156131f7576131f7612ddd565b8085161561320457918102915b93841c93908002906131db565b509250929050565b600082613228575060016108ab565b81613235575060006108ab565b816001811461324b576002811461325557613271565b60019150506108ab565b60ff84111561326657613266612ddd565b50506001821b6108ab565b5060208310610133831016604e8410600b8410161715613294575081810a6108ab565b61329e83836131d6565b80600019048211156132b2576132b2612ddd565b029392505050565b6000611c748383613219565b6000602082840312156132d857600080fd5b8151611c7481612ad2565b6000602082840312156132f557600080fd5b81518060170b8114611c7457600080fdfea2646970667358221220a248fcf9885c1ed26a9aa33b8457e9ec3f4f9c71d47b1553bb22d0cc31a42e2564736f6c6343000816003355435dd261a4b9b3364963f7738a7a662ad9c84396d64be3365284bb7f0a5041",
  "linkReferences": {},
  "deployedLinkReferences": {}
}