{
  "_format": "hh-sol-artifact-1",
  "contractName": "ZeroXSwapper",
  "sourceName": "contracts/Swapper/ZeroXSwapper.sol",
  "abi": [
    {
      "inputs": [
        {
          "internalType": "address",
          "name": "_zeroXProxy",
          "type": "address"
        },
        {
          "internalType": "contract ICluster",
          "name": "_cluster",
          "type": "address"
        },
        {
          "internalType": "address",
          "name": "_owner",
          "type": "address"
        }
      ],
      "stateMutability": "nonpayable",
      "type": "constructor"
    },
    {
      "inputs": [
        {
          "internalType": "address",
          "name": "actual",
          "type": "address"
        },
        {
          "internalType": "address",
          "name": "expected",
          "type": "address"
        }
      ],
      "name": "InvalidProxy",
      "type": "error"
    },
    {
      "inputs": [
        {
          "internalType": "uint256",
          "name": "amountOut",
          "type": "uint256"
        }
      ],
      "name": "MinSwapFailed",
      "type": "error"
    },
    {
      "inputs": [
        {
          "internalType": "address",
          "name": "sender",
          "type": "address"
        }
      ],
      "name": "SenderNotValid",
      "type": "error"
    },
    {
      "inputs": [],
      "name": "SwapFailed",
      "type": "error"
    },
    {
      "inputs": [],
      "name": "ZeroAddress",
      "type": "error"
    },
    {
      "anonymous": false,
      "inputs": [
        {
          "indexed": true,
          "internalType": "address",
          "name": "previousOwner",
          "type": "address"
        },
        {
          "indexed": true,
          "internalType": "address",
          "name": "newOwner",
          "type": "address"
        }
      ],
      "name": "OwnershipTransferred",
      "type": "event"
    },
    {
      "inputs": [],
      "name": "cluster",
      "outputs": [
        {
          "internalType": "contract ICluster",
          "name": "",
          "type": "address"
        }
      ],
      "stateMutability": "view",
      "type": "function"
    },
    {
      "inputs": [],
      "name": "isOneInchEnabled",
      "outputs": [
        {
          "internalType": "bool",
          "name": "",
          "type": "bool"
        }
      ],
      "stateMutability": "view",
      "type": "function"
    },
    {
      "inputs": [],
      "name": "owner",
      "outputs": [
        {
          "internalType": "address",
          "name": "",
          "type": "address"
        }
      ],
      "stateMutability": "view",
      "type": "function"
    },
    {
      "inputs": [],
      "name": "renounceOwnership",
      "outputs": [],
      "stateMutability": "nonpayable",
      "type": "function"
    },
    {
      "inputs": [
        {
          "internalType": "bool",
          "name": "_isOneInchEnabled",
          "type": "bool"
        }
      ],
      "name": "setIsOneInchEnabled",
      "outputs": [],
      "stateMutability": "nonpayable",
      "type": "function"
    },
    {
      "inputs": [
        {
          "components": [
            {
              "internalType": "contract IERC20",
              "name": "sellToken",
              "type": "address"
            },
            {
              "internalType": "contract IERC20",
              "name": "buyToken",
              "type": "address"
            },
            {
              "internalType": "address payable",
              "name": "swapTarget",
              "type": "address"
            },
            {
              "internalType": "bytes",
              "name": "swapCallData",
              "type": "bytes"
            }
          ],
          "internalType": "struct IZeroXSwapper.SZeroXSwapData",
          "name": "swapData",
          "type": "tuple"
        },
        {
          "internalType": "uint256",
          "name": "amountIn",
          "type": "uint256"
        },
        {
          "internalType": "uint256",
          "name": "minAmountOut",
          "type": "uint256"
        }
      ],
      "name": "swap",
      "outputs": [
        {
          "internalType": "uint256",
          "name": "amountOut",
          "type": "uint256"
        }
      ],
      "stateMutability": "payable",
      "type": "function"
    },
    {
      "inputs": [
        {
          "internalType": "address",
          "name": "newOwner",
          "type": "address"
        }
      ],
      "name": "transferOwnership",
      "outputs": [],
      "stateMutability": "nonpayable",
      "type": "function"
    },
    {
      "inputs": [],
      "name": "zeroXProxy",
      "outputs": [
        {
          "internalType": "address",
          "name": "",
          "type": "address"
        }
      ],
      "stateMutability": "view",
      "type": "function"
    },
    {
      "stateMutability": "payable",
      "type": "receive"
    }
  ],
  "bytecode": "0x60806040523480156200001157600080fd5b5060405162001289380380620012898339810160408190526200003491620001f2565b6200003f33620000ab565b6001600160a01b038316620000675760405163d92e233d60e01b815260040160405180910390fd5b600180546001600160a01b038086166001600160a01b0319928316179092556002805492851692909116919091179055620000a281620000fb565b50505062000246565b600080546001600160a01b038381166001600160a01b0319831681178455604051919092169283917f8be0079c531659141344cd1fd0a4f28419497f9722a3daafe3b4186f6b6457e09190a35050565b620001056200017e565b6001600160a01b038116620001705760405162461bcd60e51b815260206004820152602660248201527f4f776e61626c653a206e6577206f776e657220697320746865207a65726f206160448201526564647265737360d01b60648201526084015b60405180910390fd5b6200017b81620000ab565b50565b6000546001600160a01b03163314620001da5760405162461bcd60e51b815260206004820181905260248201527f4f776e61626c653a2063616c6c6572206973206e6f7420746865206f776e6572604482015260640162000167565b565b6001600160a01b03811681146200017b57600080fd5b6000806000606084860312156200020857600080fd5b83516200021581620001dc565b60208501519093506200022881620001dc565b60408501519092506200023b81620001dc565b809150509250925092565b61103380620002566000396000f3fe60806040526004361061007f5760003560e01c80638da5cb5b1161004e5780638da5cb5b1461015b578063d9c4ff8714610186578063dbd01de1146101a7578063f2fde38b146101d457600080fd5b80631af5c7611461008b578063715018a6146100d257806379682139146100e95780637a08c5671461010957600080fd5b3661008657005b600080fd5b34801561009757600080fd5b506002546100bd9074010000000000000000000000000000000000000000900460ff1681565b60405190151581526020015b60405180910390f35b3480156100de57600080fd5b506100e76101f4565b005b3480156100f557600080fd5b506100e7610104366004610e04565b610208565b34801561011557600080fd5b506001546101369073ffffffffffffffffffffffffffffffffffffffff1681565b60405173ffffffffffffffffffffffffffffffffffffffff90911681526020016100c9565b34801561016757600080fd5b5060005473ffffffffffffffffffffffffffffffffffffffff16610136565b610199610194366004610e28565b61025a565b6040519081526020016100c9565b3480156101b357600080fd5b506002546101369073ffffffffffffffffffffffffffffffffffffffff1681565b3480156101e057600080fd5b506100e76101ef366004610e9d565b61066c565b6101fc610723565b61020660006107a4565b565b610210610723565b6002805491151574010000000000000000000000000000000000000000027fffffffffffffffffffffff00ffffffffffffffffffffffffffffffffffffffff909216919091179055565b6002546040517fe67e99080000000000000000000000000000000000000000000000000000000081526000600482018190523360248301529173ffffffffffffffffffffffffffffffffffffffff169063e67e990890604401602060405180830381865afa1580156102d0573d6000803e3d6000fd5b505050506040513d601f19601f820116820180604052508101906102f49190610eba565b610331576040517f853838230000000000000000000000000000000000000000000000000000000081523360048201526024015b60405180910390fd5b6103623330856103446020890189610e9d565b73ffffffffffffffffffffffffffffffffffffffff16929190610819565b60025474010000000000000000000000000000000000000000900460ff161580156103ca575060015473ffffffffffffffffffffffffffffffffffffffff166103b16060860160408701610e9d565b73ffffffffffffffffffffffffffffffffffffffff1614155b15610433576103df6060850160408601610e9d565b6001546040517e38f44b00000000000000000000000000000000000000000000000000000000815273ffffffffffffffffffffffffffffffffffffffff928316600482015291166024820152604401610328565b6104716104466060860160408701610e9d565b846104546020880188610e9d565b73ffffffffffffffffffffffffffffffffffffffff1691906108fb565b60006104836060860160408701610e9d565b73ffffffffffffffffffffffffffffffffffffffff166104a66060870187610ed7565b6040516104b4929190610f43565b6000604051808303816000865af19150503d80600081146104f1576040519150601f19603f3d011682016040523d82523d6000602084013e6104f6565b606091505b5050905080610531576040517f81ceff3000000000000000000000000000000000000000000000000000000000815260040160405180910390fd5b6105536105446060870160408801610e9d565b60006104546020890189610e9d565b6105636040860160208701610e9d565b6040517f70a0823100000000000000000000000000000000000000000000000000000000815230600482015273ffffffffffffffffffffffffffffffffffffffff91909116906370a0823190602401602060405180830381865afa1580156105cf573d6000803e3d6000fd5b505050506040513d601f19601f820116820180604052508101906105f39190610f53565b915082821015610632576040517fadc431e400000000000000000000000000000000000000000000000000000000815260048101839052602401610328565b61066433836106476040890160208a01610e9d565b73ffffffffffffffffffffffffffffffffffffffff169190610a82565b509392505050565b610674610723565b73ffffffffffffffffffffffffffffffffffffffff8116610717576040517f08c379a000000000000000000000000000000000000000000000000000000000815260206004820152602660248201527f4f776e61626c653a206e6577206f776e657220697320746865207a65726f206160448201527f64647265737300000000000000000000000000000000000000000000000000006064820152608401610328565b610720816107a4565b50565b60005473ffffffffffffffffffffffffffffffffffffffff163314610206576040517f08c379a000000000000000000000000000000000000000000000000000000000815260206004820181905260248201527f4f776e61626c653a2063616c6c6572206973206e6f7420746865206f776e65726044820152606401610328565b6000805473ffffffffffffffffffffffffffffffffffffffff8381167fffffffffffffffffffffffff0000000000000000000000000000000000000000831681178455604051919092169283917f8be0079c531659141344cd1fd0a4f28419497f9722a3daafe3b4186f6b6457e09190a35050565b60405173ffffffffffffffffffffffffffffffffffffffff808516602483015283166044820152606481018290526108f59085907f23b872dd00000000000000000000000000000000000000000000000000000000906084015b604080517fffffffffffffffffffffffffffffffffffffffffffffffffffffffffffffffe08184030181529190526020810180517bffffffffffffffffffffffffffffffffffffffffffffffffffffffff167fffffffff0000000000000000000000000000000000000000000000000000000090931692909217909152610ad8565b50505050565b80158061099b57506040517fdd62ed3e00000000000000000000000000000000000000000000000000000000815230600482015273ffffffffffffffffffffffffffffffffffffffff838116602483015284169063dd62ed3e90604401602060405180830381865afa158015610975573d6000803e3d6000fd5b505050506040513d601f19601f820116820180604052508101906109999190610f53565b155b610a27576040517f08c379a000000000000000000000000000000000000000000000000000000000815260206004820152603660248201527f5361666545524332303a20617070726f76652066726f6d206e6f6e2d7a65726f60448201527f20746f206e6f6e2d7a65726f20616c6c6f77616e6365000000000000000000006064820152608401610328565b60405173ffffffffffffffffffffffffffffffffffffffff8316602482015260448101829052610a7d9084907f095ea7b30000000000000000000000000000000000000000000000000000000090606401610873565b505050565b60405173ffffffffffffffffffffffffffffffffffffffff8316602482015260448101829052610a7d9084907fa9059cbb0000000000000000000000000000000000000000000000000000000090606401610873565b6000610b3a826040518060400160405280602081526020017f5361666545524332303a206c6f772d6c6576656c2063616c6c206661696c65648152508573ffffffffffffffffffffffffffffffffffffffff16610be79092919063ffffffff16565b9050805160001480610b5b575080806020019051810190610b5b9190610eba565b610a7d576040517f08c379a000000000000000000000000000000000000000000000000000000000815260206004820152602a60248201527f5361666545524332303a204552433230206f7065726174696f6e20646964206e60448201527f6f742073756363656564000000000000000000000000000000000000000000006064820152608401610328565b6060610bf68484600085610bfe565b949350505050565b606082471015610c90576040517f08c379a000000000000000000000000000000000000000000000000000000000815260206004820152602660248201527f416464726573733a20696e73756666696369656e742062616c616e636520666f60448201527f722063616c6c00000000000000000000000000000000000000000000000000006064820152608401610328565b6000808673ffffffffffffffffffffffffffffffffffffffff168587604051610cb99190610f90565b60006040518083038185875af1925050503d8060008114610cf6576040519150601f19603f3d011682016040523d82523d6000602084013e610cfb565b606091505b5091509150610d0c87838387610d17565b979650505050505050565b60608315610dad578251600003610da65773ffffffffffffffffffffffffffffffffffffffff85163b610da6576040517f08c379a000000000000000000000000000000000000000000000000000000000815260206004820152601d60248201527f416464726573733a2063616c6c20746f206e6f6e2d636f6e74726163740000006044820152606401610328565b5081610bf6565b610bf68383815115610dc25781518083602001fd5b806040517f08c379a00000000000000000000000000000000000000000000000000000000081526004016103289190610fac565b801515811461072057600080fd5b600060208284031215610e1657600080fd5b8135610e2181610df6565b9392505050565b600080600060608486031215610e3d57600080fd5b833567ffffffffffffffff811115610e5457600080fd5b840160808187031215610e6657600080fd5b95602085013595506040909401359392505050565b73ffffffffffffffffffffffffffffffffffffffff8116811461072057600080fd5b600060208284031215610eaf57600080fd5b8135610e2181610e7b565b600060208284031215610ecc57600080fd5b8151610e2181610df6565b60008083357fffffffffffffffffffffffffffffffffffffffffffffffffffffffffffffffe1843603018112610f0c57600080fd5b83018035915067ffffffffffffffff821115610f2757600080fd5b602001915036819003821315610f3c57600080fd5b9250929050565b8183823760009101908152919050565b600060208284031215610f6557600080fd5b5051919050565b60005b83811015610f87578181015183820152602001610f6f565b50506000910152565b60008251610fa2818460208701610f6c565b9190910192915050565b6020815260008251806020840152610fcb816040850160208701610f6c565b601f017fffffffffffffffffffffffffffffffffffffffffffffffffffffffffffffffe016919091016040019291505056fea2646970667358221220e6fe01503ad121ea26982fb263cc43e5cc70f9a3a4c5638acdd44a0ae49c117564736f6c63430008160033",
  "linkReferences": {},
  "deployedLinkReferences": {}
}