{
  "_format": "hh-sol-artifact-1",
  "contractName": "UniswapV3Swapper",
  "sourceName": "contracts/Swapper/UniswapV3Swapper.sol",
  "abi": [
    {
      "inputs": [
        {
          "internalType": "contract IYieldBox",
          "name": "_yieldBox",
          "type": "address"
        },
        {
          "internalType": "contract ISwapRouter",
          "name": "_swapRouter",
          "type": "address"
        },
        {
          "internalType": "contract IUniswapV3Factory",
          "name": "_factory",
          "type": "address"
        }
      ],
      "stateMutability": "nonpayable",
      "type": "constructor"
    },
    {
      "anonymous": false,
      "inputs": [
        {
          "indexed": false,
          "internalType": "uint256",
          "name": "_old",
          "type": "uint256"
        },
        {
          "indexed": false,
          "internalType": "uint256",
          "name": "_new",
          "type": "uint256"
        }
      ],
      "name": "PoolFee",
      "type": "event"
    },
    {
      "inputs": [],
      "name": "factory",
      "outputs": [
        {
          "internalType": "contract IUniswapV3Factory",
          "name": "",
          "type": "address"
        }
      ],
      "stateMutability": "view",
      "type": "function"
    },
    {
      "inputs": [
        {
          "internalType": "uint256",
          "name": "tokenOutId",
          "type": "uint256"
        },
        {
          "internalType": "uint256",
          "name": "shareOut",
          "type": "uint256"
        },
        {
          "internalType": "bytes",
          "name": "dexData",
          "type": "bytes"
        }
      ],
      "name": "getInputAmount",
      "outputs": [
        {
          "internalType": "uint256",
          "name": "amountIn",
          "type": "uint256"
        }
      ],
      "stateMutability": "view",
      "type": "function"
    },
    {
      "inputs": [
        {
          "internalType": "uint256",
          "name": "tokenInId",
          "type": "uint256"
        },
        {
          "internalType": "uint256",
          "name": "shareIn",
          "type": "uint256"
        },
        {
          "internalType": "bytes",
          "name": "dexData",
          "type": "bytes"
        }
      ],
      "name": "getOutputAmount",
      "outputs": [
        {
          "internalType": "uint256",
          "name": "amountOut",
          "type": "uint256"
        }
      ],
      "stateMutability": "view",
      "type": "function"
    },
    {
      "inputs": [],
      "name": "owner",
      "outputs": [
        {
          "internalType": "address",
          "name": "",
          "type": "address"
        }
      ],
      "stateMutability": "view",
      "type": "function"
    },
    {
      "inputs": [],
      "name": "poolFee",
      "outputs": [
        {
          "internalType": "uint24",
          "name": "",
          "type": "uint24"
        }
      ],
      "stateMutability": "view",
      "type": "function"
    },
    {
      "inputs": [
        {
          "internalType": "uint24",
          "name": "_newFee",
          "type": "uint24"
        }
      ],
      "name": "setPoolFee",
      "outputs": [],
      "stateMutability": "nonpayable",
      "type": "function"
    },
    {
      "inputs": [
        {
          "internalType": "uint256",
          "name": "tokenInId",
          "type": "uint256"
        },
        {
          "internalType": "uint256",
          "name": "tokenOutId",
          "type": "uint256"
        },
        {
          "internalType": "uint256",
          "name": "shareIn",
          "type": "uint256"
        },
        {
          "internalType": "address",
          "name": "to",
          "type": "address"
        },
        {
          "internalType": "uint256",
          "name": "amountOutMin",
          "type": "uint256"
        },
        {
          "internalType": "bytes",
          "name": "dexData",
          "type": "bytes"
        }
      ],
      "name": "swap",
      "outputs": [
        {
          "internalType": "uint256",
          "name": "amountOut",
          "type": "uint256"
        },
        {
          "internalType": "uint256",
          "name": "shareOut",
          "type": "uint256"
        }
      ],
      "stateMutability": "nonpayable",
      "type": "function"
    },
    {
      "inputs": [],
      "name": "swapRouter",
      "outputs": [
        {
          "internalType": "contract ISwapRouter",
          "name": "",
          "type": "address"
        }
      ],
      "stateMutability": "view",
      "type": "function"
    }
  ],
  "bytecode": "0x60e0346100fb57601f611ab338819003918201601f19168301916001600160401b03831184841017610100578084926060946040528339810103126100fb578051906001600160a01b039081831683036100fb5760208101519082821682036100fb576040015191821682036100fb576000549260805260a05260c05261017760a31b90339060018060b81b031916171760005560405161199c9081610117823960805181818160a2015281816104f801528181610548015281816105bd015281816107df015281816108730152610a52015260a051818181610349015281816106090152610796015260c05181818161019a01526103050152f35b600080fd5b634e487b7160e01b600052604160045260246000fdfe608080604052600436101561001357600080fd5b60003560e01c908163089fe6aa14610bc657508063532bb19214610a2757806355a68e101461048b57806373dd250c146103945780638da5cb5b1461036d578063c31c9c0714610329578063c45a0155146102e55763c6fe95491461007757600080fd5b346102415761008536610c17565b9080939291602094859181010312610241576001600160a01b03807f0000000000000000000000000000000000000000000000000000000000000000169360405193630cf35bdd60e41b9384865235600486015260809182866024818a5afa95861561024d576000966102c2575b5060405194855280600486015282856024818a5afa94851561024d57889360009661028a575b5050606490604051978893849263442c159960e01b845260048401526024830152600060448301525afa90811561024d578590600092610259575b600054604051630b4c774160e11b81526001600160a01b0380881660048301528616602482015260a09190911c62ffffff166044820152955085908180606481015b03917f0000000000000000000000000000000000000000000000000000000000000000165afa93841561024d576000946101fa575b506fffffffffffffffffffffffffffffffff6101e96101f295610d36565b50911690611097565b604051908152f35b93508484813d8311610246575b6102118183610c4e565b81010312610241576fffffffffffffffffffffffffffffffff6101e96102396101f296610c70565b9550506101cb565b600080fd5b503d610207565b6040513d6000823e3d90fd5b915084813d8311610283575b61026f8183610c4e565b810103126102415784610196945191610154565b503d610265565b606492965090816102af92903d106102bb575b6102a78183610c4e565b810190610c84565b50509050949038610119565b503d61029d565b6102da919650833d85116102bb576102a78183610c4e565b5050905094386100f3565b346102415760003660031901126102415760206040516001600160a01b037f0000000000000000000000000000000000000000000000000000000000000000168152f35b346102415760003660031901126102415760206040516001600160a01b037f0000000000000000000000000000000000000000000000000000000000000000168152f35b346102415760003660031901126102415760206001600160a01b0360005416604051908152f35b346102415760203660031901126102415760043562ffffff80821680830361024157600054926001600160a01b0384163303610447577f2bff118b9b9e3deb4fc5204e6ba828351c954685d0b119d0e21add79f878339960407fffffffffffffffffff000000ffffffffffffffffffffffffffffffffffffffff9476ffffff0000000000000000000000000000000000000000948251918860a01c1682526020820152a160a01b16911617600055600080f35b606460405162461bcd60e51b815260206004820152602060248201527f556e69737761705633537761707065723a206e6f7420617574686f72697a65646044820152fd5b346102415760c0366003190112610241576064356001600160a01b03811681036102415760a43567ffffffffffffffff8111610241576104cf903690600401610be9565b9060405191630cf35bdd60e41b9182845260043560048501526080846024816001600160a01b037f0000000000000000000000000000000000000000000000000000000000000000165afa93841561024d57600094610a02575b5060405192835260243560048401526080836024816001600160a01b037f0000000000000000000000000000000000000000000000000000000000000000165afa92831561024d576000936109dd575b50604051916311a5cc7760e31b8352600435600484015230602484015230604484015260006064840152604435608484015260408360a48160006001600160a01b037f0000000000000000000000000000000000000000000000000000000000000000165af192831561024d576000936109bb575b5060405163095ea7b360e01b60208201526001600160a01b037f0000000000000000000000000000000000000000000000000000000000000000166024820152604480820185905281526000908190610648606482610c4e565b60208151910182895af13d156109b4573d67ffffffffffffffff81116109455760405190610680601f8201601f191660200183610c4e565b81523d6000602083013e5b81610985575b501561095b5781602091810103126102415760005493604051948561010081011067ffffffffffffffff61010088011117610945576001600160a01b0362ffffff9261010088016040521686526001600160a01b038516602087015260a01c16604085015230606085015235608084015260a083015260843560c0830152600060e08301526001600160a01b0360e06040519363414bf389821b855282815116600486015282602082015116602486015262ffffff60408201511660448601528260608201511660648601526080810151608486015260a081015160a486015260c081015160c486015201511660e48301526020826101048160006001600160a01b037f0000000000000000000000000000000000000000000000000000000000000000165af191821561024d57600092610911575b5060405163095ea7b360e01b81526001600160a01b037f00000000000000000000000000000000000000000000000000000000000000008116600483015260248201849052909160209183916044918391600091165af1801561024d576108e2575b506001600160a01b0360405192634d4d7cbd60e11b845260243560048501523060248501521660448301528060648301526000608483015260408260a48160006001600160a01b037f0000000000000000000000000000000000000000000000000000000000000000165af1801561024d576040926000916108b3575b5082519182526020820152f35b6108d39150833d85116108db575b6108cb8183610c4e565b810190610cbd565b9050836108a6565b503d6108c1565b6109039060203d60201161090a575b6108fb8183610c4e565b810190610cd3565b5082610829565b503d6108f1565b9091506020813d60201161093d575b8161092d60209383610c4e565b81010312610241575190836107c7565b3d9150610920565b634e487b7160e01b600052604160045260246000fd5b60405162461bcd60e51b8152602060048201526002602482015261534160f01b6044820152606490fd5b805180159250821561099a575b505087610691565b6109ad9250602080918301019101610cd3565b8780610992565b606061068b565b6109d591935060403d6040116108db576108cb8183610c4e565b5091866105ee565b6109f791935060803d6080116102bb576102a78183610c4e565b505090509185610579565b610a1c91945060803d6080116102bb576102a78183610c4e565b505090509285610529565b3461024157610a3536610c17565b9181939192602094859181010312610241576001600160a01b03807f0000000000000000000000000000000000000000000000000000000000000000169360405192630cf35bdd60e41b9485855280600486015260809283866024818b5afa95861561024d57600096610ba3575b5060405196875235600487015282866024818a5afa95861561024d578893600097610b7b575b5050606490604051978893849263442c159960e01b845260048401526024830152600060448301525afa90811561024d578590600092610b4a575b600054604051630b4c774160e11b81526001600160a01b0380871660048301528716602482015260a09190911c62ffffff16604482015295508590818060648101610196565b915084813d8311610b74575b610b608183610c4e565b810103126102415784610196945191610b04565b503d610b56565b60649297509081610b9792903d106102bb576102a78183610c4e565b50509050959089610ac9565b610bbb919650843d86116102bb576102a78183610c4e565b505090509489610aa3565b346102415760003660031901126102415760209062ffffff60005460a01c168152f35b9181601f840112156102415782359167ffffffffffffffff8311610241576020838186019501011161024157565b60606003198201126102415760043591602435916044359067ffffffffffffffff821161024157610c4a91600401610be9565b9091565b90601f8019910116810190811067ffffffffffffffff82111761094557604052565b51906001600160a01b038216820361024157565b919082608091031261024157815160058110156102415791610ca860208201610c70565b916060610cb760408401610c70565b92015190565b9190826040910312610241576020825192015190565b90816020910312610241575180151581036102415790565b67ffffffffffffffff81116109455760051b60200190565b805115610d105760200190565b634e487b7160e01b600052603260045260246000fd5b805160011015610d105760400190565b9060009160408051916060830167ffffffffffffffff908481108282111761105a579186928452600285526020918286019480368737603c610d7788610d03565b5284610d8288610d26565b52805194859363883bdbfd60e01b855260249788860160049a888c89015251809152604487019190845b8982821061103a5750505050908580926001600160a01b03998a910392165afa9283156110305789928a94610f1d575b505050610df2610deb82610d26565b5191610d03565b5160060b9060060b0390667fffffffffffff8213667fffffffffffff19831217610f0b5783610e2c81610e2484610d26565b511692610d03565b51169003928311610ee55760060b95603c870560020b96600081129081610ef7575b50610ecf575b80610ebd57501b77ffffffffffffffffffffffffffffffffffffffff0000000016918215610eaa575050743bffffffffffffffffffffffffffffffffffffffc4046fffffffffffffffffffffffffffffffff1690565b601290634e487b7160e01b600052526000fd5b634e487b7160e01b8152601185528390fd5b95627fffff198114610ee5576000190195610e54565b634e487b7160e01b8752601185528387fd5b915050603c6000910760060b151538610e4e565b634e487b7160e01b8852601186528488fd5b91935091503d808a843e610f318184610c4e565b820190838383031261100b5782518181116110075783019282601f8501121561100757835193610f6085610ceb565b94610f6d87519687610c4e565b808652878087019160051b8301019185831161102c578801905b82821061100f5750505085810151918211611007570181601f8201121561100b57805190610fc0610fb783610ceb565b95519586610c4e565b818552858086019260051b820101928311611007578501905b828210610feb57505050388080610ddc565b81518781168103611003578152908501908501610fd9565b8b80fd5b8a80fd5b8980fd5b81518060060b8103611028578152908801908801610f87565b8e80fd5b8d80fd5b81513d8b823e3d90fd5b835163ffffffff1685528b99508f96509384019390920191600101610dac565b634e487b7160e01b87526041600452602487fd5b8181029291811591840414171561108157565b634e487b7160e01b600052601160045260246000fd5b9291909260020b906000821260001461163e57600160ff1b821461108157816000035b620d89e881116116155760018116156115f95770ffffffffffffffffffffffffffffffffff6ffffcb933bd6fad37aa2d162d1a5940015b1692600282166115cd575b6004918281166115a1575b60088116611575575b60108116611549575b6020811661151d575b604081166114f1575b6080908181166114c6575b610100811661149b575b6102008116611470575b6104008116611445575b610800811661141a575b61100081166113ef575b61200081166113c4575b6140008116611399575b618000811661136e575b620100008116611343575b620200008116611319575b6204000081166112db575b620800001661129c575b50600012611276575b63ffffffff8360201c93161560001461126d5760ff60005b16830180931161125857506fffffffffffffffffffffffffffffffff916001600160a01b03908190811684811161122f578061120d9161106e565b941691161015611225576112229216906118f0565b90565b6112229216611895565b8061123991611644565b94169116101561124e57611222921690611826565b61122292166116d2565b601190634e487b7160e01b6000525260246000fd5b60ff60016111d2565b9180156112875760001904916111ba565b601283634e487b7160e01b6000525260246000fd5b6b048a170391f7dc42444e8fa2949194918281029281840414901517156112c6571c9260006111b1565b601183634e487b7160e01b6000525260246000fd5b946d2216e584f5fa1ea926041bedfe989081810291818304149015171561130457811c946111a7565b601184634e487b7160e01b6000525260246000fd5b946e5d6af8dedb81196699c329225ee6049081810291818304149015171561130457811c9461119c565b946f09aa508b5b7a84e1c677de54f3e99bc99081810291818304149015171561130457811c94611191565b946f31be135f97d08fd981231505542fcfa69081810291818304149015171561130457811c94611186565b946f70d869a156d2a1b890bb3df62baf32f79081810291818304149015171561130457811c9461117c565b946fa9f746462d870fdf8a65dc1f90e061e59081810291818304149015171561130457811c94611172565b946fd097f3bdfd2022b8845ad8f792aa58259081810291818304149015171561130457811c94611168565b946fe7159475a2c29b7443b29c7fa6e889d99081810291818304149015171561130457811c9461115e565b946ff3392b0822b70005940c7a398e4b70f39081810291818304149015171561130457811c94611154565b946ff987a7253ac413176f2b074cf7815e549081810291818304149015171561130457811c9461114a565b946ffcbe86c7900a88aedcffc83b479aa3a49081810291818304149015171561130457811c94611140565b946ffe5dee046a99a2a811c461f1969c30539081810291818304149015171561130457811c94611136565b936fff2ea16466c96a3843ec78b326b52861908181029181830414901517156112c65760801c9361112b565b936fff973b41fa98c081472e6896dfb254c0908181029181830414901517156112c65760801c93611122565b936fffcb9843d60f6159c9db58835c926644908181029181830414901517156112c65760801c93611119565b936fffe5caca7e10e4e61c3624eaa0941cd0908181029181830414901517156112c65760801c93611110565b936ffff2e50f5f656932ef12357cf3c7fdcc908181029181830414901517156112c65760801c93611107565b926ffff97272373d413259a46990580e213a908181029181830414901517156110815760801c926110fc565b70ffffffffffffffffffffffffffffffffff600160801b6110f1565b60405162461bcd60e51b81526020600482015260016024820152601560fa1b6044820152606490fd5b816110ba565b60001982820990828102908180841093039383850393600095146116c7576801000000000000000091848311156116c357099181831184818303956116af57508460c01b948504600160c01b1491141715611081570360401c17808004600114811517156110815790565b634e487b7160e01b81526011600452602490fd5b8580fd5b505060401c92915050565b600160801b9291600019828509938260801b92838087109603958087039614611817578583111561024157829109908019600181018091116110815781168091049161172d600096600184808a03040190868411900361106e565b9280600302966003880482036116af57600280981861174c818461106e565b89039089821161180357906117609161106e565b61176a818461106e565b890390898211611803579061177e9161106e565b611788818461106e565b890390898211611803579061179c9161106e565b6117a6818461106e565b89039089821161180357906117ba9161106e565b6117c4818461106e565b890390898211611803576117e2916117db9161106e565b809361106e565b88039788116116af575061122295966117fa9161106e565b9303041761106e565b634e487b7160e01b83526011600452602483fd5b50508092935015610241570490565b6000198282098282029081808210910393818503916000951461188a57600160801b93828511156116c35790849109928284119085828403966116af57508560801b9586041491141715611081570360801c17808004600114811517156110815790565b505060801c92915050565b600160c01b9291600019828509938260c01b92838087109603958087039614611817578583111561024157829109908019600181018091116110815781168091049161172d600096600184808a03040190868411900361106e565b600019828209908281029081808410930393838503936000951461195b57600160c01b91848311156116c357099181831184818303956116af57508460401b948504680100000000000000001491141715611081570360c01c17808004600114811517156110815790565b505060c01c9291505056fea26469706673582212202a15883c55133e1ed9b15c5b2b01c1dd96be7f9707e2ace39f99f64b2d22e68364736f6c63430008120033",
  "linkReferences": {},
  "deployedLinkReferences": {}
}