{"contracts/Magnetar/Magnetar.sol":{"Magnetar":{"abi":[{"inputs":[{"internalType":"address","name":"_owner","type":"address"}],"stateMutability":"nonpayable","type":"constructor"},{"anonymous":false,"inputs":[{"indexed":true,"internalType":"address","name":"previousOwner","type":"address"},{"indexed":true,"internalType":"address","name":"newOwner","type":"address"}],"name":"OwnershipTransferred","type":"event"},{"inputs":[{"components":[{"internalType":"uint16","name":"id","type":"uint16"},{"internalType":"address","name":"target","type":"address"},{"internalType":"uint256","name":"value","type":"uint256"},{"internalType":"bool","name":"allowFailure","type":"bool"},{"internalType":"bytes","name":"call","type":"bytes"}],"internalType":"struct MagnetarData.Call[]","name":"calls","type":"tuple[]"}],"name":"burst","outputs":[{"components":[{"internalType":"bool","name":"success","type":"bool"},{"internalType":"bytes","name":"returnData","type":"bytes"}],"internalType":"struct MagnetarData.Result[]","name":"returnData","type":"tuple[]"}],"stateMutability":"payable","type":"function"},{"inputs":[],"name":"getBasefee","outputs":[{"internalType":"uint256","name":"basefee","type":"uint256"}],"stateMutability":"view","type":"function"},{"inputs":[{"internalType":"uint256","name":"blockNumber","type":"uint256"}],"name":"getBlockHash","outputs":[{"internalType":"bytes32","name":"blockHash","type":"bytes32"}],"stateMutability":"view","type":"function"},{"inputs":[],"name":"getBlockNumber","outputs":[{"internalType":"uint256","name":"blockNumber","type":"uint256"}],"stateMutability":"view","type":"function"},{"inputs":[],"name":"getChainId","outputs":[{"internalType":"uint256","name":"chainid","type":"uint256"}],"stateMutability":"view","type":"function"},{"inputs":[],"name":"getCurrentBlockCoinbase","outputs":[{"internalType":"address","name":"coinbase","type":"address"}],"stateMutability":"view","type":"function"},{"inputs":[],"name":"getCurrentBlockDifficulty","outputs":[{"internalType":"uint256","name":"difficulty","type":"uint256"}],"stateMutability":"view","type":"function"},{"inputs":[],"name":"getCurrentBlockGasLimit","outputs":[{"internalType":"uint256","name":"gaslimit","type":"uint256"}],"stateMutability":"view","type":"function"},{"inputs":[],"name":"getCurrentBlockTimestamp","outputs":[{"internalType":"uint256","name":"timestamp","type":"uint256"}],"stateMutability":"view","type":"function"},{"inputs":[{"internalType":"address","name":"addr","type":"address"}],"name":"getEthBalance","outputs":[{"internalType":"uint256","name":"balance","type":"uint256"}],"stateMutability":"view","type":"function"},{"inputs":[],"name":"getLastBlockHash","outputs":[{"internalType":"bytes32","name":"blockHash","type":"bytes32"}],"stateMutability":"view","type":"function"},{"inputs":[],"name":"owner","outputs":[{"internalType":"address","name":"","type":"address"}],"stateMutability":"view","type":"function"},{"inputs":[],"name":"renounceOwnership","outputs":[],"stateMutability":"nonpayable","type":"function"},{"inputs":[{"internalType":"address","name":"newOwner","type":"address"}],"name":"transferOwnership","outputs":[],"stateMutability":"nonpayable","type":"function"}],"devdoc":{"kind":"dev","methods":{"burst((uint16,address,uint256,bool,bytes)[])":{"params":{"calls":"The list of actions to perform"}},"getBlockHash(uint256)":{"params":{"blockNumber":"The block number"}},"owner()":{"details":"Returns the address of the current owner."},"renounceOwnership()":{"details":"Leaves the contract without owner. It will not be possible to call `onlyOwner` functions anymore. Can only be called by the current owner. NOTE: Renouncing ownership will leave the contract without an owner, thereby removing any functionality that is only available to the owner."},"transferOwnership(address)":{"details":"Transfers ownership of the contract to a new account (`newOwner`). Can only be called by the current owner."}},"version":1},"evm":{"bytecode":{"linkReferences":{},"object":"6080346200012757601f6200278b38819003918201601f19168301916001600160401b038311848410176200012c578084926020946040528339810103126200012757516001600160a01b03808216908183036200012757620000623362000142565b33906000541603620000e357156200008f576200007f9062000142565b60405161260190816200018a8239f35b60405162461bcd60e51b815260206004820152602660248201527f4f776e61626c653a206e6577206f776e657220697320746865207a65726f206160448201526564647265737360d01b6064820152608490fd5b606460405162461bcd60e51b815260206004820152602060248201527f4f776e61626c653a2063616c6c6572206973206e6f7420746865206f776e65726044820152fd5b600080fd5b634e487b7160e01b600052604160045260246000fd5b600080546001600160a01b039283166001600160a01b03198216811783559216907f8be0079c531659141344cd1fd0a4f28419497f9722a3daafe3b4186f6b6457e09080a356fe6080604052600436101561001257600080fd5b60003560e01c8063013546e1146100f75780630f28c97d146100f257806327e86d6e146100ed5780633408e470146100e85780633e64a696146100e357806342cbb15c146100de5780634d2301cc146100d9578063715018a6146100d457806372425d9d146100cf57806386d516e8146100ca5780638da5cb5b146100c5578063a8b0574e146100c0578063ee82ac5e146100bb5763f2fde38b146100b657600080fd5b611088565b61106a565b61104f565b611028565b61100d565b610ff2565b610f9c565b610f74565b610f3b565b610f20565b610f05565b610ee5565b610eca565b6101bb565b60005b83811061010f5750506000910152565b81810151838201526020016100ff565b90602091610138815180928185528580860191016100fc565b601f01601f1916010190565b602080820190808352835180925260409283810182858560051b8401019601946000925b858410610179575050505050505090565b9091929394959685806101aa600193603f1986820301885286838d518051151584520151918185820152019061011f565b990194019401929594939190610168565b60203660031901126104105760043567ffffffffffffffff808211610410573660238301121561041057816004013511610410576024810190366024826004013560051b830101116104105760009061021781600401356112fd565b92825b8260040135811061024457610240856102348634146122b0565b60405191829182610144565b0390f35b610253818460040135846113ab565b906060948583019061026b610267836113dc565b1590565b610e7f575b6040840135018096600161028d610286876114df565b61ffff1690565b036102d1575050826102c16102c7926102b96102ae60206102cc98016115f4565b9360808101906113e9565b9290916113dc565b9261240e565b611370565b61021a565b61ffff6002816102e0886114df565b160361030957505050826103036102c7926102b96102ae60206102cc98016115f4565b9261233a565b90919250600a81610319876114df565b160361049b57505061034361033b61033460808601866113e9565b80916114e9565b810190612105565b9561035d61035888516001600160a01b031690565b612497565b6040840135156104155750604083013501946103a060206103916103856103858388016115f4565b6001600160a01b031690565b9201516001600160a01b031690565b90803b156104105760408051632479d86360e01b81526001600160a01b03909316600484015291936000928592839182602481015b03930135905af191821561040b576102cc926103f2575b50611370565b806103ff610405926111bc565b80610ebf565b386103ec565b61164b565b600080fd5b959261042b9150610385602061038592016115f4565b91604061044260208301516001600160a01b031690565b910151833b1561041057604051630c46aac760e31b81523360048201526001600160a01b0390921660248301526044820152916000908390818381606481015b03925af191821561040b576102cc926103f25750611370565b909150600b816104aa866114df565b16036105255750506104e76001600160a01b036104d86104d061033460808701876113e9565b8101906121b6565b97939591929594909416612497565b6104f9610385610385602085016115f4565b803b156104105760406000956103d58251998a978896879463695ef6bf60e01b86523360048701612257565b6003816105338694966114df565b160361067c5750604090608093610582610385610385602061056561055d6103348b8901896113e9565b81019061215e565b9561057c610358838901516001600160a01b031690565b016115f4565b90600083519661059b868601516001600160a01b031690565b928501519401518551634d4d7cbd60e11b815260048101989098523360248901526001600160a01b03909216604488015260648701939093526084860152849160a4918391905af1801561040b576102cc926000908192610648575b5060408051602081019290925281019190915261062181606081015b03601f198101835282611261565b610629611283565b6001815290602082015261063d828861204a565b526103ec818761204a565b610621925061066f915060403d604011610675575b6106678183611261565b810190612148565b916105f7565b503d61065d565b60058161068a8496946114df565b160361073557506106cc61038561038560206106b76106af61033460808a018a6113e9565b810190611fe4565b9661057c61035889516001600160a01b031690565b60208401516001600160a01b0316916106e86040860151151590565b94015190803b156104105760405163096f9e0960e21b81523360048201526001600160a01b0390931660248401529315156044830152606482015291600090839081838160848101610482565b600681610741866114df565b1603610830575050604082610782610385610385602061076d61033b61033460806107d49b01886113e9565b9461057c61035887516001600160a01b031690565b8261079760208401516001600160a01b031690565b92015183516314890dcb60e21b81523360048201526001600160a01b03909316602484015260448301529093849190829060009082906064820190565b03925af1801561040b576102cc92600090819261080c575b506040805160208101929092528101919091526106218160608101610613565b610621925061082a915060403d604011610675576106678183611261565b916107ec565b60078161083c866114df565b16036108ba575050816001600160a01b0361086b610863610334608061087a9701856113e9565b81019061205e565b92939694989195909816612497565b61088c610385610385602086016115f4565b90813b15610410576000956103d560409283519a8b98899788956307e76fc160e21b875233600488016120bf565b6008816108c6866114df565b16036109bb5750602090836108f16103856103858561076d6106af610334608061095a9c01886113e9565b906000610907858301516001600160a01b031690565b936109156040840151151590565b920151604051630cb0f5b760e31b81523360048201526001600160a01b0390951660248601529115156044850152606484019190915291948592839182906084820190565b03925af1801561040b57610621610613916102cc9460009161098c575b50604051928391602083019190602083019252565b6109ae915060203d6020116109b4575b6109a68183611261565b81019061203b565b38610977565b503d61099c565b6009816109c7866114df565b1603610a5b5750602090836109f26103856103858561076d6106af610334608061095a9c01886113e9565b906000610a08858301516001600160a01b031690565b93610a166040840151151590565b92015160405163cd0211eb60e01b81523360048201526001600160a01b0390951660248601529115156044850152606484019190915291948592839182906084820190565b600d81610a67866114df565b1603610ae7575050610a8a610a8261033460808501856113e9565b810190611d90565b92610aa56001600160a01b039a96979298959a809616612497565b610ab7610385610385602089016115f4565b93843b15610410576000986040946103d59386519d8e9b8c9a8b98632068bb0360e21b8a52163360048a01611f26565b600e81610af3866114df565b1603610b71575050610b16610b0e61033460808501856113e9565b810190611998565b610b306001600160a01b0398949592969398809416612497565b610b42610385610385602087016115f4565b91823b15610410576103d560409260009884519b8c998a9889966334218f3760e11b8852163360048801611a44565b600f81610b7d866114df565b1603610c2657506080610ba0610b98610334838701876113e9565b8101906117cc565b93610bb561035886516001600160a01b031690565b610bc7610385610385602084016115f4565b92610bdc60208701516001600160a01b031690565b9360a0610bf66040890151938901519589015161ffff1690565b970151813b15610410576000956103d560409283519a8b988997889563343b766560e01b87523360048801611840565b601081610c32866114df565b1603610cb1575050610c55610c4d61033460808501856113e9565b8101906116cc565b959297939491610c6e6001600160a01b03809516612497565b610c80610385610385602088016115f4565b92833b15610410576000976040936103d59285519c8d9a8b998a97639f3a056d60e01b89521692336004890161173a565b601181610cbf8694966114df565b1603610d9e5750610ce1610cd961033460808401846113e9565b810190611657565b610d0461038561038560208085019561057c61035888516001600160a01b031690565b610d37610d29610d1b84516001600160a01b031690565b94516001600160a01b031690565b956040840151930151151590565b94813b15610410576040516301bdbad760e71b81526001600160a01b03948516600482015293166024840152604483019190915292151560648201526000608482018190529092839060a490829084905af191821561040b576102cc926103f25750611370565b819350610dac6012926114df565b1603610e3657610dcd610dc561033460808501856113e9565b810190611574565b969894925094610de86001600160a01b038295939516612497565b610dfa610385610385602088016115f4565b92833b15610410576000976001600160a01b039788966040956103d59487519e8f9c8d9b8c9963411628d960e01b8b52169116600489016115fe565b60405162461bcd60e51b815260206004820152601a60248201527f4d61676e657461723a20616374696f6e206e6f742076616c69640000000000006044820152606490fd5b0390fd5b610eba610e8f60808601866113e9565b9050610eb2604051610ead8161061389602083019190602083019252565b61141c565b9015156114a7565b610270565b600091031261041057565b34610410576000366003190112610410576020604051428152f35b346104105760003660031901126104105760206040516000194301408152f35b34610410576000366003190112610410576020604051468152f35b34610410576000366003190112610410576020604051488152f35b34610410576000366003190112610410576020604051438152f35b6001600160a01b0381160361041057565b3590610f7282610f56565b565b34610410576020366003190112610410576020600435610f9381610f56565b31604051908152f35b3461041057600080600319360112610fef57610fb661114e565b806001600160a01b038154811981168355167f8be0079c531659141344cd1fd0a4f28419497f9722a3daafe3b4186f6b6457e08280a380f35b80fd5b34610410576000366003190112610410576020604051448152f35b34610410576000366003190112610410576020604051458152f35b346104105760003660031901126104105760206001600160a01b0360005416604051908152f35b34610410576000366003190112610410576020604051418152f35b34610410576020366003190112610410576020604051600435408152f35b34610410576020366003190112610410576004356110a581610f56565b6110ad61114e565b6001600160a01b0380911680156110fa576000918254826001600160a01b03198216178455167f8be0079c531659141344cd1fd0a4f28419497f9722a3daafe3b4186f6b6457e08380a380f35b60405162461bcd60e51b815260206004820152602660248201527f4f776e61626c653a206e6577206f776e657220697320746865207a65726f206160448201526564647265737360d01b6064820152608490fd5b6001600160a01b0360005416330361116257565b606460405162461bcd60e51b815260206004820152602060248201527f4f776e61626c653a2063616c6c6572206973206e6f7420746865206f776e65726044820152fd5b634e487b7160e01b600052604160045260246000fd5b67ffffffffffffffff81116111d057604052565b6111a6565b60a0810190811067ffffffffffffffff8211176111d057604052565b6060810190811067ffffffffffffffff8211176111d057604052565b60c0810190811067ffffffffffffffff8211176111d057604052565b6080810190811067ffffffffffffffff8211176111d057604052565b60e0810190811067ffffffffffffffff8211176111d057604052565b90601f8019910116810190811067ffffffffffffffff8211176111d057604052565b604051906040820182811067ffffffffffffffff8211176111d057604052565b60405190610120820182811067ffffffffffffffff8211176111d057604052565b60405190610140820182811067ffffffffffffffff8211176111d057604052565b67ffffffffffffffff81116111d05760051b60200190565b90611307826112e5565b60409061131682519182611261565b8381528093611327601f19916112e5565b0190600090815b83811061133c575050505050565b8451908582019180831067ffffffffffffffff8411176111d05760209287528481528260608183015282850101520161132e565b600019811461137f5760010190565b634e487b7160e01b600052601160045260246000fd5b634e487b7160e01b600052603260045260246000fd5b91908110156113cd5760051b81013590609e1981360301821215610410570190565b611395565b8015150361041057565b356113e6816113d2565b90565b903590601e1981360301821215610410570180359067ffffffffffffffff82116104105760200191813603831361041057565b90610f72604c60405180947f4d61676e657461723a204d697373696e672063616c6c20666f7220616374696f60208301527f6e207769746820696e6465780000000000000000000000000000000000000000604083015261148681518092602086860191016100fc565b810103602c810185520183611261565b9060206113e692818152019061011f565b156114af5750565b60405162461bcd60e51b815260206004820152908190610e7b90602483019061011f565b61ffff81160361041057565b356113e6816114d3565b909291928360041161041057831161041057600401916003190190565b3590610f72826113d2565b67ffffffffffffffff81116111d057601f01601f191660200190565b81601f820112156104105780359061154482611511565b926115526040519485611261565b8284526020838301011161041057816000926020809301838601378301015290565b9190916101008184031261041057803561158d81610f56565b92602082013561159c81610f56565b9260408301359260608101359260808201356115b7816113d2565b9260a08301356115c6816113d2565b9260c08101356115d5816113d2565b9260e082013567ffffffffffffffff8111610410576113e6920161152d565b356113e681610f56565b9492906113e6979694926001600160a01b0380921687521660208601526040850152606084015260006080840152151560a0830152151560c0820152610100908160e0820152019061011f565b6040513d6000823e3d90fd5b908160a091031261041057608060405191611671836111d5565b803561167c81610f56565b8352602081013561168c81610f56565b60208401526040810135604084015260608101356116a9816113d2565b606084015201356116b9816113d2565b608082015290565b3590610f72826114d3565b60e0818303126104105780356116e181610f56565b9260208201359260408301359260608101356116fc816114d3565b92608082013561170b81610f56565b9260a083013567ffffffffffffffff81116104105760c09161172e91850161152d565b9201356113e6816113d2565b95926117809461ffff9160c09793949a999a6001600160a01b038096168a5260208a0152604089015216606087015216608085015260e060a085015260e084019061011f565b931515910152565b9190826060910312610410576040516117a0816111f1565b60408082948035845260208101356117b781610f56565b60208501520135916117c8836113d2565b0152565b9061010082820312610410576118389060a0604051936117eb8561120d565b80356117f681610f56565b8552602081013561180681610f56565b60208601526040810135604086015260608101356060860152608081013561182d816114d3565b608086015201611788565b60a082015290565b9196959394610f729560a09461ffff9361010086019a6001600160a01b03809216875216602086015260408501526060840152166080820152019060408091805184526001600160a01b03602082015116602085015201511515910152565b359060ff8216820361041057565b81601f82011215610410578035906118c4826112e5565b926040906118d482519586611261565b838552602091828601918361012080970286010194818611610410578401925b858410611905575050505050505090565b8684830312610410578487916119196112a3565b61192287611506565b815261192f838801610f67565b8382015261193e868801610f67565b86820152606061194f818901610f67565b908201526080808801359082015260a0808801359082015260c061197481890161189f565b9082015260e0808801359082015261010080880135908201528152019301926118f4565b9190918083039061014082126104105780356119b381610f56565b9360208201356119c281610f56565b93606060408401356119d3816114d3565b94605f190112610410576040516119e9816111f1565b6060840135815260808401356119fe81610f56565b602082015260a0840135611a1181610f56565b604082015292611a248360c08301611788565b9261012082013567ffffffffffffffff8111610410576113e692016118ad565b94929061014090818701946001600160a01b03809216885281602095168589015261ffff60409416848901528651976060988982015285610160848781848d0151169b60809c8d8701520151169260a09384820152611ac760c0958683019060408091805184526001600160a01b03602082015116602085015201511515910152565b61012096878201528c51809a52019a01976000955b888710611af157505050505050505050505090565b909192939495969798999b9a88876001928f611b448f51918251151584528b868401511686850152611b3188840151898601906001600160a01b03169052565b828101516001600160a01b031690840152565b808701518288015287810151888301528881015160ff168983015260e0818101519083015261010090810151908201529d9e9d019c9b0199989701959493929190611adc565b919082608091031261041057604051611ba281611229565b606080829480358452602081013560208501526040810135611bc381610f56565b60408501520135916117c883610f56565b91906080838203126104105760405190611bed82611229565b8193803583526020810135611c01816113d2565b60208401526040810135611c14816114d3565b604084015260608101359167ffffffffffffffff831161041057606092611c3b920161152d565b910152565b919082608091031261041057604051611c5881611229565b6060808294803584526020810135611c6f81610f56565b60208501526040810135611c82816113d2565b60408501520135916117c8836113d2565b81601f8201121561041057803590611caa826112e5565b92604090611cba82519586611261565b838552602091828601918361014080970286010194818611610410578401925b858410611ceb575050505050505090565b868483031261041057848791611cff6112c4565b611d0887611506565b8152611d15838801610f67565b83820152611d24868801611506565b868201526060611d35818901610f67565b908201526080611d46818901610f67565b9082015260a0808801359082015260c0808801359082015260e0611d6b81890161189f565b9082015261010080880135908201526101208088013590820152815201930192611cda565b906101c08282031261041057611da582610f67565b92611db260208401610f67565b92611dbf604082016116c1565b9267ffffffffffffffff60608301358181116104105782611de191850161152d565b93611def8360808601611b8a565b936101008101358381116104105784611e09918301611bd4565b93611e18816101208401611c40565b936101a0830135908111610410576113e69201611c93565b90608060606113e6938051845260208101511515602085015261ffff6040820151166040850152015191816060820152019061011f565b90815180825260208080930193019160005b828110611e87575050505090565b90919293826101406001928751611ea082825115159052565b808401516001600160a01b0316828501526040818101511515908301526060818101516001600160a01b0316908301526080818101516001600160a01b03169083015260a0818101519083015260c0808201519083015260e08082015160ff16908301526101008181015190830152610120908101519082015201950193929101611e79565b94916060611f69611fd69661ffff611f9d976113e69d9b966001600160a01b0396878092168d521660208c01521660408a01526101c080848b015289019061011f565b9380516080890152602081015160a08901528260408201511660c089015201511660e0860152848203610100860152611e30565b845161012084015260208501516001600160a01b0316610140840152604085015115156101608401526060909401511515610180830152565b6101a0818403910152611e67565b9081608091031261041057606060405191611ffe83611229565b803561200981610f56565b8352602081013561201981610f56565b6020840152604081013561202c816113d2565b60408401520135606082015290565b90816020910312610410575190565b80518210156113cd5760209160051b010190565b909160c08284031261041057813561207581610f56565b926020830135612084816114d3565b92604081013592606082013592608083013567ffffffffffffffff81116104105760a0916120b391850161152d565b9201356113e681610f56565b9490929360a09461ffff6120fe949998996001600160a01b0380971689521660208801526040870152606086015260c0608086015260c085019061011f565b9416910152565b9081606091031261041057604080519161211e836111f1565b803561212981610f56565b8352602081013561213981610f56565b60208401520135604082015290565b9190826040910312610410576020825192015190565b908160a091031261041057608060405191612178836111d5565b80358352602081013561218a81610f56565b6020840152604081013561219d81610f56565b6040840152606081013560608401520135608082015290565b91909160a0818403126104105780356121ce81610f56565b9260208201356121dd816114d3565b92604083013592606081013592608082013567ffffffffffffffff928382116104105701906060828203126104105760405192612219846111f1565b823561222481610f56565b8452602083013561223481610f56565b602085015260408301359081116104105761224f920161152d565b604082015290565b93906113e695916101009461ffff6040956001600160a01b03809516895216602088015284870152606086015260a060808601528082511660a086015260208201511660c0850152015191606060e0820152019061011f565b156122b757565b60405162461bcd60e51b815260206004820152601860248201527f4d61676e657461723a2076616c7565206d69736d6174636800000000000000006044820152606490fd5b908092918237016000815290565b3d15612335573d9061231b82611511565b916123296040519384611261565b82523d6000602084013e565b606090565b826004116104105760e060031983858101030112610410576000928380936123d36001600160a01b0360405161236f81611245565b60048401359061237e82610f56565b818152602485013561238f81610f56565b602082015260448501356040820152606485013560608201526123b46084860161189f565b608082015260a485013560a082015260c060c486013591015216612497565b6123e2604051809481936122fc565b03925af1906123ef61230a565b91159081612405575b506124005750565b6124ed565b905015386123f8565b60c09261241c8180856114e9565b90809591810103126104105760008094936123d36001600160a01b0383966040516124468161120d565b60a08083359361245585610f56565b848452602081013561246681610f56565b6020850152604081013560408501526124816060820161189f565b6060850152608081013560808501520135910152165b6001600160a01b031633036124a857565b60405162461bcd60e51b815260206004820152601660248201527f4d61676e657461723a20756e617574686f72697a6564000000000000000000006044820152606490fd5b6044815110612586576004810151810190602081602484019303126104105760248101519067ffffffffffffffff8211610410570190806043830112156104105760248201519161253d83611511565b9161254b6040519384611261565b8383526044848301011161041057610e7b9261256e9160446020850191016100fc565b60405162461bcd60e51b815291829160048301611496565b60405162461bcd60e51b815260206004820152600e60248201527f526561736f6e20756e6b6e6f776e0000000000000000000000000000000000006044820152606490fdfea26469706673582212201c19308e7d168d9aa4ee061209252b446a5cc1ab16f821eaa26a40ad6c644d5864736f6c63430008120033","opcodes":"PUSH1 0x80 CALLVALUE PUSH3 0x127 JUMPI PUSH1 0x1F PUSH3 0x278B CODESIZE DUP2 SWAP1 SUB SWAP2 DUP3 ADD PUSH1 0x1F NOT AND DUP4 ADD SWAP2 PUSH1 0x1 PUSH1 0x1 PUSH1 0x40 SHL SUB DUP4 GT DUP5 DUP5 LT OR PUSH3 0x12C JUMPI DUP1 DUP5 SWAP3 PUSH1 0x20 SWAP5 PUSH1 0x40 MSTORE DUP4 CODECOPY DUP2 ADD SUB SLT PUSH3 0x127 JUMPI MLOAD PUSH1 0x1 PUSH1 0x1 PUSH1 0xA0 SHL SUB DUP1 DUP3 AND SWAP1 DUP2 DUP4 SUB PUSH3 0x127 JUMPI PUSH3 0x62 CALLER PUSH3 0x142 JUMP JUMPDEST CALLER SWAP1 PUSH1 0x0 SLOAD AND SUB PUSH3 0xE3 JUMPI ISZERO PUSH3 0x8F JUMPI PUSH3 0x7F SWAP1 PUSH3 0x142 JUMP JUMPDEST PUSH1 0x40 MLOAD PUSH2 0x2601 SWAP1 DUP2 PUSH3 0x18A DUP3 CODECOPY RETURN JUMPDEST PUSH1 0x40 MLOAD PUSH3 0x461BCD PUSH1 0xE5 SHL DUP2 MSTORE PUSH1 0x20 PUSH1 0x4 DUP3 ADD MSTORE PUSH1 0x26 PUSH1 0x24 DUP3 ADD MSTORE PUSH32 0x4F776E61626C653A206E6577206F776E657220697320746865207A65726F2061 PUSH1 0x44 DUP3 ADD MSTORE PUSH6 0x646472657373 PUSH1 0xD0 SHL PUSH1 0x64 DUP3 ADD MSTORE PUSH1 0x84 SWAP1 REVERT JUMPDEST PUSH1 0x64 PUSH1 0x40 MLOAD PUSH3 0x461BCD PUSH1 0xE5 SHL DUP2 MSTORE PUSH1 0x20 PUSH1 0x4 DUP3 ADD MSTORE PUSH1 0x20 PUSH1 0x24 DUP3 ADD MSTORE PUSH32 0x4F776E61626C653A2063616C6C6572206973206E6F7420746865206F776E6572 PUSH1 0x44 DUP3 ADD MSTORE REVERT JUMPDEST PUSH1 0x0 DUP1 REVERT JUMPDEST PUSH4 0x4E487B71 PUSH1 0xE0 SHL PUSH1 0x0 MSTORE PUSH1 0x41 PUSH1 0x4 MSTORE PUSH1 0x24 PUSH1 0x0 REVERT JUMPDEST PUSH1 0x0 DUP1 SLOAD PUSH1 0x1 PUSH1 0x1 PUSH1 0xA0 SHL SUB SWAP3 DUP4 AND PUSH1 0x1 PUSH1 0x1 PUSH1 0xA0 SHL SUB NOT DUP3 AND DUP2 OR DUP4 SSTORE SWAP3 AND SWAP1 PUSH32 0x8BE0079C531659141344CD1FD0A4F28419497F9722A3DAAFE3B4186F6B6457E0 SWAP1 DUP1 LOG3 JUMP INVALID PUSH1 0x80 PUSH1 0x40 MSTORE PUSH1 0x4 CALLDATASIZE LT ISZERO PUSH2 0x12 JUMPI PUSH1 0x0 DUP1 REVERT JUMPDEST PUSH1 0x0 CALLDATALOAD PUSH1 0xE0 SHR DUP1 PUSH4 0x13546E1 EQ PUSH2 0xF7 JUMPI DUP1 PUSH4 0xF28C97D EQ PUSH2 0xF2 JUMPI DUP1 PUSH4 0x27E86D6E EQ PUSH2 0xED JUMPI DUP1 PUSH4 0x3408E470 EQ PUSH2 0xE8 JUMPI DUP1 PUSH4 0x3E64A696 EQ PUSH2 0xE3 JUMPI DUP1 PUSH4 0x42CBB15C EQ PUSH2 0xDE JUMPI DUP1 PUSH4 0x4D2301CC EQ PUSH2 0xD9 JUMPI DUP1 PUSH4 0x715018A6 EQ PUSH2 0xD4 JUMPI DUP1 PUSH4 0x72425D9D EQ PUSH2 0xCF JUMPI DUP1 PUSH4 0x86D516E8 EQ PUSH2 0xCA JUMPI DUP1 PUSH4 0x8DA5CB5B EQ PUSH2 0xC5 JUMPI DUP1 PUSH4 0xA8B0574E EQ PUSH2 0xC0 JUMPI DUP1 PUSH4 0xEE82AC5E EQ PUSH2 0xBB JUMPI PUSH4 0xF2FDE38B EQ PUSH2 0xB6 JUMPI PUSH1 0x0 DUP1 REVERT JUMPDEST PUSH2 0x1088 JUMP JUMPDEST PUSH2 0x106A JUMP JUMPDEST PUSH2 0x104F JUMP JUMPDEST PUSH2 0x1028 JUMP JUMPDEST PUSH2 0x100D JUMP JUMPDEST PUSH2 0xFF2 JUMP JUMPDEST PUSH2 0xF9C JUMP JUMPDEST PUSH2 0xF74 JUMP JUMPDEST PUSH2 0xF3B JUMP JUMPDEST PUSH2 0xF20 JUMP JUMPDEST PUSH2 0xF05 JUMP JUMPDEST PUSH2 0xEE5 JUMP JUMPDEST PUSH2 0xECA JUMP JUMPDEST PUSH2 0x1BB JUMP JUMPDEST PUSH1 0x0 JUMPDEST DUP4 DUP2 LT PUSH2 0x10F JUMPI POP POP PUSH1 0x0 SWAP2 ADD MSTORE JUMP JUMPDEST DUP2 DUP2 ADD MLOAD DUP4 DUP3 ADD MSTORE PUSH1 0x20 ADD PUSH2 0xFF JUMP JUMPDEST SWAP1 PUSH1 0x20 SWAP2 PUSH2 0x138 DUP2 MLOAD DUP1 SWAP3 DUP2 DUP6 MSTORE DUP6 DUP1 DUP7 ADD SWAP2 ADD PUSH2 0xFC JUMP JUMPDEST PUSH1 0x1F ADD PUSH1 0x1F NOT AND ADD ADD SWAP1 JUMP JUMPDEST PUSH1 0x20 DUP1 DUP3 ADD SWAP1 DUP1 DUP4 MSTORE DUP4 MLOAD DUP1 SWAP3 MSTORE PUSH1 0x40 SWAP3 DUP4 DUP2 ADD DUP3 DUP6 DUP6 PUSH1 0x5 SHL DUP5 ADD ADD SWAP7 ADD SWAP5 PUSH1 0x0 SWAP3 JUMPDEST DUP6 DUP5 LT PUSH2 0x179 JUMPI POP POP POP POP POP POP POP SWAP1 JUMP JUMPDEST SWAP1 SWAP2 SWAP3 SWAP4 SWAP5 SWAP6 SWAP7 DUP6 DUP1 PUSH2 0x1AA PUSH1 0x1 SWAP4 PUSH1 0x3F NOT DUP7 DUP3 SUB ADD DUP9 MSTORE DUP7 DUP4 DUP14 MLOAD DUP1 MLOAD ISZERO ISZERO DUP5 MSTORE ADD MLOAD SWAP2 DUP2 DUP6 DUP3 ADD MSTORE ADD SWAP1 PUSH2 0x11F JUMP JUMPDEST SWAP10 ADD SWAP5 ADD SWAP5 ADD SWAP3 SWAP6 SWAP5 SWAP4 SWAP2 SWAP1 PUSH2 0x168 JUMP JUMPDEST PUSH1 0x20 CALLDATASIZE PUSH1 0x3 NOT ADD SLT PUSH2 0x410 JUMPI PUSH1 0x4 CALLDATALOAD PUSH8 0xFFFFFFFFFFFFFFFF DUP1 DUP3 GT PUSH2 0x410 JUMPI CALLDATASIZE PUSH1 0x23 DUP4 ADD SLT ISZERO PUSH2 0x410 JUMPI DUP2 PUSH1 0x4 ADD CALLDATALOAD GT PUSH2 0x410 JUMPI PUSH1 0x24 DUP2 ADD SWAP1 CALLDATASIZE PUSH1 0x24 DUP3 PUSH1 0x4 ADD CALLDATALOAD PUSH1 0x5 SHL DUP4 ADD ADD GT PUSH2 0x410 JUMPI PUSH1 0x0 SWAP1 PUSH2 0x217 DUP2 PUSH1 0x4 ADD CALLDATALOAD PUSH2 0x12FD JUMP JUMPDEST SWAP3 DUP3 JUMPDEST DUP3 PUSH1 0x4 ADD CALLDATALOAD DUP2 LT PUSH2 0x244 JUMPI PUSH2 0x240 DUP6 PUSH2 0x234 DUP7 CALLVALUE EQ PUSH2 0x22B0 JUMP JUMPDEST PUSH1 0x40 MLOAD SWAP2 DUP3 SWAP2 DUP3 PUSH2 0x144 JUMP JUMPDEST SUB SWAP1 RETURN JUMPDEST PUSH2 0x253 DUP2 DUP5 PUSH1 0x4 ADD CALLDATALOAD DUP5 PUSH2 0x13AB JUMP JUMPDEST SWAP1 PUSH1 0x60 SWAP5 DUP6 DUP4 ADD SWAP1 PUSH2 0x26B PUSH2 0x267 DUP4 PUSH2 0x13DC JUMP JUMPDEST ISZERO SWAP1 JUMP JUMPDEST PUSH2 0xE7F JUMPI JUMPDEST PUSH1 0x40 DUP5 ADD CALLDATALOAD ADD DUP1 SWAP7 PUSH1 0x1 PUSH2 0x28D PUSH2 0x286 DUP8 PUSH2 0x14DF JUMP JUMPDEST PUSH2 0xFFFF AND SWAP1 JUMP JUMPDEST SUB PUSH2 0x2D1 JUMPI POP POP DUP3 PUSH2 0x2C1 PUSH2 0x2C7 SWAP3 PUSH2 0x2B9 PUSH2 0x2AE PUSH1 0x20 PUSH2 0x2CC SWAP9 ADD PUSH2 0x15F4 JUMP JUMPDEST SWAP4 PUSH1 0x80 DUP2 ADD SWAP1 PUSH2 0x13E9 JUMP JUMPDEST SWAP3 SWAP1 SWAP2 PUSH2 0x13DC JUMP JUMPDEST SWAP3 PUSH2 0x240E JUMP JUMPDEST PUSH2 0x1370 JUMP JUMPDEST PUSH2 0x21A JUMP JUMPDEST PUSH2 0xFFFF PUSH1 0x2 DUP2 PUSH2 0x2E0 DUP9 PUSH2 0x14DF JUMP JUMPDEST AND SUB PUSH2 0x309 JUMPI POP POP POP DUP3 PUSH2 0x303 PUSH2 0x2C7 SWAP3 PUSH2 0x2B9 PUSH2 0x2AE PUSH1 0x20 PUSH2 0x2CC SWAP9 ADD PUSH2 0x15F4 JUMP JUMPDEST SWAP3 PUSH2 0x233A JUMP JUMPDEST SWAP1 SWAP2 SWAP3 POP PUSH1 0xA DUP2 PUSH2 0x319 DUP8 PUSH2 0x14DF JUMP JUMPDEST AND SUB PUSH2 0x49B JUMPI POP POP PUSH2 0x343 PUSH2 0x33B PUSH2 0x334 PUSH1 0x80 DUP7 ADD DUP7 PUSH2 0x13E9 JUMP JUMPDEST DUP1 SWAP2 PUSH2 0x14E9 JUMP JUMPDEST DUP2 ADD SWAP1 PUSH2 0x2105 JUMP JUMPDEST SWAP6 PUSH2 0x35D PUSH2 0x358 DUP9 MLOAD PUSH1 0x1 PUSH1 0x1 PUSH1 0xA0 SHL SUB AND SWAP1 JUMP JUMPDEST PUSH2 0x2497 JUMP JUMPDEST PUSH1 0x40 DUP5 ADD CALLDATALOAD ISZERO PUSH2 0x415 JUMPI POP PUSH1 0x40 DUP4 ADD CALLDATALOAD ADD SWAP5 PUSH2 0x3A0 PUSH1 0x20 PUSH2 0x391 PUSH2 0x385 PUSH2 0x385 DUP4 DUP9 ADD PUSH2 0x15F4 JUMP JUMPDEST PUSH1 0x1 PUSH1 0x1 PUSH1 0xA0 SHL SUB AND SWAP1 JUMP JUMPDEST SWAP3 ADD MLOAD PUSH1 0x1 PUSH1 0x1 PUSH1 0xA0 SHL SUB AND SWAP1 JUMP JUMPDEST SWAP1 DUP1 EXTCODESIZE ISZERO PUSH2 0x410 JUMPI PUSH1 0x40 DUP1 MLOAD PUSH4 0x2479D863 PUSH1 0xE0 SHL DUP2 MSTORE PUSH1 0x1 PUSH1 0x1 PUSH1 0xA0 SHL SUB SWAP1 SWAP4 AND PUSH1 0x4 DUP5 ADD MSTORE SWAP2 SWAP4 PUSH1 0x0 SWAP3 DUP6 SWAP3 DUP4 SWAP2 DUP3 PUSH1 0x24 DUP2 ADD JUMPDEST SUB SWAP4 ADD CALLDATALOAD SWAP1 GAS CALL SWAP2 DUP3 ISZERO PUSH2 0x40B JUMPI PUSH2 0x2CC SWAP3 PUSH2 0x3F2 JUMPI JUMPDEST POP PUSH2 0x1370 JUMP JUMPDEST DUP1 PUSH2 0x3FF PUSH2 0x405 SWAP3 PUSH2 0x11BC JUMP JUMPDEST DUP1 PUSH2 0xEBF JUMP JUMPDEST CODESIZE PUSH2 0x3EC JUMP JUMPDEST PUSH2 0x164B JUMP JUMPDEST PUSH1 0x0 DUP1 REVERT JUMPDEST SWAP6 SWAP3 PUSH2 0x42B SWAP2 POP PUSH2 0x385 PUSH1 0x20 PUSH2 0x385 SWAP3 ADD PUSH2 0x15F4 JUMP JUMPDEST SWAP2 PUSH1 0x40 PUSH2 0x442 PUSH1 0x20 DUP4 ADD MLOAD PUSH1 0x1 PUSH1 0x1 PUSH1 0xA0 SHL SUB AND SWAP1 JUMP JUMPDEST SWAP2 ADD MLOAD DUP4 EXTCODESIZE ISZERO PUSH2 0x410 JUMPI PUSH1 0x40 MLOAD PUSH4 0xC46AAC7 PUSH1 0xE3 SHL DUP2 MSTORE CALLER PUSH1 0x4 DUP3 ADD MSTORE PUSH1 0x1 PUSH1 0x1 PUSH1 0xA0 SHL SUB SWAP1 SWAP3 AND PUSH1 0x24 DUP4 ADD MSTORE PUSH1 0x44 DUP3 ADD MSTORE SWAP2 PUSH1 0x0 SWAP1 DUP4 SWAP1 DUP2 DUP4 DUP2 PUSH1 0x64 DUP2 ADD JUMPDEST SUB SWAP3 GAS CALL SWAP2 DUP3 ISZERO PUSH2 0x40B JUMPI PUSH2 0x2CC SWAP3 PUSH2 0x3F2 JUMPI POP PUSH2 0x1370 JUMP JUMPDEST SWAP1 SWAP2 POP PUSH1 0xB DUP2 PUSH2 0x4AA DUP7 PUSH2 0x14DF JUMP JUMPDEST AND SUB PUSH2 0x525 JUMPI POP POP PUSH2 0x4E7 PUSH1 0x1 PUSH1 0x1 PUSH1 0xA0 SHL SUB PUSH2 0x4D8 PUSH2 0x4D0 PUSH2 0x334 PUSH1 0x80 DUP8 ADD DUP8 PUSH2 0x13E9 JUMP JUMPDEST DUP2 ADD SWAP1 PUSH2 0x21B6 JUMP JUMPDEST SWAP8 SWAP4 SWAP6 SWAP2 SWAP3 SWAP6 SWAP5 SWAP1 SWAP5 AND PUSH2 0x2497 JUMP JUMPDEST PUSH2 0x4F9 PUSH2 0x385 PUSH2 0x385 PUSH1 0x20 DUP6 ADD PUSH2 0x15F4 JUMP JUMPDEST DUP1 EXTCODESIZE ISZERO PUSH2 0x410 JUMPI PUSH1 0x40 PUSH1 0x0 SWAP6 PUSH2 0x3D5 DUP3 MLOAD SWAP10 DUP11 SWAP8 DUP9 SWAP7 DUP8 SWAP5 PUSH4 0x695EF6BF PUSH1 0xE0 SHL DUP7 MSTORE CALLER PUSH1 0x4 DUP8 ADD PUSH2 0x2257 JUMP JUMPDEST PUSH1 0x3 DUP2 PUSH2 0x533 DUP7 SWAP5 SWAP7 PUSH2 0x14DF JUMP JUMPDEST AND SUB PUSH2 0x67C JUMPI POP PUSH1 0x40 SWAP1 PUSH1 0x80 SWAP4 PUSH2 0x582 PUSH2 0x385 PUSH2 0x385 PUSH1 0x20 PUSH2 0x565 PUSH2 0x55D PUSH2 0x334 DUP12 DUP10 ADD DUP10 PUSH2 0x13E9 JUMP JUMPDEST DUP2 ADD SWAP1 PUSH2 0x215E JUMP JUMPDEST SWAP6 PUSH2 0x57C PUSH2 0x358 DUP4 DUP10 ADD MLOAD PUSH1 0x1 PUSH1 0x1 PUSH1 0xA0 SHL SUB AND SWAP1 JUMP JUMPDEST ADD PUSH2 0x15F4 JUMP JUMPDEST SWAP1 PUSH1 0x0 DUP4 MLOAD SWAP7 PUSH2 0x59B DUP7 DUP7 ADD MLOAD PUSH1 0x1 PUSH1 0x1 PUSH1 0xA0 SHL SUB AND SWAP1 JUMP JUMPDEST SWAP3 DUP6 ADD MLOAD SWAP5 ADD MLOAD DUP6 MLOAD PUSH4 0x4D4D7CBD PUSH1 0xE1 SHL DUP2 MSTORE PUSH1 0x4 DUP2 ADD SWAP9 SWAP1 SWAP9 MSTORE CALLER PUSH1 0x24 DUP10 ADD MSTORE PUSH1 0x1 PUSH1 0x1 PUSH1 0xA0 SHL SUB SWAP1 SWAP3 AND PUSH1 0x44 DUP9 ADD MSTORE PUSH1 0x64 DUP8 ADD SWAP4 SWAP1 SWAP4 MSTORE PUSH1 0x84 DUP7 ADD MSTORE DUP5 SWAP2 PUSH1 0xA4 SWAP2 DUP4 SWAP2 SWAP1 GAS CALL DUP1 ISZERO PUSH2 0x40B JUMPI PUSH2 0x2CC SWAP3 PUSH1 0x0 SWAP1 DUP2 SWAP3 PUSH2 0x648 JUMPI JUMPDEST POP PUSH1 0x40 DUP1 MLOAD PUSH1 0x20 DUP2 ADD SWAP3 SWAP1 SWAP3 MSTORE DUP2 ADD SWAP2 SWAP1 SWAP2 MSTORE PUSH2 0x621 DUP2 PUSH1 0x60 DUP2 ADD JUMPDEST SUB PUSH1 0x1F NOT DUP2 ADD DUP4 MSTORE DUP3 PUSH2 0x1261 JUMP JUMPDEST PUSH2 0x629 PUSH2 0x1283 JUMP JUMPDEST PUSH1 0x1 DUP2 MSTORE SWAP1 PUSH1 0x20 DUP3 ADD MSTORE PUSH2 0x63D DUP3 DUP9 PUSH2 0x204A JUMP JUMPDEST MSTORE PUSH2 0x3EC DUP2 DUP8 PUSH2 0x204A JUMP JUMPDEST PUSH2 0x621 SWAP3 POP PUSH2 0x66F SWAP2 POP PUSH1 0x40 RETURNDATASIZE PUSH1 0x40 GT PUSH2 0x675 JUMPI JUMPDEST PUSH2 0x667 DUP2 DUP4 PUSH2 0x1261 JUMP JUMPDEST DUP2 ADD SWAP1 PUSH2 0x2148 JUMP JUMPDEST SWAP2 PUSH2 0x5F7 JUMP JUMPDEST POP RETURNDATASIZE PUSH2 0x65D JUMP JUMPDEST PUSH1 0x5 DUP2 PUSH2 0x68A DUP5 SWAP7 SWAP5 PUSH2 0x14DF JUMP JUMPDEST AND SUB PUSH2 0x735 JUMPI POP PUSH2 0x6CC PUSH2 0x385 PUSH2 0x385 PUSH1 0x20 PUSH2 0x6B7 PUSH2 0x6AF PUSH2 0x334 PUSH1 0x80 DUP11 ADD DUP11 PUSH2 0x13E9 JUMP JUMPDEST DUP2 ADD SWAP1 PUSH2 0x1FE4 JUMP JUMPDEST SWAP7 PUSH2 0x57C PUSH2 0x358 DUP10 MLOAD PUSH1 0x1 PUSH1 0x1 PUSH1 0xA0 SHL SUB AND SWAP1 JUMP JUMPDEST PUSH1 0x20 DUP5 ADD MLOAD PUSH1 0x1 PUSH1 0x1 PUSH1 0xA0 SHL SUB AND SWAP2 PUSH2 0x6E8 PUSH1 0x40 DUP7 ADD MLOAD ISZERO ISZERO SWAP1 JUMP JUMPDEST SWAP5 ADD MLOAD SWAP1 DUP1 EXTCODESIZE ISZERO PUSH2 0x410 JUMPI PUSH1 0x40 MLOAD PUSH4 0x96F9E09 PUSH1 0xE2 SHL DUP2 MSTORE CALLER PUSH1 0x4 DUP3 ADD MSTORE PUSH1 0x1 PUSH1 0x1 PUSH1 0xA0 SHL SUB SWAP1 SWAP4 AND PUSH1 0x24 DUP5 ADD MSTORE SWAP4 ISZERO ISZERO PUSH1 0x44 DUP4 ADD MSTORE PUSH1 0x64 DUP3 ADD MSTORE SWAP2 PUSH1 0x0 SWAP1 DUP4 SWAP1 DUP2 DUP4 DUP2 PUSH1 0x84 DUP2 ADD PUSH2 0x482 JUMP JUMPDEST PUSH1 0x6 DUP2 PUSH2 0x741 DUP7 PUSH2 0x14DF JUMP JUMPDEST AND SUB PUSH2 0x830 JUMPI POP POP PUSH1 0x40 DUP3 PUSH2 0x782 PUSH2 0x385 PUSH2 0x385 PUSH1 0x20 PUSH2 0x76D PUSH2 0x33B PUSH2 0x334 PUSH1 0x80 PUSH2 0x7D4 SWAP12 ADD DUP9 PUSH2 0x13E9 JUMP JUMPDEST SWAP5 PUSH2 0x57C PUSH2 0x358 DUP8 MLOAD PUSH1 0x1 PUSH1 0x1 PUSH1 0xA0 SHL SUB AND SWAP1 JUMP JUMPDEST DUP3 PUSH2 0x797 PUSH1 0x20 DUP5 ADD MLOAD PUSH1 0x1 PUSH1 0x1 PUSH1 0xA0 SHL SUB AND SWAP1 JUMP JUMPDEST SWAP3 ADD MLOAD DUP4 MLOAD PUSH4 0x14890DCB PUSH1 0xE2 SHL DUP2 MSTORE CALLER PUSH1 0x4 DUP3 ADD MSTORE PUSH1 0x1 PUSH1 0x1 PUSH1 0xA0 SHL SUB SWAP1 SWAP4 AND PUSH1 0x24 DUP5 ADD MSTORE PUSH1 0x44 DUP4 ADD MSTORE SWAP1 SWAP4 DUP5 SWAP2 SWAP1 DUP3 SWAP1 PUSH1 0x0 SWAP1 DUP3 SWAP1 PUSH1 0x64 DUP3 ADD SWAP1 JUMP JUMPDEST SUB SWAP3 GAS CALL DUP1 ISZERO PUSH2 0x40B JUMPI PUSH2 0x2CC SWAP3 PUSH1 0x0 SWAP1 DUP2 SWAP3 PUSH2 0x80C JUMPI JUMPDEST POP PUSH1 0x40 DUP1 MLOAD PUSH1 0x20 DUP2 ADD SWAP3 SWAP1 SWAP3 MSTORE DUP2 ADD SWAP2 SWAP1 SWAP2 MSTORE PUSH2 0x621 DUP2 PUSH1 0x60 DUP2 ADD PUSH2 0x613 JUMP JUMPDEST PUSH2 0x621 SWAP3 POP PUSH2 0x82A SWAP2 POP PUSH1 0x40 RETURNDATASIZE PUSH1 0x40 GT PUSH2 0x675 JUMPI PUSH2 0x667 DUP2 DUP4 PUSH2 0x1261 JUMP JUMPDEST SWAP2 PUSH2 0x7EC JUMP JUMPDEST PUSH1 0x7 DUP2 PUSH2 0x83C DUP7 PUSH2 0x14DF JUMP JUMPDEST AND SUB PUSH2 0x8BA JUMPI POP POP DUP2 PUSH1 0x1 PUSH1 0x1 PUSH1 0xA0 SHL SUB PUSH2 0x86B PUSH2 0x863 PUSH2 0x334 PUSH1 0x80 PUSH2 0x87A SWAP8 ADD DUP6 PUSH2 0x13E9 JUMP JUMPDEST DUP2 ADD SWAP1 PUSH2 0x205E JUMP JUMPDEST SWAP3 SWAP4 SWAP7 SWAP5 SWAP9 SWAP2 SWAP6 SWAP1 SWAP9 AND PUSH2 0x2497 JUMP JUMPDEST PUSH2 0x88C PUSH2 0x385 PUSH2 0x385 PUSH1 0x20 DUP7 ADD PUSH2 0x15F4 JUMP JUMPDEST SWAP1 DUP2 EXTCODESIZE ISZERO PUSH2 0x410 JUMPI PUSH1 0x0 SWAP6 PUSH2 0x3D5 PUSH1 0x40 SWAP3 DUP4 MLOAD SWAP11 DUP12 SWAP9 DUP10 SWAP8 DUP9 SWAP6 PUSH4 0x7E76FC1 PUSH1 0xE2 SHL DUP8 MSTORE CALLER PUSH1 0x4 DUP9 ADD PUSH2 0x20BF JUMP JUMPDEST PUSH1 0x8 DUP2 PUSH2 0x8C6 DUP7 PUSH2 0x14DF JUMP JUMPDEST AND SUB PUSH2 0x9BB JUMPI POP PUSH1 0x20 SWAP1 DUP4 PUSH2 0x8F1 PUSH2 0x385 PUSH2 0x385 DUP6 PUSH2 0x76D PUSH2 0x6AF PUSH2 0x334 PUSH1 0x80 PUSH2 0x95A SWAP13 ADD DUP9 PUSH2 0x13E9 JUMP JUMPDEST SWAP1 PUSH1 0x0 PUSH2 0x907 DUP6 DUP4 ADD MLOAD PUSH1 0x1 PUSH1 0x1 PUSH1 0xA0 SHL SUB AND SWAP1 JUMP JUMPDEST SWAP4 PUSH2 0x915 PUSH1 0x40 DUP5 ADD MLOAD ISZERO ISZERO SWAP1 JUMP JUMPDEST SWAP3 ADD MLOAD PUSH1 0x40 MLOAD PUSH4 0xCB0F5B7 PUSH1 0xE3 SHL DUP2 MSTORE CALLER PUSH1 0x4 DUP3 ADD MSTORE PUSH1 0x1 PUSH1 0x1 PUSH1 0xA0 SHL SUB SWAP1 SWAP6 AND PUSH1 0x24 DUP7 ADD MSTORE SWAP2 ISZERO ISZERO PUSH1 0x44 DUP6 ADD MSTORE PUSH1 0x64 DUP5 ADD SWAP2 SWAP1 SWAP2 MSTORE SWAP2 SWAP5 DUP6 SWAP3 DUP4 SWAP2 DUP3 SWAP1 PUSH1 0x84 DUP3 ADD SWAP1 JUMP JUMPDEST SUB SWAP3 GAS CALL DUP1 ISZERO PUSH2 0x40B JUMPI PUSH2 0x621 PUSH2 0x613 SWAP2 PUSH2 0x2CC SWAP5 PUSH1 0x0 SWAP2 PUSH2 0x98C JUMPI JUMPDEST POP PUSH1 0x40 MLOAD SWAP3 DUP4 SWAP2 PUSH1 0x20 DUP4 ADD SWAP2 SWAP1 PUSH1 0x20 DUP4 ADD SWAP3 MSTORE JUMP JUMPDEST PUSH2 0x9AE SWAP2 POP PUSH1 0x20 RETURNDATASIZE PUSH1 0x20 GT PUSH2 0x9B4 JUMPI JUMPDEST PUSH2 0x9A6 DUP2 DUP4 PUSH2 0x1261 JUMP JUMPDEST DUP2 ADD SWAP1 PUSH2 0x203B JUMP JUMPDEST CODESIZE PUSH2 0x977 JUMP JUMPDEST POP RETURNDATASIZE PUSH2 0x99C JUMP JUMPDEST PUSH1 0x9 DUP2 PUSH2 0x9C7 DUP7 PUSH2 0x14DF JUMP JUMPDEST AND SUB PUSH2 0xA5B JUMPI POP PUSH1 0x20 SWAP1 DUP4 PUSH2 0x9F2 PUSH2 0x385 PUSH2 0x385 DUP6 PUSH2 0x76D PUSH2 0x6AF PUSH2 0x334 PUSH1 0x80 PUSH2 0x95A SWAP13 ADD DUP9 PUSH2 0x13E9 JUMP JUMPDEST SWAP1 PUSH1 0x0 PUSH2 0xA08 DUP6 DUP4 ADD MLOAD PUSH1 0x1 PUSH1 0x1 PUSH1 0xA0 SHL SUB AND SWAP1 JUMP JUMPDEST SWAP4 PUSH2 0xA16 PUSH1 0x40 DUP5 ADD MLOAD ISZERO ISZERO SWAP1 JUMP JUMPDEST SWAP3 ADD MLOAD PUSH1 0x40 MLOAD PUSH4 0xCD0211EB PUSH1 0xE0 SHL DUP2 MSTORE CALLER PUSH1 0x4 DUP3 ADD MSTORE PUSH1 0x1 PUSH1 0x1 PUSH1 0xA0 SHL SUB SWAP1 SWAP6 AND PUSH1 0x24 DUP7 ADD MSTORE SWAP2 ISZERO ISZERO PUSH1 0x44 DUP6 ADD MSTORE PUSH1 0x64 DUP5 ADD SWAP2 SWAP1 SWAP2 MSTORE SWAP2 SWAP5 DUP6 SWAP3 DUP4 SWAP2 DUP3 SWAP1 PUSH1 0x84 DUP3 ADD SWAP1 JUMP JUMPDEST PUSH1 0xD DUP2 PUSH2 0xA67 DUP7 PUSH2 0x14DF JUMP JUMPDEST AND SUB PUSH2 0xAE7 JUMPI POP POP PUSH2 0xA8A PUSH2 0xA82 PUSH2 0x334 PUSH1 0x80 DUP6 ADD DUP6 PUSH2 0x13E9 JUMP JUMPDEST DUP2 ADD SWAP1 PUSH2 0x1D90 JUMP JUMPDEST SWAP3 PUSH2 0xAA5 PUSH1 0x1 PUSH1 0x1 PUSH1 0xA0 SHL SUB SWAP11 SWAP7 SWAP8 SWAP3 SWAP9 SWAP6 SWAP11 DUP1 SWAP7 AND PUSH2 0x2497 JUMP JUMPDEST PUSH2 0xAB7 PUSH2 0x385 PUSH2 0x385 PUSH1 0x20 DUP10 ADD PUSH2 0x15F4 JUMP JUMPDEST SWAP4 DUP5 EXTCODESIZE ISZERO PUSH2 0x410 JUMPI PUSH1 0x0 SWAP9 PUSH1 0x40 SWAP5 PUSH2 0x3D5 SWAP4 DUP7 MLOAD SWAP14 DUP15 SWAP12 DUP13 SWAP11 DUP12 SWAP9 PUSH4 0x2068BB03 PUSH1 0xE2 SHL DUP11 MSTORE AND CALLER PUSH1 0x4 DUP11 ADD PUSH2 0x1F26 JUMP JUMPDEST PUSH1 0xE DUP2 PUSH2 0xAF3 DUP7 PUSH2 0x14DF JUMP JUMPDEST AND SUB PUSH2 0xB71 JUMPI POP POP PUSH2 0xB16 PUSH2 0xB0E PUSH2 0x334 PUSH1 0x80 DUP6 ADD DUP6 PUSH2 0x13E9 JUMP JUMPDEST DUP2 ADD SWAP1 PUSH2 0x1998 JUMP JUMPDEST PUSH2 0xB30 PUSH1 0x1 PUSH1 0x1 PUSH1 0xA0 SHL SUB SWAP9 SWAP5 SWAP6 SWAP3 SWAP7 SWAP4 SWAP9 DUP1 SWAP5 AND PUSH2 0x2497 JUMP JUMPDEST PUSH2 0xB42 PUSH2 0x385 PUSH2 0x385 PUSH1 0x20 DUP8 ADD PUSH2 0x15F4 JUMP JUMPDEST SWAP2 DUP3 EXTCODESIZE ISZERO PUSH2 0x410 JUMPI PUSH2 0x3D5 PUSH1 0x40 SWAP3 PUSH1 0x0 SWAP9 DUP5 MLOAD SWAP12 DUP13 SWAP10 DUP11 SWAP9 DUP10 SWAP7 PUSH4 0x34218F37 PUSH1 0xE1 SHL DUP9 MSTORE AND CALLER PUSH1 0x4 DUP9 ADD PUSH2 0x1A44 JUMP JUMPDEST PUSH1 0xF DUP2 PUSH2 0xB7D DUP7 PUSH2 0x14DF JUMP JUMPDEST AND SUB PUSH2 0xC26 JUMPI POP PUSH1 0x80 PUSH2 0xBA0 PUSH2 0xB98 PUSH2 0x334 DUP4 DUP8 ADD DUP8 PUSH2 0x13E9 JUMP JUMPDEST DUP2 ADD SWAP1 PUSH2 0x17CC JUMP JUMPDEST SWAP4 PUSH2 0xBB5 PUSH2 0x358 DUP7 MLOAD PUSH1 0x1 PUSH1 0x1 PUSH1 0xA0 SHL SUB AND SWAP1 JUMP JUMPDEST PUSH2 0xBC7 PUSH2 0x385 PUSH2 0x385 PUSH1 0x20 DUP5 ADD PUSH2 0x15F4 JUMP JUMPDEST SWAP3 PUSH2 0xBDC PUSH1 0x20 DUP8 ADD MLOAD PUSH1 0x1 PUSH1 0x1 PUSH1 0xA0 SHL SUB AND SWAP1 JUMP JUMPDEST SWAP4 PUSH1 0xA0 PUSH2 0xBF6 PUSH1 0x40 DUP10 ADD MLOAD SWAP4 DUP10 ADD MLOAD SWAP6 DUP10 ADD MLOAD PUSH2 0xFFFF AND SWAP1 JUMP JUMPDEST SWAP8 ADD MLOAD DUP2 EXTCODESIZE ISZERO PUSH2 0x410 JUMPI PUSH1 0x0 SWAP6 PUSH2 0x3D5 PUSH1 0x40 SWAP3 DUP4 MLOAD SWAP11 DUP12 SWAP9 DUP10 SWAP8 DUP9 SWAP6 PUSH4 0x343B7665 PUSH1 0xE0 SHL DUP8 MSTORE CALLER PUSH1 0x4 DUP9 ADD PUSH2 0x1840 JUMP JUMPDEST PUSH1 0x10 DUP2 PUSH2 0xC32 DUP7 PUSH2 0x14DF JUMP JUMPDEST AND SUB PUSH2 0xCB1 JUMPI POP POP PUSH2 0xC55 PUSH2 0xC4D PUSH2 0x334 PUSH1 0x80 DUP6 ADD DUP6 PUSH2 0x13E9 JUMP JUMPDEST DUP2 ADD SWAP1 PUSH2 0x16CC JUMP JUMPDEST SWAP6 SWAP3 SWAP8 SWAP4 SWAP5 SWAP2 PUSH2 0xC6E PUSH1 0x1 PUSH1 0x1 PUSH1 0xA0 SHL SUB DUP1 SWAP6 AND PUSH2 0x2497 JUMP JUMPDEST PUSH2 0xC80 PUSH2 0x385 PUSH2 0x385 PUSH1 0x20 DUP9 ADD PUSH2 0x15F4 JUMP JUMPDEST SWAP3 DUP4 EXTCODESIZE ISZERO PUSH2 0x410 JUMPI PUSH1 0x0 SWAP8 PUSH1 0x40 SWAP4 PUSH2 0x3D5 SWAP3 DUP6 MLOAD SWAP13 DUP14 SWAP11 DUP12 SWAP10 DUP11 SWAP8 PUSH4 0x9F3A056D PUSH1 0xE0 SHL DUP10 MSTORE AND SWAP3 CALLER PUSH1 0x4 DUP10 ADD PUSH2 0x173A JUMP JUMPDEST PUSH1 0x11 DUP2 PUSH2 0xCBF DUP7 SWAP5 SWAP7 PUSH2 0x14DF JUMP JUMPDEST AND SUB PUSH2 0xD9E JUMPI POP PUSH2 0xCE1 PUSH2 0xCD9 PUSH2 0x334 PUSH1 0x80 DUP5 ADD DUP5 PUSH2 0x13E9 JUMP JUMPDEST DUP2 ADD SWAP1 PUSH2 0x1657 JUMP JUMPDEST PUSH2 0xD04 PUSH2 0x385 PUSH2 0x385 PUSH1 0x20 DUP1 DUP6 ADD SWAP6 PUSH2 0x57C PUSH2 0x358 DUP9 MLOAD PUSH1 0x1 PUSH1 0x1 PUSH1 0xA0 SHL SUB AND SWAP1 JUMP JUMPDEST PUSH2 0xD37 PUSH2 0xD29 PUSH2 0xD1B DUP5 MLOAD PUSH1 0x1 PUSH1 0x1 PUSH1 0xA0 SHL SUB AND SWAP1 JUMP JUMPDEST SWAP5 MLOAD PUSH1 0x1 PUSH1 0x1 PUSH1 0xA0 SHL SUB AND SWAP1 JUMP JUMPDEST SWAP6 PUSH1 0x40 DUP5 ADD MLOAD SWAP4 ADD MLOAD ISZERO ISZERO SWAP1 JUMP JUMPDEST SWAP5 DUP2 EXTCODESIZE ISZERO PUSH2 0x410 JUMPI PUSH1 0x40 MLOAD PUSH4 0x1BDBAD7 PUSH1 0xE7 SHL DUP2 MSTORE PUSH1 0x1 PUSH1 0x1 PUSH1 0xA0 SHL SUB SWAP5 DUP6 AND PUSH1 0x4 DUP3 ADD MSTORE SWAP4 AND PUSH1 0x24 DUP5 ADD MSTORE PUSH1 0x44 DUP4 ADD SWAP2 SWAP1 SWAP2 MSTORE SWAP3 ISZERO ISZERO PUSH1 0x64 DUP3 ADD MSTORE PUSH1 0x0 PUSH1 0x84 DUP3 ADD DUP2 SWAP1 MSTORE SWAP1 SWAP3 DUP4 SWAP1 PUSH1 0xA4 SWAP1 DUP3 SWAP1 DUP5 SWAP1 GAS CALL SWAP2 DUP3 ISZERO PUSH2 0x40B JUMPI PUSH2 0x2CC SWAP3 PUSH2 0x3F2 JUMPI POP PUSH2 0x1370 JUMP JUMPDEST DUP2 SWAP4 POP PUSH2 0xDAC PUSH1 0x12 SWAP3 PUSH2 0x14DF JUMP JUMPDEST AND SUB PUSH2 0xE36 JUMPI PUSH2 0xDCD PUSH2 0xDC5 PUSH2 0x334 PUSH1 0x80 DUP6 ADD DUP6 PUSH2 0x13E9 JUMP JUMPDEST DUP2 ADD SWAP1 PUSH2 0x1574 JUMP JUMPDEST SWAP7 SWAP9 SWAP5 SWAP3 POP SWAP5 PUSH2 0xDE8 PUSH1 0x1 PUSH1 0x1 PUSH1 0xA0 SHL SUB DUP3 SWAP6 SWAP4 SWAP6 AND PUSH2 0x2497 JUMP JUMPDEST PUSH2 0xDFA PUSH2 0x385 PUSH2 0x385 PUSH1 0x20 DUP9 ADD PUSH2 0x15F4 JUMP JUMPDEST SWAP3 DUP4 EXTCODESIZE ISZERO PUSH2 0x410 JUMPI PUSH1 0x0 SWAP8 PUSH1 0x1 PUSH1 0x1 PUSH1 0xA0 SHL SUB SWAP8 DUP9 SWAP7 PUSH1 0x40 SWAP6 PUSH2 0x3D5 SWAP5 DUP8 MLOAD SWAP15 DUP16 SWAP13 DUP14 SWAP12 DUP13 SWAP10 PUSH4 0x411628D9 PUSH1 0xE0 SHL DUP12 MSTORE AND SWAP2 AND PUSH1 0x4 DUP10 ADD PUSH2 0x15FE JUMP JUMPDEST PUSH1 0x40 MLOAD PUSH3 0x461BCD PUSH1 0xE5 SHL DUP2 MSTORE PUSH1 0x20 PUSH1 0x4 DUP3 ADD MSTORE PUSH1 0x1A PUSH1 0x24 DUP3 ADD MSTORE PUSH32 0x4D61676E657461723A20616374696F6E206E6F742076616C6964000000000000 PUSH1 0x44 DUP3 ADD MSTORE PUSH1 0x64 SWAP1 REVERT JUMPDEST SUB SWAP1 REVERT JUMPDEST PUSH2 0xEBA PUSH2 0xE8F PUSH1 0x80 DUP7 ADD DUP7 PUSH2 0x13E9 JUMP JUMPDEST SWAP1 POP PUSH2 0xEB2 PUSH1 0x40 MLOAD PUSH2 0xEAD DUP2 PUSH2 0x613 DUP10 PUSH1 0x20 DUP4 ADD SWAP2 SWAP1 PUSH1 0x20 DUP4 ADD SWAP3 MSTORE JUMP JUMPDEST PUSH2 0x141C JUMP JUMPDEST SWAP1 ISZERO ISZERO PUSH2 0x14A7 JUMP JUMPDEST PUSH2 0x270 JUMP JUMPDEST PUSH1 0x0 SWAP2 SUB SLT PUSH2 0x410 JUMPI JUMP JUMPDEST CALLVALUE PUSH2 0x410 JUMPI PUSH1 0x0 CALLDATASIZE PUSH1 0x3 NOT ADD SLT PUSH2 0x410 JUMPI PUSH1 0x20 PUSH1 0x40 MLOAD TIMESTAMP DUP2 MSTORE RETURN JUMPDEST CALLVALUE PUSH2 0x410 JUMPI PUSH1 0x0 CALLDATASIZE PUSH1 0x3 NOT ADD SLT PUSH2 0x410 JUMPI PUSH1 0x20 PUSH1 0x40 MLOAD PUSH1 0x0 NOT NUMBER ADD BLOCKHASH DUP2 MSTORE RETURN JUMPDEST CALLVALUE PUSH2 0x410 JUMPI PUSH1 0x0 CALLDATASIZE PUSH1 0x3 NOT ADD SLT PUSH2 0x410 JUMPI PUSH1 0x20 PUSH1 0x40 MLOAD CHAINID DUP2 MSTORE RETURN JUMPDEST CALLVALUE PUSH2 0x410 JUMPI PUSH1 0x0 CALLDATASIZE PUSH1 0x3 NOT ADD SLT PUSH2 0x410 JUMPI PUSH1 0x20 PUSH1 0x40 MLOAD BASEFEE DUP2 MSTORE RETURN JUMPDEST CALLVALUE PUSH2 0x410 JUMPI PUSH1 0x0 CALLDATASIZE PUSH1 0x3 NOT ADD SLT PUSH2 0x410 JUMPI PUSH1 0x20 PUSH1 0x40 MLOAD NUMBER DUP2 MSTORE RETURN JUMPDEST PUSH1 0x1 PUSH1 0x1 PUSH1 0xA0 SHL SUB DUP2 AND SUB PUSH2 0x410 JUMPI JUMP JUMPDEST CALLDATALOAD SWAP1 PUSH2 0xF72 DUP3 PUSH2 0xF56 JUMP JUMPDEST JUMP JUMPDEST CALLVALUE PUSH2 0x410 JUMPI PUSH1 0x20 CALLDATASIZE PUSH1 0x3 NOT ADD SLT PUSH2 0x410 JUMPI PUSH1 0x20 PUSH1 0x4 CALLDATALOAD PUSH2 0xF93 DUP2 PUSH2 0xF56 JUMP JUMPDEST BALANCE PUSH1 0x40 MLOAD SWAP1 DUP2 MSTORE RETURN JUMPDEST CALLVALUE PUSH2 0x410 JUMPI PUSH1 0x0 DUP1 PUSH1 0x3 NOT CALLDATASIZE ADD SLT PUSH2 0xFEF JUMPI PUSH2 0xFB6 PUSH2 0x114E JUMP JUMPDEST DUP1 PUSH1 0x1 PUSH1 0x1 PUSH1 0xA0 SHL SUB DUP2 SLOAD DUP2 NOT DUP2 AND DUP4 SSTORE AND PUSH32 0x8BE0079C531659141344CD1FD0A4F28419497F9722A3DAAFE3B4186F6B6457E0 DUP3 DUP1 LOG3 DUP1 RETURN JUMPDEST DUP1 REVERT JUMPDEST CALLVALUE PUSH2 0x410 JUMPI PUSH1 0x0 CALLDATASIZE PUSH1 0x3 NOT ADD SLT PUSH2 0x410 JUMPI PUSH1 0x20 PUSH1 0x40 MLOAD PREVRANDAO DUP2 MSTORE RETURN JUMPDEST CALLVALUE PUSH2 0x410 JUMPI PUSH1 0x0 CALLDATASIZE PUSH1 0x3 NOT ADD SLT PUSH2 0x410 JUMPI PUSH1 0x20 PUSH1 0x40 MLOAD GASLIMIT DUP2 MSTORE RETURN JUMPDEST CALLVALUE PUSH2 0x410 JUMPI PUSH1 0x0 CALLDATASIZE PUSH1 0x3 NOT ADD SLT PUSH2 0x410 JUMPI PUSH1 0x20 PUSH1 0x1 PUSH1 0x1 PUSH1 0xA0 SHL SUB PUSH1 0x0 SLOAD AND PUSH1 0x40 MLOAD SWAP1 DUP2 MSTORE RETURN JUMPDEST CALLVALUE PUSH2 0x410 JUMPI PUSH1 0x0 CALLDATASIZE PUSH1 0x3 NOT ADD SLT PUSH2 0x410 JUMPI PUSH1 0x20 PUSH1 0x40 MLOAD COINBASE DUP2 MSTORE RETURN JUMPDEST CALLVALUE PUSH2 0x410 JUMPI PUSH1 0x20 CALLDATASIZE PUSH1 0x3 NOT ADD SLT PUSH2 0x410 JUMPI PUSH1 0x20 PUSH1 0x40 MLOAD PUSH1 0x4 CALLDATALOAD BLOCKHASH DUP2 MSTORE RETURN JUMPDEST CALLVALUE PUSH2 0x410 JUMPI PUSH1 0x20 CALLDATASIZE PUSH1 0x3 NOT ADD SLT PUSH2 0x410 JUMPI PUSH1 0x4 CALLDATALOAD PUSH2 0x10A5 DUP2 PUSH2 0xF56 JUMP JUMPDEST PUSH2 0x10AD PUSH2 0x114E JUMP JUMPDEST PUSH1 0x1 PUSH1 0x1 PUSH1 0xA0 SHL SUB DUP1 SWAP2 AND DUP1 ISZERO PUSH2 0x10FA JUMPI PUSH1 0x0 SWAP2 DUP3 SLOAD DUP3 PUSH1 0x1 PUSH1 0x1 PUSH1 0xA0 SHL SUB NOT DUP3 AND OR DUP5 SSTORE AND PUSH32 0x8BE0079C531659141344CD1FD0A4F28419497F9722A3DAAFE3B4186F6B6457E0 DUP4 DUP1 LOG3 DUP1 RETURN JUMPDEST PUSH1 0x40 MLOAD PUSH3 0x461BCD PUSH1 0xE5 SHL DUP2 MSTORE PUSH1 0x20 PUSH1 0x4 DUP3 ADD MSTORE PUSH1 0x26 PUSH1 0x24 DUP3 ADD MSTORE PUSH32 0x4F776E61626C653A206E6577206F776E657220697320746865207A65726F2061 PUSH1 0x44 DUP3 ADD MSTORE PUSH6 0x646472657373 PUSH1 0xD0 SHL PUSH1 0x64 DUP3 ADD MSTORE PUSH1 0x84 SWAP1 REVERT JUMPDEST PUSH1 0x1 PUSH1 0x1 PUSH1 0xA0 SHL SUB PUSH1 0x0 SLOAD AND CALLER SUB PUSH2 0x1162 JUMPI JUMP JUMPDEST PUSH1 0x64 PUSH1 0x40 MLOAD PUSH3 0x461BCD PUSH1 0xE5 SHL DUP2 MSTORE PUSH1 0x20 PUSH1 0x4 DUP3 ADD MSTORE PUSH1 0x20 PUSH1 0x24 DUP3 ADD MSTORE PUSH32 0x4F776E61626C653A2063616C6C6572206973206E6F7420746865206F776E6572 PUSH1 0x44 DUP3 ADD MSTORE REVERT JUMPDEST PUSH4 0x4E487B71 PUSH1 0xE0 SHL PUSH1 0x0 MSTORE PUSH1 0x41 PUSH1 0x4 MSTORE PUSH1 0x24 PUSH1 0x0 REVERT JUMPDEST PUSH8 0xFFFFFFFFFFFFFFFF DUP2 GT PUSH2 0x11D0 JUMPI PUSH1 0x40 MSTORE JUMP JUMPDEST PUSH2 0x11A6 JUMP JUMPDEST PUSH1 0xA0 DUP2 ADD SWAP1 DUP2 LT PUSH8 0xFFFFFFFFFFFFFFFF DUP3 GT OR PUSH2 0x11D0 JUMPI PUSH1 0x40 MSTORE JUMP JUMPDEST PUSH1 0x60 DUP2 ADD SWAP1 DUP2 LT PUSH8 0xFFFFFFFFFFFFFFFF DUP3 GT OR PUSH2 0x11D0 JUMPI PUSH1 0x40 MSTORE JUMP JUMPDEST PUSH1 0xC0 DUP2 ADD SWAP1 DUP2 LT PUSH8 0xFFFFFFFFFFFFFFFF DUP3 GT OR PUSH2 0x11D0 JUMPI PUSH1 0x40 MSTORE JUMP JUMPDEST PUSH1 0x80 DUP2 ADD SWAP1 DUP2 LT PUSH8 0xFFFFFFFFFFFFFFFF DUP3 GT OR PUSH2 0x11D0 JUMPI PUSH1 0x40 MSTORE JUMP JUMPDEST PUSH1 0xE0 DUP2 ADD SWAP1 DUP2 LT PUSH8 0xFFFFFFFFFFFFFFFF DUP3 GT OR PUSH2 0x11D0 JUMPI PUSH1 0x40 MSTORE JUMP JUMPDEST SWAP1 PUSH1 0x1F DUP1 NOT SWAP2 ADD AND DUP2 ADD SWAP1 DUP2 LT PUSH8 0xFFFFFFFFFFFFFFFF DUP3 GT OR PUSH2 0x11D0 JUMPI PUSH1 0x40 MSTORE JUMP JUMPDEST PUSH1 0x40 MLOAD SWAP1 PUSH1 0x40 DUP3 ADD DUP3 DUP2 LT PUSH8 0xFFFFFFFFFFFFFFFF DUP3 GT OR PUSH2 0x11D0 JUMPI PUSH1 0x40 MSTORE JUMP JUMPDEST PUSH1 0x40 MLOAD SWAP1 PUSH2 0x120 DUP3 ADD DUP3 DUP2 LT PUSH8 0xFFFFFFFFFFFFFFFF DUP3 GT OR PUSH2 0x11D0 JUMPI PUSH1 0x40 MSTORE JUMP JUMPDEST PUSH1 0x40 MLOAD SWAP1 PUSH2 0x140 DUP3 ADD DUP3 DUP2 LT PUSH8 0xFFFFFFFFFFFFFFFF DUP3 GT OR PUSH2 0x11D0 JUMPI PUSH1 0x40 MSTORE JUMP JUMPDEST PUSH8 0xFFFFFFFFFFFFFFFF DUP2 GT PUSH2 0x11D0 JUMPI PUSH1 0x5 SHL PUSH1 0x20 ADD SWAP1 JUMP JUMPDEST SWAP1 PUSH2 0x1307 DUP3 PUSH2 0x12E5 JUMP JUMPDEST PUSH1 0x40 SWAP1 PUSH2 0x1316 DUP3 MLOAD SWAP2 DUP3 PUSH2 0x1261 JUMP JUMPDEST DUP4 DUP2 MSTORE DUP1 SWAP4 PUSH2 0x1327 PUSH1 0x1F NOT SWAP2 PUSH2 0x12E5 JUMP JUMPDEST ADD SWAP1 PUSH1 0x0 SWAP1 DUP2 JUMPDEST DUP4 DUP2 LT PUSH2 0x133C JUMPI POP POP POP POP POP JUMP JUMPDEST DUP5 MLOAD SWAP1 DUP6 DUP3 ADD SWAP2 DUP1 DUP4 LT PUSH8 0xFFFFFFFFFFFFFFFF DUP5 GT OR PUSH2 0x11D0 JUMPI PUSH1 0x20 SWAP3 DUP8 MSTORE DUP5 DUP2 MSTORE DUP3 PUSH1 0x60 DUP2 DUP4 ADD MSTORE DUP3 DUP6 ADD ADD MSTORE ADD PUSH2 0x132E JUMP JUMPDEST PUSH1 0x0 NOT DUP2 EQ PUSH2 0x137F JUMPI PUSH1 0x1 ADD SWAP1 JUMP JUMPDEST PUSH4 0x4E487B71 PUSH1 0xE0 SHL PUSH1 0x0 MSTORE PUSH1 0x11 PUSH1 0x4 MSTORE PUSH1 0x24 PUSH1 0x0 REVERT JUMPDEST PUSH4 0x4E487B71 PUSH1 0xE0 SHL PUSH1 0x0 MSTORE PUSH1 0x32 PUSH1 0x4 MSTORE PUSH1 0x24 PUSH1 0x0 REVERT JUMPDEST SWAP2 SWAP1 DUP2 LT ISZERO PUSH2 0x13CD JUMPI PUSH1 0x5 SHL DUP2 ADD CALLDATALOAD SWAP1 PUSH1 0x9E NOT DUP2 CALLDATASIZE SUB ADD DUP3 SLT ISZERO PUSH2 0x410 JUMPI ADD SWAP1 JUMP JUMPDEST PUSH2 0x1395 JUMP JUMPDEST DUP1 ISZERO ISZERO SUB PUSH2 0x410 JUMPI JUMP JUMPDEST CALLDATALOAD PUSH2 0x13E6 DUP2 PUSH2 0x13D2 JUMP JUMPDEST SWAP1 JUMP JUMPDEST SWAP1 CALLDATALOAD SWAP1 PUSH1 0x1E NOT DUP2 CALLDATASIZE SUB ADD DUP3 SLT ISZERO PUSH2 0x410 JUMPI ADD DUP1 CALLDATALOAD SWAP1 PUSH8 0xFFFFFFFFFFFFFFFF DUP3 GT PUSH2 0x410 JUMPI PUSH1 0x20 ADD SWAP2 DUP2 CALLDATASIZE SUB DUP4 SGT PUSH2 0x410 JUMPI JUMP JUMPDEST SWAP1 PUSH2 0xF72 PUSH1 0x4C PUSH1 0x40 MLOAD DUP1 SWAP5 PUSH32 0x4D61676E657461723A204D697373696E672063616C6C20666F7220616374696F PUSH1 0x20 DUP4 ADD MSTORE PUSH32 0x6E207769746820696E6465780000000000000000000000000000000000000000 PUSH1 0x40 DUP4 ADD MSTORE PUSH2 0x1486 DUP2 MLOAD DUP1 SWAP3 PUSH1 0x20 DUP7 DUP7 ADD SWAP2 ADD PUSH2 0xFC JUMP JUMPDEST DUP2 ADD SUB PUSH1 0x2C DUP2 ADD DUP6 MSTORE ADD DUP4 PUSH2 0x1261 JUMP JUMPDEST SWAP1 PUSH1 0x20 PUSH2 0x13E6 SWAP3 DUP2 DUP2 MSTORE ADD SWAP1 PUSH2 0x11F JUMP JUMPDEST ISZERO PUSH2 0x14AF JUMPI POP JUMP JUMPDEST PUSH1 0x40 MLOAD PUSH3 0x461BCD PUSH1 0xE5 SHL DUP2 MSTORE PUSH1 0x20 PUSH1 0x4 DUP3 ADD MSTORE SWAP1 DUP2 SWAP1 PUSH2 0xE7B SWAP1 PUSH1 0x24 DUP4 ADD SWAP1 PUSH2 0x11F JUMP JUMPDEST PUSH2 0xFFFF DUP2 AND SUB PUSH2 0x410 JUMPI JUMP JUMPDEST CALLDATALOAD PUSH2 0x13E6 DUP2 PUSH2 0x14D3 JUMP JUMPDEST SWAP1 SWAP3 SWAP2 SWAP3 DUP4 PUSH1 0x4 GT PUSH2 0x410 JUMPI DUP4 GT PUSH2 0x410 JUMPI PUSH1 0x4 ADD SWAP2 PUSH1 0x3 NOT ADD SWAP1 JUMP JUMPDEST CALLDATALOAD SWAP1 PUSH2 0xF72 DUP3 PUSH2 0x13D2 JUMP JUMPDEST PUSH8 0xFFFFFFFFFFFFFFFF DUP2 GT PUSH2 0x11D0 JUMPI PUSH1 0x1F ADD PUSH1 0x1F NOT AND PUSH1 0x20 ADD SWAP1 JUMP JUMPDEST DUP2 PUSH1 0x1F DUP3 ADD SLT ISZERO PUSH2 0x410 JUMPI DUP1 CALLDATALOAD SWAP1 PUSH2 0x1544 DUP3 PUSH2 0x1511 JUMP JUMPDEST SWAP3 PUSH2 0x1552 PUSH1 0x40 MLOAD SWAP5 DUP6 PUSH2 0x1261 JUMP JUMPDEST DUP3 DUP5 MSTORE PUSH1 0x20 DUP4 DUP4 ADD ADD GT PUSH2 0x410 JUMPI DUP2 PUSH1 0x0 SWAP3 PUSH1 0x20 DUP1 SWAP4 ADD DUP4 DUP7 ADD CALLDATACOPY DUP4 ADD ADD MSTORE SWAP1 JUMP JUMPDEST SWAP2 SWAP1 SWAP2 PUSH2 0x100 DUP2 DUP5 SUB SLT PUSH2 0x410 JUMPI DUP1 CALLDATALOAD PUSH2 0x158D DUP2 PUSH2 0xF56 JUMP JUMPDEST SWAP3 PUSH1 0x20 DUP3 ADD CALLDATALOAD PUSH2 0x159C DUP2 PUSH2 0xF56 JUMP JUMPDEST SWAP3 PUSH1 0x40 DUP4 ADD CALLDATALOAD SWAP3 PUSH1 0x60 DUP2 ADD CALLDATALOAD SWAP3 PUSH1 0x80 DUP3 ADD CALLDATALOAD PUSH2 0x15B7 DUP2 PUSH2 0x13D2 JUMP JUMPDEST SWAP3 PUSH1 0xA0 DUP4 ADD CALLDATALOAD PUSH2 0x15C6 DUP2 PUSH2 0x13D2 JUMP JUMPDEST SWAP3 PUSH1 0xC0 DUP2 ADD CALLDATALOAD PUSH2 0x15D5 DUP2 PUSH2 0x13D2 JUMP JUMPDEST SWAP3 PUSH1 0xE0 DUP3 ADD CALLDATALOAD PUSH8 0xFFFFFFFFFFFFFFFF DUP2 GT PUSH2 0x410 JUMPI PUSH2 0x13E6 SWAP3 ADD PUSH2 0x152D JUMP JUMPDEST CALLDATALOAD PUSH2 0x13E6 DUP2 PUSH2 0xF56 JUMP JUMPDEST SWAP5 SWAP3 SWAP1 PUSH2 0x13E6 SWAP8 SWAP7 SWAP5 SWAP3 PUSH1 0x1 PUSH1 0x1 PUSH1 0xA0 SHL SUB DUP1 SWAP3 AND DUP8 MSTORE AND PUSH1 0x20 DUP7 ADD MSTORE PUSH1 0x40 DUP6 ADD MSTORE PUSH1 0x60 DUP5 ADD MSTORE PUSH1 0x0 PUSH1 0x80 DUP5 ADD MSTORE ISZERO ISZERO PUSH1 0xA0 DUP4 ADD MSTORE ISZERO ISZERO PUSH1 0xC0 DUP3 ADD MSTORE PUSH2 0x100 SWAP1 DUP2 PUSH1 0xE0 DUP3 ADD MSTORE ADD SWAP1 PUSH2 0x11F JUMP JUMPDEST PUSH1 0x40 MLOAD RETURNDATASIZE PUSH1 0x0 DUP3 RETURNDATACOPY RETURNDATASIZE SWAP1 REVERT JUMPDEST SWAP1 DUP2 PUSH1 0xA0 SWAP2 SUB SLT PUSH2 0x410 JUMPI PUSH1 0x80 PUSH1 0x40 MLOAD SWAP2 PUSH2 0x1671 DUP4 PUSH2 0x11D5 JUMP JUMPDEST DUP1 CALLDATALOAD PUSH2 0x167C DUP2 PUSH2 0xF56 JUMP JUMPDEST DUP4 MSTORE PUSH1 0x20 DUP2 ADD CALLDATALOAD PUSH2 0x168C DUP2 PUSH2 0xF56 JUMP JUMPDEST PUSH1 0x20 DUP5 ADD MSTORE PUSH1 0x40 DUP2 ADD CALLDATALOAD PUSH1 0x40 DUP5 ADD MSTORE PUSH1 0x60 DUP2 ADD CALLDATALOAD PUSH2 0x16A9 DUP2 PUSH2 0x13D2 JUMP JUMPDEST PUSH1 0x60 DUP5 ADD MSTORE ADD CALLDATALOAD PUSH2 0x16B9 DUP2 PUSH2 0x13D2 JUMP JUMPDEST PUSH1 0x80 DUP3 ADD MSTORE SWAP1 JUMP JUMPDEST CALLDATALOAD SWAP1 PUSH2 0xF72 DUP3 PUSH2 0x14D3 JUMP JUMPDEST PUSH1 0xE0 DUP2 DUP4 SUB SLT PUSH2 0x410 JUMPI DUP1 CALLDATALOAD PUSH2 0x16E1 DUP2 PUSH2 0xF56 JUMP JUMPDEST SWAP3 PUSH1 0x20 DUP3 ADD CALLDATALOAD SWAP3 PUSH1 0x40 DUP4 ADD CALLDATALOAD SWAP3 PUSH1 0x60 DUP2 ADD CALLDATALOAD PUSH2 0x16FC DUP2 PUSH2 0x14D3 JUMP JUMPDEST SWAP3 PUSH1 0x80 DUP3 ADD CALLDATALOAD PUSH2 0x170B DUP2 PUSH2 0xF56 JUMP JUMPDEST SWAP3 PUSH1 0xA0 DUP4 ADD CALLDATALOAD PUSH8 0xFFFFFFFFFFFFFFFF DUP2 GT PUSH2 0x410 JUMPI PUSH1 0xC0 SWAP2 PUSH2 0x172E SWAP2 DUP6 ADD PUSH2 0x152D JUMP JUMPDEST SWAP3 ADD CALLDATALOAD PUSH2 0x13E6 DUP2 PUSH2 0x13D2 JUMP JUMPDEST SWAP6 SWAP3 PUSH2 0x1780 SWAP5 PUSH2 0xFFFF SWAP2 PUSH1 0xC0 SWAP8 SWAP4 SWAP5 SWAP11 SWAP10 SWAP11 PUSH1 0x1 PUSH1 0x1 PUSH1 0xA0 SHL SUB DUP1 SWAP7 AND DUP11 MSTORE PUSH1 0x20 DUP11 ADD MSTORE PUSH1 0x40 DUP10 ADD MSTORE AND PUSH1 0x60 DUP8 ADD MSTORE AND PUSH1 0x80 DUP6 ADD MSTORE PUSH1 0xE0 PUSH1 0xA0 DUP6 ADD MSTORE PUSH1 0xE0 DUP5 ADD SWAP1 PUSH2 0x11F JUMP JUMPDEST SWAP4 ISZERO ISZERO SWAP2 ADD MSTORE JUMP JUMPDEST SWAP2 SWAP1 DUP3 PUSH1 0x60 SWAP2 SUB SLT PUSH2 0x410 JUMPI PUSH1 0x40 MLOAD PUSH2 0x17A0 DUP2 PUSH2 0x11F1 JUMP JUMPDEST PUSH1 0x40 DUP1 DUP3 SWAP5 DUP1 CALLDATALOAD DUP5 MSTORE PUSH1 0x20 DUP2 ADD CALLDATALOAD PUSH2 0x17B7 DUP2 PUSH2 0xF56 JUMP JUMPDEST PUSH1 0x20 DUP6 ADD MSTORE ADD CALLDATALOAD SWAP2 PUSH2 0x17C8 DUP4 PUSH2 0x13D2 JUMP JUMPDEST ADD MSTORE JUMP JUMPDEST SWAP1 PUSH2 0x100 DUP3 DUP3 SUB SLT PUSH2 0x410 JUMPI PUSH2 0x1838 SWAP1 PUSH1 0xA0 PUSH1 0x40 MLOAD SWAP4 PUSH2 0x17EB DUP6 PUSH2 0x120D JUMP JUMPDEST DUP1 CALLDATALOAD PUSH2 0x17F6 DUP2 PUSH2 0xF56 JUMP JUMPDEST DUP6 MSTORE PUSH1 0x20 DUP2 ADD CALLDATALOAD PUSH2 0x1806 DUP2 PUSH2 0xF56 JUMP JUMPDEST PUSH1 0x20 DUP7 ADD MSTORE PUSH1 0x40 DUP2 ADD CALLDATALOAD PUSH1 0x40 DUP7 ADD MSTORE PUSH1 0x60 DUP2 ADD CALLDATALOAD PUSH1 0x60 DUP7 ADD MSTORE PUSH1 0x80 DUP2 ADD CALLDATALOAD PUSH2 0x182D DUP2 PUSH2 0x14D3 JUMP JUMPDEST PUSH1 0x80 DUP7 ADD MSTORE ADD PUSH2 0x1788 JUMP JUMPDEST PUSH1 0xA0 DUP3 ADD MSTORE SWAP1 JUMP JUMPDEST SWAP2 SWAP7 SWAP6 SWAP4 SWAP5 PUSH2 0xF72 SWAP6 PUSH1 0xA0 SWAP5 PUSH2 0xFFFF SWAP4 PUSH2 0x100 DUP7 ADD SWAP11 PUSH1 0x1 PUSH1 0x1 PUSH1 0xA0 SHL SUB DUP1 SWAP3 AND DUP8 MSTORE AND PUSH1 0x20 DUP7 ADD MSTORE PUSH1 0x40 DUP6 ADD MSTORE PUSH1 0x60 DUP5 ADD MSTORE AND PUSH1 0x80 DUP3 ADD MSTORE ADD SWAP1 PUSH1 0x40 DUP1 SWAP2 DUP1 MLOAD DUP5 MSTORE PUSH1 0x1 PUSH1 0x1 PUSH1 0xA0 SHL SUB PUSH1 0x20 DUP3 ADD MLOAD AND PUSH1 0x20 DUP6 ADD MSTORE ADD MLOAD ISZERO ISZERO SWAP2 ADD MSTORE JUMP JUMPDEST CALLDATALOAD SWAP1 PUSH1 0xFF DUP3 AND DUP3 SUB PUSH2 0x410 JUMPI JUMP JUMPDEST DUP2 PUSH1 0x1F DUP3 ADD SLT ISZERO PUSH2 0x410 JUMPI DUP1 CALLDATALOAD SWAP1 PUSH2 0x18C4 DUP3 PUSH2 0x12E5 JUMP JUMPDEST SWAP3 PUSH1 0x40 SWAP1 PUSH2 0x18D4 DUP3 MLOAD SWAP6 DUP7 PUSH2 0x1261 JUMP JUMPDEST DUP4 DUP6 MSTORE PUSH1 0x20 SWAP2 DUP3 DUP7 ADD SWAP2 DUP4 PUSH2 0x120 DUP1 SWAP8 MUL DUP7 ADD ADD SWAP5 DUP2 DUP7 GT PUSH2 0x410 JUMPI DUP5 ADD SWAP3 JUMPDEST DUP6 DUP5 LT PUSH2 0x1905 JUMPI POP POP POP POP POP POP POP SWAP1 JUMP JUMPDEST DUP7 DUP5 DUP4 SUB SLT PUSH2 0x410 JUMPI DUP5 DUP8 SWAP2 PUSH2 0x1919 PUSH2 0x12A3 JUMP JUMPDEST PUSH2 0x1922 DUP8 PUSH2 0x1506 JUMP JUMPDEST DUP2 MSTORE PUSH2 0x192F DUP4 DUP9 ADD PUSH2 0xF67 JUMP JUMPDEST DUP4 DUP3 ADD MSTORE PUSH2 0x193E DUP7 DUP9 ADD PUSH2 0xF67 JUMP JUMPDEST DUP7 DUP3 ADD MSTORE PUSH1 0x60 PUSH2 0x194F DUP2 DUP10 ADD PUSH2 0xF67 JUMP JUMPDEST SWAP1 DUP3 ADD MSTORE PUSH1 0x80 DUP1 DUP9 ADD CALLDATALOAD SWAP1 DUP3 ADD MSTORE PUSH1 0xA0 DUP1 DUP9 ADD CALLDATALOAD SWAP1 DUP3 ADD MSTORE PUSH1 0xC0 PUSH2 0x1974 DUP2 DUP10 ADD PUSH2 0x189F JUMP JUMPDEST SWAP1 DUP3 ADD MSTORE PUSH1 0xE0 DUP1 DUP9 ADD CALLDATALOAD SWAP1 DUP3 ADD MSTORE PUSH2 0x100 DUP1 DUP9 ADD CALLDATALOAD SWAP1 DUP3 ADD MSTORE DUP2 MSTORE ADD SWAP4 ADD SWAP3 PUSH2 0x18F4 JUMP JUMPDEST SWAP2 SWAP1 SWAP2 DUP1 DUP4 SUB SWAP1 PUSH2 0x140 DUP3 SLT PUSH2 0x410 JUMPI DUP1 CALLDATALOAD PUSH2 0x19B3 DUP2 PUSH2 0xF56 JUMP JUMPDEST SWAP4 PUSH1 0x20 DUP3 ADD CALLDATALOAD PUSH2 0x19C2 DUP2 PUSH2 0xF56 JUMP JUMPDEST SWAP4 PUSH1 0x60 PUSH1 0x40 DUP5 ADD CALLDATALOAD PUSH2 0x19D3 DUP2 PUSH2 0x14D3 JUMP JUMPDEST SWAP5 PUSH1 0x5F NOT ADD SLT PUSH2 0x410 JUMPI PUSH1 0x40 MLOAD PUSH2 0x19E9 DUP2 PUSH2 0x11F1 JUMP JUMPDEST PUSH1 0x60 DUP5 ADD CALLDATALOAD DUP2 MSTORE PUSH1 0x80 DUP5 ADD CALLDATALOAD PUSH2 0x19FE DUP2 PUSH2 0xF56 JUMP JUMPDEST PUSH1 0x20 DUP3 ADD MSTORE PUSH1 0xA0 DUP5 ADD CALLDATALOAD PUSH2 0x1A11 DUP2 PUSH2 0xF56 JUMP JUMPDEST PUSH1 0x40 DUP3 ADD MSTORE SWAP3 PUSH2 0x1A24 DUP4 PUSH1 0xC0 DUP4 ADD PUSH2 0x1788 JUMP JUMPDEST SWAP3 PUSH2 0x120 DUP3 ADD CALLDATALOAD PUSH8 0xFFFFFFFFFFFFFFFF DUP2 GT PUSH2 0x410 JUMPI PUSH2 0x13E6 SWAP3 ADD PUSH2 0x18AD JUMP JUMPDEST SWAP5 SWAP3 SWAP1 PUSH2 0x140 SWAP1 DUP2 DUP8 ADD SWAP5 PUSH1 0x1 PUSH1 0x1 PUSH1 0xA0 SHL SUB DUP1 SWAP3 AND DUP9 MSTORE DUP2 PUSH1 0x20 SWAP6 AND DUP6 DUP10 ADD MSTORE PUSH2 0xFFFF PUSH1 0x40 SWAP5 AND DUP5 DUP10 ADD MSTORE DUP7 MLOAD SWAP8 PUSH1 0x60 SWAP9 DUP10 DUP3 ADD MSTORE DUP6 PUSH2 0x160 DUP5 DUP8 DUP2 DUP5 DUP14 ADD MLOAD AND SWAP12 PUSH1 0x80 SWAP13 DUP14 DUP8 ADD MSTORE ADD MLOAD AND SWAP3 PUSH1 0xA0 SWAP4 DUP5 DUP3 ADD MSTORE PUSH2 0x1AC7 PUSH1 0xC0 SWAP6 DUP7 DUP4 ADD SWAP1 PUSH1 0x40 DUP1 SWAP2 DUP1 MLOAD DUP5 MSTORE PUSH1 0x1 PUSH1 0x1 PUSH1 0xA0 SHL SUB PUSH1 0x20 DUP3 ADD MLOAD AND PUSH1 0x20 DUP6 ADD MSTORE ADD MLOAD ISZERO ISZERO SWAP2 ADD MSTORE JUMP JUMPDEST PUSH2 0x120 SWAP7 DUP8 DUP3 ADD MSTORE DUP13 MLOAD DUP1 SWAP11 MSTORE ADD SWAP11 ADD SWAP8 PUSH1 0x0 SWAP6 JUMPDEST DUP9 DUP8 LT PUSH2 0x1AF1 JUMPI POP POP POP POP POP POP POP POP POP POP POP SWAP1 JUMP JUMPDEST SWAP1 SWAP2 SWAP3 SWAP4 SWAP5 SWAP6 SWAP7 SWAP8 SWAP9 SWAP10 SWAP12 SWAP11 DUP9 DUP8 PUSH1 0x1 SWAP3 DUP16 PUSH2 0x1B44 DUP16 MLOAD SWAP2 DUP3 MLOAD ISZERO ISZERO DUP5 MSTORE DUP12 DUP7 DUP5 ADD MLOAD AND DUP7 DUP6 ADD MSTORE PUSH2 0x1B31 DUP9 DUP5 ADD MLOAD DUP10 DUP7 ADD SWAP1 PUSH1 0x1 PUSH1 0x1 PUSH1 0xA0 SHL SUB AND SWAP1 MSTORE JUMP JUMPDEST DUP3 DUP2 ADD MLOAD PUSH1 0x1 PUSH1 0x1 PUSH1 0xA0 SHL SUB AND SWAP1 DUP5 ADD MSTORE JUMP JUMPDEST DUP1 DUP8 ADD MLOAD DUP3 DUP9 ADD MSTORE DUP8 DUP2 ADD MLOAD DUP9 DUP4 ADD MSTORE DUP9 DUP2 ADD MLOAD PUSH1 0xFF AND DUP10 DUP4 ADD MSTORE PUSH1 0xE0 DUP2 DUP2 ADD MLOAD SWAP1 DUP4 ADD MSTORE PUSH2 0x100 SWAP1 DUP2 ADD MLOAD SWAP1 DUP3 ADD MSTORE SWAP14 SWAP15 SWAP14 ADD SWAP13 SWAP12 ADD SWAP10 SWAP9 SWAP8 ADD SWAP6 SWAP5 SWAP4 SWAP3 SWAP2 SWAP1 PUSH2 0x1ADC JUMP JUMPDEST SWAP2 SWAP1 DUP3 PUSH1 0x80 SWAP2 SUB SLT PUSH2 0x410 JUMPI PUSH1 0x40 MLOAD PUSH2 0x1BA2 DUP2 PUSH2 0x1229 JUMP JUMPDEST PUSH1 0x60 DUP1 DUP3 SWAP5 DUP1 CALLDATALOAD DUP5 MSTORE PUSH1 0x20 DUP2 ADD CALLDATALOAD PUSH1 0x20 DUP6 ADD MSTORE PUSH1 0x40 DUP2 ADD CALLDATALOAD PUSH2 0x1BC3 DUP2 PUSH2 0xF56 JUMP JUMPDEST PUSH1 0x40 DUP6 ADD MSTORE ADD CALLDATALOAD SWAP2 PUSH2 0x17C8 DUP4 PUSH2 0xF56 JUMP JUMPDEST SWAP2 SWAP1 PUSH1 0x80 DUP4 DUP3 SUB SLT PUSH2 0x410 JUMPI PUSH1 0x40 MLOAD SWAP1 PUSH2 0x1BED DUP3 PUSH2 0x1229 JUMP JUMPDEST DUP2 SWAP4 DUP1 CALLDATALOAD DUP4 MSTORE PUSH1 0x20 DUP2 ADD CALLDATALOAD PUSH2 0x1C01 DUP2 PUSH2 0x13D2 JUMP JUMPDEST PUSH1 0x20 DUP5 ADD MSTORE PUSH1 0x40 DUP2 ADD CALLDATALOAD PUSH2 0x1C14 DUP2 PUSH2 0x14D3 JUMP JUMPDEST PUSH1 0x40 DUP5 ADD MSTORE PUSH1 0x60 DUP2 ADD CALLDATALOAD SWAP2 PUSH8 0xFFFFFFFFFFFFFFFF DUP4 GT PUSH2 0x410 JUMPI PUSH1 0x60 SWAP3 PUSH2 0x1C3B SWAP3 ADD PUSH2 0x152D JUMP JUMPDEST SWAP2 ADD MSTORE JUMP JUMPDEST SWAP2 SWAP1 DUP3 PUSH1 0x80 SWAP2 SUB SLT PUSH2 0x410 JUMPI PUSH1 0x40 MLOAD PUSH2 0x1C58 DUP2 PUSH2 0x1229 JUMP JUMPDEST PUSH1 0x60 DUP1 DUP3 SWAP5 DUP1 CALLDATALOAD DUP5 MSTORE PUSH1 0x20 DUP2 ADD CALLDATALOAD PUSH2 0x1C6F DUP2 PUSH2 0xF56 JUMP JUMPDEST PUSH1 0x20 DUP6 ADD MSTORE PUSH1 0x40 DUP2 ADD CALLDATALOAD PUSH2 0x1C82 DUP2 PUSH2 0x13D2 JUMP JUMPDEST PUSH1 0x40 DUP6 ADD MSTORE ADD CALLDATALOAD SWAP2 PUSH2 0x17C8 DUP4 PUSH2 0x13D2 JUMP JUMPDEST DUP2 PUSH1 0x1F DUP3 ADD SLT ISZERO PUSH2 0x410 JUMPI DUP1 CALLDATALOAD SWAP1 PUSH2 0x1CAA DUP3 PUSH2 0x12E5 JUMP JUMPDEST SWAP3 PUSH1 0x40 SWAP1 PUSH2 0x1CBA DUP3 MLOAD SWAP6 DUP7 PUSH2 0x1261 JUMP JUMPDEST DUP4 DUP6 MSTORE PUSH1 0x20 SWAP2 DUP3 DUP7 ADD SWAP2 DUP4 PUSH2 0x140 DUP1 SWAP8 MUL DUP7 ADD ADD SWAP5 DUP2 DUP7 GT PUSH2 0x410 JUMPI DUP5 ADD SWAP3 JUMPDEST DUP6 DUP5 LT PUSH2 0x1CEB JUMPI POP POP POP POP POP POP POP SWAP1 JUMP JUMPDEST DUP7 DUP5 DUP4 SUB SLT PUSH2 0x410 JUMPI DUP5 DUP8 SWAP2 PUSH2 0x1CFF PUSH2 0x12C4 JUMP JUMPDEST PUSH2 0x1D08 DUP8 PUSH2 0x1506 JUMP JUMPDEST DUP2 MSTORE PUSH2 0x1D15 DUP4 DUP9 ADD PUSH2 0xF67 JUMP JUMPDEST DUP4 DUP3 ADD MSTORE PUSH2 0x1D24 DUP7 DUP9 ADD PUSH2 0x1506 JUMP JUMPDEST DUP7 DUP3 ADD MSTORE PUSH1 0x60 PUSH2 0x1D35 DUP2 DUP10 ADD PUSH2 0xF67 JUMP JUMPDEST SWAP1 DUP3 ADD MSTORE PUSH1 0x80 PUSH2 0x1D46 DUP2 DUP10 ADD PUSH2 0xF67 JUMP JUMPDEST SWAP1 DUP3 ADD MSTORE PUSH1 0xA0 DUP1 DUP9 ADD CALLDATALOAD SWAP1 DUP3 ADD MSTORE PUSH1 0xC0 DUP1 DUP9 ADD CALLDATALOAD SWAP1 DUP3 ADD MSTORE PUSH1 0xE0 PUSH2 0x1D6B DUP2 DUP10 ADD PUSH2 0x189F JUMP JUMPDEST SWAP1 DUP3 ADD MSTORE PUSH2 0x100 DUP1 DUP9 ADD CALLDATALOAD SWAP1 DUP3 ADD MSTORE PUSH2 0x120 DUP1 DUP9 ADD CALLDATALOAD SWAP1 DUP3 ADD MSTORE DUP2 MSTORE ADD SWAP4 ADD SWAP3 PUSH2 0x1CDA JUMP JUMPDEST SWAP1 PUSH2 0x1C0 DUP3 DUP3 SUB SLT PUSH2 0x410 JUMPI PUSH2 0x1DA5 DUP3 PUSH2 0xF67 JUMP JUMPDEST SWAP3 PUSH2 0x1DB2 PUSH1 0x20 DUP5 ADD PUSH2 0xF67 JUMP JUMPDEST SWAP3 PUSH2 0x1DBF PUSH1 0x40 DUP3 ADD PUSH2 0x16C1 JUMP JUMPDEST SWAP3 PUSH8 0xFFFFFFFFFFFFFFFF PUSH1 0x60 DUP4 ADD CALLDATALOAD DUP2 DUP2 GT PUSH2 0x410 JUMPI DUP3 PUSH2 0x1DE1 SWAP2 DUP6 ADD PUSH2 0x152D JUMP JUMPDEST SWAP4 PUSH2 0x1DEF DUP4 PUSH1 0x80 DUP7 ADD PUSH2 0x1B8A JUMP JUMPDEST SWAP4 PUSH2 0x100 DUP2 ADD CALLDATALOAD DUP4 DUP2 GT PUSH2 0x410 JUMPI DUP5 PUSH2 0x1E09 SWAP2 DUP4 ADD PUSH2 0x1BD4 JUMP JUMPDEST SWAP4 PUSH2 0x1E18 DUP2 PUSH2 0x120 DUP5 ADD PUSH2 0x1C40 JUMP JUMPDEST SWAP4 PUSH2 0x1A0 DUP4 ADD CALLDATALOAD SWAP1 DUP2 GT PUSH2 0x410 JUMPI PUSH2 0x13E6 SWAP3 ADD PUSH2 0x1C93 JUMP JUMPDEST SWAP1 PUSH1 0x80 PUSH1 0x60 PUSH2 0x13E6 SWAP4 DUP1 MLOAD DUP5 MSTORE PUSH1 0x20 DUP2 ADD MLOAD ISZERO ISZERO PUSH1 0x20 DUP6 ADD MSTORE PUSH2 0xFFFF PUSH1 0x40 DUP3 ADD MLOAD AND PUSH1 0x40 DUP6 ADD MSTORE ADD MLOAD SWAP2 DUP2 PUSH1 0x60 DUP3 ADD MSTORE ADD SWAP1 PUSH2 0x11F JUMP JUMPDEST SWAP1 DUP2 MLOAD DUP1 DUP3 MSTORE PUSH1 0x20 DUP1 DUP1 SWAP4 ADD SWAP4 ADD SWAP2 PUSH1 0x0 JUMPDEST DUP3 DUP2 LT PUSH2 0x1E87 JUMPI POP POP POP POP SWAP1 JUMP JUMPDEST SWAP1 SWAP2 SWAP3 SWAP4 DUP3 PUSH2 0x140 PUSH1 0x1 SWAP3 DUP8 MLOAD PUSH2 0x1EA0 DUP3 DUP3 MLOAD ISZERO ISZERO SWAP1 MSTORE JUMP JUMPDEST DUP1 DUP5 ADD MLOAD PUSH1 0x1 PUSH1 0x1 PUSH1 0xA0 SHL SUB AND DUP3 DUP6 ADD MSTORE PUSH1 0x40 DUP2 DUP2 ADD MLOAD ISZERO ISZERO SWAP1 DUP4 ADD MSTORE PUSH1 0x60 DUP2 DUP2 ADD MLOAD PUSH1 0x1 PUSH1 0x1 PUSH1 0xA0 SHL SUB AND SWAP1 DUP4 ADD MSTORE PUSH1 0x80 DUP2 DUP2 ADD MLOAD PUSH1 0x1 PUSH1 0x1 PUSH1 0xA0 SHL SUB AND SWAP1 DUP4 ADD MSTORE PUSH1 0xA0 DUP2 DUP2 ADD MLOAD SWAP1 DUP4 ADD MSTORE PUSH1 0xC0 DUP1 DUP3 ADD MLOAD SWAP1 DUP4 ADD MSTORE PUSH1 0xE0 DUP1 DUP3 ADD MLOAD PUSH1 0xFF AND SWAP1 DUP4 ADD MSTORE PUSH2 0x100 DUP2 DUP2 ADD MLOAD SWAP1 DUP4 ADD MSTORE PUSH2 0x120 SWAP1 DUP2 ADD MLOAD SWAP1 DUP3 ADD MSTORE ADD SWAP6 ADD SWAP4 SWAP3 SWAP2 ADD PUSH2 0x1E79 JUMP JUMPDEST SWAP5 SWAP2 PUSH1 0x60 PUSH2 0x1F69 PUSH2 0x1FD6 SWAP7 PUSH2 0xFFFF PUSH2 0x1F9D SWAP8 PUSH2 0x13E6 SWAP14 SWAP12 SWAP7 PUSH1 0x1 PUSH1 0x1 PUSH1 0xA0 SHL SUB SWAP7 DUP8 DUP1 SWAP3 AND DUP14 MSTORE AND PUSH1 0x20 DUP13 ADD MSTORE AND PUSH1 0x40 DUP11 ADD MSTORE PUSH2 0x1C0 DUP1 DUP5 DUP12 ADD MSTORE DUP10 ADD SWAP1 PUSH2 0x11F JUMP JUMPDEST SWAP4 DUP1 MLOAD PUSH1 0x80 DUP10 ADD MSTORE PUSH1 0x20 DUP2 ADD MLOAD PUSH1 0xA0 DUP10 ADD MSTORE DUP3 PUSH1 0x40 DUP3 ADD MLOAD AND PUSH1 0xC0 DUP10 ADD MSTORE ADD MLOAD AND PUSH1 0xE0 DUP7 ADD MSTORE DUP5 DUP3 SUB PUSH2 0x100 DUP7 ADD MSTORE PUSH2 0x1E30 JUMP JUMPDEST DUP5 MLOAD PUSH2 0x120 DUP5 ADD MSTORE PUSH1 0x20 DUP6 ADD MLOAD PUSH1 0x1 PUSH1 0x1 PUSH1 0xA0 SHL SUB AND PUSH2 0x140 DUP5 ADD MSTORE PUSH1 0x40 DUP6 ADD MLOAD ISZERO ISZERO PUSH2 0x160 DUP5 ADD MSTORE PUSH1 0x60 SWAP1 SWAP5 ADD MLOAD ISZERO ISZERO PUSH2 0x180 DUP4 ADD MSTORE JUMP JUMPDEST PUSH2 0x1A0 DUP2 DUP5 SUB SWAP2 ADD MSTORE PUSH2 0x1E67 JUMP JUMPDEST SWAP1 DUP2 PUSH1 0x80 SWAP2 SUB SLT PUSH2 0x410 JUMPI PUSH1 0x60 PUSH1 0x40 MLOAD SWAP2 PUSH2 0x1FFE DUP4 PUSH2 0x1229 JUMP JUMPDEST DUP1 CALLDATALOAD PUSH2 0x2009 DUP2 PUSH2 0xF56 JUMP JUMPDEST DUP4 MSTORE PUSH1 0x20 DUP2 ADD CALLDATALOAD PUSH2 0x2019 DUP2 PUSH2 0xF56 JUMP JUMPDEST PUSH1 0x20 DUP5 ADD MSTORE PUSH1 0x40 DUP2 ADD CALLDATALOAD PUSH2 0x202C DUP2 PUSH2 0x13D2 JUMP JUMPDEST PUSH1 0x40 DUP5 ADD MSTORE ADD CALLDATALOAD PUSH1 0x60 DUP3 ADD MSTORE SWAP1 JUMP JUMPDEST SWAP1 DUP2 PUSH1 0x20 SWAP2 SUB SLT PUSH2 0x410 JUMPI MLOAD SWAP1 JUMP JUMPDEST DUP1 MLOAD DUP3 LT ISZERO PUSH2 0x13CD JUMPI PUSH1 0x20 SWAP2 PUSH1 0x5 SHL ADD ADD SWAP1 JUMP JUMPDEST SWAP1 SWAP2 PUSH1 0xC0 DUP3 DUP5 SUB SLT PUSH2 0x410 JUMPI DUP2 CALLDATALOAD PUSH2 0x2075 DUP2 PUSH2 0xF56 JUMP JUMPDEST SWAP3 PUSH1 0x20 DUP4 ADD CALLDATALOAD PUSH2 0x2084 DUP2 PUSH2 0x14D3 JUMP JUMPDEST SWAP3 PUSH1 0x40 DUP2 ADD CALLDATALOAD SWAP3 PUSH1 0x60 DUP3 ADD CALLDATALOAD SWAP3 PUSH1 0x80 DUP4 ADD CALLDATALOAD PUSH8 0xFFFFFFFFFFFFFFFF DUP2 GT PUSH2 0x410 JUMPI PUSH1 0xA0 SWAP2 PUSH2 0x20B3 SWAP2 DUP6 ADD PUSH2 0x152D JUMP JUMPDEST SWAP3 ADD CALLDATALOAD PUSH2 0x13E6 DUP2 PUSH2 0xF56 JUMP JUMPDEST SWAP5 SWAP1 SWAP3 SWAP4 PUSH1 0xA0 SWAP5 PUSH2 0xFFFF PUSH2 0x20FE SWAP5 SWAP10 SWAP9 SWAP10 PUSH1 0x1 PUSH1 0x1 PUSH1 0xA0 SHL SUB DUP1 SWAP8 AND DUP10 MSTORE AND PUSH1 0x20 DUP9 ADD MSTORE PUSH1 0x40 DUP8 ADD MSTORE PUSH1 0x60 DUP7 ADD MSTORE PUSH1 0xC0 PUSH1 0x80 DUP7 ADD MSTORE PUSH1 0xC0 DUP6 ADD SWAP1 PUSH2 0x11F JUMP JUMPDEST SWAP5 AND SWAP2 ADD MSTORE JUMP JUMPDEST SWAP1 DUP2 PUSH1 0x60 SWAP2 SUB SLT PUSH2 0x410 JUMPI PUSH1 0x40 DUP1 MLOAD SWAP2 PUSH2 0x211E DUP4 PUSH2 0x11F1 JUMP JUMPDEST DUP1 CALLDATALOAD PUSH2 0x2129 DUP2 PUSH2 0xF56 JUMP JUMPDEST DUP4 MSTORE PUSH1 0x20 DUP2 ADD CALLDATALOAD PUSH2 0x2139 DUP2 PUSH2 0xF56 JUMP JUMPDEST PUSH1 0x20 DUP5 ADD MSTORE ADD CALLDATALOAD PUSH1 0x40 DUP3 ADD MSTORE SWAP1 JUMP JUMPDEST SWAP2 SWAP1 DUP3 PUSH1 0x40 SWAP2 SUB SLT PUSH2 0x410 JUMPI PUSH1 0x20 DUP3 MLOAD SWAP3 ADD MLOAD SWAP1 JUMP JUMPDEST SWAP1 DUP2 PUSH1 0xA0 SWAP2 SUB SLT PUSH2 0x410 JUMPI PUSH1 0x80 PUSH1 0x40 MLOAD SWAP2 PUSH2 0x2178 DUP4 PUSH2 0x11D5 JUMP JUMPDEST DUP1 CALLDATALOAD DUP4 MSTORE PUSH1 0x20 DUP2 ADD CALLDATALOAD PUSH2 0x218A DUP2 PUSH2 0xF56 JUMP JUMPDEST PUSH1 0x20 DUP5 ADD MSTORE PUSH1 0x40 DUP2 ADD CALLDATALOAD PUSH2 0x219D DUP2 PUSH2 0xF56 JUMP JUMPDEST PUSH1 0x40 DUP5 ADD MSTORE PUSH1 0x60 DUP2 ADD CALLDATALOAD PUSH1 0x60 DUP5 ADD MSTORE ADD CALLDATALOAD PUSH1 0x80 DUP3 ADD MSTORE SWAP1 JUMP JUMPDEST SWAP2 SWAP1 SWAP2 PUSH1 0xA0 DUP2 DUP5 SUB SLT PUSH2 0x410 JUMPI DUP1 CALLDATALOAD PUSH2 0x21CE DUP2 PUSH2 0xF56 JUMP JUMPDEST SWAP3 PUSH1 0x20 DUP3 ADD CALLDATALOAD PUSH2 0x21DD DUP2 PUSH2 0x14D3 JUMP JUMPDEST SWAP3 PUSH1 0x40 DUP4 ADD CALLDATALOAD SWAP3 PUSH1 0x60 DUP2 ADD CALLDATALOAD SWAP3 PUSH1 0x80 DUP3 ADD CALLDATALOAD PUSH8 0xFFFFFFFFFFFFFFFF SWAP3 DUP4 DUP3 GT PUSH2 0x410 JUMPI ADD SWAP1 PUSH1 0x60 DUP3 DUP3 SUB SLT PUSH2 0x410 JUMPI PUSH1 0x40 MLOAD SWAP3 PUSH2 0x2219 DUP5 PUSH2 0x11F1 JUMP JUMPDEST DUP3 CALLDATALOAD PUSH2 0x2224 DUP2 PUSH2 0xF56 JUMP JUMPDEST DUP5 MSTORE PUSH1 0x20 DUP4 ADD CALLDATALOAD PUSH2 0x2234 DUP2 PUSH2 0xF56 JUMP JUMPDEST PUSH1 0x20 DUP6 ADD MSTORE PUSH1 0x40 DUP4 ADD CALLDATALOAD SWAP1 DUP2 GT PUSH2 0x410 JUMPI PUSH2 0x224F SWAP3 ADD PUSH2 0x152D JUMP JUMPDEST PUSH1 0x40 DUP3 ADD MSTORE SWAP1 JUMP JUMPDEST SWAP4 SWAP1 PUSH2 0x13E6 SWAP6 SWAP2 PUSH2 0x100 SWAP5 PUSH2 0xFFFF PUSH1 0x40 SWAP6 PUSH1 0x1 PUSH1 0x1 PUSH1 0xA0 SHL SUB DUP1 SWAP6 AND DUP10 MSTORE AND PUSH1 0x20 DUP9 ADD MSTORE DUP5 DUP8 ADD MSTORE PUSH1 0x60 DUP7 ADD MSTORE PUSH1 0xA0 PUSH1 0x80 DUP7 ADD MSTORE DUP1 DUP3 MLOAD AND PUSH1 0xA0 DUP7 ADD MSTORE PUSH1 0x20 DUP3 ADD MLOAD AND PUSH1 0xC0 DUP6 ADD MSTORE ADD MLOAD SWAP2 PUSH1 0x60 PUSH1 0xE0 DUP3 ADD MSTORE ADD SWAP1 PUSH2 0x11F JUMP JUMPDEST ISZERO PUSH2 0x22B7 JUMPI JUMP JUMPDEST PUSH1 0x40 MLOAD PUSH3 0x461BCD PUSH1 0xE5 SHL DUP2 MSTORE PUSH1 0x20 PUSH1 0x4 DUP3 ADD MSTORE PUSH1 0x18 PUSH1 0x24 DUP3 ADD MSTORE PUSH32 0x4D61676E657461723A2076616C7565206D69736D617463680000000000000000 PUSH1 0x44 DUP3 ADD MSTORE PUSH1 0x64 SWAP1 REVERT JUMPDEST SWAP1 DUP1 SWAP3 SWAP2 DUP3 CALLDATACOPY ADD PUSH1 0x0 DUP2 MSTORE SWAP1 JUMP JUMPDEST RETURNDATASIZE ISZERO PUSH2 0x2335 JUMPI RETURNDATASIZE SWAP1 PUSH2 0x231B DUP3 PUSH2 0x1511 JUMP JUMPDEST SWAP2 PUSH2 0x2329 PUSH1 0x40 MLOAD SWAP4 DUP5 PUSH2 0x1261 JUMP JUMPDEST DUP3 MSTORE RETURNDATASIZE PUSH1 0x0 PUSH1 0x20 DUP5 ADD RETURNDATACOPY JUMP JUMPDEST PUSH1 0x60 SWAP1 JUMP JUMPDEST DUP3 PUSH1 0x4 GT PUSH2 0x410 JUMPI PUSH1 0xE0 PUSH1 0x3 NOT DUP4 DUP6 DUP2 ADD SUB ADD SLT PUSH2 0x410 JUMPI PUSH1 0x0 SWAP3 DUP4 DUP1 SWAP4 PUSH2 0x23D3 PUSH1 0x1 PUSH1 0x1 PUSH1 0xA0 SHL SUB PUSH1 0x40 MLOAD PUSH2 0x236F DUP2 PUSH2 0x1245 JUMP JUMPDEST PUSH1 0x4 DUP5 ADD CALLDATALOAD SWAP1 PUSH2 0x237E DUP3 PUSH2 0xF56 JUMP JUMPDEST DUP2 DUP2 MSTORE PUSH1 0x24 DUP6 ADD CALLDATALOAD PUSH2 0x238F DUP2 PUSH2 0xF56 JUMP JUMPDEST PUSH1 0x20 DUP3 ADD MSTORE PUSH1 0x44 DUP6 ADD CALLDATALOAD PUSH1 0x40 DUP3 ADD MSTORE PUSH1 0x64 DUP6 ADD CALLDATALOAD PUSH1 0x60 DUP3 ADD MSTORE PUSH2 0x23B4 PUSH1 0x84 DUP7 ADD PUSH2 0x189F JUMP JUMPDEST PUSH1 0x80 DUP3 ADD MSTORE PUSH1 0xA4 DUP6 ADD CALLDATALOAD PUSH1 0xA0 DUP3 ADD MSTORE PUSH1 0xC0 PUSH1 0xC4 DUP7 ADD CALLDATALOAD SWAP2 ADD MSTORE AND PUSH2 0x2497 JUMP JUMPDEST PUSH2 0x23E2 PUSH1 0x40 MLOAD DUP1 SWAP5 DUP2 SWAP4 PUSH2 0x22FC JUMP JUMPDEST SUB SWAP3 GAS CALL SWAP1 PUSH2 0x23EF PUSH2 0x230A JUMP JUMPDEST SWAP2 ISZERO SWAP1 DUP2 PUSH2 0x2405 JUMPI JUMPDEST POP PUSH2 0x2400 JUMPI POP JUMP JUMPDEST PUSH2 0x24ED JUMP JUMPDEST SWAP1 POP ISZERO CODESIZE PUSH2 0x23F8 JUMP JUMPDEST PUSH1 0xC0 SWAP3 PUSH2 0x241C DUP2 DUP1 DUP6 PUSH2 0x14E9 JUMP JUMPDEST SWAP1 DUP1 SWAP6 SWAP2 DUP2 ADD SUB SLT PUSH2 0x410 JUMPI PUSH1 0x0 DUP1 SWAP5 SWAP4 PUSH2 0x23D3 PUSH1 0x1 PUSH1 0x1 PUSH1 0xA0 SHL SUB DUP4 SWAP7 PUSH1 0x40 MLOAD PUSH2 0x2446 DUP2 PUSH2 0x120D JUMP JUMPDEST PUSH1 0xA0 DUP1 DUP4 CALLDATALOAD SWAP4 PUSH2 0x2455 DUP6 PUSH2 0xF56 JUMP JUMPDEST DUP5 DUP5 MSTORE PUSH1 0x20 DUP2 ADD CALLDATALOAD PUSH2 0x2466 DUP2 PUSH2 0xF56 JUMP JUMPDEST PUSH1 0x20 DUP6 ADD MSTORE PUSH1 0x40 DUP2 ADD CALLDATALOAD PUSH1 0x40 DUP6 ADD MSTORE PUSH2 0x2481 PUSH1 0x60 DUP3 ADD PUSH2 0x189F JUMP JUMPDEST PUSH1 0x60 DUP6 ADD MSTORE PUSH1 0x80 DUP2 ADD CALLDATALOAD PUSH1 0x80 DUP6 ADD MSTORE ADD CALLDATALOAD SWAP2 ADD MSTORE AND JUMPDEST PUSH1 0x1 PUSH1 0x1 PUSH1 0xA0 SHL SUB AND CALLER SUB PUSH2 0x24A8 JUMPI JUMP JUMPDEST PUSH1 0x40 MLOAD PUSH3 0x461BCD PUSH1 0xE5 SHL DUP2 MSTORE PUSH1 0x20 PUSH1 0x4 DUP3 ADD MSTORE PUSH1 0x16 PUSH1 0x24 DUP3 ADD MSTORE PUSH32 0x4D61676E657461723A20756E617574686F72697A656400000000000000000000 PUSH1 0x44 DUP3 ADD MSTORE PUSH1 0x64 SWAP1 REVERT JUMPDEST PUSH1 0x44 DUP2 MLOAD LT PUSH2 0x2586 JUMPI PUSH1 0x4 DUP2 ADD MLOAD DUP2 ADD SWAP1 PUSH1 0x20 DUP2 PUSH1 0x24 DUP5 ADD SWAP4 SUB SLT PUSH2 0x410 JUMPI PUSH1 0x24 DUP2 ADD MLOAD SWAP1 PUSH8 0xFFFFFFFFFFFFFFFF DUP3 GT PUSH2 0x410 JUMPI ADD SWAP1 DUP1 PUSH1 0x43 DUP4 ADD SLT ISZERO PUSH2 0x410 JUMPI PUSH1 0x24 DUP3 ADD MLOAD SWAP2 PUSH2 0x253D DUP4 PUSH2 0x1511 JUMP JUMPDEST SWAP2 PUSH2 0x254B PUSH1 0x40 MLOAD SWAP4 DUP5 PUSH2 0x1261 JUMP JUMPDEST DUP4 DUP4 MSTORE PUSH1 0x44 DUP5 DUP4 ADD ADD GT PUSH2 0x410 JUMPI PUSH2 0xE7B SWAP3 PUSH2 0x256E SWAP2 PUSH1 0x44 PUSH1 0x20 DUP6 ADD SWAP2 ADD PUSH2 0xFC JUMP JUMPDEST PUSH1 0x40 MLOAD PUSH3 0x461BCD PUSH1 0xE5 SHL DUP2 MSTORE SWAP2 DUP3 SWAP2 PUSH1 0x4 DUP4 ADD PUSH2 0x1496 JUMP JUMPDEST PUSH1 0x40 MLOAD PUSH3 0x461BCD PUSH1 0xE5 SHL DUP2 MSTORE PUSH1 0x20 PUSH1 0x4 DUP3 ADD MSTORE PUSH1 0xE PUSH1 0x24 DUP3 ADD MSTORE PUSH32 0x526561736F6E20756E6B6E6F776E000000000000000000000000000000000000 PUSH1 0x44 DUP3 ADD MSTORE PUSH1 0x64 SWAP1 REVERT INVALID LOG2 PUSH5 0x6970667358 0x22 SLT KECCAK256 SHR NOT ADDRESS DUP15 PUSH30 0x168D9AA4EE061209252B446A5CC1AB16F821EAA26A40AD6C644D5864736F PUSH13 0x63430008120033000000000000 "},"gasEstimates":{"creation":{"codeDepositCost":"1945800","executionCost":"infinite","totalCost":"infinite"},"external":{"burst((uint16,address,uint256,bool,bytes)[])":"infinite","getBasefee()":"246","getBlockHash(uint256)":"446","getBlockNumber()":"268","getChainId()":"224","getCurrentBlockCoinbase()":"400","getCurrentBlockDifficulty()":"334","getCurrentBlockGasLimit()":"356","getCurrentBlockTimestamp()":"180","getEthBalance(address)":"2961","getLastBlockHash()":"231","owner()":"2500","renounceOwnership()":"28206","transferOwnership(address)":"28451"},"internal":{"_checkSender(address)":"infinite","_getRevertMsg(bytes memory)":"infinite","_permit(address,bytes calldata,bool,bool)":"infinite"}},"methodIdentifiers":{"burst((uint16,address,uint256,bool,bytes)[])":"013546e1","getBasefee()":"3e64a696","getBlockHash(uint256)":"ee82ac5e","getBlockNumber()":"42cbb15c","getChainId()":"3408e470","getCurrentBlockCoinbase()":"a8b0574e","getCurrentBlockDifficulty()":"72425d9d","getCurrentBlockGasLimit()":"86d516e8","getCurrentBlockTimestamp()":"0f28c97d","getEthBalance(address)":"4d2301cc","getLastBlockHash()":"27e86d6e","owner()":"8da5cb5b","renounceOwnership()":"715018a6","transferOwnership(address)":"f2fde38b"}},"storageLayout":{"storage":[{"astId":7,"contract":"contracts/Magnetar/Magnetar.sol:Magnetar","label":"_owner","offset":0,"slot":"0","type":"t_address"}],"types":{"t_address":{"encoding":"inplace","label":"address","numberOfBytes":"20"}}},"userdoc":{"kind":"user","methods":{"burst((uint16,address,uint256,bool,bytes)[])":{"notice":"Batch multiple calls together"},"getBasefee()":{"notice":"Gets the base fee of the given blockCan revert if the BASEFEE opcode is not implemented by the given chain"},"getBlockHash(uint256)":{"notice":"Returns the block hash for the given block number"},"getBlockNumber()":{"notice":"Returns the block number"},"getChainId()":{"notice":"Returns the chain id"},"getCurrentBlockCoinbase()":{"notice":"Returns the block coinbase"},"getCurrentBlockDifficulty()":{"notice":"Returns the block difficulty"},"getCurrentBlockGasLimit()":{"notice":"Returns the block gas limit"},"getCurrentBlockTimestamp()":{"notice":"Returns the block timestamp"},"getEthBalance(address)":{"notice":"Returns the (ETH) balance of a given address"},"getLastBlockHash()":{"notice":"Returns the block hash of the last block"}},"version":1}}}}