{
  "_format": "hh-sol-artifact-1",
  "contractName": "CompoundStrategy",
  "sourceName": "contracts/deprecated/compound/CompoundStrategy.sol",
  "abi": [
    {
      "inputs": [
        {
          "internalType": "contract IYieldBox",
          "name": "_yieldBox",
          "type": "address"
        },
        {
          "internalType": "address",
          "name": "_token",
          "type": "address"
        },
        {
          "internalType": "address",
          "name": "_cToken",
          "type": "address"
        },
        {
          "internalType": "address",
          "name": "_multiSwapper",
          "type": "address"
        }
      ],
      "stateMutability": "nonpayable",
      "type": "constructor"
    },
    {
      "anonymous": false,
      "inputs": [
        {
          "indexed": true,
          "internalType": "uint256",
          "name": "amount",
          "type": "uint256"
        }
      ],
      "name": "AmountDeposited",
      "type": "event"
    },
    {
      "anonymous": false,
      "inputs": [
        {
          "indexed": true,
          "internalType": "uint256",
          "name": "amount",
          "type": "uint256"
        }
      ],
      "name": "AmountQueued",
      "type": "event"
    },
    {
      "anonymous": false,
      "inputs": [
        {
          "indexed": true,
          "internalType": "address",
          "name": "to",
          "type": "address"
        },
        {
          "indexed": true,
          "internalType": "uint256",
          "name": "amount",
          "type": "uint256"
        }
      ],
      "name": "AmountWithdrawn",
      "type": "event"
    },
    {
      "anonymous": false,
      "inputs": [
        {
          "indexed": true,
          "internalType": "address",
          "name": "_old",
          "type": "address"
        },
        {
          "indexed": true,
          "internalType": "address",
          "name": "_new",
          "type": "address"
        }
      ],
      "name": "ComptrollerUpdated",
      "type": "event"
    },
    {
      "anonymous": false,
      "inputs": [
        {
          "indexed": true,
          "internalType": "uint256",
          "name": "_old",
          "type": "uint256"
        },
        {
          "indexed": true,
          "internalType": "uint256",
          "name": "_new",
          "type": "uint256"
        }
      ],
      "name": "DepositThreshold",
      "type": "event"
    },
    {
      "anonymous": false,
      "inputs": [
        {
          "indexed": true,
          "internalType": "address",
          "name": "_old",
          "type": "address"
        },
        {
          "indexed": true,
          "internalType": "address",
          "name": "_new",
          "type": "address"
        }
      ],
      "name": "MultiSwapper",
      "type": "event"
    },
    {
      "anonymous": false,
      "inputs": [
        {
          "indexed": true,
          "internalType": "address",
          "name": "previousOwner",
          "type": "address"
        },
        {
          "indexed": true,
          "internalType": "address",
          "name": "newOwner",
          "type": "address"
        }
      ],
      "name": "OwnershipTransferred",
      "type": "event"
    },
    {
      "inputs": [],
      "name": "cToken",
      "outputs": [
        {
          "internalType": "contract ICToken",
          "name": "",
          "type": "address"
        }
      ],
      "stateMutability": "view",
      "type": "function"
    },
    {
      "inputs": [],
      "name": "cheapWithdrawable",
      "outputs": [
        {
          "internalType": "uint256",
          "name": "amount",
          "type": "uint256"
        }
      ],
      "stateMutability": "view",
      "type": "function"
    },
    {
      "inputs": [],
      "name": "checkUpdateComptroller",
      "outputs": [],
      "stateMutability": "nonpayable",
      "type": "function"
    },
    {
      "inputs": [],
      "name": "claimOwnership",
      "outputs": [],
      "stateMutability": "nonpayable",
      "type": "function"
    },
    {
      "inputs": [
        {
          "internalType": "bytes",
          "name": "dexData",
          "type": "bytes"
        }
      ],
      "name": "compound",
      "outputs": [],
      "stateMutability": "nonpayable",
      "type": "function"
    },
    {
      "inputs": [],
      "name": "compoundAmount",
      "outputs": [
        {
          "internalType": "uint256",
          "name": "result",
          "type": "uint256"
        }
      ],
      "stateMutability": "view",
      "type": "function"
    },
    {
      "inputs": [],
      "name": "comptroller",
      "outputs": [
        {
          "internalType": "contract IComptroller",
          "name": "",
          "type": "address"
        }
      ],
      "stateMutability": "view",
      "type": "function"
    },
    {
      "inputs": [],
      "name": "contractAddress",
      "outputs": [
        {
          "internalType": "address",
          "name": "",
          "type": "address"
        }
      ],
      "stateMutability": "view",
      "type": "function"
    },
    {
      "inputs": [],
      "name": "currentBalance",
      "outputs": [
        {
          "internalType": "uint256",
          "name": "amount",
          "type": "uint256"
        }
      ],
      "stateMutability": "view",
      "type": "function"
    },
    {
      "inputs": [],
      "name": "defaultSwapData",
      "outputs": [
        {
          "internalType": "bytes",
          "name": "",
          "type": "bytes"
        }
      ],
      "stateMutability": "view",
      "type": "function"
    },
    {
      "inputs": [],
      "name": "depositThreshold",
      "outputs": [
        {
          "internalType": "uint256",
          "name": "",
          "type": "uint256"
        }
      ],
      "stateMutability": "view",
      "type": "function"
    },
    {
      "inputs": [
        {
          "internalType": "uint256",
          "name": "amount",
          "type": "uint256"
        }
      ],
      "name": "deposited",
      "outputs": [],
      "stateMutability": "nonpayable",
      "type": "function"
    },
    {
      "inputs": [],
      "name": "description",
      "outputs": [
        {
          "internalType": "string",
          "name": "description_",
          "type": "string"
        }
      ],
      "stateMutability": "pure",
      "type": "function"
    },
    {
      "inputs": [],
      "name": "emergencyWithdraw",
      "outputs": [
        {
          "internalType": "uint256",
          "name": "result",
          "type": "uint256"
        }
      ],
      "stateMutability": "nonpayable",
      "type": "function"
    },
    {
      "inputs": [],
      "name": "name",
      "outputs": [
        {
          "internalType": "string",
          "name": "name_",
          "type": "string"
        }
      ],
      "stateMutability": "pure",
      "type": "function"
    },
    {
      "inputs": [],
      "name": "owner",
      "outputs": [
        {
          "internalType": "address",
          "name": "",
          "type": "address"
        }
      ],
      "stateMutability": "view",
      "type": "function"
    },
    {
      "inputs": [],
      "name": "paused",
      "outputs": [
        {
          "internalType": "bool",
          "name": "",
          "type": "bool"
        }
      ],
      "stateMutability": "view",
      "type": "function"
    },
    {
      "inputs": [],
      "name": "pendingOwner",
      "outputs": [
        {
          "internalType": "address",
          "name": "",
          "type": "address"
        }
      ],
      "stateMutability": "view",
      "type": "function"
    },
    {
      "inputs": [
        {
          "internalType": "uint256",
          "name": "amount",
          "type": "uint256"
        },
        {
          "internalType": "address",
          "name": "to",
          "type": "address"
        }
      ],
      "name": "rescueEth",
      "outputs": [],
      "stateMutability": "nonpayable",
      "type": "function"
    },
    {
      "inputs": [
        {
          "internalType": "bytes",
          "name": "_data",
          "type": "bytes"
        }
      ],
      "name": "setDefaultSwapData",
      "outputs": [],
      "stateMutability": "nonpayable",
      "type": "function"
    },
    {
      "inputs": [
        {
          "internalType": "uint256",
          "name": "amount",
          "type": "uint256"
        }
      ],
      "name": "setDepositThreshold",
      "outputs": [],
      "stateMutability": "nonpayable",
      "type": "function"
    },
    {
      "inputs": [
        {
          "internalType": "address",
          "name": "_swapper",
          "type": "address"
        }
      ],
      "name": "setMultiSwapper",
      "outputs": [],
      "stateMutability": "nonpayable",
      "type": "function"
    },
    {
      "inputs": [
        {
          "internalType": "uint256",
          "name": "_val",
          "type": "uint256"
        }
      ],
      "name": "setSlippage",
      "outputs": [],
      "stateMutability": "nonpayable",
      "type": "function"
    },
    {
      "inputs": [],
      "name": "swapper",
      "outputs": [
        {
          "internalType": "contract ISwapper",
          "name": "",
          "type": "address"
        }
      ],
      "stateMutability": "view",
      "type": "function"
    },
    {
      "inputs": [],
      "name": "tokenId",
      "outputs": [
        {
          "internalType": "uint256",
          "name": "",
          "type": "uint256"
        }
      ],
      "stateMutability": "view",
      "type": "function"
    },
    {
      "inputs": [],
      "name": "tokenType",
      "outputs": [
        {
          "internalType": "enum TokenType",
          "name": "",
          "type": "uint8"
        }
      ],
      "stateMutability": "view",
      "type": "function"
    },
    {
      "inputs": [
        {
          "internalType": "address",
          "name": "newOwner",
          "type": "address"
        },
        {
          "internalType": "bool",
          "name": "direct",
          "type": "bool"
        },
        {
          "internalType": "bool",
          "name": "renounce",
          "type": "bool"
        }
      ],
      "name": "transferOwnership",
      "outputs": [],
      "stateMutability": "nonpayable",
      "type": "function"
    },
    {
      "inputs": [
        {
          "internalType": "bool",
          "name": "_val",
          "type": "bool"
        }
      ],
      "name": "updatePaused",
      "outputs": [],
      "stateMutability": "nonpayable",
      "type": "function"
    },
    {
      "inputs": [
        {
          "internalType": "address",
          "name": "to",
          "type": "address"
        },
        {
          "internalType": "uint256",
          "name": "amount",
          "type": "uint256"
        }
      ],
      "name": "withdraw",
      "outputs": [],
      "stateMutability": "nonpayable",
      "type": "function"
    },
    {
      "inputs": [],
      "name": "withdrawable",
      "outputs": [
        {
          "internalType": "uint256",
          "name": "amount",
          "type": "uint256"
        }
      ],
      "stateMutability": "view",
      "type": "function"
    },
    {
      "inputs": [],
      "name": "wrappedNative",
      "outputs": [
        {
          "internalType": "contract IERC20",
          "name": "",
          "type": "address"
        }
      ],
      "stateMutability": "view",
      "type": "function"
    },
    {
      "inputs": [],
      "name": "yieldBox",
      "outputs": [
        {
          "internalType": "contract IYieldBox",
          "name": "",
          "type": "address"
        }
      ],
      "stateMutability": "view",
      "type": "function"
    },
    {
      "stateMutability": "payable",
      "type": "receive"
    }
  ],
  "bytecode": "0x61010060405260326007553480156200001757600080fd5b506040516200311d3803806200311d8339810160408190526200003a9162000248565b6001600160a01b03808516608052831660a052600080546001600160a01b0319163390811782556040519091907f8be0079c531659141344cd1fd0a4f28419497f9722a3daafe3b4186f6b6457e0908290a360016002556001600160a01b0383811660c052600480546001600160a01b03191683831617815590831660e081905260408051635fe3b56760e01b815290519192635fe3b5679282820192602092908290030181865afa158015620000f5573d6000803e3d6000fd5b505050506040513d601f19601f820116820180604052508101906200011b9190620002b0565b600380546001600160a01b0319166001600160a01b0392831617905560c05160405163095ea7b360e01b815284831660048201526000602482015291169063095ea7b3906044016020604051808303816000875af115801562000182573d6000803e3d6000fd5b505050506040513d601f19601f82011682018060405250810190620001a89190620002d7565b5060c05160405163095ea7b360e01b81526001600160a01b03848116600483015260001960248301529091169063095ea7b3906044016020604051808303816000875af1158015620001fe573d6000803e3d6000fd5b505050506040513d601f19601f82011682018060405250810190620002249190620002d7565b5050505050620002fb565b6001600160a01b03811681146200024557600080fd5b50565b600080600080608085870312156200025f57600080fd5b84516200026c816200022f565b60208601519094506200027f816200022f565b604086015190935062000292816200022f565b6060860151909250620002a5816200022f565b939692955090935050565b600060208284031215620002c357600080fd5b8151620002d0816200022f565b9392505050565b600060208284031215620002ea57600080fd5b81518015158114620002d057600080fd5b60805160a05160c05160e051612d4e620003cf600039600081816103f001528181610bcf015281816111c30152818161138b01528181611417015281816116ef01528181611763015281816119ac0152611c2501526000818161052d0152818161093101528181610ad401528181610b6901528181610d9a0152818161148f015281816117cb015281816118b10152818161194601528181611b0d01528181611c9d01528181611d3d0152611e03015260006105d60152600081816104d90152818161105501526116630152612d4e6000f3fe6080604052600436106101e75760003560e01c8063734daaa111610102578063e30c397811610095578063f0fa55a911610064578063f0fa55a91461056f578063f168c2d21461058f578063f3fef3a3146105a4578063f6b4dfb4146105c457600080fd5b8063e30c3978146104fb578063e3575f051461035f578063eb6d3a111461051b578063ec32e1b91461054f57600080fd5b8063ce845d1d116100d1578063ce845d1d1461035f578063d7a3416d1461049d578063db2e21bc146104b2578063de406577146104c757600080fd5b8063734daaa1146104275780638da5cb5b1461043d578063afa91cc61461045d578063b25ea8fb1461047d57600080fd5b80634cce992d1161017a5780635c975abb116101495780635c975abb146103945780635fe3b567146103be57806369e527da146103de5780637284e4161461041257600080fd5b80634cce992d1461032a5780634e71e0c81461034a578063501883011461035f5780635185bbc81461037457600080fd5b806322a58c5d116101b657806322a58c5d1461029b5780632b3297f9146102bb57806330fa738c146102f357806348dcb0511461031557600080fd5b806306fdde03146101f3578063078dfbe71461023657806308cdc2a81461025857806317d70f7c1461027857600080fd5b366101ee57005b600080fd5b3480156101ff57600080fd5b5060408051808201909152600881526710dbdb5c1bdd5b9960c21b60208201525b60405161022d919061246a565b60405180910390f35b34801561024257600080fd5b506102566102513660046124a0565b6105f8565b005b34801561026457600080fd5b506102566102733660046124eb565b61070f565b34801561028457600080fd5b5061028d600081565b60405190815260200161022d565b3480156102a757600080fd5b506102566102b6366004612547565b61074c565b3480156102c757600080fd5b506004546102db906001600160a01b031681565b6040516001600160a01b03909116815260200161022d565b3480156102ff57600080fd5b50610308600181565b60405161022d91906125f8565b34801561032157600080fd5b5061028d610ca3565b34801561033657600080fd5b50610256610345366004612620565b610ec9565b34801561035657600080fd5b50610256610f27565b34801561036b57600080fd5b5061028d610fe4565b34801561038057600080fd5b5061025661038f366004612639565b610ff3565b3480156103a057600080fd5b506006546103ae9060ff1681565b604051901515815260200161022d565b3480156103ca57600080fd5b506003546102db906001600160a01b031681565b3480156103ea57600080fd5b506102db7f000000000000000000000000000000000000000000000000000000000000000081565b34801561041e57600080fd5b5061022061102a565b34801561043357600080fd5b5061028d60055481565b34801561044957600080fd5b506000546102db906001600160a01b031681565b34801561046957600080fd5b50610256610478366004612620565b61104a565b34801561048957600080fd5b506102566104983660046126ab565b6110bd565b3480156104a957600080fd5b50610256611195565b3480156104be57600080fd5b5061028d6112b5565b3480156104d357600080fd5b506102db7f000000000000000000000000000000000000000000000000000000000000000081565b34801561050757600080fd5b506001546102db906001600160a01b031681565b34801561052757600080fd5b506102db7f000000000000000000000000000000000000000000000000000000000000000081565b34801561055b57600080fd5b5061025661056a3660046126db565b611515565b34801561057b57600080fd5b5061025661058a366004612620565b61159b565b34801561059b57600080fd5b506102206115ca565b3480156105b057600080fd5b506102566105bf3660046126f8565b611658565b3480156105d057600080fd5b506102db7f000000000000000000000000000000000000000000000000000000000000000081565b6000546001600160a01b0316331461062b5760405162461bcd60e51b815260040161062290612724565b60405180910390fd5b81156106ee576001600160a01b0383161515806106455750805b6106895760405162461bcd60e51b81526020600482015260156024820152744f776e61626c653a207a65726f206164647265737360581b6044820152606401610622565b600080546040516001600160a01b03808716939216917f8be0079c531659141344cd1fd0a4f28419497f9722a3daafe3b4186f6b6457e091a3600080546001600160a01b0385166001600160a01b031991821617909155600180549091169055505050565b600180546001600160a01b0319166001600160a01b0385161790555b505050565b6000546001600160a01b031633146107395760405162461bcd60e51b815260040161062290612724565b6006805460ff1916911515919091179055565b6003546040516310b6f7d760e31b81523060048201526000916001600160a01b0316906385b7beb890602401602060405180830381865afa158015610795573d6000803e3d6000fd5b505050506040513d601f19601f820116820180604052508101906107b99190612759565b9050801561081f576003546040516374d7814960e11b81523060048201526001600160a01b039091169063e9af029290602401600060405180830381600087803b15801561080657600080fd5b505af115801561081a573d6000803e3d6000fd5b505050505b60035460408051634e8dad0560e11b815290516000926001600160a01b031691639d1b5a0a9160048083019260209291908290030181865afa158015610869573d6000803e3d6000fd5b505050506040513d601f19601f8201168201806040525081019061088d9190612772565b6040516370a0823160e01b81523060048201529091506000906001600160a01b038316906370a0823190602401602060405180830381865afa1580156108d7573d6000803e3d6000fd5b505050506040513d601f19601f820116820180604052508101906108fb9190612759565b90508015610c9d5760048054604051631fd177af60e11b81526000926001600160a01b0390921691633fa2ef5e9161095f9187917f00000000000000000000000000000000000000000000000000000000000000009188918891829182910161278f565b61014060405180830381865afa15801561097d573d6000803e3d6000fd5b505050506040513d601f19601f820116820180604052508101906109a19190612870565b60048054604051630b7ecdc960e31b81529293506000926001600160a01b0390911691635bf66e48916109d89186918b9101612999565b602060405180830381865afa1580156109f5573d6000803e3d6000fd5b505050506040513d601f19601f82011682018060405250810190610a199190612759565b9050600061271060075483610a2e91906129da565b610a3891906129f1565b610a429083612a13565b6004805460405163efa84c6d60e01b81529293506001600160a01b03169163efa84c6d91610a78918791869130918e9101612a26565b60408051808303816000875af1158015610a96573d6000803e3d6000fd5b505050506040513d601f19601f82011682018060405250810190610aba9190612a6c565b50506040516370a0823160e01b81523060048201526000907f00000000000000000000000000000000000000000000000000000000000000006001600160a01b0316906370a0823190602401602060405180830381865afa158015610b23573d6000803e3d6000fd5b505050506040513d601f19601f82011682018060405250810190610b479190612759565b9050600554811115610c6d57604051632e1a7d4d60e01b8152600481018290527f00000000000000000000000000000000000000000000000000000000000000006001600160a01b031690632e1a7d4d90602401600060405180830381600087803b158015610bb557600080fd5b505af1158015610bc9573d6000803e3d6000fd5b505050507f00000000000000000000000000000000000000000000000000000000000000006001600160a01b0316631249c58b826040518263ffffffff1660e01b81526004016000604051808303818588803b158015610c2857600080fd5b505af1158015610c3c573d6000803e3d6000fd5b50506040518493507fde22222b0ac0d69f2a19cd7b1443a29a5f37346640fff3506bdd6a9a9497f9d3925060009150a25b60405181907fde22222b0ac0d69f2a19cd7b1443a29a5f37346640fff3506bdd6a9a9497f9d390600090a2505050505b50505050565b6003546040516310b6f7d760e31b815230600482015260009182916001600160a01b03909116906385b7beb890602401602060405180830381865afa158015610cf0573d6000803e3d6000fd5b505050506040513d601f19601f82011682018060405250810190610d149190612759565b6000925090508015610ec1576004805460035460408051634e8dad0560e11b815290516000946001600160a01b0394851694633fa2ef5e941692639d1b5a0a92818301926020928290030181865afa158015610d74573d6000803e3d6000fd5b505050506040513d601f19601f82011682018060405250810190610d989190612772565b7f00000000000000000000000000000000000000000000000000000000000000008560008060006040518763ffffffff1660e01b8152600401610de09695949392919061278f565b61014060405180830381865afa158015610dfe573d6000803e3d6000fd5b505050506040513d601f19601f82011682018060405250810190610e229190612870565b60048054604051630b7ecdc960e31b81529293506001600160a01b031691635bf66e4891610e5591859160089101612b47565b602060405180830381865afa158015610e72573d6000803e3d6000fd5b505050506040513d601f19601f82011682018060405250810190610e969190612759565b925061271060075484610ea991906129da565b610eb391906129f1565b610ebd9084612a13565b9250505b600091505090565b6000546001600160a01b03163314610ef35760405162461bcd60e51b815260040161062290612724565b6005546040518291907f3b779194d2cc7daf4de546bec10f6f325d421b2e202c11aa24e86e39845860cc90600090a3600555565b6001546001600160a01b0316338114610f825760405162461bcd60e51b815260206004820181905260248201527f4f776e61626c653a2063616c6c657220213d2070656e64696e67206f776e65726044820152606401610622565b600080546040516001600160a01b03808516939216917f8be0079c531659141344cd1fd0a4f28419497f9722a3daafe3b4186f6b6457e091a3600080546001600160a01b039092166001600160a01b0319928316179055600180549091169055565b6000610fee6116cd565b905090565b6000546001600160a01b0316331461101d5760405162461bcd60e51b815260040161062290612724565b600861070a828483612bb7565b60606040518060600160405280602b8152602001612cee602b9139905090565b336001600160a01b037f000000000000000000000000000000000000000000000000000000000000000016146110b15760405162461bcd60e51b815260206004820152600c60248201526b09cdee840b2d2cad8c884def60a31b6044820152606401610622565b6110ba8161184b565b50565b6000546001600160a01b031633146110e75760405162461bcd60e51b815260040161062290612724565b6000816001600160a01b03168360405160006040518083038185875af1925050503d8060008114611134576040519150601f19603f3d011682016040523d82523d6000602084013e611139565b606091505b505090508061070a5760405162461bcd60e51b815260206004820152602260248201527f436f6d706f756e6453747261746567793a207472616e73666572206661696c65604482015261321760f11b6064820152608401610622565b6000546001600160a01b031633146111bf5760405162461bcd60e51b815260040161062290612724565b60007f00000000000000000000000000000000000000000000000000000000000000006001600160a01b0316635fe3b5676040518163ffffffff1660e01b8152600401602060405180830381865afa15801561121f573d6000803e3d6000fd5b505050506040513d601f19601f820116820180604052508101906112439190612772565b6003549091506001600160a01b038083169116146110ba576003546040516001600160a01b038084169216907fe1ddd75316994649e69d2e0ce888facef6c82218f8737d9d080c7f6df666591090600090a3600380546001600160a01b0383166001600160a01b031990911617905550565b600080546001600160a01b031633146112e05760405162461bcd60e51b815260040161062290612724565b611373600880546112f090612a90565b80601f016020809104026020016040519081016040528092919081815260200182805461131c90612a90565b80156113695780601f1061133e57610100808354040283529160200191611369565b820191906000526020600020905b81548152906001019060200180831161134c57829003601f168201915b505050505061074c565b6040516370a0823160e01b81523060048201526000907f00000000000000000000000000000000000000000000000000000000000000006001600160a01b0316906370a0823190602401602060405180830381865afa1580156113da573d6000803e3d6000fd5b505050506040513d601f19601f820116820180604052508101906113fe9190612759565b60405163db006a7560e01b8152600481018290529091507f00000000000000000000000000000000000000000000000000000000000000006001600160a01b03169063db006a75906024016020604051808303816000875af1158015611468573d6000803e3d6000fd5b505050506040513d601f19601f8201168201806040525081019061148c9190612759565b507f00000000000000000000000000000000000000000000000000000000000000006001600160a01b031663d0e30db0476040518263ffffffff1660e01b81526004016000604051808303818588803b1580156114e857600080fd5b505af11580156114fc573d6000803e3d6000fd5b50506006805460ff191660011790555047949350505050565b6000546001600160a01b0316331461153f5760405162461bcd60e51b815260040161062290612724565b6004546040516001600160a01b038084169216907fe36d79dcda63d47bee388b7dde8bba0b326a1b459889de48dc94dcf3504eda4b90600090a3600480546001600160a01b0319166001600160a01b0392909216919091179055565b6000546001600160a01b031633146115c55760405162461bcd60e51b815260040161062290612724565b600755565b600880546115d790612a90565b80601f016020809104026020016040519081016040528092919081815260200182805461160390612a90565b80156116505780601f1061162557610100808354040283529160200191611650565b820191906000526020600020905b81548152906001019060200180831161163357829003601f168201915b505050505081565b336001600160a01b037f000000000000000000000000000000000000000000000000000000000000000016146116bf5760405162461bcd60e51b815260206004820152600c60248201526b09cdee840b2d2cad8c884def60a31b6044820152606401610622565b6116c98282611a86565b5050565b6040516370a0823160e01b815230600482015260009081906001600160a01b037f000000000000000000000000000000000000000000000000000000000000000016906370a0823190602401602060405180830381865afa158015611736573d6000803e3d6000fd5b505050506040513d601f19601f8201168201806040525081019061175a9190612759565b905060006117877f0000000000000000000000000000000000000000000000000000000000000000611e6c565b90506000670de0b6b3a764000061179e83856129da565b6117a891906129f1565b6040516370a0823160e01b81523060048201529091506000906001600160a01b037f000000000000000000000000000000000000000000000000000000000000000016906370a0823190602401602060405180830381865afa158015611812573d6000803e3d6000fd5b505050506040513d601f19601f820116820180604052508101906118369190612759565b90506118428282612c77565b94505050505090565b61185361225a565b60065460ff16156118995760405162461bcd60e51b815260206004820152601060248201526f14dd185c99d85d194e881c185d5cd95960821b6044820152606401610622565b6040516370a0823160e01b81523060048201526000907f00000000000000000000000000000000000000000000000000000000000000006001600160a01b0316906370a0823190602401602060405180830381865afa158015611900573d6000803e3d6000fd5b505050506040513d601f19601f820116820180604052508101906119249190612759565b9050600554811115611a4f57604051632e1a7d4d60e01b8152600481018290527f00000000000000000000000000000000000000000000000000000000000000006001600160a01b031690632e1a7d4d90602401600060405180830381600087803b15801561199257600080fd5b505af11580156119a6573d6000803e3d6000fd5b505050507f00000000000000000000000000000000000000000000000000000000000000006001600160a01b0316631249c58b826040518263ffffffff1660e01b81526004016000604051808303818588803b158015611a0557600080fd5b505af1158015611a19573d6000803e3d6000fd5b50506040518493507fde22222b0ac0d69f2a19cd7b1443a29a5f37346640fff3506bdd6a9a9497f9d3925060009150a250611a7c565b60405182907f9447d5abbf0af693ca2937bf8b1ec6a8c9dc4fbac672911c633fb31c78e5e3ca90600090a2505b6110ba6001600255565b611a8e61225a565b6000611a986116cd565b905081811015611af55760405162461bcd60e51b815260206004820152602260248201527f436f6d706f756e6453747261746567793a20616d6f756e74206e6f742076616c6044820152611a5960f21b6064820152608401610622565b6040516370a0823160e01b81523060048201526000907f00000000000000000000000000000000000000000000000000000000000000006001600160a01b0316906370a0823190602401602060405180830381865afa158015611b5c573d6000803e3d6000fd5b505050506040513d601f19601f82011682018060405250810190611b809190612759565b905080831115611d10576040516322a58c5d60e01b815230906322a58c5d90611bae90600890600401612c8a565b600060405180830381600087803b158015611bc857600080fd5b505af1925050508015611bd9575060015b611c0f573d808015611c07576040519150601f19603f3d011682016040523d82523d6000602084013e611c0c565b606091505b50505b60405163852a12e360e01b8152600481018490527f00000000000000000000000000000000000000000000000000000000000000006001600160a01b03169063852a12e3906024016020604051808303816000875af1158015611c76573d6000803e3d6000fd5b505050506040513d601f19601f82011682018060405250810190611c9a9190612759565b507f00000000000000000000000000000000000000000000000000000000000000006001600160a01b031663d0e30db0476040518263ffffffff1660e01b81526004016000604051808303818588803b158015611cf657600080fd5b505af1158015611d0a573d6000803e3d6000fd5b50505050505b82611d1a81612c9d565b6040516370a0823160e01b81523060048201529094508491506001600160a01b037f000000000000000000000000000000000000000000000000000000000000000016906370a0823190602401602060405180830381865afa158015611d84573d6000803e3d6000fd5b505050506040513d601f19601f82011682018060405250810190611da89190612759565b1015611df65760405162461bcd60e51b815260206004820152601c60248201527f436f6d706f756e6453747261746567793a206e6f7420656e6f756768000000006044820152606401610622565b611e2a6001600160a01b037f00000000000000000000000000000000000000000000000000000000000000001685856122b1565b60405183906001600160a01b038616907f058b581e2433b8b02263f5b0e5c2889fcb7b3495112884a3147619038fba46d890600090a350506116c96001600255565b600080826001600160a01b0316636c540baf6040518163ffffffff1660e01b8152600401602060405180830381865afa158015611ead573d6000803e3d6000fd5b505050506040513d601f19601f82011682018060405250810190611ed19190612759565b9050438103611f4357826001600160a01b031663182df0f56040518163ffffffff1660e01b8152600401602060405180830381865afa158015611f18573d6000803e3d6000fd5b505050506040513d601f19601f82011682018060405250810190611f3c9190612759565b9392505050565b6000836001600160a01b0316633b1d21a26040518163ffffffff1660e01b8152600401602060405180830381865afa158015611f83573d6000803e3d6000fd5b505050506040513d601f19601f82011682018060405250810190611fa79190612759565b90506000846001600160a01b03166347bd37186040518163ffffffff1660e01b8152600401602060405180830381865afa158015611fe9573d6000803e3d6000fd5b505050506040513d601f19601f8201168201806040525081019061200d9190612759565b90506000856001600160a01b0316638f840ddd6040518163ffffffff1660e01b8152600401602060405180830381865afa15801561204f573d6000803e3d6000fd5b505050506040513d601f19601f820116820180604052508101906120739190612759565b90506000866001600160a01b031663f8f9da286040518163ffffffff1660e01b8152600401602060405180830381865afa1580156120b5573d6000803e3d6000fd5b505050506040513d601f19601f820116820180604052508101906120d99190612759565b905065048c273950008111156121215760405162461bcd60e51b815260206004820152600d60248201526c0a482a88abea89e9ebe90928e9609b1b6044820152606401610622565b6000612141846121318843612a13565b61213b90856129da565b906123cc565b90506000836121ac838b6001600160a01b031663173b99046040518163ffffffff1660e01b8152600401602060405180830381865afa158015612188573d6000803e3d6000fd5b505050506040513d601f19601f8201168201806040525081019061213b9190612759565b6121b69190612c77565b905060006121c48684612c77565b905060008a6001600160a01b03166318160ddd6040518163ffffffff1660e01b8152600401602060405180830381865afa158015612206573d6000803e3d6000fd5b505050506040513d601f19601f8201168201806040525081019061222a9190612759565b905061224b818461223b858c612c77565b6122459190612a13565b906123ea565b9b9a5050505050505050505050565b60028054036122ab5760405162461bcd60e51b815260206004820152601f60248201527f5265656e7472616e637947756172643a207265656e7472616e742063616c6c006044820152606401610622565b60028055565b604080516001600160a01b038481166024830152604480830185905283518084039091018152606490920183526020820180516001600160e01b031663a9059cbb60e01b179052915160009283929087169161230d9190612cb4565b6000604051808303816000865af19150503d806000811461234a576040519150601f19603f3d011682016040523d82523d6000602084013e61234f565b606091505b50915091508180156123795750805115806123795750808060200190518101906123799190612cd0565b6123c55760405162461bcd60e51b815260206004820152601c60248201527f426f72696e6745524332303a205472616e73666572206661696c6564000000006044820152606401610622565b5050505050565b60006123e18383670de0b6b3a76400006123fb565b90505b92915050565b60006123e183670de0b6b3a7640000845b82820281151584158583048514171661241357600080fd5b0492915050565b60005b8381101561243557818101518382015260200161241d565b50506000910152565b6000815180845261245681602086016020860161241a565b601f01601f19169290920160200192915050565b6020815260006123e1602083018461243e565b6001600160a01b03811681146110ba57600080fd5b80151581146110ba57600080fd5b6000806000606084860312156124b557600080fd5b83356124c08161247d565b925060208401356124d081612492565b915060408401356124e081612492565b809150509250925092565b6000602082840312156124fd57600080fd5b8135611f3c81612492565b634e487b7160e01b600052604160045260246000fd5b6040516080810167ffffffffffffffff8111828210171561254157612541612508565b60405290565b60006020828403121561255957600080fd5b813567ffffffffffffffff8082111561257157600080fd5b818401915084601f83011261258557600080fd5b81358181111561259757612597612508565b604051601f8201601f19908116603f011681019083821181831017156125bf576125bf612508565b816040528281528760208487010111156125d857600080fd5b826020860160208301376000928101602001929092525095945050505050565b602081016005831061261a57634e487b7160e01b600052602160045260246000fd5b91905290565b60006020828403121561263257600080fd5b5035919050565b6000806020838503121561264c57600080fd5b823567ffffffffffffffff8082111561266457600080fd5b818501915085601f83011261267857600080fd5b81358181111561268757600080fd5b86602082850101111561269957600080fd5b60209290920196919550909350505050565b600080604083850312156126be57600080fd5b8235915060208301356126d08161247d565b809150509250929050565b6000602082840312156126ed57600080fd5b8135611f3c8161247d565b6000806040838503121561270b57600080fd5b82356127168161247d565b946020939093013593505050565b6020808252818101527f4f776e61626c653a2063616c6c6572206973206e6f7420746865206f776e6572604082015260600190565b60006020828403121561276b57600080fd5b5051919050565b60006020828403121561278457600080fd5b8151611f3c8161247d565b6001600160a01b039687168152949095166020850152604084019290925260608301521515608082015290151560a082015260c00190565b6000608082840312156127d957600080fd5b6127e161251e565b90508151815260208201516020820152604082015160408201526060820151606082015292915050565b60006040828403121561281d57600080fd5b6040516040810181811067ffffffffffffffff8211171561284057612840612508565b8060405250809150825161285381612492565b8152602083015161286381612492565b6020919091015292915050565b600081830361014081121561288457600080fd5b6040516060810181811067ffffffffffffffff821117156128a7576128a7612508565b60405260808212156128b857600080fd5b6128c061251e565b915083516128cd8161247d565b82526020848101519083015260408401516128e78161247d565b60408301526060848101519083015281815261290685608086016127c7565b602082015261291985610100860161280b565b6040820152949350505050565b805180516001600160a01b03908116845260208083015181860152604080840151909216828601526060928301518386015280840151805160808701528082015160a08701528083015160c08701529092015160e085015290910151805115156101008401520151151561012090910152565b60006101606129a88386612926565b806101408401526129bb8184018561243e565b95945050505050565b634e487b7160e01b600052601160045260246000fd5b80820281158282048414176123e4576123e46129c4565b600082612a0e57634e487b7160e01b600052601260045260246000fd5b500490565b818103818111156123e4576123e46129c4565b60006101a0612a358388612926565b61014083018690526001600160a01b0385166101608401526101808301819052612a618184018561243e565b979650505050505050565b60008060408385031215612a7f57600080fd5b505080516020909101519092909150565b600181811c90821680612aa457607f821691505b602082108103612ac457634e487b7160e01b600052602260045260246000fd5b50919050565b60008154612ad781612a90565b808552602060018381168015612af45760018114612b0e57612b3c565b60ff1985168884015283151560051b880183019550612b3c565b866000528260002060005b85811015612b345781548a8201860152908301908401612b19565b890184019650505b505050505092915050565b6000610160612b568386612926565b806101408401526129bb81840185612aca565b601f82111561070a57600081815260208120601f850160051c81016020861015612b905750805b601f850160051c820191505b81811015612baf57828155600101612b9c565b505050505050565b67ffffffffffffffff831115612bcf57612bcf612508565b612be383612bdd8354612a90565b83612b69565b6000601f841160018114612c175760008515612bff5750838201355b600019600387901b1c1916600186901b1783556123c5565b600083815260209020601f19861690835b82811015612c485786850135825560209485019460019092019101612c28565b5086821015612c655760001960f88860031b161c19848701351681555b505060018560011b0183555050505050565b808201808211156123e4576123e46129c4565b6020815260006123e16020830184612aca565b600081612cac57612cac6129c4565b506000190190565b60008251612cc681846020870161241a565b9190910192915050565b600060208284031215612ce257600080fd5b8151611f3c8161249256fe436f6d706f756e6420737472617465677920666f722077726170706564206e617469766520617373657473a264697066735822122087155069c721c5e17bbb6578cadac99f7aabf1524ae109f331d72d080346759264736f6c63430008120033",
  "linkReferences": {},
  "deployedLinkReferences": {}
}