{
  "_format": "hh-sol-artifact-1",
  "contractName": "StargateSwapperV3",
  "sourceName": "contracts/stargate/StargateSwapperV3.sol",
  "abi": [
    {
      "inputs": [
        {
          "internalType": "contract ISwapRouter",
          "name": "_swapRouter",
          "type": "address"
        }
      ],
      "stateMutability": "nonpayable",
      "type": "constructor"
    },
    {
      "anonymous": false,
      "inputs": [
        {
          "indexed": true,
          "internalType": "uint256",
          "name": "_old",
          "type": "uint256"
        },
        {
          "indexed": true,
          "internalType": "uint256",
          "name": "_new",
          "type": "uint256"
        }
      ],
      "name": "PoolFee",
      "type": "event"
    },
    {
      "inputs": [],
      "name": "owner",
      "outputs": [
        {
          "internalType": "address",
          "name": "",
          "type": "address"
        }
      ],
      "stateMutability": "view",
      "type": "function"
    },
    {
      "inputs": [],
      "name": "poolFee",
      "outputs": [
        {
          "internalType": "uint24",
          "name": "",
          "type": "uint24"
        }
      ],
      "stateMutability": "view",
      "type": "function"
    },
    {
      "inputs": [
        {
          "internalType": "uint256",
          "name": "amountIn",
          "type": "uint256"
        },
        {
          "internalType": "address",
          "name": "tokenIn",
          "type": "address"
        },
        {
          "internalType": "address",
          "name": "tokenOut",
          "type": "address"
        },
        {
          "internalType": "address",
          "name": "pool",
          "type": "address"
        },
        {
          "internalType": "bytes",
          "name": "",
          "type": "bytes"
        }
      ],
      "name": "queryAmountOut",
      "outputs": [
        {
          "internalType": "uint256",
          "name": "amountOut",
          "type": "uint256"
        }
      ],
      "stateMutability": "view",
      "type": "function"
    },
    {
      "inputs": [
        {
          "internalType": "uint24",
          "name": "_newFee",
          "type": "uint24"
        }
      ],
      "name": "setPoolFee",
      "outputs": [],
      "stateMutability": "nonpayable",
      "type": "function"
    },
    {
      "inputs": [
        {
          "internalType": "uint256",
          "name": "amountIn",
          "type": "uint256"
        },
        {
          "internalType": "address",
          "name": "tokenIn",
          "type": "address"
        },
        {
          "internalType": "address",
          "name": "tokenOut",
          "type": "address"
        },
        {
          "internalType": "uint256",
          "name": "deadline",
          "type": "uint256"
        },
        {
          "internalType": "uint256",
          "name": "amountOutMin",
          "type": "uint256"
        },
        {
          "internalType": "bytes",
          "name": "",
          "type": "bytes"
        }
      ],
      "name": "swap",
      "outputs": [
        {
          "internalType": "uint256",
          "name": "amountOut",
          "type": "uint256"
        }
      ],
      "stateMutability": "nonpayable",
      "type": "function"
    },
    {
      "inputs": [],
      "name": "swapRouter",
      "outputs": [
        {
          "internalType": "contract ISwapRouter",
          "name": "",
          "type": "address"
        }
      ],
      "stateMutability": "view",
      "type": "function"
    },
    {
      "stateMutability": "payable",
      "type": "receive"
    }
  ],
  "bytecode": "0x60a06040526000805462ffffff60a01b191661017760a31b17905534801561002657600080fd5b5060405161153538038061153583398101604081905261004591610068565b6001600160a01b0316608052600080546001600160a01b03191633179055610098565b60006020828403121561007a57600080fd5b81516001600160a01b038116811461009157600080fd5b9392505050565b6080516114746100c16000396000818161015b0152818161025001526102d901526114746000f3fe6080604052600436106100595760003560e01c8063089fe6aa1461006557806373dd250c146100a15780638bce137e146100c35780638da5cb5b146100f1578063a62d372514610129578063c31c9c071461014957600080fd5b3661006057005b600080fd5b34801561007157600080fd5b5060005461008890600160a01b900462ffffff1681565b60405162ffffff90911681526020015b60405180910390f35b3480156100ad57600080fd5b506100c16100bc366004610db8565b61017d565b005b3480156100cf57600080fd5b506100e36100de366004610eac565b61023c565b604051908152602001610098565b3480156100fd57600080fd5b50600054610111906001600160a01b031681565b6040516001600160a01b039091168152602001610098565b34801561013557600080fd5b506100e3610144366004610f2a565b61035d565b34801561015557600080fd5b506101117f000000000000000000000000000000000000000000000000000000000000000081565b6000546001600160a01b031633146101dc5760405162461bcd60e51b815260206004820152601f60248201527f53746172676174655377617070657256333a20756e617574686f72697a65640060448201526064015b60405180910390fd5b6000805460405162ffffff80851693600160a01b90930416917f2bff118b9b9e3deb4fc5204e6ba828351c954685d0b119d0e21add79f878339991a36000805462ffffff909216600160a01b0262ffffff60a01b19909216919091179055565b600061024a8633308a610385565b610275867f00000000000000000000000000000000000000000000000000000000000000008961048f565b60408051610100810182526001600160a01b038881168252878116602083015260008054600160a01b900462ffffff16838501523360608401526080830188905260a083018b905260c0830187905260e0830152915163414bf38960e01b815290917f0000000000000000000000000000000000000000000000000000000000000000169063414bf3899061030e908490600401610fa9565b6020604051808303816000875af115801561032d573d6000803e3d6000fd5b505050506040513d601f19601f820116820180604052508101906103519190611026565b98975050505050505050565b60008061036b84603c61058f565b50905061037a818888886107d5565b979650505050505050565b604080516001600160a01b0385811660248301528481166044830152606480830185905283518084039091018152608490920183526020820180516001600160e01b03166323b872dd60e01b17905291516000928392908816916103e9919061103f565b6000604051808303816000865af19150503d8060008114610426576040519150601f19603f3d011682016040523d82523d6000602084013e61042b565b606091505b5091509150818015610455575080511580610455575080806020019051810190610455919061106e565b6104875760405162461bcd60e51b815260206004820152600360248201526229aa2360e91b60448201526064016101d3565b505050505050565b604080516001600160a01b038481166024830152604480830185905283518084039091018152606490920183526020820180516001600160e01b031663095ea7b360e01b17905291516000928392908716916104eb919061103f565b6000604051808303816000865af19150503d8060008114610528576040519150601f19603f3d011682016040523d82523d6000602084013e61052d565b606091505b5091509150818015610557575080511580610557575080806020019051810190610557919061106e565b6105885760405162461bcd60e51b8152602060048201526002602482015261534160f01b60448201526064016101d3565b5050505050565b6000808263ffffffff166000036105cd5760405162461bcd60e51b8152602060048201526002602482015261042560f41b60448201526064016101d3565b604080516002808252606082018352600092602083019080368337019050509050838160008151811061060257610602611090565b602002602001019063ffffffff16908163ffffffff168152505060008160018151811061063157610631611090565b602002602001019063ffffffff16908163ffffffff1681525050600080866001600160a01b031663883bdbfd846040518263ffffffff1660e01b815260040161067a91906110a6565b600060405180830381865afa158015610697573d6000803e3d6000fd5b505050506040513d6000823e601f3d908101601f191682016040526106bf9190810190611188565b915091506000826000815181106106d8576106d8611090565b6020026020010151836001815181106106f3576106f3611090565b6020026020010151610705919061126a565b905060008260008151811061071c5761071c611090565b60200260200101518360018151811061073757610737611090565b6020026020010151610749919061129d565b9050610759600389900b836112d3565b965060008260060b12801561077d5750610777600389900b83611311565b60060b15155b15610790578661078c81611333565b9750505b60006107a96001600160a01b0363ffffffff8b16611356565b90506107c6640100000000600160c01b03602084901b1682611388565b96505050505050509250929050565b6000806107e1866108e3565b90506001600160801b036001600160a01b0382161161086757600061080f6001600160a01b038316806113ae565b9050836001600160a01b0316856001600160a01b03161061084757610842600160c01b876001600160801b031683610d05565b61085f565b61085f81876001600160801b0316600160c01b610d05565b9250506108da565b60006108866001600160a01b0383168068010000000000000000610d05565b9050836001600160a01b0316856001600160a01b0316106108be576108b9600160801b876001600160801b031683610d05565b6108d6565b6108d681876001600160801b0316600160801b610d05565b9250505b50949350505050565b60008060008360020b126108fa578260020b610907565b8260020b610907906113c5565b9050610916620d89e7196113e1565b62ffffff1681111561094e5760405162461bcd60e51b81526020600482015260016024820152601560fa1b60448201526064016101d3565b60008160011660000361096557600160801b610977565b6ffffcb933bd6fad37aa2d162d1a5940015b70ffffffffffffffffffffffffffffffffff16905060028216156109b65760806109b1826ffff97272373d413259a46990580e213a6113ae565b901c90505b60048216156109e05760806109db826ffff2e50f5f656932ef12357cf3c7fdcc6113ae565b901c90505b6008821615610a0a576080610a05826fffe5caca7e10e4e61c3624eaa0941cd06113ae565b901c90505b6010821615610a34576080610a2f826fffcb9843d60f6159c9db58835c9266446113ae565b901c90505b6020821615610a5e576080610a59826fff973b41fa98c081472e6896dfb254c06113ae565b901c90505b6040821615610a88576080610a83826fff2ea16466c96a3843ec78b326b528616113ae565b901c90505b6080821615610ab2576080610aad826ffe5dee046a99a2a811c461f1969c30536113ae565b901c90505b610100821615610add576080610ad8826ffcbe86c7900a88aedcffc83b479aa3a46113ae565b901c90505b610200821615610b08576080610b03826ff987a7253ac413176f2b074cf7815e546113ae565b901c90505b610400821615610b33576080610b2e826ff3392b0822b70005940c7a398e4b70f36113ae565b901c90505b610800821615610b5e576080610b59826fe7159475a2c29b7443b29c7fa6e889d96113ae565b901c90505b611000821615610b89576080610b84826fd097f3bdfd2022b8845ad8f792aa58256113ae565b901c90505b612000821615610bb4576080610baf826fa9f746462d870fdf8a65dc1f90e061e56113ae565b901c90505b614000821615610bdf576080610bda826f70d869a156d2a1b890bb3df62baf32f76113ae565b901c90505b618000821615610c0a576080610c05826f31be135f97d08fd981231505542fcfa66113ae565b901c90505b62010000821615610c36576080610c31826f09aa508b5b7a84e1c677de54f3e99bc96113ae565b901c90505b62020000821615610c61576080610c5c826e5d6af8dedb81196699c329225ee6046113ae565b901c90505b62040000821615610c8b576080610c86826d2216e584f5fa1ea926041bedfe986113ae565b901c90505b62080000821615610cb3576080610cae826b048a170391f7dc42444e8fa26113ae565b901c90505b60008460020b1315610cce57610ccb81600019611403565b90505b610cdd64010000000082611417565b15610ce9576001610cec565b60005b610cfd9060ff16602083901c61142b565b949350505050565b6000808060001985870985870292508281108382030391505080600003610d3e5760008411610d3357600080fd5b508290049050610db1565b808411610d4a57600080fd5b6000848688096000868103871696879004966002600389028118808a02820302808a02820302808a02820302808a02820302808a02820302808a02909103029181900381900460010186841190950394909402919094039290920491909117919091029150505b9392505050565b600060208284031215610dca57600080fd5b813562ffffff81168114610db157600080fd5b6001600160a01b0381168114610df257600080fd5b50565b634e487b7160e01b600052604160045260246000fd5b604051601f8201601f1916810167ffffffffffffffff81118282101715610e3457610e34610df5565b604052919050565b600082601f830112610e4d57600080fd5b813567ffffffffffffffff811115610e6757610e67610df5565b610e7a601f8201601f1916602001610e0b565b818152846020838601011115610e8f57600080fd5b816020850160208301376000918101602001919091529392505050565b60008060008060008060c08789031215610ec557600080fd5b863595506020870135610ed781610ddd565b94506040870135610ee781610ddd565b9350606087013592506080870135915060a087013567ffffffffffffffff811115610f1157600080fd5b610f1d89828a01610e3c565b9150509295509295509295565b600080600080600060a08688031215610f4257600080fd5b853594506020860135610f5481610ddd565b93506040860135610f6481610ddd565b92506060860135610f7481610ddd565b9150608086013567ffffffffffffffff811115610f9057600080fd5b610f9c88828901610e3c565b9150509295509295909350565b60006101008201905060018060a01b0380845116835280602085015116602084015262ffffff6040850151166040840152806060850151166060840152506080830151608083015260a083015160a083015260c083015160c083015260e083015161101f60e08401826001600160a01b03169052565b5092915050565b60006020828403121561103857600080fd5b5051919050565b6000825160005b818110156110605760208186018101518583015201611046565b506000920191825250919050565b60006020828403121561108057600080fd5b81518015158114610db157600080fd5b634e487b7160e01b600052603260045260246000fd5b6020808252825182820181905260009190848201906040850190845b818110156110e457835163ffffffff16835292840192918401916001016110c2565b50909695505050505050565b600067ffffffffffffffff82111561110a5761110a610df5565b5060051b60200190565b600082601f83011261112557600080fd5b8151602061113a611135836110f0565b610e0b565b82815260059290921b8401810191818101908684111561115957600080fd5b8286015b8481101561117d57805161117081610ddd565b835291830191830161115d565b509695505050505050565b6000806040838503121561119b57600080fd5b825167ffffffffffffffff808211156111b357600080fd5b818501915085601f8301126111c757600080fd5b815160206111d7611135836110f0565b82815260059290921b840181019181810190898411156111f657600080fd5b948201945b838610156112245785518060060b81146112155760008081fd5b825294820194908201906111fb565b9188015191965090935050508082111561123d57600080fd5b5061124a85828601611114565b9150509250929050565b634e487b7160e01b600052601160045260246000fd5b600682810b9082900b03667fffffffffffff198112667fffffffffffff8213171561129757611297611254565b92915050565b6001600160a01b0382811682821603908082111561101f5761101f611254565b634e487b7160e01b600052601260045260246000fd5b60008160060b8360060b806112ea576112ea6112bd565b667fffffffffffff1982146000198214161561130857611308611254565b90059392505050565b60008260060b80611324576113246112bd565b808360060b0791505092915050565b60008160020b627fffff19810361134c5761134c611254565b6000190192915050565b6001600160c01b0382811682821681810283169291811582850482141761137f5761137f611254565b50505092915050565b60006001600160c01b03838116806113a2576113a26112bd565b92169190910492915050565b808202811582820484141761129757611297611254565b6000600160ff1b82016113da576113da611254565b5060000390565b60008160020b627fffff1981036113fa576113fa611254565b60000392915050565b600082611412576114126112bd565b500490565b600082611426576114266112bd565b500690565b808201808211156112975761129761125456fea2646970667358221220903d276c8e2944a234058e78ea9b31da5660f62a7629521e361fc36ab14a502164736f6c63430008120033",
  "linkReferences": {},
  "deployedLinkReferences": {}
}