{
  "_format": "hh-sol-artifact-1",
  "contractName": "StEthMock",
  "sourceName": "contracts/deprecated/lido/mocks/StEthMock.sol",
  "abi": [
    {
      "inputs": [
        {
          "internalType": "uint256",
          "name": "initialSupply",
          "type": "uint256"
        }
      ],
      "stateMutability": "nonpayable",
      "type": "constructor"
    },
    {
      "inputs": [],
      "name": "InvalidShortString",
      "type": "error"
    },
    {
      "inputs": [
        {
          "internalType": "string",
          "name": "str",
          "type": "string"
        }
      ],
      "name": "StringTooLong",
      "type": "error"
    },
    {
      "anonymous": false,
      "inputs": [
        {
          "indexed": true,
          "internalType": "address",
          "name": "owner",
          "type": "address"
        },
        {
          "indexed": true,
          "internalType": "address",
          "name": "spender",
          "type": "address"
        },
        {
          "indexed": false,
          "internalType": "uint256",
          "name": "value",
          "type": "uint256"
        }
      ],
      "name": "Approval",
      "type": "event"
    },
    {
      "anonymous": false,
      "inputs": [
        {
          "indexed": true,
          "internalType": "address",
          "name": "dst",
          "type": "address"
        },
        {
          "indexed": false,
          "internalType": "uint256",
          "name": "wad",
          "type": "uint256"
        }
      ],
      "name": "Deposit",
      "type": "event"
    },
    {
      "anonymous": false,
      "inputs": [],
      "name": "EIP712DomainChanged",
      "type": "event"
    },
    {
      "anonymous": false,
      "inputs": [
        {
          "indexed": true,
          "internalType": "address",
          "name": "previousOwner",
          "type": "address"
        },
        {
          "indexed": true,
          "internalType": "address",
          "name": "newOwner",
          "type": "address"
        }
      ],
      "name": "OwnershipTransferred",
      "type": "event"
    },
    {
      "anonymous": false,
      "inputs": [
        {
          "indexed": true,
          "internalType": "address",
          "name": "from",
          "type": "address"
        },
        {
          "indexed": true,
          "internalType": "address",
          "name": "to",
          "type": "address"
        },
        {
          "indexed": false,
          "internalType": "uint256",
          "name": "value",
          "type": "uint256"
        }
      ],
      "name": "Transfer",
      "type": "event"
    },
    {
      "anonymous": false,
      "inputs": [
        {
          "indexed": true,
          "internalType": "address",
          "name": "src",
          "type": "address"
        },
        {
          "indexed": false,
          "internalType": "uint256",
          "name": "wad",
          "type": "uint256"
        }
      ],
      "name": "Withdrawal",
      "type": "event"
    },
    {
      "inputs": [],
      "name": "DOMAIN_SEPARATOR",
      "outputs": [
        {
          "internalType": "bytes32",
          "name": "",
          "type": "bytes32"
        }
      ],
      "stateMutability": "view",
      "type": "function"
    },
    {
      "inputs": [],
      "name": "MINT_WINDOW",
      "outputs": [
        {
          "internalType": "uint256",
          "name": "",
          "type": "uint256"
        }
      ],
      "stateMutability": "view",
      "type": "function"
    },
    {
      "inputs": [
        {
          "internalType": "address",
          "name": "owner",
          "type": "address"
        },
        {
          "internalType": "address",
          "name": "spender",
          "type": "address"
        }
      ],
      "name": "allowance",
      "outputs": [
        {
          "internalType": "uint256",
          "name": "",
          "type": "uint256"
        }
      ],
      "stateMutability": "view",
      "type": "function"
    },
    {
      "inputs": [
        {
          "internalType": "address",
          "name": "spender",
          "type": "address"
        },
        {
          "internalType": "uint256",
          "name": "amount",
          "type": "uint256"
        }
      ],
      "name": "approve",
      "outputs": [
        {
          "internalType": "bool",
          "name": "",
          "type": "bool"
        }
      ],
      "stateMutability": "nonpayable",
      "type": "function"
    },
    {
      "inputs": [
        {
          "internalType": "address",
          "name": "account",
          "type": "address"
        }
      ],
      "name": "balanceOf",
      "outputs": [
        {
          "internalType": "uint256",
          "name": "",
          "type": "uint256"
        }
      ],
      "stateMutability": "view",
      "type": "function"
    },
    {
      "inputs": [],
      "name": "decimals",
      "outputs": [
        {
          "internalType": "uint8",
          "name": "",
          "type": "uint8"
        }
      ],
      "stateMutability": "view",
      "type": "function"
    },
    {
      "inputs": [
        {
          "internalType": "address",
          "name": "spender",
          "type": "address"
        },
        {
          "internalType": "uint256",
          "name": "subtractedValue",
          "type": "uint256"
        }
      ],
      "name": "decreaseAllowance",
      "outputs": [
        {
          "internalType": "bool",
          "name": "",
          "type": "bool"
        }
      ],
      "stateMutability": "nonpayable",
      "type": "function"
    },
    {
      "inputs": [],
      "name": "deposit",
      "outputs": [],
      "stateMutability": "payable",
      "type": "function"
    },
    {
      "inputs": [],
      "name": "eip712Domain",
      "outputs": [
        {
          "internalType": "bytes1",
          "name": "fields",
          "type": "bytes1"
        },
        {
          "internalType": "string",
          "name": "name",
          "type": "string"
        },
        {
          "internalType": "string",
          "name": "version",
          "type": "string"
        },
        {
          "internalType": "uint256",
          "name": "chainId",
          "type": "uint256"
        },
        {
          "internalType": "address",
          "name": "verifyingContract",
          "type": "address"
        },
        {
          "internalType": "bytes32",
          "name": "salt",
          "type": "bytes32"
        },
        {
          "internalType": "uint256[]",
          "name": "extensions",
          "type": "uint256[]"
        }
      ],
      "stateMutability": "view",
      "type": "function"
    },
    {
      "inputs": [
        {
          "internalType": "uint256",
          "name": "_amount",
          "type": "uint256"
        }
      ],
      "name": "extractTokens",
      "outputs": [],
      "stateMutability": "nonpayable",
      "type": "function"
    },
    {
      "inputs": [],
      "name": "feeRecipient",
      "outputs": [
        {
          "internalType": "address",
          "name": "",
          "type": "address"
        }
      ],
      "stateMutability": "view",
      "type": "function"
    },
    {
      "inputs": [
        {
          "internalType": "uint256",
          "name": "_val",
          "type": "uint256"
        }
      ],
      "name": "freeMint",
      "outputs": [],
      "stateMutability": "nonpayable",
      "type": "function"
    },
    {
      "inputs": [],
      "name": "hasMintRestrictions",
      "outputs": [
        {
          "internalType": "bool",
          "name": "",
          "type": "bool"
        }
      ],
      "stateMutability": "view",
      "type": "function"
    },
    {
      "inputs": [
        {
          "internalType": "address",
          "name": "spender",
          "type": "address"
        },
        {
          "internalType": "uint256",
          "name": "addedValue",
          "type": "uint256"
        }
      ],
      "name": "increaseAllowance",
      "outputs": [
        {
          "internalType": "bool",
          "name": "",
          "type": "bool"
        }
      ],
      "stateMutability": "nonpayable",
      "type": "function"
    },
    {
      "inputs": [],
      "name": "isStakingPaused",
      "outputs": [
        {
          "internalType": "bool",
          "name": "",
          "type": "bool"
        }
      ],
      "stateMutability": "pure",
      "type": "function"
    },
    {
      "inputs": [],
      "name": "mintLimit",
      "outputs": [
        {
          "internalType": "uint256",
          "name": "",
          "type": "uint256"
        }
      ],
      "stateMutability": "view",
      "type": "function"
    },
    {
      "inputs": [
        {
          "internalType": "address",
          "name": "_to",
          "type": "address"
        },
        {
          "internalType": "uint256",
          "name": "_amount",
          "type": "uint256"
        }
      ],
      "name": "mintTo",
      "outputs": [],
      "stateMutability": "nonpayable",
      "type": "function"
    },
    {
      "inputs": [
        {
          "internalType": "address",
          "name": "",
          "type": "address"
        }
      ],
      "name": "mintedAt",
      "outputs": [
        {
          "internalType": "uint256",
          "name": "",
          "type": "uint256"
        }
      ],
      "stateMutability": "view",
      "type": "function"
    },
    {
      "inputs": [],
      "name": "name",
      "outputs": [
        {
          "internalType": "string",
          "name": "",
          "type": "string"
        }
      ],
      "stateMutability": "view",
      "type": "function"
    },
    {
      "inputs": [
        {
          "internalType": "address",
          "name": "owner",
          "type": "address"
        }
      ],
      "name": "nonces",
      "outputs": [
        {
          "internalType": "uint256",
          "name": "",
          "type": "uint256"
        }
      ],
      "stateMutability": "view",
      "type": "function"
    },
    {
      "inputs": [],
      "name": "owner",
      "outputs": [
        {
          "internalType": "address",
          "name": "",
          "type": "address"
        }
      ],
      "stateMutability": "view",
      "type": "function"
    },
    {
      "inputs": [
        {
          "internalType": "address",
          "name": "owner",
          "type": "address"
        },
        {
          "internalType": "address",
          "name": "spender",
          "type": "address"
        },
        {
          "internalType": "uint256",
          "name": "value",
          "type": "uint256"
        },
        {
          "internalType": "uint256",
          "name": "deadline",
          "type": "uint256"
        },
        {
          "internalType": "uint8",
          "name": "v",
          "type": "uint8"
        },
        {
          "internalType": "bytes32",
          "name": "r",
          "type": "bytes32"
        },
        {
          "internalType": "bytes32",
          "name": "s",
          "type": "bytes32"
        }
      ],
      "name": "permit",
      "outputs": [],
      "stateMutability": "nonpayable",
      "type": "function"
    },
    {
      "inputs": [],
      "name": "renounceOwnership",
      "outputs": [],
      "stateMutability": "nonpayable",
      "type": "function"
    },
    {
      "inputs": [
        {
          "internalType": "address",
          "name": "_feeRecipient",
          "type": "address"
        }
      ],
      "name": "setFeeRecipient",
      "outputs": [],
      "stateMutability": "nonpayable",
      "type": "function"
    },
    {
      "inputs": [
        {
          "internalType": "uint32",
          "name": "_fee",
          "type": "uint32"
        }
      ],
      "name": "setTransferFee",
      "outputs": [],
      "stateMutability": "nonpayable",
      "type": "function"
    },
    {
      "inputs": [
        {
          "internalType": "address",
          "name": "",
          "type": "address"
        }
      ],
      "name": "submit",
      "outputs": [
        {
          "internalType": "uint256",
          "name": "",
          "type": "uint256"
        }
      ],
      "stateMutability": "payable",
      "type": "function"
    },
    {
      "inputs": [],
      "name": "symbol",
      "outputs": [
        {
          "internalType": "string",
          "name": "",
          "type": "string"
        }
      ],
      "stateMutability": "view",
      "type": "function"
    },
    {
      "inputs": [],
      "name": "toggleRestrictions",
      "outputs": [],
      "stateMutability": "nonpayable",
      "type": "function"
    },
    {
      "inputs": [],
      "name": "totalSupply",
      "outputs": [
        {
          "internalType": "uint256",
          "name": "",
          "type": "uint256"
        }
      ],
      "stateMutability": "view",
      "type": "function"
    },
    {
      "inputs": [
        {
          "internalType": "address",
          "name": "recipient",
          "type": "address"
        },
        {
          "internalType": "uint256",
          "name": "amount",
          "type": "uint256"
        }
      ],
      "name": "transfer",
      "outputs": [
        {
          "internalType": "bool",
          "name": "",
          "type": "bool"
        }
      ],
      "stateMutability": "nonpayable",
      "type": "function"
    },
    {
      "inputs": [],
      "name": "transferFee",
      "outputs": [
        {
          "internalType": "uint32",
          "name": "",
          "type": "uint32"
        }
      ],
      "stateMutability": "view",
      "type": "function"
    },
    {
      "inputs": [
        {
          "internalType": "address",
          "name": "sender",
          "type": "address"
        },
        {
          "internalType": "address",
          "name": "recipient",
          "type": "address"
        },
        {
          "internalType": "uint256",
          "name": "amount",
          "type": "uint256"
        }
      ],
      "name": "transferFrom",
      "outputs": [
        {
          "internalType": "bool",
          "name": "",
          "type": "bool"
        }
      ],
      "stateMutability": "nonpayable",
      "type": "function"
    },
    {
      "inputs": [
        {
          "internalType": "address",
          "name": "newOwner",
          "type": "address"
        }
      ],
      "name": "transferOwnership",
      "outputs": [],
      "stateMutability": "nonpayable",
      "type": "function"
    },
    {
      "inputs": [
        {
          "internalType": "uint256",
          "name": "_newVal",
          "type": "uint256"
        }
      ],
      "name": "updateMintLimit",
      "outputs": [],
      "stateMutability": "nonpayable",
      "type": "function"
    },
    {
      "inputs": [
        {
          "internalType": "uint256",
          "name": "wad",
          "type": "uint256"
        }
      ],
      "name": "withdraw",
      "outputs": [],
      "stateMutability": "nonpayable",
      "type": "function"
    },
    {
      "stateMutability": "payable",
      "type": "receive"
    }
  ],
  "bytecode": "0x610160604052600c8054600160301b600160d01b03191690553480156200002557600080fd5b50604051620026ce380380620026ce83398101604081905262000048916200049d565b6040518060400160405280600981526020016853744574684d6f636b60b81b8152506040518060400160405280600681526020016553544554484d60d01b815250826012338480604051806040016040528060018152602001603160f81b81525087878160039081620000bc91906200055b565b506004620000cb82826200055b565b505050620000e96005836200020c60201b62000eb71790919060201c565b61012052620001068160066200020c602090811b62000eb717901c565b61014052815160208084019190912060e052815190820120610100524660a0526200019460e05161010051604080517f8b73c3c69bb8fe3d512ecc4cf759cc79239f7b179b0ffacaa9a75d522b39400f60208201529081019290925260608201524660808201523060a082015260009060c00160405160208183030381529060405280519060200120905090565b60805250503060c05250620001a9336200025c565b600c805460ff191660ff8416908117909155620001c890600a6200073a565b620001d6906103e862000752565b600b55620001e481620002ae565b620001f0308462000331565b5050600c805461ff00191661010017905550620007f792505050565b60006020835110156200022c576200022483620003f4565b905062000256565b8262000243836200043760201b62000ee81760201c565b906200025090826200055b565b5060ff90505b92915050565b600980546001600160a01b038381166001600160a01b0319831681179093556040519116919082907f8be0079c531659141344cd1fd0a4f28419497f9722a3daafe3b4186f6b6457e090600090a35050565b620002b86200043a565b6001600160a01b038116620003235760405162461bcd60e51b815260206004820152602660248201527f4f776e61626c653a206e6577206f776e657220697320746865207a65726f206160448201526564647265737360d01b60648201526084015b60405180910390fd5b6200032e816200025c565b50565b6001600160a01b038216620003895760405162461bcd60e51b815260206004820152601f60248201527f45524332303a206d696e7420746f20746865207a65726f20616464726573730060448201526064016200031a565b80600260008282546200039d91906200076c565b90915550506001600160a01b038216600081815260208181526040808320805486019055518481527fddf252ad1be2c89b69c2b068fc378daa952ba7f163c4a11628f55a4df523b3ef910160405180910390a35050565b600080829050601f8151111562000422578260405163305a27a960e01b81526004016200031a919062000782565b80516200042f82620007d2565b179392505050565b90565b6009546001600160a01b03163314620004965760405162461bcd60e51b815260206004820181905260248201527f4f776e61626c653a2063616c6c6572206973206e6f7420746865206f776e657260448201526064016200031a565b565b505050565b600060208284031215620004b057600080fd5b5051919050565b634e487b7160e01b600052604160045260246000fd5b600181811c90821680620004e257607f821691505b6020821081036200050357634e487b7160e01b600052602260045260246000fd5b50919050565b601f8211156200049857600081815260208120601f850160051c81016020861015620005325750805b601f850160051c820191505b8181101562000553578281556001016200053e565b505050505050565b81516001600160401b03811115620005775762000577620004b7565b6200058f81620005888454620004cd565b8462000509565b602080601f831160018114620005c75760008415620005ae5750858301515b600019600386901b1c1916600185901b17855562000553565b600085815260208120601f198616915b82811015620005f857888601518255948401946001909101908401620005d7565b5085821015620006175787850151600019600388901b60f8161c191681555b5050505050600190811b01905550565b634e487b7160e01b600052601160045260246000fd5b600181815b808511156200067e57816000190482111562000662576200066262000627565b808516156200067057918102915b93841c939080029062000642565b509250929050565b600082620006975750600162000256565b81620006a65750600062000256565b8160018114620006bf5760028114620006ca57620006ea565b600191505062000256565b60ff841115620006de57620006de62000627565b50506001821b62000256565b5060208310610133831016604e8410600b84101617156200070f575081810a62000256565b6200071b83836200063d565b806000190482111562000732576200073262000627565b029392505050565b60006200074b60ff84168362000686565b9392505050565b808202811582820484141762000256576200025662000627565b8082018082111562000256576200025662000627565b600060208083528351808285015260005b81811015620007b15785810183015185820160400152820162000793565b506000604082860101526040601f19601f8301168501019250505092915050565b80516020808301519190811015620005035760001960209190910360031b1b16919050565b60805160a05160c05160e051610100516101205161014051611e7c620008526000396000610ab001526000610a850152600061149101526000611469015260006113c4015260006113ee015260006114180152611e7c6000f3fe6080604052600436106102085760003560e01c80637c928fe911610118578063acb2ad6f116100a0578063d6b5a2db1161006f578063d6b5a2db146105e1578063dd62ed3e14610601578063e01d55c514610621578063e74b981b14610641578063f2fde38b1461066157600080fd5b8063acb2ad6f14610562578063d0e30db01461059a578063d4a744ba146105a2578063d505accf146105c157600080fd5b806395d89b41116100e757806395d89b41146104e4578063996517cf146104f9578063a1903eab1461050f578063a457c2d714610522578063a9059cbb1461054257600080fd5b80637c928fe91461045e5780637ecebe001461047e57806384b0196e1461049e5780638da5cb5b146104c657600080fd5b80632e1a7d4d1161019b578063395093511161016a5780633950935114610394578063449a52f8146103b457806346904840146103d457806370a0823114610413578063715018a61461044957600080fd5b80632e1a7d4d1461031d5780632e9ef9761461033d578063313ce5671461035d5780633644e5151461037f57600080fd5b80631ea7ca89116101d75780631ea7ca89146102a557806321442ec9146102b957806322ae81af146102e657806323b872dd146102fd57600080fd5b806306fdde0314610214578063095ea7b31461023f57806318160ddd1461026f5780631d0dc2671461028e57600080fd5b3661020f57005b600080fd5b34801561022057600080fd5b50610229610681565b6040516102369190611a0d565b60405180910390f35b34801561024b57600080fd5b5061025f61025a366004611a43565b610713565b6040519015158152602001610236565b34801561027b57600080fd5b506002545b604051908152602001610236565b34801561029a57600080fd5b506102a361072d565b005b3480156102b157600080fd5b50600061025f565b3480156102c557600080fd5b506102806102d4366004611a6d565b600a6020526000908152604090205481565b3480156102f257600080fd5b506102806201518081565b34801561030957600080fd5b5061025f610318366004611a88565b610752565b34801561032957600080fd5b506102a3610338366004611ac4565b6107d8565b34801561034957600080fd5b506102a3610358366004611add565b610894565b34801561036957600080fd5b50600c5460405160ff9091168152602001610236565b34801561038b57600080fd5b50610280610918565b3480156103a057600080fd5b5061025f6103af366004611a43565b610927565b3480156103c057600080fd5b506102a36103cf366004611a43565b610949565b3480156103e057600080fd5b50600c546103fb90600160301b90046001600160a01b031681565b6040516001600160a01b039091168152602001610236565b34801561041f57600080fd5b5061028061042e366004611a6d565b6001600160a01b031660009081526020819052604090205490565b34801561045557600080fd5b506102a361095f565b34801561046a57600080fd5b506102a3610479366004611ac4565b610973565b34801561048a57600080fd5b50610280610499366004611a6d565b610a59565b3480156104aa57600080fd5b506104b3610a77565b6040516102369796959493929190611b03565b3480156104d257600080fd5b506009546001600160a01b03166103fb565b3480156104f057600080fd5b50610229610b00565b34801561050557600080fd5b50610280600b5481565b61028061051d366004611a6d565b610b0f565b34801561052e57600080fd5b5061025f61053d366004611a43565b610b2c565b34801561054e57600080fd5b5061025f61055d366004611a43565b610bb2565b34801561056e57600080fd5b50600c546105859062010000900463ffffffff1681565b60405163ffffffff9091168152602001610236565b6102a3610c1a565b3480156105ae57600080fd5b50600c5461025f90610100900460ff1681565b3480156105cd57600080fd5b506102a36105dc366004611b99565b610c5b565b3480156105ed57600080fd5b506102a36105fc366004611ac4565b610dbf565b34801561060d57600080fd5b5061028061061c366004611c0c565b610dd2565b34801561062d57600080fd5b506102a361063c366004611ac4565b610dfd565b34801561064d57600080fd5b506102a361065c366004611a6d565b610e0a565b34801561066d57600080fd5b506102a361067c366004611a6d565b610e41565b60606003805461069090611c3f565b80601f01602080910402602001604051908101604052809291908181526020018280546106bc90611c3f565b80156107095780601f106106de57610100808354040283529160200191610709565b820191906000526020600020905b8154815290600101906020018083116106ec57829003601f168201915b5050505050905090565b600033610721818585610eeb565b60019150505b92915050565b610735611010565b600c805461ff001981166101009182900460ff1615909102179055565b600c546000908190620186a0906107759062010000900463ffffffff1685611c89565b61077f9190611ca0565b9050600061078d8285611cc2565b90503361079b87828461106a565b6107a68787846110e4565b82156107cb57600c546107cb908890600160301b90046001600160a01b0316856110e4565b5060019695505050505050565b336000908152602081905260409020548111156108245760405162461bcd60e51b815260206004820152600560248201526422b93937b960d91b60448201526064015b60405180910390fd5b61082e3382611288565b604051339082156108fc029083906000818181858888f1935050505015801561085b573d6000803e3d6000fd5b5060405181815233907f7fcf532c15f0a6db0bd6d0e038bea71d30d808c7d98cb3bf7268a95bf5081b659060200160405180910390a250565b61089c611010565b620186a063ffffffff8216106108f45760405162461bcd60e51b815260206004820152601760248201527f45524332304d6f636b3a2066656520746f6f2068696768000000000000000000604482015260640161081b565b600c805463ffffffff909216620100000265ffffffff000019909216919091179055565b60006109226113b7565b905090565b60003361072181858561093a8383610dd2565b6109449190611cd5565b610eeb565b610951611010565b61095b82826114e2565b5050565b610967611010565b61097160006115a1565b565b600c54610100900460ff1615610a3a57600b548111156109d55760405162461bcd60e51b815260206004820152601960248201527f45524332304d6f636b3a20616d6f756e7420746f6f2062696700000000000000604482015260640161081b565b336000908152600a602052604090205442906109f5906201518090611cd5565b1115610a3a5760405162461bcd60e51b815260206004820152601460248201527345524332304d6f636b3a20746f6f206561726c7960601b604482015260640161081b565b336000818152600a60205260409020429055610a5690826114e2565b50565b6001600160a01b038116600090815260076020526040812054610727565b600060608082808083610aab7f000000000000000000000000000000000000000000000000000000000000000060056115f3565b610ad67f000000000000000000000000000000000000000000000000000000000000000060066115f3565b60408051600080825260208201909252600f60f81b9b939a50919850469750309650945092509050565b60606004805461069090611c3f565b6000610b1a34610973565b610b243334610bb2565b503492915050565b60003381610b3a8286610dd2565b905083811015610b9a5760405162461bcd60e51b815260206004820152602560248201527f45524332303a2064656372656173656420616c6c6f77616e63652062656c6f77604482015264207a65726f60d81b606482015260840161081b565b610ba78286868403610eeb565b506001949350505050565b600c546000908190620186a090610bd59062010000900463ffffffff1685611c89565b610bdf9190611ca0565b9050610bf53385610bf08487611cc2565b6110e4565b801561072157600c54610721903390600160301b90046001600160a01b0316836110e4565b610c2433346114e2565b60405134815233907fe1fffcc4923d04b559f4d29a8bfc6cda04eb5b0d3c460751c2402c5c5cc9109c9060200160405180910390a2565b83421115610cab5760405162461bcd60e51b815260206004820152601d60248201527f45524332305065726d69743a206578706972656420646561646c696e65000000604482015260640161081b565b60007f6e71edae12b1b97f4d1f60370fef10105fa2faae0126114a169c64845d6126c9888888610cda8c611697565b6040805160208101969096526001600160a01b0394851690860152929091166060840152608083015260a082015260c0810186905260e0016040516020818303038152906040528051906020012090506000610d35826116bf565b90506000610d45828787876116ec565b9050896001600160a01b0316816001600160a01b031614610da85760405162461bcd60e51b815260206004820152601e60248201527f45524332305065726d69743a20696e76616c6964207369676e61747572650000604482015260640161081b565b610db38a8a8a610eeb565b50505050505050505050565b610dc7611010565b610a563033836110e4565b6001600160a01b03918216600090815260016020908152604080832093909416825291909152205490565b610e05611010565b600b55565b610e12611010565b600c80546001600160a01b03909216600160301b026601000000000000600160d01b0319909216919091179055565b610e49611010565b6001600160a01b038116610eae5760405162461bcd60e51b815260206004820152602660248201527f4f776e61626c653a206e6577206f776e657220697320746865207a65726f206160448201526564647265737360d01b606482015260840161081b565b610a56816115a1565b6000602083511015610ed357610ecc83611714565b9050610727565b81610ede8482611d4c565b5060ff9050610727565b90565b6001600160a01b038316610f4d5760405162461bcd60e51b8152602060048201526024808201527f45524332303a20617070726f76652066726f6d20746865207a65726f206164646044820152637265737360e01b606482015260840161081b565b6001600160a01b038216610fae5760405162461bcd60e51b815260206004820152602260248201527f45524332303a20617070726f766520746f20746865207a65726f206164647265604482015261737360f01b606482015260840161081b565b6001600160a01b0383811660008181526001602090815260408083209487168084529482529182902085905590518481527f8c5be1e5ebec7d5bd14f71427d1e84f3dd0314c0f7b2291e5b200ac8c7c3b92591015b60405180910390a3505050565b6009546001600160a01b031633146109715760405162461bcd60e51b815260206004820181905260248201527f4f776e61626c653a2063616c6c6572206973206e6f7420746865206f776e6572604482015260640161081b565b60006110768484610dd2565b905060001981146110de57818110156110d15760405162461bcd60e51b815260206004820152601d60248201527f45524332303a20696e73756666696369656e7420616c6c6f77616e6365000000604482015260640161081b565b6110de8484848403610eeb565b50505050565b6001600160a01b0383166111485760405162461bcd60e51b815260206004820152602560248201527f45524332303a207472616e736665722066726f6d20746865207a65726f206164604482015264647265737360d81b606482015260840161081b565b6001600160a01b0382166111aa5760405162461bcd60e51b815260206004820152602360248201527f45524332303a207472616e7366657220746f20746865207a65726f206164647260448201526265737360e81b606482015260840161081b565b6001600160a01b038316600090815260208190526040902054818110156112225760405162461bcd60e51b815260206004820152602660248201527f45524332303a207472616e7366657220616d6f756e7420657863656564732062604482015265616c616e636560d01b606482015260840161081b565b6001600160a01b03848116600081815260208181526040808320878703905593871680835291849020805487019055925185815290927fddf252ad1be2c89b69c2b068fc378daa952ba7f163c4a11628f55a4df523b3ef910160405180910390a36110de565b6001600160a01b0382166112e85760405162461bcd60e51b815260206004820152602160248201527f45524332303a206275726e2066726f6d20746865207a65726f206164647265736044820152607360f81b606482015260840161081b565b6001600160a01b0382166000908152602081905260409020548181101561135c5760405162461bcd60e51b815260206004820152602260248201527f45524332303a206275726e20616d6f756e7420657863656564732062616c616e604482015261636560f01b606482015260840161081b565b6001600160a01b0383166000818152602081815260408083208686039055600280548790039055518581529192917fddf252ad1be2c89b69c2b068fc378daa952ba7f163c4a11628f55a4df523b3ef9101611003565b505050565b6000306001600160a01b037f00000000000000000000000000000000000000000000000000000000000000001614801561141057507f000000000000000000000000000000000000000000000000000000000000000046145b1561143a57507f000000000000000000000000000000000000000000000000000000000000000090565b610922604080517f8b73c3c69bb8fe3d512ecc4cf759cc79239f7b179b0ffacaa9a75d522b39400f60208201527f0000000000000000000000000000000000000000000000000000000000000000918101919091527f000000000000000000000000000000000000000000000000000000000000000060608201524660808201523060a082015260009060c00160405160208183030381529060405280519060200120905090565b6001600160a01b0382166115385760405162461bcd60e51b815260206004820152601f60248201527f45524332303a206d696e7420746f20746865207a65726f206164647265737300604482015260640161081b565b806002600082825461154a9190611cd5565b90915550506001600160a01b038216600081815260208181526040808320805486019055518481527fddf252ad1be2c89b69c2b068fc378daa952ba7f163c4a11628f55a4df523b3ef910160405180910390a35050565b600980546001600160a01b038381166001600160a01b0319831681179093556040519116919082907f8be0079c531659141344cd1fd0a4f28419497f9722a3daafe3b4186f6b6457e090600090a35050565b606060ff831461160657610ecc83611752565b81805461161290611c3f565b80601f016020809104026020016040519081016040528092919081815260200182805461163e90611c3f565b801561168b5780601f106116605761010080835404028352916020019161168b565b820191906000526020600020905b81548152906001019060200180831161166e57829003601f168201915b50505050509050610727565b6001600160a01b03811660009081526007602052604090208054600181018255905b50919050565b60006107276116cc6113b7565b8360405161190160f01b8152600281019290925260228201526042902090565b60008060006116fd87878787611791565b9150915061170a81611855565b5095945050505050565b600080829050601f8151111561173f578260405163305a27a960e01b815260040161081b9190611a0d565b805161174a82611e0c565b179392505050565b6060600061175f8361199f565b604080516020808252818301909252919250600091906020820181803683375050509182525060208101929092525090565b6000807f7fffffffffffffffffffffffffffffff5d576e7357a4501ddfe92f46681b20a08311156117c8575060009050600361184c565b6040805160008082526020820180845289905260ff881692820192909252606081018690526080810185905260019060a0016020604051602081039080840390855afa15801561181c573d6000803e3d6000fd5b5050604051601f1901519150506001600160a01b0381166118455760006001925092505061184c565b9150600090505b94509492505050565b600081600481111561186957611869611e30565b036118715750565b600181600481111561188557611885611e30565b036118d25760405162461bcd60e51b815260206004820152601860248201527f45434453413a20696e76616c6964207369676e61747572650000000000000000604482015260640161081b565b60028160048111156118e6576118e6611e30565b036119335760405162461bcd60e51b815260206004820152601f60248201527f45434453413a20696e76616c6964207369676e6174757265206c656e67746800604482015260640161081b565b600381600481111561194757611947611e30565b03610a565760405162461bcd60e51b815260206004820152602260248201527f45434453413a20696e76616c6964207369676e6174757265202773272076616c604482015261756560f01b606482015260840161081b565b600060ff8216601f81111561072757604051632cd44ac360e21b815260040160405180910390fd5b6000815180845260005b818110156119ed576020818501810151868301820152016119d1565b506000602082860101526020601f19601f83011685010191505092915050565b602081526000611a2060208301846119c7565b9392505050565b80356001600160a01b0381168114611a3e57600080fd5b919050565b60008060408385031215611a5657600080fd5b611a5f83611a27565b946020939093013593505050565b600060208284031215611a7f57600080fd5b611a2082611a27565b600080600060608486031215611a9d57600080fd5b611aa684611a27565b9250611ab460208501611a27565b9150604084013590509250925092565b600060208284031215611ad657600080fd5b5035919050565b600060208284031215611aef57600080fd5b813563ffffffff81168114611a2057600080fd5b60ff60f81b881681526000602060e081840152611b2360e084018a6119c7565b8381036040850152611b35818a6119c7565b606085018990526001600160a01b038816608086015260a0850187905284810360c0860152855180825283870192509083019060005b81811015611b8757835183529284019291840191600101611b6b565b50909c9b505050505050505050505050565b600080600080600080600060e0888a031215611bb457600080fd5b611bbd88611a27565b9650611bcb60208901611a27565b95506040880135945060608801359350608088013560ff81168114611bef57600080fd5b9699959850939692959460a0840135945060c09093013592915050565b60008060408385031215611c1f57600080fd5b611c2883611a27565b9150611c3660208401611a27565b90509250929050565b600181811c90821680611c5357607f821691505b6020821081036116b957634e487b7160e01b600052602260045260246000fd5b634e487b7160e01b600052601160045260246000fd5b808202811582820484141761072757610727611c73565b600082611cbd57634e487b7160e01b600052601260045260246000fd5b500490565b8181038181111561072757610727611c73565b8082018082111561072757610727611c73565b634e487b7160e01b600052604160045260246000fd5b601f8211156113b257600081815260208120601f850160051c81016020861015611d255750805b601f850160051c820191505b81811015611d4457828155600101611d31565b505050505050565b815167ffffffffffffffff811115611d6657611d66611ce8565b611d7a81611d748454611c3f565b84611cfe565b602080601f831160018114611daf5760008415611d975750858301515b600019600386901b1c1916600185901b178555611d44565b600085815260208120601f198616915b82811015611dde57888601518255948401946001909101908401611dbf565b5085821015611dfc5787850151600019600388901b60f8161c191681555b5050505050600190811b01905550565b805160208083015191908110156116b95760001960209190910360031b1b16919050565b634e487b7160e01b600052602160045260246000fdfea2646970667358221220f5ab9ea3692140b4f0029129e3895c01b2635eca410c13ee6c7f93f701da955864736f6c63430008120033",
  "linkReferences": {},
  "deployedLinkReferences": {}
}