{
  "_format": "hh-sol-artifact-1",
  "contractName": "TricryptoLPGetter",
  "sourceName": "contracts/curve/TricryptoLPGetter.sol",
  "abi": [
    {
      "inputs": [
        {
          "internalType": "address",
          "name": "_liquidityPool",
          "type": "address"
        },
        {
          "internalType": "address",
          "name": "_usdt",
          "type": "address"
        },
        {
          "internalType": "address",
          "name": "_wbtc",
          "type": "address"
        },
        {
          "internalType": "address",
          "name": "_weth",
          "type": "address"
        }
      ],
      "stateMutability": "nonpayable",
      "type": "constructor"
    },
    {
      "anonymous": false,
      "inputs": [
        {
          "indexed": true,
          "internalType": "address",
          "name": "token",
          "type": "address"
        },
        {
          "indexed": false,
          "internalType": "uint256",
          "name": "amount",
          "type": "uint256"
        },
        {
          "indexed": false,
          "internalType": "uint256",
          "name": "obtainedLP",
          "type": "uint256"
        }
      ],
      "name": "AddedLiquidity",
      "type": "event"
    },
    {
      "anonymous": false,
      "inputs": [
        {
          "indexed": true,
          "internalType": "address",
          "name": "previousOwner",
          "type": "address"
        },
        {
          "indexed": true,
          "internalType": "address",
          "name": "newOwner",
          "type": "address"
        }
      ],
      "name": "OwnershipTransferred",
      "type": "event"
    },
    {
      "anonymous": false,
      "inputs": [
        {
          "indexed": true,
          "internalType": "address",
          "name": "token",
          "type": "address"
        },
        {
          "indexed": false,
          "internalType": "uint256",
          "name": "amountLP",
          "type": "uint256"
        },
        {
          "indexed": false,
          "internalType": "uint256",
          "name": "obtainedAssets",
          "type": "uint256"
        }
      ],
      "name": "RemovedLiquidity",
      "type": "event"
    },
    {
      "inputs": [],
      "name": "USDT",
      "outputs": [
        {
          "internalType": "address",
          "name": "",
          "type": "address"
        }
      ],
      "stateMutability": "view",
      "type": "function"
    },
    {
      "inputs": [],
      "name": "WBTC",
      "outputs": [
        {
          "internalType": "address",
          "name": "",
          "type": "address"
        }
      ],
      "stateMutability": "view",
      "type": "function"
    },
    {
      "inputs": [],
      "name": "WETH",
      "outputs": [
        {
          "internalType": "address",
          "name": "",
          "type": "address"
        }
      ],
      "stateMutability": "view",
      "type": "function"
    },
    {
      "inputs": [
        {
          "internalType": "uint256",
          "name": "_amount",
          "type": "uint256"
        },
        {
          "internalType": "uint256",
          "name": "_minAmount",
          "type": "uint256"
        }
      ],
      "name": "addLiquidityUsdt",
      "outputs": [
        {
          "internalType": "uint256",
          "name": "",
          "type": "uint256"
        }
      ],
      "stateMutability": "nonpayable",
      "type": "function"
    },
    {
      "inputs": [
        {
          "internalType": "uint256",
          "name": "_amount",
          "type": "uint256"
        },
        {
          "internalType": "uint256",
          "name": "_minAmount",
          "type": "uint256"
        }
      ],
      "name": "addLiquidityWbtc",
      "outputs": [
        {
          "internalType": "uint256",
          "name": "",
          "type": "uint256"
        }
      ],
      "stateMutability": "nonpayable",
      "type": "function"
    },
    {
      "inputs": [
        {
          "internalType": "uint256",
          "name": "_amount",
          "type": "uint256"
        },
        {
          "internalType": "uint256",
          "name": "_minAmount",
          "type": "uint256"
        }
      ],
      "name": "addLiquidityWeth",
      "outputs": [
        {
          "internalType": "uint256",
          "name": "",
          "type": "uint256"
        }
      ],
      "stateMutability": "nonpayable",
      "type": "function"
    },
    {
      "inputs": [
        {
          "internalType": "uint256",
          "name": "_lpAmount",
          "type": "uint256"
        }
      ],
      "name": "calcLpToUsdt",
      "outputs": [
        {
          "internalType": "uint256",
          "name": "",
          "type": "uint256"
        }
      ],
      "stateMutability": "view",
      "type": "function"
    },
    {
      "inputs": [
        {
          "internalType": "uint256",
          "name": "_lpAmount",
          "type": "uint256"
        }
      ],
      "name": "calcLpToWbtc",
      "outputs": [
        {
          "internalType": "uint256",
          "name": "",
          "type": "uint256"
        }
      ],
      "stateMutability": "view",
      "type": "function"
    },
    {
      "inputs": [
        {
          "internalType": "uint256",
          "name": "_lpAmount",
          "type": "uint256"
        }
      ],
      "name": "calcLpToWeth",
      "outputs": [
        {
          "internalType": "uint256",
          "name": "",
          "type": "uint256"
        }
      ],
      "stateMutability": "view",
      "type": "function"
    },
    {
      "inputs": [
        {
          "internalType": "uint256",
          "name": "_amount",
          "type": "uint256"
        }
      ],
      "name": "calcUsdtToLp",
      "outputs": [
        {
          "internalType": "uint256",
          "name": "",
          "type": "uint256"
        }
      ],
      "stateMutability": "view",
      "type": "function"
    },
    {
      "inputs": [
        {
          "internalType": "uint256",
          "name": "_amount",
          "type": "uint256"
        }
      ],
      "name": "calcWbtcToLp",
      "outputs": [
        {
          "internalType": "uint256",
          "name": "",
          "type": "uint256"
        }
      ],
      "stateMutability": "view",
      "type": "function"
    },
    {
      "inputs": [
        {
          "internalType": "uint256",
          "name": "_amount",
          "type": "uint256"
        }
      ],
      "name": "calcWethToLp",
      "outputs": [
        {
          "internalType": "uint256",
          "name": "",
          "type": "uint256"
        }
      ],
      "stateMutability": "view",
      "type": "function"
    },
    {
      "inputs": [],
      "name": "claimOwnership",
      "outputs": [],
      "stateMutability": "nonpayable",
      "type": "function"
    },
    {
      "inputs": [],
      "name": "liquidityPool",
      "outputs": [
        {
          "internalType": "contract ITricryptoLiquidityPool",
          "name": "",
          "type": "address"
        }
      ],
      "stateMutability": "view",
      "type": "function"
    },
    {
      "inputs": [],
      "name": "lpToken",
      "outputs": [
        {
          "internalType": "contract IERC20",
          "name": "",
          "type": "address"
        }
      ],
      "stateMutability": "view",
      "type": "function"
    },
    {
      "inputs": [],
      "name": "owner",
      "outputs": [
        {
          "internalType": "address",
          "name": "",
          "type": "address"
        }
      ],
      "stateMutability": "view",
      "type": "function"
    },
    {
      "inputs": [],
      "name": "pendingOwner",
      "outputs": [
        {
          "internalType": "address",
          "name": "",
          "type": "address"
        }
      ],
      "stateMutability": "view",
      "type": "function"
    },
    {
      "inputs": [
        {
          "internalType": "uint256",
          "name": "_amount",
          "type": "uint256"
        },
        {
          "internalType": "uint256",
          "name": "_minAmount",
          "type": "uint256"
        }
      ],
      "name": "removeLiquidityUsdt",
      "outputs": [
        {
          "internalType": "uint256",
          "name": "",
          "type": "uint256"
        }
      ],
      "stateMutability": "nonpayable",
      "type": "function"
    },
    {
      "inputs": [
        {
          "internalType": "uint256",
          "name": "_amount",
          "type": "uint256"
        },
        {
          "internalType": "uint256",
          "name": "_minAmount",
          "type": "uint256"
        }
      ],
      "name": "removeLiquidityWbtc",
      "outputs": [
        {
          "internalType": "uint256",
          "name": "",
          "type": "uint256"
        }
      ],
      "stateMutability": "nonpayable",
      "type": "function"
    },
    {
      "inputs": [
        {
          "internalType": "uint256",
          "name": "_amount",
          "type": "uint256"
        },
        {
          "internalType": "uint256",
          "name": "_minAmount",
          "type": "uint256"
        }
      ],
      "name": "removeLiquidityWeth",
      "outputs": [
        {
          "internalType": "uint256",
          "name": "",
          "type": "uint256"
        }
      ],
      "stateMutability": "nonpayable",
      "type": "function"
    },
    {
      "inputs": [
        {
          "internalType": "address",
          "name": "newOwner",
          "type": "address"
        },
        {
          "internalType": "bool",
          "name": "direct",
          "type": "bool"
        },
        {
          "internalType": "bool",
          "name": "renounce",
          "type": "bool"
        }
      ],
      "name": "transferOwnership",
      "outputs": [],
      "stateMutability": "nonpayable",
      "type": "function"
    }
  ],
  "bytecode": "0x6101008060405234620001bf57608081620017088038038091620000248285620001c4565b833981010312620001bf576200003a81620001fe565b906200004960208201620001fe565b9060206200006860606200006060408501620001fe565b9301620001fe565b91600460018060a01b03199460009533818854161787556040519586948593338a7f8be0079c531659141344cd1fd0a4f28419497f9722a3daafe3b4186f6b6457e08180a3600160025560805260a05260c052600380546001600160a01b03998a16921682179055637e062a3560e11b82525afa918215620001b35780926200016c575b50501660e0526040516114f490816200021482396080518181816105ea01528181610a370152610d4b015260a0518181816101a701528181610795015261090c015260c05181818161049d0152818161065801526106c4015260e05181818161012f01528181610425015281816107f7015281816109bf01526110c60152f35b9091506020823d8211620001aa575b816200018a60209383620001c4565b81010312620001a757506200019f90620001fe565b3880620000ec565b80fd5b3d91506200017b565b604051903d90823e3d90fd5b600080fd5b601f909101601f19168101906001600160401b03821190821017620001e857604052565b634e487b7160e01b600052604160045260246000fd5b51906001600160a01b0382168203620001bf5756fe60406080815260048036101561001457600080fd5b600091823560e01c8063027d6b0114610d0c57806305c43acd14610cd0578063078dfbe714610b6e5780631041bb17146109965780632a2e65461461095b5780633233e9791461093b5780634dede3de146108f75780634e71e0c8146108465780635bd91a3c146108265780635fcbd285146107e2578063665a11ca146107b95780637e6b6fb8146107565780638da5cb5b1461072e5780639df17a68146106f3578063ad5c4648146106af578063af30c87314610688578063b529fe1d14610619578063c54e44eb146105d5578063ca268557146103fc578063e30c3978146103cf5763fe2771bf1461010757600080fd5b346103545761011536610d6f565b939092610120610df2565b819061012d851515610fdc565b7f000000000000000000000000000000000000000000000000000000000000000061015a863033846113d6565b600354855163095ea7b360e01b81526001600160a01b0391821684820190815260208082018a905292939192918391829003604001908290899087165af180156103c557610396575b50807f000000000000000000000000000000000000000000000000000000000000000016938551976370a0823160e01b92838a5230858b015260208a6024818a5afa998a1561038c57839a610358575b506003541690813b1561035457829060648a838b51958694859363f1dc3cc960e01b85528b8501526001602485015260448401525af1801561034a57610338575b5085519182523083830152602082602481885afa93841561032d57936102f3575b5050858211156102b057508261028e6020967f92b2132b4c7f0b698a25a56eb8ab4fa9328d58e875914edaf0b385ee01c3fe7693611033565b9461029a8633866112fd565b81519081528587820152a2600160025551908152f35b606490602085519162461bcd60e51b8352820152601760248201527f52656d6f7665206c6971756964697479206661696c65640000000000000000006044820152fd5b909192506020823d602011610325575b8161031060209383610dd0565b81010312610322575051903880610255565b80fd5b3d9150610303565b8651903d90823e3d90fd5b610343919450610d8a565b8238610234565b87513d84823e3d90fd5b8280fd5b9099506020813d602011610384575b8161037460209383610dd0565b81010312610354575198386101f3565b3d9150610367565b88513d85823e3d90fd5b6103b79060203d6020116103be575b6103af8183610dd0565b81019061101b565b50386101a3565b503d6103a5565b86513d87823e3d90fd5b8382346103f857816003193601126103f85760015490516001600160a01b039091168152602090f35b5080fd5b50346103545761040b36610d6f565b939092610416610df2565b8190610423851515610fdc565b7f0000000000000000000000000000000000000000000000000000000000000000610450863033846113d6565b600354855163095ea7b360e01b81526001600160a01b0391821684820190815260208082018a905292939192918391829003604001908290899087165af180156103c5576105b6575b50807f000000000000000000000000000000000000000000000000000000000000000016938551976370a0823160e01b92838a5230858b015260208a6024818a5afa998a1561038c57839a610582575b506003541690813b1561035457829060648a838b51958694859363f1dc3cc960e01b85528b8501526002602485015260448401525af1801561034a57610338575085519182523083830152602082602481885afa93841561032d57936102f3575050858211156102b057508261028e6020967f92b2132b4c7f0b698a25a56eb8ab4fa9328d58e875914edaf0b385ee01c3fe7693611033565b9099506020813d6020116105ae575b8161059e60209383610dd0565b81010312610354575198386104e9565b3d9150610591565b6105ce9060203d6020116103be576103af8183610dd0565b5038610499565b8382346103f857816003193601126103f857517f00000000000000000000000000000000000000000000000000000000000000006001600160a01b03168152602090f35b8382346103f85761067c60209261062f36610d6f565b9190610639610df2565b84519161064583610db4565b60603684378083528683015280858301527f0000000000000000000000000000000000000000000000000000000000000000611056565b90600160025551908152f35b50823461032257602036600319011261032257506106a860209235610f90565b9051908152f35b8382346103f857816003193601126103f857517f00000000000000000000000000000000000000000000000000000000000000006001600160a01b03168152602090f35b5090346103545760203660031901126103545781516020936106a89261071883610db4565b6060368437818352358583015283820152610e6e565b8382346103f857816003193601126103f857905490516001600160a01b039091168152602090f35b8382346103f85761067c60209261076c36610d6f565b9190610776610df2565b84519161078283610db4565b60603684378083528187840152858301527f0000000000000000000000000000000000000000000000000000000000000000611056565b8382346103f857816003193601126103f85760035490516001600160a01b039091168152602090f35b8382346103f857816003193601126103f857517f00000000000000000000000000000000000000000000000000000000000000006001600160a01b03168152602090f35b50823461032257602036600319011261032257506106a860209235610f44565b50346103545782600319360112610354576001546001600160a01b039290918383169190338390036108b45750508084549384167f8be0079c531659141344cd1fd0a4f28419497f9722a3daafe3b4186f6b6457e08680a36001600160a01b03199283161783551660015580f35b906020606492519162461bcd60e51b8352820152602060248201527f4f776e61626c653a2063616c6c657220213d2070656e64696e67206f776e65726044820152fd5b8382346103f857816003193601126103f857517f00000000000000000000000000000000000000000000000000000000000000006001600160a01b03168152602090f35b50823461032257602036600319011261032257506106a860209235610ef2565b5090346103545760203660031901126103545781516020936106a89261098083610db4565b6060368437358252808583015283820152610e6e565b5034610354576109a536610d6f565b9390926109b0610df2565b81906109bd851515610fdc565b7f00000000000000000000000000000000000000000000000000000000000000006109ea863033846113d6565b600354855163095ea7b360e01b81526001600160a01b0391821684820190815260208082018a905292939192918391829003604001908290899087165af180156103c557610b4f575b50807f000000000000000000000000000000000000000000000000000000000000000016938551976370a0823160e01b92838a5230858b015260208a6024818a5afa998a1561038c57839a610b1b575b506003541690813b1561035457829060648a838b51958694859363f1dc3cc960e01b85528b85015282602485015260448401525af1801561034a57610338575085519182523083830152602082602481885afa93841561032d57936102f3575050858211156102b057508261028e6020967f92b2132b4c7f0b698a25a56eb8ab4fa9328d58e875914edaf0b385ee01c3fe7693611033565b9099506020813d602011610b47575b81610b3760209383610dd0565b8101031261035457519838610a83565b3d9150610b2a565b610b679060203d6020116103be576103af8183610dd0565b5038610a33565b509034610354576060366003190112610354576001600160a01b03918135838116929190839003610ccc576024358015158103610cc857604435908115158203610cc457858754163303610c815715610c6157831590811591610c59575b5015610c1e5750508083549283167f8be0079c531659141344cd1fd0a4f28419497f9722a3daafe3b4186f6b6457e08580a36bffffffffffffffffffffffff60a01b8092161782556001541660015580f35b906020606492519162461bcd60e51b835282015260156024820152744f776e61626c653a207a65726f206164647265737360581b6044820152fd5b905038610bcc565b50505090506bffffffffffffffffffffffff60a01b600154161760015580f35b825162461bcd60e51b8152602081860181905260248201527f4f776e61626c653a2063616c6c6572206973206e6f7420746865206f776e65726044820152606490fd5b8680fd5b8580fd5b8480fd5b509034610354576020366003190112610354576020926106a891835191610cf683610db4565b6060368437808352858301523583820152610e6e565b8382346103f85761067c602092610d2236610d6f565b9190610d2c610df2565b845191610d3883610db4565b60603684378183528087840152858301527f0000000000000000000000000000000000000000000000000000000000000000611056565b6040906003190112610d85576004359060243590565b600080fd5b67ffffffffffffffff8111610d9e57604052565b634e487b7160e01b600052604160045260246000fd5b6060810190811067ffffffffffffffff821117610d9e57604052565b90601f8019910116810190811067ffffffffffffffff821117610d9e57604052565b6002805414610e015760028055565b60405162461bcd60e51b815260206004820152601f60248201527f5265656e7472616e637947756172643a207265656e7472616e742063616c6c006044820152606490fd5b6000915b60038310610e5757505050565b600190825181526020809101920192019190610e4a565b6020610e9d608460018060a01b0360035416936040519485938492633883e11960e01b84526004840190610e46565b600160648301525afa908115610ee657600091610eb8575090565b906020823d8211610ede575b81610ed160209383610dd0565b8101031261032257505190565b3d9150610ec4565b6040513d6000823e3d90fd5b8015610f3e576003546040516327d8462f60e11b8152600481019290925260016024830152602090829060449082906001600160a01b03165afa908115610ee657600091610eb8575090565b50600090565b8015610f3e576003546040516327d8462f60e11b8152600481019290925260006024830152602090829060449082906001600160a01b03165afa908115610ee657600091610eb8575090565b8015610f3e576003546040516327d8462f60e11b8152600481019290925260026024830152602090829060449082906001600160a01b03165afa908115610ee657600091610eb8575090565b15610fe357565b60405162461bcd60e51b815260206004820152601060248201526f105b5bdd5b9d081b9bdd081d985b1a5960821b6044820152606490fd5b90816020910312610d8557518015158103610d855790565b9190820391821161104057565b634e487b7160e01b600052601160045260246000fd5b93929381600093611068821515610fdc565b6001600160a01b0392831694611080833033896113d6565b6003546040805163095ea7b360e01b81529186166001600160a01b03166004830152602482019490945292976020938481604481868c5af180156112b357611296575b507f000000000000000000000000000000000000000000000000000000000000000094808616918a51946370a0823160e01b928387523060048801528787602481885afa96871561128c57869761125d575b5060035416803b15610cc85760848692838f9361114694519687958694634515cef360e01b86526004860190610e46565b60648401525af180156112535790869291611240575b5060248b518094819382523060048301525afa9182156112355791611208575b50818111156111cd57916111b76111c29894927f23e65819fee433cde99868836d19dad84b8569b10a34bc82c501a1f94d72c2dd9694611033565b9788809333906112fd565b8351928352820152a2565b875162461bcd60e51b8152600481018490526014602482015273105919081b1a5c5d5a591a5d1e4819985a5b195960621b6044820152606490fd5b90508281813d831161122e575b61121f8183610dd0565b81010312610d8557513861117c565b503d611215565b8951903d90823e3d90fd5b61124c90949194610d8a565b923861115c565b8b513d86823e3d90fd5b9096508781813d8311611285575b6112758183610dd0565b81010312610cc857519538611115565b503d61126b565b8d513d88823e3d90fd5b6112ac90853d87116103be576103af8183610dd0565b50386110c3565b8a513d85823e3d90fd5b3d156112f8573d9067ffffffffffffffff8211610d9e57604051916112ec601f8201601f191660200184610dd0565b82523d6000602084013e565b606090565b60405163a9059cbb60e01b602082019081526001600160a01b03939093166024820152604480820194909452928352600092839290839061133f606482610dd0565b51926001600160a01b03165af16113546112bd565b816113a7575b501561136257565b60405162461bcd60e51b815260206004820152601c60248201527f426f72696e6745524332303a205472616e73666572206661696c6564000000006044820152606490fd5b80518015925082156113bc575b50503861135a565b6113cf925060208091830101910161101b565b38806113b4565b6040516323b872dd60e01b602082019081526001600160a01b039384166024830152938316604482015260648082019590955293845290929160a0830167ffffffffffffffff811184821017610d9e57600094859485926040525193165af161143d6112bd565b8161148f575b501561144b57565b606460405162461bcd60e51b815260206004820152602060248201527f426f72696e6745524332303a205472616e7366657246726f6d206661696c65646044820152fd5b80518015925082156114a4575b505038611443565b6114b7925060208091830101910161101b565b388061149c56fea2646970667358221220f1999915d06cab0af3754b9c5a21aa345a14b237abb4a654f03fe2dd869837c964736f6c63430008120033",
  "linkReferences": {},
  "deployedLinkReferences": {}
}