{
  "_format": "hh-sol-artifact-1",
  "contractName": "BoringOwnable",
  "sourceName": "@boringcrypto/boring-solidity/contracts/BoringOwnable.sol",
  "abi": [
    {
      "inputs": [],
      "stateMutability": "nonpayable",
      "type": "constructor"
    },
    {
      "anonymous": false,
      "inputs": [
        {
          "indexed": true,
          "internalType": "address",
          "name": "previousOwner",
          "type": "address"
        },
        {
          "indexed": true,
          "internalType": "address",
          "name": "newOwner",
          "type": "address"
        }
      ],
      "name": "OwnershipTransferred",
      "type": "event"
    },
    {
      "inputs": [],
      "name": "claimOwnership",
      "outputs": [],
      "stateMutability": "nonpayable",
      "type": "function"
    },
    {
      "inputs": [],
      "name": "owner",
      "outputs": [
        {
          "internalType": "address",
          "name": "",
          "type": "address"
        }
      ],
      "stateMutability": "view",
      "type": "function"
    },
    {
      "inputs": [],
      "name": "pendingOwner",
      "outputs": [
        {
          "internalType": "address",
          "name": "",
          "type": "address"
        }
      ],
      "stateMutability": "view",
      "type": "function"
    },
    {
      "inputs": [
        {
          "internalType": "address",
          "name": "newOwner",
          "type": "address"
        },
        {
          "internalType": "bool",
          "name": "direct",
          "type": "bool"
        },
        {
          "internalType": "bool",
          "name": "renounce",
          "type": "bool"
        }
      ],
      "name": "transferOwnership",
      "outputs": [],
      "stateMutability": "nonpayable",
      "type": "function"
    }
  ],
  "bytecode": "0x6080806040523461004f57600080546001600160a01b031916339081178255907f8be0079c531659141344cd1fd0a4f28419497f9722a3daafe3b4186f6b6457e08180a36102e690816100558239f35b600080fdfe608080604052600436101561001357600080fd5b600090813560e01c908163078dfbe714610154575080634e71e0c81461009c5780638da5cb5b146100765763e30c39781461004d57600080fd5b3461007357806003193601126100735760206001600160a01b0360015416604051908152f35b80fd5b50346100735780600319360112610073576001600160a01b036020915416604051908152f35b50346100735780600319360112610073576001546001600160a01b0390818116803303610110578084549384167f8be0079c531659141344cd1fd0a4f28419497f9722a3daafe3b4186f6b6457e08680a373ffffffffffffffffffffffffffffffffffffffff199283161783551660015580f35b606460405162461bcd60e51b815260206004820152602060248201527f4f776e61626c653a2063616c6c657220213d2070656e64696e67206f776e65726044820152fd5b9050346102ac5760603660031901126102ac576004356001600160a01b03918282168092036102a85760243580151581036102a4576044359182151583036102a05784865416330361025e5750156102475781159081159161023f575b50156101fa578083549283167f8be0079c531659141344cd1fd0a4f28419497f9722a3daafe3b4186f6b6457e08580a36001600160a01b03198092161782556001541660015580f35b60405162461bcd60e51b815260206004820152601560248201527f4f776e61626c653a207a65726f206164647265737300000000000000000000006044820152606490fd5b9050386101b1565b5090506001600160a01b0319600154161760015580f35b62461bcd60e51b815260206004820181905260248201527f4f776e61626c653a2063616c6c6572206973206e6f7420746865206f776e65726044820152606490fd5b8580fd5b8480fd5b8380fd5b5080fdfea2646970667358221220cc5b1b4e8f306c37fda65acf8b51b172d4955c1192ed994c429864c2ca77ff1764736f6c63430008120033",
  "linkReferences": {},
  "deployedLinkReferences": {}
}