{
  "_format": "hh-sol-artifact-1",
  "contractName": "ERC1155ReceiverMock",
  "sourceName": "contracts/mocks/ERC1155ReceiverMock.sol",
  "abi": [
    {
      "inputs": [],
      "name": "data",
      "outputs": [
        {
          "internalType": "bytes",
          "name": "",
          "type": "bytes"
        }
      ],
      "stateMutability": "view",
      "type": "function"
    },
    {
      "inputs": [],
      "name": "from",
      "outputs": [
        {
          "internalType": "address",
          "name": "",
          "type": "address"
        }
      ],
      "stateMutability": "view",
      "type": "function"
    },
    {
      "inputs": [],
      "name": "fromBalance",
      "outputs": [
        {
          "internalType": "uint256",
          "name": "",
          "type": "uint256"
        }
      ],
      "stateMutability": "view",
      "type": "function"
    },
    {
      "inputs": [],
      "name": "id",
      "outputs": [
        {
          "internalType": "uint256",
          "name": "",
          "type": "uint256"
        }
      ],
      "stateMutability": "view",
      "type": "function"
    },
    {
      "inputs": [
        {
          "internalType": "uint256",
          "name": "",
          "type": "uint256"
        }
      ],
      "name": "ids",
      "outputs": [
        {
          "internalType": "uint256",
          "name": "",
          "type": "uint256"
        }
      ],
      "stateMutability": "view",
      "type": "function"
    },
    {
      "inputs": [
        {
          "internalType": "address",
          "name": "_operator",
          "type": "address"
        },
        {
          "internalType": "address",
          "name": "_from",
          "type": "address"
        },
        {
          "internalType": "uint256[]",
          "name": "_ids",
          "type": "uint256[]"
        },
        {
          "internalType": "uint256[]",
          "name": "_values",
          "type": "uint256[]"
        },
        {
          "internalType": "bytes",
          "name": "_data",
          "type": "bytes"
        }
      ],
      "name": "onERC1155BatchReceived",
      "outputs": [
        {
          "internalType": "bytes4",
          "name": "",
          "type": "bytes4"
        }
      ],
      "stateMutability": "nonpayable",
      "type": "function"
    },
    {
      "inputs": [
        {
          "internalType": "address",
          "name": "_operator",
          "type": "address"
        },
        {
          "internalType": "address",
          "name": "_from",
          "type": "address"
        },
        {
          "internalType": "uint256",
          "name": "_id",
          "type": "uint256"
        },
        {
          "internalType": "uint256",
          "name": "_value",
          "type": "uint256"
        },
        {
          "internalType": "bytes",
          "name": "_data",
          "type": "bytes"
        }
      ],
      "name": "onERC1155Received",
      "outputs": [
        {
          "internalType": "bytes4",
          "name": "",
          "type": "bytes4"
        }
      ],
      "stateMutability": "nonpayable",
      "type": "function"
    },
    {
      "inputs": [],
      "name": "operator",
      "outputs": [
        {
          "internalType": "address",
          "name": "",
          "type": "address"
        }
      ],
      "stateMutability": "view",
      "type": "function"
    },
    {
      "inputs": [],
      "name": "returnToken",
      "outputs": [],
      "stateMutability": "nonpayable",
      "type": "function"
    },
    {
      "inputs": [],
      "name": "returnTokens",
      "outputs": [],
      "stateMutability": "nonpayable",
      "type": "function"
    },
    {
      "inputs": [],
      "name": "sender",
      "outputs": [
        {
          "internalType": "address",
          "name": "",
          "type": "address"
        }
      ],
      "stateMutability": "view",
      "type": "function"
    },
    {
      "inputs": [],
      "name": "value",
      "outputs": [
        {
          "internalType": "uint256",
          "name": "",
          "type": "uint256"
        }
      ],
      "stateMutability": "view",
      "type": "function"
    },
    {
      "inputs": [
        {
          "internalType": "uint256",
          "name": "",
          "type": "uint256"
        }
      ],
      "name": "values",
      "outputs": [
        {
          "internalType": "uint256",
          "name": "",
          "type": "uint256"
        }
      ],
      "stateMutability": "view",
      "type": "function"
    }
  ],
  "bytecode": "0x6080806040523461001657610d1f908161001c8239f35b600080fdfe6080604081815260048036101561001557600080fd5b600092833560e01c90816326fea2a814610ba5575080632e4a365714610b1d5780633fa4f24514610afe578063570ca73514610ad65780635e383d2114610a8657806367e404ce14610a6057806373d4a13a1461094d578063af640d0f1461092e578063bc197c81146104f2578063d5ce3389146104ca578063f23a6e6114610254578063f9718fc8146101085763fac333ac146100b257600080fd5b3461010457602036600319011261010457803590805482101561010057602093506000527f8a35acfbc15ff81a39ae7d344fd709f28e8600b4aa8c65c6b64bfe7fe36bd19b01549051908152f35b8380fd5b8280fd5b5082903461025057600319928284360112610104576001600160a01b039384845416946002541690853b1561024c57825193631759616b60e11b855260a48501923082870152602486015260a060448601525480925260c48401917f8a35acfbc15ff81a39ae7d344fd709f28e8600b4aa8c65c6b64bfe7fe36bd19b9060005b818110610236575050508084830301606485015260065480835260208093019060066000527ff652222313e28459528d920b65115c16c04f3efc82aaedc97be59f3f377c0d3f9060005b81811061022257505050958486809894829482878582990392830160848701525201925af190811561021957506102065750f35b61020f90610bfb565b6102165780f35b80fd5b513d84823e3d90fd5b8254845292850192600192830192016101d2565b8254855260209094019360019283019201610188565b8480fd5b5080fd5b5091346102165760a03660031901126102165761026f610c47565b610277610c5d565b9067ffffffffffffffff9060843582811161024c576102999036908801610ca4565b926001600160a01b031933818854161787556001600160a01b0380968160019616838754161786551690600254161760025560443560035560643560055583116104b7576102e8600754610bc1565b601f811161045e575b508490601f84116001146103d45792806020959381936103629a9689946103c9575b50501b916000199060031b1c1916176007555b80845416906002541660035492865197889485938493627eeac760e11b85528401602090939291936001600160a01b0360408201951681520152565b03915afa9081156103be5790610387575b6008555163f23a6e6160e01b815260209150f35b506020823d82116103b6575b816103a060209383610c25565b810103126103b15760209151610373565b600080fd5b3d9150610393565b8251903d90823e3d90fd5b013592503880610313565b600786529192917fa66cc928b5edb82af9bd49922954155ab7b0942694bea4ce44661d9a8736c68891601f198416875b818110610448575091610362999593918560209896941061042e575b505050811b01600755610326565b0135600019600384901b60f8161c19169055388080610420565b8383013585559386019360209283019201610404565b6104a790600787527fa66cc928b5edb82af9bd49922954155ab7b0942694bea4ce44661d9a8736c688601f860160051c810191602087106104ad575b601f0160051c0190610cd2565b386102f1565b909150819061049a565b634e487b7160e01b855260418752602485fd5b5050346102505781600319360112610250576020906001600160a01b03600254169051908152f35b5091346102165760a03660031901126102165761050d610c47565b610515610c5d565b9067ffffffffffffffff60443581811161024c576105369036908801610c73565b909160643581811161092a5761054f9036908a01610c73565b90608435838111610926576105679036908c01610ca4565b9590946001600160a01b031933818c5416178b556001600160a01b03809a8160019b16838c5416178b5516906002541617600255848111610913576801000000000000000091828211610900578c54828e558083106108ca575b50888b5b8381106108975750505050838311610884578211610871576006548260065580831061083b575b506006885285885b838110610808575050505082116104b757610610600754610bc1565b601f81116107ba575b508490601f831160011461073b579282939183928794610730575b50501b916000199060031b1c1916176007555b8354158015610662575b835163bc197c8160e01b8152602090f35b8183541691600254169061071b5760008590527f8a35acfbc15ff81a39ae7d344fd709f28e8600b4aa8c65c6b64bfe7fe36bd19b548451627eeac760e11b81526001600160a01b039092169582019586526020868101919091529094909185918290819060400103915afa9081156103be57906106e9575b60209250600855388080610651565b506020823d8211610713575b8161070260209383610c25565b810103126103b157602091516106da565b3d91506106f5565b603285634e487b7160e01b6000525260246000fd5b013592503880610634565b600786527fa66cc928b5edb82af9bd49922954155ab7b0942694bea4ce44661d9a8736c6889183601f198116885b878282106107a157505010610787575b505050811b01600755610647565b0135600019600384901b60f8161c19169055388080610779565b8585013587559095019460209384019387935001610769565b61080290600787527fa66cc928b5edb82af9bd49922954155ab7b0942694bea4ce44661d9a8736c688601f850160051c810191602086106104ad57601f0160051c0190610cd2565b38610619565b60208335930192817ff652222313e28459528d920b65115c16c04f3efc82aaedc97be59f3f377c0d3f01550186906105f4565b61086b90837ff652222313e28459528d920b65115c16c04f3efc82aaedc97be59f3f377c0d3f9182019101610cd2565b386105ec565b634e487b7160e01b885260418a52602488fd5b634e487b7160e01b895260418b52602489fd5b60208335930192817f8a35acfbc15ff81a39ae7d344fd709f28e8600b4aa8c65c6b64bfe7fe36bd19b01550189906105c5565b6108fa90837f8a35acfbc15ff81a39ae7d344fd709f28e8600b4aa8c65c6b64bfe7fe36bd19b9182019101610cd2565b386105c1565b634e487b7160e01b8b5260418d5260248bfd5b634e487b7160e01b8a5260418c5260248afd5b8880fd5b8680fd5b5050346102505781600319360112610250576020906003549051908152f35b5050346102505781600319360112610250578051600754818461096f83610bc1565b80835292600190818116908115610a3e57506001146109e1575b5061099992509492940384610c25565b815192839160208084528251928382860152825b8481106109cb57505050828201840152601f01601f19168101030190f35b81810183015188820188015287955082016109ad565b600787528691507fa66cc928b5edb82af9bd49922954155ab7b0942694bea4ce44661d9a8736c6885b848310610a235750610999935050810160200138610989565b81935090816020925483858901015201910190918492610a0a565b90506020925061099994915060ff191682840152151560051b82010138610989565b5050346102505781600319360112610250576001600160a01b0360209254169051908152f35b50346101045760203660031901126101045735600654811015610104576020925060066000527ff652222313e28459528d920b65115c16c04f3efc82aaedc97be59f3f377c0d3f01549051908152f35b5050346102505781600319360112610250576020906001600160a01b03600154169051908152f35b5050346102505781600319360112610250576020906005549051908152f35b509034610104578260031936011261010457826001600160a01b038082541690600254169060035494600554823b1561024c5760c492859187519889968795637921219560e11b8752309087015260248601526044850152606484015260a060848401528160a48401525af19081156102195750610b99575080f35b610ba290610bfb565b80f35b8490346102505781600319360112610250576020906008548152f35b90600182811c92168015610bf1575b6020831014610bdb57565b634e487b7160e01b600052602260045260246000fd5b91607f1691610bd0565b67ffffffffffffffff8111610c0f57604052565b634e487b7160e01b600052604160045260246000fd5b90601f8019910116810190811067ffffffffffffffff821117610c0f57604052565b600435906001600160a01b03821682036103b157565b602435906001600160a01b03821682036103b157565b9181601f840112156103b15782359167ffffffffffffffff83116103b1576020808501948460051b0101116103b157565b9181601f840112156103b15782359167ffffffffffffffff83116103b157602083818601950101116103b157565b818110610cdd575050565b60008155600101610cd256fea264697066735822122025ac154ecb423e0b5accae6a5eac803bd4cc4ebba6001e678fa7d22d87bd11e464736f6c63430008120033",
  "linkReferences": {},
  "deployedLinkReferences": {}
}