{
  "_format": "hh-sol-artifact-1",
  "contractName": "ERC721StrategyMock",
  "sourceName": "contracts/mocks/ERC721StrategyMock.sol",
  "abi": [
    {
      "inputs": [
        {
          "internalType": "contract IYieldBox",
          "name": "yieldBox_",
          "type": "address"
        },
        {
          "internalType": "address",
          "name": "token",
          "type": "address"
        },
        {
          "internalType": "uint256",
          "name": "tokenId_",
          "type": "uint256"
        }
      ],
      "stateMutability": "nonpayable",
      "type": "constructor"
    },
    {
      "inputs": [],
      "name": "cheapWithdrawable",
      "outputs": [
        {
          "internalType": "uint256",
          "name": "amount",
          "type": "uint256"
        }
      ],
      "stateMutability": "view",
      "type": "function"
    },
    {
      "inputs": [],
      "name": "contractAddress",
      "outputs": [
        {
          "internalType": "address",
          "name": "",
          "type": "address"
        }
      ],
      "stateMutability": "view",
      "type": "function"
    },
    {
      "inputs": [],
      "name": "currentBalance",
      "outputs": [
        {
          "internalType": "uint256",
          "name": "amount",
          "type": "uint256"
        }
      ],
      "stateMutability": "view",
      "type": "function"
    },
    {
      "inputs": [
        {
          "internalType": "uint256",
          "name": "amount",
          "type": "uint256"
        }
      ],
      "name": "deposited",
      "outputs": [],
      "stateMutability": "nonpayable",
      "type": "function"
    },
    {
      "inputs": [],
      "name": "description",
      "outputs": [
        {
          "internalType": "string",
          "name": "",
          "type": "string"
        }
      ],
      "stateMutability": "view",
      "type": "function"
    },
    {
      "inputs": [],
      "name": "name",
      "outputs": [
        {
          "internalType": "string",
          "name": "",
          "type": "string"
        }
      ],
      "stateMutability": "view",
      "type": "function"
    },
    {
      "inputs": [
        {
          "internalType": "address",
          "name": "",
          "type": "address"
        },
        {
          "internalType": "address",
          "name": "",
          "type": "address"
        },
        {
          "internalType": "uint256",
          "name": "",
          "type": "uint256"
        },
        {
          "internalType": "bytes",
          "name": "",
          "type": "bytes"
        }
      ],
      "name": "onERC721Received",
      "outputs": [
        {
          "internalType": "bytes4",
          "name": "",
          "type": "bytes4"
        }
      ],
      "stateMutability": "pure",
      "type": "function"
    },
    {
      "inputs": [],
      "name": "tokenId",
      "outputs": [
        {
          "internalType": "uint256",
          "name": "",
          "type": "uint256"
        }
      ],
      "stateMutability": "view",
      "type": "function"
    },
    {
      "inputs": [],
      "name": "tokenType",
      "outputs": [
        {
          "internalType": "enum TokenType",
          "name": "",
          "type": "uint8"
        }
      ],
      "stateMutability": "view",
      "type": "function"
    },
    {
      "inputs": [
        {
          "internalType": "address",
          "name": "to",
          "type": "address"
        },
        {
          "internalType": "uint256",
          "name": "",
          "type": "uint256"
        }
      ],
      "name": "withdraw",
      "outputs": [],
      "stateMutability": "nonpayable",
      "type": "function"
    },
    {
      "inputs": [],
      "name": "withdrawable",
      "outputs": [
        {
          "internalType": "uint256",
          "name": "amount",
          "type": "uint256"
        }
      ],
      "stateMutability": "view",
      "type": "function"
    },
    {
      "inputs": [],
      "name": "yieldBox",
      "outputs": [
        {
          "internalType": "contract IYieldBox",
          "name": "",
          "type": "address"
        }
      ],
      "stateMutability": "view",
      "type": "function"
    }
  ],
  "bytecode": "0x60e060405234801561001057600080fd5b5060405161071138038061071183398101604081905261002f91610062565b6001600160a01b0392831660c052911660805260a0526100a5565b6001600160a01b038116811461005f57600080fd5b50565b60008060006060848603121561007757600080fd5b83516100828161004a565b60208501519093506100938161004a565b80925050604084015190509250925092565b60805160a05160c0516106286100e9600039600061023a01526000818161019901526103bc015260008181610299015281816102ec01526103e201526106286000f3fe608060405234801561001057600080fd5b50600436106100d45760003560e01c8063afa91cc611610081578063e3575f051161005b578063e3575f05146101de578063f3fef3a314610281578063f6b4dfb41461029457600080fd5b8063afa91cc614610222578063ce845d1d146101de578063de4065771461023557600080fd5b806330fa738c116100b257806330fa738c146101c957806350188301146101de5780637284e416146101e657600080fd5b806306fdde03146100d9578063150b7a021461012b57806317d70f7c14610194575b600080fd5b6101156040518060400160405280601281526020017f45524337323153747261746567794d6f636b000000000000000000000000000081525081565b6040516101229190610442565b60405180910390f35b6101636101393660046104ba565b7f150b7a020000000000000000000000000000000000000000000000000000000095945050505050565b6040517fffffffff000000000000000000000000000000000000000000000000000000009091168152602001610122565b6101bb7f000000000000000000000000000000000000000000000000000000000000000081565b604051908152602001610122565b6101d1600281565b6040516101229190610555565b6101bb6102bb565b6101156040518060400160405280601981526020017f4d6f636b20537472617465677920666f722074657374696e670000000000000081525081565b610233610230366004610596565b50565b005b61025c7f000000000000000000000000000000000000000000000000000000000000000081565b60405173ffffffffffffffffffffffffffffffffffffffff9091168152602001610122565b61023361028f3660046105af565b610371565b61025c7f000000000000000000000000000000000000000000000000000000000000000081565b6040517f70a082310000000000000000000000000000000000000000000000000000000081523060048201526000907f000000000000000000000000000000000000000000000000000000000000000073ffffffffffffffffffffffffffffffffffffffff16906370a0823190602401602060405180830381865afa158015610348573d6000803e3d6000fd5b505050506040513d601f19601f8201168201806040525081019061036c91906105d9565b905090565b6040517f42842e0e00000000000000000000000000000000000000000000000000000000815230600482015273ffffffffffffffffffffffffffffffffffffffff83811660248301527f000000000000000000000000000000000000000000000000000000000000000060448301527f000000000000000000000000000000000000000000000000000000000000000016906342842e0e90606401600060405180830381600087803b15801561042657600080fd5b505af115801561043a573d6000803e3d6000fd5b505050505050565b60006020808352835180602085015260005b8181101561047057858101830151858201604001528201610454565b506000604082860101526040601f19601f8301168501019250505092915050565b803573ffffffffffffffffffffffffffffffffffffffff811681146104b557600080fd5b919050565b6000806000806000608086880312156104d257600080fd5b6104db86610491565b94506104e960208701610491565b935060408601359250606086013567ffffffffffffffff8082111561050d57600080fd5b818801915088601f83011261052157600080fd5b81358181111561053057600080fd5b89602082850101111561054257600080fd5b9699959850939650602001949392505050565b6020810160058310610590577f4e487b7100000000000000000000000000000000000000000000000000000000600052602160045260246000fd5b91905290565b6000602082840312156105a857600080fd5b5035919050565b600080604083850312156105c257600080fd5b6105cb83610491565b946020939093013593505050565b6000602082840312156105eb57600080fd5b505191905056fea264697066735822122088f6ac4a98efaaadc7ef54d9c71ef6560783ef33222c6ff40ef80af88465ba0864736f6c63430008160033",
  "linkReferences": {},
  "deployedLinkReferences": {}
}