{
  "_format": "hh-sol-artifact-1",
  "contractName": "Tokenizer",
  "sourceName": "contracts/samples/Tokenizer.sol",
  "abi": [
    {
      "inputs": [
        {
          "internalType": "contract YieldBox",
          "name": "_yieldBox",
          "type": "address"
        }
      ],
      "stateMutability": "nonpayable",
      "type": "constructor"
    },
    {
      "inputs": [
        {
          "internalType": "uint256",
          "name": "sourceAsset",
          "type": "uint256"
        },
        {
          "internalType": "uint256",
          "name": "share",
          "type": "uint256"
        }
      ],
      "name": "deposit",
      "outputs": [],
      "stateMutability": "nonpayable",
      "type": "function"
    },
    {
      "inputs": [
        {
          "internalType": "uint256",
          "name": "sourceAsset",
          "type": "uint256"
        },
        {
          "internalType": "uint256",
          "name": "share",
          "type": "uint256"
        }
      ],
      "name": "withdraw",
      "outputs": [],
      "stateMutability": "nonpayable",
      "type": "function"
    },
    {
      "inputs": [],
      "name": "yieldBox",
      "outputs": [
        {
          "internalType": "contract YieldBox",
          "name": "",
          "type": "address"
        }
      ],
      "stateMutability": "view",
      "type": "function"
    }
  ],
  "bytecode": "0x608060405234801561001057600080fd5b5060405161075238038061075283398101604081905261002f91610054565b600080546001600160a01b0319166001600160a01b0392909216919091179055610084565b60006020828403121561006657600080fd5b81516001600160a01b038116811461007d57600080fd5b9392505050565b6106bf806100936000396000f3fe608060405234801561001057600080fd5b50600436106100415760003560e01c8063441a3e7014610046578063de4065771461005b578063e2bbb1581461008a575b600080fd5b61005961005436600461044b565b61009d565b005b60005461006e906001600160a01b031681565b6040516001600160a01b03909116815260200160405180910390f35b61005961009836600461044b565b6101ad565b60008281526001602052604081205490546001600160a01b0316639eea5f6682336100d086670de0b6b3a764000061046d565b6040516001600160e01b031960e086901b16815260048101939093526001600160a01b0390911660248301526044820152606401600060405180830381600087803b15801561011e57600080fd5b505af1158015610132573d6000803e3d6000fd5b5050600054604051630208d92960e11b815230600482015233602482015260448101879052606481018690526001600160a01b039091169250630411b25291506084015b600060405180830381600087803b15801561019057600080fd5b505af11580156101a4573d6000803e3d6000fd5b50505050505050565b6000828152600160205260409020548061037a57600054604051622b600360e21b8152600481018590526001600160a01b0390911690632482ee2790829062ad800c9060240160006040518083038186803b15801561020b57600080fd5b505afa15801561021f573d6000803e3d6000fd5b505050506040513d6000823e601f3d908101601f1916820160405261024791908101906104e0565b604051602001610257919061058d565b60408051808303601f1901815290829052600054634e41a1fb60e01b83526004830188905290916001600160a01b0390911690634e41a1fb9060240160006040518083038186803b1580156102ab57600080fd5b505afa1580156102bf573d6000803e3d6000fd5b505050506040513d6000823e601f3d908101601f191682016040526102e791908101906104e0565b6040516020016102f791906105bf565b60405160208183030381529060405260126040518463ffffffff1660e01b815260040161032693929190610614565b602060405180830381600087803b15801561034057600080fd5b505af1158015610354573d6000803e3d6000fd5b505050506040513d601f19601f82011682018060405250810190610378919061065c565b505b600054604051630208d92960e11b815233600482015230602482015260448101859052606481018490526001600160a01b0390911690630411b25290608401600060405180830381600087803b1580156103d357600080fd5b505af11580156103e7573d6000803e3d6000fd5b50506000546001600160a01b0316915063836a10409050823361041286670de0b6b3a764000061046d565b6040516001600160e01b031960e086901b16815260048101939093526001600160a01b0390911660248301526044820152606401610176565b6000806040838503121561045e57600080fd5b50508035926020909101359150565b600081600019048311821515161561049557634e487b7160e01b600052601160045260246000fd5b500290565b634e487b7160e01b600052604160045260246000fd5b60005b838110156104cb5781810151838201526020016104b3565b838111156104da576000848401525b50505050565b6000602082840312156104f257600080fd5b815167ffffffffffffffff8082111561050a57600080fd5b818401915084601f83011261051e57600080fd5b8151818111156105305761053061049a565b604051601f8201601f19908116603f011681019083821181831017156105585761055861049a565b8160405282815287602084870101111561057157600080fd5b6105828360208301602088016104b0565b979650505050505050565b6902a37b5b2b734bd32b2160b51b8152600082516105b281600a8501602087016104b0565b91909101600a0192915050565b601d60fa1b8152600082516105db8160018501602087016104b0565b9190910160010192915050565b600081518084526106008160208601602086016104b0565b601f01601f19169290920160200192915050565b60808152600061062760808301866105e8565b828103602084015261063981866105e8565b60ff94909416604084015250508082036060909101526000815260200192915050565b60006020828403121561066e57600080fd5b815163ffffffff8116811461068257600080fd5b939250505056fea26469706673582212206f4a58733a4ba564246a83d847cccb154a586603500629e064262f1596d5e0e264736f6c63430008090033",
  "linkReferences": {},
  "deployedLinkReferences": {}
}