{
  "_format": "hh-sol-artifact-1",
  "contractName": "YieldBox",
  "sourceName": "contracts/YieldBox.sol",
  "abi": [
    {
      "inputs": [
        {
          "internalType": "contract IWrappedNative",
          "name": "wrappedNative_",
          "type": "address"
        },
        {
          "internalType": "contract YieldBoxURIBuilder",
          "name": "uriBuilder_",
          "type": "address"
        }
      ],
      "stateMutability": "nonpayable",
      "type": "constructor"
    },
    {
      "inputs": [],
      "name": "AmountTooLow",
      "type": "error"
    },
    {
      "inputs": [],
      "name": "AssetNotValid",
      "type": "error"
    },
    {
      "inputs": [],
      "name": "ForbiddenAction",
      "type": "error"
    },
    {
      "inputs": [],
      "name": "InvalidShortString",
      "type": "error"
    },
    {
      "inputs": [],
      "name": "InvalidTokenType",
      "type": "error"
    },
    {
      "inputs": [],
      "name": "NotSet",
      "type": "error"
    },
    {
      "inputs": [],
      "name": "NotWrapped",
      "type": "error"
    },
    {
      "inputs": [],
      "name": "RefundFailed",
      "type": "error"
    },
    {
      "inputs": [
        {
          "internalType": "string",
          "name": "str",
          "type": "string"
        }
      ],
      "name": "StringTooLong",
      "type": "error"
    },
    {
      "inputs": [],
      "name": "ZeroAddress",
      "type": "error"
    },
    {
      "anonymous": false,
      "inputs": [
        {
          "indexed": true,
          "internalType": "address",
          "name": "_owner",
          "type": "address"
        },
        {
          "indexed": true,
          "internalType": "address",
          "name": "_operator",
          "type": "address"
        },
        {
          "indexed": false,
          "internalType": "bool",
          "name": "_approved",
          "type": "bool"
        }
      ],
      "name": "ApprovalForAll",
      "type": "event"
    },
    {
      "anonymous": false,
      "inputs": [
        {
          "indexed": true,
          "internalType": "address",
          "name": "sender",
          "type": "address"
        },
        {
          "indexed": true,
          "internalType": "address",
          "name": "operator",
          "type": "address"
        },
        {
          "indexed": false,
          "internalType": "uint256",
          "name": "assetId",
          "type": "uint256"
        },
        {
          "indexed": false,
          "internalType": "bool",
          "name": "approved",
          "type": "bool"
        }
      ],
      "name": "ApprovalForAsset",
      "type": "event"
    },
    {
      "anonymous": false,
      "inputs": [
        {
          "indexed": true,
          "internalType": "enum TokenType",
          "name": "tokenType",
          "type": "uint8"
        },
        {
          "indexed": true,
          "internalType": "address",
          "name": "contractAddress",
          "type": "address"
        },
        {
          "indexed": false,
          "internalType": "contract IStrategy",
          "name": "strategy",
          "type": "address"
        },
        {
          "indexed": true,
          "internalType": "uint256",
          "name": "tokenId",
          "type": "uint256"
        },
        {
          "indexed": false,
          "internalType": "uint256",
          "name": "assetId",
          "type": "uint256"
        }
      ],
      "name": "AssetRegistered",
      "type": "event"
    },
    {
      "anonymous": false,
      "inputs": [
        {
          "indexed": true,
          "internalType": "address",
          "name": "sender",
          "type": "address"
        },
        {
          "indexed": true,
          "internalType": "address",
          "name": "from",
          "type": "address"
        },
        {
          "indexed": true,
          "internalType": "address",
          "name": "to",
          "type": "address"
        },
        {
          "indexed": false,
          "internalType": "uint256",
          "name": "assetId",
          "type": "uint256"
        },
        {
          "indexed": false,
          "internalType": "uint256",
          "name": "amountIn",
          "type": "uint256"
        },
        {
          "indexed": false,
          "internalType": "uint256",
          "name": "shareIn",
          "type": "uint256"
        },
        {
          "indexed": false,
          "internalType": "uint256",
          "name": "amountOut",
          "type": "uint256"
        },
        {
          "indexed": false,
          "internalType": "uint256",
          "name": "shareOut",
          "type": "uint256"
        },
        {
          "indexed": false,
          "internalType": "bool",
          "name": "isNFT",
          "type": "bool"
        }
      ],
      "name": "Deposited",
      "type": "event"
    },
    {
      "anonymous": false,
      "inputs": [],
      "name": "EIP712DomainChanged",
      "type": "event"
    },
    {
      "anonymous": false,
      "inputs": [
        {
          "indexed": true,
          "internalType": "uint256",
          "name": "tokenId",
          "type": "uint256"
        },
        {
          "indexed": true,
          "internalType": "address",
          "name": "previousOwner",
          "type": "address"
        },
        {
          "indexed": true,
          "internalType": "address",
          "name": "newOwner",
          "type": "address"
        }
      ],
      "name": "OwnershipTransferred",
      "type": "event"
    },
    {
      "anonymous": false,
      "inputs": [
        {
          "indexed": true,
          "internalType": "address",
          "name": "creator",
          "type": "address"
        },
        {
          "indexed": false,
          "internalType": "string",
          "name": "name",
          "type": "string"
        },
        {
          "indexed": false,
          "internalType": "string",
          "name": "symbol",
          "type": "string"
        },
        {
          "indexed": false,
          "internalType": "uint8",
          "name": "decimals",
          "type": "uint8"
        },
        {
          "indexed": false,
          "internalType": "uint256",
          "name": "tokenId",
          "type": "uint256"
        }
      ],
      "name": "TokenCreated",
      "type": "event"
    },
    {
      "anonymous": false,
      "inputs": [
        {
          "indexed": true,
          "internalType": "address",
          "name": "_operator",
          "type": "address"
        },
        {
          "indexed": true,
          "internalType": "address",
          "name": "_from",
          "type": "address"
        },
        {
          "indexed": true,
          "internalType": "address",
          "name": "_to",
          "type": "address"
        },
        {
          "indexed": false,
          "internalType": "uint256[]",
          "name": "_ids",
          "type": "uint256[]"
        },
        {
          "indexed": false,
          "internalType": "uint256[]",
          "name": "_values",
          "type": "uint256[]"
        }
      ],
      "name": "TransferBatch",
      "type": "event"
    },
    {
      "anonymous": false,
      "inputs": [
        {
          "indexed": true,
          "internalType": "address",
          "name": "_operator",
          "type": "address"
        },
        {
          "indexed": true,
          "internalType": "address",
          "name": "_from",
          "type": "address"
        },
        {
          "indexed": true,
          "internalType": "address",
          "name": "_to",
          "type": "address"
        },
        {
          "indexed": false,
          "internalType": "uint256",
          "name": "_id",
          "type": "uint256"
        },
        {
          "indexed": false,
          "internalType": "uint256",
          "name": "_value",
          "type": "uint256"
        }
      ],
      "name": "TransferSingle",
      "type": "event"
    },
    {
      "anonymous": false,
      "inputs": [
        {
          "indexed": false,
          "internalType": "string",
          "name": "_value",
          "type": "string"
        },
        {
          "indexed": true,
          "internalType": "uint256",
          "name": "_id",
          "type": "uint256"
        }
      ],
      "name": "URI",
      "type": "event"
    },
    {
      "anonymous": false,
      "inputs": [
        {
          "indexed": true,
          "internalType": "address",
          "name": "sender",
          "type": "address"
        },
        {
          "indexed": true,
          "internalType": "address",
          "name": "from",
          "type": "address"
        },
        {
          "indexed": true,
          "internalType": "address",
          "name": "to",
          "type": "address"
        },
        {
          "indexed": false,
          "internalType": "uint256",
          "name": "assetId",
          "type": "uint256"
        },
        {
          "indexed": false,
          "internalType": "uint256",
          "name": "amountIn",
          "type": "uint256"
        },
        {
          "indexed": false,
          "internalType": "uint256",
          "name": "shareIn",
          "type": "uint256"
        },
        {
          "indexed": false,
          "internalType": "uint256",
          "name": "amountOut",
          "type": "uint256"
        },
        {
          "indexed": false,
          "internalType": "uint256",
          "name": "shareOut",
          "type": "uint256"
        }
      ],
      "name": "Withdraw",
      "type": "event"
    },
    {
      "inputs": [],
      "name": "DOMAIN_SEPARATOR",
      "outputs": [
        {
          "internalType": "bytes32",
          "name": "",
          "type": "bytes32"
        }
      ],
      "stateMutability": "view",
      "type": "function"
    },
    {
      "inputs": [
        {
          "internalType": "address",
          "name": "user",
          "type": "address"
        },
        {
          "internalType": "uint256",
          "name": "assetId",
          "type": "uint256"
        }
      ],
      "name": "amountOf",
      "outputs": [
        {
          "internalType": "uint256",
          "name": "amount",
          "type": "uint256"
        }
      ],
      "stateMutability": "view",
      "type": "function"
    },
    {
      "inputs": [],
      "name": "assetCount",
      "outputs": [
        {
          "internalType": "uint256",
          "name": "",
          "type": "uint256"
        }
      ],
      "stateMutability": "view",
      "type": "function"
    },
    {
      "inputs": [
        {
          "internalType": "uint256",
          "name": "assetId",
          "type": "uint256"
        }
      ],
      "name": "assetTotals",
      "outputs": [
        {
          "internalType": "uint256",
          "name": "totalShare",
          "type": "uint256"
        },
        {
          "internalType": "uint256",
          "name": "totalAmount",
          "type": "uint256"
        }
      ],
      "stateMutability": "view",
      "type": "function"
    },
    {
      "inputs": [
        {
          "internalType": "uint256",
          "name": "",
          "type": "uint256"
        }
      ],
      "name": "assets",
      "outputs": [
        {
          "internalType": "enum TokenType",
          "name": "tokenType",
          "type": "uint8"
        },
        {
          "internalType": "address",
          "name": "contractAddress",
          "type": "address"
        },
        {
          "internalType": "contract IStrategy",
          "name": "strategy",
          "type": "address"
        },
        {
          "internalType": "uint256",
          "name": "tokenId",
          "type": "uint256"
        }
      ],
      "stateMutability": "view",
      "type": "function"
    },
    {
      "inputs": [
        {
          "internalType": "address",
          "name": "",
          "type": "address"
        },
        {
          "internalType": "uint256",
          "name": "",
          "type": "uint256"
        }
      ],
      "name": "balanceOf",
      "outputs": [
        {
          "internalType": "uint256",
          "name": "",
          "type": "uint256"
        }
      ],
      "stateMutability": "view",
      "type": "function"
    },
    {
      "inputs": [
        {
          "internalType": "address[]",
          "name": "owners",
          "type": "address[]"
        },
        {
          "internalType": "uint256[]",
          "name": "ids",
          "type": "uint256[]"
        }
      ],
      "name": "balanceOfBatch",
      "outputs": [
        {
          "internalType": "uint256[]",
          "name": "balances",
          "type": "uint256[]"
        }
      ],
      "stateMutability": "view",
      "type": "function"
    },
    {
      "inputs": [
        {
          "internalType": "bytes[]",
          "name": "calls",
          "type": "bytes[]"
        },
        {
          "internalType": "bool",
          "name": "revertOnFail",
          "type": "bool"
        }
      ],
      "name": "batch",
      "outputs": [],
      "stateMutability": "payable",
      "type": "function"
    },
    {
      "inputs": [
        {
          "internalType": "uint256",
          "name": "tokenId",
          "type": "uint256"
        },
        {
          "internalType": "address[]",
          "name": "froms",
          "type": "address[]"
        },
        {
          "internalType": "uint256[]",
          "name": "amounts",
          "type": "uint256[]"
        }
      ],
      "name": "batchBurn",
      "outputs": [],
      "stateMutability": "nonpayable",
      "type": "function"
    },
    {
      "inputs": [
        {
          "internalType": "uint256",
          "name": "tokenId",
          "type": "uint256"
        },
        {
          "internalType": "address[]",
          "name": "tos",
          "type": "address[]"
        },
        {
          "internalType": "uint256[]",
          "name": "amounts",
          "type": "uint256[]"
        }
      ],
      "name": "batchMint",
      "outputs": [],
      "stateMutability": "nonpayable",
      "type": "function"
    },
    {
      "inputs": [
        {
          "internalType": "address",
          "name": "from",
          "type": "address"
        },
        {
          "internalType": "address",
          "name": "to",
          "type": "address"
        },
        {
          "internalType": "uint256[]",
          "name": "assetIds_",
          "type": "uint256[]"
        },
        {
          "internalType": "uint256[]",
          "name": "shares_",
          "type": "uint256[]"
        }
      ],
      "name": "batchTransfer",
      "outputs": [],
      "stateMutability": "nonpayable",
      "type": "function"
    },
    {
      "inputs": [
        {
          "internalType": "uint256",
          "name": "tokenId",
          "type": "uint256"
        },
        {
          "internalType": "address",
          "name": "from",
          "type": "address"
        },
        {
          "internalType": "uint256",
          "name": "amount",
          "type": "uint256"
        }
      ],
      "name": "burn",
      "outputs": [],
      "stateMutability": "nonpayable",
      "type": "function"
    },
    {
      "inputs": [
        {
          "internalType": "uint256",
          "name": "tokenId",
          "type": "uint256"
        }
      ],
      "name": "claimOwnership",
      "outputs": [],
      "stateMutability": "nonpayable",
      "type": "function"
    },
    {
      "inputs": [
        {
          "internalType": "string",
          "name": "name",
          "type": "string"
        },
        {
          "internalType": "string",
          "name": "symbol",
          "type": "string"
        },
        {
          "internalType": "uint8",
          "name": "decimals",
          "type": "uint8"
        },
        {
          "internalType": "string",
          "name": "uri",
          "type": "string"
        }
      ],
      "name": "createToken",
      "outputs": [
        {
          "internalType": "uint32",
          "name": "tokenId",
          "type": "uint32"
        }
      ],
      "stateMutability": "nonpayable",
      "type": "function"
    },
    {
      "inputs": [
        {
          "internalType": "uint256",
          "name": "assetId",
          "type": "uint256"
        }
      ],
      "name": "decimals",
      "outputs": [
        {
          "internalType": "uint8",
          "name": "",
          "type": "uint8"
        }
      ],
      "stateMutability": "view",
      "type": "function"
    },
    {
      "inputs": [
        {
          "internalType": "enum TokenType",
          "name": "tokenType",
          "type": "uint8"
        },
        {
          "internalType": "address",
          "name": "contractAddress",
          "type": "address"
        },
        {
          "internalType": "contract IStrategy",
          "name": "strategy",
          "type": "address"
        },
        {
          "internalType": "uint256",
          "name": "tokenId",
          "type": "uint256"
        },
        {
          "internalType": "address",
          "name": "from",
          "type": "address"
        },
        {
          "internalType": "address",
          "name": "to",
          "type": "address"
        },
        {
          "internalType": "uint256",
          "name": "amount",
          "type": "uint256"
        },
        {
          "internalType": "uint256",
          "name": "share",
          "type": "uint256"
        }
      ],
      "name": "deposit",
      "outputs": [
        {
          "internalType": "uint256",
          "name": "amountOut",
          "type": "uint256"
        },
        {
          "internalType": "uint256",
          "name": "shareOut",
          "type": "uint256"
        }
      ],
      "stateMutability": "nonpayable",
      "type": "function"
    },
    {
      "inputs": [
        {
          "internalType": "uint256",
          "name": "assetId",
          "type": "uint256"
        },
        {
          "internalType": "address",
          "name": "from",
          "type": "address"
        },
        {
          "internalType": "address",
          "name": "to",
          "type": "address"
        },
        {
          "internalType": "uint256",
          "name": "amount",
          "type": "uint256"
        },
        {
          "internalType": "uint256",
          "name": "share",
          "type": "uint256"
        }
      ],
      "name": "depositAsset",
      "outputs": [
        {
          "internalType": "uint256",
          "name": "amountOut",
          "type": "uint256"
        },
        {
          "internalType": "uint256",
          "name": "shareOut",
          "type": "uint256"
        }
      ],
      "stateMutability": "nonpayable",
      "type": "function"
    },
    {
      "inputs": [
        {
          "internalType": "contract IStrategy",
          "name": "strategy",
          "type": "address"
        },
        {
          "internalType": "address",
          "name": "to",
          "type": "address"
        },
        {
          "internalType": "uint256",
          "name": "amount",
          "type": "uint256"
        }
      ],
      "name": "depositETH",
      "outputs": [
        {
          "internalType": "uint256",
          "name": "amountOut",
          "type": "uint256"
        },
        {
          "internalType": "uint256",
          "name": "shareOut",
          "type": "uint256"
        }
      ],
      "stateMutability": "payable",
      "type": "function"
    },
    {
      "inputs": [
        {
          "internalType": "uint256",
          "name": "assetId",
          "type": "uint256"
        },
        {
          "internalType": "address",
          "name": "to",
          "type": "address"
        },
        {
          "internalType": "uint256",
          "name": "amount",
          "type": "uint256"
        }
      ],
      "name": "depositETHAsset",
      "outputs": [
        {
          "internalType": "uint256",
          "name": "amountOut",
          "type": "uint256"
        },
        {
          "internalType": "uint256",
          "name": "shareOut",
          "type": "uint256"
        }
      ],
      "stateMutability": "payable",
      "type": "function"
    },
    {
      "inputs": [
        {
          "internalType": "uint256",
          "name": "assetId",
          "type": "uint256"
        },
        {
          "internalType": "address",
          "name": "from",
          "type": "address"
        },
        {
          "internalType": "address",
          "name": "to",
          "type": "address"
        }
      ],
      "name": "depositNFTAsset",
      "outputs": [
        {
          "internalType": "uint256",
          "name": "amountOut",
          "type": "uint256"
        },
        {
          "internalType": "uint256",
          "name": "shareOut",
          "type": "uint256"
        }
      ],
      "stateMutability": "nonpayable",
      "type": "function"
    },
    {
      "inputs": [],
      "name": "eip712Domain",
      "outputs": [
        {
          "internalType": "bytes1",
          "name": "fields",
          "type": "bytes1"
        },
        {
          "internalType": "string",
          "name": "name",
          "type": "string"
        },
        {
          "internalType": "string",
          "name": "version",
          "type": "string"
        },
        {
          "internalType": "uint256",
          "name": "chainId",
          "type": "uint256"
        },
        {
          "internalType": "address",
          "name": "verifyingContract",
          "type": "address"
        },
        {
          "internalType": "bytes32",
          "name": "salt",
          "type": "bytes32"
        },
        {
          "internalType": "uint256[]",
          "name": "extensions",
          "type": "uint256[]"
        }
      ],
      "stateMutability": "view",
      "type": "function"
    },
    {
      "inputs": [
        {
          "internalType": "enum TokenType",
          "name": "tokenType",
          "type": "uint8"
        },
        {
          "internalType": "address",
          "name": "contractAddress",
          "type": "address"
        },
        {
          "internalType": "contract IStrategy",
          "name": "strategy",
          "type": "address"
        },
        {
          "internalType": "uint256",
          "name": "tokenId",
          "type": "uint256"
        }
      ],
      "name": "ids",
      "outputs": [
        {
          "internalType": "uint256",
          "name": "assetId",
          "type": "uint256"
        }
      ],
      "stateMutability": "view",
      "type": "function"
    },
    {
      "inputs": [
        {
          "internalType": "address",
          "name": "",
          "type": "address"
        },
        {
          "internalType": "address",
          "name": "",
          "type": "address"
        }
      ],
      "name": "isApprovedForAll",
      "outputs": [
        {
          "internalType": "bool",
          "name": "",
          "type": "bool"
        }
      ],
      "stateMutability": "view",
      "type": "function"
    },
    {
      "inputs": [
        {
          "internalType": "address",
          "name": "",
          "type": "address"
        },
        {
          "internalType": "address",
          "name": "",
          "type": "address"
        },
        {
          "internalType": "uint256",
          "name": "",
          "type": "uint256"
        }
      ],
      "name": "isApprovedForAsset",
      "outputs": [
        {
          "internalType": "bool",
          "name": "",
          "type": "bool"
        }
      ],
      "stateMutability": "view",
      "type": "function"
    },
    {
      "inputs": [
        {
          "internalType": "uint256",
          "name": "tokenId",
          "type": "uint256"
        },
        {
          "internalType": "address",
          "name": "to",
          "type": "address"
        },
        {
          "internalType": "uint256",
          "name": "amount",
          "type": "uint256"
        }
      ],
      "name": "mint",
      "outputs": [],
      "stateMutability": "nonpayable",
      "type": "function"
    },
    {
      "inputs": [
        {
          "internalType": "uint256",
          "name": "assetId",
          "type": "uint256"
        }
      ],
      "name": "name",
      "outputs": [
        {
          "internalType": "string",
          "name": "",
          "type": "string"
        }
      ],
      "stateMutability": "view",
      "type": "function"
    },
    {
      "inputs": [
        {
          "internalType": "uint256",
          "name": "",
          "type": "uint256"
        }
      ],
      "name": "nativeTokens",
      "outputs": [
        {
          "internalType": "string",
          "name": "name",
          "type": "string"
        },
        {
          "internalType": "string",
          "name": "symbol",
          "type": "string"
        },
        {
          "internalType": "uint8",
          "name": "decimals",
          "type": "uint8"
        },
        {
          "internalType": "string",
          "name": "uri",
          "type": "string"
        }
      ],
      "stateMutability": "view",
      "type": "function"
    },
    {
      "inputs": [
        {
          "internalType": "address",
          "name": "owner",
          "type": "address"
        }
      ],
      "name": "nonces",
      "outputs": [
        {
          "internalType": "uint256",
          "name": "",
          "type": "uint256"
        }
      ],
      "stateMutability": "view",
      "type": "function"
    },
    {
      "inputs": [
        {
          "internalType": "address",
          "name": "",
          "type": "address"
        },
        {
          "internalType": "address",
          "name": "",
          "type": "address"
        },
        {
          "internalType": "uint256[]",
          "name": "",
          "type": "uint256[]"
        },
        {
          "internalType": "uint256[]",
          "name": "",
          "type": "uint256[]"
        },
        {
          "internalType": "bytes",
          "name": "",
          "type": "bytes"
        }
      ],
      "name": "onERC1155BatchReceived",
      "outputs": [
        {
          "internalType": "bytes4",
          "name": "",
          "type": "bytes4"
        }
      ],
      "stateMutability": "pure",
      "type": "function"
    },
    {
      "inputs": [
        {
          "internalType": "address",
          "name": "",
          "type": "address"
        },
        {
          "internalType": "address",
          "name": "",
          "type": "address"
        },
        {
          "internalType": "uint256",
          "name": "",
          "type": "uint256"
        },
        {
          "internalType": "uint256",
          "name": "",
          "type": "uint256"
        },
        {
          "internalType": "bytes",
          "name": "",
          "type": "bytes"
        }
      ],
      "name": "onERC1155Received",
      "outputs": [
        {
          "internalType": "bytes4",
          "name": "",
          "type": "bytes4"
        }
      ],
      "stateMutability": "pure",
      "type": "function"
    },
    {
      "inputs": [
        {
          "internalType": "address",
          "name": "",
          "type": "address"
        },
        {
          "internalType": "address",
          "name": "",
          "type": "address"
        },
        {
          "internalType": "uint256",
          "name": "",
          "type": "uint256"
        },
        {
          "internalType": "bytes",
          "name": "",
          "type": "bytes"
        }
      ],
      "name": "onERC721Received",
      "outputs": [
        {
          "internalType": "bytes4",
          "name": "",
          "type": "bytes4"
        }
      ],
      "stateMutability": "pure",
      "type": "function"
    },
    {
      "inputs": [
        {
          "internalType": "uint256",
          "name": "",
          "type": "uint256"
        }
      ],
      "name": "owner",
      "outputs": [
        {
          "internalType": "address",
          "name": "",
          "type": "address"
        }
      ],
      "stateMutability": "view",
      "type": "function"
    },
    {
      "inputs": [
        {
          "internalType": "uint256",
          "name": "",
          "type": "uint256"
        }
      ],
      "name": "pendingOwner",
      "outputs": [
        {
          "internalType": "address",
          "name": "",
          "type": "address"
        }
      ],
      "stateMutability": "view",
      "type": "function"
    },
    {
      "inputs": [
        {
          "internalType": "address",
          "name": "owner",
          "type": "address"
        },
        {
          "internalType": "address",
          "name": "spender",
          "type": "address"
        },
        {
          "internalType": "uint256",
          "name": "assetId",
          "type": "uint256"
        },
        {
          "internalType": "uint256",
          "name": "deadline",
          "type": "uint256"
        },
        {
          "internalType": "uint8",
          "name": "v",
          "type": "uint8"
        },
        {
          "internalType": "bytes32",
          "name": "r",
          "type": "bytes32"
        },
        {
          "internalType": "bytes32",
          "name": "s",
          "type": "bytes32"
        }
      ],
      "name": "permit",
      "outputs": [],
      "stateMutability": "nonpayable",
      "type": "function"
    },
    {
      "inputs": [
        {
          "internalType": "address",
          "name": "owner",
          "type": "address"
        },
        {
          "internalType": "address",
          "name": "spender",
          "type": "address"
        },
        {
          "internalType": "uint256",
          "name": "deadline",
          "type": "uint256"
        },
        {
          "internalType": "uint8",
          "name": "v",
          "type": "uint8"
        },
        {
          "internalType": "bytes32",
          "name": "r",
          "type": "bytes32"
        },
        {
          "internalType": "bytes32",
          "name": "s",
          "type": "bytes32"
        }
      ],
      "name": "permitAll",
      "outputs": [],
      "stateMutability": "nonpayable",
      "type": "function"
    },
    {
      "inputs": [
        {
          "internalType": "contract IERC20",
          "name": "token",
          "type": "address"
        },
        {
          "internalType": "address",
          "name": "from",
          "type": "address"
        },
        {
          "internalType": "address",
          "name": "to",
          "type": "address"
        },
        {
          "internalType": "uint256",
          "name": "amount",
          "type": "uint256"
        },
        {
          "internalType": "uint256",
          "name": "deadline",
          "type": "uint256"
        },
        {
          "internalType": "uint8",
          "name": "v",
          "type": "uint8"
        },
        {
          "internalType": "bytes32",
          "name": "r",
          "type": "bytes32"
        },
        {
          "internalType": "bytes32",
          "name": "s",
          "type": "bytes32"
        }
      ],
      "name": "permitToken",
      "outputs": [],
      "stateMutability": "nonpayable",
      "type": "function"
    },
    {
      "inputs": [
        {
          "internalType": "enum TokenType",
          "name": "tokenType",
          "type": "uint8"
        },
        {
          "internalType": "address",
          "name": "contractAddress",
          "type": "address"
        },
        {
          "internalType": "contract IStrategy",
          "name": "strategy",
          "type": "address"
        },
        {
          "internalType": "uint256",
          "name": "tokenId",
          "type": "uint256"
        }
      ],
      "name": "registerAsset",
      "outputs": [
        {
          "internalType": "uint256",
          "name": "assetId",
          "type": "uint256"
        }
      ],
      "stateMutability": "nonpayable",
      "type": "function"
    },
    {
      "inputs": [
        {
          "internalType": "address",
          "name": "owner",
          "type": "address"
        },
        {
          "internalType": "address",
          "name": "spender",
          "type": "address"
        },
        {
          "internalType": "uint256",
          "name": "assetId",
          "type": "uint256"
        },
        {
          "internalType": "uint256",
          "name": "deadline",
          "type": "uint256"
        },
        {
          "internalType": "uint8",
          "name": "v",
          "type": "uint8"
        },
        {
          "internalType": "bytes32",
          "name": "r",
          "type": "bytes32"
        },
        {
          "internalType": "bytes32",
          "name": "s",
          "type": "bytes32"
        }
      ],
      "name": "revoke",
      "outputs": [],
      "stateMutability": "nonpayable",
      "type": "function"
    },
    {
      "inputs": [
        {
          "internalType": "address",
          "name": "owner",
          "type": "address"
        },
        {
          "internalType": "address",
          "name": "spender",
          "type": "address"
        },
        {
          "internalType": "uint256",
          "name": "deadline",
          "type": "uint256"
        },
        {
          "internalType": "uint8",
          "name": "v",
          "type": "uint8"
        },
        {
          "internalType": "bytes32",
          "name": "r",
          "type": "bytes32"
        },
        {
          "internalType": "bytes32",
          "name": "s",
          "type": "bytes32"
        }
      ],
      "name": "revokeAll",
      "outputs": [],
      "stateMutability": "nonpayable",
      "type": "function"
    },
    {
      "inputs": [
        {
          "internalType": "address",
          "name": "from",
          "type": "address"
        },
        {
          "internalType": "address",
          "name": "to",
          "type": "address"
        },
        {
          "internalType": "uint256[]",
          "name": "ids",
          "type": "uint256[]"
        },
        {
          "internalType": "uint256[]",
          "name": "values",
          "type": "uint256[]"
        },
        {
          "internalType": "bytes",
          "name": "data",
          "type": "bytes"
        }
      ],
      "name": "safeBatchTransferFrom",
      "outputs": [],
      "stateMutability": "nonpayable",
      "type": "function"
    },
    {
      "inputs": [
        {
          "internalType": "address",
          "name": "from",
          "type": "address"
        },
        {
          "internalType": "address",
          "name": "to",
          "type": "address"
        },
        {
          "internalType": "uint256",
          "name": "id",
          "type": "uint256"
        },
        {
          "internalType": "uint256",
          "name": "value",
          "type": "uint256"
        },
        {
          "internalType": "bytes",
          "name": "data",
          "type": "bytes"
        }
      ],
      "name": "safeTransferFrom",
      "outputs": [],
      "stateMutability": "nonpayable",
      "type": "function"
    },
    {
      "inputs": [
        {
          "internalType": "address",
          "name": "operator",
          "type": "address"
        },
        {
          "internalType": "bool",
          "name": "approved",
          "type": "bool"
        }
      ],
      "name": "setApprovalForAll",
      "outputs": [],
      "stateMutability": "nonpayable",
      "type": "function"
    },
    {
      "inputs": [
        {
          "internalType": "address",
          "name": "operator",
          "type": "address"
        },
        {
          "internalType": "uint256",
          "name": "assetId",
          "type": "uint256"
        },
        {
          "internalType": "bool",
          "name": "approved",
          "type": "bool"
        }
      ],
      "name": "setApprovalForAsset",
      "outputs": [],
      "stateMutability": "nonpayable",
      "type": "function"
    },
    {
      "inputs": [
        {
          "internalType": "bytes4",
          "name": "interfaceID",
          "type": "bytes4"
        }
      ],
      "name": "supportsInterface",
      "outputs": [
        {
          "internalType": "bool",
          "name": "",
          "type": "bool"
        }
      ],
      "stateMutability": "pure",
      "type": "function"
    },
    {
      "inputs": [
        {
          "internalType": "uint256",
          "name": "assetId",
          "type": "uint256"
        }
      ],
      "name": "symbol",
      "outputs": [
        {
          "internalType": "string",
          "name": "",
          "type": "string"
        }
      ],
      "stateMutability": "view",
      "type": "function"
    },
    {
      "inputs": [
        {
          "internalType": "uint256",
          "name": "assetId",
          "type": "uint256"
        },
        {
          "internalType": "uint256",
          "name": "share",
          "type": "uint256"
        },
        {
          "internalType": "bool",
          "name": "roundUp",
          "type": "bool"
        }
      ],
      "name": "toAmount",
      "outputs": [
        {
          "internalType": "uint256",
          "name": "amount",
          "type": "uint256"
        }
      ],
      "stateMutability": "view",
      "type": "function"
    },
    {
      "inputs": [
        {
          "internalType": "uint256",
          "name": "assetId",
          "type": "uint256"
        },
        {
          "internalType": "uint256",
          "name": "amount",
          "type": "uint256"
        },
        {
          "internalType": "bool",
          "name": "roundUp",
          "type": "bool"
        }
      ],
      "name": "toShare",
      "outputs": [
        {
          "internalType": "uint256",
          "name": "share",
          "type": "uint256"
        }
      ],
      "stateMutability": "view",
      "type": "function"
    },
    {
      "inputs": [
        {
          "internalType": "uint256",
          "name": "",
          "type": "uint256"
        }
      ],
      "name": "totalSupply",
      "outputs": [
        {
          "internalType": "uint256",
          "name": "",
          "type": "uint256"
        }
      ],
      "stateMutability": "view",
      "type": "function"
    },
    {
      "inputs": [
        {
          "internalType": "address",
          "name": "from",
          "type": "address"
        },
        {
          "internalType": "address",
          "name": "to",
          "type": "address"
        },
        {
          "internalType": "uint256",
          "name": "assetId",
          "type": "uint256"
        },
        {
          "internalType": "uint256",
          "name": "share",
          "type": "uint256"
        }
      ],
      "name": "transfer",
      "outputs": [],
      "stateMutability": "nonpayable",
      "type": "function"
    },
    {
      "inputs": [
        {
          "internalType": "address",
          "name": "from",
          "type": "address"
        },
        {
          "internalType": "address[]",
          "name": "tos",
          "type": "address[]"
        },
        {
          "internalType": "uint256",
          "name": "assetId",
          "type": "uint256"
        },
        {
          "internalType": "uint256[]",
          "name": "shares",
          "type": "uint256[]"
        }
      ],
      "name": "transferMultiple",
      "outputs": [],
      "stateMutability": "nonpayable",
      "type": "function"
    },
    {
      "inputs": [
        {
          "internalType": "uint256",
          "name": "tokenId",
          "type": "uint256"
        },
        {
          "internalType": "address",
          "name": "newOwner",
          "type": "address"
        },
        {
          "internalType": "bool",
          "name": "direct",
          "type": "bool"
        },
        {
          "internalType": "bool",
          "name": "renounce",
          "type": "bool"
        }
      ],
      "name": "transferOwnership",
      "outputs": [],
      "stateMutability": "nonpayable",
      "type": "function"
    },
    {
      "inputs": [
        {
          "internalType": "uint256",
          "name": "assetId",
          "type": "uint256"
        }
      ],
      "name": "uri",
      "outputs": [
        {
          "internalType": "string",
          "name": "",
          "type": "string"
        }
      ],
      "stateMutability": "view",
      "type": "function"
    },
    {
      "inputs": [],
      "name": "uriBuilder",
      "outputs": [
        {
          "internalType": "contract YieldBoxURIBuilder",
          "name": "",
          "type": "address"
        }
      ],
      "stateMutability": "view",
      "type": "function"
    },
    {
      "inputs": [
        {
          "internalType": "uint256",
          "name": "assetId",
          "type": "uint256"
        },
        {
          "internalType": "address",
          "name": "from",
          "type": "address"
        },
        {
          "internalType": "address",
          "name": "to",
          "type": "address"
        },
        {
          "internalType": "uint256",
          "name": "amount",
          "type": "uint256"
        },
        {
          "internalType": "uint256",
          "name": "share",
          "type": "uint256"
        }
      ],
      "name": "withdraw",
      "outputs": [
        {
          "internalType": "uint256",
          "name": "amountOut",
          "type": "uint256"
        },
        {
          "internalType": "uint256",
          "name": "shareOut",
          "type": "uint256"
        }
      ],
      "stateMutability": "nonpayable",
      "type": "function"
    },
    {
      "inputs": [],
      "name": "wrappedNative",
      "outputs": [
        {
          "internalType": "contract IWrappedNative",
          "name": "",
          "type": "address"
        }
      ],
      "stateMutability": "view",
      "type": "function"
    }
  ],
  "bytecode": "0x6101a06040523480156200001257600080fd5b50604051620063fd380380620063fd8339810160408190526200003591620002a9565b60408051808201825260088152670b2d2cad8c884def60c31b602080830191909152825180840190935260018352603160f81b908301529081906200007c8260006200020b565b610120526200008d8160016200020b565b61014052815160208084019190912060e052815190820120610100524660a0526200011b60e05161010051604080517f8b73c3c69bb8fe3d512ecc4cf759cc79239f7b179b0ffacaa9a75d522b39400f60208201529081019290925260608201524660808201523060a082015260009060c00160405160208183030381529060405280519060200120905090565b60809081523060c052604080519182018152600480835260006020840181905291830182905260608301829052600880546001808201835591909352835160039093027ff3f7a9fe364faab93b216da50a3214154f22a0a2b415b23a84c8169e8b636ee30180549497509550919350849260ff191691908490811115620001a657620001a6620002e8565b021790555060208201518154610100600160a81b0319166101006001600160a01b039283160217825560408301516001830180546001600160a01b031916918316919091179055606090920151600290910155918216610160521661018052620004e7565b60006020835110156200022b57620002238362000244565b90506200023e565b81620002388482620003a5565b5060ff90505b92915050565b600080829050601f815111156200027b578260405163305a27a960e01b815260040162000272919062000471565b60405180910390fd5b80516200028882620004c2565b179392505050565b6001600160a01b0381168114620002a657600080fd5b50565b60008060408385031215620002bd57600080fd5b8251620002ca8162000290565b6020840151909250620002dd8162000290565b809150509250929050565b634e487b7160e01b600052602160045260246000fd5b634e487b7160e01b600052604160045260246000fd5b600181811c908216806200032957607f821691505b6020821081036200034a57634e487b7160e01b600052602260045260246000fd5b50919050565b601f821115620003a0576000816000526020600020601f850160051c810160208610156200037b5750805b601f850160051c820191505b818110156200039c5782815560010162000387565b5050505b505050565b81516001600160401b03811115620003c157620003c1620002fe565b620003d981620003d2845462000314565b8462000350565b602080601f831160018114620004115760008415620003f85750858301515b600019600386901b1c1916600185901b1785556200039c565b600085815260208120601f198616915b82811015620004425788860151825594840194600190910190840162000421565b5085821015620004615787850151600019600388901b60f8161c191681555b5050505050600190811b01905550565b60006020808352835180602085015260005b81811015620004a15785810183015185820160400152820162000483565b506000604082860101526040601f19601f8301168501019250505092915050565b805160208083015191908110156200034a5760001960209190910360031b1b16919050565b60805160a05160c05160e0516101005161012051610140516101605161018051615e6d6200059060003960008181610bd901528181610bff01528181610f380152818161181b0152611b3d015260008181610b5801528181611f1601528181611fed015281816120720152612c46015260006125ba0152600061259001526000613ca901526000613c8101526000613bdc01526000613c0601526000613c300152615e6d6000f3fe60806040526004361061035e5760003560e01c80637c516e94116101c6578063b8489fb5116100f7578063daf210b111610095578063eb6d3a111161006f578063eb6d3a1114610b46578063f23a6e6114610b7a578063f242432a14610ba7578063fd330d4314610bc757600080fd5b8063daf210b114610ad6578063e985e9c514610af6578063eafe7a7414610b3157600080fd5b8063ce7f2714116100d1578063ce7f271414610a53578063cf35bdd014610a73578063d2423b5114610aa3578063d505accf14610ab657600080fd5b8063b8489fb5146109d7578063bc197c81146109f7578063bd85b03914610a2657600080fd5b80639eea5f6611610164578063a3823ac01161013e578063a3823ac014610943578063a75fcb1e14610956578063aba0784714610997578063b061db94146109b757600080fd5b80639eea5f66146108cd578063a123c33e146108ed578063a22cb4651461092357600080fd5b806384b0196e116101a057806384b0196e146108455780638d2e63b81461086d5780638eb22cdd1461088d5780639a9af97a146108ad57600080fd5b80637c516e94146107e55780637ecebe0014610805578063836a10401461082557600080fd5b80632eb2c2d6116102a057806354317d161161023e5780636cd57031116102185780636cd570311461077257806370400fbe1461079257806372dcad7b146107a557806375338079146107c557600080fd5b806354317d16146107125780635ba4d64e1461073257806365e2b81f1461075257600080fd5b8063442c15991161027a578063442c1599146106705780634956d158146106905780634e1273f4146106c55780634e41a1fb146106f257600080fd5b80632eb2c2d6146106095780633644e515146106295780633f47e6621461063e57600080fd5b8063150b7a021161030d578063215b595a116102e7578063215b595a1461051f5780632482ee271461053f5780632b800e3b146105745780632d4e1d52146105c257600080fd5b8063150b7a02146104715780631dbeeb4e146104cf5780631f0ee4c3146104ef57600080fd5b806301ffc9a71161033e57806301ffc9a7146104015780630411b252146104315780630e89341c1461045157600080fd5b8062ad800c14610363578062fdd58e1461039957806301e1e3b1146103df575b600080fd5b34801561036f57600080fd5b5061038361037e366004614b33565b610bfb565b6040516103909190614b9c565b60405180910390f35b3480156103a557600080fd5b506103d16103b4366004614bc4565b600560209081526000928352604080842090915290825290205481565b604051908152602001610390565b3480156103eb57600080fd5b506103ff6103fa366004614c3c565b610ccb565b005b34801561040d57600080fd5b5061042161041c366004614ccc565b610e49565b6040519015158152602001610390565b34801561043d57600080fd5b506103ff61044c366004614ce9565b610ee2565b34801561045d57600080fd5b5061038361046c366004614b33565b610f34565b34801561047d57600080fd5b506104b661048c366004614d71565b7f150b7a020000000000000000000000000000000000000000000000000000000095945050505050565b6040516001600160e01b03199091168152602001610390565b3480156104db57600080fd5b506103ff6104ea366004614c3c565b610fd6565b3480156104fb57600080fd5b5061050f61050a366004614b33565b6110a5565b6040516103909493929190614dd3565b34801561052b57600080fd5b506103ff61053a366004614e20565b61126e565b34801561054b57600080fd5b5061055f61055a366004614ebb565b611482565b60405163ffffffff9091168152602001610390565b34801561058057600080fd5b506105aa61058f366004614b33565b600b602052600090815260409020546001600160a01b031681565b6040516001600160a01b039091168152602001610390565b3480156105ce57600080fd5b506103d16105dd366004614f77565b600760209081526000948552604080862082529385528385208152918452828420909152825290205481565b34801561061557600080fd5b506103ff610624366004614fc8565b6116c5565b34801561063557600080fd5b506103d1611808565b34801561064a57600080fd5b5061065e610659366004614b33565b611817565b60405160ff9091168152602001610390565b34801561067c57600080fd5b506103d161068b366004615095565b6118e4565b34801561069c57600080fd5b506106b06106ab366004614b33565b6119c1565b60408051928352602083019190915201610390565b3480156106d157600080fd5b506106e56106e03660046150ce565b6119f3565b6040516103909190615176565b3480156106fe57600080fd5b5061038361070d366004614b33565b611b39565b34801561071e57600080fd5b506103d161072d366004614bc4565b611bbe565b34801561073e57600080fd5b506103ff61074d366004615189565b611cc4565b34801561075e57600080fd5b506103ff61076d3660046151dc565b611e49565b34801561077e57600080fd5b506106b061078d366004615241565b611e59565b6106b06107a03660046152cd565b611eb2565b3480156107b157600080fd5b506103ff6107c0366004615305565b61221a565b3480156107d157600080fd5b506106b06107e0366004615376565b61222b565b3480156107f157600080fd5b506103ff6108003660046153ad565b612440565b34801561081157600080fd5b506103d1610820366004615413565b6124eb565b34801561083157600080fd5b506103ff6108403660046152cd565b612509565b34801561085157600080fd5b5061085a612582565b6040516103909796959493929190615430565b34801561087957600080fd5b506106b06108883660046154ba565b612626565b34801561089957600080fd5b506103d16108a8366004615095565b612713565b3480156108b957600080fd5b506106b06108c83660046154ba565b6127d3565b3480156108d957600080fd5b506103ff6108e83660046152cd565b612b0a565b3480156108f957600080fd5b506105aa610908366004614b33565b600a602052600090815260409020546001600160a01b031681565b34801561092f57600080fd5b506103ff61093e36600461550c565b612bda565b6106b0610951366004615545565b612c39565b34801561096257600080fd5b50610421610971366004615545565b600360209081526000938452604080852082529284528284209052825290205460ff1681565b3480156109a357600080fd5b506103ff6109b23660046151dc565b612c80565b3480156109c357600080fd5b506103d16109d2366004614f77565b612c90565b3480156109e357600080fd5b506103ff6109f2366004615575565b612d40565b348015610a0357600080fd5b506104b6610a12366004614fc8565b63bc197c8160e01b98975050505050505050565b348015610a3257600080fd5b506103d1610a41366004614b33565b60066020526000908152604090205481565b348015610a5f57600080fd5b506103ff610a6e366004614b33565b612da1565b348015610a7f57600080fd5b50610a93610a8e366004614b33565b612e8d565b60405161039094939291906155e4565b6103ff610ab1366004615619565b612ed7565b348015610ac257600080fd5b506103ff610ad1366004615305565b612f99565b348015610ae257600080fd5b506103ff610af1366004615665565b612faa565b348015610b0257600080fd5b50610421610b113660046156db565b600460209081526000928352604080842090915290825290205460ff1681565b348015610b3d57600080fd5b506008546103d1565b348015610b5257600080fd5b506105aa7f000000000000000000000000000000000000000000000000000000000000000081565b348015610b8657600080fd5b506104b6610b95366004615709565b63f23a6e6160e01b9695505050505050565b348015610bb357600080fd5b506103ff610bc2366004615709565b61302b565b348015610bd357600080fd5b506105aa7f000000000000000000000000000000000000000000000000000000000000000081565b60607f00000000000000000000000000000000000000000000000000000000000000006001600160a01b031663aa1163b960088481548110610c3f57610c3f615773565b9060005260206000209060030201600960008681526020019081526020016000206000016040518363ffffffff1660e01b8152600401610c80929190615873565b600060405180830381865afa158015610c9d573d6000803e3d6000fd5b505050506040513d6000823e601f3d908101601f19168201604052610cc591908101906158a9565b92915050565b600060088681548110610ce057610ce0615773565b600091825260209091206003909102015460ff166004811115610d0557610d056155ac565b14610d575760405162461bcd60e51b815260206004820152600f60248201527f4e54463a204e6f74206e6174697665000000000000000000000000000000000060448201526064015b60405180910390fd5b8260005b81811015610e4057610def868683818110610d7857610d78615773565b9050602002016020810190610d8d9190615413565b60036000898986818110610da357610da3615773565b9050602002016020810190610db89190615413565b6001600160a01b031681526020808201929092526040908101600090812033825283528181208c825290925290205460ff16613153565b610e38868683818110610e0457610e04615773565b9050602002016020810190610e199190615413565b88868685818110610e2c57610e2c615773565b905060200201356131e6565b600101610d5b565b50505050505050565b60006001600160e01b031982167f01ffc9a7000000000000000000000000000000000000000000000000000000001480610eac57507fd9b67a26000000000000000000000000000000000000000000000000000000006001600160e01b03198316145b80610cc55750506001600160e01b0319167f0e89341c000000000000000000000000000000000000000000000000000000001490565b6001600160a01b0384166000908152600360209081526040808320338452825280832085845290915290205484908390610f2090839060ff16613153565b610f2c868686866132d5565b505050505050565b60607f00000000000000000000000000000000000000000000000000000000000000006001600160a01b0316635c6d843560088481548110610f7857610f78615773565b600091825260208083208784526009825260408085206006845281862054600a909452948190205490516001600160e01b031960e088901b168152610c809560039095029092019392916001600160a01b039091169060040161594b565b6000858152600a602052604090205485906001600160a01b0316331461103e5760405162461bcd60e51b815260206004820152601c60248201527f4e54463a2063616c6c6572206973206e6f7420746865206f776e6572000000006044820152606401610d4e565b8360005b8181101561109b5761109387878381811061105f5761105f615773565b90506020020160208101906110749190615413565b8987878581811061108757611087615773565b905060200201356133db565b600101611042565b5050505050505050565b6009602052600090815260409020805481906110c0906157c2565b80601f01602080910402602001604051908101604052809291908181526020018280546110ec906157c2565b80156111395780601f1061110e57610100808354040283529160200191611139565b820191906000526020600020905b81548152906001019060200180831161111c57829003601f168201915b50505050509080600101805461114e906157c2565b80601f016020809104026020016040519081016040528092919081815260200182805461117a906157c2565b80156111c75780601f1061119c576101008083540402835291602001916111c7565b820191906000526020600020905b8154815290600101906020018083116111aa57829003601f168201915b5050506002840154600385018054949560ff9092169491935091506111eb906157c2565b80601f0160208091040260200160405190810160405280929190818152602001828054611217906157c2565b80156112645780601f1061123957610100808354040283529160200191611264565b820191906000526020600020905b81548152906001019060200180831161124757829003601f168201915b5050505050905084565b6001600160a01b03861660009081526003602090815260408083203384528252808320868452909152902054869084906112ac90839060ff16613153565b856000805b8281101561143d5760008a8a838181106112cd576112cd615773565b90506020020160208101906112e29190615413565b6001600160a01b0316036113095760405163d92e233d60e01b815260040160405180910390fd5b86868281811061131b5761131b615773565b90506020020135600560008c8c8581811061133857611338615773565b905060200201602081019061134d9190615413565b6001600160a01b03168152602080820192909252604090810160009081208c825290925290208054909101905586868281811061138c5761138c615773565b90506020020135820191508989828181106113a9576113a9615773565b90506020020160208101906113be9190615413565b6001600160a01b03168b6001600160a01b0316336001600160a01b03167fc3d58168c5ae7397731d063d5bbf3d657854427343f4c083240f7aacaa2d0f628b8b8b8781811061140f5761140f615773565b9050602002013560405161142d929190918252602082015260400190565b60405180910390a46001016112b1565b506001600160a01b038a1660009081526005602090815260408083208a8452909152812080548392906114719084906159ee565b909155505050505050505050505050565b600854600090611491906134c1565b90506114a760008060008463ffffffff1661351b565b50604051806080016040528089898080601f016020809104026020016040519081016040528093929190818152602001838380828437600092019190915250505090825250604080516020601f8a018190048102820181019092528881529181019190899089908190840183828082843760009201919091525050509082525060ff861660208083019190915260408051601f87018390048302810183018252868152920191908690869081908401838280828437600092018290525093909452505063ffffffff841681526009602052604090208251909150819061158d9082615a49565b50602082015160018201906115a29082615a49565b50604082015160028201805460ff191660ff909216919091179055606082015160038201906115d19082615a49565b50505063ffffffff81166000908152600a60205260409081902080546001600160a01b0319163390811790915590517f0b0bcdebd2813328a89a9ed5971e5863201ed78fc4e0e2b271cceddb9ce9051090611637908b908b908b908b908b908990615b32565b60405180910390a26040805163ffffffff8316815260006020820181905291829133917fc3d58168c5ae7397731d063d5bbf3d657854427343f4c083240f7aacaa2d0f62910160405180910390a4604051339060009063ffffffff8416907f16b85f49bf01212961345d3016c9a531894accf62eb7680f2045d79185cc0ec0908390a4979650505050505050565b8483146117145760405162461bcd60e51b815260206004820152601860248201527f455243313135353a204c656e677468206d69736d6174636800000000000000006044820152606401610d4e565b611722888888888888613a49565b6001600160a01b0387163b1561109b5760405163bc197c8160e01b808252906001600160a01b0389169063bc197c819061176e9033908d908c908c908c908c908c908c90600401615bc7565b6020604051808303816000875af115801561178d573d6000803e3d6000fd5b505050506040513d601f19601f820116820180604052508101906117b19190615c2b565b6001600160e01b0319161461109b5760405162461bcd60e51b815260206004820152601260248201527f57726f6e672072657475726e2076616c756500000000000000000000000000006044820152606401610d4e565b6000611812613bcf565b905090565b60007f00000000000000000000000000000000000000000000000000000000000000006001600160a01b0316636d7cd0376008848154811061185b5761185b615773565b6000918252602080832087845260099091526040928390206002015492516001600160e01b031960e086901b1681526118a39360039093029091019160ff1690600401615c48565b602060405180830381865afa1580156118c0573d6000803e3d6000fd5b505050506040513d601f19601f82011682018060405250810190610cc59190615c66565b600080600885815481106118fa576118fa615773565b600091825260209091206003909102015460ff16600481111561191f5761191f6155ac565b1480611962575060026008858154811061193b5761193b615773565b600091825260209091206003909102015460ff166004811115611960576119606155ac565b145b1561196e5750816119ba565b6119b760066000868152602001908152602001600020546119ae6008878154811061199b5761199b615773565b9060005260206000209060030201613cfa565b85919085613d83565b90505b9392505050565b600081815260066020526040812054600880549192916119ec91908590811061199b5761199b615773565b9050915091565b606083828114611a455760405162461bcd60e51b815260206004820152601860248201527f455243313135353a204c656e677468206d69736d6174636800000000000000006044820152606401610d4e565b8067ffffffffffffffff811115611a5e57611a5e615893565b604051908082528060200260200182016040528015611a87578160200160208202803683370190505b50915060005b81811015611b2f5760056000888884818110611aab57611aab615773565b9050602002016020810190611ac09190615413565b6001600160a01b03166001600160a01b031681526020019081526020016000206000868684818110611af457611af4615773565b90506020020135815260200190815260200160002054838281518110611b1c57611b1c615773565b6020908102919091010152600101611a8d565b5050949350505050565b60607f00000000000000000000000000000000000000000000000000000000000000006001600160a01b03166384b1017d60088481548110611b7d57611b7d615773565b9060005260206000209060030201600960008681526020019081526020016000206001016040518363ffffffff1660e01b8152600401610c80929190615873565b60008060088381548110611bd457611bd4615773565b600091825260209091206003909102015460ff166004811115611bf957611bf96155ac565b1480611c3c5750600260088381548110611c1557611c15615773565b600091825260209091206003909102015460ff166004811115611c3a57611c3a6155ac565b145b15611c6b57506001600160a01b0382166000908152600560209081526040808320848452909152902054610cc5565b6119ba6006600084815260200190815260200160002054611c986008858154811061199b5761199b615773565b6001600160a01b0386166000908152600560209081526040808320888452909152812054929190613d83565b6000848152600a602052604090205484906001600160a01b03163314611d2c5760405162461bcd60e51b815260206004820152601c60248201527f4e54463a2063616c6c6572206973206e6f7420746865206f776e6572000000006044820152606401610d4e565b8215611e1a576001600160a01b038416151580611d465750815b611d925760405162461bcd60e51b815260206004820152601160248201527f4e54463a207a65726f20616464726573730000000000000000000000000000006044820152606401610d4e565b6000858152600a60205260408082205490516001600160a01b038088169392169188917f16b85f49bf01212961345d3016c9a531894accf62eb7680f2045d79185cc0ec09190a46000858152600a6020908152604080832080546001600160a01b0389166001600160a01b031991821617909155600b90925290912080549091169055611e42565b6000858152600b6020526040902080546001600160a01b0319166001600160a01b0386161790555b5050505050565b610f2c8686868686866000613df3565b600080808a6004811115611e6f57611e6f6155ac565b03611e9657611e8d611e846003308b8b612c90565b878787876127d3565b91509150611ea5565b611e8d611e848b8b8b8b612c90565b9850989650505050505050565b600080600060088681548110611eca57611eca615773565b6000918252602090912060039091020190506001815460ff166004811115611ef457611ef46155ac565b14611f125760405163a1e9dd9d60e01b815260040160405180910390fd5b80547f00000000000000000000000000000000000000000000000000000000000000006001600160a01b039081166101009092041614611f7e576040517f691ee3d200000000000000000000000000000000000000000000000000000000815260040160405180910390fd5b83341015611fb8576040517f1fbaba3500000000000000000000000000000000000000000000000000000000815260040160405180910390fd5b600086815260066020526040812054611fde90611fd484613cfa565b8791906000613f59565b9050611feb8688836133db565b7f00000000000000000000000000000000000000000000000000000000000000006001600160a01b031663d0e30db0866040518263ffffffff1660e01b81526004016000604051808303818588803b15801561204657600080fd5b505af115801561205a573d6000803e3d6000fd5b50505050600183015461209b91506001600160a01b037f00000000000000000000000000000000000000000000000000000000000000008116911687613fa4565b60018201546040516357d48e6360e11b8152600481018790526001600160a01b039091169063afa91cc690602401600060405180830381600087803b1580156120e357600080fd5b505af11580156120f7573d6000803e3d6000fd5b5050604080518a8152602081018990529081018490526060810187905260808101869052600060a08201526001600160a01b038916925033915081907f1ad178ff1b5d2c6dc0f3e4e2578b3d445e601c5beae2f63a73f237e480df2fd09060c00160405180910390a48434111561220d5760003361217587346159ee565b6040805160008152602081019182905261218e91615c83565b60006040518083038185875af1925050503d80600081146121cb576040519150601f19603f3d011682016040523d82523d6000602084013e6121d0565b606091505b505090508061220b576040517ff0c49d4400000000000000000000000000000000000000000000000000000000815260040160405180910390fd5b505b9396939550929350505050565b610e408787878787878760006140e6565b6001600160a01b0382166000908152600360209081526040808320338452825280832086845290915281205481908490869061226b90839060ff16613153565b60006008888154811061228057612280615773565b6000918252602090912060039091020190506002815460ff1660048111156122aa576122aa6155ac565b146122c85760405163a1e9dd9d60e01b815260040160405180910390fd5b6122d4868960016133db565b8054600182015460028301546040517f42842e0e0000000000000000000000000000000000000000000000000000000081526001600160a01b038b811660048301529283166024820152604481019190915261010090920416906342842e0e90606401600060405180830381600087803b15801561235157600080fd5b505af1158015612365573d6000803e3d6000fd5b505050506001818101546040516357d48e6360e11b815260048101929092526001600160a01b03169063afa91cc690602401600060405180830381600087803b1580156123b157600080fd5b505af11580156123c5573d6000803e3d6000fd5b5050604080518b8152600160208201819052818301819052606082018190526080820181905260a082015290516001600160a01b038a811694508b16925033917f1ad178ff1b5d2c6dc0f3e4e2578b3d445e601c5beae2f63a73f237e480df2fd0919081900360c00190a45060019788975095505050505050565b6040517fd505accf0000000000000000000000000000000000000000000000000000000081526001600160a01b0388811660048301528781166024830152604482018790526064820186905260ff8516608483015260a4820184905260c4820183905289169063d505accf9060e401600060405180830381600087803b1580156124c957600080fd5b505af11580156124dd573d6000803e3d6000fd5b505050505050505050505050565b6001600160a01b038116600090815260026020526040812054610cc5565b6000838152600a602052604090205483906001600160a01b031633146125715760405162461bcd60e51b815260206004820152601c60248201527f4e54463a2063616c6c6572206973206e6f7420746865206f776e6572000000006044820152606401610d4e565b61257c8385846133db565b50505050565b6000606080828080836125b57f000000000000000000000000000000000000000000000000000000000000000083614256565b6125e07f00000000000000000000000000000000000000000000000000000000000000006001614256565b604080516000808252602082019092527f0f000000000000000000000000000000000000000000000000000000000000009b939a50919850469750309650945092509050565b6001600160a01b0384166000908152600360209081526040808320338452825280832088845290915281205481908690889061266690839060ff16613153565b600060088a8154811061267b5761267b615773565b6000918252602082206003909102019150815460ff1660048111156126a2576126a26155ac565b036126c05760405163a1e9dd9d60e01b815260040160405180910390fd5b6002815460ff1660048111156126d8576126d86155ac565b036126f3576126e9818b8b8b614301565b9450945050612707565b612701818b8b8b8b8b6143e9565b94509450505b50509550959350505050565b6000806008858154811061272957612729615773565b600091825260209091206003909102015460ff16600481111561274e5761274e6155ac565b1480612791575060026008858154811061276a5761276a615773565b600091825260209091206003909102015460ff16600481111561278f5761278f6155ac565b145b1561279d5750816119ba565b6119b760066000868152602001908152602001600020546127ca6008878154811061199b5761199b615773565b85919085613f59565b6001600160a01b0384166000908152600360209081526040808320338452825280832088845290915281205481908690889061281390839060ff16613153565b600060088a8154811061282857612828615773565b6000918252602082206003909102019150815460ff16600481111561284f5761284f6155ac565b0361286d5760405163a1e9dd9d60e01b815260040160405180910390fd5b6002815460ff166004811115612885576128856155ac565b036128a35760405163a1e9dd9d60e01b815260040160405180910390fd5b60006128ae82613cfa565b9050866000036128dc5760008b8152600660205260408120546128d5918a91908490613f59565b96506128fc565b60008b8152600660205260409020546128f9908890836001613d83565b97505b612907898c896133db565b6001825460ff16600481111561291f5761291f6155ac565b0361294e5760018201548254612949916001600160a01b036101009092048216918d91168b614527565b612a32565b8154306101009091046001600160a01b0316036129875760018201546002830154612949918c916001600160a01b03909116908b6132d5565b8154600183015460028401546040517ff242432a0000000000000000000000000000000000000000000000000000000081526001600160a01b038e8116600483015292831660248201526044810191909152606481018b905260a06084820152600060a4820152610100909204169063f242432a9060c401600060405180830381600087803b158015612a1957600080fd5b505af1158015612a2d573d6000803e3d6000fd5b505050505b60018201546040516357d48e6360e11b8152600481018a90526001600160a01b039091169063afa91cc690602401600060405180830381600087803b158015612a7a57600080fd5b505af1158015612a8e573d6000803e3d6000fd5b5050604080518e8152602081018c90529081018a90526060810189905260808101889052600060a08201526001600160a01b03808d1693508d16915033907f1ad178ff1b5d2c6dc0f3e4e2578b3d445e601c5beae2f63a73f237e480df2fd09060c00160405180910390a4509599949850939650505050505050565b6001600160a01b0382166000908152600360209081526040808320338452825280832086845290915290205482908490612b4890839060ff16613153565b600060088681548110612b5d57612b5d615773565b600091825260209091206003909102015460ff166004811115612b8257612b826155ac565b14612bcf5760405162461bcd60e51b815260206004820152600f60248201527f4e54463a204e6f74206e617469766500000000000000000000000000000000006044820152606401610d4e565b611e428486856131e6565b6001600160a01b038216612c015760405163220efdeb60e11b815260040160405180910390fd5b306001600160a01b03831603612c2a57604051632893247960e01b815260040160405180910390fd5b612c35338383614671565b5050565b600080612c74612c6d60017f0000000000000000000000000000000000000000000000000000000000000000886000612c90565b8585611eb2565b91509150935093915050565b610f2c8686868686866001613df3565b60006001856004811115612ca657612ca66155ac565b1480612cc357506002856004811115612cc157612cc16155ac565b145b80612cdf57506003856004811115612cdd57612cdd6155ac565b145b612d2b5760405162461bcd60e51b815260206004820152601f60248201527f41737365744d616e616765723a2063616e6e6f7420616464204e6174697665006044820152606401610d4e565b612d378585858561351b565b95945050505050565b6001600160a01b038316612d675760405163220efdeb60e11b815260040160405180910390fd5b306001600160a01b03841603612d9057604051632893247960e01b815260040160405180910390fd5b612d9c338484846146de565b505050565b6000818152600b60205260409020546001600160a01b0316338114612e085760405162461bcd60e51b815260206004820152601c60248201527f4e54463a2063616c6c657220213d2070656e64696e67206f776e6572000000006044820152606401610d4e565b6000828152600a60205260408082205490516001600160a01b038085169392169185917f16b85f49bf01212961345d3016c9a531894accf62eb7680f2045d79185cc0ec09190a46000918252600a6020908152604080842080546001600160a01b039094166001600160a01b0319948516179055600b90915290912080549091169055565b60088181548110612e9d57600080fd5b600091825260209091206003909102018054600182015460029092015460ff821693506101009091046001600160a01b0390811692169084565b60005b8281101561257c5760008030868685818110612ef857612ef8615773565b9050602002810190612f0a9190615c9f565b604051612f18929190615ce6565b600060405180830381855af49150503d8060008114612f53576040519150601f19603f3d011682016040523d82523d6000602084013e612f58565b606091505b509150915081158015612f685750835b15612f8f57612f7681614793565b60405162461bcd60e51b8152600401610d4e9190614b9c565b5050600101612eda565b610e408787878787878760016140e6565b8260005b8181101561301c576001600160a01b03881660009081526003602090815260408083203384529091528120613014918a9190898986818110612ff257612ff2615773565b602090810292909201358352508101919091526040016000205460ff16613153565b600101612fae565b50610e40878787878787613a49565b6001600160a01b0386166000908152600360209081526040808320338452825280832087845290915290205461306590879060ff16613153565b613071868686866132d5565b6001600160a01b0385163b15610f2c5760405163f23a6e6160e01b808252906001600160a01b0387169063f23a6e61906130b99033908b908a908a908a908a90600401615cf6565b6020604051808303816000875af11580156130d8573d6000803e3d6000fd5b505050506040513d601f19601f820116820180604052508101906130fc9190615c2b565b6001600160e01b03191614610f2c5760405162461bcd60e51b815260206004820152601260248201527f57726f6e672072657475726e2076616c756500000000000000000000000000006044820152606401610d4e565b6001600160a01b0382163314806131675750805b8061319a57506001600160a01b038216600090815260046020908152604080832033845290915290205460ff1615156001145b612c355760405162461bcd60e51b815260206004820152601460248201527f5472616e73666572206e6f7420616c6c6f7765640000000000000000000000006044820152606401610d4e565b6001600160a01b03831661322b5760405162461bcd60e51b815260206004820152600c60248201526b4e6f2030206164647265737360a01b6044820152606401610d4e565b6001600160a01b03831660009081526005602090815260408083208584529091528120805483929061325e9084906159ee565b9091555050600082815260066020526040812080548392906132819084906159ee565b909155505060408051838152602081018390526000916001600160a01b0386169133917fc3d58168c5ae7397731d063d5bbf3d657854427343f4c083240f7aacaa2d0f6291015b60405180910390a4505050565b6001600160a01b03831661331a5760405162461bcd60e51b815260206004820152600c60248201526b4e6f2030206164647265737360a01b6044820152606401610d4e565b6001600160a01b03841660009081526005602090815260408083208584529091528120805483929061334d9084906159ee565b90915550506001600160a01b038316600090815260056020908152604080832085845290915281208054839290613385908490615d3b565b909155505060408051838152602081018390526001600160a01b03808616929087169133917fc3d58168c5ae7397731d063d5bbf3d657854427343f4c083240f7aacaa2d0f62910160405180910390a450505050565b6001600160a01b0383166134205760405162461bcd60e51b815260206004820152600c60248201526b4e6f2030206164647265737360a01b6044820152606401610d4e565b6001600160a01b038316600090815260056020908152604080832085845290915281208054839290613453908490615d3b565b909155505060008281526006602052604081208054839290613476908490615d3b565b909155505060408051838152602081018390526001600160a01b0385169160009133917fc3d58168c5ae7397731d063d5bbf3d657854427343f4c083240f7aacaa2d0f6291016132c8565b600063ffffffff8211156135175760405162461bcd60e51b815260206004820152601b60248201527f426f72696e674d6174683a2075696e743332204f766572666c6f7700000000006044820152606401610d4e565b5090565b600060076000866004811115613533576135336155ac565b6004811115613544576135446155ac565b8152602080820192909252604090810160009081206001600160a01b038089168352908452828220908716825283528181208582529092528120549150819003613a41578115806135a7575060018560048111156135a4576135a46155ac565b14155b6135f35760405162461bcd60e51b815260206004820152601e60248201527f5969656c64426f783a204e6f20746f6b656e496420666f7220455243323000006044820152606401610d4e565b6000856004811115613607576136076155ac565b148061377e5750826001600160a01b03166330fa738c6040518163ffffffff1660e01b8152600401602060405180830381865afa15801561364c573d6000803e3d6000fd5b505050506040513d601f19601f820116820180604052508101906136709190615d4e565b6004811115613681576136816155ac565b856004811115613693576136936155ac565b1480156137125750826001600160a01b031663f6b4dfb46040518163ffffffff1660e01b8152600401602060405180830381865afa1580156136d9573d6000803e3d6000fd5b505050506040513d601f19601f820116820180604052508101906136fd9190615d6b565b6001600160a01b0316846001600160a01b0316145b801561377e5750826001600160a01b03166317d70f7c6040518163ffffffff1660e01b8152600401602060405180830381865afa158015613757573d6000803e3d6000fd5b505050506040513d601f19601f8201168201806040525081019061377b9190615d88565b82145b6137ca5760405162461bcd60e51b815260206004820152601b60248201527f5969656c64426f783a205374726174656779206d69736d6174636800000000006044820152606401610d4e565b60008560048111156137de576137de6155ac565b1480156137f257506001600160a01b038416155b8061380657506001600160a01b0384163b15155b6138525760405162461bcd60e51b815260206004820152601560248201527f5969656c64426f783a204e6f74206120746f6b656e00000000000000000000006044820152606401610d4e565b600880549050905060086040518060800160405280876004811115613879576138796155ac565b81526001600160a01b038088166020808401919091529087166040830152606090910185905282546001818101855560009485529190932082516003909402018054929390929091839160ff1916908360048111156138da576138da6155ac565b0217905550602082015181547fffffffffffffffffffffff0000000000000000000000000000000000000000ff166101006001600160a01b039283160217825560408301516001830180546001600160a01b031916919092161790556060909101516002909101558060076000876004811115613959576139596155ac565b600481111561396a5761396a6155ac565b8152602080820192909252604090810160009081206001600160a01b0389811683529084528282209088168252835281812086825283528181209390935580518281529182019290925282917f6bb7ff708619ba0610cba295a58592e0451dee2622938c8755667688daf3529b910160405180910390a281846001600160a01b03168660048111156139fe576139fe6155ac565b604080516001600160a01b0388168152602081018690527f30605d4cd099421ed12ca1ba642a1ea2659f679b5cdd0ccd032586640eeaff43910160405180910390a45b949350505050565b6001600160a01b038516613a705760405163d92e233d60e01b815260040160405180910390fd5b8260005b81811015613b6a57838382818110613a8e57613a8e615773565b90506020020135600560008a6001600160a01b03166001600160a01b031681526020019081526020016000206000888885818110613ace57613ace615773565b90506020020135815260200190815260200160002060008282540392505081905550838382818110613b0257613b02615773565b9050602002013560056000896001600160a01b03166001600160a01b031681526020019081526020016000206000888885818110613b4257613b42615773565b6020908102929092013583525081019190915260400160002080549091019055600101613a74565b50856001600160a01b0316876001600160a01b0316336001600160a01b03167f4a39dc06d4c0dbc64b70af90fd698a233a518aa5d07e595d983b8c0526c8f7fb88888888604051613bbe9493929190615da1565b60405180910390a450505050505050565b6000306001600160a01b037f000000000000000000000000000000000000000000000000000000000000000016148015613c2857507f000000000000000000000000000000000000000000000000000000000000000046145b15613c5257507f000000000000000000000000000000000000000000000000000000000000000090565b611812604080517f8b73c3c69bb8fe3d512ecc4cf759cc79239f7b179b0ffacaa9a75d522b39400f60208201527f0000000000000000000000000000000000000000000000000000000000000000918101919091527f000000000000000000000000000000000000000000000000000000000000000060608201524660808201523060a082015260009060c00160405160208183030381529060405280519060200120905090565b6001810154604080517fce845d1d00000000000000000000000000000000000000000000000000000000815290516000926001600160a01b03169163ce845d1d9160048083019260209291908290030181865afa158015613d5f573d6000803e3d6000fd5b505050506040513d601f19601f82011682018060405250810190610cc59190615d88565b600082613d8f81615dc8565b9350613da190506305f5e10085615d3b565b935083613dae8487615de1565b613db89190615df8565b9050818015613dda57508483613dce8684615de1565b613dd89190615df8565b105b15613a415780613de981615dc8565b9695505050505050565b84421115613e435760405162461bcd60e51b815260206004820181905260248201527f5969656c64426f785065726d69743a206578706972656420646561646c696e656044820152606401610d4e565b60007f8b2a9c07938b6d62909dc00103ea4e71485caf5019e7fa95b0a87e13825663b08888613e718b6147f2565b6040805160208101959095526001600160a01b039384169085015291166060830152608082015260a0810187905260c0016040516020818303038152906040528051906020012090506000613ec58261481a565b90506000613ed582888888614862565b9050896001600160a01b0316816001600160a01b031614613f425760405162461bcd60e51b815260206004820152602160248201527f5969656c64426f785065726d69743a20696e76616c6964207369676e617475726044820152606560f81b6064820152608401610d4e565b613f4d8a8a86614671565b50505050505050505050565b600082613f6581615dc8565b9350613f7790506305f5e10085615d3b565b935082613f848587615de1565b613f8e9190615df8565b9050818015613dda57508484613dce8584615de1565b604080516001600160a01b038481166024830152604480830185905283518084039091018152606490920183526020820180517bffffffffffffffffffffffffffffffffffffffffffffffffffffffff167fa9059cbb00000000000000000000000000000000000000000000000000000000179052915160009283929087169161402e9190615c83565b6000604051808303816000865af19150503d806000811461406b576040519150601f19603f3d011682016040523d82523d6000602084013e614070565b606091505b509150915081801561409a57508051158061409a57508080602001905181019061409a9190615e1a565b611e425760405162461bcd60e51b815260206004820152601c60248201527f426f72696e6745524332303a205472616e73666572206661696c6564000000006044820152606401610d4e565b844211156141365760405162461bcd60e51b815260206004820181905260248201527f5969656c64426f785065726d69743a206578706972656420646561646c696e656044820152606401610d4e565b60007f54a3a030f29b87fffaacb4fafc4220ef9c3eba67ec74140bd9e716826be356b18989896141658d6147f2565b6040805160208101969096526001600160a01b0394851690860152929091166060840152608083015260a082015260c0810187905260e00160405160208183030381529060405280519060200120905060006141c08261481a565b905060006141d082888888614862565b90508a6001600160a01b0316816001600160a01b03161461423d5760405162461bcd60e51b815260206004820152602160248201527f5969656c64426f785065726d69743a20696e76616c6964207369676e617475726044820152606560f81b6064820152608401610d4e565b6142498b8b8b876146de565b5050505050505050505050565b606060ff8314614270576142698361488a565b9050610cc5565b81805461427c906157c2565b80601f01602080910402602001604051908101604052809291908181526020018280546142a8906157c2565b80156142f55780601f106142ca576101008083540402835291602001916142f5565b820191906000526020600020905b8154815290600101906020018083116142d857829003601f168201915b50505050509050610cc5565b600080614310848660016131e6565b60018681015460405163f3fef3a360e01b81526001600160a01b038681166004830152602482019390935291169063f3fef3a390604401600060405180830381600087803b15801561436157600080fd5b505af1158015614375573d6000803e3d6000fd5b50506040805188815260016020820181905281830181905260608201819052608082015290516001600160a01b0387811694508816925033917fd4594021cdd03e2c0abc8108cba8d75a347eaf64acaddede25df63f6ef9e2420919081900360a00190a45060019050805b94509492505050565b60008060006143f789613cfa565b9050836000036144255760008881526006602052604090205461441e908690836001613f59565b9350614445565b600088815260066020526040812054614442918691908490613d83565b94505b6144508789866131e6565b600189015460405163f3fef3a360e01b81526001600160a01b038881166004830152602482018890529091169063f3fef3a390604401600060405180830381600087803b1580156144a057600080fd5b505af11580156144b4573d6000803e3d6000fd5b5050604080518b81526020810189905290810187905260608101869052608081018590526001600160a01b03808a1693508a16915033907fd4594021cdd03e2c0abc8108cba8d75a347eaf64acaddede25df63f6ef9e24209060a00160405180910390a450929791965090945050505050565b604080516001600160a01b0385811660248301528481166044830152606480830185905283518084039091018152608490920183526020820180517bffffffffffffffffffffffffffffffffffffffffffffffffffffffff167f23b872dd0000000000000000000000000000000000000000000000000000000017905291516000928392908816916145b99190615c83565b6000604051808303816000865af19150503d80600081146145f6576040519150601f19603f3d011682016040523d82523d6000602084013e6145fb565b606091505b50915091508180156146255750805115806146255750808060200190518101906146259190615e1a565b610f2c5760405162461bcd60e51b815260206004820181905260248201527f426f72696e6745524332303a205472616e7366657246726f6d206661696c65646044820152606401610d4e565b6001600160a01b03838116600081815260046020908152604080832094871680845294825291829020805460ff191686151590811790915591519182527f17307eab39ab6107e8899845ad3d59bd9653f200f220920489ca2b5937696c31910160405180910390a3505050565b6008548210614719576040517f348ae76700000000000000000000000000000000000000000000000000000000815260040160405180910390fd5b6001600160a01b038481166000818152600360209081526040808320948816808452948252808320878452825291829020805460ff19168615159081179091558251878152918201527f6aceb1b079beeabdd8c2f30cd221ca27ec52e9d0aef6bb229cc175cf15dd778b910160405180910390a350505050565b60606044825110156147d857505060408051808201909152601d81527f5472616e73616374696f6e2072657665727465642073696c656e746c79000000602082015290565b60048201915081806020019051810190610cc591906158a9565b6001600160a01b03811660009081526002602052604090208054600181018255905b50919050565b6000610cc5614827613bcf565b836040517f19010000000000000000000000000000000000000000000000000000000000008152600281019290925260228201526042902090565b6000806000614873878787876148c9565b915091506148808161498a565b5095945050505050565b6060600061489783614af2565b604080516020808252818301909252919250600091906020820181803683375050509182525060208101929092525090565b6000807f7fffffffffffffffffffffffffffffff5d576e7357a4501ddfe92f46681b20a083111561490057506000905060036143e0565b6040805160008082526020820180845289905260ff881692820192909252606081018690526080810185905260019060a0016020604051602081039080840390855afa158015614954573d6000803e3d6000fd5b5050604051601f1901519150506001600160a01b03811661497d576000600192509250506143e0565b9660009650945050505050565b600081600481111561499e5761499e6155ac565b036149a65750565b60018160048111156149ba576149ba6155ac565b03614a075760405162461bcd60e51b815260206004820152601860248201527f45434453413a20696e76616c6964207369676e617475726500000000000000006044820152606401610d4e565b6002816004811115614a1b57614a1b6155ac565b03614a685760405162461bcd60e51b815260206004820152601f60248201527f45434453413a20696e76616c6964207369676e6174757265206c656e677468006044820152606401610d4e565b6003816004811115614a7c57614a7c6155ac565b03614aef5760405162461bcd60e51b815260206004820152602260248201527f45434453413a20696e76616c6964207369676e6174757265202773272076616c60448201527f75650000000000000000000000000000000000000000000000000000000000006064820152608401610d4e565b50565b600060ff8216601f811115610cc5576040517fb3512b0c00000000000000000000000000000000000000000000000000000000815260040160405180910390fd5b600060208284031215614b4557600080fd5b5035919050565b60005b83811015614b67578181015183820152602001614b4f565b50506000910152565b60008151808452614b88816020860160208601614b4c565b601f01601f19169290920160200192915050565b6020815260006119ba6020830184614b70565b6001600160a01b0381168114614aef57600080fd5b60008060408385031215614bd757600080fd5b8235614be281614baf565b946020939093013593505050565b60008083601f840112614c0257600080fd5b50813567ffffffffffffffff811115614c1a57600080fd5b6020830191508360208260051b8501011115614c3557600080fd5b9250929050565b600080600080600060608688031215614c5457600080fd5b85359450602086013567ffffffffffffffff80821115614c7357600080fd5b614c7f89838a01614bf0565b90965094506040880135915080821115614c9857600080fd5b50614ca588828901614bf0565b969995985093965092949392505050565b6001600160e01b031981168114614aef57600080fd5b600060208284031215614cde57600080fd5b81356119ba81614cb6565b60008060008060808587031215614cff57600080fd5b8435614d0a81614baf565b93506020850135614d1a81614baf565b93969395505050506040820135916060013590565b60008083601f840112614d4157600080fd5b50813567ffffffffffffffff811115614d5957600080fd5b602083019150836020828501011115614c3557600080fd5b600080600080600060808688031215614d8957600080fd5b8535614d9481614baf565b94506020860135614da481614baf565b935060408601359250606086013567ffffffffffffffff811115614dc757600080fd5b614ca588828901614d2f565b608081526000614de66080830187614b70565b8281036020840152614df88187614b70565b905060ff851660408401528281036060840152614e158185614b70565b979650505050505050565b60008060008060008060808789031215614e3957600080fd5b8635614e4481614baf565b9550602087013567ffffffffffffffff80821115614e6157600080fd5b614e6d8a838b01614bf0565b9097509550604089013594506060890135915080821115614e8d57600080fd5b50614e9a89828a01614bf0565b979a9699509497509295939492505050565b60ff81168114614aef57600080fd5b60008060008060008060006080888a031215614ed657600080fd5b873567ffffffffffffffff80821115614eee57600080fd5b614efa8b838c01614d2f565b909950975060208a0135915080821115614f1357600080fd5b614f1f8b838c01614d2f565b909750955060408a01359150614f3482614eac565b90935060608901359080821115614f4a57600080fd5b50614f578a828b01614d2f565b989b979a50959850939692959293505050565b60058110614aef57600080fd5b60008060008060808587031215614f8d57600080fd5b8435614f9881614f6a565b93506020850135614fa881614baf565b92506040850135614fb881614baf565b9396929550929360600135925050565b60008060008060008060008060a0898b031215614fe457600080fd5b8835614fef81614baf565b97506020890135614fff81614baf565b9650604089013567ffffffffffffffff8082111561501c57600080fd5b6150288c838d01614bf0565b909850965060608b013591508082111561504157600080fd5b61504d8c838d01614bf0565b909650945060808b013591508082111561506657600080fd5b506150738b828c01614d2f565b999c989b5096995094979396929594505050565b8015158114614aef57600080fd5b6000806000606084860312156150aa57600080fd5b833592506020840135915060408401356150c381615087565b809150509250925092565b600080600080604085870312156150e457600080fd5b843567ffffffffffffffff808211156150fc57600080fd5b61510888838901614bf0565b9096509450602087013591508082111561512157600080fd5b5061512e87828801614bf0565b95989497509550505050565b60008151808452602080850194506020840160005b8381101561516b5781518752958201959082019060010161514f565b509495945050505050565b6020815260006119ba602083018461513a565b6000806000806080858703121561519f57600080fd5b8435935060208501356151b181614baf565b925060408501356151c181615087565b915060608501356151d181615087565b939692955090935050565b60008060008060008060c087890312156151f557600080fd5b863561520081614baf565b9550602087013561521081614baf565b945060408701359350606087013561522781614eac565b9598949750929560808101359460a0909101359350915050565b600080600080600080600080610100898b03121561525e57600080fd5b883561526981614f6a565b9750602089013561527981614baf565b9650604089013561528981614baf565b95506060890135945060808901356152a081614baf565b935060a08901356152b081614baf565b979a969950949793969295929450505060c08201359160e0013590565b6000806000606084860312156152e257600080fd5b8335925060208401356152f481614baf565b929592945050506040919091013590565b600080600080600080600060e0888a03121561532057600080fd5b873561532b81614baf565b9650602088013561533b81614baf565b95506040880135945060608801359350608088013561535981614eac565b9699959850939692959460a0840135945060c09093013592915050565b60008060006060848603121561538b57600080fd5b83359250602084013561539d81614baf565b915060408401356150c381614baf565b600080600080600080600080610100898b0312156153ca57600080fd5b88356153d581614baf565b975060208901356153e581614baf565b965060408901356153f581614baf565b9550606089013594506080890135935060a08901356152b081614eac565b60006020828403121561542557600080fd5b81356119ba81614baf565b7fff000000000000000000000000000000000000000000000000000000000000008816815260e06020820152600061546b60e0830189614b70565b828103604084015261547d8189614b70565b90508660608401526001600160a01b03861660808401528460a084015282810360c08401526154ac818561513a565b9a9950505050505050505050565b600080600080600060a086880312156154d257600080fd5b8535945060208601356154e481614baf565b935060408601356154f481614baf565b94979396509394606081013594506080013592915050565b6000806040838503121561551f57600080fd5b823561552a81614baf565b9150602083013561553a81615087565b809150509250929050565b60008060006060848603121561555a57600080fd5b833561556581614baf565b925060208401356152f481614baf565b60008060006060848603121561558a57600080fd5b833561559581614baf565b92506020840135915060408401356150c381615087565b634e487b7160e01b600052602160045260246000fd5b600581106155e057634e487b7160e01b600052602160045260246000fd5b9052565b608081016155f282876155c2565b6001600160a01b039485166020830152929093166040840152606090920191909152919050565b60008060006040848603121561562e57600080fd5b833567ffffffffffffffff81111561564557600080fd5b61565186828701614bf0565b90945092505060208401356150c381615087565b6000806000806000806080878903121561567e57600080fd5b863561568981614baf565b9550602087013561569981614baf565b9450604087013567ffffffffffffffff808211156156b657600080fd5b6156c28a838b01614bf0565b90965094506060890135915080821115614e8d57600080fd5b600080604083850312156156ee57600080fd5b82356156f981614baf565b9150602083013561553a81614baf565b60008060008060008060a0878903121561572257600080fd5b863561572d81614baf565b9550602087013561573d81614baf565b94506040870135935060608701359250608087013567ffffffffffffffff81111561576757600080fd5b614e9a89828a01614d2f565b634e487b7160e01b600052603260045260246000fd5b80546157988360ff83166155c2565b60081c6001600160a01b039081166020840152600182015416604083015260020154606090910152565b600181811c908216806157d657607f821691505b60208210810361481457634e487b7160e01b600052602260045260246000fd5b60008154615803816157c2565b808552602060018381168015615820576001811461583a57615868565b60ff1985168884015283151560051b880183019550615868565b866000528260002060005b858110156158605781548a8201860152908301908401615845565b890184019650505b505050505092915050565b61587d8184615789565b60a0608082015260006119b760a08301846157f6565b634e487b7160e01b600052604160045260246000fd5b6000602082840312156158bb57600080fd5b815167ffffffffffffffff808211156158d357600080fd5b818401915084601f8301126158e757600080fd5b8151818111156158f9576158f9615893565b604051601f8201601f19908116603f0116810190838211818310171561592157615921615893565b8160405282815287602084870101111561593a57600080fd5b614e15836020830160208801614b4c565b6159558186615789565b60e06080820152608060e082015260006159736101608301866157f6565b60df19808483030161010085015261598e82600189016157f6565b915060ff6002880154166101208501528084830301610140850152506159b781600388016157f6565b9150508360a08301526001600160a01b03831660c083015295945050505050565b634e487b7160e01b600052601160045260246000fd5b81810381811115610cc557610cc56159d8565b601f821115612d9c576000816000526020600020601f850160051c81016020861015615a2a5750805b601f850160051c820191505b81811015610f2c57828155600101615a36565b815167ffffffffffffffff811115615a6357615a63615893565b615a7781615a7184546157c2565b84615a01565b602080601f831160018114615aac5760008415615a945750858301515b600019600386901b1c1916600185901b178555610f2c565b600085815260208120601f198616915b82811015615adb57888601518255948401946001909101908401615abc565b5085821015615af95787850151600019600388901b60f8161c191681555b5050505050600190811b01905550565b81835281816020850137506000828201602090810191909152601f909101601f19169091010190565b608081526000615b4660808301888a615b09565b8281036020840152615b59818789615b09565b91505060ff8416604083015263ffffffff83166060830152979650505050505050565b81835260007f07ffffffffffffffffffffffffffffffffffffffffffffffffffffffffffffff831115615bae57600080fd5b8260051b80836020870137939093016020019392505050565b60006001600160a01b03808b168352808a1660208401525060a06040830152615bf460a08301888a615b7c565b8281036060840152615c07818789615b7c565b90508281036080840152615c1c818587615b09565b9b9a5050505050505050505050565b600060208284031215615c3d57600080fd5b81516119ba81614cb6565b60a08101615c568285615789565b60ff831660808301529392505050565b600060208284031215615c7857600080fd5b81516119ba81614eac565b60008251615c95818460208701614b4c565b9190910192915050565b6000808335601e19843603018112615cb657600080fd5b83018035915067ffffffffffffffff821115615cd157600080fd5b602001915036819003821315614c3557600080fd5b8183823760009101908152919050565b60006001600160a01b03808916835280881660208401525085604083015284606083015260a06080830152615d2f60a083018486615b09565b98975050505050505050565b80820180821115610cc557610cc56159d8565b600060208284031215615d6057600080fd5b81516119ba81614f6a565b600060208284031215615d7d57600080fd5b81516119ba81614baf565b600060208284031215615d9a57600080fd5b5051919050565b604081526000615db5604083018688615b7c565b8281036020840152614e15818587615b7c565b600060018201615dda57615dda6159d8565b5060010190565b8082028115828204841417610cc557610cc56159d8565b600082615e1557634e487b7160e01b600052601260045260246000fd5b500490565b600060208284031215615e2c57600080fd5b81516119ba8161508756fea2646970667358221220ae4e633e7ba08408ebfdec271fc6e272f6743934ffb671433bd1fba4004484f864736f6c63430008160033",
  "linkReferences": {},
  "deployedLinkReferences": {}
}