{
  "_format": "hh-sol-artifact-1",
  "contractName": "YieldBoxRebaseMock",
  "sourceName": "contracts/mocks/YieldBoxRebaseMock.sol",
  "abi": [
    {
      "inputs": [
        {
          "internalType": "uint256",
          "name": "share",
          "type": "uint256"
        },
        {
          "internalType": "uint256",
          "name": "amount",
          "type": "uint256"
        }
      ],
      "name": "deposit",
      "outputs": [
        {
          "internalType": "uint256",
          "name": "shareOut",
          "type": "uint256"
        },
        {
          "internalType": "uint256",
          "name": "amountOut",
          "type": "uint256"
        }
      ],
      "stateMutability": "nonpayable",
      "type": "function"
    },
    {
      "inputs": [
        {
          "internalType": "uint256",
          "name": "amount",
          "type": "uint256"
        }
      ],
      "name": "gain",
      "outputs": [],
      "stateMutability": "nonpayable",
      "type": "function"
    },
    {
      "inputs": [
        {
          "internalType": "uint256",
          "name": "amount",
          "type": "uint256"
        }
      ],
      "name": "lose",
      "outputs": [],
      "stateMutability": "nonpayable",
      "type": "function"
    },
    {
      "inputs": [
        {
          "internalType": "uint256",
          "name": "share",
          "type": "uint256"
        },
        {
          "internalType": "bool",
          "name": "roundUp",
          "type": "bool"
        }
      ],
      "name": "toAmount",
      "outputs": [
        {
          "internalType": "uint256",
          "name": "amount",
          "type": "uint256"
        }
      ],
      "stateMutability": "view",
      "type": "function"
    },
    {
      "inputs": [
        {
          "internalType": "uint256",
          "name": "amount",
          "type": "uint256"
        },
        {
          "internalType": "bool",
          "name": "roundUp",
          "type": "bool"
        }
      ],
      "name": "toShare",
      "outputs": [
        {
          "internalType": "uint256",
          "name": "share",
          "type": "uint256"
        }
      ],
      "stateMutability": "view",
      "type": "function"
    },
    {
      "inputs": [],
      "name": "totalAmount",
      "outputs": [
        {
          "internalType": "uint256",
          "name": "",
          "type": "uint256"
        }
      ],
      "stateMutability": "view",
      "type": "function"
    },
    {
      "inputs": [],
      "name": "totalShares",
      "outputs": [
        {
          "internalType": "uint256",
          "name": "",
          "type": "uint256"
        }
      ],
      "stateMutability": "view",
      "type": "function"
    },
    {
      "inputs": [
        {
          "internalType": "uint256",
          "name": "share",
          "type": "uint256"
        },
        {
          "internalType": "uint256",
          "name": "amount",
          "type": "uint256"
        }
      ],
      "name": "withdraw",
      "outputs": [
        {
          "internalType": "uint256",
          "name": "shareOut",
          "type": "uint256"
        },
        {
          "internalType": "uint256",
          "name": "amountOut",
          "type": "uint256"
        }
      ],
      "stateMutability": "nonpayable",
      "type": "function"
    }
  ],
  "bytecode": "0x608080604052346100165761043c908161001c8239f35b600080fdfe60406080815260048036101561001457600080fd5b600090813560e01c8063022e6df61461033c5780630588ede4146102fc5780631a39d8ef146102df5780631c7116101461024d5780633a98ef391461022e578063441a3e701461017c5780636832a266146101595763e2bbb1581461007857600080fd5b34610155576100863661037e565b919080806100fd57505060015461009d8454610394565b916305f5e10082018092116100ea5750906100bb6100c092846103c6565b6103d9565b915b6100cd8282546103b9565b90556100db826001546103b9565b60015582519182526020820152f35b634e487b7160e01b855260119052602484fd5b909392506001549161010f8454610394565b906305f5e10084018094116100ea5750806100bb610134856100bb61013b95876103c6565b94856103c6565b10610147575b906100c2565b61015090610394565b610141565b5080fd5b503461015557602036600319011261015557610177903582546103f9565b815580f35b50346101555761018b3661037e565b919080806101f75750506001546101a28454610394565b916305f5e10082018092116100ea57506101c8816100bb610134856100bb8896876103c6565b106101e9575b915b6101db8282546103f9565b90556100db826001546103f9565b6101f290610394565b6101ce565b91909392506001549161020a8454610394565b916305f5e10084018094116100ea575061022892916100bb916103c6565b906101d0565b8284346101555781600319360112610155576020906001549051908152f35b5091346101555761025d3661035a565b906001549361026c8154610394565b906305f5e10086018096116102cc57506020955061028e856100bb83856103c6565b94836102b3575b5050506102a3575b51908152f35b906102ad90610394565b9061029d565b6102c39293506100bb90866103c6565b10388080610295565b634e487b7160e01b815260118752602490fd5b828434610155578160031936011261015557602091549051908152f35b5091346101555761030c3661035a565b9060015461031a8554610394565b946305f5e10082018092116102cc57506020955061028e856100bb83856103c6565b503461015557602036600319011261015557610177903582546103b9565b6040906003190112610379576004359060243580151581036103795790565b600080fd5b6040906003190112610379576004359060243590565b60001981146103a35760010190565b634e487b7160e01b600052601160045260246000fd5b919082018092116103a357565b818102929181159184041417156103a357565b81156103e3570490565b634e487b7160e01b600052601260045260246000fd5b919082039182116103a35756fea26469706673582212208303f14405a12391b3b021a3a05a3c33dd3416c770bddfc0695c2e789d7fb76964736f6c63430008120033",
  "linkReferences": {},
  "deployedLinkReferences": {}
}