{
  "_format": "hh-sol-artifact-1",
  "contractName": "AccessControlledOffchainAggregatorMock",
  "sourceName": "contracts/ChainlinkFeedMock.sol",
  "abi": [
    {
      "inputs": [],
      "name": "maxAnswer",
      "outputs": [
        {
          "internalType": "int192",
          "name": "",
          "type": "int192"
        }
      ],
      "stateMutability": "view",
      "type": "function"
    },
    {
      "inputs": [],
      "name": "minAnswer",
      "outputs": [
        {
          "internalType": "int192",
          "name": "",
          "type": "int192"
        }
      ],
      "stateMutability": "view",
      "type": "function"
    }
  ],
  "bytecode": "0x6080604052600080546001600160c01b03199081166001600160bf1b0317909155600180549091169055348015603457600080fd5b50609c806100436000396000f3fe6080604052348015600f57600080fd5b506004361060325760003560e01c806322adbc7814603757806370da2f6714605a575b600080fd5b60015460439060170b81565b60405160179190910b815260200160405180910390f35b60005460439060170b8156fea264697066735822122044404f87200ad44d059e7796a23b373e69702a100b072bf87024fbf98bc50b9b64736f6c63430008160033",
  "linkReferences": {},
  "deployedLinkReferences": {}
}