{
  "_format": "hh-sol-artifact-1",
  "contractName": "FlashBorrowerMock",
  "sourceName": "contracts/FlashBorrowerMock.sol",
  "abi": [
    {
      "inputs": [
        {
          "internalType": "contract IERC3156FlashLenderMock",
          "name": "_lender",
          "type": "address"
        }
      ],
      "stateMutability": "nonpayable",
      "type": "constructor"
    },
    {
      "inputs": [
        {
          "internalType": "address",
          "name": "token",
          "type": "address"
        },
        {
          "internalType": "uint256",
          "name": "amount",
          "type": "uint256"
        }
      ],
      "name": "approveRepayment",
      "outputs": [],
      "stateMutability": "nonpayable",
      "type": "function"
    },
    {
      "inputs": [
        {
          "internalType": "address",
          "name": "token",
          "type": "address"
        },
        {
          "internalType": "uint256",
          "name": "amount",
          "type": "uint256"
        }
      ],
      "name": "flashBorrow",
      "outputs": [],
      "stateMutability": "nonpayable",
      "type": "function"
    },
    {
      "inputs": [
        {
          "internalType": "address",
          "name": "initiator",
          "type": "address"
        },
        {
          "internalType": "address",
          "name": "",
          "type": "address"
        },
        {
          "internalType": "uint256",
          "name": "",
          "type": "uint256"
        },
        {
          "internalType": "uint256",
          "name": "",
          "type": "uint256"
        },
        {
          "internalType": "bytes",
          "name": "",
          "type": "bytes"
        }
      ],
      "name": "onFlashLoan",
      "outputs": [
        {
          "internalType": "bytes32",
          "name": "",
          "type": "bytes32"
        }
      ],
      "stateMutability": "view",
      "type": "function"
    }
  ],
  "bytecode": "0x60803461007457601f61053338819003918201601f19168301916001600160401b038311848410176100795780849260209460405283398101031261007457516001600160a01b0381169081900361007457600080546001600160a01b0319169190911790556040516104a390816100908239f35b600080fd5b634e487b7160e01b600052604160045260246000fdfe60806040818152600436101561001457600080fd5b600091823560e01c90816323e30c8b1461011f57508063736ddf3b146100f55763b53e48851461004357600080fd5b346100f157806003193601126100f15761005b610249565b9060206024359261006c84826102d7565b60a46001600160a01b0391868381541686519788958694632e7ff4ef60e11b86523060048701521660248501526044840152608060648401528160848401525af19081156100e857506100bd575080f35b6100dd9060203d81116100e1575b6100d58183610264565b81019061029c565b5080f35b503d6100cb565b513d84823e3d90fd5b5080fd5b50346100f15736600319011261011c57610119610110610249565b602435906102d7565b80f35b80fd5b9050823461011c5760a036600319011261011c5761013b610249565b916001600160a01b03916024358381160361011c5760843567ffffffffffffffff8082116102455736602383011215610245578160040135908111610245573691016024011161011c5754821633036102035750309116036101c057602090517f439148f0bbc682ca079e46d6e2c2f0c1e3b820f1a291b069d8882abf8cf18dd98152f35b5162461bcd60e51b815260206004820181905260248201527f466c617368426f72726f7765723a206e6f742074686520696e69746961746f726044820152606490fd5b62461bcd60e51b815260206004820152601860248201527f466c617368426f72726f7765723a20756e7472757374656400000000000000006044820152606490fd5b8280fd5b600435906001600160a01b038216820361025f57565b600080fd5b90601f8019910116810190811067ffffffffffffffff82111761028657604052565b634e487b7160e01b600052604160045260246000fd5b9081602091031261025f5751801515810361025f5790565b919082018092116102c157565b634e487b7160e01b600052601160045260246000fd5b6001600160a01b039060008281541692604092835194636eb1769f60e11b86523060048701528060248701526020968787604481855afa968715610463578597610430575b508551633676633960e21b81526001600160a01b038416600482015260248101829052908882604481865afa918215610426579089959493929187926103e0575b506103a7986103708893610376936102b4565b906102b4565b875163095ea7b360e01b81526001600160a01b03909316600484015260248301529096879384929183906044820190565b0393165af19182156103d65750506103bd575050565b816103d392903d106100e1576100d58183610264565b50565b51903d90823e3d90fd5b8092508691939597989994963d831161041f575b6103fe8183610264565b8101031261041b57519196959488949093909290916103a761035d565b8680fd5b503d6103f4565b87513d88823e3d90fd5b9096508781813d831161045c575b6104488183610264565b810103126104585751953861031c565b8480fd5b503d61043e565b86513d87823e3d90fdfea264697066735822122083a60d37aed0ea99e9373e3994f0f0c698059a7f4b46dd9c43369e9d5add47ab64736f6c63430008120033",
  "linkReferences": {},
  "deployedLinkReferences": {}
}