{
  "_format": "hh-sol-artifact-1",
  "contractName": "GmxMarketMock",
  "sourceName": "contracts/GmxMarketMock.sol",
  "abi": [
    {
      "inputs": [
        {
          "internalType": "address",
          "name": "_weth",
          "type": "address"
        },
        {
          "internalType": "address",
          "name": "_usdc",
          "type": "address"
        }
      ],
      "stateMutability": "nonpayable",
      "type": "constructor"
    },
    {
      "anonymous": false,
      "inputs": [
        {
          "indexed": true,
          "internalType": "address",
          "name": "owner",
          "type": "address"
        },
        {
          "indexed": true,
          "internalType": "address",
          "name": "spender",
          "type": "address"
        },
        {
          "indexed": false,
          "internalType": "uint256",
          "name": "value",
          "type": "uint256"
        }
      ],
      "name": "Approval",
      "type": "event"
    },
    {
      "anonymous": false,
      "inputs": [
        {
          "indexed": true,
          "internalType": "address",
          "name": "from",
          "type": "address"
        },
        {
          "indexed": true,
          "internalType": "address",
          "name": "to",
          "type": "address"
        },
        {
          "indexed": false,
          "internalType": "uint256",
          "name": "value",
          "type": "uint256"
        }
      ],
      "name": "Transfer",
      "type": "event"
    },
    {
      "inputs": [],
      "name": "DOMAIN_SEPARATOR",
      "outputs": [
        {
          "internalType": "bytes32",
          "name": "",
          "type": "bytes32"
        }
      ],
      "stateMutability": "view",
      "type": "function"
    },
    {
      "inputs": [
        {
          "internalType": "address",
          "name": "",
          "type": "address"
        },
        {
          "internalType": "address",
          "name": "",
          "type": "address"
        }
      ],
      "name": "allowance",
      "outputs": [
        {
          "internalType": "uint256",
          "name": "",
          "type": "uint256"
        }
      ],
      "stateMutability": "view",
      "type": "function"
    },
    {
      "inputs": [
        {
          "internalType": "address",
          "name": "spender",
          "type": "address"
        },
        {
          "internalType": "uint256",
          "name": "amount",
          "type": "uint256"
        }
      ],
      "name": "approve",
      "outputs": [
        {
          "internalType": "bool",
          "name": "",
          "type": "bool"
        }
      ],
      "stateMutability": "nonpayable",
      "type": "function"
    },
    {
      "inputs": [
        {
          "internalType": "address",
          "name": "",
          "type": "address"
        }
      ],
      "name": "balanceOf",
      "outputs": [
        {
          "internalType": "uint256",
          "name": "",
          "type": "uint256"
        }
      ],
      "stateMutability": "view",
      "type": "function"
    },
    {
      "inputs": [
        {
          "components": [
            {
              "internalType": "address",
              "name": "receiver",
              "type": "address"
            },
            {
              "internalType": "address",
              "name": "callbackContract",
              "type": "address"
            },
            {
              "internalType": "address",
              "name": "uiFeeReceiver",
              "type": "address"
            },
            {
              "internalType": "address",
              "name": "market",
              "type": "address"
            },
            {
              "internalType": "address",
              "name": "initialLongToken",
              "type": "address"
            },
            {
              "internalType": "address",
              "name": "initialShortToken",
              "type": "address"
            },
            {
              "internalType": "address[]",
              "name": "longTokenSwapPath",
              "type": "address[]"
            },
            {
              "internalType": "address[]",
              "name": "shortTokenSwapPath",
              "type": "address[]"
            },
            {
              "internalType": "uint256",
              "name": "minMarketTokens",
              "type": "uint256"
            },
            {
              "internalType": "bool",
              "name": "shouldUnwrapNativeToken",
              "type": "bool"
            },
            {
              "internalType": "uint256",
              "name": "executionFee",
              "type": "uint256"
            },
            {
              "internalType": "uint256",
              "name": "callbackGasLimit",
              "type": "uint256"
            }
          ],
          "internalType": "struct GmxMarketMock.CreateDepositParams",
          "name": "params",
          "type": "tuple"
        }
      ],
      "name": "createDeposit",
      "outputs": [
        {
          "internalType": "bytes32",
          "name": "",
          "type": "bytes32"
        }
      ],
      "stateMutability": "payable",
      "type": "function"
    },
    {
      "inputs": [
        {
          "components": [
            {
              "internalType": "address",
              "name": "receiver",
              "type": "address"
            },
            {
              "internalType": "address",
              "name": "callbackContract",
              "type": "address"
            },
            {
              "internalType": "address",
              "name": "uiFeeReceiver",
              "type": "address"
            },
            {
              "internalType": "address",
              "name": "market",
              "type": "address"
            },
            {
              "internalType": "address[]",
              "name": "longTokenSwapPath",
              "type": "address[]"
            },
            {
              "internalType": "address[]",
              "name": "shortTokenSwapPath",
              "type": "address[]"
            },
            {
              "internalType": "uint256",
              "name": "minLongTokenAmount",
              "type": "uint256"
            },
            {
              "internalType": "uint256",
              "name": "minShortTokenAmount",
              "type": "uint256"
            },
            {
              "internalType": "bool",
              "name": "shouldUnwrapNativeToken",
              "type": "bool"
            },
            {
              "internalType": "uint256",
              "name": "executionFee",
              "type": "uint256"
            },
            {
              "internalType": "uint256",
              "name": "callbackGasLimit",
              "type": "uint256"
            }
          ],
          "internalType": "struct GmxMarketMock.CreateWithdrawalParams",
          "name": "params",
          "type": "tuple"
        }
      ],
      "name": "createWithdrawal",
      "outputs": [
        {
          "internalType": "bytes32",
          "name": "",
          "type": "bytes32"
        }
      ],
      "stateMutability": "payable",
      "type": "function"
    },
    {
      "inputs": [],
      "name": "decimals",
      "outputs": [
        {
          "internalType": "uint8",
          "name": "",
          "type": "uint8"
        }
      ],
      "stateMutability": "pure",
      "type": "function"
    },
    {
      "inputs": [
        {
          "internalType": "bytes[]",
          "name": "data",
          "type": "bytes[]"
        }
      ],
      "name": "multicall",
      "outputs": [
        {
          "internalType": "bytes[]",
          "name": "results",
          "type": "bytes[]"
        }
      ],
      "stateMutability": "payable",
      "type": "function"
    },
    {
      "inputs": [],
      "name": "name",
      "outputs": [
        {
          "internalType": "string",
          "name": "",
          "type": "string"
        }
      ],
      "stateMutability": "pure",
      "type": "function"
    },
    {
      "inputs": [
        {
          "internalType": "address",
          "name": "",
          "type": "address"
        }
      ],
      "name": "nonces",
      "outputs": [
        {
          "internalType": "uint256",
          "name": "",
          "type": "uint256"
        }
      ],
      "stateMutability": "view",
      "type": "function"
    },
    {
      "inputs": [
        {
          "internalType": "address",
          "name": "owner_",
          "type": "address"
        },
        {
          "internalType": "address",
          "name": "spender",
          "type": "address"
        },
        {
          "internalType": "uint256",
          "name": "value",
          "type": "uint256"
        },
        {
          "internalType": "uint256",
          "name": "deadline",
          "type": "uint256"
        },
        {
          "internalType": "uint8",
          "name": "v",
          "type": "uint8"
        },
        {
          "internalType": "bytes32",
          "name": "r",
          "type": "bytes32"
        },
        {
          "internalType": "bytes32",
          "name": "s",
          "type": "bytes32"
        }
      ],
      "name": "permit",
      "outputs": [],
      "stateMutability": "nonpayable",
      "type": "function"
    },
    {
      "inputs": [
        {
          "internalType": "address",
          "name": "token",
          "type": "address"
        },
        {
          "internalType": "address",
          "name": "receiver",
          "type": "address"
        },
        {
          "internalType": "uint256",
          "name": "amount",
          "type": "uint256"
        }
      ],
      "name": "sendTokens",
      "outputs": [],
      "stateMutability": "payable",
      "type": "function"
    },
    {
      "inputs": [
        {
          "internalType": "address",
          "name": "receiver",
          "type": "address"
        },
        {
          "internalType": "uint256",
          "name": "amount",
          "type": "uint256"
        }
      ],
      "name": "sendWnt",
      "outputs": [],
      "stateMutability": "payable",
      "type": "function"
    },
    {
      "inputs": [],
      "name": "symbol",
      "outputs": [
        {
          "internalType": "string",
          "name": "",
          "type": "string"
        }
      ],
      "stateMutability": "pure",
      "type": "function"
    },
    {
      "inputs": [],
      "name": "totalSupply",
      "outputs": [
        {
          "internalType": "uint256",
          "name": "",
          "type": "uint256"
        }
      ],
      "stateMutability": "view",
      "type": "function"
    },
    {
      "inputs": [
        {
          "internalType": "address",
          "name": "to",
          "type": "address"
        },
        {
          "internalType": "uint256",
          "name": "amount",
          "type": "uint256"
        }
      ],
      "name": "transfer",
      "outputs": [
        {
          "internalType": "bool",
          "name": "",
          "type": "bool"
        }
      ],
      "stateMutability": "nonpayable",
      "type": "function"
    },
    {
      "inputs": [
        {
          "internalType": "address",
          "name": "from",
          "type": "address"
        },
        {
          "internalType": "address",
          "name": "to",
          "type": "address"
        },
        {
          "internalType": "uint256",
          "name": "amount",
          "type": "uint256"
        }
      ],
      "name": "transferFrom",
      "outputs": [
        {
          "internalType": "bool",
          "name": "",
          "type": "bool"
        }
      ],
      "stateMutability": "nonpayable",
      "type": "function"
    },
    {
      "inputs": [],
      "name": "usdc",
      "outputs": [
        {
          "internalType": "address",
          "name": "",
          "type": "address"
        }
      ],
      "stateMutability": "view",
      "type": "function"
    },
    {
      "inputs": [],
      "name": "weth",
      "outputs": [
        {
          "internalType": "address",
          "name": "",
          "type": "address"
        }
      ],
      "stateMutability": "view",
      "type": "function"
    }
  ],
  "bytecode": "0x60c03461010e576001600160401b0390601f6112c138819003918201601f1916830191848311848410176100f857808492604094855283398101031261010e57610054602061004d83610113565b9201610113565b4660a05260405160208101907f47e79534a245952e8b16893a336b85a3d9ea9fa8c573f3d803afb92a794692188252466040820152306060820152606081526080810194818610908611176100f8576040859052519020608052600480546001600160a01b039384166001600160a01b031991821617909155600580549290931691161790556111999081610128823960805181610f01015260a05181610edb0152f35b634e487b7160e01b600052604160045260246000fd5b600080fd5b51906001600160a01b038216820361010e5756fe608060408181526004908136101561001657600080fd5b600092833560e01c90816306fdde0314610d2057508063095ea7b314610cae57806318160ddd14610c8f57806323b872dd14610ad3578063313ce56714610ab75780633644e51514610a935780633e413bee14610a6b5780633fc8cef314610a445780635b4e95611461095157806370a082311461091b5780637d39aaf1146109005780637ecebe00146108c957806395d89b4114610868578063a9059cbb1461078e578063ac9650d8146105bb578063ad23c5a1146104d9578063d505accf1461023e578063dd62ed3e146101f15763e6d66ac8146100f557600080fd5b6100fe36610ddb565b90835160208101926323b872dd60e01b84523360248301526001600160a01b03809316604483015260648201526064815260a0810181811067ffffffffffffffff8211176101de578552518693849391928491165af161015c610fec565b816101af575b501561016c578280f35b906020606492519162461bcd60e51b8352820152602060248201527f426f72696e6745524332303a205472616e7366657246726f6d206661696c65646044820152fd5b80518015925082156101c4575b505038610162565b6101d7925060208091830101910161102c565b38806101bc565b634e487b7160e01b885260418752602488fd5b83823461023a578060031936011261023a578060209261020f610daa565b610217610dc5565b6001600160a01b0391821683526001865283832091168252845220549051908152f35b5080fd5b50346104d55760e03660031901126104d557610258610daa565b90610261610dc5565b9060443590606435946084359460ff86168096036104d1576001600160a01b0380911695861561048e578742101561044b5786895260209560028752848a20988954996102ad8b610fdd565b905585519084898301937f6e71edae12b1b97f4d1f60370fef10105fa2faae0126114a169c64845d6126c985528b89850152169a8b606084015288608084015260a083015260c082015260c0815260e081019181831067ffffffffffffffff84111761043857928260809261037a60608f968d98610100918d52845190209361033586610f6d565b60028652019361190160f01b855261034b610ed8565b8c519485926103628c850198899251928391610d62565b8301918b8301528d820152038b810184520182610fbb565b5190209087519182528482015260a4358782015260c435606082015282805260015afa1561042e578590885116036103ed5750907f8c5be1e5ebec7d5bd14f71427d1e84f3dd0314c0f7b2291e5b200ac8c7c3b9259291848752600183528087208688528352818188205551908152a380f35b83606492519162461bcd60e51b8352820152601860248201527f45524332303a20496e76616c6964205369676e617475726500000000000000006044820152fd5b82513d89823e3d90fd5b634e487b7160e01b8c526041865260248cfd5b835162461bcd60e51b8152602081850152600e60248201527f45524332303a20457870697265640000000000000000000000000000000000006044820152606490fd5b835162461bcd60e51b8152602081850152601860248201527f45524332303a204f776e65722063616e6e6f74206265203000000000000000006044820152606490fd5b8780fd5b8280fd5b5090600319906020368301126105b75780359067ffffffffffffffff82116105b3576101608282019383360301126105b3579060e461059f6105a894936020973381528089528781205461052f81600354610ea8565b600355338252818a52888220610546828254610ea8565b905588519081527fddf252ad1be2c89b69c2b068fc378daa952ba7f163c4a11628f55a4df523b3ef8a3392a36105956001600160a01b038092541661058a87611044565b60c487013591611058565b6005541693611044565b91013591611058565b5161060f60f31b8152f35b8480fd5b8380fd5b509190602092836003193601126104d55767ffffffffffffffff9382358581116105b357366023820112156105b357808401359386851161078a57600596602436878a1b85018201116104d15761061787949798969598611121565b9661062486519889610fbb565b848852601f1961063386611121565b01875b81811061077b575050368190036042190190875b8681106106af57505050505050508051938080860192818752855180945283818801981b870101940192955b8287106106835785850386f35b90919293828061069f600193603f198a82030186528851610d85565b9601920196019592919092610676565b83818d9c999a9c1b830101358381121561077757820184810135868111610773576044809201813603811361076f57818e929183928e51928392833781018381520390305af4906106fe610fec565b911561072e57509061072591610714828d611139565b5261071f818c611139565b50610fdd565b9997969961064a565b877f476d784d61726b65744d6f636b3a206661696c656400000000000000000000006064926015898f8f90519562461bcd60e51b8752860152840152820152fd5b8d80fd5b8c80fd5b8b80fd5b60608a82018c01528a01610636565b8580fd5b83823461023a578060031936011261023a576020916001600160a01b036107b3610daa565b8360243593841580159061085d575b6107fa575b505192835216907fddf252ad1be2c89b69c2b068fc378daa952ba7f163c4a11628f55a4df523b3ef843392a35160018152f35b3381528087528181205461081086821015610e10565b8484169086823303610825575b5050506107c7565b61083991610834841515610e5c565b610ea8565b33835282895283832055815220610851848254610ecb565b9055838680808661081d565b5083831633146107c2565b83823461023a578160031936011261023a5780516108c59161088982610f6d565b600982527f474d206d61726b65740000000000000000000000000000000000000000000000602083015251918291602083526020830190610d85565b0390f35b83823461023a57602036600319011261023a57806020926001600160a01b036108f0610daa565b1681526002845220549051908152f35b838260031936011261091857610914610daa565b5080f35b80fd5b83823461023a57602036600319011261023a57806020926001600160a01b03610942610daa565b16815280845220549051908152f35b50600319836020368301126109185783359167ffffffffffffffff831161023a576101809083360301126109185761010461098d838601611044565b9201359160035461099e8482610ecb565b908110610a0157602095506001600160a01b037fddf252ad1be2c89b69c2b068fc378daa952ba7f163c4a11628f55a4df523b3ef92879260035516938484528382528584206109ee828254610ecb565b90558551908152a35161060f60f31b8152f35b845162461bcd60e51b8152602081880152600d60248201527f4d696e74206f766572666c6f77000000000000000000000000000000000000006044820152606490fd5b508234610918578060031936011261091857506001600160a01b0360209254169051908152f35b83823461023a578160031936011261023a576020906001600160a01b03600554169051908152f35b83823461023a578160031936011261023a57602090610ab0610ed8565b9051908152f35b83823461023a578160031936011261023a576020905160128152f35b50823461091857610ae336610ddb565b919282610b2e575b5060208095507fddf252ad1be2c89b69c2b068fc378daa952ba7f163c4a11628f55a4df523b3ef9185519384526001600160a01b03809116941692a35160018152f35b6001600160a01b0395868516968783526020908382528784205490610b5587831015610e10565b851692838a03610b69575b50505050610aeb565b89855260018352888520338652835288852054906000198203610be5575b50509282602099828a94610bc48a8e996108347fddf252ad1be2c89b69c2b068fc378daa952ba7f163c4a11628f55a4df523b3ef9c9a1515610e5c565b9282525283832055815220610bda858254610ecb565b905591878080610b60565b878210610c4c575092602099858a94610bc48a8e9996610c27827fddf252ad1be2c89b69c2b068fc378daa952ba7f163c4a11628f55a4df523b3ef9d9b610ea8565b8686526001855289862033875285528986205596505050945095509981949650610b87565b895162461bcd60e51b8152908101849052601860248201527f45524332303a20616c6c6f77616e636520746f6f206c6f7700000000000000006044820152606490fd5b83823461023a578160031936011261023a576020906003549051908152f35b83823461023a578060031936011261023a5760209181610ccc610daa565b91602435918291338152600187526001600160a01b038282209516948582528752205582519081527f8c5be1e5ebec7d5bd14f71427d1e84f3dd0314c0f7b2291e5b200ac8c7c3b925843392a35160018152f35b925050346104d557826003193601126104d5576108c59250610d4182610f6d565b6002825261474d60f01b602083015251918291602083526020830190610d85565b60005b838110610d755750506000910152565b8181015183820152602001610d65565b90602091610d9e81518092818552858086019101610d62565b601f01601f1916010190565b600435906001600160a01b0382168203610dc057565b600080fd5b602435906001600160a01b0382168203610dc057565b6060906003190112610dc0576001600160a01b03906004358281168103610dc057916024359081168103610dc0579060443590565b15610e1757565b60405162461bcd60e51b815260206004820152601660248201527f45524332303a2062616c616e636520746f6f206c6f77000000000000000000006044820152606490fd5b15610e6357565b60405162461bcd60e51b815260206004820152601660248201527f45524332303a206e6f207a65726f2061646472657373000000000000000000006044820152606490fd5b91908203918211610eb557565b634e487b7160e01b600052601160045260246000fd5b91908201809211610eb557565b467f000000000000000000000000000000000000000000000000000000000000000003610f23577f000000000000000000000000000000000000000000000000000000000000000090565b60405160208101907f47e79534a245952e8b16893a336b85a3d9ea9fa8c573f3d803afb92a79469218825246604082015230606082015260608152610f6781610f9f565b51902090565b6040810190811067ffffffffffffffff821117610f8957604052565b634e487b7160e01b600052604160045260246000fd5b6080810190811067ffffffffffffffff821117610f8957604052565b90601f8019910116810190811067ffffffffffffffff821117610f8957604052565b6000198114610eb55760010190565b3d15611027573d9067ffffffffffffffff8211610f89576040519161101b601f8201601f191660200184610fbb565b82523d6000602084013e565b606090565b90816020910312610dc057518015158103610dc05790565b356001600160a01b0381168103610dc05790565b600092838093604051602081019363a9059cbb60e01b85526001600160a01b03809316602483015260448201526044815261109281610f9f565b5193165af161109f610fec565b816110f2575b50156110ad57565b60405162461bcd60e51b815260206004820152601c60248201527f426f72696e6745524332303a205472616e73666572206661696c6564000000006044820152606490fd5b8051801592508215611107575b5050386110a5565b61111a925060208091830101910161102c565b38806110ff565b67ffffffffffffffff8111610f895760051b60200190565b805182101561114d5760209160051b010190565b634e487b7160e01b600052603260045260246000fdfea26469706673582212206d0ebb463590c7713134a2c804d6b1691074c70cd1a66c74f984734c5daa585664736f6c63430008120033",
  "linkReferences": {},
  "deployedLinkReferences": {}
}