{
  "_format": "hh-sol-artifact-1",
  "contractName": "OracleMock",
  "sourceName": "contracts/OracleMock.sol",
  "abi": [
    {
      "inputs": [
        {
          "internalType": "string",
          "name": "_name",
          "type": "string"
        },
        {
          "internalType": "string",
          "name": "_symbol",
          "type": "string"
        },
        {
          "internalType": "uint256",
          "name": "_rate",
          "type": "uint256"
        }
      ],
      "stateMutability": "nonpayable",
      "type": "constructor"
    },
    {
      "inputs": [],
      "name": "__name",
      "outputs": [
        {
          "internalType": "string",
          "name": "",
          "type": "string"
        }
      ],
      "stateMutability": "view",
      "type": "function"
    },
    {
      "inputs": [],
      "name": "__symbol",
      "outputs": [
        {
          "internalType": "string",
          "name": "",
          "type": "string"
        }
      ],
      "stateMutability": "view",
      "type": "function"
    },
    {
      "inputs": [
        {
          "internalType": "bytes",
          "name": "",
          "type": "bytes"
        }
      ],
      "name": "get",
      "outputs": [
        {
          "internalType": "bool",
          "name": "",
          "type": "bool"
        },
        {
          "internalType": "uint256",
          "name": "",
          "type": "uint256"
        }
      ],
      "stateMutability": "view",
      "type": "function"
    },
    {
      "inputs": [],
      "name": "getDataParameter",
      "outputs": [
        {
          "internalType": "bytes",
          "name": "",
          "type": "bytes"
        }
      ],
      "stateMutability": "pure",
      "type": "function"
    },
    {
      "inputs": [
        {
          "internalType": "bytes",
          "name": "",
          "type": "bytes"
        }
      ],
      "name": "name",
      "outputs": [
        {
          "internalType": "string",
          "name": "",
          "type": "string"
        }
      ],
      "stateMutability": "view",
      "type": "function"
    },
    {
      "inputs": [
        {
          "internalType": "bytes",
          "name": "",
          "type": "bytes"
        }
      ],
      "name": "peek",
      "outputs": [
        {
          "internalType": "bool",
          "name": "",
          "type": "bool"
        },
        {
          "internalType": "uint256",
          "name": "",
          "type": "uint256"
        }
      ],
      "stateMutability": "view",
      "type": "function"
    },
    {
      "inputs": [
        {
          "internalType": "bytes",
          "name": "",
          "type": "bytes"
        }
      ],
      "name": "peekSpot",
      "outputs": [
        {
          "internalType": "uint256",
          "name": "",
          "type": "uint256"
        }
      ],
      "stateMutability": "view",
      "type": "function"
    },
    {
      "inputs": [],
      "name": "rate",
      "outputs": [
        {
          "internalType": "uint256",
          "name": "",
          "type": "uint256"
        }
      ],
      "stateMutability": "view",
      "type": "function"
    },
    {
      "inputs": [
        {
          "internalType": "uint256",
          "name": "rate_",
          "type": "uint256"
        }
      ],
      "name": "set",
      "outputs": [],
      "stateMutability": "nonpayable",
      "type": "function"
    },
    {
      "inputs": [
        {
          "internalType": "bool",
          "name": "val",
          "type": "bool"
        }
      ],
      "name": "setSuccess",
      "outputs": [],
      "stateMutability": "nonpayable",
      "type": "function"
    },
    {
      "inputs": [],
      "name": "success",
      "outputs": [
        {
          "internalType": "bool",
          "name": "",
          "type": "bool"
        }
      ],
      "stateMutability": "view",
      "type": "function"
    },
    {
      "inputs": [
        {
          "internalType": "bytes",
          "name": "",
          "type": "bytes"
        }
      ],
      "name": "symbol",
      "outputs": [
        {
          "internalType": "string",
          "name": "",
          "type": "string"
        }
      ],
      "stateMutability": "view",
      "type": "function"
    }
  ],
  "bytecode": "0x608060405234620003335762000901803803806200001d8162000338565b9283398101606082820312620003335781516001600160401b03908181116200033357826200004e91850162000374565b926020928382015183811162000333576040916200006e91840162000374565b910151936001918260ff19815416178355600095865581518481116200031f57600254928484811c9416801562000314575b8785101462000300578190601f94858111620002ac575b508790858311600114620002465789926200023a575b5050600019600383901b1c191690841b176002555b8051938411620002265760039586548481811c911680156200021b575b878210146200020757838111620001bf575b5085928511600114620001595793945084929190836200014d575b50501b9160001990841b1c19161790555b60405161051a9081620003e78239f35b0151925038806200012c565b86815285812093958591601f198316915b88838310620001a457505050106200018b575b505050811b0190556200013d565b015160001983861b60f8161c191690553880806200017d565b8587015188559096019594850194879350908101906200016a565b8782528682208480880160051c820192898910620001fd575b0160051c019085905b828110620001f157505062000111565b838155018590620001e1565b92508192620001d8565b634e487b7160e01b82526022600452602482fd5b90607f1690620000ff565b634e487b7160e01b86526041600452602486fd5b015190503880620000cd565b60028a52888a208794509190601f1984168b5b8b8282106200029557505084116200027b575b505050811b01600255620000e2565b015160001960f88460031b161c191690553880806200026c565b8385015186558a9790950194938401930162000259565b909150600289528789208580850160051c8201928a8610620002f6575b918891869594930160051c01915b828110620002e7575050620000b7565b8b8155859450889101620002d7565b92508192620002c9565b634e487b7160e01b88526022600452602488fd5b93607f1693620000a0565b634e487b7160e01b87526041600452602487fd5b600080fd5b6040519190601f01601f191682016001600160401b038111838210176200035e57604052565b634e487b7160e01b600052604160045260246000fd5b919080601f84011215620003335782516001600160401b0381116200035e57602090620003aa601f8201601f1916830162000338565b92818452828287010111620003335760005b818110620003d257508260009394955001015290565b8581018301518482018401528201620003bc56fe60806040818152600436101561001457600080fd5b600090813560e01c9283630b93381b14610234575082632b39febd146101bb5782632c4e722e146101a057826360fe47b1146101865782637269ada11461016a5782637bcc7f811461013757826382215cb11461011b578263c699c4d6146100ff578263d39bbef0146100e4578263d568866c146100ad5750508063d6d7d525146100a85763eeb8a8d3146100a857600080fd5b6104bb565b346100e0576100dc906100bf3661046c565b50506100c96102cd565b9051918291602083526020830190610255565b0390f35b5080fd5b346100e0576020916100f53661046c565b5050549051908152f35b346100e0576100dc906101113661046c565b50506100c96103b8565b346100e057816003193601126100e0576100dc906100c96103b8565b5034610167576020366003190112610167576004358015158091036100e05760ff80196001541691161760015580f35b80fd5b346100e057816003193601126100e0576100dc906100c96102cd565b503461016757602036600319011261016757600435815580f35b346100e057816003193601126100e057602091549051908152f35b346100e057816003193601126100e0578051906020808301526003818301526203078360ec1b606083015260608252608082019282841067ffffffffffffffff851117610220575082905260208252607f199061021b60a0820182610255565b030190f35b634e487b7160e01b81526041600452602490fd5b9050346100e057816003193601126100e05760209060ff6001541615158152f35b919082519283825260005b848110610281575050826000602080949584010152601f8019910116010190565b602081830181015184830182015201610260565b90601f8019910116810190811067ffffffffffffffff8211176102b757604052565b634e487b7160e01b600052604160045260246000fd5b60405190600060025490600182811c908084169384156103ae575b602094858410811461039a578388528794939291811561037a575060011461031b575b505061031992500383610295565b565b9093915060026000527f405787fa12a823e0f2b7631cc41b3ba8828b3321ca811111fa75cd3aa3bb5ace936000915b8183106103625750506103199350820101388061030b565b8554888401850152948501948794509183019161034a565b91505061031994925060ff191682840152151560051b820101388061030b565b634e487b7160e01b85526022600452602485fd5b91607f16916102e8565b60405190600060035490600182811c90808416938415610462575b602094858410811461039a578388528794939291811561037a575060011461040357505061031992500383610295565b9093915060036000527fc2575a0e9e593c00f959f8c92f12db2869c3395a3b0502d05e2516446f71f85b936000915b81831061044a5750506103199350820101388061030b565b85548884018501529485019487945091830191610432565b91607f16916103d3565b9060206003198301126104b65760043567ffffffffffffffff928382116104b657806023830112156104b65781600401359384116104b657602484830101116104b6576024019190565b600080fd5b346104b6576104c93661046c565b5050604060ff60015416600054825191151582526020820152f3fea26469706673582212209d7c3eff8c72d243c31b5dbf67a25fc49c8198a10cb162ebee21aa9ef31f21fb64736f6c63430008120033",
  "linkReferences": {},
  "deployedLinkReferences": {}
}