{
  "_format": "hh-sol-artifact-1",
  "contractName": "StargateRouterMock",
  "sourceName": "contracts/StargateRouterMock.sol",
  "abi": [
    {
      "inputs": [
        {
          "internalType": "contract IERC20",
          "name": "_token",
          "type": "address"
        }
      ],
      "stateMutability": "nonpayable",
      "type": "constructor"
    },
    {
      "inputs": [
        {
          "internalType": "uint16",
          "name": "",
          "type": "uint16"
        },
        {
          "internalType": "uint256",
          "name": "",
          "type": "uint256"
        },
        {
          "internalType": "uint256",
          "name": "",
          "type": "uint256"
        },
        {
          "internalType": "address payable",
          "name": "_refundAddress",
          "type": "address"
        },
        {
          "internalType": "uint256",
          "name": "_amountLD",
          "type": "uint256"
        },
        {
          "internalType": "uint256",
          "name": "",
          "type": "uint256"
        },
        {
          "components": [
            {
              "internalType": "uint256",
              "name": "dstGasForCall",
              "type": "uint256"
            },
            {
              "internalType": "uint256",
              "name": "dstNativeAmount",
              "type": "uint256"
            },
            {
              "internalType": "bytes",
              "name": "dstNativeAddr",
              "type": "bytes"
            }
          ],
          "internalType": "struct IStargateRouterMock.lzTxObj",
          "name": "",
          "type": "tuple"
        },
        {
          "internalType": "bytes",
          "name": "_to",
          "type": "bytes"
        },
        {
          "internalType": "bytes",
          "name": "",
          "type": "bytes"
        }
      ],
      "name": "swap",
      "outputs": [],
      "stateMutability": "payable",
      "type": "function"
    },
    {
      "inputs": [],
      "name": "token",
      "outputs": [
        {
          "internalType": "contract IERC20",
          "name": "",
          "type": "address"
        }
      ],
      "stateMutability": "view",
      "type": "function"
    }
  ],
  "bytecode": "0x608060405234801561001057600080fd5b506040516107e23803806107e283398101604081905261002f91610054565b600080546001600160a01b0319166001600160a01b0392909216919091179055610084565b60006020828403121561006657600080fd5b81516001600160a01b038116811461007d57600080fd5b9392505050565b61074f806100936000396000f3fe6080604052600436106100295760003560e01c80639fbf10fc1461002e578063fc0c546a14610043575b600080fd5b61004161003c36600461055f565b610099565b005b34801561004f57600080fd5b506000546100709073ffffffffffffffffffffffffffffffffffffffff1681565b60405173ffffffffffffffffffffffffffffffffffffffff909116815260200160405180910390f35b60008611610108576040517f08c379a000000000000000000000000000000000000000000000000000000000815260206004820152601760248201527f53746172676174653a2063616e6e6f742073776170203000000000000000000060448201526064015b60405180910390fd5b73ffffffffffffffffffffffffffffffffffffffff87166101ab576040517f08c379a000000000000000000000000000000000000000000000000000000000815260206004820152602660248201527f53746172676174653a205f726566756e64416464726573732063616e6e6f742060448201527f626520307830000000000000000000000000000000000000000000000000000060648201526084016100ff565b60148301516000546040517f23b872dd0000000000000000000000000000000000000000000000000000000081523360048201523060248201526044810189905273ffffffffffffffffffffffffffffffffffffffff909116906323b872dd906064016020604051808303816000875af115801561022d573d6000803e3d6000fd5b505050506040513d601f19601f82011682018060405250810190610251919061063a565b506000546040517fa9059cbb00000000000000000000000000000000000000000000000000000000815273ffffffffffffffffffffffffffffffffffffffff8381166004830152602482018a90529091169063a9059cbb906044016020604051808303816000875af11580156102cb573d6000803e3d6000fd5b505050506040513d601f19601f820116820180604052508101906102ef919061063a565b506040517fab8236f300000000000000000000000000000000000000000000000000000000815273ffffffffffffffffffffffffffffffffffffffff82169063ab8236f39061034990600090819081908d90600401610663565b600060405180830381600087803b15801561036357600080fd5b505af1158015610377573d6000803e3d6000fd5b505050505050505050505050505050565b803561ffff8116811461039a57600080fd5b919050565b803573ffffffffffffffffffffffffffffffffffffffff8116811461039a57600080fd5b7f4e487b7100000000000000000000000000000000000000000000000000000000600052604160045260246000fd5b600082601f83011261040357600080fd5b813567ffffffffffffffff8082111561041e5761041e6103c3565b604051601f83017fffffffffffffffffffffffffffffffffffffffffffffffffffffffffffffffe0908116603f01168101908282118183101715610464576104646103c3565b8160405283815286602085880101111561047d57600080fd5b836020870160208301376000602085830101528094505050505092915050565b6000606082840312156104af57600080fd5b6040516060810167ffffffffffffffff82821081831117156104d3576104d36103c3565b81604052829350843583526020850135602084015260408501359150808211156104fc57600080fd5b50610509858286016103f2565b6040830152505092915050565b60008083601f84011261052857600080fd5b50813567ffffffffffffffff81111561054057600080fd5b60208301915083602082850101111561055857600080fd5b9250929050565b6000806000806000806000806000806101208b8d03121561057f57600080fd5b6105888b610388565b995060208b0135985060408b013597506105a460608c0161039f565b965060808b0135955060a08b0135945060c08b013567ffffffffffffffff808211156105cf57600080fd5b6105db8e838f0161049d565b955060e08d01359150808211156105f157600080fd5b6105fd8e838f016103f2565b94506101008d013591508082111561061457600080fd5b506106218d828e01610516565b915080935050809150509295989b9194979a5092959850565b60006020828403121561064c57600080fd5b8151801515811461065c57600080fd5b9392505050565b61ffff8516815260c0602082015260006106aa60c08301600281527f3078000000000000000000000000000000000000000000000000000000000000602082015260400190565b85604084015273ffffffffffffffffffffffffffffffffffffffff8516606084015283608084015282810360a084015261070e81600281527f3078000000000000000000000000000000000000000000000000000000000000602082015260400190565b97965050505050505056fea264697066735822122008a5b31447e2c2c4daf68f936373a2bae6669729e6794493496947e254b3015e64736f6c63430008160033",
  "linkReferences": {},
  "deployedLinkReferences": {}
}