{
  "_format": "hh-sol-artifact-1",
  "contractName": "LZEndpointMock",
  "sourceName": "contracts/usd0/mocks/LZEndpointMock.sol",
  "abi": [
    {
      "inputs": [
        {
          "internalType": "uint16",
          "name": "_chainId",
          "type": "uint16"
        }
      ],
      "stateMutability": "nonpayable",
      "type": "constructor"
    },
    {
      "anonymous": false,
      "inputs": [
        {
          "indexed": false,
          "internalType": "uint16",
          "name": "srcChainId",
          "type": "uint16"
        },
        {
          "indexed": false,
          "internalType": "bytes",
          "name": "srcAddress",
          "type": "bytes"
        },
        {
          "indexed": false,
          "internalType": "uint64",
          "name": "nonce",
          "type": "uint64"
        },
        {
          "indexed": false,
          "internalType": "address",
          "name": "dstAddress",
          "type": "address"
        }
      ],
      "name": "PayloadCleared",
      "type": "event"
    },
    {
      "anonymous": false,
      "inputs": [
        {
          "indexed": false,
          "internalType": "uint16",
          "name": "srcChainId",
          "type": "uint16"
        },
        {
          "indexed": false,
          "internalType": "bytes",
          "name": "srcAddress",
          "type": "bytes"
        },
        {
          "indexed": false,
          "internalType": "address",
          "name": "dstAddress",
          "type": "address"
        },
        {
          "indexed": false,
          "internalType": "uint64",
          "name": "nonce",
          "type": "uint64"
        },
        {
          "indexed": false,
          "internalType": "bytes",
          "name": "payload",
          "type": "bytes"
        },
        {
          "indexed": false,
          "internalType": "bytes",
          "name": "reason",
          "type": "bytes"
        }
      ],
      "name": "PayloadStored",
      "type": "event"
    },
    {
      "anonymous": false,
      "inputs": [
        {
          "indexed": false,
          "internalType": "uint16",
          "name": "chainId",
          "type": "uint16"
        },
        {
          "indexed": false,
          "internalType": "bytes",
          "name": "srcAddress",
          "type": "bytes"
        }
      ],
      "name": "UaForceResumeReceive",
      "type": "event"
    },
    {
      "anonymous": false,
      "inputs": [
        {
          "indexed": true,
          "internalType": "address",
          "name": "to",
          "type": "address"
        },
        {
          "indexed": true,
          "internalType": "uint256",
          "name": "quantity",
          "type": "uint256"
        }
      ],
      "name": "ValueTransferFailed",
      "type": "event"
    },
    {
      "inputs": [],
      "name": "blockNextMsg",
      "outputs": [],
      "stateMutability": "nonpayable",
      "type": "function"
    },
    {
      "inputs": [],
      "name": "defaultAdapterParams",
      "outputs": [
        {
          "internalType": "bytes",
          "name": "",
          "type": "bytes"
        }
      ],
      "stateMutability": "view",
      "type": "function"
    },
    {
      "inputs": [
        {
          "internalType": "uint16",
          "name": "_dstChainId",
          "type": "uint16"
        },
        {
          "internalType": "address",
          "name": "_userApplication",
          "type": "address"
        },
        {
          "internalType": "bytes",
          "name": "_payload",
          "type": "bytes"
        },
        {
          "internalType": "bool",
          "name": "_payInZRO",
          "type": "bool"
        },
        {
          "internalType": "bytes",
          "name": "_adapterParams",
          "type": "bytes"
        }
      ],
      "name": "estimateFees",
      "outputs": [
        {
          "internalType": "uint256",
          "name": "nativeFee",
          "type": "uint256"
        },
        {
          "internalType": "uint256",
          "name": "zroFee",
          "type": "uint256"
        }
      ],
      "stateMutability": "view",
      "type": "function"
    },
    {
      "inputs": [
        {
          "internalType": "uint16",
          "name": "_srcChainId",
          "type": "uint16"
        },
        {
          "internalType": "bytes",
          "name": "_path",
          "type": "bytes"
        }
      ],
      "name": "forceResumeReceive",
      "outputs": [],
      "stateMutability": "nonpayable",
      "type": "function"
    },
    {
      "inputs": [],
      "name": "getChainId",
      "outputs": [
        {
          "internalType": "uint16",
          "name": "",
          "type": "uint16"
        }
      ],
      "stateMutability": "view",
      "type": "function"
    },
    {
      "inputs": [
        {
          "internalType": "uint16",
          "name": "",
          "type": "uint16"
        },
        {
          "internalType": "uint16",
          "name": "",
          "type": "uint16"
        },
        {
          "internalType": "address",
          "name": "",
          "type": "address"
        },
        {
          "internalType": "uint256",
          "name": "",
          "type": "uint256"
        }
      ],
      "name": "getConfig",
      "outputs": [
        {
          "internalType": "bytes",
          "name": "",
          "type": "bytes"
        }
      ],
      "stateMutability": "pure",
      "type": "function"
    },
    {
      "inputs": [
        {
          "internalType": "uint16",
          "name": "_chainID",
          "type": "uint16"
        },
        {
          "internalType": "bytes",
          "name": "_path",
          "type": "bytes"
        }
      ],
      "name": "getInboundNonce",
      "outputs": [
        {
          "internalType": "uint64",
          "name": "",
          "type": "uint64"
        }
      ],
      "stateMutability": "view",
      "type": "function"
    },
    {
      "inputs": [
        {
          "internalType": "uint16",
          "name": "_srcChainId",
          "type": "uint16"
        },
        {
          "internalType": "bytes",
          "name": "_srcAddress",
          "type": "bytes"
        }
      ],
      "name": "getLengthOfQueue",
      "outputs": [
        {
          "internalType": "uint256",
          "name": "",
          "type": "uint256"
        }
      ],
      "stateMutability": "view",
      "type": "function"
    },
    {
      "inputs": [
        {
          "internalType": "uint16",
          "name": "_chainID",
          "type": "uint16"
        },
        {
          "internalType": "address",
          "name": "_srcAddress",
          "type": "address"
        }
      ],
      "name": "getOutboundNonce",
      "outputs": [
        {
          "internalType": "uint64",
          "name": "",
          "type": "uint64"
        }
      ],
      "stateMutability": "view",
      "type": "function"
    },
    {
      "inputs": [
        {
          "internalType": "address",
          "name": "",
          "type": "address"
        }
      ],
      "name": "getReceiveLibraryAddress",
      "outputs": [
        {
          "internalType": "address",
          "name": "",
          "type": "address"
        }
      ],
      "stateMutability": "view",
      "type": "function"
    },
    {
      "inputs": [
        {
          "internalType": "address",
          "name": "",
          "type": "address"
        }
      ],
      "name": "getReceiveVersion",
      "outputs": [
        {
          "internalType": "uint16",
          "name": "",
          "type": "uint16"
        }
      ],
      "stateMutability": "pure",
      "type": "function"
    },
    {
      "inputs": [
        {
          "internalType": "address",
          "name": "",
          "type": "address"
        }
      ],
      "name": "getSendLibraryAddress",
      "outputs": [
        {
          "internalType": "address",
          "name": "",
          "type": "address"
        }
      ],
      "stateMutability": "view",
      "type": "function"
    },
    {
      "inputs": [
        {
          "internalType": "address",
          "name": "",
          "type": "address"
        }
      ],
      "name": "getSendVersion",
      "outputs": [
        {
          "internalType": "uint16",
          "name": "",
          "type": "uint16"
        }
      ],
      "stateMutability": "pure",
      "type": "function"
    },
    {
      "inputs": [
        {
          "internalType": "uint16",
          "name": "_srcChainId",
          "type": "uint16"
        },
        {
          "internalType": "bytes",
          "name": "_path",
          "type": "bytes"
        }
      ],
      "name": "hasStoredPayload",
      "outputs": [
        {
          "internalType": "bool",
          "name": "",
          "type": "bool"
        }
      ],
      "stateMutability": "view",
      "type": "function"
    },
    {
      "inputs": [
        {
          "internalType": "uint16",
          "name": "",
          "type": "uint16"
        },
        {
          "internalType": "bytes",
          "name": "",
          "type": "bytes"
        }
      ],
      "name": "inboundNonce",
      "outputs": [
        {
          "internalType": "uint64",
          "name": "",
          "type": "uint64"
        }
      ],
      "stateMutability": "view",
      "type": "function"
    },
    {
      "inputs": [],
      "name": "isReceivingPayload",
      "outputs": [
        {
          "internalType": "bool",
          "name": "",
          "type": "bool"
        }
      ],
      "stateMutability": "view",
      "type": "function"
    },
    {
      "inputs": [],
      "name": "isSendingPayload",
      "outputs": [
        {
          "internalType": "bool",
          "name": "",
          "type": "bool"
        }
      ],
      "stateMutability": "view",
      "type": "function"
    },
    {
      "inputs": [
        {
          "internalType": "address",
          "name": "",
          "type": "address"
        }
      ],
      "name": "lzEndpointLookup",
      "outputs": [
        {
          "internalType": "address",
          "name": "",
          "type": "address"
        }
      ],
      "stateMutability": "view",
      "type": "function"
    },
    {
      "inputs": [],
      "name": "mockChainId",
      "outputs": [
        {
          "internalType": "uint16",
          "name": "",
          "type": "uint16"
        }
      ],
      "stateMutability": "view",
      "type": "function"
    },
    {
      "inputs": [
        {
          "internalType": "uint16",
          "name": "",
          "type": "uint16"
        },
        {
          "internalType": "bytes",
          "name": "",
          "type": "bytes"
        },
        {
          "internalType": "uint256",
          "name": "",
          "type": "uint256"
        }
      ],
      "name": "msgsToDeliver",
      "outputs": [
        {
          "internalType": "address",
          "name": "dstAddress",
          "type": "address"
        },
        {
          "internalType": "uint64",
          "name": "nonce",
          "type": "uint64"
        },
        {
          "internalType": "bytes",
          "name": "payload",
          "type": "bytes"
        }
      ],
      "stateMutability": "view",
      "type": "function"
    },
    {
      "inputs": [],
      "name": "nextMsgBlocked",
      "outputs": [
        {
          "internalType": "bool",
          "name": "",
          "type": "bool"
        }
      ],
      "stateMutability": "view",
      "type": "function"
    },
    {
      "inputs": [],
      "name": "oracleFee",
      "outputs": [
        {
          "internalType": "uint256",
          "name": "",
          "type": "uint256"
        }
      ],
      "stateMutability": "view",
      "type": "function"
    },
    {
      "inputs": [
        {
          "internalType": "uint16",
          "name": "",
          "type": "uint16"
        },
        {
          "internalType": "address",
          "name": "",
          "type": "address"
        }
      ],
      "name": "outboundNonce",
      "outputs": [
        {
          "internalType": "uint64",
          "name": "",
          "type": "uint64"
        }
      ],
      "stateMutability": "view",
      "type": "function"
    },
    {
      "inputs": [],
      "name": "protocolFeeConfig",
      "outputs": [
        {
          "internalType": "uint256",
          "name": "zroFee",
          "type": "uint256"
        },
        {
          "internalType": "uint256",
          "name": "nativeBP",
          "type": "uint256"
        }
      ],
      "stateMutability": "view",
      "type": "function"
    },
    {
      "inputs": [
        {
          "internalType": "uint16",
          "name": "_srcChainId",
          "type": "uint16"
        },
        {
          "internalType": "bytes",
          "name": "_path",
          "type": "bytes"
        },
        {
          "internalType": "address",
          "name": "_dstAddress",
          "type": "address"
        },
        {
          "internalType": "uint64",
          "name": "_nonce",
          "type": "uint64"
        },
        {
          "internalType": "uint256",
          "name": "_gasLimit",
          "type": "uint256"
        },
        {
          "internalType": "bytes",
          "name": "_payload",
          "type": "bytes"
        }
      ],
      "name": "receivePayload",
      "outputs": [],
      "stateMutability": "nonpayable",
      "type": "function"
    },
    {
      "inputs": [],
      "name": "relayerFeeConfig",
      "outputs": [
        {
          "internalType": "uint128",
          "name": "dstPriceRatio",
          "type": "uint128"
        },
        {
          "internalType": "uint128",
          "name": "dstGasPriceInWei",
          "type": "uint128"
        },
        {
          "internalType": "uint128",
          "name": "dstNativeAmtCap",
          "type": "uint128"
        },
        {
          "internalType": "uint64",
          "name": "baseGas",
          "type": "uint64"
        },
        {
          "internalType": "uint64",
          "name": "gasPerByte",
          "type": "uint64"
        }
      ],
      "stateMutability": "view",
      "type": "function"
    },
    {
      "inputs": [
        {
          "internalType": "uint16",
          "name": "_srcChainId",
          "type": "uint16"
        },
        {
          "internalType": "bytes",
          "name": "_path",
          "type": "bytes"
        },
        {
          "internalType": "bytes",
          "name": "_payload",
          "type": "bytes"
        }
      ],
      "name": "retryPayload",
      "outputs": [],
      "stateMutability": "nonpayable",
      "type": "function"
    },
    {
      "inputs": [
        {
          "internalType": "uint16",
          "name": "_chainId",
          "type": "uint16"
        },
        {
          "internalType": "bytes",
          "name": "_path",
          "type": "bytes"
        },
        {
          "internalType": "bytes",
          "name": "_payload",
          "type": "bytes"
        },
        {
          "internalType": "address payable",
          "name": "_refundAddress",
          "type": "address"
        },
        {
          "internalType": "address",
          "name": "_zroPaymentAddress",
          "type": "address"
        },
        {
          "internalType": "bytes",
          "name": "_adapterParams",
          "type": "bytes"
        }
      ],
      "name": "send",
      "outputs": [],
      "stateMutability": "payable",
      "type": "function"
    },
    {
      "inputs": [
        {
          "internalType": "uint16",
          "name": "",
          "type": "uint16"
        },
        {
          "internalType": "uint16",
          "name": "",
          "type": "uint16"
        },
        {
          "internalType": "uint256",
          "name": "",
          "type": "uint256"
        },
        {
          "internalType": "bytes",
          "name": "",
          "type": "bytes"
        }
      ],
      "name": "setConfig",
      "outputs": [],
      "stateMutability": "nonpayable",
      "type": "function"
    },
    {
      "inputs": [
        {
          "internalType": "bytes",
          "name": "_adapterParams",
          "type": "bytes"
        }
      ],
      "name": "setDefaultAdapterParams",
      "outputs": [],
      "stateMutability": "nonpayable",
      "type": "function"
    },
    {
      "inputs": [
        {
          "internalType": "address",
          "name": "destAddr",
          "type": "address"
        },
        {
          "internalType": "address",
          "name": "lzEndpointAddr",
          "type": "address"
        }
      ],
      "name": "setDestLzEndpoint",
      "outputs": [],
      "stateMutability": "nonpayable",
      "type": "function"
    },
    {
      "inputs": [
        {
          "internalType": "uint256",
          "name": "_oracleFee",
          "type": "uint256"
        }
      ],
      "name": "setOracleFee",
      "outputs": [],
      "stateMutability": "nonpayable",
      "type": "function"
    },
    {
      "inputs": [
        {
          "internalType": "uint256",
          "name": "_zroFee",
          "type": "uint256"
        },
        {
          "internalType": "uint256",
          "name": "_nativeBP",
          "type": "uint256"
        }
      ],
      "name": "setProtocolFee",
      "outputs": [],
      "stateMutability": "nonpayable",
      "type": "function"
    },
    {
      "inputs": [
        {
          "internalType": "uint16",
          "name": "",
          "type": "uint16"
        }
      ],
      "name": "setReceiveVersion",
      "outputs": [],
      "stateMutability": "nonpayable",
      "type": "function"
    },
    {
      "inputs": [
        {
          "internalType": "uint128",
          "name": "_dstPriceRatio",
          "type": "uint128"
        },
        {
          "internalType": "uint128",
          "name": "_dstGasPriceInWei",
          "type": "uint128"
        },
        {
          "internalType": "uint128",
          "name": "_dstNativeAmtCap",
          "type": "uint128"
        },
        {
          "internalType": "uint64",
          "name": "_baseGas",
          "type": "uint64"
        },
        {
          "internalType": "uint64",
          "name": "_gasPerByte",
          "type": "uint64"
        }
      ],
      "name": "setRelayerPrice",
      "outputs": [],
      "stateMutability": "nonpayable",
      "type": "function"
    },
    {
      "inputs": [
        {
          "internalType": "uint16",
          "name": "",
          "type": "uint16"
        }
      ],
      "name": "setSendVersion",
      "outputs": [],
      "stateMutability": "nonpayable",
      "type": "function"
    },
    {
      "inputs": [
        {
          "internalType": "uint16",
          "name": "",
          "type": "uint16"
        },
        {
          "internalType": "bytes",
          "name": "",
          "type": "bytes"
        }
      ],
      "name": "storedPayload",
      "outputs": [
        {
          "internalType": "uint64",
          "name": "payloadLength",
          "type": "uint64"
        },
        {
          "internalType": "address",
          "name": "dstAddress",
          "type": "address"
        },
        {
          "internalType": "bytes32",
          "name": "payloadHash",
          "type": "bytes32"
        }
      ],
      "stateMutability": "view",
      "type": "function"
    }
  ],
  "bytecode": "0x608034620002b557601f1962002a7c38819003601f810183168401936001600160401b03929091828610848711176200029f5780839260409788528339602092839181010312620002b557519061ffff8216809203620002b55761ffff199161010183600c541617600c55600192835416178255845160a08101818110858211176200029f5786526402540be40080825282820152678ac7230489e8000086820152606460608201526080018290527402540be400000000000000000000000002540be4006002557801000000000000006400000000000000008ac7230489e80000600355845180860190848211818310176200029f5782918752670de0b6b3a7640000908181526103e89283910152600455600555662386f26fc100006006558451600160f01b8282015262030d4060228201526022815260608101818110858211176200029f57865280519384116200029f576007548381811c9116801562000294575b838210146200027e57601f81116200022f575b5081601f8511600114620001c4575083945090839291600094620001b8575b50501b916000199060031b1c1916176007555b516127c19081620002bb8239f35b01519250388062000197565b929484908116600760005284600020946000905b88838310620002145750505010620001fa575b505050811b01600755620001aa565b015160001960f88460031b161c19169055388080620001eb565b858701518855909601959485019487935090810190620001d8565b600760005282600020601f860160051c81019184871062000273575b601f0160051c019084905b8281106200026657505062000178565b6000815501849062000256565b90915081906200024b565b634e487b7160e01b600052602260045260246000fd5b90607f169062000165565b634e487b7160e01b600052604160045260246000fd5b600080fdfe6080604052600436101561001257600080fd5b60003560e01c806307d3277f1461024e57806307e0db1714610244578063096568f6146101d15780630eaf6ea61461024957806310ddb1371461024457806312a9ee6b1461023f578063240de2771461023a578063272bd384146102355780632c365e25146102305780633408e470146101cc5780633e0dd83e1461022b57806340a7bb101461022657806342d65a8d1461022157806371ba2fd61461020857806376a386dc1461021c5780637a145748146101fe5780637f6df8e614610217578063907c5e7e146102125780639924d33b1461020d5780639c729da114610208578063aaff5f1614610203578063b2086499146101fe578063b6d9ef60146101f9578063c08f15a1146101f4578063c2fa4813146101ef578063c5803100146101ea578063c81b383a146101e5578063ca066b35146101e0578063cbed8b9c146101db578063d23104f1146101d6578063da1a7c9a146101d1578063db14f305146101cc578063e97a448a146101c7578063f5ecbdbc146101c2578063f9cd3ceb146101bd578063fbba623b146101b85763fdc07c70146101b357600080fd5b6119ec565b6118da565b6118bc565b611867565b611843565b61093e565b6102de565b61181f565b6117dd565b6117b6565b611776565b611433565b610f6e565b610f10565b610ef7565b610bf9565b610d46565b610b28565b610cf3565b610c9d565b610c5e565b610b88565b610a0a565b610986565b610960565b610862565b6107f0565b6107bb565b61070b565b6102b2565b610370565b610263565b600091031261025e57565b600080fd5b3461025e57600036600319011261025e5760045460055460408051928352602083019190915290f35b0390f35b6004359061ffff8216820361025e57565b6024359061ffff8216820361025e57565b3461025e57602036600319011261025e576102cb610290565b005b6001600160a01b0381160361025e57565b3461025e57602036600319011261025e576102fa6004356102cd565b602060405160018152f35b9181601f8401121561025e578235916001600160401b03831161025e576020838186019501011161025e57565b90604060031983011261025e5760043561ffff8116810361025e5791602435906001600160401b03821161025e5761036c91600401610305565b9091565b3461025e576020600161ffff8261038636610332565b93909116600052600a8252604060002083604051948593843782019081520301902001541515604051908152f35b634e487b7160e01b600052604160045260246000fd5b6001600160401b0381116103dd57604052565b6103b4565b602081019081106001600160401b038211176103dd57604052565b90601f801991011681019081106001600160401b038211176103dd57604052565b60405190606082018281106001600160401b038211176103dd57604052565b6001600160401b0381116103dd57601f01601f191660200190565b9291926104648261043d565b9161047260405193846103fd565b82948184528183011161025e578281602093846000960137010152565b9080601f8301121561025e578160206104aa93359101610458565b90565b60005b8381106104c05750506000910152565b81810151838201526020016104b0565b634e487b7160e01b600052603260045260246000fd5b8054156104fb57600052602060002090600090565b6104d0565b80548210156104fb5760005260206000209060011b0190600090565b90600182811c9216801561054c575b602083101461053657565b634e487b7160e01b600052602260045260246000fd5b91607f169161052b565b604051906000826007549161056a8361051c565b808352926001908181169081156105f25750600114610593575b50610591925003836103fd565b565b6007600090815291507fa66cc928b5edb82af9bd49922954155ab7b0942694bea4ce44661d9a8736c6885b8483106105d75750610591935050810160200138610584565b81935090816020925483858a010152019101909185926105be565b90506020925061059194915060ff191682840152151560051b82010138610584565b90604051918260008254926106288461051c565b9081845260019485811690816000146106955750600114610652575b5050610591925003836103fd565b9093915060005260209081600020936000915b81831061067d57505061059193508201013880610644565b85548884018501529485019487945091830191610665565b91505061059194506020925060ff191682840152151560051b8201013880610644565b906020916106d1815180928185528580860191016104ad565b601f01601f1916010190565b6001600160401b036104aa94936001600160a01b0360609416835216602082015281604082015201906106b8565b3461025e57606036600319011261025e57610724610290565b6001600160401b0360243581811161025e57602061074961077092369060040161048f565b61ffff6044359516600052600b8252604060002082604051948386809551938492016104ad565b82019081520301902091825481101561025e5761079861028c916001600160a01b0394610500565b506107a7600182549201610614565b906040519485948260a01c169116846106dd565b3461025e57604036600319011261025e57600480359055602435600555005b634e487b7160e01b600052600060045260246000fd5b3461025e57600036600319011261025e5761028c61080c610556565b6040519182916020835260208301906106b8565b604435906001600160801b038216820361025e57565b606435906001600160401b038216820361025e57565b608435906001600160401b038216820361025e57565b3461025e5760a036600319011261025e576004356001600160801b0380821680920361025e5760243590808216820361025e576102cb926108a1610820565b916108aa610836565b916108b361084c565b608095861b6fffffffffffffffffffffffffffffffff19169190911760025577ffffffffffffffffffffffffffffffffffffffffffffffff9190931616921b77ffffffffffffffff00000000000000000000000000000000169190911760c09190911b7fffffffffffffffff0000000000000000000000000000000000000000000000001617600355565b3461025e57600036600319011261025e57602061ffff60015416604051908152f35b3461025e57600036600319011261025e57602060ff60015460101c166040519015158152f35b3461025e5760a036600319011261025e5761099f610290565b506109ab6024356102cd565b6001600160401b0360443581811161025e576109cb90369060040161048f565b606435801515810361025e5760843592831161025e576109f26109f893369060040161048f565b91612159565b60408051928352602083019190915290f35b3461025e57610a1836610332565b9061ffff8316600052600a6020526040600020602060405180928585833785820190815203019020926001840193610a5285541515612291565b6001600160a01b03815460401c163303610ae357805467ffffffffffffffff191681556102cb94600091610aa9905b7fffffffff0000000000000000000000000000000000000000ffffffffffffffff8154169055565b557f23d2684f396e92a6e2ff2d16f98e6fea00d50cb27a64b531bc0748f730211f9860405180610adb86868684612368565b0390a16124b5565b60405162461bcd60e51b815260206004820152601d60248201527f4c617965725a65726f4d6f636b3a20696e76616c69642063616c6c65720000006044820152606490fd5b3461025e57602036600319011261025e57610b446004356102cd565b6020604051308152f35b90604060031983011261025e5760043561ffff8116810361025e5791602435906001600160401b03821161025e576104aa9160040161048f565b3461025e576060610bc1602061ffff610ba036610b4e565b9116600052600a8252604060002082604051948386809551938492016104ad565b820190815203019020600181549101546001600160a01b03604051926001600160401b038116845260401c1660208301526040820152f35b3461025e57604036600319011261025e5760206001600160401b03610c54610c1f610290565b61ffff60243591610c2f836102cd565b16600052600984526040600020906001600160a01b0316600052602052604060002090565b5416604051908152f35b3461025e57602061ffff81610c7236610332565b93909116600052600b8252604060002083604051948593843782019081520301902054604051908152f35b3461025e57600036600319011261025e5760a0600254600354604051916001600160801b0390818116845260801c6020840152811660408301526001600160401b038160801c16606083015260c01c6080820152f35b3461025e5760206001600160401b03610d338261ffff610d1236610b4e565b911660005260088252604060002082604051948386809551938492016104ad565b8201908152030190205416604051908152f35b3461025e57606036600319011261025e57610d5f610290565b6001600160401b039060243582811161025e57610d80903690600401610305565b9160443584811161025e57610d99903690600401610305565b610dbe610db78496939661ffff16600052600a602052604060002090565b8386611ca2565b90610e0c6001600160a01b036001840198610df38a54610ddf811515612291565b865492831686149081610edc575b506122dc565b845467ffffffffffffffff1916855560401c1692610a81565b600080975586610e44610e37610e308761ffff166000526008602052604060002090565b8689611ca2565b546001600160401b031690565b91833b15610ed857604051621d356760e01b81529788918291610e6f919086898c8c60048801611d28565b038183865af1928315610ed3577f612434f39581c8e7d99746c9c20c6eb0ce8c0eb99f007c5719d620841370957d96610eb494610eba575b5060405195869586612328565b0390a180f35b80610ec7610ecd926103ca565b80610253565b38610ea7565b611c96565b5080fd5b9050610ee936878d610458565b602081519101201438610ded565b3461025e57602036600319011261025e57600435600655005b3461025e57604036600319011261025e576102cb600435610f30816102cd565b6001600160a01b0360243591610f45836102cd565b1660005260006020526040600020906001600160a01b03166001600160a01b0319825416179055565b3461025e5760c036600319011261025e57610f87610290565b6001600160401b0360243581811161025e57610fa7903690600401610305565b91909260443592610fb7846102cd565b610fbf610836565b9460a43584811161025e57610fd8903690600401610305565b929093600c54956001968760ff8260081c16036113e2576102009061ff00191617600c558661101f6110188461ffff16600052600a602052604060002090565b8587611ca2565b6110888361104561103e8761ffff166000526008602052604060002090565b888a611ca2565b61107e61106161105c83546001600160401b031690565b611b7b565b825467ffffffffffffffff19166001600160401b03821617909255565b16848d1614611cbb565b01541561118e57506110ed9493926110e6926110b56110bb9361ffff16600052600b602052604060002090565b91611ca2565b966110d66110c761041e565b6001600160a01b039098168852565b6001600160401b03166020870152565b3691610458565b604083015282541561117f576111038284611fad565b6000815b611134575b505061111a611120926104e6565b90611e7a565b6102cb61010061ff0019600c541617600c55565b61113e8454611b98565b81101561117a578061116f6111566111749387610500565b5061116961116384611fe4565b88610500565b906120ec565b611fd5565b81611107565b61110c565b5061118991611fad565b611120565b90956111a5909892959397985460ff9060101c1690565b156112d057907f0f9e4d95b62f08222d612b5ab92039cd8fbbbea550a95e8df9f927436bbdf5db976112a76112bc969594936111e2368787610458565b602081519101206112066111f461041e565b92881683906001600160401b03169052565b6001600160a01b0384166020830152604082015261123c6112358a61ffff16600052600a602052604060002090565b888c611ca2565b8151815460208401516001600160401b039092167fffffffff0000000000000000000000000000000000000000000000000000000090911617604091821b7bffffffffffffffffffffffffffffffffffffffff00000000000000001617825590910151600190910155565b6112af611bb4565b9460405198899889611d68565b0390a161118962ff00001960015416600155565b9291906001600160a01b038816803b1561025e5760008683928a838b61130d8a8a604051998a9889978896621d356760e01b885260048801611d28565b0392608435f190816113cf575b506113c2577f0f9e4d95b62f08222d612b5ab92039cd8fbbbea550a95e8df9f927436bbdf5db976112bc956113b6611350611bc7565b9661135c368888610458565b6020815191012061138061136e61041e565b92891683906001600160401b03169052565b6001600160a01b0385166020830152604082015261123c6113af8b61ffff16600052600a602052604060002090565b848d611ca2565b60405198899889611d68565b5050505050505050611120565b80610ec76113dc926103ca565b3861131a565b60405162461bcd60e51b8152602060048201526024808201527f4c617965725a65726f4d6f636b3a206e6f2072656365697665207265656e7472604482015263616e637960e01b6064820152608490fd5b60c036600319011261025e57611447610290565b6001600160401b0360243581811161025e5761146790369060040161048f565b60443582811161025e5761147f903690600401610305565b6064949194359361148f856102cd565b6084359061149c826102cd565b60a43590811161025e576114b490369060040161048f565b93600c54600160ff821603611727578791849160ff1916600217600c5580516028146114df90611a34565b60140151956001600160a01b03809881928261150e8b6001600160a01b03166000526000602052604060002090565b546001600160a01b031616986115258a1515611a95565b815115156000146115b46115a561105c9f61163a9b6115e59a6115d797611566936115d19761171257611561919c8d945b161515923691610458565b612159565b509361157485341015611b07565b61158d339161ffff166000526009602052604060002090565b906001600160a01b0316600052602052604060002090565b9e8f546001600160401b031690565b8e5467ffffffffffffffff19166001600160401b03821617909e55565b34611ba7565b806116ed575b5050506126d0565b908093509891986116a2575b505050604051926110e68461162c883360208401906028926bffffffffffffffffffffffff19809260601b16835260601b1660148201520190565b03601f1981018652856103fd565b60015461ffff16833b1561025e5761166e600096928793604051998a988997889663c2fa481360e01b885260048801611c43565b03925af18015610ed35761168f575b6102cb600160ff19600c541617600c55565b80610ec761169c926103ca565b3861167d565b16600080808085855af16116b4611bc7565b50156116c1575b806115f1565b7f2c7a964ca3de5ec1d42d9822f9bbd0eb142a59cc9f855e9d93813b773192c7a3600080a338806116bb565b60008080939261170a958294165af1611704611bc7565b50611bf7565b8738806115dd565b611561915061171f610556565b9c8d94611556565b60405162461bcd60e51b815260206004820152602160248201527f4c617965725a65726f4d6f636b3a206e6f2073656e64207265656e7472616e636044820152607960f81b6064820152608490fd5b3461025e57602036600319011261025e576020600435611795816102cd565b6001600160a01b038091166000526000825260406000205416604051908152f35b3461025e57600036600319011261025e576020600260ff600c5460081c1614604051908152f35b3461025e57608036600319011261025e576117f6610290565b506117ff6102a1565b506064356001600160401b03811161025e576102cb90369060040161048f565b3461025e57600036600319011261025e576001805462ff0000191662010000179055005b3461025e57600036600319011261025e576020600260ff600c541614604051908152f35b3461025e57608036600319011261025e57611880610290565b506118896102a1565b506118956044356102cd565b61028c6040516118a4816103e2565b600081526040519182916020835260208301906106b8565b3461025e57600036600319011261025e576020600654604051908152f35b3461025e5760208060031936011261025e576001600160401b0360043581811161025e5761190c90369060040161048f565b9182519182116103dd5761192a8261192560075461051c565b611ddf565b80601f83116001146119655750819260009261195a575b5050600019600383901b1c191660019190911b17600755005b015190503880611941565b90601f1983169361199860076000527fa66cc928b5edb82af9bd49922954155ab7b0942694bea4ce44661d9a8736c68890565b926000905b8682106119d457505083600195106119bb575b505050811b01600755005b015160001960f88460031b161c191690553880806119b0565b8060018596829496860151815501950193019061199d565b3461025e5760206001600160401b0361ffff82611a0836610332565b939091166000526008825260406000208360405194859384378201908152030190205416604051908152f35b15611a3b57565b60405162461bcd60e51b815260206004820152602c60248201527f4c617965725a65726f4d6f636b3a20696e636f72726563742072656d6f74652060448201526b616464726573732073697a6560a01b6064820152608490fd5b15611a9c57565b60405162461bcd60e51b815260206004820152603760248201527f4c617965725a65726f4d6f636b3a2064657374696e6174696f6e204c6179657260448201527f5a65726f20456e64706f696e74206e6f7420666f756e640000000000000000006064820152608490fd5b15611b0e57565b60405162461bcd60e51b815260206004820152602960248201527f4c617965725a65726f4d6f636b3a206e6f7420656e6f756768206e617469766560448201526820666f72206665657360b81b6064820152608490fd5b634e487b7160e01b600052601160045260246000fd5b6001600160401b03809116908114611b935760010190565b611b65565b600019810191908211611b9357565b91908203918211611b9357565b60405190611bc1826103e2565b60008252565b3d15611bf2573d90611bd88261043d565b91611be660405193846103fd565b82523d6000602084013e565b606090565b15611bfe57565b60405162461bcd60e51b815260206004820152601f60248201527f4c617965725a65726f4d6f636b3a206661696c656420746f20726566756e64006044820152606490fd5b929491936001600160a01b03611c776104aa989661ffff6001600160401b039516875260c0602088015260c08701906106b8565b96166040850152166060830152608082015260a08184039101526106b8565b6040513d6000823e3d90fd5b6020919283604051948593843782019081520301902090565b15611cc257565b60405162461bcd60e51b815260206004820152601a60248201527f4c617965725a65726f4d6f636b3a2077726f6e67206e6f6e63650000000000006044820152606490fd5b908060209392818452848401376000828201840152601f01601f1916010190565b91611d54906104aa9795969461ffff6001600160401b0394168552608060208601526080850191611d07565b941660408201526060818503910152611d07565b9692946001600160a01b03611da06104aa9a9894611dba9861ffff6001600160401b0396168c5260c060208d015260c08c0191611d07565b951660408901521660608701528583036080870152611d07565b9160a08184039101526106b8565b818110611dd3575050565b60008155600101611dc8565b90601f8211611dec575050565b6105919160076000527fa66cc928b5edb82af9bd49922954155ab7b0942694bea4ce44661d9a8736c688906020601f840160051c83019310611e36575b601f0160051c0190611dc8565b9091508190611e29565b9190601f8111611e4f57505050565b610591926000526020600020906020601f840160051c83019310611e3657601f0160051c0190611dc8565b90611fa8578151815473ffffffffffffffffffffffffffffffffffffffff19166001600160a01b0391909116178155602082810151825467ffffffffffffffff60a01b191660a09190911b67ffffffffffffffff60a01b161782556001600160401b03906040600180940194015180519283116103dd57611f0583611eff875461051c565b87611e40565b81601f8411600114611f3e5750928293918392600094611f33575b50501b916000199060031b1c1916179055565b015192503880611f20565b919083601f198116611f5588600052602060002090565b946000905b88838310611f8e5750505010611f75575b505050811b019055565b015160001960f88460031b161c19169055388080611f6b565b858701518855909601959485019487935090810190611f5a565b6107da565b90815491680100000000000000008310156103dd578261111a91600161059195018155610500565b6000198114611b935760010190565b9060018201809211611b9357565b91908201809211611b9357565b9190918281146120e757612013835461051c565b6001600160401b0381116103dd576120358161202f845461051c565b84611e40565b600093601f8211600114612071579381929394600092612066575b50508160011b916000199060031b1c1916179055565b015490503880612050565b612085601f19831691600052602060002090565b9461209584600052602060002090565b91815b8181106120cf575095836001959697106120b657505050811b019055565b015460001960f88460031b161c19169055388080611f6b565b87830154845560019384019390920191602001612098565b509050565b90611fa8578181036120fc575050565b6001808361212d6001600160a01b0361059196541685906001600160a01b03166001600160a01b0319825416179055565b8054845467ffffffffffffffff60a01b191667ffffffffffffffff60a01b909116178455019101611fff565b82519192600092839291901561227f5761217690915b51916126d0565b50600261ffff600095949395931614612260575b50600254908160801c90600354948560801c6001600160401b0316906121af91611ff2565b6121b9908361240c565b6121c291611ff2565b916001600160801b031691826121d79161240c565b6402540be40090049360c01c6121ec9161262c565b906121f69161262c565b6402540be4006001600160801b03909116046001600160801b031661221a9161240c565b61222391611ff2565b92600654916122338386846125a4565b9115612251575061224e92936122499194611ff2565b611ff2565b91565b9361224e935061224991611ff2565b9050612279816001600160801b036003541610156125d1565b3861218a565b5061217661228b610556565b9161216f565b1561229857565b606460405162461bcd60e51b815260206004820152602060248201527f4c617965725a65726f4d6f636b3a206e6f2073746f726564207061796c6f61646044820152fd5b156122e357565b60405162461bcd60e51b815260206004820152601e60248201527f4c617965725a65726f4d6f636b3a20696e76616c6964207061796c6f616400006044820152606490fd5b9395949061235b6001600160a01b039360609561ffff6001600160401b0394168852608060208901526080880191611d07565b9616604085015216910152565b60409061ffff6104aa95931681528160208201520191611d07565b90604051606081016001600160401b0393828210858311176103dd5760016123c9916040938452849681546001600160a01b038116875260a01c16602086015201610614565b910152565b916123f8906104aa969461ffff6001600160401b0394168552608060208601526080850191611d07565b9316604082015260608184039101526106b8565b81810292918115918404141715611b9357565b8054801561249f5760001901906124368282610500565b611fa857806000600192550161244c815461051c565b908161245757505055565b601f821160011461246a57600091505555565b61248c61249c92826000526001601f6020600020920160051c82019101611dc8565b6000908082528160208120915555565b55565b634e487b7160e01b600052603160045260246000fd5b92916124d96124d28561ffff16600052600b602052604060002090565b8284611ca2565b925b8354801561259c576124f86124f26124fe92611b98565b86610500565b50612383565b61252161251561251583516001600160a01b031690565b6001600160a01b031690565b9061253660208201516001600160401b031690565b9160408092015190803b1561025e5761256b9389889451809681958294621d356760e01b84528b6000998a96600487016123ce565b03925af18015610ed357612589575b506125848461241f565b6124db565b80610ec7612596926103ca565b3861257a565b509350505050565b909190156125b457505060045490565b8101809111611b93576125cd612710916005549061240c565b0490565b156125d857565b60405162461bcd60e51b815260206004820152602660248201527f4c617965725a65726f4d6f636b3a206473744e6174697665416d7420746f6f2060448201526503630b933b2960d51b6064820152608490fd5b9190916001600160801b0380809416911602918216918203611b9357565b1561265157565b60405162461bcd60e51b815260206004820152601260248201527f556e737570706f727465642074785479706500000000000000000000000000006044820152606490fd5b1561269d57565b60405162461bcd60e51b815260206004820152600b60248201526a47617320746f6f206c6f7760a81b6044820152606490fd5b600080825160228114908115612780575b501561273b57600283015193602284015193600261ffff8716600181148015612732575b61270e9061264a565b612719871515612696565b146127215750565b925090506056604283015192015190565b50808214612705565b60405162461bcd60e51b815260206004820152601560248201527f496e76616c69642061646170746572506172616d7300000000000000000000006044820152606490fd5b6042915011386126e156fea2646970667358221220eec110da3e1333071f9238df9b8cae1690926836383d3a8e2126b5ffb70bae4c64736f6c63430008120033",
  "linkReferences": {},
  "deployedLinkReferences": {}
}