{
  "_format": "hh-sol-artifact-1",
  "contractName": "ARBTriCryptoOracle",
  "sourceName": "contracts/oracle/implementations/ARBTriCryptoOracle.sol",
  "abi": [
    {
      "inputs": [
        {
          "internalType": "string",
          "name": "__name",
          "type": "string"
        },
        {
          "internalType": "string",
          "name": "__symbol",
          "type": "string"
        },
        {
          "internalType": "contract ICurvePool",
          "name": "pool",
          "type": "address"
        },
        {
          "internalType": "contract AggregatorV3Interface",
          "name": "btcFeed",
          "type": "address"
        },
        {
          "internalType": "contract AggregatorV3Interface",
          "name": "ethFeed",
          "type": "address"
        },
        {
          "internalType": "contract AggregatorV3Interface",
          "name": "usdtFeed",
          "type": "address"
        },
        {
          "internalType": "contract AggregatorV3Interface",
          "name": "wbtcFeed",
          "type": "address"
        },
        {
          "internalType": "address",
          "name": "_sequencerUptimeFeed",
          "type": "address"
        },
        {
          "internalType": "address",
          "name": "_admin",
          "type": "address"
        }
      ],
      "stateMutability": "nonpayable",
      "type": "constructor"
    },
    {
      "inputs": [],
      "name": "GracePeriodNotOver",
      "type": "error"
    },
    {
      "inputs": [],
      "name": "InvalidChainlinkRate",
      "type": "error"
    },
    {
      "inputs": [],
      "name": "SequencerDown",
      "type": "error"
    },
    {
      "anonymous": false,
      "inputs": [
        {
          "indexed": true,
          "internalType": "bytes32",
          "name": "role",
          "type": "bytes32"
        },
        {
          "indexed": true,
          "internalType": "bytes32",
          "name": "previousAdminRole",
          "type": "bytes32"
        },
        {
          "indexed": true,
          "internalType": "bytes32",
          "name": "newAdminRole",
          "type": "bytes32"
        }
      ],
      "name": "RoleAdminChanged",
      "type": "event"
    },
    {
      "anonymous": false,
      "inputs": [
        {
          "indexed": true,
          "internalType": "bytes32",
          "name": "role",
          "type": "bytes32"
        },
        {
          "indexed": true,
          "internalType": "address",
          "name": "account",
          "type": "address"
        },
        {
          "indexed": true,
          "internalType": "address",
          "name": "sender",
          "type": "address"
        }
      ],
      "name": "RoleGranted",
      "type": "event"
    },
    {
      "anonymous": false,
      "inputs": [
        {
          "indexed": true,
          "internalType": "bytes32",
          "name": "role",
          "type": "bytes32"
        },
        {
          "indexed": true,
          "internalType": "address",
          "name": "account",
          "type": "address"
        },
        {
          "indexed": true,
          "internalType": "address",
          "name": "sender",
          "type": "address"
        }
      ],
      "name": "RoleRevoked",
      "type": "event"
    },
    {
      "inputs": [],
      "name": "A0",
      "outputs": [
        {
          "internalType": "uint256",
          "name": "",
          "type": "uint256"
        }
      ],
      "stateMutability": "view",
      "type": "function"
    },
    {
      "inputs": [],
      "name": "BTC_FEED",
      "outputs": [
        {
          "internalType": "contract AggregatorV3Interface",
          "name": "",
          "type": "address"
        }
      ],
      "stateMutability": "view",
      "type": "function"
    },
    {
      "inputs": [],
      "name": "DEFAULT_ADMIN_ROLE",
      "outputs": [
        {
          "internalType": "bytes32",
          "name": "",
          "type": "bytes32"
        }
      ],
      "stateMutability": "view",
      "type": "function"
    },
    {
      "inputs": [],
      "name": "DISCOUNT0",
      "outputs": [
        {
          "internalType": "uint256",
          "name": "",
          "type": "uint256"
        }
      ],
      "stateMutability": "view",
      "type": "function"
    },
    {
      "inputs": [],
      "name": "ETH_FEED",
      "outputs": [
        {
          "internalType": "contract AggregatorV3Interface",
          "name": "",
          "type": "address"
        }
      ],
      "stateMutability": "view",
      "type": "function"
    },
    {
      "inputs": [],
      "name": "GAMMA0",
      "outputs": [
        {
          "internalType": "uint256",
          "name": "",
          "type": "uint256"
        }
      ],
      "stateMutability": "view",
      "type": "function"
    },
    {
      "inputs": [],
      "name": "GRACE_PERIOD_TIME",
      "outputs": [
        {
          "internalType": "uint256",
          "name": "",
          "type": "uint256"
        }
      ],
      "stateMutability": "view",
      "type": "function"
    },
    {
      "inputs": [],
      "name": "GUARDIAN_ROLE_CHAINLINK",
      "outputs": [
        {
          "internalType": "bytes32",
          "name": "",
          "type": "bytes32"
        }
      ],
      "stateMutability": "view",
      "type": "function"
    },
    {
      "inputs": [],
      "name": "SEQUENCER_UPTIME_FEED",
      "outputs": [
        {
          "internalType": "contract AggregatorV3Interface",
          "name": "",
          "type": "address"
        }
      ],
      "stateMutability": "view",
      "type": "function"
    },
    {
      "inputs": [],
      "name": "TRI_CRYPTO",
      "outputs": [
        {
          "internalType": "contract ICurvePool",
          "name": "",
          "type": "address"
        }
      ],
      "stateMutability": "view",
      "type": "function"
    },
    {
      "inputs": [],
      "name": "USDT_FEED",
      "outputs": [
        {
          "internalType": "contract AggregatorV3Interface",
          "name": "",
          "type": "address"
        }
      ],
      "stateMutability": "view",
      "type": "function"
    },
    {
      "inputs": [],
      "name": "WBTC_FEED",
      "outputs": [
        {
          "internalType": "contract AggregatorV3Interface",
          "name": "",
          "type": "address"
        }
      ],
      "stateMutability": "view",
      "type": "function"
    },
    {
      "inputs": [],
      "name": "_name",
      "outputs": [
        {
          "internalType": "string",
          "name": "",
          "type": "string"
        }
      ],
      "stateMutability": "view",
      "type": "function"
    },
    {
      "inputs": [],
      "name": "_symbol",
      "outputs": [
        {
          "internalType": "string",
          "name": "",
          "type": "string"
        }
      ],
      "stateMutability": "view",
      "type": "function"
    },
    {
      "inputs": [
        {
          "internalType": "uint32",
          "name": "_gracePeriod",
          "type": "uint32"
        }
      ],
      "name": "changeGracePeriod",
      "outputs": [],
      "stateMutability": "nonpayable",
      "type": "function"
    },
    {
      "inputs": [
        {
          "internalType": "uint32",
          "name": "_stalePeriod",
          "type": "uint32"
        }
      ],
      "name": "changeStalePeriod",
      "outputs": [],
      "stateMutability": "nonpayable",
      "type": "function"
    },
    {
      "inputs": [],
      "name": "decimals",
      "outputs": [
        {
          "internalType": "uint8",
          "name": "",
          "type": "uint8"
        }
      ],
      "stateMutability": "pure",
      "type": "function"
    },
    {
      "inputs": [
        {
          "internalType": "bytes",
          "name": "",
          "type": "bytes"
        }
      ],
      "name": "get",
      "outputs": [
        {
          "internalType": "bool",
          "name": "success",
          "type": "bool"
        },
        {
          "internalType": "uint256",
          "name": "rate",
          "type": "uint256"
        }
      ],
      "stateMutability": "nonpayable",
      "type": "function"
    },
    {
      "inputs": [
        {
          "internalType": "bytes32",
          "name": "role",
          "type": "bytes32"
        }
      ],
      "name": "getRoleAdmin",
      "outputs": [
        {
          "internalType": "bytes32",
          "name": "",
          "type": "bytes32"
        }
      ],
      "stateMutability": "view",
      "type": "function"
    },
    {
      "inputs": [
        {
          "internalType": "bytes32",
          "name": "role",
          "type": "bytes32"
        },
        {
          "internalType": "address",
          "name": "account",
          "type": "address"
        }
      ],
      "name": "grantRole",
      "outputs": [],
      "stateMutability": "nonpayable",
      "type": "function"
    },
    {
      "inputs": [
        {
          "internalType": "bytes32",
          "name": "role",
          "type": "bytes32"
        },
        {
          "internalType": "address",
          "name": "account",
          "type": "address"
        }
      ],
      "name": "hasRole",
      "outputs": [
        {
          "internalType": "bool",
          "name": "",
          "type": "bool"
        }
      ],
      "stateMutability": "view",
      "type": "function"
    },
    {
      "inputs": [
        {
          "internalType": "bytes",
          "name": "",
          "type": "bytes"
        }
      ],
      "name": "name",
      "outputs": [
        {
          "internalType": "string",
          "name": "",
          "type": "string"
        }
      ],
      "stateMutability": "view",
      "type": "function"
    },
    {
      "inputs": [
        {
          "internalType": "bytes",
          "name": "",
          "type": "bytes"
        }
      ],
      "name": "peek",
      "outputs": [
        {
          "internalType": "bool",
          "name": "success",
          "type": "bool"
        },
        {
          "internalType": "uint256",
          "name": "rate",
          "type": "uint256"
        }
      ],
      "stateMutability": "view",
      "type": "function"
    },
    {
      "inputs": [
        {
          "internalType": "bytes",
          "name": "",
          "type": "bytes"
        }
      ],
      "name": "peekSpot",
      "outputs": [
        {
          "internalType": "uint256",
          "name": "rate",
          "type": "uint256"
        }
      ],
      "stateMutability": "view",
      "type": "function"
    },
    {
      "inputs": [
        {
          "internalType": "bytes32",
          "name": "role",
          "type": "bytes32"
        },
        {
          "internalType": "address",
          "name": "account",
          "type": "address"
        }
      ],
      "name": "renounceRole",
      "outputs": [],
      "stateMutability": "nonpayable",
      "type": "function"
    },
    {
      "inputs": [
        {
          "internalType": "bytes32",
          "name": "role",
          "type": "bytes32"
        },
        {
          "internalType": "address",
          "name": "account",
          "type": "address"
        }
      ],
      "name": "revokeRole",
      "outputs": [],
      "stateMutability": "nonpayable",
      "type": "function"
    },
    {
      "inputs": [],
      "name": "stalePeriod",
      "outputs": [
        {
          "internalType": "uint32",
          "name": "",
          "type": "uint32"
        }
      ],
      "stateMutability": "view",
      "type": "function"
    },
    {
      "inputs": [
        {
          "internalType": "bytes",
          "name": "",
          "type": "bytes"
        }
      ],
      "name": "symbol",
      "outputs": [
        {
          "internalType": "string",
          "name": "",
          "type": "string"
        }
      ],
      "stateMutability": "view",
      "type": "function"
    }
  ],
  "bytecode": "0x60406101408152346200055057620020959081380380620000208162000555565b938439820190610120918284820312620005505783516001600160401b038111620005505781620000539186016200057b565b602085015190916001600160401b0382116200055057620000769186016200057b565b848301516001600160a01b038116810362000550576200009960608701620005ed565b620000a760808801620005ed565b90620000b660a08901620005ed565b92620000c560c08a01620005ed565b94620000d460e08b01620005ed565b96620000e5610100809c01620005ed565b610e106001556001600160a01b039098166080526002805463ffffffff1916620151801790558051906001600160401b0382116200041f5760035490600182811c9216801562000545575b6020831014620003fe5781601f849311620004d0575b50602090601f8311600114620004415760009262000435575b50508160011b916000199060031b1c1916176003555b8051906001600160401b0382116200041f5760045490600182811c9216801562000414575b6020831014620003fe5781601f84931162000389575b50602090601f8311600114620002fe57600092620002f2575b50508160011b916000199060031b1c1916176004555b60a05260c05260e05285528352600080805260208181528382206001600160a01b039093168083529290528290205460ff1615620002a0575b505190611a92928362000603843960805183818161034a0152611961015260a05183818161048c01528181610f90015281816112cc015261132d015260c0518381816106ff0152610fcf015260e0518381816106bb01526110550152518281816101bc015281816110b101528181611104015261154001525181818161044801526110120152f35b600080526000602052816000208160005260205281600020600160ff19825416179055339060007f2f8788117e7eff1d82e926ec794901d17c78024a50270940304540a733656f0d8180a43862000218565b015190503880620001c9565b600460009081527f8a35acfbc15ff81a39ae7d344fd709f28e8600b4aa8c65c6b64bfe7fe36bd19b9350601f198516905b81811062000370575090846001959493921062000356575b505050811b01600455620001df565b015160001960f88460031b161c1916905538808062000347565b929360206001819287860151815501950193016200032f565b60046000529091507f8a35acfbc15ff81a39ae7d344fd709f28e8600b4aa8c65c6b64bfe7fe36bd19b601f840160051c81019160208510620003f3575b90601f859493920160051c01905b818110620003e35750620001b0565b60008155849350600101620003d4565b9091508190620003c6565b634e487b7160e01b600052602260045260246000fd5b91607f16916200019a565b634e487b7160e01b600052604160045260246000fd5b0151905038806200015f565b6003600090815293507fc2575a0e9e593c00f959f8c92f12db2869c3395a3b0502d05e2516446f71f85b91905b601f1984168510620004b4576001945083601f198116106200049a575b505050811b0160035562000175565b015160001960f88460031b161c191690553880806200048b565b818101518355602094850194600190930192909101906200046e565b60036000529091507fc2575a0e9e593c00f959f8c92f12db2869c3395a3b0502d05e2516446f71f85b601f840160051c810191602085106200053a575b90601f859493920160051c01905b8181106200052a575062000146565b600081558493506001016200051b565b90915081906200050d565b91607f169162000130565b600080fd5b6040519190601f01601f191682016001600160401b038111838210176200041f57604052565b919080601f84011215620005505782516001600160401b0381116200041f57602090620005b1601f8201601f1916830162000555565b92818452828287010111620005505760005b818110620005d957508260009394955001015290565b8581018301518482018401528201620005c3565b51906001600160a01b0382168203620005505756fe60806040908082526004908136101561001757600080fd5b600091823560e01c9182630942d09a1461072e57508163128b8f65146106ea57816324609906146106a6578163248a9ca3146106775781632f2ff15d146105d7578163313ce567146105bb57816336568abe14610567578163408b0546146105365781635cc23f7d14610518578163630914d1146104dc57816366060ada146104bb5781636812fa991461047757816370d0d0761461043357816391d14854146103f9578163a217fddf146103de578163a5b36a36146103b9578163b09f12661461039b578163c4fda2f514610379578163c598018214610335578163c699c4d614610317578163d28d8852146102f9578163d39bbef0146102d5578163d547741f1461029f578163d568866c14610272578163d6d7d525146101eb57508063d90fdff1146101a7578063ed2f8603146101845763eeb8a8d31461015a57600080fd5b34610181575061016936610989565b5050610173610f73565b815190600182526020820152f35b80fd5b5090346101a357816003193601126101a3576020906001549051908152f35b5080fd5b5090346101a357816003193601126101a357517f00000000000000000000000000000000000000000000000000000000000000006001600160a01b03168152602090f35b9190503461018157506101fd36610989565b50506002549060ff8260201c1661023a575060ff60201b1916600160201b8117600255610228610f73565b90600255815190600182526020820152f35b606490602084519162461bcd60e51b835282015260126024820152714f7261636c653a207265656e7472616e637960701b6044820152fd5b8284346101a35761029b9061028636610989565b50506102906108a3565b90519182918261095d565b0390f35b8284346101a35760016102d2916102cd6102b836610756565b93909283875286602052862001543390610bd0565b610e30565b80f35b8284346101a3576020906102e836610989565b50506102f2610f73565b9051908152f35b8284346101a357816003193601126101a35761029b906102906108a3565b8284346101a35761029b9061032b36610989565b50506102906107d5565b8284346101a357816003193601126101a357517f00000000000000000000000000000000000000000000000000000000000000006001600160a01b03168152602090f35b8284346101a357816003193601126101a357602090516603dd0a0301e8008152f35b8284346101a357816003193601126101a35761029b906102906107d5565b8284346101a357816003193601126101a35760209063ffffffff600254169051908152f35b8284346101a357816003193601126101a35751908152602090f35b8284346101a35760ff8160209361040f36610756565b9082528186528282206001600160a01b039091168252855220549151911615158152f35b8284346101a357816003193601126101a357517f00000000000000000000000000000000000000000000000000000000000000006001600160a01b03168152602090f35b8284346101a357816003193601126101a357517f00000000000000000000000000000000000000000000000000000000000000006001600160a01b03168152602090f35b8284346101a357816003193601126101a35760209051651977420dc0008152f35b9050346101a35760203660031901126101a3573563ffffffff81168091036101a357610507336109d3565b63ffffffff19600254161760025580f35b8284346101a357816003193601126101a3576020905162083d608152f35b9050346101a35760203660031901126101a3573563ffffffff81168091036101a357610561336109d3565b60015580f35b9050346101a35761057736610756565b91336001600160a01b038416036105935750906102d291610e30565b606490602086519162461bcd60e51b83528201526002602482015261373160f01b6044820152fd5b8284346101a357816003193601126101a3576020905160128152f35b8284346101a3576105e736610756565b909182845283602052610601600182862001543390610bd0565b82845260208481528185206001600160a01b039093168086529290528084205460ff161561062d578380f35b828452836020528084208285526020528320600160ff1982541617905533917f2f8788117e7eff1d82e926ec794901d17c78024a50270940304540a733656f0d8480a48180808380f35b839150346106a25760203660031901126106a257816020936001923581528085522001549051908152f35b8280fd5b8284346101a357816003193601126101a357517f00000000000000000000000000000000000000000000000000000000000000006001600160a01b03168152602090f35b8284346101a357816003193601126101a357517f00000000000000000000000000000000000000000000000000000000000000006001600160a01b03168152602090f35b8390346101a357816003193601126101a35780600080516020611a3d83398151915260209252f35b604090600319011261077c57600435906024356001600160a01b038116810361077c5790565b600080fd5b608081019081106001600160401b0382111761079c57604052565b634e487b7160e01b600052604160045260246000fd5b601f909101601f19168101906001600160401b0382119082101761079c57604052565b60405190600060045490600182811c90808416938415610899575b602094858410811461088557838852879493929181156108655750600114610823575b5050610821925003836107b2565b565b90939150600460005281600020936000915b81831061084d57505061082193508201013880610813565b85548884018501529485019487945091830191610835565b91505061082194925060ff191682840152151560051b8201013880610813565b634e487b7160e01b85526022600452602485fd5b91607f16916107f0565b60405190600060035490600182811c90808416938415610930575b6020948584108114610885578388528794939291811561086557506001146108ee575050610821925003836107b2565b90939150600360005281600020936000915b81831061091857505061082193508201013880610813565b85548884018501529485019487945091830191610900565b91607f16916108be565b60005b83811061094d5750506000910152565b818101518382015260200161093d565b6040916020825261097d815180928160208601526020868601910161093a565b601f01601f1916010190565b90602060031983011261077c576001600160401b03916004359083821161077c578060238301121561077c57816004013593841161077c576024848301011161077c576024019190565b6001600160a01b031660008181527f8a40f0b47fdc2a0ce293b772acfc7508c8315a4d462786c1adc3a56f92ca2d0560209081526040808320549093919291600080516020611a3d8339815191529160ff1615610a31575050505050565b610a3a90610d34565b845191610a4683610781565b60428352848301936060368637835115610bbc5760308553835190600191821015610bbc5790607860218601536041915b818311610b4e57505050610b1e57610acc938593610b0493610af5604894610b1a9951988576020b1b1b2b9b9a1b7b73a3937b61d1030b1b1b7bab73a1604d1b8b97880152825192839160378901910161093a565b8401917001034b99036b4b9b9b4b733903937b6329607d1b60378401525180938684019061093a565b010360288101855201836107b2565b5162461bcd60e51b81529182916004830161095d565b0390fd5b60648486519062461bcd60e51b82528060048301526024820152600080516020611a1d8339815191526044820152fd5b909192600f81166010811015610ba8576f181899199a1a9b1b9c1cb0b131b232b360811b901a610b7e8588610d0d565b5360041c928015610b9457600019019190610a77565b634e487b7160e01b82526011600452602482fd5b634e487b7160e01b83526032600452602483fd5b634e487b7160e01b81526032600452602490fd5b60008181526020918183526040938483209060018060a01b031690818452845260ff858420541615610c03575050505050565b610c0c90610d34565b845191610c1883610781565b60428352848301936060368637835115610bbc5760308553835190600191821015610bbc5790607860218601536041915b818311610c9e57505050610b1e57610acc938593610b0493610af5604894610b1a9951988576020b1b1b2b9b9a1b7b73a3937b61d1030b1b1b7bab73a1604d1b8b97880152825192839160378901910161093a565b909192600f81166010811015610ba8576f181899199a1a9b1b9c1cb0b131b232b360811b901a610cce8588610d0d565b5360041c928015610b9457600019019190610c49565b81810292918115918404141715610cf757565b634e487b7160e01b600052601160045260246000fd5b908151811015610d1e570160200190565b634e487b7160e01b600052603260045260246000fd5b60405190606082016001600160401b0381118382101761079c57604052602a8252602082016040368237825115610d1e57603090538151600190811015610d1e57607860218401536029905b808211610dc2575050610d905790565b606460405162461bcd60e51b81526020600482015260206024820152600080516020611a1d8339815191526044820152fd5b9091600f81166010811015610e1b576f181899199a1a9b1b9c1cb0b131b232b360811b901a610df18486610d0d565b5360041c918015610e06576000190190610d80565b60246000634e487b7160e01b81526011600452fd5b60246000634e487b7160e01b81526032600452fd5b9060009180835282602052604083209160018060a01b03169182845260205260ff604084205416610e6057505050565b80835282602052604083208284526020526040832060ff1981541690557ff6391f5c32d9c69d2a47ea670b442974b53935d1edc7fd64eb21e047a839171b339380a4565b6000908015610f62578080600114610f5a57600214610f52576001918261013383101683600b84101617610f425760028392935b808211610f0557505082600019048211610ef157500290565b634e487b7160e01b81526011600452602490fd5b909380600019048111610f2e57818516610f25575b800293811c90610ed8565b80930292610f1a565b634e487b7160e01b83526011600452602483fd5b929150600283910a92610ef15750565b509060049150565b505050600190565b5090565b91908203918211610cf757565b610f7b61195f565b604051630176f71760e71b81526020816004817f00000000000000000000000000000000000000000000000000000000000000006001600160a01b03165afa90811561149c5760009161168a575b50610ff37f000000000000000000000000000000000000000000000000000000000000000061173a565b90816402540be4008102046402540be4001482151715610cf7576110367f000000000000000000000000000000000000000000000000000000000000000061173a565b91826402540be4008102046402540be4001483151715610cf7576110797f000000000000000000000000000000000000000000000000000000000000000061173a565b90816402540be4008102046402540be4001482151715610cf75761109b61195f565b604051633fabe5a360e21b81529060a0826004817f00000000000000000000000000000000000000000000000000000000000000006001600160a01b03165afa801561149c576000928380918193611651575b506040516309169eff60e21b81526020816004817f00000000000000000000000000000000000000000000000000000000000000006001600160a01b03165afa90811561149c57600491602091600091611634575b50604051630455b78f60e31b815292839182906001600160a01b03165afa90811561149c57600091611615575b5060170b851392831593611528575b8315611511575b505081156114f6575b506114e4576402540be4008202918083046402540be4001490151715610cf7576111f2926402540be4006111ed92670de0b6b3a7640000888184819b02106000146114da5783806111e39394029102610ce4565b04915b0290610ce4565b610ce4565b906003908082029082820403610cf757828280808080806112b3988b9a60018060801b031060071b88811c60018060401b031060061b1788811c63ffffffff1060051b1788811c61ffff1060041b1788811c60ff10821b1760ff627f624b60e81b8383061a91838b821c600f109104011b04808080028a040101048080800289040101048080800288040101048080800287040101048080800286040101048080800285040101048080800284040101048091818002900410900390610ce4565b60405163b137392960e01b8152919004906020816004817f00000000000000000000000000000000000000000000000000000000000000006001600160a01b03165afa90811561149c576000916114a8575b5082810290808204841490151715610cf757604051630f446c1d60e41b8152906020826004817f00000000000000000000000000000000000000000000000000000000000000006001600160a01b03165afa91821561149c57600092611468575b5083820291808304851490151715610cf75783611393651977420dc00062083d6061139995049304610ea4565b04610ce4565b697b426fab61f00de3639960221b808211156114605750915b8260018060881b031060071b83811c60018060481b031060061b1783811c64ffffffffff1060051b1783811c62ffffff1060041b1760019060b56201000086831c0191831c1b0260121c80850401811c80850401811c80850401811c80850401811c80850401811c80850401811c80850401901c808094041092838103936603dd0a0301e8008086029586041491141715610cf7576114568161145d940483610ce4565b0490610f66565b90565b9050916113b2565b90916020823d602011611494575b81611483602093836107b2565b810103126101815750519038611366565b3d9150611476565b6040513d6000823e3d90fd5b906020823d6020116114d2575b816114c2602093836107b2565b8101031261018157505138611305565b3d91506114b5565b50508102916111e6565b60405163ae19356360e01b8152600490fd5b611501915042610f66565b63ffffffff60025416103861118f565b6001600160501b0390811691161191503880611186565b6040516309169eff60e21b81529093506020816004817f00000000000000000000000000000000000000000000000000000000000000006001600160a01b03165afa90811561149c576004916020916000916115e8575b506040516370da2f6760e01b815292839182906001600160a01b03165afa90811561149c576000916115b9575b5060170b8512159261117f565b6115db915060203d6020116115e1575b6115d381836107b2565b810190611721565b386115ac565b503d6115c9565b6116089150823d841161160e575b61160081836107b2565b810190611702565b3861157f565b503d6115f6565b61162e915060203d6020116115e1576115d381836107b2565b38611170565b61164b9150823d841161160e5761160081836107b2565b38611143565b9250505061167791925060a03d8111611683575b61166f81836107b2565b8101906116d0565b929493909150386110ee565b503d611665565b906020823d6020116116b4575b816116a4602093836107b2565b8101031261018157505138610fc9565b3d9150611697565b51906001600160501b038216820361077c57565b908160a091031261077c576116e4816116bc565b9160208201519160408101519161145d6080606084015193016116bc565b9081602091031261077c57516001600160a01b038116810361077c5790565b9081602091031261077c57518060170b810361077c5790565b61174261195f565b60408051633fabe5a360e21b81526001600160a01b0392600492919084169060a0818581855afa80156119545760009081968293839261192a575b5085516309169eff60e21b808252956020929183818b81855afa908115611902578391859160009161190d575b508b8b5180948193630455b78f60e31b8352165afa908115611902576000916118e5575b5060170b8a139687159761183a575b505050508315611823575b50508115611808575b506117fb57505090565b5163ae19356360e01b8152fd5b611813915042610f66565b63ffffffff6002541610386117f1565b6001600160501b03908116911611915038806117e8565b83949750898994929394518094819382525afa9081156118da579083916000916118bd575b50888851809481936370da2f6760e01b8352165afa9182156118b257600092611895575b505060170b86121592388080806117dd565b6118ab9250803d106115e1576115d381836107b2565b3880611883565b86513d6000823e3d90fd5b6118d49150823d841161160e5761160081836107b2565b3861185f565b87513d6000823e3d90fd5b6118fc9150843d86116115e1576115d381836107b2565b386117ce565b89513d6000823e3d90fd5b6119249150823d841161160e5761160081836107b2565b386117aa565b9250965050611947915060a03d81116116835761166f81836107b2565b929790939291503861177d565b83513d6000823e3d90fd5b7f00000000000000000000000000000000000000000000000000000000000000006001600160a01b03168015611a195760a060049160405192838092633fabe5a360e21b82525afa90811561149c5760009081926119f5575b506119e4576119c79042610f66565b60015410156119d257565b60405163d15f73b560e01b8152600490fd5b60405162032b3d60e81b8152600490fd5b9050611a0f915060a03d81116116835761166f81836107b2565b50509150386119b8565b5056fe537472696e67733a20686578206c656e67746820696e73756666696369656e7455435dd261a4b9b3364963f7738a7a662ad9c84396d64be3365284bb7f0a5041a26469706673582212200d8fe66758671a2280148827a5093ffab5d441dd3d85010a2272396681e647a264736f6c63430008120033",
  "linkReferences": {},
  "deployedLinkReferences": {}
}