{
  "_format": "hh-sol-artifact-1",
  "contractName": "CurveStableToUsdoBidder",
  "sourceName": "contracts/LiquidationQueue/bidders/CurveStableToUsdoBidder.sol",
  "abi": [
    {
      "inputs": [
        {
          "internalType": "contract ICurveSwapper",
          "name": "curveSwapper_",
          "type": "address"
        },
        {
          "internalType": "uint256",
          "name": "curvePoolAssetCount_",
          "type": "uint256"
        }
      ],
      "stateMutability": "nonpayable",
      "type": "constructor"
    },
    {
      "anonymous": false,
      "inputs": [
        {
          "indexed": true,
          "internalType": "address",
          "name": "_old",
          "type": "address"
        },
        {
          "indexed": true,
          "internalType": "address",
          "name": "_new",
          "type": "address"
        }
      ],
      "name": "CurveSwapperUpdated",
      "type": "event"
    },
    {
      "anonymous": false,
      "inputs": [
        {
          "indexed": true,
          "internalType": "address",
          "name": "previousOwner",
          "type": "address"
        },
        {
          "indexed": true,
          "internalType": "address",
          "name": "newOwner",
          "type": "address"
        }
      ],
      "name": "OwnershipTransferred",
      "type": "event"
    },
    {
      "inputs": [],
      "name": "claimOwnership",
      "outputs": [],
      "stateMutability": "nonpayable",
      "type": "function"
    },
    {
      "inputs": [],
      "name": "curveSwapper",
      "outputs": [
        {
          "internalType": "contract ICurveSwapper",
          "name": "",
          "type": "address"
        }
      ],
      "stateMutability": "view",
      "type": "function"
    },
    {
      "inputs": [
        {
          "internalType": "contract ISingularity",
          "name": "singularity",
          "type": "address"
        },
        {
          "internalType": "uint256",
          "name": "tokenInId",
          "type": "uint256"
        },
        {
          "internalType": "uint256",
          "name": "amountOut",
          "type": "uint256"
        },
        {
          "internalType": "bytes",
          "name": "",
          "type": "bytes"
        }
      ],
      "name": "getInputAmount",
      "outputs": [
        {
          "internalType": "uint256",
          "name": "",
          "type": "uint256"
        }
      ],
      "stateMutability": "view",
      "type": "function"
    },
    {
      "inputs": [
        {
          "internalType": "contract ISingularity",
          "name": "singularity",
          "type": "address"
        },
        {
          "internalType": "uint256",
          "name": "tokenInId",
          "type": "uint256"
        },
        {
          "internalType": "uint256",
          "name": "amountIn",
          "type": "uint256"
        },
        {
          "internalType": "bytes",
          "name": "",
          "type": "bytes"
        }
      ],
      "name": "getOutputAmount",
      "outputs": [
        {
          "internalType": "uint256",
          "name": "",
          "type": "uint256"
        }
      ],
      "stateMutability": "view",
      "type": "function"
    },
    {
      "inputs": [],
      "name": "name",
      "outputs": [
        {
          "internalType": "string",
          "name": "",
          "type": "string"
        }
      ],
      "stateMutability": "pure",
      "type": "function"
    },
    {
      "inputs": [],
      "name": "owner",
      "outputs": [
        {
          "internalType": "address",
          "name": "",
          "type": "address"
        }
      ],
      "stateMutability": "view",
      "type": "function"
    },
    {
      "inputs": [],
      "name": "pendingOwner",
      "outputs": [
        {
          "internalType": "address",
          "name": "",
          "type": "address"
        }
      ],
      "stateMutability": "view",
      "type": "function"
    },
    {
      "inputs": [
        {
          "internalType": "contract ICurveSwapper",
          "name": "_swapper",
          "type": "address"
        }
      ],
      "name": "setCurveSwapper",
      "outputs": [],
      "stateMutability": "nonpayable",
      "type": "function"
    },
    {
      "inputs": [
        {
          "internalType": "contract ISingularity",
          "name": "singularity",
          "type": "address"
        },
        {
          "internalType": "uint256",
          "name": "tokenInId",
          "type": "uint256"
        },
        {
          "internalType": "uint256",
          "name": "amountIn",
          "type": "uint256"
        },
        {
          "internalType": "bytes",
          "name": "data",
          "type": "bytes"
        }
      ],
      "name": "swap",
      "outputs": [
        {
          "internalType": "uint256",
          "name": "",
          "type": "uint256"
        }
      ],
      "stateMutability": "nonpayable",
      "type": "function"
    },
    {
      "inputs": [
        {
          "internalType": "address",
          "name": "newOwner",
          "type": "address"
        },
        {
          "internalType": "bool",
          "name": "direct",
          "type": "bool"
        },
        {
          "internalType": "bool",
          "name": "renounce",
          "type": "bool"
        }
      ],
      "name": "transferOwnership",
      "outputs": [],
      "stateMutability": "nonpayable",
      "type": "function"
    }
  ],
  "bytecode": "0x6080346100ab57601f61199538819003918201601f19168301916001600160401b038311848410176100b05780849260409485528339810103126100ab5780516001600160a01b03811691908290036100ab576020015160008054336001600160a01b03199182168117835560405194927f8be0079c531659141344cd1fd0a4f28419497f9722a3daafe3b4186f6b6457e08180a360025416176002556003556118ce90816100c78239f35b600080fd5b634e487b7160e01b600052604160045260246000fdfe60806040818152600436101561001457600080fd5b600091823560e01c90816306fdde03146103af57508063078dfbe71461028f5780634e71e0c8146101e25780635810e7ec146101695780635dd82b361461014c5780638da5cb5b14610125578063b691d78c14610107578063e30c3978146100df578063e91f9961146100b75763fef744fa1461009057600080fd5b346100b3576020906100ac6100a436610450565b505091610831565b9051908152f35b5080fd5b50346100b357816003193601126100b35760025490516001600160a01b039091168152602090f35b50346100b357816003193601126100b35760015490516001600160a01b039091168152602090f35b50346100b3576020906100ac61011c36610450565b93929092610a0a565b50346100b357816003193601126100b357905490516001600160a01b039091168152602090f35b50346100b3576020906100ac61016136610450565b505091610613565b82346101df5760203660031901126101df576004356001600160a01b03818116918290036101db5761019f8184541633146104ba565b816002549182167faa9eb2cf6e6a7bce28901c01eb97556feb7824a5a9b13df2c67580509a62633f8580a36001600160a01b0319161760025580f35b8280fd5b80fd5b50346100b357816003193601126100b3576001546001600160a01b0391828216903382900361024c57508084549384167f8be0079c531659141344cd1fd0a4f28419497f9722a3daafe3b4186f6b6457e08680a36001600160a01b03199283161783551660015580f35b5162461bcd60e51b815260206004820181905260248201527f4f776e61626c653a2063616c6c657220213d2070656e64696e67206f776e65726044820152606490fd5b50346100b35760603660031901126100b3576001600160a01b039060043582811691908290036103ab5760243580151581036103a7576044359081151582036103a3576102e08587541633146104ba565b156103845782159081159161037c575b501561034157508083549283167f8be0079c531659141344cd1fd0a4f28419497f9722a3daafe3b4186f6b6457e08580a36bffffffffffffffffffffffff60a01b8092161782556001541660015580f35b5162461bcd60e51b81526020600482015260156024820152744f776e61626c653a207a65726f206164647265737360581b6044820152606490fd5b9050386102f0565b505090506bffffffffffffffffffffffff60a01b600154161760015580f35b8580fd5b8480fd5b8380fd5b919050346101db57826003193601126101db5761040c92506103d082610505565b601a82527f737461626c65202d3e205553444f2028334372762b5553444f29000000000000602083015251918291602083526020830190610410565b0390f35b919082519283825260005b84811061043c575050826000602080949584010152601f8019910116010190565b60208183018101518483018201520161041b565b60806003198201126104b5576004356001600160a01b03811681036104b55791602435916044359160643567ffffffffffffffff928382116104b557806023830112156104b55781600401359384116104b557602484830101116104b5576024019190565b600080fd5b156104c157565b606460405162461bcd60e51b815260206004820152602060248201527f4f776e61626c653a2063616c6c6572206973206e6f7420746865206f776e65726044820152fd5b6040810190811067ffffffffffffffff82111761052157604052565b634e487b7160e01b600052604160045260246000fd5b67ffffffffffffffff811161052157604052565b6080810190811067ffffffffffffffff82111761052157604052565b6060810190811067ffffffffffffffff82111761052157604052565b90601f8019910116810190811067ffffffffffffffff82111761052157604052565b51906001600160a01b03821682036104b557565b156105c057565b60405162461bcd60e51b815260206004820152600c60248201526b1554d113c81b9bdd081cd95d60a21b6044820152606490fd5b908160209103126104b557516001600160a01b03811681036104b55790565b60408051636c3d8b8f60e01b808252919594936001600160a01b03939092916020918516908281600481855afa9081156107ee57869184916000916107f9575b5060048b5180948193631192124760e11b8352165afa80156107ee5786906000906107b5575b61068692501615156105b9565b87519283528183600481845afa8015610735578593600091610779575b50829060048a51809881936386c8e21d60e01b8352165afa9485156107355760009561074a575b50848414610740578160049189519283809263de40657760e01b82525afa91821561073557610705979850600092610708575b50501661147c565b90565b6107279250803d1061072e575b61071f8183610583565b8101906105f4565b38806106fd565b503d610715565b88513d6000823e3d90fd5b5093955050505050565b90948282813d8311610772575b6107618183610583565b810103126101df57505193386106ca565b503d610757565b919280945082813d83116107ae575b6107928183610583565b810103126101df575090826107a88694936105a5565b906106a3565b503d610788565b90508382813d83116107e7575b6107cc8183610583565b810103126101df5750856107e2610686926105a5565b610679565b503d6107c2565b89513d6000823e3d90fd5b92509082813d811161082a575b6108108183610583565b810103126101df57508261082487926105a5565b38610653565b503d610806565b60408051636c3d8b8f60e01b80825291959493926001600160a01b0392916020918416908281600481855afa9081156107ee57859184916000916109c5575b5060048b5180948193631192124760e11b8352165afa80156107ee57859060009061098c575b6108a392501615156105b9565b87519283528183600481845afa8015610735578493600091610950575b50829060048a51809781936386c8e21d60e01b8352165afa93841561073557600094610921575b50838514610740578160049189519283809263de40657760e01b82525afa918215610735576107059798506000926107085750501661147c565b90938282813d8311610949575b6109388183610583565b810103126101df57505192386108e7565b503d61092e565b919280945082813d8311610985575b6109698183610583565b810103126101df5750908261097f8594936105a5565b906108c0565b503d61095f565b90508382813d83116109be575b6109a38183610583565b810103126101df5750846109b96108a3926105a5565b610896565b503d610999565b92509082813d81116109f6575b6109dc8183610583565b810103126101df5750826109f086926105a5565b38610870565b503d6109d2565b519081151582036104b557565b604051636c3d8b8f60e01b8082529496956000959490939290916001600160a01b0390911690602081600481855afa908115610e76578791611240575b50604051631192124760e11b815298906001600160a01b031660208a600481845afa998a15610eb557889a6111f8575b50610a916020969798999a60018060a01b031615156105b9565b6040519586809263473ec51560e11b825285600483015260249889915afa908115610f485789916111be575b50156111875760405163de40657760e01b815291602083600481845afa928315610f48578993611166575b5060405163c23ea21f60e01b815297602089600481855afa988915610f02578a99611144575b5060209060046040518094819382525afa908115610f48578991611103575b506040516386c8e21d60e01b81529190602090839060049082906001600160a01b03165afa918215610f485789926110cb575b506001600160a01b038816330361109d57818514610fa457889680610f8b575b5050600254604051638eb22cdd60e01b815260048101869052868101859052604481018a9052906001600160a01b03908116906020908390606490829088165afa918215610f02578a92610f57575b506001600160a01b0384163b15610f5357604051630208d92960e11b81523060048201526001600160a01b039091166024820152604481018690526064810191909152888180608481010381836001600160a01b0388165af18015610f4857908991610f30575b5050604051630cf35bdd60e41b80825260048201869052939060808188816001600160a01b0388165afa908115610f02578a91610f0d575b506040519485526004850183905260808588816001600160a01b0388165afa948515610f02578a95610ec0575b5090610cb1610cab602093611721565b95611721565b60405195610cbe87610567565b6002875260403685890137610cd2876112b7565b52610cdc866112da565b52606460405180958193638eb22cdd60e01b83528960048401528a8301528c604483015260018060a01b03165afa918215610eb5578892610e81575b5060018060a01b03600254169460405194633d9545e960e11b86526004860152840152866044840152606483015260016084830152600160a483015261014091828160c481875afa928315610e765792610dbf92889260409796958493610e3b575b5050610d94610da2610de8928951928391602083016113d5565b03601f198101835282610583565b875163efa84c6d60e01b8152988997889687956004870190611410565b6101448501526001600160a01b03166101648401526101a06101848401526101a4830190610410565b03925af1918215610e2f578092610dfe57505090565b9091506040823d604011610e27575b81610e1a60409383610583565b810103126101df57505190565b3d9150610e0d565b604051903d90823e3d90fd5b610de8929350610e67610d949282610da293903d10610e6f575b610e5f8183610583565b8101906112ea565b939250610d7a565b503d610e55565b6040513d89823e3d90fd5b9091506020813d602011610ead575b81610e9d60209383610583565b810103126104b557519038610d18565b3d9150610e90565b6040513d8a823e3d90fd5b602092919550610cab610eed610cb19260803d608011610efb575b610ee58183610583565b81019061127e565b505090509692935050610c9b565b503d610edb565b6040513d8c823e3d90fd5b610f26915060803d608011610efb57610ee58183610583565b5050905038610c6e565b610f3990610537565b610f44578738610c36565b8780fd5b6040513d8b823e3d90fd5b8980fd5b9091506020813d602011610f83575b81610f7360209383610583565b810103126104b557519038610bcf565b3d9150610f66565b819297509060209181010312610f445735943880610b80565b5050604051638eb22cdd60e01b815260048101849052938401829052604484018790529095949293506001600160a01b031691602084606481865afa93841561109257859461105e575b50823b156103a757604051630208d92960e11b81523060048201526001600160a01b039190911660248201526044810191909152606481019290925282908290608490829084905af180156110535761104657505090565b61104f90610537565b5090565b6040513d84823e3d90fd5b9093506020813d60201161108a575b8161107a60209383610583565b810103126103a757519238610fee565b3d915061106d565b6040513d87823e3d90fd5b60405162461bcd60e51b815260206004820152600781880152666f6e6c79204c5160c81b6044820152606490fd5b9091506020813d6020116110fb575b816110e760209383610583565b810103126110f757519038610b60565b8880fd5b3d91506110da565b90506020813d60201161113c575b8161111e60209383610583565b810103126110f7579060206111346004936105a5565b919250610b2d565b3d9150611111565b602091995061115f90823d841161072e5761071f8183610583565b9890610b0e565b61118091935060203d60201161072e5761071f8183610583565b9138610ae8565b60405162461bcd60e51b8152602060048201526010818701526f13585c9ad95d081b9bdd081d985b1a5960821b6044820152606490fd5b90506020813d6020116111f0575b816111d960209383610583565b810103126110f7576111ea906109fd565b38610abd565b3d91506111cc565b995060208a3d602011611238575b8161121360209383610583565b81010312610f4457610a9161122d60209798999a9b6105a5565b9a9998979650610a77565b3d9150611206565b90506020813d602011611276575b8161125b60209383610583565b810103126112725761126c906105a5565b38610a47565b8680fd5b3d915061124e565b91908260809103126104b557815160058110156104b557916112a2602082016105a5565b9160606112b1604084016105a5565b92015190565b8051156112c45760200190565b634e487b7160e01b600052603260045260246000fd5b8051600110156112c45760400190565b8091039061014082126104b55760408051926060840184811067ffffffffffffffff82111761052157808352608082126104b5576113278161054b565b611330846105a5565b8152602084015160808601526113478385016105a5565b60a0860152606084015160c086015284526080607f198201126104b557819081516113718161054b565b6080850151815260a0850151602082015260c08501518382015260e08501516060820152602086015260ff1901126104b5576113ca6101208251936113b585610505565b6113c261010082016109fd565b8552016109fd565b602083015282015290565b6020908160408183019282815285518094520193019160005b8281106113fc575050505090565b8351855293810193928101926001016113ee565b60206040610120926060815160018060a01b03808251168852858201518689015284820151168488015201516060860152606083820151805160808801528481015160a08801528381015160c0880152015160e086015201518051151561010085015201511515910152565b60408051630cf35bdd60e41b808252600482018590529496959194608094936001600160a01b03908116939290918682602481885afa918215610735576000926116fe575b5087519081528960048201528681602481885afa968715610735576000976116cc575b5050906114fc6114f660649493611721565b96611721565b9587519461150986610567565b6002865260209788928a36858a0137611521886112b7565b5261152b876112da565b52885194858092638eb22cdd60e01b8252896004830152866024830152600060448301525afa9283156116c157600093611692575b506002541697865194633d9545e960e11b8652600486015260248501526044840152606483015260016084830152600160a483015261014091828160c4818a5afa9283156116875784936115d3936116129899936115fe93600093611662575b50506115e19088519586918883016113d5565b03601f198101865285610583565b8651630b7ecdc960e31b8152978894859384936004850190611410565b610160610144840152610164830190610410565b03915afa918215611658575060009161162c575b50905090565b82813d8311611651575b6116408183610583565b810103126101df5750518038611626565b503d611636565b513d6000823e3d90fd5b6115e1929350908161167f92903d10610e6f57610e5f8183610583565b9190386115c0565b85513d6000823e3d90fd5b90928682813d83116116ba575b6116a98183610583565b810103126101df5750519138611560565b503d61169f565b87513d6000823e3d90fd5b606494939297506116f06114fc92826114f693903d10610efb57610ee58183610583565b5050905097929394506114e4565b611716919250873d8911610efb57610ee58183610583565b5050905090386114c1565b600254604080516310c3a8d960e11b8152600492602092916001600160a01b0391849082908790829086165afa90811561188d57908291600091611856575b50169060001995600092600354935b8481106117be57505050505060001984131561178b5750505090565b5162461bcd60e51b815291820152600f60248201526e185cdcd95d081b9bdd08199bdd5b99608a1b604482015260649150fd5b855163c661065760e01b81528881018290528781602481865afa9081156116c157600091611821575b50841683851614611819575b60001981146118045760010161176f565b601188634e487b7160e01b6000525260246000fd5b9750876117f3565b908882813d831161184f575b6118378183610583565b810103126101df5750611849906105a5565b386117e7565b503d61182d565b91508482813d8311611886575b61186d8183610583565b810103126101df575061188082916105a5565b38611760565b503d611863565b83513d6000823e3d90fdfea26469706673582212206fbccc4bdc80b661def296854ca3c1d7c7c2763ccdc29e60f7e137458d0136b364736f6c63430008120033",
  "linkReferences": {},
  "deployedLinkReferences": {}
}