{
  "_format": "hh-sol-artifact-1",
  "contractName": "CurveSwapper",
  "sourceName": "contracts/Swapper/CurveSwapper.sol",
  "abi": [
    {
      "inputs": [
        {
          "internalType": "contract ICurvePool",
          "name": "_curvePool",
          "type": "address"
        },
        {
          "internalType": "contract IYieldBox",
          "name": "_yieldBox",
          "type": "address"
        }
      ],
      "stateMutability": "nonpayable",
      "type": "constructor"
    },
    {
      "inputs": [],
      "name": "AddressNotValid",
      "type": "error"
    },
    {
      "inputs": [],
      "name": "NotImplemented",
      "type": "error"
    },
    {
      "inputs": [],
      "name": "Undefined",
      "type": "error"
    },
    {
      "anonymous": false,
      "inputs": [
        {
          "indexed": true,
          "internalType": "address",
          "name": "previousOwner",
          "type": "address"
        },
        {
          "indexed": true,
          "internalType": "address",
          "name": "newOwner",
          "type": "address"
        }
      ],
      "name": "OwnershipTransferred",
      "type": "event"
    },
    {
      "inputs": [],
      "name": "curvePool",
      "outputs": [
        {
          "internalType": "contract ICurvePool",
          "name": "",
          "type": "address"
        }
      ],
      "stateMutability": "view",
      "type": "function"
    },
    {
      "inputs": [],
      "name": "getDefaultSwapData",
      "outputs": [
        {
          "internalType": "bytes",
          "name": "",
          "type": "bytes"
        }
      ],
      "stateMutability": "pure",
      "type": "function"
    },
    {
      "inputs": [
        {
          "components": [
            {
              "components": [
                {
                  "internalType": "address",
                  "name": "tokenIn",
                  "type": "address"
                },
                {
                  "internalType": "uint256",
                  "name": "tokenInId",
                  "type": "uint256"
                },
                {
                  "internalType": "address",
                  "name": "tokenOut",
                  "type": "address"
                },
                {
                  "internalType": "uint256",
                  "name": "tokenOutId",
                  "type": "uint256"
                }
              ],
              "internalType": "struct ISwapper.SwapTokensData",
              "name": "tokensData",
              "type": "tuple"
            },
            {
              "components": [
                {
                  "internalType": "uint256",
                  "name": "amountIn",
                  "type": "uint256"
                },
                {
                  "internalType": "uint256",
                  "name": "shareIn",
                  "type": "uint256"
                },
                {
                  "internalType": "uint256",
                  "name": "amountOut",
                  "type": "uint256"
                },
                {
                  "internalType": "uint256",
                  "name": "shareOut",
                  "type": "uint256"
                }
              ],
              "internalType": "struct ISwapper.SwapAmountData",
              "name": "amountData",
              "type": "tuple"
            },
            {
              "components": [
                {
                  "internalType": "bool",
                  "name": "withdrawFromYb",
                  "type": "bool"
                },
                {
                  "internalType": "bool",
                  "name": "depositToYb",
                  "type": "bool"
                }
              ],
              "internalType": "struct ISwapper.YieldBoxData",
              "name": "yieldBoxData",
              "type": "tuple"
            }
          ],
          "internalType": "struct ISwapper.SwapData",
          "name": "",
          "type": "tuple"
        },
        {
          "internalType": "bytes",
          "name": "",
          "type": "bytes"
        }
      ],
      "name": "getInputAmount",
      "outputs": [
        {
          "internalType": "uint256",
          "name": "",
          "type": "uint256"
        }
      ],
      "stateMutability": "pure",
      "type": "function"
    },
    {
      "inputs": [
        {
          "components": [
            {
              "components": [
                {
                  "internalType": "address",
                  "name": "tokenIn",
                  "type": "address"
                },
                {
                  "internalType": "uint256",
                  "name": "tokenInId",
                  "type": "uint256"
                },
                {
                  "internalType": "address",
                  "name": "tokenOut",
                  "type": "address"
                },
                {
                  "internalType": "uint256",
                  "name": "tokenOutId",
                  "type": "uint256"
                }
              ],
              "internalType": "struct ISwapper.SwapTokensData",
              "name": "tokensData",
              "type": "tuple"
            },
            {
              "components": [
                {
                  "internalType": "uint256",
                  "name": "amountIn",
                  "type": "uint256"
                },
                {
                  "internalType": "uint256",
                  "name": "shareIn",
                  "type": "uint256"
                },
                {
                  "internalType": "uint256",
                  "name": "amountOut",
                  "type": "uint256"
                },
                {
                  "internalType": "uint256",
                  "name": "shareOut",
                  "type": "uint256"
                }
              ],
              "internalType": "struct ISwapper.SwapAmountData",
              "name": "amountData",
              "type": "tuple"
            },
            {
              "components": [
                {
                  "internalType": "bool",
                  "name": "withdrawFromYb",
                  "type": "bool"
                },
                {
                  "internalType": "bool",
                  "name": "depositToYb",
                  "type": "bool"
                }
              ],
              "internalType": "struct ISwapper.YieldBoxData",
              "name": "yieldBoxData",
              "type": "tuple"
            }
          ],
          "internalType": "struct ISwapper.SwapData",
          "name": "swapData",
          "type": "tuple"
        },
        {
          "internalType": "bytes",
          "name": "dexOptions",
          "type": "bytes"
        }
      ],
      "name": "getOutputAmount",
      "outputs": [
        {
          "internalType": "uint256",
          "name": "amountOut",
          "type": "uint256"
        }
      ],
      "stateMutability": "view",
      "type": "function"
    },
    {
      "inputs": [],
      "name": "owner",
      "outputs": [
        {
          "internalType": "address",
          "name": "",
          "type": "address"
        }
      ],
      "stateMutability": "view",
      "type": "function"
    },
    {
      "inputs": [],
      "name": "renounceOwnership",
      "outputs": [],
      "stateMutability": "nonpayable",
      "type": "function"
    },
    {
      "inputs": [
        {
          "components": [
            {
              "components": [
                {
                  "internalType": "address",
                  "name": "tokenIn",
                  "type": "address"
                },
                {
                  "internalType": "uint256",
                  "name": "tokenInId",
                  "type": "uint256"
                },
                {
                  "internalType": "address",
                  "name": "tokenOut",
                  "type": "address"
                },
                {
                  "internalType": "uint256",
                  "name": "tokenOutId",
                  "type": "uint256"
                }
              ],
              "internalType": "struct ISwapper.SwapTokensData",
              "name": "tokensData",
              "type": "tuple"
            },
            {
              "components": [
                {
                  "internalType": "uint256",
                  "name": "amountIn",
                  "type": "uint256"
                },
                {
                  "internalType": "uint256",
                  "name": "shareIn",
                  "type": "uint256"
                },
                {
                  "internalType": "uint256",
                  "name": "amountOut",
                  "type": "uint256"
                },
                {
                  "internalType": "uint256",
                  "name": "shareOut",
                  "type": "uint256"
                }
              ],
              "internalType": "struct ISwapper.SwapAmountData",
              "name": "amountData",
              "type": "tuple"
            },
            {
              "components": [
                {
                  "internalType": "bool",
                  "name": "withdrawFromYb",
                  "type": "bool"
                },
                {
                  "internalType": "bool",
                  "name": "depositToYb",
                  "type": "bool"
                }
              ],
              "internalType": "struct ISwapper.YieldBoxData",
              "name": "yieldBoxData",
              "type": "tuple"
            }
          ],
          "internalType": "struct ISwapper.SwapData",
          "name": "swapData",
          "type": "tuple"
        },
        {
          "internalType": "uint256",
          "name": "amountOutMin",
          "type": "uint256"
        },
        {
          "internalType": "address",
          "name": "to",
          "type": "address"
        },
        {
          "internalType": "bytes",
          "name": "data",
          "type": "bytes"
        }
      ],
      "name": "swap",
      "outputs": [
        {
          "internalType": "uint256",
          "name": "amountOut",
          "type": "uint256"
        },
        {
          "internalType": "uint256",
          "name": "shareOut",
          "type": "uint256"
        }
      ],
      "stateMutability": "nonpayable",
      "type": "function"
    },
    {
      "inputs": [
        {
          "internalType": "address",
          "name": "newOwner",
          "type": "address"
        }
      ],
      "name": "transferOwnership",
      "outputs": [],
      "stateMutability": "nonpayable",
      "type": "function"
    },
    {
      "inputs": [],
      "name": "yieldBox",
      "outputs": [
        {
          "internalType": "contract IYieldBox",
          "name": "",
          "type": "address"
        }
      ],
      "stateMutability": "view",
      "type": "function"
    }
  ],
  "bytecode": "0x60a03461011a57601f61147b38819003918201601f19168301916001600160401b0383118484101761011f57808492604094855283398101031261011a5780516001600160a01b03918282169182900361011a57602001519180831680840361011a576000549160018060a01b0319923384821617600055604051913391167f8be0079c531659141344cd1fd0a4f28419497f9722a3daafe3b4186f6b6457e0600080a360018055831561010b5750156100f9576002541617600255608052604051611345908161013682396080518181816102ee015281816104ec0152818161083a015281816108d5015281816109e60152610b0a0152f35b60405163d23f952160e01b8152600490fd5b63d23f952160e01b8152600490fd5b600080fd5b634e487b7160e01b600052604160045260246000fdfe608080604052600436101561001357600080fd5b600090813560e01c90816312874bdb14610d6f57508063218751b214610d485780635bf66e4814610a82578063715018a614610a305780638da5cb5b14610a0a578063de406577146109c6578063e3c711a0146109a2578063efa84c6d146101505763f2fde38b1461008457600080fd5b3461014d57602036600319011261014d576004356001600160a01b03808216809203610148576100b2610e3a565b81156100f457600054826001600160a01b0319821617600055167f8be0079c531659141344cd1fd0a4f28419497f9722a3daafe3b4186f6b6457e0600080a380f35b60405162461bcd60e51b815260206004820152602660248201527f4f776e61626c653a206e6577206f776e657220697320746865207a65726f206160448201526564647265737360d01b6064820152608490fd5b600080fd5b80fd5b503461014d5736600319016101a0811261099e576101401361014d576001600160a01b036101643516610164350361014d576101843567ffffffffffffffff811161099e573660238201121561099e57806004013590826101b083610e1e565b916101be6040519384610de6565b8383526020830193366024828401011161099a5780602460209301863783010152829080518101926020828186019503126106fc57519067ffffffffffffffff82116106fc57019180603f840112156106ca57602083015161021f81610e92565b9361022d6040519586610de6565b8185526040602086019260051b82010192831161088b57604001905b82821061098a575050506001600160a01b03600254169061026983610eaa565b516040519063c661065760e01b82526004820152602081602481865afa90811561068757859161096b575b5060206102a085610ecd565b5160246040518096819363c661065760e01b835260048301525afa92831561068757859361094a575b508490608435801580159061093f575b156107eb5761031292505b60a43591602435907f0000000000000000000000000000000000000000000000000000000000000000611223565b61032561031e85610eaa565b5194610ecd565b51906001600160a01b0360025416916040519063c661065760e01b82526fffffffffffffffffffffffffffffffff968781166004840152602083602481885afa9283156107bf5789936107ca575b5060405163c661065760e01b81529782166004890152602088602481885afa9788156107bf57899861078e575b50604051635e0d443f60e01b8152600f82810b600483015283900b602482015260448101859052602081606481895afa908115610783578a9161074d575b506101443511610708576040516370a0823160e01b81523060048201529489936020876024816001600160a01b038e165afa9687156106875785976106ce575b5061042a91869161112d565b6001600160a01b036002541690813b156106ca57836084926040519687958694630f7c084960e21b8652600f0b6004860152600f0b602485015260448401526101443560648401525af180156106bf57610692575b5060206001600160a01b03946024604051809781936370a0823160e01b8352306004840152165afa938415610687578594610653575b508084111561060e5783039283116105fa5761012435801515810361014857156105ab575060408391610513846001600160a01b037f000000000000000000000000000000000000000000000000000000000000000016809361112d565b60a4825180948193634d4d7cbd60e11b835260643560048401523060248401526001600160a01b03610164351660448401528760648401528160848401525af19081156105a05760409391610571575b505b82519182526020820152f35b6105919150833d8511610599575b6105898183610de6565b810190610efc565b905038610563565b503d61057f565b6040513d85823e3d90fd5b6040805163a9059cbb60e01b60208201526001600160a01b0361016435811660248301526044808301879052825291955091926105f59291906105ef606484610de6565b16610f2a565b610565565b634e487b7160e01b84526011600452602484fd5b60405162461bcd60e51b815260206004820152600b60248201527f73776170206661696c65640000000000000000000000000000000000000000006044820152606490fd5b9093506020813d60201161067f575b8161066f60209383610de6565b81010312610148575192386104b5565b3d9150610662565b6040513d87823e3d90fd5b67ffffffffffffffff81116106ab57604052602061047f565b634e487b7160e01b86526041600452602486fd5b6040513d88823e3d90fd5b8380fd5b9096506020813d602011610700575b816106ea60209383610de6565b810103126106fc57519561042a61041e565b8480fd5b3d91506106dd565b60405162461bcd60e51b815260206004820152601760248201527f696e73756666696369656e742d616d6f756e742d6f75740000000000000000006044820152606490fd5b90506020813d60201161077b575b8161076860209383610de6565b810103126107775751386103de565b8980fd5b3d915061075b565b6040513d8c823e3d90fd5b6107b191985060203d6020116107b8575b6107a98183610de6565b810190610edd565b96386103a0565b503d61079f565b6040513d8b823e3d90fd5b6107e491935060203d6020116107b8576107a98183610de6565b9138610373565b50602435806108a1575b5060643580610809575b50610312916102e4565b6040519063442c159960e01b8252600482015260e43560248201528660448201526020816064816001600160a01b037f0000000000000000000000000000000000000000000000000000000000000000165afa801561089657156107ff57602090813d831161088f575b61087d8183610de6565b8101031261088b57386107ff565b8580fd5b503d610873565b6040513d89823e3d90fd5b9091506040519063442c159960e01b8252600482015260a43560248201528560448201526020816064816001600160a01b037f0000000000000000000000000000000000000000000000000000000000000000165afa9081156106bf57869161090d575b5090386107f5565b90506020813d602011610937575b8161092860209383610de6565b8101031261088b575138610905565b3d915061091b565b5060c43515156102d9565b61096491935060203d6020116107b8576107a98183610de6565b91386102c9565b610984915060203d6020116107b8576107a98183610de6565b38610294565b8151815260209182019101610249565b8280fd5b5080fd5b503461014d576109b136610d90565b505060405163d623472560e01b815260049150fd5b503461014d578060031936011261014d5760206040516001600160a01b037f0000000000000000000000000000000000000000000000000000000000000000168152f35b503461014d578060031936011261014d576001600160a01b036020915416604051908152f35b503461014d578060031936011261014d57610a49610e3a565b806001600160a01b038154811981168355167f8be0079c531659141344cd1fd0a4f28419497f9722a3daafe3b4186f6b6457e08280a380f35b503461014d57610a9136610d90565b8192939101602092838183031261099a5780359067ffffffffffffffff82116106ca57019080601f8301121561099a578135610acc81610e92565b92610ada6040519485610de6565b818452858085019260051b8201019283116106fc5785809101915b838310610d38575091505084013560608501357f00000000000000000000000000000000000000000000000000000000000000009584916080820135978815801590610d2b575b15610bff57505050505091610ba791928194905b6001600160a01b036002541690610b70610b6982610eaa565b5191610ecd565b51604051635e0d443f60e01b8152600f92830b6004820152910b602482015260448101929092529092839190829081906064820190565b03915afa918215610bf3578092610bc3575b5050604051908152f35b9091508282813d8311610bec575b610bdb8183610de6565b8101031261014d5750513880610bb9565b503d610bd1565b604051903d90823e3d90fd5b9091929493809850610cad575b86975081969596610c26575b50505090610ba79291610b50565b60e09592916001600160a01b03606492604051988995869463442c1599831b8652600486015201356024840152896044840152165afa8015610ca25790859291610c75575b9091928080610c18565b919092813d8311610c9b575b610c8b8183610de6565b8101031261099a57818491610c6b565b503d610c81565b6040513d86823e3d90fd5b93506040519663442c159960e01b8852600488015260a0820135602488015284604488015285876064816001600160a01b0388165afa8015610687578590610cfb575b959650869593610c0c565b508587813d8311610d24575b610d118183610de6565b810103126106fc57955194958695610cf0565b503d610d07565b5060c08301351515610b3c565b8235815291810191869101610af5565b503461014d578060031936011261014d5760206001600160a01b0360025416604051908152f35b90503461099e578160031936011261099e57633937a73d60e01b8152600490fd5b600319810161016081126101485761014013610148576004916101443567ffffffffffffffff92838211610148578060238301121561014857818501359384116101485760248483010111610148576024019190565b90601f8019910116810190811067ffffffffffffffff821117610e0857604052565b634e487b7160e01b600052604160045260246000fd5b67ffffffffffffffff8111610e0857601f01601f191660200190565b6001600160a01b03600054163303610e4e57565b606460405162461bcd60e51b815260206004820152602060248201527f4f776e61626c653a2063616c6c6572206973206e6f7420746865206f776e65726044820152fd5b67ffffffffffffffff8111610e085760051b60200190565b805115610eb75760200190565b634e487b7160e01b600052603260045260246000fd5b805160011015610eb75760400190565b9081602091031261014857516001600160a01b03811681036101485790565b9190826040910312610148576020825192015190565b90816020910312610148575180151581036101485790565b6001600160a01b0316604051604081019181831067ffffffffffffffff841117610e0857610f9a926040526000806020958685527f5361666545524332303a206c6f772d6c6576656c2063616c6c206661696c656487860152868151910182855af1610f94611029565b91611059565b80519081610fa757505050565b8280610fb7938301019101610f12565b15610fbf5750565b6084906040519062461bcd60e51b82526004820152602a60248201527f5361666545524332303a204552433230206f7065726174696f6e20646964206e60448201527f6f742073756363656564000000000000000000000000000000000000000000006064820152fd5b3d15611054573d9061103a82610e1e565b916110486040519384610de6565b82523d6000602084013e565b606090565b919290156110bb575081511561106d575090565b3b156110765790565b60405162461bcd60e51b815260206004820152601d60248201527f416464726573733a2063616c6c20746f206e6f6e2d636f6e74726163740000006044820152606490fd5b8251909150156110ce5750805190602001fd5b6040519062461bcd60e51b82528160208060048301528251908160248401526000935b828510611114575050604492506000838284010152601f80199101168101030190fd5b84810182015186860160440152938101938593506110f1565b60405163095ea7b360e01b602082019081526001600160a01b03939093166024820152604480820194909452928352600092839290839061116f606482610de6565b51925af161117b611029565b816111f4575b501561118957565b60405162461bcd60e51b815260206004820152602860248201527f42617365537761707065723a3a73616665417070726f76653a20617070726f7660448201527f65206661696c65640000000000000000000000000000000000000000000000006064820152608490fd5b8051801592508215611209575b505038611181565b61121c9250602080918301019101610f12565b3880611201565b939190929361010435801515810361014857611291575050506040516323b872dd60e01b60208201523360248201523060448201528260648201526064815260a0810181811067ffffffffffffffff821117610e085760405261128e916001600160a01b0316610f2a565b90565b604093509060006001600160a01b0360a493869795975197889687956311a5cc7760e31b8752600487015230602487015230604487015260648601526084850152165af1908115611303576000916112e7575090565b6112ff915060403d8111610599576105898183610de6565b5090565b6040513d6000823e3d90fdfea26469706673582212207fbbefab5d90e19688626ca209a6db9afeac135f8e2a2f06b336c316f082e56d64736f6c63430008120033",
  "linkReferences": {},
  "deployedLinkReferences": {}
}