{
  "_format": "hh-sol-artifact-1",
  "contractName": "FunctionUtils",
  "sourceName": "contracts/oracle/utils/FunctionUtils.sol",
  "abi": [
    {
      "inputs": [],
      "name": "BASE_PARAMS",
      "outputs": [
        {
          "internalType": "uint256",
          "name": "",
          "type": "uint256"
        }
      ],
      "stateMutability": "view",
      "type": "function"
    },
    {
      "inputs": [],
      "name": "BASE_TOKENS",
      "outputs": [
        {
          "internalType": "uint256",
          "name": "",
          "type": "uint256"
        }
      ],
      "stateMutability": "view",
      "type": "function"
    }
  ],
  "bytecode": "0x6080604052348015600f57600080fd5b5060978061001e6000396000f3fe6080604052348015600f57600080fd5b506004361060325760003560e01c80639f48118f146037578063df1b8bd3146053575b600080fd5b6041633b9aca0081565b60405190815260200160405180910390f35b6041670de0b6b3a76400008156fea264697066735822122024a1f8a82347f2bec20c6cc771720d16da183bb96de7961953ebbf527441b28e64736f6c63430008160033",
  "linkReferences": {},
  "deployedLinkReferences": {}
}