{
  "_format": "hh-sol-artifact-1",
  "contractName": "LiquidationQueue",
  "sourceName": "contracts/LiquidationQueue/LiquidationQueue.sol",
  "abi": [
    {
      "anonymous": false,
      "inputs": [
        {
          "indexed": true,
          "internalType": "address",
          "name": "caller",
          "type": "address"
        },
        {
          "indexed": true,
          "internalType": "address",
          "name": "bidder",
          "type": "address"
        },
        {
          "indexed": true,
          "internalType": "uint256",
          "name": "pool",
          "type": "uint256"
        },
        {
          "indexed": false,
          "internalType": "uint256",
          "name": "usdoAmount",
          "type": "uint256"
        },
        {
          "indexed": false,
          "internalType": "uint256",
          "name": "liquidatedAssetAmount",
          "type": "uint256"
        },
        {
          "indexed": false,
          "internalType": "uint256",
          "name": "collateralValue",
          "type": "uint256"
        },
        {
          "indexed": false,
          "internalType": "uint256",
          "name": "timestamp",
          "type": "uint256"
        }
      ],
      "name": "ActivateBid",
      "type": "event"
    },
    {
      "anonymous": false,
      "inputs": [
        {
          "indexed": true,
          "internalType": "address",
          "name": "caller",
          "type": "address"
        },
        {
          "indexed": true,
          "internalType": "address",
          "name": "bidder",
          "type": "address"
        },
        {
          "indexed": true,
          "internalType": "uint256",
          "name": "pool",
          "type": "uint256"
        },
        {
          "indexed": false,
          "internalType": "uint256",
          "name": "usdoAmount",
          "type": "uint256"
        },
        {
          "indexed": false,
          "internalType": "uint256",
          "name": "liquidatedAssetAmount",
          "type": "uint256"
        },
        {
          "indexed": false,
          "internalType": "uint256",
          "name": "timestamp",
          "type": "uint256"
        }
      ],
      "name": "Bid",
      "type": "event"
    },
    {
      "anonymous": false,
      "inputs": [
        {
          "indexed": true,
          "internalType": "contract IBidder",
          "name": "_old",
          "type": "address"
        },
        {
          "indexed": true,
          "internalType": "address",
          "name": "_new",
          "type": "address"
        }
      ],
      "name": "BidSwapperUpdated",
      "type": "event"
    },
    {
      "anonymous": false,
      "inputs": [
        {
          "indexed": true,
          "internalType": "address",
          "name": "caller",
          "type": "address"
        },
        {
          "indexed": true,
          "internalType": "uint256",
          "name": "pool",
          "type": "uint256"
        },
        {
          "indexed": false,
          "internalType": "uint256",
          "name": "usdoAmountExecuted",
          "type": "uint256"
        },
        {
          "indexed": false,
          "internalType": "uint256",
          "name": "liquidatedAssetAmountExecuted",
          "type": "uint256"
        },
        {
          "indexed": false,
          "internalType": "uint256",
          "name": "collateralLiquidated",
          "type": "uint256"
        },
        {
          "indexed": false,
          "internalType": "uint256",
          "name": "timestamp",
          "type": "uint256"
        }
      ],
      "name": "ExecuteBids",
      "type": "event"
    },
    {
      "anonymous": false,
      "inputs": [
        {
          "indexed": true,
          "internalType": "address",
          "name": "redeemer",
          "type": "address"
        },
        {
          "indexed": true,
          "internalType": "address",
          "name": "to",
          "type": "address"
        },
        {
          "indexed": false,
          "internalType": "uint256",
          "name": "amount",
          "type": "uint256"
        }
      ],
      "name": "Redeem",
      "type": "event"
    },
    {
      "anonymous": false,
      "inputs": [
        {
          "indexed": true,
          "internalType": "address",
          "name": "caller",
          "type": "address"
        },
        {
          "indexed": true,
          "internalType": "address",
          "name": "bidder",
          "type": "address"
        },
        {
          "indexed": true,
          "internalType": "uint256",
          "name": "pool",
          "type": "uint256"
        },
        {
          "indexed": false,
          "internalType": "uint256",
          "name": "usdoAmount",
          "type": "uint256"
        },
        {
          "indexed": false,
          "internalType": "uint256",
          "name": "liquidatedAssetAmount",
          "type": "uint256"
        },
        {
          "indexed": false,
          "internalType": "uint256",
          "name": "collateralValue",
          "type": "uint256"
        },
        {
          "indexed": false,
          "internalType": "uint256",
          "name": "timestamp",
          "type": "uint256"
        }
      ],
      "name": "RemoveBid",
      "type": "event"
    },
    {
      "anonymous": false,
      "inputs": [
        {
          "indexed": true,
          "internalType": "contract IBidder",
          "name": "_old",
          "type": "address"
        },
        {
          "indexed": true,
          "internalType": "address",
          "name": "_new",
          "type": "address"
        }
      ],
      "name": "UsdoSwapperUpdated",
      "type": "event"
    },
    {
      "inputs": [
        {
          "internalType": "address",
          "name": "user",
          "type": "address"
        },
        {
          "internalType": "uint256",
          "name": "pool",
          "type": "uint256"
        }
      ],
      "name": "activateBid",
      "outputs": [],
      "stateMutability": "nonpayable",
      "type": "function"
    },
    {
      "inputs": [
        {
          "internalType": "address",
          "name": "",
          "type": "address"
        }
      ],
      "name": "balancesDue",
      "outputs": [
        {
          "internalType": "uint256",
          "name": "",
          "type": "uint256"
        }
      ],
      "stateMutability": "view",
      "type": "function"
    },
    {
      "inputs": [
        {
          "internalType": "address",
          "name": "user",
          "type": "address"
        },
        {
          "internalType": "uint256",
          "name": "pool",
          "type": "uint256"
        },
        {
          "internalType": "uint256",
          "name": "amount",
          "type": "uint256"
        }
      ],
      "name": "bid",
      "outputs": [],
      "stateMutability": "nonpayable",
      "type": "function"
    },
    {
      "inputs": [
        {
          "internalType": "uint256",
          "name": "",
          "type": "uint256"
        }
      ],
      "name": "bidPools",
      "outputs": [
        {
          "internalType": "uint256",
          "name": "totalAmount",
          "type": "uint256"
        }
      ],
      "stateMutability": "view",
      "type": "function"
    },
    {
      "inputs": [
        {
          "internalType": "address",
          "name": "user",
          "type": "address"
        },
        {
          "internalType": "uint256",
          "name": "pool",
          "type": "uint256"
        },
        {
          "internalType": "uint256",
          "name": "stableAssetId",
          "type": "uint256"
        },
        {
          "internalType": "uint256",
          "name": "amountIn",
          "type": "uint256"
        },
        {
          "internalType": "bytes",
          "name": "data",
          "type": "bytes"
        }
      ],
      "name": "bidWithStable",
      "outputs": [],
      "stateMutability": "nonpayable",
      "type": "function"
    },
    {
      "inputs": [
        {
          "internalType": "uint256",
          "name": "collateralAmountToLiquidate",
          "type": "uint256"
        },
        {
          "internalType": "bytes",
          "name": "swapData",
          "type": "bytes"
        }
      ],
      "name": "executeBids",
      "outputs": [
        {
          "internalType": "uint256",
          "name": "totalAmountExecuted",
          "type": "uint256"
        },
        {
          "internalType": "uint256",
          "name": "totalCollateralLiquidated",
          "type": "uint256"
        }
      ],
      "stateMutability": "nonpayable",
      "type": "function"
    },
    {
      "inputs": [
        {
          "internalType": "uint256",
          "name": "pool",
          "type": "uint256"
        },
        {
          "internalType": "address",
          "name": "user",
          "type": "address"
        }
      ],
      "name": "getBidPoolUserInfo",
      "outputs": [
        {
          "components": [
            {
              "internalType": "bool",
              "name": "isUsdo",
              "type": "bool"
            },
            {
              "internalType": "bool",
              "name": "swapOnExecute",
              "type": "bool"
            },
            {
              "internalType": "uint256",
              "name": "usdoAmount",
              "type": "uint256"
            },
            {
              "internalType": "uint256",
              "name": "liquidatedAssetAmount",
              "type": "uint256"
            },
            {
              "internalType": "uint256",
              "name": "timestamp",
              "type": "uint256"
            }
          ],
          "internalType": "struct ILiquidationQueue.Bidder",
          "name": "",
          "type": "tuple"
        }
      ],
      "stateMutability": "view",
      "type": "function"
    },
    {
      "inputs": [],
      "name": "getNextAvailBidPool",
      "outputs": [
        {
          "internalType": "uint256",
          "name": "i",
          "type": "uint256"
        },
        {
          "internalType": "bool",
          "name": "available",
          "type": "bool"
        },
        {
          "internalType": "uint256",
          "name": "totalAmount",
          "type": "uint256"
        }
      ],
      "stateMutability": "view",
      "type": "function"
    },
    {
      "inputs": [
        {
          "internalType": "uint256",
          "name": "pool",
          "type": "uint256"
        }
      ],
      "name": "getOrderBookPoolEntries",
      "outputs": [
        {
          "components": [
            {
              "internalType": "address",
              "name": "bidder",
              "type": "address"
            },
            {
              "components": [
                {
                  "internalType": "bool",
                  "name": "isUsdo",
                  "type": "bool"
                },
                {
                  "internalType": "bool",
                  "name": "swapOnExecute",
                  "type": "bool"
                },
                {
                  "internalType": "uint256",
                  "name": "usdoAmount",
                  "type": "uint256"
                },
                {
                  "internalType": "uint256",
                  "name": "liquidatedAssetAmount",
                  "type": "uint256"
                },
                {
                  "internalType": "uint256",
                  "name": "timestamp",
                  "type": "uint256"
                }
              ],
              "internalType": "struct ILiquidationQueue.Bidder",
              "name": "bidInfo",
              "type": "tuple"
            }
          ],
          "internalType": "struct ILiquidationQueue.OrderBookPoolEntry[]",
          "name": "x",
          "type": "tuple[]"
        }
      ],
      "stateMutability": "view",
      "type": "function"
    },
    {
      "inputs": [
        {
          "internalType": "uint256",
          "name": "pool",
          "type": "uint256"
        }
      ],
      "name": "getOrderBookSize",
      "outputs": [
        {
          "internalType": "uint256",
          "name": "size",
          "type": "uint256"
        }
      ],
      "stateMutability": "view",
      "type": "function"
    },
    {
      "inputs": [
        {
          "components": [
            {
              "internalType": "uint256",
              "name": "activationTime",
              "type": "uint256"
            },
            {
              "internalType": "uint256",
              "name": "minBidAmount",
              "type": "uint256"
            },
            {
              "internalType": "address",
              "name": "feeCollector",
              "type": "address"
            },
            {
              "internalType": "contract IBidder",
              "name": "bidExecutionSwapper",
              "type": "address"
            },
            {
              "internalType": "contract IBidder",
              "name": "usdoSwapper",
              "type": "address"
            }
          ],
          "internalType": "struct ILiquidationQueue.LiquidationQueueMeta",
          "name": "_liquidationQueueMeta",
          "type": "tuple"
        },
        {
          "internalType": "address",
          "name": "_singularity",
          "type": "address"
        }
      ],
      "name": "init",
      "outputs": [],
      "stateMutability": "nonpayable",
      "type": "function"
    },
    {
      "inputs": [],
      "name": "liquidatedAssetId",
      "outputs": [
        {
          "internalType": "uint256",
          "name": "",
          "type": "uint256"
        }
      ],
      "stateMutability": "view",
      "type": "function"
    },
    {
      "inputs": [],
      "name": "liquidationQueueMeta",
      "outputs": [
        {
          "internalType": "uint256",
          "name": "activationTime",
          "type": "uint256"
        },
        {
          "internalType": "uint256",
          "name": "minBidAmount",
          "type": "uint256"
        },
        {
          "internalType": "address",
          "name": "feeCollector",
          "type": "address"
        },
        {
          "internalType": "contract IBidder",
          "name": "bidExecutionSwapper",
          "type": "address"
        },
        {
          "internalType": "contract IBidder",
          "name": "usdoSwapper",
          "type": "address"
        }
      ],
      "stateMutability": "view",
      "type": "function"
    },
    {
      "inputs": [],
      "name": "lqAssetId",
      "outputs": [
        {
          "internalType": "uint256",
          "name": "",
          "type": "uint256"
        }
      ],
      "stateMutability": "view",
      "type": "function"
    },
    {
      "inputs": [],
      "name": "market",
      "outputs": [
        {
          "internalType": "string",
          "name": "",
          "type": "string"
        }
      ],
      "stateMutability": "view",
      "type": "function"
    },
    {
      "inputs": [],
      "name": "marketAssetId",
      "outputs": [
        {
          "internalType": "uint256",
          "name": "",
          "type": "uint256"
        }
      ],
      "stateMutability": "view",
      "type": "function"
    },
    {
      "inputs": [],
      "name": "onlyOnce",
      "outputs": [
        {
          "internalType": "bool",
          "name": "",
          "type": "bool"
        }
      ],
      "stateMutability": "view",
      "type": "function"
    },
    {
      "inputs": [
        {
          "internalType": "uint256",
          "name": "",
          "type": "uint256"
        },
        {
          "internalType": "uint256",
          "name": "",
          "type": "uint256"
        }
      ],
      "name": "orderBookEntries",
      "outputs": [
        {
          "internalType": "address",
          "name": "bidder",
          "type": "address"
        },
        {
          "components": [
            {
              "internalType": "bool",
              "name": "isUsdo",
              "type": "bool"
            },
            {
              "internalType": "bool",
              "name": "swapOnExecute",
              "type": "bool"
            },
            {
              "internalType": "uint256",
              "name": "usdoAmount",
              "type": "uint256"
            },
            {
              "internalType": "uint256",
              "name": "liquidatedAssetAmount",
              "type": "uint256"
            },
            {
              "internalType": "uint256",
              "name": "timestamp",
              "type": "uint256"
            }
          ],
          "internalType": "struct ILiquidationQueue.Bidder",
          "name": "bidInfo",
          "type": "tuple"
        }
      ],
      "stateMutability": "view",
      "type": "function"
    },
    {
      "inputs": [
        {
          "internalType": "uint256",
          "name": "",
          "type": "uint256"
        }
      ],
      "name": "orderBookInfos",
      "outputs": [
        {
          "internalType": "uint32",
          "name": "poolId",
          "type": "uint32"
        },
        {
          "internalType": "uint32",
          "name": "nextBidPull",
          "type": "uint32"
        },
        {
          "internalType": "uint32",
          "name": "nextBidPush",
          "type": "uint32"
        }
      ],
      "stateMutability": "view",
      "type": "function"
    },
    {
      "inputs": [],
      "name": "penrose",
      "outputs": [
        {
          "internalType": "contract IPenrose",
          "name": "",
          "type": "address"
        }
      ],
      "stateMutability": "view",
      "type": "function"
    },
    {
      "inputs": [
        {
          "internalType": "address",
          "name": "to",
          "type": "address"
        }
      ],
      "name": "redeem",
      "outputs": [],
      "stateMutability": "nonpayable",
      "type": "function"
    },
    {
      "inputs": [
        {
          "internalType": "address",
          "name": "user",
          "type": "address"
        },
        {
          "internalType": "uint256",
          "name": "pool",
          "type": "uint256"
        }
      ],
      "name": "removeBid",
      "outputs": [
        {
          "internalType": "uint256",
          "name": "amountRemoved",
          "type": "uint256"
        }
      ],
      "stateMutability": "nonpayable",
      "type": "function"
    },
    {
      "inputs": [
        {
          "internalType": "address",
          "name": "_swapper",
          "type": "address"
        }
      ],
      "name": "setBidExecutionSwapper",
      "outputs": [],
      "stateMutability": "nonpayable",
      "type": "function"
    },
    {
      "inputs": [
        {
          "internalType": "address",
          "name": "_swapper",
          "type": "address"
        }
      ],
      "name": "setUsdoSwapper",
      "outputs": [],
      "stateMutability": "nonpayable",
      "type": "function"
    },
    {
      "inputs": [],
      "name": "singularity",
      "outputs": [
        {
          "internalType": "contract ISingularity",
          "name": "",
          "type": "address"
        }
      ],
      "stateMutability": "view",
      "type": "function"
    },
    {
      "inputs": [
        {
          "internalType": "address",
          "name": "user",
          "type": "address"
        },
        {
          "internalType": "uint256",
          "name": "pool",
          "type": "uint256"
        }
      ],
      "name": "userBidIndexLength",
      "outputs": [
        {
          "internalType": "uint256",
          "name": "len",
          "type": "uint256"
        }
      ],
      "stateMutability": "view",
      "type": "function"
    },
    {
      "inputs": [
        {
          "internalType": "address",
          "name": "",
          "type": "address"
        },
        {
          "internalType": "uint256",
          "name": "",
          "type": "uint256"
        },
        {
          "internalType": "uint256",
          "name": "",
          "type": "uint256"
        }
      ],
      "name": "userBidIndexes",
      "outputs": [
        {
          "internalType": "uint256",
          "name": "",
          "type": "uint256"
        }
      ],
      "stateMutability": "view",
      "type": "function"
    },
    {
      "inputs": [],
      "name": "yieldBox",
      "outputs": [
        {
          "internalType": "contract YieldBox",
          "name": "",
          "type": "address"
        }
      ],
      "stateMutability": "view",
      "type": "function"
    }
  ],
  "bytecode": "0x60808060405234610016576133c9908161001c8239f35b600080fdfe608080604052600436101561001357600080fd5b600090813560e01c90816307be4daf14612cc8575080630ed4f3e914612caa5780630f41ba4b14612a005780631259c1a1146129c7578063149c59c5146129625780632cfbe6ba146129185780632e020d1f146128fa57806336252c90146128875780633965907b14611a1e57806345baf8af14611a0057806346a7d7d9146119d9578063575939f9146119665780635c3a33931461185357806365d387c9146114c05780636aef9a671461111f5780636c3d8b8f146110f65780637c8be05b146110c65780637d98726b1461107e57806380f5560514610fa257806395a2251f14610dda578063966b583c14610d83578063a39e6a1714610d31578063a5dca46414610d08578063bd2f6f8314610b7b578063d844f0c0146105e8578063de406577146105bf578063f50f78cd146101815763fa8e84791461015557600080fd5b3461017e57602036600319011261017e5760406020916004358152600c83522054604051908152f35b80fd5b503461017e57366003190160c081126104575760a01361017e576001600160a01b0360a4358181169081900361053a5760ff600b54166105885760043583556024356001556044359082821680920361058457600280546001600160a01b031990811690931790556064358381169081900361053a578260035416176003556084359083821680920361053a578491836004541617600455816005548285821617600555161792604051936377607a1760e11b85526020938486600481855afa958615610579578496610546575b50600a95865560405163226f120560e11b8152918583600481845afa92831561049a57859361050f575b506009839055604051636c3d8b8f60e01b81528681600481855afa80156104e757859187916104f2575b501682600654161760065560405163de40657760e01b81528681600481855afa9182156104e75785889288946104a5575b5060049316948560075495861617600755600855604051928380926338d52e0f60e01b82525afa90811561049a57869286868194604494839161046d575b50604051978896879563095ea7b360e01b8752161760048501526000196024850152165af180156104625761042b575b5080600754169060055416813b1561041c57829160448392604051948593849263a22cb46560e01b84526004840152600160248401525af1801561042057610408575b505b828111156103a05783600160ff19600b541617600b5580f35b610403906103ac613222565b63ffffffff8281168252828752600e855260408088208351815488860151958401516001600160601b0319909116919094161793871b63ffffffff60201b169390931791901b63ffffffff60401b16179055612ee7565b610387565b61041190612dcf565b61041c578238610385565b8280fd5b6040513d84823e3d90fd5b8381813d831161045b575b6104408183612e33565b8101031261041c5751801515036104575738610342565b5080fd5b503d610436565b6040513d85823e3d90fd5b61048d9150873d8911610493575b6104858183612e33565b810190612ec8565b38610312565b503d61047b565b6040513d87823e3d90fd5b92809294508391503d83116104e0575b6104bf8183612e33565b810103126104dc575184811681036104dc579086908560046102d4565b8580fd5b503d6104b5565b6040513d88823e3d90fd5b6105099150883d8a11610493576104858183612e33565b386102a3565b945091508484813d811161053f575b6105288183612e33565b8101031261053a578693519138610279565b600080fd5b503d61051e565b85809297508195503d8311610572575b6105608183612e33565b8101031261053a57859251943861024f565b503d610556565b6040513d86823e3d90fd5b8380fd5b60405162461bcd60e51b815260206004820152600f60248201526e13144e88125b9a5d1a585b1a5e9959608a1b6044820152606490fd5b503461017e578060031936011261017e576007546040516001600160a01b039091168152602090f35b503461017e5760a036600319011261017e57610602612ce9565b6084356001600160401b03811161041c57610621903690600401612d5a565b61062f60ff600b5416613024565b61063e600a6024351115613066565b6004546001600160a01b0316908115610b3b576006546040516386c8e21d60e01b8152928691602090859060049082906001600160a01b03165afa938415610420578294610b04575b5060018060a01b036007541690604051638eb22cdd60e01b815260443560048201526064356024820152836044820152602081606481865afa908115610579578491610acf575b50823b15610584576106fe92849283604051809681958294630208d92960e11b84526044359033600486016130a9565b03925af1801561042057610ab7575b505060048054600554604051632da475e360e21b8152949260209286926001600160a01b039182169284928c928492610755928b928e926064359260443592169087016130d3565b03925af19283156104e7578693610a83575b50610770612f7c565b9483604087015260006060870152426080870152600186526004600854602060018060a01b0360065416604051938480926386c8e21d60e01b82525afa918215610a7757600092610a43575b5014156020870152602435600052600c60205260016040600020019060018060a01b0316908160005260205260406000206107fa8751151582612ef6565b6020870151151561ff0082549160081b169061ff00191617815560408701516001820155606087015160028201556003608088015191015560405184815260006020820152426040820152816024359160008051602061337483398151915260603392a4600052600f602052604060002060243560005260205260406000208054600e602052604060002063ffffffff6040519161089783612de2565b548181168352818160201c16602084015260401c16604082015260005b82811061096e575050505060208501511561095d57600354600554604051632eec159b60e11b8152965060209587956001600160a01b039384169587958695610905959294939216600487016130d3565b03915afa8015610420578290610929575b61092691505b6001541115613115565b80f35b506020813d602011610955575b8161094360209383612e33565b8101031261053a576109269051610916565b3d9150610936565b50505050604061092691015161091c565b6109788185612e9a565b90549060031b1c63ffffffff6020840151161115610999575b6001016108b4565b835492506000198301838111610a2d576109b66109e09186612e9a565b90549060031b1c6109c78387612e9a565b90919082549060031b91821b91600019901b1916179055565b8354908115610a175760019160001901610a0e6109fd8288612e9a565b8154906000199060031b1b19169055565b85559050610991565b634e487b7160e01b600052603160045260246000fd5b634e487b7160e01b600052601160045260246000fd5b90916020823d602011610a6f575b81610a5e60209383612e33565b8101031261017e57505190386107bc565b3d9150610a51565b6040513d6000823e3d90fd5b9092506020813d602011610aaf575b81610a9f60209383612e33565b8101031261053a57519138610767565b3d9150610a92565b610ac090612dcf565b610acb57843861070d565b8480fd5b9350506020833d602011610afc575b81610aeb60209383612e33565b8101031261053a57879251386106ce565b3d9150610ade565b915092506020813d602011610b33575b81610b2160209383612e33565b8101031261053a578590519238610687565b3d9150610b14565b60405162461bcd60e51b815260206004820152601860248201527713144e881554d113c81cddd85c1c195c881b9bdd081cd95d60421b6044820152606490fd5b503461017e576020908160031936011261017e5760043591828252600e8152604082209160405192610bac84612de2565b549063ffffffff9182811685528281851c1660408486880193838552821c1696019580875203838111610cf457831695610be587612f65565b96610bf36040519889612e33565b808852610c02601f1991612f65565b0185845b828110610cde575050508252600d845282604083209151169282935b81875116811015610c845780610c619185528387526040852090604051610c4881612dfd565b82546001600160a01b0316815260019384938401612e56565b89820152610c6f888c612fc8565b52610c7a878b612fc8565b5001940193610c22565b6040805187815289518189018190528a89019282019089885b828110610caa5784840385f35b9091928260c0600192610ccf838a51868060a01b038151168452015184830190612d29565b01960191019492919094610c9d565b610ce6612fa7565b82828c010152018690610c06565b634e487b7160e01b83526011600452602483fd5b503461017e578060031936011261017e576005546040516001600160a01b039091168152602090f35b503461017e57610d4036612cff565b929160018060a01b03168252600f602052604082209082526020526040812090815483101561017e576020610d758484612e9a565b90546040519160031b1c8152f35b503461017e57604036600319011261017e57604060c0916004358152600d602052818120602435825260205220610dd8610dc86001808060a01b038454169301612e56565b6040519283526020830190612d29565bf35b503461017e5760208060031936011261045757610df5612ce9565b33835260108252604083205415610f6857338352601082526040832054906032820282810460321483151715610f5457612710610e3491048093613215565b913385526010845284604081205560018060a01b039081600254168652610e6060408720918254613197565b905584600a54826007541690604051638eb22cdd60e01b81528160048201528660248201528360448201528781606481865afa908115610579578491610f23575b50823b1561058457610ece92849283604051809681958294630208d92960e11b84528c30600486016130a9565b03925af1801561042057610f0f575b50507fd12200efa34901b99367694174c3b0d32c99585fdf37c7c26892136ddd0836d99160405193845216923392a380f35b610f1890612dcf565b610acb578438610edd565b809450888092503d8311610f4d575b610f3c8183612e33565b8101031261053a5787925138610ea1565b503d610f32565b634e487b7160e01b85526011600452602485fd5b60405162461bcd60e51b81526004810183905260126024820152714c513a204e6f2062616c616e63652064756560701b6044820152606490fd5b503461017e578060031936011261017e576005546040516306fdde0360e01b8152908290829060049082906001600160a01b03165afa908115610420578291611000575b60405160208082528190610ffc90820185612daa565b0390f35b90503d8083833e6110118183612e33565b81019060208183031261041c578051906001600160401b038211610584570181601f8201121561041c5780519261104784612f07565b926110556040519485612e33565b8484526020858401011161017e5750610ffc926110789160208085019101612d87565b38610fe6565b503461017e57602036600319011261017e5760406060916004358152600e60205220546040519063ffffffff908181168352818160201c16602084015260401c166040820152f35b503461017e578060031936011261017e5760606110e1612fdc565b90604051928352151560208301526040820152f35b503461017e578060031936011261017e576006546040516001600160a01b039091168152602090f35b503461017e57604036600319011261017e57611139612ce9565b602435808352602092600c845260019081604082200133600052855260ff60406000205416908160001461149e57838152600c86528260408220013360005286528260406000200154945b61118f861515613153565b848252600c87528360408320013360005287526111af60406000206131a4565b8593858352600c885280604084200133600052885260ff60406000205460081c166113bd575b54841061137f578215611376576006546040516386c8e21d60e01b8152908890829060049082906001600160a01b03165afa908115610462578391611349575b50915b600754604051638eb22cdd60e01b81526004810185905260248101899052604481018390526001600160a01b039490918516908a83606481855afa92831561057957849361131a575b50813b156105845791839161128f9383604051809681958294630208d92960e11b84528b30600486016130a9565b03925af1801561042057611306575b507f2f413fefb30b9c037ba435fc106ac59646343aafb657db7057b5b4ba42d5643792919084156112ff5787945b156112f4576112e990945b604051938493169633964292856131e6565b0390a4604051908152f35b506112e987946112d7565b80946112cc565b6113108291612dcf565b61017e573861129e565b9092508a81813d8311611342575b6113328183612e33565b8101031261053a57519138611261565b503d611328565b90508781813d831161136f575b6113608183612e33565b8101031261053a575138611215565b503d611356565b60085491611218565b60405162461bcd60e51b815260048101889052601660248201527513144e88189a5908191bd95cc81b9bdd08195e1a5cdd60521b6044820152606490fd5b935060018060a01b03806003541660048983600554169360065416604051928380926386c8e21d60e01b82525afa90811561049a579189918b938791611466575b506114209460405195869485938493632eec159b60e11b8552600485016131bc565b03915afa908115610462578391611439575b50936111d5565b90508781813d831161145f575b6114508183612e33565b8101031261053a575138611432565b503d611446565b925050929181813d8311611497575b61147f8183612e33565b8101031261053a57611420928a928a925190946113fe565b503d611475565b838152600c865282604082200133600052865260026040600020015494611184565b503461017e57604036600319011261017e576114da612ce9565b602435908183526020600c8152600160408520019160018060a01b038091169283600052825261150d6040600020612e56565b6115296080820161152081511515613153565b51875490613197565b421061181f57848652600e8352604086206040519061154782612de2565b5463ffffffff908181168352858301918082881c16835280604085019260401c168252611572612fa7565b888152878101958652898b52600d88526040808c20845184168d5289528b20905181546001600160a01b0319169088161781558551805160049160809160018501906115c090151582612ef6565b8b820151151561ff0082549160081b169061ff00191617905560408101516002850155606081015160038501550151910155888a52600c8752600160408b200188600052875261161360406000206131a4565b878a52600f87526040808b208a8c5288528a208251815490831691600160401b82101561180b57816109c791600161164e9594018155612e9a565b8151811660010181168252888a52600e87526040808b2094518554945193516001600160601b031990951692169190911791871b63ffffffff60201b169190911791901b63ffffffff60401b1617905580518051156117ff57836040820151915b0151156117e5575060048260035416928481600554169160065416604051938480926386c8e21d60e01b82525afa80156117da57859289916117a7575b5093611716946040855101519260405196879485938493632eec159b60e11b8552600485016131bc565b03915afa9182156104e7578692611777575b50600c60008051602061335483398151915292935b8688525260408620611750848254613197565b905551606060408201519101519261177160405192839233964292856131e6565b0390a480f35b91508282813d83116117a0575b61178e8183612e33565b8101031261053a57905190600c611728565b503d611784565b83819492503d83116117d3575b6117be8183612e33565b8101031261053a5790518491906117166116ec565b503d6117b4565b6040513d8a823e3d90fd5b6000805160206133548339815191529250600c909361173d565b836060820151916116af565b634e487b7160e01b8d52604160045260248dfd5b60405162461bcd60e51b815260048101849052600c60248201526b26289d103a37b79039b7b7b760a11b6044820152606490fd5b503461017e57604036600319011261017e5761186d612ce9565b602480359160018060a01b03168352602092600f84526040812083825284526040812092604051808587829754938481520190855287852092855b89828210611950575050506118bf92500385612e33565b8351908252600e85526040822091604051926118da84612de2565b5463ffffffff9384821681526040858983019381818c1c168552821c16910152815b83811061190e57878751604051908152f35b6119188188612fc8565b5185835116111561192c575b6001016118fc565b92801561193d576000190192611924565b634e487b7160e01b835260116004528583fd5b855484526001958601958a9550930192016118a8565b503461017e57602036600319011261017e57611980612ce9565b6005546001600160a01b03919061199a90831633146132bd565b816003549116809282167fe0ae31f6fff797b33b039284b11690980155ca2c61a831617b6943199e6fce8b8580a36001600160a01b0319161760035580f35b503461017e57602036600319011261017e5760206119f8600435612f22565b604051908152f35b503461017e578060031936011261017e576020600854604051908152f35b503461017e57604036600319011261017e576001600160401b039060243582811161045757611a51903690600401612d5a565b600554600435939290839081906001600160a01b03163381900361284b576040519761014089019081118982101761283557600491602091604052878a5287828b0152611a9c613222565b60408b0152611aa9612fa7565b60608b0152611ab6612fa7565b60808b01528760a08b01528760c08b01528760e08b0152876101008b0152876101208b0152611ae3612fdc565b5015158b8401528a52604051633ba0b9a960e01b815292839182905afa9081156104e7578691612803575b506101008801525b851515806127f6575b156127035786518552600e6020526040852063ffffffff60405191611b4383612de2565b548181168352818160201c16602084015260401c16604082015260408801528460a08801528460c08801525b851515806126e4575b156125fc5786518552600d6020526040852063ffffffff602060408a0151015116865260205260408520611bc5600160405192611bb484612dfd565b818060a01b03815416845201612e56565b90602081019182528060608a0152608089015251610100880151885190825115156000146125f25760408301515b6020840151156125da57506003546005546006546040516386c8e21d60e01b81526001600160a01b03938416969284169390929160209184916004918391165afa918215612049578b9261259e575b5094602092916040611c6e9701519260405197889485938493632eec159b60e11b8552600485016131bc565b03915afa9283156117da578893612568575b50611c97670de0b6b3a764000091611c9d94613202565b04613326565b8061012089015286811160001461212157506020608088015101519561010088015196885197611cce368888613241565b8899670de0b6b3a7640000850290858204670de0b6b3a76400001486151715610a2d57831561210b57611d0390848304613202565b9081606481020460641482151715610a2d576004936127106064611d2a9402049104613215565b6006546040516386c8e21d60e01b81529194919360209185919082906001600160a01b03165afa9283156120cb578a936120d6575b5060200151611e84575b505090611dcc611ddb9260018060a01b0360808c015151168952601060205260408920611d97848254613197565b905560608b0151602001518051611e6f575060606020818d0151015101611dbf828251613215565b90525b60a08b0151613197565b60a08a015260c0890151613197565b60c0880152611def859660e0890151613197565b60e088015260206060880151015187518652600d6020526040862063ffffffff602060408b0151015116875260205260046080604088209260018401611e388251151582612ef6565b6020820151815461ff00191690151560081b61ff001617905560408101516002850155606081015160038501550151910155611b6f565b604001611e7d8b8251613215565b9052611dc2565b600354600554604051637f7ba27d60e11b81526001600160a01b039283169c5094959492939160209184918e9183918291611ec7918c91899116600485016131bc565b03915afa9182156120cb578a92612097575b50819a60018060a01b036007541660405191638eb22cdd60e01b83528360048401528460248401528c6044840152602083606481855afa92831561208c578d93612058575b50813b1561205457918c918483611f4d9560405196879586948593630208d92960e11b855230600486016130a9565b03925af1801561204957908b91612031575b50509060209160018060a01b0360035416908b60018060a01b0360055416611f9d60405197889687958694632da475e360e21b8652600486016132f8565b03925af19081156117da579083918991611ffc575b5010611fc057903880611d69565b60405162461bcd60e51b81526020600482015260146024820152731b9959590b5b5bdc994b58dbdb1b185d195c985b60621b6044820152606490fd5b9150506020813d602011612029575b8161201860209383612e33565b8101031261053a5782905138611fb2565b3d915061200b565b61203a90612dcf565b612045578938611f5f565b8980fd5b6040513d8d823e3d90fd5b8c80fd5b9092506020813d602011612084575b8161207460209383612e33565b8101031261053a57519138611f1e565b3d9150612067565b6040513d8f823e3d90fd5b9091506020813d6020116120c3575b816120b360209383612e33565b8101031261053a57519038611ed9565b3d91506120a6565b6040513d8c823e3d90fd5b9092506020813d602011612103575b816120f260209383612e33565b8101031261053a5751916020611d5f565b3d91506120e5565b634e487b7160e01b600052601260045260246000fd5b90956020608089015101519061010089015191878a8051612143368b8b613241565b606085015197966040860151956020810151612270575b505050506121bf926121dc969260606020816121b09560018060a01b0360808201515116855260108352604085206121938c8254613197565b9055018051820151604001849052510151015260e08d0151613197565b60e08c015260a08b0151613197565b60a08a01526121d28260c08b0151613197565b60c08a0152613215565b9460206060880151015187518652600d6020526040862063ffffffff602060408b01510151168752602052600460806040882092600184016122218251151582612ef6565b6020820151151561ff0082549160081b169061ff00191617905560408101516002850155606081015160038501550151910155602060408801510163ffffffff60018183511601169052611b6f565b6007546003546006546040516386c8e21d60e01b8152969c50999a5093989296509094506001600160a01b039182169390821692909116602082600481875afa9182156124f0578e92612531575b506020600494604051958680926386c8e21d60e01b82525afa9384156124f0578e946124fd575b50604085015160405194638eb22cdd60e01b8652600486015260248501528d6044850152602084606481865afa9384156124f0578e946124bc575b50823b156124b8579161234f93918e809460405196879586948593630208d92960e11b855230600486016130a9565b03925af1801561204957908b916124a4575b50506003546005546006546040516386c8e21d60e01b81526001600160a01b0392831693831692909160209183916004918391165afa90811561208c578d90819261246d575b5060406020950151936123d0604051998a9687958694632da475e360e21b8652600486016132f8565b03925af1928315612462578b949392918a918294612423575b50916121b09160606020816124136121dc9b670de0b6b3a7640000611c978b9a6121bf9c9b613202565b999550508295995083965061215a565b9350919450506020823d60201161245a575b8161244260209383612e33565b8101031261053a5790518a93909189906121b06123e9565b3d9150612435565b6040513d8b823e3d90fd5b949150506020843d60201161249c575b8161248a60209383612e33565b8101031261053a5792518c60406123a7565b3d915061247d565b6124ad90612dcf565b612045578938612361565b8d80fd5b9093506020813d6020116124e8575b816124d860209383612e33565b8101031261053a57519238612320565b3d91506124cb565b8e604051903d90823e3d90fd5b9093506020813d602011612529575b8161251960209383612e33565b8101031261053a575192386122e5565b3d915061250c565b9391506020843d602011612560575b8161254d60209383612e33565b8101031261053a579251909260206122be565b3d9150612540565b92506020833d602011612596575b8161258360209383612e33565b8101031261053a57915191611c97611c80565b3d9150612576565b929150946020833d6020116125d2575b816125bb60209383612e33565b8101031261053a5791519194909190611c6e611c42565b3d91506125ae565b611c9d9350670de0b6b3a764000091611c9791613202565b6060830151611bf3565b61260e61261a9160a089015190613197565b9160c088015190613197565b90604087015187518652600e602052604086209063ffffffff8151169082549163ffffffff60201b602083015160201b1691604063ffffffff811b91015160401b169260018060601b0319161717179055612673612fdc565b50151560208901528088528552600c60205260408520612694828254613215565b9055865160e08801517fcf16521da024444891495eb0ed8e5e97ab0b013ee419d71046494d94e02390a260a08a01519160c08b01516126dc60405192839233964292856131e6565b0390a3611b16565b50604087015163ffffffff604081602084015116920151161415611b78565b849161273960408360018060a01b03600754166008548784518096819582946311a5cc7760e31b8452309030906004860161328e565b03925af18015610579576127d8575b5060075460095460055460408051634d4d7cbd60e11b815293909284926001600160a01b039283169284928a92849261278c928c929091169030906004860161328e565b03925af1801561057957604094506127ac575b5082519182526020820152f35b6127cb90843d86116127d1575b6127c38183612e33565b810190613278565b5061279f565b503d6127b9565b6127f09060403d6040116127d1576127c38183612e33565b50612748565b5060208701511515611b1f565b90506020813d60201161282d575b8161281e60209383612e33565b8101031261053a575138611b0e565b3d9150612811565b634e487b7160e01b600052604160045260246000fd5b60405162461bcd60e51b81526020600482015260146024820152734c513a204f6e6c792053696e67756c617269747960601b6044820152606490fd5b503461017e57602036600319011261017e576128a1612ce9565b6005546001600160a01b0391906128bb90831633146132bd565b816004549116809282167f4df4d1118ddbedb1b0f3889ec88ab4d3108097b9b3dd236c2cc5c8e2e9f726958580a36001600160a01b0319161760045580f35b503461017e578060031936011261017e576020600954604051908152f35b503461017e578060031936011261017e5760a09054600154600180841b03806002541681600354169160045416926040519485526020850152604084015260608301526080820152f35b503461017e57604036600319011261017e576024356001600160a01b038116919082900361053a576040600191612997612f7c565b506004358152600c60205220019060005260205260a06129ba6040600020612e56565b610dd86040518092612d29565b503461017e57602036600319011261017e576020906040906001600160a01b036129ef612ce9565b168152601083522054604051908152f35b503461017e57612a0f36612cff565b9190612a1f60ff600b5416613024565b612a2c600a821115613066565b600192612a3c8454821015613115565b6008549160018060a01b0380600754169460405194638eb22cdd60e01b86528060048701528860249686888201528160448201526020988982606481845afa918215610462578392612c7b575b50803b1561041c57612ab49383604051809681958294630208d92960e11b84523033600486016130a9565b03925af1801561246257612c68575b508290612ace612f7c565b946040860160008152606087018281526080880191428352600089528a8901966000885286600052600c8c528c6040600020019516968795866000528c52612b1e60406000209a5115158b612ef6565b51151561ff008a549160081b169061ff001916178955518b8901555160028801555160038097015560405190600082528882015242604082015260008051602061337483398151915260603392a4600052600f84526040600020906000528352604060002091825493600e8152604060002060405190612b9d82612de2565b5490604063ffffffff838180951684528181878601971c168652821c1691015260005b868110612bcb578880f35b80612bd7899288612e9a565b905490871b1c838551161115612bee575b01612bc0565b865497509050600019808801888111612c5357612c0e612c1e9189612e9a565b905490881b1c6109c7848a612e9a565b86548015612c3e5789929101612c376109fd828a612e9a565b8755612be8565b85634e487b7160e01b60005260316004526000fd5b85634e487b7160e01b60005260116004526000fd5b97612c74849299612dcf565b9790612ac3565b9091508981813d8311612ca3575b612c938183612e33565b8101031261041c57519038612a89565b503d612c89565b503461017e578060031936011261017e576020600a54604051908152f35b90503461045757816003193601126104575760209060ff600b541615158152f35b600435906001600160a01b038216820361053a57565b606090600319011261053a576004356001600160a01b038116810361053a57906024359060443590565b6080809180511515845260208101511515602085015260408101516040850152606081015160608501520151910152565b9181601f8401121561053a578235916001600160401b03831161053a576020838186019501011161053a57565b60005b838110612d9a5750506000910152565b8181015183820152602001612d8a565b90602091612dc381518092818552858086019101612d87565b601f01601f1916010190565b6001600160401b03811161283557604052565b606081019081106001600160401b0382111761283557604052565b604081019081106001600160401b0382111761283557604052565b60a081019081106001600160401b0382111761283557604052565b601f909101601f19168101906001600160401b0382119082101761283557604052565b90604051612e6381612e18565b60806003829460ff81548181161515865260081c161515602085015260018101546040850152600281015460608501520154910152565b8054821015612eb25760005260206000200190600090565b634e487b7160e01b600052603260045260246000fd5b9081602091031261053a57516001600160a01b038116810361053a5790565b6000198114610a2d5760010190565b9060ff801983541691151516179055565b6001600160401b03811161283557601f01601f191660200190565b600052600e602052604060002060405190612f3c82612de2565b54604063ffffffff92838316815283808460201c1693846020840152831c169182910152031690565b6001600160401b0381116128355760051b60200190565b60405190612f8982612e18565b60006080838281528260208201528260408201528260608201520152565b60405190612fb482612dfd565b81600081526020612fc3612f7c565b910152565b8051821015612eb25760209160051b010190565b60009060008091815b600a851115612ff15750565b93612ffb81612f22565b61300e5761300890612ee7565b93612fe5565b808552600c602052604090942054600193509150565b1561302b57565b60405162461bcd60e51b815260206004820152601360248201527213144e88139bdd081a5b9a5d1a585b1a5e9959606a1b6044820152606490fd5b1561306d57565b60405162461bcd60e51b8152602060048201526014602482015273098a27440e0e4cadad2eada40e8dede40d0d2ced60631b6044820152606490fd5b6001600160a01b039182168152911660208201526040810191909152606081019190915260800190565b93909285939260a09693600180891b031686526020860152604085015260806060850152816080850152848401376000828201840152601f01601f1916010190565b1561311c57565b60405162461bcd60e51b815260206004820152600f60248201526e4c513a2062696420746f6f206c6f7760881b6044820152606490fd5b1561315a57565b60405162461bcd60e51b81526020600482015260156024820152744c513a20626964206e6f7420617661696c61626c6560581b6044820152606490fd5b91908201809211610a2d57565b60036000918281558260018201558260028201550155565b9160a09391600180861b031683526020830152604082015260806060820152600060808201520190565b9094939260609260808301968352602083015260408201520152565b81810292918115918404141715610a2d57565b91908203918211610a2d57565b6040519061322f82612de2565b60006040838281528260208201520152565b92919261324d82612f07565b9161325b6040519384612e33565b82948184528183011161053a578281602093846000960137010152565b919082604091031261053a576020825192015190565b9081526001600160a01b0391821660208201529116604082015260608101919091526000608082015260a00190565b156132c457565b60405162461bcd60e51b815260206004820152600c60248201526b1d5b985d5d1a1bdc9a5e995960a21b6044820152606490fd5b9092608092613323959460018060a01b03168352602083015260408201528160608201520190612daa565b90565b906133319082613202565b90606482029180830460641490151715610a2d5761271061332392049061319756fed3537325843bd046c81dbdae840896c9ad0a4e5ea737ac537f65167df96921c2baa682830cade78a3affa9fa3c417095d0edb57605b0ac6fb487ce2068204ce9a264697066735822122039c4e5e38011a0c4fbe8daec1b6e31bfad278a8c7b0d8e0fd22694f63c17f31b64736f6c63430008120033",
  "linkReferences": {},
  "deployedLinkReferences": {}
}