{
  "_format": "hh-sol-artifact-1",
  "contractName": "LiquidationQueue",
  "sourceName": "contracts/LiquidationQueue/LiquidationQueue.sol",
  "abi": [
    {
      "anonymous": false,
      "inputs": [
        {
          "indexed": true,
          "internalType": "address",
          "name": "caller",
          "type": "address"
        },
        {
          "indexed": true,
          "internalType": "address",
          "name": "bidder",
          "type": "address"
        },
        {
          "indexed": true,
          "internalType": "uint256",
          "name": "pool",
          "type": "uint256"
        },
        {
          "indexed": false,
          "internalType": "uint256",
          "name": "usdoAmount",
          "type": "uint256"
        },
        {
          "indexed": false,
          "internalType": "uint256",
          "name": "liquidatedAssetAmount",
          "type": "uint256"
        },
        {
          "indexed": false,
          "internalType": "uint256",
          "name": "collateralValue",
          "type": "uint256"
        },
        {
          "indexed": false,
          "internalType": "uint256",
          "name": "timestamp",
          "type": "uint256"
        }
      ],
      "name": "ActivateBid",
      "type": "event"
    },
    {
      "anonymous": false,
      "inputs": [
        {
          "indexed": true,
          "internalType": "address",
          "name": "caller",
          "type": "address"
        },
        {
          "indexed": true,
          "internalType": "address",
          "name": "bidder",
          "type": "address"
        },
        {
          "indexed": true,
          "internalType": "uint256",
          "name": "pool",
          "type": "uint256"
        },
        {
          "indexed": false,
          "internalType": "uint256",
          "name": "usdoAmount",
          "type": "uint256"
        },
        {
          "indexed": false,
          "internalType": "uint256",
          "name": "liquidatedAssetAmount",
          "type": "uint256"
        },
        {
          "indexed": false,
          "internalType": "uint256",
          "name": "timestamp",
          "type": "uint256"
        }
      ],
      "name": "Bid",
      "type": "event"
    },
    {
      "anonymous": false,
      "inputs": [
        {
          "indexed": true,
          "internalType": "contract IBidder",
          "name": "_old",
          "type": "address"
        },
        {
          "indexed": true,
          "internalType": "address",
          "name": "_new",
          "type": "address"
        }
      ],
      "name": "BidSwapperUpdated",
      "type": "event"
    },
    {
      "anonymous": false,
      "inputs": [
        {
          "indexed": true,
          "internalType": "address",
          "name": "caller",
          "type": "address"
        },
        {
          "indexed": true,
          "internalType": "uint256",
          "name": "pool",
          "type": "uint256"
        },
        {
          "indexed": false,
          "internalType": "uint256",
          "name": "usdoAmountExecuted",
          "type": "uint256"
        },
        {
          "indexed": false,
          "internalType": "uint256",
          "name": "liquidatedAssetAmountExecuted",
          "type": "uint256"
        },
        {
          "indexed": false,
          "internalType": "uint256",
          "name": "collateralLiquidated",
          "type": "uint256"
        },
        {
          "indexed": false,
          "internalType": "uint256",
          "name": "timestamp",
          "type": "uint256"
        }
      ],
      "name": "ExecuteBids",
      "type": "event"
    },
    {
      "anonymous": false,
      "inputs": [
        {
          "indexed": true,
          "internalType": "address",
          "name": "redeemer",
          "type": "address"
        },
        {
          "indexed": true,
          "internalType": "address",
          "name": "to",
          "type": "address"
        },
        {
          "indexed": false,
          "internalType": "uint256",
          "name": "amount",
          "type": "uint256"
        }
      ],
      "name": "Redeem",
      "type": "event"
    },
    {
      "anonymous": false,
      "inputs": [
        {
          "indexed": true,
          "internalType": "address",
          "name": "caller",
          "type": "address"
        },
        {
          "indexed": true,
          "internalType": "address",
          "name": "bidder",
          "type": "address"
        },
        {
          "indexed": true,
          "internalType": "uint256",
          "name": "pool",
          "type": "uint256"
        },
        {
          "indexed": false,
          "internalType": "uint256",
          "name": "usdoAmount",
          "type": "uint256"
        },
        {
          "indexed": false,
          "internalType": "uint256",
          "name": "liquidatedAssetAmount",
          "type": "uint256"
        },
        {
          "indexed": false,
          "internalType": "uint256",
          "name": "collateralValue",
          "type": "uint256"
        },
        {
          "indexed": false,
          "internalType": "uint256",
          "name": "timestamp",
          "type": "uint256"
        }
      ],
      "name": "RemoveBid",
      "type": "event"
    },
    {
      "anonymous": false,
      "inputs": [
        {
          "indexed": true,
          "internalType": "contract IBidder",
          "name": "_old",
          "type": "address"
        },
        {
          "indexed": true,
          "internalType": "address",
          "name": "_new",
          "type": "address"
        }
      ],
      "name": "UsdoSwapperUpdated",
      "type": "event"
    },
    {
      "inputs": [
        {
          "internalType": "address",
          "name": "user",
          "type": "address"
        },
        {
          "internalType": "uint256",
          "name": "pool",
          "type": "uint256"
        }
      ],
      "name": "activateBid",
      "outputs": [],
      "stateMutability": "nonpayable",
      "type": "function"
    },
    {
      "inputs": [
        {
          "internalType": "address",
          "name": "",
          "type": "address"
        }
      ],
      "name": "balancesDue",
      "outputs": [
        {
          "internalType": "uint256",
          "name": "",
          "type": "uint256"
        }
      ],
      "stateMutability": "view",
      "type": "function"
    },
    {
      "inputs": [
        {
          "internalType": "address",
          "name": "user",
          "type": "address"
        },
        {
          "internalType": "uint256",
          "name": "pool",
          "type": "uint256"
        },
        {
          "internalType": "uint256",
          "name": "amount",
          "type": "uint256"
        }
      ],
      "name": "bid",
      "outputs": [],
      "stateMutability": "nonpayable",
      "type": "function"
    },
    {
      "inputs": [
        {
          "internalType": "uint256",
          "name": "",
          "type": "uint256"
        }
      ],
      "name": "bidPools",
      "outputs": [
        {
          "internalType": "uint256",
          "name": "totalAmount",
          "type": "uint256"
        }
      ],
      "stateMutability": "view",
      "type": "function"
    },
    {
      "inputs": [
        {
          "internalType": "address",
          "name": "user",
          "type": "address"
        },
        {
          "internalType": "uint256",
          "name": "pool",
          "type": "uint256"
        },
        {
          "internalType": "uint256",
          "name": "stableAssetId",
          "type": "uint256"
        },
        {
          "internalType": "uint256",
          "name": "amountIn",
          "type": "uint256"
        },
        {
          "internalType": "bytes",
          "name": "data",
          "type": "bytes"
        }
      ],
      "name": "bidWithStable",
      "outputs": [],
      "stateMutability": "nonpayable",
      "type": "function"
    },
    {
      "inputs": [
        {
          "internalType": "uint256",
          "name": "collateralAmountToLiquidate",
          "type": "uint256"
        },
        {
          "internalType": "bytes",
          "name": "swapData",
          "type": "bytes"
        }
      ],
      "name": "executeBids",
      "outputs": [
        {
          "internalType": "uint256",
          "name": "totalAmountExecuted",
          "type": "uint256"
        },
        {
          "internalType": "uint256",
          "name": "totalCollateralLiquidated",
          "type": "uint256"
        }
      ],
      "stateMutability": "nonpayable",
      "type": "function"
    },
    {
      "inputs": [
        {
          "internalType": "uint256",
          "name": "pool",
          "type": "uint256"
        },
        {
          "internalType": "address",
          "name": "user",
          "type": "address"
        }
      ],
      "name": "getBidPoolUserInfo",
      "outputs": [
        {
          "components": [
            {
              "internalType": "bool",
              "name": "isUsdo",
              "type": "bool"
            },
            {
              "internalType": "bool",
              "name": "swapOnExecute",
              "type": "bool"
            },
            {
              "internalType": "uint256",
              "name": "usdoAmount",
              "type": "uint256"
            },
            {
              "internalType": "uint256",
              "name": "liquidatedAssetAmount",
              "type": "uint256"
            },
            {
              "internalType": "uint256",
              "name": "timestamp",
              "type": "uint256"
            }
          ],
          "internalType": "struct ILiquidationQueue.Bidder",
          "name": "",
          "type": "tuple"
        }
      ],
      "stateMutability": "view",
      "type": "function"
    },
    {
      "inputs": [],
      "name": "getNextAvailBidPool",
      "outputs": [
        {
          "internalType": "uint256",
          "name": "i",
          "type": "uint256"
        },
        {
          "internalType": "bool",
          "name": "available",
          "type": "bool"
        },
        {
          "internalType": "uint256",
          "name": "totalAmount",
          "type": "uint256"
        }
      ],
      "stateMutability": "view",
      "type": "function"
    },
    {
      "inputs": [
        {
          "internalType": "uint256",
          "name": "pool",
          "type": "uint256"
        }
      ],
      "name": "getOrderBookPoolEntries",
      "outputs": [
        {
          "components": [
            {
              "internalType": "address",
              "name": "bidder",
              "type": "address"
            },
            {
              "components": [
                {
                  "internalType": "bool",
                  "name": "isUsdo",
                  "type": "bool"
                },
                {
                  "internalType": "bool",
                  "name": "swapOnExecute",
                  "type": "bool"
                },
                {
                  "internalType": "uint256",
                  "name": "usdoAmount",
                  "type": "uint256"
                },
                {
                  "internalType": "uint256",
                  "name": "liquidatedAssetAmount",
                  "type": "uint256"
                },
                {
                  "internalType": "uint256",
                  "name": "timestamp",
                  "type": "uint256"
                }
              ],
              "internalType": "struct ILiquidationQueue.Bidder",
              "name": "bidInfo",
              "type": "tuple"
            }
          ],
          "internalType": "struct ILiquidationQueue.OrderBookPoolEntry[]",
          "name": "x",
          "type": "tuple[]"
        }
      ],
      "stateMutability": "view",
      "type": "function"
    },
    {
      "inputs": [
        {
          "internalType": "uint256",
          "name": "pool",
          "type": "uint256"
        }
      ],
      "name": "getOrderBookSize",
      "outputs": [
        {
          "internalType": "uint256",
          "name": "size",
          "type": "uint256"
        }
      ],
      "stateMutability": "view",
      "type": "function"
    },
    {
      "inputs": [
        {
          "components": [
            {
              "internalType": "uint256",
              "name": "activationTime",
              "type": "uint256"
            },
            {
              "internalType": "uint256",
              "name": "minBidAmount",
              "type": "uint256"
            },
            {
              "internalType": "address",
              "name": "feeCollector",
              "type": "address"
            },
            {
              "internalType": "contract IBidder",
              "name": "bidExecutionSwapper",
              "type": "address"
            },
            {
              "internalType": "contract IBidder",
              "name": "usdoSwapper",
              "type": "address"
            }
          ],
          "internalType": "struct ILiquidationQueue.LiquidationQueueMeta",
          "name": "_liquidationQueueMeta",
          "type": "tuple"
        },
        {
          "internalType": "address",
          "name": "_singularity",
          "type": "address"
        }
      ],
      "name": "init",
      "outputs": [],
      "stateMutability": "nonpayable",
      "type": "function"
    },
    {
      "inputs": [],
      "name": "liquidatedAssetId",
      "outputs": [
        {
          "internalType": "uint256",
          "name": "",
          "type": "uint256"
        }
      ],
      "stateMutability": "view",
      "type": "function"
    },
    {
      "inputs": [],
      "name": "liquidationQueueMeta",
      "outputs": [
        {
          "internalType": "uint256",
          "name": "activationTime",
          "type": "uint256"
        },
        {
          "internalType": "uint256",
          "name": "minBidAmount",
          "type": "uint256"
        },
        {
          "internalType": "address",
          "name": "feeCollector",
          "type": "address"
        },
        {
          "internalType": "contract IBidder",
          "name": "bidExecutionSwapper",
          "type": "address"
        },
        {
          "internalType": "contract IBidder",
          "name": "usdoSwapper",
          "type": "address"
        }
      ],
      "stateMutability": "view",
      "type": "function"
    },
    {
      "inputs": [],
      "name": "lqAssetId",
      "outputs": [
        {
          "internalType": "uint256",
          "name": "",
          "type": "uint256"
        }
      ],
      "stateMutability": "view",
      "type": "function"
    },
    {
      "inputs": [],
      "name": "market",
      "outputs": [
        {
          "internalType": "string",
          "name": "",
          "type": "string"
        }
      ],
      "stateMutability": "view",
      "type": "function"
    },
    {
      "inputs": [],
      "name": "marketAssetId",
      "outputs": [
        {
          "internalType": "uint256",
          "name": "",
          "type": "uint256"
        }
      ],
      "stateMutability": "view",
      "type": "function"
    },
    {
      "inputs": [],
      "name": "onlyOnce",
      "outputs": [
        {
          "internalType": "bool",
          "name": "",
          "type": "bool"
        }
      ],
      "stateMutability": "view",
      "type": "function"
    },
    {
      "inputs": [
        {
          "internalType": "uint256",
          "name": "",
          "type": "uint256"
        },
        {
          "internalType": "uint256",
          "name": "",
          "type": "uint256"
        }
      ],
      "name": "orderBookEntries",
      "outputs": [
        {
          "internalType": "address",
          "name": "bidder",
          "type": "address"
        },
        {
          "components": [
            {
              "internalType": "bool",
              "name": "isUsdo",
              "type": "bool"
            },
            {
              "internalType": "bool",
              "name": "swapOnExecute",
              "type": "bool"
            },
            {
              "internalType": "uint256",
              "name": "usdoAmount",
              "type": "uint256"
            },
            {
              "internalType": "uint256",
              "name": "liquidatedAssetAmount",
              "type": "uint256"
            },
            {
              "internalType": "uint256",
              "name": "timestamp",
              "type": "uint256"
            }
          ],
          "internalType": "struct ILiquidationQueue.Bidder",
          "name": "bidInfo",
          "type": "tuple"
        }
      ],
      "stateMutability": "view",
      "type": "function"
    },
    {
      "inputs": [
        {
          "internalType": "uint256",
          "name": "",
          "type": "uint256"
        }
      ],
      "name": "orderBookInfos",
      "outputs": [
        {
          "internalType": "uint32",
          "name": "poolId",
          "type": "uint32"
        },
        {
          "internalType": "uint32",
          "name": "nextBidPull",
          "type": "uint32"
        },
        {
          "internalType": "uint32",
          "name": "nextBidPush",
          "type": "uint32"
        }
      ],
      "stateMutability": "view",
      "type": "function"
    },
    {
      "inputs": [],
      "name": "penrose",
      "outputs": [
        {
          "internalType": "contract IPenrose",
          "name": "",
          "type": "address"
        }
      ],
      "stateMutability": "view",
      "type": "function"
    },
    {
      "inputs": [
        {
          "internalType": "address",
          "name": "to",
          "type": "address"
        }
      ],
      "name": "redeem",
      "outputs": [],
      "stateMutability": "nonpayable",
      "type": "function"
    },
    {
      "inputs": [
        {
          "internalType": "address",
          "name": "user",
          "type": "address"
        },
        {
          "internalType": "uint256",
          "name": "pool",
          "type": "uint256"
        }
      ],
      "name": "removeBid",
      "outputs": [
        {
          "internalType": "uint256",
          "name": "amountRemoved",
          "type": "uint256"
        }
      ],
      "stateMutability": "nonpayable",
      "type": "function"
    },
    {
      "inputs": [
        {
          "internalType": "address",
          "name": "_swapper",
          "type": "address"
        }
      ],
      "name": "setBidExecutionSwapper",
      "outputs": [],
      "stateMutability": "nonpayable",
      "type": "function"
    },
    {
      "inputs": [
        {
          "internalType": "address",
          "name": "_swapper",
          "type": "address"
        }
      ],
      "name": "setUsdoSwapper",
      "outputs": [],
      "stateMutability": "nonpayable",
      "type": "function"
    },
    {
      "inputs": [],
      "name": "singularity",
      "outputs": [
        {
          "internalType": "contract ISingularity",
          "name": "",
          "type": "address"
        }
      ],
      "stateMutability": "view",
      "type": "function"
    },
    {
      "inputs": [
        {
          "internalType": "address",
          "name": "user",
          "type": "address"
        },
        {
          "internalType": "uint256",
          "name": "pool",
          "type": "uint256"
        }
      ],
      "name": "userBidIndexLength",
      "outputs": [
        {
          "internalType": "uint256",
          "name": "len",
          "type": "uint256"
        }
      ],
      "stateMutability": "view",
      "type": "function"
    },
    {
      "inputs": [
        {
          "internalType": "address",
          "name": "",
          "type": "address"
        },
        {
          "internalType": "uint256",
          "name": "",
          "type": "uint256"
        },
        {
          "internalType": "uint256",
          "name": "",
          "type": "uint256"
        }
      ],
      "name": "userBidIndexes",
      "outputs": [
        {
          "internalType": "uint256",
          "name": "",
          "type": "uint256"
        }
      ],
      "stateMutability": "view",
      "type": "function"
    },
    {
      "inputs": [],
      "name": "yieldBox",
      "outputs": [
        {
          "internalType": "contract YieldBox",
          "name": "",
          "type": "address"
        }
      ],
      "stateMutability": "view",
      "type": "function"
    }
  ],
  "bytecode": "0x6080806040523461001657613529908161001c8239f35b600080fdfe608080604052600436101561001357600080fd5b600090813560e01c90816307be4daf14612f47575080630ed4f3e914612f295780630f41ba4b14612c535780631259c1a114612c1b578063149c59c514612b8b5780632cfbe6ba14612b3f5780632e020d1f14612b2157806336252c9014612ab05780633965907b14611b8957806345baf8af14611b6b57806346a7d7d914611b44578063575939f914611ad35780635c3a3393146119bf57806365d387c9146115c15780636aef9a67146111c15780636c3d8b8f1461119a5780637c8be05b1461116a5780637d98726b1461112257806380f556051461104857806395a2251f14610e6b578063966b583c14610de6578063a39e6a1714610d91578063a5dca46414610d6a578063bd2f6f8314610baf578063d844f0c0146105e2578063de406577146105bb578063f50f78cd146101815763fa8e84791461015557600080fd5b3461017e57602036600319011261017e5760406020916004358152600c83522054604051908152f35b80fd5b503461017e57366003190160c081126104535760a01361017e5760a4356001600160a01b03908181168091036105365760ff600b541661058457600435835560243560015560443590828216809203610580576001600160601b0360a01b918260025416176002556064358381168091036105365782600354161760035560843590838216809203610536578491836004541617600455816005548285821617600555161792604051936377607a1760e11b85526020938486600481855afa958615610575578496610542575b50600a95865560405163226f120560e11b8152918583600481845afa92831561049657859361050b575b506009839055604051636c3d8b8f60e01b81528681600481855afa80156104e357859187916104ee575b501682600654161760065560405163de40657760e01b81528681600481855afa9182156104e35785889288946104a1575b5060049316948560075495861617600755600855604051928380926338d52e0f60e01b82525afa908115610496578692868681946044948391610469575b50604051978896879563095ea7b360e01b8752161760048501526000196024850152165af1801561045e57610427575b5080600754169060055416813b1561041857829160448392604051948593849263a22cb46560e01b84526004840152600160248401525af1801561041c57610404575b505b8281111561039f5783600160ff19600b541617600b5580f35b6103ff906103ab6133f0565b63ffffffff908183168152828752600e855260408720918151169082549163ffffffff60401b604067ffffffff00000000898501518a1b1693015160401b16926001600160601b0319161717179055613139565b610386565b61040d9061301e565b610418578238610384565b8280fd5b6040513d84823e3d90fd5b8381813d8311610457575b61043c8183613086565b810103126104185751801515036104535738610341565b5080fd5b503d610432565b6040513d85823e3d90fd5b6104899150873d891161048f575b6104818183613086565b81019061311a565b38610311565b503d610477565b6040513d87823e3d90fd5b92809294508391503d83116104dc575b6104bb8183613086565b810103126104d8575184811681036104d8579086908560046102d3565b8580fd5b503d6104b1565b6040513d88823e3d90fd5b6105059150883d8a1161048f576104818183613086565b386102a2565b945091508484813d811161053b575b6105248183613086565b81010312610536578693519138610278565b600080fd5b503d61051a565b85809297508195503d831161056e575b61055c8183613086565b8101031261053657859251943861024e565b503d610552565b6040513d86823e3d90fd5b8380fd5b60405162461bcd60e51b815260206004820152600f60248201526e13144e88125b9a5d1a585b1a5e9959608a1b6044820152606490fd5b503461017e578060031936011261017e5760206001600160a01b0360075416604051908152f35b503461017e5760a036600319011261017e576105fc612f68565b60843567ffffffffffffffff81116104185761061c903690600401612fa8565b61062a60ff600b5416613267565b610639600a60243511156132a9565b6001600160a01b0360045416908115610b6a578460049260206001600160a01b0360065416604051958680926386c8e21d60e01b82525afa93841561041c578294610b33575b506001600160a01b036007541690604051638eb22cdd60e01b815260443560048201526064356024820152836044820152602081606481865afa908115610575578491610afe575b50823b1561058057604051630208d92960e11b81523360048201526001600160a01b03929092166024830152604480359083015260648201529082908290608490829084905af1801561041c57610ae6575b5050610761916020826001600160a01b036004541686896001600160a01b036005541660405198899586948593632da475e360e21b85526064359060443590600487016132f5565b03925af19283156104e3578693610ab2575b5061077c6131bf565b948360408701526000606087015242608087015260018652600460085460206001600160a01b0360065416604051938480926386c8e21d60e01b82525afa918215610aa657600092610a72575b5014156020870152602435600052600c6020526001600160a01b03600160406000200191169081600052602052604060002061081487511515829060ff801983541691151516179055565b6020870151151561ff0082549160081b169061ff0019161781556040870151600182015560608701516002820155600360808801519101556040518481526000602082015242604082015281602435917fbaa682830cade78a3affa9fa3c417095d0edb57605b0ac6fb487ce2068204ce960603392a4600052600f602052604060002060243560005260205260406000208054600e602052604060002063ffffffff604051916108c383613032565b548181168352818160201c16602084015260401c16604082015260005b82811061099d575050505060208501511561098c5760209394506001600160a01b0360035416916109346001600160a01b03600554169160405197889687958695632eec159b60e11b8752600487016132f5565b03915afa801561041c578290610958575b61095591505b6001541115613339565b80f35b506020813d602011610984575b8161097260209383613086565b81010312610536576109559051610945565b3d9150610965565b50505050604061095591015161094b565b6109a781856130ec565b90549060031b1c63ffffffff60208401511611156109c8575b6001016108e0565b835492506000198301838111610a5c576109e5610a0f91866130ec565b90549060031b1c6109f683876130ec565b90919082549060031b91821b91600019901b1916179055565b8354908115610a465760019160001901610a3d610a2c82886130ec565b8154906000199060031b1b19169055565b855590506109c0565b634e487b7160e01b600052603160045260246000fd5b634e487b7160e01b600052601160045260246000fd5b90916020823d602011610a9e575b81610a8d60209383613086565b8101031261017e57505190386107c9565b3d9150610a80565b6040513d6000823e3d90fd5b9092506020813d602011610ade575b81610ace60209383613086565b8101031261053657519138610773565b3d9150610ac1565b610aef9061301e565b610afa578438610719565b8480fd5b9350506020833d602011610b2b575b81610b1a60209383613086565b8101031261053657879251386106c7565b3d9150610b0d565b915092506020813d602011610b62575b81610b5060209383613086565b8101031261053657859051923861067f565b3d9150610b43565b60405162461bcd60e51b815260206004820152601860248201527f4c513a205553444f2073776170706572206e6f742073657400000000000000006044820152606490fd5b503461017e576020908160031936011261017e5760043591828252600e8152604082209160405192610be084613032565b549063ffffffff9182811685528281851c1660408486880193838552821c1696019580875203838111610d5657831695610c19876131a7565b96610c276040519889613086565b808852610c36601f19916131a7565b0185845b828110610d40575050508252600d845282604083209151169282935b81875116811015610cb85780610c959185528387526040852090604051610c7c8161304e565b6001600160a01b038354168152600193848094016130a8565b89820152610ca3888c61320b565b52610cae878b61320b565b5001940193610c56565b6040805187815289518189018190528a89019282019089885b828110610cde5784840385f35b9091928260c0600192610d31838a516001600160a01b0381511684520151848301906080809180511515845260208101511515602085015260408101516040850152606081015160608501520151910152565b01960191019492919094610cd1565b610d486131ea565b82828c010152018690610c3a565b634e487b7160e01b83526011600452602483fd5b503461017e578060031936011261017e5760206001600160a01b0360055416604051908152f35b503461017e576001600160a01b0390610da936612f7e565b939091168252600f602052604082209082526020526040812090815483101561017e576020610dd884846130ec565b90546040519160031b1c8152f35b503461017e57604036600319011261017e57604060c0916004358152600d602052818120602435825260205220610e69610e2d60016001600160a01b0384541693016130a8565b60405192835260208301906080809180511515845260208101511515602085015260408101516040850152606081015160608501520151910152565bf35b503461017e5760208060031936011261045357610e86612f68565b3383526010825260408320541561100e57338352601082526040832054906032820282810460321483151715610ffa57612710610ec5910480936133e3565b91338552601084528460408120556001600160a01b039081600254168652610ef2604087209182546133c3565b905584600a54826007541690604051638eb22cdd60e01b81528160048201528660248201528360448201528781606481865afa908115610575578491610fc9575b50823b1561058057604051630208d92960e11b81523060048201526001600160a01b0387166024820152604481019290925260648201529082908290608490829084905af1801561041c57610fb5575b50507fd12200efa34901b99367694174c3b0d32c99585fdf37c7c26892136ddd0836d99160405193845216923392a380f35b610fbe9061301e565b610afa578438610f83565b809450888092503d8311610ff3575b610fe28183613086565b810103126105365787925138610f33565b503d610fd8565b634e487b7160e01b85526011600452602485fd5b60405162461bcd60e51b81526004810183905260126024820152714c513a204e6f2062616c616e63652064756560701b6044820152606490fd5b503461017e578060031936011261017e576004816001600160a01b0360055416604051928380926306fdde0360e01b82525afa90811561041c5782916110a3575b6040516020808252819061109f90820185612ff9565b0390f35b90503d8083833e6110b48183613086565b8101906020818303126104185780519067ffffffffffffffff8211610580570181601f82011215610418578051926110eb84613148565b926110f96040519485613086565b8484526020858401011161017e575061109f9261111c9160208085019101612fd6565b38611089565b503461017e57602036600319011261017e5760406060916004358152600e60205220546040519063ffffffff908181168352818160201c16602084015260401c166040820152f35b503461017e578060031936011261017e57606061118561321f565b90604051928352151560208301526040820152f35b503461017e578060031936011261017e5760206001600160a01b0360065416604051908152f35b503461017e57604036600319011261017e576111db612f68565b602435808352602092600c845260019081604082200133600052855260ff60406000205416908160001461159f57838152600c86528260408220013360005286528260406000200154945b611231861515613377565b848252600c8752836040832001336000528752611264604060002060036000918281558260018201558260028201550155565b8593858352600c885280604084200133600052885260ff60406000205460081c1661149d575b54841061145857821561144f576004876001600160a01b0360065416604051928380926386c8e21d60e01b82525afa90811561045e578391611422575b50915b6001600160a01b0392836007541660405191638eb22cdd60e01b83528060048401528960248401528360448401528a83606481855afa9283156105755784936113f3575b50813b1561058057604051630208d92960e11b81523060048201526001600160a01b03861660248201526044810191909152606481019290925282908290608490829084905af1801561041c576113df575b507f2f413fefb30b9c037ba435fc106ac59646343aafb657db7057b5b4ba42d5643792919084156113d85787945b156113cd576113c290945b604051938493169633964292859094939260609260808301968352602083015260408201520152565b0390a4604051908152f35b506113c28794611399565b809461138e565b6113e9829161301e565b61017e5738611360565b9092508a81813d831161141b575b61140b8183613086565b810103126105365751913861130e565b503d611401565b90508781813d8311611448575b6114398183613086565b810103126105365751386112c7565b503d61142f565b600854916112ca565b60405162461bcd60e51b815260048101889052601660248201527f4c513a2062696420646f6573206e6f74206578697374000000000000000000006044820152606490fd5b93506001600160a01b03806003541660048983600554169360065416604051928380926386c8e21d60e01b82525afa908115610496579189918b938791611567575b50604051632eec159b60e11b81526001600160a01b0390951660048601526024850152604484019190915260806064840152600060848401528290818060a481015b03915afa90811561045e57839161153a575b509361128a565b90508781813d8311611560575b6115518183613086565b81010312610536575138611533565b503d611547565b925050929181813d8311611598575b6115808183613086565b8101031261053657611521928a928a925190946114df565b503d611576565b838152600c865282604082200133600052865260026040600020015494611226565b503461017e57604036600319011261017e576115db612f68565b602435908183526020600c815260016040852001916001600160a01b038091169283600052825261160f60406000206130a8565b61162b6080820161162281511515613377565b518754906133c3565b421061198b57848652600e8352604086206040519061164982613032565b5463ffffffff908181168352858301918082881c16835280604085019260401c1682526116746131ea565b888152878101958652898b52600d885260408b20828451168c5288528660408c209151166001600160601b0360a01b82541617815560046080600183018851906116cd82511515829060ff801983541691151516179055565b8b820151151561ff0082549160081b169061ff00191617905560408101516002850155606081015160038501550151910155888a52600c8752600160408b2001886000528752611733604060002060036000918281558260018201558260028201550155565b878a52600f875260408a20898b52875260408a2081835116908054906801000000000000000082101561197757816109f691600161177495940181556130ec565b8060018184511601168252888a52600e875260408a2093511663ffffffff60401b67ffffffff0000000085549451891b16925160401b16926001600160601b031916171717905580518051151560001461196b57836040820151915b01511561193f575060048260035416928481600554169160065416604051938480926386c8e21d60e01b82525afa80156119345785928991611901575b5083516040908101519051632eec159b60e11b81526001600160a01b039093166004840152602483019190915260448201526080606482015260006084820152928390818060a481015b03915afa9182156104e35786926118d1575b50600c7fd3537325843bd046c81dbdae840896c9ad0a4e5ea737ac537f65167df96921c292935b86885252604086206118a38482546133c3565b905551604080820151606092830151825191825260208201529081019390935242908301523391608090a480f35b91508282813d83116118fa575b6118e88183613086565b8101031261053657905190600c611869565b503d6118de565b83819492503d831161192d575b6119188183613086565b8101031261053657905184919061185761180d565b503d61190e565b6040513d8a823e3d90fd5b7fd3537325843bd046c81dbdae840896c9ad0a4e5ea737ac537f65167df96921c29250600c9093611890565b836060820151916117d0565b634e487b7160e01b8d52604160045260248dfd5b60405162461bcd60e51b815260048101849052600c60248201526b26289d103a37b79039b7b7b760a11b6044820152606490fd5b503461017e57604036600319011261017e576119d9612f68565b60246001600160a01b03813592168352602092600f84526040812083825284526040812092604051808587829754938481520190855287852092855b89828210611abd57505050611a2c92500385613086565b8351908252600e8552604082209160405192611a4784613032565b5463ffffffff9384821681526040858983019381818c1c168552821c16910152815b838110611a7b57878751604051908152f35b611a85818861320b565b51858351161115611a99575b600101611a69565b928015611aaa576000190192611a91565b634e487b7160e01b835260116004528583fd5b855484526001958601958a955093019201611a15565b503461017e57602036600319011261017e57611aed612f68565b6001600160a01b0390611b058260055416331461345c565b816003549116809282167fe0ae31f6fff797b33b039284b11690980155ca2c61a831617b6943199e6fce8b8580a36001600160a01b0319161760035580f35b503461017e57602036600319011261017e576020611b63600435613164565b604051908152f35b503461017e578060031936011261017e576020600854604051908152f35b503461017e57604036600319011261017e5767ffffffffffffffff9060243582811161045357611bbd903690600401612fa8565b600492919235928283906001600160a01b0360055416803303612a6b5760405197610140890190811189821017612a5557600491602091604052878a5287828b0152611c076133f0565b60408b0152611c146131ea565b60608b0152611c216131ea565b60808b01528760a08b01528760c08b01528760e08b0152876101008b0152876101208b0152611c4e61321f565b5015158b8401528a52604051633ba0b9a960e01b815292839182905afa9081156104e3578691612a23575b506101008801525b85151580612a16575b156129055786518552600e6020526040852063ffffffff60405191611cae83613032565b548181168352818160201c16602084015260401c16604082015260408801528460a08801528460c08801525b851515806128e6575b156127f35786518552600d6020526040852063ffffffff602060408a0151015116865260205260408520611d32600160405192611d1f8461304e565b6001600160a01b038154168452016130a8565b90602081019182528060608a0152608089015251610100880151885190825115156000146127e95760408301515b6020840151156127d157506001600160a01b03600354169260046001600160a01b03600554169160206001600160a01b0360065416604051938480926386c8e21d60e01b82525afa91821561220f578b92612795575b506040908101519051632eec159b60e11b81526001600160a01b039093166004840152602483019190915260448201526080606482015260006084820152926020908490818060a481015b03915afa92831561193457889361275f575b50611e2a670de0b6b3a764000091611e30946133d0565b046134c6565b806101208901528681116000146122e757506020608088015101519561010088015196885197611e6136888861340f565b8899670de0b6b3a7640000850290858204670de0b6b3a76400001486151715610a5c5783156122d157611e96908483046133d0565b9081606481020460641482151715610a5c576004936127106064611ebd94020491046133e3565b9260206001600160a01b0360065416604051948580926386c8e21d60e01b82525afa928315612291578a9361229c575b506020015161201f575b505090611f5b611f6a926001600160a01b0360808c015151168952601060205260408920611f268482546133c3565b905560608b015160200151805161200a575060606020818d0151015101611f4e8282516133e3565b90525b60a08b01516133c3565b60a08a015260c08901516133c3565b60c0880152611f7e859660e08901516133c3565b60e088015260206060880151015187518652600d6020526040862063ffffffff602060408b0151015116875260205260046080604088209260018401611fd382511515829060ff801983541691151516179055565b6020820151815461ff00191690151560081b61ff001617905560408101516002850155606081015160038501550151910155611cda565b6040016120188b82516133e3565b9052611f51565b600354600554604051637f7ba27d60e11b81526001600160a01b0391821660048201526024810185905260448101869052608060648201526000608482015291169a50929392909160208260a4818e5afa918215612291578a9261225d575b50819a6001600160a01b036007541660405191638eb22cdd60e01b83528360048401528460248401528c6044840152602083606481855afa928315612252578d9361221e575b50813b1561221a57604051630208d92960e11b81523060048201526001600160a01b039190911660248201526044810184905260648101929092528b908290608490829084905af1801561220f57908b916121f7575b5050906020916001600160a01b0360035416908b6001600160a01b036005541661215a60405197889687958694632da475e360e21b865260048601613497565b03925af19081156119345790839189916121c2575b501061217d57903880611ef7565b60405162461bcd60e51b815260206004820152601460248201527f6e6565642d6d6f72652d636f6c6c61746572616c0000000000000000000000006044820152606490fd5b9150506020813d6020116121ef575b816121de60209383613086565b81010312610536578290513861216f565b3d91506121d1565b6122009061301e565b61220b57893861211a565b8980fd5b6040513d8d823e3d90fd5b8c80fd5b9092506020813d60201161224a575b8161223a60209383613086565b81010312610536575191386120c4565b3d915061222d565b6040513d8f823e3d90fd5b9091506020813d602011612289575b8161227960209383613086565b810103126105365751903861207e565b3d915061226c565b6040513d8c823e3d90fd5b9092506020813d6020116122c9575b816122b860209383613086565b810103126105365751916020611eed565b3d91506122ab565b634e487b7160e01b600052601260045260246000fd5b90956020608089015101519061010089015191878a8051612309368b8b61340f565b606085015197966040860151956020810151612443575b50505050612386926123a396926060602081856001600160a01b03608061237798015151168552601083526040852061235a8c82546133c3565b9055018051820151604001849052510151015260e08d01516133c3565b60e08c015260a08b01516133c3565b60a08a01526123998260c08b01516133c3565b60c08a01526133e3565b9460206060880151015187518652600d6020526040862063ffffffff602060408b01510151168752602052600460806040882092600184016123f482511515829060ff801983541691151516179055565b6020820151151561ff0082549160081b169061ff00191617905560408101516002850155606081015160038501550151910155602060408801510163ffffffff60018183511601169052611cda565b9350935094955095506001600160a01b03600754166001600160a01b0360035416906001600160a01b036006541691604051906386c8e21d60e01b8252602082600481875afa9182156126e7578e92612728575b506020600494604051958680926386c8e21d60e01b82525afa9384156126e7578e946126f4575b50604085015160405194638eb22cdd60e01b8652600486015260248501528d6044850152602084606481865afa9384156126e7578e946126b3575b50823b156126af57604051630208d92960e11b81523060048201526001600160a01b03919091166024820152604481019190915260648101929092528b908290608490829084905af1801561220f57908b9161269b575b50506001600160a01b03600354166001600160a01b036005541690600460206001600160a01b0360065416604051928380926386c8e21d60e01b82525afa908115612252578d908192612664575b5060406020950151936125c7604051998a9687958694632da475e360e21b865260048601613497565b03925af1928315612659578b949392918a91829461261a575b509161237791606060208161260a6123a39b670de0b6b3a7640000611e2a8b9a6123869c9b6133d0565b9995505082959950839650612320565b9350919450506020823d602011612651575b8161263960209383613086565b810103126105365790518a93909189906123776125e0565b3d915061262c565b6040513d8b823e3d90fd5b949150506020843d602011612693575b8161268160209383613086565b810103126105365792518c604061259e565b3d9150612674565b6126a49061301e565b61220b578938612550565b8d80fd5b9093506020813d6020116126df575b816126cf60209383613086565b81010312610536575192386124f9565b3d91506126c2565b8e604051903d90823e3d90fd5b9093506020813d602011612720575b8161271060209383613086565b81010312610536575192386124be565b3d9150612703565b9391506020843d602011612757575b8161274460209383613086565b8101031261053657925190926020612497565b3d9150612737565b92506020833d60201161278d575b8161277a60209383613086565b8101031261053657915191611e2a611e13565b3d915061276d565b929150946020833d6020116127c9575b816127b260209383613086565b810103126105365791519194909190611e01611db6565b3d91506127a5565b611e309350670de0b6b3a764000091611e2a916133d0565b6060830151611d60565b6128056128119160a0890151906133c3565b9160c0880151906133c3565b90604087015187518652600e602052604086209063ffffffff8151169082549163ffffffff60401b604067ffffffff00000000602085015160201b1693015160401b16926001600160601b031916171717905561286c61321f565b50151560208901528088528552600c6020526040852061288d8282546133e3565b9055865160e088015160a089015160c08a01516040805193845260208401929092529082015242606082015233907fcf16521da024444891495eb0ed8e5e97ab0b013ee419d71046494d94e02390a290608090a3611c81565b50604087015163ffffffff604081602084015116920151161415611ce3565b600754600854604080516311a5cc7760e31b81526004810192909252306024830181905260448301526064820184905260006084830152879492829060a490829088906001600160a01b03165af18015610575576129f8575b5060075460095460055460408051634d4d7cbd60e11b815260048101939093523060248401526001600160a01b03918216604484015260648301869052600060848401529192839160a49183918991165af1801561057557604094506129cc575b5082519182526020820152f35b6129eb90843d86116129f1575b6129e38183613086565b810190613446565b506129bf565b503d6129d9565b612a109060403d6040116129f1576129e38183613086565b5061295e565b5060208701511515611c8a565b90506020813d602011612a4d575b81612a3e60209383613086565b81010312610536575138611c79565b3d9150612a31565b634e487b7160e01b600052604160045260246000fd5b60405162461bcd60e51b815260206004820152601460248201527f4c513a204f6e6c792053696e67756c61726974790000000000000000000000006044820152606490fd5b503461017e57602036600319011261017e57612aca612f68565b6001600160a01b0390612ae28260055416331461345c565b816004549116809282167f4df4d1118ddbedb1b0f3889ec88ab4d3108097b9b3dd236c2cc5c8e2e9f726958580a36001600160a01b0319161760045580f35b503461017e578060031936011261017e576020600954604051908152f35b503461017e578060031936011261017e5760a090546001546001600160a01b03806002541681600354169160045416926040519485526020850152604084015260608301526080820152f35b503461017e57604036600319011261017e57602435906001600160a01b038216809203610536576040600191612bbf6131bf565b506004358152600c60205220019060005260205260a0612be260406000206130a8565b610e6960405180926080809180511515845260208101511515602085015260408101516040850152606081015160608501520151910152565b503461017e57602036600319011261017e5760406020916001600160a01b03612c42612f68565b168152601083522054604051908152f35b503461017e57612c6236612f7e565b9190612c7260ff600b5416613267565b612c7f600a8211156132a9565b600192612c8f8454821015613339565b600854916001600160a01b0380600754169460405194638eb22cdd60e01b86528060048701528860249686888201528160448201526020988982606481845afa91821561045e578392612efa575b50803b1561041857604051630208d92960e11b8152336004820152306024820152604481019490945260648401919091528290608490829084905af1801561265957612ee7575b508290612d2f6131bf565b946040860160008152606087018281526080880191428352600089528a8901966000885286600052600c8c528c6040600020019516968795866000528c52612d8b60406000209a5115158b9060ff801983541691151516179055565b51151561ff008a549160081b169061ff001916178955518b890155516002880155516003809701556040519060008252888201524260408201527fbaa682830cade78a3affa9fa3c417095d0edb57605b0ac6fb487ce2068204ce960603392a4600052600f84526040600020906000528352604060002091825493600e8152604060002060405190612e1c82613032565b5490604063ffffffff838180951684528181878601971c168652821c1691015260005b868110612e4a578880f35b80612e568992886130ec565b905490871b1c838551161115612e6d575b01612e3f565b865497509050600019808801888111612ed257612e8d612e9d91896130ec565b905490881b1c6109f6848a6130ec565b86548015612ebd5789929101612eb6610a2c828a6130ec565b8755612e67565b85634e487b7160e01b60005260316004526000fd5b85634e487b7160e01b60005260116004526000fd5b97612ef384929961301e565b9790612d24565b9091508981813d8311612f22575b612f128183613086565b8101031261041857519038612cdd565b503d612f08565b503461017e578060031936011261017e576020600a54604051908152f35b90503461045357816003193601126104535760209060ff600b541615158152f35b600435906001600160a01b038216820361053657565b6060906003190112610536576004356001600160a01b038116810361053657906024359060443590565b9181601f840112156105365782359167ffffffffffffffff8311610536576020838186019501011161053657565b60005b838110612fe95750506000910152565b8181015183820152602001612fd9565b9060209161301281518092818552858086019101612fd6565b601f01601f1916010190565b67ffffffffffffffff8111612a5557604052565b6060810190811067ffffffffffffffff821117612a5557604052565b6040810190811067ffffffffffffffff821117612a5557604052565b60a0810190811067ffffffffffffffff821117612a5557604052565b90601f8019910116810190811067ffffffffffffffff821117612a5557604052565b906040516130b58161306a565b60806003829460ff81548181161515865260081c161515602085015260018101546040850152600281015460608501520154910152565b80548210156131045760005260206000200190600090565b634e487b7160e01b600052603260045260246000fd5b9081602091031261053657516001600160a01b03811681036105365790565b6000198114610a5c5760010190565b67ffffffffffffffff8111612a5557601f01601f191660200190565b600052600e60205260406000206040519061317e82613032565b54604063ffffffff92838316815283808460201c1693846020840152831c169182910152031690565b67ffffffffffffffff8111612a555760051b60200190565b604051906131cc8261306a565b60006080838281528260208201528260408201528260608201520152565b604051906131f78261304e565b816000815260206132066131bf565b910152565b80518210156131045760209160051b010190565b60009060008091815b600a8511156132345750565b9361323e81613164565b6132515761324b90613139565b93613228565b808552600c602052604090942054600193509150565b1561326e57565b60405162461bcd60e51b815260206004820152601360248201527213144e88139bdd081a5b9a5d1a585b1a5e9959606a1b6044820152606490fd5b156132b057565b60405162461bcd60e51b815260206004820152601460248201527f4c513a207072656d69756d20746f6f20686967680000000000000000000000006044820152606490fd5b9390928593926001600160a01b0360a097941686526020860152604085015260806060850152816080850152848401376000828201840152601f01601f1916010190565b1561334057565b60405162461bcd60e51b815260206004820152600f60248201526e4c513a2062696420746f6f206c6f7760881b6044820152606490fd5b1561337e57565b60405162461bcd60e51b815260206004820152601560248201527f4c513a20626964206e6f7420617661696c61626c6500000000000000000000006044820152606490fd5b91908201809211610a5c57565b81810292918115918404141715610a5c57565b91908203918211610a5c57565b604051906133fd82613032565b60006040838281528260208201520152565b92919261341b82613148565b916134296040519384613086565b829481845281830111610536578281602093846000960137010152565b9190826040910312610536576020825192015190565b1561346357565b60405162461bcd60e51b815260206004820152600c60248201526b1d5b985d5d1a1bdc9a5e995960a21b6044820152606490fd5b90926080926001600160a01b036134c39695168352602083015260408201528160608201520190612ff9565b90565b906134d190826133d0565b90606482029180830460641490151715610a5c576127106134c39204906133c356fea2646970667358221220e318047fb72b43be49bc3fd2ad67f985a2cec118cdae0cba2b11c5b0a3764a0864736f6c63430008120033",
  "linkReferences": {},
  "deployedLinkReferences": {}
}