{
  "_format": "hh-sol-artifact-1",
  "contractName": "MagnetarV2",
  "sourceName": "contracts/Magnetar/MagnetarV2.sol",
  "abi": [
    {
      "inputs": [
        {
          "internalType": "address",
          "name": "_owner",
          "type": "address"
        }
      ],
      "stateMutability": "nonpayable",
      "type": "constructor"
    },
    {
      "anonymous": false,
      "inputs": [
        {
          "indexed": false,
          "internalType": "address",
          "name": "owner",
          "type": "address"
        },
        {
          "indexed": false,
          "internalType": "address",
          "name": "operator",
          "type": "address"
        },
        {
          "indexed": false,
          "internalType": "bool",
          "name": "approved",
          "type": "bool"
        }
      ],
      "name": "ApprovalForAll",
      "type": "event"
    },
    {
      "anonymous": false,
      "inputs": [
        {
          "indexed": true,
          "internalType": "address",
          "name": "previousOwner",
          "type": "address"
        },
        {
          "indexed": true,
          "internalType": "address",
          "name": "newOwner",
          "type": "address"
        }
      ],
      "name": "OwnershipTransferred",
      "type": "event"
    },
    {
      "inputs": [
        {
          "internalType": "address",
          "name": "who",
          "type": "address"
        },
        {
          "internalType": "contract IBigBang[]",
          "name": "markets",
          "type": "address[]"
        }
      ],
      "name": "bigBangMarketInfo",
      "outputs": [
        {
          "components": [
            {
              "components": [
                {
                  "internalType": "address",
                  "name": "collateral",
                  "type": "address"
                },
                {
                  "internalType": "uint256",
                  "name": "collateralId",
                  "type": "uint256"
                },
                {
                  "internalType": "address",
                  "name": "asset",
                  "type": "address"
                },
                {
                  "internalType": "uint256",
                  "name": "assetId",
                  "type": "uint256"
                },
                {
                  "internalType": "contract IOracle",
                  "name": "oracle",
                  "type": "address"
                },
                {
                  "internalType": "bytes",
                  "name": "oracleData",
                  "type": "bytes"
                },
                {
                  "internalType": "uint256",
                  "name": "totalCollateralShare",
                  "type": "uint256"
                },
                {
                  "internalType": "uint256",
                  "name": "userCollateralShare",
                  "type": "uint256"
                },
                {
                  "components": [
                    {
                      "internalType": "uint128",
                      "name": "elastic",
                      "type": "uint128"
                    },
                    {
                      "internalType": "uint128",
                      "name": "base",
                      "type": "uint128"
                    }
                  ],
                  "internalType": "struct Rebase",
                  "name": "totalBorrow",
                  "type": "tuple"
                },
                {
                  "internalType": "uint256",
                  "name": "userBorrowPart",
                  "type": "uint256"
                },
                {
                  "internalType": "uint256",
                  "name": "currentExchangeRate",
                  "type": "uint256"
                },
                {
                  "internalType": "uint256",
                  "name": "spotExchangeRate",
                  "type": "uint256"
                },
                {
                  "internalType": "uint256",
                  "name": "oracleExchangeRate",
                  "type": "uint256"
                },
                {
                  "internalType": "uint256",
                  "name": "totalBorrowCap",
                  "type": "uint256"
                }
              ],
              "internalType": "struct MagnetarV2Operations.MarketInfo",
              "name": "market",
              "type": "tuple"
            },
            {
              "components": [
                {
                  "internalType": "uint64",
                  "name": "debtRate",
                  "type": "uint64"
                },
                {
                  "internalType": "uint64",
                  "name": "lastAccrued",
                  "type": "uint64"
                }
              ],
              "internalType": "struct IBigBang.AccrueInfo",
              "name": "accrueInfo",
              "type": "tuple"
            }
          ],
          "internalType": "struct MagnetarV2Operations.BigBangInfo[]",
          "name": "",
          "type": "tuple[]"
        }
      ],
      "stateMutability": "view",
      "type": "function"
    },
    {
      "inputs": [
        {
          "components": [
            {
              "internalType": "uint16",
              "name": "id",
              "type": "uint16"
            },
            {
              "internalType": "address",
              "name": "target",
              "type": "address"
            },
            {
              "internalType": "uint256",
              "name": "value",
              "type": "uint256"
            },
            {
              "internalType": "bool",
              "name": "allowFailure",
              "type": "bool"
            },
            {
              "internalType": "bytes",
              "name": "call",
              "type": "bytes"
            }
          ],
          "internalType": "struct MagnetarV2ActionsData.Call[]",
          "name": "calls",
          "type": "tuple[]"
        }
      ],
      "name": "burst",
      "outputs": [
        {
          "components": [
            {
              "internalType": "bool",
              "name": "success",
              "type": "bool"
            },
            {
              "internalType": "bytes",
              "name": "returnData",
              "type": "bytes"
            }
          ],
          "internalType": "struct MagnetarV2ActionsData.Result[]",
          "name": "returnData",
          "type": "tuple[]"
        }
      ],
      "stateMutability": "payable",
      "type": "function"
    },
    {
      "inputs": [
        {
          "internalType": "contract IMarket",
          "name": "market",
          "type": "address"
        },
        {
          "internalType": "address",
          "name": "user",
          "type": "address"
        },
        {
          "internalType": "uint256",
          "name": "collateralAmount",
          "type": "uint256"
        },
        {
          "internalType": "uint256",
          "name": "borrowAmount",
          "type": "uint256"
        },
        {
          "internalType": "bool",
          "name": "extractFromSender",
          "type": "bool"
        },
        {
          "internalType": "bool",
          "name": "deposit",
          "type": "bool"
        },
        {
          "internalType": "bool",
          "name": "withdraw",
          "type": "bool"
        },
        {
          "internalType": "bytes",
          "name": "withdrawData",
          "type": "bytes"
        }
      ],
      "name": "depositAddCollateralAndBorrow",
      "outputs": [],
      "stateMutability": "payable",
      "type": "function"
    },
    {
      "inputs": [
        {
          "internalType": "contract IMarket",
          "name": "singularity",
          "type": "address"
        },
        {
          "internalType": "address",
          "name": "_user",
          "type": "address"
        },
        {
          "internalType": "uint256",
          "name": "_amount",
          "type": "uint256"
        },
        {
          "internalType": "bool",
          "name": "deposit_",
          "type": "bool"
        },
        {
          "internalType": "bool",
          "name": "extractFromSender",
          "type": "bool"
        }
      ],
      "name": "depositAndAddAsset",
      "outputs": [],
      "stateMutability": "payable",
      "type": "function"
    },
    {
      "inputs": [
        {
          "internalType": "contract IMarket",
          "name": "market",
          "type": "address"
        },
        {
          "internalType": "address",
          "name": "user",
          "type": "address"
        },
        {
          "internalType": "uint256",
          "name": "depositAmount",
          "type": "uint256"
        },
        {
          "internalType": "uint256",
          "name": "repayAmount",
          "type": "uint256"
        },
        {
          "internalType": "bool",
          "name": "deposit",
          "type": "bool"
        },
        {
          "internalType": "bool",
          "name": "extractFromSender",
          "type": "bool"
        }
      ],
      "name": "depositAndRepay",
      "outputs": [],
      "stateMutability": "payable",
      "type": "function"
    },
    {
      "inputs": [
        {
          "internalType": "contract IMarket",
          "name": "market",
          "type": "address"
        },
        {
          "internalType": "address",
          "name": "user",
          "type": "address"
        },
        {
          "internalType": "uint256",
          "name": "depositAmount",
          "type": "uint256"
        },
        {
          "internalType": "uint256",
          "name": "repayAmount",
          "type": "uint256"
        },
        {
          "internalType": "uint256",
          "name": "collateralAmount",
          "type": "uint256"
        },
        {
          "internalType": "bool",
          "name": "deposit",
          "type": "bool"
        },
        {
          "internalType": "bool",
          "name": "withdraw",
          "type": "bool"
        },
        {
          "internalType": "bool",
          "name": "extractFromSender",
          "type": "bool"
        }
      ],
      "name": "depositRepayAndRemoveCollateral",
      "outputs": [],
      "stateMutability": "payable",
      "type": "function"
    },
    {
      "inputs": [
        {
          "internalType": "contract ISingularity",
          "name": "singularity",
          "type": "address"
        },
        {
          "internalType": "uint256",
          "name": "fraction",
          "type": "uint256"
        }
      ],
      "name": "getAmountForAssetFraction",
      "outputs": [
        {
          "internalType": "uint256",
          "name": "amount",
          "type": "uint256"
        }
      ],
      "stateMutability": "view",
      "type": "function"
    },
    {
      "inputs": [
        {
          "internalType": "contract IMarket",
          "name": "market",
          "type": "address"
        },
        {
          "internalType": "uint256",
          "name": "borrowPart",
          "type": "uint256"
        }
      ],
      "name": "getAmountForBorrowPart",
      "outputs": [
        {
          "internalType": "uint256",
          "name": "amount",
          "type": "uint256"
        }
      ],
      "stateMutability": "view",
      "type": "function"
    },
    {
      "inputs": [
        {
          "internalType": "contract IMarket",
          "name": "market",
          "type": "address"
        },
        {
          "internalType": "uint256",
          "name": "borrowPart",
          "type": "uint256"
        },
        {
          "internalType": "uint256",
          "name": "liquidationMultiplierPrecision",
          "type": "uint256"
        },
        {
          "internalType": "uint256",
          "name": "exchangeRatePrecision",
          "type": "uint256"
        }
      ],
      "name": "getCollateralSharesForBorrowPart",
      "outputs": [
        {
          "internalType": "uint256",
          "name": "collateralShares",
          "type": "uint256"
        }
      ],
      "stateMutability": "view",
      "type": "function"
    },
    {
      "inputs": [
        {
          "internalType": "address",
          "name": "",
          "type": "address"
        },
        {
          "internalType": "address",
          "name": "",
          "type": "address"
        }
      ],
      "name": "isApprovedForAll",
      "outputs": [
        {
          "internalType": "bool",
          "name": "",
          "type": "bool"
        }
      ],
      "stateMutability": "view",
      "type": "function"
    },
    {
      "inputs": [
        {
          "internalType": "contract ISingularity",
          "name": "singularity",
          "type": "address"
        },
        {
          "internalType": "contract IMarket",
          "name": "bingBang",
          "type": "address"
        },
        {
          "internalType": "address",
          "name": "user",
          "type": "address"
        },
        {
          "internalType": "uint256",
          "name": "collateralAmount",
          "type": "uint256"
        },
        {
          "internalType": "uint256",
          "name": "borrowAmount",
          "type": "uint256"
        },
        {
          "internalType": "bool",
          "name": "deposit",
          "type": "bool"
        },
        {
          "internalType": "bool",
          "name": "extractFromSender",
          "type": "bool"
        }
      ],
      "name": "mintAndLend",
      "outputs": [],
      "stateMutability": "payable",
      "type": "function"
    },
    {
      "inputs": [],
      "name": "owner",
      "outputs": [
        {
          "internalType": "address",
          "name": "",
          "type": "address"
        }
      ],
      "stateMutability": "view",
      "type": "function"
    },
    {
      "inputs": [
        {
          "internalType": "contract ISingularity",
          "name": "singularity",
          "type": "address"
        },
        {
          "internalType": "contract IMarket",
          "name": "bingBang",
          "type": "address"
        },
        {
          "internalType": "address",
          "name": "user",
          "type": "address"
        },
        {
          "internalType": "uint256",
          "name": "removeShare",
          "type": "uint256"
        },
        {
          "internalType": "uint256",
          "name": "repayAmount",
          "type": "uint256"
        },
        {
          "internalType": "uint256",
          "name": "collateralShare",
          "type": "uint256"
        },
        {
          "internalType": "bool",
          "name": "withdraw",
          "type": "bool"
        },
        {
          "internalType": "bytes",
          "name": "withdrawData",
          "type": "bytes"
        }
      ],
      "name": "removeAssetAndRepay",
      "outputs": [],
      "stateMutability": "payable",
      "type": "function"
    },
    {
      "inputs": [],
      "name": "renounceOwnership",
      "outputs": [],
      "stateMutability": "nonpayable",
      "type": "function"
    },
    {
      "inputs": [
        {
          "internalType": "address",
          "name": "operator",
          "type": "address"
        },
        {
          "internalType": "bool",
          "name": "approved",
          "type": "bool"
        }
      ],
      "name": "setApprovalForAll",
      "outputs": [],
      "stateMutability": "nonpayable",
      "type": "function"
    },
    {
      "inputs": [
        {
          "internalType": "address",
          "name": "who",
          "type": "address"
        },
        {
          "internalType": "contract ISingularity[]",
          "name": "markets",
          "type": "address[]"
        }
      ],
      "name": "singularityMarketInfo",
      "outputs": [
        {
          "components": [
            {
              "components": [
                {
                  "internalType": "address",
                  "name": "collateral",
                  "type": "address"
                },
                {
                  "internalType": "uint256",
                  "name": "collateralId",
                  "type": "uint256"
                },
                {
                  "internalType": "address",
                  "name": "asset",
                  "type": "address"
                },
                {
                  "internalType": "uint256",
                  "name": "assetId",
                  "type": "uint256"
                },
                {
                  "internalType": "contract IOracle",
                  "name": "oracle",
                  "type": "address"
                },
                {
                  "internalType": "bytes",
                  "name": "oracleData",
                  "type": "bytes"
                },
                {
                  "internalType": "uint256",
                  "name": "totalCollateralShare",
                  "type": "uint256"
                },
                {
                  "internalType": "uint256",
                  "name": "userCollateralShare",
                  "type": "uint256"
                },
                {
                  "components": [
                    {
                      "internalType": "uint128",
                      "name": "elastic",
                      "type": "uint128"
                    },
                    {
                      "internalType": "uint128",
                      "name": "base",
                      "type": "uint128"
                    }
                  ],
                  "internalType": "struct Rebase",
                  "name": "totalBorrow",
                  "type": "tuple"
                },
                {
                  "internalType": "uint256",
                  "name": "userBorrowPart",
                  "type": "uint256"
                },
                {
                  "internalType": "uint256",
                  "name": "currentExchangeRate",
                  "type": "uint256"
                },
                {
                  "internalType": "uint256",
                  "name": "spotExchangeRate",
                  "type": "uint256"
                },
                {
                  "internalType": "uint256",
                  "name": "oracleExchangeRate",
                  "type": "uint256"
                },
                {
                  "internalType": "uint256",
                  "name": "totalBorrowCap",
                  "type": "uint256"
                }
              ],
              "internalType": "struct MagnetarV2Operations.MarketInfo",
              "name": "market",
              "type": "tuple"
            },
            {
              "components": [
                {
                  "internalType": "uint128",
                  "name": "elastic",
                  "type": "uint128"
                },
                {
                  "internalType": "uint128",
                  "name": "base",
                  "type": "uint128"
                }
              ],
              "internalType": "struct Rebase",
              "name": "totalAsset",
              "type": "tuple"
            },
            {
              "internalType": "uint256",
              "name": "userAssetFraction",
              "type": "uint256"
            },
            {
              "components": [
                {
                  "internalType": "uint64",
                  "name": "interestPerSecond",
                  "type": "uint64"
                },
                {
                  "internalType": "uint64",
                  "name": "lastAccrued",
                  "type": "uint64"
                },
                {
                  "internalType": "uint128",
                  "name": "feesEarnedFraction",
                  "type": "uint128"
                }
              ],
              "internalType": "struct ISingularity.AccrueInfo",
              "name": "accrueInfo",
              "type": "tuple"
            }
          ],
          "internalType": "struct MagnetarV2Operations.SingularityInfo[]",
          "name": "",
          "type": "tuple[]"
        }
      ],
      "stateMutability": "view",
      "type": "function"
    },
    {
      "inputs": [
        {
          "internalType": "address",
          "name": "newOwner",
          "type": "address"
        }
      ],
      "name": "transferOwnership",
      "outputs": [],
      "stateMutability": "nonpayable",
      "type": "function"
    },
    {
      "inputs": [
        {
          "internalType": "contract IYieldBoxBase",
          "name": "yieldBox",
          "type": "address"
        },
        {
          "internalType": "address",
          "name": "from",
          "type": "address"
        },
        {
          "internalType": "uint256",
          "name": "assetId",
          "type": "uint256"
        },
        {
          "internalType": "uint16",
          "name": "dstChainId",
          "type": "uint16"
        },
        {
          "internalType": "bytes32",
          "name": "receiver",
          "type": "bytes32"
        },
        {
          "internalType": "uint256",
          "name": "amount",
          "type": "uint256"
        },
        {
          "internalType": "uint256",
          "name": "share",
          "type": "uint256"
        },
        {
          "internalType": "bytes",
          "name": "adapterParams",
          "type": "bytes"
        },
        {
          "internalType": "address payable",
          "name": "refundAddress",
          "type": "address"
        },
        {
          "internalType": "uint256",
          "name": "gas",
          "type": "uint256"
        }
      ],
      "name": "withdrawTo",
      "outputs": [],
      "stateMutability": "payable",
      "type": "function"
    },
    {
      "stateMutability": "payable",
      "type": "receive"
    }
  ],
  "bytecode": "0x6080346200012b57601f6200612c38819003918201601f19168301916001600160401b0383118484101762000130578084926020946040528339810103126200012b57516001600160a01b03808216908183036200012b57620000623362000146565b6001805533906000541603620000e757156200009357620000839062000146565b604051615f9e90816200018e8239f35b60405162461bcd60e51b815260206004820152602660248201527f4f776e61626c653a206e6577206f776e657220697320746865207a65726f206160448201526564647265737360d01b6064820152608490fd5b606460405162461bcd60e51b815260206004820152602060248201527f4f776e61626c653a2063616c6c6572206973206e6f7420746865206f776e65726044820152fd5b600080fd5b634e487b7160e01b600052604160045260246000fd5b600080546001600160a01b039283166001600160a01b03198216811783559216907f8be0079c531659141344cd1fd0a4f28419497f9722a3daafe3b4186f6b6457e09080a356fe6080604052600436101561001b575b361561001957600080fd5b005b60003560e01c8063013546e11461013b57806314ecf5a814610136578063411628d914610131578063443c73a71461012c578063664653ac146101275780636dd55c0b14610122578063715018a61461011d578063815c12ea146101185780638da5cb5b146101135780639cc6ef141461010e578063a22cb46514610109578063a306dfd514610104578063cc5e3163146100ff578063dedd6b80146100fa578063e4e802e8146100f5578063e9212b72146100f0578063e985e9c5146100eb5763f2fde38b0361000e57612a50565b6129f8565b6127a1565b61255d565b6121ce565b612177565b6120c0565b61208e565b612007565b611fc7565b611f26565b611eda565b611d68565b61172a565b611529565b611110565b610d9a565b610234565b9181601f84011215610170578235916001600160401b038311610170576020808501948460051b01011161017057565b600080fd5b60005b8381106101885750506000910152565b8181015183820152602001610178565b906020916101b181518092818552858086019101610175565b601f01601f1916010190565b602080820190808352835180925260409283810182858560051b8401019601946000925b8584106101f2575050505050505090565b909192939495968580610223600193603f1986820301885286838d5180511515845201519181858201520190610198565b9901940194019295949391906101e1565b6020806003193601126101705760049081356001600160401b038111610170576102619036908401610140565b9260009261026e85612cad565b94845b8181106102975761029387610287883414613c1b565b604051918291826101bd565b0390f35b6102a2818387612d24565b606096878201906102b96102b583612d4b565b1590565b610d3e575b604080840135809201996101906102de6102d787612e2f565b61ffff1690565b14610d0c575b60016102f26102d787612e2f565b03610337575050508161032761032d9261031f61031489610332989701612fc8565b936080810190612d55565b929091612d4b565b9261409d565b612c67565b610271565b61ffff60028161034688612e2f565b160361037057505050508161036a61032d9261031f61031489610332989701612fc8565b92613fc8565b90919295949a935061012c816103858d612e2f565b160361049e5750506103af6103a76103a060808c018c612d55565b8091612e39565b8101906138ef565b916103c26103bd8451610d7d565b615eb7565b841561044d57866103e56103e06103e083896103ed96019e01612fc8565b610d7d565b930151610d7d565b91803b15610170576000926104159251958680948193632479d86360e01b83528c8301611fb4565b03925af1918215610448576103329261042f575b50612c67565b8061043c61044292610f84565b80611ecf565b38610429565b612bc2565b98610463919294506103e0876103e09201612fc8565b8161047087860151610d7d565b94015190803b1561017057610415946000809451809781958294630c46aac760e31b84528d33908501613948565b948561012d89976104b28e9596979e612e2f565b160361052b57506104fa9250906103e0916105006103e06104e46104dc6103a06080870187612d55565b810190613ac9565b9893600180929e9499939b9260a01b0316615eb7565b01612fc8565b92833b15610170576104158b9160009751998a978896879563695ef6bf60e01b875233908701613bc3565b60648161053785612e2f565b160361065157505090829188600061057b6103e06103e08a6080966104fa6103bd61057261056a6103a08c860186612d55565b8101906139fc565b9e8f0151610d7d565b926105b189519161058e888c0151610d7d565b968b01519a01518751634d4d7cbd60e11b81529a8b978896879533918701613a99565b03925af1801561044857610332936000908192610619575b5091518681019283526020830191909152906105f39082906040015b03601f198101835282611023565b6105fb611046565b60018152908582015261060e828a61385e565b52610429818961385e565b6105f392506105e5915061064290843d861161064a575b61063a8183611023565b810190613932565b9250906105c9565b503d610630565b60c8816106618599949695612e2f565b16036107165750509050608061069f6103e06103e0896106916106896103a0878c018c612d55565b81019061396a565b986104fa6103bd8b51610d7d565b906106ac88870151610d7d565b906106b985880151151590565b9387015196015193823b1561017057516374d2492960e11b815233818b019081526001600160a01b03909216602083015292151560408201526060810195909552608085019290925292600091849182908490829060a001610415565b60c98161072289612e2f565b16036107ed57508392508591506103e06103e061075d9261074f6103a76103a0608061078d9c0188612d55565b946104fa6103bd8751610d7d565b8261076a89840151610d7d565b9201519160008a8551988995869485936314890dcb60e21b855233908501613948565b03925af18015610448576103329360009081926107c5575b5091518681019283526020830191909152906105f39082906040016105e5565b6105f392506105e591506107e590843d861161064a5761063a8183611023565b9250906107a5565b60ca816107fd8997959697612e2f565b160361084e575050505061032d9061082a6108226103a0866080610332980190612d55565b810190613872565b9790969195929492916001600160a01b039081169161084883615eb7565b166153cf565b60cb8161085f899597949699612e2f565b160361092a57505061088c6103e06103e08461074f6108846103a06080880188612d55565b8101906137b4565b61089883830151610d7d565b956108a585840151151590565b9201519560008a6108cb8751998a9687958694630cb0f5b760e31b865233908601613834565b03925af192831561044857610332936105e5926105f3926000926108fb575b505187810191825292839160200190565b61091c919250883d8a11610923575b6109148183611023565b810190612bf2565b90386108ea565b503d61090a565b60cc8161093685612e2f565b160361099a57505061095b6103e06103e08461074f6108846103a06080880188612d55565b61096783830151610d7d565b9561097485840151151590565b9201519560008a6108cb8751998a968795869463cd0211eb60e01b865233908601613834565b61012f816109ac859994969795612e2f565b1603610a28575050916109fa6103e0926103e0946109db6109d36103a060808b018b612d55565b810190613592565b95979699939b929c919a90949e6104fa60018060a01b03809c16615eb7565b96873b15610170576000998f9961041595519d8e9b8c9a8b99630c9dc41160e31b8b52169033908a01613724565b61013081610a398997969599612e2f565b1603610ab257505093610a846103e0956103e0610a67610a5f6103a06080890189612d55565b81019061321b565b9894979395929c9199909a6104fa60018060a01b03809a16615eb7565b94853b15610170576000978d9761041593519b8c998a9889976346a34c9f60e11b89521690339088016132c6565b61013181610ac287969496612e2f565b1603610b59575050608094610aff6103e06103e08a610af1610ae96103a08c8b018b612d55565b810190613047565b976104fa6103bd8a51610d7d565b91610b0c89860151610d7d565b918086015194860151978601519060c0610b2b60a089015161ffff1690565b970151853b15610170576000978d9361041593519b8c998a988997634663f85d60e11b8952339089016130dd565b61013281610b6c87959694989997612e2f565b1603610be8575050916103e0610bba9284610b9d610b956103a060806103e09b9a990184612d55565b810190612f64565b949a939d929598919b90966104fa60018060a01b03809b16615eb7565b95863b1561017057600098610415938f92519c8d9a8b998a986323c8387760e11b8a52169433908901612fd2565b60cd919550829350610bfa8193612e2f565b1603610c6457509161032d91610c26610c1e6103a086608061033299980190612d55565b810190612efa565b90610c5e88830193610c3b6103bd8651610d7d565b610c52610c4b6103e08651610d7d565b9551610d7d565b92840151930151151590565b92614b70565b819350610c7260ce92612e2f565b1603610cbf57509061032d610c9c610c946103a0856080610332970190612d55565b810190612e7b565b969095919492506001600160a01b039182169190610cb983615eb7565b166145a8565b5162461bcd60e51b81526020818701818152601c918101919091527b135859db995d185c958c8e881858dd1a5bdb881b9bdd081d985b1a5960221b604082015281906060010390fd5b0390fd5b610d39610d2a610d226103a06080890189612d55565b810190612e56565b906001600160a01b031661441a565b6102e4565b610d78610d4e6080850185612d55565b9050610d70604051610d6b816105e58a8d83019190602083019252565b612d87565b901515612e03565b6102be565b6001600160a01b031690565b6001600160a01b0381160361017057565b346101705760408060031936011261017057600435610db881610d89565b815163f9557ccb60e01b8152916001600160a01b039182168184600481845afa928315610448576000948594610f17575b50825163de40657760e01b81526020958682600481875afa918215610448576004948891600094610ee8575b50865163226f120560e11b815295869182905afa801561044857610e80968895600092610ec7575b509091610e6491906001600160801b0390610e5c908216602435612c17565b911690612c2f565b92855180978195829463442c159960e01b845260048401612c4f565b0392165afa9182156104485761029393600093610ea8575b5050519081529081906020820190565b610ebf929350803d10610923576109148183611023565b903880610e98565b610e649250610ee290873d8911610923576109148183611023565b91610e3d565b610f09919450823d8411610f10575b610f018183611023565b810190612bdd565b9238610e15565b503d610ef7565b909350610f3b919450823d8411610f45575b610f338183611023565b810190612ba1565b9390939238610de9565b503d610f29565b3590610f5782610d89565b565b8015150361017057565b3590610f5782610f59565b634e487b7160e01b600052604160045260246000fd5b6001600160401b038111610f9757604052565b610f6e565b604081019081106001600160401b03821117610f9757604052565b60a081019081106001600160401b03821117610f9757604052565b60e081019081106001600160401b03821117610f9757604052565b606081019081106001600160401b03821117610f9757604052565b608081019081106001600160401b03821117610f9757604052565b601f909101601f19168101906001600160401b03821190821017610f9757604052565b60405190610f5782610f9c565b60405190610f5782610fed565b6040519061012082016001600160401b03811183821017610f9757604052565b6040519061014082016001600160401b03811183821017610f9757604052565b6001600160401b038111610f9757601f01601f191660200190565b9291926110c7826110a0565b916110d56040519384611023565b829481845281830111610170578281602093846000960137010152565b9080601f830112156101705781602061110d933591016110bb565b90565b61010036600319011261017057611128600435610d89565b611133602435610d89565b60843561113f81610f59565b60a4359061114c82610f59565b61115760c435610f59565b60e4356001600160401b038111610170576111769036906004016110f2565b60405163de40657760e01b81529290919060208460048181356001600160a01b03165afa93841561044857600094611508575b506040516377607a1760e11b815260208160048181356001600160a01b03165afa908115610448576000916114e9575b50604051630cf35bdd60e41b8152600481018290526080816024816001600160a01b038a165afa908115610448576000916114b7575b50604051638eb22cdd60e01b815293602085806112326044358760048401612c4f565b03816001600160a01b038b165afa94851561044857600095611496575b5083611381575b5061126f9150506001600160a01b038516600435615658565b1561137957305b6004356001600160a01b03163b15610170576040516374d2492960e11b815291600091839182916112b391906044359060243590600486016139cb565b0381836004356001600160a01b03165af1801561044857611366575b5060c4351561135d5730905b604080516314890dcb60e21b815260643593918180611301878660243560048501613948565b038160006004356001600160a01b03165af180156104485761133f575b5060c43561132857005b610019936001600160a01b031691600435916155aa565b6113579060403d60401161064a5761063a8183611023565b5061131e565b602435906112db565b8061043c61137392610f84565b386112cf565b602435611276565b8015611486575b1561147b5761139c335b8260443591615768565b60405163095ea7b360e01b8152906020908290816000816113cc6044356001600160a01b038e166004840161458d565b03926001600160a01b03165af180156104485761140c92604092869261144c575b508251634d4d7cbd60e11b815293849283923090819060048601613a3b565b038160006001600160a01b038a165af180156104485761142e575b8080611256565b6114469060403d60401161064a5761063a8183611023565b50611427565b61146d9060203d602011611474575b6114658183611023565b810190614578565b50386113ed565b503d61145b565b61139c602435611392565b611491602435615eb7565b611388565b8495506114b19060203d602011610923576109148183611023565b9461124f565b6114d8915060803d81116114e2575b6114d08183611023565b81019061453b565b505090503861120f565b503d6114c6565b611502915060203d602011610923576109148183611023565b386111d9565b61152291945060203d602011610f1057610f018183611023565b92386111a9565b3461017057608036600319011261017057600480359061154882610d89565b611550612b74565b506040805163020a17bd60e61b8152926001600160a01b039081169082858581855afa948515610448576000908196611708575b50611597611590611046565b9182612bce565b6115a5602096878301612bce565b835163de40657760e01b81529086828781875afa918215610448576000926116e5575b506115d69060243590612c76565b84516377607a1760e11b8152909287828881885afa918215610448576000926116c6575b50855163294c4c7960e11b81529388858981895afa9485156104485788958a9261162c926000926116ae575b50612c17565b95875198898092633ba0b9a960e01b82525afa94851561044857611660899661167492610e809a60009261168f5750612c17565b61166e606435604435612c17565b90612c2f565b8651638eb22cdd60e01b815297889586948593918401612c4f565b6116a7919250893d8b11610923576109148183611023565b9038611626565b6116a7919250843d8611610923576109148183611023565b6116de919250883d8a11610923576109148183611023565b90386115fa565b6115d691925061170190883d8a11610f1057610f018183611023565b91906115c8565b9050611722919550833d8511610f4557610f338183611023565b949038611584565b60e03660031901126101705760043561174281610d89565b61174d602435610d89565b611758604435610d89565b61176360a435610f59565b61176e60c435610f59565b611779604435615eb7565b6040516377607a1760e11b81526020816004816024356001600160a01b03165afa90811561044857600091611b9a575b5060405163de40657760e01b8152906020826004816001600160a01b0387165afa91821561044857600092611b79575b50604051630cf35bdd60e41b815260048101829052906080826024816001600160a01b0387165afa91821561044857600092611b55575b50604051638eb22cdd60e01b815291602083806118336064358660048401612c4f565b03816001600160a01b0388165afa92831561044857600093611b34575b5060a435611a64575b50506064356119e7575b50604080516314890dcb60e21b8152608435918180611889856044358060048501613948565b038160006024356001600160a01b03165af18015610448576119c9575b5060405163226f120560e11b81526020816004816001600160a01b0388165afa918215610448576118f8926020926000916119ac575b50604051638eb22cdd60e01b8152938492839260048401612c4f565b03816001600160a01b0386165afa92831561044857600093602093611958938692611989575b50611936906001600160a01b03908116908416615658565b604051630cb0f5b760e31b81529485938492839190604435806004850161380b565b03926001600160a01b03165af180156104485761197157005b6100199060203d602011610923576109148183611023565b6119369192506119a590863d8811610923576109148183611023565b919061191e565b6119c39150833d8511610923576109148183611023565b386118dc565b6119e19060403d60401161064a5761063a8183611023565b506118a6565b6119fc6001600160a01b038316602435615658565b6024356001600160a01b03163b15610170576000611a3591604051809381926374d2492960e11b835260643560443530600486016139cb565b0381836024356001600160a01b03165af180156104485715611863578061043c611a5e92610f84565b38611863565b60c43515611b2957611a7b335b8260643591615768565b60405163095ea7b360e01b815290602090829081600081611aab6064356001600160a01b038c166004840161458d565b03926001600160a01b03165af1801561044857611aea92604092859261144c57508251634d4d7cbd60e11b815293849283923090819060048601613a3b565b038160006001600160a01b0388165af1801561044857611b0b575b80611859565b611b239060403d60401161064a5761063a8183611023565b50611b05565b611a7b604435611a71565b611b4e91935060203d602011610923576109148183611023565b9138611850565b611b6e91925060803d81116114e2576114d08183611023565b505090509038611810565b611b9391925060203d602011610f1057610f018183611023565b90386117d9565b611bb3915060203d602011610923576109148183611023565b386117a9565b90604060031983011261017057600435611bd281610d89565b91602435906001600160401b03821161017057611bf191600401610140565b9091565b6001600160a01b03169052565b80516001600160801b03908116835260209182015116910152565b90611c29818351611bf5565b60208201516020820152611c4560408301516040830190611bf5565b60608201516060820152611c6160808301516080830190611bf5565b6101c0611c7d60a08401516101e08060a0860152840190610198565b9260c081015160c084015260e081015160e0840152611ca56101008083015190850190611c02565b610120810151610140908185015281015161016090818501528101516101809081850152810151906101a09182850152015191015290565b602080820190808352835180925260409283810182858560051b8401019601946000925b858410611d12575050505050505090565b909192939495968580600192603f198582030187528a51908683611d3e84516060808652850190611c1d565b93015184878060401b03918281511682860152015116910152990194019401929594939190611d01565b3461017057611d7636611bb9565b90611d8082612b5d565b91604091611d9083519485611023565b8184526020918285019060051b820191368311610170578390915b838310611eb55750505050825190611dc28261438d565b93611dcb612b74565b5060005b838110611de3578451806102938882611cdd565b8085611e046103e0611df76004958761385e565b516001600160a01b031690565b611e176001600160a01b0382168b615940565b611e21848b61385e565b51528151632c9f039d60e21b815293849182905afa91821561044857611e7d926000918291611e82575b50611e6a90611e62611e5b611046565b938461437e565b86830161437e565b84611e75838a61385e565b510152612c67565b611dcf565b611e6a9250611ea79150883d8a11611eae575b611e9f8183611023565b8101906143f9565b9091611e4b565b503d611e95565b81908335611ec281610d89565b8152019101908390611dab565b600091031261017057565b3461017057600080600319360112611f2357611ef4612b05565b80546001600160a01b03198116825581906001600160a01b0316600080516020615f498339815191528280a380f35b80fd5b61010036600319011261017057600435611f3f81610d89565b602435611f4b81610d89565b60443591611f5883610d89565b60c435611f6481610f59565b60e435936001600160401b0393848611610170573660238701121561017057856004013594851161017057366024868801011161017057602461001996019360a435926084359260643592613c64565b6001600160a01b03909116815260200190565b34610170576000366003190112610170576000546040516001600160a01b039091168152602090f35b61ffff81160361017057565b3590610f5782611ff0565b6101403660031901126101705760043561202081610d89565b60243561202c81610d89565b6064359161203983611ff0565b60e435926001600160401b0384116101705761205c6100199436906004016110f2565b90610104359261206b84610d89565b61207485615eb7565b610124359460c4359260a4359260843592604435916153cf565b34610170576040366003190112610170576100196004356120ae81610d89565b602435906120bb82610f59565b61441a565b3461017057604080600319360112610170578060049182356120e181610d89565b6120e9612b74565b50815163020a17bd60e61b815293849182906001600160a01b03165afa9182156104485761029392612148916000908192612157575b5083519161212c83610f9c565b6001600160801b03918216835216602082015260243590612c76565b90519081529081906020820190565b90506121709150833d8511610f4557610f338183611023565b903861211f565b60c03660031901126101705761001960043561219281610d89565b60243561219e81610d89565b608435906121ab82610f59565b60a435926121b884610f59565b6121c182615eb7565b6064359160443591614918565b60a03660031901126101705760048035906121e882610d89565b6024356121f481610d89565b60443591612203606435610f59565b6084359061221082610f59565b60018060a01b039283861691604080519763226f120560e11b895260209889818581895afa90811561044857600091612488575b50825163de40657760e01b81528a8186818a5afa801561044857899160009161246b575b5016988351630cf35bdd60e41b81526080818c818061228e888c83019190602083019252565b03915afa90811561044857600091612449575b508451638eb22cdd60e01b8152998c8b8d81806122c1888a8e8401612c4f565b03915afa998a15610448578d9b60009b61242a575b50606435612336575b5050505050906122f56123109860009493615658565b51630cb0f5b760e31b8152968795869485933090850161380b565b03925af180156104485761232057005b8161001992903d10610923576109148183611023565b6000612377959897969c949392828f931561241c575b82146124115761235d858533615768565b875180978196829563095ea7b360e01b84528c840161458d565b0393165af18015610448576123ad94839289926123f4575b508251634d4d7cbd60e11b8152958692839230908190898601613a3b565b038160008c5af1801561044857612310988a986000956122f5936123d8575b829b82959697506122df565b6123ee90853d871161064a5761063a8183611023565b506123cc565b61240a908d803d10611474576114658183611023565b503861238f565b61235d85858d615768565b6124258c615eb7565b61234c565b612442919b508c8d3d10610923576109148183611023565b99386122d6565b612461915060803d81116114e2576114d08183611023565b50509050386122a1565b61248291508c8d3d10610f1057610f018183611023565b38612268565b61249f91508a3d8c11610923576109148183611023565b38612244565b602080820190808352835180925260409283810182858560051b8401019601946000925b8584106124da575050505050505090565b909192939495968580600192603f198582030187528a519060c0612506835160e0808552840190611c1d565b926125178582015186850190611c02565b8881015190606091828501520151868060401b03808251166080850152858201511660a084015288878060801b03910151169101529901940194019295949391906124c9565b346101705761256b36611bb9565b909161257682612b5d565b9160409361258685519485611023565b8184526020918285019060051b820191368311610170578390915b83831061278757505050508251916125b8836142c2565b936125c1612b74565b506125ca6142a3565b5060005b8481106125e25786518061029388826124a5565b6125f26103e0611df7838561385e565b906126066001600160a01b03831685615940565b612610828961385e565b5152875163f9557ccb60e01b815260049089818381875afa8015610448576000918291612764575b506126579061264f612648611046565b9384612bce565b888301612bce565b86612662848b61385e565b51015288516370a0823160e01b815286818061268089868301611fb4565b0381875afa90811561044857600091612747575b50896126a0848b61385e565b510152885192838092632c9f039d60e21b825260609586935afa92831561044857612706936000928390849261270b575b50906126f46126fc926126ec6126e5611053565b968761437e565b8a860161437e565b8b8401612bce565b611e75838a61385e565b6125ce565b6126f494506126fc92506127359150833d8511612740575b61272d8183611023565b810190614358565b9194909192506126d1565b503d612723565b61275e9150873d8911610923576109148183611023565b38612694565b612657925061278091508b3d8d11610f4557610f338183611023565b9091612638565b8190833561279481610d89565b81520191019083906125a1565b61010036600319011261017057600480356127bb81610d89565b602435906127c882610d89565b6084359160a435916127d983610f59565b60c435946127e686610f59565b60e435956127f387610f59565b6127fc84615eb7565b6040805163de40657760e01b815290976001600160a01b0385811697602094939291858488818d5afa801561044857612848946000916129c4575b501696606435908960443591614918565b80156129bd5730905b88516377607a1760e11b80825292848287818c5afa8015610448578a8691612895946000916129a0575b508d51638eb22cdd60e01b815294859283928b8401612c4f565b03818a5afa91821561044857600092612981575b50883b15610170578a5163cce19f8160e01b815291600091839182916128d391908c8b8501613948565b0381838c5af180156104485761296e575b506128eb57005b81908389518098819382525afa80156104485787956000928392612951575b505061292b8651978896879586946311a5cc7760e31b865230918601613a6a565b03925af180156104485761293b57005b8161001992903d1061064a5761063a8183611023565b6129679250803d10610923576109148183611023565b388061290a565b8061043c61297b92610f84565b386128e4565b612999919250853d8711610923576109148183611023565b90386128a9565b6129b79150833d8511610923576109148183611023565b3861287b565b8490612851565b6129db9150873d8911610f1057610f018183611023565b38612837565b9060018060a01b0316600052602052604060002090565b3461017057604036600319011261017057602060ff612a44600435612a1c81610d89565b60243590612a2982610d89565b6001600160a01b0316600090815260028552604090206129e1565b54166040519015158152f35b3461017057602036600319011261017057600435612a6d81610d89565b612a75612b05565b6001600160a01b039081168015612ab157600080546001600160a01b0319811683178255909216600080516020615f498339815191528380a380f35b60405162461bcd60e51b815260206004820152602660248201527f4f776e61626c653a206e6577206f776e657220697320746865207a65726f206160448201526564647265737360d01b6064820152608490fd5b6000546001600160a01b03163303612b1957565b606460405162461bcd60e51b815260206004820152602060248201527f4f776e61626c653a2063616c6c6572206973206e6f7420746865206f776e65726044820152fd5b6001600160401b038111610f975760051b60200190565b60405190612b8182610f9c565b60006020838281520152565b51906001600160801b038216820361017057565b91908260409103126101705761110d6020612bbb84612b8d565b9301612b8d565b6040513d6000823e3d90fd5b6001600160801b039091169052565b90816020910312610170575161110d81610d89565b90816020910312610170575190565b634e487b7160e01b600052601160045260246000fd5b81810292918115918404141715612c2a57565b612c01565b8115612c39570490565b634e487b7160e01b600052601260045260246000fd5b60409060009294936060820195825260208201520152565b6000198114612c2a5760010190565b60208101805190916001600160801b03918216612c935750505090565b61110d9382612ca492511690612c17565b91511690612c2f565b90612cb782612b5d565b6040612cc581519283611023565b8382528193612cd6601f1991612b5d565b0191600091825b848110612ceb575050505050565b6020908251612cf981610f9c565b85815282606081830152828601015201612cdd565b634e487b7160e01b600052603260045260246000fd5b9190811015612d465760051b81013590609e1981360301821215610170570190565b612d0e565b3561110d81610f59565b903590601e198136030182121561017057018035906001600160401b0382116101705760200191813603831361017057565b90610f57604e60405180947f4d61676e6574617256323a204d697373696e672063616c6c20666f722061637460208301526d0d2dedc40eed2e8d040d2dcc8caf60931b6040830152612de28151809260208686019101610175565b810103602e810185520183611023565b90602061110d928181520190610198565b15612e0b5750565b60405162461bcd60e51b815260206004820152908190610d08906024830190610198565b3561110d81611ff0565b909291928360041161017057831161017057600401916003190190565b91908260409103126101705760208235612e6f81610d89565b92013561110d81610f59565b91909161010081840312610170578035612e9481610d89565b926020820135612ea381610d89565b926040830135926060810135926080820135612ebe81610f59565b9260a0830135612ecd81610f59565b9260c0810135612edc81610f59565b9260e08201356001600160401b0381116101705761110d92016110f2565b908160a091031261017057608060405191612f1483610fb7565b8035612f1f81610d89565b83526020810135612f2f81610d89565b6020840152604081013560408401526060810135612f4c81610f59565b60608401520135612f5c81610f59565b608082015290565b9060e082820312610170578135612f7a81610d89565b926020830135926040810135926060820135926080830135612f9b81611ff0565b9260a0810135612faa81610d89565b9260c08201356001600160401b0381116101705761110d92016110f2565b3561110d81610d89565b939460e09561ffff929461110d99989460018060a01b0380971688526020880152604087015260608601521660808401521660a08201528160c08201520190610198565b91908260409103126101705760405161302e81610f9c565b60208082948035845201359161304383610d89565b0152565b9061010082820312610170576130bd9060c06040519361306685610fd2565b803561307181610d89565b8552602081013561308181610d89565b602086015260408101356040860152606081013560608601526080810135608086015260a08101356130b281611ff0565b60a086015201613016565b60c082015290565b805182526020908101516001600160a01b0316910152565b929460c09461ffff93999896610f57989361010087019b60018060a01b0380921688521660208701526040860152606085015260808401521660a082015201906130c5565b359060ff8216820361017057565b81601f820112156101705780359061314782612b5d565b9260409061315782519586611023565b838552602091828601918361012080970286010194818611610170578401925b858410613188575050505050505090565b86848303126101705784879161319c611060565b6131a587610f63565b81526131b2838801610f4c565b838201526131c1868801610f4c565b8682015260606131d2818901610f4c565b908201526080808801359082015260a0808801359082015260c06131f7818901613122565b9082015260e080880135908201526101008088013590820152815201930192613177565b91909180830390610120821261017057803561323681610d89565b93602082013561324581610d89565b936060604084013561325681611ff0565b94605f1901126101705760405161326c81610fed565b60608401358152608084013561328181610d89565b602082015260a084013561329481610d89565b6040820152926132a78360c08301613016565b926101008201356001600160401b0381116101705761110d9201613130565b949394929192610120918282019560018060a01b03809216835281602096168684015261ffff604095168584015287519760609889850152828681898401511692608093848801520151169060a0918286015261332860c093848701906130c5565b876101406101009688888201528d51809c52019b01996000975b8a89106133585750505050505050505050505090565b909192939495969798999a9c9b8a898f928a600194518051151583528b85820151168584015261338e8782015188850190611bf5565b61339e8882015189850190611bf5565b80890151838a0152898101518a8401528a81015160ff168b84015260e0818101519084015201518b8201529e9f9e019d019b9a99019796959493929190613342565b9190826080910312610170576040516133f881611008565b60608082948035845260208101356020850152604081013561341981610d89565b604085015201359161304383610d89565b9190608083820312610170576040519061344382611008565b819380358352602081013561345781610f59565b6020840152604081013561346a81611ff0565b60408401526060810135916001600160401b0383116101705760609261349092016110f2565b910152565b81601f82011215610170578035906134ac82612b5d565b926040906134bc82519586611023565b838552602091828601918361014080970286010194818611610170578401925b8584106134ed575050505050505090565b868483031261017057848791613501611080565b61350a87610f63565b8152613517838801610f4c565b83820152613526868801610f63565b868201526060613537818901610f4c565b908201526080613548818901610f4c565b9082015260a0808801359082015260c0808801359082015260e061356d818901613122565b90820152610100808801359082015261012080880135908201528152019301926134dc565b9061018082820312610170576135a782610f4c565b926135b460208401610f4c565b926135c160408201611ffc565b926001600160401b03606083013581811161017057826135e29185016110f2565b936135f083608086016133e0565b93610100810135838111610170578461360a91830161342a565b93613619816101208401613016565b936101608301359081116101705761110d9201613495565b906080606061110d938051845260208101511515602085015261ffff60408201511660408501520151918160608201520190610198565b90815180825260208080930193019160005b828110613688575050505090565b909192938261014060019287516136a182825115159052565b6136b18482015185840190611bf5565b6040818101511515908301526136cf60608083015190840190611bf5565b6136e160808083015190840190611bf5565b60a0818101519083015260c0808201519083015260e08082015160ff1690830152610100818101519083015261012090810151908201520195019392910161367a565b949160606137666137a69661ffff61379a9761110d9d9b9660018060a01b0396878092168d521660208c01521660408a015261018080848b0152890190610198565b9380516080890152602081015160a08901528260408201511660c089015201511660e0860152848203610100860152613631565b936101208301906130c5565b610160818403910152613668565b90816080910312610170576060604051916137ce83611008565b80356137d981610d89565b835260208101356137e981610d89565b602084015260408101356137fc81610f59565b60408401520135606082015290565b6001600160a01b0391821681529116602082015260006040820152606081019190915260800190565b6001600160a01b039182168152911660208201529015156040820152606081019190915260800190565b8051821015612d465760209160051b010190565b90916101208284031261017057813561388a81610d89565b92602083013561389981610d89565b9260408101359260608201356138ae81611ff0565b9260808301359260a08101359260c08201359260e08301356001600160401b03811161017057610100916138e39185016110f2565b92013561110d81610d89565b9081606091031261017057604080519161390883610fed565b803561391381610d89565b8352602081013561392381610d89565b60208401520135604082015290565b9190826040910312610170576020825192015190565b6001600160a01b03918216815291166020820152604081019190915260600190565b908160a09103126101705760806040519161398483610fb7565b803561398f81610d89565b8352602081013561399f81610d89565b602084015260408101356139b281610f59565b6040840152606081013560608401520135608082015290565b6001600160a01b03918216815291166020820152600060408201526060810191909152608081019190915260a00190565b908160a091031261017057608060405191613a1683610fb7565b803583526020810135613a2881610d89565b602084015260408101356139b281610d89565b9081526001600160a01b0391821660208201529116604082015260006060820152608081019190915260a00190565b9081526001600160a01b0391821660208201529116604082015260608101919091526000608082015260a00190565b9081526001600160a01b039182166020820152911660408201526060810191909152608081019190915260a00190565b91909160a081840312610170578035613ae181610d89565b926020820135613af081611ff0565b926040830135926060810135926001600160401b03916080810135908382116101705701906060828203126101705760405192613b2c84610fed565b8235613b3781610d89565b84526020830135613b4781610d89565b6020850152604083013590811161017057613b6292016110f2565b604082015290565b929360409161110d9561ffff6101009560018060a01b038094168852166020870152838601526000606086015260a060808601528082511660a086015260208201511660c0850152015191606060e08201520190610198565b939061110d95916101009461ffff60409560018060a01b03809516895216602088015284870152606086015260a060808601528082511660a086015260208201511660c0850152015191606060e08201520190610198565b15613c2257565b60405162461bcd60e51b815260206004820152601a60248201527909ac2cedccae8c2e4ac647440ecc2d8eaca40dad2e6dac2e8c6d60331b6044820152606490fd5b91979394969795929095613c7781615eb7565b6040805163de40657760e01b81526001600160a01b03948516979194600494602092909190838188818e5afa8015610448578291600091613f6d575b50169a169286519163226f120560e11b835283838881885afa91821561044857848d94600094613f48575b50828495613d0294958b8d519687948593849363442c159960e01b85528401612c4f565b03915afa9182156104485789938d8a8a8994600097613f22575b50600090613d409798519788958694859363f4d9375360e01b855230918501613948565b03925af190811561044857613d71928692613f05575b5089518093819263cd0211eb60e01b83528a308d850161380b565b03816000895af190811561044857600091613ee8575b50818110613e1c575b5050505084600014613e165730915b813b156101705760008094613dc88c97519788968795869463cce19f8160e01b86528501613948565b03925af1801561044857613e03575b50613de4575b5050505050565b613df994613df39136916110bb565b30615507565b3880808080613ddd565b8061043c613e1092610f84565b38613dd7565b81613d9f565b613e2a8491613e4593614da4565b8c89518080958194638eb22cdd60e01b8352888d8401612c4f565b03915afa92831561044857600093613ec9575b5050893b15610170578551630208d92960e11b8152308682019081526001600160a01b038616602082015260408101929092526060820192909252600090829081906080010381838d5af1801561044857613eb6575b808080613d90565b8061043c613ec392610f84565b38613eae565b613ee0929350803d10610923576109148183611023565b903880613e58565b613eff9150843d8611610923576109148183611023565b38613d87565b613f1b90833d8511610923576109148183611023565b5038613d56565b613d40975090613f40600092873d8911610923576109148183611023565b975090613d1c565b83945092613f65613d0294833d8511610923576109148183611023565b949350613cde565b613f849150853d8711610f1057610f018183611023565b38613cb3565b908092918237016000815290565b3d15613fc3573d90613fa9826110a0565b91613fb76040519384611023565b82523d6000602084013e565b606090565b826004116101705760e06003198385810103011261017057600092838093614062604051613ff581610fd2565b60048301359061400482610d89565b818152602484013561401581610d89565b6020820152604484013560408201526064840135606082015261403a60848501613122565b608082015260a484013560a082015260c484013560c0909101526001600160a01b0316615eb7565b61407160405180948193613f8a565b03925af19061407e613f98565b91159081614094575b5061408f5750565b614173565b90501538614087565b60c091926140ac818086612e39565b90809491810103126101705760405160c08101946001600160401b03861182871017610f975761406260009695879693879460405260a0808335936140f085610d89565b848452602081013561410181610d89565b60208501526040810135604085015261411c60608201613122565b60608501526080818101359085015201359101526001600160a01b0316615eb7565b9092919261414b816110a0565b916141596040519384611023565b829482845282820111610170576020610f57930190610175565b60448151106141e057600481015181019060208160248401930312610170576024810151906001600160401b03821161017057018160438201121561017057610d089181604460246141c8940151910161413e565b60405162461bcd60e51b815291829160048301612df2565b60405162461bcd60e51b815260206004820152601a60248201527926b0b3b732ba30b92b191d102932b0b9b7b7103ab735b737bbb760311b6044820152606490fd5b604051906101c082016001600160401b03811183821017610f9757604052816101a0600091828152826020820152826040820152826060820152826080820152606060a08201528260c08201528260e082015261427d612b74565b610100820152826101208201528261014082015282610160820152826101808201520152565b604051906142b082610fed565b60006040838281528260208201520152565b906142cc82612b5d565b6040906142db82519182611023565b83815280936142ec601f1991612b5d565b0191600091825b848110614301575050505050565b602090835161430f81611008565b614317614222565b8152614321612b74565b83908183015286868301526143346142a3565b60608301528285010152016142f3565b51906001600160401b038216820361017057565b908160609103126101705761436c81614344565b9161110d6040612bbb60208501614344565b6001600160401b039091169052565b9061439782612b5d565b6040906143a682519182611023565b83815280936143b7601f1991612b5d565b019160005b8381106143c95750505050565b60209082516143d781610f9c565b6143df614222565b81526143e9612b74565b81840152848201830152016143bc565b91908260409103126101705761110d602061441384614344565b9301614344565b906001600160a01b03821680156144f95730146144b5578161448d8261447c7f17307eab39ab6107e8899845ad3d59bd9653f200f220920489ca2b5937696c31956144773360018060a01b03166000526002602052604060002090565b6129e1565b9060ff801983541691151516179055565b604080513381526001600160a01b0392909216602083015291151591810191909152606090a1565b606460405162461bcd60e51b815260206004820152602060248201527f5969656c64426f783a2063616e277420617070726f7665207969656c64426f786044820152fd5b60405162461bcd60e51b815260206004820152601a602482015279165a595b19109bde0e881bdc195c985d1bdc881b9bdd081cd95d60321b6044820152606490fd5b919082608091031261017057815160058110156101705791602081015161456181610d89565b916060604083015161457281610d89565b92015190565b90816020910312610170575161110d81610f59565b6001600160a01b039091168152602081019190915260400190565b60405163de40657760e01b815296939591949093926000916020896004816001600160a01b038a165afa9889156104485783996148f7575b506040516377607a1760e11b8152906020826004816001600160a01b038b165afa9182156104485784926148d6575b50604051630cf35bdd60e41b815260048101839052916080836024816001600160a01b038f165afa9283156104485785936148b2575b50604051638eb22cdd60e01b8152906020828d81806146688a8760048401612c4f565b03916001600160a01b03165afa938415610448578c8b938896614891575b50846147a5575b506146a5925050506001600160a01b038b1688615658565b1561479e5730905b6001600160a01b0387163b1561479a576040516374d2492960e11b8152928492849283926146e0928c90600486016139cb565b0381836001600160a01b038a165af180156104485761472a926040928992614787575b508415614780573080985b84516314890dcb60e21b81529586948593849360048501613948565b03916001600160a01b0389165af1801561044857614762575b5061474f575050505050565b613df9946001600160a01b0316926155aa565b61477a9060403d60401161064a5761063a8183611023565b50614743565b878061470e565b8061043c61479492610f84565b38614703565b8380fd5b86906146ad565b8187916147c383602095889c6147bd6147ee9a615eb7565b9c615768565b60405163095ea7b360e01b81529586938492600092849290916001600160a01b03166004840161458d565b03926001600160a01b03165af1918215610448578c604092869261483395614872575b5060008451809681958294634d4d7cbd60e11b84523090309060048601613a3b565b03926001600160a01b03165af1801561044857614854575b8089918c61468d565b61486c9060403d60401161064a5761063a8183611023565b5061484b565b61488a9060203d602011611474576114658183611023565b5038614811565b8596506148ac9060203d602011610923576109148183611023565b95614686565b6148cb91935060803d81116114e2576114d08183611023565b505090509138614645565b6148f091925060203d602011610923576109148183611023565b903861460f565b61491191995060203d602011610f1057610f018183611023565b97386145e0565b6040805163226f120560e11b815260209795966001600160a01b03969495878516959394600494929390918b8287818b5afa91821561044857600092614b51575b50865163de40657760e01b81528c8188818c5afa8015610448578b918e600092614b34575b5050169387519a630cf35bdd60e41b8c5260808c806149a4878c83019190602083019252565b0381895afa91821561044857878f9d600094614b10575b50614a2e575b505050505060009392916149d491615658565b8214614a24576149f930935b5163cd0211eb60e01b815297889687958694850161380b565b03925af1801561044857614a0b575050565b81614a2192903d10610923576109148183611023565b50565b6149f985936149e0565b918660008593614a6f979b9a99989f958f908587918514614b0757614a54925033615768565b8a8d519889968795869363095ea7b360e01b8552840161458d565b0393165af1958615610448578c8893614aa698614ae9575b50508251634d4d7cbd60e11b81529687928392309081908a8601613a6a565b03816000855af1908115610448578a986000956149d493614acd575b8294959682946149c1565b614ae390883d8a1161064a5761063a8183611023565b50614ac2565b81614aff92903d10611474576114658183611023565b508c38614a87565b614a5492615768565b614b2991945060803d81116114e2576114d08183611023565b5050905092386149bb565b614b4a9250803d10610f1057610f018183611023565b388e61497e565b614b699192508c8d3d10610923576109148183611023565b9038614959565b6040805163226f120560e11b815260209592946001600160a01b0394858716939092600092600492918a8185818a5afa908115610448578591614d87575b50825163de40657760e01b81528b8186818b5afa8015610448578a918791614d6a575b501691835199630cf35bdd60e41b8b5260808b80614bf6868a83019190602083019252565b0381875afa9a8b1561044857879b614d46575b508451638eb22cdd60e01b81529a8d8c80614c2786888c8401612c4f565b0381885afa9a8b15610448578e9c899c614d27575b50614c53575b505050506122f5906149f999615658565b614c8d91939b9297614c648a615eb7565b97614c7081838c615768565b6000875195868095819463095ea7b360e01b83528a8d840161458d565b0393165af190811561044857614cc6998c8a928694614d09575b50508251634d4d7cbd60e11b81529a8b928392309081908a8601613a3b565b03816000855af1908115610448576149f9998b996122f593614ced575b819b839450614c42565b614d0390853d871161064a5761063a8183611023565b50614ce3565b81614d1f92903d10611474576114658183611023565b508c38614ca7565b614d3f919c508d803d10610923576109148183611023565b9a38614c3c565b614d5f919b5060803d81116114e2576114d08183611023565b505090509938614c09565b614d8191508d803d10610f1057610f018183611023565b38614bd1565b614d9e91508b3d8d11610923576109148183611023565b38614bae565b91908203918211612c2a57565b63843c6ae360e01b815260200190565b15614dc857565b60405162461bcd60e51b815260206004820152601260248201527153474c3a206e6f7420617661696c61626c6560701b6044820152606490fd5b6001600160a01b039091169052565b919094979293959761ffff8516156150ba575060408051630cf35bdd60e41b81526004808201849052919891936001600160a01b0390811691608081602481865afa90811561044857600091615098575b5016968951936301ffc9a760e01b8552602094858180614e838a8201614db1565b03818d5afa908161507b575b50614ea257505050505050505050505050565b8a51627eeac760e11b815292858480614ebe85878c840161458d565b0381845afa93841561044857614ef294879160009161505e575b508d518096819263442c159960e01b8352868c8401612c4f565b0381845afa92831561044857614f51948d94615041575b5083516311a5cc7760e31b81528881019384526001600160a01b0390911660208401523060408401526000606084018190526080840181905290948593849291839160a00190565b03925af1801561044857615025575b50341561501d57975b8751633b58a71760e21b8152828185818a5afa90811561044857600091615000575b5015614ff557600090915b614fa8614fa1611053565b9a8b614e02565b89015286880152833b1561017057614fd7600096519788968795869463695ef6bf60e01b865230908601613b6a565b03925af1801561044857614fe85750565b8061043c610f5792610f84565b506000606091614f96565b6150179150833d8511611474576114658183611023565b38614f8b565b503097614f69565b61503b90893d8b1161064a5761063a8183611023565b50614f60565b61505790883d8a11610923576109148183611023565b5038614f09565b6150759150823d8411610923576109148183611023565b38614ed8565b61509190873d8911611474576114658183611023565b5038614e8f565b6150b0915060803d81116114e2576114d08183611023565b5050905038614e62565b604080516311a5cc7760e31b81529950975088969295879550600094506001600160a01b039386936150f59392918616919060048601613a3b565b0393165af18015610448576151075750565b61511e9060403d811161064a5761063a8183611023565b5050565b919497929395969061ffff8516156153955760408051630cf35bdd60e41b81526004808201899052949193916001600160a01b039081169160808180602481015b0381865afa90811561044857600091615373575b5016978451936301ffc9a760e01b855260209485818c818061519a8d8201614db1565b03915afa9081615356575b506151b95750505050505050505050505050565b8551627eeac760e11b8152928584806151d586868d840161458d565b0381845afa93841561044857615209948791600091615339575b5088518096819263442c159960e01b8352878d8401612c4f565b0381845afa9182156104485760008f9594615231878c968c98859161531c575b501015614dc1565b6152508651978896879586946311a5cc7760e31b865230928601613a6a565b03925af1801561044857615300575b5034156152f857975b8251633b58a71760e21b8152828186818b5afa908115610448576000916152db575b50156152d057600090915b6152a0614fa1611053565b89015281880152843b1561017057600096614fd791519889978896879563695ef6bf60e01b875230908701613bc3565b506000606091615295565b6152f29150833d8511611474576114658183611023565b3861528a565b503097615268565b61531690843d861161064a5761063a8183611023565b5061525f565b61533391508c8d3d10610923576109148183611023565b38615229565b6153509150823d8411610923576109148183611023565b386151ef565b61536c90873d8911611474576114658183611023565b50386151a5565b61538b915060803d81116114e2576114d08183611023565b5050905038615177565b604080516311a5cc7760e31b81529990985089979396889650600095506001600160a01b03948794506150f5939086169160048601613a6a565b929498939697919561ffff861615615415575060408051630cf35bdd60e41b81526004808201899052949193916001600160a01b03908116916080818060248101615163565b604080516311a5cc7760e31b81529a9099508a989497899750600096506001600160a01b03958895506150f5949087169160048701613a99565b1561545657565b60405162461bcd60e51b815260206004820152602160248201527f4d61676e6574617256323a2077697468647261774461746120697320656d70746044820152607960f81b6064820152608490fd5b9080601f8301121561017057815161110d9260200161413e565b906080828203126101705781516154d581610f59565b9260208301516154e481611ff0565b92604081015192606082015160018060401b0381116101705761110d92016154a5565b909361552d60049594939461551e8151151561544f565b602080825183010191016154bf565b9490925034156155a157602034975b6040516377607a1760e11b8152998a9182906001600160a01b03165afa90811561044857610f5798600092615581575b50871561557a573396614e11565b3096614e11565b61559a91925060203d8111610923576109148183611023565b903861556c565b6020479761553c565b90936155c160049594939461551e8151151561544f565b94909250341561563557602034975b60405163226f120560e11b8152998a9182906001600160a01b03165afa90811561044857610f5798600092615615575b50871561560e573396615122565b3096615122565b61562e91925060203d8111610923576109148183611023565b9038615600565b602047976155d0565b6001600160a01b0391821681529116602082015260400190565b60405163e985e9c560e01b8082526020936001600160a01b0390811693169084838061568885306004840161563e565b0381875afa801561044857859360009161574b575b50156156e6575b926156be936040518095819482938352306004840161563e565b03915afa8015610448576156d0575050565b81614a2192903d10611474576114658183611023565b9150823b156101705760405163a22cb46560e01b81526001600160a01b0382166004820152600160248201529260008460448183855af1928315610448576156be948694615738575b509093506156a4565b8061043c61574592610f84565b3861572f565b6157629150843d8611611474576114658183611023565b3861569d565b6157f59160018060a01b0316600080604051936157ac8561579e6020998a8301946323b872dd60e01b8652309060248501613948565b03601f198101875286611023565b604051946157b986610f9c565b8786527f5361666545524332303a206c6f772d6c6576656c2063616c6c206661696c656488870152519082855af16157ef613f98565b91615871565b8051908161580257505050565b8280615812938301019101614578565b1561581a5750565b6084906040519062461bcd60e51b82526004820152602a60248201527f5361666545524332303a204552433230206f7065726174696f6e20646964206e6044820152691bdd081cdd58d8d9595960b21b6064820152fd5b919290156158d35750815115615885575090565b3b1561588e5790565b60405162461bcd60e51b815260206004820152601d60248201527f416464726573733a2063616c6c20746f206e6f6e2d636f6e74726163740000006044820152606490fd5b8251909150156158e65750805190602001fd5b60405162461bcd60e51b8152908190610d089060048301612df2565b906020828203126101705781516001600160401b0381116101705761110d92016154a5565b9190826040910312610170576020825161457281610f59565b90615949614222565b50615952612b74565b5061595b614222565b6040805163d8dfeb4560e01b815291936004936020936001600160a01b03918216929085818881875afa80156104485761599e91600091615e9a575b5088614e02565b83516338d52e0f60e01b815285818881875afa8015610448576159cc91600091615e7d575b50858901614e02565b83516307dc0d1d60e41b808252919086818981885afa90811561044857615a02918591600091615e60575b501660808a01614e02565b84516374645ff360e01b80825291906000818a81895afa90811561044857600091615e47575b5060a08a0152855163473e3ce760e01b815287818a81895afa90811561044857600091615e2a575b5060c08a01528551631c9e379b60e01b8152878180615a71858d8301611fb4565b0381895afa90811561044857600091615e0d575b5060e08a0152855163020a17bd60e61b81529086828a81895afa90811561044857615aec9289926000918291615dea575b50615ace90615ac6612648611046565b848301612bce565b6101008c01528751809381926324720b1f60e11b83528c8301611fb4565b0381885afa90811561044857600091615dcd575b506101208901528451633ba0b9a960e01b815286818981885afa90811561044857600091615db0575b50610140890152845182815286818981885afa90811561044857600091615d93575b5085518281526000818a81895afa801561044857615b89928892600092615d78575b508a87845180968195829463eeb8a8d360e01b84528301612df2565b0392165afa90811561044857600091615d49575b50610180890152845191825285828881875afa91821561044857600092615d2a575b5084519081526000818881875afa918215610448578692615bfd92600091615d09575b508651948580948193630d39bbef60e41b83528c8301612df2565b0392165afa90811561044857600091615cec575b5061016086015281516340626d8b60e01b815283818681855afa90811561044857600091615ccf575b506101a0860152815163226f120560e11b81529183838681855afa8015610448578493600091615cb2575b506060870152516377607a1760e11b815293849182905afa91821561044857600092615c93575b5082015290565b81615cab9293503d8411610923576109148183611023565b9038615c8c565b615cc99150843d8611610923576109148183611023565b38615c65565b615ce69150843d8611610923576109148183611023565b38615c3a565b615d039150843d8611610923576109148183611023565b38615c11565b615d24913d8091833e615d1c8183611023565b810190615902565b38615be2565b615d42919250863d8811610f1057610f018183611023565b9038615bbf565b615d699150863d8811615d71575b615d618183611023565b810190615927565b905038615b9d565b503d615d57565b615d8c91923d8091833e615d1c8183611023565b9038615b6d565b615daa9150873d8911610f1057610f018183611023565b38615b4b565b615dc79150873d8911610923576109148183611023565b38615b29565b615de49150873d8911610923576109148183611023565b38615b00565b615ace9250615e0691508a3d8c11610f4557610f338183611023565b9091615ab6565b615e249150883d8a11610923576109148183611023565b38615a85565b615e419150883d8a11610923576109148183611023565b38615a50565b615e5a913d8091833e615d1c8183611023565b38615a28565b615e779150893d8b11610f1057610f018183611023565b386159f7565b615e949150873d8911610f1057610f018183611023565b386159c3565b615eb19150873d8911610f1057610f018183611023565b38615997565b60018060a01b0316338114908115615f21575b5015615ed257565b60405162461bcd60e51b815260206004820152602160248201527f4d61676e6574617256323a206f70657261746f72206e6f7420617070726f76656044820152601960fa1b6064820152608490fd5b90506000526002602052600160ff615f3d3360406000206129e1565b541615151438615eca56fe8be0079c531659141344cd1fd0a4f28419497f9722a3daafe3b4186f6b6457e0a26469706673582212202a59dbd989f98343ce975c2a5ce91b9543b3bb23ecab0c9585e20e0c3205567564736f6c63430008120033",
  "linkReferences": {},
  "deployedLinkReferences": {}
}