{
  "_format": "hh-sol-artifact-1",
  "contractName": "MagnetarMarketModule",
  "sourceName": "contracts/Magnetar/modules/MagnetarMarketModule.sol",
  "abi": [
    {
      "anonymous": false,
      "inputs": [
        {
          "indexed": true,
          "internalType": "address",
          "name": "owner",
          "type": "address"
        },
        {
          "indexed": true,
          "internalType": "address",
          "name": "operator",
          "type": "address"
        },
        {
          "indexed": false,
          "internalType": "bool",
          "name": "approved",
          "type": "bool"
        }
      ],
      "name": "ApprovalForAll",
      "type": "event"
    },
    {
      "anonymous": false,
      "inputs": [
        {
          "indexed": true,
          "internalType": "address",
          "name": "oldCluster",
          "type": "address"
        },
        {
          "indexed": true,
          "internalType": "address",
          "name": "newCluster",
          "type": "address"
        }
      ],
      "name": "ClusterSet",
      "type": "event"
    },
    {
      "inputs": [],
      "name": "cluster",
      "outputs": [
        {
          "internalType": "contract ICluster",
          "name": "",
          "type": "address"
        }
      ],
      "stateMutability": "view",
      "type": "function"
    },
    {
      "inputs": [
        {
          "internalType": "contract IMarket",
          "name": "market",
          "type": "address"
        },
        {
          "internalType": "address",
          "name": "user",
          "type": "address"
        },
        {
          "internalType": "uint256",
          "name": "collateralAmount",
          "type": "uint256"
        },
        {
          "internalType": "uint256",
          "name": "borrowAmount",
          "type": "uint256"
        },
        {
          "internalType": "bool",
          "name": "extractFromSender",
          "type": "bool"
        },
        {
          "internalType": "bool",
          "name": "deposit",
          "type": "bool"
        },
        {
          "components": [
            {
              "internalType": "bool",
              "name": "withdraw",
              "type": "bool"
            },
            {
              "internalType": "uint256",
              "name": "withdrawLzFeeAmount",
              "type": "uint256"
            },
            {
              "internalType": "bool",
              "name": "withdrawOnOtherChain",
              "type": "bool"
            },
            {
              "internalType": "uint16",
              "name": "withdrawLzChainId",
              "type": "uint16"
            },
            {
              "internalType": "bytes",
              "name": "withdrawAdapterParams",
              "type": "bytes"
            }
          ],
          "internalType": "struct ICommonData.IWithdrawParams",
          "name": "withdrawParams",
          "type": "tuple"
        },
        {
          "internalType": "uint256",
          "name": "valueAmount",
          "type": "uint256"
        }
      ],
      "name": "depositAddCollateralAndBorrowFromMarket",
      "outputs": [],
      "stateMutability": "payable",
      "type": "function"
    },
    {
      "inputs": [
        {
          "internalType": "address",
          "name": "market",
          "type": "address"
        },
        {
          "internalType": "address",
          "name": "user",
          "type": "address"
        },
        {
          "internalType": "uint256",
          "name": "depositAmount",
          "type": "uint256"
        },
        {
          "internalType": "uint256",
          "name": "repayAmount",
          "type": "uint256"
        },
        {
          "internalType": "uint256",
          "name": "collateralAmount",
          "type": "uint256"
        },
        {
          "internalType": "bool",
          "name": "extractFromSender",
          "type": "bool"
        },
        {
          "components": [
            {
              "internalType": "bool",
              "name": "withdraw",
              "type": "bool"
            },
            {
              "internalType": "uint256",
              "name": "withdrawLzFeeAmount",
              "type": "uint256"
            },
            {
              "internalType": "bool",
              "name": "withdrawOnOtherChain",
              "type": "bool"
            },
            {
              "internalType": "uint16",
              "name": "withdrawLzChainId",
              "type": "uint16"
            },
            {
              "internalType": "bytes",
              "name": "withdrawAdapterParams",
              "type": "bytes"
            }
          ],
          "internalType": "struct ICommonData.IWithdrawParams",
          "name": "withdrawCollateralParams",
          "type": "tuple"
        },
        {
          "internalType": "uint256",
          "name": "valueAmount",
          "type": "uint256"
        }
      ],
      "name": "depositRepayAndRemoveCollateralFromMarket",
      "outputs": [],
      "stateMutability": "payable",
      "type": "function"
    },
    {
      "inputs": [
        {
          "internalType": "address",
          "name": "user",
          "type": "address"
        },
        {
          "components": [
            {
              "internalType": "address",
              "name": "magnetar",
              "type": "address"
            },
            {
              "internalType": "address",
              "name": "singularity",
              "type": "address"
            },
            {
              "internalType": "address",
              "name": "bigBang",
              "type": "address"
            }
          ],
          "internalType": "struct ICommonData.ICommonExternalContracts",
          "name": "externalData",
          "type": "tuple"
        },
        {
          "components": [
            {
              "internalType": "bool",
              "name": "removeAssetFromSGL",
              "type": "bool"
            },
            {
              "internalType": "uint256",
              "name": "removeAmount",
              "type": "uint256"
            },
            {
              "internalType": "bool",
              "name": "repayAssetOnBB",
              "type": "bool"
            },
            {
              "internalType": "uint256",
              "name": "repayAmount",
              "type": "uint256"
            },
            {
              "internalType": "bool",
              "name": "removeCollateralFromBB",
              "type": "bool"
            },
            {
              "internalType": "uint256",
              "name": "collateralAmount",
              "type": "uint256"
            },
            {
              "components": [
                {
                  "internalType": "bool",
                  "name": "exit",
                  "type": "bool"
                },
                {
                  "internalType": "address",
                  "name": "target",
                  "type": "address"
                },
                {
                  "internalType": "uint256",
                  "name": "oTAPTokenID",
                  "type": "uint256"
                }
              ],
              "internalType": "struct ITapiocaOptionsBroker.IOptionsExitData",
              "name": "exitData",
              "type": "tuple"
            },
            {
              "components": [
                {
                  "internalType": "bool",
                  "name": "unlock",
                  "type": "bool"
                },
                {
                  "internalType": "address",
                  "name": "target",
                  "type": "address"
                },
                {
                  "internalType": "uint256",
                  "name": "tokenId",
                  "type": "uint256"
                }
              ],
              "internalType": "struct ITapiocaOptionLiquidityProvision.IOptionsUnlockData",
              "name": "unlockData",
              "type": "tuple"
            },
            {
              "components": [
                {
                  "internalType": "bool",
                  "name": "withdraw",
                  "type": "bool"
                },
                {
                  "internalType": "uint256",
                  "name": "withdrawLzFeeAmount",
                  "type": "uint256"
                },
                {
                  "internalType": "bool",
                  "name": "withdrawOnOtherChain",
                  "type": "bool"
                },
                {
                  "internalType": "uint16",
                  "name": "withdrawLzChainId",
                  "type": "uint16"
                },
                {
                  "internalType": "bytes",
                  "name": "withdrawAdapterParams",
                  "type": "bytes"
                }
              ],
              "internalType": "struct ICommonData.IWithdrawParams",
              "name": "assetWithdrawData",
              "type": "tuple"
            },
            {
              "components": [
                {
                  "internalType": "bool",
                  "name": "withdraw",
                  "type": "bool"
                },
                {
                  "internalType": "uint256",
                  "name": "withdrawLzFeeAmount",
                  "type": "uint256"
                },
                {
                  "internalType": "bool",
                  "name": "withdrawOnOtherChain",
                  "type": "bool"
                },
                {
                  "internalType": "uint16",
                  "name": "withdrawLzChainId",
                  "type": "uint16"
                },
                {
                  "internalType": "bytes",
                  "name": "withdrawAdapterParams",
                  "type": "bytes"
                }
              ],
              "internalType": "struct ICommonData.IWithdrawParams",
              "name": "collateralWithdrawData",
              "type": "tuple"
            }
          ],
          "internalType": "struct IUSDOBase.IRemoveAndRepay",
          "name": "removeAndRepayData",
          "type": "tuple"
        },
        {
          "internalType": "uint256",
          "name": "valueAmount",
          "type": "uint256"
        },
        {
          "internalType": "contract ICluster",
          "name": "_cluster",
          "type": "address"
        }
      ],
      "name": "exitPositionAndRemoveCollateral",
      "outputs": [],
      "stateMutability": "payable",
      "type": "function"
    },
    {
      "inputs": [
        {
          "internalType": "address",
          "name": "user",
          "type": "address"
        },
        {
          "internalType": "uint256",
          "name": "lendAmount",
          "type": "uint256"
        },
        {
          "components": [
            {
              "internalType": "bool",
              "name": "mint",
              "type": "bool"
            },
            {
              "internalType": "uint256",
              "name": "mintAmount",
              "type": "uint256"
            },
            {
              "components": [
                {
                  "internalType": "bool",
                  "name": "deposit",
                  "type": "bool"
                },
                {
                  "internalType": "uint256",
                  "name": "amount",
                  "type": "uint256"
                },
                {
                  "internalType": "bool",
                  "name": "extractFromSender",
                  "type": "bool"
                }
              ],
              "internalType": "struct ICommonData.IDepositData",
              "name": "collateralDepositData",
              "type": "tuple"
            }
          ],
          "internalType": "struct IUSDOBase.IMintData",
          "name": "mintData",
          "type": "tuple"
        },
        {
          "components": [
            {
              "internalType": "bool",
              "name": "deposit",
              "type": "bool"
            },
            {
              "internalType": "uint256",
              "name": "amount",
              "type": "uint256"
            },
            {
              "internalType": "bool",
              "name": "extractFromSender",
              "type": "bool"
            }
          ],
          "internalType": "struct ICommonData.IDepositData",
          "name": "depositData",
          "type": "tuple"
        },
        {
          "components": [
            {
              "internalType": "bool",
              "name": "lock",
              "type": "bool"
            },
            {
              "internalType": "address",
              "name": "target",
              "type": "address"
            },
            {
              "internalType": "uint128",
              "name": "lockDuration",
              "type": "uint128"
            },
            {
              "internalType": "uint128",
              "name": "amount",
              "type": "uint128"
            },
            {
              "internalType": "uint256",
              "name": "fraction",
              "type": "uint256"
            }
          ],
          "internalType": "struct ITapiocaOptionLiquidityProvision.IOptionsLockData",
          "name": "lockData",
          "type": "tuple"
        },
        {
          "components": [
            {
              "internalType": "bool",
              "name": "participate",
              "type": "bool"
            },
            {
              "internalType": "address",
              "name": "target",
              "type": "address"
            },
            {
              "internalType": "uint256",
              "name": "tOLPTokenId",
              "type": "uint256"
            }
          ],
          "internalType": "struct ITapiocaOptionsBroker.IOptionsParticipateData",
          "name": "participateData",
          "type": "tuple"
        },
        {
          "components": [
            {
              "internalType": "address",
              "name": "magnetar",
              "type": "address"
            },
            {
              "internalType": "address",
              "name": "singularity",
              "type": "address"
            },
            {
              "internalType": "address",
              "name": "bigBang",
              "type": "address"
            }
          ],
          "internalType": "struct ICommonData.ICommonExternalContracts",
          "name": "externalContracts",
          "type": "tuple"
        },
        {
          "internalType": "contract ICluster",
          "name": "_cluster",
          "type": "address"
        }
      ],
      "name": "mintFromBBAndLendOnSGL",
      "outputs": [],
      "stateMutability": "payable",
      "type": "function"
    },
    {
      "inputs": [
        {
          "internalType": "contract IYieldBoxBase",
          "name": "yieldBox",
          "type": "address"
        },
        {
          "internalType": "address",
          "name": "from",
          "type": "address"
        },
        {
          "internalType": "uint256",
          "name": "assetId",
          "type": "uint256"
        },
        {
          "internalType": "uint16",
          "name": "dstChainId",
          "type": "uint16"
        },
        {
          "internalType": "bytes32",
          "name": "receiver",
          "type": "bytes32"
        },
        {
          "internalType": "uint256",
          "name": "amount",
          "type": "uint256"
        },
        {
          "internalType": "bytes",
          "name": "adapterParams",
          "type": "bytes"
        },
        {
          "internalType": "address payable",
          "name": "refundAddress",
          "type": "address"
        },
        {
          "internalType": "uint256",
          "name": "gas",
          "type": "uint256"
        }
      ],
      "name": "withdrawToChain",
      "outputs": [],
      "stateMutability": "payable",
      "type": "function"
    },
    {
      "stateMutability": "payable",
      "type": "receive"
    }
  ],
  "bytecode": "0x608080604052346100165761431d908161001c8239f35b600080fdfe608080604052600436101561001d575b50361561001b57600080fd5b005b600090813560e01c90816316e55a1d14612ea55750806323ca9c7d146128b557806325e0e3311461144c5780634f1dbd4214610131578063dbd01de11461010a5763de5761470361000f57610120366003190112610107576001600160a01b0360043581811681036101035761009161341d565b916064359161ffff831683036100ff5760c4356001600160401b0381116100fb57366023820112156100fb576100d19036906024816004013591016134c4565b9060e43592831683036100fb576100f894610104359460a435926084359260443591613bad565b80f35b8580fd5b8480fd5b8280fd5b80fd5b5034610107578060031936011261010757546040516001600160a01b039091168152602090f35b506003199060e03683011261010757610148613407565b916060366023190112611448576001600160401b0360843511611448576101c090608435360301126101075760c4356001600160a01b038116810361061f576040516348be20ab60e11b81526020816004816001600160a01b0386165afa908115611382578391611408575b5060206101df916101c36137ad565b604051633a304d8b60e21b8152938492839290600484016137fc565b03816001600160a01b0386165afa80156113825783906113cd575b610204915061381a565b6040516348be20ab60e11b81526020816004816001600160a01b0386165afa90811561138257839161138d575b506020610240916101c36137c3565b03816001600160a01b0386165afa8015611382578390611347575b6102659150613866565b6001600160a01b036102756137ad565b16906001600160a01b036102876137c3565b16936040519163de40657760e01b8352602083600481895afa92831561068b578593611316575b5084906102bf60c460843501613615565b610da7575b6102d361012460843501613615565b610ba0575b50506102e8608435600401613615565b61096d575b61030a61030561018460843501608435600401613b75565b613615565b1580610959575b610700575b6103236084803501613615565b61033e575b506100f8916001600160a01b0390911690614100565b6040516377607a1760e11b8152602081600481875afa90811561068b5785916106ce575b50604051638eb22cdd60e01b8152600481019190915260843560a401356024820152604481018590526020816064816001600160a01b0387165afa90811561068b57859161069c575b506103c46103056101a460843501608435600401613b75565b1561069657305b843b156100fb5760405163cce19f8160e01b8152918691839182916103f591908760048501613622565b038183885af1801561068b57908591610673575b50506104236103056101a460843501608435600401613b75565b156103285761044860406104426101a460843501608435600401613b75565b01613615565b906104ba61046c60606104666101a460843501608435600401613b75565b01613644565b6104ac6104916104876101a460843501608435600401613b75565b6080810190613653565b90604051968794602086019760018060a01b03169188613685565b03601f198101845283613486565b8151156106245781518201906080836020840193031261061f576104dd90613567565b6104e9604084016137ed565b6060840151608085015190946001600160401b03821161061f57019183603f8401121561061f5760208301519261051f846134a9565b9461052d6040519687613486565b8486526040858301011161061f5760049361054f916040602088019101613b19565b60a43534811161061557602090995b6040516377607a1760e11b815294859182905afa928315610609576000936105d3575b50916100f8979893916105bd95936000906000146105cb5750925b84156105c45733935b60843560a4013592306001600160a01b038a16613bad565b8392610328565b30936105a5565b90509261059c565b90926020823d602011610601575b816105ee60209383613486565b81010312610107575051916100f8610581565b3d91506105e1565b6040513d6000823e3d90fd5b506020479961055e565b600080fd5b60405162461bcd60e51b815260206004820152602160248201527f4d61676e6574617256323a2077697468647261774461746120697320656d70746044820152607960f81b6064820152608490fd5b61067c90613442565b610687578338610409565b8380fd5b6040513d87823e3d90fd5b816103cb565b90506020813d6020116106c6575b816106b760209383613486565b8101031261061f5751386103ab565b3d91506106aa565b90506020813d6020116106f8575b816106e960209383613486565b8101031261061f575138610362565b3d91506106dc565b6107136001600160a01b03831684614041565b60405163cd0211eb60e01b81526020818061073960843560640135863060048501613728565b038188885af190811561068b578591610927575b50602460843501358110610762575b50610316565b60405163226f120560e11b815290602082600481885afa9182156108a75786926108f3575b5060405163226f120560e11b815290602082600481895afa9182156108e85787926108b2575b506107be9060246084350135613b8a565b604051638eb22cdd60e01b815260048101929092526024820152604481018690526020816064816001600160a01b0388165afa9081156108a7578691610875575b506001600160a01b0384163b156100fb5760405191630208d92960e11b835230600484015260018060a01b03841660248401526044830152606482015284816084818360018060a01b0388165af1801561068b57908591610861575b5061075c565b61086a90613442565b61068757833861085b565b90506020813d60201161089f575b8161089060209383613486565b8101031261061f5751386107ff565b3d9150610883565b6040513d88823e3d90fd5b9091506020813d6020116108e0575b816108ce60209383613486565b8101031261061f5751906107be6107ad565b3d91506108c1565b6040513d89823e3d90fd5b9091506020813d60201161091f575b8161090f60209383613486565b8101031261061f57519038610787565b3d9150610902565b90506020813d602011610951575b8161094260209383613486565b8101031261061f57513861074d565b3d9150610935565b50610968604460843501613615565b610311565b60405163226f120560e11b8152602081600481895afa90811561068b578591610b6e575b50604051638eb22cdd60e01b81526004810191909152602460843581013590820152604481018590526020816064816001600160a01b0387165afa90811561068b578591610b3b575b506020610a23916109f961030561018460843501608435600401613b75565b8015610b27575b15610b2157305b60405163f4d9375360e01b815293849283928760048501613622565b0381888a5af1801561068b57610af6575b50610a4d61030561018460843501608435600401613b75565b156102ed57610af1610a6f604061044261018460843501608435600401613b75565b610ad2610a8c606061046661018460843501608435600401613b75565b610ac4610aa761048761018460843501608435600401613b75565b6040519586949192916001600160a01b038a169160208701613685565b03601f198101835282613486565b60a4359060843560240135906001600160a01b03861690899030613ee6565b6102ed565b602090813d8311610b1a575b610b0c8183613486565b8101031261061f5738610a34565b503d610b02565b83610a07565b50610b36604460843501613615565b610a00565b90506020813d602011610b66575b81610b5660209383613486565b8101031261061f575160206109da565b3d9150610b49565b90506020813d602011610b98575b81610b8960209383613486565b8101031261061f575138610991565b3d9150610b7c565b6040516348be20ab60e11b81526020816004816001600160a01b0386165afa9081156108e8578791610d67575b506020610c03916101446084350193610be5856137d9565b604051633a304d8b60e21b81529485938492839291600484016137fc565b03916001600160a01b03165afa80156108e8578790610d28575b610c2791506138b2565b610164608435013580610cca575b506020906001600160a01b0390610c4b906137d9565b16916064610c576137c3565b6040516330dce68f60e11b815260048101939093526001600160a01b039081166024840152851660448301529092839190829089905af1801561068b57610c9f575b806102d8565b602090813d8311610cc3575b610cb58183613486565b8101031261061f5738610c99565b503d610cab565b909180610cdb575b50906020610c35565b8103610ce75738610cd2565b60405162461bcd60e51b815260206004820152601960248201527809ac2cedccae8c2e47440e89e98a092c840dad2e6dac2e8c6d603b1b6044820152606490fd5b506020813d602011610d5f575b81610d4260209383613486565b81010312610d5b57610d56610c2791613567565b610c1d565b8680fd5b3d9150610d35565b90506020813d602011610d9f575b81610d8260209383613486565b81010312610d5b576020610d98610c03926137ed565b9150610bcd565b3d9150610d75565b90506101046084350135156112d7576040516348be20ab60e11b81526020816004816001600160a01b0386165afa9081156108a7578691611297575b506020610df8916101c360e4608435016137d9565b03816001600160a01b0386165afa9081156108a757869161125d575b50156112195760049060206001600160a01b03610e3560843560e4016137d9565b1660405193848092635ad7038760e01b82525afa9182156108a75786926111dd575b5060405163682ee63560e11b8152608435610104013560048201526080816024816001600160a01b0387165afa80156108e8578790611165575b60409081015190516331a9108f60e11b815260843561010401356004820152909391506020816024816001600160a01b0386165afa90811561115a57889161111c575b506001600160a01b0385811691169081149081908115611112575b50156110c157611053575b506001600160a01b03610f1160843560e4016137d9565b16803b15610d5b578680916024604051809481936378dc905960e01b8352610104608435013560048401525af180156108e85790879161103f575b5050610f5d61012460843501613615565b6102c457600460206001600160a01b03610f7b60843560e4016137d9565b16604051928380926272410960e91b82525afa9081156108e8578791611005575b506001600160a01b0381163b15610d5b57866040518092635c46a7ef60e11b8252818381610fcf898b30600485016138fd565b03926001600160a01b03165af180156108e857908791610ff1575b50506102c4565b610ffa90613442565b6100fb578538610fea565b90506020813d602011611037575b8161102060209383613486565b81010312610d5b576110319061351a565b38610f9c565b3d9150611013565b61104890613442565b6100fb578538610f4c565b6001600160a01b0381163b15610d5b57866040518092635c46a7ef60e11b825281838161108c6101046084350135308c600485016138fd565b03926001600160a01b03165af180156108e8579087916110ad575b50610efa565b6110b690613442565b6100fb5785386110a7565b60405162461bcd60e51b8152602060048201526024808201527f4d61676e657461723a206f544150546f6b656e4944206f776e6572206d69736d6044820152630c2e8c6d60e31b6064820152608490fd5b9050301438610eef565b90506020813d602011611152575b8161113760209383613486565b8101031261114e576111489061351a565b38610ed4565b8780fd5b3d915061112a565b6040513d8a823e3d90fd5b508060803d81116111d6575b61117b8183613486565b8101036080811261114e576060906111928361351a565b50601f190112610d5b5760409060608251916111ad8361346b565b6111b960208201613b61565b83526111c6848201613b61565b6020840152015182820152610e91565b503d611171565b9091506020813d602011611211575b816111f960209383613486565b810103126100fb5761120a9061351a565b9038610e57565b3d91506111ec565b606460405162461bcd60e51b815260206004820152602060248201527f4d61676e6574617256323a206f544150206e6f742077686974656c69737465646044820152fd5b90506020813d60201161128f575b8161127860209383613486565b810103126100fb5761128990613567565b38610e14565b3d915061126b565b90506020813d6020116112cf575b816112b260209383613486565b810103126100fb5760206112c8610df8926137ed565b9150610de3565b3d91506112a5565b60405162461bcd60e51b815260206004820152601760248201527604d61676e657461723a206f544150546f6b656e4944203604c1b6044820152606490fd5b61133991935060203d602011611340575b6113318183613486565b8101906134fb565b91386102ae565b503d611327565b506020813d60201161137a575b8161136160209383613486565b810103126101035761137561026591613567565b61025b565b3d9150611354565b6040513d85823e3d90fd5b90506020813d6020116113c5575b816113a860209383613486565b810103126101035760206113be610240926137ed565b9150610231565b3d915061139b565b506020813d602011611400575b816113e760209383613486565b81010312610103576113fb61020491613567565b6101fa565b3d91506113da565b90506020813d602011611440575b8161142360209383613486565b810103126101035760206114396101df926137ed565b91506101b4565b3d9150611416565b5080fd5b506102c036600319011261010757611462613407565b60a03660431901126114485760603660e31901126114485760a036610143190112611448576060366101e319011261144857606036610243190112611448576102a4356001600160a01b038116810361061f57604051916114c28361346b565b604435801515810361061f5783526064356020840152606036608319011261061f576040516114f08161346b565b608435801515810361061f57815260a435602082015260c435801515810361061f5760408201526040840152604051906115298261346b565b60e435801515810361061f578252610104356020830152610124351515610124350361061f57610124356040830152602435916001600160a01b0361156c613751565b16936001600160a01b0361157e613768565b16936040519663de40657760e01b8852602088600481895afa978815611dc2578998612894575b506001600160a01b036115b6613751565b166127b3575b6001600160a01b036115cc613768565b166126d2575b856126ba575b866126a2575b8051612228575b5060405163226f120560e11b815290602082600481895afa918215611dc25789926121f4575b50604051630cf35bdd60e41b8152600481018390526080816024816001600160a01b038d165afa908115612114578a916121c2575b508451611ffd575b508893811580611ff3575b611fe7575b5080611efe575b5050869161014435801515810361061f57611ac0575b5061167e613605565b6116c9575b505050806116af575b5080611696578280f35b6116a9916001600160a01b031690614100565b38808280f35b6116c3906001600160a01b03841690614100565b3861168c565b6040516348be20ab60e11b81526020816004816001600160a01b0386165afa90811561115a578891611a7e575b5060209061170692610be5613796565b03916001600160a01b03165afa9081156108e8578791611a44575b50156119ff5761022435806119a0575b506001600160a01b0361174261377f565b161561195b57801561191c5785916001600160a01b0361176061377f565b169161176a613796565b92803b156100ff57818591611796958360405180988195829463095ea7b360e01b845260048401613574565b03925af19283156118c2578493611904575b5060209060246001600160a01b036117be613796565b1691604051958693849263422e498360e11b845260048401525af19182156113825783926118cd575b50600460206001600160a01b036117fc613796565b1660405192838092635ad7038760e01b82525afa9081156118c2578491611888575b506001600160a01b031691823b156106875761185492849283604051809681958294635c46a7ef60e11b845230600485016138fd565b03925af1801561187d57611869575b80611683565b61187290613442565b610687578338611863565b6040513d84823e3d90fd5b90506020813d6020116118ba575b816118a360209383613486565b81010312610687576118b49061351a565b3861181e565b3d9150611896565b6040513d86823e3d90fd5b925090506020823d6020116118fc575b816118ea60209383613486565b8101031261061f5785915190386117e7565b3d91506118dd565b61191090939193613442565b610103578291386117a8565b60405162461bcd60e51b815260206004820152601760248201527604d61676e657461723a20744f4c50546f6b656e4964203604c1b6044820152606490fd5b60405162461bcd60e51b815260206004820152601e60248201527f4d61676e657461723a206c6f636b20746172676574206d69736d6174636800006044820152606490fd5b90806119ae575b5038611731565b81036119ba57386119a7565b60405162461bcd60e51b815260206004820152601e60248201527f4d61676e657461723a20744f4c50546f6b656e4964206d69736d6174636800006044820152606490fd5b60405162461bcd60e51b815260206004820152601f60248201527f4d61676e6574617256323a20744f42206e6f742077686974656c6973746564006044820152606490fd5b90506020813d602011611a76575b81611a5f60209383613486565b81010312610d5b57611a7090613567565b38611721565b3d9150611a52565b90506020813d602011611ab8575b81611a9960209383613486565b8101031261114e5761170691611ab06020926137ed565b9150916116f6565b3d9150611a8c565b6040516348be20ab60e11b81529192506020826004816001600160a01b0387165afa91821561115a578892611ebe575b506020611b1b92611aff61377f565b604051633a304d8b60e21b8152948592839290600484016137fc565b03816001600160a01b0387165afa91821561115a578892611e7e575b50611b436024926138b2565b6101c43580611e76575b5060606001600160a01b03611b6061377f565b1660405193848092633873b0cd60e01b82528960048301525afa91821561115a578892611e42575b508015611e0657611b9b81308688613939565b60405163095ea7b360e01b81526001600160a01b0388166004820152602481018990526020816044818c8a5af18015611dc257611dcd575b5060405163095ea7b360e01b815260208180611bfc856001600160a01b038d1660048401613574565b03818c8a5af18015611dc257611d7c575b5060408051634d4d7cbd60e11b815292909183918291611c349130908190600486016135a5565b03818a6001600160a01b038b165af180156108e857611d4e575b50611c696001600160a01b038616611c6461377f565b614041565b611c71613605565b15611d4857305b6001600160a01b03611c8861377f565b16906101843560018060801b039283821680920361061f576101a43593841680940361061f576020928a60849260405196879586946362e8f3db60e11b865260018060a01b031660048601528b6024860152604485015260648401525af19081156108e8578791611d16575b5090611d106001600160a01b038716611d0b61377f565b614100565b38611675565b90506020813d602011611d40575b81611d3160209383613486565b8101031261061f575138611cf4565b3d9150611d24565b81611c78565b611d6f9060403d604011611d75575b611d678183613486565b81019061358f565b50611c4e565b503d611d5d565b906020823d602011611dba575b81611d9660209383613486565b81010312611db657611c3492611dad604093613567565b50925090611c0d565b8880fd5b3d9150611d89565b6040513d8b823e3d90fd5b6020813d602011611dfe575b81611de660209383613486565b81010312611db657611df790613567565b5038611bd3565b3d9150611dd9565b60405162461bcd60e51b815260206004820152601460248201527304d61676e657461723a206672616374696f6e20360641b6044820152606490fd5b9091506060813d606011611e6e575b81611e5e60609383613486565b8101031261114e57519038611b88565b3d9150611e51565b905038611b4d565b91506020823d602011611eb6575b81611e9960209383613486565b8101031261114e57611b43611eaf602493613567565b9250611b37565b3d9150611e8c565b91506020823d602011611ef6575b81611ed960209383613486565b8101031261114e576020611eef611b1b936137ed565b9250611af0565b3d9150611ecc565b604051638eb22cdd60e01b815260048101929092526024820152604481018890529091506020816064816001600160a01b038a165afa9081156108e8578791611fb4575b506020611f659160405180938192630cb0f5b760e31b8352878060048501613728565b03818a885af19081156108e8578791611f82575b5090388061165f565b90506020813d602011611fac575b81611f9d60209383613486565b8101031261061f575138611f79565b3d9150611f90565b90506020813d602011611fdf575b81611fcf60209383613486565b8101031261061f57516020611f42565b3d9150611fc2565b60209150015138611658565b5080511515611653565b6040850151156121b4575b6040850151156121ab57612023335b826020880151916141bd565b60208681019190915260405163095ea7b360e01b81526001600160a01b03808c166004830152602482018d9052909190829060449082908f9087165af180156121a05761215c575b50602061209d9181870151908b8d60405180968195829463095ea7b360e01b845260018060a01b031660048401613574565b03926001600160a01b03165af180156121145761211f575b506120dc60406020860151815180938192634d4d7cbd60e11b83528a3089600486016135a5565b03818d6001600160a01b038e165af1801561211457156116485761210e9060403d604011611d7557611d678183613486565b50611648565b6040513d8c823e3d90fd5b6020813d602011612154575b8161213860209383613486565b810103126121505761214990613567565b50386120b5565b8980fd5b3d915061212b565b6020813d602011612198575b8161217560209383613486565b810103126121945761209d9161218c602092613567565b50915061206b565b8a80fd5b3d9150612168565b6040513d8d823e3d90fd5b61202386612017565b6121bd866136c6565b612008565b6121e3915060803d81116121ed575b6121db8183613486565b81019061352e565b5050905038611640565b503d6121d1565b9091506020813d602011612220575b8161221060209383613486565b8101031261061f5751903861160b565b3d9150612203565b6040516377607a1760e11b815289906020816004818c5afa90811561187d57829161266d575b50604051630cf35bdd60e41b8152600481018290526080816024816001600160a01b038f165afa90811561138257839161264b575b508a60208060408701510151606460405180948193638eb22cdd60e01b8352886004840152602483015288604483015260018060a01b03165afa9081156118c2578491612616575b5091604085015180516123c0575b505050602060408401510151612341575b505060200151604080516314890dcb60e21b8152918290819061231290898060048501613622565b03818c8b5af18015611dc257156115e55761233b9060403d604011611d7557611d678183613486565b506115e5565b6123546001600160a01b038b168a614041565b60408301518051156123b757602030915b0151918a3b15610687576040516374d2492960e11b815292849284928392612392928d90600486016135d4565b0381838d5af1801561187d57156122ea576123ac90613442565b611db65788386122ea565b60208891612365565b604091929350015115612608575b6123f26040850151604081015115156000146125fe5783602033925b0151916141bd565b6020604086015101528a60208060408701510151606460405180948193638eb22cdd60e01b8352876004840152602483015288604483015260018060a01b03165afa9081156118c25784916125c9575b5060405163095ea7b360e01b81526001600160a01b038d81166004830152602482018690529193909160209083906044908290899086165af191821561068b578d92612585575b506124bf916020918260408901510151918760405180968195829463095ea7b360e01b845260018060a01b031660048401613574565b03926001600160a01b03165af180156118c257612545575b506040612508918c602083880151015191868451809681958294634d4d7cbd60e11b845230903090600486016135a5565b03926001600160a01b03165af1801561138257612527575b80806122d9565b61253f9060403d604011611d7557611d678183613486565b50612520565b6020813d60201161257d575b8161255e60209383613486565b810103126106875761250891612575604092613567565b5091506124d7565b3d9150612551565b91506020823d6020116125c1575b816125a060209383613486565b810103126100ff578c6020916125b86124bf94613567565b50915091612489565b3d9150612593565b9350506020833d6020116125f6575b816125e560209383613486565b8101031261061f578b925138612442565b3d91506125d8565b8360208b926123ea565b612611886136c6565b6123ce565b9350506020833d602011612643575b8161263260209383613486565b8101031261061f578b9251386122cb565b3d9150612625565b612663915060803d81116121ed576121db8183613486565b5050905038612283565b9150506020813d60201161269a575b8161268960209383613486565b8101031261061f578990513861224e565b3d915061267c565b6126b56001600160a01b03891688614041565b6115de565b6126cd6001600160a01b03891687614041565b6115d8565b6040516348be20ab60e11b81526020816004816001600160a01b0388165afa908115612114578a91612773575b50602061270e916101c3613768565b03816001600160a01b0388165afa8015612114578a90612738575b6127339150613866565b6115d2565b506020813d60201161276b575b8161275260209383613486565b810103126121505761276661273391613567565b612729565b3d9150612745565b90506020813d6020116127ab575b8161278e60209383613486565b810103126121505760206127a461270e926137ed565b91506126ff565b3d9150612781565b6040516348be20ab60e11b81526020816004816001600160a01b0388165afa908115612114578a91612854575b5060206127ef916101c3613751565b03816001600160a01b0388165afa8015612114578a90612819575b612814915061381a565b6115bc565b506020813d60201161284c575b8161283360209383613486565b810103126121505761284761281491613567565b61280a565b3d9150612826565b90506020813d60201161288c575b8161286f60209383613486565b810103126121505760206128856127ef926137ed565b91506127e0565b3d9150612862565b6128ae91985060203d602011611340576113318183613486565b96386115a5565b5060031961010036820112611448576004356001600160a01b0381168103610103576128df61341d565b9160843515156084350361061f576128f5613433565b906001600160401b0360c435116100ff5760a09060c435360301126106875760405163de40657760e01b8152908490604435906020846004816001600160a01b0389165afa938415611382578394612e84575b506040516377607a1760e11b81526020816004816001600160a01b038a165afa9081156118c2578491612e4f575b50604051630cf35bdd60e41b815260048101829052906080826024816001600160a01b038a165afa91821561068b578592612e2b575b50604051638eb22cdd60e01b81526004810182905260248101859052604481018690526020816064816001600160a01b038b165afa9081156108a7578691612df2575b5092919082612bc8575b505082612b3b575b505050506064359283612a27575b506100f892506001600160a01b039081169116614100565b60c435600401612a3681613615565b15612b345730945b604080516314890dcb60e21b815296908780612a5f85858960048501613622565b03818b6001600160a01b038b165af196871561115a576100f897612b16575b50612a8883613615565b612a95575b505050612a0f565b612af6612b0d94612ae8612aad604460c43501613615565b612acb612abe606460c43501613644565b97608460c4350190613653565b60405198899591936001600160a01b039092169160208701613685565b03601f198101855284613486565b60e435926001600160a01b03861691879190613ee6565b38808080612a8d565b612b2e9060403d604011611d7557611d678183613486565b50612a7e565b8194612a3e565b612b516001600160a01b03868116908816614041565b15612bc15730905b6001600160a01b0386163b15610687576040516374d2492960e11b815292849284928392612b8c928b90600486016135d4565b0381836001600160a01b0389165af1801561187d57612bad575b8080612a01565b612bb690613442565b610687578338612ba6565b8590612b59565b925092612be79060843515612de4575b60843515612ddd5784336141bd565b604051638eb22cdd60e01b81526004810184905260248101829052604481018690529093906020816064816001600160a01b038b165afa9081156108a7578691612da8575b5060405163095ea7b360e01b8082526001600160a01b0389811660048401526024830189905292959290931692906020816044818b885af1801561115a5787928a928a92612d5b575b506040519081529460209386939192849290918391612ca191906001600160a01b031660048401613574565b03925af19182156108a7578592612d17575b50612cd99160409182519384928392634d4d7cbd60e11b845230903090600486016135a5565b0381886001600160a01b038b165af1801561068b57612cf9575b806129f9565b612d119060403d604011611d7557611d678183613486565b50612cf3565b91506020823d602011612d53575b81612d3260209383613486565b810103126100fb5784604091612d4a612cd994613567565b50915091612cb3565b3d9150612d25565b92509250506020813d602011612da0575b81612d7960209383613486565b8101031261114e57612ca1938989602094612d948b95613567565b50919394509195612c75565b3d9150612d6c565b9550506020853d602011612dd5575b81612dc460209383613486565b8101031261061f5788945138612c2c565b3d9150612db7565b84896141bd565b612ded896136c6565b612bd8565b92919550506020823d602011612e23575b81612e1060209383613486565b8101031261061f579051889490836129ef565b3d9150612e03565b612e4491925060803d81116121ed576121db8183613486565b5050905090386129ac565b9350506020833d602011612e7c575b81612e6b60209383613486565b8101031261061f5786925138612976565b3d9150612e5e565b612e9e91945060203d602011611340576113318183613486565b9238612948565b60031991506101003683011261010357612ebd613407565b612ec561341d565b92612ece613433565b9060c435906001600160401b038211610d5b5760a09082360301126100fb5763de40657760e01b84526001600160a01b038381169490936020916044359083816004818b5afa908115612114578a916133ea575b5060405163226f120560e11b81529084826004818c5afa9182156121a0578b926133bb575b50604051630cf35bdd60e41b815260048101839052908816966080826024818b5afa91821561313d578c92613397575b508361323b575b50505060643590816131ad575b5050506084359384612f9b578780f35b8260040190612fa982613615565b156131a65730915b6040516377607a1760e11b80825298908581600481855afa90811561313d578c91613179575b5060405190638eb22cdd60e01b825260048201528860248201528b604482015285816064818b5afa90811561313d578c9161314c575b50813b15613148578b858c613036604051948593849363cce19f8160e01b855260048501613622565b038183865af1801561313d5761312a575b5061305182613615565b61305d575b5050508780f35b8460e43534811161312257995b60046040518094819382525afa9485156121a0578b956130de575b5050916130c8989593916130ae869460846130a660646130c09c9a01613644565b960190613653565b98908a156130d75733995b36916134c4565b961693613bad565b38808080808080808080613056565b30996130b9565b908098969492939a979550813d831161311b575b6130fc8183613486565b8101031261061f579551949793959294919391929190816130ae613085565b503d6130f2565b50479961306a565b613136909b919b613442565b9938613047565b6040513d8e823e3d90fd5b8b80fd5b90508581813d8311613172575b6131638183613486565b8101031261314857513861300d565b503d613159565b90508581813d831161319f575b6131908183613486565b81010312613148575138612fd7565b503d613186565b8791612fb1565b6131b78684614041565b15613233578288305b6131de604051948593849363cd0211eb60e01b855260048501613728565b03818c8b5af18015611dc25785918491613206575b50506131fe91614100565b388080612f8b565b908092503d831161322c575b61321c8183613486565b8101031261114e578382386131f3565b503d613212565b8288806131c0565b926132509192936000146133905782336141bd565b918a604051928963095ea7b360e01b918286528a600487015283602487015216878560448186855af1801561138257889387938c92613351575b6132a4975060405197889586948593845260048401613574565b03925af19182156121a0578392613312575b506132dc9160409182519384928392634d4d7cbd60e11b845230903090600486016135a5565b03818d8a5af18015612114576132f4575b8080612f7e565b61330c9060403d604011611d7557611d678183613486565b506132ed565b91508482813d831161334a575b6133298183613486565b8101031261219457826040916133416132dc94613567565b509150916132b6565b503d61331f565b935093905085813d8311613389575b61336a8183613486565b810103126101035789889387936133836132a498613567565b5061328a565b503d613360565b828b6141bd565b6133b091925060803d81116121ed576121db8183613486565b505090509038612f77565b9091508481813d83116133e3575b6133d38183613486565b8101031261219457519038612f47565b503d6133c9565b6134019150843d8611611340576113318183613486565b38612f22565b600435906001600160a01b038216820361061f57565b602435906001600160a01b038216820361061f57565b60a43590811515820361061f57565b6001600160401b03811161345557604052565b634e487b7160e01b600052604160045260246000fd5b606081019081106001600160401b0382111761345557604052565b601f909101601f19168101906001600160401b0382119082101761345557604052565b6001600160401b03811161345557601f01601f191660200190565b9291926134d0826134a9565b916134de6040519384613486565b82948184528183011161061f578281602093846000960137010152565b9081602091031261061f57516001600160a01b038116810361061f5790565b51906001600160a01b038216820361061f57565b919082608091031261061f578151600581101561061f57916135526020820161351a565b9160606135616040840161351a565b92015190565b5190811515820361061f57565b6001600160a01b039091168152602081019190915260400190565b919082604091031261061f576020825192015190565b9081526001600160a01b0391821660208201529116604082015260608101919091526000608082015260a00190565b6001600160a01b03918216815291166020820152600060408201526060810191909152608081019190915260a00190565b6101e435801515810361061f5790565b35801515810361061f5790565b6001600160a01b03918216815291166020820152604081019190915260600190565b3561ffff8116810361061f5790565b903590601e198136030182121561061f57018035906001600160401b03821161061f5760200191813603831361061f57565b93909261ffff86949360a0979415158752166020860152604085015260806060850152816080850152848401376000828201840152601f01601f1916010190565b336001600160a01b03909116036136d957565b60405162461bcd60e51b815260206004820152602160248201527f4d61676e6574617256323a206f70657261746f72206e6f7420617070726f76656044820152601960fa1b6064820152608490fd5b6001600160a01b0391821681529116602082015260006040820152606081019190915260800190565b610284356001600160a01b038116810361061f5790565b610264356001600160a01b038116810361061f5790565b610164356001600160a01b038116810361061f5790565b610204356001600160a01b038116810361061f5790565b6064356001600160a01b038116810361061f5790565b6044356001600160a01b038116810361061f5790565b356001600160a01b038116810361061f5790565b519061ffff8216820361061f57565b61ffff90911681526001600160a01b03909116602082015260400190565b1561382157565b60405162461bcd60e51b815260206004820152601e60248201527f4d61676e6574617256323a204242206e6f742077686974656c697374656400006044820152606490fd5b1561386d57565b60405162461bcd60e51b815260206004820152601f60248201527f4d61676e6574617256323a2053474c206e6f742077686974656c6973746564006044820152606490fd5b156138b957565b606460405162461bcd60e51b815260206004820152602060248201527f4d61676e6574617256323a20744f4c50206e6f742077686974656c69737465646044820152fd5b6001600160a01b03918216815291166020820152604081019190915260806060820181905260029082015261060f60f31b60a082015260c00190565b6104ac909392936139656040948551938491602098898401976323b872dd60e01b895260248501613622565b83518085019290916001600160a01b0316906001600160401b03841183851017613455576139ee9386528683527f5361666545524332303a206c6f772d6c6576656c2063616c6c206661696c656487840152600080958192519082855af13d15613a78573d916139d4836134a9565b926139e188519485613486565b83523d868985013e613a7c565b908151806139fe575b5050505050565b82859181010312610107575082613a159101613567565b15613a22578080806139f7565b60849250519062461bcd60e51b82526004820152602a60248201527f5361666545524332303a204552433230206f7065726174696f6e20646964206e6044820152691bdd081cdd58d8d9595960b21b6064820152fd5b6060915b91929015613ade5750815115613a90575090565b3b15613a995790565b60405162461bcd60e51b815260206004820152601d60248201527f416464726573733a2063616c6c20746f206e6f6e2d636f6e74726163740000006044820152606490fd5b825190915015613af15750805190602001fd5b60405162461bcd60e51b815260206004820152908190613b15906024830190613b3c565b0390fd5b60005b838110613b2c5750506000910152565b8181015183820152602001613b1c565b90602091613b5581518092818552858086019101613b19565b601f01601f1916010190565b51906001600160801b038216820361061f57565b903590609e198136030182121561061f570190565b91908203918211613b9757565b634e487b7160e01b600052601160045260246000fd5b9261ffff9098979492959896919616938415613e805760408051630cf35bdd60e41b8152600480820189905291996001600160a01b0396871697929490916080816024818c5afa908115613e7557908891600091613e53575b508c516301ffc9a760e01b815263843c6ae360e01b8882015291169460209182816024818a5afa9081613e1f575b50613c9d5750505050505090613c66879860009389989951998a98899788966311a5cc7760e31b8852169286016135a5565b03925af18015613c9257613c78575050565b81613c8e92903d10611d7557611d678183613486565b5050565b82513d6000823e3d90fd5b9296998d9295998d9295999c60008993613ccc8651978896879586946311a5cc7760e31b8652309286016135a5565b03925af18015613df057613e03575b50348503613dfb57915b8951633b58a71760e21b8152828186818b5afa908115613df057600091613dbb575b5015613db257905b888a5193613d1c8561346b565b16835282019760008952898301918252863b1561061f5760009881613d8a948c519d8e9b8c9a8b9963695ef6bf60e01b8b5230908b015260248a01526044890152606488015260a06084880152511660a4860152511660c484015251606060e4840152610104830190613b3c565b03925af1908115613da85750613d9d5750565b613da690613442565b565b513d6000823e3d90fd5b50606090613d0f565b908382813d8311613de9575b613dd18183613486565b810103126101075750613de390613567565b38613d07565b503d613dc7565b8b513d6000823e3d90fd5b503091613ce5565b613e19908b3d8d11611d7557611d678183613486565b50613cdb565b8381813d8311613e4c575b613e348183613486565b8101031261061f57613e4590613567565b5038613c34565b503d613e2a565b613e6b915060803d81116121ed576121db8183613486565b5050905038613c06565b8c513d6000823e3d90fd5b5050604080516311a5cc7760e31b815297909650879592948694506000936001600160a01b03938693613ebd9390929186169190600486016135a5565b0393165af1801561060957613ecf5750565b613c8e9060403d8111611d7557611d678183613486565b9193909594958051156106245780518101926020976080838a870196031261061f57613f13898401613567565b98604091613f228386016137ed565b6060860151608087015190969193916001600160401b03821161061f57019188603f8401121561061f578183015190613f5a826134a9565b99613f6787519b8c613486565b828b5286838601011161061f57613f87839260049588858e019101613b19565b34811161401f579a5b855163226f120560e11b815293849182906001600160a01b03165afa938415613da85750600093613fec575b5050613da69899600090600014613fe45750915b8715613fdd573396613bad565b3096613bad565b905091613fd0565b81819c949c3d8311614018575b6140038183613486565b810103126121945751919950613da638613fbc565b503d613ff9565b50479a613f90565b6001600160a01b0391821681529116602082015260400190565b60405163e985e9c560e01b81526001600160a01b0392831692906020818061406d863060048401614027565b0381875afa908115610609576000916140c7575b501561408c57505050565b823b1561061f57604460009283604051958694859363a22cb46560e01b8552166004840152600160248401525af1801561060957613d9d5750565b906020823d82116140f8575b816140e060209383613486565b8101031261010757506140f290613567565b38614081565b3d91506140d3565b60405163e985e9c560e01b81526001600160a01b0392831692906020818061412c863060048401614027565b0381875afa90811561060957600091614184575b5061414a57505050565b823b1561061f57604460009283604051958694859363a22cb46560e01b85521660048401528160248401525af1801561060957613d9d5750565b906020823d82116141b5575b8161419d60209383613486565b8101031261010757506141af90613567565b38614140565b3d9150614190565b6040516370a0823160e01b8082523060048301526020959492936001600160a01b0316928683602481875afa9485156106095787936000966142af575b509061420891309086613939565b60246040518094819382523060048301525afa90811561060957600091614282575b50818111156142415761423e929350613b8a565b90565b60405162461bcd60e51b8152600481018590526019602482015278135859db995d185c8e881d1c985b9cd9995c8819985a5b1959603a1b6044820152606490fd5b908482813d83116142a8575b6142988183613486565b810103126101075750513861422a565b503d61428e565b91929382819792973d83116142e0575b6142c98183613486565b8101031261010757505193869291906142086141fa565b503d6142bf56fea26469706673582212201c402cb70e64d6269233b817ac9b9ccaea198cf4beb0d1baeacfa793f7ca7d6a64736f6c63430008120033",
  "linkReferences": {},
  "deployedLinkReferences": {}
}