{
  "_format": "hh-sol-artifact-1",
  "contractName": "MagnetarV2",
  "sourceName": "contracts/Magnetar/MagnetarV2.sol",
  "abi": [
    {
      "inputs": [
        {
          "internalType": "address",
          "name": "_cluster",
          "type": "address"
        },
        {
          "internalType": "address",
          "name": "_owner",
          "type": "address"
        },
        {
          "internalType": "address payable",
          "name": "_marketModule",
          "type": "address"
        }
      ],
      "stateMutability": "nonpayable",
      "type": "constructor"
    },
    {
      "inputs": [],
      "name": "ActionNotValid",
      "type": "error"
    },
    {
      "inputs": [],
      "name": "Failed",
      "type": "error"
    },
    {
      "inputs": [],
      "name": "ModuleNotFound",
      "type": "error"
    },
    {
      "inputs": [],
      "name": "NotAuthorized",
      "type": "error"
    },
    {
      "inputs": [],
      "name": "NotValid",
      "type": "error"
    },
    {
      "inputs": [],
      "name": "UnknownReason",
      "type": "error"
    },
    {
      "inputs": [],
      "name": "ValueMismatch",
      "type": "error"
    },
    {
      "anonymous": false,
      "inputs": [
        {
          "indexed": true,
          "internalType": "contract ICluster",
          "name": "oldCluster",
          "type": "address"
        },
        {
          "indexed": true,
          "internalType": "contract ICluster",
          "name": "newCluster",
          "type": "address"
        }
      ],
      "name": "ClusterSet",
      "type": "event"
    },
    {
      "anonymous": false,
      "inputs": [
        {
          "indexed": true,
          "internalType": "address",
          "name": "old",
          "type": "address"
        },
        {
          "indexed": true,
          "internalType": "address",
          "name": "newHelper",
          "type": "address"
        }
      ],
      "name": "HelperUpdate",
      "type": "event"
    },
    {
      "anonymous": false,
      "inputs": [
        {
          "indexed": true,
          "internalType": "address",
          "name": "previousOwner",
          "type": "address"
        },
        {
          "indexed": true,
          "internalType": "address",
          "name": "newOwner",
          "type": "address"
        }
      ],
      "name": "OwnershipTransferred",
      "type": "event"
    },
    {
      "inputs": [
        {
          "components": [
            {
              "internalType": "uint16",
              "name": "id",
              "type": "uint16"
            },
            {
              "internalType": "address",
              "name": "target",
              "type": "address"
            },
            {
              "internalType": "uint256",
              "name": "value",
              "type": "uint256"
            },
            {
              "internalType": "bool",
              "name": "allowFailure",
              "type": "bool"
            },
            {
              "internalType": "bytes",
              "name": "call",
              "type": "bytes"
            }
          ],
          "internalType": "struct MagnetarV2Storage.Call[]",
          "name": "calls",
          "type": "tuple[]"
        }
      ],
      "name": "burst",
      "outputs": [
        {
          "components": [
            {
              "internalType": "bool",
              "name": "success",
              "type": "bool"
            },
            {
              "internalType": "bytes",
              "name": "returnData",
              "type": "bytes"
            }
          ],
          "internalType": "struct MagnetarV2Storage.Result[]",
          "name": "returnData",
          "type": "tuple[]"
        }
      ],
      "stateMutability": "payable",
      "type": "function"
    },
    {
      "inputs": [],
      "name": "cluster",
      "outputs": [
        {
          "internalType": "contract ICluster",
          "name": "",
          "type": "address"
        }
      ],
      "stateMutability": "view",
      "type": "function"
    },
    {
      "inputs": [
        {
          "internalType": "contract IMarket",
          "name": "market",
          "type": "address"
        },
        {
          "internalType": "address",
          "name": "user",
          "type": "address"
        },
        {
          "internalType": "uint256",
          "name": "collateralAmount",
          "type": "uint256"
        },
        {
          "internalType": "uint256",
          "name": "borrowAmount",
          "type": "uint256"
        },
        {
          "internalType": "bool",
          "name": "extractFromSender",
          "type": "bool"
        },
        {
          "internalType": "bool",
          "name": "deposit",
          "type": "bool"
        },
        {
          "components": [
            {
              "internalType": "bool",
              "name": "withdraw",
              "type": "bool"
            },
            {
              "internalType": "uint256",
              "name": "withdrawLzFeeAmount",
              "type": "uint256"
            },
            {
              "internalType": "bool",
              "name": "withdrawOnOtherChain",
              "type": "bool"
            },
            {
              "internalType": "uint16",
              "name": "withdrawLzChainId",
              "type": "uint16"
            },
            {
              "internalType": "bytes",
              "name": "withdrawAdapterParams",
              "type": "bytes"
            },
            {
              "internalType": "bool",
              "name": "unwrap",
              "type": "bool"
            },
            {
              "internalType": "address payable",
              "name": "refundAddress",
              "type": "address"
            }
          ],
          "internalType": "struct ICommonData.IWithdrawParams",
          "name": "withdrawParams",
          "type": "tuple"
        }
      ],
      "name": "depositAddCollateralAndBorrowFromMarket",
      "outputs": [],
      "stateMutability": "payable",
      "type": "function"
    },
    {
      "inputs": [
        {
          "internalType": "address",
          "name": "market",
          "type": "address"
        },
        {
          "internalType": "address",
          "name": "user",
          "type": "address"
        },
        {
          "internalType": "uint256",
          "name": "depositAmount",
          "type": "uint256"
        },
        {
          "internalType": "uint256",
          "name": "repayAmount",
          "type": "uint256"
        },
        {
          "internalType": "uint256",
          "name": "collateralAmount",
          "type": "uint256"
        },
        {
          "internalType": "bool",
          "name": "extractFromSender",
          "type": "bool"
        },
        {
          "components": [
            {
              "internalType": "bool",
              "name": "withdraw",
              "type": "bool"
            },
            {
              "internalType": "uint256",
              "name": "withdrawLzFeeAmount",
              "type": "uint256"
            },
            {
              "internalType": "bool",
              "name": "withdrawOnOtherChain",
              "type": "bool"
            },
            {
              "internalType": "uint16",
              "name": "withdrawLzChainId",
              "type": "uint16"
            },
            {
              "internalType": "bytes",
              "name": "withdrawAdapterParams",
              "type": "bytes"
            },
            {
              "internalType": "bool",
              "name": "unwrap",
              "type": "bool"
            },
            {
              "internalType": "address payable",
              "name": "refundAddress",
              "type": "address"
            }
          ],
          "internalType": "struct ICommonData.IWithdrawParams",
          "name": "withdrawCollateralParams",
          "type": "tuple"
        }
      ],
      "name": "depositRepayAndRemoveCollateralFromMarket",
      "outputs": [],
      "stateMutability": "payable",
      "type": "function"
    },
    {
      "inputs": [
        {
          "internalType": "address",
          "name": "user",
          "type": "address"
        },
        {
          "components": [
            {
              "internalType": "address",
              "name": "magnetar",
              "type": "address"
            },
            {
              "internalType": "address",
              "name": "singularity",
              "type": "address"
            },
            {
              "internalType": "address",
              "name": "bigBang",
              "type": "address"
            }
          ],
          "internalType": "struct ICommonData.ICommonExternalContracts",
          "name": "externalData",
          "type": "tuple"
        },
        {
          "components": [
            {
              "internalType": "bool",
              "name": "removeAssetFromSGL",
              "type": "bool"
            },
            {
              "internalType": "uint256",
              "name": "removeAmount",
              "type": "uint256"
            },
            {
              "internalType": "bool",
              "name": "repayAssetOnBB",
              "type": "bool"
            },
            {
              "internalType": "uint256",
              "name": "repayAmount",
              "type": "uint256"
            },
            {
              "internalType": "bool",
              "name": "removeCollateralFromBB",
              "type": "bool"
            },
            {
              "internalType": "uint256",
              "name": "collateralAmount",
              "type": "uint256"
            },
            {
              "components": [
                {
                  "internalType": "bool",
                  "name": "exit",
                  "type": "bool"
                },
                {
                  "internalType": "address",
                  "name": "target",
                  "type": "address"
                },
                {
                  "internalType": "uint256",
                  "name": "oTAPTokenID",
                  "type": "uint256"
                }
              ],
              "internalType": "struct ITapiocaOptionsBroker.IOptionsExitData",
              "name": "exitData",
              "type": "tuple"
            },
            {
              "components": [
                {
                  "internalType": "bool",
                  "name": "unlock",
                  "type": "bool"
                },
                {
                  "internalType": "address",
                  "name": "target",
                  "type": "address"
                },
                {
                  "internalType": "uint256",
                  "name": "tokenId",
                  "type": "uint256"
                }
              ],
              "internalType": "struct ITapiocaOptionLiquidityProvision.IOptionsUnlockData",
              "name": "unlockData",
              "type": "tuple"
            },
            {
              "components": [
                {
                  "internalType": "bool",
                  "name": "withdraw",
                  "type": "bool"
                },
                {
                  "internalType": "uint256",
                  "name": "withdrawLzFeeAmount",
                  "type": "uint256"
                },
                {
                  "internalType": "bool",
                  "name": "withdrawOnOtherChain",
                  "type": "bool"
                },
                {
                  "internalType": "uint16",
                  "name": "withdrawLzChainId",
                  "type": "uint16"
                },
                {
                  "internalType": "bytes",
                  "name": "withdrawAdapterParams",
                  "type": "bytes"
                },
                {
                  "internalType": "bool",
                  "name": "unwrap",
                  "type": "bool"
                },
                {
                  "internalType": "address payable",
                  "name": "refundAddress",
                  "type": "address"
                }
              ],
              "internalType": "struct ICommonData.IWithdrawParams",
              "name": "assetWithdrawData",
              "type": "tuple"
            },
            {
              "components": [
                {
                  "internalType": "bool",
                  "name": "withdraw",
                  "type": "bool"
                },
                {
                  "internalType": "uint256",
                  "name": "withdrawLzFeeAmount",
                  "type": "uint256"
                },
                {
                  "internalType": "bool",
                  "name": "withdrawOnOtherChain",
                  "type": "bool"
                },
                {
                  "internalType": "uint16",
                  "name": "withdrawLzChainId",
                  "type": "uint16"
                },
                {
                  "internalType": "bytes",
                  "name": "withdrawAdapterParams",
                  "type": "bytes"
                },
                {
                  "internalType": "bool",
                  "name": "unwrap",
                  "type": "bool"
                },
                {
                  "internalType": "address payable",
                  "name": "refundAddress",
                  "type": "address"
                }
              ],
              "internalType": "struct ICommonData.IWithdrawParams",
              "name": "collateralWithdrawData",
              "type": "tuple"
            }
          ],
          "internalType": "struct IUSDOBase.IRemoveAndRepay",
          "name": "removeAndRepayData",
          "type": "tuple"
        }
      ],
      "name": "exitPositionAndRemoveCollateral",
      "outputs": [],
      "stateMutability": "payable",
      "type": "function"
    },
    {
      "inputs": [],
      "name": "helper",
      "outputs": [
        {
          "internalType": "contract IMagnetarHelper",
          "name": "",
          "type": "address"
        }
      ],
      "stateMutability": "view",
      "type": "function"
    },
    {
      "inputs": [],
      "name": "marketModule",
      "outputs": [
        {
          "internalType": "contract MagnetarMarketModule",
          "name": "",
          "type": "address"
        }
      ],
      "stateMutability": "view",
      "type": "function"
    },
    {
      "inputs": [
        {
          "internalType": "address",
          "name": "user",
          "type": "address"
        },
        {
          "internalType": "uint256",
          "name": "lendAmount",
          "type": "uint256"
        },
        {
          "components": [
            {
              "internalType": "bool",
              "name": "mint",
              "type": "bool"
            },
            {
              "internalType": "uint256",
              "name": "mintAmount",
              "type": "uint256"
            },
            {
              "components": [
                {
                  "internalType": "bool",
                  "name": "deposit",
                  "type": "bool"
                },
                {
                  "internalType": "uint256",
                  "name": "amount",
                  "type": "uint256"
                },
                {
                  "internalType": "bool",
                  "name": "extractFromSender",
                  "type": "bool"
                }
              ],
              "internalType": "struct ICommonData.IDepositData",
              "name": "collateralDepositData",
              "type": "tuple"
            }
          ],
          "internalType": "struct IUSDOBase.IMintData",
          "name": "mintData",
          "type": "tuple"
        },
        {
          "components": [
            {
              "internalType": "bool",
              "name": "deposit",
              "type": "bool"
            },
            {
              "internalType": "uint256",
              "name": "amount",
              "type": "uint256"
            },
            {
              "internalType": "bool",
              "name": "extractFromSender",
              "type": "bool"
            }
          ],
          "internalType": "struct ICommonData.IDepositData",
          "name": "depositData",
          "type": "tuple"
        },
        {
          "components": [
            {
              "internalType": "bool",
              "name": "lock",
              "type": "bool"
            },
            {
              "internalType": "address",
              "name": "target",
              "type": "address"
            },
            {
              "internalType": "uint128",
              "name": "lockDuration",
              "type": "uint128"
            },
            {
              "internalType": "uint128",
              "name": "amount",
              "type": "uint128"
            },
            {
              "internalType": "uint256",
              "name": "fraction",
              "type": "uint256"
            }
          ],
          "internalType": "struct ITapiocaOptionLiquidityProvision.IOptionsLockData",
          "name": "lockData",
          "type": "tuple"
        },
        {
          "components": [
            {
              "internalType": "bool",
              "name": "participate",
              "type": "bool"
            },
            {
              "internalType": "address",
              "name": "target",
              "type": "address"
            },
            {
              "internalType": "uint256",
              "name": "tOLPTokenId",
              "type": "uint256"
            }
          ],
          "internalType": "struct ITapiocaOptionsBroker.IOptionsParticipateData",
          "name": "participateData",
          "type": "tuple"
        },
        {
          "components": [
            {
              "internalType": "address",
              "name": "magnetar",
              "type": "address"
            },
            {
              "internalType": "address",
              "name": "singularity",
              "type": "address"
            },
            {
              "internalType": "address",
              "name": "bigBang",
              "type": "address"
            }
          ],
          "internalType": "struct ICommonData.ICommonExternalContracts",
          "name": "externalContracts",
          "type": "tuple"
        }
      ],
      "name": "mintFromBBAndLendOnSGL",
      "outputs": [],
      "stateMutability": "payable",
      "type": "function"
    },
    {
      "inputs": [
        {
          "internalType": "address",
          "name": "",
          "type": "address"
        },
        {
          "internalType": "address",
          "name": "",
          "type": "address"
        },
        {
          "internalType": "uint256",
          "name": "",
          "type": "uint256"
        },
        {
          "internalType": "bytes",
          "name": "",
          "type": "bytes"
        }
      ],
      "name": "onERC721Received",
      "outputs": [
        {
          "internalType": "bytes4",
          "name": "",
          "type": "bytes4"
        }
      ],
      "stateMutability": "nonpayable",
      "type": "function"
    },
    {
      "inputs": [],
      "name": "owner",
      "outputs": [
        {
          "internalType": "address",
          "name": "",
          "type": "address"
        }
      ],
      "stateMutability": "view",
      "type": "function"
    },
    {
      "inputs": [],
      "name": "renounceOwnership",
      "outputs": [],
      "stateMutability": "nonpayable",
      "type": "function"
    },
    {
      "inputs": [
        {
          "internalType": "uint256",
          "name": "amount",
          "type": "uint256"
        },
        {
          "internalType": "address",
          "name": "to",
          "type": "address"
        }
      ],
      "name": "rescueEth",
      "outputs": [],
      "stateMutability": "nonpayable",
      "type": "function"
    },
    {
      "inputs": [
        {
          "internalType": "contract ICluster",
          "name": "_cluster",
          "type": "address"
        }
      ],
      "name": "setCluster",
      "outputs": [],
      "stateMutability": "nonpayable",
      "type": "function"
    },
    {
      "inputs": [
        {
          "internalType": "address",
          "name": "_helper",
          "type": "address"
        }
      ],
      "name": "setHelper",
      "outputs": [],
      "stateMutability": "nonpayable",
      "type": "function"
    },
    {
      "inputs": [
        {
          "internalType": "address",
          "name": "newOwner",
          "type": "address"
        }
      ],
      "name": "transferOwnership",
      "outputs": [],
      "stateMutability": "nonpayable",
      "type": "function"
    },
    {
      "inputs": [
        {
          "internalType": "contract IYieldBoxBase",
          "name": "yieldBox",
          "type": "address"
        },
        {
          "internalType": "address",
          "name": "from",
          "type": "address"
        },
        {
          "internalType": "uint256",
          "name": "assetId",
          "type": "uint256"
        },
        {
          "internalType": "uint16",
          "name": "dstChainId",
          "type": "uint16"
        },
        {
          "internalType": "bytes32",
          "name": "receiver",
          "type": "bytes32"
        },
        {
          "internalType": "uint256",
          "name": "amount",
          "type": "uint256"
        },
        {
          "internalType": "bytes",
          "name": "adapterParams",
          "type": "bytes"
        },
        {
          "internalType": "address payable",
          "name": "refundAddress",
          "type": "address"
        },
        {
          "internalType": "uint256",
          "name": "gas",
          "type": "uint256"
        },
        {
          "internalType": "bool",
          "name": "unwrap",
          "type": "bool"
        }
      ],
      "name": "withdrawToChain",
      "outputs": [],
      "stateMutability": "payable",
      "type": "function"
    },
    {
      "stateMutability": "payable",
      "type": "receive"
    }
  ],
  "bytecode": "0x6080346200016357601f6200407038819003918201601f19168301916001600160401b03831184841017620001685780849260609460405283398101031262000163576200004d816200017e565b60406200005d602084016200017e565b9201516001600160a01b0380821693918490036200016357620000803362000193565b8060018060a01b03199316836001541617600155338160005416036200011f57811615620000cb57620000b39062000193565b6002541617600255604051613e959081620001db8239f35b60405162461bcd60e51b815260206004820152602660248201527f4f776e61626c653a206e6577206f776e657220697320746865207a65726f206160448201526564647265737360d01b6064820152608490fd5b606460405162461bcd60e51b815260206004820152602060248201527f4f776e61626c653a2063616c6c6572206973206e6f7420746865206f776e65726044820152fd5b600080fd5b634e487b7160e01b600052604160045260246000fd5b51906001600160a01b03821682036200016357565b600080546001600160a01b039283166001600160a01b03198216811783559216907f8be0079c531659141344cd1fd0a4f28419497f9722a3daafe3b4186f6b6457e09080a356fe6080604052600436101561001b575b361561001957600080fd5b005b60003560e01c8063013546e11461011b578063150b7a02146101165780632922c7b51461011157806340b1d6571461010c578063437be6221461010757806363b0e66a14610102578063715018a6146100fd5780638da5cb5b146100f8578063986ccc7f146100f3578063b25ea8fb146100ee578063b6bbe487146100e9578063c3ef1bd7146100e4578063cfd8b3d8146100df578063dbd01de1146100da578063e5546fac146100d55763f2fde38b0361000e57611d6e565b611c11565b611bc4565b611b9b565b611adc565b6119fb565b611998565b61192b565b611902565b6118b6565b61188d565b6117f0565b611743565b611596565b6114f5565b6101df565b60005b8381106101335750506000910152565b8181015183820152602001610123565b9060209161015c81518092818552858086019101610120565b601f01601f1916010190565b602080820190808352835180925260409283810182858560051b8401019601946000925b85841061019d575050505050505090565b9091929394959685806101ce600193603f1986820301885286838d5180511515845201519181858201520190610143565b99019401940192959493919061018c565b602036600319011261044a576004356001600160401b0380821161044a573660238301121561044a5781600401351161044a57366024826004013560051b8301011161044a576000906102358160040135611e92565b91805b82600401358110610271578382340361025f5761025b9060405191829182610168565b0390f35b60405163dd8e4af760e01b8152600490fd5b61028381846004013560248601611f33565b906060926102ae8484019161029e61029a84611f5a565b1590565b61128e575b604085013590612042565b936001806102c56102be8761204f565b61ffff1690565b03610309575050826102f96102ff926102f16102e6602061030498016124be565b936080810190611f64565b929091611f5a565b92613ba4565b611f09565b610238565b61ffff6002816103188861204f565b1603610341575050508261033b6102ff926102f16102e6602061030498016124be565b92613b20565b60038161034d8861204f565b160361037657505050826103706102ff926102f16102e6602061030498016124be565b92613a6d565b909192506004816103868761204f565b1603610461575050506103b96103b46103ac6103a56080860186611f64565b8091612059565b81019061388c565b6112ce565b91336001600160a01b0384160361044f576103b46103b460206103dc93016124be565b803b1561044a5760405163a22cb46560e01b81526001600160a01b03939093166004840152600060248401819052908390604490829084905af1918215610445576103049261042c575b50611f09565b8061043961043f9261130e565b80611875565b38610426565b612791565b600080fd5b60405163ea8e4eb560e01b8152600490fd5b60058161046d8761204f565b160361050d575050506104916104896103a56080850185611f64565b81019061386d565b926001600160a01b039091169033820361044f576103b46103b460206104b793016124be565b92833b1561044a5760405163b8489fb560e01b81526001600160a01b03929092166004830152602482015260006044820181905290928390606490829084905af1918215610445576103049261042c5750611f09565b61012c8161051a8761204f565b16036105ca5750505061053e6105366103a56080850185611f64565b810190613659565b9161055161054c84516112ce565b613db2565b6105636103b46103b4602084016124be565b9261056e81516112ce565b91604061057e60208401516112ce565b92015191853b1561044a576105ae956040600095815198899687958693630c46aac760e31b8552600485016136b2565b03930135905af1918215610445576103049261042c5750611f09565b61012d816105d78761204f565b1603610654575050506105fb6105f36103a56080850185611f64565b810190613774565b90956001600160a01b039094169391929061061585613db2565b6106276103b46103b4602086016124be565b90813b1561044a576000956105ae60409283519a8b988997889563695ef6bf60e01b875260048701613815565b6064816106608761204f565b16036107b95750506040906080936106886106806103a587840184611f64565b810190613735565b9460006106ad6103b46103b46020808b01966106a761054c89516112ce565b016124be565b9261071c6106bd895192516112ce565b936106ca888b01516112ce565b968a01519901518751634d4d7cbd60e11b815260048101939093526001600160a01b039485166024840152939095166044820152606481019790975260848701919091528592839190829060a4820190565b03925af1801561044557610304926000908192610785575b5060408051602081019290925281019190915261075e81606081015b03601f1981018352826113c9565b6107666113ec565b6001815290602082015261077a828761355c565b52610426818661355c565b61075e92506107ac915060403d6040116107b2575b6107a481836113c9565b81019061369c565b91610734565b503d61079a565b60c8816107c58761204f565b16036108985750506080906108036103b46103b460206107f56107ed6103a5888b018b611f64565b8101906136d4565b976106a761054c8a516112ce565b61080d85516112ce565b9261081b60208701516112ce565b906108296040880151151590565b93870151960151823b1561044a576040516374d2492960e11b81526001600160a01b03958616600482015294909116602485015291151560448401526064830194909452608482015291600090839081838160a4810103925af1918215610445576103049261042c5750611f09565b60c9816108a687959761204f565b160361097957505061091d9250806108e26103b46103b460206108d46105366103a560806040990188611f64565b946106a761054c87516112ce565b6108ec82516112ce565b916000846108fd60208401516112ce565b92015185516314890dcb60e21b81529788958694859391600485016136b2565b03925af1801561044557610304926000908192610955575b5060408051602081019290925281019190915261075e8160608101610750565b61075e9250610973915060403d6040116107b2576107a481836113c9565b91610935565b6066816109858561204f565b16036109fd575050610304925060406109f8826107506109b96109b16103a56080610426980185611f64565b810190613570565b97969095919492939291906001600160a01b03908116906109d982613db2565b8d516340b1d65760e01b60208201529d8e9c0135981660248c016135f5565b613ca9565b60cb81610a098561204f565b1603610ae557505080610a396103b46103b460206108d4610a316103a5608084990188611f64565b8101906134db565b610a4382516112ce565b946000610a52858501516112ce565b91610a606040860151151590565b94015196610a8460405198899687958694630cb0f5b760e31b865260048601613532565b03925af180156104455761075e6107509161030494600091610ab6575b50604051928391602083019190602083019252565b610ad8915060203d602011610ade575b610ad081836113c9565b810190612a63565b38610aa1565b503d610ac6565b60cc81610af18561204f565b1603610b6457505080610b196103b46103b460206108d4610a316103a5608084990188611f64565b610b2382516112ce565b946000610b32858501516112ce565b91610b406040860151151590565b94015196610a846040519889968795869463cd0211eb60e01b865260048601613532565b61012f81610b7385979561204f565b1603610c1257505050610b97610b8f6103a56080850185611f64565b810190613376565b9160018060a09c9899969a979c1b0380961693610bb385613db2565b610bc56103b46103b460208b016124be565b998a3b1561044a57604051633a04545f60e11b81529c8d9a8b998a99610bf19991169060048b01613432565b0391604001355a94600095f1918215610445576103049261042c5750611f09565b61013081610c1f8761204f565b1603610ca157505050610c43610c3b6103a56080850185611f64565b81019061317d565b9160018060a09c989c9a9997969a1b0380981693610c6085613db2565b610c726103b46103b460208b016124be565b998a3b1561044a5789976040519d8e9b8c9a8b9a630a8147b160e01b8c5216921660048a0198610bf199613238565b61013181610cb087959761204f565b1603610d57575050608092610cd5610ccd6103a586850185611f64565b810190613017565b91610ce361054c84516112ce565b610cf56103b46103b4602084016124be565b610cff84516112ce565b90610d0d60208601516112ce565b9160a0610d276040880151968801519988015161ffff1690565b96015190823b1561044a576105ae60409260009884519b8c998a988996630fb6ba5960e01b8852600488016130a2565b61013281610d678597949561204f565b1603610de857505050610d8b610d836103a56080850185611f64565b810190612f4e565b929692946001600160a01b03929190831690610da682613db2565b610db86103b46103b4602088016124be565b92833b1561044a576000976040936105ae9285519c8d9a8b998a9763076cf20360e11b8952169360048801612fac565b60cd81610df48761204f565b1603610e855750926109f86104269261075061030496610e27610e1f6103a560809788810190611f64565b810190612dcd565b92610e3561054c85516112ce565b610e3f84516112ce565b936020810151966040820151938201519082015190610e6860c060a085015194015194546112ce565b94604051998a986325e0e33160e01b60208b015260248a01612ec7565b60ce81610e918761204f565b1603610efd5750505061042660406109f884610750610ec4610ebc6103a560806103049a0185611f64565b810190612c3a565b94909391506001600160a01b0390811690610ede82613db2565b8a51632ede462360e01b60208201529a8b990135961660248901612c89565b60cf81610f098761204f565b1603610f7e57505060406109f884610750610f5f61042695610f3f610f376103a560806103049c0187611f64565b810190612bb2565b90936001600160a01b0390921692909190610f5984613db2565b546112ce565b928751978896637342c9af60e11b602089015201359260248701612bf4565b90915060d081610f8d8661204f565b1603610ffa57505061042660406109f884610750610fbf610fb76103a560806103049a0185611f64565b810190612b01565b949093919291906001600160a01b0390811690610fdb82613db2565b8b51630b24f73f60e41b60208201529b8c9a0135971660248a01612b65565b60d1816110068661204f565b16036110ae57505060206103b4838260006110556110386110306103a560806103b49b0187611f64565b810190612a96565b9a90976001600160a01b039093169691959092916106a788613db2565b9261107660405198899687958694636a7229a760e11b865260048601612ad6565b03925af1918215610445576103049261108f5750611f09565b6110a79060203d602011610ade57610ad081836113c9565b5038610426565b60d2816110ba8661204f565b160361112657505060206103b4838260006111086103b46110ef6110e76103a560806110769c0188611f64565b810190612a29565b976001600160a01b03909216969095906106a788613db2565b92604051978895869485936301cfadbd60e71b855260048501612a72565b610190816111338661204f565b16036111ac575060809061115761114f6103a584870187611f64565b810190612898565b9361116a6103b46103b4602084016124be565b92855193602087015191604088015194880151970151813b1561044a576000956105ae60409283519a8b988997889563ae9289ff60e01b87526004870161293a565b610133906111bb85939561204f565b160361127c576080926111de6111d66103a586850185611f64565b8101906123c3565b916111ec61054c84516112ce565b6111fe6103b46103b4602084016124be565b61120884516112ce565b9061121660208601516112ce565b91611232611229604088015161ffff1690565b958701516112ce565b978601519060a08701519160c08801519761010060e082015191015190853b1561044a576000996040956105ae9487519e8f9c8d9b8c9963fad88e2f60e01b8b5260048b0161270c565b604051630395e47f60e41b8152600490fd5b6112c961129e6080870187611f64565b90506112c16040516112bc816107508a602083019190602083019252565b611f96565b901515612012565b6102a3565b6001600160a01b031690565b6001600160a01b0381160361044a57565b35906112f6826112da565b565b634e487b7160e01b600052604160045260246000fd5b6001600160401b03811161132157604052565b6112f8565b604081019081106001600160401b0382111761132157604052565b606081019081106001600160401b0382111761132157604052565b60c081019081106001600160401b0382111761132157604052565b60a081019081106001600160401b0382111761132157604052565b608081019081106001600160401b0382111761132157604052565b61030081019081106001600160401b0382111761132157604052565b601f909101601f19168101906001600160401b0382119082101761132157604052565b604051906112f682611326565b6040519060e082016001600160401b0381118382101761132157604052565b6040519061014082016001600160401b0381118382101761132157604052565b604051906101c082016001600160401b0381118382101761132157604052565b6040519061012082016001600160401b0381118382101761132157604052565b604051906112f682611377565b6001600160401b03811161132157601f01601f191660200190565b9291926114ac82611485565b916114ba60405193846113c9565b82948184528183011161044a578281602093846000960137010152565b9080601f8301121561044a578160206114f2933591016114a0565b90565b3461044a57608036600319011261044a576115116004356112da565b61151c6024356112da565b6064356001600160401b03811161044a5761153b9036906004016114d7565b50604051630a85bd0160e11b8152602090f35b606090602319011261044a57602490565b60609060e319011261044a5760e490565b6060906101e319011261044a576101e490565b60609061024319011261044a5761024490565b60031960a03682011261044a57600435906115b0826112da565b6115b93661154e565b608435929091906001600160401b03841161044a5783600401916101c08091863603011261044a57610750611706610019966116f36109f8966115fb87613db2565b60018060a01b03966116eb8860015416976116346040519c8d9b8c95637342c9af60e11b602088015216602486015260448501906139e6565b60e060a4840152611652610104840161164c86611738565b15159052565b6116d961012460248801358186015261167a61167060448a01611738565b1515610144870152565b60648801356101648601526116d161169460848a01611738565b916116a6610184938489019015159052565b6102246101a49760a48c0135898201526116c88c60c46101c4840191016139b0565b01908a016139b0565b870185613a29565b906102848b01526102c48a01906138c2565b930190613a29565b85820361010319016102a48701526138c2565b913460c485015260e4840190611880565b61ffff81160361044a57565b35906112f682611717565b8015150361044a57565b35906112f68261172e565b61014036600319011261044a5760043561175c816112da565b60243590611769826112da565b60643561177581611717565b60c435926001600160401b03841161044a576107506109f89261179f6100199636906004016114d7565b9060e4356117ac816112da565b61012435926117ba8461172e565b6117c386613db2565b6040516340b1d65760e01b6020820152978896610104359460a43592608435926044359160248c016135f5565b3461044a57602036600319011261044a5760043561180d816112da565b611815611e23565b6001600160a01b0390811690811561186357816001549182167f03bebf5becbadd9703358ffd62f5a65bddfcc9c20038edae65aebe5542598bf2600080a36001600160a01b03191617600155005b60405163f1640ae160e01b8152600490fd5b600091031261044a57565b6001600160a01b03169052565b3461044a57600036600319011261044a576003546040516001600160a01b039091168152602090f35b3461044a576000806003193601126118ff576118d0611e23565b80546001600160a01b03198116825581906001600160a01b0316600080516020613e408339815191528280a380f35b80fd5b3461044a57600036600319011261044a576000546040516001600160a01b039091168152602090f35b3461044a57602036600319011261044a57600435611948816112da565b611950611e23565b6003546001600160a01b0391821691829082167f8ec9146610f1f9324ffc354c9f4db61b885844583cba310f2b9488f967d74e2f600080a36001600160a01b03191617600355005b3461044a57604036600319011261044a576024356119b5816112da565b6119bd611e23565b60008080808094600435905af16119d2613a3d565b50156119db5780f35b60405163312d207360e11b8152600490fd5b908160e091031261044a5790565b60e036600319011261044a57600435611a13816112da565b60243590611a20826112da565b60843591611a2d8361172e565b60a43590611a3a8261172e565b60c4356001600160401b03811161044a57610019946109f893611a64611ac79336906004016119ed565b91611a6e85613db2565b604051968795632ede462360e01b602088015260018060a01b03809216602488015216604486015260443560648601526064356084860152151560a4850152151560c484015261010060e48401526101248301906138c2565b3461010483015203601f1981018352826113c9565b60e036600319011261044a57600435611af4816112da565b60243590611b01826112da565b60a435611b0d8161172e565b60c435926001600160401b03841161044a57611ac76109f892611b376100199636906004016119ed565b90611b4184613db2565b604051958694630b24f73f60e41b602087015260018060a01b0380921660248701521660448501526044356064850152606435608485015260843560a4850152151560c484015261010060e48401526101248301906138c2565b3461044a57600036600319011261044a576002546040516001600160a01b039091168152602090f35b3461044a57600036600319011261044a576001546040516001600160a01b039091168152602090f35b60a090604319011261044a57604490565b60a09061014319011261044a5761014490565b6102a036600319011261044a57600435611c2a816112da565b611c3336611bed565b611c3c3661155f565b611c4536611bfe565b611c4e36611570565b90611c5836611583565b92611c6286613db2565b600160a01b600190039081600154169582604051986325e0e33160e01b60208b015216602489015260243560448901528035611c9d8161172e565b1515606489015260208101356084890152611cbf9060a4890190604001613981565b6101048701611ccd91613981565b8135611cd88161172e565b15156101648701526020820135611cee816112da565b166101848601526001600160801b0380611d0a60408401612d53565b166101a4870152611d1d60608301612d53565b166101c4860152608001356101e48501526102048401611d3c916139b0565b6102648301611d4a916139e6565b6102c490818301611d5a91611880565b8152611d65816113ad565b61001990613ca9565b3461044a57602036600319011261044a57600435611d8b816112da565b611d93611e23565b6001600160a01b039081168015611dcf57600080546001600160a01b0319811683178255909216600080516020613e408339815191528380a380f35b60405162461bcd60e51b815260206004820152602660248201527f4f776e61626c653a206e6577206f776e657220697320746865207a65726f206160448201526564647265737360d01b6064820152608490fd5b6000546001600160a01b03163303611e3757565b606460405162461bcd60e51b815260206004820152602060248201527f4f776e61626c653a2063616c6c6572206973206e6f7420746865206f776e65726044820152fd5b6001600160401b0381116113215760051b60200190565b90611e9c82611e7b565b6040611eaa815192836113c9565b8382528193611ebb601f1991611e7b565b0191600091825b848110611ed0575050505050565b6020908251611ede81611326565b85815282606081830152828601015201611ec2565b634e487b7160e01b600052601160045260246000fd5b6000198114611f185760010190565b611ef3565b634e487b7160e01b600052603260045260246000fd5b9190811015611f555760051b81013590609e198136030182121561044a570190565b611f1d565b356114f28161172e565b903590601e198136030182121561044a57018035906001600160401b03821161044a5760200191813603831361044a57565b906112f6604e60405180947f4d61676e6574617256323a204d697373696e672063616c6c20666f722061637460208301526d0d2dedc40eed2e8d040d2dcc8caf60931b6040830152611ff18151809260208686019101610120565b810103602e8101855201836113c9565b9060206114f2928181520190610143565b1561201a5750565b60405162461bcd60e51b81526020600482015290819061203e906024830190610143565b0390fd5b91908201809211611f1857565b356114f281611717565b909291928360041161044a57831161044a57600401916003190190565b919082606091031261044a5760405161208e81611341565b6040808294803561209e816112da565b845260208101356120ae816112da565b60208501520135916120bf836112da565b0152565b919082606091031261044a576040516120db81611341565b604080829480356120eb8161172e565b845260208101356120fb816112da565b60208501520135910152565b91909160e08184031261044a5761211c6113f9565b9261212682611738565b84526020820135602085015261213e60408301611738565b604085015261214f60608301611723565b60608501526080820135916001600160401b03831161044a5761217960c0926121959483016114d7565b608086015261218a60a08201611738565b60a0860152016112eb565b60c0830152565b91906101c08382031261044a576121b1611418565b926121bb81611738565b8452602081013560208501526121d360408201611738565b6040850152606081013560608501526121ee60808201611738565b608085015260a081013560a085015261220a8260c083016120c3565b60c08501526101209161221f818484016120c3565b60e08601526001600160401b0361018083013581811161044a5782612245918501612107565b6101008701526101a083013590811161044a576122629201612107565b90830152565b60ff81160361044a57565b35906112f682612268565b81601f8201121561044a5780359061229582611e7b565b926040906122a5825195866113c9565b83855260209182860191836101c08097028601019481861161044a578401925b8584106122d6575050505050505090565b868483031261044a578487916122ea611438565b6122f387611738565b8152612300838801611738565b8382015261230f868801611738565b868201526060612320818901611738565b908201526080612331818901611723565b9082015260a06123428189016112eb565b9082015260c0612353818901611738565b9082015260e06123648189016112eb565b908201526101006123768189016112eb565b908201526101208088013590820152610140808801359082015261016061239e818901612273565b9082015261018080880135908201526101a080880135908201528152019301926122c5565b60208183031261044a576001600160401b039080359082821161044a57016101608184031261044a576123f4611458565b926123fe826112eb565b845261240c602083016112eb565b602085015261241d60408301611723565b604085015261242e606083016112eb565b6060850152608082013583811161044a578161244b9184016114d7565b608085015261245d8160a08401612076565b60a0850152610100928383013581811161044a578261247d91850161219c565b60c086015261012083013581811161044a578261249b91850161227e565b60e086015261014083013590811161044a576124b7920161227e565b9082015290565b356114f2816112da565b80516001600160a01b03908116835260208083015182169084015260409182015116910152565b8051151582526020808201516001600160a01b031690830152604090810151910152565b908151151581526020820151602082015260408201511515604082015261ffff606083015116606082015260c0612559608084015160e0608085015260e0840190610143565b60a080850151151590840152928101516001600160a01b031691015290565b8051151582526114f2916020820151602082015261259f6040830151604083019015159052565b606082015160608201526125bc6080830151608083019015159052565b60a082015160a08201526125d860c083015160c08301906124ef565b60e08201516125ed61012091828401906124ef565b6126086101008401516101c080610180860152840190612513565b920151906101a0818403910152612513565b90815180825260208080930193019160005b82811061263a575050505090565b90919293826101c0600192875161265382825115159052565b8084015115158285015260408181015115159083015260608181015115159083015260808181015161ffff169083015261269560a08083015190840190611880565b60c0818101511515908301526126b360e08083015190840190611880565b6126c66101008083015190840190611880565b610120818101519083015261014080820151908301526101608082015160ff169083015261018081810151908301526101a090810151908201520195019392910161262c565b979461275a906114f29a98936127739661ffff6127829a978d60206127659860018060a01b0396878092168452169101521660408d01521660608b01526101608060808c01528a0190610143565b9260a08901906124c8565b868203610100880152612578565b9084820361012086015261261a565b9161014081840391015261261a565b6040513d6000823e3d90fd5b91908260c091031261044a576040516127b58161135c565b60a080829480356127c5816112da565b845260208101356127d5816112da565b6020850152604081013560408501526060810135606085015260808101356127fc816112da565b60808501520135910152565b919082606091031261044a5760405161282081611341565b604080829480356120eb81611717565b91908260c091031261044a576040516128488161135c565b60a080829480356128588161172e565b84526020810135612868816112da565b6020850152604081013561287b81611717565b60408501526060810135606085015260808101356127fc816112da565b9060208282031261044a576001600160401b039180359083821161044a5701906102208282031261044a576128cb611478565b926128d6828461279d565b84526128e58260c08501612808565b60208501526128f8826101208501612830565b60408501526101e083013581811161044a578261291691850161227e565b606085015261020083013590811161044a57612932920161227e565b608082015290565b93906114f295936129b6612a1a9460a0612a0894600180831b03808251168b528060208301511660208c0152604082015160408c0152606082015160608c015260808201511660808b0152015160a089015260c08801906040809161ffff815116845260018060a01b0360208201511660208501520151910152565b8051151561012087015260208101516001600160a01b03908116610140880152604082015161ffff1661016088015260608201516101808801526080820151166101a087015260a001516101c0860152565b610220806101e086015284019061261a565b9161020081840391015261261a565b9160608383031261044a578235612a3f816112da565b9260208101359260408201356001600160401b03811161044a576114f292016114d7565b9081602091031261044a575190565b6114f2939260609260018060a01b0316825260208201528160408201520190610143565b9060808282031261044a578135612aac816112da565b9260208301359260408101359260608201356001600160401b03811161044a576114f292016114d7565b90926080926114f2959460018060a01b03168352602083015260408201528160608201520190610143565b9060e08282031261044a578135612b17816112da565b926020830135612b26816112da565b9260408101359260608201359260808301359260a0810135612b478161172e565b9260c08201356001600160401b03811161044a576114f29201612107565b98979693909260e09693612bad969360018060a01b038092168c521660208b015260408a015260608901526080880152151560a08701526101008060c0880152860190612513565b930152565b9160a08383031261044a578235612bc8816112da565b92612bd68360208301612076565b9260808201356001600160401b03811161044a576114f2920161219c565b6001600160a01b03918216815293959460c09391929091612c2e91612c1d9060208801906124c8565b60e0608087015260e0860190612578565b9560a085015216910152565b9060e08282031261044a578135612c50816112da565b926020830135612c5f816112da565b926040810135926060820135926080830135612c7a8161172e565b9260a0810135612b478161172e565b97969592612bad949160e0969360018060a01b038092168b521660208a01526040890152606088015260006080880152151560a08701526101008060c0880152860190612513565b919082606091031261044a57604051612ce981611341565b60408082948035612cf98161172e565b8452602081013560208501520135916120bf8361172e565b919060a08382031261044a576040612d4e815192612d2e84611341565b8284968035612d3c8161172e565b86526020810135602087015201612cd1565b910152565b35906001600160801b038216820361044a57565b91908260a091031261044a57604051612d7f81611377565b60808082948035612d8f8161172e565b84526020810135612d9f816112da565b6020850152612db060408201612d53565b6040850152612dc160608201612d53565b60608501520135910152565b6102a08183031261044a576040519160e083016001600160401b0381118482101761132157612e629261024091604052612e06816112eb565b855260208101356020860152612e1f8360408301612d11565b6040860152612e318360e08301612cd1565b6060860152612e44836101408301612d67565b6080860152612e57836101e083016120c3565b60a086015201612076565b60c082015290565b604080918051151584526020810151602085015201511515910152565b6080809180511515845260018060a01b036020820151166020850152600180831b0380604083015116604086015260608201511660608501520151910152565b969390959298979491986102c0880199600160a01b6001900380981689526020890152805115156040890152602081015160608901526040015160808801612f0e91612e6a565b60e08701612f1b91612e6a565b6101408601612f2991612e87565b6101e08501612f37916124ef565b6102408401612f45916124c8565b16906102a00152565b9160c08383031261044a578235612f64816112da565b926020810135926040820135926060830135612f7f81611717565b926080810135612f8e816112da565b9260a08201356001600160401b03811161044a576114f292016114d7565b9260c09461ffff916114f29897939460018060a01b038096168752602087015260408601521660608401521660808201528160a08201520190610143565b919082604091031261044a5760405161300281611326565b6020808294803584520135916120bf836112da565b9060e08282031261044a576130829060a0604051936130358561135c565b8035613040816112da565b85526020810135613050816112da565b60208601526040810135604086015260608101356060860152608081013561307781611717565b608086015201612fea565b60a082015290565b805182526020908101516001600160a01b0316910152565b6001600160a01b039182168152911660208201526040810191909152606081019190915261ffff909116608082015260e0810192916112f69160a0019061308a565b91906101e08382031261044a5761317590610180613100611458565b9461310a81611738565b8652602081013560208701526040810135604087015261312c606082016112eb565b606087015261313d608082016112eb565b608087015261314e60a08201611738565b60a087015260c081013560c087015261316a8360e08301612d67565b60e0870152016120c3565b610100830152565b9190916102e08184031261044a57613194816112eb565b926131a1602083016112eb565b926131ae60408401611723565b926131bb606082016112eb565b926131c981608084016130e4565b926001600160401b039061026084013582811161044a57836131ec91860161227e565b9361028081013583811161044a578461320691830161227e565b936102a082013584811161044a5781613220918401612107565b936102c083013590811161044a576114f292016114d7565b97946132ed906132ff9361331d989361330e978c60406114f29f9d9961ffff9060018060a01b038097818098168652166020850152169101521660608c01528151151560808c0152602082015160a08c0152604082015160c08c015260608201511660e08b01526080810151906132b561010092838d0190611880565b60a081015115156101208c015260c08101516101408c01526132e060e08201516101608d0190612e87565b01516102008a01906124ef565b6102e0806102608a015288019061261a565b9086820361028088015261261a565b908482036102a0860152612513565b916102c0818403910152610143565b919082608091031261044a5760405161334481611392565b606080829480358452602081013560208501526040810135613365816112da565b60408501520135916120bf836112da565b9190916101a08184031261044a5761338d816112eb565b9261339a602083016112eb565b926133a760408401611723565b926001600160401b0392606082013584811161044a57816133c99184016114d7565b936133d7826080850161332c565b9361010084013582811161044a57836133f1918601612107565b93613400846101208301612fea565b9361016082013584811161044a578161341a91840161227e565b9361018083013590811161044a576114f2920161227e565b9793956134b292606061347e6134cc998c60406114f29f9d9b976134be9a61ffff9160018060a01b039889809216865216602085015216910152828d6101a091829101528d0190610143565b93805160808d0152602081015160a08d01528260408201511660c08d015201511660e08a01528882036101008a0152612513565b9261012087019061308a565b84820361016086015261261a565b9161018081840391015261261a565b9081608091031261044a576060604051916134f583611392565b8035613500816112da565b83526020810135613510816112da565b602084015260408101356135238161172e565b60408401520135606082015290565b6001600160a01b039182168152911660208201529015156040820152606081019190915260800190565b8051821015611f555760209160051b010190565b906101208282031261044a578135613587816112da565b926020830135613596816112da565b9260408101359260608201356135ab81611717565b9260808301359260a08101359260c0820135906001600160401b03821161044a576135d79183016114d7565b9161010060e08301356135e9816112da565b9201356114f28161172e565b98959161364594610120999c9b98948b979361ffff9360018060a01b03998a80931690521660208d015260408c01521660608a0152608089015260a08801526101408060c0890152870190610143565b961660e08501526101008401521515910152565b9081606091031261044a57604080519161367283611341565b803561367d816112da565b8352602081013561368d816112da565b60208401520135604082015290565b919082604091031261044a576020825192015190565b6001600160a01b03918216815291166020820152604081019190915260600190565b908160a091031261044a576080604051916136ee83611377565b80356136f9816112da565b83526020810135613709816112da565b6020840152604081013561371c8161172e565b6040840152606081013560608401520135608082015290565b908160a091031261044a5760806040519161374f83611377565b803583526020810135613761816112da565b6020840152604081013561371c816112da565b91909160a08184031261044a57803561378c816112da565b92602082013561379b81611717565b926040830135926060810135926001600160401b039160808101359083821161044a57019060608282031261044a57604051926137d784611341565b82356137e2816112da565b845260208301356137f2816112da565b6020850152604083013590811161044a5761380d92016114d7565b604082015290565b93906114f295916101009461ffff60409560018060a01b03809516895216602088015284870152606086015260a060808601528082511660a086015260208201511660c0850152015191606060e08201520190610143565b919082604091031261044a5760208235613886816112da565b92013590565b9081602091031261044a57356114f2816112da565b908060209392818452848401376000828201840152601f01601f1916010190565b9081356138ce8161172e565b151581526020820135602082015260408201356138ea8161172e565b1515604082015261ffff606083013561390281611717565b1660608201526080820135601e198336030181121561044a578201803591906020016001600160401b03831161044a57823603811361044a5761397960c061395a81936114f29660e0608088015260e08701916138a1565b9561397361396a60a08301611738565b151560a0870152565b016112eb565b910190611880565b6040809180356139908161172e565b151584526020810135602085015201356139a98161172e565b1515910152565b6040809180356139bf8161172e565b1515845260208101356139d1816112da565b6001600160a01b031660208501520135910152565b604090818135916139f6836112da565b6001600160a01b039283168552826020820135613a12816112da565b1660208601520135613a23816112da565b16910152565b903560de198236030181121561044a570190565b3d15613a68573d90613a4e82611485565b91613a5c60405193846113c9565b82523d6000602084013e565b606090565b803b1561186357631221baf960e31b6001600160e01b03196020613a923687876114a0565b015116036118635782600083613ae5613acc613abc613ab486869a879a612059565b810190613c06565b5060208082518301019101613c3c565b50506001600160a01b039094169450613db29350505050565b613af460405180948193613c9b565b03925af190613b01613a3d565b91159081613b17575b50613b125750565b613cf3565b90501538613b0a565b803b156118635763d505accf60e01b6001600160e01b03196020613b453687876114a0565b015116036118635782613b5b8160e09585612059565b908095918101031261044a576000809493613ae585613b96608085983592613b82846112da565b613b8f60208201356112da565b0135612268565b6001600160a01b0316613db2565b803b156118635763aba0784760e01b6001600160e01b03196020613bc93687876114a0565b015116036118635782613bdf8160c09585612059565b908095918101031261044a576000809493613ae585613b96606085983592613b82846112da565b919060408382031261044a5782356001600160401b03811161044a57602091613c309185016114d7565b9201356114f281611717565b91908261010091031261044a578151613c548161172e565b916020810151613c63816112da565b916040820151613c72816112da565b9160608101519160808201519160a0810151613c8d81612268565b9160e060c083015192015190565b908092918237016000815290565b6002546001600160a01b03168015613ce157816000929160208493519201905af490613cd3613a3d565b9115613cdb57565b50613cf3565b604051631c94b02360e21b8152600490fd5b6044815110613d8b5760048101518101906020816024840193031261044a576024810151906001600160401b03821161044a5701908060438301121561044a57602482015191613d4283611485565b91613d5060405193846113c9565b8383526044848301011161044a5761203e92613d73916044602085019101610120565b60405162461bcd60e51b815291829160048301612001565b604051633922dd2d60e21b8152600490fd5b9081602091031261044a57516114f28161172e565b6001600160a01b039081163314159081613dce575b5061044f57565b600154604051633a304d8b60e21b815260006004820152336024820152925060209183916044918391165afa90811561044557600091613e11575b501538613dc7565b613e32915060203d8111613e38575b613e2a81836113c9565b810190613d9d565b38613e09565b503d613e2056fe8be0079c531659141344cd1fd0a4f28419497f9722a3daafe3b4186f6b6457e0a264697066735822122058e50a490c5ab2e6b988f3f0dd659096c383f7590937d1fee05857e190985a7964736f6c63430008130033",
  "linkReferences": {},
  "deployedLinkReferences": {}
}