{
  "_format": "hh-sol-artifact-1",
  "contractName": "MagnetarV2",
  "sourceName": "contracts/Magnetar/MagnetarV2.sol",
  "abi": [
    {
      "inputs": [
        {
          "internalType": "address",
          "name": "_owner",
          "type": "address"
        },
        {
          "internalType": "address payable",
          "name": "_marketModule",
          "type": "address"
        }
      ],
      "stateMutability": "nonpayable",
      "type": "constructor"
    },
    {
      "anonymous": false,
      "inputs": [
        {
          "indexed": true,
          "internalType": "address",
          "name": "owner",
          "type": "address"
        },
        {
          "indexed": true,
          "internalType": "address",
          "name": "operator",
          "type": "address"
        },
        {
          "indexed": false,
          "internalType": "bool",
          "name": "approved",
          "type": "bool"
        }
      ],
      "name": "ApprovalForAll",
      "type": "event"
    },
    {
      "anonymous": false,
      "inputs": [
        {
          "indexed": true,
          "internalType": "address",
          "name": "previousOwner",
          "type": "address"
        },
        {
          "indexed": true,
          "internalType": "address",
          "name": "newOwner",
          "type": "address"
        }
      ],
      "name": "OwnershipTransferred",
      "type": "event"
    },
    {
      "inputs": [
        {
          "internalType": "address",
          "name": "who",
          "type": "address"
        },
        {
          "internalType": "contract IBigBang[]",
          "name": "markets",
          "type": "address[]"
        }
      ],
      "name": "bigBangMarketInfo",
      "outputs": [
        {
          "components": [
            {
              "components": [
                {
                  "internalType": "address",
                  "name": "collateral",
                  "type": "address"
                },
                {
                  "internalType": "uint256",
                  "name": "collateralId",
                  "type": "uint256"
                },
                {
                  "internalType": "address",
                  "name": "asset",
                  "type": "address"
                },
                {
                  "internalType": "uint256",
                  "name": "assetId",
                  "type": "uint256"
                },
                {
                  "internalType": "contract IOracle",
                  "name": "oracle",
                  "type": "address"
                },
                {
                  "internalType": "bytes",
                  "name": "oracleData",
                  "type": "bytes"
                },
                {
                  "internalType": "uint256",
                  "name": "totalCollateralShare",
                  "type": "uint256"
                },
                {
                  "internalType": "uint256",
                  "name": "userCollateralShare",
                  "type": "uint256"
                },
                {
                  "components": [
                    {
                      "internalType": "uint128",
                      "name": "elastic",
                      "type": "uint128"
                    },
                    {
                      "internalType": "uint128",
                      "name": "base",
                      "type": "uint128"
                    }
                  ],
                  "internalType": "struct Rebase",
                  "name": "totalBorrow",
                  "type": "tuple"
                },
                {
                  "internalType": "uint256",
                  "name": "userBorrowPart",
                  "type": "uint256"
                },
                {
                  "internalType": "uint256",
                  "name": "currentExchangeRate",
                  "type": "uint256"
                },
                {
                  "internalType": "uint256",
                  "name": "spotExchangeRate",
                  "type": "uint256"
                },
                {
                  "internalType": "uint256",
                  "name": "oracleExchangeRate",
                  "type": "uint256"
                },
                {
                  "internalType": "uint256",
                  "name": "totalBorrowCap",
                  "type": "uint256"
                },
                {
                  "internalType": "uint256",
                  "name": "totalYieldBoxCollateralShare",
                  "type": "uint256"
                },
                {
                  "internalType": "uint256",
                  "name": "totalYieldBoxCollateralAmount",
                  "type": "uint256"
                },
                {
                  "internalType": "uint256",
                  "name": "totalYieldBoxAssetShare",
                  "type": "uint256"
                },
                {
                  "internalType": "uint256",
                  "name": "totalYieldBoxAssetAmount",
                  "type": "uint256"
                },
                {
                  "internalType": "enum TokenType",
                  "name": "yieldBoxCollateralTokenType",
                  "type": "uint8"
                },
                {
                  "internalType": "address",
                  "name": "yieldBoxCollateralContractAddress",
                  "type": "address"
                },
                {
                  "internalType": "address",
                  "name": "yieldBoxCollateralStrategyAddress",
                  "type": "address"
                },
                {
                  "internalType": "uint256",
                  "name": "yieldBoxCollateralTokenId",
                  "type": "uint256"
                },
                {
                  "internalType": "enum TokenType",
                  "name": "yieldBoxAssetTokenType",
                  "type": "uint8"
                },
                {
                  "internalType": "address",
                  "name": "yieldBoxAssetContractAddress",
                  "type": "address"
                },
                {
                  "internalType": "address",
                  "name": "yieldBoxAssetStrategyAddress",
                  "type": "address"
                },
                {
                  "internalType": "uint256",
                  "name": "yieldBoxAssetTokenId",
                  "type": "uint256"
                },
                {
                  "internalType": "uint256",
                  "name": "collateralizationRate",
                  "type": "uint256"
                }
              ],
              "internalType": "struct MagnetarV2Storage.MarketInfo",
              "name": "market",
              "type": "tuple"
            },
            {
              "components": [
                {
                  "internalType": "uint64",
                  "name": "debtRate",
                  "type": "uint64"
                },
                {
                  "internalType": "uint64",
                  "name": "lastAccrued",
                  "type": "uint64"
                }
              ],
              "internalType": "struct IBigBang.AccrueInfo",
              "name": "accrueInfo",
              "type": "tuple"
            },
            {
              "internalType": "uint256",
              "name": "minDebtRate",
              "type": "uint256"
            },
            {
              "internalType": "uint256",
              "name": "maxDebtRate",
              "type": "uint256"
            },
            {
              "internalType": "uint256",
              "name": "debtRateAgainstEthMarket",
              "type": "uint256"
            },
            {
              "internalType": "address",
              "name": "mainBBMarket",
              "type": "address"
            },
            {
              "internalType": "uint256",
              "name": "mainBBDebtRate",
              "type": "uint256"
            },
            {
              "internalType": "uint256",
              "name": "currentDebtRate",
              "type": "uint256"
            }
          ],
          "internalType": "struct MagnetarV2Storage.BigBangInfo[]",
          "name": "",
          "type": "tuple[]"
        }
      ],
      "stateMutability": "view",
      "type": "function"
    },
    {
      "inputs": [
        {
          "components": [
            {
              "internalType": "uint16",
              "name": "id",
              "type": "uint16"
            },
            {
              "internalType": "address",
              "name": "target",
              "type": "address"
            },
            {
              "internalType": "uint256",
              "name": "value",
              "type": "uint256"
            },
            {
              "internalType": "bool",
              "name": "allowFailure",
              "type": "bool"
            },
            {
              "internalType": "bytes",
              "name": "call",
              "type": "bytes"
            }
          ],
          "internalType": "struct MagnetarV2Storage.Call[]",
          "name": "calls",
          "type": "tuple[]"
        }
      ],
      "name": "burst",
      "outputs": [
        {
          "components": [
            {
              "internalType": "bool",
              "name": "success",
              "type": "bool"
            },
            {
              "internalType": "bytes",
              "name": "returnData",
              "type": "bytes"
            }
          ],
          "internalType": "struct MagnetarV2Storage.Result[]",
          "name": "returnData",
          "type": "tuple[]"
        }
      ],
      "stateMutability": "payable",
      "type": "function"
    },
    {
      "inputs": [
        {
          "internalType": "contract IMarket",
          "name": "market",
          "type": "address"
        },
        {
          "internalType": "address",
          "name": "user",
          "type": "address"
        },
        {
          "internalType": "uint256",
          "name": "collateralAmount",
          "type": "uint256"
        },
        {
          "internalType": "uint256",
          "name": "borrowAmount",
          "type": "uint256"
        },
        {
          "internalType": "bool",
          "name": "extractFromSender",
          "type": "bool"
        },
        {
          "internalType": "bool",
          "name": "deposit",
          "type": "bool"
        },
        {
          "components": [
            {
              "internalType": "bool",
              "name": "withdraw",
              "type": "bool"
            },
            {
              "internalType": "uint256",
              "name": "withdrawLzFeeAmount",
              "type": "uint256"
            },
            {
              "internalType": "bool",
              "name": "withdrawOnOtherChain",
              "type": "bool"
            },
            {
              "internalType": "uint16",
              "name": "withdrawLzChainId",
              "type": "uint16"
            },
            {
              "internalType": "bytes",
              "name": "withdrawAdapterParams",
              "type": "bytes"
            }
          ],
          "internalType": "struct ICommonData.IWithdrawParams",
          "name": "withdrawParams",
          "type": "tuple"
        }
      ],
      "name": "depositAddCollateralAndBorrowFromMarket",
      "outputs": [],
      "stateMutability": "payable",
      "type": "function"
    },
    {
      "inputs": [
        {
          "internalType": "address",
          "name": "market",
          "type": "address"
        },
        {
          "internalType": "address",
          "name": "user",
          "type": "address"
        },
        {
          "internalType": "uint256",
          "name": "depositAmount",
          "type": "uint256"
        },
        {
          "internalType": "uint256",
          "name": "repayAmount",
          "type": "uint256"
        },
        {
          "internalType": "uint256",
          "name": "collateralAmount",
          "type": "uint256"
        },
        {
          "internalType": "bool",
          "name": "extractFromSender",
          "type": "bool"
        },
        {
          "components": [
            {
              "internalType": "bool",
              "name": "withdraw",
              "type": "bool"
            },
            {
              "internalType": "uint256",
              "name": "withdrawLzFeeAmount",
              "type": "uint256"
            },
            {
              "internalType": "bool",
              "name": "withdrawOnOtherChain",
              "type": "bool"
            },
            {
              "internalType": "uint16",
              "name": "withdrawLzChainId",
              "type": "uint16"
            },
            {
              "internalType": "bytes",
              "name": "withdrawAdapterParams",
              "type": "bytes"
            }
          ],
          "internalType": "struct ICommonData.IWithdrawParams",
          "name": "withdrawCollateralParams",
          "type": "tuple"
        }
      ],
      "name": "depositRepayAndRemoveCollateralFromMarket",
      "outputs": [],
      "stateMutability": "payable",
      "type": "function"
    },
    {
      "inputs": [
        {
          "internalType": "address",
          "name": "user",
          "type": "address"
        },
        {
          "components": [
            {
              "internalType": "address",
              "name": "magnetar",
              "type": "address"
            },
            {
              "internalType": "address",
              "name": "singularity",
              "type": "address"
            },
            {
              "internalType": "address",
              "name": "bigBang",
              "type": "address"
            }
          ],
          "internalType": "struct ICommonData.ICommonExternalContracts",
          "name": "externalData",
          "type": "tuple"
        },
        {
          "components": [
            {
              "internalType": "bool",
              "name": "removeAssetFromSGL",
              "type": "bool"
            },
            {
              "internalType": "uint256",
              "name": "removeAmount",
              "type": "uint256"
            },
            {
              "internalType": "bool",
              "name": "repayAssetOnBB",
              "type": "bool"
            },
            {
              "internalType": "uint256",
              "name": "repayAmount",
              "type": "uint256"
            },
            {
              "internalType": "bool",
              "name": "removeCollateralFromBB",
              "type": "bool"
            },
            {
              "internalType": "uint256",
              "name": "collateralAmount",
              "type": "uint256"
            },
            {
              "components": [
                {
                  "internalType": "bool",
                  "name": "exit",
                  "type": "bool"
                },
                {
                  "internalType": "address",
                  "name": "target",
                  "type": "address"
                },
                {
                  "internalType": "uint256",
                  "name": "oTAPTokenID",
                  "type": "uint256"
                }
              ],
              "internalType": "struct ITapiocaOptionsBroker.IOptionsExitData",
              "name": "exitData",
              "type": "tuple"
            },
            {
              "components": [
                {
                  "internalType": "bool",
                  "name": "unlock",
                  "type": "bool"
                },
                {
                  "internalType": "address",
                  "name": "target",
                  "type": "address"
                },
                {
                  "internalType": "uint256",
                  "name": "tokenId",
                  "type": "uint256"
                }
              ],
              "internalType": "struct ITapiocaOptionLiquidityProvision.IOptionsUnlockData",
              "name": "unlockData",
              "type": "tuple"
            },
            {
              "components": [
                {
                  "internalType": "bool",
                  "name": "withdraw",
                  "type": "bool"
                },
                {
                  "internalType": "uint256",
                  "name": "withdrawLzFeeAmount",
                  "type": "uint256"
                },
                {
                  "internalType": "bool",
                  "name": "withdrawOnOtherChain",
                  "type": "bool"
                },
                {
                  "internalType": "uint16",
                  "name": "withdrawLzChainId",
                  "type": "uint16"
                },
                {
                  "internalType": "bytes",
                  "name": "withdrawAdapterParams",
                  "type": "bytes"
                }
              ],
              "internalType": "struct ICommonData.IWithdrawParams",
              "name": "assetWithdrawData",
              "type": "tuple"
            },
            {
              "components": [
                {
                  "internalType": "bool",
                  "name": "withdraw",
                  "type": "bool"
                },
                {
                  "internalType": "uint256",
                  "name": "withdrawLzFeeAmount",
                  "type": "uint256"
                },
                {
                  "internalType": "bool",
                  "name": "withdrawOnOtherChain",
                  "type": "bool"
                },
                {
                  "internalType": "uint16",
                  "name": "withdrawLzChainId",
                  "type": "uint16"
                },
                {
                  "internalType": "bytes",
                  "name": "withdrawAdapterParams",
                  "type": "bytes"
                }
              ],
              "internalType": "struct ICommonData.IWithdrawParams",
              "name": "collateralWithdrawData",
              "type": "tuple"
            }
          ],
          "internalType": "struct IUSDOBase.IRemoveAndRepay",
          "name": "removeAndRepayData",
          "type": "tuple"
        }
      ],
      "name": "exitPositionAndRemoveCollateral",
      "outputs": [],
      "stateMutability": "payable",
      "type": "function"
    },
    {
      "inputs": [
        {
          "internalType": "contract ISingularity",
          "name": "singularity",
          "type": "address"
        },
        {
          "internalType": "uint256",
          "name": "fraction",
          "type": "uint256"
        }
      ],
      "name": "getAmountForAssetFraction",
      "outputs": [
        {
          "internalType": "uint256",
          "name": "amount",
          "type": "uint256"
        }
      ],
      "stateMutability": "view",
      "type": "function"
    },
    {
      "inputs": [
        {
          "internalType": "contract IMarket",
          "name": "market",
          "type": "address"
        },
        {
          "internalType": "uint256",
          "name": "borrowPart",
          "type": "uint256"
        }
      ],
      "name": "getAmountForBorrowPart",
      "outputs": [
        {
          "internalType": "uint256",
          "name": "amount",
          "type": "uint256"
        }
      ],
      "stateMutability": "view",
      "type": "function"
    },
    {
      "inputs": [
        {
          "internalType": "contract IMarket",
          "name": "market",
          "type": "address"
        },
        {
          "internalType": "uint256",
          "name": "amount",
          "type": "uint256"
        }
      ],
      "name": "getBorrowPartForAmount",
      "outputs": [
        {
          "internalType": "uint256",
          "name": "part",
          "type": "uint256"
        }
      ],
      "stateMutability": "view",
      "type": "function"
    },
    {
      "inputs": [
        {
          "internalType": "contract IMarket",
          "name": "market",
          "type": "address"
        },
        {
          "internalType": "uint256",
          "name": "share",
          "type": "uint256"
        }
      ],
      "name": "getCollateralAmountForShare",
      "outputs": [
        {
          "internalType": "uint256",
          "name": "amount",
          "type": "uint256"
        }
      ],
      "stateMutability": "view",
      "type": "function"
    },
    {
      "inputs": [
        {
          "internalType": "contract IMarket",
          "name": "market",
          "type": "address"
        },
        {
          "internalType": "uint256",
          "name": "borrowPart",
          "type": "uint256"
        },
        {
          "internalType": "uint256",
          "name": "liquidationMultiplierPrecision",
          "type": "uint256"
        },
        {
          "internalType": "uint256",
          "name": "exchangeRatePrecision",
          "type": "uint256"
        }
      ],
      "name": "getCollateralSharesForBorrowPart",
      "outputs": [
        {
          "internalType": "uint256",
          "name": "collateralShares",
          "type": "uint256"
        }
      ],
      "stateMutability": "view",
      "type": "function"
    },
    {
      "inputs": [
        {
          "internalType": "contract ISingularity",
          "name": "singularity",
          "type": "address"
        },
        {
          "internalType": "uint256",
          "name": "amount",
          "type": "uint256"
        }
      ],
      "name": "getFractionForAmount",
      "outputs": [
        {
          "internalType": "uint256",
          "name": "fraction",
          "type": "uint256"
        }
      ],
      "stateMutability": "view",
      "type": "function"
    },
    {
      "inputs": [
        {
          "internalType": "address",
          "name": "",
          "type": "address"
        },
        {
          "internalType": "address",
          "name": "",
          "type": "address"
        }
      ],
      "name": "isApprovedForAll",
      "outputs": [
        {
          "internalType": "bool",
          "name": "",
          "type": "bool"
        }
      ],
      "stateMutability": "view",
      "type": "function"
    },
    {
      "inputs": [],
      "name": "marketModule",
      "outputs": [
        {
          "internalType": "contract MagnetarMarketModule",
          "name": "",
          "type": "address"
        }
      ],
      "stateMutability": "view",
      "type": "function"
    },
    {
      "inputs": [
        {
          "internalType": "address",
          "name": "user",
          "type": "address"
        },
        {
          "internalType": "uint256",
          "name": "lendAmount",
          "type": "uint256"
        },
        {
          "components": [
            {
              "internalType": "bool",
              "name": "mint",
              "type": "bool"
            },
            {
              "internalType": "uint256",
              "name": "mintAmount",
              "type": "uint256"
            },
            {
              "components": [
                {
                  "internalType": "bool",
                  "name": "deposit",
                  "type": "bool"
                },
                {
                  "internalType": "uint256",
                  "name": "amount",
                  "type": "uint256"
                },
                {
                  "internalType": "bool",
                  "name": "extractFromSender",
                  "type": "bool"
                }
              ],
              "internalType": "struct ICommonData.IDepositData",
              "name": "collateralDepositData",
              "type": "tuple"
            }
          ],
          "internalType": "struct IUSDOBase.IMintData",
          "name": "mintData",
          "type": "tuple"
        },
        {
          "components": [
            {
              "internalType": "bool",
              "name": "deposit",
              "type": "bool"
            },
            {
              "internalType": "uint256",
              "name": "amount",
              "type": "uint256"
            },
            {
              "internalType": "bool",
              "name": "extractFromSender",
              "type": "bool"
            }
          ],
          "internalType": "struct ICommonData.IDepositData",
          "name": "depositData",
          "type": "tuple"
        },
        {
          "components": [
            {
              "internalType": "bool",
              "name": "lock",
              "type": "bool"
            },
            {
              "internalType": "address",
              "name": "target",
              "type": "address"
            },
            {
              "internalType": "uint128",
              "name": "lockDuration",
              "type": "uint128"
            },
            {
              "internalType": "uint128",
              "name": "amount",
              "type": "uint128"
            },
            {
              "internalType": "uint256",
              "name": "fraction",
              "type": "uint256"
            }
          ],
          "internalType": "struct ITapiocaOptionLiquidityProvision.IOptionsLockData",
          "name": "lockData",
          "type": "tuple"
        },
        {
          "components": [
            {
              "internalType": "bool",
              "name": "participate",
              "type": "bool"
            },
            {
              "internalType": "address",
              "name": "target",
              "type": "address"
            },
            {
              "internalType": "uint256",
              "name": "tOLPTokenId",
              "type": "uint256"
            }
          ],
          "internalType": "struct ITapiocaOptionsBroker.IOptionsParticipateData",
          "name": "participateData",
          "type": "tuple"
        },
        {
          "components": [
            {
              "internalType": "address",
              "name": "magnetar",
              "type": "address"
            },
            {
              "internalType": "address",
              "name": "singularity",
              "type": "address"
            },
            {
              "internalType": "address",
              "name": "bigBang",
              "type": "address"
            }
          ],
          "internalType": "struct ICommonData.ICommonExternalContracts",
          "name": "externalContracts",
          "type": "tuple"
        }
      ],
      "name": "mintFromBBAndLendOnSGL",
      "outputs": [],
      "stateMutability": "payable",
      "type": "function"
    },
    {
      "inputs": [],
      "name": "owner",
      "outputs": [
        {
          "internalType": "address",
          "name": "",
          "type": "address"
        }
      ],
      "stateMutability": "view",
      "type": "function"
    },
    {
      "inputs": [],
      "name": "renounceOwnership",
      "outputs": [],
      "stateMutability": "nonpayable",
      "type": "function"
    },
    {
      "inputs": [
        {
          "internalType": "uint256",
          "name": "amount",
          "type": "uint256"
        },
        {
          "internalType": "address",
          "name": "to",
          "type": "address"
        }
      ],
      "name": "rescueEth",
      "outputs": [],
      "stateMutability": "nonpayable",
      "type": "function"
    },
    {
      "inputs": [
        {
          "internalType": "address",
          "name": "who",
          "type": "address"
        },
        {
          "internalType": "contract ISingularity[]",
          "name": "markets",
          "type": "address[]"
        }
      ],
      "name": "singularityMarketInfo",
      "outputs": [
        {
          "components": [
            {
              "components": [
                {
                  "internalType": "address",
                  "name": "collateral",
                  "type": "address"
                },
                {
                  "internalType": "uint256",
                  "name": "collateralId",
                  "type": "uint256"
                },
                {
                  "internalType": "address",
                  "name": "asset",
                  "type": "address"
                },
                {
                  "internalType": "uint256",
                  "name": "assetId",
                  "type": "uint256"
                },
                {
                  "internalType": "contract IOracle",
                  "name": "oracle",
                  "type": "address"
                },
                {
                  "internalType": "bytes",
                  "name": "oracleData",
                  "type": "bytes"
                },
                {
                  "internalType": "uint256",
                  "name": "totalCollateralShare",
                  "type": "uint256"
                },
                {
                  "internalType": "uint256",
                  "name": "userCollateralShare",
                  "type": "uint256"
                },
                {
                  "components": [
                    {
                      "internalType": "uint128",
                      "name": "elastic",
                      "type": "uint128"
                    },
                    {
                      "internalType": "uint128",
                      "name": "base",
                      "type": "uint128"
                    }
                  ],
                  "internalType": "struct Rebase",
                  "name": "totalBorrow",
                  "type": "tuple"
                },
                {
                  "internalType": "uint256",
                  "name": "userBorrowPart",
                  "type": "uint256"
                },
                {
                  "internalType": "uint256",
                  "name": "currentExchangeRate",
                  "type": "uint256"
                },
                {
                  "internalType": "uint256",
                  "name": "spotExchangeRate",
                  "type": "uint256"
                },
                {
                  "internalType": "uint256",
                  "name": "oracleExchangeRate",
                  "type": "uint256"
                },
                {
                  "internalType": "uint256",
                  "name": "totalBorrowCap",
                  "type": "uint256"
                },
                {
                  "internalType": "uint256",
                  "name": "totalYieldBoxCollateralShare",
                  "type": "uint256"
                },
                {
                  "internalType": "uint256",
                  "name": "totalYieldBoxCollateralAmount",
                  "type": "uint256"
                },
                {
                  "internalType": "uint256",
                  "name": "totalYieldBoxAssetShare",
                  "type": "uint256"
                },
                {
                  "internalType": "uint256",
                  "name": "totalYieldBoxAssetAmount",
                  "type": "uint256"
                },
                {
                  "internalType": "enum TokenType",
                  "name": "yieldBoxCollateralTokenType",
                  "type": "uint8"
                },
                {
                  "internalType": "address",
                  "name": "yieldBoxCollateralContractAddress",
                  "type": "address"
                },
                {
                  "internalType": "address",
                  "name": "yieldBoxCollateralStrategyAddress",
                  "type": "address"
                },
                {
                  "internalType": "uint256",
                  "name": "yieldBoxCollateralTokenId",
                  "type": "uint256"
                },
                {
                  "internalType": "enum TokenType",
                  "name": "yieldBoxAssetTokenType",
                  "type": "uint8"
                },
                {
                  "internalType": "address",
                  "name": "yieldBoxAssetContractAddress",
                  "type": "address"
                },
                {
                  "internalType": "address",
                  "name": "yieldBoxAssetStrategyAddress",
                  "type": "address"
                },
                {
                  "internalType": "uint256",
                  "name": "yieldBoxAssetTokenId",
                  "type": "uint256"
                },
                {
                  "internalType": "uint256",
                  "name": "collateralizationRate",
                  "type": "uint256"
                }
              ],
              "internalType": "struct MagnetarV2Storage.MarketInfo",
              "name": "market",
              "type": "tuple"
            },
            {
              "components": [
                {
                  "internalType": "uint128",
                  "name": "elastic",
                  "type": "uint128"
                },
                {
                  "internalType": "uint128",
                  "name": "base",
                  "type": "uint128"
                }
              ],
              "internalType": "struct Rebase",
              "name": "totalAsset",
              "type": "tuple"
            },
            {
              "internalType": "uint256",
              "name": "userAssetFraction",
              "type": "uint256"
            },
            {
              "components": [
                {
                  "internalType": "uint64",
                  "name": "interestPerSecond",
                  "type": "uint64"
                },
                {
                  "internalType": "uint64",
                  "name": "lastAccrued",
                  "type": "uint64"
                },
                {
                  "internalType": "uint128",
                  "name": "feesEarnedFraction",
                  "type": "uint128"
                }
              ],
              "internalType": "struct ISingularity.AccrueInfo",
              "name": "accrueInfo",
              "type": "tuple"
            },
            {
              "internalType": "uint256",
              "name": "utilization",
              "type": "uint256"
            },
            {
              "internalType": "uint256",
              "name": "minimumTargetUtilization",
              "type": "uint256"
            },
            {
              "internalType": "uint256",
              "name": "maximumTargetUtilization",
              "type": "uint256"
            },
            {
              "internalType": "uint256",
              "name": "minimumInterestPerSecond",
              "type": "uint256"
            },
            {
              "internalType": "uint256",
              "name": "maximumInterestPerSecond",
              "type": "uint256"
            },
            {
              "internalType": "uint256",
              "name": "interestElasticity",
              "type": "uint256"
            },
            {
              "internalType": "uint256",
              "name": "startingInterestPerSecond",
              "type": "uint256"
            }
          ],
          "internalType": "struct MagnetarV2Storage.SingularityInfo[]",
          "name": "",
          "type": "tuple[]"
        }
      ],
      "stateMutability": "view",
      "type": "function"
    },
    {
      "inputs": [
        {
          "internalType": "address",
          "name": "newOwner",
          "type": "address"
        }
      ],
      "name": "transferOwnership",
      "outputs": [],
      "stateMutability": "nonpayable",
      "type": "function"
    },
    {
      "inputs": [
        {
          "internalType": "contract IYieldBoxBase",
          "name": "yieldBox",
          "type": "address"
        },
        {
          "internalType": "address",
          "name": "from",
          "type": "address"
        },
        {
          "internalType": "uint256",
          "name": "assetId",
          "type": "uint256"
        },
        {
          "internalType": "uint16",
          "name": "dstChainId",
          "type": "uint16"
        },
        {
          "internalType": "bytes32",
          "name": "receiver",
          "type": "bytes32"
        },
        {
          "internalType": "uint256",
          "name": "amount",
          "type": "uint256"
        },
        {
          "internalType": "uint256",
          "name": "share",
          "type": "uint256"
        },
        {
          "internalType": "bytes",
          "name": "adapterParams",
          "type": "bytes"
        },
        {
          "internalType": "address payable",
          "name": "refundAddress",
          "type": "address"
        },
        {
          "internalType": "uint256",
          "name": "gas",
          "type": "uint256"
        }
      ],
      "name": "withdrawToChain",
      "outputs": [],
      "stateMutability": "payable",
      "type": "function"
    },
    {
      "stateMutability": "payable",
      "type": "receive"
    }
  ],
  "bytecode": "0x6080346200014c57601f6200619638819003918201601f19168301916001600160401b03831184841017620001515780849260409485528339810103126200014c5780516001600160a01b0391828216908183036200014c5760200151928084168094036200014c57620000733362000167565b33906000541603620001085715620000b457620000909062000167565b600280546001600160a01b031916919091179055604051615fe79081620001af8239f35b60405162461bcd60e51b815260206004820152602660248201527f4f776e61626c653a206e6577206f776e657220697320746865207a65726f206160448201526564647265737360d01b6064820152608490fd5b606460405162461bcd60e51b815260206004820152602060248201527f4f776e61626c653a2063616c6c6572206973206e6f7420746865206f776e65726044820152fd5b600080fd5b634e487b7160e01b600052604160045260246000fd5b600080546001600160a01b039283166001600160a01b03198216811783559216907f8be0079c531659141344cd1fd0a4f28419497f9722a3daafe3b4186f6b6457e09080a356fe6080604052600436101561001b575b361561001957600080fd5b005b60003560e01c8063013546e11461015b5780630e8fd73b146101565780630f164bf41461015157806314ecf5a81461014c5780632ed48e4814610147578063443c73a7146101425780636dd55c0b1461013d578063715018a614610138578063832bfe30146101335780638da5cb5b1461012e5780639391dd6d14610129578063a306dfd514610124578063b25ea8fb1461011f578063b741c0791461011a578063cfd8b3d814610115578063e4e802e814610110578063e5546fac1461010b578063e985e9c514610106578063ea881c18146101015763f2fde38b0361000e576130cc565b612fa6565b612f48565b612e0b565b612a09565b6128cc565b6127df565b612508565b612451565b6122fd565b61228c565b6121b7565b612159565b611d98565b6118a0565b6117d0565b61163e565b611589565b6112c7565b610254565b9181601f84011215610190578235916001600160401b038311610190576020808501948460051b01011161019057565b600080fd5b60005b8381106101a85750506000910152565b8181015183820152602001610198565b906020916101d181518092818552858086019101610195565b601f01601f1916010190565b602080820190808352835180925260409283810182858560051b8401019601946000925b858410610212575050505050505090565b909192939495968580610243600193603f1986820301885286838d51805115158452015191818582015201906101b8565b990194019401929594939190610201565b6020806003193601126101905760049081356001600160401b038111610190576102819036908401610160565b9260009261028e85613334565b94845b8181106102b7576102b3876102a7883414614eb7565b604051918291826101dd565b0390f35b6102c28183876133ab565b606096878201906102d96102d5836133d2565b1590565b611277575b6040808401358092019960016102fd6102f6876134b6565b61ffff1690565b0361034257505050816103326103389261032a61031f8961033d9897016138b2565b9360808101906133dc565b9290916133d2565b92615d97565b6132ea565b610291565b61ffff600281610351886134b6565b160361037b5750505050816103756103389261032a61031f8961033d9897016138b2565b92615cb6565b90919295949a935061012c816103908d6134b6565b16036104c25750506103ba6103b26103ab60808c018c6133dc565b80916134c0565b810190614ca4565b80519092906103d6906001600160a01b0316615f4f565b615f4f565b841561046f57866104006103f46103f4838961040f96019e016138b2565b6001600160a01b031690565b9301516001600160a01b031690565b91803b15610190576000926104379251958680948193632479d86360e01b83528c8301612279565b03925af191821561046a5761033d92610451575b506132ea565b8061045e610464926125ba565b8061214e565b3861044b565b61321a565b98610485919294506103f4876103f492016138b2565b8386015182906001600160a01b031694015190803b1561019057610437946000809451809781958294630c46aac760e31b84528d33908501614cfd565b948561012d89976104d68e9596979e6134b6565b160361054f575061051e9250906103f4916105246103f46105086105006103ab60808701876133dc565b810190614dbf565b9893600180929e9499939b9260a01b0316615f4f565b016138b2565b92833b15610190576104378b9160009751998a978896879563695ef6bf60e01b875233908701614e5f565b60648161055b856134b6565b16036106975750509082918860006105a66103f46103f48a60809661051e6103d161059661058e6103ab8c8601866133dc565b810190614d80565b9e8f01516001600160a01b031690565b8851868a0151958a015194909901518651634d4d7cbd60e11b8152938401998a523360208b01526001600160a01b0390951660408a0152606089019390935260808801939093529586928391829060a00103925af1801561046a5761033d93600090819261065f575b5091518681019283526020830191909152906106399082906040015b03601f1981018352826126c8565b6106416126e9565b600181529085820152610654828a614bb1565b5261044b8189614bb1565b610639925061062b915061068890843d8611610690575b61068081836126c8565b810190614ce7565b92509061060f565b503d610676565b60c8816106a6859994956134b6565b16036107665750505060806106ec6103f46103f4896106d56106cd6103ab878c018c6133dc565b810190614d1f565b805190999061051e906001600160a01b0316615f4f565b858801519091906001600160a01b03169061070985880151151590565b9387015196015193823b1561019057516374d2492960e11b815233818b019081526001600160a01b03909216602083015292151560408201526060810195909552608085019290925292600091849182908490829060a001610437565b60c98161077689969495966134b6565b160361084b575050829150936107b96103f46103f46107eb976107a26103b26103ab60808801886133dc565b805190959061051e906001600160a01b0316615f4f565b8188015183906001600160a01b03169201519160008a8551988995869485936314890dcb60e21b855233908501614cfd565b03925af1801561046a5761033d936000908192610823575b50915186810192835260208301919091529061063990829060400161062b565b610639925061062b915061084390843d86116106905761068081836126c8565b925090610803565b60668161085a899596996134b6565b16036108c757505061044b929161062b61033d9661088d6108856103ab8660806108c29801906133dc565b810190614bc5565b9c5163b741c07960e01b9b81019b909b52999b8c9a909790969195929492916001600160a01b03908116911660248c01614c42565b615e24565b60cb816108d6859994996134b6565b16036109a25750506109036103f46103f4846107a26108fb6103ab60808801886133dc565b810190614b30565b818301516001600160a01b03169561091d85840151151590565b9201519560008a6109438751998a9687958694630cb0f5b760e31b865233908601614b87565b03925af192831561046a5761033d9361062b9261063992600092610973575b505187810191825292839160200190565b610994919250883d8a1161099b575b61098c81836126c8565b810190613226565b9038610962565b503d610982565b60cc816109ae856134b6565b1603610a135750506109d36103f46103f4846107a26108fb6103ab60808801886133dc565b818301516001600160a01b0316956109ed85840151151590565b9201519560008a6109438751998a968795869463cd0211eb60e01b865233908601614b87565b61012f81610a258599949697956134b6565b1603610aa157505091610a736103f4926103f494610a54610a4c6103ab60808b018b6133dc565b8101906149ee565b95979699939b929c919a90949e61051e60018060a01b03809c16615f4f565b96873b15610190576000998f9961043795519d8e9b8c9a8b99630cdc41b960e11b8b52169033908a01614a8d565b61013081610ab1899695996134b6565b1603610b3157505091816103f495936103f4610ae1610ad96103ab6080610b009801866133dc565b810190614825565b959c969b9397929e919a90949961051e60018060a01b03809e16615f4f565b96873b15610190578e9b60009a8a9861043796519e8f9c8d9b8c9a623f241960e81b8c521693169033908a016148c5565b61013181610b41869794966134b6565b1603610c47575050608094610b876103f46103f48a610b70610b686103ab8c8b018b6133dc565b810190614716565b805190989061051e906001600160a01b0316615f4f565b848901519092906001600160a01b0316918086015194860151978601519060c0610bb660a089015161ffff1690565b970151853b15610190579051634663f85d60e11b815233818e019081526001600160a01b039586166020808301919091526040820198909852606081019a909a5260808a019290925261ffff90961660a0890152855160c089015294909301511660e086015291936000928592909183919082906101000103925af191821561046a5761033d9261045157506132ea565b61013281610c5887999694976134b6565b1603610cd2575050906103f4610ca49286610c87610c7f6103ab60806103f49b01846133dc565b810190614641565b949a939d929598919b909661051e60018060a01b03809b16615f4f565b95863b1561019057600098610437938f92519c8d9a8b998a986323c8387760e11b8a521694339089016146a5565b90915060cd81610ce1886134b6565b1603610d5a575061044b9261062b61033d96936108c293610d15610d0d6103ab608098898101906133dc565b8101906144af565b80519091906001600160a01b03169685830151918484015190840151918401519260c060a08601519501519551998a986339551beb60e21b908a0152602489016145ca565b60ce81610d688895986134b6565b1603610dcd575050926108c261044b9261062b610d9a610d926103ab89608061033d9b01906133dc565b810190614374565b9951630832bfe360e41b9881019890985296988997909590949293926001600160a01b03908116925016602488016143c3565b60cf81610ddb8596956134b6565b1603610e355750505061062b6108c261033d94610e0d610e056103ab86608061044b9801906133dc565b810190614307565b9251639391dd6d60e01b8b82015294859390929091906001600160a01b031660248501614349565b60d081610e438695966134b6565b1603610ea7575050926108c261044b9261062b610e75610e6d6103ab89608061033d9b01906133dc565b810190614261565b99516303c592fd60e21b9881019890985296988997909590949193916001600160a01b039081169116602489016142c5565b60d181610eb6859894956134b6565b1603610f825750610eda610ed26103ab608097888101906133dc565b81019061418c565b600089610f4c610ef66103f46103f4865160018060a01b031690565b848801519095906001600160a01b031681860151978601519a86015160a087015191969160c090610f2f906001600160a01b03166103f4565b9201519251630f74e47960e11b81529b8c998a9889978801614227565b03925af191821561046a5761033d92610f6557506132ea565b610f7b90853d871161099b5761098c81836126c8565b503861044b565b60d281610f8e886134b6565b160361101f5750610fb2610faa6103ab608097888101906133dc565b8101906140c3565b600089610f4c610fce6103f46103f4865160018060a01b031690565b848801519095906001600160a01b031681860151978601519a86015190959060a090611002906001600160a01b03166103f4565b9101519151632c6dcd7f60e11b81529a8b9889978896870161415a565b9092506101908161102f876134b6565b160361109a57506110626103f46103f48861105b6110536103ab60808b018b6133dc565b810190613f1e565b97016138b2565b845187860151928487015196015193823b156101905789610437600096879351998a97889687956318e7fa1960e01b87528601614001565b60d39492919480826110ab866134b6565b160361113e5750506080906110e16103f46103f4896110da6110d26103ab888a018a6133dc565b810190613c7b565b96016138b2565b83519091906001600160a01b03169088850151938186015197860151908601519160a08701519660e060c082015191015190863b156101905760009889958f9561043795519d8e9b8c9a8b9963bf2271ab60e01b8b528a01613dbb565b61114a6102f6856134b6565b0361116f57506080906110e16103f46103f4896110da6110d26103ab888a018a6133dc565b6101339061117c846134b6565b160361122a576080906111a96103f46103f4896110da6111a16103ab888a018a6133dc565b8101906137d5565b83519091906001600160a01b0316848901519091906001600160a01b0316936111e96111d98388015161ffff1690565b988701516001600160a01b031690565b908601519160a08701519660e060c082015191015190863b156101905760009889958f9561043795519d8e9b8c9a8b9963254d7d3760e21b8b528a01613ab8565b5162461bcd60e51b81526020818801818152601c918101919091527b135859db995d185c958c8e881858dd1a5bdb881b9bdd081d985b1a5960221b604082015281906060010390fd5b0390fd5b6112b161128760808501856133dc565b90506112a96040516112a48161062b8a8d83019190602083019252565b61340e565b90151561348a565b6102de565b6001600160a01b0381160361019057565b3461019057604080600319360112610190576004908135916112e8836112b6565b815163f9557ccb60e01b81526001600160a01b039384169083818481855afa90811561046a576000908192611515575b50845163020a17bd60e61b81529585878681875afa96871561046a576000976114e5575b50855163226f120560e11b81526020919082818881895afa95861561046a5787916000976114c4575b50839089519283809263de40657760e01b82525afa90811561046a57600091611497575b501693865194638eb22cdd60e01b968787528387806113ad60243587868401613235565b0381855afa96871561046a57600097611474575b5083949596976113f68a519b8c958694859485528401604090600192949360608201958252838060801b031660208201520152565b03915afa801561046a576102b39661142392600092611457575b506001600160801b039384169050613327565b918261143c57505050905b519081529081906020820190565b9261144c916114519416906132b2565b6132ca565b9061142e565b61146d9250803d1061099b5761098c81836126c8565b3880611410565b849596975061148f90853d871161099b5761098c81836126c8565b9695946113c1565b6114b79150833d85116114bd575b6114af81836126c8565b810190613202565b38611389565b503d6114a5565b849197506114de90823d841161099b5761098c81836126c8565b9690611365565b611506919750863d881161150e575b6114fe81836126c8565b810190613277565b50953861133c565b503d6114f4565b905061152e9150843d861161150e576114fe81836126c8565b9038611318565b3590611540826112b6565b565b8015150361019057565b359061154082611542565b60a090604319011261019057604490565b60a0906101431901126101905761014490565b908160a09103126101905790565b60e0366003190112610190576004356115a1816112b6565b602435906115ae826112b6565b60a4356115ba81611542565b60c435926001600160401b0384116101905761062b6108c2926115e461001996369060040161157b565b906040519586946303c592fd60e21b602087015260018060a01b0380921660248701521660448501526044356064850152606435608485015260843560a4850152151560c484015260e060e4840152610104830190614f21565b34610190576040806003193601126101905760043561165c816112b6565b815163f9557ccb60e01b8152916001600160a01b039182168184600481845afa92831561046a5760009485946117ab575b50825163de40657760e01b81526020958682600481875afa91821561046a57600494889160009461178c575b50865163226f120560e11b815295869182905afa801561046a5761172496889560009261176b575b50909161170891906001600160801b03906117009082166024356132b2565b9116906132ca565b92855180978195829463442c159960e01b845260048401613235565b0392165afa91821561046a576102b39360009361174c575b5050519081529081906020820190565b611763929350803d1061099b5761098c81836126c8565b90388061173c565b611708925061178690873d891161099b5761098c81836126c8565b916116e1565b6117a4919450823d84116114bd576114af81836126c8565b92386116b9565b9093506117c6919450823d841161150e576114fe81836126c8565b939093923861168d565b34610190576040806003193601126101905760049081356117f0816112b6565b81602435916117fd61324d565b50815163020a17bd60e61b815294859182906001600160a01b03165afa801561046a576102b3936000908192611880575b5083519161183b836125d2565b6001600160801b03918216808452908216602084018190529061186a5750505090519081529081906020820190565b61187790611451946132b2565b915116906132ca565b90506118999150833d851161150e576114fe81836126c8565b903861182e565b346101905760803660031901126101905760048035906118bf826112b6565b6118c761324d565b506040805163020a17bd60e61b8152926001600160a01b039081169082858581855afa94851561046a576000908196611a8e575b506119166119076126e9565b6001600160801b039092168252565b6001600160801b0390951660208681019190915294835163de40657760e01b81529086828781875afa91821561046a57600092611a6b575b5061195c90602435906132f9565b84516377607a1760e11b8152909287828881885afa91821561046a57600092611a4c575b50855163294c4c7960e11b81529388858981895afa94851561046a5788958a926119b292600092611a34575b506132b2565b95875198898092633ba0b9a960e01b82525afa94851561046a576119e689966119fa926117249a600092611a1557506132b2565b6119f46064356044356132b2565b906132ca565b8651638eb22cdd60e01b815297889586948593918401613235565b611a2d919250893d8b1161099b5761098c81836126c8565b90386119ac565b611a2d919250843d861161099b5761098c81836126c8565b611a64919250883d8a1161099b5761098c81836126c8565b9038611980565b61195c919250611a8790883d8a116114bd576114af81836126c8565b919061194e565b9050611aa8919550833d851161150e576114fe81836126c8565b9490386118fb565b90604060031983011261019057600435611ac9816112b6565b91602435906001600160401b03821161019057611ae891600401610160565b9091565b80516001600160801b03908116835260209182015116910152565b634e487b7160e01b600052602160045260246000fd5b906005821015611b2a5752565b611b07565b80516001600160a01b0316825290602082810151908201526040808301516001600160a01b031690820152606082810151908201526080808301516001600160a01b031690820152610360611b9360a08401516103808060a08601528401906101b8565b9260c081015160c084015260e081015160e0840152611bbb6101008083015190850190611aec565b6101208101516101409081850152810151610160908185015281015161018090818501528101516101a090818501528101516101c090818501528101516101e09081850152810151610200908185015281015161022090818501528101516102409081850152810151611c346102609182860190611b1d565b8101516001600160a01b0316610280848101919091528101516001600160a01b03166102a0848101919091528101516102c09081850152810151611c7e6102e09182860190611b1d565b8101516001600160a01b0316610300848101919091528101516001600160a01b031661032084810191909152810151906103409182850152015191015290565b602080820190808352835180925260409283810182858560051b8401019601946000925b858410611cf3575050505050505090565b909192939495968580600192603f198582030187528a5190610100611d218351610120808552840190611b2f565b9284810151856001600160401b039182815116828701520151168984015288810151606090818501528101516080908185015281015160a09081850152810151611d7760c0918286019060018060a01b03169052565b8101519060e091828501520151910152990194019401929594939190611ce2565b3461019057611da636611ab0565b90611db0826131eb565b91604091611dc0835194856126c8565b8184526020918285019060051b820191368311610190578390915b8383106121345750505050825190611df282615bad565b93611dfb61324d565b5060005b838110611e13578451806102b38882611cbe565b611e306103f4611e238385614bb1565b516001600160a01b031690565b906001600160a01b03611e458184168a61535b565b611e4f838a614bb1565b51528651632c9f039d60e21b81526004939088818681855afa801561046a576000918291612101575b50611ea690611e97611e886126e9565b6001600160401b039094168452565b6001600160401b031682890152565b86611eb1858c614bb1565b510152875163f791395d60e01b815286818681855afa90811561046a576000916120e4575b5088611ee2858c614bb1565b510152875163358cd68b60e11b815286818681855afa90811561046a576000916120c7575b506060611f14858c614bb1565b510152875163bde39c5d60e01b815286818681855afa90811561046a576000916120aa575b506080611f46858c614bb1565b510152875163c1ad5c8d60e01b815286818681855afa91821561046a578592858c8a94600093612082575b5060e091611f7e91614bb1565b5101528951636c3d8b8f60e01b815292839182905afa90811561046a57600091612065575b508751631848f2bf60e31b8152911685828581845afa91821561046a578692611fec91600091612048575b5060a0611fdb868d614bb1565b516001600160a01b03909216910152565b875163e6abad4960e01b815293849182905afa801561046a576120269260009161202b575b5060c061201e838a614bb1565b5101526132ea565b611dff565b6120429150853d871161099b5761098c81836126c8565b38612011565b61205f9150843d86116114bd576114af81836126c8565b38611fce565b61207c9150863d88116114bd576114af81836126c8565b38611fa3565b611f7e919350916120a160e093873d891161099b5761098c81836126c8565b93915091611f71565b6120c19150873d891161099b5761098c81836126c8565b38611f39565b6120de9150873d891161099b5761098c81836126c8565b38611f07565b6120fb9150873d891161099b5761098c81836126c8565b38611ed6565b611ea6925061212691508a3d8c1161212d575b61211e81836126c8565b810190615c43565b9091611e78565b503d612114565b81908335612141816112b6565b8152019101908390611ddb565b600091031261019057565b34610190576000806003193601126121b457612173613193565b80546001600160a01b03198116825581906001600160a01b03167f8be0079c531659141344cd1fd0a4f28419497f9722a3daafe3b4186f6b6457e08280a380f35b80fd5b60e0366003190112610190576004356121cf816112b6565b602435906121dc826112b6565b608435916121e983611542565b60a435906121f682611542565b60c4356001600160401b03811161019057610019946108c29361222061062b93369060040161157b565b91604051968795630832bfe360e41b602088015260018060a01b03809216602488015216604486015260443560648601526064356084860152151560a4850152151560c484015260e060e4840152610104830190614f21565b6001600160a01b03909116815260200190565b34610190576000366003190112610190576000546040516001600160a01b039091168152602090f35b606090602319011261019057602490565b60609060e31901126101905760e490565b6060906101e3190112610190576101e490565b6060906102431901126101905761024490565b60031960a0368201126101905760043590612317826112b6565b612320366122b5565b90608435926001600160401b03841161019057836004016101c080938636030112610190576100199461243f61062b926101a46124376108c2976123876040519a8b99639391dd6d60e01b60208c015260018060a01b031660248b015260448a0190615010565b60a060a48901526123a460c4890161239e8661154c565b15159052565b602486013560e48901526123c76123bd6044880161154c565b15156101048a0152565b6124256101246064880135818b01526123ef6123e560848a0161154c565b15156101448c0152565b60a48801356101648b015261241d61018491612410838d0160c48c01614fda565b6101e48c01908a01614fda565b870185615053565b90610244890152610284880190614f21565b930190615053565b83820360c31901610264850152614f21565b346101905760408060031936011261019057806004918235612472816112b6565b61247a61324d565b50815163020a17bd60e61b815293849182906001600160a01b03165afa91821561046a576102b3926124d99160009081926124e8575b508351916124bd836125d2565b6001600160801b039182168352166020820152602435906132f9565b90519081529081906020820190565b90506125019150833d851161150e576114fe81836126c8565b90386124b0565b3461019057604036600319011261019057602435612525816112b6565b61252d613193565b60008080808094600435905af1612542615067565b501561254b5780f35b60405162461bcd60e51b815260206004820152601a60248201527926b0b3b732ba30b91d103a3930b739b332b9103330b4b632b21760311b6044820152606490fd5b61ffff81160361019057565b35906115408261258d565b634e487b7160e01b600052604160045260246000fd5b6001600160401b0381116125cd57604052565b6125a4565b604081019081106001600160401b038211176125cd57604052565b606081019081106001600160401b038211176125cd57604052565b60a081019081106001600160401b038211176125cd57604052565b608081019081106001600160401b038211176125cd57604052565b60c081019081106001600160401b038211176125cd57604052565b60e081019081106001600160401b038211176125cd57604052565b61016081019081106001600160401b038211176125cd57604052565b61010081019081106001600160401b038211176125cd57604052565b6102e081019081106001600160401b038211176125cd57604052565b90601f801991011681019081106001600160401b038211176125cd57604052565b60405190611540826125d2565b6040519061014082018281106001600160401b038211176125cd57604052565b6040519061154082612674565b6040519061154082612690565b6040519061154082612659565b6040519061012082018281106001600160401b038211176125cd57604052565b6040519061036082018281106001600160401b038211176125cd57604052565b6001600160401b0381116125cd57601f01601f191660200190565b81601f82011215610190578035906127af8261277d565b926127bd60405194856126c8565b8284526020838301011161019057816000926020809301838601378301015290565b61014080600319360112610190576004356127f9816112b6565b602435612805816112b6565b606435916128128361258d565b60e435916001600160401b03831161019057610019946128ad61283c6108c2953690600401612798565b6101049283359361284c856112b6565b61ffff604051998a9863b741c07960e01b60208b015260018060a01b03988980921660248c01521660448a015260443560648a015216608488015260843560a488015260a43560c488015260c43560e48801528601526101648501906101b8565b916101249116818401523561014483015203601f1981018352826126c8565b34610190576000366003190112610190576002546040516001600160a01b039091168152602090f35b602080820190808352835180925260409283810182858560051b8401019601946000925b85841061292a575050505050505090565b909192939495968580600192603f198582030187528a51906101a061295883516101c0808552840190611b2f565b926129698582015186850190611aec565b88810151606090818501528101516129ae608091828601906040906001600160401b0380825116845260208201511660208401528160018060801b0391015116910152565b8101519060e0918285015260a081015191610100928386015260c08201519061012091828701528201519261014093848701528201516101608601528101516101808501520151910152990194019401929594939190612919565b3461019057612a1736611ab0565b90612a21826131eb565b91604091612a31835194856126c8565b8184526020918285019060051b820191368311610190578390915b838310612df15750505050825190612a638261515d565b93612a6c61324d565b5060005b838110612a84578451806102b388826128f5565b612a946103f4611e238385614bb1565b90612aa86001600160a01b0383168961535b565b612ab28289614bb1565b5152855163f9557ccb60e01b81526004929087818581855afa801561046a576000918291612dce575b50612b0990612afa612aeb6126e9565b6001600160801b039094168452565b6001600160801b031682880152565b85612b14848b614bb1565b51015286516370a0823160e01b8152858180612b328d888301612279565b0381855afa90811561046a57600091612db1575b5087612b52848b614bb1565b5101528651630bbfc09d60e31b8152608080828681865afa91821561046a576000908193612d7f575b506060612b88868d614bb1565b510152612b95848b614bb1565b51015286516001620fd9cd60e11b0319815285818581855afa90811561046a57600091612d62575b5060a0612bca848b614bb1565b510152865163f42760b760e01b815285818581855afa90811561046a57600091612d45575b5060c0612bfc848b614bb1565b5101528651632a8a011960e11b815285818581855afa90811561046a57600091612d28575b5060e0612c2e848b614bb1565b5101528651631570aae560e21b815285818581855afa90811561046a57600091612d0b575b50610100612c61848b614bb1565b510152865163104244dd60e31b81529085828581845afa801561046a578692600091612cee575b50610120612c96858c614bb1565b51015287516352f353eb60e01b815293849182905afa801561046a57612ccc92600091612cd1575b5061014061201e838a614bb1565b612a70565b612ce89150853d871161099b5761098c81836126c8565b38612cbe565b612d059150833d851161099b5761098c81836126c8565b38612c88565b612d229150863d881161099b5761098c81836126c8565b38612c53565b612d3f9150863d881161099b5761098c81836126c8565b38612c21565b612d5c9150863d881161099b5761098c81836126c8565b38612bef565b612d799150863d881161099b5761098c81836126c8565b38612bbd565b905081612da29293503d8411612daa575b612d9a81836126c8565b810190615238565b919038612b7b565b503d612d90565b612dc89150863d881161099b5761098c81836126c8565b38612b46565b612b099250612dea9150893d8b1161150e576114fe81836126c8565b9091612adb565b81908335612dfe816112b6565b8152019101908390612a4c565b6102a036600319011261019057610019600435612e27816112b6565b612f3a612e3336611557565b91612f2f612e40366122c6565b916080612e4c36611568565b612e55366122d7565b92612ec2612e62366122ea565b96612eb76040519a6339551beb60e21b60208d015260018060a01b0380951660248d015260243560448d01528035612e9981611542565b151560648d0152602081013560848d0152604060a48d019101614fab565b6101048a0190614fab565b8135612ecd81611542565b15156101648901526020820135612ee3816112b6565b166101848801526040810135612ef881613266565b600180841b038091166101a48901526060820135612f1581613266565b166101c488015201356101e4860152610204850190614fda565b610264830190615010565b6102a481526108c2816126ac565b3461019057604036600319011261019057600435612f65816112b6565b60243590612f72826112b6565b60018060a01b03809116600052600160205260406000209116600052602052602060ff604060002054166040519015158152f35b3461019057604036600319011261019057600435612fc3816112b6565b60405163de40657760e01b81526020916001600160a01b0391908216908381600481855afa90811561046a5784906000926130ac575b506040516377607a1760e11b81529192829060049082905afa91821561046a5784926130489260009161308f575b5060405194858094819363442c159960e01b83526024359060048401613235565b0392165afa90811561046a576102b392600092613072575b50506040519081529081906020820190565b6130889250803d1061099b5761098c81836126c8565b3880613060565b6130a69150843d861161099b5761098c81836126c8565b38613027565b600492506130c690823d84116114bd576114af81836126c8565b91612ff9565b34610190576020366003190112610190576004356130e9816112b6565b6130f1613193565b6001600160a01b03908116801561313f57600080546001600160a01b03198116831782559092167f8be0079c531659141344cd1fd0a4f28419497f9722a3daafe3b4186f6b6457e08380a380f35b60405162461bcd60e51b815260206004820152602660248201527f4f776e61626c653a206e6577206f776e657220697320746865207a65726f206160448201526564647265737360d01b6064820152608490fd5b6000546001600160a01b031633036131a757565b606460405162461bcd60e51b815260206004820152602060248201527f4f776e61626c653a2063616c6c6572206973206e6f7420746865206f776e65726044820152fd5b6001600160401b0381116125cd5760051b60200190565b908160209103126101905751613217816112b6565b90565b6040513d6000823e3d90fd5b90816020910312610190575190565b60409060009294936060820195825260208201520152565b6040519061325a826125d2565b60006020838281520152565b6001600160801b0381160361019057565b9190826040910312610190576020825161329081613266565b92015161321781613266565b634e487b7160e01b600052601160045260246000fd5b818102929181159184041417156132c557565b61329c565b81156132d4570490565b634e487b7160e01b600052601260045260246000fd5b60001981146132c55760010190565b60208101805190916001600160801b039182166133165750505090565b6132179382611877925116906132b2565b919082018092116132c557565b9061333e826131eb565b604061334c815192836126c8565b838252819361335d601f19916131eb565b0191600091825b848110613372575050505050565b6020908251613380816125d2565b85815282606081830152828601015201613364565b634e487b7160e01b600052603260045260246000fd5b91908110156133cd5760051b81013590609e1981360301821215610190570190565b613395565b3561321781611542565b903590601e198136030182121561019057018035906001600160401b0382116101905760200191813603831361019057565b90611540604e60405180947f4d61676e6574617256323a204d697373696e672063616c6c20666f722061637460208301526d0d2dedc40eed2e8d040d2dcc8caf60931b60408301526134698151809260208686019101610195565b810103602e8101855201836126c8565b9060206132179281815201906101b8565b156134925750565b60405162461bcd60e51b8152602060048201529081906112739060248301906101b8565b356132178161258d565b909291928360041161019057831161019057600401916003190190565b9190826060910312610190576040516134f5816125ed565b60408082948035613505816112b6565b84526020810135613515816112b6565b6020850152013591613526836112b6565b0152565b919082606091031261019057604051613542816125ed565b6040808294803561355281611542565b84526020810135613562816112b6565b60208501520135910152565b919060a083820312610190576040519061358782612608565b8193803561359481611542565b83526020810135602084015260408101356135ae81611542565b604084015260608101356135c18161258d565b60608401526080810135916001600160401b038311610190576080926135e79201612798565b910152565b91906101c083820312610190576136016126f6565b9261360b8161154c565b8452602081013560208501526136236040820161154c565b60408501526060810135606085015261363e6080820161154c565b608085015260a081013560a085015261365a8260c0830161352a565b60c08501526101209161366f8184840161352a565b60e08601526001600160401b03610180830135818111610190578261369591850161356e565b6101008701526101a0830135908111610190576136b2920161356e565b90830152565b359060ff8216820361019057565b81601f82011215610190578035906136dd826131eb565b926040906136ed825195866126c8565b838552602091828601918361016080970286010194818611610190578401925b85841061371e575050505050505090565b868483031261019057848791613732612716565b61373b8761154c565b815261374883880161154c565b83820152613757868801611535565b86820152606061376881890161154c565b908201526080613779818901611535565b9082015260a061378a818901611535565b9082015260c0808801359082015260e080880135908201526101006137b08189016136b8565b908201526101208088013590820152610140808801359082015281520193019261370d565b906020828203126101905781356001600160401b03928382116101905701906101408282031261019057613807612723565b9261381183611535565b845261381f60208401611535565b602085015261383060408401612599565b604085015261384160608401611535565b60608501526080830135818111610190578261385e918501612798565b60808501526138708260a085016134dd565b60a0850152610100830135818111610190578261388e9185016135ec565b60c0850152610120830135908111610190576138aa92016136c6565b60e082015290565b35613217816112b6565b80516001600160a01b03908116835260208083015182169084015260409182015116910152565b8051151582526020808201516001600160a01b031690830152604090810151910152565b9060a06080613217938051151584526020810151602085015260408101511515604085015261ffff606082015116606085015201519181608082015201906101b8565b80511515825261321791602082015160208201526139716040830151604083019015159052565b6060820151606082015261398e6080830151608083019015159052565b60a082015160a08201526139aa60c083015160c08301906138e3565b60e08201516139bf61012091828401906138e3565b6139da6101008401516101c080610180860152840190613907565b920151906101a0818403910152613907565b90815180825260208080930193019160005b828110613a0c575050505090565b90919293826101606001928751613a2582825115159052565b808401511515828501526040818101516001600160a01b0316908301526060818101511515908301526080818101516001600160a01b03169083015260a0818101516001600160a01b03169083015260c0818101519083015260e080820151908301526101008082015160ff169083015261012081810151908301526101409081015190820152019501939291016139fe565b9692948761321799979561ffff613b1b98613b0295613b0d9760018060a01b03958680931690521660208d01521660408b01521660608901526101408060808a01528801906101b8565b9260a08701906138bc565b84820361010086015261394a565b916101208184039101526139ec565b91906060838203126101905760405190613b43826125ed565b81938035613b50816112b6565b8352602081013560208401526040810135916001600160401b038311610190576040926135e79201612798565b91909160e08184031261019057613b92612730565b9281358452613ba360208301612599565b6020850152613bb460408301612599565b6040850152613bc560608301611535565b60608501526001600160401b039160808101358381116101905782613beb918301612798565b608086015260a081013592831161019057613c0d60c092613c18948301612798565b60a086015201611535565b60c0830152565b919082608091031261019057604051613c3781612623565b60608082948035613c47816112b6565b84526020810135613c57816112b6565b60208501526040810135613c6a816112b6565b6040850152013591613526836112b6565b906020828203126101905781356001600160401b03928382116101905701906101608282031261019057613cad612723565b92613cb783611535565b8452602083013560208501526040830135604085015260608301358181116101905782613ce5918501613b2a565b606085015260808301358181116101905782613d02918501613b7d565b6080850152613d148260a08501613c1f565b60a08501526101208301358181116101905782613d32918501612798565b60c0850152610140830135908111610190576138aa92016136c6565b908151815261ffff806020840151166020830152604083015116604082015260c060018060a01b0380606085015116606084015281613db1613d9f608087015160e0608088015260e08701906101b8565b60a087015186820360a08801526101b8565b9401511691015290565b969294613e1c60406132179a98966060613e2a95613e739a848e613e659a60018060a01b038095168252602082015201528c6101609283910152825116908c015260208101516101808c0152015160606101a08b01526101c08a01906101b8565b9088820360808a0152613d4e565b83516001600160a01b0390811660a08901526020850151811660c08901526040850151811660e0890152606090940151909316610100870152565b8482036101208601526101b8565b916101408184039101526139ec565b919082606091031261019057604051613e9a816125ed565b604080829480356135528161258d565b91908260c091031261019057604051613ec28161263e565b60a08082948035613ed281611542565b84526020810135613ee2816112b6565b60208501526040810135613ef58161258d565b6040850152606081013560608501526080810135613f12816112b6565b60808501520135910152565b906020828203126101905781356001600160401b03928382116101905701908181039261020084126101905760c060405194613f5986612623565b1261019057604051613f6a8161263e565b8335613f75816112b6565b81526020840135613f85816112b6565b602082015260408401356040820152606084013560608201526080840135613fac816112b6565b608082015260a084013560a08201528452613fca8260c08501613e82565b6020850152613fdd826101208501613eaa565b60408501526101e083013590811161019057613ff992016136c6565b606082015290565b81516001600160a01b039081168252602080840151821681840152604084810151818501526060808601518186015260808087015185168187015260a09687015187870152875161ffff90811660c088015284890151861660e088015297830151610100870152885115156101208701529288015184166101408601529087015190951661016084015293850151610180830152928401519092166101a0830152909101516101c0820152613217919061020090816101e082015201906139ec565b906020828203126101905781356001600160401b039283821161019057019060c08282031261019057604051926140f98461263e565b8235614104816112b6565b845261411260208401611535565b6020850152604083013560408501526060830135606085015261413760808401611535565b608085015260a0830135908111610190576141529201612798565b60a082015290565b919360a0936132179695600180871b0380941685526020850152604084015216606082015281608082015201906101b8565b906020828203126101905781356001600160401b039283821161019057019060e082820312610190576141bd612730565b926141c783611535565b84526141d560208401611535565b602085015260408301356040850152606083013560608501526080830135608085015261420460a08401611535565b60a085015260c08301359081116101905761421f9201612798565b60c082015290565b929360c0946132179796929360018060a01b0380951686526020860152604085015260608401521660808201528160a082015201906101b8565b9060e082820312610190578135614277816112b6565b926020830135614286816112b6565b9260408101359260608201359260808301359260a08101356142a781611542565b9260c08201356001600160401b03811161019057613217920161356e565b93909261321797969360e0969360018060a01b038092168752166020860152604085015260608401526080830152151560a08201528160c08201520190613907565b9160a08383031261019057823561431d816112b6565b9261432b83602083016134dd565b9260808201356001600160401b0381116101905761321792016135ec565b614367613217949360a093600180861b0316835260208301906138bc565b816080820152019061394a565b9060e08282031261019057813561438a816112b6565b926020830135614399816112b6565b9260408101359260608201359260808301356143b481611542565b9260a08101356142a781611542565b9260e0949161321797969360018060a01b0380921686521660208501526040840152606083015260006080830152151560a08201528160c08201520190613907565b91908260609103126101905760405161441d816125ed565b6040808294803561442d81611542565b84526020810135602085015201359161352683611542565b91908260a09103126101905760405161445d81612608565b6080808294803561446d81611542565b8452602081013561447d816112b6565b6020850152604081013561449081613266565b604085015260608101356144a381613266565b60608501520135910152565b808203916102a083126101905760a0604051936144cb85612659565b83356144d6816112b6565b855260208401356020860152603f1901126101905761024061421f926040516144fe816125ed565b604082013561450c81611542565b8152606082013560208201526145258460808401614405565b6040820152604086015261453c8360e08301614405565b606086015261454f836101408301614445565b6080860152614562836101e0830161352a565b60a0860152016134dd565b604080918051151584526020810151602085015201511515910152565b6080809180511515845260018060a01b036020820151166020850152600180831b0380604083015116604086015260608201511660608501520151910152565b9261154096919897956146246102409661461a604061462f9561463a986102a08b019f60018060a01b03168b5260208b015280511515828b0152602081015160608b01520151608089019061456d565b60e087019061456d565b61014085019061458a565b6101e08301906138e3565b01906138bc565b9060e082820312610190578135614657816112b6565b9260208301359260408101359260608201359260808301356146788161258d565b9260a0810135614687816112b6565b9260c08201356001600160401b038111610190576132179201612798565b939460e09561ffff929461321799989460018060a01b0380971688526020880152604087015260608601521660808401521660a08201528160c082015201906101b8565b919082604091031261019057604051614701816125d2565b602080829480358452013591613526836112b6565b90610100828203126101905761421f9060c06040519361473585612659565b8035614740816112b6565b85526020810135614750816112b6565b602086015260408101356040860152606081013560608601526080810135608086015260a08101356147818161258d565b60a0860152016146e9565b91906101e0838203126101905761481d906101806147a861273d565b946147b28161154c565b865260208101356020870152604081013560408701526147d460608201611535565b60608701526147e560808201611535565b60808701526147f660a0820161154c565b60a087015260c081013560c08701526148128360e08301614445565b60e08701520161352a565b610100830152565b91906102c0838203126101905761483b83611535565b9261484860208201611535565b9261485560408301612599565b9261486260608401611535565b92614870826080830161478c565b926001600160401b039161026081013583811161019057846148939183016136c6565b9361028082013584811161019057816148ad91840161356e565b936102a0830135908111610190576132179201612798565b969394876149a69661ffff61499796614985956132179d9b9760018060a01b03958680931690521660208d01521660408b0152166060890152805115156080890152602081015160a0890152604081015160c0890152614934606082015160e08a019060018060a01b03169052565b60808101516001600160a01b0316610100898101919091529060a081015115156101208a015260c08101516101408a015261497860e08201516101608b019061458a565b01516102008801906138e3565b6102c0806102608801528601906139ec565b90848203610280860152613907565b916102a08184039101526101b8565b9190826080910312610190576040516149cd81612623565b606080829480358452602081013560208501526040810135613c6a816112b6565b906101808282031261019057614a0382611535565b92614a1060208401611535565b92614a1d60408201612599565b926001600160401b0360608301358181116101905782614a3e918501612798565b93614a4c83608086016149b5565b936101008101358381116101905784614a6691830161356e565b93614a758161012084016146e9565b936101608301359081116101905761321792016136c6565b94916060614acf614b229661ffff614b03976132179d9b9660018060a01b0396878092168d521660208c01521660408a015261018080848b01528901906101b8565b9380516080890152602081015160a08901528260408201511660c089015201511660e0860152848203610100860152613907565b84516101208401526020909401516001600160a01b0316610140830152565b6101608184039101526139ec565b9081608091031261019057606060405191614b4a83612623565b8035614b55816112b6565b83526020810135614b65816112b6565b60208401526040810135614b7881611542565b60408401520135606082015290565b6001600160a01b039182168152911660208201529015156040820152606081019190915260800190565b80518210156133cd5760209160051b010190565b909161012082840312610190578135614bdd816112b6565b926020830135614bec816112b6565b926040810135926060820135614c018161258d565b9260808301359260a08101359260c08201359260e08301356001600160401b0381116101905761010091614c36918501612798565b920135613217816112b6565b9692610120989461ffff91614c9897939d9c9b9d98949860018060a01b03998a8092168c521660208b015260408a0152166060880152608087015260a086015260c08501526101408060e08601528401906101b8565b95166101008201520152565b90816060910312610190576040805191614cbd836125ed565b8035614cc8816112b6565b83526020810135614cd8816112b6565b60208401520135604082015290565b9190826040910312610190576020825192015190565b6001600160a01b03918216815291166020820152604081019190915260600190565b908160a091031261019057608060405191614d3983612608565b8035614d44816112b6565b83526020810135614d54816112b6565b60208401526040810135614d6781611542565b6040840152606081013560608401520135608082015290565b908160a091031261019057608060405191614d9a83612608565b803583526020810135614dac816112b6565b60208401526040810135614d67816112b6565b91909160a081840312610190578035614dd7816112b6565b926020820135614de68161258d565b9260408301359260608101359260808201356001600160401b03928382116101905701906060828203126101905760405192614e21846125ed565b8235614e2c816112b6565b84526020830135614e3c816112b6565b6020850152604083013590811161019057614e579201612798565b604082015290565b939061321795916101009461ffff60409560018060a01b03809516895216602088015284870152606086015260a060808601528082511660a086015260208201511660c0850152015191606060e082015201906101b8565b15614ebe57565b60405162461bcd60e51b815260206004820152601a60248201527909ac2cedccae8c2e4ac647440ecc2d8eaca40dad2e6dac2e8c6d60331b6044820152606490fd5b908060209392818452848401376000828201840152601f01601f1916010190565b8035614f2c81611542565b15158252602081013560208301526040810135614f4881611542565b1515604083015261ffff6060820135614f608161258d565b1660608301526080810135601e19823603018112156101905701602081359101906001600160401b0381116101905780360382136101905760a0838160806132179601520191614f00565b604080918035614fba81611542565b15158452602081013560208501520135614fd381611542565b1515910152565b604080918035614fe981611542565b151584526020810135614ffb816112b6565b6001600160a01b031660208501520135910152565b60409081813591615020836112b6565b6001600160a01b03928316855282602082013561503c816112b6565b166020860152013561504d816112b6565b16910152565b9035609e1982360301811215610190570190565b3d15615092573d906150788261277d565b9161508660405193846126c8565b82523d6000602084013e565b606090565b61509f61275d565b906000808352806020840152806040840152806060840152806080840152606060a08401528060c08401528060e08401526150d861324d565b61010084015280610120840152806101408401528061016084015280610180840152806101a0840152806101c0840152806101e08401528061020084015280610220840152806102408401528061026084015280610280840152806102a0840152806102c0840152806102e08401528061030084015280610320840152610340830152565b90615167826131eb565b604090615176825191826126c8565b8381528093615187601f19916131eb565b019160005b8381106151995750505050565b60209082516151a781612674565b6151af615097565b81526151b961324d565b83908183015260008583015284516151d0816125ed565b60008152600082820152600086820152606083015260006080830152600060a0830152600060c0830152600060e083015260006101008301526000610120830152600061014083015282860101520161518c565b51906001600160401b038216820361019057565b809291036080811261019057606013610190576060604051615259816125ed565b61526284615224565b815261527060208501615224565b6020820152604084015161528381613266565b604082015292015190565b9092919261529b8161277d565b916152a960405193846126c8565b829482845282820111610190576020611540930190610195565b602081830312610190578051906001600160401b03821161019057019080601f830112156101905781516132179260200161528e565b9190826040910312610190576020825161531281611542565b92015190565b919082608091031261019057815160058110156101905791602081015161533e816112b6565b9160606040830151615312816112b6565b6005821015611b2a5752565b615363615097565b5061536c61324d565b50615375615097565b6040805163d8dfeb4560e01b81529193602092600492916001600160a01b039081169185818681865afa801561046a576153bf91600091615b90575b506001600160a01b03168852565b82516338d52e0f60e01b815285818681865afa801561046a576153f491600091615b73575b506001600160a01b031688850152565b82516307dc0d1d60e41b808252909686888781875afa97881561046a57600098615b54575b506154328360809916898b019060018060a01b03169052565b84516374645ff360e01b80825291906000818981895afa90811561046a57600091615b3b575b5060a08b0152855163473e3ce760e01b815288818981895afa90811561046a57600091615b1e575b5060c08b01528551631c9e379b60e01b81528881806154a1858c8301612279565b0381895afa90811561046a57600091615b01575b5060e08b0152855163020a17bd60e61b81529086828981895afa90811561046a57615523928a926000918291615ade575b50615505906154f6612aeb6126e9565b6001600160801b031682850152565b6101008d01528751809381926324720b1f60e11b83528b8301612279565b0381885afa90811561046a57600091615ac1575b506101208a01528451633ba0b9a960e01b815287818881885afa90811561046a57600091615aa4575b506101408a0152845182815287818881885afa90811561046a57600091615a87575b5085518281526000818981895afa801561046a576155c0928892600092615a6c575b508987845180968195829463eeb8a8d360e01b84528301613479565b0392165afa90811561046a57600091615a3d575b506101808a0152845191825286828781875afa91821561046a57600092615a1e575b5084519081526000818781875afa90811561046a5783928892615636926000916159fd575b508751948580948193630d39bbef60e41b83528c8301613479565b0392165afa90811561046a576000916159e0575b5061016088015282516340626d8b60e01b815285818681865afa90811561046a576000916159c3575b506101a0880152825163226f120560e11b81529480868681865afa95861561046a576000966159a4575b506060880195865283516377607a1760e11b81529281848781845afa93841561046a57600094615985575b50888201938452845163bb4cfe3b60e01b815282818881855afa91821561046a5787928492600091615968575b506103408c0152865163de40657760e01b815292839182905afa91821561046a5760009261594b575b50501690805183519084828061574663092ada2b60e31b948583528a83019190602083019252565b0381875afa90811561046a57615788928692600091829161592c575b506101e08c01526101c08b01528751908251938492839283528983019190602083019252565b0381865afa801561046a57600091829161590d575b50610220890152610200880152518251630cf35bdd60e41b8082528186019283529094918790869081906020010381865afa95861561046a5761582988966158419860009081908d839184906158d7575b6102a08201526001600160a01b039091166102809091015290915061581f905b6001600160a01b03166102608d0152565b6102408b0161534f565b51935195869485938493845283019190602083019252565b03915afa90811561046a5761321792600092839284928592615895575b50506103208601526001600160a01b031661030085015261588b905b6001600160a01b03166102e0850152565b6102c0830161534f565b61587a955061588b94506158c2935080919250903d106158d0575b6158ba81836126c8565b810190615318565b92949193509190829061585e565b503d6158b0565b5091505061581f915061580e6158fc610280948c8d3d106158d0576158ba81836126c8565b9296508695509093909250906157ee565b90506159269150843d86116106905761068081836126c8565b3861579d565b90506159459150833d85116106905761068081836126c8565b38615762565b6159619250803d106114bd576114af81836126c8565b388061571e565b61597f9150833d851161099b5761098c81836126c8565b386156f5565b61599d919450823d841161099b5761098c81836126c8565b92386156c8565b816159bc9297503d881161099b5761098c81836126c8565b943861569d565b6159da9150863d881161099b5761098c81836126c8565b38615673565b6159f79150863d881161099b5761098c81836126c8565b3861564a565b615a18913d8091833e615a1081836126c8565b8101906152c3565b3861561b565b615a36919250873d89116114bd576114af81836126c8565b90386155f6565b615a5d9150863d8811615a65575b615a5581836126c8565b8101906152f9565b9050386155d4565b503d615a4b565b615a8091923d8091833e615a1081836126c8565b90386155a4565b615a9e9150883d8a116114bd576114af81836126c8565b38615582565b615abb9150883d8a1161099b5761098c81836126c8565b38615560565b615ad89150883d8a1161099b5761098c81836126c8565b38615537565b6155059250615afa91508a3d8c1161150e576114fe81836126c8565b90916154e6565b615b189150893d8b1161099b5761098c81836126c8565b386154b5565b615b359150893d8b1161099b5761098c81836126c8565b38615480565b615b4e913d8091833e615a1081836126c8565b38615458565b615b6c919850873d89116114bd576114af81836126c8565b9638615419565b615b8a9150873d89116114bd576114af81836126c8565b386153e4565b615ba79150873d89116114bd576114af81836126c8565b386153b1565b90615bb7826131eb565b604090615bc6825191826126c8565b8381528093615bd7601f19916131eb565b019160005b838110615be95750505050565b6020908251615bf781612690565b615bff615097565b8152615c0961324d565b8390818301526000858301526000606083015260006080830152600060a0830152600060c0830152600060e0830152828601015201615bdc565b9190826040910312610190576132176020615c5d84615224565b9301615224565b15615c6b57565b60405162461bcd60e51b8152602060048201526015602482015274135859db995d185c8e881b9bc818dbdb9d1c9858dd605a1b6044820152606490fd5b908092918237016000815290565b826004116101905760e06003198385810103011261019057600092838093615d50604051615ce381612659565b600483013590615cf2826112b6565b8181526024840135615d03816112b6565b60208201526044840135604082015260648401356060820152615d28608485016136b8565b608082015260a484013560a082015260c484013560c0909101526001600160a01b0316615f4f565b615d5c843b1515615c64565b615d6b60405180948193615ca8565b03925af190615d78615067565b91159081615d8e575b50615d895750565b615ea0565b90501538615d81565b60c092615da58180856134c0565b9080959181010312610190576000809493615d508295604051615dc78161263e565b60a080833593615dd6856112b6565b8484526020810135615de7816112b6565b602085015260408101356040850152615e02606082016136b8565b60608501526080818101359085015201359101526001600160a01b0316615f4f565b6002546001600160a01b03168015615e5c57816000929160208493519201905af490615e4e615067565b9115615e5657565b50615ea0565b60405162461bcd60e51b815260206004820152601c60248201527b135859db995d185c958c8e881b5bd91d5b19481b9bdd08199bdd5b9960221b6044820152606490fd5b6044815110615f0d57600481015181019060208160248401930312610190576024810151906001600160401b03821161019057018160438201121561019057611273918160446024615ef5940151910161528e565b60405162461bcd60e51b815291829160048301613479565b60405162461bcd60e51b815260206004820152601a60248201527926b0b3b732ba30b92b191d102932b0b9b7b7103ab735b737bbb760311b6044820152606490fd5b336001600160a01b0390911603615f6257565b60405162461bcd60e51b815260206004820152602160248201527f4d61676e6574617256323a206f70657261746f72206e6f7420617070726f76656044820152601960fa1b6064820152608490fdfea2646970667358221220024578403e184e05042f3b91a4b8617627bea6181338aa09113f1f8a3f19a90d64736f6c63430008120033",
  "linkReferences": {},
  "deployedLinkReferences": {}
}