{
  "_format": "hh-sol-artifact-1",
  "contractName": "MagnetarHelper",
  "sourceName": "contracts/Magnetar/MagnetarHelper.sol",
  "abi": [
    {
      "inputs": [
        {
          "internalType": "address",
          "name": "who",
          "type": "address"
        },
        {
          "internalType": "contract IBigBang[]",
          "name": "markets",
          "type": "address[]"
        }
      ],
      "name": "bigBangMarketInfo",
      "outputs": [
        {
          "components": [
            {
              "components": [
                {
                  "internalType": "address",
                  "name": "collateral",
                  "type": "address"
                },
                {
                  "internalType": "uint256",
                  "name": "collateralId",
                  "type": "uint256"
                },
                {
                  "internalType": "address",
                  "name": "asset",
                  "type": "address"
                },
                {
                  "internalType": "uint256",
                  "name": "assetId",
                  "type": "uint256"
                },
                {
                  "internalType": "contract ITapiocaOracle",
                  "name": "oracle",
                  "type": "address"
                },
                {
                  "internalType": "bytes",
                  "name": "oracleData",
                  "type": "bytes"
                },
                {
                  "internalType": "uint256",
                  "name": "totalCollateralShare",
                  "type": "uint256"
                },
                {
                  "internalType": "uint256",
                  "name": "userCollateralShare",
                  "type": "uint256"
                },
                {
                  "components": [
                    {
                      "internalType": "uint128",
                      "name": "elastic",
                      "type": "uint128"
                    },
                    {
                      "internalType": "uint128",
                      "name": "base",
                      "type": "uint128"
                    }
                  ],
                  "internalType": "struct Rebase",
                  "name": "totalBorrow",
                  "type": "tuple"
                },
                {
                  "internalType": "uint256",
                  "name": "userBorrowPart",
                  "type": "uint256"
                },
                {
                  "internalType": "uint256",
                  "name": "currentExchangeRate",
                  "type": "uint256"
                },
                {
                  "internalType": "uint256",
                  "name": "spotExchangeRate",
                  "type": "uint256"
                },
                {
                  "internalType": "uint256",
                  "name": "oracleExchangeRate",
                  "type": "uint256"
                },
                {
                  "internalType": "uint256",
                  "name": "totalBorrowCap",
                  "type": "uint256"
                },
                {
                  "internalType": "uint256",
                  "name": "totalYieldBoxCollateralShare",
                  "type": "uint256"
                },
                {
                  "internalType": "uint256",
                  "name": "totalYieldBoxCollateralAmount",
                  "type": "uint256"
                },
                {
                  "internalType": "uint256",
                  "name": "totalYieldBoxAssetShare",
                  "type": "uint256"
                },
                {
                  "internalType": "uint256",
                  "name": "totalYieldBoxAssetAmount",
                  "type": "uint256"
                },
                {
                  "internalType": "enum IYieldBoxTokenType",
                  "name": "yieldBoxCollateralTokenType",
                  "type": "uint8"
                },
                {
                  "internalType": "address",
                  "name": "yieldBoxCollateralContractAddress",
                  "type": "address"
                },
                {
                  "internalType": "address",
                  "name": "yieldBoxCollateralStrategyAddress",
                  "type": "address"
                },
                {
                  "internalType": "uint256",
                  "name": "yieldBoxCollateralTokenId",
                  "type": "uint256"
                },
                {
                  "internalType": "enum IYieldBoxTokenType",
                  "name": "yieldBoxAssetTokenType",
                  "type": "uint8"
                },
                {
                  "internalType": "address",
                  "name": "yieldBoxAssetContractAddress",
                  "type": "address"
                },
                {
                  "internalType": "address",
                  "name": "yieldBoxAssetStrategyAddress",
                  "type": "address"
                },
                {
                  "internalType": "uint256",
                  "name": "yieldBoxAssetTokenId",
                  "type": "uint256"
                },
                {
                  "internalType": "uint256",
                  "name": "collateralizationRate",
                  "type": "uint256"
                }
              ],
              "internalType": "struct MagnetarHelper.MarketInfo",
              "name": "market",
              "type": "tuple"
            },
            {
              "components": [
                {
                  "internalType": "uint64",
                  "name": "debtRate",
                  "type": "uint64"
                },
                {
                  "internalType": "uint64",
                  "name": "lastAccrued",
                  "type": "uint64"
                }
              ],
              "internalType": "struct IBigBang.AccrueInfo",
              "name": "accrueInfo",
              "type": "tuple"
            },
            {
              "internalType": "uint256",
              "name": "minDebtRate",
              "type": "uint256"
            },
            {
              "internalType": "uint256",
              "name": "maxDebtRate",
              "type": "uint256"
            },
            {
              "internalType": "uint256",
              "name": "debtRateAgainstEthMarket",
              "type": "uint256"
            },
            {
              "internalType": "address",
              "name": "mainBBMarket",
              "type": "address"
            },
            {
              "internalType": "uint256",
              "name": "mainBBDebtRate",
              "type": "uint256"
            },
            {
              "internalType": "uint256",
              "name": "currentDebtRate",
              "type": "uint256"
            }
          ],
          "internalType": "struct MagnetarHelper.BigBangInfo[]",
          "name": "",
          "type": "tuple[]"
        }
      ],
      "stateMutability": "view",
      "type": "function"
    },
    {
      "inputs": [
        {
          "internalType": "contract ISingularity",
          "name": "singularity",
          "type": "address"
        },
        {
          "internalType": "uint256",
          "name": "fraction",
          "type": "uint256"
        }
      ],
      "name": "getAmountForAssetFraction",
      "outputs": [
        {
          "internalType": "uint256",
          "name": "amount",
          "type": "uint256"
        }
      ],
      "stateMutability": "view",
      "type": "function"
    },
    {
      "inputs": [
        {
          "internalType": "contract IMarket",
          "name": "market",
          "type": "address"
        },
        {
          "internalType": "uint256",
          "name": "borrowPart",
          "type": "uint256"
        }
      ],
      "name": "getAmountForBorrowPart",
      "outputs": [
        {
          "internalType": "uint256",
          "name": "amount",
          "type": "uint256"
        }
      ],
      "stateMutability": "view",
      "type": "function"
    },
    {
      "inputs": [
        {
          "internalType": "contract IMarket",
          "name": "market",
          "type": "address"
        },
        {
          "internalType": "uint256",
          "name": "amount",
          "type": "uint256"
        }
      ],
      "name": "getBorrowPartForAmount",
      "outputs": [
        {
          "internalType": "uint256",
          "name": "part",
          "type": "uint256"
        }
      ],
      "stateMutability": "view",
      "type": "function"
    },
    {
      "inputs": [
        {
          "internalType": "contract IMarket",
          "name": "market",
          "type": "address"
        },
        {
          "internalType": "uint256",
          "name": "share",
          "type": "uint256"
        }
      ],
      "name": "getCollateralAmountForShare",
      "outputs": [
        {
          "internalType": "uint256",
          "name": "amount",
          "type": "uint256"
        }
      ],
      "stateMutability": "view",
      "type": "function"
    },
    {
      "inputs": [
        {
          "internalType": "contract IMarket",
          "name": "market",
          "type": "address"
        },
        {
          "internalType": "uint256",
          "name": "borrowPart",
          "type": "uint256"
        },
        {
          "internalType": "uint256",
          "name": "collateralizationRatePrecision",
          "type": "uint256"
        },
        {
          "internalType": "uint256",
          "name": "exchangeRatePrecision",
          "type": "uint256"
        }
      ],
      "name": "getCollateralSharesForBorrowPart",
      "outputs": [
        {
          "internalType": "uint256",
          "name": "collateralShares",
          "type": "uint256"
        }
      ],
      "stateMutability": "view",
      "type": "function"
    },
    {
      "inputs": [
        {
          "internalType": "contract ISingularity",
          "name": "singularity",
          "type": "address"
        },
        {
          "internalType": "uint256",
          "name": "amount",
          "type": "uint256"
        }
      ],
      "name": "getFractionForAmount",
      "outputs": [
        {
          "internalType": "uint256",
          "name": "fraction",
          "type": "uint256"
        }
      ],
      "stateMutability": "view",
      "type": "function"
    },
    {
      "inputs": [
        {
          "internalType": "address",
          "name": "who",
          "type": "address"
        },
        {
          "internalType": "contract ISingularity[]",
          "name": "markets",
          "type": "address[]"
        }
      ],
      "name": "singularityMarketInfo",
      "outputs": [
        {
          "components": [
            {
              "components": [
                {
                  "internalType": "address",
                  "name": "collateral",
                  "type": "address"
                },
                {
                  "internalType": "uint256",
                  "name": "collateralId",
                  "type": "uint256"
                },
                {
                  "internalType": "address",
                  "name": "asset",
                  "type": "address"
                },
                {
                  "internalType": "uint256",
                  "name": "assetId",
                  "type": "uint256"
                },
                {
                  "internalType": "contract ITapiocaOracle",
                  "name": "oracle",
                  "type": "address"
                },
                {
                  "internalType": "bytes",
                  "name": "oracleData",
                  "type": "bytes"
                },
                {
                  "internalType": "uint256",
                  "name": "totalCollateralShare",
                  "type": "uint256"
                },
                {
                  "internalType": "uint256",
                  "name": "userCollateralShare",
                  "type": "uint256"
                },
                {
                  "components": [
                    {
                      "internalType": "uint128",
                      "name": "elastic",
                      "type": "uint128"
                    },
                    {
                      "internalType": "uint128",
                      "name": "base",
                      "type": "uint128"
                    }
                  ],
                  "internalType": "struct Rebase",
                  "name": "totalBorrow",
                  "type": "tuple"
                },
                {
                  "internalType": "uint256",
                  "name": "userBorrowPart",
                  "type": "uint256"
                },
                {
                  "internalType": "uint256",
                  "name": "currentExchangeRate",
                  "type": "uint256"
                },
                {
                  "internalType": "uint256",
                  "name": "spotExchangeRate",
                  "type": "uint256"
                },
                {
                  "internalType": "uint256",
                  "name": "oracleExchangeRate",
                  "type": "uint256"
                },
                {
                  "internalType": "uint256",
                  "name": "totalBorrowCap",
                  "type": "uint256"
                },
                {
                  "internalType": "uint256",
                  "name": "totalYieldBoxCollateralShare",
                  "type": "uint256"
                },
                {
                  "internalType": "uint256",
                  "name": "totalYieldBoxCollateralAmount",
                  "type": "uint256"
                },
                {
                  "internalType": "uint256",
                  "name": "totalYieldBoxAssetShare",
                  "type": "uint256"
                },
                {
                  "internalType": "uint256",
                  "name": "totalYieldBoxAssetAmount",
                  "type": "uint256"
                },
                {
                  "internalType": "enum IYieldBoxTokenType",
                  "name": "yieldBoxCollateralTokenType",
                  "type": "uint8"
                },
                {
                  "internalType": "address",
                  "name": "yieldBoxCollateralContractAddress",
                  "type": "address"
                },
                {
                  "internalType": "address",
                  "name": "yieldBoxCollateralStrategyAddress",
                  "type": "address"
                },
                {
                  "internalType": "uint256",
                  "name": "yieldBoxCollateralTokenId",
                  "type": "uint256"
                },
                {
                  "internalType": "enum IYieldBoxTokenType",
                  "name": "yieldBoxAssetTokenType",
                  "type": "uint8"
                },
                {
                  "internalType": "address",
                  "name": "yieldBoxAssetContractAddress",
                  "type": "address"
                },
                {
                  "internalType": "address",
                  "name": "yieldBoxAssetStrategyAddress",
                  "type": "address"
                },
                {
                  "internalType": "uint256",
                  "name": "yieldBoxAssetTokenId",
                  "type": "uint256"
                },
                {
                  "internalType": "uint256",
                  "name": "collateralizationRate",
                  "type": "uint256"
                }
              ],
              "internalType": "struct MagnetarHelper.MarketInfo",
              "name": "market",
              "type": "tuple"
            },
            {
              "components": [
                {
                  "internalType": "uint128",
                  "name": "elastic",
                  "type": "uint128"
                },
                {
                  "internalType": "uint128",
                  "name": "base",
                  "type": "uint128"
                }
              ],
              "internalType": "struct Rebase",
              "name": "totalAsset",
              "type": "tuple"
            },
            {
              "internalType": "uint256",
              "name": "userAssetFraction",
              "type": "uint256"
            },
            {
              "components": [
                {
                  "internalType": "uint64",
                  "name": "interestPerSecond",
                  "type": "uint64"
                },
                {
                  "internalType": "uint64",
                  "name": "lastAccrued",
                  "type": "uint64"
                },
                {
                  "internalType": "uint128",
                  "name": "feesEarnedFraction",
                  "type": "uint128"
                }
              ],
              "internalType": "struct ISingularity.AccrueInfo",
              "name": "accrueInfo",
              "type": "tuple"
            },
            {
              "internalType": "uint256",
              "name": "utilization",
              "type": "uint256"
            },
            {
              "internalType": "uint256",
              "name": "minimumTargetUtilization",
              "type": "uint256"
            },
            {
              "internalType": "uint256",
              "name": "maximumTargetUtilization",
              "type": "uint256"
            },
            {
              "internalType": "uint256",
              "name": "minimumInterestPerSecond",
              "type": "uint256"
            },
            {
              "internalType": "uint256",
              "name": "maximumInterestPerSecond",
              "type": "uint256"
            },
            {
              "internalType": "uint256",
              "name": "interestElasticity",
              "type": "uint256"
            },
            {
              "internalType": "uint256",
              "name": "startingInterestPerSecond",
              "type": "uint256"
            }
          ],
          "internalType": "struct MagnetarHelper.SingularityInfo[]",
          "name": "",
          "type": "tuple[]"
        }
      ],
      "stateMutability": "view",
      "type": "function"
    }
  ],
  "bytecode": "0x608060405234801561001057600080fd5b506133c2806100206000396000f3fe608060405234801561001057600080fd5b50600436106100885760003560e01c80636dd55c0b1161005b5780636dd55c0b146100ec578063a306dfd51461010c578063e4e802e81461011f578063ea881c181461013f57600080fd5b80630e8fd73b1461008d57806314ecf5a8146100b35780632ed48e48146100c6578063443c73a7146100d9575b600080fd5b6100a061009b366004612977565b610152565b6040519081526020015b60405180910390f35b6100a06100c1366004612977565b610488565b6100a06100d4366004612977565b610810565b6100a06100e73660046129a3565b6108cf565b6100ff6100fa366004612a2a565b610bf5565b6040516100aa9190612d34565b6100a061011a366004612977565b610c3e565b61013261012d366004612a2a565b610cf3565b6040516100aa9190612e3d565b6100a061014d366004612977565b610d32565b6000806000846001600160a01b031663f9557ccb6040518163ffffffff1660e01b81526004016040805180830381865afa158015610194573d6000803e3d6000fd5b505050506040513d601f19601f820116820180604052508101906101b89190612fc3565b915091506000856001600160a01b0316638285ef406040518163ffffffff1660e01b81526004016040805180830381865afa1580156101fb573d6000803e3d6000fd5b505050506040513d601f19601f8201168201806040525081019061021f9190612fc3565b5090506000866001600160a01b03166344de240a6040518163ffffffff1660e01b8152600401602060405180830381865afa158015610262573d6000803e3d6000fd5b505050506040513d601f19601f820116820180604052508101906102869190612ff6565b90506000876001600160a01b031663de4065776040518163ffffffff1660e01b8152600401602060405180830381865afa1580156102c8573d6000803e3d6000fd5b505050506040513d601f19601f820116820180604052508101906102ec919061300f565b6040517f8eb22cdd00000000000000000000000000000000000000000000000000000000815260048101849052602481018990526000604482018190529192506001600160a01b03831690638eb22cdd90606401602060405180830381865afa15801561035d573d6000803e3d6000fd5b505050506040513d601f19601f820116820180604052508101906103819190612ff6565b6040517f8eb22cdd000000000000000000000000000000000000000000000000000000008152600481018590526fffffffffffffffffffffffffffffffff86166024820152600160448201529091506000906001600160a01b03841690638eb22cdd90606401602060405180830381865afa158015610404573d6000803e3d6000fd5b505050506040513d601f19601f820116820180604052508101906104289190612ff6565b610444906fffffffffffffffffffffffffffffffff891661305b565b9050801561047857806104696fffffffffffffffffffffffffffffffff88168461306e565b6104739190613085565b61047a565b815b9a9950505050505050505050565b6000806000846001600160a01b031663f9557ccb6040518163ffffffff1660e01b81526004016040805180830381865afa1580156104ca573d6000803e3d6000fd5b505050506040513d601f19601f820116820180604052508101906104ee9190612fc3565b915091506000856001600160a01b0316638285ef406040518163ffffffff1660e01b81526004016040805180830381865afa158015610531573d6000803e3d6000fd5b505050506040513d601f19601f820116820180604052508101906105559190612fc3565b5090506000866001600160a01b031663de4065776040518163ffffffff1660e01b8152600401602060405180830381865afa158015610598573d6000803e3d6000fd5b505050506040513d601f19601f820116820180604052508101906105bc919061300f565b90506000816001600160a01b0316638eb22cdd896001600160a01b03166344de240a6040518163ffffffff1660e01b8152600401602060405180830381865afa15801561060d573d6000803e3d6000fd5b505050506040513d601f19601f820116820180604052508101906106319190612ff6565b6040517fffffffff0000000000000000000000000000000000000000000000000000000060e084901b16815260048101919091526fffffffffffffffffffffffffffffffff8616602482015260016044820152606401602060405180830381865afa1580156106a4573d6000803e3d6000fd5b505050506040513d601f19601f820116820180604052508101906106c89190612ff6565b6106e4906fffffffffffffffffffffffffffffffff871661305b565b9050816001600160a01b031663442c1599896001600160a01b03166344de240a6040518163ffffffff1660e01b8152600401602060405180830381865afa158015610733573d6000803e3d6000fd5b505050506040513d601f19601f820116820180604052508101906107579190612ff6565b6fffffffffffffffffffffffffffffffff8716610774858c61306e565b61077e9190613085565b6040517fffffffff0000000000000000000000000000000000000000000000000000000060e085901b1681526004810192909252602482015260006044820152606401602060405180830381865afa1580156107de573d6000803e3d6000fd5b505050506040513d601f19601f820116820180604052508101906108029190612ff6565b955050505050505b92915050565b6040805180820190915260008082526020820181905290600080856001600160a01b0316638285ef406040518163ffffffff1660e01b81526004016040805180830381865afa158015610867573d6000803e3d6000fd5b505050506040513d601f19601f8201168201806040525081019061088b9190612fc3565b604080518082019091526fffffffffffffffffffffffffffffffff808416825282166020820152945090925090506108c583866000610e98565b9695505050505050565b6040805180820190915260008082526020820181905290600080876001600160a01b0316638285ef406040518163ffffffff1660e01b81526004016040805180830381865afa158015610926573d6000803e3d6000fd5b505050506040513d601f19601f8201168201806040525081019061094a9190612fc3565b915091506040518060400160405280836fffffffffffffffffffffffffffffffff168152602001826fffffffffffffffffffffffffffffffff1681525092506000886001600160a01b031663de4065776040518163ffffffff1660e01b8152600401602060405180830381865afa1580156109c9573d6000803e3d6000fd5b505050506040513d601f19601f820116820180604052508101906109ed919061300f565b905060006109fc858a83610f55565b90506000878b6001600160a01b031663bb4cfe3b6040518163ffffffff1660e01b8152600401602060405180830381865afa158015610a3f573d6000803e3d6000fd5b505050506040513d601f19601f82011682018060405250810190610a639190612ff6565b610a6d919061306e565b8b6001600160a01b0316633ba0b9a96040518163ffffffff1660e01b8152600401602060405180830381865afa158015610aab573d6000803e3d6000fd5b505050506040513d601f19601f82011682018060405250810190610acf9190612ff6565b610ad98b8561306e565b610ae3919061306e565b610aed9190613085565b9050826001600160a01b0316638eb22cdd8c6001600160a01b031663eec0f42e6040518163ffffffff1660e01b8152600401602060405180830381865afa158015610b3c573d6000803e3d6000fd5b505050506040513d601f19601f82011682018060405250810190610b609190612ff6565b6040517fffffffff0000000000000000000000000000000000000000000000000000000060e084901b16815260048101919091526024810184905260006044820152606401602060405180830381865afa158015610bc2573d6000803e3d6000fd5b505050506040513d601f19601f82011682018060405250810190610be69190612ff6565b9b9a5050505050505050505050565b6060610c3484848480806020026020016040519081016040528093929190818152602001838360200280828437600092019190915250610ff192505050565b90505b9392505050565b6040805180820190915260008082526020820181905290600080856001600160a01b0316638285ef406040518163ffffffff1660e01b81526004016040805180830381865afa158015610c95573d6000803e3d6000fd5b505050506040513d601f19601f82011682018060405250810190610cb99190612fc3565b604080518082019091526fffffffffffffffffffffffffffffffff808416825282166020820152945090925090506108c583866000610f55565b6060610c348484848080602002602001604051908101604052809392919081815260200183836020028082843760009201919091525061151792505050565b600080836001600160a01b031663de4065776040518163ffffffff1660e01b8152600401602060405180830381865afa158015610d73573d6000803e3d6000fd5b505050506040513d601f19601f82011682018060405250810190610d97919061300f565b9050806001600160a01b031663442c1599856001600160a01b031663eec0f42e6040518163ffffffff1660e01b8152600401602060405180830381865afa158015610de6573d6000803e3d6000fd5b505050506040513d601f19601f82011682018060405250810190610e0a9190612ff6565b6040517fffffffff0000000000000000000000000000000000000000000000000000000060e084901b16815260048101919091526024810186905260006044820152606401602060405180830381865afa158015610e6c573d6000803e3d6000fd5b505050506040513d601f19601f82011682018060405250810190610e909190612ff6565b949350505050565b82516000906fffffffffffffffffffffffffffffffff168103610ebc575081610c37565b835160208501516fffffffffffffffffffffffffffffffff91821691610ee391168561306e565b610eed9190613085565b9050818015610f3d57508284602001516fffffffffffffffffffffffffffffffff1685600001516fffffffffffffffffffffffffffffffff1683610f31919061306e565b610f3b9190613085565b105b15610c375780610f4c816130c0565b95945050505050565b600083602001516fffffffffffffffffffffffffffffffff16600003610f7c575081610c37565b602084015184516fffffffffffffffffffffffffffffffff91821691610fa391168561306e565b610fad9190613085565b9050818015610f3d57508284600001516fffffffffffffffffffffffffffffffff1685602001516fffffffffffffffffffffffffffffffff1683610f31919061306e565b805160609060008167ffffffffffffffff811115611011576110116130f8565b60405190808252806020026020018201604052801561104a57816020015b611037612737565b81526020019060019003908161102f5790505b50604080518082019091526000808252602082015290915060005b8381101561150c57600086828151811061108157611081613127565b602002602001015190506110958882611b1e565b8483815181106110a7576110a7613127565b602002602001015160000181905250600080826001600160a01b031663b27c0e746040518163ffffffff1660e01b81526004016040805180830381865afa1580156110f6573d6000803e3d6000fd5b505050506040513d601f19601f8201168201806040525081019061111a919061316e565b9150915060405180604001604052808367ffffffffffffffff1681526020018267ffffffffffffffff1681525094508486858151811061115c5761115c613127565b602002602001015160200181905250826001600160a01b031663f791395d6040518163ffffffff1660e01b8152600401602060405180830381865afa1580156111a9573d6000803e3d6000fd5b505050506040513d601f19601f820116820180604052508101906111cd9190612ff6565b8685815181106111df576111df613127565b60200260200101516040018181525050826001600160a01b0316636b19ad166040518163ffffffff1660e01b8152600401602060405180830381865afa15801561122d573d6000803e3d6000fd5b505050506040513d601f19601f820116820180604052508101906112519190612ff6565b86858151811061126357611263613127565b60200260200101516060018181525050826001600160a01b031663bde39c5d6040518163ffffffff1660e01b8152600401602060405180830381865afa1580156112b1573d6000803e3d6000fd5b505050506040513d601f19601f820116820180604052508101906112d59190612ff6565b8685815181106112e7576112e7613127565b60200260200101516080018181525050826001600160a01b031663c1ad5c8d6040518163ffffffff1660e01b8152600401602060405180830381865afa158015611335573d6000803e3d6000fd5b505050506040513d601f19601f820116820180604052508101906113599190612ff6565b86858151811061136b5761136b613127565b602002602001015160e00181815250506000836001600160a01b0316636c3d8b8f6040518163ffffffff1660e01b8152600401602060405180830381865afa1580156113bb573d6000803e3d6000fd5b505050506040513d601f19601f820116820180604052508101906113df919061300f565b9050806001600160a01b031663c24795f86040518163ffffffff1660e01b8152600401602060405180830381865afa15801561141f573d6000803e3d6000fd5b505050506040513d601f19601f82011682018060405250810190611443919061300f565b87868151811061145557611455613127565b602002602001015160a001906001600160a01b031690816001600160a01b031681525050806001600160a01b031663e6abad496040518163ffffffff1660e01b8152600401602060405180830381865afa1580156114b7573d6000803e3d6000fd5b505050506040513d601f19601f820116820180604052508101906114db9190612ff6565b8786815181106114ed576114ed613127565b602090810291909101015160c001525050600190920191506110659050565b509095945050505050565b805160609060008167ffffffffffffffff811115611537576115376130f8565b60405190808252806020026020018201604052801561157057816020015b61155d6127ba565b8152602001906001900390816115555790505b50604080518082019091526000808252602082015290915060005b8381101561150c5760008682815181106115a7576115a7613127565b602002602001015190506115bb8882611b1e565b8483815181106115cd576115cd613127565b602002602001015160000181905250600080826001600160a01b031663f9557ccb6040518163ffffffff1660e01b81526004016040805180830381865afa15801561161c573d6000803e3d6000fd5b505050506040513d601f19601f820116820180604052508101906116409190612fc3565b915091506040518060400160405280836fffffffffffffffffffffffffffffffff168152602001826fffffffffffffffffffffffffffffffff1681525094508486858151811061169257611692613127565b60209081029190910181015101526040517f70a082310000000000000000000000000000000000000000000000000000000081526001600160a01b038b811660048301528416906370a0823190602401602060405180830381865afa1580156116ff573d6000803e3d6000fd5b505050506040513d601f19601f820116820180604052508101906117239190612ff6565b86858151811061173557611735613127565b60200260200101516040018181525050600080846001600160a01b0316635dfe04e86040518163ffffffff1660e01b8152600401608060405180830381865afa158015611786573d6000803e3d6000fd5b505050506040513d601f19601f820116820180604052508101906117aa9190613198565b91509150818887815181106117c1576117c1613127565b602002602001015160600181905250808887815181106117e3576117e3613127565b60200260200101516080018181525050846001600160a01b031663ffe04c666040518163ffffffff1660e01b8152600401602060405180830381865afa158015611831573d6000803e3d6000fd5b505050506040513d601f19601f820116820180604052508101906118559190612ff6565b88878151811061186757611867613127565b602002602001015160a0018181525050846001600160a01b031663f42760b76040518163ffffffff1660e01b8152600401602060405180830381865afa1580156118b5573d6000803e3d6000fd5b505050506040513d601f19601f820116820180604052508101906118d99190612ff6565b8887815181106118eb576118eb613127565b602002602001015160c0018181525050846001600160a01b031663551402326040518163ffffffff1660e01b8152600401602060405180830381865afa158015611939573d6000803e3d6000fd5b505050506040513d601f19601f8201168201806040525081019061195d9190612ff6565b88878151811061196f5761196f613127565b602002602001015160e0018181525050846001600160a01b03166355c2ab946040518163ffffffff1660e01b8152600401602060405180830381865afa1580156119bd573d6000803e3d6000fd5b505050506040513d601f19601f820116820180604052508101906119e19190612ff6565b8887815181106119f3576119f3613127565b6020026020010151610100018181525050846001600160a01b031663821226e86040518163ffffffff1660e01b8152600401602060405180830381865afa158015611a42573d6000803e3d6000fd5b505050506040513d601f19601f82011682018060405250810190611a669190612ff6565b888781518110611a7857611a78613127565b6020026020010151610120018181525050846001600160a01b03166352f353eb6040518163ffffffff1660e01b8152600401602060405180830381865afa158015611ac7573d6000803e3d6000fd5b505050506040513d601f19601f82011682018060405250810190611aeb9190612ff6565b888781518110611afd57611afd613127565b6020908102919091010151610140015250506001909301925061158b915050565b611b26612874565b6040805180820190915260008082526020820152611b42612874565b836001600160a01b031663d8dfeb456040518163ffffffff1660e01b8152600401602060405180830381865afa158015611b80573d6000803e3d6000fd5b505050506040513d601f19601f82011682018060405250810190611ba4919061300f565b6001600160a01b039081168252604080517f38d52e0f0000000000000000000000000000000000000000000000000000000081529051918616916338d52e0f916004808201926020929091908290030181865afa158015611c09573d6000803e3d6000fd5b505050506040513d601f19601f82011682018060405250810190611c2d919061300f565b81604001906001600160a01b031690816001600160a01b031681525050836001600160a01b0316637dc0d1d06040518163ffffffff1660e01b8152600401602060405180830381865afa158015611c88573d6000803e3d6000fd5b505050506040513d601f19601f82011682018060405250810190611cac919061300f565b81608001906001600160a01b031690816001600160a01b031681525050836001600160a01b03166374645ff36040518163ffffffff1660e01b8152600401600060405180830381865afa158015611d07573d6000803e3d6000fd5b505050506040513d6000823e601f3d908101601f19168201604052611d2f919081019061321e565b8160a00181905250836001600160a01b031663473e3ce76040518163ffffffff1660e01b8152600401602060405180830381865afa158015611d75573d6000803e3d6000fd5b505050506040513d601f19601f82011682018060405250810190611d999190612ff6565b60c08201526040517f1c9e379b0000000000000000000000000000000000000000000000000000000081526001600160a01b038681166004830152851690631c9e379b90602401602060405180830381865afa158015611dfd573d6000803e3d6000fd5b505050506040513d601f19601f82011682018060405250810190611e219190612ff6565b8160e0018181525050600080856001600160a01b0316638285ef406040518163ffffffff1660e01b81526004016040805180830381865afa158015611e6a573d6000803e3d6000fd5b505050506040513d601f19601f82011682018060405250810190611e8e9190612fc3565b6040805180820182526fffffffffffffffffffffffffffffffff848116825283166020820152610100870181905290517f48e4163e0000000000000000000000000000000000000000000000000000000081526001600160a01b038b811660048301529197509294509092508716906348e4163e90602401602060405180830381865afa158015611f23573d6000803e3d6000fd5b505050506040513d601f19601f82011682018060405250810190611f479190612ff6565b83610120018181525050856001600160a01b0316633ba0b9a96040518163ffffffff1660e01b8152600401602060405180830381865afa158015611f8f573d6000803e3d6000fd5b505050506040513d601f19601f82011682018060405250810190611fb39190612ff6565b83610140018181525050856001600160a01b0316637dc0d1d06040518163ffffffff1660e01b8152600401602060405180830381865afa158015611ffb573d6000803e3d6000fd5b505050506040513d601f19601f8201168201806040525081019061201f919061300f565b6001600160a01b031663eeb8a8d3876001600160a01b03166374645ff36040518163ffffffff1660e01b8152600401600060405180830381865afa15801561206b573d6000803e3d6000fd5b505050506040513d6000823e601f3d908101601f19168201604052612093919081019061321e565b6040518263ffffffff1660e01b81526004016120af91906132cb565b6040805180830381865afa1580156120cb573d6000803e3d6000fd5b505050506040513d601f19601f820116820180604052508101906120ef91906132de565b905083610180018181525050856001600160a01b0316637dc0d1d06040518163ffffffff1660e01b8152600401602060405180830381865afa158015612139573d6000803e3d6000fd5b505050506040513d601f19601f8201168201806040525081019061215d919061300f565b6001600160a01b031663d39bbef0876001600160a01b03166374645ff36040518163ffffffff1660e01b8152600401600060405180830381865afa1580156121a9573d6000803e3d6000fd5b505050506040513d6000823e601f3d908101601f191682016040526121d1919081019061321e565b6040518263ffffffff1660e01b81526004016121ed91906132cb565b602060405180830381865afa15801561220a573d6000803e3d6000fd5b505050506040513d601f19601f8201168201806040525081019061222e9190612ff6565b83610160018181525050856001600160a01b03166340626d8b6040518163ffffffff1660e01b8152600401602060405180830381865afa158015612276573d6000803e3d6000fd5b505050506040513d601f19601f8201168201806040525081019061229a9190612ff6565b836101a0018181525050856001600160a01b03166344de240a6040518163ffffffff1660e01b8152600401602060405180830381865afa1580156122e2573d6000803e3d6000fd5b505050506040513d601f19601f820116820180604052508101906123069190612ff6565b836060018181525050856001600160a01b031663eec0f42e6040518163ffffffff1660e01b8152600401602060405180830381865afa15801561234d573d6000803e3d6000fd5b505050506040513d601f19601f820116820180604052508101906123719190612ff6565b836020018181525050856001600160a01b031663bb4cfe3b6040518163ffffffff1660e01b8152600401602060405180830381865afa1580156123b8573d6000803e3d6000fd5b505050506040513d601f19601f820116820180604052508101906123dc9190612ff6565b836103400181815250506000866001600160a01b031663de4065776040518163ffffffff1660e01b8152600401602060405180830381865afa158015612426573d6000803e3d6000fd5b505050506040513d601f19601f8201168201806040525081019061244a919061300f565b60208501516040517f4956d1580000000000000000000000000000000000000000000000000000000081529192506001600160a01b03831691634956d158916124999160040190815260200190565b6040805180830381865afa1580156124b5573d6000803e3d6000fd5b505050506040513d601f19601f820116820180604052508101906124d99190613311565b6101e08601526101c085015260608401516040517f4956d15800000000000000000000000000000000000000000000000000000000815260048101919091526001600160a01b03821690634956d158906024016040805180830381865afa158015612548573d6000803e3d6000fd5b505050506040513d601f19601f8201168201806040525081019061256c9190613311565b61022086015261020085015260208401516040517fcf35bdd000000000000000000000000000000000000000000000000000000000815260048101919091526001600160a01b0382169063cf35bdd090602401608060405180830381865afa1580156125dc573d6000803e3d6000fd5b505050506040513d601f19601f820116820180604052508101906126009190613335565b6102a088018190526001600160a01b038083166102808a01528316610260890152610240880184600481111561263857612638612acf565b600481111561264957612649612acf565b905250505060608501516040517fcf35bdd00000000000000000000000000000000000000000000000000000000081526001600160a01b038416925063cf35bdd09161269b9160040190815260200190565b608060405180830381865afa1580156126b8573d6000803e3d6000fd5b505050506040513d601f19601f820116820180604052508101906126dc9190613335565b61032088018190526001600160a01b038083166103008a015283166102e08901526102c0880184600481111561271457612714612acf565b600481111561272557612725612acf565b905250959a9950505050505050505050565b60405180610100016040528061274b612874565b81526020016127816040518060400160405280600067ffffffffffffffff168152602001600067ffffffffffffffff1681525090565b815260200160008152602001600081526020016000815260200160006001600160a01b0316815260200160008152602001600081525090565b6040518061016001604052806127ce612874565b8152602001612814604051806040016040528060006fffffffffffffffffffffffffffffffff16815260200160006fffffffffffffffffffffffffffffffff1681525090565b81526000602080830182905260408051606081018252838152918201839052818101929092529101908152602001600081526020016000815260200160008152602001600081526020016000815260200160008152602001600081525090565b60408051610360810182526000808252602080830182905282840182905260608084018390526080840183905260a084015260c0830182905260e0830182905283518085019094528184528301529061010082019081526020016000815260200160008152602001600081526020016000815260200160008152602001600081526020016000815260200160008152602001600081526020016000600481111561292057612920612acf565b815260006020820181905260408201819052606082018190526080820181905260a0820181905260c0820181905260e082018190526101009091015290565b6001600160a01b038116811461297457600080fd5b50565b6000806040838503121561298a57600080fd5b82356129958161295f565b946020939093013593505050565b600080600080608085870312156129b957600080fd5b84356129c48161295f565b966020860135965060408601359560600135945092505050565b60008083601f8401126129f057600080fd5b50813567ffffffffffffffff811115612a0857600080fd5b6020830191508360208260051b8501011115612a2357600080fd5b9250929050565b600080600060408486031215612a3f57600080fd5b8335612a4a8161295f565b9250602084013567ffffffffffffffff811115612a6657600080fd5b612a72868287016129de565b9497909650939450505050565b60005b83811015612a9a578181015183820152602001612a82565b50506000910152565b60008151808452612abb816020860160208601612a7f565b601f01601f19169290920160200192915050565b7f4e487b7100000000000000000000000000000000000000000000000000000000600052602160045260246000fd5b60058110612b35577f4e487b7100000000000000000000000000000000000000000000000000000000600052602160045260246000fd5b9052565b80516001600160a01b031682526000610380602083015160208501526040830151612b6f60408601826001600160a01b03169052565b50606083015160608501526080830151612b9460808601826001600160a01b03169052565b5060a08301518160a0860152612bac82860182612aa3565b91505060c083015160c085015260e083015160e085015261010080840151612bf58287018280516fffffffffffffffffffffffffffffffff908116835260209182015116910152565b50506101208301516101408581019190915283015161016080860191909152830151610180808601919091528301516101a0808601919091528301516101c0808601919091528301516101e080860191909152830151610200808601919091528301516102208086019190915283015161024080860191909152830151610260612c8181870183612afe565b8401519050610280612c9d868201836001600160a01b03169052565b84015190506102a0612cb9868201836001600160a01b03169052565b8401516102c08681019190915284015190506102e0612cda81870183612afe565b8401519050610300612cf6868201836001600160a01b03169052565b8401519050610320612d12868201836001600160a01b03169052565b8401516103408681019190915290930151610360909401939093525090919050565b600060208083018184528085518083526040925060408601915060408160051b87010184880160005b83811015612e2f577fffffffffffffffffffffffffffffffffffffffffffffffffffffffffffffffc089840301855281516101208151818652612da282870182612b39565b838b0151805167ffffffffffffffff908116898e0152908c0151168a8801528984015160608089019190915284015160808089019190915284015160a080890191909152840151909250905060c0612e04818801836001600160a01b03169052565b83015160e0878101919091529092015161010090950194909452509386019390860190600101612d5d565b509098975050505050505050565b600060208083018184528085518083526040925060408601915060408160051b87010184880160005b83811015612e2f577fffffffffffffffffffffffffffffffffffffffffffffffffffffffffffffffc089840301855281516101c08151818652612eab82870182612b39565b91505088820151612edd8a87018280516fffffffffffffffffffffffffffffffff908116835260209182015116910152565b50818801516060868101919091528201516080612f338188018367ffffffffffffffff808251168352806020830151166020840152506fffffffffffffffffffffffffffffffff60408201511660408301525050565b83015160e08781019190915260a08401516101008089019190915260c0850151610120808a019190915291850151610140808a01919091529085015161016089015290840151610180880152909201516101a090950194909452509386019390860190600101612e66565b80516fffffffffffffffffffffffffffffffff81168114612fbe57600080fd5b919050565b60008060408385031215612fd657600080fd5b612fdf83612f9e565b9150612fed60208401612f9e565b90509250929050565b60006020828403121561300857600080fd5b5051919050565b60006020828403121561302157600080fd5b8151610c378161295f565b7f4e487b7100000000000000000000000000000000000000000000000000000000600052601160045260246000fd5b8082018082111561080a5761080a61302c565b808202811582820484141761080a5761080a61302c565b6000826130bb577f4e487b7100000000000000000000000000000000000000000000000000000000600052601260045260246000fd5b500490565b60007fffffffffffffffffffffffffffffffffffffffffffffffffffffffffffffffff82036130f1576130f161302c565b5060010190565b7f4e487b7100000000000000000000000000000000000000000000000000000000600052604160045260246000fd5b7f4e487b7100000000000000000000000000000000000000000000000000000000600052603260045260246000fd5b805167ffffffffffffffff81168114612fbe57600080fd5b6000806040838503121561318157600080fd5b61318a83613156565b9150612fed60208401613156565b60008082840360808112156131ac57600080fd5b60608112156131ba57600080fd5b506040516060810181811067ffffffffffffffff821117156131de576131de6130f8565b6040526131ea84613156565b81526131f860208501613156565b602082015261320960408501612f9e565b60408201526060939093015192949293505050565b60006020828403121561323057600080fd5b815167ffffffffffffffff8082111561324857600080fd5b818401915084601f83011261325c57600080fd5b81518181111561326e5761326e6130f8565b604051601f8201601f19908116603f01168101908382118183101715613296576132966130f8565b816040528281528760208487010111156132af57600080fd5b6132c0836020830160208801612a7f565b979650505050505050565b602081526000610c376020830184612aa3565b600080604083850312156132f157600080fd5b8251801515811461330157600080fd5b6020939093015192949293505050565b6000806040838503121561332457600080fd5b505080516020909101519092909150565b6000806000806080858703121561334b57600080fd5b84516005811061335a57600080fd5b602086015190945061336b8161295f565b604086015190935061337c8161295f565b606095909501519396929550505056fea26469706673582212205d2f1862dabc06c46566abbff34f56586b67bfded6d5fe594e88b9c6fd78602864736f6c63430008160033",
  "linkReferences": {},
  "deployedLinkReferences": {}
}