{
  "_format": "hh-sol-artifact-1",
  "contractName": "MagnetarV2",
  "sourceName": "contracts/Magnetar/MagnetarV2.sol",
  "abi": [
    {
      "inputs": [
        {
          "internalType": "address",
          "name": "_owner",
          "type": "address"
        },
        {
          "internalType": "address payable",
          "name": "_marketModule",
          "type": "address"
        }
      ],
      "stateMutability": "nonpayable",
      "type": "constructor"
    },
    {
      "anonymous": false,
      "inputs": [
        {
          "indexed": false,
          "internalType": "address",
          "name": "owner",
          "type": "address"
        },
        {
          "indexed": false,
          "internalType": "address",
          "name": "operator",
          "type": "address"
        },
        {
          "indexed": false,
          "internalType": "bool",
          "name": "approved",
          "type": "bool"
        }
      ],
      "name": "ApprovalForAll",
      "type": "event"
    },
    {
      "anonymous": false,
      "inputs": [
        {
          "indexed": true,
          "internalType": "address",
          "name": "previousOwner",
          "type": "address"
        },
        {
          "indexed": true,
          "internalType": "address",
          "name": "newOwner",
          "type": "address"
        }
      ],
      "name": "OwnershipTransferred",
      "type": "event"
    },
    {
      "inputs": [
        {
          "internalType": "address",
          "name": "who",
          "type": "address"
        },
        {
          "internalType": "contract IBigBang[]",
          "name": "markets",
          "type": "address[]"
        }
      ],
      "name": "bigBangMarketInfo",
      "outputs": [
        {
          "components": [
            {
              "components": [
                {
                  "internalType": "address",
                  "name": "collateral",
                  "type": "address"
                },
                {
                  "internalType": "uint256",
                  "name": "collateralId",
                  "type": "uint256"
                },
                {
                  "internalType": "address",
                  "name": "asset",
                  "type": "address"
                },
                {
                  "internalType": "uint256",
                  "name": "assetId",
                  "type": "uint256"
                },
                {
                  "internalType": "contract IOracle",
                  "name": "oracle",
                  "type": "address"
                },
                {
                  "internalType": "bytes",
                  "name": "oracleData",
                  "type": "bytes"
                },
                {
                  "internalType": "uint256",
                  "name": "totalCollateralShare",
                  "type": "uint256"
                },
                {
                  "internalType": "uint256",
                  "name": "userCollateralShare",
                  "type": "uint256"
                },
                {
                  "components": [
                    {
                      "internalType": "uint128",
                      "name": "elastic",
                      "type": "uint128"
                    },
                    {
                      "internalType": "uint128",
                      "name": "base",
                      "type": "uint128"
                    }
                  ],
                  "internalType": "struct Rebase",
                  "name": "totalBorrow",
                  "type": "tuple"
                },
                {
                  "internalType": "uint256",
                  "name": "userBorrowPart",
                  "type": "uint256"
                },
                {
                  "internalType": "uint256",
                  "name": "currentExchangeRate",
                  "type": "uint256"
                },
                {
                  "internalType": "uint256",
                  "name": "spotExchangeRate",
                  "type": "uint256"
                },
                {
                  "internalType": "uint256",
                  "name": "oracleExchangeRate",
                  "type": "uint256"
                },
                {
                  "internalType": "uint256",
                  "name": "totalBorrowCap",
                  "type": "uint256"
                }
              ],
              "internalType": "struct MagnetarV2Storage.MarketInfo",
              "name": "market",
              "type": "tuple"
            },
            {
              "components": [
                {
                  "internalType": "uint64",
                  "name": "debtRate",
                  "type": "uint64"
                },
                {
                  "internalType": "uint64",
                  "name": "lastAccrued",
                  "type": "uint64"
                }
              ],
              "internalType": "struct IBigBang.AccrueInfo",
              "name": "accrueInfo",
              "type": "tuple"
            }
          ],
          "internalType": "struct MagnetarV2Storage.BigBangInfo[]",
          "name": "",
          "type": "tuple[]"
        }
      ],
      "stateMutability": "view",
      "type": "function"
    },
    {
      "inputs": [
        {
          "components": [
            {
              "internalType": "uint16",
              "name": "id",
              "type": "uint16"
            },
            {
              "internalType": "address",
              "name": "target",
              "type": "address"
            },
            {
              "internalType": "uint256",
              "name": "value",
              "type": "uint256"
            },
            {
              "internalType": "bool",
              "name": "allowFailure",
              "type": "bool"
            },
            {
              "internalType": "bytes",
              "name": "call",
              "type": "bytes"
            }
          ],
          "internalType": "struct MagnetarV2Storage.Call[]",
          "name": "calls",
          "type": "tuple[]"
        }
      ],
      "name": "burst",
      "outputs": [
        {
          "components": [
            {
              "internalType": "bool",
              "name": "success",
              "type": "bool"
            },
            {
              "internalType": "bytes",
              "name": "returnData",
              "type": "bytes"
            }
          ],
          "internalType": "struct MagnetarV2Storage.Result[]",
          "name": "returnData",
          "type": "tuple[]"
        }
      ],
      "stateMutability": "payable",
      "type": "function"
    },
    {
      "inputs": [
        {
          "internalType": "contract IMarket",
          "name": "market",
          "type": "address"
        },
        {
          "internalType": "address",
          "name": "user",
          "type": "address"
        },
        {
          "internalType": "uint256",
          "name": "collateralAmount",
          "type": "uint256"
        },
        {
          "internalType": "uint256",
          "name": "borrowAmount",
          "type": "uint256"
        },
        {
          "internalType": "bool",
          "name": "extractFromSender",
          "type": "bool"
        },
        {
          "internalType": "bool",
          "name": "deposit",
          "type": "bool"
        },
        {
          "internalType": "bool",
          "name": "withdraw",
          "type": "bool"
        },
        {
          "internalType": "bytes",
          "name": "withdrawData",
          "type": "bytes"
        }
      ],
      "name": "depositAddCollateralAndBorrow",
      "outputs": [],
      "stateMutability": "payable",
      "type": "function"
    },
    {
      "inputs": [
        {
          "internalType": "contract IMarket",
          "name": "singularity",
          "type": "address"
        },
        {
          "internalType": "address",
          "name": "user",
          "type": "address"
        },
        {
          "internalType": "uint256",
          "name": "amount",
          "type": "uint256"
        },
        {
          "internalType": "bool",
          "name": "deposit",
          "type": "bool"
        },
        {
          "internalType": "bool",
          "name": "extractFromSender",
          "type": "bool"
        }
      ],
      "name": "depositAndAddAsset",
      "outputs": [],
      "stateMutability": "payable",
      "type": "function"
    },
    {
      "inputs": [
        {
          "internalType": "contract IMarket",
          "name": "market",
          "type": "address"
        },
        {
          "internalType": "address",
          "name": "user",
          "type": "address"
        },
        {
          "internalType": "uint256",
          "name": "depositAmount",
          "type": "uint256"
        },
        {
          "internalType": "uint256",
          "name": "repayAmount",
          "type": "uint256"
        },
        {
          "internalType": "bool",
          "name": "deposit",
          "type": "bool"
        },
        {
          "internalType": "bool",
          "name": "extractFromSender",
          "type": "bool"
        }
      ],
      "name": "depositAndRepay",
      "outputs": [],
      "stateMutability": "payable",
      "type": "function"
    },
    {
      "inputs": [
        {
          "internalType": "contract IMarket",
          "name": "market",
          "type": "address"
        },
        {
          "internalType": "address",
          "name": "user",
          "type": "address"
        },
        {
          "internalType": "uint256",
          "name": "depositAmount",
          "type": "uint256"
        },
        {
          "internalType": "uint256",
          "name": "repayAmount",
          "type": "uint256"
        },
        {
          "internalType": "uint256",
          "name": "collateralAmount",
          "type": "uint256"
        },
        {
          "internalType": "bool",
          "name": "deposit",
          "type": "bool"
        },
        {
          "internalType": "bool",
          "name": "withdraw",
          "type": "bool"
        },
        {
          "internalType": "bool",
          "name": "extractFromSender",
          "type": "bool"
        }
      ],
      "name": "depositRepayAndRemoveCollateral",
      "outputs": [],
      "stateMutability": "payable",
      "type": "function"
    },
    {
      "inputs": [
        {
          "internalType": "contract ISingularity",
          "name": "singularity",
          "type": "address"
        },
        {
          "internalType": "uint256",
          "name": "fraction",
          "type": "uint256"
        }
      ],
      "name": "getAmountForAssetFraction",
      "outputs": [
        {
          "internalType": "uint256",
          "name": "amount",
          "type": "uint256"
        }
      ],
      "stateMutability": "view",
      "type": "function"
    },
    {
      "inputs": [
        {
          "internalType": "contract IMarket",
          "name": "market",
          "type": "address"
        },
        {
          "internalType": "uint256",
          "name": "borrowPart",
          "type": "uint256"
        }
      ],
      "name": "getAmountForBorrowPart",
      "outputs": [
        {
          "internalType": "uint256",
          "name": "amount",
          "type": "uint256"
        }
      ],
      "stateMutability": "view",
      "type": "function"
    },
    {
      "inputs": [
        {
          "internalType": "contract IMarket",
          "name": "market",
          "type": "address"
        },
        {
          "internalType": "uint256",
          "name": "borrowPart",
          "type": "uint256"
        },
        {
          "internalType": "uint256",
          "name": "liquidationMultiplierPrecision",
          "type": "uint256"
        },
        {
          "internalType": "uint256",
          "name": "exchangeRatePrecision",
          "type": "uint256"
        }
      ],
      "name": "getCollateralSharesForBorrowPart",
      "outputs": [
        {
          "internalType": "uint256",
          "name": "collateralShares",
          "type": "uint256"
        }
      ],
      "stateMutability": "view",
      "type": "function"
    },
    {
      "inputs": [
        {
          "internalType": "address",
          "name": "",
          "type": "address"
        },
        {
          "internalType": "address",
          "name": "",
          "type": "address"
        }
      ],
      "name": "isApprovedForAll",
      "outputs": [
        {
          "internalType": "bool",
          "name": "",
          "type": "bool"
        }
      ],
      "stateMutability": "view",
      "type": "function"
    },
    {
      "inputs": [],
      "name": "marketModule",
      "outputs": [
        {
          "internalType": "contract MagnetarMarketModule",
          "name": "",
          "type": "address"
        }
      ],
      "stateMutability": "view",
      "type": "function"
    },
    {
      "inputs": [
        {
          "internalType": "contract ISingularity",
          "name": "singularity",
          "type": "address"
        },
        {
          "internalType": "contract IMarket",
          "name": "bingBang",
          "type": "address"
        },
        {
          "internalType": "address",
          "name": "user",
          "type": "address"
        },
        {
          "internalType": "uint256",
          "name": "collateralAmount",
          "type": "uint256"
        },
        {
          "internalType": "uint256",
          "name": "borrowAmount",
          "type": "uint256"
        },
        {
          "internalType": "bool",
          "name": "deposit",
          "type": "bool"
        },
        {
          "internalType": "bool",
          "name": "extractFromSender",
          "type": "bool"
        }
      ],
      "name": "mintAndLend",
      "outputs": [],
      "stateMutability": "payable",
      "type": "function"
    },
    {
      "inputs": [],
      "name": "owner",
      "outputs": [
        {
          "internalType": "address",
          "name": "",
          "type": "address"
        }
      ],
      "stateMutability": "view",
      "type": "function"
    },
    {
      "inputs": [
        {
          "internalType": "contract ISingularity",
          "name": "singularity",
          "type": "address"
        },
        {
          "internalType": "contract IMarket",
          "name": "bingBang",
          "type": "address"
        },
        {
          "internalType": "address",
          "name": "user",
          "type": "address"
        },
        {
          "internalType": "uint256",
          "name": "removeShare",
          "type": "uint256"
        },
        {
          "internalType": "uint256",
          "name": "repayAmount",
          "type": "uint256"
        },
        {
          "internalType": "uint256",
          "name": "collateralShare",
          "type": "uint256"
        },
        {
          "internalType": "bool",
          "name": "withdraw",
          "type": "bool"
        },
        {
          "internalType": "bytes",
          "name": "withdrawData",
          "type": "bytes"
        }
      ],
      "name": "removeAssetAndRepay",
      "outputs": [],
      "stateMutability": "payable",
      "type": "function"
    },
    {
      "inputs": [],
      "name": "renounceOwnership",
      "outputs": [],
      "stateMutability": "nonpayable",
      "type": "function"
    },
    {
      "inputs": [
        {
          "internalType": "address",
          "name": "operator",
          "type": "address"
        },
        {
          "internalType": "bool",
          "name": "approved",
          "type": "bool"
        }
      ],
      "name": "setApprovalForAll",
      "outputs": [],
      "stateMutability": "nonpayable",
      "type": "function"
    },
    {
      "inputs": [
        {
          "internalType": "address",
          "name": "who",
          "type": "address"
        },
        {
          "internalType": "contract ISingularity[]",
          "name": "markets",
          "type": "address[]"
        }
      ],
      "name": "singularityMarketInfo",
      "outputs": [
        {
          "components": [
            {
              "components": [
                {
                  "internalType": "address",
                  "name": "collateral",
                  "type": "address"
                },
                {
                  "internalType": "uint256",
                  "name": "collateralId",
                  "type": "uint256"
                },
                {
                  "internalType": "address",
                  "name": "asset",
                  "type": "address"
                },
                {
                  "internalType": "uint256",
                  "name": "assetId",
                  "type": "uint256"
                },
                {
                  "internalType": "contract IOracle",
                  "name": "oracle",
                  "type": "address"
                },
                {
                  "internalType": "bytes",
                  "name": "oracleData",
                  "type": "bytes"
                },
                {
                  "internalType": "uint256",
                  "name": "totalCollateralShare",
                  "type": "uint256"
                },
                {
                  "internalType": "uint256",
                  "name": "userCollateralShare",
                  "type": "uint256"
                },
                {
                  "components": [
                    {
                      "internalType": "uint128",
                      "name": "elastic",
                      "type": "uint128"
                    },
                    {
                      "internalType": "uint128",
                      "name": "base",
                      "type": "uint128"
                    }
                  ],
                  "internalType": "struct Rebase",
                  "name": "totalBorrow",
                  "type": "tuple"
                },
                {
                  "internalType": "uint256",
                  "name": "userBorrowPart",
                  "type": "uint256"
                },
                {
                  "internalType": "uint256",
                  "name": "currentExchangeRate",
                  "type": "uint256"
                },
                {
                  "internalType": "uint256",
                  "name": "spotExchangeRate",
                  "type": "uint256"
                },
                {
                  "internalType": "uint256",
                  "name": "oracleExchangeRate",
                  "type": "uint256"
                },
                {
                  "internalType": "uint256",
                  "name": "totalBorrowCap",
                  "type": "uint256"
                }
              ],
              "internalType": "struct MagnetarV2Storage.MarketInfo",
              "name": "market",
              "type": "tuple"
            },
            {
              "components": [
                {
                  "internalType": "uint128",
                  "name": "elastic",
                  "type": "uint128"
                },
                {
                  "internalType": "uint128",
                  "name": "base",
                  "type": "uint128"
                }
              ],
              "internalType": "struct Rebase",
              "name": "totalAsset",
              "type": "tuple"
            },
            {
              "internalType": "uint256",
              "name": "userAssetFraction",
              "type": "uint256"
            },
            {
              "components": [
                {
                  "internalType": "uint64",
                  "name": "interestPerSecond",
                  "type": "uint64"
                },
                {
                  "internalType": "uint64",
                  "name": "lastAccrued",
                  "type": "uint64"
                },
                {
                  "internalType": "uint128",
                  "name": "feesEarnedFraction",
                  "type": "uint128"
                }
              ],
              "internalType": "struct ISingularity.AccrueInfo",
              "name": "accrueInfo",
              "type": "tuple"
            }
          ],
          "internalType": "struct MagnetarV2Storage.SingularityInfo[]",
          "name": "",
          "type": "tuple[]"
        }
      ],
      "stateMutability": "view",
      "type": "function"
    },
    {
      "inputs": [
        {
          "internalType": "address",
          "name": "newOwner",
          "type": "address"
        }
      ],
      "name": "transferOwnership",
      "outputs": [],
      "stateMutability": "nonpayable",
      "type": "function"
    },
    {
      "inputs": [
        {
          "internalType": "contract IYieldBoxBase",
          "name": "yieldBox",
          "type": "address"
        },
        {
          "internalType": "address",
          "name": "from",
          "type": "address"
        },
        {
          "internalType": "uint256",
          "name": "assetId",
          "type": "uint256"
        },
        {
          "internalType": "uint16",
          "name": "dstChainId",
          "type": "uint16"
        },
        {
          "internalType": "bytes32",
          "name": "receiver",
          "type": "bytes32"
        },
        {
          "internalType": "uint256",
          "name": "amount",
          "type": "uint256"
        },
        {
          "internalType": "uint256",
          "name": "share",
          "type": "uint256"
        },
        {
          "internalType": "bytes",
          "name": "adapterParams",
          "type": "bytes"
        },
        {
          "internalType": "address payable",
          "name": "refundAddress",
          "type": "address"
        },
        {
          "internalType": "uint256",
          "name": "gas",
          "type": "uint256"
        }
      ],
      "name": "withdrawTo",
      "outputs": [],
      "stateMutability": "payable",
      "type": "function"
    },
    {
      "stateMutability": "payable",
      "type": "receive"
    }
  ],
  "bytecode": "0x6080346200015057601f6200424238819003918201601f19168301916001600160401b0383118484101762000155578084926040948552833981010312620001505780516001600160a01b03918282169081830362000150576020015192808416809403620001505762000073336200016b565b60018055339060005416036200010c5715620000b85762000094906200016b565b600380546001600160a01b03191691909117905560405161408f9081620001b38239f35b60405162461bcd60e51b815260206004820152602660248201527f4f776e61626c653a206e6577206f776e657220697320746865207a65726f206160448201526564647265737360d01b6064820152608490fd5b606460405162461bcd60e51b815260206004820152602060248201527f4f776e61626c653a2063616c6c6572206973206e6f7420746865206f776e65726044820152fd5b600080fd5b634e487b7160e01b600052604160045260246000fd5b600080546001600160a01b039283166001600160a01b03198216811783559216907f8be0079c531659141344cd1fd0a4f28419497f9722a3daafe3b4186f6b6457e09080a356fe6080604052600436101561001b575b361561001957600080fd5b005b60003560e01c8063013546e11461014b57806314ecf5a814610146578063411628d914610141578063443c73a71461013c578063664653ac146101375780636dd55c0b14610132578063715018a61461012d578063815c12ea146101285780638da5cb5b146101235780639cc6ef141461011e578063a22cb46514610119578063a306dfd514610114578063cc5e31631461010f578063cfd8b3d81461010a578063dedd6b8014610105578063e4e802e814610100578063e9212b72146100fb578063e985e9c5146100f65763f2fde38b0361000e57612253565b6121e9565b612138565b611ec5565b611d69565b611d42565b611caf565b611bf8565b611bc6565b611ad8565b611a9a565b611a0c565b6119ae565b61182d565b6115d4565b6113af565b6112d6565b610f33565b610244565b9181601f84011215610180578235916001600160401b038311610180576020808501948460051b01011161018057565b600080fd5b60005b8381106101985750506000910152565b8181015183820152602001610188565b906020916101c181518092818552858086019101610185565b601f01601f1916010190565b602080820190808352835180925260409283810182858560051b8401019601946000925b858410610202575050505050505090565b909192939495968580610233600193603f1986820301885286838d51805115158452015191818582015201906101a8565b9901940194019295949391906101f1565b6020806003193601126101805760049081356001600160401b038111610180576102719036908401610150565b9260009261027e856124db565b94845b8181106102a7576102a3876102978834146133d8565b604051918291826101cd565b0390f35b6102b2818387612552565b606096878201906102c96102c583612579565b1590565b610ee3575b604080840135809201809a6101906102ef6102e88861265d565b61ffff1690565b14610eb1575b60016103036102e88861265d565b0361034957505050508161033961033f9261033161032689610344989701612843565b936080810190612583565b929091612579565b92613de4565b612458565b610281565b61ffff6002816103588961265d565b16036103835750505050508161037d61033f9261033161032689610344989701612843565b92613d10565b9091929396959b945061012c816103998e61265d565b160361050e5750506103c36103bb6103b460808d018d612583565b8091612667565b8101906131e6565b926103dd6103d885516001600160a01b031690565b613fb4565b85156104845750866104086103fc6103fc838961041796019e01612843565b6001600160a01b031690565b9301516001600160a01b031690565b91803b15610180579051632479d86360e01b81526001600160a01b039092168783019081529193600092859291839182906020015b03925af191821561047f5761034492610466575b50612458565b806104736104799261112c565b806119a3565b38610460565b6123da565b9961049c929395506103fc9150876103fc9101612843565b816104b0878601516001600160a01b031690565b94015190803b15610180579151630c46aac760e31b8152338882019081526001600160a01b039095166020860152604085019190915292600091849182908490829060600103925af191821561047f57610344926104665750612458565b8b96925061012d816105228b96979e61265d565b160361059b5750509061056a6001600160a01b03926105706103fc6103fc61055b6105536103b460808d018d612583565b8101906132df565b99939d9298919a909d16613fb4565b01612843565b92833b156101805761044c8b9160009751998a978896879563695ef6bf60e01b87523390870161337f565b6064816105ab899594969961265d565b16036106fe5750509082918860006105f66103fc6103fc8a60809661056a6103d86105e66105de6103b48c860186612583565b8101906132a0565b9e8f01516001600160a01b031690565b9261065e895191610610888c01516001600160a01b031690565b968b01519a01518751634d4d7cbd60e11b81529485019283523360208401526001600160a01b0390961660408301526060820199909952608081019490945290968793849291839160a00190565b03925af1801561047f576103449360009081926106c6575b5091518681019283526020830191909152906106a09082906040015b03601f19810183528261121f565b6106a8611240565b6001815290858201526106bb828a6130f2565b5261046081896130f2565b6106a0925061069291506106ef90843d86116106f7575b6106e7818361121f565b810190613229565b925090610676565b503d6106dd565b60c88161070d8599949561265d565b16036107cf5750505060806107516103fc6103fc8961073c6107346103b4878c018c612583565b81019061323f565b9861056a6103d88b516001600160a01b031690565b90610765888701516001600160a01b031690565b9061077285880151151590565b9387015196015193823b1561018057516374d2492960e11b815233818b019081526001600160a01b03909216602083015292151560408201526060810195909552608085019290925292600091849182908490829060a00161044c565b60c9816107df899694959661265d565b16036108d4575050829150936108206103fc6103fc6108749761080b6103bb6103b46080880188612583565b9461056a6103d887516001600160a01b031690565b82610834898401516001600160a01b031690565b92015183516314890dcb60e21b815233818c019081526001600160a01b039094166020850152604084019190915295869283916000918391606090910190565b03925af1801561047f576103449360009081926108ac575b5091518681019283526020830191909152906106a0908290604001610692565b6106a0925061069291506108cc90843d86116106f7576106e7818361121f565b92509061088c565b60ca816108e38995969961265d565b160361094b57505061046092916106926103449661091661090e6103b4866080610946980190612583565b810190613106565b9790969c959195949294519c8d9b632731bbc560e21b908d01526001600160a01b03809116911660248c01613183565b613e85565b60cb8161095a8599949961265d565b1603610a435750506109876103fc6103fc8461080b61097f6103b46080880188612583565b81019061309b565b818301516001600160a01b0316956109a185840151151590565b9201518451630cb0f5b760e31b815233818c019081526001600160a01b039098166020890152921515604088015260608701529094859190829060009082906080015b03925af192831561047f5761034493610692926106a092600092610a14575b505187810191825292839160200190565b610a35919250883d8a11610a3c575b610a2d818361121f565b8101906123fb565b9038610a03565b503d610a23565b60cc81610a4f8561265d565b1603610ad5575050610a746103fc6103fc8461080b61097f6103b46080880188612583565b818301516001600160a01b031695610a8e85840151151590565b920151845163cd0211eb60e01b815233818c019081526001600160a01b039098166020890152921515604088015260608701529094859190829060009082906080016109e4565b61012f81610ae785999496979561265d565b1603610b6457505091610b366103fc926103fc94610b16610b0e6103b460808b018b612583565b810190612e56565b95979699939b929c919a90949e61056a6001600160a01b03809c16613fb4565b96873b15610180576000998f9961044c95519d8e9b8c9a8b99636a1f940160e11b8b52169033908a01612ff7565b61013081610b75899796959961265d565b1603610bef57505093610bc16103fc956103fc610ba3610b9b6103b46080890189612583565b810190612a93565b9894979395929c9199909a61056a6001600160a01b03809a16613fb4565b94853b15610180576000978d9761044c93519b8c998a988997632e20695360e01b8952169033908801612b51565b61013181610bff8796949661265d565b1603610ca4575050608094610c436103fc6103fc8a610c2e610c266103b48c8b018b612583565b8101906128c3565b9761056a6103d88a516001600160a01b031690565b91610c57898601516001600160a01b031690565b918086015194860151978601519060c0610c7660a089015161ffff1690565b970151853b15610180576000978d9361044c93519b8c998a988997634663f85d60e11b895233908901612941565b61013281610cb78795969498999761265d565b1603610d34575050916103fc610d069284610ce8610ce06103b460806103fc9b9a990184612583565b8101906127df565b949a939d929598919b909661056a6001600160a01b03809b16613fb4565b95863b156101805760009861044c938f92519c8d9a8b998a986323c8387760e11b8a5216943390890161284d565b60cd919550829350610d46819361265d565b1603610df557509161094661046092610692610d78610d706103b48860806103449b9a0190612583565b810190612775565b91610d8a83516001600160a01b031690565b92610dae610da18c8301516001600160a01b031690565b9683830151920151151590565b91516301bdbad760e71b8c8201526001600160a01b03948516602482015295909316604486015260648501929092529015156084840152600060a4840152829060c4820190565b81929350610e0460ce9261265d565b1603610e6257610344929161094686610692610e35610e2d6103b4876080610460990190612583565b8101906126a9565b9691949250949951998a9863411628d960e01b908a01526001600160a01b03809116911660248901612728565b815162461bcd60e51b81526020818801818152601c918101919091527f4d61676e6574617256323a20616374696f6e206e6f742076616c696400000000604082015281906060010390fd5b0390fd5b610ede6001600160a01b03610ed7610ecf6103b460808b018b612583565b810190612684565b91166124a1565b6102f5565b610f1d610ef36080850185612583565b9050610f15604051610f10816106928a8d83019190602083019252565b6125b5565b901515612631565b6102ce565b6001600160a01b0381160361018057565b346101805760408060031936011261018057600435610f5181610f22565b815163f9557ccb60e01b8152916001600160a01b039182168184600481845afa92831561047f5760009485946110bf575b50825163de40657760e01b81526020958682600481875afa91821561047f576004948891600094611090575b50865163226f120560e11b815295869182905afa801561047f5761102896889560009261106f575b50610ffa9192610ff26001600160801b03809216602435612420565b911690612438565b855163442c159960e01b81526004810192909252602482015260006044820152948592839182906064820190565b0392165afa91821561047f576102a393600093611050575b5050519081529081906020820190565b611067929350803d10610a3c57610a2d818361121f565b903880611040565b610ffa925061108a90873d8911610a3c57610a2d818361121f565b91610fd6565b6110b1919450823d84116110b8575b6110a9818361121f565b8101906123e6565b9238610fae565b503d61109f565b9093506110e3919450823d84116110ed575b6110db818361121f565b8101906123b6565b9390939238610f82565b503d6110d1565b35906110ff82610f22565b565b8015150361018057565b35906110ff82611101565b634e487b7160e01b600052604160045260246000fd5b6001600160401b03811161113f57604052565b611116565b604081019081106001600160401b0382111761113f57604052565b60a081019081106001600160401b0382111761113f57604052565b60e081019081106001600160401b0382111761113f57604052565b608081019081106001600160401b0382111761113f57604052565b606081019081106001600160401b0382111761113f57604052565b61012081019081106001600160401b0382111761113f57604052565b61014081019081106001600160401b0382111761113f57604052565b61010081019081106001600160401b0382111761113f57604052565b90601f801991011681019081106001600160401b0382111761113f57604052565b604051906110ff82611144565b604051906110ff826111b0565b604051906110ff826111cb565b604051906110ff826111e7565b6001600160401b03811161113f57601f01601f191660200190565b81601f82011215610180578035906112a682611274565b926112b4604051948561121f565b8284526020838301011161018057816000926020809301838601378301015290565b61010080600319360112610180576004356112f081610f22565b602435916112fd83610f22565b6084359261130a84611101565b60a4359161131783611101565b60c4359461132486611101565b60e435916001600160401b03831161018057610019966109469561134f61069295369060040161128f565b9360405198899763411628d960e01b60208a01526001600160a01b0380921660248a015216604488015260443560648801526064356084880152151560a4870152151560c4860152151560e48501526101048401526101248301906101a8565b346101805760803660031901126101805760048035906113ce82610f22565b6113d6612389565b506040805163020a17bd60e61b8152926001600160a01b039081169082858581855afa94851561047f5760009081966115b2575b50611425611416611240565b6001600160801b039092168252565b61143c602096878301906001600160801b03169052565b835163de40657760e01b81529086828781875afa91821561047f5760009261158f575b5061146d9060243590612467565b84516377607a1760e11b8152909287828881885afa91821561047f57600092611570575b50855163294c4c7960e11b81529388858981895afa94851561047f5788958a926114c392600092611558575b50612420565b95875198898092633ba0b9a960e01b82525afa94851561047f576114f7899661150b926110289a6000926115395750612420565b611505606435604435612420565b90612438565b8651638eb22cdd60e01b81529485019283526020830152600060408301529295869384929091839160600190565b611551919250893d8b11610a3c57610a2d818361121f565b90386114bd565b611551919250843d8611610a3c57610a2d818361121f565b611588919250883d8a11610a3c57610a2d818361121f565b9038611491565b61146d9192506115ab90883d8a116110b8576110a9818361121f565b919061145f565b90506115cc919550833d85116110ed576110db818361121f565b94903861140a565b60e0366003190112610180576100196004356115ef81610f22565b6024356115fb81610f22565b6044359061160882610f22565b60a4359061161582611101565b60c4359261162284611101565b6040519463199194eb60e21b60208701526001600160a01b0392838092166024880152166044860152166064840152606435608484015260843560a4840152151560c4830152151560e482015260e48152610946816111cb565b9060406003198301126101805760043561169581610f22565b91602435906001600160401b038211610180576116b491600401610150565b9091565b80516001600160a01b0316825290602082015160208201526116ea604083015160408301906001600160a01b03169052565b6060820151606082015261170e608083015160808301906001600160a01b03169052565b6101c061172a60a08401516101e08060a08601528401906101a8565b9260c081015160c084015260e081015160e08401526117686101008083015190850190602090816001600160801b0391828151168552015116910152565b610120810151610140908185015281015161016090818501528101516101809081850152810151906101a09182850152015191015290565b602080820190808352835180925260409283810182858560051b8401019601946000925b8584106117d5575050505050505090565b909192939495968580600192603f198582030187528a51908683611801845160608086528501906116b8565b930151846001600160401b039182815116828601520151169101529901940194019295949391906117c4565b346101805761183b3661167c565b9061184582612372565b916040916118558351948561121f565b8184526020918285019060051b820191368311610180578390915b838310611989575050505082519061188782613c45565b93611890612389565b5060005b8381106118a8578451806102a388826117a0565b80856118c96103fc6118bc600495876130f2565b516001600160a01b031690565b6118dc6001600160a01b0382168b613698565b6118e6848b6130f2565b51528151632c9f039d60e21b815293849182905afa91821561047f57611951926000918291611956575b5061193e9061192f611920611240565b6001600160401b039094168452565b6001600160401b031682870152565b84611949838a6130f2565b510152612458565b611894565b61193e925061197b9150883d8a11611982575b611973818361121f565b810190613cb1565b9091611910565b503d611969565b8190833561199681610f22565b8152019101908390611870565b600091031261018057565b3461018057600080600319360112611a09576119c861231a565b80546001600160a01b03198116825581906001600160a01b03167f8be0079c531659141344cd1fd0a4f28419497f9722a3daafe3b4186f6b6457e08280a380f35b80fd5b61010036600319011261018057600435611a2581610f22565b602435611a3181610f22565b60443591611a3e83610f22565b60c435611a4a81611101565b60e435936001600160401b0393848611610180573660238701121561018057856004013594851161018057366024868801011161018057602461001996019360a435926084359260643592613424565b346101805760003660031901126101805760206001600160a01b0360005416604051908152f35b61ffff81160361018057565b35906110ff82611ac1565b6101408060031936011261018057600435611af281610f22565b602435611afe81610f22565b60643591611b0b83611ac1565b60e435916001600160401b0383116101805761001994611ba7611b3561094695369060040161128f565b61010492833593611b4585610f22565b61ffff604051998a98632731bbc560e21b60208b01526001600160a01b03988980921660248c01521660448a015260443560648a015216608488015260843560a488015260a43560c488015260c43560e48801528601526101648501906101a8565b916101249116818401523561014483015203601f19810183528261121f565b3461018057604036600319011261018057610019600435611be681610f22565b60243590611bf382611101565b6124a1565b346101805760408060031936011261018057806001600160a01b0391600435611c2081610f22565b611c28612389565b50600482518095819363020a17bd60e61b8352165afa91821561047f576102a392611c80916000908192611c8f575b50835191611c6483611144565b6001600160801b03809216835216602082015260243590612467565b90519081529081906020820190565b9050611ca89150833d85116110ed576110db818361121f565b9038611c57565b60c036600319011261018057610019600435611cca81610f22565b60243590611cd782610f22565b608435611ce381611101565b60a43591611cf083611101565b6040519363cc5e316360e01b60208601526001600160a01b03809216602486015216604484015260443560648401526064356084840152151560a4830152151560c482015260c4815261094681611203565b346101805760003660031901126101805760206001600160a01b0360035416604051908152f35b60a036600319011261018057610019600435611d8481610f22565b60243590611d9182610f22565b606435611d9d81611101565b60843591611daa83611101565b604051936301bdbad760e71b60208601526001600160a01b038092166024860152166044840152604435606484015215156084830152151560a482015260a481526109468161117a565b602080820190808352835180925260409283810182858560051b8401019601946000925b858410611e29575050505050505090565b909192939495968580600192603f198582030187528a519060c06001600160801b0388611e5e855160e08087528601906116b8565b94611e858782015188870190602090816001600160801b0391828151168552015116910152565b81810151906060918287015201516001600160401b03808251166080870152878201511660a0860152015116910152990194019401929594939190611e18565b3461018057611ed33661167c565b9091611ede82612372565b91604093611eee8551948561121f565b8184526020918285019060051b820191368311610180578390915b83831061211e5750505050825191611f2083613552565b93611f29612389565b50611f32613533565b5060005b848110611f4a578651806102a38882611df4565b611f5a6103fc6118bc83856130f2565b90611f6e6001600160a01b03831685613698565b611f7882896130f2565b5152875163f9557ccb60e01b815260049089818381875afa801561047f5760009182916120fb575b50611fce90611fbf611fb0611240565b6001600160801b039094168452565b6001600160801b031682890152565b86611fd9848b6130f2565b51015288516370a0823160e01b81526001600160a01b0386168282019081528790829081906020010381875afa90811561047f576000916120de575b5089612021848b6130f2565b510152885192838092632c9f039d60e21b825260609586935afa92831561047f5761209d93600092839084926120a2575b50906120846120939261207561206661124d565b6001600160401b039097168752565b6001600160401b0316858b0152565b6001600160801b0316838c0152565b611949838a6130f2565b611f36565b612084945061209392506120cc9150833d85116120d7575b6120c4818361121f565b8101906135e8565b919490919250612052565b503d6120ba565b6120f59150873d8911610a3c57610a2d818361121f565b38612015565b611fce925061211791508b3d8d116110ed576110db818361121f565b9091611fa0565b8190833561212b81610f22565b8152019101908390611f09565b6101003660031901126101805761001960043561215481610f22565b6024359061216182610f22565b60a43561216d81611101565b60c4359061217a82611101565b60e4359261218784611101565b6040519463749095b960e11b60208701526001600160a01b0380921660248701521660448501526044356064850152606435608485015260843560a4850152151560c4840152151560e4830152610104901515818301528152610946816111e7565b3461018057604036600319011261018057602060ff61224760043561220d81610f22565b6001600160a01b036024359161222283610f22565b16600052600284526040600020906001600160a01b0316600052602052604060002090565b54166040519015158152f35b346101805760203660031901126101805760043561227081610f22565b61227861231a565b6001600160a01b0380911680156122c657600080546001600160a01b03198116831782559092167f8be0079c531659141344cd1fd0a4f28419497f9722a3daafe3b4186f6b6457e08380a380f35b60405162461bcd60e51b815260206004820152602660248201527f4f776e61626c653a206e6577206f776e657220697320746865207a65726f206160448201526564647265737360d01b6064820152608490fd5b6001600160a01b0360005416330361232e57565b606460405162461bcd60e51b815260206004820152602060248201527f4f776e61626c653a2063616c6c6572206973206e6f7420746865206f776e65726044820152fd5b6001600160401b03811161113f5760051b60200190565b6040519061239682611144565b60006020838281520152565b51906001600160801b038216820361018057565b9190826040910312610180576123d760206123d0846123a2565b93016123a2565b90565b6040513d6000823e3d90fd5b9081602091031261018057516123d781610f22565b90816020910312610180575190565b634e487b7160e01b600052601160045260246000fd5b8181029291811591840414171561243357565b61240a565b8115612442570490565b634e487b7160e01b600052601260045260246000fd5b60001981146124335760010190565b60208101906001600160801b039081835116156000146124875750505090565b6123d7938261249892511690612420565b91511690612438565b6124d8916001600160a01b036040519263a22cb46560e01b6020850152166024830152151560448201526044815261094681611195565b50565b906124e582612372565b60406124f38151928361121f565b8382528193612504601f1991612372565b0191600091825b848110612519575050505050565b602090825161252781611144565b8581528260608183015282860101520161250b565b634e487b7160e01b600052603260045260246000fd5b91908110156125745760051b81013590609e1981360301821215610180570190565b61253c565b356123d781611101565b903590601e198136030182121561018057018035906001600160401b0382116101805760200191813603831361018057565b906110ff604e60405180947f4d61676e6574617256323a204d697373696e672063616c6c20666f722061637460208301526d0d2dedc40eed2e8d040d2dcc8caf60931b60408301526126108151809260208686019101610185565b810103602e81018552018361121f565b9060206123d79281815201906101a8565b156126395750565b60405162461bcd60e51b815260206004820152908190610ead9060248301906101a8565b356123d781611ac1565b909291928360041161018057831161018057600401916003190190565b9190826040910312610180576020823561269d81610f22565b9201356123d781611101565b919091610100818403126101805780356126c281610f22565b9260208201356126d181610f22565b9260408301359260608101359260808201356126ec81611101565b9260a08301356126fb81611101565b9260c081013561270a81611101565b9260e08201356001600160401b038111610180576123d7920161128f565b9492906123d7979694926001600160a01b0380921687521660208601526040850152606084015260006080840152151560a0830152151560c0820152610100908160e082015201906101a8565b908160a09103126101805760806040519161278f8361115f565b803561279a81610f22565b835260208101356127aa81610f22565b60208401526040810135604084015260608101356127c781611101565b606084015201356127d781611101565b608082015290565b9060e0828203126101805781356127f581610f22565b92602083013592604081013592606082013592608083013561281681611ac1565b9260a081013561282581610f22565b9260c08201356001600160401b038111610180576123d7920161128f565b356123d781610f22565b939460e09561ffff92946123d79998946001600160a01b0380971688526020880152604087015260608601521660808401521660a08201528160c082015201906101a8565b9190826040910312610180576040516128aa81611144565b6020808294803584520135916128bf83610f22565b0152565b9061010082820312610180576129399060c0604051936128e28561117a565b80356128ed81610f22565b855260208101356128fd81610f22565b602086015260408101356040860152606081013560608601526080810135608086015260a081013561292e81611ac1565b60a086015201612892565b60c082015290565b929460c09461ffff939998966110ff989361010087019b6001600160a01b0380921688521660208701526040860152606085015260808401521660a082015201906001600160a01b036020809280518552015116910152565b359060ff8216820361018057565b81601f82011215610180578035906129bf82612372565b926040906129cf8251958661121f565b838552602091828601918361012080970286010194818611610180578401925b858410612a00575050505050505090565b868483031261018057848791612a1461125a565b612a1d8761110b565b8152612a2a8388016110f4565b83820152612a398688016110f4565b868201526060612a4a8189016110f4565b908201526080808801359082015260a0808801359082015260c0612a6f81890161299a565b9082015260e0808801359082015261010080880135908201528152019301926129ef565b919091808303906101408212610180578035612aae81610f22565b936020820135612abd81610f22565b9360806040840135612ace81611ac1565b94605f19011261018057604051612ae481611195565b6060840135612af281611101565b81526080840135602082015260a0840135612b0c81610f22565b604082015260c0840135612b1f81610f22565b606082015292612b328360e08301612892565b926101208201356001600160401b038111610180576123d792016129a8565b93949092919261014091828601956001600160a01b03809316815282602096168682015261ffff6040951685820152875115159760609889830152868101516080908184015287610160868c818b870151169560a096878901520151169460c09586820152612bd860e097888301906001600160a01b036020809280518552015116910152565b61012098898201528d51809c52019b01996000975b8a8910612c035750505050505050505050505090565b909192939495969798999a9b8a896001928f518051151582528b848201511684830152612c3e86820151878401906001600160a01b03169052565b808701516001600160a01b031682880152808801518289015288810151898301528981015160ff168a830152808b0151828c01526101009081015190820152019d019b9a99019796959493929190612bed565b919082608091031261018057604051612ca981611195565b606080829480358452602081013560208501526040810135612cca81610f22565b60408501520135916128bf83610f22565b919060a0838203126101805760405190612cf48261115f565b81938035612d0181611101565b8352602081013560208401526040810135612d1b81611101565b60408401526060810135612d2e81611ac1565b60608401526080810135916001600160401b03831161018057608092612d54920161128f565b910152565b81601f8201121561018057803590612d7082612372565b92604090612d808251958661121f565b838552602091828601918361014080970286010194818611610180578401925b858410612db1575050505050505090565b868483031261018057848791612dc5611267565b612dce8761110b565b8152612ddb8388016110f4565b83820152612dea86880161110b565b868201526060612dfb8189016110f4565b908201526080612e0c8189016110f4565b9082015260a0808801359082015260c0808801359082015260e0612e3181890161299a565b9082015261010080880135908201526101208088013590820152815201930192612da0565b906101808282031261018057612e6b826110f4565b92612e78602084016110f4565b92612e8560408201611acd565b926001600160401b0360608301358181116101805782612ea691850161128f565b93612eb48360808601612c91565b936101008101358381116101805784612ece918301612cdb565b93612edd816101208401612892565b93610160830135908111610180576123d79201612d59565b9060a060806123d7938051151584526020810151602085015260408101511515604085015261ffff606082015116606085015201519181608082015201906101a8565b90815180825260208080930193019160005b828110612f58575050505090565b90919293826101406001928751612f7182825115159052565b808401516001600160a01b0316828501526040818101511515908301526060818101516001600160a01b0316908301526080818101516001600160a01b03169083015260a0818101519083015260c0808201519083015260e08082015160ff16908301526101008181015190830152610120908101519082015201950193929101612f4a565b9491606061303a61308d9661ffff61306e976123d79d9b966001600160a01b0396878092168d521660208c01521660408a015261018080848b01528901906101a8565b9380516080890152602081015160a08901528260408201511660c089015201511660e0860152848203610100860152612ef5565b84516101208401526020909401516001600160a01b0316610140830152565b610160818403910152612f38565b90816080910312610180576060604051916130b583611195565b80356130c081610f22565b835260208101356130d081610f22565b602084015260408101356130e381611101565b60408401520135606082015290565b80518210156125745760209160051b010190565b90916101208284031261018057813561311e81610f22565b92602083013561312d81610f22565b92604081013592606082013561314281611ac1565b9260808301359260a08101359260c08201359260e08301356001600160401b038111610180576101009161317791850161128f565b9201356123d781610f22565b9692610120989461ffff916131da97939d9c9b9d9894986001600160a01b03998a8092168c521660208b015260408a0152166060880152608087015260a086015260c08501526101408060e08601528401906101a8565b95166101008201520152565b908160609103126101805760408051916131ff836111b0565b803561320a81610f22565b8352602081013561321a81610f22565b60208401520135604082015290565b9190826040910312610180576020825192015190565b908160a0910312610180576080604051916132598361115f565b803561326481610f22565b8352602081013561327481610f22565b6020840152604081013561328781611101565b6040840152606081013560608401520135608082015290565b908160a0910312610180576080604051916132ba8361115f565b8035835260208101356132cc81610f22565b6020840152604081013561328781610f22565b91909160a0818403126101805780356132f781610f22565b92602082013561330681611ac1565b9260408301359260608101359260808201356001600160401b03928382116101805701906060828203126101805760405192613341846111b0565b823561334c81610f22565b8452602083013561335c81610f22565b6020850152604083013590811161018057613377920161128f565b604082015290565b93906123d795916101009461ffff6040956001600160a01b03809516895216602088015284870152606086015260a060808601528082511660a086015260208201511660c0850152015191606060e082015201906101a8565b156133df57565b60405162461bcd60e51b815260206004820152601a60248201527f4d61676e6574617256323a2076616c7565206d69736d617463680000000000006044820152606490fd5b969491926124d89894916109469794604051996340ae097560e11b60208c01526001600160a01b03928380921660248d01521660448b0152166064890152608488015260a487015260c4860152151560e4850152610100610104850152836101249180838301528061014494858401376000828201850152601f01601f19168101039081018452018261121f565b604051906101c082018281106001600160401b0382111761113f57604052816101a0600091828152826020820152826040820152826060820152826080820152606060a08201528260c08201528260e082015261350d612389565b610100820152826101208201528261014082015282610160820152826101808201520152565b60405190613540826111b0565b60006040838281528260208201520152565b9061355c82612372565b60409061356b8251918261121f565b838152809361357c601f1991612372565b0191600091825b848110613591575050505050565b602090835161359f81611195565b6135a76134b2565b81526135b1612389565b83908183015286868301526135c4613533565b6060830152828501015201613583565b51906001600160401b038216820361018057565b90816060910312610180576135fc816135d4565b916123d760406123d0602085016135d4565b9092919261361b81611274565b91613629604051938461121f565b8294828452828201116101805760206110ff930190610185565b602081830312610180578051906001600160401b03821161018057019080601f830112156101805781516123d79260200161360e565b9190826040910312610180576020825161369281611101565b92015190565b906136a16134b2565b506136aa612389565b506136b36134b2565b6040805163d8dfeb4560e01b815291936004936020936001600160a01b03918216929085818881875afa801561047f576136fd91600091613c28575b506001600160a01b03168852565b83516338d52e0f60e01b815285818881875afa801561047f5761373291600091613c0b575b506001600160a01b031688860152565b83516307dc0d1d60e41b808252919086818981885afa90811561047f5761376f918591600091613bee575b50166001600160a01b031660808a0152565b84516374645ff360e01b80825291906000818a81895afa90811561047f57600091613bd5575b5060a08a0152855163473e3ce760e01b815287818a81895afa90811561047f57600091613bb8575b5060c08a01528551631c9e379b60e01b81526001600160a01b0382168982019081528890829081906020010381895afa90811561047f57600091613b9b575b5060e08a0152855163020a17bd60e61b81529086828a81895afa90811561047f5761387a9289926000918291613b78575b5061384c9061383d611fb0611240565b6001600160801b031682850152565b6101008c01528751809381926324720b1f60e11b83528c83019190916001600160a01b036020820193169052565b0381885afa90811561047f57600091613b5b575b506101208901528451633ba0b9a960e01b815286818981885afa90811561047f57600091613b3e575b50610140890152845182815286818981885afa90811561047f57600091613b21575b5085518281526000818a81895afa801561047f57613917928892600092613b06575b508a87845180968195829463eeb8a8d360e01b84528301612620565b0392165afa90811561047f57600091613ad7575b50610180890152845191825285828881875afa91821561047f57600092613ab8575b5084519081526000818881875afa91821561047f57869261398b92600091613a97575b508651948580948193630d39bbef60e41b83528c8301612620565b0392165afa90811561047f57600091613a7a575b5061016086015281516340626d8b60e01b815283818681855afa90811561047f57600091613a5d575b506101a0860152815163226f120560e11b81529183838681855afa801561047f578493600091613a40575b506060870152516377607a1760e11b815293849182905afa91821561047f57600092613a21575b5082015290565b81613a399293503d8411610a3c57610a2d818361121f565b9038613a1a565b613a579150843d8611610a3c57610a2d818361121f565b386139f3565b613a749150843d8611610a3c57610a2d818361121f565b386139c8565b613a919150843d8611610a3c57610a2d818361121f565b3861399f565b613ab2913d8091833e613aaa818361121f565b810190613643565b38613970565b613ad0919250863d88116110b8576110a9818361121f565b903861394d565b613af79150863d8811613aff575b613aef818361121f565b810190613679565b90503861392b565b503d613ae5565b613b1a91923d8091833e613aaa818361121f565b90386138fb565b613b389150873d89116110b8576110a9818361121f565b386138d9565b613b559150873d8911610a3c57610a2d818361121f565b386138b7565b613b729150873d8911610a3c57610a2d818361121f565b3861388e565b61384c9250613b9491508a3d8c116110ed576110db818361121f565b909161382d565b613bb29150883d8a11610a3c57610a2d818361121f565b386137fc565b613bcf9150883d8a11610a3c57610a2d818361121f565b386137bd565b613be8913d8091833e613aaa818361121f565b38613795565b613c059150893d8b116110b8576110a9818361121f565b3861375d565b613c229150873d89116110b8576110a9818361121f565b38613722565b613c3f9150873d89116110b8576110a9818361121f565b386136ef565b90613c4f82612372565b604090613c5e8251918261121f565b8381528093613c6f601f1991612372565b019160005b838110613c815750505050565b6020908251613c8f81611144565b613c976134b2565b8152613ca1612389565b8184015284820183015201613c74565b9190826040910312610180576123d76020613ccb846135d4565b93016135d4565b908092918237016000815290565b3d15613d0b573d90613cf182611274565b91613cff604051938461121f565b82523d6000602084013e565b606090565b826004116101805760e06003198385810103011261018057600092838093613da96001600160a01b03604051613d458161117a565b600484013590613d5482610f22565b8181526024850135613d6581610f22565b60208201526044850135604082015260648501356060820152613d8a6084860161299a565b608082015260a485013560a082015260c060c486013591015216613fb4565b613db860405180948193613cd2565b03925af190613dc5613ce0565b91159081613ddb575b50613dd65750565b613f02565b90501538613dce565b60c092613df2818085612667565b9080959181010312610180576040519360c08501938585106001600160401b0386111761113f57613da96001600160a01b0360009793889794889560405260a080833593613e3f85610f22565b8484526020810135613e5081610f22565b602085015260408101356040850152613e6b6060820161299a565b606085015260808101356080850152013591015216613fb4565b6001600160a01b03600354168015613ebd57816000929160208493519201905af490613eaf613ce0565b9115613eb757565b50613f02565b60405162461bcd60e51b815260206004820152601c60248201527f4d61676e6574617256323a206d6f64756c65206e6f7420666f756e64000000006044820152606490fd5b6044815110613f6f57600481015181019060208160248401930312610180576024810151906001600160401b03821161018057018160438201121561018057610ead918160446024613f57940151910161360e565b60405162461bcd60e51b815291829160048301612620565b60405162461bcd60e51b815260206004820152601a60248201527f4d61676e6574617256323a20526561736f6e20756e6b6e6f776e0000000000006044820152606490fd5b6001600160a01b031633811490811561401f575b5015613fd057565b60405162461bcd60e51b815260206004820152602160248201527f4d61676e6574617256323a206f70657261746f72206e6f7420617070726f76656044820152601960fa1b6064820152608490fd5b90506000526002602052600160ff61404e336040600020906001600160a01b0316600052602052604060002090565b541615151438613fc856fea2646970667358221220a510d2f5ba9011b180881b3a95778ee844aa253d132e45f87bcd6c6fab6f11a164736f6c63430008120033",
  "linkReferences": {},
  "deployedLinkReferences": {}
}