{
  "_format": "hh-sol-artifact-1",
  "contractName": "MagnetarV2",
  "sourceName": "contracts/Magnetar/MagnetarV2.sol",
  "abi": [
    {
      "inputs": [
        {
          "internalType": "address",
          "name": "_owner",
          "type": "address"
        }
      ],
      "stateMutability": "nonpayable",
      "type": "constructor"
    },
    {
      "anonymous": false,
      "inputs": [
        {
          "indexed": false,
          "internalType": "address",
          "name": "owner",
          "type": "address"
        },
        {
          "indexed": false,
          "internalType": "address",
          "name": "operator",
          "type": "address"
        },
        {
          "indexed": false,
          "internalType": "bool",
          "name": "approved",
          "type": "bool"
        }
      ],
      "name": "ApprovalForAll",
      "type": "event"
    },
    {
      "anonymous": false,
      "inputs": [
        {
          "indexed": true,
          "internalType": "address",
          "name": "previousOwner",
          "type": "address"
        },
        {
          "indexed": true,
          "internalType": "address",
          "name": "newOwner",
          "type": "address"
        }
      ],
      "name": "OwnershipTransferred",
      "type": "event"
    },
    {
      "inputs": [
        {
          "internalType": "address",
          "name": "who",
          "type": "address"
        },
        {
          "internalType": "contract IBigBang[]",
          "name": "markets",
          "type": "address[]"
        }
      ],
      "name": "bigBangMarketInfo",
      "outputs": [
        {
          "components": [
            {
              "components": [
                {
                  "internalType": "address",
                  "name": "collateral",
                  "type": "address"
                },
                {
                  "internalType": "uint256",
                  "name": "collateralId",
                  "type": "uint256"
                },
                {
                  "internalType": "address",
                  "name": "asset",
                  "type": "address"
                },
                {
                  "internalType": "uint256",
                  "name": "assetId",
                  "type": "uint256"
                },
                {
                  "internalType": "contract IOracle",
                  "name": "oracle",
                  "type": "address"
                },
                {
                  "internalType": "bytes",
                  "name": "oracleData",
                  "type": "bytes"
                },
                {
                  "internalType": "uint256",
                  "name": "totalCollateralShare",
                  "type": "uint256"
                },
                {
                  "internalType": "uint256",
                  "name": "userCollateralShare",
                  "type": "uint256"
                },
                {
                  "components": [
                    {
                      "internalType": "uint128",
                      "name": "elastic",
                      "type": "uint128"
                    },
                    {
                      "internalType": "uint128",
                      "name": "base",
                      "type": "uint128"
                    }
                  ],
                  "internalType": "struct Rebase",
                  "name": "totalBorrow",
                  "type": "tuple"
                },
                {
                  "internalType": "uint256",
                  "name": "userBorrowPart",
                  "type": "uint256"
                },
                {
                  "internalType": "uint256",
                  "name": "currentExchangeRate",
                  "type": "uint256"
                },
                {
                  "internalType": "uint256",
                  "name": "spotExchangeRate",
                  "type": "uint256"
                },
                {
                  "internalType": "uint256",
                  "name": "oracleExchangeRate",
                  "type": "uint256"
                },
                {
                  "internalType": "uint256",
                  "name": "totalBorrowCap",
                  "type": "uint256"
                }
              ],
              "internalType": "struct MagnetarV2Operations.MarketInfo",
              "name": "market",
              "type": "tuple"
            },
            {
              "components": [
                {
                  "internalType": "uint64",
                  "name": "debtRate",
                  "type": "uint64"
                },
                {
                  "internalType": "uint64",
                  "name": "lastAccrued",
                  "type": "uint64"
                }
              ],
              "internalType": "struct IBigBang.AccrueInfo",
              "name": "accrueInfo",
              "type": "tuple"
            }
          ],
          "internalType": "struct MagnetarV2Operations.BigBangInfo[]",
          "name": "",
          "type": "tuple[]"
        }
      ],
      "stateMutability": "view",
      "type": "function"
    },
    {
      "inputs": [
        {
          "components": [
            {
              "internalType": "uint16",
              "name": "id",
              "type": "uint16"
            },
            {
              "internalType": "address",
              "name": "target",
              "type": "address"
            },
            {
              "internalType": "uint256",
              "name": "value",
              "type": "uint256"
            },
            {
              "internalType": "bool",
              "name": "allowFailure",
              "type": "bool"
            },
            {
              "internalType": "bytes",
              "name": "call",
              "type": "bytes"
            }
          ],
          "internalType": "struct MagnetarV2ActionsData.Call[]",
          "name": "calls",
          "type": "tuple[]"
        }
      ],
      "name": "burst",
      "outputs": [
        {
          "components": [
            {
              "internalType": "bool",
              "name": "success",
              "type": "bool"
            },
            {
              "internalType": "bytes",
              "name": "returnData",
              "type": "bytes"
            }
          ],
          "internalType": "struct MagnetarV2ActionsData.Result[]",
          "name": "returnData",
          "type": "tuple[]"
        }
      ],
      "stateMutability": "payable",
      "type": "function"
    },
    {
      "inputs": [
        {
          "internalType": "contract IMarket",
          "name": "market",
          "type": "address"
        },
        {
          "internalType": "address",
          "name": "user",
          "type": "address"
        },
        {
          "internalType": "uint256",
          "name": "collateralAmount",
          "type": "uint256"
        },
        {
          "internalType": "uint256",
          "name": "borrowAmount",
          "type": "uint256"
        },
        {
          "internalType": "bool",
          "name": "extractFromSender",
          "type": "bool"
        },
        {
          "internalType": "bool",
          "name": "deposit",
          "type": "bool"
        },
        {
          "internalType": "bool",
          "name": "withdraw",
          "type": "bool"
        },
        {
          "internalType": "bytes",
          "name": "withdrawData",
          "type": "bytes"
        }
      ],
      "name": "depositAddCollateralAndBorrow",
      "outputs": [],
      "stateMutability": "payable",
      "type": "function"
    },
    {
      "inputs": [
        {
          "internalType": "contract IMarket",
          "name": "singularity",
          "type": "address"
        },
        {
          "internalType": "address",
          "name": "_user",
          "type": "address"
        },
        {
          "internalType": "uint256",
          "name": "_amount",
          "type": "uint256"
        },
        {
          "internalType": "bool",
          "name": "deposit_",
          "type": "bool"
        },
        {
          "internalType": "bool",
          "name": "extractFromSender",
          "type": "bool"
        }
      ],
      "name": "depositAndAddAsset",
      "outputs": [],
      "stateMutability": "payable",
      "type": "function"
    },
    {
      "inputs": [
        {
          "internalType": "contract IMarket",
          "name": "market",
          "type": "address"
        },
        {
          "internalType": "address",
          "name": "user",
          "type": "address"
        },
        {
          "internalType": "uint256",
          "name": "depositAmount",
          "type": "uint256"
        },
        {
          "internalType": "uint256",
          "name": "repayAmount",
          "type": "uint256"
        },
        {
          "internalType": "bool",
          "name": "deposit",
          "type": "bool"
        },
        {
          "internalType": "bool",
          "name": "extractFromSender",
          "type": "bool"
        }
      ],
      "name": "depositAndRepay",
      "outputs": [],
      "stateMutability": "payable",
      "type": "function"
    },
    {
      "inputs": [
        {
          "internalType": "contract IMarket",
          "name": "market",
          "type": "address"
        },
        {
          "internalType": "address",
          "name": "user",
          "type": "address"
        },
        {
          "internalType": "uint256",
          "name": "depositAmount",
          "type": "uint256"
        },
        {
          "internalType": "uint256",
          "name": "repayAmount",
          "type": "uint256"
        },
        {
          "internalType": "uint256",
          "name": "collateralAmount",
          "type": "uint256"
        },
        {
          "internalType": "bool",
          "name": "deposit",
          "type": "bool"
        },
        {
          "internalType": "bool",
          "name": "withdraw",
          "type": "bool"
        },
        {
          "internalType": "bool",
          "name": "extractFromSender",
          "type": "bool"
        }
      ],
      "name": "depositRepayAndRemoveCollateral",
      "outputs": [],
      "stateMutability": "payable",
      "type": "function"
    },
    {
      "inputs": [
        {
          "internalType": "contract ISingularity",
          "name": "singularity",
          "type": "address"
        },
        {
          "internalType": "uint256",
          "name": "fraction",
          "type": "uint256"
        }
      ],
      "name": "getAmountForAssetFraction",
      "outputs": [
        {
          "internalType": "uint256",
          "name": "amount",
          "type": "uint256"
        }
      ],
      "stateMutability": "view",
      "type": "function"
    },
    {
      "inputs": [
        {
          "internalType": "contract IMarket",
          "name": "market",
          "type": "address"
        },
        {
          "internalType": "uint256",
          "name": "borrowPart",
          "type": "uint256"
        }
      ],
      "name": "getAmountForBorrowPart",
      "outputs": [
        {
          "internalType": "uint256",
          "name": "amount",
          "type": "uint256"
        }
      ],
      "stateMutability": "view",
      "type": "function"
    },
    {
      "inputs": [
        {
          "internalType": "contract IMarket",
          "name": "market",
          "type": "address"
        },
        {
          "internalType": "uint256",
          "name": "borrowPart",
          "type": "uint256"
        },
        {
          "internalType": "uint256",
          "name": "liquidationMultiplierPrecision",
          "type": "uint256"
        },
        {
          "internalType": "uint256",
          "name": "exchangeRatePrecision",
          "type": "uint256"
        }
      ],
      "name": "getCollateralSharesForBorrowPart",
      "outputs": [
        {
          "internalType": "uint256",
          "name": "collateralShares",
          "type": "uint256"
        }
      ],
      "stateMutability": "view",
      "type": "function"
    },
    {
      "inputs": [
        {
          "internalType": "address",
          "name": "",
          "type": "address"
        },
        {
          "internalType": "address",
          "name": "",
          "type": "address"
        }
      ],
      "name": "isApprovedForAll",
      "outputs": [
        {
          "internalType": "bool",
          "name": "",
          "type": "bool"
        }
      ],
      "stateMutability": "view",
      "type": "function"
    },
    {
      "inputs": [
        {
          "internalType": "contract ISingularity",
          "name": "singularity",
          "type": "address"
        },
        {
          "internalType": "contract IMarket",
          "name": "bingBang",
          "type": "address"
        },
        {
          "internalType": "address",
          "name": "user",
          "type": "address"
        },
        {
          "internalType": "uint256",
          "name": "collateralAmount",
          "type": "uint256"
        },
        {
          "internalType": "uint256",
          "name": "borrowAmount",
          "type": "uint256"
        },
        {
          "internalType": "bool",
          "name": "deposit",
          "type": "bool"
        },
        {
          "internalType": "bool",
          "name": "extractFromSender",
          "type": "bool"
        }
      ],
      "name": "mintAndLend",
      "outputs": [],
      "stateMutability": "payable",
      "type": "function"
    },
    {
      "inputs": [],
      "name": "owner",
      "outputs": [
        {
          "internalType": "address",
          "name": "",
          "type": "address"
        }
      ],
      "stateMutability": "view",
      "type": "function"
    },
    {
      "inputs": [
        {
          "internalType": "contract ISingularity",
          "name": "singularity",
          "type": "address"
        },
        {
          "internalType": "contract IMarket",
          "name": "bingBang",
          "type": "address"
        },
        {
          "internalType": "address",
          "name": "user",
          "type": "address"
        },
        {
          "internalType": "uint256",
          "name": "removeShare",
          "type": "uint256"
        },
        {
          "internalType": "uint256",
          "name": "repayAmount",
          "type": "uint256"
        },
        {
          "internalType": "uint256",
          "name": "collateralShare",
          "type": "uint256"
        },
        {
          "internalType": "bool",
          "name": "withdraw",
          "type": "bool"
        },
        {
          "internalType": "bytes",
          "name": "withdrawData",
          "type": "bytes"
        }
      ],
      "name": "removeAssetAndRepay",
      "outputs": [],
      "stateMutability": "payable",
      "type": "function"
    },
    {
      "inputs": [],
      "name": "renounceOwnership",
      "outputs": [],
      "stateMutability": "nonpayable",
      "type": "function"
    },
    {
      "inputs": [
        {
          "internalType": "address",
          "name": "operator",
          "type": "address"
        },
        {
          "internalType": "bool",
          "name": "approved",
          "type": "bool"
        }
      ],
      "name": "setApprovalForAll",
      "outputs": [],
      "stateMutability": "nonpayable",
      "type": "function"
    },
    {
      "inputs": [
        {
          "internalType": "address",
          "name": "who",
          "type": "address"
        },
        {
          "internalType": "contract ISingularity[]",
          "name": "markets",
          "type": "address[]"
        }
      ],
      "name": "singularityMarketInfo",
      "outputs": [
        {
          "components": [
            {
              "components": [
                {
                  "internalType": "address",
                  "name": "collateral",
                  "type": "address"
                },
                {
                  "internalType": "uint256",
                  "name": "collateralId",
                  "type": "uint256"
                },
                {
                  "internalType": "address",
                  "name": "asset",
                  "type": "address"
                },
                {
                  "internalType": "uint256",
                  "name": "assetId",
                  "type": "uint256"
                },
                {
                  "internalType": "contract IOracle",
                  "name": "oracle",
                  "type": "address"
                },
                {
                  "internalType": "bytes",
                  "name": "oracleData",
                  "type": "bytes"
                },
                {
                  "internalType": "uint256",
                  "name": "totalCollateralShare",
                  "type": "uint256"
                },
                {
                  "internalType": "uint256",
                  "name": "userCollateralShare",
                  "type": "uint256"
                },
                {
                  "components": [
                    {
                      "internalType": "uint128",
                      "name": "elastic",
                      "type": "uint128"
                    },
                    {
                      "internalType": "uint128",
                      "name": "base",
                      "type": "uint128"
                    }
                  ],
                  "internalType": "struct Rebase",
                  "name": "totalBorrow",
                  "type": "tuple"
                },
                {
                  "internalType": "uint256",
                  "name": "userBorrowPart",
                  "type": "uint256"
                },
                {
                  "internalType": "uint256",
                  "name": "currentExchangeRate",
                  "type": "uint256"
                },
                {
                  "internalType": "uint256",
                  "name": "spotExchangeRate",
                  "type": "uint256"
                },
                {
                  "internalType": "uint256",
                  "name": "oracleExchangeRate",
                  "type": "uint256"
                },
                {
                  "internalType": "uint256",
                  "name": "totalBorrowCap",
                  "type": "uint256"
                }
              ],
              "internalType": "struct MagnetarV2Operations.MarketInfo",
              "name": "market",
              "type": "tuple"
            },
            {
              "components": [
                {
                  "internalType": "uint128",
                  "name": "elastic",
                  "type": "uint128"
                },
                {
                  "internalType": "uint128",
                  "name": "base",
                  "type": "uint128"
                }
              ],
              "internalType": "struct Rebase",
              "name": "totalAsset",
              "type": "tuple"
            },
            {
              "internalType": "uint256",
              "name": "userAssetFraction",
              "type": "uint256"
            },
            {
              "components": [
                {
                  "internalType": "uint64",
                  "name": "interestPerSecond",
                  "type": "uint64"
                },
                {
                  "internalType": "uint64",
                  "name": "lastAccrued",
                  "type": "uint64"
                },
                {
                  "internalType": "uint128",
                  "name": "feesEarnedFraction",
                  "type": "uint128"
                }
              ],
              "internalType": "struct ISingularity.AccrueInfo",
              "name": "accrueInfo",
              "type": "tuple"
            }
          ],
          "internalType": "struct MagnetarV2Operations.SingularityInfo[]",
          "name": "",
          "type": "tuple[]"
        }
      ],
      "stateMutability": "view",
      "type": "function"
    },
    {
      "inputs": [
        {
          "internalType": "address",
          "name": "newOwner",
          "type": "address"
        }
      ],
      "name": "transferOwnership",
      "outputs": [],
      "stateMutability": "nonpayable",
      "type": "function"
    },
    {
      "inputs": [
        {
          "internalType": "contract IYieldBoxBase",
          "name": "yieldBox",
          "type": "address"
        },
        {
          "internalType": "address",
          "name": "from",
          "type": "address"
        },
        {
          "internalType": "uint256",
          "name": "assetId",
          "type": "uint256"
        },
        {
          "internalType": "uint16",
          "name": "dstChainId",
          "type": "uint16"
        },
        {
          "internalType": "bytes32",
          "name": "receiver",
          "type": "bytes32"
        },
        {
          "internalType": "uint256",
          "name": "amount",
          "type": "uint256"
        },
        {
          "internalType": "uint256",
          "name": "share",
          "type": "uint256"
        },
        {
          "internalType": "bytes",
          "name": "adapterParams",
          "type": "bytes"
        },
        {
          "internalType": "address payable",
          "name": "refundAddress",
          "type": "address"
        },
        {
          "internalType": "uint256",
          "name": "gas",
          "type": "uint256"
        }
      ],
      "name": "withdrawTo",
      "outputs": [],
      "stateMutability": "payable",
      "type": "function"
    },
    {
      "stateMutability": "payable",
      "type": "receive"
    }
  ],
  "bytecode": "0x6080346200012b57601f6200618d38819003918201601f19168301916001600160401b0383118484101762000130578084926020946040528339810103126200012b57516001600160a01b03808216908183036200012b57620000623362000146565b6001805533906000541603620000e757156200009357620000839062000146565b604051615fff90816200018e8239f35b60405162461bcd60e51b815260206004820152602660248201527f4f776e61626c653a206e6577206f776e657220697320746865207a65726f206160448201526564647265737360d01b6064820152608490fd5b606460405162461bcd60e51b815260206004820152602060248201527f4f776e61626c653a2063616c6c6572206973206e6f7420746865206f776e65726044820152fd5b600080fd5b634e487b7160e01b600052604160045260246000fd5b600080546001600160a01b039283166001600160a01b03198216811783559216907f8be0079c531659141344cd1fd0a4f28419497f9722a3daafe3b4186f6b6457e09080a356fe6080604052600436101561001b575b361561001957600080fd5b005b60003560e01c8063013546e11461013b57806314ecf5a814610136578063411628d914610131578063443c73a71461012c578063664653ac146101275780636dd55c0b14610122578063715018a61461011d578063815c12ea146101185780638da5cb5b146101135780639cc6ef141461010e578063a22cb46514610109578063a306dfd514610104578063cc5e3163146100ff578063dedd6b80146100fa578063e4e802e8146100f5578063e9212b72146100f0578063e985e9c5146100eb5763f2fde38b0361000e57612a58565b612a00565b6127a9565b612565565b6121d6565b61217f565b6120c8565b612096565b61200f565b611fcf565b611f2e565b611ee2565b611d70565b611732565b611531565b611118565b610da2565b610234565b9181601f84011215610170578235916001600160401b038311610170576020808501948460051b01011161017057565b600080fd5b60005b8381106101885750506000910152565b8181015183820152602001610178565b906020916101b181518092818552858086019101610175565b601f01601f1916010190565b602080820190808352835180925260409283810182858560051b8401019601946000925b8584106101f2575050505050505090565b909192939495968580610223600193603f1986820301885286838d5180511515845201519181858201520190610198565b9901940194019295949391906101e1565b6020806003193601126101705760049081356001600160401b038111610170576102619036908401610140565b9260009261026e85612cb5565b94845b8181106102975761029387610287883414613c7c565b604051918291826101bd565b0390f35b6102a2818387612d2c565b606096878201906102b96102b583612d53565b1590565b610d46575b604080840135809201809a6101906102df6102d888612e37565b61ffff1690565b14610d14575b60016102f36102d888612e37565b0361033957505050508161032961032f9261032161031689610334989701612fd0565b936080810190612d5d565b929091612d53565b926140fe565b612c6f565b610271565b61ffff60028161034889612e37565b16036103735750505050508161036d61032f9261032161031689610334989701612fd0565b92614029565b9091929396959b945061012c816103898e612e37565b16036104a55750506103b36103ab6103a460808d018d612d5d565b8091612e41565b810190613950565b926103c66103c18551610d85565b615f18565b85156104525750866103ea6103e56103e583896103f296019e01612fd0565b610d85565b930151610d85565b91803b156101705760009261041a9251958680948193632479d86360e01b83528c8301611fbc565b03925af191821561044d5761033492610434575b50612c6f565b8061044161044792610f8c565b80611ed7565b3861042e565b612bca565b9961046a929395506103e59150876103e59101612fd0565b8161047787860151610d85565b94015190803b156101705761041a946000809451809781958294630c46aac760e31b84528d339085016139a9565b8b925061012d816104ba8b999496979e612e37565b160361053357506105029250906103e5916105086103e56104ec6104e46103a46080870187612d5d565b810190613b2a565b9893600180929e9499939b9260a01b0316615f18565b01612fd0565b92833b156101705761041a8b9160009751998a978896879563695ef6bf60e01b875233908701613c24565b60648161053f85612e37565b16036106595750509082918860006105836103e56103e58a6080966105026103c161057a6105726103a48c860186612d5d565b810190613a5d565b9e8f0151610d85565b926105b9895191610596888c0151610d85565b968b01519a01518751634d4d7cbd60e11b81529a8b978896879533918701613afa565b03925af1801561044d57610334936000908192610621575b5091518681019283526020830191909152906105fb9082906040015b03601f19810183528261102b565b61060361104e565b600181529085820152610616828a6138bf565b5261042e81896138bf565b6105fb92506105ed915061064a90843d8611610652575b610642818361102b565b810190613993565b9250906105d1565b503d610638565b60c8816106698599949695612e37565b160361071e575050905060806106a76103e56103e5896106996106916103a4878c018c612d5d565b8101906139cb565b986105026103c18b51610d85565b906106b488870151610d85565b906106c185880151151590565b9387015196015193823b1561017057516374d2492960e11b815233818b019081526001600160a01b03909216602083015292151560408201526060810195909552608085019290925292600091849182908490829060a00161041a565b60c98161072a89612e37565b16036107f557508392508591506103e56103e5610765926107576103ab6103a460806107959c0188612d5d565b946105026103c18751610d85565b8261077289840151610d85565b9201519160008a8551988995869485936314890dcb60e21b8552339085016139a9565b03925af1801561044d576103349360009081926107cd575b5091518681019283526020830191909152906105fb9082906040016105ed565b6105fb92506105ed91506107ed90843d861161065257610642818361102b565b9250906107ad565b60ca816108058997959697612e37565b1603610856575050505061032f9061083261082a6103a4866080610334980190612d5d565b8101906138d3565b9790969195929492916001600160a01b039081169161085083615f18565b16615430565b60cb81610867899597949699612e37565b16036109325750506108946103e56103e58461075761088c6103a46080880188612d5d565b810190613815565b6108a083830151610d85565b956108ad85840151151590565b9201519560008a6108d38751998a9687958694630cb0f5b760e31b865233908601613895565b03925af192831561044d57610334936105ed926105fb92600092610903575b505187810191825292839160200190565b610924919250883d8a1161092b575b61091c818361102b565b810190612bfa565b90386108f2565b503d610912565b60cc8161093e85612e37565b16036109a25750506109636103e56103e58461075761088c6103a46080880188612d5d565b61096f83830151610d85565b9561097c85840151151590565b9201519560008a6108d38751998a968795869463cd0211eb60e01b865233908601613895565b61012f816109b4859994969795612e37565b1603610a3057505091610a026103e5926103e5946109e36109db6103a460808b018b612d5d565b8101906135f3565b95979699939b929c919a90949e61050260018060a01b03809c16615f18565b96873b15610170576000998f9961041a95519d8e9b8c9a8b9963ace7f7bd60e01b8b52169033908a01613785565b61013081610a418997969599612e37565b1603610aba57505093610a8c6103e5956103e5610a6f610a676103a46080890189612d5d565b81019061326f565b9894979395929c9199909a61050260018060a01b03809a16615f18565b94853b15610170576000978d9761041a93519b8c998a9889976346a34c9f60e11b895216903390880161331a565b61013181610aca87969496612e37565b1603610b61575050608094610b076103e56103e58a610af9610af16103a48c8b018b612d5d565b810190613062565b976105026103c18a51610d85565b91610b1489860151610d85565b918086015194860151978601519060c0610b3360a089015161ffff1690565b970151853b15610170576000978d9361041a93519b8c998a988997630619ee6560e31b895233908901613104565b61013281610b7487959694989997612e37565b1603610bf0575050916103e5610bc29284610ba5610b9d6103a460806103e59b9a990184612d5d565b810190612f6c565b949a939d929598919b909661050260018060a01b03809b16615f18565b95863b156101705760009861041a938f92519c8d9a8b998a986323c8387760e11b8a52169433908901612fda565b60cd919550829350610c028193612e37565b1603610c6c57509161032f91610c2e610c266103a486608061033499980190612d5d565b810190612f02565b90610c6688830193610c436103c18651610d85565b610c5a610c536103e58651610d85565b9551610d85565b92840151930151151590565b92614bd1565b819350610c7a60ce92612e37565b1603610cc757509061032f610ca4610c9c6103a4856080610334970190612d5d565b810190612e83565b969095919492506001600160a01b039182169190610cc183615f18565b16614609565b5162461bcd60e51b81526020818701818152601c918101919091527b135859db995d185c958c8e881858dd1a5bdb881b9bdd081d985b1a5960221b604082015281906060010390fd5b0390fd5b610d41610d32610d2a6103a460808a018a612d5d565b810190612e5e565b906001600160a01b031661447b565b6102e5565b610d80610d566080850185612d5d565b9050610d78604051610d73816105ed8a8d83019190602083019252565b612d8f565b901515612e0b565b6102be565b6001600160a01b031690565b6001600160a01b0381160361017057565b346101705760408060031936011261017057600435610dc081610d91565b815163f9557ccb60e01b8152916001600160a01b039182168184600481845afa92831561044d576000948594610f1f575b50825163de40657760e01b81526020958682600481875afa91821561044d576004948891600094610ef0575b50865163226f120560e11b815295869182905afa801561044d57610e88968895600092610ecf575b509091610e6c91906001600160801b0390610e64908216602435612c1f565b911690612c37565b92855180978195829463442c159960e01b845260048401612c57565b0392165afa91821561044d5761029393600093610eb0575b5050519081529081906020820190565b610ec7929350803d1061092b5761091c818361102b565b903880610ea0565b610e6c9250610eea90873d891161092b5761091c818361102b565b91610e45565b610f11919450823d8411610f18575b610f09818361102b565b810190612be5565b9238610e1d565b503d610eff565b909350610f43919450823d8411610f4d575b610f3b818361102b565b810190612ba9565b9390939238610df1565b503d610f31565b3590610f5f82610d91565b565b8015150361017057565b3590610f5f82610f61565b634e487b7160e01b600052604160045260246000fd5b6001600160401b038111610f9f57604052565b610f76565b604081019081106001600160401b03821117610f9f57604052565b60a081019081106001600160401b03821117610f9f57604052565b606081019081106001600160401b03821117610f9f57604052565b60e081019081106001600160401b03821117610f9f57604052565b608081019081106001600160401b03821117610f9f57604052565b601f909101601f19168101906001600160401b03821190821017610f9f57604052565b60405190610f5f82610fa4565b60405190610f5f82610fda565b6040519061012082016001600160401b03811183821017610f9f57604052565b6040519061014082016001600160401b03811183821017610f9f57604052565b6001600160401b038111610f9f57601f01601f191660200190565b9291926110cf826110a8565b916110dd604051938461102b565b829481845281830111610170578281602093846000960137010152565b9080601f8301121561017057816020611115933591016110c3565b90565b61010036600319011261017057611130600435610d91565b61113b602435610d91565b60843561114781610f61565b60a4359061115482610f61565b61115f60c435610f61565b60e4356001600160401b0381116101705761117e9036906004016110fa565b60405163de40657760e01b81529290919060208460048181356001600160a01b03165afa93841561044d57600094611510575b506040516377607a1760e11b815260208160048181356001600160a01b03165afa90811561044d576000916114f1575b50604051630cf35bdd60e41b8152600481018290526080816024816001600160a01b038a165afa90811561044d576000916114bf575b50604051638eb22cdd60e01b8152936020858061123a6044358760048401612c57565b03816001600160a01b038b165afa94851561044d5760009561149e575b5083611389575b506112779150506001600160a01b0385166004356156b9565b1561138157305b6004356001600160a01b03163b15610170576040516374d2492960e11b815291600091839182916112bb9190604435906024359060048601613a2c565b0381836004356001600160a01b03165af1801561044d5761136e575b5060c435156113655730905b604080516314890dcb60e21b8152606435939181806113098786602435600485016139a9565b038160006004356001600160a01b03165af1801561044d57611347575b5060c43561133057005b610019936001600160a01b0316916004359161560b565b61135f9060403d60401161065257610642818361102b565b50611326565b602435906112e3565b8061044161137b92610f8c565b386112d7565b60243561127e565b801561148e575b15611483576113a4335b82604435916157c9565b60405163095ea7b360e01b8152906020908290816000816113d46044356001600160a01b038e16600484016145ee565b03926001600160a01b03165af1801561044d57611414926040928692611454575b508251634d4d7cbd60e11b815293849283923090819060048601613a9c565b038160006001600160a01b038a165af1801561044d57611436575b808061125e565b61144e9060403d60401161065257610642818361102b565b5061142f565b6114759060203d60201161147c575b61146d818361102b565b8101906145d9565b50386113f5565b503d611463565b6113a460243561139a565b611499602435615f18565b611390565b8495506114b99060203d60201161092b5761091c818361102b565b94611257565b6114e0915060803d81116114ea575b6114d8818361102b565b81019061459c565b5050905038611217565b503d6114ce565b61150a915060203d60201161092b5761091c818361102b565b386111e1565b61152a91945060203d602011610f1857610f09818361102b565b92386111b1565b3461017057608036600319011261017057600480359061155082610d91565b611558612b7c565b506040805163020a17bd60e61b8152926001600160a01b039081169082858581855afa94851561044d576000908196611710575b5061159f61159861104e565b9182612bd6565b6115ad602096878301612bd6565b835163de40657760e01b81529086828781875afa91821561044d576000926116ed575b506115de9060243590612c7e565b84516377607a1760e11b8152909287828881885afa91821561044d576000926116ce575b50855163294c4c7960e11b81529388858981895afa94851561044d5788958a92611634926000926116b6575b50612c1f565b95875198898092633ba0b9a960e01b82525afa94851561044d57611668899661167c92610e889a6000926116975750612c1f565b611676606435604435612c1f565b90612c37565b8651638eb22cdd60e01b815297889586948593918401612c57565b6116af919250893d8b1161092b5761091c818361102b565b903861162e565b6116af919250843d861161092b5761091c818361102b565b6116e6919250883d8a1161092b5761091c818361102b565b9038611602565b6115de91925061170990883d8a11610f1857610f09818361102b565b91906115d0565b905061172a919550833d8511610f4d57610f3b818361102b565b94903861158c565b60e03660031901126101705760043561174a81610d91565b611755602435610d91565b611760604435610d91565b61176b60a435610f61565b61177660c435610f61565b611781604435615f18565b6040516377607a1760e11b81526020816004816024356001600160a01b03165afa90811561044d57600091611ba2575b5060405163de40657760e01b8152906020826004816001600160a01b0387165afa91821561044d57600092611b81575b50604051630cf35bdd60e41b815260048101829052906080826024816001600160a01b0387165afa91821561044d57600092611b5d575b50604051638eb22cdd60e01b8152916020838061183b6064358660048401612c57565b03816001600160a01b0388165afa92831561044d57600093611b3c575b5060a435611a6c575b50506064356119ef575b50604080516314890dcb60e21b81526084359181806118918560443580600485016139a9565b038160006024356001600160a01b03165af1801561044d576119d1575b5060405163226f120560e11b81526020816004816001600160a01b0388165afa91821561044d57611900926020926000916119b4575b50604051638eb22cdd60e01b8152938492839260048401612c57565b03816001600160a01b0386165afa92831561044d57600093602093611960938692611991575b5061193e906001600160a01b039081169084166156b9565b604051630cb0f5b760e31b81529485938492839190604435806004850161386c565b03926001600160a01b03165af1801561044d5761197957005b6100199060203d60201161092b5761091c818361102b565b61193e9192506119ad90863d881161092b5761091c818361102b565b9190611926565b6119cb9150833d851161092b5761091c818361102b565b386118e4565b6119e99060403d60401161065257610642818361102b565b506118ae565b611a046001600160a01b0383166024356156b9565b6024356001600160a01b03163b15610170576000611a3d91604051809381926374d2492960e11b83526064356044353060048601613a2c565b0381836024356001600160a01b03165af1801561044d571561186b5780610441611a6692610f8c565b3861186b565b60c43515611b3157611a83335b82606435916157c9565b60405163095ea7b360e01b815290602090829081600081611ab36064356001600160a01b038c16600484016145ee565b03926001600160a01b03165af1801561044d57611af292604092859261145457508251634d4d7cbd60e11b815293849283923090819060048601613a9c565b038160006001600160a01b0388165af1801561044d57611b13575b80611861565b611b2b9060403d60401161065257610642818361102b565b50611b0d565b611a83604435611a79565b611b5691935060203d60201161092b5761091c818361102b565b9138611858565b611b7691925060803d81116114ea576114d8818361102b565b505090509038611818565b611b9b91925060203d602011610f1857610f09818361102b565b90386117e1565b611bbb915060203d60201161092b5761091c818361102b565b386117b1565b90604060031983011261017057600435611bda81610d91565b91602435906001600160401b03821161017057611bf991600401610140565b9091565b6001600160a01b03169052565b80516001600160801b03908116835260209182015116910152565b90611c31818351611bfd565b60208201516020820152611c4d60408301516040830190611bfd565b60608201516060820152611c6960808301516080830190611bfd565b6101c0611c8560a08401516101e08060a0860152840190610198565b9260c081015160c084015260e081015160e0840152611cad6101008083015190850190611c0a565b610120810151610140908185015281015161016090818501528101516101809081850152810151906101a09182850152015191015290565b602080820190808352835180925260409283810182858560051b8401019601946000925b858410611d1a575050505050505090565b909192939495968580600192603f198582030187528a51908683611d4684516060808652850190611c25565b93015184878060401b03918281511682860152015116910152990194019401929594939190611d09565b3461017057611d7e36611bc1565b90611d8882612b65565b91604091611d988351948561102b565b8184526020918285019060051b820191368311610170578390915b838310611ebd5750505050825190611dca826143ee565b93611dd3612b7c565b5060005b838110611deb578451806102938882611ce5565b8085611e0c6103e5611dff600495876138bf565b516001600160a01b031690565b611e1f6001600160a01b0382168b6159a1565b611e29848b6138bf565b51528151632c9f039d60e21b815293849182905afa91821561044d57611e85926000918291611e8a575b50611e7290611e6a611e6361104e565b93846143df565b8683016143df565b84611e7d838a6138bf565b510152612c6f565b611dd7565b611e729250611eaf9150883d8a11611eb6575b611ea7818361102b565b81019061445a565b9091611e53565b503d611e9d565b81908335611eca81610d91565b8152019101908390611db3565b600091031261017057565b3461017057600080600319360112611f2b57611efc612b0d565b80546001600160a01b03198116825581906001600160a01b0316600080516020615faa8339815191528280a380f35b80fd5b61010036600319011261017057600435611f4781610d91565b602435611f5381610d91565b60443591611f6083610d91565b60c435611f6c81610f61565b60e435936001600160401b0393848611610170573660238701121561017057856004013594851161017057366024868801011161017057602461001996019360a435926084359260643592613cc5565b6001600160a01b03909116815260200190565b34610170576000366003190112610170576000546040516001600160a01b039091168152602090f35b61ffff81160361017057565b3590610f5f82611ff8565b6101403660031901126101705760043561202881610d91565b60243561203481610d91565b6064359161204183611ff8565b60e435926001600160401b038411610170576120646100199436906004016110fa565b90610104359261207384610d91565b61207c85615f18565b610124359460c4359260a435926084359260443591615430565b34610170576040366003190112610170576100196004356120b681610d91565b602435906120c382610f61565b61447b565b3461017057604080600319360112610170578060049182356120e981610d91565b6120f1612b7c565b50815163020a17bd60e61b815293849182906001600160a01b03165afa91821561044d576102939261215091600090819261215f575b5083519161213483610fa4565b6001600160801b03918216835216602082015260243590612c7e565b90519081529081906020820190565b90506121789150833d8511610f4d57610f3b818361102b565b9038612127565b60c03660031901126101705761001960043561219a81610d91565b6024356121a681610d91565b608435906121b382610f61565b60a435926121c084610f61565b6121c982615f18565b6064359160443591614979565b60a03660031901126101705760048035906121f082610d91565b6024356121fc81610d91565b6044359161220b606435610f61565b6084359061221882610f61565b60018060a01b039283861691604080519763226f120560e11b895260209889818581895afa90811561044d57600091612490575b50825163de40657760e01b81528a8186818a5afa801561044d578991600091612473575b5016988351630cf35bdd60e41b81526080818c8180612296888c83019190602083019252565b03915afa90811561044d57600091612451575b508451638eb22cdd60e01b8152998c8b8d81806122c9888a8e8401612c57565b03915afa998a1561044d578d9b60009b612432575b5060643561233e575b5050505050906122fd61231898600094936156b9565b51630cb0f5b760e31b8152968795869485933090850161386c565b03925af1801561044d5761232857005b8161001992903d1061092b5761091c818361102b565b600061237f959897969c949392828f9315612424575b8214612419576123658585336157c9565b875180978196829563095ea7b360e01b84528c84016145ee565b0393165af1801561044d576123b594839289926123fc575b508251634d4d7cbd60e11b8152958692839230908190898601613a9c565b038160008c5af1801561044d57612318988a986000956122fd936123e0575b829b82959697506122e7565b6123f690853d871161065257610642818361102b565b506123d4565b612412908d803d1061147c5761146d818361102b565b5038612397565b61236585858d6157c9565b61242d8c615f18565b612354565b61244a919b508c8d3d1061092b5761091c818361102b565b99386122de565b612469915060803d81116114ea576114d8818361102b565b50509050386122a9565b61248a91508c8d3d10610f1857610f09818361102b565b38612270565b6124a791508a3d8c1161092b5761091c818361102b565b3861224c565b602080820190808352835180925260409283810182858560051b8401019601946000925b8584106124e2575050505050505090565b909192939495968580600192603f198582030187528a519060c061250e835160e0808552840190611c25565b9261251f8582015186850190611c0a565b8881015190606091828501520151868060401b03808251166080850152858201511660a084015288878060801b03910151169101529901940194019295949391906124d1565b346101705761257336611bc1565b909161257e82612b65565b9160409361258e8551948561102b565b8184526020918285019060051b820191368311610170578390915b83831061278f57505050508251916125c083614323565b936125c9612b7c565b506125d2614304565b5060005b8481106125ea5786518061029388826124ad565b6125fa6103e5611dff83856138bf565b9061260e6001600160a01b038316856159a1565b61261882896138bf565b5152875163f9557ccb60e01b815260049089818381875afa801561044d57600091829161276c575b5061265f9061265761265061104e565b9384612bd6565b888301612bd6565b8661266a848b6138bf565b51015288516370a0823160e01b815286818061268889868301611fbc565b0381875afa90811561044d5760009161274f575b50896126a8848b6138bf565b510152885192838092632c9f039d60e21b825260609586935afa92831561044d5761270e9360009283908492612713575b50906126fc612704926126f46126ed61105b565b96876143df565b8a86016143df565b8b8401612bd6565b611e7d838a6138bf565b6125d6565b6126fc9450612704925061273d9150833d8511612748575b612735818361102b565b8101906143b9565b9194909192506126d9565b503d61272b565b6127669150873d891161092b5761091c818361102b565b3861269c565b61265f925061278891508b3d8d11610f4d57610f3b818361102b565b9091612640565b8190833561279c81610d91565b81520191019083906125a9565b61010036600319011261017057600480356127c381610d91565b602435906127d082610d91565b6084359160a435916127e183610f61565b60c435946127ee86610f61565b60e435956127fb87610f61565b61280484615f18565b6040805163de40657760e01b815290976001600160a01b0385811697602094939291858488818d5afa801561044d57612850946000916129cc575b501696606435908960443591614979565b80156129c55730905b88516377607a1760e11b80825292848287818c5afa801561044d578a869161289d946000916129a8575b508d51638eb22cdd60e01b815294859283928b8401612c57565b03818a5afa91821561044d57600092612989575b50883b15610170578a5163cce19f8160e01b815291600091839182916128db91908c8b85016139a9565b0381838c5af1801561044d57612976575b506128f357005b81908389518098819382525afa801561044d5787956000928392612959575b50506129338651978896879586946311a5cc7760e31b865230918601613acb565b03925af1801561044d5761294357005b8161001992903d1061065257610642818361102b565b61296f9250803d1061092b5761091c818361102b565b3880612912565b8061044161298392610f8c565b386128ec565b6129a1919250853d871161092b5761091c818361102b565b90386128b1565b6129bf9150833d851161092b5761091c818361102b565b38612883565b8490612859565b6129e39150873d8911610f1857610f09818361102b565b3861283f565b9060018060a01b0316600052602052604060002090565b3461017057604036600319011261017057602060ff612a4c600435612a2481610d91565b60243590612a3182610d91565b6001600160a01b0316600090815260028552604090206129e9565b54166040519015158152f35b3461017057602036600319011261017057600435612a7581610d91565b612a7d612b0d565b6001600160a01b039081168015612ab957600080546001600160a01b0319811683178255909216600080516020615faa8339815191528380a380f35b60405162461bcd60e51b815260206004820152602660248201527f4f776e61626c653a206e6577206f776e657220697320746865207a65726f206160448201526564647265737360d01b6064820152608490fd5b6000546001600160a01b03163303612b2157565b606460405162461bcd60e51b815260206004820152602060248201527f4f776e61626c653a2063616c6c6572206973206e6f7420746865206f776e65726044820152fd5b6001600160401b038111610f9f5760051b60200190565b60405190612b8982610fa4565b60006020838281520152565b51906001600160801b038216820361017057565b9190826040910312610170576111156020612bc384612b95565b9301612b95565b6040513d6000823e3d90fd5b6001600160801b039091169052565b90816020910312610170575161111581610d91565b90816020910312610170575190565b634e487b7160e01b600052601160045260246000fd5b81810292918115918404141715612c3257565b612c09565b8115612c41570490565b634e487b7160e01b600052601260045260246000fd5b60409060009294936060820195825260208201520152565b6000198114612c325760010190565b60208101805190916001600160801b03918216612c9b5750505090565b6111159382612cac92511690612c1f565b91511690612c37565b90612cbf82612b65565b6040612ccd8151928361102b565b8382528193612cde601f1991612b65565b0191600091825b848110612cf3575050505050565b6020908251612d0181610fa4565b85815282606081830152828601015201612ce5565b634e487b7160e01b600052603260045260246000fd5b9190811015612d4e5760051b81013590609e1981360301821215610170570190565b612d16565b3561111581610f61565b903590601e198136030182121561017057018035906001600160401b0382116101705760200191813603831361017057565b90610f5f604e60405180947f4d61676e6574617256323a204d697373696e672063616c6c20666f722061637460208301526d0d2dedc40eed2e8d040d2dcc8caf60931b6040830152612dea8151809260208686019101610175565b810103602e81018552018361102b565b906020611115928181520190610198565b15612e135750565b60405162461bcd60e51b815260206004820152908190610d10906024830190610198565b3561111581611ff8565b909291928360041161017057831161017057600401916003190190565b91908260409103126101705760208235612e7781610d91565b92013561111581610f61565b91909161010081840312610170578035612e9c81610d91565b926020820135612eab81610d91565b926040830135926060810135926080820135612ec681610f61565b9260a0830135612ed581610f61565b9260c0810135612ee481610f61565b9260e08201356001600160401b0381116101705761111592016110fa565b908160a091031261017057608060405191612f1c83610fbf565b8035612f2781610d91565b83526020810135612f3781610d91565b6020840152604081013560408401526060810135612f5481610f61565b60608401520135612f6481610f61565b608082015290565b9060e082820312610170578135612f8281610d91565b926020830135926040810135926060820135926080830135612fa381611ff8565b9260a0810135612fb281610d91565b9260c08201356001600160401b0381116101705761111592016110fa565b3561111581610d91565b939460e09561ffff929461111599989460018060a01b0380971688526020880152604087015260608601521660808401521660a08201528160c08201520190610198565b91908260609103126101705760405161303681610fda565b604080829480358452602081013561304d81610d91565b602085015201359161305e83610f61565b0152565b9061012082820312610170576130d89060c06040519361308185610ff5565b803561308c81610d91565b8552602081013561309c81610d91565b602086015260408101356040860152606081013560608601526080810135608086015260a08101356130cd81611ff8565b60a08601520161301e565b60c082015290565b805182526020808201516001600160a01b0316908301526040908101511515910152565b929460c09461ffff93999896610f5f989361012087019b60018060a01b0380921688521660208701526040860152606085015260808401521660a082015201906130e0565b91908260409103126101705760405161316181610fa4565b60208082948035845201359161305e83610d91565b359060ff8216820361017057565b81601f820112156101705780359061319b82612b65565b926040906131ab8251958661102b565b838552602091828601918361012080970286010194818611610170578401925b8584106131dc575050505050505090565b8684830312610170578487916131f0611068565b6131f987610f6b565b8152613206838801610f54565b83820152613215868801610f54565b868201526060613226818901610f54565b908201526080808801359082015260a0808801359082015260c061324b818901613176565b9082015260e0808801359082015261010080880135908201528152019301926131cb565b91909180830390610120821261017057803561328a81610d91565b93602082013561329981610d91565b93606060408401356132aa81611ff8565b94605f190112610170576040516132c081610fda565b6060840135815260808401356132d581610d91565b602082015260a08401356132e881610d91565b6040820152926132fb8360c08301613149565b926101008201356001600160401b038111610170576111159201613184565b929094939486610120918286019560018060a01b03809216815281602096168682015261ffff604095168582015288519760609889830152828681898d0151169b60809c8d8601520151169960a09a8b84015287610140858285519560c096878901520151169460e0958682015261010097898983015251809c52019c01996000975b8a89106133b4575050505050505050505050505090565b909192939495969798999a9b9d9c8a8f6001928f8c928c9151908151151584528c8683015116868501526133ee8883015189860190611bfd565b6133fe898301518a860190611bfd565b818a0151848b015280820151908401528981015160ff168a8401528a8101518b84015201518b820152019d01990197969594939291909d9b9c9d9a99989a61339d565b91908260809103126101705760405161345981611010565b60608082948035845260208101356020850152604081013561347a81610d91565b604085015201359161305e83610d91565b919060808382031261017057604051906134a482611010565b81938035835260208101356134b881610f61565b602084015260408101356134cb81611ff8565b60408401526060810135916001600160401b038311610170576060926134f192016110fa565b910152565b81601f820112156101705780359061350d82612b65565b9260409061351d8251958661102b565b838552602091828601918361014080970286010194818611610170578401925b85841061354e575050505050505090565b868483031261017057848791613562611088565b61356b87610f6b565b8152613578838801610f54565b83820152613587868801610f6b565b868201526060613598818901610f54565b9082015260806135a9818901610f54565b9082015260a0808801359082015260c0808801359082015260e06135ce818901613176565b908201526101008088013590820152610120808801359082015281520193019261353d565b906101a0828203126101705761360882610f54565b9261361560208401610f54565b9261362260408201612004565b926001600160401b03606083013581811161017057826136439185016110fa565b936136518360808601613441565b93610100810135838111610170578461366b91830161348b565b9361367a81610120840161301e565b936101808301359081116101705761111592016134f6565b9060806060611115938051845260208101511515602085015261ffff60408201511660408501520151918160608201520190610198565b90815180825260208080930193019160005b8281106136e9575050505090565b9091929382610140600192875161370282825115159052565b6137128482015185840190611bfd565b60408181015115159083015261373060608083015190840190611bfd565b61374260808083015190840190611bfd565b60a0818101519083015260c0808201519083015260e08082015160ff169083015261010081810151908301526101209081015190820152019501939291016136db565b949160606137c76138079661ffff6137fb976111159d9b9660018060a01b0396878092168d521660208c01521660408a01526101a080848b0152890190610198565b9380516080890152602081015160a08901528260408201511660c089015201511660e0860152848203610100860152613692565b936101208301906130e0565b6101808184039101526136c9565b908160809103126101705760606040519161382f83611010565b803561383a81610d91565b8352602081013561384a81610d91565b6020840152604081013561385d81610f61565b60408401520135606082015290565b6001600160a01b0391821681529116602082015260006040820152606081019190915260800190565b6001600160a01b039182168152911660208201529015156040820152606081019190915260800190565b8051821015612d4e5760209160051b010190565b9091610120828403126101705781356138eb81610d91565b9260208301356138fa81610d91565b92604081013592606082013561390f81611ff8565b9260808301359260a08101359260c08201359260e08301356001600160401b03811161017057610100916139449185016110fa565b92013561111581610d91565b9081606091031261017057604080519161396983610fda565b803561397481610d91565b8352602081013561398481610d91565b60208401520135604082015290565b9190826040910312610170576020825192015190565b6001600160a01b03918216815291166020820152604081019190915260600190565b908160a0910312610170576080604051916139e583610fbf565b80356139f081610d91565b83526020810135613a0081610d91565b60208401526040810135613a1381610f61565b6040840152606081013560608401520135608082015290565b6001600160a01b03918216815291166020820152600060408201526060810191909152608081019190915260a00190565b908160a091031261017057608060405191613a7783610fbf565b803583526020810135613a8981610d91565b60208401526040810135613a1381610d91565b9081526001600160a01b0391821660208201529116604082015260006060820152608081019190915260a00190565b9081526001600160a01b0391821660208201529116604082015260608101919091526000608082015260a00190565b9081526001600160a01b039182166020820152911660408201526060810191909152608081019190915260a00190565b91909160a081840312610170578035613b4281610d91565b926020820135613b5181611ff8565b926040830135926060810135926001600160401b03916080810135908382116101705701906060828203126101705760405192613b8d84610fda565b8235613b9881610d91565b84526020830135613ba881610d91565b6020850152604083013590811161017057613bc392016110fa565b604082015290565b92936040916111159561ffff6101009560018060a01b038094168852166020870152838601526000606086015260a060808601528082511660a086015260208201511660c0850152015191606060e08201520190610198565b939061111595916101009461ffff60409560018060a01b03809516895216602088015284870152606086015260a060808601528082511660a086015260208201511660c0850152015191606060e08201520190610198565b15613c8357565b60405162461bcd60e51b815260206004820152601a60248201527909ac2cedccae8c2e4ac647440ecc2d8eaca40dad2e6dac2e8c6d60331b6044820152606490fd5b91979394969795929095613cd881615f18565b6040805163de40657760e01b81526001600160a01b03948516979194600494602092909190838188818e5afa801561044d578291600091613fce575b50169a169286519163226f120560e11b835283838881885afa91821561044d57848d94600094613fa9575b50828495613d6394958b8d519687948593849363442c159960e01b85528401612c57565b03915afa91821561044d5789938d8a8a8994600097613f83575b50600090613da19798519788958694859363f4d9375360e01b8552309185016139a9565b03925af190811561044d57613dd2928692613f66575b5089518093819263cd0211eb60e01b83528a308d850161386c565b03816000895af190811561044d57600091613f49575b50818110613e7d575b5050505084600014613e775730915b813b156101705760008094613e298c97519788968795869463cce19f8160e01b865285016139a9565b03925af1801561044d57613e64575b50613e45575b5050505050565b613e5a94613e549136916110c3565b30615568565b3880808080613e3e565b80610441613e7192610f8c565b38613e38565b81613e00565b613e8b8491613ea693614e05565b8c89518080958194638eb22cdd60e01b8352888d8401612c57565b03915afa92831561044d57600093613f2a575b5050893b15610170578551630208d92960e11b8152308682019081526001600160a01b038616602082015260408101929092526060820192909252600090829081906080010381838d5af1801561044d57613f17575b808080613df1565b80610441613f2492610f8c565b38613f0f565b613f41929350803d1061092b5761091c818361102b565b903880613eb9565b613f609150843d861161092b5761091c818361102b565b38613de8565b613f7c90833d851161092b5761091c818361102b565b5038613db7565b613da1975090613fa1600092873d891161092b5761091c818361102b565b975090613d7d565b83945092613fc6613d6394833d851161092b5761091c818361102b565b949350613d3f565b613fe59150853d8711610f1857610f09818361102b565b38613d14565b908092918237016000815290565b3d15614024573d9061400a826110a8565b91614018604051938461102b565b82523d6000602084013e565b606090565b826004116101705760e060031983858101030112610170576000928380936140c360405161405681610ff5565b60048301359061406582610d91565b818152602484013561407681610d91565b6020820152604484013560408201526064840135606082015261409b60848501613176565b608082015260a484013560a082015260c484013560c0909101526001600160a01b0316615f18565b6140d260405180948193613feb565b03925af1906140df613ff9565b911590816140f5575b506140f05750565b6141d4565b905015386140e8565b60c0919261410d818086612e41565b90809491810103126101705760405160c08101946001600160401b03861182871017610f9f576140c360009695879693879460405260a08083359361415185610d91565b848452602081013561416281610d91565b60208501526040810135604085015261417d60608201613176565b60608501526080818101359085015201359101526001600160a01b0316615f18565b909291926141ac816110a8565b916141ba604051938461102b565b829482845282820111610170576020610f5f930190610175565b604481511061424157600481015181019060208160248401930312610170576024810151906001600160401b03821161017057018160438201121561017057610d10918160446024614229940151910161419f565b60405162461bcd60e51b815291829160048301612dfa565b60405162461bcd60e51b815260206004820152601a60248201527926b0b3b732ba30b92b191d102932b0b9b7b7103ab735b737bbb760311b6044820152606490fd5b604051906101c082016001600160401b03811183821017610f9f57604052816101a0600091828152826020820152826040820152826060820152826080820152606060a08201528260c08201528260e08201526142de612b7c565b610100820152826101208201528261014082015282610160820152826101808201520152565b6040519061431182610fda565b60006040838281528260208201520152565b9061432d82612b65565b60409061433c8251918261102b565b838152809361434d601f1991612b65565b0191600091825b848110614362575050505050565b602090835161437081611010565b614378614283565b8152614382612b7c565b8390818301528686830152614395614304565b6060830152828501015201614354565b51906001600160401b038216820361017057565b90816060910312610170576143cd816143a5565b916111156040612bc3602085016143a5565b6001600160401b039091169052565b906143f882612b65565b6040906144078251918261102b565b8381528093614418601f1991612b65565b019160005b83811061442a5750505050565b602090825161443881610fa4565b614440614283565b815261444a612b7c565b818401528482018301520161441d565b9190826040910312610170576111156020614474846143a5565b93016143a5565b906001600160a01b038216801561455a57301461451657816144ee826144dd7f17307eab39ab6107e8899845ad3d59bd9653f200f220920489ca2b5937696c31956144d83360018060a01b03166000526002602052604060002090565b6129e9565b9060ff801983541691151516179055565b604080513381526001600160a01b0392909216602083015291151591810191909152606090a1565b606460405162461bcd60e51b815260206004820152602060248201527f5969656c64426f783a2063616e277420617070726f7665207969656c64426f786044820152fd5b60405162461bcd60e51b815260206004820152601a602482015279165a595b19109bde0e881bdc195c985d1bdc881b9bdd081cd95d60321b6044820152606490fd5b91908260809103126101705781516005811015610170579160208101516145c281610d91565b91606060408301516145d381610d91565b92015190565b90816020910312610170575161111581610f61565b6001600160a01b039091168152602081019190915260400190565b60405163de40657760e01b815296939591949093926000916020896004816001600160a01b038a165afa98891561044d578399614958575b506040516377607a1760e11b8152906020826004816001600160a01b038b165afa91821561044d578492614937575b50604051630cf35bdd60e41b815260048101839052916080836024816001600160a01b038f165afa92831561044d578593614913575b50604051638eb22cdd60e01b8152906020828d81806146c98a8760048401612c57565b03916001600160a01b03165afa93841561044d578c8b9388966148f2575b5084614806575b50614706925050506001600160a01b038b16886156b9565b156147ff5730905b6001600160a01b0387163b156147fb576040516374d2492960e11b815292849284928392614741928c9060048601613a2c565b0381836001600160a01b038a165af1801561044d5761478b9260409289926147e8575b5084156147e1573080985b84516314890dcb60e21b815295869485938493600485016139a9565b03916001600160a01b0389165af1801561044d576147c3575b506147b0575050505050565b613e5a946001600160a01b03169261560b565b6147db9060403d60401161065257610642818361102b565b506147a4565b878061476f565b806104416147f592610f8c565b38614764565b8380fd5b869061470e565b81879161482483602095889c61481e61484f9a615f18565b9c6157c9565b60405163095ea7b360e01b81529586938492600092849290916001600160a01b0316600484016145ee565b03926001600160a01b03165af191821561044d578c6040928692614894956148d3575b5060008451809681958294634d4d7cbd60e11b84523090309060048601613a9c565b03926001600160a01b03165af1801561044d576148b5575b8089918c6146ee565b6148cd9060403d60401161065257610642818361102b565b506148ac565b6148eb9060203d60201161147c5761146d818361102b565b5038614872565b85965061490d9060203d60201161092b5761091c818361102b565b956146e7565b61492c91935060803d81116114ea576114d8818361102b565b5050905091386146a6565b61495191925060203d60201161092b5761091c818361102b565b9038614670565b61497291995060203d602011610f1857610f09818361102b565b9738614641565b6040805163226f120560e11b815260209795966001600160a01b03969495878516959394600494929390918b8287818b5afa91821561044d57600092614bb2575b50865163de40657760e01b81528c8188818c5afa801561044d578b918e600092614b95575b5050169387519a630cf35bdd60e41b8c5260808c80614a05878c83019190602083019252565b0381895afa91821561044d57878f9d600094614b71575b50614a8f575b50505050506000939291614a35916156b9565b8214614a8557614a5a30935b5163cd0211eb60e01b815297889687958694850161386c565b03925af1801561044d57614a6c575050565b81614a8292903d1061092b5761091c818361102b565b50565b614a5a8593614a41565b918660008593614ad0979b9a99989f958f908587918514614b6857614ab59250336157c9565b8a8d519889968795869363095ea7b360e01b855284016145ee565b0393165af195861561044d578c8893614b0798614b4a575b50508251634d4d7cbd60e11b81529687928392309081908a8601613acb565b03816000855af190811561044d578a98600095614a3593614b2e575b829495968294614a22565b614b4490883d8a1161065257610642818361102b565b50614b23565b81614b6092903d1061147c5761146d818361102b565b508c38614ae8565b614ab5926157c9565b614b8a91945060803d81116114ea576114d8818361102b565b505090509238614a1c565b614bab9250803d10610f1857610f09818361102b565b388e6149df565b614bca9192508c8d3d1061092b5761091c818361102b565b90386149ba565b6040805163226f120560e11b815260209592946001600160a01b0394858716939092600092600492918a8185818a5afa90811561044d578591614de8575b50825163de40657760e01b81528b8186818b5afa801561044d578a918791614dcb575b501691835199630cf35bdd60e41b8b5260808b80614c57868a83019190602083019252565b0381875afa9a8b1561044d57879b614da7575b508451638eb22cdd60e01b81529a8d8c80614c8886888c8401612c57565b0381885afa9a8b1561044d578e9c899c614d88575b50614cb4575b505050506122fd90614a5a996156b9565b614cee91939b9297614cc58a615f18565b97614cd181838c6157c9565b6000875195868095819463095ea7b360e01b83528a8d84016145ee565b0393165af190811561044d57614d27998c8a928694614d6a575b50508251634d4d7cbd60e11b81529a8b928392309081908a8601613a9c565b03816000855af190811561044d57614a5a998b996122fd93614d4e575b819b839450614ca3565b614d6490853d871161065257610642818361102b565b50614d44565b81614d8092903d1061147c5761146d818361102b565b508c38614d08565b614da0919c508d803d1061092b5761091c818361102b565b9a38614c9d565b614dc0919b5060803d81116114ea576114d8818361102b565b505090509938614c6a565b614de291508d803d10610f1857610f09818361102b565b38614c32565b614dff91508b3d8d1161092b5761091c818361102b565b38614c0f565b91908203918211612c3257565b63843c6ae360e01b815260200190565b15614e2957565b60405162461bcd60e51b815260206004820152601260248201527153474c3a206e6f7420617661696c61626c6560701b6044820152606490fd5b6001600160a01b039091169052565b919094979293959761ffff85161561511b575060408051630cf35bdd60e41b81526004808201849052919891936001600160a01b0390811691608081602481865afa90811561044d576000916150f9575b5016968951936301ffc9a760e01b8552602094858180614ee48a8201614e12565b03818d5afa90816150dc575b50614f0357505050505050505050505050565b8a51627eeac760e11b815292858480614f1f85878c84016145ee565b0381845afa93841561044d57614f539487916000916150bf575b508d518096819263442c159960e01b8352868c8401612c57565b0381845afa92831561044d57614fb2948d946150a2575b5083516311a5cc7760e31b81528881019384526001600160a01b0390911660208401523060408401526000606084018190526080840181905290948593849291839160a00190565b03925af1801561044d57615086575b50341561507e57975b8751633b58a71760e21b8152828185818a5afa90811561044d57600091615061575b501561505657600090915b61500961500261105b565b9a8b614e63565b89015286880152833b1561017057615038600096519788968795869463695ef6bf60e01b865230908601613bcb565b03925af1801561044d576150495750565b80610441610f5f92610f8c565b506000606091614ff7565b6150789150833d851161147c5761146d818361102b565b38614fec565b503097614fca565b61509c90893d8b1161065257610642818361102b565b50614fc1565b6150b890883d8a1161092b5761091c818361102b565b5038614f6a565b6150d69150823d841161092b5761091c818361102b565b38614f39565b6150f290873d891161147c5761146d818361102b565b5038614ef0565b615111915060803d81116114ea576114d8818361102b565b5050905038614ec3565b604080516311a5cc7760e31b81529950975088969295879550600094506001600160a01b039386936151569392918616919060048601613a9c565b0393165af1801561044d576151685750565b61517f9060403d811161065257610642818361102b565b5050565b919497929395969061ffff8516156153f65760408051630cf35bdd60e41b81526004808201899052949193916001600160a01b039081169160808180602481015b0381865afa90811561044d576000916153d4575b5016978451936301ffc9a760e01b855260209485818c81806151fb8d8201614e12565b03915afa90816153b7575b5061521a5750505050505050505050505050565b8551627eeac760e11b81529285848061523686868d84016145ee565b0381845afa93841561044d5761526a94879160009161539a575b5088518096819263442c159960e01b8352878d8401612c57565b0381845afa91821561044d5760008f9594615292878c968c98859161537d575b501015614e22565b6152b18651978896879586946311a5cc7760e31b865230928601613acb565b03925af1801561044d57615361575b50341561535957975b8251633b58a71760e21b8152828186818b5afa90811561044d5760009161533c575b501561533157600090915b61530161500261105b565b89015281880152843b156101705760009661503891519889978896879563695ef6bf60e01b875230908701613c24565b5060006060916152f6565b6153539150833d851161147c5761146d818361102b565b386152eb565b5030976152c9565b61537790843d861161065257610642818361102b565b506152c0565b61539491508c8d3d1061092b5761091c818361102b565b3861528a565b6153b19150823d841161092b5761091c818361102b565b38615250565b6153cd90873d891161147c5761146d818361102b565b5038615206565b6153ec915060803d81116114ea576114d8818361102b565b50509050386151d8565b604080516311a5cc7760e31b81529990985089979396889650600095506001600160a01b0394879450615156939086169160048601613acb565b929498939697919561ffff861615615476575060408051630cf35bdd60e41b81526004808201899052949193916001600160a01b039081169160808180602481016151c4565b604080516311a5cc7760e31b81529a9099508a989497899750600096506001600160a01b0395889550615156949087169160048701613afa565b156154b757565b60405162461bcd60e51b815260206004820152602160248201527f4d61676e6574617256323a2077697468647261774461746120697320656d70746044820152607960f81b6064820152608490fd5b9080601f830112156101705781516111159260200161419f565b9060808282031261017057815161553681610f61565b92602083015161554581611ff8565b92604081015192606082015160018060401b038111610170576111159201615506565b909361558e60049594939461557f815115156154b0565b60208082518301019101615520565b94909250341561560257602034975b6040516377607a1760e11b8152998a9182906001600160a01b03165afa90811561044d57610f5f986000926155e2575b5087156155db573396614e72565b3096614e72565b6155fb91925060203d811161092b5761091c818361102b565b90386155cd565b6020479761559d565b909361562260049594939461557f815115156154b0565b94909250341561569657602034975b60405163226f120560e11b8152998a9182906001600160a01b03165afa90811561044d57610f5f98600092615676575b50871561566f573396615183565b3096615183565b61568f91925060203d811161092b5761091c818361102b565b9038615661565b60204797615631565b6001600160a01b0391821681529116602082015260400190565b60405163e985e9c560e01b8082526020936001600160a01b039081169316908483806156e985306004840161569f565b0381875afa801561044d5785936000916157ac575b5015615747575b9261571f936040518095819482938352306004840161569f565b03915afa801561044d57615731575050565b81614a8292903d1061147c5761146d818361102b565b9150823b156101705760405163a22cb46560e01b81526001600160a01b0382166004820152600160248201529260008460448183855af192831561044d5761571f948694615799575b50909350615705565b806104416157a692610f8c565b38615790565b6157c39150843d861161147c5761146d818361102b565b386156fe565b6158569160018060a01b03166000806040519361580d856157ff6020998a8301946323b872dd60e01b86523090602485016139a9565b03601f19810187528661102b565b6040519461581a86610fa4565b8786527f5361666545524332303a206c6f772d6c6576656c2063616c6c206661696c656488870152519082855af1615850613ff9565b916158d2565b8051908161586357505050565b82806158739383010191016145d9565b1561587b5750565b6084906040519062461bcd60e51b82526004820152602a60248201527f5361666545524332303a204552433230206f7065726174696f6e20646964206e6044820152691bdd081cdd58d8d9595960b21b6064820152fd5b9192901561593457508151156158e6575090565b3b156158ef5790565b60405162461bcd60e51b815260206004820152601d60248201527f416464726573733a2063616c6c20746f206e6f6e2d636f6e74726163740000006044820152606490fd5b8251909150156159475750805190602001fd5b60405162461bcd60e51b8152908190610d109060048301612dfa565b906020828203126101705781516001600160401b038111610170576111159201615506565b919082604091031261017057602082516145d381610f61565b906159aa614283565b506159b3612b7c565b506159bc614283565b6040805163d8dfeb4560e01b815291936004936020936001600160a01b03918216929085818881875afa801561044d576159ff91600091615efb575b5088614e63565b83516338d52e0f60e01b815285818881875afa801561044d57615a2d91600091615ede575b50858901614e63565b83516307dc0d1d60e41b808252919086818981885afa90811561044d57615a63918591600091615ec1575b501660808a01614e63565b84516374645ff360e01b80825291906000818a81895afa90811561044d57600091615ea8575b5060a08a0152855163473e3ce760e01b815287818a81895afa90811561044d57600091615e8b575b5060c08a01528551631c9e379b60e01b8152878180615ad2858d8301611fbc565b0381895afa90811561044d57600091615e6e575b5060e08a0152855163020a17bd60e61b81529086828a81895afa90811561044d57615b4d9289926000918291615e4b575b50615b2f90615b2761265061104e565b848301612bd6565b6101008c01528751809381926324720b1f60e11b83528c8301611fbc565b0381885afa90811561044d57600091615e2e575b506101208901528451633ba0b9a960e01b815286818981885afa90811561044d57600091615e11575b50610140890152845182815286818981885afa90811561044d57600091615df4575b5085518281526000818a81895afa801561044d57615bea928892600092615dd9575b508a87845180968195829463eeb8a8d360e01b84528301612dfa565b0392165afa90811561044d57600091615daa575b50610180890152845191825285828881875afa91821561044d57600092615d8b575b5084519081526000818881875afa91821561044d578692615c5e92600091615d6a575b508651948580948193630d39bbef60e41b83528c8301612dfa565b0392165afa90811561044d57600091615d4d575b5061016086015281516340626d8b60e01b815283818681855afa90811561044d57600091615d30575b506101a0860152815163226f120560e11b81529183838681855afa801561044d578493600091615d13575b506060870152516377607a1760e11b815293849182905afa91821561044d57600092615cf4575b5082015290565b81615d0c9293503d841161092b5761091c818361102b565b9038615ced565b615d2a9150843d861161092b5761091c818361102b565b38615cc6565b615d479150843d861161092b5761091c818361102b565b38615c9b565b615d649150843d861161092b5761091c818361102b565b38615c72565b615d85913d8091833e615d7d818361102b565b810190615963565b38615c43565b615da3919250863d8811610f1857610f09818361102b565b9038615c20565b615dca9150863d8811615dd2575b615dc2818361102b565b810190615988565b905038615bfe565b503d615db8565b615ded91923d8091833e615d7d818361102b565b9038615bce565b615e0b9150873d8911610f1857610f09818361102b565b38615bac565b615e289150873d891161092b5761091c818361102b565b38615b8a565b615e459150873d891161092b5761091c818361102b565b38615b61565b615b2f9250615e6791508a3d8c11610f4d57610f3b818361102b565b9091615b17565b615e859150883d8a1161092b5761091c818361102b565b38615ae6565b615ea29150883d8a1161092b5761091c818361102b565b38615ab1565b615ebb913d8091833e615d7d818361102b565b38615a89565b615ed89150893d8b11610f1857610f09818361102b565b38615a58565b615ef59150873d8911610f1857610f09818361102b565b38615a24565b615f129150873d8911610f1857610f09818361102b565b386159f8565b60018060a01b0316338114908115615f82575b5015615f3357565b60405162461bcd60e51b815260206004820152602160248201527f4d61676e6574617256323a206f70657261746f72206e6f7420617070726f76656044820152601960fa1b6064820152608490fd5b90506000526002602052600160ff615f9e3360406000206129e9565b541615151438615f2b56fe8be0079c531659141344cd1fd0a4f28419497f9722a3daafe3b4186f6b6457e0a2646970667358221220e4f8d1ba0246854a3a83f02db8574b0a28cba9ccf45fd9252a890ef176be480e64736f6c63430008120033",
  "linkReferences": {},
  "deployedLinkReferences": {}
}