{
  "_format": "hh-sol-artifact-1",
  "contractName": "MagnetarMarketModule",
  "sourceName": "contracts/Magnetar/modules/MagnetarMarketModule.sol",
  "abi": [
    {
      "anonymous": false,
      "inputs": [
        {
          "indexed": false,
          "internalType": "address",
          "name": "owner",
          "type": "address"
        },
        {
          "indexed": false,
          "internalType": "address",
          "name": "operator",
          "type": "address"
        },
        {
          "indexed": false,
          "internalType": "bool",
          "name": "approved",
          "type": "bool"
        }
      ],
      "name": "ApprovalForAll",
      "type": "event"
    },
    {
      "inputs": [
        {
          "internalType": "contract IMarket",
          "name": "market",
          "type": "address"
        },
        {
          "internalType": "address",
          "name": "user",
          "type": "address"
        },
        {
          "internalType": "uint256",
          "name": "collateralAmount",
          "type": "uint256"
        },
        {
          "internalType": "uint256",
          "name": "borrowAmount",
          "type": "uint256"
        },
        {
          "internalType": "bool",
          "name": "extractFromSender",
          "type": "bool"
        },
        {
          "internalType": "bool",
          "name": "deposit",
          "type": "bool"
        },
        {
          "internalType": "bool",
          "name": "withdraw",
          "type": "bool"
        },
        {
          "internalType": "bytes",
          "name": "withdrawData",
          "type": "bytes"
        }
      ],
      "name": "depositAddCollateralAndBorrow",
      "outputs": [],
      "stateMutability": "payable",
      "type": "function"
    },
    {
      "inputs": [
        {
          "internalType": "contract IMarket",
          "name": "singularity",
          "type": "address"
        },
        {
          "internalType": "address",
          "name": "user",
          "type": "address"
        },
        {
          "internalType": "uint256",
          "name": "amount",
          "type": "uint256"
        },
        {
          "internalType": "bool",
          "name": "deposit",
          "type": "bool"
        },
        {
          "internalType": "bool",
          "name": "extractFromSender",
          "type": "bool"
        },
        {
          "components": [
            {
              "internalType": "bool",
              "name": "lock",
              "type": "bool"
            },
            {
              "internalType": "address",
              "name": "target",
              "type": "address"
            },
            {
              "internalType": "uint128",
              "name": "lockDuration",
              "type": "uint128"
            },
            {
              "internalType": "uint128",
              "name": "amount",
              "type": "uint128"
            }
          ],
          "internalType": "struct ITapiocaOptionLiquidityProvision.IOptionsLockData",
          "name": "lockData",
          "type": "tuple"
        },
        {
          "components": [
            {
              "internalType": "bool",
              "name": "participate",
              "type": "bool"
            },
            {
              "internalType": "address",
              "name": "target",
              "type": "address"
            }
          ],
          "internalType": "struct ITapiocaOptionsBroker.IOptionsParticipateData",
          "name": "participateData",
          "type": "tuple"
        }
      ],
      "name": "depositAndAddAsset",
      "outputs": [],
      "stateMutability": "payable",
      "type": "function"
    },
    {
      "inputs": [
        {
          "internalType": "contract IMarket",
          "name": "market",
          "type": "address"
        },
        {
          "internalType": "address",
          "name": "user",
          "type": "address"
        },
        {
          "internalType": "uint256",
          "name": "depositAmount",
          "type": "uint256"
        },
        {
          "internalType": "uint256",
          "name": "repayAmount",
          "type": "uint256"
        },
        {
          "internalType": "bool",
          "name": "deposit",
          "type": "bool"
        },
        {
          "internalType": "bool",
          "name": "extractFromSender",
          "type": "bool"
        }
      ],
      "name": "depositAndRepay",
      "outputs": [],
      "stateMutability": "payable",
      "type": "function"
    },
    {
      "inputs": [
        {
          "internalType": "contract IMarket",
          "name": "market",
          "type": "address"
        },
        {
          "internalType": "address",
          "name": "user",
          "type": "address"
        },
        {
          "internalType": "uint256",
          "name": "depositAmount",
          "type": "uint256"
        },
        {
          "internalType": "uint256",
          "name": "repayAmount",
          "type": "uint256"
        },
        {
          "internalType": "uint256",
          "name": "collateralAmount",
          "type": "uint256"
        },
        {
          "internalType": "bool",
          "name": "deposit",
          "type": "bool"
        },
        {
          "internalType": "bool",
          "name": "withdraw",
          "type": "bool"
        },
        {
          "internalType": "bool",
          "name": "extractFromSender",
          "type": "bool"
        }
      ],
      "name": "depositRepayAndRemoveCollateral",
      "outputs": [],
      "stateMutability": "payable",
      "type": "function"
    },
    {
      "inputs": [
        {
          "internalType": "address",
          "name": "",
          "type": "address"
        },
        {
          "internalType": "address",
          "name": "",
          "type": "address"
        }
      ],
      "name": "isApprovedForAll",
      "outputs": [
        {
          "internalType": "bool",
          "name": "",
          "type": "bool"
        }
      ],
      "stateMutability": "view",
      "type": "function"
    },
    {
      "inputs": [
        {
          "internalType": "contract ISingularity",
          "name": "singularity",
          "type": "address"
        },
        {
          "internalType": "contract IMarket",
          "name": "bingBang",
          "type": "address"
        },
        {
          "internalType": "address",
          "name": "user",
          "type": "address"
        },
        {
          "internalType": "uint256",
          "name": "collateralAmount",
          "type": "uint256"
        },
        {
          "internalType": "uint256",
          "name": "borrowAmount",
          "type": "uint256"
        },
        {
          "internalType": "bool",
          "name": "deposit",
          "type": "bool"
        },
        {
          "internalType": "bool",
          "name": "extractFromSender",
          "type": "bool"
        }
      ],
      "name": "mintAndLend",
      "outputs": [],
      "stateMutability": "payable",
      "type": "function"
    },
    {
      "inputs": [
        {
          "internalType": "contract ISingularity",
          "name": "singularity",
          "type": "address"
        },
        {
          "internalType": "contract IMarket",
          "name": "bingBang",
          "type": "address"
        },
        {
          "internalType": "address",
          "name": "user",
          "type": "address"
        },
        {
          "internalType": "uint256",
          "name": "removeShare",
          "type": "uint256"
        },
        {
          "internalType": "uint256",
          "name": "repayAmount",
          "type": "uint256"
        },
        {
          "internalType": "uint256",
          "name": "collateralShare",
          "type": "uint256"
        },
        {
          "internalType": "bool",
          "name": "withdraw",
          "type": "bool"
        },
        {
          "internalType": "bytes",
          "name": "withdrawData",
          "type": "bytes"
        }
      ],
      "name": "removeAssetAndRepay",
      "outputs": [],
      "stateMutability": "payable",
      "type": "function"
    },
    {
      "inputs": [
        {
          "internalType": "contract IYieldBoxBase",
          "name": "yieldBox",
          "type": "address"
        },
        {
          "internalType": "address",
          "name": "from",
          "type": "address"
        },
        {
          "internalType": "uint256",
          "name": "assetId",
          "type": "uint256"
        },
        {
          "internalType": "uint16",
          "name": "dstChainId",
          "type": "uint16"
        },
        {
          "internalType": "bytes32",
          "name": "receiver",
          "type": "bytes32"
        },
        {
          "internalType": "uint256",
          "name": "amount",
          "type": "uint256"
        },
        {
          "internalType": "uint256",
          "name": "share",
          "type": "uint256"
        },
        {
          "internalType": "bytes",
          "name": "adapterParams",
          "type": "bytes"
        },
        {
          "internalType": "address payable",
          "name": "refundAddress",
          "type": "address"
        },
        {
          "internalType": "uint256",
          "name": "gas",
          "type": "uint256"
        }
      ],
      "name": "withdrawTo",
      "outputs": [],
      "stateMutability": "payable",
      "type": "function"
    },
    {
      "stateMutability": "payable",
      "type": "receive"
    }
  ],
  "bytecode": "0x6080806040523461001657612f38908161001c8239f35b600080fdfe608080604052600436101561001d575b50361561001b57600080fd5b005b600090813560e01c9081633f16547e1461167357508063411628d914611056578063664653ac14610b15578063815c12ea146104c95780639cc6ef141461043c578063cc5e3163146103fa578063e9212b72146100d45763e985e9c50361000f57346100d15760403660031901126100d157610097611eee565b60406100a1611f04565b926001600160a01b03809316815280602052209116600052602052602060ff604060002054166040519015158152f35b80fd5b506101003660031901126100d1576100ea611eee565b6100f2611f04565b90608435906100ff611f3f565b610107611f4e565b9060e435801515810361030e5786926001600160a01b0392838616926040519163de40657760e01b83526020958684600481895afa80156103ef5761015e9489916103c2575b501697606435908b6044359161210a565b85610167578380f35b80156103bb5730905b6040516377607a1760e11b808252928582600481885afa91821561037e578792610389575b5060405191638eb22cdd60e01b8352600483015288602483015286604483015285826064818b5afa91821561037e57879261034c575b50843b156103485760405163cce19f8160e01b81526001600160a01b038b811660048301529190911660248201526044810191909152858160648183885af190811561033d578691610325575b5050610222578380f35b829060046040518094819382525afa91821561031a5783926102dc575b5050604080516311a5cc7760e31b815260048101929092523060248301526001600160a01b03909516604482015260648101939093526000608484015291929183919082908160a481015b03925af180156102d1576102a3575b8080838180808380f35b6102c49060403d6040116102ca575b6102bc8183611f87565b810190612093565b50610299565b503d6102b2565b6040513d84823e3d90fd5b81959493508092503d8311610313575b6102f68183611f87565b8101031261030e57915190919084908161028a61023f565b600080fd5b503d6102ec565b6040513d85823e3d90fd5b61032e90611f5d565b610339578438610218565b8480fd5b6040513d88823e3d90fd5b8680fd5b965090508486813d8111610377575b6103658183611f87565b8101031261030e5789955190386101cb565b503d61035b565b6040513d89823e3d90fd5b965090508486813d81116103b4575b6103a28183611f87565b8101031261030e578995519038610195565b503d610398565b8690610170565b6103e29150883d8a116103e8575b6103da8183611f87565b81019061201a565b3861014d565b503d6103d0565b6040513d8a823e3d90fd5b5060c03660031901126100d157610439610412611eee565b61041a611f04565b610422611f30565b9061042b611f3f565b92606435916044359161210a565b80f35b506101403660031901126100d1576004356001600160a01b0380821682036104c557610466611f04565b9060643561ffff811681036103395760e43567ffffffffffffffff81116104c157610495903690600401611ffc565b906101043592831683036104c15761043994610124359460c4359260a435926084359260443591612c94565b8580fd5b8280fd5b506101003660031901126100d1576104df611eee565b6104e7611f04565b906104f0611f1a565b906104f9611f4e565b9167ffffffffffffffff60e435116103395736602360e4350112156103395767ffffffffffffffff60e43560040135116103395736602460e4356004013560e4350101116103395760405163de40657760e01b8152926020846004816001600160a01b0387165afa93841561033d578694610af4575b5060405163226f120560e11b81526020816004816001600160a01b038a165afa90811561037e578791610ac2575b5060405163442c159960e01b815281600482015260643560248201528760448201526020816064816001600160a01b038a165afa9081156103ef578891610a90575b5060405163f4d9375360e01b81526001600160a01b03858116600483015230602483015260648035604484015260209183919082908d908b165af18015610a5a57610a65575b506106426001600160a01b0387166001600160a01b038916612d86565b60405163cd0211eb60e01b81523060048201526001600160a01b0385811660248301526000604483015260848035606484015260209183919082908d908d165af1908115610a5a578991610a28575b5081811061091f575b5050508560a43592836106bf575b50610439866001600160a01b038088169116612e45565b82156109195730905b6001600160a01b0388163b156104c55760405163cce19f8160e01b81526001600160a01b0391821660048201529116602482015260448101849052818180606481010381836001600160a01b038c165af180156102d157610905575b5050610733575b8085816106a8565b6107493660e43560040135602460e43501611fc5565b908151156108b65781518201906080836020840193031261030e5761077060208401612086565b92604081015161ffff8116810361030e5760608201519160808101519067ffffffffffffffff821161030e57019484603f8701121561030e576020860151956107b887611fa9565b956107c66040519788611f87565b8787526040888301011161030e576001600160a01b03966107ee916040602089019101612661565b34156108ad57602034975b6004604051809981936377607a1760e11b8352165afa9586156108a15760009661086b575b5093610855936001600160a01b0397938897936104399b9a9760009060001461086457505b851561085d5733945b308a8a166129cb565b92935061072b565b309461084c565b9050610843565b90956020823d602011610899575b8161088660209383611f87565b810103126100d15750519461085561081e565b3d9150610879565b6040513d6000823e3d90fd5b602047976107f9565b60405162461bcd60e51b815260206004820152602160248201527f4d61676e6574617256323a2077697468647261774461746120697320656d70746044820152607960f81b6064820152608490fd5b61090e90611f5d565b6104c1578538610724565b806106c8565b8103908111610a145790879160405190638eb22cdd60e01b825282600483015260248201528260448201526020816064816001600160a01b038b165afa90811561031a5783916109df575b506001600160a01b0387163b156104c55760405191630208d92960e11b83523060048401526001600160a01b0386166024840152604483015260648201528181608481836001600160a01b038b165af180156102d1576109cb575b8061069a565b6109d490611f5d565b6104c15785386109c5565b9250506020823d602011610a0c575b816109fb60209383611f87565b8101031261030e578791513861096a565b3d91506109ee565b634e487b7160e01b88526011600452602488fd5b90506020813d602011610a52575b81610a4360209383611f87565b8101031261030e575138610691565b3d9150610a36565b6040513d8b823e3d90fd5b602090813d8311610a89575b610a7b8183611f87565b8101031261030e5738610625565b503d610a71565b90506020813d602011610aba575b81610aab60209383611f87565b8101031261030e5751386105df565b3d9150610a9e565b90506020813d602011610aec575b81610add60209383611f87565b8101031261030e57513861059d565b3d9150610ad0565b610b0e91945060203d6020116103e8576103da8183611f87565b923861056f565b5060e03660031901126100d157610b2a611eee565b610b32611f04565b610b3a611f1a565b91610b43611f3f565b90610b4c611f4e565b93604051936377607a1760e11b8552866001600160a01b038092169460209485886004818a5afa97881561031a578398611023575b5060405163de40657760e01b81529084169886826004818d5afa918215610f3f578492611004575b50604051630cf35bdd60e41b8152600481018a9052918516986080836024818d5afa8015610f89578a938691610fd2575b5060405190638eb22cdd60e01b978883528360048401528a836064818135998a60248301528c60448301525afa9687156103ef578b938998610f9b575b5090869291610e68575b505092505050610df0575b50505060843580610c43575b876104398787612e45565b604080516314890dcb60e21b81526001600160a01b0385166004820181905260248201526044810183905290816064818c8a5af18015610a5a57610dd2575b5060405163226f120560e11b815284816004818b5afa908115610a5a578991610da5575b50604051928352600483015260248201528660448201528281606481885afa801561037e5783918891610d74575b50610d2292610ce38789612d86565b604051630cb0f5b760e31b81526001600160a01b0390911660048201819052602482015260006044820152606481019190915291829081906084820190565b038189895af1801561033d57610d4b575b5050610d428261043994612e45565b38808080610c38565b813d8311610d6d575b610d5e8183611f87565b8101031261030e573880610d33565b503d610d54565b82819392503d8311610d9e575b610d8b8183611f87565b8101031261030e57518290610d22610cd4565b503d610d81565b90508481813d8311610dcb575b610dbc8183611f87565b8101031261030e575138610ca6565b503d610db2565b610dea9060403d6040116102ca576102bc8183611f87565b50610c82565b610dfa8888612d86565b863b156104c5576040516374d2492960e11b81523060048201526001600160a01b03861660248201526000604482015260648101919091526084810191909152818160a481838a5af180156102d157610e54575b80610c2c565b610e5d90611f5d565b610348578638610e4e565b82610e8591610eb997600014610f945733935b169230908461246b565b8c8860405180978195829463095ea7b360e01b845260048401602090939291936001600160a01b0360408201951681520152565b03925af1918215610f89578492610f4a575b5060408051634d4d7cbd60e11b815260048101929092523060248301819052604483015260006064830152608482019290925290818060a481015b0381878d5af18015610f3f57610f21575b8087838280610c21565b610f399060403d6040116102ca576102bc8183611f87565b50610f17565b6040513d86823e3d90fd5b91508782813d8311610f82575b610f618183611f87565b810103126103395783604091610f79610f0694612086565b50915091610ecb565b503d610f57565b6040513d87823e3d90fd5b8c93610e7b565b92985096509181813d8311610fcb575b610fb58183611f87565b8101031261030e57518d9690958a929086610c17565b503d610fab565b610ff3915060803d8111610ffd575b610feb8183611f87565b81019061204d565b5050905038610bda565b503d610fe1565b61101c919250873d89116103e8576103da8183611f87565b9038610ba9565b86809299508194503d831161104f575b61103d8183611f87565b8101031261030e578891519638610b81565b503d611033565b506101003660031901126100d15761106c611eee565b611074611f04565b61107c611f30565b611084611f3f565b9161108d611f4e565b8560e43567ffffffffffffffff811161166f576110ae903690600401611ffc565b936040519563de40657760e01b87526020876004816001600160a01b038c165afa96871561031a57839761164e575b506040516377607a1760e11b81526020816004816001600160a01b038d165afa908115610f3f578491611619575b50604051630cf35bdd60e41b815260048101829052926080846024816001600160a01b038d165afa908115610f89576001600160a01b039486926115f5575b5060208a606460405180988193638eb22cdd60e01b835288600484015260443560248401528b6044840152165afa94851561033d5786956115b8575b509085929184611464575b505050506044356113b2575b50505060643590816111c1575b86610439876001600160a01b038089169116612e45565b80156113a8578160403080955b82516314890dcb60e21b81526001600160a01b03918216600482015291166024820152604481019290925281806064810103818b6001600160a01b038c165af180156103ef5761138a575b50611225575b806111aa565b8251156108b65782518301906080846020840193031261030e5761124b60208501612086565b93604081015161ffff8116810361030e5760608201519160808101519067ffffffffffffffff821161030e57019084603f8301121561030e5760208201519161129383611fa9565b956112a16040519788611f87565b8387526040848301011161030e576001600160a01b03926112c9916040602089019101612661565b34156113835734965b60208a60046040518096819363226f120560e11b8352165afa9283156108a157600093611348575b50936001600160a01b0397938897936104399b9a9793611332976000906000146113405750905b86156113395733955b8a8a166126a9565b929361121f565b309561132a565b905090611321565b90926020823d60201161137b575b8161136360209383611f87565b810103126100d1575051916001600160a01b036112fa565b3d9150611356565b47966112d2565b6113a29060403d6040116102ca576102bc8183611f87565b50611219565b81604084806111ce565b6113ce6001600160a01b0388166001600160a01b038a16612d86565b1561145e57305b6001600160a01b0388163b156104c5576040516374d2492960e11b81526001600160a01b03918216600482015290851660248201526000604480830191909152356064820152608481019190915281818060a481010381836001600160a01b038c165af180156102d15761144a575b8061119d565b61145390611f5d565b6104c1578538611444565b836113d5565b602091816114c692156115aa575b15611598576114936001600160a01b0333925b16916044359030908461246b565b60405163095ea7b360e01b81526001600160a01b038d166004820152604480356024830152909586938492839190820190565b03925af1918215610f89578492611554575b5060408051634d4d7cbd60e11b815260048101929092523060248301819052604483015260006064830152608482019290925290818060a481015b0381876001600160a01b038d165af18015610f3f57611536575b80808592611191565b61154e9060403d6040116102ca576102bc8183611f87565b5061152d565b91506020823d602011611590575b8161156f60209383611f87565b81010312610339578360409161158761151394612086565b509150916114d8565b3d9150611562565b6114936001600160a01b038b92611485565b6115b38b6120a9565b611472565b929195509293506020823d6020116115ed575b816115d860209383611f87565b8101031261030e5790518a9490939285611186565b3d91506115cb565b61160e91925060803d8111610ffd57610feb8183611f87565b50509050903861114a565b9350506020833d602011611646575b8161163560209383611f87565b8101031261030e578892513861110b565b3d9150611628565b61166891975060203d6020116103e8576103da8183611f87565b95386110dd565b5080fd5b905061016036600319011261166f5761168a611eee565b90611693611f04565b604435926064359283151584036104c1576116ac611f30565b9260803660a3190112610348576040366101231901126103485763226f120560e11b82526001600160a01b039283169560209081846004818b5afa938415610a5a578994611ebf575b5060405163de40657760e01b815282816004818c5afa8015611a375786918b91611ea2575b50604051630cf35bdd60e41b8152600481018790529116976024976080838a818d5afa918c8315611e96578a898d8389988b9598611e6b575b5090606492916040519a8b958694638eb22cdd60e01b8652600486015284015260448301525afa948515611e60578d95611e2d575b50611cfb575b5050506117df935081906117a2888a612d86565b604051630cb0f5b760e31b81523060048201526001600160a01b038516602482015260006044820152606481019190915293849081906084820190565b03818b8b5af19283156103ef578893611ccc575b50879260a435908115158203611a42578691611a89575b505061181461242e565b611824575b876104398789612e45565b8215611a46578361183361243e565b169261183d612454565b93803b15611a425760405163095ea7b360e01b8082526001600160a01b0396909616600482015260248101839052908a908290604490829084905af18015611a3757611a19575b50918189969593928795938786611899612454565b1691604051988993849263422e498360e11b845260048401525af194851561037e5787956119e7575b50600481856118cf612454565b1660405192838092635ad7038760e01b82525afa9081156103ef57859289926119af575b50501691823b156103485760405190815230600482015260248101859052868160448183875af190811561037e57879161199b575b5050813b156104c1578560c49281956040519788968795635c46a7ef60e11b875230600488015216908501526044840152608060648401526002608484015261060f60f31b60a48401525af180156102d157611987575b808080611819565b61199090611f5d565b6104c557823861197f565b6119a490611f5d565b6104c1578538611928565b8193508092503d83116119e0575b6119c78183611f87565b81010312610348576119d98491612039565b38806118f3565b503d6119bd565b809750818096503d8311611a12575b611a008183611f87565b8101031261030e5788955193386118c2565b503d6119f6565b98611a2b839a97969492959397611f5d565b98919390929495611884565b6040513d8c823e3d90fd5b8980fd5b6064906017866040519262461bcd60e51b845260048401528201527f4d61676e657461723a20744f4c50546f6b656e496420300000000000000000006044820152fd5b90919350606085611a9861243e565b1660405193848092633873b0cd60e01b82528c60048301525afa918215610a5a578992611c95575b50611acd8130858b61246b565b60405163095ea7b360e01b81526001600160a01b03881660048201526024810182905284816044818d8d5af18015611a3757611c58575b5060408051634d4d7cbd60e11b8152600481019390935230602484018190526044840152606483019190915260006084830152818060a481015b03818b8a5af180156103ef57611c3a575b50611b6185611b5c61243e565b612d86565b611b6961242e565b15611c335786305b84611b7a61243e565b169060e4356fffffffffffffffffffffffffffffffff918282168092036103395761010435928316809303610339578a948794899460849460405198899788966362e8f3db60e11b88521660048701528d860152604485015260648401525af19081156103ef578891611c02575b5091611bfb86611bf661243e565b612e45565b843861180a565b90508281813d8311611c2c575b611c198183611f87565b81010312611c28575138611be8565b8780fd5b503d611c0f565b8681611b71565b611c529060403d6040116102ca576102bc8183611f87565b50611b4f565b908482813d8311611c8e575b611c6e8183611f87565b81010312611a4257611b3e92611c85604093612086565b50925090611b04565b503d611c64565b9091506060813d8211611cc4575b81611cb060609383611f87565b81010312611cc057519038611ac0565b8880fd5b3d9150611ca3565b9080935081813d8311611cf4575b611ce48183611f87565b81010312611c28575191386117f3565b503d611cda565b91849183611d509415611e1f575b15611e13578816611d1c8230338461246b565b8a8d60405180968195829463095ea7b360e01b845260048401602090939291936001600160a01b0360408201951681520152565b03925af18015611a3757611dd5575b5060408051634d4d7cbd60e11b81526004810195909552306024860181905260448601526000606486015260848501829052848060a481015b03818c8b5af1908115610a5a576117df948392611db7575b819261178e565b611dcf9060403d6040116102ca576102bc8183611f87565b50611db0565b938285813d8311611e0c575b611deb8183611f87565b81010312611a425781604091611e03611d9897612086565b50955050611d5f565b503d611de1565b611d1c828a8993610e7b565b611e28886120a9565b611d09565b9094508581813d8311611e59575b611e458183611f87565b81010312611e5557519338611788565b8c80fd5b503d611e3b565b6040513d8f823e3d90fd5b60649392919850611e899060803d8111610ffd57610feb8183611f87565b5050905097909192611753565b604051903d90823e3d90fd5b611eb99150843d86116103e8576103da8183611f87565b3861171a565b9093508181813d8311611ee7575b611ed78183611f87565b81010312611cc0575192386116f5565b503d611ecd565b600435906001600160a01b038216820361030e57565b602435906001600160a01b038216820361030e57565b604435906001600160a01b038216820361030e57565b60843590811515820361030e57565b60a43590811515820361030e57565b60c43590811515820361030e57565b67ffffffffffffffff8111611f7157604052565b634e487b7160e01b600052604160045260246000fd5b90601f8019910116810190811067ffffffffffffffff821117611f7157604052565b67ffffffffffffffff8111611f7157601f01601f191660200190565b929192611fd182611fa9565b91611fdf6040519384611f87565b82948184528183011161030e578281602093846000960137010152565b9080601f8301121561030e5781602061201793359101611fc5565b90565b9081602091031261030e57516001600160a01b038116810361030e5790565b51906001600160a01b038216820361030e57565b919082608091031261030e578151600581101561030e579161207160208201612039565b91606061208060408401612039565b92015190565b5190811515820361030e57565b919082604091031261030e576020825192015190565b6001600160a01b03339116036120bb57565b60405162461bcd60e51b815260206004820152602160248201527f4d61676e6574617256323a206f70657261746f72206e6f7420617070726f76656044820152601960fa1b6064820152608490fd5b6040805163226f120560e11b81526001600160a01b039283169796602096949592949093909260049291888385818e5afa928315612396576000936123ff575b50865163de40657760e01b8152898186818f5afa9081156123f4579082916000916123d7575b508851630cf35bdd60e41b815286810186905291169a906080816024818f5afa9081156123cc5790888c93926000926123a8575b5061227d575b505050505050816121c0575b5050505050505050565b85926121cc888a612d86565b156122735761221430925b8551968794859463cd0211eb60e01b865285016060919493929460808201956001600160a01b038092168352166020820152600060408201520152565b03816000895af19081156122695750612240575b505061223391612e45565b38808080808080806121b6565b813d8311612262575b6122538183611f87565b8101031261030e573880612228565b503d612249565b513d6000823e3d90fd5b61221485926121d7565b61229a856122cd9581946000146123a1573393169230908461246b565b8c60008b5180968195829463095ea7b360e01b84528c8401602090939291936001600160a01b0360408201951681520152565b03925af18015612396579087929161235b575b508151634d4d7cbd60e11b815284810193845230602085018190526040850152606084019190915260006080840152918290819060a0015b038160008c5af1801561235057612334575b80808881806121aa565b61234a90853d87116102ca576102bc8183611f87565b5061232a565b85513d6000823e3d90fd5b91508882813d831161238f575b6123728183611f87565b8101031261030e57612318926123888893612086565b50926122e0565b503d612368565b87513d6000823e3d90fd5b8d93610e7b565b6123c191925060803d8111610ffd57610feb8183611f87565b5050905090386121a4565b89513d6000823e3d90fd5b6123ee91508b3d8d116103e8576103da8183611f87565b38612170565b88513d6000823e3d90fd5b90928982813d8311612427575b6124168183611f87565b810103126100d1575051913861214a565b503d61240c565b61012435801515810361030e5790565b60c4356001600160a01b038116810361030e5790565b610144356001600160a01b038116810361030e5790565b604080516323b872dd60e01b60208083019182526001600160a01b039586166024840152958516604483015260648083019790975295815293949093909290916124b6608484611f87565b168351908482019282841067ffffffffffffffff851117611f71576125369386528683527f5361666545524332303a206c6f772d6c6576656c2063616c6c206661696c656487840152600080958192519082855af13d156125c0573d9161251c83611fa9565b9261252988519485611f87565b83523d868985013e6125c4565b90815180612546575b5050505050565b828591810103126100d157508261255d9101612086565b1561256a5780808061253f565b60849250519062461bcd60e51b82526004820152602a60248201527f5361666545524332303a204552433230206f7065726174696f6e20646964206e6044820152691bdd081cdd58d8d9595960b21b6064820152fd5b6060915b9192901561262657508151156125d8575090565b3b156125e15790565b60405162461bcd60e51b815260206004820152601d60248201527f416464726573733a2063616c6c20746f206e6f6e2d636f6e74726163740000006044820152606490fd5b8251909150156126395750805190602001fd5b60405162461bcd60e51b81526020600482015290819061265d906024830190612684565b0390fd5b60005b8381106126745750506000910152565b8181015183820152602001612664565b9060209161269d81518092818552858086019101612661565b601f01601f1916010190565b959261ffff9098929194959816928315612957576001600160a01b0380971691604098895193630cf35bdd60e41b85526004948386820152608081602481855afa90811561294c57908b9160009161292a575b508c516301ffc9a760e01b815263843c6ae360e01b88820152911698602094909185816024818e5afa90816128f6575b50612741575050505050505050505050505050565b8c516311a5cc7760e31b81528088019182526001600160a01b039092166020820152306040820152606081018e905260006080820181905291928d928492839190829060a00103925af180156128c7576128da575b5034156128d257915b8951633b58a71760e21b8152828186818b5afa9081156128c757600091612892575b501561288957905b8951926060840184811067ffffffffffffffff82111761287457908a918c5216835282019760008952898301918252863b1561030e5760009881612856948c519d8e9b8c9a8b9963695ef6bf60e01b8b5230908b015260248a01526044890152606488015260a06084880152511660a4860152511660c484015251606060e4840152610104830190612684565b03925af190811561226957506128695750565b61287290611f5d565b565b604186634e487b7160e01b6000525260246000fd5b506060906127c9565b908382813d83116128c0575b6128a88183611f87565b810103126100d157506128ba90612086565b386127c1565b503d61289e565b8b513d6000823e3d90fd5b50309161279f565b6128f0908b3d8d116102ca576102bc8183611f87565b50612796565b8681813d8311612923575b61290b8183611f87565b8101031261030e5761291c90612086565b503861272c565b503d612901565b612942915060803d8111610ffd57610feb8183611f87565b50509050386126fc565b8c513d6000823e3d90fd5b50929460408097506000935060a49592505197889687956311a5cc7760e31b875260048701526001600160a01b03938480921660248801521660448601526064850152826084850152165af180156108a1576129b05750565b6129c79060403d81116102ca576102bc8183611f87565b5050565b95979193949261ffff16928315612c3b57506001600160a01b0380961690604097885192630cf35bdd60e41b84526004938785820152608081602481855afa9081156128c757908a91600091612c19575b508b516301ffc9a760e01b815263843c6ae360e01b87820152911697602094909185816024818d5afa9081612be5575b50612a605750505050505050505050505050565b60a48c9260008d95855196879586946311a5cc7760e31b86528c8601521660248401523060448401528160648401528160848401525af18015612bb657612bc9575b503415612bc157985b8851633b58a71760e21b8152828185818a5afa908115612bb657600091612b81575b5015612b7857905b88519960608b018b811067ffffffffffffffff821117612b63579089918b52168a5289019060008252888a01908152853b1561030e5787612856926000998b519c8d9a8b998a9863695ef6bf60e01b8a5230908a0152602489015260448801528b606488015260a06084880152511660a4860152511660c484015251606060e4840152610104830190612684565b604185634e487b7160e01b6000525260246000fd5b50606090612ad5565b908382813d8311612baf575b612b978183611f87565b810103126100d15750612ba990612086565b38612acd565b503d612b8d565b8a513d6000823e3d90fd5b503098612aab565b612bdf908a3d8c116102ca576102bc8183611f87565b50612aa2565b8681813d8311612c12575b612bfa8183611f87565b8101031261030e57612c0b90612086565b5038612a4c565b503d612bf0565b612c31915060803d8111610ffd57610feb8183611f87565b5050905038612a1c565b97509460408097506000935060a49592505197889687956311a5cc7760e31b875260048701526001600160a01b03938480921660248801521660448601528360648601526084850152165af180156108a1576129b05750565b969094989261ffff9096949616938415612d2b57506001600160a01b0380971691604098895193630cf35bdd60e41b85526004948386820152608081602481855afa90811561294c57908b9160009161292a57508c516301ffc9a760e01b815263843c6ae360e01b88820152911698602094909185816024818e5afa90816128f65750612741575050505050505050505050505050565b905060408098506000945060a4969350969194965198899788966311a5cc7760e31b885260048801526001600160a01b039485809216602489015216604487015260648601526084850152165af180156108a1576129b05750565b60405163e985e9c560e01b81523060048201526001600160a01b0382811660248301529283169290602081604481875afa9081156108a157600091612e0c575b5015612dd157505050565b823b1561030e57604460009283604051958694859363a22cb46560e01b8552166004840152600160248401525af180156108a1576128695750565b906020823d8211612e3d575b81612e2560209383611f87565b810103126100d15750612e3790612086565b38612dc6565b3d9150612e18565b60405163e985e9c560e01b81523060048201526001600160a01b0382811660248301529283169290602081604481875afa9081156108a157600091612ec9575b50612e8f57505050565b823b1561030e57604460009283604051958694859363a22cb46560e01b85521660048401528160248401525af180156108a1576128695750565b906020823d8211612efa575b81612ee260209383611f87565b810103126100d15750612ef490612086565b38612e85565b3d9150612ed556fea264697066735822122061801c8bdfbd3b768534c4bf6dc35cc610a3afd371f3329ddafddd7c0067941664736f6c63430008120033",
  "linkReferences": {},
  "deployedLinkReferences": {}
}