{
  "_format": "hh-sol-artifact-1",
  "contractName": "MagnetarMarketModule",
  "sourceName": "contracts/Magnetar/modules/MagnetarMarketModule.sol",
  "abi": [
    {
      "anonymous": false,
      "inputs": [
        {
          "indexed": false,
          "internalType": "address",
          "name": "owner",
          "type": "address"
        },
        {
          "indexed": false,
          "internalType": "address",
          "name": "operator",
          "type": "address"
        },
        {
          "indexed": false,
          "internalType": "bool",
          "name": "approved",
          "type": "bool"
        }
      ],
      "name": "ApprovalForAll",
      "type": "event"
    },
    {
      "inputs": [
        {
          "internalType": "contract IMarket",
          "name": "market",
          "type": "address"
        },
        {
          "internalType": "address",
          "name": "user",
          "type": "address"
        },
        {
          "internalType": "uint256",
          "name": "collateralAmount",
          "type": "uint256"
        },
        {
          "internalType": "uint256",
          "name": "borrowAmount",
          "type": "uint256"
        },
        {
          "internalType": "bool",
          "name": "extractFromSender",
          "type": "bool"
        },
        {
          "internalType": "bool",
          "name": "deposit",
          "type": "bool"
        },
        {
          "internalType": "bool",
          "name": "withdraw",
          "type": "bool"
        },
        {
          "internalType": "bytes",
          "name": "withdrawData",
          "type": "bytes"
        }
      ],
      "name": "depositAddCollateralAndBorrow",
      "outputs": [],
      "stateMutability": "payable",
      "type": "function"
    },
    {
      "inputs": [
        {
          "internalType": "contract IMarket",
          "name": "singularity",
          "type": "address"
        },
        {
          "internalType": "address",
          "name": "user",
          "type": "address"
        },
        {
          "internalType": "uint256",
          "name": "amount",
          "type": "uint256"
        },
        {
          "internalType": "bool",
          "name": "deposit_",
          "type": "bool"
        },
        {
          "internalType": "bool",
          "name": "extractFromSender",
          "type": "bool"
        }
      ],
      "name": "depositAndAddAsset",
      "outputs": [],
      "stateMutability": "payable",
      "type": "function"
    },
    {
      "inputs": [
        {
          "internalType": "contract IMarket",
          "name": "market",
          "type": "address"
        },
        {
          "internalType": "address",
          "name": "user",
          "type": "address"
        },
        {
          "internalType": "uint256",
          "name": "depositAmount",
          "type": "uint256"
        },
        {
          "internalType": "uint256",
          "name": "repayAmount",
          "type": "uint256"
        },
        {
          "internalType": "bool",
          "name": "deposit",
          "type": "bool"
        },
        {
          "internalType": "bool",
          "name": "extractFromSender",
          "type": "bool"
        }
      ],
      "name": "depositAndRepay",
      "outputs": [],
      "stateMutability": "payable",
      "type": "function"
    },
    {
      "inputs": [
        {
          "internalType": "contract IMarket",
          "name": "market",
          "type": "address"
        },
        {
          "internalType": "address",
          "name": "user",
          "type": "address"
        },
        {
          "internalType": "uint256",
          "name": "depositAmount",
          "type": "uint256"
        },
        {
          "internalType": "uint256",
          "name": "repayAmount",
          "type": "uint256"
        },
        {
          "internalType": "uint256",
          "name": "collateralAmount",
          "type": "uint256"
        },
        {
          "internalType": "bool",
          "name": "deposit",
          "type": "bool"
        },
        {
          "internalType": "bool",
          "name": "withdraw",
          "type": "bool"
        },
        {
          "internalType": "bool",
          "name": "extractFromSender",
          "type": "bool"
        }
      ],
      "name": "depositRepayAndRemoveCollateral",
      "outputs": [],
      "stateMutability": "payable",
      "type": "function"
    },
    {
      "inputs": [
        {
          "internalType": "address",
          "name": "",
          "type": "address"
        },
        {
          "internalType": "address",
          "name": "",
          "type": "address"
        }
      ],
      "name": "isApprovedForAll",
      "outputs": [
        {
          "internalType": "bool",
          "name": "",
          "type": "bool"
        }
      ],
      "stateMutability": "view",
      "type": "function"
    },
    {
      "inputs": [
        {
          "internalType": "contract ISingularity",
          "name": "singularity",
          "type": "address"
        },
        {
          "internalType": "contract IMarket",
          "name": "bingBang",
          "type": "address"
        },
        {
          "internalType": "address",
          "name": "user",
          "type": "address"
        },
        {
          "internalType": "uint256",
          "name": "collateralAmount",
          "type": "uint256"
        },
        {
          "internalType": "uint256",
          "name": "borrowAmount",
          "type": "uint256"
        },
        {
          "internalType": "bool",
          "name": "deposit",
          "type": "bool"
        },
        {
          "internalType": "bool",
          "name": "extractFromSender",
          "type": "bool"
        }
      ],
      "name": "mintAndLend",
      "outputs": [],
      "stateMutability": "payable",
      "type": "function"
    },
    {
      "inputs": [
        {
          "internalType": "contract ISingularity",
          "name": "singularity",
          "type": "address"
        },
        {
          "internalType": "contract IMarket",
          "name": "bingBang",
          "type": "address"
        },
        {
          "internalType": "address",
          "name": "user",
          "type": "address"
        },
        {
          "internalType": "uint256",
          "name": "removeShare",
          "type": "uint256"
        },
        {
          "internalType": "uint256",
          "name": "repayAmount",
          "type": "uint256"
        },
        {
          "internalType": "uint256",
          "name": "collateralShare",
          "type": "uint256"
        },
        {
          "internalType": "bool",
          "name": "withdraw",
          "type": "bool"
        },
        {
          "internalType": "bytes",
          "name": "withdrawData",
          "type": "bytes"
        }
      ],
      "name": "removeAssetAndRepay",
      "outputs": [],
      "stateMutability": "payable",
      "type": "function"
    },
    {
      "inputs": [
        {
          "internalType": "contract IYieldBoxBase",
          "name": "yieldBox",
          "type": "address"
        },
        {
          "internalType": "address",
          "name": "from",
          "type": "address"
        },
        {
          "internalType": "uint256",
          "name": "assetId",
          "type": "uint256"
        },
        {
          "internalType": "uint16",
          "name": "dstChainId",
          "type": "uint16"
        },
        {
          "internalType": "bytes32",
          "name": "receiver",
          "type": "bytes32"
        },
        {
          "internalType": "uint256",
          "name": "amount",
          "type": "uint256"
        },
        {
          "internalType": "uint256",
          "name": "share",
          "type": "uint256"
        },
        {
          "internalType": "bytes",
          "name": "adapterParams",
          "type": "bytes"
        },
        {
          "internalType": "address payable",
          "name": "refundAddress",
          "type": "address"
        },
        {
          "internalType": "uint256",
          "name": "gas",
          "type": "uint256"
        }
      ],
      "name": "withdrawTo",
      "outputs": [],
      "stateMutability": "payable",
      "type": "function"
    },
    {
      "stateMutability": "payable",
      "type": "receive"
    }
  ],
  "bytecode": "0x6080806040523461001657612bdb908161001c8239f35b600080fdfe6080604052600436101561001b575b361561001957600080fd5b005b6000803560e01c8063411628d9146113fd578063664653ac14610e7a578063815c12ea146108835780639cc6ef14146107ed578063cc5e3163146107a2578063dedd6b80146103fb578063e9212b72146100d55763e985e9c51461007f575061000e565b346100d25760403660031901126100d2576100986119c5565b60406100a26119db565b926001600160a01b03809316815280602052209116600052602052602060ff604060002054166040519015158152f35b80fd5b506101003660031901126100d2576100eb6119c5565b6100f36119db565b9060843590610100611a16565b610108611a25565b9060e435801515810361030f57869261012087611af1565b60405163de40657760e01b81526020936001600160a01b038781169491908684600481895afa80156103f0576101689489916103c3575b501697606435908b60443591611c15565b80156103bc5730905b6040516377607a1760e11b808252928582600481885afa91821561037f57879261038a575b5060405191638eb22cdd60e01b8352600483015288602483015286604483015285826064818b5afa91821561037f57879261034d575b50843b156103495760405163cce19f8160e01b81526001600160a01b038b811660048301529190911660248201526044810191909152858160648183885af190811561033e578691610326575b5050610223578380f35b829060046040518094819382525afa91821561031b5783926102dd575b5050604080516311a5cc7760e31b815260048101929092523060248301526001600160a01b03909516604482015260648101939093526000608484015291929183919082908160a481015b03925af180156102d2576102a4575b8080838180808380f35b6102c59060403d6040116102cb575b6102bd8183611a5e565b810190611bff565b5061029a565b503d6102b3565b6040513d84823e3d90fd5b81959493508092503d8311610314575b6102f78183611a5e565b8101031261030f57915190919084908161028b610240565b600080fd5b503d6102ed565b6040513d85823e3d90fd5b61032f90611a34565b61033a578438610219565b8480fd5b6040513d88823e3d90fd5b8680fd5b965090508486813d8111610378575b6103668183611a5e565b8101031261030f5789955190386101cc565b503d61035c565b6040513d89823e3d90fd5b965090508486813d81116103b5575b6103a38183611a5e565b8101031261030f578995519038610196565b503d610399565b8690610171565b6103e39150883d8a116103e9575b6103db8183611a5e565b810190611b86565b38610157565b503d6103d1565b6040513d8a823e3d90fd5b5060a03660031901126100d2576104106119c5565b6104186119db565b90604435606435801515810361030f578491610432611a07565b9461043c81611af1565b60405163226f120560e11b81526020966001600160a01b038781169492918983600481895afa9283156103f0578893610770575b5060405163de40657760e01b81528a816004818a5afa80156106b45783918a91610753575b50169360405191630cf35bdd60e41b8352846004840152608083602481895afa928315610748578a93610714575b5060405198638eb22cdd60e01b8a528560048b01528260248b01528a60448b01528c8a6064818a5afa998a15610709578d9b9a6106d8575b50610591575b50505050506105139061055796612846565b604051630cb0f5b760e31b81523060048201526001600160a01b03909116602482015260006044820152606481019290925290928391908290879082906084820190565b03925af1801561031b57610569578280f35b813d831161058a575b61057c8183611a5e565b8101031261030f5738808280f35b503d610572565b90816105e693929a94959a156106ca575b156106bf576105b28183336129b3565b60405163095ea7b360e01b81526001600160a01b0387166004820152602481019190915293849283918e9183906044820190565b0393165af180156106b457610672575b5060408051634d4d7cbd60e11b81526004810196909652306024870181905260448701526000606487015260848601859052858060a481015b03818b855af19081156103f05761055796889661051393610654575b81988394610501565b61066c9060403d6040116102cb576102bd8183611a5e565b5061064b565b948786813d83116106ad575b6106888183611a5e565b810103126106a957846040916106a061062f98611bf2565b509650506105f6565b8880fd5b503d61067e565b6040513d8b823e3d90fd5b6105b28183896129b3565b6106d388611af1565b6105a2565b8b819c929b503d8311610702575b6106f08183611a5e565b8101031261030f578b995198386104fb565b503d6106e6565b6040513d8d823e3d90fd5b61073691935060803d8111610741575b61072e8183611a5e565b810190611bb9565b5050905091386104c3565b503d610724565b6040513d8c823e3d90fd5b61076a91508c8d3d106103e9576103db8183611a5e565b38610495565b975091508887813d811161079b575b6107898183611a5e565b8101031261030f578996519138610470565b503d61077f565b5060c03660031901126100d2576107ea6107ba6119c5565b6107c26119db565b6107ca611a07565b906107d3611a16565b926107dd82611af1565b6064359160443591611c15565b80f35b506101403660031901126100d2576004356001600160a01b03808216820361087f576108176119db565b9060643561ffff8116810361033a5760e43567ffffffffffffffff811161087b57610846903690600401611ad3565b9061010435928316830361087b576107ea9461086185611af1565b610124359460c4359260a435926084359260443591612752565b8580fd5b8280fd5b506101003660031901126100d2576108996119c5565b906108a26119db565b916108ab6119f1565b926108b4611a25565b67ffffffffffffffff60e43511610c7d5736602360e435011215610c7d5767ffffffffffffffff60e4356004013511610c7d5736602460e4356004013560e435010111610c7d5761090485611af1565b60405163de40657760e01b8152916020836004816001600160a01b0388165afa928315610c81578593610e59575b5060405163226f120560e11b81526020816004816001600160a01b0386165afa90811561033e578691610e27575b5060405163442c159960e01b815281600482015260643560248201528660448201526020816064816001600160a01b0389165afa90811561037f578791610df5575b5060405163f4d9375360e01b81526001600160a01b03898116600483015230602483015260648035604484015260209183919082908c908c165af180156103f057610dca575b5060405163cd0211eb60e01b81523060048201526001600160a01b0389811660248301526000604483015260848035606484015260209183919082908c9089165af19081156103f0578891610d98575b50818110610c92575b50505081600014610c8c5730955b6001600160a01b0382163b1561087b5760405163cce19f8160e01b81526001600160a01b039182166004820152968116602488015260a4356044880181905296918691839160649183918591165af18015610c8157908591610c69575b5050610ab6578280f35b610acc3660e43560040135602460e43501611a9c565b93845115610c1a5784518501906080866020840193031261030f57610af360208701611bf2565b5060408601519561ffff8716870361030f5760608101519060808101519067ffffffffffffffff821161030f57019683603f8901121561030f57602088015197610b3c89611a80565b94610b4a6040519687611a5e565b89865260408a8301011161030f576001600160a01b0398610b72916040602088019101611f26565b3415610c1157602034965b6004604051809b81936377607a1760e11b8352165afa978815610c0557600098610bd1575b509596610bc396908615610bca5733955b6001600160a01b033091166123b1565b8038808280f35b3095610bb3565b6020813d602011610bfd575b81610bea60209383611a5e565b810103126106a957519750610bc3610ba2565b3d9150610bdd565b6040513d6000823e3d90fd5b60204796610b7d565b60405162461bcd60e51b815260206004820152602160248201527f4d61676e6574617256323a2077697468647261774461746120697320656d70746044820152607960f81b6064820152608490fd5b610c7290611a34565b610c7d578338610aac565b8380fd5b6040513d87823e3d90fd5b85610a4f565b8103908111610d845760405190638eb22cdd60e01b825282600483015260248201528660448201526020816064816001600160a01b0389165afa90811561037f578791610d52575b506001600160a01b0385163b156103495760405191630208d92960e11b83523060048401526001600160a01b0389166024840152604483015260648201528581608481836001600160a01b0389165af1801561033e57908691610d3e575b80610a41565b610d4790611a34565b61033a578438610d38565b90506020813d602011610d7c575b81610d6d60209383611a5e565b8101031261030f575138610cda565b3d9150610d60565b634e487b7160e01b87526011600452602487fd5b90506020813d602011610dc2575b81610db360209383611a5e565b8101031261030f575138610a38565b3d9150610da6565b602090813d8311610dee575b610de08183611a5e565b8101031261030f57386109e8565b503d610dd6565b90506020813d602011610e1f575b81610e1060209383611a5e565b8101031261030f5751386109a2565b3d9150610e03565b90506020813d602011610e51575b81610e4260209383611a5e565b8101031261030f575138610960565b3d9150610e35565b610e7391935060203d6020116103e9576103db8183611a5e565b9138610932565b5060e03660031901126100d257610e8f6119c5565b610e976119db565b610e9f6119f1565b91610ea8611a16565b84610eb1611a25565b91610ebb86611af1565b6040516377607a1760e11b8152926020846004816001600160a01b038a165afa93841561031b5783946113c6575b5060405163de40657760e01b8152936020856004816001600160a01b038a165afa9485156113365784956113a5575b50604051630cf35bdd60e41b815260048101829052916080836024816001600160a01b038a165afa928315610c81578593611381575b5060405193638eb22cdd60e01b855282600486015260643560248601528560448601526020856064816001600160a01b038b165afa94851561033e57869561134a575b50611220575b50505060643561118b575b5050604080516314890dcb60e21b81526001600160a01b038681166004830181905260248301526084356044830181905295919291839160649183918b91165af1801561033e5761116d575b5060405163226f120560e11b8152926020846004816001600160a01b0387165afa93841561033e578694611139575b5060405193638eb22cdd60e01b8552600485015260248401528460448401526020836064816001600160a01b0385165afa928315610c81578593611101575b50906110c6936110816001600160a01b0360209594166001600160a01b038416612846565b604051630cb0f5b760e31b81526001600160a01b0391821660048201819052602482015260006044820152606481019390935291938492839187919083906084820190565b0393165af180156102d2576110d9575080f35b602090813d83116110fa575b6110ef8183611a5e565b8101031261030f5780f35b503d6110e5565b9250906020833d602011611131575b8161111d60209383611a5e565b8101031261030f57915191906110c661105c565b3d9150611110565b9093506020813d602011611165575b8161115560209383611a5e565b8101031261030f5751923861101d565b3d9150611148565b6111859060403d6040116102cb576102bd8183611a5e565b50610fee565b61119e6001600160a01b03841686612846565b6001600160a01b0385163b1561121c576040516374d2492960e11b81523060048201526001600160a01b0387166024820152600060448201526064803590820152608481019190915281818060a481010381836001600160a01b038a165af180156102d25715610fa25761121190611a34565b61033a578438610fa2565b5080fd5b1561134157611234335b83606435916129b3565b60405163095ea7b360e01b81526001600160a01b03868116600483015260643560248301529092602091849160449183918991165af19182156113365783926112f2575b5060408051634d4d7cbd60e11b815260048101929092523060248301819052604483015260006064830152608482019290925290818060a481015b0381866001600160a01b0389165af1801561031b576112d4575b8080610f97565b6112ec9060403d6040116102cb576102bd8183611a5e565b506112cd565b91506020823d60201161132e575b8161130d60209383611a5e565b81010312610c7d57826040916113256112b394611bf2565b50915091611278565b3d9150611300565b6040513d86823e3d90fd5b6112348861122a565b955093506020853d602011611379575b8161136760209383611a5e565b8101031261030f578994519338610f91565b3d915061135a565b61139a91935060803d81116107415761072e8183611a5e565b505090509138610f4e565b6113bf91955060203d6020116103e9576103db8183611a5e565b9338610f18565b925092506020823d6020116113f5575b816113e360209383611a5e565b8101031261030f578691519238610ee9565b3d91506113d6565b506101003660031901126100d2576114136119c5565b9061141c6119db565b91611425611a07565b9261142e611a16565b90611437611a25565b9060e43567ffffffffffffffff811161087b57611458903690600401611ad3565b9161146282611af1565b60405163de40657760e01b8152936020856004816001600160a01b038a165afa94851561037f5787956119a4575b506040516377607a1760e11b81526020816004816001600160a01b038b165afa9081156103f057889161196e575b50604051630cf35bdd60e41b8152600481018290529860808a6024816001600160a01b038b165afa998a156106b457899a61194a575b5060405199638eb22cdd60e01b8b528260048c015260443560248c01528960448c015260208b6064816001600160a01b038c165afa9a8b15610748578a9b611910575b50836117c8575b5050506115546001600160a01b03861687612846565b156117c257305b6001600160a01b0386163b15610349576040516374d2492960e11b81526001600160a01b03918216600482015290831660248201526000604480830191909152356064820152608481019790975285878060a481010381836001600160a01b038a165af196871561033e576040976117af575b5080156117a357611617309788935b81516314890dcb60e21b81526001600160a01b03918216600482015294166024850152606480356044860181905294928391829190820190565b03818a6001600160a01b038b165af1801561037f57611785575b5061163a578480f35b815115610c1a5781518201916080816020850194031261030f5761166060208201611bf2565b50604081015161ffff8116810361030f5760608201519160808101519067ffffffffffffffff821161030f57019784603f8a01121561030f576020890151986116a88a611a80565b956116b66040519788611a5e565b8a875260408b8301011161030f576001600160a01b03996116de916040602089019101611f26565b341561177c57602034975b6004604051809c819363226f120560e11b8352165afa988915610c0557600099611744575b50969761172c978715611735576001600160a01b0333975b16611f6e565b80388080808480f35b6001600160a01b033097611726565b6020813d602011611774575b8161175d60209383611a5e565b810103126117705751985061172c61170e565b8980fd5b3d9150611750565b602047976116e9565b61179d9060403d6040116102cb576102bd8183611a5e565b50611631565b611617829788936115dd565b6117bb90969196611a34565b94386115ce565b8161155b565b611829602091836001600160a01b039415611902575b156118f9576117f2335b82604435916129b3565b60405163095ea7b360e01b81526001600160a01b03858c161660048201526044803560248301529094859384928f92918491820190565b0393165af180156106b457908a916118b5575b5060408051634d4d7cbd60e11b8152600481019390935230602484018190526044840152600060648401526084830191909152818060a481015b03818b6001600160a01b038b165af180156103f057611897575b808061153e565b6118af9060403d6040116102cb576102bd8183611a5e565b50611890565b90506020813d6020116118f1575b816118d060209383611a5e565b810103126106a95789611876926118e8604093611bf2565b5092509061183c565b3d91506118c3565b6117f2886117e8565b61190b89611af1565b6117de565b909192939a506020813d602011611942575b8161192f60209383611a5e565b8101031261177057519992919083611537565b3d9150611922565b611963919a5060803d81116107415761072e8183611a5e565b5050905098386114f4565b90506020813d60201161199c575b8161198960209383611a5e565b810103126119985751386114be565b8780fd5b3d915061197c565b6119be91955060203d6020116103e9576103db8183611a5e565b9338611490565b600435906001600160a01b038216820361030f57565b602435906001600160a01b038216820361030f57565b604435906001600160a01b038216820361030f57565b60843590811515820361030f57565b60a43590811515820361030f57565b60c43590811515820361030f57565b67ffffffffffffffff8111611a4857604052565b634e487b7160e01b600052604160045260246000fd5b90601f8019910116810190811067ffffffffffffffff821117611a4857604052565b67ffffffffffffffff8111611a4857601f01601f191660200190565b929192611aa882611a80565b91611ab66040519384611a5e565b82948184528183011161030f578281602093846000960137010152565b9080601f8301121561030f57816020611aee93359101611a9c565b90565b6001600160a01b0316338114908115611b5c575b5015611b0d57565b60405162461bcd60e51b815260206004820152602160248201527f4d61676e6574617256323a206f70657261746f72206e6f7420617070726f76656044820152601960fa1b6064820152608490fd5b90506000526000602052604060002033600052602052600160ff6040600020541615151438611b05565b9081602091031261030f57516001600160a01b038116810361030f5790565b51906001600160a01b038216820361030f57565b919082608091031261030f578151600581101561030f5791611bdd60208201611ba5565b916060611bec60408401611ba5565b92015190565b5190811515820361030f57565b919082604091031261030f576020825192015190565b939594956001600160a01b03928386169160409485519763226f120560e11b89526020986004948a8287818a5afa918215611f1b57600092611eec575b50885163de40657760e01b81528b8188818b5afa908115611e8c57908591600091611ecf575b508a51630cf35bdd60e41b8152888101859052911694608082602481895afa918215611ec4579a8d9e9f88829e9f9d600095611ea0575b50611d5c575b50505050505090611cc591612846565b15611d5357600030915b611d1187519889968795869463cd0211eb60e01b865285016060919493929460808201956001600160a01b038092168352166020820152600060408201520152565b03925af1908115611d495750611d25575050565b813d8311611d42575b611d388183611a5e565b8101031261030f57565b503d611d2e565b513d6000823e3d90fd5b60008391611ccf565b96600085969798938b8e9f9694849c9d9e9f8987611db59b998714611e9757611d869250336129b3565b519788968795869363095ea7b360e01b85528401602090939291936001600160a01b0360408201951681520152565b0393165af18015611e8c57908a9291611e51575b508151634d4d7cbd60e11b815287810193845230602085018190526040850152606084019190915260006080840152918290819060a0015b03816000875af18015611e4657918a979695949391611cc593611e2a575b819293818b81611cb5565b611e40908a3d8c116102cb576102bd8183611a5e565b50611e1f565b88513d6000823e3d90fd5b91508b82813d8311611e85575b611e688183611a5e565b8101031261030f57611e0192611e7e8b93611bf2565b5092611dc9565b503d611e5e565b8a513d6000823e3d90fd5b611d86926129b3565b611eb991955060803d81116107415761072e8183611a5e565b505090509338611caf565b8b513d6000823e3d90fd5b611ee691508d803d106103e9576103db8183611a5e565b38611c78565b90918b82813d8311611f14575b611f038183611a5e565b810103126100d25750519038611c52565b503d611ef9565b89513d6000823e3d90fd5b60005b838110611f395750506000910152565b8181015183820152602001611f29565b90602091611f6281518092818552858086019101611f26565b601f01601f1916010190565b969261ffff9098929194989695961694851561233c576001600160a01b0380981691604098895195630cf35bdd60e41b875260049483868901526024976080818a81855afa9081156123315790849160009161230f575b508d516301ffc9a760e01b815263843c6ae360e01b89820152911699602095909186818c818f5afa90816122db575b5061200a57505050505050505050505050505050565b8d51627eeac760e11b81526001600160a01b038316818a01908152602081018390528790829081906040010381875afa9081156122a0578f906000926122ab575b50519063442c159960e01b8252828a8301528b820152600060448201528681606481875afa9081156122a057908e91600091612270575b5010612239578d516311a5cc7760e31b81528089019182526001600160a01b039092166020820152306040820152606081018d905260006080820181905291928e928492839190829060a00103925af1801561220a5761221d575b50341561221557925b8a51633b58a71760e21b8152838187818c5afa90811561220a576000916121d5575b50156121cc57915b8a51936060850185811067ffffffffffffffff8211176121b8579083918d521684528301600081528a8401928352873b1561030f578161219a9460009b8d519e8f9c8d9b8c9a63695ef6bf60e01b8c5230908c01528a01526044890152606488015260a06084880152511660a4860152511660c484015251606060e4840152610104830190611f49565b03925af1908115611d4957506121ad5750565b6121b690611a34565b565b88604188634e487b7160e01b600052526000fd5b50606091612110565b908482813d8311612203575b6121eb8183611a5e565b810103126100d257506121fd90611bf2565b38612108565b503d6121e1565b8c513d6000823e3d90fd5b5030926120e6565b612233908c8d3d106102cb576102bd8183611a5e565b506120dd565b8d5162461bcd60e51b81528089018790526012818c01527153474c3a206e6f7420617661696c61626c6560701b6044820152606490fd5b91508782813d8311612299575b6122878183611a5e565b810103126100d257508d905138612082565b503d61227d565b8f513d6000823e3d90fd5b9190508782813d83116122d4575b6122c38183611a5e565b810103126100d25750518e3861204b565b503d6122b9565b8781813d8311612308575b6122f08183611a5e565b8101031261030f5761230190611bf2565b5038611ff4565b503d6122e6565b612327915060803d81116107415761072e8183611a5e565b5050905038611fc5565b8d513d6000823e3d90fd5b50929496905060a4935060009150604095865197889687956311a5cc7760e31b875260048701526001600160a01b03938480921660248801521660448601526064850152826084850152165af18015610c05576123965750565b6123ad9060403d81116102cb576102bd8183611a5e565b5050565b95969261ffff9098929498169485156126f957506001600160a01b0380961696604097885194630cf35bdd60e41b865260049387858801526024966080818981875afa90811561220a57908b916000916126d7575b508c516301ffc9a760e01b815263843c6ae360e01b88820152911698602094909185818b818e5afa90816126a3575b5061244a575050505050505050505050505050565b8c51627eeac760e11b81526001600160a01b038416888201908152602081018490528690829081906040010381855afa90811561266b57600091612676575b508d519063442c159960e01b825283898301528a820152600060448201528581606481855afa801561266b5791868f94928f9694612638575b505090600060a492855196879586946311a5cc7760e31b86528d860152168d8401523060448401528160648401528160848401525af18015611ec45761261c575b50341561261457915b8951633b58a71760e21b8152828186818b5afa908115611ec4576000916125df575b50156125d657905b8951926060840184811067ffffffffffffffff8211176125c257908a918c5216835282019760008952898301918252863b1561030f576000988161219a948c519d8e9b8c9a8b9963695ef6bf60e01b8b5230908b015289015260448801528b606488015260a06084880152511660a4860152511660c484015251606060e4840152610104830190611f49565b87604187634e487b7160e01b600052526000fd5b50606090612536565b908382813d831161260d575b6125f58183611a5e565b810103126100d2575061260790611bf2565b3861252e565b503d6125eb565b50309161250c565b612632908b3d8d116102cb576102bd8183611a5e565b50612503565b919550809294503d8311612664575b6126518183611a5e565b8101031261030f578c918c9386386124c2565b503d612647565b8e513d6000823e3d90fd5b908682813d831161269c575b61268c8183611a5e565b810103126100d257505138612489565b503d612682565b8681813d83116126d0575b6126b88183611a5e565b8101031261030f576126c990611bf2565b5038612435565b503d6126ae565b6126ef915060803d81116107415761072e8183611a5e565b5050905038612406565b97915094604080975060a49550600093505197889687956311a5cc7760e31b875260048701526001600160a01b03938480921660248801521660448601528360648601526084850152165af18015610c05576123965750565b9793989261ffff9097919597169586156127eb57506001600160a01b0380981691604098895195630cf35bdd60e41b875260049483868901526024976080818a81855afa9081156123315790849160009161230f57508d516301ffc9a760e01b815263843c6ae360e01b89820152911699602095909186818c818f5afa90816122db575061200a57505050505050505050505050505050565b905060a4955060009350604080989295979993505198899788966311a5cc7760e31b885260048801526001600160a01b039485809216602489015216604487015260648601526084850152165af18015610c05576123965750565b6040805163e985e9c560e01b8082523060048301526001600160a01b0393841660248301819052909594919360209392168385604481845afa80156129a8576000958691612973575b501561290d575b82519687523060048801526001600160a01b039091166024870152939493829085908180604481015b03915afa90811561290457506128d457505050565b82813d83116128fd575b6128e88183611a5e565b810103126100d257506128fa90611bf2565b50565b503d6128de565b513d84823e3d90fd5b803b1561033a57825163a22cb46560e01b8152600481018390526001602482015296858860448183865af1978815612969576128bf9798612952575b50969550612896565b956129608694939297611a34565b95909192612949565b84513d88823e3d90fd5b90508481813d83116129a1575b61298a8183611a5e565b8101031261087b5761299b90611bf2565b3861288f565b503d612980565b83513d6000823e3d90fd5b604080516323b872dd60e01b60208083019182526001600160a01b039485166024840152306044840152606480840197909752958252919391929091166129fb608483611a5e565b8351908482019282841067ffffffffffffffff851117611a4857612a7a9386528683527f5361666545524332303a206c6f772d6c6576656c2063616c6c206661696c656487840152600080958192519082855af13d15612b04573d91612a6083611a80565b92612a6d88519485611a5e565b83523d868985013e612b08565b90815180612a8a575b5050505050565b828591810103126100d2575082612aa19101611bf2565b15612aae57808080612a83565b60849250519062461bcd60e51b82526004820152602a60248201527f5361666545524332303a204552433230206f7065726174696f6e20646964206e6044820152691bdd081cdd58d8d9595960b21b6064820152fd5b6060915b91929015612b6a5750815115612b1c575090565b3b15612b255790565b60405162461bcd60e51b815260206004820152601d60248201527f416464726573733a2063616c6c20746f206e6f6e2d636f6e74726163740000006044820152606490fd5b825190915015612b7d5750805190602001fd5b60405162461bcd60e51b815260206004820152908190612ba1906024830190611f49565b0390fdfea2646970667358221220601a6e485712c849edfad25a91c676f620d99486f9c5e6ba520b64cadaa3351e64736f6c63430008120033",
  "linkReferences": {},
  "deployedLinkReferences": {}
}