{
  "_format": "hh-sol-artifact-1",
  "contractName": "OracleChainlinkMulti",
  "sourceName": "contracts/oracle/OracleChainlinkMulti.sol",
  "abi": [
    {
      "inputs": [
        {
          "internalType": "address[]",
          "name": "_circuitChainlink",
          "type": "address[]"
        },
        {
          "internalType": "uint8[]",
          "name": "_circuitChainIsMultiplied",
          "type": "uint8[]"
        },
        {
          "internalType": "uint256",
          "name": "_inBase",
          "type": "uint256"
        },
        {
          "internalType": "uint32",
          "name": "stalePeriod",
          "type": "uint32"
        },
        {
          "internalType": "address[]",
          "name": "guardians",
          "type": "address[]"
        },
        {
          "internalType": "bytes32",
          "name": "_description",
          "type": "bytes32"
        }
      ],
      "stateMutability": "nonpayable",
      "type": "constructor"
    },
    {
      "inputs": [],
      "name": "InvalidChainlinkRate",
      "type": "error"
    },
    {
      "anonymous": false,
      "inputs": [
        {
          "indexed": true,
          "internalType": "bytes32",
          "name": "role",
          "type": "bytes32"
        },
        {
          "indexed": true,
          "internalType": "bytes32",
          "name": "previousAdminRole",
          "type": "bytes32"
        },
        {
          "indexed": true,
          "internalType": "bytes32",
          "name": "newAdminRole",
          "type": "bytes32"
        }
      ],
      "name": "RoleAdminChanged",
      "type": "event"
    },
    {
      "anonymous": false,
      "inputs": [
        {
          "indexed": true,
          "internalType": "bytes32",
          "name": "role",
          "type": "bytes32"
        },
        {
          "indexed": true,
          "internalType": "address",
          "name": "account",
          "type": "address"
        },
        {
          "indexed": true,
          "internalType": "address",
          "name": "sender",
          "type": "address"
        }
      ],
      "name": "RoleGranted",
      "type": "event"
    },
    {
      "anonymous": false,
      "inputs": [
        {
          "indexed": true,
          "internalType": "bytes32",
          "name": "role",
          "type": "bytes32"
        },
        {
          "indexed": true,
          "internalType": "address",
          "name": "account",
          "type": "address"
        },
        {
          "indexed": true,
          "internalType": "address",
          "name": "sender",
          "type": "address"
        }
      ],
      "name": "RoleRevoked",
      "type": "event"
    },
    {
      "inputs": [],
      "name": "BASE",
      "outputs": [
        {
          "internalType": "uint256",
          "name": "",
          "type": "uint256"
        }
      ],
      "stateMutability": "view",
      "type": "function"
    },
    {
      "inputs": [],
      "name": "DEFAULT_ADMIN_ROLE",
      "outputs": [
        {
          "internalType": "bytes32",
          "name": "",
          "type": "bytes32"
        }
      ],
      "stateMutability": "view",
      "type": "function"
    },
    {
      "inputs": [],
      "name": "GUARDIAN_ROLE_CHAINLINK",
      "outputs": [
        {
          "internalType": "bytes32",
          "name": "",
          "type": "bytes32"
        }
      ],
      "stateMutability": "view",
      "type": "function"
    },
    {
      "inputs": [
        {
          "internalType": "uint256",
          "name": "",
          "type": "uint256"
        }
      ],
      "name": "chainlinkDecimals",
      "outputs": [
        {
          "internalType": "uint8",
          "name": "",
          "type": "uint8"
        }
      ],
      "stateMutability": "view",
      "type": "function"
    },
    {
      "inputs": [
        {
          "internalType": "uint32",
          "name": "_stalePeriod",
          "type": "uint32"
        }
      ],
      "name": "changeStalePeriod",
      "outputs": [],
      "stateMutability": "nonpayable",
      "type": "function"
    },
    {
      "inputs": [
        {
          "internalType": "uint256",
          "name": "",
          "type": "uint256"
        }
      ],
      "name": "circuitChainIsMultiplied",
      "outputs": [
        {
          "internalType": "uint8",
          "name": "",
          "type": "uint8"
        }
      ],
      "stateMutability": "view",
      "type": "function"
    },
    {
      "inputs": [
        {
          "internalType": "uint256",
          "name": "",
          "type": "uint256"
        }
      ],
      "name": "circuitChainlink",
      "outputs": [
        {
          "internalType": "contract AggregatorV3Interface",
          "name": "",
          "type": "address"
        }
      ],
      "stateMutability": "view",
      "type": "function"
    },
    {
      "inputs": [],
      "name": "description",
      "outputs": [
        {
          "internalType": "bytes32",
          "name": "",
          "type": "bytes32"
        }
      ],
      "stateMutability": "view",
      "type": "function"
    },
    {
      "inputs": [
        {
          "internalType": "bytes32",
          "name": "role",
          "type": "bytes32"
        }
      ],
      "name": "getRoleAdmin",
      "outputs": [
        {
          "internalType": "bytes32",
          "name": "",
          "type": "bytes32"
        }
      ],
      "stateMutability": "view",
      "type": "function"
    },
    {
      "inputs": [
        {
          "internalType": "bytes32",
          "name": "role",
          "type": "bytes32"
        },
        {
          "internalType": "address",
          "name": "account",
          "type": "address"
        }
      ],
      "name": "grantRole",
      "outputs": [],
      "stateMutability": "nonpayable",
      "type": "function"
    },
    {
      "inputs": [
        {
          "internalType": "bytes32",
          "name": "role",
          "type": "bytes32"
        },
        {
          "internalType": "address",
          "name": "account",
          "type": "address"
        }
      ],
      "name": "hasRole",
      "outputs": [
        {
          "internalType": "bool",
          "name": "",
          "type": "bool"
        }
      ],
      "stateMutability": "view",
      "type": "function"
    },
    {
      "inputs": [],
      "name": "inBase",
      "outputs": [
        {
          "internalType": "uint256",
          "name": "",
          "type": "uint256"
        }
      ],
      "stateMutability": "view",
      "type": "function"
    },
    {
      "inputs": [],
      "name": "read",
      "outputs": [
        {
          "internalType": "uint256",
          "name": "rate",
          "type": "uint256"
        }
      ],
      "stateMutability": "view",
      "type": "function"
    },
    {
      "inputs": [],
      "name": "readAll",
      "outputs": [
        {
          "internalType": "uint256",
          "name": "",
          "type": "uint256"
        },
        {
          "internalType": "uint256",
          "name": "",
          "type": "uint256"
        }
      ],
      "stateMutability": "view",
      "type": "function"
    },
    {
      "inputs": [],
      "name": "readLower",
      "outputs": [
        {
          "internalType": "uint256",
          "name": "rate",
          "type": "uint256"
        }
      ],
      "stateMutability": "view",
      "type": "function"
    },
    {
      "inputs": [
        {
          "internalType": "uint256",
          "name": "quoteAmount",
          "type": "uint256"
        }
      ],
      "name": "readQuote",
      "outputs": [
        {
          "internalType": "uint256",
          "name": "",
          "type": "uint256"
        }
      ],
      "stateMutability": "view",
      "type": "function"
    },
    {
      "inputs": [
        {
          "internalType": "uint256",
          "name": "quoteAmount",
          "type": "uint256"
        }
      ],
      "name": "readQuoteLower",
      "outputs": [
        {
          "internalType": "uint256",
          "name": "",
          "type": "uint256"
        }
      ],
      "stateMutability": "view",
      "type": "function"
    },
    {
      "inputs": [],
      "name": "readUpper",
      "outputs": [
        {
          "internalType": "uint256",
          "name": "rate",
          "type": "uint256"
        }
      ],
      "stateMutability": "view",
      "type": "function"
    },
    {
      "inputs": [
        {
          "internalType": "bytes32",
          "name": "role",
          "type": "bytes32"
        },
        {
          "internalType": "address",
          "name": "account",
          "type": "address"
        }
      ],
      "name": "renounceRole",
      "outputs": [],
      "stateMutability": "nonpayable",
      "type": "function"
    },
    {
      "inputs": [
        {
          "internalType": "bytes32",
          "name": "role",
          "type": "bytes32"
        },
        {
          "internalType": "address",
          "name": "account",
          "type": "address"
        }
      ],
      "name": "revokeRole",
      "outputs": [],
      "stateMutability": "nonpayable",
      "type": "function"
    },
    {
      "inputs": [],
      "name": "stalePeriod",
      "outputs": [
        {
          "internalType": "uint32",
          "name": "",
          "type": "uint32"
        }
      ],
      "stateMutability": "view",
      "type": "function"
    }
  ],
  "bytecode": "0x6080806040523462000623576200198b803803809162000020828562000643565b8339810160c082820312620006235781516001600160401b0381116200062357816200004e9184016200067f565b60208301519091906001600160401b0381116200062357830181601f8201121562000623578051620000808162000667565b9162000090604051938462000643565b818352602083016020819360051b830101918583116200062357602001905b828210620006285750505060408501519160608601519363ffffffff85168503620006235760808701516001600160401b038111620006235760a091620000f89189016200067f565b960151936201518063ffffffff19600354161760035585518015620005f85782518103620005cd57875115620005a25760005b885181101562000244576001600160a01b0362000149828b6200072b565b5116156200021b57620001c2906001600160a01b036200016a828c6200072b565b511660008181527fe414d6e9efd528fe34946c9948de56cf8a209abe14dcce3202417cd89e77a63b60205260409020546000805160206200196b833981519152919060029060ff1615620001c8575b50505062000705565b6200012b565b826000526020526040600020816000526020526040600020600160ff1982541617905533917f2f8788117e7eff1d82e926ec794901d17c78024a50270940304540a733656f0d600080a4388080620001b9565b60405162461bcd60e51b81526020600482015260016024820152600360fc1b6044820152606490fd5b50866000805160206200196b8339815191528060005260026020526001604060002001818154817fbd79b86ffe0ab8e8776151514217cd7cacd52c909f66475c3af44e129f0b00ff600080a45560005b8281106200042f5750505063ffffffff1663ffffffff196003541617600355519060018060401b0382116200041957680100000000000000008211620004195760055482600555808310620003b9575b5090600560005260206000208160051c9160005b838110620003765750601f19811690038062000327575b858560005560015560405161122a9081620007418239f35b92600093845b81811062000344575050500155828080806200030f565b90919460206200036b6001928460ff8a5116919060ff809160031b9316831b921b19161790565b96019291016200032d565b6000805b6020811062000391575083820155600101620002f8565b865190969160019160209160ff60038b901b81811b199092169216901b17920196016200037a565b60056000526020600020601f80850160051c8201920160051c0190601f841680620003fd575b505b818110620003f05750620002e4565b60008155600101620003e1565b600019908183019182549160200360031b1c16905586620003df565b634e487b7160e01b600052604160045260246000fd5b6001600160a01b036200044382846200072b565b51169060045468010000000000000000811015620004195760018101806004558110156200053957600460008190527f8a35acfbc15ff81a39ae7d344fd709f28e8600b4aa8c65c6b64bfe7fe36bd19b90910180546001600160a01b0319168417905560405163313ce56760e01b815292602091849182905afa91821562000596576000926200054f575b5060065491680100000000000000008310156200041957600183018060065583101562000539576200052b62000533936006600052601f60ff60206000208360051c019416911683549060ff809160031b9316831b921b19161790565b905562000705565b62000294565b634e487b7160e01b600052603260045260246000fd5b90916020823d6020116200058d575b816200056d6020938362000643565b810103126200058a57506200058290620006f6565b9089620004ce565b80fd5b3d91506200055e565b6040513d6000823e3d90fd5b60405162461bcd60e51b815260206004820152600360248201526231303160e81b6044820152606490fd5b60405162461bcd60e51b81526020600482015260036024820152620c4c0d60ea1b6044820152606490fd5b60405162461bcd60e51b815260206004820152600360248201526218981b60e91b6044820152606490fd5b600080fd5b602080916200063784620006f6565b815201910190620000af565b601f909101601f19168101906001600160401b038211908210176200041957604052565b6001600160401b038111620004195760051b60200190565b81601f820112156200062357805191620006998362000667565b92620006a9604051948562000643565b808452602092838086019260051b82010192831162000623578301905b828210620006d5575050505090565b81516001600160a01b038116810362000623578152908301908301620006c6565b519060ff821682036200062357565b6000198114620007155760010190565b634e487b7160e01b600052601160045260246000fd5b8051821015620005395760209160051b01019056fe608080604052600436101561001357600080fd5b60003560e01c9081630942d09a146109b357508063240fd5ab146108bf578063248a9ca3146109845780632f2ff15d146108dd5780633593ba7b146108bf57806336568abe1461086e57806341f654f714610843578063442133bd1461026957806357de26a4146104fb578063630914d1146102ed5780637284e416146102cf57806391d148541461028f57806392611e33146102695780639aefb5c31461024b5780639e0a850014610220578063a217fddf14610204578063a5b36a36146101e0578063cf330c261461019e578063d547741f14610169578063dbda63de1461012e5763ec342ad01461010657600080fd5b34610129576000366003190112610129576020604051670de0b6b3a76400008152f35b600080fd5b34610129576020366003190112610129576004356006548110156101295760ff610159602092610a21565b9190546040519260031b1c168152f35b346101295761019c61017a366109da565b908060005260026020526101976001604060002001543390610e1f565b6110e4565b005b3461012957602036600319011261012957600435600454811015610129576101c7602091610a5f565b905460405160039290921b1c6001600160a01b03168152f35b3461012957600036600319011261012957602063ffffffff60035416604051908152f35b3461012957600036600319011261012957602060405160008152f35b34610129576020366003190112610129576004356005548110156101295760ff610159602092610a00565b34610129576000366003190112610129576020600054604051908152f35b34610129576000366003190112610129576020610287600054610aad565b604051908152f35b346101295761029d366109da565b90600052600260205260406000209060018060a01b0316600052602052602060ff604060002054166040519015158152f35b34610129576000366003190112610129576020600154604051908152f35b3461012957602080600319360112610129576004359063ffffffff8216809203610129576000805160206111d5833981519152908160005260028152604060002033600052815260ff6040600020541615610353576003805463ffffffff191684179055005b61035c33610fe8565b60405161036881610dcb565b604281528281019360603686378151156104e5576030855381516001908110156104e557607860218401536041905b80821161048b57505061045a57906104236048604494936040519687916104148784019676020b1b1b2b9b9a1b7b73a3937b61d1030b1b1b7bab73a1604d1b88526103eb815180928b603789019101610da8565b8401917001034b99036b4b9b9b4b733903937b6329607d1b603784015251809386840190610da8565b01036028810187520185610dfc565b61044c60405194859362461bcd60e51b8552600485015251809281602486015285850190610da8565b601f01601f19168101030190fd5b6064836040519062461bcd60e51b825280600483015260248201526000805160206111b58339815191526044820152fd5b9091600f811660108110156104e5576f181899199a1a9b1b9c1cb0b131b232b360811b901a6104ba8486610fd7565b5360041c9180156104cf576000190190610397565b634e487b7160e01b600052601160045260246000fd5b634e487b7160e01b600052603260045260246000fd5b3461012957600036600319011261012957600454670de0b6b3a764000060005b82811061052d57602082604051908152f35b9061053782610a5f565b905461054284610a00565b93905460ff61055087610a21565b90549060031b1c1694829360405195633fabe5a360e21b875260a090818860048160018060a01b03878660031b1c165afa8015610777576000916000996000946000936107ec575b50506040516309169eff60e21b8152602081600481600386901b8a901c6001600160a01b03165afa908115610777576004916020916000916107cf575b50604051630455b78f60e31b815292839182906001600160a01b03165afa908115610777576000916107b0575b5060170b8a13948515956106cb575b505083156106b4575b50508115610699575b506106875760031b1c60ff166001036106665750610648610654939261064e92610a7a565b9161115a565b90610a8d565b9060001981146104cf5760010161051b565b61067d91506106776106829461115a565b90610a7a565b610a8d565b610654565b60405163ae19356360e01b8152600490fd5b905042034281116104cf5763ffffffff600354161089610623565b6001600160501b0390811691161191508a8061061a565b6040516309169eff60e21b81529295506020918391600491839160039190911b1c6001600160a01b03165afa90811561077757600491602091600091610783575b506040516370da2f6760e01b815292839182906001600160a01b03165afa90811561077757600091610748575b5060170b881215928c80610611565b61076a915060203d602011610770575b6107628183610dfc565b81019061119b565b8c610739565b503d610758565b6040513d6000823e3d90fd5b6107a39150823d84116107a9575b61079b8183610dfc565b81019061117c565b8e61070c565b503d610791565b6107c9915060203d602011610770576107628183610dfc565b8e610602565b6107e69150823d84116107a95761079b8183610dfc565b386105d5565b9350995092505087813d831161083c575b6108078183610dfc565b810103126101295761081887611168565b90602088015190610830608060608b01519a01611168565b92919892908d80610598565b503d6107fd565b34610129576000366003190112610129576040610861600054610aad565b8151908082526020820152f35b346101295761087c366109da565b336001600160a01b038216036108955761019c916110e4565b60405162461bcd60e51b8152602060048201526002602482015261373160f01b6044820152606490fd5b34610129576020366003190112610129576020610287600435610aad565b34610129576108eb366109da565b8160005260026020526109076001604060002001543390610e1f565b81600052600260205260406000209060018060a01b0316908160005260205260ff604060002054161561093657005b8160005260026020526040600020816000526020526040600020600160ff1982541617905533917f2f8788117e7eff1d82e926ec794901d17c78024a50270940304540a733656f0d600080a4005b346101295760203660031901126101295760043560005260026020526020600160406000200154604051908152f35b3461012957600036600319011261012957806000805160206111d583398151915260209252f35b604090600319011261012957600435906024356001600160a01b03811681036101295790565b906005548210156104e5576005600052601f60206000208360051c01921690565b906006548210156104e5576006600052600582901c7ff652222313e28459528d920b65115c16c04f3efc82aaedc97be59f3f377c0d3f0191601f1690565b6004548110156104e557600460005260206000200190600090565b818102929181159184041417156104cf57565b8115610a97570490565b634e487b7160e01b600052601260045260246000fd5b670de0b6b3a7640000908181029181830414901517156104cf57600054610ad391610a8d565b60006004545b808210610ae557505090565b9091610af083610a5f565b9054610afb85610a00565b93905460ff610b0988610a21565b90549060031b1c1694829360405195633fabe5a360e21b875260a090818860048160018060a01b03878660031b1c165afa801561077757600091600099600094600093610d51575b50506040516309169eff60e21b8152602081600481600386901b8a901c6001600160a01b03165afa90811561077757600491602091600091610d34575b50604051630455b78f60e31b815292839182906001600160a01b03165afa90811561077757600091610d15575b5060170b8a1394851595610c5c575b50508315610c45575b50508115610c2a575b506106875760031b1c60ff16600103610c145750610648610c01939261064e92610a7a565b9160001981146104cf5760010190610ad9565b61067d9150610677610c259461115a565b610c01565b905042034281116104cf5763ffffffff600354161038610bdc565b6001600160501b0390811691161191503880610bd3565b6040516309169eff60e21b81529295506020918391600491839160039190911b1c6001600160a01b03165afa90811561077757600491602091600091610cf8575b506040516370da2f6760e01b815292839182906001600160a01b03165afa90811561077757600091610cd9575b5060170b881215923880610bca565b610cf2915060203d602011610770576107628183610dfc565b38610cca565b610d0f9150823d84116107a95761079b8183610dfc565b38610c9d565b610d2e915060203d602011610770576107628183610dfc565b38610bbb565b610d4b9150823d84116107a95761079b8183610dfc565b38610b8e565b9350995092505087813d8311610da1575b610d6c8183610dfc565b8101031261012957610d7d87611168565b90602088015190610d95608060608b01519a01611168565b92919892903880610b51565b503d610d62565b60005b838110610dbb5750506000910152565b8181015183820152602001610dab565b608081019081106001600160401b03821117610de657604052565b634e487b7160e01b600052604160045260246000fd5b601f909101601f19168101906001600160401b03821190821017610de657604052565b600090808252602090600282526040938484209060018060a01b031690818552835260ff858520541615610e54575050505050565b610e5d90610fe8565b90845190610e6a82610dcb565b60428252838201946060368737825115610fc35760308653825190600191821015610fc35790607860218501536041915b818311610f5557505050610f255784610f01604861044c936044979851988991610ef28984019876020b1b1b2b9b9a1b7b73a3937b61d1030b1b1b7bab73a1604d1b8a526103eb815180928d603789019101610da8565b01036028810189520187610dfc565b5194859362461bcd60e51b8552600485015251809281602486015285850190610da8565b60648386519062461bcd60e51b825280600483015260248201526000805160206111b58339815191526044820152fd5b909192600f81166010811015610faf576f181899199a1a9b1b9c1cb0b131b232b360811b901a610f858587610fd7565b5360041c928015610f9b57600019019190610e9b565b634e487b7160e01b82526011600452602482fd5b634e487b7160e01b83526032600452602483fd5b634e487b7160e01b81526032600452602490fd5b9081518110156104e5570160200190565b60405190606082016001600160401b03811183821017610de657604052602a82526020820160403682378251156104e5576030905381516001908110156104e557607860218401536029905b8082116110765750506110445790565b606460405162461bcd60e51b815260206004820152602060248201526000805160206111b58339815191526044820152fd5b9091600f811660108110156110cf576f181899199a1a9b1b9c1cb0b131b232b360811b901a6110a58486610fd7565b5360041c9180156110ba576000190190611034565b60246000634e487b7160e01b81526011600452fd5b60246000634e487b7160e01b81526032600452fd5b906000918083526002602052604083209160018060a01b03169182845260205260ff60408420541661111557505050565b8083526002602052604083208284526020526040832060ff1981541690557ff6391f5c32d9c69d2a47ea670b442974b53935d1edc7fd64eb21e047a839171b339380a4565b604d81116104cf57600a0a90565b51906001600160501b038216820361012957565b9081602091031261012957516001600160a01b03811681036101295790565b9081602091031261012957518060170b8103610129579056fe537472696e67733a20686578206c656e67746820696e73756666696369656e7455435dd261a4b9b3364963f7738a7a662ad9c84396d64be3365284bb7f0a5041a26469706673582212208ddae50f0625fe2b072c2cc7d7e800c2b89effdc898d036f9e88b5ed829aa0cd64736f6c6343000812003355435dd261a4b9b3364963f7738a7a662ad9c84396d64be3365284bb7f0a5041",
  "linkReferences": {},
  "deployedLinkReferences": {}
}