{
  "_format": "hh-sol-artifact-1",
  "contractName": "ProxyOFTWithFee",
  "sourceName": "contracts/layerzero/v1/token/oft/v2/fee/ProxyOFTWithFee.sol",
  "abi": [
    {
      "inputs": [
        {
          "internalType": "address",
          "name": "_token",
          "type": "address"
        },
        {
          "internalType": "uint8",
          "name": "_sharedDecimals",
          "type": "uint8"
        },
        {
          "internalType": "address",
          "name": "_lzEndpoint",
          "type": "address"
        }
      ],
      "stateMutability": "nonpayable",
      "type": "constructor"
    },
    {
      "anonymous": false,
      "inputs": [
        {
          "indexed": true,
          "internalType": "uint16",
          "name": "_srcChainId",
          "type": "uint16"
        },
        {
          "indexed": false,
          "internalType": "bytes",
          "name": "_srcAddress",
          "type": "bytes"
        },
        {
          "indexed": false,
          "internalType": "uint64",
          "name": "_nonce",
          "type": "uint64"
        },
        {
          "indexed": false,
          "internalType": "bytes32",
          "name": "_hash",
          "type": "bytes32"
        }
      ],
      "name": "CallOFTReceivedSuccess",
      "type": "event"
    },
    {
      "anonymous": false,
      "inputs": [
        {
          "indexed": false,
          "internalType": "uint16",
          "name": "_srcChainId",
          "type": "uint16"
        },
        {
          "indexed": false,
          "internalType": "bytes",
          "name": "_srcAddress",
          "type": "bytes"
        },
        {
          "indexed": false,
          "internalType": "uint64",
          "name": "_nonce",
          "type": "uint64"
        },
        {
          "indexed": false,
          "internalType": "bytes",
          "name": "_payload",
          "type": "bytes"
        },
        {
          "indexed": false,
          "internalType": "bytes",
          "name": "_reason",
          "type": "bytes"
        }
      ],
      "name": "MessageFailed",
      "type": "event"
    },
    {
      "anonymous": false,
      "inputs": [
        {
          "indexed": false,
          "internalType": "address",
          "name": "_address",
          "type": "address"
        }
      ],
      "name": "NonContractAddress",
      "type": "event"
    },
    {
      "anonymous": false,
      "inputs": [
        {
          "indexed": true,
          "internalType": "address",
          "name": "previousOwner",
          "type": "address"
        },
        {
          "indexed": true,
          "internalType": "address",
          "name": "newOwner",
          "type": "address"
        }
      ],
      "name": "OwnershipTransferred",
      "type": "event"
    },
    {
      "anonymous": false,
      "inputs": [
        {
          "indexed": true,
          "internalType": "uint16",
          "name": "_srcChainId",
          "type": "uint16"
        },
        {
          "indexed": true,
          "internalType": "address",
          "name": "_to",
          "type": "address"
        },
        {
          "indexed": false,
          "internalType": "uint256",
          "name": "_amount",
          "type": "uint256"
        }
      ],
      "name": "ReceiveFromChain",
      "type": "event"
    },
    {
      "anonymous": false,
      "inputs": [
        {
          "indexed": false,
          "internalType": "uint16",
          "name": "_srcChainId",
          "type": "uint16"
        },
        {
          "indexed": false,
          "internalType": "bytes",
          "name": "_srcAddress",
          "type": "bytes"
        },
        {
          "indexed": false,
          "internalType": "uint64",
          "name": "_nonce",
          "type": "uint64"
        },
        {
          "indexed": false,
          "internalType": "bytes32",
          "name": "_payloadHash",
          "type": "bytes32"
        }
      ],
      "name": "RetryMessageSuccess",
      "type": "event"
    },
    {
      "anonymous": false,
      "inputs": [
        {
          "indexed": true,
          "internalType": "uint16",
          "name": "_dstChainId",
          "type": "uint16"
        },
        {
          "indexed": true,
          "internalType": "address",
          "name": "_from",
          "type": "address"
        },
        {
          "indexed": true,
          "internalType": "bytes32",
          "name": "_toAddress",
          "type": "bytes32"
        },
        {
          "indexed": false,
          "internalType": "uint256",
          "name": "_amount",
          "type": "uint256"
        }
      ],
      "name": "SendToChain",
      "type": "event"
    },
    {
      "anonymous": false,
      "inputs": [
        {
          "indexed": false,
          "internalType": "uint16",
          "name": "feeBp",
          "type": "uint16"
        }
      ],
      "name": "SetDefaultFeeBp",
      "type": "event"
    },
    {
      "anonymous": false,
      "inputs": [
        {
          "indexed": false,
          "internalType": "uint16",
          "name": "dstchainId",
          "type": "uint16"
        },
        {
          "indexed": false,
          "internalType": "bool",
          "name": "enabled",
          "type": "bool"
        },
        {
          "indexed": false,
          "internalType": "uint16",
          "name": "feeBp",
          "type": "uint16"
        }
      ],
      "name": "SetFeeBp",
      "type": "event"
    },
    {
      "anonymous": false,
      "inputs": [
        {
          "indexed": false,
          "internalType": "address",
          "name": "feeOwner",
          "type": "address"
        }
      ],
      "name": "SetFeeOwner",
      "type": "event"
    },
    {
      "anonymous": false,
      "inputs": [
        {
          "indexed": false,
          "internalType": "uint16",
          "name": "_dstChainId",
          "type": "uint16"
        },
        {
          "indexed": false,
          "internalType": "uint16",
          "name": "_type",
          "type": "uint16"
        },
        {
          "indexed": false,
          "internalType": "uint256",
          "name": "_minDstGas",
          "type": "uint256"
        }
      ],
      "name": "SetMinDstGas",
      "type": "event"
    },
    {
      "anonymous": false,
      "inputs": [
        {
          "indexed": false,
          "internalType": "address",
          "name": "precrime",
          "type": "address"
        }
      ],
      "name": "SetPrecrime",
      "type": "event"
    },
    {
      "anonymous": false,
      "inputs": [
        {
          "indexed": false,
          "internalType": "uint16",
          "name": "_remoteChainId",
          "type": "uint16"
        },
        {
          "indexed": false,
          "internalType": "bytes",
          "name": "_path",
          "type": "bytes"
        }
      ],
      "name": "SetTrustedRemote",
      "type": "event"
    },
    {
      "anonymous": false,
      "inputs": [
        {
          "indexed": false,
          "internalType": "uint16",
          "name": "_remoteChainId",
          "type": "uint16"
        },
        {
          "indexed": false,
          "internalType": "bytes",
          "name": "_remoteAddress",
          "type": "bytes"
        }
      ],
      "name": "SetTrustedRemoteAddress",
      "type": "event"
    },
    {
      "anonymous": false,
      "inputs": [
        {
          "indexed": false,
          "internalType": "bool",
          "name": "_useCustomAdapterParams",
          "type": "bool"
        }
      ],
      "name": "SetUseCustomAdapterParams",
      "type": "event"
    },
    {
      "inputs": [],
      "name": "BP_DENOMINATOR",
      "outputs": [
        {
          "internalType": "uint256",
          "name": "",
          "type": "uint256"
        }
      ],
      "stateMutability": "view",
      "type": "function"
    },
    {
      "inputs": [],
      "name": "DEFAULT_PAYLOAD_SIZE_LIMIT",
      "outputs": [
        {
          "internalType": "uint256",
          "name": "",
          "type": "uint256"
        }
      ],
      "stateMutability": "view",
      "type": "function"
    },
    {
      "inputs": [],
      "name": "NO_EXTRA_GAS",
      "outputs": [
        {
          "internalType": "uint256",
          "name": "",
          "type": "uint256"
        }
      ],
      "stateMutability": "view",
      "type": "function"
    },
    {
      "inputs": [],
      "name": "PT_SEND",
      "outputs": [
        {
          "internalType": "uint8",
          "name": "",
          "type": "uint8"
        }
      ],
      "stateMutability": "view",
      "type": "function"
    },
    {
      "inputs": [],
      "name": "PT_SEND_AND_CALL",
      "outputs": [
        {
          "internalType": "uint8",
          "name": "",
          "type": "uint8"
        }
      ],
      "stateMutability": "view",
      "type": "function"
    },
    {
      "inputs": [
        {
          "internalType": "uint16",
          "name": "_srcChainId",
          "type": "uint16"
        },
        {
          "internalType": "bytes",
          "name": "_srcAddress",
          "type": "bytes"
        },
        {
          "internalType": "uint64",
          "name": "_nonce",
          "type": "uint64"
        },
        {
          "internalType": "bytes32",
          "name": "_from",
          "type": "bytes32"
        },
        {
          "internalType": "address",
          "name": "_to",
          "type": "address"
        },
        {
          "internalType": "uint256",
          "name": "_amount",
          "type": "uint256"
        },
        {
          "internalType": "bytes",
          "name": "_payload",
          "type": "bytes"
        },
        {
          "internalType": "uint256",
          "name": "_gasForCall",
          "type": "uint256"
        }
      ],
      "name": "callOnOFTReceived",
      "outputs": [],
      "stateMutability": "nonpayable",
      "type": "function"
    },
    {
      "inputs": [
        {
          "internalType": "uint16",
          "name": "",
          "type": "uint16"
        }
      ],
      "name": "chainIdToFeeBps",
      "outputs": [
        {
          "internalType": "uint16",
          "name": "feeBP",
          "type": "uint16"
        },
        {
          "internalType": "bool",
          "name": "enabled",
          "type": "bool"
        }
      ],
      "stateMutability": "view",
      "type": "function"
    },
    {
      "inputs": [],
      "name": "circulatingSupply",
      "outputs": [
        {
          "internalType": "uint256",
          "name": "",
          "type": "uint256"
        }
      ],
      "stateMutability": "view",
      "type": "function"
    },
    {
      "inputs": [
        {
          "internalType": "uint16",
          "name": "",
          "type": "uint16"
        },
        {
          "internalType": "bytes",
          "name": "",
          "type": "bytes"
        },
        {
          "internalType": "uint64",
          "name": "",
          "type": "uint64"
        }
      ],
      "name": "creditedPackets",
      "outputs": [
        {
          "internalType": "bool",
          "name": "",
          "type": "bool"
        }
      ],
      "stateMutability": "view",
      "type": "function"
    },
    {
      "inputs": [],
      "name": "defaultFeeBp",
      "outputs": [
        {
          "internalType": "uint16",
          "name": "",
          "type": "uint16"
        }
      ],
      "stateMutability": "view",
      "type": "function"
    },
    {
      "inputs": [
        {
          "internalType": "uint16",
          "name": "_dstChainId",
          "type": "uint16"
        },
        {
          "internalType": "bytes32",
          "name": "_toAddress",
          "type": "bytes32"
        },
        {
          "internalType": "uint256",
          "name": "_amount",
          "type": "uint256"
        },
        {
          "internalType": "bytes",
          "name": "_payload",
          "type": "bytes"
        },
        {
          "internalType": "uint64",
          "name": "_dstGasForCall",
          "type": "uint64"
        },
        {
          "internalType": "bool",
          "name": "_useZro",
          "type": "bool"
        },
        {
          "internalType": "bytes",
          "name": "_adapterParams",
          "type": "bytes"
        }
      ],
      "name": "estimateSendAndCallFee",
      "outputs": [
        {
          "internalType": "uint256",
          "name": "nativeFee",
          "type": "uint256"
        },
        {
          "internalType": "uint256",
          "name": "zroFee",
          "type": "uint256"
        }
      ],
      "stateMutability": "view",
      "type": "function"
    },
    {
      "inputs": [
        {
          "internalType": "uint16",
          "name": "_dstChainId",
          "type": "uint16"
        },
        {
          "internalType": "bytes32",
          "name": "_toAddress",
          "type": "bytes32"
        },
        {
          "internalType": "uint256",
          "name": "_amount",
          "type": "uint256"
        },
        {
          "internalType": "bool",
          "name": "_useZro",
          "type": "bool"
        },
        {
          "internalType": "bytes",
          "name": "_adapterParams",
          "type": "bytes"
        }
      ],
      "name": "estimateSendFee",
      "outputs": [
        {
          "internalType": "uint256",
          "name": "nativeFee",
          "type": "uint256"
        },
        {
          "internalType": "uint256",
          "name": "zroFee",
          "type": "uint256"
        }
      ],
      "stateMutability": "view",
      "type": "function"
    },
    {
      "inputs": [
        {
          "internalType": "uint16",
          "name": "",
          "type": "uint16"
        },
        {
          "internalType": "bytes",
          "name": "",
          "type": "bytes"
        },
        {
          "internalType": "uint64",
          "name": "",
          "type": "uint64"
        }
      ],
      "name": "failedMessages",
      "outputs": [
        {
          "internalType": "bytes32",
          "name": "",
          "type": "bytes32"
        }
      ],
      "stateMutability": "view",
      "type": "function"
    },
    {
      "inputs": [],
      "name": "feeOwner",
      "outputs": [
        {
          "internalType": "address",
          "name": "",
          "type": "address"
        }
      ],
      "stateMutability": "view",
      "type": "function"
    },
    {
      "inputs": [
        {
          "internalType": "uint16",
          "name": "_srcChainId",
          "type": "uint16"
        },
        {
          "internalType": "bytes",
          "name": "_srcAddress",
          "type": "bytes"
        }
      ],
      "name": "forceResumeReceive",
      "outputs": [],
      "stateMutability": "nonpayable",
      "type": "function"
    },
    {
      "inputs": [
        {
          "internalType": "uint16",
          "name": "_version",
          "type": "uint16"
        },
        {
          "internalType": "uint16",
          "name": "_chainId",
          "type": "uint16"
        },
        {
          "internalType": "address",
          "name": "",
          "type": "address"
        },
        {
          "internalType": "uint256",
          "name": "_configType",
          "type": "uint256"
        }
      ],
      "name": "getConfig",
      "outputs": [
        {
          "internalType": "bytes",
          "name": "",
          "type": "bytes"
        }
      ],
      "stateMutability": "view",
      "type": "function"
    },
    {
      "inputs": [
        {
          "internalType": "uint16",
          "name": "_remoteChainId",
          "type": "uint16"
        }
      ],
      "name": "getTrustedRemoteAddress",
      "outputs": [
        {
          "internalType": "bytes",
          "name": "",
          "type": "bytes"
        }
      ],
      "stateMutability": "view",
      "type": "function"
    },
    {
      "inputs": [
        {
          "internalType": "uint16",
          "name": "_srcChainId",
          "type": "uint16"
        },
        {
          "internalType": "bytes",
          "name": "_srcAddress",
          "type": "bytes"
        }
      ],
      "name": "isTrustedRemote",
      "outputs": [
        {
          "internalType": "bool",
          "name": "",
          "type": "bool"
        }
      ],
      "stateMutability": "view",
      "type": "function"
    },
    {
      "inputs": [],
      "name": "lzEndpoint",
      "outputs": [
        {
          "internalType": "contract ILayerZeroEndpoint",
          "name": "",
          "type": "address"
        }
      ],
      "stateMutability": "view",
      "type": "function"
    },
    {
      "inputs": [
        {
          "internalType": "uint16",
          "name": "_srcChainId",
          "type": "uint16"
        },
        {
          "internalType": "bytes",
          "name": "_srcAddress",
          "type": "bytes"
        },
        {
          "internalType": "uint64",
          "name": "_nonce",
          "type": "uint64"
        },
        {
          "internalType": "bytes",
          "name": "_payload",
          "type": "bytes"
        }
      ],
      "name": "lzReceive",
      "outputs": [],
      "stateMutability": "nonpayable",
      "type": "function"
    },
    {
      "inputs": [
        {
          "internalType": "uint16",
          "name": "",
          "type": "uint16"
        },
        {
          "internalType": "uint16",
          "name": "",
          "type": "uint16"
        }
      ],
      "name": "minDstGasLookup",
      "outputs": [
        {
          "internalType": "uint256",
          "name": "",
          "type": "uint256"
        }
      ],
      "stateMutability": "view",
      "type": "function"
    },
    {
      "inputs": [
        {
          "internalType": "uint16",
          "name": "_srcChainId",
          "type": "uint16"
        },
        {
          "internalType": "bytes",
          "name": "_srcAddress",
          "type": "bytes"
        },
        {
          "internalType": "uint64",
          "name": "_nonce",
          "type": "uint64"
        },
        {
          "internalType": "bytes",
          "name": "_payload",
          "type": "bytes"
        }
      ],
      "name": "nonblockingLzReceive",
      "outputs": [],
      "stateMutability": "nonpayable",
      "type": "function"
    },
    {
      "inputs": [],
      "name": "outboundAmount",
      "outputs": [
        {
          "internalType": "uint256",
          "name": "",
          "type": "uint256"
        }
      ],
      "stateMutability": "view",
      "type": "function"
    },
    {
      "inputs": [],
      "name": "owner",
      "outputs": [
        {
          "internalType": "address",
          "name": "",
          "type": "address"
        }
      ],
      "stateMutability": "view",
      "type": "function"
    },
    {
      "inputs": [
        {
          "internalType": "uint16",
          "name": "",
          "type": "uint16"
        }
      ],
      "name": "payloadSizeLimitLookup",
      "outputs": [
        {
          "internalType": "uint256",
          "name": "",
          "type": "uint256"
        }
      ],
      "stateMutability": "view",
      "type": "function"
    },
    {
      "inputs": [],
      "name": "precrime",
      "outputs": [
        {
          "internalType": "address",
          "name": "",
          "type": "address"
        }
      ],
      "stateMutability": "view",
      "type": "function"
    },
    {
      "inputs": [
        {
          "internalType": "uint16",
          "name": "_dstChainId",
          "type": "uint16"
        },
        {
          "internalType": "uint256",
          "name": "_amount",
          "type": "uint256"
        }
      ],
      "name": "quoteOFTFee",
      "outputs": [
        {
          "internalType": "uint256",
          "name": "fee",
          "type": "uint256"
        }
      ],
      "stateMutability": "view",
      "type": "function"
    },
    {
      "inputs": [],
      "name": "renounceOwnership",
      "outputs": [],
      "stateMutability": "nonpayable",
      "type": "function"
    },
    {
      "inputs": [
        {
          "internalType": "uint16",
          "name": "_srcChainId",
          "type": "uint16"
        },
        {
          "internalType": "bytes",
          "name": "_srcAddress",
          "type": "bytes"
        },
        {
          "internalType": "uint64",
          "name": "_nonce",
          "type": "uint64"
        },
        {
          "internalType": "bytes",
          "name": "_payload",
          "type": "bytes"
        }
      ],
      "name": "retryMessage",
      "outputs": [],
      "stateMutability": "payable",
      "type": "function"
    },
    {
      "inputs": [
        {
          "internalType": "address",
          "name": "_from",
          "type": "address"
        },
        {
          "internalType": "uint16",
          "name": "_dstChainId",
          "type": "uint16"
        },
        {
          "internalType": "bytes32",
          "name": "_toAddress",
          "type": "bytes32"
        },
        {
          "internalType": "uint256",
          "name": "_amount",
          "type": "uint256"
        },
        {
          "internalType": "uint256",
          "name": "_minAmount",
          "type": "uint256"
        },
        {
          "internalType": "bytes",
          "name": "_payload",
          "type": "bytes"
        },
        {
          "internalType": "uint64",
          "name": "_dstGasForCall",
          "type": "uint64"
        },
        {
          "components": [
            {
              "internalType": "address payable",
              "name": "refundAddress",
              "type": "address"
            },
            {
              "internalType": "address",
              "name": "zroPaymentAddress",
              "type": "address"
            },
            {
              "internalType": "bytes",
              "name": "adapterParams",
              "type": "bytes"
            }
          ],
          "internalType": "struct ICommonOFT.LzCallParams",
          "name": "_callParams",
          "type": "tuple"
        }
      ],
      "name": "sendAndCall",
      "outputs": [],
      "stateMutability": "payable",
      "type": "function"
    },
    {
      "inputs": [
        {
          "internalType": "address",
          "name": "_from",
          "type": "address"
        },
        {
          "internalType": "uint16",
          "name": "_dstChainId",
          "type": "uint16"
        },
        {
          "internalType": "bytes32",
          "name": "_toAddress",
          "type": "bytes32"
        },
        {
          "internalType": "uint256",
          "name": "_amount",
          "type": "uint256"
        },
        {
          "internalType": "uint256",
          "name": "_minAmount",
          "type": "uint256"
        },
        {
          "components": [
            {
              "internalType": "address payable",
              "name": "refundAddress",
              "type": "address"
            },
            {
              "internalType": "address",
              "name": "zroPaymentAddress",
              "type": "address"
            },
            {
              "internalType": "bytes",
              "name": "adapterParams",
              "type": "bytes"
            }
          ],
          "internalType": "struct ICommonOFT.LzCallParams",
          "name": "_callParams",
          "type": "tuple"
        }
      ],
      "name": "sendFrom",
      "outputs": [],
      "stateMutability": "payable",
      "type": "function"
    },
    {
      "inputs": [
        {
          "internalType": "uint16",
          "name": "_version",
          "type": "uint16"
        },
        {
          "internalType": "uint16",
          "name": "_chainId",
          "type": "uint16"
        },
        {
          "internalType": "uint256",
          "name": "_configType",
          "type": "uint256"
        },
        {
          "internalType": "bytes",
          "name": "_config",
          "type": "bytes"
        }
      ],
      "name": "setConfig",
      "outputs": [],
      "stateMutability": "nonpayable",
      "type": "function"
    },
    {
      "inputs": [
        {
          "internalType": "uint16",
          "name": "_feeBp",
          "type": "uint16"
        }
      ],
      "name": "setDefaultFeeBp",
      "outputs": [],
      "stateMutability": "nonpayable",
      "type": "function"
    },
    {
      "inputs": [
        {
          "internalType": "uint16",
          "name": "_dstChainId",
          "type": "uint16"
        },
        {
          "internalType": "bool",
          "name": "_enabled",
          "type": "bool"
        },
        {
          "internalType": "uint16",
          "name": "_feeBp",
          "type": "uint16"
        }
      ],
      "name": "setFeeBp",
      "outputs": [],
      "stateMutability": "nonpayable",
      "type": "function"
    },
    {
      "inputs": [
        {
          "internalType": "address",
          "name": "_feeOwner",
          "type": "address"
        }
      ],
      "name": "setFeeOwner",
      "outputs": [],
      "stateMutability": "nonpayable",
      "type": "function"
    },
    {
      "inputs": [
        {
          "internalType": "uint16",
          "name": "_dstChainId",
          "type": "uint16"
        },
        {
          "internalType": "uint16",
          "name": "_packetType",
          "type": "uint16"
        },
        {
          "internalType": "uint256",
          "name": "_minGas",
          "type": "uint256"
        }
      ],
      "name": "setMinDstGas",
      "outputs": [],
      "stateMutability": "nonpayable",
      "type": "function"
    },
    {
      "inputs": [
        {
          "internalType": "uint16",
          "name": "_dstChainId",
          "type": "uint16"
        },
        {
          "internalType": "uint256",
          "name": "_size",
          "type": "uint256"
        }
      ],
      "name": "setPayloadSizeLimit",
      "outputs": [],
      "stateMutability": "nonpayable",
      "type": "function"
    },
    {
      "inputs": [
        {
          "internalType": "address",
          "name": "_precrime",
          "type": "address"
        }
      ],
      "name": "setPrecrime",
      "outputs": [],
      "stateMutability": "nonpayable",
      "type": "function"
    },
    {
      "inputs": [
        {
          "internalType": "uint16",
          "name": "_version",
          "type": "uint16"
        }
      ],
      "name": "setReceiveVersion",
      "outputs": [],
      "stateMutability": "nonpayable",
      "type": "function"
    },
    {
      "inputs": [
        {
          "internalType": "uint16",
          "name": "_version",
          "type": "uint16"
        }
      ],
      "name": "setSendVersion",
      "outputs": [],
      "stateMutability": "nonpayable",
      "type": "function"
    },
    {
      "inputs": [
        {
          "internalType": "uint16",
          "name": "_srcChainId",
          "type": "uint16"
        },
        {
          "internalType": "bytes",
          "name": "_path",
          "type": "bytes"
        }
      ],
      "name": "setTrustedRemote",
      "outputs": [],
      "stateMutability": "nonpayable",
      "type": "function"
    },
    {
      "inputs": [
        {
          "internalType": "uint16",
          "name": "_remoteChainId",
          "type": "uint16"
        },
        {
          "internalType": "bytes",
          "name": "_remoteAddress",
          "type": "bytes"
        }
      ],
      "name": "setTrustedRemoteAddress",
      "outputs": [],
      "stateMutability": "nonpayable",
      "type": "function"
    },
    {
      "inputs": [
        {
          "internalType": "bool",
          "name": "_useCustomAdapterParams",
          "type": "bool"
        }
      ],
      "name": "setUseCustomAdapterParams",
      "outputs": [],
      "stateMutability": "nonpayable",
      "type": "function"
    },
    {
      "inputs": [],
      "name": "sharedDecimals",
      "outputs": [
        {
          "internalType": "uint8",
          "name": "",
          "type": "uint8"
        }
      ],
      "stateMutability": "view",
      "type": "function"
    },
    {
      "inputs": [
        {
          "internalType": "bytes4",
          "name": "interfaceId",
          "type": "bytes4"
        }
      ],
      "name": "supportsInterface",
      "outputs": [
        {
          "internalType": "bool",
          "name": "",
          "type": "bool"
        }
      ],
      "stateMutability": "view",
      "type": "function"
    },
    {
      "inputs": [],
      "name": "token",
      "outputs": [
        {
          "internalType": "address",
          "name": "",
          "type": "address"
        }
      ],
      "stateMutability": "view",
      "type": "function"
    },
    {
      "inputs": [
        {
          "internalType": "address",
          "name": "newOwner",
          "type": "address"
        }
      ],
      "name": "transferOwnership",
      "outputs": [],
      "stateMutability": "nonpayable",
      "type": "function"
    },
    {
      "inputs": [
        {
          "internalType": "uint16",
          "name": "",
          "type": "uint16"
        }
      ],
      "name": "trustedRemoteLookup",
      "outputs": [
        {
          "internalType": "bytes",
          "name": "",
          "type": "bytes"
        }
      ],
      "stateMutability": "view",
      "type": "function"
    },
    {
      "inputs": [],
      "name": "useCustomAdapterParams",
      "outputs": [
        {
          "internalType": "bool",
          "name": "",
          "type": "bool"
        }
      ],
      "stateMutability": "view",
      "type": "function"
    }
  ],
  "bytecode": "0x6101006040523480156200001257600080fd5b506040516200516e3803806200516e8339810160408190526200003591620002c6565b818181818080620000463362000247565b6001600160a01b0316608052505060ff1660a0526200006d6000546001600160a01b031690565b600980546001600160a01b03928316620100000262010000600160b01b0319909116179055851660c081905260408051600481526024810182526020810180516001600160e01b031663313ce56760e01b179052905160009450849350620000d6919062000310565b600060405180830381855afa9150503d806000811462000113576040519150601f19603f3d011682016040523d82523d6000602084013e62000118565b606091505b509150915081620001865760405162461bcd60e51b815260206004820152602d60248201527f50726f78794f4654576974684665653a206661696c656420746f20676574207460448201526c6f6b656e20646563696d616c7360981b60648201526084015b60405180910390fd5b6000818060200190518101906200019e919062000341565b90508060ff168560ff1611156200021e5760405162461bcd60e51b815260206004820152603360248201527f50726f78794f4654576974684665653a20736861726564446563696d616c732060448201527f6d757374206265203c3d20646563696d616c730000000000000000000000000060648201526084016200017d565b6200022a85826200037c565b6200023790600a6200049b565b60e05250620004ac945050505050565b600080546001600160a01b038381166001600160a01b0319831681178455604051919092169283917f8be0079c531659141344cd1fd0a4f28419497f9722a3daafe3b4186f6b6457e09190a35050565b80516001600160a01b0381168114620002af57600080fd5b919050565b805160ff81168114620002af57600080fd5b600080600060608486031215620002dc57600080fd5b620002e78462000297565b9250620002f760208501620002b4565b9150620003076040850162000297565b90509250925092565b6000825160005b8181101562000333576020818601810151858301520162000317565b506000920191825250919050565b6000602082840312156200035457600080fd5b6200035f82620002b4565b9392505050565b634e487b7160e01b600052601160045260246000fd5b60ff828116828216039081111562000398576200039862000366565b92915050565b600181815b80851115620003df578160001904821115620003c357620003c362000366565b80851615620003d157918102915b93841c9390800290620003a3565b509250929050565b600082620003f85750600162000398565b81620004075750600062000398565b81600181146200042057600281146200042b576200044b565b600191505062000398565b60ff8411156200043f576200043f62000366565b50506001821b62000398565b5060208310610133831016604e8410600b841016171562000470575081810a62000398565b6200047c83836200039e565b806000190482111562000493576200049362000366565b029392505050565b60006200035f60ff841683620003e7565b60805160a05160c05160e051614c116200055d60003960008181612c4301528181612e0c01526135a20152600081816109fc015281816116aa015281816128d60152818161296001528181612999015281816129fb0152612d2c0152600061060e0152600081816107bf01528181610a2301528181610d3b01528181610dfc01528181611086015281816119f9015281816120d1015281816124210152818161280b0152612fdb0152614c116000f3fe60806040526004361061031d5760003560e01c8063950c8a74116101a5578063cbed8b9c116100ec578063eaffd49a11610095578063ed629c5c1161006f578063ed629c5c14610993578063f2fde38b146109ad578063f5ecbdbc146109cd578063fc0c546a146109ed57600080fd5b8063eaffd49a14610933578063eb8d72b714610953578063ecd8f2121461097357600080fd5b8063df2a5b3b116100c6578063df2a5b3b146108de578063e6a20ae6146108fe578063eab45d9c1461091357600080fd5b8063cbed8b9c1461087d578063d1deba1f1461089d578063d8882968146108b057600080fd5b8063abe685cd1161014e578063baf3292d11610128578063baf3292d14610807578063c446183414610797578063c83330ce1461082757600080fd5b8063abe685cd14610797578063b353aaa7146107ad578063b9818be1146107e157600080fd5b80639f38369a1161017f5780639f38369a14610737578063a4c51df514610757578063a6c3d1651461077757600080fd5b8063950c8a74146106af5780639689cb05146106cf5780639bdb9812146106e557600080fd5b80634b104eff116102695780637533d788116102125780638cfd8f5c116101ec5780638cfd8f5c146106305780638da5cb5b146106685780639358928b1461069a57600080fd5b80637533d788146105af57806379c0ad4b146105dc578063857749b0146105fc57600080fd5b80635b8c41e6116102435780635b8c41e61461052b57806366ad5c8a1461057a578063715018a61461059a57600080fd5b80634b104eff146104c45780634c42899a146104e45780635a359dc51461050b57600080fd5b8063365260b4116102cb57806342d65a8d116102a557806342d65a8d1461047c578063447705151461049c578063455ba27d146104b157600080fd5b8063365260b4146103ec5780633d8b38f6146104215780633f1f4fa41461044157600080fd5b80630df37483116102fc5780630df374831461039957806310ddb137146103b95780632cdf0b95146103d957600080fd5b80621d35671461032257806301ffc9a71461034457806307e0db1714610379575b600080fd5b34801561032e57600080fd5b5061034261033d366004613be4565b610a20565b005b34801561035057600080fd5b5061036461035f366004613c78565b610c68565b60405190151581526020015b60405180910390f35b34801561038557600080fd5b50610342610394366004613cba565b610d01565b3480156103a557600080fd5b506103426103b4366004613cd5565b610da3565b3480156103c557600080fd5b506103426103d4366004613cba565b610dc2565b6103426103e7366004613d2c565b610e33565b3480156103f857600080fd5b5061040c610407366004613db6565b610f2c565b60408051928352602083019190915201610370565b34801561042d57600080fd5b5061036461043c366004613e1e565b610f81565b34801561044d57600080fd5b5061046e61045c366004613cba565b60036020526000908152604090205481565b604051908152602001610370565b34801561048857600080fd5b50610342610497366004613e1e565b61104e565b3480156104a857600080fd5b5061046e600081565b6103426104bf366004613e71565b6110ed565b3480156104d057600080fd5b506103426104df366004613f2e565b611224565b3480156104f057600080fd5b506104f9600081565b60405160ff9091168152602001610370565b34801561051757600080fd5b50610342610526366004613cba565b6112f7565b34801561053757600080fd5b5061046e610546366004613fd3565b6005602090815260009384526040808520845180860184018051928152908401958401959095209452929052825290205481565b34801561058657600080fd5b50610342610595366004613be4565b6113dc565b3480156105a657600080fd5b506103426114c7565b3480156105bb57600080fd5b506105cf6105ca366004613cba565b6114db565b60405161037091906140c4565b3480156105e857600080fd5b506103426105f73660046140d7565b611575565b34801561060857600080fd5b506104f97f000000000000000000000000000000000000000000000000000000000000000081565b34801561063c57600080fd5b5061046e61064b366004614113565b600260209081526000928352604080842090915290825290205481565b34801561067457600080fd5b506000546001600160a01b03165b6040516001600160a01b039091168152602001610370565b3480156106a657600080fd5b5061046e6116a3565b3480156106bb57600080fd5b50600454610682906001600160a01b031681565b3480156106db57600080fd5b5061046e600a5481565b3480156106f157600080fd5b50610364610700366004613fd3565b6007602090815260009384526040808520845180860184018051928152908401958401959095209452929052825290205460ff1681565b34801561074357600080fd5b506105cf610752366004613cba565b611739565b34801561076357600080fd5b5061040c610772366004614146565b611848565b34801561078357600080fd5b50610342610792366004613e1e565b6118d7565b3480156107a357600080fd5b5061046e61271081565b3480156107b957600080fd5b506106827f000000000000000000000000000000000000000000000000000000000000000081565b3480156107ed57600080fd5b50600954610682906201000090046001600160a01b031681565b34801561081357600080fd5b50610342610822366004613f2e565b611953565b34801561083357600080fd5b50610863610842366004613cba565b60086020526000908152604090205461ffff81169062010000900460ff1682565b6040805161ffff9093168352901515602083015201610370565b34801561088957600080fd5b50610342610898366004614204565b6119c1565b6103426108ab366004613be4565b611a64565b3480156108bc57600080fd5b506009546108cb9061ffff1681565b60405161ffff9091168152602001610370565b3480156108ea57600080fd5b506103426108f9366004614273565b611cb2565b34801561090a57600080fd5b506104f9600181565b34801561091f57600080fd5b5061034261092e3660046142af565b611d6c565b34801561093f57600080fd5b5061034261094e3660046142cc565b611dd3565b34801561095f57600080fd5b5061034261096e366004613e1e565b611f0b565b34801561097f57600080fd5b5061046e61098e366004613cd5565b611f65565b34801561099f57600080fd5b506006546103649060ff1681565b3480156109b957600080fd5b506103426109c8366004613f2e565b611ff7565b3480156109d957600080fd5b506105cf6109e8366004614395565b612087565b3480156109f957600080fd5b507f0000000000000000000000000000000000000000000000000000000000000000610682565b337f00000000000000000000000000000000000000000000000000000000000000006001600160a01b031614610a9d5760405162461bcd60e51b815260206004820152601e60248201527f4c7a4170703a20696e76616c696420656e64706f696e742063616c6c6572000060448201526064015b60405180910390fd5b61ffff861660009081526001602052604081208054610abb906143e2565b80601f0160208091040260200160405190810160405280929190818152602001828054610ae7906143e2565b8015610b345780601f10610b0957610100808354040283529160200191610b34565b820191906000526020600020905b815481529060010190602001808311610b1757829003601f168201915b50505050509050805186869050148015610b4f575060008151115b8015610b77575080516020820120604051610b6d908890889061442f565b6040518091039020145b610be95760405162461bcd60e51b815260206004820152602660248201527f4c7a4170703a20696e76616c696420736f757263652073656e64696e6720636f60448201527f6e747261637400000000000000000000000000000000000000000000000000006064820152608401610a94565b610c5f8787878080601f01602080910402602001604051908101604052809392919081815260200183838082843760009201919091525050604080516020601f8a018190048102820181019092528881528a93509150889088908190840183828082843760009201919091525061215392505050565b50505050505050565b60007fffffffff0000000000000000000000000000000000000000000000000000000082167f6984a9e8000000000000000000000000000000000000000000000000000000001480610cfb57507f01ffc9a7000000000000000000000000000000000000000000000000000000007fffffffff000000000000000000000000000000000000000000000000000000008316145b92915050565b610d096121f9565b6040517f07e0db1700000000000000000000000000000000000000000000000000000000815261ffff821660048201527f00000000000000000000000000000000000000000000000000000000000000006001600160a01b0316906307e0db17906024015b600060405180830381600087803b158015610d8857600080fd5b505af1158015610d9c573d6000803e3d6000fd5b5050505050565b610dab6121f9565b61ffff909116600090815260036020526040902055565b610dca6121f9565b6040517f10ddb13700000000000000000000000000000000000000000000000000000000815261ffff821660048201527f00000000000000000000000000000000000000000000000000000000000000006001600160a01b0316906310ddb13790602401610d6e565b610e3e868685612253565b509250610eac86868686610e556020870187613f2e565b610e656040880160208901613f2e565b610e72604089018961443f565b8080601f01602080910402602001604051908101604052809392919081815260200183838082843760009201919091525061229c92505050565b925081831015610f245760405162461bcd60e51b815260206004820152602d60248201527f426173654f4654576974684665653a20616d6f756e74206973206c657373207460448201527f68616e206d696e416d6f756e74000000000000000000000000000000000000006064820152608401610a94565b505050505050565b600080610f728888888888888080601f0160208091040260200160405190810160405280939291908181526020018383808284376000920191909152506123dc92505050565b91509150965096945050505050565b61ffff831660009081526001602052604081208054829190610fa2906143e2565b80601f0160208091040260200160405190810160405280929190818152602001828054610fce906143e2565b801561101b5780601f10610ff05761010080835404028352916020019161101b565b820191906000526020600020905b815481529060010190602001808311610ffe57829003601f168201915b50505050509050838360405161103292919061442f565b60405180910390208180519060200120149150505b9392505050565b6110566121f9565b6040517f42d65a8d0000000000000000000000000000000000000000000000000000000081526001600160a01b037f000000000000000000000000000000000000000000000000000000000000000016906342d65a8d906110bf908690869086906004016144cf565b600060405180830381600087803b1580156110d957600080fd5b505af1158015610c5f573d6000803e3d6000fd5b6110f8898988612253565b50809650506111a18989898988888080601f0160208091040260200160405190810160405280939291908181526020018383808284376000920191909152508a925061114a9150506020890189613f2e565b61115a60408a0160208b01613f2e565b61116760408b018b61443f565b8080601f0160208091040260200160405190810160405280939291908181526020018383808284376000920191909152506124ad92505050565b9550848610156112195760405162461bcd60e51b815260206004820152602d60248201527f426173654f4654576974684665653a20616d6f756e74206973206c657373207460448201527f68616e206d696e416d6f756e74000000000000000000000000000000000000006064820152608401610a94565b505050505050505050565b61122c6121f9565b6001600160a01b0381166112825760405162461bcd60e51b815260206004820152601a60248201527f4665653a206665654f776e65722063616e6e6f742062652030780000000000006044820152606401610a94565b600980547fffffffffffffffffffff0000000000000000000000000000000000000000ffff16620100006001600160a01b038416908102919091179091556040519081527f047912631afa564eebd3db2efe191a0dec62da1fede6bbbc1ffc89d87845b1b5906020015b60405180910390a150565b6112ff6121f9565b6127108161ffff16111561137b5760405162461bcd60e51b815260206004820152602560248201527f4665653a20666565206270206d757374206265203c3d2042505f44454e4f4d4960448201527f4e41544f520000000000000000000000000000000000000000000000000000006064820152608401610a94565b600980547fffffffffffffffffffffffffffffffffffffffffffffffffffffffffffff00001661ffff83169081179091556040519081527fd26030ef4a8c225ee12b646eb4466acb41fb96b6cd4660b22d0ba0124e7bdc74906020016112ec565b3330146114515760405162461bcd60e51b815260206004820152602660248201527f4e6f6e626c6f636b696e674c7a4170703a2063616c6c6572206d75737420626560448201527f204c7a41707000000000000000000000000000000000000000000000000000006064820152608401610a94565b610f248686868080601f01602080910402602001604051908101604052809392919081815260200183838082843760009201919091525050604080516020601f8901819004810282018101909252878152899350915087908790819084018382808284376000920191909152506125ae92505050565b6114cf6121f9565b6114d96000612635565b565b600160205260009081526040902080546114f4906143e2565b80601f0160208091040260200160405190810160405280929190818152602001828054611520906143e2565b801561156d5780601f106115425761010080835404028352916020019161156d565b820191906000526020600020905b81548152906001019060200180831161155057829003601f168201915b505050505081565b61157d6121f9565b6127108161ffff1611156115f95760405162461bcd60e51b815260206004820152602560248201527f4665653a20666565206270206d757374206265203c3d2042505f44454e4f4d4960448201527f4e41544f520000000000000000000000000000000000000000000000000000006064820152608401610a94565b60408051808201825261ffff8381168083528515156020808501828152898516600081815260088452889020965187549251151562010000027fffffffffffffffffffffffffffffffffffffffffffffffffffffffffff00000090931696169590951717909455845192835292820192909252918201527fdd9c9685af3e6dcb56d8f4b88d2595d4add6837a150034e7781c46b6dcf8aaab906060015b60405180910390a1505050565b6000600a547f00000000000000000000000000000000000000000000000000000000000000006001600160a01b03166318160ddd6040518163ffffffff1660e01b8152600401602060405180830381865afa158015611706573d6000803e3d6000fd5b505050506040513d601f19601f8201168201806040525081019061172a91906144ed565b6117349190614535565b905090565b61ffff811660009081526001602052604081208054606092919061175c906143e2565b80601f0160208091040260200160405190810160405280929190818152602001828054611788906143e2565b80156117d55780601f106117aa576101008083540402835291602001916117d5565b820191906000526020600020905b8154815290600101906020018083116117b857829003601f168201915b50505050509050805160000361182d5760405162461bcd60e51b815260206004820152601d60248201527f4c7a4170703a206e6f20747275737465642070617468207265636f72640000006044820152606401610a94565b6110476000601483516118409190614535565b83919061269d565b6000806118c58b8b8b8b8b8080601f01602080910402602001604051908101604052809392919081815260200183838082843760009201919091525050604080516020601f8d018190048102820181019092528b81528e93508d9250908c908c90819084018382808284376000920191909152506127c592505050565b91509150995099975050505050505050565b6118df6121f9565b8181306040516020016118f493929190614548565b60408051601f1981840301815291815261ffff851660009081526001602052209061191f90826145c9565b507f8c0400cfe2d1199b1a725c78960bcc2a344d869b80590d0f2bd005db15a572ce838383604051611696939291906144cf565b61195b6121f9565b600480547fffffffffffffffffffffffff0000000000000000000000000000000000000000166001600160a01b0383169081179091556040519081527f5db758e995a17ec1ad84bdef7e8c3293a0bd6179bcce400dff5d4c3d87db726b906020016112ec565b6119c96121f9565b6040517fcbed8b9c0000000000000000000000000000000000000000000000000000000081526001600160a01b037f0000000000000000000000000000000000000000000000000000000000000000169063cbed8b9c90611a369088908890889088908890600401614689565b600060405180830381600087803b158015611a5057600080fd5b505af1158015611219573d6000803e3d6000fd5b61ffff86166000908152600560205260408082209051611a87908890889061442f565b908152604080516020928190038301902067ffffffffffffffff871660009081529252902054905080611b225760405162461bcd60e51b815260206004820152602360248201527f4e6f6e626c6f636b696e674c7a4170703a206e6f2073746f726564206d65737360448201527f61676500000000000000000000000000000000000000000000000000000000006064820152608401610a94565b808383604051611b3392919061442f565b604051809103902014611bae5760405162461bcd60e51b815260206004820152602160248201527f4e6f6e626c6f636b696e674c7a4170703a20696e76616c6964207061796c6f6160448201527f64000000000000000000000000000000000000000000000000000000000000006064820152608401610a94565b61ffff87166000908152600560205260408082209051611bd1908990899061442f565b908152604080516020928190038301812067ffffffffffffffff8916600090815290845282902093909355601f88018290048202830182019052868252611c6a918991899089908190840183828082843760009201919091525050604080516020601f8a018190048102820181019092528881528a9350915088908890819084018382808284376000920191909152506125ae92505050565b7fc264d91f3adc5588250e1551f547752ca0cfa8f6b530d243b9f9f4cab10ea8e58787878785604051611ca19594939291906146b7565b60405180910390a150505050505050565b611cba6121f9565b60008111611d0a5760405162461bcd60e51b815260206004820152601560248201527f4c7a4170703a20696e76616c6964206d696e47617300000000000000000000006044820152606401610a94565b61ffff83811660008181526002602090815260408083209487168084529482529182902085905581519283528201929092529081018290527f9d5c7c0b934da8fefa9c7760c98383778a12dfbfc0c3b3106518f43fb9508ac090606001611696565b611d746121f9565b600680547fffffffffffffffffffffffffffffffffffffffffffffffffffffffffffffff00168215159081179091556040519081527f1584ad594a70cbe1e6515592e1272a987d922b097ead875069cebe8b40c004a4906020016112ec565b333014611e225760405162461bcd60e51b815260206004820152601f60248201527f4f4654436f72653a2063616c6c6572206d757374206265204f4654436f7265006044820152606401610a94565b611e2d308686612899565b9350846001600160a01b03168a61ffff167fbf551ec93859b170f9b2141bd9298bf3f64322c6f7beb2543a0cb669834118bf86604051611e6f91815260200190565b60405180910390a36040517f7fcf35da0000000000000000000000000000000000000000000000000000000081526001600160a01b03861690637fcf35da908390611ecc908e908e908e908e908e908d908d908d906004016146f3565b600060405180830381600088803b158015611ee657600080fd5b5087f1158015611efa573d6000803e3d6000fd5b505050505050505050505050505050565b611f136121f9565b61ffff83166000908152600160205260409020611f3182848361474f565b507ffa41487ad5d6728f0b19276fa1eddc16558578f5109fc39d2dc33c3230470dab838383604051611696939291906144cf565b61ffff828116600090815260086020908152604080832081518083019092525493841681526201000090930460ff1615801591840191909152909190611fca57805161271090611fb99061ffff168561480f565b611fc39190614855565b9150611ff0565b60095461ffff1615611feb5760095461271090611fb99061ffff168561480f565b600091505b5092915050565b611fff6121f9565b6001600160a01b03811661207b5760405162461bcd60e51b815260206004820152602660248201527f4f776e61626c653a206e6577206f776e657220697320746865207a65726f206160448201527f64647265737300000000000000000000000000000000000000000000000000006064820152608401610a94565b61208481612635565b50565b6040517ff5ecbdbc00000000000000000000000000000000000000000000000000000000815261ffff808616600483015284166024820152306044820152606481018290526060907f00000000000000000000000000000000000000000000000000000000000000006001600160a01b03169063f5ecbdbc90608401600060405180830381865afa158015612120573d6000803e3d6000fd5b505050506040513d6000823e601f3d908101601f191682016040526121489190810190614869565b90505b949350505050565b6000806121e35a60966366ad5c8a60e01b8989898960405160240161217b94939291906148d7565b60408051601f198184030181529190526020810180517bffffffffffffffffffffffffffffffffffffffffffffffffffffffff167fffffffff000000000000000000000000000000000000000000000000000000009093169290921790915230929190612a7b565b9150915081610f2457610f248686868685612b06565b6000546001600160a01b031633146114d95760405162461bcd60e51b815260206004820181905260248201527f4f776e61626c653a2063616c6c6572206973206e6f7420746865206f776e65726044820152606401610a94565b6000806122608484611f65565b905061226c8184614535565b91508015612294576009546122929086906201000090046001600160a01b031683612899565b505b935093915050565b60006122aa87828481612ba4565b6122b385612c3b565b5090506122c288888884612c7b565b9050600081116123145760405162461bcd60e51b815260206004820152601960248201527f4f4654436f72653a20616d6f756e7420746f6f20736d616c6c000000000000006044820152606401610a94565b60006123778761232384612e04565b6040805160006020820152602181019390935260c09190911b7fffffffffffffffff000000000000000000000000000000000000000000000000166041830152805160298184030181526049909201905290565b9050612387888287878734612e8b565b86896001600160a01b03168961ffff167fd81fc9b8523134ed613870ed029d6170cbb73aa6a6bc311b9a642689fb9df59a856040516123c891815260200190565b60405180910390a450979650505050505050565b60008060006123ee8761232388612e04565b6040517f40a7bb100000000000000000000000000000000000000000000000000000000081529091506001600160a01b037f000000000000000000000000000000000000000000000000000000000000000016906340a7bb109061245e908b90309086908b908b90600401614916565b6040805180830381865afa15801561247a573d6000803e3d6000fd5b505050506040513d601f19601f8201168201806040525081019061249e9190614968565b92509250509550959350505050565b60006124c68960018467ffffffffffffffff8916612ba4565b6124cf87612c3b565b5090506124de8a8a8a84612c7b565b9050600081116125305760405162461bcd60e51b815260206004820152601960248201527f4f4654436f72653a20616d6f756e7420746f6f20736d616c6c000000000000006044820152606401610a94565b6000612547338a61254085612e04565b8a8a613057565b90506125578a8287878734612e8b565b888b6001600160a01b03168b61ffff167fd81fc9b8523134ed613870ed029d6170cbb73aa6a6bc311b9a642689fb9df59a8560405161259891815260200190565b60405180910390a4509998505050505050505050565b60006125ba8282613098565b905060ff81166125d5576125d0858585856130fe565b610d9c565b60001960ff8216016125ed576125d08585858561318e565b60405162461bcd60e51b815260206004820152601c60248201527f4f4654436f72653a20756e6b6e6f776e207061636b65742074797065000000006044820152606401610a94565b600080546001600160a01b038381167fffffffffffffffffffffffff0000000000000000000000000000000000000000831681178455604051919092169283917f8be0079c531659141344cd1fd0a4f28419497f9722a3daafe3b4186f6b6457e09190a35050565b6060816126ab81601f61498c565b10156126f95760405162461bcd60e51b815260206004820152600e60248201527f736c6963655f6f766572666c6f770000000000000000000000000000000000006044820152606401610a94565b612703828461498c565b845110156127535760405162461bcd60e51b815260206004820152601160248201527f736c6963655f6f75744f66426f756e64730000000000000000000000000000006044820152606401610a94565b60608215801561277257604051915060008252602082016040526127bc565b6040519150601f8416801560200281840101858101878315602002848b0101015b818310156127ab578051835260209283019201612793565b5050858452601f01601f1916604052505b50949350505050565b60008060006127d8338a6125408b612e04565b6040517f40a7bb100000000000000000000000000000000000000000000000000000000081529091506001600160a01b037f000000000000000000000000000000000000000000000000000000000000000016906340a7bb1090612848908d90309086908b908b90600401614916565b6040805180830381865afa158015612864573d6000803e3d6000fd5b505050506040513d601f19601f820116820180604052508101906128889190614968565b925092505097509795505050505050565b6040517f70a082310000000000000000000000000000000000000000000000000000000081526001600160a01b03838116600483015260009182917f000000000000000000000000000000000000000000000000000000000000000016906370a0823190602401602060405180830381865afa15801561291d573d6000803e3d6000fd5b505050506040513d601f19601f8201168201806040525081019061294191906144ed565b9050306001600160a01b0386160361298c576129876001600160a01b037f00000000000000000000000000000000000000000000000000000000000000001685856133bd565b6129c1565b6129c16001600160a01b037f00000000000000000000000000000000000000000000000000000000000000001686868661346b565b6040517f70a082310000000000000000000000000000000000000000000000000000000081526001600160a01b03858116600483015282917f0000000000000000000000000000000000000000000000000000000000000000909116906370a0823190602401602060405180830381865afa158015612a44573d6000803e3d6000fd5b505050506040513d601f19601f82011682018060405250810190612a6891906144ed565b612a729190614535565b95945050505050565b6000606060008060008661ffff1667ffffffffffffffff811115612aa157612aa1613f4b565b6040519080825280601f01601f191660200182016040528015612acb576020820181803683370190505b50905060008087516020890160008d8df191503d925086831115612aed578692505b828152826000602083013e909890975095505050505050565b8180519060200120600560008761ffff1661ffff16815260200190815260200160002085604051612b37919061499f565b90815260408051918290036020908101832067ffffffffffffffff88166000908152915220919091557fe183f33de2837795525b4792ca4cd60535bd77c53b7e7030060bfcf5734d6b0c90612b9590879087908790879087906149bb565b60405180910390a15050505050565b60065460ff1615612bc057612bbb848484846134bc565b612c35565b815115612c355760405162461bcd60e51b815260206004820152602660248201527f4f4654436f72653a205f61646170746572506172616d73206d7573742062652060448201527f656d7074792e00000000000000000000000000000000000000000000000000006064820152608401610a94565b50505050565b600080612c687f000000000000000000000000000000000000000000000000000000000000000084614a0e565b9050612c748184614535565b9150915091565b60006001600160a01b0385163314612cfb5760405162461bcd60e51b815260206004820152602960248201527f50726f78794f4654576974684665653a206f776e6572206973206e6f7420736560448201527f6e642063616c6c657200000000000000000000000000000000000000000000006064820152608401610a94565b612d06853084612899565b9150600080612d1484612c3b565b90925090508015612d5357612d536001600160a01b037f00000000000000000000000000000000000000000000000000000000000000001688836133bd565b81600a6000828254612d65919061498c565b9091555060009050612d7e67ffffffffffffffff61359b565b9050600a54811015612df85760405162461bcd60e51b815260206004820152602860248201527f50726f78794f4654576974684665653a206f7574626f756e64416d6f756e742060448201527f6f766572666c6f770000000000000000000000000000000000000000000000006064820152608401610a94565b50909695505050505050565b600080612e317f000000000000000000000000000000000000000000000000000000000000000084614855565b905067ffffffffffffffff811115610cfb5760405162461bcd60e51b815260206004820152601a60248201527f4f4654436f72653a20616d6f756e745344206f766572666c6f770000000000006044820152606401610a94565b61ffff861660009081526001602052604081208054612ea9906143e2565b80601f0160208091040260200160405190810160405280929190818152602001828054612ed5906143e2565b8015612f225780601f10612ef757610100808354040283529160200191612f22565b820191906000526020600020905b815481529060010190602001808311612f0557829003601f168201915b505050505090508051600003612fa05760405162461bcd60e51b815260206004820152603060248201527f4c7a4170703a2064657374696e6174696f6e20636861696e206973206e6f742060448201527f61207472757374656420736f75726365000000000000000000000000000000006064820152608401610a94565b612fab8787516135d1565b6040517fc58031000000000000000000000000000000000000000000000000000000000081526001600160a01b037f0000000000000000000000000000000000000000000000000000000000000000169063c580310090849061301c908b9086908c908c908c908c90600401614a22565b6000604051808303818588803b15801561303557600080fd5b505af1158015613049573d6000803e3d6000fd5b505050505050505050505050565b6060600185856001600160a01b038916858760405160200161307e96959493929190614a89565b604051602081830303815290604052905095945050505050565b60006130a582600161498c565b835110156130f55760405162461bcd60e51b815260206004820152601360248201527f746f55696e74385f6f75744f66426f756e6473000000000000000000000000006044820152606401610a94565b50016001015190565b60008061310a83613642565b90925090506001600160a01b0382166131235761dead91505b600061312e8261359b565b905061313b8784836136cc565b9050826001600160a01b03168761ffff167fbf551ec93859b170f9b2141bd9298bf3f64322c6f7beb2543a0cb669834118bf8360405161317d91815260200190565b60405180910390a350505050505050565b600080600080600061319f86613707565b945094509450945094506000600760008b61ffff1661ffff168152602001908152602001600020896040516131d4919061499f565b908152604080516020928190038301902067ffffffffffffffff8b166000908152925281205460ff1691506132088561359b565b9050816132955761321a8b30836136cc565b61ffff8c16600090815260076020526040908190209051919250600191613242908d9061499f565b908152604080516020928190038301902067ffffffffffffffff8d1660009081529252902080547fffffffffffffffffffffffffffffffffffffffffffffffffffffffffffffff00169115159190911790555b6001600160a01b0386163b6132ec576040516001600160a01b03871681527f9aedf5fdba8716db3b6705ca00150643309995d4f818a249ed6dde6677e7792d9060200160405180910390a150505050505050612c35565b8a8a8a8a8a8a868a60008a61330b578b67ffffffffffffffff1661330d565b5a5b905060008061333f5a609663eaffd49a60e01b8e8e8e8d8d8d8d8d60405160240161217b989796959493929190614b1c565b915091508115613398578751602089012060405161ffff8d16907fb8890edbfc1c74692f527444645f95489c3703cc2df42e4a366f5d06fa6cd8849061338a908e908e908690614b8f565b60405180910390a2506133a5565b6133a58b8b8b8b85612b06565b50505050505050505050505050505050505050505050565b6040516001600160a01b0383166024820152604481018290526134669084907fa9059cbb00000000000000000000000000000000000000000000000000000000906064015b60408051601f198184030181529190526020810180517bffffffffffffffffffffffffffffffffffffffffffffffffffffffff167fffffffff00000000000000000000000000000000000000000000000000000000909316929092179091526137c3565b505050565b6040516001600160a01b0380851660248301528316604482015260648101829052612c359085907f23b872dd0000000000000000000000000000000000000000000000000000000090608401613402565b60006134c7836138ab565b61ffff8087166000908152600260209081526040808320938916835292905290812054919250906134f990849061498c565b90506000811161354b5760405162461bcd60e51b815260206004820152601a60248201527f4c7a4170703a206d696e4761734c696d6974206e6f74207365740000000000006044820152606401610a94565b80821015610f245760405162461bcd60e51b815260206004820152601b60248201527f4c7a4170703a20676173206c696d697420697320746f6f206c6f7700000000006044820152606401610a94565b6000610cfb7f000000000000000000000000000000000000000000000000000000000000000067ffffffffffffffff841661480f565b61ffff8216600090815260036020526040812054908190036135f257506127105b808211156134665760405162461bcd60e51b815260206004820181905260248201527f4c7a4170703a207061796c6f61642073697a6520697320746f6f206c617267656044820152606401610a94565b600080806136508482613098565b60ff16148015613661575082516029145b6136ad5760405162461bcd60e51b815260206004820152601860248201527f4f4654436f72653a20696e76616c6964207061796c6f616400000000000000006044820152606401610a94565b6136b883600d613907565b91506136c583602161397d565b9050915091565b600081600a60008282546136e09190614535565b9091555050306001600160a01b038416036136fc575080611047565b61214b308484612899565b60008080606081600161371a8783613098565b60ff161461376a5760405162461bcd60e51b815260206004820152601860248201527f4f4654436f72653a20696e76616c6964207061796c6f616400000000000000006044820152606401610a94565b61377586600d613907565b935061378286602161397d565b925061378f8660296139e3565b945061379c86604961397d565b90506137b860518088516137b09190614535565b88919061269d565b915091939590929450565b6000613818826040518060400160405280602081526020017f5361666545524332303a206c6f772d6c6576656c2063616c6c206661696c6564815250856001600160a01b0316613a499092919063ffffffff16565b90508051600014806138395750808060200190518101906138399190614bbe565b6134665760405162461bcd60e51b815260206004820152602a60248201527f5361666545524332303a204552433230206f7065726174696f6e20646964206e60448201527f6f742073756363656564000000000000000000000000000000000000000000006064820152608401610a94565b60006022825110156138ff5760405162461bcd60e51b815260206004820152601c60248201527f4c7a4170703a20696e76616c69642061646170746572506172616d73000000006044820152606401610a94565b506022015190565b600061391482601461498c565b835110156139645760405162461bcd60e51b815260206004820152601560248201527f746f416464726573735f6f75744f66426f756e647300000000000000000000006044820152606401610a94565b5001602001516c01000000000000000000000000900490565b600061398a82600861498c565b835110156139da5760405162461bcd60e51b815260206004820152601460248201527f746f55696e7436345f6f75744f66426f756e64730000000000000000000000006044820152606401610a94565b50016008015190565b60006139f082602061498c565b83511015613a405760405162461bcd60e51b815260206004820152601560248201527f746f427974657333325f6f75744f66426f756e647300000000000000000000006044820152606401610a94565b50016020015190565b606061214b848460008585600080866001600160a01b03168587604051613a70919061499f565b60006040518083038185875af1925050503d8060008114613aad576040519150601f19603f3d011682016040523d82523d6000602084013e613ab2565b606091505b5091509150613ac387838387613ace565b979650505050505050565b60608315613b3d578251600003613b36576001600160a01b0385163b613b365760405162461bcd60e51b815260206004820152601d60248201527f416464726573733a2063616c6c20746f206e6f6e2d636f6e74726163740000006044820152606401610a94565b508161214b565b61214b8383815115613b525781518083602001fd5b8060405162461bcd60e51b8152600401610a9491906140c4565b803561ffff81168114613b7e57600080fd5b919050565b60008083601f840112613b9557600080fd5b50813567ffffffffffffffff811115613bad57600080fd5b602083019150836020828501011115613bc557600080fd5b9250929050565b803567ffffffffffffffff81168114613b7e57600080fd5b60008060008060008060808789031215613bfd57600080fd5b613c0687613b6c565b9550602087013567ffffffffffffffff80821115613c2357600080fd5b613c2f8a838b01613b83565b9097509550859150613c4360408a01613bcc565b94506060890135915080821115613c5957600080fd5b50613c6689828a01613b83565b979a9699509497509295939492505050565b600060208284031215613c8a57600080fd5b81357fffffffff000000000000000000000000000000000000000000000000000000008116811461104757600080fd5b600060208284031215613ccc57600080fd5b61104782613b6c565b60008060408385031215613ce857600080fd5b613cf183613b6c565b946020939093013593505050565b6001600160a01b038116811461208457600080fd5b600060608284031215613d2657600080fd5b50919050565b60008060008060008060c08789031215613d4557600080fd5b8635613d5081613cff565b9550613d5e60208801613b6c565b945060408701359350606087013592506080870135915060a087013567ffffffffffffffff811115613d8f57600080fd5b613d9b89828a01613d14565b9150509295509295509295565b801515811461208457600080fd5b60008060008060008060a08789031215613dcf57600080fd5b613dd887613b6c565b955060208701359450604087013593506060870135613df681613da8565b9250608087013567ffffffffffffffff811115613e1257600080fd5b613c6689828a01613b83565b600080600060408486031215613e3357600080fd5b613e3c84613b6c565b9250602084013567ffffffffffffffff811115613e5857600080fd5b613e6486828701613b83565b9497909650939450505050565b60008060008060008060008060006101008a8c031215613e9057600080fd5b8935613e9b81613cff565b9850613ea960208b01613b6c565b975060408a0135965060608a0135955060808a0135945060a08a013567ffffffffffffffff80821115613edb57600080fd5b613ee78d838e01613b83565b9096509450849150613efb60c08d01613bcc565b935060e08c0135915080821115613f1157600080fd5b50613f1e8c828d01613d14565b9150509295985092959850929598565b600060208284031215613f4057600080fd5b813561104781613cff565b7f4e487b7100000000000000000000000000000000000000000000000000000000600052604160045260246000fd5b604051601f8201601f1916810167ffffffffffffffff81118282101715613fa357613fa3613f4b565b604052919050565b600067ffffffffffffffff821115613fc557613fc5613f4b565b50601f01601f191660200190565b600080600060608486031215613fe857600080fd5b613ff184613b6c565b9250602084013567ffffffffffffffff81111561400d57600080fd5b8401601f8101861361401e57600080fd5b803561403161402c82613fab565b613f7a565b81815287602083850101111561404657600080fd5b8160208401602083013760006020838301015280945050505061406b60408501613bcc565b90509250925092565b60005b8381101561408f578181015183820152602001614077565b50506000910152565b600081518084526140b0816020860160208601614074565b601f01601f19169290920160200192915050565b6020815260006110476020830184614098565b6000806000606084860312156140ec57600080fd5b6140f584613b6c565b9250602084013561410581613da8565b915061406b60408501613b6c565b6000806040838503121561412657600080fd5b61412f83613b6c565b915061413d60208401613b6c565b90509250929050565b600080600080600080600080600060e08a8c03121561416457600080fd5b61416d8a613b6c565b985060208a0135975060408a0135965060608a013567ffffffffffffffff8082111561419857600080fd5b6141a48d838e01613b83565b90985096508691506141b860808d01613bcc565b955060a08c013591506141ca82613da8565b90935060c08b013590808211156141e057600080fd5b506141ed8c828d01613b83565b915080935050809150509295985092959850929598565b60008060008060006080868803121561421c57600080fd5b61422586613b6c565b945061423360208701613b6c565b935060408601359250606086013567ffffffffffffffff81111561425657600080fd5b61426288828901613b83565b969995985093965092949392505050565b60008060006060848603121561428857600080fd5b61429184613b6c565b925061429f60208501613b6c565b9150604084013590509250925092565b6000602082840312156142c157600080fd5b813561104781613da8565b6000806000806000806000806000806101008b8d0312156142ec57600080fd5b6142f58b613b6c565b995060208b013567ffffffffffffffff8082111561431257600080fd5b61431e8e838f01613b83565b909b50995089915061433260408e01613bcc565b985060608d0135975060808d0135915061434b82613cff565b90955060a08c0135945060c08c0135908082111561436857600080fd5b506143758d828e01613b83565b9150809450508092505060e08b013590509295989b9194979a5092959850565b600080600080608085870312156143ab57600080fd5b6143b485613b6c565b93506143c260208601613b6c565b925060408501356143d281613cff565b9396929550929360600135925050565b600181811c908216806143f657607f821691505b602082108103613d26577f4e487b7100000000000000000000000000000000000000000000000000000000600052602260045260246000fd5b8183823760009101908152919050565b60008083357fffffffffffffffffffffffffffffffffffffffffffffffffffffffffffffffe184360301811261447457600080fd5b83018035915067ffffffffffffffff82111561448f57600080fd5b602001915036819003821315613bc557600080fd5b818352818160208501375060006020828401015260006020601f19601f840116840101905092915050565b61ffff841681526040602082015260006121486040830184866144a4565b6000602082840312156144ff57600080fd5b5051919050565b7f4e487b7100000000000000000000000000000000000000000000000000000000600052601160045260246000fd5b81810381811115610cfb57610cfb614506565b8284823760609190911b7fffffffffffffffffffffffffffffffffffffffff000000000000000000000000169101908152601401919050565b601f821115613466576000816000526020600020601f850160051c810160208610156145aa5750805b601f850160051c820191505b81811015610f24578281556001016145b6565b815167ffffffffffffffff8111156145e3576145e3613f4b565b6145f7816145f184546143e2565b84614581565b602080601f83116001811461462c57600084156146145750858301515b600019600386901b1c1916600185901b178555610f24565b600085815260208120601f198616915b8281101561465b5788860151825594840194600190910190840161463c565b50858210156146795787850151600019600388901b60f8161c191681555b5050505050600190811b01905550565b600061ffff808816835280871660208401525084604083015260806060830152613ac36080830184866144a4565b61ffff861681526080602082015260006146d56080830186886144a4565b67ffffffffffffffff94909416604083015250606001529392505050565b61ffff8916815260c06020820152600061471160c08301898b6144a4565b67ffffffffffffffff8816604084015286606084015285608084015282810360a08401526147408185876144a4565b9b9a5050505050505050505050565b67ffffffffffffffff83111561476757614767613f4b565b61477b8361477583546143e2565b83614581565b6000601f8411600181146147af57600085156147975750838201355b600019600387901b1c1916600186901b178355610d9c565b600083815260209020601f19861690835b828110156147e057868501358255602094850194600190920191016147c0565b50868210156147fd5760001960f88860031b161c19848701351681555b505060018560011b0183555050505050565b8082028115828204841417610cfb57610cfb614506565b7f4e487b7100000000000000000000000000000000000000000000000000000000600052601260045260246000fd5b60008261486457614864614826565b500490565b60006020828403121561487b57600080fd5b815167ffffffffffffffff81111561489257600080fd5b8201601f810184136148a357600080fd5b80516148b161402c82613fab565b8181528560208385010111156148c657600080fd5b612a72826020830160208601614074565b61ffff851681526080602082015260006148f46080830186614098565b67ffffffffffffffff851660408401528281036060840152613ac38185614098565b61ffff861681526001600160a01b038516602082015260a06040820152600061494260a0830186614098565b8415156060840152828103608084015261495c8185614098565b98975050505050505050565b6000806040838503121561497b57600080fd5b505080516020909101519092909150565b80820180821115610cfb57610cfb614506565b600082516149b1818460208701614074565b9190910192915050565b61ffff8616815260a0602082015260006149d860a0830187614098565b67ffffffffffffffff8616604084015282810360608401526149fa8186614098565b9050828103608084015261495c8185614098565b600082614a1d57614a1d614826565b500690565b61ffff8716815260c060208201526000614a3f60c0830188614098565b8281036040840152614a518188614098565b6001600160a01b0387811660608601528616608085015283810360a08501529050614a7c8185614098565b9998505050505050505050565b7fff000000000000000000000000000000000000000000000000000000000000008760f81b16815285600182015260007fffffffffffffffff000000000000000000000000000000000000000000000000808760c01b166021840152856029840152808560c01b166049840152508251614b0a816051850160208701614074565b91909101605101979650505050505050565b600061010061ffff8b168352806020840152614b3a8184018b614098565b905067ffffffffffffffff891660408401528760608401526001600160a01b03871660808401528560a084015282810360c0840152614b798186614098565b9150508260e08301529998505050505050505050565b606081526000614ba26060830186614098565b67ffffffffffffffff9490941660208301525060400152919050565b600060208284031215614bd057600080fd5b815161104781613da856fea264697066735822122082a4bae125e4968443879ec25c656628acbd40ab26bd1037a9c37ce88b29efce64736f6c63430008160033",
  "linkReferences": {},
  "deployedLinkReferences": {}
}