{
  "_format": "hh-sol-artifact-1",
  "contractName": "Seer",
  "sourceName": "contracts/oracle/Seer.sol",
  "abi": [
    {
      "inputs": [
        {
          "internalType": "string",
          "name": "__name",
          "type": "string"
        },
        {
          "internalType": "string",
          "name": "__symbol",
          "type": "string"
        },
        {
          "internalType": "uint8",
          "name": "_decimals",
          "type": "uint8"
        },
        {
          "internalType": "address[]",
          "name": "addressInAndOutUni",
          "type": "address[]"
        },
        {
          "internalType": "contract IUniswapV3Pool[]",
          "name": "_circuitUniswap",
          "type": "address[]"
        },
        {
          "internalType": "uint8[]",
          "name": "_circuitUniIsMultiplied",
          "type": "uint8[]"
        },
        {
          "internalType": "uint32",
          "name": "_twapPeriod",
          "type": "uint32"
        },
        {
          "internalType": "uint16",
          "name": "observationLength",
          "type": "uint16"
        },
        {
          "internalType": "uint8",
          "name": "_uniFinalCurrency",
          "type": "uint8"
        },
        {
          "internalType": "address[]",
          "name": "_circuitChainlink",
          "type": "address[]"
        },
        {
          "internalType": "uint8[]",
          "name": "_circuitChainIsMultiplied",
          "type": "uint8[]"
        },
        {
          "internalType": "uint32",
          "name": "_stalePeriod",
          "type": "uint32"
        },
        {
          "internalType": "address[]",
          "name": "guardians",
          "type": "address[]"
        },
        {
          "internalType": "bytes32",
          "name": "_description",
          "type": "bytes32"
        }
      ],
      "stateMutability": "nonpayable",
      "type": "constructor"
    },
    {
      "inputs": [],
      "name": "InvalidChainlinkRate",
      "type": "error"
    },
    {
      "anonymous": false,
      "inputs": [
        {
          "indexed": true,
          "internalType": "bytes32",
          "name": "role",
          "type": "bytes32"
        },
        {
          "indexed": true,
          "internalType": "bytes32",
          "name": "previousAdminRole",
          "type": "bytes32"
        },
        {
          "indexed": true,
          "internalType": "bytes32",
          "name": "newAdminRole",
          "type": "bytes32"
        }
      ],
      "name": "RoleAdminChanged",
      "type": "event"
    },
    {
      "anonymous": false,
      "inputs": [
        {
          "indexed": true,
          "internalType": "bytes32",
          "name": "role",
          "type": "bytes32"
        },
        {
          "indexed": true,
          "internalType": "address",
          "name": "account",
          "type": "address"
        },
        {
          "indexed": true,
          "internalType": "address",
          "name": "sender",
          "type": "address"
        }
      ],
      "name": "RoleGranted",
      "type": "event"
    },
    {
      "anonymous": false,
      "inputs": [
        {
          "indexed": true,
          "internalType": "bytes32",
          "name": "role",
          "type": "bytes32"
        },
        {
          "indexed": true,
          "internalType": "address",
          "name": "account",
          "type": "address"
        },
        {
          "indexed": true,
          "internalType": "address",
          "name": "sender",
          "type": "address"
        }
      ],
      "name": "RoleRevoked",
      "type": "event"
    },
    {
      "inputs": [],
      "name": "BASE",
      "outputs": [
        {
          "internalType": "uint256",
          "name": "",
          "type": "uint256"
        }
      ],
      "stateMutability": "view",
      "type": "function"
    },
    {
      "inputs": [],
      "name": "DEFAULT_ADMIN_ROLE",
      "outputs": [
        {
          "internalType": "bytes32",
          "name": "",
          "type": "bytes32"
        }
      ],
      "stateMutability": "view",
      "type": "function"
    },
    {
      "inputs": [],
      "name": "GUARDIAN_ROLE_CHAINLINK",
      "outputs": [
        {
          "internalType": "bytes32",
          "name": "",
          "type": "bytes32"
        }
      ],
      "stateMutability": "view",
      "type": "function"
    },
    {
      "inputs": [],
      "name": "GUARDIAN_ROLE_UNISWAP",
      "outputs": [
        {
          "internalType": "bytes32",
          "name": "",
          "type": "bytes32"
        }
      ],
      "stateMutability": "view",
      "type": "function"
    },
    {
      "inputs": [],
      "name": "_name",
      "outputs": [
        {
          "internalType": "string",
          "name": "",
          "type": "string"
        }
      ],
      "stateMutability": "view",
      "type": "function"
    },
    {
      "inputs": [],
      "name": "_symbol",
      "outputs": [
        {
          "internalType": "string",
          "name": "",
          "type": "string"
        }
      ],
      "stateMutability": "view",
      "type": "function"
    },
    {
      "inputs": [
        {
          "internalType": "uint256",
          "name": "",
          "type": "uint256"
        }
      ],
      "name": "chainlinkDecimals",
      "outputs": [
        {
          "internalType": "uint8",
          "name": "",
          "type": "uint8"
        }
      ],
      "stateMutability": "view",
      "type": "function"
    },
    {
      "inputs": [
        {
          "internalType": "uint32",
          "name": "_stalePeriod",
          "type": "uint32"
        }
      ],
      "name": "changeStalePeriod",
      "outputs": [],
      "stateMutability": "nonpayable",
      "type": "function"
    },
    {
      "inputs": [
        {
          "internalType": "uint32",
          "name": "_twapPeriod",
          "type": "uint32"
        }
      ],
      "name": "changeTwapPeriod",
      "outputs": [],
      "stateMutability": "nonpayable",
      "type": "function"
    },
    {
      "inputs": [
        {
          "internalType": "uint256",
          "name": "",
          "type": "uint256"
        }
      ],
      "name": "circuitChainIsMultiplied",
      "outputs": [
        {
          "internalType": "uint8",
          "name": "",
          "type": "uint8"
        }
      ],
      "stateMutability": "view",
      "type": "function"
    },
    {
      "inputs": [
        {
          "internalType": "uint256",
          "name": "",
          "type": "uint256"
        }
      ],
      "name": "circuitChainlink",
      "outputs": [
        {
          "internalType": "contract AggregatorV3Interface",
          "name": "",
          "type": "address"
        }
      ],
      "stateMutability": "view",
      "type": "function"
    },
    {
      "inputs": [
        {
          "internalType": "uint256",
          "name": "",
          "type": "uint256"
        }
      ],
      "name": "circuitUniIsMultiplied",
      "outputs": [
        {
          "internalType": "uint8",
          "name": "",
          "type": "uint8"
        }
      ],
      "stateMutability": "view",
      "type": "function"
    },
    {
      "inputs": [
        {
          "internalType": "uint256",
          "name": "",
          "type": "uint256"
        }
      ],
      "name": "circuitUniswap",
      "outputs": [
        {
          "internalType": "contract IUniswapV3Pool",
          "name": "",
          "type": "address"
        }
      ],
      "stateMutability": "view",
      "type": "function"
    },
    {
      "inputs": [],
      "name": "decimals",
      "outputs": [
        {
          "internalType": "uint8",
          "name": "",
          "type": "uint8"
        }
      ],
      "stateMutability": "view",
      "type": "function"
    },
    {
      "inputs": [],
      "name": "description",
      "outputs": [
        {
          "internalType": "bytes32",
          "name": "",
          "type": "bytes32"
        }
      ],
      "stateMutability": "view",
      "type": "function"
    },
    {
      "inputs": [
        {
          "internalType": "bytes",
          "name": "",
          "type": "bytes"
        }
      ],
      "name": "get",
      "outputs": [
        {
          "internalType": "bool",
          "name": "success",
          "type": "bool"
        },
        {
          "internalType": "uint256",
          "name": "rate",
          "type": "uint256"
        }
      ],
      "stateMutability": "nonpayable",
      "type": "function"
    },
    {
      "inputs": [
        {
          "internalType": "bytes32",
          "name": "role",
          "type": "bytes32"
        }
      ],
      "name": "getRoleAdmin",
      "outputs": [
        {
          "internalType": "bytes32",
          "name": "",
          "type": "bytes32"
        }
      ],
      "stateMutability": "view",
      "type": "function"
    },
    {
      "inputs": [
        {
          "internalType": "bytes32",
          "name": "role",
          "type": "bytes32"
        },
        {
          "internalType": "address",
          "name": "account",
          "type": "address"
        }
      ],
      "name": "grantRole",
      "outputs": [],
      "stateMutability": "nonpayable",
      "type": "function"
    },
    {
      "inputs": [
        {
          "internalType": "bytes32",
          "name": "role",
          "type": "bytes32"
        },
        {
          "internalType": "address",
          "name": "account",
          "type": "address"
        }
      ],
      "name": "hasRole",
      "outputs": [
        {
          "internalType": "bool",
          "name": "",
          "type": "bool"
        }
      ],
      "stateMutability": "view",
      "type": "function"
    },
    {
      "inputs": [],
      "name": "inBase",
      "outputs": [
        {
          "internalType": "uint256",
          "name": "",
          "type": "uint256"
        }
      ],
      "stateMutability": "view",
      "type": "function"
    },
    {
      "inputs": [
        {
          "internalType": "uint16",
          "name": "newLengthStored",
          "type": "uint16"
        }
      ],
      "name": "increaseTWAPStore",
      "outputs": [],
      "stateMutability": "nonpayable",
      "type": "function"
    },
    {
      "inputs": [
        {
          "internalType": "bytes",
          "name": "",
          "type": "bytes"
        }
      ],
      "name": "name",
      "outputs": [
        {
          "internalType": "string",
          "name": "",
          "type": "string"
        }
      ],
      "stateMutability": "view",
      "type": "function"
    },
    {
      "inputs": [],
      "name": "outBase",
      "outputs": [
        {
          "internalType": "uint256",
          "name": "",
          "type": "uint256"
        }
      ],
      "stateMutability": "view",
      "type": "function"
    },
    {
      "inputs": [
        {
          "internalType": "bytes",
          "name": "",
          "type": "bytes"
        }
      ],
      "name": "peek",
      "outputs": [
        {
          "internalType": "bool",
          "name": "success",
          "type": "bool"
        },
        {
          "internalType": "uint256",
          "name": "rate",
          "type": "uint256"
        }
      ],
      "stateMutability": "view",
      "type": "function"
    },
    {
      "inputs": [
        {
          "internalType": "bytes",
          "name": "",
          "type": "bytes"
        }
      ],
      "name": "peekSpot",
      "outputs": [
        {
          "internalType": "uint256",
          "name": "rate",
          "type": "uint256"
        }
      ],
      "stateMutability": "view",
      "type": "function"
    },
    {
      "inputs": [],
      "name": "read",
      "outputs": [
        {
          "internalType": "uint256",
          "name": "",
          "type": "uint256"
        }
      ],
      "stateMutability": "view",
      "type": "function"
    },
    {
      "inputs": [],
      "name": "readAll",
      "outputs": [
        {
          "internalType": "uint256",
          "name": "",
          "type": "uint256"
        },
        {
          "internalType": "uint256",
          "name": "",
          "type": "uint256"
        }
      ],
      "stateMutability": "view",
      "type": "function"
    },
    {
      "inputs": [],
      "name": "readLower",
      "outputs": [
        {
          "internalType": "uint256",
          "name": "rate",
          "type": "uint256"
        }
      ],
      "stateMutability": "view",
      "type": "function"
    },
    {
      "inputs": [
        {
          "internalType": "uint256",
          "name": "quoteAmount",
          "type": "uint256"
        }
      ],
      "name": "readQuote",
      "outputs": [
        {
          "internalType": "uint256",
          "name": "",
          "type": "uint256"
        }
      ],
      "stateMutability": "view",
      "type": "function"
    },
    {
      "inputs": [
        {
          "internalType": "uint256",
          "name": "quoteAmount",
          "type": "uint256"
        }
      ],
      "name": "readQuoteLower",
      "outputs": [
        {
          "internalType": "uint256",
          "name": "",
          "type": "uint256"
        }
      ],
      "stateMutability": "view",
      "type": "function"
    },
    {
      "inputs": [],
      "name": "readUpper",
      "outputs": [
        {
          "internalType": "uint256",
          "name": "rate",
          "type": "uint256"
        }
      ],
      "stateMutability": "view",
      "type": "function"
    },
    {
      "inputs": [
        {
          "internalType": "bytes32",
          "name": "role",
          "type": "bytes32"
        },
        {
          "internalType": "address",
          "name": "account",
          "type": "address"
        }
      ],
      "name": "renounceRole",
      "outputs": [],
      "stateMutability": "nonpayable",
      "type": "function"
    },
    {
      "inputs": [
        {
          "internalType": "bytes32",
          "name": "role",
          "type": "bytes32"
        },
        {
          "internalType": "address",
          "name": "account",
          "type": "address"
        }
      ],
      "name": "revokeRole",
      "outputs": [],
      "stateMutability": "nonpayable",
      "type": "function"
    },
    {
      "inputs": [],
      "name": "stalePeriod",
      "outputs": [
        {
          "internalType": "uint32",
          "name": "",
          "type": "uint32"
        }
      ],
      "stateMutability": "view",
      "type": "function"
    },
    {
      "inputs": [
        {
          "internalType": "bytes",
          "name": "",
          "type": "bytes"
        }
      ],
      "name": "symbol",
      "outputs": [
        {
          "internalType": "string",
          "name": "",
          "type": "string"
        }
      ],
      "stateMutability": "view",
      "type": "function"
    },
    {
      "inputs": [],
      "name": "twapPeriod",
      "outputs": [
        {
          "internalType": "uint32",
          "name": "",
          "type": "uint32"
        }
      ],
      "stateMutability": "view",
      "type": "function"
    },
    {
      "inputs": [],
      "name": "uniFinalCurrency",
      "outputs": [
        {
          "internalType": "uint8",
          "name": "",
          "type": "uint8"
        }
      ],
      "stateMutability": "view",
      "type": "function"
    }
  ],
  "bytecode": "0x60e0806040523462000ab65762003481803803809162000020828562000ed6565b83398101906101c08183031262000ab65780516001600160401b03811162000ab657826200005091830162000efa565b60208201519092906001600160401b03811162000ab657816200007591840162000efa565b90620000846040840162000f71565b60608401519092906001600160401b03811162000ab65782620000a991860162000f98565b6080850151909390926001600160401b03841162000ab65780601f85880101121562000ab6578386015194620000df8662000f80565b94620000ef604051968762000ed6565b86865260208601906020829860051b828b0101019084821162000ab6578901602001915b81831062000eb45750505060a08701516001600160401b03811162000ab65782620001409189016200100f565b906200014f60c089016200107f565b60e08901519061ffff8216820362000ab657620001706101008b0162000f71565b6101208b01519094906001600160401b03811162000ab6578662000196918d0162000f98565b6101408c0151909a90966001600160401b03881162000ab657620001be818e998a016200100f565b90610180620001d16101608b016200107f565b9901516001600160401b03811162000ab6576101a0918f91620001f5920162000f98565b9d0151978c51801562000e89578f9e9c9d620002228e62000219865185146200115b565b511515620010e7565b60008e5b518110156200031257908e9f9d9c9b9a9998979695949392918f90620002bb91620002748260018060a01b03926200026e84620002648484620010aa565b511615156200112a565b620010aa565b5116600081815260008051602062003441833981519152602052604090205460008051602062003461833981519152919060029060ff1615620002d0575b5050506200111a565b909192939495969798999a9b9c9d9f62000226565b826000526020526040600020816000526020526040600020600160ff198254161790553391600080516020620033e1833981519152600080a4388080620002b2565b506200031d6200118e565b60005b82811062000d3b5750505063ffffffff1663ffffffff19600354161760035580519060018060401b0382116200083e576801000000000000000082116200083e576020906005548360055580841062000ce2575b500190600560005260206000209060005b8160051c811062000c9f5750601f19811680820362000c4b575b50505050620003b18a511515620010e7565b60005b8a51811015620004705762000428906001600160a01b03620003e2828e6200026e84620002648484620010aa565b5116600081815260008051602062003441833981519152602052604090205460008051602062003461833981519152919060029060ff16156200042e575050506200111a565b620003b4565b826000526020526040600020816000526020526040600020600160ff198254161790553391600080516020620033e1833981519152600080a48e8080620002b2565b508b99508a6200047f6200118e565b600063ffffffff851660030b131562000c2057805193841562000bf55763ffffffff90620004b0855187146200115b565b1663ffffffff196007541617600755519060018060401b0382116200083e576801000000000000000082116200083e576008548260085580831062000bc8575b506008600052602060002060005b83811062000baa5750508251929150506001600160401b0382116200083e576801000000000000000082116200083e576020906009548360095580841062000b50575b500190600960005260206000209060005b8160051c811062000b0d5750601f19811681038062000abb575b5050505060005b81811062000a08575050506002815103620009dd57805115620009c757602081015181516001600160a01b03918216929060011015620009c7576004916040602092015116926040519283809263313ce56760e01b82525afa9081156200096d5760009162000979575b50600491620005ee602092620010bf565b60005560405163313ce56760e01b815292839182905afa80156200096d5760009062000926575b620006219150620010bf565b60a05260805260015582516001600160401b0381116200083e57600a54600181811c911680156200091b575b60208210146200081d57601f8111620008d9575b506020601f821160011462000860578192939460009262000854575b50508160011b916000199060031b1c191617600a555b81516001600160401b0381116200083e57600b54600181811c9116801562000833575b60208210146200081d57601f8111620007be575b50602092601f821160011462000753579281929360009262000747575b50508160011b916000199060031b1c191617600b555b60c0526040516122059081620011dc82396080518181816101ff01528181610d700152611145015260a0518181816108b401528181610d16015261111b015260c0518161075c0152f35b015190508380620006e7565b601f19821693600b60005260206000209160005b868110620007a557508360019596106200078b575b505050811b01600b55620006fd565b015160001960f88460031b161c191690558380806200077c565b9192602060018192868501518155019401920162000767565b600b6000526200080b907f0175b7a638427703f0dbe7bb9bbf987a2551717b34e79f33b5b1008d1fa01db9601f840160051c8101916020851062000812575b601f0160051c019062001091565b83620006ca565b9091508190620007fd565b634e487b7160e01b600052602260045260246000fd5b90607f1690620006b6565b634e487b7160e01b600052604160045260246000fd5b0151905084806200067d565b600a6000908152600080516020620034018339815191529190601f198416905b818110620008c057509583600195969710620008a6575b505050811b01600a5562000693565b015160001960f88460031b161c1916905584808062000897565b9192602060018192868b01518155019401920162000880565b600a600052620009149060008051602062003401833981519152601f840160051c810191602085106200081257601f0160051c019062001091565b8462000661565b90607f16906200064d565b6020823d60201162000964575b81620009426020938362000ed6565b810103126200096157506200095b620006219162000f71565b62000615565b80fd5b3d915062000933565b6040513d6000823e3d90fd5b906020823d602011620009be575b81620009966020938362000ed6565b81010312620009615750600491620005ee620009b460209362000f71565b92505091620005dd565b3d915062000987565b634e487b7160e01b600052603260045260246000fd5b60405162461bcd60e51b815260206004820152600360248201526231303760e81b6044820152606490fd5b600854811015620009c7576008600052600080516020620034218339815191528101546001600160a01b0316803b1562000ab6576000604051916332148f6760e01b8352818360049261ffff8916848301528160249586925af180156200096d5762000a83575b50505062000a7d906200111a565b62000573565b6001600160401b03831162000aa357505060405262000a7d8a8062000a6f565b604190634e487b7160e01b600052526000fd5b600080fd5b92600093845b81811062000adb5750505060051c0155888080806200056c565b909194602062000b026001928460ff8a5116919060ff809160031b9316831b921b19161790565b960192910162000ac1565b6000805b6020811062000b2857508382015560010162000552565b855190959160019160209160ff60038a901b81811b199092169216901b179201950162000b11565b62000b81906009600052601f84600020918187168062000b88575b500160051c810190601f860160051c0162001091565b8b62000541565b6000199081848a0160051c86010191825491890360031b1c1690558f62000b6b565b82516001600160a01b031681830155602090920191600101620004fe565b600860005262000bee906000805160206200342183398151915290810190840162001091565b8b620004f0565b60405162461bcd60e51b815260206004820152600360248201526231303360e81b6044820152606490fd5b60405162461bcd60e51b815260206004820152600360248201526218981960e91b6044820152606490fd5b92600093845b818403811062000c6d5750505060051c01558c8080806200039f565b909194602062000c946001928460ff8a5116919060ff809160031b9316831b921b19161790565b960192910162000c51565b6000805b6020811062000cba57508382015560010162000385565b855190959160019160209160ff60038a901b81811b199092169216901b179201950162000ca3565b62000d12906005600052601f84600020918187168062000d1957500160051c810190601f860160051c0162001091565b8f62000374565b6000199081848a0160051c86010191825491890360031b1c1690553862000b6b565b6001600160a01b0362000d4f8284620010aa565b511690600454680100000000000000008110156200083e576001810180600455811015620009c757600460008190527f8a35acfbc15ff81a39ae7d344fd709f28e8600b4aa8c65c6b64bfe7fe36bd19b90910180546001600160a01b0319168417905560405163313ce56760e01b815292602091849182905afa9182156200096d5760009262000e45575b5060065491680100000000000000008310156200083e576001830180600655831015620009c75762000e3762000e3f936006600052601f60ff60206000208360051c019416911683549060ff809160031b9316831b921b19161790565b90556200111a565b62000320565b90916020823d60201162000e80575b8162000e636020938362000ed6565b8101031262000961575062000e789062000f71565b903862000dda565b3d915062000e54565b60405162461bcd60e51b815260206004820152600360248201526218981b60e91b6044820152606490fd5b82516001600160a01b038116810362000ab65781526020928301920162000113565b601f909101601f19168101906001600160401b038211908210176200083e57604052565b919080601f8401121562000ab6578251906001600160401b0382116200083e576040519160209162000f36601f8301601f191684018562000ed6565b81845282828701011162000ab65760005b81811062000f5d57508260009394955001015290565b858101830151848201840152820162000f47565b519060ff8216820362000ab657565b6001600160401b0381116200083e5760051b60200190565b81601f8201121562000ab65780519162000fb28362000f80565b9262000fc2604051948562000ed6565b808452602092838086019260051b82010192831162000ab6578301905b82821062000fee575050505090565b81516001600160a01b038116810362000ab657815290830190830162000fdf565b81601f8201121562000ab657805191620010298362000f80565b9262001039604051948562000ed6565b808452602092838086019260051b82010192831162000ab6578301905b82821062001065575050505090565b838091620010738462000f71565b81520191019062001056565b519063ffffffff8216820362000ab657565b8181106200109d575050565b6000815560010162001091565b8051821015620009c75760209160051b010190565b60ff16604d8111620010d157600a0a90565b634e487b7160e01b600052601160045260246000fd5b15620010ef57565b60405162461bcd60e51b815260206004820152600360248201526231303160e81b6044820152606490fd5b6000198114620010d15760010190565b156200113257565b60405162461bcd60e51b81526020600482015260016024820152600360fc1b6044820152606490fd5b156200116357565b60405162461bcd60e51b81526020600482015260036024820152620c4c0d60ea1b6044820152606490fd5b600080516020620034618339815191528060005260026020526001604060002001818154817fbd79b86ffe0ab8e8776151514217cd7cacd52c909f66475c3af44e129f0b00ff600080a45556fe6040608081526004908136101561001557600080fd5b600091823560e01c9081630942d09a146108d757816322834baa1461089c578163240fd5ab1461087c578163248a9ca3146108515781632b271dde146108245781632f2ff15d14610780578163313ce567146107425781633593ba7b1461072257816336568abe146106cd57816341f654f7146106a5578163442133bd1461068757816357de26a414610662578163630914d11461062657816365cf10b61461055d5781637284e4161461053e57816391d148541461050357816392611e33146104dd5781639aefb5c3146104c05781639e0a850014610493578163a217fddf14610478578163a47b5a7c14610473578163a5b36a361461044e578163b09f126614610430578163b31dbb9f146103b9578163c699c4d61461039b578163cf330c2614610371578163d28d885214610353578163d39bbef01461032d578163d547741f146102f6578163d568866c146102c9578163d6d7d525146101e1578163d74febcb14610288578163dbda63de1461024557508063ec342ad014610223578063ee32d641146101e6578063eeb8a8d3146101e15763f6207326146101ba57600080fd5b346101dd57816003193601126101dd5760209063ffffffff600754169051908152f35b5080fd5b610c75565b50346101dd57816003193601126101dd576020905160ff7f0000000000000000000000000000000000000000000000000000000000000000168152f35b50346101dd57816003193601126101dd5760209051670de0b6b3a76400008152f35b905034610284576020366003190112610284573591600654831015610281575060ff61027260209361098c565b92905490519260031b1c168152f35b80fd5b8280fd5b90503461028457602036600319011261028457359160085483101561028157506102b3602092610c3f565b905491519160018060a01b039160031b1c168152f35b5050346101dd576102f2906102dd36610bf6565b50506102e7610b10565b905191829182610bca565b0390f35b5050346101dd57600161032a9161032561030f366109ca565b93909283875260026020528620015433906114f7565b61172b565b80f35b5050346101dd5761034b60209261034336610bf6565b505054610ceb565b915191825250f35b5050346101dd57816003193601126101dd576102f2906102e7610b10565b828434610281576020366003190112610281578235925483101561028157506102b3602092610c5a565b5050346101dd576102f2906103af36610bf6565b50506102e7610a42565b9050346102845760203660031901126102845780359163ffffffff831680930361042c576103e6336112d6565b838360030b131561040457505063ffffffff19600754161760075580f35b906020606492519162461bcd60e51b83528201526002602482015261393960f01b6044820152fd5b8380fd5b5050346101dd57816003193601126101dd576102f2906102e7610a42565b5050346101dd57816003193601126101dd5760209063ffffffff600354169051908152f35b6108d7565b5050346101dd57816003193601126101dd5751908152602090f35b905034610284576020366003190112610284573591600554831015610281575060ff61027260209361096b565b5050346101dd57816003193601126101dd57602091549051908152f35b5050346101dd57816003193601126101dd576104fb60209254610ceb565b509051908152f35b5050346101dd5760ff81602093610519366109ca565b908252600286528282206001600160a01b039091168252855220549151911615158152f35b5050346101dd57816003193601126101dd576020906001549051908152f35b919050346102845760203660031901126102845781359061ffff821680920361042c5783805b6008548110156106225761059681610c3f565b905460039190911b1c6001600160a01b0316803b15610284578280855180936332148f6760e01b8252888a8301528160249485925af18015610618576105e7575b50506105e2906117a1565b610583565b909192506001600160401b0382116106075750825284906105e2386105d7565b634e487b7160e01b87526041865286fd5b85513d86823e3d90fd5b5080f35b8390346101dd5760203660031901126101dd573563ffffffff81168091036101dd57610651336112d6565b63ffffffff19600354161760035580f35b5050346101dd57816003193601126101dd57610680602092546110f2565b9051908152f35b5050346101dd57816003193601126101dd5761034b60209254610ceb565b8284346102815780600319360112610281576106c19054610ceb565b82519182526020820152f35b839150346101dd576106de366109ca565b91336001600160a01b038416036106fa57509061032a9161172b565b606490602086519162461bcd60e51b83528201526002602482015261373160f01b6044820152fd5b82843461028157602036600319011261028157506104fb60209235610ceb565b5050346101dd57816003193601126101dd576020905160ff7f0000000000000000000000000000000000000000000000000000000000000000168152f35b5050346101dd57610790366109ca565b909182845260026020526107ab6001828620015433906114f7565b828452600260209081528185206001600160a01b039093168086529290528084205460ff16156107d9578380f35b82845260026020528084208285526020528320600160ff1982541617905533917f2f8788117e7eff1d82e926ec794901d17c78024a50270940304540a733656f0d8480a43880808380f35b905034610284576020366003190112610284573591600954831015610281575060ff610272602093610917565b9050346102845760203660031901126102845781602093600192358152600285522001549051908152f35b8284346102815760203660031901126102815750610680602092356110f2565b5050346101dd57816003193601126101dd57602090517f00000000000000000000000000000000000000000000000000000000000000008152f35b346109125760003660031901126109125760206040517f55435dd261a4b9b3364963f7738a7a662ad9c84396d64be3365284bb7f0a50418152f35b600080fd5b90600954821015610955576009600052600582901c7f6e1540171b6c0c960b71a7020d9f60077f6af931a8bbf590da0223dacf75c7af0191601f1690565b634e487b7160e01b600052603260045260246000fd5b90600554821015610955576005600052601f60206000208360051c01921690565b90600654821015610955576006600052600582901c7ff652222313e28459528d920b65115c16c04f3efc82aaedc97be59f3f377c0d3f0191601f1690565b604090600319011261091257600435906024356001600160a01b03811681036109125790565b608081019081106001600160401b03821117610a0b57604052565b634e487b7160e01b600052604160045260246000fd5b90601f801991011681019081106001600160401b03821117610a0b57604052565b604051906000600b5490600182811c90808416938415610b06575b6020948584108114610af25783885287949392918115610ad25750600114610a90575b5050610a8e92500383610a21565b565b90939150600b60005281600020936000915b818310610aba575050610a8e93508201013880610a80565b85548884018501529485019487945091830191610aa2565b915050610a8e94925060ff191682840152151560051b8201013880610a80565b634e487b7160e01b85526022600452602485fd5b91607f1691610a5d565b604051906000600a5490600182811c90808416938415610b9d575b6020948584108114610af25783885287949392918115610ad25750600114610b5b575050610a8e92500383610a21565b90939150600a60005281600020936000915b818310610b85575050610a8e93508201013880610a80565b85548884018501529485019487945091830191610b6d565b91607f1691610b2b565b60005b838110610bba5750506000910152565b8181015183820152602001610baa565b60409160208252610bea8151809281602086015260208686019101610ba7565b601f01601f1916010190565b906020600319830112610912576004356001600160401b039283821161091257806023830112156109125781600401359384116109125760248483010111610912576024019190565b60085481101561095557600860005260206000200190600090565b60045481101561095557600460005260206000200190600090565b3461091257610c8336610bf6565b50506040610c92600054610ceb565b9050815190600182526020820152f35b81810292918115918404141715610cb557565b634e487b7160e01b600052601160045260246000fd5b8115610cd5570490565b634e487b7160e01b600052601260045260246000fd5b90610cf5826117b0565b670de0b6b3a76400009081810290808204831490151715610cb557610d3b907f000000000000000000000000000000000000000000000000000000000000000090610ccb565b92818102918183041490151715610cb557610d5a600091825490610ccb565b9080816004908154905b818110610f6a575060ff7f000000000000000000000000000000000000000000000000000000000000000016610da8575b5050508382119050610da5579190565b90565b6000969192939496198101908111610f5757610dde610dc682610c5a565b9690549460ff610dd58561096b565b9490549561098c565b90549060031b1c169785968815610e4b575b5050505060031b1c60ff16600103610e2a5750610e14610e209392610e1a92610ca2565b91611fa2565b90610ccb565b9138808080610d95565b610e419150610e3b610e4694611fa2565b90610ca2565b610ccb565b610e20565b604051633fabe5a360e21b81529498509293919260a09183918591839160039190911b1c6001600160a01b03165afa908115610f4c57838480928194610ef4575b50851392831593610edd575b50508115610ec2575b50610eb35750938160ff600138610df0565b60405163ae19356360e01b8152fd5b610ecd9150426110e5565b63ffffffff600354161038610ea1565b6001600160501b0390811691161191503880610e98565b95509250505060a0833d8211610f44575b81610f1260a09383610a21565b8101031261028157610f2383611f8e565b6020840151610f39608060608701519601611f8e565b919094919238610e8c565b3d9150610f05565b6040513d85823e3d90fd5b634e487b7160e01b855260118352602485fd5b949250610f7685610c5a565b939054610f828761096b565b92905460039360ff610f938b61098c565b905490871b1c16948394604090815190633fabe5a360e21b8252818b8160a09e8f9460018060a01b0391891b1c165afa9081156110db578c908190829d8394611084575b50508d8d139283159361106d575b50508115611053575b50611044575060ff6110289695938a95936001931b1c161460001461102d5750610e1461101f9392610e1a92610ca2565b935b93956117a1565b610d64565b610e419150610e3b61103e94611fa2565b93611021565b5163ae19356360e01b81528890fd5b61105e9150426110e5565b63ffffffff8354161038610fee565b6001600160501b0390811691161191503880610fe5565b93509c5050508a813d83116110d4575b61109e8183610a21565b810103126110d057896110b081611f8e565b6110c66080606060208501519401519d01611f8e565b919b903880610fd7565b8a80fd5b503d611094565b82513d8e823e3d90fd5b91908203918211610cb557565b6110fb906117b0565b670de0b6b3a764000090818102918183041490151715610cb557611140907f000000000000000000000000000000000000000000000000000000000000000090610ccb565b9060ff7f00000000000000000000000000000000000000000000000000000000000000001661116b57565b60045490916000198201918211610cb557816111896111a193610c5a565b9290549160ff6111988261096b565b9690549261098c565b90549060031b1c169460a08394600460405180988193633fabe5a360e21b8352600180871b039160031b1c165afa80156112ca576000958680918193611273575b50600088139283159361125c575b50508115611241575b5061122f5760031b1c60ff1660010361121e5750610e14610da59392610e1a92610ca2565b610e419150610e3b610da594611fa2565b60405163ae19356360e01b8152600490fd5b61124c9150426110e5565b63ffffffff6003541610386111f9565b6001600160501b03908116911611915038806111f0565b975091505060a0863d82116112c2575b8161129060a09383610a21565b8101031261028157506112a285611f8e565b6020860151906112b9608060608901519801611f8e565b919690386111e2565b3d9150611283565b6040513d6000823e3d90fd5b6001600160a01b031660008181527fe414d6e9efd528fe34946c9948de56cf8a209abe14dcce3202417cd89e77a63b602090815260408083205490939192917f55435dd261a4b9b3364963f7738a7a662ad9c84396d64be3365284bb7f0a50419160ff1615611346575050505050565b61134f9061161d565b84519161135b836109f0565b604283528483019360603686378351156114e357603085538351906001918210156114e35790607860218601536041915b81831161147557505050611433576113e19385936114199361140a60489461142f9951988576020b1b1b2b9b9a1b7b73a3937b61d1030b1b1b7bab73a1604d1b8b978801528251928391603789019101610ba7565b8401917001034b99036b4b9b9b4b733903937b6329607d1b603784015251809386840190610ba7565b01036028810185520183610a21565b5162461bcd60e51b815291829160048301610bca565b0390fd5b60648486519062461bcd60e51b825280600483015260248201527f537472696e67733a20686578206c656e67746820696e73756666696369656e746044820152fd5b909192600f811660108110156114cf576f181899199a1a9b1b9c1cb0b131b232b360811b901a6114a5858861160c565b5360041c9280156114bb5760001901919061138c565b634e487b7160e01b82526011600452602482fd5b634e487b7160e01b83526032600452602483fd5b634e487b7160e01b81526032600452602490fd5b6000818152602091600283526040938483209060018060a01b031690818452845260ff85842054161561152b575050505050565b6115349061161d565b845191611540836109f0565b604283528483019360603686378351156114e357603085538351906001918210156114e35790607860218601536041915b8183116115c657505050611433576113e19385936114199361140a60489461142f9951988576020b1b1b2b9b9a1b7b73a3937b61d1030b1b1b7bab73a1604d1b8b978801528251928391603789019101610ba7565b909192600f811660108110156114cf576f181899199a1a9b1b9c1cb0b131b232b360811b901a6115f6858861160c565b5360041c9280156114bb57600019019190611571565b908151811015610955570160200190565b60405190606082018281106001600160401b03821117610a0b57604052602a82526020820160403682378251156109555760309053815160019081101561095557607860218401536029905b8082116116bd5750506116795790565b606460405162461bcd60e51b815260206004820152602060248201527f537472696e67733a20686578206c656e67746820696e73756666696369656e746044820152fd5b9091600f81166010811015611716576f181899199a1a9b1b9c1cb0b131b232b360811b901a6116ec848661160c565b5360041c918015611701576000190190611669565b60246000634e487b7160e01b81526011600452fd5b60246000634e487b7160e01b81526032600452fd5b906000918083526002602052604083209160018060a01b03169182845260205260ff60408420541661175c57505050565b8083526002602052604083208284526020526040832060ff1981541690557ff6391f5c32d9c69d2a47ea670b442974b53935d1edc7fd64eb21e047a839171b339380a4565b6000198114610cb55760010190565b600060085463ffffffff60075416908160030b155b8184106117d3575050505090565b909192936117e085610c3f565b905460039190911b1c6001600160a01b03169060ff6117fe87610917565b90549060031b1c16916040519060608201906001600160401b039183811083821117610a0b5760405260028352602083019260403685378861183f82611fc7565b52600061184b82611fd4565b5260405163883bdbfd60e01b815260206004820152905160248201819052909384916044830191906000905b808210611f6c5750505091818060009403915afa9182156112ca57600092611e57575b50506118af6118a882611fd4565b5191611fc7565b51667fffffffffffff19600682810b9084900b03908112667fffffffffffff90911317610cb55784610cd55760060b9060060b0360060b916000198660030b14667fffffffffffff19841416610cb5578560030b830560020b92600081129081611e40575b50611e2a575b60008360020b12600014611e2057600283900b600160ff1b14610cb5578260020b600003925b620d89e88411611df7576001841615611ded576ffff97272373d413259a46990580e213a5b6001600160881b03169360028116611dc1575b60048116611d95575b60088116611d69575b60108116611d3d575b60208116611d11575b60408116611ce5575b608090818116611cba575b6101008116611c8f575b6102008116611c64575b6104008116611c39575b6108008116611c0e575b6110008116611be3575b6120008116611bb8575b6140008116611b8d575b6180008116611b62575b620100008116611b38575b620200008116611b0f575b620400008116611ae8575b6208000016611ac3575b5060009060020b13611ab2575b604583901c926001600160451b0316611aa95760ff60005b168301809311610cb557670de0b6b3a764000092838102938185041490151715610cb557611a9392603b1c90600103611a9b5790611a8d9161214f565b946117a1565b9291906117c5565b611aa491611fe4565b611a8d565b60ff6001611a50565b918015610cd5576000190491611a38565b909366149b34ee7ac26290818102918183041490151715610cb557901c926000611a2b565b946b048a170391f7dc42444e8fa290818102918183041490151715610cb557811c94611a21565b946d2216e584f5fa1ea926041bedfe9890818102918183041490151715610cb557811c94611a16565b946e5d6af8dedb81196699c329225ee60490818102918183041490151715610cb557811c94611a0b565b946f09aa508b5b7a84e1c677de54f3e99bc990818102918183041490151715610cb557811c94611a00565b946f31be135f97d08fd981231505542fcfa690818102918183041490151715610cb557811c946119f6565b946f70d869a156d2a1b890bb3df62baf32f790818102918183041490151715610cb557811c946119ec565b946fa9f746462d870fdf8a65dc1f90e061e590818102918183041490151715610cb557811c946119e2565b946fd097f3bdfd2022b8845ad8f792aa582590818102918183041490151715610cb557811c946119d8565b946fe7159475a2c29b7443b29c7fa6e889d990818102918183041490151715610cb557811c946119ce565b946ff3392b0822b70005940c7a398e4b70f390818102918183041490151715610cb557811c946119c4565b946ff987a7253ac413176f2b074cf7815e5490818102918183041490151715610cb557811c946119ba565b946ffcbe86c7900a88aedcffc83b479aa3a490818102918183041490151715610cb557811c946119b0565b936ffe5dee046a99a2a811c461f1969c305390818102918183041490151715610cb55760801c936119a5565b936fff2ea16466c96a3843ec78b326b5286190818102918183041490151715610cb55760801c9361199c565b936fff973b41fa98c081472e6896dfb254c090818102918183041490151715610cb55760801c93611993565b936fffcb9843d60f6159c9db58835c92664490818102918183041490151715610cb55760801c9361198a565b936fffe5caca7e10e4e61c3624eaa0941cd0908082810204821481151715610cb5570260801c93611981565b936ffff2e50f5f656932ef12357cf3c7fdcc908082810204821481151715610cb5570260801c93611978565b600160801b611965565b60405162461bcd60e51b81526020600482015260016024820152601560fa1b6044820152606490fd5b8260020b92611940565b91627fffff198114610cb557600019019161191a565b9450506000938660030b900760060b151538611914565b90913d8082843e611e688184610a21565b8201906040838303126102815782518481116101dd57830193601f9083828701121561028457855194611e9a86611fb0565b96611ea86040519889610a21565b86885260208801906020600598891b82010190878211611f6857602001915b818310611f4a57505050602081015191821161042c57019081018313156101dd576020815181611ef682611fb0565b611f036040519182610a21565b82815201951b8201019283116101dd57602001925b828410611f2a5750505050388061189a565b83516001600160a01b038116810361028457815260209384019301611f18565b82518060060b8103611f6457815260209283019201611ec7565b8780fd5b8680fd5b9193509160208060019263ffffffff8751168152019401920186939291611877565b51906001600160501b038216820361091257565b604d8111610cb557600a0a90565b6001600160401b038111610a0b5760051b60200190565b8051156109555760200190565b8051600110156109555760400190565b670de0b6b3a76400009291600019828509938281029283808710960395808703961461214057858311156109125782910990801960018101809111610cb557811680910491612042600096600184808a030401908684119003610ca2565b9280600302966003880482036121185760028098186120618184610ca2565b89039089821161212c579061207591610ca2565b61207f8184610ca2565b89039089821161212c579061209391610ca2565b61209d8184610ca2565b89039089821161212c57906120b191610ca2565b6120bb8184610ca2565b89039089821161212c57906120cf91610ca2565b6120d98184610ca2565b89039089821161212c576120f7916120f091610ca2565b8093610ca2565b88039788116121185750610da5959661210f91610ca2565b93030417610ca2565b634e487b7160e01b81526011600452602490fd5b634e487b7160e01b83526011600452602483fd5b50508092935015610912570490565b919060001981840992818102918280861095039385850395600095146121bc5750670de0b6b3a764000091858311156121b857091190808284039161211857508060ee1b04600160ee1b1491141715610cb557634e487b7160e01b600052601160045260246000fd5b8480fd5b94505050670de0b6b3a76400009150049056fea2646970667358221220e4412f6be95583d4f215868b7e7c333e8e9c531449eec82dac2c6a7d2ef78fee64736f6c634300081200332f8788117e7eff1d82e926ec794901d17c78024a50270940304540a733656f0dc65a7bb8d6351c1cf70c95a316cc6a92839c986682d98bc35f958f4883f9d2a8f3f7a9fe364faab93b216da50a3214154f22a0a2b415b23a84c8169e8b636ee3e414d6e9efd528fe34946c9948de56cf8a209abe14dcce3202417cd89e77a63b55435dd261a4b9b3364963f7738a7a662ad9c84396d64be3365284bb7f0a5041",
  "linkReferences": {},
  "deployedLinkReferences": {}
}