{
  "_format": "hh-sol-artifact-1",
  "contractName": "SeerUniSolo",
  "sourceName": "contracts/oracle/SeerUniSolo.sol",
  "abi": [
    {
      "inputs": [
        {
          "internalType": "string",
          "name": "__name",
          "type": "string"
        },
        {
          "internalType": "string",
          "name": "__symbol",
          "type": "string"
        },
        {
          "internalType": "uint8",
          "name": "_decimals",
          "type": "uint8"
        },
        {
          "internalType": "address[]",
          "name": "addressInAndOutUni",
          "type": "address[]"
        },
        {
          "internalType": "contract IUniswapV3Pool[]",
          "name": "_circuitUniswap",
          "type": "address[]"
        },
        {
          "internalType": "uint8[]",
          "name": "_circuitUniIsMultiplied",
          "type": "uint8[]"
        },
        {
          "internalType": "uint32",
          "name": "_twapPeriod",
          "type": "uint32"
        },
        {
          "internalType": "uint16",
          "name": "observationLength",
          "type": "uint16"
        },
        {
          "internalType": "address[]",
          "name": "guardians",
          "type": "address[]"
        },
        {
          "internalType": "bytes32",
          "name": "_description",
          "type": "bytes32"
        },
        {
          "internalType": "address",
          "name": "_sequencerUptimeFeed",
          "type": "address"
        },
        {
          "internalType": "address",
          "name": "_admin",
          "type": "address"
        }
      ],
      "stateMutability": "nonpayable",
      "type": "constructor"
    },
    {
      "inputs": [],
      "name": "GracePeriodNotOver",
      "type": "error"
    },
    {
      "inputs": [],
      "name": "SequencerDown",
      "type": "error"
    },
    {
      "anonymous": false,
      "inputs": [
        {
          "indexed": true,
          "internalType": "bytes32",
          "name": "role",
          "type": "bytes32"
        },
        {
          "indexed": true,
          "internalType": "bytes32",
          "name": "previousAdminRole",
          "type": "bytes32"
        },
        {
          "indexed": true,
          "internalType": "bytes32",
          "name": "newAdminRole",
          "type": "bytes32"
        }
      ],
      "name": "RoleAdminChanged",
      "type": "event"
    },
    {
      "anonymous": false,
      "inputs": [
        {
          "indexed": true,
          "internalType": "bytes32",
          "name": "role",
          "type": "bytes32"
        },
        {
          "indexed": true,
          "internalType": "address",
          "name": "account",
          "type": "address"
        },
        {
          "indexed": true,
          "internalType": "address",
          "name": "sender",
          "type": "address"
        }
      ],
      "name": "RoleGranted",
      "type": "event"
    },
    {
      "anonymous": false,
      "inputs": [
        {
          "indexed": true,
          "internalType": "bytes32",
          "name": "role",
          "type": "bytes32"
        },
        {
          "indexed": true,
          "internalType": "address",
          "name": "account",
          "type": "address"
        },
        {
          "indexed": true,
          "internalType": "address",
          "name": "sender",
          "type": "address"
        }
      ],
      "name": "RoleRevoked",
      "type": "event"
    },
    {
      "inputs": [],
      "name": "BASE",
      "outputs": [
        {
          "internalType": "uint256",
          "name": "",
          "type": "uint256"
        }
      ],
      "stateMutability": "view",
      "type": "function"
    },
    {
      "inputs": [],
      "name": "DEFAULT_ADMIN_ROLE",
      "outputs": [
        {
          "internalType": "bytes32",
          "name": "",
          "type": "bytes32"
        }
      ],
      "stateMutability": "view",
      "type": "function"
    },
    {
      "inputs": [],
      "name": "GRACE_PERIOD_TIME",
      "outputs": [
        {
          "internalType": "uint256",
          "name": "",
          "type": "uint256"
        }
      ],
      "stateMutability": "view",
      "type": "function"
    },
    {
      "inputs": [],
      "name": "GUARDIAN_ROLE_UNISWAP",
      "outputs": [
        {
          "internalType": "bytes32",
          "name": "",
          "type": "bytes32"
        }
      ],
      "stateMutability": "view",
      "type": "function"
    },
    {
      "inputs": [],
      "name": "SEQUENCER_ROLE",
      "outputs": [
        {
          "internalType": "bytes32",
          "name": "",
          "type": "bytes32"
        }
      ],
      "stateMutability": "view",
      "type": "function"
    },
    {
      "inputs": [],
      "name": "SEQUENCER_UPTIME_FEED",
      "outputs": [
        {
          "internalType": "contract AggregatorV3Interface",
          "name": "",
          "type": "address"
        }
      ],
      "stateMutability": "view",
      "type": "function"
    },
    {
      "inputs": [],
      "name": "_name",
      "outputs": [
        {
          "internalType": "string",
          "name": "",
          "type": "string"
        }
      ],
      "stateMutability": "view",
      "type": "function"
    },
    {
      "inputs": [],
      "name": "_symbol",
      "outputs": [
        {
          "internalType": "string",
          "name": "",
          "type": "string"
        }
      ],
      "stateMutability": "view",
      "type": "function"
    },
    {
      "inputs": [
        {
          "internalType": "uint32",
          "name": "_gracePeriod",
          "type": "uint32"
        }
      ],
      "name": "changeGracePeriod",
      "outputs": [],
      "stateMutability": "nonpayable",
      "type": "function"
    },
    {
      "inputs": [
        {
          "internalType": "uint32",
          "name": "_twapPeriod",
          "type": "uint32"
        }
      ],
      "name": "changeTwapPeriod",
      "outputs": [],
      "stateMutability": "nonpayable",
      "type": "function"
    },
    {
      "inputs": [
        {
          "internalType": "uint256",
          "name": "",
          "type": "uint256"
        }
      ],
      "name": "circuitUniIsMultiplied",
      "outputs": [
        {
          "internalType": "uint8",
          "name": "",
          "type": "uint8"
        }
      ],
      "stateMutability": "view",
      "type": "function"
    },
    {
      "inputs": [
        {
          "internalType": "uint256",
          "name": "",
          "type": "uint256"
        }
      ],
      "name": "circuitUniswap",
      "outputs": [
        {
          "internalType": "contract IUniswapV3Pool",
          "name": "",
          "type": "address"
        }
      ],
      "stateMutability": "view",
      "type": "function"
    },
    {
      "inputs": [],
      "name": "decimals",
      "outputs": [
        {
          "internalType": "uint8",
          "name": "",
          "type": "uint8"
        }
      ],
      "stateMutability": "view",
      "type": "function"
    },
    {
      "inputs": [],
      "name": "description",
      "outputs": [
        {
          "internalType": "bytes32",
          "name": "",
          "type": "bytes32"
        }
      ],
      "stateMutability": "view",
      "type": "function"
    },
    {
      "inputs": [
        {
          "internalType": "bytes",
          "name": "",
          "type": "bytes"
        }
      ],
      "name": "get",
      "outputs": [
        {
          "internalType": "bool",
          "name": "success",
          "type": "bool"
        },
        {
          "internalType": "uint256",
          "name": "rate",
          "type": "uint256"
        }
      ],
      "stateMutability": "nonpayable",
      "type": "function"
    },
    {
      "inputs": [
        {
          "internalType": "bytes32",
          "name": "role",
          "type": "bytes32"
        }
      ],
      "name": "getRoleAdmin",
      "outputs": [
        {
          "internalType": "bytes32",
          "name": "",
          "type": "bytes32"
        }
      ],
      "stateMutability": "view",
      "type": "function"
    },
    {
      "inputs": [
        {
          "internalType": "bytes32",
          "name": "role",
          "type": "bytes32"
        },
        {
          "internalType": "address",
          "name": "account",
          "type": "address"
        }
      ],
      "name": "grantRole",
      "outputs": [],
      "stateMutability": "nonpayable",
      "type": "function"
    },
    {
      "inputs": [
        {
          "internalType": "bytes32",
          "name": "role",
          "type": "bytes32"
        },
        {
          "internalType": "address",
          "name": "account",
          "type": "address"
        }
      ],
      "name": "hasRole",
      "outputs": [
        {
          "internalType": "bool",
          "name": "",
          "type": "bool"
        }
      ],
      "stateMutability": "view",
      "type": "function"
    },
    {
      "inputs": [],
      "name": "inBase",
      "outputs": [
        {
          "internalType": "uint256",
          "name": "",
          "type": "uint256"
        }
      ],
      "stateMutability": "view",
      "type": "function"
    },
    {
      "inputs": [
        {
          "internalType": "uint16",
          "name": "newLengthStored",
          "type": "uint16"
        }
      ],
      "name": "increaseTWAPStore",
      "outputs": [],
      "stateMutability": "nonpayable",
      "type": "function"
    },
    {
      "inputs": [
        {
          "internalType": "bytes",
          "name": "",
          "type": "bytes"
        }
      ],
      "name": "name",
      "outputs": [
        {
          "internalType": "string",
          "name": "",
          "type": "string"
        }
      ],
      "stateMutability": "view",
      "type": "function"
    },
    {
      "inputs": [],
      "name": "outBase",
      "outputs": [
        {
          "internalType": "uint256",
          "name": "",
          "type": "uint256"
        }
      ],
      "stateMutability": "view",
      "type": "function"
    },
    {
      "inputs": [
        {
          "internalType": "bytes",
          "name": "",
          "type": "bytes"
        }
      ],
      "name": "peek",
      "outputs": [
        {
          "internalType": "bool",
          "name": "success",
          "type": "bool"
        },
        {
          "internalType": "uint256",
          "name": "rate",
          "type": "uint256"
        }
      ],
      "stateMutability": "view",
      "type": "function"
    },
    {
      "inputs": [
        {
          "internalType": "bytes",
          "name": "",
          "type": "bytes"
        }
      ],
      "name": "peekSpot",
      "outputs": [
        {
          "internalType": "uint256",
          "name": "rate",
          "type": "uint256"
        }
      ],
      "stateMutability": "view",
      "type": "function"
    },
    {
      "inputs": [],
      "name": "read",
      "outputs": [
        {
          "internalType": "uint256",
          "name": "",
          "type": "uint256"
        }
      ],
      "stateMutability": "view",
      "type": "function"
    },
    {
      "inputs": [],
      "name": "readAll",
      "outputs": [
        {
          "internalType": "uint256",
          "name": "",
          "type": "uint256"
        },
        {
          "internalType": "uint256",
          "name": "",
          "type": "uint256"
        }
      ],
      "stateMutability": "view",
      "type": "function"
    },
    {
      "inputs": [],
      "name": "readLower",
      "outputs": [
        {
          "internalType": "uint256",
          "name": "rate",
          "type": "uint256"
        }
      ],
      "stateMutability": "view",
      "type": "function"
    },
    {
      "inputs": [
        {
          "internalType": "uint256",
          "name": "quoteAmount",
          "type": "uint256"
        }
      ],
      "name": "readQuote",
      "outputs": [
        {
          "internalType": "uint256",
          "name": "",
          "type": "uint256"
        }
      ],
      "stateMutability": "view",
      "type": "function"
    },
    {
      "inputs": [
        {
          "internalType": "uint256",
          "name": "quoteAmount",
          "type": "uint256"
        }
      ],
      "name": "readQuoteLower",
      "outputs": [
        {
          "internalType": "uint256",
          "name": "",
          "type": "uint256"
        }
      ],
      "stateMutability": "view",
      "type": "function"
    },
    {
      "inputs": [],
      "name": "readUpper",
      "outputs": [
        {
          "internalType": "uint256",
          "name": "rate",
          "type": "uint256"
        }
      ],
      "stateMutability": "view",
      "type": "function"
    },
    {
      "inputs": [
        {
          "internalType": "bytes32",
          "name": "role",
          "type": "bytes32"
        },
        {
          "internalType": "address",
          "name": "account",
          "type": "address"
        }
      ],
      "name": "renounceRole",
      "outputs": [],
      "stateMutability": "nonpayable",
      "type": "function"
    },
    {
      "inputs": [
        {
          "internalType": "bytes32",
          "name": "role",
          "type": "bytes32"
        },
        {
          "internalType": "address",
          "name": "account",
          "type": "address"
        }
      ],
      "name": "revokeRole",
      "outputs": [],
      "stateMutability": "nonpayable",
      "type": "function"
    },
    {
      "inputs": [
        {
          "internalType": "bytes",
          "name": "",
          "type": "bytes"
        }
      ],
      "name": "symbol",
      "outputs": [
        {
          "internalType": "string",
          "name": "",
          "type": "string"
        }
      ],
      "stateMutability": "view",
      "type": "function"
    },
    {
      "inputs": [],
      "name": "twapPeriod",
      "outputs": [
        {
          "internalType": "uint32",
          "name": "",
          "type": "uint32"
        }
      ],
      "stateMutability": "view",
      "type": "function"
    }
  ],
  "bytecode": "0x60e06040523462000abb5762002bd08038038091620000208260e062000d11565b60e03960e00161018060e082031262000abb5760e0516001600160401b03811162000abb5781620000549160e00162000d35565b610100516001600160401b03811162000abb5782620000769160e00162000d35565b906200008461012062000dac565b610140519092906001600160401b03811162000abb5784620000a99160e00162000de8565b610160516001600160401b03811162000abb5760e0019385601f8601121562000abb57845191620000da8362000dbb565b95620000ea604051978862000d11565b83875260208701906020829560051b8201019089821162000abb57602001915b81831062000cef5750506101805190506001600160401b03811162000abb5760e0019087601f8301121562000abb57815191620001478362000dbb565b9062000157604051928362000d11565b838252602082016020819560051b830101918b831162000abb57602001905b82821062000cd45750506101a05199905063ffffffff8a168a0362000abb576101c0519061ffff8216820362000abb576101e051906001600160401b03821162000abb57620001c89160e00162000de8565b61020051909a9094620001dd61022062000dd3565b93620001eb61024062000dd3565b988d511562000ca95760009c8d8f5b51111562000303578e620002168f60018060a01b039262000e71565b511615620002da57620002908f9e8f620002388260018060a01b039262000e71565b511660008181527fe414d6e9efd528fe34946c9948de56cf8a209abe14dcce3202417cd89e77a63b602052604090205460008051602062002bb0833981519152919060029060ff161562000298575b50505062000eae565b809e620001fa565b826000526020526040600020816000526020526040600020600160ff19825416179055339160008051602062002b50833981519152600080a438808062000287565b60405162461bcd60e51b81526020600482015260016024820152600360fc1b6044820152606490fd5b60008051602062002bb08339815191526000526002602052600160406000200160008051602062002bb08339815191528154918160405193817fbd79b86ffe0ab8e8776151514217cd7cacd52c909f66475c3af44e129f0b00ff600080a455600063ffffffff871660030b131562000c815750805194851562000c56578351860362000c2b5763ffffffff1663ffffffff196003541617600355519060018060401b0382116200082e576801000000000000000082116200082e576004548260045580831062000bed575b506004600052602060002060005b83811062000bcf5750509151929150506001600160401b0382116200082e576801000000000000000082116200082e576005548260055580831062000b56575b5090600560005260206000209060005b8160051c811062000b135750601f198116810362000ac0575b50505060005b81811062000a00575050610e10600655506001600160a01b0316608052805160011901620009d557805115620009bf5760018060a01b0360208201511690805160011015620009bf57604090810151905163313ce56760e01b81526001600160a01b0390911691602090829060049082905afa908115620009655760009162000971575b50600491620004e060209262000e86565b60005560405163313ce56760e01b815292839182905afa801562000965576000906200091e575b62000513915062000e86565b60a05260015583516001600160401b0381116200082e57600854600181811c9116801562000913575b60208210146200080d57601f8111620008c0575b506020601f82116001146200085057819293949560009262000844575b50508160011b916000199060031b1c1916176008555b82516001600160401b0381116200082e57600954600181811c9116801562000823575b60208210146200080d57601f8111620007bf575b506020601f82116001146200074657819293946000926200073a575b50508160011b916000199060031b1c1916176009555b60c0526001600160a01b0316600081815260008051602062002b70833981519152602052604090205460ff1615620006f6575b60008181527fa8d256409a7e5fd6fc645f25816b05927d706f7e704e4c32ca486c8ce32f0c9760205260409020547fac4f1890dc96c9a02330d1fa696648a38f3b282d2449c2d8e6f10507488c84c8919060ff1615620006b3575b604051611c91908162000ebf82396080518181816103c901526118d5015260a051818181610b910152610ee9015260c05181610a4b0152f35b8160005260026020526040600020816000526020526040600020600160ff19825416179055339160008051602062002b50833981519152600080a480806200067a565b600081815260008051602062002b7083398151915260205260408120805460ff191660011790553390829060008051602062002b508339815191528180a46200061f565b015190508480620005d6565b6009600090815260008051602062002b908339815191529190601f198416905b818110620007a6575095836001959697106200078c575b505050811b01600955620005ec565b015160001960f88460031b161c191690558480806200077d565b9192602060018192868b01518155019401920162000766565b6009600052620007fb9060008051602062002b90833981519152601f840160051c8101916020851062000802575b601f0160051c019062000e58565b84620005ba565b9091508190620007ed565b634e487b7160e01b600052602260045260246000fd5b90607f1690620005a6565b634e487b7160e01b600052604160045260246000fd5b0151905085806200056d565b600860005260206000209060005b601f1984168110620008a7575060019394959683601f198116106200088d575b505050811b0160085562000583565b015160001960f88460031b161c191690558580806200087e565b9091602060018192858b0151815501930191016200085e565b60086000526200090c907ff3f7a9fe364faab93b216da50a3214154f22a0a2b415b23a84c8169e8b636ee3601f840160051c810191602085106200080257601f0160051c019062000e58565b8562000550565b90607f16906200053c565b6020823d6020116200095c575b816200093a6020938362000d11565b8101031262000959575062000953620005139162000dac565b62000507565b80fd5b3d91506200092b565b6040513d6000823e3d90fd5b906020823d602011620009b6575b816200098e6020938362000d11565b81010312620009595750600491620004e0620009ac60209362000dac565b92505091620004cf565b3d91506200097f565b634e487b7160e01b600052603260045260246000fd5b60405162461bcd60e51b815260206004820152600360248201526231303760e81b6044820152606490fd5b600454811015620009bf5760046000527f8a35acfbc15ff81a39ae7d344fd709f28e8600b4aa8c65c6b64bfe7fe36bd19b8101546001600160a01b0316803b1562000abb5760008060405180936332148f6760e01b825261ffff881660048301528160249485925af18015620009655762000a89575b505062000a839062000eae565b6200044b565b6001600160401b03821162000aa7575060405262000a838b62000a76565b634e487b7160e01b60009081526041600452fd5b600080fd5b600092835b601f1983168303811062000ae357505060051c015589808062000445565b9093602062000b096001928460ff895116919060ff809160031b9316831b921b19161790565b9501910162000ac5565b6000805b6020811062000b2e5750838201556001016200042c565b855190959160019160209160ff60038a901b81811b199092169216901b179201950162000b17565b600560005262000ba5907f036b6384b5eca791c62761152d0c79bb0604c104a5fb6f4eb0703f3154bb3db090601f908582168062000bac575b500160051c810190601f850160051c0162000e58565b8b6200041c565b600019908184890160051c8601019182549160200360031b1c1690558f62000b8f565b82516001600160a01b031681830155602090920191600101620003dc565b600460005262000c24907f8a35acfbc15ff81a39ae7d344fd709f28e8600b4aa8c65c6b64bfe7fe36bd19b90810190840162000e58565b8d620003ce565b60405162461bcd60e51b81526020600482015260036024820152620c4c0d60ea1b6044820152606490fd5b60405162461bcd60e51b815260206004820152600360248201526231303360e81b6044820152606490fd5b62461bcd60e51b815260206004820152600360248201526218981960e91b6044820152606490fd5b60405162461bcd60e51b815260206004820152600360248201526231303160e81b6044820152606490fd5b6020809162000ce38462000dac565b81520191019062000176565b82516001600160a01b038116810362000abb578152602092830192016200010a565b601f909101601f19168101906001600160401b038211908210176200082e57604052565b919080601f8401121562000abb578251906001600160401b0382116200082e576040519160209162000d71601f8301601f191684018562000d11565b81845282828701011162000abb5760005b81811062000d9857508260009394955001015290565b858101830151848201840152820162000d82565b519060ff8216820362000abb57565b6001600160401b0381116200082e5760051b60200190565b51906001600160a01b038216820362000abb57565b81601f8201121562000abb5780519162000e028362000dbb565b9262000e12604051948562000d11565b808452602092838086019260051b82010192831162000abb578301905b82821062000e3e575050505090565b83809162000e4c8462000dd3565b81520191019062000e2f565b81811062000e64575050565b6000815560010162000e58565b8051821015620009bf5760209160051b010190565b60ff16604d811162000e9857600a0a90565b634e487b7160e01b600052601160045260246000fd5b600019811462000e98576001019056fe608060408181526004918236101561001657600080fd5b600092833560e01c91826322834baa14610b7a57508163240fd5ab14610a11578163248a9ca314610b4f5781632b271dde14610b135781632f2ff15d14610a6f578163313ce56714610a315781633593ba7b14610a1157816336568abe146109bc578163408b05461461088d57816341f654f714610864578163442133bd146106bc5781634842855c1461083b57816357de26a4146107fc57816365cf10b6146107345781637284e4161461071557816391d14854146106da57816392611e33146106bc5781639aefb5c31461069f578163a217fddf14610684578163a47b5a7c1461065b578163b09f12661461063d578163b31dbb9f146103f8578163c5980182146103b4578163c699c4d614610396578163d28d885214610378578163d39bbef01461035b578163d547741f14610324578163d568866c146102f7578163d6d7d5251461026f578163d74febcb1461022f57508063ec342ad01461020d578063ed2f8603146101ef578063eeb8a8d3146101c25763f62073261461019b57600080fd5b346101be57816003193601126101be5760209063ffffffff600354169051908152f35b5080fd5b5090346101ec576101de906101d636610e1e565b505054610eac565b815190600182526020820152f35b80fd5b50346101be57816003193601126101be576020906006549051908152f35b50346101be57816003193601126101be5760209051670de0b6b3a76400008152f35b8284346101ec5760203660031901126101ec57823592548310156101ec5750610259602092610e68565b905491519160018060a01b039160031b1c168152f35b839150346101be5761028036610e1e565b50506007549060ff82166102bf57506102ad9060ff191691600183176007556102a76118d3565b54610eac565b90600755815190600182526020820152f35b606490602085519162461bcd60e51b835282015260126024820152714f7261636c653a207265656e7472616e637960701b6044820152fd5b5050346101be576103209061030b36610e1e565b5050610315610d38565b905191829182610df2565b0390f35b5050346101be5760016103589161035361033d36610beb565b9390928387526002602052862001543390611593565b61183a565b80f35b5050346101be576103716020926101d636610e1e565b9051908152f35b5050346101be57816003193601126101be5761032090610315610d38565b5050346101be57610320906103aa36610e1e565b5050610315610c6a565b5050346101be57816003193601126101be57517f00000000000000000000000000000000000000000000000000000000000000006001600160a01b03168152602090f35b905034610639576020806003193601126106355781359263ffffffff841680940361063157600080516020611c3c83398151915280865260028352818620338752835260ff82872054161561048d5750848460030b13156104675750505063ffffffff19600354161760035580f35b5162461bcd60e51b8152918201526002602482015261393960f01b604482015260649150fd5b8591945061049a3361173e565b8551916104a683610c16565b6042835284830193606036863783511561061e576030855383519060019182101561060b5790607860218601536041915b8183116105a0575050506105705761056c938693610558936105496048946105209a519a85600080516020611bfc8339815191528d978801528251928391603789019101610dcf565b8401917001034b99036b4b9b9b4b733903937b6329607d1b603784015251809386840190610dcf565b01036028810187520185610c47565b5162461bcd60e51b81529283928301610df2565b0390fd5b50505080606493519262461bcd60e51b84528301526024820152600080516020611bdc8339815191526044820152fd5b909192600f811660108110156105f8576f181899199a1a9b1b9c1cb0b131b232b360811b901a6105d0858861172d565b53881c9280156105e5576000190191906104d7565b634e487b7160e01b825260118952602482fd5b634e487b7160e01b835260328a52602483fd5b634e487b7160e01b815260328852602490fd5b634e487b7160e01b815260328752602490fd5b8480fd5b8380fd5b8280fd5b5050346101be57816003193601126101be5761032090610315610c6a565b5050346101be57816003193601126101be5760209051600080516020611c3c8339815191528152f35b5050346101be57816003193601126101be5751908152602090f35b5050346101be57816003193601126101be57602091549051908152f35b5050346101be57816003193601126101be5761037160209254610eac565b5050346101be5760ff816020936106f036610beb565b908252600286528282206001600160a01b039091168252855220549151911615158152f35b5050346101be57816003193601126101be576020906001549051908152f35b919050346106395760203660031901126106395781359061ffff82168092036106355783805b84548110156107f85761076c81610e68565b905460039190911b1c6001600160a01b0316803b15610639578280855180936332148f6760e01b8252888a8301528160249485925af180156107ee576107bd575b50506107b8906118b0565b61075a565b919250906001600160401b0382116107dd5750825284906107b8386107ad565b634e487b7160e01b87526041865286fd5b85513d86823e3d90fd5b5080f35b8284346101ec57806003193601126101ec57805492604d84116108285760208361037186600a0a610eac565b634e487b7160e01b825260119052602490fd5b5050346101be57816003193601126101be5760209051600080516020611c1c8339815191528152f35b8284346101ec57806003193601126101ec576108809054610eac565b8151908082526020820152f35b9190503461063957602091826003193601126106355780359263ffffffff841680940361063157600080516020611c1c83398151915280865260028252838620338752825260ff8487205416156108e657858560065580f35b85906108f13361173e565b8551916108fd83610c16565b6042835284830193606036863783511561061e576030855383519060019182101561060b5790607860218601536041915b818311610977575050506105705761056c938693610558936105496048946105209a519a85600080516020611bfc8339815191528d978801528251928391603789019101610dcf565b909192600f811660108110156105f8576f181899199a1a9b1b9c1cb0b131b232b360811b901a6109a7858861172d565b53881c9280156105e55760001901919061092e565b839150346101be576109cd36610beb565b91336001600160a01b038416036109e95750906103589161183a565b606490602086519162461bcd60e51b83528201526002602482015261373160f01b6044820152fd5b8284346101ec5760203660031901126101ec575061037160209235610eac565b5050346101be57816003193601126101be576020905160ff7f0000000000000000000000000000000000000000000000000000000000000000168152f35b5050346101be57610a7f36610beb565b90918284526002602052610a9a600182862001543390611593565b828452600260209081528185206001600160a01b039093168086529290528084205460ff1615610ac8578380f35b82845260026020528084208285526020528320600160ff1982541617905533917f2f8788117e7eff1d82e926ec794901d17c78024a50270940304540a733656f0d8480a43880808380f35b9050346106395760203660031901126106395735916005548310156101ec575060ff610b40602093610bb4565b92905490519260031b1c168152f35b9050346106395760203660031901126106395781602093600192358152600285522001549051908152f35b8490346101be57816003193601126101be576020907f00000000000000000000000000000000000000000000000000000000000000008152f35b90600554821015610bd5576005600052601f60206000208360051c01921690565b634e487b7160e01b600052603260045260246000fd5b6040906003190112610c1157600435906024356001600160a01b0381168103610c115790565b600080fd5b608081019081106001600160401b03821117610c3157604052565b634e487b7160e01b600052604160045260246000fd5b601f909101601f19168101906001600160401b03821190821017610c3157604052565b60405190600060095490600182811c90808416938415610d2e575b6020948584108114610d1a5783885287949392918115610cfa5750600114610cb8575b5050610cb692500383610c47565b565b90939150600960005281600020936000915b818310610ce2575050610cb693508201013880610ca8565b85548884018501529485019487945091830191610cca565b915050610cb694925060ff191682840152151560051b8201013880610ca8565b634e487b7160e01b85526022600452602485fd5b91607f1691610c85565b60405190600060085490600182811c90808416938415610dc5575b6020948584108114610d1a5783885287949392918115610cfa5750600114610d83575050610cb692500383610c47565b90939150600860005281600020936000915b818310610dad575050610cb693508201013880610ca8565b85548884018501529485019487945091830191610d95565b91607f1691610d53565b60005b838110610de25750506000910152565b8181015183820152602001610dd2565b60409160208252610e128151809281602086015260208686019101610dcf565b601f01601f1916010190565b906020600319830112610c11576001600160401b039160043590838211610c115780602383011215610c11578160040135938411610c115760248483010111610c11576024019190565b600454811015610bd557600460005260206000200190600090565b81810292918115918404141715610e9657565b634e487b7160e01b600052601160045260246000fd5b600060045463ffffffff60035416908160030b15915b818410610f295750505050670de0b6b3a764000090818102918183041490151715610e96577f0000000000000000000000000000000000000000000000000000000000000000908115610f13570490565b634e487b7160e01b600052601260045260246000fd5b90919293610f3685610e68565b90546001600160a01b0360039290921b1c8116919060ff610f5688610bb4565b90549060031b1c1692604051606081019160018060401b039282811084821117610c3157604052600282526020820191604036843787610f95826119d4565b526000610fa1826119e1565b5260405163883bdbfd60e01b815260206004820152905160248201819052909283916044830191906000905b8082106115715750505091818060009403915afa92831561156557600093611453575b505050611006610fff826119e1565b51916119d4565b5160060b9060060b0391667fffffffffffff19667fffffffffffff841381851217610e965786610f13576000198560030b14908460060b1416610e96578360030b8360060b0560020b9260008160060b129081611439575b50611423575b60008360020b12600014611419578260020b600003925b620d89e884116113f057600190848216156113e6576ffff97272373d413259a46990580e213a5b6001600160881b031694600281166113ca575b600481166113ae575b60088116611392575b60108116611376575b6020811661135a575b6040811661133e575b608090818116611323575b6101008116611308575b61020081166112ed575b61040081166112d2575b61080081166112b7575b611000811661129c575b6120008116611281575b6140008116611266575b618000811661124b575b620100008116611231575b620200008116611218575b620400008116611200575b62080000166111ea575b5060009060020b136111d7575b6111b993670de0b6b3a7640000906001600160451b0381166111cf5760ff60005b169060451c0102603b1c91146000146111c157906111b391611b5f565b946118b0565b929190610ec2565b6111ca916119f1565b6111b3565b60ff83611196565b8315610f13576000199390930492611175565b66149b34ee7ac2626000929602901c9490611168565b6b048a170391f7dc42444e8fa2909602811c9561115e565b956d2216e584f5fa1ea926041bedfe9802811c95611153565b956e5d6af8dedb81196699c329225ee60402811c95611148565b956f09aa508b5b7a84e1c677de54f3e99bc902811c9561113d565b956f31be135f97d08fd981231505542fcfa602811c95611133565b956f70d869a156d2a1b890bb3df62baf32f702811c95611129565b956fa9f746462d870fdf8a65dc1f90e061e502811c9561111f565b956fd097f3bdfd2022b8845ad8f792aa582502811c95611115565b956fe7159475a2c29b7443b29c7fa6e889d902811c9561110b565b956ff3392b0822b70005940c7a398e4b70f302811c95611101565b956ff987a7253ac413176f2b074cf7815e5402811c956110f7565b956ffcbe86c7900a88aedcffc83b479aa3a402811c956110ed565b946ffe5dee046a99a2a811c461f1969c30530260801c946110e2565b946fff2ea16466c96a3843ec78b326b528610260801c946110d9565b946fff973b41fa98c081472e6896dfb254c00260801c946110d0565b946fffcb9843d60f6159c9db58835c9266440260801c946110c7565b946fffe5caca7e10e4e61c3624eaa0941cd00260801c946110be565b946ffff2e50f5f656932ef12357cf3c7fdcc0260801c946110b5565b600160801b6110a2565b60405162461bcd60e51b81526020600482015260016024820152601560fa1b6044820152606490fd5b8260020b9261107b565b91627fffff198114610e96576000190191611064565b9650506000958460030b9060060b0760060b15153861105e565b929091923d8083853e6114668185610c47565b8301916040848403126101ec5783518581116101be57840194601f9084828801121561063957865195611498876119bd565b976114a6604051998a610c47565b878952602089019060206005998a1b8201019088821161156157602001915b81831061154357505050602081015191821161063557019081018413156101be5760208151816114f4826119bd565b6115016040519182610c47565b82815201961b8201019384116101be57602001935b83851061152a575050505050388080610ff0565b8451838116810361063957815260209485019401611516565b82518060060b810361155d578152602092830192016114c5565b8780fd5b8680fd5b6040513d6000823e3d90fd5b9193509160208060019263ffffffff8751168152019401920185939291610fcd565b6000818152602091600283526040938483209060018060a01b031690818452845260ff8584205416156115c7575050505050565b6115d09061173e565b8451916115dc83610c16565b6042835284830193606036863783511561171957603085538351906001918210156117195790607860218601536041915b8183116116ab5750505061167b576105209385936116659361165660489461056c99519885600080516020611bfc8339815191528b978801528251928391603789019101610dcf565b01036028810185520183610c47565b5162461bcd60e51b815291829160048301610df2565b60648486519062461bcd60e51b82528060048301526024820152600080516020611bdc8339815191526044820152fd5b909192600f81166010811015611705576f181899199a1a9b1b9c1cb0b131b232b360811b901a6116db858861172d565b5360041c9280156116f15760001901919061160d565b634e487b7160e01b82526011600452602482fd5b634e487b7160e01b83526032600452602483fd5b634e487b7160e01b81526032600452602490fd5b908151811015610bd5570160200190565b60405190606082016001600160401b03811183821017610c3157604052602a8252602082016040368237825115610bd557603090538151600190811015610bd557607860218401536029905b8082116117cc57505061179a5790565b606460405162461bcd60e51b81526020600482015260206024820152600080516020611bdc8339815191526044820152fd5b9091600f81166010811015611825576f181899199a1a9b1b9c1cb0b131b232b360811b901a6117fb848661172d565b5360041c91801561181057600019019061178a565b60246000634e487b7160e01b81526011600452fd5b60246000634e487b7160e01b81526032600452fd5b906000918083526002602052604083209160018060a01b03169182845260205260ff60408420541661186b57505050565b8083526002602052604083208284526020526040832060ff1981541690557ff6391f5c32d9c69d2a47ea670b442974b53935d1edc7fd64eb21e047a839171b339380a4565b6000198114610e965760010190565b51906001600160501b0382168203610c1157565b7f00000000000000000000000000000000000000000000000000000000000000006001600160a01b031680156119ba5760a060049160405192838092633fabe5a360e21b82525afa908115611565576000908192611968575b50611957574203428111610e9657600654101561194557565b60405163d15f73b560e01b8152600490fd5b60405162032b3d60e81b8152600490fd5b915060a0823d82116119b2575b8161198260a09383610c47565b810103126101ec5750611994816118bf565b5060208101516119ab6080604084015193016118bf565b503861192c565b3d9150611975565b50565b6001600160401b038111610c315760051b60200190565b805115610bd55760200190565b805160011015610bd55760400190565b670de0b6b3a764000092916000198285099382810292838087109603958087039614611b505785831115610c115782910990801960018101809111610e9657811680910491611a4f600096600184808a030401908684119003610e83565b928060030296600388048203611b28576002809818611a6e8184610e83565b890390898211611b3c5790611a8291610e83565b611a8c8184610e83565b890390898211611b3c5790611aa091610e83565b611aaa8184610e83565b890390898211611b3c5790611abe91610e83565b611ac88184610e83565b890390898211611b3c5790611adc91610e83565b611ae68184610e83565b890390898211611b3c57611b0491611afd91610e83565b8093610e83565b8803978811611b285750611b259596611b1c91610e83565b93030417610e83565b90565b634e487b7160e01b81526011600452602490fd5b634e487b7160e01b83526011600452602483fd5b50508092935015610c11570490565b91906000198184099281810291828086109503938585039560009514611bc85750670de0b6b3a76400009185831115610631570911908082840391611b2857508060ee1b04600160ee1b1491141715610e9657634e487b7160e01b600052601160045260246000fd5b94505050670de0b6b3a76400009150049056fe537472696e67733a20686578206c656e67746820696e73756666696369656e74416363657373436f6e74726f6c3a206163636f756e7420000000000000000000ac4f1890dc96c9a02330d1fa696648a38f3b282d2449c2d8e6f10507488c84c855435dd261a4b9b3364963f7738a7a662ad9c84396d64be3365284bb7f0a5041a2646970667358221220bb12d53fda03f4658a77bd567979f1d04b8cb5cc37a226df48dfb6f408be47d364736f6c634300081200332f8788117e7eff1d82e926ec794901d17c78024a50270940304540a733656f0dac33ff75c19e70fe83507db0d683fd3465c996598dc972688b7ace676c89077b6e1540171b6c0c960b71a7020d9f60077f6af931a8bbf590da0223dacf75c7af55435dd261a4b9b3364963f7738a7a662ad9c84396d64be3365284bb7f0a5041",
  "linkReferences": {},
  "deployedLinkReferences": {}
}