{
  "_format": "hh-sol-artifact-1",
  "contractName": "UniswapV2Swapper",
  "sourceName": "contracts/Swapper/UniswapV2Swapper.sol",
  "abi": [
    {
      "inputs": [
        {
          "internalType": "address",
          "name": "_router",
          "type": "address"
        },
        {
          "internalType": "address",
          "name": "_factory",
          "type": "address"
        },
        {
          "internalType": "contract IYieldBox",
          "name": "_yieldBox",
          "type": "address"
        }
      ],
      "stateMutability": "nonpayable",
      "type": "constructor"
    },
    {
      "inputs": [],
      "name": "AddressNotValid",
      "type": "error"
    },
    {
      "inputs": [],
      "name": "AmountZero",
      "type": "error"
    },
    {
      "inputs": [],
      "name": "Failed",
      "type": "error"
    },
    {
      "inputs": [],
      "name": "InvalidSwap",
      "type": "error"
    },
    {
      "inputs": [],
      "name": "NoContract",
      "type": "error"
    },
    {
      "inputs": [],
      "name": "NotValid",
      "type": "error"
    },
    {
      "anonymous": false,
      "inputs": [
        {
          "indexed": true,
          "internalType": "address",
          "name": "previousOwner",
          "type": "address"
        },
        {
          "indexed": true,
          "internalType": "address",
          "name": "newOwner",
          "type": "address"
        }
      ],
      "name": "OwnershipTransferred",
      "type": "event"
    },
    {
      "inputs": [
        {
          "internalType": "address",
          "name": "tokenIn",
          "type": "address"
        },
        {
          "internalType": "address",
          "name": "tokenOut",
          "type": "address"
        },
        {
          "internalType": "uint256",
          "name": "amountIn",
          "type": "uint256"
        },
        {
          "internalType": "uint256",
          "name": "shareIn",
          "type": "uint256"
        },
        {
          "internalType": "bool",
          "name": "withdrawFromYb",
          "type": "bool"
        },
        {
          "internalType": "bool",
          "name": "depositToYb",
          "type": "bool"
        }
      ],
      "name": "buildSwapData",
      "outputs": [
        {
          "components": [
            {
              "components": [
                {
                  "internalType": "address",
                  "name": "tokenIn",
                  "type": "address"
                },
                {
                  "internalType": "uint256",
                  "name": "tokenInId",
                  "type": "uint256"
                },
                {
                  "internalType": "address",
                  "name": "tokenOut",
                  "type": "address"
                },
                {
                  "internalType": "uint256",
                  "name": "tokenOutId",
                  "type": "uint256"
                }
              ],
              "internalType": "struct ISwapper.SwapTokensData",
              "name": "tokensData",
              "type": "tuple"
            },
            {
              "components": [
                {
                  "internalType": "uint256",
                  "name": "amountIn",
                  "type": "uint256"
                },
                {
                  "internalType": "uint256",
                  "name": "shareIn",
                  "type": "uint256"
                },
                {
                  "internalType": "uint256",
                  "name": "amountOut",
                  "type": "uint256"
                },
                {
                  "internalType": "uint256",
                  "name": "shareOut",
                  "type": "uint256"
                }
              ],
              "internalType": "struct ISwapper.SwapAmountData",
              "name": "amountData",
              "type": "tuple"
            },
            {
              "components": [
                {
                  "internalType": "bool",
                  "name": "withdrawFromYb",
                  "type": "bool"
                },
                {
                  "internalType": "bool",
                  "name": "depositToYb",
                  "type": "bool"
                }
              ],
              "internalType": "struct ISwapper.YieldBoxData",
              "name": "yieldBoxData",
              "type": "tuple"
            }
          ],
          "internalType": "struct ISwapper.SwapData",
          "name": "",
          "type": "tuple"
        }
      ],
      "stateMutability": "pure",
      "type": "function"
    },
    {
      "inputs": [
        {
          "internalType": "uint256",
          "name": "tokenInId",
          "type": "uint256"
        },
        {
          "internalType": "uint256",
          "name": "tokenOutId",
          "type": "uint256"
        },
        {
          "internalType": "uint256",
          "name": "amountIn",
          "type": "uint256"
        },
        {
          "internalType": "uint256",
          "name": "shareIn",
          "type": "uint256"
        },
        {
          "internalType": "bool",
          "name": "withdrawFromYb",
          "type": "bool"
        },
        {
          "internalType": "bool",
          "name": "depositToYb",
          "type": "bool"
        }
      ],
      "name": "buildSwapData",
      "outputs": [
        {
          "components": [
            {
              "components": [
                {
                  "internalType": "address",
                  "name": "tokenIn",
                  "type": "address"
                },
                {
                  "internalType": "uint256",
                  "name": "tokenInId",
                  "type": "uint256"
                },
                {
                  "internalType": "address",
                  "name": "tokenOut",
                  "type": "address"
                },
                {
                  "internalType": "uint256",
                  "name": "tokenOutId",
                  "type": "uint256"
                }
              ],
              "internalType": "struct ISwapper.SwapTokensData",
              "name": "tokensData",
              "type": "tuple"
            },
            {
              "components": [
                {
                  "internalType": "uint256",
                  "name": "amountIn",
                  "type": "uint256"
                },
                {
                  "internalType": "uint256",
                  "name": "shareIn",
                  "type": "uint256"
                },
                {
                  "internalType": "uint256",
                  "name": "amountOut",
                  "type": "uint256"
                },
                {
                  "internalType": "uint256",
                  "name": "shareOut",
                  "type": "uint256"
                }
              ],
              "internalType": "struct ISwapper.SwapAmountData",
              "name": "amountData",
              "type": "tuple"
            },
            {
              "components": [
                {
                  "internalType": "bool",
                  "name": "withdrawFromYb",
                  "type": "bool"
                },
                {
                  "internalType": "bool",
                  "name": "depositToYb",
                  "type": "bool"
                }
              ],
              "internalType": "struct ISwapper.YieldBoxData",
              "name": "yieldBoxData",
              "type": "tuple"
            }
          ],
          "internalType": "struct ISwapper.SwapData",
          "name": "",
          "type": "tuple"
        }
      ],
      "stateMutability": "pure",
      "type": "function"
    },
    {
      "inputs": [],
      "name": "factory",
      "outputs": [
        {
          "internalType": "contract IUniswapV2Factory",
          "name": "",
          "type": "address"
        }
      ],
      "stateMutability": "view",
      "type": "function"
    },
    {
      "inputs": [],
      "name": "getDefaultDexOptions",
      "outputs": [
        {
          "internalType": "bytes",
          "name": "",
          "type": "bytes"
        }
      ],
      "stateMutability": "view",
      "type": "function"
    },
    {
      "inputs": [
        {
          "components": [
            {
              "components": [
                {
                  "internalType": "address",
                  "name": "tokenIn",
                  "type": "address"
                },
                {
                  "internalType": "uint256",
                  "name": "tokenInId",
                  "type": "uint256"
                },
                {
                  "internalType": "address",
                  "name": "tokenOut",
                  "type": "address"
                },
                {
                  "internalType": "uint256",
                  "name": "tokenOutId",
                  "type": "uint256"
                }
              ],
              "internalType": "struct ISwapper.SwapTokensData",
              "name": "tokensData",
              "type": "tuple"
            },
            {
              "components": [
                {
                  "internalType": "uint256",
                  "name": "amountIn",
                  "type": "uint256"
                },
                {
                  "internalType": "uint256",
                  "name": "shareIn",
                  "type": "uint256"
                },
                {
                  "internalType": "uint256",
                  "name": "amountOut",
                  "type": "uint256"
                },
                {
                  "internalType": "uint256",
                  "name": "shareOut",
                  "type": "uint256"
                }
              ],
              "internalType": "struct ISwapper.SwapAmountData",
              "name": "amountData",
              "type": "tuple"
            },
            {
              "components": [
                {
                  "internalType": "bool",
                  "name": "withdrawFromYb",
                  "type": "bool"
                },
                {
                  "internalType": "bool",
                  "name": "depositToYb",
                  "type": "bool"
                }
              ],
              "internalType": "struct ISwapper.YieldBoxData",
              "name": "yieldBoxData",
              "type": "tuple"
            }
          ],
          "internalType": "struct ISwapper.SwapData",
          "name": "swapData",
          "type": "tuple"
        },
        {
          "internalType": "bytes",
          "name": "",
          "type": "bytes"
        }
      ],
      "name": "getInputAmount",
      "outputs": [
        {
          "internalType": "uint256",
          "name": "amountIn",
          "type": "uint256"
        }
      ],
      "stateMutability": "view",
      "type": "function"
    },
    {
      "inputs": [
        {
          "components": [
            {
              "components": [
                {
                  "internalType": "address",
                  "name": "tokenIn",
                  "type": "address"
                },
                {
                  "internalType": "uint256",
                  "name": "tokenInId",
                  "type": "uint256"
                },
                {
                  "internalType": "address",
                  "name": "tokenOut",
                  "type": "address"
                },
                {
                  "internalType": "uint256",
                  "name": "tokenOutId",
                  "type": "uint256"
                }
              ],
              "internalType": "struct ISwapper.SwapTokensData",
              "name": "tokensData",
              "type": "tuple"
            },
            {
              "components": [
                {
                  "internalType": "uint256",
                  "name": "amountIn",
                  "type": "uint256"
                },
                {
                  "internalType": "uint256",
                  "name": "shareIn",
                  "type": "uint256"
                },
                {
                  "internalType": "uint256",
                  "name": "amountOut",
                  "type": "uint256"
                },
                {
                  "internalType": "uint256",
                  "name": "shareOut",
                  "type": "uint256"
                }
              ],
              "internalType": "struct ISwapper.SwapAmountData",
              "name": "amountData",
              "type": "tuple"
            },
            {
              "components": [
                {
                  "internalType": "bool",
                  "name": "withdrawFromYb",
                  "type": "bool"
                },
                {
                  "internalType": "bool",
                  "name": "depositToYb",
                  "type": "bool"
                }
              ],
              "internalType": "struct ISwapper.YieldBoxData",
              "name": "yieldBoxData",
              "type": "tuple"
            }
          ],
          "internalType": "struct ISwapper.SwapData",
          "name": "swapData",
          "type": "tuple"
        },
        {
          "internalType": "bytes",
          "name": "",
          "type": "bytes"
        }
      ],
      "name": "getOutputAmount",
      "outputs": [
        {
          "internalType": "uint256",
          "name": "amountOut",
          "type": "uint256"
        }
      ],
      "stateMutability": "view",
      "type": "function"
    },
    {
      "inputs": [],
      "name": "owner",
      "outputs": [
        {
          "internalType": "address",
          "name": "",
          "type": "address"
        }
      ],
      "stateMutability": "view",
      "type": "function"
    },
    {
      "inputs": [],
      "name": "renounceOwnership",
      "outputs": [],
      "stateMutability": "nonpayable",
      "type": "function"
    },
    {
      "inputs": [
        {
          "components": [
            {
              "components": [
                {
                  "internalType": "address",
                  "name": "tokenIn",
                  "type": "address"
                },
                {
                  "internalType": "uint256",
                  "name": "tokenInId",
                  "type": "uint256"
                },
                {
                  "internalType": "address",
                  "name": "tokenOut",
                  "type": "address"
                },
                {
                  "internalType": "uint256",
                  "name": "tokenOutId",
                  "type": "uint256"
                }
              ],
              "internalType": "struct ISwapper.SwapTokensData",
              "name": "tokensData",
              "type": "tuple"
            },
            {
              "components": [
                {
                  "internalType": "uint256",
                  "name": "amountIn",
                  "type": "uint256"
                },
                {
                  "internalType": "uint256",
                  "name": "shareIn",
                  "type": "uint256"
                },
                {
                  "internalType": "uint256",
                  "name": "amountOut",
                  "type": "uint256"
                },
                {
                  "internalType": "uint256",
                  "name": "shareOut",
                  "type": "uint256"
                }
              ],
              "internalType": "struct ISwapper.SwapAmountData",
              "name": "amountData",
              "type": "tuple"
            },
            {
              "components": [
                {
                  "internalType": "bool",
                  "name": "withdrawFromYb",
                  "type": "bool"
                },
                {
                  "internalType": "bool",
                  "name": "depositToYb",
                  "type": "bool"
                }
              ],
              "internalType": "struct ISwapper.YieldBoxData",
              "name": "yieldBoxData",
              "type": "tuple"
            }
          ],
          "internalType": "struct ISwapper.SwapData",
          "name": "swapData",
          "type": "tuple"
        },
        {
          "internalType": "uint256",
          "name": "amountOutMin",
          "type": "uint256"
        },
        {
          "internalType": "address",
          "name": "to",
          "type": "address"
        },
        {
          "internalType": "bytes",
          "name": "data",
          "type": "bytes"
        }
      ],
      "name": "swap",
      "outputs": [
        {
          "internalType": "uint256",
          "name": "amountOut",
          "type": "uint256"
        },
        {
          "internalType": "uint256",
          "name": "shareOut",
          "type": "uint256"
        }
      ],
      "stateMutability": "payable",
      "type": "function"
    },
    {
      "inputs": [],
      "name": "swapRouter",
      "outputs": [
        {
          "internalType": "contract IUniswapV2Router02",
          "name": "",
          "type": "address"
        }
      ],
      "stateMutability": "view",
      "type": "function"
    },
    {
      "inputs": [
        {
          "internalType": "address",
          "name": "newOwner",
          "type": "address"
        }
      ],
      "name": "transferOwnership",
      "outputs": [],
      "stateMutability": "nonpayable",
      "type": "function"
    },
    {
      "inputs": [],
      "name": "yieldBox",
      "outputs": [
        {
          "internalType": "contract IYieldBox",
          "name": "",
          "type": "address"
        }
      ],
      "stateMutability": "view",
      "type": "function"
    },
    {
      "stateMutability": "payable",
      "type": "receive"
    }
  ],
  "bytecode": "0x60e034620001a457601f62001e0538819003918201601f191683019291906001600160401b03841183851017620001a9578160609284926040968752833981010312620001a4576200005181620001bf565b90826200006160208301620001bf565b910151916001600160a01b0380841692838503620001a45760008054336001600160a01b0319821681178355885195859390928416907f8be0079c531659141344cd1fd0a4f28419497f9722a3daafe3b4186f6b6457e09080a3600180551692831562000195575016918215620001845715620001735760805260a05260c05251611c309081620001d582396080518181816102fb0152818161057b015281816105e50152818161068f0152818161072201528181610b0a01528181610c140152610e36015260a05181610bcf015260c05181818161024b015281816103fb0152818161049801528181610804015281816108b00152818161095701528181610a9501528181610b8a0152610ddd0152f35b835163d23f952160e01b8152600490fd5b845163d23f952160e01b8152600490fd5b63d23f952160e01b8152600490fd5b600080fd5b634e487b7160e01b600052604160045260246000fd5b51906001600160a01b0382168203620001a45756fe6080604052600436101561001b575b361561001957600080fd5b005b60003560e01c80631a16321014610f2b5780633fa2ef5e14610e965780635bf66e4814610dc3578063715018a614610d7c5780637b2a8bd214610c6c5780638da5cb5b14610c43578063c31c9c0714610bfe578063c45a015514610bb9578063de40657714610b74578063e3c711a014610a7b578063efa84c6d146101585763f2fde38b0361000e5734610153576020366003190112610153576100bd610f97565b6100c56110ab565b6001600160a01b039081169081156100ff576000548260018060a01b031982161760005516600080516020611bdb833981519152600080a3005b60405162461bcd60e51b815260206004820152602660248201527f4f776e61626c653a206e6577206f776e657220697320746865207a65726f206160448201526564647265737360d01b6064820152608490fd5b600080fd5b36600319016101a08112610153576101401361015357610164356001600160a01b038116810361015357610184356001600160401b03811161015357366023820112156101535780600401356101ad81611090565b916101bb604051938461106d565b818352366024838301011161015357816000926024602093018386013783010152600260015414610a365760026001556000816004356001600160a01b0381168082036101535715801590610a19575b1561093757926044356001600160a01b038116810361015357905b6000608435801580158161092c575b156107b0575061026f91505b60a43590602435887f0000000000000000000000000000000000000000000000000000000000000000611808565b9251156107a2575b60208180518101031261015357602001519061029381866115d1565b9461029c611621565b1561079b5730915b6001600160a01b0382161561070d57815b6001600160a01b03821615610679576102cf9082906115d1565b906001600160a01b03831680151590610667575b15610507575060008561032282969760018060a01b037f00000000000000000000000000000000000000000000000000000000000000001680966116ec565b610347604051978896879586946338ed173960e01b8652610144359060048701611ba1565b03925af1801561046457610363916000916104e4575b50611282565b519161036d611621565b610386575b604083836001805582519182526020820152f35b80915051600019908181019081116104ce576001600160a01b03906103ab90846112b5565b5116610470575b505060408051634d4d7cbd60e11b81526064803560048301523060248301526001600160a01b03948516604483015281018390526000608482018190529093849160a4918391907f0000000000000000000000000000000000000000000000000000000000000000165af1801561046457604092600091610435575b5083610372565b6104559150833d851161045d575b61044d818361106d565b810190611631565b90508361042e565b503d610443565b6040513d6000823e3d90fd5b81519081019081116104ce576104c79183916001600160a01b039161049591906112b5565b517f00000000000000000000000000000000000000000000000000000000000000006001600160a01b031691166116ec565b82806103b2565b634e487b7160e01b600052601160045260246000fd5b61050191503d806000833e6104f9818361106d565b8101906111ca565b8561035d565b94929392916001600160a01b0381161580610655575b156105b45750604051637ff36ab560e01b8152610144356004820152608060248201529450600093859384928392919061055b906084850190611245565b6001600160a01b03928316604485015260648401919091529190910392907f0000000000000000000000000000000000000000000000000000000000000000165af1801561046457610363916000916104e45750611282565b9294919392916001600160a01b0383168015159190610643575b50156106315760008461060c829660018060a01b037f00000000000000000000000000000000000000000000000000000000000000001680966116ec565b610347604051978896879586946318cbafe560e01b8652610144359060048701611ba1565b604051631115766760e01b8152600490fd5b6001600160a01b0316159050896105ce565b506001600160a01b038616151561051d565b506001600160a01b03811615156102e3565b6040516315ab88c960e31b8152906020826004817f00000000000000000000000000000000000000000000000000000000000000006001600160a01b03165afa8015610464576000906106d2575b6102cf9250906115d1565b506020823d602011610705575b816106ec6020938361106d565b81010312610153576107006102cf926112dd565b6106c7565b3d91506106df565b6040516315ab88c960e31b81526020816004817f00000000000000000000000000000000000000000000000000000000000000006001600160a01b03165afa90811561046457600091610761575b506102b5565b90506020813d602011610793575b8161077c6020938361106d565b810103126101535761078d906112dd565b8961075b565b3d915061076f565b86916102a4565b506107ab6111a5565b610277565b90602435918261087a575b505050606435806107d1575b5061026f90610241565b60c4356108705760405163442c159960e01b8152600481019190915260e4356024820152600060448201526020816064817f00000000000000000000000000000000000000000000000000000000000000006001600160a01b03165afa801561046457610845575b5061026f905b906107c7565b602090813d8311610869575b61085b818361106d565b810103126101535787610839565b503d610851565b5061026f9061083f565b9192509015610925575060405163442c159960e01b8152600481019190915260a4356024820152600060448201526020816064817f00000000000000000000000000000000000000000000000000000000000000006001600160a01b03165afa908115610464576000916108f3575b505b8780806107bb565b90506020813d60201161091d575b8161090e6020938361106d565b810103126101535751876108e9565b3d9150610901565b90506108eb565b5060c4351515610235565b50604051630cf35bdd60e41b8082526024803560048401529094916080917f00000000000000000000000000000000000000000000000000000000000000006001600160a01b031691908390829081855afa80156104645783916000916109f8575b5096602460405180948193825260643560048301525afa918215610464576000926109c7575b505090610226565b6109e69250803d106109f1575b6109de818361106d565b8101906112f1565b5050905086806109bf565b503d6109d4565b610a0f9150823d84116109f1576109de818361106d565b5050905089610999565b506044356001600160a01b0381169081900361015357151561020b565b60405162461bcd60e51b815260206004820152601f60248201527f5265656e7472616e637947756172643a207265656e7472616e742063616c6c006044820152606490fd5b3461015357610b066000610a8e36610fcb565b5050610adc7f0000000000000000000000000000000000000000000000000000000000000000610ac7610ac1828561132a565b906115d1565b9260608101359060806020820135910161141e565b905060405193849283926307c0329d60e21b84526004840152604060248401526044830190611245565b03817f00000000000000000000000000000000000000000000000000000000000000006001600160a01b03165afa90811561046457602091610b5091600091610b59575b506112a8565b51604051908152f35b610b6e91503d806000833e6104f9818361106d565b83610b4a565b34610153576000366003190112610153576040517f00000000000000000000000000000000000000000000000000000000000000006001600160a01b03168152602090f35b34610153576000366003190112610153576040517f00000000000000000000000000000000000000000000000000000000000000006001600160a01b03168152602090f35b34610153576000366003190112610153576040517f00000000000000000000000000000000000000000000000000000000000000006001600160a01b03168152602090f35b34610153576000366003190112610153576000546040516001600160a01b039091168152602090f35b346101535760c036600319011261015357610d78610c88610fad565b610c90610fbc565b90610c99611161565b50610ca2611161565b91610cab611103565b9060443582526064356020830152610cc1611103565b90600082526000604083015260043560208301526024356060830152610ce5611138565b93151584521515602084015283526020830152604082015260405191829182919091610120602060406101408401956060815160018060a01b03808251168852858201518689015284820151168488015201516060860152606083820151805160808801528481015160a08801528381015160c0880152015160e086015201518051151561010085015201511515910152565b0390f35b3461015357600036600319011261015357610d956110ab565b600080546001600160a01b0319811682556001600160a01b0316600080516020611bdb8339815191528280a3005b3461015357610e326000610dd636610fcb565b5050610e097f0000000000000000000000000000000000000000000000000000000000000000610ac7610ac1828561132a565b50604051938492839263d06ca61f60e01b84526004840152604060248401526044830190611245565b03817f00000000000000000000000000000000000000000000000000000000000000006001600160a01b03165afa90811561046457602091610b5091600091610e7b5750611282565b610e9091503d806000833e6104f9818361106d565b8361035d565b346101535760c036600319011261015357610eaf610f97565b6001600160a01b0390602435828116919082900361015357610d7892610ed3610fad565b91610edc610fbc565b610ee4611161565b50610eed611161565b94610ef6611103565b9360443585526064356020860152610f0c611103565b9316835260408301526000602083015260006060830152610ce5611138565b3461015357600036600319011261015357610d78610f476111a5565b6040519182916020835260208301905b919082519283825260005b848110610f83575050826000602080949584010152601f8019910116010190565b602081830181015184830182015201610f62565b600435906001600160a01b038216820361015357565b60843590811515820361015357565b60a43590811515820361015357565b600319810161016081126101535761014013610153576004916001600160401b03916101443590838211610153578060238301121561015357818501359384116101535760248483010111610153576024019190565b604081019081106001600160401b0382111761103c57604052565b634e487b7160e01b600052604160045260246000fd5b608081019081106001600160401b0382111761103c57604052565b601f909101601f19168101906001600160401b0382119082101761103c57604052565b6001600160401b03811161103c57601f01601f191660200190565b6000546001600160a01b031633036110bf57565b606460405162461bcd60e51b815260206004820152602060248201527f4f776e61626c653a2063616c6c6572206973206e6f7420746865206f776e65726044820152fd5b60405190608082016001600160401b0381118382101761103c5760405260006060838281528260208201528260408201520152565b60408051919082016001600160401b0381118382101761103c5760405260006020838281520152565b60405190606082016001600160401b0381118382101761103c5760405281611187611103565b8152611191611103565b602082015260406111a0611138565b910152565b610e1042018042116104ce57604051906020820152602081526111c781611021565b90565b9060209081838203126101535782516001600160401b0393848211610153570181601f8201121561015357805193841161103c578360051b90604051946112138584018761106d565b85528380860192820101928311610153578301905b828210611236575050505090565b81518152908301908301611228565b90815180825260208080930193019160005b828110611265575050505090565b83516001600160a01b031685529381019392810192600101611257565b8051600110156112925760400190565b634e487b7160e01b600052603260045260246000fd5b8051156112925760200190565b80518210156112925760209160051b010190565b356001600160a01b03811681036101535790565b51906001600160a01b038216820361015357565b919082608091031261015357815160058110156101535791611315602082016112dd565b916060611324604084016112dd565b92015190565b91906001600160a01b03908161133f856112c9565b1615801590611408575b156113655750506111c7604061135e846112c9565b93016112c9565b1691604051630cf35bdd60e41b90818152602083013560048201526080928382602481895afa9182156104645760609385936024926000916113e7575b509760405195869485938452013560048301525afa918215610464576000926113ca57505090565b6113e09250803d106109f1576109de818361106d565b5050905090565b6113fe9150853d87116109f1576109de818361106d565b50509050386113a2565b5081611416604086016112c9565b161515611349565b9392843592600092839283929186158015816115c4575b1561144a575050505050505060409092013590565b81929394969995989791611522575b50505081611468575b50505050565b90919293945060408301358015600014611518575060405163442c159960e01b8152600481019290925260609092013560248201526044810183905290602090829060649082906001600160a01b03165afa91821561150c5780926114d5575b50505b9038808080611462565b9091506020823d8211611504575b816114f06020938361106d565b8101031261150157505138806114c8565b80fd5b3d91506114e3565b604051903d90823e3d90fd5b93505050506114cb565b9298509091156115bd575060405163442c159960e01b81526004810191909152602083810135602483015260448201859052816064816001600160a01b038b165afa9081156115b257849161157d575b505b95388080611459565b90506020813d82116115aa575b816115976020938361106d565b810103126115a6575138611572565b8380fd5b3d915061158a565b6040513d86823e3d90fd5b9050611574565b5060408a01351515611435565b604051929190606084016001600160401b0381118582101761103c5760405260028452604036602086013761161b84611609816112a8565b6001600160a01b039384169052611282565b91169052565b6101243580151581036101535790565b9190826040910312610153576020825192015190565b3d15611672573d9061165882611090565b91611666604051938461106d565b82523d6000602084013e565b606090565b90816020910312610153575180151581036101535790565b1561169657565b60405162461bcd60e51b815260206004820152602860248201527f42617365537761707065723a3a73616665417070726f76653a20617070726f76604482015267194819985a5b195960c21b6064820152608490fd5b803b156117f6576117929261175791604051936020948581019363095ea7b360e01b9283865260018060a01b0316908160248401526000968780809886826044819901526044815261173d81611052565b5190828a5af161174b611647565b816117c6575b5061168f565b60405191888301948552602483015260448201526044815261177881611052565b51925af190611785611647565b82611794575b505061168f565b565b80919250519182159283156117ae575b505050388061178b565b6117be9350820181019101611677565b3880806117a4565b8051801592508b9083156117de575b50505038611751565b6117ee9350820181019101611677565b388a816117d5565b60405163030ed58f60e21b8152600490fd5b939190929361010435801515810361015357611a93575050508115611a81576001600160a01b0316908115611a635760409182516370a0823160e01b93848252600492308484015260209560249587858881865afa948515611a5857600095611a29575b5083516323b872dd60e01b898201908152338983015230604483015260648083019390935291815260a0810191906001600160401b03831181841017611a155791600080611901938c9695848a526118c385611021565b8785527f5361666545524332303a206c6f772d6c6576656c2063616c6c206661696c656460c0820152519082895af16118fa611647565b9086611b04565b8051806119a1575b505086845180948193825230898301525afa95861561199657600096611965575b5050818511156119565750830392831161194357505090565b601190634e487b7160e01b600052526000fd5b5163312d207360e11b81529050fd5b8181979293973d831161198f575b61197d818361106d565b8101031261150157505193388061192a565b503d611973565b82513d6000823e3d90fd5b92806119b293948301019101611677565b156119c05786903880611909565b825162461bcd60e51b8152808601889052602a818801527f5361666545524332303a204552433230206f7065726174696f6e20646964206e6044820152691bdd081cdd58d8d9595960b21b6064820152608490fd5b88604189634e487b7160e01b600052526000fd5b90948882813d8311611a51575b611a40818361106d565b81010312611501575051933861186c565b503d611a36565b84513d6000823e3d90fd5b8091503403611a6f5790565b60405163f1640ae160e01b8152600490fd5b6040516365e52d5160e11b8152600490fd5b6040935090600060a492859694965196879586946311a5cc7760e31b865260048601523060248601523060448601526064850152608484015260018060a01b03165af190811561046457600091611ae8575090565b611b00915060403d811161045d5761044d818361106d565b5090565b91929015611b665750815115611b18575090565b3b15611b215790565b60405162461bcd60e51b815260206004820152601d60248201527f416464726573733a2063616c6c20746f206e6f6e2d636f6e74726163740000006044820152606490fd5b825190915015611b795750805190602001fd5b60405162461bcd60e51b815260206004820152908190611b9d906024830190610f57565b0390fd5b9192608093611bc692979695978452602084015260a0604084015260a0830190611245565b6001600160a01b039095166060820152015256fe8be0079c531659141344cd1fd0a4f28419497f9722a3daafe3b4186f6b6457e0a264697066735822122095cd9c8efb41bb29dd3904c2df089fad8f6a4851f4c9f9edc389440fb538875a64736f6c63430008130033",
  "linkReferences": {},
  "deployedLinkReferences": {}
}