{
  "_format": "hh-sol-artifact-1",
  "contractName": "UniswapV3Swapper",
  "sourceName": "contracts/Swapper/UniswapV3Swapper.sol",
  "abi": [
    {
      "inputs": [
        {
          "internalType": "contract IYieldBox",
          "name": "_yieldBox",
          "type": "address"
        },
        {
          "internalType": "contract ISwapRouter",
          "name": "_swapRouter",
          "type": "address"
        },
        {
          "internalType": "contract IUniswapV3Factory",
          "name": "_factory",
          "type": "address"
        }
      ],
      "stateMutability": "nonpayable",
      "type": "constructor"
    },
    {
      "inputs": [],
      "name": "AddressNotValid",
      "type": "error"
    },
    {
      "anonymous": false,
      "inputs": [
        {
          "indexed": true,
          "internalType": "address",
          "name": "previousOwner",
          "type": "address"
        },
        {
          "indexed": true,
          "internalType": "address",
          "name": "newOwner",
          "type": "address"
        }
      ],
      "name": "OwnershipTransferred",
      "type": "event"
    },
    {
      "anonymous": false,
      "inputs": [
        {
          "indexed": false,
          "internalType": "uint256",
          "name": "_old",
          "type": "uint256"
        },
        {
          "indexed": false,
          "internalType": "uint256",
          "name": "_new",
          "type": "uint256"
        }
      ],
      "name": "PoolFee",
      "type": "event"
    },
    {
      "inputs": [
        {
          "internalType": "address",
          "name": "tokenIn",
          "type": "address"
        },
        {
          "internalType": "address",
          "name": "tokenOut",
          "type": "address"
        },
        {
          "internalType": "uint256",
          "name": "amountIn",
          "type": "uint256"
        },
        {
          "internalType": "uint256",
          "name": "shareIn",
          "type": "uint256"
        },
        {
          "internalType": "bool",
          "name": "withdrawFromYb",
          "type": "bool"
        },
        {
          "internalType": "bool",
          "name": "depositToYb",
          "type": "bool"
        }
      ],
      "name": "buildSwapData",
      "outputs": [
        {
          "components": [
            {
              "components": [
                {
                  "internalType": "address",
                  "name": "tokenIn",
                  "type": "address"
                },
                {
                  "internalType": "uint256",
                  "name": "tokenInId",
                  "type": "uint256"
                },
                {
                  "internalType": "address",
                  "name": "tokenOut",
                  "type": "address"
                },
                {
                  "internalType": "uint256",
                  "name": "tokenOutId",
                  "type": "uint256"
                }
              ],
              "internalType": "struct ISwapper.SwapTokensData",
              "name": "tokensData",
              "type": "tuple"
            },
            {
              "components": [
                {
                  "internalType": "uint256",
                  "name": "amountIn",
                  "type": "uint256"
                },
                {
                  "internalType": "uint256",
                  "name": "shareIn",
                  "type": "uint256"
                },
                {
                  "internalType": "uint256",
                  "name": "amountOut",
                  "type": "uint256"
                },
                {
                  "internalType": "uint256",
                  "name": "shareOut",
                  "type": "uint256"
                }
              ],
              "internalType": "struct ISwapper.SwapAmountData",
              "name": "amountData",
              "type": "tuple"
            },
            {
              "components": [
                {
                  "internalType": "bool",
                  "name": "withdrawFromYb",
                  "type": "bool"
                },
                {
                  "internalType": "bool",
                  "name": "depositToYb",
                  "type": "bool"
                }
              ],
              "internalType": "struct ISwapper.YieldBoxData",
              "name": "yieldBoxData",
              "type": "tuple"
            }
          ],
          "internalType": "struct ISwapper.SwapData",
          "name": "",
          "type": "tuple"
        }
      ],
      "stateMutability": "pure",
      "type": "function"
    },
    {
      "inputs": [
        {
          "internalType": "uint256",
          "name": "tokenInId",
          "type": "uint256"
        },
        {
          "internalType": "uint256",
          "name": "tokenOutId",
          "type": "uint256"
        },
        {
          "internalType": "uint256",
          "name": "amountIn",
          "type": "uint256"
        },
        {
          "internalType": "uint256",
          "name": "shareIn",
          "type": "uint256"
        },
        {
          "internalType": "bool",
          "name": "withdrawFromYb",
          "type": "bool"
        },
        {
          "internalType": "bool",
          "name": "depositToYb",
          "type": "bool"
        }
      ],
      "name": "buildSwapData",
      "outputs": [
        {
          "components": [
            {
              "components": [
                {
                  "internalType": "address",
                  "name": "tokenIn",
                  "type": "address"
                },
                {
                  "internalType": "uint256",
                  "name": "tokenInId",
                  "type": "uint256"
                },
                {
                  "internalType": "address",
                  "name": "tokenOut",
                  "type": "address"
                },
                {
                  "internalType": "uint256",
                  "name": "tokenOutId",
                  "type": "uint256"
                }
              ],
              "internalType": "struct ISwapper.SwapTokensData",
              "name": "tokensData",
              "type": "tuple"
            },
            {
              "components": [
                {
                  "internalType": "uint256",
                  "name": "amountIn",
                  "type": "uint256"
                },
                {
                  "internalType": "uint256",
                  "name": "shareIn",
                  "type": "uint256"
                },
                {
                  "internalType": "uint256",
                  "name": "amountOut",
                  "type": "uint256"
                },
                {
                  "internalType": "uint256",
                  "name": "shareOut",
                  "type": "uint256"
                }
              ],
              "internalType": "struct ISwapper.SwapAmountData",
              "name": "amountData",
              "type": "tuple"
            },
            {
              "components": [
                {
                  "internalType": "bool",
                  "name": "withdrawFromYb",
                  "type": "bool"
                },
                {
                  "internalType": "bool",
                  "name": "depositToYb",
                  "type": "bool"
                }
              ],
              "internalType": "struct ISwapper.YieldBoxData",
              "name": "yieldBoxData",
              "type": "tuple"
            }
          ],
          "internalType": "struct ISwapper.SwapData",
          "name": "",
          "type": "tuple"
        }
      ],
      "stateMutability": "pure",
      "type": "function"
    },
    {
      "inputs": [],
      "name": "factory",
      "outputs": [
        {
          "internalType": "contract IUniswapV3Factory",
          "name": "",
          "type": "address"
        }
      ],
      "stateMutability": "view",
      "type": "function"
    },
    {
      "inputs": [],
      "name": "getDefaultDexOptions",
      "outputs": [
        {
          "internalType": "bytes",
          "name": "",
          "type": "bytes"
        }
      ],
      "stateMutability": "view",
      "type": "function"
    },
    {
      "inputs": [
        {
          "components": [
            {
              "components": [
                {
                  "internalType": "address",
                  "name": "tokenIn",
                  "type": "address"
                },
                {
                  "internalType": "uint256",
                  "name": "tokenInId",
                  "type": "uint256"
                },
                {
                  "internalType": "address",
                  "name": "tokenOut",
                  "type": "address"
                },
                {
                  "internalType": "uint256",
                  "name": "tokenOutId",
                  "type": "uint256"
                }
              ],
              "internalType": "struct ISwapper.SwapTokensData",
              "name": "tokensData",
              "type": "tuple"
            },
            {
              "components": [
                {
                  "internalType": "uint256",
                  "name": "amountIn",
                  "type": "uint256"
                },
                {
                  "internalType": "uint256",
                  "name": "shareIn",
                  "type": "uint256"
                },
                {
                  "internalType": "uint256",
                  "name": "amountOut",
                  "type": "uint256"
                },
                {
                  "internalType": "uint256",
                  "name": "shareOut",
                  "type": "uint256"
                }
              ],
              "internalType": "struct ISwapper.SwapAmountData",
              "name": "amountData",
              "type": "tuple"
            },
            {
              "components": [
                {
                  "internalType": "bool",
                  "name": "withdrawFromYb",
                  "type": "bool"
                },
                {
                  "internalType": "bool",
                  "name": "depositToYb",
                  "type": "bool"
                }
              ],
              "internalType": "struct ISwapper.YieldBoxData",
              "name": "yieldBoxData",
              "type": "tuple"
            }
          ],
          "internalType": "struct ISwapper.SwapData",
          "name": "swapData",
          "type": "tuple"
        },
        {
          "internalType": "bytes",
          "name": "",
          "type": "bytes"
        }
      ],
      "name": "getInputAmount",
      "outputs": [
        {
          "internalType": "uint256",
          "name": "amountIn",
          "type": "uint256"
        }
      ],
      "stateMutability": "view",
      "type": "function"
    },
    {
      "inputs": [
        {
          "components": [
            {
              "components": [
                {
                  "internalType": "address",
                  "name": "tokenIn",
                  "type": "address"
                },
                {
                  "internalType": "uint256",
                  "name": "tokenInId",
                  "type": "uint256"
                },
                {
                  "internalType": "address",
                  "name": "tokenOut",
                  "type": "address"
                },
                {
                  "internalType": "uint256",
                  "name": "tokenOutId",
                  "type": "uint256"
                }
              ],
              "internalType": "struct ISwapper.SwapTokensData",
              "name": "tokensData",
              "type": "tuple"
            },
            {
              "components": [
                {
                  "internalType": "uint256",
                  "name": "amountIn",
                  "type": "uint256"
                },
                {
                  "internalType": "uint256",
                  "name": "shareIn",
                  "type": "uint256"
                },
                {
                  "internalType": "uint256",
                  "name": "amountOut",
                  "type": "uint256"
                },
                {
                  "internalType": "uint256",
                  "name": "shareOut",
                  "type": "uint256"
                }
              ],
              "internalType": "struct ISwapper.SwapAmountData",
              "name": "amountData",
              "type": "tuple"
            },
            {
              "components": [
                {
                  "internalType": "bool",
                  "name": "withdrawFromYb",
                  "type": "bool"
                },
                {
                  "internalType": "bool",
                  "name": "depositToYb",
                  "type": "bool"
                }
              ],
              "internalType": "struct ISwapper.YieldBoxData",
              "name": "yieldBoxData",
              "type": "tuple"
            }
          ],
          "internalType": "struct ISwapper.SwapData",
          "name": "swapData",
          "type": "tuple"
        },
        {
          "internalType": "bytes",
          "name": "",
          "type": "bytes"
        }
      ],
      "name": "getOutputAmount",
      "outputs": [
        {
          "internalType": "uint256",
          "name": "amountOut",
          "type": "uint256"
        }
      ],
      "stateMutability": "view",
      "type": "function"
    },
    {
      "inputs": [],
      "name": "owner",
      "outputs": [
        {
          "internalType": "address",
          "name": "",
          "type": "address"
        }
      ],
      "stateMutability": "view",
      "type": "function"
    },
    {
      "inputs": [],
      "name": "poolFee",
      "outputs": [
        {
          "internalType": "uint24",
          "name": "",
          "type": "uint24"
        }
      ],
      "stateMutability": "view",
      "type": "function"
    },
    {
      "inputs": [],
      "name": "renounceOwnership",
      "outputs": [],
      "stateMutability": "nonpayable",
      "type": "function"
    },
    {
      "inputs": [
        {
          "internalType": "uint24",
          "name": "_newFee",
          "type": "uint24"
        }
      ],
      "name": "setPoolFee",
      "outputs": [],
      "stateMutability": "nonpayable",
      "type": "function"
    },
    {
      "inputs": [
        {
          "components": [
            {
              "components": [
                {
                  "internalType": "address",
                  "name": "tokenIn",
                  "type": "address"
                },
                {
                  "internalType": "uint256",
                  "name": "tokenInId",
                  "type": "uint256"
                },
                {
                  "internalType": "address",
                  "name": "tokenOut",
                  "type": "address"
                },
                {
                  "internalType": "uint256",
                  "name": "tokenOutId",
                  "type": "uint256"
                }
              ],
              "internalType": "struct ISwapper.SwapTokensData",
              "name": "tokensData",
              "type": "tuple"
            },
            {
              "components": [
                {
                  "internalType": "uint256",
                  "name": "amountIn",
                  "type": "uint256"
                },
                {
                  "internalType": "uint256",
                  "name": "shareIn",
                  "type": "uint256"
                },
                {
                  "internalType": "uint256",
                  "name": "amountOut",
                  "type": "uint256"
                },
                {
                  "internalType": "uint256",
                  "name": "shareOut",
                  "type": "uint256"
                }
              ],
              "internalType": "struct ISwapper.SwapAmountData",
              "name": "amountData",
              "type": "tuple"
            },
            {
              "components": [
                {
                  "internalType": "bool",
                  "name": "withdrawFromYb",
                  "type": "bool"
                },
                {
                  "internalType": "bool",
                  "name": "depositToYb",
                  "type": "bool"
                }
              ],
              "internalType": "struct ISwapper.YieldBoxData",
              "name": "yieldBoxData",
              "type": "tuple"
            }
          ],
          "internalType": "struct ISwapper.SwapData",
          "name": "swapData",
          "type": "tuple"
        },
        {
          "internalType": "uint256",
          "name": "amountOutMin",
          "type": "uint256"
        },
        {
          "internalType": "address",
          "name": "to",
          "type": "address"
        },
        {
          "internalType": "bytes",
          "name": "data",
          "type": "bytes"
        }
      ],
      "name": "swap",
      "outputs": [
        {
          "internalType": "uint256",
          "name": "amountOut",
          "type": "uint256"
        },
        {
          "internalType": "uint256",
          "name": "shareOut",
          "type": "uint256"
        }
      ],
      "stateMutability": "nonpayable",
      "type": "function"
    },
    {
      "inputs": [],
      "name": "swapRouter",
      "outputs": [
        {
          "internalType": "contract ISwapRouter",
          "name": "",
          "type": "address"
        }
      ],
      "stateMutability": "view",
      "type": "function"
    },
    {
      "inputs": [
        {
          "internalType": "address",
          "name": "newOwner",
          "type": "address"
        }
      ],
      "name": "transferOwnership",
      "outputs": [],
      "stateMutability": "nonpayable",
      "type": "function"
    }
  ],
  "bytecode": "0x60e0346200016b57601f620028c338819003918201601f19168301916001600160401b0383118484101762000170578084926060946040528339810103126200016b5780516001600160a01b038082169291908382036200016b57602083015192818416908185036200016b576040015194828616918287036200016b57620000e2620000e292620000ea95600054903360018060a01b03198316176000553391167f8be0079c531659141344cd1fd0a4f28419497f9722a3daafe3b4186f6b6457e0600080a360018055610bb862ffffff196002541617600255151562000186565b151562000186565b60805260a05260c0526040516126ef9081620001d482396080518181816102680152818161047a0152818161076e01528181610818015281816108bd01528181610915015281816109d40152611064015260a05181818161029e015281816104200152610e25015260c051818181610a5601528181610de101526110e90152f35b600080fd5b634e487b7160e01b600052604160045260246000fd5b156200018e57565b60405162461bcd60e51b815260206004820152601a60248201527f537761707065723a2061646472657373206e6f742076616c69640000000000006044820152606490fdfe608080604052600436101561001357600080fd5b60003560e01c908163089fe6aa146113d0575080631a163210146113a05780633fa2ef5e1461130d5780635bf66e4814611052578063715018a614610fec57806373dd250c14610f815780637b2a8bd214610e705780638da5cb5b14610e49578063c31c9c0714610e05578063c45a015514610dc1578063e3c711a0146109bf578063efa84c6d1461017c5763f2fde38b146100ae57600080fd5b34610177576020366003190112610177576100c7611430565b6100cf611530565b6001600160a01b0380911690811561012357600054826bffffffffffffffffffffffff60a01b821617600055167f8be0079c531659141344cd1fd0a4f28419497f9722a3daafe3b4186f6b6457e0600080a3005b60405162461bcd60e51b815260206004820152602660248201527f4f776e61626c653a206e6577206f776e657220697320746865207a65726f206160448201526564647265737360d01b6064820152608490fd5b600080fd5b346101775736600319016101a081126101775761014013610177576001600160a01b0361016435166101643503610177576101843567ffffffffffffffff811161017757366023820112156101775780600401356101d981611514565b916101e760405193846114f2565b8183523660248383010111610177578160009260246020930183860137830101528060006004356001600160a01b03811680820361017757158015906109a3575b1561089757916044356001600160a01b038116810361017757935b6000608435801580158161088c575b15610714575061028c91505b60a43590602435877f00000000000000000000000000000000000000000000000000000000000000006119d7565b60405163095ea7b360e01b60208201527f00000000000000000000000000000000000000000000000000000000000000006001600160a01b031660248201526044810182905290929060009081906102f181606481015b03601f1981018352826114f2565b60208151910182895af161030361198f565b816106e5575b50156106bb5751156106ad575b602081805181010312610177576020015162ffffff6002541693610338611969565b156106a457305b604051958661010081011067ffffffffffffffff6101008901111761068e576001600160a01b038093610100890160405216875282881660208801526040870152166060850152608084015260a08301526101443560c0830152600060e08301526001600160a01b0360e06040519363414bf389821b855282815116600486015282602082015116602486015262ffffff60408201511660448601528260608201511660648601526080810151608486015260a081015160a486015260c081015160c486015201511660e48301526020826101048160006001600160a01b037f0000000000000000000000000000000000000000000000000000000000000000165af19182156105845760009261065a575b5061045a611969565b61046f575b6040809350519182526020820152f35b506001600160a01b037f00000000000000000000000000000000000000000000000000000000000000001691803b156106155760405163095ea7b360e01b602082019081526001600160a01b038516602483015260448201849052600092839290919083906104e181606481016102e3565b51925af16104ed61198f565b816105e6575b501561059057604060009260a4825180958193634d4d7cbd60e11b835260643560048401523060248401526001600160a01b03610164351660448401528660648401528160848401525af1801561058457604092600091610555575b5061045f565b6105759150833d851161057d575b61056d81836114f2565b810190611979565b90508361054f565b503d610563565b6040513d6000823e3d90fd5b60405162461bcd60e51b815260206004820152602860248201527f42617365537761707065723a3a73616665417070726f76653a20617070726f76604482015267194819985a5b195960c21b6064820152608490fd5b80518015925082156105fb575b5050836104f3565b61060e92506020809183010191016119bf565b83806105f3565b60405162461bcd60e51b815260206004820152601460248201527f537761707065723a206e6f20636f6e74726163740000000000000000000000006044820152606490fd5b9091506020813d602011610686575b81610676602093836114f2565b8101031261017757519083610451565b3d9150610669565b634e487b7160e01b600052604160045260246000fd5b6101643561033f565b506106b661162d565b610316565b60405162461bcd60e51b8152602060048201526002602482015261534160f01b6044820152606490fd5b80518015925082156106fa575b505087610309565b61070d92506020809183010191016119bf565b87806106f2565b9060243591826107dc575b50505060643580610735575b5061028c9061025e565b60c4356107d2576040519063442c159960e01b8252600482015260e4356024820152600060448201526020816064816001600160a01b037f0000000000000000000000000000000000000000000000000000000000000000165afa8015610584576107a7575b5061028c905b9061072b565b602090813d83116107cb575b6107bd81836114f2565b81010312610177578661079b565b503d6107b3565b5061028c906107a1565b919250901561088557506040519063442c159960e01b8252600482015260a4356024820152600060448201526020816064816001600160a01b037f0000000000000000000000000000000000000000000000000000000000000000165afa90811561058457600091610853575b505b86808061071f565b90506020813d60201161087d575b8161086e602093836114f2565b81010312610177575186610849565b3d9150610861565b905061084b565b5060c4351515610252565b50604051630cf35bdd60e41b815260243560048201526080816024816001600160a01b037f0000000000000000000000000000000000000000000000000000000000000000165afa90811561058457600091610980575b5091604051630cf35bdd60e41b815260643560048201526080816024816001600160a01b037f0000000000000000000000000000000000000000000000000000000000000000165afa9081156105845760009161094d575b5093610243565b61096f915060803d608011610979575b61096781836114f2565b810190611690565b5050905085610946565b503d61095d565b610999915060803d6080116109795761096781836114f2565b50509050846108ee565b506044356001600160a01b038116809103610177571515610228565b3461017757610a166109d036611464565b50507f00000000000000000000000000000000000000000000000000000000000000006109fd81836116c9565b93909160209360608101359060808682013591016117bd565b600254604051630b4c774160e11b81526001600160a01b038581166004830152878116602483015262ffffff9092166044820152919592509084816064817f000000000000000000000000000000000000000000000000000000000000000086165afa90811561058457600091610d8c575b508160405191610a97836114ba565b600283528683016040368237603c610aae85611dc5565b526000610aba85611de8565b5260405192839163883bdbfd60e01b8352602495868401908b60048601525180915260448401919060005b8c828210610d6c5750505050600093918380920392165afa90811561058457600090600092610c62575b50610b23610b1c82611de8565b5191611dc5565b5160060b9060060b0390667fffffffffffff8213667fffffffffffff19831217610c4d5783610b5d81610b5584611de8565b511692611dc5565b51169003928311610c385760060b916000603c840560020b93600081129081610c24575b50610bfb575b80610be85750851b77ffffffffffffffffffffffffffffffffffffffff000000001615610bd457506fffffffffffffffffffffffffffffffff610bcc94951690611e0b565b604051908152f35b634e487b7160e01b60009081526012600452fd5b634e487b7160e01b815260116004529050fd5b92627fffff198114610c11576000190192610b87565b634e487b7160e01b845260116004528284fd5b915050603c6000910760060b151589610b81565b50634e487b7160e01b60009081526011600452fd5b82634e487b7160e01b60005260116004526000fd5b9150503d806000833e610c7581836114f2565b81019060408183031261017757805167ffffffffffffffff908181116101775782019183601f8401121561017757825192610caf84611dad565b93610cbd60405195866114f2565b8085528a8086019160051b83010191868311610177578b01905b828210610d53575050508881015191821161017757019180601f84011215610177578251610d0481611dad565b93610d1260405195866114f2565b818552898086019260051b820101928311610177578901905b828210610d3b5750505088610b0f565b81518781168103610177578152908901908901610d2b565b81518060060b8103610177578152908b01908b01610cd7565b835163ffffffff1685528896508a95509384019390920191600101610ae5565b90508481813d8311610dba575b610da381836114f2565b8101031261017757610db490611668565b86610a88565b503d610d99565b346101775760003660031901126101775760206040516001600160a01b037f0000000000000000000000000000000000000000000000000000000000000000168152f35b346101775760003660031901126101775760206040516001600160a01b037f0000000000000000000000000000000000000000000000000000000000000000168152f35b346101775760003660031901126101775760206001600160a01b0360005416604051908152f35b346101775760c036600319011261017757610f7d610e8c611446565b610e94611455565b90610e9d6115e8565b50610ea66115e8565b91610eaf611588565b9060443582526064356020830152610ec5611588565b90600082526000604083015260043560208301526024356060830152610ee96115be565b9315158452151560208401528352602083015260408201526040519182918291909161012060206040610140840195606081516001600160a01b03808251168852858201518689015284820151168488015201516060860152606083820151805160808801528481015160a08801528381015160c0880152015160e086015201518051151561010085015201511515910152565b0390f35b346101775760203660031901126101775760043562ffffff80821680920361017757610fab611530565b7f2bff118b9b9e3deb4fc5204e6ba828351c954685d0b119d0e21add79f878339960406002549281519084168152846020820152a162ffffff191617600255005b3461017757600036600319011261017757611005611530565b6000805473ffffffffffffffffffffffffffffffffffffffff19811682556001600160a01b03167f8be0079c531659141344cd1fd0a4f28419497f9722a3daafe3b4186f6b6457e08280a3005b346101775761106036611464565b50507f0000000000000000000000000000000000000000000000000000000000000000906110aa61109183836116c9565b91909360209360608101359060808682013591016117bd565b50600254604051630b4c774160e11b81526001600160a01b038681166004830152848116602483015262ffffff909216604482015291949184816064817f000000000000000000000000000000000000000000000000000000000000000086165afa908115610584576000916112d8575b50816040519161112a836114ba565b600283528683016040368237603c61114185611dc5565b52600061114d85611de8565b5260405192839163883bdbfd60e01b8352602495868401908b60048601525180915260448401919060005b8c8282106112b85750505050600093918380920392165afa908115610584576000906000926111ae5750610b23610b1c82611de8565b9150503d806000833e6111c181836114f2565b81019060408183031261017757805167ffffffffffffffff908181116101775782019183601f84011215610177578251926111fb84611dad565b9361120960405195866114f2565b8085528a8086019160051b83010191868311610177578b01905b82821061129f575050508881015191821161017757019180601f8401121561017757825161125081611dad565b9361125e60405195866114f2565b818552898086019260051b820101928311610177578901905b8282106112875750505088610b0f565b81518781168103610177578152908901908901611277565b81518060060b8103610177578152908b01908b01611223565b835163ffffffff1685528896508a95509384019390920191600101611178565b90508481813d8311611306575b6112ef81836114f2565b810103126101775761130090611668565b8661111b565b503d6112e5565b346101775760c036600319011261017757611326611430565b6024356001600160a01b039182821680920361017757610f7d92611348611446565b91611351611455565b6113596115e8565b506113626115e8565b9461136b611588565b9360443585526064356020860152611381611588565b9316835260408301526000602083015260006060830152610ee96115be565b3461017757600036600319011261017757610f7d6113bc61162d565b6040519182916020835260208301906113f0565b346101775760003660031901126101775760209062ffffff600254168152f35b919082519283825260005b84811061141c575050826000602080949584010152601f8019910116010190565b6020818301810151848301820152016113fb565b600435906001600160a01b038216820361017757565b60843590811515820361017757565b60a43590811515820361017757565b600319810161016081126101775761014013610177576004916101443567ffffffffffffffff92838211610177578060238301121561017757818501359384116101775760248483010111610177576024019190565b6060810190811067ffffffffffffffff82111761068e57604052565b6040810190811067ffffffffffffffff82111761068e57604052565b90601f8019910116810190811067ffffffffffffffff82111761068e57604052565b67ffffffffffffffff811161068e57601f01601f191660200190565b6001600160a01b0360005416330361154457565b606460405162461bcd60e51b815260206004820152602060248201527f4f776e61626c653a2063616c6c6572206973206e6f7420746865206f776e65726044820152fd5b604051906080820182811067ffffffffffffffff82111761068e5760405260006060838281528260208201528260408201520152565b604051906040820182811067ffffffffffffffff82111761068e5760405260006020838281520152565b604051906060820182811067ffffffffffffffff82111761068e576040528161160f611588565b8152611619611588565b602082015260406116286115be565b910152565b610e104201804211611652576040519060208201526020815261164f816114d6565b90565b634e487b7160e01b600052601160045260246000fd5b51906001600160a01b038216820361017757565b356001600160a01b03811681036101775790565b9190826080910312610177578151600581101561017757916116b460208201611668565b9160606116c360408401611668565b92015190565b91906001600160a01b0390816116de8561167c565b16158015906117a7575b1561170457505061164f60406116fd8461167c565b930161167c565b1691604051630cf35bdd60e41b90818152602083013560048201526080928382602481895afa918215610584576060938593602492600091611786575b509760405195869485938452013560048301525afa9182156105845760009261176957505090565b61177f9250803d106109795761096781836114f2565b5050905090565b61179d9150853d87116109795761096781836114f2565b5050905038611741565b50816117b56040860161167c565b1615156116e8565b93928435926000928392839291861580158161195c575b156117e9575050505050505060409092013590565b819293949699959897916118bc575b50505081611807575b50505050565b909192939450604083013580156000146118b257509160646020926001600160a01b03606095604051968795869463442c159960e01b8652600486015201356024840152876044840152165afa9182156118a657809261186f575b50505b9038808080611801565b9091506020823d821161189e575b8161188a602093836114f2565b8101031261189b5750513880611862565b80fd5b3d915061187d565b604051903d90823e3d90fd5b9350505050611865565b92985090911561195557506040519063442c159960e01b82526004820152602083013560248201528360448201526020816064816001600160a01b038b165afa90811561194a578491611915575b505b953880806117f8565b90506020813d8211611942575b8161192f602093836114f2565b8101031261193e57513861190a565b8380fd5b3d9150611922565b6040513d86823e3d90fd5b905061190c565b5060408a013515156117d4565b6101243580151581036101775790565b9190826040910312610177576020825192015190565b3d156119ba573d906119a082611514565b916119ae60405193846114f2565b82523d6000602084013e565b606090565b90816020910312610177575180151581036101775790565b939190929361010435801515810361017757611c9e575050508115611c59576001600160a01b031690604080516370a0823160e01b8082526004923084840152602091602495838588818b5afa948515611c4e57600095611c1f575b50825190848201906323b872dd60e01b8252338984015230604484015260648301526064825260a082019180831067ffffffffffffffff841117611c0b57916000808b611ac694828a9897868b52611a8a876114d6565b8987527f5361666545524332303a206c6f772d6c6576656c2063616c6c206661696c656460c082015251925af1611abf61198f565b908b611d10565b805180611b97575b505086835180998193825230898301525afa958615611b8c57600096611b5d575b5082861115611b1b5750508303928311611b0857505090565b601190634e487b7160e01b600052526000fd5b5162461bcd60e51b8152808401919091526018818501527f537761707065723a207472616e73666572206661696c656400000000000000006044820152606490fd5b90958282813d8311611b85575b611b7481836114f2565b8101031261189b5750519438611aef565b503d611b6a565b50513d6000823e3d90fd5b9280611ba8939483010191016119bf565b15611bb65782903880611ace565b815162461bcd60e51b8152808601849052602a818801527f5361666545524332303a204552433230206f7065726174696f6e20646964206e6044820152691bdd081cdd58d8d9595960b21b6064820152608490fd5b88604189634e487b7160e01b600052526000fd5b90948482813d8311611c47575b611c3681836114f2565b8101031261189b5750519338611a33565b503d611c2c565b83513d6000823e3d90fd5b60405162461bcd60e51b815260206004820152601460248201527f537761707065723a20616d6f756e7420697320300000000000000000000000006044820152606490fd5b604093509060006001600160a01b0360a493869795975197889687956311a5cc7760e31b8752600487015230602487015230604487015260648601526084850152165af190811561058457600091611cf4575090565b611d0c915060403d811161057d5761056d81836114f2565b5090565b91929015611d725750815115611d24575090565b3b15611d2d5790565b60405162461bcd60e51b815260206004820152601d60248201527f416464726573733a2063616c6c20746f206e6f6e2d636f6e74726163740000006044820152606490fd5b825190915015611d855750805190602001fd5b60405162461bcd60e51b815260206004820152908190611da99060248301906113f0565b0390fd5b67ffffffffffffffff811161068e5760051b60200190565b805115611dd25760200190565b634e487b7160e01b600052603260045260246000fd5b805160011015611dd25760400190565b8181029291811591840414171561165257565b9291909260020b906000821260001461239b57600160ff1b821461165257816000035b620d89e88111612372576001811615612360576001600160881b036ffffcb933bd6fad37aa2d162d1a5940015b169260028216612334575b600491828116612308575b600881166122dc575b601081166122b0575b60208116612284575b60408116612258575b60809081811661222d575b6101008116612202575b61020081166121d7575b61040081166121ac575b6108008116612181575b6110008116612156575b612000811661212b575b6140008116612100575b61800081166120d5575b6201000081166120aa575b620200008116612080575b620400008116612042575b6208000016612003575b50600012611fdd575b63ffffffff8360201c931615600014611fd45760ff60005b168301809311611fbf57506fffffffffffffffffffffffffffffffff916001600160a01b039081908116848111611f965780611f7791611df8565b941691161015611f8c5761164f921690612648565b61164f92166125ed565b80611fa0916123a1565b941691161015611fb55761164f92169061257e565b61164f921661242a565b601190634e487b7160e01b6000525260246000fd5b60ff6001611f3c565b918015611fee576000190491611f24565b601283634e487b7160e01b6000525260246000fd5b6b048a170391f7dc42444e8fa29491949182810292818404149015171561202d571c926000611f1b565b601183634e487b7160e01b6000525260246000fd5b946d2216e584f5fa1ea926041bedfe989081810291818304149015171561206b57811c94611f11565b601184634e487b7160e01b6000525260246000fd5b946e5d6af8dedb81196699c329225ee6049081810291818304149015171561206b57811c94611f06565b946f09aa508b5b7a84e1c677de54f3e99bc99081810291818304149015171561206b57811c94611efb565b946f31be135f97d08fd981231505542fcfa69081810291818304149015171561206b57811c94611ef0565b946f70d869a156d2a1b890bb3df62baf32f79081810291818304149015171561206b57811c94611ee6565b946fa9f746462d870fdf8a65dc1f90e061e59081810291818304149015171561206b57811c94611edc565b946fd097f3bdfd2022b8845ad8f792aa58259081810291818304149015171561206b57811c94611ed2565b946fe7159475a2c29b7443b29c7fa6e889d99081810291818304149015171561206b57811c94611ec8565b946ff3392b0822b70005940c7a398e4b70f39081810291818304149015171561206b57811c94611ebe565b946ff987a7253ac413176f2b074cf7815e549081810291818304149015171561206b57811c94611eb4565b946ffcbe86c7900a88aedcffc83b479aa3a49081810291818304149015171561206b57811c94611eaa565b946ffe5dee046a99a2a811c461f1969c30539081810291818304149015171561206b57811c94611ea0565b936fff2ea16466c96a3843ec78b326b528619081810291818304149015171561202d5760801c93611e95565b936fff973b41fa98c081472e6896dfb254c09081810291818304149015171561202d5760801c93611e8c565b936fffcb9843d60f6159c9db58835c9266449081810291818304149015171561202d5760801c93611e83565b936fffe5caca7e10e4e61c3624eaa0941cd09081810291818304149015171561202d5760801c93611e7a565b936ffff2e50f5f656932ef12357cf3c7fdcc9081810291818304149015171561202d5760801c93611e71565b926ffff97272373d413259a46990580e213a908181029181830414901517156116525760801c92611e66565b6001600160881b03600160801b611e5b565b60405162461bcd60e51b81526020600482015260016024820152601560fa1b6044820152606490fd5b81611e2e565b600019828209908281029081808410930393838503936000951461241f57600160401b918483111561241b570991818311848183039561240757508460c01b948504600160c01b1491141715611652570360401c17808004600114811517156116525790565b634e487b7160e01b81526011600452602490fd5b8580fd5b505060401c92915050565b600160801b9291600019828509938260801b9283808710960395808703961461256f5785831115610177578291099080196001810180911161165257811680910491612485600096600184808a030401908684119003611df8565b9280600302966003880482036124075760028098186124a48184611df8565b89039089821161255b57906124b891611df8565b6124c28184611df8565b89039089821161255b57906124d691611df8565b6124e08184611df8565b89039089821161255b57906124f491611df8565b6124fe8184611df8565b89039089821161255b579061251291611df8565b61251c8184611df8565b89039089821161255b5761253a9161253391611df8565b8093611df8565b8803978811612407575061164f959661255291611df8565b93030417611df8565b634e487b7160e01b83526011600452602483fd5b50508092935015610177570490565b600019828209828202908180821091039381850391600095146125e257600160801b938285111561241b57908491099282841190858284039661240757508560801b9586041491141715611652570360801c17808004600114811517156116525790565b505060801c92915050565b600160c01b9291600019828509938260c01b9283808710960395808703961461256f5785831115610177578291099080196001810180911161165257811680910491612485600096600184808a030401908684119003611df8565b60001982820990828102908180841093039383850393600095146126ae57600160c01b918483111561241b570991818311848183039561240757508460401b948504600160401b1491141715611652570360c01c17808004600114811517156116525790565b505060c01c9291505056fea2646970667358221220c7691792c0ea72b883bad2590b916ce72e3a1b258b470d912b227ef88eca009064736f6c63430008120033",
  "linkReferences": {},
  "deployedLinkReferences": {}
}