{
  "_format": "hh-sol-artifact-1",
  "contractName": "UniswapV3Swapper",
  "sourceName": "contracts/swappers/UniswapV3Swapper.sol",
  "abi": [
    {
      "inputs": [
        {
          "internalType": "contract IYieldBox",
          "name": "_yieldBox",
          "type": "address"
        },
        {
          "internalType": "contract ISwapRouter",
          "name": "_swapRouter",
          "type": "address"
        },
        {
          "internalType": "contract IUniswapV3Factory",
          "name": "_factory",
          "type": "address"
        }
      ],
      "stateMutability": "nonpayable",
      "type": "constructor"
    },
    {
      "anonymous": false,
      "inputs": [
        {
          "indexed": false,
          "internalType": "uint256",
          "name": "_old",
          "type": "uint256"
        },
        {
          "indexed": false,
          "internalType": "uint256",
          "name": "_new",
          "type": "uint256"
        }
      ],
      "name": "PoolFee",
      "type": "event"
    },
    {
      "inputs": [],
      "name": "factory",
      "outputs": [
        {
          "internalType": "contract IUniswapV3Factory",
          "name": "",
          "type": "address"
        }
      ],
      "stateMutability": "view",
      "type": "function"
    },
    {
      "inputs": [
        {
          "internalType": "uint256",
          "name": "tokenOutId",
          "type": "uint256"
        },
        {
          "internalType": "uint256",
          "name": "shareOut",
          "type": "uint256"
        },
        {
          "internalType": "bytes",
          "name": "dexData",
          "type": "bytes"
        }
      ],
      "name": "getInputAmount",
      "outputs": [
        {
          "internalType": "uint256",
          "name": "amountIn",
          "type": "uint256"
        }
      ],
      "stateMutability": "view",
      "type": "function"
    },
    {
      "inputs": [
        {
          "internalType": "uint256",
          "name": "tokenInId",
          "type": "uint256"
        },
        {
          "internalType": "uint256",
          "name": "shareIn",
          "type": "uint256"
        },
        {
          "internalType": "bytes",
          "name": "dexData",
          "type": "bytes"
        }
      ],
      "name": "getOutputAmount",
      "outputs": [
        {
          "internalType": "uint256",
          "name": "amountOut",
          "type": "uint256"
        }
      ],
      "stateMutability": "view",
      "type": "function"
    },
    {
      "inputs": [],
      "name": "owner",
      "outputs": [
        {
          "internalType": "address",
          "name": "",
          "type": "address"
        }
      ],
      "stateMutability": "view",
      "type": "function"
    },
    {
      "inputs": [],
      "name": "poolFee",
      "outputs": [
        {
          "internalType": "uint24",
          "name": "",
          "type": "uint24"
        }
      ],
      "stateMutability": "view",
      "type": "function"
    },
    {
      "inputs": [
        {
          "internalType": "uint24",
          "name": "_newFee",
          "type": "uint24"
        }
      ],
      "name": "setPoolFee",
      "outputs": [],
      "stateMutability": "nonpayable",
      "type": "function"
    },
    {
      "inputs": [
        {
          "internalType": "uint256",
          "name": "tokenInId",
          "type": "uint256"
        },
        {
          "internalType": "uint256",
          "name": "tokenOutId",
          "type": "uint256"
        },
        {
          "internalType": "uint256",
          "name": "shareIn",
          "type": "uint256"
        },
        {
          "internalType": "address",
          "name": "to",
          "type": "address"
        },
        {
          "internalType": "uint256",
          "name": "amountOutMin",
          "type": "uint256"
        },
        {
          "internalType": "bytes",
          "name": "dexData",
          "type": "bytes"
        }
      ],
      "name": "swap",
      "outputs": [
        {
          "internalType": "uint256",
          "name": "amountOut",
          "type": "uint256"
        },
        {
          "internalType": "uint256",
          "name": "shareOut",
          "type": "uint256"
        }
      ],
      "stateMutability": "nonpayable",
      "type": "function"
    },
    {
      "inputs": [],
      "name": "swapRouter",
      "outputs": [
        {
          "internalType": "contract ISwapRouter",
          "name": "",
          "type": "address"
        }
      ],
      "stateMutability": "view",
      "type": "function"
    }
  ],
  "bytecode": "0x60e0346100fb57601f611a6738819003918201601f19168301916001600160401b03831184841017610100578084926060946040528339810103126100fb578051906001600160a01b039081831683036100fb5760208101519082821682036100fb576040015191821682036100fb576000549260805260a05260c05261017760a31b90339060018060b81b03191617176000556040516119509081610117823960805181818160a2015281816104be0152818161050e01528181610583015281816107a5015281816108390152610a18015260a051818181610337015281816105cf015261075c015260c05181818161019a01526102f30152f35b600080fd5b634e487b7160e01b600052604160045260246000fdfe608080604052600436101561001357600080fd5b60003560e01c908163089fe6aa14610b8c57508063532bb192146109ed57806355a68e101461045157806373dd250c146103825780638da5cb5b1461035b578063c31c9c0714610317578063c45a0155146102d35763c6fe95491461007757600080fd5b3461022f5761008536610bdd565b908093929160209485918101031261022f576001600160a01b03807f0000000000000000000000000000000000000000000000000000000000000000169360405193630cf35bdd60e41b9384865235600486015260809182866024818a5afa95861561023b576000966102b0575b5060405194855280600486015282856024818a5afa94851561023b578893600096610278575b5050606490604051978893849263442c159960e01b845260048401526024830152600060448301525afa90811561023b578590600092610247575b600054604051630b4c774160e11b81526001600160a01b0380881660048301528616602482015260a09190911c62ffffff166044820152955085908180606481015b03917f0000000000000000000000000000000000000000000000000000000000000000165afa93841561023b576000946101f1575b506001600160801b036101e06101e995610cfc565b50911690611054565b604051908152f35b93508484813d8311610234575b6102088183610c14565b8101031261022f576001600160801b036101e06102276101e996610c36565b9550506101cb565b600080fd5b503d6101fe565b6040513d6000823e3d90fd5b915084813d8311610271575b61025d8183610c14565b8101031261022f5784610196945191610154565b503d610253565b6064929650908161029d92903d106102a9575b6102958183610c14565b810190610c4a565b50509050949038610119565b503d61028b565b6102c8919650833d85116102a9576102958183610c14565b5050905094386100f3565b3461022f57600036600319011261022f5760206040516001600160a01b037f0000000000000000000000000000000000000000000000000000000000000000168152f35b3461022f57600036600319011261022f5760206040516001600160a01b037f0000000000000000000000000000000000000000000000000000000000000000168152f35b3461022f57600036600319011261022f5760206001600160a01b0360005416604051908152f35b3461022f57602036600319011261022f5762ffffff6004358181169182820361022f57600054926001600160a01b038416330361040d577f2bff118b9b9e3deb4fc5204e6ba828351c954685d0b119d0e21add79f8783399916040918251918660a01c1682526020820152a162ffffff60a01b1990911660a09190911b62ffffff60a01b1617600055005b606460405162461bcd60e51b815260206004820152602060248201527f556e69737761705633537761707065723a206e6f7420617574686f72697a65646044820152fd5b3461022f5760c036600319011261022f576064356001600160a01b038116810361022f5760a43567ffffffffffffffff811161022f57610495903690600401610baf565b9060405191630cf35bdd60e41b9182845260043560048501526080846024816001600160a01b037f0000000000000000000000000000000000000000000000000000000000000000165afa93841561023b576000946109c8575b5060405192835260243560048401526080836024816001600160a01b037f0000000000000000000000000000000000000000000000000000000000000000165afa92831561023b576000936109a3575b50604051916311a5cc7760e31b8352600435600484015230602484015230604484015260006064840152604435608484015260408360a48160006001600160a01b037f0000000000000000000000000000000000000000000000000000000000000000165af192831561023b57600093610981575b5060405163095ea7b360e01b60208201526001600160a01b037f000000000000000000000000000000000000000000000000000000000000000016602482015260448082018590528152600090819061060e606482610c14565b60208151910182895af13d1561097a573d67ffffffffffffffff811161090b5760405190610646601f8201601f191660200183610c14565b81523d6000602083013e5b8161094b575b501561092157816020918101031261022f5760005493604051948561010081011067ffffffffffffffff6101008801111761090b576001600160a01b0362ffffff9261010088016040521686526001600160a01b038516602087015260a01c16604085015230606085015235608084015260a083015260843560c0830152600060e08301526001600160a01b0360e06040519363414bf389821b855282815116600486015282602082015116602486015262ffffff60408201511660448601528260608201511660648601526080810151608486015260a081015160a486015260c081015160c486015201511660e48301526020826101048160006001600160a01b037f0000000000000000000000000000000000000000000000000000000000000000165af191821561023b576000926108d7575b5060405163095ea7b360e01b81526001600160a01b037f00000000000000000000000000000000000000000000000000000000000000008116600483015260248201849052909160209183916044918391600091165af1801561023b576108a8575b506001600160a01b0360405192634d4d7cbd60e11b845260243560048501523060248501521660448301528060648301526000608483015260408260a48160006001600160a01b037f0000000000000000000000000000000000000000000000000000000000000000165af1801561023b57604092600091610879575b5082519182526020820152f35b6108999150833d85116108a1575b6108918183610c14565b810190610c83565b90508361086c565b503d610887565b6108c99060203d6020116108d0575b6108c18183610c14565b810190610c99565b50826107ef565b503d6108b7565b9091506020813d602011610903575b816108f360209383610c14565b8101031261022f5751908361078d565b3d91506108e6565b634e487b7160e01b600052604160045260246000fd5b60405162461bcd60e51b8152602060048201526002602482015261534160f01b6044820152606490fd5b8051801592508215610960575b505087610657565b6109739250602080918301019101610c99565b8780610958565b6060610651565b61099b91935060403d6040116108a1576108918183610c14565b5091866105b4565b6109bd91935060803d6080116102a9576102958183610c14565b50509050918561053f565b6109e291945060803d6080116102a9576102958183610c14565b5050905092856104ef565b3461022f576109fb36610bdd565b918193919260209485918101031261022f576001600160a01b03807f0000000000000000000000000000000000000000000000000000000000000000169360405192630cf35bdd60e41b9485855280600486015260809283866024818b5afa95861561023b57600096610b69575b5060405196875235600487015282866024818a5afa95861561023b578893600097610b41575b5050606490604051978893849263442c159960e01b845260048401526024830152600060448301525afa90811561023b578590600092610b10575b600054604051630b4c774160e11b81526001600160a01b0380871660048301528716602482015260a09190911c62ffffff16604482015295508590818060648101610196565b915084813d8311610b3a575b610b268183610c14565b8101031261022f5784610196945191610aca565b503d610b1c565b60649297509081610b5d92903d106102a9576102958183610c14565b50509050959089610a8f565b610b81919650843d86116102a9576102958183610c14565b505090509489610a69565b3461022f57600036600319011261022f5760209062ffffff60005460a01c168152f35b9181601f8401121561022f5782359167ffffffffffffffff831161022f576020838186019501011161022f57565b606060031982011261022f5760043591602435916044359067ffffffffffffffff821161022f57610c1091600401610baf565b9091565b90601f8019910116810190811067ffffffffffffffff82111761090b57604052565b51906001600160a01b038216820361022f57565b919082608091031261022f578151600581101561022f5791610c6e60208201610c36565b916060610c7d60408401610c36565b92015190565b919082604091031261022f576020825192015190565b9081602091031261022f5751801515810361022f5790565b67ffffffffffffffff811161090b5760051b60200190565b805115610cd65760200190565b634e487b7160e01b600052603260045260246000fd5b805160011015610cd65760400190565b9060009160408051916060830167ffffffffffffffff9084811082821117611017579186928452600285526020918286019480368737603c610d3d88610cc9565b5284610d4888610cec565b52805194859363883bdbfd60e01b855260249788860160049a888c89015251809152604487019190845b89828210610ff75750505050908580926001600160a01b03998a910392165afa928315610fed5789928a94610eda575b505050610db8610db182610cec565b5191610cc9565b5160060b9060060b0390667fffffffffffff8213667fffffffffffff19831217610ec85783610df281610dea84610cec565b511692610cc9565b51169003928311610ea25760060b95603c870560020b96600081129081610eb4575b50610e8c575b80610e7a57501b77ffffffffffffffffffffffffffffffffffffffff0000000016918215610e67575050743bffffffffffffffffffffffffffffffffffffffc4046001600160801b031690565b601290634e487b7160e01b600052526000fd5b634e487b7160e01b8152601185528390fd5b95627fffff198114610ea2576000190195610e1a565b634e487b7160e01b8752601185528387fd5b915050603c6000910760060b151538610e14565b634e487b7160e01b8852601186528488fd5b91935091503d808a843e610eee8184610c14565b8201908383830312610fc8578251818111610fc45783019282601f85011215610fc457835193610f1d85610cb1565b94610f2a87519687610c14565b808652878087019160051b83010191858311610fe9578801905b828210610fcc5750505085810151918211610fc4570181601f82011215610fc857805190610f7d610f7483610cb1565b95519586610c14565b818552858086019260051b820101928311610fc4578501905b828210610fa857505050388080610da2565b81518781168103610fc0578152908501908501610f96565b8b80fd5b8a80fd5b8980fd5b81518060060b8103610fe5578152908801908801610f44565b8e80fd5b8d80fd5b81513d8b823e3d90fd5b835163ffffffff1685528b99508f96509384019390920191600101610d72565b634e487b7160e01b87526041600452602487fd5b8181029291811591840414171561103e57565b634e487b7160e01b600052601160045260246000fd5b9291909260020b90600082126000146115f257600160ff1b821461103e57816000035b620d89e881116115c95760018116156115ad5770ffffffffffffffffffffffffffffffffff6ffffcb933bd6fad37aa2d162d1a5940015b169260028216611581575b600491828116611555575b60088116611529575b601081166114fd575b602081166114d1575b604081166114a5575b60809081811661147a575b610100811661144f575b6102008116611424575b61040081166113f9575b61080081166113ce575b61100081166113a3575b6120008116611378575b614000811661134d575b6180008116611322575b6201000081166112f7575b6202000081166112cd575b62040000811661128f575b6208000016611250575b5060001261122a575b63ffffffff8360201c9316156000146112215760ff60005b16830180931161120c57506001600160801b03916001600160a01b0390819081168481116111e357806111c19161102b565b9416911610156111d9576111d69216906118a4565b90565b6111d69216611849565b806111ed916115f8565b941691161015611202576111d69216906117da565b6111d69216611686565b601190634e487b7160e01b6000525260246000fd5b60ff600161118f565b91801561123b576000190491611177565b601283634e487b7160e01b6000525260246000fd5b6b048a170391f7dc42444e8fa29491949182810292818404149015171561127a571c92600061116e565b601183634e487b7160e01b6000525260246000fd5b946d2216e584f5fa1ea926041bedfe98908181029181830414901517156112b857811c94611164565b601184634e487b7160e01b6000525260246000fd5b946e5d6af8dedb81196699c329225ee604908181029181830414901517156112b857811c94611159565b946f09aa508b5b7a84e1c677de54f3e99bc9908181029181830414901517156112b857811c9461114e565b946f31be135f97d08fd981231505542fcfa6908181029181830414901517156112b857811c94611143565b946f70d869a156d2a1b890bb3df62baf32f7908181029181830414901517156112b857811c94611139565b946fa9f746462d870fdf8a65dc1f90e061e5908181029181830414901517156112b857811c9461112f565b946fd097f3bdfd2022b8845ad8f792aa5825908181029181830414901517156112b857811c94611125565b946fe7159475a2c29b7443b29c7fa6e889d9908181029181830414901517156112b857811c9461111b565b946ff3392b0822b70005940c7a398e4b70f3908181029181830414901517156112b857811c94611111565b946ff987a7253ac413176f2b074cf7815e54908181029181830414901517156112b857811c94611107565b946ffcbe86c7900a88aedcffc83b479aa3a4908181029181830414901517156112b857811c946110fd565b946ffe5dee046a99a2a811c461f1969c3053908181029181830414901517156112b857811c946110f3565b936fff2ea16466c96a3843ec78b326b528619081810291818304149015171561127a5760801c936110e8565b936fff973b41fa98c081472e6896dfb254c09081810291818304149015171561127a5760801c936110df565b936fffcb9843d60f6159c9db58835c9266449081810291818304149015171561127a5760801c936110d6565b936fffe5caca7e10e4e61c3624eaa0941cd09081810291818304149015171561127a5760801c936110cd565b936ffff2e50f5f656932ef12357cf3c7fdcc9081810291818304149015171561127a5760801c936110c4565b926ffff97272373d413259a46990580e213a9081810291818304149015171561103e5760801c926110b9565b70ffffffffffffffffffffffffffffffffff600160801b6110ae565b60405162461bcd60e51b81526020600482015260016024820152601560fa1b6044820152606490fd5b81611077565b600019828209908281029081808410930393838503936000951461167b57680100000000000000009184831115611677570991818311848183039561166357508460c01b948504600160c01b149114171561103e570360401c178080046001148115171561103e5790565b634e487b7160e01b81526011600452602490fd5b8580fd5b505060401c92915050565b600160801b9291600019828509938260801b928380871096039580870396146117cb578583111561022f578291099080196001810180911161103e578116809104916116e1600096600184808a03040190868411900361102b565b928060030296600388048203611663576002809818611700818461102b565b8903908982116117b757906117149161102b565b61171e818461102b565b8903908982116117b757906117329161102b565b61173c818461102b565b8903908982116117b757906117509161102b565b61175a818461102b565b8903908982116117b7579061176e9161102b565b611778818461102b565b8903908982116117b7576117969161178f9161102b565b809361102b565b880397881161166357506111d695966117ae9161102b565b9303041761102b565b634e487b7160e01b83526011600452602483fd5b5050809293501561022f570490565b6000198282098282029081808210910393818503916000951461183e57600160801b938285111561167757908491099282841190858284039661166357508560801b958604149114171561103e570360801c178080046001148115171561103e5790565b505060801c92915050565b600160c01b9291600019828509938260c01b928380871096039580870396146117cb578583111561022f578291099080196001810180911161103e578116809104916116e1600096600184808a03040190868411900361102b565b600019828209908281029081808410930393838503936000951461190f57600160c01b9184831115611677570991818311848183039561166357508460401b94850468010000000000000000149114171561103e570360c01c178080046001148115171561103e5790565b505060c01c9291505056fea2646970667358221220f8d413c2344075e53c90ce661219b6e2326a65576d3c114ae87af6706e6443ed64736f6c63430008120033",
  "linkReferences": {},
  "deployedLinkReferences": {}
}