{
  "_format": "hh-sol-artifact-1",
  "contractName": "Singularity",
  "sourceName": "contracts/singularity/Singularity.sol",
  "abi": [
    {
      "inputs": [
        {
          "internalType": "address",
          "name": "_from",
          "type": "address"
        },
        {
          "internalType": "address",
          "name": "_operator",
          "type": "address"
        }
      ],
      "name": "NotApproved",
      "type": "error"
    },
    {
      "anonymous": false,
      "inputs": [
        {
          "indexed": true,
          "internalType": "address",
          "name": "owner",
          "type": "address"
        },
        {
          "indexed": true,
          "internalType": "address",
          "name": "spender",
          "type": "address"
        },
        {
          "indexed": false,
          "internalType": "uint256",
          "name": "value",
          "type": "uint256"
        }
      ],
      "name": "Approval",
      "type": "event"
    },
    {
      "anonymous": false,
      "inputs": [
        {
          "indexed": true,
          "internalType": "address",
          "name": "owner",
          "type": "address"
        },
        {
          "indexed": true,
          "internalType": "address",
          "name": "spender",
          "type": "address"
        },
        {
          "indexed": false,
          "internalType": "uint256",
          "name": "value",
          "type": "uint256"
        }
      ],
      "name": "ApprovalBorrow",
      "type": "event"
    },
    {
      "anonymous": false,
      "inputs": [
        {
          "indexed": true,
          "internalType": "address",
          "name": "old",
          "type": "address"
        },
        {
          "indexed": true,
          "internalType": "address",
          "name": "_new",
          "type": "address"
        }
      ],
      "name": "ConservatorUpdated",
      "type": "event"
    },
    {
      "anonymous": false,
      "inputs": [
        {
          "indexed": false,
          "internalType": "uint256",
          "name": "accruedAmount",
          "type": "uint256"
        },
        {
          "indexed": false,
          "internalType": "uint256",
          "name": "feeFraction",
          "type": "uint256"
        },
        {
          "indexed": false,
          "internalType": "uint64",
          "name": "rate",
          "type": "uint64"
        },
        {
          "indexed": false,
          "internalType": "uint256",
          "name": "utilization",
          "type": "uint256"
        }
      ],
      "name": "LogAccrue",
      "type": "event"
    },
    {
      "anonymous": false,
      "inputs": [
        {
          "indexed": true,
          "internalType": "address",
          "name": "from",
          "type": "address"
        },
        {
          "indexed": true,
          "internalType": "address",
          "name": "to",
          "type": "address"
        },
        {
          "indexed": false,
          "internalType": "uint256",
          "name": "share",
          "type": "uint256"
        },
        {
          "indexed": false,
          "internalType": "uint256",
          "name": "fraction",
          "type": "uint256"
        }
      ],
      "name": "LogAddAsset",
      "type": "event"
    },
    {
      "anonymous": false,
      "inputs": [
        {
          "indexed": true,
          "internalType": "address",
          "name": "from",
          "type": "address"
        },
        {
          "indexed": true,
          "internalType": "address",
          "name": "to",
          "type": "address"
        },
        {
          "indexed": false,
          "internalType": "uint256",
          "name": "share",
          "type": "uint256"
        }
      ],
      "name": "LogAddCollateral",
      "type": "event"
    },
    {
      "anonymous": false,
      "inputs": [
        {
          "indexed": true,
          "internalType": "address",
          "name": "_from",
          "type": "address"
        },
        {
          "indexed": true,
          "internalType": "address",
          "name": "_operator",
          "type": "address"
        },
        {
          "indexed": false,
          "internalType": "bool",
          "name": "_approved",
          "type": "bool"
        }
      ],
      "name": "LogApprovalForAll",
      "type": "event"
    },
    {
      "anonymous": false,
      "inputs": [
        {
          "indexed": true,
          "internalType": "address",
          "name": "from",
          "type": "address"
        },
        {
          "indexed": true,
          "internalType": "address",
          "name": "to",
          "type": "address"
        },
        {
          "indexed": false,
          "internalType": "uint256",
          "name": "amount",
          "type": "uint256"
        },
        {
          "indexed": false,
          "internalType": "uint256",
          "name": "feeAmount",
          "type": "uint256"
        },
        {
          "indexed": false,
          "internalType": "uint256",
          "name": "part",
          "type": "uint256"
        }
      ],
      "name": "LogBorrow",
      "type": "event"
    },
    {
      "anonymous": false,
      "inputs": [
        {
          "indexed": false,
          "internalType": "uint256",
          "name": "_oldVal",
          "type": "uint256"
        },
        {
          "indexed": false,
          "internalType": "uint256",
          "name": "_newVal",
          "type": "uint256"
        }
      ],
      "name": "LogBorrowCapUpdated",
      "type": "event"
    },
    {
      "anonymous": false,
      "inputs": [
        {
          "indexed": false,
          "internalType": "uint256",
          "name": "rate",
          "type": "uint256"
        }
      ],
      "name": "LogExchangeRate",
      "type": "event"
    },
    {
      "anonymous": false,
      "inputs": [
        {
          "indexed": true,
          "internalType": "address",
          "name": "from",
          "type": "address"
        },
        {
          "indexed": true,
          "internalType": "address",
          "name": "to",
          "type": "address"
        },
        {
          "indexed": false,
          "internalType": "uint256",
          "name": "share",
          "type": "uint256"
        },
        {
          "indexed": false,
          "internalType": "uint256",
          "name": "fraction",
          "type": "uint256"
        }
      ],
      "name": "LogRemoveAsset",
      "type": "event"
    },
    {
      "anonymous": false,
      "inputs": [
        {
          "indexed": true,
          "internalType": "address",
          "name": "from",
          "type": "address"
        },
        {
          "indexed": true,
          "internalType": "address",
          "name": "to",
          "type": "address"
        },
        {
          "indexed": false,
          "internalType": "uint256",
          "name": "share",
          "type": "uint256"
        }
      ],
      "name": "LogRemoveCollateral",
      "type": "event"
    },
    {
      "anonymous": false,
      "inputs": [
        {
          "indexed": true,
          "internalType": "address",
          "name": "from",
          "type": "address"
        },
        {
          "indexed": true,
          "internalType": "address",
          "name": "to",
          "type": "address"
        },
        {
          "indexed": false,
          "internalType": "uint256",
          "name": "amount",
          "type": "uint256"
        },
        {
          "indexed": false,
          "internalType": "uint256",
          "name": "part",
          "type": "uint256"
        }
      ],
      "name": "LogRepay",
      "type": "event"
    },
    {
      "anonymous": false,
      "inputs": [
        {
          "indexed": true,
          "internalType": "address",
          "name": "feeTo",
          "type": "address"
        },
        {
          "indexed": false,
          "internalType": "uint256",
          "name": "feesEarnedFraction",
          "type": "uint256"
        }
      ],
      "name": "LogWithdrawFees",
      "type": "event"
    },
    {
      "anonymous": false,
      "inputs": [
        {
          "indexed": false,
          "internalType": "uint256",
          "name": "feeShares",
          "type": "uint256"
        },
        {
          "indexed": false,
          "internalType": "uint256",
          "name": "ethAmount",
          "type": "uint256"
        }
      ],
      "name": "LogYieldBoxFeesDeposit",
      "type": "event"
    },
    {
      "anonymous": false,
      "inputs": [
        {
          "indexed": true,
          "internalType": "address",
          "name": "previousOwner",
          "type": "address"
        },
        {
          "indexed": true,
          "internalType": "address",
          "name": "newOwner",
          "type": "address"
        }
      ],
      "name": "OwnershipTransferred",
      "type": "event"
    },
    {
      "anonymous": false,
      "inputs": [
        {
          "indexed": false,
          "internalType": "bool",
          "name": "oldState",
          "type": "bool"
        },
        {
          "indexed": false,
          "internalType": "bool",
          "name": "newState",
          "type": "bool"
        }
      ],
      "name": "PausedUpdated",
      "type": "event"
    },
    {
      "anonymous": false,
      "inputs": [
        {
          "indexed": true,
          "internalType": "address",
          "name": "from",
          "type": "address"
        },
        {
          "indexed": true,
          "internalType": "address",
          "name": "to",
          "type": "address"
        },
        {
          "indexed": false,
          "internalType": "uint256",
          "name": "value",
          "type": "uint256"
        }
      ],
      "name": "Transfer",
      "type": "event"
    },
    {
      "inputs": [],
      "name": "DOMAIN_SEPARATOR",
      "outputs": [
        {
          "internalType": "bytes32",
          "name": "",
          "type": "bytes32"
        }
      ],
      "stateMutability": "view",
      "type": "function"
    },
    {
      "inputs": [],
      "name": "accrue",
      "outputs": [],
      "stateMutability": "nonpayable",
      "type": "function"
    },
    {
      "inputs": [],
      "name": "accrueInfo",
      "outputs": [
        {
          "internalType": "uint64",
          "name": "interestPerSecond",
          "type": "uint64"
        },
        {
          "internalType": "uint64",
          "name": "lastAccrued",
          "type": "uint64"
        },
        {
          "internalType": "uint128",
          "name": "feesEarnedFraction",
          "type": "uint128"
        }
      ],
      "stateMutability": "view",
      "type": "function"
    },
    {
      "inputs": [
        {
          "internalType": "address",
          "name": "from",
          "type": "address"
        },
        {
          "internalType": "address",
          "name": "to",
          "type": "address"
        },
        {
          "internalType": "bool",
          "name": "skim",
          "type": "bool"
        },
        {
          "internalType": "uint256",
          "name": "share",
          "type": "uint256"
        }
      ],
      "name": "addAsset",
      "outputs": [
        {
          "internalType": "uint256",
          "name": "fraction",
          "type": "uint256"
        }
      ],
      "stateMutability": "nonpayable",
      "type": "function"
    },
    {
      "inputs": [
        {
          "internalType": "address",
          "name": "from",
          "type": "address"
        },
        {
          "internalType": "address",
          "name": "to",
          "type": "address"
        },
        {
          "internalType": "bool",
          "name": "skim",
          "type": "bool"
        },
        {
          "internalType": "uint256",
          "name": "share",
          "type": "uint256"
        }
      ],
      "name": "addCollateral",
      "outputs": [],
      "stateMutability": "nonpayable",
      "type": "function"
    },
    {
      "inputs": [
        {
          "internalType": "address",
          "name": "",
          "type": "address"
        },
        {
          "internalType": "address",
          "name": "",
          "type": "address"
        }
      ],
      "name": "allowance",
      "outputs": [
        {
          "internalType": "uint256",
          "name": "",
          "type": "uint256"
        }
      ],
      "stateMutability": "view",
      "type": "function"
    },
    {
      "inputs": [
        {
          "internalType": "address",
          "name": "",
          "type": "address"
        },
        {
          "internalType": "address",
          "name": "",
          "type": "address"
        }
      ],
      "name": "allowanceBorrow",
      "outputs": [
        {
          "internalType": "uint256",
          "name": "",
          "type": "uint256"
        }
      ],
      "stateMutability": "view",
      "type": "function"
    },
    {
      "inputs": [
        {
          "internalType": "address",
          "name": "spender",
          "type": "address"
        },
        {
          "internalType": "uint256",
          "name": "amount",
          "type": "uint256"
        }
      ],
      "name": "approve",
      "outputs": [
        {
          "internalType": "bool",
          "name": "",
          "type": "bool"
        }
      ],
      "stateMutability": "nonpayable",
      "type": "function"
    },
    {
      "inputs": [
        {
          "internalType": "address",
          "name": "spender",
          "type": "address"
        },
        {
          "internalType": "uint256",
          "name": "amount",
          "type": "uint256"
        }
      ],
      "name": "approveBorrow",
      "outputs": [
        {
          "internalType": "bool",
          "name": "",
          "type": "bool"
        }
      ],
      "stateMutability": "nonpayable",
      "type": "function"
    },
    {
      "inputs": [],
      "name": "asset",
      "outputs": [
        {
          "internalType": "contract IERC20",
          "name": "",
          "type": "address"
        }
      ],
      "stateMutability": "view",
      "type": "function"
    },
    {
      "inputs": [],
      "name": "assetId",
      "outputs": [
        {
          "internalType": "uint256",
          "name": "",
          "type": "uint256"
        }
      ],
      "stateMutability": "view",
      "type": "function"
    },
    {
      "inputs": [
        {
          "internalType": "address",
          "name": "",
          "type": "address"
        }
      ],
      "name": "balanceOf",
      "outputs": [
        {
          "internalType": "uint256",
          "name": "",
          "type": "uint256"
        }
      ],
      "stateMutability": "view",
      "type": "function"
    },
    {
      "inputs": [
        {
          "internalType": "address",
          "name": "from",
          "type": "address"
        },
        {
          "internalType": "address",
          "name": "to",
          "type": "address"
        },
        {
          "internalType": "uint256",
          "name": "amount",
          "type": "uint256"
        }
      ],
      "name": "borrow",
      "outputs": [
        {
          "internalType": "uint256",
          "name": "part",
          "type": "uint256"
        },
        {
          "internalType": "uint256",
          "name": "share",
          "type": "uint256"
        }
      ],
      "stateMutability": "nonpayable",
      "type": "function"
    },
    {
      "inputs": [],
      "name": "borrowOpeningFee",
      "outputs": [
        {
          "internalType": "uint256",
          "name": "",
          "type": "uint256"
        }
      ],
      "stateMutability": "view",
      "type": "function"
    },
    {
      "inputs": [
        {
          "internalType": "address",
          "name": "from",
          "type": "address"
        },
        {
          "internalType": "uint256",
          "name": "borrowAmount",
          "type": "uint256"
        },
        {
          "internalType": "uint256",
          "name": "supplyAmount",
          "type": "uint256"
        },
        {
          "internalType": "uint256",
          "name": "minAmountOut",
          "type": "uint256"
        },
        {
          "internalType": "contract ISwapper",
          "name": "swapper",
          "type": "address"
        },
        {
          "internalType": "bytes",
          "name": "dexData",
          "type": "bytes"
        }
      ],
      "name": "buyCollateral",
      "outputs": [
        {
          "internalType": "uint256",
          "name": "amountOut",
          "type": "uint256"
        }
      ],
      "stateMutability": "nonpayable",
      "type": "function"
    },
    {
      "inputs": [],
      "name": "callerFee",
      "outputs": [
        {
          "internalType": "uint256",
          "name": "",
          "type": "uint256"
        }
      ],
      "stateMutability": "view",
      "type": "function"
    },
    {
      "inputs": [],
      "name": "claimOwnership",
      "outputs": [],
      "stateMutability": "nonpayable",
      "type": "function"
    },
    {
      "inputs": [],
      "name": "closedCollateralizationRate",
      "outputs": [
        {
          "internalType": "uint256",
          "name": "",
          "type": "uint256"
        }
      ],
      "stateMutability": "view",
      "type": "function"
    },
    {
      "inputs": [],
      "name": "collateral",
      "outputs": [
        {
          "internalType": "contract IERC20",
          "name": "",
          "type": "address"
        }
      ],
      "stateMutability": "view",
      "type": "function"
    },
    {
      "inputs": [],
      "name": "collateralId",
      "outputs": [
        {
          "internalType": "uint256",
          "name": "",
          "type": "uint256"
        }
      ],
      "stateMutability": "view",
      "type": "function"
    },
    {
      "inputs": [
        {
          "internalType": "address",
          "name": "user",
          "type": "address"
        },
        {
          "internalType": "uint256",
          "name": "_exchangeRate",
          "type": "uint256"
        }
      ],
      "name": "computeClosingFactor",
      "outputs": [
        {
          "internalType": "uint256",
          "name": "",
          "type": "uint256"
        }
      ],
      "stateMutability": "view",
      "type": "function"
    },
    {
      "inputs": [
        {
          "internalType": "address",
          "name": "user",
          "type": "address"
        },
        {
          "internalType": "uint256",
          "name": "_exchangeRate",
          "type": "uint256"
        }
      ],
      "name": "computeLiquidatorReward",
      "outputs": [
        {
          "internalType": "uint256",
          "name": "",
          "type": "uint256"
        }
      ],
      "stateMutability": "view",
      "type": "function"
    },
    {
      "inputs": [
        {
          "internalType": "address",
          "name": "user",
          "type": "address"
        },
        {
          "internalType": "uint256",
          "name": "_exchangeRate",
          "type": "uint256"
        }
      ],
      "name": "computeTVLInfo",
      "outputs": [
        {
          "internalType": "uint256",
          "name": "amountToSolvency",
          "type": "uint256"
        },
        {
          "internalType": "uint256",
          "name": "minTVL",
          "type": "uint256"
        },
        {
          "internalType": "uint256",
          "name": "maxTVL",
          "type": "uint256"
        }
      ],
      "stateMutability": "view",
      "type": "function"
    },
    {
      "inputs": [],
      "name": "conservator",
      "outputs": [
        {
          "internalType": "address",
          "name": "",
          "type": "address"
        }
      ],
      "stateMutability": "view",
      "type": "function"
    },
    {
      "inputs": [],
      "name": "decimals",
      "outputs": [
        {
          "internalType": "uint8",
          "name": "",
          "type": "uint8"
        }
      ],
      "stateMutability": "view",
      "type": "function"
    },
    {
      "inputs": [
        {
          "internalType": "contract ISwapper",
          "name": "swapper",
          "type": "address"
        },
        {
          "components": [
            {
              "internalType": "uint256",
              "name": "minAssetAmount",
              "type": "uint256"
            }
          ],
          "internalType": "struct IPenrose.SwapData",
          "name": "swapData",
          "type": "tuple"
        }
      ],
      "name": "depositFeesToYieldBox",
      "outputs": [],
      "stateMutability": "nonpayable",
      "type": "function"
    },
    {
      "inputs": [],
      "name": "exchangeRate",
      "outputs": [
        {
          "internalType": "uint256",
          "name": "",
          "type": "uint256"
        }
      ],
      "stateMutability": "view",
      "type": "function"
    },
    {
      "inputs": [
        {
          "internalType": "bytes[]",
          "name": "calls",
          "type": "bytes[]"
        },
        {
          "internalType": "bool",
          "name": "revertOnFail",
          "type": "bool"
        }
      ],
      "name": "execute",
      "outputs": [
        {
          "internalType": "bool[]",
          "name": "successes",
          "type": "bool[]"
        },
        {
          "internalType": "string[]",
          "name": "results",
          "type": "string[]"
        }
      ],
      "stateMutability": "nonpayable",
      "type": "function"
    },
    {
      "inputs": [
        {
          "internalType": "bytes",
          "name": "data",
          "type": "bytes"
        }
      ],
      "name": "init",
      "outputs": [],
      "stateMutability": "nonpayable",
      "type": "function"
    },
    {
      "inputs": [],
      "name": "lendingBorrowingModule",
      "outputs": [
        {
          "internalType": "contract SGLLendingBorrowing",
          "name": "",
          "type": "address"
        }
      ],
      "stateMutability": "view",
      "type": "function"
    },
    {
      "inputs": [
        {
          "internalType": "address[]",
          "name": "users",
          "type": "address[]"
        },
        {
          "internalType": "uint256[]",
          "name": "maxBorrowParts",
          "type": "uint256[]"
        },
        {
          "internalType": "contract ISwapper",
          "name": "swapper",
          "type": "address"
        },
        {
          "internalType": "bytes",
          "name": "collateralToAssetSwapData",
          "type": "bytes"
        },
        {
          "internalType": "bytes",
          "name": "usdoToBorrowedSwapData",
          "type": "bytes"
        }
      ],
      "name": "liquidate",
      "outputs": [],
      "stateMutability": "nonpayable",
      "type": "function"
    },
    {
      "inputs": [],
      "name": "liquidationBonusAmount",
      "outputs": [
        {
          "internalType": "uint256",
          "name": "",
          "type": "uint256"
        }
      ],
      "stateMutability": "view",
      "type": "function"
    },
    {
      "inputs": [],
      "name": "liquidationModule",
      "outputs": [
        {
          "internalType": "contract SGLLiquidation",
          "name": "",
          "type": "address"
        }
      ],
      "stateMutability": "view",
      "type": "function"
    },
    {
      "inputs": [],
      "name": "liquidationMultiplier",
      "outputs": [
        {
          "internalType": "uint256",
          "name": "",
          "type": "uint256"
        }
      ],
      "stateMutability": "view",
      "type": "function"
    },
    {
      "inputs": [],
      "name": "liquidationQueue",
      "outputs": [
        {
          "internalType": "contract ILiquidationQueue",
          "name": "",
          "type": "address"
        }
      ],
      "stateMutability": "view",
      "type": "function"
    },
    {
      "inputs": [],
      "name": "lqCollateralizationRate",
      "outputs": [
        {
          "internalType": "uint256",
          "name": "",
          "type": "uint256"
        }
      ],
      "stateMutability": "view",
      "type": "function"
    },
    {
      "inputs": [],
      "name": "maxLiquidatorReward",
      "outputs": [
        {
          "internalType": "uint256",
          "name": "",
          "type": "uint256"
        }
      ],
      "stateMutability": "view",
      "type": "function"
    },
    {
      "inputs": [],
      "name": "minLiquidatorReward",
      "outputs": [
        {
          "internalType": "uint256",
          "name": "",
          "type": "uint256"
        }
      ],
      "stateMutability": "view",
      "type": "function"
    },
    {
      "inputs": [],
      "name": "name",
      "outputs": [
        {
          "internalType": "string",
          "name": "",
          "type": "string"
        }
      ],
      "stateMutability": "view",
      "type": "function"
    },
    {
      "inputs": [
        {
          "internalType": "address",
          "name": "owner",
          "type": "address"
        }
      ],
      "name": "nonces",
      "outputs": [
        {
          "internalType": "uint256",
          "name": "",
          "type": "uint256"
        }
      ],
      "stateMutability": "view",
      "type": "function"
    },
    {
      "inputs": [],
      "name": "oracle",
      "outputs": [
        {
          "internalType": "contract IOracle",
          "name": "",
          "type": "address"
        }
      ],
      "stateMutability": "view",
      "type": "function"
    },
    {
      "inputs": [],
      "name": "oracleData",
      "outputs": [
        {
          "internalType": "bytes",
          "name": "",
          "type": "bytes"
        }
      ],
      "stateMutability": "view",
      "type": "function"
    },
    {
      "inputs": [],
      "name": "orderBookLiquidationMultiplier",
      "outputs": [
        {
          "internalType": "uint256",
          "name": "",
          "type": "uint256"
        }
      ],
      "stateMutability": "view",
      "type": "function"
    },
    {
      "inputs": [],
      "name": "owner",
      "outputs": [
        {
          "internalType": "address",
          "name": "",
          "type": "address"
        }
      ],
      "stateMutability": "view",
      "type": "function"
    },
    {
      "inputs": [],
      "name": "paused",
      "outputs": [
        {
          "internalType": "bool",
          "name": "",
          "type": "bool"
        }
      ],
      "stateMutability": "view",
      "type": "function"
    },
    {
      "inputs": [],
      "name": "pendingOwner",
      "outputs": [
        {
          "internalType": "address",
          "name": "",
          "type": "address"
        }
      ],
      "stateMutability": "view",
      "type": "function"
    },
    {
      "inputs": [],
      "name": "penrose",
      "outputs": [
        {
          "internalType": "contract IPenrose",
          "name": "",
          "type": "address"
        }
      ],
      "stateMutability": "view",
      "type": "function"
    },
    {
      "inputs": [
        {
          "internalType": "address",
          "name": "owner",
          "type": "address"
        },
        {
          "internalType": "address",
          "name": "spender",
          "type": "address"
        },
        {
          "internalType": "uint256",
          "name": "value",
          "type": "uint256"
        },
        {
          "internalType": "uint256",
          "name": "deadline",
          "type": "uint256"
        },
        {
          "internalType": "uint8",
          "name": "v",
          "type": "uint8"
        },
        {
          "internalType": "bytes32",
          "name": "r",
          "type": "bytes32"
        },
        {
          "internalType": "bytes32",
          "name": "s",
          "type": "bytes32"
        }
      ],
      "name": "permit",
      "outputs": [],
      "stateMutability": "nonpayable",
      "type": "function"
    },
    {
      "inputs": [
        {
          "internalType": "address",
          "name": "owner",
          "type": "address"
        },
        {
          "internalType": "address",
          "name": "spender",
          "type": "address"
        },
        {
          "internalType": "uint256",
          "name": "value",
          "type": "uint256"
        },
        {
          "internalType": "uint256",
          "name": "deadline",
          "type": "uint256"
        },
        {
          "internalType": "uint8",
          "name": "v",
          "type": "uint8"
        },
        {
          "internalType": "bytes32",
          "name": "r",
          "type": "bytes32"
        },
        {
          "internalType": "bytes32",
          "name": "s",
          "type": "bytes32"
        }
      ],
      "name": "permitBorrow",
      "outputs": [],
      "stateMutability": "nonpayable",
      "type": "function"
    },
    {
      "inputs": [],
      "name": "protocolFee",
      "outputs": [
        {
          "internalType": "uint256",
          "name": "",
          "type": "uint256"
        }
      ],
      "stateMutability": "view",
      "type": "function"
    },
    {
      "inputs": [
        {
          "internalType": "address",
          "name": "from",
          "type": "address"
        },
        {
          "internalType": "address",
          "name": "to",
          "type": "address"
        },
        {
          "internalType": "uint256",
          "name": "fraction",
          "type": "uint256"
        }
      ],
      "name": "removeAsset",
      "outputs": [
        {
          "internalType": "uint256",
          "name": "share",
          "type": "uint256"
        }
      ],
      "stateMutability": "nonpayable",
      "type": "function"
    },
    {
      "inputs": [
        {
          "internalType": "address",
          "name": "from",
          "type": "address"
        },
        {
          "internalType": "address",
          "name": "to",
          "type": "address"
        },
        {
          "internalType": "uint256",
          "name": "share",
          "type": "uint256"
        }
      ],
      "name": "removeCollateral",
      "outputs": [],
      "stateMutability": "nonpayable",
      "type": "function"
    },
    {
      "inputs": [
        {
          "internalType": "address",
          "name": "from",
          "type": "address"
        },
        {
          "internalType": "address",
          "name": "to",
          "type": "address"
        },
        {
          "internalType": "bool",
          "name": "skim",
          "type": "bool"
        },
        {
          "internalType": "uint256",
          "name": "part",
          "type": "uint256"
        }
      ],
      "name": "repay",
      "outputs": [
        {
          "internalType": "uint256",
          "name": "amount",
          "type": "uint256"
        }
      ],
      "stateMutability": "nonpayable",
      "type": "function"
    },
    {
      "inputs": [
        {
          "internalType": "address",
          "name": "from",
          "type": "address"
        },
        {
          "internalType": "uint256",
          "name": "share",
          "type": "uint256"
        },
        {
          "internalType": "uint256",
          "name": "minAmountOut",
          "type": "uint256"
        },
        {
          "internalType": "contract ISwapper",
          "name": "swapper",
          "type": "address"
        },
        {
          "internalType": "bytes",
          "name": "dexData",
          "type": "bytes"
        }
      ],
      "name": "sellCollateral",
      "outputs": [
        {
          "internalType": "uint256",
          "name": "amountOut",
          "type": "uint256"
        }
      ],
      "stateMutability": "nonpayable",
      "type": "function"
    },
    {
      "inputs": [
        {
          "internalType": "uint256",
          "name": "_cap",
          "type": "uint256"
        }
      ],
      "name": "setBorrowCap",
      "outputs": [],
      "stateMutability": "nonpayable",
      "type": "function"
    },
    {
      "inputs": [
        {
          "internalType": "uint256",
          "name": "_val",
          "type": "uint256"
        }
      ],
      "name": "setBorrowOpeningFee",
      "outputs": [],
      "stateMutability": "nonpayable",
      "type": "function"
    },
    {
      "inputs": [
        {
          "internalType": "uint256",
          "name": "_val",
          "type": "uint256"
        }
      ],
      "name": "setCallerFee",
      "outputs": [],
      "stateMutability": "nonpayable",
      "type": "function"
    },
    {
      "inputs": [
        {
          "internalType": "uint256",
          "name": "_val",
          "type": "uint256"
        }
      ],
      "name": "setClosedCollateralizationRate",
      "outputs": [],
      "stateMutability": "nonpayable",
      "type": "function"
    },
    {
      "inputs": [
        {
          "internalType": "address",
          "name": "_conservator",
          "type": "address"
        }
      ],
      "name": "setConservator",
      "outputs": [],
      "stateMutability": "nonpayable",
      "type": "function"
    },
    {
      "inputs": [
        {
          "internalType": "uint256",
          "name": "_val",
          "type": "uint256"
        }
      ],
      "name": "setLiquidationBonusAmount",
      "outputs": [],
      "stateMutability": "nonpayable",
      "type": "function"
    },
    {
      "inputs": [
        {
          "internalType": "uint256",
          "name": "_val",
          "type": "uint256"
        }
      ],
      "name": "setLiquidationMultiplier",
      "outputs": [],
      "stateMutability": "nonpayable",
      "type": "function"
    },
    {
      "inputs": [
        {
          "internalType": "contract ILiquidationQueue",
          "name": "_liquidationQueue",
          "type": "address"
        }
      ],
      "name": "setLiquidationQueue",
      "outputs": [],
      "stateMutability": "nonpayable",
      "type": "function"
    },
    {
      "inputs": [
        {
          "internalType": "uint256",
          "name": "_val",
          "type": "uint256"
        }
      ],
      "name": "setLqCollateralizationRate",
      "outputs": [],
      "stateMutability": "nonpayable",
      "type": "function"
    },
    {
      "inputs": [
        {
          "internalType": "uint256",
          "name": "_val",
          "type": "uint256"
        }
      ],
      "name": "setMaxLiquidatorReward",
      "outputs": [],
      "stateMutability": "nonpayable",
      "type": "function"
    },
    {
      "inputs": [
        {
          "internalType": "uint256",
          "name": "_val",
          "type": "uint256"
        }
      ],
      "name": "setMinLiquidatorReward",
      "outputs": [],
      "stateMutability": "nonpayable",
      "type": "function"
    },
    {
      "inputs": [
        {
          "internalType": "uint256",
          "name": "_val",
          "type": "uint256"
        }
      ],
      "name": "setOrderBookLiquidationMultiplier",
      "outputs": [],
      "stateMutability": "nonpayable",
      "type": "function"
    },
    {
      "inputs": [
        {
          "internalType": "uint256",
          "name": "_val",
          "type": "uint256"
        }
      ],
      "name": "setProtocolFee",
      "outputs": [],
      "stateMutability": "nonpayable",
      "type": "function"
    },
    {
      "inputs": [],
      "name": "symbol",
      "outputs": [
        {
          "internalType": "string",
          "name": "",
          "type": "string"
        }
      ],
      "stateMutability": "view",
      "type": "function"
    },
    {
      "inputs": [],
      "name": "totalAsset",
      "outputs": [
        {
          "internalType": "uint128",
          "name": "elastic",
          "type": "uint128"
        },
        {
          "internalType": "uint128",
          "name": "base",
          "type": "uint128"
        }
      ],
      "stateMutability": "view",
      "type": "function"
    },
    {
      "inputs": [],
      "name": "totalBorrow",
      "outputs": [
        {
          "internalType": "uint128",
          "name": "elastic",
          "type": "uint128"
        },
        {
          "internalType": "uint128",
          "name": "base",
          "type": "uint128"
        }
      ],
      "stateMutability": "view",
      "type": "function"
    },
    {
      "inputs": [],
      "name": "totalBorrowCap",
      "outputs": [
        {
          "internalType": "uint256",
          "name": "",
          "type": "uint256"
        }
      ],
      "stateMutability": "view",
      "type": "function"
    },
    {
      "inputs": [],
      "name": "totalCollateralShare",
      "outputs": [
        {
          "internalType": "uint256",
          "name": "",
          "type": "uint256"
        }
      ],
      "stateMutability": "view",
      "type": "function"
    },
    {
      "inputs": [],
      "name": "totalSupply",
      "outputs": [
        {
          "internalType": "uint256",
          "name": "",
          "type": "uint256"
        }
      ],
      "stateMutability": "view",
      "type": "function"
    },
    {
      "inputs": [
        {
          "internalType": "address",
          "name": "to",
          "type": "address"
        },
        {
          "internalType": "uint256",
          "name": "amount",
          "type": "uint256"
        }
      ],
      "name": "transfer",
      "outputs": [
        {
          "internalType": "bool",
          "name": "",
          "type": "bool"
        }
      ],
      "stateMutability": "nonpayable",
      "type": "function"
    },
    {
      "inputs": [
        {
          "internalType": "address",
          "name": "from",
          "type": "address"
        },
        {
          "internalType": "address",
          "name": "to",
          "type": "address"
        },
        {
          "internalType": "uint256",
          "name": "amount",
          "type": "uint256"
        }
      ],
      "name": "transferFrom",
      "outputs": [
        {
          "internalType": "bool",
          "name": "",
          "type": "bool"
        }
      ],
      "stateMutability": "nonpayable",
      "type": "function"
    },
    {
      "inputs": [
        {
          "internalType": "address",
          "name": "newOwner",
          "type": "address"
        },
        {
          "internalType": "bool",
          "name": "direct",
          "type": "bool"
        },
        {
          "internalType": "bool",
          "name": "renounce",
          "type": "bool"
        }
      ],
      "name": "transferOwnership",
      "outputs": [],
      "stateMutability": "nonpayable",
      "type": "function"
    },
    {
      "inputs": [],
      "name": "updateExchangeRate",
      "outputs": [
        {
          "internalType": "bool",
          "name": "updated",
          "type": "bool"
        },
        {
          "internalType": "uint256",
          "name": "rate",
          "type": "uint256"
        }
      ],
      "stateMutability": "nonpayable",
      "type": "function"
    },
    {
      "inputs": [
        {
          "internalType": "address",
          "name": "_swapper",
          "type": "address"
        }
      ],
      "name": "updateLQExecutionSwapper",
      "outputs": [],
      "stateMutability": "nonpayable",
      "type": "function"
    },
    {
      "inputs": [
        {
          "internalType": "address",
          "name": "_swapper",
          "type": "address"
        }
      ],
      "name": "updateLQUsdoSwapper",
      "outputs": [],
      "stateMutability": "nonpayable",
      "type": "function"
    },
    {
      "inputs": [
        {
          "internalType": "bool",
          "name": "val",
          "type": "bool"
        }
      ],
      "name": "updatePause",
      "outputs": [],
      "stateMutability": "nonpayable",
      "type": "function"
    },
    {
      "inputs": [
        {
          "internalType": "address",
          "name": "",
          "type": "address"
        }
      ],
      "name": "userBorrowPart",
      "outputs": [
        {
          "internalType": "uint256",
          "name": "",
          "type": "uint256"
        }
      ],
      "stateMutability": "view",
      "type": "function"
    },
    {
      "inputs": [
        {
          "internalType": "address",
          "name": "",
          "type": "address"
        }
      ],
      "name": "userCollateralShare",
      "outputs": [
        {
          "internalType": "uint256",
          "name": "",
          "type": "uint256"
        }
      ],
      "stateMutability": "view",
      "type": "function"
    },
    {
      "inputs": [],
      "name": "withdrawFeesEarned",
      "outputs": [],
      "stateMutability": "nonpayable",
      "type": "function"
    },
    {
      "inputs": [
        {
          "internalType": "address",
          "name": "from",
          "type": "address"
        },
        {
          "internalType": "uint16",
          "name": "dstChainId",
          "type": "uint16"
        },
        {
          "internalType": "bytes32",
          "name": "receiver",
          "type": "bytes32"
        },
        {
          "internalType": "uint256",
          "name": "amount",
          "type": "uint256"
        },
        {
          "internalType": "bytes",
          "name": "adapterParams",
          "type": "bytes"
        },
        {
          "internalType": "address payable",
          "name": "refundAddress",
          "type": "address"
        }
      ],
      "name": "withdrawTo",
      "outputs": [],
      "stateMutability": "payable",
      "type": "function"
    },
    {
      "inputs": [],
      "name": "yieldBox",
      "outputs": [
        {
          "internalType": "contract YieldBox",
          "name": "",
          "type": "address"
        }
      ],
      "stateMutability": "view",
      "type": "function"
    },
    {
      "inputs": [
        {
          "internalType": "address",
          "name": "_user",
          "type": "address"
        },
        {
          "internalType": "uint256",
          "name": "_assetId",
          "type": "uint256"
        }
      ],
      "name": "yieldBoxShares",
      "outputs": [
        {
          "internalType": "uint256",
          "name": "",
          "type": "uint256"
        }
      ],
      "stateMutability": "view",
      "type": "function"
    },
    {
      "stateMutability": "payable",
      "type": "receive"
    }
  ],
  "bytecode": "0x6101408060405234620001ff57620000178162000204565b60138152602081017f546170696f63612053696e67756c61726974790000000000000000000000000081526020604051620000528162000204565b6001815201603160f81b8152600160009233828060a01b03198554161784556040519433857f8be0079c531659141344cd1fd0a4f28419497f9722a3daafe3b4186f6b6457e08180a351902091208160e052610100938185524660a05260208101917f8b73c3c69bb8fe3d512ecc4cf759cc79239f7b179b0ffacaa9a75d522b39400f93848452604083015260608201524660808201523060a082015260a0815260c081019381851060018060401b03861117620001eb5750836040525190206080523060c0526101209081527f0bd4060688a1800ae986e4840aebc924bb40b5bf44de4583df2257220b54b77c6015557f7d1dc38e60930664f8cbf495da6556ca091d2f92d6550877750c049864b182306016556103e880601c556127109081601d556032601e556201b580601f556201f018602055620124f86021556161a860225560235580602455602555670de0b6b3a7640000602655615b35928362000237843960805183614779015260a05183614834015260c0518361474a015260e051836147c8015251826147ee015251816147a50152f35b634e487b7160e01b81526041600452602490fd5b600080fd5b604081019081106001600160401b038211176200022057604052565b634e487b7160e01b600052604160045260246000fdfe6080604052600436101561001b575b361561001957600080fd5b005b60003560e01c8062a02a201461057a57806302ce728f1461057557806306fdde0314610570578063078dfbe71461056b578063095ea7b3146105665780630fde08e31461056157806311a21b2c1461055c57806318160ddd146105575780631c9e379b146105525780631da8bf101461054d5780631e7ce448146105485780631ee9c8f2146105435780631f9dbf041461053e57806323b872dd1461053957806325be7824146105345780632a685acd1461052f578063313ce5671461052a578063320ec13e1461052557806334d441d0146105205780633644e5151461051b57806338d52e0f146105165780633ba0b9a9146105115780633edb17891461050c57806340626d8b1461050757806344de240a14610502578063473e3ce7146104fd57806348e4163e146104f85780634d7f2a34146104f35780634ddf47d4146104ee5780634e71e0c8146104e95780635100b567146104e45780635224372c146104df578063529898f2146104da57806353aa7dcd146104d557806357935462146104d057806358db9afe146104cb5780635906c270146104c65780635c975abb146104c15780635d5f73ef146104bc5780636587adb8146104b75780636c3d8b8f146104b25780636cfea434146104ad57806370a08231146104a8578063717186d1146104a3578063735312e51461049e578063745428811461049957806374645ff314610494578063787dce3d1461048f5780637a4d973b1461048a5780637dc0d1d0146104855780637ecebe00146104805780637fa0b84e1461047b5780638285ef40146104765780638c5d0ed3146104715780638da5cb5b1461046c578063959916dc1461046757806395d89b411461046257806399a970281461045d5780639e15e89f14610458578063a9059cbb14610453578063aa7d96651461044e578063abec5f1d14610449578063ae70702e14610444578063b0e21e8a1461043f578063b27c0e741461043a578063b6b113d814610435578063bfddb11914610430578063c23ea21f1461042b578063c9621f3b14610426578063cce19f8114610421578063cd0211eb1461041c578063ce8849ed14610417578063d272bd0914610412578063d505accf1461040d578063d8dfeb4514610408578063dd62ed3e14610403578063de406577146103fe578063e0996cb6146103f9578063e30c3978146103f4578063ec7eb7e9146103ef578063eec0f42e146103ea578063f4d93753146103e5578063f8974de0146103e0578063f8ba4cff146103db578063f9557ccb146103d65763fa74f0b50361000e57612a8b565b612a59565b612a40565b61296a565b61292c565b61290e565b6128df565b6128b8565b61289a565b612873565b612832565b61280b565b612763565b612726565b6126fc565b612694565b612645565b612627565b612600565b6125d1565b6125a6565b61256b565b61254d565b61243d565b6123ff565b6122e3565b61214a565b61210c565b6120b5565b611fd1565b611fb3565b611f8c565b611f6e565b611f3c565b611f12565b611ed4565b611ead565b611e63565b611e25565b611d3f565b611acb565b611a8d565b611a1b565b6119dd565b6119b6565b61198f565b61195c565b611932565b61190f565b6118a0565b6117fc565b6117de565b6117a0565b611782565b61170f565b6116d1565b61160c565b6112d0565b6112b2565b611274565b611256565b611238565b61121a565b611185565b611137565b611110565b6110ed565b6110cf565b611053565b610fb1565b610f67565b610f11565b610d2d565b610c92565b610bc2565b610b78565b610a63565b6109d5565b6109b4565b61099b565b610969565b610934565b6107f7565b610694565b610612565b6105bd565b6001600160a01b0381160361059057565b600080fd5b6040906003190112610590576004356105ad8161057f565b906024356105ba8161057f565b90565b346105905760206105fe6001600160a01b036105d836610595565b9116600052600583526040600020906001600160a01b0316600052602052604060002090565b54604051908152f35b600091031261059057565b3461059057600036600319011261059057604061062d612f35565b825191151582526020820152f35b60005b83811061064e5750506000910152565b818101518382015260200161063e565b906020916106778151809281855285808601910161063b565b601f01601f1916010190565b9060206105ba92818152019061065e565b34610590576000806003193601126107ea576106c06106bb600b546001600160a01b031690565b614b2c565b6106d56106bb600c546001600160a01b031690565b906106f76106eb601a546001600160a01b031690565b6001600160a01b031690565b9083604051809363355a219b60e21b8252818061071660048201612f26565b03915afa9384156107e5576107b594610781946107a9948361079b94936107b9575b505061078e61077b9161077b60405198899761077b60208a016014907f546170696f63612053696e67756c61726974792000000000000000000000000081520190565b90614909565b602f60f81b815260010190565b602d60f81b815260010190565b03601f198101835282611d1e565b60405191829182610683565b0390f35b61077b92935061078e916107de913d8091833e6107d68183611d1e565b8101906148ab565b9291610738565b612cd1565b80fd5b8015150361059057565b34610590576060366003190112610590576004356108148161057f565b60243590610821826107ed565b6044359061082e826107ed565b6001600160a01b03600093610847828654163314612b8b565b1561091d57811691821590811591610915575b50156108d0576108b8916108786106eb85546001600160a01b031690565b7f8be0079c531659141344cd1fd0a4f28419497f9722a3daafe3b4186f6b6457e08580a36001600160a01b03166001600160a01b03196000541617600055565b6108cd6001600160a01b031960015416600155565b80f35b60405162461bcd60e51b815260206004820152601560248201527f4f776e61626c653a207a65726f206164647265737300000000000000000000006044820152606490fd5b90503861085a565b9150166001600160a01b0319600154161760015580f35b346105905760403660031901126105905761095e6004356109548161057f565b6024359033614427565b602060405160018152f35b34610590576040366003190112610590576004356109868161057f565b6020366023190112610590576100199061504c565b3461059057600036600319011261059057610019614e52565b3461059057600036600319011261059057602060115460801c604051908152f35b34610590576020366003190112610590576001600160a01b036004356109fa8161057f565b1660005260176020526020604060002054604051908152f35b60ff81160361059057565b60e090600319011261059057600435610a368161057f565b90602435610a438161057f565b906044359060643590608435610a5881610a13565b9060a4359060c43590565b3461059057610a7136610a1e565b9592809594959291924211610b335761001996610b2e93610b1b93610b0e878a610b068b61079b610b1399610aa586614869565b60405195869460208601988991959493909260a09360c08401977fe9685ff6d48c617fe4f692c50e602cce27cbad0290beb93cfa77eac43968d58c85526001600160a01b038092166020860152166040840152606083015260808201520152565b5190206146f9565b614677565b919091614553565b6001600160a01b038084169116146144e7565b61448d565b60405162461bcd60e51b815260206004820152601d60248201527f45524332305065726d69743a206578706972656420646561646c696e650000006044820152606490fd5b346105905760003660031901126105905760208054604051908152f35b9181601f84011215610590578235916001600160401b038311610590576020838186019501011161059057565b346105905760c036600319011261059057600435610bdf8161057f565b608435610beb8161057f565b60a435906001600160401b038211610590576107b592610c6e610c739261079b610c1c610c82963690600401610b95565b604051958694630f74e47960e11b60208701526001600160a01b0380921660248701526024356044870152604435606487015260643560848701521660a485015260c060c485015260e4840191614d25565b615a2f565b60208082518301019101612cc2565b6040519081529081906020820190565b60c036600319011261059057600435610caa8161057f565b60243561ffff8116810361059057606435608435926001600160401b03841161059057610cde610019943690600401610b95565b92909160a43594610cee8661057f565b610cf883836135d9565b604435916155c1565b606090600319011261059057600435610d198161057f565b90602435610d268161057f565b9060443590565b3461059057610d877fddf252ad1be2c89b69c2b068fc378daa952ba7f163c4a11628f55a4df523b3ef610d5f36610d01565b9291939083610d96575b6040519384526001600160a01b039081169416929081906020820190565b0390a360405160018152602090f35b610db3856001600160a01b03166000526003602052604060002090565b54610dc085821015614343565b846001600160a01b03918284168093891603610ddf575b505050610d69565b610e32610e3793610e1e610e068b6001600160a01b03166000526004602052604060002090565b336001600160a01b0316600052602052604060002090565b548460018201610e87575b5050151561438f565b612d09565b610e54866001600160a01b03166000526003602052604060002090565b55610e72816001600160a01b03166000526003602052604060002090565b610e7d858254612eb3565b9055388481610dd7565b81610e3282610e979410156143db565b610ed033610eb88d6001600160a01b03166000526004602052604060002090565b906001600160a01b0316600052602052604060002090565b553884610e29565b608090600319011261059057600435610ef08161057f565b90602435610efd8161057f565b90604435610f0a816107ed565b9060643590565b346105905761001961079b610c6e610f2836610ed8565b60405163096f9e0960e21b60208201526001600160a01b03948516602482015293909216604484015215156064830152608482015291829060a4820190565b3461059057602036600319011261059057600435610f916001600160a01b03600054163314612b8b565b610f9f620186a0821061593e565b610fac602354821161593e565b602455005b34610590576000806003193601126107ea5780806001600160a01b03600c5416604051602081019063313ce56760e01b825260048152610ff081611ccd565b51915afa90610ffd614920565b9180611048575b1561103c576020828051810103126107ea575060206107b591015161102881610a13565b60405160ff90911681529081906020820190565b50506107b56012611028565b506020825114611004565b3461059057600060203660031901126107ea576004356110728161057f565b816001600160a01b03611089818354163314612b8b565b80600a541692833b156110cb5760249083604051958694859363575939f960e01b85521660048401525af180156107e5576110c2575080f35b6108cd90611cb5565b8280fd5b34610590576000366003190112610590576020601c54604051908152f35b34610590576000366003190112610590576020611108614740565b604051908152f35b346105905760003660031901126105905760206001600160a01b03600c5416604051908152f35b34610590576000366003190112610590576020601954604051908152f35b9181601f84011215610590578235916001600160401b038311610590576020808501948460051b01011161059057565b346105905760a0366003190112610590576001600160401b03600435818111610590576111b6903690600401611155565b90602435838111610590576111cf903690600401611155565b906044356111dc8161057f565b606435868111610590576111f4903690600401610b95565b93909260843597881161059057611212610019983690600401610b95565b979096614d83565b34610590576000366003190112610590576020601354604051908152f35b34610590576000366003190112610590576020600e54604051908152f35b34610590576000366003190112610590576020601054604051908152f35b34610590576020366003190112610590576001600160a01b036004356112998161057f565b1660005260186020526020604060002054604051908152f35b34610590576000366003190112610590576020602254604051908152f35b34610590576020366003190112610590576004356001600160401b03811161059057611300903690600401610b95565b60ff602754166115c75761139761131f8360209361137a950190614b57565b9a9394976001600160a01b039a939a999199979692979687958680931660275474ffffffffffffffffffffffffffffffffffffffff00191660089190911b74ffffffffffffffffffffffffffffffffffffffff001617602755565b166001600160a01b03166001600160a01b03196028541617602855565b6113b7816001600160a01b03166001600160a01b03196008541617600855565b60046040518096819363de40657760e01b8352165afa9687156107e55761147c6114a29661146084611414611498966114be9d61149d9a600091611599575b50166001600160a01b03166001600160a01b03196009541617600955565b61144861142c6106eb6008546001600160a01b031690565b6001600160a01b03166001600160a01b03196000541617600055565b8085161515908161158d575b81611581575b50614be3565b6001600160a01b03166001600160a01b0319600c541617600c55565b6001600160a01b03166001600160a01b0319600b541617600b55565b600e55565b600d55565b6001600160a01b03166001600160a01b0319601a541617601a55565b6114d96312e687c06001600160401b03196007541617600755565b6114e1612f35565b50506114ee6103e8601c55565b6114f9612710601d55565b6115036032601e55565b61150f6201b580601f55565b61151b6201f018602055565b611527620124f8602155565b6115326161a8602255565b801561156f576026555b6115476103e8602355565b611552612710602455565b61155d612710602555565b610019600160ff196027541617602755565b5061153c670de0b6b3a7640000602655565b90508a1615153861145a565b83811615159150611454565b6115ba915060203d81116115c0575b6115b28183611d1e565b810190614bce565b386113f6565b503d6115a8565b60405162461bcd60e51b815260206004820152601060248201527f53474c3a20696e697469616c697a6564000000000000000000000000000000006044820152606490fd5b34610590576000806003193601126107ea576001600160a01b03806001541680330361168d578061167a928454167f8be0079c531659141344cd1fd0a4f28419497f9722a3daafe3b4186f6b6457e08580a36001600160a01b03166001600160a01b03196000541617600055565b6001600160a01b03196001541660015580f35b606460405162461bcd60e51b815260206004820152602060248201527f4f776e61626c653a2063616c6c657220213d2070656e64696e67206f776e65726044820152fd5b34610590576020366003190112610590576004356116fb6001600160a01b03600054163314612b8b565b61170a620186a082111561593e565b601e55005b346105905761177061176161079b610c6e61172936610d01565b6040516314890dcb60e21b60208201526001600160a01b03938416602482015292909116604483015260648201529182906084820190565b60208082518301019101614d0f565b60408051928352602083019190915290f35b34610590576000366003190112610590576020601f54604051908152f35b34610590576020366003190112610590576004356117ca6001600160a01b03600054163314612b8b565b6117d9620186a082111561593e565b601c55005b34610590576000366003190112610590576020602454604051908152f35b346105905760a0366003190112610590576004356118198161057f565b6064356118258161057f565b608435906001600160401b038211610590576107b592610c6e610c739261079b611856610c82963690600401610b95565b604051958694632c6dcd7f60e11b60208701526001600160a01b0380921660248701526024356044870152604435606487015216608485015260a060a485015260c4840191614d25565b3461059057600060203660031901126107ea576004356118bf8161057f565b816001600160a01b036118d6818354163314612b8b565b80600a541692833b156110cb5760249083604051958694859363036252c960e41b85521660048401525af180156107e5576110c2575080f35b3461059057600036600319011261059057602060ff600f54166040519015158152f35b346105905760003660031901126105905760206001600160a01b0360275460081c16604051908152f35b3461059057602061110861196f36610ed8565b9261198260ff600f94939454161561359f565b61198a61305f565b6137b8565b346105905760003660031901126105905760206001600160a01b0360085416604051908152f35b346105905760003660031901126105905760206001600160a01b0360285416604051908152f35b34610590576020366003190112610590576001600160a01b03600435611a028161057f565b1660005260036020526020604060002054604051908152f35b3461059057602036600319011261059057600435611a3e60ff600f54161561359f565b611a546001600160a01b03600054163314612b8b565b60135460408051918252602082018390527fae6e0ab3b95f0a53ff9660a390ccedcbbf1f2355dce974a9841af106fddcfaba91a1601355005b3461059057602036600319011261059057600435611ab76001600160a01b03600054163314612b8b565b611ac6620186a082111561593e565b602255005b3461059057602036600319011261059057600435611ae88161057f565b600460206001600160a01b03611b0381600054163314612b8b565b6040516307be4daf60e01b8152928391829086165afa9081156107e557600091611b93575b5015611b4e57610019906001600160a01b03166001600160a01b0319600a541617600a55565b60405162461bcd60e51b815260206004820152601660248201527f53474c3a204c51206e6f7420696e6974616c697a6564000000000000000000006044820152606490fd5b611bb4915060203d8111611bba575b611bac8183611d1e565b810190614f6f565b38611b28565b503d611ba2565b90600182811c92168015611bf1575b6020831014611bdb57565b634e487b7160e01b600052602260045260246000fd5b91607f1691611bd0565b601b5460009291611c0b82611bc1565b80825291600190818116908115611c825750600114611c2957505050565b91929350601b6000527f3ad8aa4f87544323a9d1e5dd902f40c356527a7955687113db5f9a85ad579dc1916000925b848410611c6a57505060209250010190565b80546020858501810191909152909301928101611c58565b915050602093945060ff929192191683830152151560051b010190565b634e487b7160e01b600052604160045260246000fd5b6001600160401b038111611cc857604052565b611c9f565b604081019081106001600160401b03821117611cc857604052565b606081019081106001600160401b03821117611cc857604052565b60c081019081106001600160401b03821117611cc857604052565b90601f801991011681019081106001600160401b03821117611cc857604052565b34610590576000806003193601126107ea576040519080601b54611d6281611bc1565b80855291600191808316908115611dfb5750600114611da0575b6107b585611d8c81870382611d1e565b60405191829160208352602083019061065e565b9250601b83527f3ad8aa4f87544323a9d1e5dd902f40c356527a7955687113db5f9a85ad579dc15b828410611de3575050508101602001611d8c826107b5611d7c565b80546020858701810191909152909301928101611dc8565b8695506107b596935060209250611d8c94915060ff191682840152151560051b8201019293611d7c565b3461059057602036600319011261059057600435611e4f6001600160a01b03600054163314612b8b565b611e5e620186a082111561593e565b601d55005b3461059057602036600319011261059057600435611e8d6001600160a01b03600054163314612b8b565b611e9b620186a0821061593e565b611ea8602454821061593e565b602355005b346105905760003660031901126105905760206001600160a01b03601a5416604051908152f35b34610590576020366003190112610590576001600160a01b03600435611ef98161057f565b1660005260066020526020604060002054604051908152f35b346105905760403660031901126105905761095e600435611f328161057f565b602435903361448d565b3461059057600036600319011261059057601254604080516001600160801b038316815260809290921c602083015290f35b34610590576000366003190112610590576020602354604051908152f35b346105905760003660031901126105905760206001600160a01b0360005416604051908152f35b34610590576000366003190112610590576020601e54604051908152f35b34610590576000806003193601126107ea57611ffd611ff8600b546001600160a01b031690565b61496f565b612012611ff8600c546001600160a01b031690565b906120286106eb601a546001600160a01b031690565b9083604051809363634ce26b60e11b8252818061204760048201612f26565b03915afa9384156107e5576107b594610781946107a9948361079b9493612091575b505061078e61077b9161077b60405198899761077b60208a0160029061746d60f01b81520190565b61077b92935061078e916120ae913d8091833e6107d68183611d1e565b9291612069565b346105905760403660031901126105905760206111086001600160a01b036004356120df8161057f565b1680600052601783526120f96024356040600020546141d9565b91600052601884526040600020546142c6565b3461059057604036600319011261059057606061213760043561212e8161057f565b60243590612d16565b9060405192835260208301526040820152f35b34610590576040366003190112610590576004356121678161057f565b6024358015801590612235575b6121b9575b7fddf252ad1be2c89b69c2b068fc378daa952ba7f163c4a11628f55a4df523b3ef6001600160a01b0360405193169280610d873394829190602083019252565b336000908152600360205260409020546121d582821015614343565b816001600160a01b038416918233036121f1575b505050612179565b610e326121ff93151561438f565b33600090815260036020526040808220929092556001600160a01b03841681522061222b828254612eb3565b90553881816121e9565b506001600160a01b0382163314612174565b906040820191604081528151809352606081019260208093019060005b8181106122cd57505050818184039101528251908183528083019281808460051b8301019501936000915b84831061229f5750505050505090565b90919293949584806122bd600193601f198682030187528a5161065e565b980193019301919493929061228f565b8251151586529484019491840191600101612264565b3461059057604080600319360112610590576004356001600160401b03811161059057612314903690600401611155565b9160243591612322836107ed565b61232b84614c1f565b9261233883519485611d1e565b848452601f1961234786614c1f565b0136602086013761235785614c36565b94600090815b818110612372578551806107b58a8a83612247565b806123d784806123866123f295878b614c80565b906123958c5180938193614cc1565b0390305af46123d26123a5614920565b918081156123f7575b6123c1906123bb856159d6565b90614ccf565b6123cb858d614cfb565b9015159052565b6159d6565b6123e1828b614cfb565b526123ec818a614cfb565b5061485a565b61235d565b5088156123ae565b34610590576020366003190112610590576004356124296001600160a01b03600054163314612b8b565b612438620186a082111561593e565b602155005b346105905760403660031901126105905760043561245a8161057f565b6124ba60243591600e548314600014612542576020601554935b6124896106eb6009546001600160a01b031690565b6040518080968194627eeac760e11b83528760048401602090939291936001600160a01b0360408201951681520152565b03915afa80156107e5576107b593610c829360009261250c575b506124f661250592936001600160a01b03166000526014602052604060002090565b90600052602052604060002090565b5490612eb3565b61250592506125346124f69160203d811161253b575b61252c8183611d1e565b810190612cc2565b92506124d4565b503d612522565b602060165493612474565b34610590576000366003190112610590576020601d54604051908152f35b34610590576000366003190112610590576060600754604051906001600160401b0380821683528160401c16602083015260801c6040820152f35b346105905760403660031901126105905760206111086004356125c88161057f565b60243590612ec0565b34610590576020366003190112610590576125f86001600160a01b03600054163314612b8b565b600435602055005b346105905760003660031901126105905760206001600160a01b03600a5416604051908152f35b34610590576000366003190112610590576020602154604051908152f35b346105905761001961079b610c6e61265c36610d01565b60405163cce19f8160e01b60208201526001600160a01b03938416602482015292909116604483015260648201529182906084820190565b346105905760206111086126ee61079b610c6e6126b036610ed8565b60405163cd0211eb60e01b8a8201526001600160a01b03948516602482015293909216604484015215156064830152608482015291829060a4820190565b828082518301019101612cc2565b346105905760003660031901126105905760206001600160a01b03600f5460081c16604051908152f35b34610590576020366003190112610590576004356127506001600160a01b03600054163314612b8b565b61275e620186a0821061593e565b602555005b346105905761277136610a1e565b9592809594959291924211610b33576100199661280693610b1b93610b0e878a610b068b61079b610b13996127a586614869565b60405195869460208601988991959493909260a09360c08401977f6e71edae12b1b97f4d1f60370fef10105fa2faae0126114a169c64845d6126c985526001600160a01b038092166020860152166040840152606083015260808201520152565b614427565b346105905760003660031901126105905760206001600160a01b03600b5416604051908152f35b346105905760206105fe6001600160a01b0361284d36610595565b9116600052600483526040600020906001600160a01b0316600052602052604060002090565b346105905760003660031901126105905760206001600160a01b0360095416604051908152f35b34610590576000366003190112610590576020602554604051908152f35b346105905760003660031901126105905760206001600160a01b0360015416604051908152f35b34610590576020366003190112610590576129066001600160a01b03600054163314612b8b565b600435601f55005b34610590576000366003190112610590576020600d54604051908152f35b3461059057602061296361110861294236610d01565b9061295560ff600f96949654161561359f565b61295d61305f565b84613c66565b80926135d9565b3461059057602036600319011261059057600435612987816107ed565b600f54906001600160a01b038260081c1633036129fb577f9c13c5f6c628c1c82eb2b3fd8714da5c2857dbd0ad8ab6b2074abcf81015d3968160ff61001994166129d7811515831515141561598a565b6040805191151582529115156020820152a160ff8019600f54169115151617600f55565b60405162461bcd60e51b815260206004820152601160248201527f53474c3a20756e617574686f72697a65640000000000000000000000000000006044820152606490fd5b346105905760003660031901126105905761001961305f565b3461059057600036600319011261059057601154604080516001600160801b038316815260809290921c602083015290f35b3461059057602036600319011261059057600435612aa88161057f565b6001600160a01b0390612ac082600054163314612b8b565b8181168015612b4657612ae361001993600f5460081c166001600160a01b031690565b7f5a62d22209e370e38eea92cfddcd228e656e6ec139243392a760a7769f5877fd600080a3600f5474ffffffffffffffffffffffffffffffffffffffff00191660089190911b74ffffffffffffffffffffffffffffffffffffffff001617600f55565b60405162461bcd60e51b815260206004820152601660248201527f53474c3a2061646472657373206e6f742076616c6964000000000000000000006044820152606490fd5b15612b9257565b606460405162461bcd60e51b815260206004820152602060248201527f4f776e61626c653a2063616c6c6572206973206e6f7420746865206f776e65726044820152fd5b60405190612be382611ce8565b565b60405190612bf282611ccd565b6012546001600160801b038116835260801c6020830152565b60405190612c1882611ccd565b6011546001600160801b038116835260801c6020830152565b634e487b7160e01b600052601160045260246000fd5b8115612c51570490565b634e487b7160e01b600052601260045260246000fd5b90670de0b6b3a764000091828102928184041490151715612c8457565b612c31565b907054a2b63d65d79d094abb6688000000000091828102928184041490151715612c8457565b81810292918115918404141715612c8457565b90816020910312610590575190565b6040513d6000823e3d90fd5b670b1a2bc2ec4fffff19810191908211612c8457565b906709b6e64a8ec60000918203918211612c8457565b91908203918211612c8457565b919091612d36816001600160a01b03166000526018602052604060002090565b54908115612e8857612d5b906001600160a01b03166000526017602052604060002090565b5492612d65612be5565b91612dd96020612d806106eb6009546001600160a01b031690565b600d5490612da8612d9f612d99602654620186a0900490565b8b612caf565b60225490612caf565b60405163442c159960e01b815260048101939093526024830152600060448301529092839190829081906064820190565b03915afa9384156107e557612e3f612e1e6020612e30612e0988612e609a612e4598600091612e6b575b50612c47565b96612e2a612e1e87516001600160801b031690565b6001600160801b031690565b90612caf565b9301516001600160801b031690565b90612c47565b60009190818110612e6457612e5a9250612d09565b936141d9565b9091565b5050612e5a565b612e829150853d811161253b5761252c8183611d1e565b38612e03565b50600092508291829150565b907054a2b63d65d79d094abb66880000000000918201809211612c8457565b91908201809211612c8457565b90612ecb8183613670565b612f1f57612ee16001600160a01b039183612d16565b929193905016600052601860205260406000205490811015612f1a57612f0d620186a091602554612caf565b048101809111612c845790565b905090565b5050600090565b60206105ba9181815201611bfb565b6001600160a01b03601a541690604090818051809463d6d7d52560e01b82526020600483015281600081612f6b60248201611bfb565b03925af180156107e5576000938491612fc9575b50918315612fc1577f9f9192b5edb17356c524e08d9e025c8e2f6307e6ea52fb7968faa3081f51c3c890612fb284601955565b5183815280602081015b0390a1565b506019549150565b9390508284813d8311613000575b612fe18183611d1e565b810103126107ea57506020835193612ff8856107ed565b015138612f7f565b503d612fd7565b6040516001600160401b0391906060810183811182821017611cc8576040526040819360075490808216845281831c16602084015260801c910152565b9190916001600160801b0380809416911601918211612c8457565b613067613007565b6020908181019161309761309161308585516001600160401b031690565b6001600160401b031690565b42612d09565b8015613599576001600160401b034281169094526130b3612be5565b906001600160801b0392836130d1828501516001600160801b031690565b16156134e457906131be9392916130e6612c0b565b9261312c61311e84613119613105612e1e86516001600160801b031690565b612e2a6130858d516001600160401b031690565b612caf565b670de0b6b3a7640000900490565b9361315961314c87871661314785516001600160801b031690565b613044565b6001600160801b03168352565b8261316f6106eb6009546001600160a01b031690565b600e549061318484516001600160801b031690565b60405163442c159960e01b815260048101939093526001600160801b03166024830152600060448301529098899190829081906064820190565b03915afa80156107e55788976000916134c7575b5082516001600160801b03166001600160801b03166131f091612eb3565b8093601d546131ff9088612caf565b620186a09004920191825161321a906001600160801b031690565b6001600160801b031661322c91612caf565b9061323691612c47565b9586169060408801828151613251906001600160801b031690565b9061325b91613044565b6001600160801b03169052516001600160801b03169061327a91613044565b613299906001600160801b036011549181199060801b16911617601155565b6132c1816001600160801b038151169060206001600160801b031991015160801b1617601255565b516132d4906001600160801b0316612c67565b906132de91612c47565b612be3967f33af5ce86e8438eff54589f85332916444457dfa8685493fbd579b809097026b956133d9939190836709b6e64a8ec600008110156134285761308561338f9261337d61337861308561336a6133656304b9a1f09a61311961335f61335161334c6133829c612cf3565b612c67565b6709b6e64a8ec60000900490565b80612caf565b612e94565b93516001600160401b031690565b612c89565b612c47565b6001600160401b03168952565b87516001600160401b0316161061341c575b85516001600160401b031660405194859485909493926001600160401b03906060936080840197845260208401521660408201520152565b0390a16001600160401b038151166fffffffffffffffff000000000000000060208301519260406001600160801b031991015160801b169260401b161717600755565b6304b9a1f086526133a1565b670b1a2bc2ec500000915011613440575b50506133a1565b61349b6134846134706133656134b89561311961335f61346261334c8b612cdd565b6702c68af0bb140000900490565b6131196130858c516001600160401b031690565b7054a2b63d65d79d094abb66880000000000900490565b6449d48246008082116134bf575b50166001600160401b03168752565b3880613439565b9050386134a9565b6134de9150843d861161253b5761252c8183611d1e565b386131d2565b505050506312e687c0612be39261350283516001600160401b031690565b1603613548576001600160401b038151166fffffffffffffffff000000000000000060208301519260406001600160801b031991015160801b169260401b161717600755565b6312e687c081527f33af5ce86e8438eff54589f85332916444457dfa8685493fbd579b809097026b604051806133d981906000606060808401938281528260208201526312e687c060408201520152565b50505050565b156135a657565b60405162461bcd60e51b815260206004820152600b60248201526a14d1d30e881c185d5cd95960aa1b6044820152606490fd5b6001600160a01b0381163381036135ef57505050565b8060005260046020528261361a336040600020906001600160a01b0316600052602052604060002090565b5410613652575061364390610eb833916001600160a01b03166000526004602052604060002090565b8054918203918211612c845755565b60449060405190630ca03e9b60e11b82526004820152336024820152fd5b9061368e826001600160a01b03166000526018602052604060002090565b549182156137b0576136b3906001600160a01b03166000526017602052604060002090565b5480156137a8576137319160206136c8612be5565b926136de6106eb6009546001600160a01b031690565b6137006136f7600d5493612e2a602654620186a0900490565b60215490612caf565b60405163442c159960e01b815260048101939093526024830152600060448301529094859190829081906064820190565b03915afa9283156107e557600093613772575b50612e1e6020612e30612e3f9361311961376d9798612e2a612e1e89516001600160801b031690565b111590565b61376d93506020612e30612e3f9361311961379c612e1e95853d811161253b5761252c8183611d1e565b97505093505050613744565b505050600090565b505050600190565b939291936137c4612c0b565b946001600160801b0395866137e082516001600160801b031690565b169061384c60206137fc6106eb6009546001600160a01b031690565b600e54906138126012546001600160801b031690565b604051638eb22cdd60e01b815260048101939093526001600160801b03166024830152600160448301529092839190829081906064820190565b03915afa80156107e557613869916000916139e4575b5083612eb3565b806139b757506103e886985b6138968a8261388e60208701516001600160801b031690565b911690613044565b16106139ab5791613977817f30a8c4f9ab5af7e1309ca87c32377d1a83366c5990472dbf9d262450eae14e3895936138fb6138d78c8b61396a9c9b99613a02565b6001600160801b038151169060206001600160801b031991015160801b1617601155565b613918866001600160a01b03166000526003602052604060002090565b6139238c8254612eb3565b9055876001600160a01b03968c60007fddf252ad1be2c89b69c2b068fc378daa952ba7f163c4a11628f55a4df523b3ef8a84169d8e93604051918291829190602083019252565b0390a3600e549087613a8b565b156139a657506139926106eb6009546001600160a01b031690565b6040805194855260208501889052911692a3565b613992565b50600096505050505050565b6139de6103e89161337d6139d8612e1e60208701516001600160801b031690565b8a612caf565b98613875565b6139fc915060203d811161253b5761252c8183611d1e565b38613862565b9190613a339060006020604051613a1881611ccd565b82815201526001600160801b03918280921682865116613044565b168352613a498160208501931682845116613044565b16905290565b15613a5657565b60405162461bcd60e51b815260206004820152600d60248201526c0a68e987440e8dede40daeac6d609b1b6044820152606490fd5b9192939490613ac090600e548514600014613be1576124f6601554916001600160a01b03166000526014602052604060002090565b613acb858254612eb3565b905515613b5e57506020613b1891613aee6106eb6009546001600160a01b031690565b604051627eeac760e11b815230600482015260248101929092529092839190829081906044820190565b03915afa9283156107e557612be393613b3992600091613b40575b50612d09565b1015613a4f565b613b58915060203d811161253b5761252c8183611d1e565b38613b33565b91909250613b776106eb6009546001600160a01b031690565b803b1561059057604051630208d92960e11b81526001600160a01b03909316600484015230602484015260448301939093526064820152906000908290818381608481015b03925af180156107e557613bce575b50565b80613bdb612be392611cb5565b80610607565b6124f6601654916001600160a01b03166000526014602052604060002090565b6001600160801b039182169082160391908211612c8457565b15613c2157565b60405162461bcd60e51b815260206004820152600e60248201527f53474c3a206d696e206c696d69740000000000000000000000000000000000006044820152606490fd5b909291926001600160801b039384613c8060115460801c90565b1615613f7757613c8e612c0b565b94613ca086516001600160801b031690565b613cba60206137fc6106eb6009546001600160a01b031690565b03915afa9182156107e5578391600093613f57575b501690613cdb91612eb3565b613ce59083612caf565b9060208701918251613cfd906001600160801b031690565b6001600160801b0316613d0f91612c47565b96613d2d866001600160a01b03166000526003602052604060002090565b84815490613d3a91612d09565b90556040518481526001600160a01b038781169490939160009086907fddf252ad1be2c89b69c2b068fc378daa952ba7f163c4a11628f55a4df523b3ef90602090a38251613d9490838c16906001600160801b0316613c01565b6001600160801b031683528051868316906001600160801b031690613db891613c01565b6001600160801b03168152516001600160801b0316166103e81115613ddc90613c1a565b613e04906001600160801b038151169060206001600160801b031991015160801b1617601155565b604080518881526020810194909452908416927f6e853a5fd6b51d773691f542ebac8513c9992a51380d4c342031056a641142289190a3600954600e546001600160a01b0390911691823b1561059057604051630208d92960e11b81523060048201526001600160a01b03919091166024820152604481019190915260648101859052906000908290608490829084905af180156107e557613f44575b50613ebf816001600160a01b03166000526014602052604060002090565b613ed6601554809290600052602052604060002090565b54841115613f155750613f12613f016000926001600160a01b03166000526014602052604060002090565b601554600052602052604060002090565b55565b6124f6613f35926001600160a01b03166000526014602052604060002090565b613f40838254612d09565b9055565b80613bdb613f5192611cb5565b38613ea1565b613f7091935060203d811161253b5761252c8183611d1e565b9138613ccf565b50600093505050565b92916001600160801b039384613f9860115460801c90565b1615613f7757613fa6612c0b565b90613fb882516001600160801b031690565b613fd260206137fc6106eb6009546001600160a01b031690565b03915afa9182156107e55788916000936141b9575b501690613ff391612eb3565b613ffd9084612caf565b9160208101928351614015906001600160801b031690565b6001600160801b031661402791612c47565b96614045836001600160a01b03166000526003602052604060002090565b8581549061405291612d09565b90556040518581526001600160a01b03938416949060009086907fddf252ad1be2c89b69c2b068fc378daa952ba7f163c4a11628f55a4df523b3ef90602090a382516140aa90838b16906001600160801b0316613c01565b6001600160801b031683528051868316906001600160801b0316906140ce91613c01565b6001600160801b03168152516001600160801b0316166103e811156140f290613c1a565b61411a906001600160801b038151169060206001600160801b031991015160801b1617601155565b604080518781526020810194909452908416927f6e853a5fd6b51d773691f542ebac8513c9992a51380d4c342031056a641142289190a3600954600e546001600160a01b0390911691823b1561059057604051630208d92960e11b81523060048201526001600160a01b03919091166024820152604481019190915260648101849052906000908290608490829084905af180156107e557613bce5750565b6141d291935060203d811161253b5761252c8183611d1e565b9138613fe7565b600954600d5460405163442c159960e01b81526004810191909152602481019290925260006044830152909190602090839060649082906001600160a01b03165afa9182156107e55761423c9261337d91600091614250575b5060265490612caf565b620186a061424c60215483612caf565b0491565b614268915060203d811161253b5761252c8183611d1e565b38614232565b81810392916000138015828513169184121617612c8457565b818102929160008212600160ff1b821416612c84578184051490151715612c8457565b91909160008382019384129112908015821691151617612c8457565b80156137a85781156137a8578181106137a8578281101561433a5781810390808211612c845782620186a08084029384041491141715612c8457612e3f614310926105ba94612d09565b61433561432c60235492614327602454809561426e565b614287565b620186a0900590565b6142aa565b50505060235490565b1561434a57565b60405162461bcd60e51b815260206004820152601660248201527f45524332303a2062616c616e636520746f6f206c6f77000000000000000000006044820152606490fd5b1561439657565b60405162461bcd60e51b815260206004820152601660248201527f45524332303a206e6f207a65726f2061646472657373000000000000000000006044820152606490fd5b156143e257565b60405162461bcd60e51b815260206004820152601860248201527f45524332303a20616c6c6f77616e636520746f6f206c6f7700000000000000006044820152606490fd5b60207f8c5be1e5ebec7d5bd14f71427d1e84f3dd0314c0f7b2291e5b200ac8c7c3b925916001600160a01b0380911693846000526004835285614481826040600020906001600160a01b0316600052602052604060002090565b556040519586521693a3565b60207fe50de2333c10a9502fcb1d8ae13a51bbf423153dfc63c2b8997665b32154afc3916001600160a01b0380911693846000526005835285614481826040600020906001600160a01b0316600052602052604060002090565b156144ee57565b60405162461bcd60e51b815260206004820152601e60248201527f45524332305065726d69743a20696e76616c6964207369676e617475726500006044820152606490fd5b6005111561453d57565b634e487b7160e01b600052602160045260246000fd5b61455c81614533565b806145645750565b61456d81614533565b600181036145be5760405162461bcd60e51b815260206004820152601860248201527f45434453413a20696e76616c6964207369676e617475726500000000000000006044820152606490fd5b0390fd5b6145c781614533565b600281036146145760405162461bcd60e51b815260206004820152601f60248201527f45434453413a20696e76616c6964207369676e6174757265206c656e677468006044820152606490fd5b80614620600392614533565b1461462757565b60405162461bcd60e51b815260206004820152602260248201527f45434453413a20696e76616c6964207369676e6174757265202773272076616c604482015261756560f01b6064820152608490fd5b9291907f7fffffffffffffffffffffffffffffff5d576e7357a4501ddfe92f46681b20a083116146ed5791608094939160ff602094604051948552168484015260408301526060820152600093849182805260015afa156107e55781516001600160a01b038116156146e7579190565b50600190565b50505050600090600390565b614701614740565b9060405190602082019261190160f01b84526022830152604282015260428152608081018181106001600160401b03821117611cc85760405251902090565b6001600160a01b037f000000000000000000000000000000000000000000000000000000000000000016301480614831575b1561479b577f000000000000000000000000000000000000000000000000000000000000000090565b60405160208101907f000000000000000000000000000000000000000000000000000000000000000082527f000000000000000000000000000000000000000000000000000000000000000060408201527f000000000000000000000000000000000000000000000000000000000000000060608201524660808201523060a082015260a0815261482b81611d03565b51902090565b507f00000000000000000000000000000000000000000000000000000000000000004614614772565b6000198114612c845760010190565b6001600160a01b03166000526006602052604060002080549061488b8261485a565b905590565b6001600160401b038111611cc857601f01601f191660200190565b602081830312610590578051906001600160401b038211610590570181601f820112156105905780516148dd81614890565b926148eb6040519485611d1e565b81845260208284010111610590576105ba916020808501910161063b565b9061491c6020928281519485920161063b565b0190565b3d1561494b573d9061493182614890565b9161493f6040519384611d1e565b82523d6000602084013e565b606090565b6040519061495d82611ccd565b60038252623f3f3f60e81b6020830152565b600080916040516001600160a01b0360208201916395d89b4160e01b83526004815261499a81611ccd565b5192165afa6149a7614920565b90156149b6576105ba90614a2e565b506105ba614950565b634e487b7160e01b600052603260045260246000fd5b9081518110156149e6570160200190565b6149bf565b60ff1660ff8114612c845760010190565b90614a0682614890565b614a136040519182611d1e565b8281528092614a24601f1991614890565b0190602036910137565b805160408110614a4c5750806020806105ba935183010191016148ab565b602092908303614b21576000805b60ff81168581109081614aff575b5015614a7c57614a77906149eb565b614a5a565b92614a8a60ff8095166149fc565b92825b85811687811080614ae0575b15614ad5579081614aca614ac1614ab3614ad095886149d5565b516001600160f81b03191690565b871a91886149d5565b536149eb565b614a8d565b505094505050905090565b506001600160f81b0319614af7614ab383876149d5565b161515614a99565b6001600160f81b03199150614b1890614ab390876149d5565b16151538614a68565b9150506105ba614950565b600080916040516001600160a01b0360208201916306fdde0360e01b83526004815261499a81611ccd565b9081610120910312610590578035614b6e8161057f565b916020820135614b7d8161057f565b916040810135614b8c8161057f565b916060820135614b9b8161057f565b9160808101359160a0820135614bb08161057f565b9160c08101359161010060e0830135614bc88161057f565b92013590565b9081602091031261059057516105ba8161057f565b15614bea57565b60405162461bcd60e51b815260206004820152600d60248201526c29a3a61d103130b2103830b4b960991b6044820152606490fd5b6001600160401b038111611cc85760051b60200190565b90614c4082614c1f565b614c4d6040519182611d1e565b8281528092614c5e601f1991614c1f565b019060005b828110614c6f57505050565b806060602080938501015201614c63565b91908110156149e65760051b81013590601e19813603018212156105905701908135916001600160401b038311610590576020018236038113610590579190565b908092918237016000815290565b15614cd75750565b60405162461bcd60e51b8152602060048201529081906145ba90602483019061065e565b80518210156149e65760209160051b010190565b9190826040910312610590576020825192015190565b908060209392818452848401376000828201840152601f01601f1916010190565b90918281527f07ffffffffffffffffffffffffffffffffffffffffffffffffffffffffffffff83116105905760209260051b809284830137010190565b9897949096939295919560405197602090633edb178960e01b828b01528060c48b0160a060248d01525260e48a019b9160005b828110614e265750505050614e21969388969361079b9693614e03614df1613bcb9d9e614e12966023199a8d60448d82860301910152614d46565b6001600160a01b0390941660648b0152565b868984030160848a0152614d25565b928584030160a4860152614d25565b615ad2565b9091929c82808f926001600160a01b0360019435614e438161057f565b168152019e0193929101614db6565b614e5a61305f565b60046020614e736106eb6008546001600160a01b031690565b604051622fcfcb60e31b815292839182905afa9081156107e557600091614f51575b507fbe641c3ffc44b2d6c184f023fa4ed7bda4b6ffa71e03b3c98ae0c776da1f17e7614f4c6001600160a01b03614ed1612e1e60075460801c90565b93614eef816001600160a01b03166000526003602052604060002090565b614efa868254612eb3565b905516928360007fddf252ad1be2c89b69c2b068fc378daa952ba7f163c4a11628f55a4df523b3ef60405180614f3586829190602083019252565b0390a3610c826001600160801b0360075416600755565b0390a2565b614f69915060203d81116115c0576115b28183611d1e565b38614e95565b9081602091031261059057516105ba816107ed565b15614f8b57565b60405162461bcd60e51b815260206004820152601460248201527f53474c3a20496e76616c696420737761707065720000000000000000000000006044820152606490fd5b6020908160408183019282815285518094520193019160005b828110614ff7575050505090565b83516001600160a01b031685529381019392810192600101614fe9565b929360c0946105ba9796936001600160a01b039386526020860152604085015216606083015260808201528160a0820152019061065e565b6001600160801b0361506060075460801c90565b1661543a575b61507b6106eb6008546001600160a01b031690565b60408051634656bfdf60e11b81526001600160a01b0384166004808301919091529391929091906020908184602481845afa9081156107e5576150c98392889660009161541d575b50614f84565b8551622fcfcb60e31b815296879182905afa9485156107e5576000956153fe575b5061511361510b866001600160a01b03166000526003602052604060002090565b543087613f80565b9283156153f65761512f6106eb6008546001600160a01b031690565b928551938385848163017ae8d160e11b948582525afa9485156107e5576000956153d7575b50600e54600095811461531c57506001600160a01b0361517f6106eb6009546001600160a01b031690565b921691600e54813b15615318578851630208d92960e11b8152308682019081526001600160a01b038616602082015260408101929092526060820189905291879183919082908490829060800103925af180156107e557615305575b50600e5490846151f66106eb6008546001600160a01b031690565b91858a518094819382525afa9182156107e55788958895889384956152e0575b509061526391615245615227615447565b926152378b519485928301614fd0565b03601f198101845283611d1e565b885163055a68e160e41b81529c8d9889978896602435948801615014565b03925af180156107e5577fa4fef2aee55b8c5258b39e504f59d0fb9960865de9cc847e769cd282b676936394612fbc92916152b2575b50925b5191825260208201929092529081906040820190565b6152d29150843d86116152d9575b6152ca8183611d1e565b810190614d0f565b5038615299565b503d6152c0565b829195506152fd90615263933d841161253b5761252c8183611d1e565b949091615216565b80613bdb61531292611cb5565b386151db565b8680fd5b94969597929350505061533a6106eb6009546001600160a01b031690565b91823b156153d3578451630208d92960e11b8152309181019182526001600160a01b0390921660208201526040810193909352606083018690529492918491869182908490829060800103925af19081156107e5577fa4fef2aee55b8c5258b39e504f59d0fb9960865de9cc847e769cd282b676936394612fbc926153c0575b5061529c565b80613bdb6153cd92611cb5565b386153ba565b8580fd5b6153ef919550843d861161253b5761252c8183611d1e565b9338615154565b505050505050565b816154169296503d87116115c0576115b28183611d1e565b93386150ea565b6154349150843d8611611bba57611bac8183611d1e565b386150c3565b615442614e52565b615066565b6040519061545482611ce8565b600282526020820191604036843780926001600160a01b039081600c5416918351156149e6576004926020925260085416604051928380926325abd85f60e11b82525afa9081156107e5576000916154c7575b508151600110156149e6576040612be39201906001600160a01b03169052565b6154df915060203d81116115c0576115b28183611d1e565b386154a7565b156154ec57565b60405162461bcd60e51b815260206004820152601260248201527f53474c3a206e6f7420617661696c61626c6500000000000000000000000000006044820152606490fd5b92919261553d82614890565b9161554b6040519384611d1e565b829481845281830111610590578281602093846000960137010152565b93906105ba95916101009461ffff6040956001600160a01b03809516895216602088015284870152606086015260a060808601528082511660a086015260208201511660c0850152015191606060e0820152019061065e565b90919394929561ffff8316156158a2576155ec6106eb6106eb6106eb600c546001600160a01b031690565b906040928351906301ffc9a760e01b82526020918281600496818061561f8a820190602082019163843c6ae360e01b9052565b03915afa9081615885575b5061563b5750505050505050505050565b6156506106eb6009546001600160a01b031690565b600e548651627eeac760e11b81526001600160a01b0384168782019081526020810183905290939192908590859081906040010381845afa9384156107e5576156ca948691600091615868575b5089518096819263442c159960e01b8352878c840160409060009294936060820195825260208201520152565b0381845afa9182156107e557600089948f96878b966156f292859161584b575b5010156154e5565b85516311a5cc7760e31b81529485019081526001600160a01b03909216602083015230604083015260608201959095526000608082015291938492839190829060a00103925af180156107e55761582f575b5034158015929061582757975b61576c6106eb6106eb6106eb600c546001600160a01b031690565b968551633b58a71760e21b8152838187818c5afa9081156107e55760009161580a575b50156157fe576000916157a3913691615531565b915b6157bf6157b0612bd6565b6001600160a01b03909b168b52565b89015283880152156157f75734915b843b1561059057600096613bbc91519889978896879563695ef6bf60e01b875230908701615568565b47916157ce565b505060006060916157a5565b6158219150843d8611611bba57611bac8183611d1e565b3861578f565b503097615751565b61584590853d87116152d9576152ca8183611d1e565b50615744565b61586291508b3d8d1161253b5761252c8183611d1e565b386156ea565b61587f9150823d841161253b5761252c8183611d1e565b3861569d565b61589b90843d8611611bba57611bac8183611d1e565b503861562a565b5092915050604092506001600160a01b0360006158ca6106eb6009546001600160a01b031690565b600e5486516311a5cc7760e31b815260048101919091526001600160a01b039586166024820152929093169093166044820152606481019490945260006084850152839160a4918391905af180156107e5576159235750565b61593a9060403d81116152d9576152ca8183611d1e565b5050565b1561594557565b60405162461bcd60e51b815260206004820152600e60248201527f53474c3a206e6f742076616c69640000000000000000000000000000000000006044820152606490fd5b1561599157565b60405162461bcd60e51b815260206004820152600f60248201527f53474c3a2073616d6520737461746500000000000000000000000000000000006044820152606490fd5b60448151106159f5578060248060046105ba94015183010191016148ab565b50604051615a0281611ccd565b601381527f53474c3a206e6f2072657475726e206461746100000000000000000000000000602082015290565b6001600160a01b03602854168015615a8d57816000929160208493519201905af490615a59614920565b9115615a6157565b6145ba615a6d836159d6565b60405162461bcd60e51b815260206004820152918291602483019061065e565b60405162461bcd60e51b815260206004820152601360248201527f53474c3a206d6f64756c65206e6f7420736574000000000000000000000000006044820152606490fd5b6001600160a01b0360275460081c168015615a8d57816000929160208493519201905af490615a5961492056fea264697066735822122063277637a9449181e93da4f9b833f65aa2684b305f1264d15af558110a024d4e64736f6c63430008120033",
  "linkReferences": {},
  "deployedLinkReferences": {}
}