{"contracts/ContractThatReverts.sol":{"ContractThatReverts":{"abi":[{"inputs":[],"name":"count","outputs":[{"internalType":"uint256","name":"","type":"uint256"}],"stateMutability":"view","type":"function"},{"inputs":[],"name":"revertStr","outputs":[{"internalType":"string","name":"","type":"string"}],"stateMutability":"view","type":"function"},{"inputs":[{"internalType":"uint256","name":"_count","type":"uint256"}],"name":"shouldNotRevert","outputs":[],"stateMutability":"nonpayable","type":"function"},{"inputs":[{"internalType":"uint256","name":"_count","type":"uint256"}],"name":"shouldRevert","outputs":[],"stateMutability":"nonpayable","type":"function"}],"devdoc":{"kind":"dev","methods":{},"version":1},"evm":{"bytecode":{"linkReferences":{},"object":"608080604052346100c157600180548181811c911680156100b7575b60208210146100a157601f8111610072575b50806043602160f81b92558060005260206000207f54686973206d6574686f642072657665727465642e20536f20617765736f6d658155015561026f90816100c78239f35b816000526002601f6020600020920160051c820191015b818110610096575061002d565b600081558201610089565b634e487b7160e01b600052602260045260246000fd5b90607f169061001b565b600080fdfe6080604090808252600436101561001557600080fd5b600091823560e01c91826306661abd146101495750816316b2da8214610110578163d58f64341461006c575063fa2880ca1461005057600080fd5b3461006957602036600319011261006957600435815580f35b80fd5b90503461010c578160031936011261010c578051601f199081601f8261009181610163565b03011681019381851067ffffffffffffffff8611176100f85791849192828552602090818452845191828186015281955b8387106100e05750508394508582601f949501015201168101030190f35b868101820151898801890152958101958895506100c2565b634e487b7160e01b81526041600452602490fd5b5080fd5b82346100695760203660031901126100695760043590555162461bcd60e51b8152602060048201528061014560248201610163565b0390fd5b83903461010c578160031936011261010c57602091548152f35b60018054600093928183169282811c92841561022f575b6020948585108114610219578484529081156101fc575060011461019f575b50505050565b80939495506000929192527fb10e2d527612073b26eecdfd717e6a320cf44b4afac2b0732d9fcbe2b7fa0cf692846000945b8386106101e8575050505001019038808080610199565b8054858701830152940193859082016101d1565b60ff191685840152505090151560051b0101915038808080610199565b634e487b7160e01b600052602260045260246000fd5b92607f169261017a56fea2646970667358221220e35c140bbbd34c7d77b95b4b5ede84eccf16ddde224a8c895ff23a5205a85b2664736f6c63430008120033","opcodes":"PUSH1 0x80 DUP1 PUSH1 0x40 MSTORE CALLVALUE PUSH2 0xC1 JUMPI PUSH1 0x1 DUP1 SLOAD DUP2 DUP2 DUP2 SHR SWAP2 AND DUP1 ISZERO PUSH2 0xB7 JUMPI JUMPDEST PUSH1 0x20 DUP3 LT EQ PUSH2 0xA1 JUMPI PUSH1 0x1F DUP2 GT PUSH2 0x72 JUMPI JUMPDEST POP DUP1 PUSH1 0x43 PUSH1 0x21 PUSH1 0xF8 SHL SWAP3 SSTORE DUP1 PUSH1 0x0 MSTORE PUSH1 0x20 PUSH1 0x0 KECCAK256 PUSH32 0x54686973206D6574686F642072657665727465642E20536F20617765736F6D65 DUP2 SSTORE ADD SSTORE PUSH2 0x26F SWAP1 DUP2 PUSH2 0xC7 DUP3 CODECOPY RETURN JUMPDEST DUP2 PUSH1 0x0 MSTORE PUSH1 0x2 PUSH1 0x1F PUSH1 0x20 PUSH1 0x0 KECCAK256 SWAP3 ADD PUSH1 0x5 SHR DUP3 ADD SWAP2 ADD JUMPDEST DUP2 DUP2 LT PUSH2 0x96 JUMPI POP PUSH2 0x2D JUMP JUMPDEST PUSH1 0x0 DUP2 SSTORE DUP3 ADD PUSH2 0x89 JUMP JUMPDEST PUSH4 0x4E487B71 PUSH1 0xE0 SHL PUSH1 0x0 MSTORE PUSH1 0x22 PUSH1 0x4 MSTORE PUSH1 0x24 PUSH1 0x0 REVERT JUMPDEST SWAP1 PUSH1 0x7F AND SWAP1 PUSH2 0x1B JUMP JUMPDEST PUSH1 0x0 DUP1 REVERT INVALID PUSH1 0x80 PUSH1 0x40 SWAP1 DUP1 DUP3 MSTORE PUSH1 0x4 CALLDATASIZE LT ISZERO PUSH2 0x15 JUMPI PUSH1 0x0 DUP1 REVERT JUMPDEST PUSH1 0x0 SWAP2 DUP3 CALLDATALOAD PUSH1 0xE0 SHR SWAP2 DUP3 PUSH4 0x6661ABD EQ PUSH2 0x149 JUMPI POP DUP2 PUSH4 0x16B2DA82 EQ PUSH2 0x110 JUMPI DUP2 PUSH4 0xD58F6434 EQ PUSH2 0x6C JUMPI POP PUSH4 0xFA2880CA EQ PUSH2 0x50 JUMPI PUSH1 0x0 DUP1 REVERT JUMPDEST CALLVALUE PUSH2 0x69 JUMPI PUSH1 0x20 CALLDATASIZE PUSH1 0x3 NOT ADD SLT PUSH2 0x69 JUMPI PUSH1 0x4 CALLDATALOAD DUP2 SSTORE DUP1 RETURN JUMPDEST DUP1 REVERT JUMPDEST SWAP1 POP CALLVALUE PUSH2 0x10C JUMPI DUP2 PUSH1 0x3 NOT CALLDATASIZE ADD SLT PUSH2 0x10C JUMPI DUP1 MLOAD PUSH1 0x1F NOT SWAP1 DUP2 PUSH1 0x1F DUP3 PUSH2 0x91 DUP2 PUSH2 0x163 JUMP JUMPDEST SUB ADD AND DUP2 ADD SWAP4 DUP2 DUP6 LT PUSH8 0xFFFFFFFFFFFFFFFF DUP7 GT OR PUSH2 0xF8 JUMPI SWAP2 DUP5 SWAP2 SWAP3 DUP3 DUP6 MSTORE PUSH1 0x20 SWAP1 DUP2 DUP5 MSTORE DUP5 MLOAD SWAP2 DUP3 DUP2 DUP7 ADD MSTORE DUP2 SWAP6 JUMPDEST DUP4 DUP8 LT PUSH2 0xE0 JUMPI POP POP DUP4 SWAP5 POP DUP6 DUP3 PUSH1 0x1F SWAP5 SWAP6 ADD ADD MSTORE ADD AND DUP2 ADD SUB ADD SWAP1 RETURN JUMPDEST DUP7 DUP2 ADD DUP3 ADD MLOAD DUP10 DUP9 ADD DUP10 ADD MSTORE SWAP6 DUP2 ADD SWAP6 DUP9 SWAP6 POP PUSH2 0xC2 JUMP JUMPDEST PUSH4 0x4E487B71 PUSH1 0xE0 SHL DUP2 MSTORE PUSH1 0x41 PUSH1 0x4 MSTORE PUSH1 0x24 SWAP1 REVERT JUMPDEST POP DUP1 REVERT JUMPDEST DUP3 CALLVALUE PUSH2 0x69 JUMPI PUSH1 0x20 CALLDATASIZE PUSH1 0x3 NOT ADD SLT PUSH2 0x69 JUMPI PUSH1 0x4 CALLDATALOAD SWAP1 SSTORE MLOAD PUSH3 0x461BCD PUSH1 0xE5 SHL DUP2 MSTORE PUSH1 0x20 PUSH1 0x4 DUP3 ADD MSTORE DUP1 PUSH2 0x145 PUSH1 0x24 DUP3 ADD PUSH2 0x163 JUMP JUMPDEST SUB SWAP1 REVERT JUMPDEST DUP4 SWAP1 CALLVALUE PUSH2 0x10C JUMPI DUP2 PUSH1 0x3 NOT CALLDATASIZE ADD SLT PUSH2 0x10C JUMPI PUSH1 0x20 SWAP2 SLOAD DUP2 MSTORE RETURN JUMPDEST PUSH1 0x1 DUP1 SLOAD PUSH1 0x0 SWAP4 SWAP3 DUP2 DUP4 AND SWAP3 DUP3 DUP2 SHR SWAP3 DUP5 ISZERO PUSH2 0x22F JUMPI JUMPDEST PUSH1 0x20 SWAP5 DUP6 DUP6 LT DUP2 EQ PUSH2 0x219 JUMPI DUP5 DUP5 MSTORE SWAP1 DUP2 ISZERO PUSH2 0x1FC JUMPI POP PUSH1 0x1 EQ PUSH2 0x19F JUMPI JUMPDEST POP POP POP POP JUMP JUMPDEST DUP1 SWAP4 SWAP5 SWAP6 POP PUSH1 0x0 SWAP3 SWAP2 SWAP3 MSTORE PUSH32 0xB10E2D527612073B26EECDFD717E6A320CF44B4AFAC2B0732D9FCBE2B7FA0CF6 SWAP3 DUP5 PUSH1 0x0 SWAP5 JUMPDEST DUP4 DUP7 LT PUSH2 0x1E8 JUMPI POP POP POP POP ADD ADD SWAP1 CODESIZE DUP1 DUP1 DUP1 PUSH2 0x199 JUMP JUMPDEST DUP1 SLOAD DUP6 DUP8 ADD DUP4 ADD MSTORE SWAP5 ADD SWAP4 DUP6 SWAP1 DUP3 ADD PUSH2 0x1D1 JUMP JUMPDEST PUSH1 0xFF NOT AND DUP6 DUP5 ADD MSTORE POP POP SWAP1 ISZERO ISZERO PUSH1 0x5 SHL ADD ADD SWAP2 POP CODESIZE DUP1 DUP1 DUP1 PUSH2 0x199 JUMP JUMPDEST PUSH4 0x4E487B71 PUSH1 0xE0 SHL PUSH1 0x0 MSTORE PUSH1 0x22 PUSH1 0x4 MSTORE PUSH1 0x24 PUSH1 0x0 REVERT JUMPDEST SWAP3 PUSH1 0x7F AND SWAP3 PUSH2 0x17A JUMP INVALID LOG2 PUSH5 0x6970667358 0x22 SLT KECCAK256 0xE3 0x5C EQ SIGNEXTEND 0xBB 0xD3 0x4C PUSH30 0x77B95B4B5EDE84ECCF16DDDE224A8C895FF23A5205A85B2664736F6C6343 STOP ADDMOD SLT STOP CALLER "},"gasEstimates":{"creation":{"codeDepositCost":"124600","executionCost":"infinite","totalCost":"infinite"},"external":{"count()":"2265","revertStr()":"infinite","shouldNotRevert(uint256)":"22320","shouldRevert(uint256)":"infinite"}},"methodIdentifiers":{"count()":"06661abd","revertStr()":"d58f6434","shouldNotRevert(uint256)":"fa2880ca","shouldRevert(uint256)":"16b2da82"}},"storageLayout":{"storage":[{"astId":17,"contract":"contracts/ContractThatReverts.sol:ContractThatReverts","label":"count","offset":0,"slot":"0","type":"t_uint256"},{"astId":20,"contract":"contracts/ContractThatReverts.sol:ContractThatReverts","label":"revertStr","offset":0,"slot":"1","type":"t_string_storage"}],"types":{"t_string_storage":{"encoding":"bytes","label":"string","numberOfBytes":"32"},"t_uint256":{"encoding":"inplace","label":"uint256","numberOfBytes":"32"}}},"userdoc":{"kind":"user","methods":{},"version":1}}}}