{"contracts/MultisigMock.sol":{"MultisigMock":{"abi":[{"inputs":[{"internalType":"uint256","name":"_numConfirmationsRequired","type":"uint256"}],"stateMutability":"nonpayable","type":"constructor"},{"inputs":[{"internalType":"address","name":"_owner","type":"address"}],"name":"addOwner","outputs":[],"stateMutability":"nonpayable","type":"function"},{"inputs":[{"internalType":"uint256","name":"_txIndex","type":"uint256"}],"name":"confirmTransaction","outputs":[],"stateMutability":"nonpayable","type":"function"},{"inputs":[{"internalType":"uint256","name":"_txIndex","type":"uint256"}],"name":"executeTransaction","outputs":[],"stateMutability":"nonpayable","type":"function"},{"inputs":[],"name":"getOwners","outputs":[{"internalType":"address[]","name":"","type":"address[]"}],"stateMutability":"view","type":"function"},{"inputs":[{"internalType":"uint256","name":"_txIndex","type":"uint256"}],"name":"getTransaction","outputs":[{"internalType":"address","name":"to","type":"address"},{"internalType":"uint256","name":"value","type":"uint256"},{"internalType":"bytes","name":"data","type":"bytes"},{"internalType":"bool","name":"executed","type":"bool"},{"internalType":"uint256","name":"numConfirmations","type":"uint256"}],"stateMutability":"view","type":"function"},{"inputs":[],"name":"getTransactionCount","outputs":[{"internalType":"uint256","name":"","type":"uint256"}],"stateMutability":"view","type":"function"},{"inputs":[{"internalType":"uint256","name":"","type":"uint256"},{"internalType":"address","name":"","type":"address"}],"name":"isConfirmed","outputs":[{"internalType":"bool","name":"","type":"bool"}],"stateMutability":"view","type":"function"},{"inputs":[{"internalType":"address","name":"","type":"address"}],"name":"isOwner","outputs":[{"internalType":"bool","name":"","type":"bool"}],"stateMutability":"view","type":"function"},{"inputs":[],"name":"numConfirmationsRequired","outputs":[{"internalType":"uint256","name":"","type":"uint256"}],"stateMutability":"view","type":"function"},{"inputs":[{"internalType":"uint256","name":"","type":"uint256"}],"name":"owners","outputs":[{"internalType":"address","name":"","type":"address"}],"stateMutability":"view","type":"function"},{"inputs":[{"internalType":"address","name":"_to","type":"address"},{"internalType":"uint256","name":"_value","type":"uint256"},{"internalType":"bytes","name":"_data","type":"bytes"}],"name":"submitTransaction","outputs":[],"stateMutability":"nonpayable","type":"function"},{"inputs":[{"internalType":"uint256","name":"","type":"uint256"}],"name":"transactions","outputs":[{"internalType":"address","name":"to","type":"address"},{"internalType":"uint256","name":"value","type":"uint256"},{"internalType":"bytes","name":"data","type":"bytes"},{"internalType":"bool","name":"executed","type":"bool"},{"internalType":"uint256","name":"numConfirmations","type":"uint256"}],"stateMutability":"view","type":"function"}],"devdoc":{"kind":"dev","methods":{},"version":1},"evm":{"bytecode":{"linkReferences":{},"object":"6080346100cc57601f610ed738819003918201601f19168301916001600160401b038311848410176100d1578084926020946040528339810103126100cc57516000338152600160205260408120600160ff19825416179055805490680100000000000000008210156100b857600182018082558210156100a457808052602090200180546001600160a01b03191633179055600255604051610def90816100e88239f35b634e487b7160e01b81526032600452602490fd5b634e487b7160e01b81526041600452602490fd5b600080fd5b634e487b7160e01b600052604160045260246000fdfe6080604052600436101561001257600080fd5b60003560e01c8063025e7c27146100d75780632e7700f0146100d25780632f54bf6e146100cd57806333ea3dc8146100c85780637065cb48146100c357806380f59a65146100be5780639ace38c2146100b9578063a0e67e2b146100b4578063c01a8c84146100af578063c6427474146100aa578063d0549b85146100a55763ee22610b146100a057600080fd5b610821565b610803565b610780565b610634565b61056c565b610509565b61033b565b61029f565b610245565b610184565b610150565b6100f2565b634e487b7160e01b600052603260045260246000fd5b3461014b57602036600319011261014b5760043560005481101561014b576001600160a01b03602091600080527f290decd9548b62a8d60345a988386fc84ba6bc95484008f6362f93160ef3e563015416604051908152f35b600080fd5b3461014b57600036600319011261014b576020600454604051908152f35b600435906001600160a01b038216820361014b57565b3461014b57602036600319011261014b576001600160a01b036101a561016e565b166000526001602052602060ff604060002054166040519015158152f35b60005b8381106101d65750506000910152565b81810151838201526020016101c6565b906020916101ff815180928185528580860191016101c3565b601f01601f1916010190565b91926080936001600160a01b036102399398979698168452602084015260a0604084015260a08301906101e6565b94151560608201520152565b3461014b57602036600319011261014b5761026160043561039a565b506001600160a01b0381541661029b60018301549260ff60038201541661028f600260048401549301610463565b6040519586958661020b565b0390f35b3461014b57602036600319011261014b576001600160a01b036102c061016e565b16600090808252600160205260408220600160ff198254161790558154680100000000000000008110156103365760018101808455811015610331577f290decd9548b62a8d60345a988386fc84ba6bc95484008f6362f93160ef3e56301906001600160a01b031982541617905580f35b6100dc565b61040f565b3461014b57604036600319011261014b576024356001600160a01b038116810361014b5760ff61038e602092600435600052600384526040600020906001600160a01b0316600052602052604060002090565b54166040519015158152f35b600454811015610331576005906004600052027f8a35acfbc15ff81a39ae7d344fd709f28e8600b4aa8c65c6b64bfe7fe36bd19b0190600090565b90600182811c92168015610405575b60208310146103ef57565b634e487b7160e01b600052602260045260246000fd5b91607f16916103e4565b634e487b7160e01b600052604160045260246000fd5b60a0810190811067ffffffffffffffff82111761033657604052565b90601f8019910116810190811067ffffffffffffffff82111761033657604052565b9060405191826000825492610477846103d5565b9081845260019485811690816000146104e657506001146104a3575b50506104a192500383610441565b565b9093915060005260209081600020936000915b8183106104ce5750506104a193508201013880610493565b855488840185015294850194879450918301916104b6565b9150506104a194506020925060ff191682840152151560051b8201013880610493565b3461014b57602036600319011261014b5760043560045481101561014b576105309061039a565b506001600160a01b0381541661029b60018301549261055160028201610463565b90600460ff600383015416910154916040519586958661020b565b3461014b57600080600319360112610631576040518091805490818352602080930180928280527f290decd9548b62a8d60345a988386fc84ba6bc95484008f6362f93160ef3e56390835b81811061061457505050846105cd910385610441565b60405193838594850191818652518092526040850193925b8281106105f457505050500390f35b83516001600160a01b0316855286955093810193928101926001016105e5565b82546001600160a01b0316845292860192600192830192016105b7565b80fd5b3461014b57602036600319011261014b57600435600090338252600160205261066360ff604084205416610924565b6106706004548210610b78565b61068a60ff60036106808461039a565b5001541615610bc4565b808252600360205260ff6106b43360408520906001600160a01b0316600052602052604060002090565b541661071f5760046106c58261039a565b50018054906001820180921161070b5755815260036020526106fd3360408320906001600160a01b0316600052602052604060002090565b805460ff1916600117905580f35b634e487b7160e01b84526011600452602484fd5b60405162461bcd60e51b815260206004820152601460248201527f747820616c726561647920636f6e6669726d65640000000000000000000000006044820152606490fd5b67ffffffffffffffff811161033657601f01601f191660200190565b3461014b57606036600319011261014b5761079961016e565b6044359067ffffffffffffffff821161014b573660238301121561014b578160040135906107c682610764565b916107d46040519384610441565b808352366024828601011161014b5760208160009260246108019701838701378401015260243590610970565b005b3461014b57600036600319011261014b576020600254604051908152f35b3461014b57602036600319011261014b57600435610875600091338352600160205261085360ff604085205416610924565b6108606004548210610b78565b61087060ff60036106808461039a565b61039a565b506004810154600254116108df57818161089a6003839401600160ff19825416179055565b60026108ad82546001600160a01b031690565b916001810154906108c46040518094819301610c10565b03925af16108d0610c93565b90156108da575080f35b610cd7565b60405162461bcd60e51b815260206004820152601160248201527f63616e6e6f7420657865637574652074780000000000000000000000000000006044820152606490fd5b1561092b57565b60405162461bcd60e51b815260206004820152600960248201527f6e6f74206f776e657200000000000000000000000000000000000000000000006044820152606490fd5b600091338352600193602085815261098e60ff604087205416610924565b6040519561099b87610425565b6001600160a01b0380951687528187019384526040870192835260608701938685526080880195878752600454680100000000000000008110156103365780846109e8920160045561039a565b999099610b105751166001600160a01b031989541617885551818801556002870192519182519267ffffffffffffffff841161033657610a3284610a2c87546103d5565b87610b24565b81601f8511600114610a9457509280610a6e95938193610a83989660049b94610a89575b50501b916000199060031b1c19161790555b51151590565b600385019060ff801983541691151516179055565b51910155565b015192503880610a56565b601f98939596979819851690610aaf88600052602060002090565b94905b828210610af957505092610a6e9592859260049a9996610a83999610610ae0575b505050811b019055610a68565b015160001960f88460031b161c19169055388080610ad3565b808886978294978701518155019601940190610ab2565b634e487b7160e01b89526004899052602489fd5b90601f8111610b3257505050565b600091825260208220906020601f850160051c83019410610b6e575b601f0160051c01915b828110610b6357505050565b818155600101610b57565b9092508290610b4e565b15610b7f57565b60405162461bcd60e51b815260206004820152601160248201527f747820646f6573206e6f742065786973740000000000000000000000000000006044820152606490fd5b15610bcb57565b60405162461bcd60e51b815260206004820152601360248201527f747820616c7265616479206578656375746564000000000000000000000000006044820152606490fd5b600092918154610c1f816103d5565b92600191808316908115610c785750600114610c3c575b50505050565b90919293945060005260209081600020906000915b858310610c675750505050019038808080610c36565b805485840152918301918101610c51565b60ff1916845250505081151590910201915038808080610c36565b3d15610cbe573d90610ca482610764565b91610cb26040519384610441565b82523d6000602084013e565b606090565b906020610cd49281815201906101e6565b90565b6044815110610d745760048101518101906020816024840193031261014b5760248101519067ffffffffffffffff821161014b5701908060438301121561014b57602482015191610d2783610764565b91610d356040519384610441565b8383526044848301011161014b57610d7092610d589160446020850191016101c3565b60405162461bcd60e51b815291829160048301610cc3565b0390fd5b60405162461bcd60e51b815260206004820152600e60248201527f526561736f6e20756e6b6e6f776e0000000000000000000000000000000000006044820152606490fdfea264697066735822122059eac2a71c4029ad17cbabdeb3d8438bbb7535de787d035098dd503ad20b11f864736f6c63430008120033","opcodes":"PUSH1 0x80 CALLVALUE PUSH2 0xCC JUMPI PUSH1 0x1F PUSH2 0xED7 CODESIZE DUP2 SWAP1 SUB SWAP2 DUP3 ADD PUSH1 0x1F NOT AND DUP4 ADD SWAP2 PUSH1 0x1 PUSH1 0x1 PUSH1 0x40 SHL SUB DUP4 GT DUP5 DUP5 LT OR PUSH2 0xD1 JUMPI DUP1 DUP5 SWAP3 PUSH1 0x20 SWAP5 PUSH1 0x40 MSTORE DUP4 CODECOPY DUP2 ADD SUB SLT PUSH2 0xCC JUMPI MLOAD PUSH1 0x0 CALLER DUP2 MSTORE PUSH1 0x1 PUSH1 0x20 MSTORE PUSH1 0x40 DUP2 KECCAK256 PUSH1 0x1 PUSH1 0xFF NOT DUP3 SLOAD AND OR SWAP1 SSTORE DUP1 SLOAD SWAP1 PUSH9 0x10000000000000000 DUP3 LT ISZERO PUSH2 0xB8 JUMPI PUSH1 0x1 DUP3 ADD DUP1 DUP3 SSTORE DUP3 LT ISZERO PUSH2 0xA4 JUMPI DUP1 DUP1 MSTORE PUSH1 0x20 SWAP1 KECCAK256 ADD DUP1 SLOAD PUSH1 0x1 PUSH1 0x1 PUSH1 0xA0 SHL SUB NOT AND CALLER OR SWAP1 SSTORE PUSH1 0x2 SSTORE PUSH1 0x40 MLOAD PUSH2 0xDEF SWAP1 DUP2 PUSH2 0xE8 DUP3 CODECOPY RETURN JUMPDEST PUSH4 0x4E487B71 PUSH1 0xE0 SHL DUP2 MSTORE PUSH1 0x32 PUSH1 0x4 MSTORE PUSH1 0x24 SWAP1 REVERT JUMPDEST PUSH4 0x4E487B71 PUSH1 0xE0 SHL DUP2 MSTORE PUSH1 0x41 PUSH1 0x4 MSTORE PUSH1 0x24 SWAP1 REVERT JUMPDEST PUSH1 0x0 DUP1 REVERT JUMPDEST PUSH4 0x4E487B71 PUSH1 0xE0 SHL PUSH1 0x0 MSTORE PUSH1 0x41 PUSH1 0x4 MSTORE PUSH1 0x24 PUSH1 0x0 REVERT INVALID PUSH1 0x80 PUSH1 0x40 MSTORE PUSH1 0x4 CALLDATASIZE LT ISZERO PUSH2 0x12 JUMPI PUSH1 0x0 DUP1 REVERT JUMPDEST PUSH1 0x0 CALLDATALOAD PUSH1 0xE0 SHR DUP1 PUSH4 0x25E7C27 EQ PUSH2 0xD7 JUMPI DUP1 PUSH4 0x2E7700F0 EQ PUSH2 0xD2 JUMPI DUP1 PUSH4 0x2F54BF6E EQ PUSH2 0xCD JUMPI DUP1 PUSH4 0x33EA3DC8 EQ PUSH2 0xC8 JUMPI DUP1 PUSH4 0x7065CB48 EQ PUSH2 0xC3 JUMPI DUP1 PUSH4 0x80F59A65 EQ PUSH2 0xBE JUMPI DUP1 PUSH4 0x9ACE38C2 EQ PUSH2 0xB9 JUMPI DUP1 PUSH4 0xA0E67E2B EQ PUSH2 0xB4 JUMPI DUP1 PUSH4 0xC01A8C84 EQ PUSH2 0xAF JUMPI DUP1 PUSH4 0xC6427474 EQ PUSH2 0xAA JUMPI DUP1 PUSH4 0xD0549B85 EQ PUSH2 0xA5 JUMPI PUSH4 0xEE22610B EQ PUSH2 0xA0 JUMPI PUSH1 0x0 DUP1 REVERT JUMPDEST PUSH2 0x821 JUMP JUMPDEST PUSH2 0x803 JUMP JUMPDEST PUSH2 0x780 JUMP JUMPDEST PUSH2 0x634 JUMP JUMPDEST PUSH2 0x56C JUMP JUMPDEST PUSH2 0x509 JUMP JUMPDEST PUSH2 0x33B JUMP JUMPDEST PUSH2 0x29F JUMP JUMPDEST PUSH2 0x245 JUMP JUMPDEST PUSH2 0x184 JUMP JUMPDEST PUSH2 0x150 JUMP JUMPDEST PUSH2 0xF2 JUMP JUMPDEST PUSH4 0x4E487B71 PUSH1 0xE0 SHL PUSH1 0x0 MSTORE PUSH1 0x32 PUSH1 0x4 MSTORE PUSH1 0x24 PUSH1 0x0 REVERT JUMPDEST CALLVALUE PUSH2 0x14B JUMPI PUSH1 0x20 CALLDATASIZE PUSH1 0x3 NOT ADD SLT PUSH2 0x14B JUMPI PUSH1 0x4 CALLDATALOAD PUSH1 0x0 SLOAD DUP2 LT ISZERO PUSH2 0x14B JUMPI PUSH1 0x1 PUSH1 0x1 PUSH1 0xA0 SHL SUB PUSH1 0x20 SWAP2 PUSH1 0x0 DUP1 MSTORE PUSH32 0x290DECD9548B62A8D60345A988386FC84BA6BC95484008F6362F93160EF3E563 ADD SLOAD AND PUSH1 0x40 MLOAD SWAP1 DUP2 MSTORE RETURN JUMPDEST PUSH1 0x0 DUP1 REVERT JUMPDEST CALLVALUE PUSH2 0x14B JUMPI PUSH1 0x0 CALLDATASIZE PUSH1 0x3 NOT ADD SLT PUSH2 0x14B JUMPI PUSH1 0x20 PUSH1 0x4 SLOAD PUSH1 0x40 MLOAD SWAP1 DUP2 MSTORE RETURN JUMPDEST PUSH1 0x4 CALLDATALOAD SWAP1 PUSH1 0x1 PUSH1 0x1 PUSH1 0xA0 SHL SUB DUP3 AND DUP3 SUB PUSH2 0x14B JUMPI JUMP JUMPDEST CALLVALUE PUSH2 0x14B JUMPI PUSH1 0x20 CALLDATASIZE PUSH1 0x3 NOT ADD SLT PUSH2 0x14B JUMPI PUSH1 0x1 PUSH1 0x1 PUSH1 0xA0 SHL SUB PUSH2 0x1A5 PUSH2 0x16E JUMP JUMPDEST AND PUSH1 0x0 MSTORE PUSH1 0x1 PUSH1 0x20 MSTORE PUSH1 0x20 PUSH1 0xFF PUSH1 0x40 PUSH1 0x0 KECCAK256 SLOAD AND PUSH1 0x40 MLOAD SWAP1 ISZERO ISZERO DUP2 MSTORE RETURN JUMPDEST PUSH1 0x0 JUMPDEST DUP4 DUP2 LT PUSH2 0x1D6 JUMPI POP POP PUSH1 0x0 SWAP2 ADD MSTORE JUMP JUMPDEST DUP2 DUP2 ADD MLOAD DUP4 DUP3 ADD MSTORE PUSH1 0x20 ADD PUSH2 0x1C6 JUMP JUMPDEST SWAP1 PUSH1 0x20 SWAP2 PUSH2 0x1FF DUP2 MLOAD DUP1 SWAP3 DUP2 DUP6 MSTORE DUP6 DUP1 DUP7 ADD SWAP2 ADD PUSH2 0x1C3 JUMP JUMPDEST PUSH1 0x1F ADD PUSH1 0x1F NOT AND ADD ADD SWAP1 JUMP JUMPDEST SWAP2 SWAP3 PUSH1 0x80 SWAP4 PUSH1 0x1 PUSH1 0x1 PUSH1 0xA0 SHL SUB PUSH2 0x239 SWAP4 SWAP9 SWAP8 SWAP7 SWAP9 AND DUP5 MSTORE PUSH1 0x20 DUP5 ADD MSTORE PUSH1 0xA0 PUSH1 0x40 DUP5 ADD MSTORE PUSH1 0xA0 DUP4 ADD SWAP1 PUSH2 0x1E6 JUMP JUMPDEST SWAP5 ISZERO ISZERO PUSH1 0x60 DUP3 ADD MSTORE ADD MSTORE JUMP JUMPDEST CALLVALUE PUSH2 0x14B JUMPI PUSH1 0x20 CALLDATASIZE PUSH1 0x3 NOT ADD SLT PUSH2 0x14B JUMPI PUSH2 0x261 PUSH1 0x4 CALLDATALOAD PUSH2 0x39A JUMP JUMPDEST POP PUSH1 0x1 PUSH1 0x1 PUSH1 0xA0 SHL SUB DUP2 SLOAD AND PUSH2 0x29B PUSH1 0x1 DUP4 ADD SLOAD SWAP3 PUSH1 0xFF PUSH1 0x3 DUP3 ADD SLOAD AND PUSH2 0x28F PUSH1 0x2 PUSH1 0x4 DUP5 ADD SLOAD SWAP4 ADD PUSH2 0x463 JUMP JUMPDEST PUSH1 0x40 MLOAD SWAP6 DUP7 SWAP6 DUP7 PUSH2 0x20B JUMP JUMPDEST SUB SWAP1 RETURN JUMPDEST CALLVALUE PUSH2 0x14B JUMPI PUSH1 0x20 CALLDATASIZE PUSH1 0x3 NOT ADD SLT PUSH2 0x14B JUMPI PUSH1 0x1 PUSH1 0x1 PUSH1 0xA0 SHL SUB PUSH2 0x2C0 PUSH2 0x16E JUMP JUMPDEST AND PUSH1 0x0 SWAP1 DUP1 DUP3 MSTORE PUSH1 0x1 PUSH1 0x20 MSTORE PUSH1 0x40 DUP3 KECCAK256 PUSH1 0x1 PUSH1 0xFF NOT DUP3 SLOAD AND OR SWAP1 SSTORE DUP2 SLOAD PUSH9 0x10000000000000000 DUP2 LT ISZERO PUSH2 0x336 JUMPI PUSH1 0x1 DUP2 ADD DUP1 DUP5 SSTORE DUP2 LT ISZERO PUSH2 0x331 JUMPI PUSH32 0x290DECD9548B62A8D60345A988386FC84BA6BC95484008F6362F93160EF3E563 ADD SWAP1 PUSH1 0x1 PUSH1 0x1 PUSH1 0xA0 SHL SUB NOT DUP3 SLOAD AND OR SWAP1 SSTORE DUP1 RETURN JUMPDEST PUSH2 0xDC JUMP JUMPDEST PUSH2 0x40F JUMP JUMPDEST CALLVALUE PUSH2 0x14B JUMPI PUSH1 0x40 CALLDATASIZE PUSH1 0x3 NOT ADD SLT PUSH2 0x14B JUMPI PUSH1 0x24 CALLDATALOAD PUSH1 0x1 PUSH1 0x1 PUSH1 0xA0 SHL SUB DUP2 AND DUP2 SUB PUSH2 0x14B JUMPI PUSH1 0xFF PUSH2 0x38E PUSH1 0x20 SWAP3 PUSH1 0x4 CALLDATALOAD PUSH1 0x0 MSTORE PUSH1 0x3 DUP5 MSTORE PUSH1 0x40 PUSH1 0x0 KECCAK256 SWAP1 PUSH1 0x1 PUSH1 0x1 PUSH1 0xA0 SHL SUB AND PUSH1 0x0 MSTORE PUSH1 0x20 MSTORE PUSH1 0x40 PUSH1 0x0 KECCAK256 SWAP1 JUMP JUMPDEST SLOAD AND PUSH1 0x40 MLOAD SWAP1 ISZERO ISZERO DUP2 MSTORE RETURN JUMPDEST PUSH1 0x4 SLOAD DUP2 LT ISZERO PUSH2 0x331 JUMPI PUSH1 0x5 SWAP1 PUSH1 0x4 PUSH1 0x0 MSTORE MUL PUSH32 0x8A35ACFBC15FF81A39AE7D344FD709F28E8600B4AA8C65C6B64BFE7FE36BD19B ADD SWAP1 PUSH1 0x0 SWAP1 JUMP JUMPDEST SWAP1 PUSH1 0x1 DUP3 DUP2 SHR SWAP3 AND DUP1 ISZERO PUSH2 0x405 JUMPI JUMPDEST PUSH1 0x20 DUP4 LT EQ PUSH2 0x3EF JUMPI JUMP JUMPDEST PUSH4 0x4E487B71 PUSH1 0xE0 SHL PUSH1 0x0 MSTORE PUSH1 0x22 PUSH1 0x4 MSTORE PUSH1 0x24 PUSH1 0x0 REVERT JUMPDEST SWAP2 PUSH1 0x7F AND SWAP2 PUSH2 0x3E4 JUMP JUMPDEST PUSH4 0x4E487B71 PUSH1 0xE0 SHL PUSH1 0x0 MSTORE PUSH1 0x41 PUSH1 0x4 MSTORE PUSH1 0x24 PUSH1 0x0 REVERT JUMPDEST PUSH1 0xA0 DUP2 ADD SWAP1 DUP2 LT PUSH8 0xFFFFFFFFFFFFFFFF DUP3 GT OR PUSH2 0x336 JUMPI PUSH1 0x40 MSTORE JUMP JUMPDEST SWAP1 PUSH1 0x1F DUP1 NOT SWAP2 ADD AND DUP2 ADD SWAP1 DUP2 LT PUSH8 0xFFFFFFFFFFFFFFFF DUP3 GT OR PUSH2 0x336 JUMPI PUSH1 0x40 MSTORE JUMP JUMPDEST SWAP1 PUSH1 0x40 MLOAD SWAP2 DUP3 PUSH1 0x0 DUP3 SLOAD SWAP3 PUSH2 0x477 DUP5 PUSH2 0x3D5 JUMP JUMPDEST SWAP1 DUP2 DUP5 MSTORE PUSH1 0x1 SWAP5 DUP6 DUP2 AND SWAP1 DUP2 PUSH1 0x0 EQ PUSH2 0x4E6 JUMPI POP PUSH1 0x1 EQ PUSH2 0x4A3 JUMPI JUMPDEST POP POP PUSH2 0x4A1 SWAP3 POP SUB DUP4 PUSH2 0x441 JUMP JUMPDEST JUMP JUMPDEST SWAP1 SWAP4 SWAP2 POP PUSH1 0x0 MSTORE PUSH1 0x20 SWAP1 DUP2 PUSH1 0x0 KECCAK256 SWAP4 PUSH1 0x0 SWAP2 JUMPDEST DUP2 DUP4 LT PUSH2 0x4CE JUMPI POP POP PUSH2 0x4A1 SWAP4 POP DUP3 ADD ADD CODESIZE DUP1 PUSH2 0x493 JUMP JUMPDEST DUP6 SLOAD DUP9 DUP5 ADD DUP6 ADD MSTORE SWAP5 DUP6 ADD SWAP5 DUP8 SWAP5 POP SWAP2 DUP4 ADD SWAP2 PUSH2 0x4B6 JUMP JUMPDEST SWAP2 POP POP PUSH2 0x4A1 SWAP5 POP PUSH1 0x20 SWAP3 POP PUSH1 0xFF NOT AND DUP3 DUP5 ADD MSTORE ISZERO ISZERO PUSH1 0x5 SHL DUP3 ADD ADD CODESIZE DUP1 PUSH2 0x493 JUMP JUMPDEST CALLVALUE PUSH2 0x14B JUMPI PUSH1 0x20 CALLDATASIZE PUSH1 0x3 NOT ADD SLT PUSH2 0x14B JUMPI PUSH1 0x4 CALLDATALOAD PUSH1 0x4 SLOAD DUP2 LT ISZERO PUSH2 0x14B JUMPI PUSH2 0x530 SWAP1 PUSH2 0x39A JUMP JUMPDEST POP PUSH1 0x1 PUSH1 0x1 PUSH1 0xA0 SHL SUB DUP2 SLOAD AND PUSH2 0x29B PUSH1 0x1 DUP4 ADD SLOAD SWAP3 PUSH2 0x551 PUSH1 0x2 DUP3 ADD PUSH2 0x463 JUMP JUMPDEST SWAP1 PUSH1 0x4 PUSH1 0xFF PUSH1 0x3 DUP4 ADD SLOAD AND SWAP2 ADD SLOAD SWAP2 PUSH1 0x40 MLOAD SWAP6 DUP7 SWAP6 DUP7 PUSH2 0x20B JUMP JUMPDEST CALLVALUE PUSH2 0x14B JUMPI PUSH1 0x0 DUP1 PUSH1 0x3 NOT CALLDATASIZE ADD SLT PUSH2 0x631 JUMPI PUSH1 0x40 MLOAD DUP1 SWAP2 DUP1 SLOAD SWAP1 DUP2 DUP4 MSTORE PUSH1 0x20 DUP1 SWAP4 ADD DUP1 SWAP3 DUP3 DUP1 MSTORE PUSH32 0x290DECD9548B62A8D60345A988386FC84BA6BC95484008F6362F93160EF3E563 SWAP1 DUP4 JUMPDEST DUP2 DUP2 LT PUSH2 0x614 JUMPI POP POP POP DUP5 PUSH2 0x5CD SWAP2 SUB DUP6 PUSH2 0x441 JUMP JUMPDEST PUSH1 0x40 MLOAD SWAP4 DUP4 DUP6 SWAP5 DUP6 ADD SWAP2 DUP2 DUP7 MSTORE MLOAD DUP1 SWAP3 MSTORE PUSH1 0x40 DUP6 ADD SWAP4 SWAP3 JUMPDEST DUP3 DUP2 LT PUSH2 0x5F4 JUMPI POP POP POP POP SUB SWAP1 RETURN JUMPDEST DUP4 MLOAD PUSH1 0x1 PUSH1 0x1 PUSH1 0xA0 SHL SUB AND DUP6 MSTORE DUP7 SWAP6 POP SWAP4 DUP2 ADD SWAP4 SWAP3 DUP2 ADD SWAP3 PUSH1 0x1 ADD PUSH2 0x5E5 JUMP JUMPDEST DUP3 SLOAD PUSH1 0x1 PUSH1 0x1 PUSH1 0xA0 SHL SUB AND DUP5 MSTORE SWAP3 DUP7 ADD SWAP3 PUSH1 0x1 SWAP3 DUP4 ADD SWAP3 ADD PUSH2 0x5B7 JUMP JUMPDEST DUP1 REVERT JUMPDEST CALLVALUE PUSH2 0x14B JUMPI PUSH1 0x20 CALLDATASIZE PUSH1 0x3 NOT ADD SLT PUSH2 0x14B JUMPI PUSH1 0x4 CALLDATALOAD PUSH1 0x0 SWAP1 CALLER DUP3 MSTORE PUSH1 0x1 PUSH1 0x20 MSTORE PUSH2 0x663 PUSH1 0xFF PUSH1 0x40 DUP5 KECCAK256 SLOAD AND PUSH2 0x924 JUMP JUMPDEST PUSH2 0x670 PUSH1 0x4 SLOAD DUP3 LT PUSH2 0xB78 JUMP JUMPDEST PUSH2 0x68A PUSH1 0xFF PUSH1 0x3 PUSH2 0x680 DUP5 PUSH2 0x39A JUMP JUMPDEST POP ADD SLOAD AND ISZERO PUSH2 0xBC4 JUMP JUMPDEST DUP1 DUP3 MSTORE PUSH1 0x3 PUSH1 0x20 MSTORE PUSH1 0xFF PUSH2 0x6B4 CALLER PUSH1 0x40 DUP6 KECCAK256 SWAP1 PUSH1 0x1 PUSH1 0x1 PUSH1 0xA0 SHL SUB AND PUSH1 0x0 MSTORE PUSH1 0x20 MSTORE PUSH1 0x40 PUSH1 0x0 KECCAK256 SWAP1 JUMP JUMPDEST SLOAD AND PUSH2 0x71F JUMPI PUSH1 0x4 PUSH2 0x6C5 DUP3 PUSH2 0x39A JUMP JUMPDEST POP ADD DUP1 SLOAD SWAP1 PUSH1 0x1 DUP3 ADD DUP1 SWAP3 GT PUSH2 0x70B JUMPI SSTORE DUP2 MSTORE PUSH1 0x3 PUSH1 0x20 MSTORE PUSH2 0x6FD CALLER PUSH1 0x40 DUP4 KECCAK256 SWAP1 PUSH1 0x1 PUSH1 0x1 PUSH1 0xA0 SHL SUB AND PUSH1 0x0 MSTORE PUSH1 0x20 MSTORE PUSH1 0x40 PUSH1 0x0 KECCAK256 SWAP1 JUMP JUMPDEST DUP1 SLOAD PUSH1 0xFF NOT AND PUSH1 0x1 OR SWAP1 SSTORE DUP1 RETURN JUMPDEST PUSH4 0x4E487B71 PUSH1 0xE0 SHL DUP5 MSTORE PUSH1 0x11 PUSH1 0x4 MSTORE PUSH1 0x24 DUP5 REVERT JUMPDEST PUSH1 0x40 MLOAD PUSH3 0x461BCD PUSH1 0xE5 SHL DUP2 MSTORE PUSH1 0x20 PUSH1 0x4 DUP3 ADD MSTORE PUSH1 0x14 PUSH1 0x24 DUP3 ADD MSTORE PUSH32 0x747820616C726561647920636F6E6669726D6564000000000000000000000000 PUSH1 0x44 DUP3 ADD MSTORE PUSH1 0x64 SWAP1 REVERT JUMPDEST PUSH8 0xFFFFFFFFFFFFFFFF DUP2 GT PUSH2 0x336 JUMPI PUSH1 0x1F ADD PUSH1 0x1F NOT AND PUSH1 0x20 ADD SWAP1 JUMP JUMPDEST CALLVALUE PUSH2 0x14B JUMPI PUSH1 0x60 CALLDATASIZE PUSH1 0x3 NOT ADD SLT PUSH2 0x14B JUMPI PUSH2 0x799 PUSH2 0x16E JUMP JUMPDEST PUSH1 0x44 CALLDATALOAD SWAP1 PUSH8 0xFFFFFFFFFFFFFFFF DUP3 GT PUSH2 0x14B JUMPI CALLDATASIZE PUSH1 0x23 DUP4 ADD SLT ISZERO PUSH2 0x14B JUMPI DUP2 PUSH1 0x4 ADD CALLDATALOAD SWAP1 PUSH2 0x7C6 DUP3 PUSH2 0x764 JUMP JUMPDEST SWAP2 PUSH2 0x7D4 PUSH1 0x40 MLOAD SWAP4 DUP5 PUSH2 0x441 JUMP JUMPDEST DUP1 DUP4 MSTORE CALLDATASIZE PUSH1 0x24 DUP3 DUP7 ADD ADD GT PUSH2 0x14B JUMPI PUSH1 0x20 DUP2 PUSH1 0x0 SWAP3 PUSH1 0x24 PUSH2 0x801 SWAP8 ADD DUP4 DUP8 ADD CALLDATACOPY DUP5 ADD ADD MSTORE PUSH1 0x24 CALLDATALOAD SWAP1 PUSH2 0x970 JUMP JUMPDEST STOP JUMPDEST CALLVALUE PUSH2 0x14B JUMPI PUSH1 0x0 CALLDATASIZE PUSH1 0x3 NOT ADD SLT PUSH2 0x14B JUMPI PUSH1 0x20 PUSH1 0x2 SLOAD PUSH1 0x40 MLOAD SWAP1 DUP2 MSTORE RETURN JUMPDEST CALLVALUE PUSH2 0x14B JUMPI PUSH1 0x20 CALLDATASIZE PUSH1 0x3 NOT ADD SLT PUSH2 0x14B JUMPI PUSH1 0x4 CALLDATALOAD PUSH2 0x875 PUSH1 0x0 SWAP2 CALLER DUP4 MSTORE PUSH1 0x1 PUSH1 0x20 MSTORE PUSH2 0x853 PUSH1 0xFF PUSH1 0x40 DUP6 KECCAK256 SLOAD AND PUSH2 0x924 JUMP JUMPDEST PUSH2 0x860 PUSH1 0x4 SLOAD DUP3 LT PUSH2 0xB78 JUMP JUMPDEST PUSH2 0x870 PUSH1 0xFF PUSH1 0x3 PUSH2 0x680 DUP5 PUSH2 0x39A JUMP JUMPDEST PUSH2 0x39A JUMP JUMPDEST POP PUSH1 0x4 DUP2 ADD SLOAD PUSH1 0x2 SLOAD GT PUSH2 0x8DF JUMPI DUP2 DUP2 PUSH2 0x89A PUSH1 0x3 DUP4 SWAP5 ADD PUSH1 0x1 PUSH1 0xFF NOT DUP3 SLOAD AND OR SWAP1 SSTORE JUMP JUMPDEST PUSH1 0x2 PUSH2 0x8AD DUP3 SLOAD PUSH1 0x1 PUSH1 0x1 PUSH1 0xA0 SHL SUB AND SWAP1 JUMP JUMPDEST SWAP2 PUSH1 0x1 DUP2 ADD SLOAD SWAP1 PUSH2 0x8C4 PUSH1 0x40 MLOAD DUP1 SWAP5 DUP2 SWAP4 ADD PUSH2 0xC10 JUMP JUMPDEST SUB SWAP3 GAS CALL PUSH2 0x8D0 PUSH2 0xC93 JUMP JUMPDEST SWAP1 ISZERO PUSH2 0x8DA JUMPI POP DUP1 RETURN JUMPDEST PUSH2 0xCD7 JUMP JUMPDEST PUSH1 0x40 MLOAD PUSH3 0x461BCD PUSH1 0xE5 SHL DUP2 MSTORE PUSH1 0x20 PUSH1 0x4 DUP3 ADD MSTORE PUSH1 0x11 PUSH1 0x24 DUP3 ADD MSTORE PUSH32 0x63616E6E6F742065786563757465207478000000000000000000000000000000 PUSH1 0x44 DUP3 ADD MSTORE PUSH1 0x64 SWAP1 REVERT JUMPDEST ISZERO PUSH2 0x92B JUMPI JUMP JUMPDEST PUSH1 0x40 MLOAD PUSH3 0x461BCD PUSH1 0xE5 SHL DUP2 MSTORE PUSH1 0x20 PUSH1 0x4 DUP3 ADD MSTORE PUSH1 0x9 PUSH1 0x24 DUP3 ADD MSTORE PUSH32 0x6E6F74206F776E65720000000000000000000000000000000000000000000000 PUSH1 0x44 DUP3 ADD MSTORE PUSH1 0x64 SWAP1 REVERT JUMPDEST PUSH1 0x0 SWAP2 CALLER DUP4 MSTORE PUSH1 0x1 SWAP4 PUSH1 0x20 DUP6 DUP2 MSTORE PUSH2 0x98E PUSH1 0xFF PUSH1 0x40 DUP8 KECCAK256 SLOAD AND PUSH2 0x924 JUMP JUMPDEST PUSH1 0x40 MLOAD SWAP6 PUSH2 0x99B DUP8 PUSH2 0x425 JUMP JUMPDEST PUSH1 0x1 PUSH1 0x1 PUSH1 0xA0 SHL SUB DUP1 SWAP6 AND DUP8 MSTORE DUP2 DUP8 ADD SWAP4 DUP5 MSTORE PUSH1 0x40 DUP8 ADD SWAP3 DUP4 MSTORE PUSH1 0x60 DUP8 ADD SWAP4 DUP7 DUP6 MSTORE PUSH1 0x80 DUP9 ADD SWAP6 DUP8 DUP8 MSTORE PUSH1 0x4 SLOAD PUSH9 0x10000000000000000 DUP2 LT ISZERO PUSH2 0x336 JUMPI DUP1 DUP5 PUSH2 0x9E8 SWAP3 ADD PUSH1 0x4 SSTORE PUSH2 0x39A JUMP JUMPDEST SWAP10 SWAP1 SWAP10 PUSH2 0xB10 JUMPI MLOAD AND PUSH1 0x1 PUSH1 0x1 PUSH1 0xA0 SHL SUB NOT DUP10 SLOAD AND OR DUP9 SSTORE MLOAD DUP2 DUP9 ADD SSTORE PUSH1 0x2 DUP8 ADD SWAP3 MLOAD SWAP2 DUP3 MLOAD SWAP3 PUSH8 0xFFFFFFFFFFFFFFFF DUP5 GT PUSH2 0x336 JUMPI PUSH2 0xA32 DUP5 PUSH2 0xA2C DUP8 SLOAD PUSH2 0x3D5 JUMP JUMPDEST DUP8 PUSH2 0xB24 JUMP JUMPDEST DUP2 PUSH1 0x1F DUP6 GT PUSH1 0x1 EQ PUSH2 0xA94 JUMPI POP SWAP3 DUP1 PUSH2 0xA6E SWAP6 SWAP4 DUP2 SWAP4 PUSH2 0xA83 SWAP9 SWAP7 PUSH1 0x4 SWAP12 SWAP5 PUSH2 0xA89 JUMPI JUMPDEST POP POP SHL SWAP2 PUSH1 0x0 NOT SWAP1 PUSH1 0x3 SHL SHR NOT AND OR SWAP1 SSTORE JUMPDEST MLOAD ISZERO ISZERO SWAP1 JUMP JUMPDEST PUSH1 0x3 DUP6 ADD SWAP1 PUSH1 0xFF DUP1 NOT DUP4 SLOAD AND SWAP2 ISZERO ISZERO AND OR SWAP1 SSTORE JUMP JUMPDEST MLOAD SWAP2 ADD SSTORE JUMP JUMPDEST ADD MLOAD SWAP3 POP CODESIZE DUP1 PUSH2 0xA56 JUMP JUMPDEST PUSH1 0x1F SWAP9 SWAP4 SWAP6 SWAP7 SWAP8 SWAP9 NOT DUP6 AND SWAP1 PUSH2 0xAAF DUP9 PUSH1 0x0 MSTORE PUSH1 0x20 PUSH1 0x0 KECCAK256 SWAP1 JUMP JUMPDEST SWAP5 SWAP1 JUMPDEST DUP3 DUP3 LT PUSH2 0xAF9 JUMPI POP POP SWAP3 PUSH2 0xA6E SWAP6 SWAP3 DUP6 SWAP3 PUSH1 0x4 SWAP11 SWAP10 SWAP7 PUSH2 0xA83 SWAP10 SWAP7 LT PUSH2 0xAE0 JUMPI JUMPDEST POP POP POP DUP2 SHL ADD SWAP1 SSTORE PUSH2 0xA68 JUMP JUMPDEST ADD MLOAD PUSH1 0x0 NOT PUSH1 0xF8 DUP5 PUSH1 0x3 SHL AND SHR NOT AND SWAP1 SSTORE CODESIZE DUP1 DUP1 PUSH2 0xAD3 JUMP JUMPDEST DUP1 DUP9 DUP7 SWAP8 DUP3 SWAP5 SWAP8 DUP8 ADD MLOAD DUP2 SSTORE ADD SWAP7 ADD SWAP5 ADD SWAP1 PUSH2 0xAB2 JUMP JUMPDEST PUSH4 0x4E487B71 PUSH1 0xE0 SHL DUP10 MSTORE PUSH1 0x4 DUP10 SWAP1 MSTORE PUSH1 0x24 DUP10 REVERT JUMPDEST SWAP1 PUSH1 0x1F DUP2 GT PUSH2 0xB32 JUMPI POP POP POP JUMP JUMPDEST PUSH1 0x0 SWAP2 DUP3 MSTORE PUSH1 0x20 DUP3 KECCAK256 SWAP1 PUSH1 0x20 PUSH1 0x1F DUP6 ADD PUSH1 0x5 SHR DUP4 ADD SWAP5 LT PUSH2 0xB6E JUMPI JUMPDEST PUSH1 0x1F ADD PUSH1 0x5 SHR ADD SWAP2 JUMPDEST DUP3 DUP2 LT PUSH2 0xB63 JUMPI POP POP POP JUMP JUMPDEST DUP2 DUP2 SSTORE PUSH1 0x1 ADD PUSH2 0xB57 JUMP JUMPDEST SWAP1 SWAP3 POP DUP3 SWAP1 PUSH2 0xB4E JUMP JUMPDEST ISZERO PUSH2 0xB7F JUMPI JUMP JUMPDEST PUSH1 0x40 MLOAD PUSH3 0x461BCD PUSH1 0xE5 SHL DUP2 MSTORE PUSH1 0x20 PUSH1 0x4 DUP3 ADD MSTORE PUSH1 0x11 PUSH1 0x24 DUP3 ADD MSTORE PUSH32 0x747820646F6573206E6F74206578697374000000000000000000000000000000 PUSH1 0x44 DUP3 ADD MSTORE PUSH1 0x64 SWAP1 REVERT JUMPDEST ISZERO PUSH2 0xBCB JUMPI JUMP JUMPDEST PUSH1 0x40 MLOAD PUSH3 0x461BCD PUSH1 0xE5 SHL DUP2 MSTORE PUSH1 0x20 PUSH1 0x4 DUP3 ADD MSTORE PUSH1 0x13 PUSH1 0x24 DUP3 ADD MSTORE PUSH32 0x747820616C726561647920657865637574656400000000000000000000000000 PUSH1 0x44 DUP3 ADD MSTORE PUSH1 0x64 SWAP1 REVERT JUMPDEST PUSH1 0x0 SWAP3 SWAP2 DUP2 SLOAD PUSH2 0xC1F DUP2 PUSH2 0x3D5 JUMP JUMPDEST SWAP3 PUSH1 0x1 SWAP2 DUP1 DUP4 AND SWAP1 DUP2 ISZERO PUSH2 0xC78 JUMPI POP PUSH1 0x1 EQ PUSH2 0xC3C JUMPI JUMPDEST POP POP POP POP JUMP JUMPDEST SWAP1 SWAP2 SWAP3 SWAP4 SWAP5 POP PUSH1 0x0 MSTORE PUSH1 0x20 SWAP1 DUP2 PUSH1 0x0 KECCAK256 SWAP1 PUSH1 0x0 SWAP2 JUMPDEST DUP6 DUP4 LT PUSH2 0xC67 JUMPI POP POP POP POP ADD SWAP1 CODESIZE DUP1 DUP1 DUP1 PUSH2 0xC36 JUMP JUMPDEST DUP1 SLOAD DUP6 DUP5 ADD MSTORE SWAP2 DUP4 ADD SWAP2 DUP2 ADD PUSH2 0xC51 JUMP JUMPDEST PUSH1 0xFF NOT AND DUP5 MSTORE POP POP POP DUP2 ISZERO ISZERO SWAP1 SWAP2 MUL ADD SWAP2 POP CODESIZE DUP1 DUP1 DUP1 PUSH2 0xC36 JUMP JUMPDEST RETURNDATASIZE ISZERO PUSH2 0xCBE JUMPI RETURNDATASIZE SWAP1 PUSH2 0xCA4 DUP3 PUSH2 0x764 JUMP JUMPDEST SWAP2 PUSH2 0xCB2 PUSH1 0x40 MLOAD SWAP4 DUP5 PUSH2 0x441 JUMP JUMPDEST DUP3 MSTORE RETURNDATASIZE PUSH1 0x0 PUSH1 0x20 DUP5 ADD RETURNDATACOPY JUMP JUMPDEST PUSH1 0x60 SWAP1 JUMP JUMPDEST SWAP1 PUSH1 0x20 PUSH2 0xCD4 SWAP3 DUP2 DUP2 MSTORE ADD SWAP1 PUSH2 0x1E6 JUMP JUMPDEST SWAP1 JUMP JUMPDEST PUSH1 0x44 DUP2 MLOAD LT PUSH2 0xD74 JUMPI PUSH1 0x4 DUP2 ADD MLOAD DUP2 ADD SWAP1 PUSH1 0x20 DUP2 PUSH1 0x24 DUP5 ADD SWAP4 SUB SLT PUSH2 0x14B JUMPI PUSH1 0x24 DUP2 ADD MLOAD SWAP1 PUSH8 0xFFFFFFFFFFFFFFFF DUP3 GT PUSH2 0x14B JUMPI ADD SWAP1 DUP1 PUSH1 0x43 DUP4 ADD SLT ISZERO PUSH2 0x14B JUMPI PUSH1 0x24 DUP3 ADD MLOAD SWAP2 PUSH2 0xD27 DUP4 PUSH2 0x764 JUMP JUMPDEST SWAP2 PUSH2 0xD35 PUSH1 0x40 MLOAD SWAP4 DUP5 PUSH2 0x441 JUMP JUMPDEST DUP4 DUP4 MSTORE PUSH1 0x44 DUP5 DUP4 ADD ADD GT PUSH2 0x14B JUMPI PUSH2 0xD70 SWAP3 PUSH2 0xD58 SWAP2 PUSH1 0x44 PUSH1 0x20 DUP6 ADD SWAP2 ADD PUSH2 0x1C3 JUMP JUMPDEST PUSH1 0x40 MLOAD PUSH3 0x461BCD PUSH1 0xE5 SHL DUP2 MSTORE SWAP2 DUP3 SWAP2 PUSH1 0x4 DUP4 ADD PUSH2 0xCC3 JUMP JUMPDEST SUB SWAP1 REVERT JUMPDEST PUSH1 0x40 MLOAD PUSH3 0x461BCD PUSH1 0xE5 SHL DUP2 MSTORE PUSH1 0x20 PUSH1 0x4 DUP3 ADD MSTORE PUSH1 0xE PUSH1 0x24 DUP3 ADD MSTORE PUSH32 0x526561736F6E20756E6B6E6F776E000000000000000000000000000000000000 PUSH1 0x44 DUP3 ADD MSTORE PUSH1 0x64 SWAP1 REVERT INVALID LOG2 PUSH5 0x6970667358 0x22 SLT KECCAK256 MSIZE 0xEA 0xC2 0xA7 SHR BLOCKHASH 0x29 0xAD OR 0xCB 0xAB 0xDE 0xB3 0xD8 NUMBER DUP12 0xBB PUSH22 0x35DE787D035098DD503AD20B11F864736F6C63430008 SLT STOP CALLER "},"gasEstimates":{"creation":{"codeDepositCost":"713400","executionCost":"infinite","totalCost":"infinite"},"external":{"addOwner(address)":"73114","confirmTransaction(uint256)":"infinite","executeTransaction(uint256)":"infinite","getOwners()":"infinite","getTransaction(uint256)":"infinite","getTransactionCount()":"2284","isConfirmed(uint256,address)":"2595","isOwner(address)":"2469","numConfirmationsRequired()":"2482","owners(uint256)":"4426","submitTransaction(address,uint256,bytes)":"infinite","transactions(uint256)":"infinite"},"internal":{"_getRevertMsg(bytes memory)":"infinite"}},"methodIdentifiers":{"addOwner(address)":"7065cb48","confirmTransaction(uint256)":"c01a8c84","executeTransaction(uint256)":"ee22610b","getOwners()":"a0e67e2b","getTransaction(uint256)":"33ea3dc8","getTransactionCount()":"2e7700f0","isConfirmed(uint256,address)":"80f59a65","isOwner(address)":"2f54bf6e","numConfirmationsRequired()":"d0549b85","owners(uint256)":"025e7c27","submitTransaction(address,uint256,bytes)":"c6427474","transactions(uint256)":"9ace38c2"}},"storageLayout":{"storage":[{"astId":50,"contract":"contracts/MultisigMock.sol:MultisigMock","label":"owners","offset":0,"slot":"0","type":"t_array(t_address)dyn_storage"},{"astId":54,"contract":"contracts/MultisigMock.sol:MultisigMock","label":"isOwner","offset":0,"slot":"1","type":"t_mapping(t_address,t_bool)"},{"astId":56,"contract":"contracts/MultisigMock.sol:MultisigMock","label":"numConfirmationsRequired","offset":0,"slot":"2","type":"t_uint256"},{"astId":73,"contract":"contracts/MultisigMock.sol:MultisigMock","label":"isConfirmed","offset":0,"slot":"3","type":"t_mapping(t_uint256,t_mapping(t_address,t_bool))"},{"astId":77,"contract":"contracts/MultisigMock.sol:MultisigMock","label":"transactions","offset":0,"slot":"4","type":"t_array(t_struct(Transaction)67_storage)dyn_storage"}],"types":{"t_address":{"encoding":"inplace","label":"address","numberOfBytes":"20"},"t_array(t_address)dyn_storage":{"base":"t_address","encoding":"dynamic_array","label":"address[]","numberOfBytes":"32"},"t_array(t_struct(Transaction)67_storage)dyn_storage":{"base":"t_struct(Transaction)67_storage","encoding":"dynamic_array","label":"struct MultisigMock.Transaction[]","numberOfBytes":"32"},"t_bool":{"encoding":"inplace","label":"bool","numberOfBytes":"1"},"t_bytes_storage":{"encoding":"bytes","label":"bytes","numberOfBytes":"32"},"t_mapping(t_address,t_bool)":{"encoding":"mapping","key":"t_address","label":"mapping(address => bool)","numberOfBytes":"32","value":"t_bool"},"t_mapping(t_uint256,t_mapping(t_address,t_bool))":{"encoding":"mapping","key":"t_uint256","label":"mapping(uint256 => mapping(address => bool))","numberOfBytes":"32","value":"t_mapping(t_address,t_bool)"},"t_struct(Transaction)67_storage":{"encoding":"inplace","label":"struct MultisigMock.Transaction","members":[{"astId":58,"contract":"contracts/MultisigMock.sol:MultisigMock","label":"to","offset":0,"slot":"0","type":"t_address"},{"astId":60,"contract":"contracts/MultisigMock.sol:MultisigMock","label":"value","offset":0,"slot":"1","type":"t_uint256"},{"astId":62,"contract":"contracts/MultisigMock.sol:MultisigMock","label":"data","offset":0,"slot":"2","type":"t_bytes_storage"},{"astId":64,"contract":"contracts/MultisigMock.sol:MultisigMock","label":"executed","offset":0,"slot":"3","type":"t_bool"},{"astId":66,"contract":"contracts/MultisigMock.sol:MultisigMock","label":"numConfirmations","offset":0,"slot":"4","type":"t_uint256"}],"numberOfBytes":"160"},"t_uint256":{"encoding":"inplace","label":"uint256","numberOfBytes":"32"}}},"userdoc":{"kind":"user","methods":{},"version":1}}}}