{"contracts/TapiocaDeployerMock.sol":{"TapiocaDeployerMock":{"abi":[{"inputs":[{"internalType":"bytes32","name":"salt","type":"bytes32"},{"internalType":"bytes32","name":"bytecodeHash","type":"bytes32"}],"name":"computeAddress","outputs":[{"internalType":"address","name":"","type":"address"}],"stateMutability":"view","type":"function"},{"inputs":[{"internalType":"bytes32","name":"salt","type":"bytes32"},{"internalType":"bytes32","name":"bytecodeHash","type":"bytes32"},{"internalType":"address","name":"deployer","type":"address"}],"name":"computeAddress","outputs":[{"internalType":"address","name":"addr","type":"address"}],"stateMutability":"pure","type":"function"},{"inputs":[{"internalType":"uint256","name":"amount","type":"uint256"},{"internalType":"bytes32","name":"salt","type":"bytes32"},{"internalType":"bytes","name":"bytecode","type":"bytes"},{"internalType":"string","name":"contractName","type":"string"}],"name":"deploy","outputs":[{"internalType":"address","name":"addr","type":"address"}],"stateMutability":"payable","type":"function"}],"devdoc":{"author":"https://github.com/OpenZeppelin/openzeppelin-contracts/blob/master/contracts/utils/Create2.sol","kind":"dev","methods":{"computeAddress(bytes32,bytes32)":{"details":"Returns the address where a contract will be stored if deployed via {deploy}. Any change in the `bytecodeHash` or `salt` will result in a new destination address."},"computeAddress(bytes32,bytes32,address)":{"details":"Returns the address where a contract will be stored if deployed via {deploy} from a contract located at `deployer`. If `deployer` is this contract's address, returns the same value as {computeAddress}."},"deploy(uint256,bytes32,bytes,string)":{"details":"Deploys a contract using `CREATE2`. The address where the contract will be deployed can be known in advance via {computeAddress}. The bytecode for a contract can be obtained from Solidity with `type(contractName).creationCode`. Requirements: - `bytecode` must not be empty. - `salt` must have not been used for `bytecode` already. - the factory must have a balance of at least `amount`. - if `amount` is non-zero, `bytecode` must have a `payable` constructor."}},"version":1},"evm":{"bytecode":{"linkReferences":{},"object":"608080604052346100165761039a908161001c8239f35b600080fdfe60406080815260048036101561001457600080fd5b600091823560e01c8063481286e614610263578063780653061461021357638f3b65931461004157600080fd5b608036600319011261020f5760443591803567ffffffffffffffff80851161020b573660238601121561020b576100826024953690878187013591016102d5565b95606435918211610208573660238301121561020857506100ab903690868186013591016102d5565b908047106101c657855115610184578573ffffffffffffffffffffffffffffffffffffffff916020975190888835930190f51693835161013b604382898101957f437265617465323a204661696c6564206465706c6f79696e6720636f6e747261875262031ba160ed1b8983015261012b815180928d8686019101610321565b810103602381018452018261029d565b851561014b575050505051908152f35b604495506101769293945196879562461bcd60e51b8752860152519283809286015285850190610321565b601f01601f19168101030190fd5b835162461bcd60e51b81526020818501819052818701527f437265617465323a2062797465636f6465206c656e677468206973207a65726f6044820152606490fd5b835162461bcd60e51b8152602081850152601d818701527f437265617465323a20696e73756666696369656e742062616c616e63650000006044820152606490fd5b80fd5b8580fd5b8280fd5b508234610208576060366003190112610208576044359273ffffffffffffffffffffffffffffffffffffffff918285168503610208575060209361025b916024359035610344565b915191168152f35b5082346102085781600319360112610208575073ffffffffffffffffffffffffffffffffffffffff61025b60209330906024359035610344565b90601f8019910116810190811067ffffffffffffffff8211176102bf57604052565b634e487b7160e01b600052604160045260246000fd5b92919267ffffffffffffffff82116102bf57604051916102ff601f8201601f19166020018461029d565b82948184528183011161031c578281602093846000960137010152565b600080fd5b60005b8381106103345750506000910152565b8181015183820152602001610324565b90605592600b92604051926040840152602083015281520160ff8153209056fea264697066735822122002b8fe7a165404d25631054498109274b3a96293ca38a91cab88ead5a4e2a82c64736f6c63430008120033","opcodes":"PUSH1 0x80 DUP1 PUSH1 0x40 MSTORE CALLVALUE PUSH2 0x16 JUMPI PUSH2 0x39A SWAP1 DUP2 PUSH2 0x1C DUP3 CODECOPY RETURN JUMPDEST PUSH1 0x0 DUP1 REVERT INVALID PUSH1 0x40 PUSH1 0x80 DUP2 MSTORE PUSH1 0x4 DUP1 CALLDATASIZE LT ISZERO PUSH2 0x14 JUMPI PUSH1 0x0 DUP1 REVERT JUMPDEST PUSH1 0x0 SWAP2 DUP3 CALLDATALOAD PUSH1 0xE0 SHR DUP1 PUSH4 0x481286E6 EQ PUSH2 0x263 JUMPI DUP1 PUSH4 0x78065306 EQ PUSH2 0x213 JUMPI PUSH4 0x8F3B6593 EQ PUSH2 0x41 JUMPI PUSH1 0x0 DUP1 REVERT JUMPDEST PUSH1 0x80 CALLDATASIZE PUSH1 0x3 NOT ADD SLT PUSH2 0x20F JUMPI PUSH1 0x44 CALLDATALOAD SWAP2 DUP1 CALLDATALOAD PUSH8 0xFFFFFFFFFFFFFFFF DUP1 DUP6 GT PUSH2 0x20B JUMPI CALLDATASIZE PUSH1 0x23 DUP7 ADD SLT ISZERO PUSH2 0x20B JUMPI PUSH2 0x82 PUSH1 0x24 SWAP6 CALLDATASIZE SWAP1 DUP8 DUP2 DUP8 ADD CALLDATALOAD SWAP2 ADD PUSH2 0x2D5 JUMP JUMPDEST SWAP6 PUSH1 0x64 CALLDATALOAD SWAP2 DUP3 GT PUSH2 0x208 JUMPI CALLDATASIZE PUSH1 0x23 DUP4 ADD SLT ISZERO PUSH2 0x208 JUMPI POP PUSH2 0xAB SWAP1 CALLDATASIZE SWAP1 DUP7 DUP2 DUP7 ADD CALLDATALOAD SWAP2 ADD PUSH2 0x2D5 JUMP JUMPDEST SWAP1 DUP1 SELFBALANCE LT PUSH2 0x1C6 JUMPI DUP6 MLOAD ISZERO PUSH2 0x184 JUMPI DUP6 PUSH20 0xFFFFFFFFFFFFFFFFFFFFFFFFFFFFFFFFFFFFFFFF SWAP2 PUSH1 0x20 SWAP8 MLOAD SWAP1 DUP9 DUP9 CALLDATALOAD SWAP4 ADD SWAP1 CREATE2 AND SWAP4 DUP4 MLOAD PUSH2 0x13B PUSH1 0x43 DUP3 DUP10 DUP2 ADD SWAP6 PUSH32 0x437265617465323A204661696C6564206465706C6F79696E6720636F6E747261 DUP8 MSTORE PUSH3 0x31BA1 PUSH1 0xED SHL DUP10 DUP4 ADD MSTORE PUSH2 0x12B DUP2 MLOAD DUP1 SWAP3 DUP14 DUP7 DUP7 ADD SWAP2 ADD PUSH2 0x321 JUMP JUMPDEST DUP2 ADD SUB PUSH1 0x23 DUP2 ADD DUP5 MSTORE ADD DUP3 PUSH2 0x29D JUMP JUMPDEST DUP6 ISZERO PUSH2 0x14B JUMPI POP POP POP POP MLOAD SWAP1 DUP2 MSTORE RETURN JUMPDEST PUSH1 0x44 SWAP6 POP PUSH2 0x176 SWAP3 SWAP4 SWAP5 MLOAD SWAP7 DUP8 SWAP6 PUSH3 0x461BCD PUSH1 0xE5 SHL DUP8 MSTORE DUP7 ADD MSTORE MLOAD SWAP3 DUP4 DUP1 SWAP3 DUP7 ADD MSTORE DUP6 DUP6 ADD SWAP1 PUSH2 0x321 JUMP JUMPDEST PUSH1 0x1F ADD PUSH1 0x1F NOT AND DUP2 ADD SUB ADD SWAP1 REVERT JUMPDEST DUP4 MLOAD PUSH3 0x461BCD PUSH1 0xE5 SHL DUP2 MSTORE PUSH1 0x20 DUP2 DUP6 ADD DUP2 SWAP1 MSTORE DUP2 DUP8 ADD MSTORE PUSH32 0x437265617465323A2062797465636F6465206C656E677468206973207A65726F PUSH1 0x44 DUP3 ADD MSTORE PUSH1 0x64 SWAP1 REVERT JUMPDEST DUP4 MLOAD PUSH3 0x461BCD PUSH1 0xE5 SHL DUP2 MSTORE PUSH1 0x20 DUP2 DUP6 ADD MSTORE PUSH1 0x1D DUP2 DUP8 ADD MSTORE PUSH32 0x437265617465323A20696E73756666696369656E742062616C616E6365000000 PUSH1 0x44 DUP3 ADD MSTORE PUSH1 0x64 SWAP1 REVERT JUMPDEST DUP1 REVERT JUMPDEST DUP6 DUP1 REVERT JUMPDEST DUP3 DUP1 REVERT JUMPDEST POP DUP3 CALLVALUE PUSH2 0x208 JUMPI PUSH1 0x60 CALLDATASIZE PUSH1 0x3 NOT ADD SLT PUSH2 0x208 JUMPI PUSH1 0x44 CALLDATALOAD SWAP3 PUSH20 0xFFFFFFFFFFFFFFFFFFFFFFFFFFFFFFFFFFFFFFFF SWAP2 DUP3 DUP6 AND DUP6 SUB PUSH2 0x208 JUMPI POP PUSH1 0x20 SWAP4 PUSH2 0x25B SWAP2 PUSH1 0x24 CALLDATALOAD SWAP1 CALLDATALOAD PUSH2 0x344 JUMP JUMPDEST SWAP2 MLOAD SWAP2 AND DUP2 MSTORE RETURN JUMPDEST POP DUP3 CALLVALUE PUSH2 0x208 JUMPI DUP2 PUSH1 0x3 NOT CALLDATASIZE ADD SLT PUSH2 0x208 JUMPI POP PUSH20 0xFFFFFFFFFFFFFFFFFFFFFFFFFFFFFFFFFFFFFFFF PUSH2 0x25B PUSH1 0x20 SWAP4 ADDRESS SWAP1 PUSH1 0x24 CALLDATALOAD SWAP1 CALLDATALOAD PUSH2 0x344 JUMP JUMPDEST SWAP1 PUSH1 0x1F DUP1 NOT SWAP2 ADD AND DUP2 ADD SWAP1 DUP2 LT PUSH8 0xFFFFFFFFFFFFFFFF DUP3 GT OR PUSH2 0x2BF JUMPI PUSH1 0x40 MSTORE JUMP JUMPDEST PUSH4 0x4E487B71 PUSH1 0xE0 SHL PUSH1 0x0 MSTORE PUSH1 0x41 PUSH1 0x4 MSTORE PUSH1 0x24 PUSH1 0x0 REVERT JUMPDEST SWAP3 SWAP2 SWAP3 PUSH8 0xFFFFFFFFFFFFFFFF DUP3 GT PUSH2 0x2BF JUMPI PUSH1 0x40 MLOAD SWAP2 PUSH2 0x2FF PUSH1 0x1F DUP3 ADD PUSH1 0x1F NOT AND PUSH1 0x20 ADD DUP5 PUSH2 0x29D JUMP JUMPDEST DUP3 SWAP5 DUP2 DUP5 MSTORE DUP2 DUP4 ADD GT PUSH2 0x31C JUMPI DUP3 DUP2 PUSH1 0x20 SWAP4 DUP5 PUSH1 0x0 SWAP7 ADD CALLDATACOPY ADD ADD MSTORE JUMP JUMPDEST PUSH1 0x0 DUP1 REVERT JUMPDEST PUSH1 0x0 JUMPDEST DUP4 DUP2 LT PUSH2 0x334 JUMPI POP POP PUSH1 0x0 SWAP2 ADD MSTORE JUMP JUMPDEST DUP2 DUP2 ADD MLOAD DUP4 DUP3 ADD MSTORE PUSH1 0x20 ADD PUSH2 0x324 JUMP JUMPDEST SWAP1 PUSH1 0x55 SWAP3 PUSH1 0xB SWAP3 PUSH1 0x40 MLOAD SWAP3 PUSH1 0x40 DUP5 ADD MSTORE PUSH1 0x20 DUP4 ADD MSTORE DUP2 MSTORE ADD PUSH1 0xFF DUP2 MSTORE8 KECCAK256 SWAP1 JUMP INVALID LOG2 PUSH5 0x6970667358 0x22 SLT KECCAK256 MUL 0xB8 INVALID PUSH27 0x165404D25631054498109274B3A96293CA38A91CAB88EAD5A4E2A8 0x2C PUSH5 0x736F6C6343 STOP ADDMOD SLT STOP CALLER "},"gasEstimates":{"creation":{"codeDepositCost":"184400","executionCost":"233","totalCost":"184633"},"external":{"computeAddress(bytes32,bytes32)":"infinite","computeAddress(bytes32,bytes32,address)":"infinite","deploy(uint256,bytes32,bytes,string)":"infinite"}},"methodIdentifiers":{"computeAddress(bytes32,bytes32)":"481286e6","computeAddress(bytes32,bytes32,address)":"78065306","deploy(uint256,bytes32,bytes,string)":"8f3b6593"}},"storageLayout":{"storage":[],"types":null},"userdoc":{"kind":"user","methods":{},"version":1}}}}