{"contracts/ContractThatCannotBeDeployed.sol":{"ContractThatCannotBeDeployed":{"abi":[{"inputs":[],"stateMutability":"nonpayable","type":"constructor"},{"inputs":[],"name":"revertStr","outputs":[{"internalType":"string","name":"","type":"string"}],"stateMutability":"view","type":"function"}],"devdoc":{"kind":"dev","methods":{},"version":1},"evm":{"bytecode":{"linkReferences":{},"object":"6080604052346101305760006100158154610135565b601f8111610103575b506043815580805260208082207f54686973206d6574686f642072657665727465642e20536f20617765736f6d658155602160f81b60018092015560405192839262461bcd60e51b8452806004850152819282549261007c84610135565b9384602488015282811690816000146100e157506001146100a0575b505050500390fd5b8080528281209594509291905b8284106100c857505050816044929350010138808080610098565b85548785016044015294850194869450928101926100ad565b93505050506044925060ff191682840152151560051b82010138808080610098565b8180526002601f60208420920160051c820191015b818110610125575061001e565b828155600101610118565b600080fd5b90600182811c92168015610165575b602083101461014f57565b634e487b7160e01b600052602260045260246000fd5b91607f169161014456fe","opcodes":"PUSH1 0x80 PUSH1 0x40 MSTORE CALLVALUE PUSH2 0x130 JUMPI PUSH1 0x0 PUSH2 0x15 DUP2 SLOAD PUSH2 0x135 JUMP JUMPDEST PUSH1 0x1F DUP2 GT PUSH2 0x103 JUMPI JUMPDEST POP PUSH1 0x43 DUP2 SSTORE DUP1 DUP1 MSTORE PUSH1 0x20 DUP1 DUP3 KECCAK256 PUSH32 0x54686973206D6574686F642072657665727465642E20536F20617765736F6D65 DUP2 SSTORE PUSH1 0x21 PUSH1 0xF8 SHL PUSH1 0x1 DUP1 SWAP3 ADD SSTORE PUSH1 0x40 MLOAD SWAP3 DUP4 SWAP3 PUSH3 0x461BCD PUSH1 0xE5 SHL DUP5 MSTORE DUP1 PUSH1 0x4 DUP6 ADD MSTORE DUP2 SWAP3 DUP3 SLOAD SWAP3 PUSH2 0x7C DUP5 PUSH2 0x135 JUMP JUMPDEST SWAP4 DUP5 PUSH1 0x24 DUP9 ADD MSTORE DUP3 DUP2 AND SWAP1 DUP2 PUSH1 0x0 EQ PUSH2 0xE1 JUMPI POP PUSH1 0x1 EQ PUSH2 0xA0 JUMPI JUMPDEST POP POP POP POP SUB SWAP1 REVERT JUMPDEST DUP1 DUP1 MSTORE DUP3 DUP2 KECCAK256 SWAP6 SWAP5 POP SWAP3 SWAP2 SWAP1 JUMPDEST DUP3 DUP5 LT PUSH2 0xC8 JUMPI POP POP POP DUP2 PUSH1 0x44 SWAP3 SWAP4 POP ADD ADD CODESIZE DUP1 DUP1 DUP1 PUSH2 0x98 JUMP JUMPDEST DUP6 SLOAD DUP8 DUP6 ADD PUSH1 0x44 ADD MSTORE SWAP5 DUP6 ADD SWAP5 DUP7 SWAP5 POP SWAP3 DUP2 ADD SWAP3 PUSH2 0xAD JUMP JUMPDEST SWAP4 POP POP POP POP PUSH1 0x44 SWAP3 POP PUSH1 0xFF NOT AND DUP3 DUP5 ADD MSTORE ISZERO ISZERO PUSH1 0x5 SHL DUP3 ADD ADD CODESIZE DUP1 DUP1 DUP1 PUSH2 0x98 JUMP JUMPDEST DUP2 DUP1 MSTORE PUSH1 0x2 PUSH1 0x1F PUSH1 0x20 DUP5 KECCAK256 SWAP3 ADD PUSH1 0x5 SHR DUP3 ADD SWAP2 ADD JUMPDEST DUP2 DUP2 LT PUSH2 0x125 JUMPI POP PUSH2 0x1E JUMP JUMPDEST DUP3 DUP2 SSTORE PUSH1 0x1 ADD PUSH2 0x118 JUMP JUMPDEST PUSH1 0x0 DUP1 REVERT JUMPDEST SWAP1 PUSH1 0x1 DUP3 DUP2 SHR SWAP3 AND DUP1 ISZERO PUSH2 0x165 JUMPI JUMPDEST PUSH1 0x20 DUP4 LT EQ PUSH2 0x14F JUMPI JUMP JUMPDEST PUSH4 0x4E487B71 PUSH1 0xE0 SHL PUSH1 0x0 MSTORE PUSH1 0x22 PUSH1 0x4 MSTORE PUSH1 0x24 PUSH1 0x0 REVERT JUMPDEST SWAP2 PUSH1 0x7F AND SWAP2 PUSH2 0x144 JUMP INVALID "},"deployedBytecode":{"immutableReferences":{},"linkReferences":{},"object":"6080600436101561000f57600080fd5b6000803560e01c63d58f64341461002557600080fd5b34610188578060031936011261018857809181549060019382851c85841695861561017e575b602094858310881461016a578585969798848752918260001461014e5750506001146100f7575b5050601f801993849203011681019381851067ffffffffffffffff8611176100e3579291849192604094838652818452845191828186015281955b8387106100cb5750508394508582601f949501015201168101030190f35b868101820151898801890152958101958895506100ad565b634e487b7160e01b81526041600452602490fd5b8680528592508691907f290decd9548b62a8d60345a988386fc84ba6bc95484008f6362f93160ef3e5635b828410610136575050508201013880610072565b80548488018601528695508794909301928101610122565b925093505060ff191682840152151560051b8201013880610072565b634e487b7160e01b87526022600452602487fd5b90607f169061004b565b80fdfea264697066735822122008d1ef766aa92713d8e13a3857ab90e537d0acf44969919e769d6cb88684125164736f6c63430008120033","opcodes":"PUSH1 0x80 PUSH1 0x4 CALLDATASIZE LT ISZERO PUSH2 0xF JUMPI PUSH1 0x0 DUP1 REVERT JUMPDEST PUSH1 0x0 DUP1 CALLDATALOAD PUSH1 0xE0 SHR PUSH4 0xD58F6434 EQ PUSH2 0x25 JUMPI PUSH1 0x0 DUP1 REVERT JUMPDEST CALLVALUE PUSH2 0x188 JUMPI DUP1 PUSH1 0x3 NOT CALLDATASIZE ADD SLT PUSH2 0x188 JUMPI DUP1 SWAP2 DUP2 SLOAD SWAP1 PUSH1 0x1 SWAP4 DUP3 DUP6 SHR DUP6 DUP5 AND SWAP6 DUP7 ISZERO PUSH2 0x17E JUMPI JUMPDEST PUSH1 0x20 SWAP5 DUP6 DUP4 LT DUP9 EQ PUSH2 0x16A JUMPI DUP6 DUP6 SWAP7 SWAP8 SWAP9 DUP5 DUP8 MSTORE SWAP2 DUP3 PUSH1 0x0 EQ PUSH2 0x14E JUMPI POP POP PUSH1 0x1 EQ PUSH2 0xF7 JUMPI JUMPDEST POP POP PUSH1 0x1F DUP1 NOT SWAP4 DUP5 SWAP3 SUB ADD AND DUP2 ADD SWAP4 DUP2 DUP6 LT PUSH8 0xFFFFFFFFFFFFFFFF DUP7 GT OR PUSH2 0xE3 JUMPI SWAP3 SWAP2 DUP5 SWAP2 SWAP3 PUSH1 0x40 SWAP5 DUP4 DUP7 MSTORE DUP2 DUP5 MSTORE DUP5 MLOAD SWAP2 DUP3 DUP2 DUP7 ADD MSTORE DUP2 SWAP6 JUMPDEST DUP4 DUP8 LT PUSH2 0xCB JUMPI POP POP DUP4 SWAP5 POP DUP6 DUP3 PUSH1 0x1F SWAP5 SWAP6 ADD ADD MSTORE ADD AND DUP2 ADD SUB ADD SWAP1 RETURN JUMPDEST DUP7 DUP2 ADD DUP3 ADD MLOAD DUP10 DUP9 ADD DUP10 ADD MSTORE SWAP6 DUP2 ADD SWAP6 DUP9 SWAP6 POP PUSH2 0xAD JUMP JUMPDEST PUSH4 0x4E487B71 PUSH1 0xE0 SHL DUP2 MSTORE PUSH1 0x41 PUSH1 0x4 MSTORE PUSH1 0x24 SWAP1 REVERT JUMPDEST DUP7 DUP1 MSTORE DUP6 SWAP3 POP DUP7 SWAP2 SWAP1 PUSH32 0x290DECD9548B62A8D60345A988386FC84BA6BC95484008F6362F93160EF3E563 JUMPDEST DUP3 DUP5 LT PUSH2 0x136 JUMPI POP POP POP DUP3 ADD ADD CODESIZE DUP1 PUSH2 0x72 JUMP JUMPDEST DUP1 SLOAD DUP5 DUP9 ADD DUP7 ADD MSTORE DUP7 SWAP6 POP DUP8 SWAP5 SWAP1 SWAP4 ADD SWAP3 DUP2 ADD PUSH2 0x122 JUMP JUMPDEST SWAP3 POP SWAP4 POP POP PUSH1 0xFF NOT AND DUP3 DUP5 ADD MSTORE ISZERO ISZERO PUSH1 0x5 SHL DUP3 ADD ADD CODESIZE DUP1 PUSH2 0x72 JUMP JUMPDEST PUSH4 0x4E487B71 PUSH1 0xE0 SHL DUP8 MSTORE PUSH1 0x22 PUSH1 0x4 MSTORE PUSH1 0x24 DUP8 REVERT JUMPDEST SWAP1 PUSH1 0x7F AND SWAP1 PUSH2 0x4B JUMP JUMPDEST DUP1 REVERT INVALID LOG2 PUSH5 0x6970667358 0x22 SLT KECCAK256 ADDMOD 0xD1 0xEF PUSH23 0x6AA92713D8E13A3857AB90E537D0ACF44969919E769D6C 0xB8 DUP7 DUP5 SLT MLOAD PUSH5 0x736F6C6343 STOP ADDMOD SLT STOP CALLER "},"gasEstimates":{"creation":{"codeDepositCost":"89800","executionCost":"infinite","totalCost":"infinite"},"external":{"revertStr()":"infinite"}},"methodIdentifiers":{"revertStr()":"d58f6434"}},"storageLayout":{"storage":[{"astId":4,"contract":"contracts/ContractThatCannotBeDeployed.sol:ContractThatCannotBeDeployed","label":"revertStr","offset":0,"slot":"0","type":"t_string_storage"}],"types":{"t_string_storage":{"encoding":"bytes","label":"string","numberOfBytes":"32"}}},"userdoc":{"kind":"user","methods":{},"version":1}}}}