{
  "_format": "hh-sol-artifact-1",
  "contractName": "UniUsdoToWethBidder",
  "sourceName": "contracts/liquidationQueue/bidders/UniUsdoToWethBidder.sol",
  "abi": [
    {
      "inputs": [
        {
          "internalType": "contract ISwapper",
          "name": "uniV2Swapper_",
          "type": "address"
        },
        {
          "internalType": "uint256",
          "name": "_wethAssetId",
          "type": "uint256"
        }
      ],
      "stateMutability": "nonpayable",
      "type": "constructor"
    },
    {
      "anonymous": false,
      "inputs": [
        {
          "indexed": true,
          "internalType": "address",
          "name": "previousOwner",
          "type": "address"
        },
        {
          "indexed": true,
          "internalType": "address",
          "name": "newOwner",
          "type": "address"
        }
      ],
      "name": "OwnershipTransferred",
      "type": "event"
    },
    {
      "anonymous": false,
      "inputs": [
        {
          "indexed": true,
          "internalType": "address",
          "name": "_old",
          "type": "address"
        },
        {
          "indexed": true,
          "internalType": "address",
          "name": "_new",
          "type": "address"
        }
      ],
      "name": "UniV2SwapperUpdated",
      "type": "event"
    },
    {
      "inputs": [],
      "name": "claimOwnership",
      "outputs": [],
      "stateMutability": "nonpayable",
      "type": "function"
    },
    {
      "inputs": [
        {
          "internalType": "contract ISingularity",
          "name": "singularity",
          "type": "address"
        },
        {
          "internalType": "uint256",
          "name": "tokenInId",
          "type": "uint256"
        },
        {
          "internalType": "uint256",
          "name": "amountOut",
          "type": "uint256"
        },
        {
          "internalType": "bytes",
          "name": "",
          "type": "bytes"
        }
      ],
      "name": "getInputAmount",
      "outputs": [
        {
          "internalType": "uint256",
          "name": "",
          "type": "uint256"
        }
      ],
      "stateMutability": "view",
      "type": "function"
    },
    {
      "inputs": [
        {
          "internalType": "contract ISingularity",
          "name": "singularity",
          "type": "address"
        },
        {
          "internalType": "uint256",
          "name": "tokenInId",
          "type": "uint256"
        },
        {
          "internalType": "uint256",
          "name": "amountIn",
          "type": "uint256"
        },
        {
          "internalType": "bytes",
          "name": "",
          "type": "bytes"
        }
      ],
      "name": "getOutputAmount",
      "outputs": [
        {
          "internalType": "uint256",
          "name": "",
          "type": "uint256"
        }
      ],
      "stateMutability": "view",
      "type": "function"
    },
    {
      "inputs": [],
      "name": "name",
      "outputs": [
        {
          "internalType": "string",
          "name": "",
          "type": "string"
        }
      ],
      "stateMutability": "pure",
      "type": "function"
    },
    {
      "inputs": [],
      "name": "owner",
      "outputs": [
        {
          "internalType": "address",
          "name": "",
          "type": "address"
        }
      ],
      "stateMutability": "view",
      "type": "function"
    },
    {
      "inputs": [],
      "name": "pendingOwner",
      "outputs": [
        {
          "internalType": "address",
          "name": "",
          "type": "address"
        }
      ],
      "stateMutability": "view",
      "type": "function"
    },
    {
      "inputs": [
        {
          "internalType": "contract ISwapper",
          "name": "_swapper",
          "type": "address"
        }
      ],
      "name": "setUniswapSwapper",
      "outputs": [],
      "stateMutability": "nonpayable",
      "type": "function"
    },
    {
      "inputs": [
        {
          "internalType": "contract ISingularity",
          "name": "singularity",
          "type": "address"
        },
        {
          "internalType": "uint256",
          "name": "tokenInId",
          "type": "uint256"
        },
        {
          "internalType": "uint256",
          "name": "amountIn",
          "type": "uint256"
        },
        {
          "internalType": "bytes",
          "name": "data",
          "type": "bytes"
        }
      ],
      "name": "swap",
      "outputs": [
        {
          "internalType": "uint256",
          "name": "",
          "type": "uint256"
        }
      ],
      "stateMutability": "nonpayable",
      "type": "function"
    },
    {
      "inputs": [
        {
          "internalType": "address",
          "name": "newOwner",
          "type": "address"
        },
        {
          "internalType": "bool",
          "name": "direct",
          "type": "bool"
        },
        {
          "internalType": "bool",
          "name": "renounce",
          "type": "bool"
        }
      ],
      "name": "transferOwnership",
      "outputs": [],
      "stateMutability": "nonpayable",
      "type": "function"
    },
    {
      "inputs": [],
      "name": "univ2Swapper",
      "outputs": [
        {
          "internalType": "contract ISwapper",
          "name": "",
          "type": "address"
        }
      ],
      "stateMutability": "view",
      "type": "function"
    }
  ],
  "bytecode": "0x6080346100ab57601f61150238819003918201601f19168301916001600160401b038311848410176100b05780849260409485528339810103126100ab5780516001600160a01b03811691908290036100ab576020015160008054336001600160a01b03199182168117835560405194927f8be0079c531659141344cd1fd0a4f28419497f9722a3daafe3b4186f6b6457e08180a3600254161760025560035561143b90816100c78239f35b600080fd5b634e487b7160e01b600052604160045260246000fdfe608080604052600436101561001357600080fd5b600090813560e01c90816306fdde03146110b157508063078dfbe714610fa15780634e71e0c814610ee95780635dd82b3614610b2257806385267a0114610afb5780638da5cb5b14610ad5578063b691d78c14610496578063b6aebf3614610414578063e30c3978146103ed5763fef744fa1461008f57600080fd5b346103ea5761009d36611178565b5050604051636c3d8b8f60e01b8152602094936001600160a01b039391908416908681600481855afa90811561033b578591889188916103af575b506004604051809481936386c8e21d60e01b8352165afa90811561033b57908791879161037e575b509161010f6004938514611290565b60405163de40657760e01b815292839182905afa908115610373579084918691610346575b5016926003549160405193638eb22cdd60e01b855283600486015260248501528560448501528684606481885afa93841561033b57869461030c575b5060405194630cf35bdd60e41b9182875260048701526080918287602481855afa9687156103015788976102dc575b50829060246040518094819382528860048301525afa9182156102d157610248969389969361021d969361022b938b926102a0575b5050604051956101e387611228565b600287526040368a890137826101f888611334565b911690528161020687611357565b911690526002541693604051958691888301611367565b03601f19810186528561125a565b60405163c6fe954960e01b815295869485938493600485016113ab565b03915afa9182156102945791610262575b50604051908152f35b90508181813d831161028d575b610279818361125a565b81010312610288575138610259565b600080fd5b503d61026f565b604051903d90823e3d90fd5b6102bf9250803d106102ca575b6102b7818361125a565b8101906112fb565b5050905038806101d4565b503d6102ad565b6040513d89823e3d90fd5b839197506102f690823d84116102ca576102b7818361125a565b50509050969061019f565b6040513d8a823e3d90fd5b9093508681813d8311610334575b610324818361125a565b8101031261028857519238610170565b503d61031a565b6040513d88823e3d90fd5b6103669150873d891161036c575b61035e818361125a565b8101906112dc565b38610134565b503d610354565b6040513d87823e3d90fd5b82819392503d83116103a8575b610395818361125a565b810103126102885751869061010f610100565b503d61038b565b92505081813d83116103e3575b6103c6818361125a565b810103126103df57866103d9869261127c565b386100d8565b8580fd5b503d6103bc565b80fd5b50346103ea57806003193601126103ea5760206001600160a01b0360015416604051908152f35b50346103ea5760203660031901126103ea576004356001600160a01b03808216809203610492576104498184541633146111dd565b816002549182167f1226a5d51aea8884fdf5761c8e63e98532d3eedcc0a3d56ebe98e3080fcf96dd8580a373ffffffffffffffffffffffffffffffffffffffff19161760025580f35b8280fd5b50346103ea576001600160a01b036104ad36611178565b939490919294169260405194636c3d8b8f60e01b95868152602081600481895afa908115610301578891610a90575b5060206001600160a01b0391600460405180948193631192124760e11b8352165afa908115610301578891610a4a575b506001600160a01b03610521911615156113ca565b60405163de40657760e01b815292602084600481895afa938415610301578894610a29575b5060405163c23ea21f60e01b8152966020886004818a5afa978815610933578998610a07575b5060209060046040518099819382525afa9586156103015788966109c2575b5060206001600160a01b03966004604051809981936386c8e21d60e01b8352165afa95861561030157889661098a575b506105c7868314611290565b6001600160a01b038716330361095b5787928061093e575b50506001600160a01b03600254169060405190638eb22cdd60e01b82528060048301528560248301528860448301526020826064816001600160a01b0389165afa9182156109335789926108ff575b506001600160a01b0385163b156108fb5760405192630208d92960e11b84523060048501526024840152604483015260648201528681608481836001600160a01b0388165af180156102d1576108cb575b50856003549160405193630cf35bdd60e41b908186528760048701526080866024816001600160a01b0385165afa95861561089b5784966108a6575b506040519182528460048301526080826024816001600160a01b0385165afa91821561089b576001600160a01b03976020936064928791610878575b50604051986107058a611228565b60028a52604036878c01378a61071a8b611334565b91169052896107288a611357565b911690526040519889938492638eb22cdd60e01b84528c60048501526024840152876044840152165afa94851561083457829561083f575b50946107dd6107896040976107976001600160a01b0360025416978a5193849160208301611367565b03601f19810184528361125a565b6001600160a01b0389519a8b998a98899763055a68e160e41b8952600489015260248801526044870152166064850152608484015260c060a484015260c4830190611138565b03925af19081156108345782916107fa575b602082604051908152f35b90506040813d60401161082c575b816108156040938361125a565b81010312610828576020915051386107ef565b5080fd5b3d9150610808565b6040513d84823e3d90fd5b915093506020813d602011610870575b8161085c6020938361125a565b8101031261028857519286906107dd610760565b3d915061084f565b610891915060803d6080116102ca576102b7818361125a565b50509050386106f7565b6040513d86823e3d90fd5b6108c091965060803d6080116102ca576102b7818361125a565b5050905094386106bb565b67ffffffffffffffff81979297116108e757604052943861067f565b634e487b7160e01b82526041600452602482fd5b8880fd5b9091506020813d60201161092b575b8161091b6020938361125a565b810103126108fb5751903861062e565b3d915061090e565b6040513d8b823e3d90fd5b81929350906020918101031261095757359038806105df565b8680fd5b60405162461bcd60e51b81526020600482015260076024820152666f6e6c79204c5160c81b6044820152606490fd5b9095506020813d6020116109ba575b816109a66020938361125a565b810103126109b6575194386105bb565b8780fd5b3d9150610999565b95506020863d6020116109ff575b816109dd6020938361125a565b810103126109b65760206109f86001600160a01b039761127c565b965061058b565b3d91506109d0565b6020919850610a2290823d841161036c5761035e818361125a565b979061056c565b610a4391945060203d60201161036c5761035e818361125a565b9238610546565b90506020813d602011610a88575b81610a656020938361125a565b810103126109b6576001600160a01b03610a816105219261127c565b915061050c565b3d9150610a58565b90506020813d602011610acd575b81610aab6020938361125a565b810103126109b6576020610ac66001600160a01b039261127c565b91506104dc565b3d9150610a9e565b50346103ea57806003193601126103ea576001600160a01b036020915416604051908152f35b50346103ea57806003193601126103ea5760206001600160a01b0360025416604051908152f35b50346103ea57610b3136611178565b50509092916001600160a01b038091169360405194636c3d8b8f60e01b8087526020968781600481865afa9081156102d157859189918991610eb2575b50600460405180948193631192124760e11b8352165afa80156102d15785908890610e7a575b610ba192501615156113ca565b6040519081528681600481855afa90811561033b5784929188918891610e41575b506004604051809581936386c8e21d60e01b8352165afa91821561033b579087918793610e0e575b50610bf9836004949514611290565b60405163de40657760e01b815292839182905afa908115610373579083918691610df1575b5016916003549360405194630cf35bdd60e41b80875284600488015260809182886024818a5afa978815610933578998610dce575b5060405191825260048201528181602481895afa9182156103015790899392918992610dad575b505060405196610c8988611228565b60028852604036858a013784610c9e89611334565b9116905283610cac88611357565b91169052606460405180968193638eb22cdd60e01b835287600484015260248301528960448301525afa9283156103735790869392918693610d73575b5091610d279491610d0a61021d946002541693604051958691888301611367565b604051632995d8c960e11b815295869485938493600485016113ab565b03915afa918215610294578092610d43575b5050604051908152f35b9091508282813d8311610d6c575b610d5b818361125a565b810103126103ea5750513880610d39565b503d610d51565b809293508491943d8311610da6575b610d8c818361125a565b81010312610da257518592909190610d27610ce9565b8480fd5b503d610d82565b610dc39250803d106102ca576102b7818361125a565b505090503880610c7a565b610de6919850833d85116102ca576102b7818361125a565b505090509638610c53565b610e089150873d891161036c5761035e818361125a565b38610c1e565b8281939294503d8311610e3a575b610e26818361125a565b810103126103df5751908690610bf9610bea565b503d610e1c565b9293505081813d8311610e73575b610e59818361125a565b810103126103df579086610e6d859361127c565b38610bc2565b503d610e4f565b50508781813d8311610eab575b610e91818361125a565b810103126109575784610ea6610ba19261127c565b610b94565b503d610e87565b92505081813d8311610ee2575b610ec9818361125a565b810103126109575787610edc869261127c565b38610b6e565b503d610ebf565b50346103ea57806003193601126103ea576001546001600160a01b0390818116803303610f5d578084549384167f8be0079c531659141344cd1fd0a4f28419497f9722a3daafe3b4186f6b6457e08680a373ffffffffffffffffffffffffffffffffffffffff199283161783551660015580f35b606460405162461bcd60e51b815260206004820152602060248201527f4f776e61626c653a2063616c6c657220213d2070656e64696e67206f776e65726044820152fd5b50346103ea5760603660031901126103ea576004356001600160a01b03908181168091036104925760243580151581036110ad57604435908115158203610da257610ff08486541633146111dd565b156110965781159081159161108e575b5015611049578083549283167f8be0079c531659141344cd1fd0a4f28419497f9722a3daafe3b4186f6b6457e08580a36001600160a01b03198092161782556001541660015580f35b60405162461bcd60e51b815260206004820152601560248201527f4f776e61626c653a207a65726f206164647265737300000000000000000000006044820152606490fd5b905038611000565b5090506001600160a01b0319600154161760015580f35b8380fd5b9050346108285781600319360112610828576040810181811067ffffffffffffffff821117611124576111209250604052601981527f5553444f202d3e20574554482028556e697377617020563229000000000000006020820152604051918291602083526020830190611138565b0390f35b634e487b7160e01b83526041600452602483fd5b919082519283825260005b848110611164575050826000602080949584010152601f8019910116010190565b602081830181015184830182015201611143565b6080600319820112610288576004356001600160a01b03811681036102885791602435916044359160643567ffffffffffffffff9283821161028857806023830112156102885781600401359384116102885760248483010111610288576024019190565b156111e457565b606460405162461bcd60e51b815260206004820152602060248201527f4f776e61626c653a2063616c6c6572206973206e6f7420746865206f776e65726044820152fd5b6060810190811067ffffffffffffffff82111761124457604052565b634e487b7160e01b600052604160045260246000fd5b90601f8019910116810190811067ffffffffffffffff82111761124457604052565b51906001600160a01b038216820361028857565b1561129757565b60405162461bcd60e51b815260206004820152600f60248201527f746f6b656e206e6f742076616c696400000000000000000000000000000000006044820152606490fd5b9081602091031261028857516001600160a01b03811681036102885790565b91908260809103126102885781516005811015610288579161131f6020820161127c565b91606061132e6040840161127c565b92015190565b8051156113415760200190565b634e487b7160e01b600052603260045260246000fd5b8051600110156113415760400190565b6020908160408183019282815285518094520193019160005b82811061138e575050505090565b83516001600160a01b031685529381019392810192600101611380565b6113c79392606092825260208201528160408201520190611138565b90565b156113d157565b60405162461bcd60e51b815260206004820152600c60248201526b1554d113c81b9bdd081cd95d60a21b6044820152606490fdfea2646970667358221220f10f6f06d4eab25e294dfa3e1841f2123f946f2eba79b0ff552461038f85305064736f6c63430008120033",
  "linkReferences": {},
  "deployedLinkReferences": {}
}