{
  "_format": "hh-sol-artifact-1",
  "contractName": "YieldBoxRebaseMock",
  "sourceName": "contracts/mocks/YieldBoxRebaseMock.sol",
  "abi": [
    {
      "inputs": [
        {
          "internalType": "uint256",
          "name": "share",
          "type": "uint256"
        },
        {
          "internalType": "uint256",
          "name": "amount",
          "type": "uint256"
        }
      ],
      "name": "deposit",
      "outputs": [
        {
          "internalType": "uint256",
          "name": "shareOut",
          "type": "uint256"
        },
        {
          "internalType": "uint256",
          "name": "amountOut",
          "type": "uint256"
        }
      ],
      "stateMutability": "nonpayable",
      "type": "function"
    },
    {
      "inputs": [
        {
          "internalType": "uint256",
          "name": "amount",
          "type": "uint256"
        }
      ],
      "name": "gain",
      "outputs": [],
      "stateMutability": "nonpayable",
      "type": "function"
    },
    {
      "inputs": [
        {
          "internalType": "uint256",
          "name": "amount",
          "type": "uint256"
        }
      ],
      "name": "lose",
      "outputs": [],
      "stateMutability": "nonpayable",
      "type": "function"
    },
    {
      "inputs": [
        {
          "internalType": "uint256",
          "name": "share",
          "type": "uint256"
        },
        {
          "internalType": "bool",
          "name": "roundUp",
          "type": "bool"
        }
      ],
      "name": "toAmount",
      "outputs": [
        {
          "internalType": "uint256",
          "name": "amount",
          "type": "uint256"
        }
      ],
      "stateMutability": "view",
      "type": "function"
    },
    {
      "inputs": [
        {
          "internalType": "uint256",
          "name": "amount",
          "type": "uint256"
        },
        {
          "internalType": "bool",
          "name": "roundUp",
          "type": "bool"
        }
      ],
      "name": "toShare",
      "outputs": [
        {
          "internalType": "uint256",
          "name": "share",
          "type": "uint256"
        }
      ],
      "stateMutability": "view",
      "type": "function"
    },
    {
      "inputs": [],
      "name": "totalAmount",
      "outputs": [
        {
          "internalType": "uint256",
          "name": "",
          "type": "uint256"
        }
      ],
      "stateMutability": "view",
      "type": "function"
    },
    {
      "inputs": [],
      "name": "totalShares",
      "outputs": [
        {
          "internalType": "uint256",
          "name": "",
          "type": "uint256"
        }
      ],
      "stateMutability": "view",
      "type": "function"
    },
    {
      "inputs": [
        {
          "internalType": "uint256",
          "name": "share",
          "type": "uint256"
        },
        {
          "internalType": "uint256",
          "name": "amount",
          "type": "uint256"
        }
      ],
      "name": "withdraw",
      "outputs": [
        {
          "internalType": "uint256",
          "name": "shareOut",
          "type": "uint256"
        },
        {
          "internalType": "uint256",
          "name": "amountOut",
          "type": "uint256"
        }
      ],
      "stateMutability": "nonpayable",
      "type": "function"
    }
  ],
  "bytecode": "0x608060405234801561001057600080fd5b506104fd806100206000396000f3fe608060405234801561001057600080fd5b50600436106100885760003560e01c80633a98ef391161005b5780633a98ef39146100e4578063441a3e70146100ed5780636832a26614610115578063e2bbb1581461012857600080fd5b8063022e6df61461008d5780630588ede4146100a25780631a39d8ef146100c85780631c711610146100d1575b600080fd5b6100a061009b366004610348565b61013b565b005b6100b56100b0366004610361565b610154565b6040519081526020015b60405180910390f35b6100b560005481565b6100b56100df366004610361565b610178565b6100b560015481565b6101006100fb366004610396565b610195565b604080519283526020830191909152016100bf565b6100a0610123366004610348565b61020e565b610100610136366004610396565b61021f565b8060008082825461014c91906103e7565b909155505050565b6000610171600154600054848661028b909392919063ffffffff16565b9392505050565b600061017160015460005484866102fd909392919063ffffffff16565b600080836101b857600180546000546101b1928692919061028b565b93506101d7565b6101d46001546000546000876102fd909392919063ffffffff16565b92505b826000808282546101e891906103ff565b92505081905550836001600082825461020191906103ff565b9091555093949293505050565b8060008082825461014c91906103ff565b6000808361024a5761024360015460005460008661028b909392919063ffffffff16565b9350610261565b6001805460005461025e92879291906102fd565b92505b8260008082825461027291906103e7565b92505081905550836001600082825461020191906103e7565b60008261029781610416565b93506102a990506305f5e100856103e7565b9350826102b6858761044f565b6102c0919061048c565b90508180156102e2575084846102d6858461044f565b6102e0919061048c565b105b156102f557806102f181610416565b9150505b949350505050565b60008261030981610416565b935061031b90506305f5e100856103e7565b935083610328848761044f565b610332919061048c565b90508180156102e2575084836102d6868461044f565b60006020828403121561035a57600080fd5b5035919050565b6000806040838503121561037457600080fd5b823591506020830135801515811461038b57600080fd5b809150509250929050565b600080604083850312156103a957600080fd5b50508035926020909101359150565b7f4e487b7100000000000000000000000000000000000000000000000000000000600052601160045260246000fd5b600082198211156103fa576103fa6103b8565b500190565b600082821015610411576104116103b8565b500390565b60007fffffffffffffffffffffffffffffffffffffffffffffffffffffffffffffffff821415610448576104486103b8565b5060010190565b6000817fffffffffffffffffffffffffffffffffffffffffffffffffffffffffffffffff0483118215151615610487576104876103b8565b500290565b6000826104c2577f4e487b7100000000000000000000000000000000000000000000000000000000600052601260045260246000fd5b50049056fea2646970667358221220b86dc1161b75ee200a959079f1da2798512c8c45b3db164cfb7462b6d0130e7964736f6c63430008090033",
  "linkReferences": {},
  "deployedLinkReferences": {}
}