{"contracts/utils/Magnetar/Magnetar.sol":{"Magnetar":{"abi":[{"inputs":[{"internalType":"address","name":"_owner","type":"address"}],"stateMutability":"nonpayable","type":"constructor"},{"anonymous":false,"inputs":[{"indexed":true,"internalType":"address","name":"previousOwner","type":"address"},{"indexed":true,"internalType":"address","name":"newOwner","type":"address"}],"name":"OwnershipTransferred","type":"event"},{"inputs":[{"components":[{"internalType":"uint16","name":"id","type":"uint16"},{"internalType":"address","name":"target","type":"address"},{"internalType":"uint256","name":"value","type":"uint256"},{"internalType":"bool","name":"allowFailure","type":"bool"},{"internalType":"bytes","name":"call","type":"bytes"}],"internalType":"struct MagnetarData.Call[]","name":"calls","type":"tuple[]"}],"name":"burst","outputs":[{"components":[{"internalType":"bool","name":"success","type":"bool"},{"internalType":"bytes","name":"returnData","type":"bytes"}],"internalType":"struct MagnetarData.Result[]","name":"returnData","type":"tuple[]"}],"stateMutability":"payable","type":"function"},{"inputs":[],"name":"getBasefee","outputs":[{"internalType":"uint256","name":"basefee","type":"uint256"}],"stateMutability":"view","type":"function"},{"inputs":[{"internalType":"uint256","name":"blockNumber","type":"uint256"}],"name":"getBlockHash","outputs":[{"internalType":"bytes32","name":"blockHash","type":"bytes32"}],"stateMutability":"view","type":"function"},{"inputs":[],"name":"getBlockNumber","outputs":[{"internalType":"uint256","name":"blockNumber","type":"uint256"}],"stateMutability":"view","type":"function"},{"inputs":[],"name":"getChainId","outputs":[{"internalType":"uint256","name":"chainid","type":"uint256"}],"stateMutability":"view","type":"function"},{"inputs":[],"name":"getCurrentBlockCoinbase","outputs":[{"internalType":"address","name":"coinbase","type":"address"}],"stateMutability":"view","type":"function"},{"inputs":[],"name":"getCurrentBlockDifficulty","outputs":[{"internalType":"uint256","name":"difficulty","type":"uint256"}],"stateMutability":"view","type":"function"},{"inputs":[],"name":"getCurrentBlockGasLimit","outputs":[{"internalType":"uint256","name":"gaslimit","type":"uint256"}],"stateMutability":"view","type":"function"},{"inputs":[],"name":"getCurrentBlockTimestamp","outputs":[{"internalType":"uint256","name":"timestamp","type":"uint256"}],"stateMutability":"view","type":"function"},{"inputs":[{"internalType":"address","name":"addr","type":"address"}],"name":"getEthBalance","outputs":[{"internalType":"uint256","name":"balance","type":"uint256"}],"stateMutability":"view","type":"function"},{"inputs":[],"name":"getLastBlockHash","outputs":[{"internalType":"bytes32","name":"blockHash","type":"bytes32"}],"stateMutability":"view","type":"function"},{"inputs":[],"name":"owner","outputs":[{"internalType":"address","name":"","type":"address"}],"stateMutability":"view","type":"function"},{"inputs":[],"name":"renounceOwnership","outputs":[],"stateMutability":"nonpayable","type":"function"},{"inputs":[{"internalType":"address","name":"newOwner","type":"address"}],"name":"transferOwnership","outputs":[],"stateMutability":"nonpayable","type":"function"}],"devdoc":{"kind":"dev","methods":{"burst((uint16,address,uint256,bool,bytes)[])":{"params":{"calls":"The list of actions to perform"}},"getBlockHash(uint256)":{"params":{"blockNumber":"The block number"}},"owner()":{"details":"Returns the address of the current owner."},"renounceOwnership()":{"details":"Leaves the contract without owner. It will not be possible to call `onlyOwner` functions anymore. Can only be called by the current owner. NOTE: Renouncing ownership will leave the contract without an owner, thereby removing any functionality that is only available to the owner."},"transferOwnership(address)":{"details":"Transfers ownership of the contract to a new account (`newOwner`). Can only be called by the current owner."}},"version":1},"evm":{"bytecode":{"linkReferences":{},"object":"6080346200012757601f6200254e38819003918201601f19168301916001600160401b038311848410176200012c578084926020946040528339810103126200012757516001600160a01b03808216908183036200012757620000623362000142565b33906000541603620000e357156200008f576200007f9062000142565b6040516123c490816200018a8239f35b60405162461bcd60e51b815260206004820152602660248201527f4f776e61626c653a206e6577206f776e657220697320746865207a65726f206160448201526564647265737360d01b6064820152608490fd5b606460405162461bcd60e51b815260206004820152602060248201527f4f776e61626c653a2063616c6c6572206973206e6f7420746865206f776e65726044820152fd5b600080fd5b634e487b7160e01b600052604160045260246000fd5b600080546001600160a01b039283166001600160a01b03198216811783559216907f8be0079c531659141344cd1fd0a4f28419497f9722a3daafe3b4186f6b6457e09080a356fe6080604052600436101561001257600080fd5b60003560e01c8063013546e1146100f75780630f28c97d146100f257806327e86d6e146100ed5780633408e470146100e85780633e64a696146100e357806342cbb15c146100de5780634d2301cc146100d9578063715018a6146100d457806372425d9d146100cf57806386d516e8146100ca5780638da5cb5b146100c5578063a8b0574e146100c0578063ee82ac5e146100bb5763f2fde38b146100b657600080fd5b610f65565b610f47565b610f2c565b610f05565b610eea565b610ecf565b610e79565b610e51565b610e18565b610dfd565b610de2565b610dc2565b610da7565b6101bb565b60005b83811061010f5750506000910152565b81810151838201526020016100ff565b90602091610138815180928185528580860191016100fc565b601f01601f1916010190565b602080820190808352835180925260409283810182858560051b8401019601946000925b858410610179575050505050505090565b9091929394959685806101aa600193603f1986820301885286838d518051151584520151918185820152019061011f565b990194019401929594939190610168565b60203660031901126104015760043567ffffffffffffffff80821161040157366023830112156104015781600401351161040157366024826004013560051b830101116104015760009061021281600401356111c3565b90825b8160040135811061023f5761023b8361022f863414612032565b60405191829182610144565b0390f35b909261025382856004013560248701611271565b9160608084019061026a610266836112a2565b1590565b610d5c575b600161028461027d87611394565b61ffff1690565b036102cb5750836102b86102be926102b06102a560206102c39899016114a2565b9360808101906112af565b9290916112a2565b92612190565b611236565b929092610215565b61ffff6002816102da88611394565b1603610303575050836102fd6102be926102b06102a560206102c39899016114a2565b926120bc565b909150600a8161031287611394565b160361048857505061033c61033461032d60808601866112af565b809161139e565b810190611e74565b61035561035082516001600160a01b031690565b612219565b60408481013593841561040657602061038761037b61037b838961039696019a016114a2565b6001600160a01b031690565b9301516001600160a01b031690565b91803b15610401579051632479d86360e01b81526001600160a01b03909216600483015290926000918491829081602481015b03925af19182156103fc576102c3926103e3575b50611236565b806103f06103f692611099565b80610d9c565b386103dd565b6114fa565b600080fd5b9461041d9192945061037b602061037b92016114a2565b8161043260208601516001600160a01b031690565b94015190803b15610401579151630c46aac760e31b81523360048201526001600160a01b0394909416602485015260448401526000908390606490829084905af19182156103fc576102c3926103e35750611236565b600b81610496879697611394565b160361051957505081926001600160a01b036104c66104be61032d60806104d39701886112af565b810190611f38565b9791929394909416612219565b6040936104ef61037b61037b6020888c01358095019b016114a2565b92833b15610401576103c9600096519889968795869463695ef6bf60e01b86523360048701611fd9565b600381610527869496611394565b1603610673575060009060809061057661037b61037b602061055961055161032d888801886112af565b810190611ecd565b94610570610350838801516001600160a01b031690565b016114a2565b8151956040948594610591868601516001600160a01b031690565b928501519401518551634d4d7cbd60e11b815260048101999099523360248a01526001600160a01b03909216604489015260648801939093526084870152859160a4918391905af180156103fc576102c393600090819261063b575b5091516020810192909252604082015261061481606081015b03601f19810183528261115b565b61061c61117d565b600181529060208201526106308286611db9565b526103dd8185611db9565b6106149250610606915061066490843d861161066c575b61065c818361115b565b810190611eb7565b9250906105ed565b503d610652565b60058161067f84611394565b160361073257506106c161037b61037b60206106ac6106a461032d60808801886112af565b810190611d53565b9461057061035087516001600160a01b031690565b906106d660208201516001600160a01b031690565b916040946106e686840151151590565b92015191813b1561040157945163096f9e0960e21b81523360048201526001600160a01b03909316602484015293151560448301526064820152916000908390818381608481016103c9565b60068161074184979694611394565b16036108215750508261076c61037b61037b60206106ac61033461032d60806107c49a9b01886112af565b9061078160208201516001600160a01b031690565b60409182015182516314890dcb60e21b81523360048201526001600160a01b03909216602483015260448201529390918291859190829060009082906064820190565b03925af180156103fc576102c39360009081926107f9575b509151602081019290925260408201526106148160608101610606565b6106149250610606915061081990843d861161066c5761065c818361115b565b9250906107dc565b60078161082d87611394565b16036108b257505061086b916001600160a01b0361085c61085461032d60808801886112af565b810190611dcd565b96929394989195909816612219565b60409261088761037b61037b6020878d01358096019c016114a2565b93843b15610401576000966103c99151998a97889687956307e76fc160e21b87523360048801611e2e565b6008816108be87611394565b16036109af57506020846108e961037b61037b846106ac6106a461032d608061094c9c9d01886112af565b818301516001600160a01b031691600060409561090887840151151590565b9201518651630cb0f5b760e31b81523360048201526001600160a01b0390951660248601529115156044850152606484019190915291958692839182906084820190565b03925af19283156103fc576102c393610606926106149260009261097e575b5051928391602083019190602083019252565b6109a191925060203d6020116109a8575b610999818361115b565b810190611daa565b903861096b565b503d61098f565b6009816109bb87611394565b1603610a4957506020846109e661037b61037b846106ac6106a461032d608061094c9c9d01886112af565b818301516001600160a01b0316916000604095610a0587840151151590565b920151865163cd0211eb60e01b81523360048201526001600160a01b0390951660248601529115156044850152606484019190915291958692839182906084820190565b9081600d8693610a5885611394565b1603610aff57505061037b604091602061037b95610a7c610a776118d0565b61234d565b610ad1610a9a610a9261032d60808701876112af565b810190611ae8565b9597949b939e929699919c909a610ab2610a77611b88565b610ac56001600160a01b03809c16612219565b01358098019e016114a2565b95863b15610401576000986103c9936040519c8d9a8b998a9863284e0d6960e01b8a52163360048a01611c95565b909181610b0d600e92611394565b1603610bb95750506001600160a01b03610b4c610b3b610b3361032d60808801886112af565b810190611707565b999498929591989690939616612219565b60408301350196610b6561037b61037b602086016114a2565b90813b1561040157600095610b9d6040926001600160a01b039584519b8c998a98899663e91ca19560e01b88521633600488016117b3565b03930135905af19182156103fc576102c3926103e35750611236565b600f81610bc587611394565b1603610c7457506080610be8610be061032d838801886112af565b81019061154a565b93610bfd61035086516001600160a01b031690565b604092610c1961037b61037b6020878b01358096019a016114a2565b91610c2e60208801516001600160a01b031690565b60a0610c46878a0151948a0151968a015161ffff1690565b98015195843b15610401576000966103c99151998a978896879563343b766560e01b875233600488016115be565b60109150610c83859495611394565b1603610d1357816001600160a01b03610cb0610ca861032d6080610cc19701856112af565b810190611434565b9497959a9299919396909a16612219565b60408401350197610cda61037b61037b602087016114a2565b91823b1561040157610b9d6001600160a01b039460409360009985519c8d9a8b998a97639f3a056d60e01b8952169233600489016114ac565b60405162461bcd60e51b815260206004820152601a60248201527f4d61676e657461723a20616374696f6e206e6f742076616c69640000000000006044820152606490fd5b0390fd5b610d97610d6c60808701876112af565b9050610d8f604051610d8a8161060689602083019190602083019252565b6112e2565b90151561135c565b61026f565b600091031261040157565b34610401576000366003190112610401576020604051428152f35b346104015760003660031901126104015760206040516000194301408152f35b34610401576000366003190112610401576020604051468152f35b34610401576000366003190112610401576020604051488152f35b34610401576000366003190112610401576020604051438152f35b6001600160a01b0381160361040157565b3590610e4f82610e33565b565b34610401576020366003190112610401576020600435610e7081610e33565b31604051908152f35b3461040157600080600319360112610ecc57610e9361102b565b806001600160a01b038154811981168355167f8be0079c531659141344cd1fd0a4f28419497f9722a3daafe3b4186f6b6457e08280a380f35b80fd5b34610401576000366003190112610401576020604051448152f35b34610401576000366003190112610401576020604051458152f35b346104015760003660031901126104015760206001600160a01b0360005416604051908152f35b34610401576000366003190112610401576020604051418152f35b34610401576020366003190112610401576020604051600435408152f35b3461040157602036600319011261040157600435610f8281610e33565b610f8a61102b565b6001600160a01b038091168015610fd7576000918254826001600160a01b03198216178455167f8be0079c531659141344cd1fd0a4f28419497f9722a3daafe3b4186f6b6457e08380a380f35b60405162461bcd60e51b815260206004820152602660248201527f4f776e61626c653a206e6577206f776e657220697320746865207a65726f206160448201526564647265737360d01b6064820152608490fd5b6001600160a01b0360005416330361103f57565b606460405162461bcd60e51b815260206004820152602060248201527f4f776e61626c653a2063616c6c6572206973206e6f7420746865206f776e65726044820152fd5b634e487b7160e01b600052604160045260246000fd5b67ffffffffffffffff81116110ad57604052565b611083565b6060810190811067ffffffffffffffff8211176110ad57604052565b60c0810190811067ffffffffffffffff8211176110ad57604052565b610100810190811067ffffffffffffffff8211176110ad57604052565b6080810190811067ffffffffffffffff8211176110ad57604052565b60e0810190811067ffffffffffffffff8211176110ad57604052565b6040810190811067ffffffffffffffff8211176110ad57604052565b90601f8019910116810190811067ffffffffffffffff8211176110ad57604052565b60405190610e4f8261113f565b60405190610120820182811067ffffffffffffffff8211176110ad57604052565b67ffffffffffffffff81116110ad5760051b60200190565b906111cd826111ab565b6040906111dc8251918261115b565b83815280936111ed601f19916111ab565b0190600090815b838110611202575050505050565b8451908582019180831067ffffffffffffffff8411176110ad576020928752848152826060818301528285010152016111f4565b60001981146112455760010190565b634e487b7160e01b600052601160045260246000fd5b634e487b7160e01b600052603260045260246000fd5b91908110156112935760051b81013590609e1981360301821215610401570190565b61125b565b8015150361040157565b356112ac81611298565b90565b903590601e1981360301821215610401570180359067ffffffffffffffff82116104015760200191813603831361040157565b90610e4f604c60405180947f4d61676e657461723a204d697373696e672063616c6c20666f7220616374696f60208301526b0dc40eed2e8d040d2dcc8caf60a31b604083015261133b81518092602086860191016100fc565b810103602c81018552018361115b565b9060206112ac92818152019061011f565b156113645750565b60405162461bcd60e51b815260206004820152908190610d5890602483019061011f565b61ffff81160361040157565b356112ac81611388565b909291928360041161040157831161040157600401916003190190565b3590610e4f82611388565b67ffffffffffffffff81116110ad57601f01601f191660200190565b81601f82011215610401578035906113f9826113c6565b92611407604051948561115b565b8284526020838301011161040157816000926020809301838601378301015290565b3590610e4f82611298565b60e08183031261040157803561144981610e33565b92602082013592604083013592606081013561146481611388565b92608082013561147381610e33565b9260a083013567ffffffffffffffff81116104015760c0916114969185016113e2565b9201356112ac81611298565b356112ac81610e33565b95926114f29461ffff9160c09793949a999a6001600160a01b038096168a5260208a0152604089015216606087015216608085015260e060a085015260e084019061011f565b931515910152565b6040513d6000823e3d90fd5b91908260609103126104015760405161151e816110b2565b604080829480358452602081013561153581610e33565b602085015201359161154683611298565b0152565b9061010082820312610401576115b69060a060405193611569856110ce565b803561157481610e33565b8552602081013561158481610e33565b6020860152604081013560408601526060810135606086015260808101356115ab81611388565b608086015201611506565b60a082015290565b9196959394610e4f9560a09461ffff9361010086019a6001600160a01b03809216875216602086015260408501526060840152166080820152019060408091805184526001600160a01b03602082015116602085015201511515910152565b359060ff8216820361040157565b81601f8201121561040157803590611642826111ab565b926040926116528451958661115b565b808552602091828087019260081b85010193818511610401578301915b84831061167f5750505050505090565b61010083830312610401578361010091875161169a816110ea565b6116a386610e44565b81526116b0838701610e44565b838201526116bf898701610e44565b89820152606080870135908201526080808701359082015260a06116e481880161161d565b9082015260c0808701359082015260e0808701359082015281520192019161166f565b91909180830390610140821261040157803561172281610e33565b93602082013561173181610e33565b936060604084013561174281611388565b94605f19011261040157604051611758816110b2565b60608401358152608084013561176d81610e33565b602082015260a084013561178081610e33565b6040820152926117938360c08301611506565b9261012082013567ffffffffffffffff8111610401576112ac920161162b565b94929192610140808701956001600160a01b03809416885283602096168689015261ffff60409516858901528561016082519960609a8b820152868881858701511695608096878501520151169460a0958683015261183660c0978884019060408091805184526001600160a01b03602082015116602085015201511515910152565b6101208201528b51809a52019901976000955b88871061185d575050505050505050505090565b90919293949596979899886101006001928d518a81511682528a8482015116848301528a868201511686830152868101518783015287810151888301526118ac898201518a84019060ff169052565b808a0151828b015260e09081015190820152019b0199989701959493929190611849565b604051906118dd8261113f565b60088252676465636f64696e6760c01b6020830152565b91908260809103126104015760405161190c81611107565b60608082948035845260208101356020850152604081013561192d81610e33565b604085015201359161154683610e33565b9190608083820312610401576040519061195782611107565b819380358352602081013561196b81611298565b6020840152604081013561197e81611388565b604084015260608101359167ffffffffffffffff8311610401576060926119a592016113e2565b910152565b9190826080910312610401576040516119c281611107565b60608082948035845260208101356119d981610e33565b602085015260408101356119ec81611298565b604085015201359161154683611298565b81601f8201121561040157803590611a14826111ab565b92604090611a248251958661115b565b838552602091828601918361012080970286010194818611610401578401925b858410611a55575050505050505090565b868483031261040157848791611a6961118a565b611a7287610e44565b8152611a7f838801611429565b83820152611a8e868801610e44565b868201526060611a9f818901610e44565b908201526080808801359082015260a0808801359082015260c0611ac481890161161d565b9082015260e080880135908201526101008088013590820152815201930192611a44565b906101c08282031261040157611afd82610e44565b92611b0a60208401610e44565b92611b17604082016113bb565b9267ffffffffffffffff60608301358181116104015782611b399185016113e2565b93611b4783608086016118f4565b936101008101358381116104015784611b6191830161193e565b93611b708161012084016119aa565b936101a0830135908111610401576112ac92016119fd565b60405190611b958261113f565b6007825266191958dbd9195960ca1b6020830152565b90608060606112ac938051845260208101511515602085015261ffff6040820151166040850152015191816060820152019061011f565b90815180825260208080930193019160005b828110611c02575050505090565b909192938261012060019287516001600160a01b03815116825283810151151584830152611c40604080830151908401906001600160a01b03169052565b6060818101516001600160a01b0316908301526080818101519083015260a0808201519083015260c08082015160ff169083015260e08181015190830152610100908101519082015201950193929101611bf4565b94916060611cd8611d459661ffff611d0c976112ac9d9b966001600160a01b0396878092168d521660208c01521660408a01526101c080848b015289019061011f565b9380516080890152602081015160a08901528260408201511660c089015201511660e0860152848203610100860152611bab565b845161012084015260208501516001600160a01b0316610140840152604085015115156101608401526060909401511515610180830152565b6101a0818403910152611be2565b9081608091031261040157606060405191611d6d83611107565b8035611d7881610e33565b83526020810135611d8881610e33565b60208401526040810135611d9b81611298565b60408401520135606082015290565b90816020910312610401575190565b80518210156112935760209160051b010190565b909160c082840312610401578135611de481610e33565b926020830135611df381611388565b92604081013592606082013592608083013567ffffffffffffffff81116104015760a091611e229185016113e2565b9201356112ac81610e33565b9490929360a09461ffff611e6d949998996001600160a01b0380971689521660208801526040870152606086015260c0608086015260c085019061011f565b9416910152565b90816060910312610401576040805191611e8d836110b2565b8035611e9881610e33565b83526020810135611ea881610e33565b60208401520135604082015290565b9190826040910312610401576020825192015190565b908160a0910312610401576040519060a082019082821067ffffffffffffffff8311176110ad57608091604052803583526020810135611f0c81610e33565b60208401526040810135611f1f81610e33565b6040840152606081013560608401520135608082015290565b91909160a081840312610401578035611f5081610e33565b926020820135611f5f81611388565b92604083013592606081013592608082013567ffffffffffffffff928382116104015701906060828203126104015760405192611f9b846110b2565b8235611fa681610e33565b84526020830135611fb681610e33565b6020850152604083013590811161040157611fd192016113e2565b604082015290565b93906112ac95916101009461ffff6040956001600160a01b03809516895216602088015284870152606086015260a060808601528082511660a086015260208201511660c0850152015191606060e0820152019061011f565b1561203957565b60405162461bcd60e51b815260206004820152601860248201527f4d61676e657461723a2076616c7565206d69736d6174636800000000000000006044820152606490fd5b908092918237016000815290565b3d156120b7573d9061209d826113c6565b916120ab604051938461115b565b82523d6000602084013e565b606090565b826004116104015760e060031983858101030112610401576000928380936121556001600160a01b036040516120f181611123565b60048401359061210082610e33565b818152602485013561211181610e33565b602082015260448501356040820152606485013560608201526121366084860161161d565b608082015260a485013560a082015260c060c486013591015216612219565b6121646040518094819361207e565b03925af19061217161208c565b91159081612187575b506121825750565b61226f565b9050153861217a565b60c09261219e81808561139e565b90809591810103126104015760008094936121556001600160a01b0383966040516121c8816110ce565b60a0808335936121d785610e33565b84845260208101356121e881610e33565b6020850152604081013560408501526122036060820161161d565b6060850152608081013560808501520135910152165b6001600160a01b0316330361222a57565b60405162461bcd60e51b815260206004820152601660248201527f4d61676e657461723a20756e617574686f72697a6564000000000000000000006044820152606490fd5b6044815110612308576004810151810190602081602484019303126104015760248101519067ffffffffffffffff821161040157019080604383011215610401576024820151916122bf836113c6565b916122cd604051938461115b565b8383526044848301011161040157610d58926122f09160446020850191016100fc565b60405162461bcd60e51b81529182916004830161134b565b60405162461bcd60e51b815260206004820152600e60248201527f526561736f6e20756e6b6e6f776e0000000000000000000000000000000000006044820152606490fd5b6000809160405161237b81610606602082019463104c13eb60e21b865260206024840152604483019061011f565b51906a636f6e736f6c652e6c6f675afa5056fea2646970667358221220fcaebe1dd385a66f33afd113dffab95f8a228c85c57422de1648c31cb19e1c0364736f6c63430008120033","opcodes":"PUSH1 0x80 CALLVALUE PUSH3 0x127 JUMPI PUSH1 0x1F PUSH3 0x254E CODESIZE DUP2 SWAP1 SUB SWAP2 DUP3 ADD PUSH1 0x1F NOT AND DUP4 ADD SWAP2 PUSH1 0x1 PUSH1 0x1 PUSH1 0x40 SHL SUB DUP4 GT DUP5 DUP5 LT OR PUSH3 0x12C JUMPI DUP1 DUP5 SWAP3 PUSH1 0x20 SWAP5 PUSH1 0x40 MSTORE DUP4 CODECOPY DUP2 ADD SUB SLT PUSH3 0x127 JUMPI MLOAD PUSH1 0x1 PUSH1 0x1 PUSH1 0xA0 SHL SUB DUP1 DUP3 AND SWAP1 DUP2 DUP4 SUB PUSH3 0x127 JUMPI PUSH3 0x62 CALLER PUSH3 0x142 JUMP JUMPDEST CALLER SWAP1 PUSH1 0x0 SLOAD AND SUB PUSH3 0xE3 JUMPI ISZERO PUSH3 0x8F JUMPI PUSH3 0x7F SWAP1 PUSH3 0x142 JUMP JUMPDEST PUSH1 0x40 MLOAD PUSH2 0x23C4 SWAP1 DUP2 PUSH3 0x18A DUP3 CODECOPY RETURN JUMPDEST PUSH1 0x40 MLOAD PUSH3 0x461BCD PUSH1 0xE5 SHL DUP2 MSTORE PUSH1 0x20 PUSH1 0x4 DUP3 ADD MSTORE PUSH1 0x26 PUSH1 0x24 DUP3 ADD MSTORE PUSH32 0x4F776E61626C653A206E6577206F776E657220697320746865207A65726F2061 PUSH1 0x44 DUP3 ADD MSTORE PUSH6 0x646472657373 PUSH1 0xD0 SHL PUSH1 0x64 DUP3 ADD MSTORE PUSH1 0x84 SWAP1 REVERT JUMPDEST PUSH1 0x64 PUSH1 0x40 MLOAD PUSH3 0x461BCD PUSH1 0xE5 SHL DUP2 MSTORE PUSH1 0x20 PUSH1 0x4 DUP3 ADD MSTORE PUSH1 0x20 PUSH1 0x24 DUP3 ADD MSTORE PUSH32 0x4F776E61626C653A2063616C6C6572206973206E6F7420746865206F776E6572 PUSH1 0x44 DUP3 ADD MSTORE REVERT JUMPDEST PUSH1 0x0 DUP1 REVERT JUMPDEST PUSH4 0x4E487B71 PUSH1 0xE0 SHL PUSH1 0x0 MSTORE PUSH1 0x41 PUSH1 0x4 MSTORE PUSH1 0x24 PUSH1 0x0 REVERT JUMPDEST PUSH1 0x0 DUP1 SLOAD PUSH1 0x1 PUSH1 0x1 PUSH1 0xA0 SHL SUB SWAP3 DUP4 AND PUSH1 0x1 PUSH1 0x1 PUSH1 0xA0 SHL SUB NOT DUP3 AND DUP2 OR DUP4 SSTORE SWAP3 AND SWAP1 PUSH32 0x8BE0079C531659141344CD1FD0A4F28419497F9722A3DAAFE3B4186F6B6457E0 SWAP1 DUP1 LOG3 JUMP INVALID PUSH1 0x80 PUSH1 0x40 MSTORE PUSH1 0x4 CALLDATASIZE LT ISZERO PUSH2 0x12 JUMPI PUSH1 0x0 DUP1 REVERT JUMPDEST PUSH1 0x0 CALLDATALOAD PUSH1 0xE0 SHR DUP1 PUSH4 0x13546E1 EQ PUSH2 0xF7 JUMPI DUP1 PUSH4 0xF28C97D EQ PUSH2 0xF2 JUMPI DUP1 PUSH4 0x27E86D6E EQ PUSH2 0xED JUMPI DUP1 PUSH4 0x3408E470 EQ PUSH2 0xE8 JUMPI DUP1 PUSH4 0x3E64A696 EQ PUSH2 0xE3 JUMPI DUP1 PUSH4 0x42CBB15C EQ PUSH2 0xDE JUMPI DUP1 PUSH4 0x4D2301CC EQ PUSH2 0xD9 JUMPI DUP1 PUSH4 0x715018A6 EQ PUSH2 0xD4 JUMPI DUP1 PUSH4 0x72425D9D EQ PUSH2 0xCF JUMPI DUP1 PUSH4 0x86D516E8 EQ PUSH2 0xCA JUMPI DUP1 PUSH4 0x8DA5CB5B EQ PUSH2 0xC5 JUMPI DUP1 PUSH4 0xA8B0574E EQ PUSH2 0xC0 JUMPI DUP1 PUSH4 0xEE82AC5E EQ PUSH2 0xBB JUMPI PUSH4 0xF2FDE38B EQ PUSH2 0xB6 JUMPI PUSH1 0x0 DUP1 REVERT JUMPDEST PUSH2 0xF65 JUMP JUMPDEST PUSH2 0xF47 JUMP JUMPDEST PUSH2 0xF2C JUMP JUMPDEST PUSH2 0xF05 JUMP JUMPDEST PUSH2 0xEEA JUMP JUMPDEST PUSH2 0xECF JUMP JUMPDEST PUSH2 0xE79 JUMP JUMPDEST PUSH2 0xE51 JUMP JUMPDEST PUSH2 0xE18 JUMP JUMPDEST PUSH2 0xDFD JUMP JUMPDEST PUSH2 0xDE2 JUMP JUMPDEST PUSH2 0xDC2 JUMP JUMPDEST PUSH2 0xDA7 JUMP JUMPDEST PUSH2 0x1BB JUMP JUMPDEST PUSH1 0x0 JUMPDEST DUP4 DUP2 LT PUSH2 0x10F JUMPI POP POP PUSH1 0x0 SWAP2 ADD MSTORE JUMP JUMPDEST DUP2 DUP2 ADD MLOAD DUP4 DUP3 ADD MSTORE PUSH1 0x20 ADD PUSH2 0xFF JUMP JUMPDEST SWAP1 PUSH1 0x20 SWAP2 PUSH2 0x138 DUP2 MLOAD DUP1 SWAP3 DUP2 DUP6 MSTORE DUP6 DUP1 DUP7 ADD SWAP2 ADD PUSH2 0xFC JUMP JUMPDEST PUSH1 0x1F ADD PUSH1 0x1F NOT AND ADD ADD SWAP1 JUMP JUMPDEST PUSH1 0x20 DUP1 DUP3 ADD SWAP1 DUP1 DUP4 MSTORE DUP4 MLOAD DUP1 SWAP3 MSTORE PUSH1 0x40 SWAP3 DUP4 DUP2 ADD DUP3 DUP6 DUP6 PUSH1 0x5 SHL DUP5 ADD ADD SWAP7 ADD SWAP5 PUSH1 0x0 SWAP3 JUMPDEST DUP6 DUP5 LT PUSH2 0x179 JUMPI POP POP POP POP POP POP POP SWAP1 JUMP JUMPDEST SWAP1 SWAP2 SWAP3 SWAP4 SWAP5 SWAP6 SWAP7 DUP6 DUP1 PUSH2 0x1AA PUSH1 0x1 SWAP4 PUSH1 0x3F NOT DUP7 DUP3 SUB ADD DUP9 MSTORE DUP7 DUP4 DUP14 MLOAD DUP1 MLOAD ISZERO ISZERO DUP5 MSTORE ADD MLOAD SWAP2 DUP2 DUP6 DUP3 ADD MSTORE ADD SWAP1 PUSH2 0x11F JUMP JUMPDEST SWAP10 ADD SWAP5 ADD SWAP5 ADD SWAP3 SWAP6 SWAP5 SWAP4 SWAP2 SWAP1 PUSH2 0x168 JUMP JUMPDEST PUSH1 0x20 CALLDATASIZE PUSH1 0x3 NOT ADD SLT PUSH2 0x401 JUMPI PUSH1 0x4 CALLDATALOAD PUSH8 0xFFFFFFFFFFFFFFFF DUP1 DUP3 GT PUSH2 0x401 JUMPI CALLDATASIZE PUSH1 0x23 DUP4 ADD SLT ISZERO PUSH2 0x401 JUMPI DUP2 PUSH1 0x4 ADD CALLDATALOAD GT PUSH2 0x401 JUMPI CALLDATASIZE PUSH1 0x24 DUP3 PUSH1 0x4 ADD CALLDATALOAD PUSH1 0x5 SHL DUP4 ADD ADD GT PUSH2 0x401 JUMPI PUSH1 0x0 SWAP1 PUSH2 0x212 DUP2 PUSH1 0x4 ADD CALLDATALOAD PUSH2 0x11C3 JUMP JUMPDEST SWAP1 DUP3 JUMPDEST DUP2 PUSH1 0x4 ADD CALLDATALOAD DUP2 LT PUSH2 0x23F JUMPI PUSH2 0x23B DUP4 PUSH2 0x22F DUP7 CALLVALUE EQ PUSH2 0x2032 JUMP JUMPDEST PUSH1 0x40 MLOAD SWAP2 DUP3 SWAP2 DUP3 PUSH2 0x144 JUMP JUMPDEST SUB SWAP1 RETURN JUMPDEST SWAP1 SWAP3 PUSH2 0x253 DUP3 DUP6 PUSH1 0x4 ADD CALLDATALOAD PUSH1 0x24 DUP8 ADD PUSH2 0x1271 JUMP JUMPDEST SWAP2 PUSH1 0x60 DUP1 DUP5 ADD SWAP1 PUSH2 0x26A PUSH2 0x266 DUP4 PUSH2 0x12A2 JUMP JUMPDEST ISZERO SWAP1 JUMP JUMPDEST PUSH2 0xD5C JUMPI JUMPDEST PUSH1 0x1 PUSH2 0x284 PUSH2 0x27D DUP8 PUSH2 0x1394 JUMP JUMPDEST PUSH2 0xFFFF AND SWAP1 JUMP JUMPDEST SUB PUSH2 0x2CB JUMPI POP DUP4 PUSH2 0x2B8 PUSH2 0x2BE SWAP3 PUSH2 0x2B0 PUSH2 0x2A5 PUSH1 0x20 PUSH2 0x2C3 SWAP9 SWAP10 ADD PUSH2 0x14A2 JUMP JUMPDEST SWAP4 PUSH1 0x80 DUP2 ADD SWAP1 PUSH2 0x12AF JUMP JUMPDEST SWAP3 SWAP1 SWAP2 PUSH2 0x12A2 JUMP JUMPDEST SWAP3 PUSH2 0x2190 JUMP JUMPDEST PUSH2 0x1236 JUMP JUMPDEST SWAP3 SWAP1 SWAP3 PUSH2 0x215 JUMP JUMPDEST PUSH2 0xFFFF PUSH1 0x2 DUP2 PUSH2 0x2DA DUP9 PUSH2 0x1394 JUMP JUMPDEST AND SUB PUSH2 0x303 JUMPI POP POP DUP4 PUSH2 0x2FD PUSH2 0x2BE SWAP3 PUSH2 0x2B0 PUSH2 0x2A5 PUSH1 0x20 PUSH2 0x2C3 SWAP9 SWAP10 ADD PUSH2 0x14A2 JUMP JUMPDEST SWAP3 PUSH2 0x20BC JUMP JUMPDEST SWAP1 SWAP2 POP PUSH1 0xA DUP2 PUSH2 0x312 DUP8 PUSH2 0x1394 JUMP JUMPDEST AND SUB PUSH2 0x488 JUMPI POP POP PUSH2 0x33C PUSH2 0x334 PUSH2 0x32D PUSH1 0x80 DUP7 ADD DUP7 PUSH2 0x12AF JUMP JUMPDEST DUP1 SWAP2 PUSH2 0x139E JUMP JUMPDEST DUP2 ADD SWAP1 PUSH2 0x1E74 JUMP JUMPDEST PUSH2 0x355 PUSH2 0x350 DUP3 MLOAD PUSH1 0x1 PUSH1 0x1 PUSH1 0xA0 SHL SUB AND SWAP1 JUMP JUMPDEST PUSH2 0x2219 JUMP JUMPDEST PUSH1 0x40 DUP5 DUP2 ADD CALLDATALOAD SWAP4 DUP5 ISZERO PUSH2 0x406 JUMPI PUSH1 0x20 PUSH2 0x387 PUSH2 0x37B PUSH2 0x37B DUP4 DUP10 PUSH2 0x396 SWAP7 ADD SWAP11 ADD PUSH2 0x14A2 JUMP JUMPDEST PUSH1 0x1 PUSH1 0x1 PUSH1 0xA0 SHL SUB AND SWAP1 JUMP JUMPDEST SWAP4 ADD MLOAD PUSH1 0x1 PUSH1 0x1 PUSH1 0xA0 SHL SUB AND SWAP1 JUMP JUMPDEST SWAP2 DUP1 EXTCODESIZE ISZERO PUSH2 0x401 JUMPI SWAP1 MLOAD PUSH4 0x2479D863 PUSH1 0xE0 SHL DUP2 MSTORE PUSH1 0x1 PUSH1 0x1 PUSH1 0xA0 SHL SUB SWAP1 SWAP3 AND PUSH1 0x4 DUP4 ADD MSTORE SWAP1 SWAP3 PUSH1 0x0 SWAP2 DUP5 SWAP2 DUP3 SWAP1 DUP2 PUSH1 0x24 DUP2 ADD JUMPDEST SUB SWAP3 GAS CALL SWAP2 DUP3 ISZERO PUSH2 0x3FC JUMPI PUSH2 0x2C3 SWAP3 PUSH2 0x3E3 JUMPI JUMPDEST POP PUSH2 0x1236 JUMP JUMPDEST DUP1 PUSH2 0x3F0 PUSH2 0x3F6 SWAP3 PUSH2 0x1099 JUMP JUMPDEST DUP1 PUSH2 0xD9C JUMP JUMPDEST CODESIZE PUSH2 0x3DD JUMP JUMPDEST PUSH2 0x14FA JUMP JUMPDEST PUSH1 0x0 DUP1 REVERT JUMPDEST SWAP5 PUSH2 0x41D SWAP2 SWAP3 SWAP5 POP PUSH2 0x37B PUSH1 0x20 PUSH2 0x37B SWAP3 ADD PUSH2 0x14A2 JUMP JUMPDEST DUP2 PUSH2 0x432 PUSH1 0x20 DUP7 ADD MLOAD PUSH1 0x1 PUSH1 0x1 PUSH1 0xA0 SHL SUB AND SWAP1 JUMP JUMPDEST SWAP5 ADD MLOAD SWAP1 DUP1 EXTCODESIZE ISZERO PUSH2 0x401 JUMPI SWAP2 MLOAD PUSH4 0xC46AAC7 PUSH1 0xE3 SHL DUP2 MSTORE CALLER PUSH1 0x4 DUP3 ADD MSTORE PUSH1 0x1 PUSH1 0x1 PUSH1 0xA0 SHL SUB SWAP5 SWAP1 SWAP5 AND PUSH1 0x24 DUP6 ADD MSTORE PUSH1 0x44 DUP5 ADD MSTORE PUSH1 0x0 SWAP1 DUP4 SWAP1 PUSH1 0x64 SWAP1 DUP3 SWAP1 DUP5 SWAP1 GAS CALL SWAP2 DUP3 ISZERO PUSH2 0x3FC JUMPI PUSH2 0x2C3 SWAP3 PUSH2 0x3E3 JUMPI POP PUSH2 0x1236 JUMP JUMPDEST PUSH1 0xB DUP2 PUSH2 0x496 DUP8 SWAP7 SWAP8 PUSH2 0x1394 JUMP JUMPDEST AND SUB PUSH2 0x519 JUMPI POP POP DUP2 SWAP3 PUSH1 0x1 PUSH1 0x1 PUSH1 0xA0 SHL SUB PUSH2 0x4C6 PUSH2 0x4BE PUSH2 0x32D PUSH1 0x80 PUSH2 0x4D3 SWAP8 ADD DUP9 PUSH2 0x12AF JUMP JUMPDEST DUP2 ADD SWAP1 PUSH2 0x1F38 JUMP JUMPDEST SWAP8 SWAP2 SWAP3 SWAP4 SWAP5 SWAP1 SWAP5 AND PUSH2 0x2219 JUMP JUMPDEST PUSH1 0x40 SWAP4 PUSH2 0x4EF PUSH2 0x37B PUSH2 0x37B PUSH1 0x20 DUP9 DUP13 ADD CALLDATALOAD DUP1 SWAP6 ADD SWAP12 ADD PUSH2 0x14A2 JUMP JUMPDEST SWAP3 DUP4 EXTCODESIZE ISZERO PUSH2 0x401 JUMPI PUSH2 0x3C9 PUSH1 0x0 SWAP7 MLOAD SWAP9 DUP10 SWAP7 DUP8 SWAP6 DUP7 SWAP5 PUSH4 0x695EF6BF PUSH1 0xE0 SHL DUP7 MSTORE CALLER PUSH1 0x4 DUP8 ADD PUSH2 0x1FD9 JUMP JUMPDEST PUSH1 0x3 DUP2 PUSH2 0x527 DUP7 SWAP5 SWAP7 PUSH2 0x1394 JUMP JUMPDEST AND SUB PUSH2 0x673 JUMPI POP PUSH1 0x0 SWAP1 PUSH1 0x80 SWAP1 PUSH2 0x576 PUSH2 0x37B PUSH2 0x37B PUSH1 0x20 PUSH2 0x559 PUSH2 0x551 PUSH2 0x32D DUP9 DUP9 ADD DUP9 PUSH2 0x12AF JUMP JUMPDEST DUP2 ADD SWAP1 PUSH2 0x1ECD JUMP JUMPDEST SWAP5 PUSH2 0x570 PUSH2 0x350 DUP4 DUP9 ADD MLOAD PUSH1 0x1 PUSH1 0x1 PUSH1 0xA0 SHL SUB AND SWAP1 JUMP JUMPDEST ADD PUSH2 0x14A2 JUMP JUMPDEST DUP2 MLOAD SWAP6 PUSH1 0x40 SWAP5 DUP6 SWAP5 PUSH2 0x591 DUP7 DUP7 ADD MLOAD PUSH1 0x1 PUSH1 0x1 PUSH1 0xA0 SHL SUB AND SWAP1 JUMP JUMPDEST SWAP3 DUP6 ADD MLOAD SWAP5 ADD MLOAD DUP6 MLOAD PUSH4 0x4D4D7CBD PUSH1 0xE1 SHL DUP2 MSTORE PUSH1 0x4 DUP2 ADD SWAP10 SWAP1 SWAP10 MSTORE CALLER PUSH1 0x24 DUP11 ADD MSTORE PUSH1 0x1 PUSH1 0x1 PUSH1 0xA0 SHL SUB SWAP1 SWAP3 AND PUSH1 0x44 DUP10 ADD MSTORE PUSH1 0x64 DUP9 ADD SWAP4 SWAP1 SWAP4 MSTORE PUSH1 0x84 DUP8 ADD MSTORE DUP6 SWAP2 PUSH1 0xA4 SWAP2 DUP4 SWAP2 SWAP1 GAS CALL DUP1 ISZERO PUSH2 0x3FC JUMPI PUSH2 0x2C3 SWAP4 PUSH1 0x0 SWAP1 DUP2 SWAP3 PUSH2 0x63B JUMPI JUMPDEST POP SWAP2 MLOAD PUSH1 0x20 DUP2 ADD SWAP3 SWAP1 SWAP3 MSTORE PUSH1 0x40 DUP3 ADD MSTORE PUSH2 0x614 DUP2 PUSH1 0x60 DUP2 ADD JUMPDEST SUB PUSH1 0x1F NOT DUP2 ADD DUP4 MSTORE DUP3 PUSH2 0x115B JUMP JUMPDEST PUSH2 0x61C PUSH2 0x117D JUMP JUMPDEST PUSH1 0x1 DUP2 MSTORE SWAP1 PUSH1 0x20 DUP3 ADD MSTORE PUSH2 0x630 DUP3 DUP7 PUSH2 0x1DB9 JUMP JUMPDEST MSTORE PUSH2 0x3DD DUP2 DUP6 PUSH2 0x1DB9 JUMP JUMPDEST PUSH2 0x614 SWAP3 POP PUSH2 0x606 SWAP2 POP PUSH2 0x664 SWAP1 DUP5 RETURNDATASIZE DUP7 GT PUSH2 0x66C JUMPI JUMPDEST PUSH2 0x65C DUP2 DUP4 PUSH2 0x115B JUMP JUMPDEST DUP2 ADD SWAP1 PUSH2 0x1EB7 JUMP JUMPDEST SWAP3 POP SWAP1 PUSH2 0x5ED JUMP JUMPDEST POP RETURNDATASIZE PUSH2 0x652 JUMP JUMPDEST PUSH1 0x5 DUP2 PUSH2 0x67F DUP5 PUSH2 0x1394 JUMP JUMPDEST AND SUB PUSH2 0x732 JUMPI POP PUSH2 0x6C1 PUSH2 0x37B PUSH2 0x37B PUSH1 0x20 PUSH2 0x6AC PUSH2 0x6A4 PUSH2 0x32D PUSH1 0x80 DUP9 ADD DUP9 PUSH2 0x12AF JUMP JUMPDEST DUP2 ADD SWAP1 PUSH2 0x1D53 JUMP JUMPDEST SWAP5 PUSH2 0x570 PUSH2 0x350 DUP8 MLOAD PUSH1 0x1 PUSH1 0x1 PUSH1 0xA0 SHL SUB AND SWAP1 JUMP JUMPDEST SWAP1 PUSH2 0x6D6 PUSH1 0x20 DUP3 ADD MLOAD PUSH1 0x1 PUSH1 0x1 PUSH1 0xA0 SHL SUB AND SWAP1 JUMP JUMPDEST SWAP2 PUSH1 0x40 SWAP5 PUSH2 0x6E6 DUP7 DUP5 ADD MLOAD ISZERO ISZERO SWAP1 JUMP JUMPDEST SWAP3 ADD MLOAD SWAP2 DUP2 EXTCODESIZE ISZERO PUSH2 0x401 JUMPI SWAP5 MLOAD PUSH4 0x96F9E09 PUSH1 0xE2 SHL DUP2 MSTORE CALLER PUSH1 0x4 DUP3 ADD MSTORE PUSH1 0x1 PUSH1 0x1 PUSH1 0xA0 SHL SUB SWAP1 SWAP4 AND PUSH1 0x24 DUP5 ADD MSTORE SWAP4 ISZERO ISZERO PUSH1 0x44 DUP4 ADD MSTORE PUSH1 0x64 DUP3 ADD MSTORE SWAP2 PUSH1 0x0 SWAP1 DUP4 SWAP1 DUP2 DUP4 DUP2 PUSH1 0x84 DUP2 ADD PUSH2 0x3C9 JUMP JUMPDEST PUSH1 0x6 DUP2 PUSH2 0x741 DUP5 SWAP8 SWAP7 SWAP5 PUSH2 0x1394 JUMP JUMPDEST AND SUB PUSH2 0x821 JUMPI POP POP DUP3 PUSH2 0x76C PUSH2 0x37B PUSH2 0x37B PUSH1 0x20 PUSH2 0x6AC PUSH2 0x334 PUSH2 0x32D PUSH1 0x80 PUSH2 0x7C4 SWAP11 SWAP12 ADD DUP9 PUSH2 0x12AF JUMP JUMPDEST SWAP1 PUSH2 0x781 PUSH1 0x20 DUP3 ADD MLOAD PUSH1 0x1 PUSH1 0x1 PUSH1 0xA0 SHL SUB AND SWAP1 JUMP JUMPDEST PUSH1 0x40 SWAP2 DUP3 ADD MLOAD DUP3 MLOAD PUSH4 0x14890DCB PUSH1 0xE2 SHL DUP2 MSTORE CALLER PUSH1 0x4 DUP3 ADD MSTORE PUSH1 0x1 PUSH1 0x1 PUSH1 0xA0 SHL SUB SWAP1 SWAP3 AND PUSH1 0x24 DUP4 ADD MSTORE PUSH1 0x44 DUP3 ADD MSTORE SWAP4 SWAP1 SWAP2 DUP3 SWAP2 DUP6 SWAP2 SWAP1 DUP3 SWAP1 PUSH1 0x0 SWAP1 DUP3 SWAP1 PUSH1 0x64 DUP3 ADD SWAP1 JUMP JUMPDEST SUB SWAP3 GAS CALL DUP1 ISZERO PUSH2 0x3FC JUMPI PUSH2 0x2C3 SWAP4 PUSH1 0x0 SWAP1 DUP2 SWAP3 PUSH2 0x7F9 JUMPI JUMPDEST POP SWAP2 MLOAD PUSH1 0x20 DUP2 ADD SWAP3 SWAP1 SWAP3 MSTORE PUSH1 0x40 DUP3 ADD MSTORE PUSH2 0x614 DUP2 PUSH1 0x60 DUP2 ADD PUSH2 0x606 JUMP JUMPDEST PUSH2 0x614 SWAP3 POP PUSH2 0x606 SWAP2 POP PUSH2 0x819 SWAP1 DUP5 RETURNDATASIZE DUP7 GT PUSH2 0x66C JUMPI PUSH2 0x65C DUP2 DUP4 PUSH2 0x115B JUMP JUMPDEST SWAP3 POP SWAP1 PUSH2 0x7DC JUMP JUMPDEST PUSH1 0x7 DUP2 PUSH2 0x82D DUP8 PUSH2 0x1394 JUMP JUMPDEST AND SUB PUSH2 0x8B2 JUMPI POP POP PUSH2 0x86B SWAP2 PUSH1 0x1 PUSH1 0x1 PUSH1 0xA0 SHL SUB PUSH2 0x85C PUSH2 0x854 PUSH2 0x32D PUSH1 0x80 DUP9 ADD DUP9 PUSH2 0x12AF JUMP JUMPDEST DUP2 ADD SWAP1 PUSH2 0x1DCD JUMP JUMPDEST SWAP7 SWAP3 SWAP4 SWAP5 SWAP9 SWAP2 SWAP6 SWAP1 SWAP9 AND PUSH2 0x2219 JUMP JUMPDEST PUSH1 0x40 SWAP3 PUSH2 0x887 PUSH2 0x37B PUSH2 0x37B PUSH1 0x20 DUP8 DUP14 ADD CALLDATALOAD DUP1 SWAP7 ADD SWAP13 ADD PUSH2 0x14A2 JUMP JUMPDEST SWAP4 DUP5 EXTCODESIZE ISZERO PUSH2 0x401 JUMPI PUSH1 0x0 SWAP7 PUSH2 0x3C9 SWAP2 MLOAD SWAP10 DUP11 SWAP8 DUP9 SWAP7 DUP8 SWAP6 PUSH4 0x7E76FC1 PUSH1 0xE2 SHL DUP8 MSTORE CALLER PUSH1 0x4 DUP9 ADD PUSH2 0x1E2E JUMP JUMPDEST PUSH1 0x8 DUP2 PUSH2 0x8BE DUP8 PUSH2 0x1394 JUMP JUMPDEST AND SUB PUSH2 0x9AF JUMPI POP PUSH1 0x20 DUP5 PUSH2 0x8E9 PUSH2 0x37B PUSH2 0x37B DUP5 PUSH2 0x6AC PUSH2 0x6A4 PUSH2 0x32D PUSH1 0x80 PUSH2 0x94C SWAP13 SWAP14 ADD DUP9 PUSH2 0x12AF JUMP JUMPDEST DUP2 DUP4 ADD MLOAD PUSH1 0x1 PUSH1 0x1 PUSH1 0xA0 SHL SUB AND SWAP2 PUSH1 0x0 PUSH1 0x40 SWAP6 PUSH2 0x908 DUP8 DUP5 ADD MLOAD ISZERO ISZERO SWAP1 JUMP JUMPDEST SWAP3 ADD MLOAD DUP7 MLOAD PUSH4 0xCB0F5B7 PUSH1 0xE3 SHL DUP2 MSTORE CALLER PUSH1 0x4 DUP3 ADD MSTORE PUSH1 0x1 PUSH1 0x1 PUSH1 0xA0 SHL SUB SWAP1 SWAP6 AND PUSH1 0x24 DUP7 ADD MSTORE SWAP2 ISZERO ISZERO PUSH1 0x44 DUP6 ADD MSTORE PUSH1 0x64 DUP5 ADD SWAP2 SWAP1 SWAP2 MSTORE SWAP2 SWAP6 DUP7 SWAP3 DUP4 SWAP2 DUP3 SWAP1 PUSH1 0x84 DUP3 ADD SWAP1 JUMP JUMPDEST SUB SWAP3 GAS CALL SWAP3 DUP4 ISZERO PUSH2 0x3FC JUMPI PUSH2 0x2C3 SWAP4 PUSH2 0x606 SWAP3 PUSH2 0x614 SWAP3 PUSH1 0x0 SWAP3 PUSH2 0x97E JUMPI JUMPDEST POP MLOAD SWAP3 DUP4 SWAP2 PUSH1 0x20 DUP4 ADD SWAP2 SWAP1 PUSH1 0x20 DUP4 ADD SWAP3 MSTORE JUMP JUMPDEST PUSH2 0x9A1 SWAP2 SWAP3 POP PUSH1 0x20 RETURNDATASIZE PUSH1 0x20 GT PUSH2 0x9A8 JUMPI JUMPDEST PUSH2 0x999 DUP2 DUP4 PUSH2 0x115B JUMP JUMPDEST DUP2 ADD SWAP1 PUSH2 0x1DAA JUMP JUMPDEST SWAP1 CODESIZE PUSH2 0x96B JUMP JUMPDEST POP RETURNDATASIZE PUSH2 0x98F JUMP JUMPDEST PUSH1 0x9 DUP2 PUSH2 0x9BB DUP8 PUSH2 0x1394 JUMP JUMPDEST AND SUB PUSH2 0xA49 JUMPI POP PUSH1 0x20 DUP5 PUSH2 0x9E6 PUSH2 0x37B PUSH2 0x37B DUP5 PUSH2 0x6AC PUSH2 0x6A4 PUSH2 0x32D PUSH1 0x80 PUSH2 0x94C SWAP13 SWAP14 ADD DUP9 PUSH2 0x12AF JUMP JUMPDEST DUP2 DUP4 ADD MLOAD PUSH1 0x1 PUSH1 0x1 PUSH1 0xA0 SHL SUB AND SWAP2 PUSH1 0x0 PUSH1 0x40 SWAP6 PUSH2 0xA05 DUP8 DUP5 ADD MLOAD ISZERO ISZERO SWAP1 JUMP JUMPDEST SWAP3 ADD MLOAD DUP7 MLOAD PUSH4 0xCD0211EB PUSH1 0xE0 SHL DUP2 MSTORE CALLER PUSH1 0x4 DUP3 ADD MSTORE PUSH1 0x1 PUSH1 0x1 PUSH1 0xA0 SHL SUB SWAP1 SWAP6 AND PUSH1 0x24 DUP7 ADD MSTORE SWAP2 ISZERO ISZERO PUSH1 0x44 DUP6 ADD MSTORE PUSH1 0x64 DUP5 ADD SWAP2 SWAP1 SWAP2 MSTORE SWAP2 SWAP6 DUP7 SWAP3 DUP4 SWAP2 DUP3 SWAP1 PUSH1 0x84 DUP3 ADD SWAP1 JUMP JUMPDEST SWAP1 DUP2 PUSH1 0xD DUP7 SWAP4 PUSH2 0xA58 DUP6 PUSH2 0x1394 JUMP JUMPDEST AND SUB PUSH2 0xAFF JUMPI POP POP PUSH2 0x37B PUSH1 0x40 SWAP2 PUSH1 0x20 PUSH2 0x37B SWAP6 PUSH2 0xA7C PUSH2 0xA77 PUSH2 0x18D0 JUMP JUMPDEST PUSH2 0x234D JUMP JUMPDEST PUSH2 0xAD1 PUSH2 0xA9A PUSH2 0xA92 PUSH2 0x32D PUSH1 0x80 DUP8 ADD DUP8 PUSH2 0x12AF JUMP JUMPDEST DUP2 ADD SWAP1 PUSH2 0x1AE8 JUMP JUMPDEST SWAP6 SWAP8 SWAP5 SWAP12 SWAP4 SWAP15 SWAP3 SWAP7 SWAP10 SWAP2 SWAP13 SWAP1 SWAP11 PUSH2 0xAB2 PUSH2 0xA77 PUSH2 0x1B88 JUMP JUMPDEST PUSH2 0xAC5 PUSH1 0x1 PUSH1 0x1 PUSH1 0xA0 SHL SUB DUP1 SWAP13 AND PUSH2 0x2219 JUMP JUMPDEST ADD CALLDATALOAD DUP1 SWAP9 ADD SWAP15 ADD PUSH2 0x14A2 JUMP JUMPDEST SWAP6 DUP7 EXTCODESIZE ISZERO PUSH2 0x401 JUMPI PUSH1 0x0 SWAP9 PUSH2 0x3C9 SWAP4 PUSH1 0x40 MLOAD SWAP13 DUP14 SWAP11 DUP12 SWAP10 DUP11 SWAP9 PUSH4 0x284E0D69 PUSH1 0xE0 SHL DUP11 MSTORE AND CALLER PUSH1 0x4 DUP11 ADD PUSH2 0x1C95 JUMP JUMPDEST SWAP1 SWAP2 DUP2 PUSH2 0xB0D PUSH1 0xE SWAP3 PUSH2 0x1394 JUMP JUMPDEST AND SUB PUSH2 0xBB9 JUMPI POP POP PUSH1 0x1 PUSH1 0x1 PUSH1 0xA0 SHL SUB PUSH2 0xB4C PUSH2 0xB3B PUSH2 0xB33 PUSH2 0x32D PUSH1 0x80 DUP9 ADD DUP9 PUSH2 0x12AF JUMP JUMPDEST DUP2 ADD SWAP1 PUSH2 0x1707 JUMP JUMPDEST SWAP10 SWAP5 SWAP9 SWAP3 SWAP6 SWAP2 SWAP9 SWAP7 SWAP1 SWAP4 SWAP7 AND PUSH2 0x2219 JUMP JUMPDEST PUSH1 0x40 DUP4 ADD CALLDATALOAD ADD SWAP7 PUSH2 0xB65 PUSH2 0x37B PUSH2 0x37B PUSH1 0x20 DUP7 ADD PUSH2 0x14A2 JUMP JUMPDEST SWAP1 DUP2 EXTCODESIZE ISZERO PUSH2 0x401 JUMPI PUSH1 0x0 SWAP6 PUSH2 0xB9D PUSH1 0x40 SWAP3 PUSH1 0x1 PUSH1 0x1 PUSH1 0xA0 SHL SUB SWAP6 DUP5 MLOAD SWAP12 DUP13 SWAP10 DUP11 SWAP9 DUP10 SWAP7 PUSH4 0xE91CA195 PUSH1 0xE0 SHL DUP9 MSTORE AND CALLER PUSH1 0x4 DUP9 ADD PUSH2 0x17B3 JUMP JUMPDEST SUB SWAP4 ADD CALLDATALOAD SWAP1 GAS CALL SWAP2 DUP3 ISZERO PUSH2 0x3FC JUMPI PUSH2 0x2C3 SWAP3 PUSH2 0x3E3 JUMPI POP PUSH2 0x1236 JUMP JUMPDEST PUSH1 0xF DUP2 PUSH2 0xBC5 DUP8 PUSH2 0x1394 JUMP JUMPDEST AND SUB PUSH2 0xC74 JUMPI POP PUSH1 0x80 PUSH2 0xBE8 PUSH2 0xBE0 PUSH2 0x32D DUP4 DUP9 ADD DUP9 PUSH2 0x12AF JUMP JUMPDEST DUP2 ADD SWAP1 PUSH2 0x154A JUMP JUMPDEST SWAP4 PUSH2 0xBFD PUSH2 0x350 DUP7 MLOAD PUSH1 0x1 PUSH1 0x1 PUSH1 0xA0 SHL SUB AND SWAP1 JUMP JUMPDEST PUSH1 0x40 SWAP3 PUSH2 0xC19 PUSH2 0x37B PUSH2 0x37B PUSH1 0x20 DUP8 DUP12 ADD CALLDATALOAD DUP1 SWAP7 ADD SWAP11 ADD PUSH2 0x14A2 JUMP JUMPDEST SWAP2 PUSH2 0xC2E PUSH1 0x20 DUP9 ADD MLOAD PUSH1 0x1 PUSH1 0x1 PUSH1 0xA0 SHL SUB AND SWAP1 JUMP JUMPDEST PUSH1 0xA0 PUSH2 0xC46 DUP8 DUP11 ADD MLOAD SWAP5 DUP11 ADD MLOAD SWAP7 DUP11 ADD MLOAD PUSH2 0xFFFF AND SWAP1 JUMP JUMPDEST SWAP9 ADD MLOAD SWAP6 DUP5 EXTCODESIZE ISZERO PUSH2 0x401 JUMPI PUSH1 0x0 SWAP7 PUSH2 0x3C9 SWAP2 MLOAD SWAP10 DUP11 SWAP8 DUP9 SWAP7 DUP8 SWAP6 PUSH4 0x343B7665 PUSH1 0xE0 SHL DUP8 MSTORE CALLER PUSH1 0x4 DUP9 ADD PUSH2 0x15BE JUMP JUMPDEST PUSH1 0x10 SWAP2 POP PUSH2 0xC83 DUP6 SWAP5 SWAP6 PUSH2 0x1394 JUMP JUMPDEST AND SUB PUSH2 0xD13 JUMPI DUP2 PUSH1 0x1 PUSH1 0x1 PUSH1 0xA0 SHL SUB PUSH2 0xCB0 PUSH2 0xCA8 PUSH2 0x32D PUSH1 0x80 PUSH2 0xCC1 SWAP8 ADD DUP6 PUSH2 0x12AF JUMP JUMPDEST DUP2 ADD SWAP1 PUSH2 0x1434 JUMP JUMPDEST SWAP5 SWAP8 SWAP6 SWAP11 SWAP3 SWAP10 SWAP2 SWAP4 SWAP7 SWAP1 SWAP11 AND PUSH2 0x2219 JUMP JUMPDEST PUSH1 0x40 DUP5 ADD CALLDATALOAD ADD SWAP8 PUSH2 0xCDA PUSH2 0x37B PUSH2 0x37B PUSH1 0x20 DUP8 ADD PUSH2 0x14A2 JUMP JUMPDEST SWAP2 DUP3 EXTCODESIZE ISZERO PUSH2 0x401 JUMPI PUSH2 0xB9D PUSH1 0x1 PUSH1 0x1 PUSH1 0xA0 SHL SUB SWAP5 PUSH1 0x40 SWAP4 PUSH1 0x0 SWAP10 DUP6 MLOAD SWAP13 DUP14 SWAP11 DUP12 SWAP10 DUP11 SWAP8 PUSH4 0x9F3A056D PUSH1 0xE0 SHL DUP10 MSTORE AND SWAP3 CALLER PUSH1 0x4 DUP10 ADD PUSH2 0x14AC JUMP JUMPDEST PUSH1 0x40 MLOAD PUSH3 0x461BCD PUSH1 0xE5 SHL DUP2 MSTORE PUSH1 0x20 PUSH1 0x4 DUP3 ADD MSTORE PUSH1 0x1A PUSH1 0x24 DUP3 ADD MSTORE PUSH32 0x4D61676E657461723A20616374696F6E206E6F742076616C6964000000000000 PUSH1 0x44 DUP3 ADD MSTORE PUSH1 0x64 SWAP1 REVERT JUMPDEST SUB SWAP1 REVERT JUMPDEST PUSH2 0xD97 PUSH2 0xD6C PUSH1 0x80 DUP8 ADD DUP8 PUSH2 0x12AF JUMP JUMPDEST SWAP1 POP PUSH2 0xD8F PUSH1 0x40 MLOAD PUSH2 0xD8A DUP2 PUSH2 0x606 DUP10 PUSH1 0x20 DUP4 ADD SWAP2 SWAP1 PUSH1 0x20 DUP4 ADD SWAP3 MSTORE JUMP JUMPDEST PUSH2 0x12E2 JUMP JUMPDEST SWAP1 ISZERO ISZERO PUSH2 0x135C JUMP JUMPDEST PUSH2 0x26F JUMP JUMPDEST PUSH1 0x0 SWAP2 SUB SLT PUSH2 0x401 JUMPI JUMP JUMPDEST CALLVALUE PUSH2 0x401 JUMPI PUSH1 0x0 CALLDATASIZE PUSH1 0x3 NOT ADD SLT PUSH2 0x401 JUMPI PUSH1 0x20 PUSH1 0x40 MLOAD TIMESTAMP DUP2 MSTORE RETURN JUMPDEST CALLVALUE PUSH2 0x401 JUMPI PUSH1 0x0 CALLDATASIZE PUSH1 0x3 NOT ADD SLT PUSH2 0x401 JUMPI PUSH1 0x20 PUSH1 0x40 MLOAD PUSH1 0x0 NOT NUMBER ADD BLOCKHASH DUP2 MSTORE RETURN JUMPDEST CALLVALUE PUSH2 0x401 JUMPI PUSH1 0x0 CALLDATASIZE PUSH1 0x3 NOT ADD SLT PUSH2 0x401 JUMPI PUSH1 0x20 PUSH1 0x40 MLOAD CHAINID DUP2 MSTORE RETURN JUMPDEST CALLVALUE PUSH2 0x401 JUMPI PUSH1 0x0 CALLDATASIZE PUSH1 0x3 NOT ADD SLT PUSH2 0x401 JUMPI PUSH1 0x20 PUSH1 0x40 MLOAD BASEFEE DUP2 MSTORE RETURN JUMPDEST CALLVALUE PUSH2 0x401 JUMPI PUSH1 0x0 CALLDATASIZE PUSH1 0x3 NOT ADD SLT PUSH2 0x401 JUMPI PUSH1 0x20 PUSH1 0x40 MLOAD NUMBER DUP2 MSTORE RETURN JUMPDEST PUSH1 0x1 PUSH1 0x1 PUSH1 0xA0 SHL SUB DUP2 AND SUB PUSH2 0x401 JUMPI JUMP JUMPDEST CALLDATALOAD SWAP1 PUSH2 0xE4F DUP3 PUSH2 0xE33 JUMP JUMPDEST JUMP JUMPDEST CALLVALUE PUSH2 0x401 JUMPI PUSH1 0x20 CALLDATASIZE PUSH1 0x3 NOT ADD SLT PUSH2 0x401 JUMPI PUSH1 0x20 PUSH1 0x4 CALLDATALOAD PUSH2 0xE70 DUP2 PUSH2 0xE33 JUMP JUMPDEST BALANCE PUSH1 0x40 MLOAD SWAP1 DUP2 MSTORE RETURN JUMPDEST CALLVALUE PUSH2 0x401 JUMPI PUSH1 0x0 DUP1 PUSH1 0x3 NOT CALLDATASIZE ADD SLT PUSH2 0xECC JUMPI PUSH2 0xE93 PUSH2 0x102B JUMP JUMPDEST DUP1 PUSH1 0x1 PUSH1 0x1 PUSH1 0xA0 SHL SUB DUP2 SLOAD DUP2 NOT DUP2 AND DUP4 SSTORE AND PUSH32 0x8BE0079C531659141344CD1FD0A4F28419497F9722A3DAAFE3B4186F6B6457E0 DUP3 DUP1 LOG3 DUP1 RETURN JUMPDEST DUP1 REVERT JUMPDEST CALLVALUE PUSH2 0x401 JUMPI PUSH1 0x0 CALLDATASIZE PUSH1 0x3 NOT ADD SLT PUSH2 0x401 JUMPI PUSH1 0x20 PUSH1 0x40 MLOAD PREVRANDAO DUP2 MSTORE RETURN JUMPDEST CALLVALUE PUSH2 0x401 JUMPI PUSH1 0x0 CALLDATASIZE PUSH1 0x3 NOT ADD SLT PUSH2 0x401 JUMPI PUSH1 0x20 PUSH1 0x40 MLOAD GASLIMIT DUP2 MSTORE RETURN JUMPDEST CALLVALUE PUSH2 0x401 JUMPI PUSH1 0x0 CALLDATASIZE PUSH1 0x3 NOT ADD SLT PUSH2 0x401 JUMPI PUSH1 0x20 PUSH1 0x1 PUSH1 0x1 PUSH1 0xA0 SHL SUB PUSH1 0x0 SLOAD AND PUSH1 0x40 MLOAD SWAP1 DUP2 MSTORE RETURN JUMPDEST CALLVALUE PUSH2 0x401 JUMPI PUSH1 0x0 CALLDATASIZE PUSH1 0x3 NOT ADD SLT PUSH2 0x401 JUMPI PUSH1 0x20 PUSH1 0x40 MLOAD COINBASE DUP2 MSTORE RETURN JUMPDEST CALLVALUE PUSH2 0x401 JUMPI PUSH1 0x20 CALLDATASIZE PUSH1 0x3 NOT ADD SLT PUSH2 0x401 JUMPI PUSH1 0x20 PUSH1 0x40 MLOAD PUSH1 0x4 CALLDATALOAD BLOCKHASH DUP2 MSTORE RETURN JUMPDEST CALLVALUE PUSH2 0x401 JUMPI PUSH1 0x20 CALLDATASIZE PUSH1 0x3 NOT ADD SLT PUSH2 0x401 JUMPI PUSH1 0x4 CALLDATALOAD PUSH2 0xF82 DUP2 PUSH2 0xE33 JUMP JUMPDEST PUSH2 0xF8A PUSH2 0x102B JUMP JUMPDEST PUSH1 0x1 PUSH1 0x1 PUSH1 0xA0 SHL SUB DUP1 SWAP2 AND DUP1 ISZERO PUSH2 0xFD7 JUMPI PUSH1 0x0 SWAP2 DUP3 SLOAD DUP3 PUSH1 0x1 PUSH1 0x1 PUSH1 0xA0 SHL SUB NOT DUP3 AND OR DUP5 SSTORE AND PUSH32 0x8BE0079C531659141344CD1FD0A4F28419497F9722A3DAAFE3B4186F6B6457E0 DUP4 DUP1 LOG3 DUP1 RETURN JUMPDEST PUSH1 0x40 MLOAD PUSH3 0x461BCD PUSH1 0xE5 SHL DUP2 MSTORE PUSH1 0x20 PUSH1 0x4 DUP3 ADD MSTORE PUSH1 0x26 PUSH1 0x24 DUP3 ADD MSTORE PUSH32 0x4F776E61626C653A206E6577206F776E657220697320746865207A65726F2061 PUSH1 0x44 DUP3 ADD MSTORE PUSH6 0x646472657373 PUSH1 0xD0 SHL PUSH1 0x64 DUP3 ADD MSTORE PUSH1 0x84 SWAP1 REVERT JUMPDEST PUSH1 0x1 PUSH1 0x1 PUSH1 0xA0 SHL SUB PUSH1 0x0 SLOAD AND CALLER SUB PUSH2 0x103F JUMPI JUMP JUMPDEST PUSH1 0x64 PUSH1 0x40 MLOAD PUSH3 0x461BCD PUSH1 0xE5 SHL DUP2 MSTORE PUSH1 0x20 PUSH1 0x4 DUP3 ADD MSTORE PUSH1 0x20 PUSH1 0x24 DUP3 ADD MSTORE PUSH32 0x4F776E61626C653A2063616C6C6572206973206E6F7420746865206F776E6572 PUSH1 0x44 DUP3 ADD MSTORE REVERT JUMPDEST PUSH4 0x4E487B71 PUSH1 0xE0 SHL PUSH1 0x0 MSTORE PUSH1 0x41 PUSH1 0x4 MSTORE PUSH1 0x24 PUSH1 0x0 REVERT JUMPDEST PUSH8 0xFFFFFFFFFFFFFFFF DUP2 GT PUSH2 0x10AD JUMPI PUSH1 0x40 MSTORE JUMP JUMPDEST PUSH2 0x1083 JUMP JUMPDEST PUSH1 0x60 DUP2 ADD SWAP1 DUP2 LT PUSH8 0xFFFFFFFFFFFFFFFF DUP3 GT OR PUSH2 0x10AD JUMPI PUSH1 0x40 MSTORE JUMP JUMPDEST PUSH1 0xC0 DUP2 ADD SWAP1 DUP2 LT PUSH8 0xFFFFFFFFFFFFFFFF DUP3 GT OR PUSH2 0x10AD JUMPI PUSH1 0x40 MSTORE JUMP JUMPDEST PUSH2 0x100 DUP2 ADD SWAP1 DUP2 LT PUSH8 0xFFFFFFFFFFFFFFFF DUP3 GT OR PUSH2 0x10AD JUMPI PUSH1 0x40 MSTORE JUMP JUMPDEST PUSH1 0x80 DUP2 ADD SWAP1 DUP2 LT PUSH8 0xFFFFFFFFFFFFFFFF DUP3 GT OR PUSH2 0x10AD JUMPI PUSH1 0x40 MSTORE JUMP JUMPDEST PUSH1 0xE0 DUP2 ADD SWAP1 DUP2 LT PUSH8 0xFFFFFFFFFFFFFFFF DUP3 GT OR PUSH2 0x10AD JUMPI PUSH1 0x40 MSTORE JUMP JUMPDEST PUSH1 0x40 DUP2 ADD SWAP1 DUP2 LT PUSH8 0xFFFFFFFFFFFFFFFF DUP3 GT OR PUSH2 0x10AD JUMPI PUSH1 0x40 MSTORE JUMP JUMPDEST SWAP1 PUSH1 0x1F DUP1 NOT SWAP2 ADD AND DUP2 ADD SWAP1 DUP2 LT PUSH8 0xFFFFFFFFFFFFFFFF DUP3 GT OR PUSH2 0x10AD JUMPI PUSH1 0x40 MSTORE JUMP JUMPDEST PUSH1 0x40 MLOAD SWAP1 PUSH2 0xE4F DUP3 PUSH2 0x113F JUMP JUMPDEST PUSH1 0x40 MLOAD SWAP1 PUSH2 0x120 DUP3 ADD DUP3 DUP2 LT PUSH8 0xFFFFFFFFFFFFFFFF DUP3 GT OR PUSH2 0x10AD JUMPI PUSH1 0x40 MSTORE JUMP JUMPDEST PUSH8 0xFFFFFFFFFFFFFFFF DUP2 GT PUSH2 0x10AD JUMPI PUSH1 0x5 SHL PUSH1 0x20 ADD SWAP1 JUMP JUMPDEST SWAP1 PUSH2 0x11CD DUP3 PUSH2 0x11AB JUMP JUMPDEST PUSH1 0x40 SWAP1 PUSH2 0x11DC DUP3 MLOAD SWAP2 DUP3 PUSH2 0x115B JUMP JUMPDEST DUP4 DUP2 MSTORE DUP1 SWAP4 PUSH2 0x11ED PUSH1 0x1F NOT SWAP2 PUSH2 0x11AB JUMP JUMPDEST ADD SWAP1 PUSH1 0x0 SWAP1 DUP2 JUMPDEST DUP4 DUP2 LT PUSH2 0x1202 JUMPI POP POP POP POP POP JUMP JUMPDEST DUP5 MLOAD SWAP1 DUP6 DUP3 ADD SWAP2 DUP1 DUP4 LT PUSH8 0xFFFFFFFFFFFFFFFF DUP5 GT OR PUSH2 0x10AD JUMPI PUSH1 0x20 SWAP3 DUP8 MSTORE DUP5 DUP2 MSTORE DUP3 PUSH1 0x60 DUP2 DUP4 ADD MSTORE DUP3 DUP6 ADD ADD MSTORE ADD PUSH2 0x11F4 JUMP JUMPDEST PUSH1 0x0 NOT DUP2 EQ PUSH2 0x1245 JUMPI PUSH1 0x1 ADD SWAP1 JUMP JUMPDEST PUSH4 0x4E487B71 PUSH1 0xE0 SHL PUSH1 0x0 MSTORE PUSH1 0x11 PUSH1 0x4 MSTORE PUSH1 0x24 PUSH1 0x0 REVERT JUMPDEST PUSH4 0x4E487B71 PUSH1 0xE0 SHL PUSH1 0x0 MSTORE PUSH1 0x32 PUSH1 0x4 MSTORE PUSH1 0x24 PUSH1 0x0 REVERT JUMPDEST SWAP2 SWAP1 DUP2 LT ISZERO PUSH2 0x1293 JUMPI PUSH1 0x5 SHL DUP2 ADD CALLDATALOAD SWAP1 PUSH1 0x9E NOT DUP2 CALLDATASIZE SUB ADD DUP3 SLT ISZERO PUSH2 0x401 JUMPI ADD SWAP1 JUMP JUMPDEST PUSH2 0x125B JUMP JUMPDEST DUP1 ISZERO ISZERO SUB PUSH2 0x401 JUMPI JUMP JUMPDEST CALLDATALOAD PUSH2 0x12AC DUP2 PUSH2 0x1298 JUMP JUMPDEST SWAP1 JUMP JUMPDEST SWAP1 CALLDATALOAD SWAP1 PUSH1 0x1E NOT DUP2 CALLDATASIZE SUB ADD DUP3 SLT ISZERO PUSH2 0x401 JUMPI ADD DUP1 CALLDATALOAD SWAP1 PUSH8 0xFFFFFFFFFFFFFFFF DUP3 GT PUSH2 0x401 JUMPI PUSH1 0x20 ADD SWAP2 DUP2 CALLDATASIZE SUB DUP4 SGT PUSH2 0x401 JUMPI JUMP JUMPDEST SWAP1 PUSH2 0xE4F PUSH1 0x4C PUSH1 0x40 MLOAD DUP1 SWAP5 PUSH32 0x4D61676E657461723A204D697373696E672063616C6C20666F7220616374696F PUSH1 0x20 DUP4 ADD MSTORE PUSH12 0xDC40EED2E8D040D2DCC8CAF PUSH1 0xA3 SHL PUSH1 0x40 DUP4 ADD MSTORE PUSH2 0x133B DUP2 MLOAD DUP1 SWAP3 PUSH1 0x20 DUP7 DUP7 ADD SWAP2 ADD PUSH2 0xFC JUMP JUMPDEST DUP2 ADD SUB PUSH1 0x2C DUP2 ADD DUP6 MSTORE ADD DUP4 PUSH2 0x115B JUMP JUMPDEST SWAP1 PUSH1 0x20 PUSH2 0x12AC SWAP3 DUP2 DUP2 MSTORE ADD SWAP1 PUSH2 0x11F JUMP JUMPDEST ISZERO PUSH2 0x1364 JUMPI POP JUMP JUMPDEST PUSH1 0x40 MLOAD PUSH3 0x461BCD PUSH1 0xE5 SHL DUP2 MSTORE PUSH1 0x20 PUSH1 0x4 DUP3 ADD MSTORE SWAP1 DUP2 SWAP1 PUSH2 0xD58 SWAP1 PUSH1 0x24 DUP4 ADD SWAP1 PUSH2 0x11F JUMP JUMPDEST PUSH2 0xFFFF DUP2 AND SUB PUSH2 0x401 JUMPI JUMP JUMPDEST CALLDATALOAD PUSH2 0x12AC DUP2 PUSH2 0x1388 JUMP JUMPDEST SWAP1 SWAP3 SWAP2 SWAP3 DUP4 PUSH1 0x4 GT PUSH2 0x401 JUMPI DUP4 GT PUSH2 0x401 JUMPI PUSH1 0x4 ADD SWAP2 PUSH1 0x3 NOT ADD SWAP1 JUMP JUMPDEST CALLDATALOAD SWAP1 PUSH2 0xE4F DUP3 PUSH2 0x1388 JUMP JUMPDEST PUSH8 0xFFFFFFFFFFFFFFFF DUP2 GT PUSH2 0x10AD JUMPI PUSH1 0x1F ADD PUSH1 0x1F NOT AND PUSH1 0x20 ADD SWAP1 JUMP JUMPDEST DUP2 PUSH1 0x1F DUP3 ADD SLT ISZERO PUSH2 0x401 JUMPI DUP1 CALLDATALOAD SWAP1 PUSH2 0x13F9 DUP3 PUSH2 0x13C6 JUMP JUMPDEST SWAP3 PUSH2 0x1407 PUSH1 0x40 MLOAD SWAP5 DUP6 PUSH2 0x115B JUMP JUMPDEST DUP3 DUP5 MSTORE PUSH1 0x20 DUP4 DUP4 ADD ADD GT PUSH2 0x401 JUMPI DUP2 PUSH1 0x0 SWAP3 PUSH1 0x20 DUP1 SWAP4 ADD DUP4 DUP7 ADD CALLDATACOPY DUP4 ADD ADD MSTORE SWAP1 JUMP JUMPDEST CALLDATALOAD SWAP1 PUSH2 0xE4F DUP3 PUSH2 0x1298 JUMP JUMPDEST PUSH1 0xE0 DUP2 DUP4 SUB SLT PUSH2 0x401 JUMPI DUP1 CALLDATALOAD PUSH2 0x1449 DUP2 PUSH2 0xE33 JUMP JUMPDEST SWAP3 PUSH1 0x20 DUP3 ADD CALLDATALOAD SWAP3 PUSH1 0x40 DUP4 ADD CALLDATALOAD SWAP3 PUSH1 0x60 DUP2 ADD CALLDATALOAD PUSH2 0x1464 DUP2 PUSH2 0x1388 JUMP JUMPDEST SWAP3 PUSH1 0x80 DUP3 ADD CALLDATALOAD PUSH2 0x1473 DUP2 PUSH2 0xE33 JUMP JUMPDEST SWAP3 PUSH1 0xA0 DUP4 ADD CALLDATALOAD PUSH8 0xFFFFFFFFFFFFFFFF DUP2 GT PUSH2 0x401 JUMPI PUSH1 0xC0 SWAP2 PUSH2 0x1496 SWAP2 DUP6 ADD PUSH2 0x13E2 JUMP JUMPDEST SWAP3 ADD CALLDATALOAD PUSH2 0x12AC DUP2 PUSH2 0x1298 JUMP JUMPDEST CALLDATALOAD PUSH2 0x12AC DUP2 PUSH2 0xE33 JUMP JUMPDEST SWAP6 SWAP3 PUSH2 0x14F2 SWAP5 PUSH2 0xFFFF SWAP2 PUSH1 0xC0 SWAP8 SWAP4 SWAP5 SWAP11 SWAP10 SWAP11 PUSH1 0x1 PUSH1 0x1 PUSH1 0xA0 SHL SUB DUP1 SWAP7 AND DUP11 MSTORE PUSH1 0x20 DUP11 ADD MSTORE PUSH1 0x40 DUP10 ADD MSTORE AND PUSH1 0x60 DUP8 ADD MSTORE AND PUSH1 0x80 DUP6 ADD MSTORE PUSH1 0xE0 PUSH1 0xA0 DUP6 ADD MSTORE PUSH1 0xE0 DUP5 ADD SWAP1 PUSH2 0x11F JUMP JUMPDEST SWAP4 ISZERO ISZERO SWAP2 ADD MSTORE JUMP JUMPDEST PUSH1 0x40 MLOAD RETURNDATASIZE PUSH1 0x0 DUP3 RETURNDATACOPY RETURNDATASIZE SWAP1 REVERT JUMPDEST SWAP2 SWAP1 DUP3 PUSH1 0x60 SWAP2 SUB SLT PUSH2 0x401 JUMPI PUSH1 0x40 MLOAD PUSH2 0x151E DUP2 PUSH2 0x10B2 JUMP JUMPDEST PUSH1 0x40 DUP1 DUP3 SWAP5 DUP1 CALLDATALOAD DUP5 MSTORE PUSH1 0x20 DUP2 ADD CALLDATALOAD PUSH2 0x1535 DUP2 PUSH2 0xE33 JUMP JUMPDEST PUSH1 0x20 DUP6 ADD MSTORE ADD CALLDATALOAD SWAP2 PUSH2 0x1546 DUP4 PUSH2 0x1298 JUMP JUMPDEST ADD MSTORE JUMP JUMPDEST SWAP1 PUSH2 0x100 DUP3 DUP3 SUB SLT PUSH2 0x401 JUMPI PUSH2 0x15B6 SWAP1 PUSH1 0xA0 PUSH1 0x40 MLOAD SWAP4 PUSH2 0x1569 DUP6 PUSH2 0x10CE JUMP JUMPDEST DUP1 CALLDATALOAD PUSH2 0x1574 DUP2 PUSH2 0xE33 JUMP JUMPDEST DUP6 MSTORE PUSH1 0x20 DUP2 ADD CALLDATALOAD PUSH2 0x1584 DUP2 PUSH2 0xE33 JUMP JUMPDEST PUSH1 0x20 DUP7 ADD MSTORE PUSH1 0x40 DUP2 ADD CALLDATALOAD PUSH1 0x40 DUP7 ADD MSTORE PUSH1 0x60 DUP2 ADD CALLDATALOAD PUSH1 0x60 DUP7 ADD MSTORE PUSH1 0x80 DUP2 ADD CALLDATALOAD PUSH2 0x15AB DUP2 PUSH2 0x1388 JUMP JUMPDEST PUSH1 0x80 DUP7 ADD MSTORE ADD PUSH2 0x1506 JUMP JUMPDEST PUSH1 0xA0 DUP3 ADD MSTORE SWAP1 JUMP JUMPDEST SWAP2 SWAP7 SWAP6 SWAP4 SWAP5 PUSH2 0xE4F SWAP6 PUSH1 0xA0 SWAP5 PUSH2 0xFFFF SWAP4 PUSH2 0x100 DUP7 ADD SWAP11 PUSH1 0x1 PUSH1 0x1 PUSH1 0xA0 SHL SUB DUP1 SWAP3 AND DUP8 MSTORE AND PUSH1 0x20 DUP7 ADD MSTORE PUSH1 0x40 DUP6 ADD MSTORE PUSH1 0x60 DUP5 ADD MSTORE AND PUSH1 0x80 DUP3 ADD MSTORE ADD SWAP1 PUSH1 0x40 DUP1 SWAP2 DUP1 MLOAD DUP5 MSTORE PUSH1 0x1 PUSH1 0x1 PUSH1 0xA0 SHL SUB PUSH1 0x20 DUP3 ADD MLOAD AND PUSH1 0x20 DUP6 ADD MSTORE ADD MLOAD ISZERO ISZERO SWAP2 ADD MSTORE JUMP JUMPDEST CALLDATALOAD SWAP1 PUSH1 0xFF DUP3 AND DUP3 SUB PUSH2 0x401 JUMPI JUMP JUMPDEST DUP2 PUSH1 0x1F DUP3 ADD SLT ISZERO PUSH2 0x401 JUMPI DUP1 CALLDATALOAD SWAP1 PUSH2 0x1642 DUP3 PUSH2 0x11AB JUMP JUMPDEST SWAP3 PUSH1 0x40 SWAP3 PUSH2 0x1652 DUP5 MLOAD SWAP6 DUP7 PUSH2 0x115B JUMP JUMPDEST DUP1 DUP6 MSTORE PUSH1 0x20 SWAP2 DUP3 DUP1 DUP8 ADD SWAP3 PUSH1 0x8 SHL DUP6 ADD ADD SWAP4 DUP2 DUP6 GT PUSH2 0x401 JUMPI DUP4 ADD SWAP2 JUMPDEST DUP5 DUP4 LT PUSH2 0x167F JUMPI POP POP POP POP POP POP SWAP1 JUMP JUMPDEST PUSH2 0x100 DUP4 DUP4 SUB SLT PUSH2 0x401 JUMPI DUP4 PUSH2 0x100 SWAP2 DUP8 MLOAD PUSH2 0x169A DUP2 PUSH2 0x10EA JUMP JUMPDEST PUSH2 0x16A3 DUP7 PUSH2 0xE44 JUMP JUMPDEST DUP2 MSTORE PUSH2 0x16B0 DUP4 DUP8 ADD PUSH2 0xE44 JUMP JUMPDEST DUP4 DUP3 ADD MSTORE PUSH2 0x16BF DUP10 DUP8 ADD PUSH2 0xE44 JUMP JUMPDEST DUP10 DUP3 ADD MSTORE PUSH1 0x60 DUP1 DUP8 ADD CALLDATALOAD SWAP1 DUP3 ADD MSTORE PUSH1 0x80 DUP1 DUP8 ADD CALLDATALOAD SWAP1 DUP3 ADD MSTORE PUSH1 0xA0 PUSH2 0x16E4 DUP2 DUP9 ADD PUSH2 0x161D JUMP JUMPDEST SWAP1 DUP3 ADD MSTORE PUSH1 0xC0 DUP1 DUP8 ADD CALLDATALOAD SWAP1 DUP3 ADD MSTORE PUSH1 0xE0 DUP1 DUP8 ADD CALLDATALOAD SWAP1 DUP3 ADD MSTORE DUP2 MSTORE ADD SWAP3 ADD SWAP2 PUSH2 0x166F JUMP JUMPDEST SWAP2 SWAP1 SWAP2 DUP1 DUP4 SUB SWAP1 PUSH2 0x140 DUP3 SLT PUSH2 0x401 JUMPI DUP1 CALLDATALOAD PUSH2 0x1722 DUP2 PUSH2 0xE33 JUMP JUMPDEST SWAP4 PUSH1 0x20 DUP3 ADD CALLDATALOAD PUSH2 0x1731 DUP2 PUSH2 0xE33 JUMP JUMPDEST SWAP4 PUSH1 0x60 PUSH1 0x40 DUP5 ADD CALLDATALOAD PUSH2 0x1742 DUP2 PUSH2 0x1388 JUMP JUMPDEST SWAP5 PUSH1 0x5F NOT ADD SLT PUSH2 0x401 JUMPI PUSH1 0x40 MLOAD PUSH2 0x1758 DUP2 PUSH2 0x10B2 JUMP JUMPDEST PUSH1 0x60 DUP5 ADD CALLDATALOAD DUP2 MSTORE PUSH1 0x80 DUP5 ADD CALLDATALOAD PUSH2 0x176D DUP2 PUSH2 0xE33 JUMP JUMPDEST PUSH1 0x20 DUP3 ADD MSTORE PUSH1 0xA0 DUP5 ADD CALLDATALOAD PUSH2 0x1780 DUP2 PUSH2 0xE33 JUMP JUMPDEST PUSH1 0x40 DUP3 ADD MSTORE SWAP3 PUSH2 0x1793 DUP4 PUSH1 0xC0 DUP4 ADD PUSH2 0x1506 JUMP JUMPDEST SWAP3 PUSH2 0x120 DUP3 ADD CALLDATALOAD PUSH8 0xFFFFFFFFFFFFFFFF DUP2 GT PUSH2 0x401 JUMPI PUSH2 0x12AC SWAP3 ADD PUSH2 0x162B JUMP JUMPDEST SWAP5 SWAP3 SWAP2 SWAP3 PUSH2 0x140 DUP1 DUP8 ADD SWAP6 PUSH1 0x1 PUSH1 0x1 PUSH1 0xA0 SHL SUB DUP1 SWAP5 AND DUP9 MSTORE DUP4 PUSH1 0x20 SWAP7 AND DUP7 DUP10 ADD MSTORE PUSH2 0xFFFF PUSH1 0x40 SWAP6 AND DUP6 DUP10 ADD MSTORE DUP6 PUSH2 0x160 DUP3 MLOAD SWAP10 PUSH1 0x60 SWAP11 DUP12 DUP3 ADD MSTORE DUP7 DUP9 DUP2 DUP6 DUP8 ADD MLOAD AND SWAP6 PUSH1 0x80 SWAP7 DUP8 DUP6 ADD MSTORE ADD MLOAD AND SWAP5 PUSH1 0xA0 SWAP6 DUP7 DUP4 ADD MSTORE PUSH2 0x1836 PUSH1 0xC0 SWAP8 DUP9 DUP5 ADD SWAP1 PUSH1 0x40 DUP1 SWAP2 DUP1 MLOAD DUP5 MSTORE PUSH1 0x1 PUSH1 0x1 PUSH1 0xA0 SHL SUB PUSH1 0x20 DUP3 ADD MLOAD AND PUSH1 0x20 DUP6 ADD MSTORE ADD MLOAD ISZERO ISZERO SWAP2 ADD MSTORE JUMP JUMPDEST PUSH2 0x120 DUP3 ADD MSTORE DUP12 MLOAD DUP1 SWAP11 MSTORE ADD SWAP10 ADD SWAP8 PUSH1 0x0 SWAP6 JUMPDEST DUP9 DUP8 LT PUSH2 0x185D JUMPI POP POP POP POP POP POP POP POP POP POP SWAP1 JUMP JUMPDEST SWAP1 SWAP2 SWAP3 SWAP4 SWAP5 SWAP6 SWAP7 SWAP8 SWAP9 SWAP10 DUP9 PUSH2 0x100 PUSH1 0x1 SWAP3 DUP14 MLOAD DUP11 DUP2 MLOAD AND DUP3 MSTORE DUP11 DUP5 DUP3 ADD MLOAD AND DUP5 DUP4 ADD MSTORE DUP11 DUP7 DUP3 ADD MLOAD AND DUP7 DUP4 ADD MSTORE DUP7 DUP2 ADD MLOAD DUP8 DUP4 ADD MSTORE DUP8 DUP2 ADD MLOAD DUP9 DUP4 ADD MSTORE PUSH2 0x18AC DUP10 DUP3 ADD MLOAD DUP11 DUP5 ADD SWAP1 PUSH1 0xFF AND SWAP1 MSTORE JUMP JUMPDEST DUP1 DUP11 ADD MLOAD DUP3 DUP12 ADD MSTORE PUSH1 0xE0 SWAP1 DUP2 ADD MLOAD SWAP1 DUP3 ADD MSTORE ADD SWAP12 ADD SWAP10 SWAP9 SWAP8 ADD SWAP6 SWAP5 SWAP4 SWAP3 SWAP2 SWAP1 PUSH2 0x1849 JUMP JUMPDEST PUSH1 0x40 MLOAD SWAP1 PUSH2 0x18DD DUP3 PUSH2 0x113F JUMP JUMPDEST PUSH1 0x8 DUP3 MSTORE PUSH8 0x6465636F64696E67 PUSH1 0xC0 SHL PUSH1 0x20 DUP4 ADD MSTORE JUMP JUMPDEST SWAP2 SWAP1 DUP3 PUSH1 0x80 SWAP2 SUB SLT PUSH2 0x401 JUMPI PUSH1 0x40 MLOAD PUSH2 0x190C DUP2 PUSH2 0x1107 JUMP JUMPDEST PUSH1 0x60 DUP1 DUP3 SWAP5 DUP1 CALLDATALOAD DUP5 MSTORE PUSH1 0x20 DUP2 ADD CALLDATALOAD PUSH1 0x20 DUP6 ADD MSTORE PUSH1 0x40 DUP2 ADD CALLDATALOAD PUSH2 0x192D DUP2 PUSH2 0xE33 JUMP JUMPDEST PUSH1 0x40 DUP6 ADD MSTORE ADD CALLDATALOAD SWAP2 PUSH2 0x1546 DUP4 PUSH2 0xE33 JUMP JUMPDEST SWAP2 SWAP1 PUSH1 0x80 DUP4 DUP3 SUB SLT PUSH2 0x401 JUMPI PUSH1 0x40 MLOAD SWAP1 PUSH2 0x1957 DUP3 PUSH2 0x1107 JUMP JUMPDEST DUP2 SWAP4 DUP1 CALLDATALOAD DUP4 MSTORE PUSH1 0x20 DUP2 ADD CALLDATALOAD PUSH2 0x196B DUP2 PUSH2 0x1298 JUMP JUMPDEST PUSH1 0x20 DUP5 ADD MSTORE PUSH1 0x40 DUP2 ADD CALLDATALOAD PUSH2 0x197E DUP2 PUSH2 0x1388 JUMP JUMPDEST PUSH1 0x40 DUP5 ADD MSTORE PUSH1 0x60 DUP2 ADD CALLDATALOAD SWAP2 PUSH8 0xFFFFFFFFFFFFFFFF DUP4 GT PUSH2 0x401 JUMPI PUSH1 0x60 SWAP3 PUSH2 0x19A5 SWAP3 ADD PUSH2 0x13E2 JUMP JUMPDEST SWAP2 ADD MSTORE JUMP JUMPDEST SWAP2 SWAP1 DUP3 PUSH1 0x80 SWAP2 SUB SLT PUSH2 0x401 JUMPI PUSH1 0x40 MLOAD PUSH2 0x19C2 DUP2 PUSH2 0x1107 JUMP JUMPDEST PUSH1 0x60 DUP1 DUP3 SWAP5 DUP1 CALLDATALOAD DUP5 MSTORE PUSH1 0x20 DUP2 ADD CALLDATALOAD PUSH2 0x19D9 DUP2 PUSH2 0xE33 JUMP JUMPDEST PUSH1 0x20 DUP6 ADD MSTORE PUSH1 0x40 DUP2 ADD CALLDATALOAD PUSH2 0x19EC DUP2 PUSH2 0x1298 JUMP JUMPDEST PUSH1 0x40 DUP6 ADD MSTORE ADD CALLDATALOAD SWAP2 PUSH2 0x1546 DUP4 PUSH2 0x1298 JUMP JUMPDEST DUP2 PUSH1 0x1F DUP3 ADD SLT ISZERO PUSH2 0x401 JUMPI DUP1 CALLDATALOAD SWAP1 PUSH2 0x1A14 DUP3 PUSH2 0x11AB JUMP JUMPDEST SWAP3 PUSH1 0x40 SWAP1 PUSH2 0x1A24 DUP3 MLOAD SWAP6 DUP7 PUSH2 0x115B JUMP JUMPDEST DUP4 DUP6 MSTORE PUSH1 0x20 SWAP2 DUP3 DUP7 ADD SWAP2 DUP4 PUSH2 0x120 DUP1 SWAP8 MUL DUP7 ADD ADD SWAP5 DUP2 DUP7 GT PUSH2 0x401 JUMPI DUP5 ADD SWAP3 JUMPDEST DUP6 DUP5 LT PUSH2 0x1A55 JUMPI POP POP POP POP POP POP POP SWAP1 JUMP JUMPDEST DUP7 DUP5 DUP4 SUB SLT PUSH2 0x401 JUMPI DUP5 DUP8 SWAP2 PUSH2 0x1A69 PUSH2 0x118A JUMP JUMPDEST PUSH2 0x1A72 DUP8 PUSH2 0xE44 JUMP JUMPDEST DUP2 MSTORE PUSH2 0x1A7F DUP4 DUP9 ADD PUSH2 0x1429 JUMP JUMPDEST DUP4 DUP3 ADD MSTORE PUSH2 0x1A8E DUP7 DUP9 ADD PUSH2 0xE44 JUMP JUMPDEST DUP7 DUP3 ADD MSTORE PUSH1 0x60 PUSH2 0x1A9F DUP2 DUP10 ADD PUSH2 0xE44 JUMP JUMPDEST SWAP1 DUP3 ADD MSTORE PUSH1 0x80 DUP1 DUP9 ADD CALLDATALOAD SWAP1 DUP3 ADD MSTORE PUSH1 0xA0 DUP1 DUP9 ADD CALLDATALOAD SWAP1 DUP3 ADD MSTORE PUSH1 0xC0 PUSH2 0x1AC4 DUP2 DUP10 ADD PUSH2 0x161D JUMP JUMPDEST SWAP1 DUP3 ADD MSTORE PUSH1 0xE0 DUP1 DUP9 ADD CALLDATALOAD SWAP1 DUP3 ADD MSTORE PUSH2 0x100 DUP1 DUP9 ADD CALLDATALOAD SWAP1 DUP3 ADD MSTORE DUP2 MSTORE ADD SWAP4 ADD SWAP3 PUSH2 0x1A44 JUMP JUMPDEST SWAP1 PUSH2 0x1C0 DUP3 DUP3 SUB SLT PUSH2 0x401 JUMPI PUSH2 0x1AFD DUP3 PUSH2 0xE44 JUMP JUMPDEST SWAP3 PUSH2 0x1B0A PUSH1 0x20 DUP5 ADD PUSH2 0xE44 JUMP JUMPDEST SWAP3 PUSH2 0x1B17 PUSH1 0x40 DUP3 ADD PUSH2 0x13BB JUMP JUMPDEST SWAP3 PUSH8 0xFFFFFFFFFFFFFFFF PUSH1 0x60 DUP4 ADD CALLDATALOAD DUP2 DUP2 GT PUSH2 0x401 JUMPI DUP3 PUSH2 0x1B39 SWAP2 DUP6 ADD PUSH2 0x13E2 JUMP JUMPDEST SWAP4 PUSH2 0x1B47 DUP4 PUSH1 0x80 DUP7 ADD PUSH2 0x18F4 JUMP JUMPDEST SWAP4 PUSH2 0x100 DUP2 ADD CALLDATALOAD DUP4 DUP2 GT PUSH2 0x401 JUMPI DUP5 PUSH2 0x1B61 SWAP2 DUP4 ADD PUSH2 0x193E JUMP JUMPDEST SWAP4 PUSH2 0x1B70 DUP2 PUSH2 0x120 DUP5 ADD PUSH2 0x19AA JUMP JUMPDEST SWAP4 PUSH2 0x1A0 DUP4 ADD CALLDATALOAD SWAP1 DUP2 GT PUSH2 0x401 JUMPI PUSH2 0x12AC SWAP3 ADD PUSH2 0x19FD JUMP JUMPDEST PUSH1 0x40 MLOAD SWAP1 PUSH2 0x1B95 DUP3 PUSH2 0x113F JUMP JUMPDEST PUSH1 0x7 DUP3 MSTORE PUSH7 0x191958DBD91959 PUSH1 0xCA SHL PUSH1 0x20 DUP4 ADD MSTORE JUMP JUMPDEST SWAP1 PUSH1 0x80 PUSH1 0x60 PUSH2 0x12AC SWAP4 DUP1 MLOAD DUP5 MSTORE PUSH1 0x20 DUP2 ADD MLOAD ISZERO ISZERO PUSH1 0x20 DUP6 ADD MSTORE PUSH2 0xFFFF PUSH1 0x40 DUP3 ADD MLOAD AND PUSH1 0x40 DUP6 ADD MSTORE ADD MLOAD SWAP2 DUP2 PUSH1 0x60 DUP3 ADD MSTORE ADD SWAP1 PUSH2 0x11F JUMP JUMPDEST SWAP1 DUP2 MLOAD DUP1 DUP3 MSTORE PUSH1 0x20 DUP1 DUP1 SWAP4 ADD SWAP4 ADD SWAP2 PUSH1 0x0 JUMPDEST DUP3 DUP2 LT PUSH2 0x1C02 JUMPI POP POP POP POP SWAP1 JUMP JUMPDEST SWAP1 SWAP2 SWAP3 SWAP4 DUP3 PUSH2 0x120 PUSH1 0x1 SWAP3 DUP8 MLOAD PUSH1 0x1 PUSH1 0x1 PUSH1 0xA0 SHL SUB DUP2 MLOAD AND DUP3 MSTORE DUP4 DUP2 ADD MLOAD ISZERO ISZERO DUP5 DUP4 ADD MSTORE PUSH2 0x1C40 PUSH1 0x40 DUP1 DUP4 ADD MLOAD SWAP1 DUP5 ADD SWAP1 PUSH1 0x1 PUSH1 0x1 PUSH1 0xA0 SHL SUB AND SWAP1 MSTORE JUMP JUMPDEST PUSH1 0x60 DUP2 DUP2 ADD MLOAD PUSH1 0x1 PUSH1 0x1 PUSH1 0xA0 SHL SUB AND SWAP1 DUP4 ADD MSTORE PUSH1 0x80 DUP2 DUP2 ADD MLOAD SWAP1 DUP4 ADD MSTORE PUSH1 0xA0 DUP1 DUP3 ADD MLOAD SWAP1 DUP4 ADD MSTORE PUSH1 0xC0 DUP1 DUP3 ADD MLOAD PUSH1 0xFF AND SWAP1 DUP4 ADD MSTORE PUSH1 0xE0 DUP2 DUP2 ADD MLOAD SWAP1 DUP4 ADD MSTORE PUSH2 0x100 SWAP1 DUP2 ADD MLOAD SWAP1 DUP3 ADD MSTORE ADD SWAP6 ADD SWAP4 SWAP3 SWAP2 ADD PUSH2 0x1BF4 JUMP JUMPDEST SWAP5 SWAP2 PUSH1 0x60 PUSH2 0x1CD8 PUSH2 0x1D45 SWAP7 PUSH2 0xFFFF PUSH2 0x1D0C SWAP8 PUSH2 0x12AC SWAP14 SWAP12 SWAP7 PUSH1 0x1 PUSH1 0x1 PUSH1 0xA0 SHL SUB SWAP7 DUP8 DUP1 SWAP3 AND DUP14 MSTORE AND PUSH1 0x20 DUP13 ADD MSTORE AND PUSH1 0x40 DUP11 ADD MSTORE PUSH2 0x1C0 DUP1 DUP5 DUP12 ADD MSTORE DUP10 ADD SWAP1 PUSH2 0x11F JUMP JUMPDEST SWAP4 DUP1 MLOAD PUSH1 0x80 DUP10 ADD MSTORE PUSH1 0x20 DUP2 ADD MLOAD PUSH1 0xA0 DUP10 ADD MSTORE DUP3 PUSH1 0x40 DUP3 ADD MLOAD AND PUSH1 0xC0 DUP10 ADD MSTORE ADD MLOAD AND PUSH1 0xE0 DUP7 ADD MSTORE DUP5 DUP3 SUB PUSH2 0x100 DUP7 ADD MSTORE PUSH2 0x1BAB JUMP JUMPDEST DUP5 MLOAD PUSH2 0x120 DUP5 ADD MSTORE PUSH1 0x20 DUP6 ADD MLOAD PUSH1 0x1 PUSH1 0x1 PUSH1 0xA0 SHL SUB AND PUSH2 0x140 DUP5 ADD MSTORE PUSH1 0x40 DUP6 ADD MLOAD ISZERO ISZERO PUSH2 0x160 DUP5 ADD MSTORE PUSH1 0x60 SWAP1 SWAP5 ADD MLOAD ISZERO ISZERO PUSH2 0x180 DUP4 ADD MSTORE JUMP JUMPDEST PUSH2 0x1A0 DUP2 DUP5 SUB SWAP2 ADD MSTORE PUSH2 0x1BE2 JUMP JUMPDEST SWAP1 DUP2 PUSH1 0x80 SWAP2 SUB SLT PUSH2 0x401 JUMPI PUSH1 0x60 PUSH1 0x40 MLOAD SWAP2 PUSH2 0x1D6D DUP4 PUSH2 0x1107 JUMP JUMPDEST DUP1 CALLDATALOAD PUSH2 0x1D78 DUP2 PUSH2 0xE33 JUMP JUMPDEST DUP4 MSTORE PUSH1 0x20 DUP2 ADD CALLDATALOAD PUSH2 0x1D88 DUP2 PUSH2 0xE33 JUMP JUMPDEST PUSH1 0x20 DUP5 ADD MSTORE PUSH1 0x40 DUP2 ADD CALLDATALOAD PUSH2 0x1D9B DUP2 PUSH2 0x1298 JUMP JUMPDEST PUSH1 0x40 DUP5 ADD MSTORE ADD CALLDATALOAD PUSH1 0x60 DUP3 ADD MSTORE SWAP1 JUMP JUMPDEST SWAP1 DUP2 PUSH1 0x20 SWAP2 SUB SLT PUSH2 0x401 JUMPI MLOAD SWAP1 JUMP JUMPDEST DUP1 MLOAD DUP3 LT ISZERO PUSH2 0x1293 JUMPI PUSH1 0x20 SWAP2 PUSH1 0x5 SHL ADD ADD SWAP1 JUMP JUMPDEST SWAP1 SWAP2 PUSH1 0xC0 DUP3 DUP5 SUB SLT PUSH2 0x401 JUMPI DUP2 CALLDATALOAD PUSH2 0x1DE4 DUP2 PUSH2 0xE33 JUMP JUMPDEST SWAP3 PUSH1 0x20 DUP4 ADD CALLDATALOAD PUSH2 0x1DF3 DUP2 PUSH2 0x1388 JUMP JUMPDEST SWAP3 PUSH1 0x40 DUP2 ADD CALLDATALOAD SWAP3 PUSH1 0x60 DUP3 ADD CALLDATALOAD SWAP3 PUSH1 0x80 DUP4 ADD CALLDATALOAD PUSH8 0xFFFFFFFFFFFFFFFF DUP2 GT PUSH2 0x401 JUMPI PUSH1 0xA0 SWAP2 PUSH2 0x1E22 SWAP2 DUP6 ADD PUSH2 0x13E2 JUMP JUMPDEST SWAP3 ADD CALLDATALOAD PUSH2 0x12AC DUP2 PUSH2 0xE33 JUMP JUMPDEST SWAP5 SWAP1 SWAP3 SWAP4 PUSH1 0xA0 SWAP5 PUSH2 0xFFFF PUSH2 0x1E6D SWAP5 SWAP10 SWAP9 SWAP10 PUSH1 0x1 PUSH1 0x1 PUSH1 0xA0 SHL SUB DUP1 SWAP8 AND DUP10 MSTORE AND PUSH1 0x20 DUP9 ADD MSTORE PUSH1 0x40 DUP8 ADD MSTORE PUSH1 0x60 DUP7 ADD MSTORE PUSH1 0xC0 PUSH1 0x80 DUP7 ADD MSTORE PUSH1 0xC0 DUP6 ADD SWAP1 PUSH2 0x11F JUMP JUMPDEST SWAP5 AND SWAP2 ADD MSTORE JUMP JUMPDEST SWAP1 DUP2 PUSH1 0x60 SWAP2 SUB SLT PUSH2 0x401 JUMPI PUSH1 0x40 DUP1 MLOAD SWAP2 PUSH2 0x1E8D DUP4 PUSH2 0x10B2 JUMP JUMPDEST DUP1 CALLDATALOAD PUSH2 0x1E98 DUP2 PUSH2 0xE33 JUMP JUMPDEST DUP4 MSTORE PUSH1 0x20 DUP2 ADD CALLDATALOAD PUSH2 0x1EA8 DUP2 PUSH2 0xE33 JUMP JUMPDEST PUSH1 0x20 DUP5 ADD MSTORE ADD CALLDATALOAD PUSH1 0x40 DUP3 ADD MSTORE SWAP1 JUMP JUMPDEST SWAP2 SWAP1 DUP3 PUSH1 0x40 SWAP2 SUB SLT PUSH2 0x401 JUMPI PUSH1 0x20 DUP3 MLOAD SWAP3 ADD MLOAD SWAP1 JUMP JUMPDEST SWAP1 DUP2 PUSH1 0xA0 SWAP2 SUB SLT PUSH2 0x401 JUMPI PUSH1 0x40 MLOAD SWAP1 PUSH1 0xA0 DUP3 ADD SWAP1 DUP3 DUP3 LT PUSH8 0xFFFFFFFFFFFFFFFF DUP4 GT OR PUSH2 0x10AD JUMPI PUSH1 0x80 SWAP2 PUSH1 0x40 MSTORE DUP1 CALLDATALOAD DUP4 MSTORE PUSH1 0x20 DUP2 ADD CALLDATALOAD PUSH2 0x1F0C DUP2 PUSH2 0xE33 JUMP JUMPDEST PUSH1 0x20 DUP5 ADD MSTORE PUSH1 0x40 DUP2 ADD CALLDATALOAD PUSH2 0x1F1F DUP2 PUSH2 0xE33 JUMP JUMPDEST PUSH1 0x40 DUP5 ADD MSTORE PUSH1 0x60 DUP2 ADD CALLDATALOAD PUSH1 0x60 DUP5 ADD MSTORE ADD CALLDATALOAD PUSH1 0x80 DUP3 ADD MSTORE SWAP1 JUMP JUMPDEST SWAP2 SWAP1 SWAP2 PUSH1 0xA0 DUP2 DUP5 SUB SLT PUSH2 0x401 JUMPI DUP1 CALLDATALOAD PUSH2 0x1F50 DUP2 PUSH2 0xE33 JUMP JUMPDEST SWAP3 PUSH1 0x20 DUP3 ADD CALLDATALOAD PUSH2 0x1F5F DUP2 PUSH2 0x1388 JUMP JUMPDEST SWAP3 PUSH1 0x40 DUP4 ADD CALLDATALOAD SWAP3 PUSH1 0x60 DUP2 ADD CALLDATALOAD SWAP3 PUSH1 0x80 DUP3 ADD CALLDATALOAD PUSH8 0xFFFFFFFFFFFFFFFF SWAP3 DUP4 DUP3 GT PUSH2 0x401 JUMPI ADD SWAP1 PUSH1 0x60 DUP3 DUP3 SUB SLT PUSH2 0x401 JUMPI PUSH1 0x40 MLOAD SWAP3 PUSH2 0x1F9B DUP5 PUSH2 0x10B2 JUMP JUMPDEST DUP3 CALLDATALOAD PUSH2 0x1FA6 DUP2 PUSH2 0xE33 JUMP JUMPDEST DUP5 MSTORE PUSH1 0x20 DUP4 ADD CALLDATALOAD PUSH2 0x1FB6 DUP2 PUSH2 0xE33 JUMP JUMPDEST PUSH1 0x20 DUP6 ADD MSTORE PUSH1 0x40 DUP4 ADD CALLDATALOAD SWAP1 DUP2 GT PUSH2 0x401 JUMPI PUSH2 0x1FD1 SWAP3 ADD PUSH2 0x13E2 JUMP JUMPDEST PUSH1 0x40 DUP3 ADD MSTORE SWAP1 JUMP JUMPDEST SWAP4 SWAP1 PUSH2 0x12AC SWAP6 SWAP2 PUSH2 0x100 SWAP5 PUSH2 0xFFFF PUSH1 0x40 SWAP6 PUSH1 0x1 PUSH1 0x1 PUSH1 0xA0 SHL SUB DUP1 SWAP6 AND DUP10 MSTORE AND PUSH1 0x20 DUP9 ADD MSTORE DUP5 DUP8 ADD MSTORE PUSH1 0x60 DUP7 ADD MSTORE PUSH1 0xA0 PUSH1 0x80 DUP7 ADD MSTORE DUP1 DUP3 MLOAD AND PUSH1 0xA0 DUP7 ADD MSTORE PUSH1 0x20 DUP3 ADD MLOAD AND PUSH1 0xC0 DUP6 ADD MSTORE ADD MLOAD SWAP2 PUSH1 0x60 PUSH1 0xE0 DUP3 ADD MSTORE ADD SWAP1 PUSH2 0x11F JUMP JUMPDEST ISZERO PUSH2 0x2039 JUMPI JUMP JUMPDEST PUSH1 0x40 MLOAD PUSH3 0x461BCD PUSH1 0xE5 SHL DUP2 MSTORE PUSH1 0x20 PUSH1 0x4 DUP3 ADD MSTORE PUSH1 0x18 PUSH1 0x24 DUP3 ADD MSTORE PUSH32 0x4D61676E657461723A2076616C7565206D69736D617463680000000000000000 PUSH1 0x44 DUP3 ADD MSTORE PUSH1 0x64 SWAP1 REVERT JUMPDEST SWAP1 DUP1 SWAP3 SWAP2 DUP3 CALLDATACOPY ADD PUSH1 0x0 DUP2 MSTORE SWAP1 JUMP JUMPDEST RETURNDATASIZE ISZERO PUSH2 0x20B7 JUMPI RETURNDATASIZE SWAP1 PUSH2 0x209D DUP3 PUSH2 0x13C6 JUMP JUMPDEST SWAP2 PUSH2 0x20AB PUSH1 0x40 MLOAD SWAP4 DUP5 PUSH2 0x115B JUMP JUMPDEST DUP3 MSTORE RETURNDATASIZE PUSH1 0x0 PUSH1 0x20 DUP5 ADD RETURNDATACOPY JUMP JUMPDEST PUSH1 0x60 SWAP1 JUMP JUMPDEST DUP3 PUSH1 0x4 GT PUSH2 0x401 JUMPI PUSH1 0xE0 PUSH1 0x3 NOT DUP4 DUP6 DUP2 ADD SUB ADD SLT PUSH2 0x401 JUMPI PUSH1 0x0 SWAP3 DUP4 DUP1 SWAP4 PUSH2 0x2155 PUSH1 0x1 PUSH1 0x1 PUSH1 0xA0 SHL SUB PUSH1 0x40 MLOAD PUSH2 0x20F1 DUP2 PUSH2 0x1123 JUMP JUMPDEST PUSH1 0x4 DUP5 ADD CALLDATALOAD SWAP1 PUSH2 0x2100 DUP3 PUSH2 0xE33 JUMP JUMPDEST DUP2 DUP2 MSTORE PUSH1 0x24 DUP6 ADD CALLDATALOAD PUSH2 0x2111 DUP2 PUSH2 0xE33 JUMP JUMPDEST PUSH1 0x20 DUP3 ADD MSTORE PUSH1 0x44 DUP6 ADD CALLDATALOAD PUSH1 0x40 DUP3 ADD MSTORE PUSH1 0x64 DUP6 ADD CALLDATALOAD PUSH1 0x60 DUP3 ADD MSTORE PUSH2 0x2136 PUSH1 0x84 DUP7 ADD PUSH2 0x161D JUMP JUMPDEST PUSH1 0x80 DUP3 ADD MSTORE PUSH1 0xA4 DUP6 ADD CALLDATALOAD PUSH1 0xA0 DUP3 ADD MSTORE PUSH1 0xC0 PUSH1 0xC4 DUP7 ADD CALLDATALOAD SWAP2 ADD MSTORE AND PUSH2 0x2219 JUMP JUMPDEST PUSH2 0x2164 PUSH1 0x40 MLOAD DUP1 SWAP5 DUP2 SWAP4 PUSH2 0x207E JUMP JUMPDEST SUB SWAP3 GAS CALL SWAP1 PUSH2 0x2171 PUSH2 0x208C JUMP JUMPDEST SWAP2 ISZERO SWAP1 DUP2 PUSH2 0x2187 JUMPI JUMPDEST POP PUSH2 0x2182 JUMPI POP JUMP JUMPDEST PUSH2 0x226F JUMP JUMPDEST SWAP1 POP ISZERO CODESIZE PUSH2 0x217A JUMP JUMPDEST PUSH1 0xC0 SWAP3 PUSH2 0x219E DUP2 DUP1 DUP6 PUSH2 0x139E JUMP JUMPDEST SWAP1 DUP1 SWAP6 SWAP2 DUP2 ADD SUB SLT PUSH2 0x401 JUMPI PUSH1 0x0 DUP1 SWAP5 SWAP4 PUSH2 0x2155 PUSH1 0x1 PUSH1 0x1 PUSH1 0xA0 SHL SUB DUP4 SWAP7 PUSH1 0x40 MLOAD PUSH2 0x21C8 DUP2 PUSH2 0x10CE JUMP JUMPDEST PUSH1 0xA0 DUP1 DUP4 CALLDATALOAD SWAP4 PUSH2 0x21D7 DUP6 PUSH2 0xE33 JUMP JUMPDEST DUP5 DUP5 MSTORE PUSH1 0x20 DUP2 ADD CALLDATALOAD PUSH2 0x21E8 DUP2 PUSH2 0xE33 JUMP JUMPDEST PUSH1 0x20 DUP6 ADD MSTORE PUSH1 0x40 DUP2 ADD CALLDATALOAD PUSH1 0x40 DUP6 ADD MSTORE PUSH2 0x2203 PUSH1 0x60 DUP3 ADD PUSH2 0x161D JUMP JUMPDEST PUSH1 0x60 DUP6 ADD MSTORE PUSH1 0x80 DUP2 ADD CALLDATALOAD PUSH1 0x80 DUP6 ADD MSTORE ADD CALLDATALOAD SWAP2 ADD MSTORE AND JUMPDEST PUSH1 0x1 PUSH1 0x1 PUSH1 0xA0 SHL SUB AND CALLER SUB PUSH2 0x222A JUMPI JUMP JUMPDEST PUSH1 0x40 MLOAD PUSH3 0x461BCD PUSH1 0xE5 SHL DUP2 MSTORE PUSH1 0x20 PUSH1 0x4 DUP3 ADD MSTORE PUSH1 0x16 PUSH1 0x24 DUP3 ADD MSTORE PUSH32 0x4D61676E657461723A20756E617574686F72697A656400000000000000000000 PUSH1 0x44 DUP3 ADD MSTORE PUSH1 0x64 SWAP1 REVERT JUMPDEST PUSH1 0x44 DUP2 MLOAD LT PUSH2 0x2308 JUMPI PUSH1 0x4 DUP2 ADD MLOAD DUP2 ADD SWAP1 PUSH1 0x20 DUP2 PUSH1 0x24 DUP5 ADD SWAP4 SUB SLT PUSH2 0x401 JUMPI PUSH1 0x24 DUP2 ADD MLOAD SWAP1 PUSH8 0xFFFFFFFFFFFFFFFF DUP3 GT PUSH2 0x401 JUMPI ADD SWAP1 DUP1 PUSH1 0x43 DUP4 ADD SLT ISZERO PUSH2 0x401 JUMPI PUSH1 0x24 DUP3 ADD MLOAD SWAP2 PUSH2 0x22BF DUP4 PUSH2 0x13C6 JUMP JUMPDEST SWAP2 PUSH2 0x22CD PUSH1 0x40 MLOAD SWAP4 DUP5 PUSH2 0x115B JUMP JUMPDEST DUP4 DUP4 MSTORE PUSH1 0x44 DUP5 DUP4 ADD ADD GT PUSH2 0x401 JUMPI PUSH2 0xD58 SWAP3 PUSH2 0x22F0 SWAP2 PUSH1 0x44 PUSH1 0x20 DUP6 ADD SWAP2 ADD PUSH2 0xFC JUMP JUMPDEST PUSH1 0x40 MLOAD PUSH3 0x461BCD PUSH1 0xE5 SHL DUP2 MSTORE SWAP2 DUP3 SWAP2 PUSH1 0x4 DUP4 ADD PUSH2 0x134B JUMP JUMPDEST PUSH1 0x40 MLOAD PUSH3 0x461BCD PUSH1 0xE5 SHL DUP2 MSTORE PUSH1 0x20 PUSH1 0x4 DUP3 ADD MSTORE PUSH1 0xE PUSH1 0x24 DUP3 ADD MSTORE PUSH32 0x526561736F6E20756E6B6E6F776E000000000000000000000000000000000000 PUSH1 0x44 DUP3 ADD MSTORE PUSH1 0x64 SWAP1 REVERT JUMPDEST PUSH1 0x0 DUP1 SWAP2 PUSH1 0x40 MLOAD PUSH2 0x237B DUP2 PUSH2 0x606 PUSH1 0x20 DUP3 ADD SWAP5 PUSH4 0x104C13EB PUSH1 0xE2 SHL DUP7 MSTORE PUSH1 0x20 PUSH1 0x24 DUP5 ADD MSTORE PUSH1 0x44 DUP4 ADD SWAP1 PUSH2 0x11F JUMP JUMPDEST MLOAD SWAP1 PUSH11 0x636F6E736F6C652E6C6F67 GAS STATICCALL POP JUMP INVALID LOG2 PUSH5 0x6970667358 0x22 SLT KECCAK256 0xFC 0xAE 0xBE SAR 0xD3 DUP6 0xA6 PUSH16 0x33AFD113DFFAB95F8A228C85C57422DE AND BASEFEE 0xC3 SHR 0xB1 SWAP15 SHR SUB PUSH5 0x736F6C6343 STOP ADDMOD SLT STOP CALLER "},"gasEstimates":{"creation":{"codeDepositCost":"1831200","executionCost":"infinite","totalCost":"infinite"},"external":{"burst((uint16,address,uint256,bool,bytes)[])":"infinite","getBasefee()":"246","getBlockHash(uint256)":"446","getBlockNumber()":"268","getChainId()":"224","getCurrentBlockCoinbase()":"400","getCurrentBlockDifficulty()":"334","getCurrentBlockGasLimit()":"356","getCurrentBlockTimestamp()":"180","getEthBalance(address)":"2961","getLastBlockHash()":"231","owner()":"2500","renounceOwnership()":"28206","transferOwnership(address)":"28451"},"internal":{"_checkSender(address)":"infinite","_getRevertMsg(bytes memory)":"infinite","_permit(address,bytes calldata,bool,bool)":"infinite"}},"methodIdentifiers":{"burst((uint16,address,uint256,bool,bytes)[])":"013546e1","getBasefee()":"3e64a696","getBlockHash(uint256)":"ee82ac5e","getBlockNumber()":"42cbb15c","getChainId()":"3408e470","getCurrentBlockCoinbase()":"a8b0574e","getCurrentBlockDifficulty()":"72425d9d","getCurrentBlockGasLimit()":"86d516e8","getCurrentBlockTimestamp()":"0f28c97d","getEthBalance(address)":"4d2301cc","getLastBlockHash()":"27e86d6e","owner()":"8da5cb5b","renounceOwnership()":"715018a6","transferOwnership(address)":"f2fde38b"}},"storageLayout":{"storage":[{"astId":583,"contract":"contracts/utils/Magnetar/Magnetar.sol:Magnetar","label":"_owner","offset":0,"slot":"0","type":"t_address"}],"types":{"t_address":{"encoding":"inplace","label":"address","numberOfBytes":"20"}}},"userdoc":{"kind":"user","methods":{"burst((uint16,address,uint256,bool,bytes)[])":{"notice":"Batch multiple calls together"},"getBasefee()":{"notice":"Gets the base fee of the given blockCan revert if the BASEFEE opcode is not implemented by the given chain"},"getBlockHash(uint256)":{"notice":"Returns the block hash for the given block number"},"getBlockNumber()":{"notice":"Returns the block number"},"getChainId()":{"notice":"Returns the chain id"},"getCurrentBlockCoinbase()":{"notice":"Returns the block coinbase"},"getCurrentBlockDifficulty()":{"notice":"Returns the block difficulty"},"getCurrentBlockGasLimit()":{"notice":"Returns the block gas limit"},"getCurrentBlockTimestamp()":{"notice":"Returns the block timestamp"},"getEthBalance(address)":{"notice":"Returns the (ETH) balance of a given address"},"getLastBlockHash()":{"notice":"Returns the block hash of the last block"}},"version":1}}}}