{
  "_format": "hh-sol-artifact-1",
  "contractName": "BaseTOFTMarketModule",
  "sourceName": "contracts/tOFT/modules/BaseTOFTMarketModule.sol",
  "abi": [
    {
      "inputs": [
        {
          "internalType": "address",
          "name": "_lzEndpoint",
          "type": "address"
        },
        {
          "internalType": "address",
          "name": "_erc20",
          "type": "address"
        },
        {
          "internalType": "contract IYieldBoxBase",
          "name": "_yieldBox",
          "type": "address"
        },
        {
          "internalType": "contract ICluster",
          "name": "_cluster",
          "type": "address"
        },
        {
          "internalType": "string",
          "name": "_name",
          "type": "string"
        },
        {
          "internalType": "string",
          "name": "_symbol",
          "type": "string"
        },
        {
          "internalType": "uint8",
          "name": "_decimal",
          "type": "uint8"
        },
        {
          "internalType": "uint256",
          "name": "_hostChainID",
          "type": "uint256"
        }
      ],
      "stateMutability": "nonpayable",
      "type": "constructor"
    },
    {
      "anonymous": false,
      "inputs": [
        {
          "indexed": true,
          "internalType": "address",
          "name": "owner",
          "type": "address"
        },
        {
          "indexed": true,
          "internalType": "address",
          "name": "spender",
          "type": "address"
        },
        {
          "indexed": false,
          "internalType": "uint256",
          "name": "value",
          "type": "uint256"
        }
      ],
      "name": "Approval",
      "type": "event"
    },
    {
      "anonymous": false,
      "inputs": [
        {
          "indexed": true,
          "internalType": "uint16",
          "name": "_srcChainId",
          "type": "uint16"
        },
        {
          "indexed": false,
          "internalType": "bytes",
          "name": "_srcAddress",
          "type": "bytes"
        },
        {
          "indexed": false,
          "internalType": "uint64",
          "name": "_nonce",
          "type": "uint64"
        },
        {
          "indexed": false,
          "internalType": "bytes32",
          "name": "_hash",
          "type": "bytes32"
        }
      ],
      "name": "CallOFTReceivedSuccess",
      "type": "event"
    },
    {
      "anonymous": false,
      "inputs": [
        {
          "indexed": false,
          "internalType": "uint16",
          "name": "_srcChainId",
          "type": "uint16"
        },
        {
          "indexed": false,
          "internalType": "bytes",
          "name": "_srcAddress",
          "type": "bytes"
        },
        {
          "indexed": false,
          "internalType": "uint64",
          "name": "_nonce",
          "type": "uint64"
        },
        {
          "indexed": false,
          "internalType": "bytes",
          "name": "_payload",
          "type": "bytes"
        },
        {
          "indexed": false,
          "internalType": "bytes",
          "name": "_reason",
          "type": "bytes"
        }
      ],
      "name": "MessageFailed",
      "type": "event"
    },
    {
      "anonymous": false,
      "inputs": [
        {
          "indexed": false,
          "internalType": "address",
          "name": "_address",
          "type": "address"
        }
      ],
      "name": "NonContractAddress",
      "type": "event"
    },
    {
      "anonymous": false,
      "inputs": [
        {
          "indexed": true,
          "internalType": "address",
          "name": "previousOwner",
          "type": "address"
        },
        {
          "indexed": true,
          "internalType": "address",
          "name": "newOwner",
          "type": "address"
        }
      ],
      "name": "OwnershipTransferred",
      "type": "event"
    },
    {
      "anonymous": false,
      "inputs": [
        {
          "indexed": true,
          "internalType": "uint16",
          "name": "_srcChainId",
          "type": "uint16"
        },
        {
          "indexed": true,
          "internalType": "address",
          "name": "_to",
          "type": "address"
        },
        {
          "indexed": false,
          "internalType": "uint256",
          "name": "_amount",
          "type": "uint256"
        }
      ],
      "name": "ReceiveFromChain",
      "type": "event"
    },
    {
      "anonymous": false,
      "inputs": [
        {
          "indexed": false,
          "internalType": "uint16",
          "name": "_srcChainId",
          "type": "uint16"
        },
        {
          "indexed": false,
          "internalType": "bytes",
          "name": "_srcAddress",
          "type": "bytes"
        },
        {
          "indexed": false,
          "internalType": "uint64",
          "name": "_nonce",
          "type": "uint64"
        },
        {
          "indexed": false,
          "internalType": "bytes32",
          "name": "_payloadHash",
          "type": "bytes32"
        }
      ],
      "name": "RetryMessageSuccess",
      "type": "event"
    },
    {
      "anonymous": false,
      "inputs": [
        {
          "indexed": true,
          "internalType": "uint16",
          "name": "_dstChainId",
          "type": "uint16"
        },
        {
          "indexed": true,
          "internalType": "address",
          "name": "_from",
          "type": "address"
        },
        {
          "indexed": true,
          "internalType": "bytes32",
          "name": "_toAddress",
          "type": "bytes32"
        },
        {
          "indexed": false,
          "internalType": "uint256",
          "name": "_amount",
          "type": "uint256"
        }
      ],
      "name": "SendToChain",
      "type": "event"
    },
    {
      "anonymous": false,
      "inputs": [
        {
          "indexed": false,
          "internalType": "uint16",
          "name": "_dstChainId",
          "type": "uint16"
        },
        {
          "indexed": false,
          "internalType": "uint16",
          "name": "_type",
          "type": "uint16"
        },
        {
          "indexed": false,
          "internalType": "uint256",
          "name": "_minDstGas",
          "type": "uint256"
        }
      ],
      "name": "SetMinDstGas",
      "type": "event"
    },
    {
      "anonymous": false,
      "inputs": [
        {
          "indexed": false,
          "internalType": "address",
          "name": "precrime",
          "type": "address"
        }
      ],
      "name": "SetPrecrime",
      "type": "event"
    },
    {
      "anonymous": false,
      "inputs": [
        {
          "indexed": false,
          "internalType": "uint16",
          "name": "_remoteChainId",
          "type": "uint16"
        },
        {
          "indexed": false,
          "internalType": "bytes",
          "name": "_path",
          "type": "bytes"
        }
      ],
      "name": "SetTrustedRemote",
      "type": "event"
    },
    {
      "anonymous": false,
      "inputs": [
        {
          "indexed": false,
          "internalType": "uint16",
          "name": "_remoteChainId",
          "type": "uint16"
        },
        {
          "indexed": false,
          "internalType": "bytes",
          "name": "_remoteAddress",
          "type": "bytes"
        }
      ],
      "name": "SetTrustedRemoteAddress",
      "type": "event"
    },
    {
      "anonymous": false,
      "inputs": [
        {
          "indexed": false,
          "internalType": "bool",
          "name": "_useCustomAdapterParams",
          "type": "bool"
        }
      ],
      "name": "SetUseCustomAdapterParams",
      "type": "event"
    },
    {
      "anonymous": false,
      "inputs": [
        {
          "indexed": true,
          "internalType": "address",
          "name": "from",
          "type": "address"
        },
        {
          "indexed": true,
          "internalType": "address",
          "name": "to",
          "type": "address"
        },
        {
          "indexed": false,
          "internalType": "uint256",
          "name": "value",
          "type": "uint256"
        }
      ],
      "name": "Transfer",
      "type": "event"
    },
    {
      "inputs": [],
      "name": "DEFAULT_PAYLOAD_SIZE_LIMIT",
      "outputs": [
        {
          "internalType": "uint256",
          "name": "",
          "type": "uint256"
        }
      ],
      "stateMutability": "view",
      "type": "function"
    },
    {
      "inputs": [],
      "name": "NO_EXTRA_GAS",
      "outputs": [
        {
          "internalType": "uint256",
          "name": "",
          "type": "uint256"
        }
      ],
      "stateMutability": "view",
      "type": "function"
    },
    {
      "inputs": [],
      "name": "PT_SEND",
      "outputs": [
        {
          "internalType": "uint8",
          "name": "",
          "type": "uint8"
        }
      ],
      "stateMutability": "view",
      "type": "function"
    },
    {
      "inputs": [],
      "name": "PT_SEND_AND_CALL",
      "outputs": [
        {
          "internalType": "uint8",
          "name": "",
          "type": "uint8"
        }
      ],
      "stateMutability": "view",
      "type": "function"
    },
    {
      "inputs": [
        {
          "internalType": "address",
          "name": "owner",
          "type": "address"
        },
        {
          "internalType": "address",
          "name": "spender",
          "type": "address"
        }
      ],
      "name": "allowance",
      "outputs": [
        {
          "internalType": "uint256",
          "name": "",
          "type": "uint256"
        }
      ],
      "stateMutability": "view",
      "type": "function"
    },
    {
      "inputs": [
        {
          "internalType": "address",
          "name": "spender",
          "type": "address"
        },
        {
          "internalType": "uint256",
          "name": "amount",
          "type": "uint256"
        }
      ],
      "name": "approve",
      "outputs": [
        {
          "internalType": "bool",
          "name": "",
          "type": "bool"
        }
      ],
      "stateMutability": "nonpayable",
      "type": "function"
    },
    {
      "inputs": [
        {
          "internalType": "address",
          "name": "account",
          "type": "address"
        }
      ],
      "name": "balanceOf",
      "outputs": [
        {
          "internalType": "uint256",
          "name": "",
          "type": "uint256"
        }
      ],
      "stateMutability": "view",
      "type": "function"
    },
    {
      "inputs": [
        {
          "internalType": "address",
          "name": "module",
          "type": "address"
        },
        {
          "internalType": "uint16",
          "name": "_srcChainId",
          "type": "uint16"
        },
        {
          "internalType": "bytes",
          "name": "_srcAddress",
          "type": "bytes"
        },
        {
          "internalType": "uint64",
          "name": "_nonce",
          "type": "uint64"
        },
        {
          "internalType": "bytes",
          "name": "_payload",
          "type": "bytes"
        }
      ],
      "name": "borrow",
      "outputs": [],
      "stateMutability": "payable",
      "type": "function"
    },
    {
      "inputs": [
        {
          "internalType": "bytes32",
          "name": "_to",
          "type": "bytes32"
        },
        {
          "components": [
            {
              "internalType": "uint256",
              "name": "amount",
              "type": "uint256"
            },
            {
              "internalType": "uint256",
              "name": "borrowAmount",
              "type": "uint256"
            },
            {
              "internalType": "address",
              "name": "marketHelper",
              "type": "address"
            },
            {
              "internalType": "address",
              "name": "market",
              "type": "address"
            }
          ],
          "internalType": "struct ITapiocaOFT.IBorrowParams",
          "name": "borrowParams",
          "type": "tuple"
        },
        {
          "components": [
            {
              "internalType": "bool",
              "name": "withdraw",
              "type": "bool"
            },
            {
              "internalType": "uint256",
              "name": "withdrawLzFeeAmount",
              "type": "uint256"
            },
            {
              "internalType": "bool",
              "name": "withdrawOnOtherChain",
              "type": "bool"
            },
            {
              "internalType": "uint16",
              "name": "withdrawLzChainId",
              "type": "uint16"
            },
            {
              "internalType": "bytes",
              "name": "withdrawAdapterParams",
              "type": "bytes"
            }
          ],
          "internalType": "struct ICommonData.IWithdrawParams",
          "name": "withdrawParams",
          "type": "tuple"
        },
        {
          "components": [
            {
              "internalType": "bool",
              "name": "permitAll",
              "type": "bool"
            },
            {
              "internalType": "bool",
              "name": "allowFailure",
              "type": "bool"
            },
            {
              "internalType": "address",
              "name": "target",
              "type": "address"
            },
            {
              "internalType": "bool",
              "name": "permitBorrow",
              "type": "bool"
            },
            {
              "internalType": "address",
              "name": "owner",
              "type": "address"
            },
            {
              "internalType": "address",
              "name": "spender",
              "type": "address"
            },
            {
              "internalType": "uint256",
              "name": "value",
              "type": "uint256"
            },
            {
              "internalType": "uint256",
              "name": "deadline",
              "type": "uint256"
            },
            {
              "internalType": "uint8",
              "name": "v",
              "type": "uint8"
            },
            {
              "internalType": "bytes32",
              "name": "r",
              "type": "bytes32"
            },
            {
              "internalType": "bytes32",
              "name": "s",
              "type": "bytes32"
            }
          ],
          "internalType": "struct ICommonData.IApproval[]",
          "name": "approvals",
          "type": "tuple[]"
        }
      ],
      "name": "borrowInternal",
      "outputs": [],
      "stateMutability": "payable",
      "type": "function"
    },
    {
      "inputs": [
        {
          "internalType": "uint16",
          "name": "_srcChainId",
          "type": "uint16"
        },
        {
          "internalType": "bytes",
          "name": "_srcAddress",
          "type": "bytes"
        },
        {
          "internalType": "uint64",
          "name": "_nonce",
          "type": "uint64"
        },
        {
          "internalType": "bytes32",
          "name": "_from",
          "type": "bytes32"
        },
        {
          "internalType": "address",
          "name": "_to",
          "type": "address"
        },
        {
          "internalType": "uint256",
          "name": "_amount",
          "type": "uint256"
        },
        {
          "internalType": "bytes",
          "name": "_payload",
          "type": "bytes"
        },
        {
          "internalType": "uint256",
          "name": "_gasForCall",
          "type": "uint256"
        }
      ],
      "name": "callOnOFTReceived",
      "outputs": [],
      "stateMutability": "nonpayable",
      "type": "function"
    },
    {
      "inputs": [],
      "name": "circulatingSupply",
      "outputs": [
        {
          "internalType": "uint256",
          "name": "",
          "type": "uint256"
        }
      ],
      "stateMutability": "view",
      "type": "function"
    },
    {
      "inputs": [],
      "name": "cluster",
      "outputs": [
        {
          "internalType": "contract ICluster",
          "name": "",
          "type": "address"
        }
      ],
      "stateMutability": "view",
      "type": "function"
    },
    {
      "inputs": [
        {
          "internalType": "uint16",
          "name": "",
          "type": "uint16"
        },
        {
          "internalType": "bytes",
          "name": "",
          "type": "bytes"
        },
        {
          "internalType": "uint64",
          "name": "",
          "type": "uint64"
        }
      ],
      "name": "creditedPackets",
      "outputs": [
        {
          "internalType": "bool",
          "name": "",
          "type": "bool"
        }
      ],
      "stateMutability": "view",
      "type": "function"
    },
    {
      "inputs": [],
      "name": "decimals",
      "outputs": [
        {
          "internalType": "uint8",
          "name": "",
          "type": "uint8"
        }
      ],
      "stateMutability": "view",
      "type": "function"
    },
    {
      "inputs": [
        {
          "internalType": "address",
          "name": "spender",
          "type": "address"
        },
        {
          "internalType": "uint256",
          "name": "subtractedValue",
          "type": "uint256"
        }
      ],
      "name": "decreaseAllowance",
      "outputs": [
        {
          "internalType": "bool",
          "name": "",
          "type": "bool"
        }
      ],
      "stateMutability": "nonpayable",
      "type": "function"
    },
    {
      "inputs": [],
      "name": "erc20",
      "outputs": [
        {
          "internalType": "address",
          "name": "",
          "type": "address"
        }
      ],
      "stateMutability": "view",
      "type": "function"
    },
    {
      "inputs": [
        {
          "internalType": "uint16",
          "name": "_dstChainId",
          "type": "uint16"
        },
        {
          "internalType": "bytes32",
          "name": "_toAddress",
          "type": "bytes32"
        },
        {
          "internalType": "uint256",
          "name": "_amount",
          "type": "uint256"
        },
        {
          "internalType": "bytes",
          "name": "_payload",
          "type": "bytes"
        },
        {
          "internalType": "uint64",
          "name": "_dstGasForCall",
          "type": "uint64"
        },
        {
          "internalType": "bool",
          "name": "_useZro",
          "type": "bool"
        },
        {
          "internalType": "bytes",
          "name": "_adapterParams",
          "type": "bytes"
        }
      ],
      "name": "estimateSendAndCallFee",
      "outputs": [
        {
          "internalType": "uint256",
          "name": "nativeFee",
          "type": "uint256"
        },
        {
          "internalType": "uint256",
          "name": "zroFee",
          "type": "uint256"
        }
      ],
      "stateMutability": "view",
      "type": "function"
    },
    {
      "inputs": [
        {
          "internalType": "uint16",
          "name": "_dstChainId",
          "type": "uint16"
        },
        {
          "internalType": "bytes32",
          "name": "_toAddress",
          "type": "bytes32"
        },
        {
          "internalType": "uint256",
          "name": "_amount",
          "type": "uint256"
        },
        {
          "internalType": "bool",
          "name": "_useZro",
          "type": "bool"
        },
        {
          "internalType": "bytes",
          "name": "_adapterParams",
          "type": "bytes"
        }
      ],
      "name": "estimateSendFee",
      "outputs": [
        {
          "internalType": "uint256",
          "name": "nativeFee",
          "type": "uint256"
        },
        {
          "internalType": "uint256",
          "name": "zroFee",
          "type": "uint256"
        }
      ],
      "stateMutability": "view",
      "type": "function"
    },
    {
      "inputs": [
        {
          "internalType": "uint16",
          "name": "",
          "type": "uint16"
        },
        {
          "internalType": "bytes",
          "name": "",
          "type": "bytes"
        },
        {
          "internalType": "uint64",
          "name": "",
          "type": "uint64"
        }
      ],
      "name": "failedMessages",
      "outputs": [
        {
          "internalType": "bytes32",
          "name": "",
          "type": "bytes32"
        }
      ],
      "stateMutability": "view",
      "type": "function"
    },
    {
      "inputs": [
        {
          "internalType": "uint16",
          "name": "_srcChainId",
          "type": "uint16"
        },
        {
          "internalType": "bytes",
          "name": "_srcAddress",
          "type": "bytes"
        }
      ],
      "name": "forceResumeReceive",
      "outputs": [],
      "stateMutability": "nonpayable",
      "type": "function"
    },
    {
      "inputs": [
        {
          "internalType": "uint16",
          "name": "_version",
          "type": "uint16"
        },
        {
          "internalType": "uint16",
          "name": "_chainId",
          "type": "uint16"
        },
        {
          "internalType": "address",
          "name": "",
          "type": "address"
        },
        {
          "internalType": "uint256",
          "name": "_configType",
          "type": "uint256"
        }
      ],
      "name": "getConfig",
      "outputs": [
        {
          "internalType": "bytes",
          "name": "",
          "type": "bytes"
        }
      ],
      "stateMutability": "view",
      "type": "function"
    },
    {
      "inputs": [
        {
          "internalType": "uint16",
          "name": "_remoteChainId",
          "type": "uint16"
        }
      ],
      "name": "getTrustedRemoteAddress",
      "outputs": [
        {
          "internalType": "bytes",
          "name": "",
          "type": "bytes"
        }
      ],
      "stateMutability": "view",
      "type": "function"
    },
    {
      "inputs": [],
      "name": "hostChainID",
      "outputs": [
        {
          "internalType": "uint256",
          "name": "",
          "type": "uint256"
        }
      ],
      "stateMutability": "view",
      "type": "function"
    },
    {
      "inputs": [
        {
          "internalType": "address",
          "name": "spender",
          "type": "address"
        },
        {
          "internalType": "uint256",
          "name": "addedValue",
          "type": "uint256"
        }
      ],
      "name": "increaseAllowance",
      "outputs": [
        {
          "internalType": "bool",
          "name": "",
          "type": "bool"
        }
      ],
      "stateMutability": "nonpayable",
      "type": "function"
    },
    {
      "inputs": [
        {
          "internalType": "uint16",
          "name": "_srcChainId",
          "type": "uint16"
        },
        {
          "internalType": "bytes",
          "name": "_srcAddress",
          "type": "bytes"
        }
      ],
      "name": "isTrustedRemote",
      "outputs": [
        {
          "internalType": "bool",
          "name": "",
          "type": "bool"
        }
      ],
      "stateMutability": "view",
      "type": "function"
    },
    {
      "inputs": [],
      "name": "lzEndpoint",
      "outputs": [
        {
          "internalType": "contract ILayerZeroEndpoint",
          "name": "",
          "type": "address"
        }
      ],
      "stateMutability": "view",
      "type": "function"
    },
    {
      "inputs": [
        {
          "internalType": "uint16",
          "name": "_srcChainId",
          "type": "uint16"
        },
        {
          "internalType": "bytes",
          "name": "_srcAddress",
          "type": "bytes"
        },
        {
          "internalType": "uint64",
          "name": "_nonce",
          "type": "uint64"
        },
        {
          "internalType": "bytes",
          "name": "_payload",
          "type": "bytes"
        }
      ],
      "name": "lzReceive",
      "outputs": [],
      "stateMutability": "nonpayable",
      "type": "function"
    },
    {
      "inputs": [
        {
          "internalType": "uint16",
          "name": "",
          "type": "uint16"
        },
        {
          "internalType": "uint16",
          "name": "",
          "type": "uint16"
        }
      ],
      "name": "minDstGasLookup",
      "outputs": [
        {
          "internalType": "uint256",
          "name": "",
          "type": "uint256"
        }
      ],
      "stateMutability": "view",
      "type": "function"
    },
    {
      "inputs": [],
      "name": "name",
      "outputs": [
        {
          "internalType": "string",
          "name": "",
          "type": "string"
        }
      ],
      "stateMutability": "view",
      "type": "function"
    },
    {
      "inputs": [
        {
          "internalType": "uint16",
          "name": "_srcChainId",
          "type": "uint16"
        },
        {
          "internalType": "bytes",
          "name": "_srcAddress",
          "type": "bytes"
        },
        {
          "internalType": "uint64",
          "name": "_nonce",
          "type": "uint64"
        },
        {
          "internalType": "bytes",
          "name": "_payload",
          "type": "bytes"
        }
      ],
      "name": "nonblockingLzReceive",
      "outputs": [],
      "stateMutability": "nonpayable",
      "type": "function"
    },
    {
      "inputs": [],
      "name": "owner",
      "outputs": [
        {
          "internalType": "address",
          "name": "",
          "type": "address"
        }
      ],
      "stateMutability": "view",
      "type": "function"
    },
    {
      "inputs": [
        {
          "internalType": "uint16",
          "name": "",
          "type": "uint16"
        }
      ],
      "name": "payloadSizeLimitLookup",
      "outputs": [
        {
          "internalType": "uint256",
          "name": "",
          "type": "uint256"
        }
      ],
      "stateMutability": "view",
      "type": "function"
    },
    {
      "inputs": [],
      "name": "precrime",
      "outputs": [
        {
          "internalType": "address",
          "name": "",
          "type": "address"
        }
      ],
      "stateMutability": "view",
      "type": "function"
    },
    {
      "inputs": [
        {
          "internalType": "bytes",
          "name": "_payload",
          "type": "bytes"
        }
      ],
      "name": "remove",
      "outputs": [],
      "stateMutability": "nonpayable",
      "type": "function"
    },
    {
      "inputs": [
        {
          "internalType": "address",
          "name": "from",
          "type": "address"
        },
        {
          "internalType": "address",
          "name": "to",
          "type": "address"
        },
        {
          "internalType": "uint16",
          "name": "lzDstChainId",
          "type": "uint16"
        },
        {
          "internalType": "address",
          "name": "zroPaymentAddress",
          "type": "address"
        },
        {
          "components": [
            {
              "internalType": "bool",
              "name": "withdraw",
              "type": "bool"
            },
            {
              "internalType": "uint256",
              "name": "withdrawLzFeeAmount",
              "type": "uint256"
            },
            {
              "internalType": "bool",
              "name": "withdrawOnOtherChain",
              "type": "bool"
            },
            {
              "internalType": "uint16",
              "name": "withdrawLzChainId",
              "type": "uint16"
            },
            {
              "internalType": "bytes",
              "name": "withdrawAdapterParams",
              "type": "bytes"
            }
          ],
          "internalType": "struct ICommonData.IWithdrawParams",
          "name": "withdrawParams",
          "type": "tuple"
        },
        {
          "components": [
            {
              "internalType": "uint256",
              "name": "amount",
              "type": "uint256"
            },
            {
              "internalType": "address",
              "name": "marketHelper",
              "type": "address"
            },
            {
              "internalType": "address",
              "name": "market",
              "type": "address"
            }
          ],
          "internalType": "struct ITapiocaOFT.IRemoveParams",
          "name": "removeParams",
          "type": "tuple"
        },
        {
          "components": [
            {
              "internalType": "bool",
              "name": "permitAll",
              "type": "bool"
            },
            {
              "internalType": "bool",
              "name": "allowFailure",
              "type": "bool"
            },
            {
              "internalType": "address",
              "name": "target",
              "type": "address"
            },
            {
              "internalType": "bool",
              "name": "permitBorrow",
              "type": "bool"
            },
            {
              "internalType": "address",
              "name": "owner",
              "type": "address"
            },
            {
              "internalType": "address",
              "name": "spender",
              "type": "address"
            },
            {
              "internalType": "uint256",
              "name": "value",
              "type": "uint256"
            },
            {
              "internalType": "uint256",
              "name": "deadline",
              "type": "uint256"
            },
            {
              "internalType": "uint8",
              "name": "v",
              "type": "uint8"
            },
            {
              "internalType": "bytes32",
              "name": "r",
              "type": "bytes32"
            },
            {
              "internalType": "bytes32",
              "name": "s",
              "type": "bytes32"
            }
          ],
          "internalType": "struct ICommonData.IApproval[]",
          "name": "approvals",
          "type": "tuple[]"
        },
        {
          "internalType": "bytes",
          "name": "adapterParams",
          "type": "bytes"
        }
      ],
      "name": "removeCollateral",
      "outputs": [],
      "stateMutability": "payable",
      "type": "function"
    },
    {
      "inputs": [],
      "name": "renounceOwnership",
      "outputs": [],
      "stateMutability": "nonpayable",
      "type": "function"
    },
    {
      "inputs": [
        {
          "internalType": "uint16",
          "name": "_srcChainId",
          "type": "uint16"
        },
        {
          "internalType": "bytes",
          "name": "_srcAddress",
          "type": "bytes"
        },
        {
          "internalType": "uint64",
          "name": "_nonce",
          "type": "uint64"
        },
        {
          "internalType": "bytes",
          "name": "_payload",
          "type": "bytes"
        }
      ],
      "name": "retryMessage",
      "outputs": [],
      "stateMutability": "payable",
      "type": "function"
    },
    {
      "inputs": [
        {
          "internalType": "address",
          "name": "_from",
          "type": "address"
        },
        {
          "internalType": "uint16",
          "name": "_dstChainId",
          "type": "uint16"
        },
        {
          "internalType": "bytes32",
          "name": "_toAddress",
          "type": "bytes32"
        },
        {
          "internalType": "uint256",
          "name": "_amount",
          "type": "uint256"
        },
        {
          "internalType": "bytes",
          "name": "_payload",
          "type": "bytes"
        },
        {
          "internalType": "uint64",
          "name": "_dstGasForCall",
          "type": "uint64"
        },
        {
          "components": [
            {
              "internalType": "address payable",
              "name": "refundAddress",
              "type": "address"
            },
            {
              "internalType": "address",
              "name": "zroPaymentAddress",
              "type": "address"
            },
            {
              "internalType": "bytes",
              "name": "adapterParams",
              "type": "bytes"
            }
          ],
          "internalType": "struct ICommonOFT.LzCallParams",
          "name": "_callParams",
          "type": "tuple"
        }
      ],
      "name": "sendAndCall",
      "outputs": [],
      "stateMutability": "payable",
      "type": "function"
    },
    {
      "inputs": [
        {
          "internalType": "address",
          "name": "_from",
          "type": "address"
        },
        {
          "internalType": "uint16",
          "name": "_dstChainId",
          "type": "uint16"
        },
        {
          "internalType": "bytes32",
          "name": "_toAddress",
          "type": "bytes32"
        },
        {
          "internalType": "uint256",
          "name": "_amount",
          "type": "uint256"
        },
        {
          "components": [
            {
              "internalType": "address payable",
              "name": "refundAddress",
              "type": "address"
            },
            {
              "internalType": "address",
              "name": "zroPaymentAddress",
              "type": "address"
            },
            {
              "internalType": "bytes",
              "name": "adapterParams",
              "type": "bytes"
            }
          ],
          "internalType": "struct ICommonOFT.LzCallParams",
          "name": "_callParams",
          "type": "tuple"
        }
      ],
      "name": "sendFrom",
      "outputs": [],
      "stateMutability": "payable",
      "type": "function"
    },
    {
      "inputs": [
        {
          "internalType": "address",
          "name": "_from",
          "type": "address"
        },
        {
          "internalType": "address",
          "name": "_to",
          "type": "address"
        },
        {
          "internalType": "uint16",
          "name": "lzDstChainId",
          "type": "uint16"
        },
        {
          "internalType": "bytes",
          "name": "airdropAdapterParams",
          "type": "bytes"
        },
        {
          "components": [
            {
              "internalType": "uint256",
              "name": "amount",
              "type": "uint256"
            },
            {
              "internalType": "uint256",
              "name": "borrowAmount",
              "type": "uint256"
            },
            {
              "internalType": "address",
              "name": "marketHelper",
              "type": "address"
            },
            {
              "internalType": "address",
              "name": "market",
              "type": "address"
            }
          ],
          "internalType": "struct ITapiocaOFT.IBorrowParams",
          "name": "borrowParams",
          "type": "tuple"
        },
        {
          "components": [
            {
              "internalType": "bool",
              "name": "withdraw",
              "type": "bool"
            },
            {
              "internalType": "uint256",
              "name": "withdrawLzFeeAmount",
              "type": "uint256"
            },
            {
              "internalType": "bool",
              "name": "withdrawOnOtherChain",
              "type": "bool"
            },
            {
              "internalType": "uint16",
              "name": "withdrawLzChainId",
              "type": "uint16"
            },
            {
              "internalType": "bytes",
              "name": "withdrawAdapterParams",
              "type": "bytes"
            }
          ],
          "internalType": "struct ICommonData.IWithdrawParams",
          "name": "withdrawParams",
          "type": "tuple"
        },
        {
          "components": [
            {
              "internalType": "uint256",
              "name": "extraGasLimit",
              "type": "uint256"
            },
            {
              "internalType": "address",
              "name": "zroPaymentAddress",
              "type": "address"
            }
          ],
          "internalType": "struct ICommonData.ISendOptions",
          "name": "options",
          "type": "tuple"
        },
        {
          "components": [
            {
              "internalType": "bool",
              "name": "permitAll",
              "type": "bool"
            },
            {
              "internalType": "bool",
              "name": "allowFailure",
              "type": "bool"
            },
            {
              "internalType": "address",
              "name": "target",
              "type": "address"
            },
            {
              "internalType": "bool",
              "name": "permitBorrow",
              "type": "bool"
            },
            {
              "internalType": "address",
              "name": "owner",
              "type": "address"
            },
            {
              "internalType": "address",
              "name": "spender",
              "type": "address"
            },
            {
              "internalType": "uint256",
              "name": "value",
              "type": "uint256"
            },
            {
              "internalType": "uint256",
              "name": "deadline",
              "type": "uint256"
            },
            {
              "internalType": "uint8",
              "name": "v",
              "type": "uint8"
            },
            {
              "internalType": "bytes32",
              "name": "r",
              "type": "bytes32"
            },
            {
              "internalType": "bytes32",
              "name": "s",
              "type": "bytes32"
            }
          ],
          "internalType": "struct ICommonData.IApproval[]",
          "name": "approvals",
          "type": "tuple[]"
        }
      ],
      "name": "sendToYBAndBorrow",
      "outputs": [],
      "stateMutability": "payable",
      "type": "function"
    },
    {
      "inputs": [
        {
          "internalType": "uint16",
          "name": "_version",
          "type": "uint16"
        },
        {
          "internalType": "uint16",
          "name": "_chainId",
          "type": "uint16"
        },
        {
          "internalType": "uint256",
          "name": "_configType",
          "type": "uint256"
        },
        {
          "internalType": "bytes",
          "name": "_config",
          "type": "bytes"
        }
      ],
      "name": "setConfig",
      "outputs": [],
      "stateMutability": "nonpayable",
      "type": "function"
    },
    {
      "inputs": [
        {
          "internalType": "uint16",
          "name": "_dstChainId",
          "type": "uint16"
        },
        {
          "internalType": "uint16",
          "name": "_packetType",
          "type": "uint16"
        },
        {
          "internalType": "uint256",
          "name": "_minGas",
          "type": "uint256"
        }
      ],
      "name": "setMinDstGas",
      "outputs": [],
      "stateMutability": "nonpayable",
      "type": "function"
    },
    {
      "inputs": [
        {
          "internalType": "uint16",
          "name": "_dstChainId",
          "type": "uint16"
        },
        {
          "internalType": "uint256",
          "name": "_size",
          "type": "uint256"
        }
      ],
      "name": "setPayloadSizeLimit",
      "outputs": [],
      "stateMutability": "nonpayable",
      "type": "function"
    },
    {
      "inputs": [
        {
          "internalType": "address",
          "name": "_precrime",
          "type": "address"
        }
      ],
      "name": "setPrecrime",
      "outputs": [],
      "stateMutability": "nonpayable",
      "type": "function"
    },
    {
      "inputs": [
        {
          "internalType": "uint16",
          "name": "_version",
          "type": "uint16"
        }
      ],
      "name": "setReceiveVersion",
      "outputs": [],
      "stateMutability": "nonpayable",
      "type": "function"
    },
    {
      "inputs": [
        {
          "internalType": "uint16",
          "name": "_version",
          "type": "uint16"
        }
      ],
      "name": "setSendVersion",
      "outputs": [],
      "stateMutability": "nonpayable",
      "type": "function"
    },
    {
      "inputs": [
        {
          "internalType": "uint16",
          "name": "_srcChainId",
          "type": "uint16"
        },
        {
          "internalType": "bytes",
          "name": "_path",
          "type": "bytes"
        }
      ],
      "name": "setTrustedRemote",
      "outputs": [],
      "stateMutability": "nonpayable",
      "type": "function"
    },
    {
      "inputs": [
        {
          "internalType": "uint16",
          "name": "_remoteChainId",
          "type": "uint16"
        },
        {
          "internalType": "bytes",
          "name": "_remoteAddress",
          "type": "bytes"
        }
      ],
      "name": "setTrustedRemoteAddress",
      "outputs": [],
      "stateMutability": "nonpayable",
      "type": "function"
    },
    {
      "inputs": [
        {
          "internalType": "bool",
          "name": "_useCustomAdapterParams",
          "type": "bool"
        }
      ],
      "name": "setUseCustomAdapterParams",
      "outputs": [],
      "stateMutability": "nonpayable",
      "type": "function"
    },
    {
      "inputs": [],
      "name": "sharedDecimals",
      "outputs": [
        {
          "internalType": "uint8",
          "name": "",
          "type": "uint8"
        }
      ],
      "stateMutability": "view",
      "type": "function"
    },
    {
      "inputs": [
        {
          "internalType": "bytes4",
          "name": "interfaceId",
          "type": "bytes4"
        }
      ],
      "name": "supportsInterface",
      "outputs": [
        {
          "internalType": "bool",
          "name": "",
          "type": "bool"
        }
      ],
      "stateMutability": "view",
      "type": "function"
    },
    {
      "inputs": [],
      "name": "symbol",
      "outputs": [
        {
          "internalType": "string",
          "name": "",
          "type": "string"
        }
      ],
      "stateMutability": "view",
      "type": "function"
    },
    {
      "inputs": [],
      "name": "token",
      "outputs": [
        {
          "internalType": "address",
          "name": "",
          "type": "address"
        }
      ],
      "stateMutability": "view",
      "type": "function"
    },
    {
      "inputs": [],
      "name": "totalSupply",
      "outputs": [
        {
          "internalType": "uint256",
          "name": "",
          "type": "uint256"
        }
      ],
      "stateMutability": "view",
      "type": "function"
    },
    {
      "inputs": [
        {
          "internalType": "address",
          "name": "to",
          "type": "address"
        },
        {
          "internalType": "uint256",
          "name": "amount",
          "type": "uint256"
        }
      ],
      "name": "transfer",
      "outputs": [
        {
          "internalType": "bool",
          "name": "",
          "type": "bool"
        }
      ],
      "stateMutability": "nonpayable",
      "type": "function"
    },
    {
      "inputs": [
        {
          "internalType": "address",
          "name": "from",
          "type": "address"
        },
        {
          "internalType": "address",
          "name": "to",
          "type": "address"
        },
        {
          "internalType": "uint256",
          "name": "amount",
          "type": "uint256"
        }
      ],
      "name": "transferFrom",
      "outputs": [
        {
          "internalType": "bool",
          "name": "",
          "type": "bool"
        }
      ],
      "stateMutability": "nonpayable",
      "type": "function"
    },
    {
      "inputs": [
        {
          "internalType": "address",
          "name": "newOwner",
          "type": "address"
        }
      ],
      "name": "transferOwnership",
      "outputs": [],
      "stateMutability": "nonpayable",
      "type": "function"
    },
    {
      "inputs": [
        {
          "internalType": "uint16",
          "name": "",
          "type": "uint16"
        }
      ],
      "name": "trustedRemoteLookup",
      "outputs": [
        {
          "internalType": "bytes",
          "name": "",
          "type": "bytes"
        }
      ],
      "stateMutability": "view",
      "type": "function"
    },
    {
      "inputs": [],
      "name": "useCustomAdapterParams",
      "outputs": [
        {
          "internalType": "bool",
          "name": "",
          "type": "bool"
        }
      ],
      "stateMutability": "view",
      "type": "function"
    },
    {
      "inputs": [],
      "name": "yieldBox",
      "outputs": [
        {
          "internalType": "contract IYieldBoxBase",
          "name": "",
          "type": "address"
        }
      ],
      "stateMutability": "view",
      "type": "function"
    },
    {
      "stateMutability": "payable",
      "type": "receive"
    }
  ],
  "bytecode": "0x60e060409080825234620005a05762005e5e8038038091620000228285620005a5565b8339810161010082820312620005a0576200003d82620005df565b906020926200004e848201620005df565b818601516001600160a01b0380821694929091859003620005a057606084015196828816809803620005a05760808501516001600160401b039490858111620005a057816200009f91880162000619565b9060a087015190868211620005a057620000bb91880162000619565b9160c087015160ff811696878203620005a05762000116602b60e08f9b01519a5180966a546170696f63614f46542d60a81b878301526200010581518092898686019101620005f4565b810103600b810187520185620005a5565b607f8d518096601d60fa1b868301526200013a8151809288602186019101620005f4565b810103926200015460216001958681018a520188620005a5565b831c16936000958887549d60018060a01b03199e8f33908216178a55823391167f8be0079c531659141344cd1fd0a4f28419497f9722a3daafe3b4186f6b6457e08b80a3166080528560a05281518381116200058c57600b54928584811c9416801562000581575b878510146200056d578190601f9485811162000519575b508790858311600114620004b3578a92620004a7575b5050600019600383901b1c191690851b17600b555b80519283116200049357600c548481811c9116801562000488575b8682101462000474578281116200042b575b5084918311600114620003c5579282939183928894620003b9575b50501b916000199060031b1c191617600c555b6012821162000366575060120360ff8111620003525760ff1690604d82116200033e5750600a0a60c0521684600f541617600f5560ff19601154161760115560105581600d541617600d55600e541617600e55516157e9908162000675823960805181818161049f0152818161078001528181610ace01528181610fd001528181611199015281816120ce0152818161240301528181612aab015281816133c5015281816144380152614a02015260a05181611b8f015260c0518181816112880152818161224701528181614c2f01528181614e900152818161504201526150da0152f35b634e487b7160e01b81526011600452602490fd5b634e487b7160e01b82526011600452602482fd5b6084908b519062461bcd60e51b82526004820152602760248201527f4f46543a20736861726564446563696d616c73206d757374206265203c3d20646044820152666563696d616c7360c81b6064820152fd5b01519250388062000246565b600c8752848720919083601f198116895b8888838310620004135750505010620003f9575b505050811b01600c5562000259565b015160001960f88460031b161c19169055388080620003ea565b868601518855909601959485019487935001620003d6565b600c88528588208380860160051c8201928887106200046a575b0160051c019085905b8281106200045e5750506200022b565b8981550185906200044e565b9250819262000445565b634e487b7160e01b88526022600452602488fd5b90607f169062000219565b634e487b7160e01b87526041600452602487fd5b015190503880620001e9565b600b8b52888b208894509190601f1984168c5b8b828210620005025750508411620004e8575b505050811b01600b55620001fe565b015160001960f88460031b161c19169055388080620004d9565b8385015186558b97909501949384019301620004c6565b909150600b8a52878a208580850160051c8201928a861062000563575b918991869594930160051c01915b82811062000554575050620001d3565b8c815585945089910162000544565b9250819262000536565b634e487b7160e01b89526022600452602489fd5b93607f1693620001bc565b634e487b7160e01b88526041600452602488fd5b600080fd5b601f909101601f19168101906001600160401b03821190821017620005c957604052565b634e487b7160e01b600052604160045260246000fd5b51906001600160a01b0382168203620005a057565b60005b838110620006085750506000910152565b8181015183820152602001620005f7565b81601f82011215620005a05780516001600160401b038111620005c9576040519262000650601f8301601f191660200185620005a5565b81845260208284010111620005a057620006719160208085019101620005f4565b9056fe6080604052600436101561001b575b361561001957600080fd5b005b60003560e01c80621d3567146103cf57806254af3a146103ca57806301ffc9a7146103c557806306fdde03146103c057806307e0db17146103bb578063095ea7b3146103b657806309be4511146103b15780630df37483146103ac57806310ddb137146103a757806318160ddd1461033457806319b88372146103a257806323b872dd1461039d578063296c522114610398578063313ce56714610393578063365260b41461038e57806339509351146103895780633d8b38f6146103845780633f1f4fa41461037f57806342d65a8d1461037a57806344770515146103755780634c42899a1461037557806358edef4c146103705780635b8c41e61461036b57806366ad5c8a14610366578063695ef6bf1461036157806370a082311461035c578063715018a6146103575780637533d7881461035257806376203b481461034d578063785e9e8614610348578063857749b0146103435780638cfd8f5c1461033e5780638da5cb5b146103395780639358928b14610334578063950c8a741461032f57806395d89b411461032a5780639bdb9812146103255780639f38369a14610320578063a457c2d71461031b578063a4c51df514610316578063a6c3d16514610311578063a9059cbb1461030c578063b353aaa714610307578063baf3292d14610302578063bc48a9e8146102fd578063c4461834146102f8578063cbed8b9c146102f3578063d1deba1f146102ee578063dbd01de1146102e9578063dd62ed3e146102e4578063de406577146102df578063df2a5b3b146102da578063e6a20ae6146102d5578063eab45d9c146102d0578063eaffd49a146102cb578063eb8d72b7146102c6578063ed629c5c146102c1578063f2fde38b146102bc578063f5ecbdbc146102b75763fc0c546a0361000e57612b15565b612a41565b61298c565b612969565b612840565b6127b7565b612755565b612739565b61264c565b612623565b6125d9565b6125b0565b612478565b6123af565b612392565b61216d565b6120fd565b6120b8565b61208e565b611f2c565b611e95565b611de9565b611d46565b611cfb565b611c57565b611c2e565b610b2f565b611c05565b611bb3565b611b75565b611b4c565b6119b5565b61195e565b61182a565b6117ed565b61170a565b611676565b611622565b61121c565b611200565b61117f565b611146565b6110d6565b61104e565b610f46565b610f2a565b610e92565b610c16565b610b71565b610aa5565b610a66565b6109c1565b61082d565b610757565b610677565b6105c5565b6105a7565b610488565b61ffff8116036103e057565b600080fd5b9181601f840112156103e0578235916001600160401b0383116103e057602083818601950101116103e057565b6001600160401b038116036103e057565b9060806003198301126103e05760043561043c816103d4565b916001600160401b03906024358281116103e0578161045d916004016103e5565b9390939260443561046d81610412565b926064359182116103e057610484916004016103e5565b9091565b346103e05761049636610423565b929493919291907f00000000000000000000000000000000000000000000000000000000000000006001600160a01b031633036105575761051c61052492610019976105156104fb6104f68a61ffff166000526001602052604060002090565b611943565b805190818414918261054d575b508161052a575b50614341565b3691610c86565b923691610c86565b92614795565b9050610537368486610c86565b602081519101209060208151910120143861050f565b1515915038610508565b60405162461bcd60e51b815260206004820152601e60248201527f4c7a4170703a20696e76616c696420656e64706f696e742063616c6c657200006044820152606490fd5b60009103126103e057565b346103e05760003660031901126103e0576020601054604051908152f35b346103e05760203660031901126103e05760043563ffffffff60e01b81168091036103e057602090631f7ecdf760e01b811490811561060a575b506040519015158152f35b6301ffc9a760e01b149050386105ff565b60005b83811061062e5750506000910152565b818101518382015260200161061e565b906020916106578151809281855285808601910161061b565b601f01601f1916010190565b90602061067492818152019061063e565b90565b346103e0576000806003193601126107545760405181600b5461069981611873565b8084529060019081811690811561072c57506001146106d3575b6106cf846106c38188038261090a565b60405191829182610663565b0390f35b600b8352602094507f0175b7a638427703f0dbe7bb9bbf987a2551717b34e79f33b5b1008d1fa01db95b82841061071957505050816106cf936106c392820101936106b3565b80548585018701529285019281016106fd565b6106cf96506106c39450602092508593915060ff191682840152151560051b820101936106b3565b80fd5b346103e0576000602036600319011261075457600435610776816103d4565b61077e612b30565b7f00000000000000000000000000000000000000000000000000000000000000006001600160a01b0316908290823b156107f257602461ffff918360405195869485936307e0db1760e01b85521660048401525af180156107ed576107e1575080f35b6107ea90610886565b80f35b61316e565b5080fd5b6001600160a01b031690565b6001600160a01b038116036103e057565b6064359061082082610802565b565b359061082082610802565b346103e05760403660031901126103e05761085760043561084d81610802565b6024359033612d8a565b602060405160018152f35b908160a09103126103e05790565b634e487b7160e01b600052604160045260246000fd5b6001600160401b03811161089957604052565b610870565b606081019081106001600160401b0382111761089957604052565b60a081019081106001600160401b0382111761089957604052565b608081019081106001600160401b0382111761089957604052565b604081019081106001600160401b0382111761089957604052565b601f909101601f19168101906001600160401b0382119082101761089957604052565b6040519061016082016001600160401b0381118382101761089957604052565b60609060a31901126103e057604051906109668261089e565b8160a435815260c43561097881610802565b6020820152604060e4359161098c83610802565b0152565b9181601f840112156103e0578235916001600160401b0383116103e05760208085019461016085020101116103e057565b6101403660031901126103e0576004356109da81610802565b6024356109e681610802565b604435916109f3836103d4565b6109fb610813565b6001600160401b03936084358581116103e057610a1c903690600401610862565b610a253661094d565b90610104358781116103e057610a3f903690600401610990565b949093610124359889116103e057610a5e6100199936906004016103e5565b9890976131b5565b346103e05760403660031901126103e05761ffff600435610a86816103d4565b610a8e612b30565b166000526003602052602435604060002055600080f35b346103e0576000602036600319011261075457600435610ac4816103d4565b610acc612b30565b7f00000000000000000000000000000000000000000000000000000000000000006001600160a01b0316908290823b156107f257602461ffff918360405195869485936310ddb13760e01b85521660048401525af180156107ed576107e1575080f35b346103e05760003660031901126103e0576020600a54604051908152f35b60809060831901126103e057608490565b6040906101231901126103e05761012490565b6101803660031901126103e057600435610b8a81610802565b602435610b9681610802565b60443591610ba3836103d4565b6001600160401b03926064358481116103e057610bc49036906004016103e5565b610bcd36610b4d565b90610104358781116103e057610be7903690600401610862565b92610bf136610b5e565b94610164359889116103e057610c0e610019993690600401610990565b989097613389565b346103e05760603660031901126103e057610857600435610c3681610802565b602435610c4281610802565b60443591610c51833383612ea3565b612cbb565b801515036103e057565b359061082082610c56565b6001600160401b03811161089957601f01601f191660200190565b929192610c9282610c6b565b91610ca0604051938461090a565b8294818452818301116103e0578281602093846000960137010152565b9080601f830112156103e05781602061067493359101610c86565b919060a0838203126103e05760405190610cf1826108b9565b81938035610cfe81610c56565b8352602081013560208401526040810135610d1881610c56565b60408401526060810135610d2b816103d4565b60608401526080810135916001600160401b0383116103e057608092610d519201610cbd565b910152565b6001600160401b0381116108995760051b60200190565b60ff8116036103e057565b359061082082610d6d565b81601f820112156103e057803590610d9a82610d56565b92604090610daa8251958661090a565b8385526020918286019183610160809702860101948186116103e0578401925b858410610ddb575050505050505090565b86848303126103e057848791610def61092d565b610df887610c60565b8152610e05838801610c60565b83820152610e14868801610822565b868201526060610e25818901610c60565b908201526080610e36818901610822565b9082015260a0610e47818901610822565b9082015260c0808801359082015260e08088013590820152610100610e6d818901610d78565b9082015261012080880135908201526101408088013590820152815201930192610dca565b60e03660031901126103e05760803660231901126103e057604051610eb6816108d4565b60243581526044356020820152606435610ecf81610802565b6040820152608435610ee081610802565b60608201526001600160401b039060a4358281116103e057610f06903690600401610cd8565b60c4359283116103e057610f21610019933690600401610d83565b91600435613b56565b346103e05760003660031901126103e057602060405160128152f35b346103e05760a03660031901126103e057600435610f63816103d4565b60643590610f7082610c56565b608435906001600160401b0382116103e057610f9561051560409336906004016103e5565b90610fcc610faf610fa7604435615040565b60243561510f565b928451958694859463040a7bb160e41b8652309060048701614b8c565b03817f00000000000000000000000000000000000000000000000000000000000000006001600160a01b03165afa9081156107ed57600090819261101d575b50604080519182526020820192909252f35b9050611040915060403d8111611047575b611038818361090a565b810190614b76565b903861100b565b503d61102e565b346103e05760403660031901126103e05760043561106b81610802565b336000526009602052611082816040600020612ba2565b546024358101809111611099576108579133612d8a565b612bc9565b9060406003198301126103e0576004356110b7816103d4565b91602435906001600160401b0382116103e057610484916004016103e5565b346103e057602061ffff6111236110ec3661109e565b939091166000526001845261110e6111156040600020604051928380926118ad565b038261090a565b848151910120923691610c86565b82815191012014604051908152f35b61ffff166000526007602052604060002090565b346103e05760203660031901126103e05761ffff600435611166816103d4565b1660005260036020526020604060002054604051908152f35b346103e05761118d3661109e565b9190611197612b30565b7f00000000000000000000000000000000000000000000000000000000000000006001600160a01b031691823b156103e057604051928380926342d65a8d60e01b8252816111ee6000988997889460048501614726565b03925af180156107ed576107e1575080f35b346103e05760003660031901126103e057602060405160008152f35b346103e0576020806003193601126103e0576004906001600160401b03908235908282116103e0576112656112576112ae9336908701610cbd565b828082518301019101613c39565b8051929a6001600160a01b039687169a9698509196509293509190611591575b507f000000000000000000000000000000000000000000000000000000000000000091166150c5565b85528560409182870193856112ce6112c96112c988516107f6565b6107f6565b855163de40657760e01b815294859182905afa80156107ed578993600091611564575b501693856113056112c96112c984516107f6565b85516377607a1760e11b81529a8b9182905afa9889156107ed57600099611541575b5087518451638eb22cdd60e01b81528481018b815260208101929092526000604083015291908790839081906060015b0381895afa9182156107ed57600092611512575b506113ba8761137e6112c9600e546107f6565b61138884516107f6565b8851633a304d8b60e21b815260008982019081526001600160a01b039092166020830152938492918391829160400190565b03915afa80156107ed576113fb926113e16112c9926112c9946000916114e5575b5061317a565b6113f4856113ef83516107f6565b612bb9565b50516107f6565b803b156103e057845163cce19f8160e01b81526001600160a01b0389168582018181526020810191909152604081019390935291600091839182908490829060600103925af180156107ed576114d2575b50805161145557005b6114676112c96112c9878a01516107f6565b9481015192608061147d606084015161ffff1690565b985192015197863b156103e0576000986114af938980938895519d8e9c8d9b8c9a63de57614760e01b8c528b01613d14565b03925af180156107ed576114bf57005b806114cc61001992610886565b8061059c565b806114cc6114df92610886565b3861144c565b61150591508c8d3d1061150b575b6114fd818361090a565b810190613159565b386113db565b503d6114f3565b611533919250873d891161153a575b61152b818361090a565b810190613d05565b903861136b565b503d611521565b61135791995061155d90873d891161153a5761152b818361090a565b9890611327565b6115849150873d891161158a575b61157c818361090a565b810190613cf0565b386112f1565b503d611572565b61159a90613e60565b38611285565b9060606003198301126103e0576004356115b9816103d4565b91602435906001600160401b0382116103e0576115d891600401610cbd565b9060443561067481610412565b6020906115ff92826040519483868095519384920161061b565b82019081520301902090565b9060018060401b0316600052602052604060002090565b346103e057602061166d61ffff61165f8361163c366115a0565b94909116600052600582526040600020826040519483868095519384920161061b565b82019081520301902061160b565b54604051908152f35b346103e05761168436610423565b91929493903033036116a85761051c6116a292610019973691610c86565b92614bd0565b60405162461bcd60e51b815260206004820152602660248201527f4e6f6e626c6f636b696e674c7a4170703a2063616c6c6572206d7573742062656044820152650204c7a4170760d41b6064820152608490fd5b908160609103126103e05790565b60a03660031901126103e05760043561172281610802565b60243561172e816103d4565b604435916084356001600160401b0381116103e057602061ffff6117656000805160206156f48339815191529336906004016116fc565b936117d8853561177481610802565b61179261051586890135986117888a610802565b6040810190614980565b61179c818a614fdb565b6117b16117aa6064356150d8565b50856152cd565b976117bd891515614d85565b6117cf6117c98a615040565b8c61510f565b9234938b6143f4565b6040519485526001600160a01b0316941692a4005b346103e05760203660031901126103e05760043561180a81610802565b60018060a01b031660005260086020526020604060002054604051908152f35b346103e05760008060031936011261075457611844612b30565b80546001600160a01b03198116825581906001600160a01b03166000805160206157548339815191528280a380f35b90600182811c921680156118a3575b602083101461188d57565b634e487b7160e01b600052602260045260246000fd5b91607f1691611882565b90600092918054916118be83611873565b91828252600193848116908160001461192057506001146118e0575b50505050565b90919394506000526020928360002092846000945b83861061190c5750505050010190388080806118da565b8054858701830152940193859082016118f5565b9294505050602093945060ff191683830152151560051b010190388080806118da565b9061082061195792604051938480926118ad565b038361090a565b346103e05760203660031901126103e05761ffff60043561197e816103d4565b1660005260016020526106cf61110e6119a16040600020604051928380926118ad565b60405191829160208352602083019061063e565b60e03660031901126103e0576004356119cd81610802565b6024356119d9816103d4565b604435916001600160401b03906084358281116103e0576119fe9036906004016103e5565b91909260a435611a0d81610412565b60c4358281116103e057611a259036906004016116fc565b9086611a5d833596611a3688610802565b611a55611a4b60208701359661178888610802565b9a90923691610c86565b983691610c86565b9360ff60065416600014611aca5793602095936117cf84611a986000805160206156f48339815191529a958561ffff9a6117d8991691614643565b611aad611aa66064356150d8565b50886152cd565b9a611ab98c1515614d85565b8d611ac38d615040565b903361518a565b50508293919251611af8576000805160206156f48339815191529460209461ffff946117cf6117d894611a98565b60405162461bcd60e51b815260206004820152602660248201527f4f4654436f72653a205f61646170746572506172616d73206d7573742062652060448201526532b6b83a3c9760d11b6064820152608490fd5b346103e05760003660031901126103e057600f546040516001600160a01b039091168152602090f35b346103e05760003660031901126103e057602060405160ff7f0000000000000000000000000000000000000000000000000000000000000000168152f35b346103e05760403660031901126103e057602061166d600435611bd5816103d4565b61ffff60243591611be5836103d4565b166000526002835260406000209061ffff16600052602052604060002090565b346103e05760003660031901126103e0576000546040516001600160a01b039091168152602090f35b346103e05760003660031901126103e0576004546040516001600160a01b039091168152602090f35b346103e0576000806003193601126107545760405181600c54611c7981611873565b8084529060019081811690811561072c5750600114611ca2576106cf846106c38188038261090a565b600c8352602094507fdf6966c971051c3d54ec59162606531493a51404a002842f56009d7e5cf4a8c75b828410611ce857505050816106cf936106c392820101936106b3565b8054858501870152928501928101611ccc565b346103e057602060ff611d3a61ffff61165f84611d17366115a0565b94909116600052600782526040600020826040519483868095519384920161061b565b54166040519015158152f35b346103e05760203660031901126103e05761ffff600435611d66816103d4565b16600052600160205261110e611d866040600020604051928380926118ad565b805115611da4576106c381611d9e6106cf935161394e565b906154e7565b60405162461bcd60e51b815260206004820152601d60248201527f4c7a4170703a206e6f20747275737465642070617468207265636f72640000006044820152606490fd5b346103e05760403660031901126103e057600435611e0681610802565b60243590336000526009602052611e21816040600020612ba2565b5491808310611e4257611e3692039033612d8a565b60405160018152602090f35b60405162461bcd60e51b815260206004820152602560248201527f45524332303a2064656372656173656420616c6c6f77616e63652062656c6f77604482015264207a65726f60d81b6064820152608490fd5b346103e05760e03660031901126103e057600435611eb2816103d4565b6001600160401b03906064358281116103e057611ed39036906004016103e5565b608492919235611ee281610412565b60a43591611eef83610c56565b60c4359586116103e057611f0a611f1a9636906004016103e5565b95909460443590602435906149b2565b60408051928352602083019190915290f35b346103e057611f3a3661109e565b90611f43612b30565b60405192602092808385870137611f6f6034868381013060601b8882015203601481018852018661090a565b61ffff8216600090815260018086526040822087519296909291906001600160401b03831161089957611fac83611fa68654611873565b86614741565b80601f841160011461200a575091808092611ff99695948a9b6000805160206157148339815191529b94611fff575b50501b916000199060031b1c19161790555b60405193849384614726565b0390a180f35b015192503880611fdb565b91939498601f19841661202287600052602060002090565b938a905b82821061207757505091600080516020615714833981519152999a95939185611ff99896941061205e575b505050811b019055611fed565b015160001960f88460031b161c19169055388080612051565b808886978294978701518155019601940190612026565b346103e05760403660031901126103e0576108576004356120ae81610802565b6024359033612cbb565b346103e05760003660031901126103e0576040517f00000000000000000000000000000000000000000000000000000000000000006001600160a01b03168152602090f35b346103e05760203660031901126103e0577f5db758e995a17ec1ad84bdef7e8c3293a0bd6179bcce400dff5d4c3d87db726b602060043561213d81610802565b612145612b30565b600480546001600160a01b0319166001600160a01b03929092169182179055604051908152a1005b60a03660031901126103e05760043561218581610802565b602435612191816103d4565b6001600160401b03916044358381116103e0576121b2903690600401610cbd565b6064356121be81610412565b608435928584116103e057600061ffff9361226d936121f0600080516020615734833981519152973690600401610cbd565b9161221f61221a6122138760018060a01b03166000526012602052604060002090565b5460ff1690565b6134bd565b8361223360208551860101602086016136e4565b9a95509a9360018060a09e94939e1b03169f7f000000000000000000000000000000000000000000000000000000000000000091166150c5565b8a5261227830612b88565b54988d8b886122a361229f6122138361229a8d61229489611132565b906115e5565b61160b565b1590565b61235a575b506122e891506122da6122ba30612b88565b549b604051948593602085019763296c522160e01b8952602486016137f0565b03601f19810183528261090a565b51915af4936122f561391e565b941561231f575b505050505050519261231a6040519283921694829190602083019252565b0390a3005b61233e9561232c9161396c565b865180911015612349575b5088614829565b3880808080806122fc565b612354908b30613979565b38612337565b61229a61237761238a9461237261237d9551306153e3565b611132565b8a6115e5565b805460ff19166001179055565b8d8b886122a8565b346103e05760003660031901126103e05760206040516127108152f35b346103e05760803660031901126103e0576004356123cc816103d4565b6024356123d8816103d4565b6064356001600160401b0381116103e0576123f79036906004016103e5565b9092612401612b30565b7f00000000000000000000000000000000000000000000000000000000000000006001600160a01b031690813b156103e057600080946114af604051978896879586946332fb62e760e21b865261ffff80921660048701521660248501526044356044850152608060648501526084840191612f33565b61248136610423565b9161ffff869492961660005260056020526124b581604060002060206040518092878b83378782019081520301902061160b565b5491821561255f5761254e84836125477fc264d91f3adc5588250e1551f547752ca0cfa8f6b530d243b9f9f4cab10ea8e59a60006125338461229a8e8a8f61255a9f908f6125199061250c61252d9436908d610c86565b60208151910120146148f3565b61ffff166000526005602052604060002090565b916148da565b5561253f36878d610c86565b933691610c86565b9188614bd0565b60405195869586614949565b0390a1005b60405162461bcd60e51b815260206004820152602360248201527f4e6f6e626c6f636b696e674c7a4170703a206e6f2073746f726564206d65737360448201526261676560e81b6064820152608490fd5b346103e05760003660031901126103e057600e546040516001600160a01b039091168152602090f35b346103e05760403660031901126103e057602061166d6004356125fb81610802565b6024359061260882610802565b6001600160a01b031660009081526009845260409020612ba2565b346103e05760003660031901126103e057600d546040516001600160a01b039091168152602090f35b346103e05760603660031901126103e057600435612669816103d4565b602435612675816103d4565b60443591612681612b30565b82156126fc5761255a7f9d5c7c0b934da8fefa9c7760c98383778a12dfbfc0c3b3106518f43fb9508ac09361ffff83166000526002602052806126d68560406000209061ffff16600052602052604060002090565b556040519384938460409194939294606082019561ffff80921683521660208201520152565b60405162461bcd60e51b81526020600482015260156024820152744c7a4170703a20696e76616c6964206d696e47617360581b6044820152606490fd5b346103e05760003660031901126103e057602060405160018152f35b346103e05760203660031901126103e0577f1584ad594a70cbe1e6515592e1272a987d922b097ead875069cebe8b40c004a4602060043561279581610c56565b61279d612b30565b151560ff196006541660ff821617600655604051908152a1005b346103e0576101003660031901126103e0576004356127d5816103d4565b6001600160401b03906024358281116103e0576127f69036906004016103e5565b91906044359061280582610412565b60843561281181610802565b60c4359586116103e05761282c6100199636906004016103e5565b94909360e4359660a4359460643593614aa9565b346103e05761284e3661109e565b9190612858612b30565b61ffff82166000908152600160208181526040832092949291906001600160401b038711610899576128948761288e8554611873565b85614741565b8590601f88116001146128e95750918680879893611ff99560008051602061579483398151915299936128de575b501b906000198460031b1c191617905560405193849384614726565b8801359250386128c2565b90601f1988166128fe85600052602060002090565b9288905b828210612952575050918893916000805160206157948339815191529899611ff9969410612938575b505082811b019055611fed565b870135600019600386901b60f8161c19169055388061292b565b808685968294968c01358155019501930190612902565b346103e05760003660031901126103e057602060ff600654166040519015158152f35b346103e05760203660031901126103e0576004356129a981610802565b6129b1612b30565b6001600160a01b0390811680156129ed57600080546001600160a01b03198116831782559092166000805160206157548339815191528380a380f35b60405162461bcd60e51b815260206004820152602660248201527f4f776e61626c653a206e6577206f776e657220697320746865207a65726f206160448201526564647265737360d01b6064820152608490fd5b346103e05760803660031901126103e057600435612a5e816103d4565b60243590612a6b826103d4565b612a76604435610802565b604051633d7b2f6f60e21b815261ffff91821660048201529116602482015230604482015260648035908201526000816084817f00000000000000000000000000000000000000000000000000000000000000006001600160a01b03165afa80156107ed576106cf91600091612af4575b5060405191829182610663565b612b0f913d8091833e612b07818361090a565b810190614701565b38612ae7565b346103e05760003660031901126103e0576020604051308152f35b6000546001600160a01b03163303612b4457565b606460405162461bcd60e51b815260206004820152602060248201527f4f776e61626c653a2063616c6c6572206973206e6f7420746865206f776e65726044820152fd5b6001600160a01b0316600090815260086020526040902090565b9060018060a01b0316600052602052604060002090565b90612bc49133612d8a565b600190565b634e487b7160e01b600052601160045260246000fd5b90601f820180921161109957565b605101908160511161109957565b9190820180921161109957565b15612c0f57565b60405162461bcd60e51b815260206004820152602360248201527f45524332303a207472616e7366657220746f20746865207a65726f206164647260448201526265737360e81b6064820152608490fd5b15612c6757565b60405162461bcd60e51b815260206004820152602660248201527f45524332303a207472616e7366657220616d6f756e7420657863656564732062604482015265616c616e636560d01b6064820152608490fd5b916001600160a01b038084169290918315612d3757612d1c8260008051602061577483398151915294612d32941696612cf5881515612c08565b612d1684612d0283612b88565b54612d0f82821015612c60565b0391612b88565b55612b88565b8054820190556040519081529081906020820190565b0390a3565b60405162461bcd60e51b815260206004820152602560248201527f45524332303a207472616e736665722066726f6d20746865207a65726f206164604482015264647265737360d81b6064820152608490fd5b6001600160a01b038082169291908315612e52578216938415612e025780612df17f8c5be1e5ebec7d5bd14f71427d1e84f3dd0314c0f7b2291e5b200ac8c7c3b92594612dec612d329560018060a01b03166000526009602052604060002090565b612ba2565b556040519081529081906020820190565b60405162461bcd60e51b815260206004820152602260248201527f45524332303a20617070726f766520746f20746865207a65726f206164647265604482015261737360f01b6064820152608490fd5b60405162461bcd60e51b8152602060048201526024808201527f45524332303a20617070726f76652066726f6d20746865207a65726f206164646044820152637265737360e01b6064820152608490fd5b9060018060a01b0382166000526009602052612ec3816040600020612ba2565b549260018401612ed35750505050565b808410612eee57612ee5930391612d8a565b388080806118da565b60405162461bcd60e51b815260206004820152601d60248201527f45524332303a20696e73756666696369656e7420616c6c6f77616e63650000006044820152606490fd5b908060209392818452848401376000828201840152601f01601f1916010190565b8035612f5f81610c56565b15158252602081013560208301526040810135612f7b81610c56565b1515604083015261ffff6060820135612f93816103d4565b1660608301526080810135601e19823603018112156103e057016020810190356001600160401b0381116103e05780360382136103e05760a0838160806106749601520191612f33565b9190808252602080920192916000905b828210612ffb575050505090565b909192938061301560019261300f88610c60565b15159052565b61302b613023848801610c60565b151582850152565b61304a604061303b818901610822565b6001600160a01b031690830152565b613062606061305a818901610c60565b151590830152565b613072608061303b818901610822565b61308260a061303b818901610822565b60c0808701359082015260e080870135908201526130b06101006130a7818901610d78565b60ff1690830152565b61012086810135908201526101408087013590820152610160908101950193920190612fed565b969461313f946106749997946040936103048b5260018060a01b03958680921660208d015216848b015260608a0152600180841b03166080890152805160a08901528260208201511660c089015201511660e086015261014080610100870152850190612f54565b92610120818503910152612fdd565b519061082082610c56565b908160209103126103e0575161067481610c56565b6040513d6000823e3d90fd5b1561318157565b60405162461bcd60e51b815260206004820152600c60248201526b1513d19517d253959053125160a21b6044820152606490fd5b959894829892979187600160a01b60019003938483169c8d988580516131da906150d8565b508082526131e790615040565b6040519b8c976131fa9760208a016130d7565b03601f198101865261320c908661090a565b613217368785610c86565b613221908961457c565b600e5461322d906107f6565b613236906107f6565b9060400151613244906107f6565b604051633a304d8b60e21b815261ffff9a909a1660048b01526001600160a01b031660248a0152886044815a93602094fa9586156107ed576132946132a8976132a19a6000916132d5575061317a565b1696879134953691610c86565b92866143f4565b6000805160206156f483398151915261ffff604051921691806132d081906000602083019252565b0390a4565b611505915060203d811161150b576114fd818361090a565b908160209103126103e05751610674816103d4565b959360609061313f946106749997946103078a5260018060a01b0380951660208b015260408a015260018060401b03168289015280356080890152602081013560a089015282604082013561335681610802565b1660c0890152013561336781610802565b1660e086015261014080610100870152850190612f54565b3561067481610802565b6001600160a01b0391821699909896979195929490939092916133ac83356150d8565b5098604051976303408e4760e41b8952602089600481847f0000000000000000000000000000000000000000000000000000000000000000165afa9081156107ed5760209c6134558f6134478f9b6000805160206156f48339815191529f61ffff9f9861343461347d9f6132a19b6134739b61348f575b5061342e818a6152cd565b50615040565b9c6040519d6020968f978a908901613302565b03601f19810189528861090a565b613469613463368a89610c86565b8b614605565b169b8c930161337f565b9234953691610c86565b604051938452169180602081016132d0565b6134af9060203d81116134b6575b6134a7818361090a565b8101906132ed565b5038613423565b503d61349d565b156134c457565b60405162461bcd60e51b815260206004820152600b60248201526a544f46545f4d4f44554c4560a81b6044820152606490fd5b519061082082610802565b9092919261350f81610c6b565b9161351d604051938461090a565b8294828452828201116103e057602061082093019061061b565b9080601f830112156103e057815161067492602001613502565b919060a0838203126103e0576040519061356a826108b9565b8193805161357781610c56565b835260208101516020840152604081015161359181610c56565b604084015260608101516135a4816103d4565b60608401526080810151916001600160401b0383116103e057608092610d519201613537565b519061082082610d6d565b81601f820112156103e0578051906135ec82610d56565b926040906135fc8251958661090a565b8385526020918286019183610160809702860101948186116103e0578401925b85841061362d575050505050505090565b86848303126103e05784879161364161092d565b61364a8761314e565b815261365783880161314e565b838201526136668688016134f7565b86820152606061367781890161314e565b9082015260806136888189016134f7565b9082015260a06136998189016134f7565b9082015260c0808801519082015260e080880151908201526101006136bf8189016135ca565b908201526101208088015190820152610140808801519082015281520193019261361c565b9182820361014081126103e05783516136fc816103d4565b93602081015161370b81610802565b936040820151936080606084015161372281610412565b94607f1901126103e057604051613738816108d4565b6080840151815260a0840151602082015260c084015161375781610802565b604082015260e084015161376a81610802565b606082015261010084015190936001600160401b039390918481116103e05781613795918401613551565b936101208301519081116103e05761067492016135d5565b9060a06080610674938051151584526020810151602085015260408101511515604085015261ffff6060820151166060850152015191816080820152019061063e565b91929082528251906020918284015281840151906040918285015260018060a01b03808387015116606096879182880152015116936080948582015260e09161384360a0918483850152848401906137ad565b9560c0928381890391015285808a5198898152019901976000955b888710613872575050505050505050505090565b90919293949596979899886101606001928d5161389182825115159052565b80840151151582850152808601516001600160a01b03168287015280870151151582880152808801516001600160a01b031682890152808901516001600160a01b0316828a0152808a0151828b01528a8101518b8301526101008082015160ff169083015261012081810151908301526101409081015190820152019b019998970195949392919061385e565b3d15613949573d9061392f82610c6b565b9161393d604051938461090a565b82523d6000602084013e565b606090565b60131981019190821161109957565b60501981019190821161109957565b9190820391821161109957565b9190613a0391600080604051936020968786019463a9059cbb60e01b865260018060a01b0380931660248801526044870152604486526139b8866108d4565b1692604051946139c7866108ef565b8786527f5361666545524332303a206c6f772d6c6576656c2063616c6c206661696c656488870152519082855af16139fd61391e565b91613a7f565b80519081613a1057505050565b8280613a20938301019101613159565b15613a285750565b6084906040519062461bcd60e51b82526004820152602a60248201527f5361666545524332303a204552433230206f7065726174696f6e20646964206e6044820152691bdd081cdd58d8d9595960b21b6064820152fd5b91929015613ae15750815115613a93575090565b3b15613a9c5790565b60405162461bcd60e51b815260206004820152601d60248201527f416464726573733a2063616c6c20746f206e6f6e2d636f6e74726163740000006044820152606490fd5b825190915015613af45750805190602001fd5b60405162461bcd60e51b8152908190613b109060048301610663565b0390fd5b919261067495949160e09460018060a01b0380921685521660208401526040830152606082015260016080820152600160a08201528160c082015201906137ad565b928051613c2a575b5060408101613b78613b7082516107f6565b835190612bb9565b50825160009015613c1a57503415613c0b57613b9d6112c96112c9345b935b516107f6565b90613bab60608401516107f6565b906020845194015195833b156103e057604051630832bfe360e41b815296600096889687958694613bed9492916001600160a01b039091169060048701613b14565b03925af180156107ed57613bfe5750565b806114cc61082092610886565b613b9d6112c96112c947613b95565b6112c96112c9613b9d9293613b97565b613c3390613e60565b38613b5e565b908181039261014084126103e0578251613c52816103d4565b936020840151613c6181610802565b936040810151613c7081610802565b9360608201519360606080840151613c8781610412565b94609f1901126103e057604051613c9d8161089e565b60a0840151815260c0840151613cb281610802565b602082015260e0840151613cc581610802565b604082015261010084015190936001600160401b039390918481116103e05781613795918401613551565b908160209103126103e0575161067481610802565b908160209103126103e0575190565b95919490613d6394610100989461ffff929c9b9a9c60018060a01b0398898092168b521660208a01526040890152166060870152608086015260a08501526101208060c086015284019061063e565b951660e08201520152565b8051821015613d825760209160051b010190565b634e487b7160e01b600052603260045260246000fd5b9360ff929897969360c0969260e087019a60018060a01b0380921688521660208701526040860152606085015216608083015260a08201520152565b60009060033d11613de157565b905060046000803e60005160e01c90565b600060443d1061067457604051600319913d83016004833e81516001600160401b03918282113d602484011117613e4f57818401948551938411613e57573d85010160208487010111613e4f57506106749291016020019061090a565b949350505050565b50949350505050565b9060005b825181101561428e57613e846060613e7c8386613d6e565b510151151590565b15614038576040613eae6112c96112c983613e9f8689613d6e565b5101516001600160a01b031690565b613ebd6080613e9f8588613d6e565b90613ecd60a0613e9f8689613d6e565b60c0613ed98689613d6e565b5101519160e0613ee9878a613d6e565b51015190613f06610100613efd898c613d6e565b51015160ff1690565b93610120613f14898c613d6e565b51015193610140613f258a8d613d6e565b51015190833b156103e057613f576000969287938b51998a98899788966301da8bf160e41b885260049e8f8901613d98565b03925af19081614025575b5061401b576001613f71613dd4565b6308c379a014613fd2575b613f8d575b50506001905b01613e64565b613f9561391e565b613fa761229f6020613e7c878a613d6e565b613fb15750613f81565b613fbd613b1091614293565b925162461bcd60e51b81529283928301610663565b613fda613df2565b80613fe6575b50613f7c565b60009150613ffc61229f6020613e7c888b613d6e565b15613fe057835162461bcd60e51b8152908190613b1090828601610663565b5050600190613f87565b806114cc61403292610886565b38613f62565b61404c6140458285613d6e565b5151151590565b156141d85760406140676112c96112c983613e9f8689613d6e565b6140766080613e9f8588613d6e565b9061408660a0613e9f8689613d6e565b60e06140928689613d6e565b510151916140a6610100613efd888b613d6e565b906101206140b4888b613d6e565b510151936101406140c5898c613d6e565b510151823b156103e057875163aba0784760e01b81526001600160a01b03978816600480830191909152979095166024860152604485019190915260ff9092166064840152608483019390935260a482015290600090829081838160c481015b03925af190816141c5575b5061401b57600161413f613dd4565b6308c379a01461417c575b614158575050600190613f87565b61416061391e565b61417261229f6020613e7c878a613d6e565b613fb1575061401b565b614184613df2565b80614190575b5061414a565b600091506141a661229f6020613e7c888b613d6e565b1561418a57835162461bcd60e51b8152908190613b1090828601610663565b806114cc6141d292610886565b38614130565b60406141ee6112c96112c983613e9f8689613d6e565b6141fd6080613e9f8588613d6e565b9061420d60a0613e9f8689613d6e565b60c06142198689613d6e565b5101519160e0614229878a613d6e565b5101519061423d610100613efd898c613d6e565b9361012061424b898c613d6e565b5101519361014061425c8a8d613d6e565b51015190833b156103e0576141256000969287938b51998a988997889663d505accf60e01b885260049e8f8901613d98565b509050565b6103e88151116143145760448151106142ee576004810151810190602081602484019303126103e0576024810151906001600160401b0382116103e0570190806043830112156103e057602482015161067492604401613502565b506040516142fb816108ef565b6009815268544f46545f6461746160b81b602082015290565b50604051614321816108ef565b601081526f2a27a32a2fa627a723afa922a0a9a7a760811b602082015290565b1561434857565b60405162461bcd60e51b815260206004820152602660248201527f4c7a4170703a20696e76616c696420736f757263652073656e64696e6720636f6044820152651b9d1c9858dd60d21b6064820152608490fd5b926143c161067497959361ffff6143cf9416865260c0602087015260c086019061063e565b90848203604086015261063e565b6001600160a01b0391821660608401529316608082015280830360a09091015261063e565b9461441d9193929561ffff811660005260016020526144246040600020604051948580926118ad565b038461090a565b82511561448b57614436855182614692565b7f00000000000000000000000000000000000000000000000000000000000000006001600160a01b031693843b156103e057600096613bed91604051998a988997889662c5803160e81b88526004880161439c565b60405162461bcd60e51b815260206004820152603060248201527f4c7a4170703a2064657374696e6174696f6e20636861696e206973206e6f742060448201526f61207472757374656420736f7572636560801b6064820152608490fd5b156144f057565b60405162461bcd60e51b815260206004820152601a602482015279131e905c1c0e881b5a5b91d85cd31a5b5a5d081b9bdd081cd95d60321b6044820152606490fd5b1561453957565b60405162461bcd60e51b815260206004820152601b60248201527a4c7a4170703a20676173206c696d697420697320746f6f206c6f7760281b6044820152606490fd5b60228251106145c15761ffff6022610820930151911660005260026020526040600020610304600052602052604060002054906145ba8215156144e9565b1015614532565b60405162461bcd60e51b815260206004820152601c60248201527b4c7a4170703a20696e76616c69642061646170746572506172616d7360201b6044820152606490fd5b60228251106145c15761ffff6022610820930151911660005260026020526040600020610307600052602052604060002054906145ba8215156144e9565b919060228151106145c157602261ffff9101519216600052600260205261467860406000206001600052602052604060002090565b5490810180911161109957610820916145ba8215156144e9565b61ffff1660005260036020526040600020549081156146f7575b116146b357565b606460405162461bcd60e51b815260206004820152602060248201527f4c7a4170703a207061796c6f61642073697a6520697320746f6f206c617267656044820152fd5b61271091506146ac565b906020828203126103e05781516001600160401b0381116103e0576106749201613537565b60409061ffff61067495931681528160208201520191612f33565b90601f811161474f57505050565b600091825260208220906020601f850160051c8301941061478b575b601f0160051c01915b82811061478057505050565b818155600101614774565b909250829061476b565b9290916148075a604051633356ae4560e11b602082015261ffff871660248201526080604482015290614801826147f36147d260a483018a61063e565b6001600160401b03881660648401528281036023190160848401528861063e565b03601f19810184528361090a565b30615696565b939015614816575b5050505050565b61481f94614829565b388080808061480f565b91936148c77fe183f33de2837795525b4792ca4cd60535bd77c53b7e7030060bfcf5734d6b0c956148d5939561ffff8151602083012096169586600052600560205261488d8361165f60208b6040600020826040519483868095519384920161061b565b556148aa604051978897885260a0602089015260a088019061063e565b6001600160401b039092166040870152858203606087015261063e565b90838203608085015261063e565b0390a1565b6020919283604051948593843782019081520301902090565b156148fa57565b60405162461bcd60e51b815260206004820152602160248201527f4e6f6e626c6f636b696e674c7a4170703a20696e76616c6964207061796c6f616044820152601960fa1b6064820152608490fd5b9160609361ffff61496c9398979698168452608060208501526080840191612f33565b6001600160401b0390951660408201520152565b903590601e19813603018212156103e057018035906001600160401b0382116103e0576020019181360383136103e057565b949195989790611ac36149db6040996149d36149e1976149fe993691610c86565b943691610c86565b97615040565b928451968794859463040a7bb160e41b8652309060048701614b8c565b03817f00000000000000000000000000000000000000000000000000000000000000006001600160a01b03165afa9182156107ed576000908193614a4157509190565b905061048491925060403d811161104757611038818361090a565b9396949161067498969361ffff614a819316865260c0602087015260c0860191612f33565b6001600160401b0390961660408401526060830152608082015280840360a090910152612f33565b91969792989594939094303303614b3157614ac5908530615433565b60405181815290946001600160a01b03169390849061ffff85169060008051602061573483398151915290602090a3833b156103e0576000988995614b21936040519c8d9b8c9a8b98633fe79aed60e11b8a5260048a01614a5c565b0393f180156107ed57613bfe5750565b60405162461bcd60e51b815260206004820152601f60248201527f4f4654436f72653a2063616c6c6572206d757374206265204f4654436f7265006044820152606490fd5b91908260409103126103e0576020825192015190565b9192610674959361ffff614bbb9316845260018060a01b0316602084015260a0604084015260a083019061063e565b9215156060820152608081840391015261063e565b92919060ff614bde8461563b565b1680614d315750505060ff614bf28261563b565b161580614d26575b614c0390615143565b614c15614c0f826155eb565b91615686565b90916001600160a01b039182841615614d1c575b614c5d907f0000000000000000000000000000000000000000000000000000000000000000906001600160401b03166150c5565b918316928315614cd75760008051602061573483398151915291614c9761ffff92614c92614c8d87600a54612bfb565b600a55565b612b88565b84815401905584600060008051602061577483398151915260405180614cc289829190602083019252565b0390a360405193845216918060208101612d32565b60405162461bcd60e51b815260206004820152601f60248201527f45524332303a206d696e7420746f20746865207a65726f2061646472657373006044820152606490fd5b61dead9350614c29565b508051602914614bfa565b600103614d415761082093614e5a565b60405162461bcd60e51b815260206004820152601c60248201527b4f4654436f72653a20756e6b6e6f776e207061636b6574207479706560201b6044820152606490fd5b15614d8c57565b60405162461bcd60e51b815260206004820152601960248201527813d19510dbdc994e88185b5bdd5b9d081d1bdbc81cdb585b1b603a1b6044820152606490fd5b9897969293614df760e0979361ffff614e2c9894168c5260208c61010091829101528c019061063e565b6001600160401b0390951660408b015260608a01526001600160a01b0316608089015260a088015286820360c088015261063e565b930152565b614e496040929594939560608352606083019061063e565b94600180841b031660208201520152565b9091614e65846151f4565b9091614e806122138761229a614e7a8b611132565b8c6115e5565b916001600160401b0391614eb7907f00000000000000000000000000000000000000000000000000000000000000009084166150c5565b9288888b8315614fb3575b505050853b15614f685794614f099694614801948a946147f3948d99600014614f615750505a925b5a978b6040519a8b9863757fea4d60e11b60208b015260248a01614dcd565b9015614f56575090614f5161ffff928560207fb8890edbfc1c74692f527444645f95489c3703cc2df42e4a366f5d06fa6cd88496975191012090604051948594169684614e31565b0390a2565b926108209492614829565b1692614eea565b50506040516001600160a01b039094168452507f9aedf5fdba8716db3b6705ca00150643309995d4f818a249ed6dde6677e7792d9750919550859450506020840192506148d5915050565b9061229a61237d9261229489614fcd614fd3979b306153e3565b99611132565b88888b614ec2565b60065460ff16156150225760228251106145c15761ffff602261082093015191166000526002602052604060002060008052602052604060002054906145ba8215156144e9565b5051611af857565b634e487b7160e01b600052601260045260246000fd5b7f00000000000000000000000000000000000000000000000000000000000000009081156150c0576001600160401b0391900481811161507e571690565b60405162461bcd60e51b815260206004820152601a6024820152794f4654436f72653a20616d6f756e745344206f766572666c6f7760301b6044820152606490fd5b61502a565b8181029291811591840414171561109957565b7f000000000000000000000000000000000000000000000000000000000000000080156150c0578106908181039081116110995791565b60405160006020820152602181019190915260c09190911b6001600160c01b0319166041820152602981526106748161089e565b1561514a57565b60405162461bcd60e51b815260206004820152601860248201527713d19510dbdc994e881a5b9d985b1a59081c185e5b1bd85960421b6044820152606490fd5b939260719261067494604051968794600160f81b6020870152602186015260018060c01b0319809360c01b16604186015260018060a01b0316604985015260c01b1660698301526151e4815180926020868601910161061b565b810103605181018452018261090a565b9061520c600160ff6152058561563b565b1614615143565b615215826155eb565b9061521f83615686565b9060498451106152905760498401519360518151106152545761525160518201519161524b815161395d565b90615567565b91565b60405162461bcd60e51b8152602060048201526014602482015273746f55696e7436345f6f75744f66426f756e647360601b6044820152606490fd5b60405162461bcd60e51b8152602060048201526015602482015274746f427974657333325f6f75744f66426f756e647360581b6044820152606490fd5b6001600160a01b03811633810361537c575b801561532d5781615302846152f5600095612b88565b54612d0f8282101561538c565b5561531083600a5403600a55565b60405183815260008051602061577483398151915290602090a390565b60405162461bcd60e51b815260206004820152602160248201527f45524332303a206275726e2066726f6d20746865207a65726f206164647265736044820152607360f81b6064820152608490fd5b615387833384612ea3565b6152df565b1561539357565b60405162461bcd60e51b815260206004820152602260248201527f45524332303a206275726e20616d6f756e7420657863656564732062616c616e604482015261636560f01b6064820152608490fd5b6001600160a01b03811691908215614cd757600a54908282018092116110995760009261542460209260008051602061577483398151915294600a55612b88565b818154019055604051908152a3565b6106749183916001600160a01b03811630811415908161545f575b5015612cbb57610c51833383612ea3565b90503314153861544e565b1561547157565b60405162461bcd60e51b815260206004820152600e60248201526d736c6963655f6f766572666c6f7760901b6044820152606490fd5b156154ae57565b60405162461bcd60e51b8152602060048201526011602482015270736c6963655f6f75744f66426f756e647360781b6044820152606490fd5b6154fb826154f481612bdf565b101561546a565b61550882825110156154a7565b81615520575050604051600081526020810160405290565b60405191601f811691821560051b808486010193838501920101905b8084106155545750508252601f01601f191660405290565b909283518152602080910193019061553c565b615574826154f481612bdf565b615589815161558284612bed565b11156154a7565b816155a1575050604051600081526020810160405290565b60405191601f8116916051831560051b80858701019484860193010101905b8084106155d85750508252601f01601f191660405290565b90928351815260208091019301906155c0565b60218151106155fe57602d015160601c90565b60405162461bcd60e51b8152602060048201526015602482015274746f416464726573735f6f75744f66426f756e647360581b6044820152606490fd5b600181511061564b576001015190565b60405162461bcd60e51b8152602060048201526013602482015272746f55696e74385f6f75744f66426f756e647360681b6044820152606490fd5b6029815110615254576029015190565b6040519392909160009160c08601916001600160401b038311878410176108995783926040526096875282602088019560a036883760208451940192f1903d90609682116156ea575b6000908286523e9190565b609691506156df56fed81fc9b8523134ed613870ed029d6170cbb73aa6a6bc311b9a642689fb9df59a8c0400cfe2d1199b1a725c78960bcc2a344d869b80590d0f2bd005db15a572cebf551ec93859b170f9b2141bd9298bf3f64322c6f7beb2543a0cb669834118bf8be0079c531659141344cd1fd0a4f28419497f9722a3daafe3b4186f6b6457e0ddf252ad1be2c89b69c2b068fc378daa952ba7f163c4a11628f55a4df523b3effa41487ad5d6728f0b19276fa1eddc16558578f5109fc39d2dc33c3230470daba26469706673582212209f8b187d6f9ed876e84a53a4da70e995e28d5a4e9d08cace666ca10cbedf301a64736f6c63430008120033",
  "linkReferences": {},
  "deployedLinkReferences": {}
}