{
  "_format": "hh-sol-artifact-1",
  "contractName": "BaseTOFTOptionsModule",
  "sourceName": "contracts/tOFT/modules/BaseTOFTOptionsModule.sol",
  "abi": [
    {
      "inputs": [
        {
          "internalType": "address",
          "name": "_lzEndpoint",
          "type": "address"
        },
        {
          "internalType": "address",
          "name": "_erc20",
          "type": "address"
        },
        {
          "internalType": "contract IYieldBoxBase",
          "name": "_yieldBox",
          "type": "address"
        },
        {
          "internalType": "string",
          "name": "_name",
          "type": "string"
        },
        {
          "internalType": "string",
          "name": "_symbol",
          "type": "string"
        },
        {
          "internalType": "uint8",
          "name": "_decimal",
          "type": "uint8"
        },
        {
          "internalType": "uint256",
          "name": "_hostChainID",
          "type": "uint256"
        }
      ],
      "stateMutability": "nonpayable",
      "type": "constructor"
    },
    {
      "anonymous": false,
      "inputs": [
        {
          "indexed": true,
          "internalType": "address",
          "name": "owner",
          "type": "address"
        },
        {
          "indexed": true,
          "internalType": "address",
          "name": "spender",
          "type": "address"
        },
        {
          "indexed": false,
          "internalType": "uint256",
          "name": "value",
          "type": "uint256"
        }
      ],
      "name": "Approval",
      "type": "event"
    },
    {
      "anonymous": false,
      "inputs": [
        {
          "indexed": true,
          "internalType": "uint16",
          "name": "_srcChainId",
          "type": "uint16"
        },
        {
          "indexed": false,
          "internalType": "bytes",
          "name": "_srcAddress",
          "type": "bytes"
        },
        {
          "indexed": false,
          "internalType": "uint64",
          "name": "_nonce",
          "type": "uint64"
        },
        {
          "indexed": false,
          "internalType": "bytes32",
          "name": "_hash",
          "type": "bytes32"
        }
      ],
      "name": "CallOFTReceivedSuccess",
      "type": "event"
    },
    {
      "anonymous": false,
      "inputs": [
        {
          "indexed": false,
          "internalType": "uint16",
          "name": "_srcChainId",
          "type": "uint16"
        },
        {
          "indexed": false,
          "internalType": "bytes",
          "name": "_srcAddress",
          "type": "bytes"
        },
        {
          "indexed": false,
          "internalType": "uint64",
          "name": "_nonce",
          "type": "uint64"
        },
        {
          "indexed": false,
          "internalType": "bytes",
          "name": "_payload",
          "type": "bytes"
        },
        {
          "indexed": false,
          "internalType": "bytes",
          "name": "_reason",
          "type": "bytes"
        }
      ],
      "name": "MessageFailed",
      "type": "event"
    },
    {
      "anonymous": false,
      "inputs": [
        {
          "indexed": false,
          "internalType": "address",
          "name": "_address",
          "type": "address"
        }
      ],
      "name": "NonContractAddress",
      "type": "event"
    },
    {
      "anonymous": false,
      "inputs": [
        {
          "indexed": true,
          "internalType": "address",
          "name": "previousOwner",
          "type": "address"
        },
        {
          "indexed": true,
          "internalType": "address",
          "name": "newOwner",
          "type": "address"
        }
      ],
      "name": "OwnershipTransferred",
      "type": "event"
    },
    {
      "anonymous": false,
      "inputs": [
        {
          "indexed": true,
          "internalType": "uint16",
          "name": "_srcChainId",
          "type": "uint16"
        },
        {
          "indexed": true,
          "internalType": "address",
          "name": "_to",
          "type": "address"
        },
        {
          "indexed": false,
          "internalType": "uint256",
          "name": "_amount",
          "type": "uint256"
        }
      ],
      "name": "ReceiveFromChain",
      "type": "event"
    },
    {
      "anonymous": false,
      "inputs": [
        {
          "indexed": false,
          "internalType": "uint16",
          "name": "_srcChainId",
          "type": "uint16"
        },
        {
          "indexed": false,
          "internalType": "bytes",
          "name": "_srcAddress",
          "type": "bytes"
        },
        {
          "indexed": false,
          "internalType": "uint64",
          "name": "_nonce",
          "type": "uint64"
        },
        {
          "indexed": false,
          "internalType": "bytes32",
          "name": "_payloadHash",
          "type": "bytes32"
        }
      ],
      "name": "RetryMessageSuccess",
      "type": "event"
    },
    {
      "anonymous": false,
      "inputs": [
        {
          "indexed": true,
          "internalType": "uint16",
          "name": "_dstChainId",
          "type": "uint16"
        },
        {
          "indexed": true,
          "internalType": "address",
          "name": "_from",
          "type": "address"
        },
        {
          "indexed": true,
          "internalType": "bytes32",
          "name": "_toAddress",
          "type": "bytes32"
        },
        {
          "indexed": false,
          "internalType": "uint256",
          "name": "_amount",
          "type": "uint256"
        }
      ],
      "name": "SendToChain",
      "type": "event"
    },
    {
      "anonymous": false,
      "inputs": [
        {
          "indexed": false,
          "internalType": "uint16",
          "name": "_dstChainId",
          "type": "uint16"
        },
        {
          "indexed": false,
          "internalType": "uint16",
          "name": "_type",
          "type": "uint16"
        },
        {
          "indexed": false,
          "internalType": "uint256",
          "name": "_minDstGas",
          "type": "uint256"
        }
      ],
      "name": "SetMinDstGas",
      "type": "event"
    },
    {
      "anonymous": false,
      "inputs": [
        {
          "indexed": false,
          "internalType": "address",
          "name": "precrime",
          "type": "address"
        }
      ],
      "name": "SetPrecrime",
      "type": "event"
    },
    {
      "anonymous": false,
      "inputs": [
        {
          "indexed": false,
          "internalType": "uint16",
          "name": "_remoteChainId",
          "type": "uint16"
        },
        {
          "indexed": false,
          "internalType": "bytes",
          "name": "_path",
          "type": "bytes"
        }
      ],
      "name": "SetTrustedRemote",
      "type": "event"
    },
    {
      "anonymous": false,
      "inputs": [
        {
          "indexed": false,
          "internalType": "uint16",
          "name": "_remoteChainId",
          "type": "uint16"
        },
        {
          "indexed": false,
          "internalType": "bytes",
          "name": "_remoteAddress",
          "type": "bytes"
        }
      ],
      "name": "SetTrustedRemoteAddress",
      "type": "event"
    },
    {
      "anonymous": false,
      "inputs": [
        {
          "indexed": false,
          "internalType": "bool",
          "name": "_useCustomAdapterParams",
          "type": "bool"
        }
      ],
      "name": "SetUseCustomAdapterParams",
      "type": "event"
    },
    {
      "anonymous": false,
      "inputs": [
        {
          "indexed": true,
          "internalType": "address",
          "name": "from",
          "type": "address"
        },
        {
          "indexed": true,
          "internalType": "address",
          "name": "to",
          "type": "address"
        },
        {
          "indexed": false,
          "internalType": "uint256",
          "name": "value",
          "type": "uint256"
        }
      ],
      "name": "Transfer",
      "type": "event"
    },
    {
      "inputs": [],
      "name": "DEFAULT_PAYLOAD_SIZE_LIMIT",
      "outputs": [
        {
          "internalType": "uint256",
          "name": "",
          "type": "uint256"
        }
      ],
      "stateMutability": "view",
      "type": "function"
    },
    {
      "inputs": [],
      "name": "NO_EXTRA_GAS",
      "outputs": [
        {
          "internalType": "uint256",
          "name": "",
          "type": "uint256"
        }
      ],
      "stateMutability": "view",
      "type": "function"
    },
    {
      "inputs": [],
      "name": "PT_SEND",
      "outputs": [
        {
          "internalType": "uint8",
          "name": "",
          "type": "uint8"
        }
      ],
      "stateMutability": "view",
      "type": "function"
    },
    {
      "inputs": [],
      "name": "PT_SEND_AND_CALL",
      "outputs": [
        {
          "internalType": "uint8",
          "name": "",
          "type": "uint8"
        }
      ],
      "stateMutability": "view",
      "type": "function"
    },
    {
      "inputs": [
        {
          "internalType": "address",
          "name": "owner",
          "type": "address"
        },
        {
          "internalType": "address",
          "name": "spender",
          "type": "address"
        }
      ],
      "name": "allowance",
      "outputs": [
        {
          "internalType": "uint256",
          "name": "",
          "type": "uint256"
        }
      ],
      "stateMutability": "view",
      "type": "function"
    },
    {
      "inputs": [
        {
          "internalType": "address",
          "name": "spender",
          "type": "address"
        },
        {
          "internalType": "uint256",
          "name": "amount",
          "type": "uint256"
        }
      ],
      "name": "approve",
      "outputs": [
        {
          "internalType": "bool",
          "name": "",
          "type": "bool"
        }
      ],
      "stateMutability": "nonpayable",
      "type": "function"
    },
    {
      "inputs": [
        {
          "internalType": "address",
          "name": "account",
          "type": "address"
        }
      ],
      "name": "balanceOf",
      "outputs": [
        {
          "internalType": "uint256",
          "name": "",
          "type": "uint256"
        }
      ],
      "stateMutability": "view",
      "type": "function"
    },
    {
      "inputs": [
        {
          "internalType": "uint16",
          "name": "_srcChainId",
          "type": "uint16"
        },
        {
          "internalType": "bytes",
          "name": "_srcAddress",
          "type": "bytes"
        },
        {
          "internalType": "uint64",
          "name": "_nonce",
          "type": "uint64"
        },
        {
          "internalType": "bytes32",
          "name": "_from",
          "type": "bytes32"
        },
        {
          "internalType": "address",
          "name": "_to",
          "type": "address"
        },
        {
          "internalType": "uint256",
          "name": "_amount",
          "type": "uint256"
        },
        {
          "internalType": "bytes",
          "name": "_payload",
          "type": "bytes"
        },
        {
          "internalType": "uint256",
          "name": "_gasForCall",
          "type": "uint256"
        }
      ],
      "name": "callOnOFTReceived",
      "outputs": [],
      "stateMutability": "nonpayable",
      "type": "function"
    },
    {
      "inputs": [],
      "name": "circulatingSupply",
      "outputs": [
        {
          "internalType": "uint256",
          "name": "",
          "type": "uint256"
        }
      ],
      "stateMutability": "view",
      "type": "function"
    },
    {
      "inputs": [
        {
          "internalType": "uint16",
          "name": "",
          "type": "uint16"
        },
        {
          "internalType": "bytes",
          "name": "",
          "type": "bytes"
        },
        {
          "internalType": "uint64",
          "name": "",
          "type": "uint64"
        }
      ],
      "name": "creditedPackets",
      "outputs": [
        {
          "internalType": "bool",
          "name": "",
          "type": "bool"
        }
      ],
      "stateMutability": "view",
      "type": "function"
    },
    {
      "inputs": [],
      "name": "decimals",
      "outputs": [
        {
          "internalType": "uint8",
          "name": "",
          "type": "uint8"
        }
      ],
      "stateMutability": "view",
      "type": "function"
    },
    {
      "inputs": [
        {
          "internalType": "address",
          "name": "spender",
          "type": "address"
        },
        {
          "internalType": "uint256",
          "name": "subtractedValue",
          "type": "uint256"
        }
      ],
      "name": "decreaseAllowance",
      "outputs": [
        {
          "internalType": "bool",
          "name": "",
          "type": "bool"
        }
      ],
      "stateMutability": "nonpayable",
      "type": "function"
    },
    {
      "inputs": [],
      "name": "erc20",
      "outputs": [
        {
          "internalType": "address",
          "name": "",
          "type": "address"
        }
      ],
      "stateMutability": "view",
      "type": "function"
    },
    {
      "inputs": [
        {
          "internalType": "uint16",
          "name": "_dstChainId",
          "type": "uint16"
        },
        {
          "internalType": "bytes32",
          "name": "_toAddress",
          "type": "bytes32"
        },
        {
          "internalType": "uint256",
          "name": "_amount",
          "type": "uint256"
        },
        {
          "internalType": "bytes",
          "name": "_payload",
          "type": "bytes"
        },
        {
          "internalType": "uint64",
          "name": "_dstGasForCall",
          "type": "uint64"
        },
        {
          "internalType": "bool",
          "name": "_useZro",
          "type": "bool"
        },
        {
          "internalType": "bytes",
          "name": "_adapterParams",
          "type": "bytes"
        }
      ],
      "name": "estimateSendAndCallFee",
      "outputs": [
        {
          "internalType": "uint256",
          "name": "nativeFee",
          "type": "uint256"
        },
        {
          "internalType": "uint256",
          "name": "zroFee",
          "type": "uint256"
        }
      ],
      "stateMutability": "view",
      "type": "function"
    },
    {
      "inputs": [
        {
          "internalType": "uint16",
          "name": "_dstChainId",
          "type": "uint16"
        },
        {
          "internalType": "bytes32",
          "name": "_toAddress",
          "type": "bytes32"
        },
        {
          "internalType": "uint256",
          "name": "_amount",
          "type": "uint256"
        },
        {
          "internalType": "bool",
          "name": "_useZro",
          "type": "bool"
        },
        {
          "internalType": "bytes",
          "name": "_adapterParams",
          "type": "bytes"
        }
      ],
      "name": "estimateSendFee",
      "outputs": [
        {
          "internalType": "uint256",
          "name": "nativeFee",
          "type": "uint256"
        },
        {
          "internalType": "uint256",
          "name": "zroFee",
          "type": "uint256"
        }
      ],
      "stateMutability": "view",
      "type": "function"
    },
    {
      "inputs": [
        {
          "internalType": "address",
          "name": "module",
          "type": "address"
        },
        {
          "internalType": "uint16",
          "name": "_srcChainId",
          "type": "uint16"
        },
        {
          "internalType": "bytes",
          "name": "_srcAddress",
          "type": "bytes"
        },
        {
          "internalType": "uint64",
          "name": "_nonce",
          "type": "uint64"
        },
        {
          "internalType": "bytes",
          "name": "_payload",
          "type": "bytes"
        }
      ],
      "name": "exercise",
      "outputs": [],
      "stateMutability": "nonpayable",
      "type": "function"
    },
    {
      "inputs": [
        {
          "internalType": "address",
          "name": "from",
          "type": "address"
        },
        {
          "internalType": "uint256",
          "name": "oTAPTokenID",
          "type": "uint256"
        },
        {
          "internalType": "address",
          "name": "paymentToken",
          "type": "address"
        },
        {
          "internalType": "uint256",
          "name": "tapAmount",
          "type": "uint256"
        },
        {
          "internalType": "address",
          "name": "target",
          "type": "address"
        },
        {
          "components": [
            {
              "internalType": "bool",
              "name": "withdrawOnAnotherChain",
              "type": "bool"
            },
            {
              "internalType": "address",
              "name": "tapOftAddress",
              "type": "address"
            },
            {
              "internalType": "uint16",
              "name": "lzDstChainId",
              "type": "uint16"
            },
            {
              "internalType": "uint256",
              "name": "amount",
              "type": "uint256"
            },
            {
              "internalType": "address",
              "name": "zroPaymentAddress",
              "type": "address"
            },
            {
              "internalType": "uint256",
              "name": "extraGas",
              "type": "uint256"
            }
          ],
          "internalType": "struct ITapiocaOptionsBrokerCrossChain.IExerciseLZSendTapData",
          "name": "tapSendData",
          "type": "tuple"
        },
        {
          "components": [
            {
              "internalType": "bool",
              "name": "permitAll",
              "type": "bool"
            },
            {
              "internalType": "bool",
              "name": "allowFailure",
              "type": "bool"
            },
            {
              "internalType": "address",
              "name": "target",
              "type": "address"
            },
            {
              "internalType": "bool",
              "name": "permitBorrow",
              "type": "bool"
            },
            {
              "internalType": "address",
              "name": "owner",
              "type": "address"
            },
            {
              "internalType": "address",
              "name": "spender",
              "type": "address"
            },
            {
              "internalType": "uint256",
              "name": "value",
              "type": "uint256"
            },
            {
              "internalType": "uint256",
              "name": "deadline",
              "type": "uint256"
            },
            {
              "internalType": "uint8",
              "name": "v",
              "type": "uint8"
            },
            {
              "internalType": "bytes32",
              "name": "r",
              "type": "bytes32"
            },
            {
              "internalType": "bytes32",
              "name": "s",
              "type": "bytes32"
            }
          ],
          "internalType": "struct ICommonData.IApproval[]",
          "name": "approvals",
          "type": "tuple[]"
        }
      ],
      "name": "exerciseInternal",
      "outputs": [],
      "stateMutability": "nonpayable",
      "type": "function"
    },
    {
      "inputs": [
        {
          "components": [
            {
              "internalType": "address",
              "name": "from",
              "type": "address"
            },
            {
              "internalType": "address",
              "name": "target",
              "type": "address"
            },
            {
              "internalType": "uint256",
              "name": "paymentTokenAmount",
              "type": "uint256"
            },
            {
              "internalType": "uint256",
              "name": "oTAPTokenID",
              "type": "uint256"
            },
            {
              "internalType": "address",
              "name": "paymentToken",
              "type": "address"
            },
            {
              "internalType": "uint256",
              "name": "tapAmount",
              "type": "uint256"
            }
          ],
          "internalType": "struct ITapiocaOptionsBrokerCrossChain.IExerciseOptionsData",
          "name": "optionsData",
          "type": "tuple"
        },
        {
          "components": [
            {
              "internalType": "uint16",
              "name": "lzDstChainId",
              "type": "uint16"
            },
            {
              "internalType": "address",
              "name": "zroPaymentAddress",
              "type": "address"
            },
            {
              "internalType": "uint256",
              "name": "extraGas",
              "type": "uint256"
            }
          ],
          "internalType": "struct ITapiocaOptionsBrokerCrossChain.IExerciseLZData",
          "name": "lzData",
          "type": "tuple"
        },
        {
          "components": [
            {
              "internalType": "bool",
              "name": "withdrawOnAnotherChain",
              "type": "bool"
            },
            {
              "internalType": "address",
              "name": "tapOftAddress",
              "type": "address"
            },
            {
              "internalType": "uint16",
              "name": "lzDstChainId",
              "type": "uint16"
            },
            {
              "internalType": "uint256",
              "name": "amount",
              "type": "uint256"
            },
            {
              "internalType": "address",
              "name": "zroPaymentAddress",
              "type": "address"
            },
            {
              "internalType": "uint256",
              "name": "extraGas",
              "type": "uint256"
            }
          ],
          "internalType": "struct ITapiocaOptionsBrokerCrossChain.IExerciseLZSendTapData",
          "name": "tapSendData",
          "type": "tuple"
        },
        {
          "components": [
            {
              "internalType": "bool",
              "name": "permitAll",
              "type": "bool"
            },
            {
              "internalType": "bool",
              "name": "allowFailure",
              "type": "bool"
            },
            {
              "internalType": "address",
              "name": "target",
              "type": "address"
            },
            {
              "internalType": "bool",
              "name": "permitBorrow",
              "type": "bool"
            },
            {
              "internalType": "address",
              "name": "owner",
              "type": "address"
            },
            {
              "internalType": "address",
              "name": "spender",
              "type": "address"
            },
            {
              "internalType": "uint256",
              "name": "value",
              "type": "uint256"
            },
            {
              "internalType": "uint256",
              "name": "deadline",
              "type": "uint256"
            },
            {
              "internalType": "uint8",
              "name": "v",
              "type": "uint8"
            },
            {
              "internalType": "bytes32",
              "name": "r",
              "type": "bytes32"
            },
            {
              "internalType": "bytes32",
              "name": "s",
              "type": "bytes32"
            }
          ],
          "internalType": "struct ICommonData.IApproval[]",
          "name": "approvals",
          "type": "tuple[]"
        }
      ],
      "name": "exerciseOption",
      "outputs": [],
      "stateMutability": "payable",
      "type": "function"
    },
    {
      "inputs": [
        {
          "internalType": "uint16",
          "name": "",
          "type": "uint16"
        },
        {
          "internalType": "bytes",
          "name": "",
          "type": "bytes"
        },
        {
          "internalType": "uint64",
          "name": "",
          "type": "uint64"
        }
      ],
      "name": "failedMessages",
      "outputs": [
        {
          "internalType": "bytes32",
          "name": "",
          "type": "bytes32"
        }
      ],
      "stateMutability": "view",
      "type": "function"
    },
    {
      "inputs": [
        {
          "internalType": "uint16",
          "name": "_srcChainId",
          "type": "uint16"
        },
        {
          "internalType": "bytes",
          "name": "_srcAddress",
          "type": "bytes"
        }
      ],
      "name": "forceResumeReceive",
      "outputs": [],
      "stateMutability": "nonpayable",
      "type": "function"
    },
    {
      "inputs": [
        {
          "internalType": "uint16",
          "name": "_version",
          "type": "uint16"
        },
        {
          "internalType": "uint16",
          "name": "_chainId",
          "type": "uint16"
        },
        {
          "internalType": "address",
          "name": "",
          "type": "address"
        },
        {
          "internalType": "uint256",
          "name": "_configType",
          "type": "uint256"
        }
      ],
      "name": "getConfig",
      "outputs": [
        {
          "internalType": "bytes",
          "name": "",
          "type": "bytes"
        }
      ],
      "stateMutability": "view",
      "type": "function"
    },
    {
      "inputs": [
        {
          "internalType": "uint16",
          "name": "_remoteChainId",
          "type": "uint16"
        }
      ],
      "name": "getTrustedRemoteAddress",
      "outputs": [
        {
          "internalType": "bytes",
          "name": "",
          "type": "bytes"
        }
      ],
      "stateMutability": "view",
      "type": "function"
    },
    {
      "inputs": [],
      "name": "hostChainID",
      "outputs": [
        {
          "internalType": "uint256",
          "name": "",
          "type": "uint256"
        }
      ],
      "stateMutability": "view",
      "type": "function"
    },
    {
      "inputs": [
        {
          "internalType": "address",
          "name": "spender",
          "type": "address"
        },
        {
          "internalType": "uint256",
          "name": "addedValue",
          "type": "uint256"
        }
      ],
      "name": "increaseAllowance",
      "outputs": [
        {
          "internalType": "bool",
          "name": "",
          "type": "bool"
        }
      ],
      "stateMutability": "nonpayable",
      "type": "function"
    },
    {
      "inputs": [
        {
          "internalType": "uint16",
          "name": "",
          "type": "uint16"
        }
      ],
      "name": "isLdChain",
      "outputs": [
        {
          "internalType": "bool",
          "name": "",
          "type": "bool"
        }
      ],
      "stateMutability": "view",
      "type": "function"
    },
    {
      "inputs": [
        {
          "internalType": "uint16",
          "name": "_srcChainId",
          "type": "uint16"
        },
        {
          "internalType": "bytes",
          "name": "_srcAddress",
          "type": "bytes"
        }
      ],
      "name": "isTrustedRemote",
      "outputs": [
        {
          "internalType": "bool",
          "name": "",
          "type": "bool"
        }
      ],
      "stateMutability": "view",
      "type": "function"
    },
    {
      "inputs": [],
      "name": "lzEndpoint",
      "outputs": [
        {
          "internalType": "contract ILayerZeroEndpoint",
          "name": "",
          "type": "address"
        }
      ],
      "stateMutability": "view",
      "type": "function"
    },
    {
      "inputs": [
        {
          "internalType": "uint16",
          "name": "_srcChainId",
          "type": "uint16"
        },
        {
          "internalType": "bytes",
          "name": "_srcAddress",
          "type": "bytes"
        },
        {
          "internalType": "uint64",
          "name": "_nonce",
          "type": "uint64"
        },
        {
          "internalType": "bytes",
          "name": "_payload",
          "type": "bytes"
        }
      ],
      "name": "lzReceive",
      "outputs": [],
      "stateMutability": "nonpayable",
      "type": "function"
    },
    {
      "inputs": [
        {
          "internalType": "uint16",
          "name": "",
          "type": "uint16"
        },
        {
          "internalType": "uint16",
          "name": "",
          "type": "uint16"
        }
      ],
      "name": "minDstGasLookup",
      "outputs": [
        {
          "internalType": "uint256",
          "name": "",
          "type": "uint256"
        }
      ],
      "stateMutability": "view",
      "type": "function"
    },
    {
      "inputs": [],
      "name": "name",
      "outputs": [
        {
          "internalType": "string",
          "name": "",
          "type": "string"
        }
      ],
      "stateMutability": "view",
      "type": "function"
    },
    {
      "inputs": [
        {
          "internalType": "uint16",
          "name": "_srcChainId",
          "type": "uint16"
        },
        {
          "internalType": "bytes",
          "name": "_srcAddress",
          "type": "bytes"
        },
        {
          "internalType": "uint64",
          "name": "_nonce",
          "type": "uint64"
        },
        {
          "internalType": "bytes",
          "name": "_payload",
          "type": "bytes"
        }
      ],
      "name": "nonblockingLzReceive",
      "outputs": [],
      "stateMutability": "nonpayable",
      "type": "function"
    },
    {
      "inputs": [],
      "name": "owner",
      "outputs": [
        {
          "internalType": "address",
          "name": "",
          "type": "address"
        }
      ],
      "stateMutability": "view",
      "type": "function"
    },
    {
      "inputs": [
        {
          "internalType": "uint16",
          "name": "",
          "type": "uint16"
        }
      ],
      "name": "payloadSizeLimitLookup",
      "outputs": [
        {
          "internalType": "uint256",
          "name": "",
          "type": "uint256"
        }
      ],
      "stateMutability": "view",
      "type": "function"
    },
    {
      "inputs": [],
      "name": "precrime",
      "outputs": [
        {
          "internalType": "address",
          "name": "",
          "type": "address"
        }
      ],
      "stateMutability": "view",
      "type": "function"
    },
    {
      "inputs": [],
      "name": "renounceOwnership",
      "outputs": [],
      "stateMutability": "nonpayable",
      "type": "function"
    },
    {
      "inputs": [
        {
          "internalType": "uint16",
          "name": "_srcChainId",
          "type": "uint16"
        },
        {
          "internalType": "bytes",
          "name": "_srcAddress",
          "type": "bytes"
        },
        {
          "internalType": "uint64",
          "name": "_nonce",
          "type": "uint64"
        },
        {
          "internalType": "bytes",
          "name": "_payload",
          "type": "bytes"
        }
      ],
      "name": "retryMessage",
      "outputs": [],
      "stateMutability": "payable",
      "type": "function"
    },
    {
      "inputs": [
        {
          "internalType": "address",
          "name": "_from",
          "type": "address"
        },
        {
          "internalType": "uint16",
          "name": "_dstChainId",
          "type": "uint16"
        },
        {
          "internalType": "bytes32",
          "name": "_toAddress",
          "type": "bytes32"
        },
        {
          "internalType": "uint256",
          "name": "_amount",
          "type": "uint256"
        },
        {
          "internalType": "bytes",
          "name": "_payload",
          "type": "bytes"
        },
        {
          "internalType": "uint64",
          "name": "_dstGasForCall",
          "type": "uint64"
        },
        {
          "components": [
            {
              "internalType": "address payable",
              "name": "refundAddress",
              "type": "address"
            },
            {
              "internalType": "address",
              "name": "zroPaymentAddress",
              "type": "address"
            },
            {
              "internalType": "bytes",
              "name": "adapterParams",
              "type": "bytes"
            }
          ],
          "internalType": "struct ICommonOFT.LzCallParams",
          "name": "_callParams",
          "type": "tuple"
        }
      ],
      "name": "sendAndCall",
      "outputs": [],
      "stateMutability": "payable",
      "type": "function"
    },
    {
      "inputs": [
        {
          "internalType": "address",
          "name": "_from",
          "type": "address"
        },
        {
          "internalType": "uint16",
          "name": "_dstChainId",
          "type": "uint16"
        },
        {
          "internalType": "bytes32",
          "name": "_toAddress",
          "type": "bytes32"
        },
        {
          "internalType": "uint256",
          "name": "_amount",
          "type": "uint256"
        },
        {
          "components": [
            {
              "internalType": "address payable",
              "name": "refundAddress",
              "type": "address"
            },
            {
              "internalType": "address",
              "name": "zroPaymentAddress",
              "type": "address"
            },
            {
              "internalType": "bytes",
              "name": "adapterParams",
              "type": "bytes"
            }
          ],
          "internalType": "struct ICommonOFT.LzCallParams",
          "name": "_callParams",
          "type": "tuple"
        }
      ],
      "name": "sendFrom",
      "outputs": [],
      "stateMutability": "payable",
      "type": "function"
    },
    {
      "inputs": [
        {
          "internalType": "bytes",
          "name": "_payload",
          "type": "bytes"
        }
      ],
      "name": "sendFromDestination",
      "outputs": [],
      "stateMutability": "nonpayable",
      "type": "function"
    },
    {
      "inputs": [
        {
          "internalType": "uint16",
          "name": "_version",
          "type": "uint16"
        },
        {
          "internalType": "uint16",
          "name": "_chainId",
          "type": "uint16"
        },
        {
          "internalType": "uint256",
          "name": "_configType",
          "type": "uint256"
        },
        {
          "internalType": "bytes",
          "name": "_config",
          "type": "bytes"
        }
      ],
      "name": "setConfig",
      "outputs": [],
      "stateMutability": "nonpayable",
      "type": "function"
    },
    {
      "inputs": [
        {
          "internalType": "uint16",
          "name": "_chainId",
          "type": "uint16"
        },
        {
          "internalType": "bool",
          "name": "_isLdChain",
          "type": "bool"
        }
      ],
      "name": "setLdChain",
      "outputs": [],
      "stateMutability": "nonpayable",
      "type": "function"
    },
    {
      "inputs": [
        {
          "internalType": "uint16",
          "name": "_dstChainId",
          "type": "uint16"
        },
        {
          "internalType": "uint16",
          "name": "_packetType",
          "type": "uint16"
        },
        {
          "internalType": "uint256",
          "name": "_minGas",
          "type": "uint256"
        }
      ],
      "name": "setMinDstGas",
      "outputs": [],
      "stateMutability": "nonpayable",
      "type": "function"
    },
    {
      "inputs": [
        {
          "internalType": "uint16",
          "name": "_dstChainId",
          "type": "uint16"
        },
        {
          "internalType": "uint256",
          "name": "_size",
          "type": "uint256"
        }
      ],
      "name": "setPayloadSizeLimit",
      "outputs": [],
      "stateMutability": "nonpayable",
      "type": "function"
    },
    {
      "inputs": [
        {
          "internalType": "address",
          "name": "_precrime",
          "type": "address"
        }
      ],
      "name": "setPrecrime",
      "outputs": [],
      "stateMutability": "nonpayable",
      "type": "function"
    },
    {
      "inputs": [
        {
          "internalType": "uint16",
          "name": "_version",
          "type": "uint16"
        }
      ],
      "name": "setReceiveVersion",
      "outputs": [],
      "stateMutability": "nonpayable",
      "type": "function"
    },
    {
      "inputs": [
        {
          "internalType": "uint16",
          "name": "_version",
          "type": "uint16"
        }
      ],
      "name": "setSendVersion",
      "outputs": [],
      "stateMutability": "nonpayable",
      "type": "function"
    },
    {
      "inputs": [
        {
          "internalType": "uint16",
          "name": "_srcChainId",
          "type": "uint16"
        },
        {
          "internalType": "bytes",
          "name": "_path",
          "type": "bytes"
        }
      ],
      "name": "setTrustedRemote",
      "outputs": [],
      "stateMutability": "nonpayable",
      "type": "function"
    },
    {
      "inputs": [
        {
          "internalType": "uint16",
          "name": "_remoteChainId",
          "type": "uint16"
        },
        {
          "internalType": "bytes",
          "name": "_remoteAddress",
          "type": "bytes"
        }
      ],
      "name": "setTrustedRemoteAddress",
      "outputs": [],
      "stateMutability": "nonpayable",
      "type": "function"
    },
    {
      "inputs": [
        {
          "internalType": "bool",
          "name": "_useCustomAdapterParams",
          "type": "bool"
        }
      ],
      "name": "setUseCustomAdapterParams",
      "outputs": [],
      "stateMutability": "nonpayable",
      "type": "function"
    },
    {
      "inputs": [],
      "name": "sharedDecimals",
      "outputs": [
        {
          "internalType": "uint8",
          "name": "",
          "type": "uint8"
        }
      ],
      "stateMutability": "view",
      "type": "function"
    },
    {
      "inputs": [
        {
          "internalType": "bytes4",
          "name": "interfaceId",
          "type": "bytes4"
        }
      ],
      "name": "supportsInterface",
      "outputs": [
        {
          "internalType": "bool",
          "name": "",
          "type": "bool"
        }
      ],
      "stateMutability": "view",
      "type": "function"
    },
    {
      "inputs": [],
      "name": "symbol",
      "outputs": [
        {
          "internalType": "string",
          "name": "",
          "type": "string"
        }
      ],
      "stateMutability": "view",
      "type": "function"
    },
    {
      "inputs": [],
      "name": "token",
      "outputs": [
        {
          "internalType": "address",
          "name": "",
          "type": "address"
        }
      ],
      "stateMutability": "view",
      "type": "function"
    },
    {
      "inputs": [],
      "name": "totalSupply",
      "outputs": [
        {
          "internalType": "uint256",
          "name": "",
          "type": "uint256"
        }
      ],
      "stateMutability": "view",
      "type": "function"
    },
    {
      "inputs": [
        {
          "internalType": "address",
          "name": "to",
          "type": "address"
        },
        {
          "internalType": "uint256",
          "name": "amount",
          "type": "uint256"
        }
      ],
      "name": "transfer",
      "outputs": [
        {
          "internalType": "bool",
          "name": "",
          "type": "bool"
        }
      ],
      "stateMutability": "nonpayable",
      "type": "function"
    },
    {
      "inputs": [
        {
          "internalType": "address",
          "name": "from",
          "type": "address"
        },
        {
          "internalType": "address",
          "name": "to",
          "type": "address"
        },
        {
          "internalType": "uint256",
          "name": "amount",
          "type": "uint256"
        }
      ],
      "name": "transferFrom",
      "outputs": [
        {
          "internalType": "bool",
          "name": "",
          "type": "bool"
        }
      ],
      "stateMutability": "nonpayable",
      "type": "function"
    },
    {
      "inputs": [
        {
          "internalType": "address",
          "name": "newOwner",
          "type": "address"
        }
      ],
      "name": "transferOwnership",
      "outputs": [],
      "stateMutability": "nonpayable",
      "type": "function"
    },
    {
      "inputs": [
        {
          "internalType": "uint16",
          "name": "lzDstChainId",
          "type": "uint16"
        },
        {
          "internalType": "bytes",
          "name": "airdropAdapterParams",
          "type": "bytes"
        },
        {
          "internalType": "address",
          "name": "zroPaymentAddress",
          "type": "address"
        },
        {
          "internalType": "uint256",
          "name": "amount",
          "type": "uint256"
        },
        {
          "components": [
            {
              "internalType": "address payable",
              "name": "refundAddress",
              "type": "address"
            },
            {
              "internalType": "address",
              "name": "zroPaymentAddress",
              "type": "address"
            },
            {
              "internalType": "bytes",
              "name": "adapterParams",
              "type": "bytes"
            }
          ],
          "internalType": "struct ISendFrom.LzCallParams",
          "name": "sendFromData",
          "type": "tuple"
        },
        {
          "components": [
            {
              "internalType": "bool",
              "name": "permitAll",
              "type": "bool"
            },
            {
              "internalType": "bool",
              "name": "allowFailure",
              "type": "bool"
            },
            {
              "internalType": "address",
              "name": "target",
              "type": "address"
            },
            {
              "internalType": "bool",
              "name": "permitBorrow",
              "type": "bool"
            },
            {
              "internalType": "address",
              "name": "owner",
              "type": "address"
            },
            {
              "internalType": "address",
              "name": "spender",
              "type": "address"
            },
            {
              "internalType": "uint256",
              "name": "value",
              "type": "uint256"
            },
            {
              "internalType": "uint256",
              "name": "deadline",
              "type": "uint256"
            },
            {
              "internalType": "uint8",
              "name": "v",
              "type": "uint8"
            },
            {
              "internalType": "bytes32",
              "name": "r",
              "type": "bytes32"
            },
            {
              "internalType": "bytes32",
              "name": "s",
              "type": "bytes32"
            }
          ],
          "internalType": "struct ICommonData.IApproval[]",
          "name": "approvals",
          "type": "tuple[]"
        }
      ],
      "name": "triggerSendFrom",
      "outputs": [],
      "stateMutability": "payable",
      "type": "function"
    },
    {
      "inputs": [
        {
          "internalType": "uint16",
          "name": "",
          "type": "uint16"
        }
      ],
      "name": "trustedRemoteLookup",
      "outputs": [
        {
          "internalType": "bytes",
          "name": "",
          "type": "bytes"
        }
      ],
      "stateMutability": "view",
      "type": "function"
    },
    {
      "inputs": [],
      "name": "useCustomAdapterParams",
      "outputs": [
        {
          "internalType": "bool",
          "name": "",
          "type": "bool"
        }
      ],
      "stateMutability": "view",
      "type": "function"
    },
    {
      "inputs": [],
      "name": "yieldBox",
      "outputs": [
        {
          "internalType": "contract IYieldBoxBase",
          "name": "",
          "type": "address"
        }
      ],
      "stateMutability": "view",
      "type": "function"
    },
    {
      "stateMutability": "payable",
      "type": "receive"
    }
  ],
  "bytecode": "0x60e0604090808252346200056f5762005c93803803809162000022828562000574565b833981019060e0818303126200056f576200003d81620005ae565b906020906200004e828201620005ae565b818601516001600160a01b03808216969092918790036200056f5760608401516001600160401b0395908681116200056f57826200008e918701620005e8565b916080860151908782116200056f57620000aa918701620005e8565b9060a086015160ff8116968782036200056f5760c00151978b5180956a546170696f63614f46542d60a81b85830152620000ee8151809287602b86019101620005c3565b8101039462000108602b600b978881018452018262000574565b607f8d518096601d60fa1b878301526200012c8151809289602186019101620005c3565b810103936200014660216001968781018a52018862000574565b841c16946000968988549d60018060a01b03199e8f33908216178b55823391167f8be0079c531659141344cd1fd0a4f28419497f9722a3daafe3b4186f6b6457e08c80a3166080528660a05282518481116200055b578154938685811c9516801562000550575b888610146200053c578190601f95868111620004e9575b50889086831160011462000485578b9262000479575b5050600019600383901b1c191690861b1790555b80519283116200046557600c548481811c911680156200045a575b868210146200044657828111620003fd575b5084918311600114620003975792829391839288946200038b575b50501b916000199060031b1c191617600c555b6012821162000338575060120360ff8111620003245760ff1690604d8211620003105750600a0a60c0521683600f541617600f5560ff196011541617601155601055600e541617600e555161564f90816200064482396080518181816104b50152818161079c015281816108cc01528181610c1c01528181610e3b01528181611200015281816120bf015281816121cf015281816128c1015281816132f60152818161433c0152818161475c01526152e0015260a051816119f9015260c0518161533a0152f35b634e487b7160e01b81526011600452602490fd5b634e487b7160e01b82526011600452602482fd5b6084908a519062461bcd60e51b82526004820152602760248201527f4f46543a20736861726564446563696d616c73206d757374206265203c3d20646044820152666563696d616c7360c81b6064820152fd5b01519250388062000236565b600c8752848720919083601f198116895b8888838310620003e55750505010620003cb575b505050811b01600c5562000249565b015160001960f88460031b161c19169055388080620003bc565b868601518855909601959485019487935001620003a8565b600c88528588208380860160051c8201928887106200043c575b0160051c019085905b828110620004305750506200021b565b89815501859062000420565b9250819262000417565b634e487b7160e01b88526022600452602488fd5b90607f169062000209565b634e487b7160e01b87526041600452602487fd5b015190503880620001da565b848c52898c208994509190601f1984168d5b8c828210620004d25750508411620004b8575b505050811b019055620001ee565b015160001960f88460031b161c19169055388080620004aa565b8385015186558c9790950194938401930162000497565b909150838b52888b208680850160051c8201928b861062000532575b918a91869594930160051c01915b82811062000523575050620001c4565b8d81558594508a910162000513565b9250819262000505565b634e487b7160e01b8a52602260045260248afd5b94607f1694620001ad565b634e487b7160e01b89526041600452602489fd5b600080fd5b601f909101601f19168101906001600160401b038211908210176200059857604052565b634e487b7160e01b600052604160045260246000fd5b51906001600160a01b03821682036200056f57565b60005b838110620005d75750506000910152565b8181015183820152602001620005c6565b81601f820112156200056f5780516001600160401b0381116200059857604051926200061f601f8301601f19166020018562000574565b818452602082840101116200056f57620006409160208085019101620005c3565b9056fe6080604052600436101561001b575b361561001957600080fd5b005b60003560e01c80621d3567146103df57806254af3a146103da57806301ffc9a7146103d557806306fdde03146103d057806307e0db17146103cb578063095ea7b3146103c65780630df37483146103c157806310ddb137146103bc57806318160ddd1461033f57806318e7fa19146103b757806323b872dd146103b2578063313ce567146103ad578063365260b4146103a857806339509351146103a35780633b5971501461039e5780633d8b38f6146103995780633f1f4fa41461039457806342d65a8d1461038f578063447705151461038a5780634c42899a1461038a5780635b8c41e61461038557806366ad5c8a14610380578063695ef6bf1461037b5780636cb2c9581461037657806370a0823114610371578063715018a61461036c5780637533d7881461036757806376203b4814610362578063785e9e861461035d57806381618d0514610358578063857749b014610353578063862635681461034e5780638cfd8f5c146103495780638da5cb5b146103445780639358928b1461033f578063950c8a741461033a57806395d89b41146103355780639bdb9812146103305780639f38369a1461032b578063a457c2d714610326578063a4c51df514610321578063a6c3d1651461031c578063a9059cbb14610317578063af2ee97514610312578063b353aaa71461030d578063baf3292d14610308578063c446183414610303578063cbed8b9c146102fe578063d1deba1f146102f9578063dd62ed3e146102f4578063de406577146102ef578063df2a5b3b146102ea578063e6a20ae6146102e5578063eab45d9c146102e0578063eaffd49a146102db578063eb8d72b7146102d6578063ed629c5c146102d1578063f2fde38b146102cc578063f5ecbdbc146102c7578063f7bd4ec3146102c25763fc0c546a0361000e57612b3c565b612a67565b612857565b612790565b61276d565b612623565b61259a565b612538565b61251c565b612427565b612400565b6123a4565b612259565b612173565b612156565b6120e3565b61209f565b611f93565b611f69565b611de6565b611d4f565b611c90565b611bed565b611ba2565b611afb565b611ad4565b610923565b611aad565b611a5b565b611a1d565b6119df565b611713565b6116ec565b6114b4565b61145d565b611317565b6112d9565b61115e565b61107b565b610ff5565b610f8e565b610e9a565b610e19565b610de0565b610d84565b610cf5565b610c92565b610b8a565b610b59565b610b19565b610a71565b61089a565b61085b565b610826565b61076a565b610685565b6105d3565b6105b5565b610498565b61ffff8116036103f057565b600080fd5b9181601f840112156103f0578235916001600160401b0383116103f057602083818601950101116103f057565b6001600160401b038116036103f057565b9060806003198301126103f05760043561044c816103e4565b916001600160401b03906024358281116103f0578161046d916004016103f5565b9390939260443561047d81610422565b926064359182116103f057610494916004016103f5565b9091565b346103f0576104a636610433565b91929493906001600160a01b037f00000000000000000000000000000000000000000000000000000000000000001633036105655761052a61053292610019976105236105096105048a61ffff166000526001602052604060002090565b611442565b805190818414918261055b575b5081610538575b5061423e565b3691610ed1565b923691610ed1565b926144e8565b9050610545368486610ed1565b602081519101209060208151910120143861051d565b1515915038610516565b60405162461bcd60e51b815260206004820152601e60248201527f4c7a4170703a20696e76616c696420656e64706f696e742063616c6c657200006044820152606490fd5b60009103126103f057565b346103f05760003660031901126103f0576020601054604051908152f35b346103f05760203660031901126103f05760043563ffffffff60e01b81168091036103f057602090631f7ecdf760e01b8114908115610618575b506040519015158152f35b6301ffc9a760e01b1490503861060d565b60005b83811061063c5750506000910152565b818101518382015260200161062c565b9060209161066581518092818552858086019101610629565b601f01601f1916010190565b90602061068292818152019061064c565b90565b346103f057600080600319360112610767576040519080600b546106a881611372565b8085529160019180831690811561073d57506001146106e2575b6106de856106d2818703826109c0565b60405191829182610671565b0390f35b9250600b83527f0175b7a638427703f0dbe7bb9bbf987a2551717b34e79f33b5b1008d1fa01db95b8284106107255750505081016020016106d2826106de6106c2565b8054602085870181019190915290930192810161070a565b8695506106de969350602092506106d294915060ff191682840152151560051b82010192936106c2565b80fd5b346103f0576000602036600319011261076757600435610789816103e4565b610791612b57565b816001600160a01b037f00000000000000000000000000000000000000000000000000000000000000001691823b1561080457602461ffff918360405195869485936307e0db1760e01b85521660048401525af180156107ff576107f3575080f35b6107fc90610957565b80f35b612faf565b5080fd5b6001600160a01b038116036103f057565b359061082482610808565b565b346103f05760403660031901126103f05761085060043561084681610808565b6024359033612dbe565b602060405160018152f35b346103f05760403660031901126103f05761ffff60043561087b816103e4565b610883612b57565b166000526003602052602435604060002055600080f35b346103f05760006020366003190112610767576004356108b9816103e4565b6108c1612b57565b816001600160a01b037f00000000000000000000000000000000000000000000000000000000000000001691823b1561080457602461ffff918360405195869485936310ddb13760e01b85521660048401525af180156107ff576107f3575080f35b346103f05760003660031901126103f0576020600a54604051908152f35b634e487b7160e01b600052604160045260246000fd5b6001600160401b03811161096a57604052565b610941565b60c081019081106001600160401b0382111761096a57604052565b606081019081106001600160401b0382111761096a57604052565b604081019081106001600160401b0382111761096a57604052565b90601f801991011681019081106001600160401b0382111761096a57604052565b6040519061016082018281106001600160401b0382111761096a57604052565b604051906108248261098a565b60609060c31901126103f05760c490565b908160609103126103f05790565b60c0906101231901126103f05761012490565b9181601f840112156103f0578235916001600160401b0383116103f05760208085019461016085020101116103f057565b366003190161020081126103f05760c0136103f057604051610a928161096f565b600435610a9e81610808565b8152602435610aac81610808565b602082015260443560408201526064356060820152608435610acd81610808565b608082015260a43560a0820152610ae336610a0e565b610aec36610a2d565b916101e435926001600160401b0384116103f057610b11610019943690600401610a40565b939092613291565b346103f05760603660031901126103f057610850600435610b3981610808565b602435610b4581610808565b60443591610b54833383612eeb565b612ca1565b346103f05760003660031901126103f057602060405160128152f35b801515036103f057565b359061082482610b75565b346103f05760a03660031901126103f057600435610ba7816103e4565b60643590610bb482610b75565b608435906001600160401b0382116103f057610bd961052360409336906004016103f5565b90610c10610bf3610beb604435614e6c565b602435614f0b565b928451958694859463040a7bb160e41b86523090600487016148f7565b03816001600160a01b037f0000000000000000000000000000000000000000000000000000000000000000165afa9081156107ff576000908192610c61575b50604080519182526020820192909252f35b9050610c84915060403d8111610c8b575b610c7c81836109c0565b8101906148e1565b9038610c4f565b503d610c72565b346103f05760403660031901126103f057600435610caf81610808565b336000526009602052610cd9816040600020906001600160a01b0316600052602052604060002090565b546024358101809111610cf0576108509133612dbe565b612baf565b346103f05760403660031901126103f057600435610d12816103e4565b61ffff60243591610d2283610b75565b610d2a612b57565b16600052600d60205260406000209060ff801983541691151516179055600080f35b9060406003198301126103f057600435610d65816103e4565b91602435906001600160401b0382116103f057610494916004016103f5565b346103f057602061ffff610dd1610d9a36610d4c565b9390911660005260018452610dbc610dc36040600020604051928380926113ac565b03826109c0565b848151910120923691610ed1565b82815191012014604051908152f35b346103f05760203660031901126103f05761ffff600435610e00816103e4565b1660005260036020526020604060002054604051908152f35b346103f057610e2736610d4c565b9190610e31612b57565b6001600160a01b037f00000000000000000000000000000000000000000000000000000000000000001691823b156103f057604051928380926342d65a8d60e01b825281610e886000988997889460048501614479565b03925af180156107ff576107f3575080f35b346103f05760003660031901126103f057602060405160008152f35b6001600160401b03811161096a57601f01601f191660200190565b929192610edd82610eb6565b91610eeb60405193846109c0565b8294818452818301116103f0578281602093846000960137010152565b9080601f830112156103f05781602061068293359101610ed1565b9060606003198301126103f057600435610f3c816103e4565b91602435906001600160401b0382116103f057610f5b91600401610f08565b9060443561068281610422565b602090610f82928260405194838680955193849201610629565b82019081520301902090565b346103f0576020610fec61ffff610fcb83610fa836610f23565b949091166000526005825260406000208260405194838680955193849201610629565b820190815203019020906001600160401b0316600052602052604060002090565b54604051908152f35b346103f05761100336610433565b91929493903033036110275761052a61102192610019973691610ed1565b9261493c565b60405162461bcd60e51b815260206004820152602660248201527f4e6f6e626c6f636b696e674c7a4170703a2063616c6c6572206d7573742062656044820152650204c7a4170760d41b6064820152608490fd5b60a03660031901126103f05760043561109381610808565b60243561109f816103e4565b604435916084356001600160401b0381116103f057602061ffff6001600160a01b036110de6000805160206155fa833981519152943690600401610a1f565b9461115186356110ed81610808565b61110b610523878a0135996111018b610808565b60408101906146d2565b611115818b614d69565b61112a611123606435614eed565b50856150e2565b986111368a1515614b0a565b6111486111428b614e6c565b8d614f0b565b9234938c6142f0565b60405195865216941692a4005b60c03660031901126103f057600435611176816103e4565b6001600160401b036024358181116103f0576111969036906004016103f5565b90916044356111a481610808565b6084358281116103f0576111bc903690600401610a1f565b9160a4359081116103f0576111d5903690600401610a40565b946111ea6111e4606435614eed565b50614e6c565b6040516303408e4760e41b8152906020826004817f00000000000000000000000000000000000000000000000000000000000000006001600160a01b03165afa9182156107ff5761127a98611271956112689461125a936000916112ab575b50604051998a9533602088016130d6565b03601f1981018652856109c0565b34943691610ed1565b913390866142f0565b6040519033916000805160206155fa83398151915261ffff33931691806112a681906000602083019252565b0390a4005b6112cc915060203d81116112d2575b6112c481836109c0565b810190612f9a565b38611249565b503d6112ba565b346103f05760203660031901126103f0576001600160a01b036004356112fe81610808565b1660005260086020526020604060002054604051908152f35b346103f05760008060031936011261076757611331612b57565b80546001600160a01b03198116825581906001600160a01b03167f8be0079c531659141344cd1fd0a4f28419497f9722a3daafe3b4186f6b6457e08280a380f35b90600182811c921680156113a2575b602083101461138c57565b634e487b7160e01b600052602260045260246000fd5b91607f1691611381565b90600092918054916113bd83611372565b91828252600193848116908160001461141f57506001146113df575b50505050565b90919394506000526020928360002092846000945b83861061140b5750505050010190388080806113d9565b8054858701830152940193859082016113f4565b9294505050602093945060ff191683830152151560051b010190388080806113d9565b9061082461145692604051938480926113ac565b03836109c0565b346103f05760203660031901126103f05761ffff60043561147d816103e4565b1660005260016020526106de610dbc6114a06040600020604051928380926113ac565b60405191829160208352602083019061064c565b60e03660031901126103f0576004356114cc81610808565b6024356114d8816103e4565b604435916001600160401b036084358181116103f0576114fc9036906004016103f5565b92909160a43561150b81610422565b60c4358281116103f057611523903690600401610a1f565b9261155a84359661153388610808565b61155261154860208801359761110189610808565b9890923691610ed1565b963691610ed1565b9460ff6006541660001461165c5760228651106116175761161096866020966111486001600160a01b0396611151958e6115e98f6115d66000805160206155fa8339815191529f9d61ffff9e8f906022015193166000528f6002905286166115d060406000206001600052602052604060002090565b54612be1565b906115e2821515614dbe565b1015614e0a565b6115fe6115f7606435614eed565b508a6150e2565b9d8e61160b811515614b0a565b614e6c565b9033614f8a565b60405162461bcd60e51b815260206004820152601c60248201527f4c7a4170703a20696e76616c69642061646170746572506172616d73000000006044820152606490fd5b9195948094935051611698576111516000805160206155fa8339815191529560209561ffff956111486116109a6001600160a01b03978e6115e9565b60405162461bcd60e51b815260206004820152602660248201527f4f4654436f72653a205f61646170746572506172616d73206d7573742062652060448201526532b6b83a3c9760d11b6064820152608490fd5b346103f05760003660031901126103f05760206001600160a01b03600f5416604051908152f35b346103f05760a03660031901126103f05760043561173081610808565b6024359061173d826103e4565b6001600160401b036044358181116103f05761175d903690600401610f08565b9160643561176a81610422565b608435918383116103f0576000809161179c61178d6117b1963690600401610f08565b60208082518301019101613702565b9350979190986117aa6152cb565b9116614eda565b9760408801988952886117d7306001600160a01b03166000526008602052604060002090565b54968b61182861182461181d846118056117ff8661ffff166000526007602052604060002090565b89610f68565b906001600160401b0316600052602052604060002090565b5460ff1690565b1590565b611996575b5050505061184e306001600160a01b03166000526008602052604060002090565b54956118ca61186489516001600160a01b031690565b926118bc60608b01519161188260808d01516001600160a01b031690565b948c61189d602060a08301519201516001600160a01b031690565b90604051978896602088019a63f7bd4ec360e01b8c526024890161388f565b03601f1981018352826109c0565b51915af4916118d7613915565b9215611935575050506001600160a01b0361191a7fbf551ec93859b170f9b2141bd9298bf3f64322c6f7beb2543a0cb669834118bf92516001600160a01b031690565b925160405190815292169261ffff169180602081015b0390a3005b93611947611959949261197196613963565b905180911015611975575b5050613b22565b60405162461bcd60e51b815291829160048301610671565b0390fd5b61198961198f92516001600160a01b031690565b30613970565b8380611952565b6119d6936119c3611805926119af6119c996513061521e565b61ffff166000526007602052604060002090565b90610f68565b805460ff19166001179055565b3888818b61182d565b346103f05760003660031901126103f057602060405160ff7f0000000000000000000000000000000000000000000000000000000000000000168152f35b346103f05760203660031901126103f05761ffff600435611a3d816103e4565b16600052600d602052602060ff604060002054166040519015158152f35b346103f05760403660031901126103f0576020610fec600435611a7d816103e4565b61ffff60243591611a8d836103e4565b166000526002835260406000209061ffff16600052602052604060002090565b346103f05760003660031901126103f05760206001600160a01b0360005416604051908152f35b346103f05760003660031901126103f05760206001600160a01b0360045416604051908152f35b346103f057600080600319360112610767576040519080600c54611b1e81611372565b8085529160019180831690811561073d5750600114611b47576106de856106d2818703826109c0565b9250600c83527fdf6966c971051c3d54ec59162606531493a51404a002842f56009d7e5cf4a8c75b828410611b8a5750505081016020016106d2826106de6106c2565b80546020858701810191909152909301928101611b6f565b346103f057602060ff611be161ffff610fcb84611bbe36610f23565b949091166000526007825260406000208260405194838680955193849201610629565b54166040519015158152f35b346103f05760203660031901126103f05761ffff600435611c0d816103e4565b166000526001602052610dbc611c2d6040600020604051928380926113ac565b805115611c4b576106d281611c456106de9351613945565b906153f7565b60405162461bcd60e51b815260206004820152601d60248201527f4c7a4170703a206e6f20747275737465642070617468207265636f72640000006044820152606490fd5b346103f05760403660031901126103f057600435611cad81610808565b60243590336000526009602052611cdb816040600020906001600160a01b0316600052602052604060002090565b5491808310611cfc57611cf092039033612dbe565b60405160018152602090f35b60405162461bcd60e51b815260206004820152602560248201527f45524332303a2064656372656173656420616c6c6f77616e63652062656c6f77604482015264207a65726f60d81b6064820152608490fd5b346103f05760e03660031901126103f057600435611d6c816103e4565b6001600160401b03906064358281116103f057611d8d9036906004016103f5565b608492919235611d9c81610422565b60a43591611da983610b75565b60c4359586116103f057611dc4611dd49636906004016103f5565b9590946044359060243590614704565b60408051928352602083019190915290f35b346103f057611df436610d4c565b90611dfd612b57565b60405192602092808385870137611e296034868381013060601b888201520360148101885201866109c0565b60009361ffff8316855260019081815260408620918751916001600160401b03831161096a57611e6383611e5d8654611372565b86614494565b80601f8411600114611ed3575091808092611ec29695948a9b7f8c0400cfe2d1199b1a725c78960bcc2a344d869b80590d0f2bd005db15a572ce9b94611ec8575b50501b916000199060031b1c19161790555b60405193849384614479565b0390a180f35b015192503880611ea4565b91939498601f198416611eeb87600052602060002090565b938a905b828210611f52575050917f8c0400cfe2d1199b1a725c78960bcc2a344d869b80590d0f2bd005db15a572ce999a95939185611ec298969410611f39575b505050811b019055611eb6565b015160001960f88460031b161c19169055388080611f2c565b808886978294978701518155019601940190611eef565b346103f05760403660031901126103f057610850600435611f8981610808565b6024359033612ca1565b346103f05760203660031901126103f0576001600160401b036004358181116103f057611ffd91611fe2611fd36001600160a01b03933690600401610f08565b6020808251830101910161356e565b9793909691945016958051612090575b5047936117aa6152cb565b90303b156103f05760405163695ef6bf60e01b81529260009284928391829161202c918a8a8160048701613635565b0391305af180156107ff57612077575b507fbf551ec93859b170f9b2141bd9298bf3f64322c6f7beb2543a0cb669834118bf61ffff6040519216918061193081906000602083019252565b8061208461208a92610957565b806105aa565b3861203c565b61209990613dcb565b38611ff2565b346103f05760003660031901126103f05760206040516001600160a01b037f0000000000000000000000000000000000000000000000000000000000000000168152f35b346103f05760203660031901126103f0577f5db758e995a17ec1ad84bdef7e8c3293a0bd6179bcce400dff5d4c3d87db726b60206001600160a01b0360043561212b81610808565b612133612b57565b16806bffffffffffffffffffffffff60a01b6004541617600455604051908152a1005b346103f05760003660031901126103f05760206040516127108152f35b346103f05760803660031901126103f057600435612190816103e4565b60243561219c816103e4565b6064356001600160401b0381116103f0576121bb9036906004016103f5565b90926121c5612b57565b6001600160a01b037f00000000000000000000000000000000000000000000000000000000000000001690813b156103f0576000809461223c604051978896879586946332fb62e760e21b865261ffff80921660048701521660248501526044356044850152608060648501526084840191612fbb565b03925af180156107ff5761224c57005b8061208461001992610957565b61226236610433565b9161ffff869492961660005260056020526122a981604060002060206040518092878b833787820190815203019020906001600160401b0316600052602052604060002090565b5491821561235357612342848361233b7fc264d91f3adc5588250e1551f547752ca0cfa8f6b530d243b9f9f4cab10ea8e59a6000612327846118058e8a8f61234e9f908f61230d906123006123219436908d610ed1565b6020815191012014614645565b61ffff166000526005602052604060002090565b9161462c565b5561233336878d610ed1565b933691610ed1565b918861493c565b6040519586958661469b565b0390a1005b60405162461bcd60e51b815260206004820152602360248201527f4e6f6e626c6f636b696e674c7a4170703a206e6f2073746f726564206d65737360448201526261676560e81b6064820152608490fd5b346103f05760403660031901126103f0576020610fec6004356123c681610808565b6001600160a01b03602435916123db83610808565b16600052600983526040600020906001600160a01b0316600052602052604060002090565b346103f05760003660031901126103f05760206001600160a01b03600e5416604051908152f35b346103f05760603660031901126103f057600435612444816103e4565b602435612450816103e4565b6044359161245c612b57565b82156124d75761234e7f9d5c7c0b934da8fefa9c7760c98383778a12dfbfc0c3b3106518f43fb9508ac09361ffff83166000526002602052806124b18560406000209061ffff16600052602052604060002090565b556040519384938460409194939294606082019561ffff80921683521660208201520152565b60405162461bcd60e51b815260206004820152601560248201527f4c7a4170703a20696e76616c6964206d696e47617300000000000000000000006044820152606490fd5b346103f05760003660031901126103f057602060405160018152f35b346103f05760203660031901126103f0577f1584ad594a70cbe1e6515592e1272a987d922b097ead875069cebe8b40c004a4602060043561257881610b75565b612580612b57565b151560ff196006541660ff821617600655604051908152a1005b346103f0576101003660031901126103f0576004356125b8816103e4565b6001600160401b03906024358281116103f0576125d99036906004016103f5565b9190604435906125e882610422565b6084356125f481610808565b60c4359586116103f05761260f6100199636906004016103f5565b94909360e4359660a43594606435936147fa565b346103f05761263136610d4c565b919061263b612b57565b60009161ffff81168352600160209080825260408520916001600160401b03871161096a576126748761266e8554611372565b85614494565b8590601f88116001146126db5750918680879893611ec2957ffa41487ad5d6728f0b19276fa1eddc16558578f5109fc39d2dc33c3230470dab99936126d0575b501b906000198460031b1c191617905560405193849384614479565b8801359250386126b4565b90601f1988166126f085600052602060002090565b9288905b828210612756575050918893917ffa41487ad5d6728f0b19276fa1eddc16558578f5109fc39d2dc33c3230470dab9899611ec296941061273c575b505082811b019055611eb6565b870135600019600386901b60f8161c19169055388061272f565b808685968294968c013581550195019301906126f4565b346103f05760003660031901126103f057602060ff600654166040519015158152f35b346103f05760203660031901126103f0576004356127ad81610808565b6127b5612b57565b6001600160a01b03809116801561280357600080546001600160a01b03198116831782559092167f8be0079c531659141344cd1fd0a4f28419497f9722a3daafe3b4186f6b6457e08380a380f35b60405162461bcd60e51b815260206004820152602660248201527f4f776e61626c653a206e6577206f776e657220697320746865207a65726f206160448201526564647265737360d01b6064820152608490fd5b346103f05760803660031901126103f057600435612874816103e4565b60243590612881826103e4565b61288c604435610808565b604051633d7b2f6f60e21b815261ffff91821660048201529116602482015230604482015260648035908201526000816084817f00000000000000000000000000000000000000000000000000000000000000006001600160a01b03165afa80156107ff576106de9160009161290a575b5060405191829182610671565b612925913d8091833e61291d81836109c0565b810190614454565b386128fd565b6001600160401b03811161096a5760051b60200190565b60ff8116036103f057565b359061082482612942565b81601f820112156103f05780359061296f8261292b565b9260409061297f825195866109c0565b8385526020918286019183610160809702860101948186116103f0578401925b8584106129b0575050505050505090565b86848303126103f0578487916129c46109e1565b6129cd87610b7f565b81526129da838801610b7f565b838201526129e9868801610819565b8682015260606129fa818901610b7f565b908201526080612a0b818901610819565b9082015260a0612a1c818901610819565b9082015260c0808801359082015260e08088013590820152610100612a4281890161294d565b908201526101208088013590820152610140808801359082015281520193019261299f565b346103f0576101803660031901126103f057600435612a8581610808565b604435612a9181610808565b608435612a9d81610808565b60c03660a31901126103f05760405190612ab68261096f565b60a435612ac281610b75565b825260c435612ad081610808565b602083015260e435612ae1816103e4565b604083015261010435606083015261012435612afc81610808565b60808301526101443560a083015261016435936001600160401b0385116103f057612b2e610019953690600401612958565b936064359160243590613b99565b346103f05760003660031901126103f0576020604051308152f35b6001600160a01b03600054163303612b6b57565b606460405162461bcd60e51b815260206004820152602060248201527f4f776e61626c653a2063616c6c6572206973206e6f7420746865206f776e65726044820152fd5b634e487b7160e01b600052601160045260246000fd5b90601f8201809211610cf057565b6051019081605111610cf057565b91908201809211610cf057565b15612bf557565b60405162461bcd60e51b815260206004820152602360248201527f45524332303a207472616e7366657220746f20746865207a65726f206164647260448201526265737360e81b6064820152608490fd5b15612c4d57565b60405162461bcd60e51b815260206004820152602660248201527f45524332303a207472616e7366657220616d6f756e7420657863656564732062604482015265616c616e636560d01b6064820152608490fd5b91906001600160a01b0390818416928315612d6b57612d50827fddf252ad1be2c89b69c2b068fc378daa952ba7f163c4a11628f55a4df523b3ef94612d66941696612ced881515612bee565b612d3684612d0e836001600160a01b03166000526008602052604060002090565b54612d1b82821015612c46565b03916001600160a01b03166000526008602052604060002090565b556001600160a01b03166000526008602052604060002090565b8054820190556040519081529081906020820190565b0390a3565b60405162461bcd60e51b815260206004820152602560248201527f45524332303a207472616e736665722066726f6d20746865207a65726f206164604482015264647265737360d81b6064820152608490fd5b906001600160a01b0391828116928315612e9a578216938415612e4a5780612e397f8c5be1e5ebec7d5bd14f71427d1e84f3dd0314c0f7b2291e5b200ac8c7c3b92594612e21612d66956001600160a01b03166000526009602052604060002090565b906001600160a01b0316600052602052604060002090565b556040519081529081906020820190565b60405162461bcd60e51b815260206004820152602260248201527f45524332303a20617070726f766520746f20746865207a65726f206164647265604482015261737360f01b6064820152608490fd5b60405162461bcd60e51b8152602060048201526024808201527f45524332303a20617070726f76652066726f6d20746865207a65726f206164646044820152637265737360e01b6064820152608490fd5b906001600160a01b0382166000526009602052612f1f816040600020906001600160a01b0316600052602052604060002090565b549260018401612f2f5750505050565b808410612f4a57612f41930391612dbe565b388080806113d9565b60405162461bcd60e51b815260206004820152601d60248201527f45524332303a20696e73756666696369656e7420616c6c6f77616e63650000006044820152606490fd5b5190610824826103e4565b908160209103126103f05751610682816103e4565b6040513d6000823e3d90fd5b908060209392818452848401376000828201840152601f01601f1916010190565b9190808252602080920192916000905b828210612ffa575050505090565b909192938061301460019261300e88610b7f565b15159052565b61302a613022848801610b7f565b151582850152565b613049604061303a818901610819565b6001600160a01b031690830152565b6130616060613059818901610b7f565b151590830152565b613071608061303a818901610819565b61308160a061303a818901610819565b60c0808701359082015260e080870135908201526130af6101006130a681890161294d565b60ff1690830152565b61012086810135908201526101408087013590820152610160908101950193920190612fec565b91959394929061030a83526001600160a01b0380911660208401526001600160401b03809716604084015260c0606084015280823561311481610808565b1660c0840152602082013561312881610808565b1660e08301526040810135601e19823603018112156103f05701946020863596019086116103f05785360381136103f05761317761318491610682976060610100860152610120850191612fbb565b61ffff9095166080830152565b60a0818503910152612fdc565b60a0809180356131a081610b75565b1515845260208101356131b281610808565b6001600160a01b03809116602086015261ffff60408301356131d3816103e4565b1660408601526060820135606086015260808201356131f181610808565b1660808501520135910152565b919260a061068296946001600160401b0361326b9461030987521660208601526001600160a01b038082511660408701528060208301511660608701526040820151608087015260608201518387015260808201511660c0860152015160e0840152610100830190613191565b6101e090816101c08201520191612fdc565b35610682816103e4565b3561068281610808565b9291906132b46132a885516001600160a01b031690565b6001600160a01b031690565b9460408501936132c48551614eed565b50926132d787516001600160a01b031690565b6040516303408e4760e41b81526001600160a01b0395906020816004817f00000000000000000000000000000000000000000000000000000000000000008b165afa9788156107ff576118bc6133bb976133ad97613359868f976111e4906000805160206155fa8339815191529f9a613369996133a89c6133d1575b506150e2565b93604051968795602087016131fe565b613376604084013561421e565b61337f8461327d565b916133946132a88c516001600160a01b031690565b6133a060208701613287565b9134946142f0565b61327d565b94516001600160a01b031690565b925160405190815292169261ffff1691602090a4565b6133e89060203d81116112d2576112c481836109c0565b5038613353565b519061082482610808565b9092919261340781610eb6565b9161341560405193846109c0565b8294828452828201116103f0576020610824930190610629565b9080601f830112156103f0578151610682926020016133fa565b519061082482610b75565b519061082482612942565b81601f820112156103f0578051906134768261292b565b92604090613486825195866109c0565b8385526020918286019183610160809702860101948186116103f0578401925b8584106134b7575050505050505090565b86848303126103f0578487916134cb6109e1565b6134d487613449565b81526134e1838801613449565b838201526134f08688016133ef565b868201526060613501818901613449565b9082015260806135128189016133ef565b9082015260a06135238189016133ef565b9082015260c0808801519082015260e08088015190820152610100613549818901613454565b90820152610120808801519082015261014080880151908201528152019301926134a6565b909160c0828403126103f0578151613585816103e4565b92602083015161359481610808565b9260408101516135a381610422565b926060820151916001600160401b03928381116103f05781016060818603126103f057604051906135d38261098a565b80516135de81610808565b825260208101516135ee81610808565b60208301526040810151908582116103f05761360c9187910161342f565b60408201529361361e60808301612f8f565b9360a08301519081116103f057610682920161345f565b939061068295916101009461ffff6040956001600160a01b03809516895216602088015284870152606086015260a060808601528082511660a086015260208201511660c0850152015191606060e0820152019061064c565b91908260c09103126103f0576040516136a68161096f565b60a080829480516136b681610b75565b845260208101516136c681610808565b602085015260408101516136d9816103e4565b60408501526060810151606085015260808101516136f681610808565b60808501520151910152565b808203916101e083126103f057815161371a816103e4565b9360c0602084015161372b81610422565b94603f1901126103f0576040516137418161096f565b604084015161374f81610808565b8152606084015161375f81610808565b60208201526080840151604082015260a0840151606082015260c084015161378681610808565b608082015260e084015160a0820152926137a483610100830161368e565b926101c08201516001600160401b0381116103f057610682920161345f565b90815180825260208080930193019160005b8281106137e3575050505090565b909192938261016060019287516137fc82825115159052565b808401511515828501526040818101516001600160a01b0316908301526060818101511515908301526080818101516001600160a01b03169083015260a0818101516001600160a01b03169083015260c0818101519083015260e080820151908301526101008082015160ff169083015261012081810151908301526101409081015190820152019501939291016137d5565b9460a09461068298979493926001600160a01b03948594858093168a5260208a0152166040880152606087015216608085015281511515838501528060208301511660c085015261ffff60408301511660e085015260608201516101008501526080820151166101208401520151610140820152610180908161016082015201906137c3565b3d15613940573d9061392682610eb6565b9161393460405193846109c0565b82523d6000602084013e565b606090565b601319810191908211610cf057565b605019810191908211610cf057565b91908203918211610cf057565b9060405190602082019363a9059cbb60e01b85526001600160a01b03809216602484015260448301526044825260808201928284106001600160401b0385111761096a57613a0a9460009283928660405216936139cc866109a5565b602086527f5361666545524332303a206c6f772d6c6576656c2063616c6c206661696c656460a0820152519082855af1613a04613915565b91613a91565b805180613a15575050565b81602091810103126103f0576020610824910151613a3281610b75565b15613a3957565b60405162461bcd60e51b815260206004820152602a60248201527f5361666545524332303a204552433230206f7065726174696f6e20646964206e6044820152691bdd081cdd58d8d9595960b21b6064820152608490fd5b91929015613af35750815115613aa5575090565b3b15613aae5790565b60405162461bcd60e51b815260206004820152601d60248201527f416464726573733a2063616c6c20746f206e6f6e2d636f6e74726163740000006044820152606490fd5b825190915015613b065750805190602001fd5b60405162461bcd60e51b81529081906119719060048301610671565b6044815110613b73576004810151810190602081602484019303126103f0576024810151906001600160401b0382116103f0570190806043830112156103f0576024820151610682926044016133fa565b50604051613b80816109a5565b6009815268544f46545f6461746160b81b602082015290565b9190939294958051613d06575b506001600160a01b0380931690813b156103f05760405163286fbdcd60e21b815260048101959095526001600160a01b0316602485015260448401859052600094939085908290606490829084905af180156107ff57613cf3575b50845115613cd057613c236132a86132a860208801516001600160a01b031690565b91613c33604087015161ffff1690565b911690613c5760a0613c4f60808901516001600160a01b031690565b97015161421e565b613c7f613c62610a01565b6001600160a01b0385168152976001600160a01b03166020890152565b6040870152823b15613ccc578490613cae6040519788968795869463695ef6bf60e01b86523060048701613635565b03925af180156107ff57613cbf5750565b8061208461082492610957565b8480fd5b91925050613cee6132a860206108249501516001600160a01b031690565b613970565b80612084613d0092610957565b38613c01565b613d0f90613dcb565b38613ba6565b8051821015613d295760209160051b010190565b634e487b7160e01b600052603260045260246000fd5b60009060033d11613d4c57565b905060046000803e60005160e01c90565b600060443d1061068257604051600319913d83016004833e81516001600160401b03918282113d602484011117613dba57818401948551938411613dc2573d85010160208487010111613dba5750610682929101602001906109c0565b949350505050565b50949350505050565b60005b815181101561421a57613dee6060613de68385613d15565b510151151590565b15613f95576040613e186132a86132a883613e098688613d15565b5101516001600160a01b031690565b90613e286080613e098587613d15565b613e3760a0613e098688613d15565b9260c0613e448688613d15565b51015160e0613e538789613d15565b51015190613e70610100613e67898b613d15565b51015160ff1690565b93610120613e7e898b613d15565b510151610140613e8e8a8c613d15565b51015190853b156103f057875196879586956301da8bf160e41b875260049b8c880196613ef2979360ff929897969360c0969260e087019a6001600160a01b0380921688521660208701526040860152606085015216608083015260a08201520152565b03815a6000948591f19081613f82575b50613f7857600191613f12613d3f565b6308c379a014613f2d575b50506107ff576001905b01613dce565b613f35613d5d565b9081613f42575b50613f1d565b600093509091613f5a6118246020613de6888a613d15565b15613f3c575162461bcd60e51b815291829161197191908301610671565b5050600190613f27565b80612084613f8f92610957565b38613f02565b613fa9613fa28284613d15565b5151151590565b15614114576040613fc46132a86132a883613e098688613d15565b90613fd46080613e098587613d15565b91613fe460a0613e098688613d15565b60e0613ff08688613d15565b51015191614004610100613e67888a613d15565b90610120614012888a613d15565b51015193610140614023898b613d15565b510151823b156103f057865163aba0784760e01b81526001600160a01b03988916600480830191909152989095166024860152604485019190915260ff9092166064840152608483019390935260a482015290600090829081838160c4810103925af19081614101575b50613f785760019161409d613d3f565b6308c379a0146140b6575b50506107ff57600190613f27565b6140be613d5d565b90816140cb575b506140a8565b6000935090916140e36118246020613de6888a613d15565b156140c5575162461bcd60e51b815291829161197191908301610671565b8061208461410e92610957565b3861408d565b604061412a6132a86132a883613e098688613d15565b9061413a6080613e098587613d15565b61414960a0613e098688613d15565b9260c06141568688613d15565b51015160e06141658789613d15565b51015190614179610100613e67898b613d15565b93610120614187898b613d15565b5101516101406141978a8c613d15565b51015190853b156103f0578751968795869563d505accf60e01b875260049b8c8801966141fb979360ff929897969360c0969260e087019a6001600160a01b0380921688521660208701526040860152606085015216608083015260a08201520152565b03815a6000948591f190816141015750613f785760019161409d613d3f565b5050565b60405190600160f01b60208301526022820152602281526106828161098a565b1561424557565b60405162461bcd60e51b815260206004820152602660248201527f4c7a4170703a20696e76616c696420736f757263652073656e64696e6720636f6044820152651b9d1c9858dd60d21b6064820152608490fd5b926142be61068297959361ffff6142cc9416865260c0602087015260c086019061064c565b90848203604086015261064c565b936001600160a01b03809216606084015216608082015260a081840391015261064c565b946143199193929561ffff811660005260016020526143206040600020604051948580926113ac565b03846109c0565b825115614387576143328551826143e5565b6001600160a01b037f00000000000000000000000000000000000000000000000000000000000000001693843b156103f057600096613cae91604051998a988997889662c5803160e81b885260048801614299565b60405162461bcd60e51b815260206004820152603060248201527f4c7a4170703a2064657374696e6174696f6e20636861696e206973206e6f742060448201526f61207472757374656420736f7572636560801b6064820152608490fd5b61ffff16600052600360205260406000205490811561444a575b1161440657565b606460405162461bcd60e51b815260206004820152602060248201527f4c7a4170703a207061796c6f61642073697a6520697320746f6f206c617267656044820152fd5b61271091506143ff565b906020828203126103f05781516001600160401b0381116103f057610682920161342f565b60409061ffff61068295931681528160208201520191612fbb565b90601f81116144a257505050565b600091825260208220906020601f850160051c830194106144de575b601f0160051c01915b8281106144d357505050565b8181556001016144c7565b90925082906144be565b92909161455a5a604051633356ae4560e11b602082015261ffff8716602482015260806044820152906145548261454661452560a483018a61064c565b6001600160401b03881660648401528281036023190160848401528861064c565b03601f1981018452836109c0565b306155ae565b939015614569575b5050505050565b6145729461457c565b3880808080614562565b91936146197fe183f33de2837795525b4792ca4cd60535bd77c53b7e7030060bfcf5734d6b0c95614627939561ffff815160208301209616958660005260056020526145e083610fcb60208b60406000208260405194838680955193849201610629565b556001600160401b03614605604051988998895260a060208a015260a089019061064c565b92166040870152858203606087015261064c565b90838203608085015261064c565b0390a1565b6020919283604051948593843782019081520301902090565b1561464c57565b60405162461bcd60e51b815260206004820152602160248201527f4e6f6e626c6f636b696e674c7a4170703a20696e76616c6964207061796c6f616044820152601960fa1b6064820152608490fd5b916146c79060609461ffff6001600160401b039499989799168552608060208601526080850191612fbb565b951660408201520152565b903590601e19813603018212156103f057018035906001600160401b0382116103f0576020019181360383136103f057565b94919598979061161061472d60409961472561473397614750993691610ed1565b943691610ed1565b97614e6c565b928451968794859463040a7bb160e41b86523090600487016148f7565b03816001600160a01b037f0000000000000000000000000000000000000000000000000000000000000000165afa9182156107ff57600090819361479357509190565b905061049491925060403d8111610c8b57610c7c81836109c0565b939694916147dc9061068299979461ffff6001600160401b039416875260c0602088015260c0870191612fbb565b961660408401526060830152608082015260a0818503910152612fbb565b9196979298959493909430330361489c5761481e6001600160a01b03918630615294565b941692836040517fbf551ec93859b170f9b2141bd9298bf3f64322c6f7beb2543a0cb669834118bf61ffff8616918061485c8a829190602083019252565b0390a3833b156103f057600098899561488c936040519c8d9b8c9a8b98633fe79aed60e11b8a5260048a016147ae565b0393f180156107ff57613cbf5750565b60405162461bcd60e51b815260206004820152601f60248201527f4f4654436f72653a2063616c6c6572206d757374206265204f4654436f7265006044820152606490fd5b91908260409103126103f0576020825192015190565b91926001600160a01b03610682969461ffff6149279416855216602084015260a0604084015260a083019061064c565b9215156060820152608081840391015261064c565b92919060ff61494a84615553565b1680614ab55750505060ff61495e82615553565b161580614aaa575b61496f90614f3e565b61498161497b826154fb565b9161559e565b9181926001600160a01b0380931615614aa0575b6149a9906001600160401b036117aa6152cb565b918316928315614a5b577fbf551ec93859b170f9b2141bd9298bf3f64322c6f7beb2543a0cb669834118bf91614a0961ffff926149f06149eb87600a54612be1565b600a55565b6001600160a01b03166000526008602052604060002090565b8481540190558460007fddf252ad1be2c89b69c2b068fc378daa952ba7f163c4a11628f55a4df523b3ef60405180614a4689829190602083019252565b0390a360405193845216918060208101612d66565b60405162461bcd60e51b815260206004820152601f60248201527f45524332303a206d696e7420746f20746865207a65726f2061646472657373006044820152606490fd5b61dead9350614995565b508051602914614966565b600103614ac55761082493614be5565b60405162461bcd60e51b815260206004820152601c60248201527f4f4654436f72653a20756e6b6e6f776e207061636b65742074797065000000006044820152606490fd5b15614b1157565b60405162461bcd60e51b815260206004820152601960248201527f4f4654436f72653a20616d6f756e7420746f6f20736d616c6c000000000000006044820152606490fd5b989796929394614bb5956001600160401b03614b9160e099958d61ffff6001600160a01b03971690528d61010090816020820152019061064c565b961660408c015260608b015216608089015260a088015286820360c088015261064c565b930152565b6001600160401b03614bda6040939695949660608452606084019061064c565b951660208201520152565b9091614bf084614ff8565b9091614c1a61181d87611805614c148b61ffff166000526007602052604060002090565b8c610f68565b91614c36614c266152cb565b6001600160401b03809416614eda565b9288888b8315614d32575b505050853b15614ce75794614c889694614554948a94614546948d99600014614ce05750505a925b5a978b6040519a8b9863757fea4d60e11b60208b015260248a01614b56565b9015614cd5575090614cd061ffff928560207fb8890edbfc1c74692f527444645f95489c3703cc2df42e4a366f5d06fa6cd88496975191012090604051948594169684614bba565b0390a2565b92610824949261457c565b1692614c69565b50506040516001600160a01b039094168452507f9aedf5fdba8716db3b6705ca00150643309995d4f818a249ed6dde6677e7792d975091955085945050602084019250614627915050565b906118056119c9926119c389614d4c614d61979b3061521e565b9961ffff166000526007602052604060002090565b88888b614c41565b60065460ff1615614db65760228251106116175761ffff602261082493015191166000526002602052614da9604060002060008052602052604060002090565b54906115e2821515614dbe565b505161169857565b15614dc557565b60405162461bcd60e51b815260206004820152601a60248201527f4c7a4170703a206d696e4761734c696d6974206e6f74207365740000000000006044820152606490fd5b15614e1157565b60405162461bcd60e51b815260206004820152601b60248201527f4c7a4170703a20676173206c696d697420697320746f6f206c6f7700000000006044820152606490fd5b634e487b7160e01b600052601260045260246000fd5b614e746152cb565b908115614ed557046001600160401b0390818111614e90571690565b60405162461bcd60e51b815260206004820152601a60248201527f4f4654436f72653a20616d6f756e745344206f766572666c6f770000000000006044820152606490fd5b614e56565b81810292918115918404141715610cf057565b614ef56152cb565b8015614ed557810690818103908111610cf05791565b90604051916000602084015260218301526001600160401b0360c01b9060c01b166041820152602981526106828161098a565b15614f4557565b60405162461bcd60e51b815260206004820152601860248201527f4f4654436f72653a20696e76616c6964207061796c6f616400000000000000006044820152606490fd5b9392607192610682946001600160a01b03604051978895600160f81b602088015260218701526001600160401b0360c01b809460c01b16604187015216604985015260c01b166069830152614fe88151809260208686019101610629565b81010360518101845201826109c0565b90615010600160ff61500985615553565b1614614f3e565b615019826154fb565b906150238361559e565b90604984511061509d5760498401519360518151106150585761505560518201519161504f8151613954565b90615477565b91565b60405162461bcd60e51b815260206004820152601460248201527f746f55696e7436345f6f75744f66426f756e64730000000000000000000000006044820152606490fd5b60405162461bcd60e51b815260206004820152601560248201527f746f427974657333325f6f75744f66426f756e647300000000000000000000006044820152606490fd5b6001600160a01b0381163381036151b7575b8015615168578161512b8461511e6000956001600160a01b03166000526008602052604060002090565b54612d1b828210156151c7565b5561513983600a5403600a55565b6040518381527fddf252ad1be2c89b69c2b068fc378daa952ba7f163c4a11628f55a4df523b3ef90602090a390565b60405162461bcd60e51b815260206004820152602160248201527f45524332303a206275726e2066726f6d20746865207a65726f206164647265736044820152607360f81b6064820152608490fd5b6151c2833384612eeb565b6150f4565b156151ce57565b60405162461bcd60e51b815260206004820152602260248201527f45524332303a206275726e20616d6f756e7420657863656564732062616c616e604482015261636560f01b6064820152608490fd5b906001600160a01b038216918215614a5b57600a5490828201809211610cf0576000926152856020927fddf252ad1be2c89b69c2b068fc378daa952ba7f163c4a11628f55a4df523b3ef94600a556001600160a01b03166000526008602052604060002090565b818154019055604051908152a3565b6106829183916001600160a01b0381163081141590816152c0575b5015612ca157610b54833383612eeb565b9050331415386152af565b6040516303408e4760e41b81526020816004817f00000000000000000000000000000000000000000000000000000000000000006001600160a01b03165afa80156107ff5761ffff9160009161535c575b5016600052600d60205260ff6040600020541661533857600190565b7f000000000000000000000000000000000000000000000000000000000000000090565b615374915060203d81116112d2576112c481836109c0565b3861531c565b1561538157565b60405162461bcd60e51b815260206004820152600e60248201526d736c6963655f6f766572666c6f7760901b6044820152606490fd5b156153be57565b60405162461bcd60e51b8152602060048201526011602482015270736c6963655f6f75744f66426f756e647360781b6044820152606490fd5b61540b8261540481612bc5565b101561537a565b61541882825110156153b7565b81615430575050604051600081526020810160405290565b60405191601f811691821560051b808486010193838501920101905b8084106154645750508252601f01601f191660405290565b909283518152602080910193019061544c565b6154848261540481612bc5565b615499815161549284612bd3565b11156153b7565b816154b1575050604051600081526020810160405290565b60405191601f8116916051831560051b80858701019484860193010101905b8084106154e85750508252601f01601f191660405290565b90928351815260208091019301906154d0565b602181511061550e57602d015160601c90565b60405162461bcd60e51b815260206004820152601560248201527f746f416464726573735f6f75744f66426f756e647300000000000000000000006044820152606490fd5b6001815110615563576001015190565b60405162461bcd60e51b8152602060048201526013602482015272746f55696e74385f6f75744f66426f756e647360681b6044820152606490fd5b6029815110615058576029015190565b90929160008091604051956155c28761096f565b6096875282602088019560a036883760208451940192f1903d90609682116155f0575b6000908286523e9190565b609691506155e556fed81fc9b8523134ed613870ed029d6170cbb73aa6a6bc311b9a642689fb9df59aa2646970667358221220d278012a91dff9cf443147b66aa2139d9d993810216b2350ea6ece98cb81d72c64736f6c63430008120033",
  "linkReferences": {},
  "deployedLinkReferences": {}
}