{
  "_format": "hh-sol-artifact-1",
  "contractName": "BaseTOFTMarketModule",
  "sourceName": "contracts/tOFT/modules/BaseTOFTMarketModule.sol",
  "abi": [
    {
      "inputs": [
        {
          "internalType": "address",
          "name": "_lzEndpoint",
          "type": "address"
        },
        {
          "internalType": "address",
          "name": "_erc20",
          "type": "address"
        },
        {
          "internalType": "contract IYieldBoxBase",
          "name": "_yieldBox",
          "type": "address"
        },
        {
          "internalType": "string",
          "name": "_name",
          "type": "string"
        },
        {
          "internalType": "string",
          "name": "_symbol",
          "type": "string"
        },
        {
          "internalType": "uint8",
          "name": "_decimal",
          "type": "uint8"
        },
        {
          "internalType": "uint256",
          "name": "_hostChainID",
          "type": "uint256"
        }
      ],
      "stateMutability": "nonpayable",
      "type": "constructor"
    },
    {
      "anonymous": false,
      "inputs": [
        {
          "indexed": true,
          "internalType": "address",
          "name": "owner",
          "type": "address"
        },
        {
          "indexed": true,
          "internalType": "address",
          "name": "spender",
          "type": "address"
        },
        {
          "indexed": false,
          "internalType": "uint256",
          "name": "value",
          "type": "uint256"
        }
      ],
      "name": "Approval",
      "type": "event"
    },
    {
      "anonymous": false,
      "inputs": [
        {
          "indexed": true,
          "internalType": "uint16",
          "name": "_srcChainId",
          "type": "uint16"
        },
        {
          "indexed": false,
          "internalType": "bytes",
          "name": "_srcAddress",
          "type": "bytes"
        },
        {
          "indexed": false,
          "internalType": "uint64",
          "name": "_nonce",
          "type": "uint64"
        },
        {
          "indexed": false,
          "internalType": "bytes32",
          "name": "_hash",
          "type": "bytes32"
        }
      ],
      "name": "CallOFTReceivedSuccess",
      "type": "event"
    },
    {
      "anonymous": false,
      "inputs": [
        {
          "indexed": false,
          "internalType": "uint16",
          "name": "_srcChainId",
          "type": "uint16"
        },
        {
          "indexed": false,
          "internalType": "bytes",
          "name": "_srcAddress",
          "type": "bytes"
        },
        {
          "indexed": false,
          "internalType": "uint64",
          "name": "_nonce",
          "type": "uint64"
        },
        {
          "indexed": false,
          "internalType": "bytes",
          "name": "_payload",
          "type": "bytes"
        },
        {
          "indexed": false,
          "internalType": "bytes",
          "name": "_reason",
          "type": "bytes"
        }
      ],
      "name": "MessageFailed",
      "type": "event"
    },
    {
      "anonymous": false,
      "inputs": [
        {
          "indexed": false,
          "internalType": "address",
          "name": "_address",
          "type": "address"
        }
      ],
      "name": "NonContractAddress",
      "type": "event"
    },
    {
      "anonymous": false,
      "inputs": [
        {
          "indexed": true,
          "internalType": "address",
          "name": "previousOwner",
          "type": "address"
        },
        {
          "indexed": true,
          "internalType": "address",
          "name": "newOwner",
          "type": "address"
        }
      ],
      "name": "OwnershipTransferred",
      "type": "event"
    },
    {
      "anonymous": false,
      "inputs": [
        {
          "indexed": true,
          "internalType": "uint16",
          "name": "_srcChainId",
          "type": "uint16"
        },
        {
          "indexed": true,
          "internalType": "address",
          "name": "_to",
          "type": "address"
        },
        {
          "indexed": false,
          "internalType": "uint256",
          "name": "_amount",
          "type": "uint256"
        }
      ],
      "name": "ReceiveFromChain",
      "type": "event"
    },
    {
      "anonymous": false,
      "inputs": [
        {
          "indexed": false,
          "internalType": "uint16",
          "name": "_srcChainId",
          "type": "uint16"
        },
        {
          "indexed": false,
          "internalType": "bytes",
          "name": "_srcAddress",
          "type": "bytes"
        },
        {
          "indexed": false,
          "internalType": "uint64",
          "name": "_nonce",
          "type": "uint64"
        },
        {
          "indexed": false,
          "internalType": "bytes32",
          "name": "_payloadHash",
          "type": "bytes32"
        }
      ],
      "name": "RetryMessageSuccess",
      "type": "event"
    },
    {
      "anonymous": false,
      "inputs": [
        {
          "indexed": true,
          "internalType": "uint16",
          "name": "_dstChainId",
          "type": "uint16"
        },
        {
          "indexed": true,
          "internalType": "address",
          "name": "_from",
          "type": "address"
        },
        {
          "indexed": true,
          "internalType": "bytes32",
          "name": "_toAddress",
          "type": "bytes32"
        },
        {
          "indexed": false,
          "internalType": "uint256",
          "name": "_amount",
          "type": "uint256"
        }
      ],
      "name": "SendToChain",
      "type": "event"
    },
    {
      "anonymous": false,
      "inputs": [
        {
          "indexed": false,
          "internalType": "uint16",
          "name": "_dstChainId",
          "type": "uint16"
        },
        {
          "indexed": false,
          "internalType": "uint16",
          "name": "_type",
          "type": "uint16"
        },
        {
          "indexed": false,
          "internalType": "uint256",
          "name": "_minDstGas",
          "type": "uint256"
        }
      ],
      "name": "SetMinDstGas",
      "type": "event"
    },
    {
      "anonymous": false,
      "inputs": [
        {
          "indexed": false,
          "internalType": "address",
          "name": "precrime",
          "type": "address"
        }
      ],
      "name": "SetPrecrime",
      "type": "event"
    },
    {
      "anonymous": false,
      "inputs": [
        {
          "indexed": false,
          "internalType": "uint16",
          "name": "_remoteChainId",
          "type": "uint16"
        },
        {
          "indexed": false,
          "internalType": "bytes",
          "name": "_path",
          "type": "bytes"
        }
      ],
      "name": "SetTrustedRemote",
      "type": "event"
    },
    {
      "anonymous": false,
      "inputs": [
        {
          "indexed": false,
          "internalType": "uint16",
          "name": "_remoteChainId",
          "type": "uint16"
        },
        {
          "indexed": false,
          "internalType": "bytes",
          "name": "_remoteAddress",
          "type": "bytes"
        }
      ],
      "name": "SetTrustedRemoteAddress",
      "type": "event"
    },
    {
      "anonymous": false,
      "inputs": [
        {
          "indexed": false,
          "internalType": "bool",
          "name": "_useCustomAdapterParams",
          "type": "bool"
        }
      ],
      "name": "SetUseCustomAdapterParams",
      "type": "event"
    },
    {
      "anonymous": false,
      "inputs": [
        {
          "indexed": true,
          "internalType": "address",
          "name": "from",
          "type": "address"
        },
        {
          "indexed": true,
          "internalType": "address",
          "name": "to",
          "type": "address"
        },
        {
          "indexed": false,
          "internalType": "uint256",
          "name": "value",
          "type": "uint256"
        }
      ],
      "name": "Transfer",
      "type": "event"
    },
    {
      "inputs": [],
      "name": "DEFAULT_PAYLOAD_SIZE_LIMIT",
      "outputs": [
        {
          "internalType": "uint256",
          "name": "",
          "type": "uint256"
        }
      ],
      "stateMutability": "view",
      "type": "function"
    },
    {
      "inputs": [],
      "name": "NO_EXTRA_GAS",
      "outputs": [
        {
          "internalType": "uint256",
          "name": "",
          "type": "uint256"
        }
      ],
      "stateMutability": "view",
      "type": "function"
    },
    {
      "inputs": [],
      "name": "PT_SEND",
      "outputs": [
        {
          "internalType": "uint8",
          "name": "",
          "type": "uint8"
        }
      ],
      "stateMutability": "view",
      "type": "function"
    },
    {
      "inputs": [],
      "name": "PT_SEND_AND_CALL",
      "outputs": [
        {
          "internalType": "uint8",
          "name": "",
          "type": "uint8"
        }
      ],
      "stateMutability": "view",
      "type": "function"
    },
    {
      "inputs": [
        {
          "internalType": "address",
          "name": "owner",
          "type": "address"
        },
        {
          "internalType": "address",
          "name": "spender",
          "type": "address"
        }
      ],
      "name": "allowance",
      "outputs": [
        {
          "internalType": "uint256",
          "name": "",
          "type": "uint256"
        }
      ],
      "stateMutability": "view",
      "type": "function"
    },
    {
      "inputs": [
        {
          "internalType": "address",
          "name": "spender",
          "type": "address"
        },
        {
          "internalType": "uint256",
          "name": "amount",
          "type": "uint256"
        }
      ],
      "name": "approve",
      "outputs": [
        {
          "internalType": "bool",
          "name": "",
          "type": "bool"
        }
      ],
      "stateMutability": "nonpayable",
      "type": "function"
    },
    {
      "inputs": [
        {
          "internalType": "address",
          "name": "account",
          "type": "address"
        }
      ],
      "name": "balanceOf",
      "outputs": [
        {
          "internalType": "uint256",
          "name": "",
          "type": "uint256"
        }
      ],
      "stateMutability": "view",
      "type": "function"
    },
    {
      "inputs": [
        {
          "internalType": "uint16",
          "name": "_srcChainId",
          "type": "uint16"
        },
        {
          "internalType": "bytes",
          "name": "_payload",
          "type": "bytes"
        }
      ],
      "name": "borrow",
      "outputs": [],
      "stateMutability": "payable",
      "type": "function"
    },
    {
      "inputs": [
        {
          "internalType": "uint16",
          "name": "_srcChainId",
          "type": "uint16"
        },
        {
          "internalType": "bytes",
          "name": "_srcAddress",
          "type": "bytes"
        },
        {
          "internalType": "uint64",
          "name": "_nonce",
          "type": "uint64"
        },
        {
          "internalType": "bytes32",
          "name": "_from",
          "type": "bytes32"
        },
        {
          "internalType": "address",
          "name": "_to",
          "type": "address"
        },
        {
          "internalType": "uint256",
          "name": "_amount",
          "type": "uint256"
        },
        {
          "internalType": "bytes",
          "name": "_payload",
          "type": "bytes"
        },
        {
          "internalType": "uint256",
          "name": "_gasForCall",
          "type": "uint256"
        }
      ],
      "name": "callOnOFTReceived",
      "outputs": [],
      "stateMutability": "nonpayable",
      "type": "function"
    },
    {
      "inputs": [],
      "name": "circulatingSupply",
      "outputs": [
        {
          "internalType": "uint256",
          "name": "",
          "type": "uint256"
        }
      ],
      "stateMutability": "view",
      "type": "function"
    },
    {
      "inputs": [
        {
          "internalType": "uint16",
          "name": "",
          "type": "uint16"
        },
        {
          "internalType": "bytes",
          "name": "",
          "type": "bytes"
        },
        {
          "internalType": "uint64",
          "name": "",
          "type": "uint64"
        }
      ],
      "name": "creditedPackets",
      "outputs": [
        {
          "internalType": "bool",
          "name": "",
          "type": "bool"
        }
      ],
      "stateMutability": "view",
      "type": "function"
    },
    {
      "inputs": [],
      "name": "decimals",
      "outputs": [
        {
          "internalType": "uint8",
          "name": "",
          "type": "uint8"
        }
      ],
      "stateMutability": "view",
      "type": "function"
    },
    {
      "inputs": [
        {
          "internalType": "address",
          "name": "spender",
          "type": "address"
        },
        {
          "internalType": "uint256",
          "name": "subtractedValue",
          "type": "uint256"
        }
      ],
      "name": "decreaseAllowance",
      "outputs": [
        {
          "internalType": "bool",
          "name": "",
          "type": "bool"
        }
      ],
      "stateMutability": "nonpayable",
      "type": "function"
    },
    {
      "inputs": [],
      "name": "erc20",
      "outputs": [
        {
          "internalType": "address",
          "name": "",
          "type": "address"
        }
      ],
      "stateMutability": "view",
      "type": "function"
    },
    {
      "inputs": [
        {
          "internalType": "uint16",
          "name": "_dstChainId",
          "type": "uint16"
        },
        {
          "internalType": "bytes32",
          "name": "_toAddress",
          "type": "bytes32"
        },
        {
          "internalType": "uint256",
          "name": "_amount",
          "type": "uint256"
        },
        {
          "internalType": "bytes",
          "name": "_payload",
          "type": "bytes"
        },
        {
          "internalType": "uint64",
          "name": "_dstGasForCall",
          "type": "uint64"
        },
        {
          "internalType": "bool",
          "name": "_useZro",
          "type": "bool"
        },
        {
          "internalType": "bytes",
          "name": "_adapterParams",
          "type": "bytes"
        }
      ],
      "name": "estimateSendAndCallFee",
      "outputs": [
        {
          "internalType": "uint256",
          "name": "nativeFee",
          "type": "uint256"
        },
        {
          "internalType": "uint256",
          "name": "zroFee",
          "type": "uint256"
        }
      ],
      "stateMutability": "view",
      "type": "function"
    },
    {
      "inputs": [
        {
          "internalType": "uint16",
          "name": "_dstChainId",
          "type": "uint16"
        },
        {
          "internalType": "bytes32",
          "name": "_toAddress",
          "type": "bytes32"
        },
        {
          "internalType": "uint256",
          "name": "_amount",
          "type": "uint256"
        },
        {
          "internalType": "bool",
          "name": "_useZro",
          "type": "bool"
        },
        {
          "internalType": "bytes",
          "name": "_adapterParams",
          "type": "bytes"
        }
      ],
      "name": "estimateSendFee",
      "outputs": [
        {
          "internalType": "uint256",
          "name": "nativeFee",
          "type": "uint256"
        },
        {
          "internalType": "uint256",
          "name": "zroFee",
          "type": "uint256"
        }
      ],
      "stateMutability": "view",
      "type": "function"
    },
    {
      "inputs": [
        {
          "internalType": "uint16",
          "name": "",
          "type": "uint16"
        },
        {
          "internalType": "bytes",
          "name": "",
          "type": "bytes"
        },
        {
          "internalType": "uint64",
          "name": "",
          "type": "uint64"
        }
      ],
      "name": "failedMessages",
      "outputs": [
        {
          "internalType": "bytes32",
          "name": "",
          "type": "bytes32"
        }
      ],
      "stateMutability": "view",
      "type": "function"
    },
    {
      "inputs": [
        {
          "internalType": "uint16",
          "name": "_srcChainId",
          "type": "uint16"
        },
        {
          "internalType": "bytes",
          "name": "_srcAddress",
          "type": "bytes"
        }
      ],
      "name": "forceResumeReceive",
      "outputs": [],
      "stateMutability": "nonpayable",
      "type": "function"
    },
    {
      "inputs": [
        {
          "internalType": "uint16",
          "name": "_version",
          "type": "uint16"
        },
        {
          "internalType": "uint16",
          "name": "_chainId",
          "type": "uint16"
        },
        {
          "internalType": "address",
          "name": "",
          "type": "address"
        },
        {
          "internalType": "uint256",
          "name": "_configType",
          "type": "uint256"
        }
      ],
      "name": "getConfig",
      "outputs": [
        {
          "internalType": "bytes",
          "name": "",
          "type": "bytes"
        }
      ],
      "stateMutability": "view",
      "type": "function"
    },
    {
      "inputs": [
        {
          "internalType": "uint16",
          "name": "_remoteChainId",
          "type": "uint16"
        }
      ],
      "name": "getTrustedRemoteAddress",
      "outputs": [
        {
          "internalType": "bytes",
          "name": "",
          "type": "bytes"
        }
      ],
      "stateMutability": "view",
      "type": "function"
    },
    {
      "inputs": [],
      "name": "hostChainID",
      "outputs": [
        {
          "internalType": "uint256",
          "name": "",
          "type": "uint256"
        }
      ],
      "stateMutability": "view",
      "type": "function"
    },
    {
      "inputs": [
        {
          "internalType": "address",
          "name": "spender",
          "type": "address"
        },
        {
          "internalType": "uint256",
          "name": "addedValue",
          "type": "uint256"
        }
      ],
      "name": "increaseAllowance",
      "outputs": [
        {
          "internalType": "bool",
          "name": "",
          "type": "bool"
        }
      ],
      "stateMutability": "nonpayable",
      "type": "function"
    },
    {
      "inputs": [
        {
          "internalType": "uint16",
          "name": "_srcChainId",
          "type": "uint16"
        },
        {
          "internalType": "bytes",
          "name": "_srcAddress",
          "type": "bytes"
        }
      ],
      "name": "isTrustedRemote",
      "outputs": [
        {
          "internalType": "bool",
          "name": "",
          "type": "bool"
        }
      ],
      "stateMutability": "view",
      "type": "function"
    },
    {
      "inputs": [],
      "name": "lzEndpoint",
      "outputs": [
        {
          "internalType": "contract ILayerZeroEndpoint",
          "name": "",
          "type": "address"
        }
      ],
      "stateMutability": "view",
      "type": "function"
    },
    {
      "inputs": [
        {
          "internalType": "uint16",
          "name": "_srcChainId",
          "type": "uint16"
        },
        {
          "internalType": "bytes",
          "name": "_srcAddress",
          "type": "bytes"
        },
        {
          "internalType": "uint64",
          "name": "_nonce",
          "type": "uint64"
        },
        {
          "internalType": "bytes",
          "name": "_payload",
          "type": "bytes"
        }
      ],
      "name": "lzReceive",
      "outputs": [],
      "stateMutability": "nonpayable",
      "type": "function"
    },
    {
      "inputs": [
        {
          "internalType": "uint16",
          "name": "",
          "type": "uint16"
        },
        {
          "internalType": "uint16",
          "name": "",
          "type": "uint16"
        }
      ],
      "name": "minDstGasLookup",
      "outputs": [
        {
          "internalType": "uint256",
          "name": "",
          "type": "uint256"
        }
      ],
      "stateMutability": "view",
      "type": "function"
    },
    {
      "inputs": [],
      "name": "name",
      "outputs": [
        {
          "internalType": "string",
          "name": "",
          "type": "string"
        }
      ],
      "stateMutability": "view",
      "type": "function"
    },
    {
      "inputs": [
        {
          "internalType": "uint16",
          "name": "_srcChainId",
          "type": "uint16"
        },
        {
          "internalType": "bytes",
          "name": "_srcAddress",
          "type": "bytes"
        },
        {
          "internalType": "uint64",
          "name": "_nonce",
          "type": "uint64"
        },
        {
          "internalType": "bytes",
          "name": "_payload",
          "type": "bytes"
        }
      ],
      "name": "nonblockingLzReceive",
      "outputs": [],
      "stateMutability": "nonpayable",
      "type": "function"
    },
    {
      "inputs": [],
      "name": "owner",
      "outputs": [
        {
          "internalType": "address",
          "name": "",
          "type": "address"
        }
      ],
      "stateMutability": "view",
      "type": "function"
    },
    {
      "inputs": [
        {
          "internalType": "uint16",
          "name": "",
          "type": "uint16"
        }
      ],
      "name": "payloadSizeLimitLookup",
      "outputs": [
        {
          "internalType": "uint256",
          "name": "",
          "type": "uint256"
        }
      ],
      "stateMutability": "view",
      "type": "function"
    },
    {
      "inputs": [],
      "name": "precrime",
      "outputs": [
        {
          "internalType": "address",
          "name": "",
          "type": "address"
        }
      ],
      "stateMutability": "view",
      "type": "function"
    },
    {
      "inputs": [],
      "name": "renounceOwnership",
      "outputs": [],
      "stateMutability": "nonpayable",
      "type": "function"
    },
    {
      "inputs": [
        {
          "internalType": "uint16",
          "name": "_srcChainId",
          "type": "uint16"
        },
        {
          "internalType": "bytes",
          "name": "_srcAddress",
          "type": "bytes"
        },
        {
          "internalType": "uint64",
          "name": "_nonce",
          "type": "uint64"
        },
        {
          "internalType": "bytes",
          "name": "_payload",
          "type": "bytes"
        }
      ],
      "name": "retryMessage",
      "outputs": [],
      "stateMutability": "payable",
      "type": "function"
    },
    {
      "inputs": [
        {
          "internalType": "address",
          "name": "_from",
          "type": "address"
        },
        {
          "internalType": "uint16",
          "name": "_dstChainId",
          "type": "uint16"
        },
        {
          "internalType": "bytes32",
          "name": "_toAddress",
          "type": "bytes32"
        },
        {
          "internalType": "uint256",
          "name": "_amount",
          "type": "uint256"
        },
        {
          "internalType": "bytes",
          "name": "_payload",
          "type": "bytes"
        },
        {
          "internalType": "uint64",
          "name": "_dstGasForCall",
          "type": "uint64"
        },
        {
          "components": [
            {
              "internalType": "address payable",
              "name": "refundAddress",
              "type": "address"
            },
            {
              "internalType": "address",
              "name": "zroPaymentAddress",
              "type": "address"
            },
            {
              "internalType": "bytes",
              "name": "adapterParams",
              "type": "bytes"
            }
          ],
          "internalType": "struct ICommonOFT.LzCallParams",
          "name": "_callParams",
          "type": "tuple"
        }
      ],
      "name": "sendAndCall",
      "outputs": [],
      "stateMutability": "payable",
      "type": "function"
    },
    {
      "inputs": [
        {
          "internalType": "address",
          "name": "_from",
          "type": "address"
        },
        {
          "internalType": "uint16",
          "name": "_dstChainId",
          "type": "uint16"
        },
        {
          "internalType": "bytes32",
          "name": "_toAddress",
          "type": "bytes32"
        },
        {
          "internalType": "uint256",
          "name": "_amount",
          "type": "uint256"
        },
        {
          "components": [
            {
              "internalType": "address payable",
              "name": "refundAddress",
              "type": "address"
            },
            {
              "internalType": "address",
              "name": "zroPaymentAddress",
              "type": "address"
            },
            {
              "internalType": "bytes",
              "name": "adapterParams",
              "type": "bytes"
            }
          ],
          "internalType": "struct ICommonOFT.LzCallParams",
          "name": "_callParams",
          "type": "tuple"
        }
      ],
      "name": "sendFrom",
      "outputs": [],
      "stateMutability": "payable",
      "type": "function"
    },
    {
      "inputs": [
        {
          "internalType": "address",
          "name": "_from",
          "type": "address"
        },
        {
          "internalType": "address",
          "name": "_to",
          "type": "address"
        },
        {
          "internalType": "uint16",
          "name": "lzDstChainId",
          "type": "uint16"
        },
        {
          "internalType": "bytes",
          "name": "airdropAdapterParams",
          "type": "bytes"
        },
        {
          "components": [
            {
              "internalType": "uint256",
              "name": "amount",
              "type": "uint256"
            },
            {
              "internalType": "uint256",
              "name": "borrowAmount",
              "type": "uint256"
            },
            {
              "internalType": "address",
              "name": "marketHelper",
              "type": "address"
            },
            {
              "internalType": "address",
              "name": "market",
              "type": "address"
            }
          ],
          "internalType": "struct ITapiocaOFT.IBorrowParams",
          "name": "borrowParams",
          "type": "tuple"
        },
        {
          "components": [
            {
              "internalType": "bool",
              "name": "withdraw",
              "type": "bool"
            },
            {
              "internalType": "uint256",
              "name": "withdrawLzFeeAmount",
              "type": "uint256"
            },
            {
              "internalType": "bool",
              "name": "withdrawOnOtherChain",
              "type": "bool"
            },
            {
              "internalType": "uint16",
              "name": "withdrawLzChainId",
              "type": "uint16"
            },
            {
              "internalType": "bytes",
              "name": "withdrawAdapterParams",
              "type": "bytes"
            }
          ],
          "internalType": "struct ITapiocaOFT.IWithdrawParams",
          "name": "withdrawParams",
          "type": "tuple"
        },
        {
          "components": [
            {
              "internalType": "uint256",
              "name": "extraGasLimit",
              "type": "uint256"
            },
            {
              "internalType": "address",
              "name": "zroPaymentAddress",
              "type": "address"
            }
          ],
          "internalType": "struct ITapiocaOFT.ISendOptions",
          "name": "options",
          "type": "tuple"
        },
        {
          "components": [
            {
              "internalType": "bool",
              "name": "allowFailure",
              "type": "bool"
            },
            {
              "internalType": "address",
              "name": "target",
              "type": "address"
            },
            {
              "internalType": "bool",
              "name": "permitBorrow",
              "type": "bool"
            },
            {
              "internalType": "address",
              "name": "owner",
              "type": "address"
            },
            {
              "internalType": "address",
              "name": "spender",
              "type": "address"
            },
            {
              "internalType": "uint256",
              "name": "value",
              "type": "uint256"
            },
            {
              "internalType": "uint256",
              "name": "deadline",
              "type": "uint256"
            },
            {
              "internalType": "uint8",
              "name": "v",
              "type": "uint8"
            },
            {
              "internalType": "bytes32",
              "name": "r",
              "type": "bytes32"
            },
            {
              "internalType": "bytes32",
              "name": "s",
              "type": "bytes32"
            }
          ],
          "internalType": "struct ITapiocaOFT.IApproval[]",
          "name": "approvals",
          "type": "tuple[]"
        }
      ],
      "name": "sendToYBAndBorrow",
      "outputs": [],
      "stateMutability": "payable",
      "type": "function"
    },
    {
      "inputs": [
        {
          "internalType": "uint16",
          "name": "_version",
          "type": "uint16"
        },
        {
          "internalType": "uint16",
          "name": "_chainId",
          "type": "uint16"
        },
        {
          "internalType": "uint256",
          "name": "_configType",
          "type": "uint256"
        },
        {
          "internalType": "bytes",
          "name": "_config",
          "type": "bytes"
        }
      ],
      "name": "setConfig",
      "outputs": [],
      "stateMutability": "nonpayable",
      "type": "function"
    },
    {
      "inputs": [
        {
          "internalType": "uint16",
          "name": "_dstChainId",
          "type": "uint16"
        },
        {
          "internalType": "uint16",
          "name": "_packetType",
          "type": "uint16"
        },
        {
          "internalType": "uint256",
          "name": "_minGas",
          "type": "uint256"
        }
      ],
      "name": "setMinDstGas",
      "outputs": [],
      "stateMutability": "nonpayable",
      "type": "function"
    },
    {
      "inputs": [
        {
          "internalType": "uint16",
          "name": "_dstChainId",
          "type": "uint16"
        },
        {
          "internalType": "uint256",
          "name": "_size",
          "type": "uint256"
        }
      ],
      "name": "setPayloadSizeLimit",
      "outputs": [],
      "stateMutability": "nonpayable",
      "type": "function"
    },
    {
      "inputs": [
        {
          "internalType": "address",
          "name": "_precrime",
          "type": "address"
        }
      ],
      "name": "setPrecrime",
      "outputs": [],
      "stateMutability": "nonpayable",
      "type": "function"
    },
    {
      "inputs": [
        {
          "internalType": "uint16",
          "name": "_version",
          "type": "uint16"
        }
      ],
      "name": "setReceiveVersion",
      "outputs": [],
      "stateMutability": "nonpayable",
      "type": "function"
    },
    {
      "inputs": [
        {
          "internalType": "uint16",
          "name": "_version",
          "type": "uint16"
        }
      ],
      "name": "setSendVersion",
      "outputs": [],
      "stateMutability": "nonpayable",
      "type": "function"
    },
    {
      "inputs": [
        {
          "internalType": "uint16",
          "name": "_srcChainId",
          "type": "uint16"
        },
        {
          "internalType": "bytes",
          "name": "_path",
          "type": "bytes"
        }
      ],
      "name": "setTrustedRemote",
      "outputs": [],
      "stateMutability": "nonpayable",
      "type": "function"
    },
    {
      "inputs": [
        {
          "internalType": "uint16",
          "name": "_remoteChainId",
          "type": "uint16"
        },
        {
          "internalType": "bytes",
          "name": "_remoteAddress",
          "type": "bytes"
        }
      ],
      "name": "setTrustedRemoteAddress",
      "outputs": [],
      "stateMutability": "nonpayable",
      "type": "function"
    },
    {
      "inputs": [
        {
          "internalType": "bool",
          "name": "_useCustomAdapterParams",
          "type": "bool"
        }
      ],
      "name": "setUseCustomAdapterParams",
      "outputs": [],
      "stateMutability": "nonpayable",
      "type": "function"
    },
    {
      "inputs": [],
      "name": "sharedDecimals",
      "outputs": [
        {
          "internalType": "uint8",
          "name": "",
          "type": "uint8"
        }
      ],
      "stateMutability": "view",
      "type": "function"
    },
    {
      "inputs": [
        {
          "internalType": "bytes4",
          "name": "interfaceId",
          "type": "bytes4"
        }
      ],
      "name": "supportsInterface",
      "outputs": [
        {
          "internalType": "bool",
          "name": "",
          "type": "bool"
        }
      ],
      "stateMutability": "view",
      "type": "function"
    },
    {
      "inputs": [],
      "name": "symbol",
      "outputs": [
        {
          "internalType": "string",
          "name": "",
          "type": "string"
        }
      ],
      "stateMutability": "view",
      "type": "function"
    },
    {
      "inputs": [],
      "name": "token",
      "outputs": [
        {
          "internalType": "address",
          "name": "",
          "type": "address"
        }
      ],
      "stateMutability": "view",
      "type": "function"
    },
    {
      "inputs": [],
      "name": "totalSupply",
      "outputs": [
        {
          "internalType": "uint256",
          "name": "",
          "type": "uint256"
        }
      ],
      "stateMutability": "view",
      "type": "function"
    },
    {
      "inputs": [
        {
          "internalType": "address",
          "name": "to",
          "type": "address"
        },
        {
          "internalType": "uint256",
          "name": "amount",
          "type": "uint256"
        }
      ],
      "name": "transfer",
      "outputs": [
        {
          "internalType": "bool",
          "name": "",
          "type": "bool"
        }
      ],
      "stateMutability": "nonpayable",
      "type": "function"
    },
    {
      "inputs": [
        {
          "internalType": "address",
          "name": "from",
          "type": "address"
        },
        {
          "internalType": "address",
          "name": "to",
          "type": "address"
        },
        {
          "internalType": "uint256",
          "name": "amount",
          "type": "uint256"
        }
      ],
      "name": "transferFrom",
      "outputs": [
        {
          "internalType": "bool",
          "name": "",
          "type": "bool"
        }
      ],
      "stateMutability": "nonpayable",
      "type": "function"
    },
    {
      "inputs": [
        {
          "internalType": "address",
          "name": "newOwner",
          "type": "address"
        }
      ],
      "name": "transferOwnership",
      "outputs": [],
      "stateMutability": "nonpayable",
      "type": "function"
    },
    {
      "inputs": [
        {
          "internalType": "uint16",
          "name": "",
          "type": "uint16"
        }
      ],
      "name": "trustedRemoteLookup",
      "outputs": [
        {
          "internalType": "bytes",
          "name": "",
          "type": "bytes"
        }
      ],
      "stateMutability": "view",
      "type": "function"
    },
    {
      "inputs": [],
      "name": "useCustomAdapterParams",
      "outputs": [
        {
          "internalType": "bool",
          "name": "",
          "type": "bool"
        }
      ],
      "stateMutability": "view",
      "type": "function"
    },
    {
      "inputs": [],
      "name": "yieldBox",
      "outputs": [
        {
          "internalType": "contract IYieldBoxBase",
          "name": "",
          "type": "address"
        }
      ],
      "stateMutability": "view",
      "type": "function"
    },
    {
      "stateMutability": "payable",
      "type": "receive"
    }
  ],
  "bytecode": "0x60e060409080825234620005765762004df780380380916200002282856200057b565b833981019060e08183031262000576576200003d81620005b5565b906020906200004e828201620005b5565b818601516001600160a01b0380821696909291879003620005765760608401516001600160401b0395908681116200057657826200008e918701620005ef565b916080860151908782116200057657620000aa918701620005ef565b9060a086015160ff811696878203620005765760c00151978b5180956a546170696f63614f46542d60a81b85830152620000ee8151809287602b86019101620005ca565b8101039462000108602b600b97888101845201826200057b565b607f8d518096601d60fa1b878301526200012c8151809289602186019101620005ca565b810103936200014660216001968781018a5201886200057b565b841c16946000968988549d60018060a01b03199e8f33908216178b55823391167f8be0079c531659141344cd1fd0a4f28419497f9722a3daafe3b4186f6b6457e08c80a3166080528660a052825184811162000562578154938685811c9516801562000557575b8886101462000543578190601f95868111620004f0575b5088908683116001146200048c578b9262000480575b5050600019600383901b1c191690861b1790555b80519283116200046c57600c548481811c9116801562000461575b868210146200044d5782811162000404575b50849183116001146200039e57928293918392889462000392575b50501b916000199060031b1c191617600c555b601282116200033f575060120360ff81116200032b5760ff1690604d8211620003175750600a0a60c0521683600e541617600e5560ff196010541617601055600f55600d541617600d55516147ac90816200064b823960805181818161046a015281816107510152818161088101528181610c6701528181610e2f01528181611af801528181611c080152818161240d01528181612b5e0152818161348101526138dd015260a05181611580015260c051818181613b2401528181613dd20152818161404301526140dd0152f35b634e487b7160e01b81526011600452602490fd5b634e487b7160e01b82526011600452602482fd5b6084908a519062461bcd60e51b82526004820152602760248201527f4f46543a20736861726564446563696d616c73206d757374206265203c3d20646044820152666563696d616c7360c81b6064820152fd5b01519250388062000236565b600c8752848720919083601f198116895b8888838310620003ec5750505010620003d2575b505050811b01600c5562000249565b015160001960f88460031b161c19169055388080620003c3565b868601518855909601959485019487935001620003af565b600c88528588208380860160051c82019288871062000443575b0160051c019085905b828110620004375750506200021b565b89815501859062000427565b925081926200041e565b634e487b7160e01b88526022600452602488fd5b90607f169062000209565b634e487b7160e01b87526041600452602487fd5b015190503880620001da565b848c52898c208994509190601f1984168d5b8c828210620004d95750508411620004bf575b505050811b019055620001ee565b015160001960f88460031b161c19169055388080620004b1565b8385015186558c979095019493840193016200049e565b909150838b52888b208680850160051c8201928b861062000539575b918a91869594930160051c01915b8281106200052a575050620001c4565b8d81558594508a91016200051a565b925081926200050c565b634e487b7160e01b8a52602260045260248afd5b94607f1694620001ad565b634e487b7160e01b89526041600452602489fd5b600080fd5b601f909101601f19168101906001600160401b038211908210176200059f57604052565b634e487b7160e01b600052604160045260246000fd5b51906001600160a01b03821682036200057657565b60005b838110620005de5750506000910152565b8181015183820152602001620005cd565b81601f82011215620005765780516001600160401b0381116200059f576040519262000626601f8301601f1916602001856200057b565b818452602082840101116200057657620006479160208085019101620005ca565b9056fe6080604052600436101561001b575b361561001957600080fd5b005b60003560e01c80621d35671461038f57806254af3a1461038a57806301ffc9a71461038557806306fdde031461038057806307e0db171461037b578063095ea7b3146103765780630df374831461037157806310ddb1371461036c578063146110721461036757806318160ddd1461030357806323b872dd14610362578063313ce5671461035d578063365260b41461035857806339509351146103535780633d8b38f61461034e5780633f1f4fa41461034957806342d65a8d14610344578063447705151461033f5780634c42899a1461033f5780635b8c41e61461033a57806366ad5c8a14610335578063695ef6bf1461033057806370a082311461032b578063715018a6146103265780637533d7881461032157806376203b481461031c578063785e9e8614610317578063857749b0146103125780638cfd8f5c1461030d5780638da5cb5b146103085780639358928b14610303578063950c8a74146102fe57806395d89b41146102f95780639bdb9812146102f45780639f38369a146102ef578063a457c2d7146102ea578063a4c51df5146102e5578063a6c3d165146102e0578063a9059cbb146102db578063b353aaa7146102d6578063baf3292d146102d1578063c4461834146102cc578063cbed8b9c146102c7578063d1deba1f146102c2578063d43f2802146102bd578063dd62ed3e146102b8578063de406577146102b3578063df2a5b3b146102ae578063e6a20ae6146102a9578063eab45d9c146102a4578063eaffd49a1461029f578063eb8d72b71461029a578063ed629c5c14610295578063f2fde38b14610290578063f5ecbdbc1461028b5763fc0c546a0361000e57612477565b6123a3565b6122dc565b6122b9565b61216f565b6120e6565b612084565b612068565b611f73565b611f4c565b611ef0565b611e4b565b611c85565b611bac565b611b8f565b611b1c565b611ad8565b611aae565b61192b565b611898565b6117d9565b611736565b6116eb565b611644565b61161d565b610b46565b6115f6565b6115a4565b611566565b61153f565b6112e3565b61128c565b611146565b611108565b611013565b610f7f565b610f18565b610e8e565b610e0d565b610dd4565b610d78565b610cdd565b610bd5565b610ba4565b610b64565b6109cf565b61084f565b610810565b6107db565b61071f565b61063a565b610588565b61056a565b61044d565b61ffff8116036103a057565b600080fd5b9181601f840112156103a0578235916001600160401b0383116103a057602083818601950101116103a057565b608435906001600160401b03821682036103a057565b9060806003198301126103a05760043561040181610394565b916001600160401b03906024358281116103a05781610422916004016103a5565b9390939260443581811681036103a057926064359182116103a057610449916004016103a5565b9091565b346103a05761045b366103e8565b91929493906001600160a01b037f000000000000000000000000000000000000000000000000000000000000000016330361051a576104df6104e792610019976104d86104be6104b98a61ffff166000526001602052604060002090565b611271565b8051908184149182610510575b50816104ed575b50613383565b369161097d565b92369161097d565b92613669565b90506104fa36848661097d565b60208151910120906020815191012014386104d2565b15159150386104cb565b60405162461bcd60e51b815260206004820152601e60248201527f4c7a4170703a20696e76616c696420656e64706f696e742063616c6c657200006044820152606490fd5b60009103126103a057565b346103a05760003660031901126103a0576020600f54604051908152f35b346103a05760203660031901126103a05760043563ffffffff60e01b81168091036103a057602090631f7ecdf760e01b81149081156105cd575b506040519015158152f35b6301ffc9a760e01b149050386105c2565b60005b8381106105f15750506000910152565b81810151838201526020016105e1565b9060209161061a815180928185528580860191016105de565b601f01601f1916010190565b906020610637928181520190610601565b90565b346103a05760008060031936011261071c576040519080600b5461065d816111a1565b808552916001918083169081156106f25750600114610697575b6106938561068781870382610921565b60405191829182610626565b0390f35b9250600b83527f0175b7a638427703f0dbe7bb9bbf987a2551717b34e79f33b5b1008d1fa01db95b8284106106da57505050810160200161068782610693610677565b805460208587018101919091529093019281016106bf565b8695506106939693506020925061068794915060ff191682840152151560051b8201019293610677565b80fd5b346103a0576000602036600319011261071c5760043561073e81610394565b610746612492565b816001600160a01b037f00000000000000000000000000000000000000000000000000000000000000001691823b156107b957602461ffff918360405195869485936307e0db1760e01b85521660048401525af180156107b4576107a8575080f35b6107b1906108ee565b80f35b6128ef565b5080fd5b6001600160a01b038116036103a057565b35906107d9826107bd565b565b346103a05760403660031901126103a0576108056004356107fb816107bd565b6024359033612709565b602060405160018152f35b346103a05760403660031901126103a05761ffff60043561083081610394565b610838612492565b166000526003602052602435604060002055600080f35b346103a0576000602036600319011261071c5760043561086e81610394565b610876612492565b816001600160a01b037f00000000000000000000000000000000000000000000000000000000000000001691823b156107b957602461ffff918360405195869485936310ddb13760e01b85521660048401525af180156107b4576107a8575080f35b634e487b7160e01b600052604160045260246000fd5b6001600160401b03811161090157604052565b6108d8565b608081019081106001600160401b0382111761090157604052565b90601f801991011681019081106001600160401b0382111761090157604052565b6040519061014082018281106001600160401b0382111761090157604052565b6001600160401b03811161090157601f01601f191660200190565b92919261098982610962565b916109976040519384610921565b8294818452818301116103a0578281602093846000960137010152565b9080601f830112156103a0578160206106379335910161097d565b60403660031901126103a0576109e6600435610394565b6024356001600160401b0381116103a057610a08610a179136906004016109b4565b60208082518301019101612e40565b80919392955051610b37575b50610a2f845130614438565b6040820151151592610a7a610a49606085015161ffff1690565b610a6c60808601516040519788936001600160a01b038097169160208601612efa565b03601f198101865285610921565b610abd610ab1610ab160408801610aa3610a9b82516001600160a01b031690565b8a51906124ea565b50516001600160a01b031690565b6001600160a01b031690565b91610ad260608701516001600160a01b031690565b93610ae4602088519801519151151590565b95843b156103a057600096610b1292604051998a988997889763411628d960e01b8952169060048801612f2c565b039134905af180156107b457610b2457005b80610b31610019926108ee565b8061055f565b610b409061302f565b38610a23565b346103a05760003660031901126103a0576020600a54604051908152f35b346103a05760603660031901126103a057610805600435610b84816107bd565b602435610b90816107bd565b60443591610b9f833383612836565b6125ec565b346103a05760003660031901126103a057602060405160128152f35b801515036103a057565b35906107d982610bc0565b346103a05760a03660031901126103a057600435610bf281610394565b60643590610bff82610bc0565b608435906001600160401b0382116103a057610c246104d860409336906004016103a5565b90610c5b610c3e610c36604435614041565b602435614112565b928451958694859463040a7bb160e41b8652309060048701613a78565b03816001600160a01b037f0000000000000000000000000000000000000000000000000000000000000000165afa9081156107b4576000908192610cac575b50604080519182526020820192909252f35b9050610ccf915060403d8111610cd6575b610cc78183610921565b810190613a62565b9038610c9a565b503d610cbd565b346103a05760403660031901126103a057600435610cfa816107bd565b336000526009602052610d24816040600020906001600160a01b0316600052602052604060002090565b546024358101809111610d3b576108059133612709565b6124fa565b9060406003198301126103a057600435610d5981610394565b91602435906001600160401b0382116103a057610449916004016103a5565b346103a057602061ffff610dc5610d8e36610d40565b9390911660005260018452610db0610db76040600020604051928380926111db565b0382610921565b84815191012092369161097d565b82815191012014604051908152f35b346103a05760203660031901126103a05761ffff600435610df481610394565b1660005260036020526020604060002054604051908152f35b346103a057610e1b36610d40565b9190610e25612492565b6001600160a01b037f00000000000000000000000000000000000000000000000000000000000000001691823b156103a057604051928380926342d65a8d60e01b825281610e7c60009889978894600485016135dc565b03925af180156107b4576107a8575080f35b346103a05760003660031901126103a057602060405160008152f35b60606003198201126103a057600435610ec281610394565b916024356001600160401b03928382116103a057610ee2916004016109b4565b9160443590811681036103a05790565b602090610f0c9282604051948386809551938492016105de565b82019081520301902090565b346103a0576020610f7661ffff610f5583610f3236610eaa565b9490911660005260058252604060002082604051948386809551938492016105de565b820190815203019020906001600160401b0316600052602052604060002090565b54604051908152f35b346103a057610f8d366103e8565b9192949390303303610fb1576104df610fab9261001997369161097d565b92613abd565b60405162461bcd60e51b815260206004820152602660248201527f4e6f6e626c6f636b696e674c7a4170703a2063616c6c6572206d7573742062656044820152650204c7a4170760d41b6064820152608490fd5b908160609103126103a05790565b60a03660031901126103a05760043561102b816107bd565b60243561103781610394565b604435916084356001600160401b0381116103a057602061ffff6001600160a01b036110887fd81fc9b8523134ed613870ed029d6170cbb73aa6a6bc311b9a642689fb9df59a943690600401611005565b946110fb8635611097816107bd565b6110b56104d8878a0135996110ab8b6107bd565b6040810190613853565b6110bf818b613f3e565b6110d46110cd6064356140db565b50856142fc565b986110e08a1515613cab565b6110f26110ec8b614041565b8d614112565b9234938c613435565b60405195865216941692a4005b346103a05760203660031901126103a0576001600160a01b0360043561112d816107bd565b1660005260086020526020604060002054604051908152f35b346103a05760008060031936011261071c57611160612492565b80546001600160a01b03198116825581906001600160a01b03167f8be0079c531659141344cd1fd0a4f28419497f9722a3daafe3b4186f6b6457e08280a380f35b90600182811c921680156111d1575b60208310146111bb57565b634e487b7160e01b600052602260045260246000fd5b91607f16916111b0565b90600092918054916111ec836111a1565b91828252600193848116908160001461124e575060011461120e575b50505050565b90919394506000526020928360002092846000945b83861061123a575050505001019038808080611208565b805485870183015294019385908201611223565b9294505050602093945060ff191683830152151560051b01019038808080611208565b906107d961128592604051938480926111db565b0383610921565b346103a05760203660031901126103a05761ffff6004356112ac81610394565b166000526001602052610693610db06112cf6040600020604051928380926111db565b604051918291602083526020830190610601565b60e03660031901126103a0576004356112fb816107bd565b60243561130781610394565b604435916001600160401b036084358181116103a05761132b9036906004016103a5565b92909160a435818116918282036103a05760c4359081116103a057611354903690600401611005565b9261138b843596611364886107bd565b6113836113796020880135976110ab896107bd565b989092369161097d565b96369161097d565b9460ff6006541660001461149d5760228651106114585761145196866020966110f26001600160a01b03966110fb958e61142a8f6114177fd81fc9b8523134ed613870ed029d6170cbb73aa6a6bc311b9a642689fb9df59a9f9d61ffff9e8f906022015193166000528f6002905261141160406000206001600052602052604060002090565b5461252c565b90611423821515613f93565b1015613fdf565b61143f6114386064356140db565b508a6142fc565b9d8e61144c811515613cab565b614041565b90336141a4565b60405162461bcd60e51b815260206004820152601c60248201527f4c7a4170703a20696e76616c69642061646170746572506172616d73000000006044820152606490fd5b91959480949350516114eb576110fb7fd81fc9b8523134ed613870ed029d6170cbb73aa6a6bc311b9a642689fb9df59a9560209561ffff956110f26114519a6001600160a01b03978e61142a565b60405162461bcd60e51b815260206004820152602660248201527f4f4654436f72653a205f61646170746572506172616d73206d7573742062652060448201526532b6b83a3c9760d11b6064820152608490fd5b346103a05760003660031901126103a05760206001600160a01b03600e5416604051908152f35b346103a05760003660031901126103a057602060405160ff7f0000000000000000000000000000000000000000000000000000000000000000168152f35b346103a05760403660031901126103a0576020610f766004356115c681610394565b61ffff602435916115d683610394565b166000526002835260406000209061ffff16600052602052604060002090565b346103a05760003660031901126103a05760206001600160a01b0360005416604051908152f35b346103a05760003660031901126103a05760206001600160a01b0360045416604051908152f35b346103a05760008060031936011261071c576040519080600c54611667816111a1565b808552916001918083169081156106f25750600114611690576106938561068781870382610921565b9250600c83527fdf6966c971051c3d54ec59162606531493a51404a002842f56009d7e5cf4a8c75b8284106116d357505050810160200161068782610693610677565b805460208587018101919091529093019281016116b8565b346103a057602060ff61172a61ffff610f558461170736610eaa565b9490911660005260078252604060002082604051948386809551938492016105de565b54166040519015158152f35b346103a05760203660031901126103a05761ffff60043561175681610394565b166000526001602052610db06117766040600020604051928380926111db565b805115611794576106878161178e610693935161364b565b90614562565b60405162461bcd60e51b815260206004820152601d60248201527f4c7a4170703a206e6f20747275737465642070617468207265636f72640000006044820152606490fd5b346103a05760403660031901126103a0576004356117f6816107bd565b60243590336000526009602052611824816040600020906001600160a01b0316600052602052604060002090565b54918083106118455761183992039033612709565b60405160018152602090f35b60405162461bcd60e51b815260206004820152602560248201527f45524332303a2064656372656173656420616c6c6f77616e63652062656c6f77604482015264207a65726f60d81b6064820152608490fd5b346103a05760e03660031901126103a0576004356118b581610394565b6001600160401b03906064358281116103a0576118d69036906004016103a5565b6118e19291926103d2565b60a435916118ee83610bc0565b60c4359586116103a0576119096119199636906004016103a5565b9590946044359060243590613885565b60408051928352602083019190915290f35b346103a05761193936610d40565b90611942612492565b6040519260209280838587013761196e6034868381013060601b88820152036014810188520186610921565b60009361ffff8316855260019081815260408620918751916001600160401b038311610901576119a8836119a286546111a1565b866135f7565b80601f8411600114611a18575091808092611a079695948a9b7f8c0400cfe2d1199b1a725c78960bcc2a344d869b80590d0f2bd005db15a572ce9b94611a0d575b50501b916000199060031b1c19161790555b604051938493846135dc565b0390a180f35b0151925038806119e9565b91939498601f198416611a3087600052602060002090565b938a905b828210611a97575050917f8c0400cfe2d1199b1a725c78960bcc2a344d869b80590d0f2bd005db15a572ce999a95939185611a0798969410611a7e575b505050811b0190556119fb565b015160001960f88460031b161c19169055388080611a71565b808886978294978701518155019601940190611a34565b346103a05760403660031901126103a057610805600435611ace816107bd565b60243590336125ec565b346103a05760003660031901126103a05760206040516001600160a01b037f0000000000000000000000000000000000000000000000000000000000000000168152f35b346103a05760203660031901126103a0577f5db758e995a17ec1ad84bdef7e8c3293a0bd6179bcce400dff5d4c3d87db726b60206001600160a01b03600435611b64816107bd565b611b6c612492565b16806bffffffffffffffffffffffff60a01b6004541617600455604051908152a1005b346103a05760003660031901126103a05760206040516127108152f35b346103a05760803660031901126103a057600435611bc981610394565b602435611bd581610394565b6064356001600160401b0381116103a057611bf49036906004016103a5565b9092611bfe612492565b6001600160a01b037f00000000000000000000000000000000000000000000000000000000000000001690813b156103a05760008094611c75604051978896879586946332fb62e760e21b865261ffff809216600487015216602485015260443560448501526080606485015260848401916128fb565b03925af180156107b457610b2457005b611c8e366103e8565b9161ffff86949296166000526005602052611cd581604060002060206040518092878b833787820190815203019020906001600160401b0316600052602052604060002090565b54918215611d9757611d868483611d7f7fc264d91f3adc5588250e1551f547752ca0cfa8f6b530d243b9f9f4cab10ea8e59a6000611d6b84611d538e8a8f611d929f908f611d3990611d2c611d4d9436908d61097d565b60208151910120146137c6565b61ffff166000526005602052604060002090565b916137ad565b906001600160401b0316600052602052604060002090565b55611d7736878d61097d565b93369161097d565b9188613abd565b6040519586958661381c565b0390a1005b60405162461bcd60e51b815260206004820152602360248201527f4e6f6e626c6f636b696e674c7a4170703a206e6f2073746f726564206d65737360448201526261676560e81b6064820152608490fd5b60809060831901126103a057608490565b908160a09103126103a05790565b6040906101231901126103a05761012490565b9181601f840112156103a0578235916001600160401b0383116103a05760208085019461014085020101116103a057565b6101803660031901126103a057600435611e64816107bd565b602435611e70816107bd565b60443591611e7d83610394565b6001600160401b03926064358481116103a057611e9e9036906004016103a5565b611ea736611de8565b90610104358781116103a057611ec1903690600401611df9565b92611ecb36611e07565b94610164359889116103a057611ee8610019993690600401611e1a565b989097612b34565b346103a05760403660031901126103a0576020610f76600435611f12816107bd565b6001600160a01b0360243591611f27836107bd565b16600052600983526040600020906001600160a01b0316600052602052604060002090565b346103a05760003660031901126103a05760206001600160a01b03600d5416604051908152f35b346103a05760603660031901126103a057600435611f9081610394565b602435611f9c81610394565b60443591611fa8612492565b821561202357611d927f9d5c7c0b934da8fefa9c7760c98383778a12dfbfc0c3b3106518f43fb9508ac09361ffff8316600052600260205280611ffd8560406000209061ffff16600052602052604060002090565b556040519384938460409194939294606082019561ffff80921683521660208201520152565b60405162461bcd60e51b815260206004820152601560248201527f4c7a4170703a20696e76616c6964206d696e47617300000000000000000000006044820152606490fd5b346103a05760003660031901126103a057602060405160018152f35b346103a05760203660031901126103a0577f1584ad594a70cbe1e6515592e1272a987d922b097ead875069cebe8b40c004a460206004356120c481610bc0565b6120cc612492565b151560ff196006541660ff821617600655604051908152a1005b346103a0576101003660031901126103a05760043561210481610394565b6001600160401b03906024358281116103a0576121259036906004016103a5565b91906044359084821682036103a057608435612140816107bd565b60c4359586116103a05761215b6100199636906004016103a5565b94909360e4359660a435946064359361397b565b346103a05761217d36610d40565b9190612187612492565b60009161ffff81168352600160209080825260408520916001600160401b038711610901576121c0876121ba85546111a1565b856135f7565b8590601f88116001146122275750918680879893611a07957ffa41487ad5d6728f0b19276fa1eddc16558578f5109fc39d2dc33c3230470dab999361221c575b501b906000198460031b1c1916179055604051938493846135dc565b880135925038612200565b90601f19881661223c85600052602060002090565b9288905b8282106122a2575050918893917ffa41487ad5d6728f0b19276fa1eddc16558578f5109fc39d2dc33c3230470dab9899611a07969410612288575b505082811b0190556119fb565b870135600019600386901b60f8161c19169055388061227b565b808685968294968c01358155019501930190612240565b346103a05760003660031901126103a057602060ff600654166040519015158152f35b346103a05760203660031901126103a0576004356122f9816107bd565b612301612492565b6001600160a01b03809116801561234f57600080546001600160a01b03198116831782559092167f8be0079c531659141344cd1fd0a4f28419497f9722a3daafe3b4186f6b6457e08380a380f35b60405162461bcd60e51b815260206004820152602660248201527f4f776e61626c653a206e6577206f776e657220697320746865207a65726f206160448201526564647265737360d01b6064820152608490fd5b346103a05760803660031901126103a0576004356123c081610394565b602435906123cd82610394565b6123d86044356107bd565b604051633d7b2f6f60e21b815261ffff91821660048201529116602482015230604482015260648035908201526000816084817f00000000000000000000000000000000000000000000000000000000000000006001600160a01b03165afa80156107b45761069391600091612456575b5060405191829182610626565b612471913d8091833e6124698183610921565b8101906135b7565b38612449565b346103a05760003660031901126103a0576020604051308152f35b6001600160a01b036000541633036124a657565b606460405162461bcd60e51b815260206004820152602060248201527f4f776e61626c653a2063616c6c6572206973206e6f7420746865206f776e65726044820152fd5b906124f59133612709565b600190565b634e487b7160e01b600052601160045260246000fd5b90601f8201809211610d3b57565b6051019081605111610d3b57565b91908201809211610d3b57565b1561254057565b60405162461bcd60e51b815260206004820152602360248201527f45524332303a207472616e7366657220746f20746865207a65726f206164647260448201526265737360e81b6064820152608490fd5b1561259857565b60405162461bcd60e51b815260206004820152602660248201527f45524332303a207472616e7366657220616d6f756e7420657863656564732062604482015265616c616e636560d01b6064820152608490fd5b91906001600160a01b03908184169283156126b65761269b827fddf252ad1be2c89b69c2b068fc378daa952ba7f163c4a11628f55a4df523b3ef946126b1941696612638881515612539565b61268184612659836001600160a01b03166000526008602052604060002090565b5461266682821015612591565b03916001600160a01b03166000526008602052604060002090565b556001600160a01b03166000526008602052604060002090565b8054820190556040519081529081906020820190565b0390a3565b60405162461bcd60e51b815260206004820152602560248201527f45524332303a207472616e736665722066726f6d20746865207a65726f206164604482015264647265737360d81b6064820152608490fd5b906001600160a01b03918281169283156127e557821693841561279557806127847f8c5be1e5ebec7d5bd14f71427d1e84f3dd0314c0f7b2291e5b200ac8c7c3b9259461276c6126b1956001600160a01b03166000526009602052604060002090565b906001600160a01b0316600052602052604060002090565b556040519081529081906020820190565b60405162461bcd60e51b815260206004820152602260248201527f45524332303a20617070726f766520746f20746865207a65726f206164647265604482015261737360f01b6064820152608490fd5b60405162461bcd60e51b8152602060048201526024808201527f45524332303a20617070726f76652066726f6d20746865207a65726f206164646044820152637265737360e01b6064820152608490fd5b906001600160a01b038216600052600960205261286a816040600020906001600160a01b0316600052602052604060002090565b54926001840161287a5750505050565b8084106128955761288c930391612709565b38808080611208565b60405162461bcd60e51b815260206004820152601d60248201527f45524332303a20696e73756666696369656e7420616c6c6f77616e63650000006044820152606490fd5b908160209103126103a0575161063781610394565b6040513d6000823e3d90fd5b908060209392818452848401376000828201840152601f01601f1916010190565b60ff8116036103a057565b35906107d98261291c565b9190808252602080920192916000905b828210612950575050505090565b909192938061296a60019261296488610bca565b15159052565b6129876129788488016107ce565b6001600160a01b031682850152565b61299f6040612997818901610bca565b151590830152565b6129be60606129af8189016107ce565b6001600160a01b031690830152565b6129ce60806129af8189016107ce565b60a0808701359082015260c080870135908201526129fb60e06129f2818901612927565b60ff1690830152565b61010086810135908201526101208087013590820152610140908101950193920190612942565b949593926060919261030787526001600160a01b038094166020880152604087015280358287015260208101356080870152826040820135612a63816107bd565b1660a08701520135612a74816107bd565b1660c08401526101208060e08501528135612a8e81610bc0565b15159084015260208101356101408401526040810135612aad81610bc0565b151561016084015261ffff6060820135612ac681610394565b166101808401526080810135601e19823603018112156103a0570192602084359401936001600160401b0381116103a05780360385136103a05761063794612b1b9160a06101a08701526101c08601916128fb565b92610100818503910152612932565b35610637816107bd565b909195969297986001600160a01b0380931699604051916303408e4760e41b8352602083600481887f0000000000000000000000000000000000000000000000000000000000000000165afa9182156107b4578c938593612c20575b5088359a612b9e8c856142fc565b50604051998a95612bb29560208801612a22565b03601f1981018652612bc49086610921565b16956020879201612bd490612b2a565b9034933690612be29261097d565b91612bed9486613435565b60405191825261ffff16907fd81fc9b8523134ed613870ed029d6170cbb73aa6a6bc311b9a642689fb9df59a90602090a4565b612c409060203d8111612c47575b612c388183610921565b8101906128da565b5038612b90565b503d612c2e565b51906107d9826107bd565b51906107d982610bc0565b81601f820112156103a0578051612c7a81610962565b92612c886040519485610921565b818452602082840101116103a05761063791602080850191016105de565b91909160a0818403126103a057604051906001600160401b039060a08301828111848210176109015760405282948151612cdf81610bc0565b8452602082015160208501526040820151612cf981610bc0565b60408501526060820151612d0c81610394565b606085015260808201519283116103a057608092612d2a9201612c64565b910152565b51906107d98261291c565b81601f820112156103a0578051906001600160401b038211610901576040805193602091612d6d838660051b0187610921565b8486528286019183610140809702860101948186116103a0578401925b858410612d9b575050505050505090565b86848303126103a057848791612daf610942565b612db887612c59565b8152612dc5838801612c4e565b83820152612dd4868801612c59565b868201526060612de5818901612c4e565b908201526080612df6818901612c4e565b9082015260a0808801519082015260c0808801519082015260e0612e1b818901612d2f565b9082015261010080880151908201526101208088015190820152815201930192612d8a565b9190918083039061012082126103a0578051612e5b81610394565b936020820151612e6a816107bd565b936080604084015194605f1901126103a057604051612e8881610906565b606084015181526080840151602082015260a0840151612ea7816107bd565b604082015260c0840151612eba816107bd565b60608201529260e0810151926001600160401b03938481116103a05781612ee2918401612ca6565b936101008301519081116103a0576106379201612d3a565b90610637949361ffff6080946001600160a01b0393151585521660208401521660408201528160608201520190610601565b939190610637969593916001600160a01b0380921686521660208501526040840152606083015260016080830152600160a0830152151560c0820152610100908160e08201520190610601565b8051821015612f8d5760209160051b010190565b634e487b7160e01b600052603260045260246000fd5b60009060033d11612fb057565b905060046000803e60005160e01c90565b600060443d1061063757604051600319913d83016004833e81516001600160401b03918282113d60248401111761301e57818401948551938411613026573d8501016020848701011161301e575061063792910160200190610921565b949350505050565b50949350505050565b60005b815181101561337f5760406130538161304b8486612f79565b510151151590565b156132055761307c610ab1610ab1602061306d8688612f79565b5101516001600160a01b031690565b9061308c606061306d8587612f79565b61309b608061306d8688612f79565b9260a06130a88688612f79565b51015160c06130b78789612f79565b510151906130d360e06130ca898b612f79565b51015160ff1690565b936101006130e1898b612f79565b5101516101206130f18a8c612f79565b51015190853b156103a057875196879586956301da8bf160e41b875260049b8c880196613155979360ff929897969360c0969260e087019a6001600160a01b0380921688521660208701526040860152606085015216608083015260a08201520152565b03815a6000948591f190816131f2575b506131e857600191613175612fa3565b6308c379a014613190575b50506107b4576001905b01613032565b613198612fc1565b90816131a5575b50613180565b6000935090916131c66131c26131bb8789612f79565b5151151590565b1590565b1561319f575162461bcd60e51b81529182916131e491908301610626565b0390fd5b505060019061318a565b80610b316131ff926108ee565b38613165565b61321a610ab1610ab1602061306d8688612f79565b9061322a606061306d8587612f79565b613239608061306d8688612f79565b9260a06132468688612f79565b51015160c06132558789612f79565b5101519061326860e06130ca898b612f79565b93610100613276898b612f79565b5101516101206132868a8c612f79565b51015190853b156103a0578751968795869563d505accf60e01b875260049b8c8801966132ea979360ff929897969360c0969260e087019a6001600160a01b0380921688521660208701526040860152606085015216608083015260a08201520152565b03815a6000948591f1908161336c575b506131e85760019161330a612fa3565b6308c379a014613323575b50506107b45760019061318a565b61332b612fc1565b9081613338575b50613315565b60009350909161334e6131c26131bb8789612f79565b15613332575162461bcd60e51b81529182916131e491908301610626565b80610b31613379926108ee565b386132fa565b5050565b1561338a57565b60405162461bcd60e51b815260206004820152602660248201527f4c7a4170703a20696e76616c696420736f757263652073656e64696e6720636f6044820152651b9d1c9858dd60d21b6064820152608490fd5b9261340361063797959361ffff6134119416865260c0602087015260c0860190610601565b908482036040860152610601565b936001600160a01b03809216606084015216608082015260a0818403910152610601565b9461345e9193929561ffff811660005260016020526134656040600020604051948580926111db565b0384610921565b8251156134ea57613477855182613548565b6001600160a01b037f00000000000000000000000000000000000000000000000000000000000000001693843b156103a0576000966134cc91604051998a988997889662c5803160e81b8852600488016133de565b03925af180156107b4576134dd5750565b80610b316107d9926108ee565b60405162461bcd60e51b815260206004820152603060248201527f4c7a4170703a2064657374696e6174696f6e20636861696e206973206e6f742060448201526f61207472757374656420736f7572636560801b6064820152608490fd5b61ffff1660005260036020526040600020549081156135ad575b1161356957565b606460405162461bcd60e51b815260206004820152602060248201527f4c7a4170703a207061796c6f61642073697a6520697320746f6f206c617267656044820152fd5b6127109150613562565b906020828203126103a05781516001600160401b0381116103a0576106379201612c64565b60409061ffff610637959316815281602082015201916128fb565b90601f811161360557505050565b600091825260208220906020601f850160051c83019410613641575b601f0160051c01915b82811061363657505050565b81815560010161362a565b9092508290613621565b601319810191908211610d3b57565b605019810191908211610d3b57565b9290916136db5a604051633356ae4560e11b602082015261ffff8716602482015260806044820152906136d5826136c76136a660a483018a610601565b6001600160401b038816606484015282810360231901608484015288610601565b03601f198101845283610921565b30614719565b9390156136ea575b5050505050565b6136f3946136fd565b38808080806136e3565b919361379a7fe183f33de2837795525b4792ca4cd60535bd77c53b7e7030060bfcf5734d6b0c956137a8939561ffff8151602083012096169586600052600560205261376183610f5560208b604060002082604051948386809551938492016105de565b556001600160401b03613786604051988998895260a060208a015260a0890190610601565b921660408701528582036060870152610601565b908382036080850152610601565b0390a1565b6020919283604051948593843782019081520301902090565b156137cd57565b60405162461bcd60e51b815260206004820152602160248201527f4e6f6e626c6f636b696e674c7a4170703a20696e76616c6964207061796c6f616044820152601960fa1b6064820152608490fd5b916138489060609461ffff6001600160401b0394999897991685526080602086015260808501916128fb565b951660408201520152565b903590601e19813603018212156103a057018035906001600160401b0382116103a0576020019181360383136103a057565b9491959897906114516138ae6040996138a66138b4976138d199369161097d565b94369161097d565b97614041565b928451968794859463040a7bb160e41b8652309060048701613a78565b03816001600160a01b037f0000000000000000000000000000000000000000000000000000000000000000165afa9182156107b457600090819361391457509190565b905061044991925060403d8111610cd657610cc78183610921565b9396949161395d9061063799979461ffff6001600160401b039416875260c0602088015260c08701916128fb565b961660408401526060830152608082015260a08185039101526128fb565b91969792989594939094303303613a1d5761399f6001600160a01b039186306144ae565b941692836040517fbf551ec93859b170f9b2141bd9298bf3f64322c6f7beb2543a0cb669834118bf61ffff861691806139dd8a829190602083019252565b0390a3833b156103a0576000988995613a0d936040519c8d9b8c9a8b98633fe79aed60e11b8a5260048a0161392f565b0393f180156107b4576134dd5750565b60405162461bcd60e51b815260206004820152601f60248201527f4f4654436f72653a2063616c6c6572206d757374206265204f4654436f7265006044820152606490fd5b91908260409103126103a0576020825192015190565b91926001600160a01b03610637969461ffff613aa89416855216602084015260a0604084015260a0830190610601565b92151560608201526080818403910152610601565b92919060ff613acb846146be565b1680613c565750505060ff613adf826146be565b161580613c4b575b613af090614158565b613b02613afc82614666565b91614709565b9181926001600160a01b0380931615613c41575b613b4a906001600160401b037f000000000000000000000000000000000000000000000000000000000000000091166140c8565b918316928315613bfc577fbf551ec93859b170f9b2141bd9298bf3f64322c6f7beb2543a0cb669834118bf91613baa61ffff92613b91613b8c87600a5461252c565b600a55565b6001600160a01b03166000526008602052604060002090565b8481540190558460007fddf252ad1be2c89b69c2b068fc378daa952ba7f163c4a11628f55a4df523b3ef60405180613be789829190602083019252565b0390a3604051938452169180602081016126b1565b60405162461bcd60e51b815260206004820152601f60248201527f45524332303a206d696e7420746f20746865207a65726f2061646472657373006044820152606490fd5b61dead9350613b16565b508051602914613ae7565b600103613c66576107d993613d86565b60405162461bcd60e51b815260206004820152601c60248201527f4f4654436f72653a20756e6b6e6f776e207061636b65742074797065000000006044820152606490fd5b15613cb257565b60405162461bcd60e51b815260206004820152601960248201527f4f4654436f72653a20616d6f756e7420746f6f20736d616c6c000000000000006044820152606490fd5b989796929394613d56956001600160401b03613d3260e099958d61ffff6001600160a01b03971690528d610100908160208201520190610601565b961660408c015260608b015216608089015260a088015286820360c0880152610601565b930152565b6001600160401b03613d7b60409396959496606084526060840190610601565b951660208201520152565b9091613d9184614212565b9091613dc2613dbb87611d53613db58b61ffff166000526007602052604060002090565b8c610ef2565b5460ff1690565b91613df86001600160401b0392837f000000000000000000000000000000000000000000000000000000000000000091166140c8565b9288888b8315613ef4575b505050853b15613ea95794613e4a96946136d5948a946136c7948d99600014613ea25750505a925b5a978b6040519a8b9863757fea4d60e11b60208b015260248a01613cf7565b9015613e97575090613e9261ffff928560207fb8890edbfc1c74692f527444645f95489c3703cc2df42e4a366f5d06fa6cd88496975191012090604051948594169684613d5b565b0390a2565b926107d994926136fd565b1692613e2b565b50506040516001600160a01b039094168452507f9aedf5fdba8716db3b6705ca00150643309995d4f818a249ed6dde6677e7792d9750919550859450506020840192506137a8915050565b90611d53613f2992613f2389613f0e613f36979b30614438565b9961ffff166000526007602052604060002090565b90610ef2565b805460ff19166001179055565b88888b613e03565b60065460ff1615613f8b5760228251106114585761ffff60226107d993015191166000526002602052613f7e604060002060008052602052604060002090565b5490611423821515613f93565b50516114eb57565b15613f9a57565b60405162461bcd60e51b815260206004820152601a60248201527f4c7a4170703a206d696e4761734c696d6974206e6f74207365740000000000006044820152606490fd5b15613fe657565b60405162461bcd60e51b815260206004820152601b60248201527f4c7a4170703a20676173206c696d697420697320746f6f206c6f7700000000006044820152606490fd5b634e487b7160e01b600052601260045260246000fd5b7f00000000000000000000000000000000000000000000000000000000000000009081156140c357046001600160401b039081811161407e571690565b60405162461bcd60e51b815260206004820152601a60248201527f4f4654436f72653a20616d6f756e745344206f766572666c6f770000000000006044820152606490fd5b61402b565b81810292918115918404141715610d3b57565b7f000000000000000000000000000000000000000000000000000000000000000080156140c357810690818103908111610d3b5791565b90604051916000602084015260218301526001600160401b0360c01b9060c01b16604182015260298152606081018181106001600160401b038211176109015760405290565b1561415f57565b60405162461bcd60e51b815260206004820152601860248201527f4f4654436f72653a20696e76616c6964207061796c6f616400000000000000006044820152606490fd5b9392607192610637946001600160a01b03604051978895600160f81b602088015260218701526001600160401b0360c01b809460c01b16604187015216604985015260c01b16606983015261420281518092602086860191016105de565b8101036051810184520182610921565b9061422a600160ff614223856146be565b1614614158565b61423382614666565b9061423d83614709565b9060498451106142b75760498401519360518151106142725761426f605182015191614269815161365a565b906145e2565b91565b60405162461bcd60e51b815260206004820152601460248201527f746f55696e7436345f6f75744f66426f756e64730000000000000000000000006044820152606490fd5b60405162461bcd60e51b815260206004820152601560248201527f746f427974657333325f6f75744f66426f756e647300000000000000000000006044820152606490fd5b6001600160a01b0381163381036143d1575b80156143825781614345846143386000956001600160a01b03166000526008602052604060002090565b54612666828210156143e1565b5561435383600a5403600a55565b6040518381527fddf252ad1be2c89b69c2b068fc378daa952ba7f163c4a11628f55a4df523b3ef90602090a390565b60405162461bcd60e51b815260206004820152602160248201527f45524332303a206275726e2066726f6d20746865207a65726f206164647265736044820152607360f81b6064820152608490fd5b6143dc833384612836565b61430e565b156143e857565b60405162461bcd60e51b815260206004820152602260248201527f45524332303a206275726e20616d6f756e7420657863656564732062616c616e604482015261636560f01b6064820152608490fd5b906001600160a01b038216918215613bfc57600a5490828201809211610d3b5760009261449f6020927fddf252ad1be2c89b69c2b068fc378daa952ba7f163c4a11628f55a4df523b3ef94600a556001600160a01b03166000526008602052604060002090565b818154019055604051908152a3565b6106379183916001600160a01b0381163081141590816144da575b50156125ec57610b9f833383612836565b9050331415386144c9565b156144ec57565b60405162461bcd60e51b815260206004820152600e60248201526d736c6963655f6f766572666c6f7760901b6044820152606490fd5b1561452957565b60405162461bcd60e51b8152602060048201526011602482015270736c6963655f6f75744f66426f756e647360781b6044820152606490fd5b6145768261456f81612510565b10156144e5565b6145838282511015614522565b8161459b575050604051600081526020810160405290565b60405191601f811691821560051b808486010193838501920101905b8084106145cf5750508252601f01601f191660405290565b90928351815260208091019301906145b7565b6145ef8261456f81612510565b61460481516145fd8461251e565b1115614522565b8161461c575050604051600081526020810160405290565b60405191601f8116916051831560051b80858701019484860193010101905b8084106146535750508252601f01601f191660405290565b909283518152602080910193019061463b565b602181511061467957602d015160601c90565b60405162461bcd60e51b815260206004820152601560248201527f746f416464726573735f6f75744f66426f756e647300000000000000000000006044820152606490fd5b60018151106146ce576001015190565b60405162461bcd60e51b8152602060048201526013602482015272746f55696e74385f6f75744f66426f756e647360681b6044820152606490fd5b6029815110614272576029015190565b6040519392909160009160c08601916001600160401b038311878410176109015783926040526096875282602088019560a036883760208451940192f1903d906096821161476d575b6000908286523e9190565b6096915061476256fea26469706673582212204c969e2d4042836c83e75f994b636357a38bdd5cff0a88349ec307d488eeb11a64736f6c63430008120033",
  "linkReferences": {},
  "deployedLinkReferences": {}
}