{
  "_format": "hh-sol-artifact-1",
  "contractName": "BaseTOFTOptionsDestinationModule",
  "sourceName": "contracts/tOFT/modules/BaseTOFTOptionsDestinationModule.sol",
  "abi": [
    {
      "inputs": [
        {
          "internalType": "address",
          "name": "_lzEndpoint",
          "type": "address"
        },
        {
          "internalType": "address",
          "name": "_erc20",
          "type": "address"
        },
        {
          "internalType": "contract IYieldBoxBase",
          "name": "_yieldBox",
          "type": "address"
        },
        {
          "internalType": "contract ICluster",
          "name": "_cluster",
          "type": "address"
        },
        {
          "internalType": "string",
          "name": "_name",
          "type": "string"
        },
        {
          "internalType": "string",
          "name": "_symbol",
          "type": "string"
        },
        {
          "internalType": "uint8",
          "name": "_decimal",
          "type": "uint8"
        },
        {
          "internalType": "uint256",
          "name": "_hostChainID",
          "type": "uint256"
        }
      ],
      "stateMutability": "nonpayable",
      "type": "constructor"
    },
    {
      "anonymous": false,
      "inputs": [
        {
          "indexed": true,
          "internalType": "address",
          "name": "owner",
          "type": "address"
        },
        {
          "indexed": true,
          "internalType": "address",
          "name": "spender",
          "type": "address"
        },
        {
          "indexed": false,
          "internalType": "uint256",
          "name": "value",
          "type": "uint256"
        }
      ],
      "name": "Approval",
      "type": "event"
    },
    {
      "anonymous": false,
      "inputs": [
        {
          "indexed": true,
          "internalType": "uint16",
          "name": "_srcChainId",
          "type": "uint16"
        },
        {
          "indexed": false,
          "internalType": "bytes",
          "name": "_srcAddress",
          "type": "bytes"
        },
        {
          "indexed": false,
          "internalType": "uint64",
          "name": "_nonce",
          "type": "uint64"
        },
        {
          "indexed": false,
          "internalType": "bytes32",
          "name": "_hash",
          "type": "bytes32"
        }
      ],
      "name": "CallOFTReceivedSuccess",
      "type": "event"
    },
    {
      "anonymous": false,
      "inputs": [
        {
          "indexed": false,
          "internalType": "uint16",
          "name": "_srcChainId",
          "type": "uint16"
        },
        {
          "indexed": false,
          "internalType": "bytes",
          "name": "_srcAddress",
          "type": "bytes"
        },
        {
          "indexed": false,
          "internalType": "uint64",
          "name": "_nonce",
          "type": "uint64"
        },
        {
          "indexed": false,
          "internalType": "bytes",
          "name": "_payload",
          "type": "bytes"
        },
        {
          "indexed": false,
          "internalType": "bytes",
          "name": "_reason",
          "type": "bytes"
        }
      ],
      "name": "MessageFailed",
      "type": "event"
    },
    {
      "anonymous": false,
      "inputs": [
        {
          "indexed": false,
          "internalType": "address",
          "name": "_address",
          "type": "address"
        }
      ],
      "name": "NonContractAddress",
      "type": "event"
    },
    {
      "anonymous": false,
      "inputs": [
        {
          "indexed": true,
          "internalType": "address",
          "name": "previousOwner",
          "type": "address"
        },
        {
          "indexed": true,
          "internalType": "address",
          "name": "newOwner",
          "type": "address"
        }
      ],
      "name": "OwnershipTransferred",
      "type": "event"
    },
    {
      "anonymous": false,
      "inputs": [
        {
          "indexed": true,
          "internalType": "uint16",
          "name": "_srcChainId",
          "type": "uint16"
        },
        {
          "indexed": true,
          "internalType": "address",
          "name": "_to",
          "type": "address"
        },
        {
          "indexed": false,
          "internalType": "uint256",
          "name": "_amount",
          "type": "uint256"
        }
      ],
      "name": "ReceiveFromChain",
      "type": "event"
    },
    {
      "anonymous": false,
      "inputs": [
        {
          "indexed": false,
          "internalType": "uint16",
          "name": "_srcChainId",
          "type": "uint16"
        },
        {
          "indexed": false,
          "internalType": "bytes",
          "name": "_srcAddress",
          "type": "bytes"
        },
        {
          "indexed": false,
          "internalType": "uint64",
          "name": "_nonce",
          "type": "uint64"
        },
        {
          "indexed": false,
          "internalType": "bytes32",
          "name": "_payloadHash",
          "type": "bytes32"
        }
      ],
      "name": "RetryMessageSuccess",
      "type": "event"
    },
    {
      "anonymous": false,
      "inputs": [
        {
          "indexed": true,
          "internalType": "uint16",
          "name": "_dstChainId",
          "type": "uint16"
        },
        {
          "indexed": true,
          "internalType": "address",
          "name": "_from",
          "type": "address"
        },
        {
          "indexed": true,
          "internalType": "bytes32",
          "name": "_toAddress",
          "type": "bytes32"
        },
        {
          "indexed": false,
          "internalType": "uint256",
          "name": "_amount",
          "type": "uint256"
        }
      ],
      "name": "SendToChain",
      "type": "event"
    },
    {
      "anonymous": false,
      "inputs": [
        {
          "indexed": false,
          "internalType": "uint16",
          "name": "_dstChainId",
          "type": "uint16"
        },
        {
          "indexed": false,
          "internalType": "uint16",
          "name": "_type",
          "type": "uint16"
        },
        {
          "indexed": false,
          "internalType": "uint256",
          "name": "_minDstGas",
          "type": "uint256"
        }
      ],
      "name": "SetMinDstGas",
      "type": "event"
    },
    {
      "anonymous": false,
      "inputs": [
        {
          "indexed": false,
          "internalType": "address",
          "name": "precrime",
          "type": "address"
        }
      ],
      "name": "SetPrecrime",
      "type": "event"
    },
    {
      "anonymous": false,
      "inputs": [
        {
          "indexed": false,
          "internalType": "uint16",
          "name": "_remoteChainId",
          "type": "uint16"
        },
        {
          "indexed": false,
          "internalType": "bytes",
          "name": "_path",
          "type": "bytes"
        }
      ],
      "name": "SetTrustedRemote",
      "type": "event"
    },
    {
      "anonymous": false,
      "inputs": [
        {
          "indexed": false,
          "internalType": "uint16",
          "name": "_remoteChainId",
          "type": "uint16"
        },
        {
          "indexed": false,
          "internalType": "bytes",
          "name": "_remoteAddress",
          "type": "bytes"
        }
      ],
      "name": "SetTrustedRemoteAddress",
      "type": "event"
    },
    {
      "anonymous": false,
      "inputs": [
        {
          "indexed": false,
          "internalType": "bool",
          "name": "_useCustomAdapterParams",
          "type": "bool"
        }
      ],
      "name": "SetUseCustomAdapterParams",
      "type": "event"
    },
    {
      "anonymous": false,
      "inputs": [
        {
          "indexed": true,
          "internalType": "address",
          "name": "from",
          "type": "address"
        },
        {
          "indexed": true,
          "internalType": "address",
          "name": "to",
          "type": "address"
        },
        {
          "indexed": false,
          "internalType": "uint256",
          "name": "value",
          "type": "uint256"
        }
      ],
      "name": "Transfer",
      "type": "event"
    },
    {
      "inputs": [],
      "name": "DEFAULT_PAYLOAD_SIZE_LIMIT",
      "outputs": [
        {
          "internalType": "uint256",
          "name": "",
          "type": "uint256"
        }
      ],
      "stateMutability": "view",
      "type": "function"
    },
    {
      "inputs": [],
      "name": "NO_EXTRA_GAS",
      "outputs": [
        {
          "internalType": "uint256",
          "name": "",
          "type": "uint256"
        }
      ],
      "stateMutability": "view",
      "type": "function"
    },
    {
      "inputs": [],
      "name": "PT_SEND",
      "outputs": [
        {
          "internalType": "uint8",
          "name": "",
          "type": "uint8"
        }
      ],
      "stateMutability": "view",
      "type": "function"
    },
    {
      "inputs": [],
      "name": "PT_SEND_AND_CALL",
      "outputs": [
        {
          "internalType": "uint8",
          "name": "",
          "type": "uint8"
        }
      ],
      "stateMutability": "view",
      "type": "function"
    },
    {
      "inputs": [],
      "name": "SWAP_MAX_SLIPPAGE",
      "outputs": [
        {
          "internalType": "uint256",
          "name": "",
          "type": "uint256"
        }
      ],
      "stateMutability": "view",
      "type": "function"
    },
    {
      "inputs": [
        {
          "internalType": "address",
          "name": "owner",
          "type": "address"
        },
        {
          "internalType": "address",
          "name": "spender",
          "type": "address"
        }
      ],
      "name": "allowance",
      "outputs": [
        {
          "internalType": "uint256",
          "name": "",
          "type": "uint256"
        }
      ],
      "stateMutability": "view",
      "type": "function"
    },
    {
      "inputs": [
        {
          "internalType": "address",
          "name": "spender",
          "type": "address"
        },
        {
          "internalType": "uint256",
          "name": "amount",
          "type": "uint256"
        }
      ],
      "name": "approve",
      "outputs": [
        {
          "internalType": "bool",
          "name": "",
          "type": "bool"
        }
      ],
      "stateMutability": "nonpayable",
      "type": "function"
    },
    {
      "inputs": [
        {
          "internalType": "address",
          "name": "account",
          "type": "address"
        }
      ],
      "name": "balanceOf",
      "outputs": [
        {
          "internalType": "uint256",
          "name": "",
          "type": "uint256"
        }
      ],
      "stateMutability": "view",
      "type": "function"
    },
    {
      "inputs": [
        {
          "internalType": "uint16",
          "name": "_srcChainId",
          "type": "uint16"
        },
        {
          "internalType": "bytes",
          "name": "_srcAddress",
          "type": "bytes"
        },
        {
          "internalType": "uint64",
          "name": "_nonce",
          "type": "uint64"
        },
        {
          "internalType": "bytes32",
          "name": "_from",
          "type": "bytes32"
        },
        {
          "internalType": "address",
          "name": "_to",
          "type": "address"
        },
        {
          "internalType": "uint256",
          "name": "_amount",
          "type": "uint256"
        },
        {
          "internalType": "bytes",
          "name": "_payload",
          "type": "bytes"
        },
        {
          "internalType": "uint256",
          "name": "_gasForCall",
          "type": "uint256"
        }
      ],
      "name": "callOnOFTReceived",
      "outputs": [],
      "stateMutability": "nonpayable",
      "type": "function"
    },
    {
      "inputs": [],
      "name": "circulatingSupply",
      "outputs": [
        {
          "internalType": "uint256",
          "name": "",
          "type": "uint256"
        }
      ],
      "stateMutability": "view",
      "type": "function"
    },
    {
      "inputs": [],
      "name": "cluster",
      "outputs": [
        {
          "internalType": "contract ICluster",
          "name": "",
          "type": "address"
        }
      ],
      "stateMutability": "view",
      "type": "function"
    },
    {
      "inputs": [
        {
          "internalType": "uint16",
          "name": "",
          "type": "uint16"
        },
        {
          "internalType": "bytes",
          "name": "",
          "type": "bytes"
        },
        {
          "internalType": "uint64",
          "name": "",
          "type": "uint64"
        }
      ],
      "name": "creditedPackets",
      "outputs": [
        {
          "internalType": "bool",
          "name": "",
          "type": "bool"
        }
      ],
      "stateMutability": "view",
      "type": "function"
    },
    {
      "inputs": [],
      "name": "decimals",
      "outputs": [
        {
          "internalType": "uint8",
          "name": "",
          "type": "uint8"
        }
      ],
      "stateMutability": "view",
      "type": "function"
    },
    {
      "inputs": [
        {
          "internalType": "address",
          "name": "spender",
          "type": "address"
        },
        {
          "internalType": "uint256",
          "name": "subtractedValue",
          "type": "uint256"
        }
      ],
      "name": "decreaseAllowance",
      "outputs": [
        {
          "internalType": "bool",
          "name": "",
          "type": "bool"
        }
      ],
      "stateMutability": "nonpayable",
      "type": "function"
    },
    {
      "inputs": [],
      "name": "erc20",
      "outputs": [
        {
          "internalType": "address",
          "name": "",
          "type": "address"
        }
      ],
      "stateMutability": "view",
      "type": "function"
    },
    {
      "inputs": [
        {
          "internalType": "uint16",
          "name": "_dstChainId",
          "type": "uint16"
        },
        {
          "internalType": "bytes32",
          "name": "_toAddress",
          "type": "bytes32"
        },
        {
          "internalType": "uint256",
          "name": "_amount",
          "type": "uint256"
        },
        {
          "internalType": "bytes",
          "name": "_payload",
          "type": "bytes"
        },
        {
          "internalType": "uint64",
          "name": "_dstGasForCall",
          "type": "uint64"
        },
        {
          "internalType": "bool",
          "name": "_useZro",
          "type": "bool"
        },
        {
          "internalType": "bytes",
          "name": "_adapterParams",
          "type": "bytes"
        }
      ],
      "name": "estimateSendAndCallFee",
      "outputs": [
        {
          "internalType": "uint256",
          "name": "nativeFee",
          "type": "uint256"
        },
        {
          "internalType": "uint256",
          "name": "zroFee",
          "type": "uint256"
        }
      ],
      "stateMutability": "view",
      "type": "function"
    },
    {
      "inputs": [
        {
          "internalType": "uint16",
          "name": "_dstChainId",
          "type": "uint16"
        },
        {
          "internalType": "bytes32",
          "name": "_toAddress",
          "type": "bytes32"
        },
        {
          "internalType": "uint256",
          "name": "_amount",
          "type": "uint256"
        },
        {
          "internalType": "bool",
          "name": "_useZro",
          "type": "bool"
        },
        {
          "internalType": "bytes",
          "name": "_adapterParams",
          "type": "bytes"
        }
      ],
      "name": "estimateSendFee",
      "outputs": [
        {
          "internalType": "uint256",
          "name": "nativeFee",
          "type": "uint256"
        },
        {
          "internalType": "uint256",
          "name": "zroFee",
          "type": "uint256"
        }
      ],
      "stateMutability": "view",
      "type": "function"
    },
    {
      "inputs": [
        {
          "internalType": "address",
          "name": "module",
          "type": "address"
        },
        {
          "internalType": "uint16",
          "name": "_srcChainId",
          "type": "uint16"
        },
        {
          "internalType": "bytes",
          "name": "_srcAddress",
          "type": "bytes"
        },
        {
          "internalType": "uint64",
          "name": "_nonce",
          "type": "uint64"
        },
        {
          "internalType": "bytes",
          "name": "_payload",
          "type": "bytes"
        }
      ],
      "name": "exercise",
      "outputs": [],
      "stateMutability": "nonpayable",
      "type": "function"
    },
    {
      "inputs": [
        {
          "internalType": "address",
          "name": "module",
          "type": "address"
        },
        {
          "internalType": "address",
          "name": "from",
          "type": "address"
        },
        {
          "internalType": "uint256",
          "name": "oTAPTokenID",
          "type": "uint256"
        },
        {
          "internalType": "address",
          "name": "paymentToken",
          "type": "address"
        },
        {
          "internalType": "uint256",
          "name": "tapAmount",
          "type": "uint256"
        },
        {
          "internalType": "address",
          "name": "target",
          "type": "address"
        },
        {
          "components": [
            {
              "internalType": "bool",
              "name": "withdrawOnAnotherChain",
              "type": "bool"
            },
            {
              "internalType": "address",
              "name": "tapOftAddress",
              "type": "address"
            },
            {
              "internalType": "uint16",
              "name": "lzDstChainId",
              "type": "uint16"
            },
            {
              "internalType": "uint256",
              "name": "amount",
              "type": "uint256"
            },
            {
              "internalType": "address",
              "name": "zroPaymentAddress",
              "type": "address"
            },
            {
              "internalType": "uint256",
              "name": "extraGas",
              "type": "uint256"
            }
          ],
          "internalType": "struct ITapiocaOptionsBrokerCrossChain.IExerciseLZSendTapData",
          "name": "tapSendData",
          "type": "tuple"
        },
        {
          "internalType": "uint256",
          "name": "paymentTokenAmount",
          "type": "uint256"
        },
        {
          "components": [
            {
              "internalType": "bool",
              "name": "permitAll",
              "type": "bool"
            },
            {
              "internalType": "bool",
              "name": "allowFailure",
              "type": "bool"
            },
            {
              "internalType": "bool",
              "name": "yieldBoxTypeApproval",
              "type": "bool"
            },
            {
              "internalType": "uint16",
              "name": "actionType",
              "type": "uint16"
            },
            {
              "internalType": "address",
              "name": "target",
              "type": "address"
            },
            {
              "internalType": "bool",
              "name": "permitBorrow",
              "type": "bool"
            },
            {
              "internalType": "address",
              "name": "owner",
              "type": "address"
            },
            {
              "internalType": "address",
              "name": "spender",
              "type": "address"
            },
            {
              "internalType": "uint256",
              "name": "value",
              "type": "uint256"
            },
            {
              "internalType": "uint256",
              "name": "deadline",
              "type": "uint256"
            },
            {
              "internalType": "uint8",
              "name": "v",
              "type": "uint8"
            },
            {
              "internalType": "bytes32",
              "name": "r",
              "type": "bytes32"
            },
            {
              "internalType": "bytes32",
              "name": "s",
              "type": "bytes32"
            }
          ],
          "internalType": "struct ICommonData.IApproval[]",
          "name": "approvals",
          "type": "tuple[]"
        },
        {
          "internalType": "uint256",
          "name": "airdropAmount",
          "type": "uint256"
        }
      ],
      "name": "exerciseInternal",
      "outputs": [],
      "stateMutability": "nonpayable",
      "type": "function"
    },
    {
      "inputs": [
        {
          "internalType": "uint16",
          "name": "",
          "type": "uint16"
        },
        {
          "internalType": "bytes",
          "name": "",
          "type": "bytes"
        },
        {
          "internalType": "uint64",
          "name": "",
          "type": "uint64"
        }
      ],
      "name": "failedMessages",
      "outputs": [
        {
          "internalType": "bytes32",
          "name": "",
          "type": "bytes32"
        }
      ],
      "stateMutability": "view",
      "type": "function"
    },
    {
      "inputs": [
        {
          "internalType": "uint16",
          "name": "_srcChainId",
          "type": "uint16"
        },
        {
          "internalType": "bytes",
          "name": "_srcAddress",
          "type": "bytes"
        }
      ],
      "name": "forceResumeReceive",
      "outputs": [],
      "stateMutability": "nonpayable",
      "type": "function"
    },
    {
      "inputs": [
        {
          "internalType": "uint16",
          "name": "_version",
          "type": "uint16"
        },
        {
          "internalType": "uint16",
          "name": "_chainId",
          "type": "uint16"
        },
        {
          "internalType": "address",
          "name": "",
          "type": "address"
        },
        {
          "internalType": "uint256",
          "name": "_configType",
          "type": "uint256"
        }
      ],
      "name": "getConfig",
      "outputs": [
        {
          "internalType": "bytes",
          "name": "",
          "type": "bytes"
        }
      ],
      "stateMutability": "view",
      "type": "function"
    },
    {
      "inputs": [
        {
          "internalType": "uint16",
          "name": "_remoteChainId",
          "type": "uint16"
        }
      ],
      "name": "getTrustedRemoteAddress",
      "outputs": [
        {
          "internalType": "bytes",
          "name": "",
          "type": "bytes"
        }
      ],
      "stateMutability": "view",
      "type": "function"
    },
    {
      "inputs": [],
      "name": "hostChainID",
      "outputs": [
        {
          "internalType": "uint256",
          "name": "",
          "type": "uint256"
        }
      ],
      "stateMutability": "view",
      "type": "function"
    },
    {
      "inputs": [
        {
          "internalType": "address",
          "name": "spender",
          "type": "address"
        },
        {
          "internalType": "uint256",
          "name": "addedValue",
          "type": "uint256"
        }
      ],
      "name": "increaseAllowance",
      "outputs": [
        {
          "internalType": "bool",
          "name": "",
          "type": "bool"
        }
      ],
      "stateMutability": "nonpayable",
      "type": "function"
    },
    {
      "inputs": [
        {
          "internalType": "uint16",
          "name": "_srcChainId",
          "type": "uint16"
        },
        {
          "internalType": "bytes",
          "name": "_srcAddress",
          "type": "bytes"
        }
      ],
      "name": "isTrustedRemote",
      "outputs": [
        {
          "internalType": "bool",
          "name": "",
          "type": "bool"
        }
      ],
      "stateMutability": "view",
      "type": "function"
    },
    {
      "inputs": [],
      "name": "lzEndpoint",
      "outputs": [
        {
          "internalType": "contract ILayerZeroEndpoint",
          "name": "",
          "type": "address"
        }
      ],
      "stateMutability": "view",
      "type": "function"
    },
    {
      "inputs": [
        {
          "internalType": "uint16",
          "name": "_srcChainId",
          "type": "uint16"
        },
        {
          "internalType": "bytes",
          "name": "_srcAddress",
          "type": "bytes"
        },
        {
          "internalType": "uint64",
          "name": "_nonce",
          "type": "uint64"
        },
        {
          "internalType": "bytes",
          "name": "_payload",
          "type": "bytes"
        }
      ],
      "name": "lzReceive",
      "outputs": [],
      "stateMutability": "nonpayable",
      "type": "function"
    },
    {
      "inputs": [
        {
          "internalType": "uint16",
          "name": "",
          "type": "uint16"
        },
        {
          "internalType": "uint16",
          "name": "",
          "type": "uint16"
        }
      ],
      "name": "minDstGasLookup",
      "outputs": [
        {
          "internalType": "uint256",
          "name": "",
          "type": "uint256"
        }
      ],
      "stateMutability": "view",
      "type": "function"
    },
    {
      "inputs": [],
      "name": "name",
      "outputs": [
        {
          "internalType": "string",
          "name": "",
          "type": "string"
        }
      ],
      "stateMutability": "view",
      "type": "function"
    },
    {
      "inputs": [
        {
          "internalType": "uint16",
          "name": "_srcChainId",
          "type": "uint16"
        },
        {
          "internalType": "bytes",
          "name": "_srcAddress",
          "type": "bytes"
        },
        {
          "internalType": "uint64",
          "name": "_nonce",
          "type": "uint64"
        },
        {
          "internalType": "bytes",
          "name": "_payload",
          "type": "bytes"
        }
      ],
      "name": "nonblockingLzReceive",
      "outputs": [],
      "stateMutability": "nonpayable",
      "type": "function"
    },
    {
      "inputs": [],
      "name": "owner",
      "outputs": [
        {
          "internalType": "address",
          "name": "",
          "type": "address"
        }
      ],
      "stateMutability": "view",
      "type": "function"
    },
    {
      "inputs": [
        {
          "internalType": "uint16",
          "name": "",
          "type": "uint16"
        }
      ],
      "name": "payloadSizeLimitLookup",
      "outputs": [
        {
          "internalType": "uint256",
          "name": "",
          "type": "uint256"
        }
      ],
      "stateMutability": "view",
      "type": "function"
    },
    {
      "inputs": [],
      "name": "precrime",
      "outputs": [
        {
          "internalType": "address",
          "name": "",
          "type": "address"
        }
      ],
      "stateMutability": "view",
      "type": "function"
    },
    {
      "inputs": [],
      "name": "renounceOwnership",
      "outputs": [],
      "stateMutability": "nonpayable",
      "type": "function"
    },
    {
      "inputs": [
        {
          "internalType": "uint16",
          "name": "_srcChainId",
          "type": "uint16"
        },
        {
          "internalType": "bytes",
          "name": "_srcAddress",
          "type": "bytes"
        },
        {
          "internalType": "uint64",
          "name": "_nonce",
          "type": "uint64"
        },
        {
          "internalType": "bytes",
          "name": "_payload",
          "type": "bytes"
        }
      ],
      "name": "retryMessage",
      "outputs": [],
      "stateMutability": "payable",
      "type": "function"
    },
    {
      "inputs": [
        {
          "internalType": "address",
          "name": "_from",
          "type": "address"
        },
        {
          "internalType": "uint16",
          "name": "_dstChainId",
          "type": "uint16"
        },
        {
          "internalType": "bytes32",
          "name": "_toAddress",
          "type": "bytes32"
        },
        {
          "internalType": "uint256",
          "name": "_amount",
          "type": "uint256"
        },
        {
          "internalType": "bytes",
          "name": "_payload",
          "type": "bytes"
        },
        {
          "internalType": "uint64",
          "name": "_dstGasForCall",
          "type": "uint64"
        },
        {
          "components": [
            {
              "internalType": "address payable",
              "name": "refundAddress",
              "type": "address"
            },
            {
              "internalType": "address",
              "name": "zroPaymentAddress",
              "type": "address"
            },
            {
              "internalType": "bytes",
              "name": "adapterParams",
              "type": "bytes"
            }
          ],
          "internalType": "struct ICommonOFT.LzCallParams",
          "name": "_callParams",
          "type": "tuple"
        }
      ],
      "name": "sendAndCall",
      "outputs": [],
      "stateMutability": "payable",
      "type": "function"
    },
    {
      "inputs": [
        {
          "internalType": "address",
          "name": "_from",
          "type": "address"
        },
        {
          "internalType": "uint16",
          "name": "_dstChainId",
          "type": "uint16"
        },
        {
          "internalType": "bytes32",
          "name": "_toAddress",
          "type": "bytes32"
        },
        {
          "internalType": "uint256",
          "name": "_amount",
          "type": "uint256"
        },
        {
          "components": [
            {
              "internalType": "address payable",
              "name": "refundAddress",
              "type": "address"
            },
            {
              "internalType": "address",
              "name": "zroPaymentAddress",
              "type": "address"
            },
            {
              "internalType": "bytes",
              "name": "adapterParams",
              "type": "bytes"
            }
          ],
          "internalType": "struct ICommonOFT.LzCallParams",
          "name": "_callParams",
          "type": "tuple"
        }
      ],
      "name": "sendFrom",
      "outputs": [],
      "stateMutability": "payable",
      "type": "function"
    },
    {
      "inputs": [
        {
          "internalType": "uint16",
          "name": "_version",
          "type": "uint16"
        },
        {
          "internalType": "uint16",
          "name": "_chainId",
          "type": "uint16"
        },
        {
          "internalType": "uint256",
          "name": "_configType",
          "type": "uint256"
        },
        {
          "internalType": "bytes",
          "name": "_config",
          "type": "bytes"
        }
      ],
      "name": "setConfig",
      "outputs": [],
      "stateMutability": "nonpayable",
      "type": "function"
    },
    {
      "inputs": [
        {
          "internalType": "uint256",
          "name": "_slippage",
          "type": "uint256"
        }
      ],
      "name": "setMaxSlippage",
      "outputs": [],
      "stateMutability": "nonpayable",
      "type": "function"
    },
    {
      "inputs": [
        {
          "internalType": "uint16",
          "name": "_dstChainId",
          "type": "uint16"
        },
        {
          "internalType": "uint16",
          "name": "_packetType",
          "type": "uint16"
        },
        {
          "internalType": "uint256",
          "name": "_minGas",
          "type": "uint256"
        }
      ],
      "name": "setMinDstGas",
      "outputs": [],
      "stateMutability": "nonpayable",
      "type": "function"
    },
    {
      "inputs": [
        {
          "internalType": "uint16",
          "name": "_dstChainId",
          "type": "uint16"
        },
        {
          "internalType": "uint256",
          "name": "_size",
          "type": "uint256"
        }
      ],
      "name": "setPayloadSizeLimit",
      "outputs": [],
      "stateMutability": "nonpayable",
      "type": "function"
    },
    {
      "inputs": [
        {
          "internalType": "address",
          "name": "_precrime",
          "type": "address"
        }
      ],
      "name": "setPrecrime",
      "outputs": [],
      "stateMutability": "nonpayable",
      "type": "function"
    },
    {
      "inputs": [
        {
          "internalType": "uint16",
          "name": "_version",
          "type": "uint16"
        }
      ],
      "name": "setReceiveVersion",
      "outputs": [],
      "stateMutability": "nonpayable",
      "type": "function"
    },
    {
      "inputs": [
        {
          "internalType": "uint16",
          "name": "_version",
          "type": "uint16"
        }
      ],
      "name": "setSendVersion",
      "outputs": [],
      "stateMutability": "nonpayable",
      "type": "function"
    },
    {
      "inputs": [
        {
          "internalType": "uint16",
          "name": "_srcChainId",
          "type": "uint16"
        },
        {
          "internalType": "bytes",
          "name": "_path",
          "type": "bytes"
        }
      ],
      "name": "setTrustedRemote",
      "outputs": [],
      "stateMutability": "nonpayable",
      "type": "function"
    },
    {
      "inputs": [
        {
          "internalType": "uint16",
          "name": "_remoteChainId",
          "type": "uint16"
        },
        {
          "internalType": "bytes",
          "name": "_remoteAddress",
          "type": "bytes"
        }
      ],
      "name": "setTrustedRemoteAddress",
      "outputs": [],
      "stateMutability": "nonpayable",
      "type": "function"
    },
    {
      "inputs": [
        {
          "internalType": "bool",
          "name": "_useCustomAdapterParams",
          "type": "bool"
        }
      ],
      "name": "setUseCustomAdapterParams",
      "outputs": [],
      "stateMutability": "nonpayable",
      "type": "function"
    },
    {
      "inputs": [],
      "name": "sharedDecimals",
      "outputs": [
        {
          "internalType": "uint8",
          "name": "",
          "type": "uint8"
        }
      ],
      "stateMutability": "view",
      "type": "function"
    },
    {
      "inputs": [
        {
          "internalType": "bytes4",
          "name": "interfaceId",
          "type": "bytes4"
        }
      ],
      "name": "supportsInterface",
      "outputs": [
        {
          "internalType": "bool",
          "name": "",
          "type": "bool"
        }
      ],
      "stateMutability": "view",
      "type": "function"
    },
    {
      "inputs": [],
      "name": "symbol",
      "outputs": [
        {
          "internalType": "string",
          "name": "",
          "type": "string"
        }
      ],
      "stateMutability": "view",
      "type": "function"
    },
    {
      "inputs": [],
      "name": "token",
      "outputs": [
        {
          "internalType": "address",
          "name": "",
          "type": "address"
        }
      ],
      "stateMutability": "view",
      "type": "function"
    },
    {
      "inputs": [],
      "name": "totalSupply",
      "outputs": [
        {
          "internalType": "uint256",
          "name": "",
          "type": "uint256"
        }
      ],
      "stateMutability": "view",
      "type": "function"
    },
    {
      "inputs": [
        {
          "internalType": "address",
          "name": "to",
          "type": "address"
        },
        {
          "internalType": "uint256",
          "name": "amount",
          "type": "uint256"
        }
      ],
      "name": "transfer",
      "outputs": [
        {
          "internalType": "bool",
          "name": "",
          "type": "bool"
        }
      ],
      "stateMutability": "nonpayable",
      "type": "function"
    },
    {
      "inputs": [
        {
          "internalType": "address",
          "name": "from",
          "type": "address"
        },
        {
          "internalType": "address",
          "name": "to",
          "type": "address"
        },
        {
          "internalType": "uint256",
          "name": "amount",
          "type": "uint256"
        }
      ],
      "name": "transferFrom",
      "outputs": [
        {
          "internalType": "bool",
          "name": "",
          "type": "bool"
        }
      ],
      "stateMutability": "nonpayable",
      "type": "function"
    },
    {
      "inputs": [
        {
          "internalType": "address",
          "name": "newOwner",
          "type": "address"
        }
      ],
      "name": "transferOwnership",
      "outputs": [],
      "stateMutability": "nonpayable",
      "type": "function"
    },
    {
      "inputs": [
        {
          "internalType": "uint16",
          "name": "",
          "type": "uint16"
        }
      ],
      "name": "trustedRemoteLookup",
      "outputs": [
        {
          "internalType": "bytes",
          "name": "",
          "type": "bytes"
        }
      ],
      "stateMutability": "view",
      "type": "function"
    },
    {
      "inputs": [],
      "name": "useCustomAdapterParams",
      "outputs": [
        {
          "internalType": "bool",
          "name": "",
          "type": "bool"
        }
      ],
      "stateMutability": "view",
      "type": "function"
    },
    {
      "inputs": [],
      "name": "yieldBox",
      "outputs": [
        {
          "internalType": "contract IYieldBoxBase",
          "name": "",
          "type": "address"
        }
      ],
      "stateMutability": "view",
      "type": "function"
    },
    {
      "stateMutability": "payable",
      "type": "receive"
    }
  ],
  "bytecode": "0x60e06040908082523462000598576200571480380380916200002282856200059d565b833981016101008282031262000598576200003d82620005d7565b906020926200004e848201620005d7565b818601516001600160a01b03808216949290918590036200059857606084015196828816809803620005985760808501516001600160401b0394908581116200059857816200009f91880162000611565b9060a0870151908682116200059857620000bb91880162000611565b9160c087015160ff811696878203620005985762000116602b60e08f9b01519a5180966a546170696f63614f46542d60a81b878301526200010581518092898686019101620005ec565b810103600b8101875201856200059d565b607f8d518096601d60fa1b868301526200013a8151809288602186019101620005ec565b810103926200015460216001958681018a5201886200059d565b831c16936000958887549d60018060a01b03199e8f33908216178a55823391167f8be0079c531659141344cd1fd0a4f28419497f9722a3daafe3b4186f6b6457e08b80a3166080528560a05281518381116200058457600b54928584811c9416801562000579575b8785101462000565578190601f9485811162000511575b508790858311600114620004ab578a926200049f575b5050600019600383901b1c191690851b17600b555b80519283116200048b57600c548481811c9116801562000480575b868210146200046c5782811162000423575b5084918311600114620003bd579282939183928894620003b1575b50501b916000199060031b1c191617600c555b601282116200035e575060120360ff81116200034a5760ff1690604d8211620003365750600a0a60c0526101f46012551684600f541617600f5560ff19601154161760115560105581600d541617600d55600e541617600e55516150a790816200066d823960805181818161049c0152818161077d015281816108ac01528181610a2601528181610bef01528181611ff40152818161210401528181612802015281816140ec0152614552015260a05181611a76015260c0518181816117890152818161432001528181614731015281816149730152614a0a0152f35b634e487b7160e01b81526011600452602490fd5b634e487b7160e01b82526011600452602482fd5b6084908b519062461bcd60e51b82526004820152602760248201527f4f46543a20736861726564446563696d616c73206d757374206265203c3d20646044820152666563696d616c7360c81b6064820152fd5b01519250388062000246565b600c8752848720919083601f198116895b88888383106200040b5750505010620003f1575b505050811b01600c5562000259565b015160001960f88460031b161c19169055388080620003e2565b868601518855909601959485019487935001620003ce565b600c88528588208380860160051c82019288871062000462575b0160051c019085905b828110620004565750506200022b565b89815501859062000446565b925081926200043d565b634e487b7160e01b88526022600452602488fd5b90607f169062000219565b634e487b7160e01b87526041600452602487fd5b015190503880620001e9565b600b8b52888b208894509190601f1984168c5b8b828210620004fa5750508411620004e0575b505050811b01600b55620001fe565b015160001960f88460031b161c19169055388080620004d1565b8385015186558b97909501949384019301620004be565b909150600b8a52878a208580850160051c8201928a86106200055b575b918991869594930160051c01915b8281106200054c575050620001d3565b8c81558594508991016200053c565b925081926200052e565b634e487b7160e01b89526022600452602489fd5b93607f1693620001bc565b634e487b7160e01b88526041600452602488fd5b600080fd5b601f909101601f19168101906001600160401b03821190821017620005c157604052565b634e487b7160e01b600052604160045260246000fd5b51906001600160a01b03821682036200059857565b60005b838110620006005750506000910152565b8181015183820152602001620005ef565b81601f82011215620005985780516001600160401b038111620005c1576040519262000648601f8301601f1916602001856200059d565b818452602082840101116200059857620006699160208085019101620005ec565b9056fe6080604052600436101561001b575b361561001957600080fd5b005b60003560e01c80621d3567146103bf57806254af3a146103ba57806301ffc9a7146103b557806306fdde03146103b057806307e0db17146103ab578063095ea7b3146103a65780630df37483146103a157806310ddb1371461039c57806318160ddd1461032957806323b872dd14610397578063313ce56714610392578063365260b41461038d57806339509351146103885780633d8b38f6146103835780633f1f4fa41461037e57806342d65a8d1461037957806343f68a4914610374578063447705151461036f5780634c42899a1461036f5780635b8c41e61461036a57806366ad5c8a14610365578063695ef6bf1461036057806370a082311461035b578063715018a6146103565780637533d7881461035157806376203b481461034c578063785e9e86146103475780637a5c41d21461034257806381618d051461033d578063857749b0146103385780638cfd8f5c146103335780638da5cb5b1461032e5780639358928b14610329578063950c8a741461032457806395d89b411461031f5780639bdb98121461031a5780639f38369a14610315578063a457c2d714610310578063a4c51df51461030b578063a643c52e14610306578063a6c3d16514610301578063a9059cbb146102fc578063b353aaa7146102f7578063baf3292d146102f2578063c4461834146102ed578063cbed8b9c146102e8578063d1deba1f146102e3578063dbd01de1146102de578063dd62ed3e146102d9578063de406577146102d4578063df2a5b3b146102cf578063e6a20ae6146102ca578063eab45d9c146102c5578063eaffd49a146102c0578063eb8d72b7146102bb578063ed629c5c146102b6578063f2fde38b146102b1578063f5ecbdbc146102ac5763fc0c546a0361000e5761286c565b612798565b6126d1565b6126ae565b612564565b6124db565b612479565b61245d565b612370565b612347565b6122fd565b6122d4565b61219c565b6120b0565b612093565b612023565b611fde565b611fb4565b611e31565b611e13565b611d7c565b611cd0565b611c2d565b611be2565b611b3e565b611b15565b61090d565b611aec565b611a9a565b611a5c565b6116b6565b6115c9565b611440565b611210565b6111b9565b611073565b611036565b610f53565b610ebf565b610e6b565b610c77565b610c56565b610bd5565b610b9c565b610b2c565b610aa4565b61099c565b61096b565b61092b565b610883565b610844565b61080f565b610754565b610674565b6105c2565b6105a4565b610485565b61ffff8116036103d057565b600080fd5b35906103e0826103c4565b565b9181601f840112156103d0578235916001600160401b0383116103d057602083818601950101116103d057565b6001600160401b038116036103d057565b9060806003198301126103d057600435610439816103c4565b916001600160401b03906024358281116103d0578161045a916004016103e2565b9390939260443561046a8161040f565b926064359182116103d057610481916004016103e2565b9091565b346103d05761049336610420565b929493919291907f00000000000000000000000000000000000000000000000000000000000000006001600160a01b031633036105545761051961052192610019976105126104f86104f38a61ffff166000526001602052604060002090565b61119e565b805190818414918261054a575b5081610527575b50613d5f565b3691610d96565b923691610d96565b92613e80565b9050610534368486610d96565b602081519101209060208151910120143861050c565b1515915038610505565b60405162461bcd60e51b815260206004820152601e60248201527f4c7a4170703a20696e76616c696420656e64706f696e742063616c6c657200006044820152606490fd5b60009103126103d057565b346103d05760003660031901126103d0576020601054604051908152f35b346103d05760203660031901126103d05760043563ffffffff60e01b81168091036103d057602090631f7ecdf760e01b8114908115610607575b506040519015158152f35b6301ffc9a760e01b149050386105fc565b60005b83811061062b5750506000910152565b818101518382015260200161061b565b9060209161065481518092818552858086019101610618565b601f01601f1916010190565b90602061067192818152019061063b565b90565b346103d0576000806003193601126107515760405181600b54610696816110ce565b8084529060019081811690811561072957506001146106d0575b6106cc846106c081880382610d2d565b60405191829182610660565b0390f35b600b8352602094507f0175b7a638427703f0dbe7bb9bbf987a2551717b34e79f33b5b1008d1fa01db95b82841061071657505050816106cc936106c092820101936106b0565b80548585018701529285019281016106fa565b6106cc96506106c09450602092508593915060ff191682840152151560051b820101936106b0565b80fd5b346103d0576000602036600319011261075157600435610773816103c4565b61077b612887565b7f00000000000000000000000000000000000000000000000000000000000000006001600160a01b0316908290823b156107ef57602461ffff918360405195869485936307e0db1760e01b85521660048401525af180156107ea576107de575080f35b6107e790610ca9565b80f35b612f69565b5080fd5b6001600160a01b038116036103d057565b35906103e0826107f3565b346103d05760403660031901126103d05761083960043561082f816107f3565b6024359033612ad1565b602060405160018152f35b346103d05760403660031901126103d05761ffff600435610864816103c4565b61086c612887565b166000526003602052602435604060002055600080f35b346103d05760006020366003190112610751576004356108a2816103c4565b6108aa612887565b7f00000000000000000000000000000000000000000000000000000000000000006001600160a01b0316908290823b156107ef57602461ffff918360405195869485936310ddb13760e01b85521660048401525af180156107ea576107de575080f35b346103d05760003660031901126103d0576020600a54604051908152f35b346103d05760603660031901126103d05761083960043561094b816107f3565b602435610957816107f3565b60443591610966833383612bea565b612a02565b346103d05760003660031901126103d057602060405160128152f35b801515036103d057565b35906103e082610987565b346103d05760a03660031901126103d0576004356109b9816103c4565b606435906109c682610987565b608435906001600160401b0382116103d0576109eb61051260409336906004016103e2565b90610a22610a056109fd604435614971565b602435614a3f565b928451958694859463040a7bb160e41b8652309060048701614275565b03817f00000000000000000000000000000000000000000000000000000000000000006001600160a01b03165afa9081156107ea576000908192610a73575b50604080519182526020820192909252f35b9050610a96915060403d8111610a9d575b610a8e8183610d2d565b81019061425f565b9038610a61565b503d610a84565b346103d05760403660031901126103d057600435610ac1816107f3565b336000526009602052610ad88160406000206128f9565b546024358101809111610aef576108399133612ad1565b612910565b9060406003198301126103d057600435610b0d816103c4565b91602435906001600160401b0382116103d057610481916004016103e2565b346103d057602061ffff610b79610b4236610af4565b9390911660005260018452610b64610b6b604060002060405192838092611108565b0382610d2d565b848151910120923691610d96565b82815191012014604051908152f35b61ffff166000526007602052604060002090565b346103d05760203660031901126103d05761ffff600435610bbc816103c4565b1660005260036020526020604060002054604051908152f35b346103d057610be336610af4565b9190610bed612887565b7f00000000000000000000000000000000000000000000000000000000000000006001600160a01b031691823b156103d057604051928380926342d65a8d60e01b825281610c446000988997889460048501613e11565b03925af180156107ea576107de575080f35b346103d05760203660031901126103d057610c6f612887565b600435601255005b346103d05760003660031901126103d057602060405160008152f35b634e487b7160e01b600052604160045260246000fd5b6001600160401b038111610cbc57604052565b610c93565b60c081019081106001600160401b03821117610cbc57604052565b606081019081106001600160401b03821117610cbc57604052565b608081019081106001600160401b03821117610cbc57604052565b604081019081106001600160401b03821117610cbc57604052565b90601f801991011681019081106001600160401b03821117610cbc57604052565b604051906101a082018281106001600160401b03821117610cbc57604052565b604051906103e082610cdc565b6001600160401b038111610cbc57601f01601f191660200190565b929192610da282610d7b565b91610db06040519384610d2d565b8294818452818301116103d0578281602093846000960137010152565b9080601f830112156103d05781602061067193359101610d96565b9060606003198301126103d057600435610e01816103c4565b91602435906001600160401b0382116103d057610e2091600401610dcd565b906044356106718161040f565b602090610e47928260405194838680955193849201610618565b82019081520301902090565b906001600160401b0316600052602052604060002090565b346103d0576020610eb661ffff610ea883610e8536610de8565b949091166000526005825260406000208260405194838680955193849201610618565b820190815203019020610e53565b54604051908152f35b346103d057610ecd36610420565b9192949390303303610ef157610519610eeb92610019973691610d96565b926142b9565b60405162461bcd60e51b815260206004820152602660248201527f4e6f6e626c6f636b696e674c7a4170703a2063616c6c6572206d7573742062656044820152650204c7a4170760d41b6064820152608490fd5b908160609103126103d05790565b60a03660031901126103d057600435610f6b816107f3565b602435610f77816103c4565b604435916084356001600160401b0381116103d057602061ffff610fae600080516020615012833981519152933690600401610f45565b936110218535610fbd816107f3565b610fdb6105128689013598610fd18a6107f3565b604081019061406a565b610fe5818a614873565b610ffa610ff3606435614a08565b5085614bfd565b9761100689151561446e565b6110186110128a614971565b8c614a3f565b9234938b61450e565b6040519485526001600160a01b0316941692a4005b346103d05760203660031901126103d057600435611053816107f3565b60018060a01b031660005260086020526020604060002054604051908152f35b346103d0576000806003193601126107515761108d612887565b80546001600160a01b03198116825581906001600160a01b03167f8be0079c531659141344cd1fd0a4f28419497f9722a3daafe3b4186f6b6457e08280a380f35b90600182811c921680156110fe575b60208310146110e857565b634e487b7160e01b600052602260045260246000fd5b91607f16916110dd565b9060009291805491611119836110ce565b91828252600193848116908160001461117b575060011461113b575b50505050565b90919394506000526020928360002092846000945b838610611167575050505001019038808080611135565b805485870183015294019385908201611150565b9294505050602093945060ff191683830152151560051b01019038808080611135565b906103e06111b29260405193848092611108565b0383610d2d565b346103d05760203660031901126103d05761ffff6004356111d9816103c4565b1660005260016020526106cc610b646111fc604060002060405192838092611108565b60405191829160208352602083019061063b565b60e03660031901126103d057600435611228816107f3565b602435611234816103c4565b604435916001600160401b03906084358281116103d0576112599036906004016103e2565b91909260a435916112698361040f565b60c4358281116103d057611281903690600401610f45565b926112b8843595611291876107f3565b6112b06112a6602088013597610fd1896107f3565b9990923691610d96565b973691610d96565b9460ff600654166000146113ac5760228651106113685785602095611018611021946113368c61132361ffff9a8b60226000805160206150128339815191529f0151931660005260028d52841661131d60406000206001600052602052604060002090565b54612942565b9061132f8215156148c8565b1015614911565b61134b611344606435614a08565b5088614bfd565b9a6113578c151561446e565b8d6113618d614971565b9033614aba565b60405162461bcd60e51b815260206004820152601c60248201527b4c7a4170703a20696e76616c69642061646170746572506172616d7360201b6044820152606490fd5b9480949350516113d9576000805160206150128339815191529460209461ffff9461101861102194611336565b60405162461bcd60e51b815260206004820152602660248201527f4f4654436f72653a205f61646170746572506172616d73206d7573742062652060448201526532b6b83a3c9760d11b6064820152608490fd5b6001600160a01b03909116815260200190565b346103d05760003660031901126103d057600f546040516001600160a01b039091168152602090f35b6001600160401b038111610cbc5760051b60200190565b60ff8116036103d057565b35906103e082611480565b81601f820112156103d0578035906114ad82611469565b926040906114bd82519586610d2d565b83855260209182860191836101a0809702860101948186116103d0578401925b8584106114ee575050505050505090565b86848303126103d057848791611502610d4e565b61150b87610991565b8152611518838801610991565b83820152611527868801610991565b8682015260606115388189016103d5565b908201526080611549818901610804565b9082015260a061155a818901610991565b9082015260c061156b818901610804565b9082015260e061157c818901610804565b90820152610100808801359082015261012080880135908201526101406115a481890161148b565b90820152610160808801359082015261018080880135908201528152019301926114dd565b346103d0576101e03660031901126103d0576004356115e7816107f3565b6024356115f3816107f3565b60643590611600826107f3565b60a4359261160d846107f3565b60c03660c31901126103d05760405161162581610cc1565b60c43561163181610987565b815260e43561163f816107f3565b602082015261010435611651816103c4565b60408201526101243560608201526101443561166c816107f3565b60808201526101643560a08201526101a435946001600160401b0386116103d05761169e610019963690600401611496565b936101c4359561018435946084359260443591613399565b346103d05760a03660031901126103d0576116d26004356107f3565b6116dd6024356103c4565b6044356001600160401b0381116103d0576116fc903690600401610dcd565b61170760643561040f565b6084356001600160401b0381116103d057611726903690600401610dcd565b30331480611a04575b61173890612c7a565b61174b6020825183010160208301612e87565b919593909450611767602087989498015160018060a01b031690565b6001600160a01b03811661194d575b506000916117af83926001600160401b037f000000000000000000000000000000000000000000000000000000000000000091166149f5565b60408901526117bd306128df565b54966117ef6117eb6117e46064356117df6117d9602435610b88565b8a610e2d565b610e53565b5460ff1690565b1590565b611910575b611874611800306128df565b548a5160608c015160808d0151929a6001600160a01b03928316969193611866938f91169660a0820151916040611840602083015160018060a01b031690565b91015192604051998a9860208a019c8d633d2e20e960e11b905260043560248c0161309d565b03601f198101835282610d2d565b51906004355af49261188461313c565b93156118c2575b855160408088015190519081526001600160a01b039091169061ffff602435169060008051602061503283398151915290602090a3005b6118ea946118cf9161318a565b6040860151809110156118f4575b5060643590602435613f14565b388080808061188b565b855161190a91906001600160a01b031630613197565b386118dd565b61191e60408a015130614d13565b61194861193b6064356117df611935602435610b88565b89610e2d565b805460ff19166001179055565b6117f4565b600e5491926119a9929091602091611975906001600160a01b03165b6001600160a01b031690565b604051633a304d8b60e21b8152600060048201526001600160a01b0390921660248301529093849190829081906044820190565b03915afa80156107ea576000936119cc6117af92869586916119d5575b50612f75565b92505091611776565b6119f7915060203d6020116119fd575b6119ef8183610d2d565b810190612f54565b386119c6565b503d6119e5565b5060096000526013602052611738611a447f76aa7d3cd4f559a3c98822aa7e1c37143eb9f80ceff73a5023a8fc3d6d44af615b546001600160a01b031690565b6004356001600160a01b03908116911614905061172f565b346103d05760003660031901126103d057602060405160ff7f0000000000000000000000000000000000000000000000000000000000000000168152f35b346103d05760403660031901126103d0576020610eb6600435611abc816103c4565b61ffff60243591611acc836103c4565b166000526002835260406000209061ffff16600052602052604060002090565b346103d05760003660031901126103d0576000546040516001600160a01b039091168152602090f35b346103d05760003660031901126103d0576004546040516001600160a01b039091168152602090f35b346103d0576000806003193601126107515760405181600c54611b60816110ce565b808452906001908181169081156107295750600114611b89576106cc846106c081880382610d2d565b600c8352602094507fdf6966c971051c3d54ec59162606531493a51404a002842f56009d7e5cf4a8c75b828410611bcf57505050816106cc936106c092820101936106b0565b8054858501870152928501928101611bb3565b346103d057602060ff611c2161ffff610ea884611bfe36610de8565b949091166000526007825260406000208260405194838680955193849201610618565b54166040519015158152f35b346103d05760203660031901126103d05761ffff600435611c4d816103c4565b166000526001602052610b64611c6d604060002060405192838092611108565b805115611c8b576106c081611c856106cc935161316c565b90614e17565b60405162461bcd60e51b815260206004820152601d60248201527f4c7a4170703a206e6f20747275737465642070617468207265636f72640000006044820152606490fd5b346103d05760403660031901126103d057600435611ced816107f3565b60243590336000526009602052611d088160406000206128f9565b5491808310611d2957611d1d92039033612ad1565b60405160018152602090f35b60405162461bcd60e51b815260206004820152602560248201527f45524332303a2064656372656173656420616c6c6f77616e63652062656c6f77604482015264207a65726f60d81b6064820152608490fd5b346103d05760e03660031901126103d057600435611d99816103c4565b6001600160401b03906064358281116103d057611dba9036906004016103e2565b608492919235611dc98161040f565b60a43591611dd683610987565b60c4359586116103d057611df1611e019636906004016103e2565b959094604435906024359061409c565b60408051928352602083019190915290f35b346103d05760003660031901126103d0576020601254604051908152f35b346103d057611e3f36610af4565b90611e48612887565b60405192602092808385870137611e746034868381013060601b88820152036014810188520186610d2d565b60009361ffff8316855260019081815260408620918751916001600160401b038311610cbc57611eae83611ea886546110ce565b86613e2c565b80601f8411600114611f1e575091808092611f0d9695948a9b7f8c0400cfe2d1199b1a725c78960bcc2a344d869b80590d0f2bd005db15a572ce9b94611f13575b50501b916000199060031b1c19161790555b60405193849384613e11565b0390a180f35b015192503880611eef565b91939498601f198416611f3687600052602060002090565b938a905b828210611f9d575050917f8c0400cfe2d1199b1a725c78960bcc2a344d869b80590d0f2bd005db15a572ce999a95939185611f0d98969410611f84575b505050811b019055611f01565b015160001960f88460031b161c19169055388080611f77565b808886978294978701518155019601940190611f3a565b346103d05760403660031901126103d057610839600435611fd4816107f3565b6024359033612a02565b346103d05760003660031901126103d0576040517f00000000000000000000000000000000000000000000000000000000000000006001600160a01b03168152602090f35b346103d05760203660031901126103d0577f5db758e995a17ec1ad84bdef7e8c3293a0bd6179bcce400dff5d4c3d87db726b6020600435612063816107f3565b61206b612887565b600480546001600160a01b0319166001600160a01b03929092169182179055604051908152a1005b346103d05760003660031901126103d05760206040516127108152f35b346103d05760803660031901126103d0576004356120cd816103c4565b6024356120d9816103c4565b6064356001600160401b0381116103d0576120f89036906004016103e2565b9092612102612887565b7f00000000000000000000000000000000000000000000000000000000000000006001600160a01b031690813b156103d05760008094612179604051978896879586946332fb62e760e21b865261ffff80921660048701521660248501526044356044850152608060648501526084840191613df0565b03925af180156107ea5761218957005b8061219661001992610ca9565b80610599565b6121a536610420565b9161ffff869492961660005260056020526121d981604060002060206040518092878b833787820190815203019020610e53565b5491821561228357612272848361226b7fc264d91f3adc5588250e1551f547752ca0cfa8f6b530d243b9f9f4cab10ea8e59a6000612257846117df8e8a8f61227e9f908f61223d906122306122519436908d610d96565b6020815191012014613fdd565b61ffff166000526005602052604060002090565b91613fc4565b5561226336878d610d96565b933691610d96565b91886142b9565b60405195869586614033565b0390a1005b60405162461bcd60e51b815260206004820152602360248201527f4e6f6e626c6f636b696e674c7a4170703a206e6f2073746f726564206d65737360448201526261676560e81b6064820152608490fd5b346103d05760003660031901126103d057600e546040516001600160a01b039091168152602090f35b346103d05760403660031901126103d0576020610eb660043561231f816107f3565b6024359061232c826107f3565b6001600160a01b0316600090815260098452604090206128f9565b346103d05760003660031901126103d057600d546040516001600160a01b039091168152602090f35b346103d05760603660031901126103d05760043561238d816103c4565b602435612399816103c4565b604435916123a5612887565b82156124205761227e7f9d5c7c0b934da8fefa9c7760c98383778a12dfbfc0c3b3106518f43fb9508ac09361ffff83166000526002602052806123fa8560406000209061ffff16600052602052604060002090565b556040519384938460409194939294606082019561ffff80921683521660208201520152565b60405162461bcd60e51b81526020600482015260156024820152744c7a4170703a20696e76616c6964206d696e47617360581b6044820152606490fd5b346103d05760003660031901126103d057602060405160018152f35b346103d05760203660031901126103d0577f1584ad594a70cbe1e6515592e1272a987d922b097ead875069cebe8b40c004a460206004356124b981610987565b6124c1612887565b151560ff196006541660ff821617600655604051908152a1005b346103d0576101003660031901126103d0576004356124f9816103c4565b6001600160401b03906024358281116103d05761251a9036906004016103e2565b9190604435906125298261040f565b608435612535816107f3565b60c4359586116103d0576125506100199636906004016103e2565b94909360e4359660a4359460643593614192565b346103d05761257236610af4565b919061257c612887565b60009161ffff81168352600160209080825260408520916001600160401b038711610cbc576125b5876125af85546110ce565b85613e2c565b8590601f881160011461261c5750918680879893611f0d957ffa41487ad5d6728f0b19276fa1eddc16558578f5109fc39d2dc33c3230470dab9993612611575b501b906000198460031b1c191617905560405193849384613e11565b8801359250386125f5565b90601f19881661263185600052602060002090565b9288905b828210612697575050918893917ffa41487ad5d6728f0b19276fa1eddc16558578f5109fc39d2dc33c3230470dab9899611f0d96941061267d575b505082811b019055611f01565b870135600019600386901b60f8161c191690553880612670565b808685968294968c01358155019501930190612635565b346103d05760003660031901126103d057602060ff600654166040519015158152f35b346103d05760203660031901126103d0576004356126ee816107f3565b6126f6612887565b6001600160a01b03908116801561274457600080546001600160a01b03198116831782559092167f8be0079c531659141344cd1fd0a4f28419497f9722a3daafe3b4186f6b6457e08380a380f35b60405162461bcd60e51b815260206004820152602660248201527f4f776e61626c653a206e6577206f776e657220697320746865207a65726f206160448201526564647265737360d01b6064820152608490fd5b346103d05760803660031901126103d0576004356127b5816103c4565b602435906127c2826103c4565b6127cd6044356107f3565b604051633d7b2f6f60e21b815261ffff91821660048201529116602482015230604482015260648035908201526000816084817f00000000000000000000000000000000000000000000000000000000000000006001600160a01b03165afa80156107ea576106cc9160009161284b575b5060405191829182610660565b612866913d8091833e61285e8183610d2d565b810190613dba565b3861283e565b346103d05760003660031901126103d0576020604051308152f35b6000546001600160a01b0316330361289b57565b606460405162461bcd60e51b815260206004820152602060248201527f4f776e61626c653a2063616c6c6572206973206e6f7420746865206f776e65726044820152fd5b6001600160a01b0316600090815260086020526040902090565b9060018060a01b0316600052602052604060002090565b634e487b7160e01b600052601160045260246000fd5b90601f8201809211610aef57565b6051019081605111610aef57565b91908201809211610aef57565b1561295657565b60405162461bcd60e51b815260206004820152602360248201527f45524332303a207472616e7366657220746f20746865207a65726f206164647260448201526265737360e81b6064820152608490fd5b156129ae57565b60405162461bcd60e51b815260206004820152602660248201527f45524332303a207472616e7366657220616d6f756e7420657863656564732062604482015265616c616e636560d01b6064820152608490fd5b916001600160a01b038084169290918315612a7e57612a638260008051602061505283398151915294612a79941696612a3c88151561294f565b612a5d84612a49836128df565b54612a56828210156129a7565b03916128df565b556128df565b8054820190556040519081529081906020820190565b0390a3565b60405162461bcd60e51b815260206004820152602560248201527f45524332303a207472616e736665722066726f6d20746865207a65726f206164604482015264647265737360d81b6064820152608490fd5b6001600160a01b038082169291908315612b99578216938415612b495780612b387f8c5be1e5ebec7d5bd14f71427d1e84f3dd0314c0f7b2291e5b200ac8c7c3b92594612b33612a799560018060a01b03166000526009602052604060002090565b6128f9565b556040519081529081906020820190565b60405162461bcd60e51b815260206004820152602260248201527f45524332303a20617070726f766520746f20746865207a65726f206164647265604482015261737360f01b6064820152608490fd5b60405162461bcd60e51b8152602060048201526024808201527f45524332303a20617070726f76652066726f6d20746865207a65726f206164646044820152637265737360e01b6064820152608490fd5b9060018060a01b0382166000526009602052612c0a8160406000206128f9565b549260018401612c1a5750505050565b808410612c3557612c2c930391612ad1565b38808080611135565b60405162461bcd60e51b815260206004820152601d60248201527f45524332303a20696e73756666696369656e7420616c6c6f77616e63650000006044820152606490fd5b15612c8157565b60405162461bcd60e51b815260206004820152600b60248201526a2a27a32a2fa1a0a62622a960a91b6044820152606490fd5b51906103e0826103c4565b51906103e0826107f3565b51906103e082610987565b91908260c09103126103d057604051612ced81610cc1565b60a08082948051612cfd81610987565b84526020810151612d0d816107f3565b60208501526040810151612d20816103c4565b6040850152606081015160608501526080810151612d3d816107f3565b60808501520151910152565b51906103e082611480565b81601f820112156103d057805190612d6b82611469565b92604090612d7b82519586610d2d565b83855260209182860191836101a0809702860101948186116103d0578401925b858410612dac575050505050505090565b86848303126103d057848791612dc0610d4e565b612dc987612cca565b8152612dd6838801612cca565b83820152612de5868801612cca565b868201526060612df6818901612cb4565b908201526080612e07818901612cbf565b9082015260a0612e18818901612cca565b9082015260c0612e29818901612cbf565b9082015260e0612e3a818901612cbf565b9082015261010080880151908201526101208088015190820152610140612e62818901612d49565b9082015261016080880151908201526101808088015190820152815201930192612d9b565b918282039161020083126103d0578351612ea0816103c4565b9360c06020820151612eb18161040f565b94603f1901126103d057604051612ec781610cc1565b6040820151612ed5816107f3565b81526060820151612ee5816107f3565b60208201526080820151604082015260a0820151606082015260c0820151612f0c816107f3565b608082015260e082015160a082015292612f2a836101008401612cd5565b926101c08301516001600160401b0381116103d0576101e091612f4e918501612d54565b92015190565b908160209103126103d0575161067181610987565b6040513d6000823e3d90fd5b15612f7c57565b60405162461bcd60e51b81526020600482015260116024820152701513d19517d5539055551213d492569151607a1b6044820152606490fd5b90815180825260208080930193019160005b828110612fd5575050505090565b90919293826101a06001928751612fee82825115159052565b8084015115158285015260408181015115159083015260608181015161ffff16908301526080818101516001600160a01b03169083015260a08181015115159083015260c0818101516001600160a01b03169083015260e0818101516001600160a01b031690830152610100818101519083015261012080820151908301526101408082015160ff16908301526101608181015190830152610180908101519082015201950193929101612fc7565b9a9998956101c098958c60606131379a96959460a0986001808b1b039788809881809516875216602086015260408501521691015260808d015216838b01528151151560c08b01528060208301511660e08b015261ffff6040830151166101008b015260608201516101208b01526080820151166101408a015201516101608801526101808701526101e0806101a0880152860190612fb5565b930152565b3d15613167573d9061314d82610d7b565b9161315b6040519384610d2d565b82523d6000602084013e565b606090565b601319810191908211610aef57565b605019810191908211610aef57565b91908203918211610aef57565b919061322191600080604051936020968786019463a9059cbb60e01b865260018060a01b0380931660248801526044870152604486526131d686610cf7565b1692604051946131e586610d12565b8786527f5361666545524332303a206c6f772d6c6576656c2063616c6c206661696c656488870152519082855af161321b61313c565b9161329d565b8051908161322e57505050565b828061323e938301019101612f54565b156132465750565b6084906040519062461bcd60e51b82526004820152602a60248201527f5361666545524332303a204552433230206f7065726174696f6e20646964206e6044820152691bdd081cdd58d8d9595960b21b6064820152fd5b919290156132ff57508151156132b1575090565b3b156132ba5790565b60405162461bcd60e51b815260206004820152601d60248201527f416464726573733a2063616c6c20746f206e6f6e2d636f6e74726163740000006044820152606490fd5b8251909150156133125750805190602001fd5b60405162461bcd60e51b815290819061332e9060048301610660565b0390fd5b908160209103126103d0575190565b939061067195916101009461ffff60409560018060a01b03809516895216602088015284870152606086015260a060808601528082511660a086015260208201511660c0850152015191606060e0820152019061063b565b6133b8909994979299989193969598303314908161362e575b50612c7a565b805161361f575b50604080516370a0823160e01b80825260209a92996001600160a01b0398808a169492939192918d81806133f6306004830161142d565b0381895afa9384156107ea578b918f600096613600575b50501691823b156103d0578c5163286fbdcd60e21b815260048101919091526001600160a01b03919091166024820152604481018b9052906000908290606490829084905af180156107ea576135ed575b5089519182528a8280613474306004830161142d565b0381865afa80156107ea5785926000916135c0575b5080821161358c575b50505050506134a18351151590565b1561356657828701516134be90611969906001600160a01b031681565b936134cd8785015161ffff1690565b91169261351a6134f360a06134eb608085015160018060a01b031690565b930151613d3f565b916134fc610d6e565b6001600160a01b0387168152996001600160a01b03909116908a0152565b86880152833b156103d057613547600096519788968795869463695ef6bf60e01b86523060048701613341565b03925af180156107ea57613559575b50565b806121966103e092610ca9565b91909501516103e095509293509161358791506001600160a01b0316611969565b613197565b6135959161318a565b928084106135a4575b80613492565b6135b7936135b19161318a565b91613197565b3880828161359e565b6135e091508c8d3d106135e6575b6135d88183610d2d565b810190613332565b38613489565b503d6135ce565b806121966135fa92610ca9565b3861345e565b613617929650803d106135e6576135d88183610d2d565b93388f61340d565b61362890613789565b386133bf565b6009600052601360205290506136637f76aa7d3cd4f559a3c98822aa7e1c37143eb9f80ceff73a5023a8fc3d6d44af61611a37565b6001600160a01b03908116911614386133b2565b805182101561368b5760209160051b010190565b634e487b7160e01b600052603260045260246000fd5b156136a857565b60405162461bcd60e51b815260206004820152600b60248201526a2a27a32a2fa0a1aa24a7a760a91b6044820152606490fd5b9061ffff6136f660209295949560408552604085019061063b565b9416910152565b60009060033d1161370a57565b905060046000803e60005160e01c90565b600060443d1061067157604051600319913d83016004833e81516001600160401b03918282113d60248401111761377857818401948551938411613780573d85010160208487010111613778575061067192910160200190610d2d565b949350505050565b50949350505050565b9060005b8251811015613a185760406137ae816137a68487613677565b510151151590565b156137d05750806137ca6137c460019386613677565b51613b00565b0161378d565b60606137fa61030961ffff6137f3846137e9888b613677565b51015161ffff1690565b16146136a1565b61380960a06137a68588613677565b61382760c06138188689613677565b5101516001600160a01b031690565b916138f861383a60e0613818888b613677565b936138ea61010061384b898c613677565b5101518a61012061385c8b83613677565b51015161387861014061386f8d85613677565b51015160ff1690565b906101806138968d61016061388d8288613677565b51015195613677565b510151938b519a8b9760209b8c8a0194909897969360e0969260ff9461010088019b1515885260018060a01b038092166020890152166040870152606086015260808501521660a083015260c08201520152565b03601f198101855284610d2d565b61391b61391061196961196960806138188a8d613677565b916137e9878a613677565b90803b156103d0576139496000929183928751948580948193631221baf960e31b835260049a8b84016136db565b03925af19081613a05575b506139735760016139636136fd565b6308c379a0146139bd575b61397e575b5050506001906137ca565b6139976117eb61398c61313c565b926137a6878a613677565b15613973576139a861332e91613a52565b925162461bcd60e51b81529283928301610660565b6139c561371b565b806139d1575b5061396e565b600091506139e66117eb846137a6898c613677565b156139cb57845162461bcd60e51b815290819061332e90828701610660565b80612196613a1292610ca9565b38613954565b509050565b90929192613a2a81610d7b565b91613a386040519384610d2d565b8294828452828201116103d05760206103e0930190610618565b6103e8815111613ad3576044815110613aad576004810151810190602081602484019303126103d0576024810151906001600160401b0382116103d0570190806043830112156103d057602482015161067192604401613a1d565b50604051613aba81610d12565b6009815268544f46545f6461746160b81b602082015290565b50604051613ae081610d12565b601081526f2a27a32a2fa627a723afa922a0a9a7a760811b602082015290565b805115613c76576080810151613b2090611969906001600160a01b031681565b60c08201516001600160a01b031660e08301516001600160a01b03169161012084015190613b5361014086015160ff1690565b936101608601519361018087015190833b156103d05760405163aba0784760e01b81526001600160a01b03918216600482015292166024830152604482019390935260ff9094166064850152608484019290925260a4830152600090829081838160c481015b03925af19081613c63575b50613556576001613bd36136fd565b6308c379a014613c26575b613be55750565b613bfd6117eb6020613bf561313c565b930151151590565b1561355657613c0e61332e91613a52565b60405162461bcd60e51b815291829160048301610660565b613c2e61371b565b80613c3a575b50613bde565b602083015160009250613c345760405162461bcd60e51b815290819061332e9060048301610660565b80612196613c7092610ca9565b38613bc4565b6080810151613c8f90611969906001600160a01b031681565b60c08201516001600160a01b031660e08301516001600160a01b0316916101008401519061012085015193613cc961014087015160ff1690565b936101608701519061018088015195843b156103d05760405163d505accf60e01b81526001600160a01b0392831660048201529190931660248201526044810194909452606484019590955260ff16608483015260a482019390935260c481019190915290600090829081838160e48101613bb9565b60405190600160f01b602083015260228201526022815261067181610cdc565b15613d6657565b60405162461bcd60e51b815260206004820152602660248201527f4c7a4170703a20696e76616c696420736f757263652073656e64696e6720636f6044820152651b9d1c9858dd60d21b6064820152608490fd5b6020818303126103d0578051906001600160401b0382116103d057019080601f830112156103d057815161067192602001613a1d565b908060209392818452848401376000828201840152601f01601f1916010190565b60409061ffff61067195931681528160208201520191613df0565b90601f8111613e3a57505050565b600091825260208220906020601f850160051c83019410613e76575b601f0160051c01915b828110613e6b57505050565b818155600101613e5f565b9092508290613e56565b929091613ef25a604051633356ae4560e11b602082015261ffff871660248201526080604482015290613eec82613ede613ebd60a483018a61063b565b6001600160401b03881660648401528281036023190160848401528861063b565b03601f198101845283610d2d565b30614fc6565b939015613f01575b5050505050565b613f0a94613f14565b3880808080613efa565b9193613fb17fe183f33de2837795525b4792ca4cd60535bd77c53b7e7030060bfcf5734d6b0c95613fbf939561ffff81516020830120961695866000526005602052613f7883610ea860208b60406000208260405194838680955193849201610618565b556001600160401b03613f9d604051988998895260a060208a015260a089019061063b565b92166040870152858203606087015261063b565b90838203608085015261063b565b0390a1565b6020919283604051948593843782019081520301902090565b15613fe457565b60405162461bcd60e51b815260206004820152602160248201527f4e6f6e626c6f636b696e674c7a4170703a20696e76616c6964207061796c6f616044820152601960fa1b6064820152608490fd5b9161405f9060609461ffff6001600160401b039499989799168552608060208601526080850191613df0565b951660408201520152565b903590601e19813603018212156103d057018035906001600160401b0382116103d0576020019181360383136103d057565b9491959897906113616140c56040996140bd6140cb976140e8993691610d96565b943691610d96565b97614971565b928451968794859463040a7bb160e41b8652309060048701614275565b03817f00000000000000000000000000000000000000000000000000000000000000006001600160a01b03165afa9182156107ea57600090819361412b57509190565b905061048191925060403d8111610a9d57610a8e8183610d2d565b939694916141749061067199979461ffff6001600160401b039416875260c0602088015260c0870191613df0565b961660408401526060830152608082015260a0818503910152613df0565b9196979298959493909430330361421a576141ae908530614d63565b60405181815290946001600160a01b03169390849061ffff85169060008051602061503283398151915290602090a3833b156103d057600098899561420a936040519c8d9b8c9a8b98633fe79aed60e11b8a5260048a01614146565b0393f180156107ea576135595750565b60405162461bcd60e51b815260206004820152601f60248201527f4f4654436f72653a2063616c6c6572206d757374206265204f4654436f7265006044820152606490fd5b91908260409103126103d0576020825192015190565b9192610671959361ffff6142a49316845260018060a01b0316602084015260a0604084015260a083019061063b565b9215156060820152608081840391015261063b565b92919060ff6142c784614f6b565b168061441a5750505060ff6142db82614f6b565b16158061440f575b6142ec90614a73565b6142fe6142f882614f1b565b91614fb6565b90916001600160a01b039182841615614405575b614346906001600160401b037f000000000000000000000000000000000000000000000000000000000000000091166149f5565b9183169283156143c0576000805160206150328339815191529161438061ffff9261437b61437687600a54612942565b600a55565b6128df565b848154019055846000600080516020615052833981519152604051806143ab89829190602083019252565b0390a360405193845216918060208101612a79565b60405162461bcd60e51b815260206004820152601f60248201527f45524332303a206d696e7420746f20746865207a65726f2061646472657373006044820152606490fd5b61dead9350614312565b5080516029146142e3565b60010361442a576103e0936146fb565b60405162461bcd60e51b815260206004820152601c60248201527b4f4654436f72653a20756e6b6e6f776e207061636b6574207479706560201b6044820152606490fd5b1561447557565b60405162461bcd60e51b815260206004820152601960248201527813d19510dbdc994e88185b5bdd5b9d081d1bdbc81cdb585b1b603a1b6044820152606490fd5b926144db61067197959361ffff6144e99416865260c0602087015260c086019061063b565b90848203604086015261063b565b6001600160a01b0391821660608401529316608082015280830360a09091015261063b565b946145379193929561ffff8116600052600160205261453e604060002060405194858092611108565b0384610d2d565b8251156145a557614550855182614603565b7f00000000000000000000000000000000000000000000000000000000000000006001600160a01b031693843b156103d05760009661354791604051998a988997889662c5803160e81b8852600488016144b6565b60405162461bcd60e51b815260206004820152603060248201527f4c7a4170703a2064657374696e6174696f6e20636861696e206973206e6f742060448201526f61207472757374656420736f7572636560801b6064820152608490fd5b61ffff166000526003602052604060002054908115614668575b1161462457565b606460405162461bcd60e51b815260206004820152602060248201527f4c7a4170703a207061796c6f61642073697a6520697320746f6f206c617267656044820152fd5b612710915061461d565b98979692936001600160401b036146a460e0989461ffff6131379995168d5260208d61010091829101528d019061063b565b951660408b015260608a01526001600160a01b0316608089015260a088015286820360c088015261063b565b6001600160401b036146f06040939695949660608452606084019061063b565b951660208201520152565b909161470684614b24565b90916147216117e4876117df61471b8b610b88565b8c610e2d565b916147576001600160401b0392837f000000000000000000000000000000000000000000000000000000000000000091166149f5565b9288888b8315614845575b505050853b1561480857946147a99694613eec948a94613ede948d996000146148015750505a925b5a978b6040519a8b9863757fea4d60e11b60208b015260248a01614672565b90156147f65750906147f161ffff928560207fb8890edbfc1c74692f527444645f95489c3703cc2df42e4a366f5d06fa6cd884969751910120906040519485941696846146d0565b0390a2565b926103e09492613f14565b169261478a565b5050505050925050507f9aedf5fdba8716db3b6705ca00150643309995d4f818a249ed6dde6677e7792d9250613fbf91506040519182918261142d565b906117df61193b926148658961485f61486b979b30614d13565b99610b88565b90610e2d565b88888b614762565b60065460ff16156148c05760228251106113685761ffff60226103e0930151911660005260026020526148b3604060002060008052602052604060002090565b549061132f8215156148c8565b50516113d957565b156148cf57565b60405162461bcd60e51b815260206004820152601a602482015279131e905c1c0e881b5a5b91d85cd31a5b5a5d081b9bdd081cd95d60321b6044820152606490fd5b1561491857565b60405162461bcd60e51b815260206004820152601b60248201527a4c7a4170703a20676173206c696d697420697320746f6f206c6f7760281b6044820152606490fd5b634e487b7160e01b600052601260045260246000fd5b7f00000000000000000000000000000000000000000000000000000000000000009081156149f057046001600160401b03908181116149ae571690565b60405162461bcd60e51b815260206004820152601a6024820152794f4654436f72653a20616d6f756e745344206f766572666c6f7760301b6044820152606490fd5b61495b565b81810292918115918404141715610aef57565b7f000000000000000000000000000000000000000000000000000000000000000080156149f057810690818103908111610aef5791565b60405160006020820152602181019190915260c09190911b6001600160c01b03191660418201526029815261067181610cdc565b15614a7a57565b60405162461bcd60e51b815260206004820152601860248201527713d19510dbdc994e881a5b9d985b1a59081c185e5b1bd85960421b6044820152606490fd5b939260719261067194604051968794600160f81b6020870152602186015260018060c01b0319809360c01b16604186015260018060a01b0316604985015260c01b166069830152614b148151809260208686019101610618565b8101036051810184520182610d2d565b90614b3c600160ff614b3585614f6b565b1614614a73565b614b4582614f1b565b90614b4f83614fb6565b906049845110614bc0576049840151936051815110614b8457614b81605182015191614b7b815161317b565b90614e97565b91565b60405162461bcd60e51b8152602060048201526014602482015273746f55696e7436345f6f75744f66426f756e647360601b6044820152606490fd5b60405162461bcd60e51b8152602060048201526015602482015274746f427974657333325f6f75744f66426f756e647360581b6044820152606490fd5b6001600160a01b038116338103614cac575b8015614c5d5781614c3284614c256000956128df565b54612a5682821015614cbc565b55614c4083600a5403600a55565b60405183815260008051602061505283398151915290602090a390565b60405162461bcd60e51b815260206004820152602160248201527f45524332303a206275726e2066726f6d20746865207a65726f206164647265736044820152607360f81b6064820152608490fd5b614cb7833384612bea565b614c0f565b15614cc357565b60405162461bcd60e51b815260206004820152602260248201527f45524332303a206275726e20616d6f756e7420657863656564732062616c616e604482015261636560f01b6064820152608490fd5b6001600160a01b038116919082156143c057600a5490828201809211610aef57600092614d5460209260008051602061505283398151915294600a556128df565b818154019055604051908152a3565b6106719183916001600160a01b038116308114159081614d8f575b5015612a0257610966833383612bea565b905033141538614d7e565b15614da157565b60405162461bcd60e51b815260206004820152600e60248201526d736c6963655f6f766572666c6f7760901b6044820152606490fd5b15614dde57565b60405162461bcd60e51b8152602060048201526011602482015270736c6963655f6f75744f66426f756e647360781b6044820152606490fd5b614e2b82614e2481612926565b1015614d9a565b614e388282511015614dd7565b81614e50575050604051600081526020810160405290565b60405191601f811691821560051b808486010193838501920101905b808410614e845750508252601f01601f191660405290565b9092835181526020809101930190614e6c565b614ea482614e2481612926565b614eb98151614eb284612934565b1115614dd7565b81614ed1575050604051600081526020810160405290565b60405191601f8116916051831560051b80858701019484860193010101905b808410614f085750508252601f01601f191660405290565b9092835181526020809101930190614ef0565b6021815110614f2e57602d015160601c90565b60405162461bcd60e51b8152602060048201526015602482015274746f416464726573735f6f75744f66426f756e647360581b6044820152606490fd5b6001815110614f7b576001015190565b60405162461bcd60e51b8152602060048201526013602482015272746f55696e74385f6f75744f66426f756e647360681b6044820152606490fd5b6029815110614b84576029015190565b9092916000809160405195614fda87610cc1565b6096875282602088019560a036883760208451940192f1903d9060968211615008575b6000908286523e9190565b60969150614ffd56fed81fc9b8523134ed613870ed029d6170cbb73aa6a6bc311b9a642689fb9df59abf551ec93859b170f9b2141bd9298bf3f64322c6f7beb2543a0cb669834118bfddf252ad1be2c89b69c2b068fc378daa952ba7f163c4a11628f55a4df523b3efa264697066735822122016ea97c1aedc13719f11844e961af630bdd74a28e97c186e20773039a2f5822e64736f6c63430008120033",
  "linkReferences": {},
  "deployedLinkReferences": {}
}