{
  "_format": "hh-sol-artifact-1",
  "contractName": "BaseTOFTOptionsModule",
  "sourceName": "contracts/tOFT/modules/BaseTOFTOptionsModule.sol",
  "abi": [
    {
      "inputs": [
        {
          "internalType": "address",
          "name": "_lzEndpoint",
          "type": "address"
        },
        {
          "internalType": "address",
          "name": "_erc20",
          "type": "address"
        },
        {
          "internalType": "contract IYieldBoxBase",
          "name": "_yieldBox",
          "type": "address"
        },
        {
          "internalType": "contract ICluster",
          "name": "_cluster",
          "type": "address"
        },
        {
          "internalType": "string",
          "name": "_name",
          "type": "string"
        },
        {
          "internalType": "string",
          "name": "_symbol",
          "type": "string"
        },
        {
          "internalType": "uint8",
          "name": "_decimal",
          "type": "uint8"
        },
        {
          "internalType": "uint256",
          "name": "_hostChainID",
          "type": "uint256"
        }
      ],
      "stateMutability": "nonpayable",
      "type": "constructor"
    },
    {
      "inputs": [],
      "name": "ActionTypeNotValid",
      "type": "error"
    },
    {
      "inputs": [],
      "name": "AllowanceNotValid",
      "type": "error"
    },
    {
      "inputs": [],
      "name": "ModuleNotAuthorized",
      "type": "error"
    },
    {
      "inputs": [
        {
          "internalType": "address",
          "name": "invalidAddress",
          "type": "address"
        }
      ],
      "name": "NotAuthorized",
      "type": "error"
    },
    {
      "inputs": [],
      "name": "NotValid",
      "type": "error"
    },
    {
      "anonymous": false,
      "inputs": [
        {
          "indexed": true,
          "internalType": "address",
          "name": "owner",
          "type": "address"
        },
        {
          "indexed": true,
          "internalType": "address",
          "name": "spender",
          "type": "address"
        },
        {
          "indexed": false,
          "internalType": "uint256",
          "name": "value",
          "type": "uint256"
        }
      ],
      "name": "Approval",
      "type": "event"
    },
    {
      "anonymous": false,
      "inputs": [
        {
          "indexed": true,
          "internalType": "uint16",
          "name": "_srcChainId",
          "type": "uint16"
        },
        {
          "indexed": false,
          "internalType": "bytes",
          "name": "_srcAddress",
          "type": "bytes"
        },
        {
          "indexed": false,
          "internalType": "uint64",
          "name": "_nonce",
          "type": "uint64"
        },
        {
          "indexed": false,
          "internalType": "bytes32",
          "name": "_hash",
          "type": "bytes32"
        }
      ],
      "name": "CallOFTReceivedSuccess",
      "type": "event"
    },
    {
      "anonymous": false,
      "inputs": [
        {
          "indexed": false,
          "internalType": "uint16",
          "name": "_srcChainId",
          "type": "uint16"
        },
        {
          "indexed": false,
          "internalType": "bytes",
          "name": "_srcAddress",
          "type": "bytes"
        },
        {
          "indexed": false,
          "internalType": "uint64",
          "name": "_nonce",
          "type": "uint64"
        },
        {
          "indexed": false,
          "internalType": "bytes",
          "name": "_payload",
          "type": "bytes"
        },
        {
          "indexed": false,
          "internalType": "bytes",
          "name": "_reason",
          "type": "bytes"
        }
      ],
      "name": "MessageFailed",
      "type": "event"
    },
    {
      "anonymous": false,
      "inputs": [
        {
          "indexed": false,
          "internalType": "address",
          "name": "_address",
          "type": "address"
        }
      ],
      "name": "NonContractAddress",
      "type": "event"
    },
    {
      "anonymous": false,
      "inputs": [
        {
          "indexed": true,
          "internalType": "address",
          "name": "previousOwner",
          "type": "address"
        },
        {
          "indexed": true,
          "internalType": "address",
          "name": "newOwner",
          "type": "address"
        }
      ],
      "name": "OwnershipTransferred",
      "type": "event"
    },
    {
      "anonymous": false,
      "inputs": [
        {
          "indexed": true,
          "internalType": "uint16",
          "name": "_srcChainId",
          "type": "uint16"
        },
        {
          "indexed": true,
          "internalType": "address",
          "name": "_to",
          "type": "address"
        },
        {
          "indexed": false,
          "internalType": "uint256",
          "name": "_amount",
          "type": "uint256"
        }
      ],
      "name": "ReceiveFromChain",
      "type": "event"
    },
    {
      "anonymous": false,
      "inputs": [
        {
          "indexed": false,
          "internalType": "uint16",
          "name": "_srcChainId",
          "type": "uint16"
        },
        {
          "indexed": false,
          "internalType": "bytes",
          "name": "_srcAddress",
          "type": "bytes"
        },
        {
          "indexed": false,
          "internalType": "uint64",
          "name": "_nonce",
          "type": "uint64"
        },
        {
          "indexed": false,
          "internalType": "bytes32",
          "name": "_payloadHash",
          "type": "bytes32"
        }
      ],
      "name": "RetryMessageSuccess",
      "type": "event"
    },
    {
      "anonymous": false,
      "inputs": [
        {
          "indexed": true,
          "internalType": "uint16",
          "name": "_dstChainId",
          "type": "uint16"
        },
        {
          "indexed": true,
          "internalType": "address",
          "name": "_from",
          "type": "address"
        },
        {
          "indexed": true,
          "internalType": "bytes32",
          "name": "_toAddress",
          "type": "bytes32"
        },
        {
          "indexed": false,
          "internalType": "uint256",
          "name": "_amount",
          "type": "uint256"
        }
      ],
      "name": "SendToChain",
      "type": "event"
    },
    {
      "anonymous": false,
      "inputs": [
        {
          "indexed": false,
          "internalType": "uint16",
          "name": "_dstChainId",
          "type": "uint16"
        },
        {
          "indexed": false,
          "internalType": "uint16",
          "name": "_type",
          "type": "uint16"
        },
        {
          "indexed": false,
          "internalType": "uint256",
          "name": "_minDstGas",
          "type": "uint256"
        }
      ],
      "name": "SetMinDstGas",
      "type": "event"
    },
    {
      "anonymous": false,
      "inputs": [
        {
          "indexed": false,
          "internalType": "address",
          "name": "precrime",
          "type": "address"
        }
      ],
      "name": "SetPrecrime",
      "type": "event"
    },
    {
      "anonymous": false,
      "inputs": [
        {
          "indexed": false,
          "internalType": "uint16",
          "name": "_remoteChainId",
          "type": "uint16"
        },
        {
          "indexed": false,
          "internalType": "bytes",
          "name": "_path",
          "type": "bytes"
        }
      ],
      "name": "SetTrustedRemote",
      "type": "event"
    },
    {
      "anonymous": false,
      "inputs": [
        {
          "indexed": false,
          "internalType": "uint16",
          "name": "_remoteChainId",
          "type": "uint16"
        },
        {
          "indexed": false,
          "internalType": "bytes",
          "name": "_remoteAddress",
          "type": "bytes"
        }
      ],
      "name": "SetTrustedRemoteAddress",
      "type": "event"
    },
    {
      "anonymous": false,
      "inputs": [
        {
          "indexed": false,
          "internalType": "bool",
          "name": "_useCustomAdapterParams",
          "type": "bool"
        }
      ],
      "name": "SetUseCustomAdapterParams",
      "type": "event"
    },
    {
      "anonymous": false,
      "inputs": [
        {
          "indexed": true,
          "internalType": "address",
          "name": "from",
          "type": "address"
        },
        {
          "indexed": true,
          "internalType": "address",
          "name": "to",
          "type": "address"
        },
        {
          "indexed": false,
          "internalType": "uint256",
          "name": "value",
          "type": "uint256"
        }
      ],
      "name": "Transfer",
      "type": "event"
    },
    {
      "inputs": [],
      "name": "DEFAULT_PAYLOAD_SIZE_LIMIT",
      "outputs": [
        {
          "internalType": "uint256",
          "name": "",
          "type": "uint256"
        }
      ],
      "stateMutability": "view",
      "type": "function"
    },
    {
      "inputs": [],
      "name": "NO_EXTRA_GAS",
      "outputs": [
        {
          "internalType": "uint256",
          "name": "",
          "type": "uint256"
        }
      ],
      "stateMutability": "view",
      "type": "function"
    },
    {
      "inputs": [],
      "name": "PT_SEND",
      "outputs": [
        {
          "internalType": "uint8",
          "name": "",
          "type": "uint8"
        }
      ],
      "stateMutability": "view",
      "type": "function"
    },
    {
      "inputs": [],
      "name": "PT_SEND_AND_CALL",
      "outputs": [
        {
          "internalType": "uint8",
          "name": "",
          "type": "uint8"
        }
      ],
      "stateMutability": "view",
      "type": "function"
    },
    {
      "inputs": [],
      "name": "SWAP_MAX_SLIPPAGE",
      "outputs": [
        {
          "internalType": "uint256",
          "name": "",
          "type": "uint256"
        }
      ],
      "stateMutability": "view",
      "type": "function"
    },
    {
      "inputs": [
        {
          "internalType": "address",
          "name": "owner",
          "type": "address"
        },
        {
          "internalType": "address",
          "name": "spender",
          "type": "address"
        }
      ],
      "name": "allowance",
      "outputs": [
        {
          "internalType": "uint256",
          "name": "",
          "type": "uint256"
        }
      ],
      "stateMutability": "view",
      "type": "function"
    },
    {
      "inputs": [
        {
          "internalType": "address",
          "name": "spender",
          "type": "address"
        },
        {
          "internalType": "uint256",
          "name": "amount",
          "type": "uint256"
        }
      ],
      "name": "approve",
      "outputs": [
        {
          "internalType": "bool",
          "name": "",
          "type": "bool"
        }
      ],
      "stateMutability": "nonpayable",
      "type": "function"
    },
    {
      "inputs": [
        {
          "internalType": "address",
          "name": "account",
          "type": "address"
        }
      ],
      "name": "balanceOf",
      "outputs": [
        {
          "internalType": "uint256",
          "name": "",
          "type": "uint256"
        }
      ],
      "stateMutability": "view",
      "type": "function"
    },
    {
      "inputs": [
        {
          "internalType": "uint16",
          "name": "_srcChainId",
          "type": "uint16"
        },
        {
          "internalType": "bytes",
          "name": "_srcAddress",
          "type": "bytes"
        },
        {
          "internalType": "uint64",
          "name": "_nonce",
          "type": "uint64"
        },
        {
          "internalType": "bytes32",
          "name": "_from",
          "type": "bytes32"
        },
        {
          "internalType": "address",
          "name": "_to",
          "type": "address"
        },
        {
          "internalType": "uint256",
          "name": "_amount",
          "type": "uint256"
        },
        {
          "internalType": "bytes",
          "name": "_payload",
          "type": "bytes"
        },
        {
          "internalType": "uint256",
          "name": "_gasForCall",
          "type": "uint256"
        }
      ],
      "name": "callOnOFTReceived",
      "outputs": [],
      "stateMutability": "nonpayable",
      "type": "function"
    },
    {
      "inputs": [],
      "name": "circulatingSupply",
      "outputs": [
        {
          "internalType": "uint256",
          "name": "",
          "type": "uint256"
        }
      ],
      "stateMutability": "view",
      "type": "function"
    },
    {
      "inputs": [],
      "name": "cluster",
      "outputs": [
        {
          "internalType": "contract ICluster",
          "name": "",
          "type": "address"
        }
      ],
      "stateMutability": "view",
      "type": "function"
    },
    {
      "inputs": [
        {
          "internalType": "uint16",
          "name": "",
          "type": "uint16"
        },
        {
          "internalType": "bytes",
          "name": "",
          "type": "bytes"
        },
        {
          "internalType": "uint64",
          "name": "",
          "type": "uint64"
        }
      ],
      "name": "creditedPackets",
      "outputs": [
        {
          "internalType": "bool",
          "name": "",
          "type": "bool"
        }
      ],
      "stateMutability": "view",
      "type": "function"
    },
    {
      "inputs": [],
      "name": "decimals",
      "outputs": [
        {
          "internalType": "uint8",
          "name": "",
          "type": "uint8"
        }
      ],
      "stateMutability": "view",
      "type": "function"
    },
    {
      "inputs": [
        {
          "internalType": "address",
          "name": "spender",
          "type": "address"
        },
        {
          "internalType": "uint256",
          "name": "subtractedValue",
          "type": "uint256"
        }
      ],
      "name": "decreaseAllowance",
      "outputs": [
        {
          "internalType": "bool",
          "name": "",
          "type": "bool"
        }
      ],
      "stateMutability": "nonpayable",
      "type": "function"
    },
    {
      "inputs": [],
      "name": "erc20",
      "outputs": [
        {
          "internalType": "address",
          "name": "",
          "type": "address"
        }
      ],
      "stateMutability": "view",
      "type": "function"
    },
    {
      "inputs": [
        {
          "internalType": "uint16",
          "name": "_dstChainId",
          "type": "uint16"
        },
        {
          "internalType": "bytes32",
          "name": "_toAddress",
          "type": "bytes32"
        },
        {
          "internalType": "uint256",
          "name": "_amount",
          "type": "uint256"
        },
        {
          "internalType": "bytes",
          "name": "_payload",
          "type": "bytes"
        },
        {
          "internalType": "uint64",
          "name": "_dstGasForCall",
          "type": "uint64"
        },
        {
          "internalType": "bool",
          "name": "_useZro",
          "type": "bool"
        },
        {
          "internalType": "bytes",
          "name": "_adapterParams",
          "type": "bytes"
        }
      ],
      "name": "estimateSendAndCallFee",
      "outputs": [
        {
          "internalType": "uint256",
          "name": "nativeFee",
          "type": "uint256"
        },
        {
          "internalType": "uint256",
          "name": "zroFee",
          "type": "uint256"
        }
      ],
      "stateMutability": "view",
      "type": "function"
    },
    {
      "inputs": [
        {
          "internalType": "uint16",
          "name": "_dstChainId",
          "type": "uint16"
        },
        {
          "internalType": "bytes32",
          "name": "_toAddress",
          "type": "bytes32"
        },
        {
          "internalType": "uint256",
          "name": "_amount",
          "type": "uint256"
        },
        {
          "internalType": "bool",
          "name": "_useZro",
          "type": "bool"
        },
        {
          "internalType": "bytes",
          "name": "_adapterParams",
          "type": "bytes"
        }
      ],
      "name": "estimateSendFee",
      "outputs": [
        {
          "internalType": "uint256",
          "name": "nativeFee",
          "type": "uint256"
        },
        {
          "internalType": "uint256",
          "name": "zroFee",
          "type": "uint256"
        }
      ],
      "stateMutability": "view",
      "type": "function"
    },
    {
      "inputs": [
        {
          "components": [
            {
              "internalType": "address",
              "name": "from",
              "type": "address"
            },
            {
              "internalType": "address",
              "name": "target",
              "type": "address"
            },
            {
              "internalType": "uint256",
              "name": "paymentTokenAmount",
              "type": "uint256"
            },
            {
              "internalType": "uint256",
              "name": "oTAPTokenID",
              "type": "uint256"
            },
            {
              "internalType": "address",
              "name": "paymentToken",
              "type": "address"
            },
            {
              "internalType": "uint256",
              "name": "tapAmount",
              "type": "uint256"
            }
          ],
          "internalType": "struct ITapiocaOptionsBrokerCrossChain.IExerciseOptionsData",
          "name": "optionsData",
          "type": "tuple"
        },
        {
          "components": [
            {
              "internalType": "uint16",
              "name": "lzDstChainId",
              "type": "uint16"
            },
            {
              "internalType": "address",
              "name": "zroPaymentAddress",
              "type": "address"
            },
            {
              "internalType": "uint256",
              "name": "extraGas",
              "type": "uint256"
            }
          ],
          "internalType": "struct ITapiocaOptionsBrokerCrossChain.IExerciseLZData",
          "name": "lzData",
          "type": "tuple"
        },
        {
          "components": [
            {
              "internalType": "bool",
              "name": "withdrawOnAnotherChain",
              "type": "bool"
            },
            {
              "internalType": "address",
              "name": "tapOftAddress",
              "type": "address"
            },
            {
              "internalType": "uint16",
              "name": "lzDstChainId",
              "type": "uint16"
            },
            {
              "internalType": "uint256",
              "name": "amount",
              "type": "uint256"
            },
            {
              "internalType": "address",
              "name": "zroPaymentAddress",
              "type": "address"
            },
            {
              "internalType": "uint256",
              "name": "extraGas",
              "type": "uint256"
            }
          ],
          "internalType": "struct ITapiocaOptionsBrokerCrossChain.IExerciseLZSendTapData",
          "name": "tapSendData",
          "type": "tuple"
        },
        {
          "components": [
            {
              "internalType": "bool",
              "name": "permitAll",
              "type": "bool"
            },
            {
              "internalType": "bool",
              "name": "allowFailure",
              "type": "bool"
            },
            {
              "internalType": "bool",
              "name": "yieldBoxTypeApproval",
              "type": "bool"
            },
            {
              "internalType": "bool",
              "name": "revokeYieldBox",
              "type": "bool"
            },
            {
              "internalType": "uint16",
              "name": "actionType",
              "type": "uint16"
            },
            {
              "internalType": "address",
              "name": "target",
              "type": "address"
            },
            {
              "internalType": "bool",
              "name": "permitBorrow",
              "type": "bool"
            },
            {
              "internalType": "address",
              "name": "owner",
              "type": "address"
            },
            {
              "internalType": "address",
              "name": "spender",
              "type": "address"
            },
            {
              "internalType": "uint256",
              "name": "value",
              "type": "uint256"
            },
            {
              "internalType": "uint256",
              "name": "deadline",
              "type": "uint256"
            },
            {
              "internalType": "uint8",
              "name": "v",
              "type": "uint8"
            },
            {
              "internalType": "bytes32",
              "name": "r",
              "type": "bytes32"
            },
            {
              "internalType": "bytes32",
              "name": "s",
              "type": "bytes32"
            }
          ],
          "internalType": "struct ICommonData.IApproval[]",
          "name": "approvals",
          "type": "tuple[]"
        },
        {
          "components": [
            {
              "internalType": "bool",
              "name": "permitAll",
              "type": "bool"
            },
            {
              "internalType": "bool",
              "name": "allowFailure",
              "type": "bool"
            },
            {
              "internalType": "bool",
              "name": "yieldBoxTypeApproval",
              "type": "bool"
            },
            {
              "internalType": "bool",
              "name": "revokeYieldBox",
              "type": "bool"
            },
            {
              "internalType": "uint16",
              "name": "actionType",
              "type": "uint16"
            },
            {
              "internalType": "address",
              "name": "target",
              "type": "address"
            },
            {
              "internalType": "bool",
              "name": "permitBorrow",
              "type": "bool"
            },
            {
              "internalType": "address",
              "name": "owner",
              "type": "address"
            },
            {
              "internalType": "address",
              "name": "spender",
              "type": "address"
            },
            {
              "internalType": "uint256",
              "name": "value",
              "type": "uint256"
            },
            {
              "internalType": "uint256",
              "name": "deadline",
              "type": "uint256"
            },
            {
              "internalType": "uint8",
              "name": "v",
              "type": "uint8"
            },
            {
              "internalType": "bytes32",
              "name": "r",
              "type": "bytes32"
            },
            {
              "internalType": "bytes32",
              "name": "s",
              "type": "bytes32"
            }
          ],
          "internalType": "struct ICommonData.IApproval[]",
          "name": "revokes",
          "type": "tuple[]"
        },
        {
          "internalType": "bytes",
          "name": "adapterParams",
          "type": "bytes"
        }
      ],
      "name": "exerciseOption",
      "outputs": [],
      "stateMutability": "payable",
      "type": "function"
    },
    {
      "inputs": [
        {
          "internalType": "uint16",
          "name": "",
          "type": "uint16"
        },
        {
          "internalType": "bytes",
          "name": "",
          "type": "bytes"
        },
        {
          "internalType": "uint64",
          "name": "",
          "type": "uint64"
        }
      ],
      "name": "failedMessages",
      "outputs": [
        {
          "internalType": "bytes32",
          "name": "",
          "type": "bytes32"
        }
      ],
      "stateMutability": "view",
      "type": "function"
    },
    {
      "inputs": [
        {
          "internalType": "uint16",
          "name": "_srcChainId",
          "type": "uint16"
        },
        {
          "internalType": "bytes",
          "name": "_srcAddress",
          "type": "bytes"
        }
      ],
      "name": "forceResumeReceive",
      "outputs": [],
      "stateMutability": "nonpayable",
      "type": "function"
    },
    {
      "inputs": [
        {
          "internalType": "uint16",
          "name": "_version",
          "type": "uint16"
        },
        {
          "internalType": "uint16",
          "name": "_chainId",
          "type": "uint16"
        },
        {
          "internalType": "address",
          "name": "",
          "type": "address"
        },
        {
          "internalType": "uint256",
          "name": "_configType",
          "type": "uint256"
        }
      ],
      "name": "getConfig",
      "outputs": [
        {
          "internalType": "bytes",
          "name": "",
          "type": "bytes"
        }
      ],
      "stateMutability": "view",
      "type": "function"
    },
    {
      "inputs": [
        {
          "internalType": "uint16",
          "name": "_remoteChainId",
          "type": "uint16"
        }
      ],
      "name": "getTrustedRemoteAddress",
      "outputs": [
        {
          "internalType": "bytes",
          "name": "",
          "type": "bytes"
        }
      ],
      "stateMutability": "view",
      "type": "function"
    },
    {
      "inputs": [],
      "name": "hostChainID",
      "outputs": [
        {
          "internalType": "uint256",
          "name": "",
          "type": "uint256"
        }
      ],
      "stateMutability": "view",
      "type": "function"
    },
    {
      "inputs": [
        {
          "internalType": "address",
          "name": "spender",
          "type": "address"
        },
        {
          "internalType": "uint256",
          "name": "addedValue",
          "type": "uint256"
        }
      ],
      "name": "increaseAllowance",
      "outputs": [
        {
          "internalType": "bool",
          "name": "",
          "type": "bool"
        }
      ],
      "stateMutability": "nonpayable",
      "type": "function"
    },
    {
      "inputs": [
        {
          "internalType": "uint16",
          "name": "_srcChainId",
          "type": "uint16"
        },
        {
          "internalType": "bytes",
          "name": "_srcAddress",
          "type": "bytes"
        }
      ],
      "name": "isTrustedRemote",
      "outputs": [
        {
          "internalType": "bool",
          "name": "",
          "type": "bool"
        }
      ],
      "stateMutability": "view",
      "type": "function"
    },
    {
      "inputs": [],
      "name": "lzEndpoint",
      "outputs": [
        {
          "internalType": "contract ILayerZeroEndpoint",
          "name": "",
          "type": "address"
        }
      ],
      "stateMutability": "view",
      "type": "function"
    },
    {
      "inputs": [
        {
          "internalType": "uint16",
          "name": "_srcChainId",
          "type": "uint16"
        },
        {
          "internalType": "bytes",
          "name": "_srcAddress",
          "type": "bytes"
        },
        {
          "internalType": "uint64",
          "name": "_nonce",
          "type": "uint64"
        },
        {
          "internalType": "bytes",
          "name": "_payload",
          "type": "bytes"
        }
      ],
      "name": "lzReceive",
      "outputs": [],
      "stateMutability": "nonpayable",
      "type": "function"
    },
    {
      "inputs": [
        {
          "internalType": "uint16",
          "name": "",
          "type": "uint16"
        },
        {
          "internalType": "uint16",
          "name": "",
          "type": "uint16"
        }
      ],
      "name": "minDstGasLookup",
      "outputs": [
        {
          "internalType": "uint256",
          "name": "",
          "type": "uint256"
        }
      ],
      "stateMutability": "view",
      "type": "function"
    },
    {
      "inputs": [],
      "name": "name",
      "outputs": [
        {
          "internalType": "string",
          "name": "",
          "type": "string"
        }
      ],
      "stateMutability": "view",
      "type": "function"
    },
    {
      "inputs": [
        {
          "internalType": "uint16",
          "name": "_srcChainId",
          "type": "uint16"
        },
        {
          "internalType": "bytes",
          "name": "_srcAddress",
          "type": "bytes"
        },
        {
          "internalType": "uint64",
          "name": "_nonce",
          "type": "uint64"
        },
        {
          "internalType": "bytes",
          "name": "_payload",
          "type": "bytes"
        }
      ],
      "name": "nonblockingLzReceive",
      "outputs": [],
      "stateMutability": "nonpayable",
      "type": "function"
    },
    {
      "inputs": [],
      "name": "owner",
      "outputs": [
        {
          "internalType": "address",
          "name": "",
          "type": "address"
        }
      ],
      "stateMutability": "view",
      "type": "function"
    },
    {
      "inputs": [
        {
          "internalType": "uint16",
          "name": "",
          "type": "uint16"
        }
      ],
      "name": "payloadSizeLimitLookup",
      "outputs": [
        {
          "internalType": "uint256",
          "name": "",
          "type": "uint256"
        }
      ],
      "stateMutability": "view",
      "type": "function"
    },
    {
      "inputs": [],
      "name": "precrime",
      "outputs": [
        {
          "internalType": "address",
          "name": "",
          "type": "address"
        }
      ],
      "stateMutability": "view",
      "type": "function"
    },
    {
      "inputs": [],
      "name": "renounceOwnership",
      "outputs": [],
      "stateMutability": "nonpayable",
      "type": "function"
    },
    {
      "inputs": [
        {
          "internalType": "uint16",
          "name": "_srcChainId",
          "type": "uint16"
        },
        {
          "internalType": "bytes",
          "name": "_srcAddress",
          "type": "bytes"
        },
        {
          "internalType": "uint64",
          "name": "_nonce",
          "type": "uint64"
        },
        {
          "internalType": "bytes",
          "name": "_payload",
          "type": "bytes"
        }
      ],
      "name": "retryMessage",
      "outputs": [],
      "stateMutability": "payable",
      "type": "function"
    },
    {
      "inputs": [
        {
          "internalType": "address",
          "name": "_from",
          "type": "address"
        },
        {
          "internalType": "uint16",
          "name": "_dstChainId",
          "type": "uint16"
        },
        {
          "internalType": "bytes32",
          "name": "_toAddress",
          "type": "bytes32"
        },
        {
          "internalType": "uint256",
          "name": "_amount",
          "type": "uint256"
        },
        {
          "internalType": "bytes",
          "name": "_payload",
          "type": "bytes"
        },
        {
          "internalType": "uint64",
          "name": "_dstGasForCall",
          "type": "uint64"
        },
        {
          "components": [
            {
              "internalType": "address payable",
              "name": "refundAddress",
              "type": "address"
            },
            {
              "internalType": "address",
              "name": "zroPaymentAddress",
              "type": "address"
            },
            {
              "internalType": "bytes",
              "name": "adapterParams",
              "type": "bytes"
            }
          ],
          "internalType": "struct ICommonOFT.LzCallParams",
          "name": "_callParams",
          "type": "tuple"
        }
      ],
      "name": "sendAndCall",
      "outputs": [],
      "stateMutability": "payable",
      "type": "function"
    },
    {
      "inputs": [
        {
          "internalType": "address",
          "name": "_from",
          "type": "address"
        },
        {
          "internalType": "uint16",
          "name": "_dstChainId",
          "type": "uint16"
        },
        {
          "internalType": "bytes32",
          "name": "_toAddress",
          "type": "bytes32"
        },
        {
          "internalType": "uint256",
          "name": "_amount",
          "type": "uint256"
        },
        {
          "components": [
            {
              "internalType": "address payable",
              "name": "refundAddress",
              "type": "address"
            },
            {
              "internalType": "address",
              "name": "zroPaymentAddress",
              "type": "address"
            },
            {
              "internalType": "bytes",
              "name": "adapterParams",
              "type": "bytes"
            }
          ],
          "internalType": "struct ICommonOFT.LzCallParams",
          "name": "_callParams",
          "type": "tuple"
        }
      ],
      "name": "sendFrom",
      "outputs": [],
      "stateMutability": "payable",
      "type": "function"
    },
    {
      "inputs": [
        {
          "internalType": "uint16",
          "name": "_version",
          "type": "uint16"
        },
        {
          "internalType": "uint16",
          "name": "_chainId",
          "type": "uint16"
        },
        {
          "internalType": "uint256",
          "name": "_configType",
          "type": "uint256"
        },
        {
          "internalType": "bytes",
          "name": "_config",
          "type": "bytes"
        }
      ],
      "name": "setConfig",
      "outputs": [],
      "stateMutability": "nonpayable",
      "type": "function"
    },
    {
      "inputs": [
        {
          "internalType": "uint256",
          "name": "_slippage",
          "type": "uint256"
        }
      ],
      "name": "setMaxSlippage",
      "outputs": [],
      "stateMutability": "nonpayable",
      "type": "function"
    },
    {
      "inputs": [
        {
          "internalType": "uint16",
          "name": "_dstChainId",
          "type": "uint16"
        },
        {
          "internalType": "uint16",
          "name": "_packetType",
          "type": "uint16"
        },
        {
          "internalType": "uint256",
          "name": "_minGas",
          "type": "uint256"
        }
      ],
      "name": "setMinDstGas",
      "outputs": [],
      "stateMutability": "nonpayable",
      "type": "function"
    },
    {
      "inputs": [
        {
          "internalType": "uint16",
          "name": "_dstChainId",
          "type": "uint16"
        },
        {
          "internalType": "uint256",
          "name": "_size",
          "type": "uint256"
        }
      ],
      "name": "setPayloadSizeLimit",
      "outputs": [],
      "stateMutability": "nonpayable",
      "type": "function"
    },
    {
      "inputs": [
        {
          "internalType": "address",
          "name": "_precrime",
          "type": "address"
        }
      ],
      "name": "setPrecrime",
      "outputs": [],
      "stateMutability": "nonpayable",
      "type": "function"
    },
    {
      "inputs": [
        {
          "internalType": "uint16",
          "name": "_version",
          "type": "uint16"
        }
      ],
      "name": "setReceiveVersion",
      "outputs": [],
      "stateMutability": "nonpayable",
      "type": "function"
    },
    {
      "inputs": [
        {
          "internalType": "uint16",
          "name": "_version",
          "type": "uint16"
        }
      ],
      "name": "setSendVersion",
      "outputs": [],
      "stateMutability": "nonpayable",
      "type": "function"
    },
    {
      "inputs": [
        {
          "internalType": "uint16",
          "name": "_srcChainId",
          "type": "uint16"
        },
        {
          "internalType": "bytes",
          "name": "_path",
          "type": "bytes"
        }
      ],
      "name": "setTrustedRemote",
      "outputs": [],
      "stateMutability": "nonpayable",
      "type": "function"
    },
    {
      "inputs": [
        {
          "internalType": "uint16",
          "name": "_remoteChainId",
          "type": "uint16"
        },
        {
          "internalType": "bytes",
          "name": "_remoteAddress",
          "type": "bytes"
        }
      ],
      "name": "setTrustedRemoteAddress",
      "outputs": [],
      "stateMutability": "nonpayable",
      "type": "function"
    },
    {
      "inputs": [
        {
          "internalType": "bool",
          "name": "_useCustomAdapterParams",
          "type": "bool"
        }
      ],
      "name": "setUseCustomAdapterParams",
      "outputs": [],
      "stateMutability": "nonpayable",
      "type": "function"
    },
    {
      "inputs": [],
      "name": "sharedDecimals",
      "outputs": [
        {
          "internalType": "uint8",
          "name": "",
          "type": "uint8"
        }
      ],
      "stateMutability": "view",
      "type": "function"
    },
    {
      "inputs": [
        {
          "internalType": "bytes4",
          "name": "interfaceId",
          "type": "bytes4"
        }
      ],
      "name": "supportsInterface",
      "outputs": [
        {
          "internalType": "bool",
          "name": "",
          "type": "bool"
        }
      ],
      "stateMutability": "view",
      "type": "function"
    },
    {
      "inputs": [],
      "name": "symbol",
      "outputs": [
        {
          "internalType": "string",
          "name": "",
          "type": "string"
        }
      ],
      "stateMutability": "view",
      "type": "function"
    },
    {
      "inputs": [],
      "name": "token",
      "outputs": [
        {
          "internalType": "address",
          "name": "",
          "type": "address"
        }
      ],
      "stateMutability": "view",
      "type": "function"
    },
    {
      "inputs": [],
      "name": "totalSupply",
      "outputs": [
        {
          "internalType": "uint256",
          "name": "",
          "type": "uint256"
        }
      ],
      "stateMutability": "view",
      "type": "function"
    },
    {
      "inputs": [
        {
          "internalType": "address",
          "name": "to",
          "type": "address"
        },
        {
          "internalType": "uint256",
          "name": "amount",
          "type": "uint256"
        }
      ],
      "name": "transfer",
      "outputs": [
        {
          "internalType": "bool",
          "name": "",
          "type": "bool"
        }
      ],
      "stateMutability": "nonpayable",
      "type": "function"
    },
    {
      "inputs": [
        {
          "internalType": "address",
          "name": "from",
          "type": "address"
        },
        {
          "internalType": "address",
          "name": "to",
          "type": "address"
        },
        {
          "internalType": "uint256",
          "name": "amount",
          "type": "uint256"
        }
      ],
      "name": "transferFrom",
      "outputs": [
        {
          "internalType": "bool",
          "name": "",
          "type": "bool"
        }
      ],
      "stateMutability": "nonpayable",
      "type": "function"
    },
    {
      "inputs": [
        {
          "internalType": "address",
          "name": "newOwner",
          "type": "address"
        }
      ],
      "name": "transferOwnership",
      "outputs": [],
      "stateMutability": "nonpayable",
      "type": "function"
    },
    {
      "inputs": [
        {
          "internalType": "uint16",
          "name": "",
          "type": "uint16"
        }
      ],
      "name": "trustedRemoteLookup",
      "outputs": [
        {
          "internalType": "bytes",
          "name": "",
          "type": "bytes"
        }
      ],
      "stateMutability": "view",
      "type": "function"
    },
    {
      "inputs": [],
      "name": "useCustomAdapterParams",
      "outputs": [
        {
          "internalType": "bool",
          "name": "",
          "type": "bool"
        }
      ],
      "stateMutability": "view",
      "type": "function"
    },
    {
      "inputs": [],
      "name": "yieldBox",
      "outputs": [
        {
          "internalType": "contract IYieldBoxBase",
          "name": "",
          "type": "address"
        }
      ],
      "stateMutability": "view",
      "type": "function"
    },
    {
      "stateMutability": "payable",
      "type": "receive"
    }
  ],
  "bytecode": "0x60e0604090808252346200059857620049d780380380916200002282856200059d565b833981016101008282031262000598576200003d82620005d7565b906020926200004e848201620005d7565b818601516001600160a01b03808216949290918590036200059857606084015196828816809803620005985760808501516001600160401b0394908581116200059857816200009f91880162000611565b9060a0870151908682116200059857620000bb91880162000611565b9160c087015160ff811696878203620005985762000116602b60e08f9b01519a5180966a546170696f63614f46542d60a81b878301526200010581518092898686019101620005ec565b810103600b8101875201856200059d565b607f8d518096601d60fa1b868301526200013a8151809288602186019101620005ec565b810103926200015460216001958681018a5201886200059d565b831c16936000958887549d60018060a01b03199e8f33908216178a55823391167f8be0079c531659141344cd1fd0a4f28419497f9722a3daafe3b4186f6b6457e08b80a3166080528560a05281518381116200058457600b54928584811c9416801562000579575b8785101462000565578190601f9485811162000511575b508790858311600114620004ab578a926200049f575b5050600019600383901b1c191690851b17600b555b80519283116200048b57600c548481811c9116801562000480575b868210146200046c5782811162000423575b5084918311600114620003bd579282939183928894620003b1575b50501b916000199060031b1c191617600c555b601282116200035e575060120360ff81116200034a5760ff1690604d8211620003365750600a0a60c0526101f46012551684600f541617600f5560ff19601154161760115560105581600d541617600d55600e541617600e555161436a90816200066d823960805181818161049101528181610772015281816108a101528181610a1b01528181610bdc01528181611a9601528181611ba6015281816122df01528181612ace0152818161301701526134cd015260a0518161150a015260c0518181816137130152818161399101528181613c410152613cd80152f35b634e487b7160e01b81526011600452602490fd5b634e487b7160e01b82526011600452602482fd5b6084908b519062461bcd60e51b82526004820152602760248201527f4f46543a20736861726564446563696d616c73206d757374206265203c3d20646044820152666563696d616c7360c81b6064820152fd5b01519250388062000246565b600c8752848720919083601f198116895b88888383106200040b5750505010620003f1575b505050811b01600c5562000259565b015160001960f88460031b161c19169055388080620003e2565b868601518855909601959485019487935001620003ce565b600c88528588208380860160051c82019288871062000462575b0160051c019085905b828110620004565750506200022b565b89815501859062000446565b925081926200043d565b634e487b7160e01b88526022600452602488fd5b90607f169062000219565b634e487b7160e01b87526041600452602487fd5b015190503880620001e9565b600b8b52888b208894509190601f1984168c5b8b828210620004fa5750508411620004e0575b505050811b01600b55620001fe565b015160001960f88460031b161c19169055388080620004d1565b8385015186558b97909501949384019301620004be565b909150600b8a52878a208580850160051c8201928a86106200055b575b918991869594930160051c01915b8281106200054c575050620001d3565b8c81558594508991016200053c565b925081926200052e565b634e487b7160e01b89526022600452602489fd5b93607f1693620001bc565b634e487b7160e01b88526041600452602488fd5b600080fd5b601f909101601f19168101906001600160401b03821190821017620005c157604052565b634e487b7160e01b600052604160045260246000fd5b51906001600160a01b03821682036200059857565b60005b838110620006005750506000910152565b8181015183820152602001620005ef565b81601f82011215620005985780516001600160401b038111620005c1576040519262000648601f8301601f1916602001856200059d565b818452602082840101116200059857620006699160208085019101620005ec565b9056fe6080604052600436101561001b575b361561001957600080fd5b005b60003560e01c80621d3567146103af57806254af3a146103aa57806301ffc9a7146103a557806306fdde03146103a057806307e0db171461039b578063095ea7b3146103965780630df374831461039157806310ddb1371461038c57806318160ddd1461031e57806323b872dd14610387578063313ce56714610382578063365260b41461037d57806339509351146103785780633d8b38f6146103735780633f1f4fa41461036e57806342d65a8d1461036957806343f68a4914610364578063447705151461035f5780634c42899a1461035f5780634e8eeae91461035a5780635b8c41e61461035557806366ad5c8a14610350578063695ef6bf1461034b57806370a0823114610346578063715018a6146103415780637533d7881461033c57806376203b4814610337578063785e9e8614610332578063857749b01461032d5780638cfd8f5c146103285780638da5cb5b146103235780639358928b1461031e578063950c8a741461031957806395d89b41146103145780639bdb98121461030f5780639f38369a1461030a578063a457c2d714610305578063a4c51df514610300578063a643c52e146102fb578063a6c3d165146102f6578063a9059cbb146102f1578063b353aaa7146102ec578063baf3292d146102e7578063c4461834146102e2578063cbed8b9c146102dd578063d1deba1f146102d8578063dbd01de1146102d3578063dd62ed3e146102ce578063de406577146102c9578063df2a5b3b146102c4578063e6a20ae6146102bf578063eab45d9c146102ba578063eaffd49a146102b5578063eb8d72b7146102b0578063ed629c5c146102ab578063f2fde38b146102a6578063f5ecbdbc146102a15763fc0c546a0361000e57612349565b612275565b6121ae565b61218b565b612041565b611fb8565b611f56565b611f3a565b611e4d565b611e24565b611dca565b611da1565b611c3e565b611b52565b611b35565b611ac5565b611a80565b611a56565b6118d3565b6118b5565b611822565b611764565b6116c1565b611676565b6115d2565b6115a9565b610902565b611580565b61152e565b6114f0565b6114c7565b6112a9565b611252565b61110c565b6110cf565b610fec565b610f66565b610eff565b610d4d565b610c64565b610c43565b610bc2565b610b89565b610b2d565b610a99565b610991565b610960565b610920565b610878565b610839565b610804565b610749565b610669565b6105b7565b610599565b61047a565b61ffff8116036103c057565b600080fd5b35906103d0826103b4565b565b9181601f840112156103c0578235916001600160401b0383116103c057602083818601950101116103c057565b608435906001600160401b03821682036103c057565b9060806003198301126103c05760043561042e816103b4565b916001600160401b03906024358281116103c0578161044f916004016103d2565b9390939260443581811681036103c057926064359182116103c057610476916004016103d2565b9091565b346103c05761048836610415565b929493919291907f00000000000000000000000000000000000000000000000000000000000000006001600160a01b031633036105495761050e61051692610019976105076104ed6104e88a61ffff166000526001602052604060002090565b611237565b805190818414918261053f575b508161051c575b50612f20565b3691610e49565b923691610e49565b92613261565b9050610529368486610e49565b6020815191012090602081519101201438610501565b15159150386104fa565b60405162461bcd60e51b815260206004820152601e60248201527f4c7a4170703a20696e76616c696420656e64706f696e742063616c6c657200006044820152606490fd5b60009103126103c057565b346103c05760003660031901126103c0576020601054604051908152f35b346103c05760203660031901126103c05760043563ffffffff60e01b81168091036103c057602090631f7ecdf760e01b81149081156105fc575b506040519015158152f35b6301ffc9a760e01b149050386105f1565b60005b8381106106205750506000910152565b8181015183820152602001610610565b906020916106498151809281855285808601910161060d565b601f01601f1916010190565b906020610666928181520190610630565b90565b346103c0576000806003193601126107465760405181600b5461068b81611167565b8084529060019081811690811561071e57506001146106c5575b6106c1846106b581880382610cc9565b60405191829182610655565b0390f35b600b8352602094507f0175b7a638427703f0dbe7bb9bbf987a2551717b34e79f33b5b1008d1fa01db95b82841061070b57505050816106c1936106b592820101936106a5565b80548585018701529285019281016106ef565b6106c196506106b59450602092508593915060ff191682840152151560051b820101936106a5565b80fd5b346103c0576000602036600319011261074657600435610768816103b4565b610770612364565b7f00000000000000000000000000000000000000000000000000000000000000006001600160a01b0316908290823b156107e457602461ffff918360405195869485936307e0db1760e01b85521660048401525af180156107df576107d3575080f35b6107dc90610c96565b80f35b6127a1565b5080fd5b6001600160a01b038116036103c057565b35906103d0826107e8565b346103c05760403660031901126103c05761082e600435610824816107e8565b6024359033612597565b602060405160018152f35b346103c05760403660031901126103c05761ffff600435610859816103b4565b610861612364565b166000526003602052602435604060002055600080f35b346103c0576000602036600319011261074657600435610897816103b4565b61089f612364565b7f00000000000000000000000000000000000000000000000000000000000000006001600160a01b0316908290823b156107e457602461ffff918360405195869485936310ddb13760e01b85521660048401525af180156107df576107d3575080f35b346103c05760003660031901126103c0576020600a54604051908152f35b346103c05760603660031901126103c05761082e600435610940816107e8565b60243561094c816107e8565b6044359161095b8333836126c2565b6124c8565b346103c05760003660031901126103c057602060405160128152f35b801515036103c057565b35906103d08261097c565b346103c05760a03660031901126103c0576004356109ae816103b4565b606435906109bb8261097c565b608435906001600160401b0382116103c0576109e061050760409336906004016103d2565b90610a176109fa6109f2604435613c3f565b602435613d0d565b928451958694859463040a7bb160e41b8652309060048701613668565b03817f00000000000000000000000000000000000000000000000000000000000000006001600160a01b03165afa9081156107df576000908192610a68575b50604080519182526020820192909252f35b9050610a8b915060403d8111610a92575b610a838183610cc9565b810190613652565b9038610a56565b503d610a79565b346103c05760403660031901126103c057600435610ab6816107e8565b3360009081526009602090815260408083206001600160a01b03851684529091529020546024358101809111610af05761082e9133612597565b6123d6565b9060406003198301126103c057600435610b0e816103b4565b91602435906001600160401b0382116103c057610476916004016103d2565b346103c057602061ffff610b7a610b4336610af5565b9390911660005260018452610b65610b6c6040600020604051928380926111a1565b0382610cc9565b848151910120923691610e49565b82815191012014604051908152f35b346103c05760203660031901126103c05761ffff600435610ba9816103b4565b1660005260036020526020604060002054604051908152f35b346103c057610bd036610af5565b9190610bda612364565b7f00000000000000000000000000000000000000000000000000000000000000006001600160a01b031691823b156103c057604051928380926342d65a8d60e01b825281610c3160009889978894600485016131d4565b03925af180156107df576107d3575080f35b346103c05760203660031901126103c057610c5c612364565b600435601255005b346103c05760003660031901126103c057602060405160008152f35b634e487b7160e01b600052604160045260246000fd5b6001600160401b038111610ca957604052565b610c80565b60c081019081106001600160401b03821117610ca957604052565b90601f801991011681019081106001600160401b03821117610ca957604052565b60609060c31901126103c05760c490565b908160609103126103c05790565b60c0906101231901126103c05761012490565b9181601f840112156103c0578235916001600160401b0383116103c0576020808501946101c085020101116103c057565b366003190161024081126103c05760c0136103c057604051610d6e81610cae565b600435610d7a816107e8565b8152602435610d88816107e8565b602082015260443560408201526064356060820152608435610da9816107e8565b608082015260a43560a0820152610dbf36610cea565b610dc836610d09565b6001600160401b0392906101e4358481116103c057610deb903690600401610d1c565b610204929192358681116103c057610e07903690600401610d1c565b939092610224359788116103c057610e266100199836906004016103d2565b979096612a10565b6001600160401b038111610ca957601f01601f191660200190565b929192610e5582610e2e565b91610e636040519384610cc9565b8294818452818301116103c0578281602093846000960137010152565b60606003198201126103c057600435610e98816103b4565b916024356001600160401b03928382116103c057806023830112156103c057816024610ec993600401359101610e49565b9160443590811681036103c05790565b602090610ef392826040519483868095519384920161060d565b82019081520301902090565b346103c0576020610f5d61ffff610f3c83610f1936610e80565b94909116600052600582526040600020826040519483868095519384920161060d565b820190815203019020906001600160401b0316600052602052604060002090565b54604051908152f35b346103c057610f7436610415565b9192949390303303610f985761050e610f9292610019973691610e49565b926136ac565b60405162461bcd60e51b815260206004820152602660248201527f4e6f6e626c6f636b696e674c7a4170703a2063616c6c6572206d7573742062656044820152650204c7a4170760d41b6064820152608490fd5b60a03660031901126103c057600435611004816107e8565b602435611010816103b4565b604435916084356001600160401b0381116103c057602061ffff6110476000805160206142f5833981519152933690600401610cfb565b936110ba8535611056816107e8565b611074610507868901359861106a8a6107e8565b604081019061344b565b61107e818a613afd565b61109361108c606435613cd6565b5085613ee0565b9761109f891515613874565b6110b16110ab8a613c3f565b8c613d0d565b9234938b612fd3565b6040519485526001600160a01b0316941692a4005b346103c05760203660031901126103c0576004356110ec816107e8565b60018060a01b031660005260086020526020604060002054604051908152f35b346103c05760008060031936011261074657611126612364565b80546001600160a01b03198116825581906001600160a01b03167f8be0079c531659141344cd1fd0a4f28419497f9722a3daafe3b4186f6b6457e08280a380f35b90600182811c92168015611197575b602083101461118157565b634e487b7160e01b600052602260045260246000fd5b91607f1691611176565b90600092918054916111b283611167565b91828252600193848116908160001461121457506001146111d4575b50505050565b90919394506000526020928360002092846000945b8386106112005750505050010190388080806111ce565b8054858701830152940193859082016111e9565b9294505050602093945060ff191683830152151560051b010190388080806111ce565b906103d061124b92604051938480926111a1565b0383610cc9565b346103c05760203660031901126103c05761ffff600435611272816103b4565b1660005260016020526106c1610b656112956040600020604051928380926111a1565b604051918291602083526020830190610630565b60e03660031901126103c0576004356112c1816107e8565b6024356112cd816103b4565b604435916001600160401b03906084358281116103c0576112f29036906004016103d2565b91909260a43591818316918284036103c05760c4359081116103c05761131c903690600401610cfb565b9261135384359561132c876107e8565b61134b61134160208801359761106a896107e8565b9990923691610e49565b973691610e49565b9460ff6006541660001461144657602286511061140157856020956110b16110ba946113cf8c6113bc61ffff9a8b60226000805160206142f58339815191529f0151931660005260028d526113b660406000206001600052602052604060002090565b54612408565b906113c8821515613b94565b1015613bdd565b6113e46113dd606435613cd6565b5088613ee0565b9a6113f08c1515613874565b8d6113fa8d613c3f565b9033613d9a565b60405162461bcd60e51b815260206004820152601c60248201527f4c7a4170703a20696e76616c69642061646170746572506172616d73000000006044820152606490fd5b948094935051611473576000805160206142f58339815191529460209461ffff946110b16110ba946113cf565b60405162461bcd60e51b815260206004820152602660248201527f4f4654436f72653a205f61646170746572506172616d73206d7573742062652060448201526532b6b83a3c9760d11b6064820152608490fd5b346103c05760003660031901126103c057600f546040516001600160a01b039091168152602090f35b346103c05760003660031901126103c057602060405160ff7f0000000000000000000000000000000000000000000000000000000000000000168152f35b346103c05760403660031901126103c0576020610f5d600435611550816103b4565b61ffff60243591611560836103b4565b166000526002835260406000209061ffff16600052602052604060002090565b346103c05760003660031901126103c0576000546040516001600160a01b039091168152602090f35b346103c05760003660031901126103c0576004546040516001600160a01b039091168152602090f35b346103c0576000806003193601126107465760405181600c546115f481611167565b8084529060019081811690811561071e575060011461161d576106c1846106b581880382610cc9565b600c8352602094507fdf6966c971051c3d54ec59162606531493a51404a002842f56009d7e5cf4a8c75b82841061166357505050816106c1936106b592820101936106a5565b8054858501870152928501928101611647565b346103c057602060ff6116b561ffff610f3c8461169236610e80565b94909116600052600782526040600020826040519483868095519384920161060d565b54166040519015158152f35b346103c05760203660031901126103c05761ffff6004356116e1816103b4565b166000526001602052610b656117016040600020604051928380926111a1565b80511561171f576106b5816117196106c19351613243565b906140fa565b60405162461bcd60e51b815260206004820152601d60248201527f4c7a4170703a206e6f20747275737465642070617468207265636f72640000006044820152606490fd5b346103c05760403660031901126103c057600435611781816107e8565b602435903360005260096020526117ae8160406000209060018060a01b0316600052602052604060002090565b54918083106117cf576117c392039033612597565b60405160018152602090f35b60405162461bcd60e51b815260206004820152602560248201527f45524332303a2064656372656173656420616c6c6f77616e63652062656c6f77604482015264207a65726f60d81b6064820152608490fd5b346103c05760e03660031901126103c05760043561183f816103b4565b6001600160401b03906064358281116103c0576118609036906004016103d2565b61186b9291926103ff565b60a435916118788361097c565b60c4359586116103c0576118936118a39636906004016103d2565b959094604435906024359061347d565b60408051928352602083019190915290f35b346103c05760003660031901126103c0576020601254604051908152f35b346103c0576118e136610af5565b906118ea612364565b604051926020928083858701376119166034868381013060601b88820152036014810188520186610cc9565b60009361ffff8316855260019081815260408620918751916001600160401b038311610ca9576119508361194a8654611167565b866131ef565b80601f84116001146119c05750918080926119af9695948a9b7f8c0400cfe2d1199b1a725c78960bcc2a344d869b80590d0f2bd005db15a572ce9b946119b5575b50501b916000199060031b1c19161790555b604051938493846131d4565b0390a180f35b015192503880611991565b91939498601f1984166119d887600052602060002090565b938a905b828210611a3f575050917f8c0400cfe2d1199b1a725c78960bcc2a344d869b80590d0f2bd005db15a572ce999a959391856119af98969410611a26575b505050811b0190556119a3565b015160001960f88460031b161c19169055388080611a19565b8088869782949787015181550196019401906119dc565b346103c05760403660031901126103c05761082e600435611a76816107e8565b60243590336124c8565b346103c05760003660031901126103c0576040517f00000000000000000000000000000000000000000000000000000000000000006001600160a01b03168152602090f35b346103c05760203660031901126103c0577f5db758e995a17ec1ad84bdef7e8c3293a0bd6179bcce400dff5d4c3d87db726b6020600435611b05816107e8565b611b0d612364565b600480546001600160a01b0319166001600160a01b03929092169182179055604051908152a1005b346103c05760003660031901126103c05760206040516127108152f35b346103c05760803660031901126103c057600435611b6f816103b4565b602435611b7b816103b4565b6064356001600160401b0381116103c057611b9a9036906004016103d2565b9092611ba4612364565b7f00000000000000000000000000000000000000000000000000000000000000006001600160a01b031690813b156103c05760008094611c1b604051978896879586946332fb62e760e21b865261ffff809216600487015216602485015260443560448501526080606485015260848401916131b3565b03925af180156107df57611c2b57005b80611c3861001992610c96565b8061058e565b611c4736610415565b9161ffff86949296166000526005602052611c8e81604060002060206040518092878b833787820190815203019020906001600160401b0316600052602052604060002090565b54918215611d5057611d3f8483611d387fc264d91f3adc5588250e1551f547752ca0cfa8f6b530d243b9f9f4cab10ea8e59a6000611d2484611d0c8e8a8f611d4b9f908f611cf290611ce5611d069436908d610e49565b60208151910120146133be565b61ffff166000526005602052604060002090565b916133a5565b906001600160401b0316600052602052604060002090565b55611d3036878d610e49565b933691610e49565b91886136ac565b60405195869586613414565b0390a1005b60405162461bcd60e51b815260206004820152602360248201527f4e6f6e626c6f636b696e674c7a4170703a206e6f2073746f726564206d65737360448201526261676560e81b6064820152608490fd5b346103c05760003660031901126103c057600e546040516001600160a01b039091168152602090f35b346103c05760403660031901126103c0576020610f5d600435611dec816107e8565b60243590611df9826107e8565b60018060a01b03166000526009835260406000209060018060a01b0316600052602052604060002090565b346103c05760003660031901126103c057600d546040516001600160a01b039091168152602090f35b346103c05760603660031901126103c057600435611e6a816103b4565b602435611e76816103b4565b60443591611e82612364565b8215611efd57611d4b7f9d5c7c0b934da8fefa9c7760c98383778a12dfbfc0c3b3106518f43fb9508ac09361ffff8316600052600260205280611ed78560406000209061ffff16600052602052604060002090565b556040519384938460409194939294606082019561ffff80921683521660208201520152565b60405162461bcd60e51b81526020600482015260156024820152744c7a4170703a20696e76616c6964206d696e47617360581b6044820152606490fd5b346103c05760003660031901126103c057602060405160018152f35b346103c05760203660031901126103c0577f1584ad594a70cbe1e6515592e1272a987d922b097ead875069cebe8b40c004a46020600435611f968161097c565b611f9e612364565b151560ff196006541660ff821617600655604051908152a1005b346103c0576101003660031901126103c057600435611fd6816103b4565b6001600160401b03906024358281116103c057611ff79036906004016103d2565b91906044359084821682036103c057608435612012816107e8565b60c4359586116103c05761202d6100199636906004016103d2565b94909360e4359660a4359460643593613573565b346103c05761204f36610af5565b9190612059612364565b60009161ffff81168352600160209080825260408520916001600160401b038711610ca9576120928761208c8554611167565b856131ef565b8590601f88116001146120f957509186808798936119af957ffa41487ad5d6728f0b19276fa1eddc16558578f5109fc39d2dc33c3230470dab99936120ee575b501b906000198460031b1c1916179055604051938493846131d4565b8801359250386120d2565b90601f19881661210e85600052602060002090565b9288905b828210612174575050918893917ffa41487ad5d6728f0b19276fa1eddc16558578f5109fc39d2dc33c3230470dab98996119af96941061215a575b505082811b0190556119a3565b870135600019600386901b60f8161c19169055388061214d565b808685968294968c01358155019501930190612112565b346103c05760003660031901126103c057602060ff600654166040519015158152f35b346103c05760203660031901126103c0576004356121cb816107e8565b6121d3612364565b6001600160a01b03908116801561222157600080546001600160a01b03198116831782559092167f8be0079c531659141344cd1fd0a4f28419497f9722a3daafe3b4186f6b6457e08380a380f35b60405162461bcd60e51b815260206004820152602660248201527f4f776e61626c653a206e6577206f776e657220697320746865207a65726f206160448201526564647265737360d01b6064820152608490fd5b346103c05760803660031901126103c057600435612292816103b4565b6024359061229f826103b4565b6122aa6044356107e8565b604051633d7b2f6f60e21b815261ffff91821660048201529116602482015230604482015260648035908201526000816084817f00000000000000000000000000000000000000000000000000000000000000006001600160a01b03165afa80156107df576106c191600091612328575b5060405191829182610655565b612343913d8091833e61233b8183610cc9565b810190613155565b3861231b565b346103c05760003660031901126103c0576020604051308152f35b6000546001600160a01b0316330361237857565b606460405162461bcd60e51b815260206004820152602060248201527f4f776e61626c653a2063616c6c6572206973206e6f7420746865206f776e65726044820152fd5b6001600160a01b0316600090815260086020526040902090565b634e487b7160e01b600052601160045260246000fd5b90601f8201809211610af057565b6051019081605111610af057565b91908201809211610af057565b1561241c57565b60405162461bcd60e51b815260206004820152602360248201527f45524332303a207472616e7366657220746f20746865207a65726f206164647260448201526265737360e81b6064820152608490fd5b1561247457565b60405162461bcd60e51b815260206004820152602660248201527f45524332303a207472616e7366657220616d6f756e7420657863656564732062604482015265616c616e636560d01b6064820152608490fd5b916001600160a01b03808416929091831561254457612529826000805160206143158339815191529461253f941696612502881515612415565b6125238461250f836123bc565b5461251c8282101561246d565b03916123bc565b556123bc565b8054820190556040519081529081906020820190565b0390a3565b60405162461bcd60e51b815260206004820152602560248201527f45524332303a207472616e736665722066726f6d20746865207a65726f206164604482015264647265737360d81b6064820152608490fd5b6001600160a01b03808216929190831561267157821693841561262157806126107f8c5be1e5ebec7d5bd14f71427d1e84f3dd0314c0f7b2291e5b200ac8c7c3b925946125f961253f9560018060a01b03166000526009602052604060002090565b9060018060a01b0316600052602052604060002090565b556040519081529081906020820190565b60405162461bcd60e51b815260206004820152602260248201527f45524332303a20617070726f766520746f20746865207a65726f206164647265604482015261737360f01b6064820152608490fd5b60405162461bcd60e51b8152602060048201526024808201527f45524332303a20617070726f76652066726f6d20746865207a65726f206164646044820152637265737360e01b6064820152608490fd5b6001600160a01b0380821660009081526009602090815260408083209386168352929052209091905492600184016126fa5750505050565b8084106127155761270c930391612597565b388080806111ce565b60405162461bcd60e51b815260206004820152601d60248201527f45524332303a20696e73756666696369656e7420616c6c6f77616e63650000006044820152606490fd5b35610666816107e8565b35610666816103b4565b908160209103126103c057516106668161097c565b61ffff90911681526001600160a01b03909116602082015260400190565b6040513d6000823e3d90fd5b908160209103126103c05751610666816103b4565b60a0809180356127d18161097c565b1515845260208101356127e3816107e8565b600180841b03809116602086015261ffff6040830135612802816103b4565b166040860152606082013560608601526080820135612820816107e8565b1660808501520135910152565b359060ff821682036103c057565b9190808252602080920192916000905b828210612859575050505090565b909192938061287360019261286d88610986565b15159052565b612889612881848801610986565b151582850152565b6128a16040612899818901610986565b151590830152565b6128b16060612899818901610986565b6128cb60806128c18189016103c5565b61ffff1690830152565b6128ea60a06128db8189016107f9565b6001600160a01b031690830152565b6128fa60c0612899818901610986565b61290a60e06128db8189016107f9565b61291b6101006128db8189016107f9565b6101208087013590820152610140808701359082015261294b61016061294281890161282d565b60ff1690830152565b61018086810135908201526101a080870135908201526101c090810195019392019061284b565b98979692946129ea612a0b9660a06129fc958d60206001600160401b036102009d9b986103098452169101528d60c0600180851b0380845116604084015280602085015116606084015260408401516080840152606084015185840152608084015116910152015160e08d01526101008c01906127c2565b610220806101c08c01528a019161283b565b918783036101e089015261283b565b930152565b9698976020979694956001600160a01b039593949390919089860187612a358261275a565b16612d65575b506080890180516001600160a01b03168b898216612cfb575b8b018051909e92506001600160a01b03169050888116612c34575b5089519b9c50999a9899612aaa99612a97906001600160a01b03165b6001600160a01b031690565b9b60048c612ab9604082019d8e51613cd6565b5091516001600160a01b031690565b838c604051948580926303408e4760e41b82527f0000000000000000000000000000000000000000000000000000000000000000165afa9283156107df57612b0693612c07575b50613ee0565b948515612bf557612b74612bdf99612b668f9698612bcc996000805160206142f58339815191529f958996612bd19e612b57612b4d612b488f8e903691610e49565b612e6d565b5097915050613c3f565b96604051998a988c8a01612972565b03601f198101835282610cc9565b612b91612b8088612764565b612b8b368887610e49565b90613b52565b612bc6612bbc612bb4612a8b612ba68b612764565b97516001600160a01b031690565b93890161275a565b9334963691610e49565b93612fd3565b612764565b94516001600160a01b031690565b925160405190815292169261ffff1691602090a4565b60405163f1640ae160e01b8152600490fd5b612c2690853d8711612c2d575b612c1e8183610cc9565b8101906127ad565b5038612b00565b503d612c14565b600e54612c74918d91612c4f906001600160a01b0316612a8b565b612c5889612764565b604051809581948293633a304d8b60e21b845260048401612783565b03915afa9081156107df57600091612cce575b5015612c93578c612a6f565b8c51612cca906001600160a01b03165b604051634a0bfec160e01b81526001600160a01b0390911660048201529081906024820190565b0390fd5b612cee91508c8d3d10612cf4575b612ce68183610cc9565b81019061276e565b38612c87565b503d612cdc565b600e54612d159290612c4f906001600160a01b0316612a8b565b03915afa9081156107df57600091612d48575b5015612d3557808b612a54565b51612cca906001600160a01b0316612ca3565b612d5f91508c8d3d10612cf457612ce68183610cc9565b38612d28565b600e54612db1908c90612d80906001600160a01b0316612a8b565b612d8988612764565b90612d938561275a565b604051633a304d8b60e21b8152948593849283929160048401612783565b03915afa9081156107df57600091612dd5575b50612a3b57612ca3612cca9161275a565b612dec91508c8d3d10612cf457612ce68183610cc9565b38612dc4565b15612df957565b60405162461bcd60e51b8152602060048201526012602482015271556e737570706f727465642074785479706560701b6044820152606490fd5b15612e3a57565b60405162461bcd60e51b815260206004820152600b60248201526a47617320746f6f206c6f7760a81b6044820152606490fd5b600080825160228114908115612f15575b5015612ed857600283015193602284015193600261ffff8716600181148015612ecf575b612eab90612df2565b612eb6871515612e33565b14612ebe5750565b925090506056604283015192015190565b50808214612ea2565b60405162461bcd60e51b8152602060048201526015602482015274496e76616c69642061646170746572506172616d7360581b6044820152606490fd5b604291501138612e7e565b15612f2757565b60405162461bcd60e51b815260206004820152602660248201527f4c7a4170703a20696e76616c696420736f757263652073656e64696e6720636f6044820152651b9d1c9858dd60d21b6064820152608490fd5b92612fa061066697959361ffff612fae9416865260c0602087015260c0860190610630565b908482036040860152610630565b6001600160a01b0391821660608401529316608082015280830360a090910152610630565b94612ffc9193929561ffff811660005260016020526130036040600020604051948580926111a1565b0384610cc9565b825115613088576130158551826130e6565b7f00000000000000000000000000000000000000000000000000000000000000006001600160a01b031693843b156103c05760009661306a91604051998a988997889662c5803160e81b885260048801612f7b565b03925af180156107df5761307b5750565b80611c386103d092610c96565b60405162461bcd60e51b815260206004820152603060248201527f4c7a4170703a2064657374696e6174696f6e20636861696e206973206e6f742060448201526f61207472757374656420736f7572636560801b6064820152608490fd5b61ffff16600052600360205260406000205490811561314b575b1161310757565b606460405162461bcd60e51b815260206004820152602060248201527f4c7a4170703a207061796c6f61642073697a6520697320746f6f206c617267656044820152fd5b6127109150613100565b6020818303126103c0578051906001600160401b0382116103c0570181601f820112156103c057805161318781610e2e565b926131956040519485610cc9565b818452602082840101116103c057610666916020808501910161060d565b908060209392818452848401376000828201840152601f01601f1916010190565b60409061ffff610666959316815281602082015201916131b3565b90601f81116131fd57505050565b600091825260208220906020601f850160051c83019410613239575b601f0160051c01915b82811061322e57505050565b818155600101613222565b9092508290613219565b601319810191908211610af057565b605019810191908211610af057565b9290916132d35a604051633356ae4560e11b602082015261ffff8716602482015260806044820152906132cd826132bf61329e60a483018a610630565b6001600160401b038816606484015282810360231901608484015288610630565b03601f198101845283610cc9565b306142a9565b9390156132e2575b5050505050565b6132eb946132f5565b38808080806132db565b91936133927fe183f33de2837795525b4792ca4cd60535bd77c53b7e7030060bfcf5734d6b0c956133a0939561ffff8151602083012096169586600052600560205261335983610f3c60208b6040600020826040519483868095519384920161060d565b556001600160401b0361337e604051988998895260a060208a015260a0890190610630565b921660408701528582036060870152610630565b908382036080850152610630565b0390a1565b6020919283604051948593843782019081520301902090565b156133c557565b60405162461bcd60e51b815260206004820152602160248201527f4e6f6e626c6f636b696e674c7a4170703a20696e76616c6964207061796c6f616044820152601960fa1b6064820152608490fd5b916134409060609461ffff6001600160401b0394999897991685526080602086015260808501916131b3565b951660408201520152565b903590601e19813603018212156103c057018035906001600160401b0382116103c0576020019181360383136103c057565b9491959897906113fa6134a660409961349e6134ac976134c9993691610e49565b943691610e49565b97613c3f565b928451968794859463040a7bb160e41b8652309060048701613668565b03817f00000000000000000000000000000000000000000000000000000000000000006001600160a01b03165afa9182156107df57600090819361350c57509190565b905061047691925060403d8111610a9257610a838183610cc9565b939694916135559061066699979461ffff6001600160401b039416875260c0602088015260c08701916131b3565b961660408401526060830152608082015260a08185039101526131b3565b9196979298959493909430330361360d5761358f908530614046565b60405181815290946001600160a01b03169390849061ffff8516907fbf551ec93859b170f9b2141bd9298bf3f64322c6f7beb2543a0cb669834118bf90602090a3833b156103c05760009889956135fd936040519c8d9b8c9a8b98633fe79aed60e11b8a5260048a01613527565b0393f180156107df5761307b5750565b60405162461bcd60e51b815260206004820152601f60248201527f4f4654436f72653a2063616c6c6572206d757374206265204f4654436f7265006044820152606490fd5b91908260409103126103c0576020825192015190565b9192610666959361ffff6136979316845260018060a01b0316602084015260a0604084015260a0830190610630565b92151560608201526080818403910152610630565b92919060ff6136ba8461424e565b168061381f5750505060ff6136ce8261424e565b161580613814575b6136df90613d53565b6136f16136eb826141fe565b91614299565b90916001600160a01b03918284161561380a575b613739906001600160401b037f00000000000000000000000000000000000000000000000000000000000000009116613cc3565b9183169283156137c5577fbf551ec93859b170f9b2141bd9298bf3f64322c6f7beb2543a0cb669834118bf9161378561ffff9261378061377b87600a54612408565b600a55565b6123bc565b848154019055846000600080516020614315833981519152604051806137b089829190602083019252565b0390a36040519384521691806020810161253f565b60405162461bcd60e51b815260206004820152601f60248201527f45524332303a206d696e7420746f20746865207a65726f2061646472657373006044820152606490fd5b61dead9350613705565b5080516029146136d6565b60010361382f576103d093613945565b60405162461bcd60e51b815260206004820152601c60248201527f4f4654436f72653a20756e6b6e6f776e207061636b65742074797065000000006044820152606490fd5b1561387b57565b60405162461bcd60e51b815260206004820152601960248201527813d19510dbdc994e88185b5bdd5b9d081d1bdbc81cdb585b1b603a1b6044820152606490fd5b98979692936001600160401b036138ee60e0989461ffff612a0b9995168d5260208d61010091829101528d0190610630565b951660408b015260608a01526001600160a01b0316608089015260a088015286820360c0880152610630565b6001600160401b0361393a60409396959496606084526060840190610630565b951660208201520152565b909161395084613e07565b909161398161397a87611d0c6139748b61ffff166000526007602052604060002090565b8c610ed9565b5460ff1690565b916139b76001600160401b0392837f00000000000000000000000000000000000000000000000000000000000000009116613cc3565b9288888b8315613ab3575b505050853b15613a685794613a0996946132cd948a946132bf948d99600014613a615750505a925b5a978b6040519a8b9863757fea4d60e11b60208b015260248a016138bc565b9015613a56575090613a5161ffff928560207fb8890edbfc1c74692f527444645f95489c3703cc2df42e4a366f5d06fa6cd8849697519101209060405194859416968461391a565b0390a2565b926103d094926132f5565b16926139ea565b50506040516001600160a01b039094168452507f9aedf5fdba8716db3b6705ca00150643309995d4f818a249ed6dde6677e7792d9750919550859450506020840192506133a0915050565b90611d0c613ae892613ae289613acd613af5979b30613ff6565b9961ffff166000526007602052604060002090565b90610ed9565b805460ff19166001179055565b88888b6139c2565b60065460ff1615613b4a5760228251106114015761ffff60226103d093015191166000526002602052613b3d604060002060008052602052604060002090565b54906113c8821515613b94565b505161147357565b60065460ff1615613b4a5760228251106114015761ffff60226103d093015191166000526002602052613b3d6040600020610309600052602052604060002090565b15613b9b57565b60405162461bcd60e51b815260206004820152601a602482015279131e905c1c0e881b5a5b91d85cd31a5b5a5d081b9bdd081cd95d60321b6044820152606490fd5b15613be457565b60405162461bcd60e51b815260206004820152601b60248201527f4c7a4170703a20676173206c696d697420697320746f6f206c6f7700000000006044820152606490fd5b634e487b7160e01b600052601260045260246000fd5b7f0000000000000000000000000000000000000000000000000000000000000000908115613cbe57046001600160401b0390818111613c7c571690565b60405162461bcd60e51b815260206004820152601a6024820152794f4654436f72653a20616d6f756e745344206f766572666c6f7760301b6044820152606490fd5b613c29565b81810292918115918404141715610af057565b7f00000000000000000000000000000000000000000000000000000000000000008015613cbe57810690818103908111610af05791565b90604051916000602084015260218301526001600160401b0360c01b9060c01b16604182015260298152606081018181106001600160401b03821117610ca95760405290565b15613d5a57565b60405162461bcd60e51b815260206004820152601860248201527713d19510dbdc994e881a5b9d985b1a59081c185e5b1bd85960421b6044820152606490fd5b939260719261066694604051968794600160f81b602087015260218601526001600160401b0360c01b809360c01b16604186015260018060a01b0316604985015260c01b166069830152613df7815180926020868601910161060d565b8101036051810184520182610cc9565b90613e1f600160ff613e188561424e565b1614613d53565b613e28826141fe565b90613e3283614299565b906049845110613ea3576049840151936051815110613e6757613e64605182015191613e5e8151613252565b9061417a565b91565b60405162461bcd60e51b8152602060048201526014602482015273746f55696e7436345f6f75744f66426f756e647360601b6044820152606490fd5b60405162461bcd60e51b8152602060048201526015602482015274746f427974657333325f6f75744f66426f756e647360581b6044820152606490fd5b6001600160a01b038116338103613f8f575b8015613f405781613f1584613f086000956123bc565b5461251c82821015613f9f565b55613f2383600a5403600a55565b60405183815260008051602061431583398151915290602090a390565b60405162461bcd60e51b815260206004820152602160248201527f45524332303a206275726e2066726f6d20746865207a65726f206164647265736044820152607360f81b6064820152608490fd5b613f9a8333846126c2565b613ef2565b15613fa657565b60405162461bcd60e51b815260206004820152602260248201527f45524332303a206275726e20616d6f756e7420657863656564732062616c616e604482015261636560f01b6064820152608490fd5b6001600160a01b038116919082156137c557600a5490828201809211610af05760009261403760209260008051602061431583398151915294600a556123bc565b818154019055604051908152a3565b6106669183916001600160a01b038116308114159081614072575b50156124c85761095b8333836126c2565b905033141538614061565b1561408457565b60405162461bcd60e51b815260206004820152600e60248201526d736c6963655f6f766572666c6f7760901b6044820152606490fd5b156140c157565b60405162461bcd60e51b8152602060048201526011602482015270736c6963655f6f75744f66426f756e647360781b6044820152606490fd5b61410e82614107816123ec565b101561407d565b61411b82825110156140ba565b81614133575050604051600081526020810160405290565b60405191601f811691821560051b808486010193838501920101905b8084106141675750508252601f01601f191660405290565b909283518152602080910193019061414f565b61418782614107816123ec565b61419c8151614195846123fa565b11156140ba565b816141b4575050604051600081526020810160405290565b60405191601f8116916051831560051b80858701019484860193010101905b8084106141eb5750508252601f01601f191660405290565b90928351815260208091019301906141d3565b602181511061421157602d015160601c90565b60405162461bcd60e51b8152602060048201526015602482015274746f416464726573735f6f75744f66426f756e647360581b6044820152606490fd5b600181511061425e576001015190565b60405162461bcd60e51b8152602060048201526013602482015272746f55696e74385f6f75744f66426f756e647360681b6044820152606490fd5b6029815110613e67576029015190565b90929160008091604051956142bd87610cae565b6096875282602088019560a036883760208451940192f1903d90609682116142eb575b6000908286523e9190565b609691506142e056fed81fc9b8523134ed613870ed029d6170cbb73aa6a6bc311b9a642689fb9df59addf252ad1be2c89b69c2b068fc378daa952ba7f163c4a11628f55a4df523b3efa2646970667358221220f9f6a0b4ae4092525bbe90ae25a57e2328bc01ec2620bc43f214d4aad07d968864736f6c63430008130033",
  "linkReferences": {},
  "deployedLinkReferences": {}
}