{
  "_format": "hh-sol-artifact-1",
  "contractName": "BaseTOFTLeverageModule",
  "sourceName": "contracts/tOFT/modules/BaseTOFTLeverageModule.sol",
  "abi": [
    {
      "inputs": [
        {
          "internalType": "address",
          "name": "_lzEndpoint",
          "type": "address"
        },
        {
          "internalType": "address",
          "name": "_erc20",
          "type": "address"
        },
        {
          "internalType": "contract IYieldBoxBase",
          "name": "_yieldBox",
          "type": "address"
        },
        {
          "internalType": "string",
          "name": "_name",
          "type": "string"
        },
        {
          "internalType": "string",
          "name": "_symbol",
          "type": "string"
        },
        {
          "internalType": "uint8",
          "name": "_decimal",
          "type": "uint8"
        },
        {
          "internalType": "uint256",
          "name": "_hostChainID",
          "type": "uint256"
        }
      ],
      "stateMutability": "nonpayable",
      "type": "constructor"
    },
    {
      "anonymous": false,
      "inputs": [
        {
          "indexed": true,
          "internalType": "address",
          "name": "owner",
          "type": "address"
        },
        {
          "indexed": true,
          "internalType": "address",
          "name": "spender",
          "type": "address"
        },
        {
          "indexed": false,
          "internalType": "uint256",
          "name": "value",
          "type": "uint256"
        }
      ],
      "name": "Approval",
      "type": "event"
    },
    {
      "anonymous": false,
      "inputs": [
        {
          "indexed": true,
          "internalType": "uint16",
          "name": "_srcChainId",
          "type": "uint16"
        },
        {
          "indexed": false,
          "internalType": "bytes",
          "name": "_srcAddress",
          "type": "bytes"
        },
        {
          "indexed": false,
          "internalType": "uint64",
          "name": "_nonce",
          "type": "uint64"
        },
        {
          "indexed": false,
          "internalType": "bytes32",
          "name": "_hash",
          "type": "bytes32"
        }
      ],
      "name": "CallOFTReceivedSuccess",
      "type": "event"
    },
    {
      "anonymous": false,
      "inputs": [
        {
          "indexed": false,
          "internalType": "uint16",
          "name": "_srcChainId",
          "type": "uint16"
        },
        {
          "indexed": false,
          "internalType": "bytes",
          "name": "_srcAddress",
          "type": "bytes"
        },
        {
          "indexed": false,
          "internalType": "uint64",
          "name": "_nonce",
          "type": "uint64"
        },
        {
          "indexed": false,
          "internalType": "bytes",
          "name": "_payload",
          "type": "bytes"
        },
        {
          "indexed": false,
          "internalType": "bytes",
          "name": "_reason",
          "type": "bytes"
        }
      ],
      "name": "MessageFailed",
      "type": "event"
    },
    {
      "anonymous": false,
      "inputs": [
        {
          "indexed": false,
          "internalType": "address",
          "name": "_address",
          "type": "address"
        }
      ],
      "name": "NonContractAddress",
      "type": "event"
    },
    {
      "anonymous": false,
      "inputs": [
        {
          "indexed": true,
          "internalType": "address",
          "name": "previousOwner",
          "type": "address"
        },
        {
          "indexed": true,
          "internalType": "address",
          "name": "newOwner",
          "type": "address"
        }
      ],
      "name": "OwnershipTransferred",
      "type": "event"
    },
    {
      "anonymous": false,
      "inputs": [
        {
          "indexed": true,
          "internalType": "uint16",
          "name": "_srcChainId",
          "type": "uint16"
        },
        {
          "indexed": true,
          "internalType": "address",
          "name": "_to",
          "type": "address"
        },
        {
          "indexed": false,
          "internalType": "uint256",
          "name": "_amount",
          "type": "uint256"
        }
      ],
      "name": "ReceiveFromChain",
      "type": "event"
    },
    {
      "anonymous": false,
      "inputs": [
        {
          "indexed": false,
          "internalType": "uint16",
          "name": "_srcChainId",
          "type": "uint16"
        },
        {
          "indexed": false,
          "internalType": "bytes",
          "name": "_srcAddress",
          "type": "bytes"
        },
        {
          "indexed": false,
          "internalType": "uint64",
          "name": "_nonce",
          "type": "uint64"
        },
        {
          "indexed": false,
          "internalType": "bytes32",
          "name": "_payloadHash",
          "type": "bytes32"
        }
      ],
      "name": "RetryMessageSuccess",
      "type": "event"
    },
    {
      "anonymous": false,
      "inputs": [
        {
          "indexed": true,
          "internalType": "uint16",
          "name": "_dstChainId",
          "type": "uint16"
        },
        {
          "indexed": true,
          "internalType": "address",
          "name": "_from",
          "type": "address"
        },
        {
          "indexed": true,
          "internalType": "bytes32",
          "name": "_toAddress",
          "type": "bytes32"
        },
        {
          "indexed": false,
          "internalType": "uint256",
          "name": "_amount",
          "type": "uint256"
        }
      ],
      "name": "SendToChain",
      "type": "event"
    },
    {
      "anonymous": false,
      "inputs": [
        {
          "indexed": false,
          "internalType": "uint16",
          "name": "_dstChainId",
          "type": "uint16"
        },
        {
          "indexed": false,
          "internalType": "uint16",
          "name": "_type",
          "type": "uint16"
        },
        {
          "indexed": false,
          "internalType": "uint256",
          "name": "_minDstGas",
          "type": "uint256"
        }
      ],
      "name": "SetMinDstGas",
      "type": "event"
    },
    {
      "anonymous": false,
      "inputs": [
        {
          "indexed": false,
          "internalType": "address",
          "name": "precrime",
          "type": "address"
        }
      ],
      "name": "SetPrecrime",
      "type": "event"
    },
    {
      "anonymous": false,
      "inputs": [
        {
          "indexed": false,
          "internalType": "uint16",
          "name": "_remoteChainId",
          "type": "uint16"
        },
        {
          "indexed": false,
          "internalType": "bytes",
          "name": "_path",
          "type": "bytes"
        }
      ],
      "name": "SetTrustedRemote",
      "type": "event"
    },
    {
      "anonymous": false,
      "inputs": [
        {
          "indexed": false,
          "internalType": "uint16",
          "name": "_remoteChainId",
          "type": "uint16"
        },
        {
          "indexed": false,
          "internalType": "bytes",
          "name": "_remoteAddress",
          "type": "bytes"
        }
      ],
      "name": "SetTrustedRemoteAddress",
      "type": "event"
    },
    {
      "anonymous": false,
      "inputs": [
        {
          "indexed": false,
          "internalType": "bool",
          "name": "_useCustomAdapterParams",
          "type": "bool"
        }
      ],
      "name": "SetUseCustomAdapterParams",
      "type": "event"
    },
    {
      "anonymous": false,
      "inputs": [
        {
          "indexed": true,
          "internalType": "address",
          "name": "from",
          "type": "address"
        },
        {
          "indexed": true,
          "internalType": "address",
          "name": "to",
          "type": "address"
        },
        {
          "indexed": false,
          "internalType": "uint256",
          "name": "value",
          "type": "uint256"
        }
      ],
      "name": "Transfer",
      "type": "event"
    },
    {
      "inputs": [],
      "name": "DEFAULT_PAYLOAD_SIZE_LIMIT",
      "outputs": [
        {
          "internalType": "uint256",
          "name": "",
          "type": "uint256"
        }
      ],
      "stateMutability": "view",
      "type": "function"
    },
    {
      "inputs": [],
      "name": "NO_EXTRA_GAS",
      "outputs": [
        {
          "internalType": "uint256",
          "name": "",
          "type": "uint256"
        }
      ],
      "stateMutability": "view",
      "type": "function"
    },
    {
      "inputs": [],
      "name": "PT_SEND",
      "outputs": [
        {
          "internalType": "uint8",
          "name": "",
          "type": "uint8"
        }
      ],
      "stateMutability": "view",
      "type": "function"
    },
    {
      "inputs": [],
      "name": "PT_SEND_AND_CALL",
      "outputs": [
        {
          "internalType": "uint8",
          "name": "",
          "type": "uint8"
        }
      ],
      "stateMutability": "view",
      "type": "function"
    },
    {
      "inputs": [
        {
          "internalType": "address",
          "name": "owner",
          "type": "address"
        },
        {
          "internalType": "address",
          "name": "spender",
          "type": "address"
        }
      ],
      "name": "allowance",
      "outputs": [
        {
          "internalType": "uint256",
          "name": "",
          "type": "uint256"
        }
      ],
      "stateMutability": "view",
      "type": "function"
    },
    {
      "inputs": [
        {
          "internalType": "address",
          "name": "spender",
          "type": "address"
        },
        {
          "internalType": "uint256",
          "name": "amount",
          "type": "uint256"
        }
      ],
      "name": "approve",
      "outputs": [
        {
          "internalType": "bool",
          "name": "",
          "type": "bool"
        }
      ],
      "stateMutability": "nonpayable",
      "type": "function"
    },
    {
      "inputs": [
        {
          "internalType": "address",
          "name": "account",
          "type": "address"
        }
      ],
      "name": "balanceOf",
      "outputs": [
        {
          "internalType": "uint256",
          "name": "",
          "type": "uint256"
        }
      ],
      "stateMutability": "view",
      "type": "function"
    },
    {
      "inputs": [
        {
          "internalType": "uint16",
          "name": "_srcChainId",
          "type": "uint16"
        },
        {
          "internalType": "bytes",
          "name": "_srcAddress",
          "type": "bytes"
        },
        {
          "internalType": "uint64",
          "name": "_nonce",
          "type": "uint64"
        },
        {
          "internalType": "bytes32",
          "name": "_from",
          "type": "bytes32"
        },
        {
          "internalType": "address",
          "name": "_to",
          "type": "address"
        },
        {
          "internalType": "uint256",
          "name": "_amount",
          "type": "uint256"
        },
        {
          "internalType": "bytes",
          "name": "_payload",
          "type": "bytes"
        },
        {
          "internalType": "uint256",
          "name": "_gasForCall",
          "type": "uint256"
        }
      ],
      "name": "callOnOFTReceived",
      "outputs": [],
      "stateMutability": "nonpayable",
      "type": "function"
    },
    {
      "inputs": [],
      "name": "circulatingSupply",
      "outputs": [
        {
          "internalType": "uint256",
          "name": "",
          "type": "uint256"
        }
      ],
      "stateMutability": "view",
      "type": "function"
    },
    {
      "inputs": [
        {
          "internalType": "uint16",
          "name": "",
          "type": "uint16"
        },
        {
          "internalType": "bytes",
          "name": "",
          "type": "bytes"
        },
        {
          "internalType": "uint64",
          "name": "",
          "type": "uint64"
        }
      ],
      "name": "creditedPackets",
      "outputs": [
        {
          "internalType": "bool",
          "name": "",
          "type": "bool"
        }
      ],
      "stateMutability": "view",
      "type": "function"
    },
    {
      "inputs": [],
      "name": "decimals",
      "outputs": [
        {
          "internalType": "uint8",
          "name": "",
          "type": "uint8"
        }
      ],
      "stateMutability": "view",
      "type": "function"
    },
    {
      "inputs": [
        {
          "internalType": "address",
          "name": "spender",
          "type": "address"
        },
        {
          "internalType": "uint256",
          "name": "subtractedValue",
          "type": "uint256"
        }
      ],
      "name": "decreaseAllowance",
      "outputs": [
        {
          "internalType": "bool",
          "name": "",
          "type": "bool"
        }
      ],
      "stateMutability": "nonpayable",
      "type": "function"
    },
    {
      "inputs": [],
      "name": "erc20",
      "outputs": [
        {
          "internalType": "address",
          "name": "",
          "type": "address"
        }
      ],
      "stateMutability": "view",
      "type": "function"
    },
    {
      "inputs": [
        {
          "internalType": "uint16",
          "name": "_dstChainId",
          "type": "uint16"
        },
        {
          "internalType": "bytes32",
          "name": "_toAddress",
          "type": "bytes32"
        },
        {
          "internalType": "uint256",
          "name": "_amount",
          "type": "uint256"
        },
        {
          "internalType": "bytes",
          "name": "_payload",
          "type": "bytes"
        },
        {
          "internalType": "uint64",
          "name": "_dstGasForCall",
          "type": "uint64"
        },
        {
          "internalType": "bool",
          "name": "_useZro",
          "type": "bool"
        },
        {
          "internalType": "bytes",
          "name": "_adapterParams",
          "type": "bytes"
        }
      ],
      "name": "estimateSendAndCallFee",
      "outputs": [
        {
          "internalType": "uint256",
          "name": "nativeFee",
          "type": "uint256"
        },
        {
          "internalType": "uint256",
          "name": "zroFee",
          "type": "uint256"
        }
      ],
      "stateMutability": "view",
      "type": "function"
    },
    {
      "inputs": [
        {
          "internalType": "uint16",
          "name": "_dstChainId",
          "type": "uint16"
        },
        {
          "internalType": "bytes32",
          "name": "_toAddress",
          "type": "bytes32"
        },
        {
          "internalType": "uint256",
          "name": "_amount",
          "type": "uint256"
        },
        {
          "internalType": "bool",
          "name": "_useZro",
          "type": "bool"
        },
        {
          "internalType": "bytes",
          "name": "_adapterParams",
          "type": "bytes"
        }
      ],
      "name": "estimateSendFee",
      "outputs": [
        {
          "internalType": "uint256",
          "name": "nativeFee",
          "type": "uint256"
        },
        {
          "internalType": "uint256",
          "name": "zroFee",
          "type": "uint256"
        }
      ],
      "stateMutability": "view",
      "type": "function"
    },
    {
      "inputs": [
        {
          "internalType": "uint16",
          "name": "",
          "type": "uint16"
        },
        {
          "internalType": "bytes",
          "name": "",
          "type": "bytes"
        },
        {
          "internalType": "uint64",
          "name": "",
          "type": "uint64"
        }
      ],
      "name": "failedMessages",
      "outputs": [
        {
          "internalType": "bytes32",
          "name": "",
          "type": "bytes32"
        }
      ],
      "stateMutability": "view",
      "type": "function"
    },
    {
      "inputs": [
        {
          "internalType": "uint16",
          "name": "_srcChainId",
          "type": "uint16"
        },
        {
          "internalType": "bytes",
          "name": "_srcAddress",
          "type": "bytes"
        }
      ],
      "name": "forceResumeReceive",
      "outputs": [],
      "stateMutability": "nonpayable",
      "type": "function"
    },
    {
      "inputs": [
        {
          "internalType": "uint16",
          "name": "_version",
          "type": "uint16"
        },
        {
          "internalType": "uint16",
          "name": "_chainId",
          "type": "uint16"
        },
        {
          "internalType": "address",
          "name": "",
          "type": "address"
        },
        {
          "internalType": "uint256",
          "name": "_configType",
          "type": "uint256"
        }
      ],
      "name": "getConfig",
      "outputs": [
        {
          "internalType": "bytes",
          "name": "",
          "type": "bytes"
        }
      ],
      "stateMutability": "view",
      "type": "function"
    },
    {
      "inputs": [
        {
          "internalType": "uint16",
          "name": "_remoteChainId",
          "type": "uint16"
        }
      ],
      "name": "getTrustedRemoteAddress",
      "outputs": [
        {
          "internalType": "bytes",
          "name": "",
          "type": "bytes"
        }
      ],
      "stateMutability": "view",
      "type": "function"
    },
    {
      "inputs": [],
      "name": "hostChainID",
      "outputs": [
        {
          "internalType": "uint256",
          "name": "",
          "type": "uint256"
        }
      ],
      "stateMutability": "view",
      "type": "function"
    },
    {
      "inputs": [
        {
          "internalType": "address",
          "name": "spender",
          "type": "address"
        },
        {
          "internalType": "uint256",
          "name": "addedValue",
          "type": "uint256"
        }
      ],
      "name": "increaseAllowance",
      "outputs": [
        {
          "internalType": "bool",
          "name": "",
          "type": "bool"
        }
      ],
      "stateMutability": "nonpayable",
      "type": "function"
    },
    {
      "inputs": [
        {
          "internalType": "address",
          "name": "from",
          "type": "address"
        },
        {
          "internalType": "uint256",
          "name": "share",
          "type": "uint256"
        },
        {
          "components": [
            {
              "internalType": "address",
              "name": "tokenOut",
              "type": "address"
            },
            {
              "internalType": "uint256",
              "name": "amountOutMin",
              "type": "uint256"
            },
            {
              "internalType": "bytes",
              "name": "data",
              "type": "bytes"
            }
          ],
          "internalType": "struct IUSDOBase.ILeverageSwapData",
          "name": "swapData",
          "type": "tuple"
        },
        {
          "components": [
            {
              "internalType": "uint256",
              "name": "srcExtraGasLimit",
              "type": "uint256"
            },
            {
              "internalType": "uint16",
              "name": "lzSrcChainId",
              "type": "uint16"
            },
            {
              "internalType": "uint16",
              "name": "lzDstChainId",
              "type": "uint16"
            },
            {
              "internalType": "address",
              "name": "zroPaymentAddress",
              "type": "address"
            },
            {
              "internalType": "bytes",
              "name": "dstAirdropAdapterParam",
              "type": "bytes"
            },
            {
              "internalType": "bytes",
              "name": "srcAirdropAdapterParam",
              "type": "bytes"
            },
            {
              "internalType": "address",
              "name": "refundAddress",
              "type": "address"
            }
          ],
          "internalType": "struct IUSDOBase.ILeverageLZData",
          "name": "lzData",
          "type": "tuple"
        },
        {
          "components": [
            {
              "internalType": "address",
              "name": "swapper",
              "type": "address"
            },
            {
              "internalType": "address",
              "name": "magnetar",
              "type": "address"
            },
            {
              "internalType": "address",
              "name": "tOft",
              "type": "address"
            },
            {
              "internalType": "address",
              "name": "srcMarket",
              "type": "address"
            }
          ],
          "internalType": "struct IUSDOBase.ILeverageExternalContractsData",
          "name": "externalData",
          "type": "tuple"
        },
        {
          "internalType": "bytes",
          "name": "airdropAdapterParams",
          "type": "bytes"
        },
        {
          "components": [
            {
              "internalType": "bool",
              "name": "permitAll",
              "type": "bool"
            },
            {
              "internalType": "bool",
              "name": "allowFailure",
              "type": "bool"
            },
            {
              "internalType": "address",
              "name": "target",
              "type": "address"
            },
            {
              "internalType": "bool",
              "name": "permitBorrow",
              "type": "bool"
            },
            {
              "internalType": "address",
              "name": "owner",
              "type": "address"
            },
            {
              "internalType": "address",
              "name": "spender",
              "type": "address"
            },
            {
              "internalType": "uint256",
              "name": "value",
              "type": "uint256"
            },
            {
              "internalType": "uint256",
              "name": "deadline",
              "type": "uint256"
            },
            {
              "internalType": "uint8",
              "name": "v",
              "type": "uint8"
            },
            {
              "internalType": "bytes32",
              "name": "r",
              "type": "bytes32"
            },
            {
              "internalType": "bytes32",
              "name": "s",
              "type": "bytes32"
            }
          ],
          "internalType": "struct ICommonData.IApproval[]",
          "name": "approvals",
          "type": "tuple[]"
        }
      ],
      "name": "initMultiSell",
      "outputs": [],
      "stateMutability": "payable",
      "type": "function"
    },
    {
      "inputs": [
        {
          "internalType": "uint16",
          "name": "",
          "type": "uint16"
        }
      ],
      "name": "isLdChain",
      "outputs": [
        {
          "internalType": "bool",
          "name": "",
          "type": "bool"
        }
      ],
      "stateMutability": "view",
      "type": "function"
    },
    {
      "inputs": [
        {
          "internalType": "uint16",
          "name": "_srcChainId",
          "type": "uint16"
        },
        {
          "internalType": "bytes",
          "name": "_srcAddress",
          "type": "bytes"
        }
      ],
      "name": "isTrustedRemote",
      "outputs": [
        {
          "internalType": "bool",
          "name": "",
          "type": "bool"
        }
      ],
      "stateMutability": "view",
      "type": "function"
    },
    {
      "inputs": [
        {
          "internalType": "address",
          "name": "module",
          "type": "address"
        },
        {
          "internalType": "uint16",
          "name": "_srcChainId",
          "type": "uint16"
        },
        {
          "internalType": "bytes",
          "name": "_srcAddress",
          "type": "bytes"
        },
        {
          "internalType": "uint64",
          "name": "_nonce",
          "type": "uint64"
        },
        {
          "internalType": "bytes",
          "name": "_payload",
          "type": "bytes"
        }
      ],
      "name": "leverageDown",
      "outputs": [],
      "stateMutability": "nonpayable",
      "type": "function"
    },
    {
      "inputs": [
        {
          "internalType": "uint256",
          "name": "amount",
          "type": "uint256"
        },
        {
          "components": [
            {
              "internalType": "address",
              "name": "tokenOut",
              "type": "address"
            },
            {
              "internalType": "uint256",
              "name": "amountOutMin",
              "type": "uint256"
            },
            {
              "internalType": "bytes",
              "name": "data",
              "type": "bytes"
            }
          ],
          "internalType": "struct IUSDOBase.ILeverageSwapData",
          "name": "swapData",
          "type": "tuple"
        },
        {
          "components": [
            {
              "internalType": "address",
              "name": "swapper",
              "type": "address"
            },
            {
              "internalType": "address",
              "name": "magnetar",
              "type": "address"
            },
            {
              "internalType": "address",
              "name": "tOft",
              "type": "address"
            },
            {
              "internalType": "address",
              "name": "srcMarket",
              "type": "address"
            }
          ],
          "internalType": "struct IUSDOBase.ILeverageExternalContractsData",
          "name": "externalData",
          "type": "tuple"
        },
        {
          "components": [
            {
              "internalType": "uint256",
              "name": "srcExtraGasLimit",
              "type": "uint256"
            },
            {
              "internalType": "uint16",
              "name": "lzSrcChainId",
              "type": "uint16"
            },
            {
              "internalType": "uint16",
              "name": "lzDstChainId",
              "type": "uint16"
            },
            {
              "internalType": "address",
              "name": "zroPaymentAddress",
              "type": "address"
            },
            {
              "internalType": "bytes",
              "name": "dstAirdropAdapterParam",
              "type": "bytes"
            },
            {
              "internalType": "bytes",
              "name": "srcAirdropAdapterParam",
              "type": "bytes"
            },
            {
              "internalType": "address",
              "name": "refundAddress",
              "type": "address"
            }
          ],
          "internalType": "struct IUSDOBase.ILeverageLZData",
          "name": "lzData",
          "type": "tuple"
        },
        {
          "internalType": "address",
          "name": "leverageFor",
          "type": "address"
        }
      ],
      "name": "leverageDownInternal",
      "outputs": [],
      "stateMutability": "payable",
      "type": "function"
    },
    {
      "inputs": [],
      "name": "lzEndpoint",
      "outputs": [
        {
          "internalType": "contract ILayerZeroEndpoint",
          "name": "",
          "type": "address"
        }
      ],
      "stateMutability": "view",
      "type": "function"
    },
    {
      "inputs": [
        {
          "internalType": "uint16",
          "name": "_srcChainId",
          "type": "uint16"
        },
        {
          "internalType": "bytes",
          "name": "_srcAddress",
          "type": "bytes"
        },
        {
          "internalType": "uint64",
          "name": "_nonce",
          "type": "uint64"
        },
        {
          "internalType": "bytes",
          "name": "_payload",
          "type": "bytes"
        }
      ],
      "name": "lzReceive",
      "outputs": [],
      "stateMutability": "nonpayable",
      "type": "function"
    },
    {
      "inputs": [
        {
          "internalType": "uint16",
          "name": "",
          "type": "uint16"
        },
        {
          "internalType": "uint16",
          "name": "",
          "type": "uint16"
        }
      ],
      "name": "minDstGasLookup",
      "outputs": [
        {
          "internalType": "uint256",
          "name": "",
          "type": "uint256"
        }
      ],
      "stateMutability": "view",
      "type": "function"
    },
    {
      "inputs": [
        {
          "internalType": "bytes",
          "name": "_payload",
          "type": "bytes"
        }
      ],
      "name": "multiHop",
      "outputs": [],
      "stateMutability": "nonpayable",
      "type": "function"
    },
    {
      "inputs": [],
      "name": "name",
      "outputs": [
        {
          "internalType": "string",
          "name": "",
          "type": "string"
        }
      ],
      "stateMutability": "view",
      "type": "function"
    },
    {
      "inputs": [
        {
          "internalType": "uint16",
          "name": "_srcChainId",
          "type": "uint16"
        },
        {
          "internalType": "bytes",
          "name": "_srcAddress",
          "type": "bytes"
        },
        {
          "internalType": "uint64",
          "name": "_nonce",
          "type": "uint64"
        },
        {
          "internalType": "bytes",
          "name": "_payload",
          "type": "bytes"
        }
      ],
      "name": "nonblockingLzReceive",
      "outputs": [],
      "stateMutability": "nonpayable",
      "type": "function"
    },
    {
      "inputs": [],
      "name": "owner",
      "outputs": [
        {
          "internalType": "address",
          "name": "",
          "type": "address"
        }
      ],
      "stateMutability": "view",
      "type": "function"
    },
    {
      "inputs": [
        {
          "internalType": "uint16",
          "name": "",
          "type": "uint16"
        }
      ],
      "name": "payloadSizeLimitLookup",
      "outputs": [
        {
          "internalType": "uint256",
          "name": "",
          "type": "uint256"
        }
      ],
      "stateMutability": "view",
      "type": "function"
    },
    {
      "inputs": [],
      "name": "precrime",
      "outputs": [
        {
          "internalType": "address",
          "name": "",
          "type": "address"
        }
      ],
      "stateMutability": "view",
      "type": "function"
    },
    {
      "inputs": [],
      "name": "renounceOwnership",
      "outputs": [],
      "stateMutability": "nonpayable",
      "type": "function"
    },
    {
      "inputs": [
        {
          "internalType": "uint16",
          "name": "_srcChainId",
          "type": "uint16"
        },
        {
          "internalType": "bytes",
          "name": "_srcAddress",
          "type": "bytes"
        },
        {
          "internalType": "uint64",
          "name": "_nonce",
          "type": "uint64"
        },
        {
          "internalType": "bytes",
          "name": "_payload",
          "type": "bytes"
        }
      ],
      "name": "retryMessage",
      "outputs": [],
      "stateMutability": "payable",
      "type": "function"
    },
    {
      "inputs": [
        {
          "internalType": "address",
          "name": "_from",
          "type": "address"
        },
        {
          "internalType": "uint16",
          "name": "_dstChainId",
          "type": "uint16"
        },
        {
          "internalType": "bytes32",
          "name": "_toAddress",
          "type": "bytes32"
        },
        {
          "internalType": "uint256",
          "name": "_amount",
          "type": "uint256"
        },
        {
          "internalType": "bytes",
          "name": "_payload",
          "type": "bytes"
        },
        {
          "internalType": "uint64",
          "name": "_dstGasForCall",
          "type": "uint64"
        },
        {
          "components": [
            {
              "internalType": "address payable",
              "name": "refundAddress",
              "type": "address"
            },
            {
              "internalType": "address",
              "name": "zroPaymentAddress",
              "type": "address"
            },
            {
              "internalType": "bytes",
              "name": "adapterParams",
              "type": "bytes"
            }
          ],
          "internalType": "struct ICommonOFT.LzCallParams",
          "name": "_callParams",
          "type": "tuple"
        }
      ],
      "name": "sendAndCall",
      "outputs": [],
      "stateMutability": "payable",
      "type": "function"
    },
    {
      "inputs": [
        {
          "internalType": "uint256",
          "name": "amount",
          "type": "uint256"
        },
        {
          "internalType": "address",
          "name": "leverageFor",
          "type": "address"
        },
        {
          "components": [
            {
              "internalType": "uint256",
              "name": "srcExtraGasLimit",
              "type": "uint256"
            },
            {
              "internalType": "uint16",
              "name": "lzSrcChainId",
              "type": "uint16"
            },
            {
              "internalType": "uint16",
              "name": "lzDstChainId",
              "type": "uint16"
            },
            {
              "internalType": "address",
              "name": "zroPaymentAddress",
              "type": "address"
            },
            {
              "internalType": "bytes",
              "name": "dstAirdropAdapterParam",
              "type": "bytes"
            },
            {
              "internalType": "bytes",
              "name": "srcAirdropAdapterParam",
              "type": "bytes"
            },
            {
              "internalType": "address",
              "name": "refundAddress",
              "type": "address"
            }
          ],
          "internalType": "struct IUSDOBase.ILeverageLZData",
          "name": "lzData",
          "type": "tuple"
        },
        {
          "components": [
            {
              "internalType": "address",
              "name": "tokenOut",
              "type": "address"
            },
            {
              "internalType": "uint256",
              "name": "amountOutMin",
              "type": "uint256"
            },
            {
              "internalType": "bytes",
              "name": "data",
              "type": "bytes"
            }
          ],
          "internalType": "struct IUSDOBase.ILeverageSwapData",
          "name": "swapData",
          "type": "tuple"
        },
        {
          "components": [
            {
              "internalType": "address",
              "name": "swapper",
              "type": "address"
            },
            {
              "internalType": "address",
              "name": "magnetar",
              "type": "address"
            },
            {
              "internalType": "address",
              "name": "tOft",
              "type": "address"
            },
            {
              "internalType": "address",
              "name": "srcMarket",
              "type": "address"
            }
          ],
          "internalType": "struct IUSDOBase.ILeverageExternalContractsData",
          "name": "externalData",
          "type": "tuple"
        }
      ],
      "name": "sendForLeverage",
      "outputs": [],
      "stateMutability": "payable",
      "type": "function"
    },
    {
      "inputs": [
        {
          "internalType": "address",
          "name": "_from",
          "type": "address"
        },
        {
          "internalType": "uint16",
          "name": "_dstChainId",
          "type": "uint16"
        },
        {
          "internalType": "bytes32",
          "name": "_toAddress",
          "type": "bytes32"
        },
        {
          "internalType": "uint256",
          "name": "_amount",
          "type": "uint256"
        },
        {
          "components": [
            {
              "internalType": "address payable",
              "name": "refundAddress",
              "type": "address"
            },
            {
              "internalType": "address",
              "name": "zroPaymentAddress",
              "type": "address"
            },
            {
              "internalType": "bytes",
              "name": "adapterParams",
              "type": "bytes"
            }
          ],
          "internalType": "struct ICommonOFT.LzCallParams",
          "name": "_callParams",
          "type": "tuple"
        }
      ],
      "name": "sendFrom",
      "outputs": [],
      "stateMutability": "payable",
      "type": "function"
    },
    {
      "inputs": [
        {
          "internalType": "uint16",
          "name": "_version",
          "type": "uint16"
        },
        {
          "internalType": "uint16",
          "name": "_chainId",
          "type": "uint16"
        },
        {
          "internalType": "uint256",
          "name": "_configType",
          "type": "uint256"
        },
        {
          "internalType": "bytes",
          "name": "_config",
          "type": "bytes"
        }
      ],
      "name": "setConfig",
      "outputs": [],
      "stateMutability": "nonpayable",
      "type": "function"
    },
    {
      "inputs": [
        {
          "internalType": "uint16",
          "name": "_chainId",
          "type": "uint16"
        },
        {
          "internalType": "bool",
          "name": "_isLdChain",
          "type": "bool"
        }
      ],
      "name": "setLdChain",
      "outputs": [],
      "stateMutability": "nonpayable",
      "type": "function"
    },
    {
      "inputs": [
        {
          "internalType": "uint16",
          "name": "_dstChainId",
          "type": "uint16"
        },
        {
          "internalType": "uint16",
          "name": "_packetType",
          "type": "uint16"
        },
        {
          "internalType": "uint256",
          "name": "_minGas",
          "type": "uint256"
        }
      ],
      "name": "setMinDstGas",
      "outputs": [],
      "stateMutability": "nonpayable",
      "type": "function"
    },
    {
      "inputs": [
        {
          "internalType": "uint16",
          "name": "_dstChainId",
          "type": "uint16"
        },
        {
          "internalType": "uint256",
          "name": "_size",
          "type": "uint256"
        }
      ],
      "name": "setPayloadSizeLimit",
      "outputs": [],
      "stateMutability": "nonpayable",
      "type": "function"
    },
    {
      "inputs": [
        {
          "internalType": "address",
          "name": "_precrime",
          "type": "address"
        }
      ],
      "name": "setPrecrime",
      "outputs": [],
      "stateMutability": "nonpayable",
      "type": "function"
    },
    {
      "inputs": [
        {
          "internalType": "uint16",
          "name": "_version",
          "type": "uint16"
        }
      ],
      "name": "setReceiveVersion",
      "outputs": [],
      "stateMutability": "nonpayable",
      "type": "function"
    },
    {
      "inputs": [
        {
          "internalType": "uint16",
          "name": "_version",
          "type": "uint16"
        }
      ],
      "name": "setSendVersion",
      "outputs": [],
      "stateMutability": "nonpayable",
      "type": "function"
    },
    {
      "inputs": [
        {
          "internalType": "uint16",
          "name": "_srcChainId",
          "type": "uint16"
        },
        {
          "internalType": "bytes",
          "name": "_path",
          "type": "bytes"
        }
      ],
      "name": "setTrustedRemote",
      "outputs": [],
      "stateMutability": "nonpayable",
      "type": "function"
    },
    {
      "inputs": [
        {
          "internalType": "uint16",
          "name": "_remoteChainId",
          "type": "uint16"
        },
        {
          "internalType": "bytes",
          "name": "_remoteAddress",
          "type": "bytes"
        }
      ],
      "name": "setTrustedRemoteAddress",
      "outputs": [],
      "stateMutability": "nonpayable",
      "type": "function"
    },
    {
      "inputs": [
        {
          "internalType": "bool",
          "name": "_useCustomAdapterParams",
          "type": "bool"
        }
      ],
      "name": "setUseCustomAdapterParams",
      "outputs": [],
      "stateMutability": "nonpayable",
      "type": "function"
    },
    {
      "inputs": [],
      "name": "sharedDecimals",
      "outputs": [
        {
          "internalType": "uint8",
          "name": "",
          "type": "uint8"
        }
      ],
      "stateMutability": "view",
      "type": "function"
    },
    {
      "inputs": [
        {
          "internalType": "bytes4",
          "name": "interfaceId",
          "type": "bytes4"
        }
      ],
      "name": "supportsInterface",
      "outputs": [
        {
          "internalType": "bool",
          "name": "",
          "type": "bool"
        }
      ],
      "stateMutability": "view",
      "type": "function"
    },
    {
      "inputs": [],
      "name": "symbol",
      "outputs": [
        {
          "internalType": "string",
          "name": "",
          "type": "string"
        }
      ],
      "stateMutability": "view",
      "type": "function"
    },
    {
      "inputs": [],
      "name": "token",
      "outputs": [
        {
          "internalType": "address",
          "name": "",
          "type": "address"
        }
      ],
      "stateMutability": "view",
      "type": "function"
    },
    {
      "inputs": [],
      "name": "totalSupply",
      "outputs": [
        {
          "internalType": "uint256",
          "name": "",
          "type": "uint256"
        }
      ],
      "stateMutability": "view",
      "type": "function"
    },
    {
      "inputs": [
        {
          "internalType": "address",
          "name": "to",
          "type": "address"
        },
        {
          "internalType": "uint256",
          "name": "amount",
          "type": "uint256"
        }
      ],
      "name": "transfer",
      "outputs": [
        {
          "internalType": "bool",
          "name": "",
          "type": "bool"
        }
      ],
      "stateMutability": "nonpayable",
      "type": "function"
    },
    {
      "inputs": [
        {
          "internalType": "address",
          "name": "from",
          "type": "address"
        },
        {
          "internalType": "address",
          "name": "to",
          "type": "address"
        },
        {
          "internalType": "uint256",
          "name": "amount",
          "type": "uint256"
        }
      ],
      "name": "transferFrom",
      "outputs": [
        {
          "internalType": "bool",
          "name": "",
          "type": "bool"
        }
      ],
      "stateMutability": "nonpayable",
      "type": "function"
    },
    {
      "inputs": [
        {
          "internalType": "address",
          "name": "newOwner",
          "type": "address"
        }
      ],
      "name": "transferOwnership",
      "outputs": [],
      "stateMutability": "nonpayable",
      "type": "function"
    },
    {
      "inputs": [
        {
          "internalType": "uint16",
          "name": "",
          "type": "uint16"
        }
      ],
      "name": "trustedRemoteLookup",
      "outputs": [
        {
          "internalType": "bytes",
          "name": "",
          "type": "bytes"
        }
      ],
      "stateMutability": "view",
      "type": "function"
    },
    {
      "inputs": [],
      "name": "useCustomAdapterParams",
      "outputs": [
        {
          "internalType": "bool",
          "name": "",
          "type": "bool"
        }
      ],
      "stateMutability": "view",
      "type": "function"
    },
    {
      "inputs": [],
      "name": "yieldBox",
      "outputs": [
        {
          "internalType": "contract IYieldBoxBase",
          "name": "",
          "type": "address"
        }
      ],
      "stateMutability": "view",
      "type": "function"
    },
    {
      "stateMutability": "payable",
      "type": "receive"
    }
  ],
  "bytecode": "0x60e0604090808252346200056857620063b080380380916200002282856200056d565b833981019060e08183031262000568576200003d81620005a7565b906020906200004e828201620005a7565b818601516001600160a01b0380821696909291879003620005685760608401516001600160401b0395908681116200056857826200008e918701620005e1565b916080860151908782116200056857620000aa918701620005e1565b9060a086015160ff811696878203620005685760c00151978b5180956a546170696f63614f46542d60a81b85830152620000ee8151809287602b86019101620005bc565b8101039462000108602b600b97888101845201826200056d565b607f8d518096601d60fa1b878301526200012c8151809289602186019101620005bc565b810103936200014660216001968781018a5201886200056d565b841c16946000968988549d60018060a01b03199e8f33908216178b55823391167f8be0079c531659141344cd1fd0a4f28419497f9722a3daafe3b4186f6b6457e08c80a3166080528660a052825184811162000554578154938685811c9516801562000549575b8886101462000535578190601f95868111620004e2575b5088908683116001146200047e578b9262000472575b5050600019600383901b1c191690861b1790555b80519283116200045e57600c548481811c9116801562000453575b868210146200043f57828111620003f6575b50849183116001146200039057928293918392889462000384575b50501b916000199060031b1c191617600c555b6012821162000331575060120360ff81116200031d5760ff1690604d8211620003095750600a0a60c0521683600f541617600f5560ff196011541617601155601055600e541617600e5551615d7390816200063d82396080518181816104c7015281816107ae015281816108f601528181610a6e01528181610c8d01528181611769015281816120000152818161234401528181612a1901528181614ba501528181614f9301526159f2015260a051816118a0015260c05181615a4c0152f35b634e487b7160e01b81526011600452602490fd5b634e487b7160e01b82526011600452602482fd5b6084908a519062461bcd60e51b82526004820152602760248201527f4f46543a20736861726564446563696d616c73206d757374206265203c3d20646044820152666563696d616c7360c81b6064820152fd5b01519250388062000236565b600c8752848720919083601f198116895b8888838310620003de5750505010620003c4575b505050811b01600c5562000249565b015160001960f88460031b161c19169055388080620003b5565b868601518855909601959485019487935001620003a1565b600c88528588208380860160051c82019288871062000435575b0160051c019085905b828110620004295750506200021b565b89815501859062000419565b9250819262000410565b634e487b7160e01b88526022600452602488fd5b90607f169062000209565b634e487b7160e01b87526041600452602487fd5b015190503880620001da565b848c52898c208994509190601f1984168d5b8c828210620004cb5750508411620004b1575b505050811b019055620001ee565b015160001960f88460031b161c19169055388080620004a3565b8385015186558c9790950194938401930162000490565b909150838b52888b208680850160051c8201928b86106200052b575b918a91869594930160051c01915b8281106200051c575050620001c4565b8d81558594508a91016200050c565b92508192620004fe565b634e487b7160e01b8a52602260045260248afd5b94607f1694620001ad565b634e487b7160e01b89526041600452602489fd5b600080fd5b601f909101601f19168101906001600160401b038211908210176200059157604052565b634e487b7160e01b600052604160045260246000fd5b51906001600160a01b03821682036200056857565b60005b838110620005d05750506000910152565b8181015183820152602001620005bf565b81601f82011215620005685780516001600160401b03811162000591576040519262000618601f8301601f1916602001856200056d565b818452602082840101116200056857620006399160208085019101620005bc565b9056fe6080604052600436101561001b575b361561001957600080fd5b005b60003560e01c80621d3567146103df57806254af3a146103da57806301ffc9a7146103d557806306fdde03146103d057806307e0db17146103cb578063095ea7b3146103c65780630df37483146103c157806310ddb137146103bc57806318160ddd1461033f57806323b872dd146103b7578063313ce567146103b2578063365260b4146103ad57806339509351146103a85780633b597150146103a35780633d8b38f61461039e5780633f1f4fa41461039957806342d65a8d14610394578063447705151461038a578063462bae651461038f5780634c42899a1461038a57806358c5cfb8146103855780635b8c41e61461038057806366ad5c8a1461037b578063695ef6bf1461037657806370a0823114610371578063715018a61461036c5780637533d7881461036757806376203b4814610362578063785e9e861461035d578063796fd43a14610358578063857749b014610353578063862635681461034e5780638cfd8f5c146103495780638da5cb5b146103445780639358928b1461033f578063950c8a741461033a57806395d89b41146103355780639bdb9812146103305780639f38369a1461032b578063a0c5e95614610326578063a457c2d714610321578063a4c51df51461031c578063a6c3d16514610317578063a9059cbb14610312578063b353aaa71461030d578063baf3292d14610308578063bafb655d14610303578063c4461834146102fe578063cbed8b9c146102f9578063d1deba1f146102f4578063dd62ed3e146102ef578063de406577146102ea578063df2a5b3b146102e5578063e6a20ae6146102e0578063eab45d9c146102db578063eaffd49a146102d6578063eb8d72b7146102d1578063ed629c5c146102cc578063f2fde38b146102c7578063f5ecbdbc146102c25763fc0c546a0361000e57612a83565b6129af565b6128e8565b6128c5565b61277b565b6126f2565b612690565b612674565b61257f565b612558565b6124fc565b6123b1565b6122e8565b6122cb565b612097565b612024565b611fe0565b611fb6565b611e33565b611da0565b611ce1565b611c36565b611a94565b611a49565b6119a2565b61197b565b61094d565b611954565b611902565b6118c4565b611886565b6116f4565b6116cd565b611495565b61143e565b6112f8565b6112ba565b6111d7565b611151565b6110ea565b610fdf565b610cec565b610ea0565b610c6b565b610c32565b610bd6565b610b47565b610ae4565b6109dc565b6109ab565b61096b565b6108c4565b610885565b610850565b61077c565b610697565b6105e5565b6105c7565b6104aa565b61ffff8116036103f057565b600080fd5b3590610400826103e4565b565b9181601f840112156103f0578235916001600160401b0383116103f057602083818601950101116103f057565b608435906001600160401b03821682036103f057565b9060806003198301126103f05760043561045e816103e4565b916001600160401b03906024358281116103f0578161047f91600401610402565b9390939260443581811681036103f057926064359182116103f0576104a691600401610402565b9091565b346103f0576104b836610445565b91929493906001600160a01b037f00000000000000000000000000000000000000000000000000000000000000001633036105775761053c610544926100199761053561051b6105168a61ffff166000526001602052604060002090565b611423565b805190818414918261056d575b508161054a575b50614aa7565b3691610e4e565b923691610e4e565b92614d51565b9050610557368486610e4e565b602081519101209060208151910120143861052f565b1515915038610528565b60405162461bcd60e51b815260206004820152601e60248201527f4c7a4170703a20696e76616c696420656e64706f696e742063616c6c657200006044820152606490fd5b60009103126103f057565b346103f05760003660031901126103f0576020601054604051908152f35b346103f05760203660031901126103f05760043563ffffffff60e01b81168091036103f057602090631f7ecdf760e01b811490811561062a575b506040519015158152f35b6301ffc9a760e01b1490503861061f565b60005b83811061064e5750506000910152565b818101518382015260200161063e565b906020916106778151809281855285808601910161063b565b601f01601f1916010190565b90602061069492818152019061065e565b90565b346103f057600080600319360112610779576040519080600b546106ba81611353565b8085529160019180831690811561074f57506001146106f4575b6106f0856106e481870382610d87565b60405191829182610683565b0390f35b9250600b83527f0175b7a638427703f0dbe7bb9bbf987a2551717b34e79f33b5b1008d1fa01db95b8284106107375750505081016020016106e4826106f06106d4565b8054602085870181019190915290930192810161071c565b8695506106f0969350602092506106e494915060ff191682840152151560051b82010192936106d4565b80fd5b346103f057600060203660031901126107795760043561079b816103e4565b6107a3612a9e565b816001600160a01b037f00000000000000000000000000000000000000000000000000000000000000001691823b1561081657602461ffff918360405195869485936307e0db1760e01b85521660048401525af1801561081157610805575080f35b61080e90610d1e565b80f35b6132eb565b5080fd5b6001600160a01b038116036103f057565b600435906104008261081a565b60e435906104008261081a565b35906104008261081a565b346103f05760403660031901126103f05761087a6004356108708161081a565b6024359033612d05565b602060405160018152f35b346103f05760403660031901126103f05761ffff6004356108a5816103e4565b6108ad612a9e565b166000526003602052602435604060002055600080f35b346103f05760006020366003190112610779576004356108e3816103e4565b6108eb612a9e565b816001600160a01b037f00000000000000000000000000000000000000000000000000000000000000001691823b1561081657602461ffff918360405195869485936310ddb13760e01b85521660048401525af1801561081157610805575080f35b346103f05760003660031901126103f0576020600a54604051908152f35b346103f05760603660031901126103f05761087a60043561098b8161081a565b6024356109978161081a565b604435916109a6833383612e32565b612be8565b346103f05760003660031901126103f057602060405160128152f35b801515036103f057565b3590610400826109c7565b346103f05760a03660031901126103f0576004356109f9816103e4565b60643590610a06826109c7565b608435906001600160401b0382116103f057610a2b6105356040933690600401610402565b90610a62610a45610a3d604435615694565b602435615733565b928451958694859463040a7bb160e41b8652309060048701615118565b03816001600160a01b037f0000000000000000000000000000000000000000000000000000000000000000165afa908115610811576000908192610ab3575b50604080519182526020820192909252f35b9050610ad6915060403d8111610add575b610ace8183610d87565b810190613c8a565b9038610aa1565b503d610ac4565b346103f05760403660031901126103f057600435610b018161081a565b336000526009602052610b2b816040600020906001600160a01b0316600052602052604060002090565b546024358101809111610b425761087a9133612d05565b612af6565b346103f05760403660031901126103f057600435610b64816103e4565b61ffff60243591610b74836109c7565b610b7c612a9e565b16600052600d60205260406000209060ff801983541691151516179055600080f35b9060406003198301126103f057600435610bb7816103e4565b91602435906001600160401b0382116103f0576104a691600401610402565b346103f057602061ffff610c23610bec36610b9e565b9390911660005260018452610c0e610c1560406000206040519283809261138d565b0382610d87565b848151910120923691610e4e565b82815191012014604051908152f35b346103f05760203660031901126103f05761ffff600435610c52816103e4565b1660005260036020526020604060002054604051908152f35b346103f057610c7936610b9e565b9190610c83612a9e565b6001600160a01b037f00000000000000000000000000000000000000000000000000000000000000001691823b156103f057604051928380926342d65a8d60e01b825281610cda6000988997889460048501614ce2565b03925af1801561081157610805575080f35b346103f05760003660031901126103f057602060405160008152f35b634e487b7160e01b600052604160045260246000fd5b6001600160401b038111610d3157604052565b610d08565b608081019081106001600160401b03821117610d3157604052565b606081019081106001600160401b03821117610d3157604052565b604081019081106001600160401b03821117610d3157604052565b90601f801991011681019081106001600160401b03821117610d3157604052565b6040519060e082018281106001600160401b03821117610d3157604052565b6040519061016082018281106001600160401b03821117610d3157604052565b6040519060a082018281106001600160401b03821117610d3157604052565b6040519061040082610d51565b6040519061012082018281106001600160401b03821117610d3157604052565b6001600160401b038111610d3157601f01601f191660200190565b929192610e5a82610e33565b91610e686040519384610d87565b8294818452818301116103f0578281602093846000960137010152565b9080601f830112156103f05781602061069493359101610e4e565b346103f05760203660031901126103f0576004356001600160401b0381116103f057610ed3610ee2913690600401610e85565b6020808251830101910161365d565b91929650929394508051610f72575b50610f18610f0c610f0c60608501516001600160a01b031690565b6001600160a01b031690565b91823b156103f057600094610f4f86926001600160a01b0394604051998a98899788966322f8cecd60e01b8852166004870161378b565b03925af1801561081157610f5f57005b80610f6c61001992610d1e565b806105bc565b610f7b90614634565b38610ef1565b908160609103126103f05790565b908160e09103126103f05790565b60809060831901126103f057608490565b9181601f840112156103f0578235916001600160401b0383116103f05760208085019461016085020101116103f057565b6101403660031901126103f057610ff461082b565b6001600160401b03906044358281116103f057611015903690600401610f81565b906064358381116103f05761102e903690600401610f8f565b61103736610f9d565b90610104358581116103f057611051903690600401610402565b929091610124359687116103f057611070610019973690600401610fae565b9690956024359061309e565b60606003198201126103f057600435611094816103e4565b916024356001600160401b03928382116103f0576110b491600401610e85565b9160443590811681036103f05790565b6020906110de92826040519483868095519384920161063b565b82019081520301902090565b346103f057602061114861ffff611127836111043661107c565b94909116600052600582526040600020826040519483868095519384920161063b565b820190815203019020906001600160401b0316600052602052604060002090565b54604051908152f35b346103f05761115f36610445565b91929493903033036111835761053c61117d92610019973691610e4e565b9261515d565b60405162461bcd60e51b815260206004820152602660248201527f4e6f6e626c6f636b696e674c7a4170703a2063616c6c6572206d7573742062656044820152650204c7a4170760d41b6064820152608490fd5b60a03660031901126103f0576004356111ef8161081a565b6024356111fb816103e4565b604435916084356001600160401b0381116103f057602061ffff6001600160a01b0361123a600080516020615d1e833981519152943690600401610f81565b946112ad86356112498161081a565b611267610535878a01359961125d8b61081a565b6040810190613353565b611271818b615591565b61128661127f606435615715565b508561590a565b986112928a1515615332565b6112a461129e8b615694565b8d615733565b9234938c614b59565b60405195865216941692a4005b346103f05760203660031901126103f0576001600160a01b036004356112df8161081a565b1660005260086020526020604060002054604051908152f35b346103f05760008060031936011261077957611312612a9e565b80546001600160a01b03198116825581906001600160a01b03167f8be0079c531659141344cd1fd0a4f28419497f9722a3daafe3b4186f6b6457e08280a380f35b90600182811c92168015611383575b602083101461136d57565b634e487b7160e01b600052602260045260246000fd5b91607f1691611362565b906000929180549161139e83611353565b91828252600193848116908160001461140057506001146113c0575b50505050565b90919394506000526020928360002092846000945b8386106113ec5750505050010190388080806113ba565b8054858701830152940193859082016113d5565b9294505050602093945060ff191683830152151560051b010190388080806113ba565b90610400611437926040519384809261138d565b0383610d87565b346103f05760203660031901126103f05761ffff60043561145e816103e4565b1660005260016020526106f0610c0e61148160406000206040519283809261138d565b60405191829160208352602083019061065e565b60e03660031901126103f0576004356114ad8161081a565b6024356114b9816103e4565b604435916001600160401b036084358181116103f0576114dd903690600401610402565b92909160a435818116918282036103f05760c4359081116103f057611506903690600401610f81565b9261153d8435966115168861081a565b61153561152b60208801359761125d8961081a565b9890923691610e4e565b963691610e4e565b9460ff6006541660001461163d5760228651106115f8576115f196866020966112a46001600160a01b03966112ad958e6115ca8f6115b7600080516020615d1e8339815191529f9d61ffff9e8f906022015193166000528f600290526115b160406000206001600052602052604060002090565b54612b28565b906115c38215156155e6565b1015615632565b6115df6115d8606435615715565b508a61590a565b9d8e6115ec811515615332565b615694565b90336157b2565b60405162461bcd60e51b815260206004820152601c60248201527f4c7a4170703a20696e76616c69642061646170746572506172616d73000000006044820152606490fd5b9195948094935051611679576112ad600080516020615d1e8339815191529560209561ffff956112a46115f19a6001600160a01b03978e6115ca565b60405162461bcd60e51b815260206004820152602660248201527f4f4654436f72653a205f61646170746572506172616d73206d7573742062652060448201526532b6b83a3c9760d11b6064820152608490fd5b346103f05760003660031901126103f05760206001600160a01b03600f5416604051908152f35b6101003660031901126103f0576004356024356117108161081a565b6001600160401b036044358181116103f057611730903690600401610f8f565b906064359081116103f057611749903690600401610f81565b9061175336610f9d565b6040516303408e4760e41b8152936020856004817f00000000000000000000000000000000000000000000000000000000000000006001600160a01b03165afa918215610811576117e1611830956117d3611825946118379961182b97611858575b506117c08b3361590a565b50876040519586948d33602088016132f7565b03601f198101835282610d87565b60408401936117ef8561308a565b916117ff610f0c60c08401613094565b9061181a61180f60608501613094565b936080810190613353565b959034963691610e4e565b93614b59565b61308a565b61ffff1690565b6040519182523391829190600080516020615d1e83398151915290602090a4005b6118789060203d811161187f575b6118708183610d87565b8101906132d6565b50386117b5565b503d611866565b346103f05760003660031901126103f057602060405160ff7f0000000000000000000000000000000000000000000000000000000000000000168152f35b346103f05760203660031901126103f05761ffff6004356118e4816103e4565b16600052600d602052602060ff604060002054166040519015158152f35b346103f05760403660031901126103f0576020611148600435611924816103e4565b61ffff60243591611934836103e4565b166000526002835260406000209061ffff16600052602052604060002090565b346103f05760003660031901126103f05760206001600160a01b0360005416604051908152f35b346103f05760003660031901126103f05760206001600160a01b0360045416604051908152f35b346103f057600080600319360112610779576040519080600c546119c581611353565b8085529160019180831690811561074f57506001146119ee576106f0856106e481870382610d87565b9250600c83527fdf6966c971051c3d54ec59162606531493a51404a002842f56009d7e5cf4a8c75b828410611a315750505081016020016106e4826106f06106d4565b80546020858701810191909152909301928101611a16565b346103f057602060ff611a8861ffff61112784611a653661107c565b94909116600052600782526040600020826040519483868095519384920161063b565b54166040519015158152f35b346103f05760203660031901126103f05761ffff600435611ab4816103e4565b166000526001602052610c0e611ad460406000206040519283809261138d565b805115611af2576106e481611aec6106f09351613925565b90615b09565b60405162461bcd60e51b815260206004820152601d60248201527f4c7a4170703a206e6f20747275737465642070617468207265636f72640000006044820152606490fd5b60809060431901126103f05760405190611b5082610d36565b81604435611b5d8161081a565b8152606435611b6b8161081a565b6020820152608435611b7c8161081a565b6040820152606060a43591611b908361081a565b0152565b91909160e0818403126103f057611ba9610da8565b9281358452611bba602083016103f5565b6020850152611bcb604083016103f5565b6040850152611bdc60608301610845565b60608501526001600160401b039160808101358381116103f05782611c02918301610e85565b608086015260a08101359283116103f057611c2460c092611c2f948301610e85565b60a086015201610845565b60c0830152565b600319610100368201126103f0576024356001600160401b03918282116103f05760609082360301126103f05760405190611c7082610d51565b8060040135611c7e8161081a565b8252602481013560208301526044810135908382116103f0576004611ca69236920101610e85565b6040820152611cb436611b37565b60c4359283116103f057611ccf610019933690600401611b94565b90611cd8610838565b92600435613fe1565b346103f05760403660031901126103f057600435611cfe8161081a565b60243590336000526009602052611d2c816040600020906001600160a01b0316600052602052604060002090565b5491808310611d4d57611d4192039033612d05565b60405160018152602090f35b60405162461bcd60e51b815260206004820152602560248201527f45524332303a2064656372656173656420616c6c6f77616e63652062656c6f77604482015264207a65726f60d81b6064820152608490fd5b346103f05760e03660031901126103f057600435611dbd816103e4565b6001600160401b03906064358281116103f057611dde903690600401610402565b611de992919261042f565b60a43591611df6836109c7565b60c4359586116103f057611e11611e21963690600401610402565b9590946044359060243590614f3b565b60408051928352602083019190915290f35b346103f057611e4136610b9e565b90611e4a612a9e565b60405192602092808385870137611e766034868381013060601b88820152036014810188520186610d87565b60009361ffff8316855260019081815260408620918751916001600160401b038311610d3157611eb083611eaa8654611353565b86614cfd565b80601f8411600114611f20575091808092611f0f9695948a9b7f8c0400cfe2d1199b1a725c78960bcc2a344d869b80590d0f2bd005db15a572ce9b94611f15575b50501b916000199060031b1c19161790555b60405193849384614ce2565b0390a180f35b015192503880611ef1565b91939498601f198416611f3887600052602060002090565b938a905b828210611f9f575050917f8c0400cfe2d1199b1a725c78960bcc2a344d869b80590d0f2bd005db15a572ce999a95939185611f0f98969410611f86575b505050811b019055611f03565b015160001960f88460031b161c19169055388080611f79565b808886978294978701518155019601940190611f3c565b346103f05760403660031901126103f05761087a600435611fd68161081a565b6024359033612be8565b346103f05760003660031901126103f05760206040516001600160a01b037f0000000000000000000000000000000000000000000000000000000000000000168152f35b346103f05760203660031901126103f0577f5db758e995a17ec1ad84bdef7e8c3293a0bd6179bcce400dff5d4c3d87db726b60206001600160a01b0360043561206c8161081a565b612074612a9e565b16806bffffffffffffffffffffffff60a01b6004541617600455604051908152a1005b346103f05760a03660031901126103f0576004356120b48161081a565b6024356120c0816103e4565b6001600160401b03916044358381116103f0576120e1903690600401610e85565b9260643581811681036103f0576084359182116103f05760008085946001600160a01b036121286121196121ec973690600401610e85565b60208082518301019101613802565b909b9450839d929396919550169c612153306001600160a01b03166000526008602052604060002090565b54996121a361219f6121988361218061217a8861ffff166000526007602052604060002090565b876110c4565b906001600160401b0316600052602052604060002090565b5460ff1690565b1590565b612284575b5050506117d38c6121cc306001600160a01b03166000526008602052604060002090565b549a6040519586946020860198635062f4ab60e11b8a5260248701613881565b51915af4916121f96138f5565b92156122355750506040519283525061ffff16907fbf551ec93859b170f9b2141bd9298bf3f64322c6f7beb2543a0cb669834118bf90602090a3005b918585806122496122579561226f97613943565b1015612273575b5050613b15565b60405162461bcd60e51b815291829160048301610683565b0390fd5b61227d9130613950565b8380612250565b6121806122b6926122b06122c39561229c8b30615930565b61ffff166000526007602052604060002090565b906110c4565b805460ff19166001179055565b8938806121a8565b346103f05760003660031901126103f05760206040516127108152f35b346103f05760803660031901126103f057600435612305816103e4565b602435612311816103e4565b6064356001600160401b0381116103f057612330903690600401610402565b909261233a612a9e565b6001600160a01b037f00000000000000000000000000000000000000000000000000000000000000001690813b156103f05760008094610f4f604051978896879586946332fb62e760e21b865261ffff80921660048701521660248501526044356044850152608060648501526084840191612f07565b6123ba36610445565b9161ffff8694929616600052600560205261240181604060002060206040518092878b833787820190815203019020906001600160401b0316600052602052604060002090565b549182156124ab5761249a84836124937fc264d91f3adc5588250e1551f547752ca0cfa8f6b530d243b9f9f4cab10ea8e59a600061247f846121808e8a8f6124a69f908f612465906124586124799436908d610e4e565b6020815191012014614eae565b61ffff166000526005602052604060002090565b91614e95565b5561248b36878d610e4e565b933691610e4e565b918861515d565b60405195869586614f04565b0390a1005b60405162461bcd60e51b815260206004820152602360248201527f4e6f6e626c6f636b696e674c7a4170703a206e6f2073746f726564206d65737360448201526261676560e81b6064820152608490fd5b346103f05760403660031901126103f057602061114860043561251e8161081a565b6001600160a01b03602435916125338361081a565b16600052600983526040600020906001600160a01b0316600052602052604060002090565b346103f05760003660031901126103f05760206001600160a01b03600e5416604051908152f35b346103f05760603660031901126103f05760043561259c816103e4565b6024356125a8816103e4565b604435916125b4612a9e565b821561262f576124a67f9d5c7c0b934da8fefa9c7760c98383778a12dfbfc0c3b3106518f43fb9508ac09361ffff83166000526002602052806126098560406000209061ffff16600052602052604060002090565b556040519384938460409194939294606082019561ffff80921683521660208201520152565b60405162461bcd60e51b815260206004820152601560248201527f4c7a4170703a20696e76616c6964206d696e47617300000000000000000000006044820152606490fd5b346103f05760003660031901126103f057602060405160018152f35b346103f05760203660031901126103f0577f1584ad594a70cbe1e6515592e1272a987d922b097ead875069cebe8b40c004a460206004356126d0816109c7565b6126d8612a9e565b151560ff196006541660ff821617600655604051908152a1005b346103f0576101003660031901126103f057600435612710816103e4565b6001600160401b03906024358281116103f057612731903690600401610402565b91906044359084821682036103f05760843561274c8161081a565b60c4359586116103f057612767610019963690600401610402565b94909360e4359660a4359460643593615031565b346103f05761278936610b9e565b9190612793612a9e565b60009161ffff81168352600160209080825260408520916001600160401b038711610d31576127cc876127c68554611353565b85614cfd565b8590601f88116001146128335750918680879893611f0f957ffa41487ad5d6728f0b19276fa1eddc16558578f5109fc39d2dc33c3230470dab9993612828575b501b906000198460031b1c191617905560405193849384614ce2565b88013592503861280c565b90601f19881661284885600052602060002090565b9288905b8282106128ae575050918893917ffa41487ad5d6728f0b19276fa1eddc16558578f5109fc39d2dc33c3230470dab9899611f0f969410612894575b505082811b019055611f03565b870135600019600386901b60f8161c191690553880612887565b808685968294968c0135815501950193019061284c565b346103f05760003660031901126103f057602060ff600654166040519015158152f35b346103f05760203660031901126103f0576004356129058161081a565b61290d612a9e565b6001600160a01b03809116801561295b57600080546001600160a01b03198116831782559092167f8be0079c531659141344cd1fd0a4f28419497f9722a3daafe3b4186f6b6457e08380a380f35b60405162461bcd60e51b815260206004820152602660248201527f4f776e61626c653a206e6577206f776e657220697320746865207a65726f206160448201526564647265737360d01b6064820152608490fd5b346103f05760803660031901126103f0576004356129cc816103e4565b602435906129d9826103e4565b6129e460443561081a565b604051633d7b2f6f60e21b815261ffff91821660048201529116602482015230604482015260648035908201526000816084817f00000000000000000000000000000000000000000000000000000000000000006001600160a01b03165afa8015610811576106f091600091612a62575b5060405191829182610683565b612a7d913d8091833e612a758183610d87565b810190614cbd565b38612a55565b346103f05760003660031901126103f0576020604051308152f35b6001600160a01b03600054163303612ab257565b606460405162461bcd60e51b815260206004820152602060248201527f4f776e61626c653a2063616c6c6572206973206e6f7420746865206f776e65726044820152fd5b634e487b7160e01b600052601160045260246000fd5b90601f8201809211610b4257565b6051019081605111610b4257565b91908201809211610b4257565b15612b3c57565b60405162461bcd60e51b815260206004820152602360248201527f45524332303a207472616e7366657220746f20746865207a65726f206164647260448201526265737360e81b6064820152608490fd5b15612b9457565b60405162461bcd60e51b815260206004820152602660248201527f45524332303a207472616e7366657220616d6f756e7420657863656564732062604482015265616c616e636560d01b6064820152608490fd5b91906001600160a01b0390818416928315612cb257612c97827fddf252ad1be2c89b69c2b068fc378daa952ba7f163c4a11628f55a4df523b3ef94612cad941696612c34881515612b35565b612c7d84612c55836001600160a01b03166000526008602052604060002090565b54612c6282821015612b8d565b03916001600160a01b03166000526008602052604060002090565b556001600160a01b03166000526008602052604060002090565b8054820190556040519081529081906020820190565b0390a3565b60405162461bcd60e51b815260206004820152602560248201527f45524332303a207472616e736665722066726f6d20746865207a65726f206164604482015264647265737360d81b6064820152608490fd5b906001600160a01b0391828116928315612de1578216938415612d915780612d807f8c5be1e5ebec7d5bd14f71427d1e84f3dd0314c0f7b2291e5b200ac8c7c3b92594612d68612cad956001600160a01b03166000526009602052604060002090565b906001600160a01b0316600052602052604060002090565b556040519081529081906020820190565b60405162461bcd60e51b815260206004820152602260248201527f45524332303a20617070726f766520746f20746865207a65726f206164647265604482015261737360f01b6064820152608490fd5b60405162461bcd60e51b8152602060048201526024808201527f45524332303a20617070726f76652066726f6d20746865207a65726f206164646044820152637265737360e01b6064820152608490fd5b906001600160a01b0382166000526009602052612e66816040600020906001600160a01b0316600052602052604060002090565b549260018401612e765750505050565b808410612e9157612e88930391612d05565b388080806113ba565b60405162461bcd60e51b815260206004820152601d60248201527f45524332303a20696e73756666696369656e7420616c6c6f77616e63650000006044820152606490fd5b9035601e19823603018112156103f05701602081359101916001600160401b0382116103f05781360383136103f057565b908060209392818452848401376000828201840152601f01601f1916010190565b906060612f5c610694936001600160a01b038135612f458161081a565b168452602081013560208501526040810190612ed6565b9190928160408201520191612f07565b9061069490823581526020830135612f83816103e4565b61ffff80911660208301526040840135612f9c816103e4565b1660408201526001600160a01b036060840135612fb88161081a565b16606082015260c080613000612fe5612fd46080880188612ed6565b60e0608088015260e0870191612f07565b612ff260a0880188612ed6565b9086830360a0880152612f07565b9401359161300d8361081a565b01906001600160a01b03169052565b6060908181359161302c8361081a565b6001600160a01b0380931685528260208201356130488161081a565b16602086015282604082013561305d8161081a565b166040860152013561306e8161081a565b16910152565b60ff8116036103f057565b359061040082613074565b35610694816103e4565b356106948161081a565b9698979160209461310f6131046130f26131239489966001600160a01b038e9d9c9a9d6103056040519d8e01528c60408383169101521660608c015260808b015261018060a08b01526101a08a0190612f28565b888103601f190160c08a01528a612f6c565b9160e088019061301c565b858103601f19016101608701528685612f07565b848103601f190161018086015282815201979060005b8181106131d1575050509061182b92916131618261319897989903601f198101845283610d87565b602085019461316f8661308a565b9261182561318e6060613187610f0c60c08701613094565b9401613094565b9334963691610e4e565b6001600160a01b03604051921691600080516020615d1e83398151915261ffff33931691806131cc81906000602083019252565b0390a4565b909198610160808261327b61326b60a08f6131f76001986131f1836109d1565b15159052565b61320f613206602083016109d1565b15156020870152565b61322e61321e60408301610845565b6001600160a01b03166040870152565b61324661323d606083016109d1565b15156060870152565b61326561325560808301610845565b6001600160a01b03166080870152565b01610845565b6001600160a01b031660a0830152565b60c08d013560c082015260e08d013560e08201526132aa8d6132a161010080920161307f565b60ff1690830152565b610120808e013590820152610140808e013590820152019a01929101613139565b5190610400826103e4565b908160209103126103f05751610694816103e4565b6040513d6000823e3d90fd5b9461333e6133336001600160a01b039561334c9561012098959b9a9b6103088b5260208b015260408a01526101408060608b0152890190612f28565b92608088019061301c565b858203610100870152612f6c565b9416910152565b903590601e19813603018212156103f057018035906001600160401b0382116103f0576020019181360383136103f057565b51906104008261081a565b9092919261339d81610e33565b916133ab6040519384610d87565b8294828452828201116103f057602061040093019061063b565b9080601f830112156103f057815161069492602001613390565b91906060838203126103f057604051906133f882610d51565b819380516134058161081a565b8352602081015160208401526040810151916001600160401b0383116103f05760409261343292016133c5565b910152565b91909160e0818403126103f05761344c610da8565b928151845261345d602083016132cb565b602085015261346e604083016132cb565b604085015261347f60608301613385565b60608501526080820151916001600160401b03928381116103f057826134a69183016133c5565b608086015260a08101519283116103f0576134c860c092611c2f9483016133c5565b60a086015201613385565b91908260809103126103f0576040516134eb81610d36565b606080829480516134fb8161081a565b8452602081015161350b8161081a565b6020850152604081015161351e8161081a565b6040850152015191611b908361081a565b5190610400826109c7565b519061040082613074565b81601f820112156103f0578051906001600160401b038211610d31576040805193602091613578838660051b0187610d87565b8486528286019183610160809702860101948186116103f0578401925b8584106135a6575050505050505090565b86848303126103f0578487916135ba610dc7565b6135c38761352f565b81526135d083880161352f565b838201526135df868801613385565b8682015260606135f081890161352f565b908201526080613601818901613385565b9082015260a0613612818901613385565b9082015260c0808801519082015260e0808801519082015261010061363881890161353a565b9082015261012080880151908201526101408088015190820152815201930192613595565b90610160828203126103f057613672826132cb565b9260208301519261368560408201613385565b926060820151926080830151906001600160401b03918281116103f057836136ae9186016133df565b9360a08101518381116103f057846136c7918301613437565b936136d58160c084016134d3565b936101408301519081116103f0576106949201613545565b9060606040610694936001600160a01b03815116845260208101516020850152015191816040820152019061065e565b908151815261ffff806020840151166020830152604083015116604082015260c06001600160a01b038060608501511660608401528161378161376f608087015160e0608088015260e087019061065e565b60a087015186820360a088015261065e565b9401511691015290565b959492936137be610400956080946001600160a01b036137cc95168a5260208a01526101008060408b01528901906136ed565b90878203606089015261371d565b940190606090816001600160a01b0391828151168552826020820151166020860152826040820151166040860152015116910152565b919091610140818403126103f057805161381b816103e4565b926020820151926040830151926060810151916001600160401b03928381116103f0578461384a9184016133df565b9361385881608085016134d3565b936101008401519081116103f05761012091613875918501613437565b9201516106948161081a565b939260e0936138e86138af6001600160a01b039561334c959a999a89526101008060208b01528901906136ed565b926040880190606090816001600160a01b0391828151168552826020820151166020860152826040820151166040860152015116910152565b85820360c087015261371d565b3d15613920573d9061390682610e33565b916139146040519384610d87565b82523d6000602084013e565b606090565b601319810191908211610b4257565b605019810191908211610b4257565b91908203918211610b4257565b6139f3916000806001600160a01b03604051946139a88661399a60209a8b83019863a9059cbb60e01b8a5260248401602090939291936001600160a01b0360408201951681520152565b03601f198101885287610d87565b1692604051946139b786610d6c565b8786527f5361666545524332303a206c6f772d6c6576656c2063616c6c206661696c656488870152519082855af16139ed6138f5565b91613a84565b80519081613a0057505050565b8280613a10938301019101613a6f565b15613a185750565b6084906040519062461bcd60e51b82526004820152602a60248201527f5361666545524332303a204552433230206f7065726174696f6e20646964206e6044820152691bdd081cdd58d8d9595960b21b6064820152fd5b908160209103126103f05751610694816109c7565b91929015613ae65750815115613a98575090565b3b15613aa15790565b60405162461bcd60e51b815260206004820152601d60248201527f416464726573733a2063616c6c20746f206e6f6e2d636f6e74726163740000006044820152606490fd5b825190915015613af95750805190602001fd5b60405162461bcd60e51b815290819061226f9060048301610683565b6044815110613b66576004810151810190602081602484019303126103f0576024810151906001600160401b0382116103f0570190806043830112156103f057602482015161069492604401613390565b50604051613b7381610d6c565b6009815268544f46545f6461746160b81b602082015290565b91908260409103126103f057604051604081018181106001600160401b03821117610d315760405260208082948051613bc4816109c7565b8452015191611b90836109c7565b908181039161014083126103f057604091825193613bef85610d51565b608081126103f0576080908451613c0581610d36565b8451613c108161081a565b81526020850151602082015285850151613c298161081a565b86820152606085015160608201528652607f1901126103f057610100613c83928451613c5481610d36565b6080820151815260a0820151602082015260c08201518682015260e08201516060820152602087015201613b8c565b9082015290565b91908260409103126103f0576020825192015190565b91926106949493613d1f6040613d3694606081516001600160a01b03808251168a52602082015160208b01528482015116848a01520151606088015260606020820151805160808a0152602081015160a08a01528381015160c08a0152015160e088015201516101008601906020809180511515845201511515910152565b6101408401526001600160a01b0316610160830152565b6101a09081610180820152019061065e565b908160209103126103f0575190565b60405190613d6482610d6c565b6002825261060f60f31b6020830152565b60608051808352602080930192608080936000915b848310613d9a5750505050505090565b909192939495846101606001928951613db582825115159052565b808401511515828501526040818101516001600160a01b03169083015280870151151582880152808601516001600160a01b03168287015260a0818101516001600160a01b03169083015260c0818101519083015260e080820151908301526101008082015160ff169083015261012081810151908301526101409081015190820152019701959493019190613d8a565b9060a06080610694938051151584526020810151602085015260408101511515604085015261ffff6060820151166060850152015191816080820152019061065e565b959291613fd29461ffff613faf946106949a98946001600160a01b0394858092168c521660208b0152166040890152166060870152805115156080870152602081015160a0870152604081015160c0870152613ef5606082015160e08801906001600160a01b03169052565b608081015190613f1361010092838901906001600160a01b03169052565b60a0810151151561012088015260c081015161014088015260e08101518051151561016089015260208101516001600160a01b031661018089015260408101516fffffffffffffffffffffffffffffffff9081166101a08a01526060820151166101c0890152608001516101e088015201518051151561020087015260208101516001600160a01b031661022087015260400151610240860152565b613fc36102c0806102608701528501613d75565b90848203610280860152613e46565b916102a081840391015261065e565b929091613fee84306143cf565b614006610f0c610f0c600f546001600160a01b031690565b9361401882516001600160a01b031690565b6040805163095ea7b360e01b81526001600160a01b0390921660048301526024820183905290966020929091908389806044810103816000809c5af1988915610811576140f3996143a2575b5061407c610f0c610f0c87516001600160a01b031690565b9061408f600f546001600160a01b031690565b906140a189516001600160a01b031690565b8451631fd177af60e11b81526001600160a01b0393841660048201529216602483015260448201526000606482018190526084820181905260a4820152986101409182918b91908290819060c4820190565b03915afa80156108115761414c9983928a92614375575b5050614123610f0c610f0c88516001600160a01b031690565b85890151918a848b01519385519d8e958694859363efa84c6d60e01b8552309160048601613ca0565b03925af1928315610811576141c7988894614355575b508085019681856060614182610f0c610f0c8d516001600160a01b031690565b98019761419689516001600160a01b031690565b8651809e819482936305da91c960e31b845260048401602090939291936001600160a01b0360408201951681520152565b03915afa998a1561081157899a614326575b5051818701516001600160a01b03909116964795909161ffff16966060830151614209906001600160a01b031690565b99516001600160a01b031690516001600160a01b0316614227610de7565b918c83528c868401528c878401528c60608401528c6080840152614249610e06565b938d85528d878601528d8886015261425f610e13565b600181529e8f9188830152888201526060019061428491906001600160a01b03169052565b6001600160a01b031660808d01528a60a08d01528a60c08d015260e08c01526101008b0152886142b2610de7565b9281845283015288838301528860608301526142cc613d57565b6080830152516142db90614a87565b91863b156143225790614304929151998a9889978896623f241960e81b88523060048901613e89565b03925af18015610811576143155750565b80610f6c61040092610d1e565b8880fd5b614347919a50823d841161434e575b61433f8183610d87565b810190613d48565b98386141d9565b503d614335565b61436d919450823d8411610add57610ace8183610d87565b509238614162565b6143949250803d1061439b575b61438c8183610d87565b810190613bd2565b388061410a565b503d614382565b6143c190853d87116143c8575b6143b98183610d87565b810190613a6f565b5038614064565b503d6143af565b906143da8133614443565b600f546001600160a01b0316918261443a576000809350809281925af16143ff6138f5565b501561440757565b60405162461bcd60e51b815260206004820152600b60248201526a1513d19517d9985a5b195960aa1b6044820152606490fd5b61040092613950565b6001600160a01b03811690811561452f57614471816001600160a01b03166000526008602052604060002090565b548381106144df57837fddf252ad1be2c89b69c2b068fc378daa952ba7f163c4a11628f55a4df523b3ef926144c1600096612cad9403916001600160a01b03166000526008602052604060002090565b556144cf81600a5403600a55565b6040519081529081906020820190565b60405162461bcd60e51b815260206004820152602260248201527f45524332303a206275726e20616d6f756e7420657863656564732062616c616e604482015261636560f01b6064820152608490fd5b60405162461bcd60e51b815260206004820152602160248201527f45524332303a206275726e2066726f6d20746865207a65726f206164647265736044820152607360f81b6064820152608490fd5b80518210156145925760209160051b010190565b634e487b7160e01b600052603260045260246000fd5b60009060033d116145b557565b905060046000803e60005160e01c90565b600060443d1061069457604051600319913d83016004833e81516001600160401b03918282113d6024840111176146235781840194855193841161462b573d85010160208487010111614623575061069492910160200190610d87565b949350505050565b50949350505050565b60005b8151811015614a8357614657606061464f838561457e565b510151151590565b156147fe576040614681610f0c610f0c83614672868861457e565b5101516001600160a01b031690565b906146916080614672858761457e565b6146a060a0614672868861457e565b9260c06146ad868861457e565b51015160e06146bc878961457e565b510151906146d96101006146d0898b61457e565b51015160ff1690565b936101206146e7898b61457e565b5101516101406146f78a8c61457e565b51015190853b156103f057875196879586956301da8bf160e41b875260049b8c88019661475b979360ff929897969360c0969260e087019a6001600160a01b0380921688521660208701526040860152606085015216608083015260a08201520152565b03815a6000948591f190816147eb575b506147e15760019161477b6145a8565b6308c379a014614796575b5050610811576001905b01614637565b61479e6145c6565b90816147ab575b50614786565b6000935090916147c361219f602061464f888a61457e565b156147a5575162461bcd60e51b815291829161226f91908301610683565b5050600190614790565b80610f6c6147f892610d1e565b3861476b565b61481261480b828461457e565b5151151590565b1561497d57604061482d610f0c610f0c83614672868861457e565b9061483d6080614672858761457e565b9161484d60a0614672868861457e565b60e0614859868861457e565b5101519161486d6101006146d0888a61457e565b9061012061487b888a61457e565b5101519361014061488c898b61457e565b510151823b156103f057865163aba0784760e01b81526001600160a01b03988916600480830191909152989095166024860152604485019190915260ff9092166064840152608483019390935260a482015290600090829081838160c4810103925af1908161496a575b506147e1576001916149066145a8565b6308c379a01461491f575b505061081157600190614790565b6149276145c6565b9081614934575b50614911565b60009350909161494c61219f602061464f888a61457e565b1561492e575162461bcd60e51b815291829161226f91908301610683565b80610f6c61497792610d1e565b386148f6565b6040614993610f0c610f0c83614672868861457e565b906149a36080614672858761457e565b6149b260a0614672868861457e565b9260c06149bf868861457e565b51015160e06149ce878961457e565b510151906149e26101006146d0898b61457e565b936101206149f0898b61457e565b510151610140614a008a8c61457e565b51015190853b156103f0578751968795869563d505accf60e01b875260049b8c880196614a64979360ff929897969360c0969260e087019a6001600160a01b0380921688521660208701526040860152606085015216608083015260a08201520152565b03815a6000948591f1908161496a57506147e1576001916149066145a8565b5050565b60405190600160f01b602083015260228201526022815261069481610d51565b15614aae57565b60405162461bcd60e51b815260206004820152602660248201527f4c7a4170703a20696e76616c696420736f757263652073656e64696e6720636f6044820152651b9d1c9858dd60d21b6064820152608490fd5b92614b2761069497959361ffff614b359416865260c0602087015260c086019061065e565b90848203604086015261065e565b936001600160a01b03809216606084015216608082015260a081840391015261065e565b94614b829193929561ffff81166000526001602052614b8960406000206040519485809261138d565b0384610d87565b825115614bf057614b9b855182614c4e565b6001600160a01b037f00000000000000000000000000000000000000000000000000000000000000001693843b156103f05760009661430491604051998a988997889662c5803160e81b885260048801614b02565b60405162461bcd60e51b815260206004820152603060248201527f4c7a4170703a2064657374696e6174696f6e20636861696e206973206e6f742060448201526f61207472757374656420736f7572636560801b6064820152608490fd5b61ffff166000526003602052604060002054908115614cb3575b11614c6f57565b606460405162461bcd60e51b815260206004820152602060248201527f4c7a4170703a207061796c6f61642073697a6520697320746f6f206c617267656044820152fd5b6127109150614c68565b906020828203126103f05781516001600160401b0381116103f05761069492016133c5565b60409061ffff61069495931681528160208201520191612f07565b90601f8111614d0b57505050565b600091825260208220906020601f850160051c83019410614d47575b601f0160051c01915b828110614d3c57505050565b818155600101614d30565b9092508290614d27565b929091614dc35a604051633356ae4560e11b602082015261ffff871660248201526080604482015290614dbd82614daf614d8e60a483018a61065e565b6001600160401b03881660648401528281036023190160848401528861065e565b03601f198101845283610d87565b30615cc0565b939015614dd2575b5050505050565b614ddb94614de5565b3880808080614dcb565b9193614e827fe183f33de2837795525b4792ca4cd60535bd77c53b7e7030060bfcf5734d6b0c95614e90939561ffff81516020830120961695866000526005602052614e498361112760208b6040600020826040519483868095519384920161063b565b556001600160401b03614e6e604051988998895260a060208a015260a089019061065e565b92166040870152858203606087015261065e565b90838203608085015261065e565b0390a1565b6020919283604051948593843782019081520301902090565b15614eb557565b60405162461bcd60e51b815260206004820152602160248201527f4e6f6e626c6f636b696e674c7a4170703a20696e76616c6964207061796c6f616044820152601960fa1b6064820152608490fd5b91614f309060609461ffff6001600160401b039499989799168552608060208601526080850191612f07565b951660408201520152565b9491959897906115f1614f64604099614f5c614f6a97614f87993691610e4e565b943691610e4e565b97615694565b928451968794859463040a7bb160e41b8652309060048701615118565b03816001600160a01b037f0000000000000000000000000000000000000000000000000000000000000000165afa918215610811576000908193614fca57509190565b90506104a691925060403d8111610add57610ace8183610d87565b939694916150139061069499979461ffff6001600160401b039416875260c0602088015260c0870191612f07565b961660408401526060830152608082015260a0818503910152612f07565b919697929895949390943033036150d3576150556001600160a01b039186306159a6565b941692836040517fbf551ec93859b170f9b2141bd9298bf3f64322c6f7beb2543a0cb669834118bf61ffff861691806150938a829190602083019252565b0390a3833b156103f05760009889956150c3936040519c8d9b8c9a8b98633fe79aed60e11b8a5260048a01614fe5565b0393f18015610811576143155750565b60405162461bcd60e51b815260206004820152601f60248201527f4f4654436f72653a2063616c6c6572206d757374206265204f4654436f7265006044820152606490fd5b91926001600160a01b03610694969461ffff6151489416855216602084015260a0604084015260a083019061065e565b9215156060820152608081840391015261065e565b92919060ff61516b84615c65565b16806152dd5750505060ff61517f82615c65565b1615806152d2575b61519090615766565b6151a261519c82615c0d565b91615cb0565b9181926001600160a01b03809316156152c8575b6151d1906001600160401b036151ca6159dd565b9116615702565b918316928315615283577fbf551ec93859b170f9b2141bd9298bf3f64322c6f7beb2543a0cb669834118bf9161523161ffff9261521861521387600a54612b28565b600a55565b6001600160a01b03166000526008602052604060002090565b8481540190558460007fddf252ad1be2c89b69c2b068fc378daa952ba7f163c4a11628f55a4df523b3ef6040518061526e89829190602083019252565b0390a360405193845216918060208101612cad565b60405162461bcd60e51b815260206004820152601f60248201527f45524332303a206d696e7420746f20746865207a65726f2061646472657373006044820152606490fd5b61dead93506151b6565b508051602914615187565b6001036152ed576104009361540d565b60405162461bcd60e51b815260206004820152601c60248201527f4f4654436f72653a20756e6b6e6f776e207061636b65742074797065000000006044820152606490fd5b1561533957565b60405162461bcd60e51b815260206004820152601960248201527f4f4654436f72653a20616d6f756e7420746f6f20736d616c6c000000000000006044820152606490fd5b9897969293946153dd956001600160401b036153b960e099958d61ffff6001600160a01b03971690528d61010090816020820152019061065e565b961660408c015260608b015216608089015260a088015286820360c088015261065e565b930152565b6001600160401b036154026040939695949660608452606084019061065e565b951660208201520152565b909161541884615820565b90916154426121988761218061543c8b61ffff166000526007602052604060002090565b8c6110c4565b9161545e61544e6159dd565b6001600160401b03809416615702565b9288888b831561555a575b505050853b1561550f57946154b09694614dbd948a94614daf948d996000146155085750505a925b5a978b6040519a8b9863757fea4d60e11b60208b015260248a0161537e565b90156154fd5750906154f861ffff928560207fb8890edbfc1c74692f527444645f95489c3703cc2df42e4a366f5d06fa6cd884969751910120906040519485941696846153e2565b0390a2565b926104009492614de5565b1692615491565b50506040516001600160a01b039094168452507f9aedf5fdba8716db3b6705ca00150643309995d4f818a249ed6dde6677e7792d975091955085945050602084019250614e90915050565b906121806122b6926122b089615574615589979b30615930565b9961ffff166000526007602052604060002090565b88888b615469565b60065460ff16156155de5760228251106115f85761ffff6022610400930151911660005260026020526155d1604060002060008052602052604060002090565b54906115c38215156155e6565b505161167957565b156155ed57565b60405162461bcd60e51b815260206004820152601a60248201527f4c7a4170703a206d696e4761734c696d6974206e6f74207365740000000000006044820152606490fd5b1561563957565b60405162461bcd60e51b815260206004820152601b60248201527f4c7a4170703a20676173206c696d697420697320746f6f206c6f7700000000006044820152606490fd5b634e487b7160e01b600052601260045260246000fd5b61569c6159dd565b9081156156fd57046001600160401b03908181116156b8571690565b60405162461bcd60e51b815260206004820152601a60248201527f4f4654436f72653a20616d6f756e745344206f766572666c6f770000000000006044820152606490fd5b61567e565b81810292918115918404141715610b4257565b61571d6159dd565b80156156fd57810690818103908111610b425791565b90604051916000602084015260218301526001600160401b0360c01b9060c01b1660418201526029815261069481610d51565b1561576d57565b60405162461bcd60e51b815260206004820152601860248201527f4f4654436f72653a20696e76616c6964207061796c6f616400000000000000006044820152606490fd5b9392607192610694946001600160a01b03604051978895600160f81b602088015260218701526001600160401b0360c01b809460c01b16604187015216604985015260c01b166069830152615810815180926020868601910161063b565b8101036051810184520182610d87565b90615838600160ff61583185615c65565b1614615766565b61584182615c0d565b9061584b83615cb0565b9060498451106158c55760498401519360518151106158805761587d6051820151916158778151613934565b90615b89565b91565b60405162461bcd60e51b815260206004820152601460248201527f746f55696e7436345f6f75744f66426f756e64730000000000000000000000006044820152606490fd5b60405162461bcd60e51b815260206004820152601560248201527f746f427974657333325f6f75744f66426f756e647300000000000000000000006044820152606490fd5b8161069491336001600160a01b03821603156144435761592b823383612e32565b614443565b906001600160a01b03821691821561528357600a5490828201809211610b42576000926159976020927fddf252ad1be2c89b69c2b068fc378daa952ba7f163c4a11628f55a4df523b3ef94600a556001600160a01b03166000526008602052604060002090565b818154019055604051908152a3565b6106949183916001600160a01b0381163081141590816159d2575b5015612be8576109a6833383612e32565b9050331415386159c1565b6040516303408e4760e41b81526020816004817f00000000000000000000000000000000000000000000000000000000000000006001600160a01b03165afa80156108115761ffff91600091615a6e575b5016600052600d60205260ff60406000205416615a4a57600190565b7f000000000000000000000000000000000000000000000000000000000000000090565b615a86915060203d811161187f576118708183610d87565b38615a2e565b15615a9357565b60405162461bcd60e51b815260206004820152600e60248201526d736c6963655f6f766572666c6f7760901b6044820152606490fd5b15615ad057565b60405162461bcd60e51b8152602060048201526011602482015270736c6963655f6f75744f66426f756e647360781b6044820152606490fd5b615b1d82615b1681612b0c565b1015615a8c565b615b2a8282511015615ac9565b81615b42575050604051600081526020810160405290565b60405191601f811691821560051b808486010193838501920101905b808410615b765750508252601f01601f191660405290565b9092835181526020809101930190615b5e565b615b9682615b1681612b0c565b615bab8151615ba484612b1a565b1115615ac9565b81615bc3575050604051600081526020810160405290565b60405191601f8116916051831560051b80858701019484860193010101905b808410615bfa5750508252601f01601f191660405290565b9092835181526020809101930190615be2565b6021815110615c2057602d015160601c90565b60405162461bcd60e51b815260206004820152601560248201527f746f416464726573735f6f75744f66426f756e647300000000000000000000006044820152606490fd5b6001815110615c75576001015190565b60405162461bcd60e51b8152602060048201526013602482015272746f55696e74385f6f75744f66426f756e647360681b6044820152606490fd5b6029815110615880576029015190565b6040519392909160009160c08601916001600160401b03831187841017610d315783926040526096875282602088019560a036883760208451940192f1903d9060968211615d14575b6000908286523e9190565b60969150615d0956fed81fc9b8523134ed613870ed029d6170cbb73aa6a6bc311b9a642689fb9df59aa26469706673582212206024495d9cadd12ee8d39f26c5292e333abe9fc86217dc9db8d73dfb71bb1dad64736f6c63430008120033",
  "linkReferences": {},
  "deployedLinkReferences": {}
}