{
  "_format": "hh-sol-artifact-1",
  "contractName": "BaseTOFTMarketModule",
  "sourceName": "contracts/tOFT/modules/BaseTOFTMarketModule.sol",
  "abi": [
    {
      "inputs": [
        {
          "internalType": "address",
          "name": "_lzEndpoint",
          "type": "address"
        },
        {
          "internalType": "address",
          "name": "_erc20",
          "type": "address"
        },
        {
          "internalType": "contract IYieldBoxBase",
          "name": "_yieldBox",
          "type": "address"
        },
        {
          "internalType": "string",
          "name": "_name",
          "type": "string"
        },
        {
          "internalType": "string",
          "name": "_symbol",
          "type": "string"
        },
        {
          "internalType": "uint8",
          "name": "_decimal",
          "type": "uint8"
        },
        {
          "internalType": "uint256",
          "name": "_hostChainID",
          "type": "uint256"
        }
      ],
      "stateMutability": "nonpayable",
      "type": "constructor"
    },
    {
      "anonymous": false,
      "inputs": [
        {
          "indexed": true,
          "internalType": "address",
          "name": "owner",
          "type": "address"
        },
        {
          "indexed": true,
          "internalType": "address",
          "name": "spender",
          "type": "address"
        },
        {
          "indexed": false,
          "internalType": "uint256",
          "name": "value",
          "type": "uint256"
        }
      ],
      "name": "Approval",
      "type": "event"
    },
    {
      "anonymous": false,
      "inputs": [
        {
          "indexed": true,
          "internalType": "uint16",
          "name": "_srcChainId",
          "type": "uint16"
        },
        {
          "indexed": false,
          "internalType": "bytes",
          "name": "_srcAddress",
          "type": "bytes"
        },
        {
          "indexed": false,
          "internalType": "uint64",
          "name": "_nonce",
          "type": "uint64"
        },
        {
          "indexed": false,
          "internalType": "bytes32",
          "name": "_hash",
          "type": "bytes32"
        }
      ],
      "name": "CallOFTReceivedSuccess",
      "type": "event"
    },
    {
      "anonymous": false,
      "inputs": [
        {
          "indexed": false,
          "internalType": "uint16",
          "name": "_srcChainId",
          "type": "uint16"
        },
        {
          "indexed": false,
          "internalType": "bytes",
          "name": "_srcAddress",
          "type": "bytes"
        },
        {
          "indexed": false,
          "internalType": "uint64",
          "name": "_nonce",
          "type": "uint64"
        },
        {
          "indexed": false,
          "internalType": "bytes",
          "name": "_payload",
          "type": "bytes"
        },
        {
          "indexed": false,
          "internalType": "bytes",
          "name": "_reason",
          "type": "bytes"
        }
      ],
      "name": "MessageFailed",
      "type": "event"
    },
    {
      "anonymous": false,
      "inputs": [
        {
          "indexed": false,
          "internalType": "address",
          "name": "_address",
          "type": "address"
        }
      ],
      "name": "NonContractAddress",
      "type": "event"
    },
    {
      "anonymous": false,
      "inputs": [
        {
          "indexed": true,
          "internalType": "address",
          "name": "previousOwner",
          "type": "address"
        },
        {
          "indexed": true,
          "internalType": "address",
          "name": "newOwner",
          "type": "address"
        }
      ],
      "name": "OwnershipTransferred",
      "type": "event"
    },
    {
      "anonymous": false,
      "inputs": [
        {
          "indexed": true,
          "internalType": "uint16",
          "name": "_srcChainId",
          "type": "uint16"
        },
        {
          "indexed": true,
          "internalType": "address",
          "name": "_to",
          "type": "address"
        },
        {
          "indexed": false,
          "internalType": "uint256",
          "name": "_amount",
          "type": "uint256"
        }
      ],
      "name": "ReceiveFromChain",
      "type": "event"
    },
    {
      "anonymous": false,
      "inputs": [
        {
          "indexed": false,
          "internalType": "uint16",
          "name": "_srcChainId",
          "type": "uint16"
        },
        {
          "indexed": false,
          "internalType": "bytes",
          "name": "_srcAddress",
          "type": "bytes"
        },
        {
          "indexed": false,
          "internalType": "uint64",
          "name": "_nonce",
          "type": "uint64"
        },
        {
          "indexed": false,
          "internalType": "bytes32",
          "name": "_payloadHash",
          "type": "bytes32"
        }
      ],
      "name": "RetryMessageSuccess",
      "type": "event"
    },
    {
      "anonymous": false,
      "inputs": [
        {
          "indexed": true,
          "internalType": "uint16",
          "name": "_dstChainId",
          "type": "uint16"
        },
        {
          "indexed": true,
          "internalType": "address",
          "name": "_from",
          "type": "address"
        },
        {
          "indexed": true,
          "internalType": "bytes32",
          "name": "_toAddress",
          "type": "bytes32"
        },
        {
          "indexed": false,
          "internalType": "uint256",
          "name": "_amount",
          "type": "uint256"
        }
      ],
      "name": "SendToChain",
      "type": "event"
    },
    {
      "anonymous": false,
      "inputs": [
        {
          "indexed": false,
          "internalType": "uint16",
          "name": "_dstChainId",
          "type": "uint16"
        },
        {
          "indexed": false,
          "internalType": "uint16",
          "name": "_type",
          "type": "uint16"
        },
        {
          "indexed": false,
          "internalType": "uint256",
          "name": "_minDstGas",
          "type": "uint256"
        }
      ],
      "name": "SetMinDstGas",
      "type": "event"
    },
    {
      "anonymous": false,
      "inputs": [
        {
          "indexed": false,
          "internalType": "address",
          "name": "precrime",
          "type": "address"
        }
      ],
      "name": "SetPrecrime",
      "type": "event"
    },
    {
      "anonymous": false,
      "inputs": [
        {
          "indexed": false,
          "internalType": "uint16",
          "name": "_remoteChainId",
          "type": "uint16"
        },
        {
          "indexed": false,
          "internalType": "bytes",
          "name": "_path",
          "type": "bytes"
        }
      ],
      "name": "SetTrustedRemote",
      "type": "event"
    },
    {
      "anonymous": false,
      "inputs": [
        {
          "indexed": false,
          "internalType": "uint16",
          "name": "_remoteChainId",
          "type": "uint16"
        },
        {
          "indexed": false,
          "internalType": "bytes",
          "name": "_remoteAddress",
          "type": "bytes"
        }
      ],
      "name": "SetTrustedRemoteAddress",
      "type": "event"
    },
    {
      "anonymous": false,
      "inputs": [
        {
          "indexed": false,
          "internalType": "bool",
          "name": "_useCustomAdapterParams",
          "type": "bool"
        }
      ],
      "name": "SetUseCustomAdapterParams",
      "type": "event"
    },
    {
      "anonymous": false,
      "inputs": [
        {
          "indexed": true,
          "internalType": "address",
          "name": "from",
          "type": "address"
        },
        {
          "indexed": true,
          "internalType": "address",
          "name": "to",
          "type": "address"
        },
        {
          "indexed": false,
          "internalType": "uint256",
          "name": "value",
          "type": "uint256"
        }
      ],
      "name": "Transfer",
      "type": "event"
    },
    {
      "inputs": [],
      "name": "DEFAULT_PAYLOAD_SIZE_LIMIT",
      "outputs": [
        {
          "internalType": "uint256",
          "name": "",
          "type": "uint256"
        }
      ],
      "stateMutability": "view",
      "type": "function"
    },
    {
      "inputs": [],
      "name": "NO_EXTRA_GAS",
      "outputs": [
        {
          "internalType": "uint256",
          "name": "",
          "type": "uint256"
        }
      ],
      "stateMutability": "view",
      "type": "function"
    },
    {
      "inputs": [],
      "name": "PT_SEND",
      "outputs": [
        {
          "internalType": "uint8",
          "name": "",
          "type": "uint8"
        }
      ],
      "stateMutability": "view",
      "type": "function"
    },
    {
      "inputs": [],
      "name": "PT_SEND_AND_CALL",
      "outputs": [
        {
          "internalType": "uint8",
          "name": "",
          "type": "uint8"
        }
      ],
      "stateMutability": "view",
      "type": "function"
    },
    {
      "inputs": [
        {
          "internalType": "address",
          "name": "owner",
          "type": "address"
        },
        {
          "internalType": "address",
          "name": "spender",
          "type": "address"
        }
      ],
      "name": "allowance",
      "outputs": [
        {
          "internalType": "uint256",
          "name": "",
          "type": "uint256"
        }
      ],
      "stateMutability": "view",
      "type": "function"
    },
    {
      "inputs": [
        {
          "internalType": "address",
          "name": "spender",
          "type": "address"
        },
        {
          "internalType": "uint256",
          "name": "amount",
          "type": "uint256"
        }
      ],
      "name": "approve",
      "outputs": [
        {
          "internalType": "bool",
          "name": "",
          "type": "bool"
        }
      ],
      "stateMutability": "nonpayable",
      "type": "function"
    },
    {
      "inputs": [
        {
          "internalType": "address",
          "name": "account",
          "type": "address"
        }
      ],
      "name": "balanceOf",
      "outputs": [
        {
          "internalType": "uint256",
          "name": "",
          "type": "uint256"
        }
      ],
      "stateMutability": "view",
      "type": "function"
    },
    {
      "inputs": [
        {
          "internalType": "uint16",
          "name": "_srcChainId",
          "type": "uint16"
        },
        {
          "internalType": "bytes",
          "name": "_payload",
          "type": "bytes"
        }
      ],
      "name": "borrow",
      "outputs": [],
      "stateMutability": "payable",
      "type": "function"
    },
    {
      "inputs": [
        {
          "internalType": "uint16",
          "name": "_srcChainId",
          "type": "uint16"
        },
        {
          "internalType": "bytes",
          "name": "_srcAddress",
          "type": "bytes"
        },
        {
          "internalType": "uint64",
          "name": "_nonce",
          "type": "uint64"
        },
        {
          "internalType": "bytes32",
          "name": "_from",
          "type": "bytes32"
        },
        {
          "internalType": "address",
          "name": "_to",
          "type": "address"
        },
        {
          "internalType": "uint256",
          "name": "_amount",
          "type": "uint256"
        },
        {
          "internalType": "bytes",
          "name": "_payload",
          "type": "bytes"
        },
        {
          "internalType": "uint256",
          "name": "_gasForCall",
          "type": "uint256"
        }
      ],
      "name": "callOnOFTReceived",
      "outputs": [],
      "stateMutability": "nonpayable",
      "type": "function"
    },
    {
      "inputs": [],
      "name": "circulatingSupply",
      "outputs": [
        {
          "internalType": "uint256",
          "name": "",
          "type": "uint256"
        }
      ],
      "stateMutability": "view",
      "type": "function"
    },
    {
      "inputs": [
        {
          "internalType": "uint16",
          "name": "",
          "type": "uint16"
        },
        {
          "internalType": "bytes",
          "name": "",
          "type": "bytes"
        },
        {
          "internalType": "uint64",
          "name": "",
          "type": "uint64"
        }
      ],
      "name": "creditedPackets",
      "outputs": [
        {
          "internalType": "bool",
          "name": "",
          "type": "bool"
        }
      ],
      "stateMutability": "view",
      "type": "function"
    },
    {
      "inputs": [],
      "name": "decimals",
      "outputs": [
        {
          "internalType": "uint8",
          "name": "",
          "type": "uint8"
        }
      ],
      "stateMutability": "view",
      "type": "function"
    },
    {
      "inputs": [
        {
          "internalType": "address",
          "name": "spender",
          "type": "address"
        },
        {
          "internalType": "uint256",
          "name": "subtractedValue",
          "type": "uint256"
        }
      ],
      "name": "decreaseAllowance",
      "outputs": [
        {
          "internalType": "bool",
          "name": "",
          "type": "bool"
        }
      ],
      "stateMutability": "nonpayable",
      "type": "function"
    },
    {
      "inputs": [],
      "name": "erc20",
      "outputs": [
        {
          "internalType": "address",
          "name": "",
          "type": "address"
        }
      ],
      "stateMutability": "view",
      "type": "function"
    },
    {
      "inputs": [
        {
          "internalType": "uint16",
          "name": "_dstChainId",
          "type": "uint16"
        },
        {
          "internalType": "bytes32",
          "name": "_toAddress",
          "type": "bytes32"
        },
        {
          "internalType": "uint256",
          "name": "_amount",
          "type": "uint256"
        },
        {
          "internalType": "bytes",
          "name": "_payload",
          "type": "bytes"
        },
        {
          "internalType": "uint64",
          "name": "_dstGasForCall",
          "type": "uint64"
        },
        {
          "internalType": "bool",
          "name": "_useZro",
          "type": "bool"
        },
        {
          "internalType": "bytes",
          "name": "_adapterParams",
          "type": "bytes"
        }
      ],
      "name": "estimateSendAndCallFee",
      "outputs": [
        {
          "internalType": "uint256",
          "name": "nativeFee",
          "type": "uint256"
        },
        {
          "internalType": "uint256",
          "name": "zroFee",
          "type": "uint256"
        }
      ],
      "stateMutability": "view",
      "type": "function"
    },
    {
      "inputs": [
        {
          "internalType": "uint16",
          "name": "_dstChainId",
          "type": "uint16"
        },
        {
          "internalType": "bytes32",
          "name": "_toAddress",
          "type": "bytes32"
        },
        {
          "internalType": "uint256",
          "name": "_amount",
          "type": "uint256"
        },
        {
          "internalType": "bool",
          "name": "_useZro",
          "type": "bool"
        },
        {
          "internalType": "bytes",
          "name": "_adapterParams",
          "type": "bytes"
        }
      ],
      "name": "estimateSendFee",
      "outputs": [
        {
          "internalType": "uint256",
          "name": "nativeFee",
          "type": "uint256"
        },
        {
          "internalType": "uint256",
          "name": "zroFee",
          "type": "uint256"
        }
      ],
      "stateMutability": "view",
      "type": "function"
    },
    {
      "inputs": [
        {
          "internalType": "uint16",
          "name": "",
          "type": "uint16"
        },
        {
          "internalType": "bytes",
          "name": "",
          "type": "bytes"
        },
        {
          "internalType": "uint64",
          "name": "",
          "type": "uint64"
        }
      ],
      "name": "failedMessages",
      "outputs": [
        {
          "internalType": "bytes32",
          "name": "",
          "type": "bytes32"
        }
      ],
      "stateMutability": "view",
      "type": "function"
    },
    {
      "inputs": [
        {
          "internalType": "uint16",
          "name": "_srcChainId",
          "type": "uint16"
        },
        {
          "internalType": "bytes",
          "name": "_srcAddress",
          "type": "bytes"
        }
      ],
      "name": "forceResumeReceive",
      "outputs": [],
      "stateMutability": "nonpayable",
      "type": "function"
    },
    {
      "inputs": [
        {
          "internalType": "uint16",
          "name": "_version",
          "type": "uint16"
        },
        {
          "internalType": "uint16",
          "name": "_chainId",
          "type": "uint16"
        },
        {
          "internalType": "address",
          "name": "",
          "type": "address"
        },
        {
          "internalType": "uint256",
          "name": "_configType",
          "type": "uint256"
        }
      ],
      "name": "getConfig",
      "outputs": [
        {
          "internalType": "bytes",
          "name": "",
          "type": "bytes"
        }
      ],
      "stateMutability": "view",
      "type": "function"
    },
    {
      "inputs": [
        {
          "internalType": "uint16",
          "name": "_remoteChainId",
          "type": "uint16"
        }
      ],
      "name": "getTrustedRemoteAddress",
      "outputs": [
        {
          "internalType": "bytes",
          "name": "",
          "type": "bytes"
        }
      ],
      "stateMutability": "view",
      "type": "function"
    },
    {
      "inputs": [],
      "name": "hostChainID",
      "outputs": [
        {
          "internalType": "uint256",
          "name": "",
          "type": "uint256"
        }
      ],
      "stateMutability": "view",
      "type": "function"
    },
    {
      "inputs": [
        {
          "internalType": "address",
          "name": "spender",
          "type": "address"
        },
        {
          "internalType": "uint256",
          "name": "addedValue",
          "type": "uint256"
        }
      ],
      "name": "increaseAllowance",
      "outputs": [
        {
          "internalType": "bool",
          "name": "",
          "type": "bool"
        }
      ],
      "stateMutability": "nonpayable",
      "type": "function"
    },
    {
      "inputs": [
        {
          "internalType": "uint16",
          "name": "_srcChainId",
          "type": "uint16"
        },
        {
          "internalType": "bytes",
          "name": "_srcAddress",
          "type": "bytes"
        }
      ],
      "name": "isTrustedRemote",
      "outputs": [
        {
          "internalType": "bool",
          "name": "",
          "type": "bool"
        }
      ],
      "stateMutability": "view",
      "type": "function"
    },
    {
      "inputs": [],
      "name": "lzEndpoint",
      "outputs": [
        {
          "internalType": "contract ILayerZeroEndpoint",
          "name": "",
          "type": "address"
        }
      ],
      "stateMutability": "view",
      "type": "function"
    },
    {
      "inputs": [
        {
          "internalType": "uint16",
          "name": "_srcChainId",
          "type": "uint16"
        },
        {
          "internalType": "bytes",
          "name": "_srcAddress",
          "type": "bytes"
        },
        {
          "internalType": "uint64",
          "name": "_nonce",
          "type": "uint64"
        },
        {
          "internalType": "bytes",
          "name": "_payload",
          "type": "bytes"
        }
      ],
      "name": "lzReceive",
      "outputs": [],
      "stateMutability": "nonpayable",
      "type": "function"
    },
    {
      "inputs": [
        {
          "internalType": "uint16",
          "name": "",
          "type": "uint16"
        },
        {
          "internalType": "uint16",
          "name": "",
          "type": "uint16"
        }
      ],
      "name": "minDstGasLookup",
      "outputs": [
        {
          "internalType": "uint256",
          "name": "",
          "type": "uint256"
        }
      ],
      "stateMutability": "view",
      "type": "function"
    },
    {
      "inputs": [],
      "name": "name",
      "outputs": [
        {
          "internalType": "string",
          "name": "",
          "type": "string"
        }
      ],
      "stateMutability": "view",
      "type": "function"
    },
    {
      "inputs": [
        {
          "internalType": "uint16",
          "name": "_srcChainId",
          "type": "uint16"
        },
        {
          "internalType": "bytes",
          "name": "_srcAddress",
          "type": "bytes"
        },
        {
          "internalType": "uint64",
          "name": "_nonce",
          "type": "uint64"
        },
        {
          "internalType": "bytes",
          "name": "_payload",
          "type": "bytes"
        }
      ],
      "name": "nonblockingLzReceive",
      "outputs": [],
      "stateMutability": "nonpayable",
      "type": "function"
    },
    {
      "inputs": [],
      "name": "owner",
      "outputs": [
        {
          "internalType": "address",
          "name": "",
          "type": "address"
        }
      ],
      "stateMutability": "view",
      "type": "function"
    },
    {
      "inputs": [
        {
          "internalType": "uint16",
          "name": "",
          "type": "uint16"
        }
      ],
      "name": "payloadSizeLimitLookup",
      "outputs": [
        {
          "internalType": "uint256",
          "name": "",
          "type": "uint256"
        }
      ],
      "stateMutability": "view",
      "type": "function"
    },
    {
      "inputs": [],
      "name": "precrime",
      "outputs": [
        {
          "internalType": "address",
          "name": "",
          "type": "address"
        }
      ],
      "stateMutability": "view",
      "type": "function"
    },
    {
      "inputs": [
        {
          "internalType": "bytes",
          "name": "_payload",
          "type": "bytes"
        }
      ],
      "name": "remove",
      "outputs": [],
      "stateMutability": "nonpayable",
      "type": "function"
    },
    {
      "inputs": [
        {
          "internalType": "address",
          "name": "from",
          "type": "address"
        },
        {
          "internalType": "address",
          "name": "to",
          "type": "address"
        },
        {
          "internalType": "uint16",
          "name": "lzDstChainId",
          "type": "uint16"
        },
        {
          "internalType": "address",
          "name": "zroPaymentAddress",
          "type": "address"
        },
        {
          "components": [
            {
              "internalType": "bool",
              "name": "withdraw",
              "type": "bool"
            },
            {
              "internalType": "uint256",
              "name": "withdrawLzFeeAmount",
              "type": "uint256"
            },
            {
              "internalType": "bool",
              "name": "withdrawOnOtherChain",
              "type": "bool"
            },
            {
              "internalType": "uint16",
              "name": "withdrawLzChainId",
              "type": "uint16"
            },
            {
              "internalType": "bytes",
              "name": "withdrawAdapterParams",
              "type": "bytes"
            }
          ],
          "internalType": "struct ITapiocaOFT.IWithdrawParams",
          "name": "withdrawParams",
          "type": "tuple"
        },
        {
          "components": [
            {
              "internalType": "uint256",
              "name": "share",
              "type": "uint256"
            },
            {
              "internalType": "address",
              "name": "marketHelper",
              "type": "address"
            },
            {
              "internalType": "address",
              "name": "market",
              "type": "address"
            }
          ],
          "internalType": "struct ITapiocaOFT.IRemoveParams",
          "name": "removeParams",
          "type": "tuple"
        },
        {
          "components": [
            {
              "internalType": "bool",
              "name": "permitAll",
              "type": "bool"
            },
            {
              "internalType": "bool",
              "name": "allowFailure",
              "type": "bool"
            },
            {
              "internalType": "address",
              "name": "target",
              "type": "address"
            },
            {
              "internalType": "bool",
              "name": "permitBorrow",
              "type": "bool"
            },
            {
              "internalType": "address",
              "name": "owner",
              "type": "address"
            },
            {
              "internalType": "address",
              "name": "spender",
              "type": "address"
            },
            {
              "internalType": "uint256",
              "name": "value",
              "type": "uint256"
            },
            {
              "internalType": "uint256",
              "name": "deadline",
              "type": "uint256"
            },
            {
              "internalType": "uint8",
              "name": "v",
              "type": "uint8"
            },
            {
              "internalType": "bytes32",
              "name": "r",
              "type": "bytes32"
            },
            {
              "internalType": "bytes32",
              "name": "s",
              "type": "bytes32"
            }
          ],
          "internalType": "struct ITapiocaOFT.IApproval[]",
          "name": "approvals",
          "type": "tuple[]"
        },
        {
          "internalType": "bytes",
          "name": "adapterParams",
          "type": "bytes"
        }
      ],
      "name": "removeCollateral",
      "outputs": [],
      "stateMutability": "payable",
      "type": "function"
    },
    {
      "inputs": [],
      "name": "renounceOwnership",
      "outputs": [],
      "stateMutability": "nonpayable",
      "type": "function"
    },
    {
      "inputs": [
        {
          "internalType": "uint16",
          "name": "_srcChainId",
          "type": "uint16"
        },
        {
          "internalType": "bytes",
          "name": "_srcAddress",
          "type": "bytes"
        },
        {
          "internalType": "uint64",
          "name": "_nonce",
          "type": "uint64"
        },
        {
          "internalType": "bytes",
          "name": "_payload",
          "type": "bytes"
        }
      ],
      "name": "retryMessage",
      "outputs": [],
      "stateMutability": "payable",
      "type": "function"
    },
    {
      "inputs": [
        {
          "internalType": "address",
          "name": "_from",
          "type": "address"
        },
        {
          "internalType": "uint16",
          "name": "_dstChainId",
          "type": "uint16"
        },
        {
          "internalType": "bytes32",
          "name": "_toAddress",
          "type": "bytes32"
        },
        {
          "internalType": "uint256",
          "name": "_amount",
          "type": "uint256"
        },
        {
          "internalType": "bytes",
          "name": "_payload",
          "type": "bytes"
        },
        {
          "internalType": "uint64",
          "name": "_dstGasForCall",
          "type": "uint64"
        },
        {
          "components": [
            {
              "internalType": "address payable",
              "name": "refundAddress",
              "type": "address"
            },
            {
              "internalType": "address",
              "name": "zroPaymentAddress",
              "type": "address"
            },
            {
              "internalType": "bytes",
              "name": "adapterParams",
              "type": "bytes"
            }
          ],
          "internalType": "struct ICommonOFT.LzCallParams",
          "name": "_callParams",
          "type": "tuple"
        }
      ],
      "name": "sendAndCall",
      "outputs": [],
      "stateMutability": "payable",
      "type": "function"
    },
    {
      "inputs": [
        {
          "internalType": "address",
          "name": "_from",
          "type": "address"
        },
        {
          "internalType": "uint16",
          "name": "_dstChainId",
          "type": "uint16"
        },
        {
          "internalType": "bytes32",
          "name": "_toAddress",
          "type": "bytes32"
        },
        {
          "internalType": "uint256",
          "name": "_amount",
          "type": "uint256"
        },
        {
          "components": [
            {
              "internalType": "address payable",
              "name": "refundAddress",
              "type": "address"
            },
            {
              "internalType": "address",
              "name": "zroPaymentAddress",
              "type": "address"
            },
            {
              "internalType": "bytes",
              "name": "adapterParams",
              "type": "bytes"
            }
          ],
          "internalType": "struct ICommonOFT.LzCallParams",
          "name": "_callParams",
          "type": "tuple"
        }
      ],
      "name": "sendFrom",
      "outputs": [],
      "stateMutability": "payable",
      "type": "function"
    },
    {
      "inputs": [
        {
          "internalType": "address",
          "name": "_from",
          "type": "address"
        },
        {
          "internalType": "address",
          "name": "_to",
          "type": "address"
        },
        {
          "internalType": "uint16",
          "name": "lzDstChainId",
          "type": "uint16"
        },
        {
          "internalType": "bytes",
          "name": "airdropAdapterParams",
          "type": "bytes"
        },
        {
          "components": [
            {
              "internalType": "uint256",
              "name": "amount",
              "type": "uint256"
            },
            {
              "internalType": "uint256",
              "name": "borrowAmount",
              "type": "uint256"
            },
            {
              "internalType": "address",
              "name": "marketHelper",
              "type": "address"
            },
            {
              "internalType": "address",
              "name": "market",
              "type": "address"
            }
          ],
          "internalType": "struct ITapiocaOFT.IBorrowParams",
          "name": "borrowParams",
          "type": "tuple"
        },
        {
          "components": [
            {
              "internalType": "bool",
              "name": "withdraw",
              "type": "bool"
            },
            {
              "internalType": "uint256",
              "name": "withdrawLzFeeAmount",
              "type": "uint256"
            },
            {
              "internalType": "bool",
              "name": "withdrawOnOtherChain",
              "type": "bool"
            },
            {
              "internalType": "uint16",
              "name": "withdrawLzChainId",
              "type": "uint16"
            },
            {
              "internalType": "bytes",
              "name": "withdrawAdapterParams",
              "type": "bytes"
            }
          ],
          "internalType": "struct ITapiocaOFT.IWithdrawParams",
          "name": "withdrawParams",
          "type": "tuple"
        },
        {
          "components": [
            {
              "internalType": "uint256",
              "name": "extraGasLimit",
              "type": "uint256"
            },
            {
              "internalType": "address",
              "name": "zroPaymentAddress",
              "type": "address"
            }
          ],
          "internalType": "struct ITapiocaOFT.ISendOptions",
          "name": "options",
          "type": "tuple"
        },
        {
          "components": [
            {
              "internalType": "bool",
              "name": "permitAll",
              "type": "bool"
            },
            {
              "internalType": "bool",
              "name": "allowFailure",
              "type": "bool"
            },
            {
              "internalType": "address",
              "name": "target",
              "type": "address"
            },
            {
              "internalType": "bool",
              "name": "permitBorrow",
              "type": "bool"
            },
            {
              "internalType": "address",
              "name": "owner",
              "type": "address"
            },
            {
              "internalType": "address",
              "name": "spender",
              "type": "address"
            },
            {
              "internalType": "uint256",
              "name": "value",
              "type": "uint256"
            },
            {
              "internalType": "uint256",
              "name": "deadline",
              "type": "uint256"
            },
            {
              "internalType": "uint8",
              "name": "v",
              "type": "uint8"
            },
            {
              "internalType": "bytes32",
              "name": "r",
              "type": "bytes32"
            },
            {
              "internalType": "bytes32",
              "name": "s",
              "type": "bytes32"
            }
          ],
          "internalType": "struct ITapiocaOFT.IApproval[]",
          "name": "approvals",
          "type": "tuple[]"
        }
      ],
      "name": "sendToYBAndBorrow",
      "outputs": [],
      "stateMutability": "payable",
      "type": "function"
    },
    {
      "inputs": [
        {
          "internalType": "uint16",
          "name": "_version",
          "type": "uint16"
        },
        {
          "internalType": "uint16",
          "name": "_chainId",
          "type": "uint16"
        },
        {
          "internalType": "uint256",
          "name": "_configType",
          "type": "uint256"
        },
        {
          "internalType": "bytes",
          "name": "_config",
          "type": "bytes"
        }
      ],
      "name": "setConfig",
      "outputs": [],
      "stateMutability": "nonpayable",
      "type": "function"
    },
    {
      "inputs": [
        {
          "internalType": "uint16",
          "name": "_dstChainId",
          "type": "uint16"
        },
        {
          "internalType": "uint16",
          "name": "_packetType",
          "type": "uint16"
        },
        {
          "internalType": "uint256",
          "name": "_minGas",
          "type": "uint256"
        }
      ],
      "name": "setMinDstGas",
      "outputs": [],
      "stateMutability": "nonpayable",
      "type": "function"
    },
    {
      "inputs": [
        {
          "internalType": "uint16",
          "name": "_dstChainId",
          "type": "uint16"
        },
        {
          "internalType": "uint256",
          "name": "_size",
          "type": "uint256"
        }
      ],
      "name": "setPayloadSizeLimit",
      "outputs": [],
      "stateMutability": "nonpayable",
      "type": "function"
    },
    {
      "inputs": [
        {
          "internalType": "address",
          "name": "_precrime",
          "type": "address"
        }
      ],
      "name": "setPrecrime",
      "outputs": [],
      "stateMutability": "nonpayable",
      "type": "function"
    },
    {
      "inputs": [
        {
          "internalType": "uint16",
          "name": "_version",
          "type": "uint16"
        }
      ],
      "name": "setReceiveVersion",
      "outputs": [],
      "stateMutability": "nonpayable",
      "type": "function"
    },
    {
      "inputs": [
        {
          "internalType": "uint16",
          "name": "_version",
          "type": "uint16"
        }
      ],
      "name": "setSendVersion",
      "outputs": [],
      "stateMutability": "nonpayable",
      "type": "function"
    },
    {
      "inputs": [
        {
          "internalType": "uint16",
          "name": "_srcChainId",
          "type": "uint16"
        },
        {
          "internalType": "bytes",
          "name": "_path",
          "type": "bytes"
        }
      ],
      "name": "setTrustedRemote",
      "outputs": [],
      "stateMutability": "nonpayable",
      "type": "function"
    },
    {
      "inputs": [
        {
          "internalType": "uint16",
          "name": "_remoteChainId",
          "type": "uint16"
        },
        {
          "internalType": "bytes",
          "name": "_remoteAddress",
          "type": "bytes"
        }
      ],
      "name": "setTrustedRemoteAddress",
      "outputs": [],
      "stateMutability": "nonpayable",
      "type": "function"
    },
    {
      "inputs": [
        {
          "internalType": "bool",
          "name": "_useCustomAdapterParams",
          "type": "bool"
        }
      ],
      "name": "setUseCustomAdapterParams",
      "outputs": [],
      "stateMutability": "nonpayable",
      "type": "function"
    },
    {
      "inputs": [],
      "name": "sharedDecimals",
      "outputs": [
        {
          "internalType": "uint8",
          "name": "",
          "type": "uint8"
        }
      ],
      "stateMutability": "view",
      "type": "function"
    },
    {
      "inputs": [
        {
          "internalType": "bytes4",
          "name": "interfaceId",
          "type": "bytes4"
        }
      ],
      "name": "supportsInterface",
      "outputs": [
        {
          "internalType": "bool",
          "name": "",
          "type": "bool"
        }
      ],
      "stateMutability": "view",
      "type": "function"
    },
    {
      "inputs": [],
      "name": "symbol",
      "outputs": [
        {
          "internalType": "string",
          "name": "",
          "type": "string"
        }
      ],
      "stateMutability": "view",
      "type": "function"
    },
    {
      "inputs": [],
      "name": "token",
      "outputs": [
        {
          "internalType": "address",
          "name": "",
          "type": "address"
        }
      ],
      "stateMutability": "view",
      "type": "function"
    },
    {
      "inputs": [],
      "name": "totalSupply",
      "outputs": [
        {
          "internalType": "uint256",
          "name": "",
          "type": "uint256"
        }
      ],
      "stateMutability": "view",
      "type": "function"
    },
    {
      "inputs": [
        {
          "internalType": "address",
          "name": "to",
          "type": "address"
        },
        {
          "internalType": "uint256",
          "name": "amount",
          "type": "uint256"
        }
      ],
      "name": "transfer",
      "outputs": [
        {
          "internalType": "bool",
          "name": "",
          "type": "bool"
        }
      ],
      "stateMutability": "nonpayable",
      "type": "function"
    },
    {
      "inputs": [
        {
          "internalType": "address",
          "name": "from",
          "type": "address"
        },
        {
          "internalType": "address",
          "name": "to",
          "type": "address"
        },
        {
          "internalType": "uint256",
          "name": "amount",
          "type": "uint256"
        }
      ],
      "name": "transferFrom",
      "outputs": [
        {
          "internalType": "bool",
          "name": "",
          "type": "bool"
        }
      ],
      "stateMutability": "nonpayable",
      "type": "function"
    },
    {
      "inputs": [
        {
          "internalType": "address",
          "name": "newOwner",
          "type": "address"
        }
      ],
      "name": "transferOwnership",
      "outputs": [],
      "stateMutability": "nonpayable",
      "type": "function"
    },
    {
      "inputs": [
        {
          "internalType": "uint16",
          "name": "",
          "type": "uint16"
        }
      ],
      "name": "trustedRemoteLookup",
      "outputs": [
        {
          "internalType": "bytes",
          "name": "",
          "type": "bytes"
        }
      ],
      "stateMutability": "view",
      "type": "function"
    },
    {
      "inputs": [],
      "name": "useCustomAdapterParams",
      "outputs": [
        {
          "internalType": "bool",
          "name": "",
          "type": "bool"
        }
      ],
      "stateMutability": "view",
      "type": "function"
    },
    {
      "inputs": [],
      "name": "yieldBox",
      "outputs": [
        {
          "internalType": "contract IYieldBoxBase",
          "name": "",
          "type": "address"
        }
      ],
      "stateMutability": "view",
      "type": "function"
    },
    {
      "stateMutability": "payable",
      "type": "receive"
    }
  ],
  "bytecode": "0x60e06040908082523462000576576200550080380380916200002282856200057b565b833981019060e08183031262000576576200003d81620005b5565b906020906200004e828201620005b5565b818601516001600160a01b0380821696909291879003620005765760608401516001600160401b0395908681116200057657826200008e918701620005ef565b916080860151908782116200057657620000aa918701620005ef565b9060a086015160ff811696878203620005765760c00151978b5180956a546170696f63614f46542d60a81b85830152620000ee8151809287602b86019101620005ca565b8101039462000108602b600b97888101845201826200057b565b607f8d518096601d60fa1b878301526200012c8151809289602186019101620005ca565b810103936200014660216001968781018a5201886200057b565b841c16946000968988549d60018060a01b03199e8f33908216178b55823391167f8be0079c531659141344cd1fd0a4f28419497f9722a3daafe3b4186f6b6457e08c80a3166080528660a052825184811162000562578154938685811c9516801562000557575b8886101462000543578190601f95868111620004f0575b5088908683116001146200048c578b9262000480575b5050600019600383901b1c191690861b1790555b80519283116200046c57600c548481811c9116801562000461575b868210146200044d5782811162000404575b50849183116001146200039e57928293918392889462000392575b50501b916000199060031b1c191617600c555b601282116200033f575060120360ff81116200032b5760ff1690604d8211620003175750600a0a60c0521683600e541617600e5560ff196010541617601055600f55600d541617600d5551614eb590816200064b823960805181818161048a01528181610771015281816109b101528181610e7b0152818161104301528181611fef015281816120ff015281816127fc0152818161305501528181613b9d0152613ff9015260a05181611a77015260c051818181614240015281816144ee0152818161475f01526147f90152f35b634e487b7160e01b81526011600452602490fd5b634e487b7160e01b82526011600452602482fd5b6084908a519062461bcd60e51b82526004820152602760248201527f4f46543a20736861726564446563696d616c73206d757374206265203c3d20646044820152666563696d616c7360c81b6064820152fd5b01519250388062000236565b600c8752848720919083601f198116895b8888838310620003ec5750505010620003d2575b505050811b01600c5562000249565b015160001960f88460031b161c19169055388080620003c3565b868601518855909601959485019487935001620003af565b600c88528588208380860160051c82019288871062000443575b0160051c019085905b828110620004375750506200021b565b89815501859062000427565b925081926200041e565b634e487b7160e01b88526022600452602488fd5b90607f169062000209565b634e487b7160e01b87526041600452602487fd5b015190503880620001da565b848c52898c208994509190601f1984168d5b8c828210620004d95750508411620004bf575b505050811b019055620001ee565b015160001960f88460031b161c19169055388080620004b1565b8385015186558c979095019493840193016200049e565b909150838b52888b208680850160051c8201928b861062000539575b918a91869594930160051c01915b8281106200052a575050620001c4565b8d81558594508a91016200051a565b925081926200050c565b634e487b7160e01b8a52602260045260248afd5b94607f1694620001ad565b634e487b7160e01b89526041600452602489fd5b600080fd5b601f909101601f19168101906001600160401b038211908210176200059f57604052565b634e487b7160e01b600052604160045260246000fd5b51906001600160a01b03821682036200057657565b60005b838110620005de5750506000910152565b8181015183820152602001620005cd565b81601f82011215620005765780516001600160401b0381116200059f576040519262000626601f8301601f1916602001856200057b565b818452602082840101116200057657620006479160208085019101620005ca565b9056fe6080604052600436101561001b575b361561001957600080fd5b005b60003560e01c80621d3567146103af57806254af3a146103aa57806301ffc9a7146103a557806306fdde03146103a057806307e0db171461039b578063095ea7b31461039657806309be4511146103915780630df374831461038c57806310ddb13714610387578063146110721461038257806318160ddd1461031457806319b883721461037d57806323b872dd14610378578063313ce56714610373578063365260b41461036e57806339509351146103695780633d8b38f6146103645780633f1f4fa41461035f57806342d65a8d1461035a57806344770515146103555780634c42899a1461035557806358edef4c146103505780635b8c41e61461034b57806366ad5c8a14610346578063695ef6bf1461034157806370a082311461033c578063715018a6146103375780637533d7881461033257806376203b481461032d578063785e9e8614610328578063857749b0146103235780638cfd8f5c1461031e5780638da5cb5b146103195780639358928b14610314578063950c8a741461030f57806395d89b411461030a5780639bdb9812146103055780639f38369a14610300578063a457c2d7146102fb578063a4c51df5146102f6578063a6c3d165146102f1578063a9059cbb146102ec578063b353aaa7146102e7578063baf3292d146102e2578063c4461834146102dd578063cbed8b9c146102d8578063d1deba1f146102d3578063dd62ed3e146102ce578063de406577146102c9578063df2a5b3b146102c4578063e6a20ae6146102bf578063eab45d9c146102ba578063eaffd49a146102b5578063eb8d72b7146102b0578063ed629c5c146102ab578063f2fde38b146102a6578063f5ecbdbc146102a15763fc0c546a0361000e57612866565b612792565b6126cb565b6126a8565b61255e565b6124d5565b612473565b612457565b612362565b61233b565b6122df565b61217c565b6120a3565b612086565b612013565b611fcf565b611fa5565b611e22565b611d8f565b611cd0565b611c2d565b611be2565b611b3b565b611b14565b610c91565b611aed565b611a9b565b611a5d565b611a36565b6117da565b611783565b61163d565b6115ff565b61150a565b611484565b61141d565b6110be565b6110a2565b611021565b610fe8565b610f8c565b610ef1565b610de9565b610db8565b610d78565b610cd3565b610b1a565b61097f565b610940565b61089b565b610808565b61073f565b61065a565b6105a8565b61058a565b61046d565b61ffff8116036103c057565b600080fd5b9181601f840112156103c0578235916001600160401b0383116103c057602083818601950101116103c057565b608435906001600160401b03821682036103c057565b9060806003198301126103c057600435610421816103b4565b916001600160401b03906024358281116103c05781610442916004016103c5565b9390939260443581811681036103c057926064359182116103c057610469916004016103c5565b9091565b346103c05761047b36610408565b91929493906001600160a01b037f000000000000000000000000000000000000000000000000000000000000000016330361053a576104ff61050792610019976104f86104de6104d98a61ffff166000526001602052604060002090565b611768565b8051908184149182610530575b508161050d575b50613a9f565b3691610ac8565b923691610ac8565b92613d85565b905061051a368486610ac8565b60208151910120906020815191012014386104f2565b15159150386104eb565b60405162461bcd60e51b815260206004820152601e60248201527f4c7a4170703a20696e76616c696420656e64706f696e742063616c6c657200006044820152606490fd5b60009103126103c057565b346103c05760003660031901126103c0576020600f54604051908152f35b346103c05760203660031901126103c05760043563ffffffff60e01b81168091036103c057602090631f7ecdf760e01b81149081156105ed575b506040519015158152f35b6301ffc9a760e01b149050386105e2565b60005b8381106106115750506000910152565b8181015183820152602001610601565b9060209161063a815180928185528580860191016105fe565b601f01601f1916010190565b906020610657928181520190610621565b90565b346103c05760008060031936011261073c576040519080600b5461067d81611698565b8085529160019180831690811561071257506001146106b7575b6106b3856106a781870382610a6c565b60405191829182610646565b0390f35b9250600b83527f0175b7a638427703f0dbe7bb9bbf987a2551717b34e79f33b5b1008d1fa01db95b8284106106fa5750505081016020016106a7826106b3610697565b805460208587018101919091529093019281016106df565b8695506106b3969350602092506106a794915060ff191682840152151560051b8201019293610697565b80fd5b346103c0576000602036600319011261073c5760043561075e816103b4565b610766612881565b816001600160a01b037f00000000000000000000000000000000000000000000000000000000000000001691823b156107d957602461ffff918360405195869485936307e0db1760e01b85521660048401525af180156107d4576107c8575080f35b6107d190610a1e565b80f35b612f96565b5080fd5b6001600160a01b038116036103c057565b606435906107fb826107dd565b565b35906107fb826107dd565b346103c05760403660031901126103c057610832600435610828816107dd565b6024359033612af8565b602060405160018152f35b908160a09103126103c05790565b60609060a31901126103c05760a490565b908160609103126103c05790565b9181601f840112156103c0578235916001600160401b0383116103c05760208085019461016085020101116103c057565b6101403660031901126103c0576004356108b4816107dd565b6024356108c0816107dd565b604435916108cd836103b4565b6108d56107ee565b6001600160401b03936084358581116103c0576108f690369060040161083d565b6108ff3661084b565b90610104358781116103c05761091990369060040161086a565b949093610124359889116103c0576109386100199936906004016103c5565b989097612e84565b346103c05760403660031901126103c05761ffff600435610960816103b4565b610968612881565b166000526003602052602435604060002055600080f35b346103c0576000602036600319011261073c5760043561099e816103b4565b6109a6612881565b816001600160a01b037f00000000000000000000000000000000000000000000000000000000000000001691823b156107d957602461ffff918360405195869485936310ddb13760e01b85521660048401525af180156107d4576107c8575080f35b634e487b7160e01b600052604160045260246000fd5b6001600160401b038111610a3157604052565b610a08565b608081019081106001600160401b03821117610a3157604052565b606081019081106001600160401b03821117610a3157604052565b90601f801991011681019081106001600160401b03821117610a3157604052565b6040519061016082018281106001600160401b03821117610a3157604052565b6001600160401b038111610a3157601f01601f191660200190565b929192610ad482610aad565b91610ae26040519384610a6c565b8294818452818301116103c0578281602093846000960137010152565b9080601f830112156103c05781602061065793359101610ac8565b60403660031901126103c057610b316004356103b4565b6024356001600160401b0381116103c057610b53610b62913690600401610aff565b6020808251830101910161332b565b80919392955051610c82575b50610b7a845130614b41565b6040820151151592610bc5610b94606085015161ffff1690565b610bb760808601516040519788936001600160a01b0380971691602086016133e5565b03601f198101865285610a6c565b610c08610bfc610bfc60408801610bee610be682516001600160a01b031690565b8a51906128d9565b50516001600160a01b031690565b6001600160a01b031690565b91610c1d60608701516001600160a01b031690565b93610c2f602088519801519151151590565b95843b156103c057600096610c5d92604051998a988997889763411628d960e01b8952169060048801613417565b039134905af180156107d457610c6f57005b80610c7c61001992610a1e565b8061057f565b610c8b90613644565b38610b6e565b346103c05760003660031901126103c0576020600a54604051908152f35b60809060831901126103c057608490565b6040906101231901126103c05761012490565b6101803660031901126103c057600435610cec816107dd565b602435610cf8816107dd565b60443591610d05836103b4565b6001600160401b03926064358481116103c057610d269036906004016103c5565b610d2f36610caf565b90610104358781116103c057610d4990369060040161083d565b92610d5336610cc0565b94610164359889116103c057610d7061001999369060040161086a565b98909761302b565b346103c05760603660031901126103c057610832600435610d98816107dd565b602435610da4816107dd565b60443591610db3833383612c25565b6129db565b346103c05760003660031901126103c057602060405160128152f35b801515036103c057565b35906107fb82610dd4565b346103c05760a03660031901126103c057600435610e06816103b4565b60643590610e1382610dd4565b608435906001600160401b0382116103c057610e386104f860409336906004016103c5565b90610e6f610e52610e4a60443561475d565b60243561482e565b928451958694859463040a7bb160e41b8652309060048701614194565b03816001600160a01b037f0000000000000000000000000000000000000000000000000000000000000000165afa9081156107d4576000908192610ec0575b50604080519182526020820192909252f35b9050610ee3915060403d8111610eea575b610edb8183610a6c565b81019061417e565b9038610eae565b503d610ed1565b346103c05760403660031901126103c057600435610f0e816107dd565b336000526009602052610f38816040600020906001600160a01b0316600052602052604060002090565b546024358101809111610f4f576108329133612af8565b6128e9565b9060406003198301126103c057600435610f6d816103b4565b91602435906001600160401b0382116103c057610469916004016103c5565b346103c057602061ffff610fd9610fa236610f54565b9390911660005260018452610fc4610fcb6040600020604051928380926116d2565b0382610a6c565b848151910120923691610ac8565b82815191012014604051908152f35b346103c05760203660031901126103c05761ffff600435611008816103b4565b1660005260036020526020604060002054604051908152f35b346103c05761102f36610f54565b9190611039612881565b6001600160a01b037f00000000000000000000000000000000000000000000000000000000000000001691823b156103c057604051928380926342d65a8d60e01b8252816110906000988997889460048501613cf8565b03925af180156107d4576107c8575080f35b346103c05760003660031901126103c057602060405160008152f35b346103c0576020806003193601126103c0576004356001600160401b0381116103c0576110f2611100913690600401610aff565b828082518301019101613464565b925095935093506001600160a01b038092169080516113a0575b50604084019061113c61113483516001600160a01b031690565b8651906128d9565b50611154610bfc610bfc84516001600160a01b031690565b958551873b156103c05760405163cce19f8160e01b81526001600160a01b038416600482018190526024820152604481019190915260009788908290606490829084905af180156107d45761138d575b5080516111af578680f35b6004856111c9610bfc610bfc87516001600160a01b031690565b60405163de40657760e01b815292839182905afa9485156107d457610bfc610bfc61120a926004988a958d91611360575b501696516001600160a01b031690565b6040516377607a1760e11b815295869182905afa9384156107d4578794611341575b50611246610bfc610bfc878901516001600160a01b031690565b9285820191825192611292611260606084015161ffff1690565b998981516040518094819263442c159960e01b83528d6004840160409060009294936060820195825260208201520152565b0381885afa9182156107d4578c9a8b9361130d575b505060809051930151915191873b15611309576112de938792836040519d8e9c8d9b8c9a632731bbc560e21b8c5260048c0161352b565b03925af180156107d4576112f6575b80808080808680f35b80610c7c61130392610a1e565b386112ed565b8980fd5b6080929350908161133292903d1061133a575b61132a8183610a6c565b81019061351c565b9190386112a7565b503d611320565b611359919450853d871161133a5761132a8183610a6c565b923861122c565b6113809150863d8811611386575b6113788183610a6c565b810190613507565b386111fa565b503d61136e565b80610c7c61139a92610a1e565b386111a4565b6113a990613644565b3861111a565b60606003198201126103c0576004356113c7816103b4565b916024356001600160401b03928382116103c0576113e791600401610aff565b9160443590811681036103c05790565b6020906114119282604051948386809551938492016105fe565b82019081520301902090565b346103c057602061147b61ffff61145a83611437366113af565b9490911660005260058252604060002082604051948386809551938492016105fe565b820190815203019020906001600160401b0316600052602052604060002090565b54604051908152f35b346103c05761149236610408565b91929493903033036114b6576104ff6114b092610019973691610ac8565b926141d9565b60405162461bcd60e51b815260206004820152602660248201527f4e6f6e626c6f636b696e674c7a4170703a2063616c6c6572206d7573742062656044820152650204c7a4170760d41b6064820152608490fd5b60a03660031901126103c057600435611522816107dd565b60243561152e816103b4565b604435916084356001600160401b0381116103c057602061ffff6001600160a01b0361157f7fd81fc9b8523134ed613870ed029d6170cbb73aa6a6bc311b9a642689fb9df59a94369060040161085c565b946115f2863561158e816107dd565b6115ac6104f8878a0135996115a28b6107dd565b6040810190613f6f565b6115b6818b61465a565b6115cb6115c46064356147f7565b5085614a05565b986115d78a15156143c7565b6115e96115e38b61475d565b8d61482e565b9234938c613b51565b60405195865216941692a4005b346103c05760203660031901126103c0576001600160a01b03600435611624816107dd565b1660005260086020526020604060002054604051908152f35b346103c05760008060031936011261073c57611657612881565b80546001600160a01b03198116825581906001600160a01b03167f8be0079c531659141344cd1fd0a4f28419497f9722a3daafe3b4186f6b6457e08280a380f35b90600182811c921680156116c8575b60208310146116b257565b634e487b7160e01b600052602260045260246000fd5b91607f16916116a7565b90600092918054916116e383611698565b9182825260019384811690816000146117455750600114611705575b50505050565b90919394506000526020928360002092846000945b8386106117315750505050010190388080806116ff565b80548587018301529401938590820161171a565b9294505050602093945060ff191683830152151560051b010190388080806116ff565b906107fb61177c92604051938480926116d2565b0383610a6c565b346103c05760203660031901126103c05761ffff6004356117a3816103b4565b1660005260016020526106b3610fc46117c66040600020604051928380926116d2565b604051918291602083526020830190610621565b60e03660031901126103c0576004356117f2816107dd565b6024356117fe816103b4565b604435916001600160401b036084358181116103c0576118229036906004016103c5565b92909160a435818116918282036103c05760c4359081116103c05761184b90369060040161085c565b9261188284359661185b886107dd565b61187a6118706020880135976115a2896107dd565b9890923691610ac8565b963691610ac8565b9460ff6006541660001461199457602286511061194f5761194896866020966115e96001600160a01b03966115f2958e6119218f61190e7fd81fc9b8523134ed613870ed029d6170cbb73aa6a6bc311b9a642689fb9df59a9f9d61ffff9e8f906022015193166000528f6002905261190860406000206001600052602052604060002090565b5461291b565b9061191a8215156146af565b10156146fb565b61193661192f6064356147f7565b508a614a05565b9d8e6119438115156143c7565b61475d565b90336148ad565b60405162461bcd60e51b815260206004820152601c60248201527f4c7a4170703a20696e76616c69642061646170746572506172616d73000000006044820152606490fd5b91959480949350516119e2576115f27fd81fc9b8523134ed613870ed029d6170cbb73aa6a6bc311b9a642689fb9df59a9560209561ffff956115e96119489a6001600160a01b03978e611921565b60405162461bcd60e51b815260206004820152602660248201527f4f4654436f72653a205f61646170746572506172616d73206d7573742062652060448201526532b6b83a3c9760d11b6064820152608490fd5b346103c05760003660031901126103c05760206001600160a01b03600e5416604051908152f35b346103c05760003660031901126103c057602060405160ff7f0000000000000000000000000000000000000000000000000000000000000000168152f35b346103c05760403660031901126103c057602061147b600435611abd816103b4565b61ffff60243591611acd836103b4565b166000526002835260406000209061ffff16600052602052604060002090565b346103c05760003660031901126103c05760206001600160a01b0360005416604051908152f35b346103c05760003660031901126103c05760206001600160a01b0360045416604051908152f35b346103c05760008060031936011261073c576040519080600c54611b5e81611698565b808552916001918083169081156107125750600114611b87576106b3856106a781870382610a6c565b9250600c83527fdf6966c971051c3d54ec59162606531493a51404a002842f56009d7e5cf4a8c75b828410611bca5750505081016020016106a7826106b3610697565b80546020858701810191909152909301928101611baf565b346103c057602060ff611c2161ffff61145a84611bfe366113af565b9490911660005260078252604060002082604051948386809551938492016105fe565b54166040519015158152f35b346103c05760203660031901126103c05761ffff600435611c4d816103b4565b166000526001602052610fc4611c6d6040600020604051928380926116d2565b805115611c8b576106a781611c856106b39351613d67565b90614c6b565b60405162461bcd60e51b815260206004820152601d60248201527f4c7a4170703a206e6f20747275737465642070617468207265636f72640000006044820152606490fd5b346103c05760403660031901126103c057600435611ced816107dd565b60243590336000526009602052611d1b816040600020906001600160a01b0316600052602052604060002090565b5491808310611d3c57611d3092039033612af8565b60405160018152602090f35b60405162461bcd60e51b815260206004820152602560248201527f45524332303a2064656372656173656420616c6c6f77616e63652062656c6f77604482015264207a65726f60d81b6064820152608490fd5b346103c05760e03660031901126103c057600435611dac816103b4565b6001600160401b03906064358281116103c057611dcd9036906004016103c5565b611dd89291926103f2565b60a43591611de583610dd4565b60c4359586116103c057611e00611e109636906004016103c5565b9590946044359060243590613fa1565b60408051928352602083019190915290f35b346103c057611e3036610f54565b90611e39612881565b60405192602092808385870137611e656034868381013060601b88820152036014810188520186610a6c565b60009361ffff8316855260019081815260408620918751916001600160401b038311610a3157611e9f83611e998654611698565b86613d13565b80601f8411600114611f0f575091808092611efe9695948a9b7f8c0400cfe2d1199b1a725c78960bcc2a344d869b80590d0f2bd005db15a572ce9b94611f04575b50501b916000199060031b1c19161790555b60405193849384613cf8565b0390a180f35b015192503880611ee0565b91939498601f198416611f2787600052602060002090565b938a905b828210611f8e575050917f8c0400cfe2d1199b1a725c78960bcc2a344d869b80590d0f2bd005db15a572ce999a95939185611efe98969410611f75575b505050811b019055611ef2565b015160001960f88460031b161c19169055388080611f68565b808886978294978701518155019601940190611f2b565b346103c05760403660031901126103c057610832600435611fc5816107dd565b60243590336129db565b346103c05760003660031901126103c05760206040516001600160a01b037f0000000000000000000000000000000000000000000000000000000000000000168152f35b346103c05760203660031901126103c0577f5db758e995a17ec1ad84bdef7e8c3293a0bd6179bcce400dff5d4c3d87db726b60206001600160a01b0360043561205b816107dd565b612063612881565b16806bffffffffffffffffffffffff60a01b6004541617600455604051908152a1005b346103c05760003660031901126103c05760206040516127108152f35b346103c05760803660031901126103c0576004356120c0816103b4565b6024356120cc816103b4565b6064356001600160401b0381116103c0576120eb9036906004016103c5565b90926120f5612881565b6001600160a01b037f00000000000000000000000000000000000000000000000000000000000000001690813b156103c0576000809461216c604051978896879586946332fb62e760e21b865261ffff80921660048701521660248501526044356044850152608060648501526084840191612cc9565b03925af180156107d457610c6f57005b61218536610408565b9161ffff869492961660005260056020526121cc81604060002060206040518092878b833787820190815203019020906001600160401b0316600052602052604060002090565b5491821561228e5761227d84836122767fc264d91f3adc5588250e1551f547752ca0cfa8f6b530d243b9f9f4cab10ea8e59a60006122628461224a8e8a8f6122899f908f612230906122236122449436908d610ac8565b6020815191012014613ee2565b61ffff166000526005602052604060002090565b91613ec9565b906001600160401b0316600052602052604060002090565b5561226e36878d610ac8565b933691610ac8565b91886141d9565b60405195869586613f38565b0390a1005b60405162461bcd60e51b815260206004820152602360248201527f4e6f6e626c6f636b696e674c7a4170703a206e6f2073746f726564206d65737360448201526261676560e81b6064820152608490fd5b346103c05760403660031901126103c057602061147b600435612301816107dd565b6001600160a01b0360243591612316836107dd565b16600052600983526040600020906001600160a01b0316600052602052604060002090565b346103c05760003660031901126103c05760206001600160a01b03600d5416604051908152f35b346103c05760603660031901126103c05760043561237f816103b4565b60243561238b816103b4565b60443591612397612881565b8215612412576122897f9d5c7c0b934da8fefa9c7760c98383778a12dfbfc0c3b3106518f43fb9508ac09361ffff83166000526002602052806123ec8560406000209061ffff16600052602052604060002090565b556040519384938460409194939294606082019561ffff80921683521660208201520152565b60405162461bcd60e51b815260206004820152601560248201527f4c7a4170703a20696e76616c6964206d696e47617300000000000000000000006044820152606490fd5b346103c05760003660031901126103c057602060405160018152f35b346103c05760203660031901126103c0577f1584ad594a70cbe1e6515592e1272a987d922b097ead875069cebe8b40c004a460206004356124b381610dd4565b6124bb612881565b151560ff196006541660ff821617600655604051908152a1005b346103c0576101003660031901126103c0576004356124f3816103b4565b6001600160401b03906024358281116103c0576125149036906004016103c5565b91906044359084821682036103c05760843561252f816107dd565b60c4359586116103c05761254a6100199636906004016103c5565b94909360e4359660a4359460643593614097565b346103c05761256c36610f54565b9190612576612881565b60009161ffff81168352600160209080825260408520916001600160401b038711610a31576125af876125a98554611698565b85613d13565b8590601f88116001146126165750918680879893611efe957ffa41487ad5d6728f0b19276fa1eddc16558578f5109fc39d2dc33c3230470dab999361260b575b501b906000198460031b1c191617905560405193849384613cf8565b8801359250386125ef565b90601f19881661262b85600052602060002090565b9288905b828210612691575050918893917ffa41487ad5d6728f0b19276fa1eddc16558578f5109fc39d2dc33c3230470dab9899611efe969410612677575b505082811b019055611ef2565b870135600019600386901b60f8161c19169055388061266a565b808685968294968c0135815501950193019061262f565b346103c05760003660031901126103c057602060ff600654166040519015158152f35b346103c05760203660031901126103c0576004356126e8816107dd565b6126f0612881565b6001600160a01b03809116801561273e57600080546001600160a01b03198116831782559092167f8be0079c531659141344cd1fd0a4f28419497f9722a3daafe3b4186f6b6457e08380a380f35b60405162461bcd60e51b815260206004820152602660248201527f4f776e61626c653a206e6577206f776e657220697320746865207a65726f206160448201526564647265737360d01b6064820152608490fd5b346103c05760803660031901126103c0576004356127af816103b4565b602435906127bc826103b4565b6127c76044356107dd565b604051633d7b2f6f60e21b815261ffff91821660048201529116602482015230604482015260648035908201526000816084817f00000000000000000000000000000000000000000000000000000000000000006001600160a01b03165afa80156107d4576106b391600091612845575b5060405191829182610646565b612860913d8091833e6128588183610a6c565b810190613cd3565b38612838565b346103c05760003660031901126103c0576020604051308152f35b6001600160a01b0360005416330361289557565b606460405162461bcd60e51b815260206004820152602060248201527f4f776e61626c653a2063616c6c6572206973206e6f7420746865206f776e65726044820152fd5b906128e49133612af8565b600190565b634e487b7160e01b600052601160045260246000fd5b90601f8201809211610f4f57565b6051019081605111610f4f57565b91908201809211610f4f57565b1561292f57565b60405162461bcd60e51b815260206004820152602360248201527f45524332303a207472616e7366657220746f20746865207a65726f206164647260448201526265737360e81b6064820152608490fd5b1561298757565b60405162461bcd60e51b815260206004820152602660248201527f45524332303a207472616e7366657220616d6f756e7420657863656564732062604482015265616c616e636560d01b6064820152608490fd5b91906001600160a01b0390818416928315612aa557612a8a827fddf252ad1be2c89b69c2b068fc378daa952ba7f163c4a11628f55a4df523b3ef94612aa0941696612a27881515612928565b612a7084612a48836001600160a01b03166000526008602052604060002090565b54612a5582821015612980565b03916001600160a01b03166000526008602052604060002090565b556001600160a01b03166000526008602052604060002090565b8054820190556040519081529081906020820190565b0390a3565b60405162461bcd60e51b815260206004820152602560248201527f45524332303a207472616e736665722066726f6d20746865207a65726f206164604482015264647265737360d81b6064820152608490fd5b906001600160a01b0391828116928315612bd4578216938415612b845780612b737f8c5be1e5ebec7d5bd14f71427d1e84f3dd0314c0f7b2291e5b200ac8c7c3b92594612b5b612aa0956001600160a01b03166000526009602052604060002090565b906001600160a01b0316600052602052604060002090565b556040519081529081906020820190565b60405162461bcd60e51b815260206004820152602260248201527f45524332303a20617070726f766520746f20746865207a65726f206164647265604482015261737360f01b6064820152608490fd5b60405162461bcd60e51b8152602060048201526024808201527f45524332303a20617070726f76652066726f6d20746865207a65726f206164646044820152637265737360e01b6064820152608490fd5b906001600160a01b0382166000526009602052612c59816040600020906001600160a01b0316600052602052604060002090565b549260018401612c695750505050565b808410612c8457612c7b930391612af8565b388080806116ff565b60405162461bcd60e51b815260206004820152601d60248201527f45524332303a20696e73756666696369656e7420616c6c6f77616e63650000006044820152606490fd5b908060209392818452848401376000828201840152601f01601f1916010190565b8035612cf581610dd4565b15158252602081013560208301526040810135612d1181610dd4565b1515604083015261ffff6060820135612d29816103b4565b1660608301526080810135601e19823603018112156103c05701602081359101906001600160401b0381116103c05780360382136103c05760a0838160806106579601520191612cc9565b60ff8116036103c057565b35906107fb82612d74565b9190808252602080920192916000905b828210612da8575050505090565b9091929380612dc2600192612dbc88610dde565b15159052565b612dd8612dd0848801610dde565b151582850152565b612df76040612de88189016107fd565b6001600160a01b031690830152565b612e0f6060612e07818901610dde565b151590830152565b612e1f6080612de88189016107fd565b612e2f60a0612de88189016107fd565b60c0808701359082015260e08087013590820152612e5d610100612e54818901612d7f565b60ff1690830152565b61012086810135908201526101408087013590820152610160908101950193920190612d9a565b9894939095979196986001600160a01b0398898098169a604051988993602085016103049052169a8b978860408601528d60608601528d6080860152803560a0860152816020820135612ed6816107dd565b1660c086015260400135612ee9816107dd565b1660e084015261012093846101008501526101408401612f0891612cea565b90601f1994858584030190850152612f1f92612d8a565b039081018652612f2f9086610a6c565b34933690612f3c92610ac8565b91612f479486613b51565b6040516000815261ffff9091169080602081015b037fd81fc9b8523134ed613870ed029d6170cbb73aa6a6bc311b9a642689fb9df59a91a4565b908160209103126103c05751610657816103b4565b6040513d6000823e3d90fd5b94929060606106579795926130129461030789526001600160a01b0380941660208a0152604089015280358289015260208101356080890152826040820135612fea816107dd565b1660a08901520135612ffb816107dd565b1660c08601526101208060e0870152850190612cea565b92610100818503910152612d8a565b35610657816107dd565b909195969297986001600160a01b0380931699604051916303408e4760e41b8352602083600481887f0000000000000000000000000000000000000000000000000000000000000000165afa9182156107d4578c9385936130f9575b5088359a6130958c85614a05565b50604051998a956130a99560208801612fa2565b03601f19810186526130bb9086610a6c565b169560208792016130cb90613021565b90349336906130d992610ac8565b916130e49486613b51565b60405191825261ffff16908060208101612f5b565b6131199060203d8111613120575b6131118183610a6c565b810190612f81565b5038613087565b503d613107565b51906107fb826107dd565b51906107fb82610dd4565b81601f820112156103c057805161315381610aad565b926131616040519485610a6c565b818452602082840101116103c05761065791602080850191016105fe565b91909160a0818403126103c057604051906001600160401b039060a0830182811184821017610a3157604052829481516131b881610dd4565b84526020820151602085015260408201516131d281610dd4565b604085015260608201516131e5816103b4565b606085015260808201519283116103c057608092613203920161313d565b910152565b51906107fb82612d74565b81601f820112156103c0578051906001600160401b038211610a31576040805193602091613246838660051b0187610a6c565b8486528286019183610160809702860101948186116103c0578401925b858410613274575050505050505090565b86848303126103c057848791613288610a8d565b61329187613132565b815261329e838801613132565b838201526132ad868801613127565b8682015260606132be818901613132565b9082015260806132cf818901613127565b9082015260a06132e0818901613127565b9082015260c0808801519082015260e08088015190820152610100613306818901613208565b9082015261012080880151908201526101408088015190820152815201930192613263565b9190918083039061012082126103c0578051613346816103b4565b936020820151613355816107dd565b936080604084015194605f1901126103c05760405161337381610a36565b606084015181526080840151602082015260a0840151613392816107dd565b604082015260c08401516133a5816107dd565b60608201529260e0810151926001600160401b03938481116103c057816133cd91840161317f565b936101008301519081116103c0576106579201613213565b90610657949361ffff6080946001600160a01b0393151585521660208401521660408201528160608201520190610621565b939190610657969593916001600160a01b0380921686521660208501526040840152606083015260016080830152600160a0830152151560c0820152610100908160e08201520190610621565b9182820361012081126103c057835161347c816103b4565b93602081015161348b816107dd565b93604082015161349a816107dd565b9360608084015194607f1901126103c0576040516134b781610a51565b6080840151815260a08401516134cc816107dd565b602082015260c08401516134df816107dd565b60408201529260e0810151926001600160401b03938481116103c057816133cd91840161317f565b908160209103126103c05751610657816107dd565b908160209103126103c0575190565b9692610120989461ffff9161358297939d9c9b9d9894986001600160a01b03998a8092168c521660208b015260408a0152166060880152608087015260a086015260c08501526101408060e0860152840190610621565b95166101008201520152565b80518210156135a25760209160051b010190565b634e487b7160e01b600052603260045260246000fd5b60009060033d116135c557565b905060046000803e60005160e01c90565b600060443d1061065757604051600319913d83016004833e81516001600160401b03918282113d6024840111176136335781840194855193841161363b573d85010160208487010111613633575061065792910160200190610a6c565b949350505050565b50949350505050565b60005b8151811015613a9b57613667606061365f838561358e565b510151151590565b15613816576040613691610bfc610bfc83613682868861358e565b5101516001600160a01b031690565b906136a16080613682858761358e565b6136b060a0613682868861358e565b9260c06136bd868861358e565b51015160e06136cc878961358e565b510151906136e96101006136e0898b61358e565b51015160ff1690565b936101206136f7898b61358e565b5101516101406137078a8c61358e565b51015190853b156103c057875196879586956301da8bf160e41b875260049b8c88019661376b979360ff929897969360c0969260e087019a6001600160a01b0380921688521660208701526040860152606085015216608083015260a08201520152565b03815a6000948591f19081613803575b506137f95760019161378b6135b8565b6308c379a0146137a6575b50506107d4576001905b01613647565b6137ae6135d6565b90816137bb575b50613796565b6000935090916137d76137d3602061365f888a61358e565b1590565b156137b5575162461bcd60e51b81529182916137f591908301610646565b0390fd5b50506001906137a0565b80610c7c61381092610a1e565b3861377b565b61382a613823828461358e565b5151151590565b15613995576040613845610bfc610bfc83613682868861358e565b906138556080613682858761358e565b9161386560a0613682868861358e565b60e0613871868861358e565b510151916138856101006136e0888a61358e565b90610120613893888a61358e565b510151936101406138a4898b61358e565b510151823b156103c057865163aba0784760e01b81526001600160a01b03988916600480830191909152989095166024860152604485019190915260ff9092166064840152608483019390935260a482015290600090829081838160c4810103925af19081613982575b506137f95760019161391e6135b8565b6308c379a014613937575b50506107d4576001906137a0565b61393f6135d6565b908161394c575b50613929565b6000935090916139646137d3602061365f888a61358e565b15613946575162461bcd60e51b81529182916137f591908301610646565b80610c7c61398f92610a1e565b3861390e565b60406139ab610bfc610bfc83613682868861358e565b906139bb6080613682858761358e565b6139ca60a0613682868861358e565b9260c06139d7868861358e565b51015160e06139e6878961358e565b510151906139fa6101006136e0898b61358e565b93610120613a08898b61358e565b510151610140613a188a8c61358e565b51015190853b156103c0578751968795869563d505accf60e01b875260049b8c880196613a7c979360ff929897969360c0969260e087019a6001600160a01b0380921688521660208701526040860152606085015216608083015260a08201520152565b03815a6000948591f1908161398257506137f95760019161391e6135b8565b5050565b15613aa657565b60405162461bcd60e51b815260206004820152602660248201527f4c7a4170703a20696e76616c696420736f757263652073656e64696e6720636f6044820152651b9d1c9858dd60d21b6064820152608490fd5b92613b1f61065797959361ffff613b2d9416865260c0602087015260c0860190610621565b908482036040860152610621565b936001600160a01b03809216606084015216608082015260a0818403910152610621565b94613b7a9193929561ffff81166000526001602052613b816040600020604051948580926116d2565b0384610a6c565b825115613c0657613b93855182613c64565b6001600160a01b037f00000000000000000000000000000000000000000000000000000000000000001693843b156103c057600096613be891604051998a988997889662c5803160e81b885260048801613afa565b03925af180156107d457613bf95750565b80610c7c6107fb92610a1e565b60405162461bcd60e51b815260206004820152603060248201527f4c7a4170703a2064657374696e6174696f6e20636861696e206973206e6f742060448201526f61207472757374656420736f7572636560801b6064820152608490fd5b61ffff166000526003602052604060002054908115613cc9575b11613c8557565b606460405162461bcd60e51b815260206004820152602060248201527f4c7a4170703a207061796c6f61642073697a6520697320746f6f206c617267656044820152fd5b6127109150613c7e565b906020828203126103c05781516001600160401b0381116103c057610657920161313d565b60409061ffff61065795931681528160208201520191612cc9565b90601f8111613d2157505050565b600091825260208220906020601f850160051c83019410613d5d575b601f0160051c01915b828110613d5257505050565b818155600101613d46565b9092508290613d3d565b601319810191908211610f4f57565b605019810191908211610f4f57565b929091613df75a604051633356ae4560e11b602082015261ffff871660248201526080604482015290613df182613de3613dc260a483018a610621565b6001600160401b038816606484015282810360231901608484015288610621565b03601f198101845283610a6c565b30614e22565b939015613e06575b5050505050565b613e0f94613e19565b3880808080613dff565b9193613eb67fe183f33de2837795525b4792ca4cd60535bd77c53b7e7030060bfcf5734d6b0c95613ec4939561ffff81516020830120961695866000526005602052613e7d8361145a60208b604060002082604051948386809551938492016105fe565b556001600160401b03613ea2604051988998895260a060208a015260a0890190610621565b921660408701528582036060870152610621565b908382036080850152610621565b0390a1565b6020919283604051948593843782019081520301902090565b15613ee957565b60405162461bcd60e51b815260206004820152602160248201527f4e6f6e626c6f636b696e674c7a4170703a20696e76616c6964207061796c6f616044820152601960fa1b6064820152608490fd5b91613f649060609461ffff6001600160401b039499989799168552608060208601526080850191612cc9565b951660408201520152565b903590601e19813603018212156103c057018035906001600160401b0382116103c0576020019181360383136103c057565b949195989790611948613fca604099613fc2613fd097613fed993691610ac8565b943691610ac8565b9761475d565b928451968794859463040a7bb160e41b8652309060048701614194565b03816001600160a01b037f0000000000000000000000000000000000000000000000000000000000000000165afa9182156107d457600090819361403057509190565b905061046991925060403d8111610eea57610edb8183610a6c565b939694916140799061065799979461ffff6001600160401b039416875260c0602088015260c0870191612cc9565b961660408401526060830152608082015260a0818503910152612cc9565b91969792989594939094303303614139576140bb6001600160a01b03918630614bb7565b941692836040517fbf551ec93859b170f9b2141bd9298bf3f64322c6f7beb2543a0cb669834118bf61ffff861691806140f98a829190602083019252565b0390a3833b156103c0576000988995614129936040519c8d9b8c9a8b98633fe79aed60e11b8a5260048a0161404b565b0393f180156107d457613bf95750565b60405162461bcd60e51b815260206004820152601f60248201527f4f4654436f72653a2063616c6c6572206d757374206265204f4654436f7265006044820152606490fd5b91908260409103126103c0576020825192015190565b91926001600160a01b03610657969461ffff6141c49416855216602084015260a0604084015260a0830190610621565b92151560608201526080818403910152610621565b92919060ff6141e784614dc7565b16806143725750505060ff6141fb82614dc7565b161580614367575b61420c90614861565b61421e61421882614d6f565b91614e12565b9181926001600160a01b038093161561435d575b614266906001600160401b037f000000000000000000000000000000000000000000000000000000000000000091166147e4565b918316928315614318577fbf551ec93859b170f9b2141bd9298bf3f64322c6f7beb2543a0cb669834118bf916142c661ffff926142ad6142a887600a5461291b565b600a55565b6001600160a01b03166000526008602052604060002090565b8481540190558460007fddf252ad1be2c89b69c2b068fc378daa952ba7f163c4a11628f55a4df523b3ef6040518061430389829190602083019252565b0390a360405193845216918060208101612aa0565b60405162461bcd60e51b815260206004820152601f60248201527f45524332303a206d696e7420746f20746865207a65726f2061646472657373006044820152606490fd5b61dead9350614232565b508051602914614203565b600103614382576107fb936144a2565b60405162461bcd60e51b815260206004820152601c60248201527f4f4654436f72653a20756e6b6e6f776e207061636b65742074797065000000006044820152606490fd5b156143ce57565b60405162461bcd60e51b815260206004820152601960248201527f4f4654436f72653a20616d6f756e7420746f6f20736d616c6c000000000000006044820152606490fd5b989796929394614472956001600160401b0361444e60e099958d61ffff6001600160a01b03971690528d610100908160208201520190610621565b961660408c015260608b015216608089015260a088015286820360c0880152610621565b930152565b6001600160401b0361449760409396959496606084526060840190610621565b951660208201520152565b90916144ad8461491b565b90916144de6144d78761224a6144d18b61ffff166000526007602052604060002090565b8c6113f7565b5460ff1690565b916145146001600160401b0392837f000000000000000000000000000000000000000000000000000000000000000091166147e4565b9288888b8315614610575b505050853b156145c557946145669694613df1948a94613de3948d996000146145be5750505a925b5a978b6040519a8b9863757fea4d60e11b60208b015260248a01614413565b90156145b35750906145ae61ffff928560207fb8890edbfc1c74692f527444645f95489c3703cc2df42e4a366f5d06fa6cd88496975191012090604051948594169684614477565b0390a2565b926107fb9492613e19565b1692614547565b50506040516001600160a01b039094168452507f9aedf5fdba8716db3b6705ca00150643309995d4f818a249ed6dde6677e7792d975091955085945050602084019250613ec4915050565b9061224a6146459261463f8961462a614652979b30614b41565b9961ffff166000526007602052604060002090565b906113f7565b805460ff19166001179055565b88888b61451f565b60065460ff16156146a757602282511061194f5761ffff60226107fb9301519116600052600260205261469a604060002060008052602052604060002090565b549061191a8215156146af565b50516119e257565b156146b657565b60405162461bcd60e51b815260206004820152601a60248201527f4c7a4170703a206d696e4761734c696d6974206e6f74207365740000000000006044820152606490fd5b1561470257565b60405162461bcd60e51b815260206004820152601b60248201527f4c7a4170703a20676173206c696d697420697320746f6f206c6f7700000000006044820152606490fd5b634e487b7160e01b600052601260045260246000fd5b7f00000000000000000000000000000000000000000000000000000000000000009081156147df57046001600160401b039081811161479a571690565b60405162461bcd60e51b815260206004820152601a60248201527f4f4654436f72653a20616d6f756e745344206f766572666c6f770000000000006044820152606490fd5b614747565b81810292918115918404141715610f4f57565b7f000000000000000000000000000000000000000000000000000000000000000080156147df57810690818103908111610f4f5791565b90604051916000602084015260218301526001600160401b0360c01b9060c01b1660418201526029815261065781610a51565b1561486857565b60405162461bcd60e51b815260206004820152601860248201527f4f4654436f72653a20696e76616c6964207061796c6f616400000000000000006044820152606490fd5b9392607192610657946001600160a01b03604051978895600160f81b602088015260218701526001600160401b0360c01b809460c01b16604187015216604985015260c01b16606983015261490b81518092602086860191016105fe565b8101036051810184520182610a6c565b90614933600160ff61492c85614dc7565b1614614861565b61493c82614d6f565b9061494683614e12565b9060498451106149c057604984015193605181511061497b576149786051820151916149728151613d76565b90614ceb565b91565b60405162461bcd60e51b815260206004820152601460248201527f746f55696e7436345f6f75744f66426f756e64730000000000000000000000006044820152606490fd5b60405162461bcd60e51b815260206004820152601560248201527f746f427974657333325f6f75744f66426f756e647300000000000000000000006044820152606490fd5b6001600160a01b038116338103614ada575b8015614a8b5781614a4e84614a416000956001600160a01b03166000526008602052604060002090565b54612a5582821015614aea565b55614a5c83600a5403600a55565b6040518381527fddf252ad1be2c89b69c2b068fc378daa952ba7f163c4a11628f55a4df523b3ef90602090a390565b60405162461bcd60e51b815260206004820152602160248201527f45524332303a206275726e2066726f6d20746865207a65726f206164647265736044820152607360f81b6064820152608490fd5b614ae5833384612c25565b614a17565b15614af157565b60405162461bcd60e51b815260206004820152602260248201527f45524332303a206275726e20616d6f756e7420657863656564732062616c616e604482015261636560f01b6064820152608490fd5b906001600160a01b03821691821561431857600a5490828201809211610f4f57600092614ba86020927fddf252ad1be2c89b69c2b068fc378daa952ba7f163c4a11628f55a4df523b3ef94600a556001600160a01b03166000526008602052604060002090565b818154019055604051908152a3565b6106579183916001600160a01b038116308114159081614be3575b50156129db57610db3833383612c25565b905033141538614bd2565b15614bf557565b60405162461bcd60e51b815260206004820152600e60248201526d736c6963655f6f766572666c6f7760901b6044820152606490fd5b15614c3257565b60405162461bcd60e51b8152602060048201526011602482015270736c6963655f6f75744f66426f756e647360781b6044820152606490fd5b614c7f82614c78816128ff565b1015614bee565b614c8c8282511015614c2b565b81614ca4575050604051600081526020810160405290565b60405191601f811691821560051b808486010193838501920101905b808410614cd85750508252601f01601f191660405290565b9092835181526020809101930190614cc0565b614cf882614c78816128ff565b614d0d8151614d068461290d565b1115614c2b565b81614d25575050604051600081526020810160405290565b60405191601f8116916051831560051b80858701019484860193010101905b808410614d5c5750508252601f01601f191660405290565b9092835181526020809101930190614d44565b6021815110614d8257602d015160601c90565b60405162461bcd60e51b815260206004820152601560248201527f746f416464726573735f6f75744f66426f756e647300000000000000000000006044820152606490fd5b6001815110614dd7576001015190565b60405162461bcd60e51b8152602060048201526013602482015272746f55696e74385f6f75744f66426f756e647360681b6044820152606490fd5b602981511061497b576029015190565b6040519392909160009160c08601916001600160401b03831187841017610a315783926040526096875282602088019560a036883760208451940192f1903d9060968211614e76575b6000908286523e9190565b60969150614e6b56fea264697066735822122045edbc1bb93e05121a29f6f7c8ce8a72013afacd04c5e31c7ddc8eb4638eb30d64736f6c63430008120033",
  "linkReferences": {},
  "deployedLinkReferences": {}
}