{
  "_format": "hh-sol-artifact-1",
  "contractName": "BaseTOFTOptionsModule",
  "sourceName": "contracts/tOFT/modules/BaseTOFTOptionsModule.sol",
  "abi": [
    {
      "inputs": [
        {
          "internalType": "address",
          "name": "_lzEndpoint",
          "type": "address"
        },
        {
          "internalType": "address",
          "name": "_erc20",
          "type": "address"
        },
        {
          "internalType": "contract IYieldBoxBase",
          "name": "_yieldBox",
          "type": "address"
        },
        {
          "internalType": "contract ICluster",
          "name": "_cluster",
          "type": "address"
        },
        {
          "internalType": "string",
          "name": "_name",
          "type": "string"
        },
        {
          "internalType": "string",
          "name": "_symbol",
          "type": "string"
        },
        {
          "internalType": "uint8",
          "name": "_decimal",
          "type": "uint8"
        },
        {
          "internalType": "uint256",
          "name": "_hostChainID",
          "type": "uint256"
        }
      ],
      "stateMutability": "nonpayable",
      "type": "constructor"
    },
    {
      "anonymous": false,
      "inputs": [
        {
          "indexed": true,
          "internalType": "address",
          "name": "owner",
          "type": "address"
        },
        {
          "indexed": true,
          "internalType": "address",
          "name": "spender",
          "type": "address"
        },
        {
          "indexed": false,
          "internalType": "uint256",
          "name": "value",
          "type": "uint256"
        }
      ],
      "name": "Approval",
      "type": "event"
    },
    {
      "anonymous": false,
      "inputs": [
        {
          "indexed": true,
          "internalType": "uint16",
          "name": "_srcChainId",
          "type": "uint16"
        },
        {
          "indexed": false,
          "internalType": "bytes",
          "name": "_srcAddress",
          "type": "bytes"
        },
        {
          "indexed": false,
          "internalType": "uint64",
          "name": "_nonce",
          "type": "uint64"
        },
        {
          "indexed": false,
          "internalType": "bytes32",
          "name": "_hash",
          "type": "bytes32"
        }
      ],
      "name": "CallOFTReceivedSuccess",
      "type": "event"
    },
    {
      "anonymous": false,
      "inputs": [
        {
          "indexed": false,
          "internalType": "uint16",
          "name": "_srcChainId",
          "type": "uint16"
        },
        {
          "indexed": false,
          "internalType": "bytes",
          "name": "_srcAddress",
          "type": "bytes"
        },
        {
          "indexed": false,
          "internalType": "uint64",
          "name": "_nonce",
          "type": "uint64"
        },
        {
          "indexed": false,
          "internalType": "bytes",
          "name": "_payload",
          "type": "bytes"
        },
        {
          "indexed": false,
          "internalType": "bytes",
          "name": "_reason",
          "type": "bytes"
        }
      ],
      "name": "MessageFailed",
      "type": "event"
    },
    {
      "anonymous": false,
      "inputs": [
        {
          "indexed": false,
          "internalType": "address",
          "name": "_address",
          "type": "address"
        }
      ],
      "name": "NonContractAddress",
      "type": "event"
    },
    {
      "anonymous": false,
      "inputs": [
        {
          "indexed": true,
          "internalType": "address",
          "name": "previousOwner",
          "type": "address"
        },
        {
          "indexed": true,
          "internalType": "address",
          "name": "newOwner",
          "type": "address"
        }
      ],
      "name": "OwnershipTransferred",
      "type": "event"
    },
    {
      "anonymous": false,
      "inputs": [
        {
          "indexed": true,
          "internalType": "uint16",
          "name": "_srcChainId",
          "type": "uint16"
        },
        {
          "indexed": true,
          "internalType": "address",
          "name": "_to",
          "type": "address"
        },
        {
          "indexed": false,
          "internalType": "uint256",
          "name": "_amount",
          "type": "uint256"
        }
      ],
      "name": "ReceiveFromChain",
      "type": "event"
    },
    {
      "anonymous": false,
      "inputs": [
        {
          "indexed": false,
          "internalType": "uint16",
          "name": "_srcChainId",
          "type": "uint16"
        },
        {
          "indexed": false,
          "internalType": "bytes",
          "name": "_srcAddress",
          "type": "bytes"
        },
        {
          "indexed": false,
          "internalType": "uint64",
          "name": "_nonce",
          "type": "uint64"
        },
        {
          "indexed": false,
          "internalType": "bytes32",
          "name": "_payloadHash",
          "type": "bytes32"
        }
      ],
      "name": "RetryMessageSuccess",
      "type": "event"
    },
    {
      "anonymous": false,
      "inputs": [
        {
          "indexed": true,
          "internalType": "uint16",
          "name": "_dstChainId",
          "type": "uint16"
        },
        {
          "indexed": true,
          "internalType": "address",
          "name": "_from",
          "type": "address"
        },
        {
          "indexed": true,
          "internalType": "bytes32",
          "name": "_toAddress",
          "type": "bytes32"
        },
        {
          "indexed": false,
          "internalType": "uint256",
          "name": "_amount",
          "type": "uint256"
        }
      ],
      "name": "SendToChain",
      "type": "event"
    },
    {
      "anonymous": false,
      "inputs": [
        {
          "indexed": false,
          "internalType": "uint16",
          "name": "_dstChainId",
          "type": "uint16"
        },
        {
          "indexed": false,
          "internalType": "uint16",
          "name": "_type",
          "type": "uint16"
        },
        {
          "indexed": false,
          "internalType": "uint256",
          "name": "_minDstGas",
          "type": "uint256"
        }
      ],
      "name": "SetMinDstGas",
      "type": "event"
    },
    {
      "anonymous": false,
      "inputs": [
        {
          "indexed": false,
          "internalType": "address",
          "name": "precrime",
          "type": "address"
        }
      ],
      "name": "SetPrecrime",
      "type": "event"
    },
    {
      "anonymous": false,
      "inputs": [
        {
          "indexed": false,
          "internalType": "uint16",
          "name": "_remoteChainId",
          "type": "uint16"
        },
        {
          "indexed": false,
          "internalType": "bytes",
          "name": "_path",
          "type": "bytes"
        }
      ],
      "name": "SetTrustedRemote",
      "type": "event"
    },
    {
      "anonymous": false,
      "inputs": [
        {
          "indexed": false,
          "internalType": "uint16",
          "name": "_remoteChainId",
          "type": "uint16"
        },
        {
          "indexed": false,
          "internalType": "bytes",
          "name": "_remoteAddress",
          "type": "bytes"
        }
      ],
      "name": "SetTrustedRemoteAddress",
      "type": "event"
    },
    {
      "anonymous": false,
      "inputs": [
        {
          "indexed": false,
          "internalType": "bool",
          "name": "_useCustomAdapterParams",
          "type": "bool"
        }
      ],
      "name": "SetUseCustomAdapterParams",
      "type": "event"
    },
    {
      "anonymous": false,
      "inputs": [
        {
          "indexed": true,
          "internalType": "address",
          "name": "from",
          "type": "address"
        },
        {
          "indexed": true,
          "internalType": "address",
          "name": "to",
          "type": "address"
        },
        {
          "indexed": false,
          "internalType": "uint256",
          "name": "value",
          "type": "uint256"
        }
      ],
      "name": "Transfer",
      "type": "event"
    },
    {
      "inputs": [],
      "name": "DEFAULT_PAYLOAD_SIZE_LIMIT",
      "outputs": [
        {
          "internalType": "uint256",
          "name": "",
          "type": "uint256"
        }
      ],
      "stateMutability": "view",
      "type": "function"
    },
    {
      "inputs": [],
      "name": "NO_EXTRA_GAS",
      "outputs": [
        {
          "internalType": "uint256",
          "name": "",
          "type": "uint256"
        }
      ],
      "stateMutability": "view",
      "type": "function"
    },
    {
      "inputs": [],
      "name": "PT_SEND",
      "outputs": [
        {
          "internalType": "uint8",
          "name": "",
          "type": "uint8"
        }
      ],
      "stateMutability": "view",
      "type": "function"
    },
    {
      "inputs": [],
      "name": "PT_SEND_AND_CALL",
      "outputs": [
        {
          "internalType": "uint8",
          "name": "",
          "type": "uint8"
        }
      ],
      "stateMutability": "view",
      "type": "function"
    },
    {
      "inputs": [],
      "name": "SWAP_MAX_SLIPPAGE",
      "outputs": [
        {
          "internalType": "uint256",
          "name": "",
          "type": "uint256"
        }
      ],
      "stateMutability": "view",
      "type": "function"
    },
    {
      "inputs": [
        {
          "internalType": "address",
          "name": "owner",
          "type": "address"
        },
        {
          "internalType": "address",
          "name": "spender",
          "type": "address"
        }
      ],
      "name": "allowance",
      "outputs": [
        {
          "internalType": "uint256",
          "name": "",
          "type": "uint256"
        }
      ],
      "stateMutability": "view",
      "type": "function"
    },
    {
      "inputs": [
        {
          "internalType": "address",
          "name": "spender",
          "type": "address"
        },
        {
          "internalType": "uint256",
          "name": "amount",
          "type": "uint256"
        }
      ],
      "name": "approve",
      "outputs": [
        {
          "internalType": "bool",
          "name": "",
          "type": "bool"
        }
      ],
      "stateMutability": "nonpayable",
      "type": "function"
    },
    {
      "inputs": [
        {
          "internalType": "address",
          "name": "account",
          "type": "address"
        }
      ],
      "name": "balanceOf",
      "outputs": [
        {
          "internalType": "uint256",
          "name": "",
          "type": "uint256"
        }
      ],
      "stateMutability": "view",
      "type": "function"
    },
    {
      "inputs": [
        {
          "internalType": "uint16",
          "name": "_srcChainId",
          "type": "uint16"
        },
        {
          "internalType": "bytes",
          "name": "_srcAddress",
          "type": "bytes"
        },
        {
          "internalType": "uint64",
          "name": "_nonce",
          "type": "uint64"
        },
        {
          "internalType": "bytes32",
          "name": "_from",
          "type": "bytes32"
        },
        {
          "internalType": "address",
          "name": "_to",
          "type": "address"
        },
        {
          "internalType": "uint256",
          "name": "_amount",
          "type": "uint256"
        },
        {
          "internalType": "bytes",
          "name": "_payload",
          "type": "bytes"
        },
        {
          "internalType": "uint256",
          "name": "_gasForCall",
          "type": "uint256"
        }
      ],
      "name": "callOnOFTReceived",
      "outputs": [],
      "stateMutability": "nonpayable",
      "type": "function"
    },
    {
      "inputs": [],
      "name": "circulatingSupply",
      "outputs": [
        {
          "internalType": "uint256",
          "name": "",
          "type": "uint256"
        }
      ],
      "stateMutability": "view",
      "type": "function"
    },
    {
      "inputs": [],
      "name": "cluster",
      "outputs": [
        {
          "internalType": "contract ICluster",
          "name": "",
          "type": "address"
        }
      ],
      "stateMutability": "view",
      "type": "function"
    },
    {
      "inputs": [
        {
          "internalType": "uint16",
          "name": "",
          "type": "uint16"
        },
        {
          "internalType": "bytes",
          "name": "",
          "type": "bytes"
        },
        {
          "internalType": "uint64",
          "name": "",
          "type": "uint64"
        }
      ],
      "name": "creditedPackets",
      "outputs": [
        {
          "internalType": "bool",
          "name": "",
          "type": "bool"
        }
      ],
      "stateMutability": "view",
      "type": "function"
    },
    {
      "inputs": [],
      "name": "decimals",
      "outputs": [
        {
          "internalType": "uint8",
          "name": "",
          "type": "uint8"
        }
      ],
      "stateMutability": "view",
      "type": "function"
    },
    {
      "inputs": [
        {
          "internalType": "address",
          "name": "spender",
          "type": "address"
        },
        {
          "internalType": "uint256",
          "name": "subtractedValue",
          "type": "uint256"
        }
      ],
      "name": "decreaseAllowance",
      "outputs": [
        {
          "internalType": "bool",
          "name": "",
          "type": "bool"
        }
      ],
      "stateMutability": "nonpayable",
      "type": "function"
    },
    {
      "inputs": [],
      "name": "erc20",
      "outputs": [
        {
          "internalType": "address",
          "name": "",
          "type": "address"
        }
      ],
      "stateMutability": "view",
      "type": "function"
    },
    {
      "inputs": [
        {
          "internalType": "uint16",
          "name": "_dstChainId",
          "type": "uint16"
        },
        {
          "internalType": "bytes32",
          "name": "_toAddress",
          "type": "bytes32"
        },
        {
          "internalType": "uint256",
          "name": "_amount",
          "type": "uint256"
        },
        {
          "internalType": "bytes",
          "name": "_payload",
          "type": "bytes"
        },
        {
          "internalType": "uint64",
          "name": "_dstGasForCall",
          "type": "uint64"
        },
        {
          "internalType": "bool",
          "name": "_useZro",
          "type": "bool"
        },
        {
          "internalType": "bytes",
          "name": "_adapterParams",
          "type": "bytes"
        }
      ],
      "name": "estimateSendAndCallFee",
      "outputs": [
        {
          "internalType": "uint256",
          "name": "nativeFee",
          "type": "uint256"
        },
        {
          "internalType": "uint256",
          "name": "zroFee",
          "type": "uint256"
        }
      ],
      "stateMutability": "view",
      "type": "function"
    },
    {
      "inputs": [
        {
          "internalType": "uint16",
          "name": "_dstChainId",
          "type": "uint16"
        },
        {
          "internalType": "bytes32",
          "name": "_toAddress",
          "type": "bytes32"
        },
        {
          "internalType": "uint256",
          "name": "_amount",
          "type": "uint256"
        },
        {
          "internalType": "bool",
          "name": "_useZro",
          "type": "bool"
        },
        {
          "internalType": "bytes",
          "name": "_adapterParams",
          "type": "bytes"
        }
      ],
      "name": "estimateSendFee",
      "outputs": [
        {
          "internalType": "uint256",
          "name": "nativeFee",
          "type": "uint256"
        },
        {
          "internalType": "uint256",
          "name": "zroFee",
          "type": "uint256"
        }
      ],
      "stateMutability": "view",
      "type": "function"
    },
    {
      "inputs": [
        {
          "internalType": "address",
          "name": "module",
          "type": "address"
        },
        {
          "internalType": "uint16",
          "name": "_srcChainId",
          "type": "uint16"
        },
        {
          "internalType": "bytes",
          "name": "_srcAddress",
          "type": "bytes"
        },
        {
          "internalType": "uint64",
          "name": "_nonce",
          "type": "uint64"
        },
        {
          "internalType": "bytes",
          "name": "_payload",
          "type": "bytes"
        }
      ],
      "name": "exercise",
      "outputs": [],
      "stateMutability": "nonpayable",
      "type": "function"
    },
    {
      "inputs": [
        {
          "internalType": "address",
          "name": "from",
          "type": "address"
        },
        {
          "internalType": "uint256",
          "name": "oTAPTokenID",
          "type": "uint256"
        },
        {
          "internalType": "address",
          "name": "paymentToken",
          "type": "address"
        },
        {
          "internalType": "uint256",
          "name": "tapAmount",
          "type": "uint256"
        },
        {
          "internalType": "address",
          "name": "target",
          "type": "address"
        },
        {
          "components": [
            {
              "internalType": "bool",
              "name": "withdrawOnAnotherChain",
              "type": "bool"
            },
            {
              "internalType": "address",
              "name": "tapOftAddress",
              "type": "address"
            },
            {
              "internalType": "uint16",
              "name": "lzDstChainId",
              "type": "uint16"
            },
            {
              "internalType": "uint256",
              "name": "amount",
              "type": "uint256"
            },
            {
              "internalType": "address",
              "name": "zroPaymentAddress",
              "type": "address"
            },
            {
              "internalType": "uint256",
              "name": "extraGas",
              "type": "uint256"
            }
          ],
          "internalType": "struct ITapiocaOptionsBrokerCrossChain.IExerciseLZSendTapData",
          "name": "tapSendData",
          "type": "tuple"
        },
        {
          "internalType": "uint256",
          "name": "paymentTokenAmount",
          "type": "uint256"
        },
        {
          "components": [
            {
              "internalType": "bool",
              "name": "permitAll",
              "type": "bool"
            },
            {
              "internalType": "bool",
              "name": "allowFailure",
              "type": "bool"
            },
            {
              "internalType": "bool",
              "name": "approveOnYieldBox",
              "type": "bool"
            },
            {
              "internalType": "uint16",
              "name": "actionType",
              "type": "uint16"
            },
            {
              "internalType": "address",
              "name": "target",
              "type": "address"
            },
            {
              "internalType": "bool",
              "name": "permitBorrow",
              "type": "bool"
            },
            {
              "internalType": "address",
              "name": "owner",
              "type": "address"
            },
            {
              "internalType": "address",
              "name": "spender",
              "type": "address"
            },
            {
              "internalType": "uint256",
              "name": "value",
              "type": "uint256"
            },
            {
              "internalType": "uint256",
              "name": "deadline",
              "type": "uint256"
            },
            {
              "internalType": "uint8",
              "name": "v",
              "type": "uint8"
            },
            {
              "internalType": "bytes32",
              "name": "r",
              "type": "bytes32"
            },
            {
              "internalType": "bytes32",
              "name": "s",
              "type": "bytes32"
            }
          ],
          "internalType": "struct ICommonData.IApproval[]",
          "name": "approvals",
          "type": "tuple[]"
        }
      ],
      "name": "exerciseInternal",
      "outputs": [],
      "stateMutability": "nonpayable",
      "type": "function"
    },
    {
      "inputs": [
        {
          "components": [
            {
              "internalType": "address",
              "name": "from",
              "type": "address"
            },
            {
              "internalType": "address",
              "name": "target",
              "type": "address"
            },
            {
              "internalType": "uint256",
              "name": "paymentTokenAmount",
              "type": "uint256"
            },
            {
              "internalType": "uint256",
              "name": "oTAPTokenID",
              "type": "uint256"
            },
            {
              "internalType": "address",
              "name": "paymentToken",
              "type": "address"
            },
            {
              "internalType": "uint256",
              "name": "tapAmount",
              "type": "uint256"
            }
          ],
          "internalType": "struct ITapiocaOptionsBrokerCrossChain.IExerciseOptionsData",
          "name": "optionsData",
          "type": "tuple"
        },
        {
          "components": [
            {
              "internalType": "uint16",
              "name": "lzDstChainId",
              "type": "uint16"
            },
            {
              "internalType": "address",
              "name": "zroPaymentAddress",
              "type": "address"
            },
            {
              "internalType": "uint256",
              "name": "extraGas",
              "type": "uint256"
            }
          ],
          "internalType": "struct ITapiocaOptionsBrokerCrossChain.IExerciseLZData",
          "name": "lzData",
          "type": "tuple"
        },
        {
          "components": [
            {
              "internalType": "bool",
              "name": "withdrawOnAnotherChain",
              "type": "bool"
            },
            {
              "internalType": "address",
              "name": "tapOftAddress",
              "type": "address"
            },
            {
              "internalType": "uint16",
              "name": "lzDstChainId",
              "type": "uint16"
            },
            {
              "internalType": "uint256",
              "name": "amount",
              "type": "uint256"
            },
            {
              "internalType": "address",
              "name": "zroPaymentAddress",
              "type": "address"
            },
            {
              "internalType": "uint256",
              "name": "extraGas",
              "type": "uint256"
            }
          ],
          "internalType": "struct ITapiocaOptionsBrokerCrossChain.IExerciseLZSendTapData",
          "name": "tapSendData",
          "type": "tuple"
        },
        {
          "components": [
            {
              "internalType": "bool",
              "name": "permitAll",
              "type": "bool"
            },
            {
              "internalType": "bool",
              "name": "allowFailure",
              "type": "bool"
            },
            {
              "internalType": "bool",
              "name": "approveOnYieldBox",
              "type": "bool"
            },
            {
              "internalType": "uint16",
              "name": "actionType",
              "type": "uint16"
            },
            {
              "internalType": "address",
              "name": "target",
              "type": "address"
            },
            {
              "internalType": "bool",
              "name": "permitBorrow",
              "type": "bool"
            },
            {
              "internalType": "address",
              "name": "owner",
              "type": "address"
            },
            {
              "internalType": "address",
              "name": "spender",
              "type": "address"
            },
            {
              "internalType": "uint256",
              "name": "value",
              "type": "uint256"
            },
            {
              "internalType": "uint256",
              "name": "deadline",
              "type": "uint256"
            },
            {
              "internalType": "uint8",
              "name": "v",
              "type": "uint8"
            },
            {
              "internalType": "bytes32",
              "name": "r",
              "type": "bytes32"
            },
            {
              "internalType": "bytes32",
              "name": "s",
              "type": "bytes32"
            }
          ],
          "internalType": "struct ICommonData.IApproval[]",
          "name": "approvals",
          "type": "tuple[]"
        },
        {
          "internalType": "bytes",
          "name": "adapterParams",
          "type": "bytes"
        }
      ],
      "name": "exerciseOption",
      "outputs": [],
      "stateMutability": "payable",
      "type": "function"
    },
    {
      "inputs": [
        {
          "internalType": "uint16",
          "name": "",
          "type": "uint16"
        },
        {
          "internalType": "bytes",
          "name": "",
          "type": "bytes"
        },
        {
          "internalType": "uint64",
          "name": "",
          "type": "uint64"
        }
      ],
      "name": "failedMessages",
      "outputs": [
        {
          "internalType": "bytes32",
          "name": "",
          "type": "bytes32"
        }
      ],
      "stateMutability": "view",
      "type": "function"
    },
    {
      "inputs": [
        {
          "internalType": "uint16",
          "name": "_srcChainId",
          "type": "uint16"
        },
        {
          "internalType": "bytes",
          "name": "_srcAddress",
          "type": "bytes"
        }
      ],
      "name": "forceResumeReceive",
      "outputs": [],
      "stateMutability": "nonpayable",
      "type": "function"
    },
    {
      "inputs": [
        {
          "internalType": "uint16",
          "name": "_version",
          "type": "uint16"
        },
        {
          "internalType": "uint16",
          "name": "_chainId",
          "type": "uint16"
        },
        {
          "internalType": "address",
          "name": "",
          "type": "address"
        },
        {
          "internalType": "uint256",
          "name": "_configType",
          "type": "uint256"
        }
      ],
      "name": "getConfig",
      "outputs": [
        {
          "internalType": "bytes",
          "name": "",
          "type": "bytes"
        }
      ],
      "stateMutability": "view",
      "type": "function"
    },
    {
      "inputs": [
        {
          "internalType": "uint16",
          "name": "_remoteChainId",
          "type": "uint16"
        }
      ],
      "name": "getTrustedRemoteAddress",
      "outputs": [
        {
          "internalType": "bytes",
          "name": "",
          "type": "bytes"
        }
      ],
      "stateMutability": "view",
      "type": "function"
    },
    {
      "inputs": [],
      "name": "hostChainID",
      "outputs": [
        {
          "internalType": "uint256",
          "name": "",
          "type": "uint256"
        }
      ],
      "stateMutability": "view",
      "type": "function"
    },
    {
      "inputs": [
        {
          "internalType": "address",
          "name": "spender",
          "type": "address"
        },
        {
          "internalType": "uint256",
          "name": "addedValue",
          "type": "uint256"
        }
      ],
      "name": "increaseAllowance",
      "outputs": [
        {
          "internalType": "bool",
          "name": "",
          "type": "bool"
        }
      ],
      "stateMutability": "nonpayable",
      "type": "function"
    },
    {
      "inputs": [
        {
          "internalType": "uint16",
          "name": "_srcChainId",
          "type": "uint16"
        },
        {
          "internalType": "bytes",
          "name": "_srcAddress",
          "type": "bytes"
        }
      ],
      "name": "isTrustedRemote",
      "outputs": [
        {
          "internalType": "bool",
          "name": "",
          "type": "bool"
        }
      ],
      "stateMutability": "view",
      "type": "function"
    },
    {
      "inputs": [],
      "name": "lzEndpoint",
      "outputs": [
        {
          "internalType": "contract ILayerZeroEndpoint",
          "name": "",
          "type": "address"
        }
      ],
      "stateMutability": "view",
      "type": "function"
    },
    {
      "inputs": [
        {
          "internalType": "uint16",
          "name": "_srcChainId",
          "type": "uint16"
        },
        {
          "internalType": "bytes",
          "name": "_srcAddress",
          "type": "bytes"
        },
        {
          "internalType": "uint64",
          "name": "_nonce",
          "type": "uint64"
        },
        {
          "internalType": "bytes",
          "name": "_payload",
          "type": "bytes"
        }
      ],
      "name": "lzReceive",
      "outputs": [],
      "stateMutability": "nonpayable",
      "type": "function"
    },
    {
      "inputs": [
        {
          "internalType": "uint16",
          "name": "",
          "type": "uint16"
        },
        {
          "internalType": "uint16",
          "name": "",
          "type": "uint16"
        }
      ],
      "name": "minDstGasLookup",
      "outputs": [
        {
          "internalType": "uint256",
          "name": "",
          "type": "uint256"
        }
      ],
      "stateMutability": "view",
      "type": "function"
    },
    {
      "inputs": [],
      "name": "name",
      "outputs": [
        {
          "internalType": "string",
          "name": "",
          "type": "string"
        }
      ],
      "stateMutability": "view",
      "type": "function"
    },
    {
      "inputs": [
        {
          "internalType": "uint16",
          "name": "_srcChainId",
          "type": "uint16"
        },
        {
          "internalType": "bytes",
          "name": "_srcAddress",
          "type": "bytes"
        },
        {
          "internalType": "uint64",
          "name": "_nonce",
          "type": "uint64"
        },
        {
          "internalType": "bytes",
          "name": "_payload",
          "type": "bytes"
        }
      ],
      "name": "nonblockingLzReceive",
      "outputs": [],
      "stateMutability": "nonpayable",
      "type": "function"
    },
    {
      "inputs": [],
      "name": "owner",
      "outputs": [
        {
          "internalType": "address",
          "name": "",
          "type": "address"
        }
      ],
      "stateMutability": "view",
      "type": "function"
    },
    {
      "inputs": [
        {
          "internalType": "uint16",
          "name": "",
          "type": "uint16"
        }
      ],
      "name": "payloadSizeLimitLookup",
      "outputs": [
        {
          "internalType": "uint256",
          "name": "",
          "type": "uint256"
        }
      ],
      "stateMutability": "view",
      "type": "function"
    },
    {
      "inputs": [],
      "name": "precrime",
      "outputs": [
        {
          "internalType": "address",
          "name": "",
          "type": "address"
        }
      ],
      "stateMutability": "view",
      "type": "function"
    },
    {
      "inputs": [],
      "name": "renounceOwnership",
      "outputs": [],
      "stateMutability": "nonpayable",
      "type": "function"
    },
    {
      "inputs": [
        {
          "internalType": "uint16",
          "name": "_srcChainId",
          "type": "uint16"
        },
        {
          "internalType": "bytes",
          "name": "_srcAddress",
          "type": "bytes"
        },
        {
          "internalType": "uint64",
          "name": "_nonce",
          "type": "uint64"
        },
        {
          "internalType": "bytes",
          "name": "_payload",
          "type": "bytes"
        }
      ],
      "name": "retryMessage",
      "outputs": [],
      "stateMutability": "payable",
      "type": "function"
    },
    {
      "inputs": [
        {
          "internalType": "address",
          "name": "_from",
          "type": "address"
        },
        {
          "internalType": "uint16",
          "name": "_dstChainId",
          "type": "uint16"
        },
        {
          "internalType": "bytes32",
          "name": "_toAddress",
          "type": "bytes32"
        },
        {
          "internalType": "uint256",
          "name": "_amount",
          "type": "uint256"
        },
        {
          "internalType": "bytes",
          "name": "_payload",
          "type": "bytes"
        },
        {
          "internalType": "uint64",
          "name": "_dstGasForCall",
          "type": "uint64"
        },
        {
          "components": [
            {
              "internalType": "address payable",
              "name": "refundAddress",
              "type": "address"
            },
            {
              "internalType": "address",
              "name": "zroPaymentAddress",
              "type": "address"
            },
            {
              "internalType": "bytes",
              "name": "adapterParams",
              "type": "bytes"
            }
          ],
          "internalType": "struct ICommonOFT.LzCallParams",
          "name": "_callParams",
          "type": "tuple"
        }
      ],
      "name": "sendAndCall",
      "outputs": [],
      "stateMutability": "payable",
      "type": "function"
    },
    {
      "inputs": [
        {
          "internalType": "address",
          "name": "_from",
          "type": "address"
        },
        {
          "internalType": "uint16",
          "name": "_dstChainId",
          "type": "uint16"
        },
        {
          "internalType": "bytes32",
          "name": "_toAddress",
          "type": "bytes32"
        },
        {
          "internalType": "uint256",
          "name": "_amount",
          "type": "uint256"
        },
        {
          "components": [
            {
              "internalType": "address payable",
              "name": "refundAddress",
              "type": "address"
            },
            {
              "internalType": "address",
              "name": "zroPaymentAddress",
              "type": "address"
            },
            {
              "internalType": "bytes",
              "name": "adapterParams",
              "type": "bytes"
            }
          ],
          "internalType": "struct ICommonOFT.LzCallParams",
          "name": "_callParams",
          "type": "tuple"
        }
      ],
      "name": "sendFrom",
      "outputs": [],
      "stateMutability": "payable",
      "type": "function"
    },
    {
      "inputs": [
        {
          "internalType": "bytes",
          "name": "_payload",
          "type": "bytes"
        }
      ],
      "name": "sendFromDestination",
      "outputs": [],
      "stateMutability": "nonpayable",
      "type": "function"
    },
    {
      "inputs": [
        {
          "internalType": "uint16",
          "name": "_version",
          "type": "uint16"
        },
        {
          "internalType": "uint16",
          "name": "_chainId",
          "type": "uint16"
        },
        {
          "internalType": "uint256",
          "name": "_configType",
          "type": "uint256"
        },
        {
          "internalType": "bytes",
          "name": "_config",
          "type": "bytes"
        }
      ],
      "name": "setConfig",
      "outputs": [],
      "stateMutability": "nonpayable",
      "type": "function"
    },
    {
      "inputs": [
        {
          "internalType": "uint256",
          "name": "_slippage",
          "type": "uint256"
        }
      ],
      "name": "setMaxSlippage",
      "outputs": [],
      "stateMutability": "nonpayable",
      "type": "function"
    },
    {
      "inputs": [
        {
          "internalType": "uint16",
          "name": "_dstChainId",
          "type": "uint16"
        },
        {
          "internalType": "uint16",
          "name": "_packetType",
          "type": "uint16"
        },
        {
          "internalType": "uint256",
          "name": "_minGas",
          "type": "uint256"
        }
      ],
      "name": "setMinDstGas",
      "outputs": [],
      "stateMutability": "nonpayable",
      "type": "function"
    },
    {
      "inputs": [
        {
          "internalType": "uint16",
          "name": "_dstChainId",
          "type": "uint16"
        },
        {
          "internalType": "uint256",
          "name": "_size",
          "type": "uint256"
        }
      ],
      "name": "setPayloadSizeLimit",
      "outputs": [],
      "stateMutability": "nonpayable",
      "type": "function"
    },
    {
      "inputs": [
        {
          "internalType": "address",
          "name": "_precrime",
          "type": "address"
        }
      ],
      "name": "setPrecrime",
      "outputs": [],
      "stateMutability": "nonpayable",
      "type": "function"
    },
    {
      "inputs": [
        {
          "internalType": "uint16",
          "name": "_version",
          "type": "uint16"
        }
      ],
      "name": "setReceiveVersion",
      "outputs": [],
      "stateMutability": "nonpayable",
      "type": "function"
    },
    {
      "inputs": [
        {
          "internalType": "uint16",
          "name": "_version",
          "type": "uint16"
        }
      ],
      "name": "setSendVersion",
      "outputs": [],
      "stateMutability": "nonpayable",
      "type": "function"
    },
    {
      "inputs": [
        {
          "internalType": "uint16",
          "name": "_srcChainId",
          "type": "uint16"
        },
        {
          "internalType": "bytes",
          "name": "_path",
          "type": "bytes"
        }
      ],
      "name": "setTrustedRemote",
      "outputs": [],
      "stateMutability": "nonpayable",
      "type": "function"
    },
    {
      "inputs": [
        {
          "internalType": "uint16",
          "name": "_remoteChainId",
          "type": "uint16"
        },
        {
          "internalType": "bytes",
          "name": "_remoteAddress",
          "type": "bytes"
        }
      ],
      "name": "setTrustedRemoteAddress",
      "outputs": [],
      "stateMutability": "nonpayable",
      "type": "function"
    },
    {
      "inputs": [
        {
          "internalType": "bool",
          "name": "_useCustomAdapterParams",
          "type": "bool"
        }
      ],
      "name": "setUseCustomAdapterParams",
      "outputs": [],
      "stateMutability": "nonpayable",
      "type": "function"
    },
    {
      "inputs": [],
      "name": "sharedDecimals",
      "outputs": [
        {
          "internalType": "uint8",
          "name": "",
          "type": "uint8"
        }
      ],
      "stateMutability": "view",
      "type": "function"
    },
    {
      "inputs": [
        {
          "internalType": "bytes4",
          "name": "interfaceId",
          "type": "bytes4"
        }
      ],
      "name": "supportsInterface",
      "outputs": [
        {
          "internalType": "bool",
          "name": "",
          "type": "bool"
        }
      ],
      "stateMutability": "view",
      "type": "function"
    },
    {
      "inputs": [],
      "name": "symbol",
      "outputs": [
        {
          "internalType": "string",
          "name": "",
          "type": "string"
        }
      ],
      "stateMutability": "view",
      "type": "function"
    },
    {
      "inputs": [],
      "name": "token",
      "outputs": [
        {
          "internalType": "address",
          "name": "",
          "type": "address"
        }
      ],
      "stateMutability": "view",
      "type": "function"
    },
    {
      "inputs": [],
      "name": "totalSupply",
      "outputs": [
        {
          "internalType": "uint256",
          "name": "",
          "type": "uint256"
        }
      ],
      "stateMutability": "view",
      "type": "function"
    },
    {
      "inputs": [
        {
          "internalType": "address",
          "name": "to",
          "type": "address"
        },
        {
          "internalType": "uint256",
          "name": "amount",
          "type": "uint256"
        }
      ],
      "name": "transfer",
      "outputs": [
        {
          "internalType": "bool",
          "name": "",
          "type": "bool"
        }
      ],
      "stateMutability": "nonpayable",
      "type": "function"
    },
    {
      "inputs": [
        {
          "internalType": "address",
          "name": "from",
          "type": "address"
        },
        {
          "internalType": "address",
          "name": "to",
          "type": "address"
        },
        {
          "internalType": "uint256",
          "name": "amount",
          "type": "uint256"
        }
      ],
      "name": "transferFrom",
      "outputs": [
        {
          "internalType": "bool",
          "name": "",
          "type": "bool"
        }
      ],
      "stateMutability": "nonpayable",
      "type": "function"
    },
    {
      "inputs": [
        {
          "internalType": "address",
          "name": "newOwner",
          "type": "address"
        }
      ],
      "name": "transferOwnership",
      "outputs": [],
      "stateMutability": "nonpayable",
      "type": "function"
    },
    {
      "inputs": [
        {
          "internalType": "uint16",
          "name": "lzDstChainId",
          "type": "uint16"
        },
        {
          "internalType": "bytes",
          "name": "airdropAdapterParams",
          "type": "bytes"
        },
        {
          "internalType": "address",
          "name": "zroPaymentAddress",
          "type": "address"
        },
        {
          "internalType": "uint256",
          "name": "amount",
          "type": "uint256"
        },
        {
          "components": [
            {
              "internalType": "address payable",
              "name": "refundAddress",
              "type": "address"
            },
            {
              "internalType": "address",
              "name": "zroPaymentAddress",
              "type": "address"
            },
            {
              "internalType": "bytes",
              "name": "adapterParams",
              "type": "bytes"
            }
          ],
          "internalType": "struct ISendFrom.LzCallParams",
          "name": "sendFromData",
          "type": "tuple"
        },
        {
          "components": [
            {
              "internalType": "bool",
              "name": "permitAll",
              "type": "bool"
            },
            {
              "internalType": "bool",
              "name": "allowFailure",
              "type": "bool"
            },
            {
              "internalType": "bool",
              "name": "approveOnYieldBox",
              "type": "bool"
            },
            {
              "internalType": "uint16",
              "name": "actionType",
              "type": "uint16"
            },
            {
              "internalType": "address",
              "name": "target",
              "type": "address"
            },
            {
              "internalType": "bool",
              "name": "permitBorrow",
              "type": "bool"
            },
            {
              "internalType": "address",
              "name": "owner",
              "type": "address"
            },
            {
              "internalType": "address",
              "name": "spender",
              "type": "address"
            },
            {
              "internalType": "uint256",
              "name": "value",
              "type": "uint256"
            },
            {
              "internalType": "uint256",
              "name": "deadline",
              "type": "uint256"
            },
            {
              "internalType": "uint8",
              "name": "v",
              "type": "uint8"
            },
            {
              "internalType": "bytes32",
              "name": "r",
              "type": "bytes32"
            },
            {
              "internalType": "bytes32",
              "name": "s",
              "type": "bytes32"
            }
          ],
          "internalType": "struct ICommonData.IApproval[]",
          "name": "approvals",
          "type": "tuple[]"
        }
      ],
      "name": "triggerSendFrom",
      "outputs": [],
      "stateMutability": "payable",
      "type": "function"
    },
    {
      "inputs": [
        {
          "internalType": "uint16",
          "name": "",
          "type": "uint16"
        }
      ],
      "name": "trustedRemoteLookup",
      "outputs": [
        {
          "internalType": "bytes",
          "name": "",
          "type": "bytes"
        }
      ],
      "stateMutability": "view",
      "type": "function"
    },
    {
      "inputs": [],
      "name": "useCustomAdapterParams",
      "outputs": [
        {
          "internalType": "bool",
          "name": "",
          "type": "bool"
        }
      ],
      "stateMutability": "view",
      "type": "function"
    },
    {
      "inputs": [],
      "name": "yieldBox",
      "outputs": [
        {
          "internalType": "contract IYieldBoxBase",
          "name": "",
          "type": "address"
        }
      ],
      "stateMutability": "view",
      "type": "function"
    },
    {
      "stateMutability": "payable",
      "type": "receive"
    }
  ],
  "bytecode": "0x60e060409080825234620005ad576200613f8038038091620000228285620005b2565b8339810161010082820312620005ad576200003d82620005ec565b906020926200004e848201620005ec565b818601516001600160a01b0380821694929091859003620005ad57606084015196828816809803620005ad5760808501516001600160401b039490858111620005ad57816200009f91880162000626565b9060a087015190868211620005ad57620000bb91880162000626565b9160c087015160ff811696878203620005ad5762000116602b60e08f9b01519a5180966a546170696f63614f46542d60a81b87830152620001058151809289868601910162000601565b810103600b810187520185620005b2565b607f8d518096601d60fa1b868301526200013a815180928860218601910162000601565b810103926200015460216001958681018a520188620005b2565b831c16936000958887549d60018060a01b03199e8f33908216178a55823391167f8be0079c531659141344cd1fd0a4f28419497f9722a3daafe3b4186f6b6457e08b80a3166080528560a05281518381116200059957600b54928584811c941680156200058e575b878510146200057a578190601f9485811162000526575b508790858311600114620004c0578a92620004b4575b5050600019600383901b1c191690851b17600b555b8051928311620004a057600c548481811c9116801562000495575b86821014620004815782811162000438575b5084918311600114620003d2579282939183928894620003c6575b50501b916000199060031b1c191617600c555b6012821162000373575060120360ff81116200035f5760ff1690604d82116200034b5750600a0a60c0526101f46013551684600f541617600f5560ff19601154161760115560105581600d541617600d55600e541617600e5551615abd90816200068282396080518181816104cc015281816107ad0152818161098801528181610add01528181610c5701528181610e20015281816121e5015281816123cb01528181612a90015281816133a00152818161472b0152614cf5015260a05181611935015260c0518181816117350152818161211901528181614f220152818161517e0152818161532801526153c00152f35b634e487b7160e01b81526011600452602490fd5b634e487b7160e01b82526011600452602482fd5b6084908b519062461bcd60e51b82526004820152602760248201527f4f46543a20736861726564446563696d616c73206d757374206265203c3d20646044820152666563696d616c7360c81b6064820152fd5b01519250388062000246565b600c8752848720919083601f198116895b888883831062000420575050501062000406575b505050811b01600c5562000259565b015160001960f88460031b161c19169055388080620003f7565b868601518855909601959485019487935001620003e3565b600c88528588208380860160051c82019288871062000477575b0160051c019085905b8281106200046b5750506200022b565b8981550185906200045b565b9250819262000452565b634e487b7160e01b88526022600452602488fd5b90607f169062000219565b634e487b7160e01b87526041600452602487fd5b015190503880620001e9565b600b8b52888b208894509190601f1984168c5b8b8282106200050f5750508411620004f5575b505050811b01600b55620001fe565b015160001960f88460031b161c19169055388080620004e6565b8385015186558b97909501949384019301620004d3565b909150600b8a52878a208580850160051c8201928a861062000570575b918991869594930160051c01915b82811062000561575050620001d3565b8c815585945089910162000551565b9250819262000543565b634e487b7160e01b89526022600452602489fd5b93607f1693620001bc565b634e487b7160e01b88526041600452602488fd5b600080fd5b601f909101601f19168101906001600160401b03821190821017620005d657604052565b634e487b7160e01b600052604160045260246000fd5b51906001600160a01b0382168203620005ad57565b60005b838110620006155750506000910152565b818101518382015260200162000604565b81601f82011215620005ad5780516001600160401b038111620005d657604051926200065d601f8301601f191660200185620005b2565b81845260208284010111620005ad576200067e916020808501910162000601565b9056fe6080604052600436101561001b575b361561001957600080fd5b005b60003560e01c80621d3567146103ef57806254af3a146103ea57806301ffc9a7146103e557806306fdde03146103e057806307e0db17146103db578063095ea7b3146103d65780630a2b2471146103d15780630df37483146103cc57806310ddb137146103c757806318160ddd1461035457806323b872dd146103c2578063313ce567146103bd578063365260b4146103b857806339509351146103b35780633d8b38f6146103ae5780633f1f4fa4146103a957806342d65a8d146103a457806343f68a491461039f578063447705151461039a5780634c42899a1461039a5780635b8c41e61461039557806366ad5c8a14610390578063695ef6bf1461038b57806370a0823114610386578063715018a6146103815780637533d7881461037c57806376203b4814610377578063785e9e861461037257806381618d051461036d578063857749b0146103685780638cfd8f5c146103635780638da5cb5b1461035e5780639106aac2146103595780639358928b14610354578063950c8a741461034f57806395d89b411461034a5780639bdb9812146103455780639f38369a14610340578063a457c2d71461033b578063a4c51df514610336578063a643c52e14610331578063a6c3d1651461032c578063a9059cbb14610327578063af2ee97514610322578063b353aaa71461031d578063baf3292d14610318578063c056a8de14610313578063c44618341461030e578063cbed8b9c14610309578063d1deba1f14610304578063dbd01de1146102ff578063dd62ed3e146102fa578063de406577146102f5578063df2a5b3b146102f0578063e6a20ae6146102eb578063eab45d9c146102e6578063eaffd49a146102e1578063eb8d72b7146102dc578063ed629c5c146102d7578063f2fde38b146102d2578063f5ecbdbc146102cd5763fc0c546a0361000e57612afa565b612a26565b612971565b61294e565b612825565b61279c565b61273a565b61271e565b612631565b612608565b6125be565b612595565b61245d565b612377565b61235a565b612297565b612214565b6121cf565b6120b7565b61208d565b611f2b565b611f0d565b611e76565b611dca565b611d27565b611cdc565b611c38565b611c0f565b610b3e565b611b34565b6119ab565b611959565b61191b565b611602565b6115d9565b611422565b6113cb565b611297565b61125a565b611177565b6110f1565b61109d565b610ea8565b610e87565b610e06565b610dcd565b610d5d565b610cd5565b610bcd565b610b9c565b610b5c565b610ab4565b610a75565b6108d0565b61084b565b610784565b6106a4565b6105f2565b6105d4565b6104b5565b61ffff81160361040057565b600080fd5b3590610410826103f4565b565b9181601f84011215610400578235916001600160401b038311610400576020838186019501011161040057565b6001600160401b0381160361040057565b90608060031983011261040057600435610469816103f4565b916001600160401b0390602435828111610400578161048a91600401610412565b9390939260443561049a8161043f565b92606435918211610400576104b191600401610412565b9091565b34610400576104c336610450565b929493919291907f00000000000000000000000000000000000000000000000000000000000000006001600160a01b031633036105845761054961055192610019976105426105286105238a61ffff166000526001602052604060002090565b6113b0565b805190818414918261057a575b5081610557575b50614634565b3691610fc9565b923691610fc9565b92614a88565b9050610564368486610fc9565b602081519101209060208151910120143861053c565b1515915038610535565b60405162461bcd60e51b815260206004820152601e60248201527f4c7a4170703a20696e76616c696420656e64706f696e742063616c6c657200006044820152606490fd5b600091031261040057565b34610400576000366003190112610400576020601054604051908152f35b346104005760203660031901126104005760043563ffffffff60e01b811680910361040057602090631f7ecdf760e01b8114908115610637575b506040519015158152f35b6301ffc9a760e01b1490503861062c565b60005b83811061065b5750506000910152565b818101518382015260200161064b565b9060209161068481518092818552858086019101610648565b601f01601f1916010190565b9060206106a192818152019061066b565b90565b34610400576000806003193601126107815760405181600b546106c6816112e0565b808452906001908181169081156107595750600114610700575b6106fc846106f081880382610f5e565b60405191829182610690565b0390f35b600b8352602094507f0175b7a638427703f0dbe7bb9bbf987a2551717b34e79f33b5b1008d1fa01db95b82841061074657505050816106fc936106f092820101936106e0565b805485850187015292850192810161072a565b6106fc96506106f09450602092508593915060ff191682840152151560051b820101936106e0565b80fd5b346104005760006020366003190112610781576004356107a3816103f4565b6107ab612b15565b7f00000000000000000000000000000000000000000000000000000000000000006001600160a01b0316908290823b1561081f57602461ffff918360405195869485936307e0db1760e01b85521660048401525af1801561081a5761080e575080f35b61081790610eda565b80f35b612f4d565b5080fd5b6001600160a01b031690565b6001600160a01b0381160361040057565b35906104108261082f565b346104005760403660031901126104005761087560043561086b8161082f565b6024359033612d84565b602060405160018152f35b60609060c31901126104005760c490565b908160609103126104005790565b9181601f84011215610400578235916001600160401b038311610400576020808501946101a0850201011161040057565b60c0366003190112610400576004356108e8816103f4565b6001600160401b0360243581811161040057610908903690600401610412565b90916044356109168161082f565b6084358281116104005761092e903690600401610891565b9160a4359081116104005761094790369060040161089f565b9461095b610956368784610fc9565b614581565b5091505061097361096d6064356153be565b50615326565b6040516303408e4760e41b81526020816004817f00000000000000000000000000000000000000000000000000000000000000006001600160a01b03165afa92831561081a57610a1699610a0d966109f0956109e294600091610a47575b506040519a8b96336020890161309a565b03601f198101865285610f5e565b610a046109fe368784610fc9565b8861486f565b34943691610fc9565b913390866146e7565b6040519033916000805160206159c883398151915261ffff3393169180610a4281906000602083019252565b0390a4005b610a68915060203d8111610a6e575b610a608183610f5e565b810190612f38565b386109d1565b503d610a56565b346104005760403660031901126104005761ffff600435610a95816103f4565b610a9d612b15565b166000526003602052602435604060002055600080f35b34610400576000602036600319011261078157600435610ad3816103f4565b610adb612b15565b7f00000000000000000000000000000000000000000000000000000000000000006001600160a01b0316908290823b1561081f57602461ffff918360405195869485936310ddb13760e01b85521660048401525af1801561081a5761080e575080f35b34610400576000366003190112610400576020600a54604051908152f35b3461040057606036600319011261040057610875600435610b7c8161082f565b602435610b888161082f565b60443591610b97833383612e9d565b612cb5565b3461040057600036600319011261040057602060405160128152f35b8015150361040057565b359061041082610bb8565b346104005760a036600319011261040057600435610bea816103f4565b60643590610bf782610bb8565b608435906001600160401b03821161040057610c1c6105426040933690600401610412565b90610c53610c36610c2e604435615326565b6024356153f5565b928451958694859463040a7bb160e41b8652309060048701614e7f565b03817f00000000000000000000000000000000000000000000000000000000000000006001600160a01b03165afa90811561081a576000908192610ca4575b50604080519182526020820192909252f35b9050610cc7915060403d8111610cce575b610cbf8183610f5e565b810190614e69565b9038610c92565b503d610cb5565b3461040057604036600319011261040057600435610cf28161082f565b336000526009602052610d09816040600020612b87565b546024358101809111610d20576108759133612d84565b612bc3565b90604060031983011261040057600435610d3e816103f4565b91602435906001600160401b038211610400576104b191600401610412565b3461040057602061ffff610daa610d7336610d25565b9390911660005260018452610d95610d9c60406000206040519283809261131a565b0382610f5e565b848151910120923691610fc9565b82815191012014604051908152f35b61ffff166000526007602052604060002090565b346104005760203660031901126104005761ffff600435610ded816103f4565b1660005260036020526020604060002054604051908152f35b3461040057610e1436610d25565b9190610e1e612b15565b7f00000000000000000000000000000000000000000000000000000000000000006001600160a01b031691823b1561040057604051928380926342d65a8d60e01b825281610e756000988997889460048501614a19565b03925af1801561081a5761080e575080f35b3461040057602036600319011261040057610ea0612b15565b600435601355005b3461040057600036600319011261040057602060405160008152f35b634e487b7160e01b600052604160045260246000fd5b6001600160401b038111610eed57604052565b610ec4565b60c081019081106001600160401b03821117610eed57604052565b606081019081106001600160401b03821117610eed57604052565b608081019081106001600160401b03821117610eed57604052565b604081019081106001600160401b03821117610eed57604052565b601f909101601f19168101906001600160401b03821190821017610eed57604052565b604051906101a082016001600160401b03811183821017610eed57604052565b6040519061041082610f0d565b6001600160401b038111610eed57601f01601f191660200190565b929192610fd582610fae565b91610fe36040519384610f5e565b829481845281830111610400578281602093846000960137010152565b9080601f83011215610400578160206106a193359101610fc9565b90606060031983011261040057600435611034816103f4565b91602435906001600160401b0382116104005761105391600401611000565b906044356106a18161043f565b60209061107a928260405194838680955193849201610648565b82019081520301902090565b9060018060401b0316600052602052604060002090565b346104005760206110e861ffff6110da836110b73661101b565b949091166000526005825260406000208260405194838680955193849201610648565b820190815203019020611086565b54604051908152f35b34610400576110ff36610450565b91929493903033036111235761054961111d92610019973691610fc9565b92614ec3565b60405162461bcd60e51b815260206004820152602660248201527f4e6f6e626c6f636b696e674c7a4170703a2063616c6c6572206d7573742062656044820152650204c7a4170760d41b6064820152608490fd5b60a03660031901126104005760043561118f8161082f565b60243561119b816103f4565b604435916084356001600160401b03811161040057602061ffff6111d26000805160206159c8833981519152933690600401610891565b9361124585356111e18161082f565b6111ff61054286890135986111f58a61082f565b6040810190614c73565b611209818a6152c1565b61121e6112176064356153be565b50856155b3565b9761122a891515615078565b61123c6112368a615326565b8c6153f5565b9234938b6146e7565b6040519485526001600160a01b0316941692a4005b34610400576020366003190112610400576004356112778161082f565b60018060a01b031660005260086020526020604060002054604051908152f35b3461040057600080600319360112610781576112b1612b15565b80546001600160a01b03198116825581906001600160a01b0316600080516020615a288339815191528280a380f35b90600182811c92168015611310575b60208310146112fa57565b634e487b7160e01b600052602260045260246000fd5b91607f16916112ef565b906000929180549161132b836112e0565b91828252600193848116908160001461138d575060011461134d575b50505050565b90919394506000526020928360002092846000945b838610611379575050505001019038808080611347565b805485870183015294019385908201611362565b9294505050602093945060ff191683830152151560051b01019038808080611347565b906104106113c4926040519384809261131a565b0383610f5e565b346104005760203660031901126104005761ffff6004356113eb816103f4565b1660005260016020526106fc610d9561140e60406000206040519283809261131a565b60405191829160208352602083019061066b565b60e03660031901126104005760043561143a8161082f565b602435611446816103f4565b604435916001600160401b03906084358281116104005761146b903690600401610412565b91909260a43561147a8161043f565b60c43582811161040057611492903690600401610891565b90866114ca8335966114a38861082f565b6114c26114b86020870135966111f58861082f565b9a90923691610fc9565b983691610fc9565b9360ff6006541660001461153757936020959361123c846115056000805160206159c88339815191529a958561ffff9a611245991691614936565b61151a6115136064356153be565b50886155b3565b9a6115268c1515615078565b8d6115308d615326565b9033615470565b50508293919251611565576000805160206159c88339815191529460209461ffff9461123c61124594611505565b60405162461bcd60e51b815260206004820152602660248201527f4f4654436f72653a205f61646170746572506172616d73206d7573742062652060448201526532b6b83a3c9760d11b6064820152608490fd5b6001600160a01b03169052565b6001600160a01b03909116815260200190565b3461040057600036600319011261040057600f546040516001600160a01b039091168152602090f35b346104005760a03660031901126104005761161e60043561082f565b6116296024356103f4565b6001600160401b0360443581811161040057611649903690600401611000565b9061165560643561043f565b608435908082116104005761167161170f923690600401611000565b6001600160a01b036004351660009081526012602052604090206116a09061169b905b5460ff1690565b6137bd565b6116b3602082518301016020830161386b565b949290935060206116d06116cb600e98949854610823565b610823565b6116dc82870151610823565b604051633a304d8b60e21b8152600060048201526001600160a01b03909116602482015298899190829081906044820190565b03915afa91821561081a5761173361175b93611832996000916118ec575b50613193565b7f000000000000000000000000000000000000000000000000000000000000000091166153ab565b956040850196875260008061176f30612b6d565b549561179a61179661169460643561179161178b602435610db9565b89611060565b611086565b1590565b6118b2575b896118126117ac30612b6d565b54976118046117bb8c51610823565b948c6060810151936117d06080830151610823565b966117e3602060a0850151940151610823565b905192604051988997602089019b634883556160e11b8d5260248a01613a13565b03601f198101835282610f5e565b51906004355af492611822613a9f565b9315611869575b87878751610823565b90516040519081526001600160a01b039091169060243561ffff1690600080516020615a088339815191529080602081015b0390a3005b61188e9461187691613aed565b875180911015611898575b5060643590602435614b1c565b3880808080611829565b6118ac906118a68751610823565b30613afa565b38611881565b6118bd8a51306156c9565b6118e76118da6064356117916118d4602435610db9565b88611060565b805460ff19166001179055565b61179f565b61190e915060203d602011611914575b6119068183610f5e565b81019061317e565b3861172d565b503d6118fc565b3461040057600036600319011261040057602060405160ff7f0000000000000000000000000000000000000000000000000000000000000000168152f35b346104005760403660031901126104005760206110e860043561197b816103f4565b61ffff6024359161198b836103f4565b166000526002835260406000209061ffff16600052602052604060002090565b34610400576000366003190112610400576000546040516001600160a01b039091168152602090f35b6001600160401b038111610eed5760051b60200190565b60ff81160361040057565b3590610410826119eb565b81601f8201121561040057803590611a18826119d4565b92604090611a2882519586610f5e565b83855260209182860191836101a080970286010194818611610400578401925b858410611a59575050505050505090565b868483031261040057848791611a6d610f81565b611a7687610bc2565b8152611a83838801610bc2565b83820152611a92868801610bc2565b868201526060611aa3818901610405565b908201526080611ab4818901610840565b9082015260a0611ac5818901610bc2565b9082015260c0611ad6818901610840565b9082015260e0611ae7818901610840565b9082015261010080880135908201526101208088013590820152610140611b0f8189016119f6565b9082015261016080880135908201526101808088013590820152815201930192611a48565b34610400576101a036600319011261040057600435611b528161082f565b60443590611b5f8261082f565b60843591611b6c8361082f565b60c03660a319011261040057604051611b8481610ef2565b60a435611b9081610bb8565b815260c435611b9e8161082f565b602082015260e435611baf816103f4565b604082015261010435606082015261012435611bca8161082f565b60808201526101443560a082015261018435936001600160401b03851161040057611bfc610019953690600401611a01565b9361016435936064359160243590613ca4565b34610400576000366003190112610400576004546040516001600160a01b039091168152602090f35b34610400576000806003193601126107815760405181600c54611c5a816112e0565b808452906001908181169081156107595750600114611c83576106fc846106f081880382610f5e565b600c8352602094507fdf6966c971051c3d54ec59162606531493a51404a002842f56009d7e5cf4a8c75b828410611cc957505050816106fc936106f092820101936106e0565b8054858501870152928501928101611cad565b3461040057602060ff611d1b61ffff6110da84611cf83661101b565b949091166000526007825260406000208260405194838680955193849201610648565b54166040519015158152f35b346104005760203660031901126104005761ffff600435611d47816103f4565b166000526001602052610d95611d6760406000206040519283809261131a565b805115611d85576106f081611d7f6106fc9351613acf565b906157cd565b60405162461bcd60e51b815260206004820152601d60248201527f4c7a4170703a206e6f20747275737465642070617468207265636f72640000006044820152606490fd5b3461040057604036600319011261040057600435611de78161082f565b60243590336000526009602052611e02816040600020612b87565b5491808310611e2357611e1792039033612d84565b60405160018152602090f35b60405162461bcd60e51b815260206004820152602560248201527f45524332303a2064656372656173656420616c6c6f77616e63652062656c6f77604482015264207a65726f60d81b6064820152608490fd5b346104005760e036600319011261040057600435611e93816103f4565b6001600160401b039060643582811161040057611eb4903690600401610412565b608492919235611ec38161043f565b60a43591611ed083610bb8565b60c43595861161040057611eeb611efb963690600401610412565b9590946044359060243590614ca5565b60408051928352602083019190915290f35b34610400576000366003190112610400576020601354604051908152f35b3461040057611f3936610d25565b90611f42612b15565b60405192602092808385870137611f6e6034868381013060601b88820152036014810188520186610f5e565b61ffff8216600090815260018086526040822087519296909291906001600160401b038311610eed57611fab83611fa586546112e0565b86614a34565b80601f8411600114612009575091808092611ff89695948a9b6000805160206159e88339815191529b94611ffe575b50501b916000199060031b1c19161790555b60405193849384614a19565b0390a180f35b015192503880611fda565b91939498601f19841661202187600052602060002090565b938a905b828210612076575050916000805160206159e8833981519152999a95939185611ff89896941061205d575b505050811b019055611fec565b015160001960f88460031b161c19169055388080612050565b808886978294978701518155019601940190612025565b34610400576040366003190112610400576108756004356120ad8161082f565b6024359033612cb5565b34610400576020366003190112610400576004356001600160401b03808211610400576120fd6120ee61213f933690600401611000565b60208082518301019101613691565b95509692919360018060a09893981b03169680516121c0575b507f000000000000000000000000000000000000000000000000000000000000000091166153ab565b90303b156104005760405163695ef6bf60e01b81529260009284928391829161216e918a8a8160048701613765565b0391305af1801561081a576121a7575b50600080516020615a0883398151915261ffff6040519216918061186481906000602083019252565b806121b46121ba92610eda565b806105c9565b3861217e565b6121c990613ffe565b38612116565b34610400576000366003190112610400576040517f00000000000000000000000000000000000000000000000000000000000000006001600160a01b03168152602090f35b34610400576020366003190112610400577f5db758e995a17ec1ad84bdef7e8c3293a0bd6179bcce400dff5d4c3d87db726b60206004356122548161082f565b61225c612b15565b600480546001600160a01b0319166001600160a01b03929092169182179055604051908152a1005b60c0906101231901126104005761012490565b366003190161022081126104005760c013610400576040516122b881610ef2565b6004356122c48161082f565b81526024356122d28161082f565b6020820152604435604082015260643560608201526084356122f38161082f565b608082015260a43560a082015261230936610880565b61231236612284565b6001600160401b0392906101e4358481116104005761233590369060040161089f565b916102043595861161040057612352610019963690600401610412565b9590946132ba565b346104005760003660031901126104005760206040516127108152f35b3461040057608036600319011261040057600435612394816103f4565b6024356123a0816103f4565b6064356001600160401b038111610400576123bf903690600401610412565b90926123c9612b15565b7f00000000000000000000000000000000000000000000000000000000000000006001600160a01b031690813b156104005760008094612440604051978896879586946332fb62e760e21b865261ffff80921660048701521660248501526044356044850152608060648501526084840191612f59565b03925af1801561081a5761245057005b806121b461001992610eda565b61246636610450565b9161ffff8694929616600052600560205261249a81604060002060206040518092878b833787820190815203019020611086565b5491821561254457612533848361252c7fc264d91f3adc5588250e1551f547752ca0cfa8f6b530d243b9f9f4cab10ea8e59a6000612518846117918e8a8f61253f9f908f6124fe906124f16125129436908d610fc9565b6020815191012014614be6565b61ffff166000526005602052604060002090565b91614bcd565b5561252436878d610fc9565b933691610fc9565b9188614ec3565b60405195869586614c3c565b0390a1005b60405162461bcd60e51b815260206004820152602360248201527f4e6f6e626c6f636b696e674c7a4170703a206e6f2073746f726564206d65737360448201526261676560e81b6064820152608490fd5b3461040057600036600319011261040057600e546040516001600160a01b039091168152602090f35b346104005760403660031901126104005760206110e86004356125e08161082f565b602435906125ed8261082f565b6001600160a01b031660009081526009845260409020612b87565b3461040057600036600319011261040057600d546040516001600160a01b039091168152602090f35b346104005760603660031901126104005760043561264e816103f4565b60243561265a816103f4565b60443591612666612b15565b82156126e15761253f7f9d5c7c0b934da8fefa9c7760c98383778a12dfbfc0c3b3106518f43fb9508ac09361ffff83166000526002602052806126bb8560406000209061ffff16600052602052604060002090565b556040519384938460409194939294606082019561ffff80921683521660208201520152565b60405162461bcd60e51b81526020600482015260156024820152744c7a4170703a20696e76616c6964206d696e47617360581b6044820152606490fd5b3461040057600036600319011261040057602060405160018152f35b34610400576020366003190112610400577f1584ad594a70cbe1e6515592e1272a987d922b097ead875069cebe8b40c004a4602060043561277a81610bb8565b612782612b15565b151560ff196006541660ff821617600655604051908152a1005b3461040057610100366003190112610400576004356127ba816103f4565b6001600160401b0390602435828111610400576127db903690600401610412565b9190604435906127ea8261043f565b6084356127f68161082f565b60c43595861161040057612811610019963690600401610412565b94909360e4359660a4359460643593614d9c565b346104005761283336610d25565b919061283d612b15565b61ffff82166000908152600160208181526040832092949291906001600160401b038711610eed576128798761287385546112e0565b85614a34565b8590601f88116001146128ce5750918680879893611ff895600080516020615a6883398151915299936128c3575b501b906000198460031b1c191617905560405193849384614a19565b8801359250386128a7565b90601f1988166128e385600052602060002090565b9288905b82821061293757505091889391600080516020615a688339815191529899611ff896941061291d575b505082811b019055611fec565b870135600019600386901b60f8161c191690553880612910565b808685968294968c013581550195019301906128e7565b3461040057600036600319011261040057602060ff600654166040519015158152f35b346104005760203660031901126104005760043561298e8161082f565b612996612b15565b6001600160a01b0390811680156129d257600080546001600160a01b0319811683178255909216600080516020615a288339815191528380a380f35b60405162461bcd60e51b815260206004820152602660248201527f4f776e61626c653a206e6577206f776e657220697320746865207a65726f206160448201526564647265737360d01b6064820152608490fd5b3461040057608036600319011261040057600435612a43816103f4565b60243590612a50826103f4565b612a5b60443561082f565b604051633d7b2f6f60e21b815261ffff91821660048201529116602482015230604482015260648035908201526000816084817f00000000000000000000000000000000000000000000000000000000000000006001600160a01b03165afa801561081a576106fc91600091612ad9575b5060405191829182610690565b612af4913d8091833e612aec8183610f5e565b8101906149f4565b38612acc565b34610400576000366003190112610400576020604051308152f35b6000546001600160a01b03163303612b2957565b606460405162461bcd60e51b815260206004820152602060248201527f4f776e61626c653a2063616c6c6572206973206e6f7420746865206f776e65726044820152fd5b6001600160a01b0316600090815260086020526040902090565b9060018060a01b0316600052602052604060002090565b6001600160a01b03166000908152600960205260409020612bbf9190612b87565b5490565b634e487b7160e01b600052601160045260246000fd5b90601f8201809211610d2057565b6051019081605111610d2057565b91908201809211610d2057565b15612c0957565b60405162461bcd60e51b815260206004820152602360248201527f45524332303a207472616e7366657220746f20746865207a65726f206164647260448201526265737360e81b6064820152608490fd5b15612c6157565b60405162461bcd60e51b815260206004820152602660248201527f45524332303a207472616e7366657220616d6f756e7420657863656564732062604482015265616c616e636560d01b6064820152608490fd5b916001600160a01b038084169290918315612d3157612d1682600080516020615a4883398151915294612d2c941696612cef881515612c02565b612d1084612cfc83612b6d565b54612d0982821015612c5a565b0391612b6d565b55612b6d565b8054820190556040519081529081906020820190565b0390a3565b60405162461bcd60e51b815260206004820152602560248201527f45524332303a207472616e736665722066726f6d20746865207a65726f206164604482015264647265737360d81b6064820152608490fd5b6001600160a01b038082169291908315612e4c578216938415612dfc5780612deb7f8c5be1e5ebec7d5bd14f71427d1e84f3dd0314c0f7b2291e5b200ac8c7c3b92594612de6612d2c9560018060a01b03166000526009602052604060002090565b612b87565b556040519081529081906020820190565b60405162461bcd60e51b815260206004820152602260248201527f45524332303a20617070726f766520746f20746865207a65726f206164647265604482015261737360f01b6064820152608490fd5b60405162461bcd60e51b8152602060048201526024808201527f45524332303a20617070726f76652066726f6d20746865207a65726f206164646044820152637265737360e01b6064820152608490fd5b9060018060a01b0382166000526009602052612ebd816040600020612b87565b549260018401612ecd5750505050565b808410612ee857612edf930391612d84565b38808080611347565b60405162461bcd60e51b815260206004820152601d60248201527f45524332303a20696e73756666696369656e7420616c6c6f77616e63650000006044820152606490fd5b5190610410826103f4565b9081602091031261040057516106a1816103f4565b6040513d6000823e3d90fd5b908060209392818452848401376000828201840152601f01601f1916010190565b9190808252602080920192916000905b828210612f98575050505090565b9091929380612fb2600192612fac88610bc2565b15159052565b612fc8612fc0848801610bc2565b151582850152565b612fe06040612fd8818901610bc2565b151590830152565b612ffa6060612ff0818901610405565b61ffff1690830152565b613013608061300a818901610840565b908301906115b9565b61302360a0612fd8818901610bc2565b61303360c061300a818901610840565b61304360e061300a818901610840565b6101008087013590820152610120808701359082015261307361014061306a8189016119f6565b60ff1690830152565b610160868101359082015261018080870135908201526101a0908101950193920190612f8a565b61030a81526001600160a01b0391821660208201526001600160401b03928316604082015260e0606082015297969591949392908082356130da8161082f565b1660e08a015260208201356130ee8161082f565b166101008901526040810135601e19823603018112156104005701926020843594019484116104005783360385136104005761314d61314060c09661315a9660606101208d01526101408c0191612f59565b61ffff90941660808a0152565b87830360a0890152612f7a565b930152565b356106a1816103f4565b356106a18161082f565b519061041082610bb8565b9081602091031261040057516106a181610bb8565b1561319a57565b60405162461bcd60e51b81526020600482015260116024820152701513d19517d5539055551213d492569151607a1b6044820152606490fd5b60a0809180356131e281610bb8565b1515845260208101356131f48161082f565b600180841b03809116602086015261ffff6040830135613213816103f4565b1660408601526060820135606086015260808201356132318161082f565b1660808501520135910152565b919260a06106a196946132a893610309865260018060401b03166020860152600180831b038082511660408701528060208301511660608701526040820151608087015260608201518387015260808201511660c0860152015160e08401526101008301906131d3565b6101e090816101c08201520191612f7a565b9490919392613324936132d16116cb600e54610823565b916132db8561315f565b96602080946132eb828401613169565b60408051633a304d8b60e21b815261ffff909c1660048d01526001600160a01b0390911660248c01529998899190829081906044820190565b03915afa96871561081a578997613342916000916134e25750613193565b61334c8751610823565b6001600160a01b03969033888216036134aa575b508861336f6116cb8a51610823565b9b6004828b0198888b61338d6133858d516153be565b509e51610823565b95516303408e4760e41b815293849182907f0000000000000000000000000000000000000000000000000000000000000000165afa98891561081a578e61341b8f6000805160206159c88339815191529f61ffff9c6134719c6134879f9c61340e8461344d9f6118049661346c9f8c8c9f61096d9461348c575b50506155b3565b945196879589870161323e565b6134386134278861315f565b613432368887610fc9565b906148f8565b61346661345c6134546116cb61344d8b61315f565b9751610823565b938901613169565b9334963691610fc9565b936146e7565b61315f565b9251955193849316961694829190602083019252565b0390a4565b816134a292903d10610a6e57610a608183610f5e565b508c38613407565b6134b86134dc913390612b9e565b6134c88b8b019182511115613193565b6134d28a51610823565b9051903390612e9d565b38613360565b61190e9150863d8811611914576119068183610f5e565b51906104108261082f565b9092919261351181610fae565b9161351f6040519384610f5e565b829482845282820111610400576020610410930190610648565b9080601f830112156104005781516106a192602001613504565b5190610410826119eb565b81601f8201121561040057805190613575826119d4565b9260409061358582519586610f5e565b83855260209182860191836101a080970286010194818611610400578401925b8584106135b6575050505050505090565b8684830312610400578487916135ca610f81565b6135d387613173565b81526135e0838801613173565b838201526135ef868801613173565b868201526060613600818901612f2d565b9082015260806136118189016134f9565b9082015260a0613622818901613173565b9082015260c06136338189016134f9565b9082015260e06136448189016134f9565b908201526101008088015190820152610120808801519082015261014061366c818901613553565b90820152610160808801519082015261018080880151908201528152019301926135a5565b91909160e0818403126104005780516136a9816103f4565b9260208201516136b88161082f565b9260408301516136c78161043f565b606084015190936001600160401b0392909183811161040057820160608186031261040057604051906136f982610f0d565b80516137048161082f565b825260208101516137148161082f565b60208301526040810151908582116104005761373291879101613539565b60408201529361374460808401612f2d565b9360a08401519081116104005760c09161375f91850161355e565b92015190565b93906106a195916101009461ffff60409560018060a01b03809516895216602088015284870152606086015260a060808601528082511660a086015260208201511660c0850152015191606060e0820152019061066b565b156137c457565b60405162461bcd60e51b815260206004820152600b60248201526a544f46545f4d4f44554c4560a81b6044820152606490fd5b91908260c09103126104005760405161380f81610ef2565b60a0808294805161381f81610bb8565b8452602081015161382f8161082f565b60208501526040810151613842816103f4565b604085015260608101516060850152608081015161385f8161082f565b60808501520151910152565b808203916101e08312610400578151613883816103f4565b9360c060208401516138948161043f565b94603f190112610400576040516138aa81610ef2565b60408401516138b88161082f565b815260608401516138c88161082f565b60208201526080840151604082015260a0840151606082015260c08401516138ef8161082f565b608082015260e084015160a08201529261390d8361010083016137f7565b6101c08201519093906001600160401b038111610400576106a1920161355e565b90815180825260208080930193019160005b82811061394e575050505090565b90919293826101a0600192875161396782825115159052565b8084015115158285015260408181015115159083015260608181015161ffff169083015261399d608080830151908401906115b9565b60a0818101511515908301526139bb60c080830151908401906115b9565b6139cd60e080830151908401906115b9565b610100818101519083015261012080820151908301526101408082015160ff16908301526101608181015190830152610180908101519082015201950193929101613940565b959291909460a0946106a1999896600180881b03948594858093168b5260208b0152166040890152606088015216608086015281511515838601528060208301511660c086015261ffff60408301511660e0860152606082015161010086015260808201511661012085015201516101408301526101608201526101a09081610180820152019061392e565b3d15613aca573d90613ab082610fae565b91613abe6040519384610f5e565b82523d6000602084013e565b606090565b601319810191908211610d2057565b605019810191908211610d2057565b91908203918211610d2057565b9190613b8491600080604051936020968786019463a9059cbb60e01b865260018060a01b038093166024880152604487015260448652613b3986610f28565b169260405194613b4886610f43565b8786527f5361666545524332303a206c6f772d6c6576656c2063616c6c206661696c656488870152519082855af1613b7e613a9f565b91613c00565b80519081613b9157505050565b8280613ba193830101910161317e565b15613ba95750565b6084906040519062461bcd60e51b82526004820152602a60248201527f5361666545524332303a204552433230206f7065726174696f6e20646964206e6044820152691bdd081cdd58d8d9595960b21b6064820152fd5b91929015613c625750815115613c14575090565b3b15613c1d5790565b60405162461bcd60e51b815260206004820152601d60248201527f416464726573733a2063616c6c20746f206e6f6e2d636f6e74726163740000006044820152606490fd5b825190915015613c755750805190602001fd5b60405162461bcd60e51b8152908190613c919060048301610690565b0390fd5b90816020910312610400575190565b939590969492948051613efd575b50604080516370a0823160e01b80825260209992986001600160a01b03958087169492939192918c8180613ce930600483016115c6565b0381895afa93841561081a5788918e600096613ede575b50501691823b15610400578b5163286fbdcd60e21b815260048101919091526001600160a01b03919091166024820152604481018a9052906000908290606490829084905af1801561081a57613ecb575b508851918252898280613d6730600483016115c6565b0381865afa801561081a578792600091613e9e575b50808211613e6a575b5050505050613d948251151590565b15613e4e57613dab6116cb6116cb88850151610823565b924791613dbc8785015161ffff1690565b911692613e03613ddc60a0613dd46080850151610823565b9301516144e6565b91613de5610fa1565b6001600160a01b0387168152996001600160a01b03909116908a0152565b86880152833b1561040057613e30600096519788968795869463695ef6bf60e01b86523060048701613765565b03925af1801561081a57613e415750565b806121b461041092610eda565b50613e6591929350610410946116cb910151610823565b613afa565b613e7391613aed565b92808410613e82575b80613d85565b613e9593613e8f91613aed565b91613afa565b38808481613e7c565b613ebe91508b3d8d11613ec4575b613eb68183610f5e565b810190613c95565b38613d7c565b503d613eac565b806121b4613ed892610eda565b38613d51565b613ef5929650803d10613ec457613eb68183610f5e565b93388e613d00565b613f0690613ffe565b38613cb2565b8051821015613f205760209160051b010190565b634e487b7160e01b600052603260045260246000fd5b9360ff929897969360c0969260e087019a60018060a01b0380921688521660208701526040860152606085015216608083015260a08201520152565b60009060033d11613f7f57565b905060046000803e60005160e01c90565b600060443d106106a157604051600319913d83016004833e81516001600160401b03918282113d602484011117613fed57818401948551938411613ff5573d85010160208487010111613fed57506106a192910160200190610f5e565b949350505050565b50949350505050565b9060005b82518110156144335761402260a061401a8386613f0c565b510151151590565b156141d75761404b6116cb6116cb608061403c8588613f0c565b5101516001600160a01b031690565b61405a60c061403c8487613f0c565b61406960e061403c8588613f0c565b916101006140778588613f0c565b510151926101206140888689613f0c565b5101516140a461014061409b888b613f0c565b51015160ff1690565b926101606140b2888b613f0c565b510151956101806140c3898c613f0c565b510151823b15610400576000946140f6869260409a8b51998a98899788966301da8bf160e41b885260049e8f8901613f36565b03925af190816141c4575b506141ba576001614110613f72565b6308c379a014614171575b61412c575b50506001905b01614002565b614134613a9f565b614146611796602061401a878a613f0c565b6141505750614120565b61415c613c9191614438565b925162461bcd60e51b81529283928301610690565b614179613f90565b80614185575b5061411b565b6000915061419b611796602061401a888b613f0c565b1561417f57835162461bcd60e51b8152908190613c9190828601610690565b5050600190614126565b806121b46141d192610eda565b38614101565b6141eb6141e48285613f0c565b5151151590565b1561437c576142056116cb6116cb608061403c8588613f0c565b61421460c061403c8487613f0c565b61422360e061403c8588613f0c565b916101206142318588613f0c565b5101519261424561014061409b878a613f0c565b610160614252878a613f0c565b51015192610180614263888b613f0c565b51015195813b15610400576040805163aba0784760e01b81526001600160a01b03978816600480830191909152979095166024860152604485019190915260ff9092166064840152608483019390935260a482019490945290600090829081838160c481015b03925af19081614369575b506141ba5760016142e3613f72565b6308c379a014614320575b6142fc575050600190614126565b614304613a9f565b614316611796602061401a878a613f0c565b61415057506141ba565b614328613f90565b80614334575b506142ee565b6000915061434a611796602061401a888b613f0c565b1561432e57835162461bcd60e51b8152908190613c9190828601610690565b806121b461437692610eda565b386142d4565b6143916116cb6116cb608061403c8588613f0c565b6143a060c061403c8487613f0c565b6143af60e061403c8588613f0c565b916101006143bd8588613f0c565b510151926101206143ce8689613f0c565b5101516143e161014061409b888b613f0c565b926101606143ef888b613f0c565b51015195610180614400898c613f0c565b510151823b15610400576000946142c9869260409a8b51998a988997889663d505accf60e01b885260049e8f8901613f36565b509050565b6103e88151116144b957604481511061449357600481015181019060208160248401930312610400576024810151906001600160401b038211610400570190806043830112156104005760248201516106a192604401613504565b506040516144a081610f43565b6009815268544f46545f6461746160b81b602082015290565b506040516144c681610f43565b601081526f2a27a32a2fa627a723afa922a0a9a7a760811b602082015290565b60405190600160f01b60208301526022820152602281526106a181610f0d565b1561450d57565b60405162461bcd60e51b8152602060048201526012602482015271556e737570706f727465642074785479706560701b6044820152606490fd5b1561454e57565b60405162461bcd60e51b815260206004820152600b60248201526a47617320746f6f206c6f7760a81b6044820152606490fd5b600080825160228114908115614629575b50156145ec57600283015193602284015193600261ffff87166001811480156145e3575b6145bf90614506565b6145ca871515614547565b146145d25750565b925090506056604283015192015190565b508082146145b6565b60405162461bcd60e51b8152602060048201526015602482015274496e76616c69642061646170746572506172616d7360581b6044820152606490fd5b604291501138614592565b1561463b57565b60405162461bcd60e51b815260206004820152602660248201527f4c7a4170703a20696e76616c696420736f757263652073656e64696e6720636f6044820152651b9d1c9858dd60d21b6064820152608490fd5b926146b46106a197959361ffff6146c29416865260c0602087015260c086019061066b565b90848203604086015261066b565b6001600160a01b0391821660608401529316608082015280830360a09091015261066b565b946147109193929561ffff8116600052600160205261471760406000206040519485809261131a565b0384610f5e565b82511561477e57614729855182614985565b7f00000000000000000000000000000000000000000000000000000000000000006001600160a01b031693843b1561040057600096613e3091604051998a988997889662c5803160e81b88526004880161468f565b60405162461bcd60e51b815260206004820152603060248201527f4c7a4170703a2064657374696e6174696f6e20636861696e206973206e6f742060448201526f61207472757374656420736f7572636560801b6064820152608490fd5b156147e357565b60405162461bcd60e51b815260206004820152601a602482015279131e905c1c0e881b5a5b91d85cd31a5b5a5d081b9bdd081cd95d60321b6044820152606490fd5b1561482c57565b60405162461bcd60e51b815260206004820152601b60248201527a4c7a4170703a20676173206c696d697420697320746f6f206c6f7760281b6044820152606490fd5b60228251106148b45761ffff602261041093015191166000526002602052604060002061030a600052602052604060002054906148ad8215156147dc565b1015614825565b60405162461bcd60e51b815260206004820152601c60248201527b4c7a4170703a20696e76616c69642061646170746572506172616d7360201b6044820152606490fd5b60228251106148b45761ffff6022610410930151911660005260026020526040600020610309600052602052604060002054906148ad8215156147dc565b919060228151106148b457602261ffff9101519216600052600260205261496b60406000206001600052602052604060002090565b54908101809111610d2057610410916148ad8215156147dc565b61ffff1660005260036020526040600020549081156149ea575b116149a657565b606460405162461bcd60e51b815260206004820152602060248201527f4c7a4170703a207061796c6f61642073697a6520697320746f6f206c617267656044820152fd5b612710915061499f565b906020828203126104005781516001600160401b038111610400576106a19201613539565b60409061ffff6106a195931681528160208201520191612f59565b90601f8111614a4257505050565b600091825260208220906020601f850160051c83019410614a7e575b601f0160051c01915b828110614a7357505050565b818155600101614a67565b9092508290614a5e565b929091614afa5a604051633356ae4560e11b602082015261ffff871660248201526080604482015290614af482614ae6614ac560a483018a61066b565b6001600160401b03881660648401528281036023190160848401528861066b565b03601f198101845283610f5e565b3061597c565b939015614b09575b5050505050565b614b1294614b1c565b3880808080614b02565b9193614bba7fe183f33de2837795525b4792ca4cd60535bd77c53b7e7030060bfcf5734d6b0c95614bc8939561ffff81516020830120961695866000526005602052614b80836110da60208b60406000208260405194838680955193849201610648565b55614b9d604051978897885260a0602089015260a088019061066b565b6001600160401b039092166040870152858203606087015261066b565b90838203608085015261066b565b0390a1565b6020919283604051948593843782019081520301902090565b15614bed57565b60405162461bcd60e51b815260206004820152602160248201527f4e6f6e626c6f636b696e674c7a4170703a20696e76616c6964207061796c6f616044820152601960fa1b6064820152608490fd5b9160609361ffff614c5f9398979698168452608060208501526080840191612f59565b6001600160401b0390951660408201520152565b903590601e198136030182121561040057018035906001600160401b0382116104005760200191813603831361040057565b949195989790611530614cce604099614cc6614cd497614cf1993691610fc9565b943691610fc9565b97615326565b928451968794859463040a7bb160e41b8652309060048701614e7f565b03817f00000000000000000000000000000000000000000000000000000000000000006001600160a01b03165afa91821561081a576000908193614d3457509190565b90506104b191925060403d8111610cce57610cbf8183610f5e565b939694916106a198969361ffff614d749316865260c0602087015260c0860191612f59565b6001600160401b0390961660408401526060830152608082015280840360a090910152612f59565b91969792989594939094303303614e2457614db8908530615719565b60405181815290946001600160a01b03169390849061ffff851690600080516020615a0883398151915290602090a3833b15610400576000988995614e14936040519c8d9b8c9a8b98633fe79aed60e11b8a5260048a01614d4f565b0393f1801561081a57613e415750565b60405162461bcd60e51b815260206004820152601f60248201527f4f4654436f72653a2063616c6c6572206d757374206265204f4654436f7265006044820152606490fd5b9190826040910312610400576020825192015190565b91926106a1959361ffff614eae9316845260018060a01b0316602084015260a0604084015260a083019061066b565b9215156060820152608081840391015261066b565b92919060ff614ed184615921565b16806150245750505060ff614ee582615921565b161580615019575b614ef690615429565b614f08614f02826158d1565b9161596c565b90916001600160a01b03918284161561500f575b614f50907f0000000000000000000000000000000000000000000000000000000000000000906001600160401b03166153ab565b918316928315614fca57600080516020615a0883398151915291614f8a61ffff92614f85614f8087600a54612bf5565b600a55565b612b6d565b848154019055846000600080516020615a4883398151915260405180614fb589829190602083019252565b0390a360405193845216918060208101612d2c565b60405162461bcd60e51b815260206004820152601f60248201527f45524332303a206d696e7420746f20746865207a65726f2061646472657373006044820152606490fd5b61dead9350614f1c565b508051602914614eed565b6001036150345761041093615148565b60405162461bcd60e51b815260206004820152601c60248201527b4f4654436f72653a20756e6b6e6f776e207061636b6574207479706560201b6044820152606490fd5b1561507f57565b60405162461bcd60e51b815260206004820152601960248201527813d19510dbdc994e88185b5bdd5b9d081d1bdbc81cdb585b1b603a1b6044820152606490fd5b98979692936150ea60e0979361ffff61315a9894168c5260208c61010091829101528c019061066b565b6001600160401b0390951660408b015260608a01526001600160a01b0316608089015260a088015286820360c088015261066b565b6151376040929594939560608352606083019061066b565b94600180841b031660208201520152565b9091615153846154da565b909161516e611694876117916151688b610db9565b8c611060565b916001600160401b03916151a5907f00000000000000000000000000000000000000000000000000000000000000009084166153ab565b9288888b8315615293575b505050853b1561525657946151f79694614af4948a94614ae6948d9960001461524f5750505a925b5a978b6040519a8b9863757fea4d60e11b60208b015260248a016150c0565b901561524457509061523f61ffff928560207fb8890edbfc1c74692f527444645f95489c3703cc2df42e4a366f5d06fa6cd8849697519101209060405194859416968461511f565b0390a2565b926104109492614b1c565b16926151d8565b5050505050925050507f9aedf5fdba8716db3b6705ca00150643309995d4f818a249ed6dde6677e7792d9250614bc89150604051918291826115c6565b906117916118da926152b3896152ad6152b9979b306156c9565b99610db9565b90611060565b88888b6151b0565b60065460ff16156153085760228251106148b45761ffff602261041093015191166000526002602052604060002060008052602052604060002054906148ad8215156147dc565b505161156557565b634e487b7160e01b600052601260045260246000fd5b7f00000000000000000000000000000000000000000000000000000000000000009081156153a6576001600160401b03919004818111615364571690565b60405162461bcd60e51b815260206004820152601a6024820152794f4654436f72653a20616d6f756e745344206f766572666c6f7760301b6044820152606490fd5b615310565b81810292918115918404141715610d2057565b7f000000000000000000000000000000000000000000000000000000000000000080156153a657810690818103908111610d205791565b60405160006020820152602181019190915260c09190911b6001600160c01b0319166041820152602981526106a181610f0d565b1561543057565b60405162461bcd60e51b815260206004820152601860248201527713d19510dbdc994e881a5b9d985b1a59081c185e5b1bd85960421b6044820152606490fd5b93926071926106a194604051968794600160f81b6020870152602186015260018060c01b0319809360c01b16604186015260018060a01b0316604985015260c01b1660698301526154ca8151809260208686019101610648565b8101036051810184520182610f5e565b906154f2600160ff6154eb85615921565b1614615429565b6154fb826158d1565b906155058361596c565b90604984511061557657604984015193605181511061553a576155376051820151916155318151613ade565b9061584d565b91565b60405162461bcd60e51b8152602060048201526014602482015273746f55696e7436345f6f75744f66426f756e647360601b6044820152606490fd5b60405162461bcd60e51b8152602060048201526015602482015274746f427974657333325f6f75744f66426f756e647360581b6044820152606490fd5b6001600160a01b038116338103615662575b801561561357816155e8846155db600095612b6d565b54612d0982821015615672565b556155f683600a5403600a55565b604051838152600080516020615a4883398151915290602090a390565b60405162461bcd60e51b815260206004820152602160248201527f45524332303a206275726e2066726f6d20746865207a65726f206164647265736044820152607360f81b6064820152608490fd5b61566d833384612e9d565b6155c5565b1561567957565b60405162461bcd60e51b815260206004820152602260248201527f45524332303a206275726e20616d6f756e7420657863656564732062616c616e604482015261636560f01b6064820152608490fd5b6001600160a01b03811691908215614fca57600a5490828201809211610d205760009261570a602092600080516020615a4883398151915294600a55612b6d565b818154019055604051908152a3565b6106a19183916001600160a01b038116308114159081615745575b5015612cb557610b97833383612e9d565b905033141538615734565b1561575757565b60405162461bcd60e51b815260206004820152600e60248201526d736c6963655f6f766572666c6f7760901b6044820152606490fd5b1561579457565b60405162461bcd60e51b8152602060048201526011602482015270736c6963655f6f75744f66426f756e647360781b6044820152606490fd5b6157e1826157da81612bd9565b1015615750565b6157ee828251101561578d565b81615806575050604051600081526020810160405290565b60405191601f811691821560051b808486010193838501920101905b80841061583a5750508252601f01601f191660405290565b9092835181526020809101930190615822565b61585a826157da81612bd9565b61586f815161586884612be7565b111561578d565b81615887575050604051600081526020810160405290565b60405191601f8116916051831560051b80858701019484860193010101905b8084106158be5750508252601f01601f191660405290565b90928351815260208091019301906158a6565b60218151106158e457602d015160601c90565b60405162461bcd60e51b8152602060048201526015602482015274746f416464726573735f6f75744f66426f756e647360581b6044820152606490fd5b6001815110615931576001015190565b60405162461bcd60e51b8152602060048201526013602482015272746f55696e74385f6f75744f66426f756e647360681b6044820152606490fd5b602981511061553a576029015190565b909291600080916040519561599087610ef2565b6096875282602088019560a036883760208451940192f1903d90609682116159be575b6000908286523e9190565b609691506159b356fed81fc9b8523134ed613870ed029d6170cbb73aa6a6bc311b9a642689fb9df59a8c0400cfe2d1199b1a725c78960bcc2a344d869b80590d0f2bd005db15a572cebf551ec93859b170f9b2141bd9298bf3f64322c6f7beb2543a0cb669834118bf8be0079c531659141344cd1fd0a4f28419497f9722a3daafe3b4186f6b6457e0ddf252ad1be2c89b69c2b068fc378daa952ba7f163c4a11628f55a4df523b3effa41487ad5d6728f0b19276fa1eddc16558578f5109fc39d2dc33c3230470daba2646970667358221220204679cfaf9645cc3ee78a1fbae7740a9c7ceeae8660e3784c17d009c87c410f64736f6c63430008120033",
  "linkReferences": {},
  "deployedLinkReferences": {}
}