{
  "_format": "hh-sol-artifact-1",
  "contractName": "BaseTOFTLeverageModule",
  "sourceName": "contracts/tOFT/modules/BaseTOFTLeverageModule.sol",
  "abi": [
    {
      "inputs": [
        {
          "internalType": "address",
          "name": "_lzEndpoint",
          "type": "address"
        },
        {
          "internalType": "address",
          "name": "_erc20",
          "type": "address"
        },
        {
          "internalType": "contract IYieldBoxBase",
          "name": "_yieldBox",
          "type": "address"
        },
        {
          "internalType": "string",
          "name": "_name",
          "type": "string"
        },
        {
          "internalType": "string",
          "name": "_symbol",
          "type": "string"
        },
        {
          "internalType": "uint8",
          "name": "_decimal",
          "type": "uint8"
        },
        {
          "internalType": "uint256",
          "name": "_hostChainID",
          "type": "uint256"
        }
      ],
      "stateMutability": "nonpayable",
      "type": "constructor"
    },
    {
      "anonymous": false,
      "inputs": [
        {
          "indexed": true,
          "internalType": "address",
          "name": "owner",
          "type": "address"
        },
        {
          "indexed": true,
          "internalType": "address",
          "name": "spender",
          "type": "address"
        },
        {
          "indexed": false,
          "internalType": "uint256",
          "name": "value",
          "type": "uint256"
        }
      ],
      "name": "Approval",
      "type": "event"
    },
    {
      "anonymous": false,
      "inputs": [
        {
          "indexed": true,
          "internalType": "uint16",
          "name": "_srcChainId",
          "type": "uint16"
        },
        {
          "indexed": false,
          "internalType": "bytes",
          "name": "_srcAddress",
          "type": "bytes"
        },
        {
          "indexed": false,
          "internalType": "uint64",
          "name": "_nonce",
          "type": "uint64"
        },
        {
          "indexed": false,
          "internalType": "bytes32",
          "name": "_hash",
          "type": "bytes32"
        }
      ],
      "name": "CallOFTReceivedSuccess",
      "type": "event"
    },
    {
      "anonymous": false,
      "inputs": [
        {
          "indexed": false,
          "internalType": "uint16",
          "name": "_srcChainId",
          "type": "uint16"
        },
        {
          "indexed": false,
          "internalType": "bytes",
          "name": "_srcAddress",
          "type": "bytes"
        },
        {
          "indexed": false,
          "internalType": "uint64",
          "name": "_nonce",
          "type": "uint64"
        },
        {
          "indexed": false,
          "internalType": "bytes",
          "name": "_payload",
          "type": "bytes"
        },
        {
          "indexed": false,
          "internalType": "bytes",
          "name": "_reason",
          "type": "bytes"
        }
      ],
      "name": "MessageFailed",
      "type": "event"
    },
    {
      "anonymous": false,
      "inputs": [
        {
          "indexed": false,
          "internalType": "address",
          "name": "_address",
          "type": "address"
        }
      ],
      "name": "NonContractAddress",
      "type": "event"
    },
    {
      "anonymous": false,
      "inputs": [
        {
          "indexed": true,
          "internalType": "address",
          "name": "previousOwner",
          "type": "address"
        },
        {
          "indexed": true,
          "internalType": "address",
          "name": "newOwner",
          "type": "address"
        }
      ],
      "name": "OwnershipTransferred",
      "type": "event"
    },
    {
      "anonymous": false,
      "inputs": [
        {
          "indexed": true,
          "internalType": "uint16",
          "name": "_srcChainId",
          "type": "uint16"
        },
        {
          "indexed": true,
          "internalType": "address",
          "name": "_to",
          "type": "address"
        },
        {
          "indexed": false,
          "internalType": "uint256",
          "name": "_amount",
          "type": "uint256"
        }
      ],
      "name": "ReceiveFromChain",
      "type": "event"
    },
    {
      "anonymous": false,
      "inputs": [
        {
          "indexed": false,
          "internalType": "uint16",
          "name": "_srcChainId",
          "type": "uint16"
        },
        {
          "indexed": false,
          "internalType": "bytes",
          "name": "_srcAddress",
          "type": "bytes"
        },
        {
          "indexed": false,
          "internalType": "uint64",
          "name": "_nonce",
          "type": "uint64"
        },
        {
          "indexed": false,
          "internalType": "bytes32",
          "name": "_payloadHash",
          "type": "bytes32"
        }
      ],
      "name": "RetryMessageSuccess",
      "type": "event"
    },
    {
      "anonymous": false,
      "inputs": [
        {
          "indexed": true,
          "internalType": "uint16",
          "name": "_dstChainId",
          "type": "uint16"
        },
        {
          "indexed": true,
          "internalType": "address",
          "name": "_from",
          "type": "address"
        },
        {
          "indexed": true,
          "internalType": "bytes32",
          "name": "_toAddress",
          "type": "bytes32"
        },
        {
          "indexed": false,
          "internalType": "uint256",
          "name": "_amount",
          "type": "uint256"
        }
      ],
      "name": "SendToChain",
      "type": "event"
    },
    {
      "anonymous": false,
      "inputs": [
        {
          "indexed": false,
          "internalType": "uint16",
          "name": "_dstChainId",
          "type": "uint16"
        },
        {
          "indexed": false,
          "internalType": "uint16",
          "name": "_type",
          "type": "uint16"
        },
        {
          "indexed": false,
          "internalType": "uint256",
          "name": "_minDstGas",
          "type": "uint256"
        }
      ],
      "name": "SetMinDstGas",
      "type": "event"
    },
    {
      "anonymous": false,
      "inputs": [
        {
          "indexed": false,
          "internalType": "address",
          "name": "precrime",
          "type": "address"
        }
      ],
      "name": "SetPrecrime",
      "type": "event"
    },
    {
      "anonymous": false,
      "inputs": [
        {
          "indexed": false,
          "internalType": "uint16",
          "name": "_remoteChainId",
          "type": "uint16"
        },
        {
          "indexed": false,
          "internalType": "bytes",
          "name": "_path",
          "type": "bytes"
        }
      ],
      "name": "SetTrustedRemote",
      "type": "event"
    },
    {
      "anonymous": false,
      "inputs": [
        {
          "indexed": false,
          "internalType": "uint16",
          "name": "_remoteChainId",
          "type": "uint16"
        },
        {
          "indexed": false,
          "internalType": "bytes",
          "name": "_remoteAddress",
          "type": "bytes"
        }
      ],
      "name": "SetTrustedRemoteAddress",
      "type": "event"
    },
    {
      "anonymous": false,
      "inputs": [
        {
          "indexed": false,
          "internalType": "bool",
          "name": "_useCustomAdapterParams",
          "type": "bool"
        }
      ],
      "name": "SetUseCustomAdapterParams",
      "type": "event"
    },
    {
      "anonymous": false,
      "inputs": [
        {
          "indexed": true,
          "internalType": "address",
          "name": "from",
          "type": "address"
        },
        {
          "indexed": true,
          "internalType": "address",
          "name": "to",
          "type": "address"
        },
        {
          "indexed": false,
          "internalType": "uint256",
          "name": "value",
          "type": "uint256"
        }
      ],
      "name": "Transfer",
      "type": "event"
    },
    {
      "inputs": [],
      "name": "DEFAULT_PAYLOAD_SIZE_LIMIT",
      "outputs": [
        {
          "internalType": "uint256",
          "name": "",
          "type": "uint256"
        }
      ],
      "stateMutability": "view",
      "type": "function"
    },
    {
      "inputs": [],
      "name": "NO_EXTRA_GAS",
      "outputs": [
        {
          "internalType": "uint256",
          "name": "",
          "type": "uint256"
        }
      ],
      "stateMutability": "view",
      "type": "function"
    },
    {
      "inputs": [],
      "name": "PT_SEND",
      "outputs": [
        {
          "internalType": "uint8",
          "name": "",
          "type": "uint8"
        }
      ],
      "stateMutability": "view",
      "type": "function"
    },
    {
      "inputs": [],
      "name": "PT_SEND_AND_CALL",
      "outputs": [
        {
          "internalType": "uint8",
          "name": "",
          "type": "uint8"
        }
      ],
      "stateMutability": "view",
      "type": "function"
    },
    {
      "inputs": [
        {
          "internalType": "address",
          "name": "owner",
          "type": "address"
        },
        {
          "internalType": "address",
          "name": "spender",
          "type": "address"
        }
      ],
      "name": "allowance",
      "outputs": [
        {
          "internalType": "uint256",
          "name": "",
          "type": "uint256"
        }
      ],
      "stateMutability": "view",
      "type": "function"
    },
    {
      "inputs": [
        {
          "internalType": "address",
          "name": "spender",
          "type": "address"
        },
        {
          "internalType": "uint256",
          "name": "amount",
          "type": "uint256"
        }
      ],
      "name": "approve",
      "outputs": [
        {
          "internalType": "bool",
          "name": "",
          "type": "bool"
        }
      ],
      "stateMutability": "nonpayable",
      "type": "function"
    },
    {
      "inputs": [
        {
          "internalType": "address",
          "name": "account",
          "type": "address"
        }
      ],
      "name": "balanceOf",
      "outputs": [
        {
          "internalType": "uint256",
          "name": "",
          "type": "uint256"
        }
      ],
      "stateMutability": "view",
      "type": "function"
    },
    {
      "inputs": [
        {
          "internalType": "uint16",
          "name": "_srcChainId",
          "type": "uint16"
        },
        {
          "internalType": "bytes",
          "name": "_srcAddress",
          "type": "bytes"
        },
        {
          "internalType": "uint64",
          "name": "_nonce",
          "type": "uint64"
        },
        {
          "internalType": "bytes32",
          "name": "_from",
          "type": "bytes32"
        },
        {
          "internalType": "address",
          "name": "_to",
          "type": "address"
        },
        {
          "internalType": "uint256",
          "name": "_amount",
          "type": "uint256"
        },
        {
          "internalType": "bytes",
          "name": "_payload",
          "type": "bytes"
        },
        {
          "internalType": "uint256",
          "name": "_gasForCall",
          "type": "uint256"
        }
      ],
      "name": "callOnOFTReceived",
      "outputs": [],
      "stateMutability": "nonpayable",
      "type": "function"
    },
    {
      "inputs": [],
      "name": "circulatingSupply",
      "outputs": [
        {
          "internalType": "uint256",
          "name": "",
          "type": "uint256"
        }
      ],
      "stateMutability": "view",
      "type": "function"
    },
    {
      "inputs": [
        {
          "internalType": "uint16",
          "name": "",
          "type": "uint16"
        },
        {
          "internalType": "bytes",
          "name": "",
          "type": "bytes"
        },
        {
          "internalType": "uint64",
          "name": "",
          "type": "uint64"
        }
      ],
      "name": "creditedPackets",
      "outputs": [
        {
          "internalType": "bool",
          "name": "",
          "type": "bool"
        }
      ],
      "stateMutability": "view",
      "type": "function"
    },
    {
      "inputs": [],
      "name": "decimals",
      "outputs": [
        {
          "internalType": "uint8",
          "name": "",
          "type": "uint8"
        }
      ],
      "stateMutability": "view",
      "type": "function"
    },
    {
      "inputs": [
        {
          "internalType": "address",
          "name": "spender",
          "type": "address"
        },
        {
          "internalType": "uint256",
          "name": "subtractedValue",
          "type": "uint256"
        }
      ],
      "name": "decreaseAllowance",
      "outputs": [
        {
          "internalType": "bool",
          "name": "",
          "type": "bool"
        }
      ],
      "stateMutability": "nonpayable",
      "type": "function"
    },
    {
      "inputs": [],
      "name": "erc20",
      "outputs": [
        {
          "internalType": "address",
          "name": "",
          "type": "address"
        }
      ],
      "stateMutability": "view",
      "type": "function"
    },
    {
      "inputs": [
        {
          "internalType": "uint16",
          "name": "_dstChainId",
          "type": "uint16"
        },
        {
          "internalType": "bytes32",
          "name": "_toAddress",
          "type": "bytes32"
        },
        {
          "internalType": "uint256",
          "name": "_amount",
          "type": "uint256"
        },
        {
          "internalType": "bytes",
          "name": "_payload",
          "type": "bytes"
        },
        {
          "internalType": "uint64",
          "name": "_dstGasForCall",
          "type": "uint64"
        },
        {
          "internalType": "bool",
          "name": "_useZro",
          "type": "bool"
        },
        {
          "internalType": "bytes",
          "name": "_adapterParams",
          "type": "bytes"
        }
      ],
      "name": "estimateSendAndCallFee",
      "outputs": [
        {
          "internalType": "uint256",
          "name": "nativeFee",
          "type": "uint256"
        },
        {
          "internalType": "uint256",
          "name": "zroFee",
          "type": "uint256"
        }
      ],
      "stateMutability": "view",
      "type": "function"
    },
    {
      "inputs": [
        {
          "internalType": "uint16",
          "name": "_dstChainId",
          "type": "uint16"
        },
        {
          "internalType": "bytes32",
          "name": "_toAddress",
          "type": "bytes32"
        },
        {
          "internalType": "uint256",
          "name": "_amount",
          "type": "uint256"
        },
        {
          "internalType": "bool",
          "name": "_useZro",
          "type": "bool"
        },
        {
          "internalType": "bytes",
          "name": "_adapterParams",
          "type": "bytes"
        }
      ],
      "name": "estimateSendFee",
      "outputs": [
        {
          "internalType": "uint256",
          "name": "nativeFee",
          "type": "uint256"
        },
        {
          "internalType": "uint256",
          "name": "zroFee",
          "type": "uint256"
        }
      ],
      "stateMutability": "view",
      "type": "function"
    },
    {
      "inputs": [
        {
          "internalType": "uint16",
          "name": "",
          "type": "uint16"
        },
        {
          "internalType": "bytes",
          "name": "",
          "type": "bytes"
        },
        {
          "internalType": "uint64",
          "name": "",
          "type": "uint64"
        }
      ],
      "name": "failedMessages",
      "outputs": [
        {
          "internalType": "bytes32",
          "name": "",
          "type": "bytes32"
        }
      ],
      "stateMutability": "view",
      "type": "function"
    },
    {
      "inputs": [
        {
          "internalType": "uint16",
          "name": "_srcChainId",
          "type": "uint16"
        },
        {
          "internalType": "bytes",
          "name": "_srcAddress",
          "type": "bytes"
        }
      ],
      "name": "forceResumeReceive",
      "outputs": [],
      "stateMutability": "nonpayable",
      "type": "function"
    },
    {
      "inputs": [
        {
          "internalType": "uint16",
          "name": "_version",
          "type": "uint16"
        },
        {
          "internalType": "uint16",
          "name": "_chainId",
          "type": "uint16"
        },
        {
          "internalType": "address",
          "name": "",
          "type": "address"
        },
        {
          "internalType": "uint256",
          "name": "_configType",
          "type": "uint256"
        }
      ],
      "name": "getConfig",
      "outputs": [
        {
          "internalType": "bytes",
          "name": "",
          "type": "bytes"
        }
      ],
      "stateMutability": "view",
      "type": "function"
    },
    {
      "inputs": [
        {
          "internalType": "uint16",
          "name": "_remoteChainId",
          "type": "uint16"
        }
      ],
      "name": "getTrustedRemoteAddress",
      "outputs": [
        {
          "internalType": "bytes",
          "name": "",
          "type": "bytes"
        }
      ],
      "stateMutability": "view",
      "type": "function"
    },
    {
      "inputs": [],
      "name": "hostChainID",
      "outputs": [
        {
          "internalType": "uint256",
          "name": "",
          "type": "uint256"
        }
      ],
      "stateMutability": "view",
      "type": "function"
    },
    {
      "inputs": [
        {
          "internalType": "address",
          "name": "spender",
          "type": "address"
        },
        {
          "internalType": "uint256",
          "name": "addedValue",
          "type": "uint256"
        }
      ],
      "name": "increaseAllowance",
      "outputs": [
        {
          "internalType": "bool",
          "name": "",
          "type": "bool"
        }
      ],
      "stateMutability": "nonpayable",
      "type": "function"
    },
    {
      "inputs": [
        {
          "internalType": "address",
          "name": "from",
          "type": "address"
        },
        {
          "internalType": "uint256",
          "name": "share",
          "type": "uint256"
        },
        {
          "components": [
            {
              "internalType": "address",
              "name": "tokenOut",
              "type": "address"
            },
            {
              "internalType": "uint256",
              "name": "amountOutMin",
              "type": "uint256"
            },
            {
              "internalType": "bytes",
              "name": "data",
              "type": "bytes"
            }
          ],
          "internalType": "struct IUSDOBase.ILeverageSwapData",
          "name": "swapData",
          "type": "tuple"
        },
        {
          "components": [
            {
              "internalType": "uint256",
              "name": "srcExtraGasLimit",
              "type": "uint256"
            },
            {
              "internalType": "uint16",
              "name": "lzSrcChainId",
              "type": "uint16"
            },
            {
              "internalType": "uint16",
              "name": "lzDstChainId",
              "type": "uint16"
            },
            {
              "internalType": "address",
              "name": "zroPaymentAddress",
              "type": "address"
            },
            {
              "internalType": "bytes",
              "name": "dstAirdropAdapterParam",
              "type": "bytes"
            },
            {
              "internalType": "bytes",
              "name": "srcAirdropAdapterParam",
              "type": "bytes"
            },
            {
              "internalType": "address",
              "name": "refundAddress",
              "type": "address"
            }
          ],
          "internalType": "struct IUSDOBase.ILeverageLZData",
          "name": "lzData",
          "type": "tuple"
        },
        {
          "components": [
            {
              "internalType": "address",
              "name": "swapper",
              "type": "address"
            },
            {
              "internalType": "address",
              "name": "magnetar",
              "type": "address"
            },
            {
              "internalType": "address",
              "name": "tOft",
              "type": "address"
            },
            {
              "internalType": "address",
              "name": "srcMarket",
              "type": "address"
            }
          ],
          "internalType": "struct IUSDOBase.ILeverageExternalContractsData",
          "name": "externalData",
          "type": "tuple"
        },
        {
          "internalType": "bytes",
          "name": "airdropAdapterParams",
          "type": "bytes"
        },
        {
          "components": [
            {
              "internalType": "bool",
              "name": "permitAll",
              "type": "bool"
            },
            {
              "internalType": "bool",
              "name": "allowFailure",
              "type": "bool"
            },
            {
              "internalType": "address",
              "name": "target",
              "type": "address"
            },
            {
              "internalType": "bool",
              "name": "permitBorrow",
              "type": "bool"
            },
            {
              "internalType": "address",
              "name": "owner",
              "type": "address"
            },
            {
              "internalType": "address",
              "name": "spender",
              "type": "address"
            },
            {
              "internalType": "uint256",
              "name": "value",
              "type": "uint256"
            },
            {
              "internalType": "uint256",
              "name": "deadline",
              "type": "uint256"
            },
            {
              "internalType": "uint8",
              "name": "v",
              "type": "uint8"
            },
            {
              "internalType": "bytes32",
              "name": "r",
              "type": "bytes32"
            },
            {
              "internalType": "bytes32",
              "name": "s",
              "type": "bytes32"
            }
          ],
          "internalType": "struct ITapiocaOFT.IApproval[]",
          "name": "approvals",
          "type": "tuple[]"
        }
      ],
      "name": "initMultiSell",
      "outputs": [],
      "stateMutability": "payable",
      "type": "function"
    },
    {
      "inputs": [
        {
          "internalType": "uint16",
          "name": "_srcChainId",
          "type": "uint16"
        },
        {
          "internalType": "bytes",
          "name": "_srcAddress",
          "type": "bytes"
        }
      ],
      "name": "isTrustedRemote",
      "outputs": [
        {
          "internalType": "bool",
          "name": "",
          "type": "bool"
        }
      ],
      "stateMutability": "view",
      "type": "function"
    },
    {
      "inputs": [
        {
          "internalType": "address",
          "name": "module",
          "type": "address"
        },
        {
          "internalType": "uint16",
          "name": "_srcChainId",
          "type": "uint16"
        },
        {
          "internalType": "bytes",
          "name": "_payload",
          "type": "bytes"
        }
      ],
      "name": "leverageDown",
      "outputs": [],
      "stateMutability": "nonpayable",
      "type": "function"
    },
    {
      "inputs": [
        {
          "internalType": "uint256",
          "name": "amount",
          "type": "uint256"
        },
        {
          "components": [
            {
              "internalType": "address",
              "name": "tokenOut",
              "type": "address"
            },
            {
              "internalType": "uint256",
              "name": "amountOutMin",
              "type": "uint256"
            },
            {
              "internalType": "bytes",
              "name": "data",
              "type": "bytes"
            }
          ],
          "internalType": "struct IUSDOBase.ILeverageSwapData",
          "name": "swapData",
          "type": "tuple"
        },
        {
          "components": [
            {
              "internalType": "address",
              "name": "swapper",
              "type": "address"
            },
            {
              "internalType": "address",
              "name": "magnetar",
              "type": "address"
            },
            {
              "internalType": "address",
              "name": "tOft",
              "type": "address"
            },
            {
              "internalType": "address",
              "name": "srcMarket",
              "type": "address"
            }
          ],
          "internalType": "struct IUSDOBase.ILeverageExternalContractsData",
          "name": "externalData",
          "type": "tuple"
        },
        {
          "components": [
            {
              "internalType": "uint256",
              "name": "srcExtraGasLimit",
              "type": "uint256"
            },
            {
              "internalType": "uint16",
              "name": "lzSrcChainId",
              "type": "uint16"
            },
            {
              "internalType": "uint16",
              "name": "lzDstChainId",
              "type": "uint16"
            },
            {
              "internalType": "address",
              "name": "zroPaymentAddress",
              "type": "address"
            },
            {
              "internalType": "bytes",
              "name": "dstAirdropAdapterParam",
              "type": "bytes"
            },
            {
              "internalType": "bytes",
              "name": "srcAirdropAdapterParam",
              "type": "bytes"
            },
            {
              "internalType": "address",
              "name": "refundAddress",
              "type": "address"
            }
          ],
          "internalType": "struct IUSDOBase.ILeverageLZData",
          "name": "lzData",
          "type": "tuple"
        },
        {
          "internalType": "address",
          "name": "leverageFor",
          "type": "address"
        }
      ],
      "name": "leverageDownInternal",
      "outputs": [],
      "stateMutability": "payable",
      "type": "function"
    },
    {
      "inputs": [],
      "name": "lzEndpoint",
      "outputs": [
        {
          "internalType": "contract ILayerZeroEndpoint",
          "name": "",
          "type": "address"
        }
      ],
      "stateMutability": "view",
      "type": "function"
    },
    {
      "inputs": [
        {
          "internalType": "uint16",
          "name": "_srcChainId",
          "type": "uint16"
        },
        {
          "internalType": "bytes",
          "name": "_srcAddress",
          "type": "bytes"
        },
        {
          "internalType": "uint64",
          "name": "_nonce",
          "type": "uint64"
        },
        {
          "internalType": "bytes",
          "name": "_payload",
          "type": "bytes"
        }
      ],
      "name": "lzReceive",
      "outputs": [],
      "stateMutability": "nonpayable",
      "type": "function"
    },
    {
      "inputs": [
        {
          "internalType": "uint16",
          "name": "",
          "type": "uint16"
        },
        {
          "internalType": "uint16",
          "name": "",
          "type": "uint16"
        }
      ],
      "name": "minDstGasLookup",
      "outputs": [
        {
          "internalType": "uint256",
          "name": "",
          "type": "uint256"
        }
      ],
      "stateMutability": "view",
      "type": "function"
    },
    {
      "inputs": [
        {
          "internalType": "bytes",
          "name": "_payload",
          "type": "bytes"
        }
      ],
      "name": "multiHop",
      "outputs": [],
      "stateMutability": "nonpayable",
      "type": "function"
    },
    {
      "inputs": [],
      "name": "name",
      "outputs": [
        {
          "internalType": "string",
          "name": "",
          "type": "string"
        }
      ],
      "stateMutability": "view",
      "type": "function"
    },
    {
      "inputs": [
        {
          "internalType": "uint16",
          "name": "_srcChainId",
          "type": "uint16"
        },
        {
          "internalType": "bytes",
          "name": "_srcAddress",
          "type": "bytes"
        },
        {
          "internalType": "uint64",
          "name": "_nonce",
          "type": "uint64"
        },
        {
          "internalType": "bytes",
          "name": "_payload",
          "type": "bytes"
        }
      ],
      "name": "nonblockingLzReceive",
      "outputs": [],
      "stateMutability": "nonpayable",
      "type": "function"
    },
    {
      "inputs": [],
      "name": "owner",
      "outputs": [
        {
          "internalType": "address",
          "name": "",
          "type": "address"
        }
      ],
      "stateMutability": "view",
      "type": "function"
    },
    {
      "inputs": [
        {
          "internalType": "uint16",
          "name": "",
          "type": "uint16"
        }
      ],
      "name": "payloadSizeLimitLookup",
      "outputs": [
        {
          "internalType": "uint256",
          "name": "",
          "type": "uint256"
        }
      ],
      "stateMutability": "view",
      "type": "function"
    },
    {
      "inputs": [],
      "name": "precrime",
      "outputs": [
        {
          "internalType": "address",
          "name": "",
          "type": "address"
        }
      ],
      "stateMutability": "view",
      "type": "function"
    },
    {
      "inputs": [],
      "name": "renounceOwnership",
      "outputs": [],
      "stateMutability": "nonpayable",
      "type": "function"
    },
    {
      "inputs": [
        {
          "internalType": "uint16",
          "name": "_srcChainId",
          "type": "uint16"
        },
        {
          "internalType": "bytes",
          "name": "_srcAddress",
          "type": "bytes"
        },
        {
          "internalType": "uint64",
          "name": "_nonce",
          "type": "uint64"
        },
        {
          "internalType": "bytes",
          "name": "_payload",
          "type": "bytes"
        }
      ],
      "name": "retryMessage",
      "outputs": [],
      "stateMutability": "payable",
      "type": "function"
    },
    {
      "inputs": [
        {
          "internalType": "address",
          "name": "_from",
          "type": "address"
        },
        {
          "internalType": "uint16",
          "name": "_dstChainId",
          "type": "uint16"
        },
        {
          "internalType": "bytes32",
          "name": "_toAddress",
          "type": "bytes32"
        },
        {
          "internalType": "uint256",
          "name": "_amount",
          "type": "uint256"
        },
        {
          "internalType": "bytes",
          "name": "_payload",
          "type": "bytes"
        },
        {
          "internalType": "uint64",
          "name": "_dstGasForCall",
          "type": "uint64"
        },
        {
          "components": [
            {
              "internalType": "address payable",
              "name": "refundAddress",
              "type": "address"
            },
            {
              "internalType": "address",
              "name": "zroPaymentAddress",
              "type": "address"
            },
            {
              "internalType": "bytes",
              "name": "adapterParams",
              "type": "bytes"
            }
          ],
          "internalType": "struct ICommonOFT.LzCallParams",
          "name": "_callParams",
          "type": "tuple"
        }
      ],
      "name": "sendAndCall",
      "outputs": [],
      "stateMutability": "payable",
      "type": "function"
    },
    {
      "inputs": [
        {
          "internalType": "uint256",
          "name": "amount",
          "type": "uint256"
        },
        {
          "internalType": "address",
          "name": "leverageFor",
          "type": "address"
        },
        {
          "components": [
            {
              "internalType": "uint256",
              "name": "srcExtraGasLimit",
              "type": "uint256"
            },
            {
              "internalType": "uint16",
              "name": "lzSrcChainId",
              "type": "uint16"
            },
            {
              "internalType": "uint16",
              "name": "lzDstChainId",
              "type": "uint16"
            },
            {
              "internalType": "address",
              "name": "zroPaymentAddress",
              "type": "address"
            },
            {
              "internalType": "bytes",
              "name": "dstAirdropAdapterParam",
              "type": "bytes"
            },
            {
              "internalType": "bytes",
              "name": "srcAirdropAdapterParam",
              "type": "bytes"
            },
            {
              "internalType": "address",
              "name": "refundAddress",
              "type": "address"
            }
          ],
          "internalType": "struct IUSDOBase.ILeverageLZData",
          "name": "lzData",
          "type": "tuple"
        },
        {
          "components": [
            {
              "internalType": "address",
              "name": "tokenOut",
              "type": "address"
            },
            {
              "internalType": "uint256",
              "name": "amountOutMin",
              "type": "uint256"
            },
            {
              "internalType": "bytes",
              "name": "data",
              "type": "bytes"
            }
          ],
          "internalType": "struct IUSDOBase.ILeverageSwapData",
          "name": "swapData",
          "type": "tuple"
        },
        {
          "components": [
            {
              "internalType": "address",
              "name": "swapper",
              "type": "address"
            },
            {
              "internalType": "address",
              "name": "magnetar",
              "type": "address"
            },
            {
              "internalType": "address",
              "name": "tOft",
              "type": "address"
            },
            {
              "internalType": "address",
              "name": "srcMarket",
              "type": "address"
            }
          ],
          "internalType": "struct IUSDOBase.ILeverageExternalContractsData",
          "name": "externalData",
          "type": "tuple"
        }
      ],
      "name": "sendForLeverage",
      "outputs": [],
      "stateMutability": "payable",
      "type": "function"
    },
    {
      "inputs": [
        {
          "internalType": "address",
          "name": "_from",
          "type": "address"
        },
        {
          "internalType": "uint16",
          "name": "_dstChainId",
          "type": "uint16"
        },
        {
          "internalType": "bytes32",
          "name": "_toAddress",
          "type": "bytes32"
        },
        {
          "internalType": "uint256",
          "name": "_amount",
          "type": "uint256"
        },
        {
          "components": [
            {
              "internalType": "address payable",
              "name": "refundAddress",
              "type": "address"
            },
            {
              "internalType": "address",
              "name": "zroPaymentAddress",
              "type": "address"
            },
            {
              "internalType": "bytes",
              "name": "adapterParams",
              "type": "bytes"
            }
          ],
          "internalType": "struct ICommonOFT.LzCallParams",
          "name": "_callParams",
          "type": "tuple"
        }
      ],
      "name": "sendFrom",
      "outputs": [],
      "stateMutability": "payable",
      "type": "function"
    },
    {
      "inputs": [
        {
          "internalType": "uint16",
          "name": "_version",
          "type": "uint16"
        },
        {
          "internalType": "uint16",
          "name": "_chainId",
          "type": "uint16"
        },
        {
          "internalType": "uint256",
          "name": "_configType",
          "type": "uint256"
        },
        {
          "internalType": "bytes",
          "name": "_config",
          "type": "bytes"
        }
      ],
      "name": "setConfig",
      "outputs": [],
      "stateMutability": "nonpayable",
      "type": "function"
    },
    {
      "inputs": [
        {
          "internalType": "uint16",
          "name": "_dstChainId",
          "type": "uint16"
        },
        {
          "internalType": "uint16",
          "name": "_packetType",
          "type": "uint16"
        },
        {
          "internalType": "uint256",
          "name": "_minGas",
          "type": "uint256"
        }
      ],
      "name": "setMinDstGas",
      "outputs": [],
      "stateMutability": "nonpayable",
      "type": "function"
    },
    {
      "inputs": [
        {
          "internalType": "uint16",
          "name": "_dstChainId",
          "type": "uint16"
        },
        {
          "internalType": "uint256",
          "name": "_size",
          "type": "uint256"
        }
      ],
      "name": "setPayloadSizeLimit",
      "outputs": [],
      "stateMutability": "nonpayable",
      "type": "function"
    },
    {
      "inputs": [
        {
          "internalType": "address",
          "name": "_precrime",
          "type": "address"
        }
      ],
      "name": "setPrecrime",
      "outputs": [],
      "stateMutability": "nonpayable",
      "type": "function"
    },
    {
      "inputs": [
        {
          "internalType": "uint16",
          "name": "_version",
          "type": "uint16"
        }
      ],
      "name": "setReceiveVersion",
      "outputs": [],
      "stateMutability": "nonpayable",
      "type": "function"
    },
    {
      "inputs": [
        {
          "internalType": "uint16",
          "name": "_version",
          "type": "uint16"
        }
      ],
      "name": "setSendVersion",
      "outputs": [],
      "stateMutability": "nonpayable",
      "type": "function"
    },
    {
      "inputs": [
        {
          "internalType": "uint16",
          "name": "_srcChainId",
          "type": "uint16"
        },
        {
          "internalType": "bytes",
          "name": "_path",
          "type": "bytes"
        }
      ],
      "name": "setTrustedRemote",
      "outputs": [],
      "stateMutability": "nonpayable",
      "type": "function"
    },
    {
      "inputs": [
        {
          "internalType": "uint16",
          "name": "_remoteChainId",
          "type": "uint16"
        },
        {
          "internalType": "bytes",
          "name": "_remoteAddress",
          "type": "bytes"
        }
      ],
      "name": "setTrustedRemoteAddress",
      "outputs": [],
      "stateMutability": "nonpayable",
      "type": "function"
    },
    {
      "inputs": [
        {
          "internalType": "bool",
          "name": "_useCustomAdapterParams",
          "type": "bool"
        }
      ],
      "name": "setUseCustomAdapterParams",
      "outputs": [],
      "stateMutability": "nonpayable",
      "type": "function"
    },
    {
      "inputs": [],
      "name": "sharedDecimals",
      "outputs": [
        {
          "internalType": "uint8",
          "name": "",
          "type": "uint8"
        }
      ],
      "stateMutability": "view",
      "type": "function"
    },
    {
      "inputs": [
        {
          "internalType": "bytes4",
          "name": "interfaceId",
          "type": "bytes4"
        }
      ],
      "name": "supportsInterface",
      "outputs": [
        {
          "internalType": "bool",
          "name": "",
          "type": "bool"
        }
      ],
      "stateMutability": "view",
      "type": "function"
    },
    {
      "inputs": [],
      "name": "symbol",
      "outputs": [
        {
          "internalType": "string",
          "name": "",
          "type": "string"
        }
      ],
      "stateMutability": "view",
      "type": "function"
    },
    {
      "inputs": [],
      "name": "token",
      "outputs": [
        {
          "internalType": "address",
          "name": "",
          "type": "address"
        }
      ],
      "stateMutability": "view",
      "type": "function"
    },
    {
      "inputs": [],
      "name": "totalSupply",
      "outputs": [
        {
          "internalType": "uint256",
          "name": "",
          "type": "uint256"
        }
      ],
      "stateMutability": "view",
      "type": "function"
    },
    {
      "inputs": [
        {
          "internalType": "address",
          "name": "to",
          "type": "address"
        },
        {
          "internalType": "uint256",
          "name": "amount",
          "type": "uint256"
        }
      ],
      "name": "transfer",
      "outputs": [
        {
          "internalType": "bool",
          "name": "",
          "type": "bool"
        }
      ],
      "stateMutability": "nonpayable",
      "type": "function"
    },
    {
      "inputs": [
        {
          "internalType": "address",
          "name": "from",
          "type": "address"
        },
        {
          "internalType": "address",
          "name": "to",
          "type": "address"
        },
        {
          "internalType": "uint256",
          "name": "amount",
          "type": "uint256"
        }
      ],
      "name": "transferFrom",
      "outputs": [
        {
          "internalType": "bool",
          "name": "",
          "type": "bool"
        }
      ],
      "stateMutability": "nonpayable",
      "type": "function"
    },
    {
      "inputs": [
        {
          "internalType": "address",
          "name": "newOwner",
          "type": "address"
        }
      ],
      "name": "transferOwnership",
      "outputs": [],
      "stateMutability": "nonpayable",
      "type": "function"
    },
    {
      "inputs": [
        {
          "internalType": "uint16",
          "name": "",
          "type": "uint16"
        }
      ],
      "name": "trustedRemoteLookup",
      "outputs": [
        {
          "internalType": "bytes",
          "name": "",
          "type": "bytes"
        }
      ],
      "stateMutability": "view",
      "type": "function"
    },
    {
      "inputs": [],
      "name": "useCustomAdapterParams",
      "outputs": [
        {
          "internalType": "bool",
          "name": "",
          "type": "bool"
        }
      ],
      "stateMutability": "view",
      "type": "function"
    },
    {
      "inputs": [],
      "name": "yieldBox",
      "outputs": [
        {
          "internalType": "contract IYieldBoxBase",
          "name": "",
          "type": "address"
        }
      ],
      "stateMutability": "view",
      "type": "function"
    },
    {
      "stateMutability": "payable",
      "type": "receive"
    }
  ],
  "bytecode": "0x60e06040908082523462000576576200611c80380380916200002282856200057b565b833981019060e08183031262000576576200003d81620005b5565b906020906200004e828201620005b5565b818601516001600160a01b0380821696909291879003620005765760608401516001600160401b0395908681116200057657826200008e918701620005ef565b916080860151908782116200057657620000aa918701620005ef565b9060a086015160ff811696878203620005765760c00151978b5180956a546170696f63614f46542d60a81b85830152620000ee8151809287602b86019101620005ca565b8101039462000108602b600b97888101845201826200057b565b607f8d518096601d60fa1b878301526200012c8151809289602186019101620005ca565b810103936200014660216001968781018a5201886200057b565b841c16946000968988549d60018060a01b03199e8f33908216178b55823391167f8be0079c531659141344cd1fd0a4f28419497f9722a3daafe3b4186f6b6457e08c80a3166080528660a052825184811162000562578154938685811c9516801562000557575b8886101462000543578190601f95868111620004f0575b5088908683116001146200048c578b9262000480575b5050600019600383901b1c191690861b1790555b80519283116200046c57600c548481811c9116801562000461575b868210146200044d5782811162000404575b50849183116001146200039e57928293918392889462000392575b50501b916000199060031b1c191617600c555b601282116200033f575060120360ff81116200032b5760ff1690604d8211620003175750600a0a60c0521683600e541617600e5560ff196010541617601055600f55600d541617600d5551615ad190816200064b82396080518181816104a70152818161078e015281816108d601528181610a4e01528181610c16015281816116c501528181611f1e0152818161202e01528181612896015281816149330152614d21015260a051816117fc015260c051818181614f520152818161520001528181615471015261550b0152f35b634e487b7160e01b81526011600452602490fd5b634e487b7160e01b82526011600452602482fd5b6084908a519062461bcd60e51b82526004820152602760248201527f4f46543a20736861726564446563696d616c73206d757374206265203c3d20646044820152666563696d616c7360c81b6064820152fd5b01519250388062000236565b600c8752848720919083601f198116895b8888838310620003ec5750505010620003d2575b505050811b01600c5562000249565b015160001960f88460031b161c19169055388080620003c3565b868601518855909601959485019487935001620003af565b600c88528588208380860160051c82019288871062000443575b0160051c019085905b828110620004375750506200021b565b89815501859062000427565b925081926200041e565b634e487b7160e01b88526022600452602488fd5b90607f169062000209565b634e487b7160e01b87526041600452602487fd5b015190503880620001da565b848c52898c208994509190601f1984168d5b8c828210620004d95750508411620004bf575b505050811b019055620001ee565b015160001960f88460031b161c19169055388080620004b1565b8385015186558c979095019493840193016200049e565b909150838b52888b208680850160051c8201928b861062000539575b918a91869594930160051c01915b8281106200052a575050620001c4565b8d81558594508a91016200051a565b925081926200050c565b634e487b7160e01b8a52602260045260248afd5b94607f1694620001ad565b634e487b7160e01b89526041600452602489fd5b600080fd5b601f909101601f19168101906001600160401b038211908210176200059f57604052565b634e487b7160e01b600052604160045260246000fd5b51906001600160a01b03821682036200057657565b60005b838110620005de5750506000910152565b8181015183820152602001620005cd565b81601f82011215620005765780516001600160401b0381116200059f576040519262000626601f8301601f1916602001856200057b565b818452602082840101116200057657620006479160208085019101620005ca565b9056fe6080604052600436101561001b575b361561001957600080fd5b005b60003560e01c80621d3567146103bf57806254af3a146103ba57806301ffc9a7146103b557806306fdde03146103b057806307e0db17146103ab578063095ea7b3146103a65780630df37483146103a157806310ddb1371461039c57806318160ddd1461032957806323b872dd14610397578063313ce56714610392578063365260b41461038d57806339509351146103885780633d8b38f6146103835780633f1f4fa41461037e57806342d65a8d14610379578063447705151461036f578063462bae65146103745780634c42899a1461036f57806358c5cfb81461036a5780635b8c41e61461036557806366ad5c8a14610360578063695ef6bf1461035b57806370a0823114610356578063715018a6146103515780637533d7881461034c57806376203b4814610347578063785e9e8614610342578063796fd43a1461033d578063857749b0146103385780638cfd8f5c146103335780638da5cb5b1461032e5780639358928b14610329578063950c8a741461032457806395d89b411461031f5780639bdb98121461031a5780639f38369a14610315578063a0c5e95614610310578063a457c2d71461030b578063a4c51df514610306578063a6c3d16514610301578063a9059cbb146102fc578063b353aaa7146102f7578063baf3292d146102f2578063c4461834146102ed578063cbed8b9c146102e8578063d1deba1f146102e3578063db91d7cb146102de578063dd62ed3e146102d9578063de406577146102d4578063df2a5b3b146102cf578063e6a20ae6146102ca578063eab45d9c146102c5578063eaffd49a146102c0578063eb8d72b7146102bb578063ed629c5c146102b6578063f2fde38b146102b1578063f5ecbdbc146102ac5763fc0c546a0361000e57612900565b61282c565b612765565b612742565b6125f8565b61256f565b61250d565b6124f1565b6123fc565b6123d5565b612379565b6121fe565b61209b565b611fd2565b611fb5565b611f42565b611efe565b611ed4565b611d51565b611cbe565b611bff565b611b54565b6119b2565b611967565b6118c0565b611899565b61092d565b611872565b611820565b6117e2565b611650565b611629565b6113f1565b61139a565b611254565b611216565b611133565b6110ad565b611046565b610f3b565b610c75565b610dfc565b610bf4565b610bbb565b610b5f565b610ac4565b6109bc565b61098b565b61094b565b6108a4565b610865565b610830565b61075c565b610677565b6105c5565b6105a7565b61048a565b61ffff8116036103d057565b600080fd5b35906103e0826103c4565b565b9181601f840112156103d0578235916001600160401b0383116103d057602083818601950101116103d057565b608435906001600160401b03821682036103d057565b9060806003198301126103d05760043561043e816103c4565b916001600160401b03906024358281116103d0578161045f916004016103e2565b9390939260443581811681036103d057926064359182116103d057610486916004016103e2565b9091565b346103d05761049836610425565b91929493906001600160a01b037f00000000000000000000000000000000000000000000000000000000000000001633036105575761051c61052492610019976105156104fb6104f68a61ffff166000526001602052604060002090565b61137f565b805190818414918261054d575b508161052a575b50614835565b3691610daa565b923691610daa565b92614adf565b9050610537368486610daa565b602081519101209060208151910120143861050f565b1515915038610508565b60405162461bcd60e51b815260206004820152601e60248201527f4c7a4170703a20696e76616c696420656e64706f696e742063616c6c657200006044820152606490fd5b60009103126103d057565b346103d05760003660031901126103d0576020600f54604051908152f35b346103d05760203660031901126103d05760043563ffffffff60e01b81168091036103d057602090631f7ecdf760e01b811490811561060a575b506040519015158152f35b6301ffc9a760e01b149050386105ff565b60005b83811061062e5750506000910152565b818101518382015260200161061e565b906020916106578151809281855285808601910161061b565b601f01601f1916010190565b90602061067492818152019061063e565b90565b346103d057600080600319360112610759576040519080600b5461069a816112af565b8085529160019180831690811561072f57506001146106d4575b6106d0856106c481870382610d10565b60405191829182610663565b0390f35b9250600b83527f0175b7a638427703f0dbe7bb9bbf987a2551717b34e79f33b5b1008d1fa01db95b8284106107175750505081016020016106c4826106d06106b4565b805460208587018101919091529093019281016106fc565b8695506106d0969350602092506106c494915060ff191682840152151560051b82010192936106b4565b80fd5b346103d057600060203660031901126107595760043561077b816103c4565b61078361291b565b816001600160a01b037f00000000000000000000000000000000000000000000000000000000000000001691823b156107f657602461ffff918360405195869485936307e0db1760e01b85521660048401525af180156107f1576107e5575080f35b6107ee90610ca7565b80f35b613168565b5080fd5b6001600160a01b038116036103d057565b600435906103e0826107fa565b60e435906103e0826107fa565b35906103e0826107fa565b346103d05760403660031901126103d05761085a600435610850816107fa565b6024359033612b82565b602060405160018152f35b346103d05760403660031901126103d05761ffff600435610885816103c4565b61088d61291b565b166000526003602052602435604060002055600080f35b346103d05760006020366003190112610759576004356108c3816103c4565b6108cb61291b565b816001600160a01b037f00000000000000000000000000000000000000000000000000000000000000001691823b156107f657602461ffff918360405195869485936310ddb13760e01b85521660048401525af180156107f1576107e5575080f35b346103d05760003660031901126103d0576020600a54604051908152f35b346103d05760603660031901126103d05761085a60043561096b816107fa565b602435610977816107fa565b60443591610986833383612caf565b612a65565b346103d05760003660031901126103d057602060405160128152f35b801515036103d057565b35906103e0826109a7565b346103d05760a03660031901126103d0576004356109d9816103c4565b606435906109e6826109a7565b608435906001600160401b0382116103d057610a0b61051560409336906004016103e2565b90610a42610a25610a1d60443561546f565b602435615540565b928451958694859463040a7bb160e41b8652309060048701614ea6565b03816001600160a01b037f0000000000000000000000000000000000000000000000000000000000000000165afa9081156107f1576000908192610a93575b50604080519182526020820192909252f35b9050610ab6915060403d8111610abd575b610aae8183610d10565b810190613b07565b9038610a81565b503d610aa4565b346103d05760403660031901126103d057600435610ae1816107fa565b336000526009602052610b0b816040600020906001600160a01b0316600052602052604060002090565b546024358101809111610b225761085a9133612b82565b612973565b9060406003198301126103d057600435610b40816103c4565b91602435906001600160401b0382116103d057610486916004016103e2565b346103d057602061ffff610bac610b7536610b27565b9390911660005260018452610b97610b9e6040600020604051928380926112e9565b0382610d10565b848151910120923691610daa565b82815191012014604051908152f35b346103d05760203660031901126103d05761ffff600435610bdb816103c4565b1660005260036020526020604060002054604051908152f35b346103d057610c0236610b27565b9190610c0c61291b565b6001600160a01b037f00000000000000000000000000000000000000000000000000000000000000001691823b156103d057604051928380926342d65a8d60e01b825281610c636000988997889460048501614a70565b03925af180156107f1576107e5575080f35b346103d05760003660031901126103d057602060405160008152f35b634e487b7160e01b600052604160045260246000fd5b6001600160401b038111610cba57604052565b610c91565b608081019081106001600160401b03821117610cba57604052565b606081019081106001600160401b03821117610cba57604052565b604081019081106001600160401b03821117610cba57604052565b90601f801991011681019081106001600160401b03821117610cba57604052565b6040519060e082018281106001600160401b03821117610cba57604052565b6040519061016082018281106001600160401b03821117610cba57604052565b6040519060a082018281106001600160401b03821117610cba57604052565b6001600160401b038111610cba57601f01601f191660200190565b929192610db682610d8f565b91610dc46040519384610d10565b8294818452818301116103d0578281602093846000960137010152565b9080601f830112156103d05781602061067493359101610daa565b346103d05760203660031901126103d0576004356001600160401b0381116103d057610e2f610e3e913690600401610de1565b602080825183010191016134da565b91929650929394508051610ece575b50610e74610e68610e6860608501516001600160a01b031690565b6001600160a01b031690565b91823b156103d057600094610eab86926001600160a01b0394604051998a98899788966322f8cecd60e01b88521660048701613608565b03925af180156107f157610ebb57005b80610ec861001992610ca7565b8061059c565b610ed7906143be565b38610e4d565b908160609103126103d05790565b908160e09103126103d05790565b60809060831901126103d057608490565b9181601f840112156103d0578235916001600160401b0383116103d05760208085019461016085020101116103d057565b6101403660031901126103d057610f5061080b565b6001600160401b03906044358281116103d057610f71903690600401610edd565b906064358381116103d057610f8a903690600401610eeb565b610f9336610ef9565b90610104358581116103d057610fad9036906004016103e2565b929091610124359687116103d057610fcc610019973690600401610f0a565b96909560243590612f1b565b60606003198201126103d057600435610ff0816103c4565b916024356001600160401b03928382116103d05761101091600401610de1565b9160443590811681036103d05790565b60209061103a92826040519483868095519384920161061b565b82019081520301902090565b346103d05760206110a461ffff6110838361106036610fd8565b94909116600052600582526040600020826040519483868095519384920161061b565b820190815203019020906001600160401b0316600052602052604060002090565b54604051908152f35b346103d0576110bb36610425565b91929493903033036110df5761051c6110d992610019973691610daa565b92614eeb565b60405162461bcd60e51b815260206004820152602660248201527f4e6f6e626c6f636b696e674c7a4170703a2063616c6c6572206d7573742062656044820152650204c7a4170760d41b6064820152608490fd5b60a03660031901126103d05760043561114b816107fa565b602435611157816103c4565b604435916084356001600160401b0381116103d057602061ffff6001600160a01b03611196600080516020615a7c833981519152943690600401610edd565b9461120986356111a5816107fa565b6111c3610515878a0135996111b98b6107fa565b60408101906131d0565b6111cd818b61536c565b6111e26111db606435615509565b5085615717565b986111ee8a15156150d9565b6112006111fa8b61546f565b8d615540565b9234938c6148e7565b60405195865216941692a4005b346103d05760203660031901126103d0576001600160a01b0360043561123b816107fa565b1660005260086020526020604060002054604051908152f35b346103d0576000806003193601126107595761126e61291b565b80546001600160a01b03198116825581906001600160a01b03167f8be0079c531659141344cd1fd0a4f28419497f9722a3daafe3b4186f6b6457e08280a380f35b90600182811c921680156112df575b60208310146112c957565b634e487b7160e01b600052602260045260246000fd5b91607f16916112be565b90600092918054916112fa836112af565b91828252600193848116908160001461135c575060011461131c575b50505050565b90919394506000526020928360002092846000945b838610611348575050505001019038808080611316565b805485870183015294019385908201611331565b9294505050602093945060ff191683830152151560051b01019038808080611316565b906103e061139392604051938480926112e9565b0383610d10565b346103d05760203660031901126103d05761ffff6004356113ba816103c4565b1660005260016020526106d0610b976113dd6040600020604051928380926112e9565b60405191829160208352602083019061063e565b60e03660031901126103d057600435611409816107fa565b602435611415816103c4565b604435916001600160401b036084358181116103d0576114399036906004016103e2565b92909160a435818116918282036103d05760c4359081116103d057611462903690600401610edd565b92611499843596611472886107fa565b6114916114876020880135976111b9896107fa565b9890923691610daa565b963691610daa565b9460ff600654166000146115995760228651106115545761154d96866020966112006001600160a01b0396611209958e6115268f611513600080516020615a7c8339815191529f9d61ffff9e8f906022015193166000528f6002905261150d60406000206001600052602052604060002090565b546129a5565b9061151f8215156153c1565b101561540d565b61153b611534606435615509565b508a615717565b9d8e6115488115156150d9565b61546f565b90336155bf565b60405162461bcd60e51b815260206004820152601c60248201527f4c7a4170703a20696e76616c69642061646170746572506172616d73000000006044820152606490fd5b91959480949350516115d557611209600080516020615a7c8339815191529560209561ffff9561120061154d9a6001600160a01b03978e611526565b60405162461bcd60e51b815260206004820152602660248201527f4f4654436f72653a205f61646170746572506172616d73206d7573742062652060448201526532b6b83a3c9760d11b6064820152608490fd5b346103d05760003660031901126103d05760206001600160a01b03600e5416604051908152f35b6101003660031901126103d05760043560243561166c816107fa565b6001600160401b036044358181116103d05761168c903690600401610eeb565b906064359081116103d0576116a5903690600401610edd565b906116af36610ef9565b6040516303408e4760e41b8152936020856004817f00000000000000000000000000000000000000000000000000000000000000006001600160a01b03165afa9182156107f15761173d61178c9561172f6117819461179399611787976117b4575b5061171c8b33615717565b50876040519586948d3360208801613174565b03601f198101835282610d10565b604084019361174b85612f07565b9161175b610e6860c08401612f11565b9061177661176b60608501612f11565b9360808101906131d0565b959034963691610daa565b936148e7565b612f07565b61ffff1690565b6040519182523391829190600080516020615a7c83398151915290602090a4005b6117d49060203d81116117db575b6117cc8183610d10565b810190613153565b5038611711565b503d6117c2565b346103d05760003660031901126103d057602060405160ff7f0000000000000000000000000000000000000000000000000000000000000000168152f35b346103d05760403660031901126103d05760206110a4600435611842816103c4565b61ffff60243591611852836103c4565b166000526002835260406000209061ffff16600052602052604060002090565b346103d05760003660031901126103d05760206001600160a01b0360005416604051908152f35b346103d05760003660031901126103d05760206001600160a01b0360045416604051908152f35b346103d057600080600319360112610759576040519080600c546118e3816112af565b8085529160019180831690811561072f575060011461190c576106d0856106c481870382610d10565b9250600c83527fdf6966c971051c3d54ec59162606531493a51404a002842f56009d7e5cf4a8c75b82841061194f5750505081016020016106c4826106d06106b4565b80546020858701810191909152909301928101611934565b346103d057602060ff6119a661ffff6110838461198336610fd8565b94909116600052600782526040600020826040519483868095519384920161061b565b54166040519015158152f35b346103d05760203660031901126103d05761ffff6004356119d2816103c4565b166000526001602052610b976119f26040600020604051928380926112e9565b805115611a10576106c481611a0a6106d093516137a2565b90615867565b60405162461bcd60e51b815260206004820152601d60248201527f4c7a4170703a206e6f20747275737465642070617468207265636f72640000006044820152606490fd5b60809060431901126103d05760405190611a6e82610cbf565b81604435611a7b816107fa565b8152606435611a89816107fa565b6020820152608435611a9a816107fa565b6040820152606060a43591611aae836107fa565b0152565b91909160e0818403126103d057611ac7610d31565b9281358452611ad8602083016103d5565b6020850152611ae9604083016103d5565b6040850152611afa60608301610825565b60608501526001600160401b039160808101358381116103d05782611b20918301610de1565b608086015260a08101359283116103d057611b4260c092611b4d948301610de1565b60a086015201610825565b60c0830152565b600319610100368201126103d0576024356001600160401b03918282116103d05760609082360301126103d05760405190611b8e82610cda565b8060040135611b9c816107fa565b8252602481013560208301526044810135908382116103d0576004611bc49236920101610de1565b6040820152611bd236611a55565b60c4359283116103d057611bed610019933690600401611ab2565b90611bf6610818565b92600435613db6565b346103d05760403660031901126103d057600435611c1c816107fa565b60243590336000526009602052611c4a816040600020906001600160a01b0316600052602052604060002090565b5491808310611c6b57611c5f92039033612b82565b60405160018152602090f35b60405162461bcd60e51b815260206004820152602560248201527f45524332303a2064656372656173656420616c6c6f77616e63652062656c6f77604482015264207a65726f60d81b6064820152608490fd5b346103d05760e03660031901126103d057600435611cdb816103c4565b6001600160401b03906064358281116103d057611cfc9036906004016103e2565b611d0792919261040f565b60a43591611d14836109a7565b60c4359586116103d057611d2f611d3f9636906004016103e2565b9590946044359060243590614cc9565b60408051928352602083019190915290f35b346103d057611d5f36610b27565b90611d6861291b565b60405192602092808385870137611d946034868381013060601b88820152036014810188520186610d10565b60009361ffff8316855260019081815260408620918751916001600160401b038311610cba57611dce83611dc886546112af565b86614a8b565b80601f8411600114611e3e575091808092611e2d9695948a9b7f8c0400cfe2d1199b1a725c78960bcc2a344d869b80590d0f2bd005db15a572ce9b94611e33575b50501b916000199060031b1c19161790555b60405193849384614a70565b0390a180f35b015192503880611e0f565b91939498601f198416611e5687600052602060002090565b938a905b828210611ebd575050917f8c0400cfe2d1199b1a725c78960bcc2a344d869b80590d0f2bd005db15a572ce999a95939185611e2d98969410611ea4575b505050811b019055611e21565b015160001960f88460031b161c19169055388080611e97565b808886978294978701518155019601940190611e5a565b346103d05760403660031901126103d05761085a600435611ef4816107fa565b6024359033612a65565b346103d05760003660031901126103d05760206040516001600160a01b037f0000000000000000000000000000000000000000000000000000000000000000168152f35b346103d05760203660031901126103d0577f5db758e995a17ec1ad84bdef7e8c3293a0bd6179bcce400dff5d4c3d87db726b60206001600160a01b03600435611f8a816107fa565b611f9261291b565b16806bffffffffffffffffffffffff60a01b6004541617600455604051908152a1005b346103d05760003660031901126103d05760206040516127108152f35b346103d05760803660031901126103d057600435611fef816103c4565b602435611ffb816103c4565b6064356001600160401b0381116103d05761201a9036906004016103e2565b909261202461291b565b6001600160a01b037f00000000000000000000000000000000000000000000000000000000000000001690813b156103d05760008094610eab604051978896879586946332fb62e760e21b865261ffff80921660048701521660248501526044356044850152608060648501526084840191612d84565b6120a436610425565b9161ffff869492961660005260056020526120eb81604060002060206040518092878b833787820190815203019020906001600160401b0316600052602052604060002090565b549182156121ad5761219c84836121957fc264d91f3adc5588250e1551f547752ca0cfa8f6b530d243b9f9f4cab10ea8e59a6000612181846121698e8a8f6121a89f908f61214f906121426121639436908d610daa565b6020815191012014614c3c565b61ffff166000526005602052604060002090565b91614c23565b906001600160401b0316600052602052604060002090565b5561218d36878d610daa565b933691610daa565b9188614eeb565b60405195869586614c92565b0390a1005b60405162461bcd60e51b815260206004820152602360248201527f4e6f6e626c6f636b696e674c7a4170703a206e6f2073746f726564206d65737360448201526261676560e81b6064820152608490fd5b346103d05760603660031901126103d05760043561221b816107fa565b602435612227816103c4565b604435906001600160401b0382116103d05760006001600160a01b0361226461225583953690600401610de1565b6020808251830101910161367f565b909795508399945099929195909916986122e1612294306001600160a01b03166000526008602052604060002090565b54966122a0843061573d565b61172f8c6122c1306001600160a01b03166000526008602052604060002090565b549a6040519586946020860198635062f4ab60e11b8a52602487016136fe565b51915af4916122ee613772565b921561232a5750506040519283525061ffff16907fbf551ec93859b170f9b2141bd9298bf3f64322c6f7beb2543a0cb669834118bf90602090a3005b9185858061233e61234c95612364976137c0565b1015612368575b5050613992565b60405162461bcd60e51b815291829160048301610663565b0390fd5b61237291306137cd565b8380612345565b346103d05760403660031901126103d05760206110a460043561239b816107fa565b6001600160a01b03602435916123b0836107fa565b16600052600983526040600020906001600160a01b0316600052602052604060002090565b346103d05760003660031901126103d05760206001600160a01b03600d5416604051908152f35b346103d05760603660031901126103d057600435612419816103c4565b602435612425816103c4565b6044359161243161291b565b82156124ac576121a87f9d5c7c0b934da8fefa9c7760c98383778a12dfbfc0c3b3106518f43fb9508ac09361ffff83166000526002602052806124868560406000209061ffff16600052602052604060002090565b556040519384938460409194939294606082019561ffff80921683521660208201520152565b60405162461bcd60e51b815260206004820152601560248201527f4c7a4170703a20696e76616c6964206d696e47617300000000000000000000006044820152606490fd5b346103d05760003660031901126103d057602060405160018152f35b346103d05760203660031901126103d0577f1584ad594a70cbe1e6515592e1272a987d922b097ead875069cebe8b40c004a4602060043561254d816109a7565b61255561291b565b151560ff196006541660ff821617600655604051908152a1005b346103d0576101003660031901126103d05760043561258d816103c4565b6001600160401b03906024358281116103d0576125ae9036906004016103e2565b91906044359084821682036103d0576084356125c9816107fa565b60c4359586116103d0576125e46100199636906004016103e2565b94909360e4359660a4359460643593614dbf565b346103d05761260636610b27565b919061261061291b565b60009161ffff81168352600160209080825260408520916001600160401b038711610cba576126498761264385546112af565b85614a8b565b8590601f88116001146126b05750918680879893611e2d957ffa41487ad5d6728f0b19276fa1eddc16558578f5109fc39d2dc33c3230470dab99936126a5575b501b906000198460031b1c191617905560405193849384614a70565b880135925038612689565b90601f1988166126c585600052602060002090565b9288905b82821061272b575050918893917ffa41487ad5d6728f0b19276fa1eddc16558578f5109fc39d2dc33c3230470dab9899611e2d969410612711575b505082811b019055611e21565b870135600019600386901b60f8161c191690553880612704565b808685968294968c013581550195019301906126c9565b346103d05760003660031901126103d057602060ff600654166040519015158152f35b346103d05760203660031901126103d057600435612782816107fa565b61278a61291b565b6001600160a01b0380911680156127d857600080546001600160a01b03198116831782559092167f8be0079c531659141344cd1fd0a4f28419497f9722a3daafe3b4186f6b6457e08380a380f35b60405162461bcd60e51b815260206004820152602660248201527f4f776e61626c653a206e6577206f776e657220697320746865207a65726f206160448201526564647265737360d01b6064820152608490fd5b346103d05760803660031901126103d057600435612849816103c4565b60243590612856826103c4565b6128616044356107fa565b604051633d7b2f6f60e21b815261ffff91821660048201529116602482015230604482015260648035908201526000816084817f00000000000000000000000000000000000000000000000000000000000000006001600160a01b03165afa80156107f1576106d0916000916128df575b5060405191829182610663565b6128fa913d8091833e6128f28183610d10565b810190614a4b565b386128d2565b346103d05760003660031901126103d0576020604051308152f35b6001600160a01b0360005416330361292f57565b606460405162461bcd60e51b815260206004820152602060248201527f4f776e61626c653a2063616c6c6572206973206e6f7420746865206f776e65726044820152fd5b634e487b7160e01b600052601160045260246000fd5b90601f8201809211610b2257565b6051019081605111610b2257565b91908201809211610b2257565b156129b957565b60405162461bcd60e51b815260206004820152602360248201527f45524332303a207472616e7366657220746f20746865207a65726f206164647260448201526265737360e81b6064820152608490fd5b15612a1157565b60405162461bcd60e51b815260206004820152602660248201527f45524332303a207472616e7366657220616d6f756e7420657863656564732062604482015265616c616e636560d01b6064820152608490fd5b91906001600160a01b0390818416928315612b2f57612b14827fddf252ad1be2c89b69c2b068fc378daa952ba7f163c4a11628f55a4df523b3ef94612b2a941696612ab18815156129b2565b612afa84612ad2836001600160a01b03166000526008602052604060002090565b54612adf82821015612a0a565b03916001600160a01b03166000526008602052604060002090565b556001600160a01b03166000526008602052604060002090565b8054820190556040519081529081906020820190565b0390a3565b60405162461bcd60e51b815260206004820152602560248201527f45524332303a207472616e736665722066726f6d20746865207a65726f206164604482015264647265737360d81b6064820152608490fd5b906001600160a01b0391828116928315612c5e578216938415612c0e5780612bfd7f8c5be1e5ebec7d5bd14f71427d1e84f3dd0314c0f7b2291e5b200ac8c7c3b92594612be5612b2a956001600160a01b03166000526009602052604060002090565b906001600160a01b0316600052602052604060002090565b556040519081529081906020820190565b60405162461bcd60e51b815260206004820152602260248201527f45524332303a20617070726f766520746f20746865207a65726f206164647265604482015261737360f01b6064820152608490fd5b60405162461bcd60e51b8152602060048201526024808201527f45524332303a20617070726f76652066726f6d20746865207a65726f206164646044820152637265737360e01b6064820152608490fd5b906001600160a01b0382166000526009602052612ce3816040600020906001600160a01b0316600052602052604060002090565b549260018401612cf35750505050565b808410612d0e57612d05930391612b82565b38808080611316565b60405162461bcd60e51b815260206004820152601d60248201527f45524332303a20696e73756666696369656e7420616c6c6f77616e63650000006044820152606490fd5b9035601e19823603018112156103d05701602081359101916001600160401b0382116103d05781360383136103d057565b908060209392818452848401376000828201840152601f01601f1916010190565b906060612dd9610674936001600160a01b038135612dc2816107fa565b168452602081013560208501526040810190612d53565b9190928160408201520191612d84565b9061067490823581526020830135612e00816103c4565b61ffff80911660208301526040840135612e19816103c4565b1660408201526001600160a01b036060840135612e35816107fa565b16606082015260c080612e7d612e62612e516080880188612d53565b60e0608088015260e0870191612d84565b612e6f60a0880188612d53565b9086830360a0880152612d84565b94013591612e8a836107fa565b01906001600160a01b03169052565b60609081813591612ea9836107fa565b6001600160a01b038093168552826020820135612ec5816107fa565b166020860152826040820135612eda816107fa565b1660408601520135612eeb816107fa565b16910152565b60ff8116036103d057565b35906103e082612ef1565b35610674816103c4565b35610674816107fa565b96989791602094612f8c612f81612f6f612fa09489966001600160a01b038e9d9c9a9d6103056040519d8e01528c60408383169101521660608c015260808b015261018060a08b01526101a08a0190612da5565b888103601f190160c08a01528a612de9565b9160e0880190612e99565b858103601f19016101608701528685612d84565b848103601f190161018086015282815201979060005b81811061304e57505050906117879291612fde8261301597989903601f198101845283610d10565b6020850194612fec86612f07565b9261178161300b6060613004610e6860c08701612f11565b9401612f11565b9334963691610daa565b6001600160a01b03604051921691600080516020615a7c83398151915261ffff339316918061304981906000602083019252565b0390a4565b90919861016080826130f86130e860a08f61307460019861306e836109b1565b15159052565b61308c613083602083016109b1565b15156020870152565b6130ab61309b60408301610825565b6001600160a01b03166040870152565b6130c36130ba606083016109b1565b15156060870152565b6130e26130d260808301610825565b6001600160a01b03166080870152565b01610825565b6001600160a01b031660a0830152565b60c08d013560c082015260e08d013560e08201526131278d61311e610100809201612efc565b60ff1690830152565b610120808e013590820152610140808e013590820152019a01929101612fb6565b51906103e0826103c4565b908160209103126103d05751610674816103c4565b6040513d6000823e3d90fd5b946131bb6131b06001600160a01b03956131c99561012098959b9a9b6103088b5260208b015260408a01526101408060608b0152890190612da5565b926080880190612e99565b858203610100870152612de9565b9416910152565b903590601e19813603018212156103d057018035906001600160401b0382116103d0576020019181360383136103d057565b51906103e0826107fa565b9092919261321a81610d8f565b916132286040519384610d10565b8294828452828201116103d05760206103e093019061061b565b9080601f830112156103d05781516106749260200161320d565b91906060838203126103d0576040519061327582610cda565b81938051613282816107fa565b8352602081015160208401526040810151916001600160401b0383116103d0576040926132af9201613242565b910152565b91909160e0818403126103d0576132c9610d31565b92815184526132da60208301613148565b60208501526132eb60408301613148565b60408501526132fc60608301613202565b60608501526080820151916001600160401b03928381116103d05782613323918301613242565b608086015260a08101519283116103d05761334560c092611b4d948301613242565b60a086015201613202565b91908260809103126103d05760405161336881610cbf565b60608082948051613378816107fa565b84526020810151613388816107fa565b6020850152604081015161339b816107fa565b6040850152015191611aae836107fa565b51906103e0826109a7565b51906103e082612ef1565b81601f820112156103d0578051906001600160401b038211610cba5760408051936020916133f5838660051b0187610d10565b8486528286019183610160809702860101948186116103d0578401925b858410613423575050505050505090565b86848303126103d057848791613437610d50565b613440876133ac565b815261344d8388016133ac565b8382015261345c868801613202565b86820152606061346d8189016133ac565b90820152608061347e818901613202565b9082015260a061348f818901613202565b9082015260c0808801519082015260e080880151908201526101006134b58189016133b7565b9082015261012080880151908201526101408088015190820152815201930192613412565b90610160828203126103d0576134ef82613148565b9260208301519261350260408201613202565b926060820151926080830151906001600160401b03918281116103d0578361352b91860161325c565b9360a08101518381116103d057846135449183016132b4565b936135528160c08401613350565b936101408301519081116103d05761067492016133c2565b9060606040610674936001600160a01b03815116845260208101516020850152015191816040820152019061063e565b908151815261ffff806020840151166020830152604083015116604082015260c06001600160a01b03806060850151166060840152816135fe6135ec608087015160e0608088015260e087019061063e565b60a087015186820360a088015261063e565b9401511691015290565b9594929361363b6103e0956080946001600160a01b0361364995168a5260208a01526101008060408b015289019061356a565b90878203606089015261359a565b940190606090816001600160a01b0391828151168552826020820151166020860152826040820151166040860152015116910152565b919091610140818403126103d0578051613698816103c4565b926020820151926040830151926060810151916001600160401b03928381116103d057846136c791840161325c565b936136d58160808501613350565b936101008401519081116103d057610120916136f29185016132b4565b920151610674816107fa565b939260e09361376561372c6001600160a01b03956131c9959a999a89526101008060208b015289019061356a565b926040880190606090816001600160a01b0391828151168552826020820151166020860152826040820151166040860152015116910152565b85820360c087015261359a565b3d1561379d573d9061378382610d8f565b916137916040519384610d10565b82523d6000602084013e565b606090565b601319810191908211610b2257565b605019810191908211610b2257565b91908203918211610b2257565b613870916000806001600160a01b03604051946138258661381760209a8b83019863a9059cbb60e01b8a5260248401602090939291936001600160a01b0360408201951681520152565b03601f198101885287610d10565b16926040519461383486610cf5565b8786527f5361666545524332303a206c6f772d6c6576656c2063616c6c206661696c656488870152519082855af161386a613772565b91613901565b8051908161387d57505050565b828061388d9383010191016138ec565b156138955750565b6084906040519062461bcd60e51b82526004820152602a60248201527f5361666545524332303a204552433230206f7065726174696f6e20646964206e6044820152691bdd081cdd58d8d9595960b21b6064820152fd5b908160209103126103d05751610674816109a7565b919290156139635750815115613915575090565b3b1561391e5790565b60405162461bcd60e51b815260206004820152601d60248201527f416464726573733a2063616c6c20746f206e6f6e2d636f6e74726163740000006044820152606490fd5b8251909150156139765750805190602001fd5b60405162461bcd60e51b81529081906123649060048301610663565b60448151106139e3576004810151810190602081602484019303126103d0576024810151906001600160401b0382116103d0570190806043830112156103d05760248201516106749260440161320d565b506040516139f081610cf5565b6009815268544f46545f6461746160b81b602082015290565b91908260409103126103d057604051604081018181106001600160401b03821117610cba5760405260208082948051613a41816109a7565b8452015191611aae836109a7565b908181039161014083126103d057604091825193613a6c85610cda565b608081126103d0576080908451613a8281610cbf565b8451613a8d816107fa565b81526020850151602082015285850151613aa6816107fa565b86820152606085015160608201528652607f1901126103d057610100613b00928451613ad181610cbf565b6080820151815260a0820151602082015260c08201518682015260e08201516060820152602087015201613a09565b9082015290565b91908260409103126103d0576020825192015190565b91926106749493613b9c6040613bb394606081516001600160a01b03808251168a52602082015160208b01528482015116848a01520151606088015260606020820151805160808a0152602081015160a08a01528381015160c08a0152015160e088015201516101008601906020809180511515845201511515910152565b6101408401526001600160a01b0316610160830152565b6101a09081610180820152019061063e565b908160209103126103d0575190565b60405190613be182610cf5565b6002825261060f60f31b6020830152565b60608051808352602080930192608080936000915b848310613c175750505050505090565b909192939495846101606001928951613c3282825115159052565b808401511515828501526040818101516001600160a01b03169083015280870151151582880152808601516001600160a01b03168287015260a0818101516001600160a01b03169083015260c0818101519083015260e080820151908301526101008082015160ff169083015261012081810151908301526101409081015190820152019701959493019190613c07565b9060a06080610674938051151584526020810151602085015260408101511515604085015261ffff6060820151166060850152015191816080820152019061063e565b959291610674979591613da79561ffff60c0956001600160a01b038095818096168d521660208c01521660408a0152166060880152815115156080880152602082015160a08801526040820151838801528060608301511660e088015260808201511661010087015260a081015115156101208701520151610140850152613d986101c0806101608701528501613bf2565b90848203610180860152613cc3565b916101a081840391015261063e565b9390929192613dc58530614159565b613ddd610e68610e68600e546001600160a01b031690565b93613def81516001600160a01b031690565b6040805163095ea7b360e01b81526001600160a01b039092166004830152602482018890526020979194918886806044810103816000809c5af19586156107f157613ec89661412c575b50613e51610e68610e6886516001600160a01b031690565b90613e64600e546001600160a01b031690565b90613e7687516001600160a01b031690565b8451631fd177af60e11b81526001600160a01b0393841660048201529216602483015260448201526000606482018190526084820181905260a4820152956101409182918891908290819060c4820190565b03915afa80156107f157613f219683928a926140ff575b5050613ef8610e68610e6887516001600160a01b031690565b8a870151918a848901519385519a8b958694859363efa84c6d60e01b8552309160048601613b1d565b03925af19485156107f15787956140df575b50613f9b8884019689876060613f56610e68610e688d516001600160a01b031690565b970196613f6a88516001600160a01b031690565b86518096819482936305da91c960e31b845260048401602090939291936001600160a01b0360408201951681520152565b03915afa9586156107f1578a928a976140b0575b5051818301516001600160a01b03909116974796909161ffff16976060840151613fdf906001600160a01b031690565b9a516001600160a01b031691516001600160a01b031692613ffe610d31565b600181529d8e01528c8601526001600160a01b031660608c01526001600160a01b031660808b01528860a08b01528860c08b01528861403b610d70565b928184528301528883830152886060830152614055613bd4565b60808301525161406490614815565b91863b156140ac579061408e929151998a9889978896635620549760e01b88523060048901613d06565b03925af180156107f15761409f5750565b80610ec86103e092610ca7565b8880fd5b6140d1919750833d85116140d8575b6140c98183610d10565b810190613bc5565b9538613faf565b503d6140bf565b816140f79296503d8711610abd57610aae8183610d10565b509338613f33565b61411e9250803d10614125575b6141168183610d10565b810190613a4f565b3880613edf565b503d61410c565b61414b908a3d8c11614152575b6141438183610d10565b8101906138ec565b5038613e39565b503d614139565b9061416481336141cd565b600e546001600160a01b031691826141c4576000809350809281925af1614189613772565b501561419157565b60405162461bcd60e51b815260206004820152600b60248201526a1513d19517d9985a5b195960aa1b6044820152606490fd5b6103e0926137cd565b6001600160a01b0381169081156142b9576141fb816001600160a01b03166000526008602052604060002090565b5483811061426957837fddf252ad1be2c89b69c2b068fc378daa952ba7f163c4a11628f55a4df523b3ef9261424b600096612b2a9403916001600160a01b03166000526008602052604060002090565b5561425981600a5403600a55565b6040519081529081906020820190565b60405162461bcd60e51b815260206004820152602260248201527f45524332303a206275726e20616d6f756e7420657863656564732062616c616e604482015261636560f01b6064820152608490fd5b60405162461bcd60e51b815260206004820152602160248201527f45524332303a206275726e2066726f6d20746865207a65726f206164647265736044820152607360f81b6064820152608490fd5b805182101561431c5760209160051b010190565b634e487b7160e01b600052603260045260246000fd5b60009060033d1161433f57565b905060046000803e60005160e01c90565b600060443d1061067457604051600319913d83016004833e81516001600160401b03918282113d6024840111176143ad578184019485519384116143b5573d850101602084870101116143ad575061067492910160200190610d10565b949350505050565b50949350505050565b60005b8151811015614811576143e160606143d98385614308565b510151151590565b1561458c57604061440b610e68610e68836143fc8688614308565b5101516001600160a01b031690565b9061441b60806143fc8587614308565b61442a60a06143fc8688614308565b9260c06144378688614308565b51015160e06144468789614308565b5101519061446361010061445a898b614308565b51015160ff1690565b93610120614471898b614308565b5101516101406144818a8c614308565b51015190853b156103d057875196879586956301da8bf160e41b875260049b8c8801966144e5979360ff929897969360c0969260e087019a6001600160a01b0380921688521660208701526040860152606085015216608083015260a08201520152565b03815a6000948591f19081614579575b5061456f57600191614505614332565b6308c379a014614520575b50506107f1576001905b016143c1565b614528614350565b9081614535575b50614510565b60009350909161455161454d60206143d9888a614308565b1590565b1561452f575162461bcd60e51b815291829161236491908301610663565b505060019061451a565b80610ec861458692610ca7565b386144f5565b6145a06145998284614308565b5151151590565b1561470b5760406145bb610e68610e68836143fc8688614308565b906145cb60806143fc8587614308565b916145db60a06143fc8688614308565b60e06145e78688614308565b510151916145fb61010061445a888a614308565b90610120614609888a614308565b5101519361014061461a898b614308565b510151823b156103d057865163aba0784760e01b81526001600160a01b03988916600480830191909152989095166024860152604485019190915260ff9092166064840152608483019390935260a482015290600090829081838160c4810103925af190816146f8575b5061456f57600191614694614332565b6308c379a0146146ad575b50506107f15760019061451a565b6146b5614350565b90816146c2575b5061469f565b6000935090916146da61454d60206143d9888a614308565b156146bc575162461bcd60e51b815291829161236491908301610663565b80610ec861470592610ca7565b38614684565b6040614721610e68610e68836143fc8688614308565b9061473160806143fc8587614308565b61474060a06143fc8688614308565b9260c061474d8688614308565b51015160e061475c8789614308565b5101519061477061010061445a898b614308565b9361012061477e898b614308565b51015161014061478e8a8c614308565b51015190853b156103d0578751968795869563d505accf60e01b875260049b8c8801966147f2979360ff929897969360c0969260e087019a6001600160a01b0380921688521660208701526040860152606085015216608083015260a08201520152565b03815a6000948591f190816146f8575061456f57600191614694614332565b5050565b60405190600160f01b602083015260228201526022815261067481610cda565b1561483c57565b60405162461bcd60e51b815260206004820152602660248201527f4c7a4170703a20696e76616c696420736f757263652073656e64696e6720636f6044820152651b9d1c9858dd60d21b6064820152608490fd5b926148b561067497959361ffff6148c39416865260c0602087015260c086019061063e565b90848203604086015261063e565b936001600160a01b03809216606084015216608082015260a081840391015261063e565b946149109193929561ffff811660005260016020526149176040600020604051948580926112e9565b0384610d10565b82511561497e576149298551826149dc565b6001600160a01b037f00000000000000000000000000000000000000000000000000000000000000001693843b156103d05760009661408e91604051998a988997889662c5803160e81b885260048801614890565b60405162461bcd60e51b815260206004820152603060248201527f4c7a4170703a2064657374696e6174696f6e20636861696e206973206e6f742060448201526f61207472757374656420736f7572636560801b6064820152608490fd5b61ffff166000526003602052604060002054908115614a41575b116149fd57565b606460405162461bcd60e51b815260206004820152602060248201527f4c7a4170703a207061796c6f61642073697a6520697320746f6f206c617267656044820152fd5b61271091506149f6565b906020828203126103d05781516001600160401b0381116103d0576106749201613242565b60409061ffff61067495931681528160208201520191612d84565b90601f8111614a9957505050565b600091825260208220906020601f850160051c83019410614ad5575b601f0160051c01915b828110614aca57505050565b818155600101614abe565b9092508290614ab5565b929091614b515a604051633356ae4560e11b602082015261ffff871660248201526080604482015290614b4b82614b3d614b1c60a483018a61063e565b6001600160401b03881660648401528281036023190160848401528861063e565b03601f198101845283610d10565b30615a1e565b939015614b60575b5050505050565b614b6994614b73565b3880808080614b59565b9193614c107fe183f33de2837795525b4792ca4cd60535bd77c53b7e7030060bfcf5734d6b0c95614c1e939561ffff81516020830120961695866000526005602052614bd78361108360208b6040600020826040519483868095519384920161061b565b556001600160401b03614bfc604051988998895260a060208a015260a089019061063e565b92166040870152858203606087015261063e565b90838203608085015261063e565b0390a1565b6020919283604051948593843782019081520301902090565b15614c4357565b60405162461bcd60e51b815260206004820152602160248201527f4e6f6e626c6f636b696e674c7a4170703a20696e76616c6964207061796c6f616044820152601960fa1b6064820152608490fd5b91614cbe9060609461ffff6001600160401b039499989799168552608060208601526080850191612d84565b951660408201520152565b94919598979061154d614cf2604099614cea614cf897614d15993691610daa565b943691610daa565b9761546f565b928451968794859463040a7bb160e41b8652309060048701614ea6565b03816001600160a01b037f0000000000000000000000000000000000000000000000000000000000000000165afa9182156107f1576000908193614d5857509190565b905061048691925060403d8111610abd57610aae8183610d10565b93969491614da19061067499979461ffff6001600160401b039416875260c0602088015260c0870191612d84565b961660408401526060830152608082015260a0818503910152612d84565b91969792989594939094303303614e6157614de36001600160a01b039186306157b3565b941692836040517fbf551ec93859b170f9b2141bd9298bf3f64322c6f7beb2543a0cb669834118bf61ffff86169180614e218a829190602083019252565b0390a3833b156103d0576000988995614e51936040519c8d9b8c9a8b98633fe79aed60e11b8a5260048a01614d73565b0393f180156107f15761409f5750565b60405162461bcd60e51b815260206004820152601f60248201527f4f4654436f72653a2063616c6c6572206d757374206265204f4654436f7265006044820152606490fd5b91926001600160a01b03610674969461ffff614ed69416855216602084015260a0604084015260a083019061063e565b9215156060820152608081840391015261063e565b92919060ff614ef9846159c3565b16806150845750505060ff614f0d826159c3565b161580615079575b614f1e90615573565b614f30614f2a8261596b565b91615a0e565b9181926001600160a01b038093161561506f575b614f78906001600160401b037f000000000000000000000000000000000000000000000000000000000000000091166154f6565b91831692831561502a577fbf551ec93859b170f9b2141bd9298bf3f64322c6f7beb2543a0cb669834118bf91614fd861ffff92614fbf614fba87600a546129a5565b600a55565b6001600160a01b03166000526008602052604060002090565b8481540190558460007fddf252ad1be2c89b69c2b068fc378daa952ba7f163c4a11628f55a4df523b3ef6040518061501589829190602083019252565b0390a360405193845216918060208101612b2a565b60405162461bcd60e51b815260206004820152601f60248201527f45524332303a206d696e7420746f20746865207a65726f2061646472657373006044820152606490fd5b61dead9350614f44565b508051602914614f15565b600103615094576103e0936151b4565b60405162461bcd60e51b815260206004820152601c60248201527f4f4654436f72653a20756e6b6e6f776e207061636b65742074797065000000006044820152606490fd5b156150e057565b60405162461bcd60e51b815260206004820152601960248201527f4f4654436f72653a20616d6f756e7420746f6f20736d616c6c000000000000006044820152606490fd5b989796929394615184956001600160401b0361516060e099958d61ffff6001600160a01b03971690528d61010090816020820152019061063e565b961660408c015260608b015216608089015260a088015286820360c088015261063e565b930152565b6001600160401b036151a96040939695949660608452606084019061063e565b951660208201520152565b90916151bf8461562d565b90916151f06151e9876121696151e38b61ffff166000526007602052604060002090565b8c611020565b5460ff1690565b916152266001600160401b0392837f000000000000000000000000000000000000000000000000000000000000000091166154f6565b9288888b8315615322575b505050853b156152d757946152789694614b4b948a94614b3d948d996000146152d05750505a925b5a978b6040519a8b9863757fea4d60e11b60208b015260248a01615125565b90156152c55750906152c061ffff928560207fb8890edbfc1c74692f527444645f95489c3703cc2df42e4a366f5d06fa6cd88496975191012090604051948594169684615189565b0390a2565b926103e09492614b73565b1692615259565b50506040516001600160a01b039094168452507f9aedf5fdba8716db3b6705ca00150643309995d4f818a249ed6dde6677e7792d975091955085945050602084019250614c1e915050565b90612169615357926153518961533c615364979b3061573d565b9961ffff166000526007602052604060002090565b90611020565b805460ff19166001179055565b88888b615231565b60065460ff16156153b95760228251106115545761ffff60226103e0930151911660005260026020526153ac604060002060008052602052604060002090565b549061151f8215156153c1565b50516115d557565b156153c857565b60405162461bcd60e51b815260206004820152601a60248201527f4c7a4170703a206d696e4761734c696d6974206e6f74207365740000000000006044820152606490fd5b1561541457565b60405162461bcd60e51b815260206004820152601b60248201527f4c7a4170703a20676173206c696d697420697320746f6f206c6f7700000000006044820152606490fd5b634e487b7160e01b600052601260045260246000fd5b7f00000000000000000000000000000000000000000000000000000000000000009081156154f157046001600160401b03908181116154ac571690565b60405162461bcd60e51b815260206004820152601a60248201527f4f4654436f72653a20616d6f756e745344206f766572666c6f770000000000006044820152606490fd5b615459565b81810292918115918404141715610b2257565b7f000000000000000000000000000000000000000000000000000000000000000080156154f157810690818103908111610b225791565b90604051916000602084015260218301526001600160401b0360c01b9060c01b1660418201526029815261067481610cda565b1561557a57565b60405162461bcd60e51b815260206004820152601860248201527f4f4654436f72653a20696e76616c6964207061796c6f616400000000000000006044820152606490fd5b9392607192610674946001600160a01b03604051978895600160f81b602088015260218701526001600160401b0360c01b809460c01b16604187015216604985015260c01b16606983015261561d815180926020868601910161061b565b8101036051810184520182610d10565b90615645600160ff61563e856159c3565b1614615573565b61564e8261596b565b9061565883615a0e565b9060498451106156d257604984015193605181511061568d5761568a60518201519161568481516137b1565b906158e7565b91565b60405162461bcd60e51b815260206004820152601460248201527f746f55696e7436345f6f75744f66426f756e64730000000000000000000000006044820152606490fd5b60405162461bcd60e51b815260206004820152601560248201527f746f427974657333325f6f75744f66426f756e647300000000000000000000006044820152606490fd5b8161067491336001600160a01b03821603156141cd57615738823383612caf565b6141cd565b906001600160a01b03821691821561502a57600a5490828201809211610b22576000926157a46020927fddf252ad1be2c89b69c2b068fc378daa952ba7f163c4a11628f55a4df523b3ef94600a556001600160a01b03166000526008602052604060002090565b818154019055604051908152a3565b6106749183916001600160a01b0381163081141590816157df575b5015612a6557610986833383612caf565b9050331415386157ce565b156157f157565b60405162461bcd60e51b815260206004820152600e60248201526d736c6963655f6f766572666c6f7760901b6044820152606490fd5b1561582e57565b60405162461bcd60e51b8152602060048201526011602482015270736c6963655f6f75744f66426f756e647360781b6044820152606490fd5b61587b8261587481612989565b10156157ea565b6158888282511015615827565b816158a0575050604051600081526020810160405290565b60405191601f811691821560051b808486010193838501920101905b8084106158d45750508252601f01601f191660405290565b90928351815260208091019301906158bc565b6158f48261587481612989565b615909815161590284612997565b1115615827565b81615921575050604051600081526020810160405290565b60405191601f8116916051831560051b80858701019484860193010101905b8084106159585750508252601f01601f191660405290565b9092835181526020809101930190615940565b602181511061597e57602d015160601c90565b60405162461bcd60e51b815260206004820152601560248201527f746f416464726573735f6f75744f66426f756e647300000000000000000000006044820152606490fd5b60018151106159d3576001015190565b60405162461bcd60e51b8152602060048201526013602482015272746f55696e74385f6f75744f66426f756e647360681b6044820152606490fd5b602981511061568d576029015190565b6040519392909160009160c08601916001600160401b03831187841017610cba5783926040526096875282602088019560a036883760208451940192f1903d9060968211615a72575b6000908286523e9190565b60969150615a6756fed81fc9b8523134ed613870ed029d6170cbb73aa6a6bc311b9a642689fb9df59aa2646970667358221220f97695eb2087cb5119bac49ebcc059e3acef770d33f35ccfc6aaff6595c539ff64736f6c63430008120033",
  "linkReferences": {},
  "deployedLinkReferences": {}
}