{
  "_format": "hh-sol-artifact-1",
  "contractName": "BaseTOFTMarketDestinationModule",
  "sourceName": "contracts/tOFT/modules/BaseTOFTMarketDestinationModule.sol",
  "abi": [
    {
      "inputs": [
        {
          "internalType": "address",
          "name": "_lzEndpoint",
          "type": "address"
        },
        {
          "internalType": "address",
          "name": "_erc20",
          "type": "address"
        },
        {
          "internalType": "contract IYieldBoxBase",
          "name": "_yieldBox",
          "type": "address"
        },
        {
          "internalType": "contract ICluster",
          "name": "_cluster",
          "type": "address"
        },
        {
          "internalType": "string",
          "name": "_name",
          "type": "string"
        },
        {
          "internalType": "string",
          "name": "_symbol",
          "type": "string"
        },
        {
          "internalType": "uint8",
          "name": "_decimal",
          "type": "uint8"
        },
        {
          "internalType": "uint256",
          "name": "_hostChainID",
          "type": "uint256"
        }
      ],
      "stateMutability": "nonpayable",
      "type": "constructor"
    },
    {
      "inputs": [],
      "name": "ActionTypeNotValid",
      "type": "error"
    },
    {
      "inputs": [],
      "name": "GasNotValid",
      "type": "error"
    },
    {
      "inputs": [],
      "name": "NotAuthorized",
      "type": "error"
    },
    {
      "inputs": [],
      "name": "NotValid",
      "type": "error"
    },
    {
      "anonymous": false,
      "inputs": [
        {
          "indexed": true,
          "internalType": "address",
          "name": "owner",
          "type": "address"
        },
        {
          "indexed": true,
          "internalType": "address",
          "name": "spender",
          "type": "address"
        },
        {
          "indexed": false,
          "internalType": "uint256",
          "name": "value",
          "type": "uint256"
        }
      ],
      "name": "Approval",
      "type": "event"
    },
    {
      "anonymous": false,
      "inputs": [
        {
          "indexed": true,
          "internalType": "uint16",
          "name": "_srcChainId",
          "type": "uint16"
        },
        {
          "indexed": false,
          "internalType": "bytes",
          "name": "_srcAddress",
          "type": "bytes"
        },
        {
          "indexed": false,
          "internalType": "uint64",
          "name": "_nonce",
          "type": "uint64"
        },
        {
          "indexed": false,
          "internalType": "bytes32",
          "name": "_hash",
          "type": "bytes32"
        }
      ],
      "name": "CallOFTReceivedSuccess",
      "type": "event"
    },
    {
      "anonymous": false,
      "inputs": [
        {
          "indexed": false,
          "internalType": "uint16",
          "name": "_srcChainId",
          "type": "uint16"
        },
        {
          "indexed": false,
          "internalType": "bytes",
          "name": "_srcAddress",
          "type": "bytes"
        },
        {
          "indexed": false,
          "internalType": "uint64",
          "name": "_nonce",
          "type": "uint64"
        },
        {
          "indexed": false,
          "internalType": "bytes",
          "name": "_payload",
          "type": "bytes"
        },
        {
          "indexed": false,
          "internalType": "bytes",
          "name": "_reason",
          "type": "bytes"
        }
      ],
      "name": "MessageFailed",
      "type": "event"
    },
    {
      "anonymous": false,
      "inputs": [
        {
          "indexed": false,
          "internalType": "address",
          "name": "_address",
          "type": "address"
        }
      ],
      "name": "NonContractAddress",
      "type": "event"
    },
    {
      "anonymous": false,
      "inputs": [
        {
          "indexed": true,
          "internalType": "address",
          "name": "previousOwner",
          "type": "address"
        },
        {
          "indexed": true,
          "internalType": "address",
          "name": "newOwner",
          "type": "address"
        }
      ],
      "name": "OwnershipTransferred",
      "type": "event"
    },
    {
      "anonymous": false,
      "inputs": [
        {
          "indexed": true,
          "internalType": "uint16",
          "name": "_srcChainId",
          "type": "uint16"
        },
        {
          "indexed": true,
          "internalType": "address",
          "name": "_to",
          "type": "address"
        },
        {
          "indexed": false,
          "internalType": "uint256",
          "name": "_amount",
          "type": "uint256"
        }
      ],
      "name": "ReceiveFromChain",
      "type": "event"
    },
    {
      "anonymous": false,
      "inputs": [
        {
          "indexed": false,
          "internalType": "uint16",
          "name": "_srcChainId",
          "type": "uint16"
        },
        {
          "indexed": false,
          "internalType": "bytes",
          "name": "_srcAddress",
          "type": "bytes"
        },
        {
          "indexed": false,
          "internalType": "uint64",
          "name": "_nonce",
          "type": "uint64"
        },
        {
          "indexed": false,
          "internalType": "bytes32",
          "name": "_payloadHash",
          "type": "bytes32"
        }
      ],
      "name": "RetryMessageSuccess",
      "type": "event"
    },
    {
      "anonymous": false,
      "inputs": [
        {
          "indexed": true,
          "internalType": "uint16",
          "name": "_dstChainId",
          "type": "uint16"
        },
        {
          "indexed": true,
          "internalType": "address",
          "name": "_from",
          "type": "address"
        },
        {
          "indexed": true,
          "internalType": "bytes32",
          "name": "_toAddress",
          "type": "bytes32"
        },
        {
          "indexed": false,
          "internalType": "uint256",
          "name": "_amount",
          "type": "uint256"
        }
      ],
      "name": "SendToChain",
      "type": "event"
    },
    {
      "anonymous": false,
      "inputs": [
        {
          "indexed": false,
          "internalType": "uint16",
          "name": "_dstChainId",
          "type": "uint16"
        },
        {
          "indexed": false,
          "internalType": "uint16",
          "name": "_type",
          "type": "uint16"
        },
        {
          "indexed": false,
          "internalType": "uint256",
          "name": "_minDstGas",
          "type": "uint256"
        }
      ],
      "name": "SetMinDstGas",
      "type": "event"
    },
    {
      "anonymous": false,
      "inputs": [
        {
          "indexed": false,
          "internalType": "address",
          "name": "precrime",
          "type": "address"
        }
      ],
      "name": "SetPrecrime",
      "type": "event"
    },
    {
      "anonymous": false,
      "inputs": [
        {
          "indexed": false,
          "internalType": "uint16",
          "name": "_remoteChainId",
          "type": "uint16"
        },
        {
          "indexed": false,
          "internalType": "bytes",
          "name": "_path",
          "type": "bytes"
        }
      ],
      "name": "SetTrustedRemote",
      "type": "event"
    },
    {
      "anonymous": false,
      "inputs": [
        {
          "indexed": false,
          "internalType": "uint16",
          "name": "_remoteChainId",
          "type": "uint16"
        },
        {
          "indexed": false,
          "internalType": "bytes",
          "name": "_remoteAddress",
          "type": "bytes"
        }
      ],
      "name": "SetTrustedRemoteAddress",
      "type": "event"
    },
    {
      "anonymous": false,
      "inputs": [
        {
          "indexed": false,
          "internalType": "bool",
          "name": "_useCustomAdapterParams",
          "type": "bool"
        }
      ],
      "name": "SetUseCustomAdapterParams",
      "type": "event"
    },
    {
      "anonymous": false,
      "inputs": [
        {
          "indexed": true,
          "internalType": "address",
          "name": "from",
          "type": "address"
        },
        {
          "indexed": true,
          "internalType": "address",
          "name": "to",
          "type": "address"
        },
        {
          "indexed": false,
          "internalType": "uint256",
          "name": "value",
          "type": "uint256"
        }
      ],
      "name": "Transfer",
      "type": "event"
    },
    {
      "inputs": [],
      "name": "DEFAULT_PAYLOAD_SIZE_LIMIT",
      "outputs": [
        {
          "internalType": "uint256",
          "name": "",
          "type": "uint256"
        }
      ],
      "stateMutability": "view",
      "type": "function"
    },
    {
      "inputs": [],
      "name": "NO_EXTRA_GAS",
      "outputs": [
        {
          "internalType": "uint256",
          "name": "",
          "type": "uint256"
        }
      ],
      "stateMutability": "view",
      "type": "function"
    },
    {
      "inputs": [],
      "name": "PT_SEND",
      "outputs": [
        {
          "internalType": "uint8",
          "name": "",
          "type": "uint8"
        }
      ],
      "stateMutability": "view",
      "type": "function"
    },
    {
      "inputs": [],
      "name": "PT_SEND_AND_CALL",
      "outputs": [
        {
          "internalType": "uint8",
          "name": "",
          "type": "uint8"
        }
      ],
      "stateMutability": "view",
      "type": "function"
    },
    {
      "inputs": [],
      "name": "SWAP_MAX_SLIPPAGE",
      "outputs": [
        {
          "internalType": "uint256",
          "name": "",
          "type": "uint256"
        }
      ],
      "stateMutability": "view",
      "type": "function"
    },
    {
      "inputs": [
        {
          "internalType": "address",
          "name": "owner",
          "type": "address"
        },
        {
          "internalType": "address",
          "name": "spender",
          "type": "address"
        }
      ],
      "name": "allowance",
      "outputs": [
        {
          "internalType": "uint256",
          "name": "",
          "type": "uint256"
        }
      ],
      "stateMutability": "view",
      "type": "function"
    },
    {
      "inputs": [
        {
          "internalType": "address",
          "name": "spender",
          "type": "address"
        },
        {
          "internalType": "uint256",
          "name": "amount",
          "type": "uint256"
        }
      ],
      "name": "approve",
      "outputs": [
        {
          "internalType": "bool",
          "name": "",
          "type": "bool"
        }
      ],
      "stateMutability": "nonpayable",
      "type": "function"
    },
    {
      "inputs": [
        {
          "internalType": "address",
          "name": "account",
          "type": "address"
        }
      ],
      "name": "balanceOf",
      "outputs": [
        {
          "internalType": "uint256",
          "name": "",
          "type": "uint256"
        }
      ],
      "stateMutability": "view",
      "type": "function"
    },
    {
      "inputs": [
        {
          "internalType": "address",
          "name": "module",
          "type": "address"
        },
        {
          "internalType": "uint16",
          "name": "_srcChainId",
          "type": "uint16"
        },
        {
          "internalType": "bytes",
          "name": "_srcAddress",
          "type": "bytes"
        },
        {
          "internalType": "uint64",
          "name": "_nonce",
          "type": "uint64"
        },
        {
          "internalType": "bytes",
          "name": "_payload",
          "type": "bytes"
        }
      ],
      "name": "borrow",
      "outputs": [],
      "stateMutability": "payable",
      "type": "function"
    },
    {
      "inputs": [
        {
          "internalType": "address",
          "name": "module",
          "type": "address"
        },
        {
          "internalType": "bytes32",
          "name": "_to",
          "type": "bytes32"
        },
        {
          "components": [
            {
              "internalType": "uint256",
              "name": "amount",
              "type": "uint256"
            },
            {
              "internalType": "uint256",
              "name": "borrowAmount",
              "type": "uint256"
            },
            {
              "internalType": "address",
              "name": "marketHelper",
              "type": "address"
            },
            {
              "internalType": "address",
              "name": "market",
              "type": "address"
            }
          ],
          "internalType": "struct ITapiocaOFT.IBorrowParams",
          "name": "borrowParams",
          "type": "tuple"
        },
        {
          "components": [
            {
              "internalType": "bool",
              "name": "withdraw",
              "type": "bool"
            },
            {
              "internalType": "uint256",
              "name": "withdrawLzFeeAmount",
              "type": "uint256"
            },
            {
              "internalType": "bool",
              "name": "withdrawOnOtherChain",
              "type": "bool"
            },
            {
              "internalType": "uint16",
              "name": "withdrawLzChainId",
              "type": "uint16"
            },
            {
              "internalType": "bytes",
              "name": "withdrawAdapterParams",
              "type": "bytes"
            },
            {
              "internalType": "bool",
              "name": "unwrap",
              "type": "bool"
            }
          ],
          "internalType": "struct ICommonData.IWithdrawParams",
          "name": "withdrawParams",
          "type": "tuple"
        },
        {
          "internalType": "uint256",
          "name": "airdropAmount",
          "type": "uint256"
        }
      ],
      "name": "borrowInternal",
      "outputs": [],
      "stateMutability": "payable",
      "type": "function"
    },
    {
      "inputs": [
        {
          "internalType": "uint16",
          "name": "_srcChainId",
          "type": "uint16"
        },
        {
          "internalType": "bytes",
          "name": "_srcAddress",
          "type": "bytes"
        },
        {
          "internalType": "uint64",
          "name": "_nonce",
          "type": "uint64"
        },
        {
          "internalType": "bytes32",
          "name": "_from",
          "type": "bytes32"
        },
        {
          "internalType": "address",
          "name": "_to",
          "type": "address"
        },
        {
          "internalType": "uint256",
          "name": "_amount",
          "type": "uint256"
        },
        {
          "internalType": "bytes",
          "name": "_payload",
          "type": "bytes"
        },
        {
          "internalType": "uint256",
          "name": "_gasForCall",
          "type": "uint256"
        }
      ],
      "name": "callOnOFTReceived",
      "outputs": [],
      "stateMutability": "nonpayable",
      "type": "function"
    },
    {
      "inputs": [],
      "name": "circulatingSupply",
      "outputs": [
        {
          "internalType": "uint256",
          "name": "",
          "type": "uint256"
        }
      ],
      "stateMutability": "view",
      "type": "function"
    },
    {
      "inputs": [],
      "name": "cluster",
      "outputs": [
        {
          "internalType": "contract ICluster",
          "name": "",
          "type": "address"
        }
      ],
      "stateMutability": "view",
      "type": "function"
    },
    {
      "inputs": [
        {
          "internalType": "uint16",
          "name": "",
          "type": "uint16"
        },
        {
          "internalType": "bytes",
          "name": "",
          "type": "bytes"
        },
        {
          "internalType": "uint64",
          "name": "",
          "type": "uint64"
        }
      ],
      "name": "creditedPackets",
      "outputs": [
        {
          "internalType": "bool",
          "name": "",
          "type": "bool"
        }
      ],
      "stateMutability": "view",
      "type": "function"
    },
    {
      "inputs": [],
      "name": "decimals",
      "outputs": [
        {
          "internalType": "uint8",
          "name": "",
          "type": "uint8"
        }
      ],
      "stateMutability": "view",
      "type": "function"
    },
    {
      "inputs": [
        {
          "internalType": "address",
          "name": "spender",
          "type": "address"
        },
        {
          "internalType": "uint256",
          "name": "subtractedValue",
          "type": "uint256"
        }
      ],
      "name": "decreaseAllowance",
      "outputs": [
        {
          "internalType": "bool",
          "name": "",
          "type": "bool"
        }
      ],
      "stateMutability": "nonpayable",
      "type": "function"
    },
    {
      "inputs": [],
      "name": "erc20",
      "outputs": [
        {
          "internalType": "address",
          "name": "",
          "type": "address"
        }
      ],
      "stateMutability": "view",
      "type": "function"
    },
    {
      "inputs": [
        {
          "internalType": "uint16",
          "name": "_dstChainId",
          "type": "uint16"
        },
        {
          "internalType": "bytes32",
          "name": "_toAddress",
          "type": "bytes32"
        },
        {
          "internalType": "uint256",
          "name": "_amount",
          "type": "uint256"
        },
        {
          "internalType": "bytes",
          "name": "_payload",
          "type": "bytes"
        },
        {
          "internalType": "uint64",
          "name": "_dstGasForCall",
          "type": "uint64"
        },
        {
          "internalType": "bool",
          "name": "_useZro",
          "type": "bool"
        },
        {
          "internalType": "bytes",
          "name": "_adapterParams",
          "type": "bytes"
        }
      ],
      "name": "estimateSendAndCallFee",
      "outputs": [
        {
          "internalType": "uint256",
          "name": "nativeFee",
          "type": "uint256"
        },
        {
          "internalType": "uint256",
          "name": "zroFee",
          "type": "uint256"
        }
      ],
      "stateMutability": "view",
      "type": "function"
    },
    {
      "inputs": [
        {
          "internalType": "uint16",
          "name": "_dstChainId",
          "type": "uint16"
        },
        {
          "internalType": "bytes32",
          "name": "_toAddress",
          "type": "bytes32"
        },
        {
          "internalType": "uint256",
          "name": "_amount",
          "type": "uint256"
        },
        {
          "internalType": "bool",
          "name": "_useZro",
          "type": "bool"
        },
        {
          "internalType": "bytes",
          "name": "_adapterParams",
          "type": "bytes"
        }
      ],
      "name": "estimateSendFee",
      "outputs": [
        {
          "internalType": "uint256",
          "name": "nativeFee",
          "type": "uint256"
        },
        {
          "internalType": "uint256",
          "name": "zroFee",
          "type": "uint256"
        }
      ],
      "stateMutability": "view",
      "type": "function"
    },
    {
      "inputs": [
        {
          "internalType": "uint16",
          "name": "",
          "type": "uint16"
        },
        {
          "internalType": "bytes",
          "name": "",
          "type": "bytes"
        },
        {
          "internalType": "uint64",
          "name": "",
          "type": "uint64"
        }
      ],
      "name": "failedMessages",
      "outputs": [
        {
          "internalType": "bytes32",
          "name": "",
          "type": "bytes32"
        }
      ],
      "stateMutability": "view",
      "type": "function"
    },
    {
      "inputs": [
        {
          "internalType": "uint16",
          "name": "_srcChainId",
          "type": "uint16"
        },
        {
          "internalType": "bytes",
          "name": "_srcAddress",
          "type": "bytes"
        }
      ],
      "name": "forceResumeReceive",
      "outputs": [],
      "stateMutability": "nonpayable",
      "type": "function"
    },
    {
      "inputs": [
        {
          "internalType": "uint16",
          "name": "_version",
          "type": "uint16"
        },
        {
          "internalType": "uint16",
          "name": "_chainId",
          "type": "uint16"
        },
        {
          "internalType": "address",
          "name": "",
          "type": "address"
        },
        {
          "internalType": "uint256",
          "name": "_configType",
          "type": "uint256"
        }
      ],
      "name": "getConfig",
      "outputs": [
        {
          "internalType": "bytes",
          "name": "",
          "type": "bytes"
        }
      ],
      "stateMutability": "view",
      "type": "function"
    },
    {
      "inputs": [
        {
          "internalType": "uint16",
          "name": "_remoteChainId",
          "type": "uint16"
        }
      ],
      "name": "getTrustedRemoteAddress",
      "outputs": [
        {
          "internalType": "bytes",
          "name": "",
          "type": "bytes"
        }
      ],
      "stateMutability": "view",
      "type": "function"
    },
    {
      "inputs": [],
      "name": "hostChainID",
      "outputs": [
        {
          "internalType": "uint256",
          "name": "",
          "type": "uint256"
        }
      ],
      "stateMutability": "view",
      "type": "function"
    },
    {
      "inputs": [
        {
          "internalType": "address",
          "name": "spender",
          "type": "address"
        },
        {
          "internalType": "uint256",
          "name": "addedValue",
          "type": "uint256"
        }
      ],
      "name": "increaseAllowance",
      "outputs": [
        {
          "internalType": "bool",
          "name": "",
          "type": "bool"
        }
      ],
      "stateMutability": "nonpayable",
      "type": "function"
    },
    {
      "inputs": [
        {
          "internalType": "uint16",
          "name": "_srcChainId",
          "type": "uint16"
        },
        {
          "internalType": "bytes",
          "name": "_srcAddress",
          "type": "bytes"
        }
      ],
      "name": "isTrustedRemote",
      "outputs": [
        {
          "internalType": "bool",
          "name": "",
          "type": "bool"
        }
      ],
      "stateMutability": "view",
      "type": "function"
    },
    {
      "inputs": [],
      "name": "lzEndpoint",
      "outputs": [
        {
          "internalType": "contract ILayerZeroEndpoint",
          "name": "",
          "type": "address"
        }
      ],
      "stateMutability": "view",
      "type": "function"
    },
    {
      "inputs": [
        {
          "internalType": "uint16",
          "name": "_srcChainId",
          "type": "uint16"
        },
        {
          "internalType": "bytes",
          "name": "_srcAddress",
          "type": "bytes"
        },
        {
          "internalType": "uint64",
          "name": "_nonce",
          "type": "uint64"
        },
        {
          "internalType": "bytes",
          "name": "_payload",
          "type": "bytes"
        }
      ],
      "name": "lzReceive",
      "outputs": [],
      "stateMutability": "nonpayable",
      "type": "function"
    },
    {
      "inputs": [
        {
          "internalType": "uint16",
          "name": "",
          "type": "uint16"
        },
        {
          "internalType": "uint16",
          "name": "",
          "type": "uint16"
        }
      ],
      "name": "minDstGasLookup",
      "outputs": [
        {
          "internalType": "uint256",
          "name": "",
          "type": "uint256"
        }
      ],
      "stateMutability": "view",
      "type": "function"
    },
    {
      "inputs": [],
      "name": "name",
      "outputs": [
        {
          "internalType": "string",
          "name": "",
          "type": "string"
        }
      ],
      "stateMutability": "view",
      "type": "function"
    },
    {
      "inputs": [
        {
          "internalType": "uint16",
          "name": "_srcChainId",
          "type": "uint16"
        },
        {
          "internalType": "bytes",
          "name": "_srcAddress",
          "type": "bytes"
        },
        {
          "internalType": "uint64",
          "name": "_nonce",
          "type": "uint64"
        },
        {
          "internalType": "bytes",
          "name": "_payload",
          "type": "bytes"
        }
      ],
      "name": "nonblockingLzReceive",
      "outputs": [],
      "stateMutability": "nonpayable",
      "type": "function"
    },
    {
      "inputs": [],
      "name": "owner",
      "outputs": [
        {
          "internalType": "address",
          "name": "",
          "type": "address"
        }
      ],
      "stateMutability": "view",
      "type": "function"
    },
    {
      "inputs": [
        {
          "internalType": "uint16",
          "name": "",
          "type": "uint16"
        }
      ],
      "name": "payloadSizeLimitLookup",
      "outputs": [
        {
          "internalType": "uint256",
          "name": "",
          "type": "uint256"
        }
      ],
      "stateMutability": "view",
      "type": "function"
    },
    {
      "inputs": [],
      "name": "precrime",
      "outputs": [
        {
          "internalType": "address",
          "name": "",
          "type": "address"
        }
      ],
      "stateMutability": "view",
      "type": "function"
    },
    {
      "inputs": [
        {
          "internalType": "address",
          "name": "",
          "type": "address"
        },
        {
          "internalType": "uint16",
          "name": "",
          "type": "uint16"
        },
        {
          "internalType": "bytes",
          "name": "",
          "type": "bytes"
        },
        {
          "internalType": "uint64",
          "name": "",
          "type": "uint64"
        },
        {
          "internalType": "bytes",
          "name": "_payload",
          "type": "bytes"
        }
      ],
      "name": "remove",
      "outputs": [],
      "stateMutability": "nonpayable",
      "type": "function"
    },
    {
      "inputs": [],
      "name": "renounceOwnership",
      "outputs": [],
      "stateMutability": "nonpayable",
      "type": "function"
    },
    {
      "inputs": [
        {
          "internalType": "uint16",
          "name": "_srcChainId",
          "type": "uint16"
        },
        {
          "internalType": "bytes",
          "name": "_srcAddress",
          "type": "bytes"
        },
        {
          "internalType": "uint64",
          "name": "_nonce",
          "type": "uint64"
        },
        {
          "internalType": "bytes",
          "name": "_payload",
          "type": "bytes"
        }
      ],
      "name": "retryMessage",
      "outputs": [],
      "stateMutability": "payable",
      "type": "function"
    },
    {
      "inputs": [
        {
          "internalType": "address",
          "name": "_from",
          "type": "address"
        },
        {
          "internalType": "uint16",
          "name": "_dstChainId",
          "type": "uint16"
        },
        {
          "internalType": "bytes32",
          "name": "_toAddress",
          "type": "bytes32"
        },
        {
          "internalType": "uint256",
          "name": "_amount",
          "type": "uint256"
        },
        {
          "internalType": "bytes",
          "name": "_payload",
          "type": "bytes"
        },
        {
          "internalType": "uint64",
          "name": "_dstGasForCall",
          "type": "uint64"
        },
        {
          "components": [
            {
              "internalType": "address payable",
              "name": "refundAddress",
              "type": "address"
            },
            {
              "internalType": "address",
              "name": "zroPaymentAddress",
              "type": "address"
            },
            {
              "internalType": "bytes",
              "name": "adapterParams",
              "type": "bytes"
            }
          ],
          "internalType": "struct ICommonOFT.LzCallParams",
          "name": "_callParams",
          "type": "tuple"
        }
      ],
      "name": "sendAndCall",
      "outputs": [],
      "stateMutability": "payable",
      "type": "function"
    },
    {
      "inputs": [
        {
          "internalType": "address",
          "name": "_from",
          "type": "address"
        },
        {
          "internalType": "uint16",
          "name": "_dstChainId",
          "type": "uint16"
        },
        {
          "internalType": "bytes32",
          "name": "_toAddress",
          "type": "bytes32"
        },
        {
          "internalType": "uint256",
          "name": "_amount",
          "type": "uint256"
        },
        {
          "components": [
            {
              "internalType": "address payable",
              "name": "refundAddress",
              "type": "address"
            },
            {
              "internalType": "address",
              "name": "zroPaymentAddress",
              "type": "address"
            },
            {
              "internalType": "bytes",
              "name": "adapterParams",
              "type": "bytes"
            }
          ],
          "internalType": "struct ICommonOFT.LzCallParams",
          "name": "_callParams",
          "type": "tuple"
        }
      ],
      "name": "sendFrom",
      "outputs": [],
      "stateMutability": "payable",
      "type": "function"
    },
    {
      "inputs": [
        {
          "internalType": "uint16",
          "name": "_version",
          "type": "uint16"
        },
        {
          "internalType": "uint16",
          "name": "_chainId",
          "type": "uint16"
        },
        {
          "internalType": "uint256",
          "name": "_configType",
          "type": "uint256"
        },
        {
          "internalType": "bytes",
          "name": "_config",
          "type": "bytes"
        }
      ],
      "name": "setConfig",
      "outputs": [],
      "stateMutability": "nonpayable",
      "type": "function"
    },
    {
      "inputs": [
        {
          "internalType": "uint256",
          "name": "_slippage",
          "type": "uint256"
        }
      ],
      "name": "setMaxSlippage",
      "outputs": [],
      "stateMutability": "nonpayable",
      "type": "function"
    },
    {
      "inputs": [
        {
          "internalType": "uint16",
          "name": "_dstChainId",
          "type": "uint16"
        },
        {
          "internalType": "uint16",
          "name": "_packetType",
          "type": "uint16"
        },
        {
          "internalType": "uint256",
          "name": "_minGas",
          "type": "uint256"
        }
      ],
      "name": "setMinDstGas",
      "outputs": [],
      "stateMutability": "nonpayable",
      "type": "function"
    },
    {
      "inputs": [
        {
          "internalType": "uint16",
          "name": "_dstChainId",
          "type": "uint16"
        },
        {
          "internalType": "uint256",
          "name": "_size",
          "type": "uint256"
        }
      ],
      "name": "setPayloadSizeLimit",
      "outputs": [],
      "stateMutability": "nonpayable",
      "type": "function"
    },
    {
      "inputs": [
        {
          "internalType": "address",
          "name": "_precrime",
          "type": "address"
        }
      ],
      "name": "setPrecrime",
      "outputs": [],
      "stateMutability": "nonpayable",
      "type": "function"
    },
    {
      "inputs": [
        {
          "internalType": "uint16",
          "name": "_version",
          "type": "uint16"
        }
      ],
      "name": "setReceiveVersion",
      "outputs": [],
      "stateMutability": "nonpayable",
      "type": "function"
    },
    {
      "inputs": [
        {
          "internalType": "uint16",
          "name": "_version",
          "type": "uint16"
        }
      ],
      "name": "setSendVersion",
      "outputs": [],
      "stateMutability": "nonpayable",
      "type": "function"
    },
    {
      "inputs": [
        {
          "internalType": "uint16",
          "name": "_srcChainId",
          "type": "uint16"
        },
        {
          "internalType": "bytes",
          "name": "_path",
          "type": "bytes"
        }
      ],
      "name": "setTrustedRemote",
      "outputs": [],
      "stateMutability": "nonpayable",
      "type": "function"
    },
    {
      "inputs": [
        {
          "internalType": "uint16",
          "name": "_remoteChainId",
          "type": "uint16"
        },
        {
          "internalType": "bytes",
          "name": "_remoteAddress",
          "type": "bytes"
        }
      ],
      "name": "setTrustedRemoteAddress",
      "outputs": [],
      "stateMutability": "nonpayable",
      "type": "function"
    },
    {
      "inputs": [
        {
          "internalType": "bool",
          "name": "_useCustomAdapterParams",
          "type": "bool"
        }
      ],
      "name": "setUseCustomAdapterParams",
      "outputs": [],
      "stateMutability": "nonpayable",
      "type": "function"
    },
    {
      "inputs": [],
      "name": "sharedDecimals",
      "outputs": [
        {
          "internalType": "uint8",
          "name": "",
          "type": "uint8"
        }
      ],
      "stateMutability": "view",
      "type": "function"
    },
    {
      "inputs": [
        {
          "internalType": "bytes4",
          "name": "interfaceId",
          "type": "bytes4"
        }
      ],
      "name": "supportsInterface",
      "outputs": [
        {
          "internalType": "bool",
          "name": "",
          "type": "bool"
        }
      ],
      "stateMutability": "view",
      "type": "function"
    },
    {
      "inputs": [],
      "name": "symbol",
      "outputs": [
        {
          "internalType": "string",
          "name": "",
          "type": "string"
        }
      ],
      "stateMutability": "view",
      "type": "function"
    },
    {
      "inputs": [],
      "name": "token",
      "outputs": [
        {
          "internalType": "address",
          "name": "",
          "type": "address"
        }
      ],
      "stateMutability": "view",
      "type": "function"
    },
    {
      "inputs": [],
      "name": "totalSupply",
      "outputs": [
        {
          "internalType": "uint256",
          "name": "",
          "type": "uint256"
        }
      ],
      "stateMutability": "view",
      "type": "function"
    },
    {
      "inputs": [
        {
          "internalType": "address",
          "name": "to",
          "type": "address"
        },
        {
          "internalType": "uint256",
          "name": "amount",
          "type": "uint256"
        }
      ],
      "name": "transfer",
      "outputs": [
        {
          "internalType": "bool",
          "name": "",
          "type": "bool"
        }
      ],
      "stateMutability": "nonpayable",
      "type": "function"
    },
    {
      "inputs": [
        {
          "internalType": "address",
          "name": "from",
          "type": "address"
        },
        {
          "internalType": "address",
          "name": "to",
          "type": "address"
        },
        {
          "internalType": "uint256",
          "name": "amount",
          "type": "uint256"
        }
      ],
      "name": "transferFrom",
      "outputs": [
        {
          "internalType": "bool",
          "name": "",
          "type": "bool"
        }
      ],
      "stateMutability": "nonpayable",
      "type": "function"
    },
    {
      "inputs": [
        {
          "internalType": "address",
          "name": "newOwner",
          "type": "address"
        }
      ],
      "name": "transferOwnership",
      "outputs": [],
      "stateMutability": "nonpayable",
      "type": "function"
    },
    {
      "inputs": [
        {
          "internalType": "uint16",
          "name": "",
          "type": "uint16"
        }
      ],
      "name": "trustedRemoteLookup",
      "outputs": [
        {
          "internalType": "bytes",
          "name": "",
          "type": "bytes"
        }
      ],
      "stateMutability": "view",
      "type": "function"
    },
    {
      "inputs": [],
      "name": "useCustomAdapterParams",
      "outputs": [
        {
          "internalType": "bool",
          "name": "",
          "type": "bool"
        }
      ],
      "stateMutability": "view",
      "type": "function"
    },
    {
      "inputs": [],
      "name": "yieldBox",
      "outputs": [
        {
          "internalType": "contract IYieldBoxBase",
          "name": "",
          "type": "address"
        }
      ],
      "stateMutability": "view",
      "type": "function"
    },
    {
      "stateMutability": "payable",
      "type": "receive"
    }
  ],
  "bytecode": "0x60e0604090808252346200059f5762005ba28038038091620000228285620005a4565b83398101610100828203126200059f576200003d82620005de565b906020926200004e848201620005de565b818601516001600160a01b03808216949290918590036200059f576060840151968288168098036200059f5760808501516001600160401b0394908581116200059f57816200009f91880162000618565b9060a0870151908682116200059f57620000bb91880162000618565b9160c087015160ff8116968782036200059f5762000116602b60e08f9b01519a5180966a546170696f63614f46542d60a81b878301526200010581518092898686019101620005f3565b810103600b810187520185620005a4565b607f8d518096601d60fa1b868301526200013a8151809288602186019101620005f3565b810103926200015460216001958681018a520188620005a4565b831c16936000958887549d60018060a01b03199e8f33908216178a55823391167f8be0079c531659141344cd1fd0a4f28419497f9722a3daafe3b4186f6b6457e08b80a3166080528560a05281518381116200058b57600b54928584811c9416801562000580575b878510146200056c578190601f9485811162000518575b508790858311600114620004b2578a92620004a6575b5050600019600383901b1c191690851b17600b555b80519283116200049257600c548481811c9116801562000487575b8682101462000473578281116200042a575b5084918311600114620003c4579282939183928894620003b8575b50501b916000199060031b1c191617600c555b6012821162000365575060120360ff8111620003515760ff1690604d82116200033d5750600a0a60c0526101f46012551684600f541617600f5560ff19601154161760115560105581600d541617600d55600e541617600e555161552e908162000674823960805181818161049f01528181610780015281816108a401528181610c6401528181610e250152818161200c015281816122e401528181612a17015281816145780152614995015260a0518161154f015260c05181818161177d01528181612106015281816147ac01528181614b8a01528181614de50152614e7c0152f35b634e487b7160e01b81526011600452602490fd5b634e487b7160e01b82526011600452602482fd5b6084908b519062461bcd60e51b82526004820152602760248201527f4f46543a20736861726564446563696d616c73206d757374206265203c3d20646044820152666563696d616c7360c81b6064820152fd5b01519250388062000246565b600c8752848720919083601f198116895b8888838310620004125750505010620003f8575b505050811b01600c5562000259565b015160001960f88460031b161c19169055388080620003e9565b868601518855909601959485019487935001620003d5565b600c88528588208380860160051c82019288871062000469575b0160051c019085905b8281106200045d5750506200022b565b8981550185906200044d565b9250819262000444565b634e487b7160e01b88526022600452602488fd5b90607f169062000219565b634e487b7160e01b87526041600452602487fd5b015190503880620001e9565b600b8b52888b208894509190601f1984168c5b8b828210620005015750508411620004e7575b505050811b01600b55620001fe565b015160001960f88460031b161c19169055388080620004d8565b8385015186558b97909501949384019301620004c5565b909150600b8a52878a208580850160051c8201928a861062000562575b918991869594930160051c01915b82811062000553575050620001d3565b8c815585945089910162000543565b9250819262000535565b634e487b7160e01b89526022600452602489fd5b93607f1693620001bc565b634e487b7160e01b88526041600452602488fd5b600080fd5b601f909101601f19168101906001600160401b03821190821017620005c857604052565b634e487b7160e01b600052604160045260246000fd5b51906001600160a01b03821682036200059f57565b60005b838110620006075750506000910152565b8181015183820152602001620005f6565b81601f820112156200059f5780516001600160401b038111620005c857604051926200064f601f8301601f191660200185620005a4565b818452602082840101116200059f57620006709160208085019101620005f3565b9056fe6080604052600436101561001b575b361561001957600080fd5b005b60003560e01c80621d3567146103cf57806254af3a146103ca57806301ffc9a7146103c557806306fdde03146103c057806307e0db17146103bb578063095ea7b3146103b65780630df37483146103b157806310ddb137146103ac57806318160ddd1461033e57806323b872dd146103a7578063313ce567146103a257806333ac90ab1461039d578063365260b41461039857806339509351146103935780633d8b38f61461038e5780633f1f4fa41461038957806342d65a8d1461038457806343f68a491461037f578063447705151461037a5780634c42899a1461037a5780635b8c41e61461037557806366ad5c8a14610370578063695ef6bf1461036b57806370a0823114610366578063715018a6146103615780637533d7881461035c57806376203b4814610357578063785e9e8614610352578063857749b01461034d5780638cfd8f5c146103485780638da5cb5b146103435780639358928b1461033e578063950c8a741461033957806395d89b4114610334578063981853081461032f5780639bdb98121461032a5780639f38369a14610325578063a457c2d714610320578063a4c51df51461031b578063a643c52e14610316578063a6c3d16514610311578063a9059cbb1461030c578063b353aaa714610307578063baf3292d14610302578063bc48a9e8146102fd578063c4461834146102f8578063cbed8b9c146102f3578063d1deba1f146102ee578063dbd01de1146102e9578063dd62ed3e146102e4578063de406577146102df578063df2a5b3b146102da578063e6a20ae6146102d5578063eab45d9c146102d0578063eaffd49a146102cb578063eb8d72b7146102c6578063ed629c5c146102c1578063f2fde38b146102bc578063f5ecbdbc146102b75763fc0c546a0361000e57612a81565b6129ad565b6128e6565b6128c3565b612779565b6126f0565b61268e565b612672565b612585565b61255c565b612502565b6124d9565b612376565b612290565b612273565b6120ab565b61203b565b611ff6565b611fcc565b611e49565b611e2b565b611d94565b611cd6565b611c33565b611be8565b611725565b611617565b6115ee565b610905565b6115c5565b611573565b611535565b61150c565b6112ee565b611297565b61114f565b611112565b61102f565b610f9b565b610f34565b610ead565b610e8c565b610e0b565b610dd2565b610d76565b610ce2565b610bda565b610b48565b610963565b610923565b61087b565b61083c565b610807565b610757565b610677565b6105c5565b6105a7565b610488565b61ffff8116036103e057565b600080fd5b9181601f840112156103e0578235916001600160401b0383116103e057602083818601950101116103e057565b6001600160401b038116036103e057565b9060806003198301126103e05760043561043c816103d4565b916001600160401b03906024358281116103e0578161045d916004016103e5565b9390939260443561046d81610412565b926064359182116103e057610484916004016103e5565b9091565b346103e05761049636610423565b929493919291907f00000000000000000000000000000000000000000000000000000000000000006001600160a01b031633036105575761051c61052492610019976105156104fb6104f68a61ffff166000526001602052604060002090565b61127a565b805190818414918261054d575b508161052a575b506141fc565b3691610a64565b923691610a64565b9261430c565b9050610537368486610a64565b602081519101209060208151910120143861050f565b1515915038610508565b60405162461bcd60e51b815260206004820152601e60248201527f4c7a4170703a20696e76616c696420656e64706f696e742063616c6c657200006044820152606490fd5b60009103126103e057565b346103e05760003660031901126103e0576020601054604051908152f35b346103e05760203660031901126103e05760043563ffffffff60e01b81168091036103e057602090631f7ecdf760e01b811490811561060a575b506040519015158152f35b6301ffc9a760e01b149050386105ff565b60005b83811061062e5750506000910152565b818101518382015260200161061e565b906020916106578151809281855285808601910161061b565b601f01601f1916010190565b90602061067492818152019061063e565b90565b346103e0576000806003193601126107545760405181600b54610699816111aa565b8084529060019081811690811561072c57506001146106d3575b6106cf846106c3818803826109fe565b60405191829182610663565b0390f35b600b8352602094507f0175b7a638427703f0dbe7bb9bbf987a2551717b34e79f33b5b1008d1fa01db95b82841061071957505050816106cf936106c392820101936106b3565b80548585018701529285019281016106fd565b6106cf96506106c39450602092508593915060ff191682840152151560051b820101936106b3565b80fd5b346103e0576000602036600319011261075457600435610776816103d4565b61077e612a9c565b7f00000000000000000000000000000000000000000000000000000000000000006001600160a01b0316908290823b156107f257602461ffff918360405195869485936307e0db1760e01b85521660048401525af180156107ed576107e1575080f35b6107ea90610995565b80f35b613614565b5080fd5b6001600160a01b038116036103e057565b346103e05760403660031901126103e057610831600435610827816107f6565b6024359033612cdf565b602060405160018152f35b346103e05760403660031901126103e05761ffff60043561085c816103d4565b610864612a9c565b166000526003602052602435604060002055600080f35b346103e057600060203660031901126107545760043561089a816103d4565b6108a2612a9c565b7f00000000000000000000000000000000000000000000000000000000000000006001600160a01b0316908290823b156107f257602461ffff918360405195869485936310ddb13760e01b85521660048401525af180156107ed576107e1575080f35b346103e05760003660031901126103e0576020600a54604051908152f35b346103e05760603660031901126103e057610831600435610943816107f6565b60243561094f816107f6565b6044359161095e833383612e0a565b612c10565b346103e05760003660031901126103e057602060405160128152f35b634e487b7160e01b600052604160045260246000fd5b6001600160401b0381116109a857604052565b61097f565b60c081019081106001600160401b038211176109a857604052565b608081019081106001600160401b038211176109a857604052565b604081019081106001600160401b038211176109a857604052565b90601f801991011681019081106001600160401b038211176109a857604052565b604051906101c082018281106001600160401b038211176109a857604052565b801515036103e057565b6001600160401b0381116109a857601f01601f191660200190565b929192610a7082610a49565b91610a7e60405193846109fe565b8294818452818301116103e0578281602093846000960137010152565b9080601f830112156103e05781602061067493359101610a64565b91909160c0818403126103e05760405190610ad0826109ad565b81938135610add81610a3f565b8352602082013560208401526040820135610af781610a3f565b60408401526060820135610b0a816103d4565b60608401526080820135916001600160401b0383116103e057610b3360a0939284938301610a9b565b6080850152013591610b4483610a3f565b0152565b6101003660031901126103e057600435610b61816107f6565b60803660431901126103e05760405190610b7a826109c8565b60443582526064356020830152608435610b93816107f6565b604083015260a435610ba4816107f6565b606083015260c435916001600160401b0383116103e057610bcc610019933690600401610ab6565b9060e4359260243590613620565b346103e05760a03660031901126103e057600435610bf7816103d4565b60643590610c0482610a3f565b608435906001600160401b0382116103e057610c2961051560409336906004016103e5565b90610c60610c43610c3b604435614de3565b602435614eb1565b928451958694859463040a7bb160e41b8652309060048701614701565b03817f00000000000000000000000000000000000000000000000000000000000000006001600160a01b03165afa9081156107ed576000908192610cb1575b50604080519182526020820192909252f35b9050610cd4915060403d8111610cdb575b610ccc81836109fe565b8101906146eb565b9038610c9f565b503d610cc2565b346103e05760403660031901126103e057600435610cff816107f6565b3360009081526009602090815260408083206001600160a01b03851684529091529020546024358101809111610d39576108319133612cdf565b612b1e565b9060406003198301126103e057600435610d57816103d4565b91602435906001600160401b0382116103e057610484916004016103e5565b346103e057602061ffff610dc3610d8c36610d3e565b9390911660005260018452610dae610db56040600020604051928380926111e4565b03826109fe565b848151910120923691610a64565b82815191012014604051908152f35b346103e05760203660031901126103e05761ffff600435610df2816103d4565b1660005260036020526020604060002054604051908152f35b346103e057610e1936610d3e565b9190610e23612a9c565b7f00000000000000000000000000000000000000000000000000000000000000006001600160a01b031691823b156103e057604051928380926342d65a8d60e01b825281610e7a600098899788946004850161429d565b03925af180156107ed576107e1575080f35b346103e05760203660031901126103e057610ea5612a9c565b600435601255005b346103e05760003660031901126103e057602060405160008152f35b9060606003198301126103e057600435610ee2816103d4565b91602435906001600160401b0382116103e057610f0191600401610a9b565b9060443561067481610412565b602090610f2892826040519483868095519384920161061b565b82019081520301902090565b346103e0576020610f9261ffff610f7183610f4e36610ec9565b94909116600052600582526040600020826040519483868095519384920161061b565b820190815203019020906001600160401b0316600052602052604060002090565b54604051908152f35b346103e057610fa936610423565b9192949390303303610fcd5761051c610fc792610019973691610a64565b92614745565b60405162461bcd60e51b815260206004820152602660248201527f4e6f6e626c6f636b696e674c7a4170703a2063616c6c6572206d7573742062656044820152650204c7a4170760d41b6064820152608490fd5b908160609103126103e05790565b60a03660031901126103e057600435611047816107f6565b602435611053816103d4565b604435916084356001600160401b0381116103e057602061ffff61108a600080516020615499833981519152933690600401611021565b936110fd8535611099816107f6565b6110b761051586890135986110ad8a6107f6565b60408101906144f6565b6110c1818a614ce3565b6110d66110cf606435614e7a565b5085615084565b976110e28915156148b1565b6110f46110ee8a614de3565b8c614eb1565b9234938b614951565b6040519485526001600160a01b0316941692a4005b346103e05760203660031901126103e05760043561112f816107f6565b60018060a01b031660005260086020526020604060002054604051908152f35b346103e05760008060031936011261075457611169612a9c565b80546001600160a01b03198116825581906001600160a01b03167f8be0079c531659141344cd1fd0a4f28419497f9722a3daafe3b4186f6b6457e08280a380f35b90600182811c921680156111da575b60208310146111c457565b634e487b7160e01b600052602260045260246000fd5b91607f16916111b9565b90600092918054916111f5836111aa565b9182825260019384811690816000146112575750600114611217575b50505050565b90919394506000526020928360002092846000945b838610611243575050505001019038808080611211565b80548587018301529401938590820161122c565b9294505050602093945060ff191683830152151560051b01019038808080611211565b9061129561128e92604051938480926111e4565b03836109fe565b565b346103e05760203660031901126103e05761ffff6004356112b7816103d4565b1660005260016020526106cf610dae6112da6040600020604051928380926111e4565b60405191829160208352602083019061063e565b60e03660031901126103e057600435611306816107f6565b602435611312816103d4565b604435916001600160401b03906084358281116103e0576113379036906004016103e5565b91909260a4359161134783610412565b60c4358281116103e05761135f903690600401611021565b9261139684359561136f876107f6565b61138e6113846020880135976110ad896107f6565b9990923691610a64565b973691610a64565b9460ff6006541660001461148b57602286511061144657856020956110f46110fd946114148c61140161ffff9a8b60226000805160206154998339815191529f0151931660005260028d5284166113fb60406000206001600052602052604060002090565b54612b50565b9061140d821515614d38565b1015614d81565b611429611422606435614e7a565b5088615084565b9a6114358c15156148b1565b8d61143f8d614de3565b9033614f3e565b60405162461bcd60e51b815260206004820152601c60248201527f4c7a4170703a20696e76616c69642061646170746572506172616d73000000006044820152606490fd5b9480949350516114b8576000805160206154998339815191529460209461ffff946110f46110fd94611414565b60405162461bcd60e51b815260206004820152602660248201527f4f4654436f72653a205f61646170746572506172616d73206d7573742062652060448201526532b6b83a3c9760d11b6064820152608490fd5b346103e05760003660031901126103e057600f546040516001600160a01b039091168152602090f35b346103e05760003660031901126103e057602060405160ff7f0000000000000000000000000000000000000000000000000000000000000000168152f35b346103e05760403660031901126103e0576020610f92600435611595816103d4565b61ffff602435916115a5836103d4565b166000526002835260406000209061ffff16600052602052604060002090565b346103e05760003660031901126103e0576000546040516001600160a01b039091168152602090f35b346103e05760003660031901126103e0576004546040516001600160a01b039091168152602090f35b346103e0576000806003193601126107545760405181600c54611639816111aa565b8084529060019081811690811561072c5750600114611662576106cf846106c3818803826109fe565b600c8352602094507fdf6966c971051c3d54ec59162606531493a51404a002842f56009d7e5cf4a8c75b8284106116a857505050816106cf936106c392820101936106b3565b805485850187015292850192810161168c565b60a06003198201126103e0576004356116d3816107f6565b916024356116e0816103d4565b916001600160401b03916044358381116103e0578261170191600401610a9b565b9260643561170e81610412565b926084359182116103e05761067491600401610a9b565b346103e057611733366116bb565b9350505050303303611bd6576117a390611757602091828082518301019101613767565b95949099919692975060018060a01b03809516968051611bc7575b506001600160401b037f00000000000000000000000000000000000000000000000000000000000000009116614e67565b825260408083018051909489916117d0906117c4906001600160a01b031681565b6001600160a01b031690565b9383519a8b809663de40657760e01b825260049d8e915afa9485156107ed578b958391600091611b9a575b501696836118156117c46117c4845160018060a01b031690565b86516377607a1760e11b81529d8e9182905afa9b8c156107ed5760009c611b73575b5086518551638eb22cdd60e01b81528781018e8152602081019290925260006040830152939291908590859081906060015b03818c5afa9384156107ed57600094611b44575b50805185906001600160a01b0316848116611aab575b50506117c46117c4826118b8876118b36118c6965160018060a01b031690565b612b0e565b50516001600160a01b031690565b803b156103e057855163cce19f8160e01b81526001600160a01b03929093168216878401908152918b1660208301526040820193909352909160009183919082908490829060600103925af180156107ed57611a98575b50875161193f575b505050505050505050805161193657005b61001990613964565b80880195865111611a8a57600e5461195f906001600160a01b03166117c4565b81850180518451633a304d8b60e21b815260008782019081526001600160a01b03909216602083015291939283918391908290819060400103915afa9182156107ed57600092611a5d575b505015611a4f57516119c6906117c4906001600160a01b031681565b9451926119d8606089015161ffff1690565b9051916119ed60a060808b01519a0151151590565b91873b156103e057600099611a1a948a80938995519e8f9d8e9c8d9b6340b1d65760e01b8d528c01613828565b03925af180156107ed57611a36575b8080808080808080611925565b80611a43611a4992610995565b8061059c565b38611a29565b505163ea8e4eb560e01b8152fd5b611a7c9250803d10611a83575b611a7481836109fe565b810190613528565b38806119aa565b503d611a6a565b50516313452dd160e11b8152fd5b80611a43611aa592610995565b3861191d565b600e54611af7929190611ac6906001600160a01b03166117c4565b8951633a304d8b60e21b81526000818d019081526001600160a01b0390931660208401529384928391829160400190565b03915afa9081156107ed57600091611b27575b5015611b17578438611893565b855163ea8e4eb560e01b81528790fd5b611b3e9150863d8811611a8357611a7481836109fe565b38611b0a565b611b65919450853d8711611b6c575b611b5d81836109fe565b810190613819565b923861187d565b503d611b53565b6118699392919c50611b9190853d8711611b6c57611b5d81836109fe565b9b909192611837565b611bba9150853d8711611bc0575b611bb281836109fe565b810190613804565b386117fb565b503d611ba8565b611bd090613964565b38611772565b60405163ea8e4eb560e01b8152600490fd5b346103e057602060ff611c2761ffff610f7184611c0436610ec9565b94909116600052600782526040600020826040519483868095519384920161061b565b54166040519015158152f35b346103e05760203660031901126103e05761ffff600435611c53816103d4565b166000526001602052610dae611c736040600020604051928380926111e4565b805115611c91576106c381611c8b6106cf93516132cf565b9061529e565b60405162461bcd60e51b815260206004820152601d60248201527f4c7a4170703a206e6f20747275737465642070617468207265636f72640000006044820152606490fd5b346103e05760403660031901126103e057600435611cf3816107f6565b60243590336000526009602052611d208160406000209060018060a01b0316600052602052604060002090565b5491808310611d4157611d3592039033612cdf565b60405160018152602090f35b60405162461bcd60e51b815260206004820152602560248201527f45524332303a2064656372656173656420616c6c6f77616e63652062656c6f77604482015264207a65726f60d81b6064820152608490fd5b346103e05760e03660031901126103e057600435611db1816103d4565b6001600160401b03906064358281116103e057611dd29036906004016103e5565b608492919235611de181610412565b60a43591611dee83610a3f565b60c4359586116103e057611e09611e199636906004016103e5565b9590946044359060243590614528565b60408051928352602083019190915290f35b346103e05760003660031901126103e0576020601254604051908152f35b346103e057611e5736610d3e565b90611e60612a9c565b60405192602092808385870137611e8c6034868381013060601b888201520360148101885201866109fe565b60009361ffff8316855260019081815260408620918751916001600160401b0383116109a857611ec683611ec086546111aa565b866142b8565b80601f8411600114611f36575091808092611f259695948a9b7f8c0400cfe2d1199b1a725c78960bcc2a344d869b80590d0f2bd005db15a572ce9b94611f2b575b50501b916000199060031b1c19161790555b6040519384938461429d565b0390a180f35b015192503880611f07565b91939498601f198416611f4e87600052602060002090565b938a905b828210611fb5575050917f8c0400cfe2d1199b1a725c78960bcc2a344d869b80590d0f2bd005db15a572ce999a95939185611f2598969410611f9c575b505050811b019055611f19565b015160001960f88460031b161c19169055388080611f8f565b808886978294978701518155019601940190611f52565b346103e05760403660031901126103e057610831600435611fec816107f6565b6024359033612c10565b346103e05760003660031901126103e0576040517f00000000000000000000000000000000000000000000000000000000000000006001600160a01b03168152602090f35b346103e05760203660031901126103e0577f5db758e995a17ec1ad84bdef7e8c3293a0bd6179bcce400dff5d4c3d87db726b602060043561207b816107f6565b612083612a9c565b600480546001600160a01b0319166001600160a01b03929092169182179055604051908152a1005b6120b4366116bb565b93909193303314801590612222575b611bd65783928151820160200160208301906120de91613151565b6001600160a01b039097169d929b939a8b9a8b9a909950979396949591948f949392612134907f0000000000000000000000000000000000000000000000000000000000000000906001600160401b0316614e67565b8b5286898961214230612af4565b549d519261214f936132fa565b825115159d6121a86000805160206154b98339815191529f9e61ffff9f600097889761219a92612213575b5060405194859360208501976333ac90ab60e01b89528960248701613247565b03601f1981018352826109fe565b51915af46121b461329f565b928051612204575b50156121d7575b8751604051908152838a16908b90602090a3005b6121ed6121f8976121e730612af4565b546132ed565b885180911015613406565b3880808087818a6121c3565b61220d90613c36565b386121bc565b61221c90613c36565b3861217a565b506007600052601360205261225f7f8ba6fb577925b0796671c737df59b8aaae861b630513fb12823699e3e0e3ee605b546001600160a01b031690565b6001600160a01b03838116911614156120c3565b346103e05760003660031901126103e05760206040516127108152f35b346103e05760803660031901126103e0576004356122ad816103d4565b6024356122b9816103d4565b6064356001600160401b0381116103e0576122d89036906004016103e5565b90926122e2612a9c565b7f00000000000000000000000000000000000000000000000000000000000000006001600160a01b031690813b156103e05760008094612359604051978896879586946332fb62e760e21b865261ffff8092166004870152166024850152604435604485015260806064850152608484019161427c565b03925af180156107ed5761236957005b80611a4361001992610995565b61237f36610423565b9161ffff869492961660005260056020526123c681604060002060206040518092878b833787820190815203019020906001600160401b0316600052602052604060002090565b549182156124885761247784836124707fc264d91f3adc5588250e1551f547752ca0cfa8f6b530d243b9f9f4cab10ea8e59a600061245c846124448e8a8f6124839f908f61242a9061241d61243e9436908d610a64565b6020815191012014614469565b61ffff166000526005602052604060002090565b91614450565b906001600160401b0316600052602052604060002090565b5561246836878d610a64565b933691610a64565b9188614745565b604051958695866144bf565b0390a1005b60405162461bcd60e51b815260206004820152602360248201527f4e6f6e626c6f636b696e674c7a4170703a206e6f2073746f726564206d65737360448201526261676560e81b6064820152608490fd5b346103e05760003660031901126103e057600e546040516001600160a01b039091168152602090f35b346103e05760403660031901126103e0576020610f92600435612524816107f6565b60243590612531826107f6565b60018060a01b03166000526009835260406000209060018060a01b0316600052602052604060002090565b346103e05760003660031901126103e057600d546040516001600160a01b039091168152602090f35b346103e05760603660031901126103e0576004356125a2816103d4565b6024356125ae816103d4565b604435916125ba612a9c565b8215612635576124837f9d5c7c0b934da8fefa9c7760c98383778a12dfbfc0c3b3106518f43fb9508ac09361ffff831660005260026020528061260f8560406000209061ffff16600052602052604060002090565b556040519384938460409194939294606082019561ffff80921683521660208201520152565b60405162461bcd60e51b81526020600482015260156024820152744c7a4170703a20696e76616c6964206d696e47617360581b6044820152606490fd5b346103e05760003660031901126103e057602060405160018152f35b346103e05760203660031901126103e0577f1584ad594a70cbe1e6515592e1272a987d922b097ead875069cebe8b40c004a460206004356126ce81610a3f565b6126d6612a9c565b151560ff196006541660ff821617600655604051908152a1005b346103e0576101003660031901126103e05760043561270e816103d4565b6001600160401b03906024358281116103e05761272f9036906004016103e5565b91906044359061273e82610412565b60843561274a816107f6565b60c4359586116103e0576127656100199636906004016103e5565b94909360e4359660a435946064359361461e565b346103e05761278736610d3e565b9190612791612a9c565b60009161ffff81168352600160209080825260408520916001600160401b0387116109a8576127ca876127c485546111aa565b856142b8565b8590601f88116001146128315750918680879893611f25957ffa41487ad5d6728f0b19276fa1eddc16558578f5109fc39d2dc33c3230470dab9993612826575b501b906000198460031b1c19161790556040519384938461429d565b88013592503861280a565b90601f19881661284685600052602060002090565b9288905b8282106128ac575050918893917ffa41487ad5d6728f0b19276fa1eddc16558578f5109fc39d2dc33c3230470dab9899611f25969410612892575b505082811b019055611f19565b870135600019600386901b60f8161c191690553880612885565b808685968294968c0135815501950193019061284a565b346103e05760003660031901126103e057602060ff600654166040519015158152f35b346103e05760203660031901126103e057600435612903816107f6565b61290b612a9c565b6001600160a01b03908116801561295957600080546001600160a01b03198116831782559092167f8be0079c531659141344cd1fd0a4f28419497f9722a3daafe3b4186f6b6457e08380a380f35b60405162461bcd60e51b815260206004820152602660248201527f4f776e61626c653a206e6577206f776e657220697320746865207a65726f206160448201526564647265737360d01b6064820152608490fd5b346103e05760803660031901126103e0576004356129ca816103d4565b602435906129d7826103d4565b6129e26044356107f6565b604051633d7b2f6f60e21b815261ffff91821660048201529116602482015230604482015260648035908201526000816084817f00000000000000000000000000000000000000000000000000000000000000006001600160a01b03165afa80156107ed576106cf91600091612a60575b5060405191829182610663565b612a7b913d8091833e612a7381836109fe565b810190614257565b38612a53565b346103e05760003660031901126103e0576020604051308152f35b6000546001600160a01b03163303612ab057565b606460405162461bcd60e51b815260206004820152602060248201527f4f776e61626c653a2063616c6c6572206973206e6f7420746865206f776e65726044820152fd5b6001600160a01b0316600090815260086020526040902090565b90612b199133612cdf565b600190565b634e487b7160e01b600052601160045260246000fd5b90601f8201809211610d3957565b6051019081605111610d3957565b91908201809211610d3957565b15612b6457565b60405162461bcd60e51b815260206004820152602360248201527f45524332303a207472616e7366657220746f20746865207a65726f206164647260448201526265737360e81b6064820152608490fd5b15612bbc57565b60405162461bcd60e51b815260206004820152602660248201527f45524332303a207472616e7366657220616d6f756e7420657863656564732062604482015265616c616e636560d01b6064820152608490fd5b916001600160a01b038084169290918315612c8c57612c71826000805160206154d983398151915294612c87941696612c4a881515612b5d565b612c6b84612c5783612af4565b54612c6482821015612bb5565b0391612af4565b55612af4565b8054820190556040519081529081906020820190565b0390a3565b60405162461bcd60e51b815260206004820152602560248201527f45524332303a207472616e736665722066726f6d20746865207a65726f206164604482015264647265737360d81b6064820152608490fd5b6001600160a01b038082169291908315612db9578216938415612d695780612d587f8c5be1e5ebec7d5bd14f71427d1e84f3dd0314c0f7b2291e5b200ac8c7c3b92594612d41612c879560018060a01b03166000526009602052604060002090565b9060018060a01b0316600052602052604060002090565b556040519081529081906020820190565b60405162461bcd60e51b815260206004820152602260248201527f45524332303a20617070726f766520746f20746865207a65726f206164647265604482015261737360f01b6064820152608490fd5b60405162461bcd60e51b8152602060048201526024808201527f45524332303a20617070726f76652066726f6d20746865207a65726f206164646044820152637265737360e01b6064820152608490fd5b6001600160a01b038082166000908152600960209081526040808320938616835292905220909190549260018401612e425750505050565b808410612e5d57612e54930391612cdf565b38808080611211565b60405162461bcd60e51b815260206004820152601d60248201527f45524332303a20696e73756666696369656e7420616c6c6f77616e63650000006044820152606490fd5b5190611295826103d4565b5190611295826107f6565b519061129582610412565b91908260809103126103e057604051612edb816109c8565b606080829480518452602081015160208501526040810151612efc816107f6565b6040850152015191610b44836107f6565b519061129582610a3f565b90929192612f2581610a49565b91612f3360405193846109fe565b8294828452828201116103e057602061129593019061061b565b9080601f830112156103e057815161067492602001612f18565b91909160c0818403126103e05760405190612f81826109ad565b81938151612f8e81610a3f565b8352602082015160208401526040820151612fa881610a3f565b60408401526060820151612fbb816103d4565b60608401526080820151916001600160401b0383116103e057612fe460a0939284938301612f4d565b6080850152015191610b4483610a3f565b519060ff821682036103e057565b81601f820112156103e0578051906001600160401b0382116109a8576040805193602091613036838660051b01876109fe565b84865282860191836101c0809702860101948186116103e0578401925b858410613064575050505050505090565b86848303126103e057848791613078610a1f565b61308187612f0d565b815261308e838801612f0d565b8382015261309d868801612f0d565b8682015260606130ae818901612f0d565b9082015260806130bf818901612ea2565b9082015260a06130d0818901612ead565b9082015260c06130e1818901612f0d565b9082015260e06130f2818901612ead565b90820152610100613104818901612ead565b908201526101208088015190820152610140808801519082015261016061312c818901612ff5565b9082015261018080880151908201526101a08088015190820152815201930192613053565b90610180828203126103e05761316682612ea2565b9261317360208401612ead565b9260408101519261318660608301612eb8565b926131948260808501612ec3565b92610100810151916001600160401b03928381116103e057846131b8918401612f67565b936101208301518481116103e057816131d2918501613003565b936101408401519081116103e057610160916131ef918501613003565b92015190565b908151151581526020820151602082015260408201511515604082015261ffff606083015116606082015260a08061323c608085015160c0608086015260c085019061063e565b930151151591015290565b95949390606060e09461329a9460018060a01b038094168a5260208a0152805160408a01526020810151828a01528260408201511660808a015201511660a08701526101008060c08801528601906131f5565b930152565b3d156132ca573d906132b082610a49565b916132be60405193846109fe565b82523d6000602084013e565b606090565b601319810191908211610d3957565b605019810191908211610d3957565b91908203918211610d3957565b91929061ffff8116600052600760205260ff61332d8360406000206020604051809282610f718c8481519384920161061b565b54161561333a5750505050565b30156133c157612e54936133ae612444928561336361335e6133b498600a54612b50565b600a55565b61336c30612af4565b81815401905560006000805160206154d9833981519152604051806133973095829190602083019252565b0390a361ffff166000526007602052604060002090565b90610f0e565b805460ff19166001179055565b60405162461bcd60e51b815260206004820152601f60248201527f45524332303a206d696e7420746f20746865207a65726f2061646472657373006044820152606490fd5b979694929593919097613420575b506112959596506143a0565b6134a5906000806040519260209b8c85019163a9059cbb60e01b835260018060a01b0316602486015260448501526044845261345b846109c8565b60405193613468856109e3565b8c85527f5361666545524332303a206c6f772d6c6576656c2063616c6c206661696c65648d860152519082305af161349e61329f565b903061353d565b8051806134b3575b50613414565b9088806134c4938301019101613528565b156134d05786806134ad565b60405162461bcd60e51b815260048101889052602a60248201527f5361666545524332303a204552433230206f7065726174696f6e20646964206e6044820152691bdd081cdd58d8d9595960b21b6064820152608490fd5b908160209103126103e0575161067481610a3f565b9192901561359f5750815115613551575090565b3b1561355a5790565b60405162461bcd60e51b815260206004820152601d60248201527f416464726573733a2063616c6c20746f206e6f6e2d636f6e74726163740000006044820152606490fd5b8251909150156135b25750805190602001fd5b60405162461bcd60e51b81529081906135ce9060048301610663565b0390fd5b919261067495949160e09460018060a01b0380921685521660208401526040830152606082015260016080820152600160a08201528160c082015201906131f5565b6040513d6000823e3d90fd5b939093303314908115916136cd575b50611bd65761365c6117c46117c4604085016118b8613654825160018060a01b031690565b875190612b0e565b60608301519091906001600160a01b0316906020845194015195833b156103e057604051637a7ccd9160e01b8152966000968896879586946136af9492916001600160a01b0390911690600487016135d2565b03925af180156107ed576136c05750565b80611a4361129592610995565b6007600052601360205290506137027f8ba6fb577925b0796671c737df59b8aaae861b630513fb12823699e3e0e3ee60612252565b6001600160a01b03908116911614153861362f565b91908260609103126103e057604051606081018181106001600160401b038211176109a8576040526040808294805184526020810151613756816107f6565b6020850152015191610b44836107f6565b90610160828203126103e05761377c82612ea2565b9261378960208401612ead565b9260408101519261379c60608301612eb8565b926137aa8260808501613717565b9260e0810151916001600160401b03928381116103e057846137cd918401612f67565b936101008301518481116103e057816137e7918501613003565b936101208401519081116103e057610140916131ef918501613003565b908160209103126103e05751610674816107f6565b908160209103126103e0575190565b98959161387894610120999c9b98948b979361ffff9360018060a01b03998a80931690521660208d015260408c01521660608a0152608089015260a08801526101408060c089015287019061063e565b961660e08501526101008401521515910152565b80518210156138a05760209160051b010190565b634e487b7160e01b600052603260045260246000fd5b9061ffff6138d160209295949560408552604085019061063e565b9416910152565b60009060033d116138e557565b905060046000803e60005160e01c90565b600060443d1061067457604051600319913d83016004833e81516001600160401b03918282113d6024840111176139535781840194855193841161395b573d850101602084870101116139535750610674929101602001906109fe565b949350505050565b50949350505050565b9060005b8251811015613c3157604061398981613981848761388c565b510151151590565b156139d75750806139a160606139816001948761388c565b156139bf576139b96139b3828661388c565b51613efe565b01613968565b6139d26139cc828661388c565b516140dc565b6139b9565b608061030461ffff6139f7836139ed878a61388c565b51015161ffff1690565b1603613c2057613a0c60c0613981858861388c565b613a2a60e0613a1b868961388c565b5101516001600160a01b031690565b91613afc613a3e610100613a1b888b61388c565b93613aee610120613a4f898c61388c565b5101518a610140613a608b8361388c565b510151613a7c610160613a738d8561388c565b51015160ff1690565b906101a0613a9a8d610180613a91828861388c565b5101519561388c565b510151938b519a8b9760209b8c8a0194909897969360e0969260ff9461010088019b1515885260018060a01b038092166020890152166040870152606086015260808501521660a083015260c08201520152565b03601f1981018552846109fe565b613b1f613b146117c46117c460a0613a1b8a8d61388c565b916139ed878a61388c565b90803b156103e057613b4d6000929183928751948580948193631221baf960e31b835260049a8b84016138b6565b03925af19081613c0d575b50613b77576001613b676138d8565b6308c379a014613bc5575b613b82575b5050506001906139b9565b613b9f613b9b613b9061329f565b92613981878a61388c565b1590565b15613b7757613bb06135ce91613dd8565b925162461bcd60e51b81529283928301610663565b613bcd6138f6565b80613bd9575b50613b72565b60009150613bee613b9b84613981898c61388c565b15613bd357845162461bcd60e51b81529081906135ce90828701610663565b80611a43613c1a92610995565b38613b58565b8151639f62049960e01b8152600490fd5b509050565b9060005b8251811015613c31576040613c5381613981848761388c565b15613c95575080613c6b60606139816001948761388c565b15613c8357613c7d6139b3828661388c565b01613c3a565b613c906139cc828661388c565b613c7d565b608061030761ffff613cab836139ed878a61388c565b1603613c2057613cc060c0613981858861388c565b613ccf60e0613a1b868961388c565b91613ce3613a3e610100613a1b888b61388c565b613cfb613b146117c46117c460a0613a1b8a8d61388c565b90803b156103e057613d296000929183928751948580948193631221baf960e31b835260049a8b84016138b6565b03925af19081613dc5575b50613d53576001613d436138d8565b6308c379a014613d7d575b613d5e575b505050600190613c7d565b613d6c613b9b613b9061329f565b15613d5357613bb06135ce91613dd8565b613d856138f6565b80613d91575b50613d4e565b60009150613da6613b9b84613981898c61388c565b15613d8b57845162461bcd60e51b81529081906135ce90828701610663565b80611a43613dd292610995565b38613d34565b6103e8815111613e59576044815110613e33576004810151810190602081602484019303126103e0576024810151906001600160401b0382116103e0570190806043830112156103e057602482015161067492604401612f18565b50604051613e40816109e3565b6009815268544f46545f6461746160b81b602082015290565b50604051613e66816109e3565b601081526f2a27a32a2fa627a723afa922a0a9a7a760811b602082015290565b9360ff929897969360c0969260e087019a60018060a01b0380921688521660208701526040860152606085015216608083015260a08201520152565b6001600160a01b03918216815291166020820152604081019190915260ff9091166060820152608081019190915260a081019190915260c00190565b80511561404c5760a0810151613f1e906117c4906001600160a01b031681565b60e08201516001600160a01b03166101008301516001600160a01b03169161014084015190613f5261016086015160ff1690565b93610180860151936101a087015190833b156103e057613f8e600096928793604051998a98899788966365e2b81f60e01b885260048801613ec2565b03925af19081614039575b50613fb8576001613fa86138d8565b6308c379a014613ffc575b613fbb575b50565b613fd3613b9b6020613fcb61329f565b930151151590565b15613fb857613fe46135ce91613dd8565b60405162461bcd60e51b815291829160048301610663565b6140046138f6565b80614010575b50613fb3565b60208301516000925061400a5760405162461bcd60e51b81529081906135ce9060048301610663565b80611a4361404692610995565b38613f99565b60a0810151614065906117c4906001600160a01b031681565b60e08201516001600160a01b03166101008301516001600160a01b03169161012084015190610140850151936140a061016087015160ff1690565b93610180870151906101a088015195843b156103e0576000968793613f8e926040519a8b998a9889976372dcad7b60e01b895260048901613e86565b80511561416c5760a08101516140fc906117c4906001600160a01b031681565b60e08201516001600160a01b03166101008301516001600160a01b0316916101408401519061413061016086015160ff1690565b93610180860151936101a087015190833b156103e057613f8e600096928793604051998a988997889663aba0784760e01b885260048801613ec2565b60a0810151614185906117c4906001600160a01b031681565b60e08201516001600160a01b03166101008301516001600160a01b03169161012084015190610140850151936141c061016087015160ff1690565b93610180870151906101a088015195843b156103e0576000968793613f8e926040519a8b998a98899763d505accf60e01b895260048901613e86565b1561420357565b60405162461bcd60e51b815260206004820152602660248201527f4c7a4170703a20696e76616c696420736f757263652073656e64696e6720636f6044820152651b9d1c9858dd60d21b6064820152608490fd5b906020828203126103e05781516001600160401b0381116103e0576106749201612f4d565b908060209392818452848401376000828201840152601f01601f1916010190565b60409061ffff6106749593168152816020820152019161427c565b90601f81116142c657505050565b600091825260208220906020601f850160051c83019410614302575b601f0160051c01915b8281106142f757505050565b8181556001016142eb565b90925082906142e2565b92909161437e5a604051633356ae4560e11b602082015261ffff8716602482015260806044820152906143788261436a61434960a483018a61063e565b6001600160401b03881660648401528281036023190160848401528861063e565b03601f1981018452836109fe565b3061544d565b93901561438d575b5050505050565b614396946143a0565b3880808080614386565b919361443d7fe183f33de2837795525b4792ca4cd60535bd77c53b7e7030060bfcf5734d6b0c9561444b939561ffff8151602083012096169586600052600560205261440483610f7160208b6040600020826040519483868095519384920161061b565b556001600160401b03614429604051988998895260a060208a015260a089019061063e565b92166040870152858203606087015261063e565b90838203608085015261063e565b0390a1565b6020919283604051948593843782019081520301902090565b1561447057565b60405162461bcd60e51b815260206004820152602160248201527f4e6f6e626c6f636b696e674c7a4170703a20696e76616c6964207061796c6f616044820152601960fa1b6064820152608490fd5b916144eb9060609461ffff6001600160401b03949998979916855260806020860152608085019161427c565b951660408201520152565b903590601e19813603018212156103e057018035906001600160401b0382116103e0576020019181360383136103e057565b94919598979061143f61455160409961454961455797614574993691610a64565b943691610a64565b97614de3565b928451968794859463040a7bb160e41b8652309060048701614701565b03817f00000000000000000000000000000000000000000000000000000000000000006001600160a01b03165afa9182156107ed5760009081936145b757509190565b905061048491925060403d8111610cdb57610ccc81836109fe565b939694916146009061067499979461ffff6001600160401b039416875260c0602088015260c087019161427c565b961660408401526060830152608082015260a081850391015261427c565b919697929895949390943033036146a65761463a9085306151ea565b60405181815290946001600160a01b03169390849061ffff8516906000805160206154b983398151915290602090a3833b156103e0576000988995614696936040519c8d9b8c9a8b98633fe79aed60e11b8a5260048a016145d2565b0393f180156107ed576136c05750565b60405162461bcd60e51b815260206004820152601f60248201527f4f4654436f72653a2063616c6c6572206d757374206265204f4654436f7265006044820152606490fd5b91908260409103126103e0576020825192015190565b9192610674959361ffff6147309316845260018060a01b0316602084015260a0604084015260a083019061063e565b9215156060820152608081840391015261063e565b92919060ff614753846153f2565b168061485c5750505060ff614767826153f2565b161580614851575b61477890614ef7565b61478a614784826153a2565b9161543d565b90916001600160a01b039182841615614847575b6147d2906001600160401b037f00000000000000000000000000000000000000000000000000000000000000009116614e67565b9183169283156133c1576000805160206154b98339815191529161480761ffff9261480261335e87600a54612b50565b612af4565b8481540190558460006000805160206154d98339815191526040518061483289829190602083019252565b0390a360405193845216918060208101612c87565b61dead935061479e565b50805160291461476f565b60010361486c5761129593614b3e565b60405162461bcd60e51b815260206004820152601c60248201527f4f4654436f72653a20756e6b6e6f776e207061636b65742074797065000000006044820152606490fd5b156148b857565b60405162461bcd60e51b815260206004820152601960248201527813d19510dbdc994e88185b5bdd5b9d081d1bdbc81cdb585b1b603a1b6044820152606490fd5b9261491e61067497959361ffff61492c9416865260c0602087015260c086019061063e565b90848203604086015261063e565b6001600160a01b0391821660608401529316608082015280830360a09091015261063e565b9461497a9193929561ffff811660005260016020526149816040600020604051948580926111e4565b03846109fe565b8251156149e857614993855182614a46565b7f00000000000000000000000000000000000000000000000000000000000000006001600160a01b031693843b156103e0576000966136af91604051998a988997889662c5803160e81b8852600488016148f9565b60405162461bcd60e51b815260206004820152603060248201527f4c7a4170703a2064657374696e6174696f6e20636861696e206973206e6f742060448201526f61207472757374656420736f7572636560801b6064820152608490fd5b61ffff166000526003602052604060002054908115614aab575b11614a6757565b606460405162461bcd60e51b815260206004820152602060248201527f4c7a4170703a207061796c6f61642073697a6520697320746f6f206c617267656044820152fd5b6127109150614a60565b98979692936001600160401b03614ae760e0989461ffff61329a9995168d5260208d61010091829101528d019061063e565b951660408b015260608a01526001600160a01b0316608089015260a088015286820360c088015261063e565b6001600160401b03614b336040939695949660608452606084019061063e565b951660208201520152565b9091614b4984614fab565b9091614b7a614b7387612444614b6d8b61ffff166000526007602052604060002090565b8c610f0e565b5460ff1690565b91614bb06001600160401b0392837f00000000000000000000000000000000000000000000000000000000000000009116614e67565b9288888b8315614cac575b505050853b15614c615794614c029694614378948a9461436a948d99600014614c5a5750505a925b5a978b6040519a8b9863757fea4d60e11b60208b015260248a01614ab5565b9015614c4f575090614c4a61ffff928560207fb8890edbfc1c74692f527444645f95489c3703cc2df42e4a366f5d06fa6cd88496975191012090604051948594169684614b13565b0390a2565b9261129594926143a0565b1692614be3565b50506040516001600160a01b039094168452507f9aedf5fdba8716db3b6705ca00150643309995d4f818a249ed6dde6677e7792d97509195508594505060208401925061444b915050565b906124446133b4926133ae89614cc6614cdb979b3061519a565b9961ffff166000526007602052604060002090565b88888b614bbb565b60065460ff1615614d305760228251106114465761ffff602261129593015191166000526002602052614d23604060002060008052602052604060002090565b549061140d821515614d38565b50516114b857565b15614d3f57565b60405162461bcd60e51b815260206004820152601a602482015279131e905c1c0e881b5a5b91d85cd31a5b5a5d081b9bdd081cd95d60321b6044820152606490fd5b15614d8857565b60405162461bcd60e51b815260206004820152601b60248201527f4c7a4170703a20676173206c696d697420697320746f6f206c6f7700000000006044820152606490fd5b634e487b7160e01b600052601260045260246000fd5b7f0000000000000000000000000000000000000000000000000000000000000000908115614e6257046001600160401b0390818111614e20571690565b60405162461bcd60e51b815260206004820152601a6024820152794f4654436f72653a20616d6f756e745344206f766572666c6f7760301b6044820152606490fd5b614dcd565b81810292918115918404141715610d3957565b7f00000000000000000000000000000000000000000000000000000000000000008015614e6257810690818103908111610d395791565b90604051916000602084015260218301526001600160401b0360c01b9060c01b16604182015260298152606081018181106001600160401b038211176109a85760405290565b15614efe57565b60405162461bcd60e51b815260206004820152601860248201527713d19510dbdc994e881a5b9d985b1a59081c185e5b1bd85960421b6044820152606490fd5b939260719261067494604051968794600160f81b602087015260218601526001600160401b0360c01b809360c01b16604186015260018060a01b0316604985015260c01b166069830152614f9b815180926020868601910161061b565b81010360518101845201826109fe565b90614fc3600160ff614fbc856153f2565b1614614ef7565b614fcc826153a2565b90614fd68361543d565b90604984511061504757604984015193605181511061500b5761500860518201519161500281516132de565b9061531e565b91565b60405162461bcd60e51b8152602060048201526014602482015273746f55696e7436345f6f75744f66426f756e647360601b6044820152606490fd5b60405162461bcd60e51b8152602060048201526015602482015274746f427974657333325f6f75744f66426f756e647360581b6044820152606490fd5b6001600160a01b038116338103615133575b80156150e457816150b9846150ac600095612af4565b54612c6482821015615143565b556150c783600a5403600a55565b6040518381526000805160206154d983398151915290602090a390565b60405162461bcd60e51b815260206004820152602160248201527f45524332303a206275726e2066726f6d20746865207a65726f206164647265736044820152607360f81b6064820152608490fd5b61513e833384612e0a565b615096565b1561514a57565b60405162461bcd60e51b815260206004820152602260248201527f45524332303a206275726e20616d6f756e7420657863656564732062616c616e604482015261636560f01b6064820152608490fd5b6001600160a01b038116919082156133c157600a5490828201809211610d39576000926151db6020926000805160206154d983398151915294600a55612af4565b818154019055604051908152a3565b6106749183916001600160a01b038116308114159081615216575b5015612c105761095e833383612e0a565b905033141538615205565b1561522857565b60405162461bcd60e51b815260206004820152600e60248201526d736c6963655f6f766572666c6f7760901b6044820152606490fd5b1561526557565b60405162461bcd60e51b8152602060048201526011602482015270736c6963655f6f75744f66426f756e647360781b6044820152606490fd5b6152b2826152ab81612b34565b1015615221565b6152bf828251101561525e565b816152d7575050604051600081526020810160405290565b60405191601f811691821560051b808486010193838501920101905b80841061530b5750508252601f01601f191660405290565b90928351815260208091019301906152f3565b61532b826152ab81612b34565b615340815161533984612b42565b111561525e565b81615358575050604051600081526020810160405290565b60405191601f8116916051831560051b80858701019484860193010101905b80841061538f5750508252601f01601f191660405290565b9092835181526020809101930190615377565b60218151106153b557602d015160601c90565b60405162461bcd60e51b8152602060048201526015602482015274746f416464726573735f6f75744f66426f756e647360581b6044820152606490fd5b6001815110615402576001015190565b60405162461bcd60e51b8152602060048201526013602482015272746f55696e74385f6f75744f66426f756e647360681b6044820152606490fd5b602981511061500b576029015190565b9092916000809160405195615461876109ad565b6096875282602088019560a036883760208451940192f1903d906096821161548f575b6000908286523e9190565b6096915061548456fed81fc9b8523134ed613870ed029d6170cbb73aa6a6bc311b9a642689fb9df59abf551ec93859b170f9b2141bd9298bf3f64322c6f7beb2543a0cb669834118bfddf252ad1be2c89b69c2b068fc378daa952ba7f163c4a11628f55a4df523b3efa2646970667358221220cee3202d5c34b1820fbd1f32f6d5ce5bcd2fdef1116cec9067c99af76eafffea64736f6c63430008120033",
  "linkReferences": {},
  "deployedLinkReferences": {}
}