{
  "_format": "hh-sol-artifact-1",
  "contractName": "BaseTOFTMarketModule",
  "sourceName": "contracts/tOFT/modules/BaseTOFTMarketModule.sol",
  "abi": [
    {
      "inputs": [
        {
          "internalType": "address",
          "name": "_lzEndpoint",
          "type": "address"
        },
        {
          "internalType": "address",
          "name": "_erc20",
          "type": "address"
        },
        {
          "internalType": "contract IYieldBoxBase",
          "name": "_yieldBox",
          "type": "address"
        },
        {
          "internalType": "string",
          "name": "_name",
          "type": "string"
        },
        {
          "internalType": "string",
          "name": "_symbol",
          "type": "string"
        },
        {
          "internalType": "uint8",
          "name": "_decimal",
          "type": "uint8"
        },
        {
          "internalType": "uint256",
          "name": "_hostChainID",
          "type": "uint256"
        }
      ],
      "stateMutability": "nonpayable",
      "type": "constructor"
    },
    {
      "anonymous": false,
      "inputs": [
        {
          "indexed": true,
          "internalType": "address",
          "name": "owner",
          "type": "address"
        },
        {
          "indexed": true,
          "internalType": "address",
          "name": "spender",
          "type": "address"
        },
        {
          "indexed": false,
          "internalType": "uint256",
          "name": "value",
          "type": "uint256"
        }
      ],
      "name": "Approval",
      "type": "event"
    },
    {
      "anonymous": false,
      "inputs": [
        {
          "indexed": true,
          "internalType": "uint16",
          "name": "_srcChainId",
          "type": "uint16"
        },
        {
          "indexed": false,
          "internalType": "bytes",
          "name": "_srcAddress",
          "type": "bytes"
        },
        {
          "indexed": false,
          "internalType": "uint64",
          "name": "_nonce",
          "type": "uint64"
        },
        {
          "indexed": false,
          "internalType": "bytes32",
          "name": "_hash",
          "type": "bytes32"
        }
      ],
      "name": "CallOFTReceivedSuccess",
      "type": "event"
    },
    {
      "anonymous": false,
      "inputs": [
        {
          "indexed": false,
          "internalType": "uint16",
          "name": "_srcChainId",
          "type": "uint16"
        },
        {
          "indexed": false,
          "internalType": "bytes",
          "name": "_srcAddress",
          "type": "bytes"
        },
        {
          "indexed": false,
          "internalType": "uint64",
          "name": "_nonce",
          "type": "uint64"
        },
        {
          "indexed": false,
          "internalType": "bytes",
          "name": "_payload",
          "type": "bytes"
        },
        {
          "indexed": false,
          "internalType": "bytes",
          "name": "_reason",
          "type": "bytes"
        }
      ],
      "name": "MessageFailed",
      "type": "event"
    },
    {
      "anonymous": false,
      "inputs": [
        {
          "indexed": false,
          "internalType": "address",
          "name": "_address",
          "type": "address"
        }
      ],
      "name": "NonContractAddress",
      "type": "event"
    },
    {
      "anonymous": false,
      "inputs": [
        {
          "indexed": true,
          "internalType": "address",
          "name": "previousOwner",
          "type": "address"
        },
        {
          "indexed": true,
          "internalType": "address",
          "name": "newOwner",
          "type": "address"
        }
      ],
      "name": "OwnershipTransferred",
      "type": "event"
    },
    {
      "anonymous": false,
      "inputs": [
        {
          "indexed": true,
          "internalType": "uint16",
          "name": "_srcChainId",
          "type": "uint16"
        },
        {
          "indexed": true,
          "internalType": "address",
          "name": "_to",
          "type": "address"
        },
        {
          "indexed": false,
          "internalType": "uint256",
          "name": "_amount",
          "type": "uint256"
        }
      ],
      "name": "ReceiveFromChain",
      "type": "event"
    },
    {
      "anonymous": false,
      "inputs": [
        {
          "indexed": false,
          "internalType": "uint16",
          "name": "_srcChainId",
          "type": "uint16"
        },
        {
          "indexed": false,
          "internalType": "bytes",
          "name": "_srcAddress",
          "type": "bytes"
        },
        {
          "indexed": false,
          "internalType": "uint64",
          "name": "_nonce",
          "type": "uint64"
        },
        {
          "indexed": false,
          "internalType": "bytes32",
          "name": "_payloadHash",
          "type": "bytes32"
        }
      ],
      "name": "RetryMessageSuccess",
      "type": "event"
    },
    {
      "anonymous": false,
      "inputs": [
        {
          "indexed": true,
          "internalType": "uint16",
          "name": "_dstChainId",
          "type": "uint16"
        },
        {
          "indexed": true,
          "internalType": "address",
          "name": "_from",
          "type": "address"
        },
        {
          "indexed": true,
          "internalType": "bytes32",
          "name": "_toAddress",
          "type": "bytes32"
        },
        {
          "indexed": false,
          "internalType": "uint256",
          "name": "_amount",
          "type": "uint256"
        }
      ],
      "name": "SendToChain",
      "type": "event"
    },
    {
      "anonymous": false,
      "inputs": [
        {
          "indexed": false,
          "internalType": "uint16",
          "name": "_dstChainId",
          "type": "uint16"
        },
        {
          "indexed": false,
          "internalType": "uint16",
          "name": "_type",
          "type": "uint16"
        },
        {
          "indexed": false,
          "internalType": "uint256",
          "name": "_minDstGas",
          "type": "uint256"
        }
      ],
      "name": "SetMinDstGas",
      "type": "event"
    },
    {
      "anonymous": false,
      "inputs": [
        {
          "indexed": false,
          "internalType": "address",
          "name": "precrime",
          "type": "address"
        }
      ],
      "name": "SetPrecrime",
      "type": "event"
    },
    {
      "anonymous": false,
      "inputs": [
        {
          "indexed": false,
          "internalType": "uint16",
          "name": "_remoteChainId",
          "type": "uint16"
        },
        {
          "indexed": false,
          "internalType": "bytes",
          "name": "_path",
          "type": "bytes"
        }
      ],
      "name": "SetTrustedRemote",
      "type": "event"
    },
    {
      "anonymous": false,
      "inputs": [
        {
          "indexed": false,
          "internalType": "uint16",
          "name": "_remoteChainId",
          "type": "uint16"
        },
        {
          "indexed": false,
          "internalType": "bytes",
          "name": "_remoteAddress",
          "type": "bytes"
        }
      ],
      "name": "SetTrustedRemoteAddress",
      "type": "event"
    },
    {
      "anonymous": false,
      "inputs": [
        {
          "indexed": false,
          "internalType": "bool",
          "name": "_useCustomAdapterParams",
          "type": "bool"
        }
      ],
      "name": "SetUseCustomAdapterParams",
      "type": "event"
    },
    {
      "anonymous": false,
      "inputs": [
        {
          "indexed": true,
          "internalType": "address",
          "name": "from",
          "type": "address"
        },
        {
          "indexed": true,
          "internalType": "address",
          "name": "to",
          "type": "address"
        },
        {
          "indexed": false,
          "internalType": "uint256",
          "name": "value",
          "type": "uint256"
        }
      ],
      "name": "Transfer",
      "type": "event"
    },
    {
      "inputs": [],
      "name": "DEFAULT_PAYLOAD_SIZE_LIMIT",
      "outputs": [
        {
          "internalType": "uint256",
          "name": "",
          "type": "uint256"
        }
      ],
      "stateMutability": "view",
      "type": "function"
    },
    {
      "inputs": [],
      "name": "NO_EXTRA_GAS",
      "outputs": [
        {
          "internalType": "uint256",
          "name": "",
          "type": "uint256"
        }
      ],
      "stateMutability": "view",
      "type": "function"
    },
    {
      "inputs": [],
      "name": "PT_SEND",
      "outputs": [
        {
          "internalType": "uint8",
          "name": "",
          "type": "uint8"
        }
      ],
      "stateMutability": "view",
      "type": "function"
    },
    {
      "inputs": [],
      "name": "PT_SEND_AND_CALL",
      "outputs": [
        {
          "internalType": "uint8",
          "name": "",
          "type": "uint8"
        }
      ],
      "stateMutability": "view",
      "type": "function"
    },
    {
      "inputs": [
        {
          "internalType": "address",
          "name": "owner",
          "type": "address"
        },
        {
          "internalType": "address",
          "name": "spender",
          "type": "address"
        }
      ],
      "name": "allowance",
      "outputs": [
        {
          "internalType": "uint256",
          "name": "",
          "type": "uint256"
        }
      ],
      "stateMutability": "view",
      "type": "function"
    },
    {
      "inputs": [
        {
          "internalType": "address",
          "name": "spender",
          "type": "address"
        },
        {
          "internalType": "uint256",
          "name": "amount",
          "type": "uint256"
        }
      ],
      "name": "approve",
      "outputs": [
        {
          "internalType": "bool",
          "name": "",
          "type": "bool"
        }
      ],
      "stateMutability": "nonpayable",
      "type": "function"
    },
    {
      "inputs": [
        {
          "internalType": "address",
          "name": "account",
          "type": "address"
        }
      ],
      "name": "balanceOf",
      "outputs": [
        {
          "internalType": "uint256",
          "name": "",
          "type": "uint256"
        }
      ],
      "stateMutability": "view",
      "type": "function"
    },
    {
      "inputs": [
        {
          "internalType": "uint16",
          "name": "_srcChainId",
          "type": "uint16"
        },
        {
          "internalType": "bytes",
          "name": "_payload",
          "type": "bytes"
        }
      ],
      "name": "borrow",
      "outputs": [],
      "stateMutability": "payable",
      "type": "function"
    },
    {
      "inputs": [
        {
          "internalType": "uint16",
          "name": "_srcChainId",
          "type": "uint16"
        },
        {
          "internalType": "bytes",
          "name": "_srcAddress",
          "type": "bytes"
        },
        {
          "internalType": "uint64",
          "name": "_nonce",
          "type": "uint64"
        },
        {
          "internalType": "bytes32",
          "name": "_from",
          "type": "bytes32"
        },
        {
          "internalType": "address",
          "name": "_to",
          "type": "address"
        },
        {
          "internalType": "uint256",
          "name": "_amount",
          "type": "uint256"
        },
        {
          "internalType": "bytes",
          "name": "_payload",
          "type": "bytes"
        },
        {
          "internalType": "uint256",
          "name": "_gasForCall",
          "type": "uint256"
        }
      ],
      "name": "callOnOFTReceived",
      "outputs": [],
      "stateMutability": "nonpayable",
      "type": "function"
    },
    {
      "inputs": [],
      "name": "circulatingSupply",
      "outputs": [
        {
          "internalType": "uint256",
          "name": "",
          "type": "uint256"
        }
      ],
      "stateMutability": "view",
      "type": "function"
    },
    {
      "inputs": [
        {
          "internalType": "uint16",
          "name": "",
          "type": "uint16"
        },
        {
          "internalType": "bytes",
          "name": "",
          "type": "bytes"
        },
        {
          "internalType": "uint64",
          "name": "",
          "type": "uint64"
        }
      ],
      "name": "creditedPackets",
      "outputs": [
        {
          "internalType": "bool",
          "name": "",
          "type": "bool"
        }
      ],
      "stateMutability": "view",
      "type": "function"
    },
    {
      "inputs": [],
      "name": "decimals",
      "outputs": [
        {
          "internalType": "uint8",
          "name": "",
          "type": "uint8"
        }
      ],
      "stateMutability": "view",
      "type": "function"
    },
    {
      "inputs": [
        {
          "internalType": "address",
          "name": "spender",
          "type": "address"
        },
        {
          "internalType": "uint256",
          "name": "subtractedValue",
          "type": "uint256"
        }
      ],
      "name": "decreaseAllowance",
      "outputs": [
        {
          "internalType": "bool",
          "name": "",
          "type": "bool"
        }
      ],
      "stateMutability": "nonpayable",
      "type": "function"
    },
    {
      "inputs": [],
      "name": "erc20",
      "outputs": [
        {
          "internalType": "address",
          "name": "",
          "type": "address"
        }
      ],
      "stateMutability": "view",
      "type": "function"
    },
    {
      "inputs": [
        {
          "internalType": "uint16",
          "name": "_dstChainId",
          "type": "uint16"
        },
        {
          "internalType": "bytes32",
          "name": "_toAddress",
          "type": "bytes32"
        },
        {
          "internalType": "uint256",
          "name": "_amount",
          "type": "uint256"
        },
        {
          "internalType": "bytes",
          "name": "_payload",
          "type": "bytes"
        },
        {
          "internalType": "uint64",
          "name": "_dstGasForCall",
          "type": "uint64"
        },
        {
          "internalType": "bool",
          "name": "_useZro",
          "type": "bool"
        },
        {
          "internalType": "bytes",
          "name": "_adapterParams",
          "type": "bytes"
        }
      ],
      "name": "estimateSendAndCallFee",
      "outputs": [
        {
          "internalType": "uint256",
          "name": "nativeFee",
          "type": "uint256"
        },
        {
          "internalType": "uint256",
          "name": "zroFee",
          "type": "uint256"
        }
      ],
      "stateMutability": "view",
      "type": "function"
    },
    {
      "inputs": [
        {
          "internalType": "uint16",
          "name": "_dstChainId",
          "type": "uint16"
        },
        {
          "internalType": "bytes32",
          "name": "_toAddress",
          "type": "bytes32"
        },
        {
          "internalType": "uint256",
          "name": "_amount",
          "type": "uint256"
        },
        {
          "internalType": "bool",
          "name": "_useZro",
          "type": "bool"
        },
        {
          "internalType": "bytes",
          "name": "_adapterParams",
          "type": "bytes"
        }
      ],
      "name": "estimateSendFee",
      "outputs": [
        {
          "internalType": "uint256",
          "name": "nativeFee",
          "type": "uint256"
        },
        {
          "internalType": "uint256",
          "name": "zroFee",
          "type": "uint256"
        }
      ],
      "stateMutability": "view",
      "type": "function"
    },
    {
      "inputs": [
        {
          "internalType": "uint16",
          "name": "",
          "type": "uint16"
        },
        {
          "internalType": "bytes",
          "name": "",
          "type": "bytes"
        },
        {
          "internalType": "uint64",
          "name": "",
          "type": "uint64"
        }
      ],
      "name": "failedMessages",
      "outputs": [
        {
          "internalType": "bytes32",
          "name": "",
          "type": "bytes32"
        }
      ],
      "stateMutability": "view",
      "type": "function"
    },
    {
      "inputs": [
        {
          "internalType": "uint16",
          "name": "_srcChainId",
          "type": "uint16"
        },
        {
          "internalType": "bytes",
          "name": "_srcAddress",
          "type": "bytes"
        }
      ],
      "name": "forceResumeReceive",
      "outputs": [],
      "stateMutability": "nonpayable",
      "type": "function"
    },
    {
      "inputs": [
        {
          "internalType": "uint16",
          "name": "_version",
          "type": "uint16"
        },
        {
          "internalType": "uint16",
          "name": "_chainId",
          "type": "uint16"
        },
        {
          "internalType": "address",
          "name": "",
          "type": "address"
        },
        {
          "internalType": "uint256",
          "name": "_configType",
          "type": "uint256"
        }
      ],
      "name": "getConfig",
      "outputs": [
        {
          "internalType": "bytes",
          "name": "",
          "type": "bytes"
        }
      ],
      "stateMutability": "view",
      "type": "function"
    },
    {
      "inputs": [
        {
          "internalType": "uint16",
          "name": "_remoteChainId",
          "type": "uint16"
        }
      ],
      "name": "getTrustedRemoteAddress",
      "outputs": [
        {
          "internalType": "bytes",
          "name": "",
          "type": "bytes"
        }
      ],
      "stateMutability": "view",
      "type": "function"
    },
    {
      "inputs": [],
      "name": "hostChainID",
      "outputs": [
        {
          "internalType": "uint256",
          "name": "",
          "type": "uint256"
        }
      ],
      "stateMutability": "view",
      "type": "function"
    },
    {
      "inputs": [
        {
          "internalType": "address",
          "name": "spender",
          "type": "address"
        },
        {
          "internalType": "uint256",
          "name": "addedValue",
          "type": "uint256"
        }
      ],
      "name": "increaseAllowance",
      "outputs": [
        {
          "internalType": "bool",
          "name": "",
          "type": "bool"
        }
      ],
      "stateMutability": "nonpayable",
      "type": "function"
    },
    {
      "inputs": [
        {
          "internalType": "uint16",
          "name": "_srcChainId",
          "type": "uint16"
        },
        {
          "internalType": "bytes",
          "name": "_srcAddress",
          "type": "bytes"
        }
      ],
      "name": "isTrustedRemote",
      "outputs": [
        {
          "internalType": "bool",
          "name": "",
          "type": "bool"
        }
      ],
      "stateMutability": "view",
      "type": "function"
    },
    {
      "inputs": [],
      "name": "lzEndpoint",
      "outputs": [
        {
          "internalType": "contract ILayerZeroEndpoint",
          "name": "",
          "type": "address"
        }
      ],
      "stateMutability": "view",
      "type": "function"
    },
    {
      "inputs": [
        {
          "internalType": "uint16",
          "name": "_srcChainId",
          "type": "uint16"
        },
        {
          "internalType": "bytes",
          "name": "_srcAddress",
          "type": "bytes"
        },
        {
          "internalType": "uint64",
          "name": "_nonce",
          "type": "uint64"
        },
        {
          "internalType": "bytes",
          "name": "_payload",
          "type": "bytes"
        }
      ],
      "name": "lzReceive",
      "outputs": [],
      "stateMutability": "nonpayable",
      "type": "function"
    },
    {
      "inputs": [
        {
          "internalType": "uint16",
          "name": "",
          "type": "uint16"
        },
        {
          "internalType": "uint16",
          "name": "",
          "type": "uint16"
        }
      ],
      "name": "minDstGasLookup",
      "outputs": [
        {
          "internalType": "uint256",
          "name": "",
          "type": "uint256"
        }
      ],
      "stateMutability": "view",
      "type": "function"
    },
    {
      "inputs": [],
      "name": "name",
      "outputs": [
        {
          "internalType": "string",
          "name": "",
          "type": "string"
        }
      ],
      "stateMutability": "view",
      "type": "function"
    },
    {
      "inputs": [
        {
          "internalType": "uint16",
          "name": "_srcChainId",
          "type": "uint16"
        },
        {
          "internalType": "bytes",
          "name": "_srcAddress",
          "type": "bytes"
        },
        {
          "internalType": "uint64",
          "name": "_nonce",
          "type": "uint64"
        },
        {
          "internalType": "bytes",
          "name": "_payload",
          "type": "bytes"
        }
      ],
      "name": "nonblockingLzReceive",
      "outputs": [],
      "stateMutability": "nonpayable",
      "type": "function"
    },
    {
      "inputs": [],
      "name": "owner",
      "outputs": [
        {
          "internalType": "address",
          "name": "",
          "type": "address"
        }
      ],
      "stateMutability": "view",
      "type": "function"
    },
    {
      "inputs": [
        {
          "internalType": "uint16",
          "name": "",
          "type": "uint16"
        }
      ],
      "name": "payloadSizeLimitLookup",
      "outputs": [
        {
          "internalType": "uint256",
          "name": "",
          "type": "uint256"
        }
      ],
      "stateMutability": "view",
      "type": "function"
    },
    {
      "inputs": [],
      "name": "precrime",
      "outputs": [
        {
          "internalType": "address",
          "name": "",
          "type": "address"
        }
      ],
      "stateMutability": "view",
      "type": "function"
    },
    {
      "inputs": [],
      "name": "renounceOwnership",
      "outputs": [],
      "stateMutability": "nonpayable",
      "type": "function"
    },
    {
      "inputs": [
        {
          "internalType": "uint16",
          "name": "_srcChainId",
          "type": "uint16"
        },
        {
          "internalType": "bytes",
          "name": "_srcAddress",
          "type": "bytes"
        },
        {
          "internalType": "uint64",
          "name": "_nonce",
          "type": "uint64"
        },
        {
          "internalType": "bytes",
          "name": "_payload",
          "type": "bytes"
        }
      ],
      "name": "retryMessage",
      "outputs": [],
      "stateMutability": "payable",
      "type": "function"
    },
    {
      "inputs": [
        {
          "internalType": "address",
          "name": "_from",
          "type": "address"
        },
        {
          "internalType": "uint16",
          "name": "_dstChainId",
          "type": "uint16"
        },
        {
          "internalType": "bytes32",
          "name": "_toAddress",
          "type": "bytes32"
        },
        {
          "internalType": "uint256",
          "name": "_amount",
          "type": "uint256"
        },
        {
          "internalType": "bytes",
          "name": "_payload",
          "type": "bytes"
        },
        {
          "internalType": "uint64",
          "name": "_dstGasForCall",
          "type": "uint64"
        },
        {
          "components": [
            {
              "internalType": "address payable",
              "name": "refundAddress",
              "type": "address"
            },
            {
              "internalType": "address",
              "name": "zroPaymentAddress",
              "type": "address"
            },
            {
              "internalType": "bytes",
              "name": "adapterParams",
              "type": "bytes"
            }
          ],
          "internalType": "struct ICommonOFT.LzCallParams",
          "name": "_callParams",
          "type": "tuple"
        }
      ],
      "name": "sendAndCall",
      "outputs": [],
      "stateMutability": "payable",
      "type": "function"
    },
    {
      "inputs": [
        {
          "internalType": "address",
          "name": "_from",
          "type": "address"
        },
        {
          "internalType": "uint16",
          "name": "_dstChainId",
          "type": "uint16"
        },
        {
          "internalType": "bytes32",
          "name": "_toAddress",
          "type": "bytes32"
        },
        {
          "internalType": "uint256",
          "name": "_amount",
          "type": "uint256"
        },
        {
          "components": [
            {
              "internalType": "address payable",
              "name": "refundAddress",
              "type": "address"
            },
            {
              "internalType": "address",
              "name": "zroPaymentAddress",
              "type": "address"
            },
            {
              "internalType": "bytes",
              "name": "adapterParams",
              "type": "bytes"
            }
          ],
          "internalType": "struct ICommonOFT.LzCallParams",
          "name": "_callParams",
          "type": "tuple"
        }
      ],
      "name": "sendFrom",
      "outputs": [],
      "stateMutability": "payable",
      "type": "function"
    },
    {
      "inputs": [
        {
          "internalType": "address",
          "name": "_from",
          "type": "address"
        },
        {
          "internalType": "address",
          "name": "_to",
          "type": "address"
        },
        {
          "internalType": "uint16",
          "name": "lzDstChainId",
          "type": "uint16"
        },
        {
          "internalType": "bytes",
          "name": "airdropAdapterParams",
          "type": "bytes"
        },
        {
          "components": [
            {
              "internalType": "uint256",
              "name": "amount",
              "type": "uint256"
            },
            {
              "internalType": "uint256",
              "name": "borrowAmount",
              "type": "uint256"
            },
            {
              "internalType": "address",
              "name": "marketHelper",
              "type": "address"
            },
            {
              "internalType": "address",
              "name": "market",
              "type": "address"
            }
          ],
          "internalType": "struct ITapiocaOFT.IBorrowParams",
          "name": "borrowParams",
          "type": "tuple"
        },
        {
          "components": [
            {
              "internalType": "bool",
              "name": "withdraw",
              "type": "bool"
            },
            {
              "internalType": "uint256",
              "name": "withdrawLzFeeAmount",
              "type": "uint256"
            },
            {
              "internalType": "bool",
              "name": "withdrawOnOtherChain",
              "type": "bool"
            },
            {
              "internalType": "uint16",
              "name": "withdrawLzChainId",
              "type": "uint16"
            },
            {
              "internalType": "bytes",
              "name": "withdrawAdapterParams",
              "type": "bytes"
            }
          ],
          "internalType": "struct ITapiocaOFT.IWithdrawParams",
          "name": "withdrawParams",
          "type": "tuple"
        },
        {
          "components": [
            {
              "internalType": "uint256",
              "name": "extraGasLimit",
              "type": "uint256"
            },
            {
              "internalType": "address",
              "name": "zroPaymentAddress",
              "type": "address"
            }
          ],
          "internalType": "struct ITapiocaOFT.ISendOptions",
          "name": "options",
          "type": "tuple"
        },
        {
          "components": [
            {
              "internalType": "bool",
              "name": "allowFailure",
              "type": "bool"
            },
            {
              "internalType": "address",
              "name": "target",
              "type": "address"
            },
            {
              "internalType": "bool",
              "name": "permitBorrow",
              "type": "bool"
            },
            {
              "internalType": "address",
              "name": "owner",
              "type": "address"
            },
            {
              "internalType": "address",
              "name": "spender",
              "type": "address"
            },
            {
              "internalType": "uint256",
              "name": "value",
              "type": "uint256"
            },
            {
              "internalType": "uint256",
              "name": "deadline",
              "type": "uint256"
            },
            {
              "internalType": "uint8",
              "name": "v",
              "type": "uint8"
            },
            {
              "internalType": "bytes32",
              "name": "r",
              "type": "bytes32"
            },
            {
              "internalType": "bytes32",
              "name": "s",
              "type": "bytes32"
            }
          ],
          "internalType": "struct ITapiocaOFT.IApproval[]",
          "name": "approvals",
          "type": "tuple[]"
        }
      ],
      "name": "sendToYBAndBorrow",
      "outputs": [],
      "stateMutability": "payable",
      "type": "function"
    },
    {
      "inputs": [
        {
          "internalType": "uint16",
          "name": "_version",
          "type": "uint16"
        },
        {
          "internalType": "uint16",
          "name": "_chainId",
          "type": "uint16"
        },
        {
          "internalType": "uint256",
          "name": "_configType",
          "type": "uint256"
        },
        {
          "internalType": "bytes",
          "name": "_config",
          "type": "bytes"
        }
      ],
      "name": "setConfig",
      "outputs": [],
      "stateMutability": "nonpayable",
      "type": "function"
    },
    {
      "inputs": [
        {
          "internalType": "uint16",
          "name": "_dstChainId",
          "type": "uint16"
        },
        {
          "internalType": "uint16",
          "name": "_packetType",
          "type": "uint16"
        },
        {
          "internalType": "uint256",
          "name": "_minGas",
          "type": "uint256"
        }
      ],
      "name": "setMinDstGas",
      "outputs": [],
      "stateMutability": "nonpayable",
      "type": "function"
    },
    {
      "inputs": [
        {
          "internalType": "uint16",
          "name": "_dstChainId",
          "type": "uint16"
        },
        {
          "internalType": "uint256",
          "name": "_size",
          "type": "uint256"
        }
      ],
      "name": "setPayloadSizeLimit",
      "outputs": [],
      "stateMutability": "nonpayable",
      "type": "function"
    },
    {
      "inputs": [
        {
          "internalType": "address",
          "name": "_precrime",
          "type": "address"
        }
      ],
      "name": "setPrecrime",
      "outputs": [],
      "stateMutability": "nonpayable",
      "type": "function"
    },
    {
      "inputs": [
        {
          "internalType": "uint16",
          "name": "_version",
          "type": "uint16"
        }
      ],
      "name": "setReceiveVersion",
      "outputs": [],
      "stateMutability": "nonpayable",
      "type": "function"
    },
    {
      "inputs": [
        {
          "internalType": "uint16",
          "name": "_version",
          "type": "uint16"
        }
      ],
      "name": "setSendVersion",
      "outputs": [],
      "stateMutability": "nonpayable",
      "type": "function"
    },
    {
      "inputs": [
        {
          "internalType": "uint16",
          "name": "_srcChainId",
          "type": "uint16"
        },
        {
          "internalType": "bytes",
          "name": "_path",
          "type": "bytes"
        }
      ],
      "name": "setTrustedRemote",
      "outputs": [],
      "stateMutability": "nonpayable",
      "type": "function"
    },
    {
      "inputs": [
        {
          "internalType": "uint16",
          "name": "_remoteChainId",
          "type": "uint16"
        },
        {
          "internalType": "bytes",
          "name": "_remoteAddress",
          "type": "bytes"
        }
      ],
      "name": "setTrustedRemoteAddress",
      "outputs": [],
      "stateMutability": "nonpayable",
      "type": "function"
    },
    {
      "inputs": [
        {
          "internalType": "bool",
          "name": "_useCustomAdapterParams",
          "type": "bool"
        }
      ],
      "name": "setUseCustomAdapterParams",
      "outputs": [],
      "stateMutability": "nonpayable",
      "type": "function"
    },
    {
      "inputs": [],
      "name": "sharedDecimals",
      "outputs": [
        {
          "internalType": "uint8",
          "name": "",
          "type": "uint8"
        }
      ],
      "stateMutability": "view",
      "type": "function"
    },
    {
      "inputs": [
        {
          "internalType": "bytes4",
          "name": "interfaceId",
          "type": "bytes4"
        }
      ],
      "name": "supportsInterface",
      "outputs": [
        {
          "internalType": "bool",
          "name": "",
          "type": "bool"
        }
      ],
      "stateMutability": "view",
      "type": "function"
    },
    {
      "inputs": [],
      "name": "symbol",
      "outputs": [
        {
          "internalType": "string",
          "name": "",
          "type": "string"
        }
      ],
      "stateMutability": "view",
      "type": "function"
    },
    {
      "inputs": [],
      "name": "token",
      "outputs": [
        {
          "internalType": "address",
          "name": "",
          "type": "address"
        }
      ],
      "stateMutability": "view",
      "type": "function"
    },
    {
      "inputs": [],
      "name": "totalSupply",
      "outputs": [
        {
          "internalType": "uint256",
          "name": "",
          "type": "uint256"
        }
      ],
      "stateMutability": "view",
      "type": "function"
    },
    {
      "inputs": [
        {
          "internalType": "address",
          "name": "to",
          "type": "address"
        },
        {
          "internalType": "uint256",
          "name": "amount",
          "type": "uint256"
        }
      ],
      "name": "transfer",
      "outputs": [
        {
          "internalType": "bool",
          "name": "",
          "type": "bool"
        }
      ],
      "stateMutability": "nonpayable",
      "type": "function"
    },
    {
      "inputs": [
        {
          "internalType": "address",
          "name": "from",
          "type": "address"
        },
        {
          "internalType": "address",
          "name": "to",
          "type": "address"
        },
        {
          "internalType": "uint256",
          "name": "amount",
          "type": "uint256"
        }
      ],
      "name": "transferFrom",
      "outputs": [
        {
          "internalType": "bool",
          "name": "",
          "type": "bool"
        }
      ],
      "stateMutability": "nonpayable",
      "type": "function"
    },
    {
      "inputs": [
        {
          "internalType": "address",
          "name": "newOwner",
          "type": "address"
        }
      ],
      "name": "transferOwnership",
      "outputs": [],
      "stateMutability": "nonpayable",
      "type": "function"
    },
    {
      "inputs": [
        {
          "internalType": "uint16",
          "name": "",
          "type": "uint16"
        }
      ],
      "name": "trustedRemoteLookup",
      "outputs": [
        {
          "internalType": "bytes",
          "name": "",
          "type": "bytes"
        }
      ],
      "stateMutability": "view",
      "type": "function"
    },
    {
      "inputs": [],
      "name": "useCustomAdapterParams",
      "outputs": [
        {
          "internalType": "bool",
          "name": "",
          "type": "bool"
        }
      ],
      "stateMutability": "view",
      "type": "function"
    },
    {
      "inputs": [],
      "name": "yieldBox",
      "outputs": [
        {
          "internalType": "contract IYieldBoxBase",
          "name": "",
          "type": "address"
        }
      ],
      "stateMutability": "view",
      "type": "function"
    },
    {
      "stateMutability": "payable",
      "type": "receive"
    }
  ],
  "bytecode": "0x60e060409080825234620005815762004c7d803803809162000022828562000586565b833981019060e08183031262000581576200003d81620005c0565b906020906200004e828201620005c0565b818601516001600160a01b0380821696909291879003620005815760608401516001600160401b0395908681116200058157826200008e918701620005fa565b916080860151908782116200058157620000aa918701620005fa565b9060a086015160ff811696878203620005815760c00151978b5180956a546170696f63614f46542d60a81b85830152620000ee8151809287602b86019101620005d5565b8101039462000108602b600b978881018452018262000586565b607f8d518096601d60fa1b878301526200012c8151809289602186019101620005d5565b810103936200014660216001968781018a52018862000586565b841c16946000968988549d60018060a01b03199e8f33908216178b55823391167f8be0079c531659141344cd1fd0a4f28419497f9722a3daafe3b4186f6b6457e08c80a3166080528660a05282518481116200056d578154938685811c9516801562000562575b888610146200054e578190601f95868111620004fb575b50889086831160011462000497578b926200048b575b5050600019600383901b1c191690861b1790555b80519283116200047757600c548481811c911680156200046c575b8682101462000458578281116200040f575b5084918311600114620003a95792829391839288946200039d575b50501b916000199060031b1c191617600c555b60ff6200025562000655565b16908183116200034a57500360ff8111620003365760ff1690604d8211620003225750600a0a60c0521683600e541617600e5560ff196010541617601055600f55600d541617600d555161461190816200066c8239608051818181610464015281816107450152818161088201528181610c5d01528181610e1201528181611a4901528181611b59015281816122f5015281816129fe015281816132e90152613746015260a0518161150e015260c05181818161397301528181613bea01528181613e570152613eef0152f35b634e487b7160e01b81526011600452602490fd5b634e487b7160e01b82526011600452602482fd5b6084908b519062461bcd60e51b82526004820152602760248201527f4f46543a20736861726564446563696d616c73206d757374206265203c3d20646044820152666563696d616c7360c81b6064820152fd5b01519250388062000236565b600c8752848720919083601f198116895b8888838310620003f75750505010620003dd575b505050811b01600c5562000249565b015160001960f88460031b161c19169055388080620003ce565b868601518855909601959485019487935001620003ba565b600c88528588208380860160051c8201928887106200044e575b0160051c019085905b828110620004425750506200021b565b89815501859062000432565b9250819262000429565b634e487b7160e01b88526022600452602488fd5b90607f169062000209565b634e487b7160e01b87526041600452602487fd5b015190503880620001da565b848c52898c208994509190601f1984168d5b8c828210620004e45750508411620004ca575b505050811b019055620001ee565b015160001960f88460031b161c19169055388080620004bc565b8385015186558c97909501949384019301620004a9565b909150838b52888b208680850160051c8201928b861062000544575b918a91869594930160051c01915b82811062000535575050620001c4565b8d81558594508a910162000525565b9250819262000517565b634e487b7160e01b8a52602260045260248afd5b94607f1694620001ad565b634e487b7160e01b89526041600452602489fd5b600080fd5b601f909101601f19168101906001600160401b03821190821017620005aa57604052565b634e487b7160e01b600052604160045260246000fd5b51906001600160a01b03821682036200058157565b60005b838110620005e95750506000910152565b8181015183820152602001620005d8565b81601f82011215620005815780516001600160401b038111620005aa576040519262000631601f8301601f19166020018562000586565b818452602082840101116200058157620006529160208085019101620005d5565b90565b60ff601054168015620006655790565b5060129056fe6080604052600436101561001b575b361561001957600080fd5b005b60003560e01c80621d35671461038f57806254af3a1461038a57806301ffc9a71461038557806306fdde031461038057806307e0db171461037b578063095ea7b3146103765780630df374831461037157806310ddb1371461036c578063146110721461036757806318160ddd1461030357806323b872dd14610362578063313ce5671461035d578063365260b41461035857806339509351146103535780633d8b38f61461034e5780633f1f4fa41461034957806342d65a8d14610344578063447705151461033f5780634c42899a1461033f5780635b8c41e61461033a57806366ad5c8a14610335578063695ef6bf1461033057806370a082311461032b578063715018a6146103265780637533d7881461032157806376203b481461031c578063785e9e8614610317578063857749b0146103125780638cfd8f5c1461030d5780638da5cb5b146103085780639358928b14610303578063950c8a74146102fe57806395d89b41146102f95780639bdb9812146102f45780639f38369a146102ef578063a457c2d7146102ea578063a4c51df5146102e5578063a6c3d165146102e0578063a9059cbb146102db578063b353aaa7146102d6578063baf3292d146102d1578063c4461834146102cc578063cbed8b9c146102c7578063d1deba1f146102c2578063d43f2802146102bd578063dd62ed3e146102b8578063de406577146102b3578063df2a5b3b146102ae578063e6a20ae6146102a9578063eab45d9c146102a4578063eaffd49a1461029f578063eb8d72b71461029a578063ed629c5c14610295578063f2fde38b14610290578063f5ecbdbc1461028b5763fc0c546a0361000e5761235f565b61228b565b6121d6565b6121b3565b61208a565b612001565b611f9f565b611f83565b611e96565b611e6d565b611e23565b611d7e565b611bde565b611b05565b611ae8565b611a78565b611a33565b611a09565b6118a7565b611814565b611768565b6116c5565b61167a565b6115d6565b6115ad565b610b3a565b611584565b611532565b6114f4565b6114cb565b6112ae565b611257565b611123565b6110e6565b611003565b610f6f565b610f1b565b610e79565b610df8565b610dbf565b610d63565b610cdb565b610bd3565b610b98565b610b58565b6109dc565b610859565b61081a565b6107e5565b61071c565b61063c565b61058a565b61056c565b61044d565b61ffff8116036103a057565b600080fd5b9181601f840112156103a0578235916001600160401b0383116103a057602083818601950101116103a057565b608435906001600160401b03821682036103a057565b9060806003198301126103a05760043561040181610394565b916001600160401b03906024358281116103a05781610422916004016103a5565b9390939260443581811681036103a057926064359182116103a057610449916004016103a5565b9091565b346103a05761045b366103e8565b929493919291907f00000000000000000000000000000000000000000000000000000000000000006001600160a01b0316330361051c576104e16104e992610019976104da6104c06104bb8a61ffff166000526001602052604060002090565b61123c565b8051908184149182610512575b50816104ef575b506131f2565b369161098a565b92369161098a565b926134d9565b90506104fc36848661098a565b60208151910120906020815191012014386104d4565b15159150386104cd565b60405162461bcd60e51b815260206004820152601e60248201527f4c7a4170703a20696e76616c696420656e64706f696e742063616c6c657200006044820152606490fd5b60009103126103a057565b346103a05760003660031901126103a0576020600f54604051908152f35b346103a05760203660031901126103a05760043563ffffffff60e01b81168091036103a057602090631f7ecdf760e01b81149081156105cf575b506040519015158152f35b6301ffc9a760e01b149050386105c4565b60005b8381106105f35750506000910152565b81810151838201526020016105e3565b9060209161061c815180928185528580860191016105e0565b601f01601f1916010190565b906020610639928181520190610603565b90565b346103a0576000806003193601126107195760405181600b5461065e8161116c565b808452906001908181169081156106f15750600114610698575b610694846106888188038261092c565b60405191829182610628565b0390f35b600b8352602094507f0175b7a638427703f0dbe7bb9bbf987a2551717b34e79f33b5b1008d1fa01db95b8284106106de5750505081610694936106889282010193610678565b80548585018701529285019281016106c2565b61069496506106889450602092508593915060ff191682840152151560051b82010193610678565b80fd5b346103a057600060203660031901126107195760043561073b81610394565b61074361237a565b7f00000000000000000000000000000000000000000000000000000000000000006001600160a01b0316908290823b156107b757602461ffff918360405195869485936307e0db1760e01b85521660048401525af180156107b2576107a6575080f35b6107af906108f9565b80f35b612792565b5080fd5b6001600160a01b031690565b6001600160a01b038116036103a057565b35906107e3826107c7565b565b346103a05760403660031901126103a05761080f600435610805816107c7565b60243590336125d4565b602060405160018152f35b346103a05760403660031901126103a05761ffff60043561083a81610394565b61084261237a565b166000526003602052602435604060002055600080f35b346103a057600060203660031901126107195760043561087881610394565b61088061237a565b7f00000000000000000000000000000000000000000000000000000000000000006001600160a01b0316908290823b156107b757602461ffff918360405195869485936310ddb13760e01b85521660048401525af180156107b2576107a6575080f35b634e487b7160e01b600052604160045260246000fd5b6001600160401b03811161090c57604052565b6108e3565b608081019081106001600160401b0382111761090c57604052565b601f909101601f19168101906001600160401b0382119082101761090c57604052565b6040519061014082016001600160401b0381118382101761090c57604052565b6001600160401b03811161090c57601f01601f191660200190565b9291926109968261096f565b916109a4604051938461092c565b8294818452818301116103a0578281602093846000960137010152565b9080601f830112156103a0578160206106399335910161098a565b60403660031901126103a0576109f3600435610394565b6024356001600160401b0381116103a057610a15610a249136906004016109c1565b60208082518301019101612cce565b80919392955051610b2b575b50610a3c84513061420b565b6040820151151592610a8a610a56606085015161ffff1690565b6080850151604051966001600160a01b03948893610a7c93929187169160208601612d8a565b03601f19810186528561092c565b610ab8610ab3610ab360408801610aac610aa482516107bb565b8a5190612403565b50516107bb565b6107bb565b91610ac660608701516107bb565b93610ad8602088519801519151151590565b95843b156103a057600096610b0692604051998a988997889763411628d960e01b8952169060048801612dbb565b039134905af180156107b257610b1857005b80610b25610019926108f9565b80610561565b610b3490612ef9565b38610a30565b346103a05760003660031901126103a0576020600a54604051908152f35b346103a05760603660031901126103a05761080f600435610b78816107c7565b602435610b84816107c7565b60443591610b938333836126ed565b612505565b346103a05760003660031901126103a0576020610bb36131dd565b60ff60405191168152f35b801515036103a057565b35906107e382610bbe565b346103a05760a03660031901126103a057600435610bf081610394565b60643590610bfd82610bbe565b608435906001600160401b0382116103a057610c226104da60409336906004016103a5565b90610c59610c3c610c34604435613e55565b602435613f24565b928451958694859463040a7bb160e41b86523090600487016138d0565b03817f00000000000000000000000000000000000000000000000000000000000000006001600160a01b03165afa9081156107b2576000908192610caa575b50604080519182526020820192909252f35b9050610ccd915060403d8111610cd4575b610cc5818361092c565b8101906138ba565b9038610c98565b503d610cbb565b346103a05760403660031901126103a057600435610cf8816107c7565b336000526009602052610d0f8160406000206123ec565b546024358101809111610d265761080f91336125d4565b612413565b9060406003198301126103a057600435610d4481610394565b91602435906001600160401b0382116103a057610449916004016103a5565b346103a057602061ffff610db0610d7936610d2b565b9390911660005260018452610d9b610da26040600020604051928380926111a6565b038261092c565b84815191012092369161098a565b82815191012014604051908152f35b346103a05760203660031901126103a05761ffff600435610ddf81610394565b1660005260036020526020604060002054604051908152f35b346103a057610e0636610d2b565b9190610e1061237a565b7f00000000000000000000000000000000000000000000000000000000000000006001600160a01b031691823b156103a057604051928380926342d65a8d60e01b825281610e67600098899788946004850161344c565b03925af180156107b2576107a6575080f35b346103a05760003660031901126103a057602060405160008152f35b60606003198201126103a057600435610ead81610394565b916001600160401b0391602435908382116103a057610ece916004016109c1565b9160443590811681036103a05790565b602090610ef89282604051948386809551938492016105e0565b82019081520301902090565b9060018060401b0316600052602052604060002090565b346103a0576020610f6661ffff610f5883610f3536610e95565b9490911660005260058252604060002082604051948386809551938492016105e0565b820190815203019020610f04565b54604051908152f35b346103a057610f7d366103e8565b9192949390303303610fa1576104e1610f9b9261001997369161098a565b92613914565b60405162461bcd60e51b815260206004820152602660248201527f4e6f6e626c6f636b696e674c7a4170703a2063616c6c6572206d7573742062656044820152650204c7a4170760d41b6064820152608490fd5b908160609103126103a05790565b60a03660031901126103a05760043561101b816107c7565b60243561102781610394565b604435916084356001600160401b0381116103a057602061ffff61105e60008051602061451c833981519152933690600401610ff5565b936110d1853561106d816107c7565b61108b6104da86890135986110818a6107c7565b60408101906136c4565b611095818a613d57565b6110aa6110a3606435613eed565b50856140f5565b976110b6891515613ac9565b6110c86110c28a613e55565b8c613f24565b9234938b6132a5565b6040519485526001600160a01b0316941692a4005b346103a05760203660031901126103a057600435611103816107c7565b60018060a01b031660005260086020526020604060002054604051908152f35b346103a0576000806003193601126107195761113d61237a565b80546001600160a01b03198116825581906001600160a01b031660008051602061457c8339815191528280a380f35b90600182811c9216801561119c575b602083101461118657565b634e487b7160e01b600052602260045260246000fd5b91607f169161117b565b90600092918054916111b78361116c565b91828252600193848116908160001461121957506001146111d9575b50505050565b90919394506000526020928360002092846000945b8386106112055750505050010190388080806111d3565b8054858701830152940193859082016111ee565b9294505050602093945060ff191683830152151560051b010190388080806111d3565b906107e361125092604051938480926111a6565b038361092c565b346103a05760203660031901126103a05761ffff60043561127781610394565b166000526001602052610694610d9b61129a6040600020604051928380926111a6565b604051918291602083526020830190610603565b60e03660031901126103a0576004356112c6816107c7565b6024356112d281610394565b604435916001600160401b03906084358281116103a0576112f79036906004016103a5565b91909260a43591818316918284036103a05760c4359081116103a057611321903690600401610ff5565b92611358843595611331876107c7565b611350611346602088013597611081896107c7565b999092369161098a565b97369161098a565b9460ff6006541660001461144a57602286511061140657856020956110c86110d1946113d48c6113c161ffff9a8b602260008051602061451c8339815191529f0151931660005260028d526113bb60406000206001600052602052604060002090565b54612445565b906113cd821515613dac565b1015613df5565b6113e96113e2606435613eed565b50886140f5565b9a6113f58c1515613ac9565b8d6113ff8d613e55565b9033613fb2565b60405162461bcd60e51b815260206004820152601c60248201527b4c7a4170703a20696e76616c69642061646170746572506172616d7360201b6044820152606490fd5b9480949350516114775760008051602061451c8339815191529460209461ffff946110c86110d1946113d4565b60405162461bcd60e51b815260206004820152602660248201527f4f4654436f72653a205f61646170746572506172616d73206d7573742062652060448201526532b6b83a3c9760d11b6064820152608490fd5b346103a05760003660031901126103a057600e546040516001600160a01b039091168152602090f35b346103a05760003660031901126103a057602060405160ff7f0000000000000000000000000000000000000000000000000000000000000000168152f35b346103a05760403660031901126103a0576020610f6660043561155481610394565b61ffff6024359161156483610394565b166000526002835260406000209061ffff16600052602052604060002090565b346103a05760003660031901126103a0576000546040516001600160a01b039091168152602090f35b346103a05760003660031901126103a0576004546040516001600160a01b039091168152602090f35b346103a0576000806003193601126107195760405181600c546115f88161116c565b808452906001908181169081156106f1575060011461162157610694846106888188038261092c565b600c8352602094507fdf6966c971051c3d54ec59162606531493a51404a002842f56009d7e5cf4a8c75b8284106116675750505081610694936106889282010193610678565b805485850187015292850192810161164b565b346103a057602060ff6116b961ffff610f588461169636610e95565b9490911660005260078252604060002082604051948386809551938492016105e0565b54166040519015158152f35b346103a05760203660031901126103a05761ffff6004356116e581610394565b166000526001602052610d9b6117056040600020604051928380926111a6565b805115611723576106888161171d61069493516134bb565b9061430f565b60405162461bcd60e51b815260206004820152601d60248201527f4c7a4170703a206e6f20747275737465642070617468207265636f72640000006044820152606490fd5b346103a05760403660031901126103a057600435611785816107c7565b602435903360005260096020526117a08160406000206123ec565b54918083106117c1576117b5920390336125d4565b60405160018152602090f35b60405162461bcd60e51b815260206004820152602560248201527f45524332303a2064656372656173656420616c6c6f77616e63652062656c6f77604482015264207a65726f60d81b6064820152608490fd5b346103a05760e03660031901126103a05760043561183181610394565b6001600160401b03906064358281116103a0576118529036906004016103a5565b61185d9291926103d2565b60a4359161186a83610bbe565b60c4359586116103a0576118856118959636906004016103a5565b95909460443590602435906136f6565b60408051928352602083019190915290f35b346103a0576118b536610d2b565b906118be61237a565b604051926020928083858701376118ea6034868381013060601b8882015203601481018852018661092c565b61ffff8216600090815260018086526040822087519296909291906001600160401b03831161090c5761192783611921865461116c565b86613467565b80601f84116001146119855750918080926119749695948a9b60008051602061453c8339815191529b9461197a575b50501b916000199060031b1c19161790555b6040519384938461344c565b0390a180f35b015192503880611956565b91939498601f19841661199d87600052602060002090565b938a905b8282106119f25750509160008051602061453c833981519152999a95939185611974989694106119d9575b505050811b019055611968565b015160001960f88460031b161c191690553880806119cc565b8088869782949787015181550196019401906119a1565b346103a05760403660031901126103a05761080f600435611a29816107c7565b6024359033612505565b346103a05760003660031901126103a0576040517f00000000000000000000000000000000000000000000000000000000000000006001600160a01b03168152602090f35b346103a05760203660031901126103a0577f5db758e995a17ec1ad84bdef7e8c3293a0bd6179bcce400dff5d4c3d87db726b6020600435611ab8816107c7565b611ac061237a565b600480546001600160a01b0319166001600160a01b03929092169182179055604051908152a1005b346103a05760003660031901126103a05760206040516127108152f35b346103a05760803660031901126103a057600435611b2281610394565b602435611b2e81610394565b6064356001600160401b0381116103a057611b4d9036906004016103a5565b9092611b5761237a565b7f00000000000000000000000000000000000000000000000000000000000000006001600160a01b031690813b156103a05760008094611bce604051978896879586946332fb62e760e21b865261ffff8092166004870152166024850152604435604485015260806064850152608484019161279e565b03925af180156107b257610b1857005b611be7366103e8565b9161ffff86949296166000526005602052611c1b81604060002060206040518092878b833787820190815203019020610f04565b54918215611cca57611cb98483611cb27fc264d91f3adc5588250e1551f547752ca0cfa8f6b530d243b9f9f4cab10ea8e59a6000611c9e84611c998e8a8f611cc59f908f611c7f90611c72611c939436908d61098a565b6020815191012014613637565b61ffff166000526005602052604060002090565b9161361e565b610f04565b55611caa36878d61098a565b93369161098a565b9188613914565b6040519586958661368d565b0390a1005b60405162461bcd60e51b815260206004820152602360248201527f4e6f6e626c6f636b696e674c7a4170703a206e6f2073746f726564206d65737360448201526261676560e81b6064820152608490fd5b60809060831901126103a057608490565b908160a09103126103a05790565b6040906101231901126103a05761012490565b9181601f840112156103a0578235916001600160401b0383116103a05760208085019461014085020101116103a057565b6101803660031901126103a057600435611d97816107c7565b602435611da3816107c7565b60443591611db083610394565b6001600160401b03926064358481116103a057611dd19036906004016103a5565b611dda36611d1b565b90610104358781116103a057611df4903690600401611d2c565b92611dfe36611d3a565b94610164359889116103a057611e1b610019993690600401611d4d565b9890976129d5565b346103a05760403660031901126103a0576020610f66600435611e45816107c7565b60243590611e52826107c7565b6001600160a01b0316600090815260098452604090206123ec565b346103a05760003660031901126103a057600d546040516001600160a01b039091168152602090f35b346103a05760603660031901126103a057600435611eb381610394565b602435611ebf81610394565b60443591611ecb61237a565b8215611f4657611cc57f9d5c7c0b934da8fefa9c7760c98383778a12dfbfc0c3b3106518f43fb9508ac09361ffff8316600052600260205280611f208560406000209061ffff16600052602052604060002090565b556040519384938460409194939294606082019561ffff80921683521660208201520152565b60405162461bcd60e51b81526020600482015260156024820152744c7a4170703a20696e76616c6964206d696e47617360581b6044820152606490fd5b346103a05760003660031901126103a057602060405160018152f35b346103a05760203660031901126103a0577f1584ad594a70cbe1e6515592e1272a987d922b097ead875069cebe8b40c004a46020600435611fdf81610bbe565b611fe761237a565b151560ff196006541660ff821617600655604051908152a1005b346103a0576101003660031901126103a05760043561201f81610394565b6001600160401b03906024358281116103a0576120409036906004016103a5565b91906044359084821682036103a05760843561205b816107c7565b60c4359586116103a0576120766100199636906004016103a5565b94909360e4359660a43594606435936137ed565b346103a05761209836610d2b565b91906120a261237a565b61ffff82166000908152600160208181526040832092949291906001600160401b03871161090c576120de876120d8855461116c565b85613467565b8590601f88116001146121335750918680879893611974956000805160206145bc8339815191529993612128575b501b906000198460031b1c19161790556040519384938461344c565b88013592503861210c565b90601f19881661214885600052602060002090565b9288905b82821061219c575050918893916000805160206145bc8339815191529899611974969410612182575b505082811b019055611968565b870135600019600386901b60f8161c191690553880612175565b808685968294968c0135815501950193019061214c565b346103a05760003660031901126103a057602060ff600654166040519015158152f35b346103a05760203660031901126103a0576004356121f3816107c7565b6121fb61237a565b6001600160a01b03908116801561223757600080546001600160a01b031981168317825590921660008051602061457c8339815191528380a380f35b60405162461bcd60e51b815260206004820152602660248201527f4f776e61626c653a206e6577206f776e657220697320746865207a65726f206160448201526564647265737360d01b6064820152608490fd5b346103a05760803660031901126103a0576004356122a881610394565b602435906122b582610394565b6122c06044356107c7565b604051633d7b2f6f60e21b815261ffff91821660048201529116602482015230604482015260648035908201526000816084817f00000000000000000000000000000000000000000000000000000000000000006001600160a01b03165afa80156107b2576106949160009161233e575b5060405191829182610628565b612359913d8091833e612351818361092c565b810190613427565b38612331565b346103a05760003660031901126103a0576020604051308152f35b6000546001600160a01b0316330361238e57565b606460405162461bcd60e51b815260206004820152602060248201527f4f776e61626c653a2063616c6c6572206973206e6f7420746865206f776e65726044820152fd5b6001600160a01b0316600090815260086020526040902090565b9060018060a01b0316600052602052604060002090565b9061240e91336125d4565b600190565b634e487b7160e01b600052601160045260246000fd5b90601f8201809211610d2657565b6051019081605111610d2657565b91908201809211610d2657565b1561245957565b60405162461bcd60e51b815260206004820152602360248201527f45524332303a207472616e7366657220746f20746865207a65726f206164647260448201526265737360e81b6064820152608490fd5b156124b157565b60405162461bcd60e51b815260206004820152602660248201527f45524332303a207472616e7366657220616d6f756e7420657863656564732062604482015265616c616e636560d01b6064820152608490fd5b916001600160a01b038084169290918315612581576125668260008051602061459c8339815191529461257c94169661253f881515612452565b6125608461254c836123d2565b54612559828210156124aa565b03916123d2565b556123d2565b8054820190556040519081529081906020820190565b0390a3565b60405162461bcd60e51b815260206004820152602560248201527f45524332303a207472616e736665722066726f6d20746865207a65726f206164604482015264647265737360d81b6064820152608490fd5b6001600160a01b03808216929190831561269c57821693841561264c578061263b7f8c5be1e5ebec7d5bd14f71427d1e84f3dd0314c0f7b2291e5b200ac8c7c3b9259461263661257c9560018060a01b03166000526009602052604060002090565b6123ec565b556040519081529081906020820190565b60405162461bcd60e51b815260206004820152602260248201527f45524332303a20617070726f766520746f20746865207a65726f206164647265604482015261737360f01b6064820152608490fd5b60405162461bcd60e51b8152602060048201526024808201527f45524332303a20617070726f76652066726f6d20746865207a65726f206164646044820152637265737360e01b6064820152608490fd5b9060018060a01b038216600052600960205261270d8160406000206123ec565b54926001840161271d5750505050565b8084106127385761272f9303916125d4565b388080806111d3565b60405162461bcd60e51b815260206004820152601d60248201527f45524332303a20696e73756666696369656e7420616c6c6f77616e63650000006044820152606490fd5b908160209103126103a0575161063981610394565b6040513d6000823e3d90fd5b908060209392818452848401376000828201840152601f01601f1916010190565b60ff8116036103a057565b35906107e3826127bf565b9190808252602080920192916000905b8282106127f3575050505090565b909192938061280d60019261280788610bc8565b15159052565b61282a61281b8488016107d8565b6001600160a01b031682850152565b612842604061283a818901610bc8565b151590830152565b61286160606128528189016107d8565b6001600160a01b031690830152565b61287160806128528189016107d8565b60a0808701359082015260c0808701359082015261289e60e06128958189016127ca565b60ff1690830152565b610100868101359082015261012080870135908201526101409081019501939201906127e5565b9495939260609192610307875260018060a01b038094166020880152604087015280358287015260208101356080870152826040820135612905816107c7565b1660a08701520135612916816107c7565b1660c08401526101208060e0850152813561293081610bbe565b1515908401526020810135610140840152604081013561294f81610bbe565b151561016084015261ffff606082013561296881610394565b166101808401526080810135601e19823603018112156103a05701602081019390356001600160401b0381116103a05780360385136103a057610639946129bc9160a06101a08701526101c086019161279e565b926101008185039101526127d5565b35610639816107c7565b9091959692979860018060a01b0380931699604051916303408e4760e41b8352602083600481887f0000000000000000000000000000000000000000000000000000000000000000165afa9182156107b2578c938593612aae575b5088359a612a3e8c856140f5565b50604051998a95612a5295602088016128c5565b03601f1981018652612a64908661092c565b16956020879201612a74906129cb565b9034933690612a829261098a565b91612a8d94866132a5565b60405191825261ffff169060008051602061451c83398151915290602090a4565b612ace9060203d8111612ad5575b612ac6818361092c565b81019061277d565b5038612a30565b503d612abc565b51906107e3826107c7565b51906107e382610bbe565b81601f820112156103a0578051612b088161096f565b92612b16604051948561092c565b818452602082840101116103a05761063991602080850191016105e0565b91909160a0818403126103a057604051906001600160401b039060a083018281118482101761090c5760405282948151612b6d81610bbe565b8452602082015160208501526040820151612b8781610bbe565b60408501526060820151612b9a81610394565b606085015260808201519283116103a057608092612bb89201612af2565b910152565b51906107e3826127bf565b81601f820112156103a0578051906001600160401b03821161090c576040805193602091612bfb838660051b018761092c565b8486528286019183610140809702860101948186116103a0578401925b858410612c29575050505050505090565b86848303126103a057848791612c3d61094f565b612c4687612ae7565b8152612c53838801612adc565b83820152612c62868801612ae7565b868201526060612c73818901612adc565b908201526080612c84818901612adc565b9082015260a0808801519082015260c0808801519082015260e0612ca9818901612bbd565b9082015261010080880151908201526101208088015190820152815201930192612c18565b9190918083039061012082126103a0578051612ce981610394565b936020820151612cf8816107c7565b936080604084015194605f1901126103a057604051612d1681610911565b606084015181526080840151602082015260a0840151612d35816107c7565b604082015260c0840151612d48816107c7565b606082015260e084015190936001600160401b039390918481116103a05781612d72918401612b34565b936101008301519081116103a0576106399201612bc8565b909261ffff60809361063996951515845216602083015260018060a01b031660408201528160608201520190610603565b9391906106399695939160018060a01b0380921686521660208501526040840152606083015260016080830152600160a0830152151560c0820152610100908160e08201520190610603565b8051821015612e1b5760209160051b010190565b634e487b7160e01b600052603260045260246000fd5b9360ff929897969360c0969260e087019a60018060a01b0380921688521660208701526040860152606085015216608083015260a08201520152565b60009060033d11612e7a57565b905060046000803e60005160e01c90565b600060443d1061063957604051600319913d83016004833e81516001600160401b03918282113d602484011117612ee857818401948551938411612ef0573d85010160208487010111612ee857506106399291016020019061092c565b949350505050565b50949350505050565b60005b81518110156131d9576040612f1d81612f158486612e07565b510151151590565b1561309757612f46610ab3610ab36020612f378688612e07565b5101516001600160a01b031690565b90612f566060612f378587612e07565b612f656080612f378688612e07565b9260a0612f728688612e07565b51015160c0612f818789612e07565b51015190612f9d60e0612f94898b612e07565b51015160ff1690565b93610100612fab898b612e07565b510151610120612fbb8a8c612e07565b51015190853b156103a057875196879586956301da8bf160e41b875260049b8c880196612fe797612e31565b03815a6000948591f19081613084575b5061307a57600191613007612e6d565b6308c379a014613022575b50506107b2576001905b01612efc565b61302a612e8b565b9081613037575b50613012565b60009350909161305861305461304d8789612e07565b5151151590565b1590565b15613031575162461bcd60e51b815291829161307691908301610628565b0390fd5b505060019061301c565b80610b25613091926108f9565b38612ff7565b6130ac610ab3610ab36020612f378688612e07565b906130bc6060612f378587612e07565b6130cb6080612f378688612e07565b9260a06130d88688612e07565b51015160c06130e78789612e07565b510151906130fa60e0612f94898b612e07565b93610100613108898b612e07565b5101516101206131188a8c612e07565b51015190853b156103a0578751968795869563d505accf60e01b875260049b8c88019661314497612e31565b03815a6000948591f190816131c6575b5061307a57600191613164612e6d565b6308c379a01461317d575b50506107b25760019061301c565b613185612e8b565b9081613192575b5061316f565b6000935090916131a861305461304d8789612e07565b1561318c575162461bcd60e51b815291829161307691908301610628565b80610b256131d3926108f9565b38613154565b5050565b60ff6010541680156131ec5790565b50601290565b156131f957565b60405162461bcd60e51b815260206004820152602660248201527f4c7a4170703a20696e76616c696420736f757263652073656e64696e6720636f6044820152651b9d1c9858dd60d21b6064820152608490fd5b9261327261063997959361ffff6132809416865260c0602087015260c0860190610603565b908482036040860152610603565b6001600160a01b0391821660608401529316608082015280830360a090910152610603565b946132ce9193929561ffff811660005260016020526132d56040600020604051948580926111a6565b038461092c565b82511561335a576132e78551826133b8565b7f00000000000000000000000000000000000000000000000000000000000000006001600160a01b031693843b156103a05760009661333c91604051998a988997889662c5803160e81b88526004880161324d565b03925af180156107b25761334d5750565b80610b256107e3926108f9565b60405162461bcd60e51b815260206004820152603060248201527f4c7a4170703a2064657374696e6174696f6e20636861696e206973206e6f742060448201526f61207472757374656420736f7572636560801b6064820152608490fd5b61ffff16600052600360205260406000205490811561341d575b116133d957565b606460405162461bcd60e51b815260206004820152602060248201527f4c7a4170703a207061796c6f61642073697a6520697320746f6f206c617267656044820152fd5b61271091506133d2565b906020828203126103a05781516001600160401b0381116103a0576106399201612af2565b60409061ffff6106399593168152816020820152019161279e565b90601f811161347557505050565b600091825260208220906020601f850160051c830194106134b1575b601f0160051c01915b8281106134a657505050565b81815560010161349a565b9092508290613491565b601319810191908211610d2657565b605019810191908211610d2657565b92909161354b5a604051633356ae4560e11b602082015261ffff8716602482015260806044820152906135458261353761351660a483018a610603565b6001600160401b038816606484015282810360231901608484015288610603565b03601f19810184528361092c565b306144be565b93901561355a575b5050505050565b6135639461356d565b3880808080613553565b919361360b7fe183f33de2837795525b4792ca4cd60535bd77c53b7e7030060bfcf5734d6b0c95613619939561ffff815160208301209616958660005260056020526135d183610f5860208b604060002082604051948386809551938492016105e0565b556135ee604051978897885260a0602089015260a0880190610603565b6001600160401b0390921660408701528582036060870152610603565b908382036080850152610603565b0390a1565b6020919283604051948593843782019081520301902090565b1561363e57565b60405162461bcd60e51b815260206004820152602160248201527f4e6f6e626c6f636b696e674c7a4170703a20696e76616c6964207061796c6f616044820152601960fa1b6064820152608490fd5b9160609361ffff6136b0939897969816845260806020850152608084019161279e565b6001600160401b0390951660408201520152565b903590601e19813603018212156103a057018035906001600160401b0382116103a0576020019181360383136103a057565b9491959897906113ff61371f6040996137176137259761374299369161098a565b94369161098a565b97613e55565b928451968794859463040a7bb160e41b86523090600487016138d0565b03817f00000000000000000000000000000000000000000000000000000000000000006001600160a01b03165afa9182156107b257600090819361378557509190565b905061044991925060403d8111610cd457610cc5818361092c565b9396949161063998969361ffff6137c59316865260c0602087015260c086019161279e565b6001600160401b0390961660408401526060830152608082015280840360a09091015261279e565b919697929895949390943033036138755761380990853061425b565b60405181815290946001600160a01b03169390849061ffff85169060008051602061455c83398151915290602090a3833b156103a0576000988995613865936040519c8d9b8c9a8b98633fe79aed60e11b8a5260048a016137a0565b0393f180156107b25761334d5750565b60405162461bcd60e51b815260206004820152601f60248201527f4f4654436f72653a2063616c6c6572206d757374206265204f4654436f7265006044820152606490fd5b91908260409103126103a0576020825192015190565b9192610639959361ffff6138ff9316845260018060a01b0316602084015260a0604084015260a0830190610603565b92151560608201526080818403910152610603565b92919060ff61392284614463565b1680613a755750505060ff61393682614463565b161580613a6a575b61394790613f6b565b61395961395382614413565b916144ae565b90916001600160a01b039182841615613a60575b6139a1907f0000000000000000000000000000000000000000000000000000000000000000906001600160401b0316613eda565b918316928315613a1b5760008051602061455c833981519152916139db61ffff926139d66139d187600a54612445565b600a55565b6123d2565b84815401905584600060008051602061459c83398151915260405180613a0689829190602083019252565b0390a36040519384521691806020810161257c565b60405162461bcd60e51b815260206004820152601f60248201527f45524332303a206d696e7420746f20746865207a65726f2061646472657373006044820152606490fd5b61dead935061396d565b50805160291461393e565b600103613a85576107e393613b9e565b60405162461bcd60e51b815260206004820152601c60248201527b4f4654436f72653a20756e6b6e6f776e207061636b6574207479706560201b6044820152606490fd5b15613ad057565b60405162461bcd60e51b815260206004820152601960248201527813d19510dbdc994e88185b5bdd5b9d081d1bdbc81cdb585b1b603a1b6044820152606490fd5b9897969293613b3b60e0979361ffff613b709894168c5260208c61010091829101528c0190610603565b6001600160401b0390951660408b015260608a01526001600160a01b0316608089015260a088015286820360c0880152610603565b930152565b613b8d60409295949395606083526060830190610603565b94600180841b031660208201520152565b9091613ba98461401c565b9091613bda613bd387611c99613bcd8b61ffff166000526007602052604060002090565b8c610ede565b5460ff1690565b916001600160401b0391613c11907f0000000000000000000000000000000000000000000000000000000000000000908416613eda565b9288888b8315613d0d575b505050853b15613cc25794613c639694613545948a94613537948d99600014613cbb5750505a925b5a978b6040519a8b9863757fea4d60e11b60208b015260248a01613b11565b9015613cb0575090613cab61ffff928560207fb8890edbfc1c74692f527444645f95489c3703cc2df42e4a366f5d06fa6cd88496975191012090604051948594169684613b75565b0390a2565b926107e3949261356d565b1692613c44565b50506040516001600160a01b039094168452507f9aedf5fdba8716db3b6705ca00150643309995d4f818a249ed6dde6677e7792d975091955085945050602084019250613619915050565b90611c99613d4292613d3c89613d27613d4f979b3061420b565b9961ffff166000526007602052604060002090565b90610ede565b805460ff19166001179055565b88888b613c1c565b60065460ff1615613da45760228251106114065761ffff60226107e393015191166000526002602052613d97604060002060008052602052604060002090565b54906113cd821515613dac565b505161147757565b15613db357565b60405162461bcd60e51b815260206004820152601a602482015279131e905c1c0e881b5a5b91d85cd31a5b5a5d081b9bdd081cd95d60321b6044820152606490fd5b15613dfc57565b60405162461bcd60e51b815260206004820152601b60248201527a4c7a4170703a20676173206c696d697420697320746f6f206c6f7760281b6044820152606490fd5b634e487b7160e01b600052601260045260246000fd5b7f0000000000000000000000000000000000000000000000000000000000000000908115613ed5576001600160401b03919004818111613e93571690565b60405162461bcd60e51b815260206004820152601a6024820152794f4654436f72653a20616d6f756e745344206f766572666c6f7760301b6044820152606490fd5b613e3f565b81810292918115918404141715610d2657565b7f00000000000000000000000000000000000000000000000000000000000000008015613ed557810690818103908111610d265791565b60405160006020820152602181019190915260c09190911b6001600160c01b031916604182015260298152606081016001600160401b0381118282101761090c5760405290565b15613f7257565b60405162461bcd60e51b815260206004820152601860248201527713d19510dbdc994e881a5b9d985b1a59081c185e5b1bd85960421b6044820152606490fd5b939260719261063994604051968794600160f81b6020870152602186015260018060c01b0319809360c01b16604186015260018060a01b0316604985015260c01b16606983015261400c81518092602086860191016105e0565b810103605181018452018261092c565b90614034600160ff61402d85614463565b1614613f6b565b61403d82614413565b90614047836144ae565b9060498451106140b857604984015193605181511061407c5761407960518201519161407381516134ca565b9061438f565b91565b60405162461bcd60e51b8152602060048201526014602482015273746f55696e7436345f6f75744f66426f756e647360601b6044820152606490fd5b60405162461bcd60e51b8152602060048201526015602482015274746f427974657333325f6f75744f66426f756e647360581b6044820152606490fd5b6001600160a01b0381163381036141a4575b8015614155578161412a8461411d6000956123d2565b54612559828210156141b4565b5561413883600a5403600a55565b60405183815260008051602061459c83398151915290602090a390565b60405162461bcd60e51b815260206004820152602160248201527f45524332303a206275726e2066726f6d20746865207a65726f206164647265736044820152607360f81b6064820152608490fd5b6141af8333846126ed565b614107565b156141bb57565b60405162461bcd60e51b815260206004820152602260248201527f45524332303a206275726e20616d6f756e7420657863656564732062616c616e604482015261636560f01b6064820152608490fd5b6001600160a01b03811691908215613a1b57600a5490828201809211610d265760009261424c60209260008051602061459c83398151915294600a556123d2565b818154019055604051908152a3565b6106399183916001600160a01b038116308114159081614287575b501561250557610b938333836126ed565b905033141538614276565b1561429957565b60405162461bcd60e51b815260206004820152600e60248201526d736c6963655f6f766572666c6f7760901b6044820152606490fd5b156142d657565b60405162461bcd60e51b8152602060048201526011602482015270736c6963655f6f75744f66426f756e647360781b6044820152606490fd5b6143238261431c81612429565b1015614292565b61433082825110156142cf565b81614348575050604051600081526020810160405290565b60405191601f811691821560051b808486010193838501920101905b80841061437c5750508252601f01601f191660405290565b9092835181526020809101930190614364565b61439c8261431c81612429565b6143b181516143aa84612437565b11156142cf565b816143c9575050604051600081526020810160405290565b60405191601f8116916051831560051b80858701019484860193010101905b8084106144005750508252601f01601f191660405290565b90928351815260208091019301906143e8565b602181511061442657602d015160601c90565b60405162461bcd60e51b8152602060048201526015602482015274746f416464726573735f6f75744f66426f756e647360581b6044820152606490fd5b6001815110614473576001015190565b60405162461bcd60e51b8152602060048201526013602482015272746f55696e74385f6f75744f66426f756e647360681b6044820152606490fd5b602981511061407c576029015190565b6040519392909160009160c08601916001600160401b0383118784101761090c5783926040526096875282602088019560a036883760208451940192f1903d9060968211614512575b6000908286523e9190565b6096915061450756fed81fc9b8523134ed613870ed029d6170cbb73aa6a6bc311b9a642689fb9df59a8c0400cfe2d1199b1a725c78960bcc2a344d869b80590d0f2bd005db15a572cebf551ec93859b170f9b2141bd9298bf3f64322c6f7beb2543a0cb669834118bf8be0079c531659141344cd1fd0a4f28419497f9722a3daafe3b4186f6b6457e0ddf252ad1be2c89b69c2b068fc378daa952ba7f163c4a11628f55a4df523b3effa41487ad5d6728f0b19276fa1eddc16558578f5109fc39d2dc33c3230470daba26469706673582212200714b29353691db6021a8f19e7444dbf7fac46005ec7cdcd07169e0497e4566964736f6c63430008120033",
  "linkReferences": {},
  "deployedLinkReferences": {}
}