{
  "_format": "hh-sol-artifact-1",
  "contractName": "BaseTOFT",
  "sourceName": "contracts/tOFT/BaseTOFT.sol",
  "abi": [
    {
      "inputs": [
        {
          "internalType": "address",
          "name": "_lzEndpoint",
          "type": "address"
        },
        {
          "internalType": "address",
          "name": "_erc20",
          "type": "address"
        },
        {
          "internalType": "contract IYieldBoxBase",
          "name": "_yieldBox",
          "type": "address"
        },
        {
          "internalType": "string",
          "name": "_name",
          "type": "string"
        },
        {
          "internalType": "string",
          "name": "_symbol",
          "type": "string"
        },
        {
          "internalType": "uint8",
          "name": "_decimal",
          "type": "uint8"
        },
        {
          "internalType": "uint256",
          "name": "_hostChainID",
          "type": "uint256"
        },
        {
          "internalType": "address payable",
          "name": "_leverageModule",
          "type": "address"
        },
        {
          "internalType": "address payable",
          "name": "_strategyModule",
          "type": "address"
        },
        {
          "internalType": "address payable",
          "name": "_marketModule",
          "type": "address"
        },
        {
          "internalType": "address payable",
          "name": "_optionsModule",
          "type": "address"
        }
      ],
      "stateMutability": "nonpayable",
      "type": "constructor"
    },
    {
      "anonymous": false,
      "inputs": [
        {
          "indexed": true,
          "internalType": "address",
          "name": "owner",
          "type": "address"
        },
        {
          "indexed": true,
          "internalType": "address",
          "name": "spender",
          "type": "address"
        },
        {
          "indexed": false,
          "internalType": "uint256",
          "name": "value",
          "type": "uint256"
        }
      ],
      "name": "Approval",
      "type": "event"
    },
    {
      "anonymous": false,
      "inputs": [
        {
          "indexed": true,
          "internalType": "uint16",
          "name": "_srcChainId",
          "type": "uint16"
        },
        {
          "indexed": false,
          "internalType": "bytes",
          "name": "_srcAddress",
          "type": "bytes"
        },
        {
          "indexed": false,
          "internalType": "uint64",
          "name": "_nonce",
          "type": "uint64"
        },
        {
          "indexed": false,
          "internalType": "bytes32",
          "name": "_hash",
          "type": "bytes32"
        }
      ],
      "name": "CallOFTReceivedSuccess",
      "type": "event"
    },
    {
      "anonymous": false,
      "inputs": [
        {
          "indexed": false,
          "internalType": "uint16",
          "name": "_srcChainId",
          "type": "uint16"
        },
        {
          "indexed": false,
          "internalType": "bytes",
          "name": "_srcAddress",
          "type": "bytes"
        },
        {
          "indexed": false,
          "internalType": "uint64",
          "name": "_nonce",
          "type": "uint64"
        },
        {
          "indexed": false,
          "internalType": "bytes",
          "name": "_payload",
          "type": "bytes"
        },
        {
          "indexed": false,
          "internalType": "bytes",
          "name": "_reason",
          "type": "bytes"
        }
      ],
      "name": "MessageFailed",
      "type": "event"
    },
    {
      "anonymous": false,
      "inputs": [
        {
          "indexed": false,
          "internalType": "address",
          "name": "_address",
          "type": "address"
        }
      ],
      "name": "NonContractAddress",
      "type": "event"
    },
    {
      "anonymous": false,
      "inputs": [
        {
          "indexed": true,
          "internalType": "address",
          "name": "previousOwner",
          "type": "address"
        },
        {
          "indexed": true,
          "internalType": "address",
          "name": "newOwner",
          "type": "address"
        }
      ],
      "name": "OwnershipTransferred",
      "type": "event"
    },
    {
      "anonymous": false,
      "inputs": [
        {
          "indexed": true,
          "internalType": "uint16",
          "name": "_srcChainId",
          "type": "uint16"
        },
        {
          "indexed": true,
          "internalType": "address",
          "name": "_to",
          "type": "address"
        },
        {
          "indexed": false,
          "internalType": "uint256",
          "name": "_amount",
          "type": "uint256"
        }
      ],
      "name": "ReceiveFromChain",
      "type": "event"
    },
    {
      "anonymous": false,
      "inputs": [
        {
          "indexed": false,
          "internalType": "uint16",
          "name": "_srcChainId",
          "type": "uint16"
        },
        {
          "indexed": false,
          "internalType": "bytes",
          "name": "_srcAddress",
          "type": "bytes"
        },
        {
          "indexed": false,
          "internalType": "uint64",
          "name": "_nonce",
          "type": "uint64"
        },
        {
          "indexed": false,
          "internalType": "bytes32",
          "name": "_payloadHash",
          "type": "bytes32"
        }
      ],
      "name": "RetryMessageSuccess",
      "type": "event"
    },
    {
      "anonymous": false,
      "inputs": [
        {
          "indexed": true,
          "internalType": "uint16",
          "name": "_dstChainId",
          "type": "uint16"
        },
        {
          "indexed": true,
          "internalType": "address",
          "name": "_from",
          "type": "address"
        },
        {
          "indexed": true,
          "internalType": "bytes32",
          "name": "_toAddress",
          "type": "bytes32"
        },
        {
          "indexed": false,
          "internalType": "uint256",
          "name": "_amount",
          "type": "uint256"
        }
      ],
      "name": "SendToChain",
      "type": "event"
    },
    {
      "anonymous": false,
      "inputs": [
        {
          "indexed": false,
          "internalType": "uint16",
          "name": "_dstChainId",
          "type": "uint16"
        },
        {
          "indexed": false,
          "internalType": "uint16",
          "name": "_type",
          "type": "uint16"
        },
        {
          "indexed": false,
          "internalType": "uint256",
          "name": "_minDstGas",
          "type": "uint256"
        }
      ],
      "name": "SetMinDstGas",
      "type": "event"
    },
    {
      "anonymous": false,
      "inputs": [
        {
          "indexed": false,
          "internalType": "address",
          "name": "precrime",
          "type": "address"
        }
      ],
      "name": "SetPrecrime",
      "type": "event"
    },
    {
      "anonymous": false,
      "inputs": [
        {
          "indexed": false,
          "internalType": "uint16",
          "name": "_remoteChainId",
          "type": "uint16"
        },
        {
          "indexed": false,
          "internalType": "bytes",
          "name": "_path",
          "type": "bytes"
        }
      ],
      "name": "SetTrustedRemote",
      "type": "event"
    },
    {
      "anonymous": false,
      "inputs": [
        {
          "indexed": false,
          "internalType": "uint16",
          "name": "_remoteChainId",
          "type": "uint16"
        },
        {
          "indexed": false,
          "internalType": "bytes",
          "name": "_remoteAddress",
          "type": "bytes"
        }
      ],
      "name": "SetTrustedRemoteAddress",
      "type": "event"
    },
    {
      "anonymous": false,
      "inputs": [
        {
          "indexed": false,
          "internalType": "bool",
          "name": "_useCustomAdapterParams",
          "type": "bool"
        }
      ],
      "name": "SetUseCustomAdapterParams",
      "type": "event"
    },
    {
      "anonymous": false,
      "inputs": [
        {
          "indexed": true,
          "internalType": "address",
          "name": "from",
          "type": "address"
        },
        {
          "indexed": true,
          "internalType": "address",
          "name": "to",
          "type": "address"
        },
        {
          "indexed": false,
          "internalType": "uint256",
          "name": "value",
          "type": "uint256"
        }
      ],
      "name": "Transfer",
      "type": "event"
    },
    {
      "inputs": [],
      "name": "DEFAULT_PAYLOAD_SIZE_LIMIT",
      "outputs": [
        {
          "internalType": "uint256",
          "name": "",
          "type": "uint256"
        }
      ],
      "stateMutability": "view",
      "type": "function"
    },
    {
      "inputs": [],
      "name": "DOMAIN_SEPARATOR",
      "outputs": [
        {
          "internalType": "bytes32",
          "name": "",
          "type": "bytes32"
        }
      ],
      "stateMutability": "view",
      "type": "function"
    },
    {
      "inputs": [],
      "name": "NO_EXTRA_GAS",
      "outputs": [
        {
          "internalType": "uint256",
          "name": "",
          "type": "uint256"
        }
      ],
      "stateMutability": "view",
      "type": "function"
    },
    {
      "inputs": [],
      "name": "PT_SEND",
      "outputs": [
        {
          "internalType": "uint8",
          "name": "",
          "type": "uint8"
        }
      ],
      "stateMutability": "view",
      "type": "function"
    },
    {
      "inputs": [],
      "name": "PT_SEND_AND_CALL",
      "outputs": [
        {
          "internalType": "uint8",
          "name": "",
          "type": "uint8"
        }
      ],
      "stateMutability": "view",
      "type": "function"
    },
    {
      "inputs": [
        {
          "internalType": "address",
          "name": "owner",
          "type": "address"
        },
        {
          "internalType": "address",
          "name": "spender",
          "type": "address"
        }
      ],
      "name": "allowance",
      "outputs": [
        {
          "internalType": "uint256",
          "name": "",
          "type": "uint256"
        }
      ],
      "stateMutability": "view",
      "type": "function"
    },
    {
      "inputs": [
        {
          "internalType": "address",
          "name": "spender",
          "type": "address"
        },
        {
          "internalType": "uint256",
          "name": "amount",
          "type": "uint256"
        }
      ],
      "name": "approve",
      "outputs": [
        {
          "internalType": "bool",
          "name": "",
          "type": "bool"
        }
      ],
      "stateMutability": "nonpayable",
      "type": "function"
    },
    {
      "inputs": [
        {
          "internalType": "address",
          "name": "account",
          "type": "address"
        }
      ],
      "name": "balanceOf",
      "outputs": [
        {
          "internalType": "uint256",
          "name": "",
          "type": "uint256"
        }
      ],
      "stateMutability": "view",
      "type": "function"
    },
    {
      "inputs": [
        {
          "internalType": "uint16",
          "name": "_srcChainId",
          "type": "uint16"
        },
        {
          "internalType": "bytes",
          "name": "_srcAddress",
          "type": "bytes"
        },
        {
          "internalType": "uint64",
          "name": "_nonce",
          "type": "uint64"
        },
        {
          "internalType": "bytes32",
          "name": "_from",
          "type": "bytes32"
        },
        {
          "internalType": "address",
          "name": "_to",
          "type": "address"
        },
        {
          "internalType": "uint256",
          "name": "_amount",
          "type": "uint256"
        },
        {
          "internalType": "bytes",
          "name": "_payload",
          "type": "bytes"
        },
        {
          "internalType": "uint256",
          "name": "_gasForCall",
          "type": "uint256"
        }
      ],
      "name": "callOnOFTReceived",
      "outputs": [],
      "stateMutability": "nonpayable",
      "type": "function"
    },
    {
      "inputs": [],
      "name": "circulatingSupply",
      "outputs": [
        {
          "internalType": "uint256",
          "name": "",
          "type": "uint256"
        }
      ],
      "stateMutability": "view",
      "type": "function"
    },
    {
      "inputs": [
        {
          "internalType": "uint16",
          "name": "",
          "type": "uint16"
        },
        {
          "internalType": "bytes",
          "name": "",
          "type": "bytes"
        },
        {
          "internalType": "uint64",
          "name": "",
          "type": "uint64"
        }
      ],
      "name": "creditedPackets",
      "outputs": [
        {
          "internalType": "bool",
          "name": "",
          "type": "bool"
        }
      ],
      "stateMutability": "view",
      "type": "function"
    },
    {
      "inputs": [],
      "name": "decimals",
      "outputs": [
        {
          "internalType": "uint8",
          "name": "",
          "type": "uint8"
        }
      ],
      "stateMutability": "view",
      "type": "function"
    },
    {
      "inputs": [
        {
          "internalType": "address",
          "name": "spender",
          "type": "address"
        },
        {
          "internalType": "uint256",
          "name": "subtractedValue",
          "type": "uint256"
        }
      ],
      "name": "decreaseAllowance",
      "outputs": [
        {
          "internalType": "bool",
          "name": "",
          "type": "bool"
        }
      ],
      "stateMutability": "nonpayable",
      "type": "function"
    },
    {
      "inputs": [],
      "name": "erc20",
      "outputs": [
        {
          "internalType": "address",
          "name": "",
          "type": "address"
        }
      ],
      "stateMutability": "view",
      "type": "function"
    },
    {
      "inputs": [
        {
          "internalType": "uint16",
          "name": "_dstChainId",
          "type": "uint16"
        },
        {
          "internalType": "bytes32",
          "name": "_toAddress",
          "type": "bytes32"
        },
        {
          "internalType": "uint256",
          "name": "_amount",
          "type": "uint256"
        },
        {
          "internalType": "bytes",
          "name": "_payload",
          "type": "bytes"
        },
        {
          "internalType": "uint64",
          "name": "_dstGasForCall",
          "type": "uint64"
        },
        {
          "internalType": "bool",
          "name": "_useZro",
          "type": "bool"
        },
        {
          "internalType": "bytes",
          "name": "_adapterParams",
          "type": "bytes"
        }
      ],
      "name": "estimateSendAndCallFee",
      "outputs": [
        {
          "internalType": "uint256",
          "name": "nativeFee",
          "type": "uint256"
        },
        {
          "internalType": "uint256",
          "name": "zroFee",
          "type": "uint256"
        }
      ],
      "stateMutability": "view",
      "type": "function"
    },
    {
      "inputs": [
        {
          "internalType": "uint16",
          "name": "_dstChainId",
          "type": "uint16"
        },
        {
          "internalType": "bytes32",
          "name": "_toAddress",
          "type": "bytes32"
        },
        {
          "internalType": "uint256",
          "name": "_amount",
          "type": "uint256"
        },
        {
          "internalType": "bool",
          "name": "_useZro",
          "type": "bool"
        },
        {
          "internalType": "bytes",
          "name": "_adapterParams",
          "type": "bytes"
        }
      ],
      "name": "estimateSendFee",
      "outputs": [
        {
          "internalType": "uint256",
          "name": "nativeFee",
          "type": "uint256"
        },
        {
          "internalType": "uint256",
          "name": "zroFee",
          "type": "uint256"
        }
      ],
      "stateMutability": "view",
      "type": "function"
    },
    {
      "inputs": [
        {
          "components": [
            {
              "internalType": "address",
              "name": "from",
              "type": "address"
            },
            {
              "internalType": "address",
              "name": "target",
              "type": "address"
            },
            {
              "internalType": "uint256",
              "name": "paymentTokenAmount",
              "type": "uint256"
            },
            {
              "internalType": "uint256",
              "name": "oTAPTokenID",
              "type": "uint256"
            },
            {
              "internalType": "address",
              "name": "paymentToken",
              "type": "address"
            },
            {
              "internalType": "uint256",
              "name": "tapAmount",
              "type": "uint256"
            }
          ],
          "internalType": "struct ITapiocaOptionsBrokerCrossChain.IExerciseOptionsData",
          "name": "optionsData",
          "type": "tuple"
        },
        {
          "components": [
            {
              "internalType": "uint16",
              "name": "lzDstChainId",
              "type": "uint16"
            },
            {
              "internalType": "address",
              "name": "zroPaymentAddress",
              "type": "address"
            },
            {
              "internalType": "uint256",
              "name": "extraGas",
              "type": "uint256"
            }
          ],
          "internalType": "struct ITapiocaOptionsBrokerCrossChain.IExerciseLZData",
          "name": "lzData",
          "type": "tuple"
        },
        {
          "components": [
            {
              "internalType": "bool",
              "name": "withdrawOnAnotherChain",
              "type": "bool"
            },
            {
              "internalType": "address",
              "name": "tapOftAddress",
              "type": "address"
            },
            {
              "internalType": "uint16",
              "name": "lzDstChainId",
              "type": "uint16"
            },
            {
              "internalType": "uint256",
              "name": "amount",
              "type": "uint256"
            },
            {
              "internalType": "address",
              "name": "zroPaymentAddress",
              "type": "address"
            },
            {
              "internalType": "uint256",
              "name": "extraGas",
              "type": "uint256"
            }
          ],
          "internalType": "struct ITapiocaOptionsBrokerCrossChain.IExerciseLZSendTapData",
          "name": "tapSendData",
          "type": "tuple"
        },
        {
          "components": [
            {
              "internalType": "bool",
              "name": "permitAll",
              "type": "bool"
            },
            {
              "internalType": "bool",
              "name": "allowFailure",
              "type": "bool"
            },
            {
              "internalType": "address",
              "name": "target",
              "type": "address"
            },
            {
              "internalType": "bool",
              "name": "permitBorrow",
              "type": "bool"
            },
            {
              "internalType": "address",
              "name": "owner",
              "type": "address"
            },
            {
              "internalType": "address",
              "name": "spender",
              "type": "address"
            },
            {
              "internalType": "uint256",
              "name": "value",
              "type": "uint256"
            },
            {
              "internalType": "uint256",
              "name": "deadline",
              "type": "uint256"
            },
            {
              "internalType": "uint8",
              "name": "v",
              "type": "uint8"
            },
            {
              "internalType": "bytes32",
              "name": "r",
              "type": "bytes32"
            },
            {
              "internalType": "bytes32",
              "name": "s",
              "type": "bytes32"
            }
          ],
          "internalType": "struct ICommonData.IApproval[]",
          "name": "approvals",
          "type": "tuple[]"
        }
      ],
      "name": "exerciseOption",
      "outputs": [],
      "stateMutability": "payable",
      "type": "function"
    },
    {
      "inputs": [
        {
          "internalType": "uint16",
          "name": "",
          "type": "uint16"
        },
        {
          "internalType": "bytes",
          "name": "",
          "type": "bytes"
        },
        {
          "internalType": "uint64",
          "name": "",
          "type": "uint64"
        }
      ],
      "name": "failedMessages",
      "outputs": [
        {
          "internalType": "bytes32",
          "name": "",
          "type": "bytes32"
        }
      ],
      "stateMutability": "view",
      "type": "function"
    },
    {
      "inputs": [
        {
          "internalType": "uint16",
          "name": "_srcChainId",
          "type": "uint16"
        },
        {
          "internalType": "bytes",
          "name": "_srcAddress",
          "type": "bytes"
        }
      ],
      "name": "forceResumeReceive",
      "outputs": [],
      "stateMutability": "nonpayable",
      "type": "function"
    },
    {
      "inputs": [
        {
          "internalType": "uint16",
          "name": "_version",
          "type": "uint16"
        },
        {
          "internalType": "uint16",
          "name": "_chainId",
          "type": "uint16"
        },
        {
          "internalType": "address",
          "name": "",
          "type": "address"
        },
        {
          "internalType": "uint256",
          "name": "_configType",
          "type": "uint256"
        }
      ],
      "name": "getConfig",
      "outputs": [
        {
          "internalType": "bytes",
          "name": "",
          "type": "bytes"
        }
      ],
      "stateMutability": "view",
      "type": "function"
    },
    {
      "inputs": [
        {
          "internalType": "uint16",
          "name": "_remoteChainId",
          "type": "uint16"
        }
      ],
      "name": "getTrustedRemoteAddress",
      "outputs": [
        {
          "internalType": "bytes",
          "name": "",
          "type": "bytes"
        }
      ],
      "stateMutability": "view",
      "type": "function"
    },
    {
      "inputs": [],
      "name": "hostChainID",
      "outputs": [
        {
          "internalType": "uint256",
          "name": "",
          "type": "uint256"
        }
      ],
      "stateMutability": "view",
      "type": "function"
    },
    {
      "inputs": [
        {
          "internalType": "address",
          "name": "spender",
          "type": "address"
        },
        {
          "internalType": "uint256",
          "name": "addedValue",
          "type": "uint256"
        }
      ],
      "name": "increaseAllowance",
      "outputs": [
        {
          "internalType": "bool",
          "name": "",
          "type": "bool"
        }
      ],
      "stateMutability": "nonpayable",
      "type": "function"
    },
    {
      "inputs": [
        {
          "internalType": "address",
          "name": "from",
          "type": "address"
        },
        {
          "internalType": "uint256",
          "name": "share",
          "type": "uint256"
        },
        {
          "components": [
            {
              "internalType": "address",
              "name": "tokenOut",
              "type": "address"
            },
            {
              "internalType": "uint256",
              "name": "amountOutMin",
              "type": "uint256"
            },
            {
              "internalType": "bytes",
              "name": "data",
              "type": "bytes"
            }
          ],
          "internalType": "struct IUSDOBase.ILeverageSwapData",
          "name": "swapData",
          "type": "tuple"
        },
        {
          "components": [
            {
              "internalType": "uint256",
              "name": "srcExtraGasLimit",
              "type": "uint256"
            },
            {
              "internalType": "uint16",
              "name": "lzSrcChainId",
              "type": "uint16"
            },
            {
              "internalType": "uint16",
              "name": "lzDstChainId",
              "type": "uint16"
            },
            {
              "internalType": "address",
              "name": "zroPaymentAddress",
              "type": "address"
            },
            {
              "internalType": "bytes",
              "name": "dstAirdropAdapterParam",
              "type": "bytes"
            },
            {
              "internalType": "bytes",
              "name": "srcAirdropAdapterParam",
              "type": "bytes"
            },
            {
              "internalType": "address",
              "name": "refundAddress",
              "type": "address"
            }
          ],
          "internalType": "struct IUSDOBase.ILeverageLZData",
          "name": "lzData",
          "type": "tuple"
        },
        {
          "components": [
            {
              "internalType": "address",
              "name": "swapper",
              "type": "address"
            },
            {
              "internalType": "address",
              "name": "magnetar",
              "type": "address"
            },
            {
              "internalType": "address",
              "name": "tOft",
              "type": "address"
            },
            {
              "internalType": "address",
              "name": "srcMarket",
              "type": "address"
            }
          ],
          "internalType": "struct IUSDOBase.ILeverageExternalContractsData",
          "name": "externalData",
          "type": "tuple"
        },
        {
          "internalType": "bytes",
          "name": "airdropAdapterParams",
          "type": "bytes"
        },
        {
          "components": [
            {
              "internalType": "bool",
              "name": "permitAll",
              "type": "bool"
            },
            {
              "internalType": "bool",
              "name": "allowFailure",
              "type": "bool"
            },
            {
              "internalType": "address",
              "name": "target",
              "type": "address"
            },
            {
              "internalType": "bool",
              "name": "permitBorrow",
              "type": "bool"
            },
            {
              "internalType": "address",
              "name": "owner",
              "type": "address"
            },
            {
              "internalType": "address",
              "name": "spender",
              "type": "address"
            },
            {
              "internalType": "uint256",
              "name": "value",
              "type": "uint256"
            },
            {
              "internalType": "uint256",
              "name": "deadline",
              "type": "uint256"
            },
            {
              "internalType": "uint8",
              "name": "v",
              "type": "uint8"
            },
            {
              "internalType": "bytes32",
              "name": "r",
              "type": "bytes32"
            },
            {
              "internalType": "bytes32",
              "name": "s",
              "type": "bytes32"
            }
          ],
          "internalType": "struct ICommonData.IApproval[]",
          "name": "approvals",
          "type": "tuple[]"
        }
      ],
      "name": "initMultiSell",
      "outputs": [],
      "stateMutability": "payable",
      "type": "function"
    },
    {
      "inputs": [
        {
          "internalType": "uint16",
          "name": "",
          "type": "uint16"
        }
      ],
      "name": "isLdChain",
      "outputs": [
        {
          "internalType": "bool",
          "name": "",
          "type": "bool"
        }
      ],
      "stateMutability": "view",
      "type": "function"
    },
    {
      "inputs": [
        {
          "internalType": "uint16",
          "name": "_srcChainId",
          "type": "uint16"
        },
        {
          "internalType": "bytes",
          "name": "_srcAddress",
          "type": "bytes"
        }
      ],
      "name": "isTrustedRemote",
      "outputs": [
        {
          "internalType": "bool",
          "name": "",
          "type": "bool"
        }
      ],
      "stateMutability": "view",
      "type": "function"
    },
    {
      "inputs": [],
      "name": "leverageModule",
      "outputs": [
        {
          "internalType": "contract BaseTOFTLeverageModule",
          "name": "",
          "type": "address"
        }
      ],
      "stateMutability": "view",
      "type": "function"
    },
    {
      "inputs": [],
      "name": "lzEndpoint",
      "outputs": [
        {
          "internalType": "contract ILayerZeroEndpoint",
          "name": "",
          "type": "address"
        }
      ],
      "stateMutability": "view",
      "type": "function"
    },
    {
      "inputs": [
        {
          "internalType": "uint16",
          "name": "_srcChainId",
          "type": "uint16"
        },
        {
          "internalType": "bytes",
          "name": "_srcAddress",
          "type": "bytes"
        },
        {
          "internalType": "uint64",
          "name": "_nonce",
          "type": "uint64"
        },
        {
          "internalType": "bytes",
          "name": "_payload",
          "type": "bytes"
        }
      ],
      "name": "lzReceive",
      "outputs": [],
      "stateMutability": "nonpayable",
      "type": "function"
    },
    {
      "inputs": [],
      "name": "marketModule",
      "outputs": [
        {
          "internalType": "contract BaseTOFTMarketModule",
          "name": "",
          "type": "address"
        }
      ],
      "stateMutability": "view",
      "type": "function"
    },
    {
      "inputs": [
        {
          "internalType": "uint16",
          "name": "",
          "type": "uint16"
        },
        {
          "internalType": "uint16",
          "name": "",
          "type": "uint16"
        }
      ],
      "name": "minDstGasLookup",
      "outputs": [
        {
          "internalType": "uint256",
          "name": "",
          "type": "uint256"
        }
      ],
      "stateMutability": "view",
      "type": "function"
    },
    {
      "inputs": [],
      "name": "name",
      "outputs": [
        {
          "internalType": "string",
          "name": "",
          "type": "string"
        }
      ],
      "stateMutability": "view",
      "type": "function"
    },
    {
      "inputs": [
        {
          "internalType": "uint16",
          "name": "_srcChainId",
          "type": "uint16"
        },
        {
          "internalType": "bytes",
          "name": "_srcAddress",
          "type": "bytes"
        },
        {
          "internalType": "uint64",
          "name": "_nonce",
          "type": "uint64"
        },
        {
          "internalType": "bytes",
          "name": "_payload",
          "type": "bytes"
        }
      ],
      "name": "nonblockingLzReceive",
      "outputs": [],
      "stateMutability": "nonpayable",
      "type": "function"
    },
    {
      "inputs": [
        {
          "internalType": "address",
          "name": "owner",
          "type": "address"
        }
      ],
      "name": "nonces",
      "outputs": [
        {
          "internalType": "uint256",
          "name": "",
          "type": "uint256"
        }
      ],
      "stateMutability": "view",
      "type": "function"
    },
    {
      "inputs": [],
      "name": "optionsModule",
      "outputs": [
        {
          "internalType": "contract BaseTOFTOptionsModule",
          "name": "",
          "type": "address"
        }
      ],
      "stateMutability": "view",
      "type": "function"
    },
    {
      "inputs": [],
      "name": "owner",
      "outputs": [
        {
          "internalType": "address",
          "name": "",
          "type": "address"
        }
      ],
      "stateMutability": "view",
      "type": "function"
    },
    {
      "inputs": [
        {
          "internalType": "uint16",
          "name": "",
          "type": "uint16"
        }
      ],
      "name": "payloadSizeLimitLookup",
      "outputs": [
        {
          "internalType": "uint256",
          "name": "",
          "type": "uint256"
        }
      ],
      "stateMutability": "view",
      "type": "function"
    },
    {
      "inputs": [
        {
          "internalType": "address",
          "name": "owner",
          "type": "address"
        },
        {
          "internalType": "address",
          "name": "spender",
          "type": "address"
        },
        {
          "internalType": "uint256",
          "name": "value",
          "type": "uint256"
        },
        {
          "internalType": "uint256",
          "name": "deadline",
          "type": "uint256"
        },
        {
          "internalType": "uint8",
          "name": "v",
          "type": "uint8"
        },
        {
          "internalType": "bytes32",
          "name": "r",
          "type": "bytes32"
        },
        {
          "internalType": "bytes32",
          "name": "s",
          "type": "bytes32"
        }
      ],
      "name": "permit",
      "outputs": [],
      "stateMutability": "nonpayable",
      "type": "function"
    },
    {
      "inputs": [],
      "name": "precrime",
      "outputs": [
        {
          "internalType": "address",
          "name": "",
          "type": "address"
        }
      ],
      "stateMutability": "view",
      "type": "function"
    },
    {
      "inputs": [
        {
          "internalType": "address",
          "name": "from",
          "type": "address"
        },
        {
          "internalType": "address",
          "name": "to",
          "type": "address"
        },
        {
          "internalType": "uint16",
          "name": "lzDstChainId",
          "type": "uint16"
        },
        {
          "internalType": "address",
          "name": "zroPaymentAddress",
          "type": "address"
        },
        {
          "components": [
            {
              "internalType": "bool",
              "name": "withdraw",
              "type": "bool"
            },
            {
              "internalType": "uint256",
              "name": "withdrawLzFeeAmount",
              "type": "uint256"
            },
            {
              "internalType": "bool",
              "name": "withdrawOnOtherChain",
              "type": "bool"
            },
            {
              "internalType": "uint16",
              "name": "withdrawLzChainId",
              "type": "uint16"
            },
            {
              "internalType": "bytes",
              "name": "withdrawAdapterParams",
              "type": "bytes"
            }
          ],
          "internalType": "struct ICommonData.IWithdrawParams",
          "name": "withdrawParams",
          "type": "tuple"
        },
        {
          "components": [
            {
              "internalType": "uint256",
              "name": "amount",
              "type": "uint256"
            },
            {
              "internalType": "address",
              "name": "marketHelper",
              "type": "address"
            },
            {
              "internalType": "address",
              "name": "market",
              "type": "address"
            }
          ],
          "internalType": "struct ITapiocaOFT.IRemoveParams",
          "name": "removeParams",
          "type": "tuple"
        },
        {
          "components": [
            {
              "internalType": "bool",
              "name": "permitAll",
              "type": "bool"
            },
            {
              "internalType": "bool",
              "name": "allowFailure",
              "type": "bool"
            },
            {
              "internalType": "address",
              "name": "target",
              "type": "address"
            },
            {
              "internalType": "bool",
              "name": "permitBorrow",
              "type": "bool"
            },
            {
              "internalType": "address",
              "name": "owner",
              "type": "address"
            },
            {
              "internalType": "address",
              "name": "spender",
              "type": "address"
            },
            {
              "internalType": "uint256",
              "name": "value",
              "type": "uint256"
            },
            {
              "internalType": "uint256",
              "name": "deadline",
              "type": "uint256"
            },
            {
              "internalType": "uint8",
              "name": "v",
              "type": "uint8"
            },
            {
              "internalType": "bytes32",
              "name": "r",
              "type": "bytes32"
            },
            {
              "internalType": "bytes32",
              "name": "s",
              "type": "bytes32"
            }
          ],
          "internalType": "struct ICommonData.IApproval[]",
          "name": "approvals",
          "type": "tuple[]"
        },
        {
          "internalType": "bytes",
          "name": "adapterParams",
          "type": "bytes"
        }
      ],
      "name": "removeCollateral",
      "outputs": [],
      "stateMutability": "payable",
      "type": "function"
    },
    {
      "inputs": [],
      "name": "renounceOwnership",
      "outputs": [],
      "stateMutability": "nonpayable",
      "type": "function"
    },
    {
      "inputs": [
        {
          "internalType": "uint256",
          "name": "amount",
          "type": "uint256"
        },
        {
          "internalType": "address",
          "name": "to",
          "type": "address"
        }
      ],
      "name": "rescueEth",
      "outputs": [],
      "stateMutability": "nonpayable",
      "type": "function"
    },
    {
      "inputs": [
        {
          "internalType": "address",
          "name": "from",
          "type": "address"
        },
        {
          "internalType": "uint256",
          "name": "amount",
          "type": "uint256"
        },
        {
          "internalType": "uint256",
          "name": "share",
          "type": "uint256"
        },
        {
          "internalType": "uint256",
          "name": "assetId",
          "type": "uint256"
        },
        {
          "internalType": "uint16",
          "name": "lzDstChainId",
          "type": "uint16"
        },
        {
          "internalType": "address",
          "name": "zroPaymentAddress",
          "type": "address"
        },
        {
          "internalType": "bytes",
          "name": "airdropAdapterParam",
          "type": "bytes"
        }
      ],
      "name": "retrieveFromStrategy",
      "outputs": [],
      "stateMutability": "payable",
      "type": "function"
    },
    {
      "inputs": [
        {
          "internalType": "uint16",
          "name": "_srcChainId",
          "type": "uint16"
        },
        {
          "internalType": "bytes",
          "name": "_srcAddress",
          "type": "bytes"
        },
        {
          "internalType": "uint64",
          "name": "_nonce",
          "type": "uint64"
        },
        {
          "internalType": "bytes",
          "name": "_payload",
          "type": "bytes"
        }
      ],
      "name": "retryMessage",
      "outputs": [],
      "stateMutability": "payable",
      "type": "function"
    },
    {
      "inputs": [
        {
          "internalType": "address",
          "name": "_from",
          "type": "address"
        },
        {
          "internalType": "uint16",
          "name": "_dstChainId",
          "type": "uint16"
        },
        {
          "internalType": "bytes32",
          "name": "_toAddress",
          "type": "bytes32"
        },
        {
          "internalType": "uint256",
          "name": "_amount",
          "type": "uint256"
        },
        {
          "internalType": "bytes",
          "name": "_payload",
          "type": "bytes"
        },
        {
          "internalType": "uint64",
          "name": "_dstGasForCall",
          "type": "uint64"
        },
        {
          "components": [
            {
              "internalType": "address payable",
              "name": "refundAddress",
              "type": "address"
            },
            {
              "internalType": "address",
              "name": "zroPaymentAddress",
              "type": "address"
            },
            {
              "internalType": "bytes",
              "name": "adapterParams",
              "type": "bytes"
            }
          ],
          "internalType": "struct ICommonOFT.LzCallParams",
          "name": "_callParams",
          "type": "tuple"
        }
      ],
      "name": "sendAndCall",
      "outputs": [],
      "stateMutability": "payable",
      "type": "function"
    },
    {
      "inputs": [
        {
          "internalType": "uint256",
          "name": "amount",
          "type": "uint256"
        },
        {
          "internalType": "address",
          "name": "leverageFor",
          "type": "address"
        },
        {
          "components": [
            {
              "internalType": "uint256",
              "name": "srcExtraGasLimit",
              "type": "uint256"
            },
            {
              "internalType": "uint16",
              "name": "lzSrcChainId",
              "type": "uint16"
            },
            {
              "internalType": "uint16",
              "name": "lzDstChainId",
              "type": "uint16"
            },
            {
              "internalType": "address",
              "name": "zroPaymentAddress",
              "type": "address"
            },
            {
              "internalType": "bytes",
              "name": "dstAirdropAdapterParam",
              "type": "bytes"
            },
            {
              "internalType": "bytes",
              "name": "srcAirdropAdapterParam",
              "type": "bytes"
            },
            {
              "internalType": "address",
              "name": "refundAddress",
              "type": "address"
            }
          ],
          "internalType": "struct IUSDOBase.ILeverageLZData",
          "name": "lzData",
          "type": "tuple"
        },
        {
          "components": [
            {
              "internalType": "address",
              "name": "tokenOut",
              "type": "address"
            },
            {
              "internalType": "uint256",
              "name": "amountOutMin",
              "type": "uint256"
            },
            {
              "internalType": "bytes",
              "name": "data",
              "type": "bytes"
            }
          ],
          "internalType": "struct IUSDOBase.ILeverageSwapData",
          "name": "swapData",
          "type": "tuple"
        },
        {
          "components": [
            {
              "internalType": "address",
              "name": "swapper",
              "type": "address"
            },
            {
              "internalType": "address",
              "name": "magnetar",
              "type": "address"
            },
            {
              "internalType": "address",
              "name": "tOft",
              "type": "address"
            },
            {
              "internalType": "address",
              "name": "srcMarket",
              "type": "address"
            }
          ],
          "internalType": "struct IUSDOBase.ILeverageExternalContractsData",
          "name": "externalData",
          "type": "tuple"
        }
      ],
      "name": "sendForLeverage",
      "outputs": [],
      "stateMutability": "payable",
      "type": "function"
    },
    {
      "inputs": [
        {
          "internalType": "address",
          "name": "_from",
          "type": "address"
        },
        {
          "internalType": "uint16",
          "name": "_dstChainId",
          "type": "uint16"
        },
        {
          "internalType": "bytes32",
          "name": "_toAddress",
          "type": "bytes32"
        },
        {
          "internalType": "uint256",
          "name": "_amount",
          "type": "uint256"
        },
        {
          "components": [
            {
              "internalType": "address payable",
              "name": "refundAddress",
              "type": "address"
            },
            {
              "internalType": "address",
              "name": "zroPaymentAddress",
              "type": "address"
            },
            {
              "internalType": "bytes",
              "name": "adapterParams",
              "type": "bytes"
            }
          ],
          "internalType": "struct ICommonOFT.LzCallParams",
          "name": "_callParams",
          "type": "tuple"
        }
      ],
      "name": "sendFrom",
      "outputs": [],
      "stateMutability": "payable",
      "type": "function"
    },
    {
      "inputs": [
        {
          "internalType": "address",
          "name": "from",
          "type": "address"
        },
        {
          "internalType": "address",
          "name": "to",
          "type": "address"
        },
        {
          "internalType": "uint256",
          "name": "amount",
          "type": "uint256"
        },
        {
          "internalType": "uint256",
          "name": "share",
          "type": "uint256"
        },
        {
          "internalType": "uint256",
          "name": "assetId",
          "type": "uint256"
        },
        {
          "internalType": "uint16",
          "name": "lzDstChainId",
          "type": "uint16"
        },
        {
          "components": [
            {
              "internalType": "uint256",
              "name": "extraGasLimit",
              "type": "uint256"
            },
            {
              "internalType": "address",
              "name": "zroPaymentAddress",
              "type": "address"
            }
          ],
          "internalType": "struct ICommonData.ISendOptions",
          "name": "options",
          "type": "tuple"
        }
      ],
      "name": "sendToStrategy",
      "outputs": [],
      "stateMutability": "payable",
      "type": "function"
    },
    {
      "inputs": [
        {
          "internalType": "address",
          "name": "from",
          "type": "address"
        },
        {
          "internalType": "address",
          "name": "to",
          "type": "address"
        },
        {
          "internalType": "uint16",
          "name": "lzDstChainId",
          "type": "uint16"
        },
        {
          "internalType": "bytes",
          "name": "airdropAdapterParams",
          "type": "bytes"
        },
        {
          "components": [
            {
              "internalType": "uint256",
              "name": "amount",
              "type": "uint256"
            },
            {
              "internalType": "uint256",
              "name": "borrowAmount",
              "type": "uint256"
            },
            {
              "internalType": "address",
              "name": "marketHelper",
              "type": "address"
            },
            {
              "internalType": "address",
              "name": "market",
              "type": "address"
            }
          ],
          "internalType": "struct ITapiocaOFT.IBorrowParams",
          "name": "borrowParams",
          "type": "tuple"
        },
        {
          "components": [
            {
              "internalType": "bool",
              "name": "withdraw",
              "type": "bool"
            },
            {
              "internalType": "uint256",
              "name": "withdrawLzFeeAmount",
              "type": "uint256"
            },
            {
              "internalType": "bool",
              "name": "withdrawOnOtherChain",
              "type": "bool"
            },
            {
              "internalType": "uint16",
              "name": "withdrawLzChainId",
              "type": "uint16"
            },
            {
              "internalType": "bytes",
              "name": "withdrawAdapterParams",
              "type": "bytes"
            }
          ],
          "internalType": "struct ICommonData.IWithdrawParams",
          "name": "withdrawParams",
          "type": "tuple"
        },
        {
          "components": [
            {
              "internalType": "uint256",
              "name": "extraGasLimit",
              "type": "uint256"
            },
            {
              "internalType": "address",
              "name": "zroPaymentAddress",
              "type": "address"
            }
          ],
          "internalType": "struct ICommonData.ISendOptions",
          "name": "options",
          "type": "tuple"
        },
        {
          "components": [
            {
              "internalType": "bool",
              "name": "permitAll",
              "type": "bool"
            },
            {
              "internalType": "bool",
              "name": "allowFailure",
              "type": "bool"
            },
            {
              "internalType": "address",
              "name": "target",
              "type": "address"
            },
            {
              "internalType": "bool",
              "name": "permitBorrow",
              "type": "bool"
            },
            {
              "internalType": "address",
              "name": "owner",
              "type": "address"
            },
            {
              "internalType": "address",
              "name": "spender",
              "type": "address"
            },
            {
              "internalType": "uint256",
              "name": "value",
              "type": "uint256"
            },
            {
              "internalType": "uint256",
              "name": "deadline",
              "type": "uint256"
            },
            {
              "internalType": "uint8",
              "name": "v",
              "type": "uint8"
            },
            {
              "internalType": "bytes32",
              "name": "r",
              "type": "bytes32"
            },
            {
              "internalType": "bytes32",
              "name": "s",
              "type": "bytes32"
            }
          ],
          "internalType": "struct ICommonData.IApproval[]",
          "name": "approvals",
          "type": "tuple[]"
        }
      ],
      "name": "sendToYBAndBorrow",
      "outputs": [],
      "stateMutability": "payable",
      "type": "function"
    },
    {
      "inputs": [
        {
          "internalType": "uint16",
          "name": "_version",
          "type": "uint16"
        },
        {
          "internalType": "uint16",
          "name": "_chainId",
          "type": "uint16"
        },
        {
          "internalType": "uint256",
          "name": "_configType",
          "type": "uint256"
        },
        {
          "internalType": "bytes",
          "name": "_config",
          "type": "bytes"
        }
      ],
      "name": "setConfig",
      "outputs": [],
      "stateMutability": "nonpayable",
      "type": "function"
    },
    {
      "inputs": [
        {
          "internalType": "uint16",
          "name": "_chainId",
          "type": "uint16"
        },
        {
          "internalType": "bool",
          "name": "_isLdChain",
          "type": "bool"
        }
      ],
      "name": "setLdChain",
      "outputs": [],
      "stateMutability": "nonpayable",
      "type": "function"
    },
    {
      "inputs": [
        {
          "internalType": "uint16",
          "name": "_dstChainId",
          "type": "uint16"
        },
        {
          "internalType": "uint16",
          "name": "_packetType",
          "type": "uint16"
        },
        {
          "internalType": "uint256",
          "name": "_minGas",
          "type": "uint256"
        }
      ],
      "name": "setMinDstGas",
      "outputs": [],
      "stateMutability": "nonpayable",
      "type": "function"
    },
    {
      "inputs": [
        {
          "internalType": "uint16",
          "name": "_dstChainId",
          "type": "uint16"
        },
        {
          "internalType": "uint256",
          "name": "_size",
          "type": "uint256"
        }
      ],
      "name": "setPayloadSizeLimit",
      "outputs": [],
      "stateMutability": "nonpayable",
      "type": "function"
    },
    {
      "inputs": [
        {
          "internalType": "address",
          "name": "_precrime",
          "type": "address"
        }
      ],
      "name": "setPrecrime",
      "outputs": [],
      "stateMutability": "nonpayable",
      "type": "function"
    },
    {
      "inputs": [
        {
          "internalType": "uint16",
          "name": "_version",
          "type": "uint16"
        }
      ],
      "name": "setReceiveVersion",
      "outputs": [],
      "stateMutability": "nonpayable",
      "type": "function"
    },
    {
      "inputs": [
        {
          "internalType": "uint16",
          "name": "_version",
          "type": "uint16"
        }
      ],
      "name": "setSendVersion",
      "outputs": [],
      "stateMutability": "nonpayable",
      "type": "function"
    },
    {
      "inputs": [
        {
          "internalType": "uint16",
          "name": "_srcChainId",
          "type": "uint16"
        },
        {
          "internalType": "bytes",
          "name": "_path",
          "type": "bytes"
        }
      ],
      "name": "setTrustedRemote",
      "outputs": [],
      "stateMutability": "nonpayable",
      "type": "function"
    },
    {
      "inputs": [
        {
          "internalType": "uint16",
          "name": "_remoteChainId",
          "type": "uint16"
        },
        {
          "internalType": "bytes",
          "name": "_remoteAddress",
          "type": "bytes"
        }
      ],
      "name": "setTrustedRemoteAddress",
      "outputs": [],
      "stateMutability": "nonpayable",
      "type": "function"
    },
    {
      "inputs": [
        {
          "internalType": "bool",
          "name": "_useCustomAdapterParams",
          "type": "bool"
        }
      ],
      "name": "setUseCustomAdapterParams",
      "outputs": [],
      "stateMutability": "nonpayable",
      "type": "function"
    },
    {
      "inputs": [],
      "name": "sharedDecimals",
      "outputs": [
        {
          "internalType": "uint8",
          "name": "",
          "type": "uint8"
        }
      ],
      "stateMutability": "view",
      "type": "function"
    },
    {
      "inputs": [],
      "name": "strategyModule",
      "outputs": [
        {
          "internalType": "contract BaseTOFTStrategyModule",
          "name": "",
          "type": "address"
        }
      ],
      "stateMutability": "view",
      "type": "function"
    },
    {
      "inputs": [
        {
          "internalType": "bytes4",
          "name": "interfaceId",
          "type": "bytes4"
        }
      ],
      "name": "supportsInterface",
      "outputs": [
        {
          "internalType": "bool",
          "name": "",
          "type": "bool"
        }
      ],
      "stateMutability": "view",
      "type": "function"
    },
    {
      "inputs": [],
      "name": "symbol",
      "outputs": [
        {
          "internalType": "string",
          "name": "",
          "type": "string"
        }
      ],
      "stateMutability": "view",
      "type": "function"
    },
    {
      "inputs": [],
      "name": "token",
      "outputs": [
        {
          "internalType": "address",
          "name": "",
          "type": "address"
        }
      ],
      "stateMutability": "view",
      "type": "function"
    },
    {
      "inputs": [],
      "name": "totalSupply",
      "outputs": [
        {
          "internalType": "uint256",
          "name": "",
          "type": "uint256"
        }
      ],
      "stateMutability": "view",
      "type": "function"
    },
    {
      "inputs": [
        {
          "internalType": "address",
          "name": "to",
          "type": "address"
        },
        {
          "internalType": "uint256",
          "name": "amount",
          "type": "uint256"
        }
      ],
      "name": "transfer",
      "outputs": [
        {
          "internalType": "bool",
          "name": "",
          "type": "bool"
        }
      ],
      "stateMutability": "nonpayable",
      "type": "function"
    },
    {
      "inputs": [
        {
          "internalType": "address",
          "name": "from",
          "type": "address"
        },
        {
          "internalType": "address",
          "name": "to",
          "type": "address"
        },
        {
          "internalType": "uint256",
          "name": "amount",
          "type": "uint256"
        }
      ],
      "name": "transferFrom",
      "outputs": [
        {
          "internalType": "bool",
          "name": "",
          "type": "bool"
        }
      ],
      "stateMutability": "nonpayable",
      "type": "function"
    },
    {
      "inputs": [
        {
          "internalType": "address",
          "name": "newOwner",
          "type": "address"
        }
      ],
      "name": "transferOwnership",
      "outputs": [],
      "stateMutability": "nonpayable",
      "type": "function"
    },
    {
      "inputs": [
        {
          "internalType": "uint16",
          "name": "lzDstChainId",
          "type": "uint16"
        },
        {
          "internalType": "bytes",
          "name": "airdropAdapterParams",
          "type": "bytes"
        },
        {
          "internalType": "address",
          "name": "zroPaymentAddress",
          "type": "address"
        },
        {
          "internalType": "uint256",
          "name": "amount",
          "type": "uint256"
        },
        {
          "components": [
            {
              "internalType": "address payable",
              "name": "refundAddress",
              "type": "address"
            },
            {
              "internalType": "address",
              "name": "zroPaymentAddress",
              "type": "address"
            },
            {
              "internalType": "bytes",
              "name": "adapterParams",
              "type": "bytes"
            }
          ],
          "internalType": "struct ISendFrom.LzCallParams",
          "name": "sendFromData",
          "type": "tuple"
        },
        {
          "components": [
            {
              "internalType": "bool",
              "name": "permitAll",
              "type": "bool"
            },
            {
              "internalType": "bool",
              "name": "allowFailure",
              "type": "bool"
            },
            {
              "internalType": "address",
              "name": "target",
              "type": "address"
            },
            {
              "internalType": "bool",
              "name": "permitBorrow",
              "type": "bool"
            },
            {
              "internalType": "address",
              "name": "owner",
              "type": "address"
            },
            {
              "internalType": "address",
              "name": "spender",
              "type": "address"
            },
            {
              "internalType": "uint256",
              "name": "value",
              "type": "uint256"
            },
            {
              "internalType": "uint256",
              "name": "deadline",
              "type": "uint256"
            },
            {
              "internalType": "uint8",
              "name": "v",
              "type": "uint8"
            },
            {
              "internalType": "bytes32",
              "name": "r",
              "type": "bytes32"
            },
            {
              "internalType": "bytes32",
              "name": "s",
              "type": "bytes32"
            }
          ],
          "internalType": "struct ICommonData.IApproval[]",
          "name": "approvals",
          "type": "tuple[]"
        }
      ],
      "name": "triggerSendFrom",
      "outputs": [],
      "stateMutability": "payable",
      "type": "function"
    },
    {
      "inputs": [
        {
          "internalType": "uint16",
          "name": "",
          "type": "uint16"
        }
      ],
      "name": "trustedRemoteLookup",
      "outputs": [
        {
          "internalType": "bytes",
          "name": "",
          "type": "bytes"
        }
      ],
      "stateMutability": "view",
      "type": "function"
    },
    {
      "inputs": [],
      "name": "useCustomAdapterParams",
      "outputs": [
        {
          "internalType": "bool",
          "name": "",
          "type": "bool"
        }
      ],
      "stateMutability": "view",
      "type": "function"
    },
    {
      "inputs": [],
      "name": "yieldBox",
      "outputs": [
        {
          "internalType": "contract IYieldBoxBase",
          "name": "",
          "type": "address"
        }
      ],
      "stateMutability": "view",
      "type": "function"
    },
    {
      "stateMutability": "payable",
      "type": "receive"
    }
  ],
  "bytecode": "0x6101a060405234620007fe57620060e9803803809162000022826101a062000803565b6101a0396101a0016101606101a0820312620007fe57620000456101a062000827565b90620000536101c062000827565b6101e051916001600160a01b0383168303620007fe57610200516001600160401b038111620007fe57816200008c916101a00162000861565b6102205190916001600160401b038211620007fe57620000b0916101a00162000861565b9160a06101a001519160ff83168303620007fe576102605194620000d661028062000827565b95620000e46102a062000827565b93620000f26102c062000827565b95620001006102e062000827565b97604051956a546170696f63614f46542d60a81b602088015262000145602b8883516200013481848401602088016200083c565b810103600b81018a52018862000803565b604080519c908d01808e116001600160401b03909111176200053457603160f81b60208e60408101604052600181520152620001bb602b60405180946a546170696f63614f46542d60a81b6020830152620001aa81518092602086860191016200083c565b810103600b81018552018362000803565b620001f660216040518095601d60fa1b6020830152620001e581518092602086860191016200083c565b810103600181018652018462000803565b60008054336001600160a01b0319821681178355916001600160a01b03909116907f8be0079c531659141344cd1fd0a4f28419497f9722a3daafe3b4186f6b6457e09080a36001600160a01b0316608052600183901c607f1660a0528051906001600160401b0382116200053457600b5490600182811c92168015620007f3575b6020831014620006c55781601f84931162000781575b50602090601f8311600114620006f257600092620006e6575b50508160011b916000199060031b1c191617600b555b8051906001600160401b0382116200053457600c5490600182811c92168015620006db575b6020831014620006c55781601f84931162000650575b50602090601f8311600114620005c157600092620005b5575b50508160011b916000199060031b1c191617600c555b60ff62000332620008bc565b1680607f8360011c16116200056057607f8260011c1690039160ff83116200054a57604d60ff8416116200054a5760ff809316600a0a60c05260018060a01b031660018060a01b0319600f541617600f551660ff19601154161760115560105560018060a01b031660018060a01b0319600e541617600e55602081519101209460208151910120938561014052846101605246610100526040519460208601907f8b73c3c69bb8fe3d512ecc4cf759cc79239f7b179b0ffacaa9a75d522b39400f97888352604088015260608701524660808701523060a087015260a0865260c086019580871060018060401b038811176200053457604087905251902060e0523061012052610180958652601480546001600160a01b03199081166001600160a01b0393841617909155601580548216938316939093179092556016805483169382169390931790925560178054909116929091169190911790556158169182620008d3833960805182818161054e0152818161082f01528181610a8e01528181610e5001528181611068015281816124a0015281816125b001528181612e730152818161474a01528181614a1a015261541d015260a05182611d65015260c0518261547e015260e0518261356c0152610100518261362701526101205182613536015261014051826135bb015261016051826135e1015251816135980152f35b634e487b7160e01b600052604160045260246000fd5b634e487b7160e01b600052601160045260246000fd5b60405162461bcd60e51b815260206004820152602760248201527f4f46543a20736861726564446563696d616c73206d757374206265203c3d20646044820152666563696d616c7360c81b6064820152608490fd5b01519050388062000310565b600c600090815293507fdf6966c971051c3d54ec59162606531493a51404a002842f56009d7e5cf4a8c791905b601f198416851062000634576001945083601f198116106200061a575b505050811b01600c5562000326565b015160001960f88460031b161c191690553880806200060b565b81810151835560209485019460019093019290910190620005ee565b600c6000529091507fdf6966c971051c3d54ec59162606531493a51404a002842f56009d7e5cf4a8c7601f840160051c81019160208510620006ba575b90601f859493920160051c01905b818110620006aa5750620002f7565b600081558493506001016200069b565b90915081906200068d565b634e487b7160e01b600052602260045260246000fd5b91607f1691620002e1565b015190503880620002a6565b600b600090815293507f0175b7a638427703f0dbe7bb9bbf987a2551717b34e79f33b5b1008d1fa01db991905b601f198416851062000765576001945083601f198116106200074b575b505050811b01600b55620002bc565b015160001960f88460031b161c191690553880806200073c565b818101518355602094850194600190930192909101906200071f565b600b6000529091507f0175b7a638427703f0dbe7bb9bbf987a2551717b34e79f33b5b1008d1fa01db9601f840160051c810160208510620007eb575b90849392915b601f830160051c82018110620007db5750506200028d565b60008155859450600101620007c3565b5080620007bd565b91607f169162000277565b600080fd5b601f909101601f19168101906001600160401b038211908210176200053457604052565b51906001600160a01b0382168203620007fe57565b60005b838110620008505750506000910152565b81810151838201526020016200083f565b81601f82011215620007fe5780516001600160401b03811162000534576040519262000898601f8301601f19166020018562000803565b81845260208284010111620007fe57620008b991602080850191016200083c565b90565b60ff601154168015620008cc5790565b5060129056fe6080604052600436101561001b575b361561001957600080fd5b005b60003560e01c80621d35671461048f57806254af3a1461048a57806301ffc9a71461048557806306fdde031461048057806307e0db171461047b578063095ea7b31461047657806309be4511146104715780630df374831461046c57806310ddb1371461046757806318160ddd146103c257806318e7fa191461046257806319b883721461045d57806323b872dd14610458578063313ce567146104535780633644e5151461044e578063365260b41461044957806339509351146104445780633b5971501461043f5780633d8b38f61461043a5780633f1f4fa41461043557806342d65a8d146104305780634477051514610426578063479070ee1461042b5780634c42899a1461042657806358c5cfb8146104215780635b8c41e61461041c57806366ad5c8a14610417578063695ef6bf146104125780636cb2c9581461040d57806370a0823114610408578063715018a6146104035780637533d788146103fe57806376203b48146103f9578063785e9e86146103f4578063796fd43a146103ef5780637ecebe00146103ea578063857749b0146103e557806386263568146103e057806389dd5602146103db5780638aec2834146103d65780638cc7f0ba146103d15780638cfd8f5c146103cc5780638da5cb5b146103c75780639358928b146103c2578063950c8a74146103bd57806395d89b41146103b85780639bdb9812146103b35780639f38369a146103ae578063a457c2d7146103a9578063a4c51df5146103a4578063a6c3d1651461039f578063a9059cbb1461039a578063b25ea8fb14610395578063b353aaa714610390578063baf3292d1461038b578063c446183414610386578063cbed8b9c14610381578063cfd8b3d81461037c578063d1deba1f14610377578063d505accf14610372578063dd62ed3e1461036d578063de40657714610368578063df2a5b3b14610363578063e6a20ae61461035e578063eab45d9c14610359578063eaffd49a14610354578063eb8d72b71461034f578063ed629c5c1461034a578063f2fde38b14610345578063f5b33dfa14610340578063f5ecbdbc1461033b5763fc0c546a0361000e57612edd565b612e09565b612de0565b612d19565b612cf6565b612bac565b612b23565b612ac1565b612aa5565b6129b8565b61298f565b612935565b6127d4565b612671565b612648565b61255c565b61253f565b6124cf565b61248a565b6123ee565b6123c4565b612241565b6121ae565b6120f0565b61204d565b612002565b611f5e565b611f35565b610aef565b611f0c565b611eba565b611e19565b611df0565b611dc7565b611d89565b611d4b565b611d0e565b611c46565b611c1d565b6119ff565b6119a8565b611862565b611825565b6116f3565b611610565b61158a565b611523565b61141b565b6110cf565b611219565b61104e565b611015565b610fb9565b610f2a565b610ece565b610dca565b610d7c565b610d56565b610d16565b610c71565b610b31565b610a65565b610a26565b610981565b6108dd565b610806565b610726565b610674565b610656565b610537565b61ffff8116036104a057565b600080fd5b9181601f840112156104a0578235916001600160401b0383116104a057602083818601950101116104a057565b9060806003198301126104a0576004356104eb81610494565b916001600160401b03906024358281116104a0578161050c916004016104a5565b9390939260443581811681036104a057926064359182116104a057610533916004016104a5565b9091565b346104a057610545366104d2565b929493919291907f00000000000000000000000000000000000000000000000000000000000000006001600160a01b03163303610606576105cb6105d392610019976105c46105aa6105a58a61ffff166000526001602052604060002090565b61198d565b80519081841491826105fc575b50816105d9575b50613ff8565b36916111c7565b9236916111c7565b92614135565b90506105e63684866111c7565b60208151910120906020815191012014386105be565b15159150386105b7565b60405162461bcd60e51b815260206004820152601e60248201527f4c7a4170703a20696e76616c696420656e64706f696e742063616c6c657200006044820152606490fd5b60009103126104a057565b346104a05760003660031901126104a0576020601054604051908152f35b346104a05760203660031901126104a05760043563ffffffff60e01b81168091036104a057602090631f7ecdf760e01b81149081156106b9575b506040519015158152f35b6301ffc9a760e01b149050386106ae565b60005b8381106106dd5750506000910152565b81810151838201526020016106cd565b90602091610706815180928185528580860191016106ca565b601f01601f1916010190565b9060206107239281815201906106ed565b90565b346104a0576000806003193601126108035760405181600b54610748816118bd565b808452906001908181169081156107db5750600114610782575b61077e846107728188038261116b565b60405191829182610712565b0390f35b600b8352602094507f0175b7a638427703f0dbe7bb9bbf987a2551717b34e79f33b5b1008d1fa01db95b8284106107c8575050508161077e936107729282010193610762565b80548585018701529285019281016107ac565b61077e96506107729450602092508593915060ff191682840152151560051b82010193610762565b80fd5b346104a057600060203660031901126108035760043561082581610494565b61082d612ef8565b7f00000000000000000000000000000000000000000000000000000000000000006001600160a01b0316908290823b156108a157602461ffff918360405195869485936307e0db1760e01b85521660048401525af1801561089c57610890575080f35b61089990611101565b80f35b6134af565b5080fd5b6001600160a01b038116036104a057565b600435906108c3826108a5565b565b606435906108c3826108a5565b35906108c3826108a5565b346104a05760403660031901126104a0576109076004356108fd816108a5565b602435903361314a565b602060405160018152f35b908160a09103126104a05790565b60609060a31901126104a05760a490565b60609060c31901126104a05760c490565b908160609103126104a05790565b9181601f840112156104a0578235916001600160401b0383116104a05760208085019461016085020101116104a057565b6101403660031901126104a05760043561099a816108a5565b6024356109a6816108a5565b604435916109b383610494565b6109bb6108c5565b6001600160401b03936084358581116104a0576109dc903690600401610912565b6109e536610920565b90610104358781116104a0576109ff903690600401610950565b949093610124359889116104a057610a1e6100199936906004016104a5565b989097613ba5565b346104a05760403660031901126104a05761ffff600435610a4681610494565b610a4e612ef8565b166000526003602052602435604060002055600080f35b346104a0576000602036600319011261080357600435610a8481610494565b610a8c612ef8565b7f00000000000000000000000000000000000000000000000000000000000000006001600160a01b0316908290823b156108a157602461ffff918360405195869485936310ddb13760e01b85521660048401525af1801561089c57610890575080f35b346104a05760003660031901126104a0576020600a54604051908152f35b60c09060031901126104a057600490565b60c0906101231901126104a05761012490565b610200806003193601126104a057610b4836610b0d565b610b5136610931565b91610b5b36610b1e565b916101e4356001600160401b0381116104a05761001994610c0d610c3794610c1860a097610b90610c29963690600401610950565b9490956040519a8b996318e7fa1960e01b60208c01528035610bb1816108a5565b600180841b0380911660248d0152806020830135610bce816108a5565b1660448d0152604082013560648d0152606082013560848d01526080820135610bf6816108a5565b1660a48c0152013560c48a015260e48901906137f5565b61014487019061382d565b6102048501526102248401916136fb565b03601f19810183528261116b565b613e2e565b60809060831901126104a057608490565b6040906101231901126104a05761012490565b60409060c31901126104a05760c490565b6101803660031901126104a057600435610c8a816108a5565b602435610c96816108a5565b60443591610ca383610494565b6001600160401b03926064358481116104a057610cc49036906004016104a5565b610ccd36610c3c565b90610104358781116104a057610ce7903690600401610912565b92610cf136610c4d565b94610164359889116104a057610d0e610019993690600401610950565b989097613c9d565b346104a05760603660031901126104a057610907600435610d36816108a5565b602435610d42816108a5565b60443591610d51833383613275565b613042565b346104a05760003660031901126104a0576020610d71613694565b60ff60405191168152f35b346104a05760003660031901126104a0576020610d97613533565b604051908152f35b6064359081151582036104a057565b60a4359081151582036104a057565b359081151582036104a057565b346104a05760a03660031901126104a057600435610de781610494565b610def610d9f565b90608435906001600160401b0382116104a057610e156105c460409336906004016104a5565b90610e4c610e2f610e27604435614fd3565b602435615072565b928451958694859463040a7bb160e41b86523090600487016148f2565b03817f00000000000000000000000000000000000000000000000000000000000000006001600160a01b03165afa90811561089c576000908192610e9d575b50604080519182526020820192909252f35b9050610ec0915060403d8111610ec7575b610eb8818361116b565b8101906148dc565b9038610e8b565b503d610eae565b346104a05760403660031901126104a057600435610eeb816108a5565b3360009081526009602090815260408083206001600160a01b03851684529091529020546024358101809111610f2557610907913361314a565b612f50565b346104a05760403660031901126104a057600435610f4781610494565b602435908115158092036104a05761ffff90610f61612ef8565b16600052600d60205260406000209060ff80198354169116179055600080f35b9060406003198301126104a057600435610f9a81610494565b91602435906001600160401b0382116104a057610533916004016104a5565b346104a057602061ffff611006610fcf36610f81565b9390911660005260018452610ff1610ff86040600020604051928380926118f7565b038261116b565b8481519101209236916111c7565b82815191012014604051908152f35b346104a05760203660031901126104a05761ffff60043561103581610494565b1660005260036020526020604060002054604051908152f35b346104a05761105c36610f81565b9190611066612ef8565b7f00000000000000000000000000000000000000000000000000000000000000006001600160a01b031691823b156104a057604051928380926342d65a8d60e01b8252816110bd6000988997889460048501614089565b03925af1801561089c57610890575080f35b346104a05760003660031901126104a057602060405160008152f35b634e487b7160e01b600052604160045260246000fd5b6001600160401b03811161111457604052565b6110eb565b61014081019081106001600160401b0382111761111457604052565b60c081019081106001600160401b0382111761111457604052565b604081019081106001600160401b0382111761111457604052565b90601f801991011681019081106001600160401b0382111761111457604052565b6040519061016082018281106001600160401b0382111761111457604052565b6001600160401b03811161111457601f01601f191660200190565b9291926111d3826111ac565b916111e1604051938461116b565b8294818452818301116104a0578281602093846000960137010152565b9080601f830112156104a057816020610723933591016111c7565b60e03660031901126104a057600435611231816108a5565b6084359061123e82610494565b60a4359061124b826108a5565b60c435926001600160401b0384116104a057610c2961ffff936112d2936112796100199736906004016111fe565b916040519687956323c8387760e11b602088015260018060a01b0380941660248801526024356044880152604435606488015260643560848801521660a48601521660c484015260e060e48401526101048301906106ed565b613ece565b908160e09103126104a05790565b6084359060ff821682036104a057565b359060ff821682036104a057565b81601f820112156104a0578035906001600160401b038211611114576040805193602091611336838660051b018761116b565b8486528286019183610160809702860101948186116104a0578401925b858410611364575050505050505090565b86848303126104a05784879161137861118c565b61138187610dbd565b815261138e838801610dbd565b8382015261139d8688016108d2565b8682015260606113ae818901610dbd565b9082015260806113bf8189016108d2565b9082015260a06113d08189016108d2565b9082015260c0808801359082015260e080880135908201526101006113f68189016112f5565b9082015261012080880135908201526101408088013590820152815201930192611353565b6101403660031901126104a0576114306108b6565b6001600160401b03906044358281116104a057611451903690600401610942565b6064358381116104a0576114699036906004016112d7565b9061147336610c3c565b610104358581116104a05761148c9036906004016104a5565b939092610124359687116104a0576114ab610019973690600401611303565b95602435906139d3565b60606003198201126104a0576004356114cd81610494565b916024356001600160401b03928382116104a0576114ed916004016111fe565b9160443590811681036104a05790565b6020906115179282604051948386809551938492016106ca565b82019081520301902090565b346104a057602061158161ffff6115608361153d366114b5565b9490911660005260058252604060002082604051948386809551938492016106ca565b820190815203019020906001600160401b0316600052602052604060002090565b54604051908152f35b346104a057611598366104d2565b91929493903033036115bc576105cb6115b6926100199736916111c7565b926142f7565b60405162461bcd60e51b815260206004820152602660248201527f4e6f6e626c6f636b696e674c7a4170703a2063616c6c6572206d7573742062656044820152650204c7a4170760d41b6064820152608490fd5b60a03660031901126104a057600435611628816108a5565b60243561163481610494565b604435916084356001600160401b0381116104a057602061ffff61166b6000805160206157a1833981519152933690600401610942565b936116de853561167a816108a5565b6116986105c4868901359861168e8a6108a5565b60408101906146c8565b6116a2818a614ed0565b6116b76116b0606435615054565b5085615245565b976116c3891515614936565b6116d56116cf8a614fd3565b8c615072565b9234938b6149d6565b6040519485526001600160a01b0316941692a4005b60c03660031901126104a05760043561170b81610494565b6001600160401b036024358181116104a05761172b9036906004016104a5565b91909260443561173a816108a5565b6084358381116104a057611752903690600401610942565b9060a4359384116104a0576100199561ffff95611816610c299460606118066117b3611785610c379b3690600401610950565b9790966040519d8e9c8d6020630d96592b60e31b9101521660248d015260c060448d015260e48c01916136a9565b9260018060a01b0380981660648b015260643560848b015260231997888b86030160a48c01528082356117e5816108a5565b16855260208201356117f6816108a5565b16602085015260408101906136ca565b91909281604082015201916136a9565b928584030160c48601526136fb565b346104a05760203660031901126104a057600435611842816108a5565b60018060a01b031660005260086020526020604060002054604051908152f35b346104a0576000806003193601126108035761187c612ef8565b80546001600160a01b03198116825581906001600160a01b03167f8be0079c531659141344cd1fd0a4f28419497f9722a3daafe3b4186f6b6457e08280a380f35b90600182811c921680156118ed575b60208310146118d757565b634e487b7160e01b600052602260045260246000fd5b91607f16916118cc565b9060009291805491611908836118bd565b91828252600193848116908160001461196a575060011461192a575b50505050565b90919394506000526020928360002092846000945b838610611956575050505001019038808080611924565b80548587018301529401938590820161193f565b9294505050602093945060ff191683830152151560051b01019038808080611924565b906108c36119a192604051938480926118f7565b038361116b565b346104a05760203660031901126104a05761ffff6004356119c881610494565b16600052600160205261077e610ff16119eb6040600020604051928380926118f7565b6040519182916020835260208301906106ed565b60e03660031901126104a057600435611a17816108a5565b602435611a2381610494565b604435916001600160401b03906084358281116104a057611a489036906004016104a5565b91909260a43591818316918284036104a05760c4359081116104a057611a72903690600401610942565b92611aa9843595611a82876108a5565b611aa1611a9760208801359761168e896108a5565b99909236916111c7565b9736916111c7565b9460ff60065416600014611b9c576022865110611b5757856020956116d56116de94611b258c611b1261ffff9a8b60226000805160206157a18339815191529f0151931660005260028d52611b0c60406000206001600052602052604060002090565b54612f82565b90611b1e821515614f25565b1015614f71565b611b3a611b33606435615054565b5088615245565b9a611b468c1515614936565b8d611b508d614fd3565b90336150ff565b60405162461bcd60e51b815260206004820152601c60248201527f4c7a4170703a20696e76616c69642061646170746572506172616d73000000006044820152606490fd5b948094935051611bc9576000805160206157a18339815191529460209461ffff946116d56116de94611b25565b60405162461bcd60e51b815260206004820152602660248201527f4f4654436f72653a205f61646170746572506172616d73206d7573742062652060448201526532b6b83a3c9760d11b6064820152608490fd5b346104a05760003660031901126104a057600f546040516001600160a01b039091168152602090f35b610100806003193601126104a05760243590611c61826108a5565b6001600160401b036044358181116104a057611c819036906004016112d7565b926064359182116104a05761001993610c29611cfe611ca7611d09953690600401610942565b611cec611cb336610c3c565b94604051988997633cb7ea1d60e11b60208a015260043560248a015260018060a01b0316604489015260648801526101248701906138ca565b85810360231901608487015290613896565b9160a484019061397b565b613ef8565b346104a05760203660031901126104a057600435611d2b816108a5565b60018060a01b031660005260126020526020604060002054604051908152f35b346104a05760003660031901126104a057602060405160ff7f0000000000000000000000000000000000000000000000000000000000000000168152f35b346104a05760203660031901126104a05761ffff600435611da981610494565b16600052600d602052602060ff604060002054166040519015158152f35b346104a05760003660031901126104a0576017546040516001600160a01b039091168152602090f35b346104a05760003660031901126104a0576015546040516001600160a01b039091168152602090f35b6101003660031901126104a057610019600435611e35816108a5565b611eac60243591611e45836108a5565b61ffff60a435611e5481610494565b611e5d36610c60565b9260405195634663f85d60e11b602088015260018060a01b0380921660248801521660448601526044356064860152606435608486015260843560a48601521660c484015260e4830190613c7c565b61010481526112d281611119565b346104a05760403660031901126104a0576020611581600435611edc81610494565b61ffff60243591611eec83610494565b166000526002835260406000209061ffff16600052602052604060002090565b346104a05760003660031901126104a0576000546040516001600160a01b039091168152602090f35b346104a05760003660031901126104a0576004546040516001600160a01b039091168152602090f35b346104a0576000806003193601126108035760405181600c54611f80816118bd565b808452906001908181169081156107db5750600114611fa95761077e846107728188038261116b565b600c8352602094507fdf6966c971051c3d54ec59162606531493a51404a002842f56009d7e5cf4a8c75b828410611fef575050508161077e936107729282010193610762565b8054858501870152928501928101611fd3565b346104a057602060ff61204161ffff6115608461201e366114b5565b9490911660005260078252604060002082604051948386809551938492016106ca565b54166040519015158152f35b346104a05760203660031901126104a05761ffff60043561206d81610494565b166000526001602052610ff161208d6040600020604051928380926118f7565b8051156120ab57610772816120a561077e9351613d66565b90615559565b60405162461bcd60e51b815260206004820152601d60248201527f4c7a4170703a206e6f20747275737465642070617468207265636f72640000006044820152606490fd5b346104a05760403660031901126104a05760043561210d816108a5565b6024359033600052600960205261213a8160406000209060018060a01b0316600052602052604060002090565b549180831061215b5761214f9203903361314a565b60405160018152602090f35b60405162461bcd60e51b815260206004820152602560248201527f45524332303a2064656372656173656420616c6c6f77616e63652062656c6f77604482015264207a65726f60d81b6064820152608490fd5b346104a05760e03660031901126104a0576004356121cb81610494565b6001600160401b03906064358281116104a0576121ec9036906004016104a5565b60849291923584811681036104a057612203610dae565b9160c4359586116104a05761221f61222f9636906004016104a5565b95909460443590602435906146fa565b60408051928352602083019190915290f35b346104a05761224f36610f81565b90612258612ef8565b604051926020928083858701376122846034868381013060601b8882015203601481018852018661116b565b60009361ffff8316855260019081815260408620918751916001600160401b038311611114576122be836122b886546118bd565b866140a4565b80601f841160011461232e57509180809261231d9695948a9b7f8c0400cfe2d1199b1a725c78960bcc2a344d869b80590d0f2bd005db15a572ce9b94612323575b50501b916000199060031b1c19161790555b60405193849384614089565b0390a180f35b0151925038806122ff565b91939498601f19841661234687600052602060002090565b938a905b8282106123ad575050917f8c0400cfe2d1199b1a725c78960bcc2a344d869b80590d0f2bd005db15a572ce999a9593918561231d98969410612394575b505050811b019055612311565b015160001960f88460031b161c19169055388080612387565b80888697829497870151815501960194019061234a565b346104a05760403660031901126104a0576109076004356123e4816108a5565b6024359033613042565b346104a05760403660031901126104a05760043560243561240e816108a5565b612416612ef8565b4790601854808310612452578203918211610f255761243a61089992841115613d84565b60008080809581945af161244c613dc4565b50613df4565b60405162461bcd60e51b815260206004820152601060248201526f544f46545f6c6f775f62616c616e636560801b6044820152606490fd5b346104a05760003660031901126104a0576040517f00000000000000000000000000000000000000000000000000000000000000006001600160a01b03168152602090f35b346104a05760203660031901126104a0577f5db758e995a17ec1ad84bdef7e8c3293a0bd6179bcce400dff5d4c3d87db726b602060043561250f816108a5565b612517612ef8565b600480546001600160a01b0319166001600160a01b03929092169182179055604051908152a1005b346104a05760003660031901126104a05760206040516127108152f35b346104a05760803660031901126104a05760043561257981610494565b60243561258581610494565b6064356001600160401b0381116104a0576125a49036906004016104a5565b90926125ae612ef8565b7f00000000000000000000000000000000000000000000000000000000000000006001600160a01b031690813b156104a05760008094612625604051978896879586946332fb62e760e21b865261ffff809216600487015216602485015260443560448501526080606485015260848401916136a9565b03925af1801561089c5761263557005b8061264261001992611101565b8061064b565b346104a05760003660031901126104a0576016546040516001600160a01b039091168152602090f35b61267a366104d2565b9161ffff869492961660005260056020526126c181604060002060206040518092878b833787820190815203019020906001600160401b0316600052602052604060002090565b5491821561278357612772848361276b7fc264d91f3adc5588250e1551f547752ca0cfa8f6b530d243b9f9f4cab10ea8e59a60006127578461273f8e8a8f61277e9f908f612725906127186127399436908d6111c7565b602081519101201461463b565b61ffff166000526005602052604060002090565b91614622565b906001600160401b0316600052602052604060002090565b5561276336878d6111c7565b9336916111c7565b91886142f7565b60405195869586614691565b0390a1005b60405162461bcd60e51b815260206004820152602360248201527f4e6f6e626c6f636b696e674c7a4170703a206e6f2073746f726564206d65737360448201526261676560e81b6064820152608490fd5b346104a05760e03660031901126104a0576004356127f1816108a5565b6024356127fd816108a5565b604435906064359261280d6112e5565b938042116128f0576128d86128eb916128b2610019976128c061284b8760018060a01b03166000526012602052604060002090815491600183019055565b604080517f6e71edae12b1b97f4d1f60370fef10105fa2faae0126114a169c64845d6126c9602082019081526001600160a01b03808c1693830193909352918b166060820152608081018c905260a081019290925260c082019590955292839060e0820190565b03601f19810184528361116b565b6128d360c4359360a4359351902061364d565b613359565b6001600160a01b0383811691161461330d565b61314a565b60405162461bcd60e51b815260206004820152601d60248201527f45524332305065726d69743a206578706972656420646561646c696e650000006044820152606490fd5b346104a05760403660031901126104a0576020611581600435612957816108a5565b60243590612964826108a5565b60018060a01b03166000526009835260406000209060018060a01b0316600052602052604060002090565b346104a05760003660031901126104a057600e546040516001600160a01b039091168152602090f35b346104a05760603660031901126104a0576004356129d581610494565b6024356129e181610494565b604435916129ed612ef8565b8215612a685761277e7f9d5c7c0b934da8fefa9c7760c98383778a12dfbfc0c3b3106518f43fb9508ac09361ffff8316600052600260205280612a428560406000209061ffff16600052602052604060002090565b556040519384938460409194939294606082019561ffff80921683521660208201520152565b60405162461bcd60e51b81526020600482015260156024820152744c7a4170703a20696e76616c6964206d696e47617360581b6044820152606490fd5b346104a05760003660031901126104a057602060405160018152f35b346104a05760203660031901126104a0576004358015158091036104a05760207f1584ad594a70cbe1e6515592e1272a987d922b097ead875069cebe8b40c004a491612b0b612ef8565b60ff196006541660ff821617600655604051908152a1005b346104a0576101003660031901126104a057600435612b4181610494565b6001600160401b03906024358281116104a057612b629036906004016104a5565b91906044359084821682036104a057608435612b7d816108a5565b60c4359586116104a057612b986100199636906004016104a5565b94909360e4359660a43594606435936147f0565b346104a057612bba36610f81565b9190612bc4612ef8565b60009161ffff81168352600160209080825260408520916001600160401b03871161111457612bfd87612bf785546118bd565b856140a4565b8590601f8811600114612c64575091868087989361231d957ffa41487ad5d6728f0b19276fa1eddc16558578f5109fc39d2dc33c3230470dab9993612c59575b501b906000198460031b1c191617905560405193849384614089565b880135925038612c3d565b90601f198816612c7985600052602060002090565b9288905b828210612cdf575050918893917ffa41487ad5d6728f0b19276fa1eddc16558578f5109fc39d2dc33c3230470dab989961231d969410612cc5575b505082811b019055612311565b870135600019600386901b60f8161c191690553880612cb8565b808685968294968c01358155019501930190612c7d565b346104a05760003660031901126104a057602060ff600654166040519015158152f35b346104a05760203660031901126104a057600435612d36816108a5565b612d3e612ef8565b6001600160a01b039081168015612d8c57600080546001600160a01b03198116831782559092167f8be0079c531659141344cd1fd0a4f28419497f9722a3daafe3b4186f6b6457e08380a380f35b60405162461bcd60e51b815260206004820152602660248201527f4f776e61626c653a206e6577206f776e657220697320746865207a65726f206160448201526564647265737360d01b6064820152608490fd5b346104a05760003660031901126104a0576014546040516001600160a01b039091168152602090f35b346104a05760803660031901126104a057600435612e2681610494565b60243590612e3382610494565b612e3e6044356108a5565b604051633d7b2f6f60e21b815261ffff91821660048201529116602482015230604482015260648035908201526000816084817f00000000000000000000000000000000000000000000000000000000000000006001600160a01b03165afa801561089c5761077e91600091612ebc575b5060405191829182610712565b612ed7913d8091833e612ecf818361116b565b810190614053565b38612eaf565b346104a05760003660031901126104a0576020604051308152f35b6000546001600160a01b03163303612f0c57565b606460405162461bcd60e51b815260206004820152602060248201527f4f776e61626c653a2063616c6c6572206973206e6f7420746865206f776e65726044820152fd5b634e487b7160e01b600052601160045260246000fd5b90601f8201809211610f2557565b6051019081605111610f2557565b91908201809211610f2557565b15612f9657565b60405162461bcd60e51b815260206004820152602360248201527f45524332303a207472616e7366657220746f20746865207a65726f206164647260448201526265737360e81b6064820152608490fd5b15612fee57565b60405162461bcd60e51b815260206004820152602660248201527f45524332303a207472616e7366657220616d6f756e7420657863656564732062604482015265616c616e636560d01b6064820152608490fd5b916001600160a01b0380841692909183156130f7576130dc826000805160206157c1833981519152946130f294169661307c881515612f8f565b6001600160a01b03811660009081526008602052604090206130c1908590546130a782821015612fe7565b039160018060a01b03166000526008602052604060002090565b556001600160a01b0316600090815260086020526040902090565b8054820190556040519081529081906020820190565b0390a3565b60405162461bcd60e51b815260206004820152602560248201527f45524332303a207472616e736665722066726f6d20746865207a65726f206164604482015264647265737360d81b6064820152608490fd5b6001600160a01b0380821692919083156132245782169384156131d457806131c37f8c5be1e5ebec7d5bd14f71427d1e84f3dd0314c0f7b2291e5b200ac8c7c3b925946131ac6130f29560018060a01b03166000526009602052604060002090565b9060018060a01b0316600052602052604060002090565b556040519081529081906020820190565b60405162461bcd60e51b815260206004820152602260248201527f45524332303a20617070726f766520746f20746865207a65726f206164647265604482015261737360f01b6064820152608490fd5b60405162461bcd60e51b8152602060048201526024808201527f45524332303a20617070726f76652066726f6d20746865207a65726f206164646044820152637265737360e01b6064820152608490fd5b6001600160a01b0380821660009081526009602090815260408083209386168352929052209091905492600184016132ad5750505050565b8084106132c8576132bf93039161314a565b38808080611924565b60405162461bcd60e51b815260206004820152601d60248201527f45524332303a20696e73756666696369656e7420616c6c6f77616e63650000006044820152606490fd5b1561331457565b60405162461bcd60e51b815260206004820152601e60248201527f45524332305065726d69743a20696e76616c6964207369676e617475726500006044820152606490fd5b916107239391613368936134bb565b919091613390565b6005111561337a57565b634e487b7160e01b600052602160045260246000fd5b61339981613370565b806133a15750565b6133aa81613370565b600181036133f65760405162461bcd60e51b815260206004820152601860248201527745434453413a20696e76616c6964207369676e617475726560401b6044820152606490fd5b0390fd5b6133ff81613370565b6002810361344c5760405162461bcd60e51b815260206004820152601f60248201527f45434453413a20696e76616c6964207369676e6174757265206c656e677468006044820152606490fd5b80613458600392613370565b1461345f57565b60405162461bcd60e51b815260206004820152602260248201527f45434453413a20696e76616c6964207369676e6174757265202773272076616c604482015261756560f01b6064820152608490fd5b6040513d6000823e3d90fd5b9291906fa2a8918ca85bafe22016d0b997e4df60600160ff1b0383116135275791608094939160ff602094604051948552168484015260408301526060820152600093849182805260015afa1561089c5781516001600160a01b03811615613521579190565b50600190565b50505050600090600390565b307f00000000000000000000000000000000000000000000000000000000000000006001600160a01b03161480613624575b1561358e577f000000000000000000000000000000000000000000000000000000000000000090565b60405160208101907f000000000000000000000000000000000000000000000000000000000000000082527f000000000000000000000000000000000000000000000000000000000000000060408201527f000000000000000000000000000000000000000000000000000000000000000060608201524660808201523060a082015260a0815261361e81611135565b51902090565b507f00000000000000000000000000000000000000000000000000000000000000004614613565565b613655613533565b9060405190602082019261190160f01b84526022830152604282015260428152608081018181106001600160401b038211176111145760405251902090565b60ff6011541680156136a35790565b50601290565b908060209392818452848401376000828201840152601f01601f1916010190565b9035601e19823603018112156104a05701602081359101916001600160401b0382116104a05781360383136104a057565b9190808252602080920192916000905b828210613719575050505090565b909192938061373360019261372d88610dbd565b15159052565b613749613741848801610dbd565b151582850152565b61376860406137598189016108d2565b6001600160a01b031690830152565b6137806060613778818901610dbd565b151590830152565b61379060806137598189016108d2565b6137a060a06137598189016108d2565b60c0808701359082015260e080870135908201526137ce6101006137c58189016112f5565b60ff1690830152565b6101208681013590820152610140808701359082015261016090810195019392019061370b565b6040809161ffff813561380781610494565b1684526020810135613818816108a5565b6001600160a01b031660208501520135910152565b60a0809161383a81610dbd565b15158452602081013561384c816108a5565b600180841b03809116602086015261ffff604083013561386b81610494565b166040860152606082013560608601526080820135613889816108a5565b1660808501520135910152565b9060606118066107239380356138ab816108a5565b6001600160a01b031684526020818101359085015260408101906136ca565b90610723908235815260208301356138e181610494565b61ffff809116602083015260408401356138fa81610494565b166040820152606083013561390e816108a5565b6001600160a01b0316606082015260c08061395e61394361393260808801886136ca565b60e0608088015260e08701916136a9565b61395060a08801886136ca565b9086830360a08801526136a9565b9401359161396b836108a5565b6001600160a01b03909216910152565b6060908181359161398b836108a5565b6001600160a01b0392831685528260208201356139a7816108a5565b1660208601528260408201356139bc816108a5565b16604086015201356139cd816108a5565b16910152565b9293613a539195929796604093613a43613a38613a2587519c8d9b8c602460209c8d630b18b9f760e31b9084015260018060a01b031691015260448d01526101646101409c8d60648201520190613896565b6023198d8203810160848f0152996138ca565b9360a48c019061397b565b868a8403016101248b01526136a9565b92868403016101448701528180865194858152019501936000915b848310613a965750505050505090611d0981613a929303601f19810183528261116b565b5050565b90919293949584610160600192858a51613ab283825115159052565b80850151151583860152808701516001600160a01b0316838801526060818101511515908401526080818101516001600160a01b03169084015260a0818101516001600160a01b03169084015260c0818101519084015260e080820151908401526101008082015160ff16908401526101208181015190840152015186820152019701959493019190613a6e565b9060a0613b9561072393613b5381610dbd565b1515845260208101356020850152613b6d60408201610dbd565b1515604085015261ffff6060820135613b8581610494565b16606085015260808101906136ca565b91909281608082015201916136a9565b6040516309be451160e01b60208201526001600160a01b039182166024820152918116604483015261ffff9092166064820152918116608483015261014060a483015290968796959490939092909190613c0490610164890190613b40565b91803560c4890152816020820135613c1b816108a5565b1660e489015260400135613c2e816108a5565b16610104870152602319938487830301610124880152613c4d926136fb565b9184830301610144850152613c61926136a9565b03601f1981018252613c73908261116b565b613a9290613f22565b60208091803584520135613c8f816108a5565b6001600160a01b0316910152565b604051630cdc41b960e11b60208201526001600160a01b039182166024820152918116604483015261ffff9092166064820152610180608482015297889796959094939092613cf1916101a48a01916136a9565b92803560a4890152602081013560c4890152816040820135613d12816108a5565b1660e489015260600135613d25816108a5565b16610104870152602319918287820301610124880152613d4491613b40565b926101448601613d5391613c7c565b84830301610184850152613c61926136fb565b601319810191908211610f2557565b605019810191908211610f2557565b15613d8b57565b60405162461bcd60e51b81526020600482015260116024820152701513d19517db185c99d957d85b5bdd5b9d607a1b6044820152606490fd5b3d15613def573d90613dd5826111ac565b91613de3604051938461116b565b82523d6000602084013e565b606090565b15613dfb57565b60405162461bcd60e51b815260206004820152600b60248201526a1513d19517d1985a5b195960aa1b6044820152606490fd5b6017546001600160a01b03168015613e9b57816000929160208493519201905af490613e58613dc4565b90821580613e93575b613e6757565b6133f2613e7383613f81565b60405162461bcd60e51b81526020600482015291829160248301906106ed565b506001613e61565b60405162461bcd60e51b815260206004820152600b60248201526a544f46545f6d6f64756c6560a81b6044820152606490fd5b6015546001600160a01b03168015613e9b57816000929160208493519201905af490613e58613dc4565b6014546001600160a01b03168015613e9b57816000929160208493519201905af490613e58613dc4565b6016546001600160a01b03168015613e9b57816000929160208493519201905af490613e58613dc4565b90929192613f59816111ac565b91613f67604051938461116b565b8294828452828201116104a05760206108c39301906106ca565b6044815110613fd2576004810151810190602081602484019303126104a0576024810151906001600160401b0382116104a0570190806043830112156104a057602482015161072392604401613f4c565b50604051613fdf81611150565b6009815268544f46545f6461746160b81b602082015290565b15613fff57565b60405162461bcd60e51b815260206004820152602660248201527f4c7a4170703a20696e76616c696420736f757263652073656e64696e6720636f6044820152651b9d1c9858dd60d21b6064820152608490fd5b6020818303126104a0578051906001600160401b0382116104a057019080601f830112156104a057815161072392602001613f4c565b60409061ffff610723959316815281602082015201916136a9565b90601f81116140b257505050565b600091825260208220906020601f850160051c830194106140ee575b601f0160051c01915b8281106140e357505050565b8181556001016140d7565b90925082906140ce565b90614121610723959361ffff6001600160401b03931684526080602085015260808401906106ed565b9316604082015260608184039101526106ed565b9290916141675a604051633356ae4560e11b602082015290614161826128b287878a8c602486016140f8565b30615755565b939015614176575b5050505050565b61417f94614189565b388080808061416f565b91936142267fe183f33de2837795525b4792ca4cd60535bd77c53b7e7030060bfcf5734d6b0c95614234939561ffff815160208301209616958660005260056020526141ed8361156060208b604060002082604051948386809551938492016106ca565b556001600160401b03614212604051988998895260a060208a015260a08901906106ed565b9216604087015285820360608701526106ed565b9083820360808501526106ed565b0390a1565b91610723959361ffff614270926001600160401b039460018060a01b0316865216602085015260a0604085015260a08401906106ed565b9316606082015260808184039101526106ed565b60409061ffff610723949316815281602082015201906106ed565b946001600160401b036142dc60a096939561ffff6142f0969b9a9b6001808b1b038099168b521660208a015260c060408a015260c08901906106ed565b9216606087015285820360808701526106ed565b9416910152565b92919061430383615708565b610302810361434d57506015546108c39490610c2990614348906001600160a01b031660405192839163e1709be960e01b60208401528888888830946024880161429f565b6145f3565b610303810361437e5750604051630d573ab360e31b60208201526108c3949061434881610c29878560248401614284565b61030881036143c657506014546108c3949081906143c1906001600160a01b0316610c2987878760405196879563bafb655d60e01b602088015260248701614239565b614595565b610307810361440e57506016546108c394908190614409906001600160a01b0316610c29878787604051968795631789153d60e31b602088015260248701614239565b6145c4565b610304810361443e575060405163163b7bd360e21b60208201526108c3949061440981610c298760248301610712565b610305810361446e575060405163462bae6560e01b60208201526108c394906143c181610c298760248301610712565b61030981036144a657506040516381618d0560e01b60208201526108c394906144a181610c2987878787602486016140f8565b61453a565b61030a036144d45760405163af2ee97560e01b60208201526108c394906144a181610c298760248301610712565b6144e66144e0846156ad565b60ff1690565b806144f7575050506108c391614b4b565b600103614507576108c393614d32565b60405162461bcd60e51b815260206004820152600b60248201526a1513d19517dc1858dad95d60aa1b6044820152606490fd5b60175491949293916001600160a01b03168015613e9b57816000929160208493519201905af492614569613dc4565b9315808061458d575b61458157614176575050505050565b6133f2613e7386613f81565b506000614572565b60145491949293916001600160a01b03168015613e9b57816000929160208493519201905af492614569613dc4565b60165491949293916001600160a01b03168015613e9b57816000929160208493519201905af492614569613dc4565b60155491949293916001600160a01b03168015613e9b57816000929160208493519201905af492614569613dc4565b6020919283604051948593843782019081520301902090565b1561464257565b60405162461bcd60e51b815260206004820152602160248201527f4e6f6e626c6f636b696e674c7a4170703a20696e76616c6964207061796c6f616044820152601960fa1b6064820152608490fd5b916146bd9060609461ffff6001600160401b0394999897991685526080602086015260808501916136a9565b951660408201520152565b903590601e19813603018212156104a057018035906001600160401b0382116104a0576020019181360383136104a057565b949195989790611b5061472360409961471b614729976147469936916111c7565b9436916111c7565b97614fd3565b928451968794859463040a7bb160e41b86523090600487016148f2565b03817f00000000000000000000000000000000000000000000000000000000000000006001600160a01b03165afa91821561089c57600090819361478957509190565b905061053391925060403d8111610ec757610eb8818361116b565b939694916147d29061072399979461ffff6001600160401b039416875260c0602088015260c08701916136a9565b961660408401526060830152608082015260a08185039101526136a9565b919697929895949390943033036148975761480c9085306153d1565b60405181815290946001600160a01b03169390849061ffff8516907fbf551ec93859b170f9b2141bd9298bf3f64322c6f7beb2543a0cb669834118bf90602090a3833b156104a057600098899561487a936040519c8d9b8c9a8b98633fe79aed60e11b8a5260048a016147a4565b0393f1801561089c5761488a5750565b806126426108c392611101565b60405162461bcd60e51b815260206004820152601f60248201527f4f4654436f72653a2063616c6c6572206d757374206265204f4654436f7265006044820152606490fd5b91908260409103126104a0576020825192015190565b9192610723959361ffff6149219316845260018060a01b0316602084015260a0604084015260a08301906106ed565b921515606082015260808184039101526106ed565b1561493d57565b60405162461bcd60e51b815260206004820152601960248201527813d19510dbdc994e88185b5bdd5b9d081d1bdbc81cdb585b1b603a1b6044820152606490fd5b926149a361072397959361ffff6149b19416865260c0602087015260c08601906106ed565b9084820360408601526106ed565b6001600160a01b0391821660608401529316608082015280830360a0909101526106ed565b946149ff9193929561ffff81166000526001602052614a066040600020604051948580926118f7565b038461116b565b825115614a7e57614a18855182614adc565b7f00000000000000000000000000000000000000000000000000000000000000006001600160a01b031693843b156104a057600096614a6d91604051998a988997889662c5803160e81b88526004880161497e565b03925af1801561089c5761488a5750565b60405162461bcd60e51b815260206004820152603060248201527f4c7a4170703a2064657374696e6174696f6e20636861696e206973206e6f742060448201526f61207472757374656420736f7572636560801b6064820152608490fd5b61ffff166000526003602052604060002054908115614b41575b11614afd57565b606460405162461bcd60e51b815260206004820152602060248201527f4c7a4170703a207061796c6f61642073697a6520697320746f6f206c617267656044820152fd5b6127109150614af6565b9060ff614b57826156ad565b161580614c99575b614b68906150b8565b614b7a614b748261565d565b916156f8565b90916001600160a01b039182841615614c8f575b614ba9906001600160401b03614ba2615408565b9116615041565b918316928315614c4a577fbf551ec93859b170f9b2141bd9298bf3f64322c6f7beb2543a0cb669834118bf91614c0a61ffff92614bf0614beb87600a54612f82565b600a55565b6001600160a01b0316600090815260086020526040902090565b8481540190558460006000805160206157c183398151915260405180614c3589829190602083019252565b0390a3604051938452169180602081016130f2565b60405162461bcd60e51b815260206004820152601f60248201527f45524332303a206d696e7420746f20746865207a65726f2061646472657373006044820152606490fd5b61dead9350614b8e565b508051602914614b5f565b98979692936001600160401b03614cd660e0989461ffff614d029995168d5260208d61010091829101528d01906106ed565b951660408b015260608a01526001600160a01b0316608089015260a088015286820360c08801526106ed565b930152565b6001600160401b03614d27604093969594966060845260608401906106ed565b951660208201520152565b9091614d3d8461516c565b9091614d6e614d678761273f614d618b61ffff166000526007602052604060002090565b8c6114fd565b5460ff1690565b91614d8a614d7a615408565b6001600160401b03809416615041565b9288888b8315614e86575b505050853b15614e3b5794614ddc9694614161948a946128b2948d99600014614e345750505a925b5a978b6040519a8b9863757fea4d60e11b60208b015260248a01614ca4565b9015614e29575090614e2461ffff928560207fb8890edbfc1c74692f527444645f95489c3703cc2df42e4a366f5d06fa6cd88496975191012090604051948594169684614d07565b0390a2565b926108c39492614189565b1692614dbd565b50506040516001600160a01b039094168452507f9aedf5fdba8716db3b6705ca00150643309995d4f818a249ed6dde6677e7792d975091955085945050602084019250614234915050565b9061273f614ebb92614eb589614ea0614ec8979b3061536e565b9961ffff166000526007602052604060002090565b906114fd565b805460ff19166001179055565b88888b614d95565b60065460ff1615614f1d576022825110611b575761ffff60226108c393015191166000526002602052614f10604060002060008052602052604060002090565b5490611b1e821515614f25565b5051611bc957565b15614f2c57565b60405162461bcd60e51b815260206004820152601a60248201527f4c7a4170703a206d696e4761734c696d6974206e6f74207365740000000000006044820152606490fd5b15614f7857565b60405162461bcd60e51b815260206004820152601b60248201527f4c7a4170703a20676173206c696d697420697320746f6f206c6f7700000000006044820152606490fd5b634e487b7160e01b600052601260045260246000fd5b614fdb615408565b90811561503c57046001600160401b0390818111614ff7571690565b60405162461bcd60e51b815260206004820152601a60248201527f4f4654436f72653a20616d6f756e745344206f766572666c6f770000000000006044820152606490fd5b614fbd565b81810292918115918404141715610f2557565b61505c615408565b801561503c57810690818103908111610f255791565b90604051916000602084015260218301526001600160401b0360c01b9060c01b16604182015260298152606081018181106001600160401b038211176111145760405290565b156150bf57565b60405162461bcd60e51b815260206004820152601860248201527713d19510dbdc994e881a5b9d985b1a59081c185e5b1bd85960421b6044820152606490fd5b939260719261072394604051968794600160f81b602087015260218601526001600160401b0360c01b809360c01b16604186015260018060a01b0316604985015260c01b16606983015261515c81518092602086860191016106ca565b810103605181018452018261116b565b90615184600160ff61517d856156ad565b16146150b8565b61518d8261565d565b90615197836156f8565b9060498451106152085760498401519360518151106151cc576151c96051820151916151c38151613d75565b906155d9565b91565b60405162461bcd60e51b8152602060048201526014602482015273746f55696e7436345f6f75744f66426f756e647360601b6044820152606490fd5b60405162461bcd60e51b8152602060048201526015602482015274746f427974657333325f6f75744f66426f756e647360581b6044820152606490fd5b6001600160a01b038116338103615307575b80156152b8578161528d8461528060009560018060a01b03166000526008602052604060002090565b546130a782821015615317565b5561529b83600a5403600a55565b6040518381526000805160206157c183398151915290602090a390565b60405162461bcd60e51b815260206004820152602160248201527f45524332303a206275726e2066726f6d20746865207a65726f206164647265736044820152607360f81b6064820152608490fd5b615312833384613275565b615257565b1561531e57565b60405162461bcd60e51b815260206004820152602260248201527f45524332303a206275726e20616d6f756e7420657863656564732062616c616e604482015261636560f01b6064820152608490fd5b6001600160a01b03811691908215614c4a57600a5490828201809211610f25576000926153c26020926000805160206157c183398151915294600a5560018060a01b03166000526008602052604060002090565b818154019055604051908152a3565b6107239183916001600160a01b0381163081141590816153fd575b501561304257610d51833383613275565b9050331415386153ec565b6040516303408e4760e41b81526020816004817f00000000000000000000000000000000000000000000000000000000000000006001600160a01b03165afa801561089c576000906154a0575b61ffff915016600052600d602052615473604060002060ff90541690565b61547c57600190565b7f000000000000000000000000000000000000000000000000000000000000000090565b6020823d82116154d4575b816154b86020938361116b565b81010312610803575061ffff90516154cf81610494565b615455565b3d91506154ab565b156154e357565b60405162461bcd60e51b815260206004820152600e60248201526d736c6963655f6f766572666c6f7760901b6044820152606490fd5b1561552057565b60405162461bcd60e51b8152602060048201526011602482015270736c6963655f6f75744f66426f756e647360781b6044820152606490fd5b61556d8261556681612f66565b10156154dc565b61557a8282511015615519565b81615592575050604051600081526020810160405290565b60405191601f811691821560051b808486010193838501920101905b8084106155c65750508252601f01601f191660405290565b90928351815260208091019301906155ae565b6155e68261556681612f66565b6155fb81516155f484612f74565b1115615519565b81615613575050604051600081526020810160405290565b60405191601f8116916051831560051b80858701019484860193010101905b80841061564a5750508252601f01601f191660405290565b9092835181526020809101930190615632565b602181511061567057602d015160601c90565b60405162461bcd60e51b8152602060048201526015602482015274746f416464726573735f6f75744f66426f756e647360581b6044820152606490fd5b60018151106156bd576001015190565b60405162461bcd60e51b8152602060048201526013602482015272746f55696e74385f6f75744f66426f756e647360681b6044820152606490fd5b60298151106151cc576029015190565b6020815110615718576020015190565b60405162461bcd60e51b8152602060048201526015602482015274746f55696e743235365f6f75744f66426f756e647360581b6044820152606490fd5b909291600080916040519561576987611135565b6096875282602088019560a036883760208451940192f1903d9060968211615797575b6000908286523e9190565b6096915061578c56fed81fc9b8523134ed613870ed029d6170cbb73aa6a6bc311b9a642689fb9df59addf252ad1be2c89b69c2b068fc378daa952ba7f163c4a11628f55a4df523b3efa2646970667358221220c62f72c82e761d657b4d2652965ff57ab3a27eb04a7a5e1ccf84da3a98d2d1c364736f6c63430008120033",
  "linkReferences": {},
  "deployedLinkReferences": {}
}