{
  "_format": "hh-sol-artifact-1",
  "contractName": "BaseTOFTLeverageDestinationModule",
  "sourceName": "contracts/tOFT/modules/BaseTOFTLeverageDestinationModule.sol",
  "abi": [
    {
      "inputs": [
        {
          "internalType": "address",
          "name": "_lzEndpoint",
          "type": "address"
        },
        {
          "internalType": "address",
          "name": "_erc20",
          "type": "address"
        },
        {
          "internalType": "contract IYieldBoxBase",
          "name": "_yieldBox",
          "type": "address"
        },
        {
          "internalType": "contract ICluster",
          "name": "_cluster",
          "type": "address"
        },
        {
          "internalType": "string",
          "name": "_name",
          "type": "string"
        },
        {
          "internalType": "string",
          "name": "_symbol",
          "type": "string"
        },
        {
          "internalType": "uint8",
          "name": "_decimal",
          "type": "uint8"
        },
        {
          "internalType": "uint256",
          "name": "_hostChainID",
          "type": "uint256"
        }
      ],
      "stateMutability": "nonpayable",
      "type": "constructor"
    },
    {
      "inputs": [],
      "name": "ActionTypeNotValid",
      "type": "error"
    },
    {
      "inputs": [],
      "name": "ModuleNotAuthorized",
      "type": "error"
    },
    {
      "inputs": [
        {
          "internalType": "address",
          "name": "invalidAddress",
          "type": "address"
        }
      ],
      "name": "NotAuthorized",
      "type": "error"
    },
    {
      "inputs": [],
      "name": "NotValid",
      "type": "error"
    },
    {
      "anonymous": false,
      "inputs": [
        {
          "indexed": true,
          "internalType": "address",
          "name": "owner",
          "type": "address"
        },
        {
          "indexed": true,
          "internalType": "address",
          "name": "spender",
          "type": "address"
        },
        {
          "indexed": false,
          "internalType": "uint256",
          "name": "value",
          "type": "uint256"
        }
      ],
      "name": "Approval",
      "type": "event"
    },
    {
      "anonymous": false,
      "inputs": [
        {
          "indexed": true,
          "internalType": "uint16",
          "name": "_srcChainId",
          "type": "uint16"
        },
        {
          "indexed": false,
          "internalType": "bytes",
          "name": "_srcAddress",
          "type": "bytes"
        },
        {
          "indexed": false,
          "internalType": "uint64",
          "name": "_nonce",
          "type": "uint64"
        },
        {
          "indexed": false,
          "internalType": "bytes32",
          "name": "_hash",
          "type": "bytes32"
        }
      ],
      "name": "CallOFTReceivedSuccess",
      "type": "event"
    },
    {
      "anonymous": false,
      "inputs": [
        {
          "indexed": true,
          "internalType": "uint256",
          "name": "_old",
          "type": "uint256"
        },
        {
          "indexed": true,
          "internalType": "uint256",
          "name": "_newVal",
          "type": "uint256"
        }
      ],
      "name": "MaxSlippageUpdated",
      "type": "event"
    },
    {
      "anonymous": false,
      "inputs": [
        {
          "indexed": false,
          "internalType": "uint16",
          "name": "_srcChainId",
          "type": "uint16"
        },
        {
          "indexed": false,
          "internalType": "bytes",
          "name": "_srcAddress",
          "type": "bytes"
        },
        {
          "indexed": false,
          "internalType": "uint64",
          "name": "_nonce",
          "type": "uint64"
        },
        {
          "indexed": false,
          "internalType": "bytes",
          "name": "_payload",
          "type": "bytes"
        },
        {
          "indexed": false,
          "internalType": "bytes",
          "name": "_reason",
          "type": "bytes"
        }
      ],
      "name": "MessageFailed",
      "type": "event"
    },
    {
      "anonymous": false,
      "inputs": [
        {
          "indexed": false,
          "internalType": "address",
          "name": "_address",
          "type": "address"
        }
      ],
      "name": "NonContractAddress",
      "type": "event"
    },
    {
      "anonymous": false,
      "inputs": [
        {
          "indexed": true,
          "internalType": "address",
          "name": "previousOwner",
          "type": "address"
        },
        {
          "indexed": true,
          "internalType": "address",
          "name": "newOwner",
          "type": "address"
        }
      ],
      "name": "OwnershipTransferred",
      "type": "event"
    },
    {
      "anonymous": false,
      "inputs": [
        {
          "indexed": true,
          "internalType": "uint16",
          "name": "_srcChainId",
          "type": "uint16"
        },
        {
          "indexed": true,
          "internalType": "address",
          "name": "_to",
          "type": "address"
        },
        {
          "indexed": false,
          "internalType": "uint256",
          "name": "_amount",
          "type": "uint256"
        }
      ],
      "name": "ReceiveFromChain",
      "type": "event"
    },
    {
      "anonymous": false,
      "inputs": [
        {
          "indexed": false,
          "internalType": "uint16",
          "name": "_srcChainId",
          "type": "uint16"
        },
        {
          "indexed": false,
          "internalType": "bytes",
          "name": "_srcAddress",
          "type": "bytes"
        },
        {
          "indexed": false,
          "internalType": "uint64",
          "name": "_nonce",
          "type": "uint64"
        },
        {
          "indexed": false,
          "internalType": "bytes32",
          "name": "_payloadHash",
          "type": "bytes32"
        }
      ],
      "name": "RetryMessageSuccess",
      "type": "event"
    },
    {
      "anonymous": false,
      "inputs": [
        {
          "indexed": true,
          "internalType": "uint16",
          "name": "_dstChainId",
          "type": "uint16"
        },
        {
          "indexed": true,
          "internalType": "address",
          "name": "_from",
          "type": "address"
        },
        {
          "indexed": true,
          "internalType": "bytes32",
          "name": "_toAddress",
          "type": "bytes32"
        },
        {
          "indexed": false,
          "internalType": "uint256",
          "name": "_amount",
          "type": "uint256"
        }
      ],
      "name": "SendToChain",
      "type": "event"
    },
    {
      "anonymous": false,
      "inputs": [
        {
          "indexed": false,
          "internalType": "uint16",
          "name": "_dstChainId",
          "type": "uint16"
        },
        {
          "indexed": false,
          "internalType": "uint16",
          "name": "_type",
          "type": "uint16"
        },
        {
          "indexed": false,
          "internalType": "uint256",
          "name": "_minDstGas",
          "type": "uint256"
        }
      ],
      "name": "SetMinDstGas",
      "type": "event"
    },
    {
      "anonymous": false,
      "inputs": [
        {
          "indexed": false,
          "internalType": "address",
          "name": "precrime",
          "type": "address"
        }
      ],
      "name": "SetPrecrime",
      "type": "event"
    },
    {
      "anonymous": false,
      "inputs": [
        {
          "indexed": false,
          "internalType": "uint16",
          "name": "_remoteChainId",
          "type": "uint16"
        },
        {
          "indexed": false,
          "internalType": "bytes",
          "name": "_path",
          "type": "bytes"
        }
      ],
      "name": "SetTrustedRemote",
      "type": "event"
    },
    {
      "anonymous": false,
      "inputs": [
        {
          "indexed": false,
          "internalType": "uint16",
          "name": "_remoteChainId",
          "type": "uint16"
        },
        {
          "indexed": false,
          "internalType": "bytes",
          "name": "_remoteAddress",
          "type": "bytes"
        }
      ],
      "name": "SetTrustedRemoteAddress",
      "type": "event"
    },
    {
      "anonymous": false,
      "inputs": [
        {
          "indexed": false,
          "internalType": "bool",
          "name": "_useCustomAdapterParams",
          "type": "bool"
        }
      ],
      "name": "SetUseCustomAdapterParams",
      "type": "event"
    },
    {
      "anonymous": false,
      "inputs": [
        {
          "indexed": true,
          "internalType": "address",
          "name": "_old",
          "type": "address"
        },
        {
          "indexed": true,
          "internalType": "address",
          "name": "_new",
          "type": "address"
        }
      ],
      "name": "StargateRouterUpdated",
      "type": "event"
    },
    {
      "anonymous": false,
      "inputs": [
        {
          "indexed": true,
          "internalType": "address",
          "name": "from",
          "type": "address"
        },
        {
          "indexed": true,
          "internalType": "address",
          "name": "to",
          "type": "address"
        },
        {
          "indexed": false,
          "internalType": "uint256",
          "name": "value",
          "type": "uint256"
        }
      ],
      "name": "Transfer",
      "type": "event"
    },
    {
      "inputs": [],
      "name": "DEFAULT_PAYLOAD_SIZE_LIMIT",
      "outputs": [
        {
          "internalType": "uint256",
          "name": "",
          "type": "uint256"
        }
      ],
      "stateMutability": "view",
      "type": "function"
    },
    {
      "inputs": [],
      "name": "NO_EXTRA_GAS",
      "outputs": [
        {
          "internalType": "uint256",
          "name": "",
          "type": "uint256"
        }
      ],
      "stateMutability": "view",
      "type": "function"
    },
    {
      "inputs": [],
      "name": "PT_SEND",
      "outputs": [
        {
          "internalType": "uint8",
          "name": "",
          "type": "uint8"
        }
      ],
      "stateMutability": "view",
      "type": "function"
    },
    {
      "inputs": [],
      "name": "PT_SEND_AND_CALL",
      "outputs": [
        {
          "internalType": "uint8",
          "name": "",
          "type": "uint8"
        }
      ],
      "stateMutability": "view",
      "type": "function"
    },
    {
      "inputs": [
        {
          "internalType": "address",
          "name": "owner",
          "type": "address"
        },
        {
          "internalType": "address",
          "name": "spender",
          "type": "address"
        }
      ],
      "name": "allowance",
      "outputs": [
        {
          "internalType": "uint256",
          "name": "",
          "type": "uint256"
        }
      ],
      "stateMutability": "view",
      "type": "function"
    },
    {
      "inputs": [
        {
          "internalType": "address",
          "name": "spender",
          "type": "address"
        },
        {
          "internalType": "uint256",
          "name": "amount",
          "type": "uint256"
        }
      ],
      "name": "approve",
      "outputs": [
        {
          "internalType": "bool",
          "name": "",
          "type": "bool"
        }
      ],
      "stateMutability": "nonpayable",
      "type": "function"
    },
    {
      "inputs": [
        {
          "internalType": "address",
          "name": "account",
          "type": "address"
        }
      ],
      "name": "balanceOf",
      "outputs": [
        {
          "internalType": "uint256",
          "name": "",
          "type": "uint256"
        }
      ],
      "stateMutability": "view",
      "type": "function"
    },
    {
      "inputs": [
        {
          "internalType": "uint16",
          "name": "_srcChainId",
          "type": "uint16"
        },
        {
          "internalType": "bytes",
          "name": "_srcAddress",
          "type": "bytes"
        },
        {
          "internalType": "uint64",
          "name": "_nonce",
          "type": "uint64"
        },
        {
          "internalType": "bytes32",
          "name": "_from",
          "type": "bytes32"
        },
        {
          "internalType": "address",
          "name": "_to",
          "type": "address"
        },
        {
          "internalType": "uint256",
          "name": "_amount",
          "type": "uint256"
        },
        {
          "internalType": "bytes",
          "name": "_payload",
          "type": "bytes"
        },
        {
          "internalType": "uint256",
          "name": "_gasForCall",
          "type": "uint256"
        }
      ],
      "name": "callOnOFTReceived",
      "outputs": [],
      "stateMutability": "nonpayable",
      "type": "function"
    },
    {
      "inputs": [],
      "name": "circulatingSupply",
      "outputs": [
        {
          "internalType": "uint256",
          "name": "",
          "type": "uint256"
        }
      ],
      "stateMutability": "view",
      "type": "function"
    },
    {
      "inputs": [],
      "name": "cluster",
      "outputs": [
        {
          "internalType": "contract ICluster",
          "name": "",
          "type": "address"
        }
      ],
      "stateMutability": "view",
      "type": "function"
    },
    {
      "inputs": [
        {
          "internalType": "uint16",
          "name": "",
          "type": "uint16"
        },
        {
          "internalType": "bytes",
          "name": "",
          "type": "bytes"
        },
        {
          "internalType": "uint64",
          "name": "",
          "type": "uint64"
        }
      ],
      "name": "creditedPackets",
      "outputs": [
        {
          "internalType": "bool",
          "name": "",
          "type": "bool"
        }
      ],
      "stateMutability": "view",
      "type": "function"
    },
    {
      "inputs": [],
      "name": "decimals",
      "outputs": [
        {
          "internalType": "uint8",
          "name": "",
          "type": "uint8"
        }
      ],
      "stateMutability": "view",
      "type": "function"
    },
    {
      "inputs": [
        {
          "internalType": "address",
          "name": "spender",
          "type": "address"
        },
        {
          "internalType": "uint256",
          "name": "subtractedValue",
          "type": "uint256"
        }
      ],
      "name": "decreaseAllowance",
      "outputs": [
        {
          "internalType": "bool",
          "name": "",
          "type": "bool"
        }
      ],
      "stateMutability": "nonpayable",
      "type": "function"
    },
    {
      "inputs": [],
      "name": "erc20",
      "outputs": [
        {
          "internalType": "address",
          "name": "",
          "type": "address"
        }
      ],
      "stateMutability": "view",
      "type": "function"
    },
    {
      "inputs": [
        {
          "internalType": "uint16",
          "name": "_dstChainId",
          "type": "uint16"
        },
        {
          "internalType": "bytes32",
          "name": "_toAddress",
          "type": "bytes32"
        },
        {
          "internalType": "uint256",
          "name": "_amount",
          "type": "uint256"
        },
        {
          "internalType": "bytes",
          "name": "_payload",
          "type": "bytes"
        },
        {
          "internalType": "uint64",
          "name": "_dstGasForCall",
          "type": "uint64"
        },
        {
          "internalType": "bool",
          "name": "_useZro",
          "type": "bool"
        },
        {
          "internalType": "bytes",
          "name": "_adapterParams",
          "type": "bytes"
        }
      ],
      "name": "estimateSendAndCallFee",
      "outputs": [
        {
          "internalType": "uint256",
          "name": "nativeFee",
          "type": "uint256"
        },
        {
          "internalType": "uint256",
          "name": "zroFee",
          "type": "uint256"
        }
      ],
      "stateMutability": "view",
      "type": "function"
    },
    {
      "inputs": [
        {
          "internalType": "uint16",
          "name": "_dstChainId",
          "type": "uint16"
        },
        {
          "internalType": "bytes32",
          "name": "_toAddress",
          "type": "bytes32"
        },
        {
          "internalType": "uint256",
          "name": "_amount",
          "type": "uint256"
        },
        {
          "internalType": "bool",
          "name": "_useZro",
          "type": "bool"
        },
        {
          "internalType": "bytes",
          "name": "_adapterParams",
          "type": "bytes"
        }
      ],
      "name": "estimateSendFee",
      "outputs": [
        {
          "internalType": "uint256",
          "name": "nativeFee",
          "type": "uint256"
        },
        {
          "internalType": "uint256",
          "name": "zroFee",
          "type": "uint256"
        }
      ],
      "stateMutability": "view",
      "type": "function"
    },
    {
      "inputs": [
        {
          "internalType": "uint16",
          "name": "",
          "type": "uint16"
        },
        {
          "internalType": "bytes",
          "name": "",
          "type": "bytes"
        },
        {
          "internalType": "uint64",
          "name": "",
          "type": "uint64"
        }
      ],
      "name": "failedMessages",
      "outputs": [
        {
          "internalType": "bytes32",
          "name": "",
          "type": "bytes32"
        }
      ],
      "stateMutability": "view",
      "type": "function"
    },
    {
      "inputs": [
        {
          "internalType": "uint16",
          "name": "_srcChainId",
          "type": "uint16"
        },
        {
          "internalType": "bytes",
          "name": "_srcAddress",
          "type": "bytes"
        }
      ],
      "name": "forceResumeReceive",
      "outputs": [],
      "stateMutability": "nonpayable",
      "type": "function"
    },
    {
      "inputs": [
        {
          "internalType": "uint16",
          "name": "_version",
          "type": "uint16"
        },
        {
          "internalType": "uint16",
          "name": "_chainId",
          "type": "uint16"
        },
        {
          "internalType": "address",
          "name": "",
          "type": "address"
        },
        {
          "internalType": "uint256",
          "name": "_configType",
          "type": "uint256"
        }
      ],
      "name": "getConfig",
      "outputs": [
        {
          "internalType": "bytes",
          "name": "",
          "type": "bytes"
        }
      ],
      "stateMutability": "view",
      "type": "function"
    },
    {
      "inputs": [
        {
          "internalType": "uint16",
          "name": "_remoteChainId",
          "type": "uint16"
        }
      ],
      "name": "getTrustedRemoteAddress",
      "outputs": [
        {
          "internalType": "bytes",
          "name": "",
          "type": "bytes"
        }
      ],
      "stateMutability": "view",
      "type": "function"
    },
    {
      "inputs": [],
      "name": "hostChainID",
      "outputs": [
        {
          "internalType": "uint256",
          "name": "",
          "type": "uint256"
        }
      ],
      "stateMutability": "view",
      "type": "function"
    },
    {
      "inputs": [
        {
          "internalType": "address",
          "name": "spender",
          "type": "address"
        },
        {
          "internalType": "uint256",
          "name": "addedValue",
          "type": "uint256"
        }
      ],
      "name": "increaseAllowance",
      "outputs": [
        {
          "internalType": "bool",
          "name": "",
          "type": "bool"
        }
      ],
      "stateMutability": "nonpayable",
      "type": "function"
    },
    {
      "inputs": [
        {
          "internalType": "uint16",
          "name": "_srcChainId",
          "type": "uint16"
        },
        {
          "internalType": "bytes",
          "name": "_srcAddress",
          "type": "bytes"
        }
      ],
      "name": "isTrustedRemote",
      "outputs": [
        {
          "internalType": "bool",
          "name": "",
          "type": "bool"
        }
      ],
      "stateMutability": "view",
      "type": "function"
    },
    {
      "inputs": [
        {
          "internalType": "address",
          "name": "module",
          "type": "address"
        },
        {
          "internalType": "uint16",
          "name": "_srcChainId",
          "type": "uint16"
        },
        {
          "internalType": "bytes",
          "name": "_srcAddress",
          "type": "bytes"
        },
        {
          "internalType": "uint64",
          "name": "_nonce",
          "type": "uint64"
        },
        {
          "internalType": "bytes",
          "name": "_payload",
          "type": "bytes"
        }
      ],
      "name": "leverageDown",
      "outputs": [],
      "stateMutability": "nonpayable",
      "type": "function"
    },
    {
      "inputs": [
        {
          "internalType": "address",
          "name": "module",
          "type": "address"
        },
        {
          "internalType": "uint256",
          "name": "amount",
          "type": "uint256"
        },
        {
          "components": [
            {
              "internalType": "address",
              "name": "tokenOut",
              "type": "address"
            },
            {
              "internalType": "uint256",
              "name": "amountOutMin",
              "type": "uint256"
            },
            {
              "internalType": "bytes",
              "name": "data",
              "type": "bytes"
            }
          ],
          "internalType": "struct IUSDOBase.ILeverageSwapData",
          "name": "swapData",
          "type": "tuple"
        },
        {
          "components": [
            {
              "internalType": "address",
              "name": "swapper",
              "type": "address"
            },
            {
              "internalType": "address",
              "name": "magnetar",
              "type": "address"
            },
            {
              "internalType": "address",
              "name": "tOft",
              "type": "address"
            },
            {
              "internalType": "address",
              "name": "srcMarket",
              "type": "address"
            }
          ],
          "internalType": "struct IUSDOBase.ILeverageExternalContractsData",
          "name": "externalData",
          "type": "tuple"
        },
        {
          "components": [
            {
              "internalType": "uint256",
              "name": "srcExtraGasLimit",
              "type": "uint256"
            },
            {
              "internalType": "uint16",
              "name": "lzSrcChainId",
              "type": "uint16"
            },
            {
              "internalType": "uint16",
              "name": "lzDstChainId",
              "type": "uint16"
            },
            {
              "internalType": "address",
              "name": "zroPaymentAddress",
              "type": "address"
            },
            {
              "internalType": "bytes",
              "name": "dstAirdropAdapterParam",
              "type": "bytes"
            },
            {
              "internalType": "bytes",
              "name": "srcAirdropAdapterParam",
              "type": "bytes"
            },
            {
              "internalType": "address",
              "name": "refundAddress",
              "type": "address"
            }
          ],
          "internalType": "struct IUSDOBase.ILeverageLZData",
          "name": "lzData",
          "type": "tuple"
        },
        {
          "internalType": "address",
          "name": "leverageFor",
          "type": "address"
        },
        {
          "internalType": "uint256",
          "name": "airdropAmount",
          "type": "uint256"
        }
      ],
      "name": "leverageDownInternal",
      "outputs": [],
      "stateMutability": "payable",
      "type": "function"
    },
    {
      "inputs": [],
      "name": "lzEndpoint",
      "outputs": [
        {
          "internalType": "contract ILayerZeroEndpoint",
          "name": "",
          "type": "address"
        }
      ],
      "stateMutability": "view",
      "type": "function"
    },
    {
      "inputs": [
        {
          "internalType": "uint16",
          "name": "_srcChainId",
          "type": "uint16"
        },
        {
          "internalType": "bytes",
          "name": "_srcAddress",
          "type": "bytes"
        },
        {
          "internalType": "uint64",
          "name": "_nonce",
          "type": "uint64"
        },
        {
          "internalType": "bytes",
          "name": "_payload",
          "type": "bytes"
        }
      ],
      "name": "lzReceive",
      "outputs": [],
      "stateMutability": "nonpayable",
      "type": "function"
    },
    {
      "inputs": [
        {
          "internalType": "uint16",
          "name": "",
          "type": "uint16"
        },
        {
          "internalType": "uint16",
          "name": "",
          "type": "uint16"
        }
      ],
      "name": "minDstGasLookup",
      "outputs": [
        {
          "internalType": "uint256",
          "name": "",
          "type": "uint256"
        }
      ],
      "stateMutability": "view",
      "type": "function"
    },
    {
      "inputs": [],
      "name": "name",
      "outputs": [
        {
          "internalType": "string",
          "name": "",
          "type": "string"
        }
      ],
      "stateMutability": "view",
      "type": "function"
    },
    {
      "inputs": [
        {
          "internalType": "uint16",
          "name": "_srcChainId",
          "type": "uint16"
        },
        {
          "internalType": "bytes",
          "name": "_srcAddress",
          "type": "bytes"
        },
        {
          "internalType": "uint64",
          "name": "_nonce",
          "type": "uint64"
        },
        {
          "internalType": "bytes",
          "name": "_payload",
          "type": "bytes"
        }
      ],
      "name": "nonblockingLzReceive",
      "outputs": [],
      "stateMutability": "nonpayable",
      "type": "function"
    },
    {
      "inputs": [],
      "name": "owner",
      "outputs": [
        {
          "internalType": "address",
          "name": "",
          "type": "address"
        }
      ],
      "stateMutability": "view",
      "type": "function"
    },
    {
      "inputs": [
        {
          "internalType": "uint16",
          "name": "",
          "type": "uint16"
        }
      ],
      "name": "payloadSizeLimitLookup",
      "outputs": [
        {
          "internalType": "uint256",
          "name": "",
          "type": "uint256"
        }
      ],
      "stateMutability": "view",
      "type": "function"
    },
    {
      "inputs": [],
      "name": "precrime",
      "outputs": [
        {
          "internalType": "address",
          "name": "",
          "type": "address"
        }
      ],
      "stateMutability": "view",
      "type": "function"
    },
    {
      "inputs": [],
      "name": "renounceOwnership",
      "outputs": [],
      "stateMutability": "nonpayable",
      "type": "function"
    },
    {
      "inputs": [
        {
          "internalType": "uint16",
          "name": "_srcChainId",
          "type": "uint16"
        },
        {
          "internalType": "bytes",
          "name": "_srcAddress",
          "type": "bytes"
        },
        {
          "internalType": "uint64",
          "name": "_nonce",
          "type": "uint64"
        },
        {
          "internalType": "bytes",
          "name": "_payload",
          "type": "bytes"
        }
      ],
      "name": "retryMessage",
      "outputs": [],
      "stateMutability": "payable",
      "type": "function"
    },
    {
      "inputs": [
        {
          "internalType": "address",
          "name": "_from",
          "type": "address"
        },
        {
          "internalType": "uint16",
          "name": "_dstChainId",
          "type": "uint16"
        },
        {
          "internalType": "bytes32",
          "name": "_toAddress",
          "type": "bytes32"
        },
        {
          "internalType": "uint256",
          "name": "_amount",
          "type": "uint256"
        },
        {
          "internalType": "bytes",
          "name": "_payload",
          "type": "bytes"
        },
        {
          "internalType": "uint64",
          "name": "_dstGasForCall",
          "type": "uint64"
        },
        {
          "components": [
            {
              "internalType": "address payable",
              "name": "refundAddress",
              "type": "address"
            },
            {
              "internalType": "address",
              "name": "zroPaymentAddress",
              "type": "address"
            },
            {
              "internalType": "bytes",
              "name": "adapterParams",
              "type": "bytes"
            }
          ],
          "internalType": "struct ICommonOFT.LzCallParams",
          "name": "_callParams",
          "type": "tuple"
        }
      ],
      "name": "sendAndCall",
      "outputs": [],
      "stateMutability": "payable",
      "type": "function"
    },
    {
      "inputs": [
        {
          "internalType": "address",
          "name": "_from",
          "type": "address"
        },
        {
          "internalType": "uint16",
          "name": "_dstChainId",
          "type": "uint16"
        },
        {
          "internalType": "bytes32",
          "name": "_toAddress",
          "type": "bytes32"
        },
        {
          "internalType": "uint256",
          "name": "_amount",
          "type": "uint256"
        },
        {
          "components": [
            {
              "internalType": "address payable",
              "name": "refundAddress",
              "type": "address"
            },
            {
              "internalType": "address",
              "name": "zroPaymentAddress",
              "type": "address"
            },
            {
              "internalType": "bytes",
              "name": "adapterParams",
              "type": "bytes"
            }
          ],
          "internalType": "struct ICommonOFT.LzCallParams",
          "name": "_callParams",
          "type": "tuple"
        }
      ],
      "name": "sendFrom",
      "outputs": [],
      "stateMutability": "payable",
      "type": "function"
    },
    {
      "inputs": [
        {
          "internalType": "uint16",
          "name": "_version",
          "type": "uint16"
        },
        {
          "internalType": "uint16",
          "name": "_chainId",
          "type": "uint16"
        },
        {
          "internalType": "uint256",
          "name": "_configType",
          "type": "uint256"
        },
        {
          "internalType": "bytes",
          "name": "_config",
          "type": "bytes"
        }
      ],
      "name": "setConfig",
      "outputs": [],
      "stateMutability": "nonpayable",
      "type": "function"
    },
    {
      "inputs": [
        {
          "internalType": "uint16",
          "name": "_dstChainId",
          "type": "uint16"
        },
        {
          "internalType": "uint16",
          "name": "_packetType",
          "type": "uint16"
        },
        {
          "internalType": "uint256",
          "name": "_minGas",
          "type": "uint256"
        }
      ],
      "name": "setMinDstGas",
      "outputs": [],
      "stateMutability": "nonpayable",
      "type": "function"
    },
    {
      "inputs": [
        {
          "internalType": "uint16",
          "name": "_dstChainId",
          "type": "uint16"
        },
        {
          "internalType": "uint256",
          "name": "_size",
          "type": "uint256"
        }
      ],
      "name": "setPayloadSizeLimit",
      "outputs": [],
      "stateMutability": "nonpayable",
      "type": "function"
    },
    {
      "inputs": [
        {
          "internalType": "address",
          "name": "_precrime",
          "type": "address"
        }
      ],
      "name": "setPrecrime",
      "outputs": [],
      "stateMutability": "nonpayable",
      "type": "function"
    },
    {
      "inputs": [
        {
          "internalType": "uint16",
          "name": "_version",
          "type": "uint16"
        }
      ],
      "name": "setReceiveVersion",
      "outputs": [],
      "stateMutability": "nonpayable",
      "type": "function"
    },
    {
      "inputs": [
        {
          "internalType": "uint16",
          "name": "_version",
          "type": "uint16"
        }
      ],
      "name": "setSendVersion",
      "outputs": [],
      "stateMutability": "nonpayable",
      "type": "function"
    },
    {
      "inputs": [
        {
          "internalType": "uint16",
          "name": "_srcChainId",
          "type": "uint16"
        },
        {
          "internalType": "bytes",
          "name": "_path",
          "type": "bytes"
        }
      ],
      "name": "setTrustedRemote",
      "outputs": [],
      "stateMutability": "nonpayable",
      "type": "function"
    },
    {
      "inputs": [
        {
          "internalType": "uint16",
          "name": "_remoteChainId",
          "type": "uint16"
        },
        {
          "internalType": "bytes",
          "name": "_remoteAddress",
          "type": "bytes"
        }
      ],
      "name": "setTrustedRemoteAddress",
      "outputs": [],
      "stateMutability": "nonpayable",
      "type": "function"
    },
    {
      "inputs": [
        {
          "internalType": "bool",
          "name": "_useCustomAdapterParams",
          "type": "bool"
        }
      ],
      "name": "setUseCustomAdapterParams",
      "outputs": [],
      "stateMutability": "nonpayable",
      "type": "function"
    },
    {
      "inputs": [],
      "name": "sharedDecimals",
      "outputs": [
        {
          "internalType": "uint8",
          "name": "",
          "type": "uint8"
        }
      ],
      "stateMutability": "view",
      "type": "function"
    },
    {
      "inputs": [
        {
          "internalType": "bytes4",
          "name": "interfaceId",
          "type": "bytes4"
        }
      ],
      "name": "supportsInterface",
      "outputs": [
        {
          "internalType": "bool",
          "name": "",
          "type": "bool"
        }
      ],
      "stateMutability": "view",
      "type": "function"
    },
    {
      "inputs": [],
      "name": "symbol",
      "outputs": [
        {
          "internalType": "string",
          "name": "",
          "type": "string"
        }
      ],
      "stateMutability": "view",
      "type": "function"
    },
    {
      "inputs": [],
      "name": "token",
      "outputs": [
        {
          "internalType": "address",
          "name": "",
          "type": "address"
        }
      ],
      "stateMutability": "view",
      "type": "function"
    },
    {
      "inputs": [],
      "name": "totalSupply",
      "outputs": [
        {
          "internalType": "uint256",
          "name": "",
          "type": "uint256"
        }
      ],
      "stateMutability": "view",
      "type": "function"
    },
    {
      "inputs": [
        {
          "internalType": "address",
          "name": "to",
          "type": "address"
        },
        {
          "internalType": "uint256",
          "name": "amount",
          "type": "uint256"
        }
      ],
      "name": "transfer",
      "outputs": [
        {
          "internalType": "bool",
          "name": "",
          "type": "bool"
        }
      ],
      "stateMutability": "nonpayable",
      "type": "function"
    },
    {
      "inputs": [
        {
          "internalType": "address",
          "name": "from",
          "type": "address"
        },
        {
          "internalType": "address",
          "name": "to",
          "type": "address"
        },
        {
          "internalType": "uint256",
          "name": "amount",
          "type": "uint256"
        }
      ],
      "name": "transferFrom",
      "outputs": [
        {
          "internalType": "bool",
          "name": "",
          "type": "bool"
        }
      ],
      "stateMutability": "nonpayable",
      "type": "function"
    },
    {
      "inputs": [
        {
          "internalType": "address",
          "name": "newOwner",
          "type": "address"
        }
      ],
      "name": "transferOwnership",
      "outputs": [],
      "stateMutability": "nonpayable",
      "type": "function"
    },
    {
      "inputs": [
        {
          "internalType": "uint16",
          "name": "",
          "type": "uint16"
        }
      ],
      "name": "trustedRemoteLookup",
      "outputs": [
        {
          "internalType": "bytes",
          "name": "",
          "type": "bytes"
        }
      ],
      "stateMutability": "view",
      "type": "function"
    },
    {
      "inputs": [],
      "name": "useCustomAdapterParams",
      "outputs": [
        {
          "internalType": "bool",
          "name": "",
          "type": "bool"
        }
      ],
      "stateMutability": "view",
      "type": "function"
    },
    {
      "inputs": [],
      "name": "yieldBox",
      "outputs": [
        {
          "internalType": "contract IYieldBoxBase",
          "name": "",
          "type": "address"
        }
      ],
      "stateMutability": "view",
      "type": "function"
    },
    {
      "stateMutability": "payable",
      "type": "receive"
    }
  ],
  "bytecode": "0x60e06040908082523462000599576200556c80380380916200002282856200059e565b833981016101008282031262000599576200003d82620005d8565b906020926200004e848201620005d8565b818601516001600160a01b03808216949290918590036200059957606084015196828816809803620005995760808501516001600160401b0394908581116200059957816200009f91880162000612565b9060a0870151908682116200059957620000bb91880162000612565b9160c087015160ff811696878203620005995762000116602b60e08f9b01519a5180966a546170696f63614f46542d60a81b878301526200010581518092898686019101620005ed565b810103600b8101875201856200059e565b607f8d518096601d60fa1b868301526200013a8151809288602186019101620005ed565b810103926200015460216001958681018a5201886200059e565b831c16936000958887549d60018060a01b03199e8f33908216178a55823391167f8be0079c531659141344cd1fd0a4f28419497f9722a3daafe3b4186f6b6457e08b80a3166080528560a05281518381116200058557600b54928584811c941680156200057a575b8785101462000566578190601f9485811162000512575b508790858311600114620004ac578a92620004a0575b5050600019600383901b1c191690851b17600b555b80519283116200048c57600c548481811c9116801562000481575b868210146200046d5782811162000424575b5084918311600114620003be579282939183928894620003b2575b50501b916000199060031b1c191617600c555b601282116200035f575060120360ff81116200034b5760ff1690604d8211620003375750600a0a60c0521684600f541617600f5560ff19601154161760115560105581600d541617600d55600e541617600e5551614efe90816200066e823960805181818161047c0152818161075d015281816108a601528181610a1501528181610bde01528181611b8c01528181611f33015281816125fe01528181613ec60152614317015260a0518161164d015260c051818181611d1c01528181611e23015281816140dd015281816144fa0152818161473701526147cf0152f35b634e487b7160e01b81526011600452602490fd5b634e487b7160e01b82526011600452602482fd5b6084908b519062461bcd60e51b82526004820152602760248201527f4f46543a20736861726564446563696d616c73206d757374206265203c3d20646044820152666563696d616c7360c81b6064820152fd5b01519250388062000246565b600c8752848720919083601f198116895b88888383106200040c5750505010620003f2575b505050811b01600c5562000259565b015160001960f88460031b161c19169055388080620003e3565b868601518855909601959485019487935001620003cf565b600c88528588208380860160051c82019288871062000463575b0160051c019085905b828110620004575750506200022b565b89815501859062000447565b925081926200043e565b634e487b7160e01b88526022600452602488fd5b90607f169062000219565b634e487b7160e01b87526041600452602487fd5b015190503880620001e9565b600b8b52888b208894509190601f1984168c5b8b828210620004fb5750508411620004e1575b505050811b01600b55620001fe565b015160001960f88460031b161c19169055388080620004d2565b8385015186558b97909501949384019301620004bf565b909150600b8a52878a208580850160051c8201928a86106200055c575b918991869594930160051c01915b8281106200054d575050620001d3565b8c81558594508991016200053d565b925081926200052f565b634e487b7160e01b89526022600452602489fd5b93607f1693620001bc565b634e487b7160e01b88526041600452602488fd5b600080fd5b601f909101601f19168101906001600160401b03821190821017620005c257604052565b634e487b7160e01b600052604160045260246000fd5b51906001600160a01b03821682036200059957565b60005b838110620006015750506000910152565b8181015183820152602001620005f0565b81601f82011215620005995780516001600160401b038111620005c2576040519262000649601f8301601f1916602001856200059e565b8184526020828401011162000599576200066a9160208085019101620005ed565b9056fe6080604052600436101561001b575b361561001957600080fd5b005b60003560e01c80621d35671461039f57806254af3a1461039a57806301ffc9a71461039557806306fdde031461039057806307e0db171461038b578063095ea7b3146103865780630df374831461038157806310ddb1371461037c57806318160ddd1461031357806323b872dd14610377578063313ce56714610372578063365260b41461036d57806339509351146103685780633d8b38f6146103635780633f1f4fa41461035e57806342d65a8d1461035957806344770515146103545780634c42899a146103545780635b8c41e61461034f57806366ad5c8a1461034a578063695ef6bf1461034557806370a0823114610340578063715018a61461033b5780637533d7881461033657806376203b4814610331578063785e9e861461032c5780637e92ab3414610327578063857749b0146103225780638cfd8f5c1461031d5780638da5cb5b146103185780639358928b14610313578063950c8a741461030e57806395d89b41146103095780639bdb9812146103045780639f38369a146102ff578063a457c2d7146102fa578063a4c51df5146102f5578063a6c3d165146102f0578063a9059cbb146102eb578063b353aaa7146102e6578063baf3292d146102e1578063bafb655d146102dc578063c4461834146102d7578063cbed8b9c146102d2578063d1deba1f146102cd578063dbd01de1146102c8578063dd62ed3e146102c3578063de406577146102be578063df2a5b3b146102b9578063e6a20ae6146102b4578063eab45d9c146102af578063eaffd49a146102aa578063eb8d72b7146102a5578063ed629c5c146102a0578063f2fde38b1461029b578063f5ecbdbc146102965763fc0c546a0361000e57612668565b612594565b6124df565b6124bc565b612393565b61230a565b6122a8565b61228c565b61219f565b612176565b61212c565b612103565b611fcb565b611edf565b611ec2565b611c2b565b611bbb565b611b76565b611b4c565b6119ea565b611953565b6118a7565b611804565b6117b9565b611715565b6116ec565b610907565b6116c3565b611671565b611633565b611575565b61144d565b611210565b6111b9565b611085565b611048565b610f65565b610ed1565b610e7d565b610c45565b610bc4565b610b8b565b610b1b565b610a93565b61098b565b610965565b610925565b61087d565b61083e565b610809565b610734565b610654565b6105a2565b610584565b610465565b61ffff8116036103b057565b600080fd5b35906103c0826103a4565b565b9181601f840112156103b0578235916001600160401b0383116103b057602083818601950101116103b057565b6001600160401b038116036103b057565b9060806003198301126103b057600435610419816103a4565b916001600160401b03906024358281116103b0578161043a916004016103c2565b9390939260443561044a816103ef565b926064359182116103b057610461916004016103c2565b9091565b346103b05761047336610400565b929493919291907f00000000000000000000000000000000000000000000000000000000000000006001600160a01b03163303610534576104f961050192610019976104f26104d86104d38a61ffff166000526001602052604060002090565b61119e565b805190818414918261052a575b5081610507575b50613b49565b3691610da9565b923691610da9565b92613c59565b9050610514368486610da9565b60208151910120906020815191012014386104ec565b15159150386104e5565b60405162461bcd60e51b815260206004820152601e60248201527f4c7a4170703a20696e76616c696420656e64706f696e742063616c6c657200006044820152606490fd5b60009103126103b057565b346103b05760003660031901126103b0576020601054604051908152f35b346103b05760203660031901126103b05760043563ffffffff60e01b81168091036103b057602090631f7ecdf760e01b81149081156105e7575b506040519015158152f35b6301ffc9a760e01b149050386105dc565b60005b83811061060b5750506000910152565b81810151838201526020016105fb565b90602091610634815180928185528580860191016105f8565b601f01601f1916010190565b90602061065192818152019061061b565b90565b346103b0576000806003193601126107315760405181600b54610676816110ce565b8084529060019081811690811561070957506001146106b0575b6106ac846106a081880382610ce0565b60405191829182610640565b0390f35b600b8352602094507f0175b7a638427703f0dbe7bb9bbf987a2551717b34e79f33b5b1008d1fa01db95b8284106106f657505050816106ac936106a09282010193610690565b80548585018701529285019281016106da565b6106ac96506106a09450602092508593915060ff191682840152151560051b82010193610690565b80fd5b346103b0576000602036600319011261073157600435610753816103a4565b61075b612683565b7f00000000000000000000000000000000000000000000000000000000000000006001600160a01b0316908290823b156107cf57602461ffff918360405195869485936307e0db1760e01b85521660048401525af180156107ca576107be575080f35b6107c790610c77565b80f35b612fea565b5080fd5b6001600160a01b031690565b6001600160a01b038116036103b057565b61010435906103c0826107df565b35906103c0826107df565b346103b05760403660031901126103b057610833600435610829816107df565b60243590336128cd565b602060405160018152f35b346103b05760403660031901126103b05761ffff60043561085e816103a4565b610866612683565b166000526003602052602435604060002055600080f35b346103b057600060203660031901126107315760043561089c816103a4565b6108a4612683565b7f00000000000000000000000000000000000000000000000000000000000000006001600160a01b0316908290823b156107cf57602461ffff918360405195869485936310ddb13760e01b85521660048401525af180156107ca576107be575080f35b346103b05760003660031901126103b0576020600a54604051908152f35b346103b05760603660031901126103b057610833600435610945816107df565b602435610951816107df565b604435916109608333836129e6565b6127fe565b346103b05760003660031901126103b057602060405160128152f35b801515036103b057565b346103b05760a03660031901126103b0576004356109a8816103a4565b606435906109b582610981565b608435906001600160401b0382116103b0576109da6104f260409336906004016103c2565b90610a116109f46109ec604435614735565b602435614804565b928451958694859463040a7bb160e41b865230906004870161403a565b03817f00000000000000000000000000000000000000000000000000000000000000006001600160a01b03165afa9081156107ca576000908192610a62575b50604080519182526020820192909252f35b9050610a85915060403d8111610a8c575b610a7d8183610ce0565b81019061310e565b9038610a50565b503d610a73565b346103b05760403660031901126103b057600435610ab0816107df565b336000526009602052610ac78160406000206126f5565b546024358101809111610ade5761083391336128cd565b61270c565b9060406003198301126103b057600435610afc816103a4565b91602435906001600160401b0382116103b057610461916004016103c2565b346103b057602061ffff610b68610b3136610ae3565b9390911660005260018452610b53610b5a604060002060405192838092611108565b0382610ce0565b848151910120923691610da9565b82815191012014604051908152f35b61ffff166000526007602052604060002090565b346103b05760203660031901126103b05761ffff600435610bab816103a4565b1660005260036020526020604060002054604051908152f35b346103b057610bd236610ae3565b9190610bdc612683565b7f00000000000000000000000000000000000000000000000000000000000000006001600160a01b031691823b156103b057604051928380926342d65a8d60e01b825281610c336000988997889460048501613bea565b03925af180156107ca576107be575080f35b346103b05760003660031901126103b057602060405160008152f35b634e487b7160e01b600052604160045260246000fd5b6001600160401b038111610c8a57604052565b610c61565b608081019081106001600160401b03821117610c8a57604052565b606081019081106001600160401b03821117610c8a57604052565b604081019081106001600160401b03821117610c8a57604052565b601f909101601f19168101906001600160401b03821190821017610c8a57604052565b6040519060e082016001600160401b03811183821017610c8a57604052565b6040519060a082016001600160401b03811183821017610c8a57604052565b604051906103c082610caa565b6040519061012082016001600160401b03811183821017610c8a57604052565b6040519061010082016001600160401b03811183821017610c8a57604052565b6001600160401b038111610c8a57601f01601f191660200190565b929192610db582610d8e565b91610dc36040519384610ce0565b8294818452818301116103b0578281602093846000960137010152565b9080601f830112156103b05781602061065193359101610da9565b9060606003198301126103b057600435610e14816103a4565b91602435906001600160401b0382116103b057610e3391600401610de0565b90604435610651816103ef565b602090610e5a9282604051948386809551938492016105f8565b82019081520301902090565b9060018060401b0316600052602052604060002090565b346103b0576020610ec861ffff610eba83610e9736610dfb565b9490911660005260058252604060002082604051948386809551938492016105f8565b820190815203019020610e66565b54604051908152f35b346103b057610edf36610400565b9192949390303303610f03576104f9610efd92610019973691610da9565b9261407e565b60405162461bcd60e51b815260206004820152602660248201527f4e6f6e626c6f636b696e674c7a4170703a2063616c6c6572206d7573742062656044820152650204c7a4170760d41b6064820152608490fd5b908160609103126103b05790565b60a03660031901126103b057600435610f7d816107df565b602435610f89816103a4565b604435916084356001600160401b0381116103b057602061ffff610fc0600080516020614de9833981519152933690600401610f57565b936110338535610fcf816107df565b610fed6104f28689013598610fe38a6107df565b6040810190613e44565b610ff7818a614637565b61100c6110056064356147cd565b50856149c2565b97611018891515614233565b61102a6110248a614735565b8c614804565b9234938b6142d3565b6040519485526001600160a01b0316941692a4005b346103b05760203660031901126103b057600435611065816107df565b60018060a01b031660005260086020526020604060002054604051908152f35b346103b0576000806003193601126107315761109f612683565b80546001600160a01b03198116825581906001600160a01b0316600080516020614e498339815191528280a380f35b90600182811c921680156110fe575b60208310146110e857565b634e487b7160e01b600052602260045260246000fd5b91607f16916110dd565b9060009291805491611119836110ce565b91828252600193848116908160001461117b575060011461113b575b50505050565b90919394506000526020928360002092846000945b838610611167575050505001019038808080611135565b805485870183015294019385908201611150565b9294505050602093945060ff191683830152151560051b01019038808080611135565b906103c06111b29260405193848092611108565b0383610ce0565b346103b05760203660031901126103b05761ffff6004356111d9816103a4565b1660005260016020526106ac610b536111fc604060002060405192838092611108565b60405191829160208352602083019061061b565b60e03660031901126103b057600435611228816107df565b602435611234816103a4565b604435916001600160401b03906084358281116103b0576112599036906004016103c2565b91909260a43591611269836103ef565b60c4358281116103b057611281903690600401610f57565b926112b8843595611291876107df565b6112b06112a6602088013597610fe3896107df565b9990923691610da9565b973691610da9565b9460ff600654166000146113ac576022865110611368578560209561102a611033946113368c61132361ffff9a8b6022600080516020614de98339815191529f0151931660005260028d52841661131d60406000206001600052602052604060002090565b5461273e565b9061132f82151561468c565b10156146d5565b61134b6113446064356147cd565b50886149c2565b9a6113578c1515614233565b8d6113618d614735565b903361487f565b60405162461bcd60e51b815260206004820152601c60248201527b4c7a4170703a20696e76616c69642061646170746572506172616d7360201b6044820152606490fd5b9480949350516113d957600080516020614de98339815191529460209461ffff9461102a61103394611336565b60405162461bcd60e51b815260206004820152602660248201527f4f4654436f72653a205f61646170746572506172616d73206d7573742062652060448201526532b6b83a3c9760d11b6064820152608490fd5b6001600160a01b03169052565b6001600160a01b03909116815260200190565b346103b05760003660031901126103b057600f546040516001600160a01b039091168152602090f35b60809060631901126103b0576040519061148f82610c8f565b8160643561149c816107df565b81526084356114aa816107df565b602082015260a4356114bb816107df565b6040820152606060c435916114cf836107df565b0152565b91909160e0818403126103b0576114e8610d03565b92813584526114f9602083016103b5565b602085015261150a604083016103b5565b604085015261151b606083016107fe565b60608501526001600160401b039160808101358381116103b05782611541918301610de0565b608086015260a08101359283116103b05761156360c09261156e948301610de0565b60a0860152016107fe565b60c0830152565b600319610140368201126103b05760043561158f816107df565b6001600160401b0391604435908382116103b05760609082360301126103b057604051906115bc82610caa565b80600401356115ca816107df565b8252602481013560208301526044810135908482116103b05760046115f29236920101610de0565b604082015261160036611476565b60e4359384116103b05761161b6100199436906004016114d3565b906116246107f0565b92610124359460243590613497565b346103b05760003660031901126103b057602060405160ff7f0000000000000000000000000000000000000000000000000000000000000000168152f35b346103b05760403660031901126103b0576020610ec8600435611693816103a4565b61ffff602435916116a3836103a4565b166000526002835260406000209061ffff16600052602052604060002090565b346103b05760003660031901126103b0576000546040516001600160a01b039091168152602090f35b346103b05760003660031901126103b0576004546040516001600160a01b039091168152602090f35b346103b0576000806003193601126107315760405181600c54611737816110ce565b808452906001908181169081156107095750600114611760576106ac846106a081880382610ce0565b600c8352602094507fdf6966c971051c3d54ec59162606531493a51404a002842f56009d7e5cf4a8c75b8284106117a657505050816106ac936106a09282010193610690565b805485850187015292850192810161178a565b346103b057602060ff6117f861ffff610eba846117d536610dfb565b9490911660005260078252604060002082604051948386809551938492016105f8565b54166040519015158152f35b346103b05760203660031901126103b05761ffff600435611824816103a4565b166000526001602052610b53611844604060002060405192838092611108565b805115611862576106a08161185c6106ac9351612dd0565b90614bdc565b60405162461bcd60e51b815260206004820152601d60248201527f4c7a4170703a206e6f20747275737465642070617468207265636f72640000006044820152606490fd5b346103b05760403660031901126103b0576004356118c4816107df565b602435903360005260096020526118df8160406000206126f5565b5491808310611900576118f4920390336128cd565b60405160018152602090f35b60405162461bcd60e51b815260206004820152602560248201527f45524332303a2064656372656173656420616c6c6f77616e63652062656c6f77604482015264207a65726f60d81b6064820152608490fd5b346103b05760e03660031901126103b057600435611970816103a4565b6001600160401b03906064358281116103b0576119919036906004016103c2565b6084929192356119a0816103ef565b60a435916119ad83610981565b60c4359586116103b0576119c86119d89636906004016103c2565b9590946044359060243590613e76565b60408051928352602083019190915290f35b346103b0576119f836610ae3565b90611a01612683565b60405192602092808385870137611a2d6034868381013060601b88820152036014810188520186610ce0565b61ffff8216600090815260018086526040822087519296909291906001600160401b038311610c8a57611a6a83611a6486546110ce565b86613c05565b80601f8411600114611ac8575091808092611ab79695948a9b600080516020614e098339815191529b94611abd575b50501b916000199060031b1c19161790555b60405193849384613bea565b0390a180f35b015192503880611a99565b91939498601f198416611ae087600052602060002090565b938a905b828210611b3557505091600080516020614e09833981519152999a95939185611ab798969410611b1c575b505050811b019055611aab565b015160001960f88460031b161c19169055388080611b0f565b808886978294978701518155019601940190611ae4565b346103b05760403660031901126103b057610833600435611b6c816107df565b60243590336127fe565b346103b05760003660031901126103b0576040517f00000000000000000000000000000000000000000000000000000000000000006001600160a01b03168152602090f35b346103b05760203660031901126103b0577f5db758e995a17ec1ad84bdef7e8c3293a0bd6179bcce400dff5d4c3d87db726b6020600435611bfb816107df565b611c03612683565b600480546001600160a01b0319166001600160a01b03929092169182179055604051908152a1005b346103b05760a03660031901126103b057600435611c48816107df565b602435611c54816103a4565b6001600160401b036044358181116103b057611c74903690600401610de0565b60643591611c81836103ef565b6084358181116103b057611c99903690600401610de0565b303314801590611e83575b611e715784938482611cc060208a955183010160208301612bc6565b99965090945060018060a09b959b9493941b03169d8e9a8c8b88611ce3306126db565b549b611d11611d0d611d0684611d01611cfb86610b77565b89610e40565b610e66565b5460ff1690565b1590565b611e0b575b505050507f00000000000000000000000000000000000000000000000000000000000000009a16988b611d498c8c6147ba565b966040519586956020870199631fa4aacd60e21b8b526024880196611d6d97612d04565b03601f1981018252611d7f9082610ce0565b515a92600093928493f496611d92612da0565b97159861ffff98611dbe98600080516020614e298339815191529b611dcd575b505050505050506147ba565b604051908152921691602090a3005b611de3611dff97611ddd306126db565b54612dee565b611ded8a8a6147ba565b1115611df98a8a6147ba565b90612dfb565b3880808089818c611db2565b611e6793611e54611d0192611e4f611e49611e5a978a7f000000000000000000000000000000000000000000000000000000000000000091166147ba565b30614ad8565b610b77565b90610e40565b805460ff19166001179055565b8c8b8f8990611d16565b604051630676ee3b60e21b8152600490fd5b5060036000526012602052611eae600080516020614e898339815191525b546001600160a01b031690565b6001600160a01b0387811691161415611ca4565b346103b05760003660031901126103b05760206040516127108152f35b346103b05760803660031901126103b057600435611efc816103a4565b602435611f08816103a4565b6064356001600160401b0381116103b057611f279036906004016103c2565b9092611f31612683565b7f00000000000000000000000000000000000000000000000000000000000000006001600160a01b031690813b156103b05760008094611fa8604051978896879586946332fb62e760e21b865261ffff80921660048701521660248501526044356044850152608060648501526084840191613bc9565b03925af180156107ca57611fb857005b80611fc561001992610c77565b80610579565b611fd436610400565b9161ffff8694929616600052600560205261200881604060002060206040518092878b833787820190815203019020610e66565b549182156120b2576120a1848361209a7fc264d91f3adc5588250e1551f547752ca0cfa8f6b530d243b9f9f4cab10ea8e59a600061208684611d018e8a8f6120ad9f908f61206c9061205f6120809436908d610da9565b6020815191012014613db7565b61ffff166000526005602052604060002090565b91613d9e565b5561209236878d610da9565b933691610da9565b918861407e565b60405195869586613e0d565b0390a1005b60405162461bcd60e51b815260206004820152602360248201527f4e6f6e626c6f636b696e674c7a4170703a206e6f2073746f726564206d65737360448201526261676560e81b6064820152608490fd5b346103b05760003660031901126103b057600e546040516001600160a01b039091168152602090f35b346103b05760403660031901126103b0576020610ec860043561214e816107df565b6024359061215b826107df565b6001600160a01b0316600090815260098452604090206126f5565b346103b05760003660031901126103b057600d546040516001600160a01b039091168152602090f35b346103b05760603660031901126103b0576004356121bc816103a4565b6024356121c8816103a4565b604435916121d4612683565b821561224f576120ad7f9d5c7c0b934da8fefa9c7760c98383778a12dfbfc0c3b3106518f43fb9508ac09361ffff83166000526002602052806122298560406000209061ffff16600052602052604060002090565b556040519384938460409194939294606082019561ffff80921683521660208201520152565b60405162461bcd60e51b81526020600482015260156024820152744c7a4170703a20696e76616c6964206d696e47617360581b6044820152606490fd5b346103b05760003660031901126103b057602060405160018152f35b346103b05760203660031901126103b0577f1584ad594a70cbe1e6515592e1272a987d922b097ead875069cebe8b40c004a460206004356122e881610981565b6122f0612683565b151560ff196006541660ff821617600655604051908152a1005b346103b0576101003660031901126103b057600435612328816103a4565b6001600160401b03906024358281116103b0576123499036906004016103c2565b919060443590612358826103ef565b608435612364816107df565b60c4359586116103b05761237f6100199636906004016103c2565b94909360e4359660a4359460643593613f6d565b346103b0576123a136610ae3565b91906123ab612683565b61ffff82166000908152600160208181526040832092949291906001600160401b038711610c8a576123e7876123e185546110ce565b85613c05565b8590601f881160011461243c5750918680879893611ab795600080516020614ea98339815191529993612431575b501b906000198460031b1c191617905560405193849384613bea565b880135925038612415565b90601f19881661245185600052602060002090565b9288905b8282106124a557505091889391600080516020614ea98339815191529899611ab796941061248b575b505082811b019055611aab565b870135600019600386901b60f8161c19169055388061247e565b808685968294968c01358155019501930190612455565b346103b05760003660031901126103b057602060ff600654166040519015158152f35b346103b05760203660031901126103b0576004356124fc816107df565b612504612683565b6001600160a01b03908116801561254057600080546001600160a01b0319811683178255909216600080516020614e498339815191528380a380f35b60405162461bcd60e51b815260206004820152602660248201527f4f776e61626c653a206e6577206f776e657220697320746865207a65726f206160448201526564647265737360d01b6064820152608490fd5b346103b05760803660031901126103b0576004356125b1816103a4565b602435906125be826103a4565b6125c96044356107df565b604051633d7b2f6f60e21b815261ffff91821660048201529116602482015230604482015260648035908201526000816084817f00000000000000000000000000000000000000000000000000000000000000006001600160a01b03165afa80156107ca576106ac91600091612647575b5060405191829182610640565b612662913d8091833e61265a8183610ce0565b810190613ba4565b3861263a565b346103b05760003660031901126103b0576020604051308152f35b6000546001600160a01b0316330361269757565b606460405162461bcd60e51b815260206004820152602060248201527f4f776e61626c653a2063616c6c6572206973206e6f7420746865206f776e65726044820152fd5b6001600160a01b0316600090815260086020526040902090565b9060018060a01b0316600052602052604060002090565b634e487b7160e01b600052601160045260246000fd5b90601f8201809211610ade57565b6051019081605111610ade57565b91908201809211610ade57565b1561275257565b60405162461bcd60e51b815260206004820152602360248201527f45524332303a207472616e7366657220746f20746865207a65726f206164647260448201526265737360e81b6064820152608490fd5b156127aa57565b60405162461bcd60e51b815260206004820152602660248201527f45524332303a207472616e7366657220616d6f756e7420657863656564732062604482015265616c616e636560d01b6064820152608490fd5b916001600160a01b03808416929091831561287a5761285f82600080516020614e698339815191529461287594169661283888151561274b565b61285984612845836126db565b54612852828210156127a3565b03916126db565b556126db565b8054820190556040519081529081906020820190565b0390a3565b60405162461bcd60e51b815260206004820152602560248201527f45524332303a207472616e736665722066726f6d20746865207a65726f206164604482015264647265737360d81b6064820152608490fd5b6001600160a01b03808216929190831561299557821693841561294557806129347f8c5be1e5ebec7d5bd14f71427d1e84f3dd0314c0f7b2291e5b200ac8c7c3b9259461292f6128759560018060a01b03166000526009602052604060002090565b6126f5565b556040519081529081906020820190565b60405162461bcd60e51b815260206004820152602260248201527f45524332303a20617070726f766520746f20746865207a65726f206164647265604482015261737360f01b6064820152608490fd5b60405162461bcd60e51b8152602060048201526024808201527f45524332303a20617070726f76652066726f6d20746865207a65726f206164646044820152637265737360e01b6064820152608490fd5b9060018060a01b0382166000526009602052612a068160406000206126f5565b549260018401612a165750505050565b808410612a3157612a289303916128cd565b38808080611135565b60405162461bcd60e51b815260206004820152601d60248201527f45524332303a20696e73756666696369656e7420616c6c6f77616e63650000006044820152606490fd5b51906103c0826103a4565b51906103c0826107df565b81601f820112156103b0578051612aa281610d8e565b92612ab06040519485610ce0565b818452602082840101116103b05761065191602080850191016105f8565b91908260809103126103b057604051612ae681610c8f565b60608082948051612af6816107df565b84526020810151612b06816107df565b60208501526040810151612b19816107df565b60408501520151916114cf836107df565b91909160e0818403126103b057612b3f610d03565b9281518452612b5060208301612a76565b6020850152612b6160408301612a76565b6040850152612b7260608301612a81565b606085015260808201516001600160401b0392908381116103b05782612b99918301612a8c565b608086015260a08101519283116103b057612bbb60c09261156e948301612a8c565b60a086015201612a81565b91610160838303126103b0578251612bdd816103a4565b926020810151926040820151612bf2816103ef565b606083015190936001600160401b039390918481116103b05781016060818503126103b05760405190612c2482610caa565b8051612c2f816107df565b8252602081015160208301526040810151908682116103b057612c5491869101612a8c565b604082015293612c678460808401612ace565b936101008301519182116103b057612c80918301612b2a565b91610140612c916101208401612a81565b92015190565b908151815261ffff806020840151166020830152604083015116604082015260c060018060a01b0380606085015116606084015281612cfa612ce8608087015160e0608088015260e087019061061b565b60a087015186820360a088015261061b565b9401511691015290565b939094610120956060612d5e60406114cf97612d94979d9c9b9d60018060a01b038096168b5260208b015261014080838c015285825116908b015260208101516101608b01520151826101808a01526101a089019061061b565b9382815116828901528260208201511660808901528260408201511660a089015201511660c086015284820360e0860152612c97565b9561010083019061142d565b3d15612dcb573d90612db182610d8e565b91612dbf6040519384610ce0565b82523d6000602084013e565b606090565b601319810191908211610ade57565b605019810191908211610ade57565b91908203918211610ade57565b979694929593919097612e15575b506103c0959650613ced565b612e999060008060405192612e4f84612e4160209e8f83019463a9059cbb60e01b865260248401612f25565b03601f198101865285610ce0565b60405193612e5c85610cc5565b8c85527f5361666545524332303a206c6f772d6c6576656c2063616c6c206661696c65648d860152519082305af1612e92612da0565b9030612f55565b805190888215928315612f0d575b50505015612eb55786612e09565b60405162461bcd60e51b815260048101889052602a60248201527f5361666545524332303a204552433230206f7065726174696f6e20646964206e6044820152691bdd081cdd58d8d9595960b21b6064820152608490fd5b612f1d9350820181019101612f40565b388881612ea7565b6001600160a01b039091168152602081019190915260400190565b908160209103126103b0575161065181610981565b91929015612fb75750815115612f69575090565b3b15612f725790565b60405162461bcd60e51b815260206004820152601d60248201527f416464726573733a2063616c6c20746f206e6f6e2d636f6e74726163740000006044820152606490fd5b825190915015612fca5750805190602001fd5b60405162461bcd60e51b8152908190612fe69060048301610640565b0390fd5b6040513d6000823e3d90fd5b600081526001600160a01b03909116602082015260400190565b91908260409103126103b057604080519081016001600160401b03811182821017610c8a576040526020808294805161304881610981565b84520151916114cf83610981565b908181039161014083126103b05760409182519361307385610caa565b608081126103b057608090845161308981610c8f565b8451613094816107df565b815260208501516020820152858501516130ad816107df565b86820152606085015160608201528652607f1901126103b0576101006131079284516130d881610c8f565b6080820151815260a0820151602082015260c08201518682015260e08201516060820152602087015201613010565b9082015290565b91908260409103126103b0576020825192015190565b919261065194936131a260406131b3946060815160018060a01b03808251168a52602082015160208b01528482015116848a01520151606088015260606020820151805160808a0152602081015160a08a01528381015160c08a0152015160e088015201516101008601906020809180511515845201511515910152565b61014084015261016083019061142d565b6101a09081610180820152019061061b565b604051906131d282610cc5565b6002825261060f60f31b6020830152565b60608051808352602080930192608080936000915b8483106132085750505050505090565b909192939495846101c0600192895161322382825115159052565b80840151151582850152604081810151151590830152808701511515828801528086015161ffff168287015261326160a0808301519084019061142d565b60c08181015115159083015261327f60e0808301519084019061142d565b613292610100808301519084019061142d565b610120818101519083015261014080820151908301526101608082015160ff169083015261018081810151908301526101a090810151908201520197019594930191906131f8565b90610651908251151581526020830151602082015260408301511515604082015261ffff606084015116606082015260e080613325608086015161010080608087015285019061061b565b60a0808701511515908501529461334460c082015160c086019061142d565b015191019061142d565b9592916106519795916134889561ffff6134549560018060a01b038095818096168d521660208c01521660408a0152166060880152815115156080880152602082015160a0880152604082015160c088015260608201511660e08701526080810151906133c1610100928389019061142d565b60a0810151151561012088015260c081015161014088015260e08101518051151561016089015260208101516001600160a01b031661018089015260408101516001600160801b039081166101a08a01526060820151166101c0890152608001516101e088015201518051151561020087015260208101516001600160a01b031661022087015260400151610240860152565b61347961346b6102e08061026088015286016131e3565b8581036102808701526131e3565b908482036102a08601526132da565b916102c081840391015261061b565b9590949195939293303314159081613af1575b50611e7157303b156103b057604080516339f4769360e01b8152600096600492918881806134db8530898401612f25565b038183305af180156107ca57613ade575b506134f787516107d3565b6001600160a01b039190828116613a66575b5061351d613518600e546107d3565b6107d3565b9988848c9a019361352e85516107d3565b9486518881633a304d8b60e21b9e8f8252818061355060209c8d968301612ff6565b03915afa9081156107ca578e91613a49575b5015613a3a57508482019c8d51613578906107d3565b868d89518093819282528c82019061358f91612ff6565b0381855afa9081156107ca578e91613a1d575b5015613a0d5785606084019c8d516135b9906107d3565b928951808095819482528d8201906135d091612ff6565b03915afa9081156107ca578d916139f0575b50156139cb57868c86836135f7600f546107d3565b16806138db575b505050506136728461361661351861351886516107d3565b9289613623600f546107d3565b97889561363089516107d3565b8c5180978194829363678a252760e11b84526101409b8c9885016000929493606092608083019660018060a01b03809216845216602083015260408201520152565b03915afa9687156107ca578f93958a968c96869a6138a0575b505061351861351861369d92516107d3565b935016613899575b868501519084860151966136ce86519889968795869463efa84c6d60e01b865230928601613124565b03925af19182156107ca578a92613879575b50516136eb906107d3565b6136f4906107d3565b6136fd906107d3565b968281015161370d9061ffff1690565b988a6060830191825161371f906107d3565b9d5161372a906107d3565b9051613735906107d3565b61373d610d22565b918383528388840152838984015283606084015283608084015261375f610d41565b938085528089860152808a860152613775610d4e565b6001815297888a0152898801526001600160a01b031660608701526001600160a01b031660808601528c60a08601528c60c086015260e085015261010084015260c08201516137c3906107d3565b6137cc906107d3565b90516137d7906107d3565b908b6137e1610d6e565b958187528601528b868601528b60608601526137fb6131c5565b608086015260a085018c90526001600160a01b031660c08501526001600160a01b031660e08401525161382d90613b29565b92873b156138755790613857939291519a8b998a98899763dfefd99d60e01b89523090890161334e565b03925af180156107ca576138685750565b80611fc56103c092610c77565b8980fd5b613891919250843d8611610a8c57610a7d8183610ce0565b5090386136e0565b508c6136a5565b61369d929a506138cc613518928261351893903d106138d4575b6138c48183610ce0565b810190613056565b9a925061368b565b503d6138ba565b613920906138e987516107d3565b8b5163095ea7b360e01b8082526001600160a01b039092169681019687526000602088015290959094859384928391604090910190565b03925af19182156107ca578e889288946139ae575b508a613948613518613518600f546107d3565b9161395388516107d3565b936139698d519788968795869485528401612f25565b03925af180156107ca57613981575b8c8689926135fe565b6139a090863d88116139a7575b6139988183610ce0565b810190612f40565b5038613978565b503d61398e565b6139c490843d86116139a7576139988183610ce0565b5038613935565b8587612fe66139da8e516107d3565b9251634a0bfec160e01b8152928392830161143a565b613a079150863d88116139a7576139988183610ce0565b386135e2565b86888f6139da612fe691516107d3565b613a349150873d89116139a7576139988183610ce0565b386135a2565b87612fe66139da8993516107d3565b613a609150873d89116139a7576139988183610ce0565b38613562565b6020613a9391613a7a613518600e546107d3565b86518080958194633a304d8b60e21b83528b8301612ff6565b03915afa9081156107ca578a91613ac0575b5015613ab15738613509565b8284612fe66139da8b516107d3565b613ad8915060203d81116139a7576139988183610ce0565b38613aa5565b80611fc5613aeb92610c77565b386134ec565b600360005260126020529050613b14600080516020614e89833981519152611ea1565b6001600160a01b0390811691161415386134aa565b60405190600160f01b602083015260228201526022815261065181610caa565b15613b5057565b60405162461bcd60e51b815260206004820152602660248201527f4c7a4170703a20696e76616c696420736f757263652073656e64696e6720636f6044820152651b9d1c9858dd60d21b6064820152608490fd5b906020828203126103b05781516001600160401b0381116103b0576106519201612a8c565b908060209392818452848401376000828201840152601f01601f1916010190565b60409061ffff61065195931681528160208201520191613bc9565b90601f8111613c1357505050565b600091825260208220906020601f850160051c83019410613c4f575b601f0160051c01915b828110613c4457505050565b818155600101613c38565b9092508290613c2f565b929091613ccb5a604051633356ae4560e11b602082015261ffff871660248201526080604482015290613cc582613cb7613c9660a483018a61061b565b6001600160401b03881660648401528281036023190160848401528861061b565b03601f198101845283610ce0565b30614d8b565b939015613cda575b5050505050565b613ce394613ced565b3880808080613cd3565b9193613d8b7fe183f33de2837795525b4792ca4cd60535bd77c53b7e7030060bfcf5734d6b0c95613d99939561ffff81516020830120961695866000526005602052613d5183610eba60208b604060002082604051948386809551938492016105f8565b55613d6e604051978897885260a0602089015260a088019061061b565b6001600160401b039092166040870152858203606087015261061b565b90838203608085015261061b565b0390a1565b6020919283604051948593843782019081520301902090565b15613dbe57565b60405162461bcd60e51b815260206004820152602160248201527f4e6f6e626c6f636b696e674c7a4170703a20696e76616c6964207061796c6f616044820152601960fa1b6064820152608490fd5b9160609361ffff613e309398979698168452608060208501526080840191613bc9565b6001600160401b0390951660408201520152565b903590601e19813603018212156103b057018035906001600160401b0382116103b0576020019181360383136103b057565b949195989790611361613e9f604099613e97613ea597613ec2993691610da9565b943691610da9565b97614735565b928451968794859463040a7bb160e41b865230906004870161403a565b03817f00000000000000000000000000000000000000000000000000000000000000006001600160a01b03165afa9182156107ca576000908193613f0557509190565b905061046191925060403d8111610a8c57610a7d8183610ce0565b9396949161065198969361ffff613f459316865260c0602087015260c0860191613bc9565b6001600160401b0390961660408401526060830152608082015280840360a090910152613bc9565b91969792989594939094303303613ff557613f89908530614b28565b60405181815290946001600160a01b03169390849061ffff851690600080516020614e2983398151915290602090a3833b156103b0576000988995613fe5936040519c8d9b8c9a8b98633fe79aed60e11b8a5260048a01613f20565b0393f180156107ca576138685750565b60405162461bcd60e51b815260206004820152601f60248201527f4f4654436f72653a2063616c6c6572206d757374206265204f4654436f7265006044820152606490fd5b9192610651959361ffff6140699316845260018060a01b0316602084015260a0604084015260a083019061061b565b9215156060820152608081840391015261061b565b92919060ff61408c84614d30565b16806141df5750505060ff6140a082614d30565b1615806141d4575b6140b190614838565b6140c36140bd82614ce0565b91614d7b565b90916001600160a01b0391828416156141ca575b61410b907f0000000000000000000000000000000000000000000000000000000000000000906001600160401b03166147ba565b91831692831561418557600080516020614e298339815191529161414561ffff9261414061413b87600a5461273e565b600a55565b6126db565b848154019055846000600080516020614e698339815191526040518061417089829190602083019252565b0390a360405193845216918060208101612875565b60405162461bcd60e51b815260206004820152601f60248201527f45524332303a206d696e7420746f20746865207a65726f2061646472657373006044820152606490fd5b61dead93506140d7565b5080516029146140a8565b6001036141ef576103c0936144c4565b60405162461bcd60e51b815260206004820152601c60248201527b4f4654436f72653a20756e6b6e6f776e207061636b6574207479706560201b6044820152606490fd5b1561423a57565b60405162461bcd60e51b815260206004820152601960248201527813d19510dbdc994e88185b5bdd5b9d081d1bdbc81cdb585b1b603a1b6044820152606490fd5b926142a061065197959361ffff6142ae9416865260c0602087015260c086019061061b565b90848203604086015261061b565b6001600160a01b0391821660608401529316608082015280830360a09091015261061b565b946142fc9193929561ffff81166000526001602052614303604060002060405194858092611108565b0384610ce0565b82511561436a576143158551826143c8565b7f00000000000000000000000000000000000000000000000000000000000000006001600160a01b031693843b156103b05760009661385791604051998a988997889662c5803160e81b88526004880161427b565b60405162461bcd60e51b815260206004820152603060248201527f4c7a4170703a2064657374696e6174696f6e20636861696e206973206e6f742060448201526f61207472757374656420736f7572636560801b6064820152608490fd5b61ffff16600052600360205260406000205490811561442d575b116143e957565b606460405162461bcd60e51b815260206004820152602060248201527f4c7a4170703a207061796c6f61642073697a6520697320746f6f206c617267656044820152fd5b61271091506143e2565b989796929361446160e0979361ffff6144969894168c5260208c61010091829101528c019061061b565b6001600160401b0390951660408b015260608a01526001600160a01b0316608089015260a088015286820360c088015261061b565b930152565b6144b36040929594939560608352606083019061061b565b94600180841b031660208201520152565b90916144cf846148e9565b90916144ea611d0687611d016144e48b610b77565b8c610e40565b916001600160401b0391614521907f00000000000000000000000000000000000000000000000000000000000000009084166147ba565b9288888b831561460f575b505050853b156145d257946145739694613cc5948a94613cb7948d996000146145cb5750505a925b5a978b6040519a8b9863757fea4d60e11b60208b015260248a01614437565b90156145c05750906145bb61ffff928560207fb8890edbfc1c74692f527444645f95489c3703cc2df42e4a366f5d06fa6cd8849697519101209060405194859416968461449b565b0390a2565b926103c09492613ced565b1692614554565b5050505050925050507f9aedf5fdba8716db3b6705ca00150643309995d4f818a249ed6dde6677e7792d9250613d9991506040519182918261143a565b90611d01611e5a92611e548961462961462f979b30614ad8565b99610b77565b88888b61452c565b60065460ff16156146845760228251106113685761ffff60226103c093015191166000526002602052614677604060002060008052602052604060002090565b549061132f82151561468c565b50516113d957565b1561469357565b60405162461bcd60e51b815260206004820152601a602482015279131e905c1c0e881b5a5b91d85cd31a5b5a5d081b9bdd081cd95d60321b6044820152606490fd5b156146dc57565b60405162461bcd60e51b815260206004820152601b60248201527a4c7a4170703a20676173206c696d697420697320746f6f206c6f7760281b6044820152606490fd5b634e487b7160e01b600052601260045260246000fd5b7f00000000000000000000000000000000000000000000000000000000000000009081156147b5576001600160401b03919004818111614773571690565b60405162461bcd60e51b815260206004820152601a6024820152794f4654436f72653a20616d6f756e745344206f766572666c6f7760301b6044820152606490fd5b61471f565b81810292918115918404141715610ade57565b7f000000000000000000000000000000000000000000000000000000000000000080156147b557810690818103908111610ade5791565b60405160006020820152602181019190915260c09190911b6001600160c01b03191660418201526029815261065181610caa565b1561483f57565b60405162461bcd60e51b815260206004820152601860248201527713d19510dbdc994e881a5b9d985b1a59081c185e5b1bd85960421b6044820152606490fd5b939260719261065194604051968794600160f81b6020870152602186015260018060c01b0319809360c01b16604186015260018060a01b0316604985015260c01b1660698301526148d981518092602086860191016105f8565b8101036051810184520182610ce0565b90614901600160ff6148fa85614d30565b1614614838565b61490a82614ce0565b9061491483614d7b565b906049845110614985576049840151936051815110614949576149466051820151916149408151612ddf565b90614c5c565b91565b60405162461bcd60e51b8152602060048201526014602482015273746f55696e7436345f6f75744f66426f756e647360601b6044820152606490fd5b60405162461bcd60e51b8152602060048201526015602482015274746f427974657333325f6f75744f66426f756e647360581b6044820152606490fd5b6001600160a01b038116338103614a71575b8015614a2257816149f7846149ea6000956126db565b5461285282821015614a81565b55614a0583600a5403600a55565b604051838152600080516020614e6983398151915290602090a390565b60405162461bcd60e51b815260206004820152602160248201527f45524332303a206275726e2066726f6d20746865207a65726f206164647265736044820152607360f81b6064820152608490fd5b614a7c8333846129e6565b6149d4565b15614a8857565b60405162461bcd60e51b815260206004820152602260248201527f45524332303a206275726e20616d6f756e7420657863656564732062616c616e604482015261636560f01b6064820152608490fd5b6001600160a01b0381169190821561418557600a5490828201809211610ade57600092614b19602092600080516020614e6983398151915294600a556126db565b818154019055604051908152a3565b6106519183916001600160a01b038116308114159081614b54575b50156127fe576109608333836129e6565b905033141538614b43565b15614b6657565b60405162461bcd60e51b815260206004820152600e60248201526d736c6963655f6f766572666c6f7760901b6044820152606490fd5b15614ba357565b60405162461bcd60e51b8152602060048201526011602482015270736c6963655f6f75744f66426f756e647360781b6044820152606490fd5b614bf082614be981612722565b1015614b5f565b614bfd8282511015614b9c565b81614c15575050604051600081526020810160405290565b60405191601f811691821560051b808486010193838501920101905b808410614c495750508252601f01601f191660405290565b9092835181526020809101930190614c31565b614c6982614be981612722565b614c7e8151614c7784612730565b1115614b9c565b81614c96575050604051600081526020810160405290565b60405191601f8116916051831560051b80858701019484860193010101905b808410614ccd5750508252601f01601f191660405290565b9092835181526020809101930190614cb5565b6021815110614cf357602d015160601c90565b60405162461bcd60e51b8152602060048201526015602482015274746f416464726573735f6f75744f66426f756e647360581b6044820152606490fd5b6001815110614d40576001015190565b60405162461bcd60e51b8152602060048201526013602482015272746f55696e74385f6f75744f66426f756e647360681b6044820152606490fd5b6029815110614949576029015190565b6040519392909160009160c08601916001600160401b03831187841017610c8a5783926040526096875282602088019560a036883760208451940192f1903d9060968211614ddf575b6000908286523e9190565b60969150614dd456fed81fc9b8523134ed613870ed029d6170cbb73aa6a6bc311b9a642689fb9df59a8c0400cfe2d1199b1a725c78960bcc2a344d869b80590d0f2bd005db15a572cebf551ec93859b170f9b2141bd9298bf3f64322c6f7beb2543a0cb669834118bf8be0079c531659141344cd1fd0a4f28419497f9722a3daafe3b4186f6b6457e0ddf252ad1be2c89b69c2b068fc378daa952ba7f163c4a11628f55a4df523b3ef0f36ad39aee03e7108cc48f54934702a5f0d4066f10344cebf8198978d86976afa41487ad5d6728f0b19276fa1eddc16558578f5109fc39d2dc33c3230470daba2646970667358221220ba0df03e5657278d0276d9181e433ace8e9267057fa0170345e5da84a53a364964736f6c63430008130033",
  "linkReferences": {},
  "deployedLinkReferences": {}
}