{
  "_format": "hh-sol-artifact-1",
  "contractName": "BaseTOFTLeverageModule",
  "sourceName": "contracts/tOFT/modules/BaseTOFTLeverageModule.sol",
  "abi": [
    {
      "inputs": [
        {
          "internalType": "address",
          "name": "_lzEndpoint",
          "type": "address"
        },
        {
          "internalType": "address",
          "name": "_erc20",
          "type": "address"
        },
        {
          "internalType": "contract IYieldBoxBase",
          "name": "_yieldBox",
          "type": "address"
        },
        {
          "internalType": "string",
          "name": "_name",
          "type": "string"
        },
        {
          "internalType": "string",
          "name": "_symbol",
          "type": "string"
        },
        {
          "internalType": "uint8",
          "name": "_decimal",
          "type": "uint8"
        },
        {
          "internalType": "uint256",
          "name": "_hostChainID",
          "type": "uint256"
        }
      ],
      "stateMutability": "nonpayable",
      "type": "constructor"
    },
    {
      "anonymous": false,
      "inputs": [
        {
          "indexed": true,
          "internalType": "address",
          "name": "owner",
          "type": "address"
        },
        {
          "indexed": true,
          "internalType": "address",
          "name": "spender",
          "type": "address"
        },
        {
          "indexed": false,
          "internalType": "uint256",
          "name": "value",
          "type": "uint256"
        }
      ],
      "name": "Approval",
      "type": "event"
    },
    {
      "anonymous": false,
      "inputs": [
        {
          "indexed": true,
          "internalType": "uint16",
          "name": "_srcChainId",
          "type": "uint16"
        },
        {
          "indexed": false,
          "internalType": "bytes",
          "name": "_srcAddress",
          "type": "bytes"
        },
        {
          "indexed": false,
          "internalType": "uint64",
          "name": "_nonce",
          "type": "uint64"
        },
        {
          "indexed": false,
          "internalType": "bytes32",
          "name": "_hash",
          "type": "bytes32"
        }
      ],
      "name": "CallOFTReceivedSuccess",
      "type": "event"
    },
    {
      "anonymous": false,
      "inputs": [
        {
          "indexed": false,
          "internalType": "uint16",
          "name": "_srcChainId",
          "type": "uint16"
        },
        {
          "indexed": false,
          "internalType": "bytes",
          "name": "_srcAddress",
          "type": "bytes"
        },
        {
          "indexed": false,
          "internalType": "uint64",
          "name": "_nonce",
          "type": "uint64"
        },
        {
          "indexed": false,
          "internalType": "bytes",
          "name": "_payload",
          "type": "bytes"
        },
        {
          "indexed": false,
          "internalType": "bytes",
          "name": "_reason",
          "type": "bytes"
        }
      ],
      "name": "MessageFailed",
      "type": "event"
    },
    {
      "anonymous": false,
      "inputs": [
        {
          "indexed": false,
          "internalType": "address",
          "name": "_address",
          "type": "address"
        }
      ],
      "name": "NonContractAddress",
      "type": "event"
    },
    {
      "anonymous": false,
      "inputs": [
        {
          "indexed": true,
          "internalType": "address",
          "name": "previousOwner",
          "type": "address"
        },
        {
          "indexed": true,
          "internalType": "address",
          "name": "newOwner",
          "type": "address"
        }
      ],
      "name": "OwnershipTransferred",
      "type": "event"
    },
    {
      "anonymous": false,
      "inputs": [
        {
          "indexed": true,
          "internalType": "uint16",
          "name": "_srcChainId",
          "type": "uint16"
        },
        {
          "indexed": true,
          "internalType": "address",
          "name": "_to",
          "type": "address"
        },
        {
          "indexed": false,
          "internalType": "uint256",
          "name": "_amount",
          "type": "uint256"
        }
      ],
      "name": "ReceiveFromChain",
      "type": "event"
    },
    {
      "anonymous": false,
      "inputs": [
        {
          "indexed": false,
          "internalType": "uint16",
          "name": "_srcChainId",
          "type": "uint16"
        },
        {
          "indexed": false,
          "internalType": "bytes",
          "name": "_srcAddress",
          "type": "bytes"
        },
        {
          "indexed": false,
          "internalType": "uint64",
          "name": "_nonce",
          "type": "uint64"
        },
        {
          "indexed": false,
          "internalType": "bytes32",
          "name": "_payloadHash",
          "type": "bytes32"
        }
      ],
      "name": "RetryMessageSuccess",
      "type": "event"
    },
    {
      "anonymous": false,
      "inputs": [
        {
          "indexed": true,
          "internalType": "uint16",
          "name": "_dstChainId",
          "type": "uint16"
        },
        {
          "indexed": true,
          "internalType": "address",
          "name": "_from",
          "type": "address"
        },
        {
          "indexed": true,
          "internalType": "bytes32",
          "name": "_toAddress",
          "type": "bytes32"
        },
        {
          "indexed": false,
          "internalType": "uint256",
          "name": "_amount",
          "type": "uint256"
        }
      ],
      "name": "SendToChain",
      "type": "event"
    },
    {
      "anonymous": false,
      "inputs": [
        {
          "indexed": false,
          "internalType": "uint16",
          "name": "_dstChainId",
          "type": "uint16"
        },
        {
          "indexed": false,
          "internalType": "uint16",
          "name": "_type",
          "type": "uint16"
        },
        {
          "indexed": false,
          "internalType": "uint256",
          "name": "_minDstGas",
          "type": "uint256"
        }
      ],
      "name": "SetMinDstGas",
      "type": "event"
    },
    {
      "anonymous": false,
      "inputs": [
        {
          "indexed": false,
          "internalType": "address",
          "name": "precrime",
          "type": "address"
        }
      ],
      "name": "SetPrecrime",
      "type": "event"
    },
    {
      "anonymous": false,
      "inputs": [
        {
          "indexed": false,
          "internalType": "uint16",
          "name": "_remoteChainId",
          "type": "uint16"
        },
        {
          "indexed": false,
          "internalType": "bytes",
          "name": "_path",
          "type": "bytes"
        }
      ],
      "name": "SetTrustedRemote",
      "type": "event"
    },
    {
      "anonymous": false,
      "inputs": [
        {
          "indexed": false,
          "internalType": "uint16",
          "name": "_remoteChainId",
          "type": "uint16"
        },
        {
          "indexed": false,
          "internalType": "bytes",
          "name": "_remoteAddress",
          "type": "bytes"
        }
      ],
      "name": "SetTrustedRemoteAddress",
      "type": "event"
    },
    {
      "anonymous": false,
      "inputs": [
        {
          "indexed": false,
          "internalType": "bool",
          "name": "_useCustomAdapterParams",
          "type": "bool"
        }
      ],
      "name": "SetUseCustomAdapterParams",
      "type": "event"
    },
    {
      "anonymous": false,
      "inputs": [
        {
          "indexed": true,
          "internalType": "address",
          "name": "from",
          "type": "address"
        },
        {
          "indexed": true,
          "internalType": "address",
          "name": "to",
          "type": "address"
        },
        {
          "indexed": false,
          "internalType": "uint256",
          "name": "value",
          "type": "uint256"
        }
      ],
      "name": "Transfer",
      "type": "event"
    },
    {
      "inputs": [],
      "name": "DEFAULT_PAYLOAD_SIZE_LIMIT",
      "outputs": [
        {
          "internalType": "uint256",
          "name": "",
          "type": "uint256"
        }
      ],
      "stateMutability": "view",
      "type": "function"
    },
    {
      "inputs": [],
      "name": "NO_EXTRA_GAS",
      "outputs": [
        {
          "internalType": "uint256",
          "name": "",
          "type": "uint256"
        }
      ],
      "stateMutability": "view",
      "type": "function"
    },
    {
      "inputs": [],
      "name": "PT_SEND",
      "outputs": [
        {
          "internalType": "uint8",
          "name": "",
          "type": "uint8"
        }
      ],
      "stateMutability": "view",
      "type": "function"
    },
    {
      "inputs": [],
      "name": "PT_SEND_AND_CALL",
      "outputs": [
        {
          "internalType": "uint8",
          "name": "",
          "type": "uint8"
        }
      ],
      "stateMutability": "view",
      "type": "function"
    },
    {
      "inputs": [
        {
          "internalType": "address",
          "name": "owner",
          "type": "address"
        },
        {
          "internalType": "address",
          "name": "spender",
          "type": "address"
        }
      ],
      "name": "allowance",
      "outputs": [
        {
          "internalType": "uint256",
          "name": "",
          "type": "uint256"
        }
      ],
      "stateMutability": "view",
      "type": "function"
    },
    {
      "inputs": [
        {
          "internalType": "address",
          "name": "spender",
          "type": "address"
        },
        {
          "internalType": "uint256",
          "name": "amount",
          "type": "uint256"
        }
      ],
      "name": "approve",
      "outputs": [
        {
          "internalType": "bool",
          "name": "",
          "type": "bool"
        }
      ],
      "stateMutability": "nonpayable",
      "type": "function"
    },
    {
      "inputs": [
        {
          "internalType": "address",
          "name": "account",
          "type": "address"
        }
      ],
      "name": "balanceOf",
      "outputs": [
        {
          "internalType": "uint256",
          "name": "",
          "type": "uint256"
        }
      ],
      "stateMutability": "view",
      "type": "function"
    },
    {
      "inputs": [
        {
          "internalType": "uint16",
          "name": "_srcChainId",
          "type": "uint16"
        },
        {
          "internalType": "bytes",
          "name": "_srcAddress",
          "type": "bytes"
        },
        {
          "internalType": "uint64",
          "name": "_nonce",
          "type": "uint64"
        },
        {
          "internalType": "bytes32",
          "name": "_from",
          "type": "bytes32"
        },
        {
          "internalType": "address",
          "name": "_to",
          "type": "address"
        },
        {
          "internalType": "uint256",
          "name": "_amount",
          "type": "uint256"
        },
        {
          "internalType": "bytes",
          "name": "_payload",
          "type": "bytes"
        },
        {
          "internalType": "uint256",
          "name": "_gasForCall",
          "type": "uint256"
        }
      ],
      "name": "callOnOFTReceived",
      "outputs": [],
      "stateMutability": "nonpayable",
      "type": "function"
    },
    {
      "inputs": [],
      "name": "circulatingSupply",
      "outputs": [
        {
          "internalType": "uint256",
          "name": "",
          "type": "uint256"
        }
      ],
      "stateMutability": "view",
      "type": "function"
    },
    {
      "inputs": [
        {
          "internalType": "uint16",
          "name": "",
          "type": "uint16"
        },
        {
          "internalType": "bytes",
          "name": "",
          "type": "bytes"
        },
        {
          "internalType": "uint64",
          "name": "",
          "type": "uint64"
        }
      ],
      "name": "creditedPackets",
      "outputs": [
        {
          "internalType": "bool",
          "name": "",
          "type": "bool"
        }
      ],
      "stateMutability": "view",
      "type": "function"
    },
    {
      "inputs": [],
      "name": "decimals",
      "outputs": [
        {
          "internalType": "uint8",
          "name": "",
          "type": "uint8"
        }
      ],
      "stateMutability": "view",
      "type": "function"
    },
    {
      "inputs": [
        {
          "internalType": "address",
          "name": "spender",
          "type": "address"
        },
        {
          "internalType": "uint256",
          "name": "subtractedValue",
          "type": "uint256"
        }
      ],
      "name": "decreaseAllowance",
      "outputs": [
        {
          "internalType": "bool",
          "name": "",
          "type": "bool"
        }
      ],
      "stateMutability": "nonpayable",
      "type": "function"
    },
    {
      "inputs": [],
      "name": "erc20",
      "outputs": [
        {
          "internalType": "address",
          "name": "",
          "type": "address"
        }
      ],
      "stateMutability": "view",
      "type": "function"
    },
    {
      "inputs": [
        {
          "internalType": "uint16",
          "name": "_dstChainId",
          "type": "uint16"
        },
        {
          "internalType": "bytes32",
          "name": "_toAddress",
          "type": "bytes32"
        },
        {
          "internalType": "uint256",
          "name": "_amount",
          "type": "uint256"
        },
        {
          "internalType": "bytes",
          "name": "_payload",
          "type": "bytes"
        },
        {
          "internalType": "uint64",
          "name": "_dstGasForCall",
          "type": "uint64"
        },
        {
          "internalType": "bool",
          "name": "_useZro",
          "type": "bool"
        },
        {
          "internalType": "bytes",
          "name": "_adapterParams",
          "type": "bytes"
        }
      ],
      "name": "estimateSendAndCallFee",
      "outputs": [
        {
          "internalType": "uint256",
          "name": "nativeFee",
          "type": "uint256"
        },
        {
          "internalType": "uint256",
          "name": "zroFee",
          "type": "uint256"
        }
      ],
      "stateMutability": "view",
      "type": "function"
    },
    {
      "inputs": [
        {
          "internalType": "uint16",
          "name": "_dstChainId",
          "type": "uint16"
        },
        {
          "internalType": "bytes32",
          "name": "_toAddress",
          "type": "bytes32"
        },
        {
          "internalType": "uint256",
          "name": "_amount",
          "type": "uint256"
        },
        {
          "internalType": "bool",
          "name": "_useZro",
          "type": "bool"
        },
        {
          "internalType": "bytes",
          "name": "_adapterParams",
          "type": "bytes"
        }
      ],
      "name": "estimateSendFee",
      "outputs": [
        {
          "internalType": "uint256",
          "name": "nativeFee",
          "type": "uint256"
        },
        {
          "internalType": "uint256",
          "name": "zroFee",
          "type": "uint256"
        }
      ],
      "stateMutability": "view",
      "type": "function"
    },
    {
      "inputs": [
        {
          "internalType": "uint16",
          "name": "",
          "type": "uint16"
        },
        {
          "internalType": "bytes",
          "name": "",
          "type": "bytes"
        },
        {
          "internalType": "uint64",
          "name": "",
          "type": "uint64"
        }
      ],
      "name": "failedMessages",
      "outputs": [
        {
          "internalType": "bytes32",
          "name": "",
          "type": "bytes32"
        }
      ],
      "stateMutability": "view",
      "type": "function"
    },
    {
      "inputs": [
        {
          "internalType": "uint16",
          "name": "_srcChainId",
          "type": "uint16"
        },
        {
          "internalType": "bytes",
          "name": "_srcAddress",
          "type": "bytes"
        }
      ],
      "name": "forceResumeReceive",
      "outputs": [],
      "stateMutability": "nonpayable",
      "type": "function"
    },
    {
      "inputs": [
        {
          "internalType": "uint16",
          "name": "_version",
          "type": "uint16"
        },
        {
          "internalType": "uint16",
          "name": "_chainId",
          "type": "uint16"
        },
        {
          "internalType": "address",
          "name": "",
          "type": "address"
        },
        {
          "internalType": "uint256",
          "name": "_configType",
          "type": "uint256"
        }
      ],
      "name": "getConfig",
      "outputs": [
        {
          "internalType": "bytes",
          "name": "",
          "type": "bytes"
        }
      ],
      "stateMutability": "view",
      "type": "function"
    },
    {
      "inputs": [
        {
          "internalType": "uint16",
          "name": "_remoteChainId",
          "type": "uint16"
        }
      ],
      "name": "getTrustedRemoteAddress",
      "outputs": [
        {
          "internalType": "bytes",
          "name": "",
          "type": "bytes"
        }
      ],
      "stateMutability": "view",
      "type": "function"
    },
    {
      "inputs": [],
      "name": "hostChainID",
      "outputs": [
        {
          "internalType": "uint256",
          "name": "",
          "type": "uint256"
        }
      ],
      "stateMutability": "view",
      "type": "function"
    },
    {
      "inputs": [
        {
          "internalType": "address",
          "name": "spender",
          "type": "address"
        },
        {
          "internalType": "uint256",
          "name": "addedValue",
          "type": "uint256"
        }
      ],
      "name": "increaseAllowance",
      "outputs": [
        {
          "internalType": "bool",
          "name": "",
          "type": "bool"
        }
      ],
      "stateMutability": "nonpayable",
      "type": "function"
    },
    {
      "inputs": [
        {
          "internalType": "uint16",
          "name": "_srcChainId",
          "type": "uint16"
        },
        {
          "internalType": "bytes",
          "name": "_srcAddress",
          "type": "bytes"
        }
      ],
      "name": "isTrustedRemote",
      "outputs": [
        {
          "internalType": "bool",
          "name": "",
          "type": "bool"
        }
      ],
      "stateMutability": "view",
      "type": "function"
    },
    {
      "inputs": [
        {
          "internalType": "uint16",
          "name": "_srcChainId",
          "type": "uint16"
        },
        {
          "internalType": "bytes",
          "name": "_payload",
          "type": "bytes"
        }
      ],
      "name": "leverageDown",
      "outputs": [],
      "stateMutability": "nonpayable",
      "type": "function"
    },
    {
      "inputs": [],
      "name": "lzEndpoint",
      "outputs": [
        {
          "internalType": "contract ILayerZeroEndpoint",
          "name": "",
          "type": "address"
        }
      ],
      "stateMutability": "view",
      "type": "function"
    },
    {
      "inputs": [
        {
          "internalType": "uint16",
          "name": "_srcChainId",
          "type": "uint16"
        },
        {
          "internalType": "bytes",
          "name": "_srcAddress",
          "type": "bytes"
        },
        {
          "internalType": "uint64",
          "name": "_nonce",
          "type": "uint64"
        },
        {
          "internalType": "bytes",
          "name": "_payload",
          "type": "bytes"
        }
      ],
      "name": "lzReceive",
      "outputs": [],
      "stateMutability": "nonpayable",
      "type": "function"
    },
    {
      "inputs": [
        {
          "internalType": "uint16",
          "name": "",
          "type": "uint16"
        },
        {
          "internalType": "uint16",
          "name": "",
          "type": "uint16"
        }
      ],
      "name": "minDstGasLookup",
      "outputs": [
        {
          "internalType": "uint256",
          "name": "",
          "type": "uint256"
        }
      ],
      "stateMutability": "view",
      "type": "function"
    },
    {
      "inputs": [],
      "name": "name",
      "outputs": [
        {
          "internalType": "string",
          "name": "",
          "type": "string"
        }
      ],
      "stateMutability": "view",
      "type": "function"
    },
    {
      "inputs": [
        {
          "internalType": "uint16",
          "name": "_srcChainId",
          "type": "uint16"
        },
        {
          "internalType": "bytes",
          "name": "_srcAddress",
          "type": "bytes"
        },
        {
          "internalType": "uint64",
          "name": "_nonce",
          "type": "uint64"
        },
        {
          "internalType": "bytes",
          "name": "_payload",
          "type": "bytes"
        }
      ],
      "name": "nonblockingLzReceive",
      "outputs": [],
      "stateMutability": "nonpayable",
      "type": "function"
    },
    {
      "inputs": [],
      "name": "owner",
      "outputs": [
        {
          "internalType": "address",
          "name": "",
          "type": "address"
        }
      ],
      "stateMutability": "view",
      "type": "function"
    },
    {
      "inputs": [
        {
          "internalType": "uint16",
          "name": "",
          "type": "uint16"
        }
      ],
      "name": "payloadSizeLimitLookup",
      "outputs": [
        {
          "internalType": "uint256",
          "name": "",
          "type": "uint256"
        }
      ],
      "stateMutability": "view",
      "type": "function"
    },
    {
      "inputs": [],
      "name": "precrime",
      "outputs": [
        {
          "internalType": "address",
          "name": "",
          "type": "address"
        }
      ],
      "stateMutability": "view",
      "type": "function"
    },
    {
      "inputs": [],
      "name": "renounceOwnership",
      "outputs": [],
      "stateMutability": "nonpayable",
      "type": "function"
    },
    {
      "inputs": [
        {
          "internalType": "uint16",
          "name": "_srcChainId",
          "type": "uint16"
        },
        {
          "internalType": "bytes",
          "name": "_srcAddress",
          "type": "bytes"
        },
        {
          "internalType": "uint64",
          "name": "_nonce",
          "type": "uint64"
        },
        {
          "internalType": "bytes",
          "name": "_payload",
          "type": "bytes"
        }
      ],
      "name": "retryMessage",
      "outputs": [],
      "stateMutability": "payable",
      "type": "function"
    },
    {
      "inputs": [
        {
          "internalType": "address",
          "name": "_from",
          "type": "address"
        },
        {
          "internalType": "uint16",
          "name": "_dstChainId",
          "type": "uint16"
        },
        {
          "internalType": "bytes32",
          "name": "_toAddress",
          "type": "bytes32"
        },
        {
          "internalType": "uint256",
          "name": "_amount",
          "type": "uint256"
        },
        {
          "internalType": "bytes",
          "name": "_payload",
          "type": "bytes"
        },
        {
          "internalType": "uint64",
          "name": "_dstGasForCall",
          "type": "uint64"
        },
        {
          "components": [
            {
              "internalType": "address payable",
              "name": "refundAddress",
              "type": "address"
            },
            {
              "internalType": "address",
              "name": "zroPaymentAddress",
              "type": "address"
            },
            {
              "internalType": "bytes",
              "name": "adapterParams",
              "type": "bytes"
            }
          ],
          "internalType": "struct ICommonOFT.LzCallParams",
          "name": "_callParams",
          "type": "tuple"
        }
      ],
      "name": "sendAndCall",
      "outputs": [],
      "stateMutability": "payable",
      "type": "function"
    },
    {
      "inputs": [
        {
          "internalType": "uint256",
          "name": "amount",
          "type": "uint256"
        },
        {
          "internalType": "address",
          "name": "leverageFor",
          "type": "address"
        },
        {
          "components": [
            {
              "internalType": "uint256",
              "name": "srcExtraGasLimit",
              "type": "uint256"
            },
            {
              "internalType": "uint16",
              "name": "lzSrcChainId",
              "type": "uint16"
            },
            {
              "internalType": "uint16",
              "name": "lzDstChainId",
              "type": "uint16"
            },
            {
              "internalType": "address",
              "name": "zroPaymentAddress",
              "type": "address"
            },
            {
              "internalType": "bytes",
              "name": "dstAirdropAdapterParam",
              "type": "bytes"
            },
            {
              "internalType": "bytes",
              "name": "srcAirdropAdapterParam",
              "type": "bytes"
            },
            {
              "internalType": "address",
              "name": "refundAddress",
              "type": "address"
            }
          ],
          "internalType": "struct IUSDOBase.ILeverageLZData",
          "name": "lzData",
          "type": "tuple"
        },
        {
          "components": [
            {
              "internalType": "address",
              "name": "tokenOut",
              "type": "address"
            },
            {
              "internalType": "uint256",
              "name": "amountOutMin",
              "type": "uint256"
            },
            {
              "internalType": "bytes",
              "name": "data",
              "type": "bytes"
            }
          ],
          "internalType": "struct IUSDOBase.ILeverageSwapData",
          "name": "swapData",
          "type": "tuple"
        },
        {
          "components": [
            {
              "internalType": "address",
              "name": "swapper",
              "type": "address"
            },
            {
              "internalType": "address",
              "name": "magnetar",
              "type": "address"
            },
            {
              "internalType": "address",
              "name": "tOft",
              "type": "address"
            },
            {
              "internalType": "address",
              "name": "srcMarket",
              "type": "address"
            }
          ],
          "internalType": "struct IUSDOBase.ILeverageExternalContractsData",
          "name": "externalData",
          "type": "tuple"
        }
      ],
      "name": "sendForLeverage",
      "outputs": [],
      "stateMutability": "payable",
      "type": "function"
    },
    {
      "inputs": [
        {
          "internalType": "address",
          "name": "_from",
          "type": "address"
        },
        {
          "internalType": "uint16",
          "name": "_dstChainId",
          "type": "uint16"
        },
        {
          "internalType": "bytes32",
          "name": "_toAddress",
          "type": "bytes32"
        },
        {
          "internalType": "uint256",
          "name": "_amount",
          "type": "uint256"
        },
        {
          "components": [
            {
              "internalType": "address payable",
              "name": "refundAddress",
              "type": "address"
            },
            {
              "internalType": "address",
              "name": "zroPaymentAddress",
              "type": "address"
            },
            {
              "internalType": "bytes",
              "name": "adapterParams",
              "type": "bytes"
            }
          ],
          "internalType": "struct ICommonOFT.LzCallParams",
          "name": "_callParams",
          "type": "tuple"
        }
      ],
      "name": "sendFrom",
      "outputs": [],
      "stateMutability": "payable",
      "type": "function"
    },
    {
      "inputs": [
        {
          "internalType": "uint16",
          "name": "_version",
          "type": "uint16"
        },
        {
          "internalType": "uint16",
          "name": "_chainId",
          "type": "uint16"
        },
        {
          "internalType": "uint256",
          "name": "_configType",
          "type": "uint256"
        },
        {
          "internalType": "bytes",
          "name": "_config",
          "type": "bytes"
        }
      ],
      "name": "setConfig",
      "outputs": [],
      "stateMutability": "nonpayable",
      "type": "function"
    },
    {
      "inputs": [
        {
          "internalType": "uint16",
          "name": "_dstChainId",
          "type": "uint16"
        },
        {
          "internalType": "uint16",
          "name": "_packetType",
          "type": "uint16"
        },
        {
          "internalType": "uint256",
          "name": "_minGas",
          "type": "uint256"
        }
      ],
      "name": "setMinDstGas",
      "outputs": [],
      "stateMutability": "nonpayable",
      "type": "function"
    },
    {
      "inputs": [
        {
          "internalType": "uint16",
          "name": "_dstChainId",
          "type": "uint16"
        },
        {
          "internalType": "uint256",
          "name": "_size",
          "type": "uint256"
        }
      ],
      "name": "setPayloadSizeLimit",
      "outputs": [],
      "stateMutability": "nonpayable",
      "type": "function"
    },
    {
      "inputs": [
        {
          "internalType": "address",
          "name": "_precrime",
          "type": "address"
        }
      ],
      "name": "setPrecrime",
      "outputs": [],
      "stateMutability": "nonpayable",
      "type": "function"
    },
    {
      "inputs": [
        {
          "internalType": "uint16",
          "name": "_version",
          "type": "uint16"
        }
      ],
      "name": "setReceiveVersion",
      "outputs": [],
      "stateMutability": "nonpayable",
      "type": "function"
    },
    {
      "inputs": [
        {
          "internalType": "uint16",
          "name": "_version",
          "type": "uint16"
        }
      ],
      "name": "setSendVersion",
      "outputs": [],
      "stateMutability": "nonpayable",
      "type": "function"
    },
    {
      "inputs": [
        {
          "internalType": "uint16",
          "name": "_srcChainId",
          "type": "uint16"
        },
        {
          "internalType": "bytes",
          "name": "_path",
          "type": "bytes"
        }
      ],
      "name": "setTrustedRemote",
      "outputs": [],
      "stateMutability": "nonpayable",
      "type": "function"
    },
    {
      "inputs": [
        {
          "internalType": "uint16",
          "name": "_remoteChainId",
          "type": "uint16"
        },
        {
          "internalType": "bytes",
          "name": "_remoteAddress",
          "type": "bytes"
        }
      ],
      "name": "setTrustedRemoteAddress",
      "outputs": [],
      "stateMutability": "nonpayable",
      "type": "function"
    },
    {
      "inputs": [
        {
          "internalType": "bool",
          "name": "_useCustomAdapterParams",
          "type": "bool"
        }
      ],
      "name": "setUseCustomAdapterParams",
      "outputs": [],
      "stateMutability": "nonpayable",
      "type": "function"
    },
    {
      "inputs": [],
      "name": "sharedDecimals",
      "outputs": [
        {
          "internalType": "uint8",
          "name": "",
          "type": "uint8"
        }
      ],
      "stateMutability": "view",
      "type": "function"
    },
    {
      "inputs": [
        {
          "internalType": "bytes4",
          "name": "interfaceId",
          "type": "bytes4"
        }
      ],
      "name": "supportsInterface",
      "outputs": [
        {
          "internalType": "bool",
          "name": "",
          "type": "bool"
        }
      ],
      "stateMutability": "view",
      "type": "function"
    },
    {
      "inputs": [],
      "name": "symbol",
      "outputs": [
        {
          "internalType": "string",
          "name": "",
          "type": "string"
        }
      ],
      "stateMutability": "view",
      "type": "function"
    },
    {
      "inputs": [],
      "name": "token",
      "outputs": [
        {
          "internalType": "address",
          "name": "",
          "type": "address"
        }
      ],
      "stateMutability": "view",
      "type": "function"
    },
    {
      "inputs": [],
      "name": "totalSupply",
      "outputs": [
        {
          "internalType": "uint256",
          "name": "",
          "type": "uint256"
        }
      ],
      "stateMutability": "view",
      "type": "function"
    },
    {
      "inputs": [
        {
          "internalType": "address",
          "name": "to",
          "type": "address"
        },
        {
          "internalType": "uint256",
          "name": "amount",
          "type": "uint256"
        }
      ],
      "name": "transfer",
      "outputs": [
        {
          "internalType": "bool",
          "name": "",
          "type": "bool"
        }
      ],
      "stateMutability": "nonpayable",
      "type": "function"
    },
    {
      "inputs": [
        {
          "internalType": "address",
          "name": "from",
          "type": "address"
        },
        {
          "internalType": "address",
          "name": "to",
          "type": "address"
        },
        {
          "internalType": "uint256",
          "name": "amount",
          "type": "uint256"
        }
      ],
      "name": "transferFrom",
      "outputs": [
        {
          "internalType": "bool",
          "name": "",
          "type": "bool"
        }
      ],
      "stateMutability": "nonpayable",
      "type": "function"
    },
    {
      "inputs": [
        {
          "internalType": "address",
          "name": "newOwner",
          "type": "address"
        }
      ],
      "name": "transferOwnership",
      "outputs": [],
      "stateMutability": "nonpayable",
      "type": "function"
    },
    {
      "inputs": [
        {
          "internalType": "uint16",
          "name": "",
          "type": "uint16"
        }
      ],
      "name": "trustedRemoteLookup",
      "outputs": [
        {
          "internalType": "bytes",
          "name": "",
          "type": "bytes"
        }
      ],
      "stateMutability": "view",
      "type": "function"
    },
    {
      "inputs": [],
      "name": "useCustomAdapterParams",
      "outputs": [
        {
          "internalType": "bool",
          "name": "",
          "type": "bool"
        }
      ],
      "stateMutability": "view",
      "type": "function"
    },
    {
      "inputs": [],
      "name": "yieldBox",
      "outputs": [
        {
          "internalType": "contract IYieldBoxBase",
          "name": "",
          "type": "address"
        }
      ],
      "stateMutability": "view",
      "type": "function"
    },
    {
      "stateMutability": "payable",
      "type": "receive"
    }
  ],
  "bytecode": "0x60e06040908082523462000576576200510c80380380916200002282856200057b565b833981019060e08183031262000576576200003d81620005b5565b906020906200004e828201620005b5565b818601516001600160a01b0380821696909291879003620005765760608401516001600160401b0395908681116200057657826200008e918701620005ef565b916080860151908782116200057657620000aa918701620005ef565b9060a086015160ff811696878203620005765760c00151978b5180956a546170696f63614f46542d60a81b85830152620000ee8151809287602b86019101620005ca565b8101039462000108602b600b97888101845201826200057b565b607f8d518096601d60fa1b878301526200012c8151809289602186019101620005ca565b810103936200014660216001968781018a5201886200057b565b841c16946000968988549d60018060a01b03199e8f33908216178b55823391167f8be0079c531659141344cd1fd0a4f28419497f9722a3daafe3b4186f6b6457e08c80a3166080528660a052825184811162000562578154938685811c9516801562000557575b8886101462000543578190601f95868111620004f0575b5088908683116001146200048c578b9262000480575b5050600019600383901b1c191690861b1790555b80519283116200046c57600c548481811c9116801562000461575b868210146200044d5782811162000404575b50849183116001146200039e57928293918392889462000392575b50501b916000199060031b1c191617600c555b601282116200033f575060120360ff81116200032b5760ff1690604d8211620003175750600a0a60c0521683600e541617600e5560ff196010541617601055600f55600d541617600d5551614ac190816200064b823960805181818161046a0152818161075101528181610874015281816109e101528181610ba9015281816118be01528181611f7f0152818161208f01528181612799015281816139150152613d31015260a05181611a07015260c051818181613f620152818161421001528181614481015261451b0152f35b634e487b7160e01b81526011600452602490fd5b634e487b7160e01b82526011600452602482fd5b6084908a519062461bcd60e51b82526004820152602760248201527f4f46543a20736861726564446563696d616c73206d757374206265203c3d20646044820152666563696d616c7360c81b6064820152fd5b01519250388062000236565b600c8752848720919083601f198116895b8888838310620003ec5750505010620003d2575b505050811b01600c5562000249565b015160001960f88460031b161c19169055388080620003c3565b868601518855909601959485019487935001620003af565b600c88528588208380860160051c82019288871062000443575b0160051c019085905b828110620004375750506200021b565b89815501859062000427565b925081926200041e565b634e487b7160e01b88526022600452602488fd5b90607f169062000209565b634e487b7160e01b87526041600452602487fd5b015190503880620001da565b848c52898c208994509190601f1984168d5b8c828210620004d95750508411620004bf575b505050811b019055620001ee565b015160001960f88460031b161c19169055388080620004b1565b8385015186558c979095019493840193016200049e565b909150838b52888b208680850160051c8201928b861062000539575b918a91869594930160051c01915b8281106200052a575050620001c4565b8d81558594508a91016200051a565b925081926200050c565b634e487b7160e01b8a52602260045260248afd5b94607f1694620001ad565b634e487b7160e01b89526041600452602489fd5b600080fd5b601f909101601f19168101906001600160401b038211908210176200059f57604052565b634e487b7160e01b600052604160045260246000fd5b51906001600160a01b03821682036200057657565b60005b838110620005de5750506000910152565b8181015183820152602001620005cd565b81601f82011215620005765780516001600160401b0381116200059f576040519262000626601f8301601f1916602001856200057b565b818452602082840101116200057657620006479160208085019101620005ca565b9056fe6080604052600436101561001b575b361561001957600080fd5b005b60003560e01c80621d35671461038f57806254af3a1461038a57806301ffc9a71461038557806306fdde031461038057806307e0db171461037b578063095ea7b3146103765780630df374831461037157806310ddb1371461036c57806318160ddd146102fe57806323b872dd14610367578063313ce56714610362578063365260b41461035d57806339509351146103585780633d8b38f6146103535780633f1f4fa41461034e57806342d65a8d1461034957806344770515146103445780634c42899a146103445780635b8c41e61461033f5780635da28eb71461033a57806366ad5c8a14610335578063695ef6bf1461033057806370a082311461032b578063715018a6146103265780637533d7881461032157806376203b481461031c578063785e9e8614610317578063796fd43a14610312578063857749b01461030d5780638cfd8f5c146103085780638da5cb5b146103035780639358928b146102fe578063950c8a74146102f957806395d89b41146102f45780639bdb9812146102ef5780639f38369a146102ea578063a457c2d7146102e5578063a4c51df5146102e0578063a6c3d165146102db578063a9059cbb146102d6578063b353aaa7146102d1578063baf3292d146102cc578063c4461834146102c7578063cbed8b9c146102c2578063d1deba1f146102bd578063dd62ed3e146102b8578063de406577146102b3578063df2a5b3b146102ae578063e6a20ae6146102a9578063eab45d9c146102a4578063eaffd49a1461029f578063eb8d72b71461029a578063ed629c5c14610295578063f2fde38b14610290578063f5ecbdbc1461028b5763fc0c546a0361000e57612803565b61272f565b612668565b612645565b6124fb565b612472565b612410565b6123f4565b6122ff565b6122d8565b61227c565b612119565b612033565b612016565b611fa3565b611f5f565b611f35565b611db2565b611d1f565b611c60565b611bbd565b611b72565b611acb565b611aa4565b6108cb565b611a7d565b611a2b565b6119ed565b611843565b61181c565b6115c0565b611569565b611421565b6113e3565b6112ee565b61125a565b610e44565b610ddd565b610c08565b610b87565b610b4e565b610af2565b610a57565b61094f565b610929565b6108e9565b610842565b610803565b6107ce565b61071f565b61063a565b610588565b61056a565b61044d565b61ffff8116036103a057565b600080fd5b9181601f840112156103a0578235916001600160401b0383116103a057602083818601950101116103a057565b608435906001600160401b03821682036103a057565b9060806003198301126103a05760043561040181610394565b916001600160401b03906024358281116103a05781610422916004016103a5565b9390939260443581811681036103a057926064359182116103a057610449916004016103a5565b9091565b346103a05761045b366103e8565b91929493906001600160a01b037f000000000000000000000000000000000000000000000000000000000000000016330361051a576104df6104e792610019976104d86104be6104b98a61ffff166000526001602052604060002090565b61154c565b8051908184149182610510575b50816104ed575b50613817565b3691610d1d565b923691610d1d565b92613afd565b90506104fa368486610d1d565b60208151910120906020815191012014386104d2565b15159150386104cb565b60405162461bcd60e51b815260206004820152601e60248201527f4c7a4170703a20696e76616c696420656e64706f696e742063616c6c657200006044820152606490fd5b60009103126103a057565b346103a05760003660031901126103a0576020600f54604051908152f35b346103a05760203660031901126103a05760043563ffffffff60e01b81168091036103a057602090631f7ecdf760e01b81149081156105cd575b506040519015158152f35b6301ffc9a760e01b149050386105c2565b60005b8381106105f15750506000910152565b81810151838201526020016105e1565b9060209161061a815180928185528580860191016105de565b601f01601f1916010190565b906020610637928181520190610601565b90565b346103a05760008060031936011261071c576040519080600b5461065d8161147c565b808552916001918083169081156106f25750600114610697575b6106938561068781870382610ca3565b60405191829182610626565b0390f35b9250600b83527f0175b7a638427703f0dbe7bb9bbf987a2551717b34e79f33b5b1008d1fa01db95b8284106106da57505050810160200161068782610693610677565b805460208587018101919091529093019281016106bf565b8695506106939693506020925061068794915060ff191682840152151560051b8201019293610677565b80fd5b346103a0576000602036600319011261071c5760043561073e81610394565b61074661281e565b816001600160a01b037f00000000000000000000000000000000000000000000000000000000000000001691823b156107b957602461ffff918360405195869485936307e0db1760e01b85521660048401525af180156107b4576107a8575080f35b6107b190610c3a565b80f35b612c76565b5080fd5b6001600160a01b038116036103a057565b346103a05760403660031901126103a0576107f86004356107ee816107bd565b6024359033612a85565b602060405160018152f35b346103a05760403660031901126103a05761ffff60043561082381610394565b61082b61281e565b166000526003602052602435604060002055600080f35b346103a0576000602036600319011261071c5760043561086181610394565b61086961281e565b816001600160a01b037f00000000000000000000000000000000000000000000000000000000000000001691823b156107b957602461ffff918360405195869485936310ddb13760e01b85521660048401525af180156107b4576107a8575080f35b346103a05760003660031901126103a0576020600a54604051908152f35b346103a05760603660031901126103a0576107f8600435610909816107bd565b602435610915816107bd565b60443591610924833383612bb2565b612968565b346103a05760003660031901126103a057602060405160128152f35b801515036103a057565b346103a05760a03660031901126103a05760043561096c81610394565b6064359061097982610945565b608435906001600160401b0382116103a05761099e6104d860409336906004016103a5565b906109d56109b86109b060443561447f565b602435614550565b928451958694859463040a7bb160e41b8652309060048701613eb6565b03816001600160a01b037f0000000000000000000000000000000000000000000000000000000000000000165afa9081156107b4576000908192610a26575b50604080519182526020820192909252f35b9050610a49915060403d8111610a50575b610a418183610ca3565b8101906131c4565b9038610a14565b503d610a37565b346103a05760403660031901126103a057600435610a74816107bd565b336000526009602052610a9e816040600020906001600160a01b0316600052602052604060002090565b546024358101809111610ab5576107f89133612a85565b612876565b9060406003198301126103a057600435610ad381610394565b91602435906001600160401b0382116103a057610449916004016103a5565b346103a057602061ffff610b3f610b0836610aba565b9390911660005260018452610b2a610b316040600020604051928380926114b6565b0382610ca3565b848151910120923691610d1d565b82815191012014604051908152f35b346103a05760203660031901126103a05761ffff600435610b6e81610394565b1660005260036020526020604060002054604051908152f35b346103a057610b9536610aba565b9190610b9f61281e565b6001600160a01b037f00000000000000000000000000000000000000000000000000000000000000001691823b156103a057604051928380926342d65a8d60e01b825281610bf66000988997889460048501613a70565b03925af180156107b4576107a8575080f35b346103a05760003660031901126103a057602060405160008152f35b634e487b7160e01b600052604160045260246000fd5b6001600160401b038111610c4d57604052565b610c24565b606081019081106001600160401b03821117610c4d57604052565b608081019081106001600160401b03821117610c4d57604052565b604081019081106001600160401b03821117610c4d57604052565b90601f801991011681019081106001600160401b03821117610c4d57604052565b6040519060e082018281106001600160401b03821117610c4d57604052565b6040519060a082018281106001600160401b03821117610c4d57604052565b6001600160401b038111610c4d57601f01601f191660200190565b929192610d2982610d02565b91610d376040519384610ca3565b8294818452818301116103a0578281602093846000960137010152565b9080601f830112156103a05781602061063793359101610d1d565b60606003198201126103a057600435610d8781610394565b916024356001600160401b03928382116103a057610da791600401610d54565b9160443590811681036103a05790565b602090610dd19282604051948386809551938492016105de565b82019081520301902090565b346103a0576020610e3b61ffff610e1a83610df736610d6f565b9490911660005260058252604060002082604051948386809551938492016105de565b820190815203019020906001600160401b0316600052602052604060002090565b54604051908152f35b346103a0576040806003193601126103a0576004610e628135610394565b6024356001600160401b0381116103a057610e809036908301610d54565b610e94602091828082518301019101612ff5565b919795509350610ea68396933061474d565b610eb08630613473565b610ed4610ec8610ec8600e546001600160a01b031690565b6001600160a01b031690565b97610f1a8488610eeb8b516001600160a01b031690565b8451938492839263095ea7b360e01b84528c8401602090939291936001600160a01b0360408201951681520152565b03816000809e5af180156107b45761122d575b508751600e5484518351631fd177af60e11b81526001600160a01b03928316818b019081529183166020830152604082019a909a526000606082018190526080820181905260a082015261014099928a92849283900360c001918391165afa9788156107b4578a986111fe575b50508086610fb5610ec8610ec88c516001600160a01b031690565b868601518c848801519b610fde86519d8e968795869463efa84c6d60e01b8652309286016131da565b03925af180156107b457611059978a916111e0575b508489019480826060611013610ec8610ec88b516001600160a01b031690565b9c019b6110278d516001600160a01b031690565b86516305da91c960e31b81526001600160a01b03909116818d0190815260208101939093529b8c928391829160400190565b03915afa9485156107b4578b998a966111a1575b50611088610ec8610ec861114693516001600160a01b031690565b9761110c47976110fc61109f8685015161ffff1690565b9e6110d66110c86110ba60608801516001600160a01b031690565b9d516001600160a01b031690565b91516001600160a01b031690565b926110df610cc4565b600181529889890152898901526001600160a01b03166060880152565b6001600160a01b03166080860152565b8a60a08501528a60c08501528a611121610ce3565b938185528401528a858401528a606084015261113b613291565b6080840152516137f7565b91873b1561119d576001600160a01b039661117894519b8c9a8b998a98635620549760e01b8a521690309089016133c3565b03925af180156107b45761118a575080f35b806111976107b192610c3a565b8061055f565b8980fd5b611146919650610ec8610ec86111cf61108893863d88116111d9575b6111c78183610ca3565b810190613282565b989350505061106d565b503d6111bd565b6111f79150823d8411610a5057610a418183610ca3565b5038610ff3565b61121e929850803d10611226575b6112168183610ca3565b81019061310c565b953880610f9a565b503d61120c565b61124c90853d8711611253575b6112448183610ca3565b8101906130b1565b5038610f2d565b503d61123a565b346103a057611268366103e8565b919294939030330361128c576104df61128692610019973691610d1d565b92613efb565b60405162461bcd60e51b815260206004820152602660248201527f4e6f6e626c6f636b696e674c7a4170703a2063616c6c6572206d7573742062656044820152650204c7a4170760d41b6064820152608490fd5b908160609103126103a05790565b60a03660031901126103a057600435611306816107bd565b60243561131281610394565b604435916084356001600160401b0381116103a057602061ffff6001600160a01b036113637fd81fc9b8523134ed613870ed029d6170cbb73aa6a6bc311b9a642689fb9df59a9436906004016112e0565b946113d68635611372816107bd565b6113906104d8878a0135996113868b6107bd565b6040810190612e73565b61139a818b61437c565b6113af6113a8606435614519565b5085614727565b986113bb8a15156140e9565b6113cd6113c78b61447f565b8d614550565b9234938c6138c9565b60405195865216941692a4005b346103a05760203660031901126103a0576001600160a01b03600435611408816107bd565b1660005260086020526020604060002054604051908152f35b346103a05760008060031936011261071c5761143b61281e565b80546001600160a01b03198116825581906001600160a01b03167f8be0079c531659141344cd1fd0a4f28419497f9722a3daafe3b4186f6b6457e08280a380f35b90600182811c921680156114ac575b602083101461149657565b634e487b7160e01b600052602260045260246000fd5b91607f169161148b565b90600092918054916114c78361147c565b91828252600193848116908160001461152957506001146114e9575b50505050565b90919394506000526020928360002092846000945b8386106115155750505050010190388080806114e3565b8054858701830152940193859082016114fe565b9294505050602093945060ff191683830152151560051b010190388080806114e3565b9061156761156092604051938480926114b6565b0383610ca3565b565b346103a05760203660031901126103a05761ffff60043561158981610394565b166000526001602052610693610b2a6115ac6040600020604051928380926114b6565b604051918291602083526020830190610601565b60e03660031901126103a0576004356115d8816107bd565b6024356115e481610394565b604435916001600160401b036084358181116103a0576116089036906004016103a5565b92909160a435818116918282036103a05760c4359081116103a0576116319036906004016112e0565b92611668843596611641886107bd565b611660611656602088013597611386896107bd565b9890923691610d1d565b963691610d1d565b9460ff6006541660001461177a5760228651106117355761172e96866020966113cd6001600160a01b03966113d6958e6117078f6116f47fd81fc9b8523134ed613870ed029d6170cbb73aa6a6bc311b9a642689fb9df59a9f9d61ffff9e8f906022015193166000528f600290526116ee60406000206001600052602052604060002090565b546128a8565b906117008215156143d1565b101561441d565b61171c611715606435614519565b508a614727565b9d8e6117298115156140e9565b61447f565b90336145cf565b60405162461bcd60e51b815260206004820152601c60248201527f4c7a4170703a20696e76616c69642061646170746572506172616d73000000006044820152606490fd5b91959480949350516117c8576113d67fd81fc9b8523134ed613870ed029d6170cbb73aa6a6bc311b9a642689fb9df59a9560209561ffff956113cd61172e9a6001600160a01b03978e611707565b60405162461bcd60e51b815260206004820152602660248201527f4f4654436f72653a205f61646170746572506172616d73206d7573742062652060448201526532b6b83a3c9760d11b6064820152608490fd5b346103a05760003660031901126103a05760206001600160a01b03600e5416604051908152f35b600319610100368201126103a05760043590602435611861816107bd565b604435916001600160401b038084116103a05760e0846004019285360301126103a0576064359081116103a05761189c9036906004016112e0565b60803660831901126103a0576040516303408e4760e41b8152926020846004817f00000000000000000000000000000000000000000000000000000000000000006001600160a01b03165afa9081156107b45761198c956119376119809461192987946119859961197a976119bf575b506119178c33614727565b506040519586938d3360208701612d84565b03601f198101845283610ca3565b604481019461194586612e5f565b9261196f611958610ec860c48601612e69565b92608461196760648701612e69565b950190612e73565b959034963691610d1d565b936138c9565b612e5f565b61ffff1690565b60405191825233918291907fd81fc9b8523134ed613870ed029d6170cbb73aa6a6bc311b9a642689fb9df59a90602090a4005b6119df9060203d81116119e6575b6119d78183610ca3565b810190612c61565b503861190c565b503d6119cd565b346103a05760003660031901126103a057602060405160ff7f0000000000000000000000000000000000000000000000000000000000000000168152f35b346103a05760403660031901126103a0576020610e3b600435611a4d81610394565b61ffff60243591611a5d83610394565b166000526002835260406000209061ffff16600052602052604060002090565b346103a05760003660031901126103a05760206001600160a01b0360005416604051908152f35b346103a05760003660031901126103a05760206001600160a01b0360045416604051908152f35b346103a05760008060031936011261071c576040519080600c54611aee8161147c565b808552916001918083169081156106f25750600114611b17576106938561068781870382610ca3565b9250600c83527fdf6966c971051c3d54ec59162606531493a51404a002842f56009d7e5cf4a8c75b828410611b5a57505050810160200161068782610693610677565b80546020858701810191909152909301928101611b3f565b346103a057602060ff611bb161ffff610e1a84611b8e36610d6f565b9490911660005260078252604060002082604051948386809551938492016105de565b54166040519015158152f35b346103a05760203660031901126103a05761ffff600435611bdd81610394565b166000526001602052610b2a611bfd6040600020604051928380926114b6565b805115611c1b5761068781611c156106939351613adf565b90614877565b60405162461bcd60e51b815260206004820152601d60248201527f4c7a4170703a206e6f20747275737465642070617468207265636f72640000006044820152606490fd5b346103a05760403660031901126103a057600435611c7d816107bd565b60243590336000526009602052611cab816040600020906001600160a01b0316600052602052604060002090565b5491808310611ccc57611cc092039033612a85565b60405160018152602090f35b60405162461bcd60e51b815260206004820152602560248201527f45524332303a2064656372656173656420616c6c6f77616e63652062656c6f77604482015264207a65726f60d81b6064820152608490fd5b346103a05760e03660031901126103a057600435611d3c81610394565b6001600160401b03906064358281116103a057611d5d9036906004016103a5565b611d689291926103d2565b60a43591611d7583610945565b60c4359586116103a057611d90611da09636906004016103a5565b9590946044359060243590613cd9565b60408051928352602083019190915290f35b346103a057611dc036610aba565b90611dc961281e565b60405192602092808385870137611df56034868381013060601b88820152036014810188520186610ca3565b60009361ffff8316855260019081815260408620918751916001600160401b038311610c4d57611e2f83611e29865461147c565b86613a8b565b80601f8411600114611e9f575091808092611e8e9695948a9b7f8c0400cfe2d1199b1a725c78960bcc2a344d869b80590d0f2bd005db15a572ce9b94611e94575b50501b916000199060031b1c19161790555b60405193849384613a70565b0390a180f35b015192503880611e70565b91939498601f198416611eb787600052602060002090565b938a905b828210611f1e575050917f8c0400cfe2d1199b1a725c78960bcc2a344d869b80590d0f2bd005db15a572ce999a95939185611e8e98969410611f05575b505050811b019055611e82565b015160001960f88460031b161c19169055388080611ef8565b808886978294978701518155019601940190611ebb565b346103a05760403660031901126103a0576107f8600435611f55816107bd565b6024359033612968565b346103a05760003660031901126103a05760206040516001600160a01b037f0000000000000000000000000000000000000000000000000000000000000000168152f35b346103a05760203660031901126103a0577f5db758e995a17ec1ad84bdef7e8c3293a0bd6179bcce400dff5d4c3d87db726b60206001600160a01b03600435611feb816107bd565b611ff361281e565b16806bffffffffffffffffffffffff60a01b6004541617600455604051908152a1005b346103a05760003660031901126103a05760206040516127108152f35b346103a05760803660031901126103a05760043561205081610394565b60243561205c81610394565b6064356001600160401b0381116103a05761207b9036906004016103a5565b909261208561281e565b6001600160a01b037f00000000000000000000000000000000000000000000000000000000000000001690813b156103a057600080946120fc604051978896879586946332fb62e760e21b865261ffff80921660048701521660248501526044356044850152608060648501526084840191612cb3565b03925af180156107b45761210c57005b8061119761001992610c3a565b612122366103e8565b9161ffff8694929616600052600560205261216981604060002060206040518092878b833787820190815203019020906001600160401b0316600052602052604060002090565b5491821561222b5761221a84836122137fc264d91f3adc5588250e1551f547752ca0cfa8f6b530d243b9f9f4cab10ea8e59a60006121ff846121e78e8a8f6122269f908f6121cd906121c06121e19436908d610d1d565b6020815191012014613c4c565b61ffff166000526005602052604060002090565b91613c33565b906001600160401b0316600052602052604060002090565b5561220b36878d610d1d565b933691610d1d565b9188613efb565b60405195869586613ca2565b0390a1005b60405162461bcd60e51b815260206004820152602360248201527f4e6f6e626c6f636b696e674c7a4170703a206e6f2073746f726564206d65737360448201526261676560e81b6064820152608490fd5b346103a05760403660031901126103a0576020610e3b60043561229e816107bd565b6001600160a01b03602435916122b3836107bd565b16600052600983526040600020906001600160a01b0316600052602052604060002090565b346103a05760003660031901126103a05760206001600160a01b03600d5416604051908152f35b346103a05760603660031901126103a05760043561231c81610394565b60243561232881610394565b6044359161233461281e565b82156123af576122267f9d5c7c0b934da8fefa9c7760c98383778a12dfbfc0c3b3106518f43fb9508ac09361ffff83166000526002602052806123898560406000209061ffff16600052602052604060002090565b556040519384938460409194939294606082019561ffff80921683521660208201520152565b60405162461bcd60e51b815260206004820152601560248201527f4c7a4170703a20696e76616c6964206d696e47617300000000000000000000006044820152606490fd5b346103a05760003660031901126103a057602060405160018152f35b346103a05760203660031901126103a0577f1584ad594a70cbe1e6515592e1272a987d922b097ead875069cebe8b40c004a4602060043561245081610945565b61245861281e565b151560ff196006541660ff821617600655604051908152a1005b346103a0576101003660031901126103a05760043561249081610394565b6001600160401b03906024358281116103a0576124b19036906004016103a5565b91906044359084821682036103a0576084356124cc816107bd565b60c4359586116103a0576124e76100199636906004016103a5565b94909360e4359660a4359460643593613dcf565b346103a05761250936610aba565b919061251361281e565b60009161ffff81168352600160209080825260408520916001600160401b038711610c4d5761254c87612546855461147c565b85613a8b565b8590601f88116001146125b35750918680879893611e8e957ffa41487ad5d6728f0b19276fa1eddc16558578f5109fc39d2dc33c3230470dab99936125a8575b501b906000198460031b1c191617905560405193849384613a70565b88013592503861258c565b90601f1988166125c885600052602060002090565b9288905b82821061262e575050918893917ffa41487ad5d6728f0b19276fa1eddc16558578f5109fc39d2dc33c3230470dab9899611e8e969410612614575b505082811b019055611e82565b870135600019600386901b60f8161c191690553880612607565b808685968294968c013581550195019301906125cc565b346103a05760003660031901126103a057602060ff600654166040519015158152f35b346103a05760203660031901126103a057600435612685816107bd565b61268d61281e565b6001600160a01b0380911680156126db57600080546001600160a01b03198116831782559092167f8be0079c531659141344cd1fd0a4f28419497f9722a3daafe3b4186f6b6457e08380a380f35b60405162461bcd60e51b815260206004820152602660248201527f4f776e61626c653a206e6577206f776e657220697320746865207a65726f206160448201526564647265737360d01b6064820152608490fd5b346103a05760803660031901126103a05760043561274c81610394565b6024359061275982610394565b6127646044356107bd565b604051633d7b2f6f60e21b815261ffff91821660048201529116602482015230604482015260648035908201526000816084817f00000000000000000000000000000000000000000000000000000000000000006001600160a01b03165afa80156107b457610693916000916127e2575b5060405191829182610626565b6127fd913d8091833e6127f58183610ca3565b810190613a4b565b386127d5565b346103a05760003660031901126103a0576020604051308152f35b6001600160a01b0360005416330361283257565b606460405162461bcd60e51b815260206004820152602060248201527f4f776e61626c653a2063616c6c6572206973206e6f7420746865206f776e65726044820152fd5b634e487b7160e01b600052601160045260246000fd5b90601f8201809211610ab557565b6051019081605111610ab557565b91908201809211610ab557565b156128bc57565b60405162461bcd60e51b815260206004820152602360248201527f45524332303a207472616e7366657220746f20746865207a65726f206164647260448201526265737360e81b6064820152608490fd5b1561291457565b60405162461bcd60e51b815260206004820152602660248201527f45524332303a207472616e7366657220616d6f756e7420657863656564732062604482015265616c616e636560d01b6064820152608490fd5b91906001600160a01b0390818416928315612a3257612a17827fddf252ad1be2c89b69c2b068fc378daa952ba7f163c4a11628f55a4df523b3ef94612a2d9416966129b48815156128b5565b6129fd846129d5836001600160a01b03166000526008602052604060002090565b546129e28282101561290d565b03916001600160a01b03166000526008602052604060002090565b556001600160a01b03166000526008602052604060002090565b8054820190556040519081529081906020820190565b0390a3565b60405162461bcd60e51b815260206004820152602560248201527f45524332303a207472616e736665722066726f6d20746865207a65726f206164604482015264647265737360d81b6064820152608490fd5b906001600160a01b0391828116928315612b61578216938415612b115780612b007f8c5be1e5ebec7d5bd14f71427d1e84f3dd0314c0f7b2291e5b200ac8c7c3b92594612ae8612a2d956001600160a01b03166000526009602052604060002090565b906001600160a01b0316600052602052604060002090565b556040519081529081906020820190565b60405162461bcd60e51b815260206004820152602260248201527f45524332303a20617070726f766520746f20746865207a65726f206164647265604482015261737360f01b6064820152608490fd5b60405162461bcd60e51b8152602060048201526024808201527f45524332303a20617070726f76652066726f6d20746865207a65726f206164646044820152637265737360e01b6064820152608490fd5b906001600160a01b0382166000526009602052612be6816040600020906001600160a01b0316600052602052604060002090565b549260018401612bf65750505050565b808410612c1157612c08930391612a85565b388080806114e3565b60405162461bcd60e51b815260206004820152601d60248201527f45524332303a20696e73756666696369656e7420616c6c6f77616e63650000006044820152606490fd5b519061156782610394565b908160209103126103a0575161063781610394565b6040513d6000823e3d90fd5b9035601e19823603018112156103a05701602081359101916001600160401b0382116103a05781360383136103a057565b908060209392818452848401376000828201840152601f01601f1916010190565b9061063790823581526020830135612ceb81610394565b61ffff80911660208301526040840135612d0481610394565b1660408201526001600160a01b036060840135612d20816107bd565b16606082015260c080612d68612d4d612d3c6080880188612c82565b60e0608088015260e0870191612cb3565b612d5a60a0880188612c82565b9086830360a0880152612cb3565b94013591612d75836107bd565b01906001600160a01b03169052565b9594926115679461012093612e4f936103088a5260208a01526040890152612df5612de2610140938460608c0152803594612dbe866107bd565b6001600160a01b03809616908c015260208101356101608c01526040810190612c82565b60606101808c01526101a08b0191612cb3565b9180608435612e03816107bd565b1660808a01528060a435612e16816107bd565b1660a08a01528060c435612e29816107bd565b1660c08a015260e435612e3b816107bd565b1660e0890152878203610100890152612cd4565b9401906001600160a01b03169052565b3561063781610394565b35610637816107bd565b903590601e19813603018212156103a057018035906001600160401b0382116103a0576020019181360383136103a057565b5190611567826107bd565b81601f820112156103a0578051612ec681610d02565b92612ed46040519485610ca3565b818452602082840101116103a05761063791602080850191016105de565b91908260809103126103a057604051612f0a81610c6d565b60608082948051612f1a816107bd565b84526020810151612f2a816107bd565b60208501526040810151612f3d816107bd565b6040850152015191612f4e836107bd565b0152565b91909160e0818403126103a057612f67610cc4565b9281518452612f7860208301612c56565b6020850152612f8960408301612c56565b6040850152612f9a60608301612ea5565b60608501526080820151916001600160401b03928381116103a05782612fc1918301612eb0565b608086015260a08101519283116103a057612fe360c092612fee948301612eb0565b60a086015201612ea5565b60c0830152565b610140818303126103a057805161300b81610394565b926020820151926040830151926060810151926001600160401b03938481116103a05782016060818503126103a0576040519061304782610c52565b8051613052816107bd565b8252602081015160208301526040810151908682116103a05761307791869101612eb0565b60408201529361308a8460808501612ef2565b936101008401519182116103a0576130aa61012091610637938601612f52565b9301612ea5565b908160209103126103a0575161063781610945565b91908260409103126103a057604051604081018181106001600160401b03821117610c4d57604052602080829480516130fe81610945565b8452015191612f4e83610945565b908181039161014083126103a05760409182519361312985610c52565b608081126103a057608090845161313f81610c6d565b845161314a816107bd565b81526020850151602082015285850151613163816107bd565b86820152606085015160608201528652607f1901126103a0576101006131bd92845161318e81610c6d565b6080820151815260a0820151602082015260c08201518682015260e082015160608201526020870152016130c6565b9082015290565b91908260409103126103a0576020825192015190565b91926106379493613259604061327094606081516001600160a01b03808251168a52602082015160208b01528482015116848a01520151606088015260606020820151805160808a0152602081015160a08a01528381015160c08a0152015160e088015201516101008601906020809180511515845201511515910152565b6101408401526001600160a01b0316610160830152565b6101a090816101808201520190610601565b908160209103126103a0575190565b6040519061329e82610c88565b6002825261060f60f31b6020830152565b60608051808352602080930192608080936000915b8483106132d45750505050505090565b9091929394958461016060019289516132ef82825115159052565b808401511515828501526040818101516001600160a01b03169083015280870151151582880152808601516001600160a01b03168287015260a0818101516001600160a01b03169083015260c0818101519083015260e080820151908301526101008082015160ff1690830152610120818101519083015261014090810151908201520197019594930191906132c4565b9060a06080610637938051151584526020810151602085015260408101511515604085015261ffff60608201511660608501520151918160808201520190610601565b9592916106379795916134649561ffff60c0956001600160a01b038095818096168d521660208c01521660408a0152166060880152815115156080880152602082015160a08801526040820151838801528060608301511660e088015260808201511661010087015260a0810151151561012087015201516101408501526134556101c08061016087015285016132af565b90848203610180860152613380565b916101a0818403910152610601565b9061347e813361354c565b600e546001600160a01b0316806134995750611567916137ab565b60405163a9059cbb60e01b602082019081526001600160a01b039490941660248201526044808201939093529182526135279260009081906134dc606486610ca3565b604051946134e986610c88565b602086527f5361666545524332303a206c6f772d6c6576656c2063616c6c206661696c65646020870152519082855af16135216136e6565b91613716565b805180613532575050565b816020806135479361156795010191016130b1565b613687565b6001600160a01b0381169081156136385761357a816001600160a01b03166000526008602052604060002090565b548381106135e857837fddf252ad1be2c89b69c2b068fc378daa952ba7f163c4a11628f55a4df523b3ef926135ca600096612a2d9403916001600160a01b03166000526008602052604060002090565b556135d881600a5403600a55565b6040519081529081906020820190565b60405162461bcd60e51b815260206004820152602260248201527f45524332303a206275726e20616d6f756e7420657863656564732062616c616e604482015261636560f01b6064820152608490fd5b60405162461bcd60e51b815260206004820152602160248201527f45524332303a206275726e2066726f6d20746865207a65726f206164647265736044820152607360f81b6064820152608490fd5b1561368e57565b60405162461bcd60e51b815260206004820152602a60248201527f5361666545524332303a204552433230206f7065726174696f6e20646964206e6044820152691bdd081cdd58d8d9595960b21b6064820152608490fd5b3d15613711573d906136f782610d02565b916137056040519384610ca3565b82523d6000602084013e565b606090565b91929015613778575081511561372a575090565b3b156137335790565b60405162461bcd60e51b815260206004820152601d60248201527f416464726573733a2063616c6c20746f206e6f6e2d636f6e74726163740000006044820152606490fd5b82519091501561378b5750805190602001fd5b60405162461bcd60e51b81529081906137a79060048301610626565b0390fd5b600080809381935af16137bc6136e6565b50156137c457565b60405162461bcd60e51b815260206004820152600b60248201526a1513d19517d9985a5b195960aa1b6044820152606490fd5b60405190600160f01b602083015260228201526022815261063781610c52565b1561381e57565b60405162461bcd60e51b815260206004820152602660248201527f4c7a4170703a20696e76616c696420736f757263652073656e64696e6720636f6044820152651b9d1c9858dd60d21b6064820152608490fd5b9261389761063797959361ffff6138a59416865260c0602087015260c0860190610601565b908482036040860152610601565b936001600160a01b03809216606084015216608082015260a0818403910152610601565b946138f29193929561ffff811660005260016020526138f96040600020604051948580926114b6565b0384610ca3565b82511561397e5761390b8551826139dc565b6001600160a01b037f00000000000000000000000000000000000000000000000000000000000000001693843b156103a05760009661396091604051998a988997889662c5803160e81b885260048801613872565b03925af180156107b4576139715750565b8061119761156792610c3a565b60405162461bcd60e51b815260206004820152603060248201527f4c7a4170703a2064657374696e6174696f6e20636861696e206973206e6f742060448201526f61207472757374656420736f7572636560801b6064820152608490fd5b61ffff166000526003602052604060002054908115613a41575b116139fd57565b606460405162461bcd60e51b815260206004820152602060248201527f4c7a4170703a207061796c6f61642073697a6520697320746f6f206c617267656044820152fd5b61271091506139f6565b906020828203126103a05781516001600160401b0381116103a0576106379201612eb0565b60409061ffff61063795931681528160208201520191612cb3565b90601f8111613a9957505050565b600091825260208220906020601f850160051c83019410613ad5575b601f0160051c01915b828110613aca57505050565b818155600101613abe565b9092508290613ab5565b601319810191908211610ab557565b605019810191908211610ab557565b929091613b615a604051633356ae4560e11b602082015261ffff871660248201526080604482015290613b5b82611929613b3a60a483018a610601565b6001600160401b038816606484015282810360231901608484015288610601565b30614a2e565b939015613b70575b5050505050565b613b7994613b83565b3880808080613b69565b9193613c207fe183f33de2837795525b4792ca4cd60535bd77c53b7e7030060bfcf5734d6b0c95613c2e939561ffff81516020830120961695866000526005602052613be783610e1a60208b604060002082604051948386809551938492016105de565b556001600160401b03613c0c604051988998895260a060208a015260a0890190610601565b921660408701528582036060870152610601565b908382036080850152610601565b0390a1565b6020919283604051948593843782019081520301902090565b15613c5357565b60405162461bcd60e51b815260206004820152602160248201527f4e6f6e626c6f636b696e674c7a4170703a20696e76616c6964207061796c6f616044820152601960fa1b6064820152608490fd5b91613cce9060609461ffff6001600160401b039499989799168552608060208601526080850191612cb3565b951660408201520152565b94919598979061172e613d02604099613cfa613d0897613d25993691610d1d565b943691610d1d565b9761447f565b928451968794859463040a7bb160e41b8652309060048701613eb6565b03816001600160a01b037f0000000000000000000000000000000000000000000000000000000000000000165afa9182156107b4576000908193613d6857509190565b905061044991925060403d8111610a5057610a418183610ca3565b93969491613db19061063799979461ffff6001600160401b039416875260c0602088015260c0870191612cb3565b961660408401526060830152608082015260a0818503910152612cb3565b91969792989594939094303303613e7157613df36001600160a01b039186306147c3565b941692836040517fbf551ec93859b170f9b2141bd9298bf3f64322c6f7beb2543a0cb669834118bf61ffff86169180613e318a829190602083019252565b0390a3833b156103a0576000988995613e61936040519c8d9b8c9a8b98633fe79aed60e11b8a5260048a01613d83565b0393f180156107b4576139715750565b60405162461bcd60e51b815260206004820152601f60248201527f4f4654436f72653a2063616c6c6572206d757374206265204f4654436f7265006044820152606490fd5b91926001600160a01b03610637969461ffff613ee69416855216602084015260a0604084015260a0830190610601565b92151560608201526080818403910152610601565b92919060ff613f09846149d3565b16806140945750505060ff613f1d826149d3565b161580614089575b613f2e90614583565b613f40613f3a8261497b565b91614a1e565b9181926001600160a01b038093161561407f575b613f88906001600160401b037f00000000000000000000000000000000000000000000000000000000000000009116614506565b91831692831561403a577fbf551ec93859b170f9b2141bd9298bf3f64322c6f7beb2543a0cb669834118bf91613fe861ffff92613fcf613fca87600a546128a8565b600a55565b6001600160a01b03166000526008602052604060002090565b8481540190558460007fddf252ad1be2c89b69c2b068fc378daa952ba7f163c4a11628f55a4df523b3ef6040518061402589829190602083019252565b0390a360405193845216918060208101612a2d565b60405162461bcd60e51b815260206004820152601f60248201527f45524332303a206d696e7420746f20746865207a65726f2061646472657373006044820152606490fd5b61dead9350613f54565b508051602914613f25565b6001036140a457611567936141c4565b60405162461bcd60e51b815260206004820152601c60248201527f4f4654436f72653a20756e6b6e6f776e207061636b65742074797065000000006044820152606490fd5b156140f057565b60405162461bcd60e51b815260206004820152601960248201527f4f4654436f72653a20616d6f756e7420746f6f20736d616c6c000000000000006044820152606490fd5b989796929394614194956001600160401b0361417060e099958d61ffff6001600160a01b03971690528d610100908160208201520190610601565b961660408c015260608b015216608089015260a088015286820360c0880152610601565b930152565b6001600160401b036141b960409396959496606084526060840190610601565b951660208201520152565b90916141cf8461463d565b90916142006141f9876121e76141f38b61ffff166000526007602052604060002090565b8c610db7565b5460ff1690565b916142366001600160401b0392837f00000000000000000000000000000000000000000000000000000000000000009116614506565b9288888b8315614332575b505050853b156142e757946142889694613b5b948a94611929948d996000146142e05750505a925b5a978b6040519a8b9863757fea4d60e11b60208b015260248a01614135565b90156142d55750906142d061ffff928560207fb8890edbfc1c74692f527444645f95489c3703cc2df42e4a366f5d06fa6cd88496975191012090604051948594169684614199565b0390a2565b926115679492613b83565b1692614269565b50506040516001600160a01b039094168452507f9aedf5fdba8716db3b6705ca00150643309995d4f818a249ed6dde6677e7792d975091955085945050602084019250613c2e915050565b906121e7614367926143618961434c614374979b3061474d565b9961ffff166000526007602052604060002090565b90610db7565b805460ff19166001179055565b88888b614241565b60065460ff16156143c95760228251106117355761ffff6022611567930151911660005260026020526143bc604060002060008052602052604060002090565b54906117008215156143d1565b50516117c857565b156143d857565b60405162461bcd60e51b815260206004820152601a60248201527f4c7a4170703a206d696e4761734c696d6974206e6f74207365740000000000006044820152606490fd5b1561442457565b60405162461bcd60e51b815260206004820152601b60248201527f4c7a4170703a20676173206c696d697420697320746f6f206c6f7700000000006044820152606490fd5b634e487b7160e01b600052601260045260246000fd5b7f000000000000000000000000000000000000000000000000000000000000000090811561450157046001600160401b03908181116144bc571690565b60405162461bcd60e51b815260206004820152601a60248201527f4f4654436f72653a20616d6f756e745344206f766572666c6f770000000000006044820152606490fd5b614469565b81810292918115918404141715610ab557565b7f0000000000000000000000000000000000000000000000000000000000000000801561450157810690818103908111610ab55791565b90604051916000602084015260218301526001600160401b0360c01b9060c01b1660418201526029815261063781610c52565b1561458a57565b60405162461bcd60e51b815260206004820152601860248201527f4f4654436f72653a20696e76616c6964207061796c6f616400000000000000006044820152606490fd5b9392607192610637946001600160a01b03604051978895600160f81b602088015260218701526001600160401b0360c01b809460c01b16604187015216604985015260c01b16606983015261462d81518092602086860191016105de565b8101036051810184520182610ca3565b90614655600160ff61464e856149d3565b1614614583565b61465e8261497b565b9061466883614a1e565b9060498451106146e257604984015193605181511061469d5761469a6051820151916146948151613aee565b906148f7565b91565b60405162461bcd60e51b815260206004820152601460248201527f746f55696e7436345f6f75744f66426f756e64730000000000000000000000006044820152606490fd5b60405162461bcd60e51b815260206004820152601560248201527f746f427974657333325f6f75744f66426f756e647300000000000000000000006044820152606490fd5b8161063791336001600160a01b038216031561354c57614748823383612bb2565b61354c565b906001600160a01b03821691821561403a57600a5490828201809211610ab5576000926147b46020927fddf252ad1be2c89b69c2b068fc378daa952ba7f163c4a11628f55a4df523b3ef94600a556001600160a01b03166000526008602052604060002090565b818154019055604051908152a3565b6106379183916001600160a01b0381163081141590816147ef575b501561296857610924833383612bb2565b9050331415386147de565b1561480157565b60405162461bcd60e51b815260206004820152600e60248201526d736c6963655f6f766572666c6f7760901b6044820152606490fd5b1561483e57565b60405162461bcd60e51b8152602060048201526011602482015270736c6963655f6f75744f66426f756e647360781b6044820152606490fd5b61488b826148848161288c565b10156147fa565b6148988282511015614837565b816148b0575050604051600081526020810160405290565b60405191601f811691821560051b808486010193838501920101905b8084106148e45750508252601f01601f191660405290565b90928351815260208091019301906148cc565b614904826148848161288c565b61491981516149128461289a565b1115614837565b81614931575050604051600081526020810160405290565b60405191601f8116916051831560051b80858701019484860193010101905b8084106149685750508252601f01601f191660405290565b9092835181526020809101930190614950565b602181511061498e57602d015160601c90565b60405162461bcd60e51b815260206004820152601560248201527f746f416464726573735f6f75744f66426f756e647300000000000000000000006044820152606490fd5b60018151106149e3576001015190565b60405162461bcd60e51b8152602060048201526013602482015272746f55696e74385f6f75744f66426f756e647360681b6044820152606490fd5b602981511061469d576029015190565b6040519392909160009160c08601916001600160401b03831187841017610c4d5783926040526096875282602088019560a036883760208451940192f1903d9060968211614a82575b6000908286523e9190565b60969150614a7756fea2646970667358221220acac95203a51bd3df328a2b2d6943e4504fc1db66d752f15ead7ba733e99b19a64736f6c63430008120033",
  "linkReferences": {},
  "deployedLinkReferences": {}
}