{
  "_format": "hh-sol-artifact-1",
  "contractName": "BaseTOFTMarketModule",
  "sourceName": "contracts/tOFT/modules/BaseTOFTMarketModule.sol",
  "abi": [
    {
      "inputs": [
        {
          "internalType": "address",
          "name": "_lzEndpoint",
          "type": "address"
        },
        {
          "internalType": "address",
          "name": "_erc20",
          "type": "address"
        },
        {
          "internalType": "contract IYieldBoxBase",
          "name": "_yieldBox",
          "type": "address"
        },
        {
          "internalType": "contract ICluster",
          "name": "_cluster",
          "type": "address"
        },
        {
          "internalType": "string",
          "name": "_name",
          "type": "string"
        },
        {
          "internalType": "string",
          "name": "_symbol",
          "type": "string"
        },
        {
          "internalType": "uint8",
          "name": "_decimal",
          "type": "uint8"
        },
        {
          "internalType": "uint256",
          "name": "_hostChainID",
          "type": "uint256"
        }
      ],
      "stateMutability": "nonpayable",
      "type": "constructor"
    },
    {
      "anonymous": false,
      "inputs": [
        {
          "indexed": true,
          "internalType": "address",
          "name": "owner",
          "type": "address"
        },
        {
          "indexed": true,
          "internalType": "address",
          "name": "spender",
          "type": "address"
        },
        {
          "indexed": false,
          "internalType": "uint256",
          "name": "value",
          "type": "uint256"
        }
      ],
      "name": "Approval",
      "type": "event"
    },
    {
      "anonymous": false,
      "inputs": [
        {
          "indexed": true,
          "internalType": "uint16",
          "name": "_srcChainId",
          "type": "uint16"
        },
        {
          "indexed": false,
          "internalType": "bytes",
          "name": "_srcAddress",
          "type": "bytes"
        },
        {
          "indexed": false,
          "internalType": "uint64",
          "name": "_nonce",
          "type": "uint64"
        },
        {
          "indexed": false,
          "internalType": "bytes32",
          "name": "_hash",
          "type": "bytes32"
        }
      ],
      "name": "CallOFTReceivedSuccess",
      "type": "event"
    },
    {
      "anonymous": false,
      "inputs": [
        {
          "indexed": false,
          "internalType": "uint16",
          "name": "_srcChainId",
          "type": "uint16"
        },
        {
          "indexed": false,
          "internalType": "bytes",
          "name": "_srcAddress",
          "type": "bytes"
        },
        {
          "indexed": false,
          "internalType": "uint64",
          "name": "_nonce",
          "type": "uint64"
        },
        {
          "indexed": false,
          "internalType": "bytes",
          "name": "_payload",
          "type": "bytes"
        },
        {
          "indexed": false,
          "internalType": "bytes",
          "name": "_reason",
          "type": "bytes"
        }
      ],
      "name": "MessageFailed",
      "type": "event"
    },
    {
      "anonymous": false,
      "inputs": [
        {
          "indexed": false,
          "internalType": "address",
          "name": "_address",
          "type": "address"
        }
      ],
      "name": "NonContractAddress",
      "type": "event"
    },
    {
      "anonymous": false,
      "inputs": [
        {
          "indexed": true,
          "internalType": "address",
          "name": "previousOwner",
          "type": "address"
        },
        {
          "indexed": true,
          "internalType": "address",
          "name": "newOwner",
          "type": "address"
        }
      ],
      "name": "OwnershipTransferred",
      "type": "event"
    },
    {
      "anonymous": false,
      "inputs": [
        {
          "indexed": true,
          "internalType": "uint16",
          "name": "_srcChainId",
          "type": "uint16"
        },
        {
          "indexed": true,
          "internalType": "address",
          "name": "_to",
          "type": "address"
        },
        {
          "indexed": false,
          "internalType": "uint256",
          "name": "_amount",
          "type": "uint256"
        }
      ],
      "name": "ReceiveFromChain",
      "type": "event"
    },
    {
      "anonymous": false,
      "inputs": [
        {
          "indexed": false,
          "internalType": "uint16",
          "name": "_srcChainId",
          "type": "uint16"
        },
        {
          "indexed": false,
          "internalType": "bytes",
          "name": "_srcAddress",
          "type": "bytes"
        },
        {
          "indexed": false,
          "internalType": "uint64",
          "name": "_nonce",
          "type": "uint64"
        },
        {
          "indexed": false,
          "internalType": "bytes32",
          "name": "_payloadHash",
          "type": "bytes32"
        }
      ],
      "name": "RetryMessageSuccess",
      "type": "event"
    },
    {
      "anonymous": false,
      "inputs": [
        {
          "indexed": true,
          "internalType": "uint16",
          "name": "_dstChainId",
          "type": "uint16"
        },
        {
          "indexed": true,
          "internalType": "address",
          "name": "_from",
          "type": "address"
        },
        {
          "indexed": true,
          "internalType": "bytes32",
          "name": "_toAddress",
          "type": "bytes32"
        },
        {
          "indexed": false,
          "internalType": "uint256",
          "name": "_amount",
          "type": "uint256"
        }
      ],
      "name": "SendToChain",
      "type": "event"
    },
    {
      "anonymous": false,
      "inputs": [
        {
          "indexed": false,
          "internalType": "uint16",
          "name": "_dstChainId",
          "type": "uint16"
        },
        {
          "indexed": false,
          "internalType": "uint16",
          "name": "_type",
          "type": "uint16"
        },
        {
          "indexed": false,
          "internalType": "uint256",
          "name": "_minDstGas",
          "type": "uint256"
        }
      ],
      "name": "SetMinDstGas",
      "type": "event"
    },
    {
      "anonymous": false,
      "inputs": [
        {
          "indexed": false,
          "internalType": "address",
          "name": "precrime",
          "type": "address"
        }
      ],
      "name": "SetPrecrime",
      "type": "event"
    },
    {
      "anonymous": false,
      "inputs": [
        {
          "indexed": false,
          "internalType": "uint16",
          "name": "_remoteChainId",
          "type": "uint16"
        },
        {
          "indexed": false,
          "internalType": "bytes",
          "name": "_path",
          "type": "bytes"
        }
      ],
      "name": "SetTrustedRemote",
      "type": "event"
    },
    {
      "anonymous": false,
      "inputs": [
        {
          "indexed": false,
          "internalType": "uint16",
          "name": "_remoteChainId",
          "type": "uint16"
        },
        {
          "indexed": false,
          "internalType": "bytes",
          "name": "_remoteAddress",
          "type": "bytes"
        }
      ],
      "name": "SetTrustedRemoteAddress",
      "type": "event"
    },
    {
      "anonymous": false,
      "inputs": [
        {
          "indexed": false,
          "internalType": "bool",
          "name": "_useCustomAdapterParams",
          "type": "bool"
        }
      ],
      "name": "SetUseCustomAdapterParams",
      "type": "event"
    },
    {
      "anonymous": false,
      "inputs": [
        {
          "indexed": true,
          "internalType": "address",
          "name": "from",
          "type": "address"
        },
        {
          "indexed": true,
          "internalType": "address",
          "name": "to",
          "type": "address"
        },
        {
          "indexed": false,
          "internalType": "uint256",
          "name": "value",
          "type": "uint256"
        }
      ],
      "name": "Transfer",
      "type": "event"
    },
    {
      "inputs": [],
      "name": "DEFAULT_PAYLOAD_SIZE_LIMIT",
      "outputs": [
        {
          "internalType": "uint256",
          "name": "",
          "type": "uint256"
        }
      ],
      "stateMutability": "view",
      "type": "function"
    },
    {
      "inputs": [],
      "name": "NO_EXTRA_GAS",
      "outputs": [
        {
          "internalType": "uint256",
          "name": "",
          "type": "uint256"
        }
      ],
      "stateMutability": "view",
      "type": "function"
    },
    {
      "inputs": [],
      "name": "PT_SEND",
      "outputs": [
        {
          "internalType": "uint8",
          "name": "",
          "type": "uint8"
        }
      ],
      "stateMutability": "view",
      "type": "function"
    },
    {
      "inputs": [],
      "name": "PT_SEND_AND_CALL",
      "outputs": [
        {
          "internalType": "uint8",
          "name": "",
          "type": "uint8"
        }
      ],
      "stateMutability": "view",
      "type": "function"
    },
    {
      "inputs": [
        {
          "internalType": "address",
          "name": "owner",
          "type": "address"
        },
        {
          "internalType": "address",
          "name": "spender",
          "type": "address"
        }
      ],
      "name": "allowance",
      "outputs": [
        {
          "internalType": "uint256",
          "name": "",
          "type": "uint256"
        }
      ],
      "stateMutability": "view",
      "type": "function"
    },
    {
      "inputs": [
        {
          "internalType": "address",
          "name": "spender",
          "type": "address"
        },
        {
          "internalType": "uint256",
          "name": "amount",
          "type": "uint256"
        }
      ],
      "name": "approve",
      "outputs": [
        {
          "internalType": "bool",
          "name": "",
          "type": "bool"
        }
      ],
      "stateMutability": "nonpayable",
      "type": "function"
    },
    {
      "inputs": [
        {
          "internalType": "address",
          "name": "account",
          "type": "address"
        }
      ],
      "name": "balanceOf",
      "outputs": [
        {
          "internalType": "uint256",
          "name": "",
          "type": "uint256"
        }
      ],
      "stateMutability": "view",
      "type": "function"
    },
    {
      "inputs": [
        {
          "internalType": "address",
          "name": "module",
          "type": "address"
        },
        {
          "internalType": "uint16",
          "name": "_srcChainId",
          "type": "uint16"
        },
        {
          "internalType": "bytes",
          "name": "_srcAddress",
          "type": "bytes"
        },
        {
          "internalType": "uint64",
          "name": "_nonce",
          "type": "uint64"
        },
        {
          "internalType": "bytes",
          "name": "_payload",
          "type": "bytes"
        }
      ],
      "name": "borrow",
      "outputs": [],
      "stateMutability": "payable",
      "type": "function"
    },
    {
      "inputs": [
        {
          "internalType": "bytes32",
          "name": "_to",
          "type": "bytes32"
        },
        {
          "components": [
            {
              "internalType": "uint256",
              "name": "amount",
              "type": "uint256"
            },
            {
              "internalType": "uint256",
              "name": "borrowAmount",
              "type": "uint256"
            },
            {
              "internalType": "address",
              "name": "marketHelper",
              "type": "address"
            },
            {
              "internalType": "address",
              "name": "market",
              "type": "address"
            }
          ],
          "internalType": "struct ITapiocaOFT.IBorrowParams",
          "name": "borrowParams",
          "type": "tuple"
        },
        {
          "components": [
            {
              "internalType": "bool",
              "name": "withdraw",
              "type": "bool"
            },
            {
              "internalType": "uint256",
              "name": "withdrawLzFeeAmount",
              "type": "uint256"
            },
            {
              "internalType": "bool",
              "name": "withdrawOnOtherChain",
              "type": "bool"
            },
            {
              "internalType": "uint16",
              "name": "withdrawLzChainId",
              "type": "uint16"
            },
            {
              "internalType": "bytes",
              "name": "withdrawAdapterParams",
              "type": "bytes"
            }
          ],
          "internalType": "struct ICommonData.IWithdrawParams",
          "name": "withdrawParams",
          "type": "tuple"
        },
        {
          "components": [
            {
              "internalType": "bool",
              "name": "permitAll",
              "type": "bool"
            },
            {
              "internalType": "bool",
              "name": "allowFailure",
              "type": "bool"
            },
            {
              "internalType": "address",
              "name": "target",
              "type": "address"
            },
            {
              "internalType": "bool",
              "name": "permitBorrow",
              "type": "bool"
            },
            {
              "internalType": "address",
              "name": "owner",
              "type": "address"
            },
            {
              "internalType": "address",
              "name": "spender",
              "type": "address"
            },
            {
              "internalType": "uint256",
              "name": "value",
              "type": "uint256"
            },
            {
              "internalType": "uint256",
              "name": "deadline",
              "type": "uint256"
            },
            {
              "internalType": "uint8",
              "name": "v",
              "type": "uint8"
            },
            {
              "internalType": "bytes32",
              "name": "r",
              "type": "bytes32"
            },
            {
              "internalType": "bytes32",
              "name": "s",
              "type": "bytes32"
            }
          ],
          "internalType": "struct ICommonData.IApproval[]",
          "name": "approvals",
          "type": "tuple[]"
        }
      ],
      "name": "borrowInternal",
      "outputs": [],
      "stateMutability": "payable",
      "type": "function"
    },
    {
      "inputs": [
        {
          "internalType": "uint16",
          "name": "_srcChainId",
          "type": "uint16"
        },
        {
          "internalType": "bytes",
          "name": "_srcAddress",
          "type": "bytes"
        },
        {
          "internalType": "uint64",
          "name": "_nonce",
          "type": "uint64"
        },
        {
          "internalType": "bytes32",
          "name": "_from",
          "type": "bytes32"
        },
        {
          "internalType": "address",
          "name": "_to",
          "type": "address"
        },
        {
          "internalType": "uint256",
          "name": "_amount",
          "type": "uint256"
        },
        {
          "internalType": "bytes",
          "name": "_payload",
          "type": "bytes"
        },
        {
          "internalType": "uint256",
          "name": "_gasForCall",
          "type": "uint256"
        }
      ],
      "name": "callOnOFTReceived",
      "outputs": [],
      "stateMutability": "nonpayable",
      "type": "function"
    },
    {
      "inputs": [],
      "name": "circulatingSupply",
      "outputs": [
        {
          "internalType": "uint256",
          "name": "",
          "type": "uint256"
        }
      ],
      "stateMutability": "view",
      "type": "function"
    },
    {
      "inputs": [],
      "name": "cluster",
      "outputs": [
        {
          "internalType": "contract ICluster",
          "name": "",
          "type": "address"
        }
      ],
      "stateMutability": "view",
      "type": "function"
    },
    {
      "inputs": [
        {
          "internalType": "uint16",
          "name": "",
          "type": "uint16"
        },
        {
          "internalType": "bytes",
          "name": "",
          "type": "bytes"
        },
        {
          "internalType": "uint64",
          "name": "",
          "type": "uint64"
        }
      ],
      "name": "creditedPackets",
      "outputs": [
        {
          "internalType": "bool",
          "name": "",
          "type": "bool"
        }
      ],
      "stateMutability": "view",
      "type": "function"
    },
    {
      "inputs": [],
      "name": "decimals",
      "outputs": [
        {
          "internalType": "uint8",
          "name": "",
          "type": "uint8"
        }
      ],
      "stateMutability": "view",
      "type": "function"
    },
    {
      "inputs": [
        {
          "internalType": "address",
          "name": "spender",
          "type": "address"
        },
        {
          "internalType": "uint256",
          "name": "subtractedValue",
          "type": "uint256"
        }
      ],
      "name": "decreaseAllowance",
      "outputs": [
        {
          "internalType": "bool",
          "name": "",
          "type": "bool"
        }
      ],
      "stateMutability": "nonpayable",
      "type": "function"
    },
    {
      "inputs": [],
      "name": "erc20",
      "outputs": [
        {
          "internalType": "address",
          "name": "",
          "type": "address"
        }
      ],
      "stateMutability": "view",
      "type": "function"
    },
    {
      "inputs": [
        {
          "internalType": "uint16",
          "name": "_dstChainId",
          "type": "uint16"
        },
        {
          "internalType": "bytes32",
          "name": "_toAddress",
          "type": "bytes32"
        },
        {
          "internalType": "uint256",
          "name": "_amount",
          "type": "uint256"
        },
        {
          "internalType": "bytes",
          "name": "_payload",
          "type": "bytes"
        },
        {
          "internalType": "uint64",
          "name": "_dstGasForCall",
          "type": "uint64"
        },
        {
          "internalType": "bool",
          "name": "_useZro",
          "type": "bool"
        },
        {
          "internalType": "bytes",
          "name": "_adapterParams",
          "type": "bytes"
        }
      ],
      "name": "estimateSendAndCallFee",
      "outputs": [
        {
          "internalType": "uint256",
          "name": "nativeFee",
          "type": "uint256"
        },
        {
          "internalType": "uint256",
          "name": "zroFee",
          "type": "uint256"
        }
      ],
      "stateMutability": "view",
      "type": "function"
    },
    {
      "inputs": [
        {
          "internalType": "uint16",
          "name": "_dstChainId",
          "type": "uint16"
        },
        {
          "internalType": "bytes32",
          "name": "_toAddress",
          "type": "bytes32"
        },
        {
          "internalType": "uint256",
          "name": "_amount",
          "type": "uint256"
        },
        {
          "internalType": "bool",
          "name": "_useZro",
          "type": "bool"
        },
        {
          "internalType": "bytes",
          "name": "_adapterParams",
          "type": "bytes"
        }
      ],
      "name": "estimateSendFee",
      "outputs": [
        {
          "internalType": "uint256",
          "name": "nativeFee",
          "type": "uint256"
        },
        {
          "internalType": "uint256",
          "name": "zroFee",
          "type": "uint256"
        }
      ],
      "stateMutability": "view",
      "type": "function"
    },
    {
      "inputs": [
        {
          "internalType": "uint16",
          "name": "",
          "type": "uint16"
        },
        {
          "internalType": "bytes",
          "name": "",
          "type": "bytes"
        },
        {
          "internalType": "uint64",
          "name": "",
          "type": "uint64"
        }
      ],
      "name": "failedMessages",
      "outputs": [
        {
          "internalType": "bytes32",
          "name": "",
          "type": "bytes32"
        }
      ],
      "stateMutability": "view",
      "type": "function"
    },
    {
      "inputs": [
        {
          "internalType": "uint16",
          "name": "_srcChainId",
          "type": "uint16"
        },
        {
          "internalType": "bytes",
          "name": "_srcAddress",
          "type": "bytes"
        }
      ],
      "name": "forceResumeReceive",
      "outputs": [],
      "stateMutability": "nonpayable",
      "type": "function"
    },
    {
      "inputs": [
        {
          "internalType": "uint16",
          "name": "_version",
          "type": "uint16"
        },
        {
          "internalType": "uint16",
          "name": "_chainId",
          "type": "uint16"
        },
        {
          "internalType": "address",
          "name": "",
          "type": "address"
        },
        {
          "internalType": "uint256",
          "name": "_configType",
          "type": "uint256"
        }
      ],
      "name": "getConfig",
      "outputs": [
        {
          "internalType": "bytes",
          "name": "",
          "type": "bytes"
        }
      ],
      "stateMutability": "view",
      "type": "function"
    },
    {
      "inputs": [
        {
          "internalType": "uint16",
          "name": "_remoteChainId",
          "type": "uint16"
        }
      ],
      "name": "getTrustedRemoteAddress",
      "outputs": [
        {
          "internalType": "bytes",
          "name": "",
          "type": "bytes"
        }
      ],
      "stateMutability": "view",
      "type": "function"
    },
    {
      "inputs": [],
      "name": "hostChainID",
      "outputs": [
        {
          "internalType": "uint256",
          "name": "",
          "type": "uint256"
        }
      ],
      "stateMutability": "view",
      "type": "function"
    },
    {
      "inputs": [
        {
          "internalType": "address",
          "name": "spender",
          "type": "address"
        },
        {
          "internalType": "uint256",
          "name": "addedValue",
          "type": "uint256"
        }
      ],
      "name": "increaseAllowance",
      "outputs": [
        {
          "internalType": "bool",
          "name": "",
          "type": "bool"
        }
      ],
      "stateMutability": "nonpayable",
      "type": "function"
    },
    {
      "inputs": [
        {
          "internalType": "address",
          "name": "from",
          "type": "address"
        },
        {
          "internalType": "uint256",
          "name": "amount",
          "type": "uint256"
        },
        {
          "components": [
            {
              "internalType": "address",
              "name": "tokenOut",
              "type": "address"
            },
            {
              "internalType": "uint256",
              "name": "amountOutMin",
              "type": "uint256"
            },
            {
              "internalType": "bytes",
              "name": "data",
              "type": "bytes"
            }
          ],
          "internalType": "struct IUSDOBase.ILeverageSwapData",
          "name": "swapData",
          "type": "tuple"
        },
        {
          "components": [
            {
              "internalType": "uint256",
              "name": "srcExtraGasLimit",
              "type": "uint256"
            },
            {
              "internalType": "uint16",
              "name": "lzSrcChainId",
              "type": "uint16"
            },
            {
              "internalType": "uint16",
              "name": "lzDstChainId",
              "type": "uint16"
            },
            {
              "internalType": "address",
              "name": "zroPaymentAddress",
              "type": "address"
            },
            {
              "internalType": "bytes",
              "name": "dstAirdropAdapterParam",
              "type": "bytes"
            },
            {
              "internalType": "bytes",
              "name": "srcAirdropAdapterParam",
              "type": "bytes"
            },
            {
              "internalType": "address",
              "name": "refundAddress",
              "type": "address"
            }
          ],
          "internalType": "struct IUSDOBase.ILeverageLZData",
          "name": "lzData",
          "type": "tuple"
        },
        {
          "components": [
            {
              "internalType": "address",
              "name": "swapper",
              "type": "address"
            },
            {
              "internalType": "address",
              "name": "magnetar",
              "type": "address"
            },
            {
              "internalType": "address",
              "name": "tOft",
              "type": "address"
            },
            {
              "internalType": "address",
              "name": "srcMarket",
              "type": "address"
            }
          ],
          "internalType": "struct IUSDOBase.ILeverageExternalContractsData",
          "name": "externalData",
          "type": "tuple"
        },
        {
          "internalType": "bytes",
          "name": "airdropAdapterParams",
          "type": "bytes"
        },
        {
          "components": [
            {
              "internalType": "bool",
              "name": "permitAll",
              "type": "bool"
            },
            {
              "internalType": "bool",
              "name": "allowFailure",
              "type": "bool"
            },
            {
              "internalType": "address",
              "name": "target",
              "type": "address"
            },
            {
              "internalType": "bool",
              "name": "permitBorrow",
              "type": "bool"
            },
            {
              "internalType": "address",
              "name": "owner",
              "type": "address"
            },
            {
              "internalType": "address",
              "name": "spender",
              "type": "address"
            },
            {
              "internalType": "uint256",
              "name": "value",
              "type": "uint256"
            },
            {
              "internalType": "uint256",
              "name": "deadline",
              "type": "uint256"
            },
            {
              "internalType": "uint8",
              "name": "v",
              "type": "uint8"
            },
            {
              "internalType": "bytes32",
              "name": "r",
              "type": "bytes32"
            },
            {
              "internalType": "bytes32",
              "name": "s",
              "type": "bytes32"
            }
          ],
          "internalType": "struct ICommonData.IApproval[]",
          "name": "approvals",
          "type": "tuple[]"
        }
      ],
      "name": "initMultiSell",
      "outputs": [],
      "stateMutability": "payable",
      "type": "function"
    },
    {
      "inputs": [
        {
          "internalType": "uint16",
          "name": "_srcChainId",
          "type": "uint16"
        },
        {
          "internalType": "bytes",
          "name": "_srcAddress",
          "type": "bytes"
        }
      ],
      "name": "isTrustedRemote",
      "outputs": [
        {
          "internalType": "bool",
          "name": "",
          "type": "bool"
        }
      ],
      "stateMutability": "view",
      "type": "function"
    },
    {
      "inputs": [],
      "name": "lzEndpoint",
      "outputs": [
        {
          "internalType": "contract ILayerZeroEndpoint",
          "name": "",
          "type": "address"
        }
      ],
      "stateMutability": "view",
      "type": "function"
    },
    {
      "inputs": [
        {
          "internalType": "uint16",
          "name": "_srcChainId",
          "type": "uint16"
        },
        {
          "internalType": "bytes",
          "name": "_srcAddress",
          "type": "bytes"
        },
        {
          "internalType": "uint64",
          "name": "_nonce",
          "type": "uint64"
        },
        {
          "internalType": "bytes",
          "name": "_payload",
          "type": "bytes"
        }
      ],
      "name": "lzReceive",
      "outputs": [],
      "stateMutability": "nonpayable",
      "type": "function"
    },
    {
      "inputs": [
        {
          "internalType": "uint16",
          "name": "",
          "type": "uint16"
        },
        {
          "internalType": "uint16",
          "name": "",
          "type": "uint16"
        }
      ],
      "name": "minDstGasLookup",
      "outputs": [
        {
          "internalType": "uint256",
          "name": "",
          "type": "uint256"
        }
      ],
      "stateMutability": "view",
      "type": "function"
    },
    {
      "inputs": [],
      "name": "name",
      "outputs": [
        {
          "internalType": "string",
          "name": "",
          "type": "string"
        }
      ],
      "stateMutability": "view",
      "type": "function"
    },
    {
      "inputs": [
        {
          "internalType": "uint16",
          "name": "_srcChainId",
          "type": "uint16"
        },
        {
          "internalType": "bytes",
          "name": "_srcAddress",
          "type": "bytes"
        },
        {
          "internalType": "uint64",
          "name": "_nonce",
          "type": "uint64"
        },
        {
          "internalType": "bytes",
          "name": "_payload",
          "type": "bytes"
        }
      ],
      "name": "nonblockingLzReceive",
      "outputs": [],
      "stateMutability": "nonpayable",
      "type": "function"
    },
    {
      "inputs": [],
      "name": "owner",
      "outputs": [
        {
          "internalType": "address",
          "name": "",
          "type": "address"
        }
      ],
      "stateMutability": "view",
      "type": "function"
    },
    {
      "inputs": [
        {
          "internalType": "uint16",
          "name": "",
          "type": "uint16"
        }
      ],
      "name": "payloadSizeLimitLookup",
      "outputs": [
        {
          "internalType": "uint256",
          "name": "",
          "type": "uint256"
        }
      ],
      "stateMutability": "view",
      "type": "function"
    },
    {
      "inputs": [],
      "name": "precrime",
      "outputs": [
        {
          "internalType": "address",
          "name": "",
          "type": "address"
        }
      ],
      "stateMutability": "view",
      "type": "function"
    },
    {
      "inputs": [
        {
          "internalType": "bytes",
          "name": "_payload",
          "type": "bytes"
        }
      ],
      "name": "remove",
      "outputs": [],
      "stateMutability": "nonpayable",
      "type": "function"
    },
    {
      "inputs": [
        {
          "internalType": "address",
          "name": "from",
          "type": "address"
        },
        {
          "internalType": "address",
          "name": "to",
          "type": "address"
        },
        {
          "internalType": "uint16",
          "name": "lzDstChainId",
          "type": "uint16"
        },
        {
          "internalType": "address",
          "name": "zroPaymentAddress",
          "type": "address"
        },
        {
          "components": [
            {
              "internalType": "bool",
              "name": "withdraw",
              "type": "bool"
            },
            {
              "internalType": "uint256",
              "name": "withdrawLzFeeAmount",
              "type": "uint256"
            },
            {
              "internalType": "bool",
              "name": "withdrawOnOtherChain",
              "type": "bool"
            },
            {
              "internalType": "uint16",
              "name": "withdrawLzChainId",
              "type": "uint16"
            },
            {
              "internalType": "bytes",
              "name": "withdrawAdapterParams",
              "type": "bytes"
            }
          ],
          "internalType": "struct ICommonData.IWithdrawParams",
          "name": "withdrawParams",
          "type": "tuple"
        },
        {
          "components": [
            {
              "internalType": "uint256",
              "name": "amount",
              "type": "uint256"
            },
            {
              "internalType": "address",
              "name": "marketHelper",
              "type": "address"
            },
            {
              "internalType": "address",
              "name": "market",
              "type": "address"
            }
          ],
          "internalType": "struct ITapiocaOFT.IRemoveParams",
          "name": "removeParams",
          "type": "tuple"
        },
        {
          "components": [
            {
              "internalType": "bool",
              "name": "permitAll",
              "type": "bool"
            },
            {
              "internalType": "bool",
              "name": "allowFailure",
              "type": "bool"
            },
            {
              "internalType": "address",
              "name": "target",
              "type": "address"
            },
            {
              "internalType": "bool",
              "name": "permitBorrow",
              "type": "bool"
            },
            {
              "internalType": "address",
              "name": "owner",
              "type": "address"
            },
            {
              "internalType": "address",
              "name": "spender",
              "type": "address"
            },
            {
              "internalType": "uint256",
              "name": "value",
              "type": "uint256"
            },
            {
              "internalType": "uint256",
              "name": "deadline",
              "type": "uint256"
            },
            {
              "internalType": "uint8",
              "name": "v",
              "type": "uint8"
            },
            {
              "internalType": "bytes32",
              "name": "r",
              "type": "bytes32"
            },
            {
              "internalType": "bytes32",
              "name": "s",
              "type": "bytes32"
            }
          ],
          "internalType": "struct ICommonData.IApproval[]",
          "name": "approvals",
          "type": "tuple[]"
        },
        {
          "internalType": "bytes",
          "name": "adapterParams",
          "type": "bytes"
        }
      ],
      "name": "removeCollateral",
      "outputs": [],
      "stateMutability": "payable",
      "type": "function"
    },
    {
      "inputs": [],
      "name": "renounceOwnership",
      "outputs": [],
      "stateMutability": "nonpayable",
      "type": "function"
    },
    {
      "inputs": [
        {
          "internalType": "uint16",
          "name": "_srcChainId",
          "type": "uint16"
        },
        {
          "internalType": "bytes",
          "name": "_srcAddress",
          "type": "bytes"
        },
        {
          "internalType": "uint64",
          "name": "_nonce",
          "type": "uint64"
        },
        {
          "internalType": "bytes",
          "name": "_payload",
          "type": "bytes"
        }
      ],
      "name": "retryMessage",
      "outputs": [],
      "stateMutability": "payable",
      "type": "function"
    },
    {
      "inputs": [
        {
          "internalType": "address",
          "name": "_from",
          "type": "address"
        },
        {
          "internalType": "uint16",
          "name": "_dstChainId",
          "type": "uint16"
        },
        {
          "internalType": "bytes32",
          "name": "_toAddress",
          "type": "bytes32"
        },
        {
          "internalType": "uint256",
          "name": "_amount",
          "type": "uint256"
        },
        {
          "internalType": "bytes",
          "name": "_payload",
          "type": "bytes"
        },
        {
          "internalType": "uint64",
          "name": "_dstGasForCall",
          "type": "uint64"
        },
        {
          "components": [
            {
              "internalType": "address payable",
              "name": "refundAddress",
              "type": "address"
            },
            {
              "internalType": "address",
              "name": "zroPaymentAddress",
              "type": "address"
            },
            {
              "internalType": "bytes",
              "name": "adapterParams",
              "type": "bytes"
            }
          ],
          "internalType": "struct ICommonOFT.LzCallParams",
          "name": "_callParams",
          "type": "tuple"
        }
      ],
      "name": "sendAndCall",
      "outputs": [],
      "stateMutability": "payable",
      "type": "function"
    },
    {
      "inputs": [
        {
          "internalType": "address",
          "name": "_from",
          "type": "address"
        },
        {
          "internalType": "uint16",
          "name": "_dstChainId",
          "type": "uint16"
        },
        {
          "internalType": "bytes32",
          "name": "_toAddress",
          "type": "bytes32"
        },
        {
          "internalType": "uint256",
          "name": "_amount",
          "type": "uint256"
        },
        {
          "components": [
            {
              "internalType": "address payable",
              "name": "refundAddress",
              "type": "address"
            },
            {
              "internalType": "address",
              "name": "zroPaymentAddress",
              "type": "address"
            },
            {
              "internalType": "bytes",
              "name": "adapterParams",
              "type": "bytes"
            }
          ],
          "internalType": "struct ICommonOFT.LzCallParams",
          "name": "_callParams",
          "type": "tuple"
        }
      ],
      "name": "sendFrom",
      "outputs": [],
      "stateMutability": "payable",
      "type": "function"
    },
    {
      "inputs": [
        {
          "internalType": "address",
          "name": "_from",
          "type": "address"
        },
        {
          "internalType": "address",
          "name": "_to",
          "type": "address"
        },
        {
          "internalType": "uint16",
          "name": "lzDstChainId",
          "type": "uint16"
        },
        {
          "internalType": "bytes",
          "name": "airdropAdapterParams",
          "type": "bytes"
        },
        {
          "components": [
            {
              "internalType": "uint256",
              "name": "amount",
              "type": "uint256"
            },
            {
              "internalType": "uint256",
              "name": "borrowAmount",
              "type": "uint256"
            },
            {
              "internalType": "address",
              "name": "marketHelper",
              "type": "address"
            },
            {
              "internalType": "address",
              "name": "market",
              "type": "address"
            }
          ],
          "internalType": "struct ITapiocaOFT.IBorrowParams",
          "name": "borrowParams",
          "type": "tuple"
        },
        {
          "components": [
            {
              "internalType": "bool",
              "name": "withdraw",
              "type": "bool"
            },
            {
              "internalType": "uint256",
              "name": "withdrawLzFeeAmount",
              "type": "uint256"
            },
            {
              "internalType": "bool",
              "name": "withdrawOnOtherChain",
              "type": "bool"
            },
            {
              "internalType": "uint16",
              "name": "withdrawLzChainId",
              "type": "uint16"
            },
            {
              "internalType": "bytes",
              "name": "withdrawAdapterParams",
              "type": "bytes"
            }
          ],
          "internalType": "struct ICommonData.IWithdrawParams",
          "name": "withdrawParams",
          "type": "tuple"
        },
        {
          "components": [
            {
              "internalType": "uint256",
              "name": "extraGasLimit",
              "type": "uint256"
            },
            {
              "internalType": "address",
              "name": "zroPaymentAddress",
              "type": "address"
            }
          ],
          "internalType": "struct ICommonData.ISendOptions",
          "name": "options",
          "type": "tuple"
        },
        {
          "components": [
            {
              "internalType": "bool",
              "name": "permitAll",
              "type": "bool"
            },
            {
              "internalType": "bool",
              "name": "allowFailure",
              "type": "bool"
            },
            {
              "internalType": "address",
              "name": "target",
              "type": "address"
            },
            {
              "internalType": "bool",
              "name": "permitBorrow",
              "type": "bool"
            },
            {
              "internalType": "address",
              "name": "owner",
              "type": "address"
            },
            {
              "internalType": "address",
              "name": "spender",
              "type": "address"
            },
            {
              "internalType": "uint256",
              "name": "value",
              "type": "uint256"
            },
            {
              "internalType": "uint256",
              "name": "deadline",
              "type": "uint256"
            },
            {
              "internalType": "uint8",
              "name": "v",
              "type": "uint8"
            },
            {
              "internalType": "bytes32",
              "name": "r",
              "type": "bytes32"
            },
            {
              "internalType": "bytes32",
              "name": "s",
              "type": "bytes32"
            }
          ],
          "internalType": "struct ICommonData.IApproval[]",
          "name": "approvals",
          "type": "tuple[]"
        }
      ],
      "name": "sendToYBAndBorrow",
      "outputs": [],
      "stateMutability": "payable",
      "type": "function"
    },
    {
      "inputs": [
        {
          "internalType": "uint16",
          "name": "_version",
          "type": "uint16"
        },
        {
          "internalType": "uint16",
          "name": "_chainId",
          "type": "uint16"
        },
        {
          "internalType": "uint256",
          "name": "_configType",
          "type": "uint256"
        },
        {
          "internalType": "bytes",
          "name": "_config",
          "type": "bytes"
        }
      ],
      "name": "setConfig",
      "outputs": [],
      "stateMutability": "nonpayable",
      "type": "function"
    },
    {
      "inputs": [
        {
          "internalType": "uint16",
          "name": "_dstChainId",
          "type": "uint16"
        },
        {
          "internalType": "uint16",
          "name": "_packetType",
          "type": "uint16"
        },
        {
          "internalType": "uint256",
          "name": "_minGas",
          "type": "uint256"
        }
      ],
      "name": "setMinDstGas",
      "outputs": [],
      "stateMutability": "nonpayable",
      "type": "function"
    },
    {
      "inputs": [
        {
          "internalType": "uint16",
          "name": "_dstChainId",
          "type": "uint16"
        },
        {
          "internalType": "uint256",
          "name": "_size",
          "type": "uint256"
        }
      ],
      "name": "setPayloadSizeLimit",
      "outputs": [],
      "stateMutability": "nonpayable",
      "type": "function"
    },
    {
      "inputs": [
        {
          "internalType": "address",
          "name": "_precrime",
          "type": "address"
        }
      ],
      "name": "setPrecrime",
      "outputs": [],
      "stateMutability": "nonpayable",
      "type": "function"
    },
    {
      "inputs": [
        {
          "internalType": "uint16",
          "name": "_version",
          "type": "uint16"
        }
      ],
      "name": "setReceiveVersion",
      "outputs": [],
      "stateMutability": "nonpayable",
      "type": "function"
    },
    {
      "inputs": [
        {
          "internalType": "uint16",
          "name": "_version",
          "type": "uint16"
        }
      ],
      "name": "setSendVersion",
      "outputs": [],
      "stateMutability": "nonpayable",
      "type": "function"
    },
    {
      "inputs": [
        {
          "internalType": "uint16",
          "name": "_srcChainId",
          "type": "uint16"
        },
        {
          "internalType": "bytes",
          "name": "_path",
          "type": "bytes"
        }
      ],
      "name": "setTrustedRemote",
      "outputs": [],
      "stateMutability": "nonpayable",
      "type": "function"
    },
    {
      "inputs": [
        {
          "internalType": "uint16",
          "name": "_remoteChainId",
          "type": "uint16"
        },
        {
          "internalType": "bytes",
          "name": "_remoteAddress",
          "type": "bytes"
        }
      ],
      "name": "setTrustedRemoteAddress",
      "outputs": [],
      "stateMutability": "nonpayable",
      "type": "function"
    },
    {
      "inputs": [
        {
          "internalType": "bool",
          "name": "_useCustomAdapterParams",
          "type": "bool"
        }
      ],
      "name": "setUseCustomAdapterParams",
      "outputs": [],
      "stateMutability": "nonpayable",
      "type": "function"
    },
    {
      "inputs": [],
      "name": "sharedDecimals",
      "outputs": [
        {
          "internalType": "uint8",
          "name": "",
          "type": "uint8"
        }
      ],
      "stateMutability": "view",
      "type": "function"
    },
    {
      "inputs": [
        {
          "internalType": "bytes4",
          "name": "interfaceId",
          "type": "bytes4"
        }
      ],
      "name": "supportsInterface",
      "outputs": [
        {
          "internalType": "bool",
          "name": "",
          "type": "bool"
        }
      ],
      "stateMutability": "view",
      "type": "function"
    },
    {
      "inputs": [],
      "name": "symbol",
      "outputs": [
        {
          "internalType": "string",
          "name": "",
          "type": "string"
        }
      ],
      "stateMutability": "view",
      "type": "function"
    },
    {
      "inputs": [],
      "name": "token",
      "outputs": [
        {
          "internalType": "address",
          "name": "",
          "type": "address"
        }
      ],
      "stateMutability": "view",
      "type": "function"
    },
    {
      "inputs": [],
      "name": "totalSupply",
      "outputs": [
        {
          "internalType": "uint256",
          "name": "",
          "type": "uint256"
        }
      ],
      "stateMutability": "view",
      "type": "function"
    },
    {
      "inputs": [
        {
          "internalType": "address",
          "name": "to",
          "type": "address"
        },
        {
          "internalType": "uint256",
          "name": "amount",
          "type": "uint256"
        }
      ],
      "name": "transfer",
      "outputs": [
        {
          "internalType": "bool",
          "name": "",
          "type": "bool"
        }
      ],
      "stateMutability": "nonpayable",
      "type": "function"
    },
    {
      "inputs": [
        {
          "internalType": "address",
          "name": "from",
          "type": "address"
        },
        {
          "internalType": "address",
          "name": "to",
          "type": "address"
        },
        {
          "internalType": "uint256",
          "name": "amount",
          "type": "uint256"
        }
      ],
      "name": "transferFrom",
      "outputs": [
        {
          "internalType": "bool",
          "name": "",
          "type": "bool"
        }
      ],
      "stateMutability": "nonpayable",
      "type": "function"
    },
    {
      "inputs": [
        {
          "internalType": "address",
          "name": "newOwner",
          "type": "address"
        }
      ],
      "name": "transferOwnership",
      "outputs": [],
      "stateMutability": "nonpayable",
      "type": "function"
    },
    {
      "inputs": [
        {
          "internalType": "uint16",
          "name": "",
          "type": "uint16"
        }
      ],
      "name": "trustedRemoteLookup",
      "outputs": [
        {
          "internalType": "bytes",
          "name": "",
          "type": "bytes"
        }
      ],
      "stateMutability": "view",
      "type": "function"
    },
    {
      "inputs": [],
      "name": "useCustomAdapterParams",
      "outputs": [
        {
          "internalType": "bool",
          "name": "",
          "type": "bool"
        }
      ],
      "stateMutability": "view",
      "type": "function"
    },
    {
      "inputs": [],
      "name": "yieldBox",
      "outputs": [
        {
          "internalType": "contract IYieldBoxBase",
          "name": "",
          "type": "address"
        }
      ],
      "stateMutability": "view",
      "type": "function"
    },
    {
      "stateMutability": "payable",
      "type": "receive"
    }
  ],
  "bytecode": "0x60e060409080825234620005a057620062ff8038038091620000228285620005a5565b8339810161010082820312620005a0576200003d82620005df565b906020926200004e848201620005df565b818601516001600160a01b0380821694929091859003620005a057606084015196828816809803620005a05760808501516001600160401b039490858111620005a057816200009f91880162000619565b9060a087015190868211620005a057620000bb91880162000619565b9160c087015160ff811696878203620005a05762000116602b60e08f9b01519a5180966a546170696f63614f46542d60a81b878301526200010581518092898686019101620005f4565b810103600b810187520185620005a5565b607f8d518096601d60fa1b868301526200013a8151809288602186019101620005f4565b810103926200015460216001958681018a520188620005a5565b831c16936000958887549d60018060a01b03199e8f33908216178a55823391167f8be0079c531659141344cd1fd0a4f28419497f9722a3daafe3b4186f6b6457e08b80a3166080528560a05281518381116200058c57600b54928584811c9416801562000581575b878510146200056d578190601f9485811162000519575b508790858311600114620004b3578a92620004a7575b5050600019600383901b1c191690851b17600b555b80519283116200049357600c548481811c9116801562000488575b8682101462000474578281116200042b575b5084918311600114620003c5579282939183928894620003b9575b50501b916000199060031b1c191617600c555b6012821162000366575060120360ff8111620003525760ff1690604d82116200033e5750600a0a60c0521684600f541617600f5560ff19601154161760115560105581600d541617600d55600e541617600e5551615c8a90816200067582396080518181816104af0152818161079001528181610aeb01528181610fed015281816111b6015281816121a3015281816124d801528181612b8001528181613858015281816148c40152614ecc015260a05181611c64015260c05181818161135e0152818161231c015281816150f90152818161535a015281816154f6015261557b0152f35b634e487b7160e01b81526011600452602490fd5b634e487b7160e01b82526011600452602482fd5b6084908b519062461bcd60e51b82526004820152602760248201527f4f46543a20736861726564446563696d616c73206d757374206265203c3d20646044820152666563696d616c7360c81b6064820152fd5b01519250388062000246565b600c8752848720919083601f198116895b8888838310620004135750505010620003f9575b505050811b01600c5562000259565b015160001960f88460031b161c19169055388080620003ea565b868601518855909601959485019487935001620003d6565b600c88528588208380860160051c8201928887106200046a575b0160051c019085905b8281106200045e5750506200022b565b8981550185906200044e565b9250819262000445565b634e487b7160e01b88526022600452602488fd5b90607f169062000219565b634e487b7160e01b87526041600452602487fd5b015190503880620001e9565b600b8b52888b208894509190601f1984168c5b8b828210620005025750508411620004e8575b505050811b01600b55620001fe565b015160001960f88460031b161c19169055388080620004d9565b8385015186558b97909501949384019301620004c6565b909150600b8a52878a208580850160051c8201928a861062000563575b918991869594930160051c01915b82811062000554575050620001d3565b8c815585945089910162000544565b9250819262000536565b634e487b7160e01b89526022600452602489fd5b93607f1693620001bc565b634e487b7160e01b88526041600452602488fd5b600080fd5b601f909101601f19168101906001600160401b03821190821017620005c957604052565b634e487b7160e01b600052604160045260246000fd5b51906001600160a01b0382168203620005a057565b60005b838110620006085750506000910152565b8181015183820152602001620005f7565b81601f82011215620005a05780516001600160401b038111620005c9576040519262000650601f8301601f191660200185620005a5565b81845260208284010111620005a057620006719160208085019101620005f4565b9056fe6080604052600436101561001b575b361561001957600080fd5b005b60003560e01c80621d3567146103df57806254af3a146103da57806301ffc9a7146103d557806306fdde03146103d057806307e0db17146103cb578063095ea7b3146103c657806309be4511146103c15780630df37483146103bc57806310ddb137146103b757806318160ddd1461033f57806319b88372146103b257806323b872dd146103ad578063296c5221146103a8578063313ce567146103a3578063365260b41461039e57806339509351146103995780633d8b38f6146103945780633f1f4fa41461038f57806342d65a8d1461038a57806344770515146103855780634c42899a1461038557806358c5cfb81461038057806358edef4c1461037b5780635b8c41e61461037657806366ad5c8a14610371578063695ef6bf1461036c57806370a0823114610367578063715018a6146103625780637533d7881461035d57806376203b4814610358578063785e9e8614610353578063857749b01461034e5780638cfd8f5c146103495780638da5cb5b146103445780639358928b1461033f578063950c8a741461033a57806395d89b41146103355780639bdb9812146103305780639f38369a1461032b578063a457c2d714610326578063a4c51df514610321578063a6c3d1651461031c578063a9059cbb14610317578063b353aaa714610312578063baf3292d1461030d578063bc48a9e814610308578063c446183414610303578063cbed8b9c146102fe578063d1deba1f146102f9578063dbd01de1146102f4578063dd62ed3e146102ef578063de406577146102ea578063df2a5b3b146102e5578063e6a20ae6146102e0578063eab45d9c146102db578063eaffd49a146102d6578063eb8d72b7146102d1578063ed629c5c146102cc578063f2fde38b146102c7578063f5ecbdbc146102c25763fc0c546a0361000e57612bea565b612b16565b612a61565b612a3e565b612915565b61288c565b61282a565b61280e565b612721565b6126f8565b6126ae565b612685565b61254d565b612484565b612467565b612242565b6121d2565b61218d565b612163565b612001565b611f6a565b611ebe565b611e1b565b611dd0565b611d2c565b611d03565b610b4c565b611cda565b611c88565b611c4a565b611c21565b611a7d565b611a26565b6118f2565b6118b5565b6117d2565b61174c565b6116f8565b6112f2565b611255565b61121d565b61119c565b611163565b6110f3565b61106b565b610f63565b610f47565b610eaf565b610c33565b610b8e565b610ac2565b610a83565b6109de565b61084a565b610767565b610687565b6105d5565b6105b7565b610498565b61ffff8116036103f057565b600080fd5b9181601f840112156103f0578235916001600160401b0383116103f057602083818601950101116103f057565b6001600160401b038116036103f057565b9060806003198301126103f05760043561044c816103e4565b916001600160401b03906024358281116103f0578161046d916004016103f5565b9390939260443561047d81610422565b926064359182116103f057610494916004016103f5565b9091565b346103f0576104a636610433565b929493919291907f00000000000000000000000000000000000000000000000000000000000000006001600160a01b031633036105675761052c610534926100199761052561050b6105068a61ffff166000526001602052604060002090565b611a0b565b805190818414918261055d575b508161053a575b506147cd565b3691610ca3565b923691610ca3565b92614c5f565b9050610547368486610ca3565b602081519101209060208151910120143861051f565b1515915038610518565b60405162461bcd60e51b815260206004820152601e60248201527f4c7a4170703a20696e76616c696420656e64706f696e742063616c6c657200006044820152606490fd5b60009103126103f057565b346103f05760003660031901126103f0576020601054604051908152f35b346103f05760203660031901126103f05760043563ffffffff60e01b81168091036103f057602090631f7ecdf760e01b811490811561061a575b506040519015158152f35b6301ffc9a760e01b1490503861060f565b60005b83811061063e5750506000910152565b818101518382015260200161062e565b906020916106678151809281855285808601910161062b565b601f01601f1916010190565b90602061068492818152019061064e565b90565b346103f0576000806003193601126107645760405181600b546106a98161193b565b8084529060019081811690811561073c57506001146106e3575b6106df846106d381880382610927565b60405191829182610673565b0390f35b600b8352602094507f0175b7a638427703f0dbe7bb9bbf987a2551717b34e79f33b5b1008d1fa01db95b82841061072957505050816106df936106d392820101936106c3565b805485850187015292850192810161070d565b6106df96506106d39450602092508593915060ff191682840152151560051b820101936106c3565b80fd5b346103f0576000602036600319011261076457600435610786816103e4565b61078e612c05565b7f00000000000000000000000000000000000000000000000000000000000000006001600160a01b0316908290823b1561080257602461ffff918360405195869485936307e0db1760e01b85521660048401525af180156107fd576107f1575080f35b6107fa906108a3565b80f35b6135c0565b5080fd5b6001600160a01b031690565b6001600160a01b038116036103f057565b6004359061083082610812565b565b6064359061083082610812565b359061083082610812565b346103f05760403660031901126103f05761087460043561086a81610812565b6024359033612e79565b602060405160018152f35b908160a09103126103f05790565b634e487b7160e01b600052604160045260246000fd5b6001600160401b0381116108b657604052565b61088d565b606081019081106001600160401b038211176108b657604052565b60a081019081106001600160401b038211176108b657604052565b608081019081106001600160401b038211176108b657604052565b604081019081106001600160401b038211176108b657604052565b601f909101601f19168101906001600160401b038211908210176108b657604052565b6040519061016082016001600160401b038111838210176108b657604052565b60609060a31901126103f05760405190610983826108bb565b8160a435815260c43561099581610812565b6020820152604060e435916109a983610812565b0152565b9181601f840112156103f0578235916001600160401b0383116103f05760208085019461016085020101116103f057565b6101403660031901126103f0576004356109f781610812565b602435610a0381610812565b60443591610a10836103e4565b610a18610832565b6001600160401b03936084358581116103f057610a3990369060040161087f565b610a423661096a565b90610104358781116103f057610a5c9036906004016109ad565b949093610124359889116103f057610a7b6100199936906004016103f5565b989097613607565b346103f05760403660031901126103f05761ffff600435610aa3816103e4565b610aab612c05565b166000526003602052602435604060002055600080f35b346103f0576000602036600319011261076457600435610ae1816103e4565b610ae9612c05565b7f00000000000000000000000000000000000000000000000000000000000000006001600160a01b0316908290823b1561080257602461ffff918360405195869485936310ddb13760e01b85521660048401525af180156107fd576107f1575080f35b346103f05760003660031901126103f0576020600a54604051908152f35b60809060831901126103f057608490565b6040906101231901126103f05761012490565b6101803660031901126103f057600435610ba781610812565b602435610bb381610812565b60443591610bc0836103e4565b6001600160401b03926064358481116103f057610be19036906004016103f5565b610bea36610b6a565b90610104358781116103f057610c0490369060040161087f565b92610c0e36610b7b565b94610164359889116103f057610c2b6100199936906004016109ad565b989097613811565b346103f05760603660031901126103f057610874600435610c5381610812565b602435610c5f81610812565b60443591610c6e833383612f7f565b612daa565b801515036103f057565b359061083082610c73565b6001600160401b0381116108b657601f01601f191660200190565b929192610caf82610c88565b91610cbd6040519384610927565b8294818452818301116103f0578281602093846000960137010152565b9080601f830112156103f05781602061068493359101610ca3565b919060a0838203126103f05760405190610d0e826108d6565b81938035610d1b81610c73565b8352602081013560208401526040810135610d3581610c73565b60408401526060810135610d48816103e4565b60608401526080810135916001600160401b0383116103f057608092610d6e9201610cda565b910152565b6001600160401b0381116108b65760051b60200190565b60ff8116036103f057565b359061083082610d8a565b81601f820112156103f057803590610db782610d73565b92604090610dc782519586610927565b8385526020918286019183610160809702860101948186116103f0578401925b858410610df8575050505050505090565b86848303126103f057848791610e0c61094a565b610e1587610c7d565b8152610e22838801610c7d565b83820152610e3186880161083f565b868201526060610e42818901610c7d565b908201526080610e5381890161083f565b9082015260a0610e6481890161083f565b9082015260c0808801359082015260e08088013590820152610100610e8a818901610d95565b9082015261012080880135908201526101408088013590820152815201930192610de7565b60e03660031901126103f05760803660231901126103f057604051610ed3816108f1565b60243581526044356020820152606435610eec81610812565b6040820152608435610efd81610812565b60608201526001600160401b039060a4358281116103f057610f23903690600401610cf5565b60c4359283116103f057610f3e610019933690600401610da0565b91600435613fe2565b346103f05760003660031901126103f057602060405160128152f35b346103f05760a03660031901126103f057600435610f80816103e4565b60643590610f8d82610c73565b608435906001600160401b0382116103f057610fb261052560409336906004016103f5565b90610fe9610fcc610fc46044356154f4565b6024356155b0565b928451958694859463040a7bb160e41b8652309060048701615056565b03817f00000000000000000000000000000000000000000000000000000000000000006001600160a01b03165afa9081156107fd57600090819261103a575b50604080519182526020820192909252f35b905061105d915060403d8111611064575b6110558183610927565b810190615040565b9038611028565b503d61104b565b346103f05760403660031901126103f05760043561108881610812565b33600052600960205261109f816040600020612c91565b5460243581018091116110b6576108749133612e79565b612cb8565b9060406003198301126103f0576004356110d4816103e4565b91602435906001600160401b0382116103f057610494916004016103f5565b346103f057602061ffff611140611109366110bb565b939091166000526001845261112b611132604060002060405192838092611975565b0382610927565b848151910120923691610ca3565b82815191012014604051908152f35b61ffff166000526007602052604060002090565b346103f05760203660031901126103f05761ffff600435611183816103e4565b1660005260036020526020604060002054604051908152f35b346103f0576111aa366110bb565b91906111b4612c05565b7f00000000000000000000000000000000000000000000000000000000000000006001600160a01b031691823b156103f057604051928380926342d65a8d60e01b82528161120b6000988997889460048501614bf0565b03925af180156107fd576107f1575080f35b346103f05760003660031901126103f057602060405160008152f35b908160609103126103f05790565b908160e09103126103f05790565b6101403660031901126103f05761126a610823565b6001600160401b03906044358281116103f05761128b903690600401611239565b906064358381116103f0576112a4903690600401611247565b6112ad36610b6a565b90610104358581116103f0576112c79036906004016103f5565b929091610124359687116103f0576112e66100199736906004016109ad565b96909560243590613327565b346103f0576020806003193601126103f0576004906001600160401b03908235908282116103f05761133b61132d6113849336908701610cda565b8280825183010191016140c5565b8051929a6001600160a01b039687169a9698509196509293509190611667575b507f0000000000000000000000000000000000000000000000000000000000000000911661346c565b85528560409182870193856113a461139f61139f8851610806565b610806565b855163de40657760e01b815294859182905afa80156107fd57899360009161163a575b501693856113db61139f61139f8451610806565b85516377607a1760e11b81529a8b9182905afa9889156107fd57600099611617575b5087518451638eb22cdd60e01b81528481018b815260208101929092526000604083015291908790839081906060015b0381895afa9182156107fd576000926115e8575b506114908761145461139f600e54610806565b61145e8451610806565b8851633a304d8b60e21b815260008982019081526001600160a01b039092166020830152938492918391829160400190565b03915afa80156107fd576114d1926114b761139f9261139f946000916115bb575b506135cc565b6114ca856114c58351610806565b612ca8565b5051610806565b803b156103f057845163cce19f8160e01b81526001600160a01b0389168582018181526020810191909152604081019390935291600091839182908490829060600103925af180156107fd576115a8575b50805161152b57005b61153d61139f61139f878a0151610806565b94810151926080611553606084015161ffff1690565b985192015197863b156103f057600098611585938980938895519d8e9c8d9b8c9a63de57614760e01b8c528b016141a0565b03925af180156107fd5761159557005b806115a2610019926108a3565b806105ac565b806115a26115b5926108a3565b38611522565b6115db91508c8d3d106115e1575b6115d38183610927565b8101906135ab565b386114b1565b503d6115c9565b611609919250873d8911611610575b6116018183610927565b810190614191565b9038611441565b503d6115f7565b61142d91995061163390873d8911611610576116018183610927565b98906113fd565b61165a9150873d8911611660575b6116528183610927565b81019061417c565b386113c7565b503d611648565b611670906142ec565b3861135b565b9060606003198301126103f05760043561168f816103e4565b91602435906001600160401b0382116103f0576116ae91600401610cda565b9060443561068481610422565b6020906116d592826040519483868095519384920161062b565b82019081520301902090565b9060018060401b0316600052602052604060002090565b346103f057602061174361ffff6117358361171236611676565b94909116600052600582526040600020826040519483868095519384920161062b565b8201908152030190206116e1565b54604051908152f35b346103f05761175a36610433565b919294939030330361177e5761052c61177892610019973691610ca3565b9261509a565b60405162461bcd60e51b815260206004820152602660248201527f4e6f6e626c6f636b696e674c7a4170703a2063616c6c6572206d7573742062656044820152650204c7a4170760d41b6064820152608490fd5b60a03660031901126103f0576004356117ea81610812565b6024356117f6816103e4565b604435916084356001600160401b0381116103f057602061ffff61182d600080516020615b95833981519152933690600401611239565b936118a0853561183c81610812565b61185a61052586890135986118508a610812565b6040810190614e4a565b611864818a6154a5565b611879611872606435615579565b508561576e565b9761188589151561524f565b6118976118918a6154f4565b8c6155b0565b9234938b614880565b6040519485526001600160a01b0316941692a4005b346103f05760203660031901126103f0576004356118d281610812565b60018060a01b031660005260086020526020604060002054604051908152f35b346103f0576000806003193601126107645761190c612c05565b80546001600160a01b03198116825581906001600160a01b0316600080516020615bf58339815191528280a380f35b90600182811c9216801561196b575b602083101461195557565b634e487b7160e01b600052602260045260246000fd5b91607f169161194a565b90600092918054916119868361193b565b9182825260019384811690816000146119e857506001146119a8575b50505050565b90919394506000526020928360002092846000945b8386106119d45750505050010190388080806119a2565b8054858701830152940193859082016119bd565b9294505050602093945060ff191683830152151560051b010190388080806119a2565b90610830611a1f9260405193848092611975565b0383610927565b346103f05760203660031901126103f05761ffff600435611a46816103e4565b1660005260016020526106df61112b611a69604060002060405192838092611975565b60405191829160208352602083019061064e565b60e03660031901126103f057600435611a9581610812565b602435611aa1816103e4565b604435916001600160401b03906084358281116103f057611ac69036906004016103f5565b91909260a435611ad581610422565b60c4358281116103f057611aed903690600401611239565b9086611b25833596611afe88610812565b611b1d611b1360208701359661185088610812565b9a90923691610ca3565b983691610ca3565b9360ff60065416600014611b9257936020959361189784611b60600080516020615b958339815191529a958561ffff9a6118a0991691614b0d565b611b75611b6e606435615579565b508861576e565b9a611b818c151561524f565b8d611b8b8d6154f4565b903361562b565b50508293919251611bc057600080516020615b958339815191529460209461ffff946118976118a094611b60565b60405162461bcd60e51b815260206004820152602660248201527f4f4654436f72653a205f61646170746572506172616d73206d7573742062652060448201526532b6b83a3c9760d11b6064820152608490fd5b6001600160a01b03169052565b346103f05760003660031901126103f057600f546040516001600160a01b039091168152602090f35b346103f05760003660031901126103f057602060405160ff7f0000000000000000000000000000000000000000000000000000000000000000168152f35b346103f05760403660031901126103f0576020611743600435611caa816103e4565b61ffff60243591611cba836103e4565b166000526002835260406000209061ffff16600052602052604060002090565b346103f05760003660031901126103f0576000546040516001600160a01b039091168152602090f35b346103f05760003660031901126103f0576004546040516001600160a01b039091168152602090f35b346103f0576000806003193601126107645760405181600c54611d4e8161193b565b8084529060019081811690811561073c5750600114611d77576106df846106d381880382610927565b600c8352602094507fdf6966c971051c3d54ec59162606531493a51404a002842f56009d7e5cf4a8c75b828410611dbd57505050816106df936106d392820101936106c3565b8054858501870152928501928101611da1565b346103f057602060ff611e0f61ffff61173584611dec36611676565b94909116600052600782526040600020826040519483868095519384920161062b565b54166040519015158152f35b346103f05760203660031901126103f05761ffff600435611e3b816103e4565b16600052600160205261112b611e5b604060002060405192838092611975565b805115611e79576106d381611e736106df9351613495565b90615988565b60405162461bcd60e51b815260206004820152601d60248201527f4c7a4170703a206e6f20747275737465642070617468207265636f72640000006044820152606490fd5b346103f05760403660031901126103f057600435611edb81610812565b60243590336000526009602052611ef6816040600020612c91565b5491808310611f1757611f0b92039033612e79565b60405160018152602090f35b60405162461bcd60e51b815260206004820152602560248201527f45524332303a2064656372656173656420616c6c6f77616e63652062656c6f77604482015264207a65726f60d81b6064820152608490fd5b346103f05760e03660031901126103f057600435611f87816103e4565b6001600160401b03906064358281116103f057611fa89036906004016103f5565b608492919235611fb781610422565b60a43591611fc483610c73565b60c4359586116103f057611fdf611fef9636906004016103f5565b9590946044359060243590614e7c565b60408051928352602083019190915290f35b346103f05761200f366110bb565b90612018612c05565b604051926020928083858701376120446034868381013060601b88820152036014810188520186610927565b61ffff8216600090815260018086526040822087519296909291906001600160401b0383116108b6576120818361207b865461193b565b86614c0b565b80601f84116001146120df5750918080926120ce9695948a9b600080516020615bb58339815191529b946120d4575b50501b916000199060031b1c19161790555b60405193849384614bf0565b0390a180f35b0151925038806120b0565b91939498601f1984166120f787600052602060002090565b938a905b82821061214c57505091600080516020615bb5833981519152999a959391856120ce98969410612133575b505050811b0190556120c2565b015160001960f88460031b161c19169055388080612126565b8088869782949787015181550196019401906120fb565b346103f05760403660031901126103f05761087460043561218381610812565b6024359033612daa565b346103f05760003660031901126103f0576040517f00000000000000000000000000000000000000000000000000000000000000006001600160a01b03168152602090f35b346103f05760203660031901126103f0577f5db758e995a17ec1ad84bdef7e8c3293a0bd6179bcce400dff5d4c3d87db726b602060043561221281610812565b61221a612c05565b600480546001600160a01b0319166001600160a01b03929092169182179055604051908152a1005b60a03660031901126103f05760043561225a81610812565b602435612266816103e4565b6001600160401b03916044358381116103f057612287903690600401610cda565b60643561229381610422565b608435928584116103f057600061ffff93612342936122c5600080516020615bd5833981519152973690600401610cda565b916122f46122ef6122e88760018060a01b03166000526012602052604060002090565b5460ff1690565b613977565b836123086020855186010160208601613b9e565b9a95509a9360018060a09e94939e1b03169f7f0000000000000000000000000000000000000000000000000000000000000000911661346c565b8a5261234d30612c5d565b54988d8b886123786123746122e88361236f8d6123698961114f565b906116bb565b6116e1565b1590565b61242f575b506123bd91506123af61238f30612c5d565b549b604051948593602085019763296c522160e01b895260248601613caa565b03601f198101835282610927565b51915af4936123ca613dd5565b94156123f4575b50505050505051926123ef6040519283921694829190602083019252565b0390a3005b61241395612401916134b3565b86518091101561241e575b5088614cf3565b3880808080806123d1565b612429908b30613e05565b3861240c565b61236f61244c61245f94612447612452955130615884565b61114f565b8a6116bb565b805460ff19166001179055565b8d8b8861237d565b346103f05760003660031901126103f05760206040516127108152f35b346103f05760803660031901126103f0576004356124a1816103e4565b6024356124ad816103e4565b6064356001600160401b0381116103f0576124cc9036906004016103f5565b90926124d6612c05565b7f00000000000000000000000000000000000000000000000000000000000000006001600160a01b031690813b156103f05760008094611585604051978896879586946332fb62e760e21b865261ffff80921660048701521660248501526044356044850152608060648501526084840191613041565b61255636610433565b9161ffff8694929616600052600560205261258a81604060002060206040518092878b8337878201908152030190206116e1565b5491821561263457612623848361261c7fc264d91f3adc5588250e1551f547752ca0cfa8f6b530d243b9f9f4cab10ea8e59a60006126088461236f8e8a8f61262f9f908f6125ee906125e16126029436908d610ca3565b6020815191012014614dbd565b61ffff166000526005602052604060002090565b91614da4565b5561261436878d610ca3565b933691610ca3565b918861509a565b60405195869586614e13565b0390a1005b60405162461bcd60e51b815260206004820152602360248201527f4e6f6e626c6f636b696e674c7a4170703a206e6f2073746f726564206d65737360448201526261676560e81b6064820152608490fd5b346103f05760003660031901126103f057600e546040516001600160a01b039091168152602090f35b346103f05760403660031901126103f05760206117436004356126d081610812565b602435906126dd82610812565b6001600160a01b031660009081526009845260409020612c91565b346103f05760003660031901126103f057600d546040516001600160a01b039091168152602090f35b346103f05760603660031901126103f05760043561273e816103e4565b60243561274a816103e4565b60443591612756612c05565b82156127d15761262f7f9d5c7c0b934da8fefa9c7760c98383778a12dfbfc0c3b3106518f43fb9508ac09361ffff83166000526002602052806127ab8560406000209061ffff16600052602052604060002090565b556040519384938460409194939294606082019561ffff80921683521660208201520152565b60405162461bcd60e51b81526020600482015260156024820152744c7a4170703a20696e76616c6964206d696e47617360581b6044820152606490fd5b346103f05760003660031901126103f057602060405160018152f35b346103f05760203660031901126103f0577f1584ad594a70cbe1e6515592e1272a987d922b097ead875069cebe8b40c004a4602060043561286a81610c73565b612872612c05565b151560ff196006541660ff821617600655604051908152a1005b346103f0576101003660031901126103f0576004356128aa816103e4565b6001600160401b03906024358281116103f0576128cb9036906004016103f5565b9190604435906128da82610422565b6084356128e681610812565b60c4359586116103f0576129016100199636906004016103f5565b94909360e4359660a4359460643593614f73565b346103f057612923366110bb565b919061292d612c05565b61ffff82166000908152600160208181526040832092949291906001600160401b0387116108b65761296987612963855461193b565b85614c0b565b8590601f88116001146129be57509186808798936120ce95600080516020615c3583398151915299936129b3575b501b906000198460031b1c191617905560405193849384614bf0565b880135925038612997565b90601f1988166129d385600052602060002090565b9288905b828210612a2757505091889391600080516020615c3583398151915298996120ce969410612a0d575b505082811b0190556120c2565b870135600019600386901b60f8161c191690553880612a00565b808685968294968c013581550195019301906129d7565b346103f05760003660031901126103f057602060ff600654166040519015158152f35b346103f05760203660031901126103f057600435612a7e81610812565b612a86612c05565b6001600160a01b039081168015612ac257600080546001600160a01b0319811683178255909216600080516020615bf58339815191528380a380f35b60405162461bcd60e51b815260206004820152602660248201527f4f776e61626c653a206e6577206f776e657220697320746865207a65726f206160448201526564647265737360d01b6064820152608490fd5b346103f05760803660031901126103f057600435612b33816103e4565b60243590612b40826103e4565b612b4b604435610812565b604051633d7b2f6f60e21b815261ffff91821660048201529116602482015230604482015260648035908201526000816084817f00000000000000000000000000000000000000000000000000000000000000006001600160a01b03165afa80156107fd576106df91600091612bc9575b5060405191829182610673565b612be4913d8091833e612bdc8183610927565b810190614bcb565b38612bbc565b346103f05760003660031901126103f0576020604051308152f35b6000546001600160a01b03163303612c1957565b606460405162461bcd60e51b815260206004820152602060248201527f4f776e61626c653a2063616c6c6572206973206e6f7420746865206f776e65726044820152fd5b6001600160a01b0316600090815260086020526040902090565b6001600160a01b0316600090815260096020526040902090565b9060018060a01b0316600052602052604060002090565b90612cb39133612e79565b600190565b634e487b7160e01b600052601160045260246000fd5b90601f82018092116110b657565b60510190816051116110b657565b919082018092116110b657565b15612cfe57565b60405162461bcd60e51b815260206004820152602360248201527f45524332303a207472616e7366657220746f20746865207a65726f206164647260448201526265737360e81b6064820152608490fd5b15612d5657565b60405162461bcd60e51b815260206004820152602660248201527f45524332303a207472616e7366657220616d6f756e7420657863656564732062604482015265616c616e636560d01b6064820152608490fd5b916001600160a01b038084169290918315612e2657612e0b82600080516020615c1583398151915294612e21941696612de4881515612cf7565b612e0584612df183612c5d565b54612dfe82821015612d4f565b0391612c5d565b55612c5d565b8054820190556040519081529081906020820190565b0390a3565b60405162461bcd60e51b815260206004820152602560248201527f45524332303a207472616e736665722066726f6d20746865207a65726f206164604482015264647265737360d81b6064820152608490fd5b6001600160a01b038082169291908315612f2e578216938415612ede5780612ecd7f8c5be1e5ebec7d5bd14f71427d1e84f3dd0314c0f7b2291e5b200ac8c7c3b92594612ec8612e2195612c77565b612c91565b556040519081529081906020820190565b60405162461bcd60e51b815260206004820152602260248201527f45524332303a20617070726f766520746f20746865207a65726f206164647265604482015261737360f01b6064820152608490fd5b60405162461bcd60e51b8152602060048201526024808201527f45524332303a20617070726f76652066726f6d20746865207a65726f206164646044820152637265737360e01b6064820152608490fd5b9060018060a01b0382166000526009602052612f9f816040600020612c91565b549260018401612faf5750505050565b808410612fca57612fc1930391612e79565b388080806119a2565b60405162461bcd60e51b815260206004820152601d60248201527f45524332303a20696e73756666696369656e7420616c6c6f77616e63650000006044820152606490fd5b9035601e19823603018112156103f0570160208101919035906001600160401b0382116103f05781360383136103f057565b908060209392818452848401376000828201840152601f01601f1916010190565b9061068490823581526020830135613079816103e4565b61ffff80911660208301526040840135613092816103e4565b16604082015260608301356130a681610812565b6001600160a01b0316606082015260c0806130f66130db6130ca608088018861300f565b60e0608088015260e0870191613041565b6130e860a088018861300f565b9086830360a0880152613041565b9401359161310383610812565b0190611c14565b6060908181359161311a83610812565b6001600160a01b03928316855282602082013561313681610812565b16602086015282604082013561314b81610812565b166040860152013561315c81610812565b16910152565b9190808252602080920192916000905b828210613180575050505090565b909192938061319a60019261319488610c7d565b15159052565b6131b06131a8848801610c7d565b151582850152565b6131c960406131c081890161083f565b90830190611c14565b6131e160606131d9818901610c7d565b151590830152565b6131f160806131c081890161083f565b61320160a06131c081890161083f565b60c0808701359082015260e0808701359082015261322f610100613226818901610d95565b60ff1690830152565b61012086810135908201526101408087013590820152610160908101950193920190613172565b989692946132dd8a6101c060606132cd6106849f9d996132f6986133049d9c6132eb996103058852602088015260018060a01b03809216604088015260018060401b0316848701526101809081608088015282356132b381610812565b169086015260208101356101a0860152604081019061300f565b92909301526101e08d0191613041565b908a820360a08c0152613062565b9360c089019061310a565b868303610140880152613041565b92610160818503910152613162565b35610684816103e4565b3561068481610812565b92979091939594966101f483810290810484036110b657612710900483038381116110b657602086013510613437576001600160a01b0384169896899387918a918a9061337390615579565b5061337d906154f4565b98604051998a9960208b01996133929a613256565b03601f19810182526133a49082610927565b60208301936133b285613313565b6133bd368584610ca3565b6133c691614a08565b6133cf85613313565b936133dc60c0820161331d565b6133e590610806565b906060016133f29061331d565b913494369061340092610ca3565b9261340a95614880565b61341390613313565b60405160008152339161ffff1690600080516020615b9583398151915290602090a4565b60405162461bcd60e51b815260206004820152600d60248201526c544f46545f534c49505041474560981b6044820152606490fd5b818102929181159184041417156110b657565b634e487b7160e01b600052601260045260246000fd5b6013198101919082116110b657565b6050198101919082116110b657565b919082039182116110b657565b9060a06135196106849380356134d581610c73565b151584526020810135602085015260408101356134f181610c73565b1515604085015261ffff6060820135613509816103e4565b166060850152608081019061300f565b9190928160808201520191613041565b9694613591946106849997946040936103048b5260018060a01b03958680921660208d015216848b015260608a0152600180841b03166080890152805160a08901528260208201511660c089015201511660e0860152610140806101008701528501906134c0565b92610120818503910152613162565b519061083082610c73565b908160209103126103f0575161068481610c73565b6040513d6000823e3d90fd5b156135d357565b60405162461bcd60e51b815260206004820152600c60248201526b1513d19517d253959053125160a21b6044820152606490fd5b959894829892979187600160a01b60019003938483169c8d9885805161362c90615579565b50808252613639906154f4565b6040519b8c9761364c9760208a01613529565b03601f198101865261365e9086610927565b613669368785610ca3565b6136739089614a91565b600e5461367f90610806565b61368890610806565b906040015161369690610806565b604051633a304d8b60e21b815261ffff9a909a1660048b01526001600160a01b031660248a0152886044815a93602094fa9586156107fd576136e66136fa976136f39a60009161372757506135cc565b1696879134953691610ca3565b9286614880565b600080516020615b9583398151915261ffff6040519216918061372281906000602083019252565b0390a4565b6115db915060203d81116115e1576115d38183610927565b1561374657565b60405162461bcd60e51b81526020600482015260116024820152701513d19517d5539055551213d492569151607a1b6044820152606490fd5b908160209103126103f05751610684816103e4565b9593606090613591946106849997946103078a5260018060a01b0380951660208b015260408a015260018060401b03168289015280356080890152602081013560a08901528260408201356137e881610812565b1660c089015201356137f981610812565b1660e0860152610140806101008701528501906134c0565b9260049198959997969794929460018060a01b0398898087169b8d8d330361394a575b50169b60206138438235615579565b509b604051968780926303408e4760e41b82527f0000000000000000000000000000000000000000000000000000000000000000165afa80156107fd57600080516020615b958339815191529a6138e78f97998f968f9061ffff9e6136f3986139019861390b9f6138d9956138cb9160209b61391d575b506138c5818961576e565b506154f4565b6040519e8f978b8901613794565b03601f198101895288610927565b6138fb6138f5368a89610ca3565b8b614acf565b0161331d565b9234953691610ca3565b60405193845216918060208101613722565b61393c908c3d8111613943575b6139348183610927565b81019061377f565b50386138ba565b503d61392a565b6139719061396a61395e33612ec88d612c77565b5491358092101561373f565b338a612f7f565b8d613834565b1561397e57565b60405162461bcd60e51b815260206004820152600b60248201526a544f46545f4d4f44554c4560a81b6044820152606490fd5b519061083082610812565b909291926139c981610c88565b916139d76040519384610927565b8294828452828201116103f057602061083093019061062b565b9080601f830112156103f0578151610684926020016139bc565b919060a0838203126103f05760405190613a24826108d6565b81938051613a3181610c73565b8352602081015160208401526040810151613a4b81610c73565b60408401526060810151613a5e816103e4565b60608401526080810151916001600160401b0383116103f057608092610d6e92016139f1565b519061083082610d8a565b81601f820112156103f057805190613aa682610d73565b92604090613ab682519586610927565b8385526020918286019183610160809702860101948186116103f0578401925b858410613ae7575050505050505090565b86848303126103f057848791613afb61094a565b613b04876135a0565b8152613b118388016135a0565b83820152613b208688016139b1565b868201526060613b318189016135a0565b908201526080613b428189016139b1565b9082015260a0613b538189016139b1565b9082015260c0808801519082015260e08088015190820152610100613b79818901613a84565b9082015261012080880151908201526101408088015190820152815201930192613ad6565b9182820361014081126103f0578351613bb6816103e4565b936020810151613bc581610812565b9360408201519360806060840151613bdc81610422565b94607f1901126103f057604051613bf2816108f1565b6080840151815260a0840151602082015260c0840151613c1181610812565b604082015260e0840151613c2481610812565b606082015261010084015190936001600160401b039390918481116103f05781613c4f918401613a0b565b936101208301519081116103f0576106849201613a8f565b9060a06080610684938051151584526020810151602085015260408101511515604085015261ffff6060820151166060850152015191816080820152019061064e565b91929082528251906020918284015281840151906040918285015260018060a01b03808387015116606096879182880152015116936080948582015260e091613cfd60a091848385015284840190613c67565b9560c0928381890391015285808a5198898152019901976000955b888710613d2c575050505050505050505090565b90919293949596979899886101606001928d51613d4b82825115159052565b80840151151582850152613d658682015187840190611c14565b80870151151582880152613d7f8882015189840190611c14565b613d8f898201518a840190611c14565b808a0151828b01528a8101518b8301526101008082015160ff169083015261012081810151908301526101409081015190820152019b0199989701959493929190613d18565b3d15613e00573d90613de682610c88565b91613df46040519384610927565b82523d6000602084013e565b606090565b9190613e8f91600080604051936020968786019463a9059cbb60e01b865260018060a01b038093166024880152604487015260448652613e44866108f1565b169260405194613e538661090c565b8786527f5361666545524332303a206c6f772d6c6576656c2063616c6c206661696c656488870152519082855af1613e89613dd5565b91613f0b565b80519081613e9c57505050565b8280613eac9383010191016135ab565b15613eb45750565b6084906040519062461bcd60e51b82526004820152602a60248201527f5361666545524332303a204552433230206f7065726174696f6e20646964206e6044820152691bdd081cdd58d8d9595960b21b6064820152fd5b91929015613f6d5750815115613f1f575090565b3b15613f285790565b60405162461bcd60e51b815260206004820152601d60248201527f416464726573733a2063616c6c20746f206e6f6e2d636f6e74726163740000006044820152606490fd5b825190915015613f805750805190602001fd5b60405162461bcd60e51b8152908190613f9c9060048301610673565b0390fd5b919261068495949160e09460018060a01b0380921685521660208401526040830152606082015260016080820152600160a08201528160c08201520190613c67565b9280516140b6575b5060408101614004613ffc8251610806565b835190612ca8565b508251600090156140a6575034156140975761402961139f61139f345b935b51610806565b906140376060840151610806565b906020845194015195833b156103f057604051630832bfe360e41b8152966000968896879586946140799492916001600160a01b039091169060048701613fa0565b03925af180156107fd5761408a5750565b806115a2610830926108a3565b61402961139f61139f47614021565b61139f61139f6140299293614023565b6140bf906142ec565b38613fea565b908181039261014084126103f05782516140de816103e4565b9360208401516140ed81610812565b9360408101516140fc81610812565b936060820151936060608084015161411381610422565b94609f1901126103f057604051614129816108bb565b60a0840151815260c084015161413e81610812565b602082015260e084015161415181610812565b604082015261010084015190936001600160401b039390918481116103f05781613c4f918401613a0b565b908160209103126103f0575161068481610812565b908160209103126103f0575190565b959194906141ef94610100989461ffff929c9b9a9c60018060a01b0398898092168b521660208a01526040890152166060870152608086015260a08501526101208060c086015284019061064e565b951660e08201520152565b805182101561420e5760209160051b010190565b634e487b7160e01b600052603260045260246000fd5b9360ff929897969360c0969260e087019a60018060a01b0380921688521660208701526040860152606085015216608083015260a08201520152565b60009060033d1161426d57565b905060046000803e60005160e01c90565b600060443d1061068457604051600319913d83016004833e81516001600160401b03918282113d6024840111176142db578184019485519384116142e3573d850101602084870101116142db575061068492910160200190610927565b949350505050565b50949350505050565b9060005b825181101561471a57614310606061430883866141fa565b510151151590565b156144c457604061433a61139f61139f8361432b86896141fa565b5101516001600160a01b031690565b614349608061432b85886141fa565b9061435960a061432b86896141fa565b60c061436586896141fa565b5101519160e0614375878a6141fa565b51015190614392610100614389898c6141fa565b51015160ff1690565b936101206143a0898c6141fa565b510151936101406143b18a8d6141fa565b51015190833b156103f0576143e36000969287938b51998a98899788966301da8bf160e41b885260049e8f8901614224565b03925af190816144b1575b506144a75760016143fd614260565b6308c379a01461445e575b614419575b50506001905b016142f0565b614421613dd5565b6144336123746020614308878a6141fa565b61443d575061440d565b614449613f9c9161471f565b925162461bcd60e51b81529283928301610673565b61446661427e565b80614472575b50614408565b600091506144886123746020614308888b6141fa565b1561446c57835162461bcd60e51b8152908190613f9c90828601610673565b5050600190614413565b806115a26144be926108a3565b386143ee565b6144d86144d182856141fa565b5151151590565b156146645760406144f361139f61139f8361432b86896141fa565b614502608061432b85886141fa565b9061451260a061432b86896141fa565b60e061451e86896141fa565b51015191614532610100614389888b6141fa565b90610120614540888b6141fa565b51015193610140614551898c6141fa565b510151823b156103f057875163aba0784760e01b81526001600160a01b03978816600480830191909152979095166024860152604485019190915260ff9092166064840152608483019390935260a482015290600090829081838160c481015b03925af19081614651575b506144a75760016145cb614260565b6308c379a014614608575b6145e4575050600190614413565b6145ec613dd5565b6145fe6123746020614308878a6141fa565b61443d57506144a7565b61461061427e565b8061461c575b506145d6565b600091506146326123746020614308888b6141fa565b1561461657835162461bcd60e51b8152908190613f9c90828601610673565b806115a261465e926108a3565b386145bc565b604061467a61139f61139f8361432b86896141fa565b614689608061432b85886141fa565b9061469960a061432b86896141fa565b60c06146a586896141fa565b5101519160e06146b5878a6141fa565b510151906146c9610100614389898c6141fa565b936101206146d7898c6141fa565b510151936101406146e88a8d6141fa565b51015190833b156103f0576145b16000969287938b51998a988997889663d505accf60e01b885260049e8f8901614224565b509050565b6103e88151116147a057604481511061477a576004810151810190602081602484019303126103f0576024810151906001600160401b0382116103f0570190806043830112156103f0576024820151610684926044016139bc565b506040516147878161090c565b6009815268544f46545f6461746160b81b602082015290565b506040516147ad8161090c565b601081526f2a27a32a2fa627a723afa922a0a9a7a760811b602082015290565b156147d457565b60405162461bcd60e51b815260206004820152602660248201527f4c7a4170703a20696e76616c696420736f757263652073656e64696e6720636f6044820152651b9d1c9858dd60d21b6064820152608490fd5b9261484d61068497959361ffff61485b9416865260c0602087015260c086019061064e565b90848203604086015261064e565b6001600160a01b0391821660608401529316608082015280830360a09091015261064e565b946148a99193929561ffff811660005260016020526148b0604060002060405194858092611975565b0384610927565b825115614917576148c2855182614b5c565b7f00000000000000000000000000000000000000000000000000000000000000006001600160a01b031693843b156103f05760009661407991604051998a988997889662c5803160e81b885260048801614828565b60405162461bcd60e51b815260206004820152603060248201527f4c7a4170703a2064657374696e6174696f6e20636861696e206973206e6f742060448201526f61207472757374656420736f7572636560801b6064820152608490fd5b1561497c57565b60405162461bcd60e51b815260206004820152601a602482015279131e905c1c0e881b5a5b91d85cd31a5b5a5d081b9bdd081cd95d60321b6044820152606490fd5b156149c557565b60405162461bcd60e51b815260206004820152601b60248201527a4c7a4170703a20676173206c696d697420697320746f6f206c6f7760281b6044820152606490fd5b6022825110614a4d5761ffff602261083093015191166000526002602052604060002061030560005260205260406000205490614a46821515614975565b10156149be565b60405162461bcd60e51b815260206004820152601c60248201527b4c7a4170703a20696e76616c69642061646170746572506172616d7360201b6044820152606490fd5b6022825110614a4d5761ffff602261083093015191166000526002602052604060002061030460005260205260406000205490614a46821515614975565b6022825110614a4d5761ffff602261083093015191166000526002602052604060002061030760005260205260406000205490614a46821515614975565b91906022815110614a4d57602261ffff91015192166000526002602052614b4260406000206001600052602052604060002090565b549081018091116110b65761083091614a46821515614975565b61ffff166000526003602052604060002054908115614bc1575b11614b7d57565b606460405162461bcd60e51b815260206004820152602060248201527f4c7a4170703a207061796c6f61642073697a6520697320746f6f206c617267656044820152fd5b6127109150614b76565b906020828203126103f05781516001600160401b0381116103f05761068492016139f1565b60409061ffff61068495931681528160208201520191613041565b90601f8111614c1957505050565b600091825260208220906020601f850160051c83019410614c55575b601f0160051c01915b828110614c4a57505050565b818155600101614c3e565b9092508290614c35565b929091614cd15a604051633356ae4560e11b602082015261ffff871660248201526080604482015290614ccb82614cbd614c9c60a483018a61064e565b6001600160401b03881660648401528281036023190160848401528861064e565b03601f198101845283610927565b30615b37565b939015614ce0575b5050505050565b614ce994614cf3565b3880808080614cd9565b9193614d917fe183f33de2837795525b4792ca4cd60535bd77c53b7e7030060bfcf5734d6b0c95614d9f939561ffff81516020830120961695866000526005602052614d578361173560208b6040600020826040519483868095519384920161062b565b55614d74604051978897885260a0602089015260a088019061064e565b6001600160401b039092166040870152858203606087015261064e565b90838203608085015261064e565b0390a1565b6020919283604051948593843782019081520301902090565b15614dc457565b60405162461bcd60e51b815260206004820152602160248201527f4e6f6e626c6f636b696e674c7a4170703a20696e76616c6964207061796c6f616044820152601960fa1b6064820152608490fd5b9160609361ffff614e369398979698168452608060208501526080840191613041565b6001600160401b0390951660408201520152565b903590601e19813603018212156103f057018035906001600160401b0382116103f0576020019181360383136103f057565b949195989790611b8b614ea5604099614e9d614eab97614ec8993691610ca3565b943691610ca3565b976154f4565b928451968794859463040a7bb160e41b8652309060048701615056565b03817f00000000000000000000000000000000000000000000000000000000000000006001600160a01b03165afa9182156107fd576000908193614f0b57509190565b905061049491925060403d8111611064576110558183610927565b9396949161068498969361ffff614f4b9316865260c0602087015260c0860191613041565b6001600160401b0390961660408401526060830152608082015280840360a090910152613041565b91969792989594939094303303614ffb57614f8f9085306158d4565b60405181815290946001600160a01b03169390849061ffff851690600080516020615bd583398151915290602090a3833b156103f0576000988995614feb936040519c8d9b8c9a8b98633fe79aed60e11b8a5260048a01614f26565b0393f180156107fd5761408a5750565b60405162461bcd60e51b815260206004820152601f60248201527f4f4654436f72653a2063616c6c6572206d757374206265204f4654436f7265006044820152606490fd5b91908260409103126103f0576020825192015190565b9192610684959361ffff6150859316845260018060a01b0316602084015260a0604084015260a083019061064e565b9215156060820152608081840391015261064e565b92919060ff6150a884615adc565b16806151fb5750505060ff6150bc82615adc565b1615806151f0575b6150cd906155e4565b6150df6150d982615a8c565b91615b27565b90916001600160a01b0391828416156151e6575b615127907f0000000000000000000000000000000000000000000000000000000000000000906001600160401b031661346c565b9183169283156151a157600080516020615bd58339815191529161516161ffff9261515c61515787600a54612cea565b600a55565b612c5d565b848154019055846000600080516020615c158339815191526040518061518c89829190602083019252565b0390a360405193845216918060208101612e21565b60405162461bcd60e51b815260206004820152601f60248201527f45524332303a206d696e7420746f20746865207a65726f2061646472657373006044820152606490fd5b61dead93506150f3565b5080516029146150c4565b60010361520b5761083093615324565b60405162461bcd60e51b815260206004820152601c60248201527b4f4654436f72653a20756e6b6e6f776e207061636b6574207479706560201b6044820152606490fd5b1561525657565b60405162461bcd60e51b815260206004820152601960248201527813d19510dbdc994e88185b5bdd5b9d081d1bdbc81cdb585b1b603a1b6044820152606490fd5b98979692936152c160e0979361ffff6152f69894168c5260208c61010091829101528c019061064e565b6001600160401b0390951660408b015260608a01526001600160a01b0316608089015260a088015286820360c088015261064e565b930152565b6153136040929594939560608352606083019061064e565b94600180841b031660208201520152565b909161532f84615695565b909161534a6122e88761236f6153448b61114f565b8c6116bb565b916001600160401b0391615381907f000000000000000000000000000000000000000000000000000000000000000090841661346c565b9288888b831561547d575b505050853b1561543257946153d39694614ccb948a94614cbd948d9960001461542b5750505a925b5a978b6040519a8b9863757fea4d60e11b60208b015260248a01615297565b901561542057509061541b61ffff928560207fb8890edbfc1c74692f527444645f95489c3703cc2df42e4a366f5d06fa6cd884969751910120906040519485941696846152fb565b0390a2565b926108309492614cf3565b16926153b4565b50506040516001600160a01b039094168452507f9aedf5fdba8716db3b6705ca00150643309995d4f818a249ed6dde6677e7792d975091955085945050602084019250614d9f915050565b9061236f612452926123698961549761549d979b30615884565b9961114f565b88888b61538c565b60065460ff16156154ec576022825110614a4d5761ffff60226108309301519116600052600260205260406000206000805260205260406000205490614a46821515614975565b5051611bc057565b7f0000000000000000000000000000000000000000000000000000000000000000908115615574576001600160401b03919004818111615532571690565b60405162461bcd60e51b815260206004820152601a6024820152794f4654436f72653a20616d6f756e745344206f766572666c6f7760301b6044820152606490fd5b61347f565b7f00000000000000000000000000000000000000000000000000000000000000008015615574578106908181039081116110b65791565b60405160006020820152602181019190915260c09190911b6001600160c01b031916604182015260298152610684816108bb565b156155eb57565b60405162461bcd60e51b815260206004820152601860248201527713d19510dbdc994e881a5b9d985b1a59081c185e5b1bd85960421b6044820152606490fd5b939260719261068494604051968794600160f81b6020870152602186015260018060c01b0319809360c01b16604186015260018060a01b0316604985015260c01b166069830152615685815180926020868601910161062b565b8101036051810184520182610927565b906156ad600160ff6156a685615adc565b16146155e4565b6156b682615a8c565b906156c083615b27565b9060498451106157315760498401519360518151106156f5576156f26051820151916156ec81516134a4565b90615a08565b91565b60405162461bcd60e51b8152602060048201526014602482015273746f55696e7436345f6f75744f66426f756e647360601b6044820152606490fd5b60405162461bcd60e51b8152602060048201526015602482015274746f427974657333325f6f75744f66426f756e647360581b6044820152606490fd5b6001600160a01b03811633810361581d575b80156157ce57816157a384615796600095612c5d565b54612dfe8282101561582d565b556157b183600a5403600a55565b604051838152600080516020615c1583398151915290602090a390565b60405162461bcd60e51b815260206004820152602160248201527f45524332303a206275726e2066726f6d20746865207a65726f206164647265736044820152607360f81b6064820152608490fd5b615828833384612f7f565b615780565b1561583457565b60405162461bcd60e51b815260206004820152602260248201527f45524332303a206275726e20616d6f756e7420657863656564732062616c616e604482015261636560f01b6064820152608490fd5b6001600160a01b038116919082156151a157600a54908282018092116110b6576000926158c5602092600080516020615c1583398151915294600a55612c5d565b818154019055604051908152a3565b6106849183916001600160a01b038116308114159081615900575b5015612daa57610c6e833383612f7f565b9050331415386158ef565b1561591257565b60405162461bcd60e51b815260206004820152600e60248201526d736c6963655f6f766572666c6f7760901b6044820152606490fd5b1561594f57565b60405162461bcd60e51b8152602060048201526011602482015270736c6963655f6f75744f66426f756e647360781b6044820152606490fd5b61599c8261599581612cce565b101561590b565b6159a98282511015615948565b816159c1575050604051600081526020810160405290565b60405191601f811691821560051b808486010193838501920101905b8084106159f55750508252601f01601f191660405290565b90928351815260208091019301906159dd565b615a158261599581612cce565b615a2a8151615a2384612cdc565b1115615948565b81615a42575050604051600081526020810160405290565b60405191601f8116916051831560051b80858701019484860193010101905b808410615a795750508252601f01601f191660405290565b9092835181526020809101930190615a61565b6021815110615a9f57602d015160601c90565b60405162461bcd60e51b8152602060048201526015602482015274746f416464726573735f6f75744f66426f756e647360581b6044820152606490fd5b6001815110615aec576001015190565b60405162461bcd60e51b8152602060048201526013602482015272746f55696e74385f6f75744f66426f756e647360681b6044820152606490fd5b60298151106156f5576029015190565b6040519392909160009160c08601916001600160401b038311878410176108b65783926040526096875282602088019560a036883760208451940192f1903d9060968211615b8b575b6000908286523e9190565b60969150615b8056fed81fc9b8523134ed613870ed029d6170cbb73aa6a6bc311b9a642689fb9df59a8c0400cfe2d1199b1a725c78960bcc2a344d869b80590d0f2bd005db15a572cebf551ec93859b170f9b2141bd9298bf3f64322c6f7beb2543a0cb669834118bf8be0079c531659141344cd1fd0a4f28419497f9722a3daafe3b4186f6b6457e0ddf252ad1be2c89b69c2b068fc378daa952ba7f163c4a11628f55a4df523b3effa41487ad5d6728f0b19276fa1eddc16558578f5109fc39d2dc33c3230470daba2646970667358221220a52d1ec8f0e55899a77175733a44e5701dacb61971214f6e33dbb45eaf9bcf5164736f6c63430008120033",
  "linkReferences": {},
  "deployedLinkReferences": {}
}