{
  "_format": "hh-sol-artifact-1",
  "contractName": "BaseTOFTStrategyDestinationModule",
  "sourceName": "contracts/tOFT/modules/BaseTOFTStrategyDestinationModule.sol",
  "abi": [
    {
      "inputs": [
        {
          "internalType": "address",
          "name": "_lzEndpoint",
          "type": "address"
        },
        {
          "internalType": "address",
          "name": "_erc20",
          "type": "address"
        },
        {
          "internalType": "contract IYieldBoxBase",
          "name": "_yieldBox",
          "type": "address"
        },
        {
          "internalType": "contract ICluster",
          "name": "_cluster",
          "type": "address"
        },
        {
          "internalType": "string",
          "name": "_name",
          "type": "string"
        },
        {
          "internalType": "string",
          "name": "_symbol",
          "type": "string"
        },
        {
          "internalType": "uint8",
          "name": "_decimal",
          "type": "uint8"
        },
        {
          "internalType": "uint256",
          "name": "_hostChainID",
          "type": "uint256"
        }
      ],
      "stateMutability": "nonpayable",
      "type": "constructor"
    },
    {
      "anonymous": false,
      "inputs": [
        {
          "indexed": true,
          "internalType": "address",
          "name": "owner",
          "type": "address"
        },
        {
          "indexed": true,
          "internalType": "address",
          "name": "spender",
          "type": "address"
        },
        {
          "indexed": false,
          "internalType": "uint256",
          "name": "value",
          "type": "uint256"
        }
      ],
      "name": "Approval",
      "type": "event"
    },
    {
      "anonymous": false,
      "inputs": [
        {
          "indexed": true,
          "internalType": "uint16",
          "name": "_srcChainId",
          "type": "uint16"
        },
        {
          "indexed": false,
          "internalType": "bytes",
          "name": "_srcAddress",
          "type": "bytes"
        },
        {
          "indexed": false,
          "internalType": "uint64",
          "name": "_nonce",
          "type": "uint64"
        },
        {
          "indexed": false,
          "internalType": "bytes32",
          "name": "_hash",
          "type": "bytes32"
        }
      ],
      "name": "CallOFTReceivedSuccess",
      "type": "event"
    },
    {
      "anonymous": false,
      "inputs": [
        {
          "indexed": false,
          "internalType": "uint16",
          "name": "_srcChainId",
          "type": "uint16"
        },
        {
          "indexed": false,
          "internalType": "bytes",
          "name": "_srcAddress",
          "type": "bytes"
        },
        {
          "indexed": false,
          "internalType": "uint64",
          "name": "_nonce",
          "type": "uint64"
        },
        {
          "indexed": false,
          "internalType": "bytes",
          "name": "_payload",
          "type": "bytes"
        },
        {
          "indexed": false,
          "internalType": "bytes",
          "name": "_reason",
          "type": "bytes"
        }
      ],
      "name": "MessageFailed",
      "type": "event"
    },
    {
      "anonymous": false,
      "inputs": [
        {
          "indexed": false,
          "internalType": "address",
          "name": "_address",
          "type": "address"
        }
      ],
      "name": "NonContractAddress",
      "type": "event"
    },
    {
      "anonymous": false,
      "inputs": [
        {
          "indexed": true,
          "internalType": "address",
          "name": "previousOwner",
          "type": "address"
        },
        {
          "indexed": true,
          "internalType": "address",
          "name": "newOwner",
          "type": "address"
        }
      ],
      "name": "OwnershipTransferred",
      "type": "event"
    },
    {
      "anonymous": false,
      "inputs": [
        {
          "indexed": true,
          "internalType": "uint16",
          "name": "_srcChainId",
          "type": "uint16"
        },
        {
          "indexed": true,
          "internalType": "address",
          "name": "_to",
          "type": "address"
        },
        {
          "indexed": false,
          "internalType": "uint256",
          "name": "_amount",
          "type": "uint256"
        }
      ],
      "name": "ReceiveFromChain",
      "type": "event"
    },
    {
      "anonymous": false,
      "inputs": [
        {
          "indexed": false,
          "internalType": "uint16",
          "name": "_srcChainId",
          "type": "uint16"
        },
        {
          "indexed": false,
          "internalType": "bytes",
          "name": "_srcAddress",
          "type": "bytes"
        },
        {
          "indexed": false,
          "internalType": "uint64",
          "name": "_nonce",
          "type": "uint64"
        },
        {
          "indexed": false,
          "internalType": "bytes32",
          "name": "_payloadHash",
          "type": "bytes32"
        }
      ],
      "name": "RetryMessageSuccess",
      "type": "event"
    },
    {
      "anonymous": false,
      "inputs": [
        {
          "indexed": true,
          "internalType": "uint16",
          "name": "_dstChainId",
          "type": "uint16"
        },
        {
          "indexed": true,
          "internalType": "address",
          "name": "_from",
          "type": "address"
        },
        {
          "indexed": true,
          "internalType": "bytes32",
          "name": "_toAddress",
          "type": "bytes32"
        },
        {
          "indexed": false,
          "internalType": "uint256",
          "name": "_amount",
          "type": "uint256"
        }
      ],
      "name": "SendToChain",
      "type": "event"
    },
    {
      "anonymous": false,
      "inputs": [
        {
          "indexed": false,
          "internalType": "uint16",
          "name": "_dstChainId",
          "type": "uint16"
        },
        {
          "indexed": false,
          "internalType": "uint16",
          "name": "_type",
          "type": "uint16"
        },
        {
          "indexed": false,
          "internalType": "uint256",
          "name": "_minDstGas",
          "type": "uint256"
        }
      ],
      "name": "SetMinDstGas",
      "type": "event"
    },
    {
      "anonymous": false,
      "inputs": [
        {
          "indexed": false,
          "internalType": "address",
          "name": "precrime",
          "type": "address"
        }
      ],
      "name": "SetPrecrime",
      "type": "event"
    },
    {
      "anonymous": false,
      "inputs": [
        {
          "indexed": false,
          "internalType": "uint16",
          "name": "_remoteChainId",
          "type": "uint16"
        },
        {
          "indexed": false,
          "internalType": "bytes",
          "name": "_path",
          "type": "bytes"
        }
      ],
      "name": "SetTrustedRemote",
      "type": "event"
    },
    {
      "anonymous": false,
      "inputs": [
        {
          "indexed": false,
          "internalType": "uint16",
          "name": "_remoteChainId",
          "type": "uint16"
        },
        {
          "indexed": false,
          "internalType": "bytes",
          "name": "_remoteAddress",
          "type": "bytes"
        }
      ],
      "name": "SetTrustedRemoteAddress",
      "type": "event"
    },
    {
      "anonymous": false,
      "inputs": [
        {
          "indexed": false,
          "internalType": "bool",
          "name": "_useCustomAdapterParams",
          "type": "bool"
        }
      ],
      "name": "SetUseCustomAdapterParams",
      "type": "event"
    },
    {
      "anonymous": false,
      "inputs": [
        {
          "indexed": true,
          "internalType": "address",
          "name": "from",
          "type": "address"
        },
        {
          "indexed": true,
          "internalType": "address",
          "name": "to",
          "type": "address"
        },
        {
          "indexed": false,
          "internalType": "uint256",
          "name": "value",
          "type": "uint256"
        }
      ],
      "name": "Transfer",
      "type": "event"
    },
    {
      "inputs": [],
      "name": "DEFAULT_PAYLOAD_SIZE_LIMIT",
      "outputs": [
        {
          "internalType": "uint256",
          "name": "",
          "type": "uint256"
        }
      ],
      "stateMutability": "view",
      "type": "function"
    },
    {
      "inputs": [],
      "name": "NO_EXTRA_GAS",
      "outputs": [
        {
          "internalType": "uint256",
          "name": "",
          "type": "uint256"
        }
      ],
      "stateMutability": "view",
      "type": "function"
    },
    {
      "inputs": [],
      "name": "PT_SEND",
      "outputs": [
        {
          "internalType": "uint8",
          "name": "",
          "type": "uint8"
        }
      ],
      "stateMutability": "view",
      "type": "function"
    },
    {
      "inputs": [],
      "name": "PT_SEND_AND_CALL",
      "outputs": [
        {
          "internalType": "uint8",
          "name": "",
          "type": "uint8"
        }
      ],
      "stateMutability": "view",
      "type": "function"
    },
    {
      "inputs": [],
      "name": "SWAP_MAX_SLIPPAGE",
      "outputs": [
        {
          "internalType": "uint256",
          "name": "",
          "type": "uint256"
        }
      ],
      "stateMutability": "view",
      "type": "function"
    },
    {
      "inputs": [
        {
          "internalType": "address",
          "name": "owner",
          "type": "address"
        },
        {
          "internalType": "address",
          "name": "spender",
          "type": "address"
        }
      ],
      "name": "allowance",
      "outputs": [
        {
          "internalType": "uint256",
          "name": "",
          "type": "uint256"
        }
      ],
      "stateMutability": "view",
      "type": "function"
    },
    {
      "inputs": [
        {
          "internalType": "address",
          "name": "spender",
          "type": "address"
        },
        {
          "internalType": "uint256",
          "name": "amount",
          "type": "uint256"
        }
      ],
      "name": "approve",
      "outputs": [
        {
          "internalType": "bool",
          "name": "",
          "type": "bool"
        }
      ],
      "stateMutability": "nonpayable",
      "type": "function"
    },
    {
      "inputs": [
        {
          "internalType": "address",
          "name": "account",
          "type": "address"
        }
      ],
      "name": "balanceOf",
      "outputs": [
        {
          "internalType": "uint256",
          "name": "",
          "type": "uint256"
        }
      ],
      "stateMutability": "view",
      "type": "function"
    },
    {
      "inputs": [
        {
          "internalType": "uint16",
          "name": "_srcChainId",
          "type": "uint16"
        },
        {
          "internalType": "bytes",
          "name": "_srcAddress",
          "type": "bytes"
        },
        {
          "internalType": "uint64",
          "name": "_nonce",
          "type": "uint64"
        },
        {
          "internalType": "bytes32",
          "name": "_from",
          "type": "bytes32"
        },
        {
          "internalType": "address",
          "name": "_to",
          "type": "address"
        },
        {
          "internalType": "uint256",
          "name": "_amount",
          "type": "uint256"
        },
        {
          "internalType": "bytes",
          "name": "_payload",
          "type": "bytes"
        },
        {
          "internalType": "uint256",
          "name": "_gasForCall",
          "type": "uint256"
        }
      ],
      "name": "callOnOFTReceived",
      "outputs": [],
      "stateMutability": "nonpayable",
      "type": "function"
    },
    {
      "inputs": [],
      "name": "circulatingSupply",
      "outputs": [
        {
          "internalType": "uint256",
          "name": "",
          "type": "uint256"
        }
      ],
      "stateMutability": "view",
      "type": "function"
    },
    {
      "inputs": [],
      "name": "cluster",
      "outputs": [
        {
          "internalType": "contract ICluster",
          "name": "",
          "type": "address"
        }
      ],
      "stateMutability": "view",
      "type": "function"
    },
    {
      "inputs": [
        {
          "internalType": "uint16",
          "name": "",
          "type": "uint16"
        },
        {
          "internalType": "bytes",
          "name": "",
          "type": "bytes"
        },
        {
          "internalType": "uint64",
          "name": "",
          "type": "uint64"
        }
      ],
      "name": "creditedPackets",
      "outputs": [
        {
          "internalType": "bool",
          "name": "",
          "type": "bool"
        }
      ],
      "stateMutability": "view",
      "type": "function"
    },
    {
      "inputs": [],
      "name": "decimals",
      "outputs": [
        {
          "internalType": "uint8",
          "name": "",
          "type": "uint8"
        }
      ],
      "stateMutability": "view",
      "type": "function"
    },
    {
      "inputs": [
        {
          "internalType": "address",
          "name": "spender",
          "type": "address"
        },
        {
          "internalType": "uint256",
          "name": "subtractedValue",
          "type": "uint256"
        }
      ],
      "name": "decreaseAllowance",
      "outputs": [
        {
          "internalType": "bool",
          "name": "",
          "type": "bool"
        }
      ],
      "stateMutability": "nonpayable",
      "type": "function"
    },
    {
      "inputs": [
        {
          "internalType": "address",
          "name": "module",
          "type": "address"
        },
        {
          "internalType": "contract IYieldBoxBase",
          "name": "_yieldBox",
          "type": "address"
        },
        {
          "internalType": "uint256",
          "name": "_assetId",
          "type": "uint256"
        },
        {
          "internalType": "uint256",
          "name": "_amount",
          "type": "uint256"
        },
        {
          "internalType": "address",
          "name": "_from",
          "type": "address"
        },
        {
          "internalType": "address",
          "name": "_to",
          "type": "address"
        }
      ],
      "name": "depositToYieldbox",
      "outputs": [],
      "stateMutability": "nonpayable",
      "type": "function"
    },
    {
      "inputs": [],
      "name": "erc20",
      "outputs": [
        {
          "internalType": "address",
          "name": "",
          "type": "address"
        }
      ],
      "stateMutability": "view",
      "type": "function"
    },
    {
      "inputs": [
        {
          "internalType": "uint16",
          "name": "_dstChainId",
          "type": "uint16"
        },
        {
          "internalType": "bytes32",
          "name": "_toAddress",
          "type": "bytes32"
        },
        {
          "internalType": "uint256",
          "name": "_amount",
          "type": "uint256"
        },
        {
          "internalType": "bytes",
          "name": "_payload",
          "type": "bytes"
        },
        {
          "internalType": "uint64",
          "name": "_dstGasForCall",
          "type": "uint64"
        },
        {
          "internalType": "bool",
          "name": "_useZro",
          "type": "bool"
        },
        {
          "internalType": "bytes",
          "name": "_adapterParams",
          "type": "bytes"
        }
      ],
      "name": "estimateSendAndCallFee",
      "outputs": [
        {
          "internalType": "uint256",
          "name": "nativeFee",
          "type": "uint256"
        },
        {
          "internalType": "uint256",
          "name": "zroFee",
          "type": "uint256"
        }
      ],
      "stateMutability": "view",
      "type": "function"
    },
    {
      "inputs": [
        {
          "internalType": "uint16",
          "name": "_dstChainId",
          "type": "uint16"
        },
        {
          "internalType": "bytes32",
          "name": "_toAddress",
          "type": "bytes32"
        },
        {
          "internalType": "uint256",
          "name": "_amount",
          "type": "uint256"
        },
        {
          "internalType": "bool",
          "name": "_useZro",
          "type": "bool"
        },
        {
          "internalType": "bytes",
          "name": "_adapterParams",
          "type": "bytes"
        }
      ],
      "name": "estimateSendFee",
      "outputs": [
        {
          "internalType": "uint256",
          "name": "nativeFee",
          "type": "uint256"
        },
        {
          "internalType": "uint256",
          "name": "zroFee",
          "type": "uint256"
        }
      ],
      "stateMutability": "view",
      "type": "function"
    },
    {
      "inputs": [
        {
          "internalType": "uint16",
          "name": "",
          "type": "uint16"
        },
        {
          "internalType": "bytes",
          "name": "",
          "type": "bytes"
        },
        {
          "internalType": "uint64",
          "name": "",
          "type": "uint64"
        }
      ],
      "name": "failedMessages",
      "outputs": [
        {
          "internalType": "bytes32",
          "name": "",
          "type": "bytes32"
        }
      ],
      "stateMutability": "view",
      "type": "function"
    },
    {
      "inputs": [
        {
          "internalType": "uint16",
          "name": "_srcChainId",
          "type": "uint16"
        },
        {
          "internalType": "bytes",
          "name": "_srcAddress",
          "type": "bytes"
        }
      ],
      "name": "forceResumeReceive",
      "outputs": [],
      "stateMutability": "nonpayable",
      "type": "function"
    },
    {
      "inputs": [
        {
          "internalType": "uint16",
          "name": "_version",
          "type": "uint16"
        },
        {
          "internalType": "uint16",
          "name": "_chainId",
          "type": "uint16"
        },
        {
          "internalType": "address",
          "name": "",
          "type": "address"
        },
        {
          "internalType": "uint256",
          "name": "_configType",
          "type": "uint256"
        }
      ],
      "name": "getConfig",
      "outputs": [
        {
          "internalType": "bytes",
          "name": "",
          "type": "bytes"
        }
      ],
      "stateMutability": "view",
      "type": "function"
    },
    {
      "inputs": [
        {
          "internalType": "uint16",
          "name": "_remoteChainId",
          "type": "uint16"
        }
      ],
      "name": "getTrustedRemoteAddress",
      "outputs": [
        {
          "internalType": "bytes",
          "name": "",
          "type": "bytes"
        }
      ],
      "stateMutability": "view",
      "type": "function"
    },
    {
      "inputs": [],
      "name": "hostChainID",
      "outputs": [
        {
          "internalType": "uint256",
          "name": "",
          "type": "uint256"
        }
      ],
      "stateMutability": "view",
      "type": "function"
    },
    {
      "inputs": [
        {
          "internalType": "address",
          "name": "spender",
          "type": "address"
        },
        {
          "internalType": "uint256",
          "name": "addedValue",
          "type": "uint256"
        }
      ],
      "name": "increaseAllowance",
      "outputs": [
        {
          "internalType": "bool",
          "name": "",
          "type": "bool"
        }
      ],
      "stateMutability": "nonpayable",
      "type": "function"
    },
    {
      "inputs": [
        {
          "internalType": "uint16",
          "name": "_srcChainId",
          "type": "uint16"
        },
        {
          "internalType": "bytes",
          "name": "_srcAddress",
          "type": "bytes"
        }
      ],
      "name": "isTrustedRemote",
      "outputs": [
        {
          "internalType": "bool",
          "name": "",
          "type": "bool"
        }
      ],
      "stateMutability": "view",
      "type": "function"
    },
    {
      "inputs": [],
      "name": "lzEndpoint",
      "outputs": [
        {
          "internalType": "contract ILayerZeroEndpoint",
          "name": "",
          "type": "address"
        }
      ],
      "stateMutability": "view",
      "type": "function"
    },
    {
      "inputs": [
        {
          "internalType": "uint16",
          "name": "_srcChainId",
          "type": "uint16"
        },
        {
          "internalType": "bytes",
          "name": "_srcAddress",
          "type": "bytes"
        },
        {
          "internalType": "uint64",
          "name": "_nonce",
          "type": "uint64"
        },
        {
          "internalType": "bytes",
          "name": "_payload",
          "type": "bytes"
        }
      ],
      "name": "lzReceive",
      "outputs": [],
      "stateMutability": "nonpayable",
      "type": "function"
    },
    {
      "inputs": [
        {
          "internalType": "uint16",
          "name": "",
          "type": "uint16"
        },
        {
          "internalType": "uint16",
          "name": "",
          "type": "uint16"
        }
      ],
      "name": "minDstGasLookup",
      "outputs": [
        {
          "internalType": "uint256",
          "name": "",
          "type": "uint256"
        }
      ],
      "stateMutability": "view",
      "type": "function"
    },
    {
      "inputs": [],
      "name": "name",
      "outputs": [
        {
          "internalType": "string",
          "name": "",
          "type": "string"
        }
      ],
      "stateMutability": "view",
      "type": "function"
    },
    {
      "inputs": [
        {
          "internalType": "uint16",
          "name": "_srcChainId",
          "type": "uint16"
        },
        {
          "internalType": "bytes",
          "name": "_srcAddress",
          "type": "bytes"
        },
        {
          "internalType": "uint64",
          "name": "_nonce",
          "type": "uint64"
        },
        {
          "internalType": "bytes",
          "name": "_payload",
          "type": "bytes"
        }
      ],
      "name": "nonblockingLzReceive",
      "outputs": [],
      "stateMutability": "nonpayable",
      "type": "function"
    },
    {
      "inputs": [],
      "name": "owner",
      "outputs": [
        {
          "internalType": "address",
          "name": "",
          "type": "address"
        }
      ],
      "stateMutability": "view",
      "type": "function"
    },
    {
      "inputs": [
        {
          "internalType": "uint16",
          "name": "",
          "type": "uint16"
        }
      ],
      "name": "payloadSizeLimitLookup",
      "outputs": [
        {
          "internalType": "uint256",
          "name": "",
          "type": "uint256"
        }
      ],
      "stateMutability": "view",
      "type": "function"
    },
    {
      "inputs": [],
      "name": "precrime",
      "outputs": [
        {
          "internalType": "address",
          "name": "",
          "type": "address"
        }
      ],
      "stateMutability": "view",
      "type": "function"
    },
    {
      "inputs": [],
      "name": "renounceOwnership",
      "outputs": [],
      "stateMutability": "nonpayable",
      "type": "function"
    },
    {
      "inputs": [
        {
          "internalType": "uint16",
          "name": "_srcChainId",
          "type": "uint16"
        },
        {
          "internalType": "bytes",
          "name": "_srcAddress",
          "type": "bytes"
        },
        {
          "internalType": "uint64",
          "name": "_nonce",
          "type": "uint64"
        },
        {
          "internalType": "bytes",
          "name": "_payload",
          "type": "bytes"
        }
      ],
      "name": "retryMessage",
      "outputs": [],
      "stateMutability": "payable",
      "type": "function"
    },
    {
      "inputs": [
        {
          "internalType": "address",
          "name": "_from",
          "type": "address"
        },
        {
          "internalType": "uint16",
          "name": "_dstChainId",
          "type": "uint16"
        },
        {
          "internalType": "bytes32",
          "name": "_toAddress",
          "type": "bytes32"
        },
        {
          "internalType": "uint256",
          "name": "_amount",
          "type": "uint256"
        },
        {
          "internalType": "bytes",
          "name": "_payload",
          "type": "bytes"
        },
        {
          "internalType": "uint64",
          "name": "_dstGasForCall",
          "type": "uint64"
        },
        {
          "components": [
            {
              "internalType": "address payable",
              "name": "refundAddress",
              "type": "address"
            },
            {
              "internalType": "address",
              "name": "zroPaymentAddress",
              "type": "address"
            },
            {
              "internalType": "bytes",
              "name": "adapterParams",
              "type": "bytes"
            }
          ],
          "internalType": "struct ICommonOFT.LzCallParams",
          "name": "_callParams",
          "type": "tuple"
        }
      ],
      "name": "sendAndCall",
      "outputs": [],
      "stateMutability": "payable",
      "type": "function"
    },
    {
      "inputs": [
        {
          "internalType": "address",
          "name": "_from",
          "type": "address"
        },
        {
          "internalType": "uint16",
          "name": "_dstChainId",
          "type": "uint16"
        },
        {
          "internalType": "bytes32",
          "name": "_toAddress",
          "type": "bytes32"
        },
        {
          "internalType": "uint256",
          "name": "_amount",
          "type": "uint256"
        },
        {
          "components": [
            {
              "internalType": "address payable",
              "name": "refundAddress",
              "type": "address"
            },
            {
              "internalType": "address",
              "name": "zroPaymentAddress",
              "type": "address"
            },
            {
              "internalType": "bytes",
              "name": "adapterParams",
              "type": "bytes"
            }
          ],
          "internalType": "struct ICommonOFT.LzCallParams",
          "name": "_callParams",
          "type": "tuple"
        }
      ],
      "name": "sendFrom",
      "outputs": [],
      "stateMutability": "payable",
      "type": "function"
    },
    {
      "inputs": [
        {
          "internalType": "uint16",
          "name": "_version",
          "type": "uint16"
        },
        {
          "internalType": "uint16",
          "name": "_chainId",
          "type": "uint16"
        },
        {
          "internalType": "uint256",
          "name": "_configType",
          "type": "uint256"
        },
        {
          "internalType": "bytes",
          "name": "_config",
          "type": "bytes"
        }
      ],
      "name": "setConfig",
      "outputs": [],
      "stateMutability": "nonpayable",
      "type": "function"
    },
    {
      "inputs": [
        {
          "internalType": "uint256",
          "name": "_slippage",
          "type": "uint256"
        }
      ],
      "name": "setMaxSlippage",
      "outputs": [],
      "stateMutability": "nonpayable",
      "type": "function"
    },
    {
      "inputs": [
        {
          "internalType": "uint16",
          "name": "_dstChainId",
          "type": "uint16"
        },
        {
          "internalType": "uint16",
          "name": "_packetType",
          "type": "uint16"
        },
        {
          "internalType": "uint256",
          "name": "_minGas",
          "type": "uint256"
        }
      ],
      "name": "setMinDstGas",
      "outputs": [],
      "stateMutability": "nonpayable",
      "type": "function"
    },
    {
      "inputs": [
        {
          "internalType": "uint16",
          "name": "_dstChainId",
          "type": "uint16"
        },
        {
          "internalType": "uint256",
          "name": "_size",
          "type": "uint256"
        }
      ],
      "name": "setPayloadSizeLimit",
      "outputs": [],
      "stateMutability": "nonpayable",
      "type": "function"
    },
    {
      "inputs": [
        {
          "internalType": "address",
          "name": "_precrime",
          "type": "address"
        }
      ],
      "name": "setPrecrime",
      "outputs": [],
      "stateMutability": "nonpayable",
      "type": "function"
    },
    {
      "inputs": [
        {
          "internalType": "uint16",
          "name": "_version",
          "type": "uint16"
        }
      ],
      "name": "setReceiveVersion",
      "outputs": [],
      "stateMutability": "nonpayable",
      "type": "function"
    },
    {
      "inputs": [
        {
          "internalType": "uint16",
          "name": "_version",
          "type": "uint16"
        }
      ],
      "name": "setSendVersion",
      "outputs": [],
      "stateMutability": "nonpayable",
      "type": "function"
    },
    {
      "inputs": [
        {
          "internalType": "uint16",
          "name": "_srcChainId",
          "type": "uint16"
        },
        {
          "internalType": "bytes",
          "name": "_path",
          "type": "bytes"
        }
      ],
      "name": "setTrustedRemote",
      "outputs": [],
      "stateMutability": "nonpayable",
      "type": "function"
    },
    {
      "inputs": [
        {
          "internalType": "uint16",
          "name": "_remoteChainId",
          "type": "uint16"
        },
        {
          "internalType": "bytes",
          "name": "_remoteAddress",
          "type": "bytes"
        }
      ],
      "name": "setTrustedRemoteAddress",
      "outputs": [],
      "stateMutability": "nonpayable",
      "type": "function"
    },
    {
      "inputs": [
        {
          "internalType": "bool",
          "name": "_useCustomAdapterParams",
          "type": "bool"
        }
      ],
      "name": "setUseCustomAdapterParams",
      "outputs": [],
      "stateMutability": "nonpayable",
      "type": "function"
    },
    {
      "inputs": [],
      "name": "sharedDecimals",
      "outputs": [
        {
          "internalType": "uint8",
          "name": "",
          "type": "uint8"
        }
      ],
      "stateMutability": "view",
      "type": "function"
    },
    {
      "inputs": [
        {
          "internalType": "address",
          "name": "module",
          "type": "address"
        },
        {
          "internalType": "uint16",
          "name": "_srcChainId",
          "type": "uint16"
        },
        {
          "internalType": "bytes",
          "name": "_srcAddress",
          "type": "bytes"
        },
        {
          "internalType": "uint64",
          "name": "_nonce",
          "type": "uint64"
        },
        {
          "internalType": "bytes",
          "name": "_payload",
          "type": "bytes"
        }
      ],
      "name": "strategyDeposit",
      "outputs": [],
      "stateMutability": "nonpayable",
      "type": "function"
    },
    {
      "inputs": [
        {
          "internalType": "address",
          "name": "",
          "type": "address"
        },
        {
          "internalType": "uint16",
          "name": "_srcChainId",
          "type": "uint16"
        },
        {
          "internalType": "bytes",
          "name": "",
          "type": "bytes"
        },
        {
          "internalType": "uint64",
          "name": "",
          "type": "uint64"
        },
        {
          "internalType": "bytes",
          "name": "_payload",
          "type": "bytes"
        }
      ],
      "name": "strategyWithdraw",
      "outputs": [],
      "stateMutability": "nonpayable",
      "type": "function"
    },
    {
      "inputs": [
        {
          "internalType": "bytes4",
          "name": "interfaceId",
          "type": "bytes4"
        }
      ],
      "name": "supportsInterface",
      "outputs": [
        {
          "internalType": "bool",
          "name": "",
          "type": "bool"
        }
      ],
      "stateMutability": "view",
      "type": "function"
    },
    {
      "inputs": [],
      "name": "symbol",
      "outputs": [
        {
          "internalType": "string",
          "name": "",
          "type": "string"
        }
      ],
      "stateMutability": "view",
      "type": "function"
    },
    {
      "inputs": [],
      "name": "token",
      "outputs": [
        {
          "internalType": "address",
          "name": "",
          "type": "address"
        }
      ],
      "stateMutability": "view",
      "type": "function"
    },
    {
      "inputs": [],
      "name": "totalSupply",
      "outputs": [
        {
          "internalType": "uint256",
          "name": "",
          "type": "uint256"
        }
      ],
      "stateMutability": "view",
      "type": "function"
    },
    {
      "inputs": [
        {
          "internalType": "address",
          "name": "to",
          "type": "address"
        },
        {
          "internalType": "uint256",
          "name": "amount",
          "type": "uint256"
        }
      ],
      "name": "transfer",
      "outputs": [
        {
          "internalType": "bool",
          "name": "",
          "type": "bool"
        }
      ],
      "stateMutability": "nonpayable",
      "type": "function"
    },
    {
      "inputs": [
        {
          "internalType": "address",
          "name": "from",
          "type": "address"
        },
        {
          "internalType": "address",
          "name": "to",
          "type": "address"
        },
        {
          "internalType": "uint256",
          "name": "amount",
          "type": "uint256"
        }
      ],
      "name": "transferFrom",
      "outputs": [
        {
          "internalType": "bool",
          "name": "",
          "type": "bool"
        }
      ],
      "stateMutability": "nonpayable",
      "type": "function"
    },
    {
      "inputs": [
        {
          "internalType": "address",
          "name": "newOwner",
          "type": "address"
        }
      ],
      "name": "transferOwnership",
      "outputs": [],
      "stateMutability": "nonpayable",
      "type": "function"
    },
    {
      "inputs": [
        {
          "internalType": "uint16",
          "name": "",
          "type": "uint16"
        }
      ],
      "name": "trustedRemoteLookup",
      "outputs": [
        {
          "internalType": "bytes",
          "name": "",
          "type": "bytes"
        }
      ],
      "stateMutability": "view",
      "type": "function"
    },
    {
      "inputs": [],
      "name": "useCustomAdapterParams",
      "outputs": [
        {
          "internalType": "bool",
          "name": "",
          "type": "bool"
        }
      ],
      "stateMutability": "view",
      "type": "function"
    },
    {
      "inputs": [],
      "name": "yieldBox",
      "outputs": [
        {
          "internalType": "contract IYieldBoxBase",
          "name": "",
          "type": "address"
        }
      ],
      "stateMutability": "view",
      "type": "function"
    },
    {
      "stateMutability": "payable",
      "type": "receive"
    }
  ],
  "bytecode": "0x60e0604090808252346200059f57620049f28038038091620000228285620005a4565b83398101610100828203126200059f576200003d82620005de565b906020926200004e848201620005de565b818601516001600160a01b03808216949290918590036200059f576060840151968288168098036200059f5760808501516001600160401b0394908581116200059f57816200009f91880162000618565b9060a0870151908682116200059f57620000bb91880162000618565b9160c087015160ff8116968782036200059f5762000116602b60e08f9b01519a5180966a546170696f63614f46542d60a81b878301526200010581518092898686019101620005f3565b810103600b810187520185620005a4565b607f8d518096601d60fa1b868301526200013a8151809288602186019101620005f3565b810103926200015460216001958681018a520188620005a4565b831c16936000958887549d60018060a01b03199e8f33908216178a55823391167f8be0079c531659141344cd1fd0a4f28419497f9722a3daafe3b4186f6b6457e08b80a3166080528560a05281518381116200058b57600b54928584811c9416801562000580575b878510146200056c578190601f9485811162000518575b508790858311600114620004b2578a92620004a6575b5050600019600383901b1c191690851b17600b555b80519283116200049257600c548481811c9116801562000487575b8682101462000473578281116200042a575b5084918311600114620003c4579282939183928894620003b8575b50501b916000199060031b1c191617600c555b6012821162000365575060120360ff8111620003515760ff1690604d82116200033d5750600a0a60c0526101f46012551684600f541617600f5560ff19601154161760115560105581600d541617600d55600e541617600e555161437e908162000674823960805181818161049f01528181610780015281816108a401528181610a1301528181610bdc01528181611f760152818161208601528181612784015281816131bb0152613653015260a051816117c6015260c051818181611078015281816119920152818161387101528181613ac501528181613d150152613dac0152f35b634e487b7160e01b81526011600452602490fd5b634e487b7160e01b82526011600452602482fd5b6084908b519062461bcd60e51b82526004820152602760248201527f4f46543a20736861726564446563696d616c73206d757374206265203c3d20646044820152666563696d616c7360c81b6064820152fd5b01519250388062000246565b600c8752848720919083601f198116895b8888838310620004125750505010620003f8575b505050811b01600c5562000259565b015160001960f88460031b161c19169055388080620003e9565b868601518855909601959485019487935001620003d5565b600c88528588208380860160051c82019288871062000469575b0160051c019085905b8281106200045d5750506200022b565b8981550185906200044d565b9250819262000444565b634e487b7160e01b88526022600452602488fd5b90607f169062000219565b634e487b7160e01b87526041600452602487fd5b015190503880620001e9565b600b8b52888b208894509190601f1984168c5b8b828210620005015750508411620004e7575b505050811b01600b55620001fe565b015160001960f88460031b161c19169055388080620004d8565b8385015186558b97909501949384019301620004c5565b909150600b8a52878a208580850160051c8201928a861062000562575b918991869594930160051c01915b82811062000553575050620001d3565b8c815585945089910162000543565b9250819262000535565b634e487b7160e01b89526022600452602489fd5b93607f1693620001bc565b634e487b7160e01b88526041600452602488fd5b600080fd5b601f909101601f19168101906001600160401b03821190821017620005c857604052565b634e487b7160e01b600052604160045260246000fd5b51906001600160a01b03821682036200059f57565b60005b838110620006075750506000910152565b8181015183820152602001620005f6565b81601f820112156200059f5780516001600160401b038111620005c857604051926200064f601f8301601f191660200185620005a4565b818452602082840101116200059f57620006709160208085019101620005f3565b9056fe6080604052600436101561001b575b361561001957600080fd5b005b60003560e01c80621d3567146103cf57806254af3a146103ca57806301ffc9a7146103c557806306fdde03146103c057806307e0db17146103bb578063095ea7b3146103b65780630df37483146103b157806310ddb137146103ac57806318160ddd1461033957806323b872dd146103a7578063313ce567146103a2578063365260b41461039d57806339509351146103985780633d8b38f6146103935780633f1f4fa41461038e57806342d65a8d1461038957806343f68a4914610384578063447705151461037a578063488dbe4c1461037f5780634c42899a1461037a5780634db96f55146103755780635b8c41e61461037057806366ad5c8a1461036b578063695ef6bf1461036657806370a0823114610361578063715018a61461035c5780637533d7881461035757806376203b4814610352578063785e9e861461034d578063857749b0146103485780638cfd8f5c146103435780638da5cb5b1461033e5780639358928b14610339578063950c8a741461033457806395d89b411461032f578063969bfdc31461032a5780639bdb9812146103255780639f38369a14610320578063a457c2d71461031b578063a4c51df514610316578063a643c52e14610311578063a6c3d1651461030c578063a9059cbb14610307578063b353aaa714610302578063baf3292d146102fd578063c4461834146102f8578063cbed8b9c146102f3578063d1deba1f146102ee578063dbd01de1146102e9578063dd62ed3e146102e4578063de406577146102df578063df2a5b3b146102da578063e6a20ae6146102d5578063eab45d9c146102d0578063eaffd49a146102cb578063eb8d72b7146102c6578063ed629c5c146102c1578063f2fde38b146102bc578063f5ecbdbc146102b75763fc0c546a0361000e576127ee565b61271a565b612653565b612630565b6124e6565b61245d565b6123fb565b6123df565b6122f2565b6122c9565b61227f565b612256565b61211e565b612032565b612015565b611fa5565b611f60565b611f36565b611db3565b611d95565b611cfe565b611c52565b611baf565b611b64565b611932565b61188e565b611865565b610905565b61183c565b6117ea565b6117ac565b611783565b611566565b61150f565b6113c7565b61138a565b6112a7565b611213565b6111bf565b61101a565b610c64565b610c80565b610c43565b610bc2565b610b89565b610b19565b610a91565b610989565b610963565b610923565b61087b565b61083c565b610807565b610757565b610677565b6105c5565b6105a7565b610488565b61ffff8116036103e057565b600080fd5b9181601f840112156103e0578235916001600160401b0383116103e057602083818601950101116103e057565b6001600160401b038116036103e057565b9060806003198301126103e05760043561043c816103d4565b916001600160401b03906024358281116103e0578161045d916004016103e5565b9390939260443561046d81610412565b926064359182116103e057610484916004016103e5565b9091565b346103e05761049636610423565b929493919291907f00000000000000000000000000000000000000000000000000000000000000006001600160a01b031633036105575761051c61052492610019976105156104fb6104f68a61ffff166000526001602052604060002090565b6114f2565b805190818414918261054d575b508161052a575b506130c4565b3691610f5e565b923691610f5e565b926133e7565b9050610537368486610f5e565b602081519101209060208151910120143861050f565b1515915038610508565b60405162461bcd60e51b815260206004820152601e60248201527f4c7a4170703a20696e76616c696420656e64706f696e742063616c6c657200006044820152606490fd5b60009103126103e057565b346103e05760003660031901126103e0576020601054604051908152f35b346103e05760203660031901126103e05760043563ffffffff60e01b81168091036103e057602090631f7ecdf760e01b811490811561060a575b506040519015158152f35b6301ffc9a760e01b149050386105ff565b60005b83811061062e5750506000910152565b818101518382015260200161061e565b906020916106578151809281855285808601910161061b565b601f01601f1916010190565b90602061067492818152019061063e565b90565b346103e0576000806003193601126107545760405181600b5461069981611422565b8084529060019081811690811561072c57506001146106d3575b6106cf846106c381880382610f22565b60405191829182610663565b0390f35b600b8352602094507f0175b7a638427703f0dbe7bb9bbf987a2551717b34e79f33b5b1008d1fa01db95b82841061071957505050816106cf936106c392820101936106b3565b80548585018701529285019281016106fd565b6106cf96506106c39450602092508593915060ff191682840152151560051b820101936106b3565b80fd5b346103e0576000602036600319011261075457600435610776816103d4565b61077e612809565b7f00000000000000000000000000000000000000000000000000000000000000006001600160a01b0316908290823b156107f257602461ffff918360405195869485936307e0db1760e01b85521660048401525af180156107ed576107e1575080f35b6107ea90610eef565b80f35b612ec7565b5080fd5b6001600160a01b038116036103e057565b346103e05760403660031901126103e057610831600435610827816107f6565b6024359033612a53565b602060405160018152f35b346103e05760403660031901126103e05761ffff60043561085c816103d4565b610864612809565b166000526003602052602435604060002055600080f35b346103e057600060203660031901126107545760043561089a816103d4565b6108a2612809565b7f00000000000000000000000000000000000000000000000000000000000000006001600160a01b0316908290823b156107f257602461ffff918360405195869485936310ddb13760e01b85521660048401525af180156107ed576107e1575080f35b346103e05760003660031901126103e0576020600a54604051908152f35b346103e05760603660031901126103e057610831600435610943816107f6565b60243561094f816107f6565b6044359161095e833383612b6c565b612984565b346103e05760003660031901126103e057602060405160128152f35b801515036103e057565b346103e05760a03660031901126103e0576004356109a6816103d4565b606435906109b38261097f565b608435906001600160401b0382116103e0576109d861051560409336906004016103e5565b90610a0f6109f26109ea604435613d13565b602435613de1565b928451958694859463040a7bb160e41b86523090600487016137c6565b03817f00000000000000000000000000000000000000000000000000000000000000006001600160a01b03165afa9081156107ed576000908192610a60575b50604080519182526020820192909252f35b9050610a83915060403d8111610a8a575b610a7b8183610f22565b810190612ee2565b9038610a4e565b503d610a71565b346103e05760403660031901126103e057600435610aae816107f6565b336000526009602052610ac581604060002061287b565b546024358101809111610adc576108319133612a53565b612892565b9060406003198301126103e057600435610afa816103d4565b91602435906001600160401b0382116103e057610484916004016103e5565b346103e057602061ffff610b66610b2f36610ae1565b9390911660005260018452610b51610b5860406000206040519283809261145c565b0382610f22565b848151910120923691610f5e565b82815191012014604051908152f35b61ffff166000526007602052604060002090565b346103e05760203660031901126103e05761ffff600435610ba9816103d4565b1660005260036020526020604060002054604051908152f35b346103e057610bd036610ae1565b9190610bda612809565b7f00000000000000000000000000000000000000000000000000000000000000006001600160a01b031691823b156103e057604051928380926342d65a8d60e01b825281610c316000988997889460048501613378565b03925af180156107ed576107e1575080f35b346103e05760203660031901126103e057610c5c612809565b600435601255005b346103e05760003660031901126103e057602060405160008152f35b346103e05760c03660031901126103e057600435610c9d816107f6565b60243590610caa826107f6565b60443560643560843593610cbd856107f6565b610cdd60a43594610ccd866107f6565b3033149081610e87575b50612bfc565b6040805163095ea7b360e01b8082526001600160a01b03939093166004820181905260006024830181905297929693949092916020919082816044818d305af180156107ed57610e6a575b508751958652818680610d3f848860048401612cfa565b03818c305af19081156107ed57610d86968392610e3d575b508851638eb22cdd60e01b81526004810189905260248101919091526000604482015295869081906064820190565b0381865afa9586156107ed57879589928398610e0e575b50508551634d4d7cbd60e11b815260048101919091526001600160a01b0392831660248201529390911660448401526000606484015260848301949094529092839160a49183915af180156107ed57610df4578280f35b81610e0a92903d10610a8a57610a7b8183610f22565b8280f35b610e2e929850803d10610e36575b610e268183610f22565b810190612ed3565b953880610d9d565b503d610e1c565b610e5c90833d8511610e63575b610e548183610f22565b810190612e1d565b5038610d57565b503d610e4a565b610e8090833d8511610e6357610e548183610f22565b5038610d28565b600560005260136020529050610ec57ff4b2859895858d6aa26d656e4999d552f6a869b74c43bba7d2a941c4d22c35595b546001600160a01b031690565b6001600160a01b0390811691161438610cd7565b634e487b7160e01b600052604160045260246000fd5b6001600160401b038111610f0257604052565b610ed9565b604081019081106001600160401b03821117610f0257604052565b90601f801991011681019081106001600160401b03821117610f0257604052565b6001600160401b038111610f0257601f01601f191660200190565b929192610f6a82610f43565b91610f786040519384610f22565b8294818452818301116103e0578281602093846000960137010152565b9080601f830112156103e05781602061067493359101610f5e565b60a06003198201126103e057600435610fc8816107f6565b91602435610fd5816103d4565b916001600160401b03916044358381116103e05782610ff691600401610f95565b9260643561100381610412565b926084359182116103e05761067491600401610f95565b346103e05761109e6110fc60008051602061430983398151915261113761ffff61106661104636610fb0565b929493505050611057303314612bfc565b60208082518301019101612ef8565b949a9550925099906001600160401b037f00000000000000000000000000000000000000000000000000000000000000009116613d97565b600d546001600160a01b038a81169b90928c926110ea926110cf926110c99287169130918791613047565b50613daa565b509a6110db8c30612f46565b6110e48c613d13565b90613de1565b916110f3612c7c565b93169186613177565b169260405185856000805160206142e983398151915230938061112487829190602083019252565b0390a46040519081529081906020820190565b0390a3005b9060606003198301126103e057600435611155816103d4565b91602435906001600160401b0382116103e05761117491600401610f95565b9060443561067481610412565b60209061119b92826040519483868095519384920161061b565b82019081520301902090565b906001600160401b0316600052602052604060002090565b346103e057602061120a61ffff6111fc836111d93661113c565b94909116600052600582526040600020826040519483868095519384920161061b565b8201908152030190206111a7565b54604051908152f35b346103e05761122136610423565b91929493903033036112455761051c61123f92610019973691610f5e565b9261380a565b60405162461bcd60e51b815260206004820152602660248201527f4e6f6e626c6f636b696e674c7a4170703a2063616c6c6572206d7573742062656044820152650204c7a4170760d41b6064820152608490fd5b908160609103126103e05790565b60a03660031901126103e0576004356112bf816107f6565b6024356112cb816103d4565b604435916084356001600160401b0381116103e057602061ffff6113026000805160206142e9833981519152933690600401611299565b936113758535611311816107f6565b61132f61051586890135986113258a6107f6565b60408101906135d1565b611339818a613c15565b61134e611347606435613daa565b5085613fb2565b9761135a8915156139bf565b61136c6113668a613d13565b8c613de1565b9234938b613177565b6040519485526001600160a01b0316941692a4005b346103e05760203660031901126103e0576004356113a7816107f6565b60018060a01b031660005260086020526020604060002054604051908152f35b346103e057600080600319360112610754576113e1612809565b80546001600160a01b03198116825581906001600160a01b03167f8be0079c531659141344cd1fd0a4f28419497f9722a3daafe3b4186f6b6457e08280a380f35b90600182811c92168015611452575b602083101461143c57565b634e487b7160e01b600052602260045260246000fd5b91607f1691611431565b906000929180549161146d83611422565b9182825260019384811690816000146114cf575060011461148f575b50505050565b90919394506000526020928360002092846000945b8386106114bb575050505001019038808080611489565b8054858701830152940193859082016114a4565b9294505050602093945060ff191683830152151560051b01019038808080611489565b9061150d611506926040519384809261145c565b0383610f22565b565b346103e05760203660031901126103e05761ffff60043561152f816103d4565b1660005260016020526106cf610b5161155260406000206040519283809261145c565b60405191829160208352602083019061063e565b60e03660031901126103e05760043561157e816107f6565b60243561158a816103d4565b604435916001600160401b03906084358281116103e0576115af9036906004016103e5565b91909260a435916115bf83610412565b60c4358281116103e0576115d7903690600401611299565b9261160e8435956115e7876107f6565b6116066115fc602088013597611325896107f6565b9990923691610f5e565b973691610f5e565b9460ff600654166000146117025760228651106116be578560209561136c6113759461168c8c61167961ffff9a8b60226000805160206142e98339815191529f0151931660005260028d52841661167360406000206001600052602052604060002090565b546128c4565b90611685821515613c6a565b1015613cb3565b6116a161169a606435613daa565b5088613fb2565b9a6116ad8c15156139bf565b8d6116b78d613d13565b9033613e6f565b60405162461bcd60e51b815260206004820152601c60248201527b4c7a4170703a20696e76616c69642061646170746572506172616d7360201b6044820152606490fd5b94809493505161172f576000805160206142e98339815191529460209461ffff9461136c6113759461168c565b60405162461bcd60e51b815260206004820152602660248201527f4f4654436f72653a205f61646170746572506172616d73206d7573742062652060448201526532b6b83a3c9760d11b6064820152608490fd5b346103e05760003660031901126103e057600f546040516001600160a01b039091168152602090f35b346103e05760003660031901126103e057602060405160ff7f0000000000000000000000000000000000000000000000000000000000000000168152f35b346103e05760403660031901126103e057602061120a60043561180c816103d4565b61ffff6024359161181c836103d4565b166000526002835260406000209061ffff16600052602052604060002090565b346103e05760003660031901126103e0576000546040516001600160a01b039091168152602090f35b346103e05760003660031901126103e0576004546040516001600160a01b039091168152602090f35b346103e0576000806003193601126107545760405181600c546118b081611422565b8084529060019081811690811561072c57506001146118d9576106cf846106c381880382610f22565b600c8352602094507fdf6966c971051c3d54ec59162606531493a51404a002842f56009d7e5cf4a8c75b82841061191f57505050816106cf936106c392820101936106b3565b8054858501870152928501928101611903565b346103e05761ffff6119b860008051602061430983398151915261195536610fb0565b96939195909630331480611b18575b61196d90612bfc565b6119806020825183010160208301612c36565b509b9350909491506001600160401b037f00000000000000000000000000000000000000000000000000000000000000009116613d97565b97886000806119c630612861565b5497858a6119f66119f26119eb846119e66119e086610b75565b8c611181565b6111a7565b5460ff1690565b1590565b611ae1575b5050611a0630612861565b549760018060a01b03169d8e611a7a611a26600d5460018060a01b031690565b6040516312236f9360e21b602082019081526001600160a01b03878116602484015292831660448301526064820195909552608481018990523060a4820152921660c480840191909152825260e482610f22565b51915af494611a87612c9f565b9515611aab575b505050505050506111376040519283921694829190602083019252565b611ac596611ab891612ced565b1015611ad1575b8561347b565b38808080808881611a8e565b611adc898b30612d15565b611abf565b611b11916119e6611afe611b0493611af98a30613fd8565b610b75565b89611181565b805460ff19166001179055565b858a6119fb565b506005600052601360205261196d611b4f7ff4b2859895858d6aa26d656e4999d552f6a869b74c43bba7d2a941c4d22c3559610eb8565b6001600160a01b038581169116149050611964565b346103e057602060ff611ba361ffff6111fc84611b803661113c565b94909116600052600782526040600020826040519483868095519384920161061b565b54166040519015158152f35b346103e05760203660031901126103e05761ffff600435611bcf816103d4565b166000526001602052610b51611bef60406000206040519283809261145c565b805115611c0d576106c381611c076106cf9351612ccf565b906140dc565b60405162461bcd60e51b815260206004820152601d60248201527f4c7a4170703a206e6f20747275737465642070617468207265636f72640000006044820152606490fd5b346103e05760403660031901126103e057600435611c6f816107f6565b60243590336000526009602052611c8a81604060002061287b565b5491808310611cab57611c9f92039033612a53565b60405160018152602090f35b60405162461bcd60e51b815260206004820152602560248201527f45524332303a2064656372656173656420616c6c6f77616e63652062656c6f77604482015264207a65726f60d81b6064820152608490fd5b346103e05760e03660031901126103e057600435611d1b816103d4565b6001600160401b03906064358281116103e057611d3c9036906004016103e5565b608492919235611d4b81610412565b60a43591611d588361097f565b60c4359586116103e057611d73611d839636906004016103e5565b9590946044359060243590613603565b60408051928352602083019190915290f35b346103e05760003660031901126103e0576020601254604051908152f35b346103e057611dc136610ae1565b90611dca612809565b60405192602092808385870137611df66034868381013060601b88820152036014810188520186610f22565b60009361ffff8316855260019081815260408620918751916001600160401b038311610f0257611e3083611e2a8654611422565b86613393565b80601f8411600114611ea0575091808092611e8f9695948a9b7f8c0400cfe2d1199b1a725c78960bcc2a344d869b80590d0f2bd005db15a572ce9b94611e95575b50501b916000199060031b1c19161790555b60405193849384613378565b0390a180f35b015192503880611e71565b91939498601f198416611eb887600052602060002090565b938a905b828210611f1f575050917f8c0400cfe2d1199b1a725c78960bcc2a344d869b80590d0f2bd005db15a572ce999a95939185611e8f98969410611f06575b505050811b019055611e83565b015160001960f88460031b161c19169055388080611ef9565b808886978294978701518155019601940190611ebc565b346103e05760403660031901126103e057610831600435611f56816107f6565b6024359033612984565b346103e05760003660031901126103e0576040517f00000000000000000000000000000000000000000000000000000000000000006001600160a01b03168152602090f35b346103e05760203660031901126103e0577f5db758e995a17ec1ad84bdef7e8c3293a0bd6179bcce400dff5d4c3d87db726b6020600435611fe5816107f6565b611fed612809565b600480546001600160a01b0319166001600160a01b03929092169182179055604051908152a1005b346103e05760003660031901126103e05760206040516127108152f35b346103e05760803660031901126103e05760043561204f816103d4565b60243561205b816103d4565b6064356001600160401b0381116103e05761207a9036906004016103e5565b9092612084612809565b7f00000000000000000000000000000000000000000000000000000000000000006001600160a01b031690813b156103e057600080946120fb604051978896879586946332fb62e760e21b865261ffff80921660048701521660248501526044356044850152608060648501526084840191613357565b03925af180156107ed5761210b57005b8061211861001992610eef565b8061059c565b61212736610423565b9161ffff8694929616600052600560205261215b81604060002060206040518092878b8337878201908152030190206111a7565b54918215612205576121f484836121ed7fc264d91f3adc5588250e1551f547752ca0cfa8f6b530d243b9f9f4cab10ea8e59a60006121d9846119e68e8a8f6122009f908f6121bf906121b26121d39436908d610f5e565b6020815191012014613544565b61ffff166000526005602052604060002090565b9161352b565b556121e536878d610f5e565b933691610f5e565b918861380a565b6040519586958661359a565b0390a1005b60405162461bcd60e51b815260206004820152602360248201527f4e6f6e626c6f636b696e674c7a4170703a206e6f2073746f726564206d65737360448201526261676560e81b6064820152608490fd5b346103e05760003660031901126103e057600e546040516001600160a01b039091168152602090f35b346103e05760403660031901126103e057602061120a6004356122a1816107f6565b602435906122ae826107f6565b6001600160a01b03166000908152600984526040902061287b565b346103e05760003660031901126103e057600d546040516001600160a01b039091168152602090f35b346103e05760603660031901126103e05760043561230f816103d4565b60243561231b816103d4565b60443591612327612809565b82156123a2576122007f9d5c7c0b934da8fefa9c7760c98383778a12dfbfc0c3b3106518f43fb9508ac09361ffff831660005260026020528061237c8560406000209061ffff16600052602052604060002090565b556040519384938460409194939294606082019561ffff80921683521660208201520152565b60405162461bcd60e51b81526020600482015260156024820152744c7a4170703a20696e76616c6964206d696e47617360581b6044820152606490fd5b346103e05760003660031901126103e057602060405160018152f35b346103e05760203660031901126103e0577f1584ad594a70cbe1e6515592e1272a987d922b097ead875069cebe8b40c004a4602060043561243b8161097f565b612443612809565b151560ff196006541660ff821617600655604051908152a1005b346103e0576101003660031901126103e05760043561247b816103d4565b6001600160401b03906024358281116103e05761249c9036906004016103e5565b9190604435906124ab82610412565b6084356124b7816107f6565b60c4359586116103e0576124d26100199636906004016103e5565b94909360e4359660a43594606435936136f9565b346103e0576124f436610ae1565b91906124fe612809565b60009161ffff81168352600160209080825260408520916001600160401b038711610f0257612537876125318554611422565b85613393565b8590601f881160011461259e5750918680879893611e8f957ffa41487ad5d6728f0b19276fa1eddc16558578f5109fc39d2dc33c3230470dab9993612593575b501b906000198460031b1c191617905560405193849384613378565b880135925038612577565b90601f1988166125b385600052602060002090565b9288905b828210612619575050918893917ffa41487ad5d6728f0b19276fa1eddc16558578f5109fc39d2dc33c3230470dab9899611e8f9694106125ff575b505082811b019055611e83565b870135600019600386901b60f8161c1916905538806125f2565b808685968294968c013581550195019301906125b7565b346103e05760003660031901126103e057602060ff600654166040519015158152f35b346103e05760203660031901126103e057600435612670816107f6565b612678612809565b6001600160a01b0390811680156126c657600080546001600160a01b03198116831782559092167f8be0079c531659141344cd1fd0a4f28419497f9722a3daafe3b4186f6b6457e08380a380f35b60405162461bcd60e51b815260206004820152602660248201527f4f776e61626c653a206e6577206f776e657220697320746865207a65726f206160448201526564647265737360d01b6064820152608490fd5b346103e05760803660031901126103e057600435612737816103d4565b60243590612744826103d4565b61274f6044356107f6565b604051633d7b2f6f60e21b815261ffff91821660048201529116602482015230604482015260648035908201526000816084817f00000000000000000000000000000000000000000000000000000000000000006001600160a01b03165afa80156107ed576106cf916000916127cd575b5060405191829182610663565b6127e8913d8091833e6127e08183610f22565b8101906132f9565b386127c0565b346103e05760003660031901126103e0576020604051308152f35b6000546001600160a01b0316330361281d57565b606460405162461bcd60e51b815260206004820152602060248201527f4f776e61626c653a2063616c6c6572206973206e6f7420746865206f776e65726044820152fd5b6001600160a01b0316600090815260086020526040902090565b9060018060a01b0316600052602052604060002090565b634e487b7160e01b600052601160045260246000fd5b90601f8201809211610adc57565b6051019081605111610adc57565b91908201809211610adc57565b156128d857565b60405162461bcd60e51b815260206004820152602360248201527f45524332303a207472616e7366657220746f20746865207a65726f206164647260448201526265737360e81b6064820152608490fd5b1561293057565b60405162461bcd60e51b815260206004820152602660248201527f45524332303a207472616e7366657220616d6f756e7420657863656564732062604482015265616c616e636560d01b6064820152608490fd5b916001600160a01b038084169290918315612a00576129e582600080516020614329833981519152946129fb9416966129be8815156128d1565b6129df846129cb83612861565b546129d882821015612929565b0391612861565b55612861565b8054820190556040519081529081906020820190565b0390a3565b60405162461bcd60e51b815260206004820152602560248201527f45524332303a207472616e736665722066726f6d20746865207a65726f206164604482015264647265737360d81b6064820152608490fd5b6001600160a01b038082169291908315612b1b578216938415612acb5780612aba7f8c5be1e5ebec7d5bd14f71427d1e84f3dd0314c0f7b2291e5b200ac8c7c3b92594612ab56129fb9560018060a01b03166000526009602052604060002090565b61287b565b556040519081529081906020820190565b60405162461bcd60e51b815260206004820152602260248201527f45524332303a20617070726f766520746f20746865207a65726f206164647265604482015261737360f01b6064820152608490fd5b60405162461bcd60e51b8152602060048201526024808201527f45524332303a20617070726f76652066726f6d20746865207a65726f206164646044820152637265737360e01b6064820152608490fd5b9060018060a01b0382166000526009602052612b8c81604060002061287b565b549260018401612b9c5750505050565b808410612bb757612bae930391612a53565b38808080611489565b60405162461bcd60e51b815260206004820152601d60248201527f45524332303a20696e73756666696369656e7420616c6c6f77616e63650000006044820152606490fd5b15612c0357565b60405162461bcd60e51b815260206004820152600b60248201526a2a27a32a2fa1a0a62622a960a91b6044820152606490fd5b91908260c09103126103e0578151612c4d816103d4565b916020810151916040820151916060810151612c6881610412565b9160a06080830151920151610674816107f6565b60405190602082018281106001600160401b03821117610f025760405260008252565b3d15612cca573d90612cb082610f43565b91612cbe6040519384610f22565b82523d6000602084013e565b606090565b601319810191908211610adc57565b605019810191908211610adc57565b91908203918211610adc57565b6001600160a01b039091168152602081019190915260400190565b612da19160008060405193612d4f85612d416020998a83019763a9059cbb60e01b895260248401612cfa565b03601f198101875286610f22565b60018060a01b03169260405194612d6586610f07565b8786527f5361666545524332303a206c6f772d6c6576656c2063616c6c206661696c656488870152519082855af1612d9b612c9f565b91612e32565b80519081612dae57505050565b8280612dbe938301019101612e1d565b15612dc65750565b6084906040519062461bcd60e51b82526004820152602a60248201527f5361666545524332303a204552433230206f7065726174696f6e20646964206e6044820152691bdd081cdd58d8d9595960b21b6064820152fd5b908160209103126103e057516106748161097f565b91929015612e945750815115612e46575090565b3b15612e4f5790565b60405162461bcd60e51b815260206004820152601d60248201527f416464726573733a2063616c6c20746f206e6f6e2d636f6e74726163740000006044820152606490fd5b825190915015612ea75750805190602001fd5b60405162461bcd60e51b8152908190612ec39060048301610663565b0390fd5b6040513d6000823e3d90fd5b908160209103126103e0575190565b91908260409103126103e0576020825192015190565b908160e09103126103e0578051612f0e816103d4565b916020820151916040810151916060820151612f2981610412565b9160808101519160c060a0830151612f40816107f6565b92015190565b6001600160a01b038116908115612ff857612f6081612861565b54838110612fa8578360008051602061432983398151915292612f8a6000966129fb940391612861565b55612f9881600a5403600a55565b6040519081529081906020820190565b60405162461bcd60e51b815260206004820152602260248201527f45524332303a206275726e20616d6f756e7420657863656564732062616c616e604482015261636560f01b6064820152608490fd5b60405162461bcd60e51b815260206004820152602160248201527f45524332303a206275726e2066726f6d20746865207a65726f206164647265736044820152607360f81b6064820152608490fd5b600060409460a4939661305b303314612bfc565b865197889687956311a5cc7760e31b8752600487015260018060a01b03938480921660248801521660448601526064850152826084850152165af180156107ed5760009182916130aa57509091565b9050610484915060403d8111610a8a57610a7b8183610f22565b156130cb57565b60405162461bcd60e51b815260206004820152602660248201527f4c7a4170703a20696e76616c696420736f757263652073656e64696e6720636f6044820152651b9d1c9858dd60d21b6064820152608490fd5b9261314461067497959361ffff6131529416865260c0602087015260c086019061063e565b90848203604086015261063e565b6001600160a01b0391821660608401529316608082015280830360a09091015261063e565b946131a09193929561ffff811660005260016020526131a760406000206040519485809261145c565b0384610f22565b82511561322c576131b985518261328a565b7f00000000000000000000000000000000000000000000000000000000000000006001600160a01b031693843b156103e05760009661320e91604051998a988997889662c5803160e81b88526004880161311f565b03925af180156107ed5761321f5750565b8061211861150d92610eef565b60405162461bcd60e51b815260206004820152603060248201527f4c7a4170703a2064657374696e6174696f6e20636861696e206973206e6f742060448201526f61207472757374656420736f7572636560801b6064820152608490fd5b61ffff1660005260036020526040600020549081156132ef575b116132ab57565b606460405162461bcd60e51b815260206004820152602060248201527f4c7a4170703a207061796c6f61642073697a6520697320746f6f206c617267656044820152fd5b61271091506132a4565b6020818303126103e0578051906001600160401b0382116103e0570181601f820112156103e057805161332b81610f43565b926133396040519485610f22565b818452602082840101116103e057610674916020808501910161061b565b908060209392818452848401376000828201840152601f01601f1916010190565b60409061ffff61067495931681528160208201520191613357565b90601f81116133a157505050565b600091825260208220906020601f850160051c830194106133dd575b601f0160051c01915b8281106133d257505050565b8181556001016133c6565b90925082906133bd565b9290916134595a604051633356ae4560e11b602082015261ffff8716602482015260806044820152906134538261344561342460a483018a61063e565b6001600160401b03881660648401528281036023190160848401528861063e565b03601f198101845283610f22565b3061428b565b939015613468575b5050505050565b6134719461347b565b3880808080613461565b91936135187fe183f33de2837795525b4792ca4cd60535bd77c53b7e7030060bfcf5734d6b0c95613526939561ffff815160208301209616958660005260056020526134df836111fc60208b6040600020826040519483868095519384920161061b565b556001600160401b03613504604051988998895260a060208a015260a089019061063e565b92166040870152858203606087015261063e565b90838203608085015261063e565b0390a1565b6020919283604051948593843782019081520301902090565b1561354b57565b60405162461bcd60e51b815260206004820152602160248201527f4e6f6e626c6f636b696e674c7a4170703a20696e76616c6964207061796c6f616044820152601960fa1b6064820152608490fd5b916135c69060609461ffff6001600160401b039499989799168552608060208601526080850191613357565b951660408201520152565b903590601e19813603018212156103e057018035906001600160401b0382116103e0576020019181360383136103e057565b9491959897906116b761362c6040996136246136329761364f993691610f5e565b943691610f5e565b97613d13565b928451968794859463040a7bb160e41b86523090600487016137c6565b03817f00000000000000000000000000000000000000000000000000000000000000006001600160a01b03165afa9182156107ed57600090819361369257509190565b905061048491925060403d8111610a8a57610a7b8183610f22565b939694916136db9061067499979461ffff6001600160401b039416875260c0602088015260c0870191613357565b961660408401526060830152608082015260a0818503910152613357565b9196979298959493909430330361378157613715908530614028565b60405181815290946001600160a01b03169390849061ffff85169060008051602061430983398151915290602090a3833b156103e0576000988995613771936040519c8d9b8c9a8b98633fe79aed60e11b8a5260048a016136ad565b0393f180156107ed5761321f5750565b60405162461bcd60e51b815260206004820152601f60248201527f4f4654436f72653a2063616c6c6572206d757374206265204f4654436f7265006044820152606490fd5b9192610674959361ffff6137f59316845260018060a01b0316602084015260a0604084015260a083019061063e565b9215156060820152608081840391015261063e565b92919060ff61381884614230565b168061396b5750505060ff61382c82614230565b161580613960575b61383d90613e28565b61384f613849826141e0565b9161427b565b90916001600160a01b039182841615613956575b613897906001600160401b037f00000000000000000000000000000000000000000000000000000000000000009116613d97565b91831692831561391157600080516020614309833981519152916138d161ffff926138cc6138c787600a546128c4565b600a55565b612861565b848154019055846000600080516020614329833981519152604051806138fc89829190602083019252565b0390a3604051938452169180602081016129fb565b60405162461bcd60e51b815260206004820152601f60248201527f45524332303a206d696e7420746f20746865207a65726f2061646472657373006044820152606490fd5b61dead9350613863565b508051602914613834565b60010361397b5761150d93613a95565b60405162461bcd60e51b815260206004820152601c60248201527b4f4654436f72653a20756e6b6e6f776e207061636b6574207479706560201b6044820152606490fd5b156139c657565b60405162461bcd60e51b815260206004820152601960248201527813d19510dbdc994e88185b5bdd5b9d081d1bdbc81cdb585b1b603a1b6044820152606490fd5b98979692936001600160401b03613a3960e0989461ffff613a659995168d5260208d61010091829101528d019061063e565b951660408b015260608a01526001600160a01b0316608089015260a088015286820360c088015261063e565b930152565b6001600160401b03613a8a6040939695949660608452606084019061063e565b951660208201520152565b9091613aa084613ed9565b9091613ab56119eb876119e66119e08b610b75565b91613aeb6001600160401b0392837f00000000000000000000000000000000000000000000000000000000000000009116613d97565b9288888b8315613be7575b505050853b15613b9c5794613b3d9694613453948a94613445948d99600014613b955750505a925b5a978b6040519a8b9863757fea4d60e11b60208b015260248a01613a07565b9015613b8a575090613b8561ffff928560207fb8890edbfc1c74692f527444645f95489c3703cc2df42e4a366f5d06fa6cd88496975191012090604051948594169684613a6a565b0390a2565b9261150d949261347b565b1692613b1e565b50506040516001600160a01b039094168452507f9aedf5fdba8716db3b6705ca00150643309995d4f818a249ed6dde6677e7792d975091955085945050602084019250613526915050565b906119e6611b0492613c0789613c01613c0d979b30613fd8565b99610b75565b90611181565b88888b613af6565b60065460ff1615613c625760228251106116be5761ffff602261150d93015191166000526002602052613c55604060002060008052602052604060002090565b5490611685821515613c6a565b505161172f57565b15613c7157565b60405162461bcd60e51b815260206004820152601a602482015279131e905c1c0e881b5a5b91d85cd31a5b5a5d081b9bdd081cd95d60321b6044820152606490fd5b15613cba57565b60405162461bcd60e51b815260206004820152601b60248201527a4c7a4170703a20676173206c696d697420697320746f6f206c6f7760281b6044820152606490fd5b634e487b7160e01b600052601260045260246000fd5b7f0000000000000000000000000000000000000000000000000000000000000000908115613d9257046001600160401b0390818111613d50571690565b60405162461bcd60e51b815260206004820152601a6024820152794f4654436f72653a20616d6f756e745344206f766572666c6f7760301b6044820152606490fd5b613cfd565b81810292918115918404141715610adc57565b7f00000000000000000000000000000000000000000000000000000000000000008015613d9257810690818103908111610adc5791565b60405160006020820152602181019190915260c09190911b6001600160c01b031916604182015260298152606081016001600160401b03811182821017610f025760405290565b15613e2f57565b60405162461bcd60e51b815260206004820152601860248201527713d19510dbdc994e881a5b9d985b1a59081c185e5b1bd85960421b6044820152606490fd5b939260719261067494604051968794600160f81b6020870152602186015260018060c01b0319809360c01b16604186015260018060a01b0316604985015260c01b166069830152613ec9815180926020868601910161061b565b8101036051810184520182610f22565b90613ef1600160ff613eea85614230565b1614613e28565b613efa826141e0565b90613f048361427b565b906049845110613f75576049840151936051815110613f3957613f36605182015191613f308151612cde565b9061415c565b91565b60405162461bcd60e51b8152602060048201526014602482015273746f55696e7436345f6f75744f66426f756e647360601b6044820152606490fd5b60405162461bcd60e51b8152602060048201526015602482015274746f427974657333325f6f75744f66426f756e647360581b6044820152606490fd5b6106749082906001600160a01b0381163314612f4657613fd3823383612b6c565b612f46565b6001600160a01b0381169190821561391157600a5490828201809211610adc5760009261401960209260008051602061432983398151915294600a55612861565b818154019055604051908152a3565b6106749183916001600160a01b038116308114159081614054575b50156129845761095e833383612b6c565b905033141538614043565b1561406657565b60405162461bcd60e51b815260206004820152600e60248201526d736c6963655f6f766572666c6f7760901b6044820152606490fd5b156140a357565b60405162461bcd60e51b8152602060048201526011602482015270736c6963655f6f75744f66426f756e647360781b6044820152606490fd5b6140f0826140e9816128a8565b101561405f565b6140fd828251101561409c565b81614115575050604051600081526020810160405290565b60405191601f811691821560051b808486010193838501920101905b8084106141495750508252601f01601f191660405290565b9092835181526020809101930190614131565b614169826140e9816128a8565b61417e8151614177846128b6565b111561409c565b81614196575050604051600081526020810160405290565b60405191601f8116916051831560051b80858701019484860193010101905b8084106141cd5750508252601f01601f191660405290565b90928351815260208091019301906141b5565b60218151106141f357602d015160601c90565b60405162461bcd60e51b8152602060048201526015602482015274746f416464726573735f6f75744f66426f756e647360581b6044820152606490fd5b6001815110614240576001015190565b60405162461bcd60e51b8152602060048201526013602482015272746f55696e74385f6f75744f66426f756e647360681b6044820152606490fd5b6029815110613f39576029015190565b6040519392909160009160c08601916001600160401b03831187841017610f025783926040526096875282602088019560a036883760208451940192f1903d90609682116142df575b6000908286523e9190565b609691506142d456fed81fc9b8523134ed613870ed029d6170cbb73aa6a6bc311b9a642689fb9df59abf551ec93859b170f9b2141bd9298bf3f64322c6f7beb2543a0cb669834118bfddf252ad1be2c89b69c2b068fc378daa952ba7f163c4a11628f55a4df523b3efa2646970667358221220e9faad2d815362004388fc5192bd99e7d082db82f0004ed2dd60e54e7effe09d64736f6c63430008120033",
  "linkReferences": {},
  "deployedLinkReferences": {}
}