{
  "_format": "hh-sol-artifact-1",
  "contractName": "BaseTOFTMarketModule",
  "sourceName": "contracts/tOFT/modules/BaseTOFTMarketModule.sol",
  "abi": [
    {
      "inputs": [
        {
          "internalType": "address",
          "name": "_lzEndpoint",
          "type": "address"
        },
        {
          "internalType": "address",
          "name": "_erc20",
          "type": "address"
        },
        {
          "internalType": "contract IYieldBoxBase",
          "name": "_yieldBox",
          "type": "address"
        },
        {
          "internalType": "string",
          "name": "_name",
          "type": "string"
        },
        {
          "internalType": "string",
          "name": "_symbol",
          "type": "string"
        },
        {
          "internalType": "uint8",
          "name": "_decimal",
          "type": "uint8"
        },
        {
          "internalType": "uint256",
          "name": "_hostChainID",
          "type": "uint256"
        }
      ],
      "stateMutability": "nonpayable",
      "type": "constructor"
    },
    {
      "anonymous": false,
      "inputs": [
        {
          "indexed": true,
          "internalType": "address",
          "name": "owner",
          "type": "address"
        },
        {
          "indexed": true,
          "internalType": "address",
          "name": "spender",
          "type": "address"
        },
        {
          "indexed": false,
          "internalType": "uint256",
          "name": "value",
          "type": "uint256"
        }
      ],
      "name": "Approval",
      "type": "event"
    },
    {
      "anonymous": false,
      "inputs": [
        {
          "indexed": true,
          "internalType": "uint16",
          "name": "_srcChainId",
          "type": "uint16"
        },
        {
          "indexed": false,
          "internalType": "bytes",
          "name": "_srcAddress",
          "type": "bytes"
        },
        {
          "indexed": false,
          "internalType": "uint64",
          "name": "_nonce",
          "type": "uint64"
        },
        {
          "indexed": false,
          "internalType": "bytes32",
          "name": "_hash",
          "type": "bytes32"
        }
      ],
      "name": "CallOFTReceivedSuccess",
      "type": "event"
    },
    {
      "anonymous": false,
      "inputs": [
        {
          "indexed": false,
          "internalType": "uint16",
          "name": "_srcChainId",
          "type": "uint16"
        },
        {
          "indexed": false,
          "internalType": "bytes",
          "name": "_srcAddress",
          "type": "bytes"
        },
        {
          "indexed": false,
          "internalType": "uint64",
          "name": "_nonce",
          "type": "uint64"
        },
        {
          "indexed": false,
          "internalType": "bytes",
          "name": "_payload",
          "type": "bytes"
        },
        {
          "indexed": false,
          "internalType": "bytes",
          "name": "_reason",
          "type": "bytes"
        }
      ],
      "name": "MessageFailed",
      "type": "event"
    },
    {
      "anonymous": false,
      "inputs": [
        {
          "indexed": false,
          "internalType": "address",
          "name": "_address",
          "type": "address"
        }
      ],
      "name": "NonContractAddress",
      "type": "event"
    },
    {
      "anonymous": false,
      "inputs": [
        {
          "indexed": true,
          "internalType": "address",
          "name": "previousOwner",
          "type": "address"
        },
        {
          "indexed": true,
          "internalType": "address",
          "name": "newOwner",
          "type": "address"
        }
      ],
      "name": "OwnershipTransferred",
      "type": "event"
    },
    {
      "anonymous": false,
      "inputs": [
        {
          "indexed": true,
          "internalType": "uint16",
          "name": "_srcChainId",
          "type": "uint16"
        },
        {
          "indexed": true,
          "internalType": "address",
          "name": "_to",
          "type": "address"
        },
        {
          "indexed": false,
          "internalType": "uint256",
          "name": "_amount",
          "type": "uint256"
        }
      ],
      "name": "ReceiveFromChain",
      "type": "event"
    },
    {
      "anonymous": false,
      "inputs": [
        {
          "indexed": false,
          "internalType": "uint16",
          "name": "_srcChainId",
          "type": "uint16"
        },
        {
          "indexed": false,
          "internalType": "bytes",
          "name": "_srcAddress",
          "type": "bytes"
        },
        {
          "indexed": false,
          "internalType": "uint64",
          "name": "_nonce",
          "type": "uint64"
        },
        {
          "indexed": false,
          "internalType": "bytes32",
          "name": "_payloadHash",
          "type": "bytes32"
        }
      ],
      "name": "RetryMessageSuccess",
      "type": "event"
    },
    {
      "anonymous": false,
      "inputs": [
        {
          "indexed": true,
          "internalType": "uint16",
          "name": "_dstChainId",
          "type": "uint16"
        },
        {
          "indexed": true,
          "internalType": "address",
          "name": "_from",
          "type": "address"
        },
        {
          "indexed": true,
          "internalType": "bytes32",
          "name": "_toAddress",
          "type": "bytes32"
        },
        {
          "indexed": false,
          "internalType": "uint256",
          "name": "_amount",
          "type": "uint256"
        }
      ],
      "name": "SendToChain",
      "type": "event"
    },
    {
      "anonymous": false,
      "inputs": [
        {
          "indexed": false,
          "internalType": "uint16",
          "name": "_dstChainId",
          "type": "uint16"
        },
        {
          "indexed": false,
          "internalType": "uint16",
          "name": "_type",
          "type": "uint16"
        },
        {
          "indexed": false,
          "internalType": "uint256",
          "name": "_minDstGas",
          "type": "uint256"
        }
      ],
      "name": "SetMinDstGas",
      "type": "event"
    },
    {
      "anonymous": false,
      "inputs": [
        {
          "indexed": false,
          "internalType": "address",
          "name": "precrime",
          "type": "address"
        }
      ],
      "name": "SetPrecrime",
      "type": "event"
    },
    {
      "anonymous": false,
      "inputs": [
        {
          "indexed": false,
          "internalType": "uint16",
          "name": "_remoteChainId",
          "type": "uint16"
        },
        {
          "indexed": false,
          "internalType": "bytes",
          "name": "_path",
          "type": "bytes"
        }
      ],
      "name": "SetTrustedRemote",
      "type": "event"
    },
    {
      "anonymous": false,
      "inputs": [
        {
          "indexed": false,
          "internalType": "uint16",
          "name": "_remoteChainId",
          "type": "uint16"
        },
        {
          "indexed": false,
          "internalType": "bytes",
          "name": "_remoteAddress",
          "type": "bytes"
        }
      ],
      "name": "SetTrustedRemoteAddress",
      "type": "event"
    },
    {
      "anonymous": false,
      "inputs": [
        {
          "indexed": false,
          "internalType": "bool",
          "name": "_useCustomAdapterParams",
          "type": "bool"
        }
      ],
      "name": "SetUseCustomAdapterParams",
      "type": "event"
    },
    {
      "anonymous": false,
      "inputs": [
        {
          "indexed": true,
          "internalType": "address",
          "name": "from",
          "type": "address"
        },
        {
          "indexed": true,
          "internalType": "address",
          "name": "to",
          "type": "address"
        },
        {
          "indexed": false,
          "internalType": "uint256",
          "name": "value",
          "type": "uint256"
        }
      ],
      "name": "Transfer",
      "type": "event"
    },
    {
      "inputs": [],
      "name": "DEFAULT_PAYLOAD_SIZE_LIMIT",
      "outputs": [
        {
          "internalType": "uint256",
          "name": "",
          "type": "uint256"
        }
      ],
      "stateMutability": "view",
      "type": "function"
    },
    {
      "inputs": [],
      "name": "NO_EXTRA_GAS",
      "outputs": [
        {
          "internalType": "uint256",
          "name": "",
          "type": "uint256"
        }
      ],
      "stateMutability": "view",
      "type": "function"
    },
    {
      "inputs": [],
      "name": "PT_SEND",
      "outputs": [
        {
          "internalType": "uint8",
          "name": "",
          "type": "uint8"
        }
      ],
      "stateMutability": "view",
      "type": "function"
    },
    {
      "inputs": [],
      "name": "PT_SEND_AND_CALL",
      "outputs": [
        {
          "internalType": "uint8",
          "name": "",
          "type": "uint8"
        }
      ],
      "stateMutability": "view",
      "type": "function"
    },
    {
      "inputs": [
        {
          "internalType": "address",
          "name": "owner",
          "type": "address"
        },
        {
          "internalType": "address",
          "name": "spender",
          "type": "address"
        }
      ],
      "name": "allowance",
      "outputs": [
        {
          "internalType": "uint256",
          "name": "",
          "type": "uint256"
        }
      ],
      "stateMutability": "view",
      "type": "function"
    },
    {
      "inputs": [
        {
          "internalType": "address",
          "name": "spender",
          "type": "address"
        },
        {
          "internalType": "uint256",
          "name": "amount",
          "type": "uint256"
        }
      ],
      "name": "approve",
      "outputs": [
        {
          "internalType": "bool",
          "name": "",
          "type": "bool"
        }
      ],
      "stateMutability": "nonpayable",
      "type": "function"
    },
    {
      "inputs": [
        {
          "internalType": "address",
          "name": "account",
          "type": "address"
        }
      ],
      "name": "balanceOf",
      "outputs": [
        {
          "internalType": "uint256",
          "name": "",
          "type": "uint256"
        }
      ],
      "stateMutability": "view",
      "type": "function"
    },
    {
      "inputs": [
        {
          "internalType": "address",
          "name": "module",
          "type": "address"
        },
        {
          "internalType": "uint16",
          "name": "_srcChainId",
          "type": "uint16"
        },
        {
          "internalType": "bytes",
          "name": "_srcAddress",
          "type": "bytes"
        },
        {
          "internalType": "uint64",
          "name": "_nonce",
          "type": "uint64"
        },
        {
          "internalType": "bytes",
          "name": "_payload",
          "type": "bytes"
        }
      ],
      "name": "borrow",
      "outputs": [],
      "stateMutability": "payable",
      "type": "function"
    },
    {
      "inputs": [
        {
          "internalType": "bytes32",
          "name": "_to",
          "type": "bytes32"
        },
        {
          "components": [
            {
              "internalType": "uint256",
              "name": "amount",
              "type": "uint256"
            },
            {
              "internalType": "uint256",
              "name": "borrowAmount",
              "type": "uint256"
            },
            {
              "internalType": "address",
              "name": "marketHelper",
              "type": "address"
            },
            {
              "internalType": "address",
              "name": "market",
              "type": "address"
            }
          ],
          "internalType": "struct ITapiocaOFT.IBorrowParams",
          "name": "borrowParams",
          "type": "tuple"
        },
        {
          "components": [
            {
              "internalType": "bool",
              "name": "withdraw",
              "type": "bool"
            },
            {
              "internalType": "uint256",
              "name": "withdrawLzFeeAmount",
              "type": "uint256"
            },
            {
              "internalType": "bool",
              "name": "withdrawOnOtherChain",
              "type": "bool"
            },
            {
              "internalType": "uint16",
              "name": "withdrawLzChainId",
              "type": "uint16"
            },
            {
              "internalType": "bytes",
              "name": "withdrawAdapterParams",
              "type": "bytes"
            }
          ],
          "internalType": "struct ICommonData.IWithdrawParams",
          "name": "withdrawParams",
          "type": "tuple"
        },
        {
          "components": [
            {
              "internalType": "bool",
              "name": "permitAll",
              "type": "bool"
            },
            {
              "internalType": "bool",
              "name": "allowFailure",
              "type": "bool"
            },
            {
              "internalType": "address",
              "name": "target",
              "type": "address"
            },
            {
              "internalType": "bool",
              "name": "permitBorrow",
              "type": "bool"
            },
            {
              "internalType": "address",
              "name": "owner",
              "type": "address"
            },
            {
              "internalType": "address",
              "name": "spender",
              "type": "address"
            },
            {
              "internalType": "uint256",
              "name": "value",
              "type": "uint256"
            },
            {
              "internalType": "uint256",
              "name": "deadline",
              "type": "uint256"
            },
            {
              "internalType": "uint8",
              "name": "v",
              "type": "uint8"
            },
            {
              "internalType": "bytes32",
              "name": "r",
              "type": "bytes32"
            },
            {
              "internalType": "bytes32",
              "name": "s",
              "type": "bytes32"
            }
          ],
          "internalType": "struct ICommonData.IApproval[]",
          "name": "approvals",
          "type": "tuple[]"
        }
      ],
      "name": "borrowInternal",
      "outputs": [],
      "stateMutability": "payable",
      "type": "function"
    },
    {
      "inputs": [
        {
          "internalType": "uint16",
          "name": "_srcChainId",
          "type": "uint16"
        },
        {
          "internalType": "bytes",
          "name": "_srcAddress",
          "type": "bytes"
        },
        {
          "internalType": "uint64",
          "name": "_nonce",
          "type": "uint64"
        },
        {
          "internalType": "bytes32",
          "name": "_from",
          "type": "bytes32"
        },
        {
          "internalType": "address",
          "name": "_to",
          "type": "address"
        },
        {
          "internalType": "uint256",
          "name": "_amount",
          "type": "uint256"
        },
        {
          "internalType": "bytes",
          "name": "_payload",
          "type": "bytes"
        },
        {
          "internalType": "uint256",
          "name": "_gasForCall",
          "type": "uint256"
        }
      ],
      "name": "callOnOFTReceived",
      "outputs": [],
      "stateMutability": "nonpayable",
      "type": "function"
    },
    {
      "inputs": [],
      "name": "circulatingSupply",
      "outputs": [
        {
          "internalType": "uint256",
          "name": "",
          "type": "uint256"
        }
      ],
      "stateMutability": "view",
      "type": "function"
    },
    {
      "inputs": [
        {
          "internalType": "uint16",
          "name": "",
          "type": "uint16"
        },
        {
          "internalType": "bytes",
          "name": "",
          "type": "bytes"
        },
        {
          "internalType": "uint64",
          "name": "",
          "type": "uint64"
        }
      ],
      "name": "creditedPackets",
      "outputs": [
        {
          "internalType": "bool",
          "name": "",
          "type": "bool"
        }
      ],
      "stateMutability": "view",
      "type": "function"
    },
    {
      "inputs": [],
      "name": "decimals",
      "outputs": [
        {
          "internalType": "uint8",
          "name": "",
          "type": "uint8"
        }
      ],
      "stateMutability": "view",
      "type": "function"
    },
    {
      "inputs": [
        {
          "internalType": "address",
          "name": "spender",
          "type": "address"
        },
        {
          "internalType": "uint256",
          "name": "subtractedValue",
          "type": "uint256"
        }
      ],
      "name": "decreaseAllowance",
      "outputs": [
        {
          "internalType": "bool",
          "name": "",
          "type": "bool"
        }
      ],
      "stateMutability": "nonpayable",
      "type": "function"
    },
    {
      "inputs": [],
      "name": "erc20",
      "outputs": [
        {
          "internalType": "address",
          "name": "",
          "type": "address"
        }
      ],
      "stateMutability": "view",
      "type": "function"
    },
    {
      "inputs": [
        {
          "internalType": "uint16",
          "name": "_dstChainId",
          "type": "uint16"
        },
        {
          "internalType": "bytes32",
          "name": "_toAddress",
          "type": "bytes32"
        },
        {
          "internalType": "uint256",
          "name": "_amount",
          "type": "uint256"
        },
        {
          "internalType": "bytes",
          "name": "_payload",
          "type": "bytes"
        },
        {
          "internalType": "uint64",
          "name": "_dstGasForCall",
          "type": "uint64"
        },
        {
          "internalType": "bool",
          "name": "_useZro",
          "type": "bool"
        },
        {
          "internalType": "bytes",
          "name": "_adapterParams",
          "type": "bytes"
        }
      ],
      "name": "estimateSendAndCallFee",
      "outputs": [
        {
          "internalType": "uint256",
          "name": "nativeFee",
          "type": "uint256"
        },
        {
          "internalType": "uint256",
          "name": "zroFee",
          "type": "uint256"
        }
      ],
      "stateMutability": "view",
      "type": "function"
    },
    {
      "inputs": [
        {
          "internalType": "uint16",
          "name": "_dstChainId",
          "type": "uint16"
        },
        {
          "internalType": "bytes32",
          "name": "_toAddress",
          "type": "bytes32"
        },
        {
          "internalType": "uint256",
          "name": "_amount",
          "type": "uint256"
        },
        {
          "internalType": "bool",
          "name": "_useZro",
          "type": "bool"
        },
        {
          "internalType": "bytes",
          "name": "_adapterParams",
          "type": "bytes"
        }
      ],
      "name": "estimateSendFee",
      "outputs": [
        {
          "internalType": "uint256",
          "name": "nativeFee",
          "type": "uint256"
        },
        {
          "internalType": "uint256",
          "name": "zroFee",
          "type": "uint256"
        }
      ],
      "stateMutability": "view",
      "type": "function"
    },
    {
      "inputs": [
        {
          "internalType": "uint16",
          "name": "",
          "type": "uint16"
        },
        {
          "internalType": "bytes",
          "name": "",
          "type": "bytes"
        },
        {
          "internalType": "uint64",
          "name": "",
          "type": "uint64"
        }
      ],
      "name": "failedMessages",
      "outputs": [
        {
          "internalType": "bytes32",
          "name": "",
          "type": "bytes32"
        }
      ],
      "stateMutability": "view",
      "type": "function"
    },
    {
      "inputs": [
        {
          "internalType": "uint16",
          "name": "_srcChainId",
          "type": "uint16"
        },
        {
          "internalType": "bytes",
          "name": "_srcAddress",
          "type": "bytes"
        }
      ],
      "name": "forceResumeReceive",
      "outputs": [],
      "stateMutability": "nonpayable",
      "type": "function"
    },
    {
      "inputs": [
        {
          "internalType": "uint16",
          "name": "_version",
          "type": "uint16"
        },
        {
          "internalType": "uint16",
          "name": "_chainId",
          "type": "uint16"
        },
        {
          "internalType": "address",
          "name": "",
          "type": "address"
        },
        {
          "internalType": "uint256",
          "name": "_configType",
          "type": "uint256"
        }
      ],
      "name": "getConfig",
      "outputs": [
        {
          "internalType": "bytes",
          "name": "",
          "type": "bytes"
        }
      ],
      "stateMutability": "view",
      "type": "function"
    },
    {
      "inputs": [
        {
          "internalType": "uint16",
          "name": "_remoteChainId",
          "type": "uint16"
        }
      ],
      "name": "getTrustedRemoteAddress",
      "outputs": [
        {
          "internalType": "bytes",
          "name": "",
          "type": "bytes"
        }
      ],
      "stateMutability": "view",
      "type": "function"
    },
    {
      "inputs": [],
      "name": "hostChainID",
      "outputs": [
        {
          "internalType": "uint256",
          "name": "",
          "type": "uint256"
        }
      ],
      "stateMutability": "view",
      "type": "function"
    },
    {
      "inputs": [
        {
          "internalType": "address",
          "name": "spender",
          "type": "address"
        },
        {
          "internalType": "uint256",
          "name": "addedValue",
          "type": "uint256"
        }
      ],
      "name": "increaseAllowance",
      "outputs": [
        {
          "internalType": "bool",
          "name": "",
          "type": "bool"
        }
      ],
      "stateMutability": "nonpayable",
      "type": "function"
    },
    {
      "inputs": [
        {
          "internalType": "uint16",
          "name": "",
          "type": "uint16"
        }
      ],
      "name": "isLdChain",
      "outputs": [
        {
          "internalType": "bool",
          "name": "",
          "type": "bool"
        }
      ],
      "stateMutability": "view",
      "type": "function"
    },
    {
      "inputs": [
        {
          "internalType": "uint16",
          "name": "_srcChainId",
          "type": "uint16"
        },
        {
          "internalType": "bytes",
          "name": "_srcAddress",
          "type": "bytes"
        }
      ],
      "name": "isTrustedRemote",
      "outputs": [
        {
          "internalType": "bool",
          "name": "",
          "type": "bool"
        }
      ],
      "stateMutability": "view",
      "type": "function"
    },
    {
      "inputs": [],
      "name": "lzEndpoint",
      "outputs": [
        {
          "internalType": "contract ILayerZeroEndpoint",
          "name": "",
          "type": "address"
        }
      ],
      "stateMutability": "view",
      "type": "function"
    },
    {
      "inputs": [
        {
          "internalType": "uint16",
          "name": "_srcChainId",
          "type": "uint16"
        },
        {
          "internalType": "bytes",
          "name": "_srcAddress",
          "type": "bytes"
        },
        {
          "internalType": "uint64",
          "name": "_nonce",
          "type": "uint64"
        },
        {
          "internalType": "bytes",
          "name": "_payload",
          "type": "bytes"
        }
      ],
      "name": "lzReceive",
      "outputs": [],
      "stateMutability": "nonpayable",
      "type": "function"
    },
    {
      "inputs": [
        {
          "internalType": "uint16",
          "name": "",
          "type": "uint16"
        },
        {
          "internalType": "uint16",
          "name": "",
          "type": "uint16"
        }
      ],
      "name": "minDstGasLookup",
      "outputs": [
        {
          "internalType": "uint256",
          "name": "",
          "type": "uint256"
        }
      ],
      "stateMutability": "view",
      "type": "function"
    },
    {
      "inputs": [],
      "name": "name",
      "outputs": [
        {
          "internalType": "string",
          "name": "",
          "type": "string"
        }
      ],
      "stateMutability": "view",
      "type": "function"
    },
    {
      "inputs": [
        {
          "internalType": "uint16",
          "name": "_srcChainId",
          "type": "uint16"
        },
        {
          "internalType": "bytes",
          "name": "_srcAddress",
          "type": "bytes"
        },
        {
          "internalType": "uint64",
          "name": "_nonce",
          "type": "uint64"
        },
        {
          "internalType": "bytes",
          "name": "_payload",
          "type": "bytes"
        }
      ],
      "name": "nonblockingLzReceive",
      "outputs": [],
      "stateMutability": "nonpayable",
      "type": "function"
    },
    {
      "inputs": [],
      "name": "owner",
      "outputs": [
        {
          "internalType": "address",
          "name": "",
          "type": "address"
        }
      ],
      "stateMutability": "view",
      "type": "function"
    },
    {
      "inputs": [
        {
          "internalType": "uint16",
          "name": "",
          "type": "uint16"
        }
      ],
      "name": "payloadSizeLimitLookup",
      "outputs": [
        {
          "internalType": "uint256",
          "name": "",
          "type": "uint256"
        }
      ],
      "stateMutability": "view",
      "type": "function"
    },
    {
      "inputs": [],
      "name": "precrime",
      "outputs": [
        {
          "internalType": "address",
          "name": "",
          "type": "address"
        }
      ],
      "stateMutability": "view",
      "type": "function"
    },
    {
      "inputs": [
        {
          "internalType": "bytes",
          "name": "_payload",
          "type": "bytes"
        }
      ],
      "name": "remove",
      "outputs": [],
      "stateMutability": "nonpayable",
      "type": "function"
    },
    {
      "inputs": [
        {
          "internalType": "address",
          "name": "from",
          "type": "address"
        },
        {
          "internalType": "address",
          "name": "to",
          "type": "address"
        },
        {
          "internalType": "uint16",
          "name": "lzDstChainId",
          "type": "uint16"
        },
        {
          "internalType": "address",
          "name": "zroPaymentAddress",
          "type": "address"
        },
        {
          "components": [
            {
              "internalType": "bool",
              "name": "withdraw",
              "type": "bool"
            },
            {
              "internalType": "uint256",
              "name": "withdrawLzFeeAmount",
              "type": "uint256"
            },
            {
              "internalType": "bool",
              "name": "withdrawOnOtherChain",
              "type": "bool"
            },
            {
              "internalType": "uint16",
              "name": "withdrawLzChainId",
              "type": "uint16"
            },
            {
              "internalType": "bytes",
              "name": "withdrawAdapterParams",
              "type": "bytes"
            }
          ],
          "internalType": "struct ICommonData.IWithdrawParams",
          "name": "withdrawParams",
          "type": "tuple"
        },
        {
          "components": [
            {
              "internalType": "uint256",
              "name": "amount",
              "type": "uint256"
            },
            {
              "internalType": "address",
              "name": "marketHelper",
              "type": "address"
            },
            {
              "internalType": "address",
              "name": "market",
              "type": "address"
            }
          ],
          "internalType": "struct ITapiocaOFT.IRemoveParams",
          "name": "removeParams",
          "type": "tuple"
        },
        {
          "components": [
            {
              "internalType": "bool",
              "name": "permitAll",
              "type": "bool"
            },
            {
              "internalType": "bool",
              "name": "allowFailure",
              "type": "bool"
            },
            {
              "internalType": "address",
              "name": "target",
              "type": "address"
            },
            {
              "internalType": "bool",
              "name": "permitBorrow",
              "type": "bool"
            },
            {
              "internalType": "address",
              "name": "owner",
              "type": "address"
            },
            {
              "internalType": "address",
              "name": "spender",
              "type": "address"
            },
            {
              "internalType": "uint256",
              "name": "value",
              "type": "uint256"
            },
            {
              "internalType": "uint256",
              "name": "deadline",
              "type": "uint256"
            },
            {
              "internalType": "uint8",
              "name": "v",
              "type": "uint8"
            },
            {
              "internalType": "bytes32",
              "name": "r",
              "type": "bytes32"
            },
            {
              "internalType": "bytes32",
              "name": "s",
              "type": "bytes32"
            }
          ],
          "internalType": "struct ICommonData.IApproval[]",
          "name": "approvals",
          "type": "tuple[]"
        },
        {
          "internalType": "bytes",
          "name": "adapterParams",
          "type": "bytes"
        }
      ],
      "name": "removeCollateral",
      "outputs": [],
      "stateMutability": "payable",
      "type": "function"
    },
    {
      "inputs": [],
      "name": "renounceOwnership",
      "outputs": [],
      "stateMutability": "nonpayable",
      "type": "function"
    },
    {
      "inputs": [
        {
          "internalType": "uint16",
          "name": "_srcChainId",
          "type": "uint16"
        },
        {
          "internalType": "bytes",
          "name": "_srcAddress",
          "type": "bytes"
        },
        {
          "internalType": "uint64",
          "name": "_nonce",
          "type": "uint64"
        },
        {
          "internalType": "bytes",
          "name": "_payload",
          "type": "bytes"
        }
      ],
      "name": "retryMessage",
      "outputs": [],
      "stateMutability": "payable",
      "type": "function"
    },
    {
      "inputs": [
        {
          "internalType": "address",
          "name": "_from",
          "type": "address"
        },
        {
          "internalType": "uint16",
          "name": "_dstChainId",
          "type": "uint16"
        },
        {
          "internalType": "bytes32",
          "name": "_toAddress",
          "type": "bytes32"
        },
        {
          "internalType": "uint256",
          "name": "_amount",
          "type": "uint256"
        },
        {
          "internalType": "bytes",
          "name": "_payload",
          "type": "bytes"
        },
        {
          "internalType": "uint64",
          "name": "_dstGasForCall",
          "type": "uint64"
        },
        {
          "components": [
            {
              "internalType": "address payable",
              "name": "refundAddress",
              "type": "address"
            },
            {
              "internalType": "address",
              "name": "zroPaymentAddress",
              "type": "address"
            },
            {
              "internalType": "bytes",
              "name": "adapterParams",
              "type": "bytes"
            }
          ],
          "internalType": "struct ICommonOFT.LzCallParams",
          "name": "_callParams",
          "type": "tuple"
        }
      ],
      "name": "sendAndCall",
      "outputs": [],
      "stateMutability": "payable",
      "type": "function"
    },
    {
      "inputs": [
        {
          "internalType": "address",
          "name": "_from",
          "type": "address"
        },
        {
          "internalType": "uint16",
          "name": "_dstChainId",
          "type": "uint16"
        },
        {
          "internalType": "bytes32",
          "name": "_toAddress",
          "type": "bytes32"
        },
        {
          "internalType": "uint256",
          "name": "_amount",
          "type": "uint256"
        },
        {
          "components": [
            {
              "internalType": "address payable",
              "name": "refundAddress",
              "type": "address"
            },
            {
              "internalType": "address",
              "name": "zroPaymentAddress",
              "type": "address"
            },
            {
              "internalType": "bytes",
              "name": "adapterParams",
              "type": "bytes"
            }
          ],
          "internalType": "struct ICommonOFT.LzCallParams",
          "name": "_callParams",
          "type": "tuple"
        }
      ],
      "name": "sendFrom",
      "outputs": [],
      "stateMutability": "payable",
      "type": "function"
    },
    {
      "inputs": [
        {
          "internalType": "address",
          "name": "_from",
          "type": "address"
        },
        {
          "internalType": "address",
          "name": "_to",
          "type": "address"
        },
        {
          "internalType": "uint16",
          "name": "lzDstChainId",
          "type": "uint16"
        },
        {
          "internalType": "bytes",
          "name": "airdropAdapterParams",
          "type": "bytes"
        },
        {
          "components": [
            {
              "internalType": "uint256",
              "name": "amount",
              "type": "uint256"
            },
            {
              "internalType": "uint256",
              "name": "borrowAmount",
              "type": "uint256"
            },
            {
              "internalType": "address",
              "name": "marketHelper",
              "type": "address"
            },
            {
              "internalType": "address",
              "name": "market",
              "type": "address"
            }
          ],
          "internalType": "struct ITapiocaOFT.IBorrowParams",
          "name": "borrowParams",
          "type": "tuple"
        },
        {
          "components": [
            {
              "internalType": "bool",
              "name": "withdraw",
              "type": "bool"
            },
            {
              "internalType": "uint256",
              "name": "withdrawLzFeeAmount",
              "type": "uint256"
            },
            {
              "internalType": "bool",
              "name": "withdrawOnOtherChain",
              "type": "bool"
            },
            {
              "internalType": "uint16",
              "name": "withdrawLzChainId",
              "type": "uint16"
            },
            {
              "internalType": "bytes",
              "name": "withdrawAdapterParams",
              "type": "bytes"
            }
          ],
          "internalType": "struct ICommonData.IWithdrawParams",
          "name": "withdrawParams",
          "type": "tuple"
        },
        {
          "components": [
            {
              "internalType": "uint256",
              "name": "extraGasLimit",
              "type": "uint256"
            },
            {
              "internalType": "address",
              "name": "zroPaymentAddress",
              "type": "address"
            }
          ],
          "internalType": "struct ICommonData.ISendOptions",
          "name": "options",
          "type": "tuple"
        },
        {
          "components": [
            {
              "internalType": "bool",
              "name": "permitAll",
              "type": "bool"
            },
            {
              "internalType": "bool",
              "name": "allowFailure",
              "type": "bool"
            },
            {
              "internalType": "address",
              "name": "target",
              "type": "address"
            },
            {
              "internalType": "bool",
              "name": "permitBorrow",
              "type": "bool"
            },
            {
              "internalType": "address",
              "name": "owner",
              "type": "address"
            },
            {
              "internalType": "address",
              "name": "spender",
              "type": "address"
            },
            {
              "internalType": "uint256",
              "name": "value",
              "type": "uint256"
            },
            {
              "internalType": "uint256",
              "name": "deadline",
              "type": "uint256"
            },
            {
              "internalType": "uint8",
              "name": "v",
              "type": "uint8"
            },
            {
              "internalType": "bytes32",
              "name": "r",
              "type": "bytes32"
            },
            {
              "internalType": "bytes32",
              "name": "s",
              "type": "bytes32"
            }
          ],
          "internalType": "struct ICommonData.IApproval[]",
          "name": "approvals",
          "type": "tuple[]"
        }
      ],
      "name": "sendToYBAndBorrow",
      "outputs": [],
      "stateMutability": "payable",
      "type": "function"
    },
    {
      "inputs": [
        {
          "internalType": "uint16",
          "name": "_version",
          "type": "uint16"
        },
        {
          "internalType": "uint16",
          "name": "_chainId",
          "type": "uint16"
        },
        {
          "internalType": "uint256",
          "name": "_configType",
          "type": "uint256"
        },
        {
          "internalType": "bytes",
          "name": "_config",
          "type": "bytes"
        }
      ],
      "name": "setConfig",
      "outputs": [],
      "stateMutability": "nonpayable",
      "type": "function"
    },
    {
      "inputs": [
        {
          "internalType": "uint16",
          "name": "_chainId",
          "type": "uint16"
        },
        {
          "internalType": "bool",
          "name": "_isLdChain",
          "type": "bool"
        }
      ],
      "name": "setLdChain",
      "outputs": [],
      "stateMutability": "nonpayable",
      "type": "function"
    },
    {
      "inputs": [
        {
          "internalType": "uint16",
          "name": "_dstChainId",
          "type": "uint16"
        },
        {
          "internalType": "uint16",
          "name": "_packetType",
          "type": "uint16"
        },
        {
          "internalType": "uint256",
          "name": "_minGas",
          "type": "uint256"
        }
      ],
      "name": "setMinDstGas",
      "outputs": [],
      "stateMutability": "nonpayable",
      "type": "function"
    },
    {
      "inputs": [
        {
          "internalType": "uint16",
          "name": "_dstChainId",
          "type": "uint16"
        },
        {
          "internalType": "uint256",
          "name": "_size",
          "type": "uint256"
        }
      ],
      "name": "setPayloadSizeLimit",
      "outputs": [],
      "stateMutability": "nonpayable",
      "type": "function"
    },
    {
      "inputs": [
        {
          "internalType": "address",
          "name": "_precrime",
          "type": "address"
        }
      ],
      "name": "setPrecrime",
      "outputs": [],
      "stateMutability": "nonpayable",
      "type": "function"
    },
    {
      "inputs": [
        {
          "internalType": "uint16",
          "name": "_version",
          "type": "uint16"
        }
      ],
      "name": "setReceiveVersion",
      "outputs": [],
      "stateMutability": "nonpayable",
      "type": "function"
    },
    {
      "inputs": [
        {
          "internalType": "uint16",
          "name": "_version",
          "type": "uint16"
        }
      ],
      "name": "setSendVersion",
      "outputs": [],
      "stateMutability": "nonpayable",
      "type": "function"
    },
    {
      "inputs": [
        {
          "internalType": "uint16",
          "name": "_srcChainId",
          "type": "uint16"
        },
        {
          "internalType": "bytes",
          "name": "_path",
          "type": "bytes"
        }
      ],
      "name": "setTrustedRemote",
      "outputs": [],
      "stateMutability": "nonpayable",
      "type": "function"
    },
    {
      "inputs": [
        {
          "internalType": "uint16",
          "name": "_remoteChainId",
          "type": "uint16"
        },
        {
          "internalType": "bytes",
          "name": "_remoteAddress",
          "type": "bytes"
        }
      ],
      "name": "setTrustedRemoteAddress",
      "outputs": [],
      "stateMutability": "nonpayable",
      "type": "function"
    },
    {
      "inputs": [
        {
          "internalType": "bool",
          "name": "_useCustomAdapterParams",
          "type": "bool"
        }
      ],
      "name": "setUseCustomAdapterParams",
      "outputs": [],
      "stateMutability": "nonpayable",
      "type": "function"
    },
    {
      "inputs": [],
      "name": "sharedDecimals",
      "outputs": [
        {
          "internalType": "uint8",
          "name": "",
          "type": "uint8"
        }
      ],
      "stateMutability": "view",
      "type": "function"
    },
    {
      "inputs": [
        {
          "internalType": "bytes4",
          "name": "interfaceId",
          "type": "bytes4"
        }
      ],
      "name": "supportsInterface",
      "outputs": [
        {
          "internalType": "bool",
          "name": "",
          "type": "bool"
        }
      ],
      "stateMutability": "view",
      "type": "function"
    },
    {
      "inputs": [],
      "name": "symbol",
      "outputs": [
        {
          "internalType": "string",
          "name": "",
          "type": "string"
        }
      ],
      "stateMutability": "view",
      "type": "function"
    },
    {
      "inputs": [],
      "name": "token",
      "outputs": [
        {
          "internalType": "address",
          "name": "",
          "type": "address"
        }
      ],
      "stateMutability": "view",
      "type": "function"
    },
    {
      "inputs": [],
      "name": "totalSupply",
      "outputs": [
        {
          "internalType": "uint256",
          "name": "",
          "type": "uint256"
        }
      ],
      "stateMutability": "view",
      "type": "function"
    },
    {
      "inputs": [
        {
          "internalType": "address",
          "name": "to",
          "type": "address"
        },
        {
          "internalType": "uint256",
          "name": "amount",
          "type": "uint256"
        }
      ],
      "name": "transfer",
      "outputs": [
        {
          "internalType": "bool",
          "name": "",
          "type": "bool"
        }
      ],
      "stateMutability": "nonpayable",
      "type": "function"
    },
    {
      "inputs": [
        {
          "internalType": "address",
          "name": "from",
          "type": "address"
        },
        {
          "internalType": "address",
          "name": "to",
          "type": "address"
        },
        {
          "internalType": "uint256",
          "name": "amount",
          "type": "uint256"
        }
      ],
      "name": "transferFrom",
      "outputs": [
        {
          "internalType": "bool",
          "name": "",
          "type": "bool"
        }
      ],
      "stateMutability": "nonpayable",
      "type": "function"
    },
    {
      "inputs": [
        {
          "internalType": "address",
          "name": "newOwner",
          "type": "address"
        }
      ],
      "name": "transferOwnership",
      "outputs": [],
      "stateMutability": "nonpayable",
      "type": "function"
    },
    {
      "inputs": [
        {
          "internalType": "uint16",
          "name": "",
          "type": "uint16"
        }
      ],
      "name": "trustedRemoteLookup",
      "outputs": [
        {
          "internalType": "bytes",
          "name": "",
          "type": "bytes"
        }
      ],
      "stateMutability": "view",
      "type": "function"
    },
    {
      "inputs": [],
      "name": "useCustomAdapterParams",
      "outputs": [
        {
          "internalType": "bool",
          "name": "",
          "type": "bool"
        }
      ],
      "stateMutability": "view",
      "type": "function"
    },
    {
      "inputs": [],
      "name": "yieldBox",
      "outputs": [
        {
          "internalType": "contract IYieldBoxBase",
          "name": "",
          "type": "address"
        }
      ],
      "stateMutability": "view",
      "type": "function"
    },
    {
      "stateMutability": "payable",
      "type": "receive"
    }
  ],
  "bytecode": "0x60e060409080825234620005685762005bae80380380916200002282856200056d565b833981019060e08183031262000568576200003d81620005a7565b906020906200004e828201620005a7565b818601516001600160a01b0380821696909291879003620005685760608401516001600160401b0395908681116200056857826200008e918701620005e1565b916080860151908782116200056857620000aa918701620005e1565b9060a086015160ff811696878203620005685760c00151978b5180956a546170696f63614f46542d60a81b85830152620000ee8151809287602b86019101620005bc565b8101039462000108602b600b97888101845201826200056d565b607f8d518096601d60fa1b878301526200012c8151809289602186019101620005bc565b810103936200014660216001968781018a5201886200056d565b841c16946000968988549d60018060a01b03199e8f33908216178b55823391167f8be0079c531659141344cd1fd0a4f28419497f9722a3daafe3b4186f6b6457e08c80a3166080528660a052825184811162000554578154938685811c9516801562000549575b8886101462000535578190601f95868111620004e2575b5088908683116001146200047e578b9262000472575b5050600019600383901b1c191690861b1790555b80519283116200045e57600c548481811c9116801562000453575b868210146200043f57828111620003f6575b50849183116001146200039057928293918392889462000384575b50501b916000199060031b1c191617600c555b6012821162000331575060120360ff81116200031d5760ff1690604d8211620003095750600a0a60c0521683600f541617600f5560ff196011541617601155601055600e541617600e555161557190816200063d82396080518181816104af0152818161079001528181610ab501528181610fb7015281816111cf01528181612188015281816124a701528181612b7c0152818161339f015281816142b6015281816146e701526151b8015260a05181611bd8015260c051816152120152f35b634e487b7160e01b81526011600452602490fd5b634e487b7160e01b82526011600452602482fd5b6084908a519062461bcd60e51b82526004820152602760248201527f4f46543a20736861726564446563696d616c73206d757374206265203c3d20646044820152666563696d616c7360c81b6064820152fd5b01519250388062000236565b600c8752848720919083601f198116895b8888838310620003de5750505010620003c4575b505050811b01600c5562000249565b015160001960f88460031b161c19169055388080620003b5565b868601518855909601959485019487935001620003a1565b600c88528588208380860160051c82019288871062000435575b0160051c019085905b828110620004295750506200021b565b89815501859062000419565b9250819262000410565b634e487b7160e01b88526022600452602488fd5b90607f169062000209565b634e487b7160e01b87526041600452602487fd5b015190503880620001da565b848c52898c208994509190601f1984168d5b8c828210620004cb5750508411620004b1575b505050811b019055620001ee565b015160001960f88460031b161c19169055388080620004a3565b8385015186558c9790950194938401930162000490565b909150838b52888b208680850160051c8201928b86106200052b575b918a91869594930160051c01915b8281106200051c575050620001c4565b8d81558594508a91016200050c565b92508192620004fe565b634e487b7160e01b8a52602260045260248afd5b94607f1694620001ad565b634e487b7160e01b89526041600452602489fd5b600080fd5b601f909101601f19168101906001600160401b038211908210176200059157604052565b634e487b7160e01b600052604160045260246000fd5b51906001600160a01b03821682036200056857565b60005b838110620005d05750506000910152565b8181015183820152602001620005bf565b81601f82011215620005685780516001600160401b03811162000591576040519262000618601f8301601f1916602001856200056d565b818452602082840101116200056857620006399160208085019101620005bc565b9056fe6080604052600436101561001b575b361561001957600080fd5b005b60003560e01c80621d3567146103df57806254af3a146103da57806301ffc9a7146103d557806306fdde03146103d057806307e0db17146103cb578063095ea7b3146103c657806309be4511146103c15780630df37483146103bc57806310ddb137146103b757806318160ddd1461033a57806319b88372146103b257806323b872dd146103ad578063296c5221146103a8578063313ce567146103a3578063365260b41461039e57806339509351146103995780633b597150146103945780633d8b38f61461038f5780633f1f4fa41461038a57806342d65a8d1461038557806344770515146103805780634c42899a1461038057806358edef4c1461037b5780635b8c41e61461037657806366ad5c8a14610371578063695ef6bf1461036c57806370a0823114610367578063715018a6146103625780637533d7881461035d57806376203b4814610358578063785e9e8614610353578063857749b01461034e57806386263568146103495780638cfd8f5c146103445780638da5cb5b1461033f5780639358928b1461033a578063950c8a741461033557806395d89b41146103305780639bdb98121461032b5780639f38369a14610326578063a457c2d714610321578063a4c51df51461031c578063a6c3d16514610317578063a9059cbb14610312578063b353aaa71461030d578063baf3292d14610308578063bc48a9e814610303578063c4461834146102fe578063cbed8b9c146102f9578063d1deba1f146102f4578063dd62ed3e146102ef578063de406577146102ea578063df2a5b3b146102e5578063e6a20ae6146102e0578063eab45d9c146102db578063eaffd49a146102d6578063eb8d72b7146102d1578063ed629c5c146102cc578063f2fde38b146102c7578063f5ecbdbc146102c25763fc0c546a0361000e57612be6565b612b12565b612a4b565b612a28565b6128de565b612855565b6127f3565b6127d7565b6126ea565b6126c1565b612667565b61251c565b612453565b612436565b612227565b6121b7565b612172565b612148565b611fc5565b611f2e565b611e70565b611dcd565b611d82565b611cde565b611cb5565b610b16565b611c8c565b611c3a565b611bfc565b611bbe565b611b95565b611977565b611920565b6117da565b61179d565b6116ba565b611626565b6115bf565b611252565b611236565b6111b5565b61117c565b611120565b611091565b611035565b610f2d565b610f11565b610e79565b610bfd565b610b58565b610a8c565b610a4d565b6109a8565b610831565b610767565b610687565b6105d5565b6105b7565b610498565b61ffff8116036103f057565b600080fd5b9181601f840112156103f0578235916001600160401b0383116103f057602083818601950101116103f057565b6001600160401b038116036103f057565b9060806003198301126103f05760043561044c816103e4565b916001600160401b03906024358281116103f0578161046d916004016103f5565b9390939260443561047d81610422565b926064359182116103f057610494916004016103f5565b9091565b346103f0576104a636610433565b929493919291907f00000000000000000000000000000000000000000000000000000000000000006001600160a01b031633036105675761052c610534926100199761052561050b6105068a61ffff166000526001602052604060002090565b611905565b805190818414918261055d575b508161053a575b506141bf565b3691610c6d565b923691610c6d565b9261447b565b9050610547368486610c6d565b602081519101209060208151910120143861051f565b1515915038610518565b60405162461bcd60e51b815260206004820152601e60248201527f4c7a4170703a20696e76616c696420656e64706f696e742063616c6c657200006044820152606490fd5b60009103126103f057565b346103f05760003660031901126103f0576020601054604051908152f35b346103f05760203660031901126103f05760043563ffffffff60e01b81168091036103f057602090631f7ecdf760e01b811490811561061a575b506040519015158152f35b6301ffc9a760e01b1490503861060f565b60005b83811061063e5750506000910152565b818101518382015260200161062e565b906020916106678151809281855285808601910161062b565b601f01601f1916010190565b90602061068492818152019061064e565b90565b346103f0576000806003193601126107645760405181600b546106a981611835565b8084529060019081811690811561073c57506001146106e3575b6106df846106d3818803826108f3565b60405191829182610673565b0390f35b600b8352602094507f0175b7a638427703f0dbe7bb9bbf987a2551717b34e79f33b5b1008d1fa01db95b82841061072957505050816106df936106d392820101936106c3565b805485850187015292850192810161070d565b6106df96506106d39450602092508593915060ff191682840152151560051b820101936106c3565b80fd5b346103f0576000602036600319011261076457600435610786816103e4565b61078e612c01565b7f00000000000000000000000000000000000000000000000000000000000000006001600160a01b0316908290823b1561080257602461ffff918360405195869485936307e0db1760e01b85521660048401525af180156107fd576107f1575080f35b6107fa9061088a565b80f35b6132c0565b5080fd5b6001600160a01b038116036103f057565b6064359061082482610806565b565b359061082482610806565b346103f05760403660031901126103f05761085b60043561085181610806565b6024359033612e44565b602060405160018152f35b908160a09103126103f05790565b634e487b7160e01b600052604160045260246000fd5b6001600160401b03811161089d57604052565b610874565b606081019081106001600160401b0382111761089d57604052565b60a081019081106001600160401b0382111761089d57604052565b608081019081106001600160401b0382111761089d57604052565b90601f801991011681019081106001600160401b0382111761089d57604052565b6040519061016082018281106001600160401b0382111761089d57604052565b60609060a31901126103f0576040519061094d826108a2565b8160a435815260c43561095f81610806565b6020820152604060e4359161097383610806565b0152565b9181601f840112156103f0578235916001600160401b0383116103f05760208085019461016085020101116103f057565b6101403660031901126103f0576004356109c181610806565b6024356109cd81610806565b604435916109da836103e4565b6109e2610817565b6001600160401b03936084358581116103f057610a03903690600401610866565b610a0c36610934565b90610104358781116103f057610a26903690600401610977565b949093610124359889116103f057610a456100199936906004016103f5565b9890976131ac565b346103f05760403660031901126103f05761ffff600435610a6d816103e4565b610a75612c01565b166000526003602052602435604060002055600080f35b346103f0576000602036600319011261076457600435610aab816103e4565b610ab3612c01565b7f00000000000000000000000000000000000000000000000000000000000000006001600160a01b0316908290823b1561080257602461ffff918360405195869485936310ddb13760e01b85521660048401525af180156107fd576107f1575080f35b346103f05760003660031901126103f0576020600a54604051908152f35b60809060831901126103f057608490565b6040906101231901126103f05761012490565b6101803660031901126103f057600435610b7181610806565b602435610b7d81610806565b60443591610b8a836103e4565b6001600160401b03926064358481116103f057610bab9036906004016103f5565b610bb436610b34565b90610104358781116103f057610bce903690600401610866565b92610bd836610b45565b94610164359889116103f057610bf5610019993690600401610977565b989097613363565b346103f05760603660031901126103f05761085b600435610c1d81610806565b602435610c2981610806565b60443591610c38833383612f6f565b612d75565b801515036103f057565b359061082482610c3d565b6001600160401b03811161089d57601f01601f191660200190565b929192610c7982610c52565b91610c8760405193846108f3565b8294818452818301116103f0578281602093846000960137010152565b9080601f830112156103f05781602061068493359101610c6d565b919060a0838203126103f05760405190610cd8826108bd565b81938035610ce581610c3d565b8352602081013560208401526040810135610cff81610c3d565b60408401526060810135610d12816103e4565b60608401526080810135916001600160401b0383116103f057608092610d389201610ca4565b910152565b6001600160401b03811161089d5760051b60200190565b60ff8116036103f057565b359061082482610d54565b81601f820112156103f057803590610d8182610d3d565b92604090610d91825195866108f3565b8385526020918286019183610160809702860101948186116103f0578401925b858410610dc2575050505050505090565b86848303126103f057848791610dd6610914565b610ddf87610c47565b8152610dec838801610c47565b83820152610dfb868801610826565b868201526060610e0c818901610c47565b908201526080610e1d818901610826565b9082015260a0610e2e818901610826565b9082015260c0808801359082015260e08088013590820152610100610e54818901610d5f565b9082015261012080880135908201526101408088013590820152815201930192610db1565b60e03660031901126103f05760803660231901126103f057604051610e9d816108d8565b60243581526044356020820152606435610eb681610806565b6040820152608435610ec781610806565b60608201526001600160401b039060a4358281116103f057610eed903690600401610cbf565b60c4359283116103f057610f08610019933690600401610d6a565b91600435613b00565b346103f05760003660031901126103f057602060405160128152f35b346103f05760a03660031901126103f057600435610f4a816103e4565b60643590610f5782610c3d565b608435906001600160401b0382116103f057610f7c61052560409336906004016103f5565b90610fb3610f96610f8e604435614da7565b602435614e46565b928451958694859463040a7bb160e41b8652309060048701614870565b03817f00000000000000000000000000000000000000000000000000000000000000006001600160a01b03165afa9081156107fd576000908192611004575b50604080519182526020820192909252f35b9050611027915060403d811161102e575b61101f81836108f3565b81019061485a565b9038610ff2565b503d611015565b346103f05760403660031901126103f05760043561105281610806565b3360009081526009602090815260408083206001600160a01b0385168452909152902054602435810180911161108c5761085b9133612e44565b612c83565b346103f05760403660031901126103f0576004356110ae816103e4565b61ffff602435916110be83610c3d565b6110c6612c01565b16600052600d60205260406000209060ff801983541691151516179055600080f35b9060406003198301126103f057600435611101816103e4565b91602435906001600160401b0382116103f057610494916004016103f5565b346103f057602061ffff61116d611136366110e8565b939091166000526001845261115861115f60406000206040519283809261186f565b03826108f3565b848151910120923691610c6d565b82815191012014604051908152f35b346103f05760203660031901126103f05761ffff60043561119c816103e4565b1660005260036020526020604060002054604051908152f35b346103f0576111c3366110e8565b91906111cd612c01565b7f00000000000000000000000000000000000000000000000000000000000000006001600160a01b031691823b156103f057604051928380926342d65a8d60e01b825281611224600098899788946004850161440c565b03925af180156107fd576107f1575080f35b346103f05760003660031901126103f057602060405160008152f35b346103f0576020806003193601126103f057600480356001600160401b03928382116103f05761129961128b6112c99336908601610ca4565b828082518301019101613baf565b80516001600160a01b039c968d169a929850929650909492935090611545575b506112c26151a3565b9116614e15565b81528460409283830197856112f66112ea6112ea8c5160018060a01b031690565b6001600160a01b031690565b865163de40657760e01b815294859182905afa80156107fd578893600091611518575b501693856113336112ea6112ea8c5160018060a01b031690565b82516377607a1760e11b8152998a9182905afa9788156107fd576000986114f7575b5083518151638eb22cdd60e01b81528481018a815260208101929092526000604083015298999087908a9081906060015b0381895afa9889156107fd576000996114bc575b506112ea6112ea826113be8c6113b96113cc965160018060a01b031690565b612c73565b50516001600160a01b031690565b803b156103f057815163cce19f8160e01b81526001600160a01b0389168582018181526020810191909152604081018b9052909160009183919082908490829060600103925af180156107fd576114a9575b50815161142757005b8386015161143f906112ea906001600160a01b031681565b95820151936080611455606085015161ffff1690565b9151930151873b156103f057600099611486948a80948996519e8f9d8e9c8d9b63b741c07960e01b8d528c01613c88565b03925af180156107fd5761149657005b806114a36100199261088a565b806105ac565b806114a36114b69261088a565b3861141e565b6113cc9199506112ea6114e76112ea928a3d8c116114f0575b6114df81836108f3565b810190613c79565b9a92505061139a565b503d6114d5565b611386985061151290873d89116114f0576114df81836108f3565b97611355565b6115389150873d891161153e575b61153081836108f3565b810190613c64565b38611319565b503d611526565b61154e90613ddc565b386112b9565b9060606003198301126103f05760043561156d816103e4565b91602435906001600160401b0382116103f05761158c91600401610ca4565b9060443561068481610422565b6020906115b392826040519483868095519384920161062b565b82019081520301902090565b346103f057602061161d61ffff6115fc836115d936611554565b94909116600052600582526040600020826040519483868095519384920161062b565b820190815203019020906001600160401b0316600052602052604060002090565b54604051908152f35b346103f05761163436610433565b91929493903033036116585761052c61165292610019973691610c6d565b926148b4565b60405162461bcd60e51b815260206004820152602660248201527f4e6f6e626c6f636b696e674c7a4170703a2063616c6c6572206d7573742062656044820152650204c7a4170760d41b6064820152608490fd5b908160609103126103f05790565b60a03660031901126103f0576004356116d281610806565b6024356116de816103e4565b604435916084356001600160401b0381116103f057602061ffff6117156000805160206154dc8339815191529336906004016116ac565b93611788853561172481610806565b61174261052586890135986117388a610806565b6040810190614665565b61174c818a614ca4565b61176161175a606435614e28565b5085615006565b9761176d891515614a4a565b61177f6117798a614da7565b8c614e46565b9234938b614272565b6040519485526001600160a01b0316941692a4005b346103f05760203660031901126103f0576004356117ba81610806565b60018060a01b031660005260086020526020604060002054604051908152f35b346103f057600080600319360112610764576117f4612c01565b80546001600160a01b03198116825581906001600160a01b03167f8be0079c531659141344cd1fd0a4f28419497f9722a3daafe3b4186f6b6457e08280a380f35b90600182811c92168015611865575b602083101461184f57565b634e487b7160e01b600052602260045260246000fd5b91607f1691611844565b906000929180549161188083611835565b9182825260019384811690816000146118e257506001146118a2575b50505050565b90919394506000526020928360002092846000945b8386106118ce57505050500101903880808061189c565b8054858701830152940193859082016118b7565b9294505050602093945060ff191683830152151560051b0101903880808061189c565b90610824611919926040519384809261186f565b03836108f3565b346103f05760203660031901126103f05761ffff600435611940816103e4565b1660005260016020526106df61115861196360406000206040519283809261186f565b60405191829160208352602083019061064e565b60e03660031901126103f05760043561198f81610806565b60243561199b816103e4565b604435916001600160401b03906084358281116103f0576119c09036906004016103f5565b91909260a435916119d083610422565b60c4358281116103f0576119e89036906004016116ac565b92611a1f8435956119f887610806565b611a17611a0d60208801359761173889610806565b9990923691610c6d565b973691610c6d565b9460ff60065416600014611b14576022865110611acf578560209561177f61178894611a9d8c611a8a61ffff9a8b60226000805160206154dc8339815191529f0151931660005260028d528416611a8460406000206001600052602052604060002090565b54612cb5565b90611a96821515614cf9565b1015614d45565b611ab2611aab606435614e28565b5088615006565b9a611abe8c1515614a4a565b8d611ac88d614da7565b9033614ec0565b60405162461bcd60e51b815260206004820152601c60248201527f4c7a4170703a20696e76616c69642061646170746572506172616d73000000006044820152606490fd5b948094935051611b41576000805160206154dc8339815191529460209461ffff9461177f61178894611a9d565b60405162461bcd60e51b815260206004820152602660248201527f4f4654436f72653a205f61646170746572506172616d73206d7573742062652060448201526532b6b83a3c9760d11b6064820152608490fd5b346103f05760003660031901126103f057600f546040516001600160a01b039091168152602090f35b346103f05760003660031901126103f057602060405160ff7f0000000000000000000000000000000000000000000000000000000000000000168152f35b346103f05760203660031901126103f05761ffff600435611c1c816103e4565b16600052600d602052602060ff604060002054166040519015158152f35b346103f05760403660031901126103f057602061161d600435611c5c816103e4565b61ffff60243591611c6c836103e4565b166000526002835260406000209061ffff16600052602052604060002090565b346103f05760003660031901126103f0576000546040516001600160a01b039091168152602090f35b346103f05760003660031901126103f0576004546040516001600160a01b039091168152602090f35b346103f0576000806003193601126107645760405181600c54611d0081611835565b8084529060019081811690811561073c5750600114611d29576106df846106d3818803826108f3565b600c8352602094507fdf6966c971051c3d54ec59162606531493a51404a002842f56009d7e5cf4a8c75b828410611d6f57505050816106df936106d392820101936106c3565b8054858501870152928501928101611d53565b346103f057602060ff611dc161ffff6115fc84611d9e36611554565b94909116600052600782526040600020826040519483868095519384920161062b565b54166040519015158152f35b346103f05760203660031901126103f05761ffff600435611ded816103e4565b166000526001602052611158611e0d60406000206040519283809261186f565b805115611e2b576106d381611e256106df93516138d9565b906152cf565b60405162461bcd60e51b815260206004820152601d60248201527f4c7a4170703a206e6f20747275737465642070617468207265636f72640000006044820152606490fd5b346103f05760403660031901126103f057600435611e8d81610806565b60243590336000526009602052611eba8160406000209060018060a01b0316600052602052604060002090565b5491808310611edb57611ecf92039033612e44565b60405160018152602090f35b60405162461bcd60e51b815260206004820152602560248201527f45524332303a2064656372656173656420616c6c6f77616e63652062656c6f77604482015264207a65726f60d81b6064820152608490fd5b346103f05760e03660031901126103f057600435611f4b816103e4565b6001600160401b03906064358281116103f057611f6c9036906004016103f5565b608492919235611f7b81610422565b60a43591611f8883610c3d565b60c4359586116103f057611fa3611fb39636906004016103f5565b9590946044359060243590614697565b60408051928352602083019190915290f35b346103f057611fd3366110e8565b90611fdc612c01565b604051926020928083858701376120086034868381013060601b888201520360148101885201866108f3565b60009361ffff8316855260019081815260408620918751916001600160401b03831161089d576120428361203c8654611835565b86614427565b80601f84116001146120b25750918080926120a19695948a9b7f8c0400cfe2d1199b1a725c78960bcc2a344d869b80590d0f2bd005db15a572ce9b946120a7575b50501b916000199060031b1c19161790555b6040519384938461440c565b0390a180f35b015192503880612083565b91939498601f1984166120ca87600052602060002090565b938a905b828210612131575050917f8c0400cfe2d1199b1a725c78960bcc2a344d869b80590d0f2bd005db15a572ce999a959391856120a198969410612118575b505050811b019055612095565b015160001960f88460031b161c1916905538808061210b565b8088869782949787015181550196019401906120ce565b346103f05760403660031901126103f05761085b60043561216881610806565b6024359033612d75565b346103f05760003660031901126103f0576040517f00000000000000000000000000000000000000000000000000000000000000006001600160a01b03168152602090f35b346103f05760203660031901126103f0577f5db758e995a17ec1ad84bdef7e8c3293a0bd6179bcce400dff5d4c3d87db726b60206004356121f781610806565b6121ff612c01565b600480546001600160a01b0319166001600160a01b03929092169182179055604051908152a1005b60a03660031901126103f05760043561223f81610806565b60243561224b816103e4565b6001600160401b03916044358381116103f05761226c903690600401610ca4565b60643561227881610422565b608435928584116103f057600061ffff936122d9936122aa6000805160206154fc833981519152973690600401610ca4565b91836122bf6020855186010160208601613671565b9a95509a9360018060a09e94939e1b03169f6112c26151a3565b8a526122e430612c59565b54988d8b8861233861233461232d836123158d61230f8961ffff166000526007602052604060002090565b90611599565b906001600160401b0316600052602052604060002090565b5460ff1690565b1590565b6123ef575b5061237d915061236f61234f30612c59565b549b604051948593602085019763296c522160e01b89526024860161377b565b03601f1981018352826108f3565b51915af49361238a6138a9565b94156123b4575b50505050505051926123af6040519283921694829190602083019252565b0390a3005b6123d3956123c1916138f7565b8651809110156123de575b508861450f565b388080808080612391565b6123e9908b30613904565b386123cc565b61231561241b61242e9461240761242195513061511c565b61ffff166000526007602052604060002090565b8a611599565b805460ff19166001179055565b8d8b8861233d565b346103f05760003660031901126103f05760206040516127108152f35b346103f05760803660031901126103f057600435612470816103e4565b60243561247c816103e4565b6064356001600160401b0381116103f05761249b9036906004016103f5565b90926124a5612c01565b7f00000000000000000000000000000000000000000000000000000000000000006001600160a01b031690813b156103f05760008094611486604051978896879586946332fb62e760e21b865261ffff80921660048701521660248501526044356044850152608060648501526084840191613007565b61252536610433565b9161ffff8694929616600052600560205261256c81604060002060206040518092878b833787820190815203019020906001600160401b0316600052602052604060002090565b549182156126165761260584836125fe7fc264d91f3adc5588250e1551f547752ca0cfa8f6b530d243b9f9f4cab10ea8e59a60006125ea846123158e8a8f6126119f908f6125d0906125c36125e49436908d610c6d565b60208151910120146145d8565b61ffff166000526005602052604060002090565b916145bf565b556125f636878d610c6d565b933691610c6d565b91886148b4565b6040519586958661462e565b0390a1005b60405162461bcd60e51b815260206004820152602360248201527f4e6f6e626c6f636b696e674c7a4170703a206e6f2073746f726564206d65737360448201526261676560e81b6064820152608490fd5b346103f05760403660031901126103f057602061161d60043561268981610806565b6024359061269682610806565b60018060a01b03166000526009835260406000209060018060a01b0316600052602052604060002090565b346103f05760003660031901126103f057600e546040516001600160a01b039091168152602090f35b346103f05760603660031901126103f057600435612707816103e4565b602435612713816103e4565b6044359161271f612c01565b821561279a576126117f9d5c7c0b934da8fefa9c7760c98383778a12dfbfc0c3b3106518f43fb9508ac09361ffff83166000526002602052806127748560406000209061ffff16600052602052604060002090565b556040519384938460409194939294606082019561ffff80921683521660208201520152565b60405162461bcd60e51b81526020600482015260156024820152744c7a4170703a20696e76616c6964206d696e47617360581b6044820152606490fd5b346103f05760003660031901126103f057602060405160018152f35b346103f05760203660031901126103f0577f1584ad594a70cbe1e6515592e1272a987d922b097ead875069cebe8b40c004a4602060043561283381610c3d565b61283b612c01565b151560ff196006541660ff821617600655604051908152a1005b346103f0576101003660031901126103f057600435612873816103e4565b6001600160401b03906024358281116103f0576128949036906004016103f5565b9190604435906128a382610422565b6084356128af81610806565b60c4359586116103f0576128ca6100199636906004016103f5565b94909360e4359660a435946064359361478d565b346103f0576128ec366110e8565b91906128f6612c01565b60009161ffff81168352600160209080825260408520916001600160401b03871161089d5761292f876129298554611835565b85614427565b8590601f881160011461299657509186808798936120a1957ffa41487ad5d6728f0b19276fa1eddc16558578f5109fc39d2dc33c3230470dab999361298b575b501b906000198460031b1c19161790556040519384938461440c565b88013592503861296f565b90601f1988166129ab85600052602060002090565b9288905b828210612a11575050918893917ffa41487ad5d6728f0b19276fa1eddc16558578f5109fc39d2dc33c3230470dab98996120a19694106129f7575b505082811b019055612095565b870135600019600386901b60f8161c1916905538806129ea565b808685968294968c013581550195019301906129af565b346103f05760003660031901126103f057602060ff600654166040519015158152f35b346103f05760203660031901126103f057600435612a6881610806565b612a70612c01565b6001600160a01b039081168015612abe57600080546001600160a01b03198116831782559092167f8be0079c531659141344cd1fd0a4f28419497f9722a3daafe3b4186f6b6457e08380a380f35b60405162461bcd60e51b815260206004820152602660248201527f4f776e61626c653a206e6577206f776e657220697320746865207a65726f206160448201526564647265737360d01b6064820152608490fd5b346103f05760803660031901126103f057600435612b2f816103e4565b60243590612b3c826103e4565b612b47604435610806565b604051633d7b2f6f60e21b815261ffff91821660048201529116602482015230604482015260648035908201526000816084817f00000000000000000000000000000000000000000000000000000000000000006001600160a01b03165afa80156107fd576106df91600091612bc5575b5060405191829182610673565b612be0913d8091833e612bd881836108f3565b8101906143e7565b38612bb8565b346103f05760003660031901126103f0576020604051308152f35b6000546001600160a01b03163303612c1557565b606460405162461bcd60e51b815260206004820152602060248201527f4f776e61626c653a2063616c6c6572206973206e6f7420746865206f776e65726044820152fd5b6001600160a01b0316600090815260086020526040902090565b90612c7e9133612e44565b600190565b634e487b7160e01b600052601160045260246000fd5b90601f820180921161108c57565b605101908160511161108c57565b9190820180921161108c57565b15612cc957565b60405162461bcd60e51b815260206004820152602360248201527f45524332303a207472616e7366657220746f20746865207a65726f206164647260448201526265737360e81b6064820152608490fd5b15612d2157565b60405162461bcd60e51b815260206004820152602660248201527f45524332303a207472616e7366657220616d6f756e7420657863656564732062604482015265616c616e636560d01b6064820152608490fd5b916001600160a01b038084169290918315612df157612dd68260008051602061551c83398151915294612dec941696612daf881515612cc2565b612dd084612dbc83612c59565b54612dc982821015612d1a565b0391612c59565b55612c59565b8054820190556040519081529081906020820190565b0390a3565b60405162461bcd60e51b815260206004820152602560248201527f45524332303a207472616e736665722066726f6d20746865207a65726f206164604482015264647265737360d81b6064820152608490fd5b6001600160a01b038082169291908315612f1e578216938415612ece5780612ebd7f8c5be1e5ebec7d5bd14f71427d1e84f3dd0314c0f7b2291e5b200ac8c7c3b92594612ea6612dec9560018060a01b03166000526009602052604060002090565b9060018060a01b0316600052602052604060002090565b556040519081529081906020820190565b60405162461bcd60e51b815260206004820152602260248201527f45524332303a20617070726f766520746f20746865207a65726f206164647265604482015261737360f01b6064820152608490fd5b60405162461bcd60e51b8152602060048201526024808201527f45524332303a20617070726f76652066726f6d20746865207a65726f206164646044820152637265737360e01b6064820152608490fd5b6001600160a01b038082166000908152600960209081526040808320938616835292905220909190549260018401612fa75750505050565b808410612fc257612fb9930391612e44565b3880808061189c565b60405162461bcd60e51b815260206004820152601d60248201527f45524332303a20696e73756666696369656e7420616c6c6f77616e63650000006044820152606490fd5b908060209392818452848401376000828201840152601f01601f1916010190565b803561303381610c3d565b1515825260208101356020830152604081013561304f81610c3d565b1515604083015261ffff6060820135613067816103e4565b1660608301526080810135601e19823603018112156103f05701602081359101906001600160401b0381116103f05780360382136103f05760a0838160806106849601520191613007565b9190808252602080920192916000905b8282106130d0575050505090565b90919293806130ea6001926130e488610c47565b15159052565b6131006130f8848801610c47565b151582850152565b61311f6040613110818901610826565b6001600160a01b031690830152565b613137606061312f818901610c47565b151590830152565b6131476080613110818901610826565b61315760a0613110818901610826565b60c0808701359082015260e0808701359082015261318561010061317c818901610d5f565b60ff1690830152565b610120868101359082015261014080870135908201526101609081019501939201906130c2565b85516001600160a01b039283169a9699939892978b9693909189906131d090614e28565b50808d526131dd90614da7565b9b6040519a8b95602087016103049052169c8d998a604088015280606088015260808701526001600160401b031660a0860152805160c08601528160208201511660e086015260400151166101008401526101409384610120850152610160840161324791613028565b90601f199485858403019085015261325e926130b2565b03908101865261326e90866108f3565b3493369061327b92610c6d565b916132869486614272565b6040516000815261ffff91909116906000805160206154dc83398151915290602090a4565b908160209103126103f05751610684816103e4565b6040513d6000823e3d90fd5b95936060906001600160401b0361334a956106849a98956103078b5260018060a01b0380961660208c015260408b0152168289015280356080890152602081013560a089015282604082013561332181610806565b1660c0890152013561333281610806565b1660e086015261014080610100870152850190613028565b926101208185039101526130b2565b3561068481610806565b6001600160a01b0391821699909896979195929490939092916133868335614e28565b5098604051976303408e4760e41b8952602089600481847f0000000000000000000000000000000000000000000000000000000000000000165afa9081156107fd5760209c61342f8f6134218f9b6000805160206154dc8339815191529f61ffff9f9861340e61344a9f6134439b6134399b613458575b50613408818a615006565b50614da7565b9c6040519d6020968f978a9089016132cc565b03601f1981018952886108f3565b169b8c9301613359565b9234953691610c6d565b9286614272565b6040519384521691602090a4565b6134789060203d811161347f575b61347081836108f3565b8101906132ab565b50386133fd565b503d613466565b519061082482610806565b519061082482610c3d565b81601f820112156103f05780516134b281610c52565b926134c060405194856108f3565b818452602082840101116103f057610684916020808501910161062b565b919060a0838203126103f057604051906134f7826108bd565b8193805161350481610c3d565b835260208101516020840152604081015161351e81610c3d565b60408401526060810151613531816103e4565b60608401526080810151916001600160401b0383116103f057608092610d38920161349c565b519061082482610d54565b81601f820112156103f05780519061357982610d3d565b92604090613589825195866108f3565b8385526020918286019183610160809702860101948186116103f0578401925b8584106135ba575050505050505090565b86848303126103f0578487916135ce610914565b6135d787613491565b81526135e4838801613491565b838201526135f3868801613486565b868201526060613604818901613491565b908201526080613615818901613486565b9082015260a0613626818901613486565b9082015260c0808801519082015260e0808801519082015261010061364c818901613557565b90820152610120808801519082015261014080880151908201528152019301926135a9565b9182820361014081126103f0578351613689816103e4565b93602081015161369881610806565b93604082015193608060608401516136af81610422565b94607f1901126103f0576040516136c5816108d8565b6080840151815260a0840151602082015260c08401516136e481610806565b604082015260e08401516136f781610806565b606082015292610100810151926001600160401b03938481116103f057816137209184016134de565b936101208301519081116103f0576106849201613562565b9060a06080610684938051151584526020810151602085015260408101511515604085015261ffff6060820151166060850152015191816080820152019061064e565b91929082528251906020918284015281840151906040918285015260018060a01b03808387015116606096879182880152015116936080948582015260e0916137ce60a091848385015284840190613738565b9560c0928381890391015285808a5198898152019901976000955b8887106137fd575050505050505050505090565b90919293949596979899886101606001928d5161381c82825115159052565b80840151151582850152808601516001600160a01b03168287015280870151151582880152808801516001600160a01b031682890152808901516001600160a01b0316828a0152808a0151828b01528a8101518b8301526101008082015160ff169083015261012081810151908301526101409081015190820152019b01999897019594939291906137e9565b3d156138d4573d906138ba82610c52565b916138c860405193846108f3565b82523d6000602084013e565b606090565b60131981019190821161108c57565b60501981019190821161108c57565b9190820391821161108c57565b60405163a9059cbb60e01b602082019081526001600160a01b039384166024830152604480830195909552938152919061393d836108d8565b1660405191604083018381106001600160401b0382111761089d576139a2946000928392604052602086527f5361666545524332303a206c6f772d6c6576656c2063616c6c206661696c65646020870152519082855af161399c6138a9565b91613a29565b8051806139ad575050565b81602091810103126103f05760206108249101516139ca81610c3d565b156139d157565b60405162461bcd60e51b815260206004820152602a60248201527f5361666545524332303a204552433230206f7065726174696f6e20646964206e6044820152691bdd081cdd58d8d9595960b21b6064820152608490fd5b91929015613a8b5750815115613a3d575090565b3b15613a465790565b60405162461bcd60e51b815260206004820152601d60248201527f416464726573733a2063616c6c20746f206e6f6e2d636f6e74726163740000006044820152606490fd5b825190915015613a9e5750805190602001fd5b60405162461bcd60e51b8152908190613aba9060048301610673565b0390fd5b919261068495949160e09460018060a01b0380921685521660208401526040830152606082015260016080820152600160a08201528160c08201520190613738565b928051613ba0575b50613b316112ea6112ea604084016113be613b29825160018060a01b031690565b865190612c73565b60608201516001600160a01b03166020835193015194823b156103f057604051630832bfe360e41b815295600095879586948594613b809492916001600160a01b039091169060048701613abe565b039134905af180156107fd57613b935750565b806114a36108249261088a565b613ba990613ddc565b38613b08565b908181039261014084126103f0578251613bc8816103e4565b936020840151613bd781610806565b936040810151613be681610806565b9360608201519360606080840151613bfd81610422565b94609f1901126103f057604051613c13816108a2565b60a0840151815260c0840151613c2881610806565b602082015260e0840151613c3b81610806565b604082015292610100810151926001600160401b03938481116103f057816137209184016134de565b908160209103126103f0575161068481610806565b908160209103126103f0575190565b9692610120989461ffff91613cde97939d9c9b9d98949860018060a01b03998a8092168c521660208b015260408a0152166060880152608087015260a086015260c08501526101408060e086015284019061064e565b95166101008201520152565b8051821015613cfe5760209160051b010190565b634e487b7160e01b600052603260045260246000fd5b9360ff929897969360c0969260e087019a60018060a01b0380921688521660208701526040860152606085015216608083015260a08201520152565b60009060033d11613d5d57565b905060046000803e60005160e01c90565b600060443d1061068457604051600319913d83016004833e81516001600160401b03918282113d602484011117613dcb57818401948551938411613dd3573d85010160208487010111613dcb5750610684929101602001906108f3565b949350505050565b50949350505050565b60005b81518110156141bb57613dff6060613df78385613cea565b510151151590565b15613f6e576040613e296112ea6112ea83613e1a8688613cea565b5101516001600160a01b031690565b90613e396080613e1a8587613cea565b613e4860a0613e1a8688613cea565b9260c0613e558688613cea565b51015160e0613e648789613cea565b51015190613e81610100613e78898b613cea565b51015160ff1690565b93610120613e8f898b613cea565b510151610140613e9f8a8c613cea565b51015190853b156103f057875196879586956301da8bf160e41b875260049b8c880196613ecb97613d14565b03815a6000948591f19081613f5b575b50613f5157600191613eeb613d50565b6308c379a014613f06575b50506107fd576001905b01613ddf565b613f0e613d6e565b9081613f1b575b50613ef6565b600093509091613f336123346020613df7888a613cea565b15613f15575162461bcd60e51b8152918291613aba91908301610673565b5050600190613f00565b806114a3613f689261088a565b38613edb565b613f82613f7b8284613cea565b5151151590565b156140ed576040613f9d6112ea6112ea83613e1a8688613cea565b90613fad6080613e1a8587613cea565b91613fbd60a0613e1a8688613cea565b60e0613fc98688613cea565b51015191613fdd610100613e78888a613cea565b90610120613feb888a613cea565b51015193610140613ffc898b613cea565b510151823b156103f057865163aba0784760e01b81526001600160a01b03988916600480830191909152989095166024860152604485019190915260ff9092166064840152608483019390935260a482015290600090829081838160c4810103925af190816140da575b50613f5157600191614076613d50565b6308c379a01461408f575b50506107fd57600190613f00565b614097613d6e565b90816140a4575b50614081565b6000935090916140bc6123346020613df7888a613cea565b1561409e575162461bcd60e51b8152918291613aba91908301610673565b806114a36140e79261088a565b38614066565b60406141036112ea6112ea83613e1a8688613cea565b906141136080613e1a8587613cea565b61412260a0613e1a8688613cea565b9260c061412f8688613cea565b51015160e061413e8789613cea565b51015190614152610100613e78898b613cea565b93610120614160898b613cea565b5101516101406141708a8c613cea565b51015190853b156103f0578751968795869563d505accf60e01b875260049b8c88019661419c97613d14565b03815a6000948591f190816140da5750613f5157600191614076613d50565b5050565b156141c657565b60405162461bcd60e51b815260206004820152602660248201527f4c7a4170703a20696e76616c696420736f757263652073656e64696e6720636f6044820152651b9d1c9858dd60d21b6064820152608490fd5b9261423f61068497959361ffff61424d9416865260c0602087015260c086019061064e565b90848203604086015261064e565b6001600160a01b0391821660608401529316608082015280830360a09091015261064e565b9461429b9193929561ffff811660005260016020526142a260406000206040519485809261186f565b03846108f3565b82511561431a576142b4855182614378565b7f00000000000000000000000000000000000000000000000000000000000000006001600160a01b031693843b156103f05760009661430991604051998a988997889662c5803160e81b88526004880161421a565b03925af180156107fd57613b935750565b60405162461bcd60e51b815260206004820152603060248201527f4c7a4170703a2064657374696e6174696f6e20636861696e206973206e6f742060448201526f61207472757374656420736f7572636560801b6064820152608490fd5b61ffff1660005260036020526040600020549081156143dd575b1161439957565b606460405162461bcd60e51b815260206004820152602060248201527f4c7a4170703a207061796c6f61642073697a6520697320746f6f206c617267656044820152fd5b6127109150614392565b906020828203126103f05781516001600160401b0381116103f057610684920161349c565b60409061ffff61068495931681528160208201520191613007565b90601f811161443557505050565b600091825260208220906020601f850160051c83019410614471575b601f0160051c01915b82811061446657505050565b81815560010161445a565b9092508290614451565b9290916144ed5a604051633356ae4560e11b602082015261ffff8716602482015260806044820152906144e7826144d96144b860a483018a61064e565b6001600160401b03881660648401528281036023190160848401528861064e565b03601f1981018452836108f3565b3061547e565b9390156144fc575b5050505050565b6145059461450f565b38808080806144f5565b91936145ac7fe183f33de2837795525b4792ca4cd60535bd77c53b7e7030060bfcf5734d6b0c956145ba939561ffff81516020830120961695866000526005602052614573836115fc60208b6040600020826040519483868095519384920161062b565b556001600160401b03614598604051988998895260a060208a015260a089019061064e565b92166040870152858203606087015261064e565b90838203608085015261064e565b0390a1565b6020919283604051948593843782019081520301902090565b156145df57565b60405162461bcd60e51b815260206004820152602160248201527f4e6f6e626c6f636b696e674c7a4170703a20696e76616c6964207061796c6f616044820152601960fa1b6064820152608490fd5b9161465a9060609461ffff6001600160401b039499989799168552608060208601526080850191613007565b951660408201520152565b903590601e19813603018212156103f057018035906001600160401b0382116103f0576020019181360383136103f057565b949195989790611ac86146c06040996146b86146c6976146e3993691610c6d565b943691610c6d565b97614da7565b928451968794859463040a7bb160e41b8652309060048701614870565b03817f00000000000000000000000000000000000000000000000000000000000000006001600160a01b03165afa9182156107fd57600090819361472657509190565b905061049491925060403d811161102e5761101f81836108f3565b9396949161476f9061068499979461ffff6001600160401b039416875260c0602088015260c0870191613007565b961660408401526060830152608082015260a0818503910152613007565b91969792989594939094303303614815576147a990853061516c565b60405181815290946001600160a01b03169390849061ffff8516906000805160206154fc83398151915290602090a3833b156103f0576000988995614805936040519c8d9b8c9a8b98633fe79aed60e11b8a5260048a01614741565b0393f180156107fd57613b935750565b60405162461bcd60e51b815260206004820152601f60248201527f4f4654436f72653a2063616c6c6572206d757374206265204f4654436f7265006044820152606490fd5b91908260409103126103f0576020825192015190565b9192610684959361ffff61489f9316845260018060a01b0316602084015260a0604084015260a083019061064e565b9215156060820152608081840391015261064e565b92919060ff6148c284615423565b16806149f55750505060ff6148d682615423565b1615806149ea575b6148e790614e79565b6148f96148f3826153d3565b9161546e565b90916001600160a01b0391828416156149e0575b614921906001600160401b036112c26151a3565b91831692831561499b576000805160206154fc8339815191529161495b61ffff9261495661495187600a54612cb5565b600a55565b612c59565b84815401905584600060008051602061551c8339815191526040518061498689829190602083019252565b0390a360405193845216918060208101612dec565b60405162461bcd60e51b815260206004820152601f60248201527f45524332303a206d696e7420746f20746865207a65726f2061646472657373006044820152606490fd5b61dead935061490d565b5080516029146148de565b600103614a055761082493614b20565b60405162461bcd60e51b815260206004820152601c60248201527f4f4654436f72653a20756e6b6e6f776e207061636b65742074797065000000006044820152606490fd5b15614a5157565b60405162461bcd60e51b815260206004820152601960248201527813d19510dbdc994e88185b5bdd5b9d081d1bdbc81cdb585b1b603a1b6044820152606490fd5b98979692936001600160401b03614ac460e0989461ffff614af09995168d5260208d61010091829101528d019061064e565b951660408b015260608a01526001600160a01b0316608089015260a088015286820360c088015261064e565b930152565b6001600160401b03614b156040939695949660608452606084019061064e565b951660208201520152565b9091614b2b84614f2d565b9091614b5561232d87612315614b4f8b61ffff166000526007602052604060002090565b8c611599565b91614b71614b616151a3565b6001600160401b03809416614e15565b9288888b8315614c6d575b505050853b15614c225794614bc396946144e7948a946144d9948d99600014614c1b5750505a925b5a978b6040519a8b9863757fea4d60e11b60208b015260248a01614a92565b9015614c10575090614c0b61ffff928560207fb8890edbfc1c74692f527444645f95489c3703cc2df42e4a366f5d06fa6cd88496975191012090604051948594169684614af5565b0390a2565b92610824949261450f565b1692614ba4565b50506040516001600160a01b039094168452507f9aedf5fdba8716db3b6705ca00150643309995d4f818a249ed6dde6677e7792d9750919550859450506020840192506145ba915050565b906123156124219261230f89614c87614c9c979b3061511c565b9961ffff166000526007602052604060002090565b88888b614b7c565b60065460ff1615614cf1576022825110611acf5761ffff602261082493015191166000526002602052614ce4604060002060008052602052604060002090565b5490611a96821515614cf9565b5051611b4157565b15614d0057565b60405162461bcd60e51b815260206004820152601a60248201527f4c7a4170703a206d696e4761734c696d6974206e6f74207365740000000000006044820152606490fd5b15614d4c57565b60405162461bcd60e51b815260206004820152601b60248201527f4c7a4170703a20676173206c696d697420697320746f6f206c6f7700000000006044820152606490fd5b634e487b7160e01b600052601260045260246000fd5b614daf6151a3565b908115614e1057046001600160401b0390818111614dcb571690565b60405162461bcd60e51b815260206004820152601a60248201527f4f4654436f72653a20616d6f756e745344206f766572666c6f770000000000006044820152606490fd5b614d91565b8181029291811591840414171561108c57565b614e306151a3565b8015614e105781069081810390811161108c5791565b90604051916000602084015260218301526001600160401b0360c01b9060c01b16604182015260298152610684816108a2565b15614e8057565b60405162461bcd60e51b815260206004820152601860248201527713d19510dbdc994e881a5b9d985b1a59081c185e5b1bd85960421b6044820152606490fd5b939260719261068494604051968794600160f81b602087015260218601526001600160401b0360c01b809360c01b16604186015260018060a01b0316604985015260c01b166069830152614f1d815180926020868601910161062b565b81010360518101845201826108f3565b90614f45600160ff614f3e85615423565b1614614e79565b614f4e826153d3565b90614f588361546e565b906049845110614fc9576049840151936051815110614f8d57614f8a605182015191614f8481516138e8565b9061534f565b91565b60405162461bcd60e51b8152602060048201526014602482015273746f55696e7436345f6f75744f66426f756e647360601b6044820152606490fd5b60405162461bcd60e51b8152602060048201526015602482015274746f427974657333325f6f75744f66426f756e647360581b6044820152606490fd5b6001600160a01b0381163381036150b5575b8015615066578161503b8461502e600095612c59565b54612dc9828210156150c5565b5561504983600a5403600a55565b60405183815260008051602061551c83398151915290602090a390565b60405162461bcd60e51b815260206004820152602160248201527f45524332303a206275726e2066726f6d20746865207a65726f206164647265736044820152607360f81b6064820152608490fd5b6150c0833384612f6f565b615018565b156150cc57565b60405162461bcd60e51b815260206004820152602260248201527f45524332303a206275726e20616d6f756e7420657863656564732062616c616e604482015261636560f01b6064820152608490fd5b6001600160a01b0381169190821561499b57600a549082820180921161108c5760009261515d60209260008051602061551c83398151915294600a55612c59565b818154019055604051908152a3565b6106849183916001600160a01b038116308114159081615198575b5015612d7557610c38833383612f6f565b905033141538615187565b6040516303408e4760e41b81526020816004817f00000000000000000000000000000000000000000000000000000000000000006001600160a01b03165afa80156107fd5761ffff91600091615234575b5016600052600d60205260ff6040600020541661521057600190565b7f000000000000000000000000000000000000000000000000000000000000000090565b61524c915060203d811161347f5761347081836108f3565b386151f4565b1561525957565b60405162461bcd60e51b815260206004820152600e60248201526d736c6963655f6f766572666c6f7760901b6044820152606490fd5b1561529657565b60405162461bcd60e51b8152602060048201526011602482015270736c6963655f6f75744f66426f756e647360781b6044820152606490fd5b6152e3826152dc81612c99565b1015615252565b6152f0828251101561528f565b81615308575050604051600081526020810160405290565b60405191601f811691821560051b808486010193838501920101905b80841061533c5750508252601f01601f191660405290565b9092835181526020809101930190615324565b61535c826152dc81612c99565b615371815161536a84612ca7565b111561528f565b81615389575050604051600081526020810160405290565b60405191601f8116916051831560051b80858701019484860193010101905b8084106153c05750508252601f01601f191660405290565b90928351815260208091019301906153a8565b60218151106153e657602d015160601c90565b60405162461bcd60e51b8152602060048201526015602482015274746f416464726573735f6f75744f66426f756e647360581b6044820152606490fd5b6001815110615433576001015190565b60405162461bcd60e51b8152602060048201526013602482015272746f55696e74385f6f75744f66426f756e647360681b6044820152606490fd5b6029815110614f8d576029015190565b6040519392909160009160c08601916001600160401b0383118784101761089d5783926040526096875282602088019560a036883760208451940192f1903d90609682116154d2575b6000908286523e9190565b609691506154c756fed81fc9b8523134ed613870ed029d6170cbb73aa6a6bc311b9a642689fb9df59abf551ec93859b170f9b2141bd9298bf3f64322c6f7beb2543a0cb669834118bfddf252ad1be2c89b69c2b068fc378daa952ba7f163c4a11628f55a4df523b3efa2646970667358221220c72503e55464e0282341b6310f8bfb58c9d48b2e46509969373d0016c730792064736f6c63430008120033",
  "linkReferences": {},
  "deployedLinkReferences": {}
}