{
  "_format": "hh-sol-artifact-1",
  "contractName": "BigBang",
  "sourceName": "contracts/markets/bigBang/BigBang.sol",
  "abi": [
    {
      "inputs": [],
      "name": "AllowanceNotValid",
      "type": "error"
    },
    {
      "inputs": [],
      "name": "BadPair",
      "type": "error"
    },
    {
      "inputs": [],
      "name": "DebtRatesNotValid",
      "type": "error"
    },
    {
      "inputs": [],
      "name": "ExchangeRateNotValid",
      "type": "error"
    },
    {
      "inputs": [],
      "name": "InvalidShortString",
      "type": "error"
    },
    {
      "inputs": [],
      "name": "MaxDebtRateNotValid",
      "type": "error"
    },
    {
      "inputs": [],
      "name": "ModuleNotSet",
      "type": "error"
    },
    {
      "inputs": [],
      "name": "NotEnough",
      "type": "error"
    },
    {
      "inputs": [],
      "name": "NotValid",
      "type": "error"
    },
    {
      "inputs": [
        {
          "internalType": "string",
          "name": "str",
          "type": "string"
        }
      ],
      "name": "StringTooLong",
      "type": "error"
    },
    {
      "inputs": [],
      "name": "TransferFailed",
      "type": "error"
    },
    {
      "anonymous": false,
      "inputs": [
        {
          "indexed": true,
          "internalType": "address",
          "name": "owner",
          "type": "address"
        },
        {
          "indexed": true,
          "internalType": "address",
          "name": "spender",
          "type": "address"
        },
        {
          "indexed": false,
          "internalType": "uint256",
          "name": "value",
          "type": "uint256"
        }
      ],
      "name": "Approval",
      "type": "event"
    },
    {
      "anonymous": false,
      "inputs": [
        {
          "indexed": true,
          "internalType": "address",
          "name": "owner",
          "type": "address"
        },
        {
          "indexed": true,
          "internalType": "address",
          "name": "spender",
          "type": "address"
        },
        {
          "indexed": true,
          "internalType": "uint256",
          "name": "value",
          "type": "uint256"
        }
      ],
      "name": "ApprovalBorrow",
      "type": "event"
    },
    {
      "anonymous": false,
      "inputs": [],
      "name": "AssetOracleDataUpdated",
      "type": "event"
    },
    {
      "anonymous": false,
      "inputs": [
        {
          "indexed": true,
          "internalType": "address",
          "name": "oldVal",
          "type": "address"
        },
        {
          "indexed": true,
          "internalType": "address",
          "name": "newVal",
          "type": "address"
        }
      ],
      "name": "AssetOracleUpdated",
      "type": "event"
    },
    {
      "anonymous": false,
      "inputs": [
        {
          "indexed": false,
          "internalType": "address",
          "name": "old",
          "type": "address"
        },
        {
          "indexed": false,
          "internalType": "address",
          "name": "_new",
          "type": "address"
        }
      ],
      "name": "ConservatorUpdated",
      "type": "event"
    },
    {
      "anonymous": false,
      "inputs": [
        {
          "indexed": true,
          "internalType": "uint256",
          "name": "oldVal",
          "type": "uint256"
        },
        {
          "indexed": true,
          "internalType": "uint256",
          "name": "newVal",
          "type": "uint256"
        }
      ],
      "name": "DebtRateAgainstEthUpdated",
      "type": "event"
    },
    {
      "anonymous": false,
      "inputs": [],
      "name": "EIP712DomainChanged",
      "type": "event"
    },
    {
      "anonymous": false,
      "inputs": [
        {
          "indexed": false,
          "internalType": "uint256",
          "name": "_oldVal",
          "type": "uint256"
        },
        {
          "indexed": false,
          "internalType": "uint256",
          "name": "_newVal",
          "type": "uint256"
        }
      ],
      "name": "ExchangeRateDurationUpdated",
      "type": "event"
    },
    {
      "anonymous": false,
      "inputs": [
        {
          "indexed": false,
          "internalType": "address",
          "name": "oldVal",
          "type": "address"
        },
        {
          "indexed": false,
          "internalType": "address",
          "name": "newVal",
          "type": "address"
        }
      ],
      "name": "LeverageExecutorSet",
      "type": "event"
    },
    {
      "anonymous": false,
      "inputs": [
        {
          "indexed": true,
          "internalType": "address",
          "name": "liquidator",
          "type": "address"
        },
        {
          "indexed": false,
          "internalType": "address[]",
          "name": "users",
          "type": "address[]"
        },
        {
          "indexed": false,
          "internalType": "uint256",
          "name": "liquidatorReward",
          "type": "uint256"
        },
        {
          "indexed": false,
          "internalType": "uint256",
          "name": "protocolReward",
          "type": "uint256"
        },
        {
          "indexed": false,
          "internalType": "uint256",
          "name": "repayedAmount",
          "type": "uint256"
        },
        {
          "indexed": false,
          "internalType": "uint256",
          "name": "collateralShareRemoved",
          "type": "uint256"
        }
      ],
      "name": "Liquidated",
      "type": "event"
    },
    {
      "anonymous": false,
      "inputs": [
        {
          "indexed": false,
          "internalType": "uint256",
          "name": "oldVal",
          "type": "uint256"
        },
        {
          "indexed": false,
          "internalType": "uint256",
          "name": "newVal",
          "type": "uint256"
        }
      ],
      "name": "LiquidationMaxSlippageUpdated",
      "type": "event"
    },
    {
      "anonymous": false,
      "inputs": [
        {
          "indexed": false,
          "internalType": "uint256",
          "name": "oldVal",
          "type": "uint256"
        },
        {
          "indexed": false,
          "internalType": "uint256",
          "name": "newVal",
          "type": "uint256"
        }
      ],
      "name": "LiquidationMultiplierUpdated",
      "type": "event"
    },
    {
      "anonymous": false,
      "inputs": [
        {
          "indexed": true,
          "internalType": "uint256",
          "name": "accruedAmount",
          "type": "uint256"
        },
        {
          "indexed": true,
          "internalType": "uint64",
          "name": "rate",
          "type": "uint64"
        }
      ],
      "name": "LogAccrue",
      "type": "event"
    },
    {
      "anonymous": false,
      "inputs": [
        {
          "indexed": true,
          "internalType": "address",
          "name": "from",
          "type": "address"
        },
        {
          "indexed": true,
          "internalType": "address",
          "name": "to",
          "type": "address"
        },
        {
          "indexed": true,
          "internalType": "uint256",
          "name": "share",
          "type": "uint256"
        }
      ],
      "name": "LogAddCollateral",
      "type": "event"
    },
    {
      "anonymous": false,
      "inputs": [
        {
          "indexed": true,
          "internalType": "address",
          "name": "from",
          "type": "address"
        },
        {
          "indexed": true,
          "internalType": "address",
          "name": "to",
          "type": "address"
        },
        {
          "indexed": true,
          "internalType": "uint256",
          "name": "amount",
          "type": "uint256"
        },
        {
          "indexed": false,
          "internalType": "uint256",
          "name": "feeAmount",
          "type": "uint256"
        },
        {
          "indexed": false,
          "internalType": "uint256",
          "name": "part",
          "type": "uint256"
        }
      ],
      "name": "LogBorrow",
      "type": "event"
    },
    {
      "anonymous": false,
      "inputs": [
        {
          "indexed": false,
          "internalType": "uint256",
          "name": "_oldVal",
          "type": "uint256"
        },
        {
          "indexed": false,
          "internalType": "uint256",
          "name": "_newVal",
          "type": "uint256"
        }
      ],
      "name": "LogBorrowCapUpdated",
      "type": "event"
    },
    {
      "anonymous": false,
      "inputs": [
        {
          "indexed": false,
          "internalType": "uint256",
          "name": "rate",
          "type": "uint256"
        }
      ],
      "name": "LogExchangeRate",
      "type": "event"
    },
    {
      "anonymous": false,
      "inputs": [
        {
          "indexed": true,
          "internalType": "address",
          "name": "from",
          "type": "address"
        },
        {
          "indexed": true,
          "internalType": "address",
          "name": "to",
          "type": "address"
        },
        {
          "indexed": true,
          "internalType": "uint256",
          "name": "share",
          "type": "uint256"
        }
      ],
      "name": "LogRemoveCollateral",
      "type": "event"
    },
    {
      "anonymous": false,
      "inputs": [
        {
          "indexed": true,
          "internalType": "address",
          "name": "from",
          "type": "address"
        },
        {
          "indexed": true,
          "internalType": "address",
          "name": "to",
          "type": "address"
        },
        {
          "indexed": true,
          "internalType": "uint256",
          "name": "amount",
          "type": "uint256"
        },
        {
          "indexed": false,
          "internalType": "uint256",
          "name": "part",
          "type": "uint256"
        }
      ],
      "name": "LogRepay",
      "type": "event"
    },
    {
      "anonymous": false,
      "inputs": [
        {
          "indexed": true,
          "internalType": "uint256",
          "name": "oldVal",
          "type": "uint256"
        },
        {
          "indexed": true,
          "internalType": "uint256",
          "name": "newVal",
          "type": "uint256"
        }
      ],
      "name": "MaxDebtRateUpdated",
      "type": "event"
    },
    {
      "anonymous": false,
      "inputs": [
        {
          "indexed": true,
          "internalType": "uint256",
          "name": "oldVal",
          "type": "uint256"
        },
        {
          "indexed": true,
          "internalType": "uint256",
          "name": "newVal",
          "type": "uint256"
        }
      ],
      "name": "MinDebtRateUpdated",
      "type": "event"
    },
    {
      "anonymous": false,
      "inputs": [],
      "name": "OracleDataUpdated",
      "type": "event"
    },
    {
      "anonymous": false,
      "inputs": [
        {
          "indexed": false,
          "internalType": "address",
          "name": "newAddr",
          "type": "address"
        }
      ],
      "name": "OracleUpdated",
      "type": "event"
    },
    {
      "anonymous": false,
      "inputs": [
        {
          "indexed": true,
          "internalType": "address",
          "name": "previousOwner",
          "type": "address"
        },
        {
          "indexed": true,
          "internalType": "address",
          "name": "newOwner",
          "type": "address"
        }
      ],
      "name": "OwnershipTransferred",
      "type": "event"
    },
    {
      "anonymous": false,
      "inputs": [
        {
          "indexed": true,
          "internalType": "enum Market.PauseType",
          "name": "_type",
          "type": "uint8"
        },
        {
          "indexed": false,
          "internalType": "bool",
          "name": "oldState",
          "type": "bool"
        },
        {
          "indexed": false,
          "internalType": "bool",
          "name": "newState",
          "type": "bool"
        }
      ],
      "name": "PausedUpdated",
      "type": "event"
    },
    {
      "anonymous": false,
      "inputs": [
        {
          "indexed": true,
          "internalType": "address",
          "name": "from",
          "type": "address"
        },
        {
          "indexed": true,
          "internalType": "address",
          "name": "to",
          "type": "address"
        },
        {
          "indexed": false,
          "internalType": "uint256",
          "name": "value",
          "type": "uint256"
        }
      ],
      "name": "Transfer",
      "type": "event"
    },
    {
      "anonymous": false,
      "inputs": [
        {
          "indexed": true,
          "internalType": "uint256",
          "name": "oldMin",
          "type": "uint256"
        },
        {
          "indexed": true,
          "internalType": "uint256",
          "name": "newMin",
          "type": "uint256"
        },
        {
          "indexed": true,
          "internalType": "uint256",
          "name": "oldMax",
          "type": "uint256"
        },
        {
          "indexed": false,
          "internalType": "uint256",
          "name": "newMax",
          "type": "uint256"
        }
      ],
      "name": "UpdateMinMaxMintFee",
      "type": "event"
    },
    {
      "anonymous": false,
      "inputs": [
        {
          "indexed": true,
          "internalType": "uint256",
          "name": "oldMin",
          "type": "uint256"
        },
        {
          "indexed": true,
          "internalType": "uint256",
          "name": "newMin",
          "type": "uint256"
        },
        {
          "indexed": true,
          "internalType": "uint256",
          "name": "oldMax",
          "type": "uint256"
        },
        {
          "indexed": false,
          "internalType": "uint256",
          "name": "newMax",
          "type": "uint256"
        }
      ],
      "name": "UpdateMinMaxMintRange",
      "type": "event"
    },
    {
      "anonymous": false,
      "inputs": [
        {
          "indexed": false,
          "internalType": "uint256",
          "name": "valType",
          "type": "uint256"
        },
        {
          "indexed": false,
          "internalType": "uint256",
          "name": "_newVal",
          "type": "uint256"
        }
      ],
      "name": "ValueUpdated",
      "type": "event"
    },
    {
      "inputs": [],
      "name": "DOMAIN_SEPARATOR",
      "outputs": [
        {
          "internalType": "bytes32",
          "name": "",
          "type": "bytes32"
        }
      ],
      "stateMutability": "view",
      "type": "function"
    },
    {
      "inputs": [],
      "name": "_asset",
      "outputs": [
        {
          "internalType": "address",
          "name": "",
          "type": "address"
        }
      ],
      "stateMutability": "view",
      "type": "function"
    },
    {
      "inputs": [],
      "name": "_assetId",
      "outputs": [
        {
          "internalType": "uint256",
          "name": "",
          "type": "uint256"
        }
      ],
      "stateMutability": "view",
      "type": "function"
    },
    {
      "inputs": [],
      "name": "_collateral",
      "outputs": [
        {
          "internalType": "address",
          "name": "",
          "type": "address"
        }
      ],
      "stateMutability": "view",
      "type": "function"
    },
    {
      "inputs": [],
      "name": "_collateralId",
      "outputs": [
        {
          "internalType": "uint256",
          "name": "",
          "type": "uint256"
        }
      ],
      "stateMutability": "view",
      "type": "function"
    },
    {
      "inputs": [],
      "name": "_collateralizationRate",
      "outputs": [
        {
          "internalType": "uint256",
          "name": "",
          "type": "uint256"
        }
      ],
      "stateMutability": "view",
      "type": "function"
    },
    {
      "inputs": [],
      "name": "_conservator",
      "outputs": [
        {
          "internalType": "address",
          "name": "",
          "type": "address"
        }
      ],
      "stateMutability": "view",
      "type": "function"
    },
    {
      "inputs": [],
      "name": "_exchangeRate",
      "outputs": [
        {
          "internalType": "uint256",
          "name": "",
          "type": "uint256"
        }
      ],
      "stateMutability": "view",
      "type": "function"
    },
    {
      "inputs": [],
      "name": "_leverageExecutor",
      "outputs": [
        {
          "internalType": "address",
          "name": "",
          "type": "address"
        }
      ],
      "stateMutability": "view",
      "type": "function"
    },
    {
      "inputs": [],
      "name": "_liquidationBonusAmount",
      "outputs": [
        {
          "internalType": "uint256",
          "name": "",
          "type": "uint256"
        }
      ],
      "stateMutability": "view",
      "type": "function"
    },
    {
      "inputs": [],
      "name": "_liquidationCollateralizationRate",
      "outputs": [
        {
          "internalType": "uint256",
          "name": "",
          "type": "uint256"
        }
      ],
      "stateMutability": "view",
      "type": "function"
    },
    {
      "inputs": [],
      "name": "_liquidationMultiplier",
      "outputs": [
        {
          "internalType": "uint256",
          "name": "",
          "type": "uint256"
        }
      ],
      "stateMutability": "view",
      "type": "function"
    },
    {
      "inputs": [],
      "name": "_maxLiquidationSlippage",
      "outputs": [
        {
          "internalType": "uint256",
          "name": "",
          "type": "uint256"
        }
      ],
      "stateMutability": "view",
      "type": "function"
    },
    {
      "inputs": [],
      "name": "_maxLiquidatorReward",
      "outputs": [
        {
          "internalType": "uint256",
          "name": "",
          "type": "uint256"
        }
      ],
      "stateMutability": "view",
      "type": "function"
    },
    {
      "inputs": [],
      "name": "_minLiquidatorReward",
      "outputs": [
        {
          "internalType": "uint256",
          "name": "",
          "type": "uint256"
        }
      ],
      "stateMutability": "view",
      "type": "function"
    },
    {
      "inputs": [],
      "name": "_oracle",
      "outputs": [
        {
          "internalType": "address",
          "name": "",
          "type": "address"
        }
      ],
      "stateMutability": "view",
      "type": "function"
    },
    {
      "inputs": [],
      "name": "_oracleData",
      "outputs": [
        {
          "internalType": "bytes",
          "name": "",
          "type": "bytes"
        }
      ],
      "stateMutability": "view",
      "type": "function"
    },
    {
      "inputs": [
        {
          "internalType": "enum Market.PauseType",
          "name": "_pauseProp",
          "type": "uint8"
        }
      ],
      "name": "_pauseOptions",
      "outputs": [
        {
          "internalType": "bool",
          "name": "",
          "type": "bool"
        }
      ],
      "stateMutability": "view",
      "type": "function"
    },
    {
      "inputs": [],
      "name": "_pearlmit",
      "outputs": [
        {
          "internalType": "address",
          "name": "",
          "type": "address"
        }
      ],
      "stateMutability": "view",
      "type": "function"
    },
    {
      "inputs": [],
      "name": "_penrose",
      "outputs": [
        {
          "internalType": "address",
          "name": "",
          "type": "address"
        }
      ],
      "stateMutability": "view",
      "type": "function"
    },
    {
      "inputs": [],
      "name": "_protocolFee",
      "outputs": [
        {
          "internalType": "uint256",
          "name": "",
          "type": "uint256"
        }
      ],
      "stateMutability": "view",
      "type": "function"
    },
    {
      "inputs": [],
      "name": "_rateTimestamp",
      "outputs": [
        {
          "internalType": "uint256",
          "name": "",
          "type": "uint256"
        }
      ],
      "stateMutability": "view",
      "type": "function"
    },
    {
      "inputs": [],
      "name": "_rateValidDuration",
      "outputs": [
        {
          "internalType": "uint256",
          "name": "",
          "type": "uint256"
        }
      ],
      "stateMutability": "view",
      "type": "function"
    },
    {
      "inputs": [],
      "name": "_totalBorrow",
      "outputs": [
        {
          "components": [
            {
              "internalType": "uint128",
              "name": "elastic",
              "type": "uint128"
            },
            {
              "internalType": "uint128",
              "name": "base",
              "type": "uint128"
            }
          ],
          "internalType": "struct Rebase",
          "name": "",
          "type": "tuple"
        }
      ],
      "stateMutability": "view",
      "type": "function"
    },
    {
      "inputs": [],
      "name": "_totalBorrowCap",
      "outputs": [
        {
          "internalType": "uint256",
          "name": "",
          "type": "uint256"
        }
      ],
      "stateMutability": "view",
      "type": "function"
    },
    {
      "inputs": [],
      "name": "_totalCollateralShare",
      "outputs": [
        {
          "internalType": "uint256",
          "name": "",
          "type": "uint256"
        }
      ],
      "stateMutability": "view",
      "type": "function"
    },
    {
      "inputs": [
        {
          "internalType": "address",
          "name": "_user",
          "type": "address"
        }
      ],
      "name": "_userBorrowPart",
      "outputs": [
        {
          "internalType": "uint256",
          "name": "",
          "type": "uint256"
        }
      ],
      "stateMutability": "view",
      "type": "function"
    },
    {
      "inputs": [
        {
          "internalType": "address",
          "name": "_user",
          "type": "address"
        }
      ],
      "name": "_userCollateralShare",
      "outputs": [
        {
          "internalType": "uint256",
          "name": "",
          "type": "uint256"
        }
      ],
      "stateMutability": "view",
      "type": "function"
    },
    {
      "inputs": [],
      "name": "_yieldBox",
      "outputs": [
        {
          "internalType": "address",
          "name": "",
          "type": "address"
        }
      ],
      "stateMutability": "view",
      "type": "function"
    },
    {
      "inputs": [],
      "name": "accrue",
      "outputs": [],
      "stateMutability": "nonpayable",
      "type": "function"
    },
    {
      "inputs": [],
      "name": "accrueInfo",
      "outputs": [
        {
          "internalType": "uint64",
          "name": "debtRate",
          "type": "uint64"
        },
        {
          "internalType": "uint64",
          "name": "lastAccrued",
          "type": "uint64"
        }
      ],
      "stateMutability": "view",
      "type": "function"
    },
    {
      "inputs": [
        {
          "internalType": "address",
          "name": "",
          "type": "address"
        },
        {
          "internalType": "address",
          "name": "",
          "type": "address"
        }
      ],
      "name": "allowance",
      "outputs": [
        {
          "internalType": "uint256",
          "name": "",
          "type": "uint256"
        }
      ],
      "stateMutability": "view",
      "type": "function"
    },
    {
      "inputs": [
        {
          "internalType": "address",
          "name": "",
          "type": "address"
        },
        {
          "internalType": "address",
          "name": "",
          "type": "address"
        }
      ],
      "name": "allowanceBorrow",
      "outputs": [
        {
          "internalType": "uint256",
          "name": "",
          "type": "uint256"
        }
      ],
      "stateMutability": "view",
      "type": "function"
    },
    {
      "inputs": [
        {
          "internalType": "address",
          "name": "spender",
          "type": "address"
        },
        {
          "internalType": "uint256",
          "name": "amount",
          "type": "uint256"
        }
      ],
      "name": "approve",
      "outputs": [
        {
          "internalType": "bool",
          "name": "",
          "type": "bool"
        }
      ],
      "stateMutability": "nonpayable",
      "type": "function"
    },
    {
      "inputs": [
        {
          "internalType": "address",
          "name": "spender",
          "type": "address"
        },
        {
          "internalType": "uint256",
          "name": "amount",
          "type": "uint256"
        }
      ],
      "name": "approveBorrow",
      "outputs": [
        {
          "internalType": "bool",
          "name": "",
          "type": "bool"
        }
      ],
      "stateMutability": "nonpayable",
      "type": "function"
    },
    {
      "inputs": [],
      "name": "assetOracle",
      "outputs": [
        {
          "internalType": "contract ITapiocaOracle",
          "name": "",
          "type": "address"
        }
      ],
      "stateMutability": "view",
      "type": "function"
    },
    {
      "inputs": [],
      "name": "assetOracleData",
      "outputs": [
        {
          "internalType": "bytes",
          "name": "",
          "type": "bytes"
        }
      ],
      "stateMutability": "view",
      "type": "function"
    },
    {
      "inputs": [
        {
          "internalType": "address",
          "name": "",
          "type": "address"
        }
      ],
      "name": "balanceOf",
      "outputs": [
        {
          "internalType": "uint256",
          "name": "",
          "type": "uint256"
        }
      ],
      "stateMutability": "view",
      "type": "function"
    },
    {
      "inputs": [],
      "name": "borrowModule",
      "outputs": [
        {
          "internalType": "contract BBBorrow",
          "name": "",
          "type": "address"
        }
      ],
      "stateMutability": "view",
      "type": "function"
    },
    {
      "inputs": [],
      "name": "collateralModule",
      "outputs": [
        {
          "internalType": "contract BBCollateral",
          "name": "",
          "type": "address"
        }
      ],
      "stateMutability": "view",
      "type": "function"
    },
    {
      "inputs": [
        {
          "internalType": "uint256",
          "name": "borrowPart",
          "type": "uint256"
        },
        {
          "internalType": "uint256",
          "name": "collateralPartInAsset",
          "type": "uint256"
        },
        {
          "internalType": "uint256",
          "name": "ratesPrecision",
          "type": "uint256"
        }
      ],
      "name": "computeClosingFactor",
      "outputs": [
        {
          "internalType": "uint256",
          "name": "",
          "type": "uint256"
        }
      ],
      "stateMutability": "view",
      "type": "function"
    },
    {
      "inputs": [
        {
          "internalType": "address",
          "name": "user",
          "type": "address"
        },
        {
          "internalType": "uint256",
          "name": "_exchangeRate",
          "type": "uint256"
        }
      ],
      "name": "computeLiquidatorReward",
      "outputs": [
        {
          "internalType": "uint256",
          "name": "",
          "type": "uint256"
        }
      ],
      "stateMutability": "view",
      "type": "function"
    },
    {
      "inputs": [],
      "name": "computeOpenInterestMintable",
      "outputs": [
        {
          "internalType": "uint256",
          "name": "",
          "type": "uint256"
        }
      ],
      "stateMutability": "nonpayable",
      "type": "function"
    },
    {
      "inputs": [
        {
          "internalType": "address",
          "name": "user",
          "type": "address"
        },
        {
          "internalType": "uint256",
          "name": "_exchangeRate",
          "type": "uint256"
        }
      ],
      "name": "computeTVLInfo",
      "outputs": [
        {
          "internalType": "uint256",
          "name": "amountToSolvency",
          "type": "uint256"
        },
        {
          "internalType": "uint256",
          "name": "minTVL",
          "type": "uint256"
        },
        {
          "internalType": "uint256",
          "name": "maxTVL",
          "type": "uint256"
        }
      ],
      "stateMutability": "view",
      "type": "function"
    },
    {
      "inputs": [],
      "name": "debtMinted",
      "outputs": [
        {
          "internalType": "uint256",
          "name": "",
          "type": "uint256"
        }
      ],
      "stateMutability": "view",
      "type": "function"
    },
    {
      "inputs": [],
      "name": "debtRateAgainstEthMarket",
      "outputs": [
        {
          "internalType": "uint256",
          "name": "",
          "type": "uint256"
        }
      ],
      "stateMutability": "view",
      "type": "function"
    },
    {
      "inputs": [],
      "name": "eip712Domain",
      "outputs": [
        {
          "internalType": "bytes1",
          "name": "fields",
          "type": "bytes1"
        },
        {
          "internalType": "string",
          "name": "name",
          "type": "string"
        },
        {
          "internalType": "string",
          "name": "version",
          "type": "string"
        },
        {
          "internalType": "uint256",
          "name": "chainId",
          "type": "uint256"
        },
        {
          "internalType": "address",
          "name": "verifyingContract",
          "type": "address"
        },
        {
          "internalType": "bytes32",
          "name": "salt",
          "type": "bytes32"
        },
        {
          "internalType": "uint256[]",
          "name": "extensions",
          "type": "uint256[]"
        }
      ],
      "stateMutability": "view",
      "type": "function"
    },
    {
      "inputs": [
        {
          "internalType": "enum Module[]",
          "name": "modules",
          "type": "uint8[]"
        },
        {
          "internalType": "bytes[]",
          "name": "calls",
          "type": "bytes[]"
        },
        {
          "internalType": "bool",
          "name": "revertOnFail",
          "type": "bool"
        }
      ],
      "name": "execute",
      "outputs": [
        {
          "internalType": "bool[]",
          "name": "successes",
          "type": "bool[]"
        },
        {
          "internalType": "bytes[]",
          "name": "results",
          "type": "bytes[]"
        }
      ],
      "stateMutability": "nonpayable",
      "type": "function"
    },
    {
      "inputs": [],
      "name": "getDebtRate",
      "outputs": [
        {
          "internalType": "uint256",
          "name": "",
          "type": "uint256"
        }
      ],
      "stateMutability": "view",
      "type": "function"
    },
    {
      "inputs": [],
      "name": "getTotalDebt",
      "outputs": [
        {
          "internalType": "uint256",
          "name": "",
          "type": "uint256"
        }
      ],
      "stateMutability": "view",
      "type": "function"
    },
    {
      "inputs": [
        {
          "internalType": "bytes",
          "name": "initData",
          "type": "bytes"
        }
      ],
      "name": "init",
      "outputs": [],
      "stateMutability": "nonpayable",
      "type": "function"
    },
    {
      "inputs": [],
      "name": "isMainMarket",
      "outputs": [
        {
          "internalType": "bool",
          "name": "",
          "type": "bool"
        }
      ],
      "stateMutability": "view",
      "type": "function"
    },
    {
      "inputs": [],
      "name": "leverageModule",
      "outputs": [
        {
          "internalType": "contract BBLeverage",
          "name": "",
          "type": "address"
        }
      ],
      "stateMutability": "view",
      "type": "function"
    },
    {
      "inputs": [],
      "name": "liquidationModule",
      "outputs": [
        {
          "internalType": "contract BBLiquidation",
          "name": "",
          "type": "address"
        }
      ],
      "stateMutability": "view",
      "type": "function"
    },
    {
      "inputs": [],
      "name": "maxDebtRate",
      "outputs": [
        {
          "internalType": "uint256",
          "name": "",
          "type": "uint256"
        }
      ],
      "stateMutability": "view",
      "type": "function"
    },
    {
      "inputs": [],
      "name": "maxMintFee",
      "outputs": [
        {
          "internalType": "uint256",
          "name": "",
          "type": "uint256"
        }
      ],
      "stateMutability": "view",
      "type": "function"
    },
    {
      "inputs": [],
      "name": "maxMintFeeStart",
      "outputs": [
        {
          "internalType": "uint256",
          "name": "",
          "type": "uint256"
        }
      ],
      "stateMutability": "view",
      "type": "function"
    },
    {
      "inputs": [],
      "name": "minDebtRate",
      "outputs": [
        {
          "internalType": "uint256",
          "name": "",
          "type": "uint256"
        }
      ],
      "stateMutability": "view",
      "type": "function"
    },
    {
      "inputs": [],
      "name": "minMintFee",
      "outputs": [
        {
          "internalType": "uint256",
          "name": "",
          "type": "uint256"
        }
      ],
      "stateMutability": "view",
      "type": "function"
    },
    {
      "inputs": [],
      "name": "minMintFeeStart",
      "outputs": [
        {
          "internalType": "uint256",
          "name": "",
          "type": "uint256"
        }
      ],
      "stateMutability": "view",
      "type": "function"
    },
    {
      "inputs": [
        {
          "internalType": "address",
          "name": "owner",
          "type": "address"
        }
      ],
      "name": "nonces",
      "outputs": [
        {
          "internalType": "uint256",
          "name": "",
          "type": "uint256"
        }
      ],
      "stateMutability": "view",
      "type": "function"
    },
    {
      "inputs": [
        {
          "internalType": "address",
          "name": "",
          "type": "address"
        },
        {
          "internalType": "address",
          "name": "",
          "type": "address"
        },
        {
          "internalType": "uint256[]",
          "name": "",
          "type": "uint256[]"
        },
        {
          "internalType": "uint256[]",
          "name": "",
          "type": "uint256[]"
        },
        {
          "internalType": "bytes",
          "name": "",
          "type": "bytes"
        }
      ],
      "name": "onERC1155BatchReceived",
      "outputs": [
        {
          "internalType": "bytes4",
          "name": "",
          "type": "bytes4"
        }
      ],
      "stateMutability": "pure",
      "type": "function"
    },
    {
      "inputs": [
        {
          "internalType": "address",
          "name": "",
          "type": "address"
        },
        {
          "internalType": "address",
          "name": "",
          "type": "address"
        },
        {
          "internalType": "uint256",
          "name": "",
          "type": "uint256"
        },
        {
          "internalType": "uint256",
          "name": "",
          "type": "uint256"
        },
        {
          "internalType": "bytes",
          "name": "",
          "type": "bytes"
        }
      ],
      "name": "onERC1155Received",
      "outputs": [
        {
          "internalType": "bytes4",
          "name": "",
          "type": "bytes4"
        }
      ],
      "stateMutability": "pure",
      "type": "function"
    },
    {
      "inputs": [],
      "name": "owner",
      "outputs": [
        {
          "internalType": "address",
          "name": "",
          "type": "address"
        }
      ],
      "stateMutability": "view",
      "type": "function"
    },
    {
      "inputs": [
        {
          "internalType": "address",
          "name": "owner",
          "type": "address"
        },
        {
          "internalType": "address",
          "name": "spender",
          "type": "address"
        },
        {
          "internalType": "uint256",
          "name": "value",
          "type": "uint256"
        },
        {
          "internalType": "uint256",
          "name": "deadline",
          "type": "uint256"
        },
        {
          "internalType": "uint8",
          "name": "v",
          "type": "uint8"
        },
        {
          "internalType": "bytes32",
          "name": "r",
          "type": "bytes32"
        },
        {
          "internalType": "bytes32",
          "name": "s",
          "type": "bytes32"
        }
      ],
      "name": "permit",
      "outputs": [],
      "stateMutability": "nonpayable",
      "type": "function"
    },
    {
      "inputs": [
        {
          "internalType": "address",
          "name": "owner",
          "type": "address"
        },
        {
          "internalType": "address",
          "name": "spender",
          "type": "address"
        },
        {
          "internalType": "uint256",
          "name": "value",
          "type": "uint256"
        },
        {
          "internalType": "uint256",
          "name": "deadline",
          "type": "uint256"
        },
        {
          "internalType": "uint8",
          "name": "v",
          "type": "uint8"
        },
        {
          "internalType": "bytes32",
          "name": "r",
          "type": "bytes32"
        },
        {
          "internalType": "bytes32",
          "name": "s",
          "type": "bytes32"
        }
      ],
      "name": "permitBorrow",
      "outputs": [],
      "stateMutability": "nonpayable",
      "type": "function"
    },
    {
      "inputs": [],
      "name": "refreshPenroseFees",
      "outputs": [
        {
          "internalType": "uint256",
          "name": "feeShares",
          "type": "uint256"
        }
      ],
      "stateMutability": "nonpayable",
      "type": "function"
    },
    {
      "inputs": [],
      "name": "renounceOwnership",
      "outputs": [],
      "stateMutability": "nonpayable",
      "type": "function"
    },
    {
      "inputs": [
        {
          "internalType": "uint256",
          "name": "amount",
          "type": "uint256"
        },
        {
          "internalType": "address",
          "name": "to",
          "type": "address"
        }
      ],
      "name": "rescueEth",
      "outputs": [],
      "stateMutability": "nonpayable",
      "type": "function"
    },
    {
      "inputs": [
        {
          "internalType": "address",
          "name": "_oracle",
          "type": "address"
        },
        {
          "internalType": "bytes",
          "name": "_oracleData",
          "type": "bytes"
        }
      ],
      "name": "setAssetOracle",
      "outputs": [],
      "stateMutability": "nonpayable",
      "type": "function"
    },
    {
      "inputs": [
        {
          "internalType": "uint256",
          "name": "_minDebtRate",
          "type": "uint256"
        },
        {
          "internalType": "uint256",
          "name": "_maxDebtRate",
          "type": "uint256"
        },
        {
          "internalType": "uint256",
          "name": "_debtRateAgainstEthMarket",
          "type": "uint256"
        },
        {
          "internalType": "uint256",
          "name": "_liquidationMultiplier",
          "type": "uint256"
        }
      ],
      "name": "setBigBangConfig",
      "outputs": [],
      "stateMutability": "nonpayable",
      "type": "function"
    },
    {
      "inputs": [
        {
          "internalType": "contract ILeverageExecutor",
          "name": "_executor",
          "type": "address"
        }
      ],
      "name": "setLeverageExecutor",
      "outputs": [],
      "stateMutability": "nonpayable",
      "type": "function"
    },
    {
      "inputs": [
        {
          "internalType": "uint256",
          "name": "_val",
          "type": "uint256"
        }
      ],
      "name": "setLiquidationMaxSlippage",
      "outputs": [],
      "stateMutability": "nonpayable",
      "type": "function"
    },
    {
      "inputs": [
        {
          "internalType": "contract ITapiocaOracle",
          "name": "_oracle",
          "type": "address"
        },
        {
          "internalType": "bytes",
          "name": "_oracleData",
          "type": "bytes"
        },
        {
          "internalType": "address",
          "name": "_conservator",
          "type": "address"
        },
        {
          "internalType": "uint256",
          "name": "_protocolFee",
          "type": "uint256"
        },
        {
          "internalType": "uint256",
          "name": "_liquidationBonusAmount",
          "type": "uint256"
        },
        {
          "internalType": "uint256",
          "name": "_minLiquidatorReward",
          "type": "uint256"
        },
        {
          "internalType": "uint256",
          "name": "_maxLiquidatorReward",
          "type": "uint256"
        },
        {
          "internalType": "uint256",
          "name": "_totalBorrowCap",
          "type": "uint256"
        },
        {
          "internalType": "uint256",
          "name": "_collateralizationRate",
          "type": "uint256"
        },
        {
          "internalType": "uint256",
          "name": "_liquidationCollateralizationRate",
          "type": "uint256"
        }
      ],
      "name": "setMarketConfig",
      "outputs": [],
      "stateMutability": "nonpayable",
      "type": "function"
    },
    {
      "inputs": [
        {
          "internalType": "uint256",
          "name": "_min",
          "type": "uint256"
        },
        {
          "internalType": "uint256",
          "name": "_max",
          "type": "uint256"
        }
      ],
      "name": "setMinAndMaxMintFee",
      "outputs": [],
      "stateMutability": "nonpayable",
      "type": "function"
    },
    {
      "inputs": [
        {
          "internalType": "uint256",
          "name": "_min",
          "type": "uint256"
        },
        {
          "internalType": "uint256",
          "name": "_max",
          "type": "uint256"
        }
      ],
      "name": "setMinAndMaxMintRange",
      "outputs": [],
      "stateMutability": "nonpayable",
      "type": "function"
    },
    {
      "inputs": [
        {
          "internalType": "bytes4",
          "name": "interfaceId",
          "type": "bytes4"
        }
      ],
      "name": "supportsInterface",
      "outputs": [
        {
          "internalType": "bool",
          "name": "",
          "type": "bool"
        }
      ],
      "stateMutability": "pure",
      "type": "function"
    },
    {
      "inputs": [],
      "name": "totalSupply",
      "outputs": [
        {
          "internalType": "uint256",
          "name": "",
          "type": "uint256"
        }
      ],
      "stateMutability": "view",
      "type": "function"
    },
    {
      "inputs": [
        {
          "internalType": "address",
          "name": "to",
          "type": "address"
        },
        {
          "internalType": "uint256",
          "name": "amount",
          "type": "uint256"
        }
      ],
      "name": "transfer",
      "outputs": [
        {
          "internalType": "bool",
          "name": "",
          "type": "bool"
        }
      ],
      "stateMutability": "nonpayable",
      "type": "function"
    },
    {
      "inputs": [
        {
          "internalType": "address",
          "name": "from",
          "type": "address"
        },
        {
          "internalType": "address",
          "name": "to",
          "type": "address"
        },
        {
          "internalType": "uint256",
          "name": "amount",
          "type": "uint256"
        }
      ],
      "name": "transferFrom",
      "outputs": [
        {
          "internalType": "bool",
          "name": "",
          "type": "bool"
        }
      ],
      "stateMutability": "nonpayable",
      "type": "function"
    },
    {
      "inputs": [
        {
          "internalType": "address",
          "name": "newOwner",
          "type": "address"
        }
      ],
      "name": "transferOwnership",
      "outputs": [],
      "stateMutability": "nonpayable",
      "type": "function"
    },
    {
      "inputs": [],
      "name": "updateExchangeRate",
      "outputs": [
        {
          "internalType": "bool",
          "name": "updated",
          "type": "bool"
        },
        {
          "internalType": "uint256",
          "name": "rate",
          "type": "uint256"
        }
      ],
      "stateMutability": "nonpayable",
      "type": "function"
    },
    {
      "inputs": [
        {
          "internalType": "enum Market.PauseType",
          "name": "_type",
          "type": "uint8"
        },
        {
          "internalType": "bool",
          "name": "val",
          "type": "bool"
        }
      ],
      "name": "updatePause",
      "outputs": [],
      "stateMutability": "nonpayable",
      "type": "function"
    },
    {
      "inputs": [
        {
          "internalType": "bool",
          "name": "val",
          "type": "bool"
        }
      ],
      "name": "updatePauseAll",
      "outputs": [],
      "stateMutability": "nonpayable",
      "type": "function"
    },
    {
      "inputs": [],
      "name": "viewOpenInterest",
      "outputs": [
        {
          "internalType": "uint256",
          "name": "",
          "type": "uint256"
        }
      ],
      "stateMutability": "view",
      "type": "function"
    },
    {
      "stateMutability": "payable",
      "type": "receive"
    }
  ],
  "bytecode": "0x61016060405262013880601b5562015f90601c55612710601d55612ee06020556103e86022556000602d556103e8602e553480156200003d57600080fd5b50604080518082018252600f81526e546170696f63612042696742616e6760881b602080830191909152825180840190935260018352603160f81b908301529081906200008c8260006200014b565b610120526200009d8160016200014b565b61014052815160208084019190912060e052815190820120610100524660a0526200012b60e05161010051604080517f8b73c3c69bb8fe3d512ecc4cf759cc79239f7b179b0ffacaa9a75d522b39400f60208201529081019290925260608201524660808201523060a082015260009060c00160405160208183030381529060405280519060200120905090565b60805250503060c05250620001403362000184565b60016025556200040b565b60006020835110156200016b576200016383620001d6565b90506200017e565b81620001788482620002c9565b5060ff90505b92915050565b600680546001600160a01b038381166001600160a01b0319831681179093556040519116919082907f8be0079c531659141344cd1fd0a4f28419497f9722a3daafe3b4186f6b6457e090600090a35050565b600080829050601f815111156200020d578260405163305a27a960e01b815260040162000204919062000395565b60405180910390fd5b80516200021a82620003e6565b179392505050565b634e487b7160e01b600052604160045260246000fd5b600181811c908216806200024d57607f821691505b6020821081036200026e57634e487b7160e01b600052602260045260246000fd5b50919050565b601f821115620002c4576000816000526020600020601f850160051c810160208610156200029f5750805b601f850160051c820191505b81811015620002c057828155600101620002ab565b5050505b505050565b81516001600160401b03811115620002e557620002e562000222565b620002fd81620002f6845462000238565b8462000274565b602080601f8311600181146200033557600084156200031c5750858301515b600019600386901b1c1916600185901b178555620002c0565b600085815260208120601f198616915b82811015620003665788860151825594840194600190910190840162000345565b5085821015620003855787850151600019600388901b60f8161c191681555b5050505050600190811b01905550565b60006020808352835180602085015260005b81811015620003c557858101830151858201604001528201620003a7565b506000604082860101526040601f19601f8301168501019250505092915050565b805160208083015191908110156200026e5760001960209190910360031b1b16919050565b60805160a05160c05160e051610100516101205161014051615f2e6200046660003960006120350152600061200b015260006139730152600061394b015260006138a6015260006138d0015260006138fa0152615f2e6000f3fe6080604052600436106105ad5760003560e01c806379e1989f116102eb578063b598f9b41161018f578063e43874da116100e1578063f2fde38b11610095578063f88188cb1161006f578063f88188cb1461101e578063f8ba4cff1461103e578063fcea5e291461105357600080fd5b8063f2fde38b14610fc8578063f5b33dfa14610fe8578063f791395d1461100857600080fd5b8063ec7417fe116100c6578063ec7417fe14610f73578063ef2b234a14610f88578063f23a6e6114610fa857600080fd5b8063e43874da14610f35578063e6a44a9814610f5357600080fd5b8063c1ad5c8d11610143578063c9c7d8371161011d578063c9c7d83714610ebd578063d505accf14610edd578063dd62ed3e14610efd57600080fd5b8063c1ad5c8d14610e73578063c85c420214610e88578063c861a52614610e9d57600080fd5b8063bc197c8111610174578063bc197c8114610e06578063bde39c5d14610e48578063bf17b4de14610e5e57600080fd5b8063b598f9b414610dce578063b7113f1914610dec57600080fd5b80639e15e89f11610248578063af1827c4116101fc578063b25ea8fb116101d6578063b25ea8fb14610d3e578063b27c0e7414610d5e578063b5168e4a14610db057600080fd5b8063af1827c414610cf4578063af405b4c14610d14578063b1dd20f314610d2957600080fd5b8063a3328e971161022d578063a3328e9714610caa578063a9059cbb14610cbf578063ace168b414610cdf57600080fd5b80639e15e89f14610c5a578063a1fd6f4014610c9557600080fd5b806387e837dc1161029f578063932bc4f811610284578063932bc4f814610c1057806399a9702814610c255780639b82f83b14610c4557600080fd5b806387e837dc14610bc45780638da5cb5b14610bf257600080fd5b80637fa0b84e116102d05780637fa0b84e14610b5c578063839409cf14610b7c57806384b0196e14610b9c57600080fd5b806379e1989f14610b085780637ecebe0014610b2657600080fd5b80633a944ca0116104525780635986201a116103af5780636b19ad161161036357806374c9e4811161033d57806374c9e48114610ac757806376592e2f14610add578063790c846714610af257600080fd5b80636b19ad1614610a6f57806370a0823114610a85578063715018a614610ab257600080fd5b806360cd75481161039457806360cd754814610a2357806362f417e314610a38578063653a998614610a5a57600080fd5b80635986201a146109ee5780635d5f73ef14610a0357600080fd5b80634f9b904b1161040657806353eb5211116103eb57806353eb52111461098d578063542afda3146109c357806354b4ca5d146109d957600080fd5b80634f9b904b1461090d57806352e97efd1461092d57600080fd5b80633f741adb116104375780633f741adb146108975780634141fd62146108b75780634ddf47d4146108ed57600080fd5b80633a944ca0146108635780633da4be221461088157600080fd5b80631d4d3a5d1161050b57806325384fd8116104bf5780633309988011610499578063330998801461081b57806334ce998a146108305780633644e5151461084e57600080fd5b806325384fd8146107c657806327c811a8146107e65780632b9b1bc81461080657600080fd5b80631f6b08cc116104f05780631f6b08cc1461077357806323b872dd14610788578063247ac063146107a857600080fd5b80631d4d3a5d146107335780631da8bf101461075357600080fd5b80630c4e84f011610562578063108e4db711610547578063108e4db7146106d857806318160ddd146106ed578063189f1df01461070157600080fd5b80630c4e84f0146106a25780630f8b29ea146106c257600080fd5b806302ce728f1161059357806302ce728f14610634578063095ea7b31461066057806309d040381461068057600080fd5b8062a02a20146105b957806301ffc9a71461060457600080fd5b366105b457005b600080fd5b3480156105c557600080fd5b506105f16105d4366004614ecf565b600460209081526000928352604080842090915290825290205481565b6040519081526020015b60405180910390f35b34801561061057600080fd5b5061062461061f366004614f08565b611071565b60405190151581526020016105fb565b34801561064057600080fd5b506106496110c3565b6040805192151583526020830191909152016105fb565b34801561066c57600080fd5b5061062461067b366004614f32565b611222565b34801561068c57600080fd5b506106a061069b366004614f6c565b611238565b005b3480156106ae57600080fd5b506106a06106bd366004614f9d565b6116b4565b3480156106ce57600080fd5b506105f1602f5481565b3480156106e457600080fd5b50601a546105f1565b3480156106f957600080fd5b5060006105f1565b34801561070d57600080fd5b506008546001600160a01b03165b6040516001600160a01b0390911681526020016105fb565b34801561073f57600080fd5b50602b5461071b906001600160a01b031681565b34801561075f57600080fd5b506106a061076e366004614fc9565b611879565b34801561077f57600080fd5b506016546105f1565b34801561079457600080fd5b506106246107a3366004615040565b611893565b3480156107b457600080fd5b506010546001600160a01b031661071b565b3480156107d257600080fd5b5060335461071b906001600160a01b031681565b3480156107f257600080fd5b506106a0610801366004615081565b611abf565b34801561081257600080fd5b50601f546105f1565b34801561082757600080fd5b50600d546105f1565b34801561083c57600080fd5b506015546001600160801b03166105f1565b34801561085a57600080fd5b506105f1611cf0565b34801561086f57600080fd5b50600b546001600160a01b031661071b565b34801561088d57600080fd5b506105f160315481565b3480156108a357600080fd5b506105f16108b23660046150b3565b611cff565b3480156108c357600080fd5b506105f16108d23660046150df565b6001600160a01b031660009081526018602052604090205490565b3480156108f957600080fd5b506106a0610908366004615145565b611d4d565b34801561091957600080fd5b506106a0610928366004615187565b611e78565b34801561093957600080fd5b506040805180820182526000808252602091820152815180830183526015546001600160801b03808216808452600160801b90920481169284019283528451918252915190911691810191909152016105fb565b34801561099957600080fd5b506105f16109a83660046150df565b6001600160a01b031660009081526019602052604090205490565b3480156109cf57600080fd5b506105f1602d5481565b3480156109e557600080fd5b506020546105f1565b3480156109fa57600080fd5b506014546105f1565b348015610a0f57600080fd5b5060325461071b906001600160a01b031681565b348015610a2f57600080fd5b506013546105f1565b348015610a4457600080fd5b50610a4d611f07565b6040516105fb91906151f0565b348015610a6657600080fd5b50601b546105f1565b348015610a7b57600080fd5b506105f160285481565b348015610a9157600080fd5b506105f1610aa03660046150df565b60026020526000908152604090205481565b348015610abe57600080fd5b506106a0611f99565b348015610ad357600080fd5b506105f1602e5481565b348015610ae957600080fd5b50601d546105f1565b348015610afe57600080fd5b506105f160305481565b348015610b1457600080fd5b50600a546001600160a01b031661071b565b348015610b3257600080fd5b506105f1610b413660046150df565b6001600160a01b031660009081526005602052604090205490565b348015610b6857600080fd5b50610624610b77366004614f32565b611fad565b348015610b8857600080fd5b50610624610b97366004615203565b611fba565b348015610ba857600080fd5b50610bb1611ffd565b6040516105fb979695949392919061521e565b348015610bd057600080fd5b50610be4610bdf3660046152fc565b612085565b6040516105fb929190615380565b348015610bfe57600080fd5b506006546001600160a01b031661071b565b348015610c1c57600080fd5b50610a4d6122ba565b348015610c3157600080fd5b506105f1610c40366004614f32565b612348565b348015610c5157600080fd5b50601c546105f1565b348015610c6657600080fd5b50610c7a610c75366004614f32565b61235b565b604080519384526020840192909252908201526060016105fb565b348015610ca157600080fd5b50600f546105f1565b348015610cb657600080fd5b50601e546105f1565b348015610ccb57600080fd5b50610624610cda366004614f32565b612426565b348015610ceb57600080fd5b506022546105f1565b348015610d0057600080fd5b506106a0610d0f36600461541a565b612597565b348015610d2057600080fd5b506105f161260a565b348015610d3557600080fd5b506105f16127b9565b348015610d4a57600080fd5b506106a0610d5936600461543c565b61280d565b348015610d6a57600080fd5b50602654610d8f9067ffffffffffffffff808216916801000000000000000090041682565b6040805167ffffffffffffffff9384168152929091166020830152016105fb565b348015610dbc57600080fd5b506021546001600160a01b031661071b565b348015610dda57600080fd5b50600c546001600160a01b031661071b565b348015610df857600080fd5b506027546106249060ff1681565b348015610e1257600080fd5b50610e2f610e21366004615461565b600098975050505050505050565b6040516001600160e01b031990911681526020016105fb565b348015610e5457600080fd5b506105f1602a5481565b348015610e6a57600080fd5b506012546105f1565b348015610e7f57600080fd5b506105f161288e565b348015610e9457600080fd5b506105f1612ac4565b348015610ea957600080fd5b5060345461071b906001600160a01b031681565b348015610ec957600080fd5b506106a0610ed8366004615520565b612b33565b348015610ee957600080fd5b506106a0610ef8366004614fc9565b612be2565b348015610f0957600080fd5b506105f1610f18366004614ecf565b600360209081526000928352604080842090915290825290205481565b348015610f4157600080fd5b506009546001600160a01b031661071b565b348015610f5f57600080fd5b506106a0610f6e366004615580565b612bf3565b348015610f7f57600080fd5b506017546105f1565b348015610f9457600080fd5b506106a0610fa33660046150df565b6132d4565b348015610fb457600080fd5b50610e2f610fc3366004615628565b613345565b348015610fd457600080fd5b506106a0610fe33660046150df565b613358565b348015610ff457600080fd5b5060355461071b906001600160a01b031681565b34801561101457600080fd5b506105f160295481565b34801561102a57600080fd5b506106a061103936600461541a565b6133e8565b34801561104a57600080fd5b506106a061345b565b34801561105f57600080fd5b50600e546001600160a01b031661071b565b60006001600160e01b031982166334c7b4d760e11b14806110a257506001600160e01b03198216634ec7fbed60e11b145b806110bd57506001600160e01b03198216630271189760e51b145b92915050565b60105460405163d6d7d52560e01b815260009182916001600160a01b039091169063d6d7d525906110f9906011906004016156de565b60408051808303816000875af1158015611117573d6000803e3d6000fd5b505050506040513d601f19601f8201168201806040525081019061113b919061576e565b9092509050816111925760405162461bcd60e51b815260206004820152601460248201527f4d61726b65743a207261746520746f6f206f6c6400000000000000000000000060448201526064015b60405180910390fd5b806000036111e25760405162461bcd60e51b815260206004820152601460248201527f4d61726b65743a20696e76616c696420726174650000000000000000000000006044820152606401611189565b6012819055426014556040518181527f9f9192b5edb17356c524e08d9e025c8e2f6307e6ea52fb7968faa3081f51c3c89060200160405180910390a19091565b600061122f338484613463565b50600192915050565b6008546001600160a01b031633146112925760405162461bcd60e51b815260206004820152601460248201527f4d61726b65743a20756e617574686f72697a65640000000000000000000000006044820152606401611189565b600760209081527f6d5257204ebe7d88fd91ae87941cb2dd9d8062b64ae5a2bd2d28ec40b9fbf6df805483151560ff1991821681179092557fb39221ace053465ec3453ce2b36430bd138b997ecea25c1043da0c366812b82880548216831790557fb7c774451310d1be4108bc180d1b52823cb0ee0274a6c0081bcaf94f115fb96d80548216831790557f3be6fd20d5acfde5b873b48692cd31f4d3c7e8ee8a813af4696af8859e5ca6c680548216831790557fb805995a7ec585a251200611a61d179cfd7fb105e1ab17dc415a7336783786f780548216831790557fbcdda56b5d08466ec462cbbe0adfa57cb0a15fcc8940ef68f702f21b787bc93580548216831790557f55c5b153ab560fcde54a63b18c7f53d75501706907cef8767fbded79ab9997c780549091168217905560008080526040805160ff84161515815293840192909252917feeec81de25875ce1725479bb76f720a8defdb43dea041919ae37bb4aae9847c0910160405180910390a260016000819052600760209081527fb39221ace053465ec3453ce2b36430bd138b997ecea25c1043da0c366812b828546040805160ff90921615158252841515928201929092527feeec81de25875ce1725479bb76f720a8defdb43dea041919ae37bb4aae9847c0910160405180910390a260026000819052600760209081527fb7c774451310d1be4108bc180d1b52823cb0ee0274a6c0081bcaf94f115fb96d546040805160ff90921615158252841515928201929092527feeec81de25875ce1725479bb76f720a8defdb43dea041919ae37bb4aae9847c0910160405180910390a260036000819052600760209081527f3be6fd20d5acfde5b873b48692cd31f4d3c7e8ee8a813af4696af8859e5ca6c6546040805160ff90921615158252841515928201929092527feeec81de25875ce1725479bb76f720a8defdb43dea041919ae37bb4aae9847c0910160405180910390a260046000819052600760209081527fb805995a7ec585a251200611a61d179cfd7fb105e1ab17dc415a7336783786f7546040805160ff90921615158252841515928201929092527feeec81de25875ce1725479bb76f720a8defdb43dea041919ae37bb4aae9847c0910160405180910390a260056000819052600760209081527fbcdda56b5d08466ec462cbbe0adfa57cb0a15fcc8940ef68f702f21b787bc935546040805160ff90921615158252841515928201929092527feeec81de25875ce1725479bb76f720a8defdb43dea041919ae37bb4aae9847c0910160405180910390a260066000819052600760209081527f55c5b153ab560fcde54a63b18c7f53d75501706907cef8767fbded79ab9997c7546040805160ff90921615158252841515928201929092527feeec81de25875ce1725479bb76f720a8defdb43dea041919ae37bb4aae9847c0910160405180910390a250565b6008546001600160a01b0316331461170e5760405162461bcd60e51b815260206004820152601460248201527f4d61726b65743a20756e617574686f72697a65640000000000000000000000006044820152606401611189565b600760008360088111156117245761172461579c565b60088111156117355761173561579c565b815260208101919091526040016000205460ff1615158115150361179b5760405162461bcd60e51b815260206004820152601260248201527f4d61726b65743a2073616d6520737461746500000000000000000000000000006044820152606401611189565b8160088111156117ad576117ad61579c565b7feeec81de25875ce1725479bb76f720a8defdb43dea041919ae37bb4aae9847c0600760008560088111156117e4576117e461579c565b60088111156117f5576117f561579c565b8152602081019190915260409081016000205490516118269160ff1690859091151582521515602082015260400190565b60405180910390a280600760008460088111156118455761184561579c565b60088111156118565761185661579c565b81526020810191909152604001600020805460ff19169115159190911790555050565b61188a6000888888888888886134c4565b50505050505050565b60008115611a68576001600160a01b038416600090815260026020526040902054828110156119045760405162461bcd60e51b815260206004820152601660248201527f45524332303a2062616c616e636520746f6f206c6f77000000000000000000006044820152606401611189565b836001600160a01b0316856001600160a01b031614611a66576001600160a01b038516600090815260036020908152604080832033845290915290205460001981146119c9578381101561199a5760405162461bcd60e51b815260206004820152601860248201527f45524332303a20616c6c6f77616e636520746f6f206c6f7700000000000000006044820152606401611189565b6119a484826157c8565b6001600160a01b03871660009081526003602090815260408083203384529091529020555b6001600160a01b038516611a1f5760405162461bcd60e51b815260206004820152601660248201527f45524332303a206e6f207a65726f2061646472657373000000000000000000006044820152606401611189565b611a2984836157c8565b6001600160a01b038088166000908152600260205260408082209390935590871681529081208054869290611a5f9084906157db565b9091555050505b505b826001600160a01b0316846001600160a01b03167fddf252ad1be2c89b69c2b068fc378daa952ba7f163c4a11628f55a4df523b3ef84604051611aad91815260200190565b60405180910390a35060019392505050565b611ac761365e565b600a60009054906101000a90046001600160a01b03166001600160a01b031663c99fb76e6040518163ffffffff1660e01b8152600401602060405180830381865afa158015611b1a573d6000803e3d6000fd5b505050506040513d601f19601f82011682018060405250810190611b3e91906157ee565b600d546027805460ff191692909114918217905560ff16611cea57611b616136b8565b8315611bbe576028548410611b895760405163defda01760e01b815260040160405180910390fd5b6029546040518591907fa54af2279046b0207f426565497319c4e274479ce71cb53598ec2391459be3f390600090a360298490555b8215611c44576029548311611be65760405163defda01760e01b815260040160405180910390fd5b670de0b6b3a7640000831115611c0f5760405163defda01760e01b815260040160405180910390fd5b6028546040518491907f5391ae26cacff12a54d10d45f0f04678de8bb9c9b2f784eb7074dac7cc0f8fd990600090a360288390555b8115611c7f57602a546040518391907fd00c912c9d1f75ac893827b7bb73eb82874daea46c2eaa6d2bd89f0c8ee5736690600090a3602a8290555b8015611cea57620186a08110611ca85760405163f1640ae160e01b815260040160405180910390fd5b60208054604080519182529181018390527f1f1d0e9e5e3fd195010504141e7472fc7f53e44d7cd3f236f0892778039c6326910160405180910390a160208190555b50505050565b6000611cfa613899565b905090565b601f5460208054604080518082019091526015546001600160801b038082168352600160801b9091041692810192909252600092611d45928792879287929091906139c4565b949350505050565b60245460ff1615611da05760405162461bcd60e51b815260206004820152601360248201527f4d61726b65743a20696e697469616c697a6564000000000000000000000000006044820152606401611189565b60008080611db08486018661591a565b925092509250611e1d8360000151846020015185604001518660600151603280546001600160a01b039586166001600160a01b0319918216179091556034805493861693821693909317909255603380549385169383169390931790925560358054929093169116179055565b611e4d816000015182602001518360400151846060015185608001518660a001518760c001518860e00151613b04565b611e64826000015183602001518460400151613f1f565b50506024805460ff19166001179055505050565b611e8061365e565b620186a08110611ec65760405162461bcd60e51b815260206004820152601160248201527013585c9ad95d0e881b9bdd081d985b1a59607a1b6044820152606401611189565b60225460408051918252602082018390527fe309890a6a6a5f414a97847840a500c0a2ab0f3188999fb7e68eb4854fb48cf4910160405180910390a1602255565b606060118054611f16906156a4565b80601f0160208091040260200160405190810160405280929190818152602001828054611f42906156a4565b8015611f8f5780601f10611f6457610100808354040283529160200191611f8f565b820191906000526020600020905b815481529060010190602001808311611f7257829003601f168201915b5050505050905090565b611fa161365e565b611fab6000614022565b565b600061122f338484614074565b600060076000836008811115611fd257611fd261579c565b6008811115611fe357611fe361579c565b815260208101919091526040016000205460ff1692915050565b6000606080828080836120307f0000000000000000000000000000000000000000000000000000000000000000836140cd565b61205b7f000000000000000000000000000000000000000000000000000000000000000060016140cd565b60408051600080825260208201909252600f60f81b9b939a50919850469750309650945092509050565b606080612090614178565b8367ffffffffffffffff8111156120a9576120a9615807565b6040519080825280602002602001820160405280156120d2578160200160208202803683370190505b5091508367ffffffffffffffff8111156120ee576120ee615807565b60405190808252806020026020018201604052801561212157816020015b606081526020019060019003908161210c5790505b5090508584146121445760405163f1640ae160e01b815260040160405180910390fd5b60005b848110156122a5576000806121818a8a85818110612167576121676159e0565b905060200201602081019061217c91906159f6565b6141d1565b6001600160a01b031688888581811061219c5761219c6159e0565b90506020028101906121ae9190615a17565b6040516121bc929190615a5e565b600060405180830381855af49150503d80600081146121f7576040519150601f19603f3d011682016040523d82523d6000602084013e6121fc565b606091505b50915091508115801561220c5750855b156122465761221a816142c2565b80602001905181019061222d9190615a6e565b60405162461bcd60e51b815260040161118991906151f0565b81858481518110612259576122596159e0565b911515602092830291909101909101528115612275578061227e565b61227e816142c2565b848481518110612290576122906159e0565b60209081029190910101525050600101612147565b506122b06001602555565b9550959350505050565b602c80546122c7906156a4565b80601f01602080910402602001604051908101604052809291908181526020018280546122f3906156a4565b80156123405780601f1061231557610100808354040283529160200191612340565b820191906000526020600020905b81548152906001019060200180831161232357829003601f168201915b505050505081565b60006123548383614352565b9392505050565b6001600160a01b038216600090815260186020526040812054819081908082036123905760008060009350935093505061241f565b600061239a61449d565b905060006123a888886145e5565b905081602001516001600160801b031682600001516001600160801b0316846123d19190615b1b565b6123db9190615b48565b9250808310156123ec5760006123f0565b8083035b6001600160a01b03891660009081526019602052604090205490965061241690886146f9565b90955093505050505b9250925092565b60008115158061243e5750336001600160a01b038416145b1561254e5733600090815260026020526040902054828110156124a35760405162461bcd60e51b815260206004820152601660248201527f45524332303a2062616c616e636520746f6f206c6f77000000000000000000006044820152606401611189565b336001600160a01b0385161461254c576001600160a01b0384166125095760405162461bcd60e51b815260206004820152601660248201527f45524332303a206e6f207a65726f2061646472657373000000000000000000006044820152606401611189565b61251383826157c8565b33600090815260026020526040808220929092556001600160a01b038616815290812080548592906125469084906157db565b90915550505b505b6040518281526001600160a01b0384169033907fddf252ad1be2c89b69c2b068fc378daa952ba7f163c4a11628f55a4df523b3ef9060200160405180910390a350600192915050565b61259f61365e565b602f54826030547f9ba515d5ad02a934b077fb0eba07a4ec79463a8dc735c8b4ad44a434abc8607a846040516125d791815260200190565b60405180910390a48181106125ff5760405163f1640ae160e01b815260040160405180910390fd5b603091909155602f55565b600061261461365e565b600e546040516370a0823160e01b81523060048201526000916001600160a01b0316906370a0823190602401602060405180830381865afa15801561265d573d6000803e3d6000fd5b505050506040513d601f19601f8201168201806040525081019061268191906157ee565b600954600f54604051638eb22cdd60e01b8152600481019190915260248101839052600060448201529192506001600160a01b031690638eb22cdd90606401602060405180830381865afa1580156126dd573d6000803e3d6000fd5b505050506040513d601f19601f8201168201806040525081019061270191906157ee565b915081156127b557600954600e54612726916001600160a01b0391821691168361480f565b600954600f54604051634d4d7cbd60e11b8152600481019190915230602482015233604482015260006064820152608481018490526001600160a01b0390911690639a9af97a9060a40160408051808303816000875af115801561278e573d6000803e3d6000fd5b505050506040513d601f19601f820116820180604052508101906127b29190615b5c565b50505b5090565b60155460009081906127dd906001600160801b03600160801b820481169116615b80565b6001600160801b031690508060315411156127fa57600091505090565b60315461280790826157c8565b91505090565b61281561365e565b6000816001600160a01b03168360405160006040518083038185875af1925050503d8060008114612862576040519150601f19603f3d011682016040523d82523d6000602084013e612867565b606091505b5050905080612889576040516312171d8360e31b815260040160405180910390fd5b505050565b60275460009060ff161561291357600a60009054906101000a90046001600160a01b03166001600160a01b031663e6abad496040518163ffffffff1660e01b8152600401602060405180830381865afa1580156128ef573d6000803e3d6000fd5b505050506040513d601f19601f82011682018060405250810190611cfa91906157ee565b6015546001600160801b031660000361292d575060295490565b600a5460408051631848f2bf60e31b815290516000926001600160a01b03169163c24795f89160048083019260209291908290030181865afa158015612977573d6000803e3d6000fd5b505050506040513d601f19601f8201168201806040525081019061299b9190615ba7565b6001600160a01b03166334ce998a6040518163ffffffff1660e01b8152600401602060405180830381865afa1580156129d8573d6000803e3d6000fd5b505050506040513d601f19601f820116820180604052508101906129fc91906157ee565b601554602a549192506001600160801b031690600090670de0b6b3a764000090612a269085615b1b565b612a309190615b48565b9050808210612a4457602854935050505090565b600081612a59670de0b6b3a764000085615b1b565b612a639190615b48565b90506000602954670de0b6b3a764000083602954602854612a8491906157c8565b612a8e9190615b1b565b612a989190615b48565b612aa291906157db565b9050602854811115612abb576028549550505050505090565b95945050505050565b6000612ace61365e565b612ad66136b8565b6000612ae06127b9565b905080600003612b1657601554612b09906001600160801b03600160801b820481169116615b80565b6001600160801b03166031555b8060316000828254612b2891906157db565b909155509091505090565b612b3b61365e565b6001600160a01b03831615612ba057602b546040516001600160a01b038086169216907f126a75207b8b11156ec1f4a0ad246f458582451fc5bee4b8a729a1a68886e13290600090a3602b80546001600160a01b0319166001600160a01b0385161790555b801561288957602c612bb3828483615c14565b506040517f01ac0e23e087c4b2e9f1a163db44f946de9dd51461fe7a401c523fc8d5db1c2990600090a1505050565b61188a6001888888888888886134c4565b612bfb61365e565b6001600160a01b038b1615612c5c57601080546001600160a01b0319166001600160a01b038d169081179091556040519081527f3df77beb5db05fcdd70a30fc8adf3f83f9501b68579455adbd100b81809403949060200160405180910390a15b8815612c9a576011612c6f8a8c83615c14565b506040517fa6f004921c944d4b8bf6e38462b00f36a58d62495d56b51f571ab78f732c981590600090a15b6001600160a01b03881615612d0c57600854604080516001600160a01b039283168152918a1660208301527f5a62d22209e370e38eea92cfddcd228e656e6ec139243392a760a7769f5877fd910160405180910390a1600880546001600160a01b0319166001600160a01b038a161790555b8615612d9957620186a0871115612d595760405162461bcd60e51b815260206004820152601160248201527013585c9ad95d0e881b9bdd081d985b1a59607a1b6044820152606401611189565b601a8790556040805160028152602081018990527f253ac2c290fb3c37b20cfd60899ed86c0c8313905edc8ca53ec8d2b69d9919ad910160405180910390a15b8515612e2557620186a08610612de55760405162461bcd60e51b815260206004820152601160248201527013585c9ad95d0e881b9bdd081d985b1a59607a1b6044820152606401611189565b601d8690556040805160038152602081018890527f253ac2c290fb3c37b20cfd60899ed86c0c8313905edc8ca53ec8d2b69d9919ad910160405180910390a15b8415612ef657620186a08510612e715760405162461bcd60e51b815260206004820152601160248201527013585c9ad95d0e881b9bdd081d985b1a59607a1b6044820152606401611189565b601c548510612eb65760405162461bcd60e51b815260206004820152601160248201527013585c9ad95d0e881b9bdd081d985b1a59607a1b6044820152606401611189565b601b8590556040805160048152602081018790527f253ac2c290fb3c37b20cfd60899ed86c0c8313905edc8ca53ec8d2b69d9919ad910160405180910390a15b8315612fc757620186a08410612f425760405162461bcd60e51b815260206004820152601160248201527013585c9ad95d0e881b9bdd081d985b1a59607a1b6044820152606401611189565b601b548411612f875760405162461bcd60e51b815260206004820152601160248201527013585c9ad95d0e881b9bdd081d985b1a59607a1b6044820152606401611189565b601c8490556040805160058152602081018690527f253ac2c290fb3c37b20cfd60899ed86c0c8313905edc8ca53ec8d2b69d9919ad910160405180910390a15b82156130495760175460408051918252602082018590527fae6e0ab3b95f0a53ff9660a390ccedcbbf1f2355dce974a9841af106fddcfaba910160405180910390a160178390556040805160068152602081018590527f253ac2c290fb3c37b20cfd60899ed86c0c8313905edc8ca53ec8d2b69d9919ad910160405180910390a15b81156131c257620186a08211156130965760405162461bcd60e51b815260206004820152601160248201527013585c9ad95d0e881b9bdd081d985b1a59607a1b6044820152606401611189565b601f5482111561310e5760405162461bcd60e51b815260206004820152602560248201527f4d61726b65743a20636f6c6c61746572616c697a6174696f6e5261746520746f60448201527f6f206269670000000000000000000000000000000000000000000000000000006064820152608401611189565b61311b620186a080615b1b565b60205461312b90620186a06157db565b6131359084615b1b565b106131825760405162461bcd60e51b815260206004820152601a60248201527f4d61726b65743a204352202a202831202b204c4d29203e3d20310000000000006044820152606401611189565b601e8290556040805160078152602081018490527f253ac2c290fb3c37b20cfd60899ed86c0c8313905edc8ca53ec8d2b69d9919ad910160405180910390a15b80156132c757601e548110156132405760405162461bcd60e51b815260206004820152603260248201527f4d61726b65743a206c69717569646174696f6e436f6c6c61746572616c697a6160448201527f74696f6e5261746520746f6f20736d616c6c00000000000000000000000000006064820152608401611189565b620186a08111156132875760405162461bcd60e51b815260206004820152601160248201527013585c9ad95d0e881b9bdd081d985b1a59607a1b6044820152606401611189565b601f8190556040805160088152602081018390527f253ac2c290fb3c37b20cfd60899ed86c0c8313905edc8ca53ec8d2b69d9919ad910160405180910390a15b5050505050505050505050565b6132dc61365e565b602154604080516001600160a01b03928316815291831660208301527ffb4fd7114609dd603b57adbc2082205bfbbcabf9265c4b437b472f5c592b8cd7910160405180910390a1602180546001600160a01b0319166001600160a01b0392909216919091179055565b63f23a6e6160e01b5b9695505050505050565b61336061365e565b6001600160a01b0381166133dc5760405162461bcd60e51b815260206004820152602660248201527f4f776e61626c653a206e6577206f776e657220697320746865207a65726f206160448201527f64647265737300000000000000000000000000000000000000000000000000006064820152608401611189565b6133e581614022565b50565b6133f061365e565b602e5482602d547f1eafaac7ca8c5e231c2378dbf01de74321ec7c0c9b113ecc54b2cbd513ec6b5e8460405161342891815260200190565b60405180910390a48082106134505760405163f1640ae160e01b815260040160405180910390fd5b602d91909155602e55565b611fab6136b8565b6001600160a01b0383811660008181526003602090815260408083209487168084529482529182902085905590518481527f8c5be1e5ebec7d5bd14f71427d1e84f3dd0314c0f7b2291e5b200ac8c7c3b925910160405180910390a3505050565b834211156135145760405162461bcd60e51b815260206004820152601d60248201527f45524332305065726d69743a206578706972656420646561646c696e650000006044820152606401611189565b600088613541577fe9685ff6d48c617fe4f692c50e602cce27cbad0290beb93cfa77eac43968d58c613563565b7f6e71edae12b1b97f4d1f60370fef10105fa2faae0126114a169c64845d6126c95b88888861356f8c614ac2565b6040805160208101969096526001600160a01b0394851690860152929091166060840152608083015260a082015260c0810186905260e00160405160208183030381529060405280519060200120905060006135ca82614af1565b905060006135da82878787614b1e565b9050896001600160a01b0316816001600160a01b03161461363d5760405162461bcd60e51b815260206004820152601e60248201527f45524332305065726d69743a20696e76616c6964207369676e617475726500006044820152606401611189565b8a156136535761364e8a8a8a613463565b6132c7565b6132c78a8a8a614074565b6006546001600160a01b03163314611fab5760405162461bcd60e51b815260206004820181905260248201527f4f776e61626c653a2063616c6c6572206973206e6f7420746865206f776e65726044820152606401611189565b6040805180820190915260265467ffffffffffffffff80821683526801000000000000000090910416602082018190526000906136f590426157c8565b905080600003613703575050565b600061370d61288e565b90506137256137206301e187e083615b48565b614b46565b67ffffffffffffffff16835261373a42614b46565b67ffffffffffffffff908116602080860191909152604080518082019091526015546001600160801b03808216808452600160801b909204169282019290925285519092600092670de0b6b3a764000092879261379992911690615b1b565b6137a39190615b1b565b6137ad9190615b48565b6015549091506000906137cb906001600160801b0390811690615b80565b6001600160801b03169050808211156137e2578091505b6137eb82614bc6565b835184906137fa908390615cd4565b6001600160801b0390811690915284516020808701518316600160801b029190921617601555875160268054928a015167ffffffffffffffff90811668010000000000000000026fffffffffffffffffffffffffffffffff199490941692169182179290921790915560405190915083907f7484db546dcd57af0104c73c8a6968dfbaf5767f047cee0dadd0499ad7df81a090600090a3505050505050565b6000306001600160a01b037f0000000000000000000000000000000000000000000000000000000000000000161480156138f257507f000000000000000000000000000000000000000000000000000000000000000046145b1561391c57507f000000000000000000000000000000000000000000000000000000000000000090565b611cfa604080517f8b73c3c69bb8fe3d512ecc4cf759cc79239f7b179b0ffacaa9a75d522b39400f60208201527f0000000000000000000000000000000000000000000000000000000000000000918101919091527f000000000000000000000000000000000000000000000000000000000000000060608201524660808201523060a082015260009060c00160405160208183030381529060405280519060200120905090565b600081602001516001600160801b031682600001516001600160801b0316886139ed9190615b1b565b6139f79190615b48565b96506000613a0686600a615dd8565b613a108689615b1b565b613a1a9190615b48565b905080881015613a2e57600091505061334e565b6000613a3a828a6157c8565b90506000613a4988600a615dd8565b86613a558a600a615dd8565b613a5f91906157db565b601f54613a6c9190615b1b565b613a769190615b48565b905060006509184e72a00082613a8d8b600a615dd8565b613a979190615de4565b613aa19190615e04565b9050600081613ab8670de0b6b3a764000086615e04565b613ac29190615e34565b90506000808212613ad35781613adc565b613adc82615e62565b90508c811115613af4578c965050505050505061334e565b9c9b505050505050505050505050565b600a80546001600160a01b0319166001600160a01b038a16908117909155604080516303208df160e51b81529051636411be20916004808201926020929091908290030181865afa158015613b5d573d6000803e3d6000fd5b505050506040513d601f19601f82011682018060405250810190613b819190615ba7565b600b60006101000a8154816001600160a01b0302191690836001600160a01b03160217905550876001600160a01b031663de4065776040518163ffffffff1660e01b8152600401602060405180830381865afa158015613be5573d6000803e3d6000fd5b505050506040513d601f19601f82011682018060405250810190613c099190615ba7565b600980546001600160a01b0319166001600160a01b03928316179055600a5460408051631192124760e11b815290516000939290921691632324248e916004808201926020929091908290030181865afa158015613c6b573d6000803e3d6000fd5b505050506040513d601f19601f82011682018060405250810190613c8f9190615ba7565b90506001600160a01b038816613cb8576040516316d2b9ed60e11b815260040160405180910390fd5b6001600160a01b038116613cdf576040516316d2b9ed60e11b815260040160405180910390fd5b6001600160a01b038616613d06576040516316d2b9ed60e11b815260040160405180910390fd5b620186a0841115613d2a5760405163f1640ae160e01b815260040160405180910390fd5b620186a0831115613d4e5760405163f1640ae160e01b815260040160405180910390fd5b600e80546001600160a01b0319166001600160a01b0383811691909117909155600a54604080516386c8e21d60e01b8152905191909216916386c8e21d9160048083019260209291908290030181865afa158015613db0573d6000803e3d6000fd5b505050506040513d601f19601f82011682018060405250810190613dd491906157ee565b600f55600c80546001600160a01b03808b166001600160a01b031992831617909255600d8990556010805492891692909116919091179055613e146110c3565b5050612710601a5583613e2a57620124f8613e2c565b835b601e5582613e3d5762013880613e3f565b825b601f819055601e541115613e665760405163f1640ae160e01b815260040160405180910390fd5b60008511613e7c57670de0b6b3a7640000613e7e565b845b60235562013880601b5562015f90601c55612710601d55612ee0602055620151806013556000602d556103e8602e55670d87e55590018000602f55670de0b6b3a7640000603055602180546001600160a01b0319166001600160a01b0384811691909117909155600a54613ef29116614022565b5050600a54600880546001600160a01b0319166001600160a01b0390921691909117905550505050505050565b600a60009054906101000a90046001600160a01b03166001600160a01b031663c99fb76e6040518163ffffffff1660e01b8152600401602060405180830381865afa158015613f72573d6000803e3d6000fd5b505050506040513d601f19601f82011682018060405250810190613f9691906157ee565b600d546027805460ff191692909114918217905560ff166128895760295415801590613fc3575060285415155b1561401157808210613fe85760405163defda01760e01b815260040160405180910390fd5b670de0b6b3a764000081111561401157604051637871af0d60e01b815260040160405180910390fd5b602a92909255602891909155602955565b600680546001600160a01b038381166001600160a01b0319831681179093556040519116919082907f8be0079c531659141344cd1fd0a4f28419497f9722a3daafe3b4186f6b6457e090600090a35050565b6001600160a01b0380841660008181526004602090815260408083209487168084529490915280822085905551849392917fe50de2333c10a9502fcb1d8ae13a51bbf423153dfc63c2b8997665b32154afc391a4505050565b606060ff83146140e7576140e083614c45565b90506110bd565b8180546140f3906156a4565b80601f016020809104026020016040519081016040528092919081815260200182805461411f906156a4565b801561416c5780601f106141415761010080835404028352916020019161416c565b820191906000526020600020905b81548152906001019060200180831161414f57829003601f168201915b505050505090506110bd565b6002602554036141ca5760405162461bcd60e51b815260206004820152601f60248201527f5265656e7472616e637947756172643a207265656e7472616e742063616c6c006044820152606401611189565b6002602555565b600080808360048111156141e7576141e761579c565b036141f357503061429b565b60018360048111156142075761420761579c565b0361421e57506033546001600160a01b031661429b565b60028360048111156142325761423261579c565b0361424957506034546001600160a01b031661429b565b600383600481111561425d5761425d61579c565b0361427457506032546001600160a01b031661429b565b60048360048111156142885761428861579c565b0361429b57506035546001600160a01b03165b6001600160a01b0381166110bd576040516303bca7b760e01b815260040160405180910390fd5b60606103e88251111561430857505060408051808201909152601781527f4d61726b65743a20726561736f6e20746f6f206c6f6e67000000000000000000602082015290565b60448251101561434b57505060408051808201909152601681527f4d61726b65743a206e6f2072657475726e206461746100000000000000000000602082015290565b5060040190565b6001600160a01b0382166000908152601960205260408120548190819061437990856146f9565b6001600160a01b0387166000908152601860205260408120549294509092508190036143ab57600093505050506110bd565b826000036143bf57600093505050506110bd565b6015546001600160801b03600160801b82048116916143df911683615b1b565b6143e99190615b48565b9050828110156143ff57600093505050506110bd565b81811061441357601b5493505050506110bd565b600061441f84846157c8565b620186a061442d86856157c8565b6144379190615b1b565b6144419190615b48565b90506000601c54601b546144559190615de4565b90506000601c54620186a0848461446c9190615e04565b6144769190615e34565b6144809190615e7e565b9050601b548112156144915750601b545b98975050505050505050565b60408051808201909152600080825260208201526026546000906144d79068010000000000000000900467ffffffffffffffff16426157c8565b90508060000361450e575050604080518082019091526015546001600160801b038082168352600160801b90910416602082015290565b604080518082019091526015546001600160801b038082168352600160801b90910416602082015291506000670de0b6b3a7640000826301e1338061455161288e565b61455b9190615b48565b855161457091906001600160801b0316615b1b565b61457a9190615b1b565b6145849190615b48565b6015549091506000906145a2906001600160801b0390811690615b80565b6001600160801b03169050808211156145b9578091505b6145c282614bc6565b845185906145d1908390615cd4565b6001600160801b0316905250929392505050565b60008082116146365760405162461bcd60e51b815260206004820152601e60248201527f4d61726b65743a2065786368616e676552617465206e6f742076616c696400006044820152606401611189565b600954600d546001600160a01b0385811660009081526019602052604080822054905163442c159960e01b8152600481019490945260248401526044830181905292169063442c159990606401602060405180830381865afa1580156146a0573d6000803e3d6000fd5b505050506040513d601f19601f820116820180604052508101906146c491906157ee565b905082601e54620186a06023546146db9190615b48565b6146e59084615b1b565b6146ef9190615b1b565b611d459190615b48565b6000806000831161474c5760405162461bcd60e51b815260206004820152601e60248201527f4d61726b65743a2065786368616e676552617465206e6f742076616c696400006044820152606401611189565b600954600d5460405163442c159960e01b8152600481019190915260248101869052600060448201819052916001600160a01b03169063442c159990606401602060405180830381865afa1580156147a8573d6000803e3d6000fd5b505050506040513d601f19601f820116820180604052508101906147cc91906157ee565b905083602354826147dd9190615b1b565b6147e79190615b48565b9150620186a0601e54836147fb9190615b1b565b6148059190615b48565b9250509250929050565b6000836001600160a01b03163b116148695760405162461bcd60e51b815260206004820152601860248201527f53616665417070726f76653a206e6f20636f6e747261637400000000000000006044820152606401611189565b6040516001600160a01b0383811660248301526000604483018190529160609186169060640160408051601f198184030181529181526020820180517bffffffffffffffffffffffffffffffffffffffffffffffffffffffff1663095ea7b360e01b179052516148d99190615ea6565b6000604051808303816000865af19150503d8060008114614916576040519150601f19603f3d011682016040523d82523d6000602084013e61491b565b606091505b5090925090508180156149465750805115806149465750808060200190518101906149469190615ec2565b6149925760405162461bcd60e51b815260206004820152601b60248201527f53616665417070726f76653a20617070726f7665206661696c656400000000006044820152606401611189565b8215614abb576040516001600160a01b0385811660248301526044820185905286169060640160408051601f198184030181529181526020820180517bffffffffffffffffffffffffffffffffffffffffffffffffffffffff1663095ea7b360e01b17905251614a029190615ea6565b6000604051808303816000865af19150503d8060008114614a3f576040519150601f19603f3d011682016040523d82523d6000602084013e614a44565b606091505b509092509050818015614a6f575080511580614a6f575080806020019051810190614a6f9190615ec2565b614abb5760405162461bcd60e51b815260206004820152601b60248201527f53616665417070726f76653a20617070726f7665206661696c656400000000006044820152606401611189565b5050505050565b6001600160a01b038116600090815260056020526040812080549082614ae783615edf565b9091555092915050565b60006110bd614afe613899565b8360405161190160f01b8152600281019290925260228201526042902090565b6000806000614b2f87878787614c84565b91509150614b3c81614d48565b5095945050505050565b600067ffffffffffffffff8211156127b55760405162461bcd60e51b815260206004820152602660248201527f53616665436173743a2076616c756520646f65736e27742066697420696e203660448201527f34206269747300000000000000000000000000000000000000000000000000006064820152608401611189565b60006001600160801b038211156127b55760405162461bcd60e51b815260206004820152602760248201527f53616665436173743a2076616c756520646f65736e27742066697420696e203160448201527f32382062697473000000000000000000000000000000000000000000000000006064820152608401611189565b60606000614c5283614e92565b604080516020808252818301909252919250600091906020820181803683375050509182525060208101929092525090565b6000807f7fffffffffffffffffffffffffffffff5d576e7357a4501ddfe92f46681b20a0831115614cbb5750600090506003614d3f565b6040805160008082526020820180845289905260ff881692820192909252606081018690526080810185905260019060a0016020604051602081039080840390855afa158015614d0f573d6000803e3d6000fd5b5050604051601f1901519150506001600160a01b038116614d3857600060019250925050614d3f565b9150600090505b94509492505050565b6000816004811115614d5c57614d5c61579c565b03614d645750565b6001816004811115614d7857614d7861579c565b03614dc55760405162461bcd60e51b815260206004820152601860248201527f45434453413a20696e76616c6964207369676e617475726500000000000000006044820152606401611189565b6002816004811115614dd957614dd961579c565b03614e265760405162461bcd60e51b815260206004820152601f60248201527f45434453413a20696e76616c6964207369676e6174757265206c656e677468006044820152606401611189565b6003816004811115614e3a57614e3a61579c565b036133e55760405162461bcd60e51b815260206004820152602260248201527f45434453413a20696e76616c6964207369676e6174757265202773272076616c604482015261756560f01b6064820152608401611189565b600060ff8216601f8111156110bd57604051632cd44ac360e21b815260040160405180910390fd5b6001600160a01b03811681146133e557600080fd5b60008060408385031215614ee257600080fd5b8235614eed81614eba565b91506020830135614efd81614eba565b809150509250929050565b600060208284031215614f1a57600080fd5b81356001600160e01b03198116811461235457600080fd5b60008060408385031215614f4557600080fd5b8235614f5081614eba565b946020939093013593505050565b80151581146133e557600080fd5b600060208284031215614f7e57600080fd5b813561235481614f5e565b803560098110614f9857600080fd5b919050565b60008060408385031215614fb057600080fd5b614fb983614f89565b91506020830135614efd81614f5e565b600080600080600080600060e0888a031215614fe457600080fd5b8735614fef81614eba565b96506020880135614fff81614eba565b95506040880135945060608801359350608088013560ff8116811461502357600080fd5b9699959850939692959460a0840135945060c09093013592915050565b60008060006060848603121561505557600080fd5b833561506081614eba565b9250602084013561507081614eba565b929592945050506040919091013590565b6000806000806080858703121561509757600080fd5b5050823594602084013594506040840135936060013592509050565b6000806000606084860312156150c857600080fd5b505081359360208301359350604090920135919050565b6000602082840312156150f157600080fd5b813561235481614eba565b60008083601f84011261510e57600080fd5b50813567ffffffffffffffff81111561512657600080fd5b60208301915083602082850101111561513e57600080fd5b9250929050565b6000806020838503121561515857600080fd5b823567ffffffffffffffff81111561516f57600080fd5b61517b858286016150fc565b90969095509350505050565b60006020828403121561519957600080fd5b5035919050565b60005b838110156151bb5781810151838201526020016151a3565b50506000910152565b600081518084526151dc8160208601602086016151a0565b601f01601f19169290920160200192915050565b60208152600061235460208301846151c4565b60006020828403121561521557600080fd5b61235482614f89565b60ff60f81b881681526000602060e0602084015261523f60e084018a6151c4565b8381036040850152615251818a6151c4565b606085018990526001600160a01b038816608086015260a0850187905284810360c08601528551808252602080880193509091019060005b818110156152a557835183529284019291840191600101615289565b50909c9b505050505050505050505050565b60008083601f8401126152c957600080fd5b50813567ffffffffffffffff8111156152e157600080fd5b6020830191508360208260051b850101111561513e57600080fd5b60008060008060006060868803121561531457600080fd5b853567ffffffffffffffff8082111561532c57600080fd5b61533889838a016152b7565b9097509550602088013591508082111561535157600080fd5b5061535e888289016152b7565b909450925050604086013561537281614f5e565b809150509295509295909350565b604080825283519082018190526000906020906060840190828701845b828110156153bb57815115158452928401929084019060010161539d565b50505083810382850152845180825282820190600581901b8301840187850160005b8381101561540b57601f198684030185526153f98383516151c4565b948701949250908601906001016153dd565b50909998505050505050505050565b6000806040838503121561542d57600080fd5b50508035926020909101359150565b6000806040838503121561544f57600080fd5b823591506020830135614efd81614eba565b60008060008060008060008060a0898b03121561547d57600080fd5b883561548881614eba565b9750602089013561549881614eba565b9650604089013567ffffffffffffffff808211156154b557600080fd5b6154c18c838d016152b7565b909850965060608b01359150808211156154da57600080fd5b6154e68c838d016152b7565b909650945060808b01359150808211156154ff57600080fd5b5061550c8b828c016150fc565b999c989b5096995094979396929594505050565b60008060006040848603121561553557600080fd5b833561554081614eba565b9250602084013567ffffffffffffffff81111561555c57600080fd5b615568868287016150fc565b9497909650939450505050565b8035614f9881614eba565b60008060008060008060008060008060006101408c8e0312156155a257600080fd5b8b356155ad81614eba565b9a5060208c013567ffffffffffffffff8111156155c957600080fd5b6155d58e828f016150fc565b909b5099505060408c01356155e981614eba565b9a9d999c50979a6060810135996080820135995060a0820135985060c0820135975060e082013596506101008201359550610120909101359350915050565b60008060008060008060a0878903121561564157600080fd5b863561564c81614eba565b9550602087013561565c81614eba565b94506040870135935060608701359250608087013567ffffffffffffffff81111561568657600080fd5b61569289828a016150fc565b979a9699509497509295939492505050565b600181811c908216806156b857607f821691505b6020821081036156d857634e487b7160e01b600052602260045260246000fd5b50919050565b60006020808352600084546156f2816156a4565b8060208701526040600180841660008114615714576001811461573057615760565b60ff19851660408a0152604084151560051b8a01019550615760565b89600052602060002060005b858110156157575781548b820186015290830190880161573c565b8a016040019650505b509398975050505050505050565b6000806040838503121561578157600080fd5b825161578c81614f5e565b6020939093015192949293505050565b634e487b7160e01b600052602160045260246000fd5b634e487b7160e01b600052601160045260246000fd5b818103818111156110bd576110bd6157b2565b808201808211156110bd576110bd6157b2565b60006020828403121561580057600080fd5b5051919050565b634e487b7160e01b600052604160045260246000fd5b6040516080810167ffffffffffffffff8111828210171561584057615840615807565b60405290565b6040516060810167ffffffffffffffff8111828210171561584057615840615807565b600061010080838503121561587d57600080fd5b6040519081019067ffffffffffffffff821181831017156158a0576158a0615807565b81604052809250833591506158b482614eba565b8181526158c360208501615575565b6020820152604084013560408201526158de60608501615575565b60608201526080840135608082015260a084013560a082015260c084013560c082015261590d60e08501615575565b60e0820152505092915050565b60008060008385036101e081121561593157600080fd5b608081121561593f57600080fd5b61594761581d565b853561595281614eba565b8152602086013561596281614eba565b6020820152604086013561597581614eba565b6040820152606086013561598881614eba565b606082810191909152909450607f19820112156159a457600080fd5b506159ad615846565b6080850135815260a0850135602082015260c0850135604082015291506159d78560e08601615869565b90509250925092565b634e487b7160e01b600052603260045260246000fd5b600060208284031215615a0857600080fd5b81356005811061235457600080fd5b6000808335601e19843603018112615a2e57600080fd5b83018035915067ffffffffffffffff821115615a4957600080fd5b60200191503681900382131561513e57600080fd5b8183823760009101908152919050565b600060208284031215615a8057600080fd5b815167ffffffffffffffff80821115615a9857600080fd5b818401915084601f830112615aac57600080fd5b815181811115615abe57615abe615807565b604051601f8201601f19908116603f01168101908382118183101715615ae657615ae6615807565b81604052828152876020848701011115615aff57600080fd5b615b108360208301602088016151a0565b979650505050505050565b80820281158282048414176110bd576110bd6157b2565b634e487b7160e01b600052601260045260246000fd5b600082615b5757615b57615b32565b500490565b60008060408385031215615b6f57600080fd5b505080516020909101519092909150565b6001600160801b03828116828216039080821115615ba057615ba06157b2565b5092915050565b600060208284031215615bb957600080fd5b815161235481614eba565b601f821115612889576000816000526020600020601f850160051c81016020861015615bed5750805b601f850160051c820191505b81811015615c0c57828155600101615bf9565b505050505050565b67ffffffffffffffff831115615c2c57615c2c615807565b615c4083615c3a83546156a4565b83615bc4565b6000601f841160018114615c745760008515615c5c5750838201355b600019600387901b1c1916600186901b178355614abb565b600083815260209020601f19861690835b82811015615ca55786850135825560209485019460019092019101615c85565b5086821015615cc25760001960f88860031b161c19848701351681555b505060018560011b0183555050505050565b6001600160801b03818116838216019080821115615ba057615ba06157b2565b600181815b80851115615d2f578160001904821115615d1557615d156157b2565b80851615615d2257918102915b93841c9390800290615cf9565b509250929050565b600082615d46575060016110bd565b81615d53575060006110bd565b8160018114615d695760028114615d7357615d8f565b60019150506110bd565b60ff841115615d8457615d846157b2565b50506001821b6110bd565b5060208310610133831016604e8410600b8410161715615db2575081810a6110bd565b615dbc8383615cf4565b8060001904821115615dd057615dd06157b2565b029392505050565b60006123548383615d37565b8181036000831280158383131683831282161715615ba057615ba06157b2565b80820260008212600160ff1b84141615615e2057615e206157b2565b81810583148215176110bd576110bd6157b2565b600082615e4357615e43615b32565b600160ff1b821460001984141615615e5d57615e5d6157b2565b500590565b6000600160ff1b8201615e7757615e776157b2565b5060000390565b8082018281126000831280158216821582161715615e9e57615e9e6157b2565b505092915050565b60008251615eb88184602087016151a0565b9190910192915050565b600060208284031215615ed457600080fd5b815161235481614f5e565b600060018201615ef157615ef16157b2565b506001019056fea2646970667358221220f2dbdc4a36240d66d52be8349318076d392684cbd6e94207efac83b84b1b123764736f6c63430008160033",
  "linkReferences": {},
  "deployedLinkReferences": {}
}