{
  "_format": "hh-sol-artifact-1",
  "contractName": "BigBang",
  "sourceName": "contracts/markets/bigBang/BigBang.sol",
  "abi": [
    {
      "inputs": [],
      "name": "BadPair",
      "type": "error"
    },
    {
      "inputs": [],
      "name": "DebtRatesNotValid",
      "type": "error"
    },
    {
      "inputs": [],
      "name": "InvalidShortString",
      "type": "error"
    },
    {
      "inputs": [],
      "name": "MaxDebtRateNotValid",
      "type": "error"
    },
    {
      "inputs": [],
      "name": "ModuleNotSet",
      "type": "error"
    },
    {
      "inputs": [],
      "name": "NotEnough",
      "type": "error"
    },
    {
      "inputs": [],
      "name": "NotValid",
      "type": "error"
    },
    {
      "inputs": [
        {
          "internalType": "string",
          "name": "str",
          "type": "string"
        }
      ],
      "name": "StringTooLong",
      "type": "error"
    },
    {
      "inputs": [],
      "name": "TransferFailed",
      "type": "error"
    },
    {
      "anonymous": false,
      "inputs": [
        {
          "indexed": true,
          "internalType": "address",
          "name": "owner",
          "type": "address"
        },
        {
          "indexed": true,
          "internalType": "address",
          "name": "spender",
          "type": "address"
        },
        {
          "indexed": false,
          "internalType": "uint256",
          "name": "value",
          "type": "uint256"
        }
      ],
      "name": "Approval",
      "type": "event"
    },
    {
      "anonymous": false,
      "inputs": [
        {
          "indexed": true,
          "internalType": "address",
          "name": "owner",
          "type": "address"
        },
        {
          "indexed": true,
          "internalType": "address",
          "name": "spender",
          "type": "address"
        },
        {
          "indexed": true,
          "internalType": "uint256",
          "name": "value",
          "type": "uint256"
        }
      ],
      "name": "ApprovalBorrow",
      "type": "event"
    },
    {
      "anonymous": false,
      "inputs": [],
      "name": "AssetOracleDataUpdated",
      "type": "event"
    },
    {
      "anonymous": false,
      "inputs": [
        {
          "indexed": true,
          "internalType": "address",
          "name": "oldVal",
          "type": "address"
        },
        {
          "indexed": true,
          "internalType": "address",
          "name": "newVal",
          "type": "address"
        }
      ],
      "name": "AssetOracleUpdated",
      "type": "event"
    },
    {
      "anonymous": false,
      "inputs": [
        {
          "indexed": true,
          "internalType": "address",
          "name": "old",
          "type": "address"
        },
        {
          "indexed": true,
          "internalType": "address",
          "name": "_new",
          "type": "address"
        }
      ],
      "name": "ConservatorUpdated",
      "type": "event"
    },
    {
      "anonymous": false,
      "inputs": [
        {
          "indexed": true,
          "internalType": "uint256",
          "name": "oldVal",
          "type": "uint256"
        },
        {
          "indexed": true,
          "internalType": "uint256",
          "name": "newVal",
          "type": "uint256"
        }
      ],
      "name": "DebtRateAgainstEthUpdated",
      "type": "event"
    },
    {
      "anonymous": false,
      "inputs": [],
      "name": "EIP712DomainChanged",
      "type": "event"
    },
    {
      "anonymous": false,
      "inputs": [
        {
          "indexed": false,
          "internalType": "uint256",
          "name": "_oldVal",
          "type": "uint256"
        },
        {
          "indexed": false,
          "internalType": "uint256",
          "name": "_newVal",
          "type": "uint256"
        }
      ],
      "name": "ExchangeRateDurationUpdated",
      "type": "event"
    },
    {
      "anonymous": false,
      "inputs": [
        {
          "indexed": true,
          "internalType": "address",
          "name": "oldVal",
          "type": "address"
        },
        {
          "indexed": true,
          "internalType": "address",
          "name": "newVal",
          "type": "address"
        }
      ],
      "name": "LeverageExecutorSet",
      "type": "event"
    },
    {
      "anonymous": false,
      "inputs": [
        {
          "indexed": true,
          "internalType": "address",
          "name": "liquidator",
          "type": "address"
        },
        {
          "indexed": true,
          "internalType": "address[]",
          "name": "users",
          "type": "address[]"
        },
        {
          "indexed": true,
          "internalType": "uint256",
          "name": "liquidatorReward",
          "type": "uint256"
        },
        {
          "indexed": false,
          "internalType": "uint256",
          "name": "protocolReward",
          "type": "uint256"
        },
        {
          "indexed": false,
          "internalType": "uint256",
          "name": "repayedAmount",
          "type": "uint256"
        },
        {
          "indexed": false,
          "internalType": "uint256",
          "name": "collateralShareRemoved",
          "type": "uint256"
        }
      ],
      "name": "Liquidated",
      "type": "event"
    },
    {
      "anonymous": false,
      "inputs": [
        {
          "indexed": true,
          "internalType": "uint256",
          "name": "oldVal",
          "type": "uint256"
        },
        {
          "indexed": true,
          "internalType": "uint256",
          "name": "newVal",
          "type": "uint256"
        }
      ],
      "name": "LiquidationMultiplierUpdated",
      "type": "event"
    },
    {
      "anonymous": false,
      "inputs": [
        {
          "indexed": true,
          "internalType": "uint256",
          "name": "accruedAmount",
          "type": "uint256"
        },
        {
          "indexed": true,
          "internalType": "uint64",
          "name": "rate",
          "type": "uint64"
        }
      ],
      "name": "LogAccrue",
      "type": "event"
    },
    {
      "anonymous": false,
      "inputs": [
        {
          "indexed": true,
          "internalType": "address",
          "name": "from",
          "type": "address"
        },
        {
          "indexed": true,
          "internalType": "address",
          "name": "to",
          "type": "address"
        },
        {
          "indexed": true,
          "internalType": "uint256",
          "name": "share",
          "type": "uint256"
        }
      ],
      "name": "LogAddCollateral",
      "type": "event"
    },
    {
      "anonymous": false,
      "inputs": [
        {
          "indexed": true,
          "internalType": "address",
          "name": "from",
          "type": "address"
        },
        {
          "indexed": true,
          "internalType": "address",
          "name": "to",
          "type": "address"
        },
        {
          "indexed": true,
          "internalType": "uint256",
          "name": "amount",
          "type": "uint256"
        },
        {
          "indexed": false,
          "internalType": "uint256",
          "name": "feeAmount",
          "type": "uint256"
        },
        {
          "indexed": false,
          "internalType": "uint256",
          "name": "part",
          "type": "uint256"
        }
      ],
      "name": "LogBorrow",
      "type": "event"
    },
    {
      "anonymous": false,
      "inputs": [
        {
          "indexed": true,
          "internalType": "uint256",
          "name": "_oldVal",
          "type": "uint256"
        },
        {
          "indexed": true,
          "internalType": "uint256",
          "name": "_newVal",
          "type": "uint256"
        }
      ],
      "name": "LogBorrowCapUpdated",
      "type": "event"
    },
    {
      "anonymous": false,
      "inputs": [
        {
          "indexed": true,
          "internalType": "uint256",
          "name": "rate",
          "type": "uint256"
        }
      ],
      "name": "LogExchangeRate",
      "type": "event"
    },
    {
      "anonymous": false,
      "inputs": [
        {
          "indexed": true,
          "internalType": "address",
          "name": "from",
          "type": "address"
        },
        {
          "indexed": true,
          "internalType": "address",
          "name": "to",
          "type": "address"
        },
        {
          "indexed": true,
          "internalType": "uint256",
          "name": "share",
          "type": "uint256"
        }
      ],
      "name": "LogRemoveCollateral",
      "type": "event"
    },
    {
      "anonymous": false,
      "inputs": [
        {
          "indexed": true,
          "internalType": "address",
          "name": "from",
          "type": "address"
        },
        {
          "indexed": true,
          "internalType": "address",
          "name": "to",
          "type": "address"
        },
        {
          "indexed": true,
          "internalType": "uint256",
          "name": "amount",
          "type": "uint256"
        },
        {
          "indexed": false,
          "internalType": "uint256",
          "name": "part",
          "type": "uint256"
        }
      ],
      "name": "LogRepay",
      "type": "event"
    },
    {
      "anonymous": false,
      "inputs": [
        {
          "indexed": true,
          "internalType": "uint256",
          "name": "oldVal",
          "type": "uint256"
        },
        {
          "indexed": true,
          "internalType": "uint256",
          "name": "newVal",
          "type": "uint256"
        }
      ],
      "name": "MaxDebtRateUpdated",
      "type": "event"
    },
    {
      "anonymous": false,
      "inputs": [
        {
          "indexed": true,
          "internalType": "uint256",
          "name": "oldVal",
          "type": "uint256"
        },
        {
          "indexed": true,
          "internalType": "uint256",
          "name": "newVal",
          "type": "uint256"
        }
      ],
      "name": "MinDebtRateUpdated",
      "type": "event"
    },
    {
      "anonymous": false,
      "inputs": [],
      "name": "OracleDataUpdated",
      "type": "event"
    },
    {
      "anonymous": false,
      "inputs": [
        {
          "indexed": false,
          "internalType": "address",
          "name": "newAddr",
          "type": "address"
        }
      ],
      "name": "OracleUpdated",
      "type": "event"
    },
    {
      "anonymous": false,
      "inputs": [
        {
          "indexed": true,
          "internalType": "address",
          "name": "previousOwner",
          "type": "address"
        },
        {
          "indexed": true,
          "internalType": "address",
          "name": "newOwner",
          "type": "address"
        }
      ],
      "name": "OwnershipTransferred",
      "type": "event"
    },
    {
      "anonymous": false,
      "inputs": [
        {
          "indexed": true,
          "internalType": "enum Market.PauseType",
          "name": "_type",
          "type": "uint8"
        },
        {
          "indexed": true,
          "internalType": "bool",
          "name": "oldState",
          "type": "bool"
        },
        {
          "indexed": true,
          "internalType": "bool",
          "name": "newState",
          "type": "bool"
        }
      ],
      "name": "PausedUpdated",
      "type": "event"
    },
    {
      "anonymous": false,
      "inputs": [
        {
          "indexed": true,
          "internalType": "address",
          "name": "from",
          "type": "address"
        },
        {
          "indexed": true,
          "internalType": "address",
          "name": "to",
          "type": "address"
        },
        {
          "indexed": false,
          "internalType": "uint256",
          "name": "value",
          "type": "uint256"
        }
      ],
      "name": "Transfer",
      "type": "event"
    },
    {
      "anonymous": false,
      "inputs": [
        {
          "indexed": true,
          "internalType": "uint256",
          "name": "oldMin",
          "type": "uint256"
        },
        {
          "indexed": true,
          "internalType": "uint256",
          "name": "newMin",
          "type": "uint256"
        },
        {
          "indexed": true,
          "internalType": "uint256",
          "name": "oldMax",
          "type": "uint256"
        },
        {
          "indexed": false,
          "internalType": "uint256",
          "name": "newMax",
          "type": "uint256"
        }
      ],
      "name": "UpdateMinMaxMintFee",
      "type": "event"
    },
    {
      "anonymous": false,
      "inputs": [
        {
          "indexed": true,
          "internalType": "uint256",
          "name": "oldMin",
          "type": "uint256"
        },
        {
          "indexed": true,
          "internalType": "uint256",
          "name": "newMin",
          "type": "uint256"
        },
        {
          "indexed": true,
          "internalType": "uint256",
          "name": "oldMax",
          "type": "uint256"
        },
        {
          "indexed": false,
          "internalType": "uint256",
          "name": "newMax",
          "type": "uint256"
        }
      ],
      "name": "UpdateMinMaxMintRange",
      "type": "event"
    },
    {
      "anonymous": false,
      "inputs": [
        {
          "indexed": true,
          "internalType": "uint256",
          "name": "valType",
          "type": "uint256"
        },
        {
          "indexed": true,
          "internalType": "uint256",
          "name": "_newVal",
          "type": "uint256"
        }
      ],
      "name": "ValueUpdated",
      "type": "event"
    },
    {
      "inputs": [],
      "name": "DOMAIN_SEPARATOR",
      "outputs": [
        {
          "internalType": "bytes32",
          "name": "",
          "type": "bytes32"
        }
      ],
      "stateMutability": "view",
      "type": "function"
    },
    {
      "inputs": [],
      "name": "accrue",
      "outputs": [],
      "stateMutability": "nonpayable",
      "type": "function"
    },
    {
      "inputs": [],
      "name": "accrueInfo",
      "outputs": [
        {
          "internalType": "uint64",
          "name": "debtRate",
          "type": "uint64"
        },
        {
          "internalType": "uint64",
          "name": "lastAccrued",
          "type": "uint64"
        }
      ],
      "stateMutability": "view",
      "type": "function"
    },
    {
      "inputs": [
        {
          "internalType": "address",
          "name": "from",
          "type": "address"
        },
        {
          "internalType": "address",
          "name": "to",
          "type": "address"
        },
        {
          "internalType": "bool",
          "name": "skim",
          "type": "bool"
        },
        {
          "internalType": "uint256",
          "name": "amount",
          "type": "uint256"
        },
        {
          "internalType": "uint256",
          "name": "share",
          "type": "uint256"
        }
      ],
      "name": "addCollateral",
      "outputs": [],
      "stateMutability": "nonpayable",
      "type": "function"
    },
    {
      "inputs": [
        {
          "internalType": "address",
          "name": "",
          "type": "address"
        },
        {
          "internalType": "address",
          "name": "",
          "type": "address"
        }
      ],
      "name": "allowance",
      "outputs": [
        {
          "internalType": "uint256",
          "name": "",
          "type": "uint256"
        }
      ],
      "stateMutability": "view",
      "type": "function"
    },
    {
      "inputs": [
        {
          "internalType": "address",
          "name": "",
          "type": "address"
        },
        {
          "internalType": "address",
          "name": "",
          "type": "address"
        }
      ],
      "name": "allowanceBorrow",
      "outputs": [
        {
          "internalType": "uint256",
          "name": "",
          "type": "uint256"
        }
      ],
      "stateMutability": "view",
      "type": "function"
    },
    {
      "inputs": [
        {
          "internalType": "address",
          "name": "spender",
          "type": "address"
        },
        {
          "internalType": "uint256",
          "name": "amount",
          "type": "uint256"
        }
      ],
      "name": "approve",
      "outputs": [
        {
          "internalType": "bool",
          "name": "",
          "type": "bool"
        }
      ],
      "stateMutability": "nonpayable",
      "type": "function"
    },
    {
      "inputs": [
        {
          "internalType": "address",
          "name": "spender",
          "type": "address"
        },
        {
          "internalType": "uint256",
          "name": "amount",
          "type": "uint256"
        }
      ],
      "name": "approveBorrow",
      "outputs": [
        {
          "internalType": "bool",
          "name": "",
          "type": "bool"
        }
      ],
      "stateMutability": "nonpayable",
      "type": "function"
    },
    {
      "inputs": [],
      "name": "asset",
      "outputs": [
        {
          "internalType": "contract IERC20",
          "name": "",
          "type": "address"
        }
      ],
      "stateMutability": "view",
      "type": "function"
    },
    {
      "inputs": [],
      "name": "assetId",
      "outputs": [
        {
          "internalType": "uint256",
          "name": "",
          "type": "uint256"
        }
      ],
      "stateMutability": "view",
      "type": "function"
    },
    {
      "inputs": [],
      "name": "assetOracle",
      "outputs": [
        {
          "internalType": "contract ITapiocaOracle",
          "name": "",
          "type": "address"
        }
      ],
      "stateMutability": "view",
      "type": "function"
    },
    {
      "inputs": [],
      "name": "assetOracleData",
      "outputs": [
        {
          "internalType": "bytes",
          "name": "",
          "type": "bytes"
        }
      ],
      "stateMutability": "view",
      "type": "function"
    },
    {
      "inputs": [
        {
          "internalType": "address",
          "name": "",
          "type": "address"
        }
      ],
      "name": "balanceOf",
      "outputs": [
        {
          "internalType": "uint256",
          "name": "",
          "type": "uint256"
        }
      ],
      "stateMutability": "view",
      "type": "function"
    },
    {
      "inputs": [
        {
          "internalType": "address",
          "name": "from",
          "type": "address"
        },
        {
          "internalType": "address",
          "name": "to",
          "type": "address"
        },
        {
          "internalType": "uint256",
          "name": "amount",
          "type": "uint256"
        }
      ],
      "name": "borrow",
      "outputs": [
        {
          "internalType": "uint256",
          "name": "part",
          "type": "uint256"
        },
        {
          "internalType": "uint256",
          "name": "share",
          "type": "uint256"
        }
      ],
      "stateMutability": "nonpayable",
      "type": "function"
    },
    {
      "inputs": [],
      "name": "borrowModule",
      "outputs": [
        {
          "internalType": "contract BBBorrow",
          "name": "",
          "type": "address"
        }
      ],
      "stateMutability": "view",
      "type": "function"
    },
    {
      "inputs": [
        {
          "internalType": "address",
          "name": "from",
          "type": "address"
        },
        {
          "internalType": "uint256",
          "name": "borrowAmount",
          "type": "uint256"
        },
        {
          "internalType": "uint256",
          "name": "supplyAmount",
          "type": "uint256"
        },
        {
          "internalType": "bytes",
          "name": "data",
          "type": "bytes"
        }
      ],
      "name": "buyCollateral",
      "outputs": [
        {
          "internalType": "uint256",
          "name": "amountOut",
          "type": "uint256"
        }
      ],
      "stateMutability": "nonpayable",
      "type": "function"
    },
    {
      "inputs": [],
      "name": "claimOwnership",
      "outputs": [],
      "stateMutability": "nonpayable",
      "type": "function"
    },
    {
      "inputs": [],
      "name": "collateral",
      "outputs": [
        {
          "internalType": "contract IERC20",
          "name": "",
          "type": "address"
        }
      ],
      "stateMutability": "view",
      "type": "function"
    },
    {
      "inputs": [],
      "name": "collateralId",
      "outputs": [
        {
          "internalType": "uint256",
          "name": "",
          "type": "uint256"
        }
      ],
      "stateMutability": "view",
      "type": "function"
    },
    {
      "inputs": [],
      "name": "collateralModule",
      "outputs": [
        {
          "internalType": "contract BBCollateral",
          "name": "",
          "type": "address"
        }
      ],
      "stateMutability": "view",
      "type": "function"
    },
    {
      "inputs": [],
      "name": "collateralizationRate",
      "outputs": [
        {
          "internalType": "uint256",
          "name": "",
          "type": "uint256"
        }
      ],
      "stateMutability": "view",
      "type": "function"
    },
    {
      "inputs": [
        {
          "internalType": "uint256",
          "name": "borrowPart",
          "type": "uint256"
        },
        {
          "internalType": "uint256",
          "name": "collateralPartInAsset",
          "type": "uint256"
        },
        {
          "internalType": "uint256",
          "name": "ratesPrecision",
          "type": "uint256"
        }
      ],
      "name": "computeClosingFactor",
      "outputs": [
        {
          "internalType": "uint256",
          "name": "",
          "type": "uint256"
        }
      ],
      "stateMutability": "view",
      "type": "function"
    },
    {
      "inputs": [
        {
          "internalType": "address",
          "name": "user",
          "type": "address"
        },
        {
          "internalType": "uint256",
          "name": "_exchangeRate",
          "type": "uint256"
        }
      ],
      "name": "computeLiquidatorReward",
      "outputs": [
        {
          "internalType": "uint256",
          "name": "",
          "type": "uint256"
        }
      ],
      "stateMutability": "view",
      "type": "function"
    },
    {
      "inputs": [
        {
          "internalType": "address",
          "name": "user",
          "type": "address"
        },
        {
          "internalType": "uint256",
          "name": "_exchangeRate",
          "type": "uint256"
        }
      ],
      "name": "computeTVLInfo",
      "outputs": [
        {
          "internalType": "uint256",
          "name": "amountToSolvency",
          "type": "uint256"
        },
        {
          "internalType": "uint256",
          "name": "minTVL",
          "type": "uint256"
        },
        {
          "internalType": "uint256",
          "name": "maxTVL",
          "type": "uint256"
        }
      ],
      "stateMutability": "view",
      "type": "function"
    },
    {
      "inputs": [],
      "name": "conservator",
      "outputs": [
        {
          "internalType": "address",
          "name": "",
          "type": "address"
        }
      ],
      "stateMutability": "view",
      "type": "function"
    },
    {
      "inputs": [],
      "name": "debtRateAgainstEthMarket",
      "outputs": [
        {
          "internalType": "uint256",
          "name": "",
          "type": "uint256"
        }
      ],
      "stateMutability": "view",
      "type": "function"
    },
    {
      "inputs": [],
      "name": "eip712Domain",
      "outputs": [
        {
          "internalType": "bytes1",
          "name": "fields",
          "type": "bytes1"
        },
        {
          "internalType": "string",
          "name": "name",
          "type": "string"
        },
        {
          "internalType": "string",
          "name": "version",
          "type": "string"
        },
        {
          "internalType": "uint256",
          "name": "chainId",
          "type": "uint256"
        },
        {
          "internalType": "address",
          "name": "verifyingContract",
          "type": "address"
        },
        {
          "internalType": "bytes32",
          "name": "salt",
          "type": "bytes32"
        },
        {
          "internalType": "uint256[]",
          "name": "extensions",
          "type": "uint256[]"
        }
      ],
      "stateMutability": "view",
      "type": "function"
    },
    {
      "inputs": [],
      "name": "exchangeRate",
      "outputs": [
        {
          "internalType": "uint256",
          "name": "",
          "type": "uint256"
        }
      ],
      "stateMutability": "view",
      "type": "function"
    },
    {
      "inputs": [
        {
          "internalType": "bytes[]",
          "name": "calls",
          "type": "bytes[]"
        },
        {
          "internalType": "bool",
          "name": "revertOnFail",
          "type": "bool"
        }
      ],
      "name": "execute",
      "outputs": [
        {
          "internalType": "bool[]",
          "name": "successes",
          "type": "bool[]"
        },
        {
          "internalType": "string[]",
          "name": "results",
          "type": "string[]"
        }
      ],
      "stateMutability": "nonpayable",
      "type": "function"
    },
    {
      "inputs": [],
      "name": "getDebtRate",
      "outputs": [
        {
          "internalType": "uint256",
          "name": "",
          "type": "uint256"
        }
      ],
      "stateMutability": "view",
      "type": "function"
    },
    {
      "inputs": [],
      "name": "getTotalDebt",
      "outputs": [
        {
          "internalType": "uint256",
          "name": "",
          "type": "uint256"
        }
      ],
      "stateMutability": "view",
      "type": "function"
    },
    {
      "inputs": [
        {
          "internalType": "bytes",
          "name": "initData",
          "type": "bytes"
        }
      ],
      "name": "init",
      "outputs": [],
      "stateMutability": "nonpayable",
      "type": "function"
    },
    {
      "inputs": [],
      "name": "isMainMarket",
      "outputs": [
        {
          "internalType": "bool",
          "name": "",
          "type": "bool"
        }
      ],
      "stateMutability": "view",
      "type": "function"
    },
    {
      "inputs": [],
      "name": "leverageExecutor",
      "outputs": [
        {
          "internalType": "contract ILeverageExecutor",
          "name": "",
          "type": "address"
        }
      ],
      "stateMutability": "view",
      "type": "function"
    },
    {
      "inputs": [],
      "name": "leverageModule",
      "outputs": [
        {
          "internalType": "contract BBLeverage",
          "name": "",
          "type": "address"
        }
      ],
      "stateMutability": "view",
      "type": "function"
    },
    {
      "inputs": [
        {
          "internalType": "address[]",
          "name": "users",
          "type": "address[]"
        },
        {
          "internalType": "uint256[]",
          "name": "maxBorrowParts",
          "type": "uint256[]"
        },
        {
          "internalType": "uint256[]",
          "name": "minLiquidationBonuses",
          "type": "uint256[]"
        },
        {
          "internalType": "contract IMarketLiquidatorReceiver[]",
          "name": "liquidatorReceivers",
          "type": "address[]"
        },
        {
          "internalType": "bytes[]",
          "name": "liquidatorReceiverDatas",
          "type": "bytes[]"
        }
      ],
      "name": "liquidate",
      "outputs": [],
      "stateMutability": "nonpayable",
      "type": "function"
    },
    {
      "inputs": [
        {
          "internalType": "address",
          "name": "user",
          "type": "address"
        },
        {
          "internalType": "address",
          "name": "from",
          "type": "address"
        },
        {
          "internalType": "address",
          "name": "receiver",
          "type": "address"
        },
        {
          "internalType": "contract IMarketLiquidatorReceiver",
          "name": "liquidatorReceiver",
          "type": "address"
        },
        {
          "internalType": "bytes",
          "name": "liquidatorReceiverData",
          "type": "bytes"
        },
        {
          "internalType": "bool",
          "name": "swapCollateral",
          "type": "bool"
        }
      ],
      "name": "liquidateBadDebt",
      "outputs": [],
      "stateMutability": "nonpayable",
      "type": "function"
    },
    {
      "inputs": [],
      "name": "liquidationBonusAmount",
      "outputs": [
        {
          "internalType": "uint256",
          "name": "",
          "type": "uint256"
        }
      ],
      "stateMutability": "view",
      "type": "function"
    },
    {
      "inputs": [],
      "name": "liquidationCollateralizationRate",
      "outputs": [
        {
          "internalType": "uint256",
          "name": "",
          "type": "uint256"
        }
      ],
      "stateMutability": "view",
      "type": "function"
    },
    {
      "inputs": [],
      "name": "liquidationModule",
      "outputs": [
        {
          "internalType": "contract BBLiquidation",
          "name": "",
          "type": "address"
        }
      ],
      "stateMutability": "view",
      "type": "function"
    },
    {
      "inputs": [],
      "name": "liquidationMultiplier",
      "outputs": [
        {
          "internalType": "uint256",
          "name": "",
          "type": "uint256"
        }
      ],
      "stateMutability": "view",
      "type": "function"
    },
    {
      "inputs": [],
      "name": "maxDebtRate",
      "outputs": [
        {
          "internalType": "uint256",
          "name": "",
          "type": "uint256"
        }
      ],
      "stateMutability": "view",
      "type": "function"
    },
    {
      "inputs": [],
      "name": "maxLiquidatorReward",
      "outputs": [
        {
          "internalType": "uint256",
          "name": "",
          "type": "uint256"
        }
      ],
      "stateMutability": "view",
      "type": "function"
    },
    {
      "inputs": [],
      "name": "maxMintFee",
      "outputs": [
        {
          "internalType": "uint256",
          "name": "",
          "type": "uint256"
        }
      ],
      "stateMutability": "view",
      "type": "function"
    },
    {
      "inputs": [],
      "name": "maxMintFeeStart",
      "outputs": [
        {
          "internalType": "uint256",
          "name": "",
          "type": "uint256"
        }
      ],
      "stateMutability": "view",
      "type": "function"
    },
    {
      "inputs": [],
      "name": "minDebtRate",
      "outputs": [
        {
          "internalType": "uint256",
          "name": "",
          "type": "uint256"
        }
      ],
      "stateMutability": "view",
      "type": "function"
    },
    {
      "inputs": [],
      "name": "minLiquidatorReward",
      "outputs": [
        {
          "internalType": "uint256",
          "name": "",
          "type": "uint256"
        }
      ],
      "stateMutability": "view",
      "type": "function"
    },
    {
      "inputs": [],
      "name": "minMintFee",
      "outputs": [
        {
          "internalType": "uint256",
          "name": "",
          "type": "uint256"
        }
      ],
      "stateMutability": "view",
      "type": "function"
    },
    {
      "inputs": [],
      "name": "minMintFeeStart",
      "outputs": [
        {
          "internalType": "uint256",
          "name": "",
          "type": "uint256"
        }
      ],
      "stateMutability": "view",
      "type": "function"
    },
    {
      "inputs": [
        {
          "internalType": "address",
          "name": "owner",
          "type": "address"
        }
      ],
      "name": "nonces",
      "outputs": [
        {
          "internalType": "uint256",
          "name": "",
          "type": "uint256"
        }
      ],
      "stateMutability": "view",
      "type": "function"
    },
    {
      "inputs": [],
      "name": "oracle",
      "outputs": [
        {
          "internalType": "contract ITapiocaOracle",
          "name": "",
          "type": "address"
        }
      ],
      "stateMutability": "view",
      "type": "function"
    },
    {
      "inputs": [],
      "name": "oracleData",
      "outputs": [
        {
          "internalType": "bytes",
          "name": "",
          "type": "bytes"
        }
      ],
      "stateMutability": "view",
      "type": "function"
    },
    {
      "inputs": [],
      "name": "owner",
      "outputs": [
        {
          "internalType": "address",
          "name": "",
          "type": "address"
        }
      ],
      "stateMutability": "view",
      "type": "function"
    },
    {
      "inputs": [
        {
          "internalType": "enum Market.PauseType",
          "name": "pauseProp",
          "type": "uint8"
        }
      ],
      "name": "pauseOptions",
      "outputs": [
        {
          "internalType": "bool",
          "name": "pauseStatus",
          "type": "bool"
        }
      ],
      "stateMutability": "view",
      "type": "function"
    },
    {
      "inputs": [],
      "name": "pendingOwner",
      "outputs": [
        {
          "internalType": "address",
          "name": "",
          "type": "address"
        }
      ],
      "stateMutability": "view",
      "type": "function"
    },
    {
      "inputs": [],
      "name": "penrose",
      "outputs": [
        {
          "internalType": "contract IPenrose",
          "name": "",
          "type": "address"
        }
      ],
      "stateMutability": "view",
      "type": "function"
    },
    {
      "inputs": [
        {
          "internalType": "address",
          "name": "owner",
          "type": "address"
        },
        {
          "internalType": "address",
          "name": "spender",
          "type": "address"
        },
        {
          "internalType": "uint256",
          "name": "value",
          "type": "uint256"
        },
        {
          "internalType": "uint256",
          "name": "deadline",
          "type": "uint256"
        },
        {
          "internalType": "uint8",
          "name": "v",
          "type": "uint8"
        },
        {
          "internalType": "bytes32",
          "name": "r",
          "type": "bytes32"
        },
        {
          "internalType": "bytes32",
          "name": "s",
          "type": "bytes32"
        }
      ],
      "name": "permit",
      "outputs": [],
      "stateMutability": "nonpayable",
      "type": "function"
    },
    {
      "inputs": [
        {
          "internalType": "address",
          "name": "owner",
          "type": "address"
        },
        {
          "internalType": "address",
          "name": "spender",
          "type": "address"
        },
        {
          "internalType": "uint256",
          "name": "value",
          "type": "uint256"
        },
        {
          "internalType": "uint256",
          "name": "deadline",
          "type": "uint256"
        },
        {
          "internalType": "uint8",
          "name": "v",
          "type": "uint8"
        },
        {
          "internalType": "bytes32",
          "name": "r",
          "type": "bytes32"
        },
        {
          "internalType": "bytes32",
          "name": "s",
          "type": "bytes32"
        }
      ],
      "name": "permitBorrow",
      "outputs": [],
      "stateMutability": "nonpayable",
      "type": "function"
    },
    {
      "inputs": [],
      "name": "protocolFee",
      "outputs": [
        {
          "internalType": "uint256",
          "name": "",
          "type": "uint256"
        }
      ],
      "stateMutability": "view",
      "type": "function"
    },
    {
      "inputs": [],
      "name": "rateTimestamp",
      "outputs": [
        {
          "internalType": "uint256",
          "name": "",
          "type": "uint256"
        }
      ],
      "stateMutability": "view",
      "type": "function"
    },
    {
      "inputs": [],
      "name": "rateValidDuration",
      "outputs": [
        {
          "internalType": "uint256",
          "name": "",
          "type": "uint256"
        }
      ],
      "stateMutability": "view",
      "type": "function"
    },
    {
      "inputs": [],
      "name": "refreshPenroseFees",
      "outputs": [
        {
          "internalType": "uint256",
          "name": "feeShares",
          "type": "uint256"
        }
      ],
      "stateMutability": "nonpayable",
      "type": "function"
    },
    {
      "inputs": [
        {
          "internalType": "address",
          "name": "from",
          "type": "address"
        },
        {
          "internalType": "address",
          "name": "to",
          "type": "address"
        },
        {
          "internalType": "uint256",
          "name": "share",
          "type": "uint256"
        }
      ],
      "name": "removeCollateral",
      "outputs": [],
      "stateMutability": "nonpayable",
      "type": "function"
    },
    {
      "inputs": [
        {
          "internalType": "address",
          "name": "from",
          "type": "address"
        },
        {
          "internalType": "address",
          "name": "to",
          "type": "address"
        },
        {
          "internalType": "bool",
          "name": "skim",
          "type": "bool"
        },
        {
          "internalType": "uint256",
          "name": "part",
          "type": "uint256"
        }
      ],
      "name": "repay",
      "outputs": [
        {
          "internalType": "uint256",
          "name": "amount",
          "type": "uint256"
        }
      ],
      "stateMutability": "nonpayable",
      "type": "function"
    },
    {
      "inputs": [
        {
          "internalType": "uint256",
          "name": "amount",
          "type": "uint256"
        },
        {
          "internalType": "address",
          "name": "to",
          "type": "address"
        }
      ],
      "name": "rescueEth",
      "outputs": [],
      "stateMutability": "nonpayable",
      "type": "function"
    },
    {
      "inputs": [
        {
          "internalType": "address",
          "name": "from",
          "type": "address"
        },
        {
          "internalType": "uint256",
          "name": "share",
          "type": "uint256"
        },
        {
          "internalType": "bytes",
          "name": "data",
          "type": "bytes"
        }
      ],
      "name": "sellCollateral",
      "outputs": [
        {
          "internalType": "uint256",
          "name": "amountOut",
          "type": "uint256"
        }
      ],
      "stateMutability": "nonpayable",
      "type": "function"
    },
    {
      "inputs": [
        {
          "internalType": "address",
          "name": "_oracle",
          "type": "address"
        },
        {
          "internalType": "bytes",
          "name": "_oracleData",
          "type": "bytes"
        }
      ],
      "name": "setAssetOracle",
      "outputs": [],
      "stateMutability": "nonpayable",
      "type": "function"
    },
    {
      "inputs": [
        {
          "internalType": "uint256",
          "name": "_minDebtRate",
          "type": "uint256"
        },
        {
          "internalType": "uint256",
          "name": "_maxDebtRate",
          "type": "uint256"
        },
        {
          "internalType": "uint256",
          "name": "_debtRateAgainstEthMarket",
          "type": "uint256"
        },
        {
          "internalType": "uint256",
          "name": "_liquidationMultiplier",
          "type": "uint256"
        }
      ],
      "name": "setBigBangConfig",
      "outputs": [],
      "stateMutability": "nonpayable",
      "type": "function"
    },
    {
      "inputs": [
        {
          "internalType": "contract ILeverageExecutor",
          "name": "_executor",
          "type": "address"
        }
      ],
      "name": "setLeverageExecutor",
      "outputs": [],
      "stateMutability": "nonpayable",
      "type": "function"
    },
    {
      "inputs": [
        {
          "internalType": "contract ITapiocaOracle",
          "name": "_oracle",
          "type": "address"
        },
        {
          "internalType": "bytes",
          "name": "_oracleData",
          "type": "bytes"
        },
        {
          "internalType": "address",
          "name": "_conservator",
          "type": "address"
        },
        {
          "internalType": "uint256",
          "name": "_protocolFee",
          "type": "uint256"
        },
        {
          "internalType": "uint256",
          "name": "_liquidationBonusAmount",
          "type": "uint256"
        },
        {
          "internalType": "uint256",
          "name": "_minLiquidatorReward",
          "type": "uint256"
        },
        {
          "internalType": "uint256",
          "name": "_maxLiquidatorReward",
          "type": "uint256"
        },
        {
          "internalType": "uint256",
          "name": "_totalBorrowCap",
          "type": "uint256"
        },
        {
          "internalType": "uint256",
          "name": "_collateralizationRate",
          "type": "uint256"
        },
        {
          "internalType": "uint256",
          "name": "_liquidationCollateralizationRate",
          "type": "uint256"
        }
      ],
      "name": "setMarketConfig",
      "outputs": [],
      "stateMutability": "nonpayable",
      "type": "function"
    },
    {
      "inputs": [
        {
          "internalType": "uint256",
          "name": "_min",
          "type": "uint256"
        },
        {
          "internalType": "uint256",
          "name": "_max",
          "type": "uint256"
        }
      ],
      "name": "setMinAndMaxMintFee",
      "outputs": [],
      "stateMutability": "nonpayable",
      "type": "function"
    },
    {
      "inputs": [
        {
          "internalType": "uint256",
          "name": "_min",
          "type": "uint256"
        },
        {
          "internalType": "uint256",
          "name": "_max",
          "type": "uint256"
        }
      ],
      "name": "setMinAndMaxMintRange",
      "outputs": [],
      "stateMutability": "nonpayable",
      "type": "function"
    },
    {
      "inputs": [],
      "name": "totalBorrow",
      "outputs": [
        {
          "internalType": "uint128",
          "name": "elastic",
          "type": "uint128"
        },
        {
          "internalType": "uint128",
          "name": "base",
          "type": "uint128"
        }
      ],
      "stateMutability": "view",
      "type": "function"
    },
    {
      "inputs": [],
      "name": "totalBorrowCap",
      "outputs": [
        {
          "internalType": "uint256",
          "name": "",
          "type": "uint256"
        }
      ],
      "stateMutability": "view",
      "type": "function"
    },
    {
      "inputs": [],
      "name": "totalCollateralShare",
      "outputs": [
        {
          "internalType": "uint256",
          "name": "",
          "type": "uint256"
        }
      ],
      "stateMutability": "view",
      "type": "function"
    },
    {
      "inputs": [],
      "name": "totalSupply",
      "outputs": [
        {
          "internalType": "uint256",
          "name": "",
          "type": "uint256"
        }
      ],
      "stateMutability": "view",
      "type": "function"
    },
    {
      "inputs": [
        {
          "internalType": "address",
          "name": "",
          "type": "address"
        },
        {
          "internalType": "uint256",
          "name": "",
          "type": "uint256"
        }
      ],
      "name": "transfer",
      "outputs": [
        {
          "internalType": "bool",
          "name": "",
          "type": "bool"
        }
      ],
      "stateMutability": "pure",
      "type": "function"
    },
    {
      "inputs": [
        {
          "internalType": "address",
          "name": "",
          "type": "address"
        },
        {
          "internalType": "address",
          "name": "",
          "type": "address"
        },
        {
          "internalType": "uint256",
          "name": "",
          "type": "uint256"
        }
      ],
      "name": "transferFrom",
      "outputs": [
        {
          "internalType": "bool",
          "name": "",
          "type": "bool"
        }
      ],
      "stateMutability": "pure",
      "type": "function"
    },
    {
      "inputs": [
        {
          "internalType": "address",
          "name": "newOwner",
          "type": "address"
        },
        {
          "internalType": "bool",
          "name": "direct",
          "type": "bool"
        },
        {
          "internalType": "bool",
          "name": "renounce",
          "type": "bool"
        }
      ],
      "name": "transferOwnership",
      "outputs": [],
      "stateMutability": "nonpayable",
      "type": "function"
    },
    {
      "inputs": [],
      "name": "updateExchangeRate",
      "outputs": [
        {
          "internalType": "bool",
          "name": "updated",
          "type": "bool"
        },
        {
          "internalType": "uint256",
          "name": "rate",
          "type": "uint256"
        }
      ],
      "stateMutability": "nonpayable",
      "type": "function"
    },
    {
      "inputs": [
        {
          "internalType": "enum Market.PauseType",
          "name": "_type",
          "type": "uint8"
        },
        {
          "internalType": "bool",
          "name": "val",
          "type": "bool"
        }
      ],
      "name": "updatePause",
      "outputs": [],
      "stateMutability": "nonpayable",
      "type": "function"
    },
    {
      "inputs": [
        {
          "internalType": "bool",
          "name": "val",
          "type": "bool"
        }
      ],
      "name": "updatePauseAll",
      "outputs": [],
      "stateMutability": "nonpayable",
      "type": "function"
    },
    {
      "inputs": [
        {
          "internalType": "address",
          "name": "",
          "type": "address"
        }
      ],
      "name": "userBorrowPart",
      "outputs": [
        {
          "internalType": "uint256",
          "name": "",
          "type": "uint256"
        }
      ],
      "stateMutability": "view",
      "type": "function"
    },
    {
      "inputs": [
        {
          "internalType": "address",
          "name": "",
          "type": "address"
        }
      ],
      "name": "userCollateralShare",
      "outputs": [
        {
          "internalType": "uint256",
          "name": "",
          "type": "uint256"
        }
      ],
      "stateMutability": "view",
      "type": "function"
    },
    {
      "inputs": [],
      "name": "yieldBox",
      "outputs": [
        {
          "internalType": "contract IYieldBox",
          "name": "",
          "type": "address"
        }
      ],
      "stateMutability": "view",
      "type": "function"
    },
    {
      "stateMutability": "payable",
      "type": "receive"
    }
  ],
  "bytecode": "0x61016060405262013880601b5562015f90601c55612710601d55612ee06020556000602c556103e8602d553480156200003757600080fd5b50604080518082018252600f81526e546170696f63612042696742616e6760881b602080830191909152825180840190935260018352603160f81b90830152908190620000868260006200017a565b61012052620000978160016200017a565b61014052815160208084019190912060e052815190820120610100524660a0526200012560e05161010051604080517f8b73c3c69bb8fe3d512ecc4cf759cc79239f7b179b0ffacaa9a75d522b39400f60208201529081019290925260608201524660808201523060a082015260009060c00160405160208183030381529060405280519060200120905090565b60805250503060c05250600680546001600160a01b031916339081179091556040516000907f8be0079c531659141344cd1fd0a4f28419497f9722a3daafe3b4186f6b6457e0908290a36001602455620003e8565b60006020835110156200019a576200019283620001b3565b9050620001ad565b81620001a78482620002a6565b5060ff90505b92915050565b600080829050601f81511115620001ea578260405163305a27a960e01b8152600401620001e1919062000372565b60405180910390fd5b8051620001f782620003c3565b179392505050565b634e487b7160e01b600052604160045260246000fd5b600181811c908216806200022a57607f821691505b6020821081036200024b57634e487b7160e01b600052602260045260246000fd5b50919050565b601f821115620002a1576000816000526020600020601f850160051c810160208610156200027c5750805b601f850160051c820191505b818110156200029d5782815560010162000288565b5050505b505050565b81516001600160401b03811115620002c257620002c2620001ff565b620002da81620002d3845462000215565b8462000251565b602080601f831160018114620003125760008415620002f95750858301515b600019600386901b1c1916600185901b1785556200029d565b600085815260208120601f198616915b82811015620003435788860151825594840194600190910190840162000322565b5085821015620003625787850151600019600388901b60f8161c191681555b5050505050600190811b01905550565b60006020808352835180602085015260005b81811015620003a25785810183015185820160400152820162000384565b506000604082860101526040601f19601f8301168501019250505092915050565b805160208083015191908110156200024b5760001960209190910360031b1b16919050565b60805160a05160c05160e051610100516101205161014051616038620004436000396000611f4e01526000611f240152600061364b015260006136230152600061357e015260006135a8015260006135d201526160386000f3fe6080604052600436106104fd5760003560e01c80637fa0b84e1161029b578063c9c7d8371161016f578063e30c3978116100d1578063eec0f42e11610095578063f791395d1161006f578063f791395d14610f97578063f88188cb14610fad578063f8ba4cff14610fcd57600080fd5b8063eec0f42e14610f41578063ef2b234a14610f57578063f5b33dfa14610f7757600080fd5b8063e30c397814610eab578063e6a44a9814610ecb578063e7d6de8014610eeb578063e9a4925214610f0b578063ea64dd5614610f2b57600080fd5b8063d505accf11610133578063dd62ed3e1161010d578063dd62ed3e14610e3d578063de40657714610e75578063e0996cb614610e9557600080fd5b8063d505accf14610ddd578063d8dfeb4514610dfd578063da863f0e14610e1d57600080fd5b8063c9c7d83714610d3d578063cce19f8114610d5d578063cd0211eb14610d7d578063ce8849ed14610d9d578063d4e4534e14610dbd57600080fd5b8063af1827c411610218578063b31f346d116101dc578063bde39c5d116101b6578063bde39c5d14610cf2578063c1ad5c8d14610d08578063c861a52614610d1d57600080fd5b8063b31f346d14610ca2578063b7113f1914610cc2578063bb4cfe3b14610cdc57600080fd5b8063af1827c414610bea578063af405b4c14610c0a578063b0e21e8a14610c1f578063b25ea8fb14610c35578063b27c0e7414610c5557600080fd5b8063932bc4f81161025f578063932bc4f814610b3157806399a9702814610b465780639e15e89f14610b66578063a9059cbb14610ba1578063aa7d966514610bbc57600080fd5b80637fa0b84e14610a685780638285ef4014610a8857806384b0196e14610ad35780638c5d0ed314610afb5780638da5cb5b14610b1157600080fd5b80633f741adb116103d2578063579354621161034f5780637277854711610313578063790c8467116102ed578063790c8467146109fc5780637dc0d1d014610a125780637ecebe0014610a3257600080fd5b8063727785471461099457806374645ff3146109c457806374c9e481146109e657600080fd5b806357935462146108fb5780635d5f73ef146109115780636b19ad16146109315780636c3d8b8f1461094757806370a082311461096757600080fd5b80634ddf47d4116103965780634ddf47d4146108655780634e71e0c8146108855780635224372c1461089a578063529898f2146108cf578063542afda3146108e557600080fd5b80633f741adb146107d657806340626d8b146107f657806344de240a1461080c578063473e3ce71461082257806348e4163e1461083857600080fd5b80631da8bf101161047b57806334ce998a1161043f57806337b6b7b91161041957806337b6b7b91461078a57806338d52e0f146107a05780633ba0b9a9146107c057600080fd5b806334ce998a146107375780633644e51514610755578063364b78ca1461076a57600080fd5b80631da8bf10146106a157806323b872dd146106c157806325384fd8146106e157806327c811a814610701578063331960ff1461072157600080fd5b80630c4e84f0116104c25780630c4e84f0146105f25780630f8b29ea1461061257806318160ddd146106285780631c9e379b1461063c5780631d4d3a5d1461066957600080fd5b8062a02a201461050957806302ce728f14610554578063078dfbe714610580578063095ea7b3146105a257806309d04038146105d257600080fd5b3661050457005b600080fd5b34801561051557600080fd5b50610541610524366004614ac4565b600460209081526000928352604080842090915290825290205481565b6040519081526020015b60405180910390f35b34801561056057600080fd5b50610569610fe2565b60408051921515835260208301919091520161054b565b34801561058c57600080fd5b506105a061059b366004614b0b565b611159565b005b3480156105ae57600080fd5b506105c26105bd366004614b56565b61128e565b604051901515815260200161054b565b3480156105de57600080fd5b506105a06105ed366004614b82565b6112a5565b3480156105fe57600080fd5b506105a061060d366004614bb3565b61161d565b34801561061e57600080fd5b50610541602e5481565b34801561063457600080fd5b506000610541565b34801561064857600080fd5b50610541610657366004614bdf565b60196020526000908152604090205481565b34801561067557600080fd5b50602a54610689906001600160a01b031681565b6040516001600160a01b03909116815260200161054b565b3480156106ad57600080fd5b506105a06106bc366004614bfc565b6117af565b3480156106cd57600080fd5b506105c26106dc366004614c73565b6117c9565b3480156106ed57600080fd5b50603154610689906001600160a01b031681565b34801561070d57600080fd5b506105a061071c366004614cb4565b611814565b34801561072d57600080fd5b5061054160145481565b34801561074357600080fd5b506015546001600160801b0316610541565b34801561076157600080fd5b50610541611a78565b34801561077657600080fd5b506105a0610785366004614d32565b611a87565b34801561079657600080fd5b5061054160135481565b3480156107ac57600080fd5b50600e54610689906001600160a01b031681565b3480156107cc57600080fd5b5061054160125481565b3480156107e257600080fd5b506105416107f1366004614e23565b611b13565b34801561080257600080fd5b5061054160175481565b34801561081857600080fd5b50610541600f5481565b34801561082e57600080fd5b5061054160165481565b34801561084457600080fd5b50610541610853366004614bdf565b60186020526000908152604090205481565b34801561087157600080fd5b506105a0610880366004614e91565b611b61565b34801561089157600080fd5b506105a0611d5a565b3480156108a657600080fd5b506108ba6108b5366004614c73565b611e18565b6040805192835260208301919091520161054b565b3480156108db57600080fd5b5061054160205481565b3480156108f157600080fd5b50610541602c5481565b34801561090757600080fd5b50610541601c5481565b34801561091d57600080fd5b50603054610689906001600160a01b031681565b34801561093d57600080fd5b5061054160275481565b34801561095357600080fd5b50600b54610689906001600160a01b031681565b34801561097357600080fd5b50610541610982366004614bdf565b60026020526000908152604090205481565b3480156109a057600080fd5b506105c26109af366004614ed3565b60086020526000908152604090205460ff1681565b3480156109d057600080fd5b506109d9611e7b565b60405161054b9190614f3e565b3480156109f257600080fd5b50610541602d5481565b348015610a0857600080fd5b50610541602f5481565b348015610a1e57600080fd5b50601054610689906001600160a01b031681565b348015610a3e57600080fd5b50610541610a4d366004614bdf565b6001600160a01b031660009081526005602052604090205490565b348015610a7457600080fd5b506105c2610a83366004614b56565b611f09565b348015610a9457600080fd5b50601554610ab3906001600160801b0380821691600160801b90041682565b604080516001600160801b0393841681529290911660208301520161054b565b348015610adf57600080fd5b50610ae8611f16565b60405161054b9796959493929190614f51565b348015610b0757600080fd5b50610541601b5481565b348015610b1d57600080fd5b50600654610689906001600160a01b031681565b348015610b3d57600080fd5b506109d9611f9e565b348015610b5257600080fd5b50610541610b61366004614b56565b611fab565b348015610b7257600080fd5b50610b86610b81366004614b56565b611fbe565b6040805193845260208401929092529082015260600161054b565b348015610bad57600080fd5b506105c26106dc366004614b56565b348015610bc857600080fd5b50610bdc610bd7366004614fea565b612089565b60405161054b929190615036565b348015610bf657600080fd5b506105a0610c053660046150d0565b612246565b348015610c1657600080fd5b506105416122d9565b348015610c2b57600080fd5b50610541601a5481565b348015610c4157600080fd5b506105a0610c503660046150f2565b6124c9565b348015610c6157600080fd5b50602554610c819067ffffffffffffffff80821691600160401b90041682565b6040805167ffffffffffffffff93841681529290911660208301520161054b565b348015610cae57600080fd5b506105a0610cbd366004615117565b612585565b348015610cce57600080fd5b506026546105c29060ff1681565b348015610ce857600080fd5b50610541601e5481565b348015610cfe57600080fd5b5061054160295481565b348015610d1457600080fd5b506105416125b9565b348015610d2957600080fd5b50603254610689906001600160a01b031681565b348015610d4957600080fd5b506105a0610d583660046151b9565b6127ef565b348015610d6957600080fd5b506105a0610d78366004614c73565b6128de565b348015610d8957600080fd5b50610541610d9836600461520e565b612917565b348015610da957600080fd5b50600954610689906001600160a01b031681565b348015610dc957600080fd5b50610541610dd836600461525f565b61297d565b348015610de957600080fd5b506105a0610df8366004614bfc565b6129c7565b348015610e0957600080fd5b50600c54610689906001600160a01b031681565b348015610e2957600080fd5b50602154610689906001600160a01b031681565b348015610e4957600080fd5b50610541610e58366004614ac4565b600360209081526000928352604080842090915290825290205481565b348015610e8157600080fd5b50600a54610689906001600160a01b031681565b348015610ea157600080fd5b50610541601d5481565b348015610eb757600080fd5b50600754610689906001600160a01b031681565b348015610ed757600080fd5b506105a0610ee63660046152c9565b6129d8565b348015610ef757600080fd5b50610541610f06366004615371565b612ff4565b348015610f1757600080fd5b506105a0610f263660046153cd565b61301b565b348015610f3757600080fd5b50610541601f5481565b348015610f4d57600080fd5b50610541600d5481565b348015610f6357600080fd5b506105a0610f72366004614bdf565b61306b565b348015610f8357600080fd5b50603354610689906001600160a01b031681565b348015610fa357600080fd5b5061054160285481565b348015610fb957600080fd5b506105a0610fc83660046150d0565b61310f565b348015610fd957600080fd5b506105a06131a2565b60105460405163d6d7d52560e01b815260009182916001600160a01b039091169063d6d7d5259061101890601190600401615462565b60408051808303816000875af1158015611036573d6000803e3d6000fd5b505050506040513d601f19601f8201168201806040525081019061105a91906154f2565b909250905081156110f257806000036110ba5760405162461bcd60e51b815260206004820152601460248201527f4d61726b65743a20696e76616c6964207261746500000000000000000000000060448201526064015b60405180910390fd5b60128190554260145560405181907f9f9192b5edb17356c524e08d9e025c8e2f6307e6ea52fb7968faa3081f51c3c890600090a29091565b426013546014546111039190615536565b10156111515760405162461bcd60e51b815260206004820152601460248201527f4d61726b65743a207261746520746f6f206f6c6400000000000000000000000060448201526064016110b1565b506012549091565b6006546001600160a01b031633146111a15760405162461bcd60e51b81526020600482018190526024820152600080516020615fc383398151915260448201526064016110b1565b811561126d576001600160a01b0383161515806111bb5750805b6112075760405162461bcd60e51b815260206004820152601560248201527f4f776e61626c653a207a65726f2061646472657373000000000000000000000060448201526064016110b1565b6006546040516001600160a01b038086169216907f8be0079c531659141344cd1fd0a4f28419497f9722a3daafe3b4186f6b6457e090600090a3600680546001600160a01b0385166001600160a01b031991821617909155600780549091169055505050565b600780546001600160a01b0319166001600160a01b0385161790555b505050565b600061129b3384846131ac565b5060015b92915050565b6009546001600160a01b031633146112f65760405162461bcd60e51b815260206004820152601460248201527313585c9ad95d0e881d5b985d5d1a1bdc9a5e995960621b60448201526064016110b1565b60086020527f5eff886ea0ce6ca488a3d6e336d6c0f75f46d19b42c06ce5ee98e42c96d256c7805482151560ff1991821681179092557fad67d757c34507f157cacfa2e3153e9f260a2244f30428821be7be64587ac55f80548216831790557f6add646517a5b0f6793cd5891b7937d28a5b2981a5d88ebc7cd776088fea904180548216831790557f625b35f5e76f098dd7c3a05b10e2e5e78a4a01228d60c3b143426cdf36d2645580548216831790557f9321edea6e3be4df59a344b401fab4f888b556fda1f954244cff9204bad624b880548216831790557f91238f30f286c9a1c6e901c4eda3b214c381c846e3dbe48df95c21488e8e1fdb80548216831790557f13acf3fc7bed94759963f076d5d3443d88732026bffc8253bdf4a6e65f21ecc5805490911682179055600080805260405160ff831615159190600080516020615fe3833981519152908290a46001600081815260086020527fad67d757c34507f157cacfa2e3153e9f260a2244f30428821be7be64587ac55f546040518415159360ff909216151592600080516020615fe383398151915291a46002600081815260086020527f6add646517a5b0f6793cd5891b7937d28a5b2981a5d88ebc7cd776088fea9041546040518415159360ff909216151592600080516020615fe383398151915291a46003600081815260086020527f625b35f5e76f098dd7c3a05b10e2e5e78a4a01228d60c3b143426cdf36d26455546040518415159360ff909216151592600080516020615fe383398151915291a46004600081815260086020527f9321edea6e3be4df59a344b401fab4f888b556fda1f954244cff9204bad624b8546040518415159360ff909216151592600080516020615fe383398151915291a46005600081815260086020527f91238f30f286c9a1c6e901c4eda3b214c381c846e3dbe48df95c21488e8e1fdb546040518415159360ff909216151592600080516020615fe383398151915291a46006600081815260086020527f13acf3fc7bed94759963f076d5d3443d88732026bffc8253bdf4a6e65f21ecc5546040518415159360ff909216151592600080516020615fe383398151915291a450565b6009546001600160a01b0316331461166e5760405162461bcd60e51b815260206004820152601460248201527313585c9ad95d0e881d5b985d5d1a1bdc9a5e995960621b60448201526064016110b1565b6008600083600881111561168457611684615549565b600881111561169557611695615549565b815260208101919091526040016000205460ff161515811515036116fb5760405162461bcd60e51b815260206004820152601260248201527f4d61726b65743a2073616d65207374617465000000000000000000000000000060448201526064016110b1565b8015156008600084600881111561171457611714615549565b600881111561172557611725615549565b815260208101919091526040016000205460ff16151583600881111561174d5761174d615549565b604051600080516020615fe383398151915290600090a4806008600084600881111561177b5761177b615549565b600881111561178c5761178c615549565b81526020810191909152604001600020805460ff19169115159190911790555050565b6117c060008888888888888861320d565b50505050505050565b60405162461bcd60e51b815260206004820152600f60248201527f42423a206e6f7420616c6c6f776564000000000000000000000000000000000060448201526000906064016110b1565b6006546001600160a01b0316331461185c5760405162461bcd60e51b81526020600482018190526024820152600080516020615fc383398151915260448201526064016110b1565b600b60009054906101000a90046001600160a01b03166001600160a01b031663c99fb76e6040518163ffffffff1660e01b8152600401602060405180830381865afa1580156118af573d6000803e3d6000fd5b505050506040513d601f19601f820116820180604052508101906118d3919061555f565b600d546026805460ff191692909114918217905560ff16611a72576118f66133a7565b831561195357602754841061191e5760405163defda01760e01b815260040160405180910390fd5b6028546040518591907fa54af2279046b0207f426565497319c4e274479ce71cb53598ec2391459be3f390600090a360288490555b82156119d957602854831161197b5760405163defda01760e01b815260040160405180910390fd5b670de0b6b3a76400008311156119a45760405163defda01760e01b815260040160405180910390fd5b6027546040518491907f5391ae26cacff12a54d10d45f0f04678de8bb9c9b2f784eb7074dac7cc0f8fd990600090a360278390555b8115611a14576029546040518391907fd00c912c9d1f75ac893827b7bb73eb82874daea46c2eaa6d2bd89f0c8ee5736690600090a360298290555b8015611a7257620186a08110611a3d5760405163f1640ae160e01b815260040160405180910390fd5b6020546040518291907f1f1d0e9e5e3fd195010504141e7472fc7f53e44d7cd3f236f0892778039c632690600090a360208190555b50505050565b6000611a82613571565b905090565b611b06600363364b78ca60e01b8c8c8c8c8c8c8c8c8c8c604051602401611ab79a999897969594939291906156cc565b60408051601f198184030181529190526020810180516001600160e01b03167fffffffff000000000000000000000000000000000000000000000000000000009093169290921790915261369c565b5050505050505050505050565b601f5460208054604080518082019091526015546001600160801b038082168352600160801b9091041692810192909252600092611b599287928792879290919061371a565b949350505050565b60235460ff1615611bb45760405162461bcd60e51b815260206004820152601360248201527f4d61726b65743a20696e697469616c697a65640000000000000000000000000060448201526064016110b1565b6040805161010081018252600080825260208201819052918101829052606081018290526080810182905260a0810182905260c0810182905260e0810191909152604080516080810182526000808252602082018190529181018290526060810191909152611c3d60405180606001604052806000815260200160008152602001600081525090565b60008080611c4d87890189615839565b92509250925082806020019051810190611c6791906158c1565b945081806020019051810190611c7d9190615946565b935080806020019051810190611c9391906159ad565b9550505050611cff8260000151836020015184604001518560600151603080546001600160a01b039586166001600160a01b0319918216179091556032805493861693821693909317909255603180549385169383169390931790925560338054929093169116179055565b611d2f836000015184602001518560400151866060015187608001518860a001518960c001518a60e0015161385a565b611d46816000015182602001518360400151613bd8565b50506023805460ff19166001179055505050565b6007546001600160a01b0316338114611db55760405162461bcd60e51b815260206004820181905260248201527f4f776e61626c653a2063616c6c657220213d2070656e64696e67206f776e657260448201526064016110b1565b6006546040516001600160a01b038084169216907f8be0079c531659141344cd1fd0a4f28419497f9722a3daafe3b4186f6b6457e090600090a3600680546001600160a01b039092166001600160a01b0319928316179055600780549091169055565b6040516001600160a01b038085166024830152831660448201526064810182905260009081908190611e58906001906314890dcb60e21b90608401611ab7565b905080806020019051810190611e6e9190615a5b565b9097909650945050505050565b60118054611e8890615428565b80601f0160208091040260200160405190810160405280929190818152602001828054611eb490615428565b8015611f015780601f10611ed657610100808354040283529160200191611f01565b820191906000526020600020905b815481529060010190602001808311611ee457829003601f168201915b505050505081565b600061129b338484613cdb565b600060608082808083611f497f000000000000000000000000000000000000000000000000000000000000000083613d34565b611f747f00000000000000000000000000000000000000000000000000000000000000006001613d34565b60408051600080825260208201909252600f60f81b9b939a50919850469750309650945092509050565b602b8054611e8890615428565b6000611fb78383613ddf565b9392505050565b6001600160a01b03821660009081526018602052604081205481908190808203611ff357600080600093509350935050612082565b6000611ffd613f2a565b9050600061200b8888614060565b905081602001516001600160801b031682600001516001600160801b0316846120349190615a7f565b61203e9190615aac565b92508083101561204f576000612053565b8083035b6001600160a01b0389166000908152601960205260409020549096506120799088614174565b90955093505050505b9250925092565b60608061209461428a565b8367ffffffffffffffff8111156120ad576120ad615774565b6040519080825280602002602001820160405280156120d6578160200160208202803683370190505b5091508367ffffffffffffffff8111156120f2576120f2615774565b60405190808252806020026020018201604052801561212557816020015b60608152602001906001900390816121105790505b50905060005b84811015612233576000803088888581811061214957612149615ac0565b905060200281019061215b9190615ad6565b604051612169929190615b1d565b600060405180830381855af49150503d80600081146121a4576040519150601f19603f3d011682016040523d82523d6000602084013e6121a9565b606091505b5091509150811580156121b95750855b156121e0576121c7816142e3565b60405162461bcd60e51b81526004016110b19190614f3e565b818584815181106121f3576121f3615ac0565b9115156020928302919091019091015261220c816142e3565b84848151811061221e5761221e615ac0565b6020908102919091010152505060010161212b565b5061223e6001602455565b935093915050565b6006546001600160a01b0316331461228e5760405162461bcd60e51b81526020600482018190526024820152600080516020615fc383398151915260448201526064016110b1565b602e5482602f547f9ba515d5ad02a934b077fb0eba07a4ec79463a8dc735c8b4ad44a434abc8607a846040516122c691815260200190565b60405180910390a4602f91909155602e55565b6006546000906001600160a01b031633146123245760405162461bcd60e51b81526020600482018190526024820152600080516020615fc383398151915260448201526064016110b1565b600e546040516370a0823160e01b81523060048201526000916001600160a01b0316906370a0823190602401602060405180830381865afa15801561236d573d6000803e3d6000fd5b505050506040513d601f19601f82011682018060405250810190612391919061555f565b600a54600f54604051638eb22cdd60e01b8152600481019190915260248101839052600060448201529192506001600160a01b031690638eb22cdd90606401602060405180830381865afa1580156123ed573d6000803e3d6000fd5b505050506040513d601f19601f82011682018060405250810190612411919061555f565b915081156124c557600a54600e54612436916001600160a01b03918216911683614386565b600a54600f54604051634d4d7cbd60e11b8152600481019190915230602482015233604482015260006064820152608481018490526001600160a01b0390911690639a9af97a9060a40160408051808303816000875af115801561249e573d6000803e3d6000fd5b505050506040513d601f19601f820116820180604052508101906124c29190615a5b565b50505b5090565b6006546001600160a01b031633146125115760405162461bcd60e51b81526020600482018190526024820152600080516020615fc383398151915260448201526064016110b1565b6000816001600160a01b03168360405160006040518083038185875af1925050503d806000811461255e576040519150601f19603f3d011682016040523d82523d6000602084013e612563565b606091505b5050905080611289576040516312171d8360e31b815260040160405180910390fd5b6125af600363b31f346d60e01b89898989898989604051602401611ab79796959493929190615b2d565b5050505050505050565b60265460009060ff161561263e57600b60009054906101000a90046001600160a01b03166001600160a01b031663e6abad496040518163ffffffff1660e01b8152600401602060405180830381865afa15801561261a573d6000803e3d6000fd5b505050506040513d601f19601f82011682018060405250810190611a82919061555f565b6015546001600160801b0316600003612658575060285490565b600b5460408051631848f2bf60e31b815290516000926001600160a01b03169163c24795f89160048083019260209291908290030181865afa1580156126a2573d6000803e3d6000fd5b505050506040513d601f19601f820116820180604052508101906126c69190615b80565b6001600160a01b03166334ce998a6040518163ffffffff1660e01b8152600401602060405180830381865afa158015612703573d6000803e3d6000fd5b505050506040513d601f19601f82011682018060405250810190612727919061555f565b6015546029549192506001600160801b031690600090670de0b6b3a7640000906127519085615a7f565b61275b9190615aac565b905080821061276f57602754935050505090565b600081612784670de0b6b3a764000085615a7f565b61278e9190615aac565b90506000602854670de0b6b3a7640000836028546027546127af9190615b9d565b6127b99190615a7f565b6127c39190615aac565b6127cd9190615536565b90506027548111156127e6576027549550505050505090565b95945050505050565b6006546001600160a01b031633146128375760405162461bcd60e51b81526020600482018190526024820152600080516020615fc383398151915260448201526064016110b1565b6001600160a01b0383161561289c57602a546040516001600160a01b038086169216907f126a75207b8b11156ec1f4a0ad246f458582451fc5bee4b8a729a1a68886e13290600090a3602a80546001600160a01b0319166001600160a01b0385161790555b801561128957602b6128af828483615bf8565b506040517f01ac0e23e087c4b2e9f1a163db44f946de9dd51461fe7a401c523fc8d5db1c2990600090a1505050565b6040516001600160a01b0380851660248301528316604482015260648101829052611a729060029063cce19f8160e01b90608401611ab7565b6040516001600160a01b03808616602483015284166044820152821515606482015260848101829052600090819061295d9060019063cd0211eb60e01b9060a401611ab7565b905080806020019051810190612973919061555f565b9695505050505050565b6000806129a6600463d4e4534e60e01b8989898989604051602401611ab7959493929190615cb8565b9050808060200190518101906129bc919061555f565b979650505050505050565b6117c060018888888888888861320d565b6006546001600160a01b03163314612a205760405162461bcd60e51b81526020600482018190526024820152600080516020615fc383398151915260448201526064016110b1565b6001600160a01b038b1615612a8157601080546001600160a01b0319166001600160a01b038d169081179091556040519081527f3df77beb5db05fcdd70a30fc8adf3f83f9501b68579455adbd100b81809403949060200160405180910390a15b8815612abf576011612a948a8c83615bf8565b506040517fa6f004921c944d4b8bf6e38462b00f36a58d62495d56b51f571ab78f732c981590600090a15b6001600160a01b03881615612b24576009546040516001600160a01b03808b169216907f5a62d22209e370e38eea92cfddcd228e656e6ec139243392a760a7769f5877fd90600090a3600980546001600160a01b0319166001600160a01b038a161790555b8615612b9357620186a0871115612b715760405162461bcd60e51b815260206004820152601160248201527013585c9ad95d0e881b9bdd081d985b1a59607a1b60448201526064016110b1565b601a8790556040518790600290600080516020615fa383398151915290600090a35b8515612c0157620186a08610612bdf5760405162461bcd60e51b815260206004820152601160248201527013585c9ad95d0e881b9bdd081d985b1a59607a1b60448201526064016110b1565b601d8690556040518690600390600080516020615fa383398151915290600090a35b8415612cb457620186a08510612c4d5760405162461bcd60e51b815260206004820152601160248201527013585c9ad95d0e881b9bdd081d985b1a59607a1b60448201526064016110b1565b601c548510612c925760405162461bcd60e51b815260206004820152601160248201527013585c9ad95d0e881b9bdd081d985b1a59607a1b60448201526064016110b1565b601b8590556040518590600490600080516020615fa383398151915290600090a35b8315612d6757620186a08410612d005760405162461bcd60e51b815260206004820152601160248201527013585c9ad95d0e881b9bdd081d985b1a59607a1b60448201526064016110b1565b601b548411612d455760405162461bcd60e51b815260206004820152601160248201527013585c9ad95d0e881b9bdd081d985b1a59607a1b60448201526064016110b1565b601c8490556040518490600590600080516020615fa383398151915290600090a35b8215612dbe576017546040518491907fae6e0ab3b95f0a53ff9660a390ccedcbbf1f2355dce974a9841af106fddcfaba90600090a360178390556040518390600690600080516020615fa383398151915290600090a35b8115612f0157620186a0821115612e0b5760405162461bcd60e51b815260206004820152601160248201527013585c9ad95d0e881b9bdd081d985b1a59607a1b60448201526064016110b1565b601f54821115612e6b5760405162461bcd60e51b815260206004820152602560248201527f4d61726b65743a20636f6c6c61746572616c697a6174696f6e5261746520746f6044820152646f2062696760d81b60648201526084016110b1565b612e78620186a080615a7f565b602054612e8890620186a0615536565b612e929084615a7f565b10612edf5760405162461bcd60e51b815260206004820152601a60248201527f4d61726b65743a204352202a202831202b204c4d29203e3d203100000000000060448201526064016110b1565b601e8290556040518290600790600080516020615fa383398151915290600090a35b8015611b0657601e54811015612f7f5760405162461bcd60e51b815260206004820152603260248201527f4d61726b65743a206c69717569646174696f6e436f6c6c61746572616c697a6160448201527f74696f6e5261746520746f6f20736d616c6c000000000000000000000000000060648201526084016110b1565b620186a0811115612fc65760405162461bcd60e51b815260206004820152601160248201527013585c9ad95d0e881b9bdd081d985b1a59607a1b60448201526064016110b1565b601f8190556040518190600890600080516020615fa383398151915290600090a35050505050505050505050565b60008061295d600463e7d6de8060e01b88888888604051602401611ab79493929190615ce7565b6040516001600160a01b0380871660248301528516604482015283151560648201526084810183905260a48101829052613063906002906374d2492960e11b9060c401611ab7565b505050505050565b6006546001600160a01b031633146130b35760405162461bcd60e51b81526020600482018190526024820152600080516020615fc383398151915260448201526064016110b1565b6021546040516001600160a01b038084169216907ffb4fd7114609dd603b57adbc2082205bfbbcabf9265c4b437b472f5c592b8cd790600090a3602180546001600160a01b0319166001600160a01b0392909216919091179055565b6006546001600160a01b031633146131575760405162461bcd60e51b81526020600482018190526024820152600080516020615fc383398151915260448201526064016110b1565b602d5482602c547f1eafaac7ca8c5e231c2378dbf01de74321ec7c0c9b113ecc54b2cbd513ec6b5e8460405161318f91815260200190565b60405180910390a4602c91909155602d55565b6131aa6133a7565b565b6001600160a01b0383811660008181526003602090815260408083209487168084529482529182902085905590518481527f8c5be1e5ebec7d5bd14f71427d1e84f3dd0314c0f7b2291e5b200ac8c7c3b925910160405180910390a3505050565b8342111561325d5760405162461bcd60e51b815260206004820152601d60248201527f45524332305065726d69743a206578706972656420646561646c696e6500000060448201526064016110b1565b60008861328a577fe9685ff6d48c617fe4f692c50e602cce27cbad0290beb93cfa77eac43968d58c6132ac565b7f6e71edae12b1b97f4d1f60370fef10105fa2faae0126114a169c64845d6126c95b8888886132b88c61460f565b6040805160208101969096526001600160a01b0394851690860152929091166060840152608083015260a082015260c0810186905260e00160405160208183030381529060405280519060200120905060006133138261463e565b905060006133238287878761466b565b9050896001600160a01b0316816001600160a01b0316146133865760405162461bcd60e51b815260206004820152601e60248201527f45524332305065726d69743a20696e76616c6964207369676e6174757265000060448201526064016110b1565b8a1561339c576133978a8a8a6131ac565b611b06565b611b068a8a8a613cdb565b6040805180820190915260255467ffffffffffffffff8082168352600160401b90910416602082018190526000906133df9042615b9d565b9050806000036133ed575050565b60006133f76125b9565b905061340f61340a6301e1338083615aac565b614693565b67ffffffffffffffff16835261342442614693565b67ffffffffffffffff908116602080860191909152604080518082019091526015546001600160801b03808216808452600160801b909204169282019290925285519092600092670de0b6b3a764000092879261348392911690615a7f565b61348d9190615a7f565b6134979190615aac565b6017549091506000906134b1906001600160801b03615b9d565b9050808211156134bf578091505b6134c8826146fc565b835184906134d7908390615d10565b6001600160801b0390811690915284516020808701518316600160801b029190921617601555875160258054928a015167ffffffffffffffff908116600160401b026fffffffffffffffffffffffffffffffff199490941692169182179290921790915560405190915083907f7484db546dcd57af0104c73c8a6968dfbaf5767f047cee0dadd0499ad7df81a090600090a3505050505050565b6000306001600160a01b037f0000000000000000000000000000000000000000000000000000000000000000161480156135ca57507f000000000000000000000000000000000000000000000000000000000000000046145b156135f457507f000000000000000000000000000000000000000000000000000000000000000090565b611a82604080517f8b73c3c69bb8fe3d512ecc4cf759cc79239f7b179b0ffacaa9a75d522b39400f60208201527f0000000000000000000000000000000000000000000000000000000000000000918101919091527f000000000000000000000000000000000000000000000000000000000000000060608201524660808201523060a082015260009060c00160405160208183030381529060405280519060200120905090565b606060016136a984614765565b6001600160a01b0316836040516136c09190615d30565b600060405180830381855af49150503d80600081146136fb576040519150601f19603f3d011682016040523d82523d6000602084013e613700565b606091505b509250905080613713576121c7826142e3565b5092915050565b600081602001516001600160801b031682600001516001600160801b0316886137439190615a7f565b61374d9190615aac565b9650600061375c86600a615e30565b6137668689615a7f565b6137709190615aac565b905080881015613784576000915050612973565b6000613790828a615b9d565b9050600061379f88600a615e30565b866137ab8a600a615e30565b6137b59190615536565b601e546137c29190615a7f565b6137cc9190615aac565b905060006509184e72a000826137e38b600a615e30565b6137ed9190615e3c565b6137f79190615e5c565b905060008161380e670de0b6b3a764000086615e5c565b6138189190615e8c565b905060008082126138295781613832565b61383282615eba565b90508c81111561384a578c9650505050505050612973565b9c9b505050505050505050505050565b600b80546001600160a01b0319166001600160a01b038a169081179091556040805163de40657760e01b8152905163de406577916004808201926020929091908290030181865afa1580156138b3573d6000803e3d6000fd5b505050506040513d601f19601f820116820180604052508101906138d79190615b80565b600a80546001600160a01b039283166001600160a01b031991821617909155600b54600680549092169216918217905560408051631192124760e11b8152905160009291632324248e9160048281019260209291908290030181865afa158015613945573d6000803e3d6000fd5b505050506040513d601f19601f820116820180604052508101906139699190615b80565b90506001600160a01b038816613992576040516316d2b9ed60e11b815260040160405180910390fd5b6001600160a01b0381166139b9576040516316d2b9ed60e11b815260040160405180910390fd5b6001600160a01b0386166139e0576040516316d2b9ed60e11b815260040160405180910390fd5b620186a0841115613a045760405163f1640ae160e01b815260040160405180910390fd5b620186a0831115613a285760405163f1640ae160e01b815260040160405180910390fd5b600e80546001600160a01b0319166001600160a01b0383811691909117909155600b54604080516386c8e21d60e01b8152905191909216916386c8e21d9160048083019260209291908290030181865afa158015613a8a573d6000803e3d6000fd5b505050506040513d601f19601f82011682018060405250810190613aae919061555f565b600f55600c80546001600160a01b03808b166001600160a01b031992831617909255600d8990556010805492891692909116919091179055613aee610fe2565b5050612710601a5583613b0457620124f8613b06565b835b601e5582613b175762013880613b19565b825b601f819055601e541115613b405760405163f1640ae160e01b815260040160405180910390fd5b60008511613b5657670de0b6b3a7640000613b58565b845b6022555062013880601b5562015f90601c55612710601d55612ee0602055620151806013556000602c556103e8602d55670d87e55590018000602e55670de0b6b3a7640000602f55602180546001600160a01b03199081166001600160a01b03938416179091556006546009805491909316911617905550505050505050565b600b60009054906101000a90046001600160a01b03166001600160a01b031663c99fb76e6040518163ffffffff1660e01b8152600401602060405180830381865afa158015613c2b573d6000803e3d6000fd5b505050506040513d601f19601f82011682018060405250810190613c4f919061555f565b600d546026805460ff191692909114918217905560ff166112895760285415801590613c7c575060275415155b15613cca57808210613ca15760405163defda01760e01b815260040160405180910390fd5b670de0b6b3a7640000811115613cca57604051637871af0d60e01b815260040160405180910390fd5b602992909255602791909155602855565b6001600160a01b0380841660008181526004602090815260408083209487168084529490915280822085905551849392917fe50de2333c10a9502fcb1d8ae13a51bbf423153dfc63c2b8997665b32154afc391a4505050565b606060ff8314613d4e57613d4783614837565b905061129f565b818054613d5a90615428565b80601f0160208091040260200160405190810160405280929190818152602001828054613d8690615428565b8015613dd35780601f10613da857610100808354040283529160200191613dd3565b820191906000526020600020905b815481529060010190602001808311613db657829003601f168201915b5050505050905061129f565b6001600160a01b03821660009081526019602052604081205481908190613e069085614174565b6001600160a01b038716600090815260186020526040812054929450909250819003613e38576000935050505061129f565b82600003613e4c576000935050505061129f565b6015546001600160801b03600160801b8204811691613e6c911683615a7f565b613e769190615aac565b905082811015613e8c576000935050505061129f565b818110613ea057601b54935050505061129f565b6000613eac8484615b9d565b620186a0613eba8685615b9d565b613ec49190615a7f565b613ece9190615aac565b90506000601c54601b54613ee29190615e3c565b90506000601c54620186a08484613ef99190615e5c565b613f039190615e8c565b613f0d9190615ed6565b9050601b54811215613f1e5750601b545b98975050505050505050565b6040805180820190915260008082526020820152602554600090613f5f90600160401b900467ffffffffffffffff1642615b9d565b905080600003613f96575050604080518082019091526015546001600160801b038082168352600160801b90910416602082015290565b604080518082019091526015546001600160801b038082168352600160801b90910416602082015291506000670de0b6b3a7640000826301e13380613fd96125b9565b613fe39190615aac565b8551613ff891906001600160801b0316615a7f565b6140029190615a7f565b61400c9190615aac565b601754909150600090614026906001600160801b03615b9d565b905080821115614034578091505b61403d826146fc565b8451859061404c908390615d10565b6001600160801b0316905250929392505050565b60008082116140b15760405162461bcd60e51b815260206004820152601e60248201527f4d61726b65743a2065786368616e676552617465206e6f742076616c6964000060448201526064016110b1565b600a54600d546001600160a01b0385811660009081526019602052604080822054905163442c159960e01b8152600481019490945260248401526044830181905292169063442c159990606401602060405180830381865afa15801561411b573d6000803e3d6000fd5b505050506040513d601f19601f8201168201806040525081019061413f919061555f565b905082601e54620186a06022546141569190615aac565b6141609084615a7f565b61416a9190615a7f565b611b599190615aac565b600080600083116141c75760405162461bcd60e51b815260206004820152601e60248201527f4d61726b65743a2065786368616e676552617465206e6f742076616c6964000060448201526064016110b1565b600a54600d5460405163442c159960e01b8152600481019190915260248101869052600060448201819052916001600160a01b03169063442c159990606401602060405180830381865afa158015614223573d6000803e3d6000fd5b505050506040513d601f19601f82011682018060405250810190614247919061555f565b905083602254826142589190615a7f565b6142629190615aac565b9150620186a0601e54836142769190615a7f565b6142809190615aac565b9250509250929050565b6002602454036142dc5760405162461bcd60e51b815260206004820152601f60248201527f5265656e7472616e637947756172643a207265656e7472616e742063616c6c0060448201526064016110b1565b6002602455565b60606103e88251111561432957505060408051808201909152601781527f4d61726b65743a20726561736f6e20746f6f206c6f6e67000000000000000000602082015290565b60448251101561436c57505060408051808201909152601681527f4d61726b65743a206e6f2072657475726e206461746100000000000000000000602082015290565b6004820191508180602001905181019061129f9190615efe565b6000836001600160a01b03163b116143e05760405162461bcd60e51b815260206004820152601860248201527f53616665417070726f76653a206e6f20636f6e7472616374000000000000000060448201526064016110b1565b6040516001600160a01b0383811660248301526000604483018190529160609186169060640160408051601f198184030181529181526020820180516001600160e01b031663095ea7b360e01b1790525161443b9190615d30565b6000604051808303816000865af19150503d8060008114614478576040519150601f19603f3d011682016040523d82523d6000602084013e61447d565b606091505b5090925090508180156144a85750805115806144a85750808060200190518101906144a89190615f6c565b6144f45760405162461bcd60e51b815260206004820152601b60248201527f53616665417070726f76653a20617070726f7665206661696c6564000000000060448201526064016110b1565b8215614608576040516001600160a01b0385811660248301526044820185905286169060640160408051601f198184030181529181526020820180516001600160e01b031663095ea7b360e01b1790525161454f9190615d30565b6000604051808303816000865af19150503d806000811461458c576040519150601f19603f3d011682016040523d82523d6000602084013e614591565b606091505b5090925090508180156145bc5750805115806145bc5750808060200190518101906145bc9190615f6c565b6146085760405162461bcd60e51b815260206004820152601b60248201527f53616665417070726f76653a20617070726f7665206661696c6564000000000060448201526064016110b1565b5050505050565b6001600160a01b03811660009081526005602052604081208054908261463483615f89565b9091555092915050565b600061129f61464b613571565b8360405161190160f01b8152600281019290925260228201526042902090565b600080600061467c87878787614876565b915091506146898161493a565b5095945050505050565b600067ffffffffffffffff8211156124c55760405162461bcd60e51b815260206004820152602660248201527f53616665436173743a2076616c756520646f65736e27742066697420696e203660448201526534206269747360d01b60648201526084016110b1565b60006001600160801b038211156124c55760405162461bcd60e51b815260206004820152602760248201527f53616665436173743a2076616c756520646f65736e27742066697420696e20316044820152663238206269747360c81b60648201526084016110b1565b600080600183600481111561477c5761477c615549565b0361479357506031546001600160a01b0316614810565b60028360048111156147a7576147a7615549565b036147be57506032546001600160a01b0316614810565b60038360048111156147d2576147d2615549565b036147e957506030546001600160a01b0316614810565b60048360048111156147fd576147fd615549565b0361481057506033546001600160a01b03165b6001600160a01b03811661129f576040516303bca7b760e01b815260040160405180910390fd5b6060600061484483614a87565b604080516020808252818301909252919250600091906020820181803683375050509182525060208101929092525090565b6000807f7fffffffffffffffffffffffffffffff5d576e7357a4501ddfe92f46681b20a08311156148ad5750600090506003614931565b6040805160008082526020820180845289905260ff881692820192909252606081018690526080810185905260019060a0016020604051602081039080840390855afa158015614901573d6000803e3d6000fd5b5050604051601f1901519150506001600160a01b03811661492a57600060019250925050614931565b9150600090505b94509492505050565b600081600481111561494e5761494e615549565b036149565750565b600181600481111561496a5761496a615549565b036149b75760405162461bcd60e51b815260206004820152601860248201527f45434453413a20696e76616c6964207369676e6174757265000000000000000060448201526064016110b1565b60028160048111156149cb576149cb615549565b03614a185760405162461bcd60e51b815260206004820152601f60248201527f45434453413a20696e76616c6964207369676e6174757265206c656e6774680060448201526064016110b1565b6003816004811115614a2c57614a2c615549565b03614a845760405162461bcd60e51b815260206004820152602260248201527f45434453413a20696e76616c6964207369676e6174757265202773272076616c604482015261756560f01b60648201526084016110b1565b50565b600060ff8216601f81111561129f57604051632cd44ac360e21b815260040160405180910390fd5b6001600160a01b0381168114614a8457600080fd5b60008060408385031215614ad757600080fd5b8235614ae281614aaf565b91506020830135614af281614aaf565b809150509250929050565b8015158114614a8457600080fd5b600080600060608486031215614b2057600080fd5b8335614b2b81614aaf565b92506020840135614b3b81614afd565b91506040840135614b4b81614afd565b809150509250925092565b60008060408385031215614b6957600080fd5b8235614b7481614aaf565b946020939093013593505050565b600060208284031215614b9457600080fd5b8135611fb781614afd565b803560098110614bae57600080fd5b919050565b60008060408385031215614bc657600080fd5b614bcf83614b9f565b91506020830135614af281614afd565b600060208284031215614bf157600080fd5b8135611fb781614aaf565b600080600080600080600060e0888a031215614c1757600080fd5b8735614c2281614aaf565b96506020880135614c3281614aaf565b95506040880135945060608801359350608088013560ff81168114614c5657600080fd5b9699959850939692959460a0840135945060c09093013592915050565b600080600060608486031215614c8857600080fd5b8335614c9381614aaf565b92506020840135614ca381614aaf565b929592945050506040919091013590565b60008060008060808587031215614cca57600080fd5b5050823594602084013594506040840135936060013592509050565b60008083601f840112614cf857600080fd5b50813567ffffffffffffffff811115614d1057600080fd5b6020830191508360208260051b8501011115614d2b57600080fd5b9250929050565b60008060008060008060008060008060a08b8d031215614d5157600080fd5b8a3567ffffffffffffffff80821115614d6957600080fd5b614d758e838f01614ce6565b909c509a5060208d0135915080821115614d8e57600080fd5b614d9a8e838f01614ce6565b909a50985060408d0135915080821115614db357600080fd5b614dbf8e838f01614ce6565b909850965060608d0135915080821115614dd857600080fd5b614de48e838f01614ce6565b909650945060808d0135915080821115614dfd57600080fd5b50614e0a8d828e01614ce6565b915080935050809150509295989b9194979a5092959850565b600080600060608486031215614e3857600080fd5b505081359360208301359350604090920135919050565b60008083601f840112614e6157600080fd5b50813567ffffffffffffffff811115614e7957600080fd5b602083019150836020828501011115614d2b57600080fd5b60008060208385031215614ea457600080fd5b823567ffffffffffffffff811115614ebb57600080fd5b614ec785828601614e4f565b90969095509350505050565b600060208284031215614ee557600080fd5b611fb782614b9f565b60005b83811015614f09578181015183820152602001614ef1565b50506000910152565b60008151808452614f2a816020860160208601614eee565b601f01601f19169290920160200192915050565b602081526000611fb76020830184614f12565b60ff60f81b881681526000602060e06020840152614f7260e084018a614f12565b8381036040850152614f84818a614f12565b606085018990526001600160a01b038816608086015260a0850187905284810360c08601528551808252602080880193509091019060005b81811015614fd857835183529284019291840191600101614fbc565b50909c9b505050505050505050505050565b600080600060408486031215614fff57600080fd5b833567ffffffffffffffff81111561501657600080fd5b61502286828701614ce6565b9094509250506020840135614b4b81614afd565b604080825283519082018190526000906020906060840190828701845b82811015615071578151151584529284019290840190600101615053565b50505083810382850152845180825282820190600581901b8301840187850160005b838110156150c157601f198684030185526150af838351614f12565b94870194925090860190600101615093565b50909998505050505050505050565b600080604083850312156150e357600080fd5b50508035926020909101359150565b6000806040838503121561510557600080fd5b823591506020830135614af281614aaf565b600080600080600080600060c0888a03121561513257600080fd5b873561513d81614aaf565b9650602088013561514d81614aaf565b9550604088013561515d81614aaf565b9450606088013561516d81614aaf565b9350608088013567ffffffffffffffff81111561518957600080fd5b6151958a828b01614e4f565b90945092505060a08801356151a981614afd565b8091505092959891949750929550565b6000806000604084860312156151ce57600080fd5b83356151d981614aaf565b9250602084013567ffffffffffffffff8111156151f557600080fd5b61520186828701614e4f565b9497909650939450505050565b6000806000806080858703121561522457600080fd5b843561522f81614aaf565b9350602085013561523f81614aaf565b9250604085013561524f81614afd565b9396929550929360600135925050565b60008060008060006080868803121561527757600080fd5b853561528281614aaf565b94506020860135935060408601359250606086013567ffffffffffffffff8111156152ac57600080fd5b6152b888828901614e4f565b969995985093965092949392505050565b60008060008060008060008060008060006101408c8e0312156152eb57600080fd5b8b356152f681614aaf565b9a5060208c013567ffffffffffffffff81111561531257600080fd5b61531e8e828f01614e4f565b909b5099505060408c013561533281614aaf565b9a9d999c50979a6060810135996080820135995060a0820135985060c0820135975060e082013596506101008201359550610120909101359350915050565b6000806000806060858703121561538757600080fd5b843561539281614aaf565b935060208501359250604085013567ffffffffffffffff8111156153b557600080fd5b6153c187828801614e4f565b95989497509550505050565b600080600080600060a086880312156153e557600080fd5b85356153f081614aaf565b9450602086013561540081614aaf565b9350604086013561541081614afd565b94979396509394606081013594506080013592915050565b600181811c9082168061543c57607f821691505b60208210810361545c57634e487b7160e01b600052602260045260246000fd5b50919050565b600060208083526000845461547681615428565b806020870152604060018084166000811461549857600181146154b4576154e4565b60ff19851660408a0152604084151560051b8a010195506154e4565b89600052602060002060005b858110156154db5781548b82018601529083019088016154c0565b8a016040019650505b509398975050505050505050565b6000806040838503121561550557600080fd5b825161551081614afd565b6020939093015192949293505050565b634e487b7160e01b600052601160045260246000fd5b8082018082111561129f5761129f615520565b634e487b7160e01b600052602160045260246000fd5b60006020828403121561557157600080fd5b5051919050565b81835260007f07ffffffffffffffffffffffffffffffffffffffffffffffffffffffffffffff8311156155aa57600080fd5b8260051b80836020870137939093016020019392505050565b8183526000602080850194508260005b858110156156015781356155e681614aaf565b6001600160a01b0316875295820195908201906001016155d3565b509495945050505050565b81835281816020850137506000828201602090810191909152601f909101601f19169091010190565b6000838385526020808601955060208560051b8301018460005b878110156156bf57848303601f19018952813536889003601e1901811261567557600080fd5b8701848101903567ffffffffffffffff81111561569157600080fd5b8036038213156156a057600080fd5b6156ab85828461560c565b9a86019a945050509083019060010161564f565b5090979650505050505050565b60a080825281018a905260008b60c08301825b8d81101561570f5782356156f281614aaf565b6001600160a01b03168252602092830192909101906001016156df565b508381036020850152615723818c8e615578565b915050828103604084015261573981898b615578565b9050828103606084015261574e8187896155c3565b90508281036080840152615763818587615635565b9d9c50505050505050505050505050565b634e487b7160e01b600052604160045260246000fd5b604051601f8201601f1916810167ffffffffffffffff811182821017156157b3576157b3615774565b604052919050565b600067ffffffffffffffff8211156157d5576157d5615774565b50601f01601f191660200190565b600082601f8301126157f457600080fd5b8135615807615802826157bb565b61578a565b81815284602083860101111561581c57600080fd5b816020850160208301376000918101602001919091529392505050565b60008060006060848603121561584e57600080fd5b833567ffffffffffffffff8082111561586657600080fd5b615872878388016157e3565b9450602086013591508082111561588857600080fd5b615894878388016157e3565b935060408601359150808211156158aa57600080fd5b506158b7868287016157e3565b9150509250925092565b6000608082840312156158d357600080fd5b6040516080810181811067ffffffffffffffff821117156158f6576158f6615774565b604052825161590481614aaf565b8152602083015161591481614aaf565b6020820152604083015161592781614aaf565b6040820152606083015161593a81614aaf565b60608201529392505050565b60006060828403121561595857600080fd5b6040516060810181811067ffffffffffffffff8211171561597b5761597b615774565b80604052508251815260208301516020820152604083015160408201528091505092915050565b8051614bae81614aaf565b60006101008083850312156159c157600080fd5b6040519081019067ffffffffffffffff821181831017156159e4576159e4615774565b81604052835191506159f582614aaf565b818152615a04602085016159a2565b602082015260408401516040820152615a1f606085016159a2565b60608201526080840151608082015260a084015160a082015260c084015160c0820152615a4e60e085016159a2565b60e0820152949350505050565b60008060408385031215615a6e57600080fd5b505080516020909101519092909150565b808202811582820484141761129f5761129f615520565b634e487b7160e01b600052601260045260246000fd5b600082615abb57615abb615a96565b500490565b634e487b7160e01b600052603260045260246000fd5b6000808335601e19843603018112615aed57600080fd5b83018035915067ffffffffffffffff821115615b0857600080fd5b602001915036819003821315614d2b57600080fd5b8183823760009101908152919050565b60006001600160a01b03808a1683528089166020840152808816604084015280871660608401525060c06080830152615b6a60c08301858761560c565b905082151560a083015298975050505050505050565b600060208284031215615b9257600080fd5b8151611fb781614aaf565b8181038181111561129f5761129f615520565b601f821115611289576000816000526020600020601f850160051c81016020861015615bd95750805b601f850160051c820191505b8181101561306357828155600101615be5565b67ffffffffffffffff831115615c1057615c10615774565b615c2483615c1e8354615428565b83615bb0565b6000601f841160018114615c585760008515615c405750838201355b600019600387901b1c1916600186901b178355614608565b600083815260209020601f19861690835b82811015615c895786850135825560209485019460019092019101615c69565b5086821015615ca65760001960f88860031b161c19848701351681555b505060018560011b0183555050505050565b6001600160a01b03861681528460208201528360408201526080606082015260006129bc60808301848661560c565b6001600160a01b038516815283602082015260606040820152600061297360608301848661560c565b6001600160801b0381811683821601908082111561371357613713615520565b60008251615d42818460208701614eee565b9190910192915050565b600181815b80851115615d87578160001904821115615d6d57615d6d615520565b80851615615d7a57918102915b93841c9390800290615d51565b509250929050565b600082615d9e5750600161129f565b81615dab5750600061129f565b8160018114615dc15760028114615dcb57615de7565b600191505061129f565b60ff841115615ddc57615ddc615520565b50506001821b61129f565b5060208310610133831016604e8410600b8410161715615e0a575081810a61129f565b615e148383615d4c565b8060001904821115615e2857615e28615520565b029392505050565b6000611fb78383615d8f565b818103600083128015838313168383128216171561371357613713615520565b80820260008212600160ff1b84141615615e7857615e78615520565b818105831482151761129f5761129f615520565b600082615e9b57615e9b615a96565b600160ff1b821460001984141615615eb557615eb5615520565b500590565b6000600160ff1b8201615ecf57615ecf615520565b5060000390565b8082018281126000831280158216821582161715615ef657615ef6615520565b505092915050565b600060208284031215615f1057600080fd5b815167ffffffffffffffff811115615f2757600080fd5b8201601f81018413615f3857600080fd5b8051615f46615802826157bb565b818152856020838501011115615f5b57600080fd5b6127e6826020830160208601614eee565b600060208284031215615f7e57600080fd5b8151611fb781614afd565b600060018201615f9b57615f9b615520565b506001019056fe253ac2c290fb3c37b20cfd60899ed86c0c8313905edc8ca53ec8d2b69d9919ad4f776e61626c653a2063616c6c6572206973206e6f7420746865206f776e6572eeec81de25875ce1725479bb76f720a8defdb43dea041919ae37bb4aae9847c0a264697066735822122051f37e111b17c4cbea6fff3cc9b5e4c457bfe42fccd958a3e93b1c71953e8e3a64736f6c63430008160033",
  "linkReferences": {},
  "deployedLinkReferences": {}
}