{
  "_format": "hh-sol-artifact-1",
  "contractName": "MarketHelper",
  "sourceName": "contracts/markets/MarketHelper.sol",
  "abi": [
    {
      "inputs": [],
      "name": "BadDebt",
      "type": "error"
    },
    {
      "inputs": [],
      "name": "ExchangeRateNotValid",
      "type": "error"
    },
    {
      "inputs": [],
      "name": "InsufficientLiquidationBonus",
      "type": "error"
    },
    {
      "inputs": [],
      "name": "NotEnoughCollateral",
      "type": "error"
    },
    {
      "inputs": [],
      "name": "Solvent",
      "type": "error"
    },
    {
      "inputs": [
        {
          "internalType": "address",
          "name": "from",
          "type": "address"
        },
        {
          "internalType": "address",
          "name": "to",
          "type": "address"
        },
        {
          "internalType": "bool",
          "name": "skim",
          "type": "bool"
        },
        {
          "internalType": "uint256",
          "name": "amount",
          "type": "uint256"
        },
        {
          "internalType": "uint256",
          "name": "share",
          "type": "uint256"
        }
      ],
      "name": "addCollateral",
      "outputs": [
        {
          "internalType": "enum Module[]",
          "name": "modules",
          "type": "uint8[]"
        },
        {
          "internalType": "bytes[]",
          "name": "calls",
          "type": "bytes[]"
        }
      ],
      "stateMutability": "pure",
      "type": "function"
    },
    {
      "inputs": [
        {
          "internalType": "address",
          "name": "from",
          "type": "address"
        },
        {
          "internalType": "address",
          "name": "to",
          "type": "address"
        },
        {
          "internalType": "uint256",
          "name": "amount",
          "type": "uint256"
        }
      ],
      "name": "borrow",
      "outputs": [
        {
          "internalType": "enum Module[]",
          "name": "modules",
          "type": "uint8[]"
        },
        {
          "internalType": "bytes[]",
          "name": "calls",
          "type": "bytes[]"
        }
      ],
      "stateMutability": "pure",
      "type": "function"
    },
    {
      "inputs": [
        {
          "internalType": "bytes",
          "name": "result",
          "type": "bytes"
        }
      ],
      "name": "borrowView",
      "outputs": [
        {
          "internalType": "uint256",
          "name": "part",
          "type": "uint256"
        },
        {
          "internalType": "uint256",
          "name": "share",
          "type": "uint256"
        }
      ],
      "stateMutability": "pure",
      "type": "function"
    },
    {
      "inputs": [
        {
          "internalType": "address",
          "name": "from",
          "type": "address"
        },
        {
          "internalType": "uint256",
          "name": "borrowAmount",
          "type": "uint256"
        },
        {
          "internalType": "uint256",
          "name": "supplyAmount",
          "type": "uint256"
        },
        {
          "internalType": "bytes",
          "name": "data",
          "type": "bytes"
        }
      ],
      "name": "buyCollateral",
      "outputs": [
        {
          "internalType": "enum Module[]",
          "name": "modules",
          "type": "uint8[]"
        },
        {
          "internalType": "bytes[]",
          "name": "calls",
          "type": "bytes[]"
        }
      ],
      "stateMutability": "pure",
      "type": "function"
    },
    {
      "inputs": [
        {
          "internalType": "bytes",
          "name": "result",
          "type": "bytes"
        }
      ],
      "name": "buyCollateralView",
      "outputs": [
        {
          "internalType": "uint256",
          "name": "amountOut",
          "type": "uint256"
        }
      ],
      "stateMutability": "pure",
      "type": "function"
    },
    {
      "inputs": [
        {
          "internalType": "address",
          "name": "sglAddress",
          "type": "address"
        },
        {
          "internalType": "uint256",
          "name": "amount",
          "type": "uint256"
        },
        {
          "internalType": "uint256",
          "name": "tokenId",
          "type": "uint256"
        }
      ],
      "name": "computeAllowedLendShare",
      "outputs": [
        {
          "internalType": "uint256",
          "name": "share",
          "type": "uint256"
        }
      ],
      "stateMutability": "view",
      "type": "function"
    },
    {
      "inputs": [
        {
          "internalType": "address",
          "name": "sglAddress",
          "type": "address"
        },
        {
          "internalType": "address",
          "name": "user",
          "type": "address"
        },
        {
          "internalType": "uint256",
          "name": "maxBorrowPart",
          "type": "uint256"
        },
        {
          "internalType": "uint256",
          "name": "minLiquidationBonus",
          "type": "uint256"
        },
        {
          "internalType": "uint256",
          "name": "exchangeRatePrecision",
          "type": "uint256"
        },
        {
          "internalType": "uint256",
          "name": "feeDecimalsPrecision",
          "type": "uint256"
        }
      ],
      "name": "getLiquidationCollateralAmount",
      "outputs": [
        {
          "internalType": "uint256",
          "name": "collateralShare",
          "type": "uint256"
        }
      ],
      "stateMutability": "view",
      "type": "function"
    },
    {
      "inputs": [
        {
          "internalType": "address[]",
          "name": "users",
          "type": "address[]"
        },
        {
          "internalType": "uint256[]",
          "name": "maxBorrowParts",
          "type": "uint256[]"
        },
        {
          "internalType": "uint256[]",
          "name": "minLiquidationBonuses",
          "type": "uint256[]"
        },
        {
          "internalType": "contract IMarketLiquidatorReceiver[]",
          "name": "liquidatorReceivers",
          "type": "address[]"
        },
        {
          "internalType": "bytes[]",
          "name": "liquidatorReceiverDatas",
          "type": "bytes[]"
        }
      ],
      "name": "liquidate",
      "outputs": [
        {
          "internalType": "enum Module[]",
          "name": "modules",
          "type": "uint8[]"
        },
        {
          "internalType": "bytes[]",
          "name": "calls",
          "type": "bytes[]"
        }
      ],
      "stateMutability": "pure",
      "type": "function"
    },
    {
      "inputs": [
        {
          "internalType": "address",
          "name": "user",
          "type": "address"
        },
        {
          "internalType": "address",
          "name": "from",
          "type": "address"
        },
        {
          "internalType": "address",
          "name": "receiver",
          "type": "address"
        },
        {
          "internalType": "contract IMarketLiquidatorReceiver",
          "name": "liquidatorReceiver",
          "type": "address"
        },
        {
          "internalType": "bytes",
          "name": "liquidatorReceiverData",
          "type": "bytes"
        },
        {
          "internalType": "bool",
          "name": "swapCollateral",
          "type": "bool"
        }
      ],
      "name": "liquidateBadDebt",
      "outputs": [
        {
          "internalType": "enum Module[]",
          "name": "modules",
          "type": "uint8[]"
        },
        {
          "internalType": "bytes[]",
          "name": "calls",
          "type": "bytes[]"
        }
      ],
      "stateMutability": "pure",
      "type": "function"
    },
    {
      "inputs": [
        {
          "internalType": "address",
          "name": "from",
          "type": "address"
        },
        {
          "internalType": "address",
          "name": "to",
          "type": "address"
        },
        {
          "internalType": "uint256",
          "name": "share",
          "type": "uint256"
        }
      ],
      "name": "removeCollateral",
      "outputs": [
        {
          "internalType": "enum Module[]",
          "name": "modules",
          "type": "uint8[]"
        },
        {
          "internalType": "bytes[]",
          "name": "calls",
          "type": "bytes[]"
        }
      ],
      "stateMutability": "pure",
      "type": "function"
    },
    {
      "inputs": [
        {
          "internalType": "address",
          "name": "from",
          "type": "address"
        },
        {
          "internalType": "address",
          "name": "to",
          "type": "address"
        },
        {
          "internalType": "bool",
          "name": "skim",
          "type": "bool"
        },
        {
          "internalType": "uint256",
          "name": "part",
          "type": "uint256"
        }
      ],
      "name": "repay",
      "outputs": [
        {
          "internalType": "enum Module[]",
          "name": "modules",
          "type": "uint8[]"
        },
        {
          "internalType": "bytes[]",
          "name": "calls",
          "type": "bytes[]"
        }
      ],
      "stateMutability": "pure",
      "type": "function"
    },
    {
      "inputs": [
        {
          "internalType": "bytes",
          "name": "result",
          "type": "bytes"
        }
      ],
      "name": "repayView",
      "outputs": [
        {
          "internalType": "uint256",
          "name": "amount",
          "type": "uint256"
        }
      ],
      "stateMutability": "pure",
      "type": "function"
    },
    {
      "inputs": [
        {
          "internalType": "address",
          "name": "from",
          "type": "address"
        },
        {
          "internalType": "uint256",
          "name": "share",
          "type": "uint256"
        },
        {
          "internalType": "bytes",
          "name": "data",
          "type": "bytes"
        }
      ],
      "name": "sellCollateral",
      "outputs": [
        {
          "internalType": "enum Module[]",
          "name": "modules",
          "type": "uint8[]"
        },
        {
          "internalType": "bytes[]",
          "name": "calls",
          "type": "bytes[]"
        }
      ],
      "stateMutability": "pure",
      "type": "function"
    },
    {
      "inputs": [
        {
          "internalType": "bytes",
          "name": "result",
          "type": "bytes"
        }
      ],
      "name": "sellCollateralView",
      "outputs": [
        {
          "internalType": "uint256",
          "name": "amountOut",
          "type": "uint256"
        }
      ],
      "stateMutability": "pure",
      "type": "function"
    }
  ],
  "bytecode": "0x608060405234801561001057600080fd5b506128b7806100206000396000f3fe608060405234801561001057600080fd5b50600436106100ea5760003560e01c8063b31f346d1161008c578063d4e4534e11610066578063d4e4534e146101d0578063e7d6de80146101e3578063e9a49252146101f6578063f0d4cc931461015c57600080fd5b8063b31f346d14610197578063cce19f81146101aa578063cd0211eb146101bd57600080fd5b80635224372c116100c85780635224372c1461014957806375cf7eb01461015c57806387c6f36d1461015c57806390cd19321461016f57600080fd5b8063064dd5cf146100ef5780631f6e61fc14610115578063364b78ca14610128575b600080fd5b6101026100fd366004611c76565b610209565b6040519081526020015b60405180910390f35b610102610123366004611cab565b61046f565b61013b610136366004611d50565b610b65565b60405161010c929190611ec0565b61013b610157366004611f8f565b610cc9565b61010261016a366004612012565b610e35565b61018261017d366004612012565b610e4a565b6040805192835260208301919091520161010c565b61013b6101a5366004612062565b610e64565b61013b6101b8366004611f8f565b610fbf565b61013b6101cb366004612104565b6110ac565b61013b6101de366004612155565b611221565b61013b6101f13660046121bf565b611376565b61013b61020436600461221b565b611444565b60008084905060008173ffffffffffffffffffffffffffffffffffffffff1663e43874da6040518163ffffffff1660e01b8152600401602060405180830381865afa15801561025c573d6000803e3d6000fd5b505050506040513d601f19601f820116820180604052508101906102809190612276565b90506000808373ffffffffffffffffffffffffffffffffffffffff1663f9557ccb6040518163ffffffff1660e01b81526004016040805180830381865afa1580156102cf573d6000803e3d6000fd5b505050506040513d601f19601f820116820180604052508101906102f391906122b8565b9150915060008473ffffffffffffffffffffffffffffffffffffffff166352e97efd6040518163ffffffff1660e01b81526004016040805180830381865afa158015610343573d6000803e3d6000fd5b505050506040513d601f19601f8201168201806040525081019061036791906122b8565b506040517f8eb22cdd000000000000000000000000000000000000000000000000000000008152600481018990526fffffffffffffffffffffffffffffffff821660248201526001604482015290915060009073ffffffffffffffffffffffffffffffffffffffff861690638eb22cdd90606401602060405180830381865afa1580156103f8573d6000803e3d6000fd5b505050506040513d601f19601f8201168201806040525081019061041c91906122eb565b610438906fffffffffffffffffffffffffffffffff8616612333565b90506fffffffffffffffffffffffffffffffff8316610457828b61234c565b6104619190612363565b9a9950505050505050505050565b6000808790506000808273ffffffffffffffffffffffffffffffffffffffff1663247ac0636040518163ffffffff1660e01b8152600401602060405180830381865afa1580156104c3573d6000803e3d6000fd5b505050506040513d601f19601f820116820180604052508101906104e79190612276565b73ffffffffffffffffffffffffffffffffffffffff1663eeb8a8d38473ffffffffffffffffffffffffffffffffffffffff166362f417e36040518163ffffffff1660e01b8152600401600060405180830381865afa15801561054d573d6000803e3d6000fd5b505050506040513d6000823e601f3d908101601f1916820160405261057591908101906123cd565b6040518263ffffffff1660e01b8152600401610591919061247a565b6040805180830381865afa1580156105ad573d6000803e3d6000fd5b505050506040513d601f19601f820116820180604052508101906105d1919061248d565b915091508115806105e0575080155b15610657578273ffffffffffffffffffffffffffffffffffffffff1663bf17b4de6040518163ffffffff1660e01b8152600401602060405180830381865afa158015610630573d6000803e3d6000fd5b505050506040513d601f19601f8201168201806040525081019061065491906122eb565b90505b80600003610691576040517f636e0bda00000000000000000000000000000000000000000000000000000000815260040160405180910390fd5b6000808473ffffffffffffffffffffffffffffffffffffffff166352e97efd6040518163ffffffff1660e01b81526004016040805180830381865afa1580156106de573d6000803e3d6000fd5b505050506040513d601f19601f8201168201806040525081019061070291906122b8565b9150915061070e611b77565b73ffffffffffffffffffffffffffffffffffffffff808d16825260208083018d905260408084018d90526060840187905280517fe43874da00000000000000000000000000000000000000000000000000000000815290519289169263e43874da926004808401939192918290030181865afa158015610792573d6000803e3d6000fd5b505050506040513d601f19601f820116820180604052508101906107b69190612276565b816080019073ffffffffffffffffffffffffffffffffffffffff16908173ffffffffffffffffffffffffffffffffffffffff16815250508573ffffffffffffffffffffffffffffffffffffffff1663330998806040518163ffffffff1660e01b8152600401602060405180830381865afa158015610838573d6000803e3d6000fd5b505050506040513d601f19601f8201168201806040525081019061085c91906122eb565b60a08201526040517f53eb521100000000000000000000000000000000000000000000000000000000815273ffffffffffffffffffffffffffffffffffffffff8d811660048301528716906353eb521190602401602060405180830381865afa1580156108cd573d6000803e3d6000fd5b505050506040513d601f19601f820116820180604052508101906108f191906122eb565b60c08201526040517f4141fd6200000000000000000000000000000000000000000000000000000000815273ffffffffffffffffffffffffffffffffffffffff8d81166004830152871690634141fd6290602401602060405180830381865afa158015610962573d6000803e3d6000fd5b505050506040513d601f19601f8201168201806040525081019061098691906122eb565b8160e00181815250506040518060400160405280846fffffffffffffffffffffffffffffffff168152602001836fffffffffffffffffffffffffffffffff168152508161010001819052508c73ffffffffffffffffffffffffffffffffffffffff166376592e2f6040518163ffffffff1660e01b8152600401602060405180830381865afa158015610a1c573d6000803e3d6000fd5b505050506040513d601f19601f82011682018060405250810190610a4091906122eb565b816101200181815250508573ffffffffffffffffffffffffffffffffffffffff16632b9b1bc86040518163ffffffff1660e01b8152600401602060405180830381865afa158015610a95573d6000803e3d6000fd5b505050506040513d601f19601f82011682018060405250810190610ab991906122eb565b816101400181815250508573ffffffffffffffffffffffffffffffffffffffff166354b4ca5d6040518163ffffffff1660e01b8152600401602060405180830381865afa158015610b0e573d6000803e3d6000fd5b505050506040513d601f19601f82011682018060405250810190610b3291906122eb565b61016082015261018081018990526101a08101889052610b52818e611540565b9f9e505050505050505050505050505050565b6040805160018082528183019092526060918291906020808301908036833701905050604080516001808252818301909252919350816020015b6060815260200190600190039081610b9f579050509050600382600081518110610bcb57610bcb6124bb565b60200260200101906004811115610be457610be4611e41565b90816004811115610bf757610bf7611e41565b9052506040517f364b78ca0000000000000000000000000000000000000000000000000000000090610c3f908e908e908e908e908e908e908e908e908e908e9060240161266a565b604051602081830303815290604052907bffffffffffffffffffffffffffffffffffffffffffffffffffffffff19166020820180517bffffffffffffffffffffffffffffffffffffffffffffffffffffffff838183161783525050505081600081518110610caf57610caf6124bb565b60200260200101819052509a509a98505050505050505050565b6040805160018082528183019092526060918291906020808301908036833701905050604080516001808252818301909252919350816020015b6060815260200190600190039081610d03579050509050600182600081518110610d2f57610d2f6124bb565b60200260200101906004811115610d4857610d48611e41565b90816004811115610d5b57610d5b611e41565b90525060405173ffffffffffffffffffffffffffffffffffffffff808716602483015285166044820152606481018490527f5224372c00000000000000000000000000000000000000000000000000000000906084015b604051602081830303815290604052907bffffffffffffffffffffffffffffffffffffffffffffffffffffffff19166020820180517bffffffffffffffffffffffffffffffffffffffffffffffffffffffff838183161783525050505081600081518110610e2257610e226124bb565b6020026020010181905250935093915050565b6000610e438284018461271f565b9392505050565b600080610e5983850185612738565b909590945092505050565b6040805160018082528183019092526060918291906020808301908036833701905050604080516001808252818301909252919350816020015b6060815260200190600190039081610e9e579050509050600382600081518110610eca57610eca6124bb565b60200260200101906004811115610ee357610ee3611e41565b90816004811115610ef657610ef6611e41565b9052506040517fb31f346d0000000000000000000000000000000000000000000000000000000090610f38908b908b908b908b908b908b908b9060240161275a565b604051602081830303815290604052907bffffffffffffffffffffffffffffffffffffffffffffffffffffffff19166020820180517bffffffffffffffffffffffffffffffffffffffffffffffffffffffff838183161783525050505081600081518110610fa857610fa86124bb565b602002602001018190525097509795505050505050565b6040805160018082528183019092526060918291906020808301908036833701905050604080516001808252818301909252919350816020015b6060815260200190600190039081610ff9579050509050600282600081518110611025576110256124bb565b6020026020010190600481111561103e5761103e611e41565b9081600481111561105157611051611e41565b90525060405173ffffffffffffffffffffffffffffffffffffffff808716602483015285166044820152606481018490527fcce19f810000000000000000000000000000000000000000000000000000000090608401610db2565b6040805160018082528183019092526060918291906020808301908036833701905050604080516001808252818301909252919350816020015b60608152602001906001900390816110e6579050509050600182600081518110611112576111126124bb565b6020026020010190600481111561112b5761112b611e41565b9081600481111561113e5761113e611e41565b90525060405173ffffffffffffffffffffffffffffffffffffffff8088166024830152861660448201528415156064820152608481018490527fcd0211eb000000000000000000000000000000000000000000000000000000009060a4015b604051602081830303815290604052907bffffffffffffffffffffffffffffffffffffffffffffffffffffffff19166020820180517bffffffffffffffffffffffffffffffffffffffffffffffffffffffff83818316178352505050508160008151811061120d5761120d6124bb565b602002602001018190525094509492505050565b6040805160018082528183019092526060918291906020808301908036833701905050604080516001808252818301909252919350816020015b606081526020019060019003908161125b579050509050600482600081518110611287576112876124bb565b602002602001019060048111156112a0576112a0611e41565b908160048111156112b3576112b3611e41565b9052506040517fd4e4534e00000000000000000000000000000000000000000000000000000000906112f190899089908990899089906024016127ba565b604051602081830303815290604052907bffffffffffffffffffffffffffffffffffffffffffffffffffffffff19166020820180517bffffffffffffffffffffffffffffffffffffffffffffffffffffffff838183161783525050505081600081518110611361576113616124bb565b60200260200101819052509550959350505050565b6040805160018082528183019092526060918291906020808301908036833701905050604080516001808252818301909252919350816020015b60608152602001906001900390816113b05790505090506004826000815181106113dc576113dc6124bb565b602002602001019060048111156113f5576113f5611e41565b9081600481111561140857611408611e41565b9052506040517fe7d6de80000000000000000000000000000000000000000000000000000000009061119d9088908890889088906024016127f6565b6040805160018082528183019092526060918291906020808301908036833701905050604080516001808252818301909252919350816020015b606081526020019060019003908161147e5790505090506002826000815181106114aa576114aa6124bb565b602002602001019060048111156114c3576114c3611e41565b908160048111156114d6576114d6611e41565b90525060405173ffffffffffffffffffffffffffffffffffffffff80891660248301528716604482015285151560648201526084810185905260a481018490527fe9a49252000000000000000000000000000000000000000000000000000000009060c4016112f1565b6000806000808490508560600151600003611587576040517f636e0bda00000000000000000000000000000000000000000000000000000000815260040160405180910390fd5b6060860151610180870151608088015160a089015160c08a01516040517f442c15990000000000000000000000000000000000000000000000000000000081526004810192909252602482015260006044820181905293929173ffffffffffffffffffffffffffffffffffffffff169063442c159990606401602060405180830381865afa15801561161d573d6000803e3d6000fd5b505050506040513d601f19601f8201168201806040525081019061164191906122eb565b61164b919061234c565b6116559190612363565b60e08801516040517f3f741adb000000000000000000000000000000000000000000000000000000008152600481019190915260248101829052620186a0604482015290915060009073ffffffffffffffffffffffffffffffffffffffff841690633f741adb90606401602060405180830381865afa1580156116dc573d6000803e3d6000fd5b505050506040513d601f19601f8201168201806040525081019061170091906122eb565b60e08901516101008a015191925060009161171c916001611a1e565b905080821161172b578161172d565b805b915081831015611769576040517fc581fddc00000000000000000000000000000000000000000000000000000000815260040160405180910390fd5b8860200151821161177a5781611780565b88602001515b91508196508087146117a35761010089015161179e90836000611ade565b6117a9565b8860e001515b9550856000036117e5576040517f51f0c00300000000000000000000000000000000000000000000000000000000815260040160405180910390fd5b6101208901511561181c57620186a089610120015183611805919061234c565b61180f9190612363565b6118199083612333565b91505b8183101561190a5780831161185d576040517fc581fddc00000000000000000000000000000000000000000000000000000000815260040160405180910390fd5b6040890151156118d8576000876118748186612836565b61188190620186a061234c565b61188b9190612363565b905089604001518110156118cb576040517f8b57e19e00000000000000000000000000000000000000000000000000000000815260040160405180910390fd5b8960c00151955050611a13565b6040517f8b57e19e00000000000000000000000000000000000000000000000000000000815260040160405180910390fd5b886080015173ffffffffffffffffffffffffffffffffffffffff16638eb22cdd8a60a001518b61018001518c6060015186611945919061234c565b61194f9190612363565b6040517fffffffff0000000000000000000000000000000000000000000000000000000060e085901b1681526004810192909252602482015260006044820152606401602060405180830381865afa1580156119af573d6000803e3d6000fd5b505050506040513d601f19601f820116820180604052508101906119d391906122eb565b94508860c00151851115611a13576040517f34477cc000000000000000000000000000000000000000000000000000000000815260040160405180910390fd5b505050509250925092565b600083602001516fffffffffffffffffffffffffffffffff16600003611a45575081610e43565b602084015184516fffffffffffffffffffffffffffffffff91821691611a6c91168561234c565b611a769190612363565b9050818015611ac657508284600001516fffffffffffffffffffffffffffffffff1685602001516fffffffffffffffffffffffffffffffff1683611aba919061234c565b611ac49190612363565b105b15610e435780611ad581612849565b95945050505050565b82516000906fffffffffffffffffffffffffffffffff168103611b02575081610e43565b835160208501516fffffffffffffffffffffffffffffffff91821691611b2991168561234c565b611b339190612363565b9050818015611ac657508284602001516fffffffffffffffffffffffffffffffff1685600001516fffffffffffffffffffffffffffffffff1683611aba919061234c565b604051806101c00160405280600073ffffffffffffffffffffffffffffffffffffffff168152602001600081526020016000815260200160008152602001600073ffffffffffffffffffffffffffffffffffffffff168152602001600081526020016000815260200160008152602001611c28604051806040016040528060006fffffffffffffffffffffffffffffffff16815260200160006fffffffffffffffffffffffffffffffff1681525090565b815260200160008152602001600081526020016000815260200160008152602001600081525090565b73ffffffffffffffffffffffffffffffffffffffff81168114611c7357600080fd5b50565b600080600060608486031215611c8b57600080fd5b8335611c9681611c51565b95602085013595506040909401359392505050565b60008060008060008060c08789031215611cc457600080fd5b8635611ccf81611c51565b95506020870135611cdf81611c51565b95989597505050506040840135936060810135936080820135935060a0909101359150565b60008083601f840112611d1657600080fd5b50813567ffffffffffffffff811115611d2e57600080fd5b6020830191508360208260051b8501011115611d4957600080fd5b9250929050565b60008060008060008060008060008060a08b8d031215611d6f57600080fd5b8a3567ffffffffffffffff80821115611d8757600080fd5b611d938e838f01611d04565b909c509a5060208d0135915080821115611dac57600080fd5b611db88e838f01611d04565b909a50985060408d0135915080821115611dd157600080fd5b611ddd8e838f01611d04565b909850965060608d0135915080821115611df657600080fd5b611e028e838f01611d04565b909650945060808d0135915080821115611e1b57600080fd5b50611e288d828e01611d04565b915080935050809150509295989b9194979a5092959850565b7f4e487b7100000000000000000000000000000000000000000000000000000000600052602160045260246000fd5b60005b83811015611e8b578181015183820152602001611e73565b50506000910152565b60008151808452611eac816020860160208601611e70565b601f01601f19169290920160200192915050565b604080825283519082018190526000906020906060840190828701845b82811015611f3057815160058110611f1e577f4e487b7100000000000000000000000000000000000000000000000000000000600052602160045260246000fd5b84529284019290840190600101611edd565b50505083810382850152845180825282820190600581901b8301840187850160005b83811015611f8057601f19868403018552611f6e838351611e94565b94870194925090860190600101611f52565b50909998505050505050505050565b600080600060608486031215611fa457600080fd5b8335611faf81611c51565b92506020840135611fbf81611c51565b929592945050506040919091013590565b60008083601f840112611fe257600080fd5b50813567ffffffffffffffff811115611ffa57600080fd5b602083019150836020828501011115611d4957600080fd5b6000806020838503121561202557600080fd5b823567ffffffffffffffff81111561203c57600080fd5b61204885828601611fd0565b90969095509350505050565b8015158114611c7357600080fd5b600080600080600080600060c0888a03121561207d57600080fd5b873561208881611c51565b9650602088013561209881611c51565b955060408801356120a881611c51565b945060608801356120b881611c51565b9350608088013567ffffffffffffffff8111156120d457600080fd5b6120e08a828b01611fd0565b90945092505060a08801356120f481612054565b8091505092959891949750929550565b6000806000806080858703121561211a57600080fd5b843561212581611c51565b9350602085013561213581611c51565b9250604085013561214581612054565b9396929550929360600135925050565b60008060008060006080868803121561216d57600080fd5b853561217881611c51565b94506020860135935060408601359250606086013567ffffffffffffffff8111156121a257600080fd5b6121ae88828901611fd0565b969995985093965092949392505050565b600080600080606085870312156121d557600080fd5b84356121e081611c51565b935060208501359250604085013567ffffffffffffffff81111561220357600080fd5b61220f87828801611fd0565b95989497509550505050565b600080600080600060a0868803121561223357600080fd5b853561223e81611c51565b9450602086013561224e81611c51565b9350604086013561225e81612054565b94979396509394606081013594506080013592915050565b60006020828403121561228857600080fd5b8151610e4381611c51565b80516fffffffffffffffffffffffffffffffff811681146122b357600080fd5b919050565b600080604083850312156122cb57600080fd5b6122d483612293565b91506122e260208401612293565b90509250929050565b6000602082840312156122fd57600080fd5b5051919050565b7f4e487b7100000000000000000000000000000000000000000000000000000000600052601160045260246000fd5b8082018082111561234657612346612304565b92915050565b808202811582820484141761234657612346612304565b600082612399577f4e487b7100000000000000000000000000000000000000000000000000000000600052601260045260246000fd5b500490565b7f4e487b7100000000000000000000000000000000000000000000000000000000600052604160045260246000fd5b6000602082840312156123df57600080fd5b815167ffffffffffffffff808211156123f757600080fd5b818401915084601f83011261240b57600080fd5b81518181111561241d5761241d61239e565b604051601f8201601f19908116603f011681019083821181831017156124455761244561239e565b8160405282815287602084870101111561245e57600080fd5b61246f836020830160208801611e70565b979650505050505050565b602081526000610e436020830184611e94565b600080604083850312156124a057600080fd5b82516124ab81612054565b6020939093015192949293505050565b7f4e487b7100000000000000000000000000000000000000000000000000000000600052603260045260246000fd5b81835260007f07ffffffffffffffffffffffffffffffffffffffffffffffffffffffffffffff83111561251c57600080fd5b8260051b80836020870137939093016020019392505050565b8183526000602080850194508260005b8581101561258057813561255881611c51565b73ffffffffffffffffffffffffffffffffffffffff1687529582019590820190600101612545565b509495945050505050565b818352818160208501375060006020828401015260006020601f19601f840116840101905092915050565b6000838385526020808601955060208560051b8301018460005b8781101561265d57601f1985840301895281357fffffffffffffffffffffffffffffffffffffffffffffffffffffffffffffffe188360301811261261357600080fd5b8701848101903567ffffffffffffffff81111561262f57600080fd5b80360382131561263e57600080fd5b61264985828461258b565b9a86019a94505050908301906001016125d0565b5090979650505050505050565b60a080825281018a905260008b60c08301825b8d8110156126ba57823561269081611c51565b73ffffffffffffffffffffffffffffffffffffffff1682526020928301929091019060010161267d565b5083810360208501526126ce818c8e6124ea565b91505082810360408401526126e481898b6124ea565b905082810360608401526126f9818789612535565b9050828103608084015261270e8185876125b6565b9d9c50505050505050505050505050565b60006020828403121561273157600080fd5b5035919050565b6000806040838503121561274b57600080fd5b50508035926020909101359150565b600073ffffffffffffffffffffffffffffffffffffffff808a1683528089166020840152808816604084015280871660608401525060c060808301526127a460c08301858761258b565b905082151560a083015298975050505050505050565b73ffffffffffffffffffffffffffffffffffffffff8616815284602082015283604082015260806060820152600061246f60808301848661258b565b73ffffffffffffffffffffffffffffffffffffffff8516815283602082015260606040820152600061282c60608301848661258b565b9695505050505050565b8181038181111561234657612346612304565b60007fffffffffffffffffffffffffffffffffffffffffffffffffffffffffffffffff820361287a5761287a612304565b506001019056fea264697066735822122065809d5ef6153596ac65876bf64ba818fc017c141200de7c9ada775947bc014f64736f6c63430008160033",
  "linkReferences": {},
  "deployedLinkReferences": {}
}