{
  "_format": "hh-sol-artifact-1",
  "contractName": "mTapiocaOFT",
  "sourceName": "contracts/tOFT/mTapiocaOFT.sol",
  "abi": [
    {
      "inputs": [
        {
          "internalType": "address",
          "name": "_lzEndpoint",
          "type": "address"
        },
        {
          "internalType": "address",
          "name": "_erc20",
          "type": "address"
        },
        {
          "internalType": "contract IYieldBoxBase",
          "name": "_yieldBox",
          "type": "address"
        },
        {
          "internalType": "contract ICluster",
          "name": "_cluster",
          "type": "address"
        },
        {
          "internalType": "string",
          "name": "_name",
          "type": "string"
        },
        {
          "internalType": "string",
          "name": "_symbol",
          "type": "string"
        },
        {
          "internalType": "uint8",
          "name": "_decimal",
          "type": "uint8"
        },
        {
          "internalType": "uint256",
          "name": "_hostChainID",
          "type": "uint256"
        },
        {
          "internalType": "address payable",
          "name": "_leverageModule",
          "type": "address"
        },
        {
          "internalType": "address payable",
          "name": "_strategyModule",
          "type": "address"
        },
        {
          "internalType": "address payable",
          "name": "_marketModule",
          "type": "address"
        },
        {
          "internalType": "address payable",
          "name": "_optionsModule",
          "type": "address"
        }
      ],
      "stateMutability": "nonpayable",
      "type": "constructor"
    },
    {
      "anonymous": false,
      "inputs": [
        {
          "indexed": true,
          "internalType": "address",
          "name": "owner",
          "type": "address"
        },
        {
          "indexed": true,
          "internalType": "address",
          "name": "spender",
          "type": "address"
        },
        {
          "indexed": false,
          "internalType": "uint256",
          "name": "value",
          "type": "uint256"
        }
      ],
      "name": "Approval",
      "type": "event"
    },
    {
      "anonymous": false,
      "inputs": [
        {
          "indexed": true,
          "internalType": "address",
          "name": "_balancer",
          "type": "address"
        },
        {
          "indexed": false,
          "internalType": "bool",
          "name": "_bool",
          "type": "bool"
        },
        {
          "indexed": false,
          "internalType": "bool",
          "name": "_new",
          "type": "bool"
        }
      ],
      "name": "BalancerStatusUpdated",
      "type": "event"
    },
    {
      "anonymous": false,
      "inputs": [
        {
          "indexed": true,
          "internalType": "uint16",
          "name": "_srcChainId",
          "type": "uint16"
        },
        {
          "indexed": false,
          "internalType": "bytes",
          "name": "_srcAddress",
          "type": "bytes"
        },
        {
          "indexed": false,
          "internalType": "uint64",
          "name": "_nonce",
          "type": "uint64"
        },
        {
          "indexed": false,
          "internalType": "bytes32",
          "name": "_hash",
          "type": "bytes32"
        }
      ],
      "name": "CallOFTReceivedSuccess",
      "type": "event"
    },
    {
      "anonymous": false,
      "inputs": [
        {
          "indexed": false,
          "internalType": "uint256",
          "name": "_chain",
          "type": "uint256"
        },
        {
          "indexed": false,
          "internalType": "bool",
          "name": "_old",
          "type": "bool"
        },
        {
          "indexed": false,
          "internalType": "bool",
          "name": "_new",
          "type": "bool"
        }
      ],
      "name": "ConnectedChainStatusUpdated",
      "type": "event"
    },
    {
      "anonymous": false,
      "inputs": [
        {
          "indexed": false,
          "internalType": "uint16",
          "name": "_srcChainId",
          "type": "uint16"
        },
        {
          "indexed": false,
          "internalType": "bytes",
          "name": "_srcAddress",
          "type": "bytes"
        },
        {
          "indexed": false,
          "internalType": "uint64",
          "name": "_nonce",
          "type": "uint64"
        },
        {
          "indexed": false,
          "internalType": "bytes",
          "name": "_payload",
          "type": "bytes"
        },
        {
          "indexed": false,
          "internalType": "bytes",
          "name": "_reason",
          "type": "bytes"
        }
      ],
      "name": "MessageFailed",
      "type": "event"
    },
    {
      "anonymous": false,
      "inputs": [
        {
          "indexed": false,
          "internalType": "address",
          "name": "_address",
          "type": "address"
        }
      ],
      "name": "NonContractAddress",
      "type": "event"
    },
    {
      "anonymous": false,
      "inputs": [
        {
          "indexed": true,
          "internalType": "address",
          "name": "previousOwner",
          "type": "address"
        },
        {
          "indexed": true,
          "internalType": "address",
          "name": "newOwner",
          "type": "address"
        }
      ],
      "name": "OwnershipTransferred",
      "type": "event"
    },
    {
      "anonymous": false,
      "inputs": [
        {
          "indexed": true,
          "internalType": "address",
          "name": "_balancer",
          "type": "address"
        },
        {
          "indexed": false,
          "internalType": "uint256",
          "name": "_amount",
          "type": "uint256"
        },
        {
          "indexed": false,
          "internalType": "bool",
          "name": "_isNative",
          "type": "bool"
        }
      ],
      "name": "Rebalancing",
      "type": "event"
    },
    {
      "anonymous": false,
      "inputs": [
        {
          "indexed": true,
          "internalType": "uint16",
          "name": "_srcChainId",
          "type": "uint16"
        },
        {
          "indexed": true,
          "internalType": "address",
          "name": "_to",
          "type": "address"
        },
        {
          "indexed": false,
          "internalType": "uint256",
          "name": "_amount",
          "type": "uint256"
        }
      ],
      "name": "ReceiveFromChain",
      "type": "event"
    },
    {
      "anonymous": false,
      "inputs": [
        {
          "indexed": false,
          "internalType": "uint16",
          "name": "_srcChainId",
          "type": "uint16"
        },
        {
          "indexed": false,
          "internalType": "bytes",
          "name": "_srcAddress",
          "type": "bytes"
        },
        {
          "indexed": false,
          "internalType": "uint64",
          "name": "_nonce",
          "type": "uint64"
        },
        {
          "indexed": false,
          "internalType": "bytes32",
          "name": "_payloadHash",
          "type": "bytes32"
        }
      ],
      "name": "RetryMessageSuccess",
      "type": "event"
    },
    {
      "anonymous": false,
      "inputs": [
        {
          "indexed": true,
          "internalType": "uint16",
          "name": "_dstChainId",
          "type": "uint16"
        },
        {
          "indexed": true,
          "internalType": "address",
          "name": "_from",
          "type": "address"
        },
        {
          "indexed": true,
          "internalType": "bytes32",
          "name": "_toAddress",
          "type": "bytes32"
        },
        {
          "indexed": false,
          "internalType": "uint256",
          "name": "_amount",
          "type": "uint256"
        }
      ],
      "name": "SendToChain",
      "type": "event"
    },
    {
      "anonymous": false,
      "inputs": [
        {
          "indexed": false,
          "internalType": "uint16",
          "name": "_dstChainId",
          "type": "uint16"
        },
        {
          "indexed": false,
          "internalType": "uint16",
          "name": "_type",
          "type": "uint16"
        },
        {
          "indexed": false,
          "internalType": "uint256",
          "name": "_minDstGas",
          "type": "uint256"
        }
      ],
      "name": "SetMinDstGas",
      "type": "event"
    },
    {
      "anonymous": false,
      "inputs": [
        {
          "indexed": false,
          "internalType": "address",
          "name": "precrime",
          "type": "address"
        }
      ],
      "name": "SetPrecrime",
      "type": "event"
    },
    {
      "anonymous": false,
      "inputs": [
        {
          "indexed": false,
          "internalType": "uint16",
          "name": "_remoteChainId",
          "type": "uint16"
        },
        {
          "indexed": false,
          "internalType": "bytes",
          "name": "_path",
          "type": "bytes"
        }
      ],
      "name": "SetTrustedRemote",
      "type": "event"
    },
    {
      "anonymous": false,
      "inputs": [
        {
          "indexed": false,
          "internalType": "uint16",
          "name": "_remoteChainId",
          "type": "uint16"
        },
        {
          "indexed": false,
          "internalType": "bytes",
          "name": "_remoteAddress",
          "type": "bytes"
        }
      ],
      "name": "SetTrustedRemoteAddress",
      "type": "event"
    },
    {
      "anonymous": false,
      "inputs": [
        {
          "indexed": false,
          "internalType": "bool",
          "name": "_useCustomAdapterParams",
          "type": "bool"
        }
      ],
      "name": "SetUseCustomAdapterParams",
      "type": "event"
    },
    {
      "anonymous": false,
      "inputs": [
        {
          "indexed": true,
          "internalType": "address",
          "name": "from",
          "type": "address"
        },
        {
          "indexed": true,
          "internalType": "address",
          "name": "to",
          "type": "address"
        },
        {
          "indexed": false,
          "internalType": "uint256",
          "name": "value",
          "type": "uint256"
        }
      ],
      "name": "Transfer",
      "type": "event"
    },
    {
      "inputs": [],
      "name": "DEFAULT_PAYLOAD_SIZE_LIMIT",
      "outputs": [
        {
          "internalType": "uint256",
          "name": "",
          "type": "uint256"
        }
      ],
      "stateMutability": "view",
      "type": "function"
    },
    {
      "inputs": [],
      "name": "DOMAIN_SEPARATOR",
      "outputs": [
        {
          "internalType": "bytes32",
          "name": "",
          "type": "bytes32"
        }
      ],
      "stateMutability": "view",
      "type": "function"
    },
    {
      "inputs": [],
      "name": "NO_EXTRA_GAS",
      "outputs": [
        {
          "internalType": "uint256",
          "name": "",
          "type": "uint256"
        }
      ],
      "stateMutability": "view",
      "type": "function"
    },
    {
      "inputs": [],
      "name": "PT_SEND",
      "outputs": [
        {
          "internalType": "uint8",
          "name": "",
          "type": "uint8"
        }
      ],
      "stateMutability": "view",
      "type": "function"
    },
    {
      "inputs": [],
      "name": "PT_SEND_AND_CALL",
      "outputs": [
        {
          "internalType": "uint8",
          "name": "",
          "type": "uint8"
        }
      ],
      "stateMutability": "view",
      "type": "function"
    },
    {
      "inputs": [
        {
          "internalType": "address",
          "name": "owner",
          "type": "address"
        },
        {
          "internalType": "address",
          "name": "spender",
          "type": "address"
        }
      ],
      "name": "allowance",
      "outputs": [
        {
          "internalType": "uint256",
          "name": "",
          "type": "uint256"
        }
      ],
      "stateMutability": "view",
      "type": "function"
    },
    {
      "inputs": [
        {
          "internalType": "address",
          "name": "spender",
          "type": "address"
        },
        {
          "internalType": "uint256",
          "name": "amount",
          "type": "uint256"
        }
      ],
      "name": "approve",
      "outputs": [
        {
          "internalType": "bool",
          "name": "",
          "type": "bool"
        }
      ],
      "stateMutability": "nonpayable",
      "type": "function"
    },
    {
      "inputs": [
        {
          "internalType": "address",
          "name": "account",
          "type": "address"
        }
      ],
      "name": "balanceOf",
      "outputs": [
        {
          "internalType": "uint256",
          "name": "",
          "type": "uint256"
        }
      ],
      "stateMutability": "view",
      "type": "function"
    },
    {
      "inputs": [
        {
          "internalType": "address",
          "name": "",
          "type": "address"
        }
      ],
      "name": "balancers",
      "outputs": [
        {
          "internalType": "bool",
          "name": "",
          "type": "bool"
        }
      ],
      "stateMutability": "view",
      "type": "function"
    },
    {
      "inputs": [
        {
          "internalType": "uint16",
          "name": "_srcChainId",
          "type": "uint16"
        },
        {
          "internalType": "bytes",
          "name": "_srcAddress",
          "type": "bytes"
        },
        {
          "internalType": "uint64",
          "name": "_nonce",
          "type": "uint64"
        },
        {
          "internalType": "bytes32",
          "name": "_from",
          "type": "bytes32"
        },
        {
          "internalType": "address",
          "name": "_to",
          "type": "address"
        },
        {
          "internalType": "uint256",
          "name": "_amount",
          "type": "uint256"
        },
        {
          "internalType": "bytes",
          "name": "_payload",
          "type": "bytes"
        },
        {
          "internalType": "uint256",
          "name": "_gasForCall",
          "type": "uint256"
        }
      ],
      "name": "callOnOFTReceived",
      "outputs": [],
      "stateMutability": "nonpayable",
      "type": "function"
    },
    {
      "inputs": [],
      "name": "circulatingSupply",
      "outputs": [
        {
          "internalType": "uint256",
          "name": "",
          "type": "uint256"
        }
      ],
      "stateMutability": "view",
      "type": "function"
    },
    {
      "inputs": [],
      "name": "cluster",
      "outputs": [
        {
          "internalType": "contract ICluster",
          "name": "",
          "type": "address"
        }
      ],
      "stateMutability": "view",
      "type": "function"
    },
    {
      "inputs": [
        {
          "internalType": "uint256",
          "name": "",
          "type": "uint256"
        }
      ],
      "name": "connectedChains",
      "outputs": [
        {
          "internalType": "bool",
          "name": "",
          "type": "bool"
        }
      ],
      "stateMutability": "view",
      "type": "function"
    },
    {
      "inputs": [
        {
          "internalType": "uint16",
          "name": "",
          "type": "uint16"
        },
        {
          "internalType": "bytes",
          "name": "",
          "type": "bytes"
        },
        {
          "internalType": "uint64",
          "name": "",
          "type": "uint64"
        }
      ],
      "name": "creditedPackets",
      "outputs": [
        {
          "internalType": "bool",
          "name": "",
          "type": "bool"
        }
      ],
      "stateMutability": "view",
      "type": "function"
    },
    {
      "inputs": [],
      "name": "decimals",
      "outputs": [
        {
          "internalType": "uint8",
          "name": "",
          "type": "uint8"
        }
      ],
      "stateMutability": "view",
      "type": "function"
    },
    {
      "inputs": [
        {
          "internalType": "address",
          "name": "spender",
          "type": "address"
        },
        {
          "internalType": "uint256",
          "name": "subtractedValue",
          "type": "uint256"
        }
      ],
      "name": "decreaseAllowance",
      "outputs": [
        {
          "internalType": "bool",
          "name": "",
          "type": "bool"
        }
      ],
      "stateMutability": "nonpayable",
      "type": "function"
    },
    {
      "inputs": [],
      "name": "erc20",
      "outputs": [
        {
          "internalType": "address",
          "name": "",
          "type": "address"
        }
      ],
      "stateMutability": "view",
      "type": "function"
    },
    {
      "inputs": [
        {
          "internalType": "uint16",
          "name": "_dstChainId",
          "type": "uint16"
        },
        {
          "internalType": "bytes32",
          "name": "_toAddress",
          "type": "bytes32"
        },
        {
          "internalType": "uint256",
          "name": "_amount",
          "type": "uint256"
        },
        {
          "internalType": "bytes",
          "name": "_payload",
          "type": "bytes"
        },
        {
          "internalType": "uint64",
          "name": "_dstGasForCall",
          "type": "uint64"
        },
        {
          "internalType": "bool",
          "name": "_useZro",
          "type": "bool"
        },
        {
          "internalType": "bytes",
          "name": "_adapterParams",
          "type": "bytes"
        }
      ],
      "name": "estimateSendAndCallFee",
      "outputs": [
        {
          "internalType": "uint256",
          "name": "nativeFee",
          "type": "uint256"
        },
        {
          "internalType": "uint256",
          "name": "zroFee",
          "type": "uint256"
        }
      ],
      "stateMutability": "view",
      "type": "function"
    },
    {
      "inputs": [
        {
          "internalType": "uint16",
          "name": "_dstChainId",
          "type": "uint16"
        },
        {
          "internalType": "bytes32",
          "name": "_toAddress",
          "type": "bytes32"
        },
        {
          "internalType": "uint256",
          "name": "_amount",
          "type": "uint256"
        },
        {
          "internalType": "bool",
          "name": "_useZro",
          "type": "bool"
        },
        {
          "internalType": "bytes",
          "name": "_adapterParams",
          "type": "bytes"
        }
      ],
      "name": "estimateSendFee",
      "outputs": [
        {
          "internalType": "uint256",
          "name": "nativeFee",
          "type": "uint256"
        },
        {
          "internalType": "uint256",
          "name": "zroFee",
          "type": "uint256"
        }
      ],
      "stateMutability": "view",
      "type": "function"
    },
    {
      "inputs": [
        {
          "components": [
            {
              "internalType": "address",
              "name": "from",
              "type": "address"
            },
            {
              "internalType": "address",
              "name": "target",
              "type": "address"
            },
            {
              "internalType": "uint256",
              "name": "paymentTokenAmount",
              "type": "uint256"
            },
            {
              "internalType": "uint256",
              "name": "oTAPTokenID",
              "type": "uint256"
            },
            {
              "internalType": "address",
              "name": "paymentToken",
              "type": "address"
            },
            {
              "internalType": "uint256",
              "name": "tapAmount",
              "type": "uint256"
            }
          ],
          "internalType": "struct ITapiocaOptionsBrokerCrossChain.IExerciseOptionsData",
          "name": "optionsData",
          "type": "tuple"
        },
        {
          "components": [
            {
              "internalType": "uint16",
              "name": "lzDstChainId",
              "type": "uint16"
            },
            {
              "internalType": "address",
              "name": "zroPaymentAddress",
              "type": "address"
            },
            {
              "internalType": "uint256",
              "name": "extraGas",
              "type": "uint256"
            }
          ],
          "internalType": "struct ITapiocaOptionsBrokerCrossChain.IExerciseLZData",
          "name": "lzData",
          "type": "tuple"
        },
        {
          "components": [
            {
              "internalType": "bool",
              "name": "withdrawOnAnotherChain",
              "type": "bool"
            },
            {
              "internalType": "address",
              "name": "tapOftAddress",
              "type": "address"
            },
            {
              "internalType": "uint16",
              "name": "lzDstChainId",
              "type": "uint16"
            },
            {
              "internalType": "uint256",
              "name": "amount",
              "type": "uint256"
            },
            {
              "internalType": "address",
              "name": "zroPaymentAddress",
              "type": "address"
            },
            {
              "internalType": "uint256",
              "name": "extraGas",
              "type": "uint256"
            }
          ],
          "internalType": "struct ITapiocaOptionsBrokerCrossChain.IExerciseLZSendTapData",
          "name": "tapSendData",
          "type": "tuple"
        },
        {
          "components": [
            {
              "internalType": "bool",
              "name": "permitAll",
              "type": "bool"
            },
            {
              "internalType": "bool",
              "name": "allowFailure",
              "type": "bool"
            },
            {
              "internalType": "address",
              "name": "target",
              "type": "address"
            },
            {
              "internalType": "bool",
              "name": "permitBorrow",
              "type": "bool"
            },
            {
              "internalType": "address",
              "name": "owner",
              "type": "address"
            },
            {
              "internalType": "address",
              "name": "spender",
              "type": "address"
            },
            {
              "internalType": "uint256",
              "name": "value",
              "type": "uint256"
            },
            {
              "internalType": "uint256",
              "name": "deadline",
              "type": "uint256"
            },
            {
              "internalType": "uint8",
              "name": "v",
              "type": "uint8"
            },
            {
              "internalType": "bytes32",
              "name": "r",
              "type": "bytes32"
            },
            {
              "internalType": "bytes32",
              "name": "s",
              "type": "bytes32"
            }
          ],
          "internalType": "struct ICommonData.IApproval[]",
          "name": "approvals",
          "type": "tuple[]"
        }
      ],
      "name": "exerciseOption",
      "outputs": [],
      "stateMutability": "payable",
      "type": "function"
    },
    {
      "inputs": [
        {
          "internalType": "uint256",
          "name": "_amount",
          "type": "uint256"
        }
      ],
      "name": "extractUnderlying",
      "outputs": [],
      "stateMutability": "nonpayable",
      "type": "function"
    },
    {
      "inputs": [
        {
          "internalType": "uint16",
          "name": "",
          "type": "uint16"
        },
        {
          "internalType": "bytes",
          "name": "",
          "type": "bytes"
        },
        {
          "internalType": "uint64",
          "name": "",
          "type": "uint64"
        }
      ],
      "name": "failedMessages",
      "outputs": [
        {
          "internalType": "bytes32",
          "name": "",
          "type": "bytes32"
        }
      ],
      "stateMutability": "view",
      "type": "function"
    },
    {
      "inputs": [
        {
          "internalType": "uint16",
          "name": "_srcChainId",
          "type": "uint16"
        },
        {
          "internalType": "bytes",
          "name": "_srcAddress",
          "type": "bytes"
        }
      ],
      "name": "forceResumeReceive",
      "outputs": [],
      "stateMutability": "nonpayable",
      "type": "function"
    },
    {
      "inputs": [
        {
          "internalType": "uint16",
          "name": "_version",
          "type": "uint16"
        },
        {
          "internalType": "uint16",
          "name": "_chainId",
          "type": "uint16"
        },
        {
          "internalType": "address",
          "name": "",
          "type": "address"
        },
        {
          "internalType": "uint256",
          "name": "_configType",
          "type": "uint256"
        }
      ],
      "name": "getConfig",
      "outputs": [
        {
          "internalType": "bytes",
          "name": "",
          "type": "bytes"
        }
      ],
      "stateMutability": "view",
      "type": "function"
    },
    {
      "inputs": [
        {
          "internalType": "uint16",
          "name": "_remoteChainId",
          "type": "uint16"
        }
      ],
      "name": "getTrustedRemoteAddress",
      "outputs": [
        {
          "internalType": "bytes",
          "name": "",
          "type": "bytes"
        }
      ],
      "stateMutability": "view",
      "type": "function"
    },
    {
      "inputs": [],
      "name": "hostChainID",
      "outputs": [
        {
          "internalType": "uint256",
          "name": "",
          "type": "uint256"
        }
      ],
      "stateMutability": "view",
      "type": "function"
    },
    {
      "inputs": [
        {
          "internalType": "address",
          "name": "spender",
          "type": "address"
        },
        {
          "internalType": "uint256",
          "name": "addedValue",
          "type": "uint256"
        }
      ],
      "name": "increaseAllowance",
      "outputs": [
        {
          "internalType": "bool",
          "name": "",
          "type": "bool"
        }
      ],
      "stateMutability": "nonpayable",
      "type": "function"
    },
    {
      "inputs": [
        {
          "internalType": "address",
          "name": "from",
          "type": "address"
        },
        {
          "internalType": "uint256",
          "name": "share",
          "type": "uint256"
        },
        {
          "components": [
            {
              "internalType": "address",
              "name": "tokenOut",
              "type": "address"
            },
            {
              "internalType": "uint256",
              "name": "amountOutMin",
              "type": "uint256"
            },
            {
              "internalType": "bytes",
              "name": "data",
              "type": "bytes"
            }
          ],
          "internalType": "struct IUSDOBase.ILeverageSwapData",
          "name": "swapData",
          "type": "tuple"
        },
        {
          "components": [
            {
              "internalType": "uint256",
              "name": "srcExtraGasLimit",
              "type": "uint256"
            },
            {
              "internalType": "uint16",
              "name": "lzSrcChainId",
              "type": "uint16"
            },
            {
              "internalType": "uint16",
              "name": "lzDstChainId",
              "type": "uint16"
            },
            {
              "internalType": "address",
              "name": "zroPaymentAddress",
              "type": "address"
            },
            {
              "internalType": "bytes",
              "name": "dstAirdropAdapterParam",
              "type": "bytes"
            },
            {
              "internalType": "bytes",
              "name": "srcAirdropAdapterParam",
              "type": "bytes"
            },
            {
              "internalType": "address",
              "name": "refundAddress",
              "type": "address"
            }
          ],
          "internalType": "struct IUSDOBase.ILeverageLZData",
          "name": "lzData",
          "type": "tuple"
        },
        {
          "components": [
            {
              "internalType": "address",
              "name": "swapper",
              "type": "address"
            },
            {
              "internalType": "address",
              "name": "magnetar",
              "type": "address"
            },
            {
              "internalType": "address",
              "name": "tOft",
              "type": "address"
            },
            {
              "internalType": "address",
              "name": "srcMarket",
              "type": "address"
            }
          ],
          "internalType": "struct IUSDOBase.ILeverageExternalContractsData",
          "name": "externalData",
          "type": "tuple"
        },
        {
          "internalType": "bytes",
          "name": "airdropAdapterParams",
          "type": "bytes"
        },
        {
          "components": [
            {
              "internalType": "bool",
              "name": "permitAll",
              "type": "bool"
            },
            {
              "internalType": "bool",
              "name": "allowFailure",
              "type": "bool"
            },
            {
              "internalType": "address",
              "name": "target",
              "type": "address"
            },
            {
              "internalType": "bool",
              "name": "permitBorrow",
              "type": "bool"
            },
            {
              "internalType": "address",
              "name": "owner",
              "type": "address"
            },
            {
              "internalType": "address",
              "name": "spender",
              "type": "address"
            },
            {
              "internalType": "uint256",
              "name": "value",
              "type": "uint256"
            },
            {
              "internalType": "uint256",
              "name": "deadline",
              "type": "uint256"
            },
            {
              "internalType": "uint8",
              "name": "v",
              "type": "uint8"
            },
            {
              "internalType": "bytes32",
              "name": "r",
              "type": "bytes32"
            },
            {
              "internalType": "bytes32",
              "name": "s",
              "type": "bytes32"
            }
          ],
          "internalType": "struct ICommonData.IApproval[]",
          "name": "approvals",
          "type": "tuple[]"
        }
      ],
      "name": "initMultiSell",
      "outputs": [],
      "stateMutability": "payable",
      "type": "function"
    },
    {
      "inputs": [
        {
          "internalType": "uint16",
          "name": "_srcChainId",
          "type": "uint16"
        },
        {
          "internalType": "bytes",
          "name": "_srcAddress",
          "type": "bytes"
        }
      ],
      "name": "isTrustedRemote",
      "outputs": [
        {
          "internalType": "bool",
          "name": "",
          "type": "bool"
        }
      ],
      "stateMutability": "view",
      "type": "function"
    },
    {
      "inputs": [],
      "name": "leverageModule",
      "outputs": [
        {
          "internalType": "contract BaseTOFTLeverageModule",
          "name": "",
          "type": "address"
        }
      ],
      "stateMutability": "view",
      "type": "function"
    },
    {
      "inputs": [],
      "name": "lzEndpoint",
      "outputs": [
        {
          "internalType": "contract ILayerZeroEndpoint",
          "name": "",
          "type": "address"
        }
      ],
      "stateMutability": "view",
      "type": "function"
    },
    {
      "inputs": [
        {
          "internalType": "uint16",
          "name": "_srcChainId",
          "type": "uint16"
        },
        {
          "internalType": "bytes",
          "name": "_srcAddress",
          "type": "bytes"
        },
        {
          "internalType": "uint64",
          "name": "_nonce",
          "type": "uint64"
        },
        {
          "internalType": "bytes",
          "name": "_payload",
          "type": "bytes"
        }
      ],
      "name": "lzReceive",
      "outputs": [],
      "stateMutability": "nonpayable",
      "type": "function"
    },
    {
      "inputs": [],
      "name": "marketModule",
      "outputs": [
        {
          "internalType": "contract BaseTOFTMarketModule",
          "name": "",
          "type": "address"
        }
      ],
      "stateMutability": "view",
      "type": "function"
    },
    {
      "inputs": [
        {
          "internalType": "uint16",
          "name": "",
          "type": "uint16"
        },
        {
          "internalType": "uint16",
          "name": "",
          "type": "uint16"
        }
      ],
      "name": "minDstGasLookup",
      "outputs": [
        {
          "internalType": "uint256",
          "name": "",
          "type": "uint256"
        }
      ],
      "stateMutability": "view",
      "type": "function"
    },
    {
      "inputs": [],
      "name": "name",
      "outputs": [
        {
          "internalType": "string",
          "name": "",
          "type": "string"
        }
      ],
      "stateMutability": "view",
      "type": "function"
    },
    {
      "inputs": [
        {
          "internalType": "uint16",
          "name": "_srcChainId",
          "type": "uint16"
        },
        {
          "internalType": "bytes",
          "name": "_srcAddress",
          "type": "bytes"
        },
        {
          "internalType": "uint64",
          "name": "_nonce",
          "type": "uint64"
        },
        {
          "internalType": "bytes",
          "name": "_payload",
          "type": "bytes"
        }
      ],
      "name": "nonblockingLzReceive",
      "outputs": [],
      "stateMutability": "nonpayable",
      "type": "function"
    },
    {
      "inputs": [
        {
          "internalType": "address",
          "name": "owner",
          "type": "address"
        }
      ],
      "name": "nonces",
      "outputs": [
        {
          "internalType": "uint256",
          "name": "",
          "type": "uint256"
        }
      ],
      "stateMutability": "view",
      "type": "function"
    },
    {
      "inputs": [],
      "name": "optionsModule",
      "outputs": [
        {
          "internalType": "contract BaseTOFTOptionsModule",
          "name": "",
          "type": "address"
        }
      ],
      "stateMutability": "view",
      "type": "function"
    },
    {
      "inputs": [],
      "name": "owner",
      "outputs": [
        {
          "internalType": "address",
          "name": "",
          "type": "address"
        }
      ],
      "stateMutability": "view",
      "type": "function"
    },
    {
      "inputs": [
        {
          "internalType": "uint16",
          "name": "",
          "type": "uint16"
        }
      ],
      "name": "payloadSizeLimitLookup",
      "outputs": [
        {
          "internalType": "uint256",
          "name": "",
          "type": "uint256"
        }
      ],
      "stateMutability": "view",
      "type": "function"
    },
    {
      "inputs": [
        {
          "internalType": "address",
          "name": "owner",
          "type": "address"
        },
        {
          "internalType": "address",
          "name": "spender",
          "type": "address"
        },
        {
          "internalType": "uint256",
          "name": "value",
          "type": "uint256"
        },
        {
          "internalType": "uint256",
          "name": "deadline",
          "type": "uint256"
        },
        {
          "internalType": "uint8",
          "name": "v",
          "type": "uint8"
        },
        {
          "internalType": "bytes32",
          "name": "r",
          "type": "bytes32"
        },
        {
          "internalType": "bytes32",
          "name": "s",
          "type": "bytes32"
        }
      ],
      "name": "permit",
      "outputs": [],
      "stateMutability": "nonpayable",
      "type": "function"
    },
    {
      "inputs": [],
      "name": "precrime",
      "outputs": [
        {
          "internalType": "address",
          "name": "",
          "type": "address"
        }
      ],
      "stateMutability": "view",
      "type": "function"
    },
    {
      "inputs": [
        {
          "internalType": "address",
          "name": "from",
          "type": "address"
        },
        {
          "internalType": "address",
          "name": "to",
          "type": "address"
        },
        {
          "internalType": "uint16",
          "name": "lzDstChainId",
          "type": "uint16"
        },
        {
          "internalType": "address",
          "name": "zroPaymentAddress",
          "type": "address"
        },
        {
          "components": [
            {
              "internalType": "bool",
              "name": "withdraw",
              "type": "bool"
            },
            {
              "internalType": "uint256",
              "name": "withdrawLzFeeAmount",
              "type": "uint256"
            },
            {
              "internalType": "bool",
              "name": "withdrawOnOtherChain",
              "type": "bool"
            },
            {
              "internalType": "uint16",
              "name": "withdrawLzChainId",
              "type": "uint16"
            },
            {
              "internalType": "bytes",
              "name": "withdrawAdapterParams",
              "type": "bytes"
            }
          ],
          "internalType": "struct ICommonData.IWithdrawParams",
          "name": "withdrawParams",
          "type": "tuple"
        },
        {
          "components": [
            {
              "internalType": "uint256",
              "name": "amount",
              "type": "uint256"
            },
            {
              "internalType": "address",
              "name": "marketHelper",
              "type": "address"
            },
            {
              "internalType": "address",
              "name": "market",
              "type": "address"
            }
          ],
          "internalType": "struct ITapiocaOFT.IRemoveParams",
          "name": "removeParams",
          "type": "tuple"
        },
        {
          "components": [
            {
              "internalType": "bool",
              "name": "permitAll",
              "type": "bool"
            },
            {
              "internalType": "bool",
              "name": "allowFailure",
              "type": "bool"
            },
            {
              "internalType": "address",
              "name": "target",
              "type": "address"
            },
            {
              "internalType": "bool",
              "name": "permitBorrow",
              "type": "bool"
            },
            {
              "internalType": "address",
              "name": "owner",
              "type": "address"
            },
            {
              "internalType": "address",
              "name": "spender",
              "type": "address"
            },
            {
              "internalType": "uint256",
              "name": "value",
              "type": "uint256"
            },
            {
              "internalType": "uint256",
              "name": "deadline",
              "type": "uint256"
            },
            {
              "internalType": "uint8",
              "name": "v",
              "type": "uint8"
            },
            {
              "internalType": "bytes32",
              "name": "r",
              "type": "bytes32"
            },
            {
              "internalType": "bytes32",
              "name": "s",
              "type": "bytes32"
            }
          ],
          "internalType": "struct ICommonData.IApproval[]",
          "name": "approvals",
          "type": "tuple[]"
        },
        {
          "internalType": "bytes",
          "name": "adapterParams",
          "type": "bytes"
        }
      ],
      "name": "removeCollateral",
      "outputs": [],
      "stateMutability": "payable",
      "type": "function"
    },
    {
      "inputs": [],
      "name": "renounceOwnership",
      "outputs": [],
      "stateMutability": "nonpayable",
      "type": "function"
    },
    {
      "inputs": [
        {
          "internalType": "uint256",
          "name": "amount",
          "type": "uint256"
        },
        {
          "internalType": "address",
          "name": "to",
          "type": "address"
        }
      ],
      "name": "rescueEth",
      "outputs": [],
      "stateMutability": "nonpayable",
      "type": "function"
    },
    {
      "inputs": [
        {
          "internalType": "address",
          "name": "from",
          "type": "address"
        },
        {
          "internalType": "uint256",
          "name": "amount",
          "type": "uint256"
        },
        {
          "internalType": "uint256",
          "name": "assetId",
          "type": "uint256"
        },
        {
          "internalType": "uint16",
          "name": "lzDstChainId",
          "type": "uint16"
        },
        {
          "internalType": "address",
          "name": "zroPaymentAddress",
          "type": "address"
        },
        {
          "internalType": "bytes",
          "name": "airdropAdapterParam",
          "type": "bytes"
        },
        {
          "components": [
            {
              "internalType": "bool",
              "name": "permitAll",
              "type": "bool"
            },
            {
              "internalType": "bool",
              "name": "allowFailure",
              "type": "bool"
            },
            {
              "internalType": "address",
              "name": "target",
              "type": "address"
            },
            {
              "internalType": "bool",
              "name": "permitBorrow",
              "type": "bool"
            },
            {
              "internalType": "address",
              "name": "owner",
              "type": "address"
            },
            {
              "internalType": "address",
              "name": "spender",
              "type": "address"
            },
            {
              "internalType": "uint256",
              "name": "value",
              "type": "uint256"
            },
            {
              "internalType": "uint256",
              "name": "deadline",
              "type": "uint256"
            },
            {
              "internalType": "uint8",
              "name": "v",
              "type": "uint8"
            },
            {
              "internalType": "bytes32",
              "name": "r",
              "type": "bytes32"
            },
            {
              "internalType": "bytes32",
              "name": "s",
              "type": "bytes32"
            }
          ],
          "internalType": "struct ICommonData.IApproval[]",
          "name": "approvals",
          "type": "tuple[]"
        }
      ],
      "name": "retrieveFromStrategy",
      "outputs": [],
      "stateMutability": "payable",
      "type": "function"
    },
    {
      "inputs": [
        {
          "internalType": "uint16",
          "name": "_srcChainId",
          "type": "uint16"
        },
        {
          "internalType": "bytes",
          "name": "_srcAddress",
          "type": "bytes"
        },
        {
          "internalType": "uint64",
          "name": "_nonce",
          "type": "uint64"
        },
        {
          "internalType": "bytes",
          "name": "_payload",
          "type": "bytes"
        }
      ],
      "name": "retryMessage",
      "outputs": [],
      "stateMutability": "payable",
      "type": "function"
    },
    {
      "inputs": [
        {
          "internalType": "address",
          "name": "_from",
          "type": "address"
        },
        {
          "internalType": "uint16",
          "name": "_dstChainId",
          "type": "uint16"
        },
        {
          "internalType": "bytes32",
          "name": "_toAddress",
          "type": "bytes32"
        },
        {
          "internalType": "uint256",
          "name": "_amount",
          "type": "uint256"
        },
        {
          "internalType": "bytes",
          "name": "_payload",
          "type": "bytes"
        },
        {
          "internalType": "uint64",
          "name": "_dstGasForCall",
          "type": "uint64"
        },
        {
          "components": [
            {
              "internalType": "address payable",
              "name": "refundAddress",
              "type": "address"
            },
            {
              "internalType": "address",
              "name": "zroPaymentAddress",
              "type": "address"
            },
            {
              "internalType": "bytes",
              "name": "adapterParams",
              "type": "bytes"
            }
          ],
          "internalType": "struct ICommonOFT.LzCallParams",
          "name": "_callParams",
          "type": "tuple"
        }
      ],
      "name": "sendAndCall",
      "outputs": [],
      "stateMutability": "payable",
      "type": "function"
    },
    {
      "inputs": [
        {
          "internalType": "uint256",
          "name": "amount",
          "type": "uint256"
        },
        {
          "internalType": "address",
          "name": "leverageFor",
          "type": "address"
        },
        {
          "components": [
            {
              "internalType": "uint256",
              "name": "srcExtraGasLimit",
              "type": "uint256"
            },
            {
              "internalType": "uint16",
              "name": "lzSrcChainId",
              "type": "uint16"
            },
            {
              "internalType": "uint16",
              "name": "lzDstChainId",
              "type": "uint16"
            },
            {
              "internalType": "address",
              "name": "zroPaymentAddress",
              "type": "address"
            },
            {
              "internalType": "bytes",
              "name": "dstAirdropAdapterParam",
              "type": "bytes"
            },
            {
              "internalType": "bytes",
              "name": "srcAirdropAdapterParam",
              "type": "bytes"
            },
            {
              "internalType": "address",
              "name": "refundAddress",
              "type": "address"
            }
          ],
          "internalType": "struct IUSDOBase.ILeverageLZData",
          "name": "lzData",
          "type": "tuple"
        },
        {
          "components": [
            {
              "internalType": "address",
              "name": "tokenOut",
              "type": "address"
            },
            {
              "internalType": "uint256",
              "name": "amountOutMin",
              "type": "uint256"
            },
            {
              "internalType": "bytes",
              "name": "data",
              "type": "bytes"
            }
          ],
          "internalType": "struct IUSDOBase.ILeverageSwapData",
          "name": "swapData",
          "type": "tuple"
        },
        {
          "components": [
            {
              "internalType": "address",
              "name": "swapper",
              "type": "address"
            },
            {
              "internalType": "address",
              "name": "magnetar",
              "type": "address"
            },
            {
              "internalType": "address",
              "name": "tOft",
              "type": "address"
            },
            {
              "internalType": "address",
              "name": "srcMarket",
              "type": "address"
            }
          ],
          "internalType": "struct IUSDOBase.ILeverageExternalContractsData",
          "name": "externalData",
          "type": "tuple"
        }
      ],
      "name": "sendForLeverage",
      "outputs": [],
      "stateMutability": "payable",
      "type": "function"
    },
    {
      "inputs": [
        {
          "internalType": "address",
          "name": "_from",
          "type": "address"
        },
        {
          "internalType": "uint16",
          "name": "_dstChainId",
          "type": "uint16"
        },
        {
          "internalType": "bytes32",
          "name": "_toAddress",
          "type": "bytes32"
        },
        {
          "internalType": "uint256",
          "name": "_amount",
          "type": "uint256"
        },
        {
          "components": [
            {
              "internalType": "address payable",
              "name": "refundAddress",
              "type": "address"
            },
            {
              "internalType": "address",
              "name": "zroPaymentAddress",
              "type": "address"
            },
            {
              "internalType": "bytes",
              "name": "adapterParams",
              "type": "bytes"
            }
          ],
          "internalType": "struct ICommonOFT.LzCallParams",
          "name": "_callParams",
          "type": "tuple"
        }
      ],
      "name": "sendFrom",
      "outputs": [],
      "stateMutability": "payable",
      "type": "function"
    },
    {
      "inputs": [
        {
          "internalType": "address",
          "name": "from",
          "type": "address"
        },
        {
          "internalType": "address",
          "name": "to",
          "type": "address"
        },
        {
          "internalType": "uint256",
          "name": "amount",
          "type": "uint256"
        },
        {
          "internalType": "uint256",
          "name": "assetId",
          "type": "uint256"
        },
        {
          "internalType": "uint16",
          "name": "lzDstChainId",
          "type": "uint16"
        },
        {
          "components": [
            {
              "internalType": "uint256",
              "name": "extraGasLimit",
              "type": "uint256"
            },
            {
              "internalType": "address",
              "name": "zroPaymentAddress",
              "type": "address"
            }
          ],
          "internalType": "struct ICommonData.ISendOptions",
          "name": "options",
          "type": "tuple"
        }
      ],
      "name": "sendToStrategy",
      "outputs": [],
      "stateMutability": "payable",
      "type": "function"
    },
    {
      "inputs": [
        {
          "internalType": "address",
          "name": "from",
          "type": "address"
        },
        {
          "internalType": "address",
          "name": "to",
          "type": "address"
        },
        {
          "internalType": "uint16",
          "name": "lzDstChainId",
          "type": "uint16"
        },
        {
          "internalType": "bytes",
          "name": "airdropAdapterParams",
          "type": "bytes"
        },
        {
          "components": [
            {
              "internalType": "uint256",
              "name": "amount",
              "type": "uint256"
            },
            {
              "internalType": "uint256",
              "name": "borrowAmount",
              "type": "uint256"
            },
            {
              "internalType": "address",
              "name": "marketHelper",
              "type": "address"
            },
            {
              "internalType": "address",
              "name": "market",
              "type": "address"
            }
          ],
          "internalType": "struct ITapiocaOFT.IBorrowParams",
          "name": "borrowParams",
          "type": "tuple"
        },
        {
          "components": [
            {
              "internalType": "bool",
              "name": "withdraw",
              "type": "bool"
            },
            {
              "internalType": "uint256",
              "name": "withdrawLzFeeAmount",
              "type": "uint256"
            },
            {
              "internalType": "bool",
              "name": "withdrawOnOtherChain",
              "type": "bool"
            },
            {
              "internalType": "uint16",
              "name": "withdrawLzChainId",
              "type": "uint16"
            },
            {
              "internalType": "bytes",
              "name": "withdrawAdapterParams",
              "type": "bytes"
            }
          ],
          "internalType": "struct ICommonData.IWithdrawParams",
          "name": "withdrawParams",
          "type": "tuple"
        },
        {
          "components": [
            {
              "internalType": "uint256",
              "name": "extraGasLimit",
              "type": "uint256"
            },
            {
              "internalType": "address",
              "name": "zroPaymentAddress",
              "type": "address"
            }
          ],
          "internalType": "struct ICommonData.ISendOptions",
          "name": "options",
          "type": "tuple"
        },
        {
          "components": [
            {
              "internalType": "bool",
              "name": "permitAll",
              "type": "bool"
            },
            {
              "internalType": "bool",
              "name": "allowFailure",
              "type": "bool"
            },
            {
              "internalType": "address",
              "name": "target",
              "type": "address"
            },
            {
              "internalType": "bool",
              "name": "permitBorrow",
              "type": "bool"
            },
            {
              "internalType": "address",
              "name": "owner",
              "type": "address"
            },
            {
              "internalType": "address",
              "name": "spender",
              "type": "address"
            },
            {
              "internalType": "uint256",
              "name": "value",
              "type": "uint256"
            },
            {
              "internalType": "uint256",
              "name": "deadline",
              "type": "uint256"
            },
            {
              "internalType": "uint8",
              "name": "v",
              "type": "uint8"
            },
            {
              "internalType": "bytes32",
              "name": "r",
              "type": "bytes32"
            },
            {
              "internalType": "bytes32",
              "name": "s",
              "type": "bytes32"
            }
          ],
          "internalType": "struct ICommonData.IApproval[]",
          "name": "approvals",
          "type": "tuple[]"
        }
      ],
      "name": "sendToYBAndBorrow",
      "outputs": [],
      "stateMutability": "payable",
      "type": "function"
    },
    {
      "inputs": [
        {
          "internalType": "uint16",
          "name": "_version",
          "type": "uint16"
        },
        {
          "internalType": "uint16",
          "name": "_chainId",
          "type": "uint16"
        },
        {
          "internalType": "uint256",
          "name": "_configType",
          "type": "uint256"
        },
        {
          "internalType": "bytes",
          "name": "_config",
          "type": "bytes"
        }
      ],
      "name": "setConfig",
      "outputs": [],
      "stateMutability": "nonpayable",
      "type": "function"
    },
    {
      "inputs": [
        {
          "internalType": "uint16",
          "name": "_dstChainId",
          "type": "uint16"
        },
        {
          "internalType": "uint16",
          "name": "_packetType",
          "type": "uint16"
        },
        {
          "internalType": "uint256",
          "name": "_minGas",
          "type": "uint256"
        }
      ],
      "name": "setMinDstGas",
      "outputs": [],
      "stateMutability": "nonpayable",
      "type": "function"
    },
    {
      "inputs": [
        {
          "internalType": "uint16",
          "name": "_dstChainId",
          "type": "uint16"
        },
        {
          "internalType": "uint256",
          "name": "_size",
          "type": "uint256"
        }
      ],
      "name": "setPayloadSizeLimit",
      "outputs": [],
      "stateMutability": "nonpayable",
      "type": "function"
    },
    {
      "inputs": [
        {
          "internalType": "address",
          "name": "_precrime",
          "type": "address"
        }
      ],
      "name": "setPrecrime",
      "outputs": [],
      "stateMutability": "nonpayable",
      "type": "function"
    },
    {
      "inputs": [
        {
          "internalType": "uint16",
          "name": "_version",
          "type": "uint16"
        }
      ],
      "name": "setReceiveVersion",
      "outputs": [],
      "stateMutability": "nonpayable",
      "type": "function"
    },
    {
      "inputs": [
        {
          "internalType": "uint16",
          "name": "_version",
          "type": "uint16"
        }
      ],
      "name": "setSendVersion",
      "outputs": [],
      "stateMutability": "nonpayable",
      "type": "function"
    },
    {
      "inputs": [
        {
          "internalType": "uint16",
          "name": "_srcChainId",
          "type": "uint16"
        },
        {
          "internalType": "bytes",
          "name": "_path",
          "type": "bytes"
        }
      ],
      "name": "setTrustedRemote",
      "outputs": [],
      "stateMutability": "nonpayable",
      "type": "function"
    },
    {
      "inputs": [
        {
          "internalType": "uint16",
          "name": "_remoteChainId",
          "type": "uint16"
        },
        {
          "internalType": "bytes",
          "name": "_remoteAddress",
          "type": "bytes"
        }
      ],
      "name": "setTrustedRemoteAddress",
      "outputs": [],
      "stateMutability": "nonpayable",
      "type": "function"
    },
    {
      "inputs": [
        {
          "internalType": "bool",
          "name": "_useCustomAdapterParams",
          "type": "bool"
        }
      ],
      "name": "setUseCustomAdapterParams",
      "outputs": [],
      "stateMutability": "nonpayable",
      "type": "function"
    },
    {
      "inputs": [
        {
          "internalType": "uint16",
          "name": "",
          "type": "uint16"
        },
        {
          "internalType": "bytes",
          "name": "",
          "type": "bytes"
        },
        {
          "internalType": "uint256",
          "name": "",
          "type": "uint256"
        },
        {
          "internalType": "address",
          "name": "",
          "type": "address"
        },
        {
          "internalType": "uint256",
          "name": "",
          "type": "uint256"
        },
        {
          "internalType": "bytes",
          "name": "",
          "type": "bytes"
        }
      ],
      "name": "sgReceive",
      "outputs": [],
      "stateMutability": "nonpayable",
      "type": "function"
    },
    {
      "inputs": [],
      "name": "sharedDecimals",
      "outputs": [
        {
          "internalType": "uint8",
          "name": "",
          "type": "uint8"
        }
      ],
      "stateMutability": "view",
      "type": "function"
    },
    {
      "inputs": [],
      "name": "strategyModule",
      "outputs": [
        {
          "internalType": "contract BaseTOFTStrategyModule",
          "name": "",
          "type": "address"
        }
      ],
      "stateMutability": "view",
      "type": "function"
    },
    {
      "inputs": [
        {
          "internalType": "bytes4",
          "name": "interfaceId",
          "type": "bytes4"
        }
      ],
      "name": "supportsInterface",
      "outputs": [
        {
          "internalType": "bool",
          "name": "",
          "type": "bool"
        }
      ],
      "stateMutability": "view",
      "type": "function"
    },
    {
      "inputs": [],
      "name": "symbol",
      "outputs": [
        {
          "internalType": "string",
          "name": "",
          "type": "string"
        }
      ],
      "stateMutability": "view",
      "type": "function"
    },
    {
      "inputs": [],
      "name": "token",
      "outputs": [
        {
          "internalType": "address",
          "name": "",
          "type": "address"
        }
      ],
      "stateMutability": "view",
      "type": "function"
    },
    {
      "inputs": [],
      "name": "totalSupply",
      "outputs": [
        {
          "internalType": "uint256",
          "name": "",
          "type": "uint256"
        }
      ],
      "stateMutability": "view",
      "type": "function"
    },
    {
      "inputs": [
        {
          "internalType": "address",
          "name": "to",
          "type": "address"
        },
        {
          "internalType": "uint256",
          "name": "amount",
          "type": "uint256"
        }
      ],
      "name": "transfer",
      "outputs": [
        {
          "internalType": "bool",
          "name": "",
          "type": "bool"
        }
      ],
      "stateMutability": "nonpayable",
      "type": "function"
    },
    {
      "inputs": [
        {
          "internalType": "address",
          "name": "from",
          "type": "address"
        },
        {
          "internalType": "address",
          "name": "to",
          "type": "address"
        },
        {
          "internalType": "uint256",
          "name": "amount",
          "type": "uint256"
        }
      ],
      "name": "transferFrom",
      "outputs": [
        {
          "internalType": "bool",
          "name": "",
          "type": "bool"
        }
      ],
      "stateMutability": "nonpayable",
      "type": "function"
    },
    {
      "inputs": [
        {
          "internalType": "address",
          "name": "newOwner",
          "type": "address"
        }
      ],
      "name": "transferOwnership",
      "outputs": [],
      "stateMutability": "nonpayable",
      "type": "function"
    },
    {
      "inputs": [
        {
          "internalType": "uint16",
          "name": "lzDstChainId",
          "type": "uint16"
        },
        {
          "internalType": "bytes",
          "name": "airdropAdapterParams",
          "type": "bytes"
        },
        {
          "internalType": "address",
          "name": "zroPaymentAddress",
          "type": "address"
        },
        {
          "internalType": "uint256",
          "name": "amount",
          "type": "uint256"
        },
        {
          "components": [
            {
              "internalType": "address payable",
              "name": "refundAddress",
              "type": "address"
            },
            {
              "internalType": "address",
              "name": "zroPaymentAddress",
              "type": "address"
            },
            {
              "internalType": "bytes",
              "name": "adapterParams",
              "type": "bytes"
            }
          ],
          "internalType": "struct ISendFrom.LzCallParams",
          "name": "sendFromData",
          "type": "tuple"
        },
        {
          "components": [
            {
              "internalType": "bool",
              "name": "permitAll",
              "type": "bool"
            },
            {
              "internalType": "bool",
              "name": "allowFailure",
              "type": "bool"
            },
            {
              "internalType": "address",
              "name": "target",
              "type": "address"
            },
            {
              "internalType": "bool",
              "name": "permitBorrow",
              "type": "bool"
            },
            {
              "internalType": "address",
              "name": "owner",
              "type": "address"
            },
            {
              "internalType": "address",
              "name": "spender",
              "type": "address"
            },
            {
              "internalType": "uint256",
              "name": "value",
              "type": "uint256"
            },
            {
              "internalType": "uint256",
              "name": "deadline",
              "type": "uint256"
            },
            {
              "internalType": "uint8",
              "name": "v",
              "type": "uint8"
            },
            {
              "internalType": "bytes32",
              "name": "r",
              "type": "bytes32"
            },
            {
              "internalType": "bytes32",
              "name": "s",
              "type": "bytes32"
            }
          ],
          "internalType": "struct ICommonData.IApproval[]",
          "name": "approvals",
          "type": "tuple[]"
        }
      ],
      "name": "triggerSendFrom",
      "outputs": [],
      "stateMutability": "payable",
      "type": "function"
    },
    {
      "inputs": [
        {
          "internalType": "uint16",
          "name": "",
          "type": "uint16"
        }
      ],
      "name": "trustedRemoteLookup",
      "outputs": [
        {
          "internalType": "bytes",
          "name": "",
          "type": "bytes"
        }
      ],
      "stateMutability": "view",
      "type": "function"
    },
    {
      "inputs": [
        {
          "internalType": "address",
          "name": "_toAddress",
          "type": "address"
        },
        {
          "internalType": "uint256",
          "name": "_amount",
          "type": "uint256"
        }
      ],
      "name": "unwrap",
      "outputs": [],
      "stateMutability": "nonpayable",
      "type": "function"
    },
    {
      "inputs": [
        {
          "internalType": "address",
          "name": "_balancer",
          "type": "address"
        },
        {
          "internalType": "bool",
          "name": "_status",
          "type": "bool"
        }
      ],
      "name": "updateBalancerState",
      "outputs": [],
      "stateMutability": "nonpayable",
      "type": "function"
    },
    {
      "inputs": [
        {
          "internalType": "uint256",
          "name": "_chain",
          "type": "uint256"
        },
        {
          "internalType": "bool",
          "name": "_status",
          "type": "bool"
        }
      ],
      "name": "updateConnectedChain",
      "outputs": [],
      "stateMutability": "nonpayable",
      "type": "function"
    },
    {
      "inputs": [],
      "name": "useCustomAdapterParams",
      "outputs": [
        {
          "internalType": "bool",
          "name": "",
          "type": "bool"
        }
      ],
      "stateMutability": "view",
      "type": "function"
    },
    {
      "inputs": [
        {
          "internalType": "address",
          "name": "_fromAddress",
          "type": "address"
        },
        {
          "internalType": "address",
          "name": "_toAddress",
          "type": "address"
        },
        {
          "internalType": "uint256",
          "name": "_amount",
          "type": "uint256"
        }
      ],
      "name": "wrap",
      "outputs": [],
      "stateMutability": "payable",
      "type": "function"
    },
    {
      "inputs": [],
      "name": "yieldBox",
      "outputs": [
        {
          "internalType": "contract IYieldBoxBase",
          "name": "",
          "type": "address"
        }
      ],
      "stateMutability": "view",
      "type": "function"
    },
    {
      "stateMutability": "payable",
      "type": "receive"
    }
  ],
  "bytecode": "0x6101a060405234620008c157620068fa803803809162000022826101a0620008c6565b6101a0396101a0016101806101a0820312620008c157620000456101a0620008ea565b90620000536101c0620008ea565b6101e0516001600160a01b0381168103620008c15761020051926001600160a01b0384168403620008c157610220516001600160401b038111620008c15781620000a1916101a00162000924565b6102405190916001600160401b038211620008c157620000c5916101a00162000924565b9160c06101a001519160ff83168303620008c1576102805195620000eb6102a0620008ea565b92620000f96102c0620008ea565b96620001076102e0620008ea565b9562000115610300620008ea565b97604051956a546170696f63614f46542d60a81b60208801526200015a602b888351620001498184840160208801620008ff565b810103600b81018a520188620008c6565b604080519d908e016001600160401b0381118f821017620005fa5760208f603160f81b92604052600181520152620001cc602b60405180946a546170696f63614f46542d60a81b6020830152620001bb8151809260208686019101620008ff565b810103600b810185520183620008c6565b6200020760216040518095601d60fa1b6020830152620001f68151809260208686019101620008ff565b8101036001810186520184620008c6565b60008054336001600160a01b0319821681178355916001600160a01b03909116907f8be0079c531659141344cd1fd0a4f28419497f9722a3daafe3b4186f6b6457e09080a36001600160a01b0316608052600183901c607f1660a0528051906001600160401b038211620005fa57600b5490600182811c92168015620008b6575b6020831014620007885781601f84931162000844575b50602090601f8311600114620007b557600092620007a9575b50508160011b916000199060031b1c191617600b555b8051906001600160401b038211620005fa57600c5490600182811c921680156200079e575b6020831014620007885781601f84931162000716575b50602090601f831160011462000687576000926200067b575b50508160011b916000199060031b1c191617600c555b60ff620003436200097f565b1680607f8360011c16116200062657607f8260011c1690039160ff83116200061057604d60ff841611620006105760ff809316600a0a60c05260018060a01b031660018060a01b0319600f541617600f551660ff1960115416176011558760105560018060a01b031660018060a01b0319600d541617600d5560018060a01b031660018060a01b0319600e541617600e5560208151910120956020815191012086610140528061016052466101005260405196600080516020620068da8339815191526020890152604088015260608701524660808701523060a087015260a086528560c081011060018060401b0360c088011117620005fa5760c086016040908152865160208089019190912060e0523061012052600080516020620068da83398151915261018052601580546001600160a01b039485166001600160a01b0319918216811790925560168054988616988216891790556017805496861696821687179055601880549790951696168617909355600092835260129052808220805460ff199081166001908117909255958352818320805487168217905592825280822080548616841790559281529190912080549092168117909155601a55468114620005db575b5060c0615f44918262000996838301396080518282018181610607015281816108e401528181610bd701528181611000015281816112680152818161285a01528181612962015281816132da015281816150f601526153c6015260a05182820161216a01528151828201818161556d0152818161569a0152818161590b01526159a5015260e0518282016139d3015261010051828201613a8e01526101205182820161399d015261014051828201613a22015261016051828201613a480152610180518282016139ff015201f35b600052601b6020526040600020600160ff19825416179055386200050d565b634e487b7160e01b600052604160045260246000fd5b634e487b7160e01b600052601160045260246000fd5b60405162461bcd60e51b815260206004820152602760248201527f4f46543a20736861726564446563696d616c73206d757374206265203c3d20646044820152666563696d616c7360c81b6064820152608490fd5b01519050388062000321565b600c600090815293507fdf6966c971051c3d54ec59162606531493a51404a002842f56009d7e5cf4a8c791905b601f1984168510620006fa576001945083601f19811610620006e0575b505050811b01600c5562000337565b015160001960f88460031b161c19169055388080620006d1565b81810151835560209485019460019093019290910190620006b4565b600c6000529091507fdf6966c971051c3d54ec59162606531493a51404a002842f56009d7e5cf4a8c7601f840160051c81016020851062000780575b90849392915b601f830160051c820181106200077057505062000308565b6000815585945060010162000758565b508062000752565b634e487b7160e01b600052602260045260246000fd5b91607f1691620002f2565b015190503880620002b7565b600b600090815293507f0175b7a638427703f0dbe7bb9bbf987a2551717b34e79f33b5b1008d1fa01db991905b601f198416851062000828576001945083601f198116106200080e575b505050811b01600b55620002cd565b015160001960f88460031b161c19169055388080620007ff565b81810151835560209485019460019093019290910190620007e2565b600b6000529091507f0175b7a638427703f0dbe7bb9bbf987a2551717b34e79f33b5b1008d1fa01db9601f840160051c810160208510620008ae575b90849392915b601f830160051c820181106200089e5750506200029e565b6000815585945060010162000886565b508062000880565b91607f169162000288565b600080fd5b601f909101601f19168101906001600160401b03821190821017620005fa57604052565b51906001600160a01b0382168203620008c157565b60005b838110620009135750506000910152565b818101518382015260200162000902565b81601f82011215620008c15780516001600160401b038111620005fa57604051926200095b601f8301601f191660200185620008c6565b81845260208284010111620008c1576200097c9160208085019101620008ff565b90565b60ff6011541680156200098f5790565b5060129056fe6080604052600436101561001b575b361561001957600080fd5b005b60003560e01c80621d3567146104ff57806254af3a146104fa57806301ffc9a7146104f557806306fdde03146104f057806307e0db17146104eb578063095ea7b3146104e657806309be4511146104e15780630df37483146104dc5780630fb6ba59146104d757806310ddb137146104d2578063159068b7146104cd57806318160ddd1461042357806318e7fa19146104c857806319b88372146104c357806323b872dd146104be578063313ce567146104b95780633644e515146104b4578063365260b4146104af57806339509351146104aa57806339f47693146104a55780633d8b38f6146104a05780633f1f4fa41461049b57806342d65a8d1461049657806344770515146104915780634c42899a14610491578063526137a71461048c57806358c5cfb8146104875780635b8c41e614610482578063623556381461047d57806366ad5c8a14610478578063695ef6bf146104735780636cb2c9581461046e57806370a0823114610469578063715018a6146104645780637533d7881461045f57806376203b481461045a578063785e9e8614610455578063796fd43a146104505780637ecebe001461044b5780638232a1e614610446578063854f4b9014610441578063857749b01461043c57806389dd5602146104375780638aec2834146104325780638cfd8f5c1461042d5780638da5cb5b146104285780639358928b14610423578063950c8a741461041e57806395d89b4114610419578063973751ee146104145780639bdb98121461040f5780639f38369a1461040a578063a457c2d714610405578063a4c51df514610400578063a6c3d165146103fb578063a9059cbb146103f6578063ab8236f3146103f1578063b25ea8fb146103ec578063b353aaa7146103e7578063baf3292d146103e2578063c4461834146103dd578063cbed8b9c146103d8578063cfd8b3d8146103d3578063d1deba1f146103ce578063d505accf146103c9578063dbd01de1146103c4578063dd62ed3e146103bf578063de406577146103ba578063df2a5b3b146103b5578063e2c268ee146103b0578063e6a20ae6146103ab578063eab45d9c146103a6578063eaffd49a146103a1578063eb8d72b71461039c578063ed629c5c14610397578063f2fde38b14610392578063f5b33dfa1461038d578063f5ecbdbc146103885763fc0c546a0361000e57613344565b613278565b61324f565b613188565b613165565b61301b565b612f96565b612f34565b612f18565b612e78565b612d93565b612d6a565b612d10565b612ce7565b612b86565b612a23565b6129fa565b612916565b6128f9565b612889565b612844565b6127a8565b61274a565b612720565b61259d565b61250a565b61244c565b6123ad565b612362565b612320565b61227c565b612253565b610ce1565b61222a565b6121e0565b6121b7565b61218e565b612150565b6120d0565b611fc6565b611f89565b611ec1565b611e98565b611c7e565b611c2b565b611ae5565b611aa8565b61197a565b61189b565b611815565b61171a565b6116b3565b61153c565b6112eb565b6112cf565b61124e565b611219565b6111bd565b6110da565b61107e565b610f7a565b610f57565b610f31565b610f0f565b610e3f565b610d23565b610c4d565b610bb2565b610b1a565b610ace565b610a29565b610985565b6108bf565b6107df565b61072d565b61070f565b6105f0565b6004359061ffff8216820361051557565b600080fd5b6044359061ffff8216820361051557565b6084359061ffff8216820361051557565b6024359061ffff8216820361051557565b359061ffff8216820361051557565b9181601f84011215610515578235916001600160401b038311610515576020838186019501011161051557565b9060806003198301126105155760043561ffff8116810361051557916001600160401b039060243582811161051557816105c59160040161055c565b9390939260443581811681036105155792606435918211610515576105ec9160040161055c565b9091565b34610515576105fe36610589565b929493919291907f00000000000000000000000000000000000000000000000000000000000000006001600160a01b031633036106bf5761068461068c926100199761067d61066361065e8a61ffff166000526001602052604060002090565b611c10565b80519081841491826106b5575b5081610692575b506149a4565b36916115f1565b9236916115f1565b92614ae1565b905061069f3684866115f1565b6020815191012090602081519101201438610677565b1515915038610670565b60405162461bcd60e51b815260206004820152601e60248201527f4c7a4170703a20696e76616c696420656e64706f696e742063616c6c657200006044820152606490fd5b600091031261051557565b34610515576000366003190112610515576020601054604051908152f35b346105155760203660031901126105155760043563ffffffff60e01b811680910361051557602090631f7ecdf760e01b8114908115610772575b506040519015158152f35b6301ffc9a760e01b14905038610767565b60005b8381106107965750506000910152565b8181015183820152602001610786565b906020916107bf81518092818552858086019101610783565b601f01601f1916010190565b9060206107dc9281815201906107a6565b90565b34610515576000806003193601126108bc5760405181600b5461080181611b40565b80845290600190818116908115610894575060011461083b575b6108378461082b818803826113c5565b604051918291826107cb565b0390f35b600b8352602094507f0175b7a638427703f0dbe7bb9bbf987a2551717b34e79f33b5b1008d1fa01db95b82841061088157505050816108379361082b928201019361081b565b8054858501870152928501928101610865565b610837965061082b9450602092508593915060ff191682840152151560051b8201019361081b565b80fd5b3461051557600060203660031901126108bc576108da610504565b6108e261335f565b7f00000000000000000000000000000000000000000000000000000000000000006001600160a01b0316908290823b1561095657602461ffff918360405195869485936307e0db1760e01b85521660048401525af1801561095157610945575080f35b61094e90611340565b80f35b613916565b5080fd5b6001600160a01b0381160361051557565b600435906109788261095a565b565b35906109788261095a565b34610515576040366003190112610515576109af6004356109a58161095a565b60243590336135b1565b602060405160018152f35b908160a09103126105155790565b60609060a31901126105155760a490565b60609060c31901126105155760c490565b908160609103126105155790565b9181601f84011215610515578235916001600160401b03831161051557602080850194610160850201011161051557565b61014036600319011261051557600435610a428161095a565b602435610a4e8161095a565b610a5661051a565b91606435610a638161095a565b6001600160401b039360843585811161051557610a849036906004016109ba565b610a8d366109c8565b906101043587811161051557610aa79036906004016109f8565b9490936101243598891161051557610ac661001999369060040161055c565b989097613fe5565b346105155760403660031901126105155761ffff610aea610504565b610af261335f565b166000526003602052602435604060002055600080f35b60409060a31901126105155760a490565b60e036600319011261051557610019600435610b358161095a565b610ba060243591610b458361095a565b61ffff610b5061052b565b610b5936610b09565b9260405195630fb6ba5960e01b602088015260018060a01b038092166024880152166044860152604435606486015260643560848601521660a484015260c48301906140df565b60e48152610bad81611358565b6142f4565b3461051557600060203660031901126108bc57610bcd610504565b610bd561335f565b7f00000000000000000000000000000000000000000000000000000000000000006001600160a01b0316908290823b1561095657602461ffff918360405195869485936310ddb13760e01b85521660048401525af1801561095157610945575080f35b8015150361051557565b359061097882610c38565b346105155760403660031901126105155760043561094e602435610c7081610c38565b610c7861335f565b600092808452601b6020527f9d4ae94752c6f738748e35a3e482cd5fc36a38f35c6c7cb0c933c5fd4f2b6141606060ff60408720541660405190848252151560208201528415156040820152a18352601b602052604083209060ff801983541691151516179055565b34610515576000366003190112610515576020600a54604051908152f35b60c090600319011261051557600490565b60c0906101231901126105155761012490565b6102008060031936011261051557610d3a36610cff565b610d43366109d9565b91610d4d36610d10565b916101e4356001600160401b0381116105155761001994610dff610e2994610e0a60a097610d82610e1b9636906004016109f8565b9490956040519a8b996318e7fa1960e01b60208c01528035610da38161095a565b600180841b0380911660248d0152806020830135610dc08161095a565b1660448d0152604082013560648d0152606082013560848d01526080820135610de88161095a565b1660a48c0152013560c48a015260e4890190613c46565b610144870190613c7c565b610204850152610224840191613b4c565b03601f1981018352826113c5565b614394565b608090608319011261051557608490565b61018036600319011261051557600435610e588161095a565b602435610e648161095a565b610e6c61051a565b6001600160401b03929060643584811161051557610e8e90369060040161055c565b610e9736610e2e565b916101043587811161051557610eb19036906004016109ba565b93604036610123190112610515576101643597881161051557610edb6100199836906004016109f8565b979096614166565b606090600319011261051557600435610efb8161095a565b90602435610f088161095a565b9060443590565b34610515576109af610f2036610ee3565b91610f2c8333836136dc565b6134a9565b34610515576000366003190112610515576020610f4c613ae5565b60ff60405191168152f35b34610515576000366003190112610515576020610f7261399a565b604051908152f35b346105155760a036600319011261051557610f93610504565b60643590610fa082610c38565b608435906001600160401b03821161051557610fc561067d604093369060040161055c565b90610ffc610fdf610fd7604435615909565b6024356159da565b928451958694859463040a7bb160e41b865230906004870161529e565b03817f00000000000000000000000000000000000000000000000000000000000000006001600160a01b03165afa90811561095157600090819261104d575b50604080519182526020820192909252f35b9050611070915060403d8111611077575b61106881836113c5565b810190615288565b903861103b565b503d61105e565b346105155760403660031901126105155760043561109b8161095a565b3360009081526009602090815260408083206001600160a01b038516845290915290205460243581018091116110d5576109af91336135b1565b6133b7565b34610515576040366003190112610515576004356110f78161095a565b60243590600091468352601b60205261111660ff6040852054166144be565b338352601c60205261112f60ff604085205416156144f6565b61113981336147f7565b600f546001600160a01b0316806111795750601954918183111561116e578183039283116110d55761094e925b601955614958565b61094e925083611166565b9161094e9261491a565b9060406003198301126105155760043561ffff811681036105155791602435906001600160401b038211610515576105ec9160040161055c565b3461051557602061ffff61120a6111d336611183565b93909116600052600184526111f56111fc604060002060405192838092611b7a565b03826113c5565b8481519101209236916115f1565b82815191012014604051908152f35b346105155760203660031901126105155761ffff611235610504565b1660005260036020526020604060002054604051908152f35b346105155761125c36611183565b919061126661335f565b7f00000000000000000000000000000000000000000000000000000000000000006001600160a01b031691823b1561051557604051928380926342d65a8d60e01b8252816112bd6000988997889460048501614a35565b03925af1801561095157610945575080f35b3461051557600036600319011261051557602060405160008152f35b3461051557602036600319011261051557600435600052601b602052602060ff604060002054166040519015158152f35b908160e09103126105155790565b634e487b7160e01b600052604160045260246000fd5b6001600160401b03811161135357604052565b61132a565b61012081019081106001600160401b0382111761135357604052565b60c081019081106001600160401b0382111761135357604052565b608081019081106001600160401b0382111761135357604052565b604081019081106001600160401b0382111761135357604052565b90601f801991011681019081106001600160401b0382111761135357604052565b6040519061016082018281106001600160401b0382111761135357604052565b6084359060ff8216820361051557565b359060ff8216820361051557565b81601f82011215610515578035906001600160401b038211611353576040805193602091611457838660051b01876113c5565b848652828601918361016080970286010194818611610515578401925b858410611485575050505050505090565b8684830312610515578487916114996113e6565b6114a287610c42565b81526114af838801610c42565b838201526114be86880161097a565b8682015260606114cf818901610c42565b9082015260806114e081890161097a565b9082015260a06114f181890161097a565b9082015260c0808801359082015260e08088013590820152610100611517818901611416565b9082015261012080880135908201526101408088013590820152815201930192611474565b6101403660031901126105155761155161096b565b6001600160401b0390604435828111610515576115729036906004016109ea565b6064358381116105155761158a90369060040161131c565b9061159436610e2e565b61010435858111610515576115ad90369060040161055c565b93909261012435968711610515576115cc610019973690600401611424565b9560243590613e11565b6001600160401b03811161135357601f01601f191660200190565b9291926115fd826115d6565b9161160b60405193846113c5565b829481845281830111610515578281602093846000960137010152565b9080601f83011215610515578160206107dc933591016115f1565b60606003198201126105155760043561ffff8116810361051557916024356001600160401b03928382116105155761167d91600401611628565b9160443590811681036105155790565b6020906116a7928260405194838680955193849201610783565b82019081520301902090565b3461051557602061171161ffff6116f0836116cd36611643565b949091166000526005825260406000208260405194838680955193849201610783565b820190815203019020906001600160401b0316600052602052604060002090565b54604051908152f35b61172336610ee3565b919061173260105446146144be565b600092338452601c60205261174e60ff604086205416156144f6565b600f546001600160a01b0390811661176c57505061094e91506147d0565b83929192163381036117a6575b506117a18261094e9461178d82151561452e565b600f546001600160a01b031690309161460b565b614563565b845260096020908152604080862033600090815292529020829054106117e1576117a18261094e946117d98233836136dc565b945050611779565b60405162461bcd60e51b815260206004820152600c60248201526b1513d19517d85b1b1bddd95960a21b6044820152606490fd5b346105155761182336610589565b919294939030330361184757610684611841926100199736916115f1565b92614ca3565b60405162461bcd60e51b815260206004820152602660248201527f4e6f6e626c6f636b696e674c7a4170703a2063616c6c6572206d7573742062656044820152650204c7a4170760d41b6064820152608490fd5b60a0366003190112610515576004356118b38161095a565b6118bb61053c565b604435916084356001600160401b03811161051557602061ffff6118f2600080516020615ecf8339815191529336906004016109ea565b9361196585356119018161095a565b61191f61067d86890135986119158a61095a565b6040810190615074565b611929818a615806565b61193e6119376064356159a3565b5085615bad565b9761194a8915156152e2565b61195c6119568a615909565b8c6159da565b9234938b615382565b6040519485526001600160a01b0316941692a4005b60c03660031901126105155761198e610504565b6001600160401b03602435818111610515576119ae90369060040161055c565b9190926044356119bd8161095a565b608435838111610515576119d59036906004016109ea565b9060a435938411610515576100199561ffff95611a99610e1b946060611a89611a36611a08610e299b36906004016109f8565b9790966040519d8e9c8d6020630d96592b60e31b9101521660248d015260c060448d015260e48c0191613afa565b9260018060a01b0380981660648b015260643560848b015260231997888b86030160a48c0152808235611a688161095a565b1685526020820135611a798161095a565b1660208501526040810190613b1b565b9190928160408201520191613afa565b928584030160c4860152613b4c565b3461051557602036600319011261051557600435611ac58161095a565b60018060a01b031660005260086020526020604060002054604051908152f35b34610515576000806003193601126108bc57611aff61335f565b80546001600160a01b03198116825581906001600160a01b03167f8be0079c531659141344cd1fd0a4f28419497f9722a3daafe3b4186f6b6457e08280a380f35b90600182811c92168015611b70575b6020831014611b5a57565b634e487b7160e01b600052602260045260246000fd5b91607f1691611b4f565b9060009291805491611b8b83611b40565b918282526001938481169081600014611bed5750600114611bad575b50505050565b90919394506000526020928360002092846000945b838610611bd9575050505001019038808080611ba7565b805485870183015294019385908201611bc2565b9294505050602093945060ff191683830152151560051b01019038808080611ba7565b90610978611c249260405193848092611b7a565b03836113c5565b346105155760203660031901126105155761ffff611c47610504565b1660005260016020526108376111f5611c6a604060002060405192838092611b7a565b6040519182916020835260208301906107a6565b60e036600319011261051557600435611c968161095a565b611c9e61053c565b604435916001600160401b039060843582811161051557611cc390369060040161055c565b91909260a43591818316918284036105155760c43590811161051557611ced9036906004016109ea565b92611d24843595611cfd8761095a565b611d1c611d126020880135976119158961095a565b99909236916115f1565b9736916115f1565b9460ff60065416600014611e17576022865110611dd2578560209561195c61196594611da08c611d8d61ffff9a8b6022600080516020615ecf8339815191529f0151931660005260028d52611d8760406000206001600052602052604060002090565b546133e9565b90611d9982151561585b565b10156158a7565b611db5611dae6064356159a3565b5088615bad565b9a611dc18c15156152e2565b8d611dcb8d615909565b9033615a67565b60405162461bcd60e51b815260206004820152601c60248201527f4c7a4170703a20696e76616c69642061646170746572506172616d73000000006044820152606490fd5b948094935051611e4457600080516020615ecf8339815191529460209461ffff9461195c61196594611da0565b60405162461bcd60e51b815260206004820152602660248201527f4f4654436f72653a205f61646170746572506172616d73206d7573742062652060448201526532b6b83a3c9760d11b6064820152608490fd5b3461051557600036600319011261051557600f546040516001600160a01b039091168152602090f35b610100806003193601126105155760243590611edc8261095a565b6001600160401b0360443581811161051557611efc90369060040161131c565b926064359182116105155761001993610e1b611f79611f22611f849536906004016109ea565b611f67611f2e36610e2e565b94604051988997633cb7ea1d60e11b60208a015260043560248a015260018060a01b031660448901526064880152610124870190613d19565b85810360231901608487015290613ce5565b9160a4840190613db9565b6143be565b3461051557602036600319011261051557600435611fa68161095a565b60018060a01b031660005260136020526020604060002054604051908152f35b34610515576020366003190112610515576004356002601a541461208b576002601a5533600052601c60205261200360ff604060002054166144f6565b61200e81151561452e565b600f547f2303fe76c64d34b12f3ae35afd1f886cab3c469b873375bc32e82accd1ad28ef9061206e906001600160a01b031680159084821561207b57612055915033614958565b6040805194855290151560208501523393918291820190565b0390a26100196001601a55565b61208691339061491a565b612055565b60405162461bcd60e51b815260206004820152601f60248201527f5265656e7472616e637947756172643a207265656e7472616e742063616c6c006044820152606490fd5b60e0366003190112610515576004356120e88161095a565b60643561ffff8116810361051557608435916121038361095a565b6001600160401b039260a43584811161051557612124903690600401611628565b9060c435948511610515576121406100199536906004016109f8565b94909360443590602435906140f2565b3461051557600036600319011261051557602060405160ff7f0000000000000000000000000000000000000000000000000000000000000000168152f35b34610515576000366003190112610515576018546040516001600160a01b039091168152602090f35b34610515576000366003190112610515576016546040516001600160a01b039091168152602090f35b346105155760403660031901126105155760206117116121fe610504565b61ffff61220961053c565b91166000526002835260406000209061ffff16600052602052604060002090565b34610515576000366003190112610515576000546040516001600160a01b039091168152602090f35b34610515576000366003190112610515576004546040516001600160a01b039091168152602090f35b34610515576000806003193601126108bc5760405181600c5461229e81611b40565b8084529060019081811690811561089457506001146122c7576108378461082b818803826113c5565b600c8352602094507fdf6966c971051c3d54ec59162606531493a51404a002842f56009d7e5cf4a8c75b82841061230d57505050816108379361082b928201019361081b565b80548585018701529285019281016122f1565b346105155760203660031901126105155760043561233d8161095a565b60018060a01b0316600052601c602052602060ff604060002054166040519015158152f35b3461051557602060ff6123a161ffff6116f08461237e36611643565b949091166000526007825260406000208260405194838680955193849201610783565b54166040519015158152f35b346105155760203660031901126105155761ffff6123c9610504565b1660005260016020526111f56123e9604060002060405192838092611b7a565b8051156124075761082b81612401610837935161422c565b90615c87565b60405162461bcd60e51b815260206004820152601d60248201527f4c7a4170703a206e6f20747275737465642070617468207265636f72640000006044820152606490fd5b34610515576040366003190112610515576004356124698161095a565b602435903360005260096020526124968160406000209060018060a01b0316600052602052604060002090565b54918083106124b7576124ab920390336135b1565b60405160018152602090f35b60405162461bcd60e51b815260206004820152602560248201527f45524332303a2064656372656173656420616c6c6f77616e63652062656c6f77604482015264207a65726f60d81b6064820152608490fd5b346105155760e036600319011261051557612523610504565b6001600160401b03906064358281116105155761254490369060040161055c565b60849291923584811681036105155760a4359161256083610c38565b60c4359586116105155761257b61258b96369060040161055c565b95909460443590602435906150a6565b60408051928352602083019190915290f35b34610515576125ab36611183565b906125b461335f565b604051926020928083858701376125e06034868381013060601b888201520360148101885201866113c5565b60009361ffff8316855260019081815260408620918751916001600160401b0383116113535761261a836126148654611b40565b86614a50565b80601f841160011461268a5750918080926126799695948a9b7f8c0400cfe2d1199b1a725c78960bcc2a344d869b80590d0f2bd005db15a572ce9b9461267f575b50501b916000199060031b1c19161790555b60405193849384614a35565b0390a180f35b01519250388061265b565b91939498601f1984166126a287600052602060002090565b938a905b828210612709575050917f8c0400cfe2d1199b1a725c78960bcc2a344d869b80590d0f2bd005db15a572ce999a95939185612679989694106126f0575b505050811b01905561266d565b015160001960f88460031b161c191690553880806126e3565b8088869782949787015181550196019401906126a6565b34610515576040366003190112610515576109af6004356127408161095a565b60243590336134a9565b346105155760c036600319011261051557612763610504565b506001600160401b0360243581811161051557612784903690600401611628565b5061279060643561095a565b60a43590811161051557610019903690600401611628565b34610515576040366003190112610515576004356024356127c88161095a565b6127d061335f565b479060195480831061280c5782039182116110d5576127f461094e9284111561424a565b60008080809581945af161280661428a565b506142ba565b60405162461bcd60e51b815260206004820152601060248201526f544f46545f6c6f775f62616c616e636560801b6044820152606490fd5b34610515576000366003190112610515576040517f00000000000000000000000000000000000000000000000000000000000000006001600160a01b03168152602090f35b34610515576020366003190112610515577f5db758e995a17ec1ad84bdef7e8c3293a0bd6179bcce400dff5d4c3d87db726b60206004356128c98161095a565b6128d161335f565b600480546001600160a01b0319166001600160a01b03929092169182179055604051908152a1005b346105155760003660031901126105155760206040516127108152f35b346105155760803660031901126105155761292f610504565b61293761053c565b6064356001600160401b0381116105155761295690369060040161055c565b909261296061335f565b7f00000000000000000000000000000000000000000000000000000000000000006001600160a01b031690813b1561051557600080946129d7604051978896879586946332fb62e760e21b865261ffff80921660048701521660248501526044356044850152608060648501526084840191613afa565b03925af18015610951576129e757005b806129f461001992611340565b80610704565b34610515576000366003190112610515576017546040516001600160a01b039091168152602090f35b612a2c36610589565b9161ffff86949296166000526005602052612a7381604060002060206040518092878b833787820190815203019020906001600160401b0316600052602052604060002090565b54918215612b3557612b248483612b1d7fc264d91f3adc5588250e1551f547752ca0cfa8f6b530d243b9f9f4cab10ea8e59a6000612b0984612af18e8a8f612b309f908f612ad790612aca612aeb9436908d6115f1565b6020815191012014614fe7565b61ffff166000526005602052604060002090565b91614fce565b906001600160401b0316600052602052604060002090565b55612b1536878d6115f1565b9336916115f1565b9188614ca3565b6040519586958661503d565b0390a1005b60405162461bcd60e51b815260206004820152602360248201527f4e6f6e626c6f636b696e674c7a4170703a206e6f2073746f726564206d65737360448201526261676560e81b6064820152608490fd5b346105155760e036600319011261051557600435612ba38161095a565b602435612baf8161095a565b6044359060643592612bbf611406565b93804211612ca257612c8a612c9d91612c6461001997612c72612bfd8760018060a01b03166000526013602052604060002090815491600183019055565b604080517f6e71edae12b1b97f4d1f60370fef10105fa2faae0126114a169c64845d6126c9602082019081526001600160a01b03808c1693830193909352918b166060820152608081018c905260a081019290925260c082019590955292839060e0820190565b03601f1981018452836113c5565b612c8560c4359360a43593519020613ab4565b6137c0565b6001600160a01b03838116911614613774565b6135b1565b60405162461bcd60e51b815260206004820152601d60248201527f45524332305065726d69743a206578706972656420646561646c696e650000006044820152606490fd5b3461051557600036600319011261051557600e546040516001600160a01b039091168152602090f35b34610515576040366003190112610515576020611711600435612d328161095a565b60243590612d3f8261095a565b60018060a01b03166000526009835260406000209060018060a01b0316600052602052604060002090565b3461051557600036600319011261051557600d546040516001600160a01b039091168152602090f35b3461051557606036600319011261051557612dac610504565b612db461053c565b60443591612dc061335f565b8215612e3b57612b307f9d5c7c0b934da8fefa9c7760c98383778a12dfbfc0c3b3106518f43fb9508ac09361ffff8316600052600260205280612e158560406000209061ffff16600052602052604060002090565b556040519384938460409194939294606082019561ffff80921683521660208201520152565b60405162461bcd60e51b81526020600482015260156024820152744c7a4170703a20696e76616c6964206d696e47617360581b6044820152606490fd5b3461051557604036600319011261051557600435612e958161095a565b61094e60243591612ea583610c38565b612ead61335f565b60018060a01b031691600092808452601c602052807f470a9d1ce8bb125dc8ef5154b389c33a59bdd4c7394e3d359194965d5e6f37b9604060ff8188205416815190151581528515156020820152a28352601c602052604083209060ff801983541691151516179055565b3461051557600036600319011261051557602060405160018152f35b34610515576020366003190112610515577f1584ad594a70cbe1e6515592e1272a987d922b097ead875069cebe8b40c004a46020600435612f7481610c38565b612f7c61335f565b151560ff196006541660ff821617600655604051908152a1005b346105155761010036600319011261051557612fb0610504565b6001600160401b039060243582811161051557612fd190369060040161055c565b919060443590848216820361051557608435612fec8161095a565b60c4359586116105155761300761001996369060040161055c565b94909360e4359660a435946064359361519c565b346105155761302936611183565b919061303361335f565b60009161ffff81168352600160209080825260408520916001600160401b0387116113535761306c876130668554611b40565b85614a50565b8590601f88116001146130d35750918680879893612679957ffa41487ad5d6728f0b19276fa1eddc16558578f5109fc39d2dc33c3230470dab99936130c8575b501b906000198460031b1c191617905560405193849384614a35565b8801359250386130ac565b90601f1988166130e885600052602060002090565b9288905b82821061314e575050918893917ffa41487ad5d6728f0b19276fa1eddc16558578f5109fc39d2dc33c3230470dab9899612679969410613134575b505082811b01905561266d565b870135600019600386901b60f8161c191690553880613127565b808685968294968c013581550195019301906130ec565b3461051557600036600319011261051557602060ff600654166040519015158152f35b34610515576020366003190112610515576004356131a58161095a565b6131ad61335f565b6001600160a01b0390811680156131fb57600080546001600160a01b03198116831782559092167f8be0079c531659141344cd1fd0a4f28419497f9722a3daafe3b4186f6b6457e08380a380f35b60405162461bcd60e51b815260206004820152602660248201527f4f776e61626c653a206e6577206f776e657220697320746865207a65726f206160448201526564647265737360d01b6064820152608490fd5b34610515576000366003190112610515576015546040516001600160a01b039091168152602090f35b3461051557608036600319011261051557613291610504565b61329961053c565b906132a560443561095a565b604051633d7b2f6f60e21b815261ffff91821660048201529116602482015230604482015260648035908201526000816084817f00000000000000000000000000000000000000000000000000000000000000006001600160a01b03165afa80156109515761083791600091613323575b50604051918291826107cb565b61333e913d8091833e61333681836113c5565b8101906149ff565b38613316565b34610515576000366003190112610515576020604051308152f35b6000546001600160a01b0316330361337357565b606460405162461bcd60e51b815260206004820152602060248201527f4f776e61626c653a2063616c6c6572206973206e6f7420746865206f776e65726044820152fd5b634e487b7160e01b600052601160045260246000fd5b90601f82018092116110d557565b60510190816051116110d557565b919082018092116110d557565b156133fd57565b60405162461bcd60e51b815260206004820152602360248201527f45524332303a207472616e7366657220746f20746865207a65726f206164647260448201526265737360e81b6064820152608490fd5b1561345557565b60405162461bcd60e51b815260206004820152602660248201527f45524332303a207472616e7366657220616d6f756e7420657863656564732062604482015265616c616e636560d01b6064820152608490fd5b916001600160a01b03808416929091831561355e5761354382600080516020615eef833981519152946135599416966134e38815156133f6565b6001600160a01b03811660009081526008602052604090206135289085905461350e8282101561344e565b039160018060a01b03166000526008602052604060002090565b556001600160a01b0316600090815260086020526040902090565b8054820190556040519081529081906020820190565b0390a3565b60405162461bcd60e51b815260206004820152602560248201527f45524332303a207472616e736665722066726f6d20746865207a65726f206164604482015264647265737360d81b6064820152608490fd5b6001600160a01b03808216929190831561368b57821693841561363b578061362a7f8c5be1e5ebec7d5bd14f71427d1e84f3dd0314c0f7b2291e5b200ac8c7c3b925946136136135599560018060a01b03166000526009602052604060002090565b9060018060a01b0316600052602052604060002090565b556040519081529081906020820190565b60405162461bcd60e51b815260206004820152602260248201527f45524332303a20617070726f766520746f20746865207a65726f206164647265604482015261737360f01b6064820152608490fd5b60405162461bcd60e51b8152602060048201526024808201527f45524332303a20617070726f76652066726f6d20746865207a65726f206164646044820152637265737360e01b6064820152608490fd5b6001600160a01b0380821660009081526009602090815260408083209386168352929052209091905492600184016137145750505050565b80841061372f576137269303916135b1565b38808080611ba7565b60405162461bcd60e51b815260206004820152601d60248201527f45524332303a20696e73756666696369656e7420616c6c6f77616e63650000006044820152606490fd5b1561377b57565b60405162461bcd60e51b815260206004820152601e60248201527f45524332305065726d69743a20696e76616c6964207369676e617475726500006044820152606490fd5b916107dc93916137cf93613922565b9190916137f7565b600511156137e157565b634e487b7160e01b600052602160045260246000fd5b613800816137d7565b806138085750565b613811816137d7565b6001810361385d5760405162461bcd60e51b815260206004820152601860248201527745434453413a20696e76616c6964207369676e617475726560401b6044820152606490fd5b0390fd5b613866816137d7565b600281036138b35760405162461bcd60e51b815260206004820152601f60248201527f45434453413a20696e76616c6964207369676e6174757265206c656e677468006044820152606490fd5b806138bf6003926137d7565b146138c657565b60405162461bcd60e51b815260206004820152602260248201527f45434453413a20696e76616c6964207369676e6174757265202773272076616c604482015261756560f01b6064820152608490fd5b6040513d6000823e3d90fd5b9291906fa2a8918ca85bafe22016d0b997e4df60600160ff1b03831161398e5791608094939160ff602094604051948552168484015260408301526060820152600093849182805260015afa156109515781516001600160a01b03811615613988579190565b50600190565b50505050600090600390565b307f00000000000000000000000000000000000000000000000000000000000000006001600160a01b03161480613a8b575b156139f5577f000000000000000000000000000000000000000000000000000000000000000090565b60405160208101907f000000000000000000000000000000000000000000000000000000000000000082527f000000000000000000000000000000000000000000000000000000000000000060408201527f000000000000000000000000000000000000000000000000000000000000000060608201524660808201523060a082015260a08152613a8581611374565b51902090565b507f000000000000000000000000000000000000000000000000000000000000000046146139cc565b613abc61399a565b9060405190602082019261190160f01b84526022830152604282015260428152613a858161138f565b60ff601154168015613af45790565b50601290565b908060209392818452848401376000828201840152601f01601f1916010190565b9035601e19823603018112156105155701602081359101916001600160401b03821161051557813603831361051557565b9190808252602080920192916000905b828210613b6a575050505090565b9091929380613b84600192613b7e88610c42565b15159052565b613b9a613b92848801610c42565b151582850152565b613bb96040613baa81890161097a565b6001600160a01b031690830152565b613bd16060613bc9818901610c42565b151590830152565b613be16080613baa81890161097a565b613bf160a0613baa81890161097a565b60c0808701359082015260e08087013590820152613c1f610100613c16818901611416565b60ff1690830152565b61012086810135908201526101408087013590820152610160908101950193920190613b5c565b6040809161ffff613c568261054d565b1684526020810135613c678161095a565b6001600160a01b031660208501520135910152565b60a080918035613c8b81610c38565b151584526020810135613c9d8161095a565b600180841b03809116602086015261ffff613cba6040840161054d565b166040860152606082013560608601526080820135613cd88161095a565b1660808501520135910152565b906060611a896107dc938035613cfa8161095a565b6001600160a01b03168452602081810135908501526040810190613b1b565b908135815261ffff80613d2e6020850161054d565b166020830152613d406040840161054d565b16604082015260c06060830135613d568161095a565b6001600160a01b03908116606084015281613da6613d8b613d7a6080880188613b1b565b60e0608089015260e0880191613afa565b613d9860a0880188613b1b565b9087830360a0890152613afa565b940135613db28161095a565b1691015290565b60609081813591613dc98361095a565b6001600160a01b039283168552826020820135613de58161095a565b166020860152826040820135613dfa8161095a565b1660408601520135613e0b8161095a565b16910152565b9293613e919195929796604093613e81613e76613e6387519c8d9b8c602460209c8d630b18b9f760e31b9084015260018060a01b031691015260448d01526101646101409c8d60648201520190613ce5565b6023198d8203810160848f015299613d19565b9360a48c0190613db9565b868a8403016101248b0152613afa565b92868403016101448701528180865194858152019501936000915b848310613ed45750505050505090611f8481613ed09303601f1981018352826113c5565b5050565b90919293949584610160600192858a51613ef083825115159052565b80850151151583860152808701516001600160a01b0316838801526060818101511515908401526080818101516001600160a01b03169084015260a0818101516001600160a01b03169084015260c0818101519084015260e080820151908401526101008082015160ff16908401526101208181015190840152015186820152019701959493019190613eac565b9060a0613fd56107dc938035613f9381610c38565b15158452602081013560208501526040810135613faf81610c38565b1515604085015261ffff613fc56060830161054d565b1660608501526080810190613b1b565b9190928160808201520191613afa565b6040516309be451160e01b60208201526001600160a01b039182166024820152918116604483015261ffff9092166064820152918116608483015261014060a48301529096879695949093909290919061404490610164890190613f7e565b91803560c489015281602082013561405b8161095a565b1660e48901526040013561406e8161095a565b1661010487015260231993848783030161012488015261408d92613b4c565b91848303016101448501526140a192613afa565b03601f19810182526140b390826113c5565b613ed0906143e8565b6101243581526020610144356140d18161095a565b6001600160a01b0316910152565b602080918035845201356140d18161095a565b610bad9561415491613ed099939661ffff610e1b979a969a6040519b8c9a630854f4b960e41b60208d015260018060a01b0380961660248d015260448c015260648b01521660848901521660a487015260e060c48701526101048601906107a6565b8481036023190160e486015291613b4c565b604051630cdc41b960e11b60208201526001600160a01b039182166024820152918116604483015261ffff9092166064820152610180608482015296879695909390926141b8916101a4890191613afa565b93803560a4880152602081013560c48801528160408201356141d98161095a565b1660e4880152606001356141ec8161095a565b1661010486015260231992838682030161012487015261420b91613f7e565b9161421961014486016140bc565b848303016101848501526140a192613b4c565b6013198101919082116110d557565b6050198101919082116110d557565b1561425157565b60405162461bcd60e51b81526020600482015260116024820152701513d19517db185c99d957d85b5bdd5b9d607a1b6044820152606490fd5b3d156142b5573d9061429b826115d6565b916142a960405193846113c5565b82523d6000602084013e565b606090565b156142c157565b60405162461bcd60e51b815260206004820152600b60248201526a1513d19517d1985a5b195960aa1b6044820152606490fd5b6016546001600160a01b0316801561436157816000929160208493519201905af49061431e61428a565b90821580614359575b61432d57565b61385961433983614447565b60405162461bcd60e51b81526020600482015291829160248301906107a6565b506001614327565b60405162461bcd60e51b815260206004820152600b60248201526a544f46545f6d6f64756c6560a81b6044820152606490fd5b6018546001600160a01b0316801561436157816000929160208493519201905af49061431e61428a565b6015546001600160a01b0316801561436157816000929160208493519201905af49061431e61428a565b6017546001600160a01b0316801561436157816000929160208493519201905af49061431e61428a565b9092919261441f816115d6565b9161442d60405193846113c5565b829482845282820111610515576020610978930190610783565b604481511061449857600481015181019060208160248401930312610515576024810151906001600160401b038211610515570190806043830112156105155760248201516107dc92604401614412565b506040516144a5816113aa565b6009815268544f46545f6461746160b81b602082015290565b156144c557565b60405162461bcd60e51b81526020600482015260096024820152681513d19517da1bdcdd60ba1b6044820152606490fd5b156144fd57565b60405162461bcd60e51b81526020600482015260096024820152680a89e8ca8bec2eae8d60bb1b6044820152606490fd5b1561453557565b60405162461bcd60e51b81526020600482015260066024820152650544f46545f360d41b6044820152606490fd5b6001600160a01b038116919082156145c657600a54908282018092116110d5576000926145b7602092600080516020615eef83398151915294600a5560018060a01b03166000526008602052604060002090565b818154019055604051908152a3565b60405162461bcd60e51b815260206004820152601f60248201527f45524332303a206d696e7420746f20746865207a65726f2061646472657373006044820152606490fd5b6040516323b872dd60e01b60208201526001600160a01b03928316602482015292909116604483015260648083019390935291815260a08101918183106001600160401b0384111761135357610978926040525b6040516146bd916001600160a01b0316614678826113aa565b6000806020958685527f5361666545524332303a206c6f772d6c6576656c2063616c6c206661696c656487860152868151910182855af16146b761428a565b9161473f565b8051806146c957505050565b81839181010312610515578101516146e081610c38565b156146e85750565b6084906040519062461bcd60e51b82526004820152602a60248201527f5361666545524332303a204552433230206f7065726174696f6e20646964206e6044820152691bdd081cdd58d8d9595960b21b6064820152fd5b919290156147a15750815115614753575090565b3b1561475c5790565b60405162461bcd60e51b815260206004820152601d60248201527f416464726573733a2063616c6c20746f206e6f6e2d636f6e74726163740000006044820152606490fd5b8251909150156147b45750805190602001fd5b60405162461bcd60e51b815290819061385990600483016107cb565b6147db34151561452e565b601954903482018092116110d557610978916019553490614563565b6001600160a01b0381169081156148cb576001600160a01b03811660009081526008602052604090205483811061487b5783600080516020615eef8339815191529261485d60009661355994039160018060a01b03166000526008602052604060002090565b5561486b81600a5403600a55565b6040519081529081906020820190565b60405162461bcd60e51b815260206004820152602260248201527f45524332303a206275726e20616d6f756e7420657863656564732062616c616e604482015261636560f01b6064820152608490fd5b60405162461bcd60e51b815260206004820152602160248201527f45524332303a206275726e2066726f6d20746865207a65726f206164647265736044820152607360f81b6064820152608490fd5b60405163a9059cbb60e01b60208201526001600160a01b039092166024830152604480830193909352918152610978916149538261138f565b61465f565b600080809381935af161496961428a565b501561497157565b60405162461bcd60e51b815260206004820152600b60248201526a1513d19517d9985a5b195960aa1b6044820152606490fd5b156149ab57565b60405162461bcd60e51b815260206004820152602660248201527f4c7a4170703a20696e76616c696420736f757263652073656e64696e6720636f6044820152651b9d1c9858dd60d21b6064820152608490fd5b602081830312610515578051906001600160401b03821161051557019080601f830112156105155781516107dc92602001614412565b60409061ffff6107dc95931681528160208201520191613afa565b90601f8111614a5e57505050565b600091825260208220906020601f850160051c83019410614a9a575b601f0160051c01915b828110614a8f57505050565b818155600101614a83565b9092508290614a7a565b90614acd6107dc959361ffff6001600160401b03931684526080602085015260808401906107a6565b9316604082015260608184039101526107a6565b929091614b135a604051633356ae4560e11b602082015290614b0d82612c6487878a8c60248601614aa4565b30615e83565b939015614b22575b5050505050565b614b2b94614b35565b3880808080614b1b565b9193614bd27fe183f33de2837795525b4792ca4cd60535bd77c53b7e7030060bfcf5734d6b0c95614be0939561ffff81516020830120961695866000526005602052614b99836116f060208b60406000208260405194838680955193849201610783565b556001600160401b03614bbe604051988998895260a060208a015260a08901906107a6565b9216604087015285820360608701526107a6565b9083820360808501526107a6565b0390a1565b916107dc959361ffff614c1c926001600160401b039460018060a01b0316865216602085015260a0604085015260a08401906107a6565b9316606082015260808184039101526107a6565b60409061ffff6107dc949316815281602082015201906107a6565b946001600160401b03614c8860a096939561ffff614c9c969b9a9b6001808b1b038099168b521660208a015260c060408a015260c08901906107a6565b9216606087015285820360808701526107a6565b9416910152565b929190614caf83615e36565b6103028103614cf957506016546109789490610e1b90614cf4906001600160a01b031660405192839163e1709be960e01b602084015288888888309460248801614c4b565b614f9f565b6103038103614d2a5750604051630d573ab360e31b60208201526109789490614cf481610e1b878560248401614c30565b6103088103614d72575060155461097894908190614d6d906001600160a01b0316610e1b87878760405196879563bafb655d60e01b602088015260248701614be5565b614f41565b6103078103614dba575060175461097894908190614db5906001600160a01b0316610e1b878787604051968795631789153d60e31b602088015260248701614be5565b614f70565b6103048103614dea575060405163163b7bd360e21b60208201526109789490614db581610e1b87602483016107cb565b6103058103614e1a575060405163462bae6560e01b60208201526109789490614d6d81610e1b87602483016107cb565b6103098103614e5257506040516381618d0560e01b60208201526109789490614e4d81610e1b8787878760248601614aa4565b614ee6565b61030a03614e805760405163af2ee97560e01b60208201526109789490614e4d81610e1b87602483016107cb565b614e92614e8c84615ddb565b60ff1690565b80614ea357505050610978916154f7565b600103614eb3576109789361564e565b60405162461bcd60e51b815260206004820152600b60248201526a1513d19517dc1858dad95d60aa1b6044820152606490fd5b60185491949293916001600160a01b0316801561436157816000929160208493519201905af492614f1561428a565b93158080614f39575b614f2d57614b22575050505050565b61385961433986614447565b506000614f1e565b60155491949293916001600160a01b0316801561436157816000929160208493519201905af492614f1561428a565b60175491949293916001600160a01b0316801561436157816000929160208493519201905af492614f1561428a565b60165491949293916001600160a01b0316801561436157816000929160208493519201905af492614f1561428a565b6020919283604051948593843782019081520301902090565b15614fee57565b60405162461bcd60e51b815260206004820152602160248201527f4e6f6e626c6f636b696e674c7a4170703a20696e76616c6964207061796c6f616044820152601960fa1b6064820152608490fd5b916150699060609461ffff6001600160401b039499989799168552608060208601526080850191613afa565b951660408201520152565b903590601e198136030182121561051557018035906001600160401b0382116105155760200191813603831361051557565b949195989790611dcb6150cf6040996150c76150d5976150f29936916115f1565b9436916115f1565b97615909565b928451968794859463040a7bb160e41b865230906004870161529e565b03817f00000000000000000000000000000000000000000000000000000000000000006001600160a01b03165afa91821561095157600090819361513557509190565b90506105ec91925060403d81116110775761106881836113c5565b9396949161517e906107dc99979461ffff6001600160401b039416875260c0602088015260c0870191613afa565b961660408401526060830152608082015260a0818503910152613afa565b91969792989594939094303303615243576151b8908530615bd3565b60405181815290946001600160a01b03169390849061ffff8516907fbf551ec93859b170f9b2141bd9298bf3f64322c6f7beb2543a0cb669834118bf90602090a3833b15610515576000988995615226936040519c8d9b8c9a8b98633fe79aed60e11b8a5260048a01615150565b0393f18015610951576152365750565b806129f461097892611340565b60405162461bcd60e51b815260206004820152601f60248201527f4f4654436f72653a2063616c6c6572206d757374206265204f4654436f7265006044820152606490fd5b9190826040910312610515576020825192015190565b91926107dc959361ffff6152cd9316845260018060a01b0316602084015260a0604084015260a08301906107a6565b921515606082015260808184039101526107a6565b156152e957565b60405162461bcd60e51b815260206004820152601960248201527813d19510dbdc994e88185b5bdd5b9d081d1bdbc81cdb585b1b603a1b6044820152606490fd5b9261534f6107dc97959361ffff61535d9416865260c0602087015260c08601906107a6565b9084820360408601526107a6565b6001600160a01b0391821660608401529316608082015280830360a0909101526107a6565b946153ab9193929561ffff811660005260016020526153b2604060002060405194858092611b7a565b03846113c5565b82511561542a576153c4855182615488565b7f00000000000000000000000000000000000000000000000000000000000000006001600160a01b031693843b156105155760009661541991604051998a988997889662c5803160e81b88526004880161532a565b03925af18015610951576152365750565b60405162461bcd60e51b815260206004820152603060248201527f4c7a4170703a2064657374696e6174696f6e20636861696e206973206e6f742060448201526f61207472757374656420736f7572636560801b6064820152608490fd5b61ffff1660005260036020526040600020549081156154ed575b116154a957565b606460405162461bcd60e51b815260206004820152602060248201527f4c7a4170703a207061796c6f61642073697a6520697320746f6f206c617267656044820152fd5b61271091506154a2565b9060ff61550382615ddb565b1615806155b5575b61551490615a20565b61552661552082615d8b565b91615e26565b6001600160a01b0390818316156155ab575b61ffff7fbf551ec93859b170f9b2141bd9298bf3f64322c6f7beb2543a0cb669834118bf926155936020936001600160401b037f00000000000000000000000000000000000000000000000000000000000000009116615990565b9461559e8682614563565b60405195865216941692a3565b61dead9250615538565b50805160291461550b565b98979692936001600160401b036155f260e0989461ffff61561e9995168d5260208d61010091829101528d01906107a6565b951660408b015260608a01526001600160a01b0316608089015260a088015286820360c08801526107a6565b930152565b6001600160401b03615643604093969594966060845260608401906107a6565b951660208201520152565b909161565984615ad4565b909161568a61568387612af161567d8b61ffff166000526007602052604060002090565b8c61168d565b5460ff1690565b916156c06001600160401b0392837f00000000000000000000000000000000000000000000000000000000000000009116615990565b9288888b83156157bc575b505050853b1561577157946157129694614b0d948a94612c64948d9960001461576a5750505a925b5a978b6040519a8b9863757fea4d60e11b60208b015260248a016155c0565b901561575f57509061575a61ffff928560207fb8890edbfc1c74692f527444645f95489c3703cc2df42e4a366f5d06fa6cd88496975191012090604051948594169684615623565b0390a2565b926109789492614b35565b16926156f3565b50506040516001600160a01b039094168452507f9aedf5fdba8716db3b6705ca00150643309995d4f818a249ed6dde6677e7792d975091955085945050602084019250614be0915050565b90612af16157f1926157eb896157d66157fe979b30614563565b9961ffff166000526007602052604060002090565b9061168d565b805460ff19166001179055565b88888b6156cb565b60065460ff1615615853576022825110611dd25761ffff602261097893015191166000526002602052615846604060002060008052602052604060002090565b5490611d9982151561585b565b5051611e4457565b1561586257565b60405162461bcd60e51b815260206004820152601a60248201527f4c7a4170703a206d696e4761734c696d6974206e6f74207365740000000000006044820152606490fd5b156158ae57565b60405162461bcd60e51b815260206004820152601b60248201527f4c7a4170703a20676173206c696d697420697320746f6f206c6f7700000000006044820152606490fd5b634e487b7160e01b600052601260045260246000fd5b7f000000000000000000000000000000000000000000000000000000000000000090811561598b57046001600160401b0390818111615946571690565b60405162461bcd60e51b815260206004820152601a60248201527f4f4654436f72653a20616d6f756e745344206f766572666c6f770000000000006044820152606490fd5b6158f3565b818102929181159184041417156110d557565b7f0000000000000000000000000000000000000000000000000000000000000000801561598b578106908181039081116110d55791565b90604051916000602084015260218301526001600160401b0360c01b9060c01b16604182015260298152606081018181106001600160401b038211176113535760405290565b15615a2757565b60405162461bcd60e51b815260206004820152601860248201527713d19510dbdc994e881a5b9d985b1a59081c185e5b1bd85960421b6044820152606490fd5b93926071926107dc94604051968794600160f81b602087015260218601526001600160401b0360c01b809360c01b16604186015260018060a01b0316604985015260c01b166069830152615ac48151809260208686019101610783565b81010360518101845201826113c5565b90615aec600160ff615ae585615ddb565b1614615a20565b615af582615d8b565b90615aff83615e26565b906049845110615b70576049840151936051815110615b3457615b31605182015191615b2b815161423b565b90615d07565b91565b60405162461bcd60e51b8152602060048201526014602482015273746f55696e7436345f6f75744f66426f756e647360601b6044820152606490fd5b60405162461bcd60e51b8152602060048201526015602482015274746f427974657333325f6f75744f66426f756e647360581b6044820152606490fd5b6107dc9082906001600160a01b03811633146147f757615bce8233836136dc565b6147f7565b6107dc9183916001600160a01b038116308114159081615bff575b50156134a957610f2c8333836136dc565b905033141538615bee565b15615c1157565b60405162461bcd60e51b815260206004820152600e60248201526d736c6963655f6f766572666c6f7760901b6044820152606490fd5b15615c4e57565b60405162461bcd60e51b8152602060048201526011602482015270736c6963655f6f75744f66426f756e647360781b6044820152606490fd5b615c9b82615c94816133cd565b1015615c0a565b615ca88282511015615c47565b81615cc0575050604051600081526020810160405290565b60405191601f811691821560051b808486010193838501920101905b808410615cf45750508252601f01601f191660405290565b9092835181526020809101930190615cdc565b615d1482615c94816133cd565b615d298151615d22846133db565b1115615c47565b81615d41575050604051600081526020810160405290565b60405191601f8116916051831560051b80858701019484860193010101905b808410615d785750508252601f01601f191660405290565b9092835181526020809101930190615d60565b6021815110615d9e57602d015160601c90565b60405162461bcd60e51b8152602060048201526015602482015274746f416464726573735f6f75744f66426f756e647360581b6044820152606490fd5b6001815110615deb576001015190565b60405162461bcd60e51b8152602060048201526013602482015272746f55696e74385f6f75744f66426f756e647360681b6044820152606490fd5b6029815110615b34576029015190565b6020815110615e46576020015190565b60405162461bcd60e51b8152602060048201526015602482015274746f55696e743235365f6f75744f66426f756e647360581b6044820152606490fd5b9092916000809160405195615e9787611374565b6096875282602088019560a036883760208451940192f1903d9060968211615ec5575b6000908286523e9190565b60969150615eba56fed81fc9b8523134ed613870ed029d6170cbb73aa6a6bc311b9a642689fb9df59addf252ad1be2c89b69c2b068fc378daa952ba7f163c4a11628f55a4df523b3efa2646970667358221220d40f41acfb6757970ca77dab47cc82e06f61b82e55a466dba2ae1af7fba48f0d64736f6c634300081200338b73c3c69bb8fe3d512ecc4cf759cc79239f7b179b0ffacaa9a75d522b39400f",
  "linkReferences": {},
  "deployedLinkReferences": {}
}