{
  "_format": "hh-sol-artifact-1",
  "contractName": "mTapiocaOFT",
  "sourceName": "contracts/tOFT/mTapiocaOFT.sol",
  "abi": [
    {
      "inputs": [
        {
          "internalType": "address",
          "name": "_lzEndpoint",
          "type": "address"
        },
        {
          "internalType": "address",
          "name": "_erc20",
          "type": "address"
        },
        {
          "internalType": "contract IYieldBoxBase",
          "name": "_yieldBox",
          "type": "address"
        },
        {
          "internalType": "contract ICluster",
          "name": "_cluster",
          "type": "address"
        },
        {
          "internalType": "string",
          "name": "_name",
          "type": "string"
        },
        {
          "internalType": "string",
          "name": "_symbol",
          "type": "string"
        },
        {
          "internalType": "uint8",
          "name": "_decimal",
          "type": "uint8"
        },
        {
          "internalType": "uint256",
          "name": "_hostChainID",
          "type": "uint256"
        },
        {
          "internalType": "contract BaseTOFTLeverageModule",
          "name": "__leverageModule",
          "type": "address"
        },
        {
          "internalType": "contract BaseTOFTLeverageDestinationModule",
          "name": "__leverageDestinationModule",
          "type": "address"
        },
        {
          "internalType": "contract BaseTOFTMarketModule",
          "name": "__marketModule",
          "type": "address"
        },
        {
          "internalType": "contract BaseTOFTMarketDestinationModule",
          "name": "__marketDestinationModule",
          "type": "address"
        },
        {
          "internalType": "contract BaseTOFTOptionsModule",
          "name": "__optionsModule",
          "type": "address"
        },
        {
          "internalType": "contract BaseTOFTOptionsDestinationModule",
          "name": "__optionsDestinationModule",
          "type": "address"
        },
        {
          "internalType": "contract BaseTOFTGenericModule",
          "name": "__genericModule",
          "type": "address"
        }
      ],
      "stateMutability": "nonpayable",
      "type": "constructor"
    },
    {
      "inputs": [],
      "name": "AllowanceNotValid",
      "type": "error"
    },
    {
      "inputs": [],
      "name": "BalancerNotAuthorized",
      "type": "error"
    },
    {
      "inputs": [],
      "name": "Failed",
      "type": "error"
    },
    {
      "inputs": [],
      "name": "InvalidShortString",
      "type": "error"
    },
    {
      "inputs": [],
      "name": "NotAuthorized",
      "type": "error"
    },
    {
      "inputs": [],
      "name": "NotHost",
      "type": "error"
    },
    {
      "inputs": [],
      "name": "NotNative",
      "type": "error"
    },
    {
      "inputs": [],
      "name": "NotValid",
      "type": "error"
    },
    {
      "inputs": [
        {
          "internalType": "string",
          "name": "str",
          "type": "string"
        }
      ],
      "name": "StringTooLong",
      "type": "error"
    },
    {
      "anonymous": false,
      "inputs": [
        {
          "indexed": true,
          "internalType": "address",
          "name": "owner",
          "type": "address"
        },
        {
          "indexed": true,
          "internalType": "address",
          "name": "spender",
          "type": "address"
        },
        {
          "indexed": false,
          "internalType": "uint256",
          "name": "value",
          "type": "uint256"
        }
      ],
      "name": "Approval",
      "type": "event"
    },
    {
      "anonymous": false,
      "inputs": [
        {
          "indexed": true,
          "internalType": "address",
          "name": "_balancer",
          "type": "address"
        },
        {
          "indexed": true,
          "internalType": "bool",
          "name": "_bool",
          "type": "bool"
        },
        {
          "indexed": true,
          "internalType": "bool",
          "name": "_new",
          "type": "bool"
        }
      ],
      "name": "BalancerStatusUpdated",
      "type": "event"
    },
    {
      "anonymous": false,
      "inputs": [
        {
          "indexed": true,
          "internalType": "uint16",
          "name": "_srcChainId",
          "type": "uint16"
        },
        {
          "indexed": false,
          "internalType": "bytes",
          "name": "_srcAddress",
          "type": "bytes"
        },
        {
          "indexed": false,
          "internalType": "uint64",
          "name": "_nonce",
          "type": "uint64"
        },
        {
          "indexed": false,
          "internalType": "bytes32",
          "name": "_hash",
          "type": "bytes32"
        }
      ],
      "name": "CallOFTReceivedSuccess",
      "type": "event"
    },
    {
      "anonymous": false,
      "inputs": [
        {
          "indexed": true,
          "internalType": "uint256",
          "name": "_chain",
          "type": "uint256"
        },
        {
          "indexed": true,
          "internalType": "bool",
          "name": "_old",
          "type": "bool"
        },
        {
          "indexed": true,
          "internalType": "bool",
          "name": "_new",
          "type": "bool"
        }
      ],
      "name": "ConnectedChainStatusUpdated",
      "type": "event"
    },
    {
      "anonymous": false,
      "inputs": [],
      "name": "EIP712DomainChanged",
      "type": "event"
    },
    {
      "anonymous": false,
      "inputs": [
        {
          "indexed": true,
          "internalType": "uint256",
          "name": "_old",
          "type": "uint256"
        },
        {
          "indexed": true,
          "internalType": "uint256",
          "name": "_newVal",
          "type": "uint256"
        }
      ],
      "name": "MaxSlippageUpdated",
      "type": "event"
    },
    {
      "anonymous": false,
      "inputs": [
        {
          "indexed": false,
          "internalType": "uint16",
          "name": "_srcChainId",
          "type": "uint16"
        },
        {
          "indexed": false,
          "internalType": "bytes",
          "name": "_srcAddress",
          "type": "bytes"
        },
        {
          "indexed": false,
          "internalType": "uint64",
          "name": "_nonce",
          "type": "uint64"
        },
        {
          "indexed": false,
          "internalType": "bytes",
          "name": "_payload",
          "type": "bytes"
        },
        {
          "indexed": false,
          "internalType": "bytes",
          "name": "_reason",
          "type": "bytes"
        }
      ],
      "name": "MessageFailed",
      "type": "event"
    },
    {
      "anonymous": false,
      "inputs": [
        {
          "indexed": false,
          "internalType": "address",
          "name": "_address",
          "type": "address"
        }
      ],
      "name": "NonContractAddress",
      "type": "event"
    },
    {
      "anonymous": false,
      "inputs": [
        {
          "indexed": true,
          "internalType": "address",
          "name": "previousOwner",
          "type": "address"
        },
        {
          "indexed": true,
          "internalType": "address",
          "name": "newOwner",
          "type": "address"
        }
      ],
      "name": "OwnershipTransferred",
      "type": "event"
    },
    {
      "anonymous": false,
      "inputs": [
        {
          "indexed": true,
          "internalType": "address",
          "name": "_balancer",
          "type": "address"
        },
        {
          "indexed": true,
          "internalType": "uint256",
          "name": "_amount",
          "type": "uint256"
        },
        {
          "indexed": true,
          "internalType": "bool",
          "name": "_isNative",
          "type": "bool"
        }
      ],
      "name": "Rebalancing",
      "type": "event"
    },
    {
      "anonymous": false,
      "inputs": [
        {
          "indexed": true,
          "internalType": "uint16",
          "name": "_srcChainId",
          "type": "uint16"
        },
        {
          "indexed": true,
          "internalType": "address",
          "name": "_to",
          "type": "address"
        },
        {
          "indexed": false,
          "internalType": "uint256",
          "name": "_amount",
          "type": "uint256"
        }
      ],
      "name": "ReceiveFromChain",
      "type": "event"
    },
    {
      "anonymous": false,
      "inputs": [
        {
          "indexed": false,
          "internalType": "uint16",
          "name": "_srcChainId",
          "type": "uint16"
        },
        {
          "indexed": false,
          "internalType": "bytes",
          "name": "_srcAddress",
          "type": "bytes"
        },
        {
          "indexed": false,
          "internalType": "uint64",
          "name": "_nonce",
          "type": "uint64"
        },
        {
          "indexed": false,
          "internalType": "bytes32",
          "name": "_payloadHash",
          "type": "bytes32"
        }
      ],
      "name": "RetryMessageSuccess",
      "type": "event"
    },
    {
      "anonymous": false,
      "inputs": [
        {
          "indexed": true,
          "internalType": "uint16",
          "name": "_dstChainId",
          "type": "uint16"
        },
        {
          "indexed": true,
          "internalType": "address",
          "name": "_from",
          "type": "address"
        },
        {
          "indexed": true,
          "internalType": "bytes32",
          "name": "_toAddress",
          "type": "bytes32"
        },
        {
          "indexed": false,
          "internalType": "uint256",
          "name": "_amount",
          "type": "uint256"
        }
      ],
      "name": "SendToChain",
      "type": "event"
    },
    {
      "anonymous": false,
      "inputs": [
        {
          "indexed": false,
          "internalType": "uint16",
          "name": "_dstChainId",
          "type": "uint16"
        },
        {
          "indexed": false,
          "internalType": "uint16",
          "name": "_type",
          "type": "uint16"
        },
        {
          "indexed": false,
          "internalType": "uint256",
          "name": "_minDstGas",
          "type": "uint256"
        }
      ],
      "name": "SetMinDstGas",
      "type": "event"
    },
    {
      "anonymous": false,
      "inputs": [
        {
          "indexed": false,
          "internalType": "address",
          "name": "precrime",
          "type": "address"
        }
      ],
      "name": "SetPrecrime",
      "type": "event"
    },
    {
      "anonymous": false,
      "inputs": [
        {
          "indexed": false,
          "internalType": "uint16",
          "name": "_remoteChainId",
          "type": "uint16"
        },
        {
          "indexed": false,
          "internalType": "bytes",
          "name": "_path",
          "type": "bytes"
        }
      ],
      "name": "SetTrustedRemote",
      "type": "event"
    },
    {
      "anonymous": false,
      "inputs": [
        {
          "indexed": false,
          "internalType": "uint16",
          "name": "_remoteChainId",
          "type": "uint16"
        },
        {
          "indexed": false,
          "internalType": "bytes",
          "name": "_remoteAddress",
          "type": "bytes"
        }
      ],
      "name": "SetTrustedRemoteAddress",
      "type": "event"
    },
    {
      "anonymous": false,
      "inputs": [
        {
          "indexed": false,
          "internalType": "bool",
          "name": "_useCustomAdapterParams",
          "type": "bool"
        }
      ],
      "name": "SetUseCustomAdapterParams",
      "type": "event"
    },
    {
      "anonymous": false,
      "inputs": [
        {
          "indexed": true,
          "internalType": "address",
          "name": "_old",
          "type": "address"
        },
        {
          "indexed": true,
          "internalType": "address",
          "name": "_new",
          "type": "address"
        }
      ],
      "name": "StargateRouterUpdated",
      "type": "event"
    },
    {
      "anonymous": false,
      "inputs": [
        {
          "indexed": true,
          "internalType": "address",
          "name": "from",
          "type": "address"
        },
        {
          "indexed": true,
          "internalType": "address",
          "name": "to",
          "type": "address"
        },
        {
          "indexed": false,
          "internalType": "uint256",
          "name": "value",
          "type": "uint256"
        }
      ],
      "name": "Transfer",
      "type": "event"
    },
    {
      "inputs": [],
      "name": "DEFAULT_PAYLOAD_SIZE_LIMIT",
      "outputs": [
        {
          "internalType": "uint256",
          "name": "",
          "type": "uint256"
        }
      ],
      "stateMutability": "view",
      "type": "function"
    },
    {
      "inputs": [],
      "name": "DOMAIN_SEPARATOR",
      "outputs": [
        {
          "internalType": "bytes32",
          "name": "",
          "type": "bytes32"
        }
      ],
      "stateMutability": "view",
      "type": "function"
    },
    {
      "inputs": [],
      "name": "NO_EXTRA_GAS",
      "outputs": [
        {
          "internalType": "uint256",
          "name": "",
          "type": "uint256"
        }
      ],
      "stateMutability": "view",
      "type": "function"
    },
    {
      "inputs": [],
      "name": "PT_SEND",
      "outputs": [
        {
          "internalType": "uint8",
          "name": "",
          "type": "uint8"
        }
      ],
      "stateMutability": "view",
      "type": "function"
    },
    {
      "inputs": [],
      "name": "PT_SEND_AND_CALL",
      "outputs": [
        {
          "internalType": "uint8",
          "name": "",
          "type": "uint8"
        }
      ],
      "stateMutability": "view",
      "type": "function"
    },
    {
      "inputs": [
        {
          "internalType": "address",
          "name": "owner",
          "type": "address"
        },
        {
          "internalType": "address",
          "name": "spender",
          "type": "address"
        }
      ],
      "name": "allowance",
      "outputs": [
        {
          "internalType": "uint256",
          "name": "",
          "type": "uint256"
        }
      ],
      "stateMutability": "view",
      "type": "function"
    },
    {
      "inputs": [
        {
          "internalType": "address",
          "name": "spender",
          "type": "address"
        },
        {
          "internalType": "uint256",
          "name": "amount",
          "type": "uint256"
        }
      ],
      "name": "approve",
      "outputs": [
        {
          "internalType": "bool",
          "name": "",
          "type": "bool"
        }
      ],
      "stateMutability": "nonpayable",
      "type": "function"
    },
    {
      "inputs": [
        {
          "internalType": "address",
          "name": "account",
          "type": "address"
        }
      ],
      "name": "balanceOf",
      "outputs": [
        {
          "internalType": "uint256",
          "name": "",
          "type": "uint256"
        }
      ],
      "stateMutability": "view",
      "type": "function"
    },
    {
      "inputs": [
        {
          "internalType": "address",
          "name": "",
          "type": "address"
        }
      ],
      "name": "balancers",
      "outputs": [
        {
          "internalType": "bool",
          "name": "",
          "type": "bool"
        }
      ],
      "stateMutability": "view",
      "type": "function"
    },
    {
      "inputs": [
        {
          "internalType": "uint16",
          "name": "_srcChainId",
          "type": "uint16"
        },
        {
          "internalType": "bytes",
          "name": "_srcAddress",
          "type": "bytes"
        },
        {
          "internalType": "uint64",
          "name": "_nonce",
          "type": "uint64"
        },
        {
          "internalType": "bytes32",
          "name": "_from",
          "type": "bytes32"
        },
        {
          "internalType": "address",
          "name": "_to",
          "type": "address"
        },
        {
          "internalType": "uint256",
          "name": "_amount",
          "type": "uint256"
        },
        {
          "internalType": "bytes",
          "name": "_payload",
          "type": "bytes"
        },
        {
          "internalType": "uint256",
          "name": "_gasForCall",
          "type": "uint256"
        }
      ],
      "name": "callOnOFTReceived",
      "outputs": [],
      "stateMutability": "nonpayable",
      "type": "function"
    },
    {
      "inputs": [],
      "name": "circulatingSupply",
      "outputs": [
        {
          "internalType": "uint256",
          "name": "",
          "type": "uint256"
        }
      ],
      "stateMutability": "view",
      "type": "function"
    },
    {
      "inputs": [],
      "name": "cluster",
      "outputs": [
        {
          "internalType": "contract ICluster",
          "name": "",
          "type": "address"
        }
      ],
      "stateMutability": "view",
      "type": "function"
    },
    {
      "inputs": [
        {
          "internalType": "uint256",
          "name": "",
          "type": "uint256"
        }
      ],
      "name": "connectedChains",
      "outputs": [
        {
          "internalType": "bool",
          "name": "",
          "type": "bool"
        }
      ],
      "stateMutability": "view",
      "type": "function"
    },
    {
      "inputs": [
        {
          "internalType": "uint16",
          "name": "",
          "type": "uint16"
        },
        {
          "internalType": "bytes",
          "name": "",
          "type": "bytes"
        },
        {
          "internalType": "uint64",
          "name": "",
          "type": "uint64"
        }
      ],
      "name": "creditedPackets",
      "outputs": [
        {
          "internalType": "bool",
          "name": "",
          "type": "bool"
        }
      ],
      "stateMutability": "view",
      "type": "function"
    },
    {
      "inputs": [],
      "name": "decimals",
      "outputs": [
        {
          "internalType": "uint8",
          "name": "",
          "type": "uint8"
        }
      ],
      "stateMutability": "view",
      "type": "function"
    },
    {
      "inputs": [
        {
          "internalType": "address",
          "name": "spender",
          "type": "address"
        },
        {
          "internalType": "uint256",
          "name": "subtractedValue",
          "type": "uint256"
        }
      ],
      "name": "decreaseAllowance",
      "outputs": [
        {
          "internalType": "bool",
          "name": "",
          "type": "bool"
        }
      ],
      "stateMutability": "nonpayable",
      "type": "function"
    },
    {
      "inputs": [],
      "name": "eip712Domain",
      "outputs": [
        {
          "internalType": "bytes1",
          "name": "fields",
          "type": "bytes1"
        },
        {
          "internalType": "string",
          "name": "name",
          "type": "string"
        },
        {
          "internalType": "string",
          "name": "version",
          "type": "string"
        },
        {
          "internalType": "uint256",
          "name": "chainId",
          "type": "uint256"
        },
        {
          "internalType": "address",
          "name": "verifyingContract",
          "type": "address"
        },
        {
          "internalType": "bytes32",
          "name": "salt",
          "type": "bytes32"
        },
        {
          "internalType": "uint256[]",
          "name": "extensions",
          "type": "uint256[]"
        }
      ],
      "stateMutability": "view",
      "type": "function"
    },
    {
      "inputs": [],
      "name": "erc20",
      "outputs": [
        {
          "internalType": "address",
          "name": "",
          "type": "address"
        }
      ],
      "stateMutability": "view",
      "type": "function"
    },
    {
      "inputs": [
        {
          "internalType": "uint16",
          "name": "_dstChainId",
          "type": "uint16"
        },
        {
          "internalType": "bytes32",
          "name": "_toAddress",
          "type": "bytes32"
        },
        {
          "internalType": "uint256",
          "name": "_amount",
          "type": "uint256"
        },
        {
          "internalType": "bytes",
          "name": "_payload",
          "type": "bytes"
        },
        {
          "internalType": "uint64",
          "name": "_dstGasForCall",
          "type": "uint64"
        },
        {
          "internalType": "bool",
          "name": "_useZro",
          "type": "bool"
        },
        {
          "internalType": "bytes",
          "name": "_adapterParams",
          "type": "bytes"
        }
      ],
      "name": "estimateSendAndCallFee",
      "outputs": [
        {
          "internalType": "uint256",
          "name": "nativeFee",
          "type": "uint256"
        },
        {
          "internalType": "uint256",
          "name": "zroFee",
          "type": "uint256"
        }
      ],
      "stateMutability": "view",
      "type": "function"
    },
    {
      "inputs": [
        {
          "internalType": "uint16",
          "name": "_dstChainId",
          "type": "uint16"
        },
        {
          "internalType": "bytes32",
          "name": "_toAddress",
          "type": "bytes32"
        },
        {
          "internalType": "uint256",
          "name": "_amount",
          "type": "uint256"
        },
        {
          "internalType": "bool",
          "name": "_useZro",
          "type": "bool"
        },
        {
          "internalType": "bytes",
          "name": "_adapterParams",
          "type": "bytes"
        }
      ],
      "name": "estimateSendFee",
      "outputs": [
        {
          "internalType": "uint256",
          "name": "nativeFee",
          "type": "uint256"
        },
        {
          "internalType": "uint256",
          "name": "zroFee",
          "type": "uint256"
        }
      ],
      "stateMutability": "view",
      "type": "function"
    },
    {
      "inputs": [
        {
          "components": [
            {
              "internalType": "address",
              "name": "from",
              "type": "address"
            },
            {
              "internalType": "address",
              "name": "target",
              "type": "address"
            },
            {
              "internalType": "uint256",
              "name": "paymentTokenAmount",
              "type": "uint256"
            },
            {
              "internalType": "uint256",
              "name": "oTAPTokenID",
              "type": "uint256"
            },
            {
              "internalType": "uint256",
              "name": "tapAmount",
              "type": "uint256"
            }
          ],
          "internalType": "struct ITapiocaOptionsBrokerCrossChain.IExerciseOptionsData",
          "name": "optionsData",
          "type": "tuple"
        },
        {
          "components": [
            {
              "internalType": "uint16",
              "name": "lzDstChainId",
              "type": "uint16"
            },
            {
              "internalType": "address",
              "name": "zroPaymentAddress",
              "type": "address"
            },
            {
              "internalType": "uint256",
              "name": "extraGas",
              "type": "uint256"
            }
          ],
          "internalType": "struct ITapiocaOptionsBrokerCrossChain.IExerciseLZData",
          "name": "lzData",
          "type": "tuple"
        },
        {
          "components": [
            {
              "internalType": "bool",
              "name": "withdrawOnAnotherChain",
              "type": "bool"
            },
            {
              "internalType": "address",
              "name": "tapOftAddress",
              "type": "address"
            },
            {
              "internalType": "uint16",
              "name": "lzDstChainId",
              "type": "uint16"
            },
            {
              "internalType": "uint256",
              "name": "amount",
              "type": "uint256"
            },
            {
              "internalType": "address",
              "name": "zroPaymentAddress",
              "type": "address"
            },
            {
              "internalType": "uint256",
              "name": "extraGas",
              "type": "uint256"
            }
          ],
          "internalType": "struct ITapiocaOptionsBrokerCrossChain.IExerciseLZSendTapData",
          "name": "tapSendData",
          "type": "tuple"
        },
        {
          "components": [
            {
              "internalType": "bool",
              "name": "permitAll",
              "type": "bool"
            },
            {
              "internalType": "bool",
              "name": "allowFailure",
              "type": "bool"
            },
            {
              "internalType": "bool",
              "name": "yieldBoxTypeApproval",
              "type": "bool"
            },
            {
              "internalType": "bool",
              "name": "revokeYieldBox",
              "type": "bool"
            },
            {
              "internalType": "uint16",
              "name": "actionType",
              "type": "uint16"
            },
            {
              "internalType": "address",
              "name": "target",
              "type": "address"
            },
            {
              "internalType": "bool",
              "name": "permitBorrow",
              "type": "bool"
            },
            {
              "internalType": "address",
              "name": "owner",
              "type": "address"
            },
            {
              "internalType": "address",
              "name": "spender",
              "type": "address"
            },
            {
              "internalType": "uint256",
              "name": "value",
              "type": "uint256"
            },
            {
              "internalType": "uint256",
              "name": "deadline",
              "type": "uint256"
            },
            {
              "internalType": "uint8",
              "name": "v",
              "type": "uint8"
            },
            {
              "internalType": "bytes32",
              "name": "r",
              "type": "bytes32"
            },
            {
              "internalType": "bytes32",
              "name": "s",
              "type": "bytes32"
            }
          ],
          "internalType": "struct ICommonData.IApproval[]",
          "name": "approvals",
          "type": "tuple[]"
        },
        {
          "components": [
            {
              "internalType": "bool",
              "name": "permitAll",
              "type": "bool"
            },
            {
              "internalType": "bool",
              "name": "allowFailure",
              "type": "bool"
            },
            {
              "internalType": "bool",
              "name": "yieldBoxTypeApproval",
              "type": "bool"
            },
            {
              "internalType": "bool",
              "name": "revokeYieldBox",
              "type": "bool"
            },
            {
              "internalType": "uint16",
              "name": "actionType",
              "type": "uint16"
            },
            {
              "internalType": "address",
              "name": "target",
              "type": "address"
            },
            {
              "internalType": "bool",
              "name": "permitBorrow",
              "type": "bool"
            },
            {
              "internalType": "address",
              "name": "owner",
              "type": "address"
            },
            {
              "internalType": "address",
              "name": "spender",
              "type": "address"
            },
            {
              "internalType": "uint256",
              "name": "value",
              "type": "uint256"
            },
            {
              "internalType": "uint256",
              "name": "deadline",
              "type": "uint256"
            },
            {
              "internalType": "uint8",
              "name": "v",
              "type": "uint8"
            },
            {
              "internalType": "bytes32",
              "name": "r",
              "type": "bytes32"
            },
            {
              "internalType": "bytes32",
              "name": "s",
              "type": "bytes32"
            }
          ],
          "internalType": "struct ICommonData.IApproval[]",
          "name": "revokes",
          "type": "tuple[]"
        },
        {
          "internalType": "bytes",
          "name": "adapterParams",
          "type": "bytes"
        }
      ],
      "name": "exerciseOption",
      "outputs": [],
      "stateMutability": "payable",
      "type": "function"
    },
    {
      "inputs": [
        {
          "internalType": "uint256",
          "name": "_amount",
          "type": "uint256"
        }
      ],
      "name": "extractUnderlying",
      "outputs": [],
      "stateMutability": "nonpayable",
      "type": "function"
    },
    {
      "inputs": [
        {
          "internalType": "uint16",
          "name": "",
          "type": "uint16"
        },
        {
          "internalType": "bytes",
          "name": "",
          "type": "bytes"
        },
        {
          "internalType": "uint64",
          "name": "",
          "type": "uint64"
        }
      ],
      "name": "failedMessages",
      "outputs": [
        {
          "internalType": "bytes32",
          "name": "",
          "type": "bytes32"
        }
      ],
      "stateMutability": "view",
      "type": "function"
    },
    {
      "inputs": [
        {
          "internalType": "uint16",
          "name": "_srcChainId",
          "type": "uint16"
        },
        {
          "internalType": "bytes",
          "name": "_srcAddress",
          "type": "bytes"
        }
      ],
      "name": "forceResumeReceive",
      "outputs": [],
      "stateMutability": "nonpayable",
      "type": "function"
    },
    {
      "inputs": [
        {
          "internalType": "uint16",
          "name": "_version",
          "type": "uint16"
        },
        {
          "internalType": "uint16",
          "name": "_chainId",
          "type": "uint16"
        },
        {
          "internalType": "address",
          "name": "",
          "type": "address"
        },
        {
          "internalType": "uint256",
          "name": "_configType",
          "type": "uint256"
        }
      ],
      "name": "getConfig",
      "outputs": [
        {
          "internalType": "bytes",
          "name": "",
          "type": "bytes"
        }
      ],
      "stateMutability": "view",
      "type": "function"
    },
    {
      "inputs": [
        {
          "internalType": "uint16",
          "name": "_remoteChainId",
          "type": "uint16"
        }
      ],
      "name": "getTrustedRemoteAddress",
      "outputs": [
        {
          "internalType": "bytes",
          "name": "",
          "type": "bytes"
        }
      ],
      "stateMutability": "view",
      "type": "function"
    },
    {
      "inputs": [],
      "name": "hostChainID",
      "outputs": [
        {
          "internalType": "uint256",
          "name": "",
          "type": "uint256"
        }
      ],
      "stateMutability": "view",
      "type": "function"
    },
    {
      "inputs": [
        {
          "internalType": "address",
          "name": "spender",
          "type": "address"
        },
        {
          "internalType": "uint256",
          "name": "addedValue",
          "type": "uint256"
        }
      ],
      "name": "increaseAllowance",
      "outputs": [
        {
          "internalType": "bool",
          "name": "",
          "type": "bool"
        }
      ],
      "stateMutability": "nonpayable",
      "type": "function"
    },
    {
      "inputs": [
        {
          "internalType": "uint16",
          "name": "_srcChainId",
          "type": "uint16"
        },
        {
          "internalType": "bytes",
          "name": "_srcAddress",
          "type": "bytes"
        }
      ],
      "name": "isTrustedRemote",
      "outputs": [
        {
          "internalType": "bool",
          "name": "",
          "type": "bool"
        }
      ],
      "stateMutability": "view",
      "type": "function"
    },
    {
      "inputs": [],
      "name": "lzEndpoint",
      "outputs": [
        {
          "internalType": "contract ILayerZeroEndpoint",
          "name": "",
          "type": "address"
        }
      ],
      "stateMutability": "view",
      "type": "function"
    },
    {
      "inputs": [
        {
          "internalType": "uint16",
          "name": "_srcChainId",
          "type": "uint16"
        },
        {
          "internalType": "bytes",
          "name": "_srcAddress",
          "type": "bytes"
        },
        {
          "internalType": "uint64",
          "name": "_nonce",
          "type": "uint64"
        },
        {
          "internalType": "bytes",
          "name": "_payload",
          "type": "bytes"
        }
      ],
      "name": "lzReceive",
      "outputs": [],
      "stateMutability": "nonpayable",
      "type": "function"
    },
    {
      "inputs": [
        {
          "internalType": "uint16",
          "name": "",
          "type": "uint16"
        },
        {
          "internalType": "uint16",
          "name": "",
          "type": "uint16"
        }
      ],
      "name": "minDstGasLookup",
      "outputs": [
        {
          "internalType": "uint256",
          "name": "",
          "type": "uint256"
        }
      ],
      "stateMutability": "view",
      "type": "function"
    },
    {
      "inputs": [],
      "name": "name",
      "outputs": [
        {
          "internalType": "string",
          "name": "",
          "type": "string"
        }
      ],
      "stateMutability": "view",
      "type": "function"
    },
    {
      "inputs": [
        {
          "internalType": "uint16",
          "name": "_srcChainId",
          "type": "uint16"
        },
        {
          "internalType": "bytes",
          "name": "_srcAddress",
          "type": "bytes"
        },
        {
          "internalType": "uint64",
          "name": "_nonce",
          "type": "uint64"
        },
        {
          "internalType": "bytes",
          "name": "_payload",
          "type": "bytes"
        }
      ],
      "name": "nonblockingLzReceive",
      "outputs": [],
      "stateMutability": "nonpayable",
      "type": "function"
    },
    {
      "inputs": [
        {
          "internalType": "address",
          "name": "owner",
          "type": "address"
        }
      ],
      "name": "nonces",
      "outputs": [
        {
          "internalType": "uint256",
          "name": "",
          "type": "uint256"
        }
      ],
      "stateMutability": "view",
      "type": "function"
    },
    {
      "inputs": [],
      "name": "owner",
      "outputs": [
        {
          "internalType": "address",
          "name": "",
          "type": "address"
        }
      ],
      "stateMutability": "view",
      "type": "function"
    },
    {
      "inputs": [
        {
          "internalType": "uint16",
          "name": "",
          "type": "uint16"
        }
      ],
      "name": "payloadSizeLimitLookup",
      "outputs": [
        {
          "internalType": "uint256",
          "name": "",
          "type": "uint256"
        }
      ],
      "stateMutability": "view",
      "type": "function"
    },
    {
      "inputs": [
        {
          "internalType": "address",
          "name": "owner",
          "type": "address"
        },
        {
          "internalType": "address",
          "name": "spender",
          "type": "address"
        },
        {
          "internalType": "uint256",
          "name": "value",
          "type": "uint256"
        },
        {
          "internalType": "uint256",
          "name": "deadline",
          "type": "uint256"
        },
        {
          "internalType": "uint8",
          "name": "v",
          "type": "uint8"
        },
        {
          "internalType": "bytes32",
          "name": "r",
          "type": "bytes32"
        },
        {
          "internalType": "bytes32",
          "name": "s",
          "type": "bytes32"
        }
      ],
      "name": "permit",
      "outputs": [],
      "stateMutability": "nonpayable",
      "type": "function"
    },
    {
      "inputs": [],
      "name": "precrime",
      "outputs": [
        {
          "internalType": "address",
          "name": "",
          "type": "address"
        }
      ],
      "stateMutability": "view",
      "type": "function"
    },
    {
      "inputs": [
        {
          "internalType": "address",
          "name": "from",
          "type": "address"
        },
        {
          "internalType": "address",
          "name": "to",
          "type": "address"
        },
        {
          "internalType": "uint16",
          "name": "lzDstChainId",
          "type": "uint16"
        },
        {
          "internalType": "address",
          "name": "zroPaymentAddress",
          "type": "address"
        },
        {
          "components": [
            {
              "internalType": "bool",
              "name": "withdraw",
              "type": "bool"
            },
            {
              "internalType": "uint256",
              "name": "withdrawLzFeeAmount",
              "type": "uint256"
            },
            {
              "internalType": "bool",
              "name": "withdrawOnOtherChain",
              "type": "bool"
            },
            {
              "internalType": "uint16",
              "name": "withdrawLzChainId",
              "type": "uint16"
            },
            {
              "internalType": "bytes",
              "name": "withdrawAdapterParams",
              "type": "bytes"
            },
            {
              "internalType": "bool",
              "name": "unwrap",
              "type": "bool"
            },
            {
              "internalType": "address payable",
              "name": "refundAddress",
              "type": "address"
            },
            {
              "internalType": "address",
              "name": "zroPaymentAddress",
              "type": "address"
            }
          ],
          "internalType": "struct ICommonData.IWithdrawParams",
          "name": "withdrawParams",
          "type": "tuple"
        },
        {
          "components": [
            {
              "internalType": "uint256",
              "name": "amount",
              "type": "uint256"
            },
            {
              "internalType": "address",
              "name": "marketHelper",
              "type": "address"
            },
            {
              "internalType": "address",
              "name": "market",
              "type": "address"
            }
          ],
          "internalType": "struct ITapiocaOFT.IRemoveParams",
          "name": "removeParams",
          "type": "tuple"
        },
        {
          "components": [
            {
              "internalType": "bool",
              "name": "permitAll",
              "type": "bool"
            },
            {
              "internalType": "bool",
              "name": "allowFailure",
              "type": "bool"
            },
            {
              "internalType": "bool",
              "name": "yieldBoxTypeApproval",
              "type": "bool"
            },
            {
              "internalType": "bool",
              "name": "revokeYieldBox",
              "type": "bool"
            },
            {
              "internalType": "uint16",
              "name": "actionType",
              "type": "uint16"
            },
            {
              "internalType": "address",
              "name": "target",
              "type": "address"
            },
            {
              "internalType": "bool",
              "name": "permitBorrow",
              "type": "bool"
            },
            {
              "internalType": "address",
              "name": "owner",
              "type": "address"
            },
            {
              "internalType": "address",
              "name": "spender",
              "type": "address"
            },
            {
              "internalType": "uint256",
              "name": "value",
              "type": "uint256"
            },
            {
              "internalType": "uint256",
              "name": "deadline",
              "type": "uint256"
            },
            {
              "internalType": "uint8",
              "name": "v",
              "type": "uint8"
            },
            {
              "internalType": "bytes32",
              "name": "r",
              "type": "bytes32"
            },
            {
              "internalType": "bytes32",
              "name": "s",
              "type": "bytes32"
            }
          ],
          "internalType": "struct ICommonData.IApproval[]",
          "name": "approvals",
          "type": "tuple[]"
        },
        {
          "components": [
            {
              "internalType": "bool",
              "name": "permitAll",
              "type": "bool"
            },
            {
              "internalType": "bool",
              "name": "allowFailure",
              "type": "bool"
            },
            {
              "internalType": "bool",
              "name": "yieldBoxTypeApproval",
              "type": "bool"
            },
            {
              "internalType": "bool",
              "name": "revokeYieldBox",
              "type": "bool"
            },
            {
              "internalType": "uint16",
              "name": "actionType",
              "type": "uint16"
            },
            {
              "internalType": "address",
              "name": "target",
              "type": "address"
            },
            {
              "internalType": "bool",
              "name": "permitBorrow",
              "type": "bool"
            },
            {
              "internalType": "address",
              "name": "owner",
              "type": "address"
            },
            {
              "internalType": "address",
              "name": "spender",
              "type": "address"
            },
            {
              "internalType": "uint256",
              "name": "value",
              "type": "uint256"
            },
            {
              "internalType": "uint256",
              "name": "deadline",
              "type": "uint256"
            },
            {
              "internalType": "uint8",
              "name": "v",
              "type": "uint8"
            },
            {
              "internalType": "bytes32",
              "name": "r",
              "type": "bytes32"
            },
            {
              "internalType": "bytes32",
              "name": "s",
              "type": "bytes32"
            }
          ],
          "internalType": "struct ICommonData.IApproval[]",
          "name": "revokes",
          "type": "tuple[]"
        },
        {
          "internalType": "bytes",
          "name": "adapterParams",
          "type": "bytes"
        }
      ],
      "name": "removeCollateral",
      "outputs": [],
      "stateMutability": "payable",
      "type": "function"
    },
    {
      "inputs": [],
      "name": "renounceOwnership",
      "outputs": [],
      "stateMutability": "nonpayable",
      "type": "function"
    },
    {
      "inputs": [
        {
          "internalType": "uint256",
          "name": "amount",
          "type": "uint256"
        },
        {
          "internalType": "address",
          "name": "to",
          "type": "address"
        }
      ],
      "name": "rescueEth",
      "outputs": [],
      "stateMutability": "nonpayable",
      "type": "function"
    },
    {
      "inputs": [
        {
          "internalType": "uint16",
          "name": "_srcChainId",
          "type": "uint16"
        },
        {
          "internalType": "bytes",
          "name": "_srcAddress",
          "type": "bytes"
        },
        {
          "internalType": "uint64",
          "name": "_nonce",
          "type": "uint64"
        },
        {
          "internalType": "bytes",
          "name": "_payload",
          "type": "bytes"
        }
      ],
      "name": "retryMessage",
      "outputs": [],
      "stateMutability": "payable",
      "type": "function"
    },
    {
      "inputs": [
        {
          "internalType": "uint16",
          "name": "_srcChainId",
          "type": "uint16"
        },
        {
          "internalType": "bytes",
          "name": "_srcAddress",
          "type": "bytes"
        },
        {
          "internalType": "uint64",
          "name": "_nonce",
          "type": "uint64"
        },
        {
          "internalType": "bytes",
          "name": "_payload",
          "type": "bytes"
        }
      ],
      "name": "retryMessageWithSafeCall",
      "outputs": [],
      "stateMutability": "nonpayable",
      "type": "function"
    },
    {
      "inputs": [
        {
          "internalType": "address",
          "name": "_from",
          "type": "address"
        },
        {
          "internalType": "uint16",
          "name": "_dstChainId",
          "type": "uint16"
        },
        {
          "internalType": "bytes32",
          "name": "_toAddress",
          "type": "bytes32"
        },
        {
          "internalType": "uint256",
          "name": "_amount",
          "type": "uint256"
        },
        {
          "internalType": "bytes",
          "name": "_payload",
          "type": "bytes"
        },
        {
          "internalType": "uint64",
          "name": "_dstGasForCall",
          "type": "uint64"
        },
        {
          "components": [
            {
              "internalType": "address payable",
              "name": "refundAddress",
              "type": "address"
            },
            {
              "internalType": "address",
              "name": "zroPaymentAddress",
              "type": "address"
            },
            {
              "internalType": "bytes",
              "name": "adapterParams",
              "type": "bytes"
            }
          ],
          "internalType": "struct ICommonOFT.LzCallParams",
          "name": "_callParams",
          "type": "tuple"
        }
      ],
      "name": "sendAndCall",
      "outputs": [],
      "stateMutability": "payable",
      "type": "function"
    },
    {
      "inputs": [
        {
          "internalType": "uint256",
          "name": "amount",
          "type": "uint256"
        },
        {
          "internalType": "address",
          "name": "leverageFor",
          "type": "address"
        },
        {
          "components": [
            {
              "internalType": "uint256",
              "name": "srcExtraGasLimit",
              "type": "uint256"
            },
            {
              "internalType": "uint16",
              "name": "lzSrcChainId",
              "type": "uint16"
            },
            {
              "internalType": "uint16",
              "name": "lzDstChainId",
              "type": "uint16"
            },
            {
              "internalType": "address",
              "name": "zroPaymentAddress",
              "type": "address"
            },
            {
              "internalType": "bytes",
              "name": "dstAirdropAdapterParam",
              "type": "bytes"
            },
            {
              "internalType": "bytes",
              "name": "srcAirdropAdapterParam",
              "type": "bytes"
            },
            {
              "internalType": "address",
              "name": "refundAddress",
              "type": "address"
            }
          ],
          "internalType": "struct IUSDOBase.ILeverageLZData",
          "name": "lzData",
          "type": "tuple"
        },
        {
          "components": [
            {
              "internalType": "address",
              "name": "tokenOut",
              "type": "address"
            },
            {
              "internalType": "uint256",
              "name": "amountOutMin",
              "type": "uint256"
            },
            {
              "internalType": "bytes",
              "name": "data",
              "type": "bytes"
            }
          ],
          "internalType": "struct IUSDOBase.ILeverageSwapData",
          "name": "swapData",
          "type": "tuple"
        },
        {
          "components": [
            {
              "internalType": "address",
              "name": "swapper",
              "type": "address"
            },
            {
              "internalType": "address",
              "name": "magnetar",
              "type": "address"
            },
            {
              "internalType": "address",
              "name": "tOft",
              "type": "address"
            },
            {
              "internalType": "address",
              "name": "srcMarket",
              "type": "address"
            }
          ],
          "internalType": "struct IUSDOBase.ILeverageExternalContractsData",
          "name": "externalData",
          "type": "tuple"
        }
      ],
      "name": "sendForLeverage",
      "outputs": [],
      "stateMutability": "payable",
      "type": "function"
    },
    {
      "inputs": [
        {
          "internalType": "address",
          "name": "_from",
          "type": "address"
        },
        {
          "internalType": "uint16",
          "name": "_dstChainId",
          "type": "uint16"
        },
        {
          "internalType": "bytes32",
          "name": "_toAddress",
          "type": "bytes32"
        },
        {
          "internalType": "uint256",
          "name": "_amount",
          "type": "uint256"
        },
        {
          "components": [
            {
              "internalType": "address payable",
              "name": "refundAddress",
              "type": "address"
            },
            {
              "internalType": "address",
              "name": "zroPaymentAddress",
              "type": "address"
            },
            {
              "internalType": "bytes",
              "name": "adapterParams",
              "type": "bytes"
            }
          ],
          "internalType": "struct ICommonOFT.LzCallParams",
          "name": "_callParams",
          "type": "tuple"
        }
      ],
      "name": "sendFrom",
      "outputs": [],
      "stateMutability": "payable",
      "type": "function"
    },
    {
      "inputs": [
        {
          "internalType": "address",
          "name": "from",
          "type": "address"
        },
        {
          "internalType": "uint16",
          "name": "lzDstChainId",
          "type": "uint16"
        },
        {
          "internalType": "bytes32",
          "name": "to",
          "type": "bytes32"
        },
        {
          "internalType": "uint256",
          "name": "amount",
          "type": "uint256"
        },
        {
          "components": [
            {
              "internalType": "address payable",
              "name": "refundAddress",
              "type": "address"
            },
            {
              "internalType": "address",
              "name": "zroPaymentAddress",
              "type": "address"
            },
            {
              "internalType": "bytes",
              "name": "adapterParams",
              "type": "bytes"
            }
          ],
          "internalType": "struct ICommonOFT.LzCallParams",
          "name": "callParams",
          "type": "tuple"
        },
        {
          "internalType": "bool",
          "name": "unwrap",
          "type": "bool"
        },
        {
          "components": [
            {
              "internalType": "bool",
              "name": "permitAll",
              "type": "bool"
            },
            {
              "internalType": "bool",
              "name": "allowFailure",
              "type": "bool"
            },
            {
              "internalType": "bool",
              "name": "yieldBoxTypeApproval",
              "type": "bool"
            },
            {
              "internalType": "bool",
              "name": "revokeYieldBox",
              "type": "bool"
            },
            {
              "internalType": "uint16",
              "name": "actionType",
              "type": "uint16"
            },
            {
              "internalType": "address",
              "name": "target",
              "type": "address"
            },
            {
              "internalType": "bool",
              "name": "permitBorrow",
              "type": "bool"
            },
            {
              "internalType": "address",
              "name": "owner",
              "type": "address"
            },
            {
              "internalType": "address",
              "name": "spender",
              "type": "address"
            },
            {
              "internalType": "uint256",
              "name": "value",
              "type": "uint256"
            },
            {
              "internalType": "uint256",
              "name": "deadline",
              "type": "uint256"
            },
            {
              "internalType": "uint8",
              "name": "v",
              "type": "uint8"
            },
            {
              "internalType": "bytes32",
              "name": "r",
              "type": "bytes32"
            },
            {
              "internalType": "bytes32",
              "name": "s",
              "type": "bytes32"
            }
          ],
          "internalType": "struct ICommonData.IApproval[]",
          "name": "approvals",
          "type": "tuple[]"
        },
        {
          "components": [
            {
              "internalType": "bool",
              "name": "permitAll",
              "type": "bool"
            },
            {
              "internalType": "bool",
              "name": "allowFailure",
              "type": "bool"
            },
            {
              "internalType": "bool",
              "name": "yieldBoxTypeApproval",
              "type": "bool"
            },
            {
              "internalType": "bool",
              "name": "revokeYieldBox",
              "type": "bool"
            },
            {
              "internalType": "uint16",
              "name": "actionType",
              "type": "uint16"
            },
            {
              "internalType": "address",
              "name": "target",
              "type": "address"
            },
            {
              "internalType": "bool",
              "name": "permitBorrow",
              "type": "bool"
            },
            {
              "internalType": "address",
              "name": "owner",
              "type": "address"
            },
            {
              "internalType": "address",
              "name": "spender",
              "type": "address"
            },
            {
              "internalType": "uint256",
              "name": "value",
              "type": "uint256"
            },
            {
              "internalType": "uint256",
              "name": "deadline",
              "type": "uint256"
            },
            {
              "internalType": "uint8",
              "name": "v",
              "type": "uint8"
            },
            {
              "internalType": "bytes32",
              "name": "r",
              "type": "bytes32"
            },
            {
              "internalType": "bytes32",
              "name": "s",
              "type": "bytes32"
            }
          ],
          "internalType": "struct ICommonData.IApproval[]",
          "name": "revokes",
          "type": "tuple[]"
        }
      ],
      "name": "sendFromWithParams",
      "outputs": [],
      "stateMutability": "payable",
      "type": "function"
    },
    {
      "inputs": [
        {
          "internalType": "address",
          "name": "from",
          "type": "address"
        },
        {
          "internalType": "address",
          "name": "to",
          "type": "address"
        },
        {
          "internalType": "uint16",
          "name": "lzDstChainId",
          "type": "uint16"
        },
        {
          "internalType": "bytes",
          "name": "airdropAdapterParams",
          "type": "bytes"
        },
        {
          "components": [
            {
              "internalType": "uint256",
              "name": "amount",
              "type": "uint256"
            },
            {
              "internalType": "uint256",
              "name": "borrowAmount",
              "type": "uint256"
            },
            {
              "internalType": "address",
              "name": "marketHelper",
              "type": "address"
            },
            {
              "internalType": "address",
              "name": "market",
              "type": "address"
            }
          ],
          "internalType": "struct ITapiocaOFT.IBorrowParams",
          "name": "borrowParams",
          "type": "tuple"
        },
        {
          "components": [
            {
              "internalType": "bool",
              "name": "withdraw",
              "type": "bool"
            },
            {
              "internalType": "uint256",
              "name": "withdrawLzFeeAmount",
              "type": "uint256"
            },
            {
              "internalType": "bool",
              "name": "withdrawOnOtherChain",
              "type": "bool"
            },
            {
              "internalType": "uint16",
              "name": "withdrawLzChainId",
              "type": "uint16"
            },
            {
              "internalType": "bytes",
              "name": "withdrawAdapterParams",
              "type": "bytes"
            },
            {
              "internalType": "bool",
              "name": "unwrap",
              "type": "bool"
            },
            {
              "internalType": "address payable",
              "name": "refundAddress",
              "type": "address"
            },
            {
              "internalType": "address",
              "name": "zroPaymentAddress",
              "type": "address"
            }
          ],
          "internalType": "struct ICommonData.IWithdrawParams",
          "name": "withdrawParams",
          "type": "tuple"
        },
        {
          "components": [
            {
              "internalType": "uint256",
              "name": "extraGasLimit",
              "type": "uint256"
            },
            {
              "internalType": "address",
              "name": "zroPaymentAddress",
              "type": "address"
            }
          ],
          "internalType": "struct ICommonData.ISendOptions",
          "name": "options",
          "type": "tuple"
        },
        {
          "components": [
            {
              "internalType": "bool",
              "name": "permitAll",
              "type": "bool"
            },
            {
              "internalType": "bool",
              "name": "allowFailure",
              "type": "bool"
            },
            {
              "internalType": "bool",
              "name": "yieldBoxTypeApproval",
              "type": "bool"
            },
            {
              "internalType": "bool",
              "name": "revokeYieldBox",
              "type": "bool"
            },
            {
              "internalType": "uint16",
              "name": "actionType",
              "type": "uint16"
            },
            {
              "internalType": "address",
              "name": "target",
              "type": "address"
            },
            {
              "internalType": "bool",
              "name": "permitBorrow",
              "type": "bool"
            },
            {
              "internalType": "address",
              "name": "owner",
              "type": "address"
            },
            {
              "internalType": "address",
              "name": "spender",
              "type": "address"
            },
            {
              "internalType": "uint256",
              "name": "value",
              "type": "uint256"
            },
            {
              "internalType": "uint256",
              "name": "deadline",
              "type": "uint256"
            },
            {
              "internalType": "uint8",
              "name": "v",
              "type": "uint8"
            },
            {
              "internalType": "bytes32",
              "name": "r",
              "type": "bytes32"
            },
            {
              "internalType": "bytes32",
              "name": "s",
              "type": "bytes32"
            }
          ],
          "internalType": "struct ICommonData.IApproval[]",
          "name": "approvals",
          "type": "tuple[]"
        },
        {
          "components": [
            {
              "internalType": "bool",
              "name": "permitAll",
              "type": "bool"
            },
            {
              "internalType": "bool",
              "name": "allowFailure",
              "type": "bool"
            },
            {
              "internalType": "bool",
              "name": "yieldBoxTypeApproval",
              "type": "bool"
            },
            {
              "internalType": "bool",
              "name": "revokeYieldBox",
              "type": "bool"
            },
            {
              "internalType": "uint16",
              "name": "actionType",
              "type": "uint16"
            },
            {
              "internalType": "address",
              "name": "target",
              "type": "address"
            },
            {
              "internalType": "bool",
              "name": "permitBorrow",
              "type": "bool"
            },
            {
              "internalType": "address",
              "name": "owner",
              "type": "address"
            },
            {
              "internalType": "address",
              "name": "spender",
              "type": "address"
            },
            {
              "internalType": "uint256",
              "name": "value",
              "type": "uint256"
            },
            {
              "internalType": "uint256",
              "name": "deadline",
              "type": "uint256"
            },
            {
              "internalType": "uint8",
              "name": "v",
              "type": "uint8"
            },
            {
              "internalType": "bytes32",
              "name": "r",
              "type": "bytes32"
            },
            {
              "internalType": "bytes32",
              "name": "s",
              "type": "bytes32"
            }
          ],
          "internalType": "struct ICommonData.IApproval[]",
          "name": "revokes",
          "type": "tuple[]"
        }
      ],
      "name": "sendToYBAndBorrow",
      "outputs": [],
      "stateMutability": "payable",
      "type": "function"
    },
    {
      "inputs": [
        {
          "internalType": "contract ICluster",
          "name": "_cluster",
          "type": "address"
        }
      ],
      "name": "setCluster",
      "outputs": [],
      "stateMutability": "nonpayable",
      "type": "function"
    },
    {
      "inputs": [
        {
          "internalType": "uint16",
          "name": "_version",
          "type": "uint16"
        },
        {
          "internalType": "uint16",
          "name": "_chainId",
          "type": "uint16"
        },
        {
          "internalType": "uint256",
          "name": "_configType",
          "type": "uint256"
        },
        {
          "internalType": "bytes",
          "name": "_config",
          "type": "bytes"
        }
      ],
      "name": "setConfig",
      "outputs": [],
      "stateMutability": "nonpayable",
      "type": "function"
    },
    {
      "inputs": [
        {
          "internalType": "uint256",
          "name": "_chain",
          "type": "uint256"
        }
      ],
      "name": "setConnectedChain",
      "outputs": [],
      "stateMutability": "nonpayable",
      "type": "function"
    },
    {
      "inputs": [
        {
          "internalType": "uint16",
          "name": "_dstChainId",
          "type": "uint16"
        },
        {
          "internalType": "uint16",
          "name": "_packetType",
          "type": "uint16"
        },
        {
          "internalType": "uint256",
          "name": "_minGas",
          "type": "uint256"
        }
      ],
      "name": "setMinDstGas",
      "outputs": [],
      "stateMutability": "nonpayable",
      "type": "function"
    },
    {
      "inputs": [
        {
          "internalType": "uint16",
          "name": "_dstChainId",
          "type": "uint16"
        },
        {
          "internalType": "uint256",
          "name": "_size",
          "type": "uint256"
        }
      ],
      "name": "setPayloadSizeLimit",
      "outputs": [],
      "stateMutability": "nonpayable",
      "type": "function"
    },
    {
      "inputs": [
        {
          "internalType": "address",
          "name": "_precrime",
          "type": "address"
        }
      ],
      "name": "setPrecrime",
      "outputs": [],
      "stateMutability": "nonpayable",
      "type": "function"
    },
    {
      "inputs": [
        {
          "internalType": "uint16",
          "name": "_version",
          "type": "uint16"
        }
      ],
      "name": "setReceiveVersion",
      "outputs": [],
      "stateMutability": "nonpayable",
      "type": "function"
    },
    {
      "inputs": [
        {
          "internalType": "uint16",
          "name": "_version",
          "type": "uint16"
        }
      ],
      "name": "setSendVersion",
      "outputs": [],
      "stateMutability": "nonpayable",
      "type": "function"
    },
    {
      "inputs": [
        {
          "internalType": "address",
          "name": "_router",
          "type": "address"
        }
      ],
      "name": "setStargateRouter",
      "outputs": [],
      "stateMutability": "nonpayable",
      "type": "function"
    },
    {
      "inputs": [
        {
          "internalType": "uint16",
          "name": "_srcChainId",
          "type": "uint16"
        },
        {
          "internalType": "bytes",
          "name": "_path",
          "type": "bytes"
        }
      ],
      "name": "setTrustedRemote",
      "outputs": [],
      "stateMutability": "nonpayable",
      "type": "function"
    },
    {
      "inputs": [
        {
          "internalType": "uint16",
          "name": "_remoteChainId",
          "type": "uint16"
        },
        {
          "internalType": "bytes",
          "name": "_remoteAddress",
          "type": "bytes"
        }
      ],
      "name": "setTrustedRemoteAddress",
      "outputs": [],
      "stateMutability": "nonpayable",
      "type": "function"
    },
    {
      "inputs": [
        {
          "internalType": "bool",
          "name": "_useCustomAdapterParams",
          "type": "bool"
        }
      ],
      "name": "setUseCustomAdapterParams",
      "outputs": [],
      "stateMutability": "nonpayable",
      "type": "function"
    },
    {
      "inputs": [
        {
          "internalType": "uint16",
          "name": "",
          "type": "uint16"
        },
        {
          "internalType": "bytes",
          "name": "",
          "type": "bytes"
        },
        {
          "internalType": "uint256",
          "name": "",
          "type": "uint256"
        },
        {
          "internalType": "address",
          "name": "",
          "type": "address"
        },
        {
          "internalType": "uint256",
          "name": "amountLD",
          "type": "uint256"
        },
        {
          "internalType": "bytes",
          "name": "",
          "type": "bytes"
        }
      ],
      "name": "sgReceive",
      "outputs": [],
      "stateMutability": "payable",
      "type": "function"
    },
    {
      "inputs": [],
      "name": "sharedDecimals",
      "outputs": [
        {
          "internalType": "uint8",
          "name": "",
          "type": "uint8"
        }
      ],
      "stateMutability": "view",
      "type": "function"
    },
    {
      "inputs": [
        {
          "internalType": "bytes4",
          "name": "interfaceId",
          "type": "bytes4"
        }
      ],
      "name": "supportsInterface",
      "outputs": [
        {
          "internalType": "bool",
          "name": "",
          "type": "bool"
        }
      ],
      "stateMutability": "view",
      "type": "function"
    },
    {
      "inputs": [],
      "name": "symbol",
      "outputs": [
        {
          "internalType": "string",
          "name": "",
          "type": "string"
        }
      ],
      "stateMutability": "view",
      "type": "function"
    },
    {
      "inputs": [],
      "name": "token",
      "outputs": [
        {
          "internalType": "address",
          "name": "",
          "type": "address"
        }
      ],
      "stateMutability": "view",
      "type": "function"
    },
    {
      "inputs": [],
      "name": "totalSupply",
      "outputs": [
        {
          "internalType": "uint256",
          "name": "",
          "type": "uint256"
        }
      ],
      "stateMutability": "view",
      "type": "function"
    },
    {
      "inputs": [
        {
          "internalType": "address",
          "name": "to",
          "type": "address"
        },
        {
          "internalType": "uint256",
          "name": "amount",
          "type": "uint256"
        }
      ],
      "name": "transfer",
      "outputs": [
        {
          "internalType": "bool",
          "name": "",
          "type": "bool"
        }
      ],
      "stateMutability": "nonpayable",
      "type": "function"
    },
    {
      "inputs": [
        {
          "internalType": "address",
          "name": "from",
          "type": "address"
        },
        {
          "internalType": "address",
          "name": "to",
          "type": "address"
        },
        {
          "internalType": "uint256",
          "name": "amount",
          "type": "uint256"
        }
      ],
      "name": "transferFrom",
      "outputs": [
        {
          "internalType": "bool",
          "name": "",
          "type": "bool"
        }
      ],
      "stateMutability": "nonpayable",
      "type": "function"
    },
    {
      "inputs": [
        {
          "internalType": "address",
          "name": "newOwner",
          "type": "address"
        }
      ],
      "name": "transferOwnership",
      "outputs": [],
      "stateMutability": "nonpayable",
      "type": "function"
    },
    {
      "inputs": [
        {
          "internalType": "uint16",
          "name": "lzDstChainId",
          "type": "uint16"
        },
        {
          "components": [
            {
              "internalType": "address payable",
              "name": "refundAddress",
              "type": "address"
            },
            {
              "internalType": "address",
              "name": "zroPaymentAddress",
              "type": "address"
            },
            {
              "internalType": "bytes",
              "name": "adapterParams",
              "type": "bytes"
            }
          ],
          "internalType": "struct ICommonOFT.LzCallParams",
          "name": "lzCallParams",
          "type": "tuple"
        },
        {
          "components": [
            {
              "internalType": "bool",
              "name": "permitAll",
              "type": "bool"
            },
            {
              "internalType": "bool",
              "name": "allowFailure",
              "type": "bool"
            },
            {
              "internalType": "bool",
              "name": "yieldBoxTypeApproval",
              "type": "bool"
            },
            {
              "internalType": "bool",
              "name": "revokeYieldBox",
              "type": "bool"
            },
            {
              "internalType": "uint16",
              "name": "actionType",
              "type": "uint16"
            },
            {
              "internalType": "address",
              "name": "target",
              "type": "address"
            },
            {
              "internalType": "bool",
              "name": "permitBorrow",
              "type": "bool"
            },
            {
              "internalType": "address",
              "name": "owner",
              "type": "address"
            },
            {
              "internalType": "address",
              "name": "spender",
              "type": "address"
            },
            {
              "internalType": "uint256",
              "name": "value",
              "type": "uint256"
            },
            {
              "internalType": "uint256",
              "name": "deadline",
              "type": "uint256"
            },
            {
              "internalType": "uint8",
              "name": "v",
              "type": "uint8"
            },
            {
              "internalType": "bytes32",
              "name": "r",
              "type": "bytes32"
            },
            {
              "internalType": "bytes32",
              "name": "s",
              "type": "bytes32"
            }
          ],
          "internalType": "struct ICommonData.IApproval[]",
          "name": "approvals",
          "type": "tuple[]"
        }
      ],
      "name": "triggerApproveOrRevoke",
      "outputs": [],
      "stateMutability": "payable",
      "type": "function"
    },
    {
      "inputs": [
        {
          "internalType": "address",
          "name": "from",
          "type": "address"
        },
        {
          "internalType": "uint16",
          "name": "lzDstChainId",
          "type": "uint16"
        },
        {
          "internalType": "bytes32",
          "name": "to",
          "type": "bytes32"
        },
        {
          "internalType": "uint256",
          "name": "amount",
          "type": "uint256"
        },
        {
          "components": [
            {
              "internalType": "address payable",
              "name": "refundAddress",
              "type": "address"
            },
            {
              "internalType": "address",
              "name": "zroPaymentAddress",
              "type": "address"
            },
            {
              "internalType": "bytes",
              "name": "adapterParams",
              "type": "bytes"
            }
          ],
          "internalType": "struct ICommonOFT.LzCallParams",
          "name": "sendFromData",
          "type": "tuple"
        },
        {
          "components": [
            {
              "internalType": "bool",
              "name": "permitAll",
              "type": "bool"
            },
            {
              "internalType": "bool",
              "name": "allowFailure",
              "type": "bool"
            },
            {
              "internalType": "bool",
              "name": "yieldBoxTypeApproval",
              "type": "bool"
            },
            {
              "internalType": "bool",
              "name": "revokeYieldBox",
              "type": "bool"
            },
            {
              "internalType": "uint16",
              "name": "actionType",
              "type": "uint16"
            },
            {
              "internalType": "address",
              "name": "target",
              "type": "address"
            },
            {
              "internalType": "bool",
              "name": "permitBorrow",
              "type": "bool"
            },
            {
              "internalType": "address",
              "name": "owner",
              "type": "address"
            },
            {
              "internalType": "address",
              "name": "spender",
              "type": "address"
            },
            {
              "internalType": "uint256",
              "name": "value",
              "type": "uint256"
            },
            {
              "internalType": "uint256",
              "name": "deadline",
              "type": "uint256"
            },
            {
              "internalType": "uint8",
              "name": "v",
              "type": "uint8"
            },
            {
              "internalType": "bytes32",
              "name": "r",
              "type": "bytes32"
            },
            {
              "internalType": "bytes32",
              "name": "s",
              "type": "bytes32"
            }
          ],
          "internalType": "struct ICommonData.IApproval[]",
          "name": "approvals",
          "type": "tuple[]"
        },
        {
          "components": [
            {
              "internalType": "bool",
              "name": "permitAll",
              "type": "bool"
            },
            {
              "internalType": "bool",
              "name": "allowFailure",
              "type": "bool"
            },
            {
              "internalType": "bool",
              "name": "yieldBoxTypeApproval",
              "type": "bool"
            },
            {
              "internalType": "bool",
              "name": "revokeYieldBox",
              "type": "bool"
            },
            {
              "internalType": "uint16",
              "name": "actionType",
              "type": "uint16"
            },
            {
              "internalType": "address",
              "name": "target",
              "type": "address"
            },
            {
              "internalType": "bool",
              "name": "permitBorrow",
              "type": "bool"
            },
            {
              "internalType": "address",
              "name": "owner",
              "type": "address"
            },
            {
              "internalType": "address",
              "name": "spender",
              "type": "address"
            },
            {
              "internalType": "uint256",
              "name": "value",
              "type": "uint256"
            },
            {
              "internalType": "uint256",
              "name": "deadline",
              "type": "uint256"
            },
            {
              "internalType": "uint8",
              "name": "v",
              "type": "uint8"
            },
            {
              "internalType": "bytes32",
              "name": "r",
              "type": "bytes32"
            },
            {
              "internalType": "bytes32",
              "name": "s",
              "type": "bytes32"
            }
          ],
          "internalType": "struct ICommonData.IApproval[]",
          "name": "revokes",
          "type": "tuple[]"
        }
      ],
      "name": "triggerSendFrom",
      "outputs": [],
      "stateMutability": "payable",
      "type": "function"
    },
    {
      "inputs": [
        {
          "internalType": "uint16",
          "name": "",
          "type": "uint16"
        }
      ],
      "name": "trustedRemoteLookup",
      "outputs": [
        {
          "internalType": "bytes",
          "name": "",
          "type": "bytes"
        }
      ],
      "stateMutability": "view",
      "type": "function"
    },
    {
      "inputs": [
        {
          "internalType": "address",
          "name": "_toAddress",
          "type": "address"
        },
        {
          "internalType": "uint256",
          "name": "_amount",
          "type": "uint256"
        }
      ],
      "name": "unwrap",
      "outputs": [],
      "stateMutability": "nonpayable",
      "type": "function"
    },
    {
      "inputs": [
        {
          "internalType": "address",
          "name": "_balancer",
          "type": "address"
        },
        {
          "internalType": "bool",
          "name": "_status",
          "type": "bool"
        }
      ],
      "name": "updateBalancerState",
      "outputs": [],
      "stateMutability": "nonpayable",
      "type": "function"
    },
    {
      "inputs": [],
      "name": "useCustomAdapterParams",
      "outputs": [
        {
          "internalType": "bool",
          "name": "",
          "type": "bool"
        }
      ],
      "stateMutability": "view",
      "type": "function"
    },
    {
      "inputs": [],
      "name": "vault",
      "outputs": [
        {
          "internalType": "contract TOFTVault",
          "name": "",
          "type": "address"
        }
      ],
      "stateMutability": "view",
      "type": "function"
    },
    {
      "inputs": [
        {
          "internalType": "address",
          "name": "_fromAddress",
          "type": "address"
        },
        {
          "internalType": "address",
          "name": "_toAddress",
          "type": "address"
        },
        {
          "internalType": "uint256",
          "name": "_amount",
          "type": "uint256"
        }
      ],
      "name": "wrap",
      "outputs": [],
      "stateMutability": "payable",
      "type": "function"
    },
    {
      "inputs": [],
      "name": "yieldBox",
      "outputs": [
        {
          "internalType": "contract IYieldBoxBase",
          "name": "",
          "type": "address"
        }
      ],
      "stateMutability": "view",
      "type": "function"
    },
    {
      "stateMutability": "payable",
      "type": "receive"
    }
  ],
  "bytecode": "0x6101c06040523462000e37576200796d803803809162000022826101c062000e58565b6101c0396101c0016101e06101c082031262000e3757620000456101c062000e7c565b620000526101e062000e7c565b61020051929091906001600160a01b038416840362000e375761022051906001600160a01b038216820362000e3757610240516001600160401b03811162000e375781620000a4916101c00162000eb6565b6102605190916001600160401b03821162000e3757620000c8916101c00162000eb6565b610280519560ff8716870362000e37576102a0516102c051909790916001600160a01b038316830362000e37576102e051936001600160a01b038516850362000e375761030051956001600160a01b038716870362000e375761032051976001600160a01b038916890362000e375761034051936001600160a01b038516850362000e375761036051956001600160a01b038716870362000e375761038051946001600160a01b038616860362000e375760405194602086016a546170696f63614f46542d60a81b9052858151602b8201816020850191620001aa9262000e91565b810103600b81018752602b01620001c2908762000e58565b6040519d8e620001d28162000e3c565b60018152602001603160f81b90526040518092602082016a546170696f63614f46542d60a81b905280519081602b84019160200191620002129262000e91565b810103600b81018352602b016200022a908362000e58565b604051809360208201601d60fa1b905280519081602184019160200191620002529262000e91565b8101036001810184526021016200026a908462000e58565b60008054336001600160a01b0319821681178355916001600160a01b03909116907f8be0079c531659141344cd1fd0a4f28419497f9722a3daafe3b4186f6b6457e09080a36001600160a01b0316608052607f600184901c1660a0528051906001600160401b03821162000b5a57600b5490600182811c9216801562000e2c575b602083101462000cfe5781601f84931162000dba575b50602090601f831160011462000d2b5760009262000d1f575b50508160011b916000199060031b1c191617600b555b8051906001600160401b03821162000b5a57600c5490600182811c9216801562000d14575b602083101462000cfe5781601f84931162000c8c575b50602090601f831160011462000bfd5760009262000bf1575b50508160011b916000199060031b1c191617600c555b60ff620003a662001210565b1680607f8360011c161162000b9c57607f8260011c1690039060ff821162000b8657604d60ff83161162000b865760ff809216600a0a60c0528d60018060a01b031660018060a01b0319600f541617600f551660ff1960115416176011558c60105560018060a01b031660018060a01b0319600d541617600d5560018060a01b031660018060a01b0319600e541617600e55620004438162000f11565b610180526200045289620010b9565b6101a052602081519101209788610140526020815191012080610160524661010052604051987f8b73c3c69bb8fe3d512ecc4cf759cc79239f7b179b0ffacaa9a75d522b39400f60208b015260408a015260608901524660808901523060a089015260a088528760c081011060018060401b0360c08a01111762000b5a5760c08801604081905288516020808b019190912060e0523061012052601780546001600160a01b039788166001600160a01b03199182168117909255601880549989169982168a179055601980549a89169a82168b179055601a80549b89169b82168c179055601b805496891696821687179055601c805497891697821688179055601d805495909816948116851790975560129091527f71a67924699a20698523213e55fe499d539379d7769cd5567e2c45d583f815a3805487169093179092557f1223f9031f9dca49a7844c397098ce9a4e80513444d0a8bb59820dff564808e4805486169093179092557f724fd36bd271795fe7866d4cc83b61084ef704502b00c2e0b28047123b3c1acc805485169093179092557f8e1fee8c88a9e04123b21e90cae2727a7715bf522a1e46eb5934ccd05203a6b2805484169092179091557f0f36ad39aee03e7108cc48f54934702a5f0d4066f10344cebf8198978d86976a805483169093179092557fb4fcd034df3d20faa1c133b66d862ce92732727d40916b48ffb4020cb00fe0538054821690931790925560056000527f45429b9195d4ec5c0cf6c69e9c21a4ca0ea773b702c2de5735f85d2631f2674680549092169092179055620006a49062000e3c565b600560c082019081526313030a6160e31b60e08301526103046000526021602052517f61b27dd54af6a1736ade1980f418a6087d57d828c35d1c56806e140b6b963d9691600882101562000b705760ff64ffffffff0060e0855493015160d81c1692169064ffffffffff191617179055604051620007228162000e3c565b60058152631789153d60e31b6020808301919091526103076000526021905280517f3ea0eb77286a615efecb79a76768aef6423688813cf748be7f836e2f8eeed7ab91600882101562000b705760ff64ffffffff006020855493015160d81c1692169064ffffffffff1916171790556040516200079f8162000e3c565b6003815263bafb655d60e01b6020808301919091526103086000526021905280517f9b43dd2020d758faa00bcafcc623013905c18fb0417b44edb869279cb436483891600882101562000b705760ff64ffffffff006020855493015160d81c1692169064ffffffffff1916171790556040516200081c8162000e3c565b600781526381618d0560e01b6020808301919091526103096000526021905280517fec816068570d53dffa0b0e9052c3d0e4acf1133326aef9625c96c53224542f7091600882101562000b705760ff64ffffffff006020855493015160d81c1692169064ffffffffff191617179055604051620008998162000e3c565b6001815263af2ee97560e01b60208083019190915261030a6000526021905280517ff93dfc0454f508b9d12fbe5cef27c0ff8d3ac142731438676eec8ff1a727f9d291600882101562000b705760ff64ffffffff006020855493015160d81c1692169064ffffffffff191617179055604051620009168162000e3c565b6001815263ee75f25d60e01b60208083019190915261030b6000526021905280517fb7d30da24b21189720d6b9e3246ddc2a924a544c4081528dfb0958989f94dc2991600882101562000b705760ff64ffffffff006020855493015160d81c1692169064ffffffffff191617179055604051620009938162000e3c565b6001815263bda6ce2160e01b602080830191825261030c6000526021905290517f428b9c69a1ae580c18d0483ae9c5f9dc50e029e4c511a6b85ec1fa61ac38e3d391600882101562000b705760ff64ffffffff008454925160d81c1692169064ffffffffff191617179055604051906107f080830183811060018060401b0382111762000b5a5760209284926200717d84396001600160a01b031681520301906000f0801562000b4e57602080546001600160a01b0319166001600160a01b0392909216919091179055600160225546811462000b2f575b604051615f5690816200122782396080518181816105f60152818161090501528181610b5b01528181610de10152818161100e015281816129ec01528181612af4015281816133820152818161510301526153c2015260a051816121d2015260c0518181816155520152818161567f015281816158ec0152615984015260e05181613a5001526101005181613b0b01526101205181613a1a01526101405181613a9f01526101605181613ac5015261018051816120db01526101a051816121040152f35b60005260236020526040600020600160ff198254161790553862000a6b565b6040513d6000823e3d90fd5b634e487b7160e01b600052604160045260246000fd5b634e487b7160e01b600052602160045260246000fd5b634e487b7160e01b600052601160045260246000fd5b60405162461bcd60e51b815260206004820152602760248201527f4f46543a20736861726564446563696d616c73206d757374206265203c3d20646044820152666563696d616c7360c81b6064820152608490fd5b01519050388062000384565b600c600090815293507fdf6966c971051c3d54ec59162606531493a51404a002842f56009d7e5cf4a8c791905b601f198416851062000c70576001945083601f1981161062000c56575b505050811b01600c556200039a565b015160001960f88460031b161c1916905538808062000c47565b8181015183556020948501946001909301929091019062000c2a565b600c6000529091507fdf6966c971051c3d54ec59162606531493a51404a002842f56009d7e5cf4a8c7601f840160051c81016020851062000cf6575b90849392915b601f830160051c8201811062000ce65750506200036b565b6000815585945060010162000cce565b508062000cc8565b634e487b7160e01b600052602260045260246000fd5b91607f169162000355565b0151905038806200031a565b600b600090815293507f0175b7a638427703f0dbe7bb9bbf987a2551717b34e79f33b5b1008d1fa01db991905b601f198416851062000d9e576001945083601f1981161062000d84575b505050811b01600b5562000330565b015160001960f88460031b161c1916905538808062000d75565b8181015183556020948501946001909301929091019062000d58565b600b6000529091507f0175b7a638427703f0dbe7bb9bbf987a2551717b34e79f33b5b1008d1fa01db9601f840160051c81016020851062000e24575b90849392915b601f830160051c8201811062000e1457505062000301565b6000815585945060010162000dfc565b508062000df6565b91607f1691620002eb565b600080fd5b604081019081106001600160401b0382111762000b5a57604052565b601f909101601f19168101906001600160401b0382119082101762000b5a57604052565b51906001600160a01b038216820362000e3757565b60005b83811062000ea55750506000910152565b818101518382015260200162000e94565b81601f8201121562000e375780516001600160401b03811162000b5a576040519262000eed601f8301601f19166020018562000e58565b8184526020828401011162000e375762000f0e916020808501910162000e91565b90565b80516020908181101562000f8f5750601f82511162000f4d578082519201519080831062000f3e57501790565b82600019910360031b1b161790565b60449062000f819260405193849263305a27a960e01b84528060048501528251928391826024870152868601910162000e91565b601f01601f19168101030190fd5b906001600160401b03821162000b5a57601354926001938481811c91168015620010ae575b8382101462000cfe57601f811162001074575b5081601f841160011462001008575092829391839260009462000ffc575b50501b916000199060031b1c19161760135560ff90565b01519250388062000fe5565b919083601f198116601360005284600020946000905b888383106200105957505050106200103f575b505050811b0160135560ff90565b015160001960f88460031b161c1916905538808062001031565b8587015188559096019594850194879350908101906200101e565b601360005284601f84600020920160051c820191601f860160051c015b828110620010a157505062000fc7565b6000815501859062001091565b90607f169062000fb4565b805160209081811015620010e65750601f82511162000f4d578082519201519080831062000f3e57501790565b906001600160401b03821162000b5a57601454926001938481811c9116801562001205575b8382101462000cfe57601f8111620011cb575b5081601f84116001146200115f575092829391839260009462001153575b50501b916000199060031b1c19161760145560ff90565b0151925038806200113c565b919083601f198116601460005284600020946000905b88838310620011b0575050501062001196575b505050811b0160145560ff90565b015160001960f88460031b161c1916905538808062001188565b85870151885590960195948501948793509081019062001175565b601460005284601f84600020920160051c820191601f860160051c015b828110620011f85750506200111e565b60008155018590620011e8565b90607f16906200110b565b60ff601154168015620012205790565b5060129056fe6080604052600436101561001b575b361561001957600080fd5b005b60003560e01c80621d3567146104ff57806254af3a146104fa57806301ffc9a7146104f557806306fdde03146104f057806307e0db17146104eb578063095ea7b3146104e65780630df37483146104e15780630f606e25146104dc57806310ddb137146104d75780631373e200146104d257806318160ddd1461042357806323b872dd146104cd578063313ce567146104c85780633644e515146104c3578063365260b4146104be57806339509351146104b957806339f47693146104b45780633d8b38f6146104af5780633f1f4fa4146104aa57806342d65a8d146104a5578063437be622146104a05780634477051514610496578063460ebfe81461049b5780634c42899a146104965780634fd7e9f61461049157806351b78b471461048c578063526137a7146104875780635b8c41e614610482578063623556381461047d57806366ad5c8a14610478578063695ef6bf1461047357806370a082311461046e578063715018a6146104695780637533d7881461046457806376203b481461045f578063767518e01461045a578063785e9e8614610455578063796fd43a146104505780637ecebe001461044b5780638088b909146104465780638232a1e61461044157806384b0196e1461043c578063857749b01461043757806389731a5c146104325780638cfd8f5c1461042d5780638da5cb5b146104285780639358928b14610423578063950c8a741461041e57806395d89b4114610419578063973751ee146104145780639bdb98121461040f5780639c49390b1461040a5780639f38369a14610405578063a457c2d714610400578063a4c51df5146103fb578063a6c3d165146103f6578063a9059cbb146103f1578063ab8236f3146103ec578063b25ea8fb146103e7578063b353aaa7146103e2578063baf3292d146103dd578063c4461834146103d8578063cbed8b9c146103d3578063d1deba1f146103ce578063d505accf146103c9578063dbd01de1146103c4578063dd62ed3e146103bf578063de406577146103ba578063df2a5b3b146103b5578063e2c268ee146103b0578063e6a20ae6146103ab578063eab45d9c146103a6578063eaffd49a146103a1578063eb8d72b71461039c578063ed629c5c14610397578063f2fde38b14610392578063f5ecbdbc1461038d578063fbfa77cf146103885763fc0c546a0361000e57613413565b6133ec565b613320565b61326b565b613248565b61311f565b61309a565b613038565b61301c565b612f8f565b612eaa565b612e81565b612e37565b612e0e565b612cbb565b612b79565b612aa8565b612a8b565b612a1b565b6129d6565b612981565b612894565b61286a565b612708565b612675565b6125c9565b61252a565b6124c3565b612478565b612436565b612347565b61231e565b610ca6565b6122f5565b6122ab565b6121f6565b6121b8565b6120c0565b611f95565b611f07565b611eca565b611d58565b611d2f565b611c2c565b611a13565b6119c0565b61188c565b61184f565b611770565b61153d565b6114b5565b611461565b611299565b61122c565b61117d565b6110c9565b6110e5565b611075565b610ff4565b610fbf565b610f63565b610eaf565b610e5f565b610d5b565b610d38565b610d12565b610cf0565b610bef565b610b36565b610aa1565b610a01565b6109cc565b6108e0565b610800565b61071c565b6106fe565b6105df565b6004359061ffff8216820361051557565b600080fd5b6024359061ffff8216820361051557565b6044359061ffff8216820361051557565b359061ffff8216820361051557565b9181601f84011215610515578235916001600160401b038311610515576020838186019501011161051557565b9060806003198301126105155760043561ffff8116810361051557916001600160401b039060243582811161051557816105b49160040161054b565b9390939260443581811681036105155792606435918211610515576105db9160040161054b565b9091565b34610515576105ed36610578565b929493919291907f00000000000000000000000000000000000000000000000000000000000000006001600160a01b031633036106ae5761067361067b926100199761066c61065261064d8a61ffff166000526001602052604060002090565b6119a5565b80519081841491826106a4575b5081610681575b50614d29565b3691611387565b923691611387565b92614e47565b905061068e368486611387565b6020815191012090602081519101201438610666565b151591503861065f565b60405162461bcd60e51b815260206004820152601e60248201527f4c7a4170703a20696e76616c696420656e64706f696e742063616c6c657200006044820152606490fd5b600091031261051557565b34610515576000366003190112610515576020601054604051908152f35b346105155760203660031901126105155760043563ffffffff60e01b81168091036105155760209063092423a160e21b8114908115610793575b8115610768575b506040519015158152f35b631f7ecdf760e01b811491508115610782575b503861075d565b6301ffc9a760e01b1490503861077b565b63843c6ae360e01b81149150610756565b60005b8381106107b75750506000910152565b81810151838201526020016107a7565b906020916107e0815180928185528580860191016107a4565b601f01601f1916010190565b9060206107fd9281815201906107c7565b90565b34610515576000806003193601126108dd5760405181600b54610822816118d5565b808452906001908181169081156108b5575060011461085c575b6108588461084c81880382611349565b604051918291826107ec565b0390f35b600b8352602094507f0175b7a638427703f0dbe7bb9bbf987a2551717b34e79f33b5b1008d1fa01db95b8284106108a257505050816108589361084c928201019361083c565b8054858501870152928501928101610886565b610858965061084c9450602092508593915060ff191682840152151560051b8201019361083c565b80fd5b3461051557600060203660031901126108dd576108fb610504565b61090361342e565b7f00000000000000000000000000000000000000000000000000000000000000006001600160a01b0316908290823b1561097757602461ffff918360405195869485936307e0db1760e01b85521660048401525af1801561097257610966575080f35b61096f906112e0565b80f35b613993565b5080fd5b6001600160a01b031690565b6001600160a01b0381160361051557565b600435906109a582610987565b565b602435906109a582610987565b606435906109a582610987565b35906109a582610987565b34610515576040366003190112610515576109f66004356109ec81610987565b6024359033613647565b602060405160018152f35b346105155760403660031901126105155761ffff610a1d610504565b610a2561342e565b166000526003602052602435604060002055600080f35b60609060a31901126105155760a490565b908160609103126105155790565b8015150361051557565b35906109a582610a5b565b9181601f84011215610515578235916001600160401b038311610515576020808501946101c0850201011161051557565b61010036600319011261051557600435610aba81610987565b610ac261051a565b6001600160401b039160843583811161051557610ae3903690600401610a4d565b60a43590610af082610a5b565b60c43585811161051557610b08903690600401610a70565b92909160e43596871161051557610b26610019973690600401610a70565b969095606435916044359161439e565b3461051557600060203660031901126108dd57610b51610504565b610b5961342e565b7f00000000000000000000000000000000000000000000000000000000000000006001600160a01b0316908290823b1561097757602461ffff918360405195869485936310ddb13760e01b85521660048401525af1801561097257610966575080f35b608090608319011261051557608490565b90816101009103126105155790565b6040906101231901126105155761012490565b6101a036600319011261051557610c04610998565b610c0c6109a7565b610c1461052b565b6001600160401b03929060643584811161051557610c3690369060040161054b565b610c4292919236610bbc565b6101043587811161051557610c5b903690600401610bcd565b90610c6536610bdc565b926101643589811161051557610c7f903690600401610a70565b969095610184359a8b1161051557610c9e6100199b3690600401610a70565b9a9099614112565b34610515576000366003190112610515576020600a54604051908152f35b606090600319011261051557600435610cdc81610987565b90602435610ce981610987565b9060443590565b34610515576109f6610d0136610cc4565b91610d0d833383613760565b613578565b34610515576000366003190112610515576020610d2d613d09565b60ff60405191168152f35b34610515576000366003190112610515576020610d53613a17565b604051908152f35b346105155760a036600319011261051557610d74610504565b60643590610d8182610a5b565b608435906001600160401b03821161051557610da661066c604093369060040161054b565b90610ddd610dc0610db86044356158ea565b6024356159b9565b928451958694859463040a7bb160e41b865230906004870161529a565b03817f00000000000000000000000000000000000000000000000000000000000000006001600160a01b03165afa908115610972576000908192610e2e575b50604080519182526020820192909252f35b9050610e51915060403d8111610e58575b610e498183611349565b810190615284565b9038610e1c565b503d610e3f565b3461051557604036600319011261051557600435610e7c81610987565b336000526009602052610e9381604060002061241f565b546024358101809111610eaa576109f69133613647565b613486565b3461051557604036600319011261051557600435610ecc81610987565b600090468252602360205260ff60408320541615610f17573382526024602052604082205460ff16610f055761096f9060243590614bcc565b604051631ae3b30b60e21b8152600490fd5b604051638ff4f0c960e01b8152600490fd5b9060406003198301126105155760043561ffff811681036105155791602435906001600160401b038211610515576105db9160040161054b565b3461051557602061ffff610fb0610f7936610f29565b9390911660005260018452610f9b610fa260406000206040519283809261190f565b0382611349565b848151910120923691611387565b82815191012014604051908152f35b346105155760203660031901126105155761ffff610fdb610504565b1660005260036020526020604060002054604051908152f35b346105155761100236610f29565b919061100c61342e565b7f00000000000000000000000000000000000000000000000000000000000000006001600160a01b031691823b1561051557604051928380926342d65a8d60e01b8252816110636000988997889460048501614dba565b03925af1801561097257610966575080f35b346105155760203660031901126105155760043561109281610987565b6001600160a01b031680156110b757600e80546001600160a01b031916919091179055005b60405163f1640ae160e01b8152600490fd5b3461051557600036600319011261051557602060405160008152f35b34610515576110f336610578565b94909130330361116b5761113b9561113593611127925a96604051988996633356ae4560e11b6020890152602488016146de565b03601f198101845283611349565b306148fa565b901561114357005b61114f6111679161497a565b60405162461bcd60e51b8152918291600483016107ec565b0390fd5b60405163ea8e4eb560e01b8152600490fd5b606036600319011261051557611191610504565b6001600160401b03602435818111610515576111b1903690600401610a4d565b6044359182116105155761001992611219611227926112076111da61ffff963690600401610a70565b9190926040519788966327ebf4fb60e11b602089015216602487015260606044870152608486019061435e565b84810360231901606486015291613ef3565b03601f198101835282611349565b61471f565b346105155760203660031901126105155760043561124981610987565b61125161342e565b601f546001600160a01b0391821691829082167f03203ecc391aa3647bdb6d4b063851d9159dc71aa4f036a84bdb1aebedaec102600080a36001600160a01b03191617601f55005b34610515576020366003190112610515576004356000526023602052602060ff604060002054166040519015158152f35b634e487b7160e01b600052604160045260246000fd5b6001600160401b0381116112f357604052565b6112ca565b602081019081106001600160401b038211176112f357604052565b60c081019081106001600160401b038211176112f357604052565b604081019081106001600160401b038211176112f357604052565b601f909101601f19168101906001600160401b038211908210176112f357604052565b6001600160401b0381116112f357601f01601f191660200190565b9291926113938261136c565b916113a16040519384611349565b829481845281830111610515578281602093846000960137010152565b9080601f83011215610515578160206107fd93359101611387565b60606003198201126105155760043561ffff8116810361051557916001600160401b03916024359083821161051557611414916004016113be565b9160443590811681036105155790565b60209061143e9282604051948386809551938492016107a4565b82019081520301902090565b9060018060401b0316600052602052604060002090565b346105155760206114ac61ffff61149e8361147b366113d9565b9490911660005260058252604060002082604051948386809551938492016107a4565b82019081520301902061144a565b54604051908152f35b6114be36610cc4565b6114d16114ca336123eb565b5460ff1690565b610f05576114f36114ef6114ca466000526023602052604060002090565b1590565b610f1757600f546001600160a01b039061150c9061097b565b1661151c57506100199150614b77565b903461152b5761001992614a28565b60405163e29321d360e01b8152600490fd5b346105155761154b36610578565b93919230330361171c5761156c92611564913691611387565b933691611387565b9161157683615e13565b61158d6114ca826000526021602052604060002090565b611596816148ae565b156116b557936115bb6115b6610019966000526021602052604060002090565b614f78565b6000600582516115ca816148ae565b6115d3816148ae565b0361163157506115ec6115e7601a5461097b565b61097b565b905b61162c6116116020835193611602856148ae565b01516001600160e01b03191690565b61112788888888604051988996602088015260248701614fc1565b615011565b6003825161163e816148ae565b611647816148ae565b03611661575061165b6115e760185461097b565b906115ee565b6007825161166e816148ae565b611677816148ae565b0361168b575061165b6115e7601c5461097b565b60018251611698816148ae565b6116a1816148ae565b0361165b575061165b6115e7601d5461097b565b506116c86116c284615db8565b60ff1690565b806116d957505050610019916154f3565b6001036116e9576100199361563a565b60405162461bcd60e51b815260206004820152600b60248201526a1513d19517dc1858dad95d60aa1b6044820152606490fd5b60405162461bcd60e51b815260206004820152602660248201527f4e6f6e626c6f636b696e674c7a4170703a2063616c6c6572206d7573742062656044820152650204c7a4170760d41b6064820152608490fd5b60a03660031901126105155760043561178881610987565b61179061051a565b604435916084356001600160401b03811161051557602061ffff6117c7600080516020615e61833981519152933690600401610a4d565b9361183a85356117d681610987565b6117f461066c86890135986117ea8a610987565b6040810190615081565b6117fe818a6157ec565b61181361180c606435615982565b5085615b8a565b9761181f8915156152de565b61183161182b8a6158ea565b8c6159b9565b9234938b61537e565b6040519485526001600160a01b0316941692a4005b346105155760203660031901126105155760043561186c81610987565b60018060a01b031660005260086020526020604060002054604051908152f35b34610515576000806003193601126108dd576118a661342e565b80546001600160a01b03198116825581906001600160a01b0316600080516020615ec18339815191528280a380f35b90600182811c92168015611905575b60208310146118ef57565b634e487b7160e01b600052602260045260246000fd5b91607f16916118e4565b9060009291805491611920836118d5565b9182825260019384811690816000146119825750600114611942575b50505050565b90919394506000526020928360002092846000945b83861061196e57505050500101903880808061193c565b805485870183015294019385908201611957565b9294505050602093945060ff191683830152151560051b0101903880808061193c565b906109a56119b9926040519384809261190f565b0383611349565b346105155760203660031901126105155761ffff6119dc610504565b166000526001602052610858610f9b6119ff60406000206040519283809261190f565b6040519182916020835260208301906107c7565b60e036600319011261051557600435611a2b81610987565b611a3361051a565b604435916001600160401b039060843582811161051557611a5890369060040161054b565b91909260a43591818316918284036105155760c43590811161051557611a82903690600401610a4d565b92611ab9843595611a9287610987565b611ab1611aa76020880135976117ea89610987565b9990923691611387565b973691611387565b9460ff60065416600014611bab576022865110611b67578560209561183161183a94611b358c611b2261ffff9a8b6022600080516020615e618339815191529f0151931660005260028d52611b1c60406000206001600052602052604060002090565b546134b8565b90611b2e821515615841565b101561588a565b611b4a611b43606435615982565b5088615b8a565b9a611b568c15156152de565b8d611b608d6158ea565b9033615a47565b60405162461bcd60e51b815260206004820152601c60248201527b4c7a4170703a20696e76616c69642061646170746572506172616d7360201b6044820152606490fd5b948094935051611bd857600080516020615e618339815191529460209461ffff9461183161183a94611b35565b60405162461bcd60e51b815260206004820152602660248201527f4f4654436f72653a205f61646170746572506172616d73206d7573742062652060448201526532b6b83a3c9760d11b6064820152608490fd5b60e036600319011261051557600435611c4481610987565b611c4c61051a565b6001600160401b039160843583811161051557611c6d903690600401610a4d565b9060a43584811161051557611c86903690600401610a70565b949060c43591821161051557611cff61122794611d1361001998611cb1611219963690600401610a70565b94909361ffff6040519b8c9a6303b3a8c760e51b60208d015260018060a01b031660248c01521660448a015260443560648a015260643560848a015260e060a48a015261010489019061435e565b9060231995868984030160c48a0152613ef3565b928584030160e4860152613ef3565b6001600160a01b03169052565b3461051557600036600319011261051557600f546040516001600160a01b039091168152602090f35b60031961010036820181136105155760243591611d7483610987565b604435926001600160401b03918285116105155760e0856004019186360301126105155760643592831161051557611219611eba61001996611dbd611ec5963690600401610a4d565b611ea9611e9e60c4611e97611dd136610bbc565b986040519c8d9b8c6020633cb7ea1d60e11b9101528c602460043591015260018060a01b031660448d015260648c015280356101248c015261ffff80611e1960248a0161053c565b166101448d0152611e2c6044890161053c565b166101648c0152611e4f6064880135611e4481610987565b6101848d0190611d22565b611e83611e788c610204611e6660848c0186613d1e565b91909260e06101a48201520191613d50565b9160a4890190613d1e565b8c830361012319016101c48e015290613d50565b94016109c1565b6101e4880190611d22565b858203602319016084870152613d71565b9160a4840190613db5565b6147b5565b3461051557602036600319011261051557600435611ee781610987565b60018060a01b031660005260156020526020604060002054604051908152f35b366003190161022081126105155760a01361051557611f2536610a3c565b60c036610103190112610515576001600160401b03906101c43582811161051557611f54903690600401610a70565b6101e49291923584811161051557611f70903690600401610a70565b916102043595861161051557611f8d61001996369060040161054b565b959094614295565b346105155760203660031901126105155760043560026022541461207b576002602255611fc76114ef6114ca336123eb565b610f055780156110b757600f546001600160a01b0390611fe69061097b565b1615611ff66115e760205461097b565b91823b156105155760405163f3fef3a360e01b815260009384908290818381612023883360048401614447565b03925af1801561097257612062575b50337f2303fe76c64d34b12f3ae35afd1f886cab3c469b873375bc32e82accd1ad28ef8480a461096f6001602255565b8061206f612075926112e0565b806106f3565b38612032565b60405162461bcd60e51b815260206004820152601f60248201527f5265656e7472616e637947756172643a207265656e7472616e742063616c6c006044820152606490fd5b34610515576000806003193601126108dd5761216a906120ff7f0000000000000000000000000000000000000000000000000000000000000000613b57565b6121287f0000000000000000000000000000000000000000000000000000000000000000613c4f565b9160405191612136836112f8565b818352604051948594600f60f81b865261215c60209360e08589015260e08801906107c7565b9086820360408801526107c7565b904660608601523060808601528260a086015284820360c08601528080855193848152019401925b8281106121a157505050500390f35b835185528695509381019392810192600101612192565b3461051557600036600319011261051557602060405160ff7f0000000000000000000000000000000000000000000000000000000000000000168152f35b6101603660031901126105155761220b610998565b6122136109a7565b61221b61052b565b916122246109b4565b6001600160401b039360843585811161051557612245903690600401610bcd565b61224e36610a3c565b906101043587811161051557612268903690600401610a70565b9290916101243589811161051557612284903690600401610a70565b969095610144359a8b11610515576122a36100199b369060040161054b565b9a9099614024565b346105155760403660031901126105155760206114ac6122c9610504565b61ffff6122d461051a565b91166000526002835260406000209061ffff16600052602052604060002090565b34610515576000366003190112610515576000546040516001600160a01b039091168152602090f35b34610515576000366003190112610515576004546040516001600160a01b039091168152602090f35b34610515576000806003193601126108dd5760405181600c54612369816118d5565b808452906001908181169081156108b55750600114612392576108588461084c81880382611349565b600c8352602094507fdf6966c971051c3d54ec59162606531493a51404a002842f56009d7e5cf4a8c75b8284106123d857505050816108589361084c928201019361083c565b80548585018701529285019281016123bc565b6001600160a01b0316600090815260246020526040902090565b6001600160a01b0316600090815260086020526040902090565b9060018060a01b0316600052602052604060002090565b346105155760203660031901126105155760043561245381610987565b60018060a01b03166000526024602052602060ff604060002054166040519015158152f35b3461051557602060ff6124b761ffff61149e84612494366113d9565b9490911660005260078252604060002082604051948386809551938492016107a4565b54166040519015158152f35b34610515576020366003190112610515576004356124df61342e565b6000908082526023602052600160408320918183549160ff83161515907f9d4ae94752c6f738748e35a3e482cd5fc36a38f35c6c7cb0c933c5fd4f2b61418780a460ff191617905580f35b346105155760203660031901126105155761ffff612546610504565b166000526001602052610f9b61256660406000206040519283809261190f565b8051156125845761084c8161257e6108589351614e29565b90615c64565b60405162461bcd60e51b815260206004820152601d60248201527f4c7a4170703a206e6f20747275737465642070617468207265636f72640000006044820152606490fd5b34610515576040366003190112610515576004356125e681610987565b6024359033600052600960205261260181604060002061241f565b54918083106126225761261692039033613647565b60405160018152602090f35b60405162461bcd60e51b815260206004820152602560248201527f45524332303a2064656372656173656420616c6c6f77616e63652062656c6f77604482015264207a65726f60d81b6064820152608490fd5b346105155760e03660031901126105155761268e610504565b6001600160401b0390606435828111610515576126af90369060040161054b565b60849291923584811681036105155760a435916126cb83610a5b565b60c435958611610515576126e66126f696369060040161054b565b95909460443590602435906150b3565b60408051928352602083019190915290f35b346105155761271636610f29565b9061271f61342e565b6040519260209280838587013761274b6034868381013060601b88820152036014810188520186611349565b61ffff8216600090815260018086526040822087519296909291906001600160401b0383116112f3576127888361278286546118d5565b86614dd5565b80601f84116001146127e65750918080926127d59695948a9b600080516020615e818339815191529b946127db575b50501b916000199060031b1c19161790555b60405193849384614dba565b0390a180f35b0151925038806127b7565b91939498601f1984166127fe87600052602060002090565b938a905b82821061285357505091600080516020615e81833981519152999a959391856127d59896941061283a575b505050811b0190556127c9565b015160001960f88460031b161c1916905538808061282d565b808886978294978701518155019601940190612802565b34610515576040366003190112610515576109f660043561288a81610987565b6024359033613578565b60c0366003190112610515576128a8610504565b506001600160401b03602435818111610515576128c99036906004016113be565b506128d5606435610987565b6084359060a435908111610515576128f19036906004016113be565b506129006115e7601f5461097b565b330361116b57600f546001600160a01b039061291b9061097b565b168061296857506129306115e760205461097b565b803b1561051557600090600460405180948193636db5a92360e11b83525af180156109725761295b57005b8061206f610019926112e0565b906100199161297b6115e760205461097b565b90614462565b346105155760403660031901126105155760243561299e81610987565b6129a661342e565b60008080808094600435905af16129bb614577565b50156129c45780f35b60405163312d207360e11b8152600490fd5b34610515576000366003190112610515576040517f00000000000000000000000000000000000000000000000000000000000000006001600160a01b03168152602090f35b34610515576020366003190112610515577f5db758e995a17ec1ad84bdef7e8c3293a0bd6179bcce400dff5d4c3d87db726b6020600435612a5b81610987565b612a6361342e565b600480546001600160a01b0319166001600160a01b03929092169182179055604051908152a1005b346105155760003660031901126105155760206040516127108152f35b3461051557608036600319011261051557612ac1610504565b612ac961051a565b6064356001600160401b03811161051557612ae890369060040161054b565b9092612af261342e565b7f00000000000000000000000000000000000000000000000000000000000000006001600160a01b031690813b156105155760008094612b69604051978896879586946332fb62e760e21b865261ffff80921660048701521660248501526044356044850152608060648501526084840191613d50565b03925af180156109725761295b57005b612b8236610578565b9161ffff86949296166000526005602052612bb681604060002060206040518092878b83378782019081520301902061144a565b54918215612c4c57612c3b612c47947fc264d91f3adc5588250e1551f547752ca0cfa8f6b530d243b9f9f4cab10ea8e5986000612c3186612c2c8c88612c268e612c128e612c05368d8d611387565b6020815191012014614651565b61ffff166000526005602052604060002090565b91614638565b61144a565b5584848a8a6148b8565b604051958695866146a7565b0390a1005b60405162461bcd60e51b815260206004820152602360248201527f4e6f6e626c6f636b696e674c7a4170703a206e6f2073746f726564206d65737360448201526261676560e81b6064820152608490fd5b6084359060ff8216820361051557565b359060ff8216820361051557565b346105155760e036600319011261051557600435612cd881610987565b602435612ce481610987565b6044359060643592612cf4612c9d565b93804211612dc957612db1612dc49161112761001997612d99612d328760018060a01b03166000526015602052604060002090815491600183019055565b604080517f6e71edae12b1b97f4d1f60370fef10105fa2faae0126114a169c64845d6126c9602082019081526001600160a01b03808c1693830193909352918b166060820152608081018c905260a081019290925260c082019590955292839060e0820190565b612dac60c4359360a43593519020613b31565b61383c565b6001600160a01b038381169116146137f0565b613647565b60405162461bcd60e51b815260206004820152601d60248201527f45524332305065726d69743a206578706972656420646561646c696e650000006044820152606490fd5b3461051557600036600319011261051557600e546040516001600160a01b039091168152602090f35b346105155760403660031901126105155760206114ac600435612e5981610987565b60243590612e6682610987565b6001600160a01b03166000908152600984526040902061241f565b3461051557600036600319011261051557600d546040516001600160a01b039091168152602090f35b3461051557606036600319011261051557612ec3610504565b612ecb61051a565b60443591612ed761342e565b8215612f5257612c477f9d5c7c0b934da8fefa9c7760c98383778a12dfbfc0c3b3106518f43fb9508ac09361ffff8316600052600260205280612f2c8560406000209061ffff16600052602052604060002090565b556040519384938460409194939294606082019561ffff80921683521660208201520152565b60405162461bcd60e51b81526020600482015260156024820152744c7a4170703a20696e76616c6964206d696e47617360581b6044820152606490fd5b3461051557604036600319011261051557600435612fac81610987565b60243590612fb982610a5b565b612fc161342e565b6001600160a01b0316600081815260246020526040812080549193909260ff9115159081908484161515907f470a9d1ce8bb125dc8ef5154b389c33a59bdd4c7394e3d359194965d5e6f37b98880a4169060ff191617905580f35b3461051557600036600319011261051557602060405160018152f35b34610515576020366003190112610515577f1584ad594a70cbe1e6515592e1272a987d922b097ead875069cebe8b40c004a4602060043561307881610a5b565b61308061342e565b151560ff196006541660ff821617600655604051908152a1005b3461051557610100366003190112610515576130b4610504565b6001600160401b0390602435828111610515576130d590369060040161054b565b9190604435908482168203610515576084356130f081610987565b60c4359586116105155761310b61001996369060040161054b565b94909360e4359660a43594606435936151aa565b346105155761312d36610f29565b919061313761342e565b61ffff82166000908152600160208181526040832092949291906001600160401b0387116112f3576131738761316d85546118d5565b85614dd5565b8590601f88116001146131c857509186808798936127d595600080516020615f0183398151915299936131bd575b501b906000198460031b1c191617905560405193849384614dba565b8801359250386131a1565b90601f1988166131dd85600052602060002090565b9288905b82821061323157505091889391600080516020615f0183398151915298996127d5969410613217575b505082811b0190556127c9565b870135600019600386901b60f8161c19169055388061320a565b808685968294968c013581550195019301906131e1565b3461051557600036600319011261051557602060ff600654166040519015158152f35b346105155760203660031901126105155760043561328881610987565b61329061342e565b6001600160a01b0390811680156132cc57600080546001600160a01b0319811683178255909216600080516020615ec18339815191528380a380f35b60405162461bcd60e51b815260206004820152602660248201527f4f776e61626c653a206e6577206f776e657220697320746865207a65726f206160448201526564647265737360d01b6064820152608490fd5b3461051557608036600319011261051557613339610504565b61334161051a565b9061334d604435610987565b604051633d7b2f6f60e21b815261ffff91821660048201529116602482015230604482015260648035908201526000816084817f00000000000000000000000000000000000000000000000000000000000000006001600160a01b03165afa801561097257610858916000916133cb575b50604051918291826107ec565b6133e6913d8091833e6133de8183611349565b810190614d84565b386133be565b3461051557600036600319011261051557602080546040516001600160a01b039091168152f35b34610515576000366003190112610515576020604051308152f35b6000546001600160a01b0316330361344257565b606460405162461bcd60e51b815260206004820152602060248201527f4f776e61626c653a2063616c6c6572206973206e6f7420746865206f776e65726044820152fd5b634e487b7160e01b600052601160045260246000fd5b90601f8201809211610eaa57565b6051019081605111610eaa57565b91908201809211610eaa57565b156134cc57565b60405162461bcd60e51b815260206004820152602360248201527f45524332303a207472616e7366657220746f20746865207a65726f206164647260448201526265737360e81b6064820152608490fd5b1561352457565b60405162461bcd60e51b815260206004820152602660248201527f45524332303a207472616e7366657220616d6f756e7420657863656564732062604482015265616c616e636560d01b6064820152608490fd5b916001600160a01b0380841692909183156135f4576135d982600080516020615ee1833981519152946135ef9416966135b28815156134c5565b6135d3846135bf83612405565b546135cc8282101561351d565b0391612405565b55612405565b8054820190556040519081529081906020820190565b0390a3565b60405162461bcd60e51b815260206004820152602560248201527f45524332303a207472616e736665722066726f6d20746865207a65726f206164604482015264647265737360d81b6064820152608490fd5b6001600160a01b03808216929190831561370f5782169384156136bf57806136ae7f8c5be1e5ebec7d5bd14f71427d1e84f3dd0314c0f7b2291e5b200ac8c7c3b925946136a96135ef9560018060a01b03166000526009602052604060002090565b61241f565b556040519081529081906020820190565b60405162461bcd60e51b815260206004820152602260248201527f45524332303a20617070726f766520746f20746865207a65726f206164647265604482015261737360f01b6064820152608490fd5b60405162461bcd60e51b8152602060048201526024808201527f45524332303a20617070726f76652066726f6d20746865207a65726f206164646044820152637265737360e01b6064820152608490fd5b9060018060a01b038216600052600960205261378081604060002061241f565b5492600184016137905750505050565b8084106137ab576137a2930391613647565b3880808061193c565b60405162461bcd60e51b815260206004820152601d60248201527f45524332303a20696e73756666696369656e7420616c6c6f77616e63650000006044820152606490fd5b156137f757565b60405162461bcd60e51b815260206004820152601e60248201527f45524332305065726d69743a20696e76616c6964207369676e617475726500006044820152606490fd5b916107fd939161384b9361399f565b919091613878565b634e487b7160e01b600052602160045260246000fd5b6005111561387357565b613853565b61388181613869565b806138895750565b61389281613869565b600181036138da5760405162461bcd60e51b815260206004820152601860248201527745434453413a20696e76616c6964207369676e617475726560401b6044820152606490fd5b6138e381613869565b600281036139305760405162461bcd60e51b815260206004820152601f60248201527f45434453413a20696e76616c6964207369676e6174757265206c656e677468006044820152606490fd5b8061393c600392613869565b1461394357565b60405162461bcd60e51b815260206004820152602260248201527f45434453413a20696e76616c6964207369676e6174757265202773272076616c604482015261756560f01b6064820152608490fd5b6040513d6000823e3d90fd5b9291906fa2a8918ca85bafe22016d0b997e4df60600160ff1b038311613a0b5791608094939160ff602094604051948552168484015260408301526060820152600093849182805260015afa156109725781516001600160a01b03811615613a05579190565b50600190565b50505050600090600390565b307f00000000000000000000000000000000000000000000000000000000000000006001600160a01b03161480613b08575b15613a72577f000000000000000000000000000000000000000000000000000000000000000090565b60405160208101907f8b73c3c69bb8fe3d512ecc4cf759cc79239f7b179b0ffacaa9a75d522b39400f82527f000000000000000000000000000000000000000000000000000000000000000060408201527f000000000000000000000000000000000000000000000000000000000000000060608201524660808201523060a082015260a08152613b0281611313565b51902090565b507f00000000000000000000000000000000000000000000000000000000000000004614613a49565b604290613b3c613a17565b906040519161190160f01b8352600283015260228201522090565b60ff8114613b955760ff811690601f8211613b835760405191613b798361132e565b8252602082015290565b604051632cd44ac360e21b8152600490fd5b50604051601354816000613ba8836118d5565b808352600193808516908115613c2e5750600114613bce575b506107fd92500382611349565b601360009081527f66de8ffda797e3de9c05e8fc57b3bf0ec28a930d40b0d285d93c06501cf6a09094602093509091905b818310613c165750506107fd935082010138613bc1565b85548784018501529485019486945091830191613bff565b90506107fd94506020925060ff191682840152151560051b82010138613bc1565b60ff8114613c715760ff811690601f8211613b835760405191613b798361132e565b50604051601454816000613c84836118d5565b808352600193808516908115613c2e5750600114613ca957506107fd92500382611349565b601460009081527fce6d7b5282bd9a3661ae061feed1dbda4e52ab073b1f9285be6e155d9c38d4ec94602093509091905b818310613cf15750506107fd935082010138613bc1565b85548784018501529485019486945091830191613cda565b60ff601154168015613d185790565b50601290565b9035601e1982360301811215610515570160208101919035906001600160401b03821161051557813603831361051557565b908060209392818452848401376000828201840152601f01601f1916010190565b906060613da56107fd938035613d8681610987565b6001600160a01b03168452602081810135908501526040810190613d1e565b9190928160408201520191613d50565b60609081813591613dc583610987565b6001600160a01b039283168552826020820135613de181610987565b166020860152826040820135613df681610987565b1660408601520135613e0781610987565b16910152565b906107fd908235613e1d81610a5b565b15158152602083013560208201526040830135613e3981610a5b565b15156040820152613e5a613e4f6060850161053c565b61ffff166060830152565b60e0613eb981613e81613e706080880188613d1e565b610100806080890152870191613d50565b95613e9a613e9160a08301610a65565b151560a0870152565b613eb3613ea960c083016109c1565b60c0870190611d22565b016109c1565b910190611d22565b6040908035835281602082013591613ed883610987565b6001600160a01b0392831660208601520135613e0781610987565b9190808252602080920192916000905b828210613f11575050505090565b9091929380613f2b600192613f2588610a65565b15159052565b613f41613f39848801610a65565b151582850152565b613f596040613f51818901610a65565b151590830152565b613f696060613f51818901610a65565b613f836080613f7981890161053c565b61ffff1690830152565b613f9c60a0613f938189016109c1565b90830190611d22565b613fac60c0613f51818901610a65565b613fbc60e0613f938189016109c1565b613fcd610100613f938189016109c1565b61012080870135908201526101408087013590820152613ffd610160613ff4818901612cad565b60ff1690830152565b61018086810135908201526101a080870135908201526101c0908101950193920190613f03565b60405163225cc69760e21b60208201526001600160a01b039182166024820152918116604483015261ffff90921660648201529116608482015261016060a48201529788979694959094909390929091614083906101848a0190613e0d565b9060c4890161409191613ec1565b6023199586898303016101248a01526140a992613ef3565b9084878303016101448801526140be92613ef3565b91848303016101648501526140d292613d50565b03601f19810182526140e49082611349565b6140ed90614808565b5050565b6020809180358452013561410481610987565b6001600160a01b0316910152565b6040516209b9f160e91b60208201526001600160a01b039182166024820152918116604483015261ffff90921660648201526101a06084820152998a9998949790969095909493909261416a916101c48c0191613d50565b96803560a48b0152602081013560c48b015281604082013561418b81610987565b1660e48b01526060013561419e81610987565b166101048901526023199586898203016101248a01526141bd91613e0d565b9161014488016141cc916140f1565b84878303016101848801526141e092613ef3565b91848303016101a48501526140d292613ef3565b6040809161ffff6142048261053c565b168452602081013561421581610987565b6001600160a01b031660208501520135910152565b6101043561423781610a5b565b151581526101243561424881610987565b6001600160a01b0390811660208301526101443561ffff8116908190036105155760408301526101643560608301526101843561428481610987565b16608082015260a06101a435910152565b92909561431395614349614359966143346140ed9a611219976040519b8c9a638088b90960e01b60208d01526004356142cd81610987565b6001600160a01b039081166024808f0191909152356142eb81610987565b1660448d015260443560648d015260643560848d015260843560a48d015260c48c01906141f4565b6143206101248b0161422a565b6102206101e48b01526102448a0191613ef3565b906023199586898403016102048a0152613ef3565b9285840301610224860152613d50565b61485b565b906060613da56107fd93803561437381610987565b6001600160a01b039081168552602082013561438e81610987565b1660208501526040810190613d1e565b604051630f606e2560e01b60208201526001600160a01b03909116602482015261ffff90911660448201526064810191909152608481019190915261010060a48201529586959493909290916143f99061012488019061435e565b90151560c487015260231993848783030160e488015261441892613ef3565b918483030161010485015261442c92613ef3565b03601f198101825261443e9082611349565b6140ed9061471f565b6001600160a01b039091168152602081019190915260400190565b6144896109a5939261112760405194859263a9059cbb60e01b602085015260248401614447565b6040516144e7916001600160a01b03166144a28261132e565b6000806020958685527f5361666545524332303a206c6f772d6c6576656c2063616c6c206661696c656487860152868151910182855af16144e1614577565b916145a7565b8051828115918215614557575b50509050156145005750565b6084906040519062461bcd60e51b82526004820152602a60248201527f5361666545524332303a204552433230206f7065726174696f6e20646964206e6044820152691bdd081cdd58d8d9595960b21b6064820152fd5b83809293500103126105155781015161456f81610a5b565b8082386144f4565b3d156145a2573d906145888261136c565b916145966040519384611349565b82523d6000602084013e565b606090565b9192901561460957508151156145bb575090565b3b156145c45790565b60405162461bcd60e51b815260206004820152601d60248201527f416464726573733a2063616c6c20746f206e6f6e2d636f6e74726163740000006044820152606490fd5b82519091501561461c5750805190602001fd5b60405162461bcd60e51b815290819061116790600483016107ec565b6020919283604051948593843782019081520301902090565b1561465857565b60405162461bcd60e51b815260206004820152602160248201527f4e6f6e626c6f636b696e674c7a4170703a20696e76616c6964207061796c6f616044820152601960fa1b6064820152608490fd5b9160609361ffff6146ca9398979698168452608060208501526080840191613d50565b6001600160401b0390951660408201520152565b916107fd9694959361ffff61470193168452608060208501526080840191613d50565b6001600160401b039094166040820152808403606090910152613d50565b600160005260126020527f71a67924699a20698523213e55fe499d539379d7769cd5567e2c45d583f815a3546001600160a01b031680156110b757816000929160208493519201905af490614772614577565b908215806147ad575b61478157565b61116761478d8361497a565b60405162461bcd60e51b81526020600482015291829160248301906107c7565b50600161477b565b600260005260126020527f8e1fee8c88a9e04123b21e90cae2727a7715bf522a1e46eb5934ccd05203a6b2546001600160a01b031680156110b757816000929160208493519201905af490614772614577565b600460005260126020527fb4fcd034df3d20faa1c133b66d862ce92732727d40916b48ffb4020cb00fe053546001600160a01b031680156110b757816000929160208493519201905af490614772614577565b600660005260126020527f1223f9031f9dca49a7844c397098ce9a4e80513444d0a8bb59820dff564808e4546001600160a01b031680156110b757816000929160208493519201905af490614772614577565b6008111561387357565b90936148e5956111279161113594955a966040519889966308c1d7fd60e31b6020890152602488016146de565b90156148ee5750565b61478d6111679161497a565b909291600080916040519561490e87611313565b6096875282602088019560a036883760208451940192f1903d906096821161493c575b6000908286523e9190565b60969150614931565b909291926149528161136c565b916149606040519384611349565b8294828452828201116105155760206109a59301906107a4565b6103e88151116149fb5760448151106149d557600481015181019060208160248401930312610515576024810151906001600160401b038211610515570190806043830112156105155760248201516107fd92604401614945565b506040516149e28161132e565b6009815268544f46545f6461746160b81b602082015290565b50604051614a088161132e565b601081526f2a27a32a2fa627a723afa922a0a9a7a760811b602082015290565b6001600160a01b0392919083811690338203614aa0575b5082156110b75783600f54169360205416604051916323b872dd60e01b6020840152602483015260448201528260648201526064815260a081019080821060018060401b038311176112f3576109a594614a9b92604052614489565b614ae2565b81600052600960205283614ab833604060002061241f565b5410614ad05783614aca913390613760565b38614a3f565b60405163fb165f2360e01b8152600490fd5b6001600160a01b03811691908215614b3257600a5490828201809211610eaa57600092614b23602092600080516020615ee183398151915294600a55612405565b818154019055604051908152a3565b60405162461bcd60e51b815260206004820152601f60248201527f45524332303a206d696e7420746f20746865207a65726f2061646472657373006044820152606490fd5b6020546001600160a01b031690813b1561051557600060049260405193848092636db5a92360e11b825234905af1918215610972576109a592614bbd575b503490614ae2565b614bc6906112e0565b38614bb5565b614bd68233614c28565b6020546001600160a01b031691823b1561051557614c0e926000928360405180968195829463f3fef3a360e01b845260048401614447565b03925af1801561097257614c1f5750565b6109a5906112e0565b6001600160a01b038116908115614cda57614c4281612405565b54838110614c8a5783600080516020615ee183398151915292614c6c6000966135ef940391612405565b55614c7a81600a5403600a55565b6040519081529081906020820190565b60405162461bcd60e51b815260206004820152602260248201527f45524332303a206275726e20616d6f756e7420657863656564732062616c616e604482015261636560f01b6064820152608490fd5b60405162461bcd60e51b815260206004820152602160248201527f45524332303a206275726e2066726f6d20746865207a65726f206164647265736044820152607360f81b6064820152608490fd5b15614d3057565b60405162461bcd60e51b815260206004820152602660248201527f4c7a4170703a20696e76616c696420736f757263652073656e64696e6720636f6044820152651b9d1c9858dd60d21b6064820152608490fd5b602081830312610515578051906001600160401b03821161051557019080601f830112156105155781516107fd92602001614945565b60409061ffff6107fd95931681528160208201520191613d50565b90601f8111614de357505050565b600091825260208220906020601f850160051c83019410614e1f575b601f0160051c01915b828110614e1457505050565b818155600101614e08565b9092508290614dff565b601319810191908211610eaa57565b605019810191908211610eaa57565b929091614ea55a604051633356ae4560e11b602082015261ffff87166024820152608060448201529061113582611127614e8460a483018a6107c7565b6001600160401b0388166064840152828103602319016084840152886107c7565b939015614eb4575b5050505050565b614ebd94614ec7565b3880808080614ead565b9193614f657fe183f33de2837795525b4792ca4cd60535bd77c53b7e7030060bfcf5734d6b0c95614f73939561ffff81516020830120961695866000526005602052614f2b8361149e60208b604060002082604051948386809551938492016107a4565b55614f48604051978897885260a0602089015260a08801906107c7565b6001600160401b03909216604087015285820360608701526107c7565b9083820360808501526107c7565b0390a1565b604080519192919081016001600160401b038111828210176112f35760405280925460ff81169060088210156138735790825260d81b6001600160e01b03191660209190910152565b6001600160a01b03909116815261ffff909116602082015260a0604082018190526107fd9492614ff3918301906107c7565b6001600160401b0390931660608201528083036080909101526107c7565b94929391946008811015613873576000908152601260205260409020546001600160a01b031680156110b757816000929160208493519201905af492615055614577565b93158080615079575b61506d57614eb4575050505050565b61116761478d8661497a565b50600061505e565b903590601e198136030182121561051557018035906001600160401b0382116105155760200191813603831361051557565b949195989790611b606150dc6040996150d46150e2976150ff993691611387565b943691611387565b976158ea565b928451968794859463040a7bb160e41b865230906004870161529a565b03817f00000000000000000000000000000000000000000000000000000000000000006001600160a01b03165afa91821561097257600090819361514257509190565b90506105db91925060403d8111610e5857610e498183611349565b939694916107fd98969361ffff6151829316865260c0602087015260c0860191613d50565b6001600160401b0390961660408401526060830152608082015280840360a090910152613d50565b9196979298959493909430330361523f576151c6908530615bb0565b60405181815290946001600160a01b03169390849061ffff851690600080516020615ea183398151915290602090a3833b15610515576000988995615222936040519c8d9b8c9a8b98633fe79aed60e11b8a5260048a0161515d565b0393f18015610972576152325750565b8061206f6109a5926112e0565b60405162461bcd60e51b815260206004820152601f60248201527f4f4654436f72653a2063616c6c6572206d757374206265204f4654436f7265006044820152606490fd5b9190826040910312610515576020825192015190565b91926107fd959361ffff6152c99316845260018060a01b0316602084015260a0604084015260a08301906107c7565b921515606082015260808184039101526107c7565b156152e557565b60405162461bcd60e51b815260206004820152601960248201527813d19510dbdc994e88185b5bdd5b9d081d1bdbc81cdb585b1b603a1b6044820152606490fd5b9261534b6107fd97959361ffff6153599416865260c0602087015260c08601906107c7565b9084820360408601526107c7565b6001600160a01b0391821660608401529316608082015280830360a0909101526107c7565b946153a79193929561ffff811660005260016020526153ae60406000206040519485809261190f565b0384611349565b825115615426576153c0855182615484565b7f00000000000000000000000000000000000000000000000000000000000000006001600160a01b031693843b156105155760009661541591604051998a988997889662c5803160e81b885260048801615326565b03925af18015610972576152325750565b60405162461bcd60e51b815260206004820152603060248201527f4c7a4170703a2064657374696e6174696f6e20636861696e206973206e6f742060448201526f61207472757374656420736f7572636560801b6064820152608490fd5b61ffff1660005260036020526040600020549081156154e9575b116154a557565b606460405162461bcd60e51b815260206004820152602060248201527f4c7a4170703a207061796c6f61642073697a6520697320746f6f206c617267656044820152fd5b612710915061549e565b9060ff6154ff82615db8565b1615806155a2575b61551090615a00565b61552261551c82615d68565b91615e03565b6001600160a01b039081831615615598575b600080516020615ea18339815191529160209161ffff9190615580907f0000000000000000000000000000000000000000000000000000000000000000906001600160401b031661596f565b9461558b8682614ae2565b60405195865216941692a3565b61dead9250615534565b508051602914615507565b98979692936155d760e0979361ffff61560c9894168c5260208c61010091829101528c01906107c7565b6001600160401b0390951660408b015260608a01526001600160a01b0316608089015260a088015286820360c08801526107c7565b930152565b615629604092959493956060835260608301906107c7565b94600180841b031660208201520152565b909161564584615ab1565b909161566f6114ca87612c2c6156698b61ffff166000526007602052604060002090565b8c611424565b916001600160401b03916156a6907f000000000000000000000000000000000000000000000000000000000000000090841661596f565b9288888b83156157a2575b505050853b1561575757946156f89694611135948a94611127948d996000146157505750505a925b5a978b6040519a8b9863757fea4d60e11b60208b015260248a016155ad565b901561574557509061574061ffff928560207fb8890edbfc1c74692f527444645f95489c3703cc2df42e4a366f5d06fa6cd88496975191012090604051948594169684615611565b0390a2565b926109a59492614ec7565b16926156d9565b50506040516001600160a01b039094168452507f9aedf5fdba8716db3b6705ca00150643309995d4f818a249ed6dde6677e7792d975091955085945050602084019250614f73915050565b90612c2c6157d7926157d1896157bc6157e4979b30614ae2565b9961ffff166000526007602052604060002090565b90611424565b805460ff19166001179055565b88888b6156b1565b60065460ff1615615839576022825110611b675761ffff60226109a59301519116600052600260205261582c604060002060008052602052604060002090565b5490611b2e821515615841565b5051611bd857565b1561584857565b60405162461bcd60e51b815260206004820152601a602482015279131e905c1c0e881b5a5b91d85cd31a5b5a5d081b9bdd081cd95d60321b6044820152606490fd5b1561589157565b60405162461bcd60e51b815260206004820152601b60248201527a4c7a4170703a20676173206c696d697420697320746f6f206c6f7760281b6044820152606490fd5b634e487b7160e01b600052601260045260246000fd5b7f000000000000000000000000000000000000000000000000000000000000000090811561596a576001600160401b03919004818111615928571690565b60405162461bcd60e51b815260206004820152601a6024820152794f4654436f72653a20616d6f756e745344206f766572666c6f7760301b6044820152606490fd5b6158d4565b81810292918115918404141715610eaa57565b7f0000000000000000000000000000000000000000000000000000000000000000801561596a57810690818103908111610eaa5791565b60405160006020820152602181019190915260c09190911b6001600160c01b031916604182015260298152606081016001600160401b038111828210176112f35760405290565b15615a0757565b60405162461bcd60e51b815260206004820152601860248201527713d19510dbdc994e881a5b9d985b1a59081c185e5b1bd85960421b6044820152606490fd5b93926071926107fd94604051968794600160f81b6020870152602186015260018060c01b0319809360c01b16604186015260018060a01b0316604985015260c01b166069830152615aa181518092602086860191016107a4565b8101036051810184520182611349565b90615ac9600160ff615ac285615db8565b1614615a00565b615ad282615d68565b90615adc83615e03565b906049845110615b4d576049840151936051815110615b1157615b0e605182015191615b088151614e38565b90615ce4565b91565b60405162461bcd60e51b8152602060048201526014602482015273746f55696e7436345f6f75744f66426f756e647360601b6044820152606490fd5b60405162461bcd60e51b8152602060048201526015602482015274746f427974657333325f6f75744f66426f756e647360581b6044820152606490fd5b6107fd9082906001600160a01b0381163314614c2857615bab823383613760565b614c28565b6107fd9183916001600160a01b038116308114159081615bdc575b501561357857610d0d833383613760565b905033141538615bcb565b15615bee57565b60405162461bcd60e51b815260206004820152600e60248201526d736c6963655f6f766572666c6f7760901b6044820152606490fd5b15615c2b57565b60405162461bcd60e51b8152602060048201526011602482015270736c6963655f6f75744f66426f756e647360781b6044820152606490fd5b615c7882615c718161349c565b1015615be7565b615c858282511015615c24565b81615c9d575050604051600081526020810160405290565b60405191601f811691821560051b808486010193838501920101905b808410615cd15750508252601f01601f191660405290565b9092835181526020809101930190615cb9565b615cf182615c718161349c565b615d068151615cff846134aa565b1115615c24565b81615d1e575050604051600081526020810160405290565b60405191601f8116916051831560051b80858701019484860193010101905b808410615d555750508252601f01601f191660405290565b9092835181526020809101930190615d3d565b6021815110615d7b57602d015160601c90565b60405162461bcd60e51b8152602060048201526015602482015274746f416464726573735f6f75744f66426f756e647360581b6044820152606490fd5b6001815110615dc8576001015190565b60405162461bcd60e51b8152602060048201526013602482015272746f55696e74385f6f75744f66426f756e647360681b6044820152606490fd5b6029815110615b11576029015190565b6020815110615e23576020015190565b60405162461bcd60e51b8152602060048201526015602482015274746f55696e743235365f6f75744f66426f756e647360581b6044820152606490fdfed81fc9b8523134ed613870ed029d6170cbb73aa6a6bc311b9a642689fb9df59a8c0400cfe2d1199b1a725c78960bcc2a344d869b80590d0f2bd005db15a572cebf551ec93859b170f9b2141bd9298bf3f64322c6f7beb2543a0cb669834118bf8be0079c531659141344cd1fd0a4f28419497f9722a3daafe3b4186f6b6457e0ddf252ad1be2c89b69c2b068fc378daa952ba7f163c4a11628f55a4df523b3effa41487ad5d6728f0b19276fa1eddc16558578f5109fc39d2dc33c3230470daba2646970667358221220fb48086924b02b386d61b085aaf42aa21999bb4d7d8ec72e6ade158d00fbe37964736f6c634300081300336080346100bb57601f6107f038819003918201601f19168301916001600160401b038311848410176100c0578084926020946040528339810103126100bb57516001600160a01b038116908190036100bb57600080546001600160a01b03191633908117825560405192917f8be0079c531659141344cd1fd0a4f28419497f9722a3daafe3b4186f6b6457e08180a3600280546001600160a81b0319168217911560a01b60ff60a01b1691909117905561071990816100d78239f35b600080fd5b634e487b7160e01b600052604160045260246000fdfe60406080815260048036101561001457600080fd5b600091823560e01c8063078dfbe7146103885780634e71e0c8146102e95780638da5cb5b146102c1578063b08ff1051461029d578063db6b52461461024b578063e30c39781461021e5763f3fef3a31461006d57600080fd5b3461021a578060031936011261021a5782610086610486565b6024359060018060a01b0361009f8185541633146104a1565b60025460ff8160a01c166000146100d957505082809281925af16100c16105b0565b50156100cc57505080f35b5163312d207360e11b8152fd5b855163a9059cbb60e01b60208201908152938316602482015260448082019590955293845260808401945016916001600160401b03808511828610176102075760c0820190811185821017610207578552602084527f5361666545524332303a206c6f772d6c6576656c2063616c6c206661696c656460a0820152516101719392918791829182855af161016b6105b0565b916105ef565b80519081159182156101e0575b50501561018a57505080f35b906020608492519162461bcd60e51b8352820152602a60248201527f5361666545524332303a204552433230206f7065726174696f6e20646964206e6044820152691bdd081cdd58d8d9595960b21b6064820152fd5b81925090602091810103126102035760200151801515810361020357388061017e565b8380fd5b634e487b7160e01b885260418752602488fd5b8280fd5b83823461024757816003193601126102475760015490516001600160a01b039091168152602090f35b5080fd5b508260031936011261021a5761026b60018060a01b0384541633146104a1565b60ff60025460a01c1615610290573415610283578280f35b51631f2a200560e01b8152fd5b5163f1640ae160e01b8152fd5b8382346102475781600319360112610247576020906102ba610525565b9051908152f35b838234610247578160031936011261024757905490516001600160a01b039091168152602090f35b503461021a578260031936011261021a576001546001600160a01b039290918383169190338390036103455750508084549384166000805160206106c48339815191528680a36001600160a01b03199283161783551660015580f35b906020606492519162461bcd60e51b8352820152602060248201527f4f776e61626c653a2063616c6c657220213d2070656e64696e67206f776e65726044820152fd5b503461021a57606036600319011261021a576103a2610486565b916024359182151583036104825760443592831515840361047e5760018060a01b039485916103d58389541633146104a1565b1561046557169283159081159161045d575b50156104225750508083549283166000805160206106c48339815191528580a36001600160a01b031991821617825560018054909116905580f35b906020606492519162461bcd60e51b835282015260156024820152744f776e61626c653a207a65726f206164647265737360581b6044820152fd5b9050386103e7565b93505050501660018060a01b0319600154161760015580f35b8580fd5b8480fd5b600435906001600160a01b038216820361049c57565b600080fd5b156104a857565b606460405162461bcd60e51b815260206004820152602060248201527f4f776e61626c653a2063616c6c6572206973206e6f7420746865206f776e65726044820152fd5b601f909101601f19168101906001600160401b0382119082101761050f57604052565b634e487b7160e01b600052604160045260246000fd5b60025460ff8160a01c166105ab576040516370a0823160e01b815230600482015290602090829060249082906001600160a01b03165afa90811561059f5760009161056e575090565b906020823d8211610597575b81610587602093836104ec565b8101031261059457505190565b80fd5b3d915061057a565b6040513d6000823e3d90fd5b504790565b3d156105ea573d906001600160401b03821161050f57604051916105de601f8201601f1916602001846104ec565b82523d6000602084013e565b606090565b919290156106515750815115610603575090565b3b1561060c5790565b60405162461bcd60e51b815260206004820152601d60248201527f416464726573733a2063616c6c20746f206e6f6e2d636f6e74726163740000006044820152606490fd5b8251909150156106645750805190602001fd5b6040519062461bcd60e51b82528160208060048301528251908160248401526000935b8285106106aa575050604492506000838284010152601f80199101168101030190fd5b848101820151868601604401529381019385935061068756fe8be0079c531659141344cd1fd0a4f28419497f9722a3daafe3b4186f6b6457e0a26469706673582212209bc7b39236d5b9f6164f03b4af6114ef0d72a6b1a64bf75012c50ddbe84e455364736f6c63430008130033",
  "linkReferences": {},
  "deployedLinkReferences": {}
}