{
  "_format": "hh-sol-artifact-1",
  "contractName": "mTapiocaOFT",
  "sourceName": "contracts/tOFT/mTapiocaOFT.sol",
  "abi": [
    {
      "inputs": [
        {
          "internalType": "address",
          "name": "_lzEndpoint",
          "type": "address"
        },
        {
          "internalType": "address",
          "name": "_erc20",
          "type": "address"
        },
        {
          "internalType": "contract IYieldBoxBase",
          "name": "_yieldBox",
          "type": "address"
        },
        {
          "internalType": "contract ICluster",
          "name": "_cluster",
          "type": "address"
        },
        {
          "internalType": "string",
          "name": "_name",
          "type": "string"
        },
        {
          "internalType": "string",
          "name": "_symbol",
          "type": "string"
        },
        {
          "internalType": "uint8",
          "name": "_decimal",
          "type": "uint8"
        },
        {
          "internalType": "uint256",
          "name": "_hostChainID",
          "type": "uint256"
        },
        {
          "internalType": "address payable",
          "name": "__leverageModule",
          "type": "address"
        },
        {
          "internalType": "address payable",
          "name": "__leverageDestinationModule",
          "type": "address"
        },
        {
          "internalType": "address payable",
          "name": "__strategyModule",
          "type": "address"
        },
        {
          "internalType": "address payable",
          "name": "__strategyDestinationModule",
          "type": "address"
        },
        {
          "internalType": "address payable",
          "name": "__marketModule",
          "type": "address"
        },
        {
          "internalType": "address payable",
          "name": "__marketDestinationModule",
          "type": "address"
        },
        {
          "internalType": "address payable",
          "name": "__optionsModule",
          "type": "address"
        },
        {
          "internalType": "address payable",
          "name": "__optionsDestinationModule",
          "type": "address"
        },
        {
          "internalType": "address payable",
          "name": "__genericModule",
          "type": "address"
        }
      ],
      "stateMutability": "nonpayable",
      "type": "constructor"
    },
    {
      "anonymous": false,
      "inputs": [
        {
          "indexed": true,
          "internalType": "address",
          "name": "owner",
          "type": "address"
        },
        {
          "indexed": true,
          "internalType": "address",
          "name": "spender",
          "type": "address"
        },
        {
          "indexed": false,
          "internalType": "uint256",
          "name": "value",
          "type": "uint256"
        }
      ],
      "name": "Approval",
      "type": "event"
    },
    {
      "anonymous": false,
      "inputs": [
        {
          "indexed": true,
          "internalType": "address",
          "name": "_balancer",
          "type": "address"
        },
        {
          "indexed": true,
          "internalType": "bool",
          "name": "_bool",
          "type": "bool"
        },
        {
          "indexed": true,
          "internalType": "bool",
          "name": "_new",
          "type": "bool"
        }
      ],
      "name": "BalancerStatusUpdated",
      "type": "event"
    },
    {
      "anonymous": false,
      "inputs": [
        {
          "indexed": true,
          "internalType": "uint16",
          "name": "_srcChainId",
          "type": "uint16"
        },
        {
          "indexed": false,
          "internalType": "bytes",
          "name": "_srcAddress",
          "type": "bytes"
        },
        {
          "indexed": false,
          "internalType": "uint64",
          "name": "_nonce",
          "type": "uint64"
        },
        {
          "indexed": false,
          "internalType": "bytes32",
          "name": "_hash",
          "type": "bytes32"
        }
      ],
      "name": "CallOFTReceivedSuccess",
      "type": "event"
    },
    {
      "anonymous": false,
      "inputs": [
        {
          "indexed": true,
          "internalType": "uint256",
          "name": "_chain",
          "type": "uint256"
        },
        {
          "indexed": true,
          "internalType": "bool",
          "name": "_old",
          "type": "bool"
        },
        {
          "indexed": true,
          "internalType": "bool",
          "name": "_new",
          "type": "bool"
        }
      ],
      "name": "ConnectedChainStatusUpdated",
      "type": "event"
    },
    {
      "anonymous": false,
      "inputs": [
        {
          "indexed": false,
          "internalType": "uint16",
          "name": "_srcChainId",
          "type": "uint16"
        },
        {
          "indexed": false,
          "internalType": "bytes",
          "name": "_srcAddress",
          "type": "bytes"
        },
        {
          "indexed": false,
          "internalType": "uint64",
          "name": "_nonce",
          "type": "uint64"
        },
        {
          "indexed": false,
          "internalType": "bytes",
          "name": "_payload",
          "type": "bytes"
        },
        {
          "indexed": false,
          "internalType": "bytes",
          "name": "_reason",
          "type": "bytes"
        }
      ],
      "name": "MessageFailed",
      "type": "event"
    },
    {
      "anonymous": false,
      "inputs": [
        {
          "indexed": false,
          "internalType": "address",
          "name": "_address",
          "type": "address"
        }
      ],
      "name": "NonContractAddress",
      "type": "event"
    },
    {
      "anonymous": false,
      "inputs": [
        {
          "indexed": true,
          "internalType": "address",
          "name": "previousOwner",
          "type": "address"
        },
        {
          "indexed": true,
          "internalType": "address",
          "name": "newOwner",
          "type": "address"
        }
      ],
      "name": "OwnershipTransferred",
      "type": "event"
    },
    {
      "anonymous": false,
      "inputs": [
        {
          "indexed": true,
          "internalType": "address",
          "name": "_balancer",
          "type": "address"
        },
        {
          "indexed": true,
          "internalType": "uint256",
          "name": "_amount",
          "type": "uint256"
        },
        {
          "indexed": true,
          "internalType": "bool",
          "name": "_isNative",
          "type": "bool"
        }
      ],
      "name": "Rebalancing",
      "type": "event"
    },
    {
      "anonymous": false,
      "inputs": [
        {
          "indexed": true,
          "internalType": "uint16",
          "name": "_srcChainId",
          "type": "uint16"
        },
        {
          "indexed": true,
          "internalType": "address",
          "name": "_to",
          "type": "address"
        },
        {
          "indexed": false,
          "internalType": "uint256",
          "name": "_amount",
          "type": "uint256"
        }
      ],
      "name": "ReceiveFromChain",
      "type": "event"
    },
    {
      "anonymous": false,
      "inputs": [
        {
          "indexed": false,
          "internalType": "uint16",
          "name": "_srcChainId",
          "type": "uint16"
        },
        {
          "indexed": false,
          "internalType": "bytes",
          "name": "_srcAddress",
          "type": "bytes"
        },
        {
          "indexed": false,
          "internalType": "uint64",
          "name": "_nonce",
          "type": "uint64"
        },
        {
          "indexed": false,
          "internalType": "bytes32",
          "name": "_payloadHash",
          "type": "bytes32"
        }
      ],
      "name": "RetryMessageSuccess",
      "type": "event"
    },
    {
      "anonymous": false,
      "inputs": [
        {
          "indexed": true,
          "internalType": "uint16",
          "name": "_dstChainId",
          "type": "uint16"
        },
        {
          "indexed": true,
          "internalType": "address",
          "name": "_from",
          "type": "address"
        },
        {
          "indexed": true,
          "internalType": "bytes32",
          "name": "_toAddress",
          "type": "bytes32"
        },
        {
          "indexed": false,
          "internalType": "uint256",
          "name": "_amount",
          "type": "uint256"
        }
      ],
      "name": "SendToChain",
      "type": "event"
    },
    {
      "anonymous": false,
      "inputs": [
        {
          "indexed": false,
          "internalType": "uint16",
          "name": "_dstChainId",
          "type": "uint16"
        },
        {
          "indexed": false,
          "internalType": "uint16",
          "name": "_type",
          "type": "uint16"
        },
        {
          "indexed": false,
          "internalType": "uint256",
          "name": "_minDstGas",
          "type": "uint256"
        }
      ],
      "name": "SetMinDstGas",
      "type": "event"
    },
    {
      "anonymous": false,
      "inputs": [
        {
          "indexed": false,
          "internalType": "address",
          "name": "precrime",
          "type": "address"
        }
      ],
      "name": "SetPrecrime",
      "type": "event"
    },
    {
      "anonymous": false,
      "inputs": [
        {
          "indexed": false,
          "internalType": "uint16",
          "name": "_remoteChainId",
          "type": "uint16"
        },
        {
          "indexed": false,
          "internalType": "bytes",
          "name": "_path",
          "type": "bytes"
        }
      ],
      "name": "SetTrustedRemote",
      "type": "event"
    },
    {
      "anonymous": false,
      "inputs": [
        {
          "indexed": false,
          "internalType": "uint16",
          "name": "_remoteChainId",
          "type": "uint16"
        },
        {
          "indexed": false,
          "internalType": "bytes",
          "name": "_remoteAddress",
          "type": "bytes"
        }
      ],
      "name": "SetTrustedRemoteAddress",
      "type": "event"
    },
    {
      "anonymous": false,
      "inputs": [
        {
          "indexed": false,
          "internalType": "bool",
          "name": "_useCustomAdapterParams",
          "type": "bool"
        }
      ],
      "name": "SetUseCustomAdapterParams",
      "type": "event"
    },
    {
      "anonymous": false,
      "inputs": [
        {
          "indexed": true,
          "internalType": "address",
          "name": "from",
          "type": "address"
        },
        {
          "indexed": true,
          "internalType": "address",
          "name": "to",
          "type": "address"
        },
        {
          "indexed": false,
          "internalType": "uint256",
          "name": "value",
          "type": "uint256"
        }
      ],
      "name": "Transfer",
      "type": "event"
    },
    {
      "inputs": [],
      "name": "DEFAULT_PAYLOAD_SIZE_LIMIT",
      "outputs": [
        {
          "internalType": "uint256",
          "name": "",
          "type": "uint256"
        }
      ],
      "stateMutability": "view",
      "type": "function"
    },
    {
      "inputs": [],
      "name": "DOMAIN_SEPARATOR",
      "outputs": [
        {
          "internalType": "bytes32",
          "name": "",
          "type": "bytes32"
        }
      ],
      "stateMutability": "view",
      "type": "function"
    },
    {
      "inputs": [],
      "name": "NO_EXTRA_GAS",
      "outputs": [
        {
          "internalType": "uint256",
          "name": "",
          "type": "uint256"
        }
      ],
      "stateMutability": "view",
      "type": "function"
    },
    {
      "inputs": [],
      "name": "PT_SEND",
      "outputs": [
        {
          "internalType": "uint8",
          "name": "",
          "type": "uint8"
        }
      ],
      "stateMutability": "view",
      "type": "function"
    },
    {
      "inputs": [],
      "name": "PT_SEND_AND_CALL",
      "outputs": [
        {
          "internalType": "uint8",
          "name": "",
          "type": "uint8"
        }
      ],
      "stateMutability": "view",
      "type": "function"
    },
    {
      "inputs": [],
      "name": "SWAP_MAX_SLIPPAGE",
      "outputs": [
        {
          "internalType": "uint256",
          "name": "",
          "type": "uint256"
        }
      ],
      "stateMutability": "view",
      "type": "function"
    },
    {
      "inputs": [
        {
          "internalType": "address",
          "name": "owner",
          "type": "address"
        },
        {
          "internalType": "address",
          "name": "spender",
          "type": "address"
        }
      ],
      "name": "allowance",
      "outputs": [
        {
          "internalType": "uint256",
          "name": "",
          "type": "uint256"
        }
      ],
      "stateMutability": "view",
      "type": "function"
    },
    {
      "inputs": [
        {
          "internalType": "address",
          "name": "spender",
          "type": "address"
        },
        {
          "internalType": "uint256",
          "name": "amount",
          "type": "uint256"
        }
      ],
      "name": "approve",
      "outputs": [
        {
          "internalType": "bool",
          "name": "",
          "type": "bool"
        }
      ],
      "stateMutability": "nonpayable",
      "type": "function"
    },
    {
      "inputs": [
        {
          "internalType": "address",
          "name": "account",
          "type": "address"
        }
      ],
      "name": "balanceOf",
      "outputs": [
        {
          "internalType": "uint256",
          "name": "",
          "type": "uint256"
        }
      ],
      "stateMutability": "view",
      "type": "function"
    },
    {
      "inputs": [
        {
          "internalType": "address",
          "name": "",
          "type": "address"
        }
      ],
      "name": "balancers",
      "outputs": [
        {
          "internalType": "bool",
          "name": "",
          "type": "bool"
        }
      ],
      "stateMutability": "view",
      "type": "function"
    },
    {
      "inputs": [
        {
          "internalType": "uint16",
          "name": "_srcChainId",
          "type": "uint16"
        },
        {
          "internalType": "bytes",
          "name": "_srcAddress",
          "type": "bytes"
        },
        {
          "internalType": "uint64",
          "name": "_nonce",
          "type": "uint64"
        },
        {
          "internalType": "bytes32",
          "name": "_from",
          "type": "bytes32"
        },
        {
          "internalType": "address",
          "name": "_to",
          "type": "address"
        },
        {
          "internalType": "uint256",
          "name": "_amount",
          "type": "uint256"
        },
        {
          "internalType": "bytes",
          "name": "_payload",
          "type": "bytes"
        },
        {
          "internalType": "uint256",
          "name": "_gasForCall",
          "type": "uint256"
        }
      ],
      "name": "callOnOFTReceived",
      "outputs": [],
      "stateMutability": "nonpayable",
      "type": "function"
    },
    {
      "inputs": [],
      "name": "circulatingSupply",
      "outputs": [
        {
          "internalType": "uint256",
          "name": "",
          "type": "uint256"
        }
      ],
      "stateMutability": "view",
      "type": "function"
    },
    {
      "inputs": [],
      "name": "cluster",
      "outputs": [
        {
          "internalType": "contract ICluster",
          "name": "",
          "type": "address"
        }
      ],
      "stateMutability": "view",
      "type": "function"
    },
    {
      "inputs": [
        {
          "internalType": "uint256",
          "name": "",
          "type": "uint256"
        }
      ],
      "name": "connectedChains",
      "outputs": [
        {
          "internalType": "bool",
          "name": "",
          "type": "bool"
        }
      ],
      "stateMutability": "view",
      "type": "function"
    },
    {
      "inputs": [
        {
          "internalType": "uint16",
          "name": "",
          "type": "uint16"
        },
        {
          "internalType": "bytes",
          "name": "",
          "type": "bytes"
        },
        {
          "internalType": "uint64",
          "name": "",
          "type": "uint64"
        }
      ],
      "name": "creditedPackets",
      "outputs": [
        {
          "internalType": "bool",
          "name": "",
          "type": "bool"
        }
      ],
      "stateMutability": "view",
      "type": "function"
    },
    {
      "inputs": [],
      "name": "decimals",
      "outputs": [
        {
          "internalType": "uint8",
          "name": "",
          "type": "uint8"
        }
      ],
      "stateMutability": "view",
      "type": "function"
    },
    {
      "inputs": [
        {
          "internalType": "address",
          "name": "spender",
          "type": "address"
        },
        {
          "internalType": "uint256",
          "name": "subtractedValue",
          "type": "uint256"
        }
      ],
      "name": "decreaseAllowance",
      "outputs": [
        {
          "internalType": "bool",
          "name": "",
          "type": "bool"
        }
      ],
      "stateMutability": "nonpayable",
      "type": "function"
    },
    {
      "inputs": [],
      "name": "erc20",
      "outputs": [
        {
          "internalType": "address",
          "name": "",
          "type": "address"
        }
      ],
      "stateMutability": "view",
      "type": "function"
    },
    {
      "inputs": [
        {
          "internalType": "uint16",
          "name": "_dstChainId",
          "type": "uint16"
        },
        {
          "internalType": "bytes32",
          "name": "_toAddress",
          "type": "bytes32"
        },
        {
          "internalType": "uint256",
          "name": "_amount",
          "type": "uint256"
        },
        {
          "internalType": "bytes",
          "name": "_payload",
          "type": "bytes"
        },
        {
          "internalType": "uint64",
          "name": "_dstGasForCall",
          "type": "uint64"
        },
        {
          "internalType": "bool",
          "name": "_useZro",
          "type": "bool"
        },
        {
          "internalType": "bytes",
          "name": "_adapterParams",
          "type": "bytes"
        }
      ],
      "name": "estimateSendAndCallFee",
      "outputs": [
        {
          "internalType": "uint256",
          "name": "nativeFee",
          "type": "uint256"
        },
        {
          "internalType": "uint256",
          "name": "zroFee",
          "type": "uint256"
        }
      ],
      "stateMutability": "view",
      "type": "function"
    },
    {
      "inputs": [
        {
          "internalType": "uint16",
          "name": "_dstChainId",
          "type": "uint16"
        },
        {
          "internalType": "bytes32",
          "name": "_toAddress",
          "type": "bytes32"
        },
        {
          "internalType": "uint256",
          "name": "_amount",
          "type": "uint256"
        },
        {
          "internalType": "bool",
          "name": "_useZro",
          "type": "bool"
        },
        {
          "internalType": "bytes",
          "name": "_adapterParams",
          "type": "bytes"
        }
      ],
      "name": "estimateSendFee",
      "outputs": [
        {
          "internalType": "uint256",
          "name": "nativeFee",
          "type": "uint256"
        },
        {
          "internalType": "uint256",
          "name": "zroFee",
          "type": "uint256"
        }
      ],
      "stateMutability": "view",
      "type": "function"
    },
    {
      "inputs": [
        {
          "components": [
            {
              "internalType": "address",
              "name": "from",
              "type": "address"
            },
            {
              "internalType": "address",
              "name": "target",
              "type": "address"
            },
            {
              "internalType": "uint256",
              "name": "paymentTokenAmount",
              "type": "uint256"
            },
            {
              "internalType": "uint256",
              "name": "oTAPTokenID",
              "type": "uint256"
            },
            {
              "internalType": "address",
              "name": "paymentToken",
              "type": "address"
            },
            {
              "internalType": "uint256",
              "name": "tapAmount",
              "type": "uint256"
            }
          ],
          "internalType": "struct ITapiocaOptionsBrokerCrossChain.IExerciseOptionsData",
          "name": "optionsData",
          "type": "tuple"
        },
        {
          "components": [
            {
              "internalType": "uint16",
              "name": "lzDstChainId",
              "type": "uint16"
            },
            {
              "internalType": "address",
              "name": "zroPaymentAddress",
              "type": "address"
            },
            {
              "internalType": "uint256",
              "name": "extraGas",
              "type": "uint256"
            }
          ],
          "internalType": "struct ITapiocaOptionsBrokerCrossChain.IExerciseLZData",
          "name": "lzData",
          "type": "tuple"
        },
        {
          "components": [
            {
              "internalType": "bool",
              "name": "withdrawOnAnotherChain",
              "type": "bool"
            },
            {
              "internalType": "address",
              "name": "tapOftAddress",
              "type": "address"
            },
            {
              "internalType": "uint16",
              "name": "lzDstChainId",
              "type": "uint16"
            },
            {
              "internalType": "uint256",
              "name": "amount",
              "type": "uint256"
            },
            {
              "internalType": "address",
              "name": "zroPaymentAddress",
              "type": "address"
            },
            {
              "internalType": "uint256",
              "name": "extraGas",
              "type": "uint256"
            }
          ],
          "internalType": "struct ITapiocaOptionsBrokerCrossChain.IExerciseLZSendTapData",
          "name": "tapSendData",
          "type": "tuple"
        },
        {
          "components": [
            {
              "internalType": "bool",
              "name": "permitAll",
              "type": "bool"
            },
            {
              "internalType": "bool",
              "name": "allowFailure",
              "type": "bool"
            },
            {
              "internalType": "bool",
              "name": "yieldBoxTypeApproval",
              "type": "bool"
            },
            {
              "internalType": "uint16",
              "name": "actionType",
              "type": "uint16"
            },
            {
              "internalType": "address",
              "name": "target",
              "type": "address"
            },
            {
              "internalType": "bool",
              "name": "permitBorrow",
              "type": "bool"
            },
            {
              "internalType": "address",
              "name": "owner",
              "type": "address"
            },
            {
              "internalType": "address",
              "name": "spender",
              "type": "address"
            },
            {
              "internalType": "uint256",
              "name": "value",
              "type": "uint256"
            },
            {
              "internalType": "uint256",
              "name": "deadline",
              "type": "uint256"
            },
            {
              "internalType": "uint8",
              "name": "v",
              "type": "uint8"
            },
            {
              "internalType": "bytes32",
              "name": "r",
              "type": "bytes32"
            },
            {
              "internalType": "bytes32",
              "name": "s",
              "type": "bytes32"
            }
          ],
          "internalType": "struct ICommonData.IApproval[]",
          "name": "approvals",
          "type": "tuple[]"
        },
        {
          "internalType": "bytes",
          "name": "adapterParams",
          "type": "bytes"
        }
      ],
      "name": "exerciseOption",
      "outputs": [],
      "stateMutability": "payable",
      "type": "function"
    },
    {
      "inputs": [
        {
          "internalType": "uint256",
          "name": "_amount",
          "type": "uint256"
        }
      ],
      "name": "extractUnderlying",
      "outputs": [],
      "stateMutability": "nonpayable",
      "type": "function"
    },
    {
      "inputs": [
        {
          "internalType": "uint16",
          "name": "",
          "type": "uint16"
        },
        {
          "internalType": "bytes",
          "name": "",
          "type": "bytes"
        },
        {
          "internalType": "uint64",
          "name": "",
          "type": "uint64"
        }
      ],
      "name": "failedMessages",
      "outputs": [
        {
          "internalType": "bytes32",
          "name": "",
          "type": "bytes32"
        }
      ],
      "stateMutability": "view",
      "type": "function"
    },
    {
      "inputs": [
        {
          "internalType": "uint16",
          "name": "_srcChainId",
          "type": "uint16"
        },
        {
          "internalType": "bytes",
          "name": "_srcAddress",
          "type": "bytes"
        }
      ],
      "name": "forceResumeReceive",
      "outputs": [],
      "stateMutability": "nonpayable",
      "type": "function"
    },
    {
      "inputs": [
        {
          "internalType": "uint16",
          "name": "_version",
          "type": "uint16"
        },
        {
          "internalType": "uint16",
          "name": "_chainId",
          "type": "uint16"
        },
        {
          "internalType": "address",
          "name": "",
          "type": "address"
        },
        {
          "internalType": "uint256",
          "name": "_configType",
          "type": "uint256"
        }
      ],
      "name": "getConfig",
      "outputs": [
        {
          "internalType": "bytes",
          "name": "",
          "type": "bytes"
        }
      ],
      "stateMutability": "view",
      "type": "function"
    },
    {
      "inputs": [
        {
          "internalType": "uint16",
          "name": "_remoteChainId",
          "type": "uint16"
        }
      ],
      "name": "getTrustedRemoteAddress",
      "outputs": [
        {
          "internalType": "bytes",
          "name": "",
          "type": "bytes"
        }
      ],
      "stateMutability": "view",
      "type": "function"
    },
    {
      "inputs": [],
      "name": "hostChainID",
      "outputs": [
        {
          "internalType": "uint256",
          "name": "",
          "type": "uint256"
        }
      ],
      "stateMutability": "view",
      "type": "function"
    },
    {
      "inputs": [
        {
          "internalType": "address",
          "name": "spender",
          "type": "address"
        },
        {
          "internalType": "uint256",
          "name": "addedValue",
          "type": "uint256"
        }
      ],
      "name": "increaseAllowance",
      "outputs": [
        {
          "internalType": "bool",
          "name": "",
          "type": "bool"
        }
      ],
      "stateMutability": "nonpayable",
      "type": "function"
    },
    {
      "inputs": [
        {
          "internalType": "address",
          "name": "from",
          "type": "address"
        },
        {
          "internalType": "uint256",
          "name": "share",
          "type": "uint256"
        },
        {
          "components": [
            {
              "internalType": "address",
              "name": "tokenOut",
              "type": "address"
            },
            {
              "internalType": "uint256",
              "name": "amountOutMin",
              "type": "uint256"
            },
            {
              "internalType": "bytes",
              "name": "data",
              "type": "bytes"
            }
          ],
          "internalType": "struct IUSDOBase.ILeverageSwapData",
          "name": "swapData",
          "type": "tuple"
        },
        {
          "components": [
            {
              "internalType": "uint256",
              "name": "srcExtraGasLimit",
              "type": "uint256"
            },
            {
              "internalType": "uint16",
              "name": "lzSrcChainId",
              "type": "uint16"
            },
            {
              "internalType": "uint16",
              "name": "lzDstChainId",
              "type": "uint16"
            },
            {
              "internalType": "address",
              "name": "zroPaymentAddress",
              "type": "address"
            },
            {
              "internalType": "bytes",
              "name": "dstAirdropAdapterParam",
              "type": "bytes"
            },
            {
              "internalType": "bytes",
              "name": "srcAirdropAdapterParam",
              "type": "bytes"
            },
            {
              "internalType": "address",
              "name": "refundAddress",
              "type": "address"
            }
          ],
          "internalType": "struct IUSDOBase.ILeverageLZData",
          "name": "lzData",
          "type": "tuple"
        },
        {
          "components": [
            {
              "internalType": "address",
              "name": "swapper",
              "type": "address"
            },
            {
              "internalType": "address",
              "name": "magnetar",
              "type": "address"
            },
            {
              "internalType": "address",
              "name": "tOft",
              "type": "address"
            },
            {
              "internalType": "address",
              "name": "srcMarket",
              "type": "address"
            }
          ],
          "internalType": "struct IUSDOBase.ILeverageExternalContractsData",
          "name": "externalData",
          "type": "tuple"
        },
        {
          "internalType": "bytes",
          "name": "airdropAdapterParams",
          "type": "bytes"
        },
        {
          "components": [
            {
              "internalType": "bool",
              "name": "permitAll",
              "type": "bool"
            },
            {
              "internalType": "bool",
              "name": "allowFailure",
              "type": "bool"
            },
            {
              "internalType": "bool",
              "name": "yieldBoxTypeApproval",
              "type": "bool"
            },
            {
              "internalType": "uint16",
              "name": "actionType",
              "type": "uint16"
            },
            {
              "internalType": "address",
              "name": "target",
              "type": "address"
            },
            {
              "internalType": "bool",
              "name": "permitBorrow",
              "type": "bool"
            },
            {
              "internalType": "address",
              "name": "owner",
              "type": "address"
            },
            {
              "internalType": "address",
              "name": "spender",
              "type": "address"
            },
            {
              "internalType": "uint256",
              "name": "value",
              "type": "uint256"
            },
            {
              "internalType": "uint256",
              "name": "deadline",
              "type": "uint256"
            },
            {
              "internalType": "uint8",
              "name": "v",
              "type": "uint8"
            },
            {
              "internalType": "bytes32",
              "name": "r",
              "type": "bytes32"
            },
            {
              "internalType": "bytes32",
              "name": "s",
              "type": "bytes32"
            }
          ],
          "internalType": "struct ICommonData.IApproval[]",
          "name": "approvals",
          "type": "tuple[]"
        }
      ],
      "name": "initMultiSell",
      "outputs": [],
      "stateMutability": "payable",
      "type": "function"
    },
    {
      "inputs": [
        {
          "internalType": "uint16",
          "name": "_srcChainId",
          "type": "uint16"
        },
        {
          "internalType": "bytes",
          "name": "_srcAddress",
          "type": "bytes"
        }
      ],
      "name": "isTrustedRemote",
      "outputs": [
        {
          "internalType": "bool",
          "name": "",
          "type": "bool"
        }
      ],
      "stateMutability": "view",
      "type": "function"
    },
    {
      "inputs": [],
      "name": "lzEndpoint",
      "outputs": [
        {
          "internalType": "contract ILayerZeroEndpoint",
          "name": "",
          "type": "address"
        }
      ],
      "stateMutability": "view",
      "type": "function"
    },
    {
      "inputs": [
        {
          "internalType": "uint16",
          "name": "_srcChainId",
          "type": "uint16"
        },
        {
          "internalType": "bytes",
          "name": "_srcAddress",
          "type": "bytes"
        },
        {
          "internalType": "uint64",
          "name": "_nonce",
          "type": "uint64"
        },
        {
          "internalType": "bytes",
          "name": "_payload",
          "type": "bytes"
        }
      ],
      "name": "lzReceive",
      "outputs": [],
      "stateMutability": "nonpayable",
      "type": "function"
    },
    {
      "inputs": [
        {
          "internalType": "uint16",
          "name": "",
          "type": "uint16"
        },
        {
          "internalType": "uint16",
          "name": "",
          "type": "uint16"
        }
      ],
      "name": "minDstGasLookup",
      "outputs": [
        {
          "internalType": "uint256",
          "name": "",
          "type": "uint256"
        }
      ],
      "stateMutability": "view",
      "type": "function"
    },
    {
      "inputs": [],
      "name": "name",
      "outputs": [
        {
          "internalType": "string",
          "name": "",
          "type": "string"
        }
      ],
      "stateMutability": "view",
      "type": "function"
    },
    {
      "inputs": [
        {
          "internalType": "uint16",
          "name": "_srcChainId",
          "type": "uint16"
        },
        {
          "internalType": "bytes",
          "name": "_srcAddress",
          "type": "bytes"
        },
        {
          "internalType": "uint64",
          "name": "_nonce",
          "type": "uint64"
        },
        {
          "internalType": "bytes",
          "name": "_payload",
          "type": "bytes"
        }
      ],
      "name": "nonblockingLzReceive",
      "outputs": [],
      "stateMutability": "nonpayable",
      "type": "function"
    },
    {
      "inputs": [
        {
          "internalType": "address",
          "name": "owner",
          "type": "address"
        }
      ],
      "name": "nonces",
      "outputs": [
        {
          "internalType": "uint256",
          "name": "",
          "type": "uint256"
        }
      ],
      "stateMutability": "view",
      "type": "function"
    },
    {
      "inputs": [],
      "name": "owner",
      "outputs": [
        {
          "internalType": "address",
          "name": "",
          "type": "address"
        }
      ],
      "stateMutability": "view",
      "type": "function"
    },
    {
      "inputs": [
        {
          "internalType": "uint16",
          "name": "",
          "type": "uint16"
        }
      ],
      "name": "payloadSizeLimitLookup",
      "outputs": [
        {
          "internalType": "uint256",
          "name": "",
          "type": "uint256"
        }
      ],
      "stateMutability": "view",
      "type": "function"
    },
    {
      "inputs": [
        {
          "internalType": "address",
          "name": "owner",
          "type": "address"
        },
        {
          "internalType": "address",
          "name": "spender",
          "type": "address"
        },
        {
          "internalType": "uint256",
          "name": "value",
          "type": "uint256"
        },
        {
          "internalType": "uint256",
          "name": "deadline",
          "type": "uint256"
        },
        {
          "internalType": "uint8",
          "name": "v",
          "type": "uint8"
        },
        {
          "internalType": "bytes32",
          "name": "r",
          "type": "bytes32"
        },
        {
          "internalType": "bytes32",
          "name": "s",
          "type": "bytes32"
        }
      ],
      "name": "permit",
      "outputs": [],
      "stateMutability": "nonpayable",
      "type": "function"
    },
    {
      "inputs": [],
      "name": "precrime",
      "outputs": [
        {
          "internalType": "address",
          "name": "",
          "type": "address"
        }
      ],
      "stateMutability": "view",
      "type": "function"
    },
    {
      "inputs": [
        {
          "internalType": "address",
          "name": "from",
          "type": "address"
        },
        {
          "internalType": "address",
          "name": "to",
          "type": "address"
        },
        {
          "internalType": "uint16",
          "name": "lzDstChainId",
          "type": "uint16"
        },
        {
          "internalType": "address",
          "name": "zroPaymentAddress",
          "type": "address"
        },
        {
          "components": [
            {
              "internalType": "bool",
              "name": "withdraw",
              "type": "bool"
            },
            {
              "internalType": "uint256",
              "name": "withdrawLzFeeAmount",
              "type": "uint256"
            },
            {
              "internalType": "bool",
              "name": "withdrawOnOtherChain",
              "type": "bool"
            },
            {
              "internalType": "uint16",
              "name": "withdrawLzChainId",
              "type": "uint16"
            },
            {
              "internalType": "bytes",
              "name": "withdrawAdapterParams",
              "type": "bytes"
            }
          ],
          "internalType": "struct ICommonData.IWithdrawParams",
          "name": "withdrawParams",
          "type": "tuple"
        },
        {
          "components": [
            {
              "internalType": "uint256",
              "name": "amount",
              "type": "uint256"
            },
            {
              "internalType": "address",
              "name": "marketHelper",
              "type": "address"
            },
            {
              "internalType": "address",
              "name": "market",
              "type": "address"
            }
          ],
          "internalType": "struct ITapiocaOFT.IRemoveParams",
          "name": "removeParams",
          "type": "tuple"
        },
        {
          "components": [
            {
              "internalType": "bool",
              "name": "permitAll",
              "type": "bool"
            },
            {
              "internalType": "bool",
              "name": "allowFailure",
              "type": "bool"
            },
            {
              "internalType": "bool",
              "name": "yieldBoxTypeApproval",
              "type": "bool"
            },
            {
              "internalType": "uint16",
              "name": "actionType",
              "type": "uint16"
            },
            {
              "internalType": "address",
              "name": "target",
              "type": "address"
            },
            {
              "internalType": "bool",
              "name": "permitBorrow",
              "type": "bool"
            },
            {
              "internalType": "address",
              "name": "owner",
              "type": "address"
            },
            {
              "internalType": "address",
              "name": "spender",
              "type": "address"
            },
            {
              "internalType": "uint256",
              "name": "value",
              "type": "uint256"
            },
            {
              "internalType": "uint256",
              "name": "deadline",
              "type": "uint256"
            },
            {
              "internalType": "uint8",
              "name": "v",
              "type": "uint8"
            },
            {
              "internalType": "bytes32",
              "name": "r",
              "type": "bytes32"
            },
            {
              "internalType": "bytes32",
              "name": "s",
              "type": "bytes32"
            }
          ],
          "internalType": "struct ICommonData.IApproval[]",
          "name": "approvals",
          "type": "tuple[]"
        },
        {
          "internalType": "bytes",
          "name": "adapterParams",
          "type": "bytes"
        }
      ],
      "name": "removeCollateral",
      "outputs": [],
      "stateMutability": "payable",
      "type": "function"
    },
    {
      "inputs": [],
      "name": "renounceOwnership",
      "outputs": [],
      "stateMutability": "nonpayable",
      "type": "function"
    },
    {
      "inputs": [
        {
          "internalType": "uint256",
          "name": "amount",
          "type": "uint256"
        },
        {
          "internalType": "address",
          "name": "to",
          "type": "address"
        }
      ],
      "name": "rescueEth",
      "outputs": [],
      "stateMutability": "nonpayable",
      "type": "function"
    },
    {
      "inputs": [
        {
          "internalType": "address",
          "name": "from",
          "type": "address"
        },
        {
          "internalType": "uint256",
          "name": "amount",
          "type": "uint256"
        },
        {
          "internalType": "uint256",
          "name": "assetId",
          "type": "uint256"
        },
        {
          "internalType": "uint16",
          "name": "lzDstChainId",
          "type": "uint16"
        },
        {
          "internalType": "address",
          "name": "zroPaymentAddress",
          "type": "address"
        },
        {
          "internalType": "bytes",
          "name": "airdropAdapterParam",
          "type": "bytes"
        }
      ],
      "name": "retrieveFromStrategy",
      "outputs": [],
      "stateMutability": "payable",
      "type": "function"
    },
    {
      "inputs": [
        {
          "internalType": "uint16",
          "name": "_srcChainId",
          "type": "uint16"
        },
        {
          "internalType": "bytes",
          "name": "_srcAddress",
          "type": "bytes"
        },
        {
          "internalType": "uint64",
          "name": "_nonce",
          "type": "uint64"
        },
        {
          "internalType": "bytes",
          "name": "_payload",
          "type": "bytes"
        }
      ],
      "name": "retryMessage",
      "outputs": [],
      "stateMutability": "payable",
      "type": "function"
    },
    {
      "inputs": [
        {
          "internalType": "address",
          "name": "_from",
          "type": "address"
        },
        {
          "internalType": "uint16",
          "name": "_dstChainId",
          "type": "uint16"
        },
        {
          "internalType": "bytes32",
          "name": "_toAddress",
          "type": "bytes32"
        },
        {
          "internalType": "uint256",
          "name": "_amount",
          "type": "uint256"
        },
        {
          "internalType": "bytes",
          "name": "_payload",
          "type": "bytes"
        },
        {
          "internalType": "uint64",
          "name": "_dstGasForCall",
          "type": "uint64"
        },
        {
          "components": [
            {
              "internalType": "address payable",
              "name": "refundAddress",
              "type": "address"
            },
            {
              "internalType": "address",
              "name": "zroPaymentAddress",
              "type": "address"
            },
            {
              "internalType": "bytes",
              "name": "adapterParams",
              "type": "bytes"
            }
          ],
          "internalType": "struct ICommonOFT.LzCallParams",
          "name": "_callParams",
          "type": "tuple"
        }
      ],
      "name": "sendAndCall",
      "outputs": [],
      "stateMutability": "payable",
      "type": "function"
    },
    {
      "inputs": [
        {
          "internalType": "uint256",
          "name": "amount",
          "type": "uint256"
        },
        {
          "internalType": "address",
          "name": "leverageFor",
          "type": "address"
        },
        {
          "components": [
            {
              "internalType": "uint256",
              "name": "srcExtraGasLimit",
              "type": "uint256"
            },
            {
              "internalType": "uint16",
              "name": "lzSrcChainId",
              "type": "uint16"
            },
            {
              "internalType": "uint16",
              "name": "lzDstChainId",
              "type": "uint16"
            },
            {
              "internalType": "address",
              "name": "zroPaymentAddress",
              "type": "address"
            },
            {
              "internalType": "bytes",
              "name": "dstAirdropAdapterParam",
              "type": "bytes"
            },
            {
              "internalType": "bytes",
              "name": "srcAirdropAdapterParam",
              "type": "bytes"
            },
            {
              "internalType": "address",
              "name": "refundAddress",
              "type": "address"
            }
          ],
          "internalType": "struct IUSDOBase.ILeverageLZData",
          "name": "lzData",
          "type": "tuple"
        },
        {
          "components": [
            {
              "internalType": "address",
              "name": "tokenOut",
              "type": "address"
            },
            {
              "internalType": "uint256",
              "name": "amountOutMin",
              "type": "uint256"
            },
            {
              "internalType": "bytes",
              "name": "data",
              "type": "bytes"
            }
          ],
          "internalType": "struct IUSDOBase.ILeverageSwapData",
          "name": "swapData",
          "type": "tuple"
        },
        {
          "components": [
            {
              "internalType": "address",
              "name": "swapper",
              "type": "address"
            },
            {
              "internalType": "address",
              "name": "magnetar",
              "type": "address"
            },
            {
              "internalType": "address",
              "name": "tOft",
              "type": "address"
            },
            {
              "internalType": "address",
              "name": "srcMarket",
              "type": "address"
            }
          ],
          "internalType": "struct IUSDOBase.ILeverageExternalContractsData",
          "name": "externalData",
          "type": "tuple"
        }
      ],
      "name": "sendForLeverage",
      "outputs": [],
      "stateMutability": "payable",
      "type": "function"
    },
    {
      "inputs": [
        {
          "internalType": "address",
          "name": "_from",
          "type": "address"
        },
        {
          "internalType": "uint16",
          "name": "_dstChainId",
          "type": "uint16"
        },
        {
          "internalType": "bytes32",
          "name": "_toAddress",
          "type": "bytes32"
        },
        {
          "internalType": "uint256",
          "name": "_amount",
          "type": "uint256"
        },
        {
          "components": [
            {
              "internalType": "address payable",
              "name": "refundAddress",
              "type": "address"
            },
            {
              "internalType": "address",
              "name": "zroPaymentAddress",
              "type": "address"
            },
            {
              "internalType": "bytes",
              "name": "adapterParams",
              "type": "bytes"
            }
          ],
          "internalType": "struct ICommonOFT.LzCallParams",
          "name": "_callParams",
          "type": "tuple"
        }
      ],
      "name": "sendFrom",
      "outputs": [],
      "stateMutability": "payable",
      "type": "function"
    },
    {
      "inputs": [
        {
          "internalType": "address",
          "name": "from",
          "type": "address"
        },
        {
          "internalType": "address",
          "name": "to",
          "type": "address"
        },
        {
          "internalType": "uint256",
          "name": "amount",
          "type": "uint256"
        },
        {
          "internalType": "uint256",
          "name": "assetId",
          "type": "uint256"
        },
        {
          "internalType": "uint16",
          "name": "lzDstChainId",
          "type": "uint16"
        },
        {
          "components": [
            {
              "internalType": "uint256",
              "name": "extraGasLimit",
              "type": "uint256"
            },
            {
              "internalType": "address",
              "name": "zroPaymentAddress",
              "type": "address"
            }
          ],
          "internalType": "struct ICommonData.ISendOptions",
          "name": "options",
          "type": "tuple"
        }
      ],
      "name": "sendToStrategy",
      "outputs": [],
      "stateMutability": "payable",
      "type": "function"
    },
    {
      "inputs": [
        {
          "internalType": "address",
          "name": "from",
          "type": "address"
        },
        {
          "internalType": "address",
          "name": "to",
          "type": "address"
        },
        {
          "internalType": "uint16",
          "name": "lzDstChainId",
          "type": "uint16"
        },
        {
          "internalType": "bytes",
          "name": "airdropAdapterParams",
          "type": "bytes"
        },
        {
          "components": [
            {
              "internalType": "uint256",
              "name": "amount",
              "type": "uint256"
            },
            {
              "internalType": "uint256",
              "name": "borrowAmount",
              "type": "uint256"
            },
            {
              "internalType": "address",
              "name": "marketHelper",
              "type": "address"
            },
            {
              "internalType": "address",
              "name": "market",
              "type": "address"
            }
          ],
          "internalType": "struct ITapiocaOFT.IBorrowParams",
          "name": "borrowParams",
          "type": "tuple"
        },
        {
          "components": [
            {
              "internalType": "bool",
              "name": "withdraw",
              "type": "bool"
            },
            {
              "internalType": "uint256",
              "name": "withdrawLzFeeAmount",
              "type": "uint256"
            },
            {
              "internalType": "bool",
              "name": "withdrawOnOtherChain",
              "type": "bool"
            },
            {
              "internalType": "uint16",
              "name": "withdrawLzChainId",
              "type": "uint16"
            },
            {
              "internalType": "bytes",
              "name": "withdrawAdapterParams",
              "type": "bytes"
            }
          ],
          "internalType": "struct ICommonData.IWithdrawParams",
          "name": "withdrawParams",
          "type": "tuple"
        },
        {
          "components": [
            {
              "internalType": "uint256",
              "name": "extraGasLimit",
              "type": "uint256"
            },
            {
              "internalType": "address",
              "name": "zroPaymentAddress",
              "type": "address"
            }
          ],
          "internalType": "struct ICommonData.ISendOptions",
          "name": "options",
          "type": "tuple"
        },
        {
          "components": [
            {
              "internalType": "bool",
              "name": "permitAll",
              "type": "bool"
            },
            {
              "internalType": "bool",
              "name": "allowFailure",
              "type": "bool"
            },
            {
              "internalType": "bool",
              "name": "yieldBoxTypeApproval",
              "type": "bool"
            },
            {
              "internalType": "uint16",
              "name": "actionType",
              "type": "uint16"
            },
            {
              "internalType": "address",
              "name": "target",
              "type": "address"
            },
            {
              "internalType": "bool",
              "name": "permitBorrow",
              "type": "bool"
            },
            {
              "internalType": "address",
              "name": "owner",
              "type": "address"
            },
            {
              "internalType": "address",
              "name": "spender",
              "type": "address"
            },
            {
              "internalType": "uint256",
              "name": "value",
              "type": "uint256"
            },
            {
              "internalType": "uint256",
              "name": "deadline",
              "type": "uint256"
            },
            {
              "internalType": "uint8",
              "name": "v",
              "type": "uint8"
            },
            {
              "internalType": "bytes32",
              "name": "r",
              "type": "bytes32"
            },
            {
              "internalType": "bytes32",
              "name": "s",
              "type": "bytes32"
            }
          ],
          "internalType": "struct ICommonData.IApproval[]",
          "name": "approvals",
          "type": "tuple[]"
        }
      ],
      "name": "sendToYBAndBorrow",
      "outputs": [],
      "stateMutability": "payable",
      "type": "function"
    },
    {
      "inputs": [
        {
          "internalType": "contract ICluster",
          "name": "_cluster",
          "type": "address"
        }
      ],
      "name": "setCluster",
      "outputs": [],
      "stateMutability": "nonpayable",
      "type": "function"
    },
    {
      "inputs": [
        {
          "internalType": "uint16",
          "name": "_version",
          "type": "uint16"
        },
        {
          "internalType": "uint16",
          "name": "_chainId",
          "type": "uint16"
        },
        {
          "internalType": "uint256",
          "name": "_configType",
          "type": "uint256"
        },
        {
          "internalType": "bytes",
          "name": "_config",
          "type": "bytes"
        }
      ],
      "name": "setConfig",
      "outputs": [],
      "stateMutability": "nonpayable",
      "type": "function"
    },
    {
      "inputs": [
        {
          "internalType": "uint256",
          "name": "_slippage",
          "type": "uint256"
        }
      ],
      "name": "setMaxSlippage",
      "outputs": [],
      "stateMutability": "nonpayable",
      "type": "function"
    },
    {
      "inputs": [
        {
          "internalType": "uint16",
          "name": "_dstChainId",
          "type": "uint16"
        },
        {
          "internalType": "uint16",
          "name": "_packetType",
          "type": "uint16"
        },
        {
          "internalType": "uint256",
          "name": "_minGas",
          "type": "uint256"
        }
      ],
      "name": "setMinDstGas",
      "outputs": [],
      "stateMutability": "nonpayable",
      "type": "function"
    },
    {
      "inputs": [
        {
          "internalType": "uint16",
          "name": "_dstChainId",
          "type": "uint16"
        },
        {
          "internalType": "uint256",
          "name": "_size",
          "type": "uint256"
        }
      ],
      "name": "setPayloadSizeLimit",
      "outputs": [],
      "stateMutability": "nonpayable",
      "type": "function"
    },
    {
      "inputs": [
        {
          "internalType": "address",
          "name": "_precrime",
          "type": "address"
        }
      ],
      "name": "setPrecrime",
      "outputs": [],
      "stateMutability": "nonpayable",
      "type": "function"
    },
    {
      "inputs": [
        {
          "internalType": "uint16",
          "name": "_version",
          "type": "uint16"
        }
      ],
      "name": "setReceiveVersion",
      "outputs": [],
      "stateMutability": "nonpayable",
      "type": "function"
    },
    {
      "inputs": [
        {
          "internalType": "uint16",
          "name": "_version",
          "type": "uint16"
        }
      ],
      "name": "setSendVersion",
      "outputs": [],
      "stateMutability": "nonpayable",
      "type": "function"
    },
    {
      "inputs": [
        {
          "internalType": "uint16",
          "name": "_srcChainId",
          "type": "uint16"
        },
        {
          "internalType": "bytes",
          "name": "_path",
          "type": "bytes"
        }
      ],
      "name": "setTrustedRemote",
      "outputs": [],
      "stateMutability": "nonpayable",
      "type": "function"
    },
    {
      "inputs": [
        {
          "internalType": "uint16",
          "name": "_remoteChainId",
          "type": "uint16"
        },
        {
          "internalType": "bytes",
          "name": "_remoteAddress",
          "type": "bytes"
        }
      ],
      "name": "setTrustedRemoteAddress",
      "outputs": [],
      "stateMutability": "nonpayable",
      "type": "function"
    },
    {
      "inputs": [
        {
          "internalType": "bool",
          "name": "_useCustomAdapterParams",
          "type": "bool"
        }
      ],
      "name": "setUseCustomAdapterParams",
      "outputs": [],
      "stateMutability": "nonpayable",
      "type": "function"
    },
    {
      "inputs": [
        {
          "internalType": "uint16",
          "name": "",
          "type": "uint16"
        },
        {
          "internalType": "bytes",
          "name": "",
          "type": "bytes"
        },
        {
          "internalType": "uint256",
          "name": "",
          "type": "uint256"
        },
        {
          "internalType": "address",
          "name": "",
          "type": "address"
        },
        {
          "internalType": "uint256",
          "name": "amountLD",
          "type": "uint256"
        },
        {
          "internalType": "bytes",
          "name": "",
          "type": "bytes"
        }
      ],
      "name": "sgReceive",
      "outputs": [],
      "stateMutability": "nonpayable",
      "type": "function"
    },
    {
      "inputs": [],
      "name": "sharedDecimals",
      "outputs": [
        {
          "internalType": "uint8",
          "name": "",
          "type": "uint8"
        }
      ],
      "stateMutability": "view",
      "type": "function"
    },
    {
      "inputs": [
        {
          "internalType": "bytes4",
          "name": "interfaceId",
          "type": "bytes4"
        }
      ],
      "name": "supportsInterface",
      "outputs": [
        {
          "internalType": "bool",
          "name": "",
          "type": "bool"
        }
      ],
      "stateMutability": "view",
      "type": "function"
    },
    {
      "inputs": [],
      "name": "symbol",
      "outputs": [
        {
          "internalType": "string",
          "name": "",
          "type": "string"
        }
      ],
      "stateMutability": "view",
      "type": "function"
    },
    {
      "inputs": [],
      "name": "token",
      "outputs": [
        {
          "internalType": "address",
          "name": "",
          "type": "address"
        }
      ],
      "stateMutability": "view",
      "type": "function"
    },
    {
      "inputs": [],
      "name": "totalSupply",
      "outputs": [
        {
          "internalType": "uint256",
          "name": "",
          "type": "uint256"
        }
      ],
      "stateMutability": "view",
      "type": "function"
    },
    {
      "inputs": [
        {
          "internalType": "address",
          "name": "to",
          "type": "address"
        },
        {
          "internalType": "uint256",
          "name": "amount",
          "type": "uint256"
        }
      ],
      "name": "transfer",
      "outputs": [
        {
          "internalType": "bool",
          "name": "",
          "type": "bool"
        }
      ],
      "stateMutability": "nonpayable",
      "type": "function"
    },
    {
      "inputs": [
        {
          "internalType": "address",
          "name": "from",
          "type": "address"
        },
        {
          "internalType": "address",
          "name": "to",
          "type": "address"
        },
        {
          "internalType": "uint256",
          "name": "amount",
          "type": "uint256"
        }
      ],
      "name": "transferFrom",
      "outputs": [
        {
          "internalType": "bool",
          "name": "",
          "type": "bool"
        }
      ],
      "stateMutability": "nonpayable",
      "type": "function"
    },
    {
      "inputs": [
        {
          "internalType": "address",
          "name": "newOwner",
          "type": "address"
        }
      ],
      "name": "transferOwnership",
      "outputs": [],
      "stateMutability": "nonpayable",
      "type": "function"
    },
    {
      "inputs": [
        {
          "internalType": "uint16",
          "name": "lzDstChainId",
          "type": "uint16"
        },
        {
          "internalType": "bytes",
          "name": "airdropAdapterParams",
          "type": "bytes"
        },
        {
          "internalType": "address",
          "name": "zroPaymentAddress",
          "type": "address"
        },
        {
          "internalType": "uint256",
          "name": "amount",
          "type": "uint256"
        },
        {
          "components": [
            {
              "internalType": "address payable",
              "name": "refundAddress",
              "type": "address"
            },
            {
              "internalType": "address",
              "name": "zroPaymentAddress",
              "type": "address"
            },
            {
              "internalType": "bytes",
              "name": "adapterParams",
              "type": "bytes"
            }
          ],
          "internalType": "struct ISendFrom.LzCallParams",
          "name": "sendFromData",
          "type": "tuple"
        },
        {
          "components": [
            {
              "internalType": "bool",
              "name": "permitAll",
              "type": "bool"
            },
            {
              "internalType": "bool",
              "name": "allowFailure",
              "type": "bool"
            },
            {
              "internalType": "bool",
              "name": "yieldBoxTypeApproval",
              "type": "bool"
            },
            {
              "internalType": "uint16",
              "name": "actionType",
              "type": "uint16"
            },
            {
              "internalType": "address",
              "name": "target",
              "type": "address"
            },
            {
              "internalType": "bool",
              "name": "permitBorrow",
              "type": "bool"
            },
            {
              "internalType": "address",
              "name": "owner",
              "type": "address"
            },
            {
              "internalType": "address",
              "name": "spender",
              "type": "address"
            },
            {
              "internalType": "uint256",
              "name": "value",
              "type": "uint256"
            },
            {
              "internalType": "uint256",
              "name": "deadline",
              "type": "uint256"
            },
            {
              "internalType": "uint8",
              "name": "v",
              "type": "uint8"
            },
            {
              "internalType": "bytes32",
              "name": "r",
              "type": "bytes32"
            },
            {
              "internalType": "bytes32",
              "name": "s",
              "type": "bytes32"
            }
          ],
          "internalType": "struct ICommonData.IApproval[]",
          "name": "approvals",
          "type": "tuple[]"
        }
      ],
      "name": "triggerSendFrom",
      "outputs": [],
      "stateMutability": "payable",
      "type": "function"
    },
    {
      "inputs": [
        {
          "internalType": "uint16",
          "name": "",
          "type": "uint16"
        }
      ],
      "name": "trustedRemoteLookup",
      "outputs": [
        {
          "internalType": "bytes",
          "name": "",
          "type": "bytes"
        }
      ],
      "stateMutability": "view",
      "type": "function"
    },
    {
      "inputs": [
        {
          "internalType": "address",
          "name": "_toAddress",
          "type": "address"
        },
        {
          "internalType": "uint256",
          "name": "_amount",
          "type": "uint256"
        }
      ],
      "name": "unwrap",
      "outputs": [],
      "stateMutability": "nonpayable",
      "type": "function"
    },
    {
      "inputs": [
        {
          "internalType": "address",
          "name": "_balancer",
          "type": "address"
        },
        {
          "internalType": "bool",
          "name": "_status",
          "type": "bool"
        }
      ],
      "name": "updateBalancerState",
      "outputs": [],
      "stateMutability": "nonpayable",
      "type": "function"
    },
    {
      "inputs": [
        {
          "internalType": "uint256",
          "name": "_chain",
          "type": "uint256"
        },
        {
          "internalType": "bool",
          "name": "_status",
          "type": "bool"
        }
      ],
      "name": "updateConnectedChain",
      "outputs": [],
      "stateMutability": "nonpayable",
      "type": "function"
    },
    {
      "inputs": [],
      "name": "useCustomAdapterParams",
      "outputs": [
        {
          "internalType": "bool",
          "name": "",
          "type": "bool"
        }
      ],
      "stateMutability": "view",
      "type": "function"
    },
    {
      "inputs": [],
      "name": "vault",
      "outputs": [
        {
          "internalType": "contract TOFTVault",
          "name": "",
          "type": "address"
        }
      ],
      "stateMutability": "view",
      "type": "function"
    },
    {
      "inputs": [
        {
          "internalType": "address",
          "name": "_fromAddress",
          "type": "address"
        },
        {
          "internalType": "address",
          "name": "_toAddress",
          "type": "address"
        },
        {
          "internalType": "uint256",
          "name": "_amount",
          "type": "uint256"
        }
      ],
      "name": "wrap",
      "outputs": [],
      "stateMutability": "payable",
      "type": "function"
    },
    {
      "inputs": [],
      "name": "yieldBox",
      "outputs": [
        {
          "internalType": "contract IYieldBoxBase",
          "name": "",
          "type": "address"
        }
      ],
      "stateMutability": "view",
      "type": "function"
    },
    {
      "stateMutability": "payable",
      "type": "receive"
    }
  ],
  "bytecode": "0x6102006040523462000ef6576200762c8038038091620000228261020062000f17565b610200396102000161022061020082031262000ef6576200004561020062000f3b565b6200005261022062000f3b565b6101e052610240516001600160a01b038116810362000ef65761026051926001600160a01b038416840362000ef657610280516001600160401b03811162000ef65781620000a4916102000162000f75565b6102a05190916001600160401b03821162000ef657620000c8916102000162000f75565b9160c061020001519160ff8316830362000ef6576102e0516101c052620000f161030062000f3b565b620000fe61032062000f3b565b916200010c61034062000f3b565b956200011a61036062000f3b565b976200012861038062000f3b565b99620001366103a062000f3b565b96620001446103c062000f3b565b98620001526103e062000f3b565b946200016061040062000f3b565b96604051956a546170696f63614f46542d60a81b6020880152620001a5602b88845162000194818484016020890162000f50565b810103600b81018a52018862000f17565b620001b7604051806101a05262000efb565b60016101a05152603160f81b60206101a051015262000210602b60405180946a546170696f63614f46542d60a81b6020830152620001ff815180926020868601910162000f50565b810103600b81018552018362000f17565b6200024b60216040518095601d60fa1b60208301526200023a815180926020868601910162000f50565b810103600181018652018462000f17565b60008054336001600160a01b0319821681178355916001600160a01b03909116907f8be0079c531659141344cd1fd0a4f28419497f9722a3daafe3b4186f6b6457e09080a36001600160a01b0316608052600183901c607f1660a0528051906001600160401b03821162000c1d57600b5490600182811c9216801562000eeb575b602083101462000dbd5781601f84931162000e79575b50602090601f831160011462000dea5760009262000dde575b50508160011b916000199060031b1c191617600b555b8051906001600160401b03821162000c1d57600c5490600182811c9216801562000dd3575b602083101462000dbd5781601f84931162000d4b575b50602090601f831160011462000cc05760009262000cb4575b50508160011b916000199060031b1c191617600c555b60ff6200038762000fd0565b1680607f8360011c161162000c5f57607f8260011c1690039060ff821162000c4957604d60ff83161162000c495760ff809216600a0a60c0526101f460125560018060a01b036101e0511660018060a01b0319600f541617600f551660ff1960115416176011556101c05160105560018060a01b031660018060a01b0319600d541617600d5560018060a01b031660018060a01b0319600e541617600e5560208151910120986101a051602081519101208a61014052806101605246610100526040519a6000805160206200760c83398151915260208d015260408c015260608b01524660808b01523060a08b015260a08a528960c081011060018060401b0360c08c01111762000c1d5760c08a0160408190528a516020808d019190912060e05230610120526000805160206200760c83398151915261018052601680546001600160a01b039788166001600160a01b03199182168117909255601780549989169982168a179055601880549c89169c82168d179055601980549d89169d82168e179055601a805495891695821686179055601b80549a89169a82168b179055601c80549b89169b82168c179055601d805496891696821687179055601e805497909816968116871790975560139091527f4155c2f711f2cdd34f8262ab8fb9b7020a700fe7b6948222152f7670d1fdf34d805487169095179094557f7b49122965436243734b7a552847e7503db682b4cbd4d2fd428feb216e8bcdf8805486169098179097557f76aa7d3cd4f559a3c98822aa7e1c37143eb9f80ceff73a5023a8fc3d6d44af61805485169092179091557f0b9d2c0c271bb30544eb78c59bdaebdae2728e5f65814c07768a0abe90ed1923805484169092179091557f0d2a6872ef858a7f8ead18dc4f3f2e8d35c853d47e2816cbb9cdd49202554e0c805483169093179092557f709d0e3cf89777a1e1f9c99632e4494f29b0327befd0df15e277a12d94825795805482169092179091557f8ba6fb577925b0796671c737df59b8aaae861b630513fb12823699e3e0e3ee60805482169092179091557f01413ff7a3b1d5b6c016c061d48e2c7014700c777a29fcd068fff04265813d5d8054821690931790925560056000527ff4b2859895858d6aa26d656e4999d552f6a869b74c43bba7d2a941c4d22c355980549092169092179055620006ec9062000efb565b600560c0820190815263969bfdc360e01b60e08301526103026000526021602052517f29c2124a5cb7c24700bcc1f5010b853ef09e6db4cfab2999cc22aa4111dd55bf91600a82101562000c335760ff64ffffffff0060e0855493015160d81c1692169064ffffffffff1916171790556040516200076a8162000efb565b60058152634db96f5560e01b6020808301919091526103036000526021905280517f07170fefedbeaad276828c279c57cabad66747cc4a6814e3cdb6a1d2a430fc7291600a82101562000c335760ff64ffffffff006020855493015160d81c1692169064ffffffffff191617179055604051620007e78162000efb565b600781526313030a6160e31b6020808301919091526103046000526021905280517f61b27dd54af6a1736ade1980f418a6087d57d828c35d1c56806e140b6b963d9691600a82101562000c335760ff64ffffffff006020855493015160d81c1692169064ffffffffff191617179055604051620008648162000efb565b60078152631789153d60e31b6020808301919091526103076000526021905280517f3ea0eb77286a615efecb79a76768aef6423688813cf748be7f836e2f8eeed7ab91600a82101562000c335760ff64ffffffff006020855493015160d81c1692169064ffffffffff191617179055604051620008e18162000efb565b60038152631007cea560e31b6020808301919091526103056000526021905280517f20632cbd6194732c634fe60beb65800d84b3096d4479d6b79dbe0e5be0dab2dc91600a82101562000c335760ff64ffffffff006020855493015160d81c1692169064ffffffffff1916171790556040516200095e8162000efb565b6003815263bafb655d60e01b6020808301919091526103086000526021905280517f9b43dd2020d758faa00bcafcc623013905c18fb0417b44edb869279cb436483891600a82101562000c335760ff64ffffffff006020855493015160d81c1692169064ffffffffff191617179055604051620009db8162000efb565b600981526381618d0560e01b6020808301919091526103096000526021905280517fec816068570d53dffa0b0e9052c3d0e4acf1133326aef9625c96c53224542f7091600a82101562000c335760ff64ffffffff006020855493015160d81c1692169064ffffffffff19161717905560405162000a588162000efb565b6001815263af2ee97560e01b602080830191825261030a6000526021905290517ff93dfc0454f508b9d12fbe5cef27c0ff8d3ac142731438676eec8ff1a727f9d291600a82101562000c335760ff64ffffffff008454925160d81c1692169064ffffffffff1916171790556040516106938082019082821060018060401b0383111762000c1d57602091839162006f7983396101e0516001600160a01b031681520301906000f0801562000c1157602080546001600160a01b0319166001600160a01b039290921691909117905560016022556101c05146811462000bf2575b604051615f92908162000fe78239608051818181610618015281816108f501528181610e500152818161107c015281816113b40152818161279e01528181612a0a015281816133b00152818161514b015261541b015260a05181611e9c015260c0518181816155c2015281816156e80152818161595901526159f3015260e05181613ad501526101005181613b9001526101205181613a9f01526101405181613b2401526101605181613b4a01526101805181613b010152f35b60005260236020526040600020600160ff198254161790553862000b38565b6040513d6000823e3d90fd5b634e487b7160e01b600052604160045260246000fd5b634e487b7160e01b600052602160045260246000fd5b634e487b7160e01b600052601160045260246000fd5b60405162461bcd60e51b815260206004820152602760248201527f4f46543a20736861726564446563696d616c73206d757374206265203c3d20646044820152666563696d616c7360c81b6064820152608490fd5b01519050388062000365565b600c60009081527fdf6966c971051c3d54ec59162606531493a51404a002842f56009d7e5cf4a8c79350601f198516905b81811062000d32575090846001959493921062000d18575b505050811b01600c556200037b565b015160001960f88460031b161c1916905538808062000d09565b9293602060018192878601518155019501930162000cf1565b600c6000529091507fdf6966c971051c3d54ec59162606531493a51404a002842f56009d7e5cf4a8c7601f840160051c81016020851062000db5575b90849392915b601f830160051c8201811062000da55750506200034c565b6000815585945060010162000d8d565b508062000d87565b634e487b7160e01b600052602260045260246000fd5b91607f169162000336565b015190503880620002fb565b600b600090815293507f0175b7a638427703f0dbe7bb9bbf987a2551717b34e79f33b5b1008d1fa01db991905b601f198416851062000e5d576001945083601f1981161062000e43575b505050811b01600b5562000311565b015160001960f88460031b161c1916905538808062000e34565b8181015183556020948501946001909301929091019062000e17565b600b6000529091507f0175b7a638427703f0dbe7bb9bbf987a2551717b34e79f33b5b1008d1fa01db9601f840160051c81016020851062000ee3575b90849392915b601f830160051c8201811062000ed3575050620002e2565b6000815585945060010162000ebb565b508062000eb5565b91607f1691620002cc565b600080fd5b604081019081106001600160401b0382111762000c1d57604052565b601f909101601f19168101906001600160401b0382119082101762000c1d57604052565b51906001600160a01b038216820362000ef657565b60005b83811062000f645750506000910152565b818101518382015260200162000f53565b81601f8201121562000ef65780516001600160401b03811162000c1d576040519262000fac601f8301601f19166020018562000f17565b8184526020828401011162000ef65762000fcd916020808501910162000f50565b90565b60ff60115416801562000fe05790565b5060129056fe6080604052600436101561001b575b361561001957600080fd5b005b60003560e01c80621d3567146104ff57806254af3a146104fa57806301ffc9a7146104f557806306fdde03146104f057806307e0db17146104eb578063095ea7b3146104e65780630a2b2471146104e15780630df37483146104dc5780630ed9e406146104d75780630fb6ba59146104d257806310ddb137146104cd578063159068b7146104c857806318160ddd1461043257806323b872dd146104c3578063313ce567146104be5780633644e515146104b9578063365260b4146104b457806339509351146104af57806339f47693146104aa5780633a2544b5146104a55780633d8b38f6146104a05780633f1f4fa41461049b57806342d65a8d14610496578063437be6221461049157806343f68a491461048c57806344770515146104875780634c42899a14610487578063526137a7146104825780635b8c41e61461047d578063623556381461047857806366ad5c8a14610473578063695ef6bf1461046e57806370a0823114610469578063715018a6146104645780637533d7881461045f57806376203b481461045a578063785e9e8614610455578063796fd43a146104505780637ecebe001461044b5780638232a1e614610446578063857749b0146104415780638cfd8f5c1461043c5780638da5cb5b146104375780639358928b146104325780639458f5601461042d578063950c8a741461042857806395d89b4114610423578063973751ee1461041e5780639bdb9812146104195780639f38369a14610414578063a457c2d71461040f578063a4c51df51461040a578063a643c52e14610405578063a6c3d16514610400578063a9059cbb146103fb578063ab8236f3146103f6578063b25ea8fb146103f1578063b353aaa7146103ec578063baf3292d146103e7578063c056a8de146103e2578063c4461834146103dd578063cbed8b9c146103d8578063d1deba1f146103d3578063d505accf146103ce578063dbd01de1146103c9578063dd62ed3e146103c4578063de406577146103bf578063df2a5b3b146103ba578063e2c268ee146103b5578063e6a20ae6146103b0578063eab45d9c146103ab578063eaffd49a146103a6578063eb8d72b7146103a1578063ed629c5c1461039c578063f2fde38b14610397578063f56e5cbf14610392578063f5ecbdbc1461038d578063fbfa77cf146103885763fc0c546a0361000e57613441565b61341a565b61334e565b6132a9565b6131e2565b6131bf565b613075565b612ff0565b612f8e565b612f72565b612ee4565b612dff565b612dd6565b612d7c565b612d53565b612bf2565b612a8f565b6129be565b6129a1565b612861565b6127cd565b612788565b612712565b61263c565b612612565b61248f565b612471565b6123de565b612320565b612281565b612236565b6121f4565b612150565b612127565b61208d565b610f41565b611f0a565b611ec0565b611e82565b611d48565b611d0b565b611c43565b611c0c565b6119f2565b61199f565b611859565b61181c565b61173d565b6116b7565b611595565b61152e565b61148d565b611471565b611450565b611409565b61139a565b611365565b611309565b61122b565b611156565b6110fa565b610ff6565b610fd3565b610fad565b610f8b565b610ec6565b610e2b565b610d98565b610cd6565b610b6d565b610a2c565b610996565b6108d0565b6107f0565b61073e565b610720565b610601565b6004359061ffff8216820361051557565b600080fd5b6064359061ffff8216820361051557565b6084359061ffff8216820361051557565b6044359061ffff8216820361051557565b6024359061ffff8216820361051557565b359061ffff8216820361051557565b9181601f84011215610515578235916001600160401b038311610515576020838186019501011161051557565b9060806003198301126105155760043561ffff8116810361051557916001600160401b039060243582811161051557816105d69160040161056d565b9390939260443581811681036105155792606435918211610515576105fd9160040161056d565b9091565b346105155761060f3661059a565b929493919291907f00000000000000000000000000000000000000000000000000000000000000006001600160a01b031633036106d05761069561069d926100199761068e61067461066f8a61ffff166000526001602052604060002090565b611984565b80519081841491826106c6575b50816106a3575b50614ab3565b3691610c84565b923691610c84565b92614bd1565b90506106b0368486610c84565b6020815191012090602081519101201438610688565b1515915038610681565b60405162461bcd60e51b815260206004820152601e60248201527f4c7a4170703a20696e76616c696420656e64706f696e742063616c6c657200006044820152606490fd5b600091031261051557565b34610515576000366003190112610515576020601054604051908152f35b346105155760203660031901126105155760043563ffffffff60e01b811680910361051557602090631f7ecdf760e01b8114908115610783575b506040519015158152f35b6301ffc9a760e01b14905038610778565b60005b8381106107a75750506000910152565b8181015183820152602001610797565b906020916107d081518092818552858086019101610794565b601f01601f1916010190565b9060206107ed9281815201906107b7565b90565b34610515576000806003193601126108cd5760405181600b54610812816118b4565b808452906001908181169081156108a5575060011461084c575b6108488461083c81880382610c28565b604051918291826107dc565b0390f35b600b8352602094507f0175b7a638427703f0dbe7bb9bbf987a2551717b34e79f33b5b1008d1fa01db95b82841061089257505050816108489361083c928201019361082c565b8054858501870152928501928101610876565b610848965061083c9450602092508593915060ff191682840152151560051b8201019361082c565b80fd5b3461051557600060203660031901126108cd576108eb610504565b6108f361345c565b7f00000000000000000000000000000000000000000000000000000000000000006001600160a01b0316908290823b1561096757602461ffff918360405195869485936307e0db1760e01b85521660048401525af1801561096257610956575080f35b61095f90610bbe565b80f35b613a18565b5080fd5b6001600160a01b0381160361051557565b600435906109898261096b565b565b35906109898261096b565b34610515576040366003190112610515576109c06004356109b68161096b565b60243590336136ae565b602060405160018152f35b60609060c31901126105155760c490565b60609060a31901126105155760a490565b908160609103126105155790565b9181601f84011215610515578235916001600160401b038311610515576020808501946101a0850201011161051557565b60c036600319011261051557610a40610504565b6001600160401b0360243581811161051557610a6090369060040161056d565b919092604435610a6f8161096b565b60843583811161051557610a879036906004016109ed565b9060a435938411610515576100199561ffff95610b4b610b5a946060610b3b610ae8610aba610b689b36906004016109fb565b9790966040519d8e9c8d6020630a2b247160e01b9101521660248d015260c060448d015260e48c0191613c43565b9260018060a01b0380981660648b015260643560848b015260231997888b86030160a48c0152808235610b1a8161096b565b1685526020820135610b2b8161096b565b1660208501526040810190613c12565b9190928160408201520191613c43565b928584030160c4860152613f7e565b03601f198101835282610c28565b614639565b346105155760403660031901126105155761ffff610b89610504565b610b9161345c565b166000526003602052602435604060002055600080f35b634e487b7160e01b600052604160045260246000fd5b6001600160401b038111610bd157604052565b610ba8565b61012081019081106001600160401b03821117610bd157604052565b60c081019081106001600160401b03821117610bd157604052565b604081019081106001600160401b03821117610bd157604052565b90601f801991011681019081106001600160401b03821117610bd157604052565b604051906101a082018281106001600160401b03821117610bd157604052565b6001600160401b038111610bd157601f01601f191660200190565b929192610c9082610c69565b91610c9e6040519384610c28565b829481845281830111610515578281602093846000960137010152565b9080601f83011215610515578160206107ed93359101610c84565b60c036600319011261051557600435610cee8161096b565b610cf661051a565b9060843590610d048261096b565b60a435926001600160401b03841161051557610b5a61ffff93610d8293610d32610019973690600401610cbb565b9160405196879563076cf20360e11b602088015260018060a01b038094166024880152602435604488015260443560648801521660848601521660a484015260c060c484015260e48301906107b7565b614525565b60409060a31901126105155760a490565b60e036600319011261051557610019600435610db38161096b565b610e1e60243591610dc38361096b565b61ffff610dce61052b565b610dd736610d87565b9260405195630fb6ba5960e01b602088015260018060a01b038092166024880152166044860152604435606486015260643560848601521660a484015260c483019061419e565b60e48152610d8281610bd6565b3461051557600060203660031901126108cd57610e46610504565b610e4e61345c565b7f00000000000000000000000000000000000000000000000000000000000000006001600160a01b0316908290823b1561096757602461ffff918360405195869485936310ddb13760e01b85521660048401525af1801561096257610956575080f35b8015150361051557565b359061098982610eb1565b346105155760403660031901126105155760043561095f602435610ee981610eb1565b610ef161345c565b6000928084526023602052604084209060ff8254161515831515917f9d4ae94752c6f738748e35a3e482cd5fc36a38f35c6c7cb0c933c5fd4f2b61418780a49060ff801983541691151516179055565b34610515576000366003190112610515576020600a54604051908152f35b606090600319011261051557600435610f778161096b565b90602435610f848161096b565b9060443590565b34610515576109c0610f9c36610f5f565b91610fa88333836137d9565b6135a6565b34610515576000366003190112610515576020610fc8613bfd565b60ff60405191168152f35b34610515576000366003190112610515576020610fee613a9c565b604051908152f35b346105155760a03660031901126105155761100f610504565b6064359061101c82610eb1565b608435906001600160401b0382116105155761104161068e604093369060040161056d565b9061107861105b611053604435615957565b602435615a28565b928451958694859463040a7bb160e41b86523090600487016152f3565b03817f00000000000000000000000000000000000000000000000000000000000000006001600160a01b03165afa9081156109625760009081926110c9575b50604080519182526020820192909252f35b90506110ec915060403d81116110f3575b6110e48183610c28565b8101906152dd565b90386110b7565b503d6110da565b34610515576040366003190112610515576004356111178161096b565b3360009081526009602090815260408083206001600160a01b03851684529091529020546024358101809111611151576109c091336136ae565b6134b4565b3461051557600060403660031901126108cd576004356111758161096b565b81602435468252602360205261119160ff6040842054166147cc565b33825260246020526111aa60ff60408420541615614804565b6111b48133614990565b6020546001600160a01b0316803b156112085760405163f3fef3a360e01b81526001600160a01b03909416600485015260248401919091528290818381604481015b03925af1801561096257610956575080f35b8280fd5b608090608319011261051557608490565b908160a09103126105155790565b610180366003190112610515576004356112448161096b565b6024356112508161096b565b61125861053c565b6001600160401b0392906064358481116105155761127a90369060040161056d565b6112833661120c565b91610104358781116105155761129d90369060040161121d565b936040366101231901126105155761016435978811610515576112c76100199836906004016109fb565b9790966141b1565b9060406003198301126105155760043561ffff811681036105155791602435906001600160401b038211610515576105fd9160040161056d565b3461051557602061ffff61135661131f366112cf565b93909116600052600184526113416113486040600020604051928380926118ee565b0382610c28565b848151910120923691610c84565b82815191012014604051908152f35b346105155760203660031901126105155761ffff611381610504565b1660005260036020526020604060002054604051908152f35b34610515576113a8366112cf565b91906113b261345c565b7f00000000000000000000000000000000000000000000000000000000000000006001600160a01b031691823b1561051557604051928380926342d65a8d60e01b8252816111f66000988997889460048501614b44565b34610515576020366003190112610515576004356114268161096b565b6001600160a01b031661143a8115156144f0565b600e80546001600160a01b031916919091179055005b346105155760203660031901126105155761146961345c565b600435601255005b3461051557600036600319011261051557602060405160008152f35b34610515576020366003190112610515576004356000526023602052602060ff604060002054166040519015158152f35b60606003198201126105155760043561ffff8116810361051557916024356001600160401b0392838211610515576114f891600401610cbb565b9160443590811681036105155790565b602090611522928260405194838680955193849201610794565b82019081520301902090565b3461051557602061158c61ffff61156b83611548366114be565b949091166000526005825260406000208260405194838680955193849201610794565b820190815203019020906001600160401b0316600052602052604060002090565b54604051908152f35b61159e36610f5f565b91906115ad60105446146147cc565b60009233845260246020526115c960ff60408620541615614804565b600f546001600160a01b039081166115e757505061095f915061493c565b8392919216338103611648575b506116438261095f946116088215156144f0565b600f54611625906001600160a01b03165b6001600160a01b031690565b60205490919061163d906001600160a01b0316611619565b916148e4565b61483c565b84526009602090815260408086203360009081529252902082905410611683576116438261095f9461167b8233836137d9565b9450506115f4565b60405162461bcd60e51b815260206004820152600c60248201526b1513d19517d85b1b1bddd95960a21b6044820152606490fd5b34610515576116c53661059a565b91929493903033036116e9576106956116e392610019973691610c84565b92614d99565b60405162461bcd60e51b815260206004820152602660248201527f4e6f6e626c6f636b696e674c7a4170703a2063616c6c6572206d7573742062656044820152650204c7a4170760d41b6064820152608490fd5b60a0366003190112610515576004356117558161096b565b61175d61054d565b604435916084356001600160401b03811161051557602061ffff611794600080516020615f1d8339815191529336906004016109ed565b9361180785356117a38161096b565b6117c161068e86890135986117b78a61096b565b60408101906150c9565b6117cb818a615854565b6117e06117d96064356159f1565b5085615bfb565b976117ec891515615337565b6117fe6117f88a615957565b8c615a28565b9234938b6153d7565b6040519485526001600160a01b0316941692a4005b34610515576020366003190112610515576004356118398161096b565b60018060a01b031660005260086020526020604060002054604051908152f35b34610515576000806003193601126108cd5761187361345c565b80546001600160a01b03198116825581906001600160a01b03167f8be0079c531659141344cd1fd0a4f28419497f9722a3daafe3b4186f6b6457e08280a380f35b90600182811c921680156118e4575b60208310146118ce57565b634e487b7160e01b600052602260045260246000fd5b91607f16916118c3565b90600092918054916118ff836118b4565b9182825260019384811690816000146119615750600114611921575b50505050565b90919394506000526020928360002092846000945b83861061194d57505050500101903880808061191b565b805485870183015294019385908201611936565b9294505050602093945060ff191683830152151560051b0101903880808061191b565b9061098961199892604051938480926118ee565b0383610c28565b346105155760203660031901126105155761ffff6119bb610504565b1660005260016020526108486113416119de6040600020604051928380926118ee565b6040519182916020835260208301906107b7565b60e036600319011261051557600435611a0a8161096b565b611a1261054d565b604435916001600160401b039060843582811161051557611a3790369060040161056d565b91909260a43591818316918284036105155760c43590811161051557611a619036906004016109ed565b92611a98843595611a718761096b565b611a90611a866020880135976117b78961096b565b9990923691610c84565b973691610c84565b9460ff60065416600014611b8b576022865110611b4657856020956117fe61180794611b148c611b0161ffff9a8b6022600080516020615f1d8339815191529f0151931660005260028d52611afb60406000206001600052602052604060002090565b546134e6565b90611b0d8215156158a9565b10156158f5565b611b29611b226064356159f1565b5088615bfb565b9a611b358c1515615337565b8d611b3f8d615957565b9033615ab5565b60405162461bcd60e51b815260206004820152601c60248201527f4c7a4170703a20696e76616c69642061646170746572506172616d73000000006044820152606490fd5b948094935051611bb857600080516020615f1d8339815191529460209461ffff946117fe61180794611b14565b60405162461bcd60e51b815260206004820152602660248201527f4f4654436f72653a205f61646170746572506172616d73206d7573742062652060448201526532b6b83a3c9760d11b6064820152608490fd5b3461051557600036600319011261051557600f546040516001600160a01b039091168152602090f35b908160e09103126105155790565b610100806003193601126105155760243590611c5e8261096b565b6001600160401b0360443581811161051557611c7e903690600401611c35565b926064359182116105155761001993610b5a611cfb611ca4611d069536906004016109ed565b611ce9611cb03661120c565b94604051988997633cb7ea1d60e11b60208a015260043560248a015260018060a01b031660448901526064880152610124870190613c98565b85810360231901608487015290613c64565b9160a4840190613d38565b6145e6565b3461051557602036600319011261051557600435611d288161096b565b60018060a01b031660005260146020526020604060002054604051908152f35b3461051557602036600319011261051557600435600260225414611e3d576002602255336000908152602460205260409020611d8f90611d8a905b5460ff1690565b614804565b611d9a8115156144f0565b600f546020546001600160a01b039182161591611db79116611619565b91823b156105155760405163f3fef3a360e01b81523360048201526024810182905260009384908290604490829084905af1801561096257611e24575b50337f2303fe76c64d34b12f3ae35afd1f886cab3c469b873375bc32e82accd1ad28ef8480a461095f6001602255565b80611e31611e3792610bbe565b80610715565b38611df4565b60405162461bcd60e51b815260206004820152601f60248201527f5265656e7472616e637947756172643a207265656e7472616e742063616c6c006044820152606490fd5b3461051557600036600319011261051557602060405160ff7f0000000000000000000000000000000000000000000000000000000000000000168152f35b3461051557604036600319011261051557602061158c611ede610504565b61ffff611ee961054d565b91166000526002835260406000209061ffff16600052602052604060002090565b34610515576000366003190112610515576000546040516001600160a01b039091168152602090f35b6084359060ff8216820361051557565b359060ff8216820361051557565b81601f82011215610515578035906001600160401b038211610bd1576040805193602091611f84838660051b0187610c28565b84865282860191836101a080970286010194818611610515578401925b858410611fb2575050505050505090565b868483031261051557848791611fc6610c49565b611fcf87610ebb565b8152611fdc838801610ebb565b83820152611feb868801610ebb565b868201526060611ffc81890161055e565b90820152608061200d81890161098b565b9082015260a061201e818901610ebb565b9082015260c061202f81890161098b565b9082015260e061204081890161098b565b9082015261010080880135908201526101208088013590820152610140612068818901611f43565b9082015261016080880135908201526101808088013590820152815201930192611fa1565b610140366003190112610515576120a261097c565b6001600160401b0390604435828111610515576120c39036906004016109ed565b606435838111610515576120db903690600401611c35565b906120e53661120c565b61010435858111610515576120fe90369060040161056d565b939092610124359687116105155761211d610019973690600401611f51565b9560243590613d90565b34610515576000366003190112610515576004546040516001600160a01b039091168152602090f35b34610515576000806003193601126108cd5760405181600c54612172816118b4565b808452906001908181169081156108a5575060011461219b576108488461083c81880382610c28565b600c8352602094507fdf6966c971051c3d54ec59162606531493a51404a002842f56009d7e5cf4a8c75b8284106121e157505050816108489361083c928201019361082c565b80548585018701529285019281016121c5565b34610515576020366003190112610515576004356122118161096b565b60018060a01b03166000526024602052602060ff604060002054166040519015158152f35b3461051557602060ff61227561ffff61156b84612252366114be565b949091166000526007825260406000208260405194838680955193849201610794565b54166040519015158152f35b346105155760203660031901126105155761ffff61229d610504565b1660005260016020526113416122bd6040600020604051928380926118ee565b8051156122db5761083c816122d56108489351614bb3565b90615cd5565b60405162461bcd60e51b815260206004820152601d60248201527f4c7a4170703a206e6f20747275737465642070617468207265636f72640000006044820152606490fd5b346105155760403660031901126105155760043561233d8161096b565b6024359033600052600960205261236a8160406000209060018060a01b0316600052602052604060002090565b549180831061238b5761237f920390336136ae565b60405160018152602090f35b60405162461bcd60e51b815260206004820152602560248201527f45524332303a2064656372656173656420616c6c6f77616e63652062656c6f77604482015264207a65726f60d81b6064820152608490fd5b346105155760e0366003190112610515576123f7610504565b6001600160401b03906064358281116105155761241890369060040161056d565b60849291923584811681036105155760a4359161243483610eb1565b60c4359586116105155761244f61245f96369060040161056d565b95909460443590602435906150fb565b60408051928352602083019190915290f35b34610515576000366003190112610515576020601254604051908152f35b346105155761249d366112cf565b906124a661345c565b604051926020928083858701376124d26034868381013060601b88820152036014810188520186610c28565b60009361ffff8316855260019081815260408620918751916001600160401b038311610bd15761250c8361250686546118b4565b86614b5f565b80601f841160011461257c57509180809261256b9695948a9b7f8c0400cfe2d1199b1a725c78960bcc2a344d869b80590d0f2bd005db15a572ce9b94612571575b50501b916000199060031b1c19161790555b60405193849384614b44565b0390a180f35b01519250388061254d565b91939498601f19841661259487600052602060002090565b938a905b8282106125fb575050917f8c0400cfe2d1199b1a725c78960bcc2a344d869b80590d0f2bd005db15a572ce999a9593918561256b989694106125e2575b505050811b01905561255f565b015160001960f88460031b161c191690553880806125d5565b808886978294978701518155019601940190612598565b34610515576040366003190112610515576109c06004356126328161096b565b60243590336135a6565b346105155760c036600319011261051557612655610504565b506001600160401b0360243581811161051557612676903690600401610cbb565b5061268260643561096b565b6084359060a4359081116105155761269e903690600401610cbb565b50600f546001600160a01b03919082168061270457506020549091506126cc906001600160a01b0316611619565b803b1561051557600090600460405180948193636db5a92360e11b83525af18015610962576126f757005b80611e3161001992610bbe565b610019926020541690614316565b346105155760403660031901126105155760243561272f8161096b565b61273761345c565b60008080808094600435905af161274c61442f565b50156127555780f35b60405162461bcd60e51b815260206004820152600b60248201526a1513d19517d1985a5b195960aa1b6044820152606490fd5b34610515576000366003190112610515576040517f00000000000000000000000000000000000000000000000000000000000000006001600160a01b03168152602090f35b34610515576020366003190112610515577f5db758e995a17ec1ad84bdef7e8c3293a0bd6179bcce400dff5d4c3d87db726b602060043561280d8161096b565b61281561345c565b600480546001600160a01b0319166001600160a01b03929092169182179055604051908152a1005b60c090600319011261051557600490565b60c0906101231901126105155761012490565b61022080600319360112610515576128783661283d565b612881366109cb565b9161288b3661284e565b906001600160401b03906101e435828111610515576128ae9036906004016109fb565b9091610204938435908111610515576128cb90369060040161056d565b94909560405198899863602b546f60e11b60208b015280356128ec8161096b565b6001600160a01b0390811660248c015280602083013561290b8161096b565b1660448c0152604082013560648c0152606082013560848c015260808201356129338161096b565b1660a48b015260a0013560c48a015260e4890161294f91614277565b610144880161295d916142ad565b86015261024485019061296f92613f7e565b906023198483030161022485015261298692613c43565b03601f19810182526129989082610c28565b61001990614639565b346105155760003660031901126105155760206040516127108152f35b34610515576080366003190112610515576129d7610504565b6129df61054d565b6064356001600160401b038111610515576129fe90369060040161056d565b9092612a0861345c565b7f00000000000000000000000000000000000000000000000000000000000000006001600160a01b031690813b156105155760008094612a7f604051978896879586946332fb62e760e21b865261ffff80921660048701521660248501526044356044850152608060648501526084840191613c43565b03925af18015610962576126f757005b612a983661059a565b9161ffff86949296166000526005602052612adf81604060002060206040518092878b833787820190815203019020906001600160401b0316600052602052604060002090565b54918215612ba157612b908483612b897fc264d91f3adc5588250e1551f547752ca0cfa8f6b530d243b9f9f4cab10ea8e59a6000612b7584612b5d8e8a8f612b9c9f908f612b4390612b36612b579436908d610c84565b602081519101201461503c565b61ffff166000526005602052604060002090565b91615023565b906001600160401b0316600052602052604060002090565b55612b8136878d610c84565b933691610c84565b9188614d99565b60405195869586615092565b0390a1005b60405162461bcd60e51b815260206004820152602360248201527f4e6f6e626c6f636b696e674c7a4170703a206e6f2073746f726564206d65737360448201526261676560e81b6064820152608490fd5b346105155760e036600319011261051557600435612c0f8161096b565b602435612c1b8161096b565b6044359060643592612c2b611f33565b93804211612d0e57612cf6612d0991612cd061001997612cde612c698760018060a01b03166000526014602052604060002090815491600183019055565b604080517f6e71edae12b1b97f4d1f60370fef10105fa2faae0126114a169c64845d6126c9602082019081526001600160a01b03808c1693830193909352918b166060820152608081018c905260a081019290925260c082019590955292839060e0820190565b03601f198101845283610c28565b612cf160c4359360a43593519020613bb6565b6138bd565b6001600160a01b03838116911614613871565b6136ae565b60405162461bcd60e51b815260206004820152601d60248201527f45524332305065726d69743a206578706972656420646561646c696e650000006044820152606490fd5b3461051557600036600319011261051557600e546040516001600160a01b039091168152602090f35b3461051557604036600319011261051557602061158c600435612d9e8161096b565b60243590612dab8261096b565b60018060a01b03166000526009835260406000209060018060a01b0316600052602052604060002090565b3461051557600036600319011261051557600d546040516001600160a01b039091168152602090f35b3461051557606036600319011261051557612e18610504565b612e2061054d565b60443591612e2c61345c565b8215612ea757612b9c7f9d5c7c0b934da8fefa9c7760c98383778a12dfbfc0c3b3106518f43fb9508ac09361ffff8316600052600260205280612e818560406000209061ffff16600052602052604060002090565b556040519384938460409194939294606082019561ffff80921683521660208201520152565b60405162461bcd60e51b81526020600482015260156024820152744c7a4170703a20696e76616c6964206d696e47617360581b6044820152606490fd5b3461051557604036600319011261051557600435612f018161096b565b61095f60243591612f1183610eb1565b612f1961345c565b60018060a01b0316916000928084526024602052604084209060ff8254161515831515917f470a9d1ce8bb125dc8ef5154b389c33a59bdd4c7394e3d359194965d5e6f37b98780a49060ff801983541691151516179055565b3461051557600036600319011261051557602060405160018152f35b34610515576020366003190112610515577f1584ad594a70cbe1e6515592e1272a987d922b097ead875069cebe8b40c004a46020600435612fce81610eb1565b612fd661345c565b151560ff196006541660ff821617600655604051908152a1005b34610515576101003660031901126105155761300a610504565b6001600160401b03906024358281116105155761302b90369060040161056d565b9190604435908482168203610515576084356130468161096b565b60c4359586116105155761306161001996369060040161056d565b94909360e4359660a43594606435936151f1565b3461051557613083366112cf565b919061308d61345c565b60009161ffff81168352600160209080825260408520916001600160401b038711610bd1576130c6876130c085546118b4565b85614b5f565b8590601f881160011461312d575091868087989361256b957ffa41487ad5d6728f0b19276fa1eddc16558578f5109fc39d2dc33c3230470dab9993613122575b501b906000198460031b1c191617905560405193849384614b44565b880135925038613106565b90601f19881661314285600052602060002090565b9288905b8282106131a8575050918893917ffa41487ad5d6728f0b19276fa1eddc16558578f5109fc39d2dc33c3230470dab989961256b96941061318e575b505082811b01905561255f565b870135600019600386901b60f8161c191690553880613181565b808685968294968c01358155019501930190613146565b3461051557600036600319011261051557602060ff600654166040519015158152f35b34610515576020366003190112610515576004356131ff8161096b565b61320761345c565b6001600160a01b03908116801561325557600080546001600160a01b03198116831782559092167f8be0079c531659141344cd1fd0a4f28419497f9722a3daafe3b4186f6b6457e08380a380f35b60405162461bcd60e51b815260206004820152602660248201527f4f776e61626c653a206e6577206f776e657220697320746865207a65726f206160448201526564647265737360d01b6064820152608490fd5b610140366003190112610515576004356132c28161096b565b6024356132ce8161096b565b6132d661053c565b916064356132e38161096b565b6001600160401b03936084358581116105155761330490369060040161121d565b61330d366109dc565b9061010435878111610515576133279036906004016109fb565b949093610124359889116105155761334661001999369060040161056d565b9890976140a4565b3461051557608036600319011261051557613367610504565b61336f61054d565b9061337b60443561096b565b604051633d7b2f6f60e21b815261ffff91821660048201529116602482015230604482015260648035908201526000816084817f00000000000000000000000000000000000000000000000000000000000000006001600160a01b03165afa801561096257610848916000916133f9575b50604051918291826107dc565b613414913d8091833e61340c8183610c28565b810190614b0e565b386133ec565b3461051557600036600319011261051557602080546040516001600160a01b039091168152f35b34610515576000366003190112610515576020604051308152f35b6000546001600160a01b0316330361347057565b606460405162461bcd60e51b815260206004820152602060248201527f4f776e61626c653a2063616c6c6572206973206e6f7420746865206f776e65726044820152fd5b634e487b7160e01b600052601160045260246000fd5b90601f820180921161115157565b605101908160511161115157565b9190820180921161115157565b156134fa57565b60405162461bcd60e51b815260206004820152602360248201527f45524332303a207472616e7366657220746f20746865207a65726f206164647260448201526265737360e81b6064820152608490fd5b1561355257565b60405162461bcd60e51b815260206004820152602660248201527f45524332303a207472616e7366657220616d6f756e7420657863656564732062604482015265616c616e636560d01b6064820152608490fd5b916001600160a01b03808416929091831561365b5761364082600080516020615f3d833981519152946136569416966135e08815156134f3565b6001600160a01b03811660009081526008602052604090206136259085905461360b8282101561354b565b039160018060a01b03166000526008602052604060002090565b556001600160a01b0316600090815260086020526040902090565b8054820190556040519081529081906020820190565b0390a3565b60405162461bcd60e51b815260206004820152602560248201527f45524332303a207472616e736665722066726f6d20746865207a65726f206164604482015264647265737360d81b6064820152608490fd5b6001600160a01b03808216929190831561378857821693841561373857806137277f8c5be1e5ebec7d5bd14f71427d1e84f3dd0314c0f7b2291e5b200ac8c7c3b925946137106136569560018060a01b03166000526009602052604060002090565b9060018060a01b0316600052602052604060002090565b556040519081529081906020820190565b60405162461bcd60e51b815260206004820152602260248201527f45524332303a20617070726f766520746f20746865207a65726f206164647265604482015261737360f01b6064820152608490fd5b60405162461bcd60e51b8152602060048201526024808201527f45524332303a20617070726f76652066726f6d20746865207a65726f206164646044820152637265737360e01b6064820152608490fd5b6001600160a01b0380821660009081526009602090815260408083209386168352929052209091905492600184016138115750505050565b80841061382c576138239303916136ae565b3880808061191b565b60405162461bcd60e51b815260206004820152601d60248201527f45524332303a20696e73756666696369656e7420616c6c6f77616e63650000006044820152606490fd5b1561387857565b60405162461bcd60e51b815260206004820152601e60248201527f45524332305065726d69743a20696e76616c6964207369676e617475726500006044820152606490fd5b916107ed93916138cc93613a24565b9190916138f9565b634e487b7160e01b600052602160045260246000fd5b600511156138f457565b6138d4565b613902816138ea565b8061390a5750565b613913816138ea565b6001810361395f5760405162461bcd60e51b815260206004820152601860248201527745434453413a20696e76616c6964207369676e617475726560401b6044820152606490fd5b0390fd5b613968816138ea565b600281036139b55760405162461bcd60e51b815260206004820152601f60248201527f45434453413a20696e76616c6964207369676e6174757265206c656e677468006044820152606490fd5b806139c16003926138ea565b146139c857565b60405162461bcd60e51b815260206004820152602260248201527f45434453413a20696e76616c6964207369676e6174757265202773272076616c604482015261756560f01b6064820152608490fd5b6040513d6000823e3d90fd5b9291906fa2a8918ca85bafe22016d0b997e4df60600160ff1b038311613a905791608094939160ff602094604051948552168484015260408301526060820152600093849182805260015afa156109625781516001600160a01b03811615613a8a579190565b50600190565b50505050600090600390565b307f00000000000000000000000000000000000000000000000000000000000000006001600160a01b03161480613b8d575b15613af7577f000000000000000000000000000000000000000000000000000000000000000090565b60405160208101907f000000000000000000000000000000000000000000000000000000000000000082527f000000000000000000000000000000000000000000000000000000000000000060408201527f000000000000000000000000000000000000000000000000000000000000000060608201524660808201523060a082015260a08152613b8781610bf2565b51902090565b507f00000000000000000000000000000000000000000000000000000000000000004614613ace565b613bbe613a9c565b9060405190602082019261190160f01b84526022830152604282015260428152608081018181106001600160401b03821117610bd15760405251902090565b60ff601154168015613c0c5790565b50601290565b9035601e19823603018112156105155701602081359101916001600160401b03821161051557813603831361051557565b908060209392818452848401376000828201840152601f01601f1916010190565b906060610b3b6107ed938035613c798161096b565b6001600160a01b03168452602081810135908501526040810190613c12565b908135815261ffff80613cad6020850161055e565b166020830152613cbf6040840161055e565b16604082015260c06060830135613cd58161096b565b6001600160a01b03908116606084015281613d25613d0a613cf96080880188613c12565b60e0608089015260e0880191613c43565b613d1760a0880188613c12565b9087830360a0890152613c43565b940135613d318161096b565b1691015290565b60609081813591613d488361096b565b6001600160a01b039283168552826020820135613d648161096b565b166020860152826040820135613d798161096b565b1660408601520135613d8a8161096b565b16910152565b9293613e0d91929796604096613dfd613df2613ddf8a519c8d9860209a6304a2c7ab60e51b8c8c015260018060a01b031660248b015260448a0152610164610140998a60648201520190613c64565b6023198d8203810160848f015299613c98565b9360a48c0190613d38565b868a8403016101248b0152613c43565b92868403016101448701528180865194858152019501936000915b848310613e505750505050505090611d0681613e4c9303601f198101835282610c28565b5050565b909192939495846101a06001928951613e6b82825115159052565b808401511515828501528087015115158288015260608181015161ffff16908301526080818101516001600160a01b03169083015260a08181015115159083015260c0818101516001600160a01b03169083015260e0818101516001600160a01b031690830152610100818101519083015261012080820151908301528581015160ff168683015261016081810151908301526101809081015190820152019701959493019190613e28565b9060a0613f6e6107ed938035613f2c81610eb1565b15158452602081013560208501526040810135613f4881610eb1565b1515604085015261ffff613f5e6060830161055e565b1660608501526080810190613c12565b9190928160808201520191613c43565b9190808252602080920192916000905b828210613f9c575050505090565b9091929380613fb6600192613fb088610ebb565b15159052565b613fcc613fc4848801610ebb565b151582850152565b613fe46040613fdc818901610ebb565b151590830152565b613ffe6060613ff481890161055e565b61ffff1690830152565b61401d608061400e81890161098b565b6001600160a01b031690830152565b61402d60a0613fdc818901610ebb565b61403d60c061400e81890161098b565b61404d60e061400e81890161098b565b6101008087013590820152610120808701359082015261407d610140614074818901611f43565b60ff1690830152565b610160868101359082015261018080870135908201526101a0908101950193920190613f8e565b60405163f56e5cbf60e01b60208201526001600160a01b039182166024820152918116604483015261ffff9092166064820152918116608483015261014060a48301529096879695949093909290919061410390610164890190613f17565b91803560c489015281602082013561411a8161096b565b1660e48901526040013561412d8161096b565b1661010487015260231993848783030161012488015261414c92613f7e565b918483030161014485015261416092613c43565b03601f19810182526141729082610c28565b613e4c9061468c565b6101243581526020610144356141908161096b565b6001600160a01b0316910152565b602080918035845201356141908161096b565b604051633a2544b560e01b60208201526001600160a01b039182166024820152918116604483015261ffff909216606482015261018060848201529687969590939092614203916101a4890191613c43565b93803560a4880152602081013560c48801528160408201356142248161096b565b1660e4880152606001356142378161096b565b1661010486015260231992838682030161012487015261425691613f17565b91614264610144860161417b565b8483030161018485015261416092613f7e565b6040809161ffff6142878261055e565b16845260208101356142988161096b565b6001600160a01b031660208501520135910152565b60a0809180356142bc81610eb1565b1515845260208101356142ce8161096b565b600180841b03809116602086015261ffff6142eb6040840161055e565b1660408601526060820135606086015260808201356143098161096b565b1660808501520135910152565b60405163a9059cbb60e01b60208201526001600160a01b03909216602483015260448201929092526109899161434f8260648101612cd0565b6040516143ad916001600160a01b031661436882610c0d565b6000806020958685527f5361666545524332303a206c6f772d6c6576656c2063616c6c206661696c656487860152868151910182855af16143a761442f565b9161445f565b8051806143b957505050565b81839181010312610515578101516143d081610eb1565b156143d85750565b6084906040519062461bcd60e51b82526004820152602a60248201527f5361666545524332303a204552433230206f7065726174696f6e20646964206e6044820152691bdd081cdd58d8d9595960b21b6064820152fd5b3d1561445a573d9061444082610c69565b9161444e6040519384610c28565b82523d6000602084013e565b606090565b919290156144c15750815115614473575090565b3b1561447c5790565b60405162461bcd60e51b815260206004820152601d60248201527f416464726573733a2063616c6c20746f206e6f6e2d636f6e74726163740000006044820152606490fd5b8251909150156144d45750805190602001fd5b60405162461bcd60e51b815290819061395b90600483016107dc565b156144f757565b60405162461bcd60e51b81526020600482015260066024820152650544f46545f360d41b6044820152606490fd5b600460005260136020527f01413ff7a3b1d5b6c016c061d48e2c7014700c777a29fcd068fff04265813d5d546001600160a01b031680156145b357816000929160208493519201905af49061457861442f565b908215806145ab575b61458757565b61395b6145938361471e565b60405162461bcd60e51b8152918291600483016107dc565b506001614581565b60405162461bcd60e51b815260206004820152600b60248201526a544f46545f6d6f64756c6560a81b6044820152606490fd5b600260005260136020527f0b9d2c0c271bb30544eb78c59bdaebdae2728e5f65814c07768a0abe90ed1923546001600160a01b031680156145b357816000929160208493519201905af49061457861442f565b600860005260136020527f7b49122965436243734b7a552847e7503db682b4cbd4d2fd428feb216e8bcdf8546001600160a01b031680156145b357816000929160208493519201905af49061457861442f565b600660005260136020527f709d0e3cf89777a1e1f9c99632e4494f29b0327befd0df15e277a12d94825795546001600160a01b031680156145b357816000929160208493519201905af49061457861442f565b600a11156138f457565b909291926146f681610c69565b916147046040519384610c28565b829482845282820111610515576020610989930190610794565b6103e881511161479f57604481511061477957600481015181019060208160248401930312610515576024810151906001600160401b038211610515570190806043830112156105155760248201516107ed926044016146e9565b5060405161478681610c0d565b6009815268544f46545f6461746160b81b602082015290565b506040516147ac81610c0d565b601081526f2a27a32a2fa627a723afa922a0a9a7a760811b602082015290565b156147d357565b60405162461bcd60e51b81526020600482015260096024820152681513d19517da1bdcdd60ba1b6044820152606490fd5b1561480b57565b60405162461bcd60e51b81526020600482015260096024820152680a89e8ca8bec2eae8d60bb1b6044820152606490fd5b6001600160a01b0381169190821561489f57600a549082820180921161115157600092614890602092600080516020615f3d83398151915294600a5560018060a01b03166000526008602052604060002090565b818154019055604051908152a3565b60405162461bcd60e51b815260206004820152601f60248201527f45524332303a206d696e7420746f20746865207a65726f2061646472657373006044820152606490fd5b6040516323b872dd60e01b60208201526001600160a01b03928316602482015292909116604483015260648083019390935291815260a08101918183106001600160401b03841117610bd1576109899260405261434f565b6020546001600160a01b031690813b156105155760008092600460405180958193636db5a92360e11b83525af19182156109625761098992614981575b50349061483c565b61498a90610bbe565b38614979565b6001600160a01b038116908115614a64576001600160a01b038116600090815260086020526040902054838110614a145783600080516020615f3d833981519152926149f660009661365694039160018060a01b03166000526008602052604060002090565b55614a0481600a5403600a55565b6040519081529081906020820190565b60405162461bcd60e51b815260206004820152602260248201527f45524332303a206275726e20616d6f756e7420657863656564732062616c616e604482015261636560f01b6064820152608490fd5b60405162461bcd60e51b815260206004820152602160248201527f45524332303a206275726e2066726f6d20746865207a65726f206164647265736044820152607360f81b6064820152608490fd5b15614aba57565b60405162461bcd60e51b815260206004820152602660248201527f4c7a4170703a20696e76616c696420736f757263652073656e64696e6720636f6044820152651b9d1c9858dd60d21b6064820152608490fd5b602081830312610515578051906001600160401b03821161051557019080601f830112156105155781516107ed926020016146e9565b60409061ffff6107ed95931681528160208201520191613c43565b90601f8111614b6d57505050565b600091825260208220906020601f850160051c83019410614ba9575b601f0160051c01915b828110614b9e57505050565b818155600101614b92565b9092508290614b89565b60131981019190821161115157565b60501981019190821161115157565b929091614c355a604051633356ae4560e11b602082015261ffff871660248201526080604482015290614c2f82612cd0614c0e60a483018a6107b7565b6001600160401b0388166064840152828103602319016084840152886107b7565b30615ed1565b939015614c44575b5050505050565b614c4d94614c57565b3880808080614c3d565b9193614cf47fe183f33de2837795525b4792ca4cd60535bd77c53b7e7030060bfcf5734d6b0c95614d02939561ffff81516020830120961695866000526005602052614cbb8361156b60208b60406000208260405194838680955193849201610794565b556001600160401b03614ce0604051988998895260a060208a015260a08901906107b7565b9216604087015285820360608701526107b7565b9083820360808501526107b7565b0390a1565b90604051604081018181106001600160401b03821117610bd15760405280925460ff811690600a8210156138f45790825260d81b6001600160e01b03191660209190910152565b916107ed959361ffff614d85926001600160401b039460018060a01b0316865216602085015260a0604085015260a08401906107b7565b9316606082015260808184039101526107b7565b929190614da583615e84565b614dbc611d83826000526021602052604060002090565b614dc5816146df565b15614f4c5793614dea614de5610989966000526021602052604060002090565b614d07565b8051614df5816146df565b60208201516001600160e01b03191691805190614e11826146df565b614e1a826146df565b600091600503614e61575050601954614e5c90614e3f906001600160a01b0316611619565b925b612cd088888888604051988996602088015260248701614d4e565b614fb3565b60078151614e6e816146df565b614e77816146df565b03614e9d575050601b54614e5c90614e97906001600160a01b0316611619565b92614e41565b60038151614eaa816146df565b614eb3816146df565b03614ed8575050601754614e5c90614ed3906001600160a01b0316611619565b614e97565b60098151614ee5816146df565b614eee816146df565b03614f0e575050601d54614e5c90614ed3906001600160a01b0316611619565b60019051614f1b816146df565b614f24816146df565b03614f435750601e54614e5c90614ed3906001600160a01b0316611619565b614e5c90614e97565b50614f5f614f5984615e29565b60ff1690565b80614f70575050506109899161554c565b600103614f8057610989936156a3565b60405162461bcd60e51b815260206004820152600b60248201526a1513d19517dc1858dad95d60aa1b6044820152606490fd5b9492939194600a8110156138f4576000908152601360205260409020546001600160a01b031680156145b357816000929160208493519201905af492614ff761442f565b9315808061501b575b61500f57614c44575050505050565b61395b6145938661471e565b506000615000565b6020919283604051948593843782019081520301902090565b1561504357565b60405162461bcd60e51b815260206004820152602160248201527f4e6f6e626c6f636b696e674c7a4170703a20696e76616c6964207061796c6f616044820152601960fa1b6064820152608490fd5b916150be9060609461ffff6001600160401b039499989799168552608060208601526080850191613c43565b951660408201520152565b903590601e198136030182121561051557018035906001600160401b0382116105155760200191813603831361051557565b949195989790611b3f61512460409961511c61512a97615147993691610c84565b943691610c84565b97615957565b928451968794859463040a7bb160e41b86523090600487016152f3565b03817f00000000000000000000000000000000000000000000000000000000000000006001600160a01b03165afa91821561096257600090819361518a57509190565b90506105fd91925060403d81116110f3576110e48183610c28565b939694916151d3906107ed99979461ffff6001600160401b039416875260c0602088015260c0870191613c43565b961660408401526060830152608082015260a0818503910152613c43565b919697929895949390943033036152985761520d908530615c21565b60405181815290946001600160a01b03169390849061ffff8516907fbf551ec93859b170f9b2141bd9298bf3f64322c6f7beb2543a0cb669834118bf90602090a3833b1561051557600098899561527b936040519c8d9b8c9a8b98633fe79aed60e11b8a5260048a016151a5565b0393f180156109625761528b5750565b80611e3161098992610bbe565b60405162461bcd60e51b815260206004820152601f60248201527f4f4654436f72653a2063616c6c6572206d757374206265204f4654436f7265006044820152606490fd5b9190826040910312610515576020825192015190565b91926107ed959361ffff6153229316845260018060a01b0316602084015260a0604084015260a08301906107b7565b921515606082015260808184039101526107b7565b1561533e57565b60405162461bcd60e51b815260206004820152601960248201527813d19510dbdc994e88185b5bdd5b9d081d1bdbc81cdb585b1b603a1b6044820152606490fd5b926153a46107ed97959361ffff6153b29416865260c0602087015260c08601906107b7565b9084820360408601526107b7565b6001600160a01b0391821660608401529316608082015280830360a0909101526107b7565b946154009193929561ffff811660005260016020526154076040600020604051948580926118ee565b0384610c28565b82511561547f576154198551826154dd565b7f00000000000000000000000000000000000000000000000000000000000000006001600160a01b031693843b156105155760009661546e91604051998a988997889662c5803160e81b88526004880161537f565b03925af180156109625761528b5750565b60405162461bcd60e51b815260206004820152603060248201527f4c7a4170703a2064657374696e6174696f6e20636861696e206973206e6f742060448201526f61207472757374656420736f7572636560801b6064820152608490fd5b61ffff166000526003602052604060002054908115615542575b116154fe57565b606460405162461bcd60e51b815260206004820152602060248201527f4c7a4170703a207061796c6f61642073697a6520697320746f6f206c617267656044820152fd5b61271091506154f7565b9060ff61555882615e29565b16158061560a575b61556990615a6e565b61557b61557582615dd9565b91615e74565b6001600160a01b039081831615615600575b61ffff7fbf551ec93859b170f9b2141bd9298bf3f64322c6f7beb2543a0cb669834118bf926155e86020936001600160401b037f000000000000000000000000000000000000000000000000000000000000000091166159de565b946155f3868261483c565b60405195865216941692a3565b61dead925061558d565b508051602914615560565b98979692936001600160401b0361564760e0989461ffff6156739995168d5260208d61010091829101528d01906107b7565b951660408b015260608a01526001600160a01b0316608089015260a088015286820360c08801526107b7565b930152565b6001600160401b03615698604093969594966060845260608401906107b7565b951660208201520152565b90916156ae84615b22565b90916156d8611d8387612b5d6156d28b61ffff166000526007602052604060002090565b8c611508565b9161570e6001600160401b0392837f000000000000000000000000000000000000000000000000000000000000000091166159de565b9288888b831561580a575b505050853b156157bf57946157609694614c2f948a94612cd0948d996000146157b85750505a925b5a978b6040519a8b9863757fea4d60e11b60208b015260248a01615615565b90156157ad5750906157a861ffff928560207fb8890edbfc1c74692f527444645f95489c3703cc2df42e4a366f5d06fa6cd88496975191012090604051948594169684615678565b0390a2565b926109899492614c57565b1692615741565b50506040516001600160a01b039094168452507f9aedf5fdba8716db3b6705ca00150643309995d4f818a249ed6dde6677e7792d975091955085945050602084019250614d02915050565b90612b5d61583f926158398961582461584c979b3061483c565b9961ffff166000526007602052604060002090565b90611508565b805460ff19166001179055565b88888b615719565b60065460ff16156158a1576022825110611b465761ffff602261098993015191166000526002602052615894604060002060008052602052604060002090565b5490611b0d8215156158a9565b5051611bb857565b156158b057565b60405162461bcd60e51b815260206004820152601a60248201527f4c7a4170703a206d696e4761734c696d6974206e6f74207365740000000000006044820152606490fd5b156158fc57565b60405162461bcd60e51b815260206004820152601b60248201527f4c7a4170703a20676173206c696d697420697320746f6f206c6f7700000000006044820152606490fd5b634e487b7160e01b600052601260045260246000fd5b7f00000000000000000000000000000000000000000000000000000000000000009081156159d957046001600160401b0390818111615994571690565b60405162461bcd60e51b815260206004820152601a60248201527f4f4654436f72653a20616d6f756e745344206f766572666c6f770000000000006044820152606490fd5b615941565b8181029291811591840414171561115157565b7f000000000000000000000000000000000000000000000000000000000000000080156159d9578106908181039081116111515791565b90604051916000602084015260218301526001600160401b0360c01b9060c01b16604182015260298152606081018181106001600160401b03821117610bd15760405290565b15615a7557565b60405162461bcd60e51b815260206004820152601860248201527713d19510dbdc994e881a5b9d985b1a59081c185e5b1bd85960421b6044820152606490fd5b93926071926107ed94604051968794600160f81b602087015260218601526001600160401b0360c01b809360c01b16604186015260018060a01b0316604985015260c01b166069830152615b128151809260208686019101610794565b8101036051810184520182610c28565b90615b3a600160ff615b3385615e29565b1614615a6e565b615b4382615dd9565b90615b4d83615e74565b906049845110615bbe576049840151936051815110615b8257615b7f605182015191615b798151614bc2565b90615d55565b91565b60405162461bcd60e51b8152602060048201526014602482015273746f55696e7436345f6f75744f66426f756e647360601b6044820152606490fd5b60405162461bcd60e51b8152602060048201526015602482015274746f427974657333325f6f75744f66426f756e647360581b6044820152606490fd5b6107ed9082906001600160a01b038116331461499057615c1c8233836137d9565b614990565b6107ed9183916001600160a01b038116308114159081615c4d575b50156135a657610fa88333836137d9565b905033141538615c3c565b15615c5f57565b60405162461bcd60e51b815260206004820152600e60248201526d736c6963655f6f766572666c6f7760901b6044820152606490fd5b15615c9c57565b60405162461bcd60e51b8152602060048201526011602482015270736c6963655f6f75744f66426f756e647360781b6044820152606490fd5b615ce982615ce2816134ca565b1015615c58565b615cf68282511015615c95565b81615d0e575050604051600081526020810160405290565b60405191601f811691821560051b808486010193838501920101905b808410615d425750508252601f01601f191660405290565b9092835181526020809101930190615d2a565b615d6282615ce2816134ca565b615d778151615d70846134d8565b1115615c95565b81615d8f575050604051600081526020810160405290565b60405191601f8116916051831560051b80858701019484860193010101905b808410615dc65750508252601f01601f191660405290565b9092835181526020809101930190615dae565b6021815110615dec57602d015160601c90565b60405162461bcd60e51b8152602060048201526015602482015274746f416464726573735f6f75744f66426f756e647360581b6044820152606490fd5b6001815110615e39576001015190565b60405162461bcd60e51b8152602060048201526013602482015272746f55696e74385f6f75744f66426f756e647360681b6044820152606490fd5b6029815110615b82576029015190565b6020815110615e94576020015190565b60405162461bcd60e51b8152602060048201526015602482015274746f55696e743235365f6f75744f66426f756e647360581b6044820152606490fd5b9092916000809160405195615ee587610bf2565b6096875282602088019560a036883760208451940192f1903d9060968211615f13575b6000908286523e9190565b60969150615f0856fed81fc9b8523134ed613870ed029d6170cbb73aa6a6bc311b9a642689fb9df59addf252ad1be2c89b69c2b068fc378daa952ba7f163c4a11628f55a4df523b3efa26469706673582212206613e965c964fb21b51f3648806322909267178f88e506b3540918853270ca9f64736f6c634300081200336080346100be57601f61069338819003918201601f19168301916001600160401b038311848410176100c3578084926020946040528339810103126100be57516001600160a01b0390818116908190036100be576000543360018060a01b0319821617600055604051923391167f8be0079c531659141344cd1fd0a4f28419497f9722a3daafe3b4186f6b6457e0600080a3600180546001600160a81b0319168217911560a01b60ff60a01b169190911790556105b990816100da8239f35b600080fd5b634e487b7160e01b600052604160045260246000fdfe60406080815260048036101561001f575b5050361561001d57600080fd5b005b600091823560e01c8063715018a6146103f35780638da5cb5b146103cb578063b08ff105146103a3578063db6b5246146102f1578063f2fde38b1461022e5763f3fef3a31461006e5750610010565b3461022a578060031936011261022a5782610087610450565b6024359061009361046b565b60015460ff8160a01c16600014610152575082809281925af13d1561014d573d67ffffffffffffffff811161013a578251906100d9601f8201601f1916602001836104c3565b81528460203d92013e5b156100ed57505080f35b906020608492519162461bcd60e51b8352820152602160248201527f544f46545661756c743a206e6174697665207472616e73666572206661696c656044820152601960fa1b6064820152fd5b634e487b7160e01b855260418452602485fd5b6100e3565b845163a9059cbb60e01b81526001600160a01b039283168782015260248101939093529192602092849260449284929091165af19081156102205784916101e2575b501561019f57505080f35b906020606492519162461bcd60e51b8352820152601a60248201527f544f46545661756c743a207472616e73666572206661696c65640000000000006044820152fd5b90506020813d8211610218575b816101fc602093836104c3565b81010312610214575180151581036102145738610194565b8380fd5b3d91506101ef565b82513d86823e3d90fd5b8280fd5b50903461022a57602036600319011261022a57610249610450565b9061025261046b565b6001600160a01b0391821692831561029f57505082546001600160a01b0319811683178455167f8be0079c531659141344cd1fd0a4f28419497f9722a3daafe3b4186f6b6457e08380a380f35b906020608492519162461bcd60e51b8352820152602660248201527f4f776e61626c653a206e6577206f776e657220697320746865207a65726f206160448201526564647265737360d01b6064820152fd5b508260031936011261022a5761030561046b565b60ff60015460a01c161561036057341561031d578280f35b906020606492519162461bcd60e51b8352820152601b60248201527f544f46545661756c743a20616d6f756e74206e6f742076616c696400000000006044820152fd5b906020606492519162461bcd60e51b8352820152601a60248201527f544f46545661756c743a20646966666572656e7420746f6b656e0000000000006044820152fd5b8382346103c757816003193601126103c7576020906103c06104fb565b9051908152f35b5080fd5b8382346103c757816003193601126103c757905490516001600160a01b039091168152602090f35b833461044d578060031936011261044d5761040c61046b565b80546001600160a01b03198116825581906001600160a01b03167f8be0079c531659141344cd1fd0a4f28419497f9722a3daafe3b4186f6b6457e08280a380f35b80fd5b600435906001600160a01b038216820361046657565b600080fd5b6000546001600160a01b0316330361047f57565b606460405162461bcd60e51b815260206004820152602060248201527f4f776e61626c653a2063616c6c6572206973206e6f7420746865206f776e65726044820152fd5b90601f8019910116810190811067ffffffffffffffff8211176104e557604052565b634e487b7160e01b600052604160045260246000fd5b60015460ff8160a01c1661057e576040516370a0823160e01b815230600482015290602090829060249082906001600160a01b03165afa90811561057257600091610544575090565b906020823d821161056a575b8161055d602093836104c3565b8101031261044d57505190565b3d9150610550565b6040513d6000823e3d90fd5b50479056fea26469706673582212206e8253e85e77070f514a87ff8e8e4f39d4be186f2e259c2ead1477cf0454b03a64736f6c634300081200338b73c3c69bb8fe3d512ecc4cf759cc79239f7b179b0ffacaa9a75d522b39400f",
  "linkReferences": {},
  "deployedLinkReferences": {}
}