{
  "_format": "hh-sol-artifact-1",
  "contractName": "MultiSwapper",
  "sourceName": "contracts/Swapper/MultiSwapper.sol",
  "abi": [
    {
      "inputs": [
        {
          "internalType": "address",
          "name": "_factory",
          "type": "address"
        },
        {
          "internalType": "contract YieldBox",
          "name": "_yieldBox",
          "type": "address"
        },
        {
          "internalType": "bytes32",
          "name": "_pairCodeHash",
          "type": "bytes32"
        }
      ],
      "stateMutability": "nonpayable",
      "type": "constructor"
    },
    {
      "inputs": [
        {
          "internalType": "uint256",
          "name": "tokenOutId",
          "type": "uint256"
        },
        {
          "internalType": "uint256",
          "name": "shareOut",
          "type": "uint256"
        },
        {
          "internalType": "bytes",
          "name": "dexData",
          "type": "bytes"
        }
      ],
      "name": "getInputAmount",
      "outputs": [
        {
          "internalType": "uint256",
          "name": "amountIn",
          "type": "uint256"
        }
      ],
      "stateMutability": "view",
      "type": "function"
    },
    {
      "inputs": [
        {
          "internalType": "uint256",
          "name": "tokenInId",
          "type": "uint256"
        },
        {
          "internalType": "uint256",
          "name": "shareIn",
          "type": "uint256"
        },
        {
          "internalType": "bytes",
          "name": "dexData",
          "type": "bytes"
        }
      ],
      "name": "getOutputAmount",
      "outputs": [
        {
          "internalType": "uint256",
          "name": "amountOut",
          "type": "uint256"
        }
      ],
      "stateMutability": "view",
      "type": "function"
    },
    {
      "inputs": [
        {
          "internalType": "uint256",
          "name": "tokenInId",
          "type": "uint256"
        },
        {
          "internalType": "uint256",
          "name": "tokenOutId",
          "type": "uint256"
        },
        {
          "internalType": "uint256",
          "name": "shareIn",
          "type": "uint256"
        },
        {
          "internalType": "address",
          "name": "to",
          "type": "address"
        },
        {
          "internalType": "uint256",
          "name": "amountOutMin",
          "type": "uint256"
        },
        {
          "internalType": "bytes",
          "name": "dexData",
          "type": "bytes"
        }
      ],
      "name": "swap",
      "outputs": [
        {
          "internalType": "uint256",
          "name": "amountOut",
          "type": "uint256"
        },
        {
          "internalType": "uint256",
          "name": "shareOut",
          "type": "uint256"
        }
      ],
      "stateMutability": "nonpayable",
      "type": "function"
    }
  ],
  "bytecode": "0x60e0346100f857601f61143038819003918201601f19168301916001600160401b038311848410176100fd578084926060946040528339810103126100f8578051906001600160a01b039081831683036100f857602081015191821682036100f857604001519160805260a05260c05260405161131c9081610114823960805181818160c601528181610430015281816104ee01528181610681015281816106cb0152610b1a015260a0518181816092015281816103d601528181610857015281816108e90152610ac0015260c05181818160e80152818161040d015281816104bd0152818161064f015281816106a90152610af80152f35b600080fd5b634e487b7160e01b600052604160045260246000fdfe6080604052600436101561001257600080fd5b60003560e01c8063532bb19214610a7f57806355a68e10146103445763c6fe95491461003d57600080fd5b3461032c5761005a61004e36610bbc565b81949293940190610c2d565b6040519263442c159960e01b84526004840152602491828401526044906000828501526020926064926001600160a01b0385878681847f0000000000000000000000000000000000000000000000000000000000000000165afa96871561033857600097610304575b507f0000000000000000000000000000000000000000000000000000000000000000947f0000000000000000000000000000000000000000000000000000000000000000610115600287511015610e7e565b61011f8651610eca565b968751996000199a8b81019081116102ef5761013b908a610cc4565b5286518a810190811161021057805b61016157896101588a610cb7565b51604051908152f35b8a81018181116102ef57610191848a8861018886826101808886610cc4565b511693610cc4565b511690866110c7565b61019b848d610cc4565b51918215610285576101c283826101c79315158061027c575b6101bd90611194565b6112a9565b611226565b91810390811161026757906101de6101e49261128a565b90611206565b90600182019182811161026757821061022557610201908b610cc4565b528015610210578a018061014a565b86634e487b7160e01b60005260116004526000fd5b60405162461bcd60e51b8152600481018d90526014818b01527f64732d6d6174682d6164642d6f766572666c6f77000000000000000000000000818a01528690fd5b89634e487b7160e01b60005260116004526000fd5b508415156101b4565b505060405162461bcd60e51b8152600481018d9052602c818b01527f556e697377617056324c6962726172793a20494e53554646494349454e545f4f818a01527f55545055545f414d4f554e54000000000000000000000000000000000000000081880152608490fd5b87634e487b7160e01b60005260116004526000fd5b9096508581813d8311610331575b61031c8183610bf3565b8101031261032c575195386100c3565b600080fd5b503d610312565b6040513d6000823e3d90fd5b3461032c5760c036600319011261032c576064356001600160a01b038116810361032c5760a43567ffffffffffffffff811161032c5761038b610393913690600401610b8e565b810190610c2d565b604051906311a5cc7760e31b8252600435600483015230602483015230604483015260006064830152604435608483015260408260a48160006001600160a01b037f0000000000000000000000000000000000000000000000000000000000000000165af191821561033857600092610a5d575b506104547f000000000000000000000000000000000000000000000000000000000000000082847f0000000000000000000000000000000000000000000000000000000000000000610efc565b928351806000198101116107ea57610470906000190185610cc4565b51926084358410610a18576001600160a01b0361048c84610cb7565b51166001600160a01b0361049f85610cb7565b511690845160011015610a02576000928361054761055561051283967f0000000000000000000000000000000000000000000000000000000000000000906001600160a01b0360408d015116907f0000000000000000000000000000000000000000000000000000000000000000610ddc565b60405163a9059cbb60e01b602082019081526001600160a01b0390921660248201526044810195909552939182906064820190565b03601f198101835282610bf3565b51925af13d156109fb573d67ffffffffffffffff81116107bc5760405190610587601f8201601f191660200183610bf3565b81523d6000602083013e5b816109cc575b50156109875760005b825160001981019081116107ea5781101561081b576001600160a01b036105c88285610cc4565b5116906001810181116107ea576001600160a01b036105ea6001830186610cc4565b5116916105f78382610d15565b50926001600160a01b0361060e600185018a610cc4565b519416820361081357600093915b8651806001198101116107ea5760011901841015610800576002840184116107ea576106ef6001600160a01b03916106a57f00000000000000000000000000000000000000000000000000000000000000008461067c60028a018d610cc4565b5116867f0000000000000000000000000000000000000000000000000000000000000000610ddc565b935b7f0000000000000000000000000000000000000000000000000000000000000000917f0000000000000000000000000000000000000000000000000000000000000000610ddc565b16916040519182602081011067ffffffffffffffff6020850111176107bc576020830160405260008352833b1561032c5760405163022c0d9f60e01b8152600481019690965260248601919091526001600160a01b0316604485015260806064850152805160848501819052849160005b8281106107d25750509181600060a482868383819984010152601f801991011681010301925af18015610338576107a1575b61079c9150610d06565b6105a1565b67ffffffffffffffff82116107bc5761079c91604052610792565b634e487b7160e01b600052604160045260246000fd5b602082820181015160a4898401015287945001610760565b634e487b7160e01b600052601160045260246000fd5b6106ef6001600160a01b039130936106a7565b60009161061c565b50925080519060001982019182116107ea576001600160a01b039161083f91610cc4565b5160405163095ea7b360e01b81526001600160a01b037f0000000000000000000000000000000000000000000000000000000000000000166004820152602481018490529160209183916044918391600091165af1801561033857610958575b506001600160a01b0360405192634d4d7cbd60e11b845260243560048501523060248501521660448301528060648301526000608483015260408260a48160006001600160a01b037f0000000000000000000000000000000000000000000000000000000000000000165af1801561033857604092600091610929575b5082519182526020820152f35b6109499150833d8511610951575b6109418183610bf3565b810190610cd8565b90508361091c565b503d610937565b6109799060203d602011610980575b6109718183610bf3565b810190610cee565b508261089f565b503d610967565b60405162461bcd60e51b815260206004820152601c60248201527f426f72696e6745524332303a205472616e73666572206661696c6564000000006044820152606490fd5b80518015925082156109e1575b505085610598565b6109f49250602080918301019101610cee565b85806109d9565b6060610592565b634e487b7160e01b600052603260045260246000fd5b60405162461bcd60e51b815260206004820152601760248201527f696e73756666696369656e742d616d6f756e742d6f75740000000000000000006044820152606490fd5b610a7791925060403d604011610951576109418183610bf3565b509083610407565b3461032c57610a9061004e36610bbc565b906040519263442c159960e01b845260048401526024830152600060448301526020826064816001600160a01b037f0000000000000000000000000000000000000000000000000000000000000000165afa90811561033857600091610b59575b610b3e92507f0000000000000000000000000000000000000000000000000000000000000000917f0000000000000000000000000000000000000000000000000000000000000000610efc565b80516000198101919082116107ea5760209161015891610cc4565b90506020823d8211610b86575b81610b7360209383610bf3565b8101031261032c57610b3e915190610af1565b3d9150610b66565b9181601f8401121561032c5782359167ffffffffffffffff831161032c576020838186019501011161032c57565b606060031982011261032c5760043591602435916044359067ffffffffffffffff821161032c57610bef91600401610b8e565b9091565b90601f8019910116810190811067ffffffffffffffff8211176107bc57604052565b67ffffffffffffffff81116107bc5760051b60200190565b602090818184031261032c5780359067ffffffffffffffff821161032c57019180601f8401121561032c578235610c6381610c15565b93610c716040519586610bf3565b818552838086019260051b82010192831161032c578301905b828210610c98575050505090565b81356001600160a01b038116810361032c578152908301908301610c8a565b805115610a025760200190565b8051821015610a025760209160051b010190565b919082604091031261032c576020825192015190565b9081602091031261032c5751801515810361032c5790565b60001981146107ea5760010190565b90916001600160a01b0391828416838216818114610d89571015610d8457925b91831615610d3f57565b60405162461bcd60e51b815260206004820152601e60248201527f556e697377617056324c6962726172793a205a45524f5f4144445245535300006044820152606490fd5b610d35565b60405162461bcd60e51b815260206004820152602560248201527f556e697377617056324c6962726172793a204944454e544943414c5f41444452604482015264455353455360d81b6064820152608490fd5b91610de691610d15565b929060405160208101916bffffffffffffffffffffffff199586809260601b16845260601b16603482015260288152606081019267ffffffffffffffff95828510878611176107bc5760e093856040528351902090608084019660ff60f81b885260601b166081840152609583015260b5820152605583520192818410908411176107bc576001600160a01b03926040525190201690565b15610e8557565b60405162461bcd60e51b815260206004820152601e60248201527f556e697377617056324c6962726172793a20494e56414c49445f5041544800006044820152606490fd5b90610ed482610c15565b610ee16040519182610bf3565b8281528092610ef2601f1991610c15565b0190602036910137565b9392919091610f0f600283511015610e7e565b610f198251610eca565b92610f2384610cb7565b5260005b825160001981019081116107ea578110156110a5576001600160a01b039081610f508286610cc4565b511660018201928383116107ea57610f77918591610f6e8689610cc4565b5116908a6110c7565b610f848388959395610cc4565b51801561103a57610fb3610fac610fb99287151580611031575b610fa790611194565b61128a565b92836112a9565b94611226565b908101908181116107ea578110610fec57610fda610fe191610fe795611206565b9187610cc4565b52610d06565b610f27565b60405162461bcd60e51b815260206004820152601460248201527f64732d6d6174682d6164642d6f766572666c6f770000000000000000000000006044820152606490fd5b50841515610f9e565b60405162461bcd60e51b815260206004820152602b60248201527f556e697377617056324c6962726172793a20494e53554646494349454e545f4960448201527f4e5055545f414d4f554e540000000000000000000000000000000000000000006064820152608490fd5b5050509150565b51906dffffffffffffffffffffffffffff8216820361032c57565b606082916110ee600495966110dc8886610d15565b50976001600160a01b03958694610ddc565b1660405194858092630240bc6b60e21b82525afa928315610338576000908194611139575b5081906dffffffffffffffffffffffffffff80911694169416911614600014610bef5791565b93506060843d821161118c575b8161115360609383610bf3565b8101031261118957611164846110ac565b906040611173602087016110ac565b95015163ffffffff811603611189575081611113565b80fd5b3d9150611146565b1561119b57565b60405162461bcd60e51b815260206004820152602860248201527f556e697377617056324c6962726172793a20494e53554646494349454e545f4c60448201527f49515549444954590000000000000000000000000000000000000000000000006064820152608490fd5b8115611210570490565b634e487b7160e01b600052601260045260246000fd5b906103e891828102928184048114821517156107ea5783040361124557565b60405162461bcd60e51b815260206004820152601460248201527f64732d6d6174682d6d756c2d6f766572666c6f770000000000000000000000006044820152606490fd5b906103e591828102928184048114821517156107ea5783040361124557565b6000929180159182156112c0575b50501561124557565b808202945091508115828504821417156107ea576112de9084611206565b1438806112b756fea264697066735822122038ad6f86d207fa5899eb904fbbbd0c83bf87ae0c21e83507138d72441137300464736f6c63430008120033",
  "linkReferences": {},
  "deployedLinkReferences": {}
}