{
  "_format": "hh-sol-artifact-1",
  "contractName": "SGLInterestHelper",
  "sourceName": "contracts/markets/singularity/SGLInterestHelper.sol",
  "abi": [
    {
      "inputs": [
        {
          "components": [
            {
              "internalType": "contract IYieldBox",
              "name": "yieldBox",
              "type": "address"
            },
            {
              "components": [
                {
                  "internalType": "uint64",
                  "name": "interestPerSecond",
                  "type": "uint64"
                },
                {
                  "internalType": "uint64",
                  "name": "lastAccrued",
                  "type": "uint64"
                },
                {
                  "internalType": "uint128",
                  "name": "feesEarnedFraction",
                  "type": "uint128"
                }
              ],
              "internalType": "struct ISingularity.AccrueInfo",
              "name": "accrueInfo",
              "type": "tuple"
            },
            {
              "internalType": "uint256",
              "name": "assetId",
              "type": "uint256"
            },
            {
              "components": [
                {
                  "internalType": "uint128",
                  "name": "elastic",
                  "type": "uint128"
                },
                {
                  "internalType": "uint128",
                  "name": "base",
                  "type": "uint128"
                }
              ],
              "internalType": "struct Rebase",
              "name": "totalAsset",
              "type": "tuple"
            },
            {
              "components": [
                {
                  "internalType": "uint128",
                  "name": "elastic",
                  "type": "uint128"
                },
                {
                  "internalType": "uint128",
                  "name": "base",
                  "type": "uint128"
                }
              ],
              "internalType": "struct Rebase",
              "name": "totalBorrow",
              "type": "tuple"
            },
            {
              "internalType": "uint256",
              "name": "protocolFee",
              "type": "uint256"
            },
            {
              "internalType": "uint256",
              "name": "interestElasticity",
              "type": "uint256"
            },
            {
              "internalType": "uint256",
              "name": "minimumTargetUtilization",
              "type": "uint256"
            },
            {
              "internalType": "uint256",
              "name": "maximumTargetUtilization",
              "type": "uint256"
            },
            {
              "internalType": "uint64",
              "name": "minimumInterestPerSecond",
              "type": "uint64"
            },
            {
              "internalType": "uint64",
              "name": "maximumInterestPerSecond",
              "type": "uint64"
            },
            {
              "internalType": "uint64",
              "name": "startingInterestPerSecond",
              "type": "uint64"
            }
          ],
          "internalType": "struct ISGLInterestHelper.InterestRateCall",
          "name": "data",
          "type": "tuple"
        }
      ],
      "name": "getInterestRate",
      "outputs": [
        {
          "components": [
            {
              "internalType": "uint64",
              "name": "interestPerSecond",
              "type": "uint64"
            },
            {
              "internalType": "uint64",
              "name": "lastAccrued",
              "type": "uint64"
            },
            {
              "internalType": "uint128",
              "name": "feesEarnedFraction",
              "type": "uint128"
            }
          ],
          "internalType": "struct ISingularity.AccrueInfo",
          "name": "_accrueInfo",
          "type": "tuple"
        },
        {
          "components": [
            {
              "internalType": "uint128",
              "name": "elastic",
              "type": "uint128"
            },
            {
              "internalType": "uint128",
              "name": "base",
              "type": "uint128"
            }
          ],
          "internalType": "struct Rebase",
          "name": "_totalBorrow",
          "type": "tuple"
        },
        {
          "components": [
            {
              "internalType": "uint128",
              "name": "elastic",
              "type": "uint128"
            },
            {
              "internalType": "uint128",
              "name": "base",
              "type": "uint128"
            }
          ],
          "internalType": "struct Rebase",
          "name": "_totalAsset",
          "type": "tuple"
        },
        {
          "internalType": "uint256",
          "name": "extraAmount",
          "type": "uint256"
        },
        {
          "internalType": "uint256",
          "name": "feeFraction",
          "type": "uint256"
        },
        {
          "internalType": "uint256",
          "name": "utilization",
          "type": "uint256"
        }
      ],
      "stateMutability": "view",
      "type": "function"
    }
  ],
  "bytecode": "0x608060405234801561001057600080fd5b50610c44806100206000396000f3fe608060405234801561001057600080fd5b506004361061002b5760003560e01c80633aebf79714610030575b600080fd5b61004361003e366004610993565b61005e565b60405161005596959493929190610a66565b60405180910390f35b604080516060808201835260008083526020808401829052928401819052835180850185528181528301819052835180850185528181528301819052918401516080850151918501518251865187870151835197517f442c159900000000000000000000000000000000000000000000000000000000815260048101919091526fffffffffffffffffffffffffffffffff978816602482015260448101879052939694959294929384938493849391169173ffffffffffffffffffffffffffffffffffffffff9091169063442c159990606401602060405180830381865afa15801561014e573d6000803e3d6000fd5b505050506040513d601f19601f820116820180604052508101906101729190610b18565b61017c9190610b60565b905080156101bc57855181906101ad90670de0b6b3a7640000906fffffffffffffffffffffffffffffffff16610b79565b6101b79190610b90565b6101bf565b60005b91506000876020015167ffffffffffffffff16426101dd9190610bcb565b90508060000361020457505060808701516060880151909550935060009250829150610678565b61020d42610681565b67ffffffffffffffff166020808a01919091528701516fffffffffffffffffffffffffffffffff166000036102885788610160015167ffffffffffffffff16886000015167ffffffffffffffff16146102735761016089015167ffffffffffffffff1688525b50506060870151935060009250829150610678565b87518751670de0b6b3a76400009183916102be9167ffffffffffffffff16906fffffffffffffffffffffffffffffffff16610b79565b6102c89190610b79565b6102d29190610b90565b94506102dd85610724565b875188906102ec908390610bde565b6fffffffffffffffffffffffffffffffff90811690915288518b516040808e01518b5191517f442c1599000000000000000000000000000000000000000000000000000000008152600481019190915290841660248201526000604482015291909216925073ffffffffffffffffffffffffffffffffffffffff9091169063442c159990606401602060405180830381865afa158015610390573d6000803e3d6000fd5b505050506040513d601f19601f820116820180604052508101906103b49190610b18565b6103be9190610b60565b91506000620186a08a60a00151876103d69190610b79565b6103e09190610b90565b90506103ec8184610bcb565b602088015161040d906fffffffffffffffffffffffffffffffff1683610b79565b6104179190610b90565b945061042285610724565b896040018181516104339190610bde565b6fffffffffffffffffffffffffffffffff1690525061045185610724565b87602001516104609190610bde565b6fffffffffffffffffffffffffffffffff16602088015282156104b557875183906104a690670de0b6b3a7640000906fffffffffffffffffffffffffffffffff16610b79565b6104b09190610b90565b6104b8565b60005b93508960e001518410156105875760e08a01516000906104d88682610bcb565b6104ea90670de0b6b3a7640000610b79565b6104f49190610b90565b90506000836105038380610b79565b61050d9190610b79565b8c60c0015161051c9190610b60565b905061054f818d60c001518d6000015167ffffffffffffffff166105409190610b79565b61054a9190610b90565b610681565b67ffffffffffffffff908116808d526101208e01519091161115610580576101208c015167ffffffffffffffff168b525b5050610674565b8961010001518411156106745760008a6101000151670de0b6b3a76400006105af9190610bcb565b6101008c01516105bf9087610bcb565b6105d190670de0b6b3a7640000610b79565b6105db9190610b90565b90506000836105ea8380610b79565b6105f49190610b79565b8c60c001516106039190610b60565b905060008c60c00151828d6000015167ffffffffffffffff166106269190610b79565b6106309190610b90565b90508c610140015167ffffffffffffffff1681111561065b57506101408c015167ffffffffffffffff165b61066481610681565b67ffffffffffffffff168c525050505b5050505b91939550919395565b600067ffffffffffffffff821115610720576040517f08c379a000000000000000000000000000000000000000000000000000000000815260206004820152602660248201527f53616665436173743a2076616c756520646f65736e27742066697420696e203660448201527f342062697473000000000000000000000000000000000000000000000000000060648201526084015b60405180910390fd5b5090565b60006fffffffffffffffffffffffffffffffff821115610720576040517f08c379a000000000000000000000000000000000000000000000000000000000815260206004820152602760248201527f53616665436173743a2076616c756520646f65736e27742066697420696e203160448201527f32382062697473000000000000000000000000000000000000000000000000006064820152608401610717565b604051610180810167ffffffffffffffff81118282101715610811577f4e487b7100000000000000000000000000000000000000000000000000000000600052604160045260246000fd5b60405290565b803573ffffffffffffffffffffffffffffffffffffffff8116811461083b57600080fd5b919050565b803567ffffffffffffffff8116811461083b57600080fd5b80356fffffffffffffffffffffffffffffffff8116811461083b57600080fd5b60006060828403121561088a57600080fd5b6040516060810181811067ffffffffffffffff821117156108d4577f4e487b7100000000000000000000000000000000000000000000000000000000600052604160045260246000fd5b6040529050806108e383610840565b81526108f160208401610840565b602082015261090260408401610858565b60408201525092915050565b60006040828403121561092057600080fd5b6040516040810181811067ffffffffffffffff8211171561096a577f4e487b7100000000000000000000000000000000000000000000000000000000600052604160045260246000fd5b60405290508061097983610858565b815261098760208401610858565b60208201525092915050565b600061020082840312156109a657600080fd5b6109ae6107c6565b6109b783610817565b81526109c68460208501610878565b6020820152608083013560408201526109e28460a0850161090e565b60608201526109f48460e0850161090e565b60808201526101208084013560a08301526101408085013560c08401526101608086013560e0850152610180860135610100850152610a366101a08701610840565b83850152610a476101c08701610840565b82850152610a586101e08701610840565b908401525090949350505050565b60006101408201905067ffffffffffffffff8089511683528060208a0151166020840152506fffffffffffffffffffffffffffffffff6040890151166040830152610ad3606083018880516fffffffffffffffffffffffffffffffff908116835260209182015116910152565b85516fffffffffffffffffffffffffffffffff90811660a084015260208701511660c08301528460e08301528361010083015282610120830152979650505050505050565b600060208284031215610b2a57600080fd5b5051919050565b7f4e487b7100000000000000000000000000000000000000000000000000000000600052601160045260246000fd5b80820180821115610b7357610b73610b31565b92915050565b8082028115828204841417610b7357610b73610b31565b600082610bc6577f4e487b7100000000000000000000000000000000000000000000000000000000600052601260045260246000fd5b500490565b81810381811115610b7357610b73610b31565b6fffffffffffffffffffffffffffffffff818116838216019080821115610c0757610c07610b31565b509291505056fea2646970667358221220be36170d9d254432527d577ae57633bf13978f64d6de0f97f2fececa109db23464736f6c63430008160033",
  "linkReferences": {},
  "deployedLinkReferences": {}
}