{
  "_format": "hh-sol-artifact-1",
  "contractName": "TapiocaOFT",
  "sourceName": "contracts/tOFT/TapiocaOFT.sol",
  "abi": [
    {
      "inputs": [
        {
          "internalType": "address",
          "name": "_lzEndpoint",
          "type": "address"
        },
        {
          "internalType": "address",
          "name": "_erc20",
          "type": "address"
        },
        {
          "internalType": "contract IYieldBoxBase",
          "name": "_yieldBox",
          "type": "address"
        },
        {
          "internalType": "string",
          "name": "_name",
          "type": "string"
        },
        {
          "internalType": "string",
          "name": "_symbol",
          "type": "string"
        },
        {
          "internalType": "uint8",
          "name": "_decimal",
          "type": "uint8"
        },
        {
          "internalType": "uint256",
          "name": "_hostChainID",
          "type": "uint256"
        },
        {
          "internalType": "address payable",
          "name": "_leverageModule",
          "type": "address"
        },
        {
          "internalType": "address payable",
          "name": "_strategyModule",
          "type": "address"
        },
        {
          "internalType": "address payable",
          "name": "_marketModule",
          "type": "address"
        }
      ],
      "stateMutability": "nonpayable",
      "type": "constructor"
    },
    {
      "anonymous": false,
      "inputs": [
        {
          "indexed": true,
          "internalType": "address",
          "name": "owner",
          "type": "address"
        },
        {
          "indexed": true,
          "internalType": "address",
          "name": "spender",
          "type": "address"
        },
        {
          "indexed": false,
          "internalType": "uint256",
          "name": "value",
          "type": "uint256"
        }
      ],
      "name": "Approval",
      "type": "event"
    },
    {
      "anonymous": false,
      "inputs": [
        {
          "indexed": true,
          "internalType": "uint16",
          "name": "_srcChainId",
          "type": "uint16"
        },
        {
          "indexed": false,
          "internalType": "bytes",
          "name": "_srcAddress",
          "type": "bytes"
        },
        {
          "indexed": false,
          "internalType": "uint64",
          "name": "_nonce",
          "type": "uint64"
        },
        {
          "indexed": false,
          "internalType": "bytes32",
          "name": "_hash",
          "type": "bytes32"
        }
      ],
      "name": "CallOFTReceivedSuccess",
      "type": "event"
    },
    {
      "anonymous": false,
      "inputs": [
        {
          "indexed": false,
          "internalType": "uint16",
          "name": "_srcChainId",
          "type": "uint16"
        },
        {
          "indexed": false,
          "internalType": "bytes",
          "name": "_srcAddress",
          "type": "bytes"
        },
        {
          "indexed": false,
          "internalType": "uint64",
          "name": "_nonce",
          "type": "uint64"
        },
        {
          "indexed": false,
          "internalType": "bytes",
          "name": "_payload",
          "type": "bytes"
        },
        {
          "indexed": false,
          "internalType": "bytes",
          "name": "_reason",
          "type": "bytes"
        }
      ],
      "name": "MessageFailed",
      "type": "event"
    },
    {
      "anonymous": false,
      "inputs": [
        {
          "indexed": false,
          "internalType": "address",
          "name": "_address",
          "type": "address"
        }
      ],
      "name": "NonContractAddress",
      "type": "event"
    },
    {
      "anonymous": false,
      "inputs": [
        {
          "indexed": true,
          "internalType": "address",
          "name": "previousOwner",
          "type": "address"
        },
        {
          "indexed": true,
          "internalType": "address",
          "name": "newOwner",
          "type": "address"
        }
      ],
      "name": "OwnershipTransferred",
      "type": "event"
    },
    {
      "anonymous": false,
      "inputs": [
        {
          "indexed": true,
          "internalType": "uint16",
          "name": "_srcChainId",
          "type": "uint16"
        },
        {
          "indexed": true,
          "internalType": "address",
          "name": "_to",
          "type": "address"
        },
        {
          "indexed": false,
          "internalType": "uint256",
          "name": "_amount",
          "type": "uint256"
        }
      ],
      "name": "ReceiveFromChain",
      "type": "event"
    },
    {
      "anonymous": false,
      "inputs": [
        {
          "indexed": false,
          "internalType": "uint16",
          "name": "_srcChainId",
          "type": "uint16"
        },
        {
          "indexed": false,
          "internalType": "bytes",
          "name": "_srcAddress",
          "type": "bytes"
        },
        {
          "indexed": false,
          "internalType": "uint64",
          "name": "_nonce",
          "type": "uint64"
        },
        {
          "indexed": false,
          "internalType": "bytes32",
          "name": "_payloadHash",
          "type": "bytes32"
        }
      ],
      "name": "RetryMessageSuccess",
      "type": "event"
    },
    {
      "anonymous": false,
      "inputs": [
        {
          "indexed": true,
          "internalType": "uint16",
          "name": "_dstChainId",
          "type": "uint16"
        },
        {
          "indexed": true,
          "internalType": "address",
          "name": "_from",
          "type": "address"
        },
        {
          "indexed": true,
          "internalType": "bytes32",
          "name": "_toAddress",
          "type": "bytes32"
        },
        {
          "indexed": false,
          "internalType": "uint256",
          "name": "_amount",
          "type": "uint256"
        }
      ],
      "name": "SendToChain",
      "type": "event"
    },
    {
      "anonymous": false,
      "inputs": [
        {
          "indexed": false,
          "internalType": "uint16",
          "name": "_dstChainId",
          "type": "uint16"
        },
        {
          "indexed": false,
          "internalType": "uint16",
          "name": "_type",
          "type": "uint16"
        },
        {
          "indexed": false,
          "internalType": "uint256",
          "name": "_minDstGas",
          "type": "uint256"
        }
      ],
      "name": "SetMinDstGas",
      "type": "event"
    },
    {
      "anonymous": false,
      "inputs": [
        {
          "indexed": false,
          "internalType": "address",
          "name": "precrime",
          "type": "address"
        }
      ],
      "name": "SetPrecrime",
      "type": "event"
    },
    {
      "anonymous": false,
      "inputs": [
        {
          "indexed": false,
          "internalType": "uint16",
          "name": "_remoteChainId",
          "type": "uint16"
        },
        {
          "indexed": false,
          "internalType": "bytes",
          "name": "_path",
          "type": "bytes"
        }
      ],
      "name": "SetTrustedRemote",
      "type": "event"
    },
    {
      "anonymous": false,
      "inputs": [
        {
          "indexed": false,
          "internalType": "uint16",
          "name": "_remoteChainId",
          "type": "uint16"
        },
        {
          "indexed": false,
          "internalType": "bytes",
          "name": "_remoteAddress",
          "type": "bytes"
        }
      ],
      "name": "SetTrustedRemoteAddress",
      "type": "event"
    },
    {
      "anonymous": false,
      "inputs": [
        {
          "indexed": false,
          "internalType": "bool",
          "name": "_useCustomAdapterParams",
          "type": "bool"
        }
      ],
      "name": "SetUseCustomAdapterParams",
      "type": "event"
    },
    {
      "anonymous": false,
      "inputs": [
        {
          "indexed": true,
          "internalType": "address",
          "name": "from",
          "type": "address"
        },
        {
          "indexed": true,
          "internalType": "address",
          "name": "to",
          "type": "address"
        },
        {
          "indexed": false,
          "internalType": "uint256",
          "name": "value",
          "type": "uint256"
        }
      ],
      "name": "Transfer",
      "type": "event"
    },
    {
      "inputs": [],
      "name": "DEFAULT_PAYLOAD_SIZE_LIMIT",
      "outputs": [
        {
          "internalType": "uint256",
          "name": "",
          "type": "uint256"
        }
      ],
      "stateMutability": "view",
      "type": "function"
    },
    {
      "inputs": [],
      "name": "DOMAIN_SEPARATOR",
      "outputs": [
        {
          "internalType": "bytes32",
          "name": "",
          "type": "bytes32"
        }
      ],
      "stateMutability": "view",
      "type": "function"
    },
    {
      "inputs": [],
      "name": "NO_EXTRA_GAS",
      "outputs": [
        {
          "internalType": "uint256",
          "name": "",
          "type": "uint256"
        }
      ],
      "stateMutability": "view",
      "type": "function"
    },
    {
      "inputs": [],
      "name": "PT_SEND",
      "outputs": [
        {
          "internalType": "uint8",
          "name": "",
          "type": "uint8"
        }
      ],
      "stateMutability": "view",
      "type": "function"
    },
    {
      "inputs": [],
      "name": "PT_SEND_AND_CALL",
      "outputs": [
        {
          "internalType": "uint8",
          "name": "",
          "type": "uint8"
        }
      ],
      "stateMutability": "view",
      "type": "function"
    },
    {
      "inputs": [
        {
          "internalType": "address",
          "name": "owner",
          "type": "address"
        },
        {
          "internalType": "address",
          "name": "spender",
          "type": "address"
        }
      ],
      "name": "allowance",
      "outputs": [
        {
          "internalType": "uint256",
          "name": "",
          "type": "uint256"
        }
      ],
      "stateMutability": "view",
      "type": "function"
    },
    {
      "inputs": [
        {
          "internalType": "address",
          "name": "spender",
          "type": "address"
        },
        {
          "internalType": "uint256",
          "name": "amount",
          "type": "uint256"
        }
      ],
      "name": "approve",
      "outputs": [
        {
          "internalType": "bool",
          "name": "",
          "type": "bool"
        }
      ],
      "stateMutability": "nonpayable",
      "type": "function"
    },
    {
      "inputs": [
        {
          "internalType": "address",
          "name": "account",
          "type": "address"
        }
      ],
      "name": "balanceOf",
      "outputs": [
        {
          "internalType": "uint256",
          "name": "",
          "type": "uint256"
        }
      ],
      "stateMutability": "view",
      "type": "function"
    },
    {
      "inputs": [
        {
          "internalType": "uint16",
          "name": "_srcChainId",
          "type": "uint16"
        },
        {
          "internalType": "bytes",
          "name": "_srcAddress",
          "type": "bytes"
        },
        {
          "internalType": "uint64",
          "name": "_nonce",
          "type": "uint64"
        },
        {
          "internalType": "bytes32",
          "name": "_from",
          "type": "bytes32"
        },
        {
          "internalType": "address",
          "name": "_to",
          "type": "address"
        },
        {
          "internalType": "uint256",
          "name": "_amount",
          "type": "uint256"
        },
        {
          "internalType": "bytes",
          "name": "_payload",
          "type": "bytes"
        },
        {
          "internalType": "uint256",
          "name": "_gasForCall",
          "type": "uint256"
        }
      ],
      "name": "callOnOFTReceived",
      "outputs": [],
      "stateMutability": "nonpayable",
      "type": "function"
    },
    {
      "inputs": [],
      "name": "circulatingSupply",
      "outputs": [
        {
          "internalType": "uint256",
          "name": "",
          "type": "uint256"
        }
      ],
      "stateMutability": "view",
      "type": "function"
    },
    {
      "inputs": [
        {
          "internalType": "uint16",
          "name": "",
          "type": "uint16"
        },
        {
          "internalType": "bytes",
          "name": "",
          "type": "bytes"
        },
        {
          "internalType": "uint64",
          "name": "",
          "type": "uint64"
        }
      ],
      "name": "creditedPackets",
      "outputs": [
        {
          "internalType": "bool",
          "name": "",
          "type": "bool"
        }
      ],
      "stateMutability": "view",
      "type": "function"
    },
    {
      "inputs": [],
      "name": "decimals",
      "outputs": [
        {
          "internalType": "uint8",
          "name": "",
          "type": "uint8"
        }
      ],
      "stateMutability": "view",
      "type": "function"
    },
    {
      "inputs": [
        {
          "internalType": "address",
          "name": "spender",
          "type": "address"
        },
        {
          "internalType": "uint256",
          "name": "subtractedValue",
          "type": "uint256"
        }
      ],
      "name": "decreaseAllowance",
      "outputs": [
        {
          "internalType": "bool",
          "name": "",
          "type": "bool"
        }
      ],
      "stateMutability": "nonpayable",
      "type": "function"
    },
    {
      "inputs": [],
      "name": "erc20",
      "outputs": [
        {
          "internalType": "address",
          "name": "",
          "type": "address"
        }
      ],
      "stateMutability": "view",
      "type": "function"
    },
    {
      "inputs": [
        {
          "internalType": "uint16",
          "name": "_dstChainId",
          "type": "uint16"
        },
        {
          "internalType": "bytes32",
          "name": "_toAddress",
          "type": "bytes32"
        },
        {
          "internalType": "uint256",
          "name": "_amount",
          "type": "uint256"
        },
        {
          "internalType": "bytes",
          "name": "_payload",
          "type": "bytes"
        },
        {
          "internalType": "uint64",
          "name": "_dstGasForCall",
          "type": "uint64"
        },
        {
          "internalType": "bool",
          "name": "_useZro",
          "type": "bool"
        },
        {
          "internalType": "bytes",
          "name": "_adapterParams",
          "type": "bytes"
        }
      ],
      "name": "estimateSendAndCallFee",
      "outputs": [
        {
          "internalType": "uint256",
          "name": "nativeFee",
          "type": "uint256"
        },
        {
          "internalType": "uint256",
          "name": "zroFee",
          "type": "uint256"
        }
      ],
      "stateMutability": "view",
      "type": "function"
    },
    {
      "inputs": [
        {
          "internalType": "uint16",
          "name": "_dstChainId",
          "type": "uint16"
        },
        {
          "internalType": "bytes32",
          "name": "_toAddress",
          "type": "bytes32"
        },
        {
          "internalType": "uint256",
          "name": "_amount",
          "type": "uint256"
        },
        {
          "internalType": "bool",
          "name": "_useZro",
          "type": "bool"
        },
        {
          "internalType": "bytes",
          "name": "_adapterParams",
          "type": "bytes"
        }
      ],
      "name": "estimateSendFee",
      "outputs": [
        {
          "internalType": "uint256",
          "name": "nativeFee",
          "type": "uint256"
        },
        {
          "internalType": "uint256",
          "name": "zroFee",
          "type": "uint256"
        }
      ],
      "stateMutability": "view",
      "type": "function"
    },
    {
      "inputs": [
        {
          "internalType": "uint16",
          "name": "",
          "type": "uint16"
        },
        {
          "internalType": "bytes",
          "name": "",
          "type": "bytes"
        },
        {
          "internalType": "uint64",
          "name": "",
          "type": "uint64"
        }
      ],
      "name": "failedMessages",
      "outputs": [
        {
          "internalType": "bytes32",
          "name": "",
          "type": "bytes32"
        }
      ],
      "stateMutability": "view",
      "type": "function"
    },
    {
      "inputs": [
        {
          "internalType": "uint16",
          "name": "_srcChainId",
          "type": "uint16"
        },
        {
          "internalType": "bytes",
          "name": "_srcAddress",
          "type": "bytes"
        }
      ],
      "name": "forceResumeReceive",
      "outputs": [],
      "stateMutability": "nonpayable",
      "type": "function"
    },
    {
      "inputs": [
        {
          "internalType": "uint16",
          "name": "_version",
          "type": "uint16"
        },
        {
          "internalType": "uint16",
          "name": "_chainId",
          "type": "uint16"
        },
        {
          "internalType": "address",
          "name": "",
          "type": "address"
        },
        {
          "internalType": "uint256",
          "name": "_configType",
          "type": "uint256"
        }
      ],
      "name": "getConfig",
      "outputs": [
        {
          "internalType": "bytes",
          "name": "",
          "type": "bytes"
        }
      ],
      "stateMutability": "view",
      "type": "function"
    },
    {
      "inputs": [
        {
          "internalType": "uint16",
          "name": "_remoteChainId",
          "type": "uint16"
        }
      ],
      "name": "getTrustedRemoteAddress",
      "outputs": [
        {
          "internalType": "bytes",
          "name": "",
          "type": "bytes"
        }
      ],
      "stateMutability": "view",
      "type": "function"
    },
    {
      "inputs": [],
      "name": "hostChainID",
      "outputs": [
        {
          "internalType": "uint256",
          "name": "",
          "type": "uint256"
        }
      ],
      "stateMutability": "view",
      "type": "function"
    },
    {
      "inputs": [
        {
          "internalType": "address",
          "name": "spender",
          "type": "address"
        },
        {
          "internalType": "uint256",
          "name": "addedValue",
          "type": "uint256"
        }
      ],
      "name": "increaseAllowance",
      "outputs": [
        {
          "internalType": "bool",
          "name": "",
          "type": "bool"
        }
      ],
      "stateMutability": "nonpayable",
      "type": "function"
    },
    {
      "inputs": [
        {
          "internalType": "uint16",
          "name": "_srcChainId",
          "type": "uint16"
        },
        {
          "internalType": "bytes",
          "name": "_srcAddress",
          "type": "bytes"
        }
      ],
      "name": "isTrustedRemote",
      "outputs": [
        {
          "internalType": "bool",
          "name": "",
          "type": "bool"
        }
      ],
      "stateMutability": "view",
      "type": "function"
    },
    {
      "inputs": [],
      "name": "leverageModule",
      "outputs": [
        {
          "internalType": "contract BaseTOFTLeverageModule",
          "name": "",
          "type": "address"
        }
      ],
      "stateMutability": "view",
      "type": "function"
    },
    {
      "inputs": [],
      "name": "lzEndpoint",
      "outputs": [
        {
          "internalType": "contract ILayerZeroEndpoint",
          "name": "",
          "type": "address"
        }
      ],
      "stateMutability": "view",
      "type": "function"
    },
    {
      "inputs": [
        {
          "internalType": "uint16",
          "name": "_srcChainId",
          "type": "uint16"
        },
        {
          "internalType": "bytes",
          "name": "_srcAddress",
          "type": "bytes"
        },
        {
          "internalType": "uint64",
          "name": "_nonce",
          "type": "uint64"
        },
        {
          "internalType": "bytes",
          "name": "_payload",
          "type": "bytes"
        }
      ],
      "name": "lzReceive",
      "outputs": [],
      "stateMutability": "nonpayable",
      "type": "function"
    },
    {
      "inputs": [],
      "name": "marketModule",
      "outputs": [
        {
          "internalType": "contract BaseTOFTMarketModule",
          "name": "",
          "type": "address"
        }
      ],
      "stateMutability": "view",
      "type": "function"
    },
    {
      "inputs": [
        {
          "internalType": "uint16",
          "name": "",
          "type": "uint16"
        },
        {
          "internalType": "uint16",
          "name": "",
          "type": "uint16"
        }
      ],
      "name": "minDstGasLookup",
      "outputs": [
        {
          "internalType": "uint256",
          "name": "",
          "type": "uint256"
        }
      ],
      "stateMutability": "view",
      "type": "function"
    },
    {
      "inputs": [],
      "name": "name",
      "outputs": [
        {
          "internalType": "string",
          "name": "",
          "type": "string"
        }
      ],
      "stateMutability": "view",
      "type": "function"
    },
    {
      "inputs": [
        {
          "internalType": "uint16",
          "name": "_srcChainId",
          "type": "uint16"
        },
        {
          "internalType": "bytes",
          "name": "_srcAddress",
          "type": "bytes"
        },
        {
          "internalType": "uint64",
          "name": "_nonce",
          "type": "uint64"
        },
        {
          "internalType": "bytes",
          "name": "_payload",
          "type": "bytes"
        }
      ],
      "name": "nonblockingLzReceive",
      "outputs": [],
      "stateMutability": "nonpayable",
      "type": "function"
    },
    {
      "inputs": [
        {
          "internalType": "address",
          "name": "owner",
          "type": "address"
        }
      ],
      "name": "nonces",
      "outputs": [
        {
          "internalType": "uint256",
          "name": "",
          "type": "uint256"
        }
      ],
      "stateMutability": "view",
      "type": "function"
    },
    {
      "inputs": [],
      "name": "owner",
      "outputs": [
        {
          "internalType": "address",
          "name": "",
          "type": "address"
        }
      ],
      "stateMutability": "view",
      "type": "function"
    },
    {
      "inputs": [
        {
          "internalType": "uint16",
          "name": "",
          "type": "uint16"
        }
      ],
      "name": "payloadSizeLimitLookup",
      "outputs": [
        {
          "internalType": "uint256",
          "name": "",
          "type": "uint256"
        }
      ],
      "stateMutability": "view",
      "type": "function"
    },
    {
      "inputs": [
        {
          "internalType": "address",
          "name": "owner",
          "type": "address"
        },
        {
          "internalType": "address",
          "name": "spender",
          "type": "address"
        },
        {
          "internalType": "uint256",
          "name": "value",
          "type": "uint256"
        },
        {
          "internalType": "uint256",
          "name": "deadline",
          "type": "uint256"
        },
        {
          "internalType": "uint8",
          "name": "v",
          "type": "uint8"
        },
        {
          "internalType": "bytes32",
          "name": "r",
          "type": "bytes32"
        },
        {
          "internalType": "bytes32",
          "name": "s",
          "type": "bytes32"
        }
      ],
      "name": "permit",
      "outputs": [],
      "stateMutability": "nonpayable",
      "type": "function"
    },
    {
      "inputs": [],
      "name": "precrime",
      "outputs": [
        {
          "internalType": "address",
          "name": "",
          "type": "address"
        }
      ],
      "stateMutability": "view",
      "type": "function"
    },
    {
      "inputs": [
        {
          "internalType": "address",
          "name": "from",
          "type": "address"
        },
        {
          "internalType": "address",
          "name": "to",
          "type": "address"
        },
        {
          "internalType": "uint16",
          "name": "lzDstChainId",
          "type": "uint16"
        },
        {
          "components": [
            {
              "internalType": "bool",
              "name": "withdraw",
              "type": "bool"
            },
            {
              "internalType": "uint256",
              "name": "withdrawLzFeeAmount",
              "type": "uint256"
            },
            {
              "internalType": "bool",
              "name": "withdrawOnOtherChain",
              "type": "bool"
            },
            {
              "internalType": "uint16",
              "name": "withdrawLzChainId",
              "type": "uint16"
            },
            {
              "internalType": "bytes",
              "name": "withdrawAdapterParams",
              "type": "bytes"
            }
          ],
          "internalType": "struct ITapiocaOFT.IWithdrawParams",
          "name": "withdrawParams",
          "type": "tuple"
        },
        {
          "components": [
            {
              "internalType": "uint256",
              "name": "extraGasLimit",
              "type": "uint256"
            },
            {
              "internalType": "address",
              "name": "zroPaymentAddress",
              "type": "address"
            }
          ],
          "internalType": "struct ITapiocaOFT.ISendOptions",
          "name": "options",
          "type": "tuple"
        },
        {
          "components": [
            {
              "internalType": "uint256",
              "name": "share",
              "type": "uint256"
            },
            {
              "internalType": "address",
              "name": "marketHelper",
              "type": "address"
            },
            {
              "internalType": "address",
              "name": "market",
              "type": "address"
            }
          ],
          "internalType": "struct ITapiocaOFT.IRemoveParams",
          "name": "removeParams",
          "type": "tuple"
        },
        {
          "components": [
            {
              "internalType": "bool",
              "name": "allowFailure",
              "type": "bool"
            },
            {
              "internalType": "address",
              "name": "target",
              "type": "address"
            },
            {
              "internalType": "bool",
              "name": "permitBorrow",
              "type": "bool"
            },
            {
              "internalType": "address",
              "name": "owner",
              "type": "address"
            },
            {
              "internalType": "address",
              "name": "spender",
              "type": "address"
            },
            {
              "internalType": "uint256",
              "name": "value",
              "type": "uint256"
            },
            {
              "internalType": "uint256",
              "name": "deadline",
              "type": "uint256"
            },
            {
              "internalType": "uint8",
              "name": "v",
              "type": "uint8"
            },
            {
              "internalType": "bytes32",
              "name": "r",
              "type": "bytes32"
            },
            {
              "internalType": "bytes32",
              "name": "s",
              "type": "bytes32"
            }
          ],
          "internalType": "struct ITapiocaOFT.IApproval[]",
          "name": "approvals",
          "type": "tuple[]"
        }
      ],
      "name": "removeCollateral",
      "outputs": [],
      "stateMutability": "payable",
      "type": "function"
    },
    {
      "inputs": [],
      "name": "renounceOwnership",
      "outputs": [],
      "stateMutability": "nonpayable",
      "type": "function"
    },
    {
      "inputs": [
        {
          "internalType": "address",
          "name": "from",
          "type": "address"
        },
        {
          "internalType": "uint256",
          "name": "amount",
          "type": "uint256"
        },
        {
          "internalType": "uint256",
          "name": "share",
          "type": "uint256"
        },
        {
          "internalType": "uint256",
          "name": "assetId",
          "type": "uint256"
        },
        {
          "internalType": "uint16",
          "name": "lzDstChainId",
          "type": "uint16"
        },
        {
          "internalType": "address",
          "name": "zroPaymentAddress",
          "type": "address"
        },
        {
          "internalType": "bytes",
          "name": "airdropAdapterParam",
          "type": "bytes"
        }
      ],
      "name": "retrieveFromStrategy",
      "outputs": [],
      "stateMutability": "payable",
      "type": "function"
    },
    {
      "inputs": [
        {
          "internalType": "uint16",
          "name": "_srcChainId",
          "type": "uint16"
        },
        {
          "internalType": "bytes",
          "name": "_srcAddress",
          "type": "bytes"
        },
        {
          "internalType": "uint64",
          "name": "_nonce",
          "type": "uint64"
        },
        {
          "internalType": "bytes",
          "name": "_payload",
          "type": "bytes"
        }
      ],
      "name": "retryMessage",
      "outputs": [],
      "stateMutability": "payable",
      "type": "function"
    },
    {
      "inputs": [
        {
          "internalType": "address",
          "name": "_from",
          "type": "address"
        },
        {
          "internalType": "uint16",
          "name": "_dstChainId",
          "type": "uint16"
        },
        {
          "internalType": "bytes32",
          "name": "_toAddress",
          "type": "bytes32"
        },
        {
          "internalType": "uint256",
          "name": "_amount",
          "type": "uint256"
        },
        {
          "internalType": "bytes",
          "name": "_payload",
          "type": "bytes"
        },
        {
          "internalType": "uint64",
          "name": "_dstGasForCall",
          "type": "uint64"
        },
        {
          "components": [
            {
              "internalType": "address payable",
              "name": "refundAddress",
              "type": "address"
            },
            {
              "internalType": "address",
              "name": "zroPaymentAddress",
              "type": "address"
            },
            {
              "internalType": "bytes",
              "name": "adapterParams",
              "type": "bytes"
            }
          ],
          "internalType": "struct ICommonOFT.LzCallParams",
          "name": "_callParams",
          "type": "tuple"
        }
      ],
      "name": "sendAndCall",
      "outputs": [],
      "stateMutability": "payable",
      "type": "function"
    },
    {
      "inputs": [
        {
          "internalType": "uint256",
          "name": "amount",
          "type": "uint256"
        },
        {
          "internalType": "address",
          "name": "leverageFor",
          "type": "address"
        },
        {
          "components": [
            {
              "internalType": "uint256",
              "name": "srcExtraGasLimit",
              "type": "uint256"
            },
            {
              "internalType": "uint16",
              "name": "lzSrcChainId",
              "type": "uint16"
            },
            {
              "internalType": "uint16",
              "name": "lzDstChainId",
              "type": "uint16"
            },
            {
              "internalType": "address",
              "name": "zroPaymentAddress",
              "type": "address"
            },
            {
              "internalType": "bytes",
              "name": "dstAirdropAdapterParam",
              "type": "bytes"
            },
            {
              "internalType": "bytes",
              "name": "srcAirdropAdapterParam",
              "type": "bytes"
            },
            {
              "internalType": "address",
              "name": "refundAddress",
              "type": "address"
            }
          ],
          "internalType": "struct IUSDOBase.ILeverageLZData",
          "name": "lzData",
          "type": "tuple"
        },
        {
          "components": [
            {
              "internalType": "address",
              "name": "tokenOut",
              "type": "address"
            },
            {
              "internalType": "uint256",
              "name": "amountOutMin",
              "type": "uint256"
            },
            {
              "internalType": "bytes",
              "name": "data",
              "type": "bytes"
            }
          ],
          "internalType": "struct IUSDOBase.ILeverageSwapData",
          "name": "swapData",
          "type": "tuple"
        },
        {
          "components": [
            {
              "internalType": "address",
              "name": "swapper",
              "type": "address"
            },
            {
              "internalType": "address",
              "name": "magnetar",
              "type": "address"
            },
            {
              "internalType": "address",
              "name": "tOft",
              "type": "address"
            },
            {
              "internalType": "address",
              "name": "srcMarket",
              "type": "address"
            }
          ],
          "internalType": "struct IUSDOBase.ILeverageExternalContractsData",
          "name": "externalData",
          "type": "tuple"
        }
      ],
      "name": "sendForLeverage",
      "outputs": [],
      "stateMutability": "payable",
      "type": "function"
    },
    {
      "inputs": [
        {
          "internalType": "address",
          "name": "_from",
          "type": "address"
        },
        {
          "internalType": "uint16",
          "name": "_dstChainId",
          "type": "uint16"
        },
        {
          "internalType": "bytes32",
          "name": "_toAddress",
          "type": "bytes32"
        },
        {
          "internalType": "uint256",
          "name": "_amount",
          "type": "uint256"
        },
        {
          "components": [
            {
              "internalType": "address payable",
              "name": "refundAddress",
              "type": "address"
            },
            {
              "internalType": "address",
              "name": "zroPaymentAddress",
              "type": "address"
            },
            {
              "internalType": "bytes",
              "name": "adapterParams",
              "type": "bytes"
            }
          ],
          "internalType": "struct ICommonOFT.LzCallParams",
          "name": "_callParams",
          "type": "tuple"
        }
      ],
      "name": "sendFrom",
      "outputs": [],
      "stateMutability": "payable",
      "type": "function"
    },
    {
      "inputs": [
        {
          "internalType": "address",
          "name": "from",
          "type": "address"
        },
        {
          "internalType": "address",
          "name": "to",
          "type": "address"
        },
        {
          "internalType": "uint256",
          "name": "amount",
          "type": "uint256"
        },
        {
          "internalType": "uint256",
          "name": "share",
          "type": "uint256"
        },
        {
          "internalType": "uint256",
          "name": "assetId",
          "type": "uint256"
        },
        {
          "internalType": "uint16",
          "name": "lzDstChainId",
          "type": "uint16"
        },
        {
          "components": [
            {
              "internalType": "uint256",
              "name": "extraGasLimit",
              "type": "uint256"
            },
            {
              "internalType": "address",
              "name": "zroPaymentAddress",
              "type": "address"
            }
          ],
          "internalType": "struct ITapiocaOFT.ISendOptions",
          "name": "options",
          "type": "tuple"
        }
      ],
      "name": "sendToStrategy",
      "outputs": [],
      "stateMutability": "payable",
      "type": "function"
    },
    {
      "inputs": [
        {
          "internalType": "address",
          "name": "from",
          "type": "address"
        },
        {
          "internalType": "address",
          "name": "to",
          "type": "address"
        },
        {
          "internalType": "uint16",
          "name": "lzDstChainId",
          "type": "uint16"
        },
        {
          "internalType": "bytes",
          "name": "airdropAdapterParams",
          "type": "bytes"
        },
        {
          "components": [
            {
              "internalType": "uint256",
              "name": "amount",
              "type": "uint256"
            },
            {
              "internalType": "uint256",
              "name": "borrowAmount",
              "type": "uint256"
            },
            {
              "internalType": "address",
              "name": "marketHelper",
              "type": "address"
            },
            {
              "internalType": "address",
              "name": "market",
              "type": "address"
            }
          ],
          "internalType": "struct ITapiocaOFT.IBorrowParams",
          "name": "borrowParams",
          "type": "tuple"
        },
        {
          "components": [
            {
              "internalType": "bool",
              "name": "withdraw",
              "type": "bool"
            },
            {
              "internalType": "uint256",
              "name": "withdrawLzFeeAmount",
              "type": "uint256"
            },
            {
              "internalType": "bool",
              "name": "withdrawOnOtherChain",
              "type": "bool"
            },
            {
              "internalType": "uint16",
              "name": "withdrawLzChainId",
              "type": "uint16"
            },
            {
              "internalType": "bytes",
              "name": "withdrawAdapterParams",
              "type": "bytes"
            }
          ],
          "internalType": "struct ITapiocaOFT.IWithdrawParams",
          "name": "withdrawParams",
          "type": "tuple"
        },
        {
          "components": [
            {
              "internalType": "uint256",
              "name": "extraGasLimit",
              "type": "uint256"
            },
            {
              "internalType": "address",
              "name": "zroPaymentAddress",
              "type": "address"
            }
          ],
          "internalType": "struct ITapiocaOFT.ISendOptions",
          "name": "options",
          "type": "tuple"
        },
        {
          "components": [
            {
              "internalType": "bool",
              "name": "allowFailure",
              "type": "bool"
            },
            {
              "internalType": "address",
              "name": "target",
              "type": "address"
            },
            {
              "internalType": "bool",
              "name": "permitBorrow",
              "type": "bool"
            },
            {
              "internalType": "address",
              "name": "owner",
              "type": "address"
            },
            {
              "internalType": "address",
              "name": "spender",
              "type": "address"
            },
            {
              "internalType": "uint256",
              "name": "value",
              "type": "uint256"
            },
            {
              "internalType": "uint256",
              "name": "deadline",
              "type": "uint256"
            },
            {
              "internalType": "uint8",
              "name": "v",
              "type": "uint8"
            },
            {
              "internalType": "bytes32",
              "name": "r",
              "type": "bytes32"
            },
            {
              "internalType": "bytes32",
              "name": "s",
              "type": "bytes32"
            }
          ],
          "internalType": "struct ITapiocaOFT.IApproval[]",
          "name": "approvals",
          "type": "tuple[]"
        }
      ],
      "name": "sendToYBAndBorrow",
      "outputs": [],
      "stateMutability": "payable",
      "type": "function"
    },
    {
      "inputs": [
        {
          "internalType": "uint16",
          "name": "_version",
          "type": "uint16"
        },
        {
          "internalType": "uint16",
          "name": "_chainId",
          "type": "uint16"
        },
        {
          "internalType": "uint256",
          "name": "_configType",
          "type": "uint256"
        },
        {
          "internalType": "bytes",
          "name": "_config",
          "type": "bytes"
        }
      ],
      "name": "setConfig",
      "outputs": [],
      "stateMutability": "nonpayable",
      "type": "function"
    },
    {
      "inputs": [
        {
          "internalType": "uint16",
          "name": "_dstChainId",
          "type": "uint16"
        },
        {
          "internalType": "uint16",
          "name": "_packetType",
          "type": "uint16"
        },
        {
          "internalType": "uint256",
          "name": "_minGas",
          "type": "uint256"
        }
      ],
      "name": "setMinDstGas",
      "outputs": [],
      "stateMutability": "nonpayable",
      "type": "function"
    },
    {
      "inputs": [
        {
          "internalType": "uint16",
          "name": "_dstChainId",
          "type": "uint16"
        },
        {
          "internalType": "uint256",
          "name": "_size",
          "type": "uint256"
        }
      ],
      "name": "setPayloadSizeLimit",
      "outputs": [],
      "stateMutability": "nonpayable",
      "type": "function"
    },
    {
      "inputs": [
        {
          "internalType": "address",
          "name": "_precrime",
          "type": "address"
        }
      ],
      "name": "setPrecrime",
      "outputs": [],
      "stateMutability": "nonpayable",
      "type": "function"
    },
    {
      "inputs": [
        {
          "internalType": "uint16",
          "name": "_version",
          "type": "uint16"
        }
      ],
      "name": "setReceiveVersion",
      "outputs": [],
      "stateMutability": "nonpayable",
      "type": "function"
    },
    {
      "inputs": [
        {
          "internalType": "uint16",
          "name": "_version",
          "type": "uint16"
        }
      ],
      "name": "setSendVersion",
      "outputs": [],
      "stateMutability": "nonpayable",
      "type": "function"
    },
    {
      "inputs": [
        {
          "internalType": "uint16",
          "name": "_srcChainId",
          "type": "uint16"
        },
        {
          "internalType": "bytes",
          "name": "_path",
          "type": "bytes"
        }
      ],
      "name": "setTrustedRemote",
      "outputs": [],
      "stateMutability": "nonpayable",
      "type": "function"
    },
    {
      "inputs": [
        {
          "internalType": "uint16",
          "name": "_remoteChainId",
          "type": "uint16"
        },
        {
          "internalType": "bytes",
          "name": "_remoteAddress",
          "type": "bytes"
        }
      ],
      "name": "setTrustedRemoteAddress",
      "outputs": [],
      "stateMutability": "nonpayable",
      "type": "function"
    },
    {
      "inputs": [
        {
          "internalType": "bool",
          "name": "_useCustomAdapterParams",
          "type": "bool"
        }
      ],
      "name": "setUseCustomAdapterParams",
      "outputs": [],
      "stateMutability": "nonpayable",
      "type": "function"
    },
    {
      "inputs": [],
      "name": "sharedDecimals",
      "outputs": [
        {
          "internalType": "uint8",
          "name": "",
          "type": "uint8"
        }
      ],
      "stateMutability": "view",
      "type": "function"
    },
    {
      "inputs": [],
      "name": "strategyModule",
      "outputs": [
        {
          "internalType": "contract BaseTOFTStrategyModule",
          "name": "",
          "type": "address"
        }
      ],
      "stateMutability": "view",
      "type": "function"
    },
    {
      "inputs": [
        {
          "internalType": "bytes4",
          "name": "interfaceId",
          "type": "bytes4"
        }
      ],
      "name": "supportsInterface",
      "outputs": [
        {
          "internalType": "bool",
          "name": "",
          "type": "bool"
        }
      ],
      "stateMutability": "view",
      "type": "function"
    },
    {
      "inputs": [],
      "name": "symbol",
      "outputs": [
        {
          "internalType": "string",
          "name": "",
          "type": "string"
        }
      ],
      "stateMutability": "view",
      "type": "function"
    },
    {
      "inputs": [],
      "name": "token",
      "outputs": [
        {
          "internalType": "address",
          "name": "",
          "type": "address"
        }
      ],
      "stateMutability": "view",
      "type": "function"
    },
    {
      "inputs": [],
      "name": "totalSupply",
      "outputs": [
        {
          "internalType": "uint256",
          "name": "",
          "type": "uint256"
        }
      ],
      "stateMutability": "view",
      "type": "function"
    },
    {
      "inputs": [
        {
          "internalType": "address",
          "name": "to",
          "type": "address"
        },
        {
          "internalType": "uint256",
          "name": "amount",
          "type": "uint256"
        }
      ],
      "name": "transfer",
      "outputs": [
        {
          "internalType": "bool",
          "name": "",
          "type": "bool"
        }
      ],
      "stateMutability": "nonpayable",
      "type": "function"
    },
    {
      "inputs": [
        {
          "internalType": "address",
          "name": "from",
          "type": "address"
        },
        {
          "internalType": "address",
          "name": "to",
          "type": "address"
        },
        {
          "internalType": "uint256",
          "name": "amount",
          "type": "uint256"
        }
      ],
      "name": "transferFrom",
      "outputs": [
        {
          "internalType": "bool",
          "name": "",
          "type": "bool"
        }
      ],
      "stateMutability": "nonpayable",
      "type": "function"
    },
    {
      "inputs": [
        {
          "internalType": "address",
          "name": "newOwner",
          "type": "address"
        }
      ],
      "name": "transferOwnership",
      "outputs": [],
      "stateMutability": "nonpayable",
      "type": "function"
    },
    {
      "inputs": [
        {
          "internalType": "uint16",
          "name": "",
          "type": "uint16"
        }
      ],
      "name": "trustedRemoteLookup",
      "outputs": [
        {
          "internalType": "bytes",
          "name": "",
          "type": "bytes"
        }
      ],
      "stateMutability": "view",
      "type": "function"
    },
    {
      "inputs": [
        {
          "internalType": "address",
          "name": "_toAddress",
          "type": "address"
        },
        {
          "internalType": "uint256",
          "name": "_amount",
          "type": "uint256"
        }
      ],
      "name": "unwrap",
      "outputs": [],
      "stateMutability": "nonpayable",
      "type": "function"
    },
    {
      "inputs": [],
      "name": "useCustomAdapterParams",
      "outputs": [
        {
          "internalType": "bool",
          "name": "",
          "type": "bool"
        }
      ],
      "stateMutability": "view",
      "type": "function"
    },
    {
      "inputs": [
        {
          "internalType": "address",
          "name": "_fromAddress",
          "type": "address"
        },
        {
          "internalType": "address",
          "name": "_toAddress",
          "type": "address"
        },
        {
          "internalType": "uint256",
          "name": "_amount",
          "type": "uint256"
        }
      ],
      "name": "wrap",
      "outputs": [],
      "stateMutability": "payable",
      "type": "function"
    },
    {
      "inputs": [],
      "name": "yieldBox",
      "outputs": [
        {
          "internalType": "contract IYieldBoxBase",
          "name": "",
          "type": "address"
        }
      ],
      "stateMutability": "view",
      "type": "function"
    },
    {
      "stateMutability": "payable",
      "type": "receive"
    }
  ],
  "bytecode": "0x6101a060405234620007ea57620059ab803803809162000022826101a0620007ef565b6101a0396101a0016101406101a0820312620007ea57620000456101a062000813565b90620000536101c062000813565b6101e051909290916001600160a01b0383168303620007ea57610200516001600160401b038111620007ea57816200008f916101a0016200084d565b6102205190916001600160401b038211620007ea57620000b3916101a0016200084d565b9060a06101a001519360ff85168503620007ea5761026051620000d861028062000813565b96620000e66102a062000813565b96620000f46102c062000813565b95604051956a546170696f63614f46542d60a81b602088015262000139602b88835162000128818484016020880162000828565b810103600b81018a520188620007ef565b6040805199908a01808b116001600160401b0390911117620005235760408a0160405260018a52603160f81b60208b0152620001af602b60405180946a546170696f63614f46542d60a81b60208301526200019e815180926020868601910162000828565b810103600b810185520183620007ef565b620001ea60216040518095601d60fa1b6020830152620001d9815180926020868601910162000828565b8101036001810186520184620007ef565b60008054336001600160a01b0319821681178355916001600160a01b03909116907f8be0079c531659141344cd1fd0a4f28419497f9722a3daafe3b4186f6b6457e09080a36001600160a01b0316608052600183901c607f1660a0528051906001600160401b0382116200052357600b5490600182811c92168015620007df575b6020831014620006b15781601f8493116200076d575b50602090601f8311600114620006de57600092620006d2575b50508160011b916000199060031b1c191617600b555b8051906001600160401b0382116200052357600c5490600182811c92168015620006c7575b6020831014620006b15781601f8493116200063f575b50602090601f8311600114620005b057600092620005a4575b50508160011b916000199060031b1c191617600c555b60ff62000326620008a8565b1680607f8360011c16116200054f57607f8260011c1690039160ff83116200053957604d60ff841611620005395760ff809316600a0a60c05260018060a01b031660018060a01b0319600e541617600e551660ff196010541617601055600f5560018060a01b031660018060a01b0319600d541617600d556020815191012091602081519101209282610140526101609484865246610100526040519460208601907f8b73c3c69bb8fe3d512ecc4cf759cc79239f7b179b0ffacaa9a75d522b39400f95868352604088015260608701524660808701523060a087015260a0865260c086019580871060018060401b038811176200052357604087905251902060e0523061012052610180938452601380546001600160a01b03199081166001600160a01b0393841617909155601480548216938316939093179092556015805490921692169190911790556150ec9283620008bf843960805183818161055e015281816108410152818161096901528181610b1801528181610d6c01528181611f7d0152818161215001528181612abc015281816142b2015261458e015260a0518361193b015260c05183818161472d0152818161485b01528181614acc0152614b66015260e051836131e7015261010051836132a2015261012051836131b8015261014051836132360152518261325c015251816132130152f35b634e487b7160e01b600052604160045260246000fd5b634e487b7160e01b600052601160045260246000fd5b60405162461bcd60e51b815260206004820152602760248201527f4f46543a20736861726564446563696d616c73206d757374206265203c3d20646044820152666563696d616c7360c81b6064820152608490fd5b01519050388062000304565b600c600090815293507fdf6966c971051c3d54ec59162606531493a51404a002842f56009d7e5cf4a8c791905b601f198416851062000623576001945083601f1981161062000609575b505050811b01600c556200031a565b015160001960f88460031b161c19169055388080620005fa565b81810151835560209485019460019093019290910190620005dd565b600c6000529091507fdf6966c971051c3d54ec59162606531493a51404a002842f56009d7e5cf4a8c7601f840160051c810160208510620006a9575b90849392915b601f830160051c8201811062000699575050620002eb565b6000815585945060010162000681565b50806200067b565b634e487b7160e01b600052602260045260246000fd5b91607f1691620002d5565b0151905038806200029a565b600b600090815293507f0175b7a638427703f0dbe7bb9bbf987a2551717b34e79f33b5b1008d1fa01db991905b601f198416851062000751576001945083601f1981161062000737575b505050811b01600b55620002b0565b015160001960f88460031b161c1916905538808062000728565b818101518355602094850194600190930192909101906200070b565b600b6000529091507f0175b7a638427703f0dbe7bb9bbf987a2551717b34e79f33b5b1008d1fa01db9601f840160051c810160208510620007d7575b90849392915b601f830160051c82018110620007c757505062000281565b60008155859450600101620007af565b5080620007a9565b91607f16916200026b565b600080fd5b601f909101601f19168101906001600160401b038211908210176200052357604052565b51906001600160a01b0382168203620007ea57565b60005b8381106200083c5750506000910152565b81810151838201526020016200082b565b81601f82011215620007ea5780516001600160401b03811162000523576040519262000884601f8301601f191660200185620007ef565b81845260208284010111620007ea57620008a5916020808501910162000828565b90565b60ff601054168015620008b85790565b5060129056fe6080604052600436101561001b575b361561001957600080fd5b005b60003560e01c80621d35671461043f57806254af3a1461043a57806301ffc9a71461043557806306fdde031461043057806307e0db171461042b578063095ea7b3146104265780630df374831461042157806310ddb1371461041c57806318160ddd1461039057806323b872dd14610417578063313ce567146104125780633644e5151461040d578063365260b414610408578063395093511461040357806339f47693146103fe5780633d8b38f6146103f95780633f1f4fa4146103f457806342d65a8d146103ef57806344770515146103e5578063479070ee146103ea5780634c42899a146103e55780635b8c41e6146103e057806362355638146103db57806366ad5c8a146103d6578063695ef6bf146103d157806370a08231146103cc578063715018a6146103c75780637533d788146103c257806376203b48146103bd578063785e9e86146103b8578063796fd43a146103b35780637ecebe00146103ae578063857749b0146103a95780638aec2834146103a45780638cc7f0ba1461039f5780638cfd8f5c1461039a5780638da5cb5b146103955780639358928b14610390578063950c8a741461038b57806395d89b41146103865780639bdb9812146103815780639f38369a1461037c578063a457c2d714610377578063a4c51df514610372578063a6c3d1651461036d578063a9059cbb14610368578063b353aaa714610363578063baf3292d1461035e578063c446183414610359578063c99549f314610354578063cbed8b9c1461034f578063cfd8b3d81461034a578063d1deba1f14610345578063d43f280214610340578063d505accf1461033b578063dd62ed3e14610336578063de40657714610331578063df2a5b3b1461032c578063e6a20ae614610327578063eab45d9c14610322578063eaffd49a1461031d578063eb8d72b714610318578063ed629c5c14610313578063f2fde38b1461030e578063f5b33dfa14610309578063f5ecbdbc146103045763fc0c546a0361000e57612b26565b612a5a565b612a33565b61296c565b612949565b6127ff565b61277a565b612718565b6126fc565b61260f565b6125e8565b61258c565b61242c565b61236a565b612207565b6121e0565b6120fc565b612070565b612014565b611fa1565b611f5d565b611f33565b611db0565b611d1d565b611c5e565b611bbf565b611b74565b611acd565b611aa6565b6109c0565b611a7f565b611a35565b611997565b61195f565b611921565b6118e3565b611763565b61172b565b6114d3565b611480565b61133a565b6112fc565b61120b565b611177565b6110b0565b611049565b610dcb565b610f10565b610d4a565b610d15565b610cb9565b610bf1565b610b8e565b610a8a565b610a52565b610a2c565b610a0a565b61093b565b610900565b6108cb565b610813565b61072e565b61067c565b61065e565b610541565b6004359061ffff8216820361045557565b600080fd5b6084359061ffff8216820361045557565b6024359061ffff8216820361045557565b60a4359061ffff8216820361045557565b6044359061ffff8216820361045557565b359061ffff8216820361045557565b9181601f84011215610455578235916001600160401b038311610455576020838186019501011161045557565b9060806003198301126104555760043561ffff8116810361045557916001600160401b03906024358281116104555781610516916004016104ad565b93909392604435818116810361045557926064359182116104555761053d916004016104ad565b9091565b346104555761054f366104da565b91929493906001600160a01b037f000000000000000000000000000000000000000000000000000000000000000016330361060e576105d36105db92610019976105cc6105b26105ad8a61ffff166000526001602052604060002090565b611465565b8051908184149182610604575b50816105e1575b50613d72565b3691610ebe565b923691610ebe565b92613e90565b90506105ee368486610ebe565b60208151910120906020815191012014386105c6565b15159150386105bf565b60405162461bcd60e51b815260206004820152601e60248201527f4c7a4170703a20696e76616c696420656e64706f696e742063616c6c657200006044820152606490fd5b600091031261045557565b34610455576000366003190112610455576020600f54604051908152f35b346104555760203660031901126104555760043563ffffffff60e01b811680910361045557602090631f7ecdf760e01b81149081156106c1575b506040519015158152f35b6301ffc9a760e01b149050386106b6565b60005b8381106106e55750506000910152565b81810151838201526020016106d5565b9060209161070e815180928185528580860191016106d2565b601f01601f1916010190565b90602061072b9281815201906106f5565b90565b3461045557600080600319360112610810576040519080600b5461075181611395565b808552916001918083169081156107e6575060011461078b575b6107878561077b81870382610e82565b6040519182918261071a565b0390f35b9250600b83527f0175b7a638427703f0dbe7bb9bbf987a2551717b34e79f33b5b1008d1fa01db95b8284106107ce57505050810160200161077b8261078761076b565b805460208587018101919091529093019281016107b3565b8695506107879693506020925061077b94915060ff191682840152151560051b820101929361076b565b80fd5b3461045557600060203660031901126108105761082e610444565b610836612b41565b816001600160a01b037f00000000000000000000000000000000000000000000000000000000000000001691823b156108a957602461ffff918360405195869485936307e0db1760e01b85521660048401525af180156108a457610898575080f35b6108a190610dfd565b80f35b613120565b5080fd5b6001600160a01b0381160361045557565b35906108c9826108ad565b565b34610455576040366003190112610455576108f56004356108eb816108ad565b6024359033612da8565b602060405160018152f35b346104555760403660031901126104555761ffff61091c610444565b610924612b41565b166000526003602052602435604060002055600080f35b34610455576000602036600319011261081057610956610444565b61095e612b41565b816001600160a01b037f00000000000000000000000000000000000000000000000000000000000000001691823b156108a957602461ffff918360405195869485936310ddb13760e01b85521660048401525af180156108a457610898575080f35b34610455576000366003190112610455576020600a54604051908152f35b6060906003190112610455576004356109f6816108ad565b90602435610a03816108ad565b9060443590565b34610455576108f5610a1b366109de565b91610a27833383612ed5565b612c8b565b34610455576000366003190112610455576020610a476132f9565b60ff60405191168152f35b34610455576000366003190112610455576020610a6d6131ae565b604051908152f35b8015150361045557565b35906108c982610a75565b346104555760a036600319011261045557610aa3610444565b60643590610ab082610a75565b608435906001600160401b03821161045557610ad56105cc60409336906004016104ad565b90610b0c610aef610ae7604435614aca565b602435614b9b565b928451958694859463040a7bb160e41b865230906004870161445a565b03816001600160a01b037f0000000000000000000000000000000000000000000000000000000000000000165afa9081156108a4576000908192610b5d575b50604080519182526020820192909252f35b9050610b80915060403d8111610b87575b610b788183610e82565b810190614444565b9038610b4b565b503d610b6e565b3461045557604036600319011261045557600435610bab816108ad565b336000526009602052610bd5816040600020906001600160a01b0316600052602052604060002090565b546024358101809111610bec576108f59133612da8565b612b99565b3461045557604036600319011261045557600435610c0e816108ad565b60243590610c1f600f5446146138f7565b610c298233613beb565b6001600160a01b0380600e5416908115600014610c4c5750509061001991613d26565b92610019936040519363a9059cbb60e01b6020860152166024840152604483015260448252610c7a82610e15565b613a3b565b9060406003198301126104555760043561ffff811681036104555791602435906001600160401b0382116104555761053d916004016104ad565b3461045557602061ffff610d06610ccf36610c7f565b9390911660005260018452610cf1610cf86040600020604051928380926113cf565b0382610e82565b848151910120923691610ebe565b82815191012014604051908152f35b346104555760203660031901126104555761ffff610d31610444565b1660005260036020526020604060002054604051908152f35b3461045557610d5836610c7f565b9190610d62612b41565b6001600160a01b037f00000000000000000000000000000000000000000000000000000000000000001691823b1561045557604051928380926342d65a8d60e01b825281610db96000988997889460048501613e03565b03925af180156108a457610898575080f35b3461045557600036600319011261045557602060405160008152f35b634e487b7160e01b600052604160045260246000fd5b6001600160401b038111610e1057604052565b610de7565b608081019081106001600160401b03821117610e1057604052565b61014081019081106001600160401b03821117610e1057604052565b60c081019081106001600160401b03821117610e1057604052565b604081019081106001600160401b03821117610e1057604052565b90601f801991011681019081106001600160401b03821117610e1057604052565b6001600160401b038111610e1057601f01601f191660200190565b929192610eca82610ea3565b91610ed86040519384610e82565b829481845281830111610455578281602093846000960137010152565b9080601f830112156104555781602061072b93359101610ebe565b60e036600319011261045557600435610f28816108ad565b610f3061045a565b9060a43590610f3e826108ad565b60c435926001600160401b03841161045557610fc661ffff93610fd493610f6c610019973690600401610ef5565b916040519687956323c8387760e11b60208801526001600160a01b0380941660248801526024356044880152604435606488015260643560848801521660a48601521660c484015260e060e48401526101048301906106f5565b03601f198101835282610e82565b613766565b60606003198201126104555760043561ffff8116810361045557916024356001600160401b03928382116104555761101391600401610ef5565b9160443590811681036104555790565b60209061103d9282604051948386809551938492016106d2565b82019081520301902090565b346104555760206110a761ffff6110868361106336610fd9565b9490911660005260058252604060002082604051948386809551938492016106d2565b820190815203019020906001600160401b0316600052602052604060002090565b54604051908152f35b6110b9366109de565b6110c6600f5446146138f7565b6001600160a01b0380600e54169081156000146110ea575050506100199150613bac565b849392931633810361110d575b5082611108916100199530916139ea565b61392f565b600052600960205282611137336040600020906001600160a01b0316600052602052604060002090565b541061114357386110f7565b60405162461bcd60e51b815260206004820152600c60248201526b1513d19517d85b1b1bddd95960a21b6044820152606490fd5b3461045557611185366104da565b91929493903033036111a9576105d36111a392610019973691610ebe565b92614012565b60405162461bcd60e51b815260206004820152602660248201527f4e6f6e626c6f636b696e674c7a4170703a2063616c6c6572206d7573742062656044820152650204c7a4170760d41b6064820152608490fd5b908160609103126104555790565b60a036600319011261045557600435611223816108ad565b61122b61046b565b604435916084356001600160401b03811161045557602061ffff6001600160a01b0361127c7fd81fc9b8523134ed613870ed029d6170cbb73aa6a6bc311b9a642689fb9df59a9436906004016111fd565b946112ef863561128b816108ad565b6112a96105cc878a01359961129f8b6108ad565b6040810190614228565b6112b3818b6149c7565b6112c86112c1606435614b64565b5085614d85565b986112d48a151561449f565b6112e66112e08b614aca565b8d614b9b565b9234938c614542565b60405195865216941692a4005b34610455576020366003190112610455576001600160a01b03600435611321816108ad565b1660005260086020526020604060002054604051908152f35b346104555760008060031936011261081057611354612b41565b80546001600160a01b03198116825581906001600160a01b03167f8be0079c531659141344cd1fd0a4f28419497f9722a3daafe3b4186f6b6457e08280a380f35b90600182811c921680156113c5575b60208310146113af57565b634e487b7160e01b600052602260045260246000fd5b91607f16916113a4565b90600092918054916113e083611395565b9182825260019384811690816000146114425750600114611402575b50505050565b90919394506000526020928360002092846000945b83861061142e5750505050010190388080806113fc565b805485870183015294019385908201611417565b9294505050602093945060ff191683830152151560051b010190388080806113fc565b906108c961147992604051938480926113cf565b0383610e82565b346104555760203660031901126104555761ffff61149c610444565b166000526001602052610787610cf16114bf6040600020604051928380926113cf565b6040519182916020835260208301906106f5565b60e0366003190112610455576004356114eb816108ad565b6114f361046b565b604435916001600160401b03608435818111610455576115179036906004016104ad565b92909160a435818116918282036104555760c435908111610455576115409036906004016111fd565b92611577843596611550886108ad565b61156f61156560208801359761129f896108ad565b9890923691610ebe565b963691610ebe565b9460ff600654166000146116895760228651106116445761163d96866020966112e66001600160a01b03966112ef958e6116168f6116037fd81fc9b8523134ed613870ed029d6170cbb73aa6a6bc311b9a642689fb9df59a9f9d61ffff9e8f906022015193166000528f600290526115fd60406000206001600052602052604060002090565b54612bcb565b9061160f821515614a1c565b1015614a68565b61162b611624606435614b64565b508a614d85565b9d8e61163881151561449f565b614aca565b9033614c2d565b60405162461bcd60e51b815260206004820152601c60248201527f4c7a4170703a20696e76616c69642061646170746572506172616d73000000006044820152606490fd5b91959480949350516116d7576112ef7fd81fc9b8523134ed613870ed029d6170cbb73aa6a6bc311b9a642689fb9df59a9560209561ffff956112e661163d9a6001600160a01b03978e611616565b60405162461bcd60e51b815260206004820152602660248201527f4f4654436f72653a205f61646170746572506172616d73206d7573742062652060448201526532b6b83a3c9760d11b6064820152608490fd5b346104555760003660031901126104555760206001600160a01b03600e5416604051908152f35b608090608319011261045557608490565b60031961010036820181136104555760243561177e816108ad565b604435906001600160401b03928383116104555760e0836004019584360301126104555760643593841161045557610fc66118d36118de94610019976118c26118b160c46118aa6117db6001600160a01b039c36906004016111fd565b946117e536611752565b996040519d8e9c8d6020633cb7ea1d60e11b9101528d60246004359101521660448d015260648c015280356101248c015261ffff8061182660248a0161049e565b166101448d01526118396044890161049e565b166101648c01526118626064880135611851816108ad565b6001600160a01b03166101848d0152565b61189661188b8c61020461187960848c018661330e565b91909260e06101a4820152019161333f565b9160a489019061330e565b8c830361012319016101c48e01529061333f565b94016108be565b6001600160a01b03166101e4880152565b8582036023190160848701526136a0565b9160a48401906136e4565b613821565b34610455576020366003190112610455576001600160a01b03600435611908816108ad565b1660005260116020526020604060002054604051908152f35b3461045557600036600319011261045557602060405160ff7f0000000000000000000000000000000000000000000000000000000000000000168152f35b346104555760003660031901126104555760206001600160a01b0360145416604051908152f35b60409060c31901126104555760c490565b610100366003190112610455576100196004356119b3816108ad565b611a27602435916119c3836108ad565b61ffff6119ce61047c565b6119d736611986565b9260405195634663f85d60e11b60208801526001600160a01b0380921660248801521660448601526044356064860152606435608486015260843560a48601521660c484015260e4830190613405565b6101048152610fd481610e30565b346104555760403660031901126104555760206110a7611a53610444565b61ffff611a5e61046b565b91166000526002835260406000209061ffff16600052602052604060002090565b346104555760003660031901126104555760206001600160a01b0360005416604051908152f35b346104555760003660031901126104555760206001600160a01b0360045416604051908152f35b3461045557600080600319360112610810576040519080600c54611af081611395565b808552916001918083169081156107e65750600114611b19576107878561077b81870382610e82565b9250600c83527fdf6966c971051c3d54ec59162606531493a51404a002842f56009d7e5cf4a8c75b828410611b5c57505050810160200161077b8261078761076b565b80546020858701810191909152909301928101611b41565b3461045557602060ff611bb361ffff61108684611b9036610fd9565b9490911660005260078252604060002082604051948386809551938492016106d2565b54166040519015158152f35b346104555760203660031901126104555761ffff611bdb610444565b166000526001602052610cf1611bfb6040600020604051928380926113cf565b805115611c195761077b81611c136107879351613e72565b90614e5f565b60405162461bcd60e51b815260206004820152601d60248201527f4c7a4170703a206e6f20747275737465642070617468207265636f72640000006044820152606490fd5b3461045557604036600319011261045557600435611c7b816108ad565b60243590336000526009602052611ca9816040600020906001600160a01b0316600052602052604060002090565b5491808310611cca57611cbe92039033612da8565b60405160018152602090f35b60405162461bcd60e51b815260206004820152602560248201527f45524332303a2064656372656173656420616c6c6f77616e63652062656c6f77604482015264207a65726f60d81b6064820152608490fd5b346104555760e036600319011261045557611d36610444565b6001600160401b039060643582811161045557611d579036906004016104ad565b60849291923584811681036104555760a43591611d7383610a75565b60c43595861161045557611d8e611d9e9636906004016104ad565b959094604435906024359061425a565b60408051928352602083019190915290f35b3461045557611dbe36610c7f565b90611dc7612b41565b60405192602092808385870137611df36034868381013060601b88820152036014810188520186610e82565b60009361ffff8316855260019081815260408620918751916001600160401b038311610e1057611e2d83611e278654611395565b86613e1e565b80601f8411600114611e9d575091808092611e8c9695948a9b7f8c0400cfe2d1199b1a725c78960bcc2a344d869b80590d0f2bd005db15a572ce9b94611e92575b50501b916000199060031b1c19161790555b60405193849384613e03565b0390a180f35b015192503880611e6e565b91939498601f198416611eb587600052602060002090565b938a905b828210611f1c575050917f8c0400cfe2d1199b1a725c78960bcc2a344d869b80590d0f2bd005db15a572ce999a95939185611e8c98969410611f03575b505050811b019055611e80565b015160001960f88460031b161c19169055388080611ef6565b808886978294978701518155019601940190611eb9565b34610455576040366003190112610455576108f5600435611f53816108ad565b6024359033612c8b565b346104555760003660031901126104555760206040516001600160a01b037f0000000000000000000000000000000000000000000000000000000000000000168152f35b34610455576020366003190112610455577f5db758e995a17ec1ad84bdef7e8c3293a0bd6179bcce400dff5d4c3d87db726b60206001600160a01b03600435611fe9816108ad565b611ff1612b41565b16806bffffffffffffffffffffffff60a01b6004541617600455604051908152a1005b346104555760003660031901126104555760206040516127108152f35b908160a09103126104555790565b9181601f84011215610455578235916001600160401b03831161045557602080850194610140850201011161045557565b61014036600319011261045557600435612089816108ad565b602435612095816108ad565b61209d61048d565b6001600160401b039290606435848111610455576120bf903690600401612031565b9060403660831901126104555760603660c31901126104555761012435948511610455576120f461001995369060040161203f565b949093613510565b3461045557608036600319011261045557612115610444565b61211d61046b565b6064356001600160401b0381116104555761213c9036906004016104ad565b9092612146612b41565b6001600160a01b037f00000000000000000000000000000000000000000000000000000000000000001690813b1561045557600080946121bd604051978896879586946332fb62e760e21b865261ffff8092166004870152166024850152604435604485015260806064850152608484019161333f565b03925af180156108a4576121cd57005b806121da61001992610dfd565b80610653565b346104555760003660031901126104555760206001600160a01b0360155416604051908152f35b612210366104da565b9161ffff8694929616600052600560205261225781604060002060206040518092878b833787820190815203019020906001600160401b0316600052602052604060002090565b549182156123195761230884836123017fc264d91f3adc5588250e1551f547752ca0cfa8f6b530d243b9f9f4cab10ea8e59a60006122ed846122d58e8a8f6123149f908f6122bb906122ae6122cf9436908d610ebe565b602081519101201461419b565b61ffff166000526005602052604060002090565b91614182565b906001600160401b0316600052602052604060002090565b556122f936878d610ebe565b933691610ebe565b9188614012565b604051958695866141f1565b0390a1005b60405162461bcd60e51b815260206004820152602360248201527f4e6f6e626c6f636b696e674c7a4170703a206e6f2073746f726564206d65737360448201526261676560e81b6064820152608490fd5b61018036600319011261045557600435612383816108ad565b60243561238f816108ad565b61239761048d565b6001600160401b039290606435848111610455576123b99036906004016104ad565b6123c236611752565b9161010435878111610455576123dc903690600401612031565b9360403661012319011261045557610164359788116104555761240661001998369060040161203f565b9790966135bf565b6084359060ff8216820361045557565b359060ff8216820361045557565b346104555760e036600319011261045557600435612449816108ad565b602435612455816108ad565b604435906064359261246561240e565b938042116125475761252f61254291612509610019976125176124a4876001600160a01b03166000526011602052604060002090815491600183019055565b9360405193849160208301968c8c8c8a91959493909260a09360c08401977f6e71edae12b1b97f4d1f60370fef10105fa2faae0126114a169c64845d6126c985526001600160a01b038092166020860152166040840152606083015260808201520152565b03601f198101845283610e82565b61252a60c4359360a435935190206132c8565b612fc5565b6001600160a01b03808416911614612f79565b612da8565b60405162461bcd60e51b815260206004820152601d60248201527f45524332305065726d69743a206578706972656420646561646c696e650000006044820152606490fd5b346104555760403660031901126104555760206110a76004356125ae816108ad565b6001600160a01b03602435916125c3836108ad565b16600052600983526040600020906001600160a01b0316600052602052604060002090565b346104555760003660031901126104555760206001600160a01b03600d5416604051908152f35b3461045557606036600319011261045557612628610444565b61263061046b565b6044359161263c612b41565b82156126b7576123147f9d5c7c0b934da8fefa9c7760c98383778a12dfbfc0c3b3106518f43fb9508ac09361ffff83166000526002602052806126918560406000209061ffff16600052602052604060002090565b556040519384938460409194939294606082019561ffff80921683521660208201520152565b60405162461bcd60e51b815260206004820152601560248201527f4c7a4170703a20696e76616c6964206d696e47617300000000000000000000006044820152606490fd5b3461045557600036600319011261045557602060405160018152f35b34610455576020366003190112610455577f1584ad594a70cbe1e6515592e1272a987d922b097ead875069cebe8b40c004a4602060043561275881610a75565b612760612b41565b151560ff196006541660ff821617600655604051908152a1005b346104555761010036600319011261045557612794610444565b6001600160401b0390602435828111610455576127b59036906004016104ad565b9190604435908482168203610455576084356127d0816108ad565b60c435958611610455576127eb6100199636906004016104ad565b94909360e4359660a4359460643593614350565b346104555761280d36610c7f565b9190612817612b41565b60009161ffff81168352600160209080825260408520916001600160401b038711610e10576128508761284a8554611395565b85613e1e565b8590601f88116001146128b75750918680879893611e8c957ffa41487ad5d6728f0b19276fa1eddc16558578f5109fc39d2dc33c3230470dab99936128ac575b501b906000198460031b1c191617905560405193849384613e03565b880135925038612890565b90601f1988166128cc85600052602060002090565b9288905b828210612932575050918893917ffa41487ad5d6728f0b19276fa1eddc16558578f5109fc39d2dc33c3230470dab9899611e8c969410612918575b505082811b019055611e80565b870135600019600386901b60f8161c19169055388061290b565b808685968294968c013581550195019301906128d0565b3461045557600036600319011261045557602060ff600654166040519015158152f35b3461045557602036600319011261045557600435612989816108ad565b612991612b41565b6001600160a01b0380911680156129df57600080546001600160a01b03198116831782559092167f8be0079c531659141344cd1fd0a4f28419497f9722a3daafe3b4186f6b6457e08380a380f35b60405162461bcd60e51b815260206004820152602660248201527f4f776e61626c653a206e6577206f776e657220697320746865207a65726f206160448201526564647265737360d01b6064820152608490fd5b346104555760003660031901126104555760206001600160a01b0360135416604051908152f35b3461045557608036600319011261045557612a73610444565b612a7b61046b565b90612a876044356108ad565b604051633d7b2f6f60e21b815261ffff91821660048201529116602482015230604482015260648035908201526000816084817f00000000000000000000000000000000000000000000000000000000000000006001600160a01b03165afa80156108a45761078791600091612b05575b506040519182918261071a565b612b20913d8091833e612b188183610e82565b810190613dcd565b38612af8565b34610455576000366003190112610455576020604051308152f35b6001600160a01b03600054163303612b5557565b606460405162461bcd60e51b815260206004820152602060248201527f4f776e61626c653a2063616c6c6572206973206e6f7420746865206f776e65726044820152fd5b634e487b7160e01b600052601160045260246000fd5b90601f8201809211610bec57565b6051019081605111610bec57565b91908201809211610bec57565b15612bdf57565b60405162461bcd60e51b815260206004820152602360248201527f45524332303a207472616e7366657220746f20746865207a65726f206164647260448201526265737360e81b6064820152608490fd5b15612c3757565b60405162461bcd60e51b815260206004820152602660248201527f45524332303a207472616e7366657220616d6f756e7420657863656564732062604482015265616c616e636560d01b6064820152608490fd5b91906001600160a01b0390818416928315612d5557612d3a827fddf252ad1be2c89b69c2b068fc378daa952ba7f163c4a11628f55a4df523b3ef94612d50941696612cd7881515612bd8565b612d2084612cf8836001600160a01b03166000526008602052604060002090565b54612d0582821015612c30565b03916001600160a01b03166000526008602052604060002090565b556001600160a01b03166000526008602052604060002090565b8054820190556040519081529081906020820190565b0390a3565b60405162461bcd60e51b815260206004820152602560248201527f45524332303a207472616e736665722066726f6d20746865207a65726f206164604482015264647265737360d81b6064820152608490fd5b906001600160a01b0391828116928315612e84578216938415612e345780612e237f8c5be1e5ebec7d5bd14f71427d1e84f3dd0314c0f7b2291e5b200ac8c7c3b92594612e0b612d50956001600160a01b03166000526009602052604060002090565b906001600160a01b0316600052602052604060002090565b556040519081529081906020820190565b60405162461bcd60e51b815260206004820152602260248201527f45524332303a20617070726f766520746f20746865207a65726f206164647265604482015261737360f01b6064820152608490fd5b60405162461bcd60e51b8152602060048201526024808201527f45524332303a20617070726f76652066726f6d20746865207a65726f206164646044820152637265737360e01b6064820152608490fd5b906001600160a01b0382166000526009602052612f09816040600020906001600160a01b0316600052602052604060002090565b549260018401612f195750505050565b808410612f3457612f2b930391612da8565b388080806113fc565b60405162461bcd60e51b815260206004820152601d60248201527f45524332303a20696e73756666696369656e7420616c6c6f77616e63650000006044820152606490fd5b15612f8057565b60405162461bcd60e51b815260206004820152601e60248201527f45524332305065726d69743a20696e76616c6964207369676e617475726500006044820152606490fd5b9161072b9391612fd49361312c565b919091612ffc565b60051115612fe657565b634e487b7160e01b600052602160045260246000fd5b61300581612fdc565b8061300d5750565b61301681612fdc565b600181036130675760405162461bcd60e51b815260206004820152601860248201527f45434453413a20696e76616c6964207369676e617475726500000000000000006044820152606490fd5b0390fd5b61307081612fdc565b600281036130bd5760405162461bcd60e51b815260206004820152601f60248201527f45434453413a20696e76616c6964207369676e6174757265206c656e677468006044820152606490fd5b806130c9600392612fdc565b146130d057565b60405162461bcd60e51b815260206004820152602260248201527f45434453413a20696e76616c6964207369676e6174757265202773272076616c604482015261756560f01b6064820152608490fd5b6040513d6000823e3d90fd5b9291907f7fffffffffffffffffffffffffffffff5d576e7357a4501ddfe92f46681b20a083116131a25791608094939160ff602094604051948552168484015260408301526060820152600093849182805260015afa156108a45781516001600160a01b0381161561319c579190565b50600190565b50505050600090600390565b6001600160a01b037f00000000000000000000000000000000000000000000000000000000000000001630148061329f575b15613209577f000000000000000000000000000000000000000000000000000000000000000090565b60405160208101907f000000000000000000000000000000000000000000000000000000000000000082527f000000000000000000000000000000000000000000000000000000000000000060408201527f000000000000000000000000000000000000000000000000000000000000000060608201524660808201523060a082015260a0815261329981610e4c565b51902090565b507f000000000000000000000000000000000000000000000000000000000000000046146131e0565b6132d06131ae565b9060405190602082019261190160f01b8452602283015260428201526042815261329981610e15565b60ff6010541680156133085790565b50601290565b9035601e19823603018112156104555701602081359101916001600160401b03821161045557813603831361045557565b908060209392818452848401376000828201840152601f01601f1916010190565b9060a06133b761072b93803561337581610a75565b1515845260208101356020850152604081013561339181610a75565b1515604085015261ffff6133a76060830161049e565b166060850152608081019061330e565b919092816080820152019161333f565b608435815260206001600160a01b0360a4356133e2816108ad565b16910152565b61012435815260206001600160a01b03610144356133e2816108ad565b6001600160a01b03602080928035855201356133e2816108ad565b9190808252602080920192916000905b82821061343e575050505090565b909192938061345860019261345288610a7f565b15159052565b6134756134668488016108be565b6001600160a01b031682850152565b61348d6040613485818901610a7f565b151590830152565b6134ac606061349d8189016108be565b6001600160a01b031690830152565b6134bc608061349d8189016108be565b60a0808701359082015260c080870135908201526134e960e06134e081890161241e565b60ff1690830152565b61010086810135908201526101208087013590820152610140908101950193920190613430565b9193906135bc95610fc6926135696135b79661ffff604051998a9863c99549f360e01b60208b01526001600160a01b03978880921660248c01521660448a01521660648801526101406084880152610164870190613360565b9261357660a487016133c7565b60c43560e487015260e43561358a816108ad565b816101049116818801523561359e816108ad565b1661012486015284830360231901610144860152613420565b6137f7565b50565b604051636a1f940160e11b60208201526001600160a01b039182166024820152918116604483015261ffff909216606482015261018060848201529687969590939092613611916101a489019161333f565b93803560a4880152602081013560c4880152816040820135613632816108ad565b1660e488015260600135613645816108ad565b1661010486015260231992838682030161012487015261366491613360565b9161367261014486016133e8565b8483030161018485015261368592613420565b03601f19810182526136979082610e82565b6135bc906137f7565b9060606136d461072b936001600160a01b0381356136bd816108ad565b16845260208101356020850152604081019061330e565b919092816040820152019161333f565b606090818135916136f4836108ad565b6001600160a01b038093168552826020820135613710816108ad565b166020860152826040820135613725816108ad565b16604086015201356133e2816108ad565b3d15613761573d9061374782610ea3565b916137556040519384610e82565b82523d6000602084013e565b606090565b6001600160a01b036014541680156137c457816000929160208493519201905af490613790613736565b911561379857565b6130636137a483613880565b60405162461bcd60e51b81526020600482015291829160248301906106f5565b60405162461bcd60e51b815260206004820152600b60248201526a544f46545f6d6f64756c6560a81b6044820152606490fd5b6001600160a01b036015541680156137c457816000929160208493519201905af490613790613736565b6001600160a01b036013541680156137c457816000929160208493519201905af490613790613736565b9092919261385881610ea3565b916138666040519384610e82565b8294828452828201116104555760206108c99301906106d2565b60448151106138d157600481015181019060208160248401930312610455576024810151906001600160401b0382116104555701908060438301121561045557602482015161072b9260440161384b565b506040516138de81610e67565b6009815268544f46545f6461746160b81b602082015290565b156138fe57565b60405162461bcd60e51b81526020600482015260096024820152681513d19517da1bdcdd60ba1b6044820152606490fd5b906001600160a01b0382169182156139a557600a5490828201809211610bec576000926139966020927fddf252ad1be2c89b69c2b068fc378daa952ba7f163c4a11628f55a4df523b3ef94600a556001600160a01b03166000526008602052604060002090565b818154019055604051908152a3565b60405162461bcd60e51b815260206004820152601f60248201527f45524332303a206d696e7420746f20746865207a65726f2061646472657373006044820152606490fd5b9290604051926323b872dd60e01b60208501526001600160a01b03809216602485015216604483015260648201526064815260a08101918183106001600160401b03841117610e10576108c9926040525b604051613a99916001600160a01b0316613a5482610e67565b6000806020958685527f5361666545524332303a206c6f772d6c6576656c2063616c6c206661696c656487860152868151910182855af1613a93613736565b91613b1b565b805180613aa557505050565b8183918101031261045557810151613abc81610a75565b15613ac45750565b6084906040519062461bcd60e51b82526004820152602a60248201527f5361666545524332303a204552433230206f7065726174696f6e20646964206e6044820152691bdd081cdd58d8d9595960b21b6064820152fd5b91929015613b7d5750815115613b2f575090565b3b15613b385790565b60405162461bcd60e51b815260206004820152601d60248201527f416464726573733a2063616c6c20746f206e6f6e2d636f6e74726163740000006044820152606490fd5b825190915015613b905750805190602001fd5b60405162461bcd60e51b8152908190613063906004830161071a565b3415613bbd576108c990349061392f565b60405162461bcd60e51b81526020600482015260066024820152650544f46545f360d41b6044820152606490fd5b6001600160a01b038116908115613cd757613c19816001600160a01b03166000526008602052604060002090565b54838110613c8757837fddf252ad1be2c89b69c2b068fc378daa952ba7f163c4a11628f55a4df523b3ef92613c69600096612d509403916001600160a01b03166000526008602052604060002090565b55613c7781600a5403600a55565b6040519081529081906020820190565b60405162461bcd60e51b815260206004820152602260248201527f45524332303a206275726e20616d6f756e7420657863656564732062616c616e604482015261636560f01b6064820152608490fd5b60405162461bcd60e51b815260206004820152602160248201527f45524332303a206275726e2066726f6d20746865207a65726f206164647265736044820152607360f81b6064820152608490fd5b600080809381935af1613d37613736565b5015613d3f57565b60405162461bcd60e51b815260206004820152600b60248201526a1513d19517d9985a5b195960aa1b6044820152606490fd5b15613d7957565b60405162461bcd60e51b815260206004820152602660248201527f4c7a4170703a20696e76616c696420736f757263652073656e64696e6720636f6044820152651b9d1c9858dd60d21b6064820152608490fd5b602081830312610455578051906001600160401b03821161045557019080601f8301121561045557815161072b9260200161384b565b60409061ffff61072b9593168152816020820152019161333f565b90601f8111613e2c57505050565b600091825260208220906020601f850160051c83019410613e68575b601f0160051c01915b828110613e5d57505050565b818155600101613e51565b9092508290613e48565b601319810191908211610bec57565b605019810191908211610bec57565b929091613ef45a604051633356ae4560e11b602082015261ffff871660248201526080604482015290613eee82612509613ecd60a483018a6106f5565b6001600160401b0388166064840152828103602319016084840152886106f5565b3061506b565b939015613f03575b5050505050565b613f0c94613f16565b3880808080613efc565b9193613fb37fe183f33de2837795525b4792ca4cd60535bd77c53b7e7030060bfcf5734d6b0c95613fc1939561ffff81516020830120961695866000526005602052613f7a8361108660208b604060002082604051948386809551938492016106d2565b556001600160401b03613f9f604051988998895260a060208a015260a08901906106f5565b9216604087015285820360608701526106f5565b9083820360808501526106f5565b0390a1565b60409061ffff61072b949316815281602082015201906106f5565b9161400b6001600160a01b039161ffff6040949796971685526060602086015260608501906106f5565b9416910152565b92919061401e83615016565b61030281036140535750505090610fd46135bc92610fc6604051938492631581378760e21b6020850152309160248501613fe1565b610303810361408557505050610fd46135bc92610fc6604051938492630d573ab360e31b602085015260248401613fc6565b61030881036140b7575050506118de6135bc92610fc6604051938492635da28eb760e01b602085015260248401613fc6565b61030781036140e9575050506135b76135bc92610fc6604051938492630a30883960e11b602085015260248401613fc6565b6103040361411c57505060405163163b7bd360e21b60208201526135bc9250906135b7908290610fc6906024830161071a565b61412e61412884614fbb565b60ff1690565b8061413f575050506108c9916146b7565b60010361414f576108c99361480f565b60405162461bcd60e51b815260206004820152600b60248201526a1513d19517dc1858dad95d60aa1b6044820152606490fd5b6020919283604051948593843782019081520301902090565b156141a257565b60405162461bcd60e51b815260206004820152602160248201527f4e6f6e626c6f636b696e674c7a4170703a20696e76616c6964207061796c6f616044820152601960fa1b6064820152608490fd5b9161421d9060609461ffff6001600160401b03949998979916855260806020860152608085019161333f565b951660408201520152565b903590601e198136030182121561045557018035906001600160401b0382116104555760200191813603831361045557565b94919598979061163d61428360409961427b614289976142a6993691610ebe565b943691610ebe565b97614aca565b928451968794859463040a7bb160e41b865230906004870161445a565b03816001600160a01b037f0000000000000000000000000000000000000000000000000000000000000000165afa9182156108a45760009081936142e957509190565b905061053d91925060403d8111610b8757610b788183610e82565b939694916143329061072b99979461ffff6001600160401b039416875260c0602088015260c087019161333f565b961660408401526060830152608082015260a081850391015261333f565b919697929895949390943033036143ff576143746001600160a01b03918630614dab565b941692836040517fbf551ec93859b170f9b2141bd9298bf3f64322c6f7beb2543a0cb669834118bf61ffff861691806143b28a829190602083019252565b0390a3833b156104555760009889956143e2936040519c8d9b8c9a8b98633fe79aed60e11b8a5260048a01614304565b0393f180156108a4576143f25750565b806121da6108c992610dfd565b60405162461bcd60e51b815260206004820152601f60248201527f4f4654436f72653a2063616c6c6572206d757374206265204f4654436f7265006044820152606490fd5b9190826040910312610455576020825192015190565b91926001600160a01b0361072b969461ffff61448a9416855216602084015260a0604084015260a08301906106f5565b921515606082015260808184039101526106f5565b156144a657565b60405162461bcd60e51b815260206004820152601960248201527f4f4654436f72653a20616d6f756e7420746f6f20736d616c6c000000000000006044820152606490fd5b9261451061072b97959361ffff61451e9416865260c0602087015260c08601906106f5565b9084820360408601526106f5565b936001600160a01b03809216606084015216608082015260a08184039101526106f5565b9461456b9193929561ffff811660005260016020526145726040600020604051948580926113cf565b0384610e82565b8251156145ea57614584855182614648565b6001600160a01b037f00000000000000000000000000000000000000000000000000000000000000001693843b15610455576000966145d991604051998a988997889662c5803160e81b8852600488016144eb565b03925af180156108a4576143f25750565b60405162461bcd60e51b815260206004820152603060248201527f4c7a4170703a2064657374696e6174696f6e20636861696e206973206e6f742060448201526f61207472757374656420736f7572636560801b6064820152608490fd5b61ffff1660005260036020526040600020549081156146ad575b1161466957565b606460405162461bcd60e51b815260206004820152602060248201527f4c7a4170703a207061796c6f61642073697a6520697320746f6f206c617267656044820152fd5b6127109150614662565b9060ff6146c382614fbb565b161580614775575b6146d490614be1565b6146e66146e082614f63565b91615006565b6001600160a01b03908183161561476b575b61ffff7fbf551ec93859b170f9b2141bd9298bf3f64322c6f7beb2543a0cb669834118bf926147536020936001600160401b037f00000000000000000000000000000000000000000000000000000000000000009116614b51565b9461475e868261392f565b60405195865216941692a3565b61dead92506146f8565b5080516029146146cb565b9897969293946147df956001600160401b036147bb60e099958d61ffff6001600160a01b03971690528d6101009081602082015201906106f5565b961660408c015260608b015216608089015260a088015286820360c08801526106f5565b930152565b6001600160401b03614804604093969594966060845260608401906106f5565b951660208201520152565b909161481a84614c9b565b909161484b614844876122d561483e8b61ffff166000526007602052604060002090565b8c611023565b5460ff1690565b916148816001600160401b0392837f00000000000000000000000000000000000000000000000000000000000000009116614b51565b9288888b831561497d575b505050853b1561493257946148d39694613eee948a94612509948d9960001461492b5750505a925b5a978b6040519a8b9863757fea4d60e11b60208b015260248a01614780565b901561492057509061491b61ffff928560207fb8890edbfc1c74692f527444645f95489c3703cc2df42e4a366f5d06fa6cd884969751910120906040519485941696846147e4565b0390a2565b926108c99492613f16565b16926148b4565b50506040516001600160a01b039094168452507f9aedf5fdba8716db3b6705ca00150643309995d4f818a249ed6dde6677e7792d975091955085945050602084019250613fc1915050565b906122d56149b2926149ac896149976149bf979b3061392f565b9961ffff166000526007602052604060002090565b90611023565b805460ff19166001179055565b88888b61488c565b60065460ff1615614a145760228251106116445761ffff60226108c993015191166000526002602052614a07604060002060008052602052604060002090565b549061160f821515614a1c565b50516116d757565b15614a2357565b60405162461bcd60e51b815260206004820152601a60248201527f4c7a4170703a206d696e4761734c696d6974206e6f74207365740000000000006044820152606490fd5b15614a6f57565b60405162461bcd60e51b815260206004820152601b60248201527f4c7a4170703a20676173206c696d697420697320746f6f206c6f7700000000006044820152606490fd5b634e487b7160e01b600052601260045260246000fd5b7f0000000000000000000000000000000000000000000000000000000000000000908115614b4c57046001600160401b0390818111614b07571690565b60405162461bcd60e51b815260206004820152601a60248201527f4f4654436f72653a20616d6f756e745344206f766572666c6f770000000000006044820152606490fd5b614ab4565b81810292918115918404141715610bec57565b7f00000000000000000000000000000000000000000000000000000000000000008015614b4c57810690818103908111610bec5791565b90604051916000602084015260218301526001600160401b0360c01b9060c01b16604182015260298152606081018181106001600160401b03821117610e105760405290565b15614be857565b60405162461bcd60e51b815260206004820152601860248201527f4f4654436f72653a20696e76616c6964207061796c6f616400000000000000006044820152606490fd5b939260719261072b946001600160a01b03604051978895600160f81b602088015260218701526001600160401b0360c01b809460c01b16604187015216604985015260c01b166069830152614c8b81518092602086860191016106d2565b8101036051810184520182610e82565b90614cb3600160ff614cac85614fbb565b1614614be1565b614cbc82614f63565b90614cc683615006565b906049845110614d40576049840151936051815110614cfb57614cf8605182015191614cf28151613e81565b90614edf565b91565b60405162461bcd60e51b815260206004820152601460248201527f746f55696e7436345f6f75744f66426f756e64730000000000000000000000006044820152606490fd5b60405162461bcd60e51b815260206004820152601560248201527f746f427974657333325f6f75744f66426f756e647300000000000000000000006044820152606490fd5b8161072b91336001600160a01b0382160315613beb57614da6823383612ed5565b613beb565b61072b9183916001600160a01b038116308114159081614dd7575b5015612c8b57610a27833383612ed5565b905033141538614dc6565b15614de957565b60405162461bcd60e51b815260206004820152600e60248201526d736c6963655f6f766572666c6f7760901b6044820152606490fd5b15614e2657565b60405162461bcd60e51b8152602060048201526011602482015270736c6963655f6f75744f66426f756e647360781b6044820152606490fd5b614e7382614e6c81612baf565b1015614de2565b614e808282511015614e1f565b81614e98575050604051600081526020810160405290565b60405191601f811691821560051b808486010193838501920101905b808410614ecc5750508252601f01601f191660405290565b9092835181526020809101930190614eb4565b614eec82614e6c81612baf565b614f018151614efa84612bbd565b1115614e1f565b81614f19575050604051600081526020810160405290565b60405191601f8116916051831560051b80858701019484860193010101905b808410614f505750508252601f01601f191660405290565b9092835181526020809101930190614f38565b6021815110614f7657602d015160601c90565b60405162461bcd60e51b815260206004820152601560248201527f746f416464726573735f6f75744f66426f756e647300000000000000000000006044820152606490fd5b6001815110614fcb576001015190565b60405162461bcd60e51b8152602060048201526013602482015272746f55696e74385f6f75744f66426f756e647360681b6044820152606490fd5b6029815110614cfb576029015190565b6020815110615026576020015190565b60405162461bcd60e51b815260206004820152601560248201527f746f55696e743235365f6f75744f66426f756e647300000000000000000000006044820152606490fd5b909291600080916040519561507f87610e4c565b6096875282602088019560a036883760208451940192f1903d90609682116150ad575b6000908286523e9190565b609691506150a256fea26469706673582212207cbc77b96861254730862e90de83bafcaa4d0d718d204df331461ab219a5ca8b64736f6c63430008120033",
  "linkReferences": {},
  "deployedLinkReferences": {}
}