{
  "_format": "hh-sol-artifact-1",
  "contractName": "TapiocaOFT",
  "sourceName": "contracts/tOFT/TapiocaOFT.sol",
  "abi": [
    {
      "inputs": [
        {
          "internalType": "address",
          "name": "_lzEndpoint",
          "type": "address"
        },
        {
          "internalType": "address",
          "name": "_erc20",
          "type": "address"
        },
        {
          "internalType": "contract IYieldBoxBase",
          "name": "_yieldBox",
          "type": "address"
        },
        {
          "internalType": "contract ICluster",
          "name": "_cluster",
          "type": "address"
        },
        {
          "internalType": "string",
          "name": "_name",
          "type": "string"
        },
        {
          "internalType": "string",
          "name": "_symbol",
          "type": "string"
        },
        {
          "internalType": "uint8",
          "name": "_decimal",
          "type": "uint8"
        },
        {
          "internalType": "uint256",
          "name": "_hostChainID",
          "type": "uint256"
        },
        {
          "internalType": "contract BaseTOFTLeverageModule",
          "name": "__leverageModule",
          "type": "address"
        },
        {
          "internalType": "contract BaseTOFTLeverageDestinationModule",
          "name": "__leverageDestinationModule",
          "type": "address"
        },
        {
          "internalType": "contract BaseTOFTStrategyModule",
          "name": "__strategyModule",
          "type": "address"
        },
        {
          "internalType": "contract BaseTOFTStrategyDestinationModule",
          "name": "__strategyDestinationModule",
          "type": "address"
        },
        {
          "internalType": "contract BaseTOFTMarketModule",
          "name": "__marketModule",
          "type": "address"
        },
        {
          "internalType": "contract BaseTOFTMarketDestinationModule",
          "name": "__marketDestinationModule",
          "type": "address"
        },
        {
          "internalType": "contract BaseTOFTOptionsModule",
          "name": "__optionsModule",
          "type": "address"
        },
        {
          "internalType": "contract BaseTOFTOptionsDestinationModule",
          "name": "__optionsDestinationModule",
          "type": "address"
        },
        {
          "internalType": "contract BaseTOFTGenericModule",
          "name": "__genericModule",
          "type": "address"
        }
      ],
      "stateMutability": "nonpayable",
      "type": "constructor"
    },
    {
      "anonymous": false,
      "inputs": [
        {
          "indexed": true,
          "internalType": "address",
          "name": "owner",
          "type": "address"
        },
        {
          "indexed": true,
          "internalType": "address",
          "name": "spender",
          "type": "address"
        },
        {
          "indexed": false,
          "internalType": "uint256",
          "name": "value",
          "type": "uint256"
        }
      ],
      "name": "Approval",
      "type": "event"
    },
    {
      "anonymous": false,
      "inputs": [
        {
          "indexed": true,
          "internalType": "uint16",
          "name": "_srcChainId",
          "type": "uint16"
        },
        {
          "indexed": false,
          "internalType": "bytes",
          "name": "_srcAddress",
          "type": "bytes"
        },
        {
          "indexed": false,
          "internalType": "uint64",
          "name": "_nonce",
          "type": "uint64"
        },
        {
          "indexed": false,
          "internalType": "bytes32",
          "name": "_hash",
          "type": "bytes32"
        }
      ],
      "name": "CallOFTReceivedSuccess",
      "type": "event"
    },
    {
      "anonymous": false,
      "inputs": [
        {
          "indexed": false,
          "internalType": "uint16",
          "name": "_srcChainId",
          "type": "uint16"
        },
        {
          "indexed": false,
          "internalType": "bytes",
          "name": "_srcAddress",
          "type": "bytes"
        },
        {
          "indexed": false,
          "internalType": "uint64",
          "name": "_nonce",
          "type": "uint64"
        },
        {
          "indexed": false,
          "internalType": "bytes",
          "name": "_payload",
          "type": "bytes"
        },
        {
          "indexed": false,
          "internalType": "bytes",
          "name": "_reason",
          "type": "bytes"
        }
      ],
      "name": "MessageFailed",
      "type": "event"
    },
    {
      "anonymous": false,
      "inputs": [
        {
          "indexed": false,
          "internalType": "address",
          "name": "_address",
          "type": "address"
        }
      ],
      "name": "NonContractAddress",
      "type": "event"
    },
    {
      "anonymous": false,
      "inputs": [
        {
          "indexed": true,
          "internalType": "address",
          "name": "previousOwner",
          "type": "address"
        },
        {
          "indexed": true,
          "internalType": "address",
          "name": "newOwner",
          "type": "address"
        }
      ],
      "name": "OwnershipTransferred",
      "type": "event"
    },
    {
      "anonymous": false,
      "inputs": [
        {
          "indexed": true,
          "internalType": "uint16",
          "name": "_srcChainId",
          "type": "uint16"
        },
        {
          "indexed": true,
          "internalType": "address",
          "name": "_to",
          "type": "address"
        },
        {
          "indexed": false,
          "internalType": "uint256",
          "name": "_amount",
          "type": "uint256"
        }
      ],
      "name": "ReceiveFromChain",
      "type": "event"
    },
    {
      "anonymous": false,
      "inputs": [
        {
          "indexed": false,
          "internalType": "uint16",
          "name": "_srcChainId",
          "type": "uint16"
        },
        {
          "indexed": false,
          "internalType": "bytes",
          "name": "_srcAddress",
          "type": "bytes"
        },
        {
          "indexed": false,
          "internalType": "uint64",
          "name": "_nonce",
          "type": "uint64"
        },
        {
          "indexed": false,
          "internalType": "bytes32",
          "name": "_payloadHash",
          "type": "bytes32"
        }
      ],
      "name": "RetryMessageSuccess",
      "type": "event"
    },
    {
      "anonymous": false,
      "inputs": [
        {
          "indexed": true,
          "internalType": "uint16",
          "name": "_dstChainId",
          "type": "uint16"
        },
        {
          "indexed": true,
          "internalType": "address",
          "name": "_from",
          "type": "address"
        },
        {
          "indexed": true,
          "internalType": "bytes32",
          "name": "_toAddress",
          "type": "bytes32"
        },
        {
          "indexed": false,
          "internalType": "uint256",
          "name": "_amount",
          "type": "uint256"
        }
      ],
      "name": "SendToChain",
      "type": "event"
    },
    {
      "anonymous": false,
      "inputs": [
        {
          "indexed": false,
          "internalType": "uint16",
          "name": "_dstChainId",
          "type": "uint16"
        },
        {
          "indexed": false,
          "internalType": "uint16",
          "name": "_type",
          "type": "uint16"
        },
        {
          "indexed": false,
          "internalType": "uint256",
          "name": "_minDstGas",
          "type": "uint256"
        }
      ],
      "name": "SetMinDstGas",
      "type": "event"
    },
    {
      "anonymous": false,
      "inputs": [
        {
          "indexed": false,
          "internalType": "address",
          "name": "precrime",
          "type": "address"
        }
      ],
      "name": "SetPrecrime",
      "type": "event"
    },
    {
      "anonymous": false,
      "inputs": [
        {
          "indexed": false,
          "internalType": "uint16",
          "name": "_remoteChainId",
          "type": "uint16"
        },
        {
          "indexed": false,
          "internalType": "bytes",
          "name": "_path",
          "type": "bytes"
        }
      ],
      "name": "SetTrustedRemote",
      "type": "event"
    },
    {
      "anonymous": false,
      "inputs": [
        {
          "indexed": false,
          "internalType": "uint16",
          "name": "_remoteChainId",
          "type": "uint16"
        },
        {
          "indexed": false,
          "internalType": "bytes",
          "name": "_remoteAddress",
          "type": "bytes"
        }
      ],
      "name": "SetTrustedRemoteAddress",
      "type": "event"
    },
    {
      "anonymous": false,
      "inputs": [
        {
          "indexed": false,
          "internalType": "bool",
          "name": "_useCustomAdapterParams",
          "type": "bool"
        }
      ],
      "name": "SetUseCustomAdapterParams",
      "type": "event"
    },
    {
      "anonymous": false,
      "inputs": [
        {
          "indexed": true,
          "internalType": "address",
          "name": "from",
          "type": "address"
        },
        {
          "indexed": true,
          "internalType": "address",
          "name": "to",
          "type": "address"
        },
        {
          "indexed": false,
          "internalType": "uint256",
          "name": "value",
          "type": "uint256"
        }
      ],
      "name": "Transfer",
      "type": "event"
    },
    {
      "inputs": [],
      "name": "DEFAULT_PAYLOAD_SIZE_LIMIT",
      "outputs": [
        {
          "internalType": "uint256",
          "name": "",
          "type": "uint256"
        }
      ],
      "stateMutability": "view",
      "type": "function"
    },
    {
      "inputs": [],
      "name": "DOMAIN_SEPARATOR",
      "outputs": [
        {
          "internalType": "bytes32",
          "name": "",
          "type": "bytes32"
        }
      ],
      "stateMutability": "view",
      "type": "function"
    },
    {
      "inputs": [],
      "name": "NO_EXTRA_GAS",
      "outputs": [
        {
          "internalType": "uint256",
          "name": "",
          "type": "uint256"
        }
      ],
      "stateMutability": "view",
      "type": "function"
    },
    {
      "inputs": [],
      "name": "PT_SEND",
      "outputs": [
        {
          "internalType": "uint8",
          "name": "",
          "type": "uint8"
        }
      ],
      "stateMutability": "view",
      "type": "function"
    },
    {
      "inputs": [],
      "name": "PT_SEND_AND_CALL",
      "outputs": [
        {
          "internalType": "uint8",
          "name": "",
          "type": "uint8"
        }
      ],
      "stateMutability": "view",
      "type": "function"
    },
    {
      "inputs": [],
      "name": "SWAP_MAX_SLIPPAGE",
      "outputs": [
        {
          "internalType": "uint256",
          "name": "",
          "type": "uint256"
        }
      ],
      "stateMutability": "view",
      "type": "function"
    },
    {
      "inputs": [
        {
          "internalType": "address",
          "name": "owner",
          "type": "address"
        },
        {
          "internalType": "address",
          "name": "spender",
          "type": "address"
        }
      ],
      "name": "allowance",
      "outputs": [
        {
          "internalType": "uint256",
          "name": "",
          "type": "uint256"
        }
      ],
      "stateMutability": "view",
      "type": "function"
    },
    {
      "inputs": [
        {
          "internalType": "address",
          "name": "spender",
          "type": "address"
        },
        {
          "internalType": "uint256",
          "name": "amount",
          "type": "uint256"
        }
      ],
      "name": "approve",
      "outputs": [
        {
          "internalType": "bool",
          "name": "",
          "type": "bool"
        }
      ],
      "stateMutability": "nonpayable",
      "type": "function"
    },
    {
      "inputs": [
        {
          "internalType": "address",
          "name": "account",
          "type": "address"
        }
      ],
      "name": "balanceOf",
      "outputs": [
        {
          "internalType": "uint256",
          "name": "",
          "type": "uint256"
        }
      ],
      "stateMutability": "view",
      "type": "function"
    },
    {
      "inputs": [
        {
          "internalType": "uint16",
          "name": "_srcChainId",
          "type": "uint16"
        },
        {
          "internalType": "bytes",
          "name": "_srcAddress",
          "type": "bytes"
        },
        {
          "internalType": "uint64",
          "name": "_nonce",
          "type": "uint64"
        },
        {
          "internalType": "bytes32",
          "name": "_from",
          "type": "bytes32"
        },
        {
          "internalType": "address",
          "name": "_to",
          "type": "address"
        },
        {
          "internalType": "uint256",
          "name": "_amount",
          "type": "uint256"
        },
        {
          "internalType": "bytes",
          "name": "_payload",
          "type": "bytes"
        },
        {
          "internalType": "uint256",
          "name": "_gasForCall",
          "type": "uint256"
        }
      ],
      "name": "callOnOFTReceived",
      "outputs": [],
      "stateMutability": "nonpayable",
      "type": "function"
    },
    {
      "inputs": [],
      "name": "circulatingSupply",
      "outputs": [
        {
          "internalType": "uint256",
          "name": "",
          "type": "uint256"
        }
      ],
      "stateMutability": "view",
      "type": "function"
    },
    {
      "inputs": [],
      "name": "cluster",
      "outputs": [
        {
          "internalType": "contract ICluster",
          "name": "",
          "type": "address"
        }
      ],
      "stateMutability": "view",
      "type": "function"
    },
    {
      "inputs": [
        {
          "internalType": "uint16",
          "name": "",
          "type": "uint16"
        },
        {
          "internalType": "bytes",
          "name": "",
          "type": "bytes"
        },
        {
          "internalType": "uint64",
          "name": "",
          "type": "uint64"
        }
      ],
      "name": "creditedPackets",
      "outputs": [
        {
          "internalType": "bool",
          "name": "",
          "type": "bool"
        }
      ],
      "stateMutability": "view",
      "type": "function"
    },
    {
      "inputs": [],
      "name": "decimals",
      "outputs": [
        {
          "internalType": "uint8",
          "name": "",
          "type": "uint8"
        }
      ],
      "stateMutability": "view",
      "type": "function"
    },
    {
      "inputs": [
        {
          "internalType": "address",
          "name": "spender",
          "type": "address"
        },
        {
          "internalType": "uint256",
          "name": "subtractedValue",
          "type": "uint256"
        }
      ],
      "name": "decreaseAllowance",
      "outputs": [
        {
          "internalType": "bool",
          "name": "",
          "type": "bool"
        }
      ],
      "stateMutability": "nonpayable",
      "type": "function"
    },
    {
      "inputs": [],
      "name": "erc20",
      "outputs": [
        {
          "internalType": "address",
          "name": "",
          "type": "address"
        }
      ],
      "stateMutability": "view",
      "type": "function"
    },
    {
      "inputs": [
        {
          "internalType": "uint16",
          "name": "_dstChainId",
          "type": "uint16"
        },
        {
          "internalType": "bytes32",
          "name": "_toAddress",
          "type": "bytes32"
        },
        {
          "internalType": "uint256",
          "name": "_amount",
          "type": "uint256"
        },
        {
          "internalType": "bytes",
          "name": "_payload",
          "type": "bytes"
        },
        {
          "internalType": "uint64",
          "name": "_dstGasForCall",
          "type": "uint64"
        },
        {
          "internalType": "bool",
          "name": "_useZro",
          "type": "bool"
        },
        {
          "internalType": "bytes",
          "name": "_adapterParams",
          "type": "bytes"
        }
      ],
      "name": "estimateSendAndCallFee",
      "outputs": [
        {
          "internalType": "uint256",
          "name": "nativeFee",
          "type": "uint256"
        },
        {
          "internalType": "uint256",
          "name": "zroFee",
          "type": "uint256"
        }
      ],
      "stateMutability": "view",
      "type": "function"
    },
    {
      "inputs": [
        {
          "internalType": "uint16",
          "name": "_dstChainId",
          "type": "uint16"
        },
        {
          "internalType": "bytes32",
          "name": "_toAddress",
          "type": "bytes32"
        },
        {
          "internalType": "uint256",
          "name": "_amount",
          "type": "uint256"
        },
        {
          "internalType": "bool",
          "name": "_useZro",
          "type": "bool"
        },
        {
          "internalType": "bytes",
          "name": "_adapterParams",
          "type": "bytes"
        }
      ],
      "name": "estimateSendFee",
      "outputs": [
        {
          "internalType": "uint256",
          "name": "nativeFee",
          "type": "uint256"
        },
        {
          "internalType": "uint256",
          "name": "zroFee",
          "type": "uint256"
        }
      ],
      "stateMutability": "view",
      "type": "function"
    },
    {
      "inputs": [
        {
          "components": [
            {
              "internalType": "address",
              "name": "from",
              "type": "address"
            },
            {
              "internalType": "address",
              "name": "target",
              "type": "address"
            },
            {
              "internalType": "uint256",
              "name": "paymentTokenAmount",
              "type": "uint256"
            },
            {
              "internalType": "uint256",
              "name": "oTAPTokenID",
              "type": "uint256"
            },
            {
              "internalType": "address",
              "name": "paymentToken",
              "type": "address"
            },
            {
              "internalType": "uint256",
              "name": "tapAmount",
              "type": "uint256"
            }
          ],
          "internalType": "struct ITapiocaOptionsBrokerCrossChain.IExerciseOptionsData",
          "name": "optionsData",
          "type": "tuple"
        },
        {
          "components": [
            {
              "internalType": "uint16",
              "name": "lzDstChainId",
              "type": "uint16"
            },
            {
              "internalType": "address",
              "name": "zroPaymentAddress",
              "type": "address"
            },
            {
              "internalType": "uint256",
              "name": "extraGas",
              "type": "uint256"
            }
          ],
          "internalType": "struct ITapiocaOptionsBrokerCrossChain.IExerciseLZData",
          "name": "lzData",
          "type": "tuple"
        },
        {
          "components": [
            {
              "internalType": "bool",
              "name": "withdrawOnAnotherChain",
              "type": "bool"
            },
            {
              "internalType": "address",
              "name": "tapOftAddress",
              "type": "address"
            },
            {
              "internalType": "uint16",
              "name": "lzDstChainId",
              "type": "uint16"
            },
            {
              "internalType": "uint256",
              "name": "amount",
              "type": "uint256"
            },
            {
              "internalType": "address",
              "name": "zroPaymentAddress",
              "type": "address"
            },
            {
              "internalType": "uint256",
              "name": "extraGas",
              "type": "uint256"
            }
          ],
          "internalType": "struct ITapiocaOptionsBrokerCrossChain.IExerciseLZSendTapData",
          "name": "tapSendData",
          "type": "tuple"
        },
        {
          "components": [
            {
              "internalType": "bool",
              "name": "permitAll",
              "type": "bool"
            },
            {
              "internalType": "bool",
              "name": "allowFailure",
              "type": "bool"
            },
            {
              "internalType": "bool",
              "name": "yieldBoxTypeApproval",
              "type": "bool"
            },
            {
              "internalType": "bool",
              "name": "revokeYieldBox",
              "type": "bool"
            },
            {
              "internalType": "uint16",
              "name": "actionType",
              "type": "uint16"
            },
            {
              "internalType": "address",
              "name": "target",
              "type": "address"
            },
            {
              "internalType": "bool",
              "name": "permitBorrow",
              "type": "bool"
            },
            {
              "internalType": "address",
              "name": "owner",
              "type": "address"
            },
            {
              "internalType": "address",
              "name": "spender",
              "type": "address"
            },
            {
              "internalType": "uint256",
              "name": "value",
              "type": "uint256"
            },
            {
              "internalType": "uint256",
              "name": "deadline",
              "type": "uint256"
            },
            {
              "internalType": "uint8",
              "name": "v",
              "type": "uint8"
            },
            {
              "internalType": "bytes32",
              "name": "r",
              "type": "bytes32"
            },
            {
              "internalType": "bytes32",
              "name": "s",
              "type": "bytes32"
            }
          ],
          "internalType": "struct ICommonData.IApproval[]",
          "name": "approvals",
          "type": "tuple[]"
        },
        {
          "components": [
            {
              "internalType": "bool",
              "name": "permitAll",
              "type": "bool"
            },
            {
              "internalType": "bool",
              "name": "allowFailure",
              "type": "bool"
            },
            {
              "internalType": "bool",
              "name": "yieldBoxTypeApproval",
              "type": "bool"
            },
            {
              "internalType": "bool",
              "name": "revokeYieldBox",
              "type": "bool"
            },
            {
              "internalType": "uint16",
              "name": "actionType",
              "type": "uint16"
            },
            {
              "internalType": "address",
              "name": "target",
              "type": "address"
            },
            {
              "internalType": "bool",
              "name": "permitBorrow",
              "type": "bool"
            },
            {
              "internalType": "address",
              "name": "owner",
              "type": "address"
            },
            {
              "internalType": "address",
              "name": "spender",
              "type": "address"
            },
            {
              "internalType": "uint256",
              "name": "value",
              "type": "uint256"
            },
            {
              "internalType": "uint256",
              "name": "deadline",
              "type": "uint256"
            },
            {
              "internalType": "uint8",
              "name": "v",
              "type": "uint8"
            },
            {
              "internalType": "bytes32",
              "name": "r",
              "type": "bytes32"
            },
            {
              "internalType": "bytes32",
              "name": "s",
              "type": "bytes32"
            }
          ],
          "internalType": "struct ICommonData.IApproval[]",
          "name": "revokes",
          "type": "tuple[]"
        },
        {
          "internalType": "bytes",
          "name": "adapterParams",
          "type": "bytes"
        }
      ],
      "name": "exerciseOption",
      "outputs": [],
      "stateMutability": "payable",
      "type": "function"
    },
    {
      "inputs": [
        {
          "internalType": "uint16",
          "name": "",
          "type": "uint16"
        },
        {
          "internalType": "bytes",
          "name": "",
          "type": "bytes"
        },
        {
          "internalType": "uint64",
          "name": "",
          "type": "uint64"
        }
      ],
      "name": "failedMessages",
      "outputs": [
        {
          "internalType": "bytes32",
          "name": "",
          "type": "bytes32"
        }
      ],
      "stateMutability": "view",
      "type": "function"
    },
    {
      "inputs": [
        {
          "internalType": "uint16",
          "name": "_srcChainId",
          "type": "uint16"
        },
        {
          "internalType": "bytes",
          "name": "_srcAddress",
          "type": "bytes"
        }
      ],
      "name": "forceResumeReceive",
      "outputs": [],
      "stateMutability": "nonpayable",
      "type": "function"
    },
    {
      "inputs": [
        {
          "internalType": "uint16",
          "name": "_version",
          "type": "uint16"
        },
        {
          "internalType": "uint16",
          "name": "_chainId",
          "type": "uint16"
        },
        {
          "internalType": "address",
          "name": "",
          "type": "address"
        },
        {
          "internalType": "uint256",
          "name": "_configType",
          "type": "uint256"
        }
      ],
      "name": "getConfig",
      "outputs": [
        {
          "internalType": "bytes",
          "name": "",
          "type": "bytes"
        }
      ],
      "stateMutability": "view",
      "type": "function"
    },
    {
      "inputs": [
        {
          "internalType": "uint16",
          "name": "_remoteChainId",
          "type": "uint16"
        }
      ],
      "name": "getTrustedRemoteAddress",
      "outputs": [
        {
          "internalType": "bytes",
          "name": "",
          "type": "bytes"
        }
      ],
      "stateMutability": "view",
      "type": "function"
    },
    {
      "inputs": [],
      "name": "hostChainID",
      "outputs": [
        {
          "internalType": "uint256",
          "name": "",
          "type": "uint256"
        }
      ],
      "stateMutability": "view",
      "type": "function"
    },
    {
      "inputs": [
        {
          "internalType": "address",
          "name": "spender",
          "type": "address"
        },
        {
          "internalType": "uint256",
          "name": "addedValue",
          "type": "uint256"
        }
      ],
      "name": "increaseAllowance",
      "outputs": [
        {
          "internalType": "bool",
          "name": "",
          "type": "bool"
        }
      ],
      "stateMutability": "nonpayable",
      "type": "function"
    },
    {
      "inputs": [
        {
          "internalType": "uint16",
          "name": "_srcChainId",
          "type": "uint16"
        },
        {
          "internalType": "bytes",
          "name": "_srcAddress",
          "type": "bytes"
        }
      ],
      "name": "isTrustedRemote",
      "outputs": [
        {
          "internalType": "bool",
          "name": "",
          "type": "bool"
        }
      ],
      "stateMutability": "view",
      "type": "function"
    },
    {
      "inputs": [],
      "name": "lzEndpoint",
      "outputs": [
        {
          "internalType": "contract ILayerZeroEndpoint",
          "name": "",
          "type": "address"
        }
      ],
      "stateMutability": "view",
      "type": "function"
    },
    {
      "inputs": [
        {
          "internalType": "uint16",
          "name": "_srcChainId",
          "type": "uint16"
        },
        {
          "internalType": "bytes",
          "name": "_srcAddress",
          "type": "bytes"
        },
        {
          "internalType": "uint64",
          "name": "_nonce",
          "type": "uint64"
        },
        {
          "internalType": "bytes",
          "name": "_payload",
          "type": "bytes"
        }
      ],
      "name": "lzReceive",
      "outputs": [],
      "stateMutability": "nonpayable",
      "type": "function"
    },
    {
      "inputs": [
        {
          "internalType": "uint16",
          "name": "",
          "type": "uint16"
        },
        {
          "internalType": "uint16",
          "name": "",
          "type": "uint16"
        }
      ],
      "name": "minDstGasLookup",
      "outputs": [
        {
          "internalType": "uint256",
          "name": "",
          "type": "uint256"
        }
      ],
      "stateMutability": "view",
      "type": "function"
    },
    {
      "inputs": [],
      "name": "name",
      "outputs": [
        {
          "internalType": "string",
          "name": "",
          "type": "string"
        }
      ],
      "stateMutability": "view",
      "type": "function"
    },
    {
      "inputs": [
        {
          "internalType": "uint16",
          "name": "_srcChainId",
          "type": "uint16"
        },
        {
          "internalType": "bytes",
          "name": "_srcAddress",
          "type": "bytes"
        },
        {
          "internalType": "uint64",
          "name": "_nonce",
          "type": "uint64"
        },
        {
          "internalType": "bytes",
          "name": "_payload",
          "type": "bytes"
        }
      ],
      "name": "nonblockingLzReceive",
      "outputs": [],
      "stateMutability": "nonpayable",
      "type": "function"
    },
    {
      "inputs": [
        {
          "internalType": "address",
          "name": "owner",
          "type": "address"
        }
      ],
      "name": "nonces",
      "outputs": [
        {
          "internalType": "uint256",
          "name": "",
          "type": "uint256"
        }
      ],
      "stateMutability": "view",
      "type": "function"
    },
    {
      "inputs": [],
      "name": "owner",
      "outputs": [
        {
          "internalType": "address",
          "name": "",
          "type": "address"
        }
      ],
      "stateMutability": "view",
      "type": "function"
    },
    {
      "inputs": [
        {
          "internalType": "uint16",
          "name": "",
          "type": "uint16"
        }
      ],
      "name": "payloadSizeLimitLookup",
      "outputs": [
        {
          "internalType": "uint256",
          "name": "",
          "type": "uint256"
        }
      ],
      "stateMutability": "view",
      "type": "function"
    },
    {
      "inputs": [
        {
          "internalType": "address",
          "name": "owner",
          "type": "address"
        },
        {
          "internalType": "address",
          "name": "spender",
          "type": "address"
        },
        {
          "internalType": "uint256",
          "name": "value",
          "type": "uint256"
        },
        {
          "internalType": "uint256",
          "name": "deadline",
          "type": "uint256"
        },
        {
          "internalType": "uint8",
          "name": "v",
          "type": "uint8"
        },
        {
          "internalType": "bytes32",
          "name": "r",
          "type": "bytes32"
        },
        {
          "internalType": "bytes32",
          "name": "s",
          "type": "bytes32"
        }
      ],
      "name": "permit",
      "outputs": [],
      "stateMutability": "nonpayable",
      "type": "function"
    },
    {
      "inputs": [],
      "name": "precrime",
      "outputs": [
        {
          "internalType": "address",
          "name": "",
          "type": "address"
        }
      ],
      "stateMutability": "view",
      "type": "function"
    },
    {
      "inputs": [
        {
          "internalType": "address",
          "name": "from",
          "type": "address"
        },
        {
          "internalType": "address",
          "name": "to",
          "type": "address"
        },
        {
          "internalType": "uint16",
          "name": "lzDstChainId",
          "type": "uint16"
        },
        {
          "internalType": "address",
          "name": "zroPaymentAddress",
          "type": "address"
        },
        {
          "components": [
            {
              "internalType": "bool",
              "name": "withdraw",
              "type": "bool"
            },
            {
              "internalType": "uint256",
              "name": "withdrawLzFeeAmount",
              "type": "uint256"
            },
            {
              "internalType": "bool",
              "name": "withdrawOnOtherChain",
              "type": "bool"
            },
            {
              "internalType": "uint16",
              "name": "withdrawLzChainId",
              "type": "uint16"
            },
            {
              "internalType": "bytes",
              "name": "withdrawAdapterParams",
              "type": "bytes"
            },
            {
              "internalType": "bool",
              "name": "unwrap",
              "type": "bool"
            }
          ],
          "internalType": "struct ICommonData.IWithdrawParams",
          "name": "withdrawParams",
          "type": "tuple"
        },
        {
          "components": [
            {
              "internalType": "uint256",
              "name": "amount",
              "type": "uint256"
            },
            {
              "internalType": "address",
              "name": "marketHelper",
              "type": "address"
            },
            {
              "internalType": "address",
              "name": "market",
              "type": "address"
            }
          ],
          "internalType": "struct ITapiocaOFT.IRemoveParams",
          "name": "removeParams",
          "type": "tuple"
        },
        {
          "components": [
            {
              "internalType": "bool",
              "name": "permitAll",
              "type": "bool"
            },
            {
              "internalType": "bool",
              "name": "allowFailure",
              "type": "bool"
            },
            {
              "internalType": "bool",
              "name": "yieldBoxTypeApproval",
              "type": "bool"
            },
            {
              "internalType": "bool",
              "name": "revokeYieldBox",
              "type": "bool"
            },
            {
              "internalType": "uint16",
              "name": "actionType",
              "type": "uint16"
            },
            {
              "internalType": "address",
              "name": "target",
              "type": "address"
            },
            {
              "internalType": "bool",
              "name": "permitBorrow",
              "type": "bool"
            },
            {
              "internalType": "address",
              "name": "owner",
              "type": "address"
            },
            {
              "internalType": "address",
              "name": "spender",
              "type": "address"
            },
            {
              "internalType": "uint256",
              "name": "value",
              "type": "uint256"
            },
            {
              "internalType": "uint256",
              "name": "deadline",
              "type": "uint256"
            },
            {
              "internalType": "uint8",
              "name": "v",
              "type": "uint8"
            },
            {
              "internalType": "bytes32",
              "name": "r",
              "type": "bytes32"
            },
            {
              "internalType": "bytes32",
              "name": "s",
              "type": "bytes32"
            }
          ],
          "internalType": "struct ICommonData.IApproval[]",
          "name": "approvals",
          "type": "tuple[]"
        },
        {
          "components": [
            {
              "internalType": "bool",
              "name": "permitAll",
              "type": "bool"
            },
            {
              "internalType": "bool",
              "name": "allowFailure",
              "type": "bool"
            },
            {
              "internalType": "bool",
              "name": "yieldBoxTypeApproval",
              "type": "bool"
            },
            {
              "internalType": "bool",
              "name": "revokeYieldBox",
              "type": "bool"
            },
            {
              "internalType": "uint16",
              "name": "actionType",
              "type": "uint16"
            },
            {
              "internalType": "address",
              "name": "target",
              "type": "address"
            },
            {
              "internalType": "bool",
              "name": "permitBorrow",
              "type": "bool"
            },
            {
              "internalType": "address",
              "name": "owner",
              "type": "address"
            },
            {
              "internalType": "address",
              "name": "spender",
              "type": "address"
            },
            {
              "internalType": "uint256",
              "name": "value",
              "type": "uint256"
            },
            {
              "internalType": "uint256",
              "name": "deadline",
              "type": "uint256"
            },
            {
              "internalType": "uint8",
              "name": "v",
              "type": "uint8"
            },
            {
              "internalType": "bytes32",
              "name": "r",
              "type": "bytes32"
            },
            {
              "internalType": "bytes32",
              "name": "s",
              "type": "bytes32"
            }
          ],
          "internalType": "struct ICommonData.IApproval[]",
          "name": "revokes",
          "type": "tuple[]"
        },
        {
          "internalType": "bytes",
          "name": "adapterParams",
          "type": "bytes"
        }
      ],
      "name": "removeCollateral",
      "outputs": [],
      "stateMutability": "payable",
      "type": "function"
    },
    {
      "inputs": [],
      "name": "renounceOwnership",
      "outputs": [],
      "stateMutability": "nonpayable",
      "type": "function"
    },
    {
      "inputs": [
        {
          "internalType": "uint256",
          "name": "amount",
          "type": "uint256"
        },
        {
          "internalType": "address",
          "name": "to",
          "type": "address"
        }
      ],
      "name": "rescueEth",
      "outputs": [],
      "stateMutability": "nonpayable",
      "type": "function"
    },
    {
      "inputs": [
        {
          "internalType": "address",
          "name": "from",
          "type": "address"
        },
        {
          "internalType": "uint256",
          "name": "amount",
          "type": "uint256"
        },
        {
          "internalType": "uint256",
          "name": "assetId",
          "type": "uint256"
        },
        {
          "internalType": "uint16",
          "name": "lzDstChainId",
          "type": "uint16"
        },
        {
          "internalType": "address",
          "name": "zroPaymentAddress",
          "type": "address"
        },
        {
          "internalType": "bytes",
          "name": "airdropAdapterParam",
          "type": "bytes"
        }
      ],
      "name": "retrieveFromStrategy",
      "outputs": [],
      "stateMutability": "payable",
      "type": "function"
    },
    {
      "inputs": [
        {
          "internalType": "uint16",
          "name": "_srcChainId",
          "type": "uint16"
        },
        {
          "internalType": "bytes",
          "name": "_srcAddress",
          "type": "bytes"
        },
        {
          "internalType": "uint64",
          "name": "_nonce",
          "type": "uint64"
        },
        {
          "internalType": "bytes",
          "name": "_payload",
          "type": "bytes"
        }
      ],
      "name": "retryMessage",
      "outputs": [],
      "stateMutability": "payable",
      "type": "function"
    },
    {
      "inputs": [
        {
          "internalType": "address",
          "name": "_from",
          "type": "address"
        },
        {
          "internalType": "uint16",
          "name": "_dstChainId",
          "type": "uint16"
        },
        {
          "internalType": "bytes32",
          "name": "_toAddress",
          "type": "bytes32"
        },
        {
          "internalType": "uint256",
          "name": "_amount",
          "type": "uint256"
        },
        {
          "internalType": "bytes",
          "name": "_payload",
          "type": "bytes"
        },
        {
          "internalType": "uint64",
          "name": "_dstGasForCall",
          "type": "uint64"
        },
        {
          "components": [
            {
              "internalType": "address payable",
              "name": "refundAddress",
              "type": "address"
            },
            {
              "internalType": "address",
              "name": "zroPaymentAddress",
              "type": "address"
            },
            {
              "internalType": "bytes",
              "name": "adapterParams",
              "type": "bytes"
            }
          ],
          "internalType": "struct ICommonOFT.LzCallParams",
          "name": "_callParams",
          "type": "tuple"
        }
      ],
      "name": "sendAndCall",
      "outputs": [],
      "stateMutability": "payable",
      "type": "function"
    },
    {
      "inputs": [
        {
          "internalType": "uint256",
          "name": "amount",
          "type": "uint256"
        },
        {
          "internalType": "address",
          "name": "leverageFor",
          "type": "address"
        },
        {
          "components": [
            {
              "internalType": "uint256",
              "name": "srcExtraGasLimit",
              "type": "uint256"
            },
            {
              "internalType": "uint16",
              "name": "lzSrcChainId",
              "type": "uint16"
            },
            {
              "internalType": "uint16",
              "name": "lzDstChainId",
              "type": "uint16"
            },
            {
              "internalType": "address",
              "name": "zroPaymentAddress",
              "type": "address"
            },
            {
              "internalType": "bytes",
              "name": "dstAirdropAdapterParam",
              "type": "bytes"
            },
            {
              "internalType": "bytes",
              "name": "srcAirdropAdapterParam",
              "type": "bytes"
            },
            {
              "internalType": "address",
              "name": "refundAddress",
              "type": "address"
            }
          ],
          "internalType": "struct IUSDOBase.ILeverageLZData",
          "name": "lzData",
          "type": "tuple"
        },
        {
          "components": [
            {
              "internalType": "address",
              "name": "tokenOut",
              "type": "address"
            },
            {
              "internalType": "uint256",
              "name": "amountOutMin",
              "type": "uint256"
            },
            {
              "internalType": "bytes",
              "name": "data",
              "type": "bytes"
            }
          ],
          "internalType": "struct IUSDOBase.ILeverageSwapData",
          "name": "swapData",
          "type": "tuple"
        },
        {
          "components": [
            {
              "internalType": "address",
              "name": "swapper",
              "type": "address"
            },
            {
              "internalType": "address",
              "name": "magnetar",
              "type": "address"
            },
            {
              "internalType": "address",
              "name": "tOft",
              "type": "address"
            },
            {
              "internalType": "address",
              "name": "srcMarket",
              "type": "address"
            }
          ],
          "internalType": "struct IUSDOBase.ILeverageExternalContractsData",
          "name": "externalData",
          "type": "tuple"
        }
      ],
      "name": "sendForLeverage",
      "outputs": [],
      "stateMutability": "payable",
      "type": "function"
    },
    {
      "inputs": [
        {
          "internalType": "address",
          "name": "_from",
          "type": "address"
        },
        {
          "internalType": "uint16",
          "name": "_dstChainId",
          "type": "uint16"
        },
        {
          "internalType": "bytes32",
          "name": "_toAddress",
          "type": "bytes32"
        },
        {
          "internalType": "uint256",
          "name": "_amount",
          "type": "uint256"
        },
        {
          "components": [
            {
              "internalType": "address payable",
              "name": "refundAddress",
              "type": "address"
            },
            {
              "internalType": "address",
              "name": "zroPaymentAddress",
              "type": "address"
            },
            {
              "internalType": "bytes",
              "name": "adapterParams",
              "type": "bytes"
            }
          ],
          "internalType": "struct ICommonOFT.LzCallParams",
          "name": "_callParams",
          "type": "tuple"
        }
      ],
      "name": "sendFrom",
      "outputs": [],
      "stateMutability": "payable",
      "type": "function"
    },
    {
      "inputs": [
        {
          "internalType": "address",
          "name": "from",
          "type": "address"
        },
        {
          "internalType": "address",
          "name": "to",
          "type": "address"
        },
        {
          "internalType": "uint256",
          "name": "amount",
          "type": "uint256"
        },
        {
          "internalType": "uint256",
          "name": "assetId",
          "type": "uint256"
        },
        {
          "internalType": "uint16",
          "name": "lzDstChainId",
          "type": "uint16"
        },
        {
          "components": [
            {
              "internalType": "uint256",
              "name": "extraGasLimit",
              "type": "uint256"
            },
            {
              "internalType": "address",
              "name": "zroPaymentAddress",
              "type": "address"
            }
          ],
          "internalType": "struct ICommonData.ISendOptions",
          "name": "options",
          "type": "tuple"
        }
      ],
      "name": "sendToStrategy",
      "outputs": [],
      "stateMutability": "payable",
      "type": "function"
    },
    {
      "inputs": [
        {
          "internalType": "address",
          "name": "from",
          "type": "address"
        },
        {
          "internalType": "address",
          "name": "to",
          "type": "address"
        },
        {
          "internalType": "uint16",
          "name": "lzDstChainId",
          "type": "uint16"
        },
        {
          "internalType": "bytes",
          "name": "airdropAdapterParams",
          "type": "bytes"
        },
        {
          "components": [
            {
              "internalType": "uint256",
              "name": "amount",
              "type": "uint256"
            },
            {
              "internalType": "uint256",
              "name": "borrowAmount",
              "type": "uint256"
            },
            {
              "internalType": "address",
              "name": "marketHelper",
              "type": "address"
            },
            {
              "internalType": "address",
              "name": "market",
              "type": "address"
            }
          ],
          "internalType": "struct ITapiocaOFT.IBorrowParams",
          "name": "borrowParams",
          "type": "tuple"
        },
        {
          "components": [
            {
              "internalType": "bool",
              "name": "withdraw",
              "type": "bool"
            },
            {
              "internalType": "uint256",
              "name": "withdrawLzFeeAmount",
              "type": "uint256"
            },
            {
              "internalType": "bool",
              "name": "withdrawOnOtherChain",
              "type": "bool"
            },
            {
              "internalType": "uint16",
              "name": "withdrawLzChainId",
              "type": "uint16"
            },
            {
              "internalType": "bytes",
              "name": "withdrawAdapterParams",
              "type": "bytes"
            },
            {
              "internalType": "bool",
              "name": "unwrap",
              "type": "bool"
            }
          ],
          "internalType": "struct ICommonData.IWithdrawParams",
          "name": "withdrawParams",
          "type": "tuple"
        },
        {
          "components": [
            {
              "internalType": "uint256",
              "name": "extraGasLimit",
              "type": "uint256"
            },
            {
              "internalType": "address",
              "name": "zroPaymentAddress",
              "type": "address"
            }
          ],
          "internalType": "struct ICommonData.ISendOptions",
          "name": "options",
          "type": "tuple"
        },
        {
          "components": [
            {
              "internalType": "bool",
              "name": "permitAll",
              "type": "bool"
            },
            {
              "internalType": "bool",
              "name": "allowFailure",
              "type": "bool"
            },
            {
              "internalType": "bool",
              "name": "yieldBoxTypeApproval",
              "type": "bool"
            },
            {
              "internalType": "bool",
              "name": "revokeYieldBox",
              "type": "bool"
            },
            {
              "internalType": "uint16",
              "name": "actionType",
              "type": "uint16"
            },
            {
              "internalType": "address",
              "name": "target",
              "type": "address"
            },
            {
              "internalType": "bool",
              "name": "permitBorrow",
              "type": "bool"
            },
            {
              "internalType": "address",
              "name": "owner",
              "type": "address"
            },
            {
              "internalType": "address",
              "name": "spender",
              "type": "address"
            },
            {
              "internalType": "uint256",
              "name": "value",
              "type": "uint256"
            },
            {
              "internalType": "uint256",
              "name": "deadline",
              "type": "uint256"
            },
            {
              "internalType": "uint8",
              "name": "v",
              "type": "uint8"
            },
            {
              "internalType": "bytes32",
              "name": "r",
              "type": "bytes32"
            },
            {
              "internalType": "bytes32",
              "name": "s",
              "type": "bytes32"
            }
          ],
          "internalType": "struct ICommonData.IApproval[]",
          "name": "approvals",
          "type": "tuple[]"
        },
        {
          "components": [
            {
              "internalType": "bool",
              "name": "permitAll",
              "type": "bool"
            },
            {
              "internalType": "bool",
              "name": "allowFailure",
              "type": "bool"
            },
            {
              "internalType": "bool",
              "name": "yieldBoxTypeApproval",
              "type": "bool"
            },
            {
              "internalType": "bool",
              "name": "revokeYieldBox",
              "type": "bool"
            },
            {
              "internalType": "uint16",
              "name": "actionType",
              "type": "uint16"
            },
            {
              "internalType": "address",
              "name": "target",
              "type": "address"
            },
            {
              "internalType": "bool",
              "name": "permitBorrow",
              "type": "bool"
            },
            {
              "internalType": "address",
              "name": "owner",
              "type": "address"
            },
            {
              "internalType": "address",
              "name": "spender",
              "type": "address"
            },
            {
              "internalType": "uint256",
              "name": "value",
              "type": "uint256"
            },
            {
              "internalType": "uint256",
              "name": "deadline",
              "type": "uint256"
            },
            {
              "internalType": "uint8",
              "name": "v",
              "type": "uint8"
            },
            {
              "internalType": "bytes32",
              "name": "r",
              "type": "bytes32"
            },
            {
              "internalType": "bytes32",
              "name": "s",
              "type": "bytes32"
            }
          ],
          "internalType": "struct ICommonData.IApproval[]",
          "name": "revokes",
          "type": "tuple[]"
        }
      ],
      "name": "sendToYBAndBorrow",
      "outputs": [],
      "stateMutability": "payable",
      "type": "function"
    },
    {
      "inputs": [
        {
          "internalType": "contract ICluster",
          "name": "_cluster",
          "type": "address"
        }
      ],
      "name": "setCluster",
      "outputs": [],
      "stateMutability": "nonpayable",
      "type": "function"
    },
    {
      "inputs": [
        {
          "internalType": "uint16",
          "name": "_version",
          "type": "uint16"
        },
        {
          "internalType": "uint16",
          "name": "_chainId",
          "type": "uint16"
        },
        {
          "internalType": "uint256",
          "name": "_configType",
          "type": "uint256"
        },
        {
          "internalType": "bytes",
          "name": "_config",
          "type": "bytes"
        }
      ],
      "name": "setConfig",
      "outputs": [],
      "stateMutability": "nonpayable",
      "type": "function"
    },
    {
      "inputs": [
        {
          "internalType": "uint256",
          "name": "_slippage",
          "type": "uint256"
        }
      ],
      "name": "setMaxSlippage",
      "outputs": [],
      "stateMutability": "nonpayable",
      "type": "function"
    },
    {
      "inputs": [
        {
          "internalType": "uint16",
          "name": "_dstChainId",
          "type": "uint16"
        },
        {
          "internalType": "uint16",
          "name": "_packetType",
          "type": "uint16"
        },
        {
          "internalType": "uint256",
          "name": "_minGas",
          "type": "uint256"
        }
      ],
      "name": "setMinDstGas",
      "outputs": [],
      "stateMutability": "nonpayable",
      "type": "function"
    },
    {
      "inputs": [
        {
          "internalType": "uint16",
          "name": "_dstChainId",
          "type": "uint16"
        },
        {
          "internalType": "uint256",
          "name": "_size",
          "type": "uint256"
        }
      ],
      "name": "setPayloadSizeLimit",
      "outputs": [],
      "stateMutability": "nonpayable",
      "type": "function"
    },
    {
      "inputs": [
        {
          "internalType": "address",
          "name": "_precrime",
          "type": "address"
        }
      ],
      "name": "setPrecrime",
      "outputs": [],
      "stateMutability": "nonpayable",
      "type": "function"
    },
    {
      "inputs": [
        {
          "internalType": "uint16",
          "name": "_version",
          "type": "uint16"
        }
      ],
      "name": "setReceiveVersion",
      "outputs": [],
      "stateMutability": "nonpayable",
      "type": "function"
    },
    {
      "inputs": [
        {
          "internalType": "uint16",
          "name": "_version",
          "type": "uint16"
        }
      ],
      "name": "setSendVersion",
      "outputs": [],
      "stateMutability": "nonpayable",
      "type": "function"
    },
    {
      "inputs": [
        {
          "internalType": "uint16",
          "name": "_srcChainId",
          "type": "uint16"
        },
        {
          "internalType": "bytes",
          "name": "_path",
          "type": "bytes"
        }
      ],
      "name": "setTrustedRemote",
      "outputs": [],
      "stateMutability": "nonpayable",
      "type": "function"
    },
    {
      "inputs": [
        {
          "internalType": "uint16",
          "name": "_remoteChainId",
          "type": "uint16"
        },
        {
          "internalType": "bytes",
          "name": "_remoteAddress",
          "type": "bytes"
        }
      ],
      "name": "setTrustedRemoteAddress",
      "outputs": [],
      "stateMutability": "nonpayable",
      "type": "function"
    },
    {
      "inputs": [
        {
          "internalType": "bool",
          "name": "_useCustomAdapterParams",
          "type": "bool"
        }
      ],
      "name": "setUseCustomAdapterParams",
      "outputs": [],
      "stateMutability": "nonpayable",
      "type": "function"
    },
    {
      "inputs": [
        {
          "internalType": "uint16",
          "name": "",
          "type": "uint16"
        },
        {
          "internalType": "bytes",
          "name": "",
          "type": "bytes"
        },
        {
          "internalType": "uint256",
          "name": "",
          "type": "uint256"
        },
        {
          "internalType": "address",
          "name": "",
          "type": "address"
        },
        {
          "internalType": "uint256",
          "name": "amountLD",
          "type": "uint256"
        },
        {
          "internalType": "bytes",
          "name": "",
          "type": "bytes"
        }
      ],
      "name": "sgReceive",
      "outputs": [],
      "stateMutability": "nonpayable",
      "type": "function"
    },
    {
      "inputs": [],
      "name": "sharedDecimals",
      "outputs": [
        {
          "internalType": "uint8",
          "name": "",
          "type": "uint8"
        }
      ],
      "stateMutability": "view",
      "type": "function"
    },
    {
      "inputs": [
        {
          "internalType": "bytes4",
          "name": "interfaceId",
          "type": "bytes4"
        }
      ],
      "name": "supportsInterface",
      "outputs": [
        {
          "internalType": "bool",
          "name": "",
          "type": "bool"
        }
      ],
      "stateMutability": "view",
      "type": "function"
    },
    {
      "inputs": [],
      "name": "symbol",
      "outputs": [
        {
          "internalType": "string",
          "name": "",
          "type": "string"
        }
      ],
      "stateMutability": "view",
      "type": "function"
    },
    {
      "inputs": [],
      "name": "token",
      "outputs": [
        {
          "internalType": "address",
          "name": "",
          "type": "address"
        }
      ],
      "stateMutability": "view",
      "type": "function"
    },
    {
      "inputs": [],
      "name": "totalSupply",
      "outputs": [
        {
          "internalType": "uint256",
          "name": "",
          "type": "uint256"
        }
      ],
      "stateMutability": "view",
      "type": "function"
    },
    {
      "inputs": [
        {
          "internalType": "address",
          "name": "to",
          "type": "address"
        },
        {
          "internalType": "uint256",
          "name": "amount",
          "type": "uint256"
        }
      ],
      "name": "transfer",
      "outputs": [
        {
          "internalType": "bool",
          "name": "",
          "type": "bool"
        }
      ],
      "stateMutability": "nonpayable",
      "type": "function"
    },
    {
      "inputs": [
        {
          "internalType": "address",
          "name": "from",
          "type": "address"
        },
        {
          "internalType": "address",
          "name": "to",
          "type": "address"
        },
        {
          "internalType": "uint256",
          "name": "amount",
          "type": "uint256"
        }
      ],
      "name": "transferFrom",
      "outputs": [
        {
          "internalType": "bool",
          "name": "",
          "type": "bool"
        }
      ],
      "stateMutability": "nonpayable",
      "type": "function"
    },
    {
      "inputs": [
        {
          "internalType": "address",
          "name": "newOwner",
          "type": "address"
        }
      ],
      "name": "transferOwnership",
      "outputs": [],
      "stateMutability": "nonpayable",
      "type": "function"
    },
    {
      "inputs": [
        {
          "internalType": "uint16",
          "name": "lzDstChainId",
          "type": "uint16"
        },
        {
          "components": [
            {
              "internalType": "address payable",
              "name": "refundAddress",
              "type": "address"
            },
            {
              "internalType": "address",
              "name": "zroPaymentAddress",
              "type": "address"
            },
            {
              "internalType": "bytes",
              "name": "adapterParams",
              "type": "bytes"
            }
          ],
          "internalType": "struct ICommonOFT.LzCallParams",
          "name": "lzCallParams",
          "type": "tuple"
        },
        {
          "components": [
            {
              "internalType": "bool",
              "name": "permitAll",
              "type": "bool"
            },
            {
              "internalType": "bool",
              "name": "allowFailure",
              "type": "bool"
            },
            {
              "internalType": "bool",
              "name": "yieldBoxTypeApproval",
              "type": "bool"
            },
            {
              "internalType": "bool",
              "name": "revokeYieldBox",
              "type": "bool"
            },
            {
              "internalType": "uint16",
              "name": "actionType",
              "type": "uint16"
            },
            {
              "internalType": "address",
              "name": "target",
              "type": "address"
            },
            {
              "internalType": "bool",
              "name": "permitBorrow",
              "type": "bool"
            },
            {
              "internalType": "address",
              "name": "owner",
              "type": "address"
            },
            {
              "internalType": "address",
              "name": "spender",
              "type": "address"
            },
            {
              "internalType": "uint256",
              "name": "value",
              "type": "uint256"
            },
            {
              "internalType": "uint256",
              "name": "deadline",
              "type": "uint256"
            },
            {
              "internalType": "uint8",
              "name": "v",
              "type": "uint8"
            },
            {
              "internalType": "bytes32",
              "name": "r",
              "type": "bytes32"
            },
            {
              "internalType": "bytes32",
              "name": "s",
              "type": "bytes32"
            }
          ],
          "internalType": "struct ICommonData.IApproval[]",
          "name": "approvals",
          "type": "tuple[]"
        }
      ],
      "name": "triggerApproveOrRevoke",
      "outputs": [],
      "stateMutability": "payable",
      "type": "function"
    },
    {
      "inputs": [
        {
          "internalType": "uint16",
          "name": "lzDstChainId",
          "type": "uint16"
        },
        {
          "internalType": "bytes",
          "name": "airdropAdapterParams",
          "type": "bytes"
        },
        {
          "internalType": "address",
          "name": "zroPaymentAddress",
          "type": "address"
        },
        {
          "internalType": "uint256",
          "name": "amount",
          "type": "uint256"
        },
        {
          "components": [
            {
              "internalType": "address payable",
              "name": "refundAddress",
              "type": "address"
            },
            {
              "internalType": "address",
              "name": "zroPaymentAddress",
              "type": "address"
            },
            {
              "internalType": "bytes",
              "name": "adapterParams",
              "type": "bytes"
            }
          ],
          "internalType": "struct ICommonOFT.LzCallParams",
          "name": "sendFromData",
          "type": "tuple"
        },
        {
          "components": [
            {
              "internalType": "bool",
              "name": "permitAll",
              "type": "bool"
            },
            {
              "internalType": "bool",
              "name": "allowFailure",
              "type": "bool"
            },
            {
              "internalType": "bool",
              "name": "yieldBoxTypeApproval",
              "type": "bool"
            },
            {
              "internalType": "bool",
              "name": "revokeYieldBox",
              "type": "bool"
            },
            {
              "internalType": "uint16",
              "name": "actionType",
              "type": "uint16"
            },
            {
              "internalType": "address",
              "name": "target",
              "type": "address"
            },
            {
              "internalType": "bool",
              "name": "permitBorrow",
              "type": "bool"
            },
            {
              "internalType": "address",
              "name": "owner",
              "type": "address"
            },
            {
              "internalType": "address",
              "name": "spender",
              "type": "address"
            },
            {
              "internalType": "uint256",
              "name": "value",
              "type": "uint256"
            },
            {
              "internalType": "uint256",
              "name": "deadline",
              "type": "uint256"
            },
            {
              "internalType": "uint8",
              "name": "v",
              "type": "uint8"
            },
            {
              "internalType": "bytes32",
              "name": "r",
              "type": "bytes32"
            },
            {
              "internalType": "bytes32",
              "name": "s",
              "type": "bytes32"
            }
          ],
          "internalType": "struct ICommonData.IApproval[]",
          "name": "approvals",
          "type": "tuple[]"
        },
        {
          "components": [
            {
              "internalType": "bool",
              "name": "permitAll",
              "type": "bool"
            },
            {
              "internalType": "bool",
              "name": "allowFailure",
              "type": "bool"
            },
            {
              "internalType": "bool",
              "name": "yieldBoxTypeApproval",
              "type": "bool"
            },
            {
              "internalType": "bool",
              "name": "revokeYieldBox",
              "type": "bool"
            },
            {
              "internalType": "uint16",
              "name": "actionType",
              "type": "uint16"
            },
            {
              "internalType": "address",
              "name": "target",
              "type": "address"
            },
            {
              "internalType": "bool",
              "name": "permitBorrow",
              "type": "bool"
            },
            {
              "internalType": "address",
              "name": "owner",
              "type": "address"
            },
            {
              "internalType": "address",
              "name": "spender",
              "type": "address"
            },
            {
              "internalType": "uint256",
              "name": "value",
              "type": "uint256"
            },
            {
              "internalType": "uint256",
              "name": "deadline",
              "type": "uint256"
            },
            {
              "internalType": "uint8",
              "name": "v",
              "type": "uint8"
            },
            {
              "internalType": "bytes32",
              "name": "r",
              "type": "bytes32"
            },
            {
              "internalType": "bytes32",
              "name": "s",
              "type": "bytes32"
            }
          ],
          "internalType": "struct ICommonData.IApproval[]",
          "name": "revokes",
          "type": "tuple[]"
        }
      ],
      "name": "triggerSendFrom",
      "outputs": [],
      "stateMutability": "payable",
      "type": "function"
    },
    {
      "inputs": [
        {
          "internalType": "address",
          "name": "from",
          "type": "address"
        },
        {
          "internalType": "uint16",
          "name": "lzDstChainId",
          "type": "uint16"
        },
        {
          "internalType": "bytes32",
          "name": "to",
          "type": "bytes32"
        },
        {
          "internalType": "uint256",
          "name": "amount",
          "type": "uint256"
        },
        {
          "components": [
            {
              "internalType": "address payable",
              "name": "refundAddress",
              "type": "address"
            },
            {
              "internalType": "address",
              "name": "zroPaymentAddress",
              "type": "address"
            },
            {
              "internalType": "bytes",
              "name": "adapterParams",
              "type": "bytes"
            }
          ],
          "internalType": "struct ICommonOFT.LzCallParams",
          "name": "callParams",
          "type": "tuple"
        },
        {
          "internalType": "bool",
          "name": "unwrap",
          "type": "bool"
        },
        {
          "components": [
            {
              "internalType": "bool",
              "name": "permitAll",
              "type": "bool"
            },
            {
              "internalType": "bool",
              "name": "allowFailure",
              "type": "bool"
            },
            {
              "internalType": "bool",
              "name": "yieldBoxTypeApproval",
              "type": "bool"
            },
            {
              "internalType": "bool",
              "name": "revokeYieldBox",
              "type": "bool"
            },
            {
              "internalType": "uint16",
              "name": "actionType",
              "type": "uint16"
            },
            {
              "internalType": "address",
              "name": "target",
              "type": "address"
            },
            {
              "internalType": "bool",
              "name": "permitBorrow",
              "type": "bool"
            },
            {
              "internalType": "address",
              "name": "owner",
              "type": "address"
            },
            {
              "internalType": "address",
              "name": "spender",
              "type": "address"
            },
            {
              "internalType": "uint256",
              "name": "value",
              "type": "uint256"
            },
            {
              "internalType": "uint256",
              "name": "deadline",
              "type": "uint256"
            },
            {
              "internalType": "uint8",
              "name": "v",
              "type": "uint8"
            },
            {
              "internalType": "bytes32",
              "name": "r",
              "type": "bytes32"
            },
            {
              "internalType": "bytes32",
              "name": "s",
              "type": "bytes32"
            }
          ],
          "internalType": "struct ICommonData.IApproval[]",
          "name": "approvals",
          "type": "tuple[]"
        },
        {
          "components": [
            {
              "internalType": "bool",
              "name": "permitAll",
              "type": "bool"
            },
            {
              "internalType": "bool",
              "name": "allowFailure",
              "type": "bool"
            },
            {
              "internalType": "bool",
              "name": "yieldBoxTypeApproval",
              "type": "bool"
            },
            {
              "internalType": "bool",
              "name": "revokeYieldBox",
              "type": "bool"
            },
            {
              "internalType": "uint16",
              "name": "actionType",
              "type": "uint16"
            },
            {
              "internalType": "address",
              "name": "target",
              "type": "address"
            },
            {
              "internalType": "bool",
              "name": "permitBorrow",
              "type": "bool"
            },
            {
              "internalType": "address",
              "name": "owner",
              "type": "address"
            },
            {
              "internalType": "address",
              "name": "spender",
              "type": "address"
            },
            {
              "internalType": "uint256",
              "name": "value",
              "type": "uint256"
            },
            {
              "internalType": "uint256",
              "name": "deadline",
              "type": "uint256"
            },
            {
              "internalType": "uint8",
              "name": "v",
              "type": "uint8"
            },
            {
              "internalType": "bytes32",
              "name": "r",
              "type": "bytes32"
            },
            {
              "internalType": "bytes32",
              "name": "s",
              "type": "bytes32"
            }
          ],
          "internalType": "struct ICommonData.IApproval[]",
          "name": "revokes",
          "type": "tuple[]"
        }
      ],
      "name": "triggerSendFromWithParams",
      "outputs": [],
      "stateMutability": "payable",
      "type": "function"
    },
    {
      "inputs": [
        {
          "internalType": "uint16",
          "name": "",
          "type": "uint16"
        }
      ],
      "name": "trustedRemoteLookup",
      "outputs": [
        {
          "internalType": "bytes",
          "name": "",
          "type": "bytes"
        }
      ],
      "stateMutability": "view",
      "type": "function"
    },
    {
      "inputs": [
        {
          "internalType": "address",
          "name": "_toAddress",
          "type": "address"
        },
        {
          "internalType": "uint256",
          "name": "_amount",
          "type": "uint256"
        }
      ],
      "name": "unwrap",
      "outputs": [],
      "stateMutability": "nonpayable",
      "type": "function"
    },
    {
      "inputs": [],
      "name": "useCustomAdapterParams",
      "outputs": [
        {
          "internalType": "bool",
          "name": "",
          "type": "bool"
        }
      ],
      "stateMutability": "view",
      "type": "function"
    },
    {
      "inputs": [],
      "name": "vault",
      "outputs": [
        {
          "internalType": "contract TOFTVault",
          "name": "",
          "type": "address"
        }
      ],
      "stateMutability": "view",
      "type": "function"
    },
    {
      "inputs": [
        {
          "internalType": "address",
          "name": "_fromAddress",
          "type": "address"
        },
        {
          "internalType": "address",
          "name": "_toAddress",
          "type": "address"
        },
        {
          "internalType": "uint256",
          "name": "_amount",
          "type": "uint256"
        }
      ],
      "name": "wrap",
      "outputs": [],
      "stateMutability": "payable",
      "type": "function"
    },
    {
      "inputs": [],
      "name": "yieldBox",
      "outputs": [
        {
          "internalType": "contract IYieldBoxBase",
          "name": "",
          "type": "address"
        }
      ],
      "stateMutability": "view",
      "type": "function"
    },
    {
      "stateMutability": "payable",
      "type": "receive"
    }
  ],
  "bytecode": "0x6102206040523462000f9557620073088038038091620000228261022062000fb6565b61022039610220818101911262000f95576200004061022062000fda565b6101c0526200005161024062000fda565b61020052610260516001600160a01b038116810362000f955761028051916001600160a01b038316830362000f95576102a0516001600160401b03811162000f955781620000a3916102200162001014565b6102c05190916001600160401b03821162000f9557620000c7916102200162001014565b9160c061022001519360ff8516850362000f955761030051610320519095906001600160a01b038116810362000f955761034051916001600160a01b038316830362000f955761036051956001600160a01b038716870362000f9557610380516101a08190526001600160a01b0381160362000f95576103a051946001600160a01b038616860362000f95576103c051966001600160a01b038816880362000f95576103e0519a6001600160a01b038c168c0362000f955761040051946001600160a01b038616860362000f9557610420519b6001600160a01b038d168d0362000f9557604051956a546170696f63614f46542d60a81b6020880152620001ef602b888351620001de818484016020880162000fef565b810103600b81018a52018862000fb6565b62000201604051806101e05262000f9a565b60016101e05152603160f81b60206101e05101526200025a602b60405180936a546170696f63614f46542d60a81b602083015262000249815180926020868601910162000fef565b810103600b81018452018262000fb6565b6200029560216040518094601d60fa1b602083015262000284815180926020868601910162000fef565b810103600181018552018362000fb6565b60008054336001600160a01b0319821681178355916001600160a01b03909116907f8be0079c531659141344cd1fd0a4f28419497f9722a3daafe3b4186f6b6457e09080a36101c0516001600160a01b0316608052600183901c607f1660a0528051906001600160401b03821162000cb857600b5490600182811c9216801562000f8a575b602083101462000e5c5781601f84931162000f18575b50602090601f831160011462000e895760009262000e7d575b50508160011b916000199060031b1c191617600b555b8051906001600160401b03821162000cb857600c5490600182811c9216801562000e72575b602083101462000e5c5781601f84931162000dea575b50602090601f831160011462000d5b5760009262000d4f575b50508160011b916000199060031b1c191617600c555b60ff620003d56200106f565b1680607f8360011c161162000cfa57607f8260011c1690039060ff821162000ce457604d60ff83161162000ce45760ff809216600a0a60c0526101f460125560018060a01b03610200511660018060a01b0319600f541617600f551660ff19601154161760115560105560018060a01b031660018060a01b0319600d541617600d5560018060a01b031660018060a01b0319600e541617600e5560208151910120976101e0516020815191012089610140528061016052466101005260405199600080516020620072e883398151915260208c015260408b015260608a01524660808a01523060a08a015260a089528860c081011060018060401b0360c08b01111762000cb85760c08901604081905289516020808c019190912060e0523061012052600080516020620072e883398151915261018052601680546001600160a01b039687166001600160a01b031991821681179092556017805498881698821689179055601880549b88169b82168c1790556101a0516019805491891691831682179055601a80549a89169a83168b179055601b80549b89169b83168c179055601c805496891696831687179055601d805497891697831688179055601e80549d9098169c82168d1790975560139092527f4155c2f711f2cdd34f8262ab8fb9b7020a700fe7b6948222152f7670d1fdf34d80548316909b17909a557f7b49122965436243734b7a552847e7503db682b4cbd4d2fd428feb216e8bcdf8805482169093179092557f76aa7d3cd4f559a3c98822aa7e1c37143eb9f80ceff73a5023a8fc3d6d44af61805483169093179092557f0b9d2c0c271bb30544eb78c59bdaebdae2728e5f65814c07768a0abe90ed1923805482169098179097557f0d2a6872ef858a7f8ead18dc4f3f2e8d35c853d47e2816cbb9cdd49202554e0c805488169093179092557f709d0e3cf89777a1e1f9c99632e4494f29b0327befd0df15e277a12d94825795805487169093179092557f8ba6fb577925b0796671c737df59b8aaae861b630513fb12823699e3e0e3ee60805486169093179092557f01413ff7a3b1d5b6c016c061d48e2c7014700c777a29fcd068fff04265813d5d8054851690931790925560056000527ff4b2859895858d6aa26d656e4999d552f6a869b74c43bba7d2a941c4d22c355980549093169091179091556200073b9062000f9a565b600560c0820190815263969bfdc360e01b60e09092019182526103026000526021602052517f29c2124a5cb7c24700bcc1f5010b853ef09e6db4cfab2999cc22aa4111dd55bf91600a82101562000cce5760ff64ffffffff008454925160d81c1692169064ffffffffff191617179055604051620007b98162000f9a565b60058152634db96f5560e01b6020808301919091526103036000526021905280517f07170fefedbeaad276828c279c57cabad66747cc4a6814e3cdb6a1d2a430fc7291600a82101562000cce5760ff64ffffffff006020855493015160d81c1692169064ffffffffff191617179055604051620008368162000f9a565b600781526313030a6160e31b6020808301919091526103046000526021905280517f61b27dd54af6a1736ade1980f418a6087d57d828c35d1c56806e140b6b963d9691600a82101562000cce5760ff64ffffffff006020855493015160d81c1692169064ffffffffff191617179055604051620008b38162000f9a565b60078152631789153d60e31b6020808301919091526103076000526021905280517f3ea0eb77286a615efecb79a76768aef6423688813cf748be7f836e2f8eeed7ab91600a82101562000cce5760ff64ffffffff006020855493015160d81c1692169064ffffffffff191617179055604051620009308162000f9a565b6003815263bafb655d60e01b6020808301919091526103086000526021905280517f9b43dd2020d758faa00bcafcc623013905c18fb0417b44edb869279cb436483891600a82101562000cce5760ff64ffffffff006020855493015160d81c1692169064ffffffffff191617179055604051620009ad8162000f9a565b600981526381618d0560e01b6020808301919091526103096000526021905280517fec816068570d53dffa0b0e9052c3d0e4acf1133326aef9625c96c53224542f7091600a82101562000cce5760ff64ffffffff006020855493015160d81c1692169064ffffffffff19161717905560405162000a2a8162000f9a565b6001815263af2ee97560e01b60208083019190915261030a6000526021905280517ff93dfc0454f508b9d12fbe5cef27c0ff8d3ac142731438676eec8ff1a727f9d291600a82101562000cce5760ff64ffffffff006020855493015160d81c1692169064ffffffffff19161717905560405162000aa78162000f9a565b6001815263ee75f25d60e01b60208083019190915261030b6000526021905280517fb7d30da24b21189720d6b9e3246ddc2a924a544c4081528dfb0958989f94dc2991600a82101562000cce5760ff64ffffffff006020855493015160d81c1692169064ffffffffff19161717905560405162000b248162000f9a565b6001815263bda6ce2160e01b602080830191825261030c6000526021905290517f428b9c69a1ae580c18d0483ae9c5f9dc50e029e4c511a6b85ec1fa61ac38e3d391600a82101562000cce5760ff64ffffffff008454925160d81c1692169064ffffffffff1916171790556040516106938082019082821060018060401b0383111762000cb857602091839162006c558339610200516001600160a01b031681520301906000f0801562000cac57602080546001600160a01b0319166001600160a01b0392909216919091179055604051615bcf90816200108682396080518181816105d8015281816108b501528181610c9601528181610e470152818161109801528181612523015281816126c301528181612f5401528181614d880152615058015260a05181611d9a015260c0518181816151ff01528181615325015281816155960152615630015260e051816136790152610100518161373401526101205181613643015261014051816136c8015261016051816136ee015261018051816136a50152f35b6040513d6000823e3d90fd5b634e487b7160e01b600052604160045260246000fd5b634e487b7160e01b600052602160045260246000fd5b634e487b7160e01b600052601160045260246000fd5b60405162461bcd60e51b815260206004820152602760248201527f4f46543a20736861726564446563696d616c73206d757374206265203c3d20646044820152666563696d616c7360c81b6064820152608490fd5b015190503880620003b3565b600c600090815293507fdf6966c971051c3d54ec59162606531493a51404a002842f56009d7e5cf4a8c791905b601f198416851062000dce576001945083601f1981161062000db4575b505050811b01600c55620003c9565b015160001960f88460031b161c1916905538808062000da5565b8181015183556020948501946001909301929091019062000d88565b600c6000529091507fdf6966c971051c3d54ec59162606531493a51404a002842f56009d7e5cf4a8c7601f840160051c81016020851062000e54575b90849392915b601f830160051c8201811062000e445750506200039a565b6000815585945060010162000e2c565b508062000e26565b634e487b7160e01b600052602260045260246000fd5b91607f169162000384565b01519050388062000349565b600b600090815293507f0175b7a638427703f0dbe7bb9bbf987a2551717b34e79f33b5b1008d1fa01db991905b601f198416851062000efc576001945083601f1981161062000ee2575b505050811b01600b556200035f565b015160001960f88460031b161c1916905538808062000ed3565b8181015183556020948501946001909301929091019062000eb6565b600b6000529091507f0175b7a638427703f0dbe7bb9bbf987a2551717b34e79f33b5b1008d1fa01db9601f840160051c81016020851062000f82575b90849392915b601f830160051c8201811062000f7257505062000330565b6000815585945060010162000f5a565b508062000f54565b91607f16916200031a565b600080fd5b604081019081106001600160401b0382111762000cb857604052565b601f909101601f19168101906001600160401b0382119082101762000cb857604052565b51906001600160a01b038216820362000f9557565b60005b838110620010035750506000910152565b818101518382015260200162000ff2565b81601f8201121562000f955780516001600160401b03811162000cb857604051926200104b601f8301601f19166020018562000fb6565b8184526020828401011162000f95576200106c916020808501910162000fef565b90565b60ff6011541680156200107f5790565b5060129056fe6080604052600436101561001b575b361561001957600080fd5b005b60003560e01c80621d3567146104bf57806254af3a146104ba57806301ffc9a7146104b557806306fdde03146104b057806307e0db17146104ab578063095ea7b3146104a65780630df37483146104a15780630ed9e4061461049c5780630fb6ba591461049757806310ddb1371461049257806318160ddd146103f757806323b872dd1461048d578063313ce567146104885780633644e51514610483578063365260b41461047e578063395093511461047957806339f47693146104745780633d8b38f61461046f5780633f1f4fa41461046a57806342d65a8d14610465578063437be6221461046057806343f68a491461045b57806344770515146104565780634c42899a146104565780634e8eeae9146104515780634fd7e9f61461044c57806357ba399b146104475780635b8c41e614610442578063623556381461043d57806366ad5c8a14610438578063695ef6bf1461043357806370a082311461042e578063715018a6146104295780637533d7881461042457806376203b481461041f578063785e9e861461041a578063796fd43a146104155780637c875ea0146104105780637ecebe001461040b578063857749b0146104065780638cfd8f5c146104015780638da5cb5b146103fc5780639358928b146103f7578063950c8a74146103f257806395d89b41146103ed5780639bdb9812146103e85780639f38369a146103e3578063a457c2d7146103de578063a4c51df5146103d9578063a643c52e146103d4578063a6c3d165146103cf578063a9059cbb146103ca578063ab8236f3146103c5578063afa61ff9146103c0578063b25ea8fb146103bb578063b353aaa7146103b6578063baf3292d146103b1578063c20d362f146103ac578063c4461834146103a7578063cbed8b9c146103a2578063d1deba1f1461039d578063d505accf14610398578063dbd01de114610393578063dd62ed3e1461038e578063de40657714610389578063df2a5b3b14610384578063e6a20ae61461037f578063eab45d9c1461037a578063eaffd49a14610375578063eb8d72b714610370578063ed629c5c1461036b578063f2fde38b14610366578063f5ecbdbc14610361578063fbfa77cf1461035c5763fc0c546a0361000e57612fe5565b612fbe565b612ef2565b612e2b565b612e08565b612cbe565b612c39565b612bd7565b612bbb565b612ad6565b612aad565b612a53565b612a2a565b6128c9565b612748565b612677565b61265a565b6125c2565b612552565b61250d565b612497565b6123e0565b612304565b6122da565b612157565b612139565b6120a6565b611fe8565b611f49565b611efe565b611e5a565b611e31565b610cf7565b611e08565b611dbe565b611d80565b611d43565b611cae565b611b30565b611af6565b6118dc565b611889565b611743565b611706565b611627565b6115a1565b61149c565b611435565b611310565b61126f565b6111e2565b611155565b611134565b6110ed565b61107e565b611049565b610fed565b610f21565b610ec5565b610dc1565b610d89565b610d63565b610d41565b610c71565b610bde565b610afb565b6109b2565b61097d565b610890565b6107b0565b6106fe565b6106e0565b6105c1565b6004359061ffff821682036104d557565b600080fd5b6064359061ffff821682036104d557565b6084359061ffff821682036104d557565b6044359061ffff821682036104d557565b6024359061ffff821682036104d557565b359061ffff821682036104d557565b9181601f840112156104d5578235916001600160401b0383116104d557602083818601950101116104d557565b9060806003198301126104d55760043561ffff811681036104d557916001600160401b03906024358281116104d557816105969160040161052d565b9390939260443581811681036104d557926064359182116104d5576105bd9160040161052d565b9091565b346104d5576105cf3661055a565b929493919291907f00000000000000000000000000000000000000000000000000000000000000006001600160a01b031633036106905761065561065d926100199761064e61063461062f8a61ffff166000526001602052604060002090565b61186e565b8051908184149182610686575b5081610663575b50614709565b3691610aa9565b923691610aa9565b92614827565b9050610670368486610aa9565b6020815191012090602081519101201438610648565b1515915038610641565b60405162461bcd60e51b815260206004820152601e60248201527f4c7a4170703a20696e76616c696420656e64706f696e742063616c6c657200006044820152606490fd5b60009103126104d557565b346104d55760003660031901126104d5576020601054604051908152f35b346104d55760203660031901126104d55760043563ffffffff60e01b81168091036104d557602090631f7ecdf760e01b8114908115610743575b506040519015158152f35b6301ffc9a760e01b14905038610738565b60005b8381106107675750506000910152565b8181015183820152602001610757565b9060209161079081518092818552858086019101610754565b601f01601f1916010190565b9060206107ad928181520190610777565b90565b346104d55760008060031936011261088d5760405181600b546107d28161179e565b80845290600190818116908115610865575060011461080c575b610808846107fc81880382610a6d565b6040519182918261079c565b0390f35b600b8352602094507f0175b7a638427703f0dbe7bb9bbf987a2551717b34e79f33b5b1008d1fa01db95b8284106108525750505081610808936107fc92820101936107ec565b8054858501870152928501928101610836565b61080896506107fc9450602092508593915060ff191682840152151560051b820101936107ec565b80fd5b346104d5576000602036600319011261088d576108ab6104c4565b6108b3613000565b7f00000000000000000000000000000000000000000000000000000000000000006001600160a01b0316908290823b1561092757602461ffff918360405195869485936307e0db1760e01b85521660048401525af1801561092257610916575080f35b61091f90610a03565b80f35b6135bc565b5080fd5b6001600160a01b038116036104d557565b600435906109498261092b565b565b602435906109498261092b565b606435906109498261092b565b604435906109498261092b565b35906109498261092b565b346104d55760403660031901126104d5576109a760043561099d8161092b565b6024359033613252565b602060405160018152f35b346104d55760403660031901126104d55761ffff6109ce6104c4565b6109d6613000565b166000526003602052602435604060002055600080f35b634e487b7160e01b600052604160045260246000fd5b6001600160401b038111610a1657604052565b6109ed565b61012081019081106001600160401b03821117610a1657604052565b60c081019081106001600160401b03821117610a1657604052565b604081019081106001600160401b03821117610a1657604052565b90601f801991011681019081106001600160401b03821117610a1657604052565b6001600160401b038111610a1657601f01601f191660200190565b929192610ab582610a8e565b91610ac36040519384610a6d565b8294818452818301116104d5578281602093846000960137010152565b9080601f830112156104d5578160206107ad93359101610aa9565b60c03660031901126104d557600435610b138161092b565b610b1b6104da565b9060843590610b298261092b565b60a435926001600160401b0384116104d557610ba761ffff93610bb593610b57610019973690600401610ae0565b9160405196879563076cf20360e11b602088015260018060a01b038094166024880152602435604488015260443560648801521660848601521660a484015260c060c484015260e4830190610777565b03601f198101835282610a6d565b614160565b60409060a31901126104d55760a490565b6040906101231901126104d55761012490565b60e03660031901126104d557610019600435610bf98161092b565b610c6460243591610c098361092b565b61ffff610c146104eb565b610c1d36610bba565b9260405195630fb6ba5960e01b602088015260018060a01b038092166024880152166044860152604435606486015260643560848601521660a484015260c4830190613b56565b60e48152610bb581610a1b565b346104d5576000602036600319011261088d57610c8c6104c4565b610c94613000565b7f00000000000000000000000000000000000000000000000000000000000000006001600160a01b0316908290823b1561092757602461ffff918360405195869485936310ddb13760e01b85521660048401525af1801561092257610916575080f35b346104d55760003660031901126104d5576020600a54604051908152f35b60609060031901126104d557600435610d2d8161092b565b90602435610d3a8161092b565b9060443590565b346104d5576109a7610d5236610d15565b91610d5e83338361337d565b61314a565b346104d55760003660031901126104d5576020610d7e6137a1565b60ff60405191168152f35b346104d55760003660031901126104d5576020610da4613640565b604051908152f35b801515036104d557565b359061094982610dac565b346104d55760a03660031901126104d557610dda6104c4565b60643590610de782610dac565b608435906001600160401b0382116104d557610e0c61064e604093369060040161052d565b90610e43610e26610e1e604435615594565b602435615665565b928451958694859463040a7bb160e41b8652309060048701614f30565b03817f00000000000000000000000000000000000000000000000000000000000000006001600160a01b03165afa908115610922576000908192610e94575b50604080519182526020820192909252f35b9050610eb7915060403d8111610ebe575b610eaf8183610a6d565b810190614f1a565b9038610e82565b503d610ea5565b346104d55760403660031901126104d557600435610ee28161092b565b3360009081526009602090815260408083206001600160a01b03851684529091529020546024358101809111610f1c576109a79133613252565b613058565b346104d5576000604036600319011261088d57600435610f408161092b565b81602435610f51601054461461445a565b610f5b81336145e6565b6020546001600160a01b0316803b15610faf5760405163f3fef3a360e01b81526001600160a01b03909416600485015260248401919091528290818381604481015b03925af1801561092257610916575080f35b8280fd5b9060406003198301126104d55760043561ffff811681036104d55791602435906001600160401b0382116104d5576105bd9160040161052d565b346104d557602061ffff61103a61100336610fb3565b939091166000526001845261102561102c6040600020604051928380926117d8565b0382610a6d565b848151910120923691610aa9565b82815191012014604051908152f35b346104d55760203660031901126104d55761ffff6110656104c4565b1660005260036020526020604060002054604051908152f35b346104d55761108c36610fb3565b9190611096613000565b7f00000000000000000000000000000000000000000000000000000000000000006001600160a01b031691823b156104d557604051928380926342d65a8d60e01b825281610f9d600098899788946004850161479a565b346104d55760203660031901126104d55760043561110a8161092b565b6001600160a01b031661111e81151561412b565b600e80546001600160a01b031916919091179055005b346104d55760203660031901126104d55761114d613000565b600435601255005b346104d55760003660031901126104d557602060405160008152f35b60c0906101231901126104d55761012490565b908160c09103126104d55790565b60609060a31901126104d55760a490565b908160609103126104d55790565b9181601f840112156104d5578235916001600160401b0383116104d5576020808501946101c085020101116104d557565b366003190161024081126104d55760c0136104d55760603660c31901126104d55761120c36611171565b6001600160401b03906101e4358281116104d55761122e9036906004016111b1565b610204929192358481116104d55761124a9036906004016111b1565b91610224359586116104d55761126761001996369060040161052d565b959094613cfa565b60603660031901126104d5576112836104c4565b6001600160401b036024358181116104d5576112a39036906004016111a3565b6044359182116104d55761001992610ba761130b926112f96112cc61ffff9636906004016111b1565b9190926040519788966327ebf4fb60e11b6020890152166024870152606060448701526084860190613dd7565b84810360231901606486015291613952565b614221565b6101603660031901126104d55761132561093c565b61132d61094b565b6113356104fc565b9161133e610958565b6001600160401b03936084358581116104d55761135f903690600401611184565b61136836611192565b90610104358781116104d5576113829036906004016111b1565b929091610124358981116104d55761139e9036906004016111b1565b969095610144359a8b116104d5576113bd6100199b369060040161052d565b9a9099613a89565b60606003198201126104d55760043561ffff811681036104d557916024356001600160401b03928382116104d5576113ff91600401610ae0565b9160443590811681036104d55790565b602090611429928260405194838680955193849201610754565b82019081520301902090565b346104d557602061149361ffff6114728361144f366113c5565b949091166000526005825260406000208260405194838680955193849201610754565b820190815203019020906001600160401b0316600052602052604060002090565b54604051908152f35b6114a536610d15565b6114b2601054461461445a565b600f546001600160a01b039081166114d05750506100199150614592565b8392919216338103611531575b5061152c82610019946114f182151561412b565b600f5461150e906001600160a01b03165b6001600160a01b031690565b602054909190611526906001600160a01b0316611502565b9161453a565b614492565b600090815260096020908152604080832033845290915290208290541061156d5761152c826100199461156582338361337d565b9450506114dd565b60405162461bcd60e51b815260206004820152600c60248201526b1513d19517d85b1b1bddd95960a21b6044820152606490fd5b346104d5576115af3661055a565b91929493903033036115d3576106556115cd92610019973691610aa9565b926149ef565b60405162461bcd60e51b815260206004820152602660248201527f4e6f6e626c6f636b696e674c7a4170703a2063616c6c6572206d7573742062656044820152650204c7a4170760d41b6064820152608490fd5b60a03660031901126104d55760043561163f8161092b565b61164761050d565b604435916084356001600160401b0381116104d557602061ffff61167e600080516020615b5a8339815191529336906004016111a3565b936116f1853561168d8161092b565b6116ab61064e86890135986116a18a61092b565b6040810190614d06565b6116b5818a615491565b6116ca6116c360643561562e565b5085615838565b976116d6891515614f74565b6116e86116e28a615594565b8c615665565b9234938b615014565b6040519485526001600160a01b0316941692a4005b346104d55760203660031901126104d5576004356117238161092b565b60018060a01b031660005260086020526020604060002054604051908152f35b346104d55760008060031936011261088d5761175d613000565b80546001600160a01b03198116825581906001600160a01b03167f8be0079c531659141344cd1fd0a4f28419497f9722a3daafe3b4186f6b6457e08280a380f35b90600182811c921680156117ce575b60208310146117b857565b634e487b7160e01b600052602260045260246000fd5b91607f16916117ad565b90600092918054916117e98361179e565b91828252600193848116908160001461184b575060011461180b575b50505050565b90919394506000526020928360002092846000945b838610611837575050505001019038808080611805565b805485870183015294019385908201611820565b9294505050602093945060ff191683830152151560051b01019038808080611805565b9061094961188292604051938480926117d8565b0383610a6d565b346104d55760203660031901126104d55761ffff6118a56104c4565b1660005260016020526108086110256118c86040600020604051928380926117d8565b604051918291602083526020830190610777565b60e03660031901126104d5576004356118f48161092b565b6118fc61050d565b604435916001600160401b03906084358281116104d55761192190369060040161052d565b91909260a43591818316918284036104d55760c4359081116104d55761194b9036906004016111a3565b9261198284359561195b8761092b565b61197a6119706020880135976116a18961092b565b9990923691610aa9565b973691610aa9565b9460ff60065416600014611a75576022865110611a3057856020956116e86116f1946119fe8c6119eb61ffff9a8b6022600080516020615b5a8339815191529f0151931660005260028d526119e560406000206001600052602052604060002090565b5461308a565b906119f78215156154e6565b1015615532565b611a13611a0c60643561562e565b5088615838565b9a611a1f8c1515614f74565b8d611a298d615594565b90336156f2565b60405162461bcd60e51b815260206004820152601c60248201527f4c7a4170703a20696e76616c69642061646170746572506172616d73000000006044820152606490fd5b948094935051611aa257600080516020615b5a8339815191529460209461ffff946116e86116f1946119fe565b60405162461bcd60e51b815260206004820152602660248201527f4f4654436f72653a205f61646170746572506172616d73206d7573742062652060448201526532b6b83a3c9760d11b6064820152608490fd5b346104d55760003660031901126104d557600f546040516001600160a01b039091168152602090f35b60809060831901126104d557608490565b60031961010036820181136104d55760243591611b4c8361092b565b604435926001600160401b03918285116104d55760e0856004019186360301126104d5576064359283116104d557610ba7611c9e61001996611b95611ca99636906004016111a3565b611c8d611c7c60c4611c75611ba936611b1f565b986040519c8d9b8c6020633cb7ea1d60e11b9101528c602460043591015260018060a01b031660448d015260648c015280356101248c015261ffff80611bf160248a0161051e565b166101448d0152611c046044890161051e565b166101648c0152611c2d6064880135611c1c8161092b565b6001600160a01b03166101848d0152565b611c61611c568c610204611c4460848c01866137b6565b91909260e06101a482015201916137e7565b9160a48901906137b6565b8c830361012319016101c48e0152906137e7565b9401610972565b6001600160a01b03166101e4880152565b858203602319016084870152613808565b9160a484019061384c565b614274565b6101003660031901126104d557600435611cc78161092b565b611ccf61050d565b6001600160401b03916084358381116104d557611cf09036906004016111a3565b60a43590611cfd82610dac565b60c4358581116104d557611d159036906004016111b1565b92909160e4359687116104d557611d336100199736906004016111b1565b9690956064359160443591613e17565b346104d55760203660031901126104d557600435611d608161092b565b60018060a01b031660005260146020526020604060002054604051908152f35b346104d55760003660031901126104d557602060405160ff7f0000000000000000000000000000000000000000000000000000000000000000168152f35b346104d55760403660031901126104d5576020611493611ddc6104c4565b61ffff611de761050d565b91166000526002835260406000209061ffff16600052602052604060002090565b346104d55760003660031901126104d5576000546040516001600160a01b039091168152602090f35b346104d55760003660031901126104d5576004546040516001600160a01b039091168152602090f35b346104d55760008060031936011261088d5760405181600c54611e7c8161179e565b808452906001908181169081156108655750600114611ea557610808846107fc81880382610a6d565b600c8352602094507fdf6966c971051c3d54ec59162606531493a51404a002842f56009d7e5cf4a8c75b828410611eeb5750505081610808936107fc92820101936107ec565b8054858501870152928501928101611ecf565b346104d557602060ff611f3d61ffff61147284611f1a366113c5565b949091166000526007825260406000208260405194838680955193849201610754565b54166040519015158152f35b346104d55760203660031901126104d55761ffff611f656104c4565b166000526001602052611025611f856040600020604051928380926117d8565b805115611fa3576107fc81611f9d6108089351614809565b90615912565b60405162461bcd60e51b815260206004820152601d60248201527f4c7a4170703a206e6f20747275737465642070617468207265636f72640000006044820152606490fd5b346104d55760403660031901126104d5576004356120058161092b565b602435903360005260096020526120328160406000209060018060a01b0316600052602052604060002090565b54918083106120535761204792039033613252565b60405160018152602090f35b60405162461bcd60e51b815260206004820152602560248201527f45524332303a2064656372656173656420616c6c6f77616e63652062656c6f77604482015264207a65726f60d81b6064820152608490fd5b346104d55760e03660031901126104d5576120bf6104c4565b6001600160401b03906064358281116104d5576120e090369060040161052d565b60849291923584811681036104d55760a435916120fc83610dac565b60c4359586116104d55761211761212796369060040161052d565b9590946044359060243590614d38565b60408051928352602083019190915290f35b346104d55760003660031901126104d5576020601254604051908152f35b346104d55761216536610fb3565b9061216e613000565b6040519260209280838587013761219a6034868381013060601b88820152036014810188520186610a6d565b60009361ffff8316855260019081815260408620918751916001600160401b038311610a16576121d4836121ce865461179e565b866147b5565b80601f84116001146122445750918080926122339695948a9b7f8c0400cfe2d1199b1a725c78960bcc2a344d869b80590d0f2bd005db15a572ce9b94612239575b50501b916000199060031b1c19161790555b6040519384938461479a565b0390a180f35b015192503880612215565b91939498601f19841661225c87600052602060002090565b938a905b8282106122c3575050917f8c0400cfe2d1199b1a725c78960bcc2a344d869b80590d0f2bd005db15a572ce999a95939185612233989694106122aa575b505050811b019055612227565b015160001960f88460031b161c1916905538808061229d565b808886978294978701518155019601940190612260565b346104d55760403660031901126104d5576109a76004356122fa8161092b565b602435903361314a565b346104d55760c03660031901126104d55761231d6104c4565b506001600160401b036024358181116104d55761233e903690600401610ae0565b5061234a60643561092b565b6084359060a4359081116104d557612366903690600401610ae0565b50600f546001600160a01b0391908216806123d25750602054909150612394906001600160a01b0316611502565b803b156104d557600090600460405180948193636db5a92360e11b83525af18015610922576123bf57005b806123cc61001992610a03565b806106d5565b610019926020541690613f51565b6101a03660031901126104d5576123f561093c565b6123fd61094b565b6124056104fc565b6001600160401b0392906064358481116104d55761242790369060040161052d565b61243392919236611b1f565b610104358781116104d55761244c903690600401611184565b9061245636610bcb565b92610164358981116104d5576124709036906004016111b1565b969095610184359a8b116104d55761248f6100199b36906004016111b1565b9a9099613b77565b346104d55760403660031901126104d5576024356124b48161092b565b6124bc613000565b60008080808094600435905af16124d161406a565b50156124da5780f35b60405162461bcd60e51b815260206004820152600b60248201526a1513d19517d1985a5b195960aa1b6044820152606490fd5b346104d55760003660031901126104d5576040517f00000000000000000000000000000000000000000000000000000000000000006001600160a01b03168152602090f35b346104d55760203660031901126104d5577f5db758e995a17ec1ad84bdef7e8c3293a0bd6179bcce400dff5d4c3d87db726b60206004356125928161092b565b61259a613000565b600480546001600160a01b0319166001600160a01b03929092169182179055604051908152a1005b60e03660031901126104d5576125d66104c4565b6001600160401b03906024358281116104d5576125f790369060040161052d565b91612600610965565b6084358581116104d5576126189036906004016111a3565b60a4358681116104d5576126309036906004016111b1565b93909260c4359788116104d55761264e6100199836906004016111b1565b97909660643593613ec0565b346104d55760003660031901126104d55760206040516127108152f35b346104d55760803660031901126104d5576126906104c4565b61269861050d565b6064356001600160401b0381116104d5576126b790369060040161052d565b90926126c1613000565b7f00000000000000000000000000000000000000000000000000000000000000006001600160a01b031690813b156104d55760008094612738604051978896879586946332fb62e760e21b865261ffff809216600487015216602485015260443560448501526080606485015260848401916137e7565b03925af18015610922576123bf57005b6127513661055a565b9161ffff8694929616600052600560205261279881604060002060206040518092878b833787820190815203019020906001600160401b0316600052602052604060002090565b5491821561285a5761284984836128427fc264d91f3adc5588250e1551f547752ca0cfa8f6b530d243b9f9f4cab10ea8e59a600061282e846128168e8a8f6128559f908f6127fc906127ef6128109436908d610aa9565b6020815191012014614c79565b61ffff166000526005602052604060002090565b91614c60565b906001600160401b0316600052602052604060002090565b5561283a36878d610aa9565b933691610aa9565b91886149ef565b60405195869586614ccf565b0390a1005b60405162461bcd60e51b815260206004820152602360248201527f4e6f6e626c6f636b696e674c7a4170703a206e6f2073746f726564206d65737360448201526261676560e81b6064820152608490fd5b6084359060ff821682036104d557565b359060ff821682036104d557565b346104d55760e03660031901126104d5576004356128e68161092b565b6024356128f28161092b565b60443590606435926129026128ab565b938042116129e5576129cd6129e0916129a7610019976129b56129408760018060a01b03166000526014602052604060002090815491600183019055565b604080517f6e71edae12b1b97f4d1f60370fef10105fa2faae0126114a169c64845d6126c9602082019081526001600160a01b03808c1693830193909352918b166060820152608081018c905260a081019290925260c082019590955292839060e0820190565b03601f198101845283610a6d565b6129c860c4359360a4359351902061375a565b613461565b6001600160a01b03838116911614613415565b613252565b60405162461bcd60e51b815260206004820152601d60248201527f45524332305065726d69743a206578706972656420646561646c696e650000006044820152606490fd5b346104d55760003660031901126104d557600e546040516001600160a01b039091168152602090f35b346104d55760403660031901126104d5576020611493600435612a758161092b565b60243590612a828261092b565b60018060a01b03166000526009835260406000209060018060a01b0316600052602052604060002090565b346104d55760003660031901126104d557600d546040516001600160a01b039091168152602090f35b346104d55760603660031901126104d557612aef6104c4565b612af761050d565b60443591612b03613000565b8215612b7e576128557f9d5c7c0b934da8fefa9c7760c98383778a12dfbfc0c3b3106518f43fb9508ac09361ffff8316600052600260205280612b588560406000209061ffff16600052602052604060002090565b556040519384938460409194939294606082019561ffff80921683521660208201520152565b60405162461bcd60e51b81526020600482015260156024820152744c7a4170703a20696e76616c6964206d696e47617360581b6044820152606490fd5b346104d55760003660031901126104d557602060405160018152f35b346104d55760203660031901126104d5577f1584ad594a70cbe1e6515592e1272a987d922b097ead875069cebe8b40c004a46020600435612c1781610dac565b612c1f613000565b151560ff196006541660ff821617600655604051908152a1005b346104d5576101003660031901126104d557612c536104c4565b6001600160401b03906024358281116104d557612c7490369060040161052d565b91906044359084821682036104d557608435612c8f8161092b565b60c4359586116104d557612caa61001996369060040161052d565b94909360e4359660a4359460643593614e2e565b346104d557612ccc36610fb3565b9190612cd6613000565b60009161ffff81168352600160209080825260408520916001600160401b038711610a1657612d0f87612d09855461179e565b856147b5565b8590601f8811600114612d765750918680879893612233957ffa41487ad5d6728f0b19276fa1eddc16558578f5109fc39d2dc33c3230470dab9993612d6b575b501b906000198460031b1c19161790556040519384938461479a565b880135925038612d4f565b90601f198816612d8b85600052602060002090565b9288905b828210612df1575050918893917ffa41487ad5d6728f0b19276fa1eddc16558578f5109fc39d2dc33c3230470dab9899612233969410612dd7575b505082811b019055612227565b870135600019600386901b60f8161c191690553880612dca565b808685968294968c01358155019501930190612d8f565b346104d55760003660031901126104d557602060ff600654166040519015158152f35b346104d55760203660031901126104d557600435612e488161092b565b612e50613000565b6001600160a01b039081168015612e9e57600080546001600160a01b03198116831782559092167f8be0079c531659141344cd1fd0a4f28419497f9722a3daafe3b4186f6b6457e08380a380f35b60405162461bcd60e51b815260206004820152602660248201527f4f776e61626c653a206e6577206f776e657220697320746865207a65726f206160448201526564647265737360d01b6064820152608490fd5b346104d55760803660031901126104d557612f0b6104c4565b612f1361050d565b90612f1f60443561092b565b604051633d7b2f6f60e21b815261ffff91821660048201529116602482015230604482015260648035908201526000816084817f00000000000000000000000000000000000000000000000000000000000000006001600160a01b03165afa80156109225761080891600091612f9d575b506040519182918261079c565b612fb8913d8091833e612fb08183610a6d565b810190614764565b38612f90565b346104d55760003660031901126104d557602080546040516001600160a01b039091168152f35b346104d55760003660031901126104d5576020604051308152f35b6000546001600160a01b0316330361301457565b606460405162461bcd60e51b815260206004820152602060248201527f4f776e61626c653a2063616c6c6572206973206e6f7420746865206f776e65726044820152fd5b634e487b7160e01b600052601160045260246000fd5b90601f8201809211610f1c57565b6051019081605111610f1c57565b91908201809211610f1c57565b1561309e57565b60405162461bcd60e51b815260206004820152602360248201527f45524332303a207472616e7366657220746f20746865207a65726f206164647260448201526265737360e81b6064820152608490fd5b156130f657565b60405162461bcd60e51b815260206004820152602660248201527f45524332303a207472616e7366657220616d6f756e7420657863656564732062604482015265616c616e636560d01b6064820152608490fd5b916001600160a01b0380841692909183156131ff576131e482600080516020615b7a833981519152946131fa941696613184881515613097565b6001600160a01b03811660009081526008602052604090206131c9908590546131af828210156130ef565b039160018060a01b03166000526008602052604060002090565b556001600160a01b0316600090815260086020526040902090565b8054820190556040519081529081906020820190565b0390a3565b60405162461bcd60e51b815260206004820152602560248201527f45524332303a207472616e736665722066726f6d20746865207a65726f206164604482015264647265737360d81b6064820152608490fd5b6001600160a01b03808216929190831561332c5782169384156132dc57806132cb7f8c5be1e5ebec7d5bd14f71427d1e84f3dd0314c0f7b2291e5b200ac8c7c3b925946132b46131fa9560018060a01b03166000526009602052604060002090565b9060018060a01b0316600052602052604060002090565b556040519081529081906020820190565b60405162461bcd60e51b815260206004820152602260248201527f45524332303a20617070726f766520746f20746865207a65726f206164647265604482015261737360f01b6064820152608490fd5b60405162461bcd60e51b8152602060048201526024808201527f45524332303a20617070726f76652066726f6d20746865207a65726f206164646044820152637265737360e01b6064820152608490fd5b6001600160a01b0380821660009081526009602090815260408083209386168352929052209091905492600184016133b55750505050565b8084106133d0576133c7930391613252565b38808080611805565b60405162461bcd60e51b815260206004820152601d60248201527f45524332303a20696e73756666696369656e7420616c6c6f77616e63650000006044820152606490fd5b1561341c57565b60405162461bcd60e51b815260206004820152601e60248201527f45524332305065726d69743a20696e76616c6964207369676e617475726500006044820152606490fd5b916107ad9391613470936135c8565b91909161349d565b634e487b7160e01b600052602160045260246000fd5b6005111561349857565b613478565b6134a68161348e565b806134ae5750565b6134b78161348e565b600181036135035760405162461bcd60e51b815260206004820152601860248201527745434453413a20696e76616c6964207369676e617475726560401b6044820152606490fd5b0390fd5b61350c8161348e565b600281036135595760405162461bcd60e51b815260206004820152601f60248201527f45434453413a20696e76616c6964207369676e6174757265206c656e677468006044820152606490fd5b8061356560039261348e565b1461356c57565b60405162461bcd60e51b815260206004820152602260248201527f45434453413a20696e76616c6964207369676e6174757265202773272076616c604482015261756560f01b6064820152608490fd5b6040513d6000823e3d90fd5b9291906fa2a8918ca85bafe22016d0b997e4df60600160ff1b0383116136345791608094939160ff602094604051948552168484015260408301526060820152600093849182805260015afa156109225781516001600160a01b0381161561362e579190565b50600190565b50505050600090600390565b307f00000000000000000000000000000000000000000000000000000000000000006001600160a01b03161480613731575b1561369b577f000000000000000000000000000000000000000000000000000000000000000090565b60405160208101907f000000000000000000000000000000000000000000000000000000000000000082527f000000000000000000000000000000000000000000000000000000000000000060408201527f000000000000000000000000000000000000000000000000000000000000000060608201524660808201523060a082015260a0815261372b81610a37565b51902090565b507f00000000000000000000000000000000000000000000000000000000000000004614613672565b613762613640565b9060405190602082019261190160f01b84526022830152604282015260428152608081018181106001600160401b03821117610a165760405251902090565b60ff6011541680156137b05790565b50601290565b9035601e19823603018112156104d55701602081359101916001600160401b0382116104d55781360383136104d557565b908060209392818452848401376000828201840152601f01601f1916010190565b90606061383c6107ad93803561381d8161092b565b6001600160a01b031684526020818101359085015260408101906137b6565b91909281604082015201916137e7565b6060908181359161385c8361092b565b6001600160a01b0392831685528260208201356138788161092b565b16602086015282604082013561388d8161092b565b166040860152013561389e8161092b565b16910152565b9081356138b081610dac565b151581526020820135602082015260408201356138cc81610dac565b1515604082015261ffff6138e26060840161051e565b16606082015260a08061390c6138fb60808601866137b6565b60c0608087015260c08601916137e7565b93013561391881610dac565b151591015290565b60409080358352816020820135916139378361092b565b6001600160a01b039283166020860152013561389e8161092b565b9190808252602080920192916000905b828210613970575050505090565b909192938061398a60019261398488610db6565b15159052565b6139a0613998848801610db6565b151582850152565b6139b860406139b0818901610db6565b151590830152565b6139c860606139b0818901610db6565b6139e260806139d881890161051e565b61ffff1690830152565b613a0160a06139f2818901610972565b6001600160a01b031690830152565b613a1160c06139b0818901610db6565b613a2160e06139f2818901610972565b613a326101006139f2818901610972565b61012080870135908201526101408087013590820152613a62610160613a598189016128bb565b60ff1690830152565b61018086810135908201526101a080870135908201526101c0908101950193920190613962565b6040516357ba399b60e01b60208201526001600160a01b039182166024820152918116604483015261ffff90921660648201529116608482015261016060a48201529788979694959094909390929091613ae8906101848a01906138a4565b9060c48901613af691613920565b6023199586898303016101248a0152613b0e92613952565b908487830301610144880152613b2392613952565b9184830301610164850152613b37926137e7565b03601f1981018252613b499082610a6d565b613b52906142c7565b5050565b60208091803584520135613b698161092b565b6001600160a01b0316910152565b60405163afa61ff960e01b60208201526001600160a01b039182166024820152918116604483015261ffff90921660648201526101a06084820152998a99989497909690959094939092613bd0916101c48c01916137e7565b96803560a48b0152602081013560c48b0152816040820135613bf18161092b565b1660e48b015260600135613c048161092b565b166101048901526023199586898203016101248a0152613c23916138a4565b916101448801613c3291613b56565b8487830301610184880152613c4692613952565b91848303016101a4850152613b3792613952565b60c43561ffff81168091036104d557815260e435613c778161092b565b6001600160a01b0316602082015261010435604090910152565b60a080918035613ca081610dac565b151584526020810135613cb28161092b565b600180841b03809116602086015261ffff613ccf6040840161051e565b166040860152606082013560608601526080820135613ced8161092b565b1660808501520135910152565b929095613d9995613dc2613dd296613dad613b529a610ba7976040519b8c9a634e8eeae960e01b60208d0152600435613d328161092b565b8c602460018060a01b038093169101528c604482602435613d528161092b565b169101528c60646044359101528c6084606435910152608435613d748161092b565b1660a48d015260a43560c48d0152613d8e60e48d01613c5a565b6101448c0190613c91565b6102406102048b01526102648a0191613952565b906023199586898403016102248a0152613952565b92858403016102448601526137e7565b61431a565b90606061383c6107ad938035613dec8161092b565b6001600160a01b0390811685526020820135613e078161092b565b16602085015260408101906137b6565b6040516303e43af560e51b60208201526001600160a01b03909116602482015261ffff90911660448201526064810191909152608481019190915261010060a4820152958695949390929091613e7290610124880190613dd7565b90151560c487015260231993848783030160e4880152613e9192613952565b9184830301610104850152613ea592613952565b03601f1981018252613eb79082610a6d565b613b529061431a565b97969295939098949198604051998a9963c20d362f60e01b60208c015261ffff1660248b015260448a0160e090526101048a0190613efd926137e7565b6001600160a01b039096166064890152608488015286850360231990810160a489015294613f2a91613dd7565b90848783030160c4880152613f3e92613952565b918483030160e4850152613ea592613952565b60405163a9059cbb60e01b60208201526001600160a01b039092166024830152604482019290925261094991613f8a82606481016129a7565b604051613fe8916001600160a01b0316613fa382610a52565b6000806020958685527f5361666545524332303a206c6f772d6c6576656c2063616c6c206661696c656487860152868151910182855af1613fe261406a565b9161409a565b805180613ff457505050565b818391810103126104d55781015161400b81610dac565b156140135750565b6084906040519062461bcd60e51b82526004820152602a60248201527f5361666545524332303a204552433230206f7065726174696f6e20646964206e6044820152691bdd081cdd58d8d9595960b21b6064820152fd5b3d15614095573d9061407b82610a8e565b916140896040519384610a6d565b82523d6000602084013e565b606090565b919290156140fc57508151156140ae575090565b3b156140b75790565b60405162461bcd60e51b815260206004820152601d60248201527f416464726573733a2063616c6c20746f206e6f6e2d636f6e74726163740000006044820152606490fd5b82519091501561410f5750805190602001fd5b60405162461bcd60e51b81529081906134ff906004830161079c565b1561413257565b60405162461bcd60e51b81526020600482015260066024820152650544f46545f360d41b6044820152606490fd5b600460005260136020527f01413ff7a3b1d5b6c016c061d48e2c7014700c777a29fcd068fff04265813d5d546001600160a01b031680156141ee57816000929160208493519201905af4906141b361406a565b908215806141e6575b6141c257565b6134ff6141ce836143ac565b60405162461bcd60e51b81529182916004830161079c565b5060016141bc565b60405162461bcd60e51b815260206004820152600b60248201526a544f46545f6d6f64756c6560a81b6044820152606490fd5b600160005260136020527f4155c2f711f2cdd34f8262ab8fb9b7020a700fe7b6948222152f7670d1fdf34d546001600160a01b031680156141ee57816000929160208493519201905af4906141b361406a565b600260005260136020527f0b9d2c0c271bb30544eb78c59bdaebdae2728e5f65814c07768a0abe90ed1923546001600160a01b031680156141ee57816000929160208493519201905af4906141b361406a565b600660005260136020527f709d0e3cf89777a1e1f9c99632e4494f29b0327befd0df15e277a12d94825795546001600160a01b031680156141ee57816000929160208493519201905af4906141b361406a565b600860005260136020527f7b49122965436243734b7a552847e7503db682b4cbd4d2fd428feb216e8bcdf8546001600160a01b031680156141ee57816000929160208493519201905af4906141b361406a565b600a111561349857565b9092919261438481610a8e565b916143926040519384610a6d565b8294828452828201116104d5576020610949930190610754565b6103e881511161442d576044815110614407576004810151810190602081602484019303126104d5576024810151906001600160401b0382116104d5570190806043830112156104d55760248201516107ad92604401614377565b5060405161441481610a52565b6009815268544f46545f6461746160b81b602082015290565b5060405161443a81610a52565b601081526f2a27a32a2fa627a723afa922a0a9a7a760811b602082015290565b1561446157565b60405162461bcd60e51b81526020600482015260096024820152681513d19517da1bdcdd60ba1b6044820152606490fd5b6001600160a01b038116919082156144f557600a5490828201809211610f1c576000926144e6602092600080516020615b7a83398151915294600a5560018060a01b03166000526008602052604060002090565b818154019055604051908152a3565b60405162461bcd60e51b815260206004820152601f60248201527f45524332303a206d696e7420746f20746865207a65726f2061646472657373006044820152606490fd5b6040516323b872dd60e01b60208201526001600160a01b03928316602482015292909116604483015260648083019390935291815260a08101918183106001600160401b03841117610a165761094992604052613f8a565b6020546001600160a01b031690813b156104d55760008092600460405180958193636db5a92360e11b83525af191821561092257610949926145d7575b503490614492565b6145e090610a03565b386145cf565b6001600160a01b0381169081156146ba576001600160a01b03811660009081526008602052604090205483811061466a5783600080516020615b7a8339815191529261464c6000966131fa94039160018060a01b03166000526008602052604060002090565b5561465a81600a5403600a55565b6040519081529081906020820190565b60405162461bcd60e51b815260206004820152602260248201527f45524332303a206275726e20616d6f756e7420657863656564732062616c616e604482015261636560f01b6064820152608490fd5b60405162461bcd60e51b815260206004820152602160248201527f45524332303a206275726e2066726f6d20746865207a65726f206164647265736044820152607360f81b6064820152608490fd5b1561471057565b60405162461bcd60e51b815260206004820152602660248201527f4c7a4170703a20696e76616c696420736f757263652073656e64696e6720636f6044820152651b9d1c9858dd60d21b6064820152608490fd5b6020818303126104d5578051906001600160401b0382116104d557019080601f830112156104d55781516107ad92602001614377565b60409061ffff6107ad959316815281602082015201916137e7565b90601f81116147c357505050565b600091825260208220906020601f850160051c830194106147ff575b601f0160051c01915b8281106147f457505050565b8181556001016147e8565b90925082906147df565b601319810191908211610f1c57565b605019810191908211610f1c57565b92909161488b5a604051633356ae4560e11b602082015261ffff871660248201526080604482015290614885826129a761486460a483018a610777565b6001600160401b038816606484015282810360231901608484015288610777565b30615b0e565b93901561489a575b5050505050565b6148a3946148ad565b3880808080614893565b919361494a7fe183f33de2837795525b4792ca4cd60535bd77c53b7e7030060bfcf5734d6b0c95614958939561ffff815160208301209616958660005260056020526149118361147260208b60406000208260405194838680955193849201610754565b556001600160401b03614936604051988998895260a060208a015260a0890190610777565b921660408701528582036060870152610777565b908382036080850152610777565b0390a1565b90604051604081018181106001600160401b03821117610a165760405280925460ff811690600a8210156134985790825260d81b6001600160e01b03191660209190910152565b916107ad959361ffff6149db926001600160401b039460018060a01b0316865216602085015260a0604085015260a0840190610777565b931660608201526080818403910152610777565b9291906149fb83615ac1565b614a19614a12826000526021602052604060002090565b5460ff1690565b614a228161436d565b15614b895793614a47614a42610949966000526021602052604060002090565b61495d565b600060058251614a568161436d565b614a5f8161436d565b03614abf5750601954614a7a906001600160a01b0316611502565b905b614aba614a9f6020835193614a908561436d565b01516001600160e01b03191690565b6129a7888888886040519889966020880152602487016149a4565b614bf0565b60078251614acc8161436d565b614ad58161436d565b03614af65750601b54614af0906001600160a01b0316611502565b90614a7c565b60038251614b038161436d565b614b0c8161436d565b03614b275750601754614af0906001600160a01b0316611502565b60098251614b348161436d565b614b3d8161436d565b03614b585750601d54614af0906001600160a01b0316611502565b60018251614b658161436d565b614b6e8161436d565b03614af05750601e54614af0906001600160a01b0316611502565b50614b9c614b9684615a66565b60ff1690565b80614bad5750505061094991615189565b600103614bbd57610949936152e0565b60405162461bcd60e51b815260206004820152600b60248201526a1513d19517dc1858dad95d60aa1b6044820152606490fd5b9492939194600a811015613498576000908152601360205260409020546001600160a01b031680156141ee57816000929160208493519201905af492614c3461406a565b93158080614c58575b614c4c5761489a575050505050565b6134ff6141ce866143ac565b506000614c3d565b6020919283604051948593843782019081520301902090565b15614c8057565b60405162461bcd60e51b815260206004820152602160248201527f4e6f6e626c6f636b696e674c7a4170703a20696e76616c6964207061796c6f616044820152601960fa1b6064820152608490fd5b91614cfb9060609461ffff6001600160401b0394999897991685526080602086015260808501916137e7565b951660408201520152565b903590601e19813603018212156104d557018035906001600160401b0382116104d5576020019181360383136104d557565b949195989790611a29614d61604099614d59614d6797614d84993691610aa9565b943691610aa9565b97615594565b928451968794859463040a7bb160e41b8652309060048701614f30565b03817f00000000000000000000000000000000000000000000000000000000000000006001600160a01b03165afa918215610922576000908193614dc757509190565b90506105bd91925060403d8111610ebe57610eaf8183610a6d565b93969491614e10906107ad99979461ffff6001600160401b039416875260c0602088015260c08701916137e7565b961660408401526060830152608082015260a08185039101526137e7565b91969792989594939094303303614ed557614e4a90853061585e565b60405181815290946001600160a01b03169390849061ffff8516907fbf551ec93859b170f9b2141bd9298bf3f64322c6f7beb2543a0cb669834118bf90602090a3833b156104d5576000988995614eb8936040519c8d9b8c9a8b98633fe79aed60e11b8a5260048a01614de2565b0393f1801561092257614ec85750565b806123cc61094992610a03565b60405162461bcd60e51b815260206004820152601f60248201527f4f4654436f72653a2063616c6c6572206d757374206265204f4654436f7265006044820152606490fd5b91908260409103126104d5576020825192015190565b91926107ad959361ffff614f5f9316845260018060a01b0316602084015260a0604084015260a0830190610777565b92151560608201526080818403910152610777565b15614f7b57565b60405162461bcd60e51b815260206004820152601960248201527813d19510dbdc994e88185b5bdd5b9d081d1bdbc81cdb585b1b603a1b6044820152606490fd5b92614fe16107ad97959361ffff614fef9416865260c0602087015260c0860190610777565b908482036040860152610777565b6001600160a01b0391821660608401529316608082015280830360a090910152610777565b9461503d9193929561ffff811660005260016020526150446040600020604051948580926117d8565b0384610a6d565b8251156150bc5761505685518261511a565b7f00000000000000000000000000000000000000000000000000000000000000006001600160a01b031693843b156104d5576000966150ab91604051998a988997889662c5803160e81b885260048801614fbc565b03925af1801561092257614ec85750565b60405162461bcd60e51b815260206004820152603060248201527f4c7a4170703a2064657374696e6174696f6e20636861696e206973206e6f742060448201526f61207472757374656420736f7572636560801b6064820152608490fd5b61ffff16600052600360205260406000205490811561517f575b1161513b57565b606460405162461bcd60e51b815260206004820152602060248201527f4c7a4170703a207061796c6f61642073697a6520697320746f6f206c617267656044820152fd5b6127109150615134565b9060ff61519582615a66565b161580615247575b6151a6906156ab565b6151b86151b282615a16565b91615ab1565b6001600160a01b03908183161561523d575b61ffff7fbf551ec93859b170f9b2141bd9298bf3f64322c6f7beb2543a0cb669834118bf926152256020936001600160401b037f0000000000000000000000000000000000000000000000000000000000000000911661561b565b946152308682614492565b60405195865216941692a3565b61dead92506151ca565b50805160291461519d565b98979692936001600160401b0361528460e0989461ffff6152b09995168d5260208d61010091829101528d0190610777565b951660408b015260608a01526001600160a01b0316608089015260a088015286820360c0880152610777565b930152565b6001600160401b036152d560409396959496606084526060840190610777565b951660208201520152565b90916152eb8461575f565b9091615315614a128761281661530f8b61ffff166000526007602052604060002090565b8c61140f565b9161534b6001600160401b0392837f0000000000000000000000000000000000000000000000000000000000000000911661561b565b9288888b8315615447575b505050853b156153fc579461539d9694614885948a946129a7948d996000146153f55750505a925b5a978b6040519a8b9863757fea4d60e11b60208b015260248a01615252565b90156153ea5750906153e561ffff928560207fb8890edbfc1c74692f527444645f95489c3703cc2df42e4a366f5d06fa6cd884969751910120906040519485941696846152b5565b0390a2565b9261094994926148ad565b169261537e565b50506040516001600160a01b039094168452507f9aedf5fdba8716db3b6705ca00150643309995d4f818a249ed6dde6677e7792d975091955085945050602084019250614958915050565b9061281661547c9261547689615461615489979b30614492565b9961ffff166000526007602052604060002090565b9061140f565b805460ff19166001179055565b88888b615356565b60065460ff16156154de576022825110611a305761ffff6022610949930151911660005260026020526154d1604060002060008052602052604060002090565b54906119f78215156154e6565b5051611aa257565b156154ed57565b60405162461bcd60e51b815260206004820152601a60248201527f4c7a4170703a206d696e4761734c696d6974206e6f74207365740000000000006044820152606490fd5b1561553957565b60405162461bcd60e51b815260206004820152601b60248201527f4c7a4170703a20676173206c696d697420697320746f6f206c6f7700000000006044820152606490fd5b634e487b7160e01b600052601260045260246000fd5b7f000000000000000000000000000000000000000000000000000000000000000090811561561657046001600160401b03908181116155d1571690565b60405162461bcd60e51b815260206004820152601a60248201527f4f4654436f72653a20616d6f756e745344206f766572666c6f770000000000006044820152606490fd5b61557e565b81810292918115918404141715610f1c57565b7f0000000000000000000000000000000000000000000000000000000000000000801561561657810690818103908111610f1c5791565b90604051916000602084015260218301526001600160401b0360c01b9060c01b16604182015260298152606081018181106001600160401b03821117610a165760405290565b156156b257565b60405162461bcd60e51b815260206004820152601860248201527713d19510dbdc994e881a5b9d985b1a59081c185e5b1bd85960421b6044820152606490fd5b93926071926107ad94604051968794600160f81b602087015260218601526001600160401b0360c01b809360c01b16604186015260018060a01b0316604985015260c01b16606983015261574f8151809260208686019101610754565b8101036051810184520182610a6d565b90615777600160ff61577085615a66565b16146156ab565b61578082615a16565b9061578a83615ab1565b9060498451106157fb5760498401519360518151106157bf576157bc6051820151916157b68151614818565b90615992565b91565b60405162461bcd60e51b8152602060048201526014602482015273746f55696e7436345f6f75744f66426f756e647360601b6044820152606490fd5b60405162461bcd60e51b8152602060048201526015602482015274746f427974657333325f6f75744f66426f756e647360581b6044820152606490fd5b6107ad9082906001600160a01b03811633146145e65761585982338361337d565b6145e6565b6107ad9183916001600160a01b03811630811415908161588a575b501561314a57610d5e83338361337d565b905033141538615879565b1561589c57565b60405162461bcd60e51b815260206004820152600e60248201526d736c6963655f6f766572666c6f7760901b6044820152606490fd5b156158d957565b60405162461bcd60e51b8152602060048201526011602482015270736c6963655f6f75744f66426f756e647360781b6044820152606490fd5b6159268261591f8161306e565b1015615895565b61593382825110156158d2565b8161594b575050604051600081526020810160405290565b60405191601f811691821560051b808486010193838501920101905b80841061597f5750508252601f01601f191660405290565b9092835181526020809101930190615967565b61599f8261591f8161306e565b6159b481516159ad8461307c565b11156158d2565b816159cc575050604051600081526020810160405290565b60405191601f8116916051831560051b80858701019484860193010101905b808410615a035750508252601f01601f191660405290565b90928351815260208091019301906159eb565b6021815110615a2957602d015160601c90565b60405162461bcd60e51b8152602060048201526015602482015274746f416464726573735f6f75744f66426f756e647360581b6044820152606490fd5b6001815110615a76576001015190565b60405162461bcd60e51b8152602060048201526013602482015272746f55696e74385f6f75744f66426f756e647360681b6044820152606490fd5b60298151106157bf576029015190565b6020815110615ad1576020015190565b60405162461bcd60e51b8152602060048201526015602482015274746f55696e743235365f6f75744f66426f756e647360581b6044820152606490fd5b9092916000809160405195615b2287610a37565b6096875282602088019560a036883760208451940192f1903d9060968211615b50575b6000908286523e9190565b60969150615b4556fed81fc9b8523134ed613870ed029d6170cbb73aa6a6bc311b9a642689fb9df59addf252ad1be2c89b69c2b068fc378daa952ba7f163c4a11628f55a4df523b3efa264697066735822122027ae9fbb7f62a33210631e9cc0281d91f89a430ec51eb2b40a70a52801736ce464736f6c634300081200336080346100be57601f61069338819003918201601f19168301916001600160401b038311848410176100c3578084926020946040528339810103126100be57516001600160a01b0390818116908190036100be576000543360018060a01b0319821617600055604051923391167f8be0079c531659141344cd1fd0a4f28419497f9722a3daafe3b4186f6b6457e0600080a3600180546001600160a81b0319168217911560a01b60ff60a01b169190911790556105b990816100da8239f35b600080fd5b634e487b7160e01b600052604160045260246000fdfe60406080815260048036101561001f575b5050361561001d57600080fd5b005b600091823560e01c8063715018a6146103f35780638da5cb5b146103cb578063b08ff105146103a3578063db6b5246146102f1578063f2fde38b1461022e5763f3fef3a31461006e5750610010565b3461022a578060031936011261022a5782610087610450565b6024359061009361046b565b60015460ff8160a01c16600014610152575082809281925af13d1561014d573d67ffffffffffffffff811161013a578251906100d9601f8201601f1916602001836104c3565b81528460203d92013e5b156100ed57505080f35b906020608492519162461bcd60e51b8352820152602160248201527f544f46545661756c743a206e6174697665207472616e73666572206661696c656044820152601960fa1b6064820152fd5b634e487b7160e01b855260418452602485fd5b6100e3565b845163a9059cbb60e01b81526001600160a01b039283168782015260248101939093529192602092849260449284929091165af19081156102205784916101e2575b501561019f57505080f35b906020606492519162461bcd60e51b8352820152601a60248201527f544f46545661756c743a207472616e73666572206661696c65640000000000006044820152fd5b90506020813d8211610218575b816101fc602093836104c3565b81010312610214575180151581036102145738610194565b8380fd5b3d91506101ef565b82513d86823e3d90fd5b8280fd5b50903461022a57602036600319011261022a57610249610450565b9061025261046b565b6001600160a01b0391821692831561029f57505082546001600160a01b0319811683178455167f8be0079c531659141344cd1fd0a4f28419497f9722a3daafe3b4186f6b6457e08380a380f35b906020608492519162461bcd60e51b8352820152602660248201527f4f776e61626c653a206e6577206f776e657220697320746865207a65726f206160448201526564647265737360d01b6064820152fd5b508260031936011261022a5761030561046b565b60ff60015460a01c161561036057341561031d578280f35b906020606492519162461bcd60e51b8352820152601b60248201527f544f46545661756c743a20616d6f756e74206e6f742076616c696400000000006044820152fd5b906020606492519162461bcd60e51b8352820152601a60248201527f544f46545661756c743a20646966666572656e7420746f6b656e0000000000006044820152fd5b8382346103c757816003193601126103c7576020906103c06104fb565b9051908152f35b5080fd5b8382346103c757816003193601126103c757905490516001600160a01b039091168152602090f35b833461044d578060031936011261044d5761040c61046b565b80546001600160a01b03198116825581906001600160a01b03167f8be0079c531659141344cd1fd0a4f28419497f9722a3daafe3b4186f6b6457e08280a380f35b80fd5b600435906001600160a01b038216820361046657565b600080fd5b6000546001600160a01b0316330361047f57565b606460405162461bcd60e51b815260206004820152602060248201527f4f776e61626c653a2063616c6c6572206973206e6f7420746865206f776e65726044820152fd5b90601f8019910116810190811067ffffffffffffffff8211176104e557604052565b634e487b7160e01b600052604160045260246000fd5b60015460ff8160a01c1661057e576040516370a0823160e01b815230600482015290602090829060249082906001600160a01b03165afa90811561057257600091610544575090565b906020823d821161056a575b8161055d602093836104c3565b8101031261044d57505190565b3d9150610550565b6040513d6000823e3d90fd5b50479056fea26469706673582212206e8253e85e77070f514a87ff8e8e4f39d4be186f2e259c2ead1477cf0454b03a64736f6c634300081200338b73c3c69bb8fe3d512ecc4cf759cc79239f7b179b0ffacaa9a75d522b39400f",
  "linkReferences": {},
  "deployedLinkReferences": {}
}