{
  "_format": "hh-sol-artifact-1",
  "contractName": "TapiocaOFT",
  "sourceName": "contracts/tOFT/TapiocaOFT.sol",
  "abi": [
    {
      "inputs": [
        {
          "internalType": "address",
          "name": "_lzEndpoint",
          "type": "address"
        },
        {
          "internalType": "address",
          "name": "_erc20",
          "type": "address"
        },
        {
          "internalType": "contract IYieldBoxBase",
          "name": "_yieldBox",
          "type": "address"
        },
        {
          "internalType": "contract ICluster",
          "name": "_cluster",
          "type": "address"
        },
        {
          "internalType": "string",
          "name": "_name",
          "type": "string"
        },
        {
          "internalType": "string",
          "name": "_symbol",
          "type": "string"
        },
        {
          "internalType": "uint8",
          "name": "_decimal",
          "type": "uint8"
        },
        {
          "internalType": "uint256",
          "name": "_hostChainID",
          "type": "uint256"
        },
        {
          "internalType": "address payable",
          "name": "_leverageModule",
          "type": "address"
        },
        {
          "internalType": "address payable",
          "name": "_strategyModule",
          "type": "address"
        },
        {
          "internalType": "address payable",
          "name": "_marketModule",
          "type": "address"
        },
        {
          "internalType": "address payable",
          "name": "_optionsModule",
          "type": "address"
        }
      ],
      "stateMutability": "nonpayable",
      "type": "constructor"
    },
    {
      "anonymous": false,
      "inputs": [
        {
          "indexed": true,
          "internalType": "address",
          "name": "owner",
          "type": "address"
        },
        {
          "indexed": true,
          "internalType": "address",
          "name": "spender",
          "type": "address"
        },
        {
          "indexed": false,
          "internalType": "uint256",
          "name": "value",
          "type": "uint256"
        }
      ],
      "name": "Approval",
      "type": "event"
    },
    {
      "anonymous": false,
      "inputs": [
        {
          "indexed": true,
          "internalType": "uint16",
          "name": "_srcChainId",
          "type": "uint16"
        },
        {
          "indexed": false,
          "internalType": "bytes",
          "name": "_srcAddress",
          "type": "bytes"
        },
        {
          "indexed": false,
          "internalType": "uint64",
          "name": "_nonce",
          "type": "uint64"
        },
        {
          "indexed": false,
          "internalType": "bytes32",
          "name": "_hash",
          "type": "bytes32"
        }
      ],
      "name": "CallOFTReceivedSuccess",
      "type": "event"
    },
    {
      "anonymous": false,
      "inputs": [
        {
          "indexed": false,
          "internalType": "uint16",
          "name": "_srcChainId",
          "type": "uint16"
        },
        {
          "indexed": false,
          "internalType": "bytes",
          "name": "_srcAddress",
          "type": "bytes"
        },
        {
          "indexed": false,
          "internalType": "uint64",
          "name": "_nonce",
          "type": "uint64"
        },
        {
          "indexed": false,
          "internalType": "bytes",
          "name": "_payload",
          "type": "bytes"
        },
        {
          "indexed": false,
          "internalType": "bytes",
          "name": "_reason",
          "type": "bytes"
        }
      ],
      "name": "MessageFailed",
      "type": "event"
    },
    {
      "anonymous": false,
      "inputs": [
        {
          "indexed": false,
          "internalType": "address",
          "name": "_address",
          "type": "address"
        }
      ],
      "name": "NonContractAddress",
      "type": "event"
    },
    {
      "anonymous": false,
      "inputs": [
        {
          "indexed": true,
          "internalType": "address",
          "name": "previousOwner",
          "type": "address"
        },
        {
          "indexed": true,
          "internalType": "address",
          "name": "newOwner",
          "type": "address"
        }
      ],
      "name": "OwnershipTransferred",
      "type": "event"
    },
    {
      "anonymous": false,
      "inputs": [
        {
          "indexed": true,
          "internalType": "uint16",
          "name": "_srcChainId",
          "type": "uint16"
        },
        {
          "indexed": true,
          "internalType": "address",
          "name": "_to",
          "type": "address"
        },
        {
          "indexed": false,
          "internalType": "uint256",
          "name": "_amount",
          "type": "uint256"
        }
      ],
      "name": "ReceiveFromChain",
      "type": "event"
    },
    {
      "anonymous": false,
      "inputs": [
        {
          "indexed": false,
          "internalType": "uint16",
          "name": "_srcChainId",
          "type": "uint16"
        },
        {
          "indexed": false,
          "internalType": "bytes",
          "name": "_srcAddress",
          "type": "bytes"
        },
        {
          "indexed": false,
          "internalType": "uint64",
          "name": "_nonce",
          "type": "uint64"
        },
        {
          "indexed": false,
          "internalType": "bytes32",
          "name": "_payloadHash",
          "type": "bytes32"
        }
      ],
      "name": "RetryMessageSuccess",
      "type": "event"
    },
    {
      "anonymous": false,
      "inputs": [
        {
          "indexed": true,
          "internalType": "uint16",
          "name": "_dstChainId",
          "type": "uint16"
        },
        {
          "indexed": true,
          "internalType": "address",
          "name": "_from",
          "type": "address"
        },
        {
          "indexed": true,
          "internalType": "bytes32",
          "name": "_toAddress",
          "type": "bytes32"
        },
        {
          "indexed": false,
          "internalType": "uint256",
          "name": "_amount",
          "type": "uint256"
        }
      ],
      "name": "SendToChain",
      "type": "event"
    },
    {
      "anonymous": false,
      "inputs": [
        {
          "indexed": false,
          "internalType": "uint16",
          "name": "_dstChainId",
          "type": "uint16"
        },
        {
          "indexed": false,
          "internalType": "uint16",
          "name": "_type",
          "type": "uint16"
        },
        {
          "indexed": false,
          "internalType": "uint256",
          "name": "_minDstGas",
          "type": "uint256"
        }
      ],
      "name": "SetMinDstGas",
      "type": "event"
    },
    {
      "anonymous": false,
      "inputs": [
        {
          "indexed": false,
          "internalType": "address",
          "name": "precrime",
          "type": "address"
        }
      ],
      "name": "SetPrecrime",
      "type": "event"
    },
    {
      "anonymous": false,
      "inputs": [
        {
          "indexed": false,
          "internalType": "uint16",
          "name": "_remoteChainId",
          "type": "uint16"
        },
        {
          "indexed": false,
          "internalType": "bytes",
          "name": "_path",
          "type": "bytes"
        }
      ],
      "name": "SetTrustedRemote",
      "type": "event"
    },
    {
      "anonymous": false,
      "inputs": [
        {
          "indexed": false,
          "internalType": "uint16",
          "name": "_remoteChainId",
          "type": "uint16"
        },
        {
          "indexed": false,
          "internalType": "bytes",
          "name": "_remoteAddress",
          "type": "bytes"
        }
      ],
      "name": "SetTrustedRemoteAddress",
      "type": "event"
    },
    {
      "anonymous": false,
      "inputs": [
        {
          "indexed": false,
          "internalType": "bool",
          "name": "_useCustomAdapterParams",
          "type": "bool"
        }
      ],
      "name": "SetUseCustomAdapterParams",
      "type": "event"
    },
    {
      "anonymous": false,
      "inputs": [
        {
          "indexed": true,
          "internalType": "address",
          "name": "from",
          "type": "address"
        },
        {
          "indexed": true,
          "internalType": "address",
          "name": "to",
          "type": "address"
        },
        {
          "indexed": false,
          "internalType": "uint256",
          "name": "value",
          "type": "uint256"
        }
      ],
      "name": "Transfer",
      "type": "event"
    },
    {
      "inputs": [],
      "name": "DEFAULT_PAYLOAD_SIZE_LIMIT",
      "outputs": [
        {
          "internalType": "uint256",
          "name": "",
          "type": "uint256"
        }
      ],
      "stateMutability": "view",
      "type": "function"
    },
    {
      "inputs": [],
      "name": "DOMAIN_SEPARATOR",
      "outputs": [
        {
          "internalType": "bytes32",
          "name": "",
          "type": "bytes32"
        }
      ],
      "stateMutability": "view",
      "type": "function"
    },
    {
      "inputs": [],
      "name": "NO_EXTRA_GAS",
      "outputs": [
        {
          "internalType": "uint256",
          "name": "",
          "type": "uint256"
        }
      ],
      "stateMutability": "view",
      "type": "function"
    },
    {
      "inputs": [],
      "name": "PT_SEND",
      "outputs": [
        {
          "internalType": "uint8",
          "name": "",
          "type": "uint8"
        }
      ],
      "stateMutability": "view",
      "type": "function"
    },
    {
      "inputs": [],
      "name": "PT_SEND_AND_CALL",
      "outputs": [
        {
          "internalType": "uint8",
          "name": "",
          "type": "uint8"
        }
      ],
      "stateMutability": "view",
      "type": "function"
    },
    {
      "inputs": [],
      "name": "SWAP_MAX_SLIPPAGE",
      "outputs": [
        {
          "internalType": "uint256",
          "name": "",
          "type": "uint256"
        }
      ],
      "stateMutability": "view",
      "type": "function"
    },
    {
      "inputs": [
        {
          "internalType": "address",
          "name": "owner",
          "type": "address"
        },
        {
          "internalType": "address",
          "name": "spender",
          "type": "address"
        }
      ],
      "name": "allowance",
      "outputs": [
        {
          "internalType": "uint256",
          "name": "",
          "type": "uint256"
        }
      ],
      "stateMutability": "view",
      "type": "function"
    },
    {
      "inputs": [
        {
          "internalType": "address",
          "name": "spender",
          "type": "address"
        },
        {
          "internalType": "uint256",
          "name": "amount",
          "type": "uint256"
        }
      ],
      "name": "approve",
      "outputs": [
        {
          "internalType": "bool",
          "name": "",
          "type": "bool"
        }
      ],
      "stateMutability": "nonpayable",
      "type": "function"
    },
    {
      "inputs": [
        {
          "internalType": "address",
          "name": "account",
          "type": "address"
        }
      ],
      "name": "balanceOf",
      "outputs": [
        {
          "internalType": "uint256",
          "name": "",
          "type": "uint256"
        }
      ],
      "stateMutability": "view",
      "type": "function"
    },
    {
      "inputs": [
        {
          "internalType": "uint16",
          "name": "_srcChainId",
          "type": "uint16"
        },
        {
          "internalType": "bytes",
          "name": "_srcAddress",
          "type": "bytes"
        },
        {
          "internalType": "uint64",
          "name": "_nonce",
          "type": "uint64"
        },
        {
          "internalType": "bytes32",
          "name": "_from",
          "type": "bytes32"
        },
        {
          "internalType": "address",
          "name": "_to",
          "type": "address"
        },
        {
          "internalType": "uint256",
          "name": "_amount",
          "type": "uint256"
        },
        {
          "internalType": "bytes",
          "name": "_payload",
          "type": "bytes"
        },
        {
          "internalType": "uint256",
          "name": "_gasForCall",
          "type": "uint256"
        }
      ],
      "name": "callOnOFTReceived",
      "outputs": [],
      "stateMutability": "nonpayable",
      "type": "function"
    },
    {
      "inputs": [],
      "name": "circulatingSupply",
      "outputs": [
        {
          "internalType": "uint256",
          "name": "",
          "type": "uint256"
        }
      ],
      "stateMutability": "view",
      "type": "function"
    },
    {
      "inputs": [],
      "name": "cluster",
      "outputs": [
        {
          "internalType": "contract ICluster",
          "name": "",
          "type": "address"
        }
      ],
      "stateMutability": "view",
      "type": "function"
    },
    {
      "inputs": [
        {
          "internalType": "uint16",
          "name": "",
          "type": "uint16"
        },
        {
          "internalType": "bytes",
          "name": "",
          "type": "bytes"
        },
        {
          "internalType": "uint64",
          "name": "",
          "type": "uint64"
        }
      ],
      "name": "creditedPackets",
      "outputs": [
        {
          "internalType": "bool",
          "name": "",
          "type": "bool"
        }
      ],
      "stateMutability": "view",
      "type": "function"
    },
    {
      "inputs": [],
      "name": "decimals",
      "outputs": [
        {
          "internalType": "uint8",
          "name": "",
          "type": "uint8"
        }
      ],
      "stateMutability": "view",
      "type": "function"
    },
    {
      "inputs": [
        {
          "internalType": "address",
          "name": "spender",
          "type": "address"
        },
        {
          "internalType": "uint256",
          "name": "subtractedValue",
          "type": "uint256"
        }
      ],
      "name": "decreaseAllowance",
      "outputs": [
        {
          "internalType": "bool",
          "name": "",
          "type": "bool"
        }
      ],
      "stateMutability": "nonpayable",
      "type": "function"
    },
    {
      "inputs": [],
      "name": "erc20",
      "outputs": [
        {
          "internalType": "address",
          "name": "",
          "type": "address"
        }
      ],
      "stateMutability": "view",
      "type": "function"
    },
    {
      "inputs": [
        {
          "internalType": "uint16",
          "name": "_dstChainId",
          "type": "uint16"
        },
        {
          "internalType": "bytes32",
          "name": "_toAddress",
          "type": "bytes32"
        },
        {
          "internalType": "uint256",
          "name": "_amount",
          "type": "uint256"
        },
        {
          "internalType": "bytes",
          "name": "_payload",
          "type": "bytes"
        },
        {
          "internalType": "uint64",
          "name": "_dstGasForCall",
          "type": "uint64"
        },
        {
          "internalType": "bool",
          "name": "_useZro",
          "type": "bool"
        },
        {
          "internalType": "bytes",
          "name": "_adapterParams",
          "type": "bytes"
        }
      ],
      "name": "estimateSendAndCallFee",
      "outputs": [
        {
          "internalType": "uint256",
          "name": "nativeFee",
          "type": "uint256"
        },
        {
          "internalType": "uint256",
          "name": "zroFee",
          "type": "uint256"
        }
      ],
      "stateMutability": "view",
      "type": "function"
    },
    {
      "inputs": [
        {
          "internalType": "uint16",
          "name": "_dstChainId",
          "type": "uint16"
        },
        {
          "internalType": "bytes32",
          "name": "_toAddress",
          "type": "bytes32"
        },
        {
          "internalType": "uint256",
          "name": "_amount",
          "type": "uint256"
        },
        {
          "internalType": "bool",
          "name": "_useZro",
          "type": "bool"
        },
        {
          "internalType": "bytes",
          "name": "_adapterParams",
          "type": "bytes"
        }
      ],
      "name": "estimateSendFee",
      "outputs": [
        {
          "internalType": "uint256",
          "name": "nativeFee",
          "type": "uint256"
        },
        {
          "internalType": "uint256",
          "name": "zroFee",
          "type": "uint256"
        }
      ],
      "stateMutability": "view",
      "type": "function"
    },
    {
      "inputs": [
        {
          "components": [
            {
              "internalType": "address",
              "name": "from",
              "type": "address"
            },
            {
              "internalType": "address",
              "name": "target",
              "type": "address"
            },
            {
              "internalType": "uint256",
              "name": "paymentTokenAmount",
              "type": "uint256"
            },
            {
              "internalType": "uint256",
              "name": "oTAPTokenID",
              "type": "uint256"
            },
            {
              "internalType": "address",
              "name": "paymentToken",
              "type": "address"
            },
            {
              "internalType": "uint256",
              "name": "tapAmount",
              "type": "uint256"
            }
          ],
          "internalType": "struct ITapiocaOptionsBrokerCrossChain.IExerciseOptionsData",
          "name": "optionsData",
          "type": "tuple"
        },
        {
          "components": [
            {
              "internalType": "uint16",
              "name": "lzDstChainId",
              "type": "uint16"
            },
            {
              "internalType": "address",
              "name": "zroPaymentAddress",
              "type": "address"
            },
            {
              "internalType": "uint256",
              "name": "extraGas",
              "type": "uint256"
            }
          ],
          "internalType": "struct ITapiocaOptionsBrokerCrossChain.IExerciseLZData",
          "name": "lzData",
          "type": "tuple"
        },
        {
          "components": [
            {
              "internalType": "bool",
              "name": "withdrawOnAnotherChain",
              "type": "bool"
            },
            {
              "internalType": "address",
              "name": "tapOftAddress",
              "type": "address"
            },
            {
              "internalType": "uint16",
              "name": "lzDstChainId",
              "type": "uint16"
            },
            {
              "internalType": "uint256",
              "name": "amount",
              "type": "uint256"
            },
            {
              "internalType": "address",
              "name": "zroPaymentAddress",
              "type": "address"
            },
            {
              "internalType": "uint256",
              "name": "extraGas",
              "type": "uint256"
            }
          ],
          "internalType": "struct ITapiocaOptionsBrokerCrossChain.IExerciseLZSendTapData",
          "name": "tapSendData",
          "type": "tuple"
        },
        {
          "components": [
            {
              "internalType": "bool",
              "name": "permitAll",
              "type": "bool"
            },
            {
              "internalType": "bool",
              "name": "allowFailure",
              "type": "bool"
            },
            {
              "internalType": "bool",
              "name": "approveOnYieldBox",
              "type": "bool"
            },
            {
              "internalType": "uint16",
              "name": "actionType",
              "type": "uint16"
            },
            {
              "internalType": "address",
              "name": "target",
              "type": "address"
            },
            {
              "internalType": "bool",
              "name": "permitBorrow",
              "type": "bool"
            },
            {
              "internalType": "address",
              "name": "owner",
              "type": "address"
            },
            {
              "internalType": "address",
              "name": "spender",
              "type": "address"
            },
            {
              "internalType": "uint256",
              "name": "value",
              "type": "uint256"
            },
            {
              "internalType": "uint256",
              "name": "deadline",
              "type": "uint256"
            },
            {
              "internalType": "uint8",
              "name": "v",
              "type": "uint8"
            },
            {
              "internalType": "bytes32",
              "name": "r",
              "type": "bytes32"
            },
            {
              "internalType": "bytes32",
              "name": "s",
              "type": "bytes32"
            }
          ],
          "internalType": "struct ICommonData.IApproval[]",
          "name": "approvals",
          "type": "tuple[]"
        },
        {
          "internalType": "bytes",
          "name": "adapterParams",
          "type": "bytes"
        }
      ],
      "name": "exerciseOption",
      "outputs": [],
      "stateMutability": "payable",
      "type": "function"
    },
    {
      "inputs": [
        {
          "internalType": "uint16",
          "name": "",
          "type": "uint16"
        },
        {
          "internalType": "bytes",
          "name": "",
          "type": "bytes"
        },
        {
          "internalType": "uint64",
          "name": "",
          "type": "uint64"
        }
      ],
      "name": "failedMessages",
      "outputs": [
        {
          "internalType": "bytes32",
          "name": "",
          "type": "bytes32"
        }
      ],
      "stateMutability": "view",
      "type": "function"
    },
    {
      "inputs": [
        {
          "internalType": "uint16",
          "name": "_srcChainId",
          "type": "uint16"
        },
        {
          "internalType": "bytes",
          "name": "_srcAddress",
          "type": "bytes"
        }
      ],
      "name": "forceResumeReceive",
      "outputs": [],
      "stateMutability": "nonpayable",
      "type": "function"
    },
    {
      "inputs": [
        {
          "internalType": "uint16",
          "name": "_version",
          "type": "uint16"
        },
        {
          "internalType": "uint16",
          "name": "_chainId",
          "type": "uint16"
        },
        {
          "internalType": "address",
          "name": "",
          "type": "address"
        },
        {
          "internalType": "uint256",
          "name": "_configType",
          "type": "uint256"
        }
      ],
      "name": "getConfig",
      "outputs": [
        {
          "internalType": "bytes",
          "name": "",
          "type": "bytes"
        }
      ],
      "stateMutability": "view",
      "type": "function"
    },
    {
      "inputs": [
        {
          "internalType": "uint16",
          "name": "_remoteChainId",
          "type": "uint16"
        }
      ],
      "name": "getTrustedRemoteAddress",
      "outputs": [
        {
          "internalType": "bytes",
          "name": "",
          "type": "bytes"
        }
      ],
      "stateMutability": "view",
      "type": "function"
    },
    {
      "inputs": [],
      "name": "hostChainID",
      "outputs": [
        {
          "internalType": "uint256",
          "name": "",
          "type": "uint256"
        }
      ],
      "stateMutability": "view",
      "type": "function"
    },
    {
      "inputs": [
        {
          "internalType": "address",
          "name": "spender",
          "type": "address"
        },
        {
          "internalType": "uint256",
          "name": "addedValue",
          "type": "uint256"
        }
      ],
      "name": "increaseAllowance",
      "outputs": [
        {
          "internalType": "bool",
          "name": "",
          "type": "bool"
        }
      ],
      "stateMutability": "nonpayable",
      "type": "function"
    },
    {
      "inputs": [
        {
          "internalType": "uint16",
          "name": "_srcChainId",
          "type": "uint16"
        },
        {
          "internalType": "bytes",
          "name": "_srcAddress",
          "type": "bytes"
        }
      ],
      "name": "isTrustedRemote",
      "outputs": [
        {
          "internalType": "bool",
          "name": "",
          "type": "bool"
        }
      ],
      "stateMutability": "view",
      "type": "function"
    },
    {
      "inputs": [],
      "name": "leverageModule",
      "outputs": [
        {
          "internalType": "contract BaseTOFTLeverageModule",
          "name": "",
          "type": "address"
        }
      ],
      "stateMutability": "view",
      "type": "function"
    },
    {
      "inputs": [],
      "name": "lzEndpoint",
      "outputs": [
        {
          "internalType": "contract ILayerZeroEndpoint",
          "name": "",
          "type": "address"
        }
      ],
      "stateMutability": "view",
      "type": "function"
    },
    {
      "inputs": [
        {
          "internalType": "uint16",
          "name": "_srcChainId",
          "type": "uint16"
        },
        {
          "internalType": "bytes",
          "name": "_srcAddress",
          "type": "bytes"
        },
        {
          "internalType": "uint64",
          "name": "_nonce",
          "type": "uint64"
        },
        {
          "internalType": "bytes",
          "name": "_payload",
          "type": "bytes"
        }
      ],
      "name": "lzReceive",
      "outputs": [],
      "stateMutability": "nonpayable",
      "type": "function"
    },
    {
      "inputs": [],
      "name": "marketModule",
      "outputs": [
        {
          "internalType": "contract BaseTOFTMarketModule",
          "name": "",
          "type": "address"
        }
      ],
      "stateMutability": "view",
      "type": "function"
    },
    {
      "inputs": [
        {
          "internalType": "uint16",
          "name": "",
          "type": "uint16"
        },
        {
          "internalType": "uint16",
          "name": "",
          "type": "uint16"
        }
      ],
      "name": "minDstGasLookup",
      "outputs": [
        {
          "internalType": "uint256",
          "name": "",
          "type": "uint256"
        }
      ],
      "stateMutability": "view",
      "type": "function"
    },
    {
      "inputs": [],
      "name": "name",
      "outputs": [
        {
          "internalType": "string",
          "name": "",
          "type": "string"
        }
      ],
      "stateMutability": "view",
      "type": "function"
    },
    {
      "inputs": [
        {
          "internalType": "uint16",
          "name": "_srcChainId",
          "type": "uint16"
        },
        {
          "internalType": "bytes",
          "name": "_srcAddress",
          "type": "bytes"
        },
        {
          "internalType": "uint64",
          "name": "_nonce",
          "type": "uint64"
        },
        {
          "internalType": "bytes",
          "name": "_payload",
          "type": "bytes"
        }
      ],
      "name": "nonblockingLzReceive",
      "outputs": [],
      "stateMutability": "nonpayable",
      "type": "function"
    },
    {
      "inputs": [
        {
          "internalType": "address",
          "name": "owner",
          "type": "address"
        }
      ],
      "name": "nonces",
      "outputs": [
        {
          "internalType": "uint256",
          "name": "",
          "type": "uint256"
        }
      ],
      "stateMutability": "view",
      "type": "function"
    },
    {
      "inputs": [],
      "name": "optionsModule",
      "outputs": [
        {
          "internalType": "contract BaseTOFTOptionsModule",
          "name": "",
          "type": "address"
        }
      ],
      "stateMutability": "view",
      "type": "function"
    },
    {
      "inputs": [],
      "name": "owner",
      "outputs": [
        {
          "internalType": "address",
          "name": "",
          "type": "address"
        }
      ],
      "stateMutability": "view",
      "type": "function"
    },
    {
      "inputs": [
        {
          "internalType": "uint16",
          "name": "",
          "type": "uint16"
        }
      ],
      "name": "payloadSizeLimitLookup",
      "outputs": [
        {
          "internalType": "uint256",
          "name": "",
          "type": "uint256"
        }
      ],
      "stateMutability": "view",
      "type": "function"
    },
    {
      "inputs": [
        {
          "internalType": "address",
          "name": "owner",
          "type": "address"
        },
        {
          "internalType": "address",
          "name": "spender",
          "type": "address"
        },
        {
          "internalType": "uint256",
          "name": "value",
          "type": "uint256"
        },
        {
          "internalType": "uint256",
          "name": "deadline",
          "type": "uint256"
        },
        {
          "internalType": "uint8",
          "name": "v",
          "type": "uint8"
        },
        {
          "internalType": "bytes32",
          "name": "r",
          "type": "bytes32"
        },
        {
          "internalType": "bytes32",
          "name": "s",
          "type": "bytes32"
        }
      ],
      "name": "permit",
      "outputs": [],
      "stateMutability": "nonpayable",
      "type": "function"
    },
    {
      "inputs": [],
      "name": "precrime",
      "outputs": [
        {
          "internalType": "address",
          "name": "",
          "type": "address"
        }
      ],
      "stateMutability": "view",
      "type": "function"
    },
    {
      "inputs": [
        {
          "internalType": "address",
          "name": "from",
          "type": "address"
        },
        {
          "internalType": "address",
          "name": "to",
          "type": "address"
        },
        {
          "internalType": "uint16",
          "name": "lzDstChainId",
          "type": "uint16"
        },
        {
          "internalType": "address",
          "name": "zroPaymentAddress",
          "type": "address"
        },
        {
          "components": [
            {
              "internalType": "bool",
              "name": "withdraw",
              "type": "bool"
            },
            {
              "internalType": "uint256",
              "name": "withdrawLzFeeAmount",
              "type": "uint256"
            },
            {
              "internalType": "bool",
              "name": "withdrawOnOtherChain",
              "type": "bool"
            },
            {
              "internalType": "uint16",
              "name": "withdrawLzChainId",
              "type": "uint16"
            },
            {
              "internalType": "bytes",
              "name": "withdrawAdapterParams",
              "type": "bytes"
            }
          ],
          "internalType": "struct ICommonData.IWithdrawParams",
          "name": "withdrawParams",
          "type": "tuple"
        },
        {
          "components": [
            {
              "internalType": "uint256",
              "name": "amount",
              "type": "uint256"
            },
            {
              "internalType": "address",
              "name": "marketHelper",
              "type": "address"
            },
            {
              "internalType": "address",
              "name": "market",
              "type": "address"
            }
          ],
          "internalType": "struct ITapiocaOFT.IRemoveParams",
          "name": "removeParams",
          "type": "tuple"
        },
        {
          "components": [
            {
              "internalType": "bool",
              "name": "permitAll",
              "type": "bool"
            },
            {
              "internalType": "bool",
              "name": "allowFailure",
              "type": "bool"
            },
            {
              "internalType": "bool",
              "name": "approveOnYieldBox",
              "type": "bool"
            },
            {
              "internalType": "uint16",
              "name": "actionType",
              "type": "uint16"
            },
            {
              "internalType": "address",
              "name": "target",
              "type": "address"
            },
            {
              "internalType": "bool",
              "name": "permitBorrow",
              "type": "bool"
            },
            {
              "internalType": "address",
              "name": "owner",
              "type": "address"
            },
            {
              "internalType": "address",
              "name": "spender",
              "type": "address"
            },
            {
              "internalType": "uint256",
              "name": "value",
              "type": "uint256"
            },
            {
              "internalType": "uint256",
              "name": "deadline",
              "type": "uint256"
            },
            {
              "internalType": "uint8",
              "name": "v",
              "type": "uint8"
            },
            {
              "internalType": "bytes32",
              "name": "r",
              "type": "bytes32"
            },
            {
              "internalType": "bytes32",
              "name": "s",
              "type": "bytes32"
            }
          ],
          "internalType": "struct ICommonData.IApproval[]",
          "name": "approvals",
          "type": "tuple[]"
        },
        {
          "internalType": "bytes",
          "name": "adapterParams",
          "type": "bytes"
        }
      ],
      "name": "removeCollateral",
      "outputs": [],
      "stateMutability": "payable",
      "type": "function"
    },
    {
      "inputs": [],
      "name": "renounceOwnership",
      "outputs": [],
      "stateMutability": "nonpayable",
      "type": "function"
    },
    {
      "inputs": [
        {
          "internalType": "uint256",
          "name": "amount",
          "type": "uint256"
        },
        {
          "internalType": "address",
          "name": "to",
          "type": "address"
        }
      ],
      "name": "rescueEth",
      "outputs": [],
      "stateMutability": "nonpayable",
      "type": "function"
    },
    {
      "inputs": [
        {
          "internalType": "address",
          "name": "from",
          "type": "address"
        },
        {
          "internalType": "uint256",
          "name": "amount",
          "type": "uint256"
        },
        {
          "internalType": "uint256",
          "name": "assetId",
          "type": "uint256"
        },
        {
          "internalType": "uint16",
          "name": "lzDstChainId",
          "type": "uint16"
        },
        {
          "internalType": "address",
          "name": "zroPaymentAddress",
          "type": "address"
        },
        {
          "internalType": "bytes",
          "name": "airdropAdapterParam",
          "type": "bytes"
        }
      ],
      "name": "retrieveFromStrategy",
      "outputs": [],
      "stateMutability": "payable",
      "type": "function"
    },
    {
      "inputs": [
        {
          "internalType": "uint16",
          "name": "_srcChainId",
          "type": "uint16"
        },
        {
          "internalType": "bytes",
          "name": "_srcAddress",
          "type": "bytes"
        },
        {
          "internalType": "uint64",
          "name": "_nonce",
          "type": "uint64"
        },
        {
          "internalType": "bytes",
          "name": "_payload",
          "type": "bytes"
        }
      ],
      "name": "retryMessage",
      "outputs": [],
      "stateMutability": "payable",
      "type": "function"
    },
    {
      "inputs": [
        {
          "internalType": "address",
          "name": "_from",
          "type": "address"
        },
        {
          "internalType": "uint16",
          "name": "_dstChainId",
          "type": "uint16"
        },
        {
          "internalType": "bytes32",
          "name": "_toAddress",
          "type": "bytes32"
        },
        {
          "internalType": "uint256",
          "name": "_amount",
          "type": "uint256"
        },
        {
          "internalType": "bytes",
          "name": "_payload",
          "type": "bytes"
        },
        {
          "internalType": "uint64",
          "name": "_dstGasForCall",
          "type": "uint64"
        },
        {
          "components": [
            {
              "internalType": "address payable",
              "name": "refundAddress",
              "type": "address"
            },
            {
              "internalType": "address",
              "name": "zroPaymentAddress",
              "type": "address"
            },
            {
              "internalType": "bytes",
              "name": "adapterParams",
              "type": "bytes"
            }
          ],
          "internalType": "struct ICommonOFT.LzCallParams",
          "name": "_callParams",
          "type": "tuple"
        }
      ],
      "name": "sendAndCall",
      "outputs": [],
      "stateMutability": "payable",
      "type": "function"
    },
    {
      "inputs": [
        {
          "internalType": "uint256",
          "name": "amount",
          "type": "uint256"
        },
        {
          "internalType": "address",
          "name": "leverageFor",
          "type": "address"
        },
        {
          "components": [
            {
              "internalType": "uint256",
              "name": "srcExtraGasLimit",
              "type": "uint256"
            },
            {
              "internalType": "uint16",
              "name": "lzSrcChainId",
              "type": "uint16"
            },
            {
              "internalType": "uint16",
              "name": "lzDstChainId",
              "type": "uint16"
            },
            {
              "internalType": "address",
              "name": "zroPaymentAddress",
              "type": "address"
            },
            {
              "internalType": "bytes",
              "name": "dstAirdropAdapterParam",
              "type": "bytes"
            },
            {
              "internalType": "bytes",
              "name": "srcAirdropAdapterParam",
              "type": "bytes"
            },
            {
              "internalType": "address",
              "name": "refundAddress",
              "type": "address"
            }
          ],
          "internalType": "struct IUSDOBase.ILeverageLZData",
          "name": "lzData",
          "type": "tuple"
        },
        {
          "components": [
            {
              "internalType": "address",
              "name": "tokenOut",
              "type": "address"
            },
            {
              "internalType": "uint256",
              "name": "amountOutMin",
              "type": "uint256"
            },
            {
              "internalType": "bytes",
              "name": "data",
              "type": "bytes"
            }
          ],
          "internalType": "struct IUSDOBase.ILeverageSwapData",
          "name": "swapData",
          "type": "tuple"
        },
        {
          "components": [
            {
              "internalType": "address",
              "name": "swapper",
              "type": "address"
            },
            {
              "internalType": "address",
              "name": "magnetar",
              "type": "address"
            },
            {
              "internalType": "address",
              "name": "tOft",
              "type": "address"
            },
            {
              "internalType": "address",
              "name": "srcMarket",
              "type": "address"
            }
          ],
          "internalType": "struct IUSDOBase.ILeverageExternalContractsData",
          "name": "externalData",
          "type": "tuple"
        }
      ],
      "name": "sendForLeverage",
      "outputs": [],
      "stateMutability": "payable",
      "type": "function"
    },
    {
      "inputs": [
        {
          "internalType": "address",
          "name": "_from",
          "type": "address"
        },
        {
          "internalType": "uint16",
          "name": "_dstChainId",
          "type": "uint16"
        },
        {
          "internalType": "bytes32",
          "name": "_toAddress",
          "type": "bytes32"
        },
        {
          "internalType": "uint256",
          "name": "_amount",
          "type": "uint256"
        },
        {
          "components": [
            {
              "internalType": "address payable",
              "name": "refundAddress",
              "type": "address"
            },
            {
              "internalType": "address",
              "name": "zroPaymentAddress",
              "type": "address"
            },
            {
              "internalType": "bytes",
              "name": "adapterParams",
              "type": "bytes"
            }
          ],
          "internalType": "struct ICommonOFT.LzCallParams",
          "name": "_callParams",
          "type": "tuple"
        }
      ],
      "name": "sendFrom",
      "outputs": [],
      "stateMutability": "payable",
      "type": "function"
    },
    {
      "inputs": [
        {
          "internalType": "address",
          "name": "from",
          "type": "address"
        },
        {
          "internalType": "address",
          "name": "to",
          "type": "address"
        },
        {
          "internalType": "uint256",
          "name": "amount",
          "type": "uint256"
        },
        {
          "internalType": "uint256",
          "name": "assetId",
          "type": "uint256"
        },
        {
          "internalType": "uint16",
          "name": "lzDstChainId",
          "type": "uint16"
        },
        {
          "components": [
            {
              "internalType": "uint256",
              "name": "extraGasLimit",
              "type": "uint256"
            },
            {
              "internalType": "address",
              "name": "zroPaymentAddress",
              "type": "address"
            }
          ],
          "internalType": "struct ICommonData.ISendOptions",
          "name": "options",
          "type": "tuple"
        }
      ],
      "name": "sendToStrategy",
      "outputs": [],
      "stateMutability": "payable",
      "type": "function"
    },
    {
      "inputs": [
        {
          "internalType": "address",
          "name": "from",
          "type": "address"
        },
        {
          "internalType": "address",
          "name": "to",
          "type": "address"
        },
        {
          "internalType": "uint16",
          "name": "lzDstChainId",
          "type": "uint16"
        },
        {
          "internalType": "bytes",
          "name": "airdropAdapterParams",
          "type": "bytes"
        },
        {
          "components": [
            {
              "internalType": "uint256",
              "name": "amount",
              "type": "uint256"
            },
            {
              "internalType": "uint256",
              "name": "borrowAmount",
              "type": "uint256"
            },
            {
              "internalType": "address",
              "name": "marketHelper",
              "type": "address"
            },
            {
              "internalType": "address",
              "name": "market",
              "type": "address"
            }
          ],
          "internalType": "struct ITapiocaOFT.IBorrowParams",
          "name": "borrowParams",
          "type": "tuple"
        },
        {
          "components": [
            {
              "internalType": "bool",
              "name": "withdraw",
              "type": "bool"
            },
            {
              "internalType": "uint256",
              "name": "withdrawLzFeeAmount",
              "type": "uint256"
            },
            {
              "internalType": "bool",
              "name": "withdrawOnOtherChain",
              "type": "bool"
            },
            {
              "internalType": "uint16",
              "name": "withdrawLzChainId",
              "type": "uint16"
            },
            {
              "internalType": "bytes",
              "name": "withdrawAdapterParams",
              "type": "bytes"
            }
          ],
          "internalType": "struct ICommonData.IWithdrawParams",
          "name": "withdrawParams",
          "type": "tuple"
        },
        {
          "components": [
            {
              "internalType": "uint256",
              "name": "extraGasLimit",
              "type": "uint256"
            },
            {
              "internalType": "address",
              "name": "zroPaymentAddress",
              "type": "address"
            }
          ],
          "internalType": "struct ICommonData.ISendOptions",
          "name": "options",
          "type": "tuple"
        },
        {
          "components": [
            {
              "internalType": "bool",
              "name": "permitAll",
              "type": "bool"
            },
            {
              "internalType": "bool",
              "name": "allowFailure",
              "type": "bool"
            },
            {
              "internalType": "bool",
              "name": "approveOnYieldBox",
              "type": "bool"
            },
            {
              "internalType": "uint16",
              "name": "actionType",
              "type": "uint16"
            },
            {
              "internalType": "address",
              "name": "target",
              "type": "address"
            },
            {
              "internalType": "bool",
              "name": "permitBorrow",
              "type": "bool"
            },
            {
              "internalType": "address",
              "name": "owner",
              "type": "address"
            },
            {
              "internalType": "address",
              "name": "spender",
              "type": "address"
            },
            {
              "internalType": "uint256",
              "name": "value",
              "type": "uint256"
            },
            {
              "internalType": "uint256",
              "name": "deadline",
              "type": "uint256"
            },
            {
              "internalType": "uint8",
              "name": "v",
              "type": "uint8"
            },
            {
              "internalType": "bytes32",
              "name": "r",
              "type": "bytes32"
            },
            {
              "internalType": "bytes32",
              "name": "s",
              "type": "bytes32"
            }
          ],
          "internalType": "struct ICommonData.IApproval[]",
          "name": "approvals",
          "type": "tuple[]"
        }
      ],
      "name": "sendToYBAndBorrow",
      "outputs": [],
      "stateMutability": "payable",
      "type": "function"
    },
    {
      "inputs": [
        {
          "internalType": "uint16",
          "name": "_version",
          "type": "uint16"
        },
        {
          "internalType": "uint16",
          "name": "_chainId",
          "type": "uint16"
        },
        {
          "internalType": "uint256",
          "name": "_configType",
          "type": "uint256"
        },
        {
          "internalType": "bytes",
          "name": "_config",
          "type": "bytes"
        }
      ],
      "name": "setConfig",
      "outputs": [],
      "stateMutability": "nonpayable",
      "type": "function"
    },
    {
      "inputs": [
        {
          "internalType": "uint256",
          "name": "_slippage",
          "type": "uint256"
        }
      ],
      "name": "setMaxSlippage",
      "outputs": [],
      "stateMutability": "nonpayable",
      "type": "function"
    },
    {
      "inputs": [
        {
          "internalType": "uint16",
          "name": "_dstChainId",
          "type": "uint16"
        },
        {
          "internalType": "uint16",
          "name": "_packetType",
          "type": "uint16"
        },
        {
          "internalType": "uint256",
          "name": "_minGas",
          "type": "uint256"
        }
      ],
      "name": "setMinDstGas",
      "outputs": [],
      "stateMutability": "nonpayable",
      "type": "function"
    },
    {
      "inputs": [
        {
          "internalType": "uint16",
          "name": "_dstChainId",
          "type": "uint16"
        },
        {
          "internalType": "uint256",
          "name": "_size",
          "type": "uint256"
        }
      ],
      "name": "setPayloadSizeLimit",
      "outputs": [],
      "stateMutability": "nonpayable",
      "type": "function"
    },
    {
      "inputs": [
        {
          "internalType": "address",
          "name": "_precrime",
          "type": "address"
        }
      ],
      "name": "setPrecrime",
      "outputs": [],
      "stateMutability": "nonpayable",
      "type": "function"
    },
    {
      "inputs": [
        {
          "internalType": "uint16",
          "name": "_version",
          "type": "uint16"
        }
      ],
      "name": "setReceiveVersion",
      "outputs": [],
      "stateMutability": "nonpayable",
      "type": "function"
    },
    {
      "inputs": [
        {
          "internalType": "uint16",
          "name": "_version",
          "type": "uint16"
        }
      ],
      "name": "setSendVersion",
      "outputs": [],
      "stateMutability": "nonpayable",
      "type": "function"
    },
    {
      "inputs": [
        {
          "internalType": "uint16",
          "name": "_srcChainId",
          "type": "uint16"
        },
        {
          "internalType": "bytes",
          "name": "_path",
          "type": "bytes"
        }
      ],
      "name": "setTrustedRemote",
      "outputs": [],
      "stateMutability": "nonpayable",
      "type": "function"
    },
    {
      "inputs": [
        {
          "internalType": "uint16",
          "name": "_remoteChainId",
          "type": "uint16"
        },
        {
          "internalType": "bytes",
          "name": "_remoteAddress",
          "type": "bytes"
        }
      ],
      "name": "setTrustedRemoteAddress",
      "outputs": [],
      "stateMutability": "nonpayable",
      "type": "function"
    },
    {
      "inputs": [
        {
          "internalType": "bool",
          "name": "_useCustomAdapterParams",
          "type": "bool"
        }
      ],
      "name": "setUseCustomAdapterParams",
      "outputs": [],
      "stateMutability": "nonpayable",
      "type": "function"
    },
    {
      "inputs": [
        {
          "internalType": "uint16",
          "name": "",
          "type": "uint16"
        },
        {
          "internalType": "bytes",
          "name": "",
          "type": "bytes"
        },
        {
          "internalType": "uint256",
          "name": "",
          "type": "uint256"
        },
        {
          "internalType": "address",
          "name": "",
          "type": "address"
        },
        {
          "internalType": "uint256",
          "name": "amountLD",
          "type": "uint256"
        },
        {
          "internalType": "bytes",
          "name": "",
          "type": "bytes"
        }
      ],
      "name": "sgReceive",
      "outputs": [],
      "stateMutability": "nonpayable",
      "type": "function"
    },
    {
      "inputs": [],
      "name": "sharedDecimals",
      "outputs": [
        {
          "internalType": "uint8",
          "name": "",
          "type": "uint8"
        }
      ],
      "stateMutability": "view",
      "type": "function"
    },
    {
      "inputs": [],
      "name": "strategyModule",
      "outputs": [
        {
          "internalType": "contract BaseTOFTStrategyModule",
          "name": "",
          "type": "address"
        }
      ],
      "stateMutability": "view",
      "type": "function"
    },
    {
      "inputs": [
        {
          "internalType": "bytes4",
          "name": "interfaceId",
          "type": "bytes4"
        }
      ],
      "name": "supportsInterface",
      "outputs": [
        {
          "internalType": "bool",
          "name": "",
          "type": "bool"
        }
      ],
      "stateMutability": "view",
      "type": "function"
    },
    {
      "inputs": [],
      "name": "symbol",
      "outputs": [
        {
          "internalType": "string",
          "name": "",
          "type": "string"
        }
      ],
      "stateMutability": "view",
      "type": "function"
    },
    {
      "inputs": [],
      "name": "token",
      "outputs": [
        {
          "internalType": "address",
          "name": "",
          "type": "address"
        }
      ],
      "stateMutability": "view",
      "type": "function"
    },
    {
      "inputs": [],
      "name": "totalSupply",
      "outputs": [
        {
          "internalType": "uint256",
          "name": "",
          "type": "uint256"
        }
      ],
      "stateMutability": "view",
      "type": "function"
    },
    {
      "inputs": [
        {
          "internalType": "address",
          "name": "to",
          "type": "address"
        },
        {
          "internalType": "uint256",
          "name": "amount",
          "type": "uint256"
        }
      ],
      "name": "transfer",
      "outputs": [
        {
          "internalType": "bool",
          "name": "",
          "type": "bool"
        }
      ],
      "stateMutability": "nonpayable",
      "type": "function"
    },
    {
      "inputs": [
        {
          "internalType": "address",
          "name": "from",
          "type": "address"
        },
        {
          "internalType": "address",
          "name": "to",
          "type": "address"
        },
        {
          "internalType": "uint256",
          "name": "amount",
          "type": "uint256"
        }
      ],
      "name": "transferFrom",
      "outputs": [
        {
          "internalType": "bool",
          "name": "",
          "type": "bool"
        }
      ],
      "stateMutability": "nonpayable",
      "type": "function"
    },
    {
      "inputs": [
        {
          "internalType": "address",
          "name": "newOwner",
          "type": "address"
        }
      ],
      "name": "transferOwnership",
      "outputs": [],
      "stateMutability": "nonpayable",
      "type": "function"
    },
    {
      "inputs": [
        {
          "internalType": "uint16",
          "name": "lzDstChainId",
          "type": "uint16"
        },
        {
          "internalType": "bytes",
          "name": "airdropAdapterParams",
          "type": "bytes"
        },
        {
          "internalType": "address",
          "name": "zroPaymentAddress",
          "type": "address"
        },
        {
          "internalType": "uint256",
          "name": "amount",
          "type": "uint256"
        },
        {
          "components": [
            {
              "internalType": "address payable",
              "name": "refundAddress",
              "type": "address"
            },
            {
              "internalType": "address",
              "name": "zroPaymentAddress",
              "type": "address"
            },
            {
              "internalType": "bytes",
              "name": "adapterParams",
              "type": "bytes"
            }
          ],
          "internalType": "struct ISendFrom.LzCallParams",
          "name": "sendFromData",
          "type": "tuple"
        },
        {
          "components": [
            {
              "internalType": "bool",
              "name": "permitAll",
              "type": "bool"
            },
            {
              "internalType": "bool",
              "name": "allowFailure",
              "type": "bool"
            },
            {
              "internalType": "bool",
              "name": "approveOnYieldBox",
              "type": "bool"
            },
            {
              "internalType": "uint16",
              "name": "actionType",
              "type": "uint16"
            },
            {
              "internalType": "address",
              "name": "target",
              "type": "address"
            },
            {
              "internalType": "bool",
              "name": "permitBorrow",
              "type": "bool"
            },
            {
              "internalType": "address",
              "name": "owner",
              "type": "address"
            },
            {
              "internalType": "address",
              "name": "spender",
              "type": "address"
            },
            {
              "internalType": "uint256",
              "name": "value",
              "type": "uint256"
            },
            {
              "internalType": "uint256",
              "name": "deadline",
              "type": "uint256"
            },
            {
              "internalType": "uint8",
              "name": "v",
              "type": "uint8"
            },
            {
              "internalType": "bytes32",
              "name": "r",
              "type": "bytes32"
            },
            {
              "internalType": "bytes32",
              "name": "s",
              "type": "bytes32"
            }
          ],
          "internalType": "struct ICommonData.IApproval[]",
          "name": "approvals",
          "type": "tuple[]"
        }
      ],
      "name": "triggerSendFrom",
      "outputs": [],
      "stateMutability": "payable",
      "type": "function"
    },
    {
      "inputs": [
        {
          "internalType": "uint16",
          "name": "",
          "type": "uint16"
        }
      ],
      "name": "trustedRemoteLookup",
      "outputs": [
        {
          "internalType": "bytes",
          "name": "",
          "type": "bytes"
        }
      ],
      "stateMutability": "view",
      "type": "function"
    },
    {
      "inputs": [
        {
          "internalType": "address",
          "name": "_toAddress",
          "type": "address"
        },
        {
          "internalType": "uint256",
          "name": "_amount",
          "type": "uint256"
        }
      ],
      "name": "unwrap",
      "outputs": [],
      "stateMutability": "nonpayable",
      "type": "function"
    },
    {
      "inputs": [],
      "name": "useCustomAdapterParams",
      "outputs": [
        {
          "internalType": "bool",
          "name": "",
          "type": "bool"
        }
      ],
      "stateMutability": "view",
      "type": "function"
    },
    {
      "inputs": [],
      "name": "vault",
      "outputs": [
        {
          "internalType": "contract TOFTVault",
          "name": "",
          "type": "address"
        }
      ],
      "stateMutability": "view",
      "type": "function"
    },
    {
      "inputs": [
        {
          "internalType": "address",
          "name": "_fromAddress",
          "type": "address"
        },
        {
          "internalType": "address",
          "name": "_toAddress",
          "type": "address"
        },
        {
          "internalType": "uint256",
          "name": "_amount",
          "type": "uint256"
        }
      ],
      "name": "wrap",
      "outputs": [],
      "stateMutability": "payable",
      "type": "function"
    },
    {
      "inputs": [],
      "name": "yieldBox",
      "outputs": [
        {
          "internalType": "contract IYieldBoxBase",
          "name": "",
          "type": "address"
        }
      ],
      "stateMutability": "view",
      "type": "function"
    },
    {
      "stateMutability": "payable",
      "type": "receive"
    }
  ],
  "bytecode": "0x6101a0604052346200090157620068c7803803809162000022826101a062000906565b6101a0396101a0016101806101a08203126200090157620000456101a06200092a565b90620000536101c06200092a565b6101e0519091906001600160a01b0381168103620009015761020051916001600160a01b03831683036200090157610220516001600160401b038111620009015781620000a4916101a00162000964565b6102405190916001600160401b0382116200090157620000c8916101a00162000964565b9160c06101a001519160ff8316830362000901576102805194620000ee6102a06200092a565b92620000fc6102c06200092a565b966200010a6102e06200092a565b95620001186103006200092a565b97604051956a546170696f63614f46542d60a81b60208801526200015d602b8883516200014c81848401602088016200093f565b810103600b81018a52018862000906565b604080519d908e016001600160401b0381118f8210176200063a5760208f603160f81b92604052600181520152620001cf602b60405180946a546170696f63614f46542d60a81b6020830152620001be81518092602086860191016200093f565b810103600b81018552018362000906565b6200020a60216040518095601d60fa1b6020830152620001f981518092602086860191016200093f565b810103600181018652018462000906565b60008054336001600160a01b0319821681178355916001600160a01b03909116907f8be0079c531659141344cd1fd0a4f28419497f9722a3daafe3b4186f6b6457e09080a36001600160a01b0316608052600183901c607f1660a0528051906001600160401b0382116200063a57600b5490600182811c92168015620008f6575b6020831014620007c85781601f84931162000884575b50602090601f8311600114620007f557600092620007e9575b50508160011b916000199060031b1c191617600b555b8051906001600160401b0382116200063a57600c5490600182811c92168015620007de575b6020831014620007c85781601f84931162000756575b50602090601f8311600114620006c757600092620006bb575b50508160011b916000199060031b1c191617600c555b60ff62000346620009bf565b1680607f8360011c16116200066657607f8260011c1690039060ff82116200065057604d60ff831611620006505760ff809216600a0a60c0526101f460135560018060a01b038b1660018060a01b0319600f541617600f551660ff19601154161760115560105560018060a01b031660018060a01b0319600d541617600d5560018060a01b031660018060a01b0319600e541617600e5560208151910120956020815191012086610140528061016052466101005260405196600080516020620068a78339815191526020890152604088015260608701524660808701523060a087015260a086528560c081011060018060401b0360c0880111176200063a5760c0868101604081815288516020808b019190912060e0523061012052600080516020620068a783398151915261018052601680546001600160a01b039687166001600160a01b03199182168117909255601780549a88169a82168b1790556018805498881698821689179055601980549990971698168817909555600094855260129052808420805460ff199081166001908117909255978552818520805489168217905594845280842080548816861790559483529390912080549094169091179092556106878085019283019392909184106001600160401b038511176200063a5760c093602093869362006220878601396001600160a01b03169052030191016000f080156200062e57601b80546001600160a01b0319166001600160a01b039290921691909117905560405161584a9081620009d682396080518181816105e8015281816108c501528181610df501528181610fa6015281816112a0015281816123320152818161259e01528181612ebd015281816149a50152614c64015260a05181611c3d015260c051818181614df401528181614f2801528181615195015261522d015260e051816135bd01526101005181613678015261012051816135870152610140518161360c01526101605181613632015261018051816135e90152f35b6040513d6000823e3d90fd5b634e487b7160e01b600052604160045260246000fd5b634e487b7160e01b600052601160045260246000fd5b60405162461bcd60e51b815260206004820152602760248201527f4f46543a20736861726564446563696d616c73206d757374206265203c3d20646044820152666563696d616c7360c81b6064820152608490fd5b01519050388062000324565b600c600090815293507fdf6966c971051c3d54ec59162606531493a51404a002842f56009d7e5cf4a8c791905b601f19841685106200073a576001945083601f1981161062000720575b505050811b01600c556200033a565b015160001960f88460031b161c1916905538808062000711565b81810151835560209485019460019093019290910190620006f4565b600c6000529091507fdf6966c971051c3d54ec59162606531493a51404a002842f56009d7e5cf4a8c7601f840160051c810160208510620007c0575b90849392915b601f830160051c82018110620007b05750506200030b565b6000815585945060010162000798565b508062000792565b634e487b7160e01b600052602260045260246000fd5b91607f1691620002f5565b015190503880620002ba565b600b600090815293507f0175b7a638427703f0dbe7bb9bbf987a2551717b34e79f33b5b1008d1fa01db991905b601f198416851062000868576001945083601f198116106200084e575b505050811b01600b55620002d0565b015160001960f88460031b161c191690553880806200083f565b8181015183556020948501946001909301929091019062000822565b600b6000529091507f0175b7a638427703f0dbe7bb9bbf987a2551717b34e79f33b5b1008d1fa01db9601f840160051c810160208510620008ee575b90849392915b601f830160051c82018110620008de575050620002a1565b60008155859450600101620008c6565b5080620008c0565b91607f16916200028b565b600080fd5b601f909101601f19168101906001600160401b038211908210176200063a57604052565b51906001600160a01b03821682036200090157565b60005b838110620009535750506000910152565b818101518382015260200162000942565b81601f82011215620009015780516001600160401b0381116200063a57604051926200099b601f8301601f19166020018562000906565b818452602082840101116200090157620009bc91602080850191016200093f565b90565b60ff601154168015620009cf5790565b5060129056fe6080604052600436101561001b575b361561001957600080fd5b005b60003560e01c80621d3567146104cf57806254af3a146104ca57806301ffc9a7146104c557806306fdde03146104c057806307e0db17146104bb578063095ea7b3146104b65780630a2b2471146104b15780630df37483146104ac5780630ed9e406146104a75780630fb6ba59146104a257806310ddb1371461049d57806318160ddd1461040c57806323b872dd14610498578063313ce567146104935780633644e5151461048e578063365260b414610489578063395093511461048457806339f476931461047f5780633a2544b51461047a5780633d8b38f6146104755780633f1f4fa41461047057806342d65a8d1461046b57806343f68a491461046657806344770515146104615780634c42899a146104615780635b8c41e61461045c578063623556381461045757806366ad5c8a14610452578063695ef6bf1461044d57806370a0823114610448578063715018a6146104435780637533d7881461043e57806376203b4814610439578063785e9e8614610434578063796fd43a1461042f5780637ecebe001461042a578063857749b01461042557806389dd5602146104205780638aec28341461041b5780638cfd8f5c146104165780638da5cb5b146104115780639358928b1461040c578063950c8a741461040757806395d89b41146104025780639bdb9812146103fd5780639f38369a146103f8578063a457c2d7146103f3578063a4c51df5146103ee578063a643c52e146103e9578063a6c3d165146103e4578063a9059cbb146103df578063ab8236f3146103da578063b25ea8fb146103d5578063b353aaa7146103d0578063baf3292d146103cb578063c056a8de146103c6578063c4461834146103c1578063cbed8b9c146103bc578063cfd8b3d8146103b7578063d1deba1f146103b2578063d505accf146103ad578063dbd01de1146103a8578063dd62ed3e146103a3578063de4065771461039e578063df2a5b3b14610399578063e6a20ae614610394578063eab45d9c1461038f578063eaffd49a1461038a578063eb8d72b714610385578063ed629c5c14610380578063f2fde38b1461037b578063f56e5cbf14610376578063f5b33dfa14610371578063f5ecbdbc1461036c578063fbfa77cf146103675763fc0c546a0361000e57612f50565b612f27565b612e5b565b612e32565b612d8d565b612cd8565b612cb5565b612b8c565b612b07565b612aa5565b612a89565b6129a4565b61297b565b612931565b612908565b6127a7565b61264c565b612623565b612552565b612535565b6123f5565b612361565b61231c565b6122a6565b6121d2565b6121a8565b612046565b612028565b611f95565b611ee9565b611e4a565b611dff565b611d5b565b611d32565b610e56565b611d09565b611cbf565b611c96565b611c6d565b611c23565b611be6565b611a74565b611a4b565b611825565b6117d2565b61169e565b611661565b611582565b6114fc565b61140e565b6113ba565b611316565b6112f5565b611286565b611251565b6111f5565b611117565b611074565b611024565b610f20565b610ee8565b610ec2565b610ea0565b610dd0565b610d3d565b610c7b565b610b30565b6109ef565b610959565b6108a0565b6107c0565b61070e565b6106f0565b6105d1565b6004359061ffff821682036104e557565b600080fd5b6064359061ffff821682036104e557565b6084359061ffff821682036104e557565b6044359061ffff821682036104e557565b6024359061ffff821682036104e557565b359061ffff821682036104e557565b9181601f840112156104e5578235916001600160401b0383116104e557602083818601950101116104e557565b9060806003198301126104e55760043561ffff811681036104e557916001600160401b03906024358281116104e557816105a69160040161053d565b9390939260443581811681036104e557926064359182116104e5576105cd9160040161053d565b9091565b346104e5576105df3661056a565b929493919291907f00000000000000000000000000000000000000000000000000000000000000006001600160a01b031633036106a05761066561066d926100199761065e61064461063f8a61ffff166000526001602052604060002090565b6117b7565b8051908184149182610696575b5081610673575b50614268565b3691610c29565b923691610c29565b926143c5565b9050610680368486610c29565b6020815191012090602081519101201438610658565b1515915038610651565b60405162461bcd60e51b815260206004820152601e60248201527f4c7a4170703a20696e76616c696420656e64706f696e742063616c6c657200006044820152606490fd5b60009103126104e557565b346104e55760003660031901126104e5576020601054604051908152f35b346104e55760203660031901126104e55760043563ffffffff60e01b81168091036104e557602090631f7ecdf760e01b8114908115610753575b506040519015158152f35b6301ffc9a760e01b14905038610748565b60005b8381106107775750506000910152565b8181015183820152602001610767565b906020916107a081518092818552858086019101610764565b601f01601f1916010190565b9060206107bd928181520190610787565b90565b346104e55760008060031936011261089d5760405181600b546107e2816116e7565b80845290600190818116908115610875575060011461081c575b6108188461080c81880382610beb565b604051918291826107ac565b0390f35b600b8352602094507f0175b7a638427703f0dbe7bb9bbf987a2551717b34e79f33b5b1008d1fa01db95b82841061086257505050816108189361080c92820101936107fc565b8054858501870152928501928101610846565b610818965061080c9450602092508593915060ff191682840152151560051b820101936107fc565b80fd5b346104e5576000602036600319011261089d576108bb6104d4565b6108c3612f6b565b7f00000000000000000000000000000000000000000000000000000000000000006001600160a01b0316908290823b1561093757602461ffff918360405195869485936307e0db1760e01b85521660048401525af1801561093257610926575080f35b61092f90610b81565b80f35b613500565b5080fd5b6001600160a01b038116036104e557565b35906109578261093b565b565b346104e55760403660031901126104e5576109836004356109798161093b565b60243590336131b5565b602060405160018152f35b60609060c31901126104e55760c490565b60609060a31901126104e55760a490565b908160609103126104e55790565b9181601f840112156104e5578235916001600160401b0383116104e5576020808501946101a085020101116104e557565b60c03660031901126104e557610a036104d4565b6001600160401b036024358181116104e557610a2390369060040161053d565b919092604435610a328161093b565b6084358381116104e557610a4a9036906004016109b0565b9060a4359384116104e5576100199561ffff95610b0e610b1d946060610afe610aab610a7d610b2b9b36906004016109be565b9790966040519d8e9c8d6020630a2b247160e01b9101521660248d015260c060448d015260e48c01916136f9565b9260018060a01b0380981660648b015260643560848b015260231997888b86030160a48c0152808235610add8161093b565b1685526020820135610aee8161093b565b166020850152604081019061371a565b91909281604082015201916136f9565b928584030160c486015261374c565b03601f198101835282610beb565b613e58565b346104e55760403660031901126104e55761ffff610b4c6104d4565b610b54612f6b565b166000526003602052602435604060002055600080f35b634e487b7160e01b600052604160045260246000fd5b6001600160401b038111610b9457604052565b610b6b565b61012081019081106001600160401b03821117610b9457604052565b60c081019081106001600160401b03821117610b9457604052565b604081019081106001600160401b03821117610b9457604052565b601f909101601f19168101906001600160401b03821190821017610b9457604052565b6001600160401b038111610b9457601f01601f191660200190565b929192610c3582610c0e565b91610c436040519384610beb565b8294818452818301116104e5578281602093846000960137010152565b9080601f830112156104e5578160206107bd93359101610c29565b60c03660031901126104e557600435610c938161093b565b610c9b6104ea565b9060843590610ca98261093b565b60a435926001600160401b0384116104e557610b1d61ffff93610d2793610cd7610019973690600401610c60565b9160405196879563076cf20360e11b602088015260018060a01b038094166024880152602435604488015260443560648801521660848601521660a484015260c060c484015260e4830190610787565b613db8565b60409060a31901126104e55760a490565b60e03660031901126104e557610019600435610d588161093b565b610dc360243591610d688361093b565b61ffff610d736104fb565b610d7c36610d2c565b9260405195630fb6ba5960e01b602088015260018060a01b038092166024880152166044860152604435606486015260643560848601521660a484015260c4830190613a70565b60e48152610d2781610b99565b346104e5576000602036600319011261089d57610deb6104d4565b610df3612f6b565b7f00000000000000000000000000000000000000000000000000000000000000006001600160a01b0316908290823b1561093757602461ffff918360405195869485936310ddb13760e01b85521660048401525af1801561093257610926575080f35b346104e55760003660031901126104e5576020600a54604051908152f35b60609060031901126104e557600435610e8c8161093b565b90602435610e998161093b565b9060443590565b346104e557610983610eb136610e74565b91610ebd8333836132ce565b6130e6565b346104e55760003660031901126104e5576020610edd6136e4565b60ff60405191168152f35b346104e55760003660031901126104e5576020610f03613584565b604051908152f35b801515036104e557565b359061095782610f0b565b346104e55760a03660031901126104e557610f396104d4565b60643590610f4682610f0b565b608435906001600160401b0382116104e557610f6b61065e604093369060040161053d565b90610fa2610f85610f7d604435615193565b602435615262565b928451958694859463040a7bb160e41b8652309060048701614b3c565b03817f00000000000000000000000000000000000000000000000000000000000000006001600160a01b03165afa908115610932576000908192610ff3575b50604080519182526020820192909252f35b9050611016915060403d811161101d575b61100e8183610beb565b810190614b26565b9038610fe1565b503d611004565b346104e55760403660031901126104e5576004356110418161093b565b336000526009602052611058816040600020612fdd565b54602435810180911161106f5761098391336131b5565b612ff4565b346104e5576000604036600319011261089d576004356110938161093b565b816024356110a46010544614613fb9565b6110ae8133614167565b601b546001600160a01b0316803b156110f4576110e2938360405180968195829463f3fef3a360e01b845260048401613bd5565b03925af1801561093257610926575080f35b8280fd5b60809060831901126104e557608490565b908160a09103126104e55790565b6101803660031901126104e5576004356111308161093b565b60243561113c8161093b565b61114461050c565b6001600160401b0392906064358481116104e55761116690369060040161053d565b61116f366110f8565b91610104358781116104e557611189903690600401611109565b936040366101231901126104e557610164359788116104e5576111b36100199836906004016109be565b979096613a83565b9060406003198301126104e55760043561ffff811681036104e55791602435906001600160401b0382116104e5576105cd9160040161053d565b346104e557602061ffff61124261120b366111bb565b939091166000526001845261122d611234604060002060405192838092611721565b0382610beb565b848151910120923691610c29565b82815191012014604051908152f35b346104e55760203660031901126104e55761ffff61126d6104d4565b1660005260036020526020604060002054604051908152f35b346104e557611294366111bb565b919061129e612f6b565b7f00000000000000000000000000000000000000000000000000000000000000006001600160a01b031691823b156104e557604051928380926342d65a8d60e01b8252816110e260009889978894600485016142f9565b346104e55760203660031901126104e55761130e612f6b565b600435601355005b346104e55760003660031901126104e557602060405160008152f35b60606003198201126104e55760043561ffff811681036104e557916001600160401b0391602435908382116104e55761136d91600401610c60565b9160443590811681036104e55790565b602090611397928260405194838680955193849201610764565b82019081520301902090565b9060018060401b0316600052602052604060002090565b346104e557602061140561ffff6113f7836113d436611332565b949091166000526005825260406000208260405194838680955193849201610764565b8201908152030190206113a3565b54604051908152f35b61141736610e74565b6114246010544614613fb9565b600f546001600160a01b039081166114425750506100199150614113565b8392919216338103611490575b5061148b8261001994611463821515613ff1565b611476611471600f54611c61565b611c61565b90611485611471601b54611c61565b916140bb565b614026565b6000526009602052816114a7336040600020612fdd565b54106114c85761148b82610019946114c08233836132ce565b94505061144f565b60405162461bcd60e51b815260206004820152600c60248201526b1513d19517d85b1b1bddd95960a21b6044820152606490fd5b346104e55761150a3661056a565b919294939030330361152e5761066561152892610019973691610c29565b9261458e565b60405162461bcd60e51b815260206004820152602660248201527f4e6f6e626c6f636b696e674c7a4170703a2063616c6c6572206d7573742062656044820152650204c7a4170760d41b6064820152608490fd5b60a03660031901126104e55760043561159a8161093b565b6115a261051d565b604435916084356001600160401b0381116104e557602061ffff6115d96000805160206157558339815191529336906004016109b0565b9361164c85356115e88161093b565b61160661065e86890135986115fc8a61093b565b6040810190614923565b611610818a615095565b61162561161e60643561522b565b5085615433565b97611631891515614b80565b61164361163d8a615193565b8c615262565b9234938b614c20565b6040519485526001600160a01b0316941692a4005b346104e55760203660031901126104e55760043561167e8161093b565b60018060a01b031660005260086020526020604060002054604051908152f35b346104e55760008060031936011261089d576116b8612f6b565b80546001600160a01b03198116825581906001600160a01b03166000805160206157b58339815191528280a380f35b90600182811c92168015611717575b602083101461170157565b634e487b7160e01b600052602260045260246000fd5b91607f16916116f6565b9060009291805491611732836116e7565b9182825260019384811690816000146117945750600114611754575b50505050565b90919394506000526020928360002092846000945b83861061178057505050500101903880808061174e565b805485870183015294019385908201611769565b9294505050602093945060ff191683830152151560051b0101903880808061174e565b906109576117cb9260405193848092611721565b0383610beb565b346104e55760203660031901126104e55761ffff6117ee6104d4565b16600052600160205261081861122d611811604060002060405192838092611721565b604051918291602083526020830190610787565b60e03660031901126104e55760043561183d8161093b565b61184561051d565b604435916001600160401b03906084358281116104e55761186a90369060040161053d565b91909260a43591818316918284036104e55760c4359081116104e5576118949036906004016109b0565b926118cb8435956118a48761093b565b6118c36118b96020880135976115fc8961093b565b9990923691610c29565b973691610c29565b9460ff600654166000146119bd576022865110611979578560209561164361164c946119478c61193461ffff9a8b60226000805160206157558339815191529f0151931660005260028d5261192e60406000206001600052602052604060002090565b54613026565b906119408215156150ea565b1015615133565b61195c61195560643561522b565b5088615433565b9a6119688c1515614b80565b8d6119728d615193565b90336152f0565b60405162461bcd60e51b815260206004820152601c60248201527b4c7a4170703a20696e76616c69642061646170746572506172616d7360201b6044820152606490fd5b9480949350516119ea576000805160206157558339815191529460209461ffff9461164361164c94611947565b60405162461bcd60e51b815260206004820152602660248201527f4f4654436f72653a205f61646170746572506172616d73206d7573742062652060448201526532b6b83a3c9760d11b6064820152608490fd5b6001600160a01b03169052565b346104e55760003660031901126104e557600f546040516001600160a01b039091168152602090f35b60031961010036820181136104e55760243591611a908361093b565b604435926001600160401b03918285116104e55760e0856004019186360301126104e5576064359283116104e557610b1d611bd661001996611ad9611be19636906004016109b0565b611bc5611bba60c4611bb3611aed366110f8565b986040519c8d9b8c6020633cb7ea1d60e11b9101528c602460043591015260018060a01b031660448d015260648c015280356101248c015261ffff80611b3560248a0161052e565b166101448d0152611b486044890161052e565b166101648c0152611b6b6064880135611b608161093b565b6101848d0190611a3e565b611b9f611b948c610204611b8260848c018661371a565b91909260e06101a482015201916136f9565b9160a489019061371a565b8c830361012319016101c48e0152906136f9565b940161094c565b6101e4880190611a3e565b858203602319016084870152613b49565b9160a4840190613b7d565b613eac565b346104e55760203660031901126104e557600435611c038161093b565b60018060a01b031660005260146020526020604060002054604051908152f35b346104e55760003660031901126104e557602060405160ff7f0000000000000000000000000000000000000000000000000000000000000000168152f35b6001600160a01b031690565b346104e55760003660031901126104e5576019546040516001600160a01b039091168152602090f35b346104e55760003660031901126104e5576017546040516001600160a01b039091168152602090f35b346104e55760403660031901126104e5576020611405611cdd6104d4565b61ffff611ce861051d565b91166000526002835260406000209061ffff16600052602052604060002090565b346104e55760003660031901126104e5576000546040516001600160a01b039091168152602090f35b346104e55760003660031901126104e5576004546040516001600160a01b039091168152602090f35b346104e55760008060031936011261089d5760405181600c54611d7d816116e7565b808452906001908181169081156108755750600114611da6576108188461080c81880382610beb565b600c8352602094507fdf6966c971051c3d54ec59162606531493a51404a002842f56009d7e5cf4a8c75b828410611dec57505050816108189361080c92820101936107fc565b8054858501870152928501928101611dd0565b346104e557602060ff611e3e61ffff6113f784611e1b36611332565b949091166000526007825260406000208260405194838680955193849201610764565b54166040519015158152f35b346104e55760203660031901126104e55761ffff611e666104d4565b16600052600160205261122d611e86604060002060405192838092611721565b805115611ea45761080c81611e9e6108189351614368565b9061550d565b60405162461bcd60e51b815260206004820152601d60248201527f4c7a4170703a206e6f20747275737465642070617468207265636f72640000006044820152606490fd5b346104e55760403660031901126104e557600435611f068161093b565b60243590336000526009602052611f21816040600020612fdd565b5491808310611f4257611f36920390336131b5565b60405160018152602090f35b60405162461bcd60e51b815260206004820152602560248201527f45524332303a2064656372656173656420616c6c6f77616e63652062656c6f77604482015264207a65726f60d81b6064820152608490fd5b346104e55760e03660031901126104e557611fae6104d4565b6001600160401b03906064358281116104e557611fcf90369060040161053d565b60849291923584811681036104e55760a43591611feb83610f0b565b60c4359586116104e55761200661201696369060040161053d565b9590946044359060243590614955565b60408051928352602083019190915290f35b346104e55760003660031901126104e5576020601354604051908152f35b346104e557612054366111bb565b9061205d612f6b565b604051926020928083858701376120896034868381013060601b88820152036014810188520186610beb565b61ffff8216600090815260018086526040822087519296909291906001600160401b038311610b94576120c6836120c086546116e7565b86614314565b80601f84116001146121245750918080926121139695948a9b6000805160206157758339815191529b94612119575b50501b916000199060031b1c19161790555b604051938493846142f9565b0390a180f35b0151925038806120f5565b91939498601f19841661213c87600052602060002090565b938a905b82821061219157505091600080516020615775833981519152999a9593918561211398969410612178575b505050811b019055612107565b015160001960f88460031b161c1916905538808061216b565b808886978294978701518155019601940190612140565b346104e55760403660031901126104e5576109836004356121c88161093b565b60243590336130e6565b346104e55760c03660031901126104e5576121eb6104d4565b506001600160401b036024358181116104e55761220c903690600401610c60565b5061221860643561093b565b6084359060a4359081116104e557612234903690600401610c60565b50600f546001600160a01b0391908216806122985750905061225a611471601b54611c61565b803b156104e557600090600460405180948193636db5a92360e11b83525af180156109325761228557005b8061229261001992610b81565b806106e5565b61001992601b541690613bf0565b346104e55760403660031901126104e5576024356122c38161093b565b6122cb612f6b565b60008080808094600435905af16122e0613cf7565b50156122e95780f35b60405162461bcd60e51b815260206004820152600b60248201526a1513d19517d1985a5b195960aa1b6044820152606490fd5b346104e55760003660031901126104e5576040517f00000000000000000000000000000000000000000000000000000000000000006001600160a01b03168152602090f35b346104e55760203660031901126104e5577f5db758e995a17ec1ad84bdef7e8c3293a0bd6179bcce400dff5d4c3d87db726b60206004356123a18161093b565b6123a9612f6b565b600480546001600160a01b0319166001600160a01b03929092169182179055604051908152a1005b60c09060031901126104e557600490565b60c0906101231901126104e55761012490565b610220806003193601126104e55761240c366123d1565b6124153661098e565b9161241f366123e2565b906001600160401b03906101e4358281116104e5576124429036906004016109be565b90916102049384359081116104e55761245f90369060040161053d565b94909560405198899863602b546f60e11b60208b015280356124808161093b565b6001600160a01b0390811660248c015280602083013561249f8161093b565b1660448c0152604082013560648c0152606082013560848c015260808201356124c78161093b565b1660a48b015260a0013560c48a015260e489016124e39161386c565b61014488016124f1916138a2565b8601526102448501906125039261374c565b906023198483030161022485015261251a926136f9565b03601f198101825261252c9082610beb565b61001990613e58565b346104e55760003660031901126104e55760206040516127108152f35b346104e55760803660031901126104e55761256b6104d4565b61257361051d565b6064356001600160401b0381116104e55761259290369060040161053d565b909261259c612f6b565b7f00000000000000000000000000000000000000000000000000000000000000006001600160a01b031690813b156104e55760008094612613604051978896879586946332fb62e760e21b865261ffff809216600487015216602485015260443560448501526080606485015260848401916136f9565b03925af180156109325761228557005b346104e55760003660031901126104e5576018546040516001600160a01b039091168152602090f35b6126553661056a565b9161ffff8694929616600052600560205261268981604060002060206040518092878b8337878201908152030190206113a3565b549182156127385761272784836127207fc264d91f3adc5588250e1551f547752ca0cfa8f6b530d243b9f9f4cab10ea8e59a600061270c846127078e8a8f6127339f908f6126ed906126e06127019436908d610c29565b6020815191012014614896565b61ffff166000526005602052604060002090565b9161487d565b6113a3565b5561271836878d610c29565b933691610c29565b918861458e565b604051958695866148ec565b0390a1005b60405162461bcd60e51b815260206004820152602360248201527f4e6f6e626c6f636b696e674c7a4170703a206e6f2073746f726564206d65737360448201526261676560e81b6064820152608490fd5b6084359060ff821682036104e557565b359060ff821682036104e557565b346104e55760e03660031901126104e5576004356127c48161093b565b6024356127d08161093b565b60443590606435926127e0612789565b938042116128c3576128ab6128be916128856100199761289361281e8760018060a01b03166000526014602052604060002090815491600183019055565b604080517f6e71edae12b1b97f4d1f60370fef10105fa2faae0126114a169c64845d6126c9602082019081526001600160a01b03808c1693830193909352918b166060820152608081018c905260a081019290925260c082019590955292839060e0820190565b03601f198101845283610beb565b6128a660c4359360a4359351902061369e565b6133aa565b6001600160a01b0383811691161461335e565b6131b5565b60405162461bcd60e51b815260206004820152601d60248201527f45524332305065726d69743a206578706972656420646561646c696e650000006044820152606490fd5b346104e55760003660031901126104e557600e546040516001600160a01b039091168152602090f35b346104e55760403660031901126104e55760206114056004356129538161093b565b602435906129608261093b565b6001600160a01b031660009081526009845260409020612fdd565b346104e55760003660031901126104e557600d546040516001600160a01b039091168152602090f35b346104e55760603660031901126104e5576129bd6104d4565b6129c561051d565b604435916129d1612f6b565b8215612a4c576127337f9d5c7c0b934da8fefa9c7760c98383778a12dfbfc0c3b3106518f43fb9508ac09361ffff8316600052600260205280612a268560406000209061ffff16600052602052604060002090565b556040519384938460409194939294606082019561ffff80921683521660208201520152565b60405162461bcd60e51b81526020600482015260156024820152744c7a4170703a20696e76616c6964206d696e47617360581b6044820152606490fd5b346104e55760003660031901126104e557602060405160018152f35b346104e55760203660031901126104e5577f1584ad594a70cbe1e6515592e1272a987d922b097ead875069cebe8b40c004a46020600435612ae581610f0b565b612aed612f6b565b151560ff196006541660ff821617600655604051908152a1005b346104e5576101003660031901126104e557612b216104d4565b6001600160401b03906024358281116104e557612b4290369060040161053d565b91906044359084821682036104e557608435612b5d8161093b565b60c4359586116104e557612b7861001996369060040161053d565b94909360e4359660a4359460643593614a4c565b346104e557612b9a366111bb565b9190612ba4612f6b565b61ffff82166000908152600160208181526040832092949291906001600160401b038711610b9457612be087612bda85546116e7565b85614314565b8590601f8811600114612c355750918680879893612113956000805160206157f58339815191529993612c2a575b501b906000198460031b1c1916179055604051938493846142f9565b880135925038612c0e565b90601f198816612c4a85600052602060002090565b9288905b828210612c9e575050918893916000805160206157f58339815191529899612113969410612c84575b505082811b019055612107565b870135600019600386901b60f8161c191690553880612c77565b808685968294968c01358155019501930190612c4e565b346104e55760003660031901126104e557602060ff600654166040519015158152f35b346104e55760203660031901126104e557600435612cf58161093b565b612cfd612f6b565b6001600160a01b039081168015612d3957600080546001600160a01b03198116831782559092166000805160206157b58339815191528380a380f35b60405162461bcd60e51b815260206004820152602660248201527f4f776e61626c653a206e6577206f776e657220697320746865207a65726f206160448201526564647265737360d01b6064820152608490fd5b6101403660031901126104e557600435612da68161093b565b602435612db28161093b565b612dba61050c565b91606435612dc78161093b565b6001600160401b03936084358581116104e557612de8903690600401611109565b612df13661099f565b90610104358781116104e557612e0b9036906004016109be565b949093610124359889116104e557612e2a61001999369060040161053d565b989097613972565b346104e55760003660031901126104e5576016546040516001600160a01b039091168152602090f35b346104e55760803660031901126104e557612e746104d4565b612e7c61051d565b90612e8860443561093b565b604051633d7b2f6f60e21b815261ffff91821660048201529116602482015230604482015260648035908201526000816084817f00000000000000000000000000000000000000000000000000000000000000006001600160a01b03165afa80156109325761081891600091612f06575b50604051918291826107ac565b612f21913d8091833e612f198183610beb565b8101906142c3565b38612ef9565b346104e55760003660031901126104e557601b546040516001600160a01b039091168152602090f35b346104e55760003660031901126104e5576020604051308152f35b6000546001600160a01b03163303612f7f57565b606460405162461bcd60e51b815260206004820152602060248201527f4f776e61626c653a2063616c6c6572206973206e6f7420746865206f776e65726044820152fd5b6001600160a01b0316600090815260086020526040902090565b9060018060a01b0316600052602052604060002090565b634e487b7160e01b600052601160045260246000fd5b90601f820180921161106f57565b605101908160511161106f57565b9190820180921161106f57565b1561303a57565b60405162461bcd60e51b815260206004820152602360248201527f45524332303a207472616e7366657220746f20746865207a65726f206164647260448201526265737360e81b6064820152608490fd5b1561309257565b60405162461bcd60e51b815260206004820152602660248201527f45524332303a207472616e7366657220616d6f756e7420657863656564732062604482015265616c616e636560d01b6064820152608490fd5b916001600160a01b03808416929091831561316257613147826000805160206157d58339815191529461315d941696613120881515613033565b6131418461312d83612fc3565b5461313a8282101561308b565b0391612fc3565b55612fc3565b8054820190556040519081529081906020820190565b0390a3565b60405162461bcd60e51b815260206004820152602560248201527f45524332303a207472616e736665722066726f6d20746865207a65726f206164604482015264647265737360d81b6064820152608490fd5b6001600160a01b03808216929190831561327d57821693841561322d578061321c7f8c5be1e5ebec7d5bd14f71427d1e84f3dd0314c0f7b2291e5b200ac8c7c3b9259461321761315d9560018060a01b03166000526009602052604060002090565b612fdd565b556040519081529081906020820190565b60405162461bcd60e51b815260206004820152602260248201527f45524332303a20617070726f766520746f20746865207a65726f206164647265604482015261737360f01b6064820152608490fd5b60405162461bcd60e51b8152602060048201526024808201527f45524332303a20617070726f76652066726f6d20746865207a65726f206164646044820152637265737360e01b6064820152608490fd5b9060018060a01b03821660005260096020526132ee816040600020612fdd565b5492600184016132fe5750505050565b808410613319576133109303916131b5565b3880808061174e565b60405162461bcd60e51b815260206004820152601d60248201527f45524332303a20696e73756666696369656e7420616c6c6f77616e63650000006044820152606490fd5b1561336557565b60405162461bcd60e51b815260206004820152601e60248201527f45524332305065726d69743a20696e76616c6964207369676e617475726500006044820152606490fd5b916107bd93916133b99361350c565b9190916133e1565b600511156133cb57565b634e487b7160e01b600052602160045260246000fd5b6133ea816133c1565b806133f25750565b6133fb816133c1565b600181036134475760405162461bcd60e51b815260206004820152601860248201527745434453413a20696e76616c6964207369676e617475726560401b6044820152606490fd5b0390fd5b613450816133c1565b6002810361349d5760405162461bcd60e51b815260206004820152601f60248201527f45434453413a20696e76616c6964207369676e6174757265206c656e677468006044820152606490fd5b806134a96003926133c1565b146134b057565b60405162461bcd60e51b815260206004820152602260248201527f45434453413a20696e76616c6964207369676e6174757265202773272076616c604482015261756560f01b6064820152608490fd5b6040513d6000823e3d90fd5b9291906fa2a8918ca85bafe22016d0b997e4df60600160ff1b0383116135785791608094939160ff602094604051948552168484015260408301526060820152600093849182805260015afa156109325781516001600160a01b03811615613572579190565b50600190565b50505050600090600390565b307f00000000000000000000000000000000000000000000000000000000000000006001600160a01b03161480613675575b156135df577f000000000000000000000000000000000000000000000000000000000000000090565b60405160208101907f000000000000000000000000000000000000000000000000000000000000000082527f000000000000000000000000000000000000000000000000000000000000000060408201527f000000000000000000000000000000000000000000000000000000000000000060608201524660808201523060a082015260a0815261366f81610bb5565b51902090565b507f000000000000000000000000000000000000000000000000000000000000000046146135b6565b6136a6613584565b9060405190602082019261190160f01b845260228301526042820152604281526080810181811060018060401b03821117610b945760405251902090565b60ff6011541680156136f35790565b50601290565b908060209392818452848401376000828201840152601f01601f1916010190565b9035601e19823603018112156104e5570160208101919035906001600160401b0382116104e55781360383136104e557565b9190808252602080920192916000905b82821061376a575050505090565b909192938061378460019261377e88610f15565b15159052565b61379a613792848801610f15565b151582850152565b6137b260406137aa818901610f15565b151590830152565b6137cc60606137c281890161052e565b61ffff1690830152565b6137e560806137dc81890161094c565b90830190611a3e565b6137f560a06137aa818901610f15565b61380560c06137dc81890161094c565b61381560e06137dc81890161094c565b6101008087013590820152610120808701359082015261384561014061383c818901612799565b60ff1690830152565b610160868101359082015261018080870135908201526101a090810195019392019061375c565b6040809161ffff61387c8261052e565b168452602081013561388d8161093b565b6001600160a01b031660208501520135910152565b60a0809180356138b181610f0b565b1515845260208101356138c38161093b565b600180841b03809116602086015261ffff6138e06040840161052e565b1660408601526060820135606086015260808201356138fe8161093b565b1660808501520135910152565b9060a06139626107bd93803561392081610f0b565b1515845260208101356020850152604081013561393c81610f0b565b1515604085015261ffff6139526060830161052e565b166060850152608081019061371a565b91909281608082015201916136f9565b60405163f56e5cbf60e01b60208201526001600160a01b039182166024820152918116604483015261ffff9092166064820152918116608483015261014060a4830152909687969594909390929091906139d19061016489019061390b565b91803560c48901528160208201356139e88161093b565b1660e4890152604001356139fb8161093b565b16610104870152602319938487830301610124880152613a1a9261374c565b9184830301610144850152613a2e926136f9565b03601f1981018252613a409082610beb565b613a4990613e82565b5050565b610124358152602061014435613a628161093b565b6001600160a01b0316910152565b60208091803584520135613a628161093b565b604051633a2544b560e01b60208201526001600160a01b039182166024820152918116604483015261ffff909216606482015261018060848201529687969590939092613ad5916101a48901916136f9565b93803560a4880152602081013560c4880152816040820135613af68161093b565b1660e488015260600135613b098161093b565b16610104860152602319928386820301610124870152613b289161390b565b91613b366101448601613a4d565b84830301610184850152613a2e9261374c565b906060610afe6107bd938035613b5e8161093b565b6001600160a01b0316845260208181013590850152604081019061371a565b60609081813591613b8d8361093b565b6001600160a01b039283168552826020820135613ba98161093b565b166020860152826040820135613bbe8161093b565b1660408601520135613bcf8161093b565b16910152565b6001600160a01b039091168152602081019190915260400190565b613c17610957939261288560405194859263a9059cbb60e01b602085015260248401613bd5565b604051613c75916001600160a01b0316613c3082610bd0565b6000806020958685527f5361666545524332303a206c6f772d6c6576656c2063616c6c206661696c656487860152868151910182855af1613c6f613cf7565b91613d27565b805180613c8157505050565b818391810103126104e557810151613c9881610f0b565b15613ca05750565b6084906040519062461bcd60e51b82526004820152602a60248201527f5361666545524332303a204552433230206f7065726174696f6e20646964206e6044820152691bdd081cdd58d8d9595960b21b6064820152fd5b3d15613d22573d90613d0882610c0e565b91613d166040519384610beb565b82523d6000602084013e565b606090565b91929015613d895750815115613d3b575090565b3b15613d445790565b60405162461bcd60e51b815260206004820152601d60248201527f416464726573733a2063616c6c20746f206e6f6e2d636f6e74726163740000006044820152606490fd5b825190915015613d9c5750805190602001fd5b60405162461bcd60e51b815290819061344390600483016107ac565b6017546001600160a01b03168015613e2557816000929160208493519201905af490613de2613cf7565b90821580613e1d575b613df157565b613443613dfd83613f0b565b60405162461bcd60e51b8152602060048201529182916024830190610787565b506001613deb565b60405162461bcd60e51b815260206004820152600b60248201526a544f46545f6d6f64756c6560a81b6044820152606490fd5b6019546001600160a01b03168015613e2557816000929160208493519201905af490613de2613cf7565b6018546001600160a01b03168015613e2557816000929160208493519201905af490613de2613cf7565b6016546001600160a01b03168015613e2557816000929160208493519201905af490613de2613cf7565b90929192613ee381610c0e565b91613ef16040519384610beb565b8294828452828201116104e5576020610957930190610764565b6103e8815111613f8c576044815110613f66576004810151810190602081602484019303126104e5576024810151906001600160401b0382116104e5570190806043830112156104e55760248201516107bd92604401613ed6565b50604051613f7381610bd0565b6009815268544f46545f6461746160b81b602082015290565b50604051613f9981610bd0565b601081526f2a27a32a2fa627a723afa922a0a9a7a760811b602082015290565b15613fc057565b60405162461bcd60e51b81526020600482015260096024820152681513d19517da1bdcdd60ba1b6044820152606490fd5b15613ff857565b60405162461bcd60e51b81526020600482015260066024820152650544f46545f360d41b6044820152606490fd5b6001600160a01b0381169190821561407657600a549082820180921161106f576000926140676020926000805160206157d583398151915294600a55612fc3565b818154019055604051908152a3565b60405162461bcd60e51b815260206004820152601f60248201527f45524332303a206d696e7420746f20746865207a65726f2061646472657373006044820152606490fd5b6040516323b872dd60e01b60208201526001600160a01b03928316602482015292909116604483015260648083019390935291815260a08101918183106001600160401b03841117610b945761095792604052613c17565b601b546001600160a01b031690813b156104e55760008092600460405180958193636db5a92360e11b83525af19182156109325761095792614158575b503490614026565b61416190610b81565b38614150565b6001600160a01b0381169081156142195761418181612fc3565b548381106141c957836000805160206157d5833981519152926141ab60009661315d940391612fc3565b556141b981600a5403600a55565b6040519081529081906020820190565b60405162461bcd60e51b815260206004820152602260248201527f45524332303a206275726e20616d6f756e7420657863656564732062616c616e604482015261636560f01b6064820152608490fd5b60405162461bcd60e51b815260206004820152602160248201527f45524332303a206275726e2066726f6d20746865207a65726f206164647265736044820152607360f81b6064820152608490fd5b1561426f57565b60405162461bcd60e51b815260206004820152602660248201527f4c7a4170703a20696e76616c696420736f757263652073656e64696e6720636f6044820152651b9d1c9858dd60d21b6064820152608490fd5b6020818303126104e5578051906001600160401b0382116104e557019080601f830112156104e55781516107bd92602001613ed6565b60409061ffff6107bd959316815281602082015201916136f9565b90601f811161432257505050565b600091825260208220906020601f850160051c8301941061435e575b601f0160051c01915b82811061435357505050565b818155600101614347565b909250829061433e565b60131981019190821161106f57565b60501981019190821161106f57565b906107bd949261ffff6143a792168352608060208401526080830190610787565b6001600160401b039093166040820152808303606090910152610787565b9290916143f75a604051633356ae4560e11b6020820152906143f18261288587878a8c60248601614386565b30615709565b939015614406575b5050505050565b61440f94614419565b38808080806143ff565b91936144b77fe183f33de2837795525b4792ca4cd60535bd77c53b7e7030060bfcf5734d6b0c956144c5939561ffff8151602083012096169586600052600560205261447d836113f760208b60406000208260405194838680955193849201610764565b5561449a604051978897885260a0602089015260a0880190610787565b6001600160401b0390921660408701528582036060870152610787565b908382036080850152610787565b0390a1565b6001600160a01b03909116815261ffff909116602082015260a0604082018190526107bd94926144fc91830190610787565b6001600160401b039093166060820152808303608090910152610787565b60409061ffff6107bd94931681528160208201520190610787565b9461456a60a095929461ffff614587959a999a6001808a1b038098168a5216602089015260c0604089015260c0880190610787565b6001600160401b0390921660608701528582036080870152610787565b9416910152565b92919061459a836156bc565b61030281036145e0575061095793610b1d6145db6145b9601754611c61565b60405192839163e1709be960e01b602084015288888888309460248801614535565b61484e565b61030381036146115750604051630d573ab360e31b602082015261095794906145db81610b1d87856024840161451a565b61030881036146555750836109579461465061462e601654611c61565b610b1d87878760405196879563bafb655d60e01b6020880152602487016144ca565b61481f565b610307810361469957508361095794614694614672601854611c61565b610b1d878787604051968795631789153d60e31b6020880152602487016144ca565b6147f0565b61030481036146c9575060405163163b7bd360e21b6020820152610957949061469481610b1d87602483016107ac565b610309810361470157506040516381618d0560e01b602082015261095794906146fc81610b1d8787878760248601614386565b614795565b61030a0361472f5760405163af2ee97560e01b602082015261095794906146fc81610b1d87602483016107ac565b61474161473b84615661565b60ff1690565b806147525750505061095791614d95565b6001036147625761095793614edc565b60405162461bcd60e51b815260206004820152600b60248201526a1513d19517dc1858dad95d60aa1b6044820152606490fd5b60195491949293916001600160a01b03168015613e2557816000929160208493519201905af4926147c4613cf7565b931580806147e8575b6147dc57614406575050505050565b613443613dfd86613f0b565b5060006147cd565b60185491949293916001600160a01b03168015613e2557816000929160208493519201905af4926147c4613cf7565b60165491949293916001600160a01b03168015613e2557816000929160208493519201905af4926147c4613cf7565b60175491949293916001600160a01b03168015613e2557816000929160208493519201905af4926147c4613cf7565b6020919283604051948593843782019081520301902090565b1561489d57565b60405162461bcd60e51b815260206004820152602160248201527f4e6f6e626c6f636b696e674c7a4170703a20696e76616c6964207061796c6f616044820152601960fa1b6064820152608490fd5b9160609361ffff61490f93989796981684526080602085015260808401916136f9565b6001600160401b0390951660408201520152565b903590601e19813603018212156104e557018035906001600160401b0382116104e5576020019181360383136104e557565b94919598979061197261497e604099614976614984976149a1993691610c29565b943691610c29565b97615193565b928451968794859463040a7bb160e41b8652309060048701614b3c565b03817f00000000000000000000000000000000000000000000000000000000000000006001600160a01b03165afa9182156109325760009081936149e457509190565b90506105cd91925060403d811161101d5761100e8183610beb565b939694916107bd98969361ffff614a249316865260c0602087015260c08601916136f9565b6001600160401b0390961660408401526060830152608082015280840360a0909101526136f9565b91969792989594939094303303614ae157614a68908530615459565b60405181815290946001600160a01b03169390849061ffff85169060008051602061579583398151915290602090a3833b156104e5576000988995614ac4936040519c8d9b8c9a8b98633fe79aed60e11b8a5260048a016149ff565b0393f1801561093257614ad45750565b8061229261095792610b81565b60405162461bcd60e51b815260206004820152601f60248201527f4f4654436f72653a2063616c6c6572206d757374206265204f4654436f7265006044820152606490fd5b91908260409103126104e5576020825192015190565b91926107bd959361ffff614b6b9316845260018060a01b0316602084015260a0604084015260a0830190610787565b92151560608201526080818403910152610787565b15614b8757565b60405162461bcd60e51b815260206004820152601960248201527813d19510dbdc994e88185b5bdd5b9d081d1bdbc81cdb585b1b603a1b6044820152606490fd5b92614bed6107bd97959361ffff614bfb9416865260c0602087015260c0860190610787565b908482036040860152610787565b6001600160a01b0391821660608401529316608082015280830360a090910152610787565b94614c499193929561ffff81166000526001602052614c50604060002060405194858092611721565b0384610beb565b825115614cc857614c62855182614d26565b7f00000000000000000000000000000000000000000000000000000000000000006001600160a01b031693843b156104e557600096614cb791604051998a988997889662c5803160e81b885260048801614bc8565b03925af1801561093257614ad45750565b60405162461bcd60e51b815260206004820152603060248201527f4c7a4170703a2064657374696e6174696f6e20636861696e206973206e6f742060448201526f61207472757374656420736f7572636560801b6064820152608490fd5b61ffff166000526003602052604060002054908115614d8b575b11614d4757565b606460405162461bcd60e51b815260206004820152602060248201527f4c7a4170703a207061796c6f61642073697a6520697320746f6f206c617267656044820152fd5b6127109150614d40565b9060ff614da182615661565b161580614e44575b614db2906152a9565b614dc4614dbe82615611565b916156ac565b6001600160a01b039081831615614e3a575b6000805160206157958339815191529160209161ffff9190614e22907f0000000000000000000000000000000000000000000000000000000000000000906001600160401b0316615218565b94614e2d8682614026565b60405195865216941692a3565b61dead9250614dd6565b508051602914614da9565b9897969293614e7960e0979361ffff614eae9894168c5260208c61010091829101528c0190610787565b6001600160401b0390951660408b015260608a01526001600160a01b0316608089015260a088015286820360c0880152610787565b930152565b614ecb60409295949395606083526060830190610787565b94600180841b031660208201520152565b9091614ee78461535a565b9091614f18614f1187612707614f0b8b61ffff166000526007602052604060002090565b8c61137d565b5460ff1690565b916001600160401b0391614f4f907f0000000000000000000000000000000000000000000000000000000000000000908416615218565b9288888b831561504b575b505050853b156150005794614fa196946143f1948a94612885948d99600014614ff95750505a925b5a978b6040519a8b9863757fea4d60e11b60208b015260248a01614e4f565b9015614fee575090614fe961ffff928560207fb8890edbfc1c74692f527444645f95489c3703cc2df42e4a366f5d06fa6cd88496975191012090604051948594169684614eb3565b0390a2565b926109579492614419565b1692614f82565b50506040516001600160a01b039094168452507f9aedf5fdba8716db3b6705ca00150643309995d4f818a249ed6dde6677e7792d9750919550859450506020840192506144c5915050565b906127076150809261507a8961506561508d979b30614026565b9961ffff166000526007602052604060002090565b9061137d565b805460ff19166001179055565b88888b614f5a565b60065460ff16156150e25760228251106119795761ffff6022610957930151911660005260026020526150d5604060002060008052602052604060002090565b54906119408215156150ea565b50516119ea57565b156150f157565b60405162461bcd60e51b815260206004820152601a602482015279131e905c1c0e881b5a5b91d85cd31a5b5a5d081b9bdd081cd95d60321b6044820152606490fd5b1561513a57565b60405162461bcd60e51b815260206004820152601b60248201527a4c7a4170703a20676173206c696d697420697320746f6f206c6f7760281b6044820152606490fd5b634e487b7160e01b600052601260045260246000fd5b7f0000000000000000000000000000000000000000000000000000000000000000908115615213576001600160401b039190048181116151d1571690565b60405162461bcd60e51b815260206004820152601a6024820152794f4654436f72653a20616d6f756e745344206f766572666c6f7760301b6044820152606490fd5b61517d565b8181029291811591840414171561106f57565b7f000000000000000000000000000000000000000000000000000000000000000080156152135781069081810390811161106f5791565b60405160006020820152602181019190915260c09190911b6001600160c01b031916604182015260298152606081016001600160401b03811182821017610b945760405290565b156152b057565b60405162461bcd60e51b815260206004820152601860248201527713d19510dbdc994e881a5b9d985b1a59081c185e5b1bd85960421b6044820152606490fd5b93926071926107bd94604051968794600160f81b6020870152602186015260018060c01b0319809360c01b16604186015260018060a01b0316604985015260c01b16606983015261534a8151809260208686019101610764565b8101036051810184520182610beb565b90615372600160ff61536b85615661565b16146152a9565b61537b82615611565b90615385836156ac565b9060498451106153f65760498401519360518151106153ba576153b76051820151916153b18151614377565b9061558d565b91565b60405162461bcd60e51b8152602060048201526014602482015273746f55696e7436345f6f75744f66426f756e647360601b6044820152606490fd5b60405162461bcd60e51b8152602060048201526015602482015274746f427974657333325f6f75744f66426f756e647360581b6044820152606490fd5b6107bd9082906001600160a01b0381163314614167576154548233836132ce565b614167565b6107bd9183916001600160a01b038116308114159081615485575b50156130e657610ebd8333836132ce565b905033141538615474565b1561549757565b60405162461bcd60e51b815260206004820152600e60248201526d736c6963655f6f766572666c6f7760901b6044820152606490fd5b156154d457565b60405162461bcd60e51b8152602060048201526011602482015270736c6963655f6f75744f66426f756e647360781b6044820152606490fd5b6155218261551a8161300a565b1015615490565b61552e82825110156154cd565b81615546575050604051600081526020810160405290565b60405191601f811691821560051b808486010193838501920101905b80841061557a5750508252601f01601f191660405290565b9092835181526020809101930190615562565b61559a8261551a8161300a565b6155af81516155a884613018565b11156154cd565b816155c7575050604051600081526020810160405290565b60405191601f8116916051831560051b80858701019484860193010101905b8084106155fe5750508252601f01601f191660405290565b90928351815260208091019301906155e6565b602181511061562457602d015160601c90565b60405162461bcd60e51b8152602060048201526015602482015274746f416464726573735f6f75744f66426f756e647360581b6044820152606490fd5b6001815110615671576001015190565b60405162461bcd60e51b8152602060048201526013602482015272746f55696e74385f6f75744f66426f756e647360681b6044820152606490fd5b60298151106153ba576029015190565b60208151106156cc576020015190565b60405162461bcd60e51b8152602060048201526015602482015274746f55696e743235365f6f75744f66426f756e647360581b6044820152606490fd5b909291600080916040519561571d87610bb5565b6096875282602088019560a036883760208451940192f1903d906096821161574b575b6000908286523e9190565b6096915061574056fed81fc9b8523134ed613870ed029d6170cbb73aa6a6bc311b9a642689fb9df59a8c0400cfe2d1199b1a725c78960bcc2a344d869b80590d0f2bd005db15a572cebf551ec93859b170f9b2141bd9298bf3f64322c6f7beb2543a0cb669834118bf8be0079c531659141344cd1fd0a4f28419497f9722a3daafe3b4186f6b6457e0ddf252ad1be2c89b69c2b068fc378daa952ba7f163c4a11628f55a4df523b3effa41487ad5d6728f0b19276fa1eddc16558578f5109fc39d2dc33c3230470daba2646970667358221220b853588c81a3f378e09e1fefa53eb478e9db2b1d66188e8d217b4dcdf8940f2464736f6c634300081200336080346100be57601f61068738819003918201601f19168301916001600160401b038311848410176100c3578084926020946040528339810103126100be57516001600160a01b0390818116908190036100be576000543360018060a01b0319821617600055604051923391167f8be0079c531659141344cd1fd0a4f28419497f9722a3daafe3b4186f6b6457e0600080a3600180546001600160a81b0319168217911560a01b60ff60a01b169190911790556105ad90816100da8239f35b600080fd5b634e487b7160e01b600052604160045260246000fdfe60406080815260048036101561001f575b5050361561001d57600080fd5b005b600091823560e01c8063715018a6146103d85780638da5cb5b146103b0578063b08ff10514610388578063db6b5246146102db578063f2fde38b1461022a5763f3fef3a31461006e5750610010565b3461022657806003193601126102265782610087610423565b6024359061009361043e565b60015460ff8160a01c16600014610151575082809281925af13d1561014c573d6001600160401b038111610139578251906100d8601f8201601f191660200183610496565b81528460203d92013e5b156100ec57505080f35b906020608492519162461bcd60e51b8352820152602160248201527f544f46545661756c743a206e6174697665207472616e73666572206661696c656044820152601960fa1b6064820152fd5b634e487b7160e01b855260418452602485fd5b6100e2565b845163a9059cbb60e01b81526001600160a01b039283168782015260248101939093529192602092849260449284929091165af190811561021c5784916101de575b501561019e57505080f35b906020606492519162461bcd60e51b8352820152601a6024820152791513d19515985d5b1d0e881d1c985b9cd9995c8819985a5b195960321b6044820152fd5b90506020813d8211610214575b816101f860209383610496565b81010312610210575180151581036102105738610193565b8380fd5b3d91506101eb565b82513d86823e3d90fd5b8280fd5b50903461022657602036600319011261022657610245610423565b9061024e61043e565b6001600160a01b0391821692831561028957505082546001600160a01b0319811683178455166000805160206105588339815191528380a380f35b906020608492519162461bcd60e51b8352820152602660248201527f4f776e61626c653a206e6577206f776e657220697320746865207a65726f206160448201526564647265737360d01b6064820152fd5b5082600319360112610226576102ef61043e565b60ff60015460a01c1615610348573415610307578280f35b906020606492519162461bcd60e51b8352820152601b60248201527a1513d19515985d5b1d0e88185b5bdd5b9d081b9bdd081d985b1a59602a1b6044820152fd5b906020606492519162461bcd60e51b8352820152601a6024820152792a27a32a2b30bab63a1d103234b33332b932b73a103a37b5b2b760311b6044820152fd5b8382346103ac57816003193601126103ac576020906103a56104cf565b9051908152f35b5080fd5b8382346103ac57816003193601126103ac57905490516001600160a01b039091168152602090f35b83346104205780600319360112610420576103f161043e565b80546001600160a01b03198116825581906001600160a01b03166000805160206105588339815191528280a380f35b80fd5b600435906001600160a01b038216820361043957565b600080fd5b6000546001600160a01b0316330361045257565b606460405162461bcd60e51b815260206004820152602060248201527f4f776e61626c653a2063616c6c6572206973206e6f7420746865206f776e65726044820152fd5b601f909101601f19168101906001600160401b038211908210176104b957604052565b634e487b7160e01b600052604160045260246000fd5b60015460ff8160a01c16610552576040516370a0823160e01b815230600482015290602090829060249082906001600160a01b03165afa90811561054657600091610518575090565b906020823d821161053e575b8161053160209383610496565b8101031261042057505190565b3d9150610524565b6040513d6000823e3d90fd5b50479056fe8be0079c531659141344cd1fd0a4f28419497f9722a3daafe3b4186f6b6457e0a2646970667358221220579cdf067375f5dae5a424454d0c0fcff93e68ee20bebfed534cb869256ba17b64736f6c634300081200338b73c3c69bb8fe3d512ecc4cf759cc79239f7b179b0ffacaa9a75d522b39400f",
  "linkReferences": {},
  "deployedLinkReferences": {}
}