{
  "_format": "hh-sol-artifact-1",
  "contractName": "TOFTVault",
  "sourceName": "contracts/tOFT/TOFTVault.sol",
  "abi": [
    {
      "inputs": [
        {
          "internalType": "address",
          "name": "token_",
          "type": "address"
        }
      ],
      "stateMutability": "nonpayable",
      "type": "constructor"
    },
    {
      "inputs": [],
      "name": "Failed",
      "type": "error"
    },
    {
      "inputs": [],
      "name": "NotValid",
      "type": "error"
    },
    {
      "inputs": [],
      "name": "ZeroAmount",
      "type": "error"
    },
    {
      "anonymous": false,
      "inputs": [
        {
          "indexed": true,
          "internalType": "address",
          "name": "previousOwner",
          "type": "address"
        },
        {
          "indexed": true,
          "internalType": "address",
          "name": "newOwner",
          "type": "address"
        }
      ],
      "name": "OwnershipTransferred",
      "type": "event"
    },
    {
      "inputs": [],
      "name": "depositNative",
      "outputs": [],
      "stateMutability": "payable",
      "type": "function"
    },
    {
      "inputs": [],
      "name": "owner",
      "outputs": [
        {
          "internalType": "address",
          "name": "",
          "type": "address"
        }
      ],
      "stateMutability": "view",
      "type": "function"
    },
    {
      "inputs": [],
      "name": "renounceOwnership",
      "outputs": [],
      "stateMutability": "nonpayable",
      "type": "function"
    },
    {
      "inputs": [
        {
          "internalType": "address",
          "name": "newOwner",
          "type": "address"
        }
      ],
      "name": "transferOwnership",
      "outputs": [],
      "stateMutability": "nonpayable",
      "type": "function"
    },
    {
      "inputs": [],
      "name": "viewSupply",
      "outputs": [
        {
          "internalType": "uint256",
          "name": "",
          "type": "uint256"
        }
      ],
      "stateMutability": "view",
      "type": "function"
    },
    {
      "inputs": [
        {
          "internalType": "address",
          "name": "to",
          "type": "address"
        },
        {
          "internalType": "uint256",
          "name": "amount",
          "type": "uint256"
        }
      ],
      "name": "withdraw",
      "outputs": [],
      "stateMutability": "nonpayable",
      "type": "function"
    },
    {
      "stateMutability": "payable",
      "type": "receive"
    }
  ],
  "bytecode": "0x6080346100be57601f61072138819003918201601f19168301916001600160401b038311848410176100c3578084926020946040528339810103126100be57516001600160a01b0390818116908190036100be576000543360018060a01b0319821617600055604051923391167f8be0079c531659141344cd1fd0a4f28419497f9722a3daafe3b4186f6b6457e0600080a3600180546001600160a81b0319168217911560a01b60ff60a01b1691909117905561064790816100da8239f35b600080fd5b634e487b7160e01b600052604160045260246000fdfe60406080815260048036101561001f575b5050361561001d57600080fd5b005b600091823560e01c8063715018a61461036d5780638da5cb5b14610345578063b08ff1051461031d578063db6b5246146102d7578063f2fde38b146102145763f3fef3a31461006e5750610010565b34610210578060031936011261021057826100876103ca565b602435906100936103e5565b60015460ff8160a01c166000146100cc575082809281925af16100b46104fd565b50156100bf57505080f35b5163312d207360e11b8152fd5b845163a9059cbb60e01b602082019081526001600160a01b0393841660248301526044808301959095529381526080810194509116919067ffffffffffffffff808511828610176101fd5760c08201908111858210176101fd578552602084527f5361666545524332303a206c6f772d6c6576656c2063616c6c206661696c656460a08201525161016f9392918791829182855af16101696104fd565b9161053d565b80518061017e575b5050505080f35b81602091810103126101f957602001518015908115036101f9576101a3578080610177565b906020608492519162461bcd60e51b8352820152602a60248201527f5361666545524332303a204552433230206f7065726174696f6e20646964206e6044820152691bdd081cdd58d8d9595960b21b6064820152fd5b8380fd5b634e487b7160e01b885260418752602488fd5b8280fd5b5090346102105760203660031901126102105761022f6103ca565b906102386103e5565b6001600160a01b0391821692831561028557505082546001600160a01b0319811683178455167f8be0079c531659141344cd1fd0a4f28419497f9722a3daafe3b4186f6b6457e08380a380f35b906020608492519162461bcd60e51b8352820152602660248201527f4f776e61626c653a206e6577206f776e657220697320746865207a65726f206160448201526564647265737360d01b6064820152fd5b5082600319360112610210576102eb6103e5565b60ff60015460a01c1615610310573415610303578280f35b51631f2a200560e01b8152fd5b5163f1640ae160e01b8152fd5b83823461034157816003193601126103415760209061033a610475565b9051908152f35b5080fd5b838234610341578160031936011261034157905490516001600160a01b039091168152602090f35b83346103c757806003193601126103c7576103866103e5565b80546001600160a01b03198116825581906001600160a01b03167f8be0079c531659141344cd1fd0a4f28419497f9722a3daafe3b4186f6b6457e08280a380f35b80fd5b600435906001600160a01b03821682036103e057565b600080fd5b6000546001600160a01b031633036103f957565b606460405162461bcd60e51b815260206004820152602060248201527f4f776e61626c653a2063616c6c6572206973206e6f7420746865206f776e65726044820152fd5b90601f8019910116810190811067ffffffffffffffff82111761045f57604052565b634e487b7160e01b600052604160045260246000fd5b60015460ff8160a01c166104f8576040516370a0823160e01b815230600482015290602090829060249082906001600160a01b03165afa9081156104ec576000916104be575090565b906020823d82116104e4575b816104d76020938361043d565b810103126103c757505190565b3d91506104ca565b6040513d6000823e3d90fd5b504790565b3d15610538573d9067ffffffffffffffff821161045f576040519161052c601f8201601f19166020018461043d565b82523d6000602084013e565b606090565b9192901561059f5750815115610551575090565b3b1561055a5790565b60405162461bcd60e51b815260206004820152601d60248201527f416464726573733a2063616c6c20746f206e6f6e2d636f6e74726163740000006044820152606490fd5b8251909150156105b25750805190602001fd5b6040519062461bcd60e51b82528160208060048301528251908160248401526000935b8285106105f8575050604492506000838284010152601f80199101168101030190fd5b84810182015186860160440152938101938593506105d556fea264697066735822122084c4dc9a9b80e8921d928b3c54b8953193f5afd28c6c2d253f205cef1a2b06f364736f6c63430008130033",
  "linkReferences": {},
  "deployedLinkReferences": {}
}