{
  "_format": "hh-sol-artifact-1",
  "contractName": "UsdoHelper",
  "sourceName": "contracts/usdo/extensions/UsdoHelper.sol",
  "abi": [
    {
      "inputs": [
        {
          "internalType": "uint16",
          "name": "msgIndex",
          "type": "uint16"
        },
        {
          "internalType": "uint16",
          "name": "expectedIndex",
          "type": "uint16"
        }
      ],
      "name": "InvalidExtraOptionsIndex",
      "type": "error"
    },
    {
      "inputs": [
        {
          "internalType": "uint16",
          "name": "msgIndex",
          "type": "uint16"
        },
        {
          "internalType": "uint16",
          "name": "expectedIndex",
          "type": "uint16"
        }
      ],
      "name": "InvalidMsgIndex",
      "type": "error"
    },
    {
      "inputs": [
        {
          "internalType": "uint16",
          "name": "msgType",
          "type": "uint16"
        }
      ],
      "name": "InvalidMsgType",
      "type": "error"
    },
    {
      "inputs": [
        {
          "internalType": "uint16",
          "name": "optionType",
          "type": "uint16"
        }
      ],
      "name": "InvalidOptionType",
      "type": "error"
    },
    {
      "inputs": [],
      "name": "MSG_SEND",
      "outputs": [
        {
          "internalType": "uint16",
          "name": "",
          "type": "uint16"
        }
      ],
      "stateMutability": "view",
      "type": "function"
    },
    {
      "inputs": [
        {
          "components": [
            {
              "components": [
                {
                  "internalType": "address",
                  "name": "from",
                  "type": "address"
                },
                {
                  "internalType": "address",
                  "name": "target",
                  "type": "address"
                },
                {
                  "internalType": "uint256",
                  "name": "paymentTokenAmount",
                  "type": "uint256"
                },
                {
                  "internalType": "uint256",
                  "name": "oTAPTokenID",
                  "type": "uint256"
                },
                {
                  "internalType": "uint256",
                  "name": "tapAmount",
                  "type": "uint256"
                }
              ],
              "internalType": "struct ITapiocaOptionBrokerCrossChain.IExerciseOptionsData",
              "name": "optionsData",
              "type": "tuple"
            },
            {
              "internalType": "bool",
              "name": "withdrawOnOtherChain",
              "type": "bool"
            },
            {
              "components": [
                {
                  "components": [
                    {
                      "internalType": "uint32",
                      "name": "dstEid",
                      "type": "uint32"
                    },
                    {
                      "internalType": "bytes32",
                      "name": "to",
                      "type": "bytes32"
                    },
                    {
                      "internalType": "uint256",
                      "name": "amountLD",
                      "type": "uint256"
                    },
                    {
                      "internalType": "uint256",
                      "name": "minAmountLD",
                      "type": "uint256"
                    },
                    {
                      "internalType": "bytes",
                      "name": "extraOptions",
                      "type": "bytes"
                    },
                    {
                      "internalType": "bytes",
                      "name": "composeMsg",
                      "type": "bytes"
                    },
                    {
                      "internalType": "bytes",
                      "name": "oftCmd",
                      "type": "bytes"
                    }
                  ],
                  "internalType": "struct SendParam",
                  "name": "sendParam",
                  "type": "tuple"
                },
                {
                  "components": [
                    {
                      "internalType": "uint256",
                      "name": "nativeFee",
                      "type": "uint256"
                    },
                    {
                      "internalType": "uint256",
                      "name": "lzTokenFee",
                      "type": "uint256"
                    }
                  ],
                  "internalType": "struct MessagingFee",
                  "name": "fee",
                  "type": "tuple"
                },
                {
                  "internalType": "bytes",
                  "name": "extraOptions",
                  "type": "bytes"
                },
                {
                  "internalType": "address",
                  "name": "refundAddress",
                  "type": "address"
                }
              ],
              "internalType": "struct LZSendParam",
              "name": "lzSendParams",
              "type": "tuple"
            },
            {
              "internalType": "bytes",
              "name": "composeMsg",
              "type": "bytes"
            }
          ],
          "internalType": "struct ExerciseOptionsMsg",
          "name": "_msg",
          "type": "tuple"
        }
      ],
      "name": "buildExerciseOptionMsg",
      "outputs": [
        {
          "internalType": "bytes",
          "name": "",
          "type": "bytes"
        }
      ],
      "stateMutability": "pure",
      "type": "function"
    },
    {
      "inputs": [
        {
          "components": [
            {
              "internalType": "address",
              "name": "user",
              "type": "address"
            },
            {
              "components": [
                {
                  "internalType": "bool",
                  "name": "repay",
                  "type": "bool"
                },
                {
                  "internalType": "uint256",
                  "name": "depositAmount",
                  "type": "uint256"
                },
                {
                  "internalType": "uint256",
                  "name": "repayAmount",
                  "type": "uint256"
                },
                {
                  "internalType": "address",
                  "name": "marketHelper",
                  "type": "address"
                },
                {
                  "internalType": "address",
                  "name": "market",
                  "type": "address"
                },
                {
                  "internalType": "bool",
                  "name": "removeCollateral",
                  "type": "bool"
                },
                {
                  "internalType": "uint256",
                  "name": "removeCollateralAmount",
                  "type": "uint256"
                },
                {
                  "components": [
                    {
                      "internalType": "bool",
                      "name": "lock",
                      "type": "bool"
                    },
                    {
                      "internalType": "address",
                      "name": "target",
                      "type": "address"
                    },
                    {
                      "internalType": "uint128",
                      "name": "lockDuration",
                      "type": "uint128"
                    },
                    {
                      "internalType": "uint128",
                      "name": "amount",
                      "type": "uint128"
                    },
                    {
                      "internalType": "uint256",
                      "name": "fraction",
                      "type": "uint256"
                    }
                  ],
                  "internalType": "struct ITapiocaOptionLiquidityProvision.IOptionsLockData",
                  "name": "lockData",
                  "type": "tuple"
                },
                {
                  "components": [
                    {
                      "internalType": "bool",
                      "name": "participate",
                      "type": "bool"
                    },
                    {
                      "internalType": "address",
                      "name": "target",
                      "type": "address"
                    },
                    {
                      "internalType": "uint256",
                      "name": "tOLPTokenId",
                      "type": "uint256"
                    }
                  ],
                  "internalType": "struct ITapiocaOptionBroker.IOptionsParticipateData",
                  "name": "participateData",
                  "type": "tuple"
                }
              ],
              "internalType": "struct ILendOrRepayParams",
              "name": "lendParams",
              "type": "tuple"
            },
            {
              "components": [
                {
                  "internalType": "bool",
                  "name": "withdraw",
                  "type": "bool"
                },
                {
                  "internalType": "uint256",
                  "name": "withdrawLzFeeAmount",
                  "type": "uint256"
                },
                {
                  "internalType": "bool",
                  "name": "withdrawOnOtherChain",
                  "type": "bool"
                },
                {
                  "internalType": "uint16",
                  "name": "withdrawLzChainId",
                  "type": "uint16"
                },
                {
                  "internalType": "bytes",
                  "name": "withdrawAdapterParams",
                  "type": "bytes"
                },
                {
                  "internalType": "bool",
                  "name": "unwrap",
                  "type": "bool"
                },
                {
                  "internalType": "address payable",
                  "name": "refundAddress",
                  "type": "address"
                },
                {
                  "internalType": "address",
                  "name": "zroPaymentAddress",
                  "type": "address"
                }
              ],
              "internalType": "struct IWithdrawParams",
              "name": "withdrawParams",
              "type": "tuple"
            }
          ],
          "internalType": "struct MarketLendOrRepayMsg",
          "name": "_msg",
          "type": "tuple"
        }
      ],
      "name": "buildMarketLendOrRepayMsg",
      "outputs": [
        {
          "internalType": "bytes",
          "name": "",
          "type": "bytes"
        }
      ],
      "stateMutability": "pure",
      "type": "function"
    },
    {
      "inputs": [
        {
          "components": [
            {
              "internalType": "address",
              "name": "user",
              "type": "address"
            },
            {
              "internalType": "uint256",
              "name": "amount",
              "type": "uint256"
            },
            {
              "components": [
                {
                  "internalType": "address",
                  "name": "tokenOut",
                  "type": "address"
                },
                {
                  "internalType": "uint256",
                  "name": "amountOutMin",
                  "type": "uint256"
                },
                {
                  "internalType": "bytes",
                  "name": "data",
                  "type": "bytes"
                }
              ],
              "internalType": "struct ILeverageSwapData",
              "name": "swapData",
              "type": "tuple"
            },
            {
              "components": [
                {
                  "internalType": "address",
                  "name": "swapper",
                  "type": "address"
                },
                {
                  "internalType": "address",
                  "name": "magnetar",
                  "type": "address"
                },
                {
                  "internalType": "address",
                  "name": "tOft",
                  "type": "address"
                },
                {
                  "internalType": "address",
                  "name": "srcMarket",
                  "type": "address"
                }
              ],
              "internalType": "struct ILeverageExternalContractsData",
              "name": "externalData",
              "type": "tuple"
            },
            {
              "components": [
                {
                  "components": [
                    {
                      "internalType": "uint32",
                      "name": "dstEid",
                      "type": "uint32"
                    },
                    {
                      "internalType": "bytes32",
                      "name": "to",
                      "type": "bytes32"
                    },
                    {
                      "internalType": "uint256",
                      "name": "amountLD",
                      "type": "uint256"
                    },
                    {
                      "internalType": "uint256",
                      "name": "minAmountLD",
                      "type": "uint256"
                    },
                    {
                      "internalType": "bytes",
                      "name": "extraOptions",
                      "type": "bytes"
                    },
                    {
                      "internalType": "bytes",
                      "name": "composeMsg",
                      "type": "bytes"
                    },
                    {
                      "internalType": "bytes",
                      "name": "oftCmd",
                      "type": "bytes"
                    }
                  ],
                  "internalType": "struct SendParam",
                  "name": "sendParam",
                  "type": "tuple"
                },
                {
                  "components": [
                    {
                      "internalType": "uint256",
                      "name": "nativeFee",
                      "type": "uint256"
                    },
                    {
                      "internalType": "uint256",
                      "name": "lzTokenFee",
                      "type": "uint256"
                    }
                  ],
                  "internalType": "struct MessagingFee",
                  "name": "fee",
                  "type": "tuple"
                },
                {
                  "internalType": "bytes",
                  "name": "extraOptions",
                  "type": "bytes"
                },
                {
                  "internalType": "address",
                  "name": "refundAddress",
                  "type": "address"
                }
              ],
              "internalType": "struct LZSendParam",
              "name": "lzSendParams",
              "type": "tuple"
            },
            {
              "internalType": "bytes",
              "name": "composeMsg",
              "type": "bytes"
            },
            {
              "internalType": "uint128",
              "name": "composeGas",
              "type": "uint128"
            }
          ],
          "internalType": "struct MarketLeverageUpMsg",
          "name": "_marketMsg",
          "type": "tuple"
        }
      ],
      "name": "buildMarketLeverageUpMsg",
      "outputs": [
        {
          "internalType": "bytes",
          "name": "",
          "type": "bytes"
        }
      ],
      "stateMutability": "pure",
      "type": "function"
    },
    {
      "inputs": [
        {
          "components": [
            {
              "internalType": "address",
              "name": "target",
              "type": "address"
            },
            {
              "internalType": "uint16",
              "name": "actionType",
              "type": "uint16"
            },
            {
              "internalType": "address",
              "name": "owner",
              "type": "address"
            },
            {
              "internalType": "address",
              "name": "spender",
              "type": "address"
            },
            {
              "internalType": "uint256",
              "name": "value",
              "type": "uint256"
            },
            {
              "internalType": "uint256",
              "name": "deadline",
              "type": "uint256"
            },
            {
              "internalType": "uint8",
              "name": "v",
              "type": "uint8"
            },
            {
              "internalType": "bytes32",
              "name": "r",
              "type": "bytes32"
            },
            {
              "internalType": "bytes32",
              "name": "s",
              "type": "bytes32"
            },
            {
              "internalType": "bool",
              "name": "permitAsset",
              "type": "bool"
            }
          ],
          "internalType": "struct MarketPermitActionMsg",
          "name": "_marketPermitActionMsg",
          "type": "tuple"
        }
      ],
      "name": "buildMarketPermitApprovalMsg",
      "outputs": [
        {
          "internalType": "bytes",
          "name": "msg_",
          "type": "bytes"
        }
      ],
      "stateMutability": "pure",
      "type": "function"
    },
    {
      "inputs": [
        {
          "components": [
            {
              "internalType": "address",
              "name": "user",
              "type": "address"
            },
            {
              "components": [
                {
                  "internalType": "address",
                  "name": "magnetar",
                  "type": "address"
                },
                {
                  "internalType": "address",
                  "name": "singularity",
                  "type": "address"
                },
                {
                  "internalType": "address",
                  "name": "bigBang",
                  "type": "address"
                }
              ],
              "internalType": "struct ICommonExternalContracts",
              "name": "externalData",
              "type": "tuple"
            },
            {
              "components": [
                {
                  "internalType": "bool",
                  "name": "removeAssetFromSGL",
                  "type": "bool"
                },
                {
                  "internalType": "uint256",
                  "name": "removeAmount",
                  "type": "uint256"
                },
                {
                  "internalType": "bool",
                  "name": "repayAssetOnBB",
                  "type": "bool"
                },
                {
                  "internalType": "uint256",
                  "name": "repayAmount",
                  "type": "uint256"
                },
                {
                  "internalType": "bool",
                  "name": "removeCollateralFromBB",
                  "type": "bool"
                },
                {
                  "internalType": "uint256",
                  "name": "collateralAmount",
                  "type": "uint256"
                },
                {
                  "components": [
                    {
                      "internalType": "bool",
                      "name": "exit",
                      "type": "bool"
                    },
                    {
                      "internalType": "address",
                      "name": "target",
                      "type": "address"
                    },
                    {
                      "internalType": "uint256",
                      "name": "oTAPTokenID",
                      "type": "uint256"
                    }
                  ],
                  "internalType": "struct ITapiocaOptionBroker.IOptionsExitData",
                  "name": "exitData",
                  "type": "tuple"
                },
                {
                  "components": [
                    {
                      "internalType": "bool",
                      "name": "unlock",
                      "type": "bool"
                    },
                    {
                      "internalType": "address",
                      "name": "target",
                      "type": "address"
                    },
                    {
                      "internalType": "uint256",
                      "name": "tokenId",
                      "type": "uint256"
                    }
                  ],
                  "internalType": "struct ITapiocaOptionLiquidityProvision.IOptionsUnlockData",
                  "name": "unlockData",
                  "type": "tuple"
                },
                {
                  "components": [
                    {
                      "internalType": "bool",
                      "name": "withdraw",
                      "type": "bool"
                    },
                    {
                      "internalType": "uint256",
                      "name": "withdrawLzFeeAmount",
                      "type": "uint256"
                    },
                    {
                      "internalType": "bool",
                      "name": "withdrawOnOtherChain",
                      "type": "bool"
                    },
                    {
                      "internalType": "uint16",
                      "name": "withdrawLzChainId",
                      "type": "uint16"
                    },
                    {
                      "internalType": "bytes",
                      "name": "withdrawAdapterParams",
                      "type": "bytes"
                    },
                    {
                      "internalType": "bool",
                      "name": "unwrap",
                      "type": "bool"
                    },
                    {
                      "internalType": "address payable",
                      "name": "refundAddress",
                      "type": "address"
                    },
                    {
                      "internalType": "address",
                      "name": "zroPaymentAddress",
                      "type": "address"
                    }
                  ],
                  "internalType": "struct IWithdrawParams",
                  "name": "assetWithdrawData",
                  "type": "tuple"
                },
                {
                  "components": [
                    {
                      "internalType": "bool",
                      "name": "withdraw",
                      "type": "bool"
                    },
                    {
                      "internalType": "uint256",
                      "name": "withdrawLzFeeAmount",
                      "type": "uint256"
                    },
                    {
                      "internalType": "bool",
                      "name": "withdrawOnOtherChain",
                      "type": "bool"
                    },
                    {
                      "internalType": "uint16",
                      "name": "withdrawLzChainId",
                      "type": "uint16"
                    },
                    {
                      "internalType": "bytes",
                      "name": "withdrawAdapterParams",
                      "type": "bytes"
                    },
                    {
                      "internalType": "bool",
                      "name": "unwrap",
                      "type": "bool"
                    },
                    {
                      "internalType": "address payable",
                      "name": "refundAddress",
                      "type": "address"
                    },
                    {
                      "internalType": "address",
                      "name": "zroPaymentAddress",
                      "type": "address"
                    }
                  ],
                  "internalType": "struct IWithdrawParams",
                  "name": "collateralWithdrawData",
                  "type": "tuple"
                }
              ],
              "internalType": "struct IRemoveAndRepay",
              "name": "removeAndRepayData",
              "type": "tuple"
            }
          ],
          "internalType": "struct MarketRemoveAssetMsg",
          "name": "_msg",
          "type": "tuple"
        }
      ],
      "name": "buildMarketRemoveAssetMsg",
      "outputs": [
        {
          "internalType": "bytes",
          "name": "",
          "type": "bytes"
        }
      ],
      "stateMutability": "pure",
      "type": "function"
    },
    {
      "inputs": [
        {
          "components": [
            {
              "internalType": "address",
              "name": "owner",
              "type": "address"
            },
            {
              "components": [
                {
                  "components": [
                    {
                      "internalType": "uint32",
                      "name": "dstEid",
                      "type": "uint32"
                    },
                    {
                      "internalType": "bytes32",
                      "name": "to",
                      "type": "bytes32"
                    },
                    {
                      "internalType": "uint256",
                      "name": "amountLD",
                      "type": "uint256"
                    },
                    {
                      "internalType": "uint256",
                      "name": "minAmountLD",
                      "type": "uint256"
                    },
                    {
                      "internalType": "bytes",
                      "name": "extraOptions",
                      "type": "bytes"
                    },
                    {
                      "internalType": "bytes",
                      "name": "composeMsg",
                      "type": "bytes"
                    },
                    {
                      "internalType": "bytes",
                      "name": "oftCmd",
                      "type": "bytes"
                    }
                  ],
                  "internalType": "struct SendParam",
                  "name": "sendParam",
                  "type": "tuple"
                },
                {
                  "components": [
                    {
                      "internalType": "uint256",
                      "name": "nativeFee",
                      "type": "uint256"
                    },
                    {
                      "internalType": "uint256",
                      "name": "lzTokenFee",
                      "type": "uint256"
                    }
                  ],
                  "internalType": "struct MessagingFee",
                  "name": "fee",
                  "type": "tuple"
                },
                {
                  "internalType": "bytes",
                  "name": "extraOptions",
                  "type": "bytes"
                },
                {
                  "internalType": "address",
                  "name": "refundAddress",
                  "type": "address"
                }
              ],
              "internalType": "struct LZSendParam",
              "name": "lzSendParam",
              "type": "tuple"
            },
            {
              "internalType": "bytes",
              "name": "composeMsg",
              "type": "bytes"
            }
          ],
          "internalType": "struct RemoteTransferMsg",
          "name": "_remoteTransferMsg",
          "type": "tuple"
        }
      ],
      "name": "buildRemoteTransferMsg",
      "outputs": [
        {
          "internalType": "bytes",
          "name": "",
          "type": "bytes"
        }
      ],
      "stateMutability": "pure",
      "type": "function"
    },
    {
      "inputs": [
        {
          "internalType": "contract ITapiocaOmnichainEngine",
          "name": "_toeToken",
          "type": "address"
        },
        {
          "internalType": "bytes",
          "name": "_msg",
          "type": "bytes"
        },
        {
          "internalType": "uint16",
          "name": "_msgType",
          "type": "uint16"
        },
        {
          "internalType": "uint16",
          "name": "_msgIndex",
          "type": "uint16"
        },
        {
          "internalType": "uint32",
          "name": "_dstEid",
          "type": "uint32"
        },
        {
          "internalType": "bytes",
          "name": "_extraOptions",
          "type": "bytes"
        },
        {
          "internalType": "bytes",
          "name": "_tapComposedMsg",
          "type": "bytes"
        }
      ],
      "name": "buildToeComposeMsgAndOptions",
      "outputs": [
        {
          "internalType": "bytes",
          "name": "message",
          "type": "bytes"
        },
        {
          "internalType": "bytes",
          "name": "options",
          "type": "bytes"
        }
      ],
      "stateMutability": "view",
      "type": "function"
    },
    {
      "inputs": [
        {
          "components": [
            {
              "internalType": "address",
              "name": "target",
              "type": "address"
            },
            {
              "internalType": "address",
              "name": "owner",
              "type": "address"
            },
            {
              "internalType": "address",
              "name": "spender",
              "type": "address"
            },
            {
              "internalType": "uint256",
              "name": "deadline",
              "type": "uint256"
            },
            {
              "internalType": "uint8",
              "name": "v",
              "type": "uint8"
            },
            {
              "internalType": "bytes32",
              "name": "r",
              "type": "bytes32"
            },
            {
              "internalType": "bytes32",
              "name": "s",
              "type": "bytes32"
            },
            {
              "internalType": "bool",
              "name": "permit",
              "type": "bool"
            }
          ],
          "internalType": "struct YieldBoxApproveAllMsg",
          "name": "_yieldBoxApprovalAllMsg",
          "type": "tuple"
        }
      ],
      "name": "buildYieldBoxApproveAllMsg",
      "outputs": [
        {
          "internalType": "bytes",
          "name": "msg_",
          "type": "bytes"
        }
      ],
      "stateMutability": "pure",
      "type": "function"
    },
    {
      "inputs": [
        {
          "components": [
            {
              "internalType": "address",
              "name": "target",
              "type": "address"
            },
            {
              "internalType": "address",
              "name": "owner",
              "type": "address"
            },
            {
              "internalType": "address",
              "name": "spender",
              "type": "address"
            },
            {
              "internalType": "uint256",
              "name": "assetId",
              "type": "uint256"
            },
            {
              "internalType": "uint256",
              "name": "deadline",
              "type": "uint256"
            },
            {
              "internalType": "uint8",
              "name": "v",
              "type": "uint8"
            },
            {
              "internalType": "bytes32",
              "name": "r",
              "type": "bytes32"
            },
            {
              "internalType": "bytes32",
              "name": "s",
              "type": "bytes32"
            },
            {
              "internalType": "bool",
              "name": "permit",
              "type": "bool"
            }
          ],
          "internalType": "struct YieldBoxApproveAssetMsg[]",
          "name": "_approvalMsg",
          "type": "tuple[]"
        }
      ],
      "name": "buildYieldBoxApproveAssetMsg",
      "outputs": [
        {
          "internalType": "bytes",
          "name": "msg_",
          "type": "bytes"
        }
      ],
      "stateMutability": "pure",
      "type": "function"
    },
    {
      "inputs": [
        {
          "components": [
            {
              "internalType": "address",
              "name": "token",
              "type": "address"
            },
            {
              "internalType": "address",
              "name": "owner",
              "type": "address"
            },
            {
              "internalType": "address",
              "name": "spender",
              "type": "address"
            },
            {
              "internalType": "uint256",
              "name": "value",
              "type": "uint256"
            },
            {
              "internalType": "uint256",
              "name": "deadline",
              "type": "uint256"
            },
            {
              "internalType": "uint8",
              "name": "v",
              "type": "uint8"
            },
            {
              "internalType": "bytes32",
              "name": "r",
              "type": "bytes32"
            },
            {
              "internalType": "bytes32",
              "name": "s",
              "type": "bytes32"
            }
          ],
          "internalType": "struct ERC20PermitApprovalMsg[]",
          "name": "_erc20PermitApprovalMsg",
          "type": "tuple[]"
        }
      ],
      "name": "encodeERC20PermitApprovalMsg",
      "outputs": [
        {
          "internalType": "bytes",
          "name": "msg_",
          "type": "bytes"
        }
      ],
      "stateMutability": "pure",
      "type": "function"
    },
    {
      "inputs": [
        {
          "components": [
            {
              "internalType": "address",
              "name": "token",
              "type": "address"
            },
            {
              "internalType": "address",
              "name": "spender",
              "type": "address"
            },
            {
              "internalType": "uint256",
              "name": "tokenId",
              "type": "uint256"
            },
            {
              "internalType": "uint256",
              "name": "deadline",
              "type": "uint256"
            },
            {
              "internalType": "uint8",
              "name": "v",
              "type": "uint8"
            },
            {
              "internalType": "bytes32",
              "name": "r",
              "type": "bytes32"
            },
            {
              "internalType": "bytes32",
              "name": "s",
              "type": "bytes32"
            }
          ],
          "internalType": "struct ERC721PermitApprovalMsg[]",
          "name": "_erc721PermitApprovalMsg",
          "type": "tuple[]"
        }
      ],
      "name": "encodeERC721PermitApprovalMsg",
      "outputs": [
        {
          "internalType": "bytes",
          "name": "msg_",
          "type": "bytes"
        }
      ],
      "stateMutability": "pure",
      "type": "function"
    },
    {
      "inputs": [
        {
          "internalType": "address",
          "name": "_pearlmit",
          "type": "address"
        },
        {
          "components": [
            {
              "components": [
                {
                  "internalType": "uint8",
                  "name": "tokenType",
                  "type": "uint8"
                },
                {
                  "internalType": "address",
                  "name": "token",
                  "type": "address"
                },
                {
                  "internalType": "uint256",
                  "name": "id",
                  "type": "uint256"
                },
                {
                  "internalType": "uint200",
                  "name": "amount",
                  "type": "uint200"
                },
                {
                  "internalType": "address",
                  "name": "operator",
                  "type": "address"
                }
              ],
              "internalType": "struct IPearlmit.SignatureApproval[]",
              "name": "approvals",
              "type": "tuple[]"
            },
            {
              "internalType": "address",
              "name": "owner",
              "type": "address"
            },
            {
              "internalType": "uint256",
              "name": "nonce",
              "type": "uint256"
            },
            {
              "internalType": "uint48",
              "name": "sigDeadline",
              "type": "uint48"
            },
            {
              "internalType": "bytes",
              "name": "signedPermit",
              "type": "bytes"
            }
          ],
          "internalType": "struct IPearlmit.PermitBatchTransferFrom",
          "name": "_data",
          "type": "tuple"
        }
      ],
      "name": "encodePearlmitApprovalMsg",
      "outputs": [
        {
          "internalType": "bytes",
          "name": "msg_",
          "type": "bytes"
        }
      ],
      "stateMutability": "pure",
      "type": "function"
    },
    {
      "inputs": [
        {
          "internalType": "contract ITapiocaOmnichainEngine",
          "name": "_toeToken",
          "type": "address"
        },
        {
          "components": [
            {
              "internalType": "uint32",
              "name": "dstEid",
              "type": "uint32"
            },
            {
              "internalType": "bytes32",
              "name": "recipient",
              "type": "bytes32"
            },
            {
              "internalType": "uint256",
              "name": "amountToSendLD",
              "type": "uint256"
            },
            {
              "internalType": "uint256",
              "name": "minAmountToCreditLD",
              "type": "uint256"
            },
            {
              "internalType": "uint16",
              "name": "msgType",
              "type": "uint16"
            },
            {
              "components": [
                {
                  "internalType": "uint8",
                  "name": "index",
                  "type": "uint8"
                },
                {
                  "internalType": "uint128",
                  "name": "gas",
                  "type": "uint128"
                },
                {
                  "internalType": "uint128",
                  "name": "value",
                  "type": "uint128"
                },
                {
                  "internalType": "bytes",
                  "name": "data",
                  "type": "bytes"
                },
                {
                  "internalType": "bytes",
                  "name": "prevData",
                  "type": "bytes"
                },
                {
                  "internalType": "bytes",
                  "name": "prevOptionsData",
                  "type": "bytes"
                }
              ],
              "internalType": "struct ComposeMsgData",
              "name": "composeMsgData",
              "type": "tuple"
            },
            {
              "internalType": "uint128",
              "name": "lzReceiveGas",
              "type": "uint128"
            },
            {
              "internalType": "uint128",
              "name": "lzReceiveValue",
              "type": "uint128"
            }
          ],
          "internalType": "struct PrepareLzCallData",
          "name": "_prepareLzCallData",
          "type": "tuple"
        }
      ],
      "name": "prepareLzCall",
      "outputs": [
        {
          "components": [
            {
              "internalType": "bytes",
              "name": "composeMsg",
              "type": "bytes"
            },
            {
              "internalType": "bytes",
              "name": "composeOptions",
              "type": "bytes"
            },
            {
              "components": [
                {
                  "internalType": "uint32",
                  "name": "dstEid",
                  "type": "uint32"
                },
                {
                  "internalType": "bytes32",
                  "name": "to",
                  "type": "bytes32"
                },
                {
                  "internalType": "uint256",
                  "name": "amountLD",
                  "type": "uint256"
                },
                {
                  "internalType": "uint256",
                  "name": "minAmountLD",
                  "type": "uint256"
                },
                {
                  "internalType": "bytes",
                  "name": "extraOptions",
                  "type": "bytes"
                },
                {
                  "internalType": "bytes",
                  "name": "composeMsg",
                  "type": "bytes"
                },
                {
                  "internalType": "bytes",
                  "name": "oftCmd",
                  "type": "bytes"
                }
              ],
              "internalType": "struct SendParam",
              "name": "sendParam",
              "type": "tuple"
            },
            {
              "components": [
                {
                  "internalType": "uint256",
                  "name": "nativeFee",
                  "type": "uint256"
                },
                {
                  "internalType": "uint256",
                  "name": "lzTokenFee",
                  "type": "uint256"
                }
              ],
              "internalType": "struct MessagingFee",
              "name": "msgFee",
              "type": "tuple"
            },
            {
              "components": [
                {
                  "components": [
                    {
                      "internalType": "uint32",
                      "name": "dstEid",
                      "type": "uint32"
                    },
                    {
                      "internalType": "bytes32",
                      "name": "to",
                      "type": "bytes32"
                    },
                    {
                      "internalType": "uint256",
                      "name": "amountLD",
                      "type": "uint256"
                    },
                    {
                      "internalType": "uint256",
                      "name": "minAmountLD",
                      "type": "uint256"
                    },
                    {
                      "internalType": "bytes",
                      "name": "extraOptions",
                      "type": "bytes"
                    },
                    {
                      "internalType": "bytes",
                      "name": "composeMsg",
                      "type": "bytes"
                    },
                    {
                      "internalType": "bytes",
                      "name": "oftCmd",
                      "type": "bytes"
                    }
                  ],
                  "internalType": "struct SendParam",
                  "name": "sendParam",
                  "type": "tuple"
                },
                {
                  "components": [
                    {
                      "internalType": "uint256",
                      "name": "nativeFee",
                      "type": "uint256"
                    },
                    {
                      "internalType": "uint256",
                      "name": "lzTokenFee",
                      "type": "uint256"
                    }
                  ],
                  "internalType": "struct MessagingFee",
                  "name": "fee",
                  "type": "tuple"
                },
                {
                  "internalType": "bytes",
                  "name": "extraOptions",
                  "type": "bytes"
                },
                {
                  "internalType": "address",
                  "name": "refundAddress",
                  "type": "address"
                }
              ],
              "internalType": "struct LZSendParam",
              "name": "lzSendParam",
              "type": "tuple"
            },
            {
              "internalType": "bytes",
              "name": "oftMsgOptions",
              "type": "bytes"
            }
          ],
          "internalType": "struct PrepareLzCallReturn",
          "name": "prepareLzCallReturn_",
          "type": "tuple"
        }
      ],
      "stateMutability": "view",
      "type": "function"
    },
    {
      "inputs": [
        {
          "internalType": "uint64",
          "name": "_amountSD",
          "type": "uint64"
        },
        {
          "internalType": "uint256",
          "name": "_decimalConversionRate",
          "type": "uint256"
        }
      ],
      "name": "toLD",
      "outputs": [
        {
          "internalType": "uint256",
          "name": "amountLD",
          "type": "uint256"
        }
      ],
      "stateMutability": "pure",
      "type": "function"
    },
    {
      "inputs": [
        {
          "internalType": "uint256",
          "name": "_amountLD",
          "type": "uint256"
        },
        {
          "internalType": "uint256",
          "name": "_decimalConversionRate",
          "type": "uint256"
        }
      ],
      "name": "toSD",
      "outputs": [
        {
          "internalType": "uint64",
          "name": "amountSD",
          "type": "uint64"
        }
      ],
      "stateMutability": "pure",
      "type": "function"
    }
  ],
  "bytecode": "0x608060405234801561001057600080fd5b50613367806100206000396000f3fe608060405234801561001057600080fd5b50600436106101005760003560e01c80639850e4c911610097578063d2cfb78011610066578063d2cfb78014610230578063e6fef25b14610243578063f323807114610256578063fa8182541461028157600080fd5b80639850e4c9146101dc578063a3713725146101ef578063cce28f381461020a578063d09777fd1461021d57600080fd5b80634ed47127116100d35780634ed47127146101675780635e96be6914610187578063885512751461019a57806390169321146101bb57600080fd5b8063179c1135146101055780631b2b6a6a1461012e5780632cb1ddc6146101415780633d1afd7a14610154575b600080fd5b6101186101133660046111ce565b610294565b6040516101259190611252565b60405180910390f35b61011861013c36600461142c565b6102ad565b61011861014f3660046114e2565b6102b8565b610118610162366004611605565b61031d565b61017a610175366004611872565b610328565b6040516101259190611a40565b610118610195366004611aec565b6106d7565b6101ad6101a8366004611b27565b6106ea565b604051908152602001610125565b6101ce6101c9366004611b5f565b610706565b604051610125929190611c2b565b6101186101ea366004611c50565b6107ae565b6101f7600181565b60405161ffff9091168152602001610125565b610118610218366004611c8b565b6107c1565b61011861022b366004611cda565b6107d5565b61011861023e366004611d15565b6107e8565b610118610251366004611f28565b6107f3565b610269610264366004611fcb565b6107fe565b6040516001600160401b039091168152602001610125565b61011861028f366004611fed565b61080a565b60606102a76102a2836122e0565b610815565b92915050565b60606102a78261083e565b805160609060005b8181101561031657826102eb8583815181106102de576102de612394565b60200260200101516108d2565b6040516020016102fc9291906123aa565b60408051601f1981840301815291905292506001016102c0565b5050919050565b60606102a782610974565b61033061109d565b6103796040518060e00160405280600063ffffffff1681526020016000801916815260200160008152602001600081526020016060815260200160608152602001606081525090565b606080610399604051806040016040528060008152602001600081525090565b6103a161113b565b60606040518060e00160405280896000015163ffffffff16815260200189602001518152602001896040015181526020018960600151815260200160405180604001604052806002815260200161060f60f31b815250815260200160405180604001604052806002815260200161060f60f31b815250815260200160405180604001604052806002815260200161060f60f31b815250815250955060008860a00151606001515111156104ce5761049561047760408051600360f01b602082015281516002818303018152602290910190915290565b60a08a01518051602082015160409092015160ff9091169190610987565b94506104c9898960a00151606001518a608001518b60a001516000015160ff168a600001518a8e60a0015160800151610706565b955093505b60a080890151015151156105585760008860a0015160a00151511161054a5760405162461bcd60e51b815260206004820152602760248201527f5f707265706172654c7a43616c6c3a20696e76616c696420707265764f7074696044820152666f6e734461746160c81b60648201526084015b60405180910390fd5b5060a080880151015161057a565b5060408051600360f01b60208201528151600281830301815260229091019091525b60008860e001516001600160801b031611806105a3575060008860c001516001600160801b0316115b156105be576105bb818960c001518a60e001516109f1565b90505b8451156105e95760a0880151805160208201516040909201516105e692849260ff1691610987565b90505b604051632e45088560e01b81526001600160a01b038a1690632e4508859061061c90899085906000908a906004016123d9565b6040805180830381865afa158015610638573d6000803e3d6000fd5b505050506040513d601f19601f8201168201806040525081019061065c9190612437565b9250808660800181905250838660a001819052506040518060800160405280878152602001848152602001828152602001336001600160a01b031681525091506040518060c0016040528085815260200186815260200187815260200184815260200183815260200182815250965050505050505092915050565b60606102a76106e58361252a565b610a39565b60006106ff826001600160401b038516612612565b9392505050565b60608061071287610a4c565b61071c8684610acb565b61072888888886610b5f565b604051632f1c2cd560e21b81529092506001600160a01b038a169063bc70b3549061075b9088908b908990600401612629565b600060405180830381865afa158015610778573d6000803e3d6000fd5b505050506040513d6000823e601f3d908101601f191682016040526107a09190810190612652565b905097509795505050505050565b60606102a76107bc836126bf565b610b94565b60606106ff836107d0846127b7565b610ba7565b60606102a76107e383612980565b610bd3565b60606102a782610be6565b60606102a782610c35565b60006106ff8284612a7a565b60606102a782610c48565b6060816040516020016108289190612b36565b6040516020818303038152906040529050919050565b8051602080830151604080850151606086810151608088015160a089015160c08a015160e08b015196516bffffffffffffffffffffffff199a861b8b169981019990995296841b8916603489015293831b9097166048870152605c8601526001600160f81b031960f896871b16607c860152607d850191909152609d840192909252151590921b60bd82015260be01610828565b8051602080830151604080850151606086810151608088015160a089015160c08a015160e08b01516101008c015197516bffffffffffffffffffffffff199b871b8c169a81019a909a5297851b8a1660348a015294841b9098166048880152605c870191909152607c8601526001600160f81b031960f896871b16609c860152609d85019190915260bd840192909252151590921b60dd82015260de01610828565b6060816040516020016108289190612c74565b6060846003610997826000610c5b565b61ffff16146109cb576109ab816000610c5b565b604051633a51740d60e01b815261ffff9091166004820152602401610541565b60006109d8868686610cc1565b90506109e687600383610d64565b979650505050505050565b6060836003610a01826000610c5b565b61ffff1614610a15576109ab816000610c5b565b6000610a218585610dcf565b9050610a2f86600183610d64565b9695505050505050565b6060816040516020016108289190612d37565b61ffff811660011480610a64575061ffff81166101f4145b80610a74575061ffff81166101f5145b80610a84575061ffff81166101f6145b80610a94575061ffff81166102bc145b15610a9c5750565b610aa581610e36565b610ac85760405163a7ac386360e01b815261ffff82166004820152602401610541565b50565b8051158015610adc575061ffff8216155b15610ae5575050565b8060005b815115610b0b57610af982610eb6565b9050610b0482610ecf565b9150610ae9565b6000610b18826001612e18565b845190915015610b38578061ffff168561ffff1603610b38575050505050565b604051635a958af960e01b815261ffff808716600483015282166024820152604401610541565b6060818486518588604051602001610b7b959493929190612e3a565b6040516020818303038152906040529050949350505050565b6060816040516020016108289190612e97565b60608282604051602001610bbc929190612f28565b604051602081830303815290604052905092915050565b606081604051602001610828919061301d565b6060816000015182602001518360400151846060015185608001518660a001518760c001518860e001518961010001518a61012001516040516020016108289a9998979695949392919061313e565b60608160405160200161082891906131c7565b6060816040516020016108289190613213565b6000610c688260026132a4565b83511015610cb85760405162461bcd60e51b815260206004820152601460248201527f746f55696e7431365f6f75744f66426f756e64730000000000000000000000006044820152606401610541565b50016002015190565b60606001600160801b03821615610d1e576040516001600160f01b031960f086901b1660208201526001600160801b0319608085811b8216602284015284901b166032820152604201604051602081830303815290604052610d5c565b6040516001600160f01b031960f086901b1660208201526001600160801b0319608085901b1660228201526032016040516020818303038152906040525b949350505050565b6060836003610d74826000610c5b565b61ffff1614610d88576109ab816000610c5b565b846001610d958551610f0e565b610da0906001612e18565b8686604051602001610db69594939291906132b7565b6040516020818303038152906040529150509392505050565b60606001600160801b03821615610e1757604080516001600160801b0319608086811b8216602084015285901b166030820152016040516020818303038152906040526106ff565b6040516001600160801b0319608085901b166020820152603001610bbc565b600061ffff82166102581480610e51575061ffff8216610259145b80610e61575061ffff821661025a145b80610e71575061ffff8216610384145b80610e81575061ffff8216610385145b80610e91575061ffff8216610386145b80610ea1575061ffff8216610387145b15610eae57506001919050565b506000919050565b60006102a7610ec88360046002610f75565b6000610c5b565b60606000610ee2610ec884600280610f75565b90506000610ef1826006612e18565b61ffff169050610d5c8482838751610f09919061331e565b610f75565b600061ffff821115610f715760405162461bcd60e51b815260206004820152602660248201527f53616665436173743a2076616c756520646f65736e27742066697420696e203160448201526536206269747360d01b6064820152608401610541565b5090565b606081610f8381601f6132a4565b1015610fd15760405162461bcd60e51b815260206004820152600e60248201527f736c6963655f6f766572666c6f770000000000000000000000000000000000006044820152606401610541565b610fdb82846132a4565b8451101561102b5760405162461bcd60e51b815260206004820152601160248201527f736c6963655f6f75744f66426f756e64730000000000000000000000000000006044820152606401610541565b60608215801561104a5760405191506000825260208201604052611094565b6040519150601f8416801560200281840101858101878315602002848b0101015b8183101561108357805183526020928301920161106b565b5050858452601f01601f1916604052505b50949350505050565b6040518060c0016040528060608152602001606081526020016110ff6040518060e00160405280600063ffffffff1681526020016000801916815260200160008152602001600081526020016060815260200160608152602001606081525090565b8152602001611121604051806040016040528060008152602001600081525090565b815260200161112e61113b565b8152602001606081525090565b60408051610160810190915260006080820181815260a0830182905260c0830182905260e0830191909152606061010083018190526101208301819052610140830152819081526020016111a2604051806040016040528060008152602001600081525090565b815260606020820152600060409091015290565b600060a082840312156111c857600080fd5b50919050565b6000602082840312156111e057600080fd5b81356001600160401b038111156111f657600080fd5b610d5c848285016111b6565b60005b8381101561121d578181015183820152602001611205565b50506000910152565b6000815180845261123e816020860160208601611202565b601f01601f19169290920160200192915050565b6020815260006106ff6020830184611226565b634e487b7160e01b600052604160045260246000fd5b60405161010081016001600160401b038111828210171561129e5761129e611265565b60405290565b60405161012081016001600160401b038111828210171561129e5761129e611265565b60405160e081016001600160401b038111828210171561129e5761129e611265565b60405160c081016001600160401b038111828210171561129e5761129e611265565b60405161014081016001600160401b038111828210171561129e5761129e611265565b604080519081016001600160401b038111828210171561129e5761129e611265565b604051608081016001600160401b038111828210171561129e5761129e611265565b604051606081016001600160401b038111828210171561129e5761129e611265565b60405160a081016001600160401b038111828210171561129e5761129e611265565b604051601f8201601f191681016001600160401b03811182821017156113de576113de611265565b604052919050565b6001600160a01b0381168114610ac857600080fd5b8035611406816113e6565b919050565b803560ff8116811461140657600080fd5b8035801515811461140657600080fd5b6000610100828403121561143f57600080fd5b61144761127b565b8235611452816113e6565b81526020830135611462816113e6565b6020820152611473604084016113fb565b60408201526060830135606082015261148e6080840161140b565b608082015260a083013560a082015260c083013560c08201526114b360e0840161141c565b60e08201529392505050565b60006001600160401b038211156114d8576114d8611265565b5060051b60200190565b600060208083850312156114f557600080fd5b82356001600160401b0381111561150b57600080fd5b8301601f8101851361151c57600080fd5b803561152f61152a826114bf565b6113b6565b818152610120918202830184019184820191908884111561154f57600080fd5b938501935b838510156115f95780858a03121561156c5760008081fd5b6115746112a4565b61157d866113fb565b815261158a8787016113fb565b87820152604061159b8188016113fb565b90820152606086810135908201526080808701359082015260a06115c081880161140b565b9082015260c0868101359082015260e080870135908201526101006115e681880161141c565b9082015283529384019391850191611554565b50979650505050505050565b6000602080838503121561161857600080fd5b82356001600160401b0381111561162e57600080fd5b8301601f8101851361163f57600080fd5b803561164d61152a826114bf565b81815260e0918202830184019184820191908884111561166c57600080fd5b938501935b838510156115f95780858a0312156116895760008081fd5b6116916112c7565b853561169c816113e6565b8152858701356116ab816113e6565b81880152604086810135908201526060808701359082015260806116d081880161140b565b9082015260a0868101359082015260c0808701359082015283529384019391850191611671565b803563ffffffff8116811461140657600080fd5b803561ffff8116811461140657600080fd5b80356001600160801b038116811461140657600080fd5b60006001600160401b0382111561174d5761174d611265565b50601f01601f191660200190565b600082601f83011261176c57600080fd5b813561177a61152a82611734565b81815284602083860101111561178f57600080fd5b816020850160208301376000918101602001919091529392505050565b600060c082840312156117be57600080fd5b6117c66112e9565b90506117d18261140b565b81526117df6020830161171d565b60208201526117f06040830161171d565b604082015260608201356001600160401b038082111561180f57600080fd5b61181b8583860161175b565b6060840152608084013591508082111561183457600080fd5b6118408583860161175b565b608084015260a084013591508082111561185957600080fd5b506118668482850161175b565b60a08301525092915050565b6000806040838503121561188557600080fd5b8235611890816113e6565b915060208301356001600160401b03808211156118ac57600080fd5b9084019061010082870312156118c157600080fd5b6118c961127b565b6118d2836116f7565b81526020830135602082015260408301356040820152606083013560608201526118fe6080840161170b565b608082015260a08301358281111561191557600080fd5b611921888286016117ac565b60a08301525061193360c0840161171d565b60c082015261194460e0840161171d565b60e08201528093505050509250929050565b63ffffffff81511682526020810151602083015260408101516040830152606081015160608301526000608082015160e0608085015261199960e0850182611226565b905060a083015184820360a08601526119b28282611226565b91505060c083015184820360c08601526119cc8282611226565b95945050505050565b6000815160a084526119ea60a0850182611956565b90506020830151611a08602086018280518252602090810151910152565b5060408301518482036060860152611a208282611226565b9150506001600160a01b0360608401511660808501528091505092915050565b602081526000825160e06020840152611a5d610100840182611226565b90506020840151601f1980858403016040860152611a7b8383611226565b92506040860151915080858403016060860152611a988383611956565b606087015180516080880152602081015160a0880152909350915060808601519150808584030160c0860152611ace83836119d5565b925060a08601519150808584030160e0860152506119cc8282611226565b600060208284031215611afe57600080fd5b81356001600160401b03811115611b1457600080fd5b820161014081850312156106ff57600080fd5b60008060408385031215611b3a57600080fd5b82356001600160401b0381168114611b5157600080fd5b946020939093013593505050565b600080600080600080600060e0888a031215611b7a57600080fd5b8735611b85816113e6565b965060208801356001600160401b0380821115611ba157600080fd5b611bad8b838c0161175b565b9750611bbb60408b0161170b565b9650611bc960608b0161170b565b9550611bd760808b016116f7565b945060a08a0135915080821115611bed57600080fd5b611bf98b838c0161175b565b935060c08a0135915080821115611c0f57600080fd5b50611c1c8a828b0161175b565b91505092959891949750929550565b604081526000611c3e6040830185611226565b82810360208401526119cc8185611226565b600060208284031215611c6257600080fd5b81356001600160401b03811115611c7857600080fd5b820161010081850312156106ff57600080fd5b60008060408385031215611c9e57600080fd5b8235611ca9816113e6565b915060208301356001600160401b03811115611cc457600080fd5b611cd0858286016111b6565b9150509250929050565b600060208284031215611cec57600080fd5b81356001600160401b03811115611d0257600080fd5b820161022081850312156106ff57600080fd5b60006101408284031215611d2857600080fd5b611d3061130b565b611d39836113fb565b8152611d476020840161170b565b6020820152611d58604084016113fb565b6040820152611d69606084016113fb565b60608201526080830135608082015260a083013560a0820152611d8e60c0840161140b565b60c082015260e083013560e0820152610100808401358183015250610120611db781850161141c565b908201529392505050565b600060408284031215611dd457600080fd5b611ddc61132e565b9050813581526020820135602082015292915050565b600060a08284031215611e0457600080fd5b611e0c611350565b905081356001600160401b0380821115611e2557600080fd5b9083019060e08286031215611e3957600080fd5b611e416112c7565b611e4a836116f7565b8152602083013560208201526040830135604082015260608301356060820152608083013582811115611e7c57600080fd5b611e888782860161175b565b60808301525060a083013582811115611ea057600080fd5b611eac8782860161175b565b60a08301525060c083013582811115611ec457600080fd5b611ed08782860161175b565b60c0830152508352611ee58560208601611dc2565b60208401526060840135915080821115611efe57600080fd5b50611f0b8482850161175b565b604083015250611f1d608083016113fb565b606082015292915050565b600060208284031215611f3a57600080fd5b81356001600160401b0380821115611f5157600080fd5b9083019060608286031215611f6557600080fd5b611f6d611372565b8235611f78816113e6565b8152602083013582811115611f8c57600080fd5b611f9887828601611df2565b602083015250604083013582811115611fb057600080fd5b611fbc8782860161175b565b60408301525095945050505050565b60008060408385031215611fde57600080fd5b50508035926020909101359150565b6000602080838503121561200057600080fd5b82356001600160401b0381111561201657600080fd5b8301601f8101851361202757600080fd5b803561203561152a826114bf565b81815260089190911b8201830190838101908783111561205457600080fd5b928401925b828410156109e65761010084890312156120735760008081fd5b61207b61127b565b8435612086816113e6565b81526120938587016113fb565b8682015260406120a48187016113fb565b90820152606085810135908201526080808601359082015260a06120c981870161140b565b9082015260c0858101359082015260e0808601359082015282526101009093019290840190612059565b60006060828403121561210557600080fd5b61210d611372565b90506121188261141c565b81526020820135612128816113e6565b806020830152506040820135604082015292915050565b6000610100828403121561215257600080fd5b61215a61127b565b90506121658261141c565b81526020820135602082015261217d6040830161141c565b604082015261218e6060830161170b565b606082015260808201356001600160401b038111156121ac57600080fd5b6121b88482850161175b565b6080830152506121ca60a0830161141c565b60a08201526121db60c083016113fb565b60c08201526121ec60e083016113fb565b60e082015292915050565b60006101c0828403121561220a57600080fd5b61221261130b565b905061221d8261141c565b8152602082013560208201526122356040830161141c565b6040820152606082013560608201526122506080830161141c565b608082015260a082013560a082015261226c8360c084016120f3565b60c0820152610120612280848285016120f3565b60e08301526101808301356001600160401b03808211156122a057600080fd5b6122ac8683870161213f565b6101008501526101a08501359150808211156122c757600080fd5b506122d48582860161213f565b82840152505092915050565b600081360360a08112156122f357600080fd5b6122fb611372565b8335612306816113e6565b81526060601f198301121561231a57600080fd5b612322611372565b91506020840135612332816113e6565b82526040840135612342816113e6565b60208301526060840135612355816113e6565b604083015260208101919091526080830135906001600160401b0382111561237c57600080fd5b612388368386016121f7565b60408201529392505050565b634e487b7160e01b600052603260045260246000fd5b600083516123bc818460208801611202565b8351908301906123d0818360208801611202565b01949350505050565b60a0815260006123ec60a0830187611956565b82810360208401526123fe8187611226565b90508415156040840152828103606084015261241a8185611226565b838103608090940193909352505060008152602001949350505050565b60006040828403121561244957600080fd5b61245161132e565b82518152602083015160208201528091505092915050565b60006060828403121561247b57600080fd5b612483611372565b90508135612490816113e6565b81526020828101359082015260408201356001600160401b038111156124b557600080fd5b6124c18482850161175b565b60408301525092915050565b6000608082840312156124df57600080fd5b6124e7611350565b905081356124f4816113e6565b81526020820135612504816113e6565b60208201526040820135612517816113e6565b60408201526060820135611f1d816113e6565b6000610140823603121561253d57600080fd5b6125456112c7565b61254e836113fb565b81526020830135602082015260408301356001600160401b038082111561257457600080fd5b61258036838701612469565b604084015261259236606087016124cd565b606084015260e08501359150808211156125ab57600080fd5b6125b736838701611df2565b60808401526101008501359150808211156125d157600080fd5b506125de3682860161175b565b60a0830152506125f1610120840161171d565b60c082015292915050565b634e487b7160e01b600052601160045260246000fd5b80820281158282048414176102a7576102a76125fc565b63ffffffff8416815261ffff831660208201526060604082015260006119cc6060830184611226565b60006020828403121561266457600080fd5b81516001600160401b0381111561267a57600080fd5b8201601f8101841361268b57600080fd5b805161269961152a82611734565b8181528560208385010111156126ae57600080fd5b6119cc826020830160208601611202565b60008136036101008112156126d357600080fd5b6126db611350565b60a08212156126e957600080fd5b6126f1611394565b915083356126fe816113e6565b8252602084013561270e816113e6565b8060208401525060408401356040830152606084013560608301526080840135608083015281815261274260a0850161141c565b602082015260c084013591506001600160401b038083111561276357600080fd5b61276f36848701611df2565b604083015260e085013592508083111561278857600080fd5b506127953683860161175b565b60608201529392505050565b803565ffffffffffff8116811461140657600080fd5b600060a08083360312156127ca57600080fd5b6127d2611394565b83356001600160401b03808211156127e957600080fd5b9085019036601f8301126127fc57600080fd5b8135602061280c61152a836114bf565b82815260a09092028401810191818101903684111561282a57600080fd5b948201945b838610156128b7578786360312156128475760008081fd5b61284f611394565b6128588761140b565b815283870135612867816113e6565b81850152604087810135908201526060808801356001600160c81b03811681146128915760008081fd5b908201526080878101356128a4816113e6565b908201528252948701949082019061282f565b8652506128c58882016113fb565b818601525050604086013560408401526128e1606087016127a1565b606084015260808601359350808411156128fa57600080fd5b50506129083683860161175b565b60808201529392505050565b600060a0828403121561292657600080fd5b61292e611394565b90506129398261141c565b81526020820135612949816113e6565b602082015261295a6040830161171d565b604082015261296b6060830161171d565b60608201526080820135608082015292915050565b600081360361022081121561299457600080fd5b61299c611372565b83356129a7816113e6565b81526101e0601f19830112156129bc57600080fd5b6129c46112a4565b91506129d26020850161141c565b825260408401356020830152606084013560408301526129f4608085016113fb565b6060830152612a0560a085016113fb565b6080830152612a1660c0850161141c565b60a083015260e084013560c0830152610100612a3436828701612914565b60e0840152612a47366101a087016120f3565b818401525081602082015261020084013591506001600160401b03821115612a6e57600080fd5b6123883683860161213f565b600082612a9757634e487b7160e01b600052601260045260246000fd5b500490565b60006101008251151584526020830151602085015260408301511515604085015261ffff60608401511660608501526080830151816080860152612ae282860182611226565b91505060a0830151612af860a086018215159052565b5060c0830151612b1360c08601826001600160a01b03169052565b5060e0830151612b2e60e08601826001600160a01b03169052565b509392505050565b6020815260006001600160a01b0380845116602084015260208401518181511660408501528160208201511660608501528160408201511660808501525050604083015160a080840152612b8f60c08401825115159052565b602081015160e08401526040810151610100612bae8186018315159052565b6060830151610120868101919091526080840151801515610140880152925060a084015161016087015260c08401518051151561018088015260208101516001600160a01b03166101a088015260408101516101c0880152925060e0840151805115156101e088015260208101516001600160a01b0316610200880152604081015161022088015292508184015192506101c0610240870152612c55610280870184612a9c565b93015185840360bf19016102608701529291506119cc90508183612a9c565b602080825282518282018190526000919060409081850190868401855b82811015612cf857815180516001600160a01b03908116865287820151168786015285810151868601526060808201519086015260808082015160ff169086015260a0808201519086015260c0908101519085015260e09093019290850190600101612c91565b5091979650505050505050565b6001600160a01b038151168252602081015160208301526000604082015160606040850152610d5c6060850182611226565b602081526001600160a01b0382511660208201526020820151604082015260006040830151610140806060850152612d73610160850183612d05565b91506060850151612db5608086018280516001600160a01b03908116835260208083015182169084015260408083015182169084015260609182015116910152565b506080850151601f198086850301610100870152612dd384836119d5565b935060a08701519150808685030161012087015250612df28382611226565b92505060c0850151612e0e828601826001600160801b03169052565b5090949350505050565b61ffff818116838216019080821115612e3357612e336125fc565b5092915050565b60008651612e4c818460208b01611202565b6001600160f01b031960f088811b821692850192835287811b8216600284015286901b1660048201528351612e88816006840160208801611202565b01600601979650505050505050565b60208152600082516001600160a01b03808251166020850152806020830151166040850152506040810151606084015260608101516080840152608081015160a0840152506020830151612eef60c084018215159052565b5060408301516101008060e0850152612f0c6101208501836119d5565b91506060850151601f198584030182860152610a2f8382611226565b600060406001600160a01b038086168452602060408186015260e08501865160a08060408901528282518085526101008a0191508584019450600093505b80841015612fbc578451805160ff1683528681015188168784015288810151898401526060808201516001600160c81b031690840152608090810151881690830152938501936001939093019290820190612f66565b50898501516001600160a01b03811660608b0152965060408a015160808a015260608a015165ffffffffffff811660a08b0152965060808a0151898203603f190160c08b0152965061300e8188611226565b9b9a5050505050505050505050565b602081526001600160a01b038251166020820152600060208301518051151560408401526020810151606084015260408101516080840152606081015161306f60a08501826001600160a01b03169052565b5060808101516001600160a01b03811660c08501525060a081015180151560e08501525060c08101516101008481019190915260e08201518051151561012086015260208101516001600160a01b031661014086015260408101516001600160801b0390811661016087015260608201511661018086015260808101516101a0860152909190910151805115156101c085015260208101516001600160a01b03166101e08501526040810151610200850152905050604083015161022083810152610d5c610240840182612a9c565b60006bffffffffffffffffffffffff19808d60601b16835261ffff60f01b8c60f01b166014840152808b60601b166016840152808a60601b16602a8401525087603e83015286605e83015260ff60f81b8660f81b16607e83015284607f83015283609f8301526131b560bf830184151560f81b9052565b5060c0019a9950505050505050505050565b602081526001600160a01b03825116602082015260006020830151606060408401526131f660808401826119d5565b90506040840151601f198483030160608501526119cc8282611226565b602080825282518282018190526000919060409081850190868401855b82811015612cf857815180516001600160a01b03908116865287820151811688870152868201511686860152606080820151908601526080808201519086015260a08082015160ff169086015260c0808201519086015260e090810151908501526101009093019290850190600101613230565b808201808211156102a7576102a76125fc565b600086516132c9818460208b01611202565b6001600160f81b031960f888811b82169285019283526001600160f01b031960f089901b16600184015286901b166003820152835161330f816004840160208801611202565b01600401979650505050505050565b818103818111156102a7576102a76125fc56fea26469706673582212205a9303e81f41b53229e761ee4f41ac9116266fc8f4b57c701e304b2e916e8cfe64736f6c63430008160033",
  "linkReferences": {},
  "deployedLinkReferences": {}
}