{
  "_format": "hh-sol-artifact-1",
  "contractName": "USDOFlashloanHelper",
  "sourceName": "contracts/usdo/USDOFlashloanHelper.sol",
  "abi": [
    {
      "inputs": [
        {
          "internalType": "contract IUsdo",
          "name": "_usdo",
          "type": "address"
        },
        {
          "internalType": "address",
          "name": "_owner",
          "type": "address"
        }
      ],
      "stateMutability": "nonpayable",
      "type": "constructor"
    },
    {
      "inputs": [],
      "name": "AddressZero",
      "type": "error"
    },
    {
      "inputs": [],
      "name": "AllowanceNotValid",
      "type": "error"
    },
    {
      "inputs": [],
      "name": "AmountTooBig",
      "type": "error"
    },
    {
      "inputs": [],
      "name": "Failed",
      "type": "error"
    },
    {
      "inputs": [],
      "name": "NotValid",
      "type": "error"
    },
    {
      "inputs": [],
      "name": "Paused",
      "type": "error"
    },
    {
      "inputs": [],
      "name": "Reentrancy",
      "type": "error"
    },
    {
      "anonymous": false,
      "inputs": [
        {
          "indexed": false,
          "internalType": "uint256",
          "name": "_old",
          "type": "uint256"
        },
        {
          "indexed": false,
          "internalType": "uint256",
          "name": "_new",
          "type": "uint256"
        }
      ],
      "name": "FlashMintFeeUpdated",
      "type": "event"
    },
    {
      "anonymous": false,
      "inputs": [
        {
          "indexed": false,
          "internalType": "uint256",
          "name": "_old",
          "type": "uint256"
        },
        {
          "indexed": false,
          "internalType": "uint256",
          "name": "_new",
          "type": "uint256"
        }
      ],
      "name": "MaxFlashMintUpdated",
      "type": "event"
    },
    {
      "anonymous": false,
      "inputs": [
        {
          "indexed": true,
          "internalType": "address",
          "name": "previousOwner",
          "type": "address"
        },
        {
          "indexed": true,
          "internalType": "address",
          "name": "newOwner",
          "type": "address"
        }
      ],
      "name": "OwnershipTransferred",
      "type": "event"
    },
    {
      "inputs": [
        {
          "internalType": "address",
          "name": "owner",
          "type": "address"
        },
        {
          "internalType": "address",
          "name": "spender",
          "type": "address"
        }
      ],
      "name": "allowance",
      "outputs": [
        {
          "internalType": "uint256",
          "name": "",
          "type": "uint256"
        }
      ],
      "stateMutability": "view",
      "type": "function"
    },
    {
      "inputs": [
        {
          "internalType": "address",
          "name": "spender",
          "type": "address"
        },
        {
          "internalType": "uint256",
          "name": "amount",
          "type": "uint256"
        }
      ],
      "name": "approve",
      "outputs": [
        {
          "internalType": "bool",
          "name": "",
          "type": "bool"
        }
      ],
      "stateMutability": "nonpayable",
      "type": "function"
    },
    {
      "inputs": [
        {
          "internalType": "address",
          "name": "_usdo",
          "type": "address"
        },
        {
          "internalType": "uint256",
          "name": "amount",
          "type": "uint256"
        }
      ],
      "name": "flashFee",
      "outputs": [
        {
          "internalType": "uint256",
          "name": "",
          "type": "uint256"
        }
      ],
      "stateMutability": "view",
      "type": "function"
    },
    {
      "inputs": [
        {
          "internalType": "contract IERC3156FlashBorrower",
          "name": "receiver",
          "type": "address"
        },
        {
          "internalType": "address",
          "name": "token",
          "type": "address"
        },
        {
          "internalType": "uint256",
          "name": "amount",
          "type": "uint256"
        },
        {
          "internalType": "bytes",
          "name": "data",
          "type": "bytes"
        }
      ],
      "name": "flashLoan",
      "outputs": [
        {
          "internalType": "bool",
          "name": "",
          "type": "bool"
        }
      ],
      "stateMutability": "nonpayable",
      "type": "function"
    },
    {
      "inputs": [],
      "name": "flashMintFee",
      "outputs": [
        {
          "internalType": "uint256",
          "name": "",
          "type": "uint256"
        }
      ],
      "stateMutability": "view",
      "type": "function"
    },
    {
      "inputs": [
        {
          "internalType": "address",
          "name": "",
          "type": "address"
        }
      ],
      "name": "maxFlashLoan",
      "outputs": [
        {
          "internalType": "uint256",
          "name": "",
          "type": "uint256"
        }
      ],
      "stateMutability": "view",
      "type": "function"
    },
    {
      "inputs": [],
      "name": "maxFlashMint",
      "outputs": [
        {
          "internalType": "uint256",
          "name": "",
          "type": "uint256"
        }
      ],
      "stateMutability": "view",
      "type": "function"
    },
    {
      "inputs": [],
      "name": "owner",
      "outputs": [
        {
          "internalType": "address",
          "name": "",
          "type": "address"
        }
      ],
      "stateMutability": "view",
      "type": "function"
    },
    {
      "inputs": [],
      "name": "renounceOwnership",
      "outputs": [],
      "stateMutability": "nonpayable",
      "type": "function"
    },
    {
      "inputs": [
        {
          "internalType": "uint256",
          "name": "_val",
          "type": "uint256"
        }
      ],
      "name": "setFlashMintFee",
      "outputs": [],
      "stateMutability": "nonpayable",
      "type": "function"
    },
    {
      "inputs": [
        {
          "internalType": "uint256",
          "name": "_val",
          "type": "uint256"
        }
      ],
      "name": "setMaxFlashMintable",
      "outputs": [],
      "stateMutability": "nonpayable",
      "type": "function"
    },
    {
      "inputs": [
        {
          "internalType": "address",
          "name": "newOwner",
          "type": "address"
        }
      ],
      "name": "transferOwnership",
      "outputs": [],
      "stateMutability": "nonpayable",
      "type": "function"
    },
    {
      "inputs": [],
      "name": "usdo",
      "outputs": [
        {
          "internalType": "contract IUsdo",
          "name": "",
          "type": "address"
        }
      ],
      "stateMutability": "view",
      "type": "function"
    }
  ],
  "bytecode": "0x60a06040526004805460ff191690553480156200001b57600080fd5b506040516200163e3803806200163e8339810160408190526200003e91620000e4565b62000049336200007b565b6001600160a01b0382166080526001805569152d02c7e14af680000060025562000073816200007b565b505062000123565b600080546001600160a01b038381166001600160a01b0319831681178455604051919092169283917f8be0079c531659141344cd1fd0a4f28419497f9722a3daafe3b4186f6b6457e09190a35050565b6001600160a01b0381168114620000e157600080fd5b50565b60008060408385031215620000f857600080fd5b82516200010581620000cb565b60208401519092506200011881620000cb565b809150509250929050565b6080516114c7620001776000396000818161013901528181610341015281816103c601528181610621015281816106ac01528181610831015281816108ac0152818161092501526109e001526114c76000f3fe608060405234801561001057600080fd5b50600436106100df5760003560e01c8063715018a61161008c5780639d3f4d1a116100665780639d3f4d1a146101e3578063d9d98ce4146101ec578063dd62ed3e146101ff578063f2fde38b1461024557600080fd5b8063715018a6146101b45780638da5cb5b146101bc578063940a1dc0146101da57600080fd5b80634c6bb35d116100bd5780634c6bb35d146101345780635cffe9de14610180578063613255ab1461019357600080fd5b8063095ea7b3146100e457806316d995a91461010c5780631d2a0e3d14610121575b600080fd5b6100f76100f236600461118c565b610258565b60405190151581526020015b60405180910390f35b61011f61011a3660046111b8565b61026f565b005b61011f61012f3660046111b8565b6102b8565b61015b7f000000000000000000000000000000000000000000000000000000000000000081565b60405173ffffffffffffffffffffffffffffffffffffffff9091168152602001610103565b6100f761018e3660046111d1565b61033d565b6101a66101a1366004611270565b610920565b604051908152602001610103565b61011f6109c8565b60005473ffffffffffffffffffffffffffffffffffffffff1661015b565b6101a660015481565b6101a660025481565b6101a66101fa36600461118c565b6109dc565b6101a661020d36600461128d565b73ffffffffffffffffffffffffffffffffffffffff918216600090815260036020908152604080832093909416825291909152205490565b61011f610253366004611270565b610a86565b6000610265338484610b42565b5060015b92915050565b610277610c15565b60025460408051918252602082018390527f7d04cf410385806a9ac3566ac4cca4e5eaba6cc242abbf98f4f44e4ac6f3e8ff910160405180910390a1600255565b6102c0610c15565b620186a081106102fc576040517ff1640ae100000000000000000000000000000000000000000000000000000000815260040160405180910390fd5b60015460408051918252602082018390527fb3a985697c0361591fe9933703eb14ce1d74444a2d349080b6dec8da77a4082b910160405180910390a1600155565b60007f000000000000000000000000000000000000000000000000000000000000000073ffffffffffffffffffffffffffffffffffffffff168573ffffffffffffffffffffffffffffffffffffffff16146103c4576040517ff1640ae100000000000000000000000000000000000000000000000000000000815260040160405180910390fd5b7f000000000000000000000000000000000000000000000000000000000000000073ffffffffffffffffffffffffffffffffffffffff16635c975abb6040518163ffffffff1660e01b8152600401602060405180830381865afa15801561042f573d6000803e3d6000fd5b505050506040513d601f19601f8201168201806040525081019061045391906112c6565b1561048a576040517f9e87fac800000000000000000000000000000000000000000000000000000000815260040160405180910390fd5b73ffffffffffffffffffffffffffffffffffffffff8616331461051c5773ffffffffffffffffffffffffffffffffffffffff86166000908152600360209081526040808320338452909152902054841115610511576040517ffb165f2300000000000000000000000000000000000000000000000000000000815260040160405180910390fd5b61051c863386610c96565b60045460ff1615610559576040517fab143c0600000000000000000000000000000000000000000000000000000000815260040160405180910390fd5b600480547fffffffffffffffffffffffffffffffffffffffffffffffffffffffffffffff001660011790558361058e86610920565b10156105c6576040517f6b2f218300000000000000000000000000000000000000000000000000000000815260040160405180910390fd5b60006105d286866109dc565b6040517f40c10f1900000000000000000000000000000000000000000000000000000000815273ffffffffffffffffffffffffffffffffffffffff8981166004830152602482018890529192507f0000000000000000000000000000000000000000000000000000000000000000909116906340c10f1990604401600060405180830381600087803b15801561066757600080fd5b505af115801561067b573d6000803e3d6000fd5b50506040517f147b6228000000000000000000000000000000000000000000000000000000008152600481018490527f000000000000000000000000000000000000000000000000000000000000000073ffffffffffffffffffffffffffffffffffffffff16925063147b62289150602401600060405180830381600087803b15801561070757600080fd5b505af115801561071b573d6000803e3d6000fd5b50506040517f23e30c8b0000000000000000000000000000000000000000000000000000000081527f439148f0bbc682ca079e46d6e2c2f0c1e3b820f1a291b069d8882abf8cf18dd9925073ffffffffffffffffffffffffffffffffffffffff8a1691506323e30c8b9061079d9033908b908b9088908c908c906004016112e8565b6020604051808303816000875af11580156107bc573d6000803e3d6000fd5b505050506040513d601f19601f820116820180604052508101906107e0919061136e565b14610817576040517f625a40e600000000000000000000000000000000000000000000000000000000815260040160405180910390fd5b61085973ffffffffffffffffffffffffffffffffffffffff7f000000000000000000000000000000000000000000000000000000000000000016883088610d3d565b6040517f9dc29fac00000000000000000000000000000000000000000000000000000000815230600482015260248101869052600080604483828b5af1806108a057600080fd5b506044016040526108eb7f000000000000000000000000000000000000000000000000000000000000000073ffffffffffffffffffffffffffffffffffffffff811690899084610d3d565b5050600480547fffffffffffffffffffffffffffffffffffffffffffffffffffffffffffffff00169055600195945050505050565b6000807f000000000000000000000000000000000000000000000000000000000000000073ffffffffffffffffffffffffffffffffffffffff166318160ddd6040518163ffffffff1660e01b8152600401602060405180830381865afa15801561098e573d6000803e3d6000fd5b505050506040513d601f19601f820116820180604052508101906109b2919061136e565b9050600254811115610269575050600254919050565b6109d0610c15565b6109da6000610dd2565b565b60007f000000000000000000000000000000000000000000000000000000000000000073ffffffffffffffffffffffffffffffffffffffff168373ffffffffffffffffffffffffffffffffffffffff1614610a63576040517ff1640ae100000000000000000000000000000000000000000000000000000000815260040160405180910390fd5b620186a060015483610a759190611387565b610a7f91906113c5565b9392505050565b610a8e610c15565b73ffffffffffffffffffffffffffffffffffffffff8116610b36576040517f08c379a000000000000000000000000000000000000000000000000000000000815260206004820152602660248201527f4f776e61626c653a206e6577206f776e657220697320746865207a65726f206160448201527f646472657373000000000000000000000000000000000000000000000000000060648201526084015b60405180910390fd5b610b3f81610dd2565b50565b73ffffffffffffffffffffffffffffffffffffffff8316610b8f576040517f9fabe1c100000000000000000000000000000000000000000000000000000000815260040160405180910390fd5b73ffffffffffffffffffffffffffffffffffffffff8216610bdc576040517f9fabe1c100000000000000000000000000000000000000000000000000000000815260040160405180910390fd5b73ffffffffffffffffffffffffffffffffffffffff92831660009081526003602090815260408083209490951682529290925291902055565b60005473ffffffffffffffffffffffffffffffffffffffff1633146109da576040517f08c379a000000000000000000000000000000000000000000000000000000000815260206004820181905260248201527f4f776e61626c653a2063616c6c6572206973206e6f7420746865206f776e65726044820152606401610b2d565b73ffffffffffffffffffffffffffffffffffffffff8381166000908152600360209081526040808320938616835292905220547fffffffffffffffffffffffffffffffffffffffffffffffffffffffffffffffff8114610d375781811015610d2a576040517ffb165f2300000000000000000000000000000000000000000000000000000000815260040160405180910390fd5b610d378484848403610b42565b50505050565b6040805173ffffffffffffffffffffffffffffffffffffffff85811660248301528416604482015260648082018490528251808303909101815260849091019091526020810180517bffffffffffffffffffffffffffffffffffffffffffffffffffffffff167f23b872dd00000000000000000000000000000000000000000000000000000000179052610d37908590610e47565b6000805473ffffffffffffffffffffffffffffffffffffffff8381167fffffffffffffffffffffffff0000000000000000000000000000000000000000831681178455604051919092169283917f8be0079c531659141344cd1fd0a4f28419497f9722a3daafe3b4186f6b6457e09190a35050565b6000610ea9826040518060400160405280602081526020017f5361666545524332303a206c6f772d6c6576656c2063616c6c206661696c65648152508573ffffffffffffffffffffffffffffffffffffffff16610f5b9092919063ffffffff16565b9050805160001480610eca575080806020019051810190610eca91906112c6565b610f56576040517f08c379a000000000000000000000000000000000000000000000000000000000815260206004820152602a60248201527f5361666545524332303a204552433230206f7065726174696f6e20646964206e60448201527f6f742073756363656564000000000000000000000000000000000000000000006064820152608401610b2d565b505050565b6060610f6a8484600085610f72565b949350505050565b606082471015611004576040517f08c379a000000000000000000000000000000000000000000000000000000000815260206004820152602660248201527f416464726573733a20696e73756666696369656e742062616c616e636520666f60448201527f722063616c6c00000000000000000000000000000000000000000000000000006064820152608401610b2d565b6000808673ffffffffffffffffffffffffffffffffffffffff16858760405161102d9190611424565b60006040518083038185875af1925050503d806000811461106a576040519150601f19603f3d011682016040523d82523d6000602084013e61106f565b606091505b50915091506110808783838761108b565b979650505050505050565b6060831561112157825160000361111a5773ffffffffffffffffffffffffffffffffffffffff85163b61111a576040517f08c379a000000000000000000000000000000000000000000000000000000000815260206004820152601d60248201527f416464726573733a2063616c6c20746f206e6f6e2d636f6e74726163740000006044820152606401610b2d565b5081610f6a565b610f6a83838151156111365781518083602001fd5b806040517f08c379a0000000000000000000000000000000000000000000000000000000008152600401610b2d9190611440565b73ffffffffffffffffffffffffffffffffffffffff81168114610b3f57600080fd5b6000806040838503121561119f57600080fd5b82356111aa8161116a565b946020939093013593505050565b6000602082840312156111ca57600080fd5b5035919050565b6000806000806000608086880312156111e957600080fd5b85356111f48161116a565b945060208601356112048161116a565b935060408601359250606086013567ffffffffffffffff8082111561122857600080fd5b818801915088601f83011261123c57600080fd5b81358181111561124b57600080fd5b89602082850101111561125d57600080fd5b9699959850939650602001949392505050565b60006020828403121561128257600080fd5b8135610a7f8161116a565b600080604083850312156112a057600080fd5b82356112ab8161116a565b915060208301356112bb8161116a565b809150509250929050565b6000602082840312156112d857600080fd5b81518015158114610a7f57600080fd5b600073ffffffffffffffffffffffffffffffffffffffff808916835280881660208401525085604083015284606083015260a060808301528260a0830152828460c0840137600060c0848401015260c07fffffffffffffffffffffffffffffffffffffffffffffffffffffffffffffffe0601f8501168301019050979650505050505050565b60006020828403121561138057600080fd5b5051919050565b8082028115828204841417610269577f4e487b7100000000000000000000000000000000000000000000000000000000600052601160045260246000fd5b6000826113fb577f4e487b7100000000000000000000000000000000000000000000000000000000600052601260045260246000fd5b500490565b60005b8381101561141b578181015183820152602001611403565b50506000910152565b60008251611436818460208701611400565b9190910192915050565b602081526000825180602084015261145f816040850160208701611400565b601f017fffffffffffffffffffffffffffffffffffffffffffffffffffffffffffffffe016919091016040019291505056fea2646970667358221220307637b5fda8f4842fbd4ff7d1f6941b19220fb856df765226da5f718ada9e4c64736f6c63430008160033",
  "linkReferences": {},
  "deployedLinkReferences": {}
}