{
  "_format": "hh-sol-artifact-1",
  "contractName": "UsdoMarketReceiverModule",
  "sourceName": "contracts/usdo/modules/UsdoMarketReceiverModule.sol",
  "abi": [
    {
      "inputs": [
        {
          "components": [
            {
              "internalType": "address",
              "name": "endpoint",
              "type": "address"
            },
            {
              "internalType": "address",
              "name": "delegate",
              "type": "address"
            },
            {
              "internalType": "address",
              "name": "yieldBox",
              "type": "address"
            },
            {
              "internalType": "address",
              "name": "cluster",
              "type": "address"
            },
            {
              "internalType": "address",
              "name": "extExec",
              "type": "address"
            },
            {
              "internalType": "contract IPearlmit",
              "name": "pearlmit",
              "type": "address"
            }
          ],
          "internalType": "struct UsdoInitStruct",
          "name": "_data",
          "type": "tuple"
        }
      ],
      "stateMutability": "nonpayable",
      "type": "constructor"
    },
    {
      "inputs": [],
      "name": "BaseTapiocaOmnichainEngine_PearlmitFailed",
      "type": "error"
    },
    {
      "inputs": [],
      "name": "BaseTapiocaOmnichainEngine_PearlmitNotApproved",
      "type": "error"
    },
    {
      "inputs": [],
      "name": "InvalidDelegate",
      "type": "error"
    },
    {
      "inputs": [],
      "name": "InvalidEndpointCall",
      "type": "error"
    },
    {
      "inputs": [],
      "name": "InvalidLocalDecimals",
      "type": "error"
    },
    {
      "inputs": [
        {
          "internalType": "bytes",
          "name": "options",
          "type": "bytes"
        }
      ],
      "name": "InvalidOptions",
      "type": "error"
    },
    {
      "inputs": [],
      "name": "LzTokenUnavailable",
      "type": "error"
    },
    {
      "inputs": [],
      "name": "ModuleManager__ModuleNotAuthorized",
      "type": "error"
    },
    {
      "inputs": [
        {
          "internalType": "uint32",
          "name": "eid",
          "type": "uint32"
        }
      ],
      "name": "NoPeer",
      "type": "error"
    },
    {
      "inputs": [
        {
          "internalType": "uint256",
          "name": "msgValue",
          "type": "uint256"
        }
      ],
      "name": "NotEnoughNative",
      "type": "error"
    },
    {
      "inputs": [
        {
          "internalType": "address",
          "name": "addr",
          "type": "address"
        }
      ],
      "name": "OnlyEndpoint",
      "type": "error"
    },
    {
      "inputs": [
        {
          "internalType": "uint32",
          "name": "eid",
          "type": "uint32"
        },
        {
          "internalType": "bytes32",
          "name": "sender",
          "type": "bytes32"
        }
      ],
      "name": "OnlyPeer",
      "type": "error"
    },
    {
      "inputs": [],
      "name": "OnlySelf",
      "type": "error"
    },
    {
      "inputs": [
        {
          "internalType": "bytes",
          "name": "result",
          "type": "bytes"
        }
      ],
      "name": "SimulationResult",
      "type": "error"
    },
    {
      "inputs": [
        {
          "internalType": "uint256",
          "name": "amountLD",
          "type": "uint256"
        },
        {
          "internalType": "uint256",
          "name": "minAmountLD",
          "type": "uint256"
        }
      ],
      "name": "SlippageExceeded",
      "type": "error"
    },
    {
      "inputs": [
        {
          "internalType": "address",
          "name": "invalidAddress",
          "type": "address"
        }
      ],
      "name": "UsdoMarketReceiverModule_NotAuthorized",
      "type": "error"
    },
    {
      "anonymous": false,
      "inputs": [
        {
          "indexed": true,
          "internalType": "address",
          "name": "owner",
          "type": "address"
        },
        {
          "indexed": true,
          "internalType": "address",
          "name": "spender",
          "type": "address"
        },
        {
          "indexed": false,
          "internalType": "uint256",
          "name": "value",
          "type": "uint256"
        }
      ],
      "name": "Approval",
      "type": "event"
    },
    {
      "anonymous": false,
      "inputs": [
        {
          "components": [
            {
              "internalType": "uint32",
              "name": "eid",
              "type": "uint32"
            },
            {
              "internalType": "uint16",
              "name": "msgType",
              "type": "uint16"
            },
            {
              "internalType": "bytes",
              "name": "options",
              "type": "bytes"
            }
          ],
          "indexed": false,
          "internalType": "struct EnforcedOptionParam[]",
          "name": "_enforcedOptions",
          "type": "tuple[]"
        }
      ],
      "name": "EnforcedOptionSet",
      "type": "event"
    },
    {
      "anonymous": false,
      "inputs": [
        {
          "indexed": true,
          "internalType": "address",
          "name": "user",
          "type": "address"
        },
        {
          "indexed": true,
          "internalType": "address",
          "name": "srcChainSender",
          "type": "address"
        },
        {
          "indexed": false,
          "internalType": "bool",
          "name": "repay",
          "type": "bool"
        },
        {
          "indexed": true,
          "internalType": "address",
          "name": "market",
          "type": "address"
        }
      ],
      "name": "LendOrRepayReceived",
      "type": "event"
    },
    {
      "anonymous": false,
      "inputs": [
        {
          "indexed": false,
          "internalType": "address",
          "name": "inspector",
          "type": "address"
        }
      ],
      "name": "MsgInspectorSet",
      "type": "event"
    },
    {
      "anonymous": false,
      "inputs": [
        {
          "indexed": true,
          "internalType": "bytes32",
          "name": "guid",
          "type": "bytes32"
        },
        {
          "indexed": false,
          "internalType": "uint32",
          "name": "srcEid",
          "type": "uint32"
        },
        {
          "indexed": true,
          "internalType": "address",
          "name": "toAddress",
          "type": "address"
        },
        {
          "indexed": false,
          "internalType": "uint256",
          "name": "amountReceivedLD",
          "type": "uint256"
        }
      ],
      "name": "OFTReceived",
      "type": "event"
    },
    {
      "anonymous": false,
      "inputs": [
        {
          "indexed": true,
          "internalType": "bytes32",
          "name": "guid",
          "type": "bytes32"
        },
        {
          "indexed": false,
          "internalType": "uint32",
          "name": "dstEid",
          "type": "uint32"
        },
        {
          "indexed": true,
          "internalType": "address",
          "name": "fromAddress",
          "type": "address"
        },
        {
          "indexed": false,
          "internalType": "uint256",
          "name": "amountSentLD",
          "type": "uint256"
        },
        {
          "indexed": false,
          "internalType": "uint256",
          "name": "amountReceivedLD",
          "type": "uint256"
        }
      ],
      "name": "OFTSent",
      "type": "event"
    },
    {
      "anonymous": false,
      "inputs": [
        {
          "indexed": true,
          "internalType": "address",
          "name": "previousOwner",
          "type": "address"
        },
        {
          "indexed": true,
          "internalType": "address",
          "name": "newOwner",
          "type": "address"
        }
      ],
      "name": "OwnershipTransferred",
      "type": "event"
    },
    {
      "anonymous": false,
      "inputs": [
        {
          "indexed": false,
          "internalType": "contract IPearlmit",
          "name": "oldPearlmit",
          "type": "address"
        },
        {
          "indexed": false,
          "internalType": "contract IPearlmit",
          "name": "newPearlmit",
          "type": "address"
        }
      ],
      "name": "PearlmitUpdated",
      "type": "event"
    },
    {
      "anonymous": false,
      "inputs": [
        {
          "indexed": false,
          "internalType": "uint32",
          "name": "eid",
          "type": "uint32"
        },
        {
          "indexed": false,
          "internalType": "bytes32",
          "name": "peer",
          "type": "bytes32"
        }
      ],
      "name": "PeerSet",
      "type": "event"
    },
    {
      "anonymous": false,
      "inputs": [
        {
          "indexed": false,
          "internalType": "address",
          "name": "preCrimeAddress",
          "type": "address"
        }
      ],
      "name": "PreCrimeSet",
      "type": "event"
    },
    {
      "anonymous": false,
      "inputs": [
        {
          "indexed": true,
          "internalType": "address",
          "name": "user",
          "type": "address"
        },
        {
          "indexed": true,
          "internalType": "address",
          "name": "srcChainSender",
          "type": "address"
        },
        {
          "indexed": true,
          "internalType": "address",
          "name": "magnetar",
          "type": "address"
        }
      ],
      "name": "RemoveAssetReceived",
      "type": "event"
    },
    {
      "anonymous": false,
      "inputs": [
        {
          "indexed": true,
          "internalType": "address",
          "name": "from",
          "type": "address"
        },
        {
          "indexed": true,
          "internalType": "address",
          "name": "to",
          "type": "address"
        },
        {
          "indexed": false,
          "internalType": "uint256",
          "name": "value",
          "type": "uint256"
        }
      ],
      "name": "Transfer",
      "type": "event"
    },
    {
      "inputs": [],
      "name": "CLUSTER_SLOT",
      "outputs": [
        {
          "internalType": "bytes32",
          "name": "",
          "type": "bytes32"
        }
      ],
      "stateMutability": "view",
      "type": "function"
    },
    {
      "inputs": [],
      "name": "MSG_SEND",
      "outputs": [
        {
          "internalType": "uint16",
          "name": "",
          "type": "uint16"
        }
      ],
      "stateMutability": "view",
      "type": "function"
    },
    {
      "inputs": [],
      "name": "SEND",
      "outputs": [
        {
          "internalType": "uint16",
          "name": "",
          "type": "uint16"
        }
      ],
      "stateMutability": "view",
      "type": "function"
    },
    {
      "inputs": [],
      "name": "SEND_AND_CALL",
      "outputs": [
        {
          "internalType": "uint16",
          "name": "",
          "type": "uint16"
        }
      ],
      "stateMutability": "view",
      "type": "function"
    },
    {
      "inputs": [
        {
          "components": [
            {
              "internalType": "uint32",
              "name": "srcEid",
              "type": "uint32"
            },
            {
              "internalType": "bytes32",
              "name": "sender",
              "type": "bytes32"
            },
            {
              "internalType": "uint64",
              "name": "nonce",
              "type": "uint64"
            }
          ],
          "internalType": "struct Origin",
          "name": "origin",
          "type": "tuple"
        }
      ],
      "name": "allowInitializePath",
      "outputs": [
        {
          "internalType": "bool",
          "name": "",
          "type": "bool"
        }
      ],
      "stateMutability": "view",
      "type": "function"
    },
    {
      "inputs": [
        {
          "internalType": "address",
          "name": "owner",
          "type": "address"
        },
        {
          "internalType": "address",
          "name": "spender",
          "type": "address"
        }
      ],
      "name": "allowance",
      "outputs": [
        {
          "internalType": "uint256",
          "name": "",
          "type": "uint256"
        }
      ],
      "stateMutability": "view",
      "type": "function"
    },
    {
      "inputs": [],
      "name": "approvalRequired",
      "outputs": [
        {
          "internalType": "bool",
          "name": "",
          "type": "bool"
        }
      ],
      "stateMutability": "pure",
      "type": "function"
    },
    {
      "inputs": [
        {
          "internalType": "address",
          "name": "spender",
          "type": "address"
        },
        {
          "internalType": "uint256",
          "name": "amount",
          "type": "uint256"
        }
      ],
      "name": "approve",
      "outputs": [
        {
          "internalType": "bool",
          "name": "",
          "type": "bool"
        }
      ],
      "stateMutability": "nonpayable",
      "type": "function"
    },
    {
      "inputs": [
        {
          "internalType": "address",
          "name": "account",
          "type": "address"
        }
      ],
      "name": "balanceOf",
      "outputs": [
        {
          "internalType": "uint256",
          "name": "",
          "type": "uint256"
        }
      ],
      "stateMutability": "view",
      "type": "function"
    },
    {
      "inputs": [
        {
          "internalType": "uint32",
          "name": "_eid",
          "type": "uint32"
        },
        {
          "internalType": "uint16",
          "name": "_msgType",
          "type": "uint16"
        },
        {
          "internalType": "bytes",
          "name": "_extraOptions",
          "type": "bytes"
        }
      ],
      "name": "combineOptions",
      "outputs": [
        {
          "internalType": "bytes",
          "name": "",
          "type": "bytes"
        }
      ],
      "stateMutability": "view",
      "type": "function"
    },
    {
      "inputs": [],
      "name": "decimalConversionRate",
      "outputs": [
        {
          "internalType": "uint256",
          "name": "",
          "type": "uint256"
        }
      ],
      "stateMutability": "view",
      "type": "function"
    },
    {
      "inputs": [],
      "name": "decimals",
      "outputs": [
        {
          "internalType": "uint8",
          "name": "",
          "type": "uint8"
        }
      ],
      "stateMutability": "view",
      "type": "function"
    },
    {
      "inputs": [
        {
          "internalType": "address",
          "name": "spender",
          "type": "address"
        },
        {
          "internalType": "uint256",
          "name": "subtractedValue",
          "type": "uint256"
        }
      ],
      "name": "decreaseAllowance",
      "outputs": [
        {
          "internalType": "bool",
          "name": "",
          "type": "bool"
        }
      ],
      "stateMutability": "nonpayable",
      "type": "function"
    },
    {
      "inputs": [],
      "name": "endpoint",
      "outputs": [
        {
          "internalType": "contract ILayerZeroEndpointV2",
          "name": "",
          "type": "address"
        }
      ],
      "stateMutability": "view",
      "type": "function"
    },
    {
      "inputs": [
        {
          "internalType": "uint32",
          "name": "eid",
          "type": "uint32"
        },
        {
          "internalType": "uint16",
          "name": "msgType",
          "type": "uint16"
        }
      ],
      "name": "enforcedOptions",
      "outputs": [
        {
          "internalType": "bytes",
          "name": "enforcedOption",
          "type": "bytes"
        }
      ],
      "stateMutability": "view",
      "type": "function"
    },
    {
      "inputs": [],
      "name": "getCluster",
      "outputs": [
        {
          "internalType": "contract ICluster",
          "name": "",
          "type": "address"
        }
      ],
      "stateMutability": "view",
      "type": "function"
    },
    {
      "inputs": [
        {
          "internalType": "address",
          "name": "spender",
          "type": "address"
        },
        {
          "internalType": "uint256",
          "name": "addedValue",
          "type": "uint256"
        }
      ],
      "name": "increaseAllowance",
      "outputs": [
        {
          "internalType": "bool",
          "name": "",
          "type": "bool"
        }
      ],
      "stateMutability": "nonpayable",
      "type": "function"
    },
    {
      "inputs": [
        {
          "components": [
            {
              "internalType": "uint32",
              "name": "srcEid",
              "type": "uint32"
            },
            {
              "internalType": "bytes32",
              "name": "sender",
              "type": "bytes32"
            },
            {
              "internalType": "uint64",
              "name": "nonce",
              "type": "uint64"
            }
          ],
          "internalType": "struct Origin",
          "name": "",
          "type": "tuple"
        },
        {
          "internalType": "bytes",
          "name": "",
          "type": "bytes"
        },
        {
          "internalType": "address",
          "name": "_sender",
          "type": "address"
        }
      ],
      "name": "isComposeMsgSender",
      "outputs": [
        {
          "internalType": "bool",
          "name": "",
          "type": "bool"
        }
      ],
      "stateMutability": "view",
      "type": "function"
    },
    {
      "inputs": [
        {
          "internalType": "uint32",
          "name": "_eid",
          "type": "uint32"
        },
        {
          "internalType": "bytes32",
          "name": "_peer",
          "type": "bytes32"
        }
      ],
      "name": "isPeer",
      "outputs": [
        {
          "internalType": "bool",
          "name": "",
          "type": "bool"
        }
      ],
      "stateMutability": "view",
      "type": "function"
    },
    {
      "inputs": [
        {
          "internalType": "address",
          "name": "srcChainSender",
          "type": "address"
        },
        {
          "internalType": "bytes",
          "name": "_data",
          "type": "bytes"
        }
      ],
      "name": "lendOrRepayReceiver",
      "outputs": [],
      "stateMutability": "payable",
      "type": "function"
    },
    {
      "inputs": [
        {
          "components": [
            {
              "internalType": "uint32",
              "name": "srcEid",
              "type": "uint32"
            },
            {
              "internalType": "bytes32",
              "name": "sender",
              "type": "bytes32"
            },
            {
              "internalType": "uint64",
              "name": "nonce",
              "type": "uint64"
            }
          ],
          "internalType": "struct Origin",
          "name": "_origin",
          "type": "tuple"
        },
        {
          "internalType": "bytes32",
          "name": "_guid",
          "type": "bytes32"
        },
        {
          "internalType": "bytes",
          "name": "_message",
          "type": "bytes"
        },
        {
          "internalType": "address",
          "name": "_executor",
          "type": "address"
        },
        {
          "internalType": "bytes",
          "name": "_extraData",
          "type": "bytes"
        }
      ],
      "name": "lzReceive",
      "outputs": [],
      "stateMutability": "payable",
      "type": "function"
    },
    {
      "inputs": [
        {
          "components": [
            {
              "components": [
                {
                  "internalType": "uint32",
                  "name": "srcEid",
                  "type": "uint32"
                },
                {
                  "internalType": "bytes32",
                  "name": "sender",
                  "type": "bytes32"
                },
                {
                  "internalType": "uint64",
                  "name": "nonce",
                  "type": "uint64"
                }
              ],
              "internalType": "struct Origin",
              "name": "origin",
              "type": "tuple"
            },
            {
              "internalType": "uint32",
              "name": "dstEid",
              "type": "uint32"
            },
            {
              "internalType": "address",
              "name": "receiver",
              "type": "address"
            },
            {
              "internalType": "bytes32",
              "name": "guid",
              "type": "bytes32"
            },
            {
              "internalType": "uint256",
              "name": "value",
              "type": "uint256"
            },
            {
              "internalType": "address",
              "name": "executor",
              "type": "address"
            },
            {
              "internalType": "bytes",
              "name": "message",
              "type": "bytes"
            },
            {
              "internalType": "bytes",
              "name": "extraData",
              "type": "bytes"
            }
          ],
          "internalType": "struct InboundPacket[]",
          "name": "_packets",
          "type": "tuple[]"
        }
      ],
      "name": "lzReceiveAndRevert",
      "outputs": [],
      "stateMutability": "payable",
      "type": "function"
    },
    {
      "inputs": [
        {
          "components": [
            {
              "internalType": "uint32",
              "name": "srcEid",
              "type": "uint32"
            },
            {
              "internalType": "bytes32",
              "name": "sender",
              "type": "bytes32"
            },
            {
              "internalType": "uint64",
              "name": "nonce",
              "type": "uint64"
            }
          ],
          "internalType": "struct Origin",
          "name": "_origin",
          "type": "tuple"
        },
        {
          "internalType": "bytes32",
          "name": "_guid",
          "type": "bytes32"
        },
        {
          "internalType": "bytes",
          "name": "_message",
          "type": "bytes"
        },
        {
          "internalType": "address",
          "name": "_executor",
          "type": "address"
        },
        {
          "internalType": "bytes",
          "name": "_extraData",
          "type": "bytes"
        }
      ],
      "name": "lzReceiveSimulate",
      "outputs": [],
      "stateMutability": "payable",
      "type": "function"
    },
    {
      "inputs": [],
      "name": "msgInspector",
      "outputs": [
        {
          "internalType": "address",
          "name": "",
          "type": "address"
        }
      ],
      "stateMutability": "view",
      "type": "function"
    },
    {
      "inputs": [],
      "name": "name",
      "outputs": [
        {
          "internalType": "string",
          "name": "",
          "type": "string"
        }
      ],
      "stateMutability": "view",
      "type": "function"
    },
    {
      "inputs": [
        {
          "internalType": "uint32",
          "name": "",
          "type": "uint32"
        },
        {
          "internalType": "bytes32",
          "name": "",
          "type": "bytes32"
        }
      ],
      "name": "nextNonce",
      "outputs": [
        {
          "internalType": "uint64",
          "name": "nonce",
          "type": "uint64"
        }
      ],
      "stateMutability": "view",
      "type": "function"
    },
    {
      "inputs": [],
      "name": "oApp",
      "outputs": [
        {
          "internalType": "address",
          "name": "",
          "type": "address"
        }
      ],
      "stateMutability": "view",
      "type": "function"
    },
    {
      "inputs": [],
      "name": "oAppVersion",
      "outputs": [
        {
          "internalType": "uint64",
          "name": "senderVersion",
          "type": "uint64"
        },
        {
          "internalType": "uint64",
          "name": "receiverVersion",
          "type": "uint64"
        }
      ],
      "stateMutability": "pure",
      "type": "function"
    },
    {
      "inputs": [],
      "name": "oftVersion",
      "outputs": [
        {
          "internalType": "bytes4",
          "name": "interfaceId",
          "type": "bytes4"
        },
        {
          "internalType": "uint64",
          "name": "version",
          "type": "uint64"
        }
      ],
      "stateMutability": "pure",
      "type": "function"
    },
    {
      "inputs": [],
      "name": "owner",
      "outputs": [
        {
          "internalType": "address",
          "name": "",
          "type": "address"
        }
      ],
      "stateMutability": "view",
      "type": "function"
    },
    {
      "inputs": [],
      "name": "pearlmit",
      "outputs": [
        {
          "internalType": "contract IPearlmit",
          "name": "",
          "type": "address"
        }
      ],
      "stateMutability": "view",
      "type": "function"
    },
    {
      "inputs": [
        {
          "internalType": "uint32",
          "name": "eid",
          "type": "uint32"
        }
      ],
      "name": "peers",
      "outputs": [
        {
          "internalType": "bytes32",
          "name": "peer",
          "type": "bytes32"
        }
      ],
      "stateMutability": "view",
      "type": "function"
    },
    {
      "inputs": [],
      "name": "preCrime",
      "outputs": [
        {
          "internalType": "address",
          "name": "",
          "type": "address"
        }
      ],
      "stateMutability": "view",
      "type": "function"
    },
    {
      "inputs": [
        {
          "components": [
            {
              "internalType": "uint32",
              "name": "dstEid",
              "type": "uint32"
            },
            {
              "internalType": "bytes32",
              "name": "to",
              "type": "bytes32"
            },
            {
              "internalType": "uint256",
              "name": "amountLD",
              "type": "uint256"
            },
            {
              "internalType": "uint256",
              "name": "minAmountLD",
              "type": "uint256"
            },
            {
              "internalType": "bytes",
              "name": "extraOptions",
              "type": "bytes"
            },
            {
              "internalType": "bytes",
              "name": "composeMsg",
              "type": "bytes"
            },
            {
              "internalType": "bytes",
              "name": "oftCmd",
              "type": "bytes"
            }
          ],
          "internalType": "struct SendParam",
          "name": "_sendParam",
          "type": "tuple"
        }
      ],
      "name": "quoteOFT",
      "outputs": [
        {
          "components": [
            {
              "internalType": "uint256",
              "name": "minAmountLD",
              "type": "uint256"
            },
            {
              "internalType": "uint256",
              "name": "maxAmountLD",
              "type": "uint256"
            }
          ],
          "internalType": "struct OFTLimit",
          "name": "oftLimit",
          "type": "tuple"
        },
        {
          "components": [
            {
              "internalType": "int256",
              "name": "feeAmountLD",
              "type": "int256"
            },
            {
              "internalType": "string",
              "name": "description",
              "type": "string"
            }
          ],
          "internalType": "struct OFTFeeDetail[]",
          "name": "oftFeeDetails",
          "type": "tuple[]"
        },
        {
          "components": [
            {
              "internalType": "uint256",
              "name": "amountSentLD",
              "type": "uint256"
            },
            {
              "internalType": "uint256",
              "name": "amountReceivedLD",
              "type": "uint256"
            }
          ],
          "internalType": "struct OFTReceipt",
          "name": "oftReceipt",
          "type": "tuple"
        }
      ],
      "stateMutability": "view",
      "type": "function"
    },
    {
      "inputs": [
        {
          "components": [
            {
              "internalType": "uint32",
              "name": "dstEid",
              "type": "uint32"
            },
            {
              "internalType": "bytes32",
              "name": "to",
              "type": "bytes32"
            },
            {
              "internalType": "uint256",
              "name": "amountLD",
              "type": "uint256"
            },
            {
              "internalType": "uint256",
              "name": "minAmountLD",
              "type": "uint256"
            },
            {
              "internalType": "bytes",
              "name": "extraOptions",
              "type": "bytes"
            },
            {
              "internalType": "bytes",
              "name": "composeMsg",
              "type": "bytes"
            },
            {
              "internalType": "bytes",
              "name": "oftCmd",
              "type": "bytes"
            }
          ],
          "internalType": "struct SendParam",
          "name": "_sendParam",
          "type": "tuple"
        },
        {
          "internalType": "bool",
          "name": "_payInLzToken",
          "type": "bool"
        }
      ],
      "name": "quoteSend",
      "outputs": [
        {
          "components": [
            {
              "internalType": "uint256",
              "name": "nativeFee",
              "type": "uint256"
            },
            {
              "internalType": "uint256",
              "name": "lzTokenFee",
              "type": "uint256"
            }
          ],
          "internalType": "struct MessagingFee",
          "name": "msgFee",
          "type": "tuple"
        }
      ],
      "stateMutability": "view",
      "type": "function"
    },
    {
      "inputs": [
        {
          "components": [
            {
              "internalType": "uint32",
              "name": "dstEid",
              "type": "uint32"
            },
            {
              "internalType": "bytes32",
              "name": "to",
              "type": "bytes32"
            },
            {
              "internalType": "uint256",
              "name": "amountLD",
              "type": "uint256"
            },
            {
              "internalType": "uint256",
              "name": "minAmountLD",
              "type": "uint256"
            },
            {
              "internalType": "bytes",
              "name": "extraOptions",
              "type": "bytes"
            },
            {
              "internalType": "bytes",
              "name": "composeMsg",
              "type": "bytes"
            },
            {
              "internalType": "bytes",
              "name": "oftCmd",
              "type": "bytes"
            }
          ],
          "internalType": "struct SendParam",
          "name": "_sendParam",
          "type": "tuple"
        },
        {
          "internalType": "bytes",
          "name": "_extraOptions",
          "type": "bytes"
        },
        {
          "internalType": "bool",
          "name": "_payInLzToken",
          "type": "bool"
        },
        {
          "internalType": "bytes",
          "name": "_composeMsg",
          "type": "bytes"
        },
        {
          "internalType": "bytes",
          "name": "",
          "type": "bytes"
        }
      ],
      "name": "quoteSendPacket",
      "outputs": [
        {
          "components": [
            {
              "internalType": "uint256",
              "name": "nativeFee",
              "type": "uint256"
            },
            {
              "internalType": "uint256",
              "name": "lzTokenFee",
              "type": "uint256"
            }
          ],
          "internalType": "struct MessagingFee",
          "name": "msgFee",
          "type": "tuple"
        }
      ],
      "stateMutability": "view",
      "type": "function"
    },
    {
      "inputs": [
        {
          "internalType": "address",
          "name": "srcChainSender",
          "type": "address"
        },
        {
          "internalType": "bytes",
          "name": "_data",
          "type": "bytes"
        }
      ],
      "name": "removeAssetReceiver",
      "outputs": [],
      "stateMutability": "payable",
      "type": "function"
    },
    {
      "inputs": [
        {
          "internalType": "uint256",
          "name": "_amountLD",
          "type": "uint256"
        }
      ],
      "name": "removeDust",
      "outputs": [
        {
          "internalType": "uint256",
          "name": "amountLD",
          "type": "uint256"
        }
      ],
      "stateMutability": "view",
      "type": "function"
    },
    {
      "inputs": [],
      "name": "renounceOwnership",
      "outputs": [],
      "stateMutability": "nonpayable",
      "type": "function"
    },
    {
      "inputs": [
        {
          "components": [
            {
              "internalType": "uint32",
              "name": "dstEid",
              "type": "uint32"
            },
            {
              "internalType": "bytes32",
              "name": "to",
              "type": "bytes32"
            },
            {
              "internalType": "uint256",
              "name": "amountLD",
              "type": "uint256"
            },
            {
              "internalType": "uint256",
              "name": "minAmountLD",
              "type": "uint256"
            },
            {
              "internalType": "bytes",
              "name": "extraOptions",
              "type": "bytes"
            },
            {
              "internalType": "bytes",
              "name": "composeMsg",
              "type": "bytes"
            },
            {
              "internalType": "bytes",
              "name": "oftCmd",
              "type": "bytes"
            }
          ],
          "internalType": "struct SendParam",
          "name": "_sendParam",
          "type": "tuple"
        },
        {
          "components": [
            {
              "internalType": "uint256",
              "name": "nativeFee",
              "type": "uint256"
            },
            {
              "internalType": "uint256",
              "name": "lzTokenFee",
              "type": "uint256"
            }
          ],
          "internalType": "struct MessagingFee",
          "name": "_fee",
          "type": "tuple"
        },
        {
          "internalType": "address",
          "name": "_refundAddress",
          "type": "address"
        }
      ],
      "name": "send",
      "outputs": [
        {
          "components": [
            {
              "internalType": "bytes32",
              "name": "guid",
              "type": "bytes32"
            },
            {
              "internalType": "uint64",
              "name": "nonce",
              "type": "uint64"
            },
            {
              "components": [
                {
                  "internalType": "uint256",
                  "name": "nativeFee",
                  "type": "uint256"
                },
                {
                  "internalType": "uint256",
                  "name": "lzTokenFee",
                  "type": "uint256"
                }
              ],
              "internalType": "struct MessagingFee",
              "name": "fee",
              "type": "tuple"
            }
          ],
          "internalType": "struct MessagingReceipt",
          "name": "msgReceipt",
          "type": "tuple"
        },
        {
          "components": [
            {
              "internalType": "uint256",
              "name": "amountSentLD",
              "type": "uint256"
            },
            {
              "internalType": "uint256",
              "name": "amountReceivedLD",
              "type": "uint256"
            }
          ],
          "internalType": "struct OFTReceipt",
          "name": "oftReceipt",
          "type": "tuple"
        }
      ],
      "stateMutability": "payable",
      "type": "function"
    },
    {
      "inputs": [
        {
          "internalType": "contract ICluster",
          "name": "_cluster",
          "type": "address"
        }
      ],
      "name": "setCluster",
      "outputs": [],
      "stateMutability": "nonpayable",
      "type": "function"
    },
    {
      "inputs": [
        {
          "internalType": "address",
          "name": "_delegate",
          "type": "address"
        }
      ],
      "name": "setDelegate",
      "outputs": [],
      "stateMutability": "nonpayable",
      "type": "function"
    },
    {
      "inputs": [
        {
          "components": [
            {
              "internalType": "uint32",
              "name": "eid",
              "type": "uint32"
            },
            {
              "internalType": "uint16",
              "name": "msgType",
              "type": "uint16"
            },
            {
              "internalType": "bytes",
              "name": "options",
              "type": "bytes"
            }
          ],
          "internalType": "struct EnforcedOptionParam[]",
          "name": "_enforcedOptions",
          "type": "tuple[]"
        }
      ],
      "name": "setEnforcedOptions",
      "outputs": [],
      "stateMutability": "nonpayable",
      "type": "function"
    },
    {
      "inputs": [
        {
          "internalType": "address",
          "name": "_msgInspector",
          "type": "address"
        }
      ],
      "name": "setMsgInspector",
      "outputs": [],
      "stateMutability": "nonpayable",
      "type": "function"
    },
    {
      "inputs": [
        {
          "internalType": "contract IPearlmit",
          "name": "_pearlmit",
          "type": "address"
        }
      ],
      "name": "setPearlmit",
      "outputs": [],
      "stateMutability": "nonpayable",
      "type": "function"
    },
    {
      "inputs": [
        {
          "internalType": "uint32",
          "name": "_eid",
          "type": "uint32"
        },
        {
          "internalType": "bytes32",
          "name": "_peer",
          "type": "bytes32"
        }
      ],
      "name": "setPeer",
      "outputs": [],
      "stateMutability": "nonpayable",
      "type": "function"
    },
    {
      "inputs": [
        {
          "internalType": "address",
          "name": "_preCrime",
          "type": "address"
        }
      ],
      "name": "setPreCrime",
      "outputs": [],
      "stateMutability": "nonpayable",
      "type": "function"
    },
    {
      "inputs": [
        {
          "internalType": "address",
          "name": "_tapiocaOmnichainReceiveExtender",
          "type": "address"
        }
      ],
      "name": "setTapiocaOmnichainReceiveExtender",
      "outputs": [],
      "stateMutability": "nonpayable",
      "type": "function"
    },
    {
      "inputs": [
        {
          "internalType": "address",
          "name": "_extExec",
          "type": "address"
        }
      ],
      "name": "setToeExtExec",
      "outputs": [],
      "stateMutability": "nonpayable",
      "type": "function"
    },
    {
      "inputs": [],
      "name": "sharedDecimals",
      "outputs": [
        {
          "internalType": "uint8",
          "name": "",
          "type": "uint8"
        }
      ],
      "stateMutability": "view",
      "type": "function"
    },
    {
      "inputs": [],
      "name": "symbol",
      "outputs": [
        {
          "internalType": "string",
          "name": "",
          "type": "string"
        }
      ],
      "stateMutability": "view",
      "type": "function"
    },
    {
      "inputs": [],
      "name": "tapiocaOmnichainReceiveExtender",
      "outputs": [
        {
          "internalType": "contract ITapiocaOmnichainReceiveExtender",
          "name": "",
          "type": "address"
        }
      ],
      "stateMutability": "view",
      "type": "function"
    },
    {
      "inputs": [],
      "name": "toeExtExec",
      "outputs": [
        {
          "internalType": "contract TapiocaOmnichainExtExec",
          "name": "",
          "type": "address"
        }
      ],
      "stateMutability": "view",
      "type": "function"
    },
    {
      "inputs": [],
      "name": "token",
      "outputs": [
        {
          "internalType": "address",
          "name": "",
          "type": "address"
        }
      ],
      "stateMutability": "view",
      "type": "function"
    },
    {
      "inputs": [],
      "name": "totalSupply",
      "outputs": [
        {
          "internalType": "uint256",
          "name": "",
          "type": "uint256"
        }
      ],
      "stateMutability": "view",
      "type": "function"
    },
    {
      "inputs": [
        {
          "internalType": "address",
          "name": "to",
          "type": "address"
        },
        {
          "internalType": "uint256",
          "name": "amount",
          "type": "uint256"
        }
      ],
      "name": "transfer",
      "outputs": [
        {
          "internalType": "bool",
          "name": "",
          "type": "bool"
        }
      ],
      "stateMutability": "nonpayable",
      "type": "function"
    },
    {
      "inputs": [
        {
          "internalType": "address",
          "name": "from",
          "type": "address"
        },
        {
          "internalType": "address",
          "name": "to",
          "type": "address"
        },
        {
          "internalType": "uint256",
          "name": "amount",
          "type": "uint256"
        }
      ],
      "name": "transferFrom",
      "outputs": [
        {
          "internalType": "bool",
          "name": "",
          "type": "bool"
        }
      ],
      "stateMutability": "nonpayable",
      "type": "function"
    },
    {
      "inputs": [
        {
          "internalType": "address",
          "name": "newOwner",
          "type": "address"
        }
      ],
      "name": "transferOwnership",
      "outputs": [],
      "stateMutability": "nonpayable",
      "type": "function"
    },
    {
      "inputs": [],
      "name": "yieldBox",
      "outputs": [
        {
          "internalType": "contract IYieldBox",
          "name": "",
          "type": "address"
        }
      ],
      "stateMutability": "view",
      "type": "function"
    }
  ],
  "bytecode": "0x60e06040523480156200001157600080fd5b506040516200588338038062005883833981016040819052620000349162000342565b806040518060400160405280600c81526020016b546170696f6361205573646f60a01b815250604051806040016040528060048152602001635553444f60e01b8152508260000151836020015184608001518560a00151866060015181878787878383620000a7620002a560201b60201c565b848481818181620000b833620002aa565b6001600160a01b038083166080528116620000e657604051632d618d8160e21b815260040160405180910390fd5b60805160405163ca5eb5e160e01b81526001600160a01b0383811660048301529091169063ca5eb5e190602401600060405180830381600087803b1580156200012e57600080fd5b505af115801562000143573d6000803e3d6000fd5b50505050505050506200015b620002fc60201b60201c565b60ff168360ff16101562000182576040516301e9714b60e41b815260040160405180910390fd5b6200018f6006846200040c565b6200019c90600a6200052b565b60a0525060099150620001b290508382620005d4565b50600a620001c18282620005d4565b5050600b54604080516001600160a01b03928316815291881660208301527f19e743977bfa1080c4f475f13f05433b43465aa361d8a3fec33c3165f773b59996500193506200020f92505050565b60405180910390a1600b80546001600160a01b03199081166001600160a01b0393841617909155600c8054909116918516919091179055806200026f7f7cdf5007585d1c7d3dfb23c59fcda5f9f02da78637d692495255a57630b7216290565b80546001600160a01b0319166001600160a01b039283161790556040989098015190971660c05250620006a09650505050505050565b601290565b600180546001600160a01b038381166001600160a01b0319831681179093556040519116919082907f8be0079c531659141344cd1fd0a4f28419497f9722a3daafe3b4186f6b6457e090600090a35050565b600690565b634e487b7160e01b600052604160045260246000fd5b6001600160a01b03811681146200032d57600080fd5b50565b80516200033d8162000317565b919050565b600060c082840312156200035557600080fd5b60405160c081016001600160401b03811182821017156200037a576200037a62000301565b60405282516200038a8162000317565b815260208301516200039c8162000317565b60208201526040830151620003b18162000317565b6040820152620003c46060840162000330565b6060820152620003d76080840162000330565b6080820152620003ea60a0840162000330565b60a08201529392505050565b634e487b7160e01b600052601160045260246000fd5b60ff8281168282160390811115620004285762000428620003f6565b92915050565b600181815b808511156200046f578160001904821115620004535762000453620003f6565b808516156200046157918102915b93841c939080029062000433565b509250929050565b600082620004885750600162000428565b81620004975750600062000428565b8160018114620004b05760028114620004bb57620004db565b600191505062000428565b60ff841115620004cf57620004cf620003f6565b50506001821b62000428565b5060208310610133831016604e8410600b841016171562000500575081810a62000428565b6200050c83836200042e565b8060001904821115620005235762000523620003f6565b029392505050565b60006200053c60ff84168362000477565b9392505050565b600181811c908216806200055857607f821691505b6020821081036200057957634e487b7160e01b600052602260045260246000fd5b50919050565b601f821115620005cf576000816000526020600020601f850160051c81016020861015620005aa5750805b601f850160051c820191505b81811015620005cb57828155600101620005b6565b5050505b505050565b81516001600160401b03811115620005f057620005f062000301565b620006088162000601845462000543565b846200057f565b602080601f831160018114620006405760008415620006275750858301515b600019600386901b1c1916600185901b178555620005cb565b600085815260208120601f198616915b82811015620006715788860151825594840194600190910190840162000650565b5085821015620006905787850151600019600388901b60f8161c191681555b5050505050600190811b01905550565b60805160a05160c05161516d620007166000396000610aa801526000818161088a01528181612caf01528181612e55015261306f0152600081816106be01528181610ca9015281816116d501528181611af60152818161216e01528181612d3b015281816132db0152613394015261516d6000f3fe60806040526004361061038c5760003560e01c80637d25a05e116101dc578063bb0b6a5311610102578063d045a0dc116100a0578063eefb44fc1161006f578063eefb44fc14610aca578063f2fde38b14610aea578063fc0c546a14610642578063ff7bd03d14610b0a57600080fd5b8063d045a0dc14610a43578063d424388514610a56578063dd62ed3e14610a76578063de40657714610a9657600080fd5b8063c0779988116100dc578063c0779988146109c0578063c458a255146109e0578063c7c7f5b314610a02578063ca5eb5e114610a2357600080fd5b8063bb0b6a5314610960578063bc70b3541461098d578063bd815db0146109ad57600080fd5b8063963efcaa1161017a578063a457c2d711610149578063a457c2d7146108e0578063a9059cbb14610900578063b731ea0a14610920578063b98bd0701461094057600080fd5b8063963efcaa146108785780639f68b964146108ac5780639fc9495f146108c0578063a3713725146104f857600080fd5b80638da5cb5b116101b65780638da5cb5b14610805578063902bd45e1461082357806392d07c831461084357806395d89b411461086357600080fd5b80637d25a05e1461079657806382413eac146107d1578063857749b0146107f157600080fd5b80633400288b116102c15780635535d4611161025f5780636411be201161022e5780636411be201461070b5780636fc1b31e1461072b57806370a082311461074b578063715018a61461078157600080fd5b80635535d461146106555780635a0dfe4d146106755780635e280f11146106ac5780636404b13e146106e057600080fd5b80633b6f743b1161029b5780633b6f743b146105ef5780633fd55b541461060f578063437be6221461062257806352ae28791461064257600080fd5b80633400288b1461058f57806339509351146105af5780633ad50d06146105cf57600080fd5b806317442b701161032e57806323b872dd1161030857806323b872dd1461050d5780632bcd3fe91461052d5780632e45088514610540578063313ce5671461056d57600080fd5b806317442b70146104b757806318160ddd146104d95780631f5e1334146104f857600080fd5b8063111ecdad1161036a578063111ecdad1461041b57806313137d6514610453578063134d4f2514610468578063156a0d0f1461049057600080fd5b806306fdde0314610391578063095ea7b3146103bc5780630d35b415146103ec575b600080fd5b34801561039d57600080fd5b506103a6610b2a565b6040516103b391906138ff565b60405180910390f35b3480156103c857600080fd5b506103dc6103d7366004613927565b610bbc565b60405190151581526020016103b3565b3480156103f857600080fd5b5061040c61040736600461396b565b610bd6565b6040516103b39392919061399f565b34801561042757600080fd5b5060055461043b906001600160a01b031681565b6040516001600160a01b0390911681526020016103b3565b610466610461366004613a92565b610ca7565b005b34801561047457600080fd5b5061047d600281565b60405161ffff90911681526020016103b3565b34801561049c57600080fd5b506040805162b9270b60e21b815260016020820152016103b3565b3480156104c357600080fd5b50604080516001815260026020820152016103b3565b3480156104e557600080fd5b506008545b6040519081526020016103b3565b34801561050457600080fd5b5061047d600181565b34801561051957600080fd5b506103dc610528366004613b31565b610d67565b61046661053b366004613cc4565b610d8d565b34801561054c57600080fd5b5061056061055b366004613d21565b610df7565b6040516103b39190613df3565b34801561057957600080fd5b5060125b60405160ff90911681526020016103b3565b34801561059b57600080fd5b506104666105aa366004613e23565b610e68565b3480156105bb57600080fd5b506103dc6105ca366004613927565b610e7e565b3480156105db57600080fd5b50600c5461043b906001600160a01b031681565b3480156105fb57600080fd5b5061056061060a366004613e3f565b610ea0565b61046661061d366004613cc4565b610f07565b34801561062e57600080fd5b5061046661063d366004613e90565b610fbc565b34801561064e57600080fd5b503061043b565b34801561066157600080fd5b506103a6610670366004613ebf565b610ff3565b34801561068157600080fd5b506103dc610690366004613e23565b63ffffffff919091166000908152600260205260409020541490565b3480156106b857600080fd5b5061043b7f000000000000000000000000000000000000000000000000000000000000000081565b3480156106ec57600080fd5b50600080516020615118833981519152546001600160a01b031661043b565b34801561071757600080fd5b50600b5461043b906001600160a01b031681565b34801561073757600080fd5b50610466610746366004613e90565b611098565b34801561075757600080fd5b506104ea610766366004613e90565b6001600160a01b031660009081526006602052604090205490565b34801561078d57600080fd5b506104666110f5565b3480156107a257600080fd5b506107b96107b1366004613e23565b600092915050565b6040516001600160401b0390911681526020016103b3565b3480156107dd57600080fd5b506103dc6107ec366004613ef2565b611109565b3480156107fd57600080fd5b50600661057d565b34801561081157600080fd5b506001546001600160a01b031661043b565b34801561082f57600080fd5b5061046661083e366004613e90565b61111e565b34801561084f57600080fd5b50600d5461043b906001600160a01b031681565b34801561086f57600080fd5b506103a661118f565b34801561088457600080fd5b506104ea7f000000000000000000000000000000000000000000000000000000000000000081565b3480156108b857600080fd5b5060006103dc565b3480156108cc57600080fd5b506104666108db366004613e90565b61119e565b3480156108ec57600080fd5b506103dc6108fb366004613927565b6111c8565b34801561090c57600080fd5b506103dc61091b366004613927565b61124e565b34801561092c57600080fd5b5060035461043b906001600160a01b031681565b34801561094c57600080fd5b5061046661095b366004613f9c565b61125c565b34801561096c57600080fd5b506104ea61097b366004613fdd565b60026020526000908152604090205481565b34801561099957600080fd5b506103a66109a8366004613ff8565b611276565b6104666109bb366004613f9c565b61141e565b3480156109cc57600080fd5b506104ea6109db366004614058565b6115a8565b3480156109ec57600080fd5b506104ea60008051602061511883398151915281565b610a15610a10366004614071565b6115b3565b6040516103b39291906140de565b348015610a2f57600080fd5b50610466610a3e366004613e90565b6116ae565b610466610a51366004613a92565b611734565b348015610a6257600080fd5b50610466610a71366004613e90565b611763565b348015610a8257600080fd5b506104ea610a91366004614130565b6117b9565b348015610aa257600080fd5b5061043b7f000000000000000000000000000000000000000000000000000000000000000081565b348015610ad657600080fd5b50610466610ae5366004613e90565b6117e4565b348015610af657600080fd5b50610466610b05366004613e90565b61180e565b348015610b1657600080fd5b506103dc610b2536600461415e565b611887565b606060098054610b399061417a565b80601f0160208091040260200160405190810160405280929190818152602001828054610b659061417a565b8015610bb25780601f10610b8757610100808354040283529160200191610bb2565b820191906000526020600020905b815481529060010190602001808311610b9557829003601f168201915b5050505050905090565b600033610bca8185856118bd565b60019150505b92915050565b60408051808201909152600080825260208201526060610c09604051806040016040528060008152602001600081525090565b60408051808201825260008082526001600160401b03602080840182905284518381529081019094529195509182610c64565b604080518082019091526000815260606020820152815260200190600190039081610c3c5790505b509350600080610c89604089013560608a0135610c8460208c018c613fdd565b6119e1565b60408051808201909152918252602082015296989597505050505050565b7f00000000000000000000000000000000000000000000000000000000000000006001600160a01b03163314610cf7576040516391ac5e4f60e01b81523360048201526024015b60405180910390fd5b60208701803590610d1190610d0c908a613fdd565b611a25565b14610d4f57610d236020880188613fdd565b60405163309afaf360e21b815263ffffffff909116600482015260208801356024820152604401610cee565b610d5e87878787878787611a61565b50505050505050565b600033610d75858285611bc8565b610d80858585611c42565b60019150505b9392505050565b6000610d9882611ded565b9050610da48184611e09565b9050610daf81611ecd565b60208101515181516040516001600160a01b03928316928681169216907f6695825ae66b9cbcd53e3c50b4e8a638cadb28ed23627cdfec42c8581c0fcf2790600090a4505050565b60408051808201909152600080825260208201526000610e2760408b013560608c0135610c8460208e018e613fdd565b915050600080610e3b8c8c8c8b8b88612040565b9092509050610e58610e5060208e018e613fdd565b83838c612158565b9c9b505050505050505050505050565b610e70612239565b610e7a8282612293565b5050565b600033610bca818585610e9183836117b9565b610e9b91906141c4565b6118bd565b60408051808201909152600080825260208201526000610ed060408501356060860135610c846020880188613fdd565b915050600080610ee086846122e8565b9092509050610efd610ef56020880188613fdd565b838388612158565b9695505050505050565b6000610f128261240d565b9050610f1d81612429565b60208101515190915015610f3a57610f3581846125b3565b610f44565b610f4481846128a8565b600b54610f5b906001600160a01b03166000610bbc565b50602081015160a0810151825191516040516001600160a01b03928316938784169316917f73b7c98e9d83a5a75cb969e10c10e845a312a283e69c3c57b772038079bc3b8291610faf911515815260200190565b60405180910390a4505050565b610fc4612239565b60008051602061511883398151915280546001600160a01b0319166001600160a01b0392909216919091179055565b6004602090815260009283526040808420909152908252902080546110179061417a565b80601f01602080910402602001604051908101604052809291908181526020018280546110439061417a565b80156110905780601f1061106557610100808354040283529160200191611090565b820191906000526020600020905b81548152906001019060200180831161107357829003601f168201915b505050505081565b6110a0612239565b600580546001600160a01b0319166001600160a01b0383169081179091556040519081527ff0be4f1e87349231d80c36b33f9e8639658eeaf474014dee15a3e6a4d4414197906020015b60405180910390a150565b6110fd612239565b6111076000612b26565b565b6001600160a01b03811630145b949350505050565b611126612239565b600b54604080516001600160a01b03928316815291831660208301527f19e743977bfa1080c4f475f13f05433b43465aa361d8a3fec33c3165f773b599910160405180910390a1600b80546001600160a01b0319166001600160a01b0392909216919091179055565b6060600a8054610b399061417a565b6111a6612239565b600d80546001600160a01b0319166001600160a01b0392909216919091179055565b600033816111d682866117b9565b9050838110156112365760405162461bcd60e51b815260206004820152602560248201527f45524332303a2064656372656173656420616c6c6f77616e63652062656c6f77604482015264207a65726f60d81b6064820152608401610cee565b61124382868684036118bd565b506001949350505050565b600033610bca818585611c42565b611264612239565b610e7a61127182846141d7565b612b78565b63ffffffff8416600090815260046020908152604080832061ffff871684529091528120805460609291906112aa9061417a565b80601f01602080910402602001604051908101604052809291908181526020018280546112d69061417a565b80156113235780601f106112f857610100808354040283529160200191611323565b820191906000526020600020905b81548152906001019060200180831161130657829003601f168201915b5050505050905080516000036113735783838080601f0160208091040260200160405190810160405280939291908181526020018383808284376000920191909152509294506111169350505050565b6000839003611383579050611116565b60028310611401576113ca84848080601f016020809104026020016040519081016040528093929190818152602001838380828437600092019190915250612c7f92505050565b806113d884600281886142ac565b6040516020016113ea939291906142d6565b604051602081830303815290604052915050611116565b8383604051639a6d49cd60e01b8152600401610cee929190614327565b60005b81811015611527573683838381811061143c5761143c61433b565b905060200281019061144e9190614351565b90506114816114606020830183613fdd565b602083013563ffffffff919091166000908152600260205260409020541490565b61148b575061151f565b3063d045a0dc60c08301358360a08101356114aa610100830183614372565b6114bb610100890160e08a01613e90565b6114c96101208a018a614372565b6040518963ffffffff1660e01b81526004016114eb97969594939291906143cd565b6000604051808303818588803b15801561150457600080fd5b505af1158015611518573d6000803e3d6000fd5b5050505050505b600101611421565b50336001600160a01b0316638e9e70996040518163ffffffff1660e01b8152600401600060405180830381865afa158015611566573d6000803e3d6000fd5b505050506040513d6000823e601f3d908101601f1916820160405261158e9190810190614453565b604051638351eea760e01b8152600401610cee91906138ff565b6000610bd082612cab565b6115bb6136a5565b60408051808201909152600080825260208201526000806115f233604089013560608a01356115ed60208c018c613fdd565b612ce2565b9150915060008061160389846122e8565b909250905061162f61161860208b018b613fdd565b8383611629368d90038d018d6144c0565b8b612d08565b60408051808201909152858152602080820186905282519298509096503391907f85496b760a4b7f8d66384b9df21b381f5d1b1e79f229a47aaf4c232edc2fe59a9061167d908d018d613fdd565b6040805163ffffffff909216825260208201899052810187905260600160405180910390a350505050935093915050565b6116b6612239565b60405163ca5eb5e160e01b81526001600160a01b0382811660048301527f0000000000000000000000000000000000000000000000000000000000000000169063ca5eb5e190602401600060405180830381600087803b15801561171957600080fd5b505af115801561172d573d6000803e3d6000fd5b5050505050565b3330146117545760405163029a949d60e31b815260040160405180910390fd5b610d5e87878787878787610d4f565b61176b612239565b600380546001600160a01b0319166001600160a01b0383169081179091556040519081527fd48d879cef83a1c0bdda516f27b13ddb1b3f8bbac1c9e1511bb2a659c2427760906020016110ea565b6001600160a01b03918216600090815260076020908152604080832093909416825291909152205490565b6117ec612239565b600c80546001600160a01b0319166001600160a01b0392909216919091179055565b611816612239565b6001600160a01b03811661187b5760405162461bcd60e51b815260206004820152602660248201527f4f776e61626c653a206e6577206f776e657220697320746865207a65726f206160448201526564647265737360d01b6064820152608401610cee565b61188481612b26565b50565b600060208201803590600290839061189f9086613fdd565b63ffffffff1681526020810191909152604001600020541492915050565b6001600160a01b03831661191f5760405162461bcd60e51b8152602060048201526024808201527f45524332303a20617070726f76652066726f6d20746865207a65726f206164646044820152637265737360e01b6064820152608401610cee565b6001600160a01b0382166119805760405162461bcd60e51b815260206004820152602260248201527f45524332303a20617070726f766520746f20746865207a65726f206164647265604482015261737360f01b6064820152608401610cee565b6001600160a01b0383811660008181526007602090815260408083209487168084529482529182902085905590518481527f8c5be1e5ebec7d5bd14f71427d1e84f3dd0314c0f7b2291e5b200ac8c7c3b925910160405180910390a3505050565b6000806119ed85612cab565b915081905083811015611a1d576040516371c4efed60e01b81526004810182905260248101859052604401610cee565b935093915050565b63ffffffff811660009081526002602052604081205480610bd05760405163f6ff4fb760e01b815263ffffffff84166004820152602401610cee565b6000611a73611a708787612e13565b90565b90506000611a9f82611a8d611a888a8a612e2b565b612e4e565b611a9a60208d018d613fdd565b612e83565b90506028861115611b66576000611adc611abf60608c0160408d016144f2565b611acc60208d018d613fdd565b84611ad78c8c612e97565b612ee2565b604051633e5ac80960e11b81529091506001600160a01b037f00000000000000000000000000000000000000000000000000000000000000001690637cb5901290611b329086908d90600090879060040161450f565b600060405180830381600087803b158015611b4c57600080fd5b505af1158015611b60573d6000803e3d6000fd5b50505050505b6001600160a01b038216887fefed6d3500546b29533b128a29e3a94d70788727f0507505ac12eaf2e578fd9c611b9f60208d018d613fdd565b6040805163ffffffff9092168252602082018690520160405180910390a3505050505050505050565b6000611bd484846117b9565b90506000198114611c3c5781811015611c2f5760405162461bcd60e51b815260206004820152601d60248201527f45524332303a20696e73756666696369656e7420616c6c6f77616e63650000006044820152606401610cee565b611c3c84848484036118bd565b50505050565b6001600160a01b038316611ca65760405162461bcd60e51b815260206004820152602560248201527f45524332303a207472616e736665722066726f6d20746865207a65726f206164604482015264647265737360d81b6064820152608401610cee565b6001600160a01b038216611d085760405162461bcd60e51b815260206004820152602360248201527f45524332303a207472616e7366657220746f20746865207a65726f206164647260448201526265737360e81b6064820152608401610cee565b6001600160a01b03831660009081526006602052604090205481811015611d805760405162461bcd60e51b815260206004820152602660248201527f45524332303a207472616e7366657220616d6f756e7420657863656564732062604482015265616c616e636560d01b6064820152608401610cee565b6001600160a01b0380851660008181526006602052604080822086860390559286168082529083902080548601905591517fddf252ad1be2c89b69c2b068fc378daa952ba7f163c4a11628f55a4df523b3ef90611de09086815260200190565b60405180910390a3611c3c565b611df56136ec565b81806020019051810190610bd091906146fc565b611e116136ec565b602083015151611e2090612f19565b611e31836020015160200151612f19565b611e42836020015160400151612f19565b611e53836020015160600151612f19565b611e67611a88846040015160200151612fdc565b604084018051602001919091525160600151611e8690611a8890612fdc565b604084018051606001919091525160a00151611ea590611a8890612fdc565b60408401805160a001919091528351905160200151611ec691908490613044565b5090919050565b6040805160608101825282516001600160a01b031681526020808401519082015282820151818301529051600091631cdf434560e11b91611f1191906024016147f4565b60408051601f19818403018152918152602080830180516001600160e01b03166001600160e01b031995909516949094179093528051600180825281830190925291935060009282015b6040805160808101825260008082526020808301829052928201526060808201528252600019909201910181611f5b57905050604080516080810190915290915080600a60ff16815230602082015234604082015260600183905281518290600090611fc957611fc961433b565b60200260200101819052508260200151600001516001600160a01b0316638634d9c834836040518363ffffffff1660e01b81526004016120099190614923565b6000604051808303818588803b15801561202257600080fd5b505af1158015612036573d6000803e3d6000fd5b5050505050505050565b6060806000612092896020013561205686613068565b88888080601f01602080910402602001604051908101604052809392919081815260200183838082843760009201919091525061309492505050565b90935090506000816120a55760016120a8565b60025b90506120c26120ba60208c018c613fdd565b828b8b611276565b6005549093506001600160a01b03161561214b5760055460405163043a78eb60e01b81526001600160a01b039091169063043a78eb9061210890879087906004016149bc565b602060405180830381865afa158015612125573d6000803e3d6000fd5b505050506040513d601f19601f8201168201806040525081019061214991906149e1565b505b5050965096945050505050565b60408051808201909152600080825260208201527f00000000000000000000000000000000000000000000000000000000000000006001600160a01b031663ddc28c586040518060a001604052808863ffffffff1681526020016121bb89611a25565b8152602001878152602001868152602001851515815250306040518363ffffffff1660e01b81526004016121f09291906149fe565b6040805180830381865afa15801561220c573d6000803e3d6000fd5b505050506040513d601f19601f820116820180604052508101906122309190614aa7565b95945050505050565b6001546001600160a01b031633146111075760405162461bcd60e51b815260206004820181905260248201527f4f776e61626c653a2063616c6c6572206973206e6f7420746865206f776e65726044820152606401610cee565b63ffffffff8216600081815260026020908152604091829020849055815192835282018390527f238399d427b947898edb290f5ff0f9109849b1c3ba196a42e35f00c50a54b98b910160405180910390a15050565b606080600061234585602001356122fe86613068565b61230b60a0890189614372565b8080601f01602080910402602001604051908101604052809392919081815260200183838082843760009201919091525061309492505050565b909350905060008161235857600161235b565b60025b905061237b61236d6020880188613fdd565b826109a860808a018a614372565b6005549093506001600160a01b0316156124045760055460405163043a78eb60e01b81526001600160a01b039091169063043a78eb906123c190879087906004016149bc565b602060405180830381865afa1580156123de573d6000803e3d6000fd5b505050506040513d601f19601f8201168201806040525081019061240291906149e1565b505b50509250929050565b61241561372b565b81806020019051810190610bd09190614b69565b61243161372b565b612442826020015160800151612f19565b612453826020015160600151612f19565b612464826020015160a00151612f19565b61247a8260200151610100015160200151612f19565b6124908260200151610120015160200151612f19565b6020808301510151156124ba576124b1611a88836020015160200151612fdc565b60208084015101525b602082015160400151156124e6576124dc611a88836020015160400151612fdc565b6020830151604001525b602082015160e001511561251257612508611a88836020015160e00151612fdc565b602083015160e001525b60208201516101000151606001516001600160801b03161561257457612558612553611a8884602001516101000151606001516001600160801b0316612fdc565b61310e565b602083015161010001516001600160801b039091166060909101525b6020820151610100015160800151156125af576125a0611a888360200151610100015160800151612fdc565b60208301516101000151608001525b5090565b8160200151604001516000036126b7578160200151608001516001600160a01b03166363b0e66a6040518163ffffffff1660e01b8152600401602060405180830381865afa158015612609573d6000803e3d6000fd5b505050506040513d601f19601f8201168201806040525081019061262d9190614c5c565b60208381015160a08101519101516040516305da91c960e31b81526001600160a01b0392831660048201526024810191909152911690632ed48e4890604401602060405180830381865afa158015612689573d6000803e3d6000fd5b505050506040513d601f19601f820116820180604052508101906126ad9190614c79565b6020830151604001525b6126ce826000015182846020015160200151613044565b6000633029028360e01b6040518060e00160405280856020015160a001516001600160a01b031681526020018560200151606001516001600160a01b0316815260200185600001516001600160a01b0316815260200185602001516020015181526020018560200151604001518152602001856020015160e00151815260200185604001518152506040516024016127669190614c92565b60408051601f19818403018152918152602080830180516001600160e01b03166001600160e01b031995909516949094179093528051600180825281830190925291935060009282015b60408051608081018252600080825260208083018290529282015260608082015282526000199092019101816127b057905050604080516080810190915290915080600760ff1681526020018560200151608001516001600160a01b0316815260200134815260200183815250816000815181106128305761283061433b565b60200260200101819052508360200151608001516001600160a01b0316638634d9c834836040518363ffffffff1660e01b81526004016128709190614923565b6000604051808303818588803b15801561288957600080fd5b505af115801561289d573d6000803e3d6000fd5b505050505050505050565b806001600160a01b031682600001516001600160a01b03161461290457600082602001516101000151606001516001600160801b03168360200151602001516128f191906141c4565b905061290283600001518383611bc8565b505b6040805160e08101825283516001600160a01b03908116825260208086018051820151828501528451606080820187526000808352828501819052875180890189528181528086018290528389015286880192909252865180880188526001815283518501518186015281870152825161010001516080808801919091528351610120015160a08089019190915288518083018a52855190920151871682528451015186169481019490945283870182905291518201519093169082015260c08301529151909190631a740ad160e21b906129e3908490602401614cf1565b60408051601f19818403018152918152602080830180516001600160e01b03166001600160e01b031995909516949094179093528051600180825281830190925291935060009282015b6040805160808101825260008082526020808301829052928201526060808201528252600019909201910181612a2d57905050604080516080810190915290915080600960ff1681526020018660200151608001516001600160a01b031681526020013481526020018381525081600081518110612aad57612aad61433b565b60200260200101819052508460200151608001516001600160a01b0316638634d9c834836040518363ffffffff1660e01b8152600401612aed9190614923565b6000604051808303818588803b158015612b0657600080fd5b505af1158015612b1a573d6000803e3d6000fd5b50505050505050505050565b600180546001600160a01b038381166001600160a01b0319831681179093556040519116919082907f8be0079c531659141344cd1fd0a4f28419497f9722a3daafe3b4186f6b6457e090600090a35050565b60005b8151811015612c4f57612baa828281518110612b9957612b9961433b565b602002602001015160400151612c7f565b818181518110612bbc57612bbc61433b565b60200260200101516040015160046000848481518110612bde57612bde61433b565b60200260200101516000015163ffffffff1663ffffffff1681526020019081526020016000206000848481518110612c1857612c1861433b565b60200260200101516020015161ffff1661ffff1681526020019081526020016000209081612c469190614e66565b50600101612b7b565b507fbe4864a8e820971c0247f5992e2da559595f7bf076a21cb5928d443d2a13b674816040516110ea9190614f25565b600281015161ffff8116600314610e7a5781604051639a6d49cd60e01b8152600401610cee91906138ff565b60007f0000000000000000000000000000000000000000000000000000000000000000612cd88184614fa2565b610bd09190614fc4565b600080612cf08585856119e1565b9092509050612cff8683613177565b94509492505050565b612d106136a5565b6000612d1f84600001516132ab565b602085015190915015612d3957612d3984602001516132d7565b7f00000000000000000000000000000000000000000000000000000000000000006001600160a01b0316632637a450826040518060a001604052808b63ffffffff168152602001612d898c611a25565b81526020018a815260200189815260200160008960200151111515815250866040518463ffffffff1660e01b8152600401612dc59291906149fe565b60806040518083038185885af1158015612de3573d6000803e3d6000fd5b50505050506040513d601f19601f82011682018060405250810190612e089190614fdb565b979650505050505050565b6000612e2260208284866142ac565b610d8691615025565b6000612e3b6028602084866142ac565b612e4491615043565b60c01c9392505050565b6000610bd07f00000000000000000000000000000000000000000000000000000000000000006001600160401b038416614fc4565b6000612e8f84846133b9565b509092915050565b6060612ea682602881866142ac565b8080601f016020809104026020016040519081016040528093929190818152602001838380828437600092019190915250929695505050505050565b606084848484604051602001612efb9493929190615073565b6040516020818303038152906040529050949350505050565b505050565b6001600160a01b0381161561188457600080516020615118833981519152546001600160a01b0316604051631ccfd32160e31b8152600060048201526001600160a01b038381166024830152919091169063e67e990890604401602060405180830381865afa158015612f90573d6000803e3d6000fd5b505050506040513d601f19601f82011682018060405250810190612fb491906149e1565b61188457604051630cc628f360e21b81526001600160a01b0382166004820152602401610cee565b60006001600160401b038211156125af5760405162461bcd60e51b815260206004820152602660248201527f53616665436173743a2076616c756520646f65736e27742066697420696e203660448201526534206269747360d01b6064820152608401610cee565b816001600160a01b0316836001600160a01b031614612f1457612f14838383611bc8565b6000610bd07f000000000000000000000000000000000000000000000000000000000000000083614fa2565b80516060901515806130dd5784846040516020016130c992919091825260c01b6001600160c01b031916602082015260280190565b604051602081830303815290604052613104565b848433856040516020016130f494939291906150c2565b6040516020818303038152906040525b9150935093915050565b60006001600160801b038211156125af5760405162461bcd60e51b815260206004820152602760248201527f53616665436173743a2076616c756520646f65736e27742066697420696e20316044820152663238206269747360c81b6064820152608401610cee565b6001600160a01b0382166131d75760405162461bcd60e51b815260206004820152602160248201527f45524332303a206275726e2066726f6d20746865207a65726f206164647265736044820152607360f81b6064820152608401610cee565b6001600160a01b0382166000908152600660205260409020548181101561324b5760405162461bcd60e51b815260206004820152602260248201527f45524332303a206275726e20616d6f756e7420657863656564732062616c616e604482015261636560f01b6064820152608401610cee565b6001600160a01b03831660008181526006602090815260408083208686039055600880548790039055518581529192917fddf252ad1be2c89b69c2b068fc378daa952ba7f163c4a11628f55a4df523b3ef910160405180910390a3505050565b6000813410156132d0576040516304fb820960e51b8152346004820152602401610cee565b5034919050565b60007f00000000000000000000000000000000000000000000000000000000000000006001600160a01b031663e4fe1d946040518163ffffffff1660e01b8152600401602060405180830381865afa158015613337573d6000803e3d6000fd5b505050506040513d601f19601f8201168201806040525081019061335b9190614c5c565b90506001600160a01b038116613384576040516329b99a9560e11b815260040160405180910390fd5b610e7a6001600160a01b038216337f00000000000000000000000000000000000000000000000000000000000000008561347a565b6001600160a01b03821661340f5760405162461bcd60e51b815260206004820152601f60248201527f45524332303a206d696e7420746f20746865207a65726f2061646472657373006044820152606401610cee565b806008600082825461342191906141c4565b90915550506001600160a01b0382166000818152600660209081526040808320805486019055518481527fddf252ad1be2c89b69c2b068fc378daa952ba7f163c4a11628f55a4df523b3ef910160405180910390a35050565b604080516001600160a01b038581166024830152848116604483015260648083018590528351808403909101815260849092018352602080830180516001600160e01b03166323b872dd60e01b17905283518085019094528084527f5361666545524332303a206c6f772d6c6576656c2063616c6c206661696c656490840152611c3c92879291600091613512918516908490613592565b905080516000148061353357508080602001905181019061353391906149e1565b612f145760405162461bcd60e51b815260206004820152602a60248201527f5361666545524332303a204552433230206f7065726174696f6e20646964206e6044820152691bdd081cdd58d8d9595960b21b6064820152608401610cee565b6060611116848460008585600080866001600160a01b031685876040516135b99190615105565b60006040518083038185875af1925050503d80600081146135f6576040519150601f19603f3d011682016040523d82523d6000602084013e6135fb565b606091505b5091509150612e08878383876060831561367657825160000361366f576001600160a01b0385163b61366f5760405162461bcd60e51b815260206004820152601d60248201527f416464726573733a2063616c6c20746f206e6f6e2d636f6e74726163740000006044820152606401610cee565b5081611116565b611116838381511561368b5781518083602001fd5b8060405162461bcd60e51b8152600401610cee91906138ff565b60405180606001604052806000801916815260200160006001600160401b031681526020016136e7604051806040016040528060008152602001600081525090565b905290565b604080516060808201835260008083528351608081018552818152602081810183905294810182905291820152909182019081526020016136e761380e565b604051806060016040528060006001600160a01b031681526020016137d66040805161014081018252600080825260208083018290528284018290526060808401839052608080850184905260a080860185905260c0860185905260e086018590528651908101875284815292830184905294820183905281018290529283015290610100820190815260408051606081018252600080825260208281018290529282015291015290565b81526040805160c08101825260008082526020828101829052928201819052606082018190526080820181905260a082015291015290565b6040805161014081018252600080825260208083018290528284018290526060808401839052608080850184905260a08086018590528651808401885285815280850186905280880186905260c0808801919091528751808501895286815280860187905280890187905260e088015287519081018852858152938401859052958301849052908201839052810182905292830152906101008201906137d6565b60005b838110156138ca5781810151838201526020016138b2565b50506000910152565b600081518084526138eb8160208601602086016138af565b601f01601f19169290920160200192915050565b602081526000610d8660208301846138d3565b6001600160a01b038116811461188457600080fd5b6000806040838503121561393a57600080fd5b823561394581613912565b946020939093013593505050565b600060e0828403121561396557600080fd5b50919050565b60006020828403121561397d57600080fd5b81356001600160401b0381111561399357600080fd5b61111684828501613953565b8351815260208085015190820152600060a08201604060a0604085015281865180845260c08601915060c08160051b8701019350602080890160005b83811015613a1a5788870360bf19018552815180518852830151838801879052613a07878901826138d3565b97505093820193908201906001016139db565b50508751606088015250505060208501516080850152509050611116565b60006060828403121561396557600080fd5b60008083601f840112613a5c57600080fd5b5081356001600160401b03811115613a7357600080fd5b602083019150836020828501011115613a8b57600080fd5b9250929050565b600080600080600080600060e0888a031215613aad57600080fd5b613ab78989613a38565b96506060880135955060808801356001600160401b0380821115613ada57600080fd5b613ae68b838c01613a4a565b909750955060a08a01359150613afb82613912565b90935060c08901359080821115613b1157600080fd5b50613b1e8a828b01613a4a565b989b979a50959850939692959293505050565b600080600060608486031215613b4657600080fd5b8335613b5181613912565b92506020840135613b6181613912565b929592945050506040919091013590565b634e487b7160e01b600052604160045260246000fd5b604051606081016001600160401b0381118282101715613baa57613baa613b72565b60405290565b604080519081016001600160401b0381118282101715613baa57613baa613b72565b60405161014081016001600160401b0381118282101715613baa57613baa613b72565b604051608081016001600160401b0381118282101715613baa57613baa613b72565b604051601f8201601f191681016001600160401b0381118282101715613c3f57613c3f613b72565b604052919050565b60006001600160401b03821115613c6057613c60613b72565b50601f01601f191660200190565b600082601f830112613c7f57600080fd5b8135613c92613c8d82613c47565b613c17565b818152846020838601011115613ca757600080fd5b816020850160208301376000918101602001919091529392505050565b60008060408385031215613cd757600080fd5b8235613ce281613912565b915060208301356001600160401b03811115613cfd57600080fd5b613d0985828601613c6e565b9150509250929050565b801515811461188457600080fd5b60008060008060008060008060a0898b031215613d3d57600080fd5b88356001600160401b0380821115613d5457600080fd5b613d608c838d01613953565b995060208b0135915080821115613d7657600080fd5b613d828c838d01613a4a565b909950975060408b01359150613d9782613d13565b90955060608a01359080821115613dad57600080fd5b613db98c838d01613a4a565b909650945060808b0135915080821115613dd257600080fd5b50613ddf8b828c01613a4a565b999c989b5096995094979396929594505050565b815181526020808301519082015260408101610bd0565b803563ffffffff81168114613e1e57600080fd5b919050565b60008060408385031215613e3657600080fd5b61394583613e0a565b60008060408385031215613e5257600080fd5b82356001600160401b03811115613e6857600080fd5b613e7485828601613953565b9250506020830135613e8581613d13565b809150509250929050565b600060208284031215613ea257600080fd5b8135610d8681613912565b803561ffff81168114613e1e57600080fd5b60008060408385031215613ed257600080fd5b613edb83613e0a565b9150613ee960208401613ead565b90509250929050565b60008060008060a08587031215613f0857600080fd5b613f128686613a38565b935060608501356001600160401b03811115613f2d57600080fd5b613f3987828801613a4a565b9094509250506080850135613f4d81613912565b939692955090935050565b60008083601f840112613f6a57600080fd5b5081356001600160401b03811115613f8157600080fd5b6020830191508360208260051b8501011115613a8b57600080fd5b60008060208385031215613faf57600080fd5b82356001600160401b03811115613fc557600080fd5b613fd185828601613f58565b90969095509350505050565b600060208284031215613fef57600080fd5b610d8682613e0a565b6000806000806060858703121561400e57600080fd5b61401785613e0a565b935061402560208601613ead565b925060408501356001600160401b0381111561404057600080fd5b61404c87828801613a4a565b95989497509550505050565b60006020828403121561406a57600080fd5b5035919050565b6000806000838503608081121561408757600080fd5b84356001600160401b0381111561409d57600080fd5b6140a987828801613953565b9450506040601f19820112156140be57600080fd5b5060208401915060608401356140d381613912565b809150509250925092565b600060c082019050835182526001600160401b0360208501511660208301526040840151614119604084018280518252602090810151910152565b5082516080830152602083015160a0830152610d86565b6000806040838503121561414357600080fd5b823561414e81613912565b91506020830135613e8581613912565b60006060828403121561417057600080fd5b610d868383613a38565b600181811c9082168061418e57607f821691505b60208210810361396557634e487b7160e01b600052602260045260246000fd5b634e487b7160e01b600052601160045260246000fd5b80820180821115610bd057610bd06141ae565b60006001600160401b03808411156141f1576141f1613b72565b8360051b6020614202818301613c17565b86815291850191818101903684111561421a57600080fd5b865b848110156142a0578035868111156142345760008081fd5b880160603682900312156142485760008081fd5b614250613b88565b61425982613e0a565b8152614266868301613ead565b868201526040808301358981111561427e5760008081fd5b61428a36828601613c6e565b918301919091525084525091830191830161421c565b50979650505050505050565b600080858511156142bc57600080fd5b838611156142c957600080fd5b5050820193919092039150565b600084516142e88184602089016138af565b8201838582376000930192835250909392505050565b81835281816020850137506000828201602090810191909152601f909101601f19169091010190565b6020815260006111166020830184866142fe565b634e487b7160e01b600052603260045260246000fd5b6000823561013e1983360301811261436857600080fd5b9190910192915050565b6000808335601e1984360301811261438957600080fd5b8301803591506001600160401b038211156143a357600080fd5b602001915036819003821315613a8b57600080fd5b6001600160401b038116811461188457600080fd5b63ffffffff6143db89613e0a565b16815260208801356020820152600060408901356143f8816143b8565b6001600160401b03811660408401525087606083015260e0608083015261442360e0830187896142fe565b6001600160a01b03861660a084015282810360c08401526144458185876142fe565b9a9950505050505050505050565b60006020828403121561446557600080fd5b81516001600160401b0381111561447b57600080fd5b8201601f8101841361448c57600080fd5b805161449a613c8d82613c47565b8181528560208385010111156144af57600080fd5b6122308260208301602086016138af565b6000604082840312156144d257600080fd5b6144da613bb0565b82358152602083013560208201528091505092915050565b60006020828403121561450457600080fd5b8135610d86816143b8565b60018060a01b038516815283602082015261ffff83166040820152608060608201526000610efd60808301846138d3565b8051613e1e81613912565b8051613e1e81613d13565b60006060828403121561456857600080fd5b614570613b88565b9050815161457d81613d13565b8152602082015161458d81613912565b806020830152506040820151604082015292915050565b600060c082840312156145b657600080fd5b60405160c081018181106001600160401b03821117156145d8576145d8613b72565b806040525080915082516145eb81613912565b815260208381015190820152604083015161460581613912565b604082015260608381015190820152608083015161462281613d13565b608082015260a083015161463581613d13565b60a0919091015292915050565b6000610300828403121561465557600080fd5b61465d613bd2565b90506146688261454b565b8152602082015160208201526146806040830161454b565b60408201526060820151606082015261469b6080830161454b565b608082015260a082015160a08201526146b78360c08401614556565b60c08201526101206146cb84828501614556565b60e08301526146de8461018085016145a4565b6101008301526146f28461024085016145a4565b9082015292915050565b60008183036103a081121561471057600080fd5b614718613b88565b835161472381613912565b81526080601f198301121561473757600080fd5b61473f613bf5565b9150602084015161474f81613912565b8252604084015161475f81613912565b6020830152606084015161477281613912565b6040830152608084015161478581613912565b60608301526020810182905261479e8560a08601614642565b6040820152949350505050565b80516001600160a01b03908116835260208083015190840152604080830151909116908301526060808201519083015260808082015115159083015260a0908101511515910152565b81516001600160a01b031681526020808301516103a08301916148479084018280516001600160a01b03908116835260208083015182169084015260408083015182169084015260609182015116910152565b5060408301518051151560a0840152602081015160c0840152604081015180151560e08501525060608101516101008181860152608083015191506101206148928187018415159052565b60a084015161014087015260c0840151805115156101608801526020808201516001600160a01b039081166101808a01526040928301516101a08a015260e0870151805115156101c08b015291820151166101e089015201516102008701528184015192506149056102208701846147ab565b80840151935050505061491c6102e08401826147ab565b5092915050565b600060208083018184528085518083526040925060408601915060408160051b87010184880160005b838110156149ae57888303603f190185528151805160ff168452878101516001600160a01b031688850152868101518785015260609081015160809185018290529061499a818601836138d3565b96890196945050509086019060010161494c565b509098975050505050505050565b6040815260006149cf60408301856138d3565b828103602084015261223081856138d3565b6000602082840312156149f357600080fd5b8151610d8681613d13565b6040815263ffffffff8351166040820152602083015160608201526000604084015160a06080840152614a3460e08401826138d3565b90506060850151603f198483030160a0850152614a5182826138d3565b60809690960151151560c08501525050506001600160a01b039190911660209091015290565b600060408284031215614a8957600080fd5b614a91613bb0565b9050815181526020820151602082015292915050565b600060408284031215614ab957600080fd5b610d868383614a77565b80516001600160801b0381168114613e1e57600080fd5b600060a08284031215614aec57600080fd5b60405160a081018181106001600160401b0382111715614b0e57614b0e613b72565b80604052508091508251614b2181613d13565b81526020830151614b3181613912565b6020820152614b4260408401614ac3565b6040820152614b5360608401614ac3565b6060820152608083015160808201525092915050565b60008183036102e0811215614b7d57600080fd5b614b85613b88565b8351614b9081613912565b8152610200601f1983011215614ba557600080fd5b614bad613bd2565b9150614bbb6020850161454b565b82526040840151602083015260608401516040830152614bdd60808501614540565b6060830152614bee60a08501614540565b6080830152614bff60c08501614540565b60a0830152614c1060e0850161454b565b60c08301526101008085015160e0840152610120614c3087828801614ada565b82850152614c42876101c08801614556565b81850152505081602082015261479e8561022086016145a4565b600060208284031215614c6e57600080fd5b8151610d8681613912565b600060208284031215614c8b57600080fd5b5051919050565b60006101808201905060018060a01b0380845116835280602085015116602084015280604085015116604084015250606083015160608301526080830151608083015260a083015160a083015260c083015161491c60c08401826147ab565b81516001600160a01b0316815260208083015181830152604080840151805115158285015280830151606085015201518051151560808401529081015160a08301526102808201905060608301518051151560c0840152602081015160e0840152506080838101518051151561010085015260208101516001600160a01b031661012085015260408101516001600160801b03908116610140860152606082015116610160850152908101516101808401525060a0830151805115156101a084015260208101516001600160a01b03166101c084015260408101516101e08401525060c083015180516001600160a01b03908116610200850152602082015181166102208501526040820151811661024085015260608201511661026084015261491c565b601f821115612f14576000816000526020600020601f850160051c81016020861015614e3f5750805b601f850160051c820191505b81811015614e5e57828155600101614e4b565b505050505050565b81516001600160401b03811115614e7f57614e7f613b72565b614e9381614e8d845461417a565b84614e16565b602080601f831160018114614ec85760008415614eb05750858301515b600019600386901b1c1916600185901b178555614e5e565b600085815260208120601f198616915b82811015614ef757888601518255948401946001909101908401614ed8565b5085821015614f155787850151600019600388901b60f8161c191681555b5050505050600190811b01905550565b600060208083018184528085518083526040925060408601915060408160051b87010184880160005b838110156149ae57888303603f190185528151805163ffffffff1684528781015161ffff16888501528601516060878501819052614f8e818601836138d3565b968901969450505090860190600101614f4e565b600082614fbf57634e487b7160e01b600052601260045260246000fd5b500490565b8082028115828204841417610bd057610bd06141ae565b600060808284031215614fed57600080fd5b614ff5613b88565b825181526020830151615007816143b8565b60208201526150198460408501614a77565b60408201529392505050565b80356020831015610bd057600019602084900360031b1b1692915050565b6001600160c01b0319813581811691600885101561506b5780818660080360031b1b83161692505b505092915050565b6001600160401b0360c01b8560c01b16815263ffffffff60e01b8460e01b16600882015282600c820152600082516150b281602c8501602087016138af565b91909101602c0195945050505050565b8481526001600160401b0360c01b8460c01b166020820152826028820152600082516150f58160488501602087016138af565b9190910160480195945050505050565b600082516143688184602087016138af56fe7cdf5007585d1c7d3dfb23c59fcda5f9f02da78637d692495255a57630b72162a2646970667358221220dff5d6a998c23730d188e501209af7de8e0e463cee66db4ee57b329c4de82c4364736f6c63430008160033",
  "linkReferences": {},
  "deployedLinkReferences": {}
}