{
  "_format": "hh-sol-artifact-1",
  "contractName": "UsdoHelper",
  "sourceName": "contracts/usdo/extensions/UsdoHelper.sol",
  "abi": [
    {
      "inputs": [
        {
          "internalType": "uint16",
          "name": "msgIndex",
          "type": "uint16"
        },
        {
          "internalType": "uint16",
          "name": "expectedIndex",
          "type": "uint16"
        }
      ],
      "name": "InvalidExtraOptionsIndex",
      "type": "error"
    },
    {
      "inputs": [
        {
          "internalType": "uint16",
          "name": "msgIndex",
          "type": "uint16"
        },
        {
          "internalType": "uint16",
          "name": "expectedIndex",
          "type": "uint16"
        }
      ],
      "name": "InvalidMsgIndex",
      "type": "error"
    },
    {
      "inputs": [
        {
          "internalType": "uint16",
          "name": "msgType",
          "type": "uint16"
        }
      ],
      "name": "InvalidMsgType",
      "type": "error"
    },
    {
      "inputs": [
        {
          "internalType": "uint16",
          "name": "optionType",
          "type": "uint16"
        }
      ],
      "name": "InvalidOptionType",
      "type": "error"
    },
    {
      "inputs": [],
      "name": "MSG_SEND",
      "outputs": [
        {
          "internalType": "uint16",
          "name": "",
          "type": "uint16"
        }
      ],
      "stateMutability": "view",
      "type": "function"
    },
    {
      "inputs": [
        {
          "components": [
            {
              "components": [
                {
                  "internalType": "address",
                  "name": "from",
                  "type": "address"
                },
                {
                  "internalType": "address",
                  "name": "target",
                  "type": "address"
                },
                {
                  "internalType": "uint256",
                  "name": "paymentTokenAmount",
                  "type": "uint256"
                },
                {
                  "internalType": "uint256",
                  "name": "oTAPTokenID",
                  "type": "uint256"
                },
                {
                  "internalType": "uint256",
                  "name": "tapAmount",
                  "type": "uint256"
                }
              ],
              "internalType": "struct IExerciseOptionsData",
              "name": "optionsData",
              "type": "tuple"
            },
            {
              "internalType": "bool",
              "name": "withdrawOnOtherChain",
              "type": "bool"
            },
            {
              "components": [
                {
                  "components": [
                    {
                      "internalType": "uint32",
                      "name": "dstEid",
                      "type": "uint32"
                    },
                    {
                      "internalType": "bytes32",
                      "name": "to",
                      "type": "bytes32"
                    },
                    {
                      "internalType": "uint256",
                      "name": "amountLD",
                      "type": "uint256"
                    },
                    {
                      "internalType": "uint256",
                      "name": "minAmountLD",
                      "type": "uint256"
                    },
                    {
                      "internalType": "bytes",
                      "name": "extraOptions",
                      "type": "bytes"
                    },
                    {
                      "internalType": "bytes",
                      "name": "composeMsg",
                      "type": "bytes"
                    },
                    {
                      "internalType": "bytes",
                      "name": "oftCmd",
                      "type": "bytes"
                    }
                  ],
                  "internalType": "struct SendParam",
                  "name": "sendParam",
                  "type": "tuple"
                },
                {
                  "components": [
                    {
                      "internalType": "uint256",
                      "name": "nativeFee",
                      "type": "uint256"
                    },
                    {
                      "internalType": "uint256",
                      "name": "lzTokenFee",
                      "type": "uint256"
                    }
                  ],
                  "internalType": "struct MessagingFee",
                  "name": "fee",
                  "type": "tuple"
                },
                {
                  "internalType": "bytes",
                  "name": "extraOptions",
                  "type": "bytes"
                },
                {
                  "internalType": "address",
                  "name": "refundAddress",
                  "type": "address"
                }
              ],
              "internalType": "struct LZSendParam",
              "name": "lzSendParams",
              "type": "tuple"
            }
          ],
          "internalType": "struct ExerciseOptionsMsg",
          "name": "_msg",
          "type": "tuple"
        }
      ],
      "name": "buildExerciseOptionMsg",
      "outputs": [
        {
          "internalType": "bytes",
          "name": "",
          "type": "bytes"
        }
      ],
      "stateMutability": "pure",
      "type": "function"
    },
    {
      "inputs": [
        {
          "components": [
            {
              "internalType": "address",
              "name": "user",
              "type": "address"
            },
            {
              "components": [
                {
                  "internalType": "bool",
                  "name": "repay",
                  "type": "bool"
                },
                {
                  "internalType": "uint256",
                  "name": "depositAmount",
                  "type": "uint256"
                },
                {
                  "internalType": "uint256",
                  "name": "repayAmount",
                  "type": "uint256"
                },
                {
                  "internalType": "address",
                  "name": "marketHelper",
                  "type": "address"
                },
                {
                  "internalType": "address",
                  "name": "magnetar",
                  "type": "address"
                },
                {
                  "internalType": "address",
                  "name": "market",
                  "type": "address"
                },
                {
                  "internalType": "bool",
                  "name": "removeCollateral",
                  "type": "bool"
                },
                {
                  "internalType": "uint256",
                  "name": "removeCollateralAmount",
                  "type": "uint256"
                },
                {
                  "components": [
                    {
                      "internalType": "bool",
                      "name": "lock",
                      "type": "bool"
                    },
                    {
                      "internalType": "address",
                      "name": "target",
                      "type": "address"
                    },
                    {
                      "internalType": "uint128",
                      "name": "lockDuration",
                      "type": "uint128"
                    },
                    {
                      "internalType": "uint128",
                      "name": "amount",
                      "type": "uint128"
                    },
                    {
                      "internalType": "uint256",
                      "name": "fraction",
                      "type": "uint256"
                    }
                  ],
                  "internalType": "struct IOptionsLockData",
                  "name": "lockData",
                  "type": "tuple"
                },
                {
                  "components": [
                    {
                      "internalType": "bool",
                      "name": "participate",
                      "type": "bool"
                    },
                    {
                      "internalType": "address",
                      "name": "target",
                      "type": "address"
                    },
                    {
                      "internalType": "uint256",
                      "name": "tOLPTokenId",
                      "type": "uint256"
                    }
                  ],
                  "internalType": "struct IOptionsParticipateData",
                  "name": "participateData",
                  "type": "tuple"
                }
              ],
              "internalType": "struct ILendOrRepayParams",
              "name": "lendParams",
              "type": "tuple"
            },
            {
              "components": [
                {
                  "internalType": "address",
                  "name": "yieldBox",
                  "type": "address"
                },
                {
                  "internalType": "uint256",
                  "name": "assetId",
                  "type": "uint256"
                },
                {
                  "internalType": "address",
                  "name": "receiver",
                  "type": "address"
                },
                {
                  "internalType": "uint256",
                  "name": "amount",
                  "type": "uint256"
                },
                {
                  "internalType": "bool",
                  "name": "unwrap",
                  "type": "bool"
                },
                {
                  "internalType": "bool",
                  "name": "withdraw",
                  "type": "bool"
                }
              ],
              "internalType": "struct MagnetarWithdrawData",
              "name": "withdrawParams",
              "type": "tuple"
            }
          ],
          "internalType": "struct MarketLendOrRepayMsg",
          "name": "_msg",
          "type": "tuple"
        }
      ],
      "name": "buildMarketLendOrRepayMsg",
      "outputs": [
        {
          "internalType": "bytes",
          "name": "",
          "type": "bytes"
        }
      ],
      "stateMutability": "pure",
      "type": "function"
    },
    {
      "inputs": [
        {
          "components": [
            {
              "internalType": "address",
              "name": "target",
              "type": "address"
            },
            {
              "internalType": "address",
              "name": "owner",
              "type": "address"
            },
            {
              "internalType": "address",
              "name": "spender",
              "type": "address"
            },
            {
              "internalType": "uint256",
              "name": "value",
              "type": "uint256"
            },
            {
              "internalType": "uint256",
              "name": "deadline",
              "type": "uint256"
            },
            {
              "internalType": "uint8",
              "name": "v",
              "type": "uint8"
            },
            {
              "internalType": "bytes32",
              "name": "r",
              "type": "bytes32"
            },
            {
              "internalType": "bytes32",
              "name": "s",
              "type": "bytes32"
            },
            {
              "internalType": "bool",
              "name": "permitAsset",
              "type": "bool"
            }
          ],
          "internalType": "struct MarketPermitActionMsg",
          "name": "_marketPermitActionMsg",
          "type": "tuple"
        }
      ],
      "name": "buildMarketPermitApprovalMsg",
      "outputs": [
        {
          "internalType": "bytes",
          "name": "msg_",
          "type": "bytes"
        }
      ],
      "stateMutability": "pure",
      "type": "function"
    },
    {
      "inputs": [
        {
          "components": [
            {
              "internalType": "address",
              "name": "user",
              "type": "address"
            },
            {
              "components": [
                {
                  "internalType": "address",
                  "name": "magnetar",
                  "type": "address"
                },
                {
                  "internalType": "address",
                  "name": "singularity",
                  "type": "address"
                },
                {
                  "internalType": "address",
                  "name": "bigBang",
                  "type": "address"
                },
                {
                  "internalType": "address",
                  "name": "marketHelper",
                  "type": "address"
                }
              ],
              "internalType": "struct ICommonExternalContracts",
              "name": "externalData",
              "type": "tuple"
            },
            {
              "components": [
                {
                  "internalType": "bool",
                  "name": "removeAssetFromSGL",
                  "type": "bool"
                },
                {
                  "internalType": "uint256",
                  "name": "removeAmount",
                  "type": "uint256"
                },
                {
                  "internalType": "bool",
                  "name": "repayAssetOnBB",
                  "type": "bool"
                },
                {
                  "internalType": "uint256",
                  "name": "repayAmount",
                  "type": "uint256"
                },
                {
                  "internalType": "bool",
                  "name": "removeCollateralFromBB",
                  "type": "bool"
                },
                {
                  "internalType": "uint256",
                  "name": "collateralAmount",
                  "type": "uint256"
                },
                {
                  "components": [
                    {
                      "internalType": "bool",
                      "name": "exit",
                      "type": "bool"
                    },
                    {
                      "internalType": "address",
                      "name": "target",
                      "type": "address"
                    },
                    {
                      "internalType": "uint256",
                      "name": "oTAPTokenID",
                      "type": "uint256"
                    }
                  ],
                  "internalType": "struct IOptionsExitData",
                  "name": "exitData",
                  "type": "tuple"
                },
                {
                  "components": [
                    {
                      "internalType": "bool",
                      "name": "unlock",
                      "type": "bool"
                    },
                    {
                      "internalType": "address",
                      "name": "target",
                      "type": "address"
                    },
                    {
                      "internalType": "uint256",
                      "name": "tokenId",
                      "type": "uint256"
                    }
                  ],
                  "internalType": "struct IOptionsUnlockData",
                  "name": "unlockData",
                  "type": "tuple"
                },
                {
                  "components": [
                    {
                      "internalType": "address",
                      "name": "yieldBox",
                      "type": "address"
                    },
                    {
                      "internalType": "uint256",
                      "name": "assetId",
                      "type": "uint256"
                    },
                    {
                      "internalType": "address",
                      "name": "receiver",
                      "type": "address"
                    },
                    {
                      "internalType": "uint256",
                      "name": "amount",
                      "type": "uint256"
                    },
                    {
                      "internalType": "bool",
                      "name": "unwrap",
                      "type": "bool"
                    },
                    {
                      "internalType": "bool",
                      "name": "withdraw",
                      "type": "bool"
                    }
                  ],
                  "internalType": "struct MagnetarWithdrawData",
                  "name": "assetWithdrawData",
                  "type": "tuple"
                },
                {
                  "components": [
                    {
                      "internalType": "address",
                      "name": "yieldBox",
                      "type": "address"
                    },
                    {
                      "internalType": "uint256",
                      "name": "assetId",
                      "type": "uint256"
                    },
                    {
                      "internalType": "address",
                      "name": "receiver",
                      "type": "address"
                    },
                    {
                      "internalType": "uint256",
                      "name": "amount",
                      "type": "uint256"
                    },
                    {
                      "internalType": "bool",
                      "name": "unwrap",
                      "type": "bool"
                    },
                    {
                      "internalType": "bool",
                      "name": "withdraw",
                      "type": "bool"
                    }
                  ],
                  "internalType": "struct MagnetarWithdrawData",
                  "name": "collateralWithdrawData",
                  "type": "tuple"
                }
              ],
              "internalType": "struct IRemoveAndRepay",
              "name": "removeAndRepayData",
              "type": "tuple"
            }
          ],
          "internalType": "struct MarketRemoveAssetMsg",
          "name": "_msg",
          "type": "tuple"
        }
      ],
      "name": "buildMarketRemoveAssetMsg",
      "outputs": [
        {
          "internalType": "bytes",
          "name": "",
          "type": "bytes"
        }
      ],
      "stateMutability": "pure",
      "type": "function"
    },
    {
      "inputs": [
        {
          "components": [
            {
              "internalType": "address",
              "name": "owner",
              "type": "address"
            },
            {
              "components": [
                {
                  "components": [
                    {
                      "internalType": "uint32",
                      "name": "dstEid",
                      "type": "uint32"
                    },
                    {
                      "internalType": "bytes32",
                      "name": "to",
                      "type": "bytes32"
                    },
                    {
                      "internalType": "uint256",
                      "name": "amountLD",
                      "type": "uint256"
                    },
                    {
                      "internalType": "uint256",
                      "name": "minAmountLD",
                      "type": "uint256"
                    },
                    {
                      "internalType": "bytes",
                      "name": "extraOptions",
                      "type": "bytes"
                    },
                    {
                      "internalType": "bytes",
                      "name": "composeMsg",
                      "type": "bytes"
                    },
                    {
                      "internalType": "bytes",
                      "name": "oftCmd",
                      "type": "bytes"
                    }
                  ],
                  "internalType": "struct SendParam",
                  "name": "sendParam",
                  "type": "tuple"
                },
                {
                  "components": [
                    {
                      "internalType": "uint256",
                      "name": "nativeFee",
                      "type": "uint256"
                    },
                    {
                      "internalType": "uint256",
                      "name": "lzTokenFee",
                      "type": "uint256"
                    }
                  ],
                  "internalType": "struct MessagingFee",
                  "name": "fee",
                  "type": "tuple"
                },
                {
                  "internalType": "bytes",
                  "name": "extraOptions",
                  "type": "bytes"
                },
                {
                  "internalType": "address",
                  "name": "refundAddress",
                  "type": "address"
                }
              ],
              "internalType": "struct LZSendParam",
              "name": "lzSendParam",
              "type": "tuple"
            },
            {
              "internalType": "bytes",
              "name": "composeMsg",
              "type": "bytes"
            }
          ],
          "internalType": "struct RemoteTransferMsg",
          "name": "_remoteTransferMsg",
          "type": "tuple"
        }
      ],
      "name": "buildRemoteTransferMsg",
      "outputs": [
        {
          "internalType": "bytes",
          "name": "",
          "type": "bytes"
        }
      ],
      "stateMutability": "pure",
      "type": "function"
    },
    {
      "inputs": [
        {
          "internalType": "contract ITapiocaOmnichainEngine",
          "name": "_toeToken",
          "type": "address"
        },
        {
          "internalType": "bytes",
          "name": "_msg",
          "type": "bytes"
        },
        {
          "internalType": "uint16",
          "name": "_msgType",
          "type": "uint16"
        },
        {
          "internalType": "uint16",
          "name": "_msgIndex",
          "type": "uint16"
        },
        {
          "internalType": "uint32",
          "name": "_dstEid",
          "type": "uint32"
        },
        {
          "internalType": "bytes",
          "name": "_extraOptions",
          "type": "bytes"
        },
        {
          "internalType": "bytes",
          "name": "_tapComposedMsg",
          "type": "bytes"
        }
      ],
      "name": "buildToeComposeMsgAndOptions",
      "outputs": [
        {
          "internalType": "bytes",
          "name": "message",
          "type": "bytes"
        },
        {
          "internalType": "bytes",
          "name": "options",
          "type": "bytes"
        }
      ],
      "stateMutability": "view",
      "type": "function"
    },
    {
      "inputs": [
        {
          "components": [
            {
              "internalType": "address",
              "name": "target",
              "type": "address"
            },
            {
              "internalType": "address",
              "name": "owner",
              "type": "address"
            },
            {
              "internalType": "address",
              "name": "spender",
              "type": "address"
            },
            {
              "internalType": "uint256",
              "name": "deadline",
              "type": "uint256"
            },
            {
              "internalType": "uint8",
              "name": "v",
              "type": "uint8"
            },
            {
              "internalType": "bytes32",
              "name": "r",
              "type": "bytes32"
            },
            {
              "internalType": "bytes32",
              "name": "s",
              "type": "bytes32"
            },
            {
              "internalType": "bool",
              "name": "permit",
              "type": "bool"
            }
          ],
          "internalType": "struct YieldBoxApproveAllMsg",
          "name": "_yieldBoxApprovalAllMsg",
          "type": "tuple"
        }
      ],
      "name": "buildYieldBoxApproveAllMsg",
      "outputs": [
        {
          "internalType": "bytes",
          "name": "msg_",
          "type": "bytes"
        }
      ],
      "stateMutability": "pure",
      "type": "function"
    },
    {
      "inputs": [
        {
          "components": [
            {
              "internalType": "address",
              "name": "target",
              "type": "address"
            },
            {
              "internalType": "address",
              "name": "owner",
              "type": "address"
            },
            {
              "internalType": "address",
              "name": "spender",
              "type": "address"
            },
            {
              "internalType": "uint256",
              "name": "assetId",
              "type": "uint256"
            },
            {
              "internalType": "uint256",
              "name": "deadline",
              "type": "uint256"
            },
            {
              "internalType": "uint8",
              "name": "v",
              "type": "uint8"
            },
            {
              "internalType": "bytes32",
              "name": "r",
              "type": "bytes32"
            },
            {
              "internalType": "bytes32",
              "name": "s",
              "type": "bytes32"
            },
            {
              "internalType": "bool",
              "name": "permit",
              "type": "bool"
            }
          ],
          "internalType": "struct YieldBoxApproveAssetMsg[]",
          "name": "_approvalMsg",
          "type": "tuple[]"
        }
      ],
      "name": "buildYieldBoxApproveAssetMsg",
      "outputs": [
        {
          "internalType": "bytes",
          "name": "msg_",
          "type": "bytes"
        }
      ],
      "stateMutability": "pure",
      "type": "function"
    },
    {
      "inputs": [
        {
          "components": [
            {
              "internalType": "address",
              "name": "token",
              "type": "address"
            },
            {
              "internalType": "address",
              "name": "owner",
              "type": "address"
            },
            {
              "internalType": "address",
              "name": "spender",
              "type": "address"
            },
            {
              "internalType": "uint256",
              "name": "value",
              "type": "uint256"
            },
            {
              "internalType": "uint256",
              "name": "deadline",
              "type": "uint256"
            },
            {
              "internalType": "uint8",
              "name": "v",
              "type": "uint8"
            },
            {
              "internalType": "bytes32",
              "name": "r",
              "type": "bytes32"
            },
            {
              "internalType": "bytes32",
              "name": "s",
              "type": "bytes32"
            }
          ],
          "internalType": "struct ERC20PermitApprovalMsg[]",
          "name": "_erc20PermitApprovalMsg",
          "type": "tuple[]"
        }
      ],
      "name": "encodeERC20PermitApprovalMsg",
      "outputs": [
        {
          "internalType": "bytes",
          "name": "msg_",
          "type": "bytes"
        }
      ],
      "stateMutability": "pure",
      "type": "function"
    },
    {
      "inputs": [
        {
          "components": [
            {
              "internalType": "address",
              "name": "token",
              "type": "address"
            },
            {
              "internalType": "address",
              "name": "spender",
              "type": "address"
            },
            {
              "internalType": "uint256",
              "name": "tokenId",
              "type": "uint256"
            },
            {
              "internalType": "uint256",
              "name": "deadline",
              "type": "uint256"
            },
            {
              "internalType": "uint8",
              "name": "v",
              "type": "uint8"
            },
            {
              "internalType": "bytes32",
              "name": "r",
              "type": "bytes32"
            },
            {
              "internalType": "bytes32",
              "name": "s",
              "type": "bytes32"
            }
          ],
          "internalType": "struct ERC721PermitApprovalMsg[]",
          "name": "_erc721PermitApprovalMsg",
          "type": "tuple[]"
        }
      ],
      "name": "encodeERC721PermitApprovalMsg",
      "outputs": [
        {
          "internalType": "bytes",
          "name": "msg_",
          "type": "bytes"
        }
      ],
      "stateMutability": "pure",
      "type": "function"
    },
    {
      "inputs": [
        {
          "internalType": "address",
          "name": "_pearlmit",
          "type": "address"
        },
        {
          "components": [
            {
              "components": [
                {
                  "internalType": "uint8",
                  "name": "tokenType",
                  "type": "uint8"
                },
                {
                  "internalType": "address",
                  "name": "token",
                  "type": "address"
                },
                {
                  "internalType": "uint256",
                  "name": "id",
                  "type": "uint256"
                },
                {
                  "internalType": "uint200",
                  "name": "amount",
                  "type": "uint200"
                },
                {
                  "internalType": "address",
                  "name": "operator",
                  "type": "address"
                }
              ],
              "internalType": "struct IPearlmit.SignatureApproval[]",
              "name": "approvals",
              "type": "tuple[]"
            },
            {
              "internalType": "address",
              "name": "owner",
              "type": "address"
            },
            {
              "internalType": "uint256",
              "name": "nonce",
              "type": "uint256"
            },
            {
              "internalType": "uint48",
              "name": "sigDeadline",
              "type": "uint48"
            },
            {
              "internalType": "bytes",
              "name": "signedPermit",
              "type": "bytes"
            },
            {
              "internalType": "address",
              "name": "executor",
              "type": "address"
            },
            {
              "internalType": "bytes32",
              "name": "hashedData",
              "type": "bytes32"
            }
          ],
          "internalType": "struct IPearlmit.PermitBatchTransferFrom",
          "name": "_data",
          "type": "tuple"
        }
      ],
      "name": "encodePearlmitApprovalMsg",
      "outputs": [
        {
          "internalType": "bytes",
          "name": "msg_",
          "type": "bytes"
        }
      ],
      "stateMutability": "pure",
      "type": "function"
    },
    {
      "inputs": [
        {
          "internalType": "contract ITapiocaOmnichainEngine",
          "name": "_toeToken",
          "type": "address"
        },
        {
          "components": [
            {
              "internalType": "uint32",
              "name": "dstEid",
              "type": "uint32"
            },
            {
              "internalType": "bytes32",
              "name": "recipient",
              "type": "bytes32"
            },
            {
              "internalType": "uint256",
              "name": "amountToSendLD",
              "type": "uint256"
            },
            {
              "internalType": "uint256",
              "name": "minAmountToCreditLD",
              "type": "uint256"
            },
            {
              "internalType": "uint16",
              "name": "msgType",
              "type": "uint16"
            },
            {
              "components": [
                {
                  "internalType": "uint8",
                  "name": "index",
                  "type": "uint8"
                },
                {
                  "internalType": "uint128",
                  "name": "gas",
                  "type": "uint128"
                },
                {
                  "internalType": "uint128",
                  "name": "value",
                  "type": "uint128"
                },
                {
                  "internalType": "bytes",
                  "name": "data",
                  "type": "bytes"
                },
                {
                  "internalType": "bytes",
                  "name": "prevData",
                  "type": "bytes"
                },
                {
                  "internalType": "bytes",
                  "name": "prevOptionsData",
                  "type": "bytes"
                }
              ],
              "internalType": "struct ComposeMsgData",
              "name": "composeMsgData",
              "type": "tuple"
            },
            {
              "internalType": "uint128",
              "name": "lzReceiveGas",
              "type": "uint128"
            },
            {
              "internalType": "uint128",
              "name": "lzReceiveValue",
              "type": "uint128"
            },
            {
              "internalType": "address",
              "name": "refundAddress",
              "type": "address"
            }
          ],
          "internalType": "struct PrepareLzCallData",
          "name": "_prepareLzCallData",
          "type": "tuple"
        }
      ],
      "name": "prepareLzCall",
      "outputs": [
        {
          "components": [
            {
              "internalType": "bytes",
              "name": "composeMsg",
              "type": "bytes"
            },
            {
              "internalType": "bytes",
              "name": "composeOptions",
              "type": "bytes"
            },
            {
              "components": [
                {
                  "internalType": "uint32",
                  "name": "dstEid",
                  "type": "uint32"
                },
                {
                  "internalType": "bytes32",
                  "name": "to",
                  "type": "bytes32"
                },
                {
                  "internalType": "uint256",
                  "name": "amountLD",
                  "type": "uint256"
                },
                {
                  "internalType": "uint256",
                  "name": "minAmountLD",
                  "type": "uint256"
                },
                {
                  "internalType": "bytes",
                  "name": "extraOptions",
                  "type": "bytes"
                },
                {
                  "internalType": "bytes",
                  "name": "composeMsg",
                  "type": "bytes"
                },
                {
                  "internalType": "bytes",
                  "name": "oftCmd",
                  "type": "bytes"
                }
              ],
              "internalType": "struct SendParam",
              "name": "sendParam",
              "type": "tuple"
            },
            {
              "components": [
                {
                  "internalType": "uint256",
                  "name": "nativeFee",
                  "type": "uint256"
                },
                {
                  "internalType": "uint256",
                  "name": "lzTokenFee",
                  "type": "uint256"
                }
              ],
              "internalType": "struct MessagingFee",
              "name": "msgFee",
              "type": "tuple"
            },
            {
              "components": [
                {
                  "components": [
                    {
                      "internalType": "uint32",
                      "name": "dstEid",
                      "type": "uint32"
                    },
                    {
                      "internalType": "bytes32",
                      "name": "to",
                      "type": "bytes32"
                    },
                    {
                      "internalType": "uint256",
                      "name": "amountLD",
                      "type": "uint256"
                    },
                    {
                      "internalType": "uint256",
                      "name": "minAmountLD",
                      "type": "uint256"
                    },
                    {
                      "internalType": "bytes",
                      "name": "extraOptions",
                      "type": "bytes"
                    },
                    {
                      "internalType": "bytes",
                      "name": "composeMsg",
                      "type": "bytes"
                    },
                    {
                      "internalType": "bytes",
                      "name": "oftCmd",
                      "type": "bytes"
                    }
                  ],
                  "internalType": "struct SendParam",
                  "name": "sendParam",
                  "type": "tuple"
                },
                {
                  "components": [
                    {
                      "internalType": "uint256",
                      "name": "nativeFee",
                      "type": "uint256"
                    },
                    {
                      "internalType": "uint256",
                      "name": "lzTokenFee",
                      "type": "uint256"
                    }
                  ],
                  "internalType": "struct MessagingFee",
                  "name": "fee",
                  "type": "tuple"
                },
                {
                  "internalType": "bytes",
                  "name": "extraOptions",
                  "type": "bytes"
                },
                {
                  "internalType": "address",
                  "name": "refundAddress",
                  "type": "address"
                }
              ],
              "internalType": "struct LZSendParam",
              "name": "lzSendParam",
              "type": "tuple"
            },
            {
              "internalType": "bytes",
              "name": "oftMsgOptions",
              "type": "bytes"
            }
          ],
          "internalType": "struct PrepareLzCallReturn",
          "name": "prepareLzCallReturn_",
          "type": "tuple"
        }
      ],
      "stateMutability": "view",
      "type": "function"
    },
    {
      "inputs": [
        {
          "internalType": "uint64",
          "name": "_amountSD",
          "type": "uint64"
        },
        {
          "internalType": "uint256",
          "name": "_decimalConversionRate",
          "type": "uint256"
        }
      ],
      "name": "toLD",
      "outputs": [
        {
          "internalType": "uint256",
          "name": "amountLD",
          "type": "uint256"
        }
      ],
      "stateMutability": "pure",
      "type": "function"
    },
    {
      "inputs": [
        {
          "internalType": "uint256",
          "name": "_amountLD",
          "type": "uint256"
        },
        {
          "internalType": "uint256",
          "name": "_decimalConversionRate",
          "type": "uint256"
        }
      ],
      "name": "toSD",
      "outputs": [
        {
          "internalType": "uint64",
          "name": "amountSD",
          "type": "uint64"
        }
      ],
      "stateMutability": "pure",
      "type": "function"
    }
  ],
  "bytecode": "0x608060405234801561001057600080fd5b5061333b806100206000396000f3fe608060405234801561001057600080fd5b50600436106100f55760003560e01c80638118326b11610097578063d09fe8c011610066578063d09fe8c014610205578063e6fef25b14610225578063f323807114610238578063fa8182541461026457600080fd5b80638118326b1461019557806388551275146101a857806390169321146101c9578063a3713725146101ea57600080fd5b80633158ce5e116100d35780633158ce5e146101495780633d1afd7a1461015c57806342c6e4491461016f57806351fd22e91461018257600080fd5b80631b2b6a6a146100fa5780632141de93146101235780632cb1ddc614610136575b600080fd5b61010d6101083660046115f9565b610277565b60405161011a91906116dc565b60405180910390f35b61010d610131366004611707565b610288565b61010d6101443660046117fb565b61029b565b61010d6101573660046118a1565b610300565b61010d61016a3660046118be565b61030b565b61010d61017d3660046119b1565b610316565b61010d6101903660046119c4565b61032f565b61010d6101a3366004611a14565b61034a565b6101bb6101b6366004611a27565b610363565b60405190815260200161011a565b6101dc6101d7366004611aff565b610379565b60405161011a929190611bcc565b6101f2600181565b60405161ffff909116815260200161011a565b610218610213366004611ce1565b610447565b60405161011a9190611ec8565b61010d6102333660046120db565b6108ec565b61024b61024636600461217f565b6108f7565b60405167ffffffffffffffff909116815260200161011a565b61010d6102723660046121a1565b610903565b60606102828261090e565b92915050565b6060610282610296836122a8565b6109df565b805160609060005b818110156102f957826102ce8583815181106102c1576102c1612363565b60200260200101516109f2565b6040516020016102df929190612392565b60408051601f1981840301815291905292506001016102a3565b5050919050565b6060610282826109f2565b606061028282610abf565b606061028261032a36849003840184612535565b610ad2565b60606103438361033e846126e3565b610ae5565b9392505050565b606061028261035e36849003840184612804565b610b11565b60006103438267ffffffffffffffff8516612926565b60608061038587610b24565b61038f8684610bec565b61039b88888886610c99565b6040517fbc70b35400000000000000000000000000000000000000000000000000000000815290925073ffffffffffffffffffffffffffffffffffffffff8a169063bc70b354906103f49088908b90899060040161293d565b600060405180830381865afa158015610411573d6000803e3d6000fd5b505050506040513d6000823e601f3d908101601f191682016040526104399190810190612966565b905097509795505050505050565b61044f6112e9565b6104986040518060e00160405280600063ffffffff1681526020016000801916815260200160008152602001600081526020016060815260200160608152602001606081525090565b6060806104b8604051806040016040528060008152602001600081525090565b6104c0611387565b60606040518060e00160405280896000015163ffffffff1681526020018960200151815260200189604001518152602001896060015181526020016040518060400160405280600281526020017f307800000000000000000000000000000000000000000000000000000000000081525081526020016040518060400160405280600281526020017f307800000000000000000000000000000000000000000000000000000000000081525081526020016040518060400160405280600281526020017f3078000000000000000000000000000000000000000000000000000000000000815250815250955060008860a001516060015151111561065957610620610602604080517e03000000000000000000000000000000000000000000000000000000000000602082015281516002818303018152602290910190915290565b60a08a01518051602082015160409092015160ff9091169190610cce565b9450610654898960a00151606001518a608001518b60a001516000015160ff168a600001518a8e60a0015160800151610379565b955093505b60a080890151015151156107135760008860a0015160a001515111610705576040517f08c379a000000000000000000000000000000000000000000000000000000000815260206004820152602760248201527f5f707265706172654c7a43616c6c3a20696e76616c696420707265764f70746960448201527f6f6e73446174610000000000000000000000000000000000000000000000000060648201526084015b60405180910390fd5b5060a0808801510151610750565b50604080517e0300000000000000000000000000000000000000000000000000000000000060208201528151600281830301815260229091019091525b60008860e001516fffffffffffffffffffffffffffffffff16118061078b575060008860c001516fffffffffffffffffffffffffffffffff16115b156107a6576107a3818960c001518a60e00151610d51565b90505b8451156107d15760a0880151805160208201516040909201516107ce92849260ff1691610cce565b90505b6040517f2e45088500000000000000000000000000000000000000000000000000000000815273ffffffffffffffffffffffffffffffffffffffff8a1690632e4508859061082a90899085906000908a906004016129d4565b6040805180830381865afa158015610846573d6000803e3d6000fd5b505050506040513d601f19601f8201168201806040525081019061086a9190612a32565b608080880183905260a08089018790526040805180840182528a81526020808201869052818301879052610100909d015173ffffffffffffffffffffffffffffffffffffffff16606080830191909152825160c081018452998a529c890199909952870198909852988501529683019390935250918201939093529392505050565b606061028282610d99565b60006103438284612a64565b606061028282610dac565b8051602080830151604080850151606086810151608088015160a089015160c08a015160e08b015196517fffffffffffffffffffffffffffffffffffffffff0000000000000000000000009a861b8b169981019990995296841b8916603489015293831b9097166048870152605c8601527fff0000000000000000000000000000000000000000000000000000000000000060f896871b16607c860152607d850191909152609d840192909252151590921b60bd82015260be015b6040516020818303038152906040529050919050565b6060816040516020016109c99190612a9f565b8051602080830151604080850151606086810151608088015160a089015160c08a015160e08b01516101008c015197517fffffffffffffffffffffffffffffffffffffffff0000000000000000000000009b871b8c169a81019a909a5297851b8a1660348a015294841b9098166048880152605c870191909152607c8601527fff0000000000000000000000000000000000000000000000000000000000000060f896871b16609c860152609d85019190915260bd840192909252151590921b60dd82015260de016109c9565b6060816040516020016109c99190612b16565b6060816040516020016109c99190612bb4565b60608282604051602001610afa929190612d66565b604051602081830303815290604052905092915050565b6060816040516020016109c99190612ed9565b61ffff811660011480610b3c575061ffff81166101f4145b80610b4c575061ffff81166101f5145b80610b5c575061ffff81166101f6145b80610b6c575061ffff81166102bc145b80610b7c575061ffff81166101f7145b80610b8c575061ffff81166101f8145b80610b9c575061ffff81166101f9145b15610ba45750565b610bad81610dbf565b610be9576040517fa7ac386300000000000000000000000000000000000000000000000000000000815261ffff821660048201526024016106fc565b50565b8051158015610bfd575061ffff8216155b15610c06575050565b8060005b815115610c2c57610c1a82610dff565b9050610c2582610e18565b9150610c0a565b6000610c398260016130bb565b845190915015610c59578061ffff168561ffff1603610c59575050505050565b6040517f5a958af900000000000000000000000000000000000000000000000000000000815261ffff8087166004830152821660248201526044016106fc565b6060818486518588604051602001610cb59594939291906130d6565b6040516020818303038152906040529050949350505050565b6060846003610cde826000610e5f565b61ffff1614610d2b57610cf2816000610e5f565b6040517f3a51740d00000000000000000000000000000000000000000000000000000000815261ffff90911660048201526024016106fc565b6000610d38868686610edf565b9050610d4687600383610fea565b979650505050505050565b6060836003610d61826000610e5f565b61ffff1614610d7557610cf2816000610e5f565b6000610d818585611055565b9050610d8f86600183610fea565b9695505050505050565b6060816040516020016109c9919061314f565b6060816040516020016109c991906131a8565b600061ffff82166103841480610dda575061ffff8216610385145b80610dea575061ffff8216610386145b15610df757506001919050565b506000919050565b6000610282610e1183600460026110f5565b6000610e5f565b60606000610e2b610e11846002806110f5565b90506000610e3a8260066130bb565b61ffff169050610e578482838751610e529190613246565b6110f5565b949350505050565b6000610e6c826002613259565b83511015610ed6576040517f08c379a000000000000000000000000000000000000000000000000000000000815260206004820152601460248201527f746f55696e7431365f6f75744f66426f756e647300000000000000000000000060448201526064016106fc565b50016002015190565b60606fffffffffffffffffffffffffffffffff821615610f75576040517fffff00000000000000000000000000000000000000000000000000000000000060f086901b1660208201527fffffffffffffffffffffffffffffffff00000000000000000000000000000000608085811b8216602284015284901b166032820152604201604051602081830303815290604052610e57565b6040517fffff00000000000000000000000000000000000000000000000000000000000060f086901b1660208201527fffffffffffffffffffffffffffffffff00000000000000000000000000000000608085901b166022820152603201604051602081830303815290604052949350505050565b6060836003610ffa826000610e5f565b61ffff161461100e57610cf2816000610e5f565b84600161101b8551611251565b6110269060016130bb565b868660405160200161103c95949392919061326c565b6040516020818303038152906040529150509392505050565b60606fffffffffffffffffffffffffffffffff8216156110be57604080517fffffffffffffffffffffffffffffffff00000000000000000000000000000000608086811b8216602084015285901b16603082015201604051602081830303815290604052610343565b6040517fffffffffffffffffffffffffffffffff00000000000000000000000000000000608085901b166020820152603001610afa565b60608161110381601f613259565b101561116b576040517f08c379a000000000000000000000000000000000000000000000000000000000815260206004820152600e60248201527f736c6963655f6f766572666c6f7700000000000000000000000000000000000060448201526064016106fc565b6111758284613259565b845110156111df576040517f08c379a000000000000000000000000000000000000000000000000000000000815260206004820152601160248201527f736c6963655f6f75744f66426f756e647300000000000000000000000000000060448201526064016106fc565b6060821580156111fe5760405191506000825260208201604052611248565b6040519150601f8416801560200281840101858101878315602002848b0101015b8183101561123757805183526020928301920161121f565b5050858452601f01601f1916604052505b50949350505050565b600061ffff8211156112e5576040517f08c379a000000000000000000000000000000000000000000000000000000000815260206004820152602660248201527f53616665436173743a2076616c756520646f65736e27742066697420696e203160448201527f362062697473000000000000000000000000000000000000000000000000000060648201526084016106fc565b5090565b6040518060c00160405280606081526020016060815260200161134b6040518060e00160405280600063ffffffff1681526020016000801916815260200160008152602001600081526020016060815260200160608152602001606081525090565b815260200161136d604051806040016040528060008152602001600081525090565b815260200161137a611387565b8152602001606081525090565b60408051610160810190915260006080820181815260a0830182905260c0830182905260e0830191909152606061010083018190526101208301819052610140830152819081526020016113ee604051806040016040528060008152602001600081525090565b815260606020820152600060409091015290565b7f4e487b7100000000000000000000000000000000000000000000000000000000600052604160045260246000fd5b604051610100810167ffffffffffffffff8111828210171561145557611455611402565b60405290565b604051610120810167ffffffffffffffff8111828210171561145557611455611402565b60405160e0810167ffffffffffffffff8111828210171561145557611455611402565b60405160c0810167ffffffffffffffff8111828210171561145557611455611402565b6040805190810167ffffffffffffffff8111828210171561145557611455611402565b6040516080810167ffffffffffffffff8111828210171561145557611455611402565b6040516060810167ffffffffffffffff8111828210171561145557611455611402565b60405160a0810167ffffffffffffffff8111828210171561145557611455611402565b604051610140810167ffffffffffffffff8111828210171561145557611455611402565b604051601f8201601f1916810167ffffffffffffffff8111828210171561159e5761159e611402565b604052919050565b73ffffffffffffffffffffffffffffffffffffffff81168114610be957600080fd5b80356115d3816115a6565b919050565b803560ff811681146115d357600080fd5b803580151581146115d357600080fd5b6000610100828403121561160c57600080fd5b611614611431565b823561161f816115a6565b8152602083013561162f816115a6565b6020820152611640604084016115c8565b60408201526060830135606082015261165b608084016115d8565b608082015260a083013560a082015260c083013560c082015261168060e084016115e9565b60e08201529392505050565b60005b838110156116a757818101518382015260200161168f565b50506000910152565b600081518084526116c881602086016020860161168c565b601f01601f19169290920160200192915050565b60208152600061034360208301846116b0565b600060e0828403121561170157600080fd5b50919050565b60006020828403121561171957600080fd5b813567ffffffffffffffff81111561173057600080fd5b610e57848285016116ef565b600067ffffffffffffffff82111561175657611756611402565b5060051b60200190565b6000610120828403121561177357600080fd5b61177b61145b565b9050611786826115c8565b8152611794602083016115c8565b60208201526117a5604083016115c8565b604082015260608201356060820152608082013560808201526117ca60a083016115d8565b60a082015260c082013560c082015260e082013560e08201526101006117f18184016115e9565b9082015292915050565b6000602080838503121561180e57600080fd5b823567ffffffffffffffff81111561182557600080fd5b8301601f8101851361183657600080fd5b80356118496118448261173c565b611575565b80828252602082019150610120602081850286010193508884111561186d57600080fd5b6020850194505b83851015611895576118868986611760565b83529384019391850191611874565b50979650505050505050565b600061012082840312156118b457600080fd5b6103438383611760565b600060208083850312156118d157600080fd5b823567ffffffffffffffff8111156118e857600080fd5b8301601f810185136118f957600080fd5b80356119076118448261173c565b81815260e0918202830184019184820191908884111561192657600080fd5b938501935b838510156118955780858a0312156119435760008081fd5b61194b61147f565b8535611956816115a6565b815285870135611965816115a6565b818801526040868101359082015260608087013590820152608061198a8188016115d8565b9082015260a0868101359082015260c080870135908201528352938401939185019161192b565b60006103a0828403121561170157600080fd5b600080604083850312156119d757600080fd5b82356119e2816115a6565b9150602083013567ffffffffffffffff8111156119fe57600080fd5b611a0a858286016116ef565b9150509250929050565b60006102e0828403121561170157600080fd5b60008060408385031215611a3a57600080fd5b823567ffffffffffffffff81168114611a5257600080fd5b946020939093013593505050565b600067ffffffffffffffff821115611a7a57611a7a611402565b50601f01601f191660200190565b600082601f830112611a9957600080fd5b8135611aa761184482611a60565b818152846020838601011115611abc57600080fd5b816020850160208301376000918101602001919091529392505050565b803561ffff811681146115d357600080fd5b803563ffffffff811681146115d357600080fd5b600080600080600080600060e0888a031215611b1a57600080fd5b8735611b25816115a6565b9650602088013567ffffffffffffffff80821115611b4257600080fd5b611b4e8b838c01611a88565b9750611b5c60408b01611ad9565b9650611b6a60608b01611ad9565b9550611b7860808b01611aeb565b945060a08a0135915080821115611b8e57600080fd5b611b9a8b838c01611a88565b935060c08a0135915080821115611bb057600080fd5b50611bbd8a828b01611a88565b91505092959891949750929550565b604081526000611bdf60408301856116b0565b8281036020840152611bf181856116b0565b95945050505050565b80356fffffffffffffffffffffffffffffffff811681146115d357600080fd5b600060c08284031215611c2c57600080fd5b611c346114a2565b9050611c3f826115d8565b8152611c4d60208301611bfa565b6020820152611c5e60408301611bfa565b6040820152606082013567ffffffffffffffff80821115611c7e57600080fd5b611c8a85838601611a88565b60608401526080840135915080821115611ca357600080fd5b611caf85838601611a88565b608084015260a0840135915080821115611cc857600080fd5b50611cd584828501611a88565b60a08301525092915050565b60008060408385031215611cf457600080fd5b8235611cff816115a6565b9150602083013567ffffffffffffffff80821115611d1c57600080fd5b908401906101208287031215611d3157600080fd5b611d3961145b565b611d4283611aeb565b8152602083013560208201526040830135604082015260608301356060820152611d6e60808401611ad9565b608082015260a083013582811115611d8557600080fd5b611d9188828601611c1a565b60a083015250611da360c08401611bfa565b60c0820152611db460e08401611bfa565b60e08201526101009150611dc98284016115c8565b828201528093505050509250929050565b63ffffffff81511682526020810151602083015260408101516040830152606081015160608301526000608082015160e06080850152611e1d60e08501826116b0565b905060a083015184820360a0860152611e3682826116b0565b91505060c083015184820360c0860152611bf182826116b0565b6000815160a08452611e6560a0850182611dda565b90506020830151611e83602086018280518252602090810151910152565b5060408301518482036060860152611e9b82826116b0565b91505073ffffffffffffffffffffffffffffffffffffffff60608401511660808501528091505092915050565b602081526000825160e06020840152611ee56101008401826116b0565b90506020840151601f1980858403016040860152611f0383836116b0565b92506040860151915080858403016060860152611f208383611dda565b606087015180516080880152602081015160a0880152909350915060808601519150808584030160c0860152611f568383611e50565b925060a08601519150808584030160e086015250611bf182826116b0565b600060408284031215611f8657600080fd5b611f8e6114c5565b9050813581526020820135602082015292915050565b600060a08284031215611fb657600080fd5b611fbe6114e8565b9050813567ffffffffffffffff80821115611fd857600080fd5b9083019060e08286031215611fec57600080fd5b611ff461147f565b611ffd83611aeb565b815260208301356020820152604083013560408201526060830135606082015260808301358281111561202f57600080fd5b61203b87828601611a88565b60808301525060a08301358281111561205357600080fd5b61205f87828601611a88565b60a08301525060c08301358281111561207757600080fd5b61208387828601611a88565b60c08301525083526120988560208601611f74565b602084015260608401359150808211156120b157600080fd5b506120be84828501611a88565b6040830152506120d0608083016115c8565b606082015292915050565b6000602082840312156120ed57600080fd5b813567ffffffffffffffff8082111561210557600080fd5b908301906060828603121561211957600080fd5b61212161150b565b823561212c816115a6565b815260208301358281111561214057600080fd5b61214c87828601611fa4565b60208301525060408301358281111561216457600080fd5b61217087828601611a88565b60408301525095945050505050565b6000806040838503121561219257600080fd5b50508035926020909101359150565b600060208083850312156121b457600080fd5b823567ffffffffffffffff8111156121cb57600080fd5b8301601f810185136121dc57600080fd5b80356121ea6118448261173c565b81815260089190911b8201830190838101908783111561220957600080fd5b928401925b82841015610d465761010084890312156122285760008081fd5b612230611431565b843561223b816115a6565b81526122488587016115c8565b8682015260406122598187016115c8565b90820152606085810135908201526080808601359082015260a061227e8187016115d8565b9082015260c0858101359082015260e080860135908201528252610100909301929084019061220e565b600081360360e08112156122bb57600080fd5b6122c361150b565b60a08212156122d157600080fd5b6122d961152e565b915083356122e6816115a6565b825260208401356122f6816115a6565b8060208401525060408401356040830152606084013560608301526080840135608083015281815261232a60a085016115e9565b602082015260c0840135915067ffffffffffffffff82111561234b57600080fd5b61235736838601611fa4565b60408201529392505050565b7f4e487b7100000000000000000000000000000000000000000000000000000000600052603260045260246000fd5b600083516123a481846020880161168c565b8351908301906123b881836020880161168c565b01949350505050565b6000606082840312156123d357600080fd5b6123db61150b565b90506123e6826115e9565b815260208201356123f6816115a6565b806020830152506040820135604082015292915050565b600060c0828403121561241f57600080fd5b6124276114a2565b90508135612434816115a6565b815260208281013590820152604082013561244e816115a6565b604082015260608281013590820152612469608083016115e9565b608082015261247a60a083016115e9565b60a082015292915050565b6000610300828403121561249857600080fd5b6124a0611551565b90506124ab826115e9565b8152602082013560208201526124c3604083016115e9565b6040820152606082013560608201526124de608083016115e9565b608082015260a082013560a08201526124fa8360c084016123c1565b60c082015261012061250e848285016123c1565b60e083015261252184610180850161240d565b6101008301526117f184610240850161240d565b60008183036103a081121561254957600080fd5b61255161150b565b833561255c816115a6565b81526080601f198301121561257057600080fd5b6125786114e8565b91506020840135612588816115a6565b82526040840135612598816115a6565b602083015260608401356125ab816115a6565b604083015260808401356125be816115a6565b6060830152602081018290526125d78560a08601612485565b6040820152949350505050565b600082601f8301126125f557600080fd5b813560206126056118448361173c565b82815260a0928302850182019282820191908785111561262457600080fd5b8387015b858110156126c05781818a0312156126405760008081fd5b61264861152e565b612651826115d8565b815285820135612660816115a6565b818701526040828101359082015260608083013578ffffffffffffffffffffffffffffffffffffffffffffffffff8116811461269c5760008081fd5b908201526080828101356126af816115a6565b908201528452928401928101612628565b5090979650505050505050565b803565ffffffffffff811681146115d357600080fd5b600060e082360312156126f557600080fd5b6126fd61147f565b823567ffffffffffffffff8082111561271557600080fd5b612721368387016125e4565b835261272f602086016115c8565b60208401526040850135604084015261274a606086016126cd565b6060840152608085013591508082111561276357600080fd5b5061277036828601611a88565b60808301525061278260a084016115c8565b60a082015260c092830135928101929092525090565b600060a082840312156127aa57600080fd5b6127b261152e565b90506127bd826115e9565b815260208201356127cd816115a6565b60208201526127de60408301611bfa565b60408201526127ef60608301611bfa565b60608201526080820135608082015292915050565b60008183036102e081121561281857600080fd5b61282061150b565b833561282b816115a6565b8152610200601f198301121561284057600080fd5b612848611551565b9150612856602085016115e9565b82526040840135602083015260608401356040830152612878608085016115c8565b606083015261288960a085016115c8565b608083015261289a60c085016115c8565b60a08301526128ab60e085016115e9565b60c08301526101008085013560e08401526101206128cb87828801612798565b828501526128dd876101c088016123c1565b8185015250508160208201526125d785610220860161240d565b7f4e487b7100000000000000000000000000000000000000000000000000000000600052601160045260246000fd5b8082028115828204841417610282576102826128f7565b63ffffffff8416815261ffff83166020820152606060408201526000611bf160608301846116b0565b60006020828403121561297857600080fd5b815167ffffffffffffffff81111561298f57600080fd5b8201601f810184136129a057600080fd5b80516129ae61184482611a60565b8181528560208385010111156129c357600080fd5b611bf182602083016020860161168c565b60a0815260006129e760a0830187611dda565b82810360208401526129f981876116b0565b905084151560408401528281036060840152612a1581856116b0565b838103608090940193909352505060008152602001949350505050565b600060408284031215612a4457600080fd5b612a4c6114c5565b82518152602083015160208201528091505092915050565b600082612a9a577f4e487b7100000000000000000000000000000000000000000000000000000000600052601260045260246000fd5b500490565b602081526000825173ffffffffffffffffffffffffffffffffffffffff808251166020850152806020830151166040850152506040810151606084015260608101516080840152608081015160a0840152506020830151151560c0830152604083015160e080840152610e57610100840182611e50565b602080825282518282018190526000919060409081850190868401855b82811015612ba7578151805173ffffffffffffffffffffffffffffffffffffffff908116865287820151168786015285810151868601526060808201519086015260808082015160ff169086015260a0808201519086015260c0908101519085015260e09093019290850190600101612b33565b5091979650505050505050565b60006103a08201905073ffffffffffffffffffffffffffffffffffffffff808451168352602084015181815116602085015281602082015116604085015281604082015116606085015281606082015116608085015250506040830151612c2060a08401825115159052565b602081015160c0840152604081015180151560e0850152506060810151610100818186015260808301519150610120612c5c8187018415159052565b60a08481015161014088015260c08501518051151561016089015260208082015173ffffffffffffffffffffffffffffffffffffffff9081166101808b01526040928301516101a08b015260e0880151805115156101c08c01528083015182166101e08c01528301516102008b015294870151805186166102208b0152808201516102408b01528083015186166102608b01526060808201516102808c015260808083015115156102a08d01529185015115156102c08c01529490970151805186166102e08b0152908101516103008a01529081015190931661032088015290820151610340870152928101511515610360860152918201511515610380850152505b5092915050565b73ffffffffffffffffffffffffffffffffffffffff838116825260406020808401829052845160e08584015280516101208601819052600094929182019085906101408801905b80831015612e17578351805160ff16835285810151871686840152878101518884015260608082015178ffffffffffffffffffffffffffffffffffffffffffffffffff1690840152608090810151871690830152928401926001929092019160a090910190612dad565b508884015173ffffffffffffffffffffffffffffffffffffffff811660608a0152955060408901516080890152606089015165ffffffffffff811660a08a01529550608089015195507fffffffffffffffffffffffffffffffffffffffffffffffffffffffffffffffc08882030160c0890152612e9481876116b0565b9550505050505060a0840151612ec260e085018273ffffffffffffffffffffffffffffffffffffffff169052565b5060c0840151610100840152809150509392505050565b60006102e08201905073ffffffffffffffffffffffffffffffffffffffff83511682526020830151612f1060208401825115159052565b60208101516040840152604081015160608401526060810151612f4b608085018273ffffffffffffffffffffffffffffffffffffffff169052565b50608081015173ffffffffffffffffffffffffffffffffffffffff811660a08501525060a081015173ffffffffffffffffffffffffffffffffffffffff811660c08501525060c081015180151560e08501525060e0810151610100848101919091528101518051151561012080860191909152602082015173ffffffffffffffffffffffffffffffffffffffff1661014086015260408201516fffffffffffffffffffffffffffffffff90811661016087015260608301511661018086015260808201516101a08601529190910151805115156101c0850152602081015173ffffffffffffffffffffffffffffffffffffffff166101e08501526040810151610200850152905050604083810151805173ffffffffffffffffffffffffffffffffffffffff9081166102208601526020820151610240860152918101519091166102608401526060810151610280840152608081015115156102a084015260a081015115156102c0840152612d5f565b61ffff818116838216019080821115612d5f57612d5f6128f7565b600086516130e8818460208b0161168c565b80830190507fffff000000000000000000000000000000000000000000000000000000000000808860f01b168252808760f01b166002830152808660f01b16600483015250835161314081600684016020880161168c565b01600601979650505050505050565b6020815273ffffffffffffffffffffffffffffffffffffffff8251166020820152600060208301516060604084015261318b6080840182611e50565b90506040840151601f19848303016060850152611bf182826116b0565b602080825282518282018190526000919060409081850190868401855b82811015612ba7578151805173ffffffffffffffffffffffffffffffffffffffff908116865287820151811688870152868201511686860152606080820151908601526080808201519086015260a08082015160ff169086015260c0808201519086015260e0908101519085015261010090930192908501906001016131c5565b81810381811115610282576102826128f7565b80820180821115610282576102826128f7565b6000865161327e818460208b0161168c565b80830190507fff00000000000000000000000000000000000000000000000000000000000000808860f81b1682527fffff0000000000000000000000000000000000000000000000000000000000008760f01b166001830152808660f81b1660038301525083516132f681600484016020880161168c565b0160040197965050505050505056fea2646970667358221220e48c89f81723d14f0b6ec7e51f923009f56620c9b5854ddbdb636a245351de0e64736f6c63430008160033",
  "linkReferences": {},
  "deployedLinkReferences": {}
}